	  2495	  2495#	  2502	  2529	  2529#	  2536	  2563	  2563#	  2570	  2597	  2597#	  2604	  2631	  2631#
	  2638	  2665	  2665#	  2672	  2699	  2699#	  2706	  2733	  2733#	  2740	  2767	  2767#	  2774	  2801     SEQ 0405
	  2801#	  2808	  2835	  2835#	  2842	  2869	  2869#	  2876	  2903	  2903#	  2910	  2937	  2937#	  2944
	  2971	  2971#	  2978	  3005	  3005#	  3012	  3039	  3039#	  3046	  3073	  3073#	  3080	  3107	  3107#
	  3114	  3141	  3141#	  3148	  3208#	  3225	  3225#	  3232	  3259	  3259#	  3266	  3293	  3293#	  3300
	  3327	  3327#	  3334	  3361	  3361#	  3368	  3395	  3395#	  3402	  3429	  3429#	  3436	  3463	  3463#
	  3470	  3497	  3497#	  3504	  3531	  3531#	  3538	  3565	  3565#	  3572	  3599	  3599#	  3606	  3633
	  3633#	  3640	  3667	  3667#	  3674	  3701	  3701#	  3708	  3735	  3735#	  3742	  3769	  3769#	  3776
	  3803	  3803#	  3810	  3837	  3837#	  3844	  3871	  3871#	  3878	  3905	  3905#	  3912	  3939	  3939#
	  3946	  3973	  3973#	  3980	  4007	  4007#	  4014	  4041	  4041#	  4048	  4075	  4075#	  4082	  4109
	  4109#	  4116	  4143	  4143#	  4150	  4177	  4177#	  4184	  4211	  4211#	  4218	  4245	  4245#	  4252
	  4279	  4279#	  4286	  4313	  4313#	  4320	  4347	  4347#	  4354	  4381	  4381#	  4388	  4415	  4415#
	 12934#	 12962	 12962#	 12966	 12984	 12984#	 12988
XX	   721#	   738	   738#	   739	   739#	   743	   744	   745	   756	   757	   765	   766	   772	   772#
	   773	   777	   778	   779	   790	   791	   799	   800	   806	   806#	   807	   811	   812	   813
	   824	   825	   833	   834	   840	   840#	   841	   845	   846	   847	   858	   859	   867	   868
	   874	   874#	   875	   879	   880	   881	   892	   893	   901	   902	   908	   908#	   909	   913
	   914	   915	   926	   927	   935	   936	   942	   942#	   943	   947	   948	   949	   960	   961
	   969	   970	   976	   976#	   977	   981	   982	   983	   994	   995	  1003	  1004	  1010	  1010#
	  1011	  1015	  1016	  1017	  1028	  1029	  1037	  1038	  1044	  1044#	  1045	  1049	  1050	  1051
	  1062	  1063	  1071	  1072	  1078	  1078#	  1079	  1083	  1084	  1085	  1096	  1097	  1105	  1106
	  1112	  1112#	  1113	  1117	  1118	  1119	  1130	  1131	  1139	  1140	  1146	  1146#	  1147	  1151
	  1152	  1153	  1164	  1165	  1173	  1174	  1180	  1180#	  1181	  1185	  1186	  1187	  1198	  1199
	  1207	  1208	  1214	  1214#	  1215	  1219	  1220	  1221	  1232	  1233	  1241	  1242	  1248	  1248#
	  1249	  1253	  1254	  1255	  1266	  1267	  1275	  1276	  1282	  1282#	  1283	  1287	  1288	  1289
	  1300	  1301	  1309	  1310	  1316	  1316#	  1317	  1321	  1322	  1323	  1334	  1335	  1343	  1344
	  1350	  1350#	  1351	  1355	  1356	  1357	  1368	  1369	  1377	  1378	  1384	  1384#	  1385	  1389
	  1390	  1391	  1402	  1403	  1411	  1412	  1418	  1418#	  1419	  1423	  1424	  1425	  1436	  1437
	  1445	  1446	  1452	  1452#	  1453	  1457	  1458	  1459	  1470	  1471	  1479	  1480	  1486	  1486#
	  1487	  1491	  1492	  1493	  1504	  1505	  1513	  1514	  1520	  1520#	  1521	  1525	  1526	  1527
	  1538	  1539	  1547	  1548	  1554	  1554#	  1555	  1559	  1560	  1561	  1572	  1573	  1581	  1582
	  1588	  1588#	  1589	  1593	  1594	  1595	  1606	  1607	  1615	  1616	  1622	  1622#	  1623	  1627
	  1628	  1629	  1640	  1641	  1649	  1650	  1656	  1656#	  1657	  1661	  1662	  1663	  1674	  1675
	  1683	  1684	  1690	  1690#	  1691	  1695	  1696	  1697	  1708	  1709	  1717	  1718	  1724	  1724#
	  1725	  1729	  1730	  1731	  1742	  1743	  1751	  1752	  1758	  1758#	  1759	  1763	  1764	  1765
	  1776	  1777	  1785	  1786	  1792	  1792#	  1793	  1797	  1798	  1799	  1810	  1811	  1819	  1820
	  1826	  1826#	  1827	  1831	  1832	  1833	  1844	  1845	  1853	  1854	  1860	  1860#	  1861	  1865
	  1866	  1867	  1878	  1879	  1887	  1888	  1894	  1894#	  1895	  1899	  1900	  1901	  1912	  1913
	  1921	  1922	  1928	  1928#	  1929	  1933	  1934	  1935	  1946	  1947	  1955	  1956	  1969#	  1986
	  1986#	  1987	  1987#	  1991	  1992	  1993	  2000	  2001	  2020	  2020#	  2021	  2025	  2026	  2027
	  2034	  2035	  2054	  2054#	  2055	  2059	  2060	  2061	  2068	  2069	  2088	  2088#	  2089	  2093
	  2094	  2095	  2102	  2103	  2122	  2122#	  2123	  2127	  2128	  2129	  2136	  2137	  2156	  2156#
	  2157	  2161	  2162	  2163	  2170	  2171	  2190	  2190#	  2191	  2195	  2196	  2197	  2204	  2205
	  2224	  2224#	  2225	  2229	  2230	  2231	  2238	  2239	  2258	  2258#	  2259	  2263	  2264	  2265
	  2272	  2273	  2292	  2292#	  2293	  2297	  2298	  2299	  2306	  2307	  2326	  2326#	  2327	  2331
	  2332	  2333	  2340	  2341	  2360	  2360#	  2361	  2365	  2366	  2367	  2374	  2375	  2394	  2394#
	  2395	  2399	  2400	  2401	  2408	  2409	  2428	  2428#	  2429	  2433	  2434	  2435	  2442	  2443
	  2462	  2462#	  2463	  2467	  2468	  2469	  2476	  2477	  2496	  2496#	  2497	  2501	  2502	  2503
	  2510	  2511	  2530	  2530#	  2531	  2535	  2536	  2537	  2544	  2545	  2564	  2564#	  2565	  2569
	  2570	  2571	  2578	  2579	  2598	  2598#	  2599	  2603	  2604	  2605	  2612	  2613	  2632	  2632#
	  2633	  2637	  2638	  2639	  2646	  2647	  2666	  2666#	  2667	  2671	  2672	  2673	  2680	  2681
	  2700	  2700#	  2701	  2705	  2706	  2707	  2714	  2715	  2734	  2734#	  2735	  2739	  2740	  2741
	  2748	  2749	  2768	  2768#	  2769	  2773	  2774	  2775	  2782	  2783	  2802	  2802#	  2803	  2807
	  2808	  2809	  2816	  2817	  2836	  2836#	  2837	  2841	  2842	  2843	  2850	  2851	  2870	  2870#
	  2871	  2875	  2876	  2877	  2884	  2885	  2904	  2904#	  2905	  2909	  2910	  2911	  2918	  2919     SEQ 0406
	  2938	  2938#	  2939	  2943	  2944	  2945	  2952	  2953	  2972	  2972#	  2973	  2977	  2978	  2979
	  2986	  2987	  3006	  3006#	  3007	  3011	  3012	  3013	  3020	  3021	  3040	  3040#	  3041	  3045
	  3046	  3047	  3054	  3055	  3074	  3074#	  3075	  3079	  3080	  3081	  3088	  3089	  3108	  3108#
	  3109	  3113	  3114	  3115	  3122	  3123	  3142	  3142#	  3143	  3147	  3148	  3149	  3156	  3157
	  3175#	  3184	  3185	  3209#	  3226	  3226#	  3227	  3227#	  3231	  3232	  3233	  3244	  3245	  3253
	  3254	  3260	  3260#	  3261	  3265	  3266	  3267	  3278	  3279	  3287	  3288	  3294	  3294#	  3295
	  3299	  3300	  3301	  3312	  3313	  3321	  3322	  3328	  3328#	  3329	  3333	  3334	  3335	  3346
	  3347	  3355	  3356	  3362	  3362#	  3363	  3367	  3368	  3369	  3380	  3381	  3389	  3390	  3396
	  3396#	  3397	  3401	  3402	  3403	  3414	  3415	  3423	  3424	  3430	  3430#	  3431	  3435	  3436
	  3437	  3448	  3449	  3457	  3458	  3464	  3464#	  3465	  3469	  3470	  3471	  3482	  3483	  3491
	  3492	  3498	  3498#	  3499	  3503	  3504	  3505	  3516	  3517	  3525	  3526	  3532	  3532#	  3533
	  3537	  3538	  3539	  3550	  3551	  3559	  3560	  3566	  3566#	  3567	  3571	  3572	  3573	  3584
	  3585	  3593	  3594	  3600	  3600#	  3601	  3605	  3606	  3607	  3618	  3619	  3627	  3628	  3634
	  3634#	  3635	  3639	  3640	  3641	  3652	  3653	  3661	  3662	  3668	  3668#	  3669	  3673	  3674
	  3675	  3686	  3687	  3695	  3696	  3702	  3702#	  3703	  3707	  3708	  3709	  3720	  3721	  3729
	  3730	  3736	  3736#	  3737	  3741	  3742	  3743	  3754	  3755	  3763	  3764	  3770	  3770#	  3771
	  3775	  3776	  3777	  3788	  3789	  3797	  3798	  3804	  3804#	  3805	  3809	  3810	  3811	  3822
	  3823	  3831	  3832	  3838	  3838#	  3839	  3843	  3844	  3845	  3856	  3857	  3865	  3866	  3872
	  3872#	  3873	  3877	  3878	  3879	  3890	  3891	  3899	  3900	  3906	  3906#	  3907	  3911	  3912
	  3913	  3924	  3925	  3933	  3934	  3940	  3940#	  3941	  3945	  3946	  3947	  3958	  3959	  3967
	  3968	  3974	  3974#	  3975	  3979	  3980	  3981	  3992	  3993	  4001	  4002	  4008	  4008#	  4009
	  4013	  4014	  4015	  4026	  4027	  4035	  4036	  4042	  4042#	  4043	  4047	  4048	  4049	  4060
	  4061	  4069	  4070	  4076	  4076#	  4077	  4081	  4082	  4083	  4094	  4095	  4103	  4104	  4110
	  4110#	  4111	  4115	  4116	  4117	  4128	  4129	  4137	  4138	  4144	  4144#	  4145	  4149	  4150
	  4151	  4162	  4163	  4171	  4172	  4178	  4178#	  4179	  4183	  4184	  4185	  4196	  4197	  4205
	  4206	  4212	  4212#	  4213	  4217	  4218	  4219	  4230	  4231	  4239	  4240	  4246	  4246#	  4247
	  4251	  4252	  4253	  4264	  4265	  4273	  4274	  4280	  4280#	  4281	  4285	  4286	  4287	  4298
	  4299	  4307	  4308	  4314	  4314#	  4315	  4319	  4320	  4321	  4332	  4333	  4341	  4342	  4348
	  4348#	  4349	  4353	  4354	  4355	  4366	  4367	  4375	  4376	  4382	  4382#	  4383	  4387	  4388
	  4389	  4400	  4401	  4409	  4410	  4416	  4416#	  4417	  4421	  4422	  4423	  4434	  4435	  4443
	  4444	  4454#	  4468	  4468#	  4469	  4469#	  4472	  4473	  4474	  4481	  4482	  4485	  4486	  4494
	  4495	  4500	  4500#	  4501	  4504	  4505	  4506	  4513	  4514	  4517	  4518	  4526	  4527	  4532
	  4532#	  4533	  4536	  4537	  4538	  4545	  4546	  4549	  4550	  4558	  4559	  4564	  4564#	  4565
	  4568	  4569	  4570	  4577	  4578	  4581	  4582	  4590	  4591	  4596	  4596#	  4597	  4600	  4601
	  4602	  4609	  4610	  4613	  4614	  4622	  4623	  4628	  4628#	  4629	  4632	  4633	  4634	  4641
	  4642	  4645	  4646	  4654	  4655	  4660	  4660#	  4661	  4664	  4665	  4666	  4673	  4674	  4677
	  4678	  4686	  4687	  4692	  4692#	  4693	  4696	  4697	  4698	  4705	  4706	  4709	  4710	  4718
	  4719	  4724	  4724#	  4725	  4728	  4729	  4730	  4737	  4738	  4741	  4742	  4750	  4751	  4756
	  4756#	  4757	  4760	  4761	  4762	  4769	  4770	  4773	  4774	  4782	  4783	  4788	  4788#	  4789
	  4792	  4793	  4794	  4801	  4802	  4805	  4806	  4814	  4815	  4820	  4820#	  4821	  4824	  4825
	  4826	  4833	  4834	  4837	  4838	  4846	  4847	  4852	  4852#	  4853	  4856	  4857	  4858	  4865
	  4866	  4869	  4870	  4878	  4879	  4884	  4884#	  4885	  4888	  4889	  4890	  4897	  4898	  4901
	  4902	  4910	  4911	  4916	  4916#	  4917	  4920	  4921	  4922	  4929	  4930	  4933	  4934	  4942
	  4943	  4948	  4948#	  4949	  4952	  4953	  4954	  4961	  4962	  4965	  4966	  4974	  4975	  4980
	  4980#	  4981	  4984	  4985	  4986	  4993	  4994	  4997	  4998	  5006	  5007	  5012	  5012#	  5013
	  5016	  5017	  5018	  5025	  5026	  5029	  5030	  5038	  5039	  5044	  5044#	  5045	  5048	  5049
	  5050	  5057	  5058	  5061	  5062	  5070	  5071	  5076	  5076#	  5077	  5080	  5081	  5082	  5089
	  5090	  5093	  5094	  5102	  5103	  5108	  5108#	  5109	  5112	  5113	  5114	  5121	  5122	  5125
	  5126	  5134	  5135	  5140	  5140#	  5141	  5144	  5145	  5146	  5153	  5154	  5157	  5158	  5166
	  5167	  5172	  5172#	  5173	  5176	  5177	  5178	  5185	  5186	  5189	  5190	  5198	  5199	  5204
	  5204#	  5205	  5208	  5209	  5210	  5217	  5218	  5221	  5222	  5230	  5231	  5236	  5236#	  5237
	  5240	  5241	  5242	  5249	  5250	  5253	  5254	  5262	  5263	  5268	  5268#	  5269	  5272	  5273
	  5274	  5281	  5282	  5285	  5286	  5294	  5295	  5300	  5300#	  5301	  5304	  5305	  5306	  5313     SEQ 0407
	  5314	  5317	  5318	  5326	  5327	  5332	  5332#	  5333	  5336	  5337	  5338	  5345	  5346	  5349
	  5350	  5358	  5359	  5364	  5364#	  5365	  5368	  5369	  5370	  5377	  5378	  5381	  5382	  5390
	  5391	  5396	  5396#	  5397	  5400	  5401	  5402	  5409	  5410	  5413	  5414	  5422	  5423	  5428
	  5428#	  5429	  5432	  5433	  5434	  5441	  5442	  5445	  5446	  5454	  5455	  5460	  5460#	  5461
	  5464	  5465	  5466	  5473	  5474	  5477	  5478	  5486	  5487	  5492	  5492#	  5493	  5496	  5497
	  5498	  5505	  5506	  5509	  5510	  5518	  5519	  5524	  5524#	  5525	  5528	  5529	  5530	  5537
	  5538	  5541	  5542	  5550	  5551	  5556	  5556#	  5557	  5560	  5561	  5562	  5569	  5570	  5573
	  5574	  5582	  5583	  5588	  5588#	  5589	  5592	  5593	  5594	  5601	  5602	  5605	  5606	  5614
	  5615	  5625#	  5641	  5641#	  5642	  5642#	  5645	  5646	  5647	  5648	  5649	  5656	  5657	  5660
	  5661	  5669	  5670	  5675	  5675#	  5676	  5679	  5680	  5681	  5682	  5683	  5690	  5691	  5694
	  5695	  5703	  5704	  5709	  5709#	  5710	  5713	  5714	  5715	  5716	  5717	  5724	  5725	  5728
	  5729	  5737	  5738	  5743	  5743#	  5744	  5747	  5748	  5749	  5750	  5751	  5758	  5759	  5762
	  5763	  5771	  5772	  5777	  5777#	  5778	  5781	  5782	  5783	  5784	  5785	  5792	  5793	  5796
	  5797	  5805	  5806	  5811	  5811#	  5812	  5815	  5816	  5817	  5818	  5819	  5826	  5827	  5830
	  5831	  5839	  5840	  5845	  5845#	  5846	  5849	  5850	  5851	  5852	  5853	  5860	  5861	  5864
	  5865	  5873	  5874	  5879	  5879#	  5880	  5883	  5884	  5885	  5886	  5887	  5894	  5895	  5898
	  5899	  5907	  5908	  5913	  5913#	  5914	  5917	  5918	  5919	  5920	  5921	  5928	  5929	  5932
	  5933	  5941	  5942	  5947	  5947#	  5948	  5951	  5952	  5953	  5954	  5955	  5962	  5963	  5966
	  5967	  5975	  5976	  5981	  5981#	  5982	  5985	  5986	  5987	  5988	  5989	  5996	  5997	  6000
	  6001	  6009	  6010	  6015	  6015#	  6016	  6019	  6020	  6021	  6022	  6023	  6030	  6031	  6034
	  6035	  6043	  6044	  6049	  6049#	  6050	  6053	  6054	  6055	  6056	  6057	  6064	  6065	  6068
	  6069	  6077	  6078	  6083	  6083#	  6084	  6087	  6088	  6089	  6090	  6091	  6098	  6099	  6102
	  6103	  6111	  6112	  6117	  6117#	  6118	  6121	  6122	  6123	  6124	  6125	  6132	  6133	  6136
	  6137	  6145	  6146	  6151	  6151#	  6152	  6155	  6156	  6157	  6158	  6159	  6166	  6167	  6170
	  6171	  6179	  6180	  6185	  6185#	  6186	  6189	  6190	  6191	  6192	  6193	  6200	  6201	  6204
	  6205	  6213	  6214	  6219	  6219#	  6220	  6223	  6224	  6225	  6226	  6227	  6234	  6235	  6238
	  6239	  6247	  6248	  6253	  6253#	  6254	  6257	  6258	  6259	  6260	  6261	  6268	  6269	  6272
	  6273	  6281	  6282	  6287	  6287#	  6288	  6291	  6292	  6293	  6294	  6295	  6302	  6303	  6306
	  6307	  6315	  6316	  6321	  6321#	  6322	  6325	  6326	  6327	  6328	  6329	  6336	  6337	  6340
	  6341	  6349	  6350	  6355	  6355#	  6356	  6359	  6360	  6361	  6362	  6363	  6370	  6371	  6374
	  6375	  6383	  6384	  6389	  6389#	  6390	  6393	  6394	  6395	  6396	  6397	  6404	  6405	  6408
	  6409	  6417	  6418	  6423	  6423#	  6424	  6427	  6428	  6429	  6430	  6431	  6438	  6439	  6442
	  6443	  6451	  6452	  6457	  6457#	  6458	  6461	  6462	  6463	  6464	  6465	  6472	  6473	  6476
	  6477	  6485	  6486	  6491	  6491#	  6492	  6495	  6496	  6497	  6498	  6499	  6506	  6507	  6510
	  6511	  6519	  6520	  6525	  6525#	  6526	  6529	  6530	  6531	  6532	  6533	  6540	  6541	  6544
	  6545	  6553	  6554	  6559	  6559#	  6560	  6563	  6564	  6565	  6566	  6567	  6574	  6575	  6578
	  6579	  6587	  6588	  6593	  6593#	  6594	  6597	  6598	  6599	  6600	  6601	  6608	  6609	  6612
	  6613	  6621	  6622	  6627	  6627#	  6628	  6631	  6632	  6633	  6634	  6635	  6642	  6643	  6646
	  6647	  6655	  6656	  6661	  6661#	  6662	  6665	  6666	  6667	  6668	  6669	  6676	  6677	  6680
	  6681	  6689	  6690	  6695	  6695#	  6696	  6699	  6700	  6701	  6702	  6703	  6710	  6711	  6714
	  6715	  6723	  6724	  6729	  6729#	  6730	  6733	  6734	  6735	  6736	  6737	  6744	  6745	  6748
	  6749	  6757	  6758	  6763	  6763#	  6764	  6767	  6768	  6769	  6770	  6771	  6778	  6779	  6782
	  6783	  6791	  6792	  6797	  6797#	  6798	  6801	  6802	  6803	  6804	  6805	  6812	  6813	  6816
	  6817	  6825	  6826	  6831	  6831#	  6832	  6835	  6836	  6837	  6838	  6839	  6846	  6847	  6850
	  6851	  6859	  6860	  6870#	  6889	  6889#	  6891	  6891#	  6895	  6896	  6897	  6898	  6899	  6910
	  6911	  6919	  6920	  6925	  6925#	  6927	  6931	  6932	  6933	  6934	  6935	  6946	  6947	  6955
	  6956	  6961	  6961#	  6963	  6967	  6968	  6969	  6970	  6971	  6982	  6983	  6991	  6992	  6997
	  6997#	  6999	  7003	  7004	  7005	  7006	  7007	  7018	  7019	  7027	  7028	  7033	  7033#	  7035
	  7039	  7040	  7041	  7042	  7043	  7054	  7055	  7063	  7064	  7069	  7069#	  7071	  7075	  7076
	  7077	  7078	  7079	  7090	  7091	  7099	  7100	  7105	  7105#	  7107	  7111	  7112	  7113	  7114
	  7115	  7126	  7127	  7135	  7136	  7141	  7141#	  7143	  7147	  7148	  7149	  7150	  7151	  7162
	  7163	  7171	  7172	  7177	  7177#	  7179	  7183	  7184	  7185	  7186	  7187	  7198	  7199	  7207
	  7208	  7213	  7213#	  7215	  7219	  7220	  7221	  7222	  7223	  7234	  7235	  7243	  7244	  7249     SEQ 0408
	  7249#	  7251	  7255	  7256	  7257	  7258	  7259	  7270	  7271	  7279	  7280	  7285	  7285#	  7287
	  7291	  7292	  7293	  7294	  7295	  7306	  7307	  7315	  7316	  7321	  7321#	  7323	  7327	  7328
	  7329	  7330	  7331	  7342	  7343	  7351	  7352	  7357	  7357#	  7359	  7363	  7364	  7365	  7366
	  7367	  7378	  7379	  7387	  7388	  7393	  7393#	  7395	  7399	  7400	  7401	  7402	  7403	  7414
	  7415	  7423	  7424	  7429	  7429#	  7431	  7435	  7436	  7437	  7438	  7439	  7450	  7451	  7459
	  7460	  7465	  7465#	  7467	  7471	  7472	  7473	  7474	  7475	  7486	  7487	  7495	  7496	  7501
	  7501#	  7503	  7507	  7508	  7509	  7510	  7511	  7522	  7523	  7531	  7532	  7537	  7537#	  7539
	  7543	  7544	  7545	  7546	  7547	  7558	  7559	  7567	  7568	  7573	  7573#	  7575	  7579	  7580
	  7581	  7582	  7583	  7594	  7595	  7603	  7604	  7609	  7609#	  7611	  7615	  7616	  7617	  7618
	  7619	  7630	  7631	  7639	  7640	  7645	  7645#	  7647	  7651	  7652	  7653	  7654	  7655	  7666
	  7667	  7675	  7676	  7681	  7681#	  7683	  7687	  7688	  7689	  7690	  7691	  7702	  7703	  7711
	  7712	  7717	  7717#	  7719	  7723	  7724	  7725	  7726	  7727	  7738	  7739	  7747	  7748	  7753
	  7753#	  7755	  7759	  7760	  7761	  7762	  7763	  7774	  7775	  7783	  7784	  7789	  7789#	  7791
	  7795	  7796	  7797	  7798	  7799	  7810	  7811	  7819	  7820	  7825	  7825#	  7827	  7831	  7832
	  7833	  7834	  7835	  7846	  7847	  7855	  7856	  7861	  7861#	  7863	  7867	  7868	  7869	  7870
	  7871	  7882	  7883	  7891	  7892	  7897	  7897#	  7899	  7903	  7904	  7905	  7906	  7907	  7918
	  7919	  7927	  7928	  7933	  7933#	  7935	  7939	  7940	  7941	  7942	  7943	  7954	  7955	  7963
	  7964	  7969	  7969#	  7971	  7975	  7976	  7977	  7978	  7979	  7990	  7991	  7999	  8000	  8005
	  8005#	  8007	  8011	  8012	  8013	  8014	  8015	  8026	  8027	  8035	  8036	  8041	  8041#	  8043
	  8047	  8048	  8049	  8050	  8051	  8062	  8063	  8071	  8072	  8077	  8077#	  8079	  8083	  8084
	  8085	  8086	  8087	  8098	  8099	  8107	  8108	  8113	  8113#	  8115	  8119	  8120	  8121	  8122
	  8123	  8134	  8135	  8143	  8144	  8149	  8149#	  8151	  8155	  8156	  8157	  8158	  8159	  8170
	  8171	  8179	  8180	  8190#	  8209	  8209#	  8211	  8211#	  8215	  8216	  8217	  8218	  8219	  8226
	  8227	  8245	  8245#	  8247	  8251	  8252	  8253	  8254	  8255	  8262	  8263	  8281	  8281#	  8283
	  8287	  8288	  8289	  8290	  8291	  8298	  8299	  8317	  8317#	  8319	  8323	  8324	  8325	  8326
	  8327	  8334	  8335	  8353	  8353#	  8355	  8359	  8360	  8361	  8362	  8363	  8370	  8371	  8389
	  8389#	  8391	  8395	  8396	  8397	  8398	  8399	  8406	  8407	  8425	  8425#	  8427	  8431	  8432
	  8433	  8434	  8435	  8442	  8443	  8461	  8461#	  8463	  8467	  8468	  8469	  8470	  8471	  8478
	  8479	  8497	  8497#	  8499	  8503	  8504	  8505	  8506	  8507	  8514	  8515	  8533	  8533#	  8535
	  8539	  8540	  8541	  8542	  8543	  8550	  8551	  8569	  8569#	  8571	  8575	  8576	  8577	  8578
	  8579	  8586	  8587	  8605	  8605#	  8607	  8611	  8612	  8613	  8614	  8615	  8622	  8623	  8641
	  8641#	  8643	  8647	  8648	  8649	  8650	  8651	  8658	  8659	  8677	  8677#	  8679	  8683	  8684
	  8685	  8686	  8687	  8694	  8695	  8713	  8713#	  8715	  8719	  8720	  8721	  8722	  8723	  8730
	  8731	  8749	  8749#	  8751	  8755	  8756	  8757	  8758	  8759	  8766	  8767	  8785	  8785#	  8787
	  8791	  8792	  8793	  8794	  8795	  8802	  8803	  8821	  8821#	  8823	  8827	  8828	  8829	  8830
	  8831	  8838	  8839	  8857	  8857#	  8859	  8863	  8864	  8865	  8866	  8867	  8874	  8875	  8893
	  8893#	  8895	  8899	  8900	  8901	  8902	  8903	  8910	  8911	  8929	  8929#	  8931	  8935	  8936
	  8937	  8938	  8939	  8946	  8947	  8965	  8965#	  8967	  8971	  8972	  8973	  8974	  8975	  8982
	  8983	  9001	  9001#	  9003	  9007	  9008	  9009	  9010	  9011	  9018	  9019	  9037	  9037#	  9039
	  9043	  9044	  9045	  9046	  9047	  9054	  9055	  9073	  9073#	  9075	  9079	  9080	  9081	  9082
	  9083	  9090	  9091	  9109	  9109#	  9111	  9115	  9116	  9117	  9118	  9119	  9126	  9127	  9145
	  9145#	  9147	  9151	  9152	  9153	  9154	  9155	  9162	  9163	  9181	  9181#	  9183	  9187	  9188
	  9189	  9190	  9191	  9198	  9199	  9217	  9217#	  9219	  9223	  9224	  9225	  9226	  9227	  9234
	  9235	  9253	  9253#	  9255	  9259	  9260	  9261	  9262	  9263	  9270	  9271	  9289	  9289#	  9291
	  9295	  9296	  9297	  9298	  9299	  9306	  9307	  9325	  9325#	  9327	  9331	  9332	  9333	  9334
	  9335	  9342	  9343	  9361	  9361#	  9363	  9367	  9368	  9369	  9370	  9371	  9378	  9379	  9397
	  9397#	  9399	  9403	  9404	  9405	  9406	  9407	  9414	  9415	  9433	  9433#	  9435	  9439	  9440
	  9441	  9442	  9443	  9450	  9451	  9470#	  9478	  9479	  9506#	  9527	  9527#	  9534	  9542	  9542#
	  9549	  9567#	  9588	  9588#	  9596	  9603	  9603#	  9611	  9627#	  9646	  9646#	  9653	  9659	  9659#
	  9666	  9732#	  9751	  9751#	  9753	  9753#	  9765	  9765#	  9767	  9788#	  9808	  9808#	  9810	  9823
	  9823#	  9825	  9847#	  9870	  9870#	  9887	  9887#	  9915#	  9933	  9933#	  9946	  9946#	  9967#	  9985
	  9985#	  9987	  9999	  9999#	 10001	 10022#	 10044	 10044#	 10046	 10046#	 10050	 10061	 10061#	 10063
	 10067	 10088#	 10106	 10106#	 10119	 10119#	 10348#	 10370	 10370#	 10381	 10387	 10387#	 10398	 10502#    SEQ 0409
	 10524	 10524#	 10531	 10540	 10540#	 10547	 10556#	 10578	 10578#	 10583	 10594	 10594#	 10599	 10609#
	 10631	 10631#	 10638	 10647	 10647#	 10654	 10709#	 10732	 10732#	 10737	 10749	 10749#	 10754	 10775#
	 10797	 10797#	 10805	 10814	 10814#	 10822	 10841#	 10863	 10863#	 10868	 10880	 10880#	 10885	 10906#
	 10928	 10928#	 10933	 10945	 10945#	 10950	 11517#	 11537	 11537#	 11539	 11539#	 11552	 11552#	 11554
	 11827#	 11846	 11846#	 11848	 11860	 11860#	 11862	 11883#	 11903	 11903#	 11906	 11918	 11918#	 11921
	 12496#	 12499	 12543#	 12563	 12563#	 12569	 12577	 12577#	 12583	 12725#	 12745	 12745#	 12747	 12760
	 12760#	 12762	 12785#	 12814	 12814#	 12820	 12837	 12837#	 12843	 12871#	 12892	 12892#	 12897	 12907
	 12907#	 12912	 12935#	 12963	 12963#	 12969	 12985	 12985#	 12991	 13017#	 13038	 13038#	 13048	 13054
	 13054#	 13064	 13208#	 13229	 13229#	 13231	 13244	 13244#	 13246	 13352#	 13374	 13374#	 13377	 13391
	 13391#	 13394	 13408	 13408#	 13411	 13425	 13425#	 13428	 13442	 13442#	 13445	 13459	 13459#	 13462
	 13476	 13476#	 13479	 13493	 13493#	 13496	 13510	 13510#	 13513	 13527	 13527#	 13530	 13558#	 13578
	 13578#	 13581	 13593	 13593#	 13596	 13608	 13608#	 13611	 13623	 13623#	 13626	 13638	 13638#	 13641
	 13750#	 13773	 13773#	 13775	 13775#	 13777	 13791	 13791#	 13793	 13795	 13809	 13809#	 13811	 13813
	 13827	 13827#	 13829	 13831	 13845	 13845#	 13847	 13849	 13876#	 13899	 13899#	 13902	 13917	 13917#
	 13920	 13935	 13935#	 13938	 13953	 13953#	 13956	 13971	 13971#	 13974	 14003#	 14023	 14023#	 14026
	 14038	 14038#	 14041	 14053	 14053#	 14056	 14068	 14068#	 14071	 14083	 14083#	 14086	 14111#	 14127
	 14127#	 14129	 14138	 14138#	 14140	 14149	 14149#	 14151	 14160	 14160#	 14162	 14171	 14171#	 14173
	 14195#	 14217	 14217#	 14219	 14234	 14234#	 14236	 14251	 14251#	 14253	 14268	 14268#	 14270	 14285
	 14285#	 14287	 15530#	 15548	 15548#	 15550	 15561	 15561#	 15563	 15574	 15574#	 15576	 15587	 15587#
	 15589	 15600	 15600#	 15602	 15613	 15613#	 15615	 15626	 15626#	 15628	 15639	 15639#	 15641	 15652
	 15652#	 15654	 15665	 15665#	 15667	 15692#	 15716	 15716#	 15718	 15718#	 15720	 15735	 15735#	 15737
	 15739	 15754	 15754#	 15756	 15758	 15773	 15773#	 15775	 15777	 15792	 15792#	 15794	 15796	 15825#
	 15846	 15846#	 15848	 15862	 15862#	 15864	 15878	 15878#	 15880	 15894	 15894#	 15896	 15910	 15910#
	 15912	 15939#	 15961	 15961#	 15963	 15978	 15978#	 15980	 15995	 15995#	 15997	 16012	 16012#	 16014
	 16029	 16029#	 16031	 16059#	 16076	 16076#	 16080	 16089	 16089#	 16093	 16102	 16102#	 16106	 16115
	 16115#	 16119	 16128	 16128#	 16132	 16154#	 16176	 16176#	 16178	 16193	 16193#	 16195	 16210	 16210#
	 16212	 16227	 16227#	 16229	 16244	 16244#	 16246	 16274#	 16296	 16296#	 16298	 16313	 16313#	 16315
	 16330	 16330#	 16332	 16347	 16347#	 16349	 16364	 16364#	 16366
YY	  6871#	  6890	  6890#	  6892	  6892#	  6895	  6906	  6907	  6926	  6926#	  6928	  6931	  6942	  6943
	  6962	  6962#	  6964	  6967	  6978	  6979	  6998	  6998#	  7000	  7003	  7014	  7015	  7034	  7034#
	  7036	  7039	  7050	  7051	  7070	  7070#	  7072	  7075	  7086	  7087	  7106	  7106#	  7108	  7111
	  7122	  7123	  7142	  7142#	  7144	  7147	  7158	  7159	  7178	  7178#	  7180	  7183	  7194	  7195
	  7214	  7214#	  7216	  7219	  7230	  7231	  7250	  7250#	  7252	  7255	  7266	  7267	  7286	  7286#
	  7288	  7291	  7302	  7303	  7322	  7322#	  7324	  7327	  7338	  7339	  7358	  7358#	  7360	  7363
	  7374	  7375	  7394	  7394#	  7396	  7399	  7410	  7411	  7430	  7430#	  7432	  7435	  7446	  7447
	  7466	  7466#	  7468	  7471	  7482	  7483	  7502	  7502#	  7504	  7507	  7518	  7519	  7538	  7538#
	  7540	  7543	  7545	  7554	  7555	  7574	  7574#	  7576	  7579	  7581	  7590	  7591	  7610	  7610#
	  7612	  7615	  7617	  7626	  7627	  7646	  7646#	  7648	  7651	  7653	  7662	  7663	  7682	  7682#
	  7684	  7687	  7689	  7698	  7699	  7718	  7718#	  7720	  7723	  7725	  7734	  7735	  7754	  7754#
	  7756	  7759	  7761	  7770	  7771	  7790	  7790#	  7792	  7795	  7797	  7806	  7807	  7826	  7826#
	  7828	  7831	  7833	  7842	  7843	  7862	  7862#	  7864	  7867	  7869	  7878	  7879	  7898	  7898#
	  7900	  7903	  7905	  7914	  7915	  7934	  7934#	  7936	  7939	  7941	  7950	  7951	  7970	  7970#
	  7972	  7975	  7977	  7986	  7987	  8006	  8006#	  8008	  8011	  8013	  8022	  8023	  8042	  8042#
	  8044	  8047	  8049	  8058	  8059	  8078	  8078#	  8080	  8083	  8085	  8094	  8095	  8114	  8114#
	  8116	  8119	  8121	  8130	  8131	  8150	  8150#	  8152	  8155	  8157	  8166	  8167	  8191#	  8210
	  8210#	  8212	  8212#	  8215	  8230	  8231	  8239	  8240	  8246	  8246#	  8248	  8251	  8266	  8267
	  8275	  8276	  8282	  8282#	  8284	  8287	  8302	  8303	  8311	  8312	  8318	  8318#	  8320	  8323
	  8338	  8339	  8347	  8348	  8354	  8354#	  8356	  8359	  8374	  8375	  8383	  8384	  8390	  8390#
	  8392	  8395	  8410	  8411	  8419	  8420	  8426	  8426#	  8428	  8431	  8446	  8447	  8455	  8456
	  8462	  8462#	  8464	  8467	  8482	  8483	  8491	  8492	  8498	  8498#	  8500	  8503	  8518	  8519
	  8527	  8528	  8534	  8534#	  8536	  8539	  8554	  8555	  8563	  8564	  8570	  8570#	  8572	  8575
	  8590	  8591	  8599	  8600	  8606	  8606#	  8608	  8611	  8626	  8627	  8635	  8636	  8642	  8642#
	  8644	  8647	  8662	  8663	  8671	  8672	  8678	  8678#	  8680	  8683	  8698	  8699	  8707	  8708     SEQ 0410
	  8714	  8714#	  8716	  8719	  8734	  8735	  8743	  8744	  8750	  8750#	  8752	  8755	  8770	  8771
	  8779	  8780	  8786	  8786#	  8788	  8791	  8806	  8807	  8815	  8816	  8822	  8822#	  8824	  8827
	  8842	  8843	  8851	  8852	  8858	  8858#	  8860	  8863	  8865	  8878	  8879	  8887	  8888	  8894
	  8894#	  8896	  8899	  8901	  8914	  8915	  8923	  8924	  8930	  8930#	  8932	  8935	  8937	  8950
	  8951	  8959	  8960	  8966	  8966#	  8968	  8971	  8973	  8986	  8987	  8995	  8996	  9002	  9002#
	  9004	  9007	  9009	  9022	  9023	  9031	  9032	  9038	  9038#	  9040	  9043	  9045	  9058	  9059
	  9067	  9068	  9074	  9074#	  9076	  9079	  9081	  9094	  9095	  9103	  9104	  9110	  9110#	  9112
	  9115	  9117	  9130	  9131	  9139	  9140	  9146	  9146#	  9148	  9151	  9153	  9166	  9167	  9175
	  9176	  9182	  9182#	  9184	  9187	  9189	  9202	  9203	  9211	  9212	  9218	  9218#	  9220	  9223
	  9225	  9238	  9239	  9247	  9248	  9254	  9254#	  9256	  9259	  9261	  9274	  9275	  9283	  9284
	  9290	  9290#	  9292	  9295	  9297	  9310	  9311	  9319	  9320	  9326	  9326#	  9328	  9331	  9333
	  9346	  9347	  9355	  9356	  9362	  9362#	  9364	  9367	  9369	  9382	  9383	  9391	  9392	  9398
	  9398#	  9400	  9403	  9405	  9418	  9419	  9427	  9428	  9434	  9434#	  9436	  9439	  9441	  9454
	  9455	  9463	  9464	  9469#	  9482	  9483	  9485	  9486	  9491	  9492	  9507#	  9528	  9528#	  9529
	  9529#	  9536	  9543	  9543#	  9544	  9551	  9848#	  9871	  9871#	  9880	  9888	  9888#	  9897	 12786#
	 12815	 12815#	 12821	 12838	 12838#	 12844	 12872#	 12893	 12893#	 12899	 12908	 12908#	 12914
ZZ	  9508#	  9530	  9530#	  9531	  9545	  9545#	  9546	  9568#	  9589	  9589#	  9592	  9604	  9604#	  9607
	  9628#	  9647	  9647#	  9648	  9651	  9660	  9660#	  9661	  9664	  9681#	  9698	  9698#	  9700	  9710
	  9710#	  9712	  9733#	  9752	  9752#	  9754	  9766	  9766#	  9768	  9789#	  9809	  9809#	  9811	  9824
	  9824#	  9826	  9849#	  9872	  9872#	  9873	  9873#	  9874	  9875	  9889	  9889#	  9890	  9891	  9892
	  9914#	  9932	  9932#	  9935	  9937	  9945	  9945#	  9948	  9950	  9968#	  9986	  9986#	  9988	 10000
	 10000#	 10002	 10023#	 10045	 10045#	 10047	 10047#	 10051	 10062	 10062#	 10064	 10068	 10089#	 10107
	 10107#	 10109	 10111	 10120	 10120#	 10122	 10124	 10208#	 10229	 10229#	 10233	 10239	 10245	 10245#
	 10249	 10255	 10261#	 10276	 10276#	 10278	 10286	 10286#	 10288	 10296#	 10312	 10312#	 10315	 10323
	 10323#	 10326	 10349#	 10371	 10371#	 10375	 10388	 10388#	 10392	 10455#	 10469	 10469#	 10471	 10479
	 10479#	 10481	 10503#	 10525	 10525#	 10528	 10541	 10541#	 10544	 10557#	 10579	 10579#	 10582	 10595
	 10595#	 10598	 10610#	 10632	 10632#	 10635	 10648	 10648#	 10651	 10663#	 10682	 10682#	 10685	 10696
	 10696#	 10699	 10710#	 10733	 10733#	 10736	 10750	 10750#	 10753	 10776#	 10798	 10798#	 10799	 10799#
	 10802	 10815	 10815#	 10816	 10819	 10842#	 10864	 10864#	 10867	 10881	 10881#	 10884	 10907#	 10929
	 10929#	 10931	 10946	 10946#	 10948	 10990#	 11006	 11006#	 11009	 11017	 11017#	 11020	 11036#	 11053
	 11053#	 11054	 11055	 11060	 11066	 11066#	 11067	 11068	 11073	 11090#	 11104	 11104#	 11105	 11114
	 11114#	 11115	 11141#	 11165	 11165#	 11166	 11166#	 11168	 11169	 11184	 11184#	 11185	 11187	 11188
	 11223#	 11236	 11236#	 11237	 11246	 11246#	 11247	 11266#	 11290	 11290#	 11292	 11293	 11297	 11299
	 11309	 11309#	 11311	 11312	 11316	 11318	 11338#	 11359	 11359#	 11361	 11362	 11376	 11376#	 11378
	 11379	 11402#	 11423	 11423#	 11425	 11431	 11440	 11440#	 11442	 11448	 11468#	 11484	 11484#	 11485
	 11488	 11496	 11496#	 11497	 11500	 11518#	 11538	 11538#	 11541	 11542	 11553	 11553#	 11556	 11557
	 11576#	 11593	 11593#	 11594	 11595	 11606	 11606#	 11607	 11608	 11632#	 11649	 11649#	 11651	 11654
	 11662	 11662#	 11664	 11667	 11686#	 11702	 11702#	 11703	 11706	 11714	 11714#	 11715	 11718	 11726#
	 11744	 11744#	 11745	 11745#	 11746	 11747	 11758	 11758#	 11759	 11760	 11761	 11782#	 11796	 11796#
	 11798	 11800	 11806	 11806#	 11808	 11810	 11828#	 11847	 11847#	 11849	 11861	 11861#	 11863	 11884#
	 11904	 11904#	 11905	 11905#	 11907	 11919	 11919#	 11920	 11922	 11935#	 11951	 11951#	 11952	 11957
	 11963	 11963#	 11964	 11969	 11984#	 12000	 12000#	 12001	 12004	 12012	 12012#	 12013	 12016	 12033#
	 12050	 12050#	 12051	 12052	 12063	 12063#	 12064	 12065	 12088#	 12106	 12106#	 12107	 12108	 12120
	 12120#	 12121	 12122	 12143#	 12161	 12161#	 12163	 12168	 12175	 12175#	 12177	 12182	 12198#	 12215
	 12215#	 12216	 12217	 12228	 12228#	 12229	 12230	 12255#	 12272	 12272#	 12273	 12274	 12284	 12284#
	 12285	 12286	 12301#	 12325	 12325#	 12333	 12339	 12348	 12348#	 12356	 12362	 12383#	 12401	 12401#
	 12402	 12403	 12408	 12414	 12414#	 12415	 12416	 12421	 12439#	 12457	 12457#	 12459	 12470	 12470#
	 12472	 12495#	 12501	 12544#	 12564	 12564#	 12565	 12578	 12578#	 12579	 12601#	 12624	 12624#	 12626
	 12628	 12635	 12643	 12643#	 12645	 12647	 12654	 12675#	 12691	 12691#	 12695	 12703	 12703#	 12707
	 12726#	 12746	 12746#	 12749	 12761	 12761#	 12764	 12787#	 12816	 12816#	 12819	 12839	 12839#	 12842
	 12873#	 12894	 12894#	 12895	 12909	 12909#	 12910	 12936#	 12964	 12964#	 12967	 12986	 12986#	 12989
	 13018#	 13039	 13039#	 13041	 13055	 13055#	 13057	 13081#	 13100	 13100#	 13101	 13101#	 13103	 13105
	 13115	 13115#	 13116	 13118	 13120	 13136#	 13158	 13158#	 13168	 13178	 13178#	 13188	 13209#	 13230     SEQ 0411
	 13230#	 13232	 13233	 13245	 13245#	 13247	 13248	 13271#	 13289	 13289#	 13290	 13302	 13302#	 13303
	 13353#	 13375	 13375#	 13376	 13376#	 13378	 13392	 13392#	 13393	 13395	 13409	 13409#	 13410	 13412
	 13426	 13426#	 13427	 13429	 13443	 13443#	 13444	 13446	 13460	 13460#	 13461	 13463	 13477	 13477#
	 13478	 13480	 13494	 13494#	 13495	 13497	 13511	 13511#	 13512	 13514	 13528	 13528#	 13529	 13531
	 13559#	 13579	 13579#	 13580	 13580#	 13582	 13586	 13594	 13594#	 13595	 13597	 13601	 13609	 13609#
	 13610	 13612	 13616	 13624	 13624#	 13625	 13627	 13631	 13639	 13639#	 13640	 13642	 13646	 13666#
	 13681	 13681#	 13682	 13682#	 13684	 13692	 13692#	 13693	 13695	 13703	 13703#	 13704	 13706	 13714
	 13714#	 13715	 13717	 13725	 13725#	 13726	 13728	 13751#	 13774	 13774#	 13776	 13776#	 13778	 13792
	 13792#	 13794	 13796	 13810	 13810#	 13812	 13814	 13828	 13828#	 13830	 13832	 13846	 13846#	 13848
	 13850	 13877#	 13900	 13900#	 13901	 13901#	 13903	 13909	 13918	 13918#	 13919	 13921	 13927	 13936
	 13936#	 13937	 13939	 13945	 13954	 13954#	 13955	 13957	 13963	 13972	 13972#	 13973	 13975	 13981
	 14004#	 14024	 14024#	 14025	 14027	 14028	 14032	 14039	 14039#	 14040	 14042	 14043	 14047	 14054
	 14054#	 14055	 14057	 14058	 14062	 14069	 14069#	 14070	 14072	 14073	 14077	 14084	 14084#	 14085
	 14087	 14088	 14092	 14112#	 14128	 14128#	 14131	 14139	 14139#	 14142	 14150	 14150#	 14153	 14161
	 14161#	 14164	 14172	 14172#	 14175	 14196#	 14218	 14218#	 14220	 14221	 14226	 14235	 14235#	 14237
	 14238	 14243	 14252	 14252#	 14254	 14255	 14260	 14269	 14269#	 14271	 14272	 14277	 14286	 14286#
	 14288	 14289	 14294	 14315#	 14332	 14332#	 14333	 14333#	 14335	 14345	 14345#	 14346	 14348	 14358
	 14358#	 14359	 14361	 14371	 14371#	 14372	 14374	 14384	 14384#	 14385	 14387	 14413#	 14430	 14430#
	 14431	 14431#	 14432	 14433	 14443	 14443#	 14444	 14445	 14446	 14456	 14456#	 14457	 14458	 14459
	 14469	 14469#	 14470	 14471	 14472	 14482	 14482#	 14483	 14484	 14485	 14495	 14495#	 14496	 14497
	 14498	 14508	 14508#	 14509	 14510	 14511	 14521	 14521#	 14522	 14523	 14524	 14534	 14534#	 14535
	 14536	 14537	 14547	 14547#	 14548	 14549	 14550	 14560	 14560#	 14561	 14562	 14563	 14573	 14573#
	 14574	 14575	 14576	 14586	 14586#	 14587	 14588	 14589	 14599	 14599#	 14600	 14601	 14602	 14612
	 14612#	 14613	 14614	 14615	 14625	 14625#	 14626	 14627	 14628	 14638	 14638#	 14639	 14640	 14641
	 14651	 14651#	 14652	 14653	 14654	 14663#	 14680	 14680#	 14681	 14681#	 14682	 14683	 14693	 14693#
	 14694	 14695	 14696	 14706	 14706#	 14707	 14708	 14709	 14719	 14719#	 14720	 14721	 14722	 14732
	 14732#	 14733	 14734	 14735	 14745	 14745#	 14746	 14747	 14748	 14758	 14758#	 14759	 14760	 14761
	 14771	 14771#	 14772	 14773	 14774	 14784	 14784#	 14785	 14786	 14787	 14797	 14797#	 14798	 14799
	 14800	 14810	 14810#	 14811	 14812	 14813	 14823	 14823#	 14824	 14825	 14826	 14836	 14836#	 14837
	 14838	 14839	 14849	 14849#	 14850	 14851	 14852	 14862	 14862#	 14863	 14864	 14865	 14875	 14875#
	 14876	 14877	 14878	 14888	 14888#	 14889	 14890	 14891	 14917#	 14937	 14937#	 14938	 14938#	 14939
	 14940	 14953	 14953#	 14954	 14955	 14956	 14969	 14969#	 14970	 14971	 14972	 14985	 14985#	 14986
	 14987	 14988	 15001	 15001#	 15002	 15003	 15004	 15017	 15017#	 15018	 15019	 15020	 15033	 15033#
	 15034	 15035	 15036	 15049	 15049#	 15050	 15051	 15052	 15065	 15065#	 15066	 15067	 15068	 15081
	 15081#	 15082	 15083	 15084	 15097	 15097#	 15098	 15099	 15100	 15113	 15113#	 15114	 15115	 15116
	 15129	 15129#	 15130	 15131	 15132	 15145	 15145#	 15146	 15147	 15148	 15161	 15161#	 15162	 15163
	 15164	 15177	 15177#	 15178	 15179	 15180	 15193	 15193#	 15194	 15195	 15196	 15209	 15209#	 15210
	 15211	 15212	 15224#	 15244	 15244#	 15245	 15245#	 15246	 15247	 15260	 15260#	 15261	 15262	 15263
	 15276	 15276#	 15277	 15278	 15279	 15292	 15292#	 15293	 15294	 15295	 15308	 15308#	 15309	 15310
	 15311	 15324	 15324#	 15325	 15326	 15327	 15340	 15340#	 15341	 15342	 15343	 15356	 15356#	 15357
	 15358	 15359	 15372	 15372#	 15373	 15374	 15375	 15388	 15388#	 15389	 15390	 15391	 15404	 15404#
	 15405	 15406	 15407	 15420	 15420#	 15421	 15422	 15423	 15436	 15436#	 15437	 15438	 15439	 15452
	 15452#	 15453	 15454	 15455	 15468	 15468#	 15469	 15470	 15471	 15484	 15484#	 15485	 15486	 15487
	 15500	 15500#	 15501	 15502	 15503	 15531#	 15549	 15549#	 15551	 15562	 15562#	 15564	 15575	 15575#
	 15577	 15588	 15588#	 15590	 15601	 15601#	 15603	 15614	 15614#	 15616	 15627	 15627#	 15629	 15640
	 15640#	 15642	 15653	 15653#	 15655	 15666	 15666#	 15668	 15693#	 15717	 15717#	 15719	 15719#	 15721
	 15727	 15736	 15736#	 15738	 15740	 15746	 15755	 15755#	 15757	 15759	 15765	 15774	 15774#	 15776
	 15778	 15784	 15793	 15793#	 15795	 15797	 15803	 15826#	 15847	 15847#	 15849	 15863	 15863#	 15865
	 15879	 15879#	 15881	 15895	 15895#	 15897	 15911	 15911#	 15913	 15940#	 15962	 15962#	 15964	 15979
	 15979#	 15981	 15996	 15996#	 15998	 16013	 16013#	 16015	 16030	 16030#	 16032	 16060#	 16077	 16077#
	 16079	 16090	 16090#	 16092	 16103	 16103#	 16105	 16116	 16116#	 16118	 16129	 16129#	 16131	 16155#
	 16177	 16177#	 16179	 16185	 16194	 16194#	 16196	 16202	 16211	 16211#	 16213	 16219	 16228	 16228#
	 16230	 16236	 16245	 16245#	 16247	 16253	 16275#	 16297	 16297#	 16299	 16300	 16307	 16314	 16314#    SEQ 0412
	 16316	 16317	 16324	 16331	 16331#	 16333	 16334	 16341	 16348	 16348#	 16350	 16351	 16358	 16365
	 16365#	 16367	 16368	 16375
$$MUUO	   647#
$$OUTE	   653#
$$TAX1	   665#
$$TAX2	   666#
$$TOGG	   659#
$$UUO	   636#
$ACC0	   474#
$ACF	 16493#
$BEND1	   444#
$BEND2	   445#	 16535
$CHRIN	   535#
$CRLF	   537#
$DEVCH	   361#
$DSKUP	   414#
$DVCH1	   361#
$DVOFF	   531#
$EMODE	   412#
$ENDFX	   681#	   682
$FFF	   539#
$IBUF	   587#
$INEXT	   589#
$INNM	   588#
$ITRHL	   455#
$ITRX1	   456#
$LPAPE	 16556
$MMAP	   415#
$MODVL	   410#
$MODVU	   411#
$OBUF	   578#
$ONETM	   438#
$OUTEX	   580#
$OUTNM	   579#
$PAPER	   361
$PARER	   462#
$PNAME	   408#
$PSHER	   466#
$PVER	   409#
$RSRTX	   458#
$RSRTY	   459#
$SPAG1	   478#
$START	   375#
$SVAPR	   476#
$SVPAG	   477#
$SVPI	   475#
$SVUPC	   481#	 16396	 16400	 16430
$SVUUO	   480#	 16409	 16441	 16469
$TABF	   538#
$TTCHR	   534#
$TWCNT	   530#
$TYPNB	   536#
$UMODE	   413#                                                                                                            SEQ 0413
$UORTX	   453#
$USRHL	   457#
$UUOER	   454#	   495
$VTF	   540#
%AC1F	 16494#
%ACS1A	 16411#	 16411	 16455
%ACTFL	   487#
%ACTUL	   488#
%ALF	 16499#
%AR1F	 16498#
%ARF	 16497#
%COREC	   486#
%CORFL	   485#
%DISCR	   489#
%E1F	 16496#
%EEF	 16500#
%EF	 16495#
%ER4X	 16475	 16480#
%ER5X	 16473	 16482#
%ER6X	 16471	 16484#
%ER7X	 16477#	 16481	 16483	 16485
%ERAC0	 16385#	 16385	 16412	 16446	 16537
%ERAC1	 16393#	 16393	 16413	 16525
%ERAC2	 16394#	 16394	 16524
%ERFST	 16419#	 16419	 16421
%ERHI1	   628#
%ERHI2	   629#
%ERHI3	   630#
%ERMOR	 16451	 16478	 16507#
%ERMS1	 16416#	 16550
%ERMS2	 16439#
%ERMS3	 16457	 16464#
%ERRS1	 16408	 16511#	 16549
%ERRS2	 16524#
%ERRS4	 16415	 16547#
%ERRS5	 16528	 16532	 16537#
%FF	 16501#
%FLTTB	 16459	 16490#
%NODES	 16491#
.JB41	   361#
.JBAPR	   361#
.JBCNI	   361#
.JBDDT	   361#
.JBFF	   361#
.JBOPC	   361#
.JBREL	   361#
.JBREN	   361#
.JBSA	   361#
.JBSYM	   361#
.JBTPC	   361#
.JBUSY	   361#
CFLUSH	   317#
CINVAL	   316#                                                                                                            SEQ 0415
CLOKOP	   311#
CWRTBI	   318#
DROPDV	   278#	   686
ENDUUO	   324#	   443
EOPUUO	   325#	   445
ER1	    34#
ER10	    41#
ER11	    42#
ER12	    43#
ER13	    44#	 10418	 10439	 10535	 10551	 10589	 10605	 10642	 10658	 10691	 10705	 10744	 10761	 10809
	 10826	 10875	 10892	 10940	 10957	 10971	 11174	 11193	 11302	 11304	 11321	 11323	 11371	 11388
	 11435	 11452	 12343	 12366	 12524	 12526	 12632	 12634	 12651	 12653	 12830	 12832	 12853	 12855
	 12973	 12975	 12995	 12997	 13047	 13063	 13110	 13125	 13172	 13192	 13329	 13331
ER2	    35#
ER3	    36#	   761	   795	   829	   863	   897	   931	   965	   999	  1033	  1067	  1101	  1135	  1169
	  1203	  1237	  1271	  1305	  1339	  1373	  1407	  1441	  1475	  1509	  1543	  1577	  1611	  1645
	  1679	  1713	  1747	  1781	  1815	  1849	  1883	  1917	  1951	  2009	  2043	  2077	  2111	  2145
	  2179	  2213	  2247	  2281	  2315	  2349	  2383	  2417	  2451	  2485	  2519	  2553	  2587	  2621
	  2655	  2689	  2723	  2757	  2791	  2825	  2859	  2893	  2927	  2961	  2995	  3029	  3063	  3097
	  3131	  3165	  3193	  3249	  3283	  3317	  3351	  3385	  3419	  3453	  3487	  3521	  3555	  3589
	  3623	  3657	  3691	  3725	  3759	  3793	  3827	  3861	  3895	  3929	  3963	  3997	  4031	  4065
	  4099	  4133	  4167	  4201	  4235	  4269	  4303	  4337	  4371	  4405	  4439	  4490	  4522	  4554
	  4586	  4618	  4650	  4682	  4714	  4746	  4778	  4810	  4842	  4874	  4906	  4938	  4970	  5002
	  5034	  5066	  5098	  5130	  5162	  5194	  5226	  5258	  5290	  5322	  5354	  5386	  5418	  5450
	  5482	  5514	  5546	  5578	  5610	  5665	  5699	  5733	  5767	  5801	  5835	  5869	  5903	  5937
	  5971	  6005	  6039	  6073	  6107	  6141	  6175	  6209	  6243	  6277	  6311	  6345	  6379	  6413
	  6447	  6481	  6515	  6549	  6583	  6617	  6651	  6685	  6719	  6753	  6787	  6821	  6855	  6915
	  6951	  6987	  7023	  7059	  7095	  7131	  7167	  7203	  7239	  7275	  7311	  7347	  7383	  7419
	  7455	  7491	  7527	  7563	  7599	  7635	  7671	  7707	  7743	  7779	  7815	  7851	  7887	  7923
	  7959	  7995	  8031	  8067	  8103	  8139	  8175	  8235	  8271	  8307	  8343	  8379	  8415	  8451
	  8487	  8523	  8559	  8595	  8631	  8667	  8703	  8739	  8775	  8811	  8847	  8883	  8919	  8955
	  8991	  9027	  9063	  9099	  9135	  9171	  9207	  9243	  9279	  9315	  9351	  9387	  9423	  9459
	  9487	  9535	  9550	  9598	  9613	  9654	  9667	  9705	  9717	  9760	  9774	  9818	  9833	  9882
	  9899	  9938	  9951	  9994	 10008	 10054	 10071	 10112	 10125	 10170	 10189	 10236	 10252	 10281
	 10291	 10378	 10395	 10414	 10433	 10474	 10484	 10532	 10548	 10587	 10603	 10639	 10655	 10689
	 10703	 10741	 10758	 10806	 10823	 10872	 10889	 10937	 10954	 10967	 11012	 11023	 11059	 11072
	 11109	 11119	 11176	 11195	 11208	 11298	 11317	 11366	 11383	 11430	 11447	 11489	 11501	 11545
	 11560	 11599	 11612	 11655	 11668	 11707	 11719	 11751	 11765	 11801	 11811	 11855	 11869	 11913
	 11928	 11956	 11968	 12005	 12017	 12056	 12069	 12112	 12126	 12170	 12184	 12221	 12234	 12277
	 12289	 12338	 12361	 12407	 12420	 12463	 12476	 12505	 12518	 12570	 12584	 12636	 12655	 12755
	 12770	 12825	 12848	 12900	 12915	 12977	 12999	 13049	 13065	 13239	 13254	 13295	 13308	 13323
	 13384	 13401	 13418	 13435	 13452	 13469	 13486	 13503	 13520	 13537	 13585	 13600	 13615	 13630
	 13645	 13782	 13800	 13818	 13836	 13854	 13910	 13928	 13946	 13964	 13982	 14031	 14046	 14061
	 14076	 14091	 14133	 14144	 14155	 14166	 14177	 14227	 14244	 14261	 14278	 14295	 14338	 14351
	 14364	 14377	 14390	 14436	 14449	 14462	 14475	 14488	 14501	 14514	 14527	 14540	 14553	 14566
	 14579	 14592	 14605	 14618	 14631	 14644	 14657	 14686	 14699	 14712	 14725	 14738	 14751	 14764
	 14777	 14790	 14803	 14816	 14829	 14842	 14855	 14868	 14881	 14894	 14944	 14960	 14976	 14992
	 15008	 15024	 15040	 15056	 15072	 15088	 15104	 15120	 15136	 15152	 15168	 15184	 15200	 15216
	 15251	 15267	 15283	 15299	 15315	 15331	 15347	 15363	 15379	 15395	 15411	 15427	 15443	 15459
	 15475	 15491	 15507	 15554	 15567	 15580	 15593	 15606	 15619	 15632	 15645	 15658	 15671	 15728
	 15747	 15766	 15785	 15804	 15853	 15869	 15885	 15901	 15917	 15969	 15986	 16003	 16020	 16037
	 16082	 16095	 16108	 16121	 16134	 16186	 16203	 16220	 16237	 16254	 16304	 16321	 16338	 16355
	 16372                                                                                                             SEQ 0416
ER4	    37#	   764	   798	   832	   866	   900	   934	   968	  1002	  1036	  1070	  1104	  1138	  1172
	  1206	  1240	  1274	  1308	  1342	  1376	  1410	  1444	  1478	  1512	  1546	  1580	  1614	  1648
	  1682	  1716	  1750	  1784	  1818	  1852	  1886	  1920	  1954	  2012	  2046	  2080	  2114	  2148
	  2182	  2216	  2250	  2284	  2318	  2352	  2386	  2420	  2454	  2488	  2522	  2556	  2590	  2624
	  2658	  2692	  2726	  2760	  2794	  2828	  2862	  2896	  2930	  2964	  2998	  3032	  3066	  3100
	  3134	  3168	  3196	  3252	  3286	  3320	  3354	  3388	  3422	  3456	  3490	  3524	  3558	  3592
	  3626	  3660	  3694	  3728	  3762	  3796	  3830	  3864	  3898	  3932	  3966	  4000	  4034	  4068
	  4102	  4136	  4170	  4204	  4238	  4272	  4306	  4340	  4374	  4408	  4442	  4493	  4525	  4557
	  4589	  4621	  4653	  4685	  4717	  4749	  4781	  4813	  4845	  4877	  4909	  4941	  4973	  5005
	  5037	  5069	  5101	  5133	  5165	  5197	  5229	  5261	  5293	  5325	  5357	  5389	  5421	  5453
	  5485	  5517	  5549	  5581	  5613	  5668	  5702	  5736	  5770	  5804	  5838	  5872	  5906	  5940
	  5974	  6008	  6042	  6076	  6110	  6144	  6178	  6212	  6246	  6280	  6314	  6348	  6382	  6416
	  6450	  6484	  6518	  6552	  6586	  6620	  6654	  6688	  6722	  6756	  6790	  6824	  6858	  6918
	  6954	  6990	  7026	  7062	  7098	  7134	  7170	  7206	  7242	  7278	  7314	  7350	  7386	  7422
	  7458	  7494	  7530	  7566	  7602	  7638	  7674	  7710	  7746	  7782	  7818	  7854	  7890	  7926
	  7962	  7998	  8034	  8070	  8106	  8142	  8178	  8238	  8274	  8310	  8346	  8382	  8418	  8454
	  8490	  8526	  8562	  8598	  8634	  8670	  8706	  8742	  8778	  8814	  8850	  8886	  8922	  8958
	  8994	  9030	  9066	  9102	  9138	  9174	  9210	  9246	  9282	  9318	  9354	  9390	  9426	  9462
	  9490	  9537	  9552	  9595	  9610	  9652	  9665	  9703	  9715	  9758	  9772	  9815	  9830	  9879
	  9896	  9940	  9953	  9992	 10006	 10056	 10073	 10114	 10127	 10168	 10187	 10238	 10254	 10318
	 10329	 10380	 10397	 10416	 10435	 11178	 11197	 11241	 11251	 11300	 11319	 11368	 11385	 11432
	 11449	 11491	 11503	 11547	 11562	 11601	 11614	 11657	 11670	 11709	 11721	 11753	 11767	 11853
	 11867	 11911	 11926	 11958	 11970	 12007	 12019	 12058	 12071	 12115	 12129	 12167	 12181	 12223
	 12236	 12279	 12291	 12340	 12363	 12465	 12478	 12507	 12520	 12572	 12586	 12638	 12657	 12698
	 12710	 12753	 12768	 12827	 12850	 12902	 12917	 12979	 13001	 13297	 13310	 13325	 13382	 13399
	 13416	 13433	 13450	 13467	 13484	 13501	 13518	 13535	 13588	 13603	 13618	 13633	 13648	 13786
	 13804	 13822	 13840	 13858	 13912	 13930	 13948	 13966	 13984	 14229	 14246	 14263	 14280	 14297
	 14438	 14451	 14464	 14477	 14490	 14503	 14516	 14529	 14542	 14555	 14568	 14581	 14594	 14607
	 14620	 14633	 14646	 14659	 14688	 14701	 14714	 14727	 14740	 14753	 14766	 14779	 14792	 14805
	 14818	 14831	 14844	 14857	 14870	 14883	 14896	 14946	 14962	 14978	 14994	 15010	 15026	 15042
	 15058	 15074	 15090	 15106	 15122	 15138	 15154	 15170	 15186	 15202	 15218	 15253	 15269	 15285
	 15301	 15317	 15333	 15349	 15365	 15381	 15397	 15413	 15429	 15445	 15461	 15477	 15493	 15509
	 15556	 15569	 15582	 15595	 15608	 15621	 15634	 15647	 15660	 15673	 15730	 15749	 15768	 15787
	 15806	 15857	 15873	 15889	 15905	 15921	 15971	 15988	 16005	 16022	 16039	 16084	 16097	 16110
	 16123	 16136	 16188	 16205	 16222	 16239	 16256	 16308	 16325	 16342	 16359	 16376
ER5	    38#	   767	   801	   835	   869	   903	   937	   971	  1005	  1039	  1073	  1107	  1141	  1175
	  1209	  1243	  1277	  1311	  1345	  1379	  1413	  1447	  1481	  1515	  1549	  1583	  1617	  1651
	  1685	  1719	  1753	  1787	  1821	  1855	  1889	  1923	  1957	  2015	  2049	  2083	  2117	  2151
	  2185	  2219	  2253	  2287	  2321	  2355	  2389	  2423	  2457	  2491	  2525	  2559	  2593	  2627
	  2661	  2695	  2729	  2763	  2797	  2831	  2865	  2899	  2933	  2967	  3001	  3035	  3069	  3103
	  3137	  3171	  3199	  3255	  3289	  3323	  3357	  3391	  3425	  3459	  3493	  3527	  3561	  3595
	  3629	  3663	  3697	  3731	  3765	  3799	  3833	  3867	  3901	  3935	  3969	  4003	  4037	  4071
	  4105	  4139	  4173	  4207	  4241	  4275	  4309	  4343	  4377	  4411	  4445	  4496	  4528	  4560
	  4592	  4624	  4656	  4688	  4720	  4752	  4784	  4816	  4848	  4880	  4912	  4944	  4976	  5008
	  5040	  5072	  5104	  5136	  5168	  5200	  5232	  5264	  5296	  5328	  5360	  5392	  5424	  5456
	  5488	  5520	  5552	  5584	  5616	  5671	  5705	  5739	  5773	  5807	  5841	  5875	  5909	  5943
	  5977	  6011	  6045	  6079	  6113	  6147	  6181	  6215	  6249	  6283	  6317	  6351	  6385	  6419
	  6453	  6487	  6521	  6555	  6589	  6623	  6657	  6691	  6725	  6759	  6793	  6827	  6861	  6921
	  6957	  6993	  7029	  7065	  7101	  7137	  7173	  7209	  7245	  7281	  7317	  7353	  7389	  7425
	  7461	  7497	  7533	  7569	  7605	  7641	  7677	  7713	  7749	  7785	  7821	  7857	  7893	  7929
	  7965	  8001	  8037	  8073	  8109	  8145	  8181	  8241	  8277	  8313	  8349	  8385	  8421	  8457
	  8493	  8529	  8565	  8601	  8637	  8673	  8709	  8745	  8781	  8817	  8853	  8889	  8925	  8961
	  8997	  9033	  9069	  9105	  9141	  9177	  9213	  9249	  9285	  9321	  9357	  9393	  9429	  9465     SEQ 0417
	  9493	 10240	 10256	 10382	 10399	 10437	 10969	 11061	 11074	 12409	 12422	 12522	 13237	 13252
	 13327	 13386	 13403	 13420	 13437	 13454	 13471	 13488	 13505	 13522	 13539	 13687	 13698	 13709
	 13720	 13731	 13784	 13802	 13820	 13838	 13856	 13908	 13926	 13944	 13962	 13980	 14033	 14048
	 14063	 14078	 14093	 14225	 14242	 14259	 14276	 14293	 14340	 14353	 14366	 14379	 14392	 14948
	 14964	 14980	 14996	 15012	 15028	 15044	 15060	 15076	 15092	 15108	 15124	 15140	 15156	 15172
	 15188	 15204	 15220	 15255	 15271	 15287	 15303	 15319	 15335	 15351	 15367	 15383	 15399	 15415
	 15431	 15447	 15463	 15479	 15495	 15511	 15726	 15745	 15764	 15783	 15802	 15855	 15871	 15887
	 15903	 15919	 15973	 15990	 16007	 16024	 16041	 16184	 16201	 16218	 16235	 16252	 16306	 16323
	 16340	 16357	 16374
ER6	    39#
ER7	    40#
ERRHLT	   213#	 16518
FATAL	   212#
FRD36	   353#
FRD8	   354#
FREAD	   352#
FSELEC	   351#
GET	   196#
GO	   193#
HALT	   198#	   464
JEN	   200#
JRSTF	   199#	 10408	 10427	 10452	 10526	 10542	 10580	 10596	 10633	 10649	 10683	 10697	 10734	 10751
	 10800	 10817	 10865	 10882	 10930	 10947	 10961	 10987	 11167	 11180	 11186	 11199	 11291	 11310
	 11360	 11377	 11424	 11441	 11465	 12332	 12355	 12380	 12511	 12540	 12625	 12644	 12672	 12817
	 12840	 12868	 12965	 12987	 13040	 13056	 13102	 13117	 13164	 13184	 13205	 13316
MAPADR	   334#
MAPCNK	   335#
MAPMEM	   331#
MAPPNT	   337#
MAPSET	   336#
MEMSEG	   333#
MEMZRO	   332#
MODPCP	   344#
MODPCU	   343#
MOP1	    99#	   746	   780	   814	   848	   882	   916	   950	   984	  1018	  1052	  1086	  1120	  1154
	  1188	  1222	  1256	  1290	  1324	  1358	  1392	  1426	  1460	  1494	  1528	  1562	  1596	  1630
	  1664	  1698	  1732	  1766	  1800	  1834	  1868	  1902	  1936	  1994	  2028	  2062	  2096	  2130
	  2164	  2198	  2232	  2266	  2300	  2334	  2368	  2402	  2436	  2470	  2504	  2538	  2572	  2606
	  2640	  2674	  2708	  2742	  2776	  2810	  2844	  2878	  2912	  2946	  2980	  3014	  3048	  3082
	  3116	  3150	  3178	  3234	  3268	  3302	  3336	  3370	  3404	  3438	  3472	  3506	  3540	  3574
	  3608	  3642	  3676	  3710	  3744	  3778	  3812	  3846	  3880	  3914	  3948	  3982	  4016	  4050
	  4084	  4118	  4152	  4186	  4220	  4254	  4288	  4322	  4356	  4390	  4424	  4475	  4507	  4539
	  4571	  4603	  4635	  4667	  4699	  4731	  4763	  4795	  4827	  4859	  4891	  4923	  4955	  4987
	  5019	  5051	  5083	  5115	  5147	  5179	  5211	  5243	  5275	  5307	  5339	  5371	  5403	  5435
	  5467	  5499	  5531	  5563	  5595	  5650	  5684	  5718	  5752	  5786	  5820	  5854	  5888	  5922
	  5956	  5990	  6024	  6058	  6092	  6126	  6160	  6194	  6228	  6262	  6296	  6330	  6364	  6398
	  6432	  6466	  6500	  6534	  6568	  6602	  6636	  6670	  6704	  6738	  6772	  6806	  6840	  6900
	  6936	  6972	  7008	  7044	  7080	  7116	  7152	  7188	  7224	  7260	  7296	  7332	  7368	  7404
	  7440	  7476	  7512	  7548	  7584	  7620	  7656	  7692	  7728	  7764	  7800	  7836	  7872	  7908
	  7944	  7980	  8016	  8052	  8088	  8124	  8160	  8220	  8256	  8292	  8328	  8364	  8400	  8436
	  8472	  8508	  8544	  8580	  8616	  8652	  8688	  8724	  8760	  8796	  8832	  8868	  8904	  8940
	  8976	  9012	  9048	  9084	  9120	  9156	  9192	  9228	  9264	  9300	  9336	  9372	  9408	  9444
	  9472                                                                                                             SEQ 0418
MTROP	   312#
NAME	     9#	    12
PBELL	   287#	 16522
PCRL	   281#	 16458	 16477
PCRL2	   285#
PCRL2F	   286#
PCRLF	   282#
PFORCE	   289#
PGMINT	   206#	   703
PJRST	   197#
PMSG	   291#	 16424	 16428	 16439	 16464
PMSGF	   294#
PNT1	   247#
PNT11	   261#
PNT11F	   262#
PNT1F	   248#
PNT2	   249#
PNT2F	   250#
PNT3	   251#	 16476
PNT3F	   252#
PNT4	   253#	 16480
PNT4F	   254#
PNT5	   255#	 16482
PNT5F	   256#
PNT6	   257#	 16432	 16484
PNT6F	   258#
PNT7	   259#
PNT7F	   260#
PNTA	   233#	 16467
PNTADF	   264#
PNTADR	   263#
PNTAF	   234#
PNTAL	   235#	 16460
PNTALF	   236#
PNTCHF	   246#
PNTCHR	   245#
PNTCI	   243#
PNTCIF	   244#
PNTCW	   279#
PNTCWF	   280#
PNTDCF	   272#
PNTDEC	   271#	 16427
PNTDS	   273#
PNTDSF	   274#
PNTHW	   267#	 16447
PNTHWF	   268#
PNTMGN	   358#	 16508
PNTMSF	   240#
PNTMSG	   239#
PNTNM	   275#	 16420
PNTOCF	   270#
PNTOCS	   269#
PNTOCT	   265#                                                                                                            SEQ 0419
PNTOTF	   266#
PNTSIX	   276#
PNTSXF	   277#
PSIXL	   237#
PSIXLF	   238#
PSIXM	   241#	 16425	 16429	 16440	 16465
PSIXMF	   242#
PSP	   283#
PSPF	   284#
PUT	   195#
RTN	   194#	   451
S	   124#	   126	   130	   159	   161	   170	   173	   188	   189	   191	   202	   204	   208	   210
	   215	   219	   361	   366	   372	   399	   401	   419	   421	   439	   441	   470	   472	   490
	   492	   510	   512	   520	   522	   543	   548	   574	   576	   583	   585	   591	   593	   599
	   601	   605	   607	   612	   614	   618	   620	   624	   626	   632	   634	   637	   639	   643
	   645	   649	   651	   655	   657	   661	   663	   668	   673	   677	   679
SAVEAC	    94#	   715	  1961	  3203	  4449	  5620	  6865	  8185	  9499	  9560	  9620	  9674	  9725	  9781
	  9840	  9907	  9960	 10015	 10081	 10157	 10176	 10201	 10341	 10447	 10495	 10768	 10834	 10899
	 10982	 11029	 11084	 11134	 11216	 11259	 11331	 11395	 11460	 11510	 11569	 11625	 11679	 11775
	 11820	 11876	 11977	 12026	 12081	 12136	 12191	 12248	 12327	 12350	 12375	 12432	 12489	 12535
	 12594	 12667	 12718	 12778	 12863	 12927	 13010	 13074	 13159	 13179	 13200	 13264	 13345	 13551
	 13659	 13743	 13869	 13996	 14104	 14188	 14308	 14406	 14910	 15523	 15685	 15818	 15932	 16052
	 16147	 16267
SIXBTZ	   300#
SWITCH	   306#	 16406	 16509
TTALTM	   228#	 16511
TTICHR	   221#
TTICNV	   226#
TTIDEC	   225#
TTINO	   223#
TTIOCT	   224#
TTIYES	   222#
TTLOOK	   227#
TTSIXB	   229#
