	  2217	  2219	  2220	  2222	  2223	  2227	  2241	  2243	  2246	  2248	  2249	  2251	  2252	  2256
	  2270	  2272	  2275	  2277	  2278	  2280	  2281	  2285	  2299	  2301	  2304	  2306	  2307	  2309     SEQ 0352
	  2310	  2314	  2328	  2330	  2333	  2335	  2336	  2338	  2339	  2343	  2357	  2359	  2362	  2364
	  2365	  2367	  2368	  2372	  2386	  2388	  2391	  2393	  2394	  2396	  2397	  2401	  2415	  2417
	  2420	  2422	  2423	  2425	  2426	  2430	  2444	  2446	  2449	  2451	  2452	  2454	  2455	  2459
	  2473	  2475	  2478	  2480	  2481	  2483	  2484	  2488	  2502	  2504	  2507	  2509	  2510	  2512
	  2513	  2517	  2531	  2533	  2536	  2538	  2539	  2541	  2542	  2546	  2560	  2562	  2565	  2567
	  2568	  2570	  2571	  2575	  2589	  2591	  2594	  2596	  2597	  2599	  2600	  2604	  2618	  2620
	  2623	  2625	  2626	  2628	  2629	  2633	  2647	  2649	  2652	  2654	  2655	  2657	  2658	  2662
	  2676	  2678	  2681	  2683	  2684	  2686	  2687	  2691	  2705	  2707	  2710	  2712	  2713	  2715
	  2716	  2720	  2734	  2736	  2739	  2741	  2742	  2744	  2745	  2749	  2763	  2765	  2768	  2770
	  2771	  2773	  2774	  2778	  2792	  2794	  2797	  2799	  2800	  2802	  2803	  2807	  2821	  2823
	  2826	  2828	  2829	  2831	  2832	  2836	  2850	  2852	  2855	  2857	  2858	  2860	  2861	  2865
	  2867#	  2868	  2870	  2871	  2872	  2873	  2883	  2885	  2888	  2890	  2891	  2893	  2894	  2898
	  2901#	  2902	  2904	  2905	  2906	  2907	  2952	  2954	  2957	  2959	  2960	  2962	  2963	  2967
	  2991	  2993	  2996	  2998	  2999	  3001	  3002	  3006	  3030	  3032	  3035	  3037	  3038	  3040
	  3041	  3045	  3069	  3071	  3074	  3076	  3077	  3079	  3080	  3084	  3108	  3110	  3113	  3115
	  3116	  3118	  3119	  3123	  3147	  3149	  3152	  3154	  3155	  3157	  3158	  3162	  3186	  3188
	  3191	  3193	  3194	  3196	  3197	  3201	  3225	  3227	  3230	  3232	  3233	  3235	  3236	  3240
	  3264	  3266	  3269	  3271	  3272	  3274	  3275	  3279	  3303	  3305	  3308	  3310	  3311	  3313
	  3314	  3318	  3342	  3344	  3347	  3349	  3350	  3352	  3353	  3357	  3381	  3383	  3386	  3388
	  3389	  3391	  3392	  3396	  3420	  3422	  3425	  3427	  3428	  3430	  3431	  3435	  3459	  3461
	  3464	  3466	  3467	  3469	  3470	  3474	  3498	  3500	  3503	  3505	  3506	  3508	  3509	  3513
	  3537	  3539	  3542	  3544	  3545	  3547	  3548	  3552	  3553#	  3554	  3556	  3557	  3558	  3559
	  3616	  3618	  3621	  3623	  3624	  3626	  3627	  3631	  3661	  3663	  3666	  3668	  3669	  3671
	  3672	  3676	  3706	  3708	  3711	  3713	  3714	  3716	  3717	  3721	  3751	  3753	  3756	  3758
	  3759	  3761	  3762	  3766	  3796	  3798	  3801	  3803	  3804	  3806	  3807	  3811	  3841	  3843
	  3846	  3848	  3849	  3851	  3852	  3856	  3886	  3888	  3891	  3893	  3894	  3896	  3897	  3901
	  3931	  3933	  3936	  3938	  3939	  3941	  3942	  3946	  3976	  3978	  3981	  3983	  3984	  3986
	  3987	  3991	  4021	  4023	  4026	  4028	  4029	  4031	  4032	  4036	  4066	  4068	  4071	  4073
	  4074	  4076	  4077	  4081	  4111	  4113	  4116	  4118	  4119	  4121	  4122	  4126	  4156	  4158
	  4161	  4163	  4164	  4166	  4167	  4171	  4201	  4203	  4206	  4208	  4209	  4211	  4212	  4216
	  4246	  4248	  4251	  4253	  4254	  4256	  4257	  4261	  4291	  4293	  4296	  4298	  4299	  4301
	  4302	  4306	  4309#	  4310	  4312	  4313	  4314	  4315	  4338	  4340	  4343	  4345	  4346	  4348
	  4349	  4353	  4367	  4369	  4372	  4374	  4375	  4377	  4378	  4382	  4396	  4398	  4401	  4403
	  4404	  4406	  4407	  4411	  4425	  4427	  4430	  4432	  4433	  4435	  4436	  4440	  4454	  4456
	  4459	  4461	  4462	  4464	  4465	  4469	  4483	  4485	  4488	  4490	  4491	  4493	  4494	  4498
	  4512	  4514	  4517	  4519	  4520	  4522	  4523	  4527	  4541	  4543	  4546	  4548	  4549	  4551
	  4552	  4556	  4570	  4572	  4575	  4577	  4578	  4580	  4581	  4585	  4599	  4601	  4604	  4606
	  4607	  4609	  4610	  4614	  4628	  4630	  4633	  4635	  4636	  4638	  4639	  4643	  4657	  4659
	  4662	  4664	  4665	  4667	  4668	  4672	  4686	  4688	  4691	  4693	  4694	  4696	  4697	  4701
	  4715	  4717	  4720	  4722	  4723	  4725	  4726	  4730	  4744	  4746	  4749	  4751	  4752	  4754
	  4755	  4759	  4773	  4775	  4778	  4780	  4781	  4783	  4784	  4788	  4802	  4804	  4807	  4809
	  4810	  4812	  4813	  4817	  4831	  4833	  4836	  4838	  4839	  4841	  4842	  4846	  4860	  4862
	  4865	  4867	  4868	  4870	  4871	  4875	  4889	  4891	  4894	  4896	  4897	  4899	  4900	  4904
	  4918	  4920	  4923	  4925	  4926	  4928	  4929	  4933	  4947	  4949	  4952	  4954	  4955	  4957
	  4958	  4962	  4976	  4978	  4981	  4983	  4984	  4986	  4987	  4991	  5005	  5007	  5010	  5012
	  5013	  5015	  5016	  5020	  5034	  5036	  5039	  5041	  5042	  5044	  5045	  5049	  5063	  5065
	  5068	  5070	  5071	  5073	  5074	  5078	  5092	  5094	  5097	  5099	  5100	  5102	  5103	  5107
	  5121	  5123	  5126	  5128	  5129	  5131	  5132	  5136	  5150	  5152	  5155	  5157	  5158	  5160
	  5161	  5165	  5179	  5181	  5184	  5186	  5187	  5189	  5190	  5194	  5208	  5210	  5213	  5215
	  5216	  5218	  5219	  5223	  5237	  5239	  5242	  5244	  5245	  5247	  5248	  5252	  5266	  5268
	  5271	  5273	  5274	  5276	  5277	  5281	  5295	  5297	  5300	  5302	  5303	  5305	  5306	  5310
	  5324	  5326	  5329	  5331	  5332	  5334	  5335	  5339	  5353	  5355	  5358	  5360	  5361	  5363
	  5364	  5368	  5369#	  5370	  5372	  5373	  5374	  5375	  5398	  5400	  5403	  5405	  5406	  5408     SEQ 0353
	  5409	  5413	  5427	  5429	  5432	  5434	  5435	  5437	  5438	  5442	  5456	  5458	  5461	  5463
	  5464	  5466	  5467	  5471	  5485	  5487	  5490	  5492	  5493	  5495	  5496	  5500	  5514	  5516
	  5519	  5521	  5522	  5524	  5525	  5529	  5543	  5545	  5548	  5550	  5551	  5553	  5554	  5558
	  5572	  5574	  5577	  5579	  5580	  5582	  5583	  5587	  5601	  5603	  5606	  5608	  5609	  5611
	  5612	  5616	  5630	  5632	  5635	  5637	  5638	  5640	  5641	  5645	  5659	  5661	  5664	  5666
	  5667	  5669	  5670	  5674	  5688	  5690	  5693	  5695	  5696	  5698	  5699	  5703	  5717	  5719
	  5722	  5724	  5725	  5727	  5728	  5732	  5746	  5748	  5751	  5753	  5754	  5756	  5757	  5761
	  5775	  5777	  5780	  5782	  5783	  5785	  5786	  5790	  5804	  5806	  5809	  5811	  5812	  5814
	  5815	  5819	  5833	  5835	  5838	  5840	  5841	  5843	  5844	  5848	  5862	  5864	  5867	  5869
	  5870	  5872	  5873	  5877	  5891	  5893	  5896	  5898	  5899	  5901	  5902	  5906	  5920	  5922
	  5925	  5927	  5928	  5930	  5931	  5935	  5949	  5951	  5954	  5956	  5957	  5959	  5960	  5964
	  5978	  5980	  5983	  5985	  5986	  5988	  5989	  5993	  6007	  6009	  6012	  6014	  6015	  6017
	  6018	  6022	  6036	  6038	  6041	  6043	  6044	  6046	  6047	  6051	  6065	  6067	  6070	  6072
	  6073	  6075	  6076	  6080	  6094	  6096	  6099	  6101	  6102	  6104	  6105	  6109	  6123	  6125
	  6128	  6130	  6131	  6133	  6134	  6138	  6152	  6154	  6157	  6159	  6160	  6162	  6163	  6167
	  6181	  6183	  6186	  6188	  6189	  6191	  6192	  6196	  6210	  6212	  6215	  6217	  6218	  6220
	  6221	  6225	  6239	  6241	  6244	  6246	  6247	  6249	  6250	  6254	  6268	  6270	  6273	  6275
	  6276	  6278	  6279	  6283	  6297	  6299	  6302	  6304	  6305	  6307	  6308	  6312	  6326	  6328
	  6331	  6333	  6334	  6336	  6337	  6341	  6355	  6357	  6360	  6362	  6363	  6365	  6366	  6370
	  6384	  6386	  6389	  6391	  6392	  6394	  6395	  6399	  6413	  6415	  6418	  6420	  6421	  6423
	  6424	  6428	  6429#	  6430	  6432	  6433	  6434	  6435	  6446	  6448	  6451	  6453	  6454	  6456
	  6457	  6461	  6464#	  6465	  6467	  6468	  6469	  6470	  6498	  6500	  6503	  6505	  6506	  6508
	  6509	  6513	  6529	  6531	  6534	  6536	  6537	  6539	  6540	  6544	  6560	  6562	  6565	  6567
	  6568	  6570	  6571	  6575	  6591	  6593	  6596	  6598	  6599	  6601	  6602	  6606	  6622	  6624
	  6627	  6629	  6630	  6632	  6633	  6637	  6653	  6655	  6658	  6660	  6661	  6663	  6664	  6668
	  6684	  6686	  6689	  6691	  6692	  6694	  6695	  6699	  6715	  6717	  6720	  6722	  6723	  6725
	  6726	  6730	  6746	  6748	  6751	  6753	  6754	  6756	  6757	  6761	  6777	  6779	  6782	  6784
	  6785	  6787	  6788	  6792	  6808	  6810	  6813	  6815	  6816	  6818	  6819	  6823	  6839	  6841
	  6844	  6846	  6847	  6849	  6850	  6854	  6870	  6872	  6875	  6877	  6878	  6880	  6881	  6885
	  6901	  6903	  6906	  6908	  6909	  6911	  6912	  6916	  6932	  6934	  6937	  6939	  6940	  6942
	  6943	  6947	  6963	  6965	  6968	  6970	  6971	  6973	  6974	  6978	  6994	  6996	  6999	  7001
	  7002	  7004	  7005	  7009	  7025	  7027	  7030	  7032	  7033	  7035	  7036	  7040	  7056	  7058
	  7061	  7063	  7064	  7066	  7067	  7071	  7087	  7089	  7092	  7094	  7095	  7097	  7098	  7102
	  7118	  7120	  7123	  7125	  7126	  7128	  7129	  7133	  7149	  7151	  7154	  7156	  7157	  7159
	  7160	  7164	  7180	  7182	  7185	  7187	  7188	  7190	  7191	  7195	  7211	  7213	  7216	  7218
	  7219	  7221	  7222	  7226	  7242	  7244	  7247	  7249	  7250	  7252	  7253	  7257	  7273	  7275
	  7278	  7280	  7281	  7283	  7284	  7288	  7304	  7306	  7309	  7311	  7312	  7314	  7315	  7319
	  7335	  7337	  7340	  7342	  7343	  7345	  7346	  7350	  7366	  7368	  7371	  7373	  7374	  7376
	  7377	  7381	  7397	  7399	  7402	  7404	  7405	  7407	  7408	  7412	  7428	  7430	  7433	  7435
	  7436	  7438	  7439	  7443	  7459	  7461	  7464	  7466	  7467	  7469	  7470	  7474	  7490	  7492
	  7495	  7497	  7498	  7500	  7501	  7505	  7521	  7523	  7526	  7528	  7529	  7531	  7532	  7536
	  7552	  7554	  7557	  7559	  7560	  7562	  7563	  7567	  7583	  7585	  7588	  7590	  7591	  7593
	  7594	  7598	  7599#	  7600	  7602	  7603	  7604	  7605	  7632	  7634	  7637	  7639	  7640	  7642
	  7643	  7647	  7663	  7665	  7668	  7670	  7671	  7673	  7674	  7678	  7694	  7696	  7699	  7701
	  7702	  7704	  7705	  7709	  7725	  7727	  7730	  7732	  7733	  7735	  7736	  7740	  7756	  7758
	  7761	  7763	  7764	  7766	  7767	  7771	  7787	  7789	  7792	  7794	  7795	  7797	  7798	  7802
	  7818	  7820	  7823	  7825	  7826	  7828	  7829	  7833	  7849	  7851	  7854	  7856	  7857	  7859
	  7860	  7864	  7880	  7882	  7885	  7887	  7888	  7890	  7891	  7895	  7911	  7913	  7916	  7918
	  7919	  7921	  7922	  7926	  7942	  7944	  7947	  7949	  7950	  7952	  7953	  7957	  7973	  7975
	  7978	  7980	  7981	  7983	  7984	  7988	  8004	  8006	  8009	  8011	  8012	  8014	  8015	  8019
	  8035	  8037	  8040	  8042	  8043	  8045	  8046	  8050	  8066	  8068	  8071	  8073	  8074	  8076
	  8077	  8081	  8097	  8099	  8102	  8104	  8105	  8107	  8108	  8112	  8128	  8130	  8133	  8135
	  8136	  8138	  8139	  8143	  8159	  8161	  8164	  8166	  8167	  8169	  8170	  8174	  8190	  8192     SEQ 0354
	  8195	  8197	  8198	  8200	  8201	  8205	  8221	  8223	  8226	  8228	  8229	  8231	  8232	  8236
	  8252	  8254	  8257	  8259	  8260	  8262	  8263	  8267	  8283	  8285	  8288	  8290	  8291	  8293
	  8294	  8298	  8314	  8316	  8319	  8321	  8322	  8324	  8325	  8329	  8345	  8347	  8350	  8352
	  8353	  8355	  8356	  8360	  8376	  8378	  8381	  8383	  8384	  8386	  8387	  8391	  8407	  8409
	  8412	  8414	  8415	  8417	  8418	  8422	  8438	  8440	  8443	  8445	  8446	  8448	  8449	  8453
	  8469	  8471	  8474	  8476	  8477	  8479	  8480	  8484	  8500	  8502	  8505	  8507	  8508	  8510
	  8511	  8515	  8531	  8533	  8536	  8538	  8539	  8541	  8542	  8546	  8562	  8564	  8567	  8569
	  8570	  8572	  8573	  8577	  8593	  8595	  8598	  8600	  8601	  8603	  8604	  8608	  8624	  8626
	  8629	  8631	  8632	  8634	  8635	  8639	  8655	  8657	  8660	  8662	  8663	  8665	  8666	  8670
	  8686	  8688	  8691	  8693	  8694	  8696	  8697	  8701	  8713	  8715	  8718	  8720	  8721	  8723
	  8724	  8728	  8729#	  8730	  8732	  8733	  8734	  8735	  8770	  8772	  8775	  8777	  8778	  8780
	  8781	  8785	  8805	  8807	  8810	  8812	  8813	  8815	  8816	  8820	  8840	  8842	  8845	  8847
	  8848	  8850	  8851	  8855	  8875	  8877	  8880	  8882	  8883	  8885	  8886	  8890	  8910	  8912
	  8915	  8917	  8918	  8920	  8921	  8925	  8945	  8947	  8950	  8952	  8953	  8955	  8956	  8960
	  8980	  8982	  8985	  8987	  8988	  8990	  8991	  8995	  9015	  9017	  9020	  9022	  9023	  9025
	  9026	  9030	  9050	  9052	  9055	  9057	  9058	  9060	  9061	  9065	  9085	  9087	  9090	  9092
	  9093	  9095	  9096	  9100	  9120	  9122	  9125	  9127	  9128	  9130	  9131	  9135	  9155	  9157
	  9160	  9162	  9163	  9165	  9166	  9170	  9190	  9192	  9195	  9197	  9198	  9200	  9201	  9205
	  9225	  9227	  9230	  9232	  9233	  9235	  9236	  9240	  9260	  9262	  9265	  9267	  9268	  9270
	  9271	  9275	  9295	  9297	  9300	  9302	  9303	  9305	  9306	  9310	  9330	  9332	  9335	  9337
	  9338	  9340	  9341	  9345	  9365	  9367	  9370	  9372	  9373	  9375	  9376	  9380	  9400	  9402
	  9405	  9407	  9408	  9410	  9411	  9415	  9435	  9437	  9440	  9442	  9443	  9445	  9446	  9450
	  9470	  9472	  9475	  9477	  9478	  9480	  9481	  9485	  9505	  9507	  9510	  9512	  9513	  9515
	  9516	  9520	  9540	  9542	  9545	  9547	  9548	  9550	  9551	  9555	  9575	  9577	  9580	  9582
	  9583	  9585	  9586	  9590	  9610	  9612	  9615	  9617	  9618	  9620	  9621	  9625	  9645	  9647
	  9650	  9652	  9653	  9655	  9656	  9660	  9680	  9682	  9685	  9687	  9688	  9690	  9691	  9695
	  9715	  9717	  9720	  9722	  9723	  9725	  9726	  9730	  9750	  9752	  9755	  9757	  9758	  9760
	  9761	  9765	  9785	  9787	  9790	  9792	  9793	  9795	  9796	  9800	  9820	  9822	  9825	  9827
	  9828	  9830	  9831	  9835	  9855	  9857	  9860	  9862	  9863	  9865	  9866	  9870	  9890	  9892
	  9895	  9897	  9898	  9900	  9901	  9905	  9925	  9927	  9930	  9932	  9933	  9935	  9936	  9940
	  9960	  9962	  9965	  9967	  9968	  9970	  9971	  9975	  9995	  9997	 10000	 10002	 10003	 10005
	 10006	 10010	 10011#	 10012	 10014	 10015	 10016	 10017	 10052	 10054	 10057	 10059	 10060	 10062
	 10063	 10067	 10087	 10089	 10092	 10094	 10095	 10097	 10098	 10102	 10122	 10124	 10127	 10129
	 10130	 10132	 10133	 10137	 10157	 10159	 10162	 10164	 10165	 10167	 10168	 10172	 10192	 10194
	 10197	 10199	 10200	 10202	 10203	 10207	 10227	 10229	 10232	 10234	 10235	 10237	 10238	 10242
	 10262	 10264	 10267	 10269	 10270	 10272	 10273	 10277	 10297	 10299	 10302	 10304	 10305	 10307
	 10308	 10312	 10332	 10334	 10337	 10339	 10340	 10342	 10343	 10347	 10367	 10369	 10372	 10374
	 10375	 10377	 10378	 10382	 10402	 10404	 10407	 10409	 10410	 10412	 10413	 10417	 10437	 10439
	 10442	 10444	 10445	 10447	 10448	 10452	 10472	 10474	 10477	 10479	 10480	 10482	 10483	 10487
	 10507	 10509	 10512	 10514	 10515	 10517	 10518	 10522	 10542	 10544	 10547	 10549	 10550	 10552
	 10553	 10557	 10577	 10579	 10582	 10584	 10585	 10587	 10588	 10592	 10612	 10614	 10617	 10619
	 10620	 10622	 10623	 10627	 10647	 10649	 10652	 10654	 10655	 10657	 10658	 10662	 10682	 10684
	 10687	 10689	 10690	 10692	 10693	 10697	 10717	 10719	 10722	 10724	 10725	 10727	 10728	 10732
	 10752	 10754	 10757	 10759	 10760	 10762	 10763	 10767	 10787	 10789	 10792	 10794	 10795	 10797
	 10798	 10802	 10822	 10824	 10827	 10829	 10830	 10832	 10833	 10837	 10857	 10859	 10862	 10864
	 10865	 10867	 10868	 10872	 10892	 10894	 10897	 10899	 10900	 10902	 10903	 10907	 10927	 10929
	 10932	 10934	 10935	 10937	 10938	 10942	 10962	 10964	 10967	 10969	 10970	 10972	 10973	 10977
	 10997	 10999	 11002	 11004	 11005	 11007	 11008	 11012	 11032	 11034	 11037	 11039	 11040	 11042
	 11043	 11047	 11067	 11069	 11072	 11074	 11075	 11077	 11078	 11082	 11102	 11104	 11107	 11109
	 11110	 11112	 11113	 11117	 11137	 11139	 11142	 11144	 11145	 11147	 11148	 11152	 11172	 11174
	 11177	 11179	 11180	 11182	 11183	 11187	 11207	 11209	 11212	 11214	 11215	 11217	 11218	 11222
	 11242	 11244	 11247	 11249	 11250	 11252	 11253	 11257	 11269	 11271	 11274	 11276	 11277	 11279
	 11280	 11284	 11285#	 11286	 11288	 11289	 11290	 11291	 11318	 11320	 11323	 11325	 11326	 11328     SEQ 0355
	 11329	 11333	 11349	 11351	 11354	 11356	 11357	 11359	 11360	 11364	 11380	 11382	 11385	 11387
	 11388	 11390	 11391	 11395	 11411	 11413	 11416	 11418	 11419	 11421	 11422	 11426	 11442	 11444
	 11447	 11449	 11450	 11452	 11453	 11457	 11473	 11475	 11478	 11480	 11481	 11483	 11484	 11488
	 11504	 11506	 11509	 11511	 11512	 11514	 11515	 11519	 11535	 11537	 11540	 11542	 11543	 11545
	 11546	 11550	 11566	 11568	 11571	 11573	 11574	 11576	 11577	 11581	 11597	 11599	 11602	 11604
	 11605	 11607	 11608	 11612	 11628	 11630	 11633	 11635	 11636	 11638	 11639	 11643	 11659	 11661
	 11664	 11666	 11667	 11669	 11670	 11674	 11690	 11692	 11695	 11697	 11698	 11700	 11701	 11705
	 11721	 11723	 11726	 11728	 11729	 11731	 11732	 11736	 11752	 11754	 11757	 11759	 11760	 11762
	 11763	 11767	 11783	 11785	 11788	 11790	 11791	 11793	 11794	 11798	 11814	 11816	 11819	 11821
	 11822	 11824	 11825	 11829	 11845	 11847	 11850	 11852	 11853	 11855	 11856	 11860	 11876	 11878
	 11881	 11883	 11884	 11886	 11887	 11891	 11907	 11909	 11912	 11914	 11915	 11917	 11918	 11922
	 11938	 11940	 11943	 11945	 11946	 11948	 11949	 11953	 11969	 11971	 11974	 11976	 11977	 11979
	 11980	 11984	 12000	 12002	 12005	 12007	 12008	 12010	 12011	 12015	 12031	 12033	 12036	 12038
	 12039	 12041	 12042	 12046	 12062	 12064	 12067	 12069	 12070	 12072	 12073	 12077	 12093	 12095
	 12098	 12100	 12101	 12103	 12104	 12108	 12124	 12126	 12129	 12131	 12132	 12134	 12135	 12139
	 12155	 12157	 12160	 12162	 12163	 12165	 12166	 12170	 12186	 12188	 12191	 12193	 12194	 12196
	 12197	 12201	 12217	 12219	 12222	 12224	 12225	 12227	 12228	 12232	 12248	 12250	 12253	 12255
	 12256	 12258	 12259	 12263	 12279	 12281	 12284	 12286	 12287	 12289	 12290	 12294	 12310	 12312
	 12315	 12317	 12318	 12320	 12321	 12325	 12341	 12343	 12346	 12348	 12349	 12351	 12352	 12356
	 12372	 12374	 12377	 12379	 12380	 12382	 12383	 12387	 12403	 12405	 12408	 12410	 12411	 12413
	 12414	 12418	 12419#	 12420	 12422	 12423	 12424	 12425	 12452	 12454	 12457	 12459	 12460	 12462
	 12463	 12467	 12483	 12485	 12488	 12490	 12491	 12493	 12494	 12498	 12514	 12516	 12519	 12521
	 12522	 12524	 12525	 12529	 12545	 12547	 12550	 12552	 12553	 12555	 12556	 12560	 12576	 12578
	 12581	 12583	 12584	 12586	 12587	 12591	 12607	 12609	 12612	 12614	 12615	 12617	 12618	 12622
	 12638	 12640	 12643	 12645	 12646	 12648	 12649	 12653	 12669	 12671	 12674	 12676	 12677	 12679
	 12680	 12684	 12700	 12702	 12705	 12707	 12708	 12710	 12711	 12715	 12731	 12733	 12736	 12738
	 12739	 12741	 12742	 12746	 12762	 12764	 12767	 12769	 12770	 12772	 12773	 12777	 12793	 12795
	 12798	 12800	 12801	 12803	 12804	 12808	 12824	 12826	 12829	 12831	 12832	 12834	 12835	 12839
	 12855	 12857	 12860	 12862	 12863	 12865	 12866	 12870	 12886	 12888	 12891	 12893	 12894	 12896
	 12897	 12901	 12917	 12919	 12922	 12924	 12925	 12927	 12928	 12932	 12948	 12950	 12953	 12955
	 12956	 12958	 12959	 12963	 12979	 12981	 12984	 12986	 12987	 12989	 12990	 12994	 13010	 13012
	 13015	 13017	 13018	 13020	 13021	 13025	 13041	 13043	 13046	 13048	 13049	 13051	 13052	 13056
	 13072	 13074	 13077	 13079	 13080	 13082	 13083	 13087	 13103	 13105	 13108	 13110	 13111	 13113
	 13114	 13118	 13134	 13136	 13139	 13141	 13142	 13144	 13145	 13149	 13165	 13167	 13170	 13172
	 13173	 13175	 13176	 13180	 13196	 13198	 13201	 13203	 13204	 13206	 13207	 13211	 13227	 13229
	 13232	 13234	 13235	 13237	 13238	 13242	 13258	 13260	 13263	 13265	 13266	 13268	 13269	 13273
	 13289	 13291	 13294	 13296	 13297	 13299	 13300	 13304	 13320	 13322	 13325	 13327	 13328	 13330
	 13331	 13335	 13351	 13353	 13356	 13358	 13359	 13361	 13362	 13366	 13382	 13384	 13387	 13389
	 13390	 13392	 13393	 13397	 13413	 13415	 13418	 13420	 13421	 13423	 13424	 13428	 13444	 13446
	 13449	 13451	 13452	 13454	 13455	 13459	 13475	 13477	 13480	 13482	 13483	 13485	 13486	 13490
	 13506	 13508	 13511	 13513	 13514	 13516	 13517	 13521	 13537	 13539	 13542	 13544	 13545	 13547
	 13548	 13552	 13553#	 13554	 13556	 13557	 13558	 13559	 13588	 13590	 13593	 13595	 13596	 13598
	 13599	 13603	 13620	 13622	 13625	 13627	 13628	 13630	 13631	 13635	 13652	 13654	 13657	 13659
	 13660	 13662	 13663	 13667	 13684	 13686	 13689	 13691	 13692	 13694	 13695	 13699	 13716	 13718
	 13721	 13723	 13724	 13726	 13727	 13731	 13748	 13750	 13753	 13755	 13756	 13758	 13759	 13763
	 13780	 13782	 13785	 13787	 13788	 13790	 13791	 13795	 13812	 13814	 13817	 13819	 13820	 13822
	 13823	 13827	 13844	 13846	 13849	 13851	 13852	 13854	 13855	 13859	 13876	 13878	 13881	 13883
	 13884	 13886	 13887	 13891	 13908	 13910	 13913	 13915	 13916	 13918	 13919	 13923	 13940	 13942
	 13945	 13947	 13948	 13950	 13951	 13955	 13972	 13974	 13977	 13979	 13980	 13982	 13983	 13987
	 14004	 14006	 14009	 14011	 14012	 14014	 14015	 14019	 14036	 14038	 14041	 14043	 14044	 14046
	 14047	 14051	 14068	 14070	 14073	 14075	 14076	 14078	 14079	 14083	 14100	 14102	 14105	 14107
	 14108	 14110	 14111	 14115	 14132	 14134	 14137	 14139	 14140	 14142	 14143	 14147	 14164	 14166
	 14169	 14171	 14172	 14174	 14175	 14179	 14196	 14198	 14201	 14203	 14204	 14206	 14207	 14211     SEQ 0356
	 14228	 14230	 14233	 14235	 14236	 14238	 14239	 14243	 14260	 14262	 14265	 14267	 14268	 14270
	 14271	 14275	 14292	 14294	 14297	 14299	 14300	 14302	 14303	 14307	 14324	 14326	 14329	 14331
	 14332	 14334	 14335	 14339	 14356	 14358	 14361	 14363	 14364	 14366	 14367	 14371	 14388	 14390
	 14393	 14395	 14396	 14398	 14399	 14403	 14420	 14422	 14425	 14427	 14428	 14430	 14431	 14435
	 14452	 14454	 14457	 14459	 14460	 14462	 14463	 14467	 14484	 14486	 14489	 14491	 14492	 14494
	 14495	 14499	 14516	 14518	 14521	 14523	 14524	 14526	 14527	 14531	 14548	 14550	 14553	 14555
	 14556	 14558	 14559	 14563	 14580	 14582	 14585	 14587	 14588	 14590	 14591	 14595	 14612	 14614
	 14617	 14619	 14620	 14622	 14623	 14627	 14644	 14646	 14649	 14651	 14652	 14654	 14655	 14659
	 14676	 14678	 14681	 14683	 14684	 14686	 14687	 14691	 14708	 14710	 14713	 14715	 14716	 14718
	 14719	 14723	 14724#	 14725	 14727	 14728	 14729	 14730	 14759	 14761	 14764	 14766	 14767	 14769
	 14770	 14774	 14791	 14793	 14796	 14798	 14799	 14801	 14802	 14806	 14823	 14825	 14828	 14830
	 14831	 14833	 14834	 14838	 14855	 14857	 14860	 14862	 14863	 14865	 14866	 14870	 14887	 14889
	 14892	 14894	 14895	 14897	 14898	 14902	 14919	 14921	 14924	 14926	 14927	 14929	 14930	 14934
	 14951	 14953	 14956	 14958	 14959	 14961	 14962	 14966	 14983	 14985	 14988	 14990	 14991	 14993
	 14994	 14998	 15015	 15017	 15020	 15022	 15023	 15025	 15026	 15030	 15047	 15049	 15052	 15054
	 15055	 15057	 15058	 15062	 15079	 15081	 15084	 15086	 15087	 15089	 15090	 15094	 15111	 15113
	 15116	 15118	 15119	 15121	 15122	 15126	 15143	 15145	 15148	 15150	 15151	 15153	 15154	 15158
	 15175	 15177	 15180	 15182	 15183	 15185	 15186	 15190	 15207	 15209	 15212	 15214	 15215	 15217
	 15218	 15222	 15239	 15241	 15244	 15246	 15247	 15249	 15250	 15254	 15271	 15273	 15276	 15278
	 15279	 15281	 15282	 15286	 15303	 15305	 15308	 15310	 15311	 15313	 15314	 15318	 15335	 15337
	 15340	 15342	 15343	 15345	 15346	 15350	 15367	 15369	 15372	 15374	 15375	 15377	 15378	 15382
	 15399	 15401	 15404	 15406	 15407	 15409	 15410	 15414	 15431	 15433	 15436	 15438	 15439	 15441
	 15442	 15446	 15463	 15465	 15468	 15470	 15471	 15473	 15474	 15478	 15495	 15497	 15500	 15502
	 15503	 15505	 15506	 15510	 15527	 15529	 15532	 15534	 15535	 15537	 15538	 15542	 15559	 15561
	 15564	 15566	 15567	 15569	 15570	 15574	 15591	 15593	 15596	 15598	 15599	 15601	 15602	 15606
	 15623	 15625	 15628	 15630	 15631	 15633	 15634	 15638	 15655	 15657	 15660	 15662	 15663	 15665
	 15666	 15670	 15687	 15689	 15692	 15694	 15695	 15697	 15698	 15702	 15719	 15721	 15724	 15726
	 15727	 15729	 15730	 15734	 15751	 15753	 15756	 15758	 15759	 15761	 15762	 15766	 15783	 15785
	 15788	 15790	 15791	 15793	 15794	 15798	 15815	 15817	 15820	 15822	 15823	 15825	 15826	 15830
	 15847	 15849	 15852	 15854	 15855	 15857	 15858	 15862	 15879	 15881	 15884	 15886	 15887	 15889
	 15890	 15894	 15897#	 15898	 15900	 15901	 15902	 15903	 15946	 15948	 15951	 15953	 15954	 15956
	 15957	 15961	 15984	 15986	 15989	 15991	 15992	 15994	 15995	 15999	 16022	 16024	 16027	 16029
	 16030	 16032	 16033	 16037	 16060	 16062	 16065	 16067	 16068	 16070	 16071	 16075	 16098	 16100
	 16103	 16105	 16106	 16108	 16109	 16113	 16136	 16138	 16141	 16143	 16144	 16146	 16147	 16151
	 16174	 16176	 16179	 16181	 16182	 16184	 16185	 16189	 16212	 16214	 16217	 16219	 16220	 16222
	 16223	 16227	 16250	 16252	 16255	 16257	 16258	 16260	 16261	 16265	 16288	 16290	 16293	 16295
	 16296	 16298	 16299	 16303	 16326	 16328	 16331	 16333	 16334	 16336	 16337	 16341	 16364	 16366
	 16369	 16371	 16372	 16374	 16375	 16379	 16402	 16404	 16407	 16409	 16410	 16412	 16413	 16417
	 16440	 16442	 16445	 16447	 16448	 16450	 16451	 16455	 16478	 16480	 16483	 16485	 16486	 16488
	 16489	 16493	 16516	 16518	 16521	 16523	 16524	 16526	 16527	 16531	 16554	 16556	 16559	 16561
	 16562	 16564	 16565	 16569	 16592	 16594	 16597	 16599	 16600	 16602	 16603	 16607	 16630	 16632
	 16635	 16637	 16638	 16640	 16641	 16645	 16668	 16670	 16673	 16675	 16676	 16678	 16679	 16683
	 16706	 16708	 16711	 16713	 16714	 16716	 16717	 16721	 16744	 16746	 16749	 16751	 16752	 16754
	 16755	 16759	 16782	 16784	 16787	 16789	 16790	 16792	 16793	 16797	 16820	 16822	 16825	 16827
	 16828	 16830	 16831	 16835	 16858	 16860	 16863	 16865	 16866	 16868	 16869	 16873	 16896	 16898
	 16901	 16903	 16904	 16906	 16907	 16911	 16934	 16936	 16939	 16941	 16942	 16944	 16945	 16949
	 16972	 16974	 16977	 16979	 16980	 16982	 16983	 16987	 17010	 17012	 17015	 17017	 17018	 17020
	 17021	 17025	 17048	 17050	 17053	 17055	 17056	 17058	 17059	 17063	 17086	 17088	 17091	 17093
	 17094	 17096	 17097	 17101	 17124	 17126	 17129	 17131	 17132	 17134	 17135	 17139	 17162	 17164
	 17167	 17169	 17170	 17172	 17173	 17177	 17200	 17202	 17205	 17207	 17208	 17210	 17211	 17215
	 17238	 17240	 17243	 17245	 17246	 17248	 17249	 17253	 17269	 17271	 17274	 17276	 17277	 17279
	 17280	 17284
ADR	   711#	   722	   763	   763#	   768	   792	   792#	   797	   821	   821#	   826	   850	   850#	   855     SEQ 0357
	   879	   879#	   884	   908	   908#	   913	   937	   937#	   942	   966	   966#	   971	   995	   995#
	  1000	  1024	  1024#	  1029	  1053	  1053#	  1058	  1082	  1082#	  1087	  1111	  1111#	  1116	  1140
	  1140#	  1145	  1169	  1169#	  1174	  1198	  1198#	  1203	  1227	  1227#	  1232	  1256	  1256#	  1261
	  1285	  1285#	  1290	  1314	  1314#	  1319	  1343	  1343#	  1348	  1372	  1372#	  1377	  1401	  1401#
	  1406	  1430	  1430#	  1435	  1459	  1459#	  1464	  1488	  1488#	  1493	  1517	  1517#	  1522	  1546
	  1546#	  1551	  1575	  1575#	  1580	  1604	  1604#	  1609	  1633	  1633#	  1638	  1662	  1662#	  1667
	  1691	  1691#	  1696	  1720	  1720#	  1725	  1749	  1749#	  1754	  1778	  1778#	  1783	  1823	  1823#
	  1828	  1852	  1852#	  1857	  1881	  1881#	  1886	  1910	  1910#	  1915	  1939	  1939#	  1944	  1968
	  1968#	  1973	  1997	  1997#	  2002	  2026	  2026#	  2031	  2055	  2055#	  2060	  2084	  2084#	  2089
	  2113	  2113#	  2118	  2142	  2142#	  2147	  2171	  2171#	  2176	  2200	  2200#	  2205	  2229	  2229#
	  2234	  2258	  2258#	  2263	  2287	  2287#	  2292	  2316	  2316#	  2321	  2345	  2345#	  2350	  2374
	  2374#	  2379	  2403	  2403#	  2408	  2432	  2432#	  2437	  2461	  2461#	  2466	  2490	  2490#	  2495
	  2519	  2519#	  2524	  2548	  2548#	  2553	  2577	  2577#	  2582	  2606	  2606#	  2611	  2635	  2635#
	  2640	  2664	  2664#	  2669	  2693	  2693#	  2698	  2722	  2722#	  2727	  2751	  2751#	  2756	  2780
	  2780#	  2785	  2809	  2809#	  2814	  2838	  2838#	  2843	  2866	  2866#	  2876	  2942	  2942#	  2945
	  2981	  2981#	  2984	  3020	  3020#	  3023	  3059	  3059#	  3062	  3098	  3098#	  3101	  3137	  3137#
	  3140	  3176	  3176#	  3179	  3215	  3215#	  3218	  3254	  3254#	  3257	  3293	  3293#	  3296	  3332
	  3332#	  3335	  3371	  3371#	  3374	  3410	  3410#	  3413	  3449	  3449#	  3452	  3488	  3488#	  3491
	  3527	  3527#	  3530	  3600	  3600#	  3609	  3645	  3645#	  3654	  3690	  3690#	  3699	  3735	  3735#
	  3744	  3780	  3780#	  3789	  3825	  3825#	  3834	  3870	  3870#	  3879	  3915	  3915#	  3924	  3960
	  3960#	  3969	  4005	  4005#	  4014	  4050	  4050#	  4059	  4095	  4095#	  4104	  4140	  4140#	  4149
	  4185	  4185#	  4194	  4230	  4230#	  4239	  4275	  4275#	  4284	  4326	  4326#	  4331	  4355	  4355#
	  4360	  4384	  4384#	  4389	  4413	  4413#	  4418	  4442	  4442#	  4447	  4471	  4471#	  4476	  4500
	  4500#	  4505	  4529	  4529#	  4534	  4558	  4558#	  4563	  4587	  4587#	  4592	  4616	  4616#	  4621
	  4645	  4645#	  4650	  4674	  4674#	  4679	  4703	  4703#	  4708	  4732	  4732#	  4737	  4761	  4761#
	  4766	  4790	  4790#	  4795	  4819	  4819#	  4824	  4848	  4848#	  4853	  4877	  4877#	  4882	  4906
	  4906#	  4911	  4935	  4935#	  4940	  4964	  4964#	  4969	  4993	  4993#	  4998	  5022	  5022#	  5027
	  5051	  5051#	  5056	  5080	  5080#	  5085	  5109	  5109#	  5114	  5138	  5138#	  5143	  5167	  5167#
	  5172	  5196	  5196#	  5201	  5225	  5225#	  5230	  5254	  5254#	  5259	  5283	  5283#	  5288	  5312
	  5312#	  5317	  5341	  5341#	  5346	  5386	  5386#	  5391	  5415	  5415#	  5420	  5444	  5444#	  5449
	  5473	  5473#	  5478	  5502	  5502#	  5507	  5531	  5531#	  5536	  5560	  5560#	  5565	  5589	  5589#
	  5594	  5618	  5618#	  5623	  5647	  5647#	  5652	  5676	  5676#	  5681	  5705	  5705#	  5710	  5734
	  5734#	  5739	  5763	  5763#	  5768	  5792	  5792#	  5797	  5821	  5821#	  5826	  5850	  5850#	  5855
	  5879	  5879#	  5884	  5908	  5908#	  5913	  5937	  5937#	  5942	  5966	  5966#	  5971	  5995	  5995#
	  6000	  6024	  6024#	  6029	  6053	  6053#	  6058	  6082	  6082#	  6087	  6111	  6111#	  6116	  6140
	  6140#	  6145	  6169	  6169#	  6174	  6198	  6198#	  6203	  6227	  6227#	  6232	  6256	  6256#	  6261
	  6285	  6285#	  6290	  6314	  6314#	  6319	  6343	  6343#	  6348	  6372	  6372#	  6377	  6401	  6401#
	  6406	  6436	  6436#	  6439	  6484	  6484#	  6491	  6515	  6515#	  6522	  6546	  6546#	  6553	  6577
	  6577#	  6584	  6608	  6608#	  6615	  6639	  6639#	  6646	  6670	  6670#	  6677	  6701	  6701#	  6708
	  6732	  6732#	  6739	  6763	  6763#	  6770	  6794	  6794#	  6801	  6825	  6825#	  6832	  6856	  6856#
	  6863	  6887	  6887#	  6894	  6918	  6918#	  6925	  6949	  6949#	  6956	  6980	  6980#	  6987	  7011
	  7011#	  7018	  7042	  7042#	  7049	  7073	  7073#	  7080	  7104	  7104#	  7111	  7135	  7135#	  7142
	  7166	  7166#	  7173	  7197	  7197#	  7204	  7228	  7228#	  7235	  7259	  7259#	  7266	  7290	  7290#
	  7297	  7321	  7321#	  7328	  7352	  7352#	  7359	  7383	  7383#	  7390	  7414	  7414#	  7421	  7445
	  7445#	  7452	  7476	  7476#	  7483	  7507	  7507#	  7514	  7538	  7538#	  7545	  7569	  7569#	  7576
	  7618	  7618#	  7625	  7649	  7649#	  7656	  7680	  7680#	  7687	  7711	  7711#	  7718	  7742	  7742#
	  7749	  7773	  7773#	  7780	  7804	  7804#	  7811	  7835	  7835#	  7842	  7866	  7866#	  7873	  7897
	  7897#	  7904	  7928	  7928#	  7935	  7959	  7959#	  7966	  7990	  7990#	  7997	  8021	  8021#	  8028
	  8052	  8052#	  8059	  8083	  8083#	  8090	  8114	  8114#	  8121	  8145	  8145#	  8152	  8176	  8176#
	  8183	  8207	  8207#	  8214	  8238	  8238#	  8245	  8269	  8269#	  8276	  8300	  8300#	  8307	  8331
	  8331#	  8338	  8362	  8362#	  8369	  8393	  8393#	  8400	  8424	  8424#	  8431	  8455	  8455#	  8462
	  8486	  8486#	  8493	  8517	  8517#	  8524	  8548	  8548#	  8555	  8579	  8579#	  8586	  8610	  8610#
	  8617	  8641	  8641#	  8648	  8672	  8672#	  8679	  8704	  8704#	  8706	  8752	  8752#	  8763	  8787     SEQ 0358
	  8787#	  8798	  8822	  8822#	  8833	  8857	  8857#	  8868	  8892	  8892#	  8903	  8927	  8927#	  8938
	  8962	  8962#	  8973	  8997	  8997#	  9008	  9032	  9032#	  9043	  9067	  9067#	  9078	  9102	  9102#
	  9113	  9137	  9137#	  9148	  9172	  9172#	  9183	  9207	  9207#	  9218	  9242	  9242#	  9253	  9277
	  9277#	  9288	  9312	  9312#	  9323	  9347	  9347#	  9358	  9382	  9382#	  9393	  9417	  9417#	  9428
	  9452	  9452#	  9463	  9487	  9487#	  9498	  9522	  9522#	  9533	  9557	  9557#	  9568	  9592	  9592#
	  9603	  9627	  9627#	  9638	  9662	  9662#	  9673	  9697	  9697#	  9708	  9732	  9732#	  9743	  9767
	  9767#	  9778	  9802	  9802#	  9813	  9837	  9837#	  9848	  9872	  9872#	  9883	  9907	  9907#	  9918
	  9942	  9942#	  9953	  9977	  9977#	  9988	 10034	 10034#	 10045	 10069	 10069#	 10080	 10104	 10104#
	 10115	 10139	 10139#	 10150	 10174	 10174#	 10185	 10209	 10209#	 10220	 10244	 10244#	 10255	 10279
	 10279#	 10290	 10314	 10314#	 10325	 10349	 10349#	 10360	 10384	 10384#	 10395	 10419	 10419#	 10430
	 10454	 10454#	 10465	 10489	 10489#	 10500	 10524	 10524#	 10535	 10559	 10559#	 10570	 10594	 10594#
	 10605	 10629	 10629#	 10640	 10664	 10664#	 10675	 10699	 10699#	 10710	 10734	 10734#	 10745	 10769
	 10769#	 10780	 10804	 10804#	 10815	 10839	 10839#	 10850	 10874	 10874#	 10885	 10909	 10909#	 10920
	 10944	 10944#	 10955	 10979	 10979#	 10990	 11014	 11014#	 11025	 11049	 11049#	 11060	 11084	 11084#
	 11095	 11119	 11119#	 11130	 11154	 11154#	 11165	 11189	 11189#	 11200	 11224	 11224#	 11235	 11259
	 11259#	 11262	 11304	 11304#	 11311	 11335	 11335#	 11342	 11366	 11366#	 11373	 11397	 11397#	 11404
	 11428	 11428#	 11435	 11459	 11459#	 11466	 11490	 11490#	 11497	 11521	 11521#	 11528	 11552	 11552#
	 11559	 11583	 11583#	 11590	 11614	 11614#	 11621	 11645	 11645#	 11652	 11676	 11676#	 11683	 11707
	 11707#	 11714	 11738	 11738#	 11745	 11769	 11769#	 11776	 11800	 11800#	 11807	 11831	 11831#	 11838
	 11862	 11862#	 11869	 11893	 11893#	 11900	 11924	 11924#	 11931	 11955	 11955#	 11962	 11986	 11986#
	 11993	 12017	 12017#	 12024	 12048	 12048#	 12055	 12079	 12079#	 12086	 12110	 12110#	 12117	 12141
	 12141#	 12148	 12172	 12172#	 12179	 12203	 12203#	 12210	 12234	 12234#	 12241	 12265	 12265#	 12272
	 12296	 12296#	 12303	 12327	 12327#	 12334	 12358	 12358#	 12365	 12389	 12389#	 12396	 12438	 12438#
	 12445	 12469	 12469#	 12476	 12500	 12500#	 12507	 12531	 12531#	 12538	 12562	 12562#	 12569	 12593
	 12593#	 12600	 12624	 12624#	 12631	 12655	 12655#	 12662	 12686	 12686#	 12693	 12717	 12717#	 12724
	 12748	 12748#	 12755	 12779	 12779#	 12786	 12810	 12810#	 12817	 12841	 12841#	 12848	 12872	 12872#
	 12879	 12903	 12903#	 12910	 12934	 12934#	 12941	 12965	 12965#	 12972	 12996	 12996#	 13003	 13027
	 13027#	 13034	 13058	 13058#	 13065	 13089	 13089#	 13096	 13120	 13120#	 13127	 13151	 13151#	 13158
	 13182	 13182#	 13189	 13213	 13213#	 13220	 13244	 13244#	 13251	 13275	 13275#	 13282	 13306	 13306#
	 13313	 13337	 13337#	 13344	 13368	 13368#	 13375	 13399	 13399#	 13406	 13430	 13430#	 13437	 13461
	 13461#	 13468	 13492	 13492#	 13499	 13523	 13523#	 13530	 13573	 13573#	 13581	 13605	 13605#	 13613
	 13637	 13637#	 13645	 13669	 13669#	 13677	 13701	 13701#	 13709	 13733	 13733#	 13741	 13765	 13765#
	 13773	 13797	 13797#	 13805	 13829	 13829#	 13837	 13861	 13861#	 13869	 13893	 13893#	 13901	 13925
	 13925#	 13933	 13957	 13957#	 13965	 13989	 13989#	 13997	 14021	 14021#	 14029	 14053	 14053#	 14061
	 14085	 14085#	 14093	 14117	 14117#	 14125	 14149	 14149#	 14157	 14181	 14181#	 14189	 14213	 14213#
	 14221	 14245	 14245#	 14253	 14277	 14277#	 14285	 14309	 14309#	 14317	 14341	 14341#	 14349	 14373
	 14373#	 14381	 14405	 14405#	 14413	 14437	 14437#	 14445	 14469	 14469#	 14477	 14501	 14501#	 14509
	 14533	 14533#	 14541	 14565	 14565#	 14573	 14597	 14597#	 14605	 14629	 14629#	 14637	 14661	 14661#
	 14669	 14693	 14693#	 14701	 14744	 14744#	 14752	 14776	 14776#	 14784	 14808	 14808#	 14816	 14840
	 14840#	 14848	 14872	 14872#	 14880	 14904	 14904#	 14912	 14936	 14936#	 14944	 14968	 14968#	 14976
	 15000	 15000#	 15008	 15032	 15032#	 15040	 15064	 15064#	 15072	 15096	 15096#	 15104	 15128	 15128#
	 15136	 15160	 15160#	 15168	 15192	 15192#	 15200	 15224	 15224#	 15232	 15256	 15256#	 15264	 15288
	 15288#	 15296	 15320	 15320#	 15328	 15352	 15352#	 15360	 15384	 15384#	 15392	 15416	 15416#	 15424
	 15448	 15448#	 15456	 15480	 15480#	 15488	 15512	 15512#	 15520	 15544	 15544#	 15552	 15576	 15576#
	 15584	 15608	 15608#	 15616	 15640	 15640#	 15648	 15672	 15672#	 15680	 15704	 15704#	 15712	 15736
	 15736#	 15744	 15768	 15768#	 15776	 15800	 15800#	 15808	 15832	 15832#	 15840	 15864	 15864#	 15872
	 15926	 15926#	 15939	 15964	 15964#	 15977	 16002	 16002#	 16015	 16040	 16040#	 16053	 16078	 16078#
	 16091	 16116	 16116#	 16129	 16154	 16154#	 16167	 16192	 16192#	 16205	 16230	 16230#	 16243	 16268
	 16268#	 16281	 16306	 16306#	 16319	 16344	 16344#	 16357	 16382	 16382#	 16395	 16420	 16420#	 16433
	 16458	 16458#	 16471	 16496	 16496#	 16509	 16534	 16534#	 16547	 16572	 16572#	 16585	 16610	 16610#
	 16623	 16648	 16648#	 16661	 16686	 16686#	 16699	 16724	 16724#	 16737	 16762	 16762#	 16775	 16800
	 16800#	 16813	 16838	 16838#	 16851	 16876	 16876#	 16889	 16914	 16914#	 16927	 16952	 16952#	 16965
	 16990	 16990#	 17003	 17028	 17028#	 17041	 17066	 17066#	 17079	 17104	 17104#	 17117	 17142	 17142#    SEQ 0359
	 17155	 17180	 17180#	 17193	 17218	 17218#	 17231	 17256	 17256#	 17262
AEE	   732#	   741#	   778#	   787#	   807#	   816#	   836#	   845#	   865#	   874#	   894#	   903#	   923#	   932#
	   952#	   961#	   981#	   990#	  1010#	  1019#	  1039#	  1048#	  1068#	  1077#	  1097#	  1106#	  1126#	  1135#
	  1155#	  1164#	  1184#	  1193#	  1213#	  1222#	  1242#	  1251#	  1271#	  1280#	  1300#	  1309#	  1329#	  1338#
	  1358#	  1367#	  1387#	  1396#	  1416#	  1425#	  1445#	  1454#	  1474#	  1483#	  1503#	  1512#	  1532#	  1541#
	  1561#	  1570#	  1590#	  1599#	  1619#	  1628#	  1648#	  1657#	  1677#	  1686#	  1706#	  1715#	  1735#	  1744#
	  1764#	  1773#	  1793#	  1802#	  1838#	  1847#	  1867#	  1876#	  1896#	  1905#	  1925#	  1934#	  1954#	  1963#
	  1983#	  1992#	  2012#	  2021#	  2041#	  2050#	  2070#	  2079#	  2099#	  2108#	  2128#	  2137#	  2157#	  2166#
	  2186#	  2195#	  2215#	  2224#	  2244#	  2253#	  2273#	  2282#	  2302#	  2311#	  2331#	  2340#	  2360#	  2369#
	  2389#	  2398#	  2418#	  2427#	  2447#	  2456#	  2476#	  2485#	  2505#	  2514#	  2534#	  2543#	  2563#	  2572#
	  2592#	  2601#	  2621#	  2630#	  2650#	  2659#	  2679#	  2688#	  2708#	  2717#	  2737#	  2746#	  2766#	  2775#
	  2795#	  2804#	  2824#	  2833#	  2853#	  2862#	  2886#	  2895#	  2955#	  2964#	  2994#	  3003#	  3033#	  3042#
	  3072#	  3081#	  3111#	  3120#	  3150#	  3159#	  3189#	  3198#	  3228#	  3237#	  3267#	  3276#	  3306#	  3315#
	  3345#	  3354#	  3384#	  3393#	  3423#	  3432#	  3462#	  3471#	  3501#	  3510#	  3540#	  3549#	  3619#	  3628#
	  3664#	  3673#	  3709#	  3718#	  3754#	  3763#	  3799#	  3808#	  3844#	  3853#	  3889#	  3898#	  3934#	  3943#
	  3979#	  3988#	  4024#	  4033#	  4069#	  4078#	  4114#	  4123#	  4159#	  4168#	  4204#	  4213#	  4249#	  4258#
	  4294#	  4303#	  4341#	  4350#	  4370#	  4379#	  4399#	  4408#	  4428#	  4437#	  4457#	  4466#	  4486#	  4495#
	  4515#	  4524#	  4544#	  4553#	  4573#	  4582#	  4602#	  4611#	  4631#	  4640#	  4660#	  4669#	  4689#	  4698#
	  4718#	  4727#	  4747#	  4756#	  4776#	  4785#	  4805#	  4814#	  4834#	  4843#	  4863#	  4872#	  4892#	  4901#
	  4921#	  4930#	  4950#	  4959#	  4979#	  4988#	  5008#	  5017#	  5037#	  5046#	  5066#	  5075#	  5095#	  5104#
	  5124#	  5133#	  5153#	  5162#	  5182#	  5191#	  5211#	  5220#	  5240#	  5249#	  5269#	  5278#	  5298#	  5307#
	  5327#	  5336#	  5356#	  5365#	  5401#	  5410#	  5430#	  5439#	  5459#	  5468#	  5488#	  5497#	  5517#	  5526#
	  5546#	  5555#	  5575#	  5584#	  5604#	  5613#	  5633#	  5642#	  5662#	  5671#	  5691#	  5700#	  5720#	  5729#
	  5749#	  5758#	  5778#	  5787#	  5807#	  5816#	  5836#	  5845#	  5865#	  5874#	  5894#	  5903#	  5923#	  5932#
	  5952#	  5961#	  5981#	  5990#	  6010#	  6019#	  6039#	  6048#	  6068#	  6077#	  6097#	  6106#	  6126#	  6135#
	  6155#	  6164#	  6184#	  6193#	  6213#	  6222#	  6242#	  6251#	  6271#	  6280#	  6300#	  6309#	  6329#	  6338#
	  6358#	  6367#	  6387#	  6396#	  6416#	  6425#	  6449#	  6458#	  6501#	  6510#	  6532#	  6541#	  6563#	  6572#
	  6594#	  6603#	  6625#	  6634#	  6656#	  6665#	  6687#	  6696#	  6718#	  6727#	  6749#	  6758#	  6780#	  6789#
	  6811#	  6820#	  6842#	  6851#	  6873#	  6882#	  6904#	  6913#	  6935#	  6944#	  6966#	  6975#	  6997#	  7006#
	  7028#	  7037#	  7059#	  7068#	  7090#	  7099#	  7121#	  7130#	  7152#	  7161#	  7183#	  7192#	  7214#	  7223#
	  7245#	  7254#	  7276#	  7285#	  7307#	  7316#	  7338#	  7347#	  7369#	  7378#	  7400#	  7409#	  7431#	  7440#
	  7462#	  7471#	  7493#	  7502#	  7524#	  7533#	  7555#	  7564#	  7586#	  7595#	  7635#	  7644#	  7666#	  7675#
	  7697#	  7706#	  7728#	  7737#	  7759#	  7768#	  7790#	  7799#	  7821#	  7830#	  7852#	  7861#	  7883#	  7892#
	  7914#	  7923#	  7945#	  7954#	  7976#	  7985#	  8007#	  8016#	  8038#	  8047#	  8069#	  8078#	  8100#	  8109#
	  8131#	  8140#	  8162#	  8171#	  8193#	  8202#	  8224#	  8233#	  8255#	  8264#	  8286#	  8295#	  8317#	  8326#
	  8348#	  8357#	  8379#	  8388#	  8410#	  8419#	  8441#	  8450#	  8472#	  8481#	  8503#	  8512#	  8534#	  8543#
	  8565#	  8574#	  8596#	  8605#	  8627#	  8636#	  8658#	  8667#	  8689#	  8698#	  8716#	  8725#	  8773#	  8782#
	  8808#	  8817#	  8843#	  8852#	  8878#	  8887#	  8913#	  8922#	  8948#	  8957#	  8983#	  8992#	  9018#	  9027#
	  9053#	  9062#	  9088#	  9097#	  9123#	  9132#	  9158#	  9167#	  9193#	  9202#	  9228#	  9237#	  9263#	  9272#
	  9298#	  9307#	  9333#	  9342#	  9368#	  9377#	  9403#	  9412#	  9438#	  9447#	  9473#	  9482#	  9508#	  9517#
	  9543#	  9552#	  9578#	  9587#	  9613#	  9622#	  9648#	  9657#	  9683#	  9692#	  9718#	  9727#	  9753#	  9762#
	  9788#	  9797#	  9823#	  9832#	  9858#	  9867#	  9893#	  9902#	  9928#	  9937#	  9963#	  9972#	  9998#	 10007#
	 10055#	 10064#	 10090#	 10099#	 10125#	 10134#	 10160#	 10169#	 10195#	 10204#	 10230#	 10239#	 10265#	 10274#
	 10300#	 10309#	 10335#	 10344#	 10370#	 10379#	 10405#	 10414#	 10440#	 10449#	 10475#	 10484#	 10510#	 10519#
	 10545#	 10554#	 10580#	 10589#	 10615#	 10624#	 10650#	 10659#	 10685#	 10694#	 10720#	 10729#	 10755#	 10764#
	 10790#	 10799#	 10825#	 10834#	 10860#	 10869#	 10895#	 10904#	 10930#	 10939#	 10965#	 10974#	 11000#	 11009#
	 11035#	 11044#	 11070#	 11079#	 11105#	 11114#	 11140#	 11149#	 11175#	 11184#	 11210#	 11219#	 11245#	 11254#
	 11272#	 11281#	 11321#	 11330#	 11352#	 11361#	 11383#	 11392#	 11414#	 11423#	 11445#	 11454#	 11476#	 11485#
	 11507#	 11516#	 11538#	 11547#	 11569#	 11578#	 11600#	 11609#	 11631#	 11640#	 11662#	 11671#	 11693#	 11702#
	 11724#	 11733#	 11755#	 11764#	 11786#	 11795#	 11817#	 11826#	 11848#	 11857#	 11879#	 11888#	 11910#	 11919#
	 11941#	 11950#	 11972#	 11981#	 12003#	 12012#	 12034#	 12043#	 12065#	 12074#	 12096#	 12105#	 12127#	 12136#
	 12158#	 12167#	 12189#	 12198#	 12220#	 12229#	 12251#	 12260#	 12282#	 12291#	 12313#	 12322#	 12344#	 12353#
	 12375#	 12384#	 12406#	 12415#	 12455#	 12464#	 12486#	 12495#	 12517#	 12526#	 12548#	 12557#	 12579#	 12588#    SEQ 0360
	 12610#	 12619#	 12641#	 12650#	 12672#	 12681#	 12703#	 12712#	 12734#	 12743#	 12765#	 12774#	 12796#	 12805#
	 12827#	 12836#	 12858#	 12867#	 12889#	 12898#	 12920#	 12929#	 12951#	 12960#	 12982#	 12991#	 13013#	 13022#
	 13044#	 13053#	 13075#	 13084#	 13106#	 13115#	 13137#	 13146#	 13168#	 13177#	 13199#	 13208#	 13230#	 13239#
	 13261#	 13270#	 13292#	 13301#	 13323#	 13332#	 13354#	 13363#	 13385#	 13394#	 13416#	 13425#	 13447#	 13456#
	 13478#	 13487#	 13509#	 13518#	 13540#	 13549#	 13591#	 13600#	 13623#	 13632#	 13655#	 13664#	 13687#	 13696#
	 13719#	 13728#	 13751#	 13760#	 13783#	 13792#	 13815#	 13824#	 13847#	 13856#	 13879#	 13888#	 13911#	 13920#
	 13943#	 13952#	 13975#	 13984#	 14007#	 14016#	 14039#	 14048#	 14071#	 14080#	 14103#	 14112#	 14135#	 14144#
	 14167#	 14176#	 14199#	 14208#	 14231#	 14240#	 14263#	 14272#	 14295#	 14304#	 14327#	 14336#	 14359#	 14368#
	 14391#	 14400#	 14423#	 14432#	 14455#	 14464#	 14487#	 14496#	 14519#	 14528#	 14551#	 14560#	 14583#	 14592#
	 14615#	 14624#	 14647#	 14656#	 14679#	 14688#	 14711#	 14720#	 14762#	 14771#	 14794#	 14803#	 14826#	 14835#
	 14858#	 14867#	 14890#	 14899#	 14922#	 14931#	 14954#	 14963#	 14986#	 14995#	 15018#	 15027#	 15050#	 15059#
	 15082#	 15091#	 15114#	 15123#	 15146#	 15155#	 15178#	 15187#	 15210#	 15219#	 15242#	 15251#	 15274#	 15283#
	 15306#	 15315#	 15338#	 15347#	 15370#	 15379#	 15402#	 15411#	 15434#	 15443#	 15466#	 15475#	 15498#	 15507#
	 15530#	 15539#	 15562#	 15571#	 15594#	 15603#	 15626#	 15635#	 15658#	 15667#	 15690#	 15699#	 15722#	 15731#
	 15754#	 15763#	 15786#	 15795#	 15818#	 15827#	 15850#	 15859#	 15882#	 15891#	 15949#	 15958#	 15987#	 15996#
	 16025#	 16034#	 16063#	 16072#	 16101#	 16110#	 16139#	 16148#	 16177#	 16186#	 16215#	 16224#	 16253#	 16262#
	 16291#	 16300#	 16329#	 16338#	 16367#	 16376#	 16405#	 16414#	 16443#	 16452#	 16481#	 16490#	 16519#	 16528#
	 16557#	 16566#	 16595#	 16604#	 16633#	 16642#	 16671#	 16680#	 16709#	 16718#	 16747#	 16756#	 16785#	 16794#
	 16823#	 16832#	 16861#	 16870#	 16899#	 16908#	 16937#	 16946#	 16975#	 16984#	 17013#	 17022#	 17051#	 17060#
	 17089#	 17098#	 17127#	 17136#	 17165#	 17174#	 17203#	 17212#	 17241#	 17250#	 17272#	 17281#
AFOCLR	   360#
AFODIS	   360#
AFOENB	   360#
AFOV	   360#
ALTMGO	   446#	 17420
AMCLRB	   360#
AMPCLR	   360#
AMPV	   360#
ANXCLR	   360#
ANXM	   360#
AOVCLR	   360#
AOVDIS	   360#
AOVENB	   360#
AOVFLO	   360#
APAREN	   360#
APARER	   360#
APDCLR	   360#
APDLOV	   360#
APR	 17297	 17449
APWRFL	   360#
AR1	   735#	   781#	   810#	   839#	   868#	   897#	   926#	   955#	   984#	  1013#	  1042#	  1071#	  1100#	  1129#
	  1158#	  1187#	  1216#	  1245#	  1274#	  1303#	  1332#	  1361#	  1390#	  1419#	  1448#	  1477#	  1506#	  1535#
	  1564#	  1593#	  1622#	  1651#	  1680#	  1709#	  1738#	  1767#	  1796#	  1841#	  1870#	  1899#	  1928#	  1957#
	  1986#	  2015#	  2044#	  2073#	  2102#	  2131#	  2160#	  2189#	  2218#	  2247#	  2276#	  2305#	  2334#	  2363#
	  2392#	  2421#	  2450#	  2479#	  2508#	  2537#	  2566#	  2595#	  2624#	  2653#	  2682#	  2711#	  2740#	  2769#
	  2798#	  2827#	  2856#	  2889#	  2958#	  2997#	  3036#	  3075#	  3114#	  3153#	  3192#	  3231#	  3270#	  3309#
	  3348#	  3387#	  3426#	  3465#	  3504#	  3543#	  3622#	  3667#	  3712#	  3757#	  3802#	  3847#	  3892#	  3937#
	  3982#	  4027#	  4072#	  4117#	  4162#	  4207#	  4252#	  4297#	  4344#	  4373#	  4402#	  4431#	  4460#	  4489#
	  4518#	  4547#	  4576#	  4605#	  4634#	  4663#	  4692#	  4721#	  4750#	  4779#	  4808#	  4837#	  4866#	  4895#
	  4924#	  4953#	  4982#	  5011#	  5040#	  5069#	  5098#	  5127#	  5156#	  5185#	  5214#	  5243#	  5272#	  5301#
	  5330#	  5359#	  5404#	  5433#	  5462#	  5491#	  5520#	  5549#	  5578#	  5607#	  5636#	  5665#	  5694#	  5723#
	  5752#	  5781#	  5810#	  5839#	  5868#	  5897#	  5926#	  5955#	  5984#	  6013#	  6042#	  6071#	  6100#	  6129#
	  6158#	  6187#	  6216#	  6245#	  6274#	  6303#	  6332#	  6361#	  6390#	  6419#	  6452#	  6504#	  6535#	  6566#    SEQ 0361
	  6597#	  6628#	  6659#	  6690#	  6721#	  6752#	  6783#	  6814#	  6845#	  6876#	  6907#	  6938#	  6969#	  7000#
	  7031#	  7062#	  7093#	  7124#	  7155#	  7186#	  7217#	  7248#	  7279#	  7310#	  7341#	  7372#	  7403#	  7434#
	  7465#	  7496#	  7527#	  7558#	  7589#	  7638#	  7669#	  7700#	  7731#	  7762#	  7793#	  7824#	  7855#	  7886#
	  7917#	  7948#	  7979#	  8010#	  8041#	  8072#	  8103#	  8134#	  8165#	  8196#	  8227#	  8258#	  8289#	  8320#
	  8351#	  8382#	  8413#	  8444#	  8475#	  8506#	  8537#	  8568#	  8599#	  8630#	  8661#	  8692#	  8719#	  8776#
	  8811#	  8846#	  8881#	  8916#	  8951#	  8986#	  9021#	  9056#	  9091#	  9126#	  9161#	  9196#	  9231#	  9266#
	  9301#	  9336#	  9371#	  9406#	  9441#	  9476#	  9511#	  9546#	  9581#	  9616#	  9651#	  9686#	  9721#	  9756#
	  9791#	  9826#	  9861#	  9896#	  9931#	  9966#	 10001#	 10058#	 10093#	 10128#	 10163#	 10198#	 10233#	 10268#
	 10303#	 10338#	 10373#	 10408#	 10443#	 10478#	 10513#	 10548#	 10583#	 10618#	 10653#	 10688#	 10723#	 10758#
	 10793#	 10828#	 10863#	 10898#	 10933#	 10968#	 11003#	 11038#	 11073#	 11108#	 11143#	 11178#	 11213#	 11248#
	 11275#	 11324#	 11355#	 11386#	 11417#	 11448#	 11479#	 11510#	 11541#	 11572#	 11603#	 11634#	 11665#	 11696#
	 11727#	 11758#	 11789#	 11820#	 11851#	 11882#	 11913#	 11944#	 11975#	 12006#	 12037#	 12068#	 12099#	 12130#
	 12161#	 12192#	 12223#	 12254#	 12285#	 12316#	 12347#	 12378#	 12409#	 12458#	 12489#	 12520#	 12551#	 12582#
	 12613#	 12644#	 12675#	 12706#	 12737#	 12768#	 12799#	 12830#	 12861#	 12892#	 12923#	 12954#	 12985#	 13016#
	 13047#	 13078#	 13109#	 13140#	 13171#	 13202#	 13233#	 13264#	 13295#	 13326#	 13357#	 13388#	 13419#	 13450#
	 13481#	 13512#	 13543#	 13594#	 13626#	 13658#	 13690#	 13722#	 13754#	 13786#	 13818#	 13850#	 13882#	 13914#
	 13946#	 13978#	 14010#	 14042#	 14074#	 14106#	 14138#	 14170#	 14202#	 14234#	 14266#	 14298#	 14330#	 14362#
	 14394#	 14426#	 14458#	 14490#	 14522#	 14554#	 14586#	 14618#	 14650#	 14682#	 14714#	 14765#	 14797#	 14829#
	 14861#	 14893#	 14925#	 14957#	 14989#	 15021#	 15053#	 15085#	 15117#	 15149#	 15181#	 15213#	 15245#	 15277#
	 15309#	 15341#	 15373#	 15405#	 15437#	 15469#	 15501#	 15533#	 15565#	 15597#	 15629#	 15661#	 15693#	 15725#
	 15757#	 15789#	 15821#	 15853#	 15885#	 15952#	 15990#	 16028#	 16066#	 16104#	 16142#	 16180#	 16218#	 16256#
	 16294#	 16332#	 16370#	 16408#	 16446#	 16484#	 16522#	 16560#	 16598#	 16636#	 16674#	 16712#	 16750#	 16788#
	 16826#	 16864#	 16902#	 16940#	 16978#	 17016#	 17054#	 17092#	 17130#	 17168#	 17206#	 17244#	 17275#
AR2	   738#	   784#	   813#	   842#	   871#	   900#	   929#	   958#	   987#	  1016#	  1045#	  1074#	  1103#	  1132#
	  1161#	  1190#	  1219#	  1248#	  1277#	  1306#	  1335#	  1364#	  1393#	  1422#	  1451#	  1480#	  1509#	  1538#
	  1567#	  1596#	  1625#	  1654#	  1683#	  1712#	  1741#	  1770#	  1799#	  1844#	  1873#	  1902#	  1931#	  1960#
	  1989#	  2018#	  2047#	  2076#	  2105#	  2134#	  2163#	  2192#	  2221#	  2250#	  2279#	  2308#	  2337#	  2366#
	  2395#	  2424#	  2453#	  2482#	  2511#	  2540#	  2569#	  2598#	  2627#	  2656#	  2685#	  2714#	  2743#	  2772#
	  2801#	  2830#	  2859#	  2892#	  2961#	  3000#	  3039#	  3078#	  3117#	  3156#	  3195#	  3234#	  3273#	  3312#
	  3351#	  3390#	  3429#	  3468#	  3507#	  3546#	  3625#	  3670#	  3715#	  3760#	  3805#	  3850#	  3895#	  3940#
	  3985#	  4030#	  4075#	  4120#	  4165#	  4210#	  4255#	  4300#	  4347#	  4376#	  4405#	  4434#	  4463#	  4492#
	  4521#	  4550#	  4579#	  4608#	  4637#	  4666#	  4695#	  4724#	  4753#	  4782#	  4811#	  4840#	  4869#	  4898#
	  4927#	  4956#	  4985#	  5014#	  5043#	  5072#	  5101#	  5130#	  5159#	  5188#	  5217#	  5246#	  5275#	  5304#
	  5333#	  5362#	  5407#	  5436#	  5465#	  5494#	  5523#	  5552#	  5581#	  5610#	  5639#	  5668#	  5697#	  5726#
	  5755#	  5784#	  5813#	  5842#	  5871#	  5900#	  5929#	  5958#	  5987#	  6016#	  6045#	  6074#	  6103#	  6132#
	  6161#	  6190#	  6219#	  6248#	  6277#	  6306#	  6335#	  6364#	  6393#	  6422#	  6455#	  6507#	  6538#	  6569#
	  6600#	  6631#	  6662#	  6693#	  6724#	  6755#	  6786#	  6817#	  6848#	  6879#	  6910#	  6941#	  6972#	  7003#
	  7034#	  7065#	  7096#	  7127#	  7158#	  7189#	  7220#	  7251#	  7282#	  7313#	  7344#	  7375#	  7406#	  7437#
	  7468#	  7499#	  7530#	  7561#	  7592#	  7641#	  7672#	  7703#	  7734#	  7765#	  7796#	  7827#	  7858#	  7889#
	  7920#	  7951#	  7982#	  8013#	  8044#	  8075#	  8106#	  8137#	  8168#	  8199#	  8230#	  8261#	  8292#	  8323#
	  8354#	  8385#	  8416#	  8447#	  8478#	  8509#	  8540#	  8571#	  8602#	  8633#	  8664#	  8695#	  8722#	  8779#
	  8814#	  8849#	  8884#	  8919#	  8954#	  8989#	  9024#	  9059#	  9094#	  9129#	  9164#	  9199#	  9234#	  9269#
	  9304#	  9339#	  9374#	  9409#	  9444#	  9479#	  9514#	  9549#	  9584#	  9619#	  9654#	  9689#	  9724#	  9759#
	  9794#	  9829#	  9864#	  9899#	  9934#	  9969#	 10004#	 10061#	 10096#	 10131#	 10166#	 10201#	 10236#	 10271#
	 10306#	 10341#	 10376#	 10411#	 10446#	 10481#	 10516#	 10551#	 10586#	 10621#	 10656#	 10691#	 10726#	 10761#
	 10796#	 10831#	 10866#	 10901#	 10936#	 10971#	 11006#	 11041#	 11076#	 11111#	 11146#	 11181#	 11216#	 11251#
	 11278#	 11327#	 11358#	 11389#	 11420#	 11451#	 11482#	 11513#	 11544#	 11575#	 11606#	 11637#	 11668#	 11699#
	 11730#	 11761#	 11792#	 11823#	 11854#	 11885#	 11916#	 11947#	 11978#	 12009#	 12040#	 12071#	 12102#	 12133#
	 12164#	 12195#	 12226#	 12257#	 12288#	 12319#	 12350#	 12381#	 12412#	 12461#	 12492#	 12523#	 12554#	 12585#
	 12616#	 12647#	 12678#	 12709#	 12740#	 12771#	 12802#	 12833#	 12864#	 12895#	 12926#	 12957#	 12988#	 13019#
	 13050#	 13081#	 13112#	 13143#	 13174#	 13205#	 13236#	 13267#	 13298#	 13329#	 13360#	 13391#	 13422#	 13453#
	 13484#	 13515#	 13546#	 13597#	 13629#	 13661#	 13693#	 13725#	 13757#	 13789#	 13821#	 13853#	 13885#	 13917#
	 13949#	 13981#	 14013#	 14045#	 14077#	 14109#	 14141#	 14173#	 14205#	 14237#	 14269#	 14301#	 14333#	 14365#    SEQ 0362
	 14397#	 14429#	 14461#	 14493#	 14525#	 14557#	 14589#	 14621#	 14653#	 14685#	 14717#	 14768#	 14800#	 14832#
	 14864#	 14896#	 14928#	 14960#	 14992#	 15024#	 15056#	 15088#	 15120#	 15152#	 15184#	 15216#	 15248#	 15280#
	 15312#	 15344#	 15376#	 15408#	 15440#	 15472#	 15504#	 15536#	 15568#	 15600#	 15632#	 15664#	 15696#	 15728#
	 15760#	 15792#	 15824#	 15856#	 15888#	 15955#	 15993#	 16031#	 16069#	 16107#	 16145#	 16183#	 16221#	 16259#
	 16297#	 16335#	 16373#	 16411#	 16449#	 16487#	 16525#	 16563#	 16601#	 16639#	 16677#	 16715#	 16753#	 16791#
	 16829#	 16867#	 16905#	 16943#	 16981#	 17019#	 17057#	 17095#	 17133#	 17171#	 17209#	 17247#	 17278#
AROV	   360#
AROVTP	   360#
AROVU	   360#
AST	   561#
ATRPOS	   360#
ATSIN	   562#
AUSRIO	   360#
BEGEND	   442#	 17285
BEGIN	    68	    69	    70	    71	    72	    73	    74	    75	    76	    77	    78	   345	   346	   373#
	 17739
BEGIN1	   389#	   443
BELL	   565#
BIS	   360#
CCA	   360#
CHAIN	   151#
CHNOFF	   360#
CHNON	   360#
CLK	   360#
CLKCLR	   360#
CLKDIS	   360#
CLKENB	   360#
CLKU	   360#
CLOCKF	   428#
CNTLC	   445#
CNTRP	   360#
COMMA	   554#
CONSW	   429#	 17354	 17421	 17452
CPOPJ	   449#
CPOPJ1	   447#
CRLF	   280	   281	   549#
CRLF2	   284	   285	   551#
CRY0	   360#
CRY1	   360#
CSHFLG	   608#
CSHMEM	   609#
CTRP	   360#
CYCL60	   602#
DCK	   360#
DDTLNK	   165#	   387
DDTSRT	   387#
DEBUG	    57#	 17730	 17731
DECVER	     4#	    11	    25	   408
DF22F	   513#
DIAGMN	   376#
DING	   137#	 17426
DOLLAR	   568#
DSKUPD	   413                                                                                                             SEQ 0363
E	   713#	   733	   734	   742	   743	   747#	   779	   780	   788	   789	   808	   809	   817	   818
	   837	   838	   846	   847	   866	   867	   875	   876	   895	   896	   904	   905	   924	   925
	   933	   934	   953	   954	   962	   963	   982	   983	   991	   992	  1011	  1012	  1020	  1021
	  1040	  1041	  1049	  1050	  1069	  1070	  1078	  1079	  1098	  1099	  1107	  1108	  1127	  1128
	  1136	  1137	  1156	  1157	  1165	  1166	  1185	  1186	  1194	  1195	  1214	  1215	  1223	  1224
	  1243	  1244	  1252	  1253	  1272	  1273	  1281	  1282	  1301	  1302	  1310	  1311	  1330	  1331
	  1339	  1340	  1359	  1360	  1368	  1369	  1388	  1389	  1397	  1398	  1417	  1418	  1426	  1427
	  1446	  1447	  1455	  1456	  1475	  1476	  1484	  1485	  1504	  1505	  1513	  1514	  1533	  1534
	  1542	  1543	  1562	  1563	  1571	  1572	  1591	  1592	  1600	  1601	  1620	  1621	  1629	  1630
	  1649	  1650	  1658	  1659	  1678	  1679	  1687	  1688	  1707	  1708	  1716	  1717	  1736	  1737
	  1745	  1746	  1765	  1766	  1774	  1775	  1794	  1795	  1803	  1804	  1807#	  1839	  1840	  1848
	  1849	  1868	  1869	  1877	  1878	  1897	  1898	  1906	  1907	  1926	  1927	  1935	  1936	  1955
	  1956	  1964	  1965	  1984	  1985	  1993	  1994	  2013	  2014	  2022	  2023	  2042	  2043	  2051
	  2052	  2071	  2072	  2080	  2081	  2100	  2101	  2109	  2110	  2129	  2130	  2138	  2139	  2158
	  2159	  2167	  2168	  2187	  2188	  2196	  2197	  2216	  2217	  2225	  2226	  2245	  2246	  2254
	  2255	  2274	  2275	  2283	  2284	  2303	  2304	  2312	  2313	  2332	  2333	  2341	  2342	  2361
	  2362	  2370	  2371	  2390	  2391	  2399	  2400	  2419	  2420	  2428	  2429	  2448	  2449	  2457
	  2458	  2477	  2478	  2486	  2487	  2506	  2507	  2515	  2516	  2535	  2536	  2544	  2545	  2564
	  2565	  2573	  2574	  2593	  2594	  2602	  2603	  2622	  2623	  2631	  2632	  2651	  2652	  2660
	  2661	  2680	  2681	  2689	  2690	  2709	  2710	  2718	  2719	  2738	  2739	  2747	  2748	  2767
	  2768	  2776	  2777	  2796	  2797	  2805	  2806	  2825	  2826	  2834	  2835	  2854	  2855	  2863
	  2864	  2868#	  2887	  2888	  2896	  2897	  2902#	  2956	  2957	  2965	  2966	  2995	  2996	  3004
	  3005	  3034	  3035	  3043	  3044	  3073	  3074	  3082	  3083	  3112	  3113	  3121	  3122	  3151
	  3152	  3160	  3161	  3190	  3191	  3199	  3200	  3229	  3230	  3238	  3239	  3268	  3269	  3277
	  3278	  3307	  3308	  3316	  3317	  3346	  3347	  3355	  3356	  3385	  3386	  3394	  3395	  3424
	  3425	  3433	  3434	  3463	  3464	  3472	  3473	  3502	  3503	  3511	  3512	  3541	  3542	  3550
	  3551	  3554#	  3620	  3621	  3629	  3630	  3665	  3666	  3674	  3675	  3710	  3711	  3719	  3720
	  3755	  3756	  3764	  3765	  3800	  3801	  3809	  3810	  3845	  3846	  3854	  3855	  3890	  3891
	  3899	  3900	  3935	  3936	  3944	  3945	  3980	  3981	  3989	  3990	  4025	  4026	  4034	  4035
	  4070	  4071	  4079	  4080	  4115	  4116	  4124	  4125	  4160	  4161	  4169	  4170	  4205	  4206
	  4214	  4215	  4250	  4251	  4259	  4260	  4295	  4296	  4304	  4305	  4310#	  4342	  4343	  4351
	  4352	  4371	  4372	  4380	  4381	  4400	  4401	  4409	  4410	  4429	  4430	  4438	  4439	  4458
	  4459	  4467	  4468	  4487	  4488	  4496	  4497	  4516	  4517	  4525	  4526	  4545	  4546	  4554
	  4555	  4574	  4575	  4583	  4584	  4603	  4604	  4612	  4613	  4632	  4633	  4641	  4642	  4661
	  4662	  4670	  4671	  4690	  4691	  4699	  4700	  4719	  4720	  4728	  4729	  4748	  4749	  4757
	  4758	  4777	  4778	  4786	  4787	  4806	  4807	  4815	  4816	  4835	  4836	  4844	  4845	  4864
	  4865	  4873	  4874	  4893	  4894	  4902	  4903	  4922	  4923	  4931	  4932	  4951	  4952	  4960
	  4961	  4980	  4981	  4989	  4990	  5009	  5010	  5018	  5019	  5038	  5039	  5047	  5048	  5067
	  5068	  5076	  5077	  5096	  5097	  5105	  5106	  5125	  5126	  5134	  5135	  5154	  5155	  5163
	  5164	  5183	  5184	  5192	  5193	  5212	  5213	  5221	  5222	  5241	  5242	  5250	  5251	  5270
	  5271	  5279	  5280	  5299	  5300	  5308	  5309	  5328	  5329	  5337	  5338	  5357	  5358	  5366
	  5367	  5370#	  5402	  5403	  5411	  5412	  5431	  5432	  5440	  5441	  5460	  5461	  5469	  5470
	  5489	  5490	  5498	  5499	  5518	  5519	  5527	  5528	  5547	  5548	  5556	  5557	  5576	  5577
	  5585	  5586	  5605	  5606	  5614	  5615	  5634	  5635	  5643	  5644	  5663	  5664	  5672	  5673
	  5692	  5693	  5701	  5702	  5721	  5722	  5730	  5731	  5750	  5751	  5759	  5760	  5779	  5780
	  5788	  5789	  5808	  5809	  5817	  5818	  5837	  5838	  5846	  5847	  5866	  5867	  5875	  5876
	  5895	  5896	  5904	  5905	  5924	  5925	  5933	  5934	  5953	  5954	  5962	  5963	  5982	  5983
	  5991	  5992	  6011	  6012	  6020	  6021	  6040	  6041	  6049	  6050	  6069	  6070	  6078	  6079
	  6098	  6099	  6107	  6108	  6127	  6128	  6136	  6137	  6156	  6157	  6165	  6166	  6185	  6186
	  6194	  6195	  6214	  6215	  6223	  6224	  6243	  6244	  6252	  6253	  6272	  6273	  6281	  6282
	  6301	  6302	  6310	  6311	  6330	  6331	  6339	  6340	  6359	  6360	  6368	  6369	  6388	  6389
	  6397	  6398	  6417	  6418	  6426	  6427	  6430#	  6450	  6451	  6459	  6460	  6465#	  6502	  6503
	  6511	  6512	  6533	  6534	  6542	  6543	  6564	  6565	  6573	  6574	  6595	  6596	  6604	  6605     SEQ 0364
	  6626	  6627	  6635	  6636	  6657	  6658	  6666	  6667	  6688	  6689	  6697	  6698	  6719	  6720
	  6728	  6729	  6750	  6751	  6759	  6760	  6781	  6782	  6790	  6791	  6812	  6813	  6821	  6822
	  6843	  6844	  6852	  6853	  6874	  6875	  6883	  6884	  6905	  6906	  6914	  6915	  6936	  6937
	  6945	  6946	  6967	  6968	  6976	  6977	  6998	  6999	  7007	  7008	  7029	  7030	  7038	  7039
	  7060	  7061	  7069	  7070	  7091	  7092	  7100	  7101	  7122	  7123	  7131	  7132	  7153	  7154
	  7162	  7163	  7184	  7185	  7193	  7194	  7215	  7216	  7224	  7225	  7246	  7247	  7255	  7256
	  7277	  7278	  7286	  7287	  7308	  7309	  7317	  7318	  7339	  7340	  7348	  7349	  7370	  7371
	  7379	  7380	  7401	  7402	  7410	  7411	  7432	  7433	  7441	  7442	  7463	  7464	  7472	  7473
	  7494	  7495	  7503	  7504	  7525	  7526	  7534	  7535	  7556	  7557	  7565	  7566	  7587	  7588
	  7596	  7597	  7600#	  7636	  7637	  7645	  7646	  7667	  7668	  7676	  7677	  7698	  7699	  7707
	  7708	  7729	  7730	  7738	  7739	  7760	  7761	  7769	  7770	  7791	  7792	  7800	  7801	  7822
	  7823	  7831	  7832	  7853	  7854	  7862	  7863	  7884	  7885	  7893	  7894	  7915	  7916	  7924
	  7925	  7946	  7947	  7955	  7956	  7977	  7978	  7986	  7987	  8008	  8009	  8017	  8018	  8039
	  8040	  8048	  8049	  8070	  8071	  8079	  8080	  8101	  8102	  8110	  8111	  8132	  8133	  8141
	  8142	  8163	  8164	  8172	  8173	  8194	  8195	  8203	  8204	  8225	  8226	  8234	  8235	  8256
	  8257	  8265	  8266	  8287	  8288	  8296	  8297	  8318	  8319	  8327	  8328	  8349	  8350	  8358
	  8359	  8380	  8381	  8389	  8390	  8411	  8412	  8420	  8421	  8442	  8443	  8451	  8452	  8473
	  8474	  8482	  8483	  8504	  8505	  8513	  8514	  8535	  8536	  8544	  8545	  8566	  8567	  8575
	  8576	  8597	  8598	  8606	  8607	  8628	  8629	  8637	  8638	  8659	  8660	  8668	  8669	  8690
	  8691	  8699	  8700	  8717	  8718	  8726	  8727	  8730#	  8774	  8775	  8783	  8784	  8809	  8810
	  8818	  8819	  8844	  8845	  8853	  8854	  8879	  8880	  8888	  8889	  8914	  8915	  8923	  8924
	  8949	  8950	  8958	  8959	  8984	  8985	  8993	  8994	  9019	  9020	  9028	  9029	  9054	  9055
	  9063	  9064	  9089	  9090	  9098	  9099	  9124	  9125	  9133	  9134	  9159	  9160	  9168	  9169
	  9194	  9195	  9203	  9204	  9229	  9230	  9238	  9239	  9264	  9265	  9273	  9274	  9299	  9300
	  9308	  9309	  9334	  9335	  9343	  9344	  9369	  9370	  9378	  9379	  9404	  9405	  9413	  9414
	  9439	  9440	  9448	  9449	  9474	  9475	  9483	  9484	  9509	  9510	  9518	  9519	  9544	  9545
	  9553	  9554	  9579	  9580	  9588	  9589	  9614	  9615	  9623	  9624	  9649	  9650	  9658	  9659
	  9684	  9685	  9693	  9694	  9719	  9720	  9728	  9729	  9754	  9755	  9763	  9764	  9789	  9790
	  9798	  9799	  9824	  9825	  9833	  9834	  9859	  9860	  9868	  9869	  9894	  9895	  9903	  9904
	  9929	  9930	  9938	  9939	  9964	  9965	  9973	  9974	  9999	 10000	 10008	 10009	 10012#	 10056
	 10057	 10065	 10066	 10091	 10092	 10100	 10101	 10126	 10127	 10135	 10136	 10161	 10162	 10170
	 10171	 10196	 10197	 10205	 10206	 10231	 10232	 10240	 10241	 10266	 10267	 10275	 10276	 10301
	 10302	 10310	 10311	 10336	 10337	 10345	 10346	 10371	 10372	 10380	 10381	 10406	 10407	 10415
	 10416	 10441	 10442	 10450	 10451	 10476	 10477	 10485	 10486	 10511	 10512	 10520	 10521	 10546
	 10547	 10555	 10556	 10581	 10582	 10590	 10591	 10616	 10617	 10625	 10626	 10651	 10652	 10660
	 10661	 10686	 10687	 10695	 10696	 10721	 10722	 10730	 10731	 10756	 10757	 10765	 10766	 10791
	 10792	 10800	 10801	 10826	 10827	 10835	 10836	 10861	 10862	 10870	 10871	 10896	 10897	 10905
	 10906	 10931	 10932	 10940	 10941	 10966	 10967	 10975	 10976	 11001	 11002	 11010	 11011	 11036
	 11037	 11045	 11046	 11071	 11072	 11080	 11081	 11106	 11107	 11115	 11116	 11141	 11142	 11150
	 11151	 11176	 11177	 11185	 11186	 11211	 11212	 11220	 11221	 11246	 11247	 11255	 11256	 11273
	 11274	 11282	 11283	 11286#	 11322	 11323	 11331	 11332	 11353	 11354	 11362	 11363	 11384	 11385
	 11393	 11394	 11415	 11416	 11424	 11425	 11446	 11447	 11455	 11456	 11477	 11478	 11486	 11487
	 11508	 11509	 11517	 11518	 11539	 11540	 11548	 11549	 11570	 11571	 11579	 11580	 11601	 11602
	 11610	 11611	 11632	 11633	 11641	 11642	 11663	 11664	 11672	 11673	 11694	 11695	 11703	 11704
	 11725	 11726	 11734	 11735	 11756	 11757	 11765	 11766	 11787	 11788	 11796	 11797	 11818	 11819
	 11827	 11828	 11849	 11850	 11858	 11859	 11880	 11881	 11889	 11890	 11911	 11912	 11920	 11921
	 11942	 11943	 11951	 11952	 11973	 11974	 11982	 11983	 12004	 12005	 12013	 12014	 12035	 12036
	 12044	 12045	 12066	 12067	 12075	 12076	 12097	 12098	 12106	 12107	 12128	 12129	 12137	 12138
	 12159	 12160	 12168	 12169	 12190	 12191	 12199	 12200	 12221	 12222	 12230	 12231	 12252	 12253
	 12261	 12262	 12283	 12284	 12292	 12293	 12314	 12315	 12323	 12324	 12345	 12346	 12354	 12355
	 12376	 12377	 12385	 12386	 12407	 12408	 12416	 12417	 12420#	 12456	 12457	 12465	 12466	 12487
	 12488	 12496	 12497	 12518	 12519	 12527	 12528	 12549	 12550	 12558	 12559	 12580	 12581	 12589
	 12590	 12611	 12612	 12620	 12621	 12642	 12643	 12651	 12652	 12673	 12674	 12682	 12683	 12704     SEQ 0365
	 12705	 12713	 12714	 12735	 12736	 12744	 12745	 12766	 12767	 12775	 12776	 12797	 12798	 12806
	 12807	 12828	 12829	 12837	 12838	 12859	 12860	 12868	 12869	 12890	 12891	 12899	 12900	 12921
	 12922	 12930	 12931	 12952	 12953	 12961	 12962	 12983	 12984	 12992	 12993	 13014	 13015	 13023
	 13024	 13045	 13046	 13054	 13055	 13076	 13077	 13085	 13086	 13107	 13108	 13116	 13117	 13138
	 13139	 13147	 13148	 13169	 13170	 13178	 13179	 13200	 13201	 13209	 13210	 13231	 13232	 13240
	 13241	 13262	 13263	 13271	 13272	 13293	 13294	 13302	 13303	 13324	 13325	 13333	 13334	 13355
	 13356	 13364	 13365	 13386	 13387	 13395	 13396	 13417	 13418	 13426	 13427	 13448	 13449	 13457
	 13458	 13479	 13480	 13488	 13489	 13510	 13511	 13519	 13520	 13541	 13542	 13550	 13551	 13554#
	 13592	 13593	 13601	 13602	 13624	 13625	 13633	 13634	 13656	 13657	 13665	 13666	 13688	 13689
	 13697	 13698	 13720	 13721	 13729	 13730	 13752	 13753	 13761	 13762	 13784	 13785	 13793	 13794
	 13816	 13817	 13825	 13826	 13848	 13849	 13857	 13858	 13880	 13881	 13889	 13890	 13912	 13913
	 13921	 13922	 13944	 13945	 13953	 13954	 13976	 13977	 13985	 13986	 14008	 14009	 14017	 14018
	 14040	 14041	 14049	 14050	 14072	 14073	 14081	 14082	 14104	 14105	 14113	 14114	 14136	 14137
	 14145	 14146	 14168	 14169	 14177	 14178	 14200	 14201	 14209	 14210	 14232	 14233	 14241	 14242
	 14264	 14265	 14273	 14274	 14296	 14297	 14305	 14306	 14328	 14329	 14337	 14338	 14360	 14361
	 14369	 14370	 14392	 14393	 14401	 14402	 14424	 14425	 14433	 14434	 14456	 14457	 14465	 14466
	 14488	 14489	 14497	 14498	 14520	 14521	 14529	 14530	 14552	 14553	 14561	 14562	 14584	 14585
	 14593	 14594	 14616	 14617	 14625	 14626	 14648	 14649	 14657	 14658	 14680	 14681	 14689	 14690
	 14712	 14713	 14721	 14722	 14725#	 14763	 14764	 14772	 14773	 14795	 14796	 14804	 14805	 14827
	 14828	 14836	 14837	 14859	 14860	 14868	 14869	 14891	 14892	 14900	 14901	 14923	 14924	 14932
	 14933	 14955	 14956	 14964	 14965	 14987	 14988	 14996	 14997	 15019	 15020	 15028	 15029	 15051
	 15052	 15060	 15061	 15083	 15084	 15092	 15093	 15115	 15116	 15124	 15125	 15147	 15148	 15156
	 15157	 15179	 15180	 15188	 15189	 15211	 15212	 15220	 15221	 15243	 15244	 15252	 15253	 15275
	 15276	 15284	 15285	 15307	 15308	 15316	 15317	 15339	 15340	 15348	 15349	 15371	 15372	 15380
	 15381	 15403	 15404	 15412	 15413	 15435	 15436	 15444	 15445	 15467	 15468	 15476	 15477	 15499
	 15500	 15508	 15509	 15531	 15532	 15540	 15541	 15563	 15564	 15572	 15573	 15595	 15596	 15604
	 15605	 15627	 15628	 15636	 15637	 15659	 15660	 15668	 15669	 15691	 15692	 15700	 15701	 15723
	 15724	 15732	 15733	 15755	 15756	 15764	 15765	 15787	 15788	 15796	 15797	 15819	 15820	 15828
	 15829	 15851	 15852	 15860	 15861	 15883	 15884	 15892	 15893	 15898#	 15950	 15951	 15959	 15960
	 15988	 15989	 15997	 15998	 16026	 16027	 16035	 16036	 16064	 16065	 16073	 16074	 16102	 16103
	 16111	 16112	 16140	 16141	 16149	 16150	 16178	 16179	 16187	 16188	 16216	 16217	 16225	 16226
	 16254	 16255	 16263	 16264	 16292	 16293	 16301	 16302	 16330	 16331	 16339	 16340	 16368	 16369
	 16377	 16378	 16406	 16407	 16415	 16416	 16444	 16445	 16453	 16454	 16482	 16483	 16491	 16492
	 16520	 16521	 16529	 16530	 16558	 16559	 16567	 16568	 16596	 16597	 16605	 16606	 16634	 16635
	 16643	 16644	 16672	 16673	 16681	 16682	 16710	 16711	 16719	 16720	 16748	 16749	 16757	 16758
	 16786	 16787	 16795	 16796	 16824	 16825	 16833	 16834	 16862	 16863	 16871	 16872	 16900	 16901
	 16909	 16910	 16938	 16939	 16947	 16948	 16976	 16977	 16985	 16986	 17014	 17015	 17023	 17024
	 17052	 17053	 17061	 17062	 17090	 17091	 17099	 17100	 17128	 17129	 17137	 17138	 17166	 17167
	 17175	 17176	 17204	 17205	 17213	 17214	 17242	 17243	 17251	 17252	 17273	 17274	 17282	 17283
END	 17738#
ENDFIX	   682#
ENDSLD	 17728#
ERDIAG	    64#	 17339
ERMORE	   462#	 17412
ERRELB	 17409
ERRLOP	   719#	   719	   752#	   752	  1812#	  1812	  2873#	  2873	  2907#	  2907	  3559#	  3559	  4315#	  4315
	  5375#	  5375	  6435#	  6435	  6470#	  6470	  7605#	  7605	  8735#	  8735	 10017#	 10017	 11291#	 11291
	 12425#	 12425	 13559#	 13559	 14730#	 14730	 15903#	 15903	 17319	 17431	 17434	 17435
ERRMES	    44	    45	    46	    47	    48	    49	    50	    51	    52	    53	    54	 17290#
ERRPC	   433#	 17302	 17336
ERRTLS	   434#	 17300	 17438
ERSTOP	   140#	 17422
EXCASB	    58#	   411	 17291	 17443                                                                                     SEQ 0366
EXCMEM	   360#
EXCPFW	   360#
EXIOT	   360#
EXIT	   685#	   686
F00	   708	   715#
F30000	   728#	   744
F30010	   774#	   790
F30020	   803#	   819
F30030	   832#	   848
F30040	   861#	   877
F30050	   890#	   906
F30060	   919#	   935
F30070	   948#	   964
F30100	   977#	   993
F30110	  1006#	  1022
F30120	  1035#	  1051
F30130	  1064#	  1080
F30140	  1093#	  1109
F30150	  1122#	  1138
F30160	  1151#	  1167
F30170	  1180#	  1196
F30200	  1209#	  1225
F30210	  1238#	  1254
F30220	  1267#	  1283
F30230	  1296#	  1312
F30240	  1325#	  1341
F30250	  1354#	  1370
F30260	  1383#	  1399
F30270	  1412#	  1428
F30300	  1441#	  1457
F30310	  1470#	  1486
F30320	  1499#	  1515
F30330	  1528#	  1544
F30340	  1557#	  1573
F30350	  1586#	  1602
F30360	  1615#	  1631
F30370	  1644#	  1660
F30400	  1673#	  1689
F30410	  1702#	  1718
F30420	  1731#	  1747
F30430	  1760#	  1776
F30440	  1789#	  1805
F30450	  1834#	  1850
F30460	  1863#	  1879
F30470	  1892#	  1908
F30500	  1921#	  1937
F30510	  1950#	  1966
F30520	  1979#	  1995
F30530	  2008#	  2024
F30540	  2037#	  2053
F30550	  2066#	  2082
F30560	  2095#	  2111
F30570	  2124#	  2140                                                                                                     SEQ 0367
F30600	  2153#	  2169
F30610	  2182#	  2198
F30620	  2211#	  2227
F30630	  2240#	  2256
F30640	  2269#	  2285
F30650	  2298#	  2314
F30660	  2327#	  2343
F30670	  2356#	  2372
F30700	  2385#	  2401
F30710	  2414#	  2430
F30720	  2443#	  2459
F30730	  2472#	  2488
F30740	  2501#	  2517
F30750	  2530#	  2546
F30760	  2559#	  2575
F30770	  2588#	  2604
F31000	  2617#	  2633
F31010	  2646#	  2662
F31020	  2675#	  2691
F31030	  2704#	  2720
F31040	  2733#	  2749
F31050	  2762#	  2778
F31060	  2791#	  2807
F31070	  2820#	  2836
F31100	  2849#	  2865
F31110	  2882#	  2898
F31120	  2951#	  2967
F31130	  2990#	  3006
F31140	  3029#	  3045
F31150	  3068#	  3084
F31160	  3107#	  3123
F31170	  3146#	  3162
F31200	  3185#	  3201
F31210	  3224#	  3240
F31220	  3263#	  3279
F31230	  3302#	  3318
F31240	  3341#	  3357
F31250	  3380#	  3396
F31260	  3419#	  3435
F31270	  3458#	  3474
F31300	  3497#	  3513
F31310	  3536#	  3552
F31320	  3615#	  3631
F31330	  3660#	  3676
F31340	  3705#	  3721
F31350	  3750#	  3766
F31360	  3795#	  3811
F31370	  3840#	  3856
F31400	  3885#	  3901
F31410	  3930#	  3946
F31420	  3975#	  3991
F31430	  4020#	  4036
F31440	  4065#	  4081                                                                                                     SEQ 0368
F31450	  4110#	  4126
F31460	  4155#	  4171
F31470	  4200#	  4216
F31500	  4245#	  4261
F31510	  4290#	  4306
F31520	  4337#	  4353
F31530	  4366#	  4382
F31540	  4395#	  4411
F31550	  4424#	  4440
F31560	  4453#	  4469
F31570	  4482#	  4498
F31600	  4511#	  4527
F31610	  4540#	  4556
F31620	  4569#	  4585
F31630	  4598#	  4614
F31640	  4627#	  4643
F31650	  4656#	  4672
F31660	  4685#	  4701
F31670	  4714#	  4730
F31700	  4743#	  4759
F31710	  4772#	  4788
F31720	  4801#	  4817
F31730	  4830#	  4846
F31740	  4859#	  4875
F31750	  4888#	  4904
F31760	  4917#	  4933
F31770	  4946#	  4962
F32000	  4975#	  4991
F32010	  5004#	  5020
F32020	  5033#	  5049
F32030	  5062#	  5078
F32040	  5091#	  5107
F32050	  5120#	  5136
F32060	  5149#	  5165
F32070	  5178#	  5194
F32100	  5207#	  5223
F32110	  5236#	  5252
F32120	  5265#	  5281
F32130	  5294#	  5310
F32140	  5323#	  5339
F32150	  5352#	  5368
F32160	  5397#	  5413
F32170	  5426#	  5442
F32200	  5455#	  5471
F32210	  5484#	  5500
F32220	  5513#	  5529
F32230	  5542#	  5558
F32240	  5571#	  5587
F32250	  5600#	  5616
F32260	  5629#	  5645
F32270	  5658#	  5674
F32300	  5687#	  5703
F32310	  5716#	  5732                                                                                                     SEQ 0369
F32320	  5745#	  5761
F32330	  5774#	  5790
F32340	  5803#	  5819
F32350	  5832#	  5848
F32360	  5861#	  5877
F32370	  5890#	  5906
F32400	  5919#	  5935
F32410	  5948#	  5964
F32420	  5977#	  5993
F32430	  6006#	  6022
F32440	  6035#	  6051
F32450	  6064#	  6080
F32460	  6093#	  6109
F32470	  6122#	  6138
F32500	  6151#	  6167
F32510	  6180#	  6196
F32520	  6209#	  6225
F32530	  6238#	  6254
F32540	  6267#	  6283
F32550	  6296#	  6312
F32560	  6325#	  6341
F32570	  6354#	  6370
F32600	  6383#	  6399
F32610	  6412#	  6428
F32620	  6445#	  6461
F32630	  6497#	  6513
F32640	  6528#	  6544
F32650	  6559#	  6575
F32660	  6590#	  6606
F32670	  6621#	  6637
F32700	  6652#	  6668
F32710	  6683#	  6699
F32720	  6714#	  6730
F32730	  6745#	  6761
F32740	  6776#	  6792
F32750	  6807#	  6823
F32760	  6838#	  6854
F32770	  6869#	  6885
F33000	  6900#	  6916
F33010	  6931#	  6947
F33020	  6962#	  6978
F33030	  6993#	  7009
F33040	  7024#	  7040
F33050	  7055#	  7071
F33060	  7086#	  7102
F33070	  7117#	  7133
F33100	  7148#	  7164
F33110	  7179#	  7195
F33120	  7210#	  7226
F33130	  7241#	  7257
F33140	  7272#	  7288
F33150	  7303#	  7319
F33160	  7334#	  7350                                                                                                     SEQ 0370
F33170	  7365#	  7381
F33200	  7396#	  7412
F33210	  7427#	  7443
F33220	  7458#	  7474
F33230	  7489#	  7505
F33240	  7520#	  7536
F33250	  7551#	  7567
F33260	  7582#	  7598
F33270	  7631#	  7647
F33300	  7662#	  7678
F33310	  7693#	  7709
F33320	  7724#	  7740
F33330	  7755#	  7771
F33340	  7786#	  7802
F33350	  7817#	  7833
F33360	  7848#	  7864
F33370	  7879#	  7895
F33400	  7910#	  7926
F33410	  7941#	  7957
F33420	  7972#	  7988
F33430	  8003#	  8019
F33440	  8034#	  8050
F33450	  8065#	  8081
F33460	  8096#	  8112
F33470	  8127#	  8143
F33500	  8158#	  8174
F33510	  8189#	  8205
F33520	  8220#	  8236
F33530	  8251#	  8267
F33540	  8282#	  8298
F33550	  8313#	  8329
F33560	  8344#	  8360
F33570	  8375#	  8391
F33600	  8406#	  8422
F33610	  8437#	  8453
F33620	  8468#	  8484
F33630	  8499#	  8515
F33640	  8530#	  8546
F33650	  8561#	  8577
F33660	  8592#	  8608
F33670	  8623#	  8639
F33700	  8654#	  8670
F33710	  8685#	  8701
F33720	  8712#	  8728
F33730	  8769#	  8785
F33740	  8804#	  8820
F33750	  8839#	  8855
F33760	  8874#	  8890
F33770	  8909#	  8925
F34000	  8944#	  8960
F34010	  8979#	  8995
F34020	  9014#	  9030
F34030	  9049#	  9065                                                                                                     SEQ 0371
F34040	  9084#	  9100
F34050	  9119#	  9135
F34060	  9154#	  9170
F34070	  9189#	  9205
F34100	  9224#	  9240
F34110	  9259#	  9275
F34120	  9294#	  9310
F34130	  9329#	  9345
F34140	  9364#	  9380
F34150	  9399#	  9415
F34160	  9434#	  9450
F34170	  9469#	  9485
F34200	  9504#	  9520
F34210	  9539#	  9555
F34220	  9574#	  9590
F34230	  9609#	  9625
F34240	  9644#	  9660
F34250	  9679#	  9695
F34260	  9714#	  9730
F34270	  9749#	  9765
F34300	  9784#	  9800
F34310	  9819#	  9835
F34320	  9854#	  9870
F34330	  9889#	  9905
F34340	  9924#	  9940
F34350	  9959#	  9975
F34360	  9994#	 10010
F34370	 10051#	 10067
F34400	 10086#	 10102
F34410	 10121#	 10137
F34420	 10156#	 10172
F34430	 10191#	 10207
F34440	 10226#	 10242
F34450	 10261#	 10277
F34460	 10296#	 10312
F34470	 10331#	 10347
F34500	 10366#	 10382
F34510	 10401#	 10417
F34520	 10436#	 10452
F34530	 10471#	 10487
F34540	 10506#	 10522
F34550	 10541#	 10557
F34560	 10576#	 10592
F34570	 10611#	 10627
F34600	 10646#	 10662
F34610	 10681#	 10697
F34620	 10716#	 10732
F34630	 10751#	 10767
F34640	 10786#	 10802
F34650	 10821#	 10837
F34660	 10856#	 10872
F34670	 10891#	 10907
F34700	 10926#	 10942                                                                                                     SEQ 0372
F34710	 10961#	 10977
F34720	 10996#	 11012
F34730	 11031#	 11047
F34740	 11066#	 11082
F34750	 11101#	 11117
F34760	 11136#	 11152
F34770	 11171#	 11187
F35000	 11206#	 11222
F35010	 11241#	 11257
F35020	 11268#	 11284
F35030	 11317#	 11333
F35040	 11348#	 11364
F35050	 11379#	 11395
F35060	 11410#	 11426
F35070	 11441#	 11457
F35100	 11472#	 11488
F35110	 11503#	 11519
F35120	 11534#	 11550
F35130	 11565#	 11581
F35140	 11596#	 11612
F35150	 11627#	 11643
F35160	 11658#	 11674
F35170	 11689#	 11705
F35200	 11720#	 11736
F35210	 11751#	 11767
F35220	 11782#	 11798
F35230	 11813#	 11829
F35240	 11844#	 11860
F35250	 11875#	 11891
F35260	 11906#	 11922
F35270	 11937#	 11953
F35300	 11968#	 11984
F35310	 11999#	 12015
F35320	 12030#	 12046
F35330	 12061#	 12077
F35340	 12092#	 12108
F35350	 12123#	 12139
F35360	 12154#	 12170
F35370	 12185#	 12201
F35400	 12216#	 12232
F35410	 12247#	 12263
F35420	 12278#	 12294
F35430	 12309#	 12325
F35440	 12340#	 12356
F35450	 12371#	 12387
F35460	 12402#	 12418
F35470	 12451#	 12467
F35500	 12482#	 12498
F35510	 12513#	 12529
F35520	 12544#	 12560
F35530	 12575#	 12591
F35540	 12606#	 12622
F35550	 12637#	 12653                                                                                                     SEQ 0373
F35560	 12668#	 12684
F35570	 12699#	 12715
F35600	 12730#	 12746
F35610	 12761#	 12777
F35620	 12792#	 12808
F35630	 12823#	 12839
F35640	 12854#	 12870
F35650	 12885#	 12901
F35660	 12916#	 12932
F35670	 12947#	 12963
F35700	 12978#	 12994
F35710	 13009#	 13025
F35720	 13040#	 13056
F35730	 13071#	 13087
F35740	 13102#	 13118
F35750	 13133#	 13149
F35760	 13164#	 13180
F35770	 13195#	 13211
F36000	 13226#	 13242
F36010	 13257#	 13273
F36020	 13288#	 13304
F36030	 13319#	 13335
F36040	 13350#	 13366
F36050	 13381#	 13397
F36060	 13412#	 13428
F36070	 13443#	 13459
F36100	 13474#	 13490
F36110	 13505#	 13521
F36120	 13536#	 13552
F36130	 13587#	 13603
F36140	 13619#	 13635
F36150	 13651#	 13667
F36160	 13683#	 13699
F36170	 13715#	 13731
F36200	 13747#	 13763
F36210	 13779#	 13795
F36220	 13811#	 13827
F36230	 13843#	 13859
F36240	 13875#	 13891
F36250	 13907#	 13923
F36260	 13939#	 13955
F36270	 13971#	 13987
F36300	 14003#	 14019
F36310	 14035#	 14051
F36320	 14067#	 14083
F36330	 14099#	 14115
F36340	 14131#	 14147
F36350	 14163#	 14179
F36360	 14195#	 14211
F36370	 14227#	 14243
F36400	 14259#	 14275
F36410	 14291#	 14307
F36420	 14323#	 14339                                                                                                     SEQ 0374
F36430	 14355#	 14371
F36440	 14387#	 14403
F36450	 14419#	 14435
F36460	 14451#	 14467
F36470	 14483#	 14499
F36500	 14515#	 14531
F36510	 14547#	 14563
F36520	 14579#	 14595
F36530	 14611#	 14627
F36540	 14643#	 14659
F36550	 14675#	 14691
F36560	 14707#	 14723
F36570	 14758#	 14774
F36600	 14790#	 14806
F36610	 14822#	 14838
F36620	 14854#	 14870
F36630	 14886#	 14902
F36640	 14918#	 14934
F36650	 14950#	 14966
F36660	 14982#	 14998
F36670	 15014#	 15030
F36700	 15046#	 15062
F36710	 15078#	 15094
F36720	 15110#	 15126
F36730	 15142#	 15158
F36740	 15174#	 15190
F36750	 15206#	 15222
F36760	 15238#	 15254
F36770	 15270#	 15286
F37000	 15302#	 15318
F37010	 15334#	 15350
F37020	 15366#	 15382
F37030	 15398#	 15414
F37040	 15430#	 15446
F37050	 15462#	 15478
F37060	 15494#	 15510
F37070	 15526#	 15542
F37100	 15558#	 15574
F37110	 15590#	 15606
F37120	 15622#	 15638
F37130	 15654#	 15670
F37140	 15686#	 15702
F37150	 15718#	 15734
F37160	 15750#	 15766
F37170	 15782#	 15798
F37200	 15814#	 15830
F37210	 15846#	 15862
F37220	 15878#	 15894
F37230	 15945#	 15961
F37240	 15983#	 15999
F37250	 16021#	 16037
F37260	 16059#	 16075
F37270	 16097#	 16113                                                                                                     SEQ 0375
F37300	 16135#	 16151
F37310	 16173#	 16189
F37320	 16211#	 16227
F37330	 16249#	 16265
F37340	 16287#	 16303
F37350	 16325#	 16341
F37360	 16363#	 16379
F37370	 16401#	 16417
F37400	 16439#	 16455
F37410	 16477#	 16493
F37420	 16515#	 16531
F37430	 16553#	 16569
F37440	 16591#	 16607
F37450	 16629#	 16645
F37460	 16667#	 16683
F37470	 16705#	 16721
F37500	 16743#	 16759
F37510	 16781#	 16797
F37520	 16819#	 16835
F37530	 16857#	 16873
F37540	 16895#	 16911
F37550	 16933#	 16949
F37560	 16971#	 16987
F37570	 17009#	 17025
F37600	 17047#	 17063
F37610	 17085#	 17101
F37620	 17123#	 17139
F37630	 17161#	 17177
F37640	 17199#	 17215
F37650	 17237#	 17253
F37660	 17268#	 17284
FOV	   360#
FOVU	   360#
FRDLNK	   163#
FSELNK	   162#
FXU	   360#
HYPEN	   559#
IADBRK	   360#
IADEXC	   360#
IADSTP	   360#
IADUSR	   360#
IAPRC1	   360#
IAPRE1	   360#
IASRTC	   360#
IASRTE	   360#
IASRTS	   360#
ICNSLL	   360#
ICNSLR	   360#
IDATAF	   360#
IEVNPR	   360#
IFMMAN	   360#
IINSTF	   360#
IIOPFC	   360#                                                                                                            SEQ 0376
IIOPFL	   360#
IMAINT	   360#
IMGINM	   360#
IMGNLO	   360#
IMGNOF	   360#	 17297
IMGNON	   360#
IMIPGD	   360#
IMLAPD	   360#
INHCSH	   148#
INHPAG	   145#
INXCLR	   360#
INXM	   360#
INXSTP	   360#
IOCLR	   360#
IP50HZ	   360#
IPAREN	   360#
IPARER	   360#
IPRSTP	   360#
IPWRFL	   360#
IPWRLO	   360#
IRQCLR	   360#
ISPDOF	   360#	 17297
ISPDON	   360#
ITERAT	    89#	   406
ITMDIS	   360#
ITMENB	   360#
ITMOEN	   360#
ITMOUT	   360#
ITMSET	   360#
ITRCH1	   466#
ITRCNT	   406#
IWRITE	   360#
JOB41	   360#
JOBAPR	   360#
JOBCNI	   360#
JOBDDT	   360#
JOBFF	   360#
JOBOPC	   360#	 17419
JOBREL	   360#
JOBREN	   360#
JOBSA	   360#
JOBSYM	   360#
JOBTPC	   360#
JOBUSY	   360#
JOBUUO	   360#
JOBVER	   360#
KA10	    61#	   360
KAHZ50	   153#
KAIFLG	   423#	 17292	 17444
KI10	    60#	   360	 17291	 17443
KL10	   360
KLFLG	   424#	 17306
KLOLD	    62#	   360                                                                                                     SEQ 0377
KLTYP	   640#
KNTRP	   360#
KTRP	   360#
LAST1	 17285#
LDEXCB	   360#
LDLNK	   164#	   376	   378
LDUSRB	   360#
LFP	   563#
LIP	   360#
LOOPER	   139#	 17424
LUUO	   360#
LUUO1	    44#	   493	   494
LUUO10	    51#	   493	   498
LUUO11	    52#	   493	   498
LUUO12	    53#	   493	   499
LUUO13	    54#	   493	   499
LUUO14	   493	   500
LUUO15	   493	   500
LUUO16	   493	   501
LUUO17	   493	   501
LUUO2	    45#	   493	   495
LUUO20	   493	   502
LUUO21	   493	   502
LUUO22	   493	   503
LUUO23	   493	   503
LUUO24	   493	   504
LUUO25	   493	   504
LUUO26	   493	   505
LUUO27	   493	   505
LUUO3	    46#	   493	   495
LUUO30	   493	   506
LUUO31	   493	   506
LUUO32	   493	   507
LUUO33	   493	   507
LUUO4	    47#	   493	   496
LUUO5	    48#	   493	   496
LUUO6	    49#	   493	   497
LUUO7	    50#	   493	   497
LUUOI	   360#
MAPNEW	   514#
MARGIN	   436#	 17296	 17448	 17449
MCNVER	     3#	    11	    25	   408
MEMLOW	   516#
MEMMAP	   414
MEMSIZ	   517#
MEMTOT	   515#
MICNT	 17303#	 17303	 17304	 17321
MINUS	   558#
MODDVC	   147#
MODDVL	   345	   345#	   409
MODDVU	   346	   346#	   410
MODLNK	   166#	   373
MONCTL	   426#	 17322	 17436                                                                                             SEQ 0378
MONFLG	   425#
MONTEN	   427#
MPVU	   360#
MUUO	   360#
MUUOPC	   360#
MX	  3602#	  3625	  3626	  3647#	  3670	  3671	  3692#	  3715	  3716	  3737#	  3760	  3761	  3782#	  3805
	  3806	  3827#	  3850	  3851	  3872#	  3895	  3896	  3917#	  3940	  3941	  3962#	  3985	  3986	  4007#
	  4030	  4031	  4052#	  4075	  4076	  4097#	  4120	  4121	  4142#	  4165	  4166	  4187#	  4210	  4211
	  4232#	  4255	  4256	  4277#	  4300	  4301	 13578#	 13597	 13598	 13610#	 13629	 13630	 13642#	 13661
	 13662	 13674#	 13693	 13694	 13706#	 13725	 13726	 13738#	 13757	 13758	 13770#	 13789	 13790	 13802#
	 13821	 13822	 13834#	 13853	 13854	 13866#	 13885	 13886	 13898#	 13917	 13918	 13930#	 13949	 13950
	 13962#	 13981	 13982	 13994#	 14013	 14014	 14026#	 14045	 14046	 14058#	 14077	 14078	 14090#	 14109
	 14110	 14122#	 14141	 14142	 14154#	 14173	 14174	 14186#	 14205	 14206	 14218#	 14237	 14238	 14250#
	 14269	 14270	 14282#	 14301	 14302	 14314#	 14333	 14334	 14346#	 14365	 14366	 14378#	 14397	 14398
	 14410#	 14429	 14430	 14442#	 14461	 14462	 14474#	 14493	 14494	 14506#	 14525	 14526	 14538#	 14557
	 14558	 14570#	 14589	 14590	 14602#	 14621	 14622	 14634#	 14653	 14654	 14666#	 14685	 14686	 14698#
	 14717	 14718	 14749#	 14768	 14769	 14781#	 14800	 14801	 14813#	 14832	 14833	 14845#	 14864	 14865
	 14877#	 14896	 14897	 14909#	 14928	 14929	 14941#	 14960	 14961	 14973#	 14992	 14993	 15005#	 15024
	 15025	 15037#	 15056	 15057	 15069#	 15088	 15089	 15101#	 15120	 15121	 15133#	 15152	 15153	 15165#
	 15184	 15185	 15197#	 15216	 15217	 15229#	 15248	 15249	 15261#	 15280	 15281	 15293#	 15312	 15313
	 15325#	 15344	 15345	 15357#	 15376	 15377	 15389#	 15408	 15409	 15421#	 15440	 15441	 15453#	 15472
	 15473	 15485#	 15504	 15505	 15517#	 15536	 15537	 15549#	 15568	 15569	 15581#	 15600	 15601	 15613#
	 15632	 15633	 15645#	 15664	 15665	 15677#	 15696	 15697	 15709#	 15728	 15729	 15741#	 15760	 15761
	 15773#	 15792	 15793	 15805#	 15824	 15825	 15837#	 15856	 15857	 15869#	 15888	 15889
N1	 15895#	 15934	 15935	 15938	 15972	 15973	 15976	 16010	 16011	 16014	 16048	 16049	 16052	 16086
	 16087	 16090	 16124	 16125	 16128	 16162	 16163	 16166	 16200	 16201	 16204	 16238	 16239	 16242
	 16276	 16277	 16280	 16314	 16315	 16318	 16352	 16353	 16356	 16390	 16391	 16394	 16428	 16429
	 16432	 16466	 16467	 16470	 16504	 16505	 16508	 16542	 16543	 16546	 16580	 16581	 16584	 16618
	 16619	 16622	 16656	 16657	 16660	 16694	 16695	 16698	 16732	 16733	 16736	 16770	 16771	 16774
	 16808	 16809	 16812	 16846	 16847	 16850	 16884	 16885	 16888	 16922	 16923	 16926	 16960	 16961
	 16964	 16998	 16999	 17002	 17036	 17037	 17040	 17074	 17075	 17078	 17112	 17113	 17116	 17150
	 17151	 17154	 17188	 17189	 17192	 17226	 17227	 17230
N2	 15896#
NOPNT	   135#	 17312
NXMU	   360#
OPRSEL	   149#
OPTIME	   528#
P	   192	   193	   194	   195	   360#	   448
PAG	   360#
PALERS	   141#	 17453
PARCLR	   360#
PARDIS	   360#
PAREA0	    82#
PAREA1	    83#	   404
PAREA2	    84#	   405
PAREA3	    85#	   402
PAREA4	    86#	   403
PAREA5	    87#	   415
PAREA6	    88#	   416
PAREA7	   415#
PAREA8	   416#
PARENB	   360#
PARU	   360#                                                                                                            SEQ 0379
PASCNT	   430#	 17327	 17331
PATCH	 17731#
PDISF	   525#
PDLOVU	   360#
PDOVTP	   360#
PERIOD	   555#
PFSTRT	   382#
PGFTRP	   360#
PGMEND	    63#	 17737
PGMNAM	   407	   688#
PI	 17309
PICHN1	   360#
PICHN2	   360#
PICHN3	   360#
PICHN4	   360#
PICHN5	   360#
PICHN6	   360#
PICHN7	   360#
PICHNA	   360#
PICLR	   360#
PIOFF	   360#
PION	   360#
PLIST	   594#	   594
PLISTE	   594	   596#	   680
PLISTS	   595#
PLUS	   560#
PNTENB	   524#
PNTEXT	   403#
PNTFLG	   523#
PNTINH	   526#
PNTLPT	   136#
PNTNAM	   402#
PNTRP	   360#
PNTSPC	   527#
PROCED	 17310#	 17310	 17425	 17432
PTRP	   360#
PVPAGI	   621#
PWFCLR	   360#
QUEST	   566#
RADIX	   569#
RADLSC	   571#
RADLSP	   570#
RANDBS	   404#
REENTR	   384#
RELIAB	   143#
REPT	   360#
REPT1	   360#
REPTU	   482#
REQSET	   360#
RESRT1	   459#
RESRT2	   460#
RETURN	   391#
RSTART	   132#                                                                                                            SEQ 0380
RTP	   564#
RUNFLG	   431#
SADR1	    68#	   380
SADR10	    77#	   396
SADR11	    78#	   397
SADR2	    69#	   382
SADR3	    70#	   384
SADR4	    71#
SADR5	    72#	   445
SADR6	    73#	   446
SADR7	    74#	   393
SADR8	    75#	   394
SADR9	    76#	   395
SBINIT	   205	   390#
SCOPE	   483#
SENSE1	   360#
SENSE2	   360#
SENSE3	   360#
SENSE4	   360#
SENSE5	   360#
SENSE6	   360#
SFSTRT	   380#
SLASH	   567#
SMLUSR	   360#
SNTRP	   360#
SPACE	   556#
SPDES	 17397#
SRTDDT	   386#
START	   374	   704#
START1	   393#
START2	   394#
START3	   395#
START4	   396#
START5	   397#
STARTA	   389	   708#
STRP	   360#
SUBLNK	   167#	   390
SWTEXR	   405#
SYSEXR	   378#
TAB	   557#
TESTPC	   432#	   717	   750	  1810	  2871	  2905	  3557	  4313	  5373	  6433	  6468	  7603	  8733	 10015
	 11289	 12423	 13557	 14728	 15901
TICKS	   435#
TLET	   706	 17371	 17394#
TN0	   360#
TN1	   360#
TOTALS	   133#
TRP3TP	   360#
TRPENB	   360#
TTNBRF	   615#
TTYFIL	   531#
TTYSPD	   532#
TXTINH	   144#	 17355                                                                                                     SEQ 0381
UOLIP	   360#
UOUSR	   360#
USER	   422#	 17294	 17307	 17446
USERF	   360#
USRASB	    59#	   412
USRCMP	   360#
USRCRF	   541#
USRLFF	   540#
USRPFW	   360#
UUODIS	   494#
UUOEXT	   450#	 17450
UUORTN	   451#
UUOSKP	   448#
V1	  3604#	  3617	  3618	  3652#	  3662	  3663	  3697#	  3707	  3708	  3742#	  3752	  3753	  3787#	  3797
	  3798	  3832#	  3842	  3843	  3877#	  3887	  3888	  3922#	  3932	  3933	  3967#	  3977	  3978	  4012#
	  4022	  4023	  4057#	  4067	  4068	  4102#	  4112	  4113	  4147#	  4157	  4158	  4192#	  4202	  4203
	  4237#	  4247	  4248	  4282#	  4292	  4293	  6489#	  6504	  6505	  6520#	  6535	  6536	  6551#	  6566
	  6567	  6582#	  6597	  6598	  6613#	  6628	  6629	  6644#	  6659	  6660	  6675#	  6690	  6691	  6706#
	  6721	  6722	  6737#	  6752	  6753	  6768#	  6783	  6784	  6799#	  6814	  6815	  6830#	  6845	  6846
	  6861#	  6876	  6877	  6892#	  6907	  6908	  6923#	  6938	  6939	  6954#	  6969	  6970	  6985#	  7000
	  7001	  7016#	  7031	  7032	  7047#	  7062	  7063	  7078#	  7093	  7094	  7109#	  7124	  7125	  7140#
	  7155	  7156	  7171#	  7186	  7187	  7202#	  7217	  7218	  7233#	  7248	  7249	  7264#	  7279	  7280
	  7295#	  7310	  7311	  7326#	  7341	  7342	  7357#	  7372	  7373	  7388#	  7403	  7404	  7419#	  7434
	  7435	  7450#	  7465	  7466	  7481#	  7496	  7497	  7512#	  7527	  7528	  7543#	  7558	  7559	  7575#
	  7589	  7590	  7623#	  7638	  7639	  7654#	  7669	  7670	  7685#	  7700	  7701	  7716#	  7731	  7732
	  7747#	  7762	  7763	  7778#	  7793	  7794	  7809#	  7824	  7825	  7840#	  7855	  7856	  7871#	  7886
	  7887	  7902#	  7917	  7918	  7933#	  7948	  7949	  7964#	  7979	  7980	  7995#	  8010	  8011	  8026#
	  8041	  8042	  8057#	  8072	  8073	  8088#	  8103	  8104	  8119#	  8134	  8135	  8150#	  8165	  8166
	  8181#	  8196	  8197	  8212#	  8227	  8228	  8243#	  8258	  8259	  8274#	  8289	  8290	  8305#	  8320
	  8321	  8336#	  8351	  8352	  8367#	  8382	  8383	  8398#	  8413	  8414	  8429#	  8444	  8445	  8460#
	  8475	  8476	  8491#	  8506	  8507	  8522#	  8537	  8538	  8553#	  8568	  8569	  8584#	  8599	  8600
	  8615#	  8630	  8631	  8646#	  8661	  8662	  8677#	  8692	  8693	  8758#	  8776	  8777	  8793#	  8811
	  8812	  8828#	  8846	  8847	  8863#	  8881	  8882	  8898#	  8916	  8917	  8933#	  8951	  8952	  8968#
	  8986	  8987	  9003#	  9021	  9022	  9038#	  9056	  9057	  9073#	  9091	  9092	  9108#	  9126	  9127
	  9143#	  9161	  9162	  9178#	  9196	  9197	  9213#	  9231	  9232	  9248#	  9266	  9267	  9283#	  9301
	  9302	  9318#	  9336	  9337	  9353#	  9371	  9372	  9388#	  9406	  9407	  9423#	  9441	  9442	  9458#
	  9476	  9477	  9493#	  9511	  9512	  9528#	  9546	  9547	  9563#	  9581	  9582	  9598#	  9616	  9617
	  9633#	  9651	  9652	  9668#	  9686	  9687	  9703#	  9721	  9722	  9738#	  9756	  9757	  9773#	  9791
	  9792	  9808#	  9826	  9827	  9843#	  9861	  9862	  9878#	  9896	  9897	  9913#	  9931	  9932	  9948#
	  9966	  9967	  9986#	 10001	 10002	 10040#	 10058	 10059	 10075#	 10093	 10094	 10110#	 10128	 10129
	 10145#	 10163	 10164	 10180#	 10198	 10199	 10215#	 10233	 10234	 10250#	 10268	 10269	 10285#	 10303
	 10304	 10320#	 10338	 10339	 10355#	 10373	 10374	 10390#	 10408	 10409	 10425#	 10443	 10444	 10460#
	 10478	 10479	 10495#	 10513	 10514	 10530#	 10548	 10549	 10565#	 10583	 10584	 10600#	 10618	 10619
	 10635#	 10653	 10654	 10670#	 10688	 10689	 10705#	 10723	 10724	 10740#	 10758	 10759	 10775#	 10793
	 10794	 10810#	 10828	 10829	 10845#	 10863	 10864	 10880#	 10898	 10899	 10915#	 10933	 10934	 10950#
	 10968	 10969	 10985#	 11003	 11004	 11020#	 11038	 11039	 11055#	 11073	 11074	 11090#	 11108	 11109
	 11125#	 11143	 11144	 11160#	 11178	 11179	 11195#	 11213	 11214	 11230#	 11248	 11249	 11309#	 11324
	 11325	 11340#	 11355	 11356	 11371#	 11386	 11387	 11402#	 11417	 11418	 11433#	 11448	 11449	 11464#
	 11479	 11480	 11495#	 11510	 11511	 11526#	 11541	 11542	 11557#	 11572	 11573	 11588#	 11603	 11604
	 11619#	 11634	 11635	 11650#	 11665	 11666	 11681#	 11696	 11697	 11712#	 11727	 11728	 11743#	 11758
	 11759	 11774#	 11789	 11790	 11805#	 11820	 11821	 11836#	 11851	 11852	 11867#	 11882	 11883	 11898#
	 11913	 11914	 11929#	 11944	 11945	 11960#	 11975	 11976	 11991#	 12006	 12007	 12022#	 12037	 12038
	 12053#	 12068	 12069	 12084#	 12099	 12100	 12115#	 12130	 12131	 12146#	 12161	 12162	 12177#	 12192     SEQ 0382
	 12193	 12208#	 12223	 12224	 12239#	 12254	 12255	 12270#	 12285	 12286	 12301#	 12316	 12317	 12332#
	 12347	 12348	 12363#	 12378	 12379	 12395#	 12409	 12410	 12443#	 12458	 12459	 12474#	 12489	 12490
	 12505#	 12520	 12521	 12536#	 12551	 12552	 12567#	 12582	 12583	 12598#	 12613	 12614	 12629#	 12644
	 12645	 12660#	 12675	 12676	 12691#	 12706	 12707	 12722#	 12737	 12738	 12753#	 12768	 12769	 12784#
	 12799	 12800	 12815#	 12830	 12831	 12846#	 12861	 12862	 12877#	 12892	 12893	 12908#	 12923	 12924
	 12939#	 12954	 12955	 12970#	 12985	 12986	 13001#	 13016	 13017	 13032#	 13047	 13048	 13063#	 13078
	 13079	 13094#	 13109	 13110	 13125#	 13140	 13141	 13156#	 13171	 13172	 13187#	 13202	 13203	 13218#
	 13233	 13234	 13249#	 13264	 13265	 13280#	 13295	 13296	 13311#	 13326	 13327	 13342#	 13357	 13358
	 13373#	 13388	 13389	 13404#	 13419	 13420	 13435#	 13450	 13451	 13466#	 13481	 13482	 13497#	 13512
	 13513	 13529#	 13543	 13544	 13579#	 13594	 13595	 13611#	 13626	 13627	 13643#	 13658	 13659	 13675#
	 13690	 13691	 13707#	 13722	 13723	 13739#	 13754	 13755	 13771#	 13786	 13787	 13803#	 13818	 13819
	 13835#	 13850	 13851	 13867#	 13882	 13883	 13899#	 13914	 13915	 13931#	 13946	 13947	 13963#	 13978
	 13979	 13995#	 14010	 14011	 14027#	 14042	 14043	 14059#	 14074	 14075	 14091#	 14106	 14107	 14123#
	 14138	 14139	 14155#	 14170	 14171	 14187#	 14202	 14203	 14219#	 14234	 14235	 14251#	 14266	 14267
	 14283#	 14298	 14299	 14315#	 14330	 14331	 14347#	 14362	 14363	 14379#	 14394	 14395	 14411#	 14426
	 14427	 14443#	 14458	 14459	 14475#	 14490	 14491	 14507#	 14522	 14523	 14539#	 14554	 14555	 14571#
	 14586	 14587	 14603#	 14618	 14619	 14635#	 14650	 14651	 14667#	 14682	 14683	 14700#	 14714	 14715
	 14750#	 14765	 14766	 14782#	 14797	 14798	 14814#	 14829	 14830	 14846#	 14861	 14862	 14878#	 14893
	 14894	 14910#	 14925	 14926	 14942#	 14957	 14958	 14974#	 14989	 14990	 15006#	 15021	 15022	 15038#
	 15053	 15054	 15070#	 15085	 15086	 15102#	 15117	 15118	 15134#	 15149	 15150	 15166#	 15181	 15182
	 15198#	 15213	 15214	 15230#	 15245	 15246	 15262#	 15277	 15278	 15294#	 15309	 15310	 15326#	 15341
	 15342	 15358#	 15373	 15374	 15390#	 15405	 15406	 15422#	 15437	 15438	 15454#	 15469	 15470	 15486#
	 15501	 15502	 15518#	 15533	 15534	 15550#	 15565	 15566	 15582#	 15597	 15598	 15614#	 15629	 15630
	 15646#	 15661	 15662	 15678#	 15693	 15694	 15710#	 15725	 15726	 15742#	 15757	 15758	 15774#	 15789
	 15790	 15806#	 15821	 15822	 15838#	 15853	 15854	 15871#	 15885	 15886	 15934#	 15949	 15950	 15958
	 15959	 15972#	 15987	 15988	 15996	 15997	 16010#	 16025	 16026	 16034	 16035	 16048#	 16063	 16064
	 16072	 16073	 16086#	 16101	 16102	 16110	 16111	 16124#	 16139	 16140	 16148	 16149	 16162#	 16177
	 16178	 16186	 16187	 16200#	 16215	 16216	 16224	 16225	 16238#	 16253	 16254	 16262	 16263	 16276#
	 16291	 16292	 16300	 16301	 16314#	 16329	 16330	 16338	 16339	 16352#	 16367	 16368	 16376	 16377
	 16390#	 16405	 16406	 16414	 16415	 16428#	 16443	 16444	 16452	 16453	 16466#	 16481	 16482	 16490
	 16491	 16504#	 16519	 16520	 16528	 16529	 16542#	 16557	 16558	 16566	 16567	 16580#	 16595	 16596
	 16604	 16605	 16618#	 16633	 16634	 16642	 16643	 16656#	 16671	 16672	 16680	 16681	 16694#	 16709
	 16710	 16718	 16719	 16732#	 16747	 16748	 16756	 16757	 16770#	 16785	 16786	 16794	 16795	 16808#
	 16823	 16824	 16832	 16833	 16846#	 16861	 16862	 16870	 16871	 16884#	 16899	 16900	 16908	 16909
	 16922#	 16937	 16938	 16946	 16947	 16960#	 16975	 16976	 16984	 16985	 16998#	 17013	 17014	 17022
	 17023	 17036#	 17051	 17052	 17060	 17061	 17074#	 17089	 17090	 17098	 17099	 17112#	 17127	 17128
	 17136	 17137	 17150#	 17165	 17166	 17174	 17175	 17188#	 17203	 17204	 17212	 17213	 17226#	 17241
	 17242	 17250	 17251	 17258#	 17272	 17273	 17281	 17282
V2	  3605#	  3622	  3623	  3653#	  3667	  3668	  3698#	  3712	  3713	  3743#	  3757	  3758	  3788#	  3802
	  3803	  3833#	  3847	  3848	  3878#	  3892	  3893	  3923#	  3937	  3938	  3968#	  3982	  3983	  4013#
	  4027	  4028	  4058#	  4072	  4073	  4103#	  4117	  4118	  4148#	  4162	  4163	  4193#	  4207	  4208
	  4238#	  4252	  4253	  4283#	  4297	  4298	  8759#	  8779	  8780	  8794#	  8814	  8815	  8829#	  8849
	  8850	  8864#	  8884	  8885	  8899#	  8919	  8920	  8934#	  8954	  8955	  8969#	  8989	  8990	  9004#
	  9024	  9025	  9039#	  9059	  9060	  9074#	  9094	  9095	  9109#	  9129	  9130	  9144#	  9164	  9165
	  9179#	  9199	  9200	  9214#	  9234	  9235	  9249#	  9269	  9270	  9284#	  9304	  9305	  9319#	  9339
	  9340	  9354#	  9374	  9375	  9389#	  9409	  9410	  9424#	  9444	  9445	  9459#	  9479	  9480	  9494#
	  9514	  9515	  9529#	  9549	  9550	  9564#	  9584	  9585	  9599#	  9619	  9620	  9634#	  9654	  9655
	  9669#	  9689	  9690	  9704#	  9724	  9725	  9739#	  9759	  9760	  9774#	  9794	  9795	  9809#	  9829
	  9830	  9844#	  9864	  9865	  9879#	  9899	  9900	  9914#	  9934	  9935	  9949#	  9969	  9970	  9987#
	 10004	 10005	 10041#	 10061	 10062	 10076#	 10096	 10097	 10111#	 10131	 10132	 10146#	 10166	 10167
	 10181#	 10201	 10202	 10216#	 10236	 10237	 10251#	 10271	 10272	 10286#	 10306	 10307	 10321#	 10341
	 10342	 10356#	 10376	 10377	 10391#	 10411	 10412	 10426#	 10446	 10447	 10461#	 10481	 10482	 10496#
	 10516	 10517	 10531#	 10551	 10552	 10566#	 10586	 10587	 10601#	 10621	 10622	 10636#	 10656	 10657     SEQ 0383
	 10671#	 10691	 10692	 10706#	 10726	 10727	 10741#	 10761	 10762	 10776#	 10796	 10797	 10811#	 10831
	 10832	 10846#	 10866	 10867	 10881#	 10901	 10902	 10916#	 10936	 10937	 10951#	 10971	 10972	 10986#
	 11006	 11007	 11021#	 11041	 11042	 11056#	 11076	 11077	 11091#	 11111	 11112	 11126#	 11146	 11147
	 11161#	 11181	 11182	 11196#	 11216	 11217	 11231#	 11251	 11252	 15935#	 15955	 15956	 15973#	 15993
	 15994	 16011#	 16031	 16032	 16049#	 16069	 16070	 16087#	 16107	 16108	 16125#	 16145	 16146	 16163#
	 16183	 16184	 16201#	 16221	 16222	 16239#	 16259	 16260	 16277#	 16297	 16298	 16315#	 16335	 16336
	 16353#	 16373	 16374	 16391#	 16411	 16412	 16429#	 16449	 16450	 16467#	 16487	 16488	 16505#	 16525
	 16526	 16543#	 16563	 16564	 16581#	 16601	 16602	 16619#	 16639	 16640	 16657#	 16677	 16678	 16695#
	 16715	 16716	 16733#	 16753	 16754	 16771#	 16791	 16792	 16809#	 16829	 16830	 16847#	 16867	 16868
	 16885#	 16905	 16906	 16923#	 16943	 16944	 16961#	 16981	 16982	 16999#	 17019	 17020	 17037#	 17057
	 17058	 17075#	 17095	 17096	 17113#	 17133	 17134	 17151#	 17171	 17172	 17189#	 17209	 17210	 17227#
	 17247	 17248	 17260#	 17278	 17279
V3	 15938#	 15952	 15953	 15976#	 15990	 15991	 16014#	 16028	 16029	 16052#	 16066	 16067	 16090#	 16104
	 16105	 16128#	 16142	 16143	 16166#	 16180	 16181	 16204#	 16218	 16219	 16242#	 16256	 16257	 16280#
	 16294	 16295	 16318#	 16332	 16333	 16356#	 16370	 16371	 16394#	 16408	 16409	 16432#	 16446	 16447
	 16470#	 16484	 16485	 16508#	 16522	 16523	 16546#	 16560	 16561	 16584#	 16598	 16599	 16622#	 16636
	 16637	 16660#	 16674	 16675	 16698#	 16712	 16713	 16736#	 16750	 16751	 16774#	 16788	 16789	 16812#
	 16826	 16827	 16850#	 16864	 16865	 16888#	 16902	 16903	 16926#	 16940	 16941	 16964#	 16978	 16979
	 17002#	 17016	 17017	 17040#	 17054	 17055	 17078#	 17092	 17093	 17116#	 17130	 17131	 17154#	 17168
	 17169	 17192#	 17206	 17207	 17230#	 17244	 17245	 17259#	 17275	 17276
WW	 15904#	 15927	 15927#	 15936	 15938	 15965	 15965#	 15974	 15976	 16003	 16003#	 16012	 16014	 16041
	 16041#	 16050	 16052	 16079	 16079#	 16088	 16090	 16117	 16117#	 16126	 16128	 16155	 16155#	 16164
	 16166	 16193	 16193#	 16202	 16204	 16231	 16231#	 16240	 16242	 16269	 16269#	 16278	 16280	 16307
	 16307#	 16316	 16318	 16345	 16345#	 16354	 16356	 16383	 16383#	 16392	 16394	 16421	 16421#	 16430
	 16432	 16459	 16459#	 16468	 16470	 16497	 16497#	 16506	 16508	 16535	 16535#	 16544	 16546	 16573
	 16573#	 16582	 16584	 16611	 16611#	 16620	 16622	 16649	 16649#	 16658	 16660	 16687	 16687#	 16696
	 16698	 16725	 16725#	 16734	 16736	 16763	 16763#	 16772	 16774	 16801	 16801#	 16810	 16812	 16839
	 16839#	 16848	 16850	 16877	 16877#	 16886	 16888	 16915	 16915#	 16924	 16926	 16953	 16953#	 16962
	 16964	 16991	 16991#	 17000	 17002	 17029	 17029#	 17038	 17040	 17067	 17067#	 17076	 17078	 17105
	 17105#	 17114	 17116	 17143	 17143#	 17152	 17154	 17181	 17181#	 17190	 17192	 17219	 17219#	 17228
	 17230
XX	   753#	   764	   764#	   765	   765#	   778	   779	   787	   788	   793	   793#	   794	   807	   808
	   816	   817	   822	   822#	   823	   836	   837	   845	   846	   851	   851#	   852	   865	   866
	   874	   875	   880	   880#	   881	   894	   895	   903	   904	   909	   909#	   910	   923	   924
	   932	   933	   938	   938#	   939	   952	   953	   961	   962	   967	   967#	   968	   981	   982
	   990	   991	   996	   996#	   997	  1010	  1011	  1019	  1020	  1025	  1025#	  1026	  1039	  1040
	  1048	  1049	  1054	  1054#	  1055	  1068	  1069	  1077	  1078	  1083	  1083#	  1084	  1097	  1098
	  1106	  1107	  1112	  1112#	  1113	  1126	  1127	  1135	  1136	  1141	  1141#	  1142	  1155	  1156
	  1164	  1165	  1170	  1170#	  1171	  1184	  1185	  1193	  1194	  1199	  1199#	  1200	  1213	  1214
	  1222	  1223	  1228	  1228#	  1229	  1242	  1243	  1251	  1252	  1257	  1257#	  1258	  1271	  1272
	  1280	  1281	  1286	  1286#	  1287	  1300	  1301	  1309	  1310	  1315	  1315#	  1316	  1329	  1330
	  1338	  1339	  1344	  1344#	  1345	  1358	  1359	  1367	  1368	  1373	  1373#	  1374	  1387	  1388
	  1396	  1397	  1402	  1402#	  1403	  1416	  1417	  1425	  1426	  1431	  1431#	  1432	  1445	  1446
	  1454	  1455	  1460	  1460#	  1461	  1474	  1475	  1483	  1484	  1489	  1489#	  1490	  1503	  1504
	  1512	  1513	  1518	  1518#	  1519	  1532	  1533	  1541	  1542	  1547	  1547#	  1548	  1561	  1562
	  1570	  1571	  1576	  1576#	  1577	  1590	  1591	  1599	  1600	  1605	  1605#	  1606	  1619	  1620
	  1628	  1629	  1634	  1634#	  1635	  1648	  1649	  1657	  1658	  1663	  1663#	  1664	  1677	  1678
	  1686	  1687	  1692	  1692#	  1693	  1706	  1707	  1715	  1716	  1721	  1721#	  1722	  1735	  1736
	  1744	  1745	  1750	  1750#	  1751	  1764	  1765	  1773	  1774	  1779	  1779#	  1780	  1793	  1794
	  1802	  1803	  1813#	  1824	  1824#	  1825	  1825#	  1838	  1839	  1847	  1848	  1853	  1853#	  1854
	  1867	  1868	  1876	  1877	  1882	  1882#	  1883	  1896	  1897	  1905	  1906	  1911	  1911#	  1912
	  1925	  1926	  1934	  1935	  1940	  1940#	  1941	  1954	  1955	  1963	  1964	  1969	  1969#	  1970
	  1983	  1984	  1992	  1993	  1998	  1998#	  1999	  2012	  2013	  2021	  2022	  2027	  2027#	  2028     SEQ 0384
	  2041	  2042	  2050	  2051	  2056	  2056#	  2057	  2070	  2071	  2079	  2080	  2085	  2085#	  2086
	  2099	  2100	  2108	  2109	  2114	  2114#	  2115	  2128	  2129	  2137	  2138	  2143	  2143#	  2144
	  2157	  2158	  2166	  2167	  2172	  2172#	  2173	  2186	  2187	  2195	  2196	  2201	  2201#	  2202
	  2215	  2216	  2224	  2225	  2230	  2230#	  2231	  2244	  2245	  2253	  2254	  2259	  2259#	  2260
	  2273	  2274	  2282	  2283	  2288	  2288#	  2289	  2302	  2303	  2311	  2312	  2317	  2317#	  2318
	  2331	  2332	  2340	  2341	  2346	  2346#	  2347	  2360	  2361	  2369	  2370	  2375	  2375#	  2376
	  2389	  2390	  2398	  2399	  2404	  2404#	  2405	  2418	  2419	  2427	  2428	  2433	  2433#	  2434
	  2447	  2448	  2456	  2457	  2462	  2462#	  2463	  2476	  2477	  2485	  2486	  2491	  2491#	  2492
	  2505	  2506	  2514	  2515	  2520	  2520#	  2521	  2534	  2535	  2543	  2544	  2549	  2549#	  2550
	  2563	  2564	  2572	  2573	  2578	  2578#	  2579	  2592	  2593	  2601	  2602	  2607	  2607#	  2608
	  2621	  2622	  2630	  2631	  2636	  2636#	  2637	  2650	  2651	  2659	  2660	  2665	  2665#	  2666
	  2679	  2680	  2688	  2689	  2694	  2694#	  2695	  2708	  2709	  2717	  2718	  2723	  2723#	  2724
	  2737	  2738	  2746	  2747	  2752	  2752#	  2753	  2766	  2767	  2775	  2776	  2781	  2781#	  2782
	  2795	  2796	  2804	  2805	  2810	  2810#	  2811	  2824	  2825	  2833	  2834	  2839	  2839#	  2840
	  2853	  2854	  2862	  2863	  2909#	  2943	  2943#	  2951	  2952	  2961	  2962	  2982	  2982#	  2990
	  2991	  3000	  3001	  3021	  3021#	  3029	  3030	  3039	  3040	  3060	  3060#	  3068	  3069	  3078
	  3079	  3099	  3099#	  3107	  3108	  3117	  3118	  3138	  3138#	  3146	  3147	  3156	  3157	  3177
	  3177#	  3185	  3186	  3195	  3196	  3216	  3216#	  3224	  3225	  3234	  3235	  3255	  3255#	  3263
	  3264	  3273	  3274	  3294	  3294#	  3302	  3303	  3312	  3313	  3333	  3333#	  3341	  3342	  3351
	  3352	  3372	  3372#	  3380	  3381	  3390	  3391	  3411	  3411#	  3419	  3420	  3429	  3430	  3450
	  3450#	  3458	  3459	  3468	  3469	  3489	  3489#	  3497	  3498	  3507	  3508	  3528	  3528#	  3536
	  3537	  3546	  3547	  3561#	  3601	  3601#	  3602	  3603	  3606	  3615	  3616	  3646	  3646#	  3647
	  3648	  3651	  3660	  3661	  3691	  3691#	  3692	  3693	  3696	  3705	  3706	  3736	  3736#	  3737
	  3738	  3741	  3750	  3751	  3781	  3781#	  3782	  3783	  3786	  3795	  3796	  3826	  3826#	  3827
	  3828	  3831	  3840	  3841	  3871	  3871#	  3872	  3873	  3876	  3885	  3886	  3916	  3916#	  3917
	  3918	  3921	  3930	  3931	  3961	  3961#	  3962	  3963	  3966	  3975	  3976	  4006	  4006#	  4007
	  4008	  4011	  4020	  4021	  4051	  4051#	  4052	  4053	  4056	  4065	  4066	  4096	  4096#	  4097
	  4098	  4101	  4110	  4111	  4141	  4141#	  4142	  4143	  4146	  4155	  4156	  4186	  4186#	  4187
	  4188	  4191	  4200	  4201	  4231	  4231#	  4232	  4233	  4236	  4245	  4246	  4276	  4276#	  4277
	  4278	  4281	  4290	  4291	  4316#	  4327	  4327#	  4328	  4328#	  4337	  4338	  4356	  4356#	  4357
	  4366	  4367	  4385	  4385#	  4386	  4395	  4396	  4414	  4414#	  4415	  4424	  4425	  4443	  4443#
	  4444	  4453	  4454	  4472	  4472#	  4473	  4482	  4483	  4501	  4501#	  4502	  4511	  4512	  4530
	  4530#	  4531	  4540	  4541	  4559	  4559#	  4560	  4569	  4570	  4588	  4588#	  4589	  4598	  4599
	  4617	  4617#	  4618	  4627	  4628	  4646	  4646#	  4647	  4656	  4657	  4675	  4675#	  4676	  4685
	  4686	  4704	  4704#	  4705	  4714	  4715	  4733	  4733#	  4734	  4743	  4744	  4762	  4762#	  4763
	  4772	  4773	  4791	  4791#	  4792	  4801	  4802	  4820	  4820#	  4821	  4830	  4831	  4849	  4849#
	  4850	  4859	  4860	  4878	  4878#	  4879	  4888	  4889	  4907	  4907#	  4908	  4917	  4918	  4936
	  4936#	  4937	  4946	  4947	  4965	  4965#	  4966	  4975	  4976	  4994	  4994#	  4995	  5004	  5005
	  5023	  5023#	  5024	  5033	  5034	  5052	  5052#	  5053	  5062	  5063	  5081	  5081#	  5082	  5091
	  5092	  5110	  5110#	  5111	  5120	  5121	  5139	  5139#	  5140	  5149	  5150	  5168	  5168#	  5169
	  5178	  5179	  5197	  5197#	  5198	  5207	  5208	  5226	  5226#	  5227	  5236	  5237	  5255	  5255#
	  5256	  5265	  5266	  5284	  5284#	  5285	  5294	  5295	  5313	  5313#	  5314	  5323	  5324	  5342
	  5342#	  5343	  5352	  5353	  5376#	  5387	  5387#	  5388	  5388#	  5397	  5398	  5416	  5416#	  5417
	  5426	  5427	  5445	  5445#	  5446	  5455	  5456	  5474	  5474#	  5475	  5484	  5485	  5503	  5503#
	  5504	  5513	  5514	  5532	  5532#	  5533	  5542	  5543	  5561	  5561#	  5562	  5571	  5572	  5590
	  5590#	  5591	  5600	  5601	  5619	  5619#	  5620	  5629	  5630	  5648	  5648#	  5649	  5658	  5659
	  5677	  5677#	  5678	  5687	  5688	  5706	  5706#	  5707	  5716	  5717	  5735	  5735#	  5736	  5745
	  5746	  5764	  5764#	  5765	  5774	  5775	  5793	  5793#	  5794	  5803	  5804	  5822	  5822#	  5823
	  5832	  5833	  5851	  5851#	  5852	  5861	  5862	  5880	  5880#	  5881	  5890	  5891	  5909	  5909#
	  5910	  5919	  5920	  5938	  5938#	  5939	  5948	  5949	  5967	  5967#	  5968	  5977	  5978	  5996
	  5996#	  5997	  6006	  6007	  6025	  6025#	  6026	  6035	  6036	  6054	  6054#	  6055	  6064	  6065
	  6083	  6083#	  6084	  6093	  6094	  6112	  6112#	  6113	  6122	  6123	  6141	  6141#	  6142	  6151
	  6152	  6170	  6170#	  6171	  6180	  6181	  6199	  6199#	  6200	  6209	  6210	  6228	  6228#	  6229     SEQ 0385
	  6238	  6239	  6257	  6257#	  6258	  6267	  6268	  6286	  6286#	  6287	  6296	  6297	  6315	  6315#
	  6316	  6325	  6326	  6344	  6344#	  6345	  6354	  6355	  6373	  6373#	  6374	  6383	  6384	  6402
	  6402#	  6403	  6412	  6413	  6472#	  6485	  6485#	  6486	  6486#	  6489	  6490	  6501	  6502	  6507
	  6508	  6510	  6511	  6516	  6516#	  6517	  6520	  6521	  6532	  6533	  6538	  6539	  6541	  6542
	  6547	  6547#	  6548	  6551	  6552	  6563	  6564	  6569	  6570	  6572	  6573	  6578	  6578#	  6579
	  6582	  6583	  6594	  6595	  6600	  6601	  6603	  6604	  6609	  6609#	  6610	  6613	  6614	  6625
	  6626	  6631	  6632	  6634	  6635	  6640	  6640#	  6641	  6644	  6645	  6656	  6657	  6662	  6663
	  6665	  6666	  6671	  6671#	  6672	  6675	  6676	  6687	  6688	  6693	  6694	  6696	  6697	  6702
	  6702#	  6703	  6706	  6707	  6718	  6719	  6724	  6725	  6727	  6728	  6733	  6733#	  6734	  6737
	  6738	  6749	  6750	  6755	  6756	  6758	  6759	  6764	  6764#	  6765	  6768	  6769	  6780	  6781
	  6786	  6787	  6789	  6790	  6795	  6795#	  6796	  6799	  6800	  6811	  6812	  6817	  6818	  6820
	  6821	  6826	  6826#	  6827	  6830	  6831	  6842	  6843	  6848	  6849	  6851	  6852	  6857	  6857#
	  6858	  6861	  6862	  6873	  6874	  6879	  6880	  6882	  6883	  6888	  6888#	  6889	  6892	  6893
	  6904	  6905	  6910	  6911	  6913	  6914	  6919	  6919#	  6920	  6923	  6924	  6935	  6936	  6941
	  6942	  6944	  6945	  6950	  6950#	  6951	  6954	  6955	  6966	  6967	  6972	  6973	  6975	  6976
	  6981	  6981#	  6982	  6985	  6986	  6997	  6998	  7003	  7004	  7006	  7007	  7012	  7012#	  7013
	  7016	  7017	  7028	  7029	  7034	  7035	  7037	  7038	  7043	  7043#	  7044	  7047	  7048	  7059
	  7060	  7065	  7066	  7068	  7069	  7074	  7074#	  7075	  7078	  7079	  7090	  7091	  7096	  7097
	  7099	  7100	  7105	  7105#	  7106	  7109	  7110	  7121	  7122	  7127	  7128	  7130	  7131	  7136
	  7136#	  7137	  7140	  7141	  7152	  7153	  7158	  7159	  7161	  7162	  7167	  7167#	  7168	  7171
	  7172	  7183	  7184	  7189	  7190	  7192	  7193	  7198	  7198#	  7199	  7202	  7203	  7214	  7215
	  7220	  7221	  7223	  7224	  7229	  7229#	  7230	  7233	  7234	  7245	  7246	  7251	  7252	  7254
	  7255	  7260	  7260#	  7261	  7264	  7265	  7276	  7277	  7282	  7283	  7285	  7286	  7291	  7291#
	  7292	  7295	  7296	  7307	  7308	  7313	  7314	  7316	  7317	  7322	  7322#	  7323	  7326	  7327
	  7338	  7339	  7344	  7345	  7347	  7348	  7353	  7353#	  7354	  7357	  7358	  7369	  7370	  7375
	  7376	  7378	  7379	  7384	  7384#	  7385	  7388	  7389	  7400	  7401	  7406	  7407	  7409	  7410
	  7415	  7415#	  7416	  7419	  7420	  7431	  7432	  7437	  7438	  7440	  7441	  7446	  7446#	  7447
	  7450	  7451	  7462	  7463	  7468	  7469	  7471	  7472	  7477	  7477#	  7478	  7481	  7482	  7493
	  7494	  7499	  7500	  7502	  7503	  7508	  7508#	  7509	  7512	  7513	  7524	  7525	  7530	  7531
	  7533	  7534	  7539	  7539#	  7540	  7543	  7544	  7555	  7556	  7561	  7562	  7564	  7565	  7570
	  7570#	  7571	  7574	  7575	  7586	  7587	  7592	  7593	  7595	  7596	  7606#	  7619	  7619#	  7620
	  7620#	  7623	  7624	  7631	  7632	  7641	  7642	  7650	  7650#	  7651	  7654	  7655	  7662	  7663
	  7672	  7673	  7681	  7681#	  7682	  7685	  7686	  7693	  7694	  7703	  7704	  7712	  7712#	  7713
	  7716	  7717	  7724	  7725	  7734	  7735	  7743	  7743#	  7744	  7747	  7748	  7755	  7756	  7765
	  7766	  7774	  7774#	  7775	  7778	  7779	  7786	  7787	  7796	  7797	  7805	  7805#	  7806	  7809
	  7810	  7817	  7818	  7827	  7828	  7836	  7836#	  7837	  7840	  7841	  7848	  7849	  7858	  7859
	  7867	  7867#	  7868	  7871	  7872	  7879	  7880	  7889	  7890	  7898	  7898#	  7899	  7902	  7903
	  7910	  7911	  7920	  7921	  7929	  7929#	  7930	  7933	  7934	  7941	  7942	  7951	  7952	  7960
	  7960#	  7961	  7964	  7965	  7972	  7973	  7982	  7983	  7991	  7991#	  7992	  7995	  7996	  8003
	  8004	  8013	  8014	  8022	  8022#	  8023	  8026	  8027	  8034	  8035	  8044	  8045	  8053	  8053#
	  8054	  8057	  8058	  8065	  8066	  8075	  8076	  8084	  8084#	  8085	  8088	  8089	  8096	  8097
	  8106	  8107	  8115	  8115#	  8116	  8119	  8120	  8127	  8128	  8137	  8138	  8146	  8146#	  8147
	  8150	  8151	  8158	  8159	  8168	  8169	  8177	  8177#	  8178	  8181	  8182	  8189	  8190	  8199
	  8200	  8208	  8208#	  8209	  8212	  8213	  8220	  8221	  8230	  8231	  8239	  8239#	  8240	  8243
	  8244	  8251	  8252	  8261	  8262	  8270	  8270#	  8271	  8274	  8275	  8282	  8283	  8292	  8293
	  8301	  8301#	  8302	  8305	  8306	  8313	  8314	  8323	  8324	  8332	  8332#	  8333	  8336	  8337
	  8344	  8345	  8354	  8355	  8363	  8363#	  8364	  8367	  8368	  8375	  8376	  8385	  8386	  8394
	  8394#	  8395	  8398	  8399	  8406	  8407	  8416	  8417	  8425	  8425#	  8426	  8429	  8430	  8437
	  8438	  8447	  8448	  8456	  8456#	  8457	  8460	  8461	  8468	  8469	  8478	  8479	  8487	  8487#
	  8488	  8491	  8492	  8499	  8500	  8509	  8510	  8518	  8518#	  8519	  8522	  8523	  8530	  8531
	  8540	  8541	  8549	  8549#	  8550	  8553	  8554	  8561	  8562	  8571	  8572	  8580	  8580#	  8581
	  8584	  8585	  8592	  8593	  8602	  8603	  8611	  8611#	  8612	  8615	  8616	  8623	  8624	  8633
	  8634	  8642	  8642#	  8643	  8646	  8647	  8654	  8655	  8664	  8665	  8673	  8673#	  8674	  8677     SEQ 0386
	  8678	  8685	  8686	  8695	  8696	  8703#	  8712	  8713	  8736#	  8753	  8753#	  8754	  8754#	  8757
	  8759	  8760	  8773	  8774	  8782	  8783	  8788	  8788#	  8789	  8792	  8794	  8795	  8808	  8809
	  8817	  8818	  8823	  8823#	  8824	  8827	  8829	  8830	  8843	  8844	  8852	  8853	  8858	  8858#
	  8859	  8862	  8864	  8865	  8878	  8879	  8887	  8888	  8893	  8893#	  8894	  8897	  8899	  8900
	  8913	  8914	  8922	  8923	  8928	  8928#	  8929	  8932	  8934	  8935	  8948	  8949	  8957	  8958
	  8963	  8963#	  8964	  8967	  8969	  8970	  8983	  8984	  8992	  8993	  8998	  8998#	  8999	  9002
	  9004	  9005	  9018	  9019	  9027	  9028	  9033	  9033#	  9034	  9037	  9039	  9040	  9053	  9054
	  9062	  9063	  9068	  9068#	  9069	  9072	  9074	  9075	  9088	  9089	  9097	  9098	  9103	  9103#
	  9104	  9107	  9109	  9110	  9123	  9124	  9132	  9133	  9138	  9138#	  9139	  9142	  9144	  9145
	  9158	  9159	  9167	  9168	  9173	  9173#	  9174	  9177	  9179	  9180	  9193	  9194	  9202	  9203
	  9208	  9208#	  9209	  9212	  9214	  9215	  9228	  9229	  9237	  9238	  9243	  9243#	  9244	  9247
	  9249	  9250	  9263	  9264	  9272	  9273	  9278	  9278#	  9279	  9282	  9284	  9285	  9298	  9299
	  9307	  9308	  9313	  9313#	  9314	  9317	  9319	  9320	  9333	  9334	  9342	  9343	  9348	  9348#
	  9349	  9352	  9354	  9355	  9368	  9369	  9377	  9378	  9383	  9383#	  9384	  9387	  9389	  9390
	  9403	  9404	  9412	  9413	  9418	  9418#	  9419	  9422	  9424	  9425	  9438	  9439	  9447	  9448
	  9453	  9453#	  9454	  9457	  9459	  9460	  9473	  9474	  9482	  9483	  9488	  9488#	  9489	  9492
	  9494	  9495	  9508	  9509	  9517	  9518	  9523	  9523#	  9524	  9527	  9529	  9530	  9543	  9544
	  9552	  9553	  9558	  9558#	  9559	  9562	  9564	  9565	  9578	  9579	  9587	  9588	  9593	  9593#
	  9594	  9597	  9599	  9600	  9613	  9614	  9622	  9623	  9628	  9628#	  9629	  9632	  9634	  9635
	  9648	  9649	  9657	  9658	  9663	  9663#	  9664	  9667	  9669	  9670	  9683	  9684	  9692	  9693
	  9698	  9698#	  9699	  9702	  9704	  9705	  9718	  9719	  9727	  9728	  9733	  9733#	  9734	  9737
	  9739	  9740	  9753	  9754	  9762	  9763	  9768	  9768#	  9769	  9772	  9774	  9775	  9788	  9789
	  9797	  9798	  9803	  9803#	  9804	  9807	  9809	  9810	  9823	  9824	  9832	  9833	  9838	  9838#
	  9839	  9842	  9844	  9845	  9858	  9859	  9867	  9868	  9873	  9873#	  9874	  9877	  9879	  9880
	  9893	  9894	  9902	  9903	  9908	  9908#	  9909	  9912	  9914	  9915	  9928	  9929	  9937	  9938
	  9943	  9943#	  9944	  9947	  9949	  9950	  9963	  9964	  9972	  9973	  9978	  9978#	  9979	  9982
	  9985	  9998	  9999	 10007	 10008	 10018#	 10035	 10035#	 10036	 10036#	 10039	 10041	 10042	 10051
	 10052	 10070	 10070#	 10071	 10074	 10076	 10077	 10086	 10087	 10105	 10105#	 10106	 10109	 10111
	 10112	 10121	 10122	 10140	 10140#	 10141	 10144	 10146	 10147	 10156	 10157	 10175	 10175#	 10176
	 10179	 10181	 10182	 10191	 10192	 10210	 10210#	 10211	 10214	 10216	 10217	 10226	 10227	 10245
	 10245#	 10246	 10249	 10251	 10252	 10261	 10262	 10280	 10280#	 10281	 10284	 10286	 10287	 10296
	 10297	 10315	 10315#	 10316	 10319	 10321	 10322	 10331	 10332	 10350	 10350#	 10351	 10354	 10356
	 10357	 10366	 10367	 10385	 10385#	 10386	 10389	 10391	 10392	 10401	 10402	 10420	 10420#	 10421
	 10424	 10426	 10427	 10436	 10437	 10455	 10455#	 10456	 10459	 10461	 10462	 10471	 10472	 10490
	 10490#	 10491	 10494	 10496	 10497	 10506	 10507	 10525	 10525#	 10526	 10529	 10531	 10532	 10541
	 10542	 10560	 10560#	 10561	 10564	 10566	 10567	 10576	 10577	 10595	 10595#	 10596	 10599	 10601
	 10602	 10611	 10612	 10630	 10630#	 10631	 10634	 10636	 10637	 10646	 10647	 10665	 10665#	 10666
	 10669	 10671	 10672	 10681	 10682	 10700	 10700#	 10701	 10704	 10706	 10707	 10716	 10717	 10735
	 10735#	 10736	 10739	 10741	 10742	 10751	 10752	 10770	 10770#	 10771	 10774	 10776	 10777	 10786
	 10787	 10805	 10805#	 10806	 10809	 10811	 10812	 10821	 10822	 10840	 10840#	 10841	 10844	 10846
	 10847	 10856	 10857	 10875	 10875#	 10876	 10879	 10881	 10882	 10891	 10892	 10910	 10910#	 10911
	 10914	 10916	 10917	 10926	 10927	 10945	 10945#	 10946	 10949	 10951	 10952	 10961	 10962	 10980
	 10980#	 10981	 10984	 10986	 10987	 10996	 10997	 11015	 11015#	 11016	 11019	 11021	 11022	 11031
	 11032	 11050	 11050#	 11051	 11054	 11056	 11057	 11066	 11067	 11085	 11085#	 11086	 11089	 11091
	 11092	 11101	 11102	 11120	 11120#	 11121	 11124	 11126	 11127	 11136	 11137	 11155	 11155#	 11156
	 11159	 11161	 11162	 11171	 11172	 11190	 11190#	 11191	 11194	 11196	 11197	 11206	 11207	 11225
	 11225#	 11226	 11229	 11231	 11232	 11241	 11242	 11260#	 11268	 11269	 11278	 11279	 11292#	 11305
	 11305#	 11306	 11306#	 11309	 11310	 11321	 11322	 11327	 11328	 11330	 11331	 11336	 11336#	 11337
	 11340	 11341	 11352	 11353	 11358	 11359	 11361	 11362	 11367	 11367#	 11368	 11371	 11372	 11383
	 11384	 11389	 11390	 11392	 11393	 11398	 11398#	 11399	 11402	 11403	 11414	 11415	 11420	 11421
	 11423	 11424	 11429	 11429#	 11430	 11433	 11434	 11445	 11446	 11451	 11452	 11454	 11455	 11460
	 11460#	 11461	 11464	 11465	 11476	 11477	 11482	 11483	 11485	 11486	 11491	 11491#	 11492	 11495
	 11496	 11507	 11508	 11513	 11514	 11516	 11517	 11522	 11522#	 11523	 11526	 11527	 11538	 11539     SEQ 0387
	 11544	 11545	 11547	 11548	 11553	 11553#	 11554	 11557	 11558	 11569	 11570	 11575	 11576	 11578
	 11579	 11584	 11584#	 11585	 11588	 11589	 11600	 11601	 11606	 11607	 11609	 11610	 11615	 11615#
	 11616	 11619	 11620	 11631	 11632	 11637	 11638	 11640	 11641	 11646	 11646#	 11647	 11650	 11651
	 11662	 11663	 11668	 11669	 11671	 11672	 11677	 11677#	 11678	 11681	 11682	 11693	 11694	 11699
	 11700	 11702	 11703	 11708	 11708#	 11709	 11712	 11713	 11724	 11725	 11730	 11731	 11733	 11734
	 11739	 11739#	 11740	 11743	 11744	 11755	 11756	 11761	 11762	 11764	 11765	 11770	 11770#	 11771
	 11774	 11775	 11786	 11787	 11792	 11793	 11795	 11796	 11801	 11801#	 11802	 11805	 11806	 11817
	 11818	 11823	 11824	 11826	 11827	 11832	 11832#	 11833	 11836	 11837	 11848	 11849	 11854	 11855
	 11857	 11858	 11863	 11863#	 11864	 11867	 11868	 11879	 11880	 11885	 11886	 11888	 11889	 11894
	 11894#	 11895	 11898	 11899	 11910	 11911	 11916	 11917	 11919	 11920	 11925	 11925#	 11926	 11929
	 11930	 11941	 11942	 11947	 11948	 11950	 11951	 11956	 11956#	 11957	 11960	 11961	 11972	 11973
	 11978	 11979	 11981	 11982	 11987	 11987#	 11988	 11991	 11992	 12003	 12004	 12009	 12010	 12012
	 12013	 12018	 12018#	 12019	 12022	 12023	 12034	 12035	 12040	 12041	 12043	 12044	 12049	 12049#
	 12050	 12053	 12054	 12065	 12066	 12071	 12072	 12074	 12075	 12080	 12080#	 12081	 12084	 12085
	 12096	 12097	 12102	 12103	 12105	 12106	 12111	 12111#	 12112	 12115	 12116	 12127	 12128	 12133
	 12134	 12136	 12137	 12142	 12142#	 12143	 12146	 12147	 12158	 12159	 12164	 12165	 12167	 12168
	 12173	 12173#	 12174	 12177	 12178	 12189	 12190	 12195	 12196	 12198	 12199	 12204	 12204#	 12205
	 12208	 12209	 12220	 12221	 12226	 12227	 12229	 12230	 12235	 12235#	 12236	 12239	 12240	 12251
	 12252	 12257	 12258	 12260	 12261	 12266	 12266#	 12267	 12270	 12271	 12282	 12283	 12288	 12289
	 12291	 12292	 12297	 12297#	 12298	 12301	 12302	 12313	 12314	 12319	 12320	 12322	 12323	 12328
	 12328#	 12329	 12332	 12333	 12344	 12345	 12350	 12351	 12353	 12354	 12359	 12359#	 12360	 12363
	 12364	 12375	 12376	 12381	 12382	 12384	 12385	 12390	 12390#	 12391	 12394	 12395	 12406	 12407
	 12412	 12413	 12415	 12416	 12426#	 12439	 12439#	 12440	 12440#	 12443	 12444	 12451	 12452	 12461
	 12462	 12470	 12470#	 12471	 12474	 12475	 12482	 12483	 12492	 12493	 12501	 12501#	 12502	 12505
	 12506	 12513	 12514	 12523	 12524	 12532	 12532#	 12533	 12536	 12537	 12544	 12545	 12554	 12555
	 12563	 12563#	 12564	 12567	 12568	 12575	 12576	 12585	 12586	 12594	 12594#	 12595	 12598	 12599
	 12606	 12607	 12616	 12617	 12625	 12625#	 12626	 12629	 12630	 12637	 12638	 12647	 12648	 12656
	 12656#	 12657	 12660	 12661	 12668	 12669	 12678	 12679	 12687	 12687#	 12688	 12691	 12692	 12699
	 12700	 12709	 12710	 12718	 12718#	 12719	 12722	 12723	 12730	 12731	 12740	 12741	 12749	 12749#
	 12750	 12753	 12754	 12761	 12762	 12771	 12772	 12780	 12780#	 12781	 12784	 12785	 12792	 12793
	 12802	 12803	 12811	 12811#	 12812	 12815	 12816	 12823	 12824	 12833	 12834	 12842	 12842#	 12843
	 12846	 12847	 12854	 12855	 12864	 12865	 12873	 12873#	 12874	 12877	 12878	 12885	 12886	 12895
	 12896	 12904	 12904#	 12905	 12908	 12909	 12916	 12917	 12926	 12927	 12935	 12935#	 12936	 12939
	 12940	 12947	 12948	 12957	 12958	 12966	 12966#	 12967	 12970	 12971	 12978	 12979	 12988	 12989
	 12997	 12997#	 12998	 13001	 13002	 13009	 13010	 13019	 13020	 13028	 13028#	 13029	 13032	 13033
	 13040	 13041	 13050	 13051	 13059	 13059#	 13060	 13063	 13064	 13071	 13072	 13081	 13082	 13090
	 13090#	 13091	 13094	 13095	 13102	 13103	 13112	 13113	 13121	 13121#	 13122	 13125	 13126	 13133
	 13134	 13143	 13144	 13152	 13152#	 13153	 13156	 13157	 13164	 13165	 13174	 13175	 13183	 13183#
	 13184	 13187	 13188	 13195	 13196	 13205	 13206	 13214	 13214#	 13215	 13218	 13219	 13226	 13227
	 13236	 13237	 13245	 13245#	 13246	 13249	 13250	 13257	 13258	 13267	 13268	 13276	 13276#	 13277
	 13280	 13281	 13288	 13289	 13298	 13299	 13307	 13307#	 13308	 13311	 13312	 13319	 13320	 13329
	 13330	 13338	 13338#	 13339	 13342	 13343	 13350	 13351	 13360	 13361	 13369	 13369#	 13370	 13373
	 13374	 13381	 13382	 13391	 13392	 13400	 13400#	 13401	 13404	 13405	 13412	 13413	 13422	 13423
	 13431	 13431#	 13432	 13435	 13436	 13443	 13444	 13453	 13454	 13462	 13462#	 13463	 13466	 13467
	 13474	 13475	 13484	 13485	 13493	 13493#	 13494	 13497	 13498	 13505	 13506	 13515	 13516	 13524
	 13524#	 13525	 13528	 13529	 13536	 13537	 13546	 13547	 13560#	 13574	 13574#	 13575	 13575#	 13578
	 13579	 13580	 13591	 13592	 13600	 13601	 13606	 13606#	 13607	 13610	 13611	 13612	 13623	 13624
	 13632	 13633	 13638	 13638#	 13639	 13642	 13643	 13644	 13655	 13656	 13664	 13665	 13670	 13670#
	 13671	 13674	 13675	 13676	 13687	 13688	 13696	 13697	 13702	 13702#	 13703	 13706	 13707	 13708
	 13719	 13720	 13728	 13729	 13734	 13734#	 13735	 13738	 13739	 13740	 13751	 13752	 13760	 13761
	 13766	 13766#	 13767	 13770	 13771	 13772	 13783	 13784	 13792	 13793	 13798	 13798#	 13799	 13802
	 13803	 13804	 13815	 13816	 13824	 13825	 13830	 13830#	 13831	 13834	 13835	 13836	 13847	 13848
	 13856	 13857	 13862	 13862#	 13863	 13866	 13867	 13868	 13879	 13880	 13888	 13889	 13894	 13894#    SEQ 0388
	 13895	 13898	 13899	 13900	 13911	 13912	 13920	 13921	 13926	 13926#	 13927	 13930	 13931	 13932
	 13943	 13944	 13952	 13953	 13958	 13958#	 13959	 13962	 13963	 13964	 13975	 13976	 13984	 13985
	 13990	 13990#	 13991	 13994	 13995	 13996	 14007	 14008	 14016	 14017	 14022	 14022#	 14023	 14026
	 14027	 14028	 14039	 14040	 14048	 14049	 14054	 14054#	 14055	 14058	 14059	 14060	 14071	 14072
	 14080	 14081	 14086	 14086#	 14087	 14090	 14091	 14092	 14103	 14104	 14112	 14113	 14118	 14118#
	 14119	 14122	 14123	 14124	 14135	 14136	 14144	 14145	 14150	 14150#	 14151	 14154	 14155	 14156
	 14167	 14168	 14176	 14177	 14182	 14182#	 14183	 14186	 14187	 14188	 14199	 14200	 14208	 14209
	 14214	 14214#	 14215	 14218	 14219	 14220	 14231	 14232	 14240	 14241	 14246	 14246#	 14247	 14250
	 14251	 14252	 14263	 14264	 14272	 14273	 14278	 14278#	 14279	 14282	 14283	 14284	 14295	 14296
	 14304	 14305	 14310	 14310#	 14311	 14314	 14315	 14316	 14327	 14328	 14336	 14337	 14342	 14342#
	 14343	 14346	 14347	 14348	 14359	 14360	 14368	 14369	 14374	 14374#	 14375	 14378	 14379	 14380
	 14391	 14392	 14400	 14401	 14406	 14406#	 14407	 14410	 14411	 14412	 14423	 14424	 14432	 14433
	 14438	 14438#	 14439	 14442	 14443	 14444	 14455	 14456	 14464	 14465	 14470	 14470#	 14471	 14474
	 14475	 14476	 14487	 14488	 14496	 14497	 14502	 14502#	 14503	 14506	 14507	 14508	 14519	 14520
	 14528	 14529	 14534	 14534#	 14535	 14538	 14539	 14540	 14551	 14552	 14560	 14561	 14566	 14566#
	 14567	 14570	 14571	 14572	 14583	 14584	 14592	 14593	 14598	 14598#	 14599	 14602	 14603	 14604
	 14615	 14616	 14624	 14625	 14630	 14630#	 14631	 14634	 14635	 14636	 14647	 14648	 14656	 14657
	 14662	 14662#	 14663	 14666	 14667	 14668	 14679	 14680	 14688	 14689	 14694	 14694#	 14695	 14698
	 14699	 14700	 14711	 14712	 14720	 14721	 14731#	 14745	 14745#	 14746	 14746#	 14749	 14750	 14751
	 14758	 14759	 14777	 14777#	 14778	 14781	 14782	 14783	 14790	 14791	 14809	 14809#	 14810	 14813
	 14814	 14815	 14822	 14823	 14841	 14841#	 14842	 14845	 14846	 14847	 14854	 14855	 14873	 14873#
	 14874	 14877	 14878	 14879	 14886	 14887	 14905	 14905#	 14906	 14909	 14910	 14911	 14918	 14919
	 14937	 14937#	 14938	 14941	 14942	 14943	 14950	 14951	 14969	 14969#	 14970	 14973	 14974	 14975
	 14982	 14983	 15001	 15001#	 15002	 15005	 15006	 15007	 15014	 15015	 15033	 15033#	 15034	 15037
	 15038	 15039	 15046	 15047	 15065	 15065#	 15066	 15069	 15070	 15071	 15078	 15079	 15097	 15097#
	 15098	 15101	 15102	 15103	 15110	 15111	 15129	 15129#	 15130	 15133	 15134	 15135	 15142	 15143
	 15161	 15161#	 15162	 15165	 15166	 15167	 15174	 15175	 15193	 15193#	 15194	 15197	 15198	 15199
	 15206	 15207	 15225	 15225#	 15226	 15229	 15230	 15231	 15238	 15239	 15257	 15257#	 15258	 15261
	 15262	 15263	 15270	 15271	 15289	 15289#	 15290	 15293	 15294	 15295	 15302	 15303	 15321	 15321#
	 15322	 15325	 15326	 15327	 15334	 15335	 15353	 15353#	 15354	 15357	 15358	 15359	 15366	 15367
	 15385	 15385#	 15386	 15389	 15390	 15391	 15398	 15399	 15417	 15417#	 15418	 15421	 15422	 15423
	 15430	 15431	 15449	 15449#	 15450	 15453	 15454	 15455	 15462	 15463	 15481	 15481#	 15482	 15485
	 15486	 15487	 15494	 15495	 15513	 15513#	 15514	 15517	 15518	 15519	 15526	 15527	 15545	 15545#
	 15546	 15549	 15550	 15551	 15558	 15559	 15577	 15577#	 15578	 15581	 15582	 15583	 15590	 15591
	 15609	 15609#	 15610	 15613	 15614	 15615	 15622	 15623	 15641	 15641#	 15642	 15645	 15646	 15647
	 15654	 15655	 15673	 15673#	 15674	 15677	 15678	 15679	 15686	 15687	 15705	 15705#	 15706	 15709
	 15710	 15711	 15718	 15719	 15737	 15737#	 15738	 15741	 15742	 15743	 15750	 15751	 15769	 15769#
	 15770	 15773	 15774	 15775	 15782	 15783	 15801	 15801#	 15802	 15805	 15806	 15807	 15814	 15815
	 15833	 15833#	 15834	 15837	 15838	 15839	 15846	 15847	 15865	 15865#	 15866	 15869	 15870	 15871
	 15878	 15879	 15905#	 15928	 15928#	 15930	 15931	 15931#	 15937	 15938	 15945	 15946	 15966	 15966#
	 15968	 15969	 15975	 15976	 15983	 15984	 16004	 16004#	 16006	 16007	 16013	 16014	 16021	 16022
	 16042	 16042#	 16044	 16045	 16051	 16052	 16059	 16060	 16080	 16080#	 16082	 16083	 16089	 16090
	 16097	 16098	 16118	 16118#	 16120	 16121	 16127	 16128	 16135	 16136	 16156	 16156#	 16158	 16159
	 16165	 16166	 16173	 16174	 16194	 16194#	 16196	 16197	 16203	 16204	 16211	 16212	 16232	 16232#
	 16234	 16235	 16241	 16242	 16249	 16250	 16270	 16270#	 16272	 16273	 16279	 16280	 16287	 16288
	 16308	 16308#	 16310	 16311	 16317	 16318	 16325	 16326	 16346	 16346#	 16348	 16349	 16355	 16356
	 16363	 16364	 16384	 16384#	 16386	 16387	 16393	 16394	 16401	 16402	 16422	 16422#	 16424	 16425
	 16431	 16432	 16439	 16440	 16460	 16460#	 16462	 16463	 16469	 16470	 16477	 16478	 16498	 16498#
	 16500	 16501	 16507	 16508	 16515	 16516	 16536	 16536#	 16538	 16539	 16545	 16546	 16553	 16554
	 16574	 16574#	 16576	 16577	 16583	 16584	 16591	 16592	 16612	 16612#	 16614	 16615	 16621	 16622
	 16629	 16630	 16650	 16650#	 16652	 16653	 16659	 16660	 16667	 16668	 16688	 16688#	 16690	 16691
	 16697	 16698	 16705	 16706	 16726	 16726#	 16728	 16729	 16735	 16736	 16743	 16744	 16764	 16764#
	 16766	 16767	 16773	 16774	 16781	 16782	 16802	 16802#	 16804	 16805	 16811	 16812	 16819	 16820     SEQ 0389
	 16840	 16840#	 16842	 16843	 16849	 16850	 16857	 16858	 16878	 16878#	 16880	 16881	 16887	 16888
	 16895	 16896	 16916	 16916#	 16918	 16919	 16925	 16926	 16933	 16934	 16954	 16954#	 16956	 16957
	 16963	 16964	 16971	 16972	 16992	 16992#	 16994	 16995	 17001	 17002	 17009	 17010	 17030	 17030#
	 17032	 17033	 17039	 17040	 17047	 17048	 17068	 17068#	 17070	 17071	 17077	 17078	 17085	 17086
	 17106	 17106#	 17108	 17109	 17115	 17116	 17123	 17124	 17144	 17144#	 17146	 17147	 17153	 17154
	 17161	 17162	 17182	 17182#	 17184	 17185	 17191	 17192	 17199	 17200	 17220	 17220#	 17222	 17223
	 17229	 17230	 17237	 17238	 17257#	 17268	 17269
ZZ	 15906#	 15929	 15929#	 15930#	 15935	 15967	 15967#	 15973	 16005	 16005#	 16011	 16043	 16043#	 16049
	 16081	 16081#	 16087	 16119	 16119#	 16125	 16157	 16157#	 16163	 16195	 16195#	 16201	 16233	 16233#
	 16239	 16271	 16271#	 16277	 16309	 16309#	 16315	 16347	 16347#	 16353	 16385	 16385#	 16391	 16423
	 16423#	 16429	 16461	 16461#	 16467	 16499	 16499#	 16505	 16537	 16537#	 16543	 16575	 16575#	 16581
	 16613	 16613#	 16619	 16651	 16651#	 16657	 16689	 16689#	 16695	 16727	 16727#	 16733	 16765	 16765#
	 16771	 16803	 16803#	 16809	 16841	 16841#	 16847	 16879	 16879#	 16885	 16917	 16917#	 16923	 16955
	 16955#	 16961	 16993	 16993#	 16999	 17031	 17031#	 17037	 17069	 17069#	 17075	 17107	 17107#	 17113
	 17145	 17145#	 17151	 17183	 17183#	 17189	 17221	 17221#	 17227
$$MUUO	   646#
$$OUTE	   652#
$$TAX1	   664#
$$TAX2	   665#
$$TOGG	   658#
$$UUO	   635#
$ACC0	   473#
$ACF	 17398#
$BEND1	   443#
$BEND2	   444#	 17440
$CHRIN	   534#
$CRLF	   536#
$DEVCH	   360#
$DSKUP	   413#
$DVCH1	   360#
$DVOFF	   530#
$EMODE	   411#
$ENDFX	   680#	   681
$FFF	   538#
$IBUF	   586#
$INEXT	   588#
$INNM	   587#
$ITRHL	   454#
$ITRX1	   455#
$LPAPE	 17461
$MMAP	   414#
$MODVL	   409#
$MODVU	   410#
$OBUF	   577#
$ONETM	   437#
$OUTEX	   579#
$OUTNM	   578#
$PAPER	   360
$PARER	   461#
$PNAME	   407#
$PSHER	   465#
$PVER	   408#
$RSRTX	   457#                                                                                                            SEQ 0390
$RSRTY	   458#
$SPAG1	   477#
$START	   374#
$SVAPR	   475#
$SVPAG	   476#
$SVPI	   474#
$SVUPC	   480#	 17301	 17305	 17335
$SVUUO	   479#	 17314	 17346	 17374
$TABF	   537#
$TTCHR	   533#
$TWCNT	   529#
$TYPNB	   535#
$UMODE	   412#
$UORTX	   452#
$USRHL	   456#
$UUOER	   453#	   494
$VTF	   539#
%AC1F	 17399#
%ACS1A	 17316#	 17316	 17360
%ACTFL	   486#
%ACTUL	   487#
%ALF	 17404#
%AR1F	 17403#
%ARF	 17402#
%COREC	   485#
%CORFL	   484#
%DISCR	   488#
%E1F	 17401#
%EEF	 17405#
%EF	 17400#
%ER4X	 17380	 17385#
%ER5X	 17378	 17387#
%ER6X	 17376	 17389#
%ER7X	 17382#	 17386	 17388	 17390
%ERAC0	 17290#	 17290	 17317	 17351	 17442
%ERAC1	 17298#	 17298	 17318	 17430
%ERAC2	 17299#	 17299	 17429
%ERFST	 17324#	 17324	 17326
%ERHI1	   627#
%ERHI2	   628#
%ERHI3	   629#
%ERMOR	 17356	 17383	 17412#
%ERMS1	 17321#	 17455
%ERMS2	 17344#
%ERMS3	 17362	 17369#
%ERRS1	 17313	 17416#	 17454
%ERRS2	 17429#
%ERRS4	 17320	 17452#
%ERRS5	 17433	 17437	 17442#
%FF	 17406#
%FLTTB	 17364	 17395#
%NODES	 17396#
.JB41	   360#                                                                                                            SEQ 0391
.JBAPR	   360#
.JBCNI	   360#
.JBDDT	   360#
.JBFF	   360#
.JBOPC	   360#
.JBREL	   360#
.JBREN	   360#
.JBSA	   360#
.JBSYM	   360#
.JBTPC	   360#
.JBUSY	   360#
.JBUUO	   360#
.JBVER	   360#
CFLUSH	   316#
CINVAL	   315#                                                                                                            SEQ 0392
CLOKOP	   310#
CWRTBI	   317#
DROPDV	   277#	   685
ENDUUO	   323#	   442
EOPUUO	   324#	   444
ER1	    32#
ER10	    39#
ER11	    40#
ER12	    41#
ER13	    42#
ER2	    33#
ER3	    34#	   737	   783	   812	   841	   870	   899	   928	   957	   986	  1015	  1044	  1073	  1102
	  1131	  1160	  1189	  1218	  1247	  1276	  1305	  1334	  1363	  1392	  1421	  1450	  1479	  1508
	  1537	  1566	  1595	  1624	  1653	  1682	  1711	  1740	  1769	  1798	  1843	  1872	  1901	  1930
	  1959	  1988	  2017	  2046	  2075	  2104	  2133	  2162	  2191	  2220	  2249	  2278	  2307	  2336
	  2365	  2394	  2423	  2452	  2481	  2510	  2539	  2568	  2597	  2626	  2655	  2684	  2713	  2742
	  2771	  2800	  2829	  2858	  2891	  2960	  2999	  3038	  3077	  3116	  3155	  3194	  3233	  3272
	  3311	  3350	  3389	  3428	  3467	  3506	  3545	  3624	  3669	  3714	  3759	  3804	  3849	  3894
	  3939	  3984	  4029	  4074	  4119	  4164	  4209	  4254	  4299	  4346	  4375	  4404	  4433	  4462
	  4491	  4520	  4549	  4578	  4607	  4636	  4665	  4694	  4723	  4752	  4781	  4810	  4839	  4868
	  4897	  4926	  4955	  4984	  5013	  5042	  5071	  5100	  5129	  5158	  5187	  5216	  5245	  5274
	  5303	  5332	  5361	  5406	  5435	  5464	  5493	  5522	  5551	  5580	  5609	  5638	  5667	  5696
	  5725	  5754	  5783	  5812	  5841	  5870	  5899	  5928	  5957	  5986	  6015	  6044	  6073	  6102
	  6131	  6160	  6189	  6218	  6247	  6276	  6305	  6334	  6363	  6392	  6421	  6454	  6506	  6537
	  6568	  6599	  6630	  6661	  6692	  6723	  6754	  6785	  6816	  6847	  6878	  6909	  6940	  6971
	  7002	  7033	  7064	  7095	  7126	  7157	  7188	  7219	  7250	  7281	  7312	  7343	  7374	  7405
	  7436	  7467	  7498	  7529	  7560	  7591	  7640	  7671	  7702	  7733	  7764	  7795	  7826	  7857
	  7888	  7919	  7950	  7981	  8012	  8043	  8074	  8105	  8136	  8167	  8198	  8229	  8260	  8291
	  8322	  8353	  8384	  8415	  8446	  8477	  8508	  8539	  8570	  8601	  8632	  8663	  8694	  8721
	  8778	  8813	  8848	  8883	  8918	  8953	  8988	  9023	  9058	  9093	  9128	  9163	  9198	  9233
	  9268	  9303	  9338	  9373	  9408	  9443	  9478	  9513	  9548	  9583	  9618	  9653	  9688	  9723
	  9758	  9793	  9828	  9863	  9898	  9933	  9968	 10003	 10060	 10095	 10130	 10165	 10200	 10235
	 10270	 10305	 10340	 10375	 10410	 10445	 10480	 10515	 10550	 10585	 10620	 10655	 10690	 10725
	 10760	 10795	 10830	 10865	 10900	 10935	 10970	 11005	 11040	 11075	 11110	 11145	 11180	 11215
	 11250	 11277	 11326	 11357	 11388	 11419	 11450	 11481	 11512	 11543	 11574	 11605	 11636	 11667
	 11698	 11729	 11760	 11791	 11822	 11853	 11884	 11915	 11946	 11977	 12008	 12039	 12070	 12101
	 12132	 12163	 12194	 12225	 12256	 12287	 12318	 12349	 12380	 12411	 12460	 12491	 12522	 12553
	 12584	 12615	 12646	 12677	 12708	 12739	 12770	 12801	 12832	 12863	 12894	 12925	 12956	 12987
	 13018	 13049	 13080	 13111	 13142	 13173	 13204	 13235	 13266	 13297	 13328	 13359	 13390	 13421
	 13452	 13483	 13514	 13545	 13596	 13628	 13660	 13692	 13724	 13756	 13788	 13820	 13852	 13884
	 13916	 13948	 13980	 14012	 14044	 14076	 14108	 14140	 14172	 14204	 14236	 14268	 14300	 14332
	 14364	 14396	 14428	 14460	 14492	 14524	 14556	 14588	 14620	 14652	 14684	 14716	 14767	 14799
	 14831	 14863	 14895	 14927	 14959	 14991	 15023	 15055	 15087	 15119	 15151	 15183	 15215	 15247
	 15279	 15311	 15343	 15375	 15407	 15439	 15471	 15503	 15535	 15567	 15599	 15631	 15663	 15695
	 15727	 15759	 15791	 15823	 15855	 15887	 15954	 15992	 16030	 16068	 16106	 16144	 16182	 16220
	 16258	 16296	 16334	 16372	 16410	 16448	 16486	 16524	 16562	 16600	 16638	 16676	 16714	 16752
	 16790	 16828	 16866	 16904	 16942	 16980	 17018	 17056	 17094	 17132	 17170	 17208	 17246	 17277
ER4	    35#	   740	   786	   815	   844	   873	   902	   931	   960	   989	  1018	  1047	  1076	  1105
	  1134	  1163	  1192	  1221	  1250	  1279	  1308	  1337	  1366	  1395	  1424	  1453	  1482	  1511
	  1540	  1569	  1598	  1627	  1656	  1685	  1714	  1743	  1772	  1801	  1846	  1875	  1904	  1933
	  1962	  1991	  2020	  2049	  2078	  2107	  2136	  2165	  2194	  2223	  2252	  2281	  2310	  2339
	  2368	  2397	  2426	  2455	  2484	  2513	  2542	  2571	  2600	  2629	  2658	  2687	  2716	  2745
	  2774	  2803	  2832	  2861	  2894	  2963	  3002	  3041	  3080	  3119	  3158	  3197	  3236	  3275     SEQ 0393
	  3314	  3353	  3392	  3431	  3470	  3509	  3548	  3627	  3672	  3717	  3762	  3807	  3852	  3897
	  3942	  3987	  4032	  4077	  4122	  4167	  4212	  4257	  4302	  4349	  4378	  4407	  4436	  4465
	  4494	  4523	  4552	  4581	  4610	  4639	  4668	  4697	  4726	  4755	  4784	  4813	  4842	  4871
	  4900	  4929	  4958	  4987	  5016	  5045	  5074	  5103	  5132	  5161	  5190	  5219	  5248	  5277
	  5306	  5335	  5364	  5409	  5438	  5467	  5496	  5525	  5554	  5583	  5612	  5641	  5670	  5699
	  5728	  5757	  5786	  5815	  5844	  5873	  5902	  5931	  5960	  5989	  6018	  6047	  6076	  6105
	  6134	  6163	  6192	  6221	  6250	  6279	  6308	  6337	  6366	  6395	  6424	  6457	  6509	  6540
	  6571	  6602	  6633	  6664	  6695	  6726	  6757	  6788	  6819	  6850	  6881	  6912	  6943	  6974
	  7005	  7036	  7067	  7098	  7129	  7160	  7191	  7222	  7253	  7284	  7315	  7346	  7377	  7408
	  7439	  7470	  7501	  7532	  7563	  7594	  7643	  7674	  7705	  7736	  7767	  7798	  7829	  7860
	  7891	  7922	  7953	  7984	  8015	  8046	  8077	  8108	  8139	  8170	  8201	  8232	  8263	  8294
	  8325	  8356	  8387	  8418	  8449	  8480	  8511	  8542	  8573	  8604	  8635	  8666	  8697	  8724
	  8781	  8816	  8851	  8886	  8921	  8956	  8991	  9026	  9061	  9096	  9131	  9166	  9201	  9236
	  9271	  9306	  9341	  9376	  9411	  9446	  9481	  9516	  9551	  9586	  9621	  9656	  9691	  9726
	  9761	  9796	  9831	  9866	  9901	  9936	  9971	 10006	 10063	 10098	 10133	 10168	 10203	 10238
	 10273	 10308	 10343	 10378	 10413	 10448	 10483	 10518	 10553	 10588	 10623	 10658	 10693	 10728
	 10763	 10798	 10833	 10868	 10903	 10938	 10973	 11008	 11043	 11078	 11113	 11148	 11183	 11218
	 11253	 11280	 11329	 11360	 11391	 11422	 11453	 11484	 11515	 11546	 11577	 11608	 11639	 11670
	 11701	 11732	 11763	 11794	 11825	 11856	 11887	 11918	 11949	 11980	 12011	 12042	 12073	 12104
	 12135	 12166	 12197	 12228	 12259	 12290	 12321	 12352	 12383	 12414	 12463	 12494	 12525	 12556
	 12587	 12618	 12649	 12680	 12711	 12742	 12773	 12804	 12835	 12866	 12897	 12928	 12959	 12990
	 13021	 13052	 13083	 13114	 13145	 13176	 13207	 13238	 13269	 13300	 13331	 13362	 13393	 13424
	 13455	 13486	 13517	 13548	 13599	 13631	 13663	 13695	 13727	 13759	 13791	 13823	 13855	 13887
	 13919	 13951	 13983	 14015	 14047	 14079	 14111	 14143	 14175	 14207	 14239	 14271	 14303	 14335
	 14367	 14399	 14431	 14463	 14495	 14527	 14559	 14591	 14623	 14655	 14687	 14719	 14770	 14802
	 14834	 14866	 14898	 14930	 14962	 14994	 15026	 15058	 15090	 15122	 15154	 15186	 15218	 15250
	 15282	 15314	 15346	 15378	 15410	 15442	 15474	 15506	 15538	 15570	 15602	 15634	 15666	 15698
	 15730	 15762	 15794	 15826	 15858	 15890	 15957	 15995	 16033	 16071	 16109	 16147	 16185	 16223
	 16261	 16299	 16337	 16375	 16413	 16451	 16489	 16527	 16565	 16603	 16641	 16679	 16717	 16755
	 16793	 16831	 16869	 16907	 16945	 16983	 17021	 17059	 17097	 17135	 17173	 17211	 17249	 17280
ER5	    36#	   743	   789	   818	   847	   876	   905	   934	   963	   992	  1021	  1050	  1079	  1108
	  1137	  1166	  1195	  1224	  1253	  1282	  1311	  1340	  1369	  1398	  1427	  1456	  1485	  1514
	  1543	  1572	  1601	  1630	  1659	  1688	  1717	  1746	  1775	  1804	  1849	  1878	  1907	  1936
	  1965	  1994	  2023	  2052	  2081	  2110	  2139	  2168	  2197	  2226	  2255	  2284	  2313	  2342
	  2371	  2400	  2429	  2458	  2487	  2516	  2545	  2574	  2603	  2632	  2661	  2690	  2719	  2748
	  2777	  2806	  2835	  2864	  2897	  2966	  3005	  3044	  3083	  3122	  3161	  3200	  3239	  3278
	  3317	  3356	  3395	  3434	  3473	  3512	  3551	  3630	  3675	  3720	  3765	  3810	  3855	  3900
	  3945	  3990	  4035	  4080	  4125	  4170	  4215	  4260	  4305	  4352	  4381	  4410	  4439	  4468
	  4497	  4526	  4555	  4584	  4613	  4642	  4671	  4700	  4729	  4758	  4787	  4816	  4845	  4874
	  4903	  4932	  4961	  4990	  5019	  5048	  5077	  5106	  5135	  5164	  5193	  5222	  5251	  5280
	  5309	  5338	  5367	  5412	  5441	  5470	  5499	  5528	  5557	  5586	  5615	  5644	  5673	  5702
	  5731	  5760	  5789	  5818	  5847	  5876	  5905	  5934	  5963	  5992	  6021	  6050	  6079	  6108
	  6137	  6166	  6195	  6224	  6253	  6282	  6311	  6340	  6369	  6398	  6427	  6460	  6512	  6543
	  6574	  6605	  6636	  6667	  6698	  6729	  6760	  6791	  6822	  6853	  6884	  6915	  6946	  6977
	  7008	  7039	  7070	  7101	  7132	  7163	  7194	  7225	  7256	  7287	  7318	  7349	  7380	  7411
	  7442	  7473	  7504	  7535	  7566	  7597	  7646	  7677	  7708	  7739	  7770	  7801	  7832	  7863
	  7894	  7925	  7956	  7987	  8018	  8049	  8080	  8111	  8142	  8173	  8204	  8235	  8266	  8297
	  8328	  8359	  8390	  8421	  8452	  8483	  8514	  8545	  8576	  8607	  8638	  8669	  8700	  8727
	  8784	  8819	  8854	  8889	  8924	  8959	  8994	  9029	  9064	  9099	  9134	  9169	  9204	  9239
	  9274	  9309	  9344	  9379	  9414	  9449	  9484	  9519	  9554	  9589	  9624	  9659	  9694	  9729
	  9764	  9799	  9834	  9869	  9904	  9939	  9974	 10009	 10066	 10101	 10136	 10171	 10206	 10241
	 10276	 10311	 10346	 10381	 10416	 10451	 10486	 10521	 10556	 10591	 10626	 10661	 10696	 10731
	 10766	 10801	 10836	 10871	 10906	 10941	 10976	 11011	 11046	 11081	 11116	 11151	 11186	 11221     SEQ 0394
	 11256	 11283	 11332	 11363	 11394	 11425	 11456	 11487	 11518	 11549	 11580	 11611	 11642	 11673
	 11704	 11735	 11766	 11797	 11828	 11859	 11890	 11921	 11952	 11983	 12014	 12045	 12076	 12107
	 12138	 12169	 12200	 12231	 12262	 12293	 12324	 12355	 12386	 12417	 12466	 12497	 12528	 12559
	 12590	 12621	 12652	 12683	 12714	 12745	 12776	 12807	 12838	 12869	 12900	 12931	 12962	 12993
	 13024	 13055	 13086	 13117	 13148	 13179	 13210	 13241	 13272	 13303	 13334	 13365	 13396	 13427
	 13458	 13489	 13520	 13551	 13602	 13634	 13666	 13698	 13730	 13762	 13794	 13826	 13858	 13890
	 13922	 13954	 13986	 14018	 14050	 14082	 14114	 14146	 14178	 14210	 14242	 14274	 14306	 14338
	 14370	 14402	 14434	 14466	 14498	 14530	 14562	 14594	 14626	 14658	 14690	 14722	 14773	 14805
	 14837	 14869	 14901	 14933	 14965	 14997	 15029	 15061	 15093	 15125	 15157	 15189	 15221	 15253
	 15285	 15317	 15349	 15381	 15413	 15445	 15477	 15509	 15541	 15573	 15605	 15637	 15669	 15701
	 15733	 15765	 15797	 15829	 15861	 15893	 15960	 15998	 16036	 16074	 16112	 16150	 16188	 16226
	 16264	 16302	 16340	 16378	 16416	 16454	 16492	 16530	 16568	 16606	 16644	 16682	 16720	 16758
	 16796	 16834	 16872	 16910	 16948	 16986	 17024	 17062	 17100	 17138	 17176	 17214	 17252	 17283
ER6	    37#
ER7	    38#
ERRHLT	   212#	 17423
FATAL	   211#
FRD36	   352#
FRD8	   353#
FREAD	   351#
FSELEC	   350#
GET	   195#
GO	   192#
HALT	   197#	   463
JEN	   199#
JRSTF	   198#
MAPADR	   333#
MAPCNK	   334#
MAPMEM	   330#
MAPPNT	   336#
MAPSET	   335#
MEMSEG	   332#
MEMZRO	   331#
MODPCP	   343#
MODPCU	   342#
MOP1	    98#	   722	   768	   797	   826	   855	   884	   913	   942	   971	  1000	  1029	  1058	  1087
	  1116	  1145	  1174	  1203	  1232	  1261	  1290	  1319	  1348	  1377	  1406	  1435	  1464	  1493
	  1522	  1551	  1580	  1609	  1638	  1667	  1696	  1725	  1754	  1783	  1828	  1857	  1886	  1915
	  1944	  1973	  2002	  2031	  2060	  2089	  2118	  2147	  2176	  2205	  2234	  2263	  2292	  2321
	  2350	  2379	  2408	  2437	  2466	  2495	  2524	  2553	  2582	  2611	  2640	  2669	  2698	  2727
	  2756	  2785	  2814	  2843	  2876	  2945	  2984	  3023	  3062	  3101	  3140	  3179	  3218	  3257
	  3296	  3335	  3374	  3413	  3452	  3491	  3530	  3609	  3654	  3699	  3744	  3789	  3834	  3879
	  3924	  3969	  4014	  4059	  4104	  4149	  4194	  4239	  4284	  4331	  4360	  4389	  4418	  4447
	  4476	  4505	  4534	  4563	  4592	  4621	  4650	  4679	  4708	  4737	  4766	  4795	  4824	  4853
	  4882	  4911	  4940	  4969	  4998	  5027	  5056	  5085	  5114	  5143	  5172	  5201	  5230	  5259
	  5288	  5317	  5346	  5391	  5420	  5449	  5478	  5507	  5536	  5565	  5594	  5623	  5652	  5681
	  5710	  5739	  5768	  5797	  5826	  5855	  5884	  5913	  5942	  5971	  6000	  6029	  6058	  6087
	  6116	  6145	  6174	  6203	  6232	  6261	  6290	  6319	  6348	  6377	  6406	  6439	  6491	  6522
	  6553	  6584	  6615	  6646	  6677	  6708	  6739	  6770	  6801	  6832	  6863	  6894	  6925	  6956
	  6987	  7018	  7049	  7080	  7111	  7142	  7173	  7204	  7235	  7266	  7297	  7328	  7359	  7390
	  7421	  7452	  7483	  7514	  7545	  7576	  7625	  7656	  7687	  7718	  7749	  7780	  7811	  7842
	  7873	  7904	  7935	  7966	  7997	  8028	  8059	  8090	  8121	  8152	  8183	  8214	  8245	  8276
	  8307	  8338	  8369	  8400	  8431	  8462	  8493	  8524	  8555	  8586	  8617	  8648	  8679	  8706     SEQ 0395
	  8763	  8798	  8833	  8868	  8903	  8938	  8973	  9008	  9043	  9078	  9113	  9148	  9183	  9218
	  9253	  9288	  9323	  9358	  9393	  9428	  9463	  9498	  9533	  9568	  9603	  9638	  9673	  9708
	  9743	  9778	  9813	  9848	  9883	  9918	  9953	  9988	 10045	 10080	 10115	 10150	 10185	 10220
	 10255	 10290	 10325	 10360	 10395	 10430	 10465	 10500	 10535	 10570	 10605	 10640	 10675	 10710
	 10745	 10780	 10815	 10850	 10885	 10920	 10955	 10990	 11025	 11060	 11095	 11130	 11165	 11200
	 11235	 11262	 11311	 11342	 11373	 11404	 11435	 11466	 11497	 11528	 11559	 11590	 11621	 11652
	 11683	 11714	 11745	 11776	 11807	 11838	 11869	 11900	 11931	 11962	 11993	 12024	 12055	 12086
	 12117	 12148	 12179	 12210	 12241	 12272	 12303	 12334	 12365	 12396	 12445	 12476	 12507	 12538
	 12569	 12600	 12631	 12662	 12693	 12724	 12755	 12786	 12817	 12848	 12879	 12910	 12941	 12972
	 13003	 13034	 13065	 13096	 13127	 13158	 13189	 13220	 13251	 13282	 13313	 13344	 13375	 13406
	 13437	 13468	 13499	 13530	 13581	 13613	 13645	 13677	 13709	 13741	 13773	 13805	 13837	 13869
	 13901	 13933	 13965	 13997	 14029	 14061	 14093	 14125	 14157	 14189	 14221	 14253	 14285	 14317
	 14349	 14381	 14413	 14445	 14477	 14509	 14541	 14573	 14605	 14637	 14669	 14701	 14752	 14784
	 14816	 14848	 14880	 14912	 14944	 14976	 15008	 15040	 15072	 15104	 15136	 15168	 15200	 15232
	 15264	 15296	 15328	 15360	 15392	 15424	 15456	 15488	 15520	 15552	 15584	 15616	 15648	 15680
	 15712	 15744	 15776	 15808	 15840	 15872	 15939	 15977	 16015	 16053	 16091	 16129	 16167	 16205
	 16243	 16281	 16319	 16357	 16395	 16433	 16471	 16509	 16547	 16585	 16623	 16661	 16699	 16737
	 16775	 16813	 16851	 16889	 16927	 16965	 17003	 17041	 17079	 17117	 17155	 17193	 17231	 17262
MTROP	   311#
NAME	     8#	    11
PBELL	   286#	 17427
PCRL	   280#	 17363	 17382
PCRL2	   284#
PCRL2F	   285#
PCRLF	   281#
PFORCE	   288#
PGMINT	   205#	   704
PJRST	   196#
PMSG	   290#	 17329	 17333	 17344	 17369
PMSGF	   293#
PNT1	   246#
PNT11	   260#
PNT11F	   261#
PNT1F	   247#
PNT2	   248#
PNT2F	   249#
PNT3	   250#	 17381
PNT3F	   251#
PNT4	   252#	 17385
PNT4F	   253#
PNT5	   254#	 17387
PNT5F	   255#
PNT6	   256#	 17337	 17389
PNT6F	   257#
PNT7	   258#
PNT7F	   259#
PNTA	   232#	 17372
PNTADF	   263#
PNTADR	   262#
PNTAF	   233#
PNTAL	   234#	 17365
PNTALF	   235#
PNTCHF	   245#                                                                                                            SEQ 0396
PNTCHR	   244#
PNTCI	   242#
PNTCIF	   243#
PNTCW	   278#
PNTCWF	   279#
PNTDCF	   271#
PNTDEC	   270#	 17332
PNTDS	   272#
PNTDSF	   273#
PNTHW	   266#	 17352
PNTHWF	   267#
PNTMGN	   357#	 17413
PNTMSF	   239#
PNTMSG	   238#
PNTNM	   274#	 17325
PNTOCF	   269#
PNTOCS	   268#
PNTOCT	   264#
PNTOTF	   265#
PNTSIX	   275#
PNTSXF	   276#
PSIXL	   236#
PSIXLF	   237#
PSIXM	   240#	 17330	 17334	 17345	 17370
PSIXMF	   241#
PSP	   282#
PSPF	   283#
PUT	   194#
RTN	   193#	   450
S	   123#	   125	   129	   158	   160	   169	   172	   187	   188	   190	   201	   203	   207	   209
	   214	   218	   360	   365	   371	   398	   400	   418	   420	   438	   440	   469	   471	   489
	   491	   509	   511	   519	   521	   542	   547	   573	   575	   582	   584	   590	   592	   598
	   600	   604	   606	   611	   613	   617	   619	   623	   625	   631	   633	   636	   638	   642
	   644	   648	   650	   654	   656	   660	   662	   667	   672	   676	   678
SAVEAC	    93#	   715	   748	  1808	  2869	  2903	  3555	  4311	  5371	  6431	  6466	  7601	  8731	 10013
	 11287	 12421	 13555	 14726	 15899
SIXBTZ	   299#
SWITCH	   305#	 17311	 17414
TTALTM	   227#	 17416
TTICHR	   220#
TTICNV	   225#
TTIDEC	   224#
TTINO	   222#
TTIOCT	   223#
TTIYES	   221#
TTLOOK	   226#
TTSIXB	   228#
