DAKCB	PDP-10 KA10 ADVANCED INSTRUCTION DIAGNOSTIC #2, VERSION 0,2 	MACRO %52(537) 12:44 21-JAN-77 PAGE 1
DAKCBT	MAC	21-JAN-77 12:31		DIAGNOSTIC PARAMETERS                                                              SEQ 0011

     1					;MAINDEC-10-DAKCB
     2
     3			000002		DECVER=002
     4			000000		MCNVER=000
     5
     6						XLIST
     7						LIST
     8						LALL
     9
    10					NAME	\MCNVER,\DECVER^
    11
    12					TITLE	DAKCB	PDP-10 KA10 ADVANCED INSTRUCTION DIAGNOSTIC #2, VERSION 0,2 ^
    13
    14						XALL
    15
    16					;(FLOATING MULTIPLY, FLOATING DIVIDE AND DOUBLE FLOATING NEGATE)
    17
    18					;COPYRIGHT 1972,1973,1974,1975,1977
    19					;DIGITAL EQUIPMENT CORPORATION
    20					;MARLBORO, MASS. 01752
    21
    22					;JOHN R. KIRCHOFF
    23
    24	000137				LOC	137
    25	000137	000000	000002		MCNVER,,DECVER
    26
    27						NOSYM
DAKCB	PDP-10 KA10 ADVANCED INSTRUCTION DIAGNOSTIC #2, VERSION 0,2 	MACRO %52(537) 12:44 21-JAN-77 PAGE 2
DAKCBT	MAC	21-JAN-77 12:31		DIAGNOSTIC PARAMETERS                                                              SEQ 0012

    28					SUBTTL	DIAGNOSTIC PARAMETERS
    29
    30					;OPERATOR DEFINITIONS
    31
    32		001000	000000		OPDEF	ER1	[1B8]
    33		002000	000000		OPDEF	ER2	[2B8]
    34		003000	000000		OPDEF	ER3	[3B8]
    35		004000	000000		OPDEF	ER4	[4B8]
    36		005000	000000		OPDEF	ER5	[5B8]
    37		006000	000000		OPDEF	ER6	[6B8]
    38		007000	000000		OPDEF	ER7	[7B8]
    39		010000	000000		OPDEF	ER10	[10B8]
    40		011000	000000		OPDEF	ER11	[11B8]
    41		012000	000000		OPDEF	ER12	[12B8]
    42		013000	000000		OPDEF	ER13	[13B8]
    43
    44			033742		LUUO1==ERRMES
    45			033742		LUUO2==ERRMES
    46			033742		LUUO3==ERRMES
    47			033742		LUUO4==ERRMES
    48			033742		LUUO5==ERRMES
    49			033742		LUUO6==ERRMES
    50			033742		LUUO7==ERRMES
    51			033742		LUUO10==ERRMES
    52			033742		LUUO11==ERRMES
    53			033742		LUUO12==ERRMES
    54			033742		LUUO13==ERRMES
    55
    56					;SUBROUTINE ASSEMBLY DEFINITIONS
    57
    58			000100		DEBUG=100
    59			000001		EXCASB=1
    60			000001		USRASB=1
    61			000001		KA10=1
    62			000001		PGMEND=1
    63			000001		ERDIAG=1
    64			000001		KLOLD=1
DAKCB	PDP-10 KA10 ADVANCED INSTRUCTION DIAGNOSTIC #2, VERSION 0,2 	MACRO %52(537) 12:44 21-JAN-77 PAGE 3
DAKCBT	MAC	21-JAN-77 12:31		DIAGNOSTIC PARAMETERS                                                              SEQ 0013

    65					;MACROS
    66
    67					DEFINE	SAVEAC	(A,B)<
    68						MOVEI	AC+2,.
    69						MOVEM	AC+2,TESTPC	;SETUP SUBTEST PC
    70						MOVEI	AC+2,<AC+2>&17	;INFORM ERROR ROUTINE WHICH
    71						MOVEM	AC+2,ERRLOP#	;AC IS USED FOR ITERATION>
    72
    73					;BEGIN ASSEMBLY PARAMETERS
    74
    75			030000		SADR1=BEGIN
    76			030076		SADR2=RESRT1
    77			030600		SADR3=RENTR1
    78			030000		SADR4=BEGIN
    79			030000		SADR5=BEGIN
    80			030000		SADR6=BEGIN
    81		254200	030000		SADR7=HALT BEGIN
    82		254200	030000		SADR8=HALT BEGIN
    83		254200	030000		SADR9=HALT BEGIN
    84		254200	030000		SADR10=HALT BEGIN
    85		254200	030000		SADR11=HALT BEGIN
    86
    87			000000		PAREA1=0
    88			000000		PAREA2=0
    89		444153	434200		PAREA3=SIXBIT/DAKCB/
    90		645560	000000		PAREA4=SIXBIT/TMP/
    91			000000		PAREA5=0
    92			000000		PAREA6=0
    93
    94			001000		ITERAT=1000
DAKCB	PDP-10 KA10 ADVANCED INSTRUCTION DIAGNOSTIC #2, VERSION 0,2 	MACRO %52(537) 12:44 21-JAN-77 PAGE 1
PARAM	KLM	18-JAN-77 11:38		*PARAM*	CONSOLE DATA SWITCH ASSIGNMENTS, JAN 18,1977                               SEQ 0014

    95					SUBTTL	*PARAM*	CONSOLE DATA SWITCH ASSIGNMENTS, JAN 18,1977
    96
    97					DEFINE	S,<;*********************************************************************>
    98
    99					S^;*********************************************************************^
   100					;*DATA SWITCHES (READ FROM CONSOLE IN EXEC MODE OR TYPED IN IN USER MODE)
   101					;*LEFT HALF SWITCHES ARE PRE-ASSIGNED FOR SUBROUTINE PACKAGE USE
   102					;*AND CONTROL LOOPING, PRINTING (TTY OR OTHER DEVICE) AND MISC. FUNCTIONS
   103					S^;*********************************************************************^
   104
   105			400000		ABORT==	400000			;ABORT PROGRAM ON PASS COMPLETION
   106			200000		RSTART==200000			;RESTART TEST, PRINT TOTALS
   107			100000		TOTALS==100000			;PRINT TOTALS, CONTINUE
   108
   109			040000		NOPNT==	040000			;INHIBIT ALL PRINT/TYPE OUT (EXCEPT FORCED)
   110			020000		PNTLPT==020000			;PRINT ALL DATA ON LPT (LOGICAL DEVICE, USER MODE)
   111			010000		DING==	010000			;RING BELL ON ERROR
   112
   113			004000		LOOPER==004000			;ENTER EXERCISE/CHECK LOOP ON ERROR
   114			002000		ERSTOP==002000			;HALT ON TEST ERROR
   115			001000		PALERS==001000			;PRINT ALL ERRORS
   116
   117			000400		RELIAB==000400			;RELIABILITY MODE
   118			000200		TXTINH==000200			;INHIBIT ERROR TEXT
   119			000100		INHPAG==000100			;INHIBIT PAGING
   120
   121			000040		MODDVC==000040			;MODIFY DEVICE CODE
   122			000020		INHCSH==000020			;INHIBIT CACHE
   123			000010		OPRSEL==000010			;OPERATOR SELECTION
   124
   125			000004		CHAIN==	000004			;CHAIN CONTROL SWITCH
   126
   127			000002		KAHZ50==000002			;KA10 50 HERTZ POWER
   128
   129									;SWITCH 17 RESERVED !!!
DAKCB	PDP-10 KA10 ADVANCED INSTRUCTION DIAGNOSTIC #2, VERSION 0,2 	MACRO %52(537) 12:44 21-JAN-77 PAGE 2
PARAM	KLM	18-JAN-77 11:38		*PARAM* PROGRAM/SUBROUTINE PARAMETERS, JAN 18,1977                                 SEQ 0015

   130					SUBTTL	*PARAM* PROGRAM/SUBROUTINE PARAMETERS, JAN 18,1977
   131
   132					S^;*********************************************************************^
   133					;*SPECIAL SUBPROGRAM LINKAGES
   134					S^;*********************************************************************^
   135
   136			027772		FSELNK=	27772	;FILE SELECT LINK
   137			027773		FRDLNK=	27773	;FILE READ LINK
   138			027774		LDLNK=	27774	;LOAD LINKAGE ADDRESS
   139			027775		DDTLNK=	27775	;DDT LINKAGE ADDRESS
   140			027776		MODLNK=	27776	;OPERATIONAL MODE CHECK LINKAGE ADDRESS
   141			027777		SUBLNK=	27777	;SUBROUTINE LINKAGE ADDRESS
   142
   143					S^;*********************************************************************^
   144					;*SPECIAL SUBROUTINE FATAL HALTS
   145					;*USED TO REPORT ERRORS THAT CAUSE THE SUBROUTINES TO BE UNUSABLE
   146					S^;*********************************************************************^
   147
   148					;ADDRESS   TAG	REASON
   149					;---------------------
   150
   151					; 1010 	NOEXEC	;PROGRAM NOT CODED FOR EXEC MODE OPERATION
   152					; 1011  PLERR	;FATAL PUSH LIST POINTER ERROR
   153					; 1012  PLERR1	;INITIAL PUSH LIST POINTER ERROR
   154					; 1013  MUOERR	;MUUO WITH LUUO HANDLER WIPED OUT
   155					; 1014  DTEBER	;DTE20 INTERRUPT WITHOUT DOORBELL
   156					; 1015  DTECER	;DTE20 CLOCK INTERRUPT WITHOUT FLAG SET
   157					; 1016  CPIERR	;CPU INITIALIZATION ERROR
   158					; 1017  EOPERR	;END OF PROGRAM ERROR
   159					; 1020  LUOERR	;INTERRUPT WITH LUUO HANDLER WIPED OUT
   160
   161					S^;*********************************************************************^
DAKCB	PDP-10 KA10 ADVANCED INSTRUCTION DIAGNOSTIC #2, VERSION 0,2 	MACRO %52(537) 12:44 21-JAN-77 PAGE 3
PARAM	KLM	18-JAN-77 11:38		*PARAM* PROGRAM/SUBROUTINE PARAMETERS, JAN 18,1977                                 SEQ 0016

   162					S^;*********************************************************************^
   163					;OPERATOR DEFINITIONS (NON-UUO'S)
   164					S^;*********************************************************************^
   165
   166		260740	000000		OPDEF	GO	[PUSHJ	P,]	;SUBROUTINE CALL
   167		263740	000000		OPDEF	RTN	[POPJ	P,]	;SUBROUTINE RETURN
   168		261740	000000		OPDEF	PUT	[PUSH	P,]	;PUT DATA ON PUSH LIST
   169		262740	000000		OPDEF	GET	[POP	P,]	;GET DATA FROM PUSH LIST
   170		254000	000000		OPDEF	PJRST	[JRST	]	;JRST TO ROUTINE THAT RTN'S
   171		254200	000000		OPDEF	HALT	[JRST	4,]	;DEFINITION FOR DDT
   172		254100	000000		OPDEF	JRSTF	[JRST	2,]	;DEFINITION FOR DDT
   173		254500	000000		OPDEF	JEN	[JRST	12,]	;DEFINITION FOR DDT
   174
   175					S^;*********************************************************************^
   176					;*SUBROUTINE INITIALIZATION CALL
   177					S^;*********************************************************************^
   178
   179		265000	030011		OPDEF	PGMINT	[JSP	0,SBINIT]	;SUBROUTINE INITIALIZATION
   180
   181					S^;*********************************************************************^
   182					;*HALTING UUO'S (A MORE GRACEFUL HALT THAN SIMPLY USING THE HALT INSTRUCTION).
   183					S^;*********************************************************************^
   184
   185		037640	000004		OPDEF	FATAL	[37B8!15B12!4]	;FATAL PROGRAMMING HALT
   186		037600	000004		OPDEF	ERRHLT	[37B8!14B12!4]	;PROGRAM ERROR HALT
   187
   188					S^;*********************************************************************^
   189					;*TERMINAL INPUT UUO'S
   190					;*ALWAYS COME FROM THE CONSOLE TERMINAL IN EXEC MODE OR THE
   191					;*CONTROLLING TERMINAL (REAL TERMINAL OR PTY) IN USER MODE.
   192					S^;*********************************************************************^
   193
   194		037000	000003		OPDEF	TTICHR 	[37B8!0B12!3]	;TTY, INPUT ANY CHARACTER
   195		037040	000003		OPDEF	TTIYES	[37B8!1B12!3]	;TTY, NORMAL RETURN Y
   196		037100	000003		OPDEF	TTINO	[37B8!2B12!3]	;TTY, NORMAL RETURN N
   197		037140	000003		OPDEF	TTIOCT	[37B8!3B12!3]	;TTY, INPUT OCTAL WORD
   198		037200	000003		OPDEF	TTIDEC	[37B8!4B12!3]	;TTY, INPUT DECIMAL WORD
   199		037240	000003		OPDEF	TTICNV	[37B8!5B12!3]	;TTY, INPUT CONVERTABLE WORD
   200		037300	000003		OPDEF	TTLOOK	[37B8!6B12!3]	;TTY, KEYBOARD CHECK
   201		037340	000003		OPDEF	TTALTM	[37B8!7B12!3]	;TTY, ALT-MODE CHECK
   202		037400	000003		OPDEF	TTSIXB	[37B8!10B12!3]	;TTY, INPUT SIXBIT WORD
   203		037440	000003		OPDEF	TTYINP	[37B8!11B12!3]	;TTY, IMAGE MODE INPUT
DAKCB	PDP-10 KA10 ADVANCED INSTRUCTION DIAGNOSTIC #2, VERSION 0,2 	MACRO %52(537) 12:44 21-JAN-77 PAGE 4
PARAM	KLM	18-JAN-77 11:38		*PARAM* PROGRAM/SUBROUTINE PARAMETERS, JAN 18,1977                                 SEQ 0017

   204					;*TERMINAL OUTPUT UUO'S.
   205
   206		037000	000000		OPDEF	PNTA	[37B8!0B12!0]	;PRINT ASCII WORD
   207		037000	000001		OPDEF	PNTAF	[37B8!0B12!1]	;PRINT ASCII WORD FORCED
   208		037740	000000		OPDEF	PNTAL	[37B8!17B12!0]	;PRINT ASCIZ LINE
   209		037740	000001		OPDEF	PNTALF	[37B8!17B12!1]	;PRINT ASCIZ LINE FORCED
   210		037600	000003		OPDEF	PSIXL	[37B8!14B12!3]	;PRINT SIXBIT'Z LINE
   211		037640	000003		OPDEF	PSIXLF	[37B8!15B12!3]	;PRINT SIXBIT'Z LINE FORCED
   212		037000	000000		OPDEF	PNTMSG	[37B8!0B12!0]	;PRINT MESSAGE IMMEDIATE
   213		037040	000000		OPDEF	PNTMSF	[37B8!1B12!0]	;PRINT MESSAGE IMMEDIATE FORCED
   214		037100	000000		OPDEF	PSIXM	[37B8!2B12!0]	;PRINT SIXBIT'Z MSG IMMEDIATE
   215		037200	000000		OPDEF	PSIXMF	[37B8!4B12!0]	;PRINT SIXBIT'Z MSG IMM FORCED
   216		037000	000000		OPDEF	PNTCI	[37B8!0B12!0]	;PRINT CHARACTER IMMEDIATE
   217		037040	000000		OPDEF	PNTCIF	[37B8!1B12!0]	;PRINT CHARACTER IMMEDIATE FORCED
   218		037500	000000		OPDEF	PNTCHR	[37B8!12B12!0]	;PRINT CHARACTER
   219		037500	000001		OPDEF	PNTCHF	[37B8!12B12!1]	;PRINT CHARACTER FORCED
   220		037040	000000		OPDEF	PNT1	[37B8!1B12!0]	;PRINT ONE OCTAL DIGIT
   221		037040	000001		OPDEF	PNT1F	[37B8!1B12!1]	;PRINT 1 OCTAL DIGIT FORCED
   222		037100	000000		OPDEF	PNT2	[37B8!2B12!0]	;PRINT TWO OCTAL DIGITS
   223		037100	000001		OPDEF	PNT2F	[37B8!2B12!1]	;PRINT 2 OCTAL DIGITS FORCED
   224		037140	000000		OPDEF	PNT3	[37B8!3B12!0]	;PRINT THREE OCTAL DIGITS
   225		037140	000001		OPDEF	PNT3F	[37B8!3B12!1]	;PRINT THREE OCTAL DIGITS FORCED
   226		037200	000000		OPDEF	PNT4	[37B8!4B12!0]	;PRINT FOUR OCTAL DIGITS
   227		037200	000001		OPDEF	PNT4F	[37B8!4B12!1]	;PRINT FOUR OCTAL DIGITS FORCED
   228		037240	000000		OPDEF	PNT5	[37B8!5B12!0]	;PRINT FIVE OCTAL DIGITS
   229		037240	000001		OPDEF	PNT5F	[37B8!5B12!1]	;PRINT FIVE OCTAL DIGITS FORCED
   230		037300	000000		OPDEF	PNT6	[37B8!6B12!0]	;PRINT SIX OCTAL DIGITS
   231		037300	000001		OPDEF	PNT6F	[37B8!6B12!1]	;PRINT SIX OCTAL DIGITS FORCED
   232		037340	000000		OPDEF	PNT7	[37B8!7B12!0]	;PRINT 7 OCTAL DIGITS
   233		037340	000001		OPDEF	PNT7F	[37B8!7B12!1]	;PRINT 7 OCTAL DIGITS FORCED
   234		037440	000000		OPDEF	PNT11	[37B8!11B12!0]	;PRINT 11 OCTAL DIGITS
   235		037440	000001		OPDEF	PNT11F	[37B8!11B12!1]	;PRINT 11 OCTAL DIGITS FORCED.
   236		037400	000000		OPDEF	PNTADR	[37B8!10B12!0]	;PRINT PHYSICAL ADDRESS
   237		037400	000001		OPDEF	PNTADF	[37B8!10B12!1]	;PRINT PHYSICAL ADDRESS FORCED
   238		037600	000000		OPDEF	PNTOCT  [37B8!14B12!0]	;PRINT FULL WORD OCTAL
   239		037600	000001		OPDEF	PNTOTF	[37B8!14B12!1]	;PRINT FULL WORD OCTAL FORCED
   240		037540	000000		OPDEF	PNTHW	[37B8!13B12!0]	;PRINT OCTAL HALF WORDS, 6 SP 6
   241		037540	000001		OPDEF	PNTHWF	[37B8!13B12!1]	;PRINT OCTAL HALF WORDS, 6 SP 6 FORCED
   242		037700	000003		OPDEF	PNTOCS	[37B8!16B12!3]	;PRINT OCTAL, SUPPRESS LEADING 0'S
   243		037740	000003		OPDEF	PNTOCF	[37B8!17B12!3]	;PRINT OCTAL, SUPPRESS LEADING 0'S FORCED
   244		037640	000000		OPDEF	PNTDEC	[37B8!15B12!0]	;PRINT DECIMAL, SUPRESS LEADING 0'S
   245		037640	000001		OPDEF	PNTDCF	[37B8!15B12!1]	;PRINT DECIMAL, SUPRESS LEADING 0'S FORCED
   246		037700	000000		OPDEF	PNTDS	[37B8!16B12!0]	;PRINT DECIMAL, SPACES FOR LD 0'S
   247		037700	000001		OPDEF	PNTDSF	[37B8!16B12!1]	;PRINT DECIMAL, SPACES FOR LD 0'S FORCED
   248		037200	000002		OPDEF	PNTNM	[37B8!4B12!2]	;PRINT PROGRAM NAME
   249		037000	000002		OPDEF	PNTSIX	[37B8!0B12!2]	;PRINT SIXBIT WORD
   250		037040	000002		OPDEF	PNTSXF	[37B8!1B12!2]	;PRINT SIXBIT WORD FORCED
   251		037240	000002		OPDEF	DROPDV	[37B8!5B12!2]	;CLOSE LOGICAL FILE, USER MODE
   252		037100	000002		OPDEF	PNTCW	[37B8!2B12!2]	;PRINT DF10 CONTROL WORD
   253		037140	000002		OPDEF	PNTCWF	[37B8!3B12!2]	;PRINT DF10 CONTROL WORD FORCED
   254		037000	030242		OPDEF	PCRL	[37B8!0B12!CRLF] ;PRINT CARRIAGE RETURN/LINE FEED
   255		037040	030242		OPDEF	PCRLF	[37B8!1B12!CRLF] ;PRINT CARRIAGE RETURN/LINE FEED FORCED
   256		037000	000040		OPDEF	PSP	[37B8!0B12!40]	;PRINT SPACE
   257		037040	000040		OPDEF	PSPF	[37B8!1B12!40]	;PRINT SPACE FORCED
   258		037000	030243		OPDEF	PCRL2	[37B8!0B12!CRLF2] ;PRINT CARRIAGE RETURN/LINE FEED (TWICE)
DAKCB	PDP-10 KA10 ADVANCED INSTRUCTION DIAGNOSTIC #2, VERSION 0,2 	MACRO %52(537) 12:44 21-JAN-77 PAGE 4-1
PARAM	KLM	18-JAN-77 11:38		*PARAM* PROGRAM/SUBROUTINE PARAMETERS, JAN 18,1977                                 SEQ 0018

   259		037040	030243		OPDEF	PCRL2F	[37B8!1B12!CRLF2] ;PRINT CARRIAGE RETURN/LINE FEED (TWICE) FORCED
   260		037040	000007		OPDEF	PBELL	[37B8!1B12!7]	;PRINT TTY BELL
   261
   262		037040	000026		OPDEF	PFORCE	[37B8!1B12!26]	;PRINT FORCE, CONTROL O OVERRIDE
   263
   264					DEFINE	PMSG	(ARG),<
   265						PSIXM	[SIXBIT\ARG'_\]>
   266
   267					DEFINE	PMSGF	(ARG),<
   268						PSIXMF	[SIXBIT\ARG'_\]>
   269
   270					;*SIXBTZ -- MACRO TO GENERATE SIXBIT DATA FOR PRINTING
   271					;*	CONSERVES CORE OVER ASCIZ
   272
   273					DEFINE	SIXBTZ	(ARG),<	[SIXBIT\ARG'_\]>
   274
   275					;*CONSOLE SWITCH INPUT UUO.
   276					;*READS CONSOLE SWITCHES IF IN EXEC MODE OR ASKS FOR THEM IF
   277					;* USER MODE.
   278
   279		037400	000002		OPDEF	SWITCH	[37B8!10B12!2]	;INPUT CONSOLE SWITCHES
   280
   281					;*CLOCK INITIALIZATION UUO - TO SET DESIRED CLOCK OPERATION
   282					;*EITHER IGNORE CLOCK, ONLY LET IT TICK OR CAUSE INTERRUPT TO OCCUR.
   283
   284		037540	000004		OPDEF	CLOKOP	[37B8!13B12!4]	;CLOCK OPERATION UUO - PDP-11 CLOCK
   285		037200	000004		OPDEF	MTROP	[37B8!4B12!4]	;CLOCK OPERATION UUO - DK20 METER
   286
   287					;*KL10 ONLY CACHE OPERATION UUO'S
   288
   289		037040	000004		OPDEF	CINVAL	[37B8!1B12!4]	;CACHE INVALIDATE
   290		037100	000004		OPDEF	CFLUSH	[37B8!2B12!4]	;CACHE FLUSH
   291		037140	000004		OPDEF	CWRTBI	[37B8!3B12!4]	;CACHE WRITE-BACK & INVALIDATE
DAKCB	PDP-10 KA10 ADVANCED INSTRUCTION DIAGNOSTIC #2, VERSION 0,2 	MACRO %52(537) 12:44 21-JAN-77 PAGE 5
PARAM	KLM	18-JAN-77 11:38		*PARAM* PROGRAM/SUBROUTINE PARAMETERS, JAN 18,1977                                 SEQ 0019

   292					;*END OF PASS/PROGRAM UUOS
   293
   294					;PERFORMS THE END OF PASS FUNCTIONS. INCREMENT PASS COUNT,
   295					;*DECREMENT ITERATION COUNT, CHECK IF FINISHED WITH THIS PROGRAM ETC.
   296
   297		037500	000004		OPDEF	ENDUUO	[37B8!12B12!4]	;UUO TO DISPLAY LIGHTS
   298		037700	000004		OPDEF	EOPUUO	[37B8!16B12!4]	;END OF PROGRAM UUO
   299
   300					;*MEMORY MANAGEMENT UUO'S
   301					;*UUO'S TO PERFORM VARIOUS MEMORY FUNCTIONS. MAPPING, ZEROING, PAGING,
   302					;*ADDRESS CONVERSION, ETC...
   303
   304		037000	000004		OPDEF	MAPMEM	[37B8!0B12!4]	;MAP MEMORY
   305		037500	000002		OPDEF	MEMZRO	[37B8!12B12!2]	;ZERO MEMORY
   306		037440	000002		OPDEF	MEMSEG	[37B8!11B12!2]	;SETUP MEMORY SEGMENT
   307		037540	000002		OPDEF	MAPADR	[37B8!13B12!2]	;VIRTUAL TO PHYSICAL ADR CONVERT
   308		037640	000002		OPDEF	MAPCNK	[37B8!15B12!2]	;MAP MEMORY CHUNK
   309		037600	000002		OPDEF	MAPSET	[37B8!14B12!2]	;SET KI10 EXEC PAGE MAP
   310		037740	000002		OPDEF	MAPPNT	[37B8!17B12!2]	;PRINT MEMORY MAP
   311
   312					;*DEVICE CODE MODIFICATION UUO
   313					;*ALLOWS THE MODIFICATION OF IOT'S TO ONE DEVICE TO BE CHANGED TO
   314					;*IOT'S TO A DIFFERENT DEVICE CODE.
   315
   316		037340	000002		OPDEF	MODPCU	[37B8!7B12!2]	;MODIFY PERHIPERAL CODE, USER
   317		037300	000002		OPDEF	MODPCP	[37B8!6B12!2]	;MODIFY PERHIPERAL CODE, PROGRAM
   318
   319			030000			IFNDEF	MODDVL,<MODDVL==BEGIN>
   320			030000			IFNDEF	MODDVU,<MODDVU==BEGIN>
   321
   322					;*"DIAMON" FILE SELECTION AND READ UUOS
   323
   324		037240	000004		OPDEF	FSELECT	[37B8!5B12!4]	;FILE SELECTION
   325		037300	000004		OPDEF	FREAD	[37B8!6B12!4]	;FILE READ - ASCII DATA
   326		037340	000004		OPDEF	FRD36	[37B8!7B12!4]	;FILE READ - 36 BIT DATA
   327		037400	000004		OPDEF	FRD8	[37B8!10B12!4]	;FILE READ - 8 BIT DATA
   328
   329					;*KI10 ONLY UUO FOR PRINTING MARGIN VALUES
   330
   331		037700	000002		OPDEF	PNTMGN	[37B8!16B12!2]	;PRINT MARGIN VALUE
   332
   333						XLIST
   334						LIST
DAKCB	PDP-10 KA10 ADVANCED INSTRUCTION DIAGNOSTIC #2, VERSION 0,2 	MACRO %52(537) 12:44 21-JAN-77 PAGE 1
FIXED	KLM	18-JAN-77 11:39		*FIXED* FIXED CONTROL AND DISPATCH STORAGE, JAN 18,1977                            SEQ 0020

   335					SUBTTL	*FIXED* FIXED CONTROL AND DISPATCH STORAGE, JAN 18,1977
   336
   337	030000					LOC	30000
   338
   339					S^;*********************************************************************^
   340					;*PROGRAM STARTING ADDRESSES
   341					;*THESE ADDRESSES CALL VARIOUS SPECIAL START ROUTINES AND OR OPTIONS
   342					;*NORMAL START ADDRESS IS 30000 ALL OTHERS ARE SPECIAL. INVOKED BECAUSE
   343					;*OF END OF PASS, POWER FAILURE, DDT START, RE-ENTERING(TYPICALLY USER
   344					;*MODE), OR ANY NUMBER OF SPECIAL FEATURE TESTS.
   345					S^;*********************************************************************^
   346
   347	030000	254 00 1 00 027776 	BEGIN:	JRST	@MODLNK		;STAND-ALONE START
   348	030001	254 00 0 00 030623 	$START:	JRST	START		;MODE CHECK STARTING ADDRESS
   349
   350	030002	254 00 1 00 027774 	DIAGMN:	JRST	@LDLNK		;DIAGNOSTIC MONITOR START
   351
   352	030003	254 00 1 00 027774 	SYSEXR:	JRST	@LDLNK		;SYSTEM EXERCISER START
   353
   354	030004	254 00 0 00 030000 	SFSTRT:	JRST	SADR1		;SPECIAL FEATURE START
   355
   356	030005	254 00 0 00 030076 	PFSTRT:	JRST	SADR2		;POWER FAIL RESTART
   357
   358	030006	254 00 0 00 030600 	REENTR:	JRST	SADR3		;REENTER START(USUALLY USER MODE ONLY)
   359
   360	030007				SRTDDT:				;COMMONLY MISTAKEN NAME FOR "DDTSRT"
   361	030007	254 00 1 00 027775 	DDTSRT:	JRST	@DDTLNK		;DDT START
   362
   363	030010	254 00 0 00 030626 	BEGIN1:	JRST	STARTA		;LOOP START(END OF PASS COMES HERE)
   364	030011	254 00 1 00 027777 	SBINIT:	JRST	@SUBLNK		;PMGINT LINKAGE
   365	030012	000000	000000		RETURN:	0			;RETURN ADDRESS STORAGE
   366
   367	030013	254200	030000		START1:	SADR7			;OPTIONAL STARTING ADR/INSTRUCTIONS
   368	030014	254200	030000		START2:	SADR8			; "
   369	030015	254200	030000		START3:	SADR9			; "
   370	030016	254200	030000		START4:	SADR10			; "
   371	030017	254200	030000		START5:	SADR11			; "
DAKCB	PDP-10 KA10 ADVANCED INSTRUCTION DIAGNOSTIC #2, VERSION 0,2 	MACRO %52(537) 12:44 21-JAN-77 PAGE 2
FIXED	KLM	18-JAN-77 11:39		*FIXED* FIXED CONTROL AND DISPATCH STORAGE, JAN 18,1977                            SEQ 0021

   372					S^;*********************************************************************^
   373					;*PROGRAM FIXED PARAMETER AREA
   374					S^;*********************************************************************^
   375
   376	030020	444153	434200		PNTNAM:	PAREA3		;SIXBIT PROGRAM NAME
   377	030021	645560	000000		PNTEXT:	PAREA4		;SIXBIT PROGRAM EXTENSION
   378	030022	000000	000000		RANDBS:	PAREA1		;RANDOM BASE NUMBER
   379	030023	000000	000000		SWTEXR:	PAREA2		;SYSTEM EXERCISER SWITCHES
   380	030024	000000	001000		ITRCNT:	ITERAT		;PROGRAM ITERATIONS
   381	030025	000000	030602		$PNAME:	PGMNAM		;POINTER TO PROGRAMS NAME
   382	030026	000000	000002		$PVER:	MCNVER,,DECVER	;MCN & DEC VERSION LEVEL
   383	030027	000000	030000		$MODVL:	MODDVL		;DEVICE CODE CHANGE LOWER LIMIT
   384	030030	000000	030000		$MODVU:	MODDVU		;DEVICE CODE CHANGE UPPER LIMIT
   385	030031	777777	777777		$EMODE:	IFNDEF EXCASB,<0> IFDEF EXCASB,<-1>	;EXEC ALLOWED
   386	030032	777777	777777		$UMODE:	IFNDEF USRASB,<0> IFDEF USRASB,<-1>	;USER ALLOWED
   387	030033	000000	000000		$DSKUP:	IFNDEF DSKUPD,<0> IFDEF DSKUPD,<-1>	;DISK UPDATE MODE
   388	030034	000000	000000		$MMAP:	IFNDEF MEMMAP,<0> IFDEF MEMMAP,<-1>	;ALLOW MEMORY RTNS
   389	030035	000000	000000		PAREA7:	PAREA5		;OPTIONAL PARAMETER
   390	030036	000000	000000		PAREA8:	PAREA6		;OPTIONAL PARAMETER
   391
   392					S^;*********************************************************************^
   393					;*PROGRAM VARIABLE PARAMETER AREA
   394					S^;*********************************************************************^
   395
   396	030037	000000	000000		USER:	0		; 0 = EXEC, -1 = USER MODE FLAG
   397	030040	000000	000000		KAIFLG:	0		;PROCESSOR TYPE, 0 = KA10, -1 = KI10
   398	030041	000000	000000		KLFLG:	0		;PROCESSOR TYPE, 0 = KA/KI, -1 = KL10
   399	030042	777777	777777		MONFLG:	-1		;DIAG MONITOR SPECIAL USER FLAG
   400	030043	000000	000000		MONCTL:	0		;DIAG MON/SYS EXR FLAG
   401	030044	000000	000000		MONTEN:	0		;-1= LOADED BY 10
   402	030045	000000	000000		CLOCKF:	0		;CLOCK TICKED FLAG
   403	030046	000000	000000		CONSW:	0		;CONSOLE SWITCH SETTINGS
   404	030047	000000	000000		PASCNT:	0		;PROGRAM PASS COUNT
   405	030050	000000	000000		RUNFLG:	0		;PROGRAM RUN FLAG
   406	030051	000000	000000		TESTPC:	0		;SUBTEST PC
   407	030052	000000	000000		ERRPC:	0		;ERROR PC
   408	030053	000000	000000		ERRTLS:	0		;ERROR TOTALS
   409	030054	000000	000000		TICKS:	0		;PROGRAM RUNNING TIME
   410	030055	000000	000000		MARGIN:	0		;KI10 MARGIN WORD VALUE
   411	030056	000000	000000		$ONETM:	0		;SUBROUTINE INITIALIZATION FLAG
DAKCB	PDP-10 KA10 ADVANCED INSTRUCTION DIAGNOSTIC #2, VERSION 0,2 	MACRO %52(537) 12:44 21-JAN-77 PAGE 3
FIXED	KLM	18-JAN-77 11:39		*FIXED* FIXED CONTROL AND DISPATCH STORAGE, JAN 18,1977                            SEQ 0022

   412					S^;*********************************************************************^
   413					;*SPECIAL PROGRAM DISPATCH ADDRESSES
   414					S^;*********************************************************************^
   415
   416	030057	037 12 0 00 000004 	BEGEND:	ENDUUO		;END OF PASS
   417	030060	254 00 0 00 030010 	$BEND1:	JRST	BEGIN1	;KEEP RUNNING PROGRAM
   418	030061	037 16 0 00 000004 	$BEND2:	EOPUUO		;END OF PROGRAM - NO RETURN
   419	030062	000000	030000		CNTLC:	SADR5		;CONTROL C XFER ADDRESS
   420	030063	000000	030000		ALTMGO:	SADR6		;ALTMODE XFER ADDRESS
   421	030064				CPOPJ1:			;SKIP RETURN
   422	030064	350 00 0 17 000000 	UUOSKP:	AOS	(P)	;SKIP RETURN FROM UUO
   423	030065				CPOPJ:			;NON-SKIP REGULAR RETURN
   424	030065	263 17 0 00 000000 	UUOEXT:	RTN		;UUO RETURN
   425	030066	255 00 0 00 000000 	UUORTN:	JFCL		;ADDITIONAL USERS UUO ROUTINE
   426	030067	255 00 0 00 000000 	$UORTX:	JFCL		;ADDITIONAL UUO LINKAGE
   427	030070	255 00 0 00 000000 	$UUOER:	JFCL		;INITED AS (JRST $UOERX)
   428	030071	255 00 0 00 000000 	$ITRHL:	JFCL		;ADDITIONAL INTERRUPT LINKAGE
   429	030072	255 00 0 00 000000 	$ITRX1:	JFCL		; "
   430	030073	255 00 0 00 000000 	$USRHL:	JFCL		; "
   431	030074	255 00 0 00 000000 	$RSRTX:	JFCL		;ADDITIONAL POWER FAIL LINKAGE
   432	030075	255 00 0 00 000000 	$RSRTY:	JFCL		; "
   433	030076	255 00 0 00 000000 	RESRT1:	JFCL		; INITED AS (JRST RESRTX)
   434	030077	255 00 0 00 000000 	RESRT2:	JFCL		; "
   435	030100	255 00 0 00 000000 	$PARER:	JFCL		;ADDITIONAL PARITY ERROR LINKAGE
   436	030101	255 00 0 00 000000 	ERMORE:	JFCL		;ADDITIONAL ERROR HANDLER LINKAGE
   437	030102	254 04 0 00 030102 		HALT	.	;IMPROPER TRANSFER HALT
   438
   439	030103	000000	000000		$PSHER:	0		;INITED AS (JRST PSHERR)
   440	030104	000000	000000		ITRCH1:	0		;PC & FLAGS OF CURRENT INTERRUPT
   441	030105	000000	000000			0		;INITED AS (JRST $ITRC1)
   442
   443					S^;*********************************************************************^
   444					;*PROCESSOR CONTROL STORAGE
   445					S^;*********************************************************************^
   446
   447	030106	000000	000000		$ACC0:	0		;INTERRUPT SAVED AC0
   448	030107	000000	000000		$SVPI:	0		;INTERRUPT SAVED PI
   449	030110	000000	000000		$SVAPR:	0		;INTERRUPT SAVED APR
   450	030111	000000	000000		$SVPAG:	0		;INTERRUPT SAVED PAG (DATAI)
   451	030112	000000	000000		$SPAG1:	0		;INTERRUPT SAVED PAG (CONI)
   452
   453	030113	000000	000000		$SVUUO:	0		;CURRENT USERS UUO
   454	030114	000000	000000		$SVUPC:	0		;PC OF CURRENT USERS UUO
   455
   456	030115	000000	000000		REPTU:	0		;REPEAT UUO ITERATIONS
   457	030116	000000	000000		SCOPE:	0		;ERROR HANDLER SCOPE LOOP FLAG
   458	030117	000000	000000		%CORFLG:0		; " CORRECT FLAG
   459	030120	000000	000000		%COREC:	0		; " CORRECT DATA
   460	030121	000000	000000		%ACTFL:	0		; " ACTUAL FLAG
   461	030122	000000	000000		%ACTUL:	0		; " ACTUAL DATA
   462	030123	000000	000000		%DISCR:	0		; " DISCREPENCY DATA
DAKCB	PDP-10 KA10 ADVANCED INSTRUCTION DIAGNOSTIC #2, VERSION 0,2 	MACRO %52(537) 12:44 21-JAN-77 PAGE 4
FIXED	KLM	18-JAN-77 11:39		*FIXED* FIXED CONTROL AND DISPATCH STORAGE, JAN 18,1977                            SEQ 0023

   463					S^;*********************************************************************^
   464					;*UUO DISPATCH TABLE
   465					S^;*********************************************************************^
   466						XLIST
   467						LIST
   468	030124	033742	030070		UUODIS:	LUUO1,,$UUOER
   469	030125	033742	033742			LUUO3,,LUUO2
   470	030126	033742	033742			LUUO5,,LUUO4
   471	030127	033742	033742			LUUO7,,LUUO6
   472	030130	033742	033742			LUUO11,,LUUO10
   473	030131	033742	033742			LUUO13,,LUUO12
   474	030132	030070	030070			LUUO15,,LUUO14
   475	030133	030070	030070			LUUO17,,LUUO16
   476	030134	030070	030070			LUUO21,,LUUO20
   477	030135	030070	030070			LUUO23,,LUUO22
   478	030136	030070	030070			LUUO25,,LUUO24
   479	030137	030070	030070			LUUO27,,LUUO26
   480	030140	030070	030070			LUUO31,,LUUO30
   481	030141	030070	030070			LUUO33,,LUUO32
   482
   483					S^;*********************************************************************^
   484					;*MEMORY MANAGMENT STORAGE
   485					S^;*********************************************************************^
   486
   487	030142	000000	000000		DF22F:	0		;DF10 CONTROL FLAG, 0 = 18, -1 = 22 BIT
   488	030143	000000	000000		MAPNEW:	0		;MEMORY MAPPING CONTROL FLAG, -1 = 4096K MAPPING
   489	030144	000000	000000		MEMTOT:	0		;TOTAL MEMORY SIZE IN K (1024.)
   490	030145	000000	000000		MEMLOW:	0		;LOWEST USABLE MEMORY
   491	030146				MEMSIZ:	BLOCK ^D41	;MEMORY SEGMENT POINTER TABLE
   492
   493					S^;*********************************************************************^
   494					;*PRINT CONTROL STORAGE
   495					S^;*********************************************************************^
   496
   497	030217	000000	000000		PNTFLG:	0		;PRINT FLAG, -1 WHILE IN PRINT ROUTINE
   498	030220	000000	000000		PNTENB:	0		;PRINT ENABLE
   499	030221	000000	000000		PDISF:	0		;PRINT DISABLED FLAG
   500	030222	000000	000000		PNTINH:	0		;INHIBIT PRINT INPUT CHECKS
   501	030223	000000	000000		PNTSPC:	0		;PRINT SPACE CONTROL
   502	030224	000000	000000		OPTIME:	0		;TYPE-IN WAIT TIME
   503	030225	000000	000000		$TWCNT:	0		;TIME WAITED
   504	030226	000000	000000		$DVOFF:	0		;LOGICAL DEVICE INITED FLAG
   505	030227	000000	000000		TTYFIL:	0		;TTY EXEC FILLERS FLAG
   506	030230	000000	000000		TTYSPD:	0		;TTY EXEC BAUD RATE
   507	030231	000000	000000		$TTCHR:	0		;ACTUAL TYPED IN CHAR
   508	030232	000000	000000		$CHRIN:	0		;UPPER CASED & PARITY STRIPPED CHAR
   509	030233	000000	000000		$TYPNB:	0		;TYPED IN NUMBER
   510	030234	000000	000000		$CRLF:	0		;FREE CR/LF FLAG
   511	030235	000000	000000		$TABF:	0		;TAB CONVERSION FLAG
   512	030236	000000	000000		$FFF:	0		;FORM FEED CONVERSION FLAG
   513	030237	000000	000000		$VTF:	0		;VERTICAL TAB CONVERSION FLAG
   514	030240	000000	000000		USRLFF:	0		;USER LF FILLERS
   515	030241	000000	000000		USRCRF:	0		;USER CR FILLERS
DAKCB	PDP-10 KA10 ADVANCED INSTRUCTION DIAGNOSTIC #2, VERSION 0,2 	MACRO %52(537) 12:44 21-JAN-77 PAGE 5
FIXED	KLM	18-JAN-77 11:39		*FIXED* FIXED CONTROL AND DISPATCH STORAGE, JAN 18,1977                            SEQ 0024

   516					S^;*********************************************************************^
   517					;*THE FOLLOWING MISCELLANEOUS PRINT CHARACTERS ARE INCLUDED
   518					;*TO FACILITATE PRINTING AND ARE CALLED AS FOLLOWS:
   519					;*	MOVEI	NAME
   520					;*	PNTA		;OR PNTAF
   521					S^;*********************************************************************^
   522
   523	030242				CRLF:	ASCII/
   524	030242	015 012 000 000 000 	/
   525	030243				CRLF2:	ASCII/
   526
   527	030243	015 012 015 012 000 	/
   528	030244	054 000 000 000 000 	COMMA:	ASCII/,/
   529	030245	056 000 000 000 000 	PERIOD:	ASCII/./
   530	030246	040 000 000 000 000 	SPACE:	ASCII/ /
   531	030247	011 000 000 000 000 	TAB:	ASCII/	/
   532	030250				MINUS:
   533	030250	055 000 000 000 000 	HYPEN:	ASCII/-/
   534	030251	053 000 000 000 000 	PLUS:	ASCII/+/
   535	030252	052 000 000 000 000 	AST:	ASCII/*/
   536	030253	100 000 000 000 000 	ATSIN:	ASCII/@/
   537	030254	050 000 000 000 000 	LFP:	ASCII/(/
   538	030255	051 000 000 000 000 	RTP:	ASCII/)/
   539	030256	007 0000000000 		BELL:	BYTE (7) 007
   540	030257	077 000 000 000 000 	QUEST:	ASCII/?/
   541	030260	057 000 000 000 000 	SLASH:	ASCII!/!
   542	030261	044 000 000 000 000 	DOLLAR:	ASCII/$/
   543	030262	000000	000012		RADIX:	^D10			;DECIMAL PRINT RADIX
   544	030263	000000	000040		RADLSP:	40			;DECIMAL PRINT LEADING CHAR
   545	030264	000000	000012		RADLSC:	^D10			;DECIMAL PRINT LEADING CHAR COUNT
   546
   547					S^;*********************************************************************^
   548					;*USER MODE OUTPUT FILE INFORMATION
   549					S^;*********************************************************************^
   550
   551	030265				$OBUF:	BLOCK	3		;LOGICAL FILE OUTPUT BUFFER HEADER
   552	030270	60 62 51 56 64 00 	$OUTNM:	SIXBIT	/PRINT/		;FILE NAME
   553	030271	60 56 64 00 00 00 	$OUTEX:	SIXBIT	/PNT/		;FILE NAME EXTENSION
   554	030272					BLOCK	2
   555
   556					S^;*********************************************************************^
   557					;*DISK UPDATE MODE FILE INFORMATION
   558					S^;*********************************************************************^
   559
   560	030274				$IBUF:	BLOCK	3
   561	030277	60 62 51 56 64 00 	$INNM:	SIXBIT	/PRINT/
   562	030300	60 56 64 00 00 00 	$INEXT:	SIXBIT	/PNT/
   563	030301					BLOCK	2
DAKCB	PDP-10 KA10 ADVANCED INSTRUCTION DIAGNOSTIC #2, VERSION 0,2 	MACRO %52(537) 12:44 21-JAN-77 PAGE 6
FIXED	KLM	18-JAN-77 11:39		*FIXED* FIXED CONTROL AND DISPATCH STORAGE, JAN 18,1977                            SEQ 0025

   564					S^;*********************************************************************^
   565					;*PUSHDOWN LIST CONTROL INFORMATION
   566					S^;*********************************************************************^
   567
   568	030303	777577	030303		PLIST:	PLIST-PLISTE,,PLIST
   569	030304				PLISTS:	BLOCK	200
   570	030504	000000	000000		PLISTE:	0		;END OF PUSHDOWN LIST
   571
   572					S^;*********************************************************************^
   573					;*POWER LINE CLOCK FREQUENCY FLAG
   574					S^;*********************************************************************^
   575
   576	030505	000000	000000		CYCL60:	0	;0 = 60, -1 = 50 CYCLE
   577
   578					S^;*********************************************************************^
   579					;*KL10 CACHE CONTROL FLAGS
   580					S^;*********************************************************************^
   581
   582	030506	000000	000000		CSHFLG:	0	;ALLOW CACHE IF 0
   583	030507	000000	000000		CSHMEM:	0	;CACHE MEMORY SEGMENTS IF 0
   584
   585					S^;*********************************************************************^
   586					;*NUMBER INPUT DIGIT FLAG
   587					S^;*********************************************************************^
   588
   589	030510	000000	000000		TTNBRF:	0	;-1 IF ANY DIGIT TYPED
   590
   591					S^;*********************************************************************^
   592					;*KL10 & KI10 "INHPAG" SWITCH PAGING PREVENTION
   593					S^;*********************************************************************^
   594
   595	030511	000000	000000		PVPAGI:	0	;IF NON-ZERO, OVERRIDE "INHPAG" SWITCH ACTION
   596
   597					S^;*********************************************************************^
   598					;*ERROR REPORTING ROUTINE ADDITIONAL USERS CONTROL INSTRUCTIONS
   599					S^;*********************************************************************^
   600
   601	030512	000000	000000		%ERHI1:	0	;IF NON-ZERO, XCT'D AT START OF %ERUUO
   602	030513	000000	000000		%ERHI2:	0	;IF NON-ZERO, XCT'D AT END OF %ERUUO
   603	030514	000000	000000		%ERHI3:	0	;IF NON-ZERO, XCT'D AFTER "PC" OF %ERUUO
   604
   605					S^;*********************************************************************^
   606					;*SPECIAL USERS UUO INTERCEPT INSTRUCTION
   607					S^;*********************************************************************^
   608
   609	030515	000000	000000		$$UUO:	0	;IF NON-ZERO, XCT'D AT START OF $UORTN
DAKCB	PDP-10 KA10 ADVANCED INSTRUCTION DIAGNOSTIC #2, VERSION 0,2 	MACRO %52(537) 12:44 21-JAN-77 PAGE 7
FIXED	KLM	18-JAN-77 11:39		*FIXED* FIXED CONTROL AND DISPATCH STORAGE, JAN 18,1977                            SEQ 0026

   610					S^;*********************************************************************^
   611					;*KL10 PROCESSOR TYPE FLAG, 0=P0, 1=BBD NEW, 2=BBD OLD
   612					S^;*********************************************************************^
   613
   614	030516	000000	000000		KLTYP:	0
   615
   616					S^;*********************************************************************^
   617					;*SPECIAL USERS MUUO INTERCEPT INSTRUCTION
   618					S^;*********************************************************************^
   619
   620	030517	000000	000000		$$MUUO:	0	;IF NON-ZERO, XCT'D AT START OF MUUOER
   621
   622					S^;*********************************************************************^
   623					;*SPECIAL USERS USER MODE OUTPUT ERROR INTERCEPT INSTUCTION
   624					S^;*********************************************************************^
   625
   626	030520	000000	000000		$$OUTER:0	;IF NON-ZERO, XCT'D AT END OF USER MODE ERROR
   627
   628					S^;*********************************************************************^
   629					;*"SWITCH" CALL USAGE CONTROL
   630					S^;*********************************************************************^
   631
   632	030521	000000	000000		$$TOGGLE:0	;IF NON-ZERO, USE C(CONSW) FOR SWITCHES
   633
   634					S^;*********************************************************************^
   635					;*SPECIAL USERS ALTMODE SWITCH CALL INTERCEPT INSTRUCTIONS
   636					S^;*********************************************************************^
   637
   638	030522	000000	000000		$$TAX1:	0	;IF NON-ZERO, XCT'D AT START OF ALTMODE SWITCH CALL
   639	030523	000000	000000		$$TAX2:	0	;IF NON-ZERO, XCT'D AT END OF ALTMODE SWITCH CALL
   640
   641					S^;*********************************************************************^
   642					;*SPECIAL FUTURE EXPANSION ROOM
   643					;*IF ANY FIXED AREA TAGS ARE ADDED, REDUCE THE SIZE OF
   644					;*THIS BLOCK STATEMENT ACCORDINGLY.  THIS MUST BE DONE
   645					;*SO THAT PREVIOUS FIXED ASSIGNMENTS DO NOT CHANGE.
   646					S^;*********************************************************************^
   647
   648	030524					BLOCK	53	;HOPEFULLY THIS IS ENOUGH FOREVER
   649
   650					S^;*********************************************************************^
   651					;*END OF FIXED STORAGE
   652					S^;*********************************************************************^
   653
   654			030577			$ENDFX=<PLISTE+100>&<777700>-1
   655	030577					LOC	$ENDFX
   656	030577	000000	000000		ENDFIX:	0		;END OF FIXED STORAGE
DAKCB	PDP-10 KA10 ADVANCED INSTRUCTION DIAGNOSTIC #2, VERSION 0,2 	MACRO %52(537) 12:44 21-JAN-77 PAGE 1
DAKCBM	MAC	21-JAN-77 12:33		DIAGNOSTIC SECTION,                                                                SEQ 0027

   657					SUBTTL	DIAGNOSTIC SECTION,
   658
   659					;	GENERAL DESCRIPTION
   660					;PART   I-FMP AND EXPONENT CALCULATE
   661					;PART   II-GEN TEST-FMP,FDV,DFN
   662					;PART	III - FMP AND EXPONENT CALCULATE
   663
   664	030600	037 05 0 00 000002 	RENTR1:	DROPDV			;CLOSE LOGICAL OUTPUT FILE
   665	030601	040 00 0 00 034133 		CALL	[SIXBIT .EXIT.]
   666
   667	030602				PGMNAM:	ASCIZ?
   668	030602	015 012 120 104 120 	PDP-10 KA10 ADVANCED INSTRUCTION DIAGNOSTIC #2 (DAKCB)
   669	030603	055 061 060 040 113
   670	030604	101 061 060 040 101
   671	030605	104 126 101 116 103
   672	030606	105 104 040 111 116
   673	030607	123 124 122 125 103
   674	030610	124 111 117 116 040
   675	030611	104 111 101 107 116
   676	030612	117 123 124 111 103
   677	030613	040 043 062 040 050
   678	030614	104 101 113 103 102
   679	030615	051 015 012 050 106 	(FLOATING MUL/DIV, DFN)
   680	030616	114 117 101 124 111
   681	030617	116 107 040 115 125
   682	030620	114 057 104 111 126
   683	030621	054 040 104 106 116
   684	030622	051 015 012 000 000 	?
   685
   686					;INITIALIZE SUBROUTINES
   687
   688	030623	265 00 0 00 030011 	START:	PGMINT
   689	030624	200 00 0 00 034134 		MOVE	[ASCIZ/CB/]
   690	030625	202 00 0 00 034055 		MOVEM	TLET		;INITIALIZE TEST LETTER
   691
   692	030626	254 00 0 00 030627 	STARTA:	JRST	CB00		;GO PERFORM DIAGNOSTIC
DAKCB	PDP-10 KA10 ADVANCED INSTRUCTION DIAGNOSTIC #2, VERSION 0,2 	MACRO %52(537) 12:44 21-JAN-77 PAGE 2
DAKCBM	MAC	21-JAN-77 12:33		DIAGNOSTIC SECTION,                                                                SEQ 0028

   693						LALL
   694					;TEST FMP
   695					;TEST APPARENT ABILITY TO FCE,
   696					;SCA AND DECODE
   697					;FCE FAILING RESULTS IN -NR ALL ZERO
   698					;SAC FAILS - C(AC)=ORIGINAL
   699
   700			000014		CB00:	AC=14
   701						SAVEAC	(1,1)^
   702	030627	201 16 0 00 030627 		MOVEI	AC+2,.
   703	030630	202 16 0 00 030051 		MOVEM	AC+2,TESTPC	;SETUP SUBTEST PC
   704	030631	201 16 0 00 000016 		MOVEI	AC+2,<AC+2>&17	;INFORM ERROR ROUTINE WHICH
   705	030632	202 16 0 00 034327 		MOVEM	AC+2,ERRLOP#	;AC IS USED FOR ITERATION^
   706
   707									;TEST FCE
   708	030633	205 14 0 00 200400 	P100:	MOVSI	AC,200400	;SETUP AC
   709	030634	400 13 0 00 000000 		SETZ	AC-1,		;SETUP BR
   710	030635	160 14 0 00 000013 		FMP	AC,AC-1		;C(AC) X C(E)
   711	030636	332 00 0 00 000014 		SKIPE	AC		;TEST PROD=0
   712	030637	003 14 0 00 000101 		ER3	AC,101		;FCE FAILED
   713	030640	321 16 0 00 030633 		JUMPL	AC+2,P100	;LOOP ON ERROR SWITCH
   714
   715									;TEST SAC
   716	030641	205 14 0 00 200400 	P200:	MOVSI	AC,200400	;SETUP AC
   717	030642	205 13 0 00 200400 		MOVSI	AC-1,200400	;SETUP BR
   718	030643	160 14 0 00 000013 		FMP	AC,AC-1		;C(AC) X C(E)
   719	030644	316 14 0 00 000013 		CAMN	AC,AC-1		;TEST C(AC)=ORIG
   720	030645	003 14 0 00 000201 		ER3	AC,201		;SAC FAILED
   721	030646	321 16 0 00 030641 		JUMPL	AC+2,P200	;LOOP ON ERROR SWITCH
   722
   723					;TEST FMP-EXP CAL
   724					;AR=000400000000
   725					;BR=000400000000
   726					;CORR PROD=177400000000 AND OVERFLOW
   727					;ERR PROD=177400000000 AND NOT OVERFLOW
   728
   729			000014			AC=14
   730						SAVEAC	(1,1)^
   731	030647	201 16 0 00 030647 		MOVEI	AC+2,.
   732	030650	202 16 0 00 030051 		MOVEM	AC+2,TESTPC	;SETUP SUBTEST PC
   733	030651	201 16 0 00 000016 		MOVEI	AC+2,<AC+2>&17	;INFORM ERROR ROUTINE WHICH
   734	030652	202 16 0 00 034327 		MOVEM	AC+2,ERRLOP#	;AC IS USED FOR ITERATION^
   735
   736	030653	255 10 0 00 030654 	P300:	JFCL	10,.+1		;CLEAR AROV, EXEC NEXT INST
   737	030654	205 12 0 00 177400 		MOVSI	AC-2,177400	;SETUP FOR COMPARISON
   738	030655	205 14 0 00 000400 		MOVSI	AC,400		;SETUP AC
   739	030656	205 13 0 00 000400 		MOVSI	AC-1,400	;SETUP BR
   740	030657	160 14 0 00 000013 		FMP	AC,AC-1		;C(AC) X C(E)
   741	030660	265 11 0 00 030661 		JSP	AC-3,.+1	;SAVE FLAGS
   742	030661	255 10 0 00 030663 		JFCL	10,.+2		;TEST FOR OVERFLOW
   743	030662	013 11 0 00 000301 		ER13	AC-3,301	;AROV FLAG WAS NOT SET
   744	030663	312 14 0 00 000012 		CAME	AC,AC-2		;TEST PROD=177400000000
   745	030664	003 14 0 00 000301 		ER3	AC,301
   746	030665	321 16 0 00 030653 		JUMPL	AC+2,P300	;LOOP ON ERROR SWITCH
DAKCB	PDP-10 KA10 ADVANCED INSTRUCTION DIAGNOSTIC #2, VERSION 0,2 	MACRO %52(537) 12:44 21-JAN-77 PAGE 3
DAKCBM	MAC	21-JAN-77 12:33		DIAGNOSTIC SECTION,                                                                SEQ 0029

   747					;TEST FMP - EXP CAL
   748					;AR=000400000000
   749					;BR=000400000000
   750					;CORR PROD=177400000000 AND UNDERFLOW
   751					;ERR PROD=377400000000 AND UNDERFLOW
   752
   753			000013			AC=13
   754						SAVEAC	(1,1)^
   755	030666	201 15 0 00 030666 		MOVEI	AC+2,.
   756	030667	202 15 0 00 030051 		MOVEM	AC+2,TESTPC	;SETUP SUBTEST PC
   757	030670	201 15 0 00 000015 		MOVEI	AC+2,<AC+2>&17	;INFORM ERROR ROUTINE WHICH
   758	030671	202 15 0 00 034327 		MOVEM	AC+2,ERRLOP#	;AC IS USED FOR ITERATION^
   759
   760	030672	254 02 1 00 034135 	P400:	JRST	2,@[.+1]	;CLEAR AR FXU FLAG
   761	030673	205 11 0 00 177400 		MOVSI	AC-2,177400	;SETUP FOR COMPARISON
   762	030674	205 13 0 00 000400 		MOVSI	AC,400		;SETUP AC
   763	030675	205 12 0 00 000400 		MOVSI	AC-1,400	;SETUP BR
   764	030676	160 13 0 00 000012 		FMP	AC,AC-1		;C(AC) X C(E)
   765	030677	265 10 0 00 030700 		JSP	AC-3,.+1	;STORE FLAGS AND PC
   766	030700	607 10 0 00 000100 		TLNN	AC-3,FXU	;EXAMINE FXU FLAG
   767	030701	013 10 0 00 000401 		ER13	AC-3,401	;FXU FLAG WAS NOT SET
   768	030702	312 13 0 00 000011 		CAME	AC,AC-2		;TEST PROD=177400000000
   769	030703	003 13 0 00 000401 		ER3	AC,401
   770	030704	255 10 0 00 030706 		JOV	.+2		;EXAMINE AROV FLAG
   771	030705	013 10 0 00 000401 		ER13	AC-3,401	;AROV WAS NOT SET
   772	030706	255 01 0 00 030710 		JFOV	.+2		;EXAMINE FOV FLAG
   773	030707	013 10 0 00 000401 		ER13	AC-3,401	;FOV WAS NOT SET
   774	030710	321 15 0 00 030672 		JUMPL	AC+2,P400	;LOOP ON ERROR SWITCH
   775
   776					;TEST FMP
   777					;AR=000400000000
   778					;BR=000400000000
   779					;CORR PROD=177400000000 AND OVERFLOW
   780					;ERR PROD=600400000000 AND OVERFLOW
   781
   782			000012			AC=12
   783						SAVEAC	(1,1)^
   784	030711	201 14 0 00 030711 		MOVEI	AC+2,.
   785	030712	202 14 0 00 030051 		MOVEM	AC+2,TESTPC	;SETUP SUBTEST PC
   786	030713	201 14 0 00 000014 		MOVEI	AC+2,<AC+2>&17	;INFORM ERROR ROUTINE WHICH
   787	030714	202 14 0 00 034327 		MOVEM	AC+2,ERRLOP#	;AC IS USED FOR ITERATION^
   788
   789	030715	255 10 0 00 030716 	P500:	JFCL	10,.+1		;CLEAR AROV, EXEC NEXT INST
   790	030716	205 10 0 00 177400 		MOVSI	AC-2,177400	;SETUP FOR COMPARISON
   791	030717	205 12 0 00 000400 		MOVSI	AC,400		;SETUP AC
   792	030720	205 11 0 00 000400 		MOVSI	AC-1,400	;SETUP BR
   793	030721	160 12 0 00 000011 		FMP	AC,AC-1		;C(AC) X C(E)
   794	030722	265 07 0 00 030723 		JSP	AC-3,.+1	;SAVE FLAGS
   795	030723	255 10 0 00 030725 		JFCL	10,.+2		;TEST AROV FLAG
   796	030724	013 07 0 00 000501 		ER13	AC-3,501	;NOT OVERFLOW
   797	030725	312 12 0 00 000010 		CAME	AC,AC-2		;TEST PROD=177400000000
   798	030726	003 12 0 00 000501 		ER3	AC,501
   799	030727	321 14 0 00 030715 		JUMPL	AC+2,P500	;LOOP ON ERROR SWITCH
DAKCB	PDP-10 KA10 ADVANCED INSTRUCTION DIAGNOSTIC #2, VERSION 0,2 	MACRO %52(537) 12:44 21-JAN-77 PAGE 4
DAKCBM	MAC	21-JAN-77 12:33		DIAGNOSTIC SECTION,                                                                SEQ 0030

   800					;TEST FMP
   801					;AR=200400000000
   802					;BR=000400000000
   803					;CORR PROD=377400000000 AND OVERFLOW
   804					;ERR PROD=1774000000000 AND NOT OVERFLOW
   805
   806			000005			AC=5
   807						SAVEAC (1,1)^
   808	030730	201 07 0 00 030730 		MOVEI	AC+2,.
   809	030731	202 07 0 00 030051 		MOVEM	AC+2,TESTPC	;SETUP SUBTEST PC
   810	030732	201 07 0 00 000007 		MOVEI	AC+2,<AC+2>&17	;INFORM ERROR ROUTINE WHICH
   811	030733	202 07 0 00 034327 		MOVEM	AC+2,ERRLOP#	;AC IS USED FOR ITERATION^
   812
   813	030734	255 10 0 00 030735 	P600:	JFCL	10,.+1		;CLR AROV,EXEC NEXT INST
   814	030735	205 03 0 00 377400 		MOVSI	AC-2,377400	;SETUP FOR COMPARISON
   815	030736	205 05 0 00 200400 		MOVSI	AC,200400	;SETUP AC
   816	030737	205 04 0 00 000400 		MOVSI	AC-1,400	;SETUP BR
   817	030740	160 05 0 00 000004 		FMP	AC,AC-1		;C(AC) X C(E)
   818	030741	265 02 0 00 030742 		JSP	AC-3,.+1	;SAVE FLAGS
   819	030742	255 10 0 00 030744 		JFCL	10,.+2		;TEST AROV FLAG
   820	030743	013 02 0 00 000601 		ER13	AC-3,601	;AROV NOT SET
   821	030744	312 05 0 00 000003 		CAME	AC,AC-2		;TEST PROD=377400000000
   822	030745	003 05 0 00 000601 		ER3	AC,601
   823	030746	321 07 0 00 030734 		JUMPL	AC+2,P600	;LOOP ON ERROR SWITCH
   824
   825					;TEST FMP
   826					;AR=000400000000
   827					;BR=000400000000
   828					;CORRECT PROD=177400000000 AND OVERFLOW
   829					;FAILURE OF EITHER RESULTS IN AN
   830					;ERROR PROD=144400000000 AND OVERFLOW
   831
   832			000011			AC=11
   833						SAVEAC	(1,1)^
   834	030747	201 13 0 00 030747 		MOVEI	AC+2,.
   835	030750	202 13 0 00 030051 		MOVEM	AC+2,TESTPC	;SETUP SUBTEST PC
   836	030751	201 13 0 00 000013 		MOVEI	AC+2,<AC+2>&17	;INFORM ERROR ROUTINE WHICH
   837	030752	202 13 0 00 034327 		MOVEM	AC+2,ERRLOP#	;AC IS USED FOR ITERATION^
   838
   839	030753	205 07 0 00 177400 	P700:	MOVSI	AC-2,177400	;SETUP FOR COMPARISON
   840	030754	205 11 0 00 000400 		MOVSI	AC,400		;SETUP AC
   841	030755	205 10 0 00 000400 		MOVSI	AC-1,400	;SETUP BR
   842	030756	160 11 0 00 000010 		FMP	AC,AC-1		;C(AC) X C(E)
   843	030757	265 06 0 00 030760 		JSP	AC-3,.+1	;SAVE FLAGS
   844	030760	255 10 0 00 030762 		JOV	.+2		;EXAMINE AROV FLAG
   845	030761	013 06 0 00 000701 		ER13	AC-3,701	;AROV NOT SET
   846	030762	255 01 0 00 030764 		JFOV	.+2		;EXAMINE FOV FLAG
   847	030763	013 06 0 00 000701 		ER13	AC-3,701	;FOV NOT SET
   848	030764	312 11 0 00 000007 		CAME	AC,AC-2		;TEST PROD=144400000000
   849	030765	003 11 0 00 000701 		ER3	AC,701
   850	030766	321 13 0 00 030753 		JUMPL	AC+2,P700	;LOOP ON ERROR SWITCH
DAKCB	PDP-10 KA10 ADVANCED INSTRUCTION DIAGNOSTIC #2, VERSION 0,2 	MACRO %52(537) 12:44 21-JAN-77 PAGE 5
DAKCBM	MAC	21-JAN-77 12:33		DIAGNOSTIC SECTION,                                                                SEQ 0031

   851					;TEST FMP
   852					;AR=000400000000
   853					;BR=000400000000
   854					;FAILURE OF A BIT TO SET RESULTS
   855					;IN A PROD=176.4, 173.4, 137.4,
   856					;165.4,153.4
   857					;CORRECT PROD=177400000000 AND OVERFLOW
   858					;NOTE-FAILURE TO INH FP EXP ADD LEVEL
   859					;(TEST NOT FP EXP ADD
   860					;MAY LOOK LIKE BIT 8 FAILING TO SET
   861
   862			000010			AC=10
   863						SAVEAC	(1,1)^
   864	030767	201 12 0 00 030767 		MOVEI	AC+2,.
   865	030770	202 12 0 00 030051 		MOVEM	AC+2,TESTPC	;SETUP SUBTEST PC
   866	030771	201 12 0 00 000012 		MOVEI	AC+2,<AC+2>&17	;INFORM ERROR ROUTINE WHICH
   867	030772	202 12 0 00 034327 		MOVEM	AC+2,ERRLOP#	;AC IS USED FOR ITERATION^
   868
   869			001000		SN=1000
   870			201400			ZZ=201400
   871
   872							;TEST SC8,6 SET
   873					P1000:	REPEAT	^D2,<
   874					SN=SN+1
   875						ZZ=ZZ-3000
   876						MOVSI	AC-2,ZZ		;SETUP FOR COMPARISON
   877						MOVSI	AC,400		;SETUP AC
   878						MOVSI	AC-1,400	;SETUP BR
   879						FMP	AC,AC-1		;C(AC) X C(E)
   880						CAMN	AC,AC-2		;TEST PROD
   881						ER3	AC,SN		;BIT UNDER TEST FAILED TO SET
   882						JUMPL	AC+2,.-6	;LOOP ON ERROR SWITCH
   883					>
   884
   885			001001		SN=SN+1
   886			176400			ZZ=ZZ-3000
   887	030773	205 06 0 00 176400 		MOVSI	AC-2,ZZ		;SETUP FOR COMPARISON
   888	030774	205 10 0 00 000400 		MOVSI	AC,400		;SETUP AC
   889	030775	205 07 0 00 000400 		MOVSI	AC-1,400	;SETUP BR
   890	030776	160 10 0 00 000007 		FMP	AC,AC-1		;C(AC) X C(E)
   891	030777	316 10 0 00 000006 		CAMN	AC,AC-2		;TEST PROD
   892	031000	003 10 0 00 001001 		ER3	AC,SN		;BIT UNDER TEST FAILED TO SET
   893	031001	321 12 0 00 030773 		JUMPL	AC+2,.-6	;LOOP ON ERROR SWITCH
   894
   895
   896			001002		SN=SN+1
   897			173400			ZZ=ZZ-3000
   898	031002	205 06 0 00 173400 		MOVSI	AC-2,ZZ		;SETUP FOR COMPARISON
   899	031003	205 10 0 00 000400 		MOVSI	AC,400		;SETUP AC
   900	031004	205 07 0 00 000400 		MOVSI	AC-1,400	;SETUP BR
   901	031005	160 10 0 00 000007 		FMP	AC,AC-1		;C(AC) X C(E)
   902	031006	316 10 0 00 000006 		CAMN	AC,AC-2		;TEST PROD
   903	031007	003 10 0 00 001002 		ER3	AC,SN		;BIT UNDER TEST FAILED TO SET
   904	031010	321 12 0 00 031002 		JUMPL	AC+2,.-6	;LOOP ON ERROR SWITCH
   905
DAKCB	PDP-10 KA10 ADVANCED INSTRUCTION DIAGNOSTIC #2, VERSION 0,2 	MACRO %52(537) 12:44 21-JAN-77 PAGE 5-1
DAKCBM	MAC	21-JAN-77 12:33		DIAGNOSTIC SECTION,                                                                SEQ 0032

   906					PAGE
DAKCB	PDP-10 KA10 ADVANCED INSTRUCTION DIAGNOSTIC #2, VERSION 0,2 	MACRO %52(537) 12:44 21-JAN-77 PAGE 5-2
DAKCBM	MAC	21-JAN-77 12:33		DIAGNOSTIC SECTION,                                                                SEQ 0033

   907			001100		SN=1100
   908			011400			ZZ=11400
   909
   910							;TEST SC3, 2 SET
   911					P1100:	REPEAT	^D2,<
   912					SN=SN+1
   913						ZZ=ZZ+26000
   914						MOVSI	AC-2,ZZ		;SETUP FOR COMPARISON
   915						MOVSI	AC,400		;SETUP AC
   916						MOVSI	AC-1,400	;SETUP BR
   917						FMP	AC,AC-1		;C(AC) X C(E)
   918						CAMN	AC,AC-2		;TEST PROD
   919						ER3	AC,SN		;BIT UNDER TEST FAILED
   920						JUMPL	AC+2,.-6	;LOOP ON ERROR SWITCH
   921					>
   922
   923			001101		SN=SN+1
   924			037400			ZZ=ZZ+26000
   925	031011	205 06 0 00 037400 		MOVSI	AC-2,ZZ		;SETUP FOR COMPARISON
   926	031012	205 10 0 00 000400 		MOVSI	AC,400		;SETUP AC
   927	031013	205 07 0 00 000400 		MOVSI	AC-1,400	;SETUP BR
   928	031014	160 10 0 00 000007 		FMP	AC,AC-1		;C(AC) X C(E)
   929	031015	316 10 0 00 000006 		CAMN	AC,AC-2		;TEST PROD
   930	031016	003 10 0 00 001101 		ER3	AC,SN		;BIT UNDER TEST FAILED
   931	031017	321 12 0 00 031011 		JUMPL	AC+2,.-6	;LOOP ON ERROR SWITCH
   932
   933
   934			001102		SN=SN+1
   935			065400			ZZ=ZZ+26000
   936	031020	205 06 0 00 065400 		MOVSI	AC-2,ZZ		;SETUP FOR COMPARISON
   937	031021	205 10 0 00 000400 		MOVSI	AC,400		;SETUP AC
   938	031022	205 07 0 00 000400 		MOVSI	AC-1,400	;SETUP BR
   939	031023	160 10 0 00 000007 		FMP	AC,AC-1		;C(AC) X C(E)
   940	031024	316 10 0 00 000006 		CAMN	AC,AC-2		;TEST PROD
   941	031025	003 10 0 00 001102 		ER3	AC,SN		;BIT UNDER TEST FAILED
   942	031026	321 12 0 00 031020 		JUMPL	AC+2,.-6	;LOOP ON ERROR SWITCH
   943
   944
   945									;TEST SC1 SET
   946	031027	205 06 0 00 153400 	P1200:	MOVSI	AC-2,153400	;SETUP FOR COMPARISON
   947	031030	205 10 0 00 000400 		MOVSI	AC,400		;SETUP AC
   948	031031	205 07 0 00 000400 		MOVSI	AC-1,400	;SETUP BR
   949	031032	160 10 0 00 000007 		FMP	AC,AC-1		;C(AC) + C(E)
   950	031033	316 10 0 00 000006 		CAMN	AC,AC-2		;TEST PROD
   951	031034	003 10 0 00 001201 		ER3	AC,1201		;SC1 FAILED TO SET
   952	031035	321 12 0 00 031027 		JUMPL	AC+2,.-6	;LOOP ON ERROR SWITCH
DAKCB	PDP-10 KA10 ADVANCED INSTRUCTION DIAGNOSTIC #2, VERSION 0,2 	MACRO %52(537) 12:44 21-JAN-77 PAGE 6
DAKCBM	MAC	21-JAN-77 12:33		DIAGNOSTIC SECTION,                                                                SEQ 0034

   953					;TEST FMP
   954					;AR=000400000000
   955					;BR=000400000000
   956					;CORR PROD=177400000000 AND OVERFLOW
   957					;FAILURE RESULTS IN LOSS OF MULTIPLICAND
   958					;AND AN NR ALL ZERO COND
   959
   960			000007			AC=7
   961						SAVEAC	(1,1)^
   962	031036	201 11 0 00 031036 		MOVEI	AC+2,.
   963	031037	202 11 0 00 030051 		MOVEM	AC+2,TESTPC	;SETUP SUBTEST PC
   964	031040	201 11 0 00 000011 		MOVEI	AC+2,<AC+2>&17	;INFORM ERROR ROUTINE WHICH
   965	031041	202 11 0 00 034327 		MOVEM	AC+2,ERRLOP#	;AC IS USED FOR ITERATION^
   966
   967	031042	205 07 0 00 000400 	P1300:	MOVSI	AC,400		;SETUP AC
   968	031043	205 06 0 00 000400 		MOVSI	AC-1,400	;SETUP BR
   969	031044	160 07 0 00 000006 		FMP	AC,AC-1		;C(AC) X C(E)
   970	031045	336 00 0 00 000007 		SKIPN	AC		;TEST PROD=0
   971	031046	003 07 0 00 001301 		ER3	AC,1301
   972	031047	321 11 0 00 031042 		JUMPL	AC+2,P1300	;LOOP ON ERROR SWITCH
DAKCB	PDP-10 KA10 ADVANCED INSTRUCTION DIAGNOSTIC #2, VERSION 0,2 	MACRO %52(537) 12:44 21-JAN-77 PAGE 7
DAKCBM	MAC	21-JAN-77 12:33		DIAGNOSTIC SECTION,                                                                SEQ 0035

   973					;TEST FMP - EXP CAL
   974					;AR=200400000000
   975					;BR=000400000000
   976					;CORR PROD=377400000000 AND OVERFLOW
   977					;ERR PROD=177400000000 AND OVERFLOW
   978
   979			000006			AC=6
   980						SAVEAC	(1,1)^
   981	031050	201 10 0 00 031050 		MOVEI	AC+2,.
   982	031051	202 10 0 00 030051 		MOVEM	AC+2,TESTPC	;SETUP SUBTEST PC
   983	031052	201 10 0 00 000010 		MOVEI	AC+2,<AC+2>&17	;INFORM ERROR ROUTINE WHICH
   984	031053	202 10 0 00 034327 		MOVEM	AC+2,ERRLOP#	;AC IS USED FOR ITERATION^
   985
   986	031054	255 10 0 00 031055 	P1400:	JFCL	10,.+1		;CLEAR AROV, EXEC NEXT INST
   987	031055	205 04 0 00 177400 		MOVSI	AC-2,177400	;SETUP FOR COMPARISON
   988	031056	205 06 0 00 200400 		MOVSI	AC,200400	;SETUP AC
   989	031057	205 05 0 00 000400 		MOVSI	AC-1,400	;SETUP BR
   990	031060	160 06 0 00 000005 		FMP	AC,AC-1		;C(AC) X C(E)
   991	031061	265 03 0 00 031062 		JSP	AC-3,.+1	;SAVE FLAGS
   992	031062	255 10 0 00 031064 		JFCL	10,.+2		;TEST AROV FLAG
   993	031063	013 03 0 00 001401 		ER13	AC-3,1401	;NOT OVERFLOW
   994	031064	316 06 0 00 000004 		CAMN	AC,AC-2		;TEST PROD=177400000000
   995	031065	003 06 0 00 001401 		ER3	AC,1401
   996	031066	321 10 0 00 031054 		JUMPL	AC+2,P1400	;LOOP ON ERROR SWITCH
DAKCB	PDP-10 KA10 ADVANCED INSTRUCTION DIAGNOSTIC #2, VERSION 0,2 	MACRO %52(537) 12:44 21-JAN-77 PAGE 8
DAKCBM	MAC	21-JAN-77 12:33		DIAGNOSTIC SECTION,                                                                SEQ 0036

   997					;TEST FMP - EXP CAL
   998					;TEST ABILITY TO SET INDIVIDUAL BITS
   999					;OF FE AND SC
  1000					;AR=177400000000
  1001					;BR=000400000000
  1002					;CORR PROD=376400000000 AND UNDERFLOW
  1003					;ERR PRODS=375.4, 374.4, 372.4,
  1004					;366.4, 356.4, 336.4, 276.4, 176.4, 376.4 (CORR PROD, NOT UNDERFLOW)
  1005
  1006			000014			AC=14
  1007						SAVEAC	(1,1)^
  1008	031067	201 16 0 00 031067 		MOVEI	AC+2,.
  1009	031070	202 16 0 00 030051 		MOVEM	AC+2,TESTPC	;SETUP SUBTEST PC
  1010	031071	201 16 0 00 000016 		MOVEI	AC+2,<AC+2>&17	;INFORM ERROR ROUTINE WHICH
  1011	031072	202 16 0 00 034327 		MOVEM	AC+2,ERRLOP#	;AC IS USED FOR ITERATION^
  1012
  1013			001500		SN=1500
  1014			376400			ZZ=376400
  1015
  1016							;TEST BITS 8, 7 SET
  1017					P1500:	REPEAT	^D2,<
  1018					SN=SN+1
  1019						ZZ=ZZ-1000
  1020						MOVSI	AC-2,ZZ		;SETUP FOR COMPARISON
  1021						MOVSI	AC,177400	;SETUP AC
  1022						MOVSI	AC-1,400	;SETUP BR
  1023						FMP	AC,AC-1		;C(AC) X C(E)
  1024						CAMN	AC,AC-2		;TEST PROD
  1025						ER3	AC,SN		;BIT UNDER TEST FAILED
  1026						JUMPL	AC+2,.-6	;LOOP ON ERROR SWITCH
  1027					>
  1028
  1029			001501		SN=SN+1
  1030			375400			ZZ=ZZ-1000
  1031	031073	205 12 0 00 375400 		MOVSI	AC-2,ZZ		;SETUP FOR COMPARISON
  1032	031074	205 14 0 00 177400 		MOVSI	AC,177400	;SETUP AC
  1033	031075	205 13 0 00 000400 		MOVSI	AC-1,400	;SETUP BR
  1034	031076	160 14 0 00 000013 		FMP	AC,AC-1		;C(AC) X C(E)
  1035	031077	316 14 0 00 000012 		CAMN	AC,AC-2		;TEST PROD
  1036	031100	003 14 0 00 001501 		ER3	AC,SN		;BIT UNDER TEST FAILED
  1037	031101	321 16 0 00 031073 		JUMPL	AC+2,.-6	;LOOP ON ERROR SWITCH
  1038
  1039
  1040			001502		SN=SN+1
  1041			374400			ZZ=ZZ-1000
  1042	031102	205 12 0 00 374400 		MOVSI	AC-2,ZZ		;SETUP FOR COMPARISON
  1043	031103	205 14 0 00 177400 		MOVSI	AC,177400	;SETUP AC
  1044	031104	205 13 0 00 000400 		MOVSI	AC-1,400	;SETUP BR
  1045	031105	160 14 0 00 000013 		FMP	AC,AC-1		;C(AC) X C(E)
  1046	031106	316 14 0 00 000012 		CAMN	AC,AC-2		;TEST PROD
  1047	031107	003 14 0 00 001502 		ER3	AC,SN		;BIT UNDER TEST FAILED
  1048	031110	321 16 0 00 031102 		JUMPL	AC+2,.-6	;LOOP ON ERROR SWITCH
  1049
  1050					PAGE
DAKCB	PDP-10 KA10 ADVANCED INSTRUCTION DIAGNOSTIC #2, VERSION 0,2 	MACRO %52(537) 12:44 21-JAN-77 PAGE 8-1
DAKCBM	MAC	21-JAN-77 12:33		DIAGNOSTIC SECTION,                                                                SEQ 0037

  1051									;TEST BIT 6 SET
  1052	031111	205 12 0 00 372400 	P1600:	MOVSI	AC-2,372400	;SETUP FOR COMPARISON
  1053	031112	205 14 0 00 177400 		MOVSI	AC,177400	;SETUP AC
  1054	031113	205 13 0 00 000400 		MOVSI	AC-1,400	;SETUP BR
  1055	031114	160 14 0 00 000013 		FMP	AC,AC-1		;C(AC) X C(E)
  1056	031115	316 14 0 00 000012 		CAMN	AC,AC-2		;TEST PROD
  1057	031116	003 14 0 00 001601 		ER3	AC,1601		;FE BIT 6 FAILED TO SET
  1058	031117	321 16 0 00 031111 		JUMPL	AC+2,P1600	;LOOP ON ERROR SWITCH
  1059
  1060			001700		SN=1700
  1061			367400			ZZ=367400
  1062
  1063							;TEST BITS 5-4 SET
  1064					P1700:	REPEAT	^D2,<
  1065					SN=SN+1
  1066						ZZ=ZZ-1000
  1067						MOVSI	AC-2,ZZ		;SETUP FOR COMPARISON
  1068						MOVSI	AC,177400	;SETUP AC
  1069						MOVSI	AC-1,400	;SETUP BR
  1070						FMP	AC,AC-1		;C(AC) X C(E)
  1071						CAMN	AC,AC-2		;TEST PROD
  1072						ER3	AC,SN		;BIT UNDER TEST FAILED
  1073						JUMPL	AC+2,.-6	;LOOP ON ERROR SWITCH
  1074					>
  1075
  1076			001701		SN=SN+1
  1077			366400			ZZ=ZZ-1000
  1078	031120	205 12 0 00 366400 		MOVSI	AC-2,ZZ		;SETUP FOR COMPARISON
  1079	031121	205 14 0 00 177400 		MOVSI	AC,177400	;SETUP AC
  1080	031122	205 13 0 00 000400 		MOVSI	AC-1,400	;SETUP BR
  1081	031123	160 14 0 00 000013 		FMP	AC,AC-1		;C(AC) X C(E)
  1082	031124	316 14 0 00 000012 		CAMN	AC,AC-2		;TEST PROD
  1083	031125	003 14 0 00 001701 		ER3	AC,SN		;BIT UNDER TEST FAILED
  1084	031126	321 16 0 00 031120 		JUMPL	AC+2,.-6	;LOOP ON ERROR SWITCH
  1085
  1086
  1087			001702		SN=SN+1
  1088			365400			ZZ=ZZ-1000
  1089	031127	205 12 0 00 365400 		MOVSI	AC-2,ZZ		;SETUP FOR COMPARISON
  1090	031130	205 14 0 00 177400 		MOVSI	AC,177400	;SETUP AC
  1091	031131	205 13 0 00 000400 		MOVSI	AC-1,400	;SETUP BR
  1092	031132	160 14 0 00 000013 		FMP	AC,AC-1		;C(AC) X C(E)
  1093	031133	316 14 0 00 000012 		CAMN	AC,AC-2		;TEST PROD
  1094	031134	003 14 0 00 001702 		ER3	AC,SN		;BIT UNDER TEST FAILED
  1095	031135	321 16 0 00 031127 		JUMPL	AC+2,.-6	;LOOP ON ERROR SWITCH
  1096
DAKCB	PDP-10 KA10 ADVANCED INSTRUCTION DIAGNOSTIC #2, VERSION 0,2 	MACRO %52(537) 12:44 21-JAN-77 PAGE 9
DAKCBM	MAC	21-JAN-77 12:33		DIAGNOSTIC SECTION,                                                                SEQ 0038

  1097			002000		SN=2000
  1098			376400			ZZ=376400
  1099
  1100							;TEST BITS 3,2 SET
  1101					P2000:	REPEAT	^D2,<
  1102					SN=SN+1
  1103						ZZ=ZZ-40000
  1104						MOVSI	AC-2,ZZ		;SETUP FOR COMPARISON
  1105						MOVSI	AC,177400	;SETUP AC
  1106						MOVSI	AC-1,400	;SETUP BR
  1107						FMP	AC,AC-1		;C(AC) X C(E)
  1108						CAMN	AC,AC-2		;TEST PROD
  1109						ER3	AC,SN		;BIT UNDER TEST FAILED
  1110						JUMPL	AC+2,.-6	;LOOP ON ERROR SWITCH
  1111					>
  1112
  1113			002001		SN=SN+1
  1114			336400			ZZ=ZZ-40000
  1115	031136	205 12 0 00 336400 		MOVSI	AC-2,ZZ		;SETUP FOR COMPARISON
  1116	031137	205 14 0 00 177400 		MOVSI	AC,177400	;SETUP AC
  1117	031140	205 13 0 00 000400 		MOVSI	AC-1,400	;SETUP BR
  1118	031141	160 14 0 00 000013 		FMP	AC,AC-1		;C(AC) X C(E)
  1119	031142	316 14 0 00 000012 		CAMN	AC,AC-2		;TEST PROD
  1120	031143	003 14 0 00 002001 		ER3	AC,SN		;BIT UNDER TEST FAILED
  1121	031144	321 16 0 00 031136 		JUMPL	AC+2,.-6	;LOOP ON ERROR SWITCH
  1122
  1123
  1124			002002		SN=SN+1
  1125			276400			ZZ=ZZ-40000
  1126	031145	205 12 0 00 276400 		MOVSI	AC-2,ZZ		;SETUP FOR COMPARISON
  1127	031146	205 14 0 00 177400 		MOVSI	AC,177400	;SETUP AC
  1128	031147	205 13 0 00 000400 		MOVSI	AC-1,400	;SETUP BR
  1129	031150	160 14 0 00 000013 		FMP	AC,AC-1		;C(AC) X C(E)
  1130	031151	316 14 0 00 000012 		CAMN	AC,AC-2		;TEST PROD
  1131	031152	003 14 0 00 002002 		ER3	AC,SN		;BIT UNDER TEST FAILED
  1132	031153	321 16 0 00 031145 		JUMPL	AC+2,.-6	;LOOP ON ERROR SWITCH
  1133
  1134
  1135									;TEST BIT 1 SET
  1136	031154	205 12 0 00 176400 	P2100:	MOVSI	AC-2,176400	;SETUP FOR COMPARISON
  1137	031155	205 14 0 00 177400 		MOVSI	AC,177400	;SETUP AC
  1138	031156	205 13 0 00 000400 		MOVSI	AC-1,400	;SETUP BR
  1139	031157	160 14 0 00 000013 		FMP	AC,AC-1		;C(AC) X C(E)
  1140	031160	316 14 0 00 000012 		CAMN	AC,AC-2		;TEST PROD
  1141	031161	003 14 0 00 002101 		ER3	AC,2101		;BIT UNDER TEST FAILED
  1142	031162	321 16 0 00 031154 		JUMPL	AC+2,P2100	;LOOP ON ERROR SWITCH
  1143					PAGE
DAKCB	PDP-10 KA10 ADVANCED INSTRUCTION DIAGNOSTIC #2, VERSION 0,2 	MACRO %52(537) 12:44 21-JAN-77 PAGE 9-1
DAKCBM	MAC	21-JAN-77 12:33		DIAGNOSTIC SECTION,                                                                SEQ 0039

  1144
  1145									;TEST BIT 0 SET
  1146	031163	254 02 1 00 034136 	P2200:	JRST	2,@[.+1]	;CLEAR ARFXU FLAG
  1147	031164	205 12 0 00 376400 		MOVSI	AC-2,376400	;SETUP FOR COMPARISON
  1148	031165	205 14 0 00 177400 		MOVSI	AC,177400	;SETUP AC
  1149	031166	205 13 0 00 000400 		MOVSI	AC-1,400	;SETUP BR
  1150	031167	160 14 0 00 000013 		FMP	AC,AC-1		;C(AC) X C(E)
  1151	031170	265 11 0 00 031171 		JSP	AC-3,.+1	;STORE FLAGS AND PC
  1152	031171	607 11 0 00 000100 		TLNN	AC-3,FXU	;EXAMINE FXU FLAG
  1153	031172	013 11 0 00 002201 		ER13	AC-3,2201	;FXU NOT SET
  1154	031173	312 14 0 00 000012 		CAME	AC,AC-2		;TEST PROD=376400000000
  1155	031174	003 14 0 00 002201 		ER3	AC,2201		;BIT 0 FAILED TO SET
  1156	031175	254 02 0 11 000005 		JRST	2,5(AC-3)	;CLEAR AROV, ARFOV FLAGS
  1157	031176	321 16 0 00 031163 		JUMPL	AC+2,P2200	;LOOP ON ERROR SWITCH
  1158
  1159					;TEST FMP - EXP CAL
  1160					;AR=377400000000
  1161					;BR=000400000000
  1162					;CORR PROD=176400000000
  1163					;ERR PROD=142400000000
  1164
  1165			000014			AC=14
  1166						SAVEAC	(1,1)^
  1167	031177	201 16 0 00 031177 		MOVEI	AC+2,.
  1168	031200	202 16 0 00 030051 		MOVEM	AC+2,TESTPC	;SETUP SUBTEST PC
  1169	031201	201 16 0 00 000016 		MOVEI	AC+2,<AC+2>&17	;INFORM ERROR ROUTINE WHICH
  1170	031202	202 16 0 00 034327 		MOVEM	AC+2,ERRLOP#	;AC IS USED FOR ITERATION^
  1171
  1172	031203	205 12 0 00 142400 	P2300:	MOVSI	AC-2,142400	;SETUP FOR COMPARISON
  1173	031204	205 14 0 00 377400 		MOVSI	AC,377400	;SETUP AC
  1174	031205	205 13 0 00 000400 		MOVSI	AC-1,400	;SETUP BR
  1175	031206	160 14 0 00 000013 		FMP	AC,AC-1		;C(AC) X C(E)
  1176	031207	316 14 0 00 000012 		CAMN	AC,AC-2		;TEST PROD=142400000000
  1177	031210	003 14 0 00 002301 		ER3	AC,2301
  1178	031211	321 16 0 00 031203 		JUMPL	AC+2,P2300	;LOOP ON ERROR SWITCH
DAKCB	PDP-10 KA10 ADVANCED INSTRUCTION DIAGNOSTIC #2, VERSION 0,2 	MACRO %52(537) 12:44 21-JAN-77 PAGE 10
DAKCBM	MAC	21-JAN-77 12:33		DIAGNOSTIC SECTION,                                                                SEQ 0040

  1179					;TEST FMP - EXP CAL
  1180					;TEST ABILITY TO CLEAR SC BITS 7, 5, 4
  1181					;AR=377400000000
  1182					;BR=000400000000
  1183					;CORR PROD=176400000000
  1184					;ERR PRODS=112.4, 120.4, 130.4
  1185
  1186			000013			AC=13
  1187						SAVEAC	(1,1)^
  1188	031212	201 15 0 00 031212 		MOVEI	AC+2,.
  1189	031213	202 15 0 00 030051 		MOVEM	AC+2,TESTPC	;SETUP SUBTEST PC
  1190	031214	201 15 0 00 000015 		MOVEI	AC+2,<AC+2>&17	;INFORM ERROR ROUTINE WHICH
  1191	031215	202 15 0 00 034327 		MOVEM	AC+2,ERRLOP#	;AC IS USED FOR ITERATION^
  1192
  1193									;TEST SC7 CLEARING
  1194	031216	205 11 0 00 112400 	P2400:	MOVSI	AC-2,112400	;SETUP FOR COMPARISON
  1195	031217	205 13 0 00 377400 		MOVSI	AC,377400	;SETUP AC
  1196	031220	205 12 0 00 000400 		MOVSI	AC-1,400	;SETUP BR
  1197	031221	160 13 0 00 000012 		FMP	AC,AC-1		;C(AC) X C(E)
  1198	031222	316 13 0 00 000011 		CAMN	AC,AC-2		;TEST PROD=112400000000
  1199	031223	003 13 0 00 002401 		ER3	AC,2401		;SC7 FAILED TO CLEAR
  1200	031224	321 15 0 00 031216 		JUMPL	AC+2,P2400	;LOOP ON ERROR SWITCH
  1201
  1202									;TEST SC5 CLEARING
  1203	031225	205 11 0 00 120400 	P2500:	MOVSI	AC-2,120400	;SETUP FOR COMPARISON
  1204	031226	205 13 0 00 377400 		MOVSI	AC,377400	;SETUP AC
  1205	031227	205 12 0 00 000400 		MOVSI	AC-1,400	;SETUP BR
  1206	031230	160 13 0 00 000012 		FMP	AC,AC-1		;C(AC) X C(E)
  1207	031231	316 13 0 00 000011 		CAMN	AC,AC-2		;TEST PROD=120400000000
  1208	031232	003 13 0 00 002501 		ER3	AC,2501		;SC5 FAILED TO CLEAR
  1209	031233	321 15 0 00 031225 		JUMPL	AC+2,P2500	;LOOP ON ERROR SWITCH
  1210									;TEST SC4 CLEARING
  1211	031234	205 11 0 00 130400 	P2600:	MOVSI	AC-2,130400	;SETUP FOR COMPARISON
  1212	031235	205 13 0 00 377400 		MOVSI	AC,377400	;SETUP AC
  1213	031236	205 12 0 00 000400 		MOVSI	AC-1,400	;SETUP BR
  1214	031237	160 13 0 00 000012 		FMP	AC,AC-1		;C(AC) X C(E)
  1215	031240	316 13 0 00 000011 		CAMN	AC,AC-2		;TEST PROD=130400000000
  1216	031241	003 13 0 00 002601 		ER3	AC,2601		;SC4 FAILED TO CLEAR
  1217	031242	321 15 0 00 031234 		JUMPL	AC+2,P2600	;LOOP ON ERROR SWITCH
DAKCB	PDP-10 KA10 ADVANCED INSTRUCTION DIAGNOSTIC #2, VERSION 0,2 	MACRO %52(537) 12:44 21-JAN-77 PAGE 11
DAKCBM	MAC	21-JAN-77 12:33		DIAGNOSTIC SECTION,                                                                SEQ 0041

  1218					;TEST FMP - EXP CAL
  1219					;AR=377400000000
  1220					;BR=000400000000
  1221					;CORR PROD=176400000000
  1222					;ERR PROD=601400000000
  1223
  1224			000012			AC=12
  1225						SAVEAC	(1,1)^
  1226	031243	201 14 0 00 031243 		MOVEI	AC+2,.
  1227	031244	202 14 0 00 030051 		MOVEM	AC+2,TESTPC	;SETUP SUBTEST PC
  1228	031245	201 14 0 00 000014 		MOVEI	AC+2,<AC+2>&17	;INFORM ERROR ROUTINE WHICH
  1229	031246	202 14 0 00 034327 		MOVEM	AC+2,ERRLOP#	;AC IS USED FOR ITERATION^
  1230
  1231	031247	205 10 0 00 601400 	P2700:	MOVSI	AC-2,601400	;SETUP FOR COMPARISON
  1232	031250	205 12 0 00 377400 		MOVSI	AC,377400	;SETUP AC
  1233	031251	205 11 0 00 000400 		MOVSI	AC-1,400	;SETUP BR
  1234	031252	160 12 0 00 000011 		FMP	AC,AC-1		;C(AC) X C(E)
  1235	031253	316 12 0 00 000010 		CAMN	AC,AC-2		;TEST PROD=601400000000
  1236	031254	003 12 0 00 002701 		ER3	AC,2701
  1237	031255	321 14 0 00 031247 		JUMPL	AC+2,P2700	;LOOP ON ERROR SWITCH
  1238
  1239					;TEST FMP - EXP CAL
  1240					;AR=577400000000
  1241					;BR=000400000000
  1242					;CORR PROD=377400000000 AND UNDERFLOW
  1243					;ERR PROD=376400000000
  1244
  1245			000011			AC=11
  1246						SAVEAC	(1,1)^
  1247	031256	201 13 0 00 031256 		MOVEI	AC+2,.
  1248	031257	202 13 0 00 030051 		MOVEM	AC+2,TESTPC	;SETUP SUBTEST PC
  1249	031260	201 13 0 00 000013 		MOVEI	AC+2,<AC+2>&17	;INFORM ERROR ROUTINE WHICH
  1250	031261	202 13 0 00 034327 		MOVEM	AC+2,ERRLOP#	;AC IS USED FOR ITERATION^
  1251
  1252	031262	205 07 0 00 376400 	P3000:	MOVSI	AC-2,376400	;SETUP FOR COMPARISON
  1253	031263	205 11 0 00 577400 		MOVSI	AC,577400	;SETUP AC
  1254	031264	205 10 0 00 000400 		MOVSI	AC-1,400	;SETUP BR
  1255	031265	160 11 0 00 000010 		FMP	AC,AC-1		;C(AC) X C(E)
  1256	031266	316 11 0 00 000007 		CAMN	AC,AC-2		;TEST PROD=376400000000
  1257	031267	003 11 0 00 003001 		ER3	AC,3001
  1258	031270	321 13 0 00 031262 		JUMPL	AC+2,P3000	;LOOP ON ERROR SWITCH
DAKCB	PDP-10 KA10 ADVANCED INSTRUCTION DIAGNOSTIC #2, VERSION 0,2 	MACRO %52(537) 12:44 21-JAN-77 PAGE 12
DAKCBM	MAC	21-JAN-77 12:33		DIAGNOSTIC SECTION,                                                                SEQ 0042

  1259					;TEST FMP - EXP CAL
  1260					;AR=000400000000
  1261					;BR=200400000000
  1262					;CORR PROD=377400000000 AND UNDERFLOW
  1263					;ERR PROD=177400000000 AND OVERFLOW
  1264
  1265			000010			AC=10
  1266						SAVEAC	(1,1)^
  1267	031271	201 12 0 00 031271 		MOVEI	AC+2,.
  1268	031272	202 12 0 00 030051 		MOVEM	AC+2,TESTPC	;SETUP SUBTEST PC
  1269	031273	201 12 0 00 000012 		MOVEI	AC+2,<AC+2>&17	;INFORM ERROR ROUTINE WHICH
  1270	031274	202 12 0 00 034327 		MOVEM	AC+2,ERRLOP#	;AC IS USED FOR ITERATION^
  1271
  1272	031275	255 10 0 00 031276 	P3100:	JFCL	10,.+1		;CLEAR AROV, EXEC NEXT INST
  1273	031276	205 06 0 00 177400 		MOVSI	AC-2,177400	;SETUP FOR COMPARISON
  1274	031277	205 10 0 00 000400 		MOVSI	AC,400		;SETUP AC
  1275	031300	205 07 0 00 200400 		MOVSI	AC-1,200400	;SETUP BR
  1276	031301	160 10 0 00 000007 		FMP	AC,AC-1		;C(AC) X C(E)
  1277	031302	265 05 0 00 031303 		JSP	AC-3,.+1	;READ FLAGS
  1278	031303	255 10 0 00 031305 		JFCL	10,.+2		;TEST FOR OVERFLOW
  1279	031304	013 05 0 00 003101 		ER13	AC-3,3101	;AROV NOT SET
  1280	031305	607 05 0 00 000100 		TLNN	AC-3,FXU	;EXAMINE FXU FLAG
  1281	031306	013 05 0 00 003101 		ER13	AC-3,3101	;FXU NOT SET
  1282	031307	316 10 0 00 000006 		CAMN	AC,AC-2		;TEST PROD=177400000000
  1283	031310	003 10 0 00 003101 		ER3	AC,3101
  1284	031311	321 12 0 00 031275 		JUMPL	AC+2,P3100	;LOOP ON ERROR SWITCH
  1285
  1286					;TEST FMP - EXP CAL
  1287					;AR=000400000000
  1288					;BR=200400000000
  1289					;CORR PROD=377400000000 AND UNDERFLOW
  1290					;ERR PROD=376400000000 AND OVER/UNDERFLOW NOT
  1291
  1292			000007			AC=7
  1293						SAVEAC	(1,1)^
  1294	031312	201 11 0 00 031312 		MOVEI	AC+2,.
  1295	031313	202 11 0 00 030051 		MOVEM	AC+2,TESTPC	;SETUP SUBTEST PC
  1296	031314	201 11 0 00 000011 		MOVEI	AC+2,<AC+2>&17	;INFORM ERROR ROUTINE WHICH
  1297	031315	202 11 0 00 034327 		MOVEM	AC+2,ERRLOP#	;AC IS USED FOR ITERATION^
  1298
  1299	031316	205 05 0 00 376400 	P3200:	MOVSI	AC-2,376400	;SETUP FOR COMPARISON
  1300	031317	205 07 0 00 000400 		MOVSI	AC,400		;SETUP AC
  1301	031320	205 06 0 00 200400 		MOVSI	AC-1,200400	;SETUP BR
  1302	031321	160 07 0 00 000006 		FMP	AC,AC-1		;C(AC) X C(E)
  1303	031322	316 07 0 00 000005 		CAMN	AC,AC-2		;TEST PROD=376400000000
  1304	031323	003 07 0 00 003201 		ER3	AC,3201		;FP EXP ADD ASSERTED
  1305	031324	321 11 0 00 031316 		JUMPL	AC+2,P3200	;LOOP ON ERROR SWITCH
DAKCB	PDP-10 KA10 ADVANCED INSTRUCTION DIAGNOSTIC #2, VERSION 0,2 	MACRO %52(537) 12:44 21-JAN-77 PAGE 13
DAKCBM	MAC	21-JAN-77 12:33		DIAGNOSTIC SECTION,                                                                SEQ 0043

  1306					;TEST FMP - EXP CAL
  1307					;AR=200400000000 (+1/2)
  1308					;BR=577400000000 (-1/2)
  1309					;CORR PROD=600400000000 (-1/4)
  1310					;ERR PROD=401400000000
  1311
  1312			000006			AC=6
  1313						SAVEAC	(1,1)^
  1314	031325	201 10 0 00 031325 		MOVEI	AC+2,.
  1315	031326	202 10 0 00 030051 		MOVEM	AC+2,TESTPC	;SETUP SUBTEST PC
  1316	031327	201 10 0 00 000010 		MOVEI	AC+2,<AC+2>&17	;INFORM ERROR ROUTINE WHICH
  1317	031330	202 10 0 00 034327 		MOVEM	AC+2,ERRLOP#	;AC IS USED FOR ITERATION^
  1318
  1319	031331	205 04 0 00 401400 	P3300:	MOVSI	AC-2,401400	;SETUP FOR COMPARISON
  1320	031332	205 06 0 00 200400 		MOVSI	AC,200400	;SETUP AC
  1321	031333	205 05 0 00 577400 		MOVSI	AC-1,577400	;SETUP BR
  1322	031334	160 06 0 00 000005 		FMP	AC,AC-1		;C(AC) X C(E)
  1323	031335	316 06 0 00 000004 		CAMN	AC,AC-2		;TEST PROD=401400000000
  1324	031336	003 06 0 00 003301 		ER3	AC,3301		;FP EXP ADD FAILED
  1325	031337	321 10 0 00 031331 		JUMPL	AC+2,P3300	;LOOP ON ERROR SWITCH
  1326
  1327					;TEST FMP - EXP CAL
  1328					;AR=200400000000
  1329					;BR=200400000000
  1330					;CORR PROD=177400000000
  1331					;ERR PROD=377400000000 AND UNDERFLOW
  1332
  1333			000005			AC=5
  1334						SAVEAC	(1,1)^
  1335	031340	201 07 0 00 031340 		MOVEI	AC+2,.
  1336	031341	202 07 0 00 030051 		MOVEM	AC+2,TESTPC	;SETUP SUBTEST PC
  1337	031342	201 07 0 00 000007 		MOVEI	AC+2,<AC+2>&17	;INFORM ERROR ROUTINE WHICH
  1338	031343	202 07 0 00 034327 		MOVEM	AC+2,ERRLOP#	;AC IS USED FOR ITERATION^
  1339
  1340	031344	254 02 1 00 034137 	P3400:	JRST	2,@[.+1]	;CLEAR AR FXU, EXEC NEXT INST
  1341	031345	205 03 0 00 377400 		MOVSI	AC-2,377400	;SETUP FOR COMPARISON
  1342	031346	205 05 0 00 200400 		MOVSI	AC,200400	;SETUP AC
  1343	031347	205 04 0 00 200400 		MOVSI	AC-1,200400	;SETUP BR
  1344	031350	160 05 0 00 000004 		FMP	AC,AC-1		;C(AC) X C(E)
  1345	031351	265 02 0 00 031352 		JSP	AC-3,.+1	;STORE FLAGS, PC
  1346	031352	603 02 0 00 000100 		TLNE	AC-3,FXU	;EXAMINE FXU FLAG
  1347	031353	013 02 0 00 003401 		ER13	AC-3,3401	;FXU IS SET
  1348	031354	316 05 0 00 000003 		CAMN	AC,AC-2		;TEST PROD=377400000000
  1349	031355	003 05 0 00 003401 		ER3	AC,3401
  1350	031356	254 02 0 02 000005 		JRST	2,5(AC-3)	;CLEAR AROV, ARFOV FLAGS
  1351	031357	321 07 0 00 031344 		JUMPL	AC+2,P3400	;LOOP ON ERROR SWITCH
DAKCB	PDP-10 KA10 ADVANCED INSTRUCTION DIAGNOSTIC #2, VERSION 0,2 	MACRO %52(537) 12:44 21-JAN-77 PAGE 14
DAKCBM	MAC	21-JAN-77 12:33		DIAGNOSTIC SECTION,                                                                SEQ 0044

  1352
  1353					;TEST FMP - EXP CAL
  1354					;AR=200400000000 (+1/2)
  1355					;BR=205400000000 (+20)
  1356					;CORR PROD=204400000000 (+10)
  1357					;ERR PROD=372400000000 AND OVERFLOW
  1358
  1359			000014			AC=14
  1360						SAVEAC	(1,1)^
  1361	031360	201 16 0 00 031360 		MOVEI	AC+2,.
  1362	031361	202 16 0 00 030051 		MOVEM	AC+2,TESTPC	;SETUP SUBTEST PC
  1363	031362	201 16 0 00 000016 		MOVEI	AC+2,<AC+2>&17	;INFORM ERROR ROUTINE WHICH
  1364	031363	202 16 0 00 034327 		MOVEM	AC+2,ERRLOP#	;AC IS USED FOR ITERATION^
  1365
  1366	031364	255 10 0 00 031365 	P3500:	JFCL	10,.+1		;CLEAR AROV, EXEC NEXT INST
  1367	031365	205 12 0 00 372400 		MOVSI	AC-2,372400	;SETUP FOR COMPARISON
  1368	031366	205 14 0 00 200400 		MOVSI	AC,200400	;SETUP AC
  1369	031367	205 13 0 00 205400 		MOVSI	AC-1,205400	;SETUP BR
  1370	031370	160 14 0 00 000013 		FMP	AC,AC-1		;C(AC) X C(E)
  1371	031371	265 11 0 00 031372 		JSP	AC-3,.+1	;SAVE FLAGS
  1372	031372	255 10 0 00 031374 		JFCL	10,.+2		;TEST AROV
  1373	031373	254 00 0 00 031375 		JRST	.+2
  1374	031374	013 11 0 00 003501 		ER13	AC-3,3501	;AROV SET
  1375	031375	316 14 0 00 000012 		CAMN	AC,AC-2		;TEST PROD=372400000000
  1376	031376	003 14 0 00 003501 		ER3	AC,3501
  1377	031377	321 16 0 00 031364 		JUMPL	AC+2,P3500	;LOOP ON ERROR SWITCH
  1378
  1379					;TEST FMP
  1380					;AR=0
  1381					;BR=577400000000
  1382					;CORR PROD=0 (NR ALL ZERO COND)
  1383					;ERR PROD=312400000000 AND UNDERFLOW
  1384
  1385			000014			AC=14
  1386						SAVEAC	(1,1)^
  1387	031400	201 16 0 00 031400 		MOVEI	AC+2,.
  1388	031401	202 16 0 00 030051 		MOVEM	AC+2,TESTPC	;SETUP SUBTEST PC
  1389	031402	201 16 0 00 000016 		MOVEI	AC+2,<AC+2>&17	;INFORM ERROR ROUTINE WHICH
  1390	031403	202 16 0 00 034327 		MOVEM	AC+2,ERRLOP#	;AC IS USED FOR ITERATION^
  1391
  1392	031404	205 12 0 00 312400 	P3600:	MOVSI	AC-2,312400	;SETUP FOR COMPARISON
  1393	031405	400 14 0 00 000000 		SETZ	AC,		;SETUP AC
  1394	031406	205 13 0 00 577400 		MOVSI	AC-1,577400	;SETUP BR
  1395	031407	160 14 0 00 000013 		FMP	AC,AC-1		;C(AC) X C(E)
  1396	031410	316 14 0 00 000012 		CAMN	AC,AC-2		;TEST PROD=312400000000
  1397	031411	003 14 0 00 003601 		ER3	AC,3601
  1398	031412	321 16 0 00 031404 		JUMPL	AC+2,P3600	;LOOP ON ERROR SWITCH
DAKCB	PDP-10 KA10 ADVANCED INSTRUCTION DIAGNOSTIC #2, VERSION 0,2 	MACRO %52(537) 12:44 21-JAN-77 PAGE 15
DAKCBM	MAC	21-JAN-77 12:33		PART IIIB-GEN TEST-FMP,FDV AND DFN                                                 SEQ 0045

  1399					SUBTTL  PART IIIB-GEN TEST-FMP,FDV AND DFN
  1400
  1401
  1402
  1403
  1404					;PART IIIB-GENTEST -FMP, FDV AND DFN
  1405					;TEST FMP-EXPCAL
  1406					;NR NORMAL
  1407					;TWO POSITIVES, INCREASING BR EXPONENT
  1408					;AR=200400000000
  1409					;BR=201.4,202.4,204.4,210.4,220.4
  1410					;240.4,300.4
  1411					;PRODS=200.4,201.4,203.4,207.4,217.4
  1412					;237.4,277.4
  1413
  1414			000014			AC=14
  1415						SAVEAC	(1,1)^
  1416	031413	201 16 0 00 031413 		MOVEI	AC+2,.
  1417	031414	202 16 0 00 030051 		MOVEM	AC+2,TESTPC	;SETUP SUBTEST PC
  1418	031415	201 16 0 00 000016 		MOVEI	AC+2,<AC+2>&17	;INFORM ERROR ROUTINE WHICH
  1419	031416	202 16 0 00 034327 		MOVEM	AC+2,ERRLOP#	;AC IS USED FOR ITERATION^
  1420			003700		SN=3700
  1421			000400			ZZ=400
  1422
  1423							;TEST FMP
  1424					P3700:	REPEAT	^D7,<
  1425					SN=SN+1
  1426						ZZ=ZZ+ZZ
  1427						XX=ZZ-1000
  1428						MOVSI	AC-2,200400+XX	;SETUP FOR COMPARISON
  1429						MOVSI	AC,200400	;SETUP AC
  1430						MOVSI	AC-1,200400+ZZ	;SETUP BR
  1431						FMP	AC,AC-1		;C(AC)XC(E)
  1432						CAME	AC,AC-2		;TEST PROD
  1433						ER3	AC,SN		;FMP FAILED
  1434						JUMPL	AC+2,.-6	;LOOP ON ERROR SWITCH
  1435					>
  1436
  1437			003701		SN=SN+1
  1438			001000			ZZ=ZZ+ZZ
  1439			000000			XX=ZZ-1000
  1440	031417	205 12 0 00 200400 		MOVSI	AC-2,200400+XX	;SETUP FOR COMPARISON
  1441	031420	205 14 0 00 200400 		MOVSI	AC,200400	;SETUP AC
  1442	031421	205 13 0 00 201400 		MOVSI	AC-1,200400+ZZ	;SETUP BR
  1443	031422	160 14 0 00 000013 		FMP	AC,AC-1		;C(AC)XC(E)
  1444	031423	312 14 0 00 000012 		CAME	AC,AC-2		;TEST PROD
  1445	031424	003 14 0 00 003701 		ER3	AC,SN		;FMP FAILED
  1446	031425	321 16 0 00 031417 		JUMPL	AC+2,.-6	;LOOP ON ERROR SWITCH
  1447
  1448
  1449			003702		SN=SN+1
  1450			002000			ZZ=ZZ+ZZ
  1451			001000			XX=ZZ-1000
  1452	031426	205 12 0 00 201400 		MOVSI	AC-2,200400+XX	;SETUP FOR COMPARISON
  1453	031427	205 14 0 00 200400 		MOVSI	AC,200400	;SETUP AC
DAKCB	PDP-10 KA10 ADVANCED INSTRUCTION DIAGNOSTIC #2, VERSION 0,2 	MACRO %52(537) 12:44 21-JAN-77 PAGE 15-1
DAKCBM	MAC	21-JAN-77 12:33		PART IIIB-GEN TEST-FMP,FDV AND DFN                                                 SEQ 0046

  1454	031430	205 13 0 00 202400 		MOVSI	AC-1,200400+ZZ	;SETUP BR
  1455	031431	160 14 0 00 000013 		FMP	AC,AC-1		;C(AC)XC(E)
  1456	031432	312 14 0 00 000012 		CAME	AC,AC-2		;TEST PROD
  1457	031433	003 14 0 00 003702 		ER3	AC,SN		;FMP FAILED
  1458	031434	321 16 0 00 031426 		JUMPL	AC+2,.-6	;LOOP ON ERROR SWITCH
  1459
  1460
  1461			003703		SN=SN+1
  1462			004000			ZZ=ZZ+ZZ
  1463			003000			XX=ZZ-1000
  1464	031435	205 12 0 00 203400 		MOVSI	AC-2,200400+XX	;SETUP FOR COMPARISON
  1465	031436	205 14 0 00 200400 		MOVSI	AC,200400	;SETUP AC
  1466	031437	205 13 0 00 204400 		MOVSI	AC-1,200400+ZZ	;SETUP BR
  1467	031440	160 14 0 00 000013 		FMP	AC,AC-1		;C(AC)XC(E)
  1468	031441	312 14 0 00 000012 		CAME	AC,AC-2		;TEST PROD
  1469	031442	003 14 0 00 003703 		ER3	AC,SN		;FMP FAILED
  1470	031443	321 16 0 00 031435 		JUMPL	AC+2,.-6	;LOOP ON ERROR SWITCH
  1471
  1472
  1473			003704		SN=SN+1
  1474			010000			ZZ=ZZ+ZZ
  1475			007000			XX=ZZ-1000
  1476	031444	205 12 0 00 207400 		MOVSI	AC-2,200400+XX	;SETUP FOR COMPARISON
  1477	031445	205 14 0 00 200400 		MOVSI	AC,200400	;SETUP AC
  1478	031446	205 13 0 00 210400 		MOVSI	AC-1,200400+ZZ	;SETUP BR
  1479	031447	160 14 0 00 000013 		FMP	AC,AC-1		;C(AC)XC(E)
  1480	031450	312 14 0 00 000012 		CAME	AC,AC-2		;TEST PROD
  1481	031451	003 14 0 00 003704 		ER3	AC,SN		;FMP FAILED
  1482	031452	321 16 0 00 031444 		JUMPL	AC+2,.-6	;LOOP ON ERROR SWITCH
  1483
  1484
  1485			003705		SN=SN+1
  1486			020000			ZZ=ZZ+ZZ
  1487			017000			XX=ZZ-1000
  1488	031453	205 12 0 00 217400 		MOVSI	AC-2,200400+XX	;SETUP FOR COMPARISON
  1489	031454	205 14 0 00 200400 		MOVSI	AC,200400	;SETUP AC
  1490	031455	205 13 0 00 220400 		MOVSI	AC-1,200400+ZZ	;SETUP BR
  1491	031456	160 14 0 00 000013 		FMP	AC,AC-1		;C(AC)XC(E)
  1492	031457	312 14 0 00 000012 		CAME	AC,AC-2		;TEST PROD
  1493	031460	003 14 0 00 003705 		ER3	AC,SN		;FMP FAILED
  1494	031461	321 16 0 00 031453 		JUMPL	AC+2,.-6	;LOOP ON ERROR SWITCH
  1495
  1496
  1497			003706		SN=SN+1
  1498			040000			ZZ=ZZ+ZZ
  1499			037000			XX=ZZ-1000
  1500	031462	205 12 0 00 237400 		MOVSI	AC-2,200400+XX	;SETUP FOR COMPARISON
  1501	031463	205 14 0 00 200400 		MOVSI	AC,200400	;SETUP AC
  1502	031464	205 13 0 00 240400 		MOVSI	AC-1,200400+ZZ	;SETUP BR
  1503	031465	160 14 0 00 000013 		FMP	AC,AC-1		;C(AC)XC(E)
  1504	031466	312 14 0 00 000012 		CAME	AC,AC-2		;TEST PROD
  1505	031467	003 14 0 00 003706 		ER3	AC,SN		;FMP FAILED
  1506	031470	321 16 0 00 031462 		JUMPL	AC+2,.-6	;LOOP ON ERROR SWITCH
  1507
  1508
DAKCB	PDP-10 KA10 ADVANCED INSTRUCTION DIAGNOSTIC #2, VERSION 0,2 	MACRO %52(537) 12:44 21-JAN-77 PAGE 15-2
DAKCBM	MAC	21-JAN-77 12:33		PART IIIB-GEN TEST-FMP,FDV AND DFN                                                 SEQ 0047

  1509			003707		SN=SN+1
  1510			100000			ZZ=ZZ+ZZ
  1511			077000			XX=ZZ-1000
  1512	031471	205 12 0 00 277400 		MOVSI	AC-2,200400+XX	;SETUP FOR COMPARISON
  1513	031472	205 14 0 00 200400 		MOVSI	AC,200400	;SETUP AC
  1514	031473	205 13 0 00 300400 		MOVSI	AC-1,200400+ZZ	;SETUP BR
  1515	031474	160 14 0 00 000013 		FMP	AC,AC-1		;C(AC)XC(E)
  1516	031475	312 14 0 00 000012 		CAME	AC,AC-2		;TEST PROD
  1517	031476	003 14 0 00 003707 		ER3	AC,SN		;FMP FAILED
  1518	031477	321 16 0 00 031471 		JUMPL	AC+2,.-6	;LOOP ON ERROR SWITCH
  1519
DAKCB	PDP-10 KA10 ADVANCED INSTRUCTION DIAGNOSTIC #2, VERSION 0,2 	MACRO %52(537) 12:44 21-JAN-77 PAGE 16
DAKCBM	MAC	21-JAN-77 12:33		PART IIIB-GEN TEST-FMP,FDV AND DFN                                                 SEQ 0048

  1520					;TEST FMP-EXP CAL
  1521					;NR NORMAL
  1522					;TWO POSITIVES, INCREASING AR EXPONENT
  1523					;AR=201.4,202.4,204.4,210.4,220.4,
  1524					;240.4,300.4
  1525					;BR=200400000000
  1526					;PRODS=200.4 201.4,203.4,207.4,217.4,237.4,277.4
  1527
  1528			000014			AC=14
  1529						SAVEAC	(1,1)^
  1530	031500	201 16 0 00 031500 		MOVEI	AC+2,.
  1531	031501	202 16 0 00 030051 		MOVEM	AC+2,TESTPC	;SETUP SUBTEST PC
  1532	031502	201 16 0 00 000016 		MOVEI	AC+2,<AC+2>&17	;INFORM ERROR ROUTINE WHICH
  1533	031503	202 16 0 00 034327 		MOVEM	AC+2,ERRLOP#	;AC IS USED FOR ITERATION^
  1534			004000		SN=4000
  1535			000400			ZZ=400
  1536
  1537							;TEST FMP
  1538					P4000:	REPEAT	^D7,<
  1539					SN=SN+1
  1540						ZZ=ZZ+ZZ
  1541						XX=ZZ-1000
  1542						MOVSI	AC-2,200400+XX	;SETUP FOR COMPARISON
  1543						MOVSI	AC,200400+ZZ	;SETUP AC
  1544						MOVSI	AC-1,200400	;SETUP BR
  1545						FMP	AC,AC-1		;C(AC)XC(E)
  1546						CAME	AC,AC-2		;TEST PROD
  1547						ER3	AC,SN		;FMP FAILED
  1548						JUMPL	AC+2,.-6	;LOOP ON ERROR SWITCH
  1549					>
  1550
  1551			004001		SN=SN+1
  1552			001000			ZZ=ZZ+ZZ
  1553			000000			XX=ZZ-1000
  1554	031504	205 12 0 00 200400 		MOVSI	AC-2,200400+XX	;SETUP FOR COMPARISON
  1555	031505	205 14 0 00 201400 		MOVSI	AC,200400+ZZ	;SETUP AC
  1556	031506	205 13 0 00 200400 		MOVSI	AC-1,200400	;SETUP BR
  1557	031507	160 14 0 00 000013 		FMP	AC,AC-1		;C(AC)XC(E)
  1558	031510	312 14 0 00 000012 		CAME	AC,AC-2		;TEST PROD
  1559	031511	003 14 0 00 004001 		ER3	AC,SN		;FMP FAILED
  1560	031512	321 16 0 00 031504 		JUMPL	AC+2,.-6	;LOOP ON ERROR SWITCH
  1561
  1562
  1563			004002		SN=SN+1
  1564			002000			ZZ=ZZ+ZZ
  1565			001000			XX=ZZ-1000
  1566	031513	205 12 0 00 201400 		MOVSI	AC-2,200400+XX	;SETUP FOR COMPARISON
  1567	031514	205 14 0 00 202400 		MOVSI	AC,200400+ZZ	;SETUP AC
  1568	031515	205 13 0 00 200400 		MOVSI	AC-1,200400	;SETUP BR
  1569	031516	160 14 0 00 000013 		FMP	AC,AC-1		;C(AC)XC(E)
  1570	031517	312 14 0 00 000012 		CAME	AC,AC-2		;TEST PROD
  1571	031520	003 14 0 00 004002 		ER3	AC,SN		;FMP FAILED
  1572	031521	321 16 0 00 031513 		JUMPL	AC+2,.-6	;LOOP ON ERROR SWITCH
  1573
  1574
DAKCB	PDP-10 KA10 ADVANCED INSTRUCTION DIAGNOSTIC #2, VERSION 0,2 	MACRO %52(537) 12:44 21-JAN-77 PAGE 16-1
DAKCBM	MAC	21-JAN-77 12:33		PART IIIB-GEN TEST-FMP,FDV AND DFN                                                 SEQ 0049

  1575			004003		SN=SN+1
  1576			004000			ZZ=ZZ+ZZ
  1577			003000			XX=ZZ-1000
  1578	031522	205 12 0 00 203400 		MOVSI	AC-2,200400+XX	;SETUP FOR COMPARISON
  1579	031523	205 14 0 00 204400 		MOVSI	AC,200400+ZZ	;SETUP AC
  1580	031524	205 13 0 00 200400 		MOVSI	AC-1,200400	;SETUP BR
  1581	031525	160 14 0 00 000013 		FMP	AC,AC-1		;C(AC)XC(E)
  1582	031526	312 14 0 00 000012 		CAME	AC,AC-2		;TEST PROD
  1583	031527	003 14 0 00 004003 		ER3	AC,SN		;FMP FAILED
  1584	031530	321 16 0 00 031522 		JUMPL	AC+2,.-6	;LOOP ON ERROR SWITCH
  1585
  1586
  1587			004004		SN=SN+1
  1588			010000			ZZ=ZZ+ZZ
  1589			007000			XX=ZZ-1000
  1590	031531	205 12 0 00 207400 		MOVSI	AC-2,200400+XX	;SETUP FOR COMPARISON
  1591	031532	205 14 0 00 210400 		MOVSI	AC,200400+ZZ	;SETUP AC
  1592	031533	205 13 0 00 200400 		MOVSI	AC-1,200400	;SETUP BR
  1593	031534	160 14 0 00 000013 		FMP	AC,AC-1		;C(AC)XC(E)
  1594	031535	312 14 0 00 000012 		CAME	AC,AC-2		;TEST PROD
  1595	031536	003 14 0 00 004004 		ER3	AC,SN		;FMP FAILED
  1596	031537	321 16 0 00 031531 		JUMPL	AC+2,.-6	;LOOP ON ERROR SWITCH
  1597
  1598
  1599			004005		SN=SN+1
  1600			020000			ZZ=ZZ+ZZ
  1601			017000			XX=ZZ-1000
  1602	031540	205 12 0 00 217400 		MOVSI	AC-2,200400+XX	;SETUP FOR COMPARISON
  1603	031541	205 14 0 00 220400 		MOVSI	AC,200400+ZZ	;SETUP AC
  1604	031542	205 13 0 00 200400 		MOVSI	AC-1,200400	;SETUP BR
  1605	031543	160 14 0 00 000013 		FMP	AC,AC-1		;C(AC)XC(E)
  1606	031544	312 14 0 00 000012 		CAME	AC,AC-2		;TEST PROD
  1607	031545	003 14 0 00 004005 		ER3	AC,SN		;FMP FAILED
  1608	031546	321 16 0 00 031540 		JUMPL	AC+2,.-6	;LOOP ON ERROR SWITCH
  1609
  1610
  1611			004006		SN=SN+1
  1612			040000			ZZ=ZZ+ZZ
  1613			037000			XX=ZZ-1000
  1614	031547	205 12 0 00 237400 		MOVSI	AC-2,200400+XX	;SETUP FOR COMPARISON
  1615	031550	205 14 0 00 240400 		MOVSI	AC,200400+ZZ	;SETUP AC
  1616	031551	205 13 0 00 200400 		MOVSI	AC-1,200400	;SETUP BR
  1617	031552	160 14 0 00 000013 		FMP	AC,AC-1		;C(AC)XC(E)
  1618	031553	312 14 0 00 000012 		CAME	AC,AC-2		;TEST PROD
  1619	031554	003 14 0 00 004006 		ER3	AC,SN		;FMP FAILED
  1620	031555	321 16 0 00 031547 		JUMPL	AC+2,.-6	;LOOP ON ERROR SWITCH
  1621
  1622
  1623			004007		SN=SN+1
  1624			100000			ZZ=ZZ+ZZ
  1625			077000			XX=ZZ-1000
  1626	031556	205 12 0 00 277400 		MOVSI	AC-2,200400+XX	;SETUP FOR COMPARISON
  1627	031557	205 14 0 00 300400 		MOVSI	AC,200400+ZZ	;SETUP AC
  1628	031560	205 13 0 00 200400 		MOVSI	AC-1,200400	;SETUP BR
  1629	031561	160 14 0 00 000013 		FMP	AC,AC-1		;C(AC)XC(E)
DAKCB	PDP-10 KA10 ADVANCED INSTRUCTION DIAGNOSTIC #2, VERSION 0,2 	MACRO %52(537) 12:44 21-JAN-77 PAGE 16-2
DAKCBM	MAC	21-JAN-77 12:33		PART IIIB-GEN TEST-FMP,FDV AND DFN                                                 SEQ 0050

  1630	031562	312 14 0 00 000012 		CAME	AC,AC-2		;TEST PROD
  1631	031563	003 14 0 00 004007 		ER3	AC,SN		;FMP FAILED
  1632	031564	321 16 0 00 031556 		JUMPL	AC+2,.-6	;LOOP ON ERROR SWITCH
  1633
  1634					PAGE
DAKCB	PDP-10 KA10 ADVANCED INSTRUCTION DIAGNOSTIC #2, VERSION 0,2 	MACRO %52(537) 12:44 21-JAN-77 PAGE 16-3
DAKCBM	MAC	21-JAN-77 12:33		PART IIIB-GEN TEST-FMP,FDV AND DFN                                                 SEQ 0051

  1635					;TEST FMP - EXP CAL
  1636					;FP EXP ADD, NR NORMAL
  1637					;AR=200400000000
  1638					;BR=577.4,576.4,575.4
  1639					;PRODS=600.4,577.4,576.4
  1640
  1641			000013			AC=13
  1642						SAVEAC	(1,1)^
  1643	031565	201 15 0 00 031565 		MOVEI	AC+2,.
  1644	031566	202 15 0 00 030051 		MOVEM	AC+2,TESTPC	;SETUP SUBTEST PC
  1645	031567	201 15 0 00 000015 		MOVEI	AC+2,<AC+2>&17	;INFORM ERROR ROUTINE WHICH
  1646	031570	202 15 0 00 034327 		MOVEM	AC+2,ERRLOP#	;AC IS USED FOR ITERATION^
  1647			004100		SN=4100
  1648			601400			XX=601400
  1649			600400			ZZ=600400
  1650
  1651							;TEST FMP
  1652					P4100:	REPEAT	^D3,<
  1653					SN=SN+1
  1654						XX=XX-1000
  1655						ZZ=ZZ-1000
  1656						MOVSI	AC-2,XX		;SETUP FOR COMPARISON
  1657						MOVSI	AC,200400	;SETUP AC
  1658						MOVSI	AC-1,ZZ		;SETUP BR
  1659						FMP	AC,AC-1		;C(AC)XC(E)
  1660						CAME	AC,AC-2		;TEST PROD
  1661						ER3	AC,SN		;FMP FAILED
  1662						JUMPL	AC+2,.-6	;LOOP ON ERROR SWITCH
  1663					>
  1664
  1665			004101		SN=SN+1
  1666			600400			XX=XX-1000
  1667			577400			ZZ=ZZ-1000
  1668	031571	205 11 0 00 600400 		MOVSI	AC-2,XX		;SETUP FOR COMPARISON
  1669	031572	205 13 0 00 200400 		MOVSI	AC,200400	;SETUP AC
  1670	031573	205 12 0 00 577400 		MOVSI	AC-1,ZZ		;SETUP BR
  1671	031574	160 13 0 00 000012 		FMP	AC,AC-1		;C(AC)XC(E)
  1672	031575	312 13 0 00 000011 		CAME	AC,AC-2		;TEST PROD
  1673	031576	003 13 0 00 004101 		ER3	AC,SN		;FMP FAILED
  1674	031577	321 15 0 00 031571 		JUMPL	AC+2,.-6	;LOOP ON ERROR SWITCH
  1675
  1676
  1677			004102		SN=SN+1
  1678			577400			XX=XX-1000
  1679			576400			ZZ=ZZ-1000
  1680	031600	205 11 0 00 577400 		MOVSI	AC-2,XX		;SETUP FOR COMPARISON
  1681	031601	205 13 0 00 200400 		MOVSI	AC,200400	;SETUP AC
  1682	031602	205 12 0 00 576400 		MOVSI	AC-1,ZZ		;SETUP BR
  1683	031603	160 13 0 00 000012 		FMP	AC,AC-1		;C(AC)XC(E)
  1684	031604	312 13 0 00 000011 		CAME	AC,AC-2		;TEST PROD
  1685	031605	003 13 0 00 004102 		ER3	AC,SN		;FMP FAILED
  1686	031606	321 15 0 00 031600 		JUMPL	AC+2,.-6	;LOOP ON ERROR SWITCH
  1687
  1688
  1689			004103		SN=SN+1
DAKCB	PDP-10 KA10 ADVANCED INSTRUCTION DIAGNOSTIC #2, VERSION 0,2 	MACRO %52(537) 12:44 21-JAN-77 PAGE 16-4
DAKCBM	MAC	21-JAN-77 12:33		PART IIIB-GEN TEST-FMP,FDV AND DFN                                                 SEQ 0052

  1690			576400			XX=XX-1000
  1691			575400			ZZ=ZZ-1000
  1692	031607	205 11 0 00 576400 		MOVSI	AC-2,XX		;SETUP FOR COMPARISON
  1693	031610	205 13 0 00 200400 		MOVSI	AC,200400	;SETUP AC
  1694	031611	205 12 0 00 575400 		MOVSI	AC-1,ZZ		;SETUP BR
  1695	031612	160 13 0 00 000012 		FMP	AC,AC-1		;C(AC)XC(E)
  1696	031613	312 13 0 00 000011 		CAME	AC,AC-2		;TEST PROD
  1697	031614	003 13 0 00 004103 		ER3	AC,SN		;FMP FAILED
  1698	031615	321 15 0 00 031607 		JUMPL	AC+2,.-6	;LOOP ON ERROR SWITCH
  1699
DAKCB	PDP-10 KA10 ADVANCED INSTRUCTION DIAGNOSTIC #2, VERSION 0,2 	MACRO %52(537) 12:44 21-JAN-77 PAGE 17
DAKCBM	MAC	21-JAN-77 12:33		PART IIIB-GEN TEST-FMP,FDV AND DFN                                                 SEQ 0053

  1700					;TEST FMP
  1701					;AR=200777777777,6,5,4
  1702					;BR=200400000000
  1703					;PRODS=177777777777,6,5,4
  1704
  1705			000012			AC=12
  1706						SAVEAC	(1,1)^
  1707	031616	201 14 0 00 031616 		MOVEI	AC+2,.
  1708	031617	202 14 0 00 030051 		MOVEM	AC+2,TESTPC	;SETUP SUBTEST PC
  1709	031620	201 14 0 00 000014 		MOVEI	AC+2,<AC+2>&17	;INFORM ERROR ROUTINE WHICH
  1710	031621	202 14 0 00 034327 		MOVEM	AC+2,ERRLOP#	;AC IS USED FOR ITERATION^
  1711			004200		SN=4200
  1712			000000			ZZ=0
  1713							;TEST FMP
  1714					P4200:	REPEAT	^D4,<
  1715					SN=SN+1
  1716						ZZ=ZZ-1
  1717						HRLI	AC-2,177777	;SETUP AC-2
  1718						HRRI	AC-2,ZZ		;FOR COMPARISON
  1719						HRLI	AC,200777	;SETUP
  1720						HRRI	AC,ZZ		;AC
  1721						MOVSI	AC-1,200400	;SETUP BR
  1722						FMP	AC,AC-1		;C(AC)XC(E)
  1723						CAME	AC,AC-2		;TEST PROD
  1724						ER3	AC,SN		;FMP FAILED
  1725						JUMPL	AC+2,.-^D8	;LOOP ON ERROR SWITCH
  1726					>
  1727
  1728			004201		SN=SN+1
  1729		777777	777777			ZZ=ZZ-1
  1730	031622	505 10 0 00 177777 		HRLI	AC-2,177777	;SETUP AC-2
  1731	031623	541 10 0 00 777777 		HRRI	AC-2,ZZ		;FOR COMPARISON
  1732	031624	505 12 0 00 200777 		HRLI	AC,200777	;SETUP
  1733	031625	541 12 0 00 777777 		HRRI	AC,ZZ		;AC
  1734	031626	205 11 0 00 200400 		MOVSI	AC-1,200400	;SETUP BR
  1735	031627	160 12 0 00 000011 		FMP	AC,AC-1		;C(AC)XC(E)
  1736	031630	312 12 0 00 000010 		CAME	AC,AC-2		;TEST PROD
  1737	031631	003 12 0 00 004201 		ER3	AC,SN		;FMP FAILED
  1738	031632	321 14 0 00 031622 		JUMPL	AC+2,.-^D8	;LOOP ON ERROR SWITCH
  1739
  1740
  1741			004202		SN=SN+1
  1742		777777	777776			ZZ=ZZ-1
  1743	031633	505 10 0 00 177777 		HRLI	AC-2,177777	;SETUP AC-2
  1744	031634	541 10 0 00 777776 		HRRI	AC-2,ZZ		;FOR COMPARISON
  1745	031635	505 12 0 00 200777 		HRLI	AC,200777	;SETUP
  1746	031636	541 12 0 00 777776 		HRRI	AC,ZZ		;AC
  1747	031637	205 11 0 00 200400 		MOVSI	AC-1,200400	;SETUP BR
  1748	031640	160 12 0 00 000011 		FMP	AC,AC-1		;C(AC)XC(E)
  1749	031641	312 12 0 00 000010 		CAME	AC,AC-2		;TEST PROD
  1750	031642	003 12 0 00 004202 		ER3	AC,SN		;FMP FAILED
  1751	031643	321 14 0 00 031633 		JUMPL	AC+2,.-^D8	;LOOP ON ERROR SWITCH
  1752
  1753
  1754			004203		SN=SN+1
DAKCB	PDP-10 KA10 ADVANCED INSTRUCTION DIAGNOSTIC #2, VERSION 0,2 	MACRO %52(537) 12:44 21-JAN-77 PAGE 17-1
DAKCBM	MAC	21-JAN-77 12:33		PART IIIB-GEN TEST-FMP,FDV AND DFN                                                 SEQ 0054

  1755		777777	777775			ZZ=ZZ-1
  1756	031644	505 10 0 00 177777 		HRLI	AC-2,177777	;SETUP AC-2
  1757	031645	541 10 0 00 777775 		HRRI	AC-2,ZZ		;FOR COMPARISON
  1758	031646	505 12 0 00 200777 		HRLI	AC,200777	;SETUP
  1759	031647	541 12 0 00 777775 		HRRI	AC,ZZ		;AC
  1760	031650	205 11 0 00 200400 		MOVSI	AC-1,200400	;SETUP BR
  1761	031651	160 12 0 00 000011 		FMP	AC,AC-1		;C(AC)XC(E)
  1762	031652	312 12 0 00 000010 		CAME	AC,AC-2		;TEST PROD
  1763	031653	003 12 0 00 004203 		ER3	AC,SN		;FMP FAILED
  1764	031654	321 14 0 00 031644 		JUMPL	AC+2,.-^D8	;LOOP ON ERROR SWITCH
  1765
  1766
  1767			004204		SN=SN+1
  1768		777777	777774			ZZ=ZZ-1
  1769	031655	505 10 0 00 177777 		HRLI	AC-2,177777	;SETUP AC-2
  1770	031656	541 10 0 00 777774 		HRRI	AC-2,ZZ		;FOR COMPARISON
  1771	031657	505 12 0 00 200777 		HRLI	AC,200777	;SETUP
  1772	031660	541 12 0 00 777774 		HRRI	AC,ZZ		;AC
  1773	031661	205 11 0 00 200400 		MOVSI	AC-1,200400	;SETUP BR
  1774	031662	160 12 0 00 000011 		FMP	AC,AC-1		;C(AC)XC(E)
  1775	031663	312 12 0 00 000010 		CAME	AC,AC-2		;TEST PROD
  1776	031664	003 12 0 00 004204 		ER3	AC,SN		;FMP FAILED
  1777	031665	321 14 0 00 031655 		JUMPL	AC+2,.-^D8	;LOOP ON ERROR SWITCH
  1778
DAKCB	PDP-10 KA10 ADVANCED INSTRUCTION DIAGNOSTIC #2, VERSION 0,2 	MACRO %52(537) 12:44 21-JAN-77 PAGE 18
DAKCBM	MAC	21-JAN-77 12:33		PART IIIB-GEN TEST-FMP,FDV AND DFN                                                 SEQ 0055

  1779					;TEST FMP-EXP CAL
  1780					;NR ALL ZERO
  1781					;AR=0
  1782					;BR=200400000000
  1783					;PROD=0
  1784
  1785			000011			AC=11
  1786						SAVEAC	(1,1)^
  1787	031666	201 13 0 00 031666 		MOVEI	AC+2,.
  1788	031667	202 13 0 00 030051 		MOVEM	AC+2,TESTPC	;SETUP SUBTEST PC
  1789	031670	201 13 0 00 000013 		MOVEI	AC+2,<AC+2>&17	;INFORM ERROR ROUTINE WHICH
  1790	031671	202 13 0 00 034327 		MOVEM	AC+2,ERRLOP#	;AC IS USED FOR ITERATION^
  1791
  1792	031672	400 11 0 00 000000 	P4300:	SETZ	AC,		;SETUP AC
  1793	031673	205 10 0 00 200400 		MOVSI	AC-1,200400	;SETUP BR
  1794	031674	160 11 0 00 000010 		FMP	AC,AC-1		;C(AC)XC(E)
  1795	031675	332 00 0 00 000011 		SKIPE	AC		;TEST PROD
  1796	031676	003 11 0 00 004301 		ER3	AC,4301		;FMP FAILED
  1797	031677	321 13 0 00 031672 		JUMPL	AC+2,P4300	;LOOP ON ERROR SWITCH
  1798
  1799					;TEST FMP-EXP CAL
  1800					;NEGATIVE AR EXP
  1801					;AR=577400000000
  1802					;BR=200400000000
  1803					;PROD=600400000000
  1804
  1805			000010			AC=10
  1806						SAVEAC	(1,1)^
  1807	031700	201 12 0 00 031700 		MOVEI	AC+2,.
  1808	031701	202 12 0 00 030051 		MOVEM	AC+2,TESTPC	;SETUP SUBTEST PC
  1809	031702	201 12 0 00 000012 		MOVEI	AC+2,<AC+2>&17	;INFORM ERROR ROUTINE WHICH
  1810	031703	202 12 0 00 034327 		MOVEM	AC+2,ERRLOP#	;AC IS USED FOR ITERATION^
  1811
  1812	031704	205 06 0 00 600400 	P4400:	MOVSI	AC-2,600400	;SETUP FOR COMPARISON
  1813	031705	205 10 0 00 577400 		MOVSI	AC,577400	;SETUP AC
  1814	031706	205 07 0 00 200400 		MOVSI	AC-1,200400	;SETUP BR
  1815	031707	160 10 0 00 000007 		FMP	AC,AC-1		;C(AC) X C(E)
  1816	031710	312 10 0 00 000006 		CAME	AC,AC-2		;TEST PROD
  1817	031711	003 10 0 00 004401 		ER3	AC,4401		;FMP FAILED
  1818	031712	321 12 0 00 031704 		JUMPL	AC+2,P4400	;LOOP ON ERROR SWITCH
DAKCB	PDP-10 KA10 ADVANCED INSTRUCTION DIAGNOSTIC #2, VERSION 0,2 	MACRO %52(537) 12:44 21-JAN-77 PAGE 19
DAKCBM	MAC	21-JAN-77 12:33		PART IIIB-GEN TEST-FMP,FDV AND DFN                                                 SEQ 0056

  1819					;TEST FMP-EXP CAL
  1820					;TWO NEGATIVES-INCREASING AR EXPONENT
  1821					;AR=501.7,502.7,503.7,504.7,505.7
  1822					;BR=500400000000
  1823					;PRODS=372.4,371.4,370.4,367.4,366.4
  1824
  1825			000011			AC=11
  1826						SAVEAC	(1,1)^
  1827	031713	201 13 0 00 031713 		MOVEI	AC+2,.
  1828	031714	202 13 0 00 030051 		MOVEM	AC+2,TESTPC	;SETUP SUBTEST PC
  1829	031715	201 13 0 00 000013 		MOVEI	AC+2,<AC+2>&17	;INFORM ERROR ROUTINE WHICH
  1830	031716	202 13 0 00 034327 		MOVEM	AC+2,ERRLOP#	;AC IS USED FOR ITERATION^
  1831			004500		SN=4500
  1832			373400			XX=373400
  1833			500700			ZZ=500700
  1834
  1835							;TEST FMP
  1836					P4500:	REPEAT	^D5,<
  1837					SN=SN+1
  1838						XX=XX-1000
  1839						ZZ=ZZ+1000
  1840						MOVSI	AC-2,XX		;SETUP FOR COMPARISON
  1841						MOVSI	AC,ZZ		;SETUP AC
  1842						MOVSI	AC-1,500400	;SETUP BR
  1843						FMP	AC,AC-1		;C(AC)+C(E)
  1844						CAME	AC,AC-2		;TEST PROD
  1845						ER3	AC,SN		;FMP FAILED
  1846						JUMPL	AC+2,.-6	;LOOP ON ERROR SWITCH
  1847					>
  1848
  1849			004501		SN=SN+1
  1850			372400			XX=XX-1000
  1851			501700			ZZ=ZZ+1000
  1852	031717	205 07 0 00 372400 		MOVSI	AC-2,XX		;SETUP FOR COMPARISON
  1853	031720	205 11 0 00 501700 		MOVSI	AC,ZZ		;SETUP AC
  1854	031721	205 10 0 00 500400 		MOVSI	AC-1,500400	;SETUP BR
  1855	031722	160 11 0 00 000010 		FMP	AC,AC-1		;C(AC)+C(E)
  1856	031723	312 11 0 00 000007 		CAME	AC,AC-2		;TEST PROD
  1857	031724	003 11 0 00 004501 		ER3	AC,SN		;FMP FAILED
  1858	031725	321 13 0 00 031717 		JUMPL	AC+2,.-6	;LOOP ON ERROR SWITCH
  1859
  1860
  1861			004502		SN=SN+1
  1862			371400			XX=XX-1000
  1863			502700			ZZ=ZZ+1000
  1864	031726	205 07 0 00 371400 		MOVSI	AC-2,XX		;SETUP FOR COMPARISON
  1865	031727	205 11 0 00 502700 		MOVSI	AC,ZZ		;SETUP AC
  1866	031730	205 10 0 00 500400 		MOVSI	AC-1,500400	;SETUP BR
  1867	031731	160 11 0 00 000010 		FMP	AC,AC-1		;C(AC)+C(E)
  1868	031732	312 11 0 00 000007 		CAME	AC,AC-2		;TEST PROD
  1869	031733	003 11 0 00 004502 		ER3	AC,SN		;FMP FAILED
  1870	031734	321 13 0 00 031726 		JUMPL	AC+2,.-6	;LOOP ON ERROR SWITCH
  1871
  1872
  1873			004503		SN=SN+1
DAKCB	PDP-10 KA10 ADVANCED INSTRUCTION DIAGNOSTIC #2, VERSION 0,2 	MACRO %52(537) 12:44 21-JAN-77 PAGE 19-1
DAKCBM	MAC	21-JAN-77 12:33		PART IIIB-GEN TEST-FMP,FDV AND DFN                                                 SEQ 0057

  1874			370400			XX=XX-1000
  1875			503700			ZZ=ZZ+1000
  1876	031735	205 07 0 00 370400 		MOVSI	AC-2,XX		;SETUP FOR COMPARISON
  1877	031736	205 11 0 00 503700 		MOVSI	AC,ZZ		;SETUP AC
  1878	031737	205 10 0 00 500400 		MOVSI	AC-1,500400	;SETUP BR
  1879	031740	160 11 0 00 000010 		FMP	AC,AC-1		;C(AC)+C(E)
  1880	031741	312 11 0 00 000007 		CAME	AC,AC-2		;TEST PROD
  1881	031742	003 11 0 00 004503 		ER3	AC,SN		;FMP FAILED
  1882	031743	321 13 0 00 031735 		JUMPL	AC+2,.-6	;LOOP ON ERROR SWITCH
  1883
  1884
  1885			004504		SN=SN+1
  1886			367400			XX=XX-1000
  1887			504700			ZZ=ZZ+1000
  1888	031744	205 07 0 00 367400 		MOVSI	AC-2,XX		;SETUP FOR COMPARISON
  1889	031745	205 11 0 00 504700 		MOVSI	AC,ZZ		;SETUP AC
  1890	031746	205 10 0 00 500400 		MOVSI	AC-1,500400	;SETUP BR
  1891	031747	160 11 0 00 000010 		FMP	AC,AC-1		;C(AC)+C(E)
  1892	031750	312 11 0 00 000007 		CAME	AC,AC-2		;TEST PROD
  1893	031751	003 11 0 00 004504 		ER3	AC,SN		;FMP FAILED
  1894	031752	321 13 0 00 031744 		JUMPL	AC+2,.-6	;LOOP ON ERROR SWITCH
  1895
  1896
  1897			004505		SN=SN+1
  1898			366400			XX=XX-1000
  1899			505700			ZZ=ZZ+1000
  1900	031753	205 07 0 00 366400 		MOVSI	AC-2,XX		;SETUP FOR COMPARISON
  1901	031754	205 11 0 00 505700 		MOVSI	AC,ZZ		;SETUP AC
  1902	031755	205 10 0 00 500400 		MOVSI	AC-1,500400	;SETUP BR
  1903	031756	160 11 0 00 000010 		FMP	AC,AC-1		;C(AC)+C(E)
  1904	031757	312 11 0 00 000007 		CAME	AC,AC-2		;TEST PROD
  1905	031760	003 11 0 00 004505 		ER3	AC,SN		;FMP FAILED
  1906	031761	321 13 0 00 031753 		JUMPL	AC+2,.-6	;LOOP ON ERROR SWITCH
  1907
DAKCB	PDP-10 KA10 ADVANCED INSTRUCTION DIAGNOSTIC #2, VERSION 0,2 	MACRO %52(537) 12:44 21-JAN-77 PAGE 20
DAKCBM	MAC	21-JAN-77 12:33		PART IIIB-GEN TEST-FMP,FDV AND DFN                                                 SEQ 0058

  1908					;TEST FMP-EXP CAL
  1909					;TWO POSITIVES
  1910					;AR MANTISSA DECREASING
  1911					;NR NORM TEST
  1912					;AR=200.2,200.1,200.04,200.02,200.01,200.004,200.002
  1913					;BR=200400000000
  1914					;PRODS=176.4,175.4,174.4,173.4,172.4,171.4,170.4
  1915
  1916			000007			AC=7
  1917						SAVEAC	(1,1)^
  1918	031762	201 11 0 00 031762 		MOVEI	AC+2,.
  1919	031763	202 11 0 00 030051 		MOVEM	AC+2,TESTPC	;SETUP SUBTEST PC
  1920	031764	201 11 0 00 000011 		MOVEI	AC+2,<AC+2>&17	;INFORM ERROR ROUTINE WHICH
  1921	031765	202 11 0 00 034327 		MOVEM	AC+2,ERRLOP#	;AC IS USED FOR ITERATION^
  1922			004600		SN=4600
  1923			177400			XX=177400
  1924			000400			ZZ=400
  1925
  1926							;TEST FMP
  1927					P4600:	REPEAT	^D7,<
  1928					SN=SN+1
  1929						XX=XX-1000
  1930						ZZ=ZZ/2
  1931						MOVSI	AC-2,XX		;SETUP FOR COMPARISON
  1932						MOVSI	AC,200000+ZZ	;SETUP AC
  1933						MOVSI	AC-1,200400	;SETUP BR
  1934						FMP	AC,AC-1		;C(AC)XC(E)
  1935						CAME	AC,AC-2		;TEST PROD
  1936						ER3	AC,SN		;FMP FAILED
  1937						JUMPL	AC+2,.-6	;LOOP ON ERROR SWITCH
  1938					>
  1939
  1940			004601		SN=SN+1
  1941			176400			XX=XX-1000
  1942			000200			ZZ=ZZ/2
  1943	031766	205 05 0 00 176400 		MOVSI	AC-2,XX		;SETUP FOR COMPARISON
  1944	031767	205 07 0 00 200200 		MOVSI	AC,200000+ZZ	;SETUP AC
  1945	031770	205 06 0 00 200400 		MOVSI	AC-1,200400	;SETUP BR
  1946	031771	160 07 0 00 000006 		FMP	AC,AC-1		;C(AC)XC(E)
  1947	031772	312 07 0 00 000005 		CAME	AC,AC-2		;TEST PROD
  1948	031773	003 07 0 00 004601 		ER3	AC,SN		;FMP FAILED
  1949	031774	321 11 0 00 031766 		JUMPL	AC+2,.-6	;LOOP ON ERROR SWITCH
  1950
  1951
  1952			004602		SN=SN+1
  1953			175400			XX=XX-1000
  1954			000100			ZZ=ZZ/2
  1955	031775	205 05 0 00 175400 		MOVSI	AC-2,XX		;SETUP FOR COMPARISON
  1956	031776	205 07 0 00 200100 		MOVSI	AC,200000+ZZ	;SETUP AC
  1957	031777	205 06 0 00 200400 		MOVSI	AC-1,200400	;SETUP BR
  1958	032000	160 07 0 00 000006 		FMP	AC,AC-1		;C(AC)XC(E)
  1959	032001	312 07 0 00 000005 		CAME	AC,AC-2		;TEST PROD
  1960	032002	003 07 0 00 004602 		ER3	AC,SN		;FMP FAILED
  1961	032003	321 11 0 00 031775 		JUMPL	AC+2,.-6	;LOOP ON ERROR SWITCH
  1962
DAKCB	PDP-10 KA10 ADVANCED INSTRUCTION DIAGNOSTIC #2, VERSION 0,2 	MACRO %52(537) 12:44 21-JAN-77 PAGE 20-1
DAKCBM	MAC	21-JAN-77 12:33		PART IIIB-GEN TEST-FMP,FDV AND DFN                                                 SEQ 0059

  1963
  1964			004603		SN=SN+1
  1965			174400			XX=XX-1000
  1966			000040			ZZ=ZZ/2
  1967	032004	205 05 0 00 174400 		MOVSI	AC-2,XX		;SETUP FOR COMPARISON
  1968	032005	205 07 0 00 200040 		MOVSI	AC,200000+ZZ	;SETUP AC
  1969	032006	205 06 0 00 200400 		MOVSI	AC-1,200400	;SETUP BR
  1970	032007	160 07 0 00 000006 		FMP	AC,AC-1		;C(AC)XC(E)
  1971	032010	312 07 0 00 000005 		CAME	AC,AC-2		;TEST PROD
  1972	032011	003 07 0 00 004603 		ER3	AC,SN		;FMP FAILED
  1973	032012	321 11 0 00 032004 		JUMPL	AC+2,.-6	;LOOP ON ERROR SWITCH
  1974
  1975
  1976			004604		SN=SN+1
  1977			173400			XX=XX-1000
  1978			000020			ZZ=ZZ/2
  1979	032013	205 05 0 00 173400 		MOVSI	AC-2,XX		;SETUP FOR COMPARISON
  1980	032014	205 07 0 00 200020 		MOVSI	AC,200000+ZZ	;SETUP AC
  1981	032015	205 06 0 00 200400 		MOVSI	AC-1,200400	;SETUP BR
  1982	032016	160 07 0 00 000006 		FMP	AC,AC-1		;C(AC)XC(E)
  1983	032017	312 07 0 00 000005 		CAME	AC,AC-2		;TEST PROD
  1984	032020	003 07 0 00 004604 		ER3	AC,SN		;FMP FAILED
  1985	032021	321 11 0 00 032013 		JUMPL	AC+2,.-6	;LOOP ON ERROR SWITCH
  1986
  1987
  1988			004605		SN=SN+1
  1989			172400			XX=XX-1000
  1990			000010			ZZ=ZZ/2
  1991	032022	205 05 0 00 172400 		MOVSI	AC-2,XX		;SETUP FOR COMPARISON
  1992	032023	205 07 0 00 200010 		MOVSI	AC,200000+ZZ	;SETUP AC
  1993	032024	205 06 0 00 200400 		MOVSI	AC-1,200400	;SETUP BR
  1994	032025	160 07 0 00 000006 		FMP	AC,AC-1		;C(AC)XC(E)
  1995	032026	312 07 0 00 000005 		CAME	AC,AC-2		;TEST PROD
  1996	032027	003 07 0 00 004605 		ER3	AC,SN		;FMP FAILED
  1997	032030	321 11 0 00 032022 		JUMPL	AC+2,.-6	;LOOP ON ERROR SWITCH
  1998
  1999
  2000			004606		SN=SN+1
  2001			171400			XX=XX-1000
  2002			000004			ZZ=ZZ/2
  2003	032031	205 05 0 00 171400 		MOVSI	AC-2,XX		;SETUP FOR COMPARISON
  2004	032032	205 07 0 00 200004 		MOVSI	AC,200000+ZZ	;SETUP AC
  2005	032033	205 06 0 00 200400 		MOVSI	AC-1,200400	;SETUP BR
  2006	032034	160 07 0 00 000006 		FMP	AC,AC-1		;C(AC)XC(E)
  2007	032035	312 07 0 00 000005 		CAME	AC,AC-2		;TEST PROD
  2008	032036	003 07 0 00 004606 		ER3	AC,SN		;FMP FAILED
  2009	032037	321 11 0 00 032031 		JUMPL	AC+2,.-6	;LOOP ON ERROR SWITCH
  2010
  2011
  2012			004607		SN=SN+1
  2013			170400			XX=XX-1000
  2014			000002			ZZ=ZZ/2
  2015	032040	205 05 0 00 170400 		MOVSI	AC-2,XX		;SETUP FOR COMPARISON
  2016	032041	205 07 0 00 200002 		MOVSI	AC,200000+ZZ	;SETUP AC
  2017	032042	205 06 0 00 200400 		MOVSI	AC-1,200400	;SETUP BR
DAKCB	PDP-10 KA10 ADVANCED INSTRUCTION DIAGNOSTIC #2, VERSION 0,2 	MACRO %52(537) 12:44 21-JAN-77 PAGE 20-2
DAKCBM	MAC	21-JAN-77 12:33		PART IIIB-GEN TEST-FMP,FDV AND DFN                                                 SEQ 0060

  2018	032043	160 07 0 00 000006 		FMP	AC,AC-1		;C(AC)XC(E)
  2019	032044	312 07 0 00 000005 		CAME	AC,AC-2		;TEST PROD
  2020	032045	003 07 0 00 004607 		ER3	AC,SN		;FMP FAILED
  2021	032046	321 11 0 00 032040 		JUMPL	AC+2,.-6	;LOOP ON ERROR SWITCH
  2022
DAKCB	PDP-10 KA10 ADVANCED INSTRUCTION DIAGNOSTIC #2, VERSION 0,2 	MACRO %52(537) 12:44 21-JAN-77 PAGE 21
DAKCBM	MAC	21-JAN-77 12:33		PART IIIB-GEN TEST-FMP,FDV AND DFN                                                 SEQ 0061

  2023					;TEST FMP-EXP CAL
  2024					;AR=500.7,500.77
  2025					;BR=200400000000
  2026					;PRODS=503.4,506.4
  2027
  2028			000006			AC=6
  2029						SAVEAC	(1,1)^
  2030	032047	201 10 0 00 032047 		MOVEI	AC+2,.
  2031	032050	202 10 0 00 030051 		MOVEM	AC+2,TESTPC	;SETUP SUBTEST PC
  2032	032051	201 10 0 00 000010 		MOVEI	AC+2,<AC+2>&17	;INFORM ERROR ROUTINE WHICH
  2033	032052	202 10 0 00 034327 		MOVEM	AC+2,ERRLOP#	;AC IS USED FOR ITERATION^
  2034			004700		SN=4700
  2035			500400			XX=500400
  2036			500610			ZZ=500610
  2037
  2038							;TEST FMP
  2039					P4700:	REPEAT	^D2,<
  2040					SN=SN+1
  2041						XX=XX+3000
  2042						ZZ=ZZ+70
  2043						MOVSI	AC-2,XX		;SETUP FOR COMPARISON
  2044						MOVSI	AC,ZZ		;SETUP AC
  2045						MOVSI	AC-1,200400	;SETUP BR
  2046						FMP	AC,AC-1		;C(AC)XC(E)
  2047						CAME	AC,AC-2		;TEST PROD
  2048						ER3	AC,SN		;FMP FAILED
  2049						CAME	AC-1,[200400,,0];EXAMINE C(E)
  2050						ER5	AC-1,SN		;C(E) WAS CLOBBERED
  2051						JUMPL	AC+2,.-^D8	;LOOP ON ERROR SWITCH
  2052					>
  2053
  2054			004701		SN=SN+1
  2055			503400			XX=XX+3000
  2056			500700			ZZ=ZZ+70
  2057	032053	205 04 0 00 503400 		MOVSI	AC-2,XX		;SETUP FOR COMPARISON
  2058	032054	205 06 0 00 500700 		MOVSI	AC,ZZ		;SETUP AC
  2059	032055	205 05 0 00 200400 		MOVSI	AC-1,200400	;SETUP BR
  2060	032056	160 06 0 00 000005 		FMP	AC,AC-1		;C(AC)XC(E)
  2061	032057	312 06 0 00 000004 		CAME	AC,AC-2		;TEST PROD
  2062	032060	003 06 0 00 004701 		ER3	AC,SN		;FMP FAILED
  2063	032061	312 05 0 00 034140 		CAME	AC-1,[200400,,0];EXAMINE C(E)
  2064	032062	005 05 0 00 004701 		ER5	AC-1,SN		;C(E) WAS CLOBBERED
  2065	032063	321 10 0 00 032053 		JUMPL	AC+2,.-^D8	;LOOP ON ERROR SWITCH
  2066
  2067
  2068			004702		SN=SN+1
  2069			506400			XX=XX+3000
  2070			500770			ZZ=ZZ+70
  2071	032064	205 04 0 00 506400 		MOVSI	AC-2,XX		;SETUP FOR COMPARISON
  2072	032065	205 06 0 00 500770 		MOVSI	AC,ZZ		;SETUP AC
  2073	032066	205 05 0 00 200400 		MOVSI	AC-1,200400	;SETUP BR
  2074	032067	160 06 0 00 000005 		FMP	AC,AC-1		;C(AC)XC(E)
  2075	032070	312 06 0 00 000004 		CAME	AC,AC-2		;TEST PROD
  2076	032071	003 06 0 00 004702 		ER3	AC,SN		;FMP FAILED
  2077	032072	312 05 0 00 034140 		CAME	AC-1,[200400,,0];EXAMINE C(E)
DAKCB	PDP-10 KA10 ADVANCED INSTRUCTION DIAGNOSTIC #2, VERSION 0,2 	MACRO %52(537) 12:44 21-JAN-77 PAGE 21-1
DAKCBM	MAC	21-JAN-77 12:33		PART IIIB-GEN TEST-FMP,FDV AND DFN                                                 SEQ 0062

  2078	032073	005 05 0 00 004702 		ER5	AC-1,SN		;C(E) WAS CLOBBERED
  2079	032074	321 10 0 00 032064 		JUMPL	AC+2,.-^D8	;LOOP ON ERROR SWITCH
  2080
  2081					;TEST ECO49
  2082					;TEST UNDERFLOW
  2083					;AR=000400000000
  2084					;BR=000400000000
  2085					;FLAGS=440100
  2086					;SMALLEST NORMALIZED NUMBER SQUARED SHOULD CAUSE UNDERFLOW
  2087
  2088			000006			AC=6
  2089						SAVEAC	(1,1)^
  2090	032075	201 10 0 00 032075 		MOVEI	AC+2,.
  2091	032076	202 10 0 00 030051 		MOVEM	AC+2,TESTPC	;SETUP SUBTEST PC
  2092	032077	201 10 0 00 000010 		MOVEI	AC+2,<AC+2>&17	;INFORM ERROR ROUTINE WHICH
  2093	032100	202 10 0 00 034327 		MOVEM	AC+2,ERRLOP#	;AC IS USED FOR ITERATION^
  2094
  2095	032101	254 02 1 00 032102 	P5000:	JRST	2,@.+1		;CLEAR PC FLAGS
  2096	032102	000000	032103			XWD	0,.+1
  2097	032103	205 06 0 00 000400 		MOVSI	AC,000400	;GET SMALLEST NORMALIZED NUMBER
  2098	032104	160 06 0 00 000006 		FMP	AC,AC		;SQUARE IT AND CAUSE UNDERFLOW
  2099	032105	265 04 0 00 032106 		JSP	AC-2,.+1	;GET PC FLAGS
  2100	032106	607 04 0 00 000100 		TLNN	AC-2,FXU	;UNDERFLOW SHOULD BE A ONE
  2101	032107	013 04 0 00 005001 		ER13	AC-2,5001	;ERROR
  2102	032110	321 10 0 00 032101 		JUMPL	AC+2,P5000	;LOOP ON ERROR SWITCH
DAKCB	PDP-10 KA10 ADVANCED INSTRUCTION DIAGNOSTIC #2, VERSION 0,2 	MACRO %52(537) 12:44 21-JAN-77 PAGE 22
DAKCBM	MAC	21-JAN-77 12:33		PART IIIB-GEN TEST-FMP,FDV AND DFN                                                 SEQ 0063

  2103					;TEST FMPB
  2104					;AR=200775000000
  2105					;BR=200775000000
  2106					;PROD=200772011000
  2107
  2108			000005			AC=5
  2109						SAVEAC	(1,1)^
  2110	032111	201 07 0 00 032111 		MOVEI	AC+2,.
  2111	032112	202 07 0 00 030051 		MOVEM	AC+2,TESTPC	;SETUP SUBTEST PC
  2112	032113	201 07 0 00 000007 		MOVEI	AC+2,<AC+2>&17	;INFORM ERROR ROUTINE WHICH
  2113	032114	202 07 0 00 034327 		MOVEM	AC+2,ERRLOP#	;AC IS USED FOR ITERATION^
  2114
  2115	032115	505 03 0 00 200772 	P5100:	HRLI	AC-2,200772		;SETUP AC-2
  2116	032116	541 03 0 00 011000 		HRRI	AC-2,11000		;FOR COMPARISON
  2117	032117	205 05 0 00 200775 		MOVSI	AC,200775		;SETUP AC
  2118	032120	205 04 0 00 200775 		MOVSI	AC-1,200775		;SETUP BR
  2119	032121	163 05 0 00 000004 		FMPB	AC,AC-1			;C(AC)XC(E)
  2120	032122	312 05 0 00 000003 		CAME	AC,AC-2			;TEST PROD (AC)
  2121	032123	003 05 0 00 005101 		ER3	AC,5101			;C(AC) FAILED
  2122	032124	312 04 0 00 000003 		CAME	AC-1,AC-2		;TEST PROD (E)
  2123	032125	005 04 0 00 005101 		ER5	AC-1,5101		;C(E) FAILED
  2124	032126	321 07 0 00 032115 		JUMPL	AC+2,P5100		;LOOP ON ERROR SWITCH
  2125
  2126					;TEST FMPB
  2127					;AR=200774000000
  2128					;BR=200774000000
  2129					;PROD=200770020000
  2130
  2131			000014			AC=14
  2132						SAVEAC	(1,1)^
  2133	032127	201 16 0 00 032127 		MOVEI	AC+2,.
  2134	032130	202 16 0 00 030051 		MOVEM	AC+2,TESTPC	;SETUP SUBTEST PC
  2135	032131	201 16 0 00 000016 		MOVEI	AC+2,<AC+2>&17	;INFORM ERROR ROUTINE WHICH
  2136	032132	202 16 0 00 034327 		MOVEM	AC+2,ERRLOP#	;AC IS USED FOR ITERATION^
  2137
  2138	032133	505 12 0 00 200770 	P5200:	HRLI	AC-2,200770	;SETUP AC-2
  2139	032134	541 12 0 00 020000 		HRRI	AC-2,20000	;FOR COMPARISON
  2140	032135	205 14 0 00 200774 		MOVSI	AC,200774	;SETUP AC
  2141	032136	205 13 0 00 200774 		MOVSI	AC-1,200774	;SETUP BR
  2142	032137	163 14 0 00 000013 		FMPB	AC,AC-1		;C(AC)XC(E)
  2143	032140	312 14 0 00 000012 		CAME	AC,AC-2		;TEST PROD (AC)
  2144	032141	003 14 0 00 005201 		ER3	AC,5201		;C(AC) FAILED
  2145	032142	312 13 0 00 000012 		CAME	AC-1,AC-2	;TEST PROD (E)
  2146	032143	005 13 0 00 005201 		ER5	AC-1,5201	;C(E) FAILED
  2147	032144	321 16 0 00 032133 		JUMPL	AC+2,P5200	;LOOP ON ERROR SWITCH
DAKCB	PDP-10 KA10 ADVANCED INSTRUCTION DIAGNOSTIC #2, VERSION 0,2 	MACRO %52(537) 12:44 21-JAN-77 PAGE 23
DAKCBM	MAC	21-JAN-77 12:33		PART IIIB-GEN TEST-FMP,FDV AND DFN                                                 SEQ 0064

  2148					;TEST FMPM
  2149					;AR=200773000000
  2150					;BR=200773000000
  2151					;PROD=200766031000
  2152
  2153			000014			AC=14
  2154						SAVEAC	(1,1)^
  2155	032145	201 16 0 00 032145 		MOVEI	AC+2,.
  2156	032146	202 16 0 00 030051 		MOVEM	AC+2,TESTPC	;SETUP SUBTEST PC
  2157	032147	201 16 0 00 000016 		MOVEI	AC+2,<AC+2>&17	;INFORM ERROR ROUTINE WHICH
  2158	032150	202 16 0 00 034327 		MOVEM	AC+2,ERRLOP#	;AC IS USED FOR ITERATION^
  2159
  2160	032151	505 12 0 00 200766 	P5300:	HRLI	AC-2,200766	;SETUP AC-2
  2161	032152	541 12 0 00 031000 		HRRI	AC-2,31000	;FOR COMPARISON
  2162	032153	205 14 0 00 200773 		MOVSI	AC,200773	;SETUP AC
  2163	032154	205 13 0 00 200773 		MOVSI	AC-1,200773	;SETUP BR
  2164	032155	162 14 0 00 000013 		FMPM	AC,AC-1		;C(AC)XC(E)
  2165	032156	312 13 0 00 000012 		CAME	AC-1,AC-2	;TEST PROD
  2166	032157	005 13 0 00 005301 		ER5	AC-1,5301	;FMPM FAILED
  2167	032160	321 16 0 00 032151 		JUMPL	AC+2,P5300	;LOOP ON ERROR SWITCH
  2168
  2169					;TEST FMPM
  2170					;AR=177477000000
  2171					;BR=200700000000
  2172					;PROD=177427100000
  2173
  2174			000013			AC=13
  2175						SAVEAC	(1,1)^
  2176	032161	201 15 0 00 032161 		MOVEI	AC+2,.
  2177	032162	202 15 0 00 030051 		MOVEM	AC+2,TESTPC	;SETUP SUBTEST PC
  2178	032163	201 15 0 00 000015 		MOVEI	AC+2,<AC+2>&17	;INFORM ERROR ROUTINE WHICH
  2179	032164	202 15 0 00 034327 		MOVEM	AC+2,ERRLOP#	;AC IS USED FOR ITERATION^
  2180
  2181	032165	505 11 0 00 177427 	P5400:	HRLI	AC-2,177427	;SETUP AC-2
  2182	032166	541 11 0 00 100000 		HRRI	AC-2,100000	;FOR COMPARISON
  2183	032167	205 13 0 00 177477 		MOVSI	AC,177477	;SETUP AC
  2184	032170	205 12 0 00 200700 		MOVSI	AC-1,200700	;SETUP BR
  2185	032171	162 13 0 00 000012 		FMPM	AC,AC-1		;C(AC)XC(E)
  2186	032172	312 13 0 00 034141 		CAME	AC,[177477,,0]	;EXAMINE C(AC)
  2187	032173	003 13 0 00 005401 		ER3	AC,5401		;C(AC) WAS CLOBBERED
  2188	032174	312 12 0 00 000011 		CAME	AC-1,AC-2	;TEST PROD
  2189	032175	005 12 0 00 005401 		ER5	AC-1,5401	;FMPM FAILED
  2190	032176	321 15 0 00 032165 		JUMPL	AC+2,P5400	;LOOP ON ERROR SWITCH
DAKCB	PDP-10 KA10 ADVANCED INSTRUCTION DIAGNOSTIC #2, VERSION 0,2 	MACRO %52(537) 12:44 21-JAN-77 PAGE 24
DAKCBM	MAC	21-JAN-77 12:33		PART IIIB-GEN TEST-FMP,FDV AND DFN                                                 SEQ 0065

  2191					;TEST FMPL
  2192					;AR=200777777777,6,5,4,3
  2193					;BR=200777777777
  2194					;HIGH PROD=200777777776,5,4,3,2
  2195					;LOW PROD=145000000001,2,3,4,5
  2196
  2197			000012			AC=12
  2198						SAVEAC	(1,1)^
  2199	032177	201 14 0 00 032177 		MOVEI	AC+2,.
  2200	032200	202 14 0 00 030051 		MOVEM	AC+2,TESTPC	;SETUP SUBTEST PC
  2201	032201	201 14 0 00 000014 		MOVEI	AC+2,<AC+2>&17	;INFORM ERROR ROUTINE WHICH
  2202	032202	202 14 0 00 034327 		MOVEM	AC+2,ERRLOP#	;AC IS USED FOR ITERATION^
  2203
  2204			005500		SN=5500
  2205			000000			WW=0
  2206		777777	777777			XX=-1
  2207			000000			ZZ=0
  2208
  2209							;TEST FMPL
  2210					P5500:	REPEAT	^D5,<
  2211					SN=SN+1
  2212						WW=WW-1
  2213						XX=XX-1
  2214						ZZ=ZZ+1
  2215						HRLI	AC-2,200777	;SETUP AC-2
  2216						HRRI	AC-2,XX		;FOR COMPARISON
  2217						HRLI	AC,200777	;SETUP
  2218						HRRI	AC,WW		;AC
  2219						HRLI	AC-1,200777	;SETUP
  2220						HRRI	AC-1,-1		;BR
  2221						FMPL	AC,AC-1		;C(AC)XC(E)
  2222						CAME	AC,AC-2		;TEST HIGH PROD
  2223						ER3	AC,SN		;HIGH PROD ERROR
  2224						HRLI	AC-2,145000	;SETUP AC-2
  2225						HRRI	AC-2,ZZ		;FOR COMPARISON
  2226						CAME	AC+1,AC-2	;TEST LOW PROD
  2227						ER4	AC+1,SN		;LOW PROD ERROR
  2228						CAME	AC-1,[200777,,-1]	;EXAMINE C(E)
  2229						ER5	AC-1,SN		;C(E) WAS CLOBBERED
  2230						JUMPL	AC+2,.-^D15	;LOOP ON ERROR SWITCH
  2231					>
  2232
  2233			005501		SN=SN+1
  2234		777777	777777			WW=WW-1
  2235		777777	777776			XX=XX-1
  2236			000001			ZZ=ZZ+1
  2237	032203	505 10 0 00 200777 		HRLI	AC-2,200777	;SETUP AC-2
  2238	032204	541 10 0 00 777776 		HRRI	AC-2,XX		;FOR COMPARISON
  2239	032205	505 12 0 00 200777 		HRLI	AC,200777	;SETUP
  2240	032206	541 12 0 00 777777 		HRRI	AC,WW		;AC
  2241	032207	505 11 0 00 200777 		HRLI	AC-1,200777	;SETUP
  2242	032210	541 11 0 00 777777 		HRRI	AC-1,-1		;BR
  2243	032211	161 12 0 00 000011 		FMPL	AC,AC-1		;C(AC)XC(E)
  2244	032212	312 12 0 00 000010 		CAME	AC,AC-2		;TEST HIGH PROD
  2245	032213	003 12 0 00 005501 		ER3	AC,SN		;HIGH PROD ERROR
DAKCB	PDP-10 KA10 ADVANCED INSTRUCTION DIAGNOSTIC #2, VERSION 0,2 	MACRO %52(537) 12:44 21-JAN-77 PAGE 24-1
DAKCBM	MAC	21-JAN-77 12:33		PART IIIB-GEN TEST-FMP,FDV AND DFN                                                 SEQ 0066

  2246	032214	505 10 0 00 145000 		HRLI	AC-2,145000	;SETUP AC-2
  2247	032215	541 10 0 00 000001 		HRRI	AC-2,ZZ		;FOR COMPARISON
  2248	032216	312 13 0 00 000010 		CAME	AC+1,AC-2	;TEST LOW PROD
  2249	032217	004 13 0 00 005501 		ER4	AC+1,SN		;LOW PROD ERROR
  2250	032220	312 11 0 00 034142 		CAME	AC-1,[200777,,-1]	;EXAMINE C(E)
  2251	032221	005 11 0 00 005501 		ER5	AC-1,SN		;C(E) WAS CLOBBERED
  2252	032222	321 14 0 00 032203 		JUMPL	AC+2,.-^D15	;LOOP ON ERROR SWITCH
  2253
  2254
  2255			005502		SN=SN+1
  2256		777777	777776			WW=WW-1
  2257		777777	777775			XX=XX-1
  2258			000002			ZZ=ZZ+1
  2259	032223	505 10 0 00 200777 		HRLI	AC-2,200777	;SETUP AC-2
  2260	032224	541 10 0 00 777775 		HRRI	AC-2,XX		;FOR COMPARISON
  2261	032225	505 12 0 00 200777 		HRLI	AC,200777	;SETUP
  2262	032226	541 12 0 00 777776 		HRRI	AC,WW		;AC
  2263	032227	505 11 0 00 200777 		HRLI	AC-1,200777	;SETUP
  2264	032230	541 11 0 00 777777 		HRRI	AC-1,-1		;BR
  2265	032231	161 12 0 00 000011 		FMPL	AC,AC-1		;C(AC)XC(E)
  2266	032232	312 12 0 00 000010 		CAME	AC,AC-2		;TEST HIGH PROD
  2267	032233	003 12 0 00 005502 		ER3	AC,SN		;HIGH PROD ERROR
  2268	032234	505 10 0 00 145000 		HRLI	AC-2,145000	;SETUP AC-2
  2269	032235	541 10 0 00 000002 		HRRI	AC-2,ZZ		;FOR COMPARISON
  2270	032236	312 13 0 00 000010 		CAME	AC+1,AC-2	;TEST LOW PROD
  2271	032237	004 13 0 00 005502 		ER4	AC+1,SN		;LOW PROD ERROR
  2272	032240	312 11 0 00 034142 		CAME	AC-1,[200777,,-1]	;EXAMINE C(E)
  2273	032241	005 11 0 00 005502 		ER5	AC-1,SN		;C(E) WAS CLOBBERED
  2274	032242	321 14 0 00 032223 		JUMPL	AC+2,.-^D15	;LOOP ON ERROR SWITCH
  2275
  2276
  2277			005503		SN=SN+1
  2278		777777	777775			WW=WW-1
  2279		777777	777774			XX=XX-1
  2280			000003			ZZ=ZZ+1
  2281	032243	505 10 0 00 200777 		HRLI	AC-2,200777	;SETUP AC-2
  2282	032244	541 10 0 00 777774 		HRRI	AC-2,XX		;FOR COMPARISON
  2283	032245	505 12 0 00 200777 		HRLI	AC,200777	;SETUP
  2284	032246	541 12 0 00 777775 		HRRI	AC,WW		;AC
  2285	032247	505 11 0 00 200777 		HRLI	AC-1,200777	;SETUP
  2286	032250	541 11 0 00 777777 		HRRI	AC-1,-1		;BR
  2287	032251	161 12 0 00 000011 		FMPL	AC,AC-1		;C(AC)XC(E)
  2288	032252	312 12 0 00 000010 		CAME	AC,AC-2		;TEST HIGH PROD
  2289	032253	003 12 0 00 005503 		ER3	AC,SN		;HIGH PROD ERROR
  2290	032254	505 10 0 00 145000 		HRLI	AC-2,145000	;SETUP AC-2
  2291	032255	541 10 0 00 000003 		HRRI	AC-2,ZZ		;FOR COMPARISON
  2292	032256	312 13 0 00 000010 		CAME	AC+1,AC-2	;TEST LOW PROD
  2293	032257	004 13 0 00 005503 		ER4	AC+1,SN		;LOW PROD ERROR
  2294	032260	312 11 0 00 034142 		CAME	AC-1,[200777,,-1]	;EXAMINE C(E)
  2295	032261	005 11 0 00 005503 		ER5	AC-1,SN		;C(E) WAS CLOBBERED
  2296	032262	321 14 0 00 032243 		JUMPL	AC+2,.-^D15	;LOOP ON ERROR SWITCH
  2297
  2298
  2299			005504		SN=SN+1
  2300		777777	777774			WW=WW-1
DAKCB	PDP-10 KA10 ADVANCED INSTRUCTION DIAGNOSTIC #2, VERSION 0,2 	MACRO %52(537) 12:44 21-JAN-77 PAGE 24-2
DAKCBM	MAC	21-JAN-77 12:33		PART IIIB-GEN TEST-FMP,FDV AND DFN                                                 SEQ 0067

  2301		777777	777773			XX=XX-1
  2302			000004			ZZ=ZZ+1
  2303	032263	505 10 0 00 200777 		HRLI	AC-2,200777	;SETUP AC-2
  2304	032264	541 10 0 00 777773 		HRRI	AC-2,XX		;FOR COMPARISON
  2305	032265	505 12 0 00 200777 		HRLI	AC,200777	;SETUP
  2306	032266	541 12 0 00 777774 		HRRI	AC,WW		;AC
  2307	032267	505 11 0 00 200777 		HRLI	AC-1,200777	;SETUP
  2308	032270	541 11 0 00 777777 		HRRI	AC-1,-1		;BR
  2309	032271	161 12 0 00 000011 		FMPL	AC,AC-1		;C(AC)XC(E)
  2310	032272	312 12 0 00 000010 		CAME	AC,AC-2		;TEST HIGH PROD
  2311	032273	003 12 0 00 005504 		ER3	AC,SN		;HIGH PROD ERROR
  2312	032274	505 10 0 00 145000 		HRLI	AC-2,145000	;SETUP AC-2
  2313	032275	541 10 0 00 000004 		HRRI	AC-2,ZZ		;FOR COMPARISON
  2314	032276	312 13 0 00 000010 		CAME	AC+1,AC-2	;TEST LOW PROD
  2315	032277	004 13 0 00 005504 		ER4	AC+1,SN		;LOW PROD ERROR
  2316	032300	312 11 0 00 034142 		CAME	AC-1,[200777,,-1]	;EXAMINE C(E)
  2317	032301	005 11 0 00 005504 		ER5	AC-1,SN		;C(E) WAS CLOBBERED
  2318	032302	321 14 0 00 032263 		JUMPL	AC+2,.-^D15	;LOOP ON ERROR SWITCH
  2319
  2320
  2321			005505		SN=SN+1
  2322		777777	777773			WW=WW-1
  2323		777777	777772			XX=XX-1
  2324			000005			ZZ=ZZ+1
  2325	032303	505 10 0 00 200777 		HRLI	AC-2,200777	;SETUP AC-2
  2326	032304	541 10 0 00 777772 		HRRI	AC-2,XX		;FOR COMPARISON
  2327	032305	505 12 0 00 200777 		HRLI	AC,200777	;SETUP
  2328	032306	541 12 0 00 777773 		HRRI	AC,WW		;AC
  2329	032307	505 11 0 00 200777 		HRLI	AC-1,200777	;SETUP
  2330	032310	541 11 0 00 777777 		HRRI	AC-1,-1		;BR
  2331	032311	161 12 0 00 000011 		FMPL	AC,AC-1		;C(AC)XC(E)
  2332	032312	312 12 0 00 000010 		CAME	AC,AC-2		;TEST HIGH PROD
  2333	032313	003 12 0 00 005505 		ER3	AC,SN		;HIGH PROD ERROR
  2334	032314	505 10 0 00 145000 		HRLI	AC-2,145000	;SETUP AC-2
  2335	032315	541 10 0 00 000005 		HRRI	AC-2,ZZ		;FOR COMPARISON
  2336	032316	312 13 0 00 000010 		CAME	AC+1,AC-2	;TEST LOW PROD
  2337	032317	004 13 0 00 005505 		ER4	AC+1,SN		;LOW PROD ERROR
  2338	032320	312 11 0 00 034142 		CAME	AC-1,[200777,,-1]	;EXAMINE C(E)
  2339	032321	005 11 0 00 005505 		ER5	AC-1,SN		;C(E) WAS CLOBBERED
  2340	032322	321 14 0 00 032303 		JUMPL	AC+2,.-^D15	;LOOP ON ERROR SWITCH
  2341
DAKCB	PDP-10 KA10 ADVANCED INSTRUCTION DIAGNOSTIC #2, VERSION 0,2 	MACRO %52(537) 12:44 21-JAN-77 PAGE 25
DAKCBM	MAC	21-JAN-77 12:33		PART IIIB-GEN TEST-FMP,FDV AND DFN                                                 SEQ 0068

  2342					;TEST FMPL
  2343					;AR=500000777777,777770
  2344					;BR=200777000000
  2345					;HIGH PROD=500001776777,776770
  2346					;LOW PROD=244001000000,244010000000
  2347
  2348			000011			AC=11
  2349					SAVEAC	(1,1)^
  2350	032323	201 13 0 00 032323 		MOVEI	AC+2,.
  2351	032324	202 13 0 00 030051 		MOVEM	AC+2,TESTPC	;SETUP SUBTEST PC
  2352	032325	201 13 0 00 000013 		MOVEI	AC+2,<AC+2>&17	;INFORM ERROR ROUTINE WHICH
  2353	032326	202 13 0 00 034327 		MOVEM	AC+2,ERRLOP#	;AC IS USED FOR ITERATION^
  2354
  2355			005600		SN=5600
  2356			000006			WW=6
  2357			777006			XX=777006
  2358			243772			ZZ=243772
  2359
  2360							;TEST FMPL
  2361					P5600:	REPEAT	^D2,<
  2362					SN=SN+1
  2363						WW=WW-7
  2364						XX=XX-7
  2365						ZZ=ZZ+7
  2366						HRLI	AC-2,500001	;SETUP AC-2
  2367						HRRI	AC-2,XX		;FOR COMPARISON
  2368						HRLI	AC,500000	;SETUP
  2369						HRRI	AC,WW		;AC
  2370						MOVSI	AC-1,200777	;SETUP BR
  2371						FMPL	AC,AC-1		;C(AC)XC(E)
  2372						CAME	AC,AC-2		;TEST HIGH PROD
  2373						ER3	AC,SN		;HIGH PROD ERROR
  2374						MOVSI	AC-2,ZZ		;SETUP FOR COMPARISON
  2375						CAME	AC+1,AC-2	;TEST LOW PROD
  2376						ER4	AC+1,SN		;LOW PROD ERROR
  2377						JUMPL	AC+2,.-^D11	;LOOP ON ERROR SWITCH
  2378					>
  2379
  2380			005601		SN=SN+1
  2381		777777	777777			WW=WW-7
  2382			776777			XX=XX-7
  2383			244001			ZZ=ZZ+7
  2384	032327	505 07 0 00 500001 		HRLI	AC-2,500001	;SETUP AC-2
  2385	032330	541 07 0 00 776777 		HRRI	AC-2,XX		;FOR COMPARISON
  2386	032331	505 11 0 00 500000 		HRLI	AC,500000	;SETUP
  2387	032332	541 11 0 00 777777 		HRRI	AC,WW		;AC
  2388	032333	205 10 0 00 200777 		MOVSI	AC-1,200777	;SETUP BR
  2389	032334	161 11 0 00 000010 		FMPL	AC,AC-1		;C(AC)XC(E)
  2390	032335	312 11 0 00 000007 		CAME	AC,AC-2		;TEST HIGH PROD
  2391	032336	003 11 0 00 005601 		ER3	AC,SN		;HIGH PROD ERROR
  2392	032337	205 07 0 00 244001 		MOVSI	AC-2,ZZ		;SETUP FOR COMPARISON
  2393	032340	312 12 0 00 000007 		CAME	AC+1,AC-2	;TEST LOW PROD
  2394	032341	004 12 0 00 005601 		ER4	AC+1,SN		;LOW PROD ERROR
  2395	032342	321 13 0 00 032327 		JUMPL	AC+2,.-^D11	;LOOP ON ERROR SWITCH
  2396
DAKCB	PDP-10 KA10 ADVANCED INSTRUCTION DIAGNOSTIC #2, VERSION 0,2 	MACRO %52(537) 12:44 21-JAN-77 PAGE 25-1
DAKCBM	MAC	21-JAN-77 12:33		PART IIIB-GEN TEST-FMP,FDV AND DFN                                                 SEQ 0069

  2397
  2398			005602		SN=SN+1
  2399		777777	777770			WW=WW-7
  2400			776770			XX=XX-7
  2401			244010			ZZ=ZZ+7
  2402	032343	505 07 0 00 500001 		HRLI	AC-2,500001	;SETUP AC-2
  2403	032344	541 07 0 00 776770 		HRRI	AC-2,XX		;FOR COMPARISON
  2404	032345	505 11 0 00 500000 		HRLI	AC,500000	;SETUP
  2405	032346	541 11 0 00 777770 		HRRI	AC,WW		;AC
  2406	032347	205 10 0 00 200777 		MOVSI	AC-1,200777	;SETUP BR
  2407	032350	161 11 0 00 000010 		FMPL	AC,AC-1		;C(AC)XC(E)
  2408	032351	312 11 0 00 000007 		CAME	AC,AC-2		;TEST HIGH PROD
  2409	032352	003 11 0 00 005602 		ER3	AC,SN		;HIGH PROD ERROR
  2410	032353	205 07 0 00 244010 		MOVSI	AC-2,ZZ		;SETUP FOR COMPARISON
  2411	032354	312 12 0 00 000007 		CAME	AC+1,AC-2	;TEST LOW PROD
  2412	032355	004 12 0 00 005602 		ER4	AC+1,SN		;LOW PROD ERROR
  2413	032356	321 13 0 00 032343 		JUMPL	AC+2,.-^D11	;LOOP ON ERROR SWITCH
  2414
DAKCB	PDP-10 KA10 ADVANCED INSTRUCTION DIAGNOSTIC #2, VERSION 0,2 	MACRO %52(537) 12:44 21-JAN-77 PAGE 26
DAKCBM	MAC	21-JAN-77 12:33		PART IIIB-GEN TEST-FMP,FDV AND DFN                                                 SEQ 0070

  2415					;TEST FMPL
  2416					;AR=500000777777
  2417					;BR=500000777777
  2418					;HIGH PROD=376776001001
  2419					;LOW PROD=343776000001
  2420
  2421			000010			AC=10
  2422						SAVEAC	(1,1)^
  2423	032357	201 12 0 00 032357 		MOVEI	AC+2,.
  2424	032360	202 12 0 00 030051 		MOVEM	AC+2,TESTPC	;SETUP SUBTEST PC
  2425	032361	201 12 0 00 000012 		MOVEI	AC+2,<AC+2>&17	;INFORM ERROR ROUTINE WHICH
  2426	032362	202 12 0 00 034327 		MOVEM	AC+2,ERRLOP#	;AC IS USED FOR ITERATION^
  2427
  2428	032363	505 06 0 00 376776 	P5700:	HRLI	AC-2,376776	;SETUP AC-2
  2429	032364	541 06 0 00 001001 		HRRI	AC-2,1001	;FOR COMPARISON
  2430	032365	505 10 0 00 500000 		HRLI	AC,500000	;SETUP
  2431	032366	541 10 0 00 777777 		HRRI	AC,-1		;AC
  2432	032367	202 10 0 00 000007 		MOVEM	AC,AC-1		;SETUP BR
  2433	032370	161 10 0 00 000007 		FMPL	AC,AC-1		;C(AC)XC(E)
  2434	032371	312 10 0 00 000006 		CAME	AC,AC-2		;TEST HIGH PROD
  2435	032372	003 10 0 00 005701 		ER3	AC,5701		;HIGH PROD ERROR
  2436	032373	505 06 0 00 343776 		HRLI	AC-2,343776	;SETUP AC-2
  2437	032374	541 06 0 00 000001 		HRRI	AC-2,1		;FOR COMPARISON
  2438	032375	312 11 0 00 000006 		CAME	AC+1,AC-2	;TEST LOW PROD
  2439	032376	004 11 0 00 005701 		ER4	AC+1,5701	;LOW PROD ERROR
  2440	032377	321 12 0 00 032363 		JUMPL	AC+2,P5700	;LOOP ON ERROR SWITCH
  2441
  2442					;TEST FMPL
  2443					;AR=500000777776
  2444					;BR=500000777776
  2445					;HIGH PROD=376776001003
  2446					;LOW PROD=343774000004
  2447
  2448			000007			AC=7
  2449						SAVEAC	(1,1)^
  2450	032400	201 11 0 00 032400 		MOVEI	AC+2,.
  2451	032401	202 11 0 00 030051 		MOVEM	AC+2,TESTPC	;SETUP SUBTEST PC
  2452	032402	201 11 0 00 000011 		MOVEI	AC+2,<AC+2>&17	;INFORM ERROR ROUTINE WHICH
  2453	032403	202 11 0 00 034327 		MOVEM	AC+2,ERRLOP#	;AC IS USED FOR ITERATION^
  2454
  2455	032404	505 05 0 00 376776 	P6000:	HRLI	AC-2,376776	;SETUP AC-2
  2456	032405	541 05 0 00 001003 		HRRI	AC-2,1003	;FOR COMPARISON
  2457	032406	505 07 0 00 500000 		HRLI	AC,500000	;SETUP
  2458	032407	541 07 0 00 777776 		HRRI	AC,-2		;AC
  2459	032410	202 07 0 00 000006 		MOVEM	AC,AC-1		;SETUP BR
  2460	032411	161 07 0 00 000006 		FMPL	AC,AC-1		;C(AC)XC(E)
  2461	032412	312 07 0 00 000005 		CAME	AC,AC-2		;TEST HIGH PROD
  2462	032413	003 07 0 00 006001 		ER3	AC,6001		;HIGH PROD ERROR
  2463	032414	505 05 0 00 343774 		HRLI	AC-2,343774	;SETUP AC-2
  2464	032415	541 05 0 00 000004 		HRRI	AC-2,4		;FOR COMPARISON
  2465	032416	312 10 0 00 000005 		CAME	AC+1,AC-2	;TEST LOW PROD
  2466	032417	004 10 0 00 006001 		ER4	AC+1,6001	;LOW PROD ERROR
  2467	032420	321 11 0 00 032404 		JUMPL	AC+2,P6000	;LOOP ON ERROR SWITCH
DAKCB	PDP-10 KA10 ADVANCED INSTRUCTION DIAGNOSTIC #2, VERSION 0,2 	MACRO %52(537) 12:44 21-JAN-77 PAGE 27
DAKCBM	MAC	21-JAN-77 12:33		PART IIIB-GEN TEST-FMP,FDV AND DFN                                                 SEQ 0071

  2468					;TEST FMPR
  2469					;(NOT ROUND COND)
  2470					;AR=200777777777
  2471					;BR=200000000002
  2472					;PROD=146777777777
  2473
  2474			000006			AC=6
  2475						SAVEAC	(1,1)^
  2476	032421	201 10 0 00 032421 		MOVEI	AC+2,.
  2477	032422	202 10 0 00 030051 		MOVEM	AC+2,TESTPC	;SETUP SUBTEST PC
  2478	032423	201 10 0 00 000010 		MOVEI	AC+2,<AC+2>&17	;INFORM ERROR ROUTINE WHICH
  2479	032424	202 10 0 00 034327 		MOVEM	AC+2,ERRLOP#	;AC IS USED FOR ITERATION^
  2480
  2481	032425	505 04 0 00 146777 	P6100:	HRLI	AC-2,146777	;SETUP AC-2
  2482	032426	541 04 0 00 777777 		HRRI	AC-2,-1		;FOR COMPARISON
  2483	032427	505 06 0 00 200777 		HRLI	AC,200777	;SETUP
  2484	032430	541 06 0 00 777777 		HRRI	AC,-1		;AC
  2485	032431	205 05 0 00 200000 		MOVSI	AC-1,200000	;SETUP
  2486	032432	271 05 0 00 000002 		ADDI	AC-1,2		;BR
  2487	032433	164 06 0 00 000005 		FMPR	AC,AC-1		;C(AC)XC(E)
  2488	032434	312 06 0 00 000004 		CAME	AC,AC-2		;TEST PROD
  2489	032435	003 06 0 00 006101 		ER3	AC,6101		;FMPR FAILED
  2490	032436	321 10 0 00 032425 		JUMPL	AC+2,P6100	;LOOP ON ERROR SWITCH
  2491					PAGE
DAKCB	PDP-10 KA10 ADVANCED INSTRUCTION DIAGNOSTIC #2, VERSION 0,2 	MACRO %52(537) 12:44 21-JAN-77 PAGE 27-1
DAKCBM	MAC	21-JAN-77 12:33		PART IIIB-GEN TEST-FMP,FDV AND DFN                                                 SEQ 0072

  2492					;TEST FMPR
  2493					;AR=200700000000
  2494					;BR=200400000077,(76)
  2495					;PROD=177700000156,(155)
  2496
  2497			000014			AC=14
  2498						SAVEAC	(1,1)^
  2499	032437	201 16 0 00 032437 		MOVEI	AC+2,.
  2500	032440	202 16 0 00 030051 		MOVEM	AC+2,TESTPC	;SETUP SUBTEST PC
  2501	032441	201 16 0 00 000016 		MOVEI	AC+2,<AC+2>&17	;INFORM ERROR ROUTINE WHICH
  2502	032442	202 16 0 00 034327 		MOVEM	AC+2,ERRLOP#	;AC IS USED FOR ITERATION^
  2503			006200		SN=6200
  2504			000100			XX=100
  2505			000157			ZZ=157
  2506
  2507						;TEST FMPR
  2508					P6200:	REPEAT	^D2,<
  2509					SN=SN+1
  2510						XX=XX-1
  2511						ZZ=ZZ-1
  2512						HRLI	AC-2,177700	;SETUP AC-2
  2513						HRRI	AC-2,ZZ		;FOR COMPARISON
  2514						MOVSI	AC,200700	;SETUP AC
  2515						HRLI	AC-1,200400	;SETUP
  2516						HRRI	AC-1,XX		;BR
  2517						FMPR	AC,AC-1		;C(AC)XC(E)
  2518						CAME	AC,AC-2		;TEST PROD
  2519						ER3	AC,SN		;FMPR FAILED
  2520						CAME	AC-1,[200400,,XX]	;EXAMINE C(E)
  2521						ER5	AC-1,SN		;C(E) WAS CLOBBERED
  2522						JUMPL	AC-2,.-^D10	;LOOP ON ERROR SWITCH
  2523					>
  2524
  2525			006201		SN=SN+1
  2526			000077			XX=XX-1
  2527			000156			ZZ=ZZ-1
  2528	032443	505 12 0 00 177700 		HRLI	AC-2,177700	;SETUP AC-2
  2529	032444	541 12 0 00 000156 		HRRI	AC-2,ZZ		;FOR COMPARISON
  2530	032445	205 14 0 00 200700 		MOVSI	AC,200700	;SETUP AC
  2531	032446	505 13 0 00 200400 		HRLI	AC-1,200400	;SETUP
  2532	032447	541 13 0 00 000077 		HRRI	AC-1,XX		;BR
  2533	032450	164 14 0 00 000013 		FMPR	AC,AC-1		;C(AC)XC(E)
  2534	032451	312 14 0 00 000012 		CAME	AC,AC-2		;TEST PROD
  2535	032452	003 14 0 00 006201 		ER3	AC,SN		;FMPR FAILED
  2536	032453	312 13 0 00 034143 		CAME	AC-1,[200400,,XX]	;EXAMINE C(E)
  2537	032454	005 13 0 00 006201 		ER5	AC-1,SN		;C(E) WAS CLOBBERED
  2538	032455	321 12 0 00 032443 		JUMPL	AC-2,.-^D10	;LOOP ON ERROR SWITCH
  2539
  2540
  2541			006202		SN=SN+1
  2542			000076			XX=XX-1
  2543			000155			ZZ=ZZ-1
  2544	032456	505 12 0 00 177700 		HRLI	AC-2,177700	;SETUP AC-2
  2545	032457	541 12 0 00 000155 		HRRI	AC-2,ZZ		;FOR COMPARISON
  2546	032460	205 14 0 00 200700 		MOVSI	AC,200700	;SETUP AC
DAKCB	PDP-10 KA10 ADVANCED INSTRUCTION DIAGNOSTIC #2, VERSION 0,2 	MACRO %52(537) 12:44 21-JAN-77 PAGE 27-2
DAKCBM	MAC	21-JAN-77 12:33		PART IIIB-GEN TEST-FMP,FDV AND DFN                                                 SEQ 0073

  2547	032461	505 13 0 00 200400 		HRLI	AC-1,200400	;SETUP
  2548	032462	541 13 0 00 000076 		HRRI	AC-1,XX		;BR
  2549	032463	164 14 0 00 000013 		FMPR	AC,AC-1		;C(AC)XC(E)
  2550	032464	312 14 0 00 000012 		CAME	AC,AC-2		;TEST PROD
  2551	032465	003 14 0 00 006202 		ER3	AC,SN		;FMPR FAILED
  2552	032466	312 13 0 00 034144 		CAME	AC-1,[200400,,XX]	;EXAMINE C(E)
  2553	032467	005 13 0 00 006202 		ER5	AC-1,SN		;C(E) WAS CLOBBERED
  2554	032470	321 12 0 00 032456 		JUMPL	AC-2,.-^D10	;LOOP ON ERROR SWITCH
  2555
DAKCB	PDP-10 KA10 ADVANCED INSTRUCTION DIAGNOSTIC #2, VERSION 0,2 	MACRO %52(537) 12:44 21-JAN-77 PAGE 28
DAKCBM	MAC	21-JAN-77 12:33		PART IIIB-GEN TEST-FMP,FDV AND DFN                                                 SEQ 0074

  2556					;TEST FMPRM
  2557					;AR=200700000000
  2558					;BR=200400000075
  2559					;PROD=177700000153
  2560
  2561			000014			AC=14
  2562						SAVEAC	(1,1)^
  2563	032471	201 16 0 00 032471 		MOVEI	AC+2,.
  2564	032472	202 16 0 00 030051 		MOVEM	AC+2,TESTPC	;SETUP SUBTEST PC
  2565	032473	201 16 0 00 000016 		MOVEI	AC+2,<AC+2>&17	;INFORM ERROR ROUTINE WHICH
  2566	032474	202 16 0 00 034327 		MOVEM	AC+2,ERRLOP#	;AC IS USED FOR ITERATION^
  2567
  2568	032475	505 12 0 00 177700 	P6300:	HRLI	AC-2,177700	;SETUP AC-2
  2569	032476	541 12 0 00 000153 		HRRI	AC-2,153	;FOR COMPARISON
  2570	032477	205 14 0 00 200700 		MOVSI	AC,200700	;SETUP AC
  2571	032500	505 13 0 00 200400 		HRLI	AC-1,200400	;SETUP
  2572	032501	541 13 0 00 000075 		HRRI	AC-1,75		;BR
  2573	032502	166 14 0 00 000013 		FMPRM	AC,AC-1		;C(AC)XC(E)
  2574	032503	312 14 0 00 034145 		CAME	AC,[200700,,0]	;EXAMINE C(AC)
  2575	032504	003 14 0 00 006301 		ER3	AC,6301		;C(AC) WAS CLOBBERED
  2576	032505	312 13 0 00 000012 		CAME	AC-1,AC-2	;TEST PROD
  2577	032506	005 13 0 00 006301 		ER5	AC-1,6301	;FMPRM FAILED
  2578	032507	321 16 0 00 032475 		JUMPL	AC+2,P6300	;LOOP ON ERROR SWITCH
  2579
  2580					;TEST FMPRB
  2581					;AR=577400000000
  2582					;BR=600400000000
  2583					;PROD=176400000000
  2584
  2585			000013			AC=13
  2586						SAVEAC	(1,1)^
  2587	032510	201 15 0 00 032510 		MOVEI	AC+2,.
  2588	032511	202 15 0 00 030051 		MOVEM	AC+2,TESTPC	;SETUP SUBTEST PC
  2589	032512	201 15 0 00 000015 		MOVEI	AC+2,<AC+2>&17	;INFORM ERROR ROUTINE WHICH
  2590	032513	202 15 0 00 034327 		MOVEM	AC+2,ERRLOP#	;AC IS USED FOR ITERATION^
  2591
  2592	032514	205 11 0 00 176400 	P6400:	MOVSI	AC-2,176400	;SETUP FOR COMPARISON
  2593	032515	205 13 0 00 577400 		MOVSI	AC,577400	;SETUP AC
  2594	032516	205 12 0 00 600400 		MOVSI	AC-1,600400	;SETUP BR
  2595	032517	167 13 0 00 000012 		FMPRB	AC,AC-1		;C(AC)XC(E)
  2596	032520	312 13 0 00 000011 		CAME	AC,AC-2		;TEST PROD (AC)
  2597	032521	003 13 0 00 006401 		ER3	AC,6401		;C(AC) FAILED
  2598	032522	312 12 0 00 000011 		CAME	AC-1,AC-2	;TEST PROD (E)
  2599	032523	005 12 0 00 006401 		ER5	AC-1,6401	;FMPRB FAILED
  2600	032524	321 15 0 00 032514 		JUMPL	AC+2,P6400	;LOOP ON ERROR SWITCH
DAKCB	PDP-10 KA10 ADVANCED INSTRUCTION DIAGNOSTIC #2, VERSION 0,2 	MACRO %52(537) 12:44 21-JAN-77 PAGE 29
DAKCBM	MAC	21-JAN-77 12:33		PART IIIB-GEN TEST-FMP,FDV AND DFN                                                 SEQ 0075

  2601					;TEST FMPRI
  2602					;AR=600400000077,(76)
  2603					;E=177600
  2604					;PRODS=602200000136,(135),
  2605
  2606			000012			AC=12
  2607						SAVEAC	(1,1)^
  2608	032525	201 14 0 00 032525 		MOVEI	AC+2,.
  2609	032526	202 14 0 00 030051 		MOVEM	AC+2,TESTPC	;SETUP SUBTEST PC
  2610	032527	201 14 0 00 000014 		MOVEI	AC+2,<AC+2>&17	;INFORM ERROR ROUTINE WHICH
  2611	032530	202 14 0 00 034327 		MOVEM	AC+2,ERRLOP#	;AC IS USED FOR ITERATION^
  2612			006500		SN=6500
  2613			000137			XX=137
  2614			000100			ZZ=100
  2615
  2616							;TEST FMPRI
  2617					P6500:	REPEAT	^D2,<
  2618					SN=SN+1
  2619						XX=XX-1
  2620						ZZ=ZZ-1
  2621						HRLI	AC-2,602200	;SETUP AC-2
  2622						HRRI	AC-2,XX		;FOR COMPARISON
  2623						HRLI	AC,600400	;SETUP
  2624						HRRI	AC,ZZ		;AC
  2625						FMPRI	AC,177600	;C(AC)X E
  2626						CAME	AC,AC-2		;TEST PROD
  2627						ER3	AC,SN		;FMPRI FAILED
  2628						JUMPL	AC+2,.-7	;LOOP ON ERROR SWITCH
  2629					>
  2630
  2631			006501		SN=SN+1
  2632			000136			XX=XX-1
  2633			000077			ZZ=ZZ-1
  2634	032531	505 10 0 00 602200 		HRLI	AC-2,602200	;SETUP AC-2
  2635	032532	541 10 0 00 000136 		HRRI	AC-2,XX		;FOR COMPARISON
  2636	032533	505 12 0 00 600400 		HRLI	AC,600400	;SETUP
  2637	032534	541 12 0 00 000077 		HRRI	AC,ZZ		;AC
  2638	032535	165 12 0 00 177600 		FMPRI	AC,177600	;C(AC)X E
  2639	032536	312 12 0 00 000010 		CAME	AC,AC-2		;TEST PROD
  2640	032537	003 12 0 00 006501 		ER3	AC,SN		;FMPRI FAILED
  2641	032540	321 14 0 00 032531 		JUMPL	AC+2,.-7	;LOOP ON ERROR SWITCH
  2642
  2643
  2644			006502		SN=SN+1
  2645			000135			XX=XX-1
  2646			000076			ZZ=ZZ-1
  2647	032541	505 10 0 00 602200 		HRLI	AC-2,602200	;SETUP AC-2
  2648	032542	541 10 0 00 000135 		HRRI	AC-2,XX		;FOR COMPARISON
  2649	032543	505 12 0 00 600400 		HRLI	AC,600400	;SETUP
  2650	032544	541 12 0 00 000076 		HRRI	AC,ZZ		;AC
  2651	032545	165 12 0 00 177600 		FMPRI	AC,177600	;C(AC)X E
  2652	032546	312 12 0 00 000010 		CAME	AC,AC-2		;TEST PROD
  2653	032547	003 12 0 00 006502 		ER3	AC,SN		;FMPRI FAILED
  2654	032550	321 14 0 00 032541 		JUMPL	AC+2,.-7	;LOOP ON ERROR SWITCH
  2655
DAKCB	PDP-10 KA10 ADVANCED INSTRUCTION DIAGNOSTIC #2, VERSION 0,2 	MACRO %52(537) 12:44 21-JAN-77 PAGE 29-1
DAKCBM	MAC	21-JAN-77 12:33		PART IIIB-GEN TEST-FMP,FDV AND DFN                                                 SEQ 0076

  2656					PAGE
DAKCB	PDP-10 KA10 ADVANCED INSTRUCTION DIAGNOSTIC #2, VERSION 0,2 	MACRO %52(537) 12:44 21-JAN-77 PAGE 29-2
DAKCBM	MAC	21-JAN-77 12:33		PART IIIB-GEN TEST-FMP,FDV AND DFN                                                 SEQ 0077

  2657					;TEST FMPRI
  2658					;AR=600400000000
  2659					;E=576400,575400
  2660					;PROD=177400000000,200400000000
  2661
  2662			000011			AC=11
  2663						SAVEAC	(1,1)^
  2664	032551	201 13 0 00 032551 		MOVEI	AC+2,.
  2665	032552	202 13 0 00 030051 		MOVEM	AC+2,TESTPC	;SETUP SUBTEST PC
  2666	032553	201 13 0 00 000013 		MOVEI	AC+2,<AC+2>&17	;INFORM ERROR ROUTINE WHICH
  2667	032554	202 13 0 00 034327 		MOVEM	AC+2,ERRLOP#	;AC IS USED FOR ITERATION^
  2668
  2669			006600		SN=6600
  2670			176400			XX=176400
  2671			577400			ZZ=577400
  2672
  2673							;TEST FMPRI
  2674					P6600:	REPEAT	^D2,<
  2675					SN=SN+1
  2676						XX=XX+1000
  2677						ZZ=ZZ-1000
  2678						MOVSI	AC-2,XX		;SETUP FOR COMPARISON
  2679						MOVSI	AC,600400	;SETUP AC
  2680						FMPRI	AC,ZZ		;C(AC)X E
  2681						CAME	AC,AC-2		;TEST PROD
  2682						ER3	AC,6601		;FMPRI FAILED
  2683						JUMPL	AC+2,.-5	;LOOP ON ERROR SWITCH
  2684
  2685					>
  2686
  2687			006601		SN=SN+1
  2688			177400			XX=XX+1000
  2689			576400			ZZ=ZZ-1000
  2690	032555	205 07 0 00 177400 		MOVSI	AC-2,XX		;SETUP FOR COMPARISON
  2691	032556	205 11 0 00 600400 		MOVSI	AC,600400	;SETUP AC
  2692	032557	165 11 0 00 576400 		FMPRI	AC,ZZ		;C(AC)X E
  2693	032560	312 11 0 00 000007 		CAME	AC,AC-2		;TEST PROD
  2694	032561	003 11 0 00 006601 		ER3	AC,6601		;FMPRI FAILED
  2695	032562	321 13 0 00 032555 		JUMPL	AC+2,.-5	;LOOP ON ERROR SWITCH
  2696
  2697
  2698
  2699			006602		SN=SN+1
  2700			200400			XX=XX+1000
  2701			575400			ZZ=ZZ-1000
  2702	032563	205 07 0 00 200400 		MOVSI	AC-2,XX		;SETUP FOR COMPARISON
  2703	032564	205 11 0 00 600400 		MOVSI	AC,600400	;SETUP AC
  2704	032565	165 11 0 00 575400 		FMPRI	AC,ZZ		;C(AC)X E
  2705	032566	312 11 0 00 000007 		CAME	AC,AC-2		;TEST PROD
  2706	032567	003 11 0 00 006601 		ER3	AC,6601		;FMPRI FAILED
  2707	032570	321 13 0 00 032563 		JUMPL	AC+2,.-5	;LOOP ON ERROR SWITCH
  2708
  2709
DAKCB	PDP-10 KA10 ADVANCED INSTRUCTION DIAGNOSTIC #2, VERSION 0,2 	MACRO %52(537) 12:44 21-JAN-77 PAGE 30
DAKCBM	MAC	21-JAN-77 12:33		PART IIIB-GEN TEST-FMP,FDV AND DFN                                                 SEQ 0078

  2710					;TEST ECO49
  2711					;TEST CLEAR MQ LOGIC
  2712					;AR=400000000001
  2713					;E=1.0
  2714					;PROD=400000000001
  2715					;ERROR PROD=777400000000
  2716					;FLAGS=0
  2717
  2718			000011			AC=11
  2719						SAVEAC	(1,1)^
  2720	032571	201 13 0 00 032571 		MOVEI	AC+2,.
  2721	032572	202 13 0 00 030051 		MOVEM	AC+2,TESTPC	;SETUP SUBTEST PC
  2722	032573	201 13 0 00 000013 		MOVEI	AC+2,<AC+2>&17	;INFORM ERROR ROUTINE WHICH
  2723	032574	202 13 0 00 034327 		MOVEM	AC+2,ERRLOP#	;AC IS USED FOR ITERATION^
  2724
  2725	032575	254 02 1 00 032576 	P6700:	JRST	2,@.+1		;CLEAR PC FLAGS
  2726	032576	000000	032577			XWD	0,.+1
  2727	032577	200 11 0 00 034146 		MOVE	AC,[XWD 400000,000001]	;GET LARGEST NEGATIVE FP NUMBER
  2728	032600	165 11 0 00 201400 		FMPRI	AC,(1.0)	;MULTIPLY IT BY ONE
  2729	032601	316 11 0 00 034147 		CAMN	AC,[XWD 777400,0]	;CLEAR MQ LOGIC WORKING
  2730	032602	003 11 0 00 006701 		ER3	AC,6701		;NO
  2731	032603	312 11 0 00 034146 		CAME	AC,[XWD 400000,000001]	;CORRECT ANSWER
  2732	032604	003 11 0 00 006701 		ER3	AC,6701		;NO
  2733	032605	265 07 0 00 032606 		JSP	AC-2,.+1	;GET PC FLAGS
  2734	032606	603 07 0 00 640140 		TLNE	AC-2,640140	;ARE ALL FLAGS ZERO
  2735	032607	013 07 0 00 006701 		ER13	AC-2,6701	;NO, THEY SHOULD BE
  2736	032610	255 10 0 00 032612 		JOV	.+2		;EXAMINE ARCV FLAG
  2737	032611	254 00 0 00 032613 		JRST	.+2
  2738	032612	013 07 0 00 006701 		ER13	AC-2,6701	;AROV IS SET
  2739	032613	321 13 0 00 032575 		JUMPL	AC+2,P6700	;LOOP ON ERROR SWITCH
  2740					PAGE
DAKCB	PDP-10 KA10 ADVANCED INSTRUCTION DIAGNOSTIC #2, VERSION 0,2 	MACRO %52(537) 12:44 21-JAN-77 PAGE 30-1
DAKCBM	MAC	21-JAN-77 12:33		PART IIIB-GEN TEST-FMP,FDV AND DFN                                                 SEQ 0079

  2741					;TEST FDV
  2742					;AR=200.4,201.4,202.4
  2743					;BR=200.4,201.4,202.4
  2744					;QUOT=201400000000
  2745
  2746			000014			AC=14
  2747						SAVEAC	(1,1)^
  2748	032614	201 16 0 00 032614 		MOVEI	AC+2,.
  2749	032615	202 16 0 00 030051 		MOVEM	AC+2,TESTPC	;SETUP SUBTEST PC
  2750	032616	201 16 0 00 000016 		MOVEI	AC+2,<AC+2>&17	;INFORM ERROR ROUTINE WHICH
  2751	032617	202 16 0 00 034327 		MOVEM	AC+2,ERRLOP#	;AC IS USED FOR ITERATION^
  2752			007000		SN=7000
  2753			177400			ZZ=177400
  2754
  2755							;TEST FDV
  2756					P7000:	REPEAT ^D3,<
  2757					SN=SN+1
  2758						ZZ=ZZ+1000
  2759						MOVSI	AC-2,201400	;SETUP FOR COMPARISON
  2760						MOVSI	AC,ZZ		;SETUP AC
  2761						MOVSI	AC-1,ZZ		;SETUP BR
  2762						FDV	AC,AC-1		;C(AC)/C(E)
  2763						CAME	AC,AC-2		;TEST QUOT
  2764						ER3	AC,7001		;FDV FAILED
  2765						JUMPL	AC+2,.-6	;LOOP ON ERROR SWITCH
  2766					>
  2767
  2768			007001		SN=SN+1
  2769			200400			ZZ=ZZ+1000
  2770	032620	205 12 0 00 201400 		MOVSI	AC-2,201400	;SETUP FOR COMPARISON
  2771	032621	205 14 0 00 200400 		MOVSI	AC,ZZ		;SETUP AC
  2772	032622	205 13 0 00 200400 		MOVSI	AC-1,ZZ		;SETUP BR
  2773	032623	170 14 0 00 000013 		FDV	AC,AC-1		;C(AC)/C(E)
  2774	032624	312 14 0 00 000012 		CAME	AC,AC-2		;TEST QUOT
  2775	032625	003 14 0 00 007001 		ER3	AC,7001		;FDV FAILED
  2776	032626	321 16 0 00 032620 		JUMPL	AC+2,.-6	;LOOP ON ERROR SWITCH
  2777
  2778
  2779			007002		SN=SN+1
  2780			201400			ZZ=ZZ+1000
  2781	032627	205 12 0 00 201400 		MOVSI	AC-2,201400	;SETUP FOR COMPARISON
  2782	032630	205 14 0 00 201400 		MOVSI	AC,ZZ		;SETUP AC
  2783	032631	205 13 0 00 201400 		MOVSI	AC-1,ZZ		;SETUP BR
  2784	032632	170 14 0 00 000013 		FDV	AC,AC-1		;C(AC)/C(E)
  2785	032633	312 14 0 00 000012 		CAME	AC,AC-2		;TEST QUOT
  2786	032634	003 14 0 00 007001 		ER3	AC,7001		;FDV FAILED
  2787	032635	321 16 0 00 032627 		JUMPL	AC+2,.-6	;LOOP ON ERROR SWITCH
  2788
  2789
  2790			007003		SN=SN+1
  2791			202400			ZZ=ZZ+1000
  2792	032636	205 12 0 00 201400 		MOVSI	AC-2,201400	;SETUP FOR COMPARISON
  2793	032637	205 14 0 00 202400 		MOVSI	AC,ZZ		;SETUP AC
  2794	032640	205 13 0 00 202400 		MOVSI	AC-1,ZZ		;SETUP BR
  2795	032641	170 14 0 00 000013 		FDV	AC,AC-1		;C(AC)/C(E)
DAKCB	PDP-10 KA10 ADVANCED INSTRUCTION DIAGNOSTIC #2, VERSION 0,2 	MACRO %52(537) 12:44 21-JAN-77 PAGE 30-2
DAKCBM	MAC	21-JAN-77 12:33		PART IIIB-GEN TEST-FMP,FDV AND DFN                                                 SEQ 0080

  2796	032642	312 14 0 00 000012 		CAME	AC,AC-2		;TEST QUOT
  2797	032643	003 14 0 00 007001 		ER3	AC,7001		;FDV FAILED
  2798	032644	321 16 0 00 032636 		JUMPL	AC+2,.-6	;LOOP ON ERROR SWITCH
  2799
DAKCB	PDP-10 KA10 ADVANCED INSTRUCTION DIAGNOSTIC #2, VERSION 0,2 	MACRO %52(537) 12:44 21-JAN-77 PAGE 31
DAKCBM	MAC	21-JAN-77 12:33		PART IIIB-GEN TEST-FMP,FDV AND DFN                                                 SEQ 0081

  2800					;TEST FDV
  2801					;AR=201.4,202.4,203.4
  2802					;BR=200400000000
  2803					;QUOT=202.4,203.4,204.4
  2804
  2805			000014			AC=14
  2806						SAVEAC	(1,1)^
  2807	032645	201 16 0 00 032645 		MOVEI	AC+2,.
  2808	032646	202 16 0 00 030051 		MOVEM	AC+2,TESTPC	;SETUP SUBTEST PC
  2809	032647	201 16 0 00 000016 		MOVEI	AC+2,<AC+2>&17	;INFORM ERROR ROUTINE WHICH
  2810	032650	202 16 0 00 034327 		MOVEM	AC+2,ERRLOP#	;AC IS USED FOR ITERATION^
  2811			007100		SN=7100
  2812			201400			XX=201400
  2813			200400			ZZ=200400
  2814
  2815							;TEST FDV
  2816					P7100:	REPEAT ^D3,<
  2817					SN=SN+1
  2818						XX=XX+1000
  2819						ZZ=ZZ+1000
  2820						MOVSI	AC-2,XX		;SETUP FOR COMPARISON
  2821						MOVSI	AC,ZZ		;SETUP AC
  2822						MOVSI	AC-1,200400	;SETUP BR
  2823						FDV	AC,AC-1		;C(AC)/C(E)
  2824						CAME	AC,AC-2		;TEST QUOT
  2825						ER3	AC,7101		;FDV FAILED
  2826						JUMPL	AC+2,.-6	;LOOP ON ERROR SWITCH
  2827					>
  2828
  2829			007101		SN=SN+1
  2830			202400			XX=XX+1000
  2831			201400			ZZ=ZZ+1000
  2832	032651	205 12 0 00 202400 		MOVSI	AC-2,XX		;SETUP FOR COMPARISON
  2833	032652	205 14 0 00 201400 		MOVSI	AC,ZZ		;SETUP AC
  2834	032653	205 13 0 00 200400 		MOVSI	AC-1,200400	;SETUP BR
  2835	032654	170 14 0 00 000013 		FDV	AC,AC-1		;C(AC)/C(E)
  2836	032655	312 14 0 00 000012 		CAME	AC,AC-2		;TEST QUOT
  2837	032656	003 14 0 00 007101 		ER3	AC,7101		;FDV FAILED
  2838	032657	321 16 0 00 032651 		JUMPL	AC+2,.-6	;LOOP ON ERROR SWITCH
  2839
  2840
  2841			007102		SN=SN+1
  2842			203400			XX=XX+1000
  2843			202400			ZZ=ZZ+1000
  2844	032660	205 12 0 00 203400 		MOVSI	AC-2,XX		;SETUP FOR COMPARISON
  2845	032661	205 14 0 00 202400 		MOVSI	AC,ZZ		;SETUP AC
  2846	032662	205 13 0 00 200400 		MOVSI	AC-1,200400	;SETUP BR
  2847	032663	170 14 0 00 000013 		FDV	AC,AC-1		;C(AC)/C(E)
  2848	032664	312 14 0 00 000012 		CAME	AC,AC-2		;TEST QUOT
  2849	032665	003 14 0 00 007101 		ER3	AC,7101		;FDV FAILED
  2850	032666	321 16 0 00 032660 		JUMPL	AC+2,.-6	;LOOP ON ERROR SWITCH
  2851
  2852
  2853			007103		SN=SN+1
  2854			204400			XX=XX+1000
DAKCB	PDP-10 KA10 ADVANCED INSTRUCTION DIAGNOSTIC #2, VERSION 0,2 	MACRO %52(537) 12:44 21-JAN-77 PAGE 31-1
DAKCBM	MAC	21-JAN-77 12:33		PART IIIB-GEN TEST-FMP,FDV AND DFN                                                 SEQ 0082

  2855			203400			ZZ=ZZ+1000
  2856	032667	205 12 0 00 204400 		MOVSI	AC-2,XX		;SETUP FOR COMPARISON
  2857	032670	205 14 0 00 203400 		MOVSI	AC,ZZ		;SETUP AC
  2858	032671	205 13 0 00 200400 		MOVSI	AC-1,200400	;SETUP BR
  2859	032672	170 14 0 00 000013 		FDV	AC,AC-1		;C(AC)/C(E)
  2860	032673	312 14 0 00 000012 		CAME	AC,AC-2		;TEST QUOT
  2861	032674	003 14 0 00 007101 		ER3	AC,7101		;FDV FAILED
  2862	032675	321 16 0 00 032667 		JUMPL	AC+2,.-6	;LOOP ON ERROR SWITCH
  2863
DAKCB	PDP-10 KA10 ADVANCED INSTRUCTION DIAGNOSTIC #2, VERSION 0,2 	MACRO %52(537) 12:44 21-JAN-77 PAGE 32
DAKCBM	MAC	21-JAN-77 12:33		PART IIIB-GEN TEST-FMP,FDV AND DFN                                                 SEQ 0083

  2864					;TEST FDV
  2865					;AR=200.6,200.7,200.74
  2866					;BR=200400000000
  2867					;QUOT=201.6,201.7,201.74
  2868
  2869			000013			AC=13
  2870						SAVEAC	(1,1)^
  2871	032676	201 15 0 00 032676 		MOVEI	AC+2,.
  2872	032677	202 15 0 00 030051 		MOVEM	AC+2,TESTPC	;SETUP SUBTEST PC
  2873	032700	201 15 0 00 000015 		MOVEI	AC+2,<AC+2>&17	;INFORM ERROR ROUTINE WHICH
  2874	032701	202 15 0 00 034327 		MOVEM	AC+2,ERRLOP#	;AC IS USED FOR ITERATION^
  2875			007200		SN=7200
  2876			000200			WW=200
  2877			201400			XX=201400
  2878			200400			ZZ=200400
  2879
  2880							;TEST FDV
  2881					P7200:	REPEAT ^D3,<
  2882					SN=SN+1
  2883						XX=XX+WW
  2884						ZZ=ZZ+WW
  2885						WW=WW/2
  2886						MOVSI	AC-2,XX		;SETUP FOR COMPARISON
  2887						MOVSI	AC,ZZ		;SETUP AC
  2888						MOVSI	AC-1,200400	;SETUP BR
  2889						FDV	AC,AC-1		;C(AC)/C(E)
  2890						CAME	AC,AC-2		;TEST QUOT
  2891						ER3	AC,SN		;FDV FAILED
  2892						JUMPL	AC+2,.-6	;LOOP ON ERROR SWITCH
  2893					>
  2894
  2895			007201		SN=SN+1
  2896			201600			XX=XX+WW
  2897			200600			ZZ=ZZ+WW
  2898			000100			WW=WW/2
  2899	032702	205 11 0 00 201600 		MOVSI	AC-2,XX		;SETUP FOR COMPARISON
  2900	032703	205 13 0 00 200600 		MOVSI	AC,ZZ		;SETUP AC
  2901	032704	205 12 0 00 200400 		MOVSI	AC-1,200400	;SETUP BR
  2902	032705	170 13 0 00 000012 		FDV	AC,AC-1		;C(AC)/C(E)
  2903	032706	312 13 0 00 000011 		CAME	AC,AC-2		;TEST QUOT
  2904	032707	003 13 0 00 007201 		ER3	AC,SN		;FDV FAILED
  2905	032710	321 15 0 00 032702 		JUMPL	AC+2,.-6	;LOOP ON ERROR SWITCH
  2906
  2907
  2908			007202		SN=SN+1
  2909			201700			XX=XX+WW
  2910			200700			ZZ=ZZ+WW
  2911			000040			WW=WW/2
  2912	032711	205 11 0 00 201700 		MOVSI	AC-2,XX		;SETUP FOR COMPARISON
  2913	032712	205 13 0 00 200700 		MOVSI	AC,ZZ		;SETUP AC
  2914	032713	205 12 0 00 200400 		MOVSI	AC-1,200400	;SETUP BR
  2915	032714	170 13 0 00 000012 		FDV	AC,AC-1		;C(AC)/C(E)
  2916	032715	312 13 0 00 000011 		CAME	AC,AC-2		;TEST QUOT
  2917	032716	003 13 0 00 007202 		ER3	AC,SN		;FDV FAILED
  2918	032717	321 15 0 00 032711 		JUMPL	AC+2,.-6	;LOOP ON ERROR SWITCH
DAKCB	PDP-10 KA10 ADVANCED INSTRUCTION DIAGNOSTIC #2, VERSION 0,2 	MACRO %52(537) 12:44 21-JAN-77 PAGE 32-1
DAKCBM	MAC	21-JAN-77 12:33		PART IIIB-GEN TEST-FMP,FDV AND DFN                                                 SEQ 0084

  2919
  2920
  2921			007203		SN=SN+1
  2922			201740			XX=XX+WW
  2923			200740			ZZ=ZZ+WW
  2924			000020			WW=WW/2
  2925	032720	205 11 0 00 201740 		MOVSI	AC-2,XX		;SETUP FOR COMPARISON
  2926	032721	205 13 0 00 200740 		MOVSI	AC,ZZ		;SETUP AC
  2927	032722	205 12 0 00 200400 		MOVSI	AC-1,200400	;SETUP BR
  2928	032723	170 13 0 00 000012 		FDV	AC,AC-1		;C(AC)/C(E)
  2929	032724	312 13 0 00 000011 		CAME	AC,AC-2		;TEST QUOT
  2930	032725	003 13 0 00 007203 		ER3	AC,SN		;FDV FAILED
  2931	032726	321 15 0 00 032720 		JUMPL	AC+2,.-6	;LOOP ON ERROR SWITCH
  2932
DAKCB	PDP-10 KA10 ADVANCED INSTRUCTION DIAGNOSTIC #2, VERSION 0,2 	MACRO %52(537) 12:44 21-JAN-77 PAGE 33
DAKCBM	MAC	21-JAN-77 12:33		PART IIIB-GEN TEST-FMP,FDV AND DFN                                                 SEQ 0085

  2933					;TEST FDV
  2934					;AR=200.4,200.6
  2935					;BR=577400000000
  2936					;QUOT=576.4,576.2
  2937
  2938			000012			AC=12
  2939						SAVEAC	(1,1)^
  2940	032727	201 14 0 00 032727 		MOVEI	AC+2,.
  2941	032730	202 14 0 00 030051 		MOVEM	AC+2,TESTPC	;SETUP SUBTEST PC
  2942	032731	201 14 0 00 000014 		MOVEI	AC+2,<AC+2>&17	;INFORM ERROR ROUTINE WHICH
  2943	032732	202 14 0 00 034327 		MOVEM	AC+2,ERRLOP#	;AC IS USED FOR ITERATION^
  2944
  2945			007300		SN=7300
  2946			576600			XX=576600
  2947			200200			ZZ=200200
  2948
  2949							;TEST FDV
  2950					P7300:	REPEAT ^D2,<
  2951					SN=SN+1
  2952						XX=XX-200
  2953						ZZ=ZZ+200
  2954						MOVSI	AC-2,XX		;SETUP FOR COMPARISON
  2955						MOVSI	AC,ZZ		;SETUP AC
  2956						MOVSI	AC-1,577400	;SETUP BR
  2957						FDV	AC,AC-1		;C(AC)/C(E)
  2958						CAME	AC,AC-2		;TEST QUOT
  2959						ER3	AC,SN		;FDV FAILED
  2960						JUMPL	AC+2,.-6	;LOOP ON ERROR SWITCH
  2961					>
  2962
  2963			007301		SN=SN+1
  2964			576400			XX=XX-200
  2965			200400			ZZ=ZZ+200
  2966	032733	205 10 0 00 576400 		MOVSI	AC-2,XX		;SETUP FOR COMPARISON
  2967	032734	205 12 0 00 200400 		MOVSI	AC,ZZ		;SETUP AC
  2968	032735	205 11 0 00 577400 		MOVSI	AC-1,577400	;SETUP BR
  2969	032736	170 12 0 00 000011 		FDV	AC,AC-1		;C(AC)/C(E)
  2970	032737	312 12 0 00 000010 		CAME	AC,AC-2		;TEST QUOT
  2971	032740	003 12 0 00 007301 		ER3	AC,SN		;FDV FAILED
  2972	032741	321 14 0 00 032733 		JUMPL	AC+2,.-6	;LOOP ON ERROR SWITCH
  2973
  2974
  2975			007302		SN=SN+1
  2976			576200			XX=XX-200
  2977			200600			ZZ=ZZ+200
  2978	032742	205 10 0 00 576200 		MOVSI	AC-2,XX		;SETUP FOR COMPARISON
  2979	032743	205 12 0 00 200600 		MOVSI	AC,ZZ		;SETUP AC
  2980	032744	205 11 0 00 577400 		MOVSI	AC-1,577400	;SETUP BR
  2981	032745	170 12 0 00 000011 		FDV	AC,AC-1		;C(AC)/C(E)
  2982	032746	312 12 0 00 000010 		CAME	AC,AC-2		;TEST QUOT
  2983	032747	003 12 0 00 007302 		ER3	AC,SN		;FDV FAILED
  2984	032750	321 14 0 00 032742 		JUMPL	AC+2,.-6	;LOOP ON ERROR SWITCH
  2985
  2986					PAGE
DAKCB	PDP-10 KA10 ADVANCED INSTRUCTION DIAGNOSTIC #2, VERSION 0,2 	MACRO %52(537) 12:44 21-JAN-77 PAGE 33-1
DAKCBM	MAC	21-JAN-77 12:33		PART IIIB-GEN TEST-FMP,FDV AND DFN                                                 SEQ 0086

  2987					;TEST FDV
  2988					;AR=177400000000
  2989					;BR=204400000000
  2990					;QUOT=1744000000
  2991
  2992
  2993			000011			AC=11
  2994						SAVEAC (1,1)^
  2995	032751	201 13 0 00 032751 		MOVEI	AC+2,.
  2996	032752	202 13 0 00 030051 		MOVEM	AC+2,TESTPC	;SETUP SUBTEST PC
  2997	032753	201 13 0 00 000013 		MOVEI	AC+2,<AC+2>&17	;INFORM ERROR ROUTINE WHICH
  2998	032754	202 13 0 00 034327 		MOVEM	AC+2,ERRLOP#	;AC IS USED FOR ITERATION^
  2999
  3000	032755	205 07 0 00 174400 	P7400:	MOVSI	AC-2,174400	;SETUP FOR COMPARISON
  3001	032756	205 11 0 00 177400 		MOVSI	AC,177400	;SETUP AC
  3002	032757	205 10 0 00 204400 		MOVSI	AC-1,204400	;SETUP BR
  3003	032760	170 11 0 00 000010 		FDV	AC,AC-1		;C(AC)/C(E)
  3004	032761	312 11 0 00 000007 		CAME	AC,AC-2		;TEST QUOT
  3005	032762	003 11 0 00 007401 		ER3	AC,7401		;FDV FAILED
  3006	032763	321 13 0 00 032755 		JUMPL	AC+2,P7400	;LOOP ON ERROR SWITCH
DAKCB	PDP-10 KA10 ADVANCED INSTRUCTION DIAGNOSTIC #2, VERSION 0,2 	MACRO %52(537) 12:44 21-JAN-77 PAGE 34
DAKCBM	MAC	21-JAN-77 12:33		PART IIIB-GEN TEST-FMP,FDV AND DFN                                                 SEQ 0087

  3007					;TEST FDV
  3008					;AR=576400000000
  3009					;BR=200600000000
  3010					;KI10
  3011					;QUOT=576252525253
  3012					;KL10
  3013					;QUOT=576252525252
  3014
  3015			000010			AC=10
  3016						SAVEAC (1,1)^
  3017	032764	201 12 0 00 032764 		MOVEI	AC+2,.
  3018	032765	202 12 0 00 030051 		MOVEM	AC+2,TESTPC	;SETUP SUBTEST PC
  3019	032766	201 12 0 00 000012 		MOVEI	AC+2,<AC+2>&17	;INFORM ERROR ROUTINE WHICH
  3020	032767	202 12 0 00 034327 		MOVEM	AC+2,ERRLOP#	;AC IS USED FOR ITERATION^
  3021
  3022	032770	505 06 0 00 576252 	P7500:	HRLI	AC-2,576252	;SETUP AC-2
  3023	032771	541 06 0 00 525253 		HRRI	AC-2,525253	;FOR COMPARISON - KI10
  3024	032772	332 00 0 00 030041 		SKIPE	KLFLG
  3025	032773	541 06 0 00 525252 		HRRI	AC-2,525252	;FOR COMPARISON - KL10
  3026	032774	205 10 0 00 576400 		MOVSI	AC,576400	;SETUP AC
  3027	032775	205 07 0 00 200600 		MOVSI	AC-1,200600	;SETUP BR
  3028	032776	170 10 0 00 000007 		FDV	AC,AC-1		;C(AC)/C(E)
  3029	032777	312 10 0 00 000006 		CAME	AC,AC-2		;TEST QUOT
  3030	033000	003 10 0 00 007501 		ER3	AC,7501		;FDV FAILED
  3031	033001	321 12 0 00 032770 		JUMPL	AC+2,P7500	;LOOP ON ERROR SWITCH
  3032					PAGE
DAKCB	PDP-10 KA10 ADVANCED INSTRUCTION DIAGNOSTIC #2, VERSION 0,2 	MACRO %52(537) 12:44 21-JAN-77 PAGE 34-1
DAKCBM	MAC	21-JAN-77 12:33		PART IIIB-GEN TEST-FMP,FDV AND DFN                                                 SEQ 0088

  3033					;TEST FDV
  3034					;AR=600.6,600.4
  3035					;BR=577400000000
  3036					;QUOT=177.4,200.4
  3037
  3038
  3039			000007			AC=7
  3040						SAVEAC	(1,1)^
  3041	033002	201 11 0 00 033002 		MOVEI	AC+2,.
  3042	033003	202 11 0 00 030051 		MOVEM	AC+2,TESTPC	;SETUP SUBTEST PC
  3043	033004	201 11 0 00 000011 		MOVEI	AC+2,<AC+2>&17	;INFORM ERROR ROUTINE WHICH
  3044	033005	202 11 0 00 034327 		MOVEM	AC+2,ERRLOP#	;AC IS USED FOR ITERATION^
  3045			007600		SN=7600
  3046			176400			XX=176400
  3047			601000			ZZ=601000
  3048
  3049							;TEST FDV
  3050					P7600:	REPEAT ^D2,<
  3051					SN=SN+1
  3052						XX=XX+1000
  3053						ZZ=ZZ-200
  3054						MOVSI	AC-2,XX		;SETUP FOR COMPARISON
  3055						MOVSI	AC,ZZ		;SETUP AC
  3056						MOVSI	AC-1,577400	;SETUP BR
  3057						FDV	AC,AC-1		;C(AC)/C(E)
  3058						CAME	AC,AC-2		;TEST QUOT
  3059						ER3	AC,SN		;FDV FAILED
  3060						JUMPL	AC+2,.-6	;LOOP ON ERROR SWITCH
  3061					>
  3062
  3063			007601		SN=SN+1
  3064			177400			XX=XX+1000
  3065			600600			ZZ=ZZ-200
  3066	033006	205 05 0 00 177400 		MOVSI	AC-2,XX		;SETUP FOR COMPARISON
  3067	033007	205 07 0 00 600600 		MOVSI	AC,ZZ		;SETUP AC
  3068	033010	205 06 0 00 577400 		MOVSI	AC-1,577400	;SETUP BR
  3069	033011	170 07 0 00 000006 		FDV	AC,AC-1		;C(AC)/C(E)
  3070	033012	312 07 0 00 000005 		CAME	AC,AC-2		;TEST QUOT
  3071	033013	003 07 0 00 007601 		ER3	AC,SN		;FDV FAILED
  3072	033014	321 11 0 00 033006 		JUMPL	AC+2,.-6	;LOOP ON ERROR SWITCH
  3073
  3074
  3075			007602		SN=SN+1
  3076			200400			XX=XX+1000
  3077			600400			ZZ=ZZ-200
  3078	033015	205 05 0 00 200400 		MOVSI	AC-2,XX		;SETUP FOR COMPARISON
  3079	033016	205 07 0 00 600400 		MOVSI	AC,ZZ		;SETUP AC
  3080	033017	205 06 0 00 577400 		MOVSI	AC-1,577400	;SETUP BR
  3081	033020	170 07 0 00 000006 		FDV	AC,AC-1		;C(AC)/C(E)
  3082	033021	312 07 0 00 000005 		CAME	AC,AC-2		;TEST QUOT
  3083	033022	003 07 0 00 007602 		ER3	AC,SN		;FDV FAILED
  3084	033023	321 11 0 00 033015 		JUMPL	AC+2,.-6	;LOOP ON ERROR SWITCH
  3085
DAKCB	PDP-10 KA10 ADVANCED INSTRUCTION DIAGNOSTIC #2, VERSION 0,2 	MACRO %52(537) 12:44 21-JAN-77 PAGE 35
DAKCBM	MAC	21-JAN-77 12:33		PART IIIB-GEN TEST-FMP,FDV AND DFN                                                 SEQ 0089

  3086					;TEST FDV
  3087					;AR=377400777777
  3088					;BR=577400777777
  3089					;KI10
  3090					;QUOT=777375773772
  3091					;KL10
  3092					;QUOT=777375773771
  3093
  3094			000006			AC=6
  3095						SAVEAC (1,1)^
  3096	033024	201 10 0 00 033024 		MOVEI	AC+2,.
  3097	033025	202 10 0 00 030051 		MOVEM	AC+2,TESTPC	;SETUP SUBTEST PC
  3098	033026	201 10 0 00 000010 		MOVEI	AC+2,<AC+2>&17	;INFORM ERROR ROUTINE WHICH
  3099	033027	202 10 0 00 034327 		MOVEM	AC+2,ERRLOP#	;AC IS USED FOR ITERATION^
  3100
  3101	033030	505 04 0 00 777375 	P7700:	HRLI	AC-2,777375	;SETUP AC-2
  3102	033031	541 04 0 00 773772 		HRRI	AC-2,773772	;FOR COMPARISON - KI10
  3103	033032	332 00 0 00 030041 		SKIPE	KLFLG
  3104	033033	541 04 0 00 773771 		HRRI	AC-2,773771	;FOR COMPARISON - KL10
  3105	033034	505 06 0 00 377400 		HRLI	AC,377400	;SETUP
  3106	033035	541 06 0 00 777777 		HRRI	AC,-1		;AC
  3107	033036	505 05 0 00 577400 		HRLI	AC-1,577400	;SETUP
  3108	033037	541 05 0 00 777777 		HRRI	AC-1,-1		;BR
  3109	033040	170 06 0 00 000005 		FDV	AC,AC-1		;C(AC)/C(E)
  3110	033041	312 06 0 00 000004 		CAME	AC,AC-2		;TEST QUOT
  3111	033042	003 06 0 00 007701 		ER3	AC,7701		;FDV FAILED
  3112	033043	312 05 0 00 034150 		CAME	AC-1,[577400,,-1]	;EXAMINE C(E)
  3113	033044	005 05 0 00 007701 		ER5	AC-1,7701	;C(E) WAS CLOBBERED
  3114	033045	321 10 0 00 033030 		JUMPL	AC+2,P7700	;LOOP ON ERROR SWITCH
DAKCB	PDP-10 KA10 ADVANCED INSTRUCTION DIAGNOSTIC #2, VERSION 0,2 	MACRO %52(537) 12:44 21-JAN-77 PAGE 36
DAKCBM	MAC	21-JAN-77 12:33		PART IIIB-GEN TEST-FMP,FDV AND DFN                                                 SEQ 0090

  3115					;TEST ECO49
  3116					;TEST FDV DIVIDE CHECK
  3117					;AR=201400000000, 1.0
  3118					;BR=0
  3119					;FLAGS=440040
  3120
  3121			000006			AC=6
  3122						SAVEAC	(1,1)^
  3123	033046	201 10 0 00 033046 		MOVEI	AC+2,.
  3124	033047	202 10 0 00 030051 		MOVEM	AC+2,TESTPC	;SETUP SUBTEST PC
  3125	033050	201 10 0 00 000010 		MOVEI	AC+2,<AC+2>&17	;INFORM ERROR ROUTINE WHICH
  3126	033051	202 10 0 00 034327 		MOVEM	AC+2,ERRLOP#	;AC IS USED FOR ITERATION^
  3127
  3128	033052	254 02 1 00 033053 	P10000:	JRST	2,@.+1		;CLEAR PC FLAGS
  3129	033053	000000	033054			XWD	0,.+1
  3130	033054	205 06 0 00 201400 		MOVSI	AC,201400	;SETUP DVND
  3131	033055	201 05 0 00 000000 		MOVEI	AC-1,0		;SETUP DVSR
  3132	033056	170 06 0 00 000005 		FDV	AC,AC-1		;FLOATING DIVIDE 1.0 BY 0
  3133	033057	265 04 0 00 033060 		JSP	AC-2,.+1	;STORE PC AND FLAGS
  3134	033060	607 04 0 00 000040 		TLNN	AC-2,40		;TEST BIT 12
  3135	033061	013 04 0 00 010001 		ER13	AC-2,10001	;AR DCK FAILED TO SET
  3136	033062	321 10 0 00 033052 		JUMPL	AC+2,P10000	;LOOP ON ERROR SWITCH
  3137
  3138
  3139					;TEST ECO49
  3140					;TEST UNDERFLOW
  3141					;AR=377400000000
  3142					;BR=000400000000
  3143					;FLAGS=440000
  3144
  3145			000006			AC=6
  3146						SAVEAC	(1,1)^
  3147	033063	201 10 0 00 033063 		MOVEI	AC+2,.
  3148	033064	202 10 0 00 030051 		MOVEM	AC+2,TESTPC	;SETUP SUBTEST PC
  3149	033065	201 10 0 00 000010 		MOVEI	AC+2,<AC+2>&17	;INFORM ERROR ROUTINE WHICH
  3150	033066	202 10 0 00 034327 		MOVEM	AC+2,ERRLOP#	;AC IS USED FOR ITERATION^
  3151
  3152	033067	254 02 1 00 033070 	P10100:	JRST	2,@.+1		;CLEAR PC FLAGS
  3153	033070	000000	033071			XWD	0,.+1
  3154	033071	205 06 0 00 377400 		MOVSI	AC,377400	;SETUP DVND
  3155	033072	205 05 0 00 000400 		MOVSI	AC-1,000400	;SETUP DVSR
  3156	033073	170 06 0 00 000005 		FDV	AC,AC-1		;FLOATING DIVIDE
  3157	033074	265 04 0 00 033075 		JSP	AC-2,.+1	;GET PC FLAGS
  3158	033075	603 04 0 00 000100 		TLNE	AC-2,FXU	;UNDERFLOW SHOULD BE 0
  3159	033076	013 04 0 00 010101 		ER13	AC-2,10101	;ERROR
  3160	033077	321 10 0 00 033067 		JUMPL	AC+2,P10100	;LOOP ON ERROR SWITCH
DAKCB	PDP-10 KA10 ADVANCED INSTRUCTION DIAGNOSTIC #2, VERSION 0,2 	MACRO %52(537) 12:44 21-JAN-77 PAGE 37
DAKCBM	MAC	21-JAN-77 12:33		PART IIIB-GEN TEST-FMP,FDV AND DFN                                                 SEQ 0091

  3161					;TEST FDVM
  3162					;AR=577775000000,577774000000
  3163					;BR=577777000000
  3164					;QUOT=577777000000
  3165
  3166			000005			AC=5
  3167						SAVEAC	(1,1)^
  3168	033100	201 07 0 00 033100 		MOVEI	AC+2,.
  3169	033101	202 07 0 00 030051 		MOVEM	AC+2,TESTPC	;SETUP SUBTEST PC
  3170	033102	201 07 0 00 000007 		MOVEI	AC+2,<AC+2>&17	;INFORM ERROR ROUTINE WHICH
  3171	033103	202 07 0 00 034327 		MOVEM	AC+2,ERRLOP#	;AC IS USED FOR ITERATION^
  3172			010200		SN=10200
  3173			577776			ZZ=577776
  3174
  3175							;TEST FDVM
  3176					P10200:	REPEAT ^D2,<
  3177					SN=SN+1
  3178						ZZ=ZZ-1
  3179						MOVSI	AC-2,577777	;SETUP FOR COMPARISON
  3180						MOVSI	AC,ZZ		;SETUP AC
  3181						MOVSI	AC-1,577777	;SETUP BR
  3182						FDVM	AC,AC-1		;C(AC)/C(E)
  3183						CAME	AC-1,AC-2	;TEST QUOT
  3184						ER5	AC-1,SN		;FDVM FAILED
  3185						JUMPL	AC+2,.-6	;LOOP ON ERROR SWITCH
  3186					>
  3187
  3188			010201		SN=SN+1
  3189			577775			ZZ=ZZ-1
  3190	033104	205 03 0 00 577777 		MOVSI	AC-2,577777	;SETUP FOR COMPARISON
  3191	033105	205 05 0 00 577775 		MOVSI	AC,ZZ		;SETUP AC
  3192	033106	205 04 0 00 577777 		MOVSI	AC-1,577777	;SETUP BR
  3193	033107	172 05 0 00 000004 		FDVM	AC,AC-1		;C(AC)/C(E)
  3194	033110	312 04 0 00 000003 		CAME	AC-1,AC-2	;TEST QUOT
  3195	033111	005 04 0 00 010201 		ER5	AC-1,SN		;FDVM FAILED
  3196	033112	321 07 0 00 033104 		JUMPL	AC+2,.-6	;LOOP ON ERROR SWITCH
  3197
  3198
  3199			010202		SN=SN+1
  3200			577774			ZZ=ZZ-1
  3201	033113	205 03 0 00 577777 		MOVSI	AC-2,577777	;SETUP FOR COMPARISON
  3202	033114	205 05 0 00 577774 		MOVSI	AC,ZZ		;SETUP AC
  3203	033115	205 04 0 00 577777 		MOVSI	AC-1,577777	;SETUP BR
  3204	033116	172 05 0 00 000004 		FDVM	AC,AC-1		;C(AC)/C(E)
  3205	033117	312 04 0 00 000003 		CAME	AC-1,AC-2	;TEST QUOT
  3206	033120	005 04 0 00 010202 		ER5	AC-1,SN		;FDVM FAILED
  3207	033121	321 07 0 00 033113 		JUMPL	AC+2,.-6	;LOOP ON ERROR SWITCH
  3208
  3209					PAGE
DAKCB	PDP-10 KA10 ADVANCED INSTRUCTION DIAGNOSTIC #2, VERSION 0,2 	MACRO %52(537) 12:44 21-JAN-77 PAGE 37-1
DAKCBM	MAC	21-JAN-77 12:33		PART IIIB-GEN TEST-FMP,FDV AND DFN                                                 SEQ 0092

  3210					;TEST FDVM
  3211					;AR=210777777777
  3212					;BR=170750000000
  3213					;QUOT=221414456123
  3214
  3215			000014			AC=14
  3216						SAVEAC (1,1)^
  3217	033122	201 16 0 00 033122 		MOVEI	AC+2,.
  3218	033123	202 16 0 00 030051 		MOVEM	AC+2,TESTPC	;SETUP SUBTEST PC
  3219	033124	201 16 0 00 000016 		MOVEI	AC+2,<AC+2>&17	;INFORM ERROR ROUTINE WHICH
  3220	033125	202 16 0 00 034327 		MOVEM	AC+2,ERRLOP#	;AC IS USED FOR ITERATION^
  3221
  3222	033126	505 12 0 00 221414 	P10300:	HRLI	AC-2,221414	;SETUP AC-2
  3223	033127	541 12 0 00 456123 		HRRI	AC-2,456123	;FOR COMPARISON
  3224	033130	505 14 0 00 210777 		HRLI	AC,210777	;SETUP
  3225	033131	541 14 0 00 777777 		HRRI	AC,-1		;AC
  3226	033132	205 13 0 00 170750 		MOVSI	AC-1,170750	;SETUP BR
  3227	033133	172 14 0 00 000013 		FDVM	AC,AC-1		;C(AC)/C(E)
  3228	033134	312 14 0 00 034151 		CAME	AC,[210777,,-1]	;EXAMINE C(AC)
  3229	033135	003 14 0 00 010301 		ER3	AC,10301	;C(AC) WAS CLOBBERED
  3230	033136	312 13 0 00 000012 		CAME	AC-1,AC-2	;TEST QUOT
  3231	033137	005 13 0 00 010301 		ER5	AC-1,10301	;FDVM FAILED
  3232	033140	321 16 0 00 033126 		JUMPL	AC+2,P10300	;LOOP ON ERROR SWITCH
DAKCB	PDP-10 KA10 ADVANCED INSTRUCTION DIAGNOSTIC #2, VERSION 0,2 	MACRO %52(537) 12:44 21-JAN-77 PAGE 38
DAKCBM	MAC	21-JAN-77 12:33		PART IIIB-GEN TEST-FMP,FDV AND DFN                                                 SEQ 0093

  3233					;TEST FDVB
  3234					;AR=210777777777
  3235					;BR=170555000000
  3236					;QUOT=221547063714
  3237
  3238			000014			AC=14
  3239						SAVEAC (1,1)^
  3240	033141	201 16 0 00 033141 		MOVEI	AC+2,.
  3241	033142	202 16 0 00 030051 		MOVEM	AC+2,TESTPC	;SETUP SUBTEST PC
  3242	033143	201 16 0 00 000016 		MOVEI	AC+2,<AC+2>&17	;INFORM ERROR ROUTINE WHICH
  3243	033144	202 16 0 00 034327 		MOVEM	AC+2,ERRLOP#	;AC IS USED FOR ITERATION^
  3244
  3245	033145	505 12 0 00 221547 	P10400:	HRLI	AC-2,221547	;SETUP AC-2
  3246	033146	541 12 0 00 063714 		HRRI	AC-2,63714	;FOR COMPARISON
  3247	033147	505 14 0 00 210777 		HRLI	AC,210777	;SETUP
  3248	033150	541 14 0 00 777777 		HRRI	AC,-1		;AC
  3249	033151	205 13 0 00 170555 		MOVSI	AC-1,170555	;SETUP BR
  3250	033152	173 14 0 00 000013 		FDVB	AC,AC-1		;C(AC)/C(E)
  3251	033153	312 14 0 00 000012 		CAME	AC,AC-2		;TEST QUOT(AC)
  3252	033154	003 14 0 00 010401 		ER3	AC,10401	;C(AC) FAILED
  3253	033155	312 13 0 00 000012 		CAME	AC-1,AC-2	;TEST QUOT(E)
  3254	033156	005 13 0 00 010401 		ER5	AC-1,10401	;FDVB FAILED
  3255	033157	321 16 0 00 033145 		JUMPL	AC+2,P10400	;LOOP ON ERROR SWITCH
  3256
  3257					;TEST FDVB
  3258					;AR=577000555555
  3259					;BR=200400000000
  3260					;QUOT=576000555555
  3261
  3262			000013			AC=13
  3263						SAVEAC (1,1)^
  3264	033160	201 15 0 00 033160 		MOVEI	AC+2,.
  3265	033161	202 15 0 00 030051 		MOVEM	AC+2,TESTPC	;SETUP SUBTEST PC
  3266	033162	201 15 0 00 000015 		MOVEI	AC+2,<AC+2>&17	;INFORM ERROR ROUTINE WHICH
  3267	033163	202 15 0 00 034327 		MOVEM	AC+2,ERRLOP#	;AC IS USED FOR ITERATION^
  3268
  3269	033164	505 11 0 00 576000 	P10500:	HRLI	AC-2,576000	;SETUP AC-2
  3270	033165	541 11 0 00 555555 		HRRI	AC-2,555555	;FOR COMPARISON
  3271	033166	505 13 0 00 577000 		HRLI	AC,577000	;SETUP
  3272	033167	541 13 0 00 555555 		HRRI	AC,555555	;AC
  3273	033170	205 12 0 00 200400 		MOVSI	AC-1,200400	;SETUP BR
  3274	033171	173 13 0 00 000012 		FDVB	AC,AC-1		;C(AC)/C(E)
  3275	033172	312 13 0 00 000011 		CAME	AC,AC-2		;TEST QUOT(AC)
  3276	033173	003 13 0 00 010501 		ER3	AC,10501	;C(AC) FAILED
  3277	033174	312 12 0 00 000011 		CAME	AC-1,AC-2	;TEST QUOT(E)
  3278	033175	005 12 0 00 010501 		ER5	AC-1,10501	;FDVB FAILED
  3279	033176	321 15 0 00 033164 		JUMPL	AC+2,P10500	;LOOP ON ERROR SWITCH
DAKCB	PDP-10 KA10 ADVANCED INSTRUCTION DIAGNOSTIC #2, VERSION 0,2 	MACRO %52(537) 12:44 21-JAN-77 PAGE 39
DAKCBM	MAC	21-JAN-77 12:33		PART IIIB-GEN TEST-FMP,FDV AND DFN                                                 SEQ 0094

  3280					;TEST FDVL
  3281					;AR=210777777777
  3282					;BR=170555000000
  3283					;HIGH ORDER=221547063715
  3284					;LOW ORDER=156266777777
  3285
  3286			000012			AC=12
  3287						SAVEAC (1,1)^
  3288	033177	201 14 0 00 033177 		MOVEI	AC+2,.
  3289	033200	202 14 0 00 030051 		MOVEM	AC+2,TESTPC	;SETUP SUBTEST PC
  3290	033201	201 14 0 00 000014 		MOVEI	AC+2,<AC+2>&17	;INFORM ERROR ROUTINE WHICH
  3291	033202	202 14 0 00 034327 		MOVEM	AC+2,ERRLOP#	;AC IS USED FOR ITERATION^
  3292
  3293	033203	505 10 0 00 221547 	P10600:	HRLI	AC-2,221547	;SETUP AC-2
  3294	033204	541 10 0 00 063715 		HRRI	AC-2,63715	;FOR COMPARISON
  3295	033205	505 12 0 00 210777 		HRLI	AC,210777	;SETUP
  3296	033206	541 12 0 00 777777 		HRRI	AC,-1		;AC
  3297	033207	474 13 0 00 000000 		SETO	AC+1,		;SETUP AC+1
  3298	033210	205 11 0 00 170555 		MOVSI	AC-1,170555	;SETUP BR
  3299	033211	171 12 0 00 000011 		FDVL	AC,AC-1		;C(AC)/C(E)
  3300	033212	312 12 0 00 000010 		CAME	AC,AC-2		;TEST HIGH ORDER
  3301	033213	003 12 0 00 010601 		ER3	AC,10601	;HIGH ORDER ERROR
  3302	033214	505 10 0 00 156266 		HRLI	AC-2,156266	;SETUP AC-2
  3303	033215	541 10 0 00 777777 		HRRI	AC-2,-1		;FOR COMPARISON
  3304	033216	312 13 0 00 000010 		CAME	AC+1,AC-2	;TEST LOW ORDER
  3305	033217	004 13 0 00 010601 		ER4	AC+1,10601	;LOW ORDER ERROR
  3306	033220	321 14 0 00 033203 		JUMPL	AC+2,P10600	;LOOP ON ERROR SWITCH
  3307
  3308					;TEST FDVL
  3309					;AR=210777777775
  3310					;BR=170555000000
  3311					;HIGH ORDER=221547063713
  3312					;LOW ORDER=156221000000
  3313
  3314			000011			AC=11
  3315						 SAVEAC (1,1)^
  3316	033221	201 13 0 00 033221 		MOVEI	AC+2,.
  3317	033222	202 13 0 00 030051 		MOVEM	AC+2,TESTPC	;SETUP SUBTEST PC
  3318	033223	201 13 0 00 000013 		MOVEI	AC+2,<AC+2>&17	;INFORM ERROR ROUTINE WHICH
  3319	033224	202 13 0 00 034327 		MOVEM	AC+2,ERRLOP#	;AC IS USED FOR ITERATION^
  3320
  3321	033225	505 07 0 00 221547 	P10700:	HRLI	AC-2,221547	;SETUP AC-2
  3322	033226	541 07 0 00 063713 		HRRI	AC-2,63713	;FOR COMPARISON
  3323	033227	505 11 0 00 210777 		HRLI	AC,210777	;SETUP
  3324	033230	541 11 0 00 777775 		HRRI	AC,777775	;AC
  3325	033231	400 12 0 00 000000 		SETZ	AC+1,		;SETUP AC+1
  3326	033232	205 10 0 00 170555 		MOVSI	AC-1,170555	;SETUP BR
  3327	033233	171 11 0 00 000010 		FDVL	AC,AC-1		;C(AC)/C(E)
  3328	033234	312 11 0 00 000007 		CAME	AC,AC-2		;TEST HIGH ORDER
  3329	033235	003 11 0 00 010701 		ER3	AC,10701	;HIGH ORDER ERROR
  3330	033236	205 07 0 00 156221 		MOVSI	AC-2,156221	;SETUP FOR COMPARISON
  3331	033237	312 12 0 00 000007 		CAME	AC+1,AC-2	;TEST LOW ORDER
  3332	033240	004 12 0 00 010701 		ER4	AC+1,10701	;LOW ORDER ERROR
  3333	033241	321 13 0 00 033225 		JUMPL	AC+2,P10700	;LOOP ON ERROR SWITCH
DAKCB	PDP-10 KA10 ADVANCED INSTRUCTION DIAGNOSTIC #2, VERSION 0,2 	MACRO %52(537) 12:44 21-JAN-77 PAGE 40
DAKCBM	MAC	21-JAN-77 12:33		PART IIIB-GEN TEST-FMP,FDV AND DFN                                                 SEQ 0095

  3334					;TEST FDVL
  3335					;AR=377400000000
  3336					;BR=100777000000
  3337					;HIGH ORDER=077400400400
  3338					;LOW ORDER=344400000000
  3339
  3340			000010			AC=10
  3341						SAVEAC (1,1)^
  3342	033242	201 12 0 00 033242 		MOVEI	AC+2,.
  3343	033243	202 12 0 00 030051 		MOVEM	AC+2,TESTPC	;SETUP SUBTEST PC
  3344	033244	201 12 0 00 000012 		MOVEI	AC+2,<AC+2>&17	;INFORM ERROR ROUTINE WHICH
  3345	033245	202 12 0 00 034327 		MOVEM	AC+2,ERRLOP#	;AC IS USED FOR ITERATION^
  3346
  3347	033246	505 06 0 00 077400 	P11000:	HRLI	AC-2,77400	;SETUP AC-2
  3348	033247	541 06 0 00 400400 		HRRI	AC-2,400400	;FOR COMPARISON
  3349	033250	205 10 0 00 377400 		MOVSI	AC,377400	;SETUP AC
  3350	033251	205 11 0 00 555000 		MOVSI	AC+1,555000	;SETUP AC+1
  3351	033252	205 07 0 00 100777 		MOVSI	AC-1,100777	;SETUP BR
  3352	033253	171 10 0 00 000007 		FDVL	AC,AC-1		;C(AC)/C(E)
  3353	033254	312 10 0 00 000006 		CAME	AC,AC-2		;TEST HIGH ORDER
  3354	033255	003 10 0 00 011001 		ER3	AC,11001	;HIGH ORDER ERROR
  3355	033256	205 06 0 00 344400 		MOVSI	AC-2,344400	;SETUP FOR COMPARISON
  3356	033257	312 11 0 00 000006 		CAME	AC+1,AC-2	;TEST LOW ORDER
  3357	033260	004 11 0 00 011001 		ER4	AC+1,11001	;LOW ORDER ERROR
  3358	033261	321 12 0 00 033246 		JUMPL	AC+2,P11000	;LOOP ON ERROR SWITCH
  3359
  3360					;TEST FDVL
  3361					;AR=373400000000
  3362					;BR=100777000000
  3363					;HIGH ORDER=073400400401
  3364					;LOW ORDER=340400000000
  3365
  3366			000007			AC=7
  3367						SAVEAC (1,1)^
  3368	033262	201 11 0 00 033262 		MOVEI	AC+2,.
  3369	033263	202 11 0 00 030051 		MOVEM	AC+2,TESTPC	;SETUP SUBTEST PC
  3370	033264	201 11 0 00 000011 		MOVEI	AC+2,<AC+2>&17	;INFORM ERROR ROUTINE WHICH
  3371	033265	202 11 0 00 034327 		MOVEM	AC+2,ERRLOP#	;AC IS USED FOR ITERATION^
  3372
  3373	033266	505 05 0 00 073400 	P11100:	HRLI	AC-2,73400	;SETUP AC-2
  3374	033267	541 05 0 00 400401 		HRRI	AC-2,400401	;FOR COMPARISON
  3375	033270	205 07 0 00 373400 		MOVSI	AC,373400	;SETUP AC
  3376	033271	205 10 0 00 200777 		MOVSI	AC+1,200777	;SETUP AC+1
  3377	033272	205 06 0 00 100777 		MOVSI	AC-1,100777	;SETUP BR
  3378	033273	171 07 0 00 000006 		FDVL	AC,AC-1		;C(AC)/C(E)
  3379	033274	312 07 0 00 000005 		CAME	AC,AC-2		;TEST HIGH ORDER
  3380	033275	003 07 0 00 011101 		ER3	AC,11101	;HIGH ORDER ERROR
  3381	033276	205 05 0 00 340400 		MOVSI	AC-2,340400	;SETUP FOR COMPARISON
  3382	033277	312 10 0 00 000005 		CAME	AC+1,AC-2	;TEST LOW ORDER
  3383	033300	004 10 0 00 011102 		ER4	AC+1,11102	;LOW ORDER ERROR
  3384	033301	312 06 0 00 034152 		CAME	AC-1,[100777,,0];EXAMINE C(E)
  3385	033302	005 06 0 00 011101 		ER5	AC-1,11101	;C(E) WAS CLOBBERED
  3386	033303	321 11 0 00 033266 		JUMPL	AC+2,P11100	;LOOP ON ERROR SWITCH
DAKCB	PDP-10 KA10 ADVANCED INSTRUCTION DIAGNOSTIC #2, VERSION 0,2 	MACRO %52(537) 12:44 21-JAN-77 PAGE 41
DAKCBM	MAC	21-JAN-77 12:33		PART IIIB-GEN TEST-FMP,FDV AND DFN                                                 SEQ 0096

  3387					;TEST FDVR
  3388					;AR=200777777777
  3389					;BR=200777777776,200777777774
  3390					;QUOT=201400000001,201400000002
  3391
  3392			000006			AC=6
  3393						SAVEAC	(1,1)^
  3394	033304	201 10 0 00 033304 		MOVEI	AC+2,.
  3395	033305	202 10 0 00 030051 		MOVEM	AC+2,TESTPC	;SETUP SUBTEST PC
  3396	033306	201 10 0 00 000010 		MOVEI	AC+2,<AC+2>&17	;INFORM ERROR ROUTINE WHICH
  3397	033307	202 10 0 00 034327 		MOVEM	AC+2,ERRLOP#	;AC IS USED FOR ITERATION^
  3398
  3399			011200		SN=11200
  3400			000000			XX=0
  3401			000002			ZZ=2
  3402
  3403							;TEST FDVR
  3404					P11200:	REPEAT ^D2,<
  3405					SN=SN+1
  3406						XX=XX+1
  3407						ZZ=ZZ-2
  3408						IFE	ZZ,<ZZ=-2>
  3409						HRLI	AC-2,201400	;SETUP AC-2
  3410						HRRI	AC-2,XX		;FOR COMPARISON
  3411						HRLI	AC,200777	;SETUP
  3412						HRRI	AC,-1		;AC
  3413						HRLI	AC-1,200777	;SETUP
  3414						HRRI	AC-1,ZZ		;BR
  3415						FDVR	AC,AC-1		;C(AC)/C(E)
  3416						CAME	AC,AC-2		;TEST QUOT
  3417						ER3	AC,SN		;FDVR FAILED
  3418						JUMPL	AC+2,.-^D9	;LOOP ON ERROR SWITCH
  3419					>
  3420
  3421			011201		SN=SN+1
  3422			000001			XX=XX+1
  3423			000000			ZZ=ZZ-2
  3424		777777	777776			IFE	ZZ,<ZZ=-2>
  3425	033310	505 04 0 00 201400 		HRLI	AC-2,201400	;SETUP AC-2
  3426	033311	541 04 0 00 000001 		HRRI	AC-2,XX		;FOR COMPARISON
  3427	033312	505 06 0 00 200777 		HRLI	AC,200777	;SETUP
  3428	033313	541 06 0 00 777777 		HRRI	AC,-1		;AC
  3429	033314	505 05 0 00 200777 		HRLI	AC-1,200777	;SETUP
  3430	033315	541 05 0 00 777776 		HRRI	AC-1,ZZ		;BR
  3431	033316	174 06 0 00 000005 		FDVR	AC,AC-1		;C(AC)/C(E)
  3432	033317	312 06 0 00 000004 		CAME	AC,AC-2		;TEST QUOT
  3433	033320	003 06 0 00 011201 		ER3	AC,SN		;FDVR FAILED
  3434	033321	321 10 0 00 033310 		JUMPL	AC+2,.-^D9	;LOOP ON ERROR SWITCH
  3435
  3436
  3437			011202		SN=SN+1
  3438			000002			XX=XX+1
  3439		777777	777774			ZZ=ZZ-2
  3440						IFE	ZZ,<ZZ=-2>
  3441	033322	505 04 0 00 201400 		HRLI	AC-2,201400	;SETUP AC-2
DAKCB	PDP-10 KA10 ADVANCED INSTRUCTION DIAGNOSTIC #2, VERSION 0,2 	MACRO %52(537) 12:44 21-JAN-77 PAGE 41-1
DAKCBM	MAC	21-JAN-77 12:33		PART IIIB-GEN TEST-FMP,FDV AND DFN                                                 SEQ 0097

  3442	033323	541 04 0 00 000002 		HRRI	AC-2,XX		;FOR COMPARISON
  3443	033324	505 06 0 00 200777 		HRLI	AC,200777	;SETUP
  3444	033325	541 06 0 00 777777 		HRRI	AC,-1		;AC
  3445	033326	505 05 0 00 200777 		HRLI	AC-1,200777	;SETUP
  3446	033327	541 05 0 00 777774 		HRRI	AC-1,ZZ		;BR
  3447	033330	174 06 0 00 000005 		FDVR	AC,AC-1		;C(AC)/C(E)
  3448	033331	312 06 0 00 000004 		CAME	AC,AC-2		;TEST QUOT
  3449	033332	003 06 0 00 011202 		ER3	AC,SN		;FDVR FAILED
  3450	033333	321 10 0 00 033322 		JUMPL	AC+2,.-^D9	;LOOP ON ERROR SWITCH
  3451
DAKCB	PDP-10 KA10 ADVANCED INSTRUCTION DIAGNOSTIC #2, VERSION 0,2 	MACRO %52(537) 12:44 21-JAN-77 PAGE 42
DAKCBM	MAC	21-JAN-77 12:33		PART IIIB-GEN TEST-FMP,FDV AND DFN                                                 SEQ 0098

  3452					;TEST FDVR
  3453					;AR=210777777777
  3454					;BR=170555000000
  3455					;QUOT=221547063715
  3456
  3457			000005			AC=5
  3458						SAVEAC (1,1)^
  3459	033334	201 07 0 00 033334 		MOVEI	AC+2,.
  3460	033335	202 07 0 00 030051 		MOVEM	AC+2,TESTPC	;SETUP SUBTEST PC
  3461	033336	201 07 0 00 000007 		MOVEI	AC+2,<AC+2>&17	;INFORM ERROR ROUTINE WHICH
  3462	033337	202 07 0 00 034327 		MOVEM	AC+2,ERRLOP#	;AC IS USED FOR ITERATION^
  3463
  3464	033340	505 03 0 00 221547 	P11300:	HRLI	AC-2,221547	;SETUP AC-2
  3465	033341	541 03 0 00 063715 		HRRI	AC-2,63715	;FOR COMPARISON
  3466	033342	505 05 0 00 210777 		HRLI	AC,210777	;SETUP
  3467	033343	541 05 0 00 777777 		HRRI	AC,-1		;AC
  3468	033344	205 04 0 00 170555 		MOVSI	AC-1,170555	;SETUP BR
  3469	033345	174 05 0 00 000004 		FDVR	AC,AC-1		;C(AC)/C(E)
  3470	033346	312 05 0 00 000003 		CAME	AC,AC-2		;TEST QUOT
  3471	033347	003 05 0 00 011301 		ER3	AC,11301	;FDVR FAILED
  3472	033350	321 07 0 00 033340 		JUMPL	AC+2,P11300	;LOOP ON ERROR SWITCH
  3473
  3474					;TEST FDVR
  3475					;AR=210777777776
  3476					;BR=170555000000
  3477					;QUOT=221547063714(NOT ROUND)
  3478
  3479			000014			AC=14
  3480						SAVEAC	(1,1)^
  3481	033351	201 16 0 00 033351 		MOVEI	AC+2,.
  3482	033352	202 16 0 00 030051 		MOVEM	AC+2,TESTPC	;SETUP SUBTEST PC
  3483	033353	201 16 0 00 000016 		MOVEI	AC+2,<AC+2>&17	;INFORM ERROR ROUTINE WHICH
  3484	033354	202 16 0 00 034327 		MOVEM	AC+2,ERRLOP#	;AC IS USED FOR ITERATION^
  3485
  3486	033355	505 12 0 00 221547 	P11400:	HRLI	AC-2,221547	;SETUP AC-2
  3487	033356	541 12 0 00 063714 		HRRI	AC-2,63714	;FOR COMPARISON
  3488	033357	505 14 0 00 210777 		HRLI	AC,210777	;SETUP
  3489	033360	541 14 0 00 777776 		HRRI	AC,-2		;AC
  3490	033361	205 13 0 00 170555 		MOVSI	AC-1,170555	;SETUP BR
  3491	033362	174 14 0 00 000013 		FDVR	AC,AC-1		;C(AC)/C(E)
  3492	033363	312 14 0 00 000012 		CAME	AC,AC-2		;TEST QUOT
  3493	033364	003 14 0 00 011401 		ER3	AC,11401	;FDVR FAILED
  3494	033365	321 16 0 00 033355 		JUMPL	AC+2,P11400	;LOOP ON ERROR SWITCH
DAKCB	PDP-10 KA10 ADVANCED INSTRUCTION DIAGNOSTIC #2, VERSION 0,2 	MACRO %52(537) 12:44 21-JAN-77 PAGE 43
DAKCBM	MAC	21-JAN-77 12:33		PART IIIB-GEN TEST-FMP,FDV AND DFN                                                 SEQ 0099

  3495					;TEST FDVR
  3496					;AR=210777777777
  3497					;BR=170555600000
  3498					;QUOT=221546272703
  3499
  3500			000014			AC=14
  3501						SAVEAC (1,1)^
  3502	033366	201 16 0 00 033366 		MOVEI	AC+2,.
  3503	033367	202 16 0 00 030051 		MOVEM	AC+2,TESTPC	;SETUP SUBTEST PC
  3504	033370	201 16 0 00 000016 		MOVEI	AC+2,<AC+2>&17	;INFORM ERROR ROUTINE WHICH
  3505	033371	202 16 0 00 034327 		MOVEM	AC+2,ERRLOP#	;AC IS USED FOR ITERATION^
  3506
  3507	033372	505 12 0 00 221546 	P11500:	HRLI	AC-2,221546	;SETUP AC-2
  3508	033373	541 12 0 00 272703 		HRRI	AC-2,272703	;FOR COMPARISON
  3509	033374	505 14 0 00 210777 		HRLI	AC,210777	;SETUP
  3510	033375	541 14 0 00 777777 		HRRI	AC,-1		;AC
  3511	033376	505 13 0 00 170555 		HRLI	AC-1,170555	;SETUP
  3512	033377	541 13 0 00 600000 		HRRI	AC-1,600000	;BR
  3513	033400	174 14 0 00 000013 		FDVR	AC,AC-1		;C(AC)/C(E)
  3514	033401	312 14 0 00 000012 		CAME	AC,AC-2		;TEST QUOT
  3515	033402	003 14 0 00 011501 		ER3	AC,11501	;FDVR FAILED
  3516	033403	312 13 0 00 034153 		CAME	AC-1,[170555,,600000] ;EXAMINE C(E)
  3517	033404	005 13 0 00 011501 		ER5	AC-1,11501	;C(E) WAS CLOBBERED
  3518	033405	321 16 0 00 033372 		JUMPL	AC+2,P11500	;LOOP ON ERROR SWITCH
  3519
  3520					;TEST FDVRM
  3521					;AR=210777777777
  3522					;BR=170557000000
  3523					;QUOT=221545111741
  3524
  3525			000013			AC=13
  3526						SAVEAC (1,1)^
  3527	033406	201 15 0 00 033406 		MOVEI	AC+2,.
  3528	033407	202 15 0 00 030051 		MOVEM	AC+2,TESTPC	;SETUP SUBTEST PC
  3529	033410	201 15 0 00 000015 		MOVEI	AC+2,<AC+2>&17	;INFORM ERROR ROUTINE WHICH
  3530	033411	202 15 0 00 034327 		MOVEM	AC+2,ERRLOP#	;AC IS USED FOR ITERATION^
  3531
  3532	033412	505 11 0 00 221545 	P11600:	HRLI	AC-2,221545	;SETUP AC-2
  3533	033413	541 11 0 00 111741 		HRRI	AC-2,111741	;FOR COMPARISON
  3534	033414	505 13 0 00 210777 		HRLI	AC,210777	;SETUP
  3535	033415	541 13 0 00 777777 		HRRI	AC,-1		;AC
  3536	033416	205 12 0 00 170557 		MOVSI	AC-1,170557	;SETUP BR
  3537	033417	176 13 0 00 000012 		FDVRM	AC,AC-1		;C(AC)/C(E)
  3538	033420	312 12 0 00 000011 		CAME	AC-1,AC-2	;TEST QUOT
  3539	033421	005 12 0 00 011601 		ER5	AC-1,11601	;FDVRM FAILED
  3540	033422	321 15 0 00 033412 		JUMPL	AC+2,P11600	;LOOP ON ERROR SWITCH
DAKCB	PDP-10 KA10 ADVANCED INSTRUCTION DIAGNOSTIC #2, VERSION 0,2 	MACRO %52(537) 12:44 21-JAN-77 PAGE 44
DAKCBM	MAC	21-JAN-77 12:33		PART IIIB-GEN TEST-FMP,FDV AND DFN                                                 SEQ 0100

  3541					;TEST FDVRM
  3542					;AR=210777777777
  3543					;BR=170560000000
  3544					;QUOT=221544131026
  3545
  3546			000012			AC=12
  3547						SAVEAC (1,1)^
  3548	033423	201 14 0 00 033423 		MOVEI	AC+2,.
  3549	033424	202 14 0 00 030051 		MOVEM	AC+2,TESTPC	;SETUP SUBTEST PC
  3550	033425	201 14 0 00 000014 		MOVEI	AC+2,<AC+2>&17	;INFORM ERROR ROUTINE WHICH
  3551	033426	202 14 0 00 034327 		MOVEM	AC+2,ERRLOP#	;AC IS USED FOR ITERATION^
  3552
  3553	033427	505 10 0 00 221544 	P11700:	HRLI	AC-2,221544	;SETUP AC-2
  3554	033430	541 10 0 00 131026 		HRRI	AC-2,131026	;FOR COMPARISON
  3555	033431	505 12 0 00 210777 		HRLI	AC,210777	;SETUP
  3556	033432	541 12 0 00 777777 		HRRI	AC,-1		;AC
  3557	033433	205 11 0 00 170560 		MOVSI	AC-1,170560	;SETUP BR
  3558	033434	176 12 0 00 000011 		FDVRM	AC,AC-1		;C(AC)/C(E)
  3559	033435	312 12 0 00 034151 		CAME	AC,[210777,,-1]	;EXAMINE C(AC)
  3560	033436	003 12 0 00 011701 		ER3	AC,11701	;C(AC) WAS CLOBBERED
  3561	033437	312 11 0 00 000010 		CAME	AC-1,AC-2	;TEST QUOT
  3562	033440	005 11 0 00 011701 		ER5	AC-1,11701	;FDVRM FAILED
  3563	033441	321 14 0 00 033427 		JUMPL	AC+2,P11700	;LOOP ON ERROR SWITCH
  3564
  3565					;TEST FDVRB
  3566					;AR=377400000000
  3567					;BR=100777000000
  3568					;QUOT=077400400401
  3569
  3570			000011			AC=11
  3571						SAVEAC (1,1)^
  3572	033442	201 13 0 00 033442 		MOVEI	AC+2,.
  3573	033443	202 13 0 00 030051 		MOVEM	AC+2,TESTPC	;SETUP SUBTEST PC
  3574	033444	201 13 0 00 000013 		MOVEI	AC+2,<AC+2>&17	;INFORM ERROR ROUTINE WHICH
  3575	033445	202 13 0 00 034327 		MOVEM	AC+2,ERRLOP#	;AC IS USED FOR ITERATION^
  3576
  3577	033446	505 07 0 00 077400 	P12000:	HRLI	AC-2,77400	;SETUP AC-2
  3578	033447	541 07 0 00 400401 		HRRI	AC-2,400401	;FOR COMPARISON
  3579	033450	205 11 0 00 377400 		MOVSI	AC,377400	;SETUP AC
  3580	033451	205 10 0 00 100777 		MOVSI	AC-1,100777	;SETUP BR
  3581	033452	177 11 0 00 000010 		FDVRB	AC,AC-1		;C(AC(/C(E)
  3582	033453	316 11 0 00 000007 		CAMN	AC,AC-2		;TEST QUOT(AC)
  3583	033454	312 10 0 00 000007 		CAME	AC-1,AC-2	;TEST QUOT(E)
  3584	033455	005 10 0 00 012001 		ER5	AC-1,12001	;FDVRB FAILED
  3585	033456	321 13 0 00 033446 		JUMPL	AC+2,P12000	;LOOP ON ERROR SWITCH
DAKCB	PDP-10 KA10 ADVANCED INSTRUCTION DIAGNOSTIC #2, VERSION 0,2 	MACRO %52(537) 12:44 21-JAN-77 PAGE 45
DAKCBM	MAC	21-JAN-77 12:33		PART IIIB-GEN TEST-FMP,FDV AND DFN                                                 SEQ 0101

  3586					;TEST FDVRB
  3587					;AR=376.4,375.4,374.4,373.4,372.4
  3588					;BR=100777000000
  3589					;QUOT=076,075,074,073,072:400400401
  3590
  3591			000010			AC=10
  3592						SAVEAC	(1,1)^
  3593	033457	201 12 0 00 033457 		MOVEI	AC+2,.
  3594	033460	202 12 0 00 030051 		MOVEM	AC+2,TESTPC	;SETUP SUBTEST PC
  3595	033461	201 12 0 00 000012 		MOVEI	AC+2,<AC+2>&17	;INFORM ERROR ROUTINE WHICH
  3596	033462	202 12 0 00 034327 		MOVEM	AC+2,ERRLOP#	;AC IS USED FOR ITERATION^
  3597
  3598			012100		SN=12100
  3599			077400			XX=77400
  3600			377400			ZZ=377400
  3601
  3602							;TEST FDVRB
  3603					P12100:	REPEAT ^D5,<
  3604					SN=SN+1
  3605						XX=XX-1000
  3606						ZZ=ZZ-1000
  3607						HRLI	AC-2,XX		;SETUP AC-2
  3608						HRRI	AC-2,400401	;FOR COMPARISON
  3609						MOVSI	AC,ZZ		;SETUP AC
  3610						MOVSI	AC-1,100777	;SETUP BR
  3611						FDVRB	AC,AC-1		;C(AC)/C(E)
  3612						CAME	AC,AC-2		;TEST QUOT(AC)
  3613						ER3	AC,SN		;C(AC) FAILED
  3614						CAME	AC-1,AC-2	;TEST QUOT(E)
  3615						ER5	AC-1,SN		;FDVRB FAILED
  3616						JUMPL	AC+2,.-^D9	;LOOP ON ERROR SWITCH
  3617					>
  3618
  3619			012101		SN=SN+1
  3620			076400			XX=XX-1000
  3621			376400			ZZ=ZZ-1000
  3622	033463	505 06 0 00 076400 		HRLI	AC-2,XX		;SETUP AC-2
  3623	033464	541 06 0 00 400401 		HRRI	AC-2,400401	;FOR COMPARISON
  3624	033465	205 10 0 00 376400 		MOVSI	AC,ZZ		;SETUP AC
  3625	033466	205 07 0 00 100777 		MOVSI	AC-1,100777	;SETUP BR
  3626	033467	177 10 0 00 000007 		FDVRB	AC,AC-1		;C(AC)/C(E)
  3627	033470	312 10 0 00 000006 		CAME	AC,AC-2		;TEST QUOT(AC)
  3628	033471	003 10 0 00 012101 		ER3	AC,SN		;C(AC) FAILED
  3629	033472	312 07 0 00 000006 		CAME	AC-1,AC-2	;TEST QUOT(E)
  3630	033473	005 07 0 00 012101 		ER5	AC-1,SN		;FDVRB FAILED
  3631	033474	321 12 0 00 033463 		JUMPL	AC+2,.-^D9	;LOOP ON ERROR SWITCH
  3632
  3633
  3634			012102		SN=SN+1
  3635			075400			XX=XX-1000
  3636			375400			ZZ=ZZ-1000
  3637	033475	505 06 0 00 075400 		HRLI	AC-2,XX		;SETUP AC-2
  3638	033476	541 06 0 00 400401 		HRRI	AC-2,400401	;FOR COMPARISON
  3639	033477	205 10 0 00 375400 		MOVSI	AC,ZZ		;SETUP AC
  3640	033500	205 07 0 00 100777 		MOVSI	AC-1,100777	;SETUP BR
DAKCB	PDP-10 KA10 ADVANCED INSTRUCTION DIAGNOSTIC #2, VERSION 0,2 	MACRO %52(537) 12:44 21-JAN-77 PAGE 45-1
DAKCBM	MAC	21-JAN-77 12:33		PART IIIB-GEN TEST-FMP,FDV AND DFN                                                 SEQ 0102

  3641	033501	177 10 0 00 000007 		FDVRB	AC,AC-1		;C(AC)/C(E)
  3642	033502	312 10 0 00 000006 		CAME	AC,AC-2		;TEST QUOT(AC)
  3643	033503	003 10 0 00 012102 		ER3	AC,SN		;C(AC) FAILED
  3644	033504	312 07 0 00 000006 		CAME	AC-1,AC-2	;TEST QUOT(E)
  3645	033505	005 07 0 00 012102 		ER5	AC-1,SN		;FDVRB FAILED
  3646	033506	321 12 0 00 033475 		JUMPL	AC+2,.-^D9	;LOOP ON ERROR SWITCH
  3647
  3648
  3649			012103		SN=SN+1
  3650			074400			XX=XX-1000
  3651			374400			ZZ=ZZ-1000
  3652	033507	505 06 0 00 074400 		HRLI	AC-2,XX		;SETUP AC-2
  3653	033510	541 06 0 00 400401 		HRRI	AC-2,400401	;FOR COMPARISON
  3654	033511	205 10 0 00 374400 		MOVSI	AC,ZZ		;SETUP AC
  3655	033512	205 07 0 00 100777 		MOVSI	AC-1,100777	;SETUP BR
  3656	033513	177 10 0 00 000007 		FDVRB	AC,AC-1		;C(AC)/C(E)
  3657	033514	312 10 0 00 000006 		CAME	AC,AC-2		;TEST QUOT(AC)
  3658	033515	003 10 0 00 012103 		ER3	AC,SN		;C(AC) FAILED
  3659	033516	312 07 0 00 000006 		CAME	AC-1,AC-2	;TEST QUOT(E)
  3660	033517	005 07 0 00 012103 		ER5	AC-1,SN		;FDVRB FAILED
  3661	033520	321 12 0 00 033507 		JUMPL	AC+2,.-^D9	;LOOP ON ERROR SWITCH
  3662
  3663
  3664			012104		SN=SN+1
  3665			073400			XX=XX-1000
  3666			373400			ZZ=ZZ-1000
  3667	033521	505 06 0 00 073400 		HRLI	AC-2,XX		;SETUP AC-2
  3668	033522	541 06 0 00 400401 		HRRI	AC-2,400401	;FOR COMPARISON
  3669	033523	205 10 0 00 373400 		MOVSI	AC,ZZ		;SETUP AC
  3670	033524	205 07 0 00 100777 		MOVSI	AC-1,100777	;SETUP BR
  3671	033525	177 10 0 00 000007 		FDVRB	AC,AC-1		;C(AC)/C(E)
  3672	033526	312 10 0 00 000006 		CAME	AC,AC-2		;TEST QUOT(AC)
  3673	033527	003 10 0 00 012104 		ER3	AC,SN		;C(AC) FAILED
  3674	033530	312 07 0 00 000006 		CAME	AC-1,AC-2	;TEST QUOT(E)
  3675	033531	005 07 0 00 012104 		ER5	AC-1,SN		;FDVRB FAILED
  3676	033532	321 12 0 00 033521 		JUMPL	AC+2,.-^D9	;LOOP ON ERROR SWITCH
  3677
  3678
  3679			012105		SN=SN+1
  3680			072400			XX=XX-1000
  3681			372400			ZZ=ZZ-1000
  3682	033533	505 06 0 00 072400 		HRLI	AC-2,XX		;SETUP AC-2
  3683	033534	541 06 0 00 400401 		HRRI	AC-2,400401	;FOR COMPARISON
  3684	033535	205 10 0 00 372400 		MOVSI	AC,ZZ		;SETUP AC
  3685	033536	205 07 0 00 100777 		MOVSI	AC-1,100777	;SETUP BR
  3686	033537	177 10 0 00 000007 		FDVRB	AC,AC-1		;C(AC)/C(E)
  3687	033540	312 10 0 00 000006 		CAME	AC,AC-2		;TEST QUOT(AC)
  3688	033541	003 10 0 00 012105 		ER3	AC,SN		;C(AC) FAILED
  3689	033542	312 07 0 00 000006 		CAME	AC-1,AC-2	;TEST QUOT(E)
  3690	033543	005 07 0 00 012105 		ER5	AC-1,SN		;FDVRB FAILED
  3691	033544	321 12 0 00 033533 		JUMPL	AC+2,.-^D9	;LOOP ON ERROR SWITCH
  3692
DAKCB	PDP-10 KA10 ADVANCED INSTRUCTION DIAGNOSTIC #2, VERSION 0,2 	MACRO %52(537) 12:44 21-JAN-77 PAGE 46
DAKCBM	MAC	21-JAN-77 12:33		PART IIIB-GEN TEST-FMP,FDV AND DFN                                                 SEQ 0103

  3693					;TEST FDVRI
  3694					;AR=210777000000
  3695					;E=210777
  3696					;QUOT=201400000000
  3697
  3698			000007			AC=7
  3699						SAVEAC (1,1)^
  3700	033545	201 11 0 00 033545 		MOVEI	AC+2,.
  3701	033546	202 11 0 00 030051 		MOVEM	AC+2,TESTPC	;SETUP SUBTEST PC
  3702	033547	201 11 0 00 000011 		MOVEI	AC+2,<AC+2>&17	;INFORM ERROR ROUTINE WHICH
  3703	033550	202 11 0 00 034327 		MOVEM	AC+2,ERRLOP#	;AC IS USED FOR ITERATION^
  3704
  3705	033551	205 05 0 00 201400 	P12200:	MOVSI	AC-2,201400	;SETUP FOR COMPARISON
  3706	033552	205 07 0 00 210777 		MOVSI	AC,210777	;SETUP AC
  3707	033553	175 07 0 00 210777 		FDVRI	AC,210777	;C(AC)/E
  3708	033554	312 07 0 00 000005 		CAME	AC,AC-2		;TEST QUOT
  3709	033555	003 07 0 00 012201 		ER3	AC,12201	;FDVRI FAILED
  3710	033556	321 11 0 00 033551 		JUMPL	AC+2,P12200	;LOOP ON ERROR SWITCH
  3711
  3712					;TEST FDVRI
  3713					;AR=200400000000
  3714					;E=210777
  3715					;QUOT=170400400401
  3716
  3717			000006			AC=6
  3718						SAVEAC (1,1)^
  3719	033557	201 10 0 00 033557 		MOVEI	AC+2,.
  3720	033560	202 10 0 00 030051 		MOVEM	AC+2,TESTPC	;SETUP SUBTEST PC
  3721	033561	201 10 0 00 000010 		MOVEI	AC+2,<AC+2>&17	;INFORM ERROR ROUTINE WHICH
  3722	033562	202 10 0 00 034327 		MOVEM	AC+2,ERRLOP#	;AC IS USED FOR ITERATION^
  3723
  3724	033563	505 04 0 00 170400 	P12300:	HRLI	AC-2,170400	;SETUP AC-2
  3725	033564	541 04 0 00 400401 		HRRI	AC-2,400401	;FOR COMPARISON
  3726	033565	205 06 0 00 200400 		MOVSI	AC,200400	;SETUP AC
  3727	033566	175 06 0 00 210777 		FDVRI	AC,210777	;C(AC)/E
  3728	033567	312 06 0 00 000004 		CAME	AC,AC-2		;TEST QUOT
  3729	033570	003 06 0 00 012301 		ER3	AC,12301	;FDVRI FAILED
  3730	033571	321 10 0 00 033563 		JUMPL	AC+2,P12300	;LOOP ON ERROR SWITCH
DAKCB	PDP-10 KA10 ADVANCED INSTRUCTION DIAGNOSTIC #2, VERSION 0,2 	MACRO %52(537) 12:44 21-JAN-77 PAGE 47
DAKCBM	MAC	21-JAN-77 12:33		PART IIIB-GEN TEST-FMP,FDV AND DFN                                                 SEQ 0104

  3731					;TEST FDVRI
  3732					;AR=371.4,370.4,367.4
  3733					;E=100777
  3734					;QUOT=071,070,067:400400401
  3735
  3736			000005			AC=5
  3737						SAVEAC	(1,1)^
  3738	033572	201 07 0 00 033572 		MOVEI	AC+2,.
  3739	033573	202 07 0 00 030051 		MOVEM	AC+2,TESTPC	;SETUP SUBTEST PC
  3740	033574	201 07 0 00 000007 		MOVEI	AC+2,<AC+2>&17	;INFORM ERROR ROUTINE WHICH
  3741	033575	202 07 0 00 034327 		MOVEM	AC+2,ERRLOP#	;AC IS USED FOR ITERATION^
  3742
  3743			012400		SN=12400
  3744			072400			XX=72400
  3745			372400			ZZ=372400
  3746
  3747							;TEST FDVRI
  3748					P12400:	REPEAT ^D3,<
  3749					SN=SN+1
  3750						XX=XX-1000
  3751						ZZ=ZZ-1000
  3752						HRLI	AC-2,XX		;SETUP AC-2
  3753						HRRI	AC-2,400401	;FOR COMPARISON
  3754						MOVSI	AC,ZZ		;SETUP AC
  3755						FDVRI	AC,100777	;C(AC)/E
  3756						CAME	AC,AC-2		;TEST QUOT
  3757						ER3	AC,SN		;FDVRI FAILED
  3758						JUMPL	AC+2,.-6	;LOOP ON ERROR SWITCH
  3759					>
  3760
  3761			012401		SN=SN+1
  3762			071400			XX=XX-1000
  3763			371400			ZZ=ZZ-1000
  3764	033576	505 03 0 00 071400 		HRLI	AC-2,XX		;SETUP AC-2
  3765	033577	541 03 0 00 400401 		HRRI	AC-2,400401	;FOR COMPARISON
  3766	033600	205 05 0 00 371400 		MOVSI	AC,ZZ		;SETUP AC
  3767	033601	175 05 0 00 100777 		FDVRI	AC,100777	;C(AC)/E
  3768	033602	312 05 0 00 000003 		CAME	AC,AC-2		;TEST QUOT
  3769	033603	003 05 0 00 012401 		ER3	AC,SN		;FDVRI FAILED
  3770	033604	321 07 0 00 033576 		JUMPL	AC+2,.-6	;LOOP ON ERROR SWITCH
  3771
  3772
  3773			012402		SN=SN+1
  3774			070400			XX=XX-1000
  3775			370400			ZZ=ZZ-1000
  3776	033605	505 03 0 00 070400 		HRLI	AC-2,XX		;SETUP AC-2
  3777	033606	541 03 0 00 400401 		HRRI	AC-2,400401	;FOR COMPARISON
  3778	033607	205 05 0 00 370400 		MOVSI	AC,ZZ		;SETUP AC
  3779	033610	175 05 0 00 100777 		FDVRI	AC,100777	;C(AC)/E
  3780	033611	312 05 0 00 000003 		CAME	AC,AC-2		;TEST QUOT
  3781	033612	003 05 0 00 012402 		ER3	AC,SN		;FDVRI FAILED
  3782	033613	321 07 0 00 033605 		JUMPL	AC+2,.-6	;LOOP ON ERROR SWITCH
  3783
  3784
  3785			012403		SN=SN+1
DAKCB	PDP-10 KA10 ADVANCED INSTRUCTION DIAGNOSTIC #2, VERSION 0,2 	MACRO %52(537) 12:44 21-JAN-77 PAGE 47-1
DAKCBM	MAC	21-JAN-77 12:33		PART IIIB-GEN TEST-FMP,FDV AND DFN                                                 SEQ 0105

  3786			067400			XX=XX-1000
  3787			367400			ZZ=ZZ-1000
  3788	033614	505 03 0 00 067400 		HRLI	AC-2,XX		;SETUP AC-2
  3789	033615	541 03 0 00 400401 		HRRI	AC-2,400401	;FOR COMPARISON
  3790	033616	205 05 0 00 367400 		MOVSI	AC,ZZ		;SETUP AC
  3791	033617	175 05 0 00 100777 		FDVRI	AC,100777	;C(AC)/E
  3792	033620	312 05 0 00 000003 		CAME	AC,AC-2		;TEST QUOT
  3793	033621	003 05 0 00 012403 		ER3	AC,SN		;FDVRI FAILED
  3794	033622	321 07 0 00 033614 		JUMPL	AC+2,.-6	;LOOP ON ERROR SWITCH
  3795
DAKCB	PDP-10 KA10 ADVANCED INSTRUCTION DIAGNOSTIC #2, VERSION 0,2 	MACRO %52(537) 12:44 21-JAN-77 PAGE 48
DAKCBM	MAC	21-JAN-77 12:33		PART IIIB-GEN TEST-FMP,FDV AND DFN                                                 SEQ 0106

  3796					;TEST DFN
  3797					;AR=076400400401
  3798					;BR=343001000000
  3799					;HIGH ORDER=701377377376
  3800					;LOW ORDER=343777000000
  3801
  3802			000014			AC=14
  3803						SAVEAC (1,1)^
  3804	033623	201 16 0 00 033623 		MOVEI	AC+2,.
  3805	033624	202 16 0 00 030051 		MOVEM	AC+2,TESTPC	;SETUP SUBTEST PC
  3806	033625	201 16 0 00 000016 		MOVEI	AC+2,<AC+2>&17	;INFORM ERROR ROUTINE WHICH
  3807	033626	202 16 0 00 034327 		MOVEM	AC+2,ERRLOP#	;AC IS USED FOR ITERATION^
  3808
  3809	033627	505 12 0 00 701377 	P12500:	HRLI	AC-2,701377	;SETUP AC-2
  3810	033630	541 12 0 00 377376 		HRRI	AC-2,377376	;FOR COMPARISON
  3811	033631	505 14 0 00 076400 		HRLI	AC,76400	;SETUP
  3812	033632	541 14 0 00 400401 		HRRI	AC,400401	;AC
  3813	033633	205 15 0 00 343001 		MOVSI	AC+1,343001	;SETUP BR
  3814	033634	131 14 0 00 000015 		DFN	AC,AC+1		;NEGATE
  3815	033635	312 14 0 00 000012 		CAME	AC,AC-2		;TEST HIGH ORDER
  3816	033636	003 14 0 00 012501 		ER3	AC,12501	;HIGH ORDER ERROR
  3817	033637	205 12 0 00 343777 		MOVSI	AC-2,343777	;SETUP FOR COMPARISON
  3818	033640	312 15 0 00 000012 		CAME	AC+1,AC-2	;TEST LOW ORDER
  3819	033641	004 15 0 00 012501 		ER4	AC+1,12501	;LOW ORDER ERROR
  3820	033642	321 16 0 00 033627 		JUMPL	AC+2,P12500	;LOOP ON ERROR SWITCH
  3821
  3822					;TEST DFN
  3823					;AR=075400400400
  3824					;BR=342401000000
  3825					;HIGH ORDER=702377377377
  3826					;LOW ORDER=342377000000
  3827
  3828			000014			AC=14
  3829						SAVEAC (1,1)^
  3830	033643	201 16 0 00 033643 		MOVEI	AC+2,.
  3831	033644	202 16 0 00 030051 		MOVEM	AC+2,TESTPC	;SETUP SUBTEST PC
  3832	033645	201 16 0 00 000016 		MOVEI	AC+2,<AC+2>&17	;INFORM ERROR ROUTINE WHICH
  3833	033646	202 16 0 00 034327 		MOVEM	AC+2,ERRLOP#	;AC IS USED FOR ITERATION^
  3834
  3835	033647	505 12 0 00 702377 	P12600:	HRLI	AC-2,702377	;SETUP AC-2
  3836	033650	541 12 0 00 377377 		HRRI	AC-2,377377	;FOR COMPARISON
  3837	033651	505 14 0 00 075400 		HRLI	AC,75400	;SETUP
  3838	033652	541 14 0 00 400400 		HRRI	AC,400400	;AC
  3839	033653	205 15 0 00 342401 		MOVSI	AC+1,342401	;SETUP BR
  3840	033654	131 14 0 00 000015 		DFN	AC,AC+1		;NEGATE
  3841	033655	312 14 0 00 000012 		CAME	AC,AC-2		;TEST HIGH ORDER
  3842	033656	003 14 0 00 012601 		ER3	AC,12601	;HIGH ORDER ERROR
  3843	033657	205 12 0 00 342377 		MOVSI	AC-2,342377	;SETUP FOR COMPARISON
  3844	033660	312 15 0 00 000012 		CAME	AC+1,AC-2	;TEST LOW ORDER
  3845	033661	004 15 0 00 012601 		ER4	AC+1,12601	;LOW ORDER ERROR
  3846	033662	321 16 0 00 033647 		JUMPL	AC+2,P12600	;LOOP ON ERROR SWITCH
DAKCB	PDP-10 KA10 ADVANCED INSTRUCTION DIAGNOSTIC #2, VERSION 0,2 	MACRO %52(537) 12:44 21-JAN-77 PAGE 49
DAKCBM	MAC	21-JAN-77 12:33		PART IIIB-GEN TEST-FMP,FDV AND DFN                                                 SEQ 0107

  3847					;TEST DFN
  3848					;AR=177400777777
  3849					;BR=177400777777
  3850					;HIGH ORDER=600377000000
  3851					;LOW ORDER=177377000001
  3852
  3853			000013			AC=13
  3854						SAVEAC (1,1)^
  3855	033663	201 15 0 00 033663 		MOVEI	AC+2,.
  3856	033664	202 15 0 00 030051 		MOVEM	AC+2,TESTPC	;SETUP SUBTEST PC
  3857	033665	201 15 0 00 000015 		MOVEI	AC+2,<AC+2>&17	;INFORM ERROR ROUTINE WHICH
  3858	033666	202 15 0 00 034327 		MOVEM	AC+2,ERRLOP#	;AC IS USED FOR ITERATION^
  3859
  3860	033667	205 11 0 00 600377 	P12700:	MOVSI	AC-2,600377	;SETUP FOR COMPARISON
  3861	033670	505 13 0 00 177400 		HRLI	AC,177400	;SETUP
  3862	033671	541 13 0 00 777777 		HRRI	AC,-1		;AC
  3863	033672	202 13 0 00 000014 		MOVEM	AC,AC+1		;SETUP BR
  3864	033673	131 13 0 00 000014 		DFN	AC,AC+1		;NEGATE
  3865	033674	312 13 0 00 000011 		CAME	AC,AC-2		;TEST HIGH ORDER
  3866	033675	003 13 0 00 012701 		ER3	AC,12701	;HIGH ORDER ERROR
  3867	033676	205 11 0 00 177377 		MOVSI	AC-2,177377	;SETUP AC-2
  3868	033677	340 11 0 00 000000 		AOJ	AC-2,		;FOR COMPARISON
  3869	033700	312 14 0 00 000011 		CAME	AC+1,AC-2	;TEST LOW ORDER
  3870	033701	004 14 0 00 012701 		ER4	AC+1,12701	;LOW ORDER ERROR
  3871	033702	321 15 0 00 033667 		JUMPL	AC+2,P12700	;LOOP ON ERROR SWITCH
  3872
  3873					;TEST DFN
  3874					;AR=376400000000
  3875					;BR=401377000000
  3876					;HIGH ORDER=401377777777
  3877					;LOW ORDER=401401000000
  3878
  3879			000012			AC=12
  3880						SAVEAC (1,1)^
  3881	033703	201 14 0 00 033703 		MOVEI	AC+2,.
  3882	033704	202 14 0 00 030051 		MOVEM	AC+2,TESTPC	;SETUP SUBTEST PC
  3883	033705	201 14 0 00 000014 		MOVEI	AC+2,<AC+2>&17	;INFORM ERROR ROUTINE WHICH
  3884	033706	202 14 0 00 034327 		MOVEM	AC+2,ERRLOP#	;AC IS USED FOR ITERATION^
  3885
  3886	033707	505 10 0 00 401377 	P13000:	HRLI	AC-2,401377	;SETUP AC-2
  3887	033710	541 10 0 00 777777 		HRRI	AC-2,-1		;FOR COMPARISON
  3888	033711	205 12 0 00 376400 		MOVSI	AC,376400	;SETUP AC
  3889	033712	205 13 0 00 401377 		MOVSI	AC+1,401377	;SETUP BR
  3890	033713	131 12 0 00 000013 		DFN	AC,AC+1		;NEGATE
  3891	033714	312 12 0 00 000010 		CAME	AC,AC-2		;TEST HIGH ORDER
  3892	033715	003 12 0 00 013001 		ER3	AC,13001	;HIGH ORDER ERROR
  3893	033716	205 10 0 00 401401 		MOVSI	AC-2,401401	;SETUP FOR COMPARISON
  3894	033717	312 13 0 00 000010 		CAME	AC+1,AC-2	;TEST LOW ORDER
  3895	033720	004 13 0 00 013001 		ER4	AC+1,13001	;LOW ORDER ERROR
  3896	033721	321 14 0 00 033446 		JUMPL	AC+2,P12000	;LOOP ON ERROR SWITCH
DAKCB	PDP-10 KA10 ADVANCED INSTRUCTION DIAGNOSTIC #2, VERSION 0,2 	MACRO %52(537) 12:44 21-JAN-77 PAGE 50
DAKCBM	MAC	21-JAN-77 12:33		PART IIIB-GEN TEST-FMP,FDV AND DFN                                                 SEQ 0108

  3897					;TEST DFN
  3898					;AR=371400000000
  3899					;BR=401372000000
  3900					;HIGH ORDER=406377777777
  3901					;LOW ORDER=401406000000
  3902
  3903
  3904			000011			AC=11
  3905						SAVEAC (1,1)^
  3906	033722	201 13 0 00 033722 		MOVEI	AC+2,.
  3907	033723	202 13 0 00 030051 		MOVEM	AC+2,TESTPC	;SETUP SUBTEST PC
  3908	033724	201 13 0 00 000013 		MOVEI	AC+2,<AC+2>&17	;INFORM ERROR ROUTINE WHICH
  3909	033725	202 13 0 00 034327 		MOVEM	AC+2,ERRLOP#	;AC IS USED FOR ITERATION^
  3910
  3911	033726	505 07 0 00 406377 	P13100:	HRLI	AC-2,406377	;SETUP AC-2
  3912	033727	541 07 0 00 777777 		HRRI	AC-2,-1		;FPR COMPARISON
  3913	033730	205 11 0 00 371400 		MOVSI	AC,371400	;SETUP AC
  3914	033731	205 12 0 00 401372 		MOVSI	AC+1,401372	;SETUP BR
  3915	033732	131 11 0 00 000012 		DFN	AC,AC+1		;NEGATE
  3916	033733	312 11 0 00 000007 		CAME	AC,AC-2		;TEST HIGH ORDER
  3917	033734	003 11 0 00 013101 		ER3	AC,13101	;HIGH ORDER ERROR
  3918	033735	205 07 0 00 401406 		MOVSI	AC-2,401406	;SETUP FOR COMPARISON
  3919	033736	312 12 0 00 000007 		CAME	AC+1,AC-2	;TEST LOW ORDER
  3920	033737	004 12 0 00 013101 		ER4	AC+1,13101	;LOW ORDER ERROR
  3921	033740	321 13 0 00 033726 		JUMPL	AC+2,P13100	;LOOP ON ERROR SWITCH
  3922
  3923	033741	254 00 0 00 030057 		JRST	BEGEND		;REPEAT DIAGNOSTIC
DAKCB	PDP-10 KA10 ADVANCED INSTRUCTION DIAGNOSTIC #2, VERSION 0,2 	MACRO %52(537) 12:44 21-JAN-77 PAGE 1
UUOERR	KLM	22-APR-75 01:42		*UUOERR* OLD-UUO ERROR HANDLER SUBROUTINE, V75B, APR 22,1975                       SEQ 0109

  3924					SUBTTL	*UUOERR* OLD-UUO ERROR HANDLER SUBROUTINE, V75B, APR 22,1975
  3925
  3926					;THIS SUBROUTINE PROVIDES ERROR REPORTING THRU THE USE OF UUO'S.
  3927
  3928	033742	202 00 0 00 034333 	ERRMES:	MOVEM	0,%ERAC0#	;SAVE AC0
  3929						IFDEF	EXCASB,<IFDEF	KI10,<
  3930						SKIPN	KAIFLG
  3931						JRST	.+5
  3932						SKIPE	USER		;USER MODE ?
  3933						JRST	.+3
  3934						SKIPE	MARGIN
  3935						DATAO	APR,[IMGNOF,,ISPDOF] ;CLR MARGINS >>
  3936	033743	202 01 0 00 034334 		MOVEM	1,%ERAC1#	;SAVE AC1
  3937	033744	202 02 0 00 034335 		MOVEM	2,%ERAC2#	;SAVE AC2
  3938	033745	350 00 0 00 030053 		AOS	ERRTLS		;INCREMENT ERROR TOTALS
  3939	033746	550 00 0 00 030114 		HRRZ	0,$SVUPC	;GET PC OF UUO
  3940	033747	316 00 0 00 030052 		CAMN	0,ERRPC		;PC = PC OF LAST ERROR ?
  3941	033750	350 00 0 00 034330 		AOS	MICNT#		;YES, ADD 1 TO ERROR COUNT
  3942	033751	200 00 0 00 034330 		MOVE	0,MICNT
  3943	033752	504 00 0 00 030114 		HRL	0,$SVUPC
  3944	033753	336 00 0 00 030041 		SKIPN	KLFLG		;NOT KL10
  3945	033754	332 00 0 00 030037 		SKIPE	USER		;AND NOT USER?
  3946	033755	254 00 0 00 033757 		JRST	.+2
  3947	033756	7 004 14 0 00 000000 		DATAO	PI,0		;YES, DISPLAY ERROR PC,ERROR COUNT
  3948	033757	402 00 0 00 034331 		SETZM	PROCED#		;CLEAR PROCEED FLAG
  3949	033760	037 10 0 00 000002 		SWITCH
  3950	033761	603 00 0 00 040000 		TLNE	NOPNT		;PRINTOUT ?
  3951	033762	254 00 0 00 034075 		JRST	%ERRS1		;NO, RESTORE AC'S AND RETURN
  3952	033763	200 01 0 00 030113 		MOVE	1,$SVUUO
  3953	033764	242 01 0 00 777745 		LSH	1,-^D27
  3954	033765	202 01 0 00 034332 		MOVEM	1,%ACS1A#	;SAVE UUO NUMBER
  3955	033766	200 00 0 00 034333 		MOVE	0,%ERAC0
  3956	033767	200 01 0 00 034334 		MOVE	1,%ERAC1
  3957	033770	335 00 1 00 034327 		SKIPGE	@ERRLOP		;ERR LOOP AC > OR = 0 ?
  3958	033771	254 00 0 00 034127 		JRST	%ERRS4		;NO, SEE IF PRINT ALL
  3959	033772	402 00 0 00 034330 	%ERMS1:	SETZM	MICNT		;CLEAR ERROR COUNT
  3960	033773	331 00 0 00 030043 		SKIPL	MONCTL		;DIAG MON OR SYS EXER ?
  3961	033774	254 00 0 00 034000 		JRST	.+4		;NO, DON'T NEED TITLE
  3962	033775	336 00 0 00 034336 		SKIPN	%ERFST#		;FIRST ERROR ?
  3963	033776	037 04 0 00 000002 		PNTNM			;YES, PRINT PROGRAM TITLE
  3964	033777	476 00 0 00 034336 		SETOM	%ERFST
  3965	034000	336 00 0 00 030047 		SKIPN	PASCNT		;FIRST PASS ?
  3966	034001	254 00 0 00 034005 		JRST	.+4		;YES
  3967						PMSG	<^TEST PASS COUNT = >^
  3968	034002	037 02 0 00 034154 		PSIXM	[SIXBIT\^TEST PASS COUNT = _\]^
  3969	034003	200 00 0 00 030047 		MOVE	PASCNT
  3970	034004	037 15 0 00 000000 		PNTDEC
  3971						PMSG	<^PC =   >^
  3972	034005	037 02 0 00 034160 		PSIXM	[SIXBIT\^PC =   _\]^
  3973	034006	550 00 0 00 030114 		HRRZ	0,$SVUPC	;GET PC OF UUO
  3974	034007	202 00 0 00 030052 		MOVEM	0,ERRPC		;SAVE FOR COMPARE
  3975	034010	037 06 0 00 000000 		PNT6			;PRINT UUO ADDRESS
  3976						XLIST
  3977						IFDEF	ERDIAG,<LIST
DAKCB	PDP-10 KA10 ADVANCED INSTRUCTION DIAGNOSTIC #2, VERSION 0,2 	MACRO %52(537) 12:44 21-JAN-77 PAGE 2
UUOERR	KLM	22-APR-75 01:42		*UUOERR* OLD-UUO ERROR HANDLER SUBROUTINE, V75B, APR 22,1975                       SEQ 0110

  3978					;DIAGNOSTIC FORMAT ERROR PRINTER
  3979
  3980					;PRINT RESULT
  3981
  3982	034011				%ERMS2:	PMSG	<^RESULT  = >^
  3983	034011	037 02 0 00 034162 		PSIXM	[SIXBIT\^RESULT  = _\]^
  3984	034012	200 01 0 00 030113 		MOVE	1,$SVUUO	;GET AC # OF UUO
  3985	034013	242 01 0 00 777751 		LSH	1,-27
  3986	034014	405 01 0 00 000017 		ANDI	1,17
  3987	034015	200 00 0 01 000000 		MOVE	0,(1)		;GET C(AC)
  3988	034016	307 01 0 00 000001 		CAIG	1,1		;IS AC # = TO SAVE AC ?
  3989	034017	200 00 0 01 034333 		MOVE	0,%ERAC0(1)	;YES, GET SAVED AC
  3990	034020	037 13 0 00 000000 		PNTHW			;PRINT C(AC)
  3991
  3992	034021	200 00 0 00 030046 		MOVE	CONSW
  3993	034022	603 00 0 00 000200 		TLNE	TXTINH		;PRINT FAILURE DES AND FLT NBR ?
  3994	034023	254 00 0 00 034072 		JRST	%ERMORE		;NO, RESTORE AC'S ETC.
  3995
  3996					;PRINT FAILURE DESCRIPTOR
  3997
  3998	034024	200 01 0 00 034332 		MOVE	1,%ACS1A	;GET UUO NUMBER
  3999	034025	307 01 0 00 000001 		CAIG	1,1		;PRINT DESCRIPTOR ?
  4000	034026	254 00 0 00 034032 		JRST	%ERMS3		;NO, JUST PRINT FAULT NUMBER
  4001	034027	037 00 0 00 030242 		PCRL
  4002	034030	200 00 0 01 034056 		MOVE	%FLTTB(1)
  4003	034031	037 17 0 00 000000 		PNTAL			;PRINT FAULT DESCRIPTOR
  4004
  4005					;PRINT FAULT NUMBER
  4006
  4007	034032				%ERMS3:	PMSG	<^FAULT NUMBER = >^
  4008	034032	037 02 0 00 034164 		PSIXM	[SIXBIT\^FAULT NUMBER = _\]^
  4009	034033	201 00 0 00 034055 		MOVEI	TLET
  4010	034034	037 00 0 00 000000 		PNTA			;PRINT TEST LETTER
DAKCB	PDP-10 KA10 ADVANCED INSTRUCTION DIAGNOSTIC #2, VERSION 0,2 	MACRO %52(537) 12:44 21-JAN-77 PAGE 3
UUOERR	KLM	22-APR-75 01:42		*UUOERR* OLD-UUO ERROR HANDLER SUBROUTINE, V75B, APR 22,1975                       SEQ 0111

  4011
  4012	034035	550 00 0 00 030113 		HRRZ	$SVUUO
  4013	034036	602 00 0 00 700000 		TRNE	700000
  4014	034037	254 00 0 00 034053 		JRST	%ER6X
  4015	034040	602 00 0 00 070000 		TRNE	070000
  4016	034041	254 00 0 00 034051 		JRST	%ER5X
  4017	034042	602 00 0 00 007000 		TRNE	007000
  4018	034043	254 00 0 00 034047 		JRST	%ER4X
  4019	034044	037 03 0 00 000000 		PNT3			;PRINT FAULT NUMBER
  4020	034045	037 00 0 00 030242 	%ER7X:	PCRL
  4021	034046	254 00 0 00 034072 		JRST	%ERMORE
  4022
  4023	034047	037 04 0 00 000000 	%ER4X:	PNT4
  4024	034050	254 00 0 00 034045 		JRST	%ER7X
  4025	034051	037 05 0 00 000000 	%ER5X:	PNT5
  4026	034052	254 00 0 00 034045 		JRST	%ER7X
  4027	034053	037 06 0 00 000000 	%ER6X:	PNT6
  4028	034054	254 00 0 00 034045 		JRST	%ER7X
  4029
  4030					;FAILURE DESCRIPTORS
  4031
  4032	034055	000000	000000		TLET:	0			;TEST LETTER
  4033	034056	000000	000000		%FLTTB:	0			;DESCRIPTOR TABLE
  4034	034057	000000	034167		%NODES:	[0]			;NO DESCRIPTOR
  4035	034060	000000	034167		SPDES:	[0]			;SPECIAL USER FAILURE DESCRIPTOR
  4036	034061	000000	034170		$ACF:	[ASCIZ/C(AC) FAILED/]
  4037	034062	000000	034173		%AC1F:	[ASCIZ/C(AC+1) FAILED/]
  4038	034063	000000	034176		%EF:	[ASCIZ/C(E) FAILED/]
  4039	034064	000000	034201		%E1F:	[ASCIZ/C(E+1) FAILED/]
  4040	034065	000000	034204		%ARF:	[ASCIZ/C(C(ACR)) FAILED/]
  4041	034066	000000	034210		%AR1F:	[ASCIZ/C(C(ACR+1)) FAILED/]
  4042	034067	000000	034214		%ALF:	[ASCIZ/C(C(ACL)) FAILED/]
  4043	034070	000000	034220		%EEF:	[ASCIZ/C(C(E)) FAILED/]
  4044	034071	000000	034223		%FF:	[ASCIZ/FLAG FAILED/]
  4045					>
  4046						XLIST
  4047						LIST
DAKCB	PDP-10 KA10 ADVANCED INSTRUCTION DIAGNOSTIC #2, VERSION 0,2 	MACRO %52(537) 12:44 21-JAN-77 PAGE 8
UUOERR	KLM	22-APR-75 01:42		*UUOERR* OLD-UUO ERROR HANDLER SUBROUTINE, V75B, APR 22,1975                       SEQ 0112

  4048					;RESTORE AC'S AND RETURN OR HALT
  4049
  4050	034072	256 00 0 00 030101 	%ERMORE:XCT	ERMORE
  4051	034073	037 16 0 00 000002 		PNTMGN			;PRINT MARGINS
  4052	034074	037 10 0 00 000002 		SWITCH
  4053
  4054	034075	037 07 0 00 000003 	%ERRS1:	TTALTM			;ALTMODE CHECK
  4055	034076	254 00 0 00 034102 		JRST	.+4		;NONE
  4056	034077	201 00 0 00 034102 		MOVEI	.+3		;SAVE CONT ADDRESS
  4057	034100	202 00 0 00 000130 		MOVEM	JOBOPC
  4058	034101	254 00 1 00 030063 		JRST	@ALTMGO		;PERFORM TRANSFER
  4059	034102	200 00 0 00 030046 		MOVE	CONSW
  4060	034103	603 00 0 00 002000 		TLNE	0,ERSTOP	;HALT ON ERROR SWITCH SET ?
  4061	034104	037 14 0 00 000004 		ERRHLT			;YES
  4062	034105	607 00 0 00 004000 		TLNN	0,LOOPER	;LOOP ON ERROR SWITCH SET ?
  4063	034106	476 00 0 00 034331 		SETOM	PROCED		;NO, SET THE PROCEED FLAG
  4064	034107	603 00 0 00 010000 		TLNE	0,DING		;RING BELL SWITCH SET ?
  4065	034110	037 01 0 00 000007 		PBELL			;YES, GO RING BELL
  4066
  4067	034111	200 02 0 00 034335 	%ERRS2:	MOVE	2,%ERAC2	;RESTORE AC'S
  4068	034112	200 01 0 00 034334 		MOVE	1,%ERAC1
  4069	034113	476 00 1 00 034327 		SETOM	@ERRLOP		;SET C(ERR LOOP AC) TO -1
  4070	034114	336 00 0 00 034331 		SKIPN	PROCED		;LOOP ON ERROR ?
  4071	034115	254 00 0 00 034125 		JRST	%ERRS5		;YES
  4072	034116	350 00 1 00 034327 		AOS	@ERRLOP		;NO, INC C(ERR LOOP AC)
  4073	034117	350 00 1 00 034327 		AOS	@ERRLOP		;SO IT ='S 1
  4074	034120	331 00 0 00 030043 		SKIPL	MONCTL		;UNDER DIAGNOSTIC MONITOR ?
  4075	034121	254 00 0 00 034125 		JRST	%ERRS5		;NO, CONTINUE PROGRAM
  4076	034122	200 00 0 00 030053 		MOVE	0,ERRTLS	;YES
  4077	034123	301 00 0 00 000005 		CAIL	0,5		;PRINTED ALLOWED ERRORS ?
  4078	034124	254 00 0 00 030061 		JRST	$BEND2
  4079
  4080	034125	200 00 0 00 034333 	%ERRS5:	MOVE	0,%ERAC0	;NO, CONTINUE PROGRAM
  4081						IFDEF	EXCASB,<IFDEF KI10,<
  4082						SKIPN	KAIFLG
  4083						JRST	.+5
  4084						SKIPE	USER
  4085						JRST	.+3
  4086						SKIPE	MARGIN
  4087						DATAO	APR,MARGIN	;RESET MARGIN SYSTEM >>
  4088	034126	254 00 0 00 030065 		JRST	UUOEXT
  4089
  4090	034127	200 00 0 00 030046 	%ERRS4:	MOVE	0,CONSW
  4091	034130	607 00 0 00 001000 		TLNN	PALERS		;PRINT ALL ERRORS ?
  4092	034131	254 00 0 00 034075 		JRST	%ERRS1		;NO
  4093	034132	254 00 0 00 033772 		JRST	%ERMS1		;YES
DAKCB	PDP-10 KA10 ADVANCED INSTRUCTION DIAGNOSTIC #2, VERSION 0,2 	MACRO %52(537) 12:44 21-JAN-77 PAGE 1
STOR	KLM	18-JAN-77 11:42		*STOR* RESERVED STORAGE, JAN 18,1977                                               SEQ 0113

  4094					SUBTTL	*STOR* RESERVED STORAGE, JAN 18,1977
  4095
  4096					;PROGRAM LITERALS
  4097
  4098						XLIST
  4099					IFNDEF	$LPAPER,<LIST>
  4100	034133					LIT
  4101	034133	45 70 51 64 00 00
  4102	034134	103 102 000 000 000
  4103	034135	000000	030673
  4104	034136	000000	031164
  4105	034137	000000	031345
  4106	034140	200400	000000
  4107	034141	177477	000000
  4108	034142	200777	777777
  4109	034143	200400	000077
  4110	034144	200400	000076
  4111	034145	200700	000000
  4112	034146	400000	000001
  4113	034147	777400	000000
  4114	034150	577400	777777
  4115	034151	210777	777777
  4116	034152	100777	000000
  4117	034153	170555	600000
  4118	034154	76 64 45 63 64 00
  4119	034155	60 41 63 63 00 43
  4120	034156	57 65 56 64 00 35
  4121	034157	00 77 00 00 00 00
  4122	034160	76 60 43 00 35 00
  4123	034161	00 00 77 00 00 00
  4124	034162	76 62 45 63 65 54
  4125	034163	64 00 00 35 00 77
  4126	034164	76 46 41 65 54 64
  4127	034165	00 56 65 55 42 45
  4128	034166	62 00 35 00 77 00
  4129	034167	000000	000000
  4130	034170	103 050 101 103 051
  4131	034171	040 106 101 111 114
  4132	034172	105 104 000 000 000
  4133	034173	103 050 101 103 053
  4134	034174	061 051 040 106 101
  4135	034175	111 114 105 104 000
  4136	034176	103 050 105 051 040
  4137	034177	106 101 111 114 105
  4138	034200	104 000 000 000 000
  4139	034201	103 050 105 053 061
  4140	034202	051 040 106 101 111
  4141	034203	114 105 104 000 000
  4142	034204	103 050 103 050 101
  4143	034205	103 122 051 051 040
  4144	034206	106 101 111 114 105
  4145	034207	104 000 000 000 000
  4146	034210	103 050 103 050 101
  4147	034211	103 122 053 061 051
  4148	034212	051 040 106 101 111
DAKCB	PDP-10 KA10 ADVANCED INSTRUCTION DIAGNOSTIC #2, VERSION 0,2 	MACRO %52(537) 12:44 21-JAN-77 PAGE 1-1
STOR	KLM	18-JAN-77 11:42		*STOR* RESERVED STORAGE, JAN 18,1977                                               SEQ 0114

  4149	034213	114 105 104 000 000
  4150	034214	103 050 103 050 101
  4151	034215	103 114 051 051 040
  4152	034216	106 101 111 114 105
  4153	034217	104 000 000 000 000
  4154	034220	103 050 103 050 105
  4155	034221	051 051 040 106 101
  4156	034222	111 114 105 104 000
  4157	034223	106 114 101 107 040
  4158	034224	106 101 111 114 105
  4159	034225	104 000 000 000 000
  4160						LIST
  4161	034226	000000	000000		ENDSLD:	0
  4162
  4163					IFDEF	DEBUG,<
  4164	034227				PATCH:	BLOCK DEBUG		;PATCHING AREA
  4165					>
  4166
  4167					;PROGRAM VARIABLES
  4168	034327					VAR
  4169
  4170					IFDEF	PGMEND,<
  4171	034337	000000	000000		END:	0
  4172			030000			END	BEGIN	>

NO ERRORS DETECTED

PROGRAM BREAK IS 000000
ABSLUTE BREAK IS 034340
CPU TIME USED 00:16.770

10K CORE USED

AABCLR	   334#
AADRBK	   334#                                                                                                            SEQ 0115
AAPRC1	   334#
ABORT	   105#
AC	   700#	   702	   703	   704	   705	   708	   709	   710	   711	   712	   713	   716	   717	   718
	   719	   720	   721	   729#	   731	   732	   733	   734	   737	   738	   739	   740	   741	   743
	   744	   745	   746	   753#	   755	   756	   757	   758	   761	   762	   763	   764	   765	   766
	   767	   768	   769	   771	   773	   774	   782#	   784	   785	   786	   787	   790	   791	   792
	   793	   794	   796	   797	   798	   799	   806#	   808	   809	   810	   811	   814	   815	   816
	   817	   818	   820	   821	   822	   823	   832#	   834	   835	   836	   837	   839	   840	   841
	   842	   843	   845	   847	   848	   849	   850	   862#	   864	   865	   866	   867	   887	   888
	   889	   890	   891	   892	   893	   898	   899	   900	   901	   902	   903	   904	   925	   926
	   927	   928	   929	   930	   931	   936	   937	   938	   939	   940	   941	   942	   946	   947
	   948	   949	   950	   951	   952	   960#	   962	   963	   964	   965	   967	   968	   969	   970
	   971	   972	   979#	   981	   982	   983	   984	   987	   988	   989	   990	   991	   993	   994
	   995	   996	  1006#	  1008	  1009	  1010	  1011	  1031	  1032	  1033	  1034	  1035	  1036	  1037
	  1042	  1043	  1044	  1045	  1046	  1047	  1048	  1052	  1053	  1054	  1055	  1056	  1057	  1058
	  1078	  1079	  1080	  1081	  1082	  1083	  1084	  1089	  1090	  1091	  1092	  1093	  1094	  1095
	  1115	  1116	  1117	  1118	  1119	  1120	  1121	  1126	  1127	  1128	  1129	  1130	  1131	  1132
	  1136	  1137	  1138	  1139	  1140	  1141	  1142	  1147	  1148	  1149	  1150	  1151	  1152	  1153
	  1154	  1155	  1156	  1157	  1165#	  1167	  1168	  1169	  1170	  1172	  1173	  1174	  1175	  1176
	  1177	  1178	  1186#	  1188	  1189	  1190	  1191	  1194	  1195	  1196	  1197	  1198	  1199	  1200
	  1203	  1204	  1205	  1206	  1207	  1208	  1209	  1211	  1212	  1213	  1214	  1215	  1216	  1217
	  1224#	  1226	  1227	  1228	  1229	  1231	  1232	  1233	  1234	  1235	  1236	  1237	  1245#	  1247
	  1248	  1249	  1250	  1252	  1253	  1254	  1255	  1256	  1257	  1258	  1265#	  1267	  1268	  1269
	  1270	  1273	  1274	  1275	  1276	  1277	  1279	  1280	  1281	  1282	  1283	  1284	  1292#	  1294
	  1295	  1296	  1297	  1299	  1300	  1301	  1302	  1303	  1304	  1305	  1312#	  1314	  1315	  1316
	  1317	  1319	  1320	  1321	  1322	  1323	  1324	  1325	  1333#	  1335	  1336	  1337	  1338	  1341
	  1342	  1343	  1344	  1345	  1346	  1347	  1348	  1349	  1350	  1351	  1359#	  1361	  1362	  1363
	  1364	  1367	  1368	  1369	  1370	  1371	  1374	  1375	  1376	  1377	  1385#	  1387	  1388	  1389
	  1390	  1392	  1393	  1394	  1395	  1396	  1397	  1398	  1414#	  1416	  1417	  1418	  1419	  1440
	  1441	  1442	  1443	  1444	  1445	  1446	  1452	  1453	  1454	  1455	  1456	  1457	  1458	  1464
	  1465	  1466	  1467	  1468	  1469	  1470	  1476	  1477	  1478	  1479	  1480	  1481	  1482	  1488
	  1489	  1490	  1491	  1492	  1493	  1494	  1500	  1501	  1502	  1503	  1504	  1505	  1506	  1512
	  1513	  1514	  1515	  1516	  1517	  1518	  1528#	  1530	  1531	  1532	  1533	  1554	  1555	  1556
	  1557	  1558	  1559	  1560	  1566	  1567	  1568	  1569	  1570	  1571	  1572	  1578	  1579	  1580
	  1581	  1582	  1583	  1584	  1590	  1591	  1592	  1593	  1594	  1595	  1596	  1602	  1603	  1604
	  1605	  1606	  1607	  1608	  1614	  1615	  1616	  1617	  1618	  1619	  1620	  1626	  1627	  1628
	  1629	  1630	  1631	  1632	  1641#	  1643	  1644	  1645	  1646	  1668	  1669	  1670	  1671	  1672
	  1673	  1674	  1680	  1681	  1682	  1683	  1684	  1685	  1686	  1692	  1693	  1694	  1695	  1696
	  1697	  1698	  1705#	  1707	  1708	  1709	  1710	  1730	  1731	  1732	  1733	  1734	  1735	  1736
	  1737	  1738	  1743	  1744	  1745	  1746	  1747	  1748	  1749	  1750	  1751	  1756	  1757	  1758
	  1759	  1760	  1761	  1762	  1763	  1764	  1769	  1770	  1771	  1772	  1773	  1774	  1775	  1776
	  1777	  1785#	  1787	  1788	  1789	  1790	  1792	  1793	  1794	  1795	  1796	  1797	  1805#	  1807
	  1808	  1809	  1810	  1812	  1813	  1814	  1815	  1816	  1817	  1818	  1825#	  1827	  1828	  1829
	  1830	  1852	  1853	  1854	  1855	  1856	  1857	  1858	  1864	  1865	  1866	  1867	  1868	  1869
	  1870	  1876	  1877	  1878	  1879	  1880	  1881	  1882	  1888	  1889	  1890	  1891	  1892	  1893
	  1894	  1900	  1901	  1902	  1903	  1904	  1905	  1906	  1916#	  1918	  1919	  1920	  1921	  1943
	  1944	  1945	  1946	  1947	  1948	  1949	  1955	  1956	  1957	  1958	  1959	  1960	  1961	  1967
	  1968	  1969	  1970	  1971	  1972	  1973	  1979	  1980	  1981	  1982	  1983	  1984	  1985	  1991
	  1992	  1993	  1994	  1995	  1996	  1997	  2003	  2004	  2005	  2006	  2007	  2008	  2009	  2015
	  2016	  2017	  2018	  2019	  2020	  2021	  2028#	  2030	  2031	  2032	  2033	  2057	  2058	  2059
	  2060	  2061	  2062	  2063	  2064	  2065	  2071	  2072	  2073	  2074	  2075	  2076	  2077	  2078
	  2079	  2088#	  2090	  2091	  2092	  2093	  2097	  2098	  2099	  2100	  2101	  2102	  2108#	  2110
	  2111	  2112	  2113	  2115	  2116	  2117	  2118	  2119	  2120	  2121	  2122	  2123	  2124	  2131#    SEQ 0116
	  2133	  2134	  2135	  2136	  2138	  2139	  2140	  2141	  2142	  2143	  2144	  2145	  2146	  2147
	  2153#	  2155	  2156	  2157	  2158	  2160	  2161	  2162	  2163	  2164	  2165	  2166	  2167	  2174#
	  2176	  2177	  2178	  2179	  2181	  2182	  2183	  2184	  2185	  2186	  2187	  2188	  2189	  2190
	  2197#	  2199	  2200	  2201	  2202	  2237	  2238	  2239	  2240	  2241	  2242	  2243	  2244	  2245
	  2246	  2247	  2248	  2249	  2250	  2251	  2252	  2259	  2260	  2261	  2262	  2263	  2264	  2265
	  2266	  2267	  2268	  2269	  2270	  2271	  2272	  2273	  2274	  2281	  2282	  2283	  2284	  2285
	  2286	  2287	  2288	  2289	  2290	  2291	  2292	  2293	  2294	  2295	  2296	  2303	  2304	  2305
	  2306	  2307	  2308	  2309	  2310	  2311	  2312	  2313	  2314	  2315	  2316	  2317	  2318	  2325
	  2326	  2327	  2328	  2329	  2330	  2331	  2332	  2333	  2334	  2335	  2336	  2337	  2338	  2339
	  2340	  2348#	  2350	  2351	  2352	  2353	  2384	  2385	  2386	  2387	  2388	  2389	  2390	  2391
	  2392	  2393	  2394	  2395	  2402	  2403	  2404	  2405	  2406	  2407	  2408	  2409	  2410	  2411
	  2412	  2413	  2421#	  2423	  2424	  2425	  2426	  2428	  2429	  2430	  2431	  2432	  2433	  2434
	  2435	  2436	  2437	  2438	  2439	  2440	  2448#	  2450	  2451	  2452	  2453	  2455	  2456	  2457
	  2458	  2459	  2460	  2461	  2462	  2463	  2464	  2465	  2466	  2467	  2474#	  2476	  2477	  2478
	  2479	  2481	  2482	  2483	  2484	  2485	  2486	  2487	  2488	  2489	  2490	  2497#	  2499	  2500
	  2501	  2502	  2528	  2529	  2530	  2531	  2532	  2533	  2534	  2535	  2536	  2537	  2538	  2544
	  2545	  2546	  2547	  2548	  2549	  2550	  2551	  2552	  2553	  2554	  2561#	  2563	  2564	  2565
	  2566	  2568	  2569	  2570	  2571	  2572	  2573	  2574	  2575	  2576	  2577	  2578	  2585#	  2587
	  2588	  2589	  2590	  2592	  2593	  2594	  2595	  2596	  2597	  2598	  2599	  2600	  2606#	  2608
	  2609	  2610	  2611	  2634	  2635	  2636	  2637	  2638	  2639	  2640	  2641	  2647	  2648	  2649
	  2650	  2651	  2652	  2653	  2654	  2662#	  2664	  2665	  2666	  2667	  2690	  2691	  2692	  2693
	  2694	  2695	  2702	  2703	  2704	  2705	  2706	  2707	  2718#	  2720	  2721	  2722	  2723	  2727
	  2728	  2729	  2730	  2731	  2732	  2733	  2734	  2735	  2738	  2739	  2746#	  2748	  2749	  2750
	  2751	  2770	  2771	  2772	  2773	  2774	  2775	  2776	  2781	  2782	  2783	  2784	  2785	  2786
	  2787	  2792	  2793	  2794	  2795	  2796	  2797	  2798	  2805#	  2807	  2808	  2809	  2810	  2832
	  2833	  2834	  2835	  2836	  2837	  2838	  2844	  2845	  2846	  2847	  2848	  2849	  2850	  2856
	  2857	  2858	  2859	  2860	  2861	  2862	  2869#	  2871	  2872	  2873	  2874	  2899	  2900	  2901
	  2902	  2903	  2904	  2905	  2912	  2913	  2914	  2915	  2916	  2917	  2918	  2925	  2926	  2927
	  2928	  2929	  2930	  2931	  2938#	  2940	  2941	  2942	  2943	  2966	  2967	  2968	  2969	  2970
	  2971	  2972	  2978	  2979	  2980	  2981	  2982	  2983	  2984	  2993#	  2995	  2996	  2997	  2998
	  3000	  3001	  3002	  3003	  3004	  3005	  3006	  3015#	  3017	  3018	  3019	  3020	  3022	  3023
	  3025	  3026	  3027	  3028	  3029	  3030	  3031	  3039#	  3041	  3042	  3043	  3044	  3066	  3067
	  3068	  3069	  3070	  3071	  3072	  3078	  3079	  3080	  3081	  3082	  3083	  3084	  3094#	  3096
	  3097	  3098	  3099	  3101	  3102	  3104	  3105	  3106	  3107	  3108	  3109	  3110	  3111	  3112
	  3113	  3114	  3121#	  3123	  3124	  3125	  3126	  3130	  3131	  3132	  3133	  3134	  3135	  3136
	  3145#	  3147	  3148	  3149	  3150	  3154	  3155	  3156	  3157	  3158	  3159	  3160	  3166#	  3168
	  3169	  3170	  3171	  3190	  3191	  3192	  3193	  3194	  3195	  3196	  3201	  3202	  3203	  3204
	  3205	  3206	  3207	  3215#	  3217	  3218	  3219	  3220	  3222	  3223	  3224	  3225	  3226	  3227
	  3228	  3229	  3230	  3231	  3232	  3238#	  3240	  3241	  3242	  3243	  3245	  3246	  3247	  3248
	  3249	  3250	  3251	  3252	  3253	  3254	  3255	  3262#	  3264	  3265	  3266	  3267	  3269	  3270
	  3271	  3272	  3273	  3274	  3275	  3276	  3277	  3278	  3279	  3286#	  3288	  3289	  3290	  3291
	  3293	  3294	  3295	  3296	  3297	  3298	  3299	  3300	  3301	  3302	  3303	  3304	  3305	  3306
	  3314#	  3316	  3317	  3318	  3319	  3321	  3322	  3323	  3324	  3325	  3326	  3327	  3328	  3329
	  3330	  3331	  3332	  3333	  3340#	  3342	  3343	  3344	  3345	  3347	  3348	  3349	  3350	  3351
	  3352	  3353	  3354	  3355	  3356	  3357	  3358	  3366#	  3368	  3369	  3370	  3371	  3373	  3374
	  3375	  3376	  3377	  3378	  3379	  3380	  3381	  3382	  3383	  3384	  3385	  3386	  3392#	  3394
	  3395	  3396	  3397	  3425	  3426	  3427	  3428	  3429	  3430	  3431	  3432	  3433	  3434	  3441
	  3442	  3443	  3444	  3445	  3446	  3447	  3448	  3449	  3450	  3457#	  3459	  3460	  3461	  3462
	  3464	  3465	  3466	  3467	  3468	  3469	  3470	  3471	  3472	  3479#	  3481	  3482	  3483	  3484
	  3486	  3487	  3488	  3489	  3490	  3491	  3492	  3493	  3494	  3500#	  3502	  3503	  3504	  3505
	  3507	  3508	  3509	  3510	  3511	  3512	  3513	  3514	  3515	  3516	  3517	  3518	  3525#	  3527
	  3528	  3529	  3530	  3532	  3533	  3534	  3535	  3536	  3537	  3538	  3539	  3540	  3546#	  3548
	  3549	  3550	  3551	  3553	  3554	  3555	  3556	  3557	  3558	  3559	  3560	  3561	  3562	  3563     SEQ 0117
	  3570#	  3572	  3573	  3574	  3575	  3577	  3578	  3579	  3580	  3581	  3582	  3583	  3584	  3585
	  3591#	  3593	  3594	  3595	  3596	  3622	  3623	  3624	  3625	  3626	  3627	  3628	  3629	  3630
	  3631	  3637	  3638	  3639	  3640	  3641	  3642	  3643	  3644	  3645	  3646	  3652	  3653	  3654
	  3655	  3656	  3657	  3658	  3659	  3660	  3661	  3667	  3668	  3669	  3670	  3671	  3672	  3673
	  3674	  3675	  3676	  3682	  3683	  3684	  3685	  3686	  3687	  3688	  3689	  3690	  3691	  3698#
	  3700	  3701	  3702	  3703	  3705	  3706	  3707	  3708	  3709	  3710	  3717#	  3719	  3720	  3721
	  3722	  3724	  3725	  3726	  3727	  3728	  3729	  3730	  3736#	  3738	  3739	  3740	  3741	  3764
	  3765	  3766	  3767	  3768	  3769	  3770	  3776	  3777	  3778	  3779	  3780	  3781	  3782	  3788
	  3789	  3790	  3791	  3792	  3793	  3794	  3802#	  3804	  3805	  3806	  3807	  3809	  3810	  3811
	  3812	  3813	  3814	  3815	  3816	  3817	  3818	  3819	  3820	  3828#	  3830	  3831	  3832	  3833
	  3835	  3836	  3837	  3838	  3839	  3840	  3841	  3842	  3843	  3844	  3845	  3846	  3853#	  3855
	  3856	  3857	  3858	  3860	  3861	  3862	  3863	  3864	  3865	  3866	  3867	  3868	  3869	  3870
	  3871	  3879#	  3881	  3882	  3883	  3884	  3886	  3887	  3888	  3889	  3890	  3891	  3892	  3893
	  3894	  3895	  3896	  3904#	  3906	  3907	  3908	  3909	  3911	  3912	  3913	  3914	  3915	  3916
	  3917	  3918	  3919	  3920	  3921
AFOCLR	   334#
AFODIS	   334#
AFOENB	   334#
AFOV	   334#
ALTMGO	   420#	  4058
AMPCLR	   334#
AMPV	   334#
ANXCLR	   334#
ANXM	   334#
AOVCLR	   334#
AOVDIS	   334#
AOVENB	   334#
AOVFLO	   334#
APAREN	   334#
APARER	   334#
APDCLR	   334#
APDLOV	   334#
APWRFL	   334#
AROV	   334#
AROVU	   334#
AST	   535#
ATRPOS	   334#
ATSIN	   536#
AUSRIO	   334#
BEGEND	   416#	  3923
BEGIN	    75	    78	    79	    80	    81	    82	    83	    84	    85	   319	   320	   347#	  4172
BEGIN1	   363#	   417
BELL	   539#
BIS	   334#
CB00	   692	   700#
CCA	   334#
CHAIN	   125#
CHNOFF	   334#
CHNON	   334#
CLK	   334#
CLKCLR	   334#
CLKDIS	   334#
CLKENB	   334#                                                                                                            SEQ 0118
CLKU	   334#
CLOCKF	   402#
CNTLC	   419#
COMMA	   528#
CONSW	   403#	  3992	  4059	  4090
CPOPJ	   423#
CPOPJ1	   421#
CRLF	   254	   255	   523#
CRLF2	   258	   259	   525#
CRY0	   334#
CRY1	   334#
CSHFLG	   582#
CSHMEM	   583#
CYCL60	   576#
DCK	   334#
DDTLNK	   139#	   361
DDTSRT	   361#
DEBUG	    58#	  4163	  4164
DECVER	     3#	    10	    25	   382
DF22F	   487#
DIAGMN	   350#
DING	   111#	  4064
DOLLAR	   542#
DSKUPD	   387
END	  4171#
ENDFIX	   656#
ENDSLD	  4161#
ERDIAG	    63#	  3977
ERMORE	   436#	  4050
ERRELB	  4047
ERRLOP	   705#	   705	   734#	   734	   758#	   758	   787#	   787	   811#	   811	   837#	   837	   867#	   867
	   965#	   965	   984#	   984	  1011#	  1011	  1170#	  1170	  1191#	  1191	  1229#	  1229	  1250#	  1250
	  1270#	  1270	  1297#	  1297	  1317#	  1317	  1338#	  1338	  1364#	  1364	  1390#	  1390	  1419#	  1419
	  1533#	  1533	  1646#	  1646	  1710#	  1710	  1790#	  1790	  1810#	  1810	  1830#	  1830	  1921#	  1921
	  2033#	  2033	  2093#	  2093	  2113#	  2113	  2136#	  2136	  2158#	  2158	  2179#	  2179	  2202#	  2202
	  2353#	  2353	  2426#	  2426	  2453#	  2453	  2479#	  2479	  2502#	  2502	  2566#	  2566	  2590#	  2590
	  2611#	  2611	  2667#	  2667	  2723#	  2723	  2751#	  2751	  2810#	  2810	  2874#	  2874	  2943#	  2943
	  2998#	  2998	  3020#	  3020	  3044#	  3044	  3099#	  3099	  3126#	  3126	  3150#	  3150	  3171#	  3171
	  3220#	  3220	  3243#	  3243	  3267#	  3267	  3291#	  3291	  3319#	  3319	  3345#	  3345	  3371#	  3371
	  3397#	  3397	  3462#	  3462	  3484#	  3484	  3505#	  3505	  3530#	  3530	  3551#	  3551	  3575#	  3575
	  3596#	  3596	  3703#	  3703	  3722#	  3722	  3741#	  3741	  3807#	  3807	  3833#	  3833	  3858#	  3858
	  3884#	  3884	  3909#	  3909	  3957	  4069	  4072	  4073
ERRMES	    44	    45	    46	    47	    48	    49	    50	    51	    52	    53	    54	  3928#
ERRPC	   407#	  3940	  3974
ERRTLS	   408#	  3938	  4076
ERSTOP	   114#	  4060
EXCASB	    59#	   385	  3929	  4081
EXIOT	   334#
FOV	   334#
FOVU	   334#
FRDLNK	   137#
FSELNK	   136#
FXU	   334#	   766	  1152	  1280	  1346	  2100	  3158                                                             SEQ 0119
HYPEN	   533#
INHCSH	   122#
INHPAG	   119#
INXM	   334#
IOCLR	   334#
ITERAT	    94#	   380
ITRCH1	   440#
ITRCNT	   380#
JOB41	   334#
JOBAPR	   334#
JOBCNI	   334#
JOBDDT	   334#
JOBFF	   334#
JOBOPC	   334#	  4057
JOBREL	   334#
JOBREN	   334#
JOBSA	   334#
JOBSYM	   334#
JOBTPC	   334#
JOBUSY	   334#
JOBUUO	   334#
JOBVER	   334#
KA10	    61#	   334
KAHZ50	   127#
KAIFLG	   397#
KI10	   334	  3929	  4081
KL10	   334
KLFLG	   398#	  3024	  3103	  3944
KLOLD	    64#	   334
KLTYP	   614#
LDLNK	   138#	   350	   352
LFP	   537#
LOOPER	   113#	  4062
LUUO	   334#
LUUO1	    44#	   467	   468
LUUO10	    51#	   467	   472
LUUO11	    52#	   467	   472
LUUO12	    53#	   467	   473
LUUO13	    54#	   467	   473
LUUO14	   467	   474
LUUO15	   467	   474
LUUO16	   467	   475
LUUO17	   467	   475
LUUO2	    45#	   467	   469
LUUO20	   467	   476
LUUO21	   467	   476
LUUO22	   467	   477
LUUO23	   467	   477
LUUO24	   467	   478
LUUO25	   467	   478
LUUO26	   467	   479
LUUO27	   467	   479
LUUO3	    46#	   467	   469                                                                                             SEQ 0120
LUUO30	   467	   480
LUUO31	   467	   480
LUUO32	   467	   481
LUUO33	   467	   481
LUUO4	    47#	   467	   470
LUUO5	    48#	   467	   470
LUUO6	    49#	   467	   471
LUUO7	    50#	   467	   471
LUUOI	   334#
MAPNEW	   488#
MARGIN	   410#
MCNVER	     4#	    10	    25	   382
MEMLOW	   490#
MEMMAP	   388
MEMSIZ	   491#
MEMTOT	   489#
MICNT	  3941#	  3941	  3942	  3959
MINUS	   532#
MODDVC	   121#
MODDVL	   319	   319#	   383
MODDVU	   320	   320#	   384
MODLNK	   140#	   347
MONCTL	   400#	  3960	  4074
MONFLG	   399#
MONTEN	   401#
MPVU	   334#
NOPNT	   109#	  3950
NXMU	   334#
OPRSEL	   123#
OPTIME	   502#
P	   166	   167	   168	   169	   334#	   422
P100	   708#	   713
P1000	   873#
P10000	  3128#	  3136
P10100	  3152#	  3160
P10200	  3176#
P10300	  3222#	  3232
P10400	  3245#	  3255
P10500	  3269#	  3279
P10600	  3293#	  3306
P10700	  3321#	  3333
P1100	   911#
P11000	  3347#	  3358
P11100	  3373#	  3386
P11200	  3404#
P11300	  3464#	  3472
P11400	  3486#	  3494
P11500	  3507#	  3518
P11600	  3532#	  3540
P11700	  3553#	  3563
P1200	   946#
P12000	  3577#	  3585	  3896
P12100	  3603#                                                                                                            SEQ 0121
P12200	  3705#	  3710
P12300	  3724#	  3730
P12400	  3748#
P12500	  3809#	  3820
P12600	  3835#	  3846
P12700	  3860#	  3871
P1300	   967#	   972
P13000	  3886#
P13100	  3911#	  3921
P1400	   986#	   996
P1500	  1017#
P1600	  1052#	  1058
P1700	  1064#
P200	   716#	   721
P2000	  1101#
P2100	  1136#	  1142
P2200	  1146#	  1157
P2300	  1172#	  1178
P2400	  1194#	  1200
P2500	  1203#	  1209
P2600	  1211#	  1217
P2700	  1231#	  1237
P300	   736#	   746
P3000	  1252#	  1258
P3100	  1272#	  1284
P3200	  1299#	  1305
P3300	  1319#	  1325
P3400	  1340#	  1351
P3500	  1366#	  1377
P3600	  1392#	  1398
P3700	  1424#
P400	   760#	   774
P4000	  1538#
P4100	  1652#
P4200	  1714#
P4300	  1792#	  1797
P4400	  1812#	  1818
P4500	  1836#
P4600	  1927#
P4700	  2039#
P500	   789#	   799
P5000	  2095#	  2102
P5100	  2115#	  2124
P5200	  2138#	  2147
P5300	  2160#	  2167
P5400	  2181#	  2190
P5500	  2210#
P5600	  2361#
P5700	  2428#	  2440
P600	   813#	   823
P6000	  2455#	  2467
P6100	  2481#	  2490
P6200	  2508#                                                                                                            SEQ 0122
P6300	  2568#	  2578
P6400	  2592#	  2600
P6500	  2617#
P6600	  2674#
P6700	  2725#	  2739
P700	   839#	   850
P7000	  2756#
P7100	  2816#
P7200	  2881#
P7300	  2950#
P7400	  3000#	  3006
P7500	  3022#	  3031
P7600	  3050#
P7700	  3101#	  3114
PAG	   334#
PALERS	   115#	  4091
PARCLR	   334#
PARDIS	   334#
PAREA1	    87#	   378
PAREA2	    88#	   379
PAREA3	    89#	   376
PAREA4	    90#	   377
PAREA5	    91#	   389
PAREA6	    92#	   390
PAREA7	   389#
PAREA8	   390#
PARENB	   334#
PARU	   334#
PASCNT	   404#	  3965	  3969
PATCH	  4164#
PDISF	   499#
PDLOVU	   334#
PERIOD	   529#
PFSTRT	   356#
PGMEND	    62#	  4170
PGMNAM	   381	   667#
PI	  3947
PICHN1	   334#
PICHN2	   334#
PICHN3	   334#
PICHN4	   334#
PICHN5	   334#
PICHN6	   334#
PICHN7	   334#
PICHNA	   334#
PICLR	   334#
PIOFF	   334#
PION	   334#
PLIST	   568#	   568
PLISTE	   568	   570#	   654
PLISTS	   569#
PLUS	   534#
PNTENB	   498#                                                                                                            SEQ 0123
PNTEXT	   377#
PNTFLG	   497#
PNTINH	   500#
PNTLPT	   110#
PNTNAM	   376#
PNTSPC	   501#
PROCED	  3948#	  3948	  4063	  4070
PVPAGI	   595#
PWFCLR	   334#
QUEST	   540#
RADIX	   543#
RADLSC	   545#
RADLSP	   544#
RANDBS	   378#
REENTR	   358#
RELIAB	   117#
RENTR1	    77	   664#
REPT	   334#
REPT1	   334#
REPTU	   456#
REQSET	   334#
RESRT1	    76	   433#
RESRT2	   434#
RETURN	   365#
RSTART	   106#
RTP	   538#
RUNFLG	   405#
SADR1	    75#	   354
SADR10	    84#	   370
SADR11	    85#	   371
SADR2	    76#	   356
SADR3	    77#	   358
SADR4	    78#
SADR5	    79#	   419
SADR6	    80#	   420
SADR7	    81#	   367
SADR8	    82#	   368
SADR9	    83#	   369
SBINIT	   179	   364#
SCOPE	   457#
SFSTRT	   354#
SLASH	   541#
SN	   869#	   885	   885#	   892	   896	   896#	   903	   907#	   923	   923#	   930	   934	   934#	   941
	  1013#	  1029	  1029#	  1036	  1040	  1040#	  1047	  1060#	  1076	  1076#	  1083	  1087	  1087#	  1094
	  1097#	  1113	  1113#	  1120	  1124	  1124#	  1131	  1420#	  1437	  1437#	  1445	  1449	  1449#	  1457
	  1461	  1461#	  1469	  1473	  1473#	  1481	  1485	  1485#	  1493	  1497	  1497#	  1505	  1509	  1509#
	  1517	  1534#	  1551	  1551#	  1559	  1563	  1563#	  1571	  1575	  1575#	  1583	  1587	  1587#	  1595
	  1599	  1599#	  1607	  1611	  1611#	  1619	  1623	  1623#	  1631	  1647#	  1665	  1665#	  1673	  1677
	  1677#	  1685	  1689	  1689#	  1697	  1711#	  1728	  1728#	  1737	  1741	  1741#	  1750	  1754	  1754#
	  1763	  1767	  1767#	  1776	  1831#	  1849	  1849#	  1857	  1861	  1861#	  1869	  1873	  1873#	  1881
	  1885	  1885#	  1893	  1897	  1897#	  1905	  1922#	  1940	  1940#	  1948	  1952	  1952#	  1960	  1964
	  1964#	  1972	  1976	  1976#	  1984	  1988	  1988#	  1996	  2000	  2000#	  2008	  2012	  2012#	  2020
	  2034#	  2054	  2054#	  2062	  2064	  2068	  2068#	  2076	  2078	  2204#	  2233	  2233#	  2245	  2249     SEQ 0124
	  2251	  2255	  2255#	  2267	  2271	  2273	  2277	  2277#	  2289	  2293	  2295	  2299	  2299#	  2311
	  2315	  2317	  2321	  2321#	  2333	  2337	  2339	  2355#	  2380	  2380#	  2391	  2394	  2398	  2398#
	  2409	  2412	  2503#	  2525	  2525#	  2535	  2537	  2541	  2541#	  2551	  2553	  2612#	  2631	  2631#
	  2640	  2644	  2644#	  2653	  2669#	  2687	  2687#	  2699	  2699#	  2752#	  2768	  2768#	  2779	  2779#
	  2790	  2790#	  2811#	  2829	  2829#	  2841	  2841#	  2853	  2853#	  2875#	  2895	  2895#	  2904	  2908
	  2908#	  2917	  2921	  2921#	  2930	  2945#	  2963	  2963#	  2971	  2975	  2975#	  2983	  3045#	  3063
	  3063#	  3071	  3075	  3075#	  3083	  3172#	  3188	  3188#	  3195	  3199	  3199#	  3206	  3399#	  3421
	  3421#	  3433	  3437	  3437#	  3449	  3598#	  3619	  3619#	  3628	  3630	  3634	  3634#	  3643	  3645
	  3649	  3649#	  3658	  3660	  3664	  3664#	  3673	  3675	  3679	  3679#	  3688	  3690	  3743#	  3761
	  3761#	  3769	  3773	  3773#	  3781	  3785	  3785#	  3793
SPACE	   530#
SPDES	  4035#
SRTDDT	   360#
START	   348	   688#
START1	   367#
START2	   368#
START3	   369#
START4	   370#
START5	   371#
STARTA	   363	   692#
SUBLNK	   141#	   364
SWTEXR	   379#
SYSEXR	   352#
TAB	   531#
TESTPC	   406#	   703	   732	   756	   785	   809	   835	   865	   963	   982	  1009	  1168	  1189	  1227
	  1248	  1268	  1295	  1315	  1336	  1362	  1388	  1417	  1531	  1644	  1708	  1788	  1808	  1828
	  1919	  2031	  2091	  2111	  2134	  2156	  2177	  2200	  2351	  2424	  2451	  2477	  2500	  2564
	  2588	  2609	  2665	  2721	  2749	  2808	  2872	  2941	  2996	  3018	  3042	  3097	  3124	  3148
	  3169	  3218	  3241	  3265	  3289	  3317	  3343	  3369	  3395	  3460	  3482	  3503	  3528	  3549
	  3573	  3594	  3701	  3720	  3739	  3805	  3831	  3856	  3882	  3907
TICKS	   409#
TLET	   690	  4009	  4032#
TOTALS	   107#
TTNBRF	   589#
TTYFIL	   505#
TTYSPD	   506#
TXTINH	   118#	  3993
USER	   396#	  3945
USERF	   334#
USRASB	    60#	   386
USRCRF	   515#
USRLFF	   514#
UUODIS	   468#
UUOEXT	   424#	  4088
UUORTN	   425#
UUOSKP	   422#
WW	  2205#	  2234	  2234#	  2240	  2256	  2256#	  2262	  2278	  2278#	  2284	  2300	  2300#	  2306	  2322
	  2322#	  2328	  2356#	  2381	  2381#	  2387	  2399	  2399#	  2405	  2876#	  2896	  2897	  2898	  2898#
	  2909	  2910	  2911	  2911#	  2922	  2923	  2924	  2924#
XX	  1439#	  1440	  1451#	  1452	  1463#	  1464	  1475#	  1476	  1487#	  1488	  1499#	  1500	  1511#	  1512
	  1553#	  1554	  1565#	  1566	  1577#	  1578	  1589#	  1590	  1601#	  1602	  1613#	  1614	  1625#	  1626
	  1648#	  1666	  1666#	  1668	  1678	  1678#	  1680	  1690	  1690#	  1692	  1832#	  1850	  1850#	  1852
	  1862	  1862#	  1864	  1874	  1874#	  1876	  1886	  1886#	  1888	  1898	  1898#	  1900	  1923#	  1941     SEQ 0125
	  1941#	  1943	  1953	  1953#	  1955	  1965	  1965#	  1967	  1977	  1977#	  1979	  1989	  1989#	  1991
	  2001	  2001#	  2003	  2013	  2013#	  2015	  2035#	  2055	  2055#	  2057	  2069	  2069#	  2071	  2206#
	  2235	  2235#	  2238	  2257	  2257#	  2260	  2279	  2279#	  2282	  2301	  2301#	  2304	  2323	  2323#
	  2326	  2357#	  2382	  2382#	  2385	  2400	  2400#	  2403	  2504#	  2526	  2526#	  2532	  2536	  2542
	  2542#	  2548	  2552	  2613#	  2632	  2632#	  2635	  2645	  2645#	  2648	  2670#	  2688	  2688#	  2690
	  2700	  2700#	  2702	  2812#	  2830	  2830#	  2832	  2842	  2842#	  2844	  2854	  2854#	  2856	  2877#
	  2896	  2896#	  2899	  2909	  2909#	  2912	  2922	  2922#	  2925	  2946#	  2964	  2964#	  2966	  2976
	  2976#	  2978	  3046#	  3064	  3064#	  3066	  3076	  3076#	  3078	  3400#	  3422	  3422#	  3426	  3438
	  3438#	  3442	  3599#	  3620	  3620#	  3622	  3635	  3635#	  3637	  3650	  3650#	  3652	  3665	  3665#
	  3667	  3680	  3680#	  3682	  3744#	  3762	  3762#	  3764	  3774	  3774#	  3776	  3786	  3786#	  3788
ZZ	   870#	   886	   886#	   887	   897	   897#	   898	   908#	   924	   924#	   925	   935	   935#	   936
	  1014#	  1030	  1030#	  1031	  1041	  1041#	  1042	  1061#	  1077	  1077#	  1078	  1088	  1088#	  1089
	  1098#	  1114	  1114#	  1115	  1125	  1125#	  1126	  1421#	  1438	  1438#	  1439	  1442	  1450	  1450#
	  1451	  1454	  1462	  1462#	  1463	  1466	  1474	  1474#	  1475	  1478	  1486	  1486#	  1487	  1490
	  1498	  1498#	  1499	  1502	  1510	  1510#	  1511	  1514	  1535#	  1552	  1552#	  1553	  1555	  1564
	  1564#	  1565	  1567	  1576	  1576#	  1577	  1579	  1588	  1588#	  1589	  1591	  1600	  1600#	  1601
	  1603	  1612	  1612#	  1613	  1615	  1624	  1624#	  1625	  1627	  1649#	  1667	  1667#	  1670	  1679
	  1679#	  1682	  1691	  1691#	  1694	  1712#	  1729	  1729#	  1731	  1733	  1742	  1742#	  1744	  1746
	  1755	  1755#	  1757	  1759	  1768	  1768#	  1770	  1772	  1833#	  1851	  1851#	  1853	  1863	  1863#
	  1865	  1875	  1875#	  1877	  1887	  1887#	  1889	  1899	  1899#	  1901	  1924#	  1942	  1942#	  1944
	  1954	  1954#	  1956	  1966	  1966#	  1968	  1978	  1978#	  1980	  1990	  1990#	  1992	  2002	  2002#
	  2004	  2014	  2014#	  2016	  2036#	  2056	  2056#	  2058	  2070	  2070#	  2072	  2207#	  2236	  2236#
	  2247	  2258	  2258#	  2269	  2280	  2280#	  2291	  2302	  2302#	  2313	  2324	  2324#	  2335	  2358#
	  2383	  2383#	  2392	  2401	  2401#	  2410	  2505#	  2527	  2527#	  2529	  2543	  2543#	  2545	  2614#
	  2633	  2633#	  2637	  2646	  2646#	  2650	  2671#	  2689	  2689#	  2692	  2701	  2701#	  2704	  2753#
	  2769	  2769#	  2771	  2772	  2780	  2780#	  2782	  2783	  2791	  2791#	  2793	  2794	  2813#	  2831
	  2831#	  2833	  2843	  2843#	  2845	  2855	  2855#	  2857	  2878#	  2897	  2897#	  2900	  2910	  2910#
	  2913	  2923	  2923#	  2926	  2947#	  2965	  2965#	  2967	  2977	  2977#	  2979	  3047#	  3065	  3065#
	  3067	  3077	  3077#	  3079	  3173#	  3189	  3189#	  3191	  3200	  3200#	  3202	  3401#	  3423	  3423#
	  3424	  3424#	  3430	  3439	  3439#	  3440	  3446	  3600#	  3621	  3621#	  3624	  3636	  3636#	  3639
	  3651	  3651#	  3654	  3666	  3666#	  3669	  3681	  3681#	  3684	  3745#	  3763	  3763#	  3766	  3775
	  3775#	  3778	  3787	  3787#	  3790
$$MUUO	   620#
$$OUTE	   626#
$$TAX1	   638#
$$TAX2	   639#
$$TOGG	   632#
$$UUO	   609#
$ACC0	   447#
$ACF	  4036#
$BEND1	   417#
$BEND2	   418#	  4078
$CHRIN	   508#
$CRLF	   510#
$DEVCH	   334#
$DSKUP	   387#
$DVCH1	   334#
$DVOFF	   504#
$EMODE	   385#
$ENDFX	   654#	   655
$FFF	   512#
$IBUF	   560#
$INEXT	   562#                                                                                                            SEQ 0126
$INNM	   561#
$ITRHL	   428#
$ITRX1	   429#
$LPAPE	  4099
$MMAP	   388#
$MODVL	   383#
$MODVU	   384#
$OBUF	   551#
$ONETM	   411#
$OUTEX	   553#
$OUTNM	   552#
$PAPER	   334
$PARER	   435#
$PNAME	   381#
$PSHER	   439#
$PVER	   382#
$RSRTX	   431#
$RSRTY	   432#
$SPAG1	   451#
$START	   348#
$SVAPR	   449#
$SVPAG	   450#
$SVPI	   448#
$SVUPC	   454#	  3939	  3943	  3973
$SVUUO	   453#	  3952	  3984	  4012
$TABF	   511#
$TTCHR	   507#
$TWCNT	   503#
$TYPNB	   509#
$UMODE	   386#
$UORTX	   426#
$USRHL	   430#
$UUOER	   427#	   468
$VTF	   513#
%AC1F	  4037#
%ACS1A	  3954#	  3954	  3998
%ACTFL	   460#
%ACTUL	   461#
%ALF	  4042#
%AR1F	  4041#
%ARF	  4040#
%COREC	   459#
%CORFL	   458#
%DISCR	   462#
%E1F	  4039#
%EEF	  4043#
%EF	  4038#
%ER4X	  4018	  4023#
%ER5X	  4016	  4025#
%ER6X	  4014	  4027#
%ER7X	  4020#	  4024	  4026	  4028
%ERAC0	  3928#	  3928	  3955	  3989	  4080
%ERAC1	  3936#	  3936	  3956	  4068                                                                                     SEQ 0127
%ERAC2	  3937#	  3937	  4067
%ERFST	  3962#	  3962	  3964
%ERHI1	   601#
%ERHI2	   602#
%ERHI3	   603#
%ERMOR	  3994	  4021	  4050#
%ERMS1	  3959#	  4093
%ERMS2	  3982#
%ERMS3	  4000	  4007#
%ERRS1	  3951	  4054#	  4092
%ERRS2	  4067#
%ERRS4	  3958	  4090#
%ERRS5	  4071	  4075	  4080#
%FF	  4044#
%FLTTB	  4002	  4033#
%NODES	  4034#
.JB41	   334#
.JBAPR	   334#
.JBCNI	   334#
.JBDDT	   334#
.JBFF	   334#
.JBOPC	   334#
.JBREL	   334#
.JBREN	   334#
.JBSA	   334#
.JBSYM	   334#
.JBTPC	   334#
.JBUSY	   334#
.JBUUO	   334#
.JBVER	   334#
CFLUSH	   290#
CINVAL	   289#                                                                                                            SEQ 0128
CLOKOP	   284#
CWRTBI	   291#
DROPDV	   251#	   664
ENDUUO	   297#	   416
EOPUUO	   298#	   418
ER1	    32#
ER10	    39#
ER11	    40#
ER12	    41#
ER13	    42#	   743	   767	   771	   773	   796	   820	   845	   847	   993	  1153	  1279	  1281	  1347
	  1374	  2101	  2735	  2738	  3135	  3159
ER2	    33#
ER3	    34#	   712	   720	   745	   769	   798	   822	   849	   892	   903	   930	   941	   951	   971
	   995	  1036	  1047	  1057	  1083	  1094	  1120	  1131	  1141	  1155	  1177	  1199	  1208	  1216
	  1236	  1257	  1283	  1304	  1324	  1349	  1376	  1397	  1445	  1457	  1469	  1481	  1493	  1505
	  1517	  1559	  1571	  1583	  1595	  1607	  1619	  1631	  1673	  1685	  1697	  1737	  1750	  1763
	  1776	  1796	  1817	  1857	  1869	  1881	  1893	  1905	  1948	  1960	  1972	  1984	  1996	  2008
	  2020	  2062	  2076	  2121	  2144	  2187	  2245	  2267	  2289	  2311	  2333	  2391	  2409	  2435
	  2462	  2489	  2535	  2551	  2575	  2597	  2640	  2653	  2694	  2706	  2730	  2732	  2775	  2786
	  2797	  2837	  2849	  2861	  2904	  2917	  2930	  2971	  2983	  3005	  3030	  3071	  3083	  3111
	  3229	  3252	  3276	  3301	  3329	  3354	  3380	  3433	  3449	  3471	  3493	  3515	  3560	  3628
	  3643	  3658	  3673	  3688	  3709	  3729	  3769	  3781	  3793	  3816	  3842	  3866	  3892	  3917
ER4	    35#	  2249	  2271	  2293	  2315	  2337	  2394	  2412	  2439	  2466	  3305	  3332	  3357	  3383
	  3819	  3845	  3870	  3895	  3920
ER5	    36#	  2064	  2078	  2123	  2146	  2166	  2189	  2251	  2273	  2295	  2317	  2339	  2537	  2553
	  2577	  2599	  3113	  3195	  3206	  3231	  3254	  3278	  3385	  3517	  3539	  3562	  3584	  3630
	  3645	  3660	  3675	  3690
ER6	    37#
ER7	    38#
ERRHLT	   186#	  4061
FATAL	   185#
FRD36	   326#
FRD8	   327#
FREAD	   325#
FSELEC	   324#
GET	   169#
GO	   166#
HALT	    81	    82	    83	    84	    85	   171#	   437
JEN	   173#
JRSTF	   172#
MAPADR	   307#
MAPCNK	   308#
MAPMEM	   304#
MAPPNT	   310#
MAPSET	   309#
MEMSEG	   306#
MEMZRO	   305#
MODPCP	   317#
MODPCU	   316#
MTROP	   285#
NAME	     7#	    10
PBELL	   260#	  4065
PCRL	   254#	  4001	  4020                                                                                             SEQ 0129
PCRL2	   258#
PCRL2F	   259#
PCRLF	   255#
PFORCE	   262#
PGMINT	   179#	   688
PJRST	   170#
PMSG	   264#	  3967	  3971	  3982	  4007
PMSGF	   267#
PNT1	   220#
PNT11	   234#
PNT11F	   235#
PNT1F	   221#
PNT2	   222#
PNT2F	   223#
PNT3	   224#	  4019
PNT3F	   225#
PNT4	   226#	  4023
PNT4F	   227#
PNT5	   228#	  4025
PNT5F	   229#
PNT6	   230#	  3975	  4027
PNT6F	   231#
PNT7	   232#
PNT7F	   233#
PNTA	   206#	  4010
PNTADF	   237#
PNTADR	   236#
PNTAF	   207#
PNTAL	   208#	  4003
PNTALF	   209#
PNTCHF	   219#
PNTCHR	   218#
PNTCI	   216#
PNTCIF	   217#
PNTCW	   252#
PNTCWF	   253#
PNTDCF	   245#
PNTDEC	   244#	  3970
PNTDS	   246#
PNTDSF	   247#
PNTHW	   240#	  3990
PNTHWF	   241#
PNTMGN	   331#	  4051
PNTMSF	   213#
PNTMSG	   212#
PNTNM	   248#	  3963
PNTOCF	   243#
PNTOCS	   242#
PNTOCT	   238#
PNTOTF	   239#
PNTSIX	   249#
PNTSXF	   250#
PSIXL	   210#                                                                                                            SEQ 0130
PSIXLF	   211#
PSIXM	   214#	  3968	  3972	  3983	  4008
PSIXMF	   215#
PSP	   256#
PSPF	   257#
PUT	   168#
RTN	   167#	   424
S	    97#	    99	   103	   132	   134	   143	   146	   161	   162	   164	   175	   177	   181	   183
	   188	   192	   334	   339	   345	   372	   374	   392	   394	   412	   414	   443	   445	   463
	   465	   483	   485	   493	   495	   516	   521	   547	   549	   556	   558	   564	   566	   572
	   574	   578	   580	   585	   587	   591	   593	   597	   599	   605	   607	   610	   612	   616
	   618	   622	   624	   628	   630	   634	   636	   641	   646	   650	   652
SAVEAC	    67#	   701	   730	   754	   783	   807	   833	   863	   961	   980	  1007	  1166	  1187	  1225
	  1246	  1266	  1293	  1313	  1334	  1360	  1386	  1415	  1529	  1642	  1706	  1786	  1806	  1826
	  1917	  2029	  2089	  2109	  2132	  2154	  2175	  2198	  2349	  2422	  2449	  2475	  2498	  2562
	  2586	  2607	  2663	  2719	  2747	  2806	  2870	  2939	  2994	  3016	  3040	  3095	  3122	  3146
	  3167	  3216	  3239	  3263	  3287	  3315	  3341	  3367	  3393	  3458	  3480	  3501	  3526	  3547
	  3571	  3592	  3699	  3718	  3737	  3803	  3829	  3854	  3880	  3905
SIXBTZ	   273#
SWITCH	   279#	  3949	  4052
TTALTM	   201#	  4054
TTICHR	   194#
TTICNV	   199#
TTIDEC	   198#
TTINO	   196#
TTIOCT	   197#
TTIYES	   195#
TTLOOK	   200#
TTSIXB	   202#
