DAKCA	PDP-10 KA10 ADVANCED INSTRUCTION DIAGNOSTIC #1, VER 0,2	MACRO %52(537) 12:25 21-JAN-77 PAGE 1
DAKCAT	MAC	21-JAN-77 11:41		DIAGNOSTIC PARAMETERS                                                              SEQ 0011

     1					;MAINDEC-10-DAKCA
     2
     3			000002		DECVER=002
     4			000000		MCNVER=000
     5
     6						XLIST
     7						LIST
     8						LALL
     9
    10					NAME	\MCNVER,\DECVER^
    11
    12					TITLE	DAKCA	PDP-10 KA10 ADVANCED INSTRUCTION DIAGNOSTIC #1, VER 0,2^
    13
    14						XALL
    15					;(FLOATING SCALE, FLOATING ADD/SUB AND UNNORMALIZED FLOATING ADD)
    16
    17					;COPYRIGHT 1972, 1973, 1974, 1975,1977
    18					;DIGITAL EQUIPMENT CORPORATION
    19					;MARLBORO, MASS. 01752
    20
    21					;JOHN R. KIRCHOFF
    22
    23	000137				LOC	137
    24	000137	000000	000002		MCNVER,,DECVER
    25
    26						NOSYM
DAKCA	PDP-10 KA10 ADVANCED INSTRUCTION DIAGNOSTIC #1, VER 0,2	MACRO %52(537) 12:25 21-JAN-77 PAGE 2
DAKCAT	MAC	21-JAN-77 11:41		DIAGNOSTIC PARAMETERS                                                              SEQ 0012

    27					SUBTTL	DIAGNOSTIC PARAMETERS
    28
    29					;OPERATOR DEFINITIONS
    30
    31		001000	000000		OPDEF	ER1	[1B8]
    32		002000	000000		OPDEF	ER2	[2B8]
    33		003000	000000		OPDEF	ER3	[3B8]
    34		004000	000000		OPDEF	ER4	[4B8]
    35		005000	000000		OPDEF	ER5	[5B8]
    36		006000	000000		OPDEF	ER6	[6B8]
    37		007000	000000		OPDEF	ER7	[7B8]
    38		010000	000000		OPDEF	ER10	[10B8]
    39		011000	000000		OPDEF	ER11	[11B8]
    40		012000	000000		OPDEF	ER12	[12B8]
    41		013000	000000		OPDEF	ER13	[13B8]
    42
    43			037615		LUUO1==ERRMES
    44			037615		LUUO2==ERRMES
    45			037615		LUUO3==ERRMES
    46			037615		LUUO4==ERRMES
    47			037615		LUUO5==ERRMES
    48			037615		LUUO6==ERRMES
    49			037615		LUUO7==ERRMES
    50			037615		LUUO10==ERRMES
    51			037615		LUUO11==ERRMES
    52			037615		LUUO12==ERRMES
    53			037615		LUUO13==ERRMES
    54
    55					;SUBROUTINE ASSEMBLY DEFINITIONS
    56
    57			000100		DEBUG=100
    58			000001		EXCASB=1
    59			000001		USRASB=1
    60			000001		KA10=1
    61			000001		PGMEND=1
    62			000001		ERDIAG=1
    63			000001		KLOLD=1
DAKCA	PDP-10 KA10 ADVANCED INSTRUCTION DIAGNOSTIC #1, VER 0,2	MACRO %52(537) 12:25 21-JAN-77 PAGE 3
DAKCAT	MAC	21-JAN-77 11:41		DIAGNOSTIC PARAMETERS                                                              SEQ 0013

    64					;MACROS
    65
    66					DEFINE	SAVEAC	(A,B)<
    67						MOVEI	AC+2,.
    68						MOVEM	AC+2,TESTPC	;SETUP SUBTEST PC
    69						MOVEI	AC+2,<AC+2>&17	;INFORM ERROR ROUTINE WHICH
    70						MOVEM	AC+2,ERRLOP#	;AC IS USED FOR ITERATION>
    71
    72					;BEGIN ASSEMBLY PARAMETERS
    73
    74			030000		SADR1=BEGIN
    75			030076		SADR2=RESRT1
    76			030600		SADR3=RENTR1
    77			030000		SADR4=BEGIN
    78			030000		SADR5=BEGIN
    79			030000		SADR6=BEGIN
    80		254200	030000		SADR7=HALT BEGIN
    81		254200	030000		SADR8=HALT BEGIN
    82		254200	030000		SADR9=HALT BEGIN
    83		254200	030000		SADR10=HALT BEGIN
    84		254200	030000		SADR11=HALT BEGIN
    85
    86			000000		PAREA1=0
    87			000000		PAREA2=0
    88		444153	434100		PAREA3=SIXBIT/DAKCA/
    89		645560	000000		PAREA4=SIXBIT/TMP/
    90			000000		PAREA5=0
    91			000000		PAREA6=0
    92
    93			001000		ITERAT=1000
DAKCA	PDP-10 KA10 ADVANCED INSTRUCTION DIAGNOSTIC #1, VER 0,2	MACRO %52(537) 12:25 21-JAN-77 PAGE 1
PARAM	KLM	18-JAN-77 11:38		*PARAM*	CONSOLE DATA SWITCH ASSIGNMENTS, JAN 18,1977                               SEQ 0014

    94					SUBTTL	*PARAM*	CONSOLE DATA SWITCH ASSIGNMENTS, JAN 18,1977
    95
    96					DEFINE	S,<;*********************************************************************>
    97
    98					S^;*********************************************************************^
    99					;*DATA SWITCHES (READ FROM CONSOLE IN EXEC MODE OR TYPED IN IN USER MODE)
   100					;*LEFT HALF SWITCHES ARE PRE-ASSIGNED FOR SUBROUTINE PACKAGE USE
   101					;*AND CONTROL LOOPING, PRINTING (TTY OR OTHER DEVICE) AND MISC. FUNCTIONS
   102					S^;*********************************************************************^
   103
   104			400000		ABORT==	400000			;ABORT PROGRAM ON PASS COMPLETION
   105			200000		RSTART==200000			;RESTART TEST, PRINT TOTALS
   106			100000		TOTALS==100000			;PRINT TOTALS, CONTINUE
   107
   108			040000		NOPNT==	040000			;INHIBIT ALL PRINT/TYPE OUT (EXCEPT FORCED)
   109			020000		PNTLPT==020000			;PRINT ALL DATA ON LPT (LOGICAL DEVICE, USER MODE)
   110			010000		DING==	010000			;RING BELL ON ERROR
   111
   112			004000		LOOPER==004000			;ENTER EXERCISE/CHECK LOOP ON ERROR
   113			002000		ERSTOP==002000			;HALT ON TEST ERROR
   114			001000		PALERS==001000			;PRINT ALL ERRORS
   115
   116			000400		RELIAB==000400			;RELIABILITY MODE
   117			000200		TXTINH==000200			;INHIBIT ERROR TEXT
   118			000100		INHPAG==000100			;INHIBIT PAGING
   119
   120			000040		MODDVC==000040			;MODIFY DEVICE CODE
   121			000020		INHCSH==000020			;INHIBIT CACHE
   122			000010		OPRSEL==000010			;OPERATOR SELECTION
   123
   124			000004		CHAIN==	000004			;CHAIN CONTROL SWITCH
   125
   126			000002		KAHZ50==000002			;KA10 50 HERTZ POWER
   127
   128									;SWITCH 17 RESERVED !!!
DAKCA	PDP-10 KA10 ADVANCED INSTRUCTION DIAGNOSTIC #1, VER 0,2	MACRO %52(537) 12:25 21-JAN-77 PAGE 2
PARAM	KLM	18-JAN-77 11:38		*PARAM* PROGRAM/SUBROUTINE PARAMETERS, JAN 18,1977                                 SEQ 0015

   129					SUBTTL	*PARAM* PROGRAM/SUBROUTINE PARAMETERS, JAN 18,1977
   130
   131					S^;*********************************************************************^
   132					;*SPECIAL SUBPROGRAM LINKAGES
   133					S^;*********************************************************************^
   134
   135			027772		FSELNK=	27772	;FILE SELECT LINK
   136			027773		FRDLNK=	27773	;FILE READ LINK
   137			027774		LDLNK=	27774	;LOAD LINKAGE ADDRESS
   138			027775		DDTLNK=	27775	;DDT LINKAGE ADDRESS
   139			027776		MODLNK=	27776	;OPERATIONAL MODE CHECK LINKAGE ADDRESS
   140			027777		SUBLNK=	27777	;SUBROUTINE LINKAGE ADDRESS
   141
   142					S^;*********************************************************************^
   143					;*SPECIAL SUBROUTINE FATAL HALTS
   144					;*USED TO REPORT ERRORS THAT CAUSE THE SUBROUTINES TO BE UNUSABLE
   145					S^;*********************************************************************^
   146
   147					;ADDRESS   TAG	REASON
   148					;---------------------
   149
   150					; 1010 	NOEXEC	;PROGRAM NOT CODED FOR EXEC MODE OPERATION
   151					; 1011  PLERR	;FATAL PUSH LIST POINTER ERROR
   152					; 1012  PLERR1	;INITIAL PUSH LIST POINTER ERROR
   153					; 1013  MUOERR	;MUUO WITH LUUO HANDLER WIPED OUT
   154					; 1014  DTEBER	;DTE20 INTERRUPT WITHOUT DOORBELL
   155					; 1015  DTECER	;DTE20 CLOCK INTERRUPT WITHOUT FLAG SET
   156					; 1016  CPIERR	;CPU INITIALIZATION ERROR
   157					; 1017  EOPERR	;END OF PROGRAM ERROR
   158					; 1020  LUOERR	;INTERRUPT WITH LUUO HANDLER WIPED OUT
   159
   160					S^;*********************************************************************^
DAKCA	PDP-10 KA10 ADVANCED INSTRUCTION DIAGNOSTIC #1, VER 0,2	MACRO %52(537) 12:25 21-JAN-77 PAGE 3
PARAM	KLM	18-JAN-77 11:38		*PARAM* PROGRAM/SUBROUTINE PARAMETERS, JAN 18,1977                                 SEQ 0016

   161					S^;*********************************************************************^
   162					;OPERATOR DEFINITIONS (NON-UUO'S)
   163					S^;*********************************************************************^
   164
   165		260740	000000		OPDEF	GO	[PUSHJ	P,]	;SUBROUTINE CALL
   166		263740	000000		OPDEF	RTN	[POPJ	P,]	;SUBROUTINE RETURN
   167		261740	000000		OPDEF	PUT	[PUSH	P,]	;PUT DATA ON PUSH LIST
   168		262740	000000		OPDEF	GET	[POP	P,]	;GET DATA FROM PUSH LIST
   169		254000	000000		OPDEF	PJRST	[JRST	]	;JRST TO ROUTINE THAT RTN'S
   170		254200	000000		OPDEF	HALT	[JRST	4,]	;DEFINITION FOR DDT
   171		254100	000000		OPDEF	JRSTF	[JRST	2,]	;DEFINITION FOR DDT
   172		254500	000000		OPDEF	JEN	[JRST	12,]	;DEFINITION FOR DDT
   173
   174					S^;*********************************************************************^
   175					;*SUBROUTINE INITIALIZATION CALL
   176					S^;*********************************************************************^
   177
   178		265000	030011		OPDEF	PGMINT	[JSP	0,SBINIT]	;SUBROUTINE INITIALIZATION
   179
   180					S^;*********************************************************************^
   181					;*HALTING UUO'S (A MORE GRACEFUL HALT THAN SIMPLY USING THE HALT INSTRUCTION).
   182					S^;*********************************************************************^
   183
   184		037640	000004		OPDEF	FATAL	[37B8!15B12!4]	;FATAL PROGRAMMING HALT
   185		037600	000004		OPDEF	ERRHLT	[37B8!14B12!4]	;PROGRAM ERROR HALT
   186
   187					S^;*********************************************************************^
   188					;*TERMINAL INPUT UUO'S
   189					;*ALWAYS COME FROM THE CONSOLE TERMINAL IN EXEC MODE OR THE
   190					;*CONTROLLING TERMINAL (REAL TERMINAL OR PTY) IN USER MODE.
   191					S^;*********************************************************************^
   192
   193		037000	000003		OPDEF	TTICHR 	[37B8!0B12!3]	;TTY, INPUT ANY CHARACTER
   194		037040	000003		OPDEF	TTIYES	[37B8!1B12!3]	;TTY, NORMAL RETURN Y
   195		037100	000003		OPDEF	TTINO	[37B8!2B12!3]	;TTY, NORMAL RETURN N
   196		037140	000003		OPDEF	TTIOCT	[37B8!3B12!3]	;TTY, INPUT OCTAL WORD
   197		037200	000003		OPDEF	TTIDEC	[37B8!4B12!3]	;TTY, INPUT DECIMAL WORD
   198		037240	000003		OPDEF	TTICNV	[37B8!5B12!3]	;TTY, INPUT CONVERTABLE WORD
   199		037300	000003		OPDEF	TTLOOK	[37B8!6B12!3]	;TTY, KEYBOARD CHECK
   200		037340	000003		OPDEF	TTALTM	[37B8!7B12!3]	;TTY, ALT-MODE CHECK
   201		037400	000003		OPDEF	TTSIXB	[37B8!10B12!3]	;TTY, INPUT SIXBIT WORD
   202		037440	000003		OPDEF	TTYINP	[37B8!11B12!3]	;TTY, IMAGE MODE INPUT
DAKCA	PDP-10 KA10 ADVANCED INSTRUCTION DIAGNOSTIC #1, VER 0,2	MACRO %52(537) 12:25 21-JAN-77 PAGE 4
PARAM	KLM	18-JAN-77 11:38		*PARAM* PROGRAM/SUBROUTINE PARAMETERS, JAN 18,1977                                 SEQ 0017

   203					;*TERMINAL OUTPUT UUO'S.
   204
   205		037000	000000		OPDEF	PNTA	[37B8!0B12!0]	;PRINT ASCII WORD
   206		037000	000001		OPDEF	PNTAF	[37B8!0B12!1]	;PRINT ASCII WORD FORCED
   207		037740	000000		OPDEF	PNTAL	[37B8!17B12!0]	;PRINT ASCIZ LINE
   208		037740	000001		OPDEF	PNTALF	[37B8!17B12!1]	;PRINT ASCIZ LINE FORCED
   209		037600	000003		OPDEF	PSIXL	[37B8!14B12!3]	;PRINT SIXBIT'Z LINE
   210		037640	000003		OPDEF	PSIXLF	[37B8!15B12!3]	;PRINT SIXBIT'Z LINE FORCED
   211		037000	000000		OPDEF	PNTMSG	[37B8!0B12!0]	;PRINT MESSAGE IMMEDIATE
   212		037040	000000		OPDEF	PNTMSF	[37B8!1B12!0]	;PRINT MESSAGE IMMEDIATE FORCED
   213		037100	000000		OPDEF	PSIXM	[37B8!2B12!0]	;PRINT SIXBIT'Z MSG IMMEDIATE
   214		037200	000000		OPDEF	PSIXMF	[37B8!4B12!0]	;PRINT SIXBIT'Z MSG IMM FORCED
   215		037000	000000		OPDEF	PNTCI	[37B8!0B12!0]	;PRINT CHARACTER IMMEDIATE
   216		037040	000000		OPDEF	PNTCIF	[37B8!1B12!0]	;PRINT CHARACTER IMMEDIATE FORCED
   217		037500	000000		OPDEF	PNTCHR	[37B8!12B12!0]	;PRINT CHARACTER
   218		037500	000001		OPDEF	PNTCHF	[37B8!12B12!1]	;PRINT CHARACTER FORCED
   219		037040	000000		OPDEF	PNT1	[37B8!1B12!0]	;PRINT ONE OCTAL DIGIT
   220		037040	000001		OPDEF	PNT1F	[37B8!1B12!1]	;PRINT 1 OCTAL DIGIT FORCED
   221		037100	000000		OPDEF	PNT2	[37B8!2B12!0]	;PRINT TWO OCTAL DIGITS
   222		037100	000001		OPDEF	PNT2F	[37B8!2B12!1]	;PRINT 2 OCTAL DIGITS FORCED
   223		037140	000000		OPDEF	PNT3	[37B8!3B12!0]	;PRINT THREE OCTAL DIGITS
   224		037140	000001		OPDEF	PNT3F	[37B8!3B12!1]	;PRINT THREE OCTAL DIGITS FORCED
   225		037200	000000		OPDEF	PNT4	[37B8!4B12!0]	;PRINT FOUR OCTAL DIGITS
   226		037200	000001		OPDEF	PNT4F	[37B8!4B12!1]	;PRINT FOUR OCTAL DIGITS FORCED
   227		037240	000000		OPDEF	PNT5	[37B8!5B12!0]	;PRINT FIVE OCTAL DIGITS
   228		037240	000001		OPDEF	PNT5F	[37B8!5B12!1]	;PRINT FIVE OCTAL DIGITS FORCED
   229		037300	000000		OPDEF	PNT6	[37B8!6B12!0]	;PRINT SIX OCTAL DIGITS
   230		037300	000001		OPDEF	PNT6F	[37B8!6B12!1]	;PRINT SIX OCTAL DIGITS FORCED
   231		037340	000000		OPDEF	PNT7	[37B8!7B12!0]	;PRINT 7 OCTAL DIGITS
   232		037340	000001		OPDEF	PNT7F	[37B8!7B12!1]	;PRINT 7 OCTAL DIGITS FORCED
   233		037440	000000		OPDEF	PNT11	[37B8!11B12!0]	;PRINT 11 OCTAL DIGITS
   234		037440	000001		OPDEF	PNT11F	[37B8!11B12!1]	;PRINT 11 OCTAL DIGITS FORCED.
   235		037400	000000		OPDEF	PNTADR	[37B8!10B12!0]	;PRINT PHYSICAL ADDRESS
   236		037400	000001		OPDEF	PNTADF	[37B8!10B12!1]	;PRINT PHYSICAL ADDRESS FORCED
   237		037600	000000		OPDEF	PNTOCT  [37B8!14B12!0]	;PRINT FULL WORD OCTAL
   238		037600	000001		OPDEF	PNTOTF	[37B8!14B12!1]	;PRINT FULL WORD OCTAL FORCED
   239		037540	000000		OPDEF	PNTHW	[37B8!13B12!0]	;PRINT OCTAL HALF WORDS, 6 SP 6
   240		037540	000001		OPDEF	PNTHWF	[37B8!13B12!1]	;PRINT OCTAL HALF WORDS, 6 SP 6 FORCED
   241		037700	000003		OPDEF	PNTOCS	[37B8!16B12!3]	;PRINT OCTAL, SUPPRESS LEADING 0'S
   242		037740	000003		OPDEF	PNTOCF	[37B8!17B12!3]	;PRINT OCTAL, SUPPRESS LEADING 0'S FORCED
   243		037640	000000		OPDEF	PNTDEC	[37B8!15B12!0]	;PRINT DECIMAL, SUPRESS LEADING 0'S
   244		037640	000001		OPDEF	PNTDCF	[37B8!15B12!1]	;PRINT DECIMAL, SUPRESS LEADING 0'S FORCED
   245		037700	000000		OPDEF	PNTDS	[37B8!16B12!0]	;PRINT DECIMAL, SPACES FOR LD 0'S
   246		037700	000001		OPDEF	PNTDSF	[37B8!16B12!1]	;PRINT DECIMAL, SPACES FOR LD 0'S FORCED
   247		037200	000002		OPDEF	PNTNM	[37B8!4B12!2]	;PRINT PROGRAM NAME
   248		037000	000002		OPDEF	PNTSIX	[37B8!0B12!2]	;PRINT SIXBIT WORD
   249		037040	000002		OPDEF	PNTSXF	[37B8!1B12!2]	;PRINT SIXBIT WORD FORCED
   250		037240	000002		OPDEF	DROPDV	[37B8!5B12!2]	;CLOSE LOGICAL FILE, USER MODE
   251		037100	000002		OPDEF	PNTCW	[37B8!2B12!2]	;PRINT DF10 CONTROL WORD
   252		037140	000002		OPDEF	PNTCWF	[37B8!3B12!2]	;PRINT DF10 CONTROL WORD FORCED
   253		037000	030242		OPDEF	PCRL	[37B8!0B12!CRLF] ;PRINT CARRIAGE RETURN/LINE FEED
   254		037040	030242		OPDEF	PCRLF	[37B8!1B12!CRLF] ;PRINT CARRIAGE RETURN/LINE FEED FORCED
   255		037000	000040		OPDEF	PSP	[37B8!0B12!40]	;PRINT SPACE
   256		037040	000040		OPDEF	PSPF	[37B8!1B12!40]	;PRINT SPACE FORCED
   257		037000	030243		OPDEF	PCRL2	[37B8!0B12!CRLF2] ;PRINT CARRIAGE RETURN/LINE FEED (TWICE)
DAKCA	PDP-10 KA10 ADVANCED INSTRUCTION DIAGNOSTIC #1, VER 0,2	MACRO %52(537) 12:25 21-JAN-77 PAGE 4-1
PARAM	KLM	18-JAN-77 11:38		*PARAM* PROGRAM/SUBROUTINE PARAMETERS, JAN 18,1977                                 SEQ 0018

   258		037040	030243		OPDEF	PCRL2F	[37B8!1B12!CRLF2] ;PRINT CARRIAGE RETURN/LINE FEED (TWICE) FORCED
   259		037040	000007		OPDEF	PBELL	[37B8!1B12!7]	;PRINT TTY BELL
   260
   261		037040	000026		OPDEF	PFORCE	[37B8!1B12!26]	;PRINT FORCE, CONTROL O OVERRIDE
   262
   263					DEFINE	PMSG	(ARG),<
   264						PSIXM	[SIXBIT\ARG'_\]>
   265
   266					DEFINE	PMSGF	(ARG),<
   267						PSIXMF	[SIXBIT\ARG'_\]>
   268
   269					;*SIXBTZ -- MACRO TO GENERATE SIXBIT DATA FOR PRINTING
   270					;*	CONSERVES CORE OVER ASCIZ
   271
   272					DEFINE	SIXBTZ	(ARG),<	[SIXBIT\ARG'_\]>
   273
   274					;*CONSOLE SWITCH INPUT UUO.
   275					;*READS CONSOLE SWITCHES IF IN EXEC MODE OR ASKS FOR THEM IF
   276					;* USER MODE.
   277
   278		037400	000002		OPDEF	SWITCH	[37B8!10B12!2]	;INPUT CONSOLE SWITCHES
   279
   280					;*CLOCK INITIALIZATION UUO - TO SET DESIRED CLOCK OPERATION
   281					;*EITHER IGNORE CLOCK, ONLY LET IT TICK OR CAUSE INTERRUPT TO OCCUR.
   282
   283		037540	000004		OPDEF	CLOKOP	[37B8!13B12!4]	;CLOCK OPERATION UUO - PDP-11 CLOCK
   284		037200	000004		OPDEF	MTROP	[37B8!4B12!4]	;CLOCK OPERATION UUO - DK20 METER
   285
   286					;*KL10 ONLY CACHE OPERATION UUO'S
   287
   288		037040	000004		OPDEF	CINVAL	[37B8!1B12!4]	;CACHE INVALIDATE
   289		037100	000004		OPDEF	CFLUSH	[37B8!2B12!4]	;CACHE FLUSH
   290		037140	000004		OPDEF	CWRTBI	[37B8!3B12!4]	;CACHE WRITE-BACK & INVALIDATE
DAKCA	PDP-10 KA10 ADVANCED INSTRUCTION DIAGNOSTIC #1, VER 0,2	MACRO %52(537) 12:25 21-JAN-77 PAGE 5
PARAM	KLM	18-JAN-77 11:38		*PARAM* PROGRAM/SUBROUTINE PARAMETERS, JAN 18,1977                                 SEQ 0019

   291					;*END OF PASS/PROGRAM UUOS
   292
   293					;PERFORMS THE END OF PASS FUNCTIONS. INCREMENT PASS COUNT,
   294					;*DECREMENT ITERATION COUNT, CHECK IF FINISHED WITH THIS PROGRAM ETC.
   295
   296		037500	000004		OPDEF	ENDUUO	[37B8!12B12!4]	;UUO TO DISPLAY LIGHTS
   297		037700	000004		OPDEF	EOPUUO	[37B8!16B12!4]	;END OF PROGRAM UUO
   298
   299					;*MEMORY MANAGEMENT UUO'S
   300					;*UUO'S TO PERFORM VARIOUS MEMORY FUNCTIONS. MAPPING, ZEROING, PAGING,
   301					;*ADDRESS CONVERSION, ETC...
   302
   303		037000	000004		OPDEF	MAPMEM	[37B8!0B12!4]	;MAP MEMORY
   304		037500	000002		OPDEF	MEMZRO	[37B8!12B12!2]	;ZERO MEMORY
   305		037440	000002		OPDEF	MEMSEG	[37B8!11B12!2]	;SETUP MEMORY SEGMENT
   306		037540	000002		OPDEF	MAPADR	[37B8!13B12!2]	;VIRTUAL TO PHYSICAL ADR CONVERT
   307		037640	000002		OPDEF	MAPCNK	[37B8!15B12!2]	;MAP MEMORY CHUNK
   308		037600	000002		OPDEF	MAPSET	[37B8!14B12!2]	;SET KI10 EXEC PAGE MAP
   309		037740	000002		OPDEF	MAPPNT	[37B8!17B12!2]	;PRINT MEMORY MAP
   310
   311					;*DEVICE CODE MODIFICATION UUO
   312					;*ALLOWS THE MODIFICATION OF IOT'S TO ONE DEVICE TO BE CHANGED TO
   313					;*IOT'S TO A DIFFERENT DEVICE CODE.
   314
   315		037340	000002		OPDEF	MODPCU	[37B8!7B12!2]	;MODIFY PERHIPERAL CODE, USER
   316		037300	000002		OPDEF	MODPCP	[37B8!6B12!2]	;MODIFY PERHIPERAL CODE, PROGRAM
   317
   318			030000			IFNDEF	MODDVL,<MODDVL==BEGIN>
   319			030000			IFNDEF	MODDVU,<MODDVU==BEGIN>
   320
   321					;*"DIAMON" FILE SELECTION AND READ UUOS
   322
   323		037240	000004		OPDEF	FSELECT	[37B8!5B12!4]	;FILE SELECTION
   324		037300	000004		OPDEF	FREAD	[37B8!6B12!4]	;FILE READ - ASCII DATA
   325		037340	000004		OPDEF	FRD36	[37B8!7B12!4]	;FILE READ - 36 BIT DATA
   326		037400	000004		OPDEF	FRD8	[37B8!10B12!4]	;FILE READ - 8 BIT DATA
   327
   328					;*KI10 ONLY UUO FOR PRINTING MARGIN VALUES
   329
   330		037700	000002		OPDEF	PNTMGN	[37B8!16B12!2]	;PRINT MARGIN VALUE
   331
   332						XLIST
   333						LIST
DAKCA	PDP-10 KA10 ADVANCED INSTRUCTION DIAGNOSTIC #1, VER 0,2	MACRO %52(537) 12:25 21-JAN-77 PAGE 1
FIXED	KLM	18-JAN-77 11:39		*FIXED* FIXED CONTROL AND DISPATCH STORAGE, JAN 18,1977                            SEQ 0020

   334					SUBTTL	*FIXED* FIXED CONTROL AND DISPATCH STORAGE, JAN 18,1977
   335
   336	030000					LOC	30000
   337
   338					S^;*********************************************************************^
   339					;*PROGRAM STARTING ADDRESSES
   340					;*THESE ADDRESSES CALL VARIOUS SPECIAL START ROUTINES AND OR OPTIONS
   341					;*NORMAL START ADDRESS IS 30000 ALL OTHERS ARE SPECIAL. INVOKED BECAUSE
   342					;*OF END OF PASS, POWER FAILURE, DDT START, RE-ENTERING(TYPICALLY USER
   343					;*MODE), OR ANY NUMBER OF SPECIAL FEATURE TESTS.
   344					S^;*********************************************************************^
   345
   346	030000	254 00 1 00 027776 	BEGIN:	JRST	@MODLNK		;STAND-ALONE START
   347	030001	254 00 0 00 030624 	$START:	JRST	START		;MODE CHECK STARTING ADDRESS
   348
   349	030002	254 00 1 00 027774 	DIAGMN:	JRST	@LDLNK		;DIAGNOSTIC MONITOR START
   350
   351	030003	254 00 1 00 027774 	SYSEXR:	JRST	@LDLNK		;SYSTEM EXERCISER START
   352
   353	030004	254 00 0 00 030000 	SFSTRT:	JRST	SADR1		;SPECIAL FEATURE START
   354
   355	030005	254 00 0 00 030076 	PFSTRT:	JRST	SADR2		;POWER FAIL RESTART
   356
   357	030006	254 00 0 00 030600 	REENTR:	JRST	SADR3		;REENTER START(USUALLY USER MODE ONLY)
   358
   359	030007				SRTDDT:				;COMMONLY MISTAKEN NAME FOR "DDTSRT"
   360	030007	254 00 1 00 027775 	DDTSRT:	JRST	@DDTLNK		;DDT START
   361
   362	030010	254 00 0 00 030627 	BEGIN1:	JRST	STARTA		;LOOP START(END OF PASS COMES HERE)
   363	030011	254 00 1 00 027777 	SBINIT:	JRST	@SUBLNK		;PMGINT LINKAGE
   364	030012	000000	000000		RETURN:	0			;RETURN ADDRESS STORAGE
   365
   366	030013	254200	030000		START1:	SADR7			;OPTIONAL STARTING ADR/INSTRUCTIONS
   367	030014	254200	030000		START2:	SADR8			; "
   368	030015	254200	030000		START3:	SADR9			; "
   369	030016	254200	030000		START4:	SADR10			; "
   370	030017	254200	030000		START5:	SADR11			; "
DAKCA	PDP-10 KA10 ADVANCED INSTRUCTION DIAGNOSTIC #1, VER 0,2	MACRO %52(537) 12:25 21-JAN-77 PAGE 2
FIXED	KLM	18-JAN-77 11:39		*FIXED* FIXED CONTROL AND DISPATCH STORAGE, JAN 18,1977                            SEQ 0021

   371					S^;*********************************************************************^
   372					;*PROGRAM FIXED PARAMETER AREA
   373					S^;*********************************************************************^
   374
   375	030020	444153	434100		PNTNAM:	PAREA3		;SIXBIT PROGRAM NAME
   376	030021	645560	000000		PNTEXT:	PAREA4		;SIXBIT PROGRAM EXTENSION
   377	030022	000000	000000		RANDBS:	PAREA1		;RANDOM BASE NUMBER
   378	030023	000000	000000		SWTEXR:	PAREA2		;SYSTEM EXERCISER SWITCHES
   379	030024	000000	001000		ITRCNT:	ITERAT		;PROGRAM ITERATIONS
   380	030025	000000	030602		$PNAME:	PGMNAM		;POINTER TO PROGRAMS NAME
   381	030026	000000	000002		$PVER:	MCNVER,,DECVER	;MCN & DEC VERSION LEVEL
   382	030027	000000	030000		$MODVL:	MODDVL		;DEVICE CODE CHANGE LOWER LIMIT
   383	030030	000000	030000		$MODVU:	MODDVU		;DEVICE CODE CHANGE UPPER LIMIT
   384	030031	777777	777777		$EMODE:	IFNDEF EXCASB,<0> IFDEF EXCASB,<-1>	;EXEC ALLOWED
   385	030032	777777	777777		$UMODE:	IFNDEF USRASB,<0> IFDEF USRASB,<-1>	;USER ALLOWED
   386	030033	000000	000000		$DSKUP:	IFNDEF DSKUPD,<0> IFDEF DSKUPD,<-1>	;DISK UPDATE MODE
   387	030034	000000	000000		$MMAP:	IFNDEF MEMMAP,<0> IFDEF MEMMAP,<-1>	;ALLOW MEMORY RTNS
   388	030035	000000	000000		PAREA7:	PAREA5		;OPTIONAL PARAMETER
   389	030036	000000	000000		PAREA8:	PAREA6		;OPTIONAL PARAMETER
   390
   391					S^;*********************************************************************^
   392					;*PROGRAM VARIABLE PARAMETER AREA
   393					S^;*********************************************************************^
   394
   395	030037	000000	000000		USER:	0		; 0 = EXEC, -1 = USER MODE FLAG
   396	030040	000000	000000		KAIFLG:	0		;PROCESSOR TYPE, 0 = KA10, -1 = KI10
   397	030041	000000	000000		KLFLG:	0		;PROCESSOR TYPE, 0 = KA/KI, -1 = KL10
   398	030042	777777	777777		MONFLG:	-1		;DIAG MONITOR SPECIAL USER FLAG
   399	030043	000000	000000		MONCTL:	0		;DIAG MON/SYS EXR FLAG
   400	030044	000000	000000		MONTEN:	0		;-1= LOADED BY 10
   401	030045	000000	000000		CLOCKF:	0		;CLOCK TICKED FLAG
   402	030046	000000	000000		CONSW:	0		;CONSOLE SWITCH SETTINGS
   403	030047	000000	000000		PASCNT:	0		;PROGRAM PASS COUNT
   404	030050	000000	000000		RUNFLG:	0		;PROGRAM RUN FLAG
   405	030051	000000	000000		TESTPC:	0		;SUBTEST PC
   406	030052	000000	000000		ERRPC:	0		;ERROR PC
   407	030053	000000	000000		ERRTLS:	0		;ERROR TOTALS
   408	030054	000000	000000		TICKS:	0		;PROGRAM RUNNING TIME
   409	030055	000000	000000		MARGIN:	0		;KI10 MARGIN WORD VALUE
   410	030056	000000	000000		$ONETM:	0		;SUBROUTINE INITIALIZATION FLAG
DAKCA	PDP-10 KA10 ADVANCED INSTRUCTION DIAGNOSTIC #1, VER 0,2	MACRO %52(537) 12:25 21-JAN-77 PAGE 3
FIXED	KLM	18-JAN-77 11:39		*FIXED* FIXED CONTROL AND DISPATCH STORAGE, JAN 18,1977                            SEQ 0022

   411					S^;*********************************************************************^
   412					;*SPECIAL PROGRAM DISPATCH ADDRESSES
   413					S^;*********************************************************************^
   414
   415	030057	037 12 0 00 000004 	BEGEND:	ENDUUO		;END OF PASS
   416	030060	254 00 0 00 030010 	$BEND1:	JRST	BEGIN1	;KEEP RUNNING PROGRAM
   417	030061	037 16 0 00 000004 	$BEND2:	EOPUUO		;END OF PROGRAM - NO RETURN
   418	030062	000000	030000		CNTLC:	SADR5		;CONTROL C XFER ADDRESS
   419	030063	000000	030000		ALTMGO:	SADR6		;ALTMODE XFER ADDRESS
   420	030064				CPOPJ1:			;SKIP RETURN
   421	030064	350 00 0 17 000000 	UUOSKP:	AOS	(P)	;SKIP RETURN FROM UUO
   422	030065				CPOPJ:			;NON-SKIP REGULAR RETURN
   423	030065	263 17 0 00 000000 	UUOEXT:	RTN		;UUO RETURN
   424	030066	255 00 0 00 000000 	UUORTN:	JFCL		;ADDITIONAL USERS UUO ROUTINE
   425	030067	255 00 0 00 000000 	$UORTX:	JFCL		;ADDITIONAL UUO LINKAGE
   426	030070	255 00 0 00 000000 	$UUOER:	JFCL		;INITED AS (JRST $UOERX)
   427	030071	255 00 0 00 000000 	$ITRHL:	JFCL		;ADDITIONAL INTERRUPT LINKAGE
   428	030072	255 00 0 00 000000 	$ITRX1:	JFCL		; "
   429	030073	255 00 0 00 000000 	$USRHL:	JFCL		; "
   430	030074	255 00 0 00 000000 	$RSRTX:	JFCL		;ADDITIONAL POWER FAIL LINKAGE
   431	030075	255 00 0 00 000000 	$RSRTY:	JFCL		; "
   432	030076	255 00 0 00 000000 	RESRT1:	JFCL		; INITED AS (JRST RESRTX)
   433	030077	255 00 0 00 000000 	RESRT2:	JFCL		; "
   434	030100	255 00 0 00 000000 	$PARER:	JFCL		;ADDITIONAL PARITY ERROR LINKAGE
   435	030101	255 00 0 00 000000 	ERMORE:	JFCL		;ADDITIONAL ERROR HANDLER LINKAGE
   436	030102	254 04 0 00 030102 		HALT	.	;IMPROPER TRANSFER HALT
   437
   438	030103	000000	000000		$PSHER:	0		;INITED AS (JRST PSHERR)
   439	030104	000000	000000		ITRCH1:	0		;PC & FLAGS OF CURRENT INTERRUPT
   440	030105	000000	000000			0		;INITED AS (JRST $ITRC1)
   441
   442					S^;*********************************************************************^
   443					;*PROCESSOR CONTROL STORAGE
   444					S^;*********************************************************************^
   445
   446	030106	000000	000000		$ACC0:	0		;INTERRUPT SAVED AC0
   447	030107	000000	000000		$SVPI:	0		;INTERRUPT SAVED PI
   448	030110	000000	000000		$SVAPR:	0		;INTERRUPT SAVED APR
   449	030111	000000	000000		$SVPAG:	0		;INTERRUPT SAVED PAG (DATAI)
   450	030112	000000	000000		$SPAG1:	0		;INTERRUPT SAVED PAG (CONI)
   451
   452	030113	000000	000000		$SVUUO:	0		;CURRENT USERS UUO
   453	030114	000000	000000		$SVUPC:	0		;PC OF CURRENT USERS UUO
   454
   455	030115	000000	000000		REPTU:	0		;REPEAT UUO ITERATIONS
   456	030116	000000	000000		SCOPE:	0		;ERROR HANDLER SCOPE LOOP FLAG
   457	030117	000000	000000		%CORFLG:0		; " CORRECT FLAG
   458	030120	000000	000000		%COREC:	0		; " CORRECT DATA
   459	030121	000000	000000		%ACTFL:	0		; " ACTUAL FLAG
   460	030122	000000	000000		%ACTUL:	0		; " ACTUAL DATA
   461	030123	000000	000000		%DISCR:	0		; " DISCREPENCY DATA
DAKCA	PDP-10 KA10 ADVANCED INSTRUCTION DIAGNOSTIC #1, VER 0,2	MACRO %52(537) 12:25 21-JAN-77 PAGE 4
FIXED	KLM	18-JAN-77 11:39		*FIXED* FIXED CONTROL AND DISPATCH STORAGE, JAN 18,1977                            SEQ 0023

   462					S^;*********************************************************************^
   463					;*UUO DISPATCH TABLE
   464					S^;*********************************************************************^
   465						XLIST
   466						LIST
   467	030124	037615	030070		UUODIS:	LUUO1,,$UUOER
   468	030125	037615	037615			LUUO3,,LUUO2
   469	030126	037615	037615			LUUO5,,LUUO4
   470	030127	037615	037615			LUUO7,,LUUO6
   471	030130	037615	037615			LUUO11,,LUUO10
   472	030131	037615	037615			LUUO13,,LUUO12
   473	030132	030070	030070			LUUO15,,LUUO14
   474	030133	030070	030070			LUUO17,,LUUO16
   475	030134	030070	030070			LUUO21,,LUUO20
   476	030135	030070	030070			LUUO23,,LUUO22
   477	030136	030070	030070			LUUO25,,LUUO24
   478	030137	030070	030070			LUUO27,,LUUO26
   479	030140	030070	030070			LUUO31,,LUUO30
   480	030141	030070	030070			LUUO33,,LUUO32
   481
   482					S^;*********************************************************************^
   483					;*MEMORY MANAGMENT STORAGE
   484					S^;*********************************************************************^
   485
   486	030142	000000	000000		DF22F:	0		;DF10 CONTROL FLAG, 0 = 18, -1 = 22 BIT
   487	030143	000000	000000		MAPNEW:	0		;MEMORY MAPPING CONTROL FLAG, -1 = 4096K MAPPING
   488	030144	000000	000000		MEMTOT:	0		;TOTAL MEMORY SIZE IN K (1024.)
   489	030145	000000	000000		MEMLOW:	0		;LOWEST USABLE MEMORY
   490	030146				MEMSIZ:	BLOCK ^D41	;MEMORY SEGMENT POINTER TABLE
   491
   492					S^;*********************************************************************^
   493					;*PRINT CONTROL STORAGE
   494					S^;*********************************************************************^
   495
   496	030217	000000	000000		PNTFLG:	0		;PRINT FLAG, -1 WHILE IN PRINT ROUTINE
   497	030220	000000	000000		PNTENB:	0		;PRINT ENABLE
   498	030221	000000	000000		PDISF:	0		;PRINT DISABLED FLAG
   499	030222	000000	000000		PNTINH:	0		;INHIBIT PRINT INPUT CHECKS
   500	030223	000000	000000		PNTSPC:	0		;PRINT SPACE CONTROL
   501	030224	000000	000000		OPTIME:	0		;TYPE-IN WAIT TIME
   502	030225	000000	000000		$TWCNT:	0		;TIME WAITED
   503	030226	000000	000000		$DVOFF:	0		;LOGICAL DEVICE INITED FLAG
   504	030227	000000	000000		TTYFIL:	0		;TTY EXEC FILLERS FLAG
   505	030230	000000	000000		TTYSPD:	0		;TTY EXEC BAUD RATE
   506	030231	000000	000000		$TTCHR:	0		;ACTUAL TYPED IN CHAR
   507	030232	000000	000000		$CHRIN:	0		;UPPER CASED & PARITY STRIPPED CHAR
   508	030233	000000	000000		$TYPNB:	0		;TYPED IN NUMBER
   509	030234	000000	000000		$CRLF:	0		;FREE CR/LF FLAG
   510	030235	000000	000000		$TABF:	0		;TAB CONVERSION FLAG
   511	030236	000000	000000		$FFF:	0		;FORM FEED CONVERSION FLAG
   512	030237	000000	000000		$VTF:	0		;VERTICAL TAB CONVERSION FLAG
   513	030240	000000	000000		USRLFF:	0		;USER LF FILLERS
   514	030241	000000	000000		USRCRF:	0		;USER CR FILLERS
DAKCA	PDP-10 KA10 ADVANCED INSTRUCTION DIAGNOSTIC #1, VER 0,2	MACRO %52(537) 12:25 21-JAN-77 PAGE 5
FIXED	KLM	18-JAN-77 11:39		*FIXED* FIXED CONTROL AND DISPATCH STORAGE, JAN 18,1977                            SEQ 0024

   515					S^;*********************************************************************^
   516					;*THE FOLLOWING MISCELLANEOUS PRINT CHARACTERS ARE INCLUDED
   517					;*TO FACILITATE PRINTING AND ARE CALLED AS FOLLOWS:
   518					;*	MOVEI	NAME
   519					;*	PNTA		;OR PNTAF
   520					S^;*********************************************************************^
   521
   522	030242				CRLF:	ASCII/
   523	030242	015 012 000 000 000 	/
   524	030243				CRLF2:	ASCII/
   525
   526	030243	015 012 015 012 000 	/
   527	030244	054 000 000 000 000 	COMMA:	ASCII/,/
   528	030245	056 000 000 000 000 	PERIOD:	ASCII/./
   529	030246	040 000 000 000 000 	SPACE:	ASCII/ /
   530	030247	011 000 000 000 000 	TAB:	ASCII/	/
   531	030250				MINUS:
   532	030250	055 000 000 000 000 	HYPEN:	ASCII/-/
   533	030251	053 000 000 000 000 	PLUS:	ASCII/+/
   534	030252	052 000 000 000 000 	AST:	ASCII/*/
   535	030253	100 000 000 000 000 	ATSIN:	ASCII/@/
   536	030254	050 000 000 000 000 	LFP:	ASCII/(/
   537	030255	051 000 000 000 000 	RTP:	ASCII/)/
   538	030256	007 0000000000 		BELL:	BYTE (7) 007
   539	030257	077 000 000 000 000 	QUEST:	ASCII/?/
   540	030260	057 000 000 000 000 	SLASH:	ASCII!/!
   541	030261	044 000 000 000 000 	DOLLAR:	ASCII/$/
   542	030262	000000	000012		RADIX:	^D10			;DECIMAL PRINT RADIX
   543	030263	000000	000040		RADLSP:	40			;DECIMAL PRINT LEADING CHAR
   544	030264	000000	000012		RADLSC:	^D10			;DECIMAL PRINT LEADING CHAR COUNT
   545
   546					S^;*********************************************************************^
   547					;*USER MODE OUTPUT FILE INFORMATION
   548					S^;*********************************************************************^
   549
   550	030265				$OBUF:	BLOCK	3		;LOGICAL FILE OUTPUT BUFFER HEADER
   551	030270	60 62 51 56 64 00 	$OUTNM:	SIXBIT	/PRINT/		;FILE NAME
   552	030271	60 56 64 00 00 00 	$OUTEX:	SIXBIT	/PNT/		;FILE NAME EXTENSION
   553	030272					BLOCK	2
   554
   555					S^;*********************************************************************^
   556					;*DISK UPDATE MODE FILE INFORMATION
   557					S^;*********************************************************************^
   558
   559	030274				$IBUF:	BLOCK	3
   560	030277	60 62 51 56 64 00 	$INNM:	SIXBIT	/PRINT/
   561	030300	60 56 64 00 00 00 	$INEXT:	SIXBIT	/PNT/
   562	030301					BLOCK	2
DAKCA	PDP-10 KA10 ADVANCED INSTRUCTION DIAGNOSTIC #1, VER 0,2	MACRO %52(537) 12:25 21-JAN-77 PAGE 6
FIXED	KLM	18-JAN-77 11:39		*FIXED* FIXED CONTROL AND DISPATCH STORAGE, JAN 18,1977                            SEQ 0025

   563					S^;*********************************************************************^
   564					;*PUSHDOWN LIST CONTROL INFORMATION
   565					S^;*********************************************************************^
   566
   567	030303	777577	030303		PLIST:	PLIST-PLISTE,,PLIST
   568	030304				PLISTS:	BLOCK	200
   569	030504	000000	000000		PLISTE:	0		;END OF PUSHDOWN LIST
   570
   571					S^;*********************************************************************^
   572					;*POWER LINE CLOCK FREQUENCY FLAG
   573					S^;*********************************************************************^
   574
   575	030505	000000	000000		CYCL60:	0	;0 = 60, -1 = 50 CYCLE
   576
   577					S^;*********************************************************************^
   578					;*KL10 CACHE CONTROL FLAGS
   579					S^;*********************************************************************^
   580
   581	030506	000000	000000		CSHFLG:	0	;ALLOW CACHE IF 0
   582	030507	000000	000000		CSHMEM:	0	;CACHE MEMORY SEGMENTS IF 0
   583
   584					S^;*********************************************************************^
   585					;*NUMBER INPUT DIGIT FLAG
   586					S^;*********************************************************************^
   587
   588	030510	000000	000000		TTNBRF:	0	;-1 IF ANY DIGIT TYPED
   589
   590					S^;*********************************************************************^
   591					;*KL10 & KI10 "INHPAG" SWITCH PAGING PREVENTION
   592					S^;*********************************************************************^
   593
   594	030511	000000	000000		PVPAGI:	0	;IF NON-ZERO, OVERRIDE "INHPAG" SWITCH ACTION
   595
   596					S^;*********************************************************************^
   597					;*ERROR REPORTING ROUTINE ADDITIONAL USERS CONTROL INSTRUCTIONS
   598					S^;*********************************************************************^
   599
   600	030512	000000	000000		%ERHI1:	0	;IF NON-ZERO, XCT'D AT START OF %ERUUO
   601	030513	000000	000000		%ERHI2:	0	;IF NON-ZERO, XCT'D AT END OF %ERUUO
   602	030514	000000	000000		%ERHI3:	0	;IF NON-ZERO, XCT'D AFTER "PC" OF %ERUUO
   603
   604					S^;*********************************************************************^
   605					;*SPECIAL USERS UUO INTERCEPT INSTRUCTION
   606					S^;*********************************************************************^
   607
   608	030515	000000	000000		$$UUO:	0	;IF NON-ZERO, XCT'D AT START OF $UORTN
DAKCA	PDP-10 KA10 ADVANCED INSTRUCTION DIAGNOSTIC #1, VER 0,2	MACRO %52(537) 12:25 21-JAN-77 PAGE 7
FIXED	KLM	18-JAN-77 11:39		*FIXED* FIXED CONTROL AND DISPATCH STORAGE, JAN 18,1977                            SEQ 0026

   609					S^;*********************************************************************^
   610					;*KL10 PROCESSOR TYPE FLAG, 0=P0, 1=BBD NEW, 2=BBD OLD
   611					S^;*********************************************************************^
   612
   613	030516	000000	000000		KLTYP:	0
   614
   615					S^;*********************************************************************^
   616					;*SPECIAL USERS MUUO INTERCEPT INSTRUCTION
   617					S^;*********************************************************************^
   618
   619	030517	000000	000000		$$MUUO:	0	;IF NON-ZERO, XCT'D AT START OF MUUOER
   620
   621					S^;*********************************************************************^
   622					;*SPECIAL USERS USER MODE OUTPUT ERROR INTERCEPT INSTUCTION
   623					S^;*********************************************************************^
   624
   625	030520	000000	000000		$$OUTER:0	;IF NON-ZERO, XCT'D AT END OF USER MODE ERROR
   626
   627					S^;*********************************************************************^
   628					;*"SWITCH" CALL USAGE CONTROL
   629					S^;*********************************************************************^
   630
   631	030521	000000	000000		$$TOGGLE:0	;IF NON-ZERO, USE C(CONSW) FOR SWITCHES
   632
   633					S^;*********************************************************************^
   634					;*SPECIAL USERS ALTMODE SWITCH CALL INTERCEPT INSTRUCTIONS
   635					S^;*********************************************************************^
   636
   637	030522	000000	000000		$$TAX1:	0	;IF NON-ZERO, XCT'D AT START OF ALTMODE SWITCH CALL
   638	030523	000000	000000		$$TAX2:	0	;IF NON-ZERO, XCT'D AT END OF ALTMODE SWITCH CALL
   639
   640					S^;*********************************************************************^
   641					;*SPECIAL FUTURE EXPANSION ROOM
   642					;*IF ANY FIXED AREA TAGS ARE ADDED, REDUCE THE SIZE OF
   643					;*THIS BLOCK STATEMENT ACCORDINGLY.  THIS MUST BE DONE
   644					;*SO THAT PREVIOUS FIXED ASSIGNMENTS DO NOT CHANGE.
   645					S^;*********************************************************************^
   646
   647	030524					BLOCK	53	;HOPEFULLY THIS IS ENOUGH FOREVER
   648
   649					S^;*********************************************************************^
   650					;*END OF FIXED STORAGE
   651					S^;*********************************************************************^
   652
   653			030577			$ENDFX=<PLISTE+100>&<777700>-1
   654	030577					LOC	$ENDFX
   655	030577	000000	000000		ENDFIX:	0		;END OF FIXED STORAGE
DAKCA	PDP-10 KA10 ADVANCED INSTRUCTION DIAGNOSTIC #1, VER 0,2	MACRO %52(537) 12:25 21-JAN-77 PAGE 1
DAKCAM	MAC	21-JAN-77 11:41		DIAGNOSTIC SECTION                                                                 SEQ 0027

   656					SUBTTL	DIAGNOSTIC SECTION
   657					;	GENERAL DESCRIPTION
   658					;PART   IA  -FSC AND NORMALIZE RETURN
   659					;PART   IB  -FAD AND NORMALIZE RETURN
   660					;PART   IC  -FAD LONG,NORMALIZE RETURN AND ROUND
   661					;PART   ID  -FSB AND UFA
   662					;PART   IE  -GEN TEST FSC,FAD,FADR,FSB,FSBR AND UFA
   663
   664	030600	037 05 0 00 000002 	RENTR1:	DROPDV			;CLOSE LOGICAL OUTPUT FILE
   665	030601	040 00 0 00 040006 		CALL	[SIXBIT .EXIT.]
   666
   667	030602				PGMNAM:	ASCIZ?
   668	030602	015 012 120 104 120 	PDP-10 KA10 ADVANCED INSTRUCTION DIAGNOSTIC #1 (DAKCA)
   669	030603	055 061 060 040 113
   670	030604	101 061 060 040 101
   671	030605	104 126 101 116 103
   672	030606	105 104 040 111 116
   673	030607	123 124 122 125 103
   674	030610	124 111 117 116 040
   675	030611	104 111 101 107 116
   676	030612	117 123 124 111 103
   677	030613	040 043 061 040 050
   678	030614	104 101 113 103 101
   679	030615	051 015 012 050 106 	(FSC, FLOATING ADD/SUB, UFA)
   680	030616	123 103 054 040 106
   681	030617	114 117 101 124 111
   682	030620	116 107 040 101 104
   683	030621	104 057 123 125 102
   684	030622	054 040 125 106 101
   685	030623	051 015 012 000 000 	?
   686					;INITIALIZE SUBROUTINES
   687
   688	030624	265 00 0 00 030011 	START:	PGMINT
   689	030625	200 00 0 00 040007 		MOVE	[ASCIZ/CA/]
   690	030626	202 00 0 00 037730 		MOVEM	TLET		;INITIALIZE TEST LETTER
   691
   692	030627	254 00 0 00 030630 	STARTA:	JRST	CA00		;GO PERFORM DIAGNOSTIC
DAKCA	PDP-10 KA10 ADVANCED INSTRUCTION DIAGNOSTIC #1, VER 0,2	MACRO %52(537) 12:25 21-JAN-77 PAGE 2
DAKCAM	MAC	21-JAN-77 11:41		PART I.A - FSC AND NORMALIZE RETURN                                                SEQ 0028

   693					SUBTTL	PART I.A - FSC AND NORMALIZE RETURN
   694
   695					;PART I.A - FSC AND NORMALIZE RETURN
   696					;FAILURE RESULTS IN A LOSS
   697					;OF EXPONENT
   698					;AC=570400000000
   699					;SCALE=7
   700					;FINAL AC=777400000000
   701
   702	030630				CA00:	LALL
   703
   704			000013			AC=13
   705						SAVEAC	(1,1)^
   706	030630	201 15 0 00 030630 		MOVEI	AC+2,.
   707	030631	202 15 0 00 030051 		MOVEM	AC+2,TESTPC	;SETUP SUBTEST PC
   708	030632	201 15 0 00 000015 		MOVEI	AC+2,<AC+2>&17	;INFORM ERROR ROUTINE WHICH
   709	030633	202 15 0 00 040244 		MOVEM	AC+2,ERRLOP#	;AC IS USED FOR ITERATION^
   710
   711	030634	205 11 0 00 777400 	O12300:	MOVSI	AC-2,777400	;SETUP FOR COMPARISON
   712	030635	205 13 0 00 570400 		MOVSI	AC,570400	;SETUP AC
   713	030636	132 13 0 00 000007 		FSC	AC,7		;RESCALE
   714	030637	316 13 0 00 000011 		CAMN	AC,AC-2		;TEST AC=777400000000
   715	030640	003 13 0 00 012301 		ER3	AC,12301
   716	030641	321 15 0 00 030634 		JUMPL	AC+2,O12300	;LOOP ON ERROR SWITCH
   717
   718					;AC=000400000000
   719					;SCALE=0
   720					;FAILURE RESULTS IN AN EXPONENT
   721					;EQUAL TO 376
   722
   723			000012			AC=12
   724						SAVEAC	(1,1)^
   725	030642	201 14 0 00 030642 		MOVEI	AC+2,.
   726	030643	202 14 0 00 030051 		MOVEM	AC+2,TESTPC	;SETUP SUBTEST PC
   727	030644	201 14 0 00 000014 		MOVEI	AC+2,<AC+2>&17	;INFORM ERROR ROUTINE WHICH
   728	030645	202 14 0 00 040244 		MOVEM	AC+2,ERRLOP#	;AC IS USED FOR ITERATION^
   729
   730	030646	205 10 0 00 376400 	O12400:	MOVSI	AC-2,376400	;SETUP FOR COMPARISON
   731	030647	205 12 0 00 000400 		MOVSI	AC,400		;SETUP AC
   732	030650	132 12 0 00 000000 		FSC	AC,0		;RESCALE
   733	030651	316 12 0 00 000010 		CAMN	AC,AC-2		;TEST EXP=376
   734	030652	003 12 0 00 012401 		ER3	AC,12401	;SCAD SC COMP SETUP FAILED
   735	030653	321 14 0 00 030646 		JUMPL	AC+2,O12400	;LOOP ON ERROR SWITCH
DAKCA	PDP-10 KA10 ADVANCED INSTRUCTION DIAGNOSTIC #1, VER 0,2	MACRO %52(537) 12:25 21-JAN-77 PAGE 3
DAKCAM	MAC	21-JAN-77 11:41		PART I.A - FSC AND NORMALIZE RETURN                                                SEQ 0029

   736					;AC=175400000000
   737					;SCALE=0
   738					;FAILURE RESULTS IN AN EXPONENT
   739					;EQUAL TO 002
   740
   741			000011			AC=11
   742						SAVEAC	(1,1)^
   743	030654	201 13 0 00 030654 		MOVEI	AC+2,.
   744	030655	202 13 0 00 030051 		MOVEM	AC+2,TESTPC	;SETUP SUBTEST PC
   745	030656	201 13 0 00 000013 		MOVEI	AC+2,<AC+2>&17	;INFORM ERROR ROUTINE WHICH
   746	030657	202 13 0 00 040244 		MOVEM	AC+2,ERRLOP#	;AC IS USED FOR ITERATION^
   747
   748	030660	205 07 0 00 177400 	O12500:	MOVSI	AC-2,177400	;SETUP FOR COMPARISON
   749	030661	205 11 0 00 175400 		MOVSI	AC,175400	;SETUP AC
   750	030662	132 11 0 00 000000 		FSC	AC,0		;RESCALE
   751	030663	316 11 0 00 000007 		CAMN	AC,AC-2		;TEST EXP=177
   752	030664	003 11 0 00 012501 		ER3	AC,12501
   753	030665	321 13 0 00 030660 		JUMPL	AC+2,O12500	;LOOP ON ERROR SWITCH
   754
   755					;AC=000400000000
   756					;SCALE=0
   757					;FAILURE OF 1, 2, OR 3 RESULTS IN AN
   758					;EXPONENT EQUAL TO 377
   759
   760			000010			AC=10
   761						SAVEAC	(1,1)^
   762	030666	201 12 0 00 030666 		MOVEI	AC+2,.
   763	030667	202 12 0 00 030051 		MOVEM	AC+2,TESTPC	;SETUP SUBTEST PC
   764	030670	201 12 0 00 000012 		MOVEI	AC+2,<AC+2>&17	;INFORM ERROR ROUTINE WHICH
   765	030671	202 12 0 00 040244 		MOVEM	AC+2,ERRLOP#	;AC IS USED FOR ITERATION^
   766
   767	030672	205 06 0 00 377400 	O12600:	MOVSI	AC-2,377400	;SETUP FOR COMPARISON
   768	030673	205 10 0 00 000400 		MOVSI	AC,400		;SETUP AC
   769	030674	132 10 0 00 000000 		FSC	AC,0		;RESCALE
   770	030675	316 10 0 00 000006 		CAMN	AC,AC-2		;TEST EXP=377
   771	030676	003 10 0 00 012601 		ER3	AC,12601
   772	030677	321 12 0 00 030672 		JUMPL	AC+2,O12600	;LOOP ON ERROR SWITCH
DAKCA	PDP-10 KA10 ADVANCED INSTRUCTION DIAGNOSTIC #1, VER 0,2	MACRO %52(537) 12:25 21-JAN-77 PAGE 4
DAKCAM	MAC	21-JAN-77 11:41		PART I.A - FSC AND NORMALIZE RETURN                                                SEQ 0030

   773					;AC=000400000000
   774					;SCALE=177
   775					;FAILURE RESULTS IN AN
   776					;EXPONENT=0
   777
   778			000007			AC=7
   779						SAVEAC	(1,1)^
   780	030700	201 11 0 00 030700 		MOVEI	AC+2,.
   781	030701	202 11 0 00 030051 		MOVEM	AC+2,TESTPC	;SETUP SUBTEST PC
   782	030702	201 11 0 00 000011 		MOVEI	AC+2,<AC+2>&17	;INFORM ERROR ROUTINE WHICH
   783	030703	202 11 0 00 040244 		MOVEM	AC+2,ERRLOP#	;AC IS USED FOR ITERATION^
   784
   785	030704	205 05 0 00 000400 	O12700:	MOVSI	AC-2,400	;SETUP FOR COMPARISON
   786	030705	205 07 0 00 000400 		MOVSI	AC,400		;SETUP AC
   787	030706	132 07 0 00 000177 		FSC	AC,177		;RESCALE
   788	030707	316 07 0 00 000005 		CAMN	AC,AC-2		;TEST EXP=0
   789	030710	003 07 0 00 012701 		ER3	AC,12701
   790	030711	321 11 0 00 030704 		JUMPL	AC+2,O12700	;LOOP ON ERROR SWITCH
   791					PAGE
DAKCA	PDP-10 KA10 ADVANCED INSTRUCTION DIAGNOSTIC #1, VER 0,2	MACRO %52(537) 12:25 21-JAN-77 PAGE 4-1
DAKCAM	MAC	21-JAN-77 11:41		PART I.A - FSC AND NORMALIZE RETURN                                                SEQ 0031

   792					;AC=000400000000
   793					;SCALE=201,202,204,210,220,240,300
   794					;FAILURE OF A BIT TO SET RESULTS IN AN
   795					;EXPONENT EQUAL TO 200
   796
   797			000006			AC=6
   798						SAVEAC	(1,1)^
   799	030712	201 10 0 00 030712 		MOVEI	AC+2,.
   800	030713	202 10 0 00 030051 		MOVEM	AC+2,TESTPC	;SETUP SUBTEST PC
   801	030714	201 10 0 00 000010 		MOVEI	AC+2,<AC+2>&17	;INFORM ERROR ROUTINE WHICH
   802	030715	202 10 0 00 040244 		MOVEM	AC+2,ERRLOP#	;AC IS USED FOR ITERATION^
   803
   804			013000		SN=13000
   805			000000			ZZ=0
   806
   807							;TEST BITS 8-2
   808					O13000:	REPEAT	^D7,<
   809					SN=SN+1
   810						ZZ=ZZ+ZZ
   811						IFE	ZZ,<ZZ=1>
   812						MOVSI	AC-2,200400	;SETUP FOR COMPARISON
   813						MOVSI	AC,400		;SETUP AC
   814						FSC	AC,200+ZZ	;RESCALE
   815						CAMN	AC,AC-2		;TEST EXP=200
   816						ER3	AC,SN		;BIT UNDER TEST FAILED TO SET
   817						JUMPL	AC+2,.-5	;LOOP ON ERROR SWITCH
   818					>
   819
   820			013001		SN=SN+1
   821			000000			ZZ=ZZ+ZZ
   822			000001			IFE	ZZ,<ZZ=1>
   823	030716	205 04 0 00 200400 		MOVSI	AC-2,200400	;SETUP FOR COMPARISON
   824	030717	205 06 0 00 000400 		MOVSI	AC,400		;SETUP AC
   825	030720	132 06 0 00 000201 		FSC	AC,200+ZZ	;RESCALE
   826	030721	316 06 0 00 000004 		CAMN	AC,AC-2		;TEST EXP=200
   827	030722	003 06 0 00 013001 		ER3	AC,SN		;BIT UNDER TEST FAILED TO SET
   828	030723	321 10 0 00 030716 		JUMPL	AC+2,.-5	;LOOP ON ERROR SWITCH
   829
   830
   831			013002		SN=SN+1
   832			000002			ZZ=ZZ+ZZ
   833						IFE	ZZ,<ZZ=1>
   834	030724	205 04 0 00 200400 		MOVSI	AC-2,200400	;SETUP FOR COMPARISON
   835	030725	205 06 0 00 000400 		MOVSI	AC,400		;SETUP AC
   836	030726	132 06 0 00 000202 		FSC	AC,200+ZZ	;RESCALE
   837	030727	316 06 0 00 000004 		CAMN	AC,AC-2		;TEST EXP=200
   838	030730	003 06 0 00 013002 		ER3	AC,SN		;BIT UNDER TEST FAILED TO SET
   839	030731	321 10 0 00 030724 		JUMPL	AC+2,.-5	;LOOP ON ERROR SWITCH
   840
   841
   842			013003		SN=SN+1
   843			000004			ZZ=ZZ+ZZ
   844						IFE	ZZ,<ZZ=1>
   845	030732	205 04 0 00 200400 		MOVSI	AC-2,200400	;SETUP FOR COMPARISON
   846	030733	205 06 0 00 000400 		MOVSI	AC,400		;SETUP AC
DAKCA	PDP-10 KA10 ADVANCED INSTRUCTION DIAGNOSTIC #1, VER 0,2	MACRO %52(537) 12:25 21-JAN-77 PAGE 4-2
DAKCAM	MAC	21-JAN-77 11:41		PART I.A - FSC AND NORMALIZE RETURN                                                SEQ 0032

   847	030734	132 06 0 00 000204 		FSC	AC,200+ZZ	;RESCALE
   848	030735	316 06 0 00 000004 		CAMN	AC,AC-2		;TEST EXP=200
   849	030736	003 06 0 00 013003 		ER3	AC,SN		;BIT UNDER TEST FAILED TO SET
   850	030737	321 10 0 00 030732 		JUMPL	AC+2,.-5	;LOOP ON ERROR SWITCH
   851
   852
   853			013004		SN=SN+1
   854			000010			ZZ=ZZ+ZZ
   855						IFE	ZZ,<ZZ=1>
   856	030740	205 04 0 00 200400 		MOVSI	AC-2,200400	;SETUP FOR COMPARISON
   857	030741	205 06 0 00 000400 		MOVSI	AC,400		;SETUP AC
   858	030742	132 06 0 00 000210 		FSC	AC,200+ZZ	;RESCALE
   859	030743	316 06 0 00 000004 		CAMN	AC,AC-2		;TEST EXP=200
   860	030744	003 06 0 00 013004 		ER3	AC,SN		;BIT UNDER TEST FAILED TO SET
   861	030745	321 10 0 00 030740 		JUMPL	AC+2,.-5	;LOOP ON ERROR SWITCH
   862
   863
   864			013005		SN=SN+1
   865			000020			ZZ=ZZ+ZZ
   866						IFE	ZZ,<ZZ=1>
   867	030746	205 04 0 00 200400 		MOVSI	AC-2,200400	;SETUP FOR COMPARISON
   868	030747	205 06 0 00 000400 		MOVSI	AC,400		;SETUP AC
   869	030750	132 06 0 00 000220 		FSC	AC,200+ZZ	;RESCALE
   870	030751	316 06 0 00 000004 		CAMN	AC,AC-2		;TEST EXP=200
   871	030752	003 06 0 00 013005 		ER3	AC,SN		;BIT UNDER TEST FAILED TO SET
   872	030753	321 10 0 00 030746 		JUMPL	AC+2,.-5	;LOOP ON ERROR SWITCH
   873
   874
   875			013006		SN=SN+1
   876			000040			ZZ=ZZ+ZZ
   877						IFE	ZZ,<ZZ=1>
   878	030754	205 04 0 00 200400 		MOVSI	AC-2,200400	;SETUP FOR COMPARISON
   879	030755	205 06 0 00 000400 		MOVSI	AC,400		;SETUP AC
   880	030756	132 06 0 00 000240 		FSC	AC,200+ZZ	;RESCALE
   881	030757	316 06 0 00 000004 		CAMN	AC,AC-2		;TEST EXP=200
   882	030760	003 06 0 00 013006 		ER3	AC,SN		;BIT UNDER TEST FAILED TO SET
   883	030761	321 10 0 00 030754 		JUMPL	AC+2,.-5	;LOOP ON ERROR SWITCH
   884
   885
   886			013007		SN=SN+1
   887			000100			ZZ=ZZ+ZZ
   888						IFE	ZZ,<ZZ=1>
   889	030762	205 04 0 00 200400 		MOVSI	AC-2,200400	;SETUP FOR COMPARISON
   890	030763	205 06 0 00 000400 		MOVSI	AC,400		;SETUP AC
   891	030764	132 06 0 00 000300 		FSC	AC,200+ZZ	;RESCALE
   892	030765	316 06 0 00 000004 		CAMN	AC,AC-2		;TEST EXP=200
   893	030766	003 06 0 00 013007 		ER3	AC,SN		;BIT UNDER TEST FAILED TO SET
   894	030767	321 10 0 00 030762 		JUMPL	AC+2,.-5	;LOOP ON ERROR SWITCH
   895
DAKCA	PDP-10 KA10 ADVANCED INSTRUCTION DIAGNOSTIC #1, VER 0,2	MACRO %52(537) 12:25 21-JAN-77 PAGE 5
DAKCAM	MAC	21-JAN-77 11:41		PART I.A - FSC AND NORMALIZE RETURN                                                SEQ 0033

   896					;TEST ABILITY TO TRANSFER ZERO'S
   897					;TEST ABILITY TO CLEAR SC8-2
   898					;EXPONENT =1,2,4,10,20,40,100
   899					;SCALE = 375,373,367,357,337,277,177
   900					;FAILURE OF A BIT TO CLEAR RESULTS
   901					;IN AN EXPONENT = 377
   902
   903			000005			AC=5
   904						SAVEAC	(1,1)^
   905	030770	201 07 0 00 030770 		MOVEI	AC+2,.
   906	030771	202 07 0 00 030051 		MOVEM	AC+2,TESTPC	;SETUP SUBTEST PC
   907	030772	201 07 0 00 000007 		MOVEI	AC+2,<AC+2>&17	;INFORM ERROR ROUTINE WHICH
   908	030773	202 07 0 00 040244 		MOVEM	AC+2,ERRLOP#	;AC IS USED FOR ITERATION^
   909
   910			013100		SN=13100
   911			000200			WW=200
   912			001000			XX=1000
   913			000176			ZZ=176
   914
   915							;TEST BITS 8-2
   916					O13100:	REPEAT  ^D7,<
   917					SN=SN+1
   918						WW=WW+WW
   919						XX=XX+WW
   920						ZZ=ZZ+ZZ+1
   921						MOVSI	AC-2,377400	;SETUP FOR COMPARISON
   922						MOVSI	AC,XX		;SETUP AC
   923						FSC	AC,ZZ		;RESCALE
   924						CAMN	AC,AC-2		;TEST EXP = 377
   925						ER3	AC,SN		;BIT UNDER TEST FAILED TO CLEAR
   926						JUMPL	AC+2,.-5	;LOOP ON ERROR SWITCH
   927					>
   928
   929			013101		SN=SN+1
   930			000400			WW=WW+WW
   931			001400			XX=XX+WW
   932			000375			ZZ=ZZ+ZZ+1
   933	030774	205 03 0 00 377400 		MOVSI	AC-2,377400	;SETUP FOR COMPARISON
   934	030775	205 05 0 00 001400 		MOVSI	AC,XX		;SETUP AC
   935	030776	132 05 0 00 000375 		FSC	AC,ZZ		;RESCALE
   936	030777	316 05 0 00 000003 		CAMN	AC,AC-2		;TEST EXP = 377
   937	031000	003 05 0 00 013101 		ER3	AC,SN		;BIT UNDER TEST FAILED TO CLEAR
   938	031001	321 07 0 00 030774 		JUMPL	AC+2,.-5	;LOOP ON ERROR SWITCH
   939
   940
   941			013102		SN=SN+1
   942			001000			WW=WW+WW
   943			002400			XX=XX+WW
   944			000773			ZZ=ZZ+ZZ+1
   945	031002	205 03 0 00 377400 		MOVSI	AC-2,377400	;SETUP FOR COMPARISON
   946	031003	205 05 0 00 002400 		MOVSI	AC,XX		;SETUP AC
   947	031004	132 05 0 00 000773 		FSC	AC,ZZ		;RESCALE
   948	031005	316 05 0 00 000003 		CAMN	AC,AC-2		;TEST EXP = 377
   949	031006	003 05 0 00 013102 		ER3	AC,SN		;BIT UNDER TEST FAILED TO CLEAR
   950	031007	321 07 0 00 031002 		JUMPL	AC+2,.-5	;LOOP ON ERROR SWITCH
DAKCA	PDP-10 KA10 ADVANCED INSTRUCTION DIAGNOSTIC #1, VER 0,2	MACRO %52(537) 12:25 21-JAN-77 PAGE 5-1
DAKCAM	MAC	21-JAN-77 11:41		PART I.A - FSC AND NORMALIZE RETURN                                                SEQ 0034

   951
   952
   953			013103		SN=SN+1
   954			002000			WW=WW+WW
   955			004400			XX=XX+WW
   956			001767			ZZ=ZZ+ZZ+1
   957	031010	205 03 0 00 377400 		MOVSI	AC-2,377400	;SETUP FOR COMPARISON
   958	031011	205 05 0 00 004400 		MOVSI	AC,XX		;SETUP AC
   959	031012	132 05 0 00 001767 		FSC	AC,ZZ		;RESCALE
   960	031013	316 05 0 00 000003 		CAMN	AC,AC-2		;TEST EXP = 377
   961	031014	003 05 0 00 013103 		ER3	AC,SN		;BIT UNDER TEST FAILED TO CLEAR
   962	031015	321 07 0 00 031010 		JUMPL	AC+2,.-5	;LOOP ON ERROR SWITCH
   963
   964
   965			013104		SN=SN+1
   966			004000			WW=WW+WW
   967			010400			XX=XX+WW
   968			003757			ZZ=ZZ+ZZ+1
   969	031016	205 03 0 00 377400 		MOVSI	AC-2,377400	;SETUP FOR COMPARISON
   970	031017	205 05 0 00 010400 		MOVSI	AC,XX		;SETUP AC
   971	031020	132 05 0 00 003757 		FSC	AC,ZZ		;RESCALE
   972	031021	316 05 0 00 000003 		CAMN	AC,AC-2		;TEST EXP = 377
   973	031022	003 05 0 00 013104 		ER3	AC,SN		;BIT UNDER TEST FAILED TO CLEAR
   974	031023	321 07 0 00 031016 		JUMPL	AC+2,.-5	;LOOP ON ERROR SWITCH
   975
   976
   977			013105		SN=SN+1
   978			010000			WW=WW+WW
   979			020400			XX=XX+WW
   980			007737			ZZ=ZZ+ZZ+1
   981	031024	205 03 0 00 377400 		MOVSI	AC-2,377400	;SETUP FOR COMPARISON
   982	031025	205 05 0 00 020400 		MOVSI	AC,XX		;SETUP AC
   983	031026	132 05 0 00 007737 		FSC	AC,ZZ		;RESCALE
   984	031027	316 05 0 00 000003 		CAMN	AC,AC-2		;TEST EXP = 377
   985	031030	003 05 0 00 013105 		ER3	AC,SN		;BIT UNDER TEST FAILED TO CLEAR
   986	031031	321 07 0 00 031024 		JUMPL	AC+2,.-5	;LOOP ON ERROR SWITCH
   987
   988
   989			013106		SN=SN+1
   990			020000			WW=WW+WW
   991			040400			XX=XX+WW
   992			017677			ZZ=ZZ+ZZ+1
   993	031032	205 03 0 00 377400 		MOVSI	AC-2,377400	;SETUP FOR COMPARISON
   994	031033	205 05 0 00 040400 		MOVSI	AC,XX		;SETUP AC
   995	031034	132 05 0 00 017677 		FSC	AC,ZZ		;RESCALE
   996	031035	316 05 0 00 000003 		CAMN	AC,AC-2		;TEST EXP = 377
   997	031036	003 05 0 00 013106 		ER3	AC,SN		;BIT UNDER TEST FAILED TO CLEAR
   998	031037	321 07 0 00 031032 		JUMPL	AC+2,.-5	;LOOP ON ERROR SWITCH
   999
  1000
  1001			013107		SN=SN+1
  1002			040000			WW=WW+WW
  1003			100400			XX=XX+WW
  1004			037577			ZZ=ZZ+ZZ+1
  1005	031040	205 03 0 00 377400 		MOVSI	AC-2,377400	;SETUP FOR COMPARISON
DAKCA	PDP-10 KA10 ADVANCED INSTRUCTION DIAGNOSTIC #1, VER 0,2	MACRO %52(537) 12:25 21-JAN-77 PAGE 5-2
DAKCAM	MAC	21-JAN-77 11:41		PART I.A - FSC AND NORMALIZE RETURN                                                SEQ 0035

  1006	031041	205 05 0 00 100400 		MOVSI	AC,XX		;SETUP AC
  1007	031042	132 05 0 00 037577 		FSC	AC,ZZ		;RESCALE
  1008	031043	316 05 0 00 000003 		CAMN	AC,AC-2		;TEST EXP = 377
  1009	031044	003 05 0 00 013107 		ER3	AC,SN		;BIT UNDER TEST FAILED TO CLEAR
  1010	031045	321 07 0 00 031040 		JUMPL	AC+2,.-5	;LOOP ON ERROR SWITCH
  1011
  1012					PAGE
DAKCA	PDP-10 KA10 ADVANCED INSTRUCTION DIAGNOSTIC #1, VER 0,2	MACRO %52(537) 12:25 21-JAN-77 PAGE 5-3
DAKCAM	MAC	21-JAN-77 11:41		PART I.A - FSC AND NORMALIZE RETURN                                                SEQ 0036

  1013					;AC=200400000000
  1014					;SCALE=5
  1015					;FAILURE OF ANY ONE RESULTS IN LOSS
  1016					;OF THE EXPONENT. THE RESULTANT EXPONENT
  1017					;IS EQUAL TO THE SCALING FACTOR
  1018
  1019			000014			AC=14
  1020						SAVEAC	(1,1)^
  1021	031046	201 16 0 00 031046 		MOVEI	AC+2,.
  1022	031047	202 16 0 00 030051 		MOVEM	AC+2,TESTPC	;SETUP SUBTEST PC
  1023	031050	201 16 0 00 000016 		MOVEI	AC+2,<AC+2>&17	;INFORM ERROR ROUTINE WHICH
  1024	031051	202 16 0 00 040244 		MOVEM	AC+2,ERRLOP#	;AC IS USED FOR ITERATION^
  1025
  1026	031052	205 12 0 00 005400 	O13200:	MOVSI	AC-2,5400	;SETUP FOR COMPARISON
  1027	031053	205 14 0 00 200400 		MOVSI	AC,200400	;SETUP AC
  1028	031054	132 14 0 00 000005 		FSC	AC,5		;RESCALE
  1029	031055	316 14 0 00 000012 		CAMN	AC,AC-2		;TEST EXP=5
  1030	031056	003 14 0 00 013201 		ER3	AC,13201
  1031	031057	321 16 0 00 031052 		JUMPL	AC+2,O13200	;LOOP ON ERROR SWITCH
DAKCA	PDP-10 KA10 ADVANCED INSTRUCTION DIAGNOSTIC #1, VER 0,2	MACRO %52(537) 12:25 21-JAN-77 PAGE 6
DAKCAM	MAC	21-JAN-77 11:41		PART I.A - FSC AND NORMALIZE RETURN                                                SEQ 0037

  1032					;EXPONENT = 201,202,204,210,220,240,300
  1033					;SCALE=0
  1034					;FAILURE OF A BIT TO SET RESULTS IN AN
  1035					;EXPONENT EQUAL TO 200
  1036
  1037			000014			AC=14
  1038						SAVEAC	(1,1)^
  1039	031060	201 16 0 00 031060 		MOVEI	AC+2,.
  1040	031061	202 16 0 00 030051 		MOVEM	AC+2,TESTPC	;SETUP SUBTEST PC
  1041	031062	201 16 0 00 000016 		MOVEI	AC+2,<AC+2>&17	;INFORM ERROR ROUTINE WHICH
  1042	031063	202 16 0 00 040244 		MOVEM	AC+2,ERRLOP#	;AC IS USED FOR ITERATION^
  1043
  1044			013300		SN=13300
  1045			000200			XX=200
  1046			201000			ZZ=201000
  1047
  1048							;TEST BITS 8-2
  1049					O13300:	REPEAT	^D7,<
  1050					SN=SN+1
  1051						XX=XX+XX
  1052						ZZ=ZZ+XX
  1053						MOVSI	AC-2,200400	;SETUP FOR COMPARISON
  1054						MOVSI	AC,ZZ		;SETUP AC
  1055						FSC	AC,0		;RESCALE
  1056						CAMN	AC,AC-2		;TEST EXP=200
  1057						ER3	AC,SN		;GATE UNDER TEST FAILED TO SET
  1058						JUMPL	AC+2,.-5	;LOOP ON ERROR SWITCH
  1059					>
  1060
  1061			013301		SN=SN+1
  1062			000400			XX=XX+XX
  1063			201400			ZZ=ZZ+XX
  1064	031064	205 12 0 00 200400 		MOVSI	AC-2,200400	;SETUP FOR COMPARISON
  1065	031065	205 14 0 00 201400 		MOVSI	AC,ZZ		;SETUP AC
  1066	031066	132 14 0 00 000000 		FSC	AC,0		;RESCALE
  1067	031067	316 14 0 00 000012 		CAMN	AC,AC-2		;TEST EXP=200
  1068	031070	003 14 0 00 013301 		ER3	AC,SN		;GATE UNDER TEST FAILED TO SET
  1069	031071	321 16 0 00 031064 		JUMPL	AC+2,.-5	;LOOP ON ERROR SWITCH
  1070
  1071
  1072			013302		SN=SN+1
  1073			001000			XX=XX+XX
  1074			202400			ZZ=ZZ+XX
  1075	031072	205 12 0 00 200400 		MOVSI	AC-2,200400	;SETUP FOR COMPARISON
  1076	031073	205 14 0 00 202400 		MOVSI	AC,ZZ		;SETUP AC
  1077	031074	132 14 0 00 000000 		FSC	AC,0		;RESCALE
  1078	031075	316 14 0 00 000012 		CAMN	AC,AC-2		;TEST EXP=200
  1079	031076	003 14 0 00 013302 		ER3	AC,SN		;GATE UNDER TEST FAILED TO SET
  1080	031077	321 16 0 00 031072 		JUMPL	AC+2,.-5	;LOOP ON ERROR SWITCH
  1081
  1082
  1083			013303		SN=SN+1
  1084			002000			XX=XX+XX
  1085			204400			ZZ=ZZ+XX
  1086	031100	205 12 0 00 200400 		MOVSI	AC-2,200400	;SETUP FOR COMPARISON
DAKCA	PDP-10 KA10 ADVANCED INSTRUCTION DIAGNOSTIC #1, VER 0,2	MACRO %52(537) 12:25 21-JAN-77 PAGE 6-1
DAKCAM	MAC	21-JAN-77 11:41		PART I.A - FSC AND NORMALIZE RETURN                                                SEQ 0038

  1087	031101	205 14 0 00 204400 		MOVSI	AC,ZZ		;SETUP AC
  1088	031102	132 14 0 00 000000 		FSC	AC,0		;RESCALE
  1089	031103	316 14 0 00 000012 		CAMN	AC,AC-2		;TEST EXP=200
  1090	031104	003 14 0 00 013303 		ER3	AC,SN		;GATE UNDER TEST FAILED TO SET
  1091	031105	321 16 0 00 031100 		JUMPL	AC+2,.-5	;LOOP ON ERROR SWITCH
  1092
  1093
  1094			013304		SN=SN+1
  1095			004000			XX=XX+XX
  1096			210400			ZZ=ZZ+XX
  1097	031106	205 12 0 00 200400 		MOVSI	AC-2,200400	;SETUP FOR COMPARISON
  1098	031107	205 14 0 00 210400 		MOVSI	AC,ZZ		;SETUP AC
  1099	031110	132 14 0 00 000000 		FSC	AC,0		;RESCALE
  1100	031111	316 14 0 00 000012 		CAMN	AC,AC-2		;TEST EXP=200
  1101	031112	003 14 0 00 013304 		ER3	AC,SN		;GATE UNDER TEST FAILED TO SET
  1102	031113	321 16 0 00 031106 		JUMPL	AC+2,.-5	;LOOP ON ERROR SWITCH
  1103
  1104
  1105			013305		SN=SN+1
  1106			010000			XX=XX+XX
  1107			220400			ZZ=ZZ+XX
  1108	031114	205 12 0 00 200400 		MOVSI	AC-2,200400	;SETUP FOR COMPARISON
  1109	031115	205 14 0 00 220400 		MOVSI	AC,ZZ		;SETUP AC
  1110	031116	132 14 0 00 000000 		FSC	AC,0		;RESCALE
  1111	031117	316 14 0 00 000012 		CAMN	AC,AC-2		;TEST EXP=200
  1112	031120	003 14 0 00 013305 		ER3	AC,SN		;GATE UNDER TEST FAILED TO SET
  1113	031121	321 16 0 00 031114 		JUMPL	AC+2,.-5	;LOOP ON ERROR SWITCH
  1114
  1115
  1116			013306		SN=SN+1
  1117			020000			XX=XX+XX
  1118			240400			ZZ=ZZ+XX
  1119	031122	205 12 0 00 200400 		MOVSI	AC-2,200400	;SETUP FOR COMPARISON
  1120	031123	205 14 0 00 240400 		MOVSI	AC,ZZ		;SETUP AC
  1121	031124	132 14 0 00 000000 		FSC	AC,0		;RESCALE
  1122	031125	316 14 0 00 000012 		CAMN	AC,AC-2		;TEST EXP=200
  1123	031126	003 14 0 00 013306 		ER3	AC,SN		;GATE UNDER TEST FAILED TO SET
  1124	031127	321 16 0 00 031122 		JUMPL	AC+2,.-5	;LOOP ON ERROR SWITCH
  1125
  1126
  1127			013307		SN=SN+1
  1128			040000			XX=XX+XX
  1129			300400			ZZ=ZZ+XX
  1130	031130	205 12 0 00 200400 		MOVSI	AC-2,200400	;SETUP FOR COMPARISON
  1131	031131	205 14 0 00 300400 		MOVSI	AC,ZZ		;SETUP AC
  1132	031132	132 14 0 00 000000 		FSC	AC,0		;RESCALE
  1133	031133	316 14 0 00 000012 		CAMN	AC,AC-2		;TEST EXP=200
  1134	031134	003 14 0 00 013307 		ER3	AC,SN		;GATE UNDER TEST FAILED TO SET
  1135	031135	321 16 0 00 031130 		JUMPL	AC+2,.-5	;LOOP ON ERROR SWITCH
  1136
DAKCA	PDP-10 KA10 ADVANCED INSTRUCTION DIAGNOSTIC #1, VER 0,2	MACRO %52(537) 12:25 21-JAN-77 PAGE 7
DAKCAM	MAC	21-JAN-77 11:41		PART I.A - FSC AND NORMALIZE RETURN                                                SEQ 0039

  1137					;TEST SC DATA1-8 GATES - (ZERO'S)
  1138					;TEST SCAD INPUT GATES - (ZERO'S)
  1139					;EXPONENT = 376,375,373,367,357,337,277,177
  1140					;SCALE = 1,2,4,10,20,40,100,200
  1141					;FAILURE RESULTS IN AN EXPONENT =
  1142					;0,1,3,7,17,37,77,177
  1143
  1144			000013			AC=13
  1145						SAVEAC	(1,1)^
  1146	031136	201 15 0 00 031136 		MOVEI	AC+2,.
  1147	031137	202 15 0 00 030051 		MOVEM	AC+2,TESTPC	;SETUP SUBTEST PC
  1148	031140	201 15 0 00 000015 		MOVEI	AC+2,<AC+2>&17	;INFORM ERROR ROUTINE WHICH
  1149	031141	202 15 0 00 040244 		MOVEM	AC+2,ERRLOP#	;AC IS USED FOR ITERATION^
  1150
  1151									;TEST SCAD8
  1152	031142	205 11 0 00 000400 	O13400:	MOVSI	AC-2,400	;SETUP FOR COMPARISON
  1153	031143	205 13 0 00 376400 		MOVSI	AC,376400	;SETUP AC
  1154	031144	132 13 0 00 000001 		FSC	AC,1		;RESCALE
  1155	031145	316 13 0 00 000011 		CAMN	AC,AC-2		;TEST EXP = 0
  1156	031146	003 13 0 00 013401 		ER3	AC,13401	;SCAD 8 SET
  1157	031147	321 15 0 00 031142 		JUMPL	AC+2,O13400	;LOOP ON ERROR SWITCH
  1158
  1159									;TEST SCAD7
  1160	031150	205 11 0 00 001400 	O13500:	MOVSI	AC-2,1400	;SETUP FOR COMPARISON
  1161	031151	205 13 0 00 375400 		MOVSI	AC,375400	;SETUP AC
  1162	031152	132 13 0 00 000002 		FSC	AC,2		;RESCALE
  1163	031153	316 13 0 00 000011 		CAMN	AC,AC-2		;TEST EXP=1
  1164	031154	003 13 0 00 013501 		ER3	AC,13501	;SCAD7 SET
  1165	031155	321 15 0 00 031150 		JUMPL	AC+2,O13500	;LOOP ON ERROR SWITCH
  1166
  1167									;TEST SCAD6
  1168	031156	205 11 0 00 003400 	O13600:	MOVSI	AC-2,3400	;SETUP FOR COMPARISON
  1169	031157	205 13 0 00 373400 		MOVSI	AC,373400	;SETUP AC
  1170	031160	132 13 0 00 000004 		FSC	AC,4		;RESCALE
  1171	031161	316 13 0 00 000011 		CAMN	AC,AC-2		;TEST EXP=3
  1172	031162	003 13 0 00 013601 		ER3	AC,13601	;SCAD6 SET
  1173	031163	321 15 0 00 031156 		JUMPL	AC+2,O13600	;LOOP ON ERROR SWITCH
  1174
  1175									;TEST SCAD5
  1176	031164	205 11 0 00 007400 	O13700:	MOVSI	AC-2,7400	;SETUP FOR COMPARISON
  1177	031165	205 13 0 00 367400 		MOVSI	AC,367400	;SETUP AC
  1178	031166	132 13 0 00 000010 		FSC	AC,10		;RESCALE
  1179	031167	316 13 0 00 000011 		CAMN	AC,AC-2		;TEST EXP=7
  1180	031170	003 13 0 00 013701 		ER3	AC,13701	;SCAD5 SET
  1181	031171	321 15 0 00 031164 		JUMPL	AC+2,O13700	;LOOP ON ERROR SWITCH
DAKCA	PDP-10 KA10 ADVANCED INSTRUCTION DIAGNOSTIC #1, VER 0,2	MACRO %52(537) 12:25 21-JAN-77 PAGE 8
DAKCAM	MAC	21-JAN-77 11:41		PART I.A - FSC AND NORMALIZE RETURN                                                SEQ 0040

  1182									;TEST SCAD4
  1183	031172	205 11 0 00 017400 	O14000:	MOVSI	AC-2,17400	;SETUP FOR COMPARISON
  1184	031173	205 13 0 00 357400 		MOVSI	AC,357400	;SETUP AC
  1185	031174	132 13 0 00 000020 		FSC	AC,20		;RESCALE
  1186	031175	316 13 0 00 000011 		CAMN	AC,AC-2		;TEST EXP=17
  1187	031176	003 13 0 00 014001 		ER3	AC,14001	;SCAD4 SET
  1188	031177	321 15 0 00 031172 		JUMPL	AC+2,O14000	;LOOP ON ERROR SWITCH
  1189
  1190									;TEST SCAD3
  1191	031200	205 11 0 00 037400 	O14100:	MOVSI	AC-2,37400	;SETUP FOR COMPARISON
  1192	031201	205 13 0 00 337400 		MOVSI	AC,337400	;SETUP AC
  1193	031202	132 13 0 00 000040 		FSC	AC,40		;RESCALE
  1194	031203	316 13 0 00 000011 		CAMN	AC,AC-2		;TEST EXP=37
  1195	031204	003 13 0 00 014101 		ER3	AC,14101	;SCAD3 SET
  1196	031205	321 15 0 00 031200 		JUMPL	AC+2,O14100	;LOOP ON ERROR SWITCH
  1197
  1198									;TEST SCAD2
  1199	031206	205 11 0 00 077400 	O14200:	MOVSI	AC-2,77400	;SETUP FOR COMPARISON
  1200	031207	205 13 0 00 277400 		MOVSI	AC,277400	;SETUP AC
  1201	031210	132 13 0 00 000100 		FSC	AC,100		;RESCALE
  1202	031211	316 13 0 00 000011 		CAMN	AC,AC-2		;TEST EXP=77
  1203	031212	003 13 0 00 014201 		ER3	AC,14201	;SCAD2 SET
  1204	031213	321 15 0 00 031206 		JUMPL	AC+2,O14200	;LOOP ON ERROR SWITCH
  1205
  1206									;TEST SCAD1
  1207	031214	205 11 0 00 177400 	O14300:	MOVSI	AC-2,177400	;SETUP FOR COMPARISON
  1208	031215	205 13 0 00 177400 		MOVSI	AC,177400	;SETUP AC
  1209	031216	132 13 0 00 000200 		FSC	AC,200		;RESCALE
  1210	031217	316 13 0 00 000011 		CAMN	AC,AC-2		;TEST EXP=177
  1211	031220	003 13 0 00 014301 		ER3	AC,14301	;SCAD1 SET
  1212	031221	321 15 0 00 031214 		JUMPL	AC+2,O14300	;LOOP ON ERROR SWITCH
DAKCA	PDP-10 KA10 ADVANCED INSTRUCTION DIAGNOSTIC #1, VER 0,2	MACRO %52(537) 12:25 21-JAN-77 PAGE 9
DAKCAM	MAC	21-JAN-77 11:41		PART I.A - FSC AND NORMALIZE RETURN                                                SEQ 0041

  1213					;AC=577200000000
  1214					;SCALE=1
  1215					;FAILURE RESULTS IN AN EXPONENT
  1216					;EQUAL TO 776
  1217
  1218			000012			AC=12
  1219						SAVEAC	(1,1)^
  1220	031222	201 14 0 00 031222 		MOVEI	AC+2,.
  1221	031223	202 14 0 00 030051 		MOVEM	AC+2,TESTPC	;SETUP SUBTEST PC
  1222	031224	201 14 0 00 000014 		MOVEI	AC+2,<AC+2>&17	;INFORM ERROR ROUTINE WHICH
  1223	031225	202 14 0 00 040244 		MOVEM	AC+2,ERRLOP#	;AC IS USED FOR ITERATION^
  1224
  1225	031226	205 10 0 00 776200 	O14400:	MOVSI	AC-2,776200	;SETUP FOR COMPARISON
  1226	031227	205 12 0 00 577200 		MOVSI	AC,577200	;SETUP AC
  1227	031230	132 12 0 00 000001 		FSC	AC,1		;RESCALE
  1228	031231	316 12 0 00 000010 		CAMN	AC,AC-2		;TEST EXP=776
  1229	031232	003 12 0 00 014401 		ER3	AC,14401
  1230	031233	321 14 0 00 031226 		JUMPL	AC+2,O14400	;LOOP ON ERROR SWITCH
  1231
  1232					;AC=577200000000
  1233					;SCALING FACTOR=0
  1234					;SETTING SCAD+1 EN RESULTS IN AN
  1235					;EXPONENT=576
  1236
  1237			000011			AC=11
  1238						SAVEAC	(1,1)^
  1239	031234	201 13 0 00 031234 		MOVEI	AC+2,.
  1240	031235	202 13 0 00 030051 		MOVEM	AC+2,TESTPC	;SETUP SUBTEST PC
  1241	031236	201 13 0 00 000013 		MOVEI	AC+2,<AC+2>&17	;INFORM ERROR ROUTINE WHICH
  1242	031237	202 13 0 00 040244 		MOVEM	AC+2,ERRLOP#	;AC IS USED FOR ITERATION^
  1243
  1244	031240	205 07 0 00 576200 	O14500:	MOVSI	AC-2,576200	;SETUP FOR COMPARISON
  1245	031241	205 11 0 00 577200 		MOVSI	AC,577200	;SETUP AC
  1246	031242	132 11 0 00 000000 		FSC	AC,0		;RESCALE
  1247	031243	316 11 0 00 000007 		CAMN	AC,AC-2		;TEST EXP=576
  1248	031244	003 11 0 00 014501 		ER3	AC,14501
  1249	031245	321 13 0 00 031240 		JUMPL	AC+2,O14500	;LOOP ON ERROR SWITCH
  1250					PAGE
DAKCA	PDP-10 KA10 ADVANCED INSTRUCTION DIAGNOSTIC #1, VER 0,2	MACRO %52(537) 12:25 21-JAN-77 PAGE 9-1
DAKCAM	MAC	21-JAN-77 11:41		PART I.A - FSC AND NORMALIZE RETURN                                                SEQ 0042

  1251					;TEST ABILITY TO TRANSFER ZERO'S
  1252					;EXP=776,775,773,767,757,737,677,577
  1253					;SCALING FACTOR=0
  1254					;FAILURE OF A BIT TO CLEAR RESULTS IN
  1255					;AN EXPONENT=777
  1256
  1257			000010			AC=10
  1258						SAVEAC	(1,1)^
  1259	031246	201 12 0 00 031246 		MOVEI	AC+2,.
  1260	031247	202 12 0 00 030051 		MOVEM	AC+2,TESTPC	;SETUP SUBTEST PC
  1261	031250	201 12 0 00 000012 		MOVEI	AC+2,<AC+2>&17	;INFORM ERROR ROUTINE WHICH
  1262	031251	202 12 0 00 040244 		MOVEM	AC+2,ERRLOP#	;AC IS USED FOR ITERATION^
  1263			014600		SN=14600
  1264			376400			ZZ=376400
  1265
  1266
  1267					O14600:	REPEAT	^D8,<
  1268					SN=SN+1
  1269						ZZ=<ZZ+ZZ+1000>&777777
  1270						MOVSI	AC-2,777200	;SETUP FOR COMPARISON
  1271						MOVSI	AC,200+ZZ	;SETUP AC
  1272						FSC	AC,0		;RESCALE
  1273						CAMN	AC,AC-2		;TEST EXP=777
  1274						ER3	AC,SN
  1275						JUMPL	AC+2,.-5	;LOOP ON ERROR SWITCH
  1276					>
  1277
  1278			014601		SN=SN+1
  1279			776000			ZZ=<ZZ+ZZ+1000>&777777
  1280	031252	205 06 0 00 777200 		MOVSI	AC-2,777200	;SETUP FOR COMPARISON
  1281	031253	205 10 0 00 776200 		MOVSI	AC,200+ZZ	;SETUP AC
  1282	031254	132 10 0 00 000000 		FSC	AC,0		;RESCALE
  1283	031255	316 10 0 00 000006 		CAMN	AC,AC-2		;TEST EXP=777
  1284	031256	003 10 0 00 014601 		ER3	AC,SN
  1285	031257	321 12 0 00 031252 		JUMPL	AC+2,.-5	;LOOP ON ERROR SWITCH
  1286
  1287
  1288			014602		SN=SN+1
  1289			775000			ZZ=<ZZ+ZZ+1000>&777777
  1290	031260	205 06 0 00 777200 		MOVSI	AC-2,777200	;SETUP FOR COMPARISON
  1291	031261	205 10 0 00 775200 		MOVSI	AC,200+ZZ	;SETUP AC
  1292	031262	132 10 0 00 000000 		FSC	AC,0		;RESCALE
  1293	031263	316 10 0 00 000006 		CAMN	AC,AC-2		;TEST EXP=777
  1294	031264	003 10 0 00 014602 		ER3	AC,SN
  1295	031265	321 12 0 00 031260 		JUMPL	AC+2,.-5	;LOOP ON ERROR SWITCH
  1296
  1297
  1298			014603		SN=SN+1
  1299			773000			ZZ=<ZZ+ZZ+1000>&777777
  1300	031266	205 06 0 00 777200 		MOVSI	AC-2,777200	;SETUP FOR COMPARISON
  1301	031267	205 10 0 00 773200 		MOVSI	AC,200+ZZ	;SETUP AC
  1302	031270	132 10 0 00 000000 		FSC	AC,0		;RESCALE
  1303	031271	316 10 0 00 000006 		CAMN	AC,AC-2		;TEST EXP=777
  1304	031272	003 10 0 00 014603 		ER3	AC,SN
  1305	031273	321 12 0 00 031266 		JUMPL	AC+2,.-5	;LOOP ON ERROR SWITCH
DAKCA	PDP-10 KA10 ADVANCED INSTRUCTION DIAGNOSTIC #1, VER 0,2	MACRO %52(537) 12:25 21-JAN-77 PAGE 9-2
DAKCAM	MAC	21-JAN-77 11:41		PART I.A - FSC AND NORMALIZE RETURN                                                SEQ 0043

  1306
  1307
  1308			014604		SN=SN+1
  1309			767000			ZZ=<ZZ+ZZ+1000>&777777
  1310	031274	205 06 0 00 777200 		MOVSI	AC-2,777200	;SETUP FOR COMPARISON
  1311	031275	205 10 0 00 767200 		MOVSI	AC,200+ZZ	;SETUP AC
  1312	031276	132 10 0 00 000000 		FSC	AC,0		;RESCALE
  1313	031277	316 10 0 00 000006 		CAMN	AC,AC-2		;TEST EXP=777
  1314	031300	003 10 0 00 014604 		ER3	AC,SN
  1315	031301	321 12 0 00 031274 		JUMPL	AC+2,.-5	;LOOP ON ERROR SWITCH
  1316
  1317
  1318			014605		SN=SN+1
  1319			757000			ZZ=<ZZ+ZZ+1000>&777777
  1320	031302	205 06 0 00 777200 		MOVSI	AC-2,777200	;SETUP FOR COMPARISON
  1321	031303	205 10 0 00 757200 		MOVSI	AC,200+ZZ	;SETUP AC
  1322	031304	132 10 0 00 000000 		FSC	AC,0		;RESCALE
  1323	031305	316 10 0 00 000006 		CAMN	AC,AC-2		;TEST EXP=777
  1324	031306	003 10 0 00 014605 		ER3	AC,SN
  1325	031307	321 12 0 00 031302 		JUMPL	AC+2,.-5	;LOOP ON ERROR SWITCH
  1326
  1327
  1328			014606		SN=SN+1
  1329			737000			ZZ=<ZZ+ZZ+1000>&777777
  1330	031310	205 06 0 00 777200 		MOVSI	AC-2,777200	;SETUP FOR COMPARISON
  1331	031311	205 10 0 00 737200 		MOVSI	AC,200+ZZ	;SETUP AC
  1332	031312	132 10 0 00 000000 		FSC	AC,0		;RESCALE
  1333	031313	316 10 0 00 000006 		CAMN	AC,AC-2		;TEST EXP=777
  1334	031314	003 10 0 00 014606 		ER3	AC,SN
  1335	031315	321 12 0 00 031310 		JUMPL	AC+2,.-5	;LOOP ON ERROR SWITCH
  1336
  1337
  1338			014607		SN=SN+1
  1339			677000			ZZ=<ZZ+ZZ+1000>&777777
  1340	031316	205 06 0 00 777200 		MOVSI	AC-2,777200	;SETUP FOR COMPARISON
  1341	031317	205 10 0 00 677200 		MOVSI	AC,200+ZZ	;SETUP AC
  1342	031320	132 10 0 00 000000 		FSC	AC,0		;RESCALE
  1343	031321	316 10 0 00 000006 		CAMN	AC,AC-2		;TEST EXP=777
  1344	031322	003 10 0 00 014607 		ER3	AC,SN
  1345	031323	321 12 0 00 031316 		JUMPL	AC+2,.-5	;LOOP ON ERROR SWITCH
  1346
  1347
  1348			014610		SN=SN+1
  1349			577000			ZZ=<ZZ+ZZ+1000>&777777
  1350	031324	205 06 0 00 777200 		MOVSI	AC-2,777200	;SETUP FOR COMPARISON
  1351	031325	205 10 0 00 577200 		MOVSI	AC,200+ZZ	;SETUP AC
  1352	031326	132 10 0 00 000000 		FSC	AC,0		;RESCALE
  1353	031327	316 10 0 00 000006 		CAMN	AC,AC-2		;TEST EXP=777
  1354	031330	003 10 0 00 014610 		ER3	AC,SN
  1355	031331	321 12 0 00 031324 		JUMPL	AC+2,.-5	;LOOP ON ERROR SWITCH
  1356
DAKCA	PDP-10 KA10 ADVANCED INSTRUCTION DIAGNOSTIC #1, VER 0,2	MACRO %52(537) 12:25 21-JAN-77 PAGE 10
DAKCAM	MAC	21-JAN-77 11:41		PART I.A - FSC AND NORMALIZE RETURN                                                SEQ 0044

  1357					;AC=206200000000
  1358					;SCALING FACTOR=0
  1359
  1360			000007			AC=7
  1361						SAVEAC	(1,1)^
  1362	031332	201 11 0 00 031332 		MOVEI	AC+2,.
  1363	031333	202 11 0 00 030051 		MOVEM	AC+2,TESTPC	;SETUP SUBTEST PC
  1364	031334	201 11 0 00 000011 		MOVEI	AC+2,<AC+2>&17	;INFORM ERROR ROUTINE WHICH
  1365	031335	202 11 0 00 040244 		MOVEM	AC+2,ERRLOP#	;AC IS USED FOR ITERATION^
  1366
  1367	031336	205 05 0 00 206200 	O14700:	MOVSI	AC-2,206200	;SETUP FOR COMPARISON
  1368	031337	205 07 0 00 206200 		MOVSI	AC,206200	;SETUP AC
  1369	031340	132 07 0 00 000000 		FSC	AC,0		;RESCALE
  1370	031341	316 07 0 00 000005 		CAMN	AC,AC-2		;TEST AC=ORIG
  1371	031342	003 07 0 00 014701 		ER3	AC,14701
  1372	031343	321 11 0 00 031336 		JUMPL	AC+2,O14700	;LOOP ON ERROR SWITCH
  1373
  1374					;AC=577600000000
  1375					;SCALING FACTOR=0
  1376
  1377			000006			AC=6
  1378						SAVEAC	(1,1)^
  1379	031344	201 10 0 00 031344 		MOVEI	AC+2,.
  1380	031345	202 10 0 00 030051 		MOVEM	AC+2,TESTPC	;SETUP SUBTEST PC
  1381	031346	201 10 0 00 000010 		MOVEI	AC+2,<AC+2>&17	;INFORM ERROR ROUTINE WHICH
  1382	031347	202 10 0 00 040244 		MOVEM	AC+2,ERRLOP#	;AC IS USED FOR ITERATION^
  1383
  1384	031350	205 04 0 00 577600 	O15000:	MOVSI	AC-2,577600	;SETUP FOR COMPARISON
  1385	031351	205 06 0 00 577600 		MOVSI	AC,577600	;SETUP AC
  1386	031352	132 06 0 00 000000 		FSC	AC,0		;RESCALE
  1387	031353	316 06 0 00 000004 		CAMN	AC,AC-2		;TEST AC=ORIG
  1388	031354	003 06 0 00 015001 		ER3	AC,15001
  1389	031355	321 10 0 00 031350 		JUMPL	AC+2,O15000	;LOOP ON ERROR SWITCH
  1390
  1391					;AC=206200000000
  1392					;SCALING FACTOR=0
  1393					;FAILURE RESULTS IN AN EXPONENT
  1394					;EQUAL TO 170, THE FRACTION IS NORMALIZED
  1395
  1396			000005			AC=5
  1397						SAVEAC	(1,1)^
  1398	031356	201 07 0 00 031356 		MOVEI	AC+2,.
  1399	031357	202 07 0 00 030051 		MOVEM	AC+2,TESTPC	;SETUP SUBTEST PC
  1400	031360	201 07 0 00 000007 		MOVEI	AC+2,<AC+2>&17	;INFORM ERROR ROUTINE WHICH
  1401	031361	202 07 0 00 040244 		MOVEM	AC+2,ERRLOP#	;AC IS USED FOR ITERATION^
  1402
  1403	031362	205 03 0 00 170400 	O15100:	MOVSI	AC-2,170400	;SETUP FOR COMPARISON
  1404	031363	205 05 0 00 206200 		MOVSI	AC,206200	;SETUP AC
  1405	031364	132 05 0 00 000000 		FSC	AC,0		;RESCALE
  1406	031365	316 05 0 00 000003 		CAMN	AC,AC-2		;TEST EXP=170
  1407	031366	003 05 0 00 015101 		ER3	AC,15101
  1408	031367	321 07 0 00 031362 		JUMPL	AC+2,O15100	;LOOP ON ERROR SWITCH
DAKCA	PDP-10 KA10 ADVANCED INSTRUCTION DIAGNOSTIC #1, VER 0,2	MACRO %52(537) 12:25 21-JAN-77 PAGE 11
DAKCAM	MAC	21-JAN-77 11:41		PART I.A - FSC AND NORMALIZE RETURN                                                SEQ 0045

  1409					;TEST - NR NORMAL
  1410					;AC=206200000000
  1411					;SCALE=0
  1412					;FAILURE RESULTS IN AN EXPONENT
  1413					;EQUAL TO 171, THE MANTISSA IS NORMALIZED
  1414
  1415			000014			AC=14
  1416						SAVEAC	(1,1)^
  1417	031370	201 16 0 00 031370 		MOVEI	AC+2,.
  1418	031371	202 16 0 00 030051 		MOVEM	AC+2,TESTPC	;SETUP SUBTEST PC
  1419	031372	201 16 0 00 000016 		MOVEI	AC+2,<AC+2>&17	;INFORM ERROR ROUTINE WHICH
  1420	031373	202 16 0 00 040244 		MOVEM	AC+2,ERRLOP#	;AC IS USED FOR ITERATION^
  1421
  1422	031374	205 12 0 00 171400 	O15200:	MOVSI	AC-2,171400	;SETUP FOR COMPARISON
  1423	031375	205 14 0 00 206200 		MOVSI	AC,206200	;SETUP AC
  1424	031376	132 14 0 00 000000 		FSC	AC,0		;RESCALE
  1425	031377	316 14 0 00 000012 		CAMN	AC,AC-2		;TEST EXP=171
  1426	031400	003 14 0 00 015201 		ER3	AC,15201
  1427	031401	321 16 0 00 031374 		JUMPL	AC+2,O15200	;LOOP ON ERROR SWITCH
  1428
  1429					;AC=200200000000
  1430					;SCALING FACTOR=0
  1431					;FAILURE RESULTS IN AN EXPONENT
  1432					;EQUAL TO ORIG. THE FRACTION IS NORMALIZED
  1433
  1434			000014			AC=14
  1435						SAVEAC	(1,1)^
  1436	031402	201 16 0 00 031402 		MOVEI	AC+2,.
  1437	031403	202 16 0 00 030051 		MOVEM	AC+2,TESTPC	;SETUP SUBTEST PC
  1438	031404	201 16 0 00 000016 		MOVEI	AC+2,<AC+2>&17	;INFORM ERROR ROUTINE WHICH
  1439	031405	202 16 0 00 040244 		MOVEM	AC+2,ERRLOP#	;AC IS USED FOR ITERATION^
  1440
  1441	031406	205 12 0 00 200400 	O15300:	MOVSI	AC-2,200400	;SETUP FOR COMPARISON
  1442	031407	205 14 0 00 200200 		MOVSI	AC,200200	;SETUP AC
  1443	031410	132 14 0 00 000000 		FSC	AC,0		;RESCALE
  1444	031411	316 14 0 00 000012 		CAMN	AC,AC-2		;TEST EXP=ORIG
  1445	031412	003 14 0 00 015301 		ER3	AC,15301
  1446	031413	321 16 0 00 031406 		JUMPL	AC+2,O15300	;LOOP ON ERROR SWITCH
DAKCA	PDP-10 KA10 ADVANCED INSTRUCTION DIAGNOSTIC #1, VER 0,2	MACRO %52(537) 12:25 21-JAN-77 PAGE 12
DAKCAM	MAC	21-JAN-77 11:41		PART I.A - FSC AND NORMALIZE RETURN                                                SEQ 0046

  1447					;TEST AR FXU SET
  1448					;TEST ABILITY TO SET FLAGS ON OVERFLOW
  1449					;AC=377400000000,777200000000
  1450					;SCALING FACTOR=1,-1
  1451					;AN ERROR WILL OCCUR IF APPROPRIATE
  1452					;FLAG FAILS TO SET
  1453
  1454			000013			AC=13
  1455						SAVEAC	(1,1)^
  1456	031414	201 15 0 00 031414 		MOVEI	AC+2,.
  1457	031415	202 15 0 00 030051 		MOVEM	AC+2,TESTPC	;SETUP SUBTEST PC
  1458	031416	201 15 0 00 000015 		MOVEI	AC+2,<AC+2>&17	;INFORM ERROR ROUTINE WHICH
  1459	031417	202 15 0 00 040244 		MOVEM	AC+2,ERRLOP#	;AC IS USED FOR ITERATION^
  1460
  1461									;TEST AROV SET
  1462	031420	255 10 0 00 031421 	O15400:	JFCL	10,.+1		;CLR FLG, EXEC NEXT INST
  1463	031421	205 13 0 00 377400 		MOVSI	AC,377400	;SETUP AC
  1464	031422	132 13 0 00 000001 		FSC	AC,1		;RESCALE (OVERFLOW)
  1465	031423	265 14 0 00 031424 		JSP	AC+1,.+1
  1466	031424	255 10 0 00 031426 		JFCL	10,.+2		;TEST AROV FLAG
  1467	031425	013 14 0 00 015401 		ER13	AC+1,15401	;AROV FAILED TO SET
  1468	031426	321 15 0 00 031420 		JUMPL	AC+2,O15400	;LOOP ON ERROR SWITCH
  1469
  1470									;TEST ARFOV SET
  1471	031427	255 01 0 00 031430 	O15500:	JFCL	1,.+1		;CLR FLG, EXEC NEXT INST
  1472	031430	205 13 0 00 377400 		MOVSI	AC,377400	;SETUP AC
  1473	031431	132 13 0 00 000001 		FSC	AC,1		;RESCALE (OVERFLOW)
  1474	031432	265 14 0 00 031433 		JSP	AC+1,.+1
  1475	031433	255 01 0 00 031435 		JFCL	1,.+2		;TEST ARFOV FLAG
  1476	031434	013 14 0 00 015501 		ER13	AC+1,15501	;ARFOV FAILED TO SET
  1477	031435	321 15 0 00 031427 		JUMPL	AC+2,O15500	;LOOP ON ERROR SWITCH
  1478
  1479									;TEST ARFXU SET
  1480	031436	254 02 1 00 040010 	O15600:	JRST	2,@[.+1]	;CLEAR FLAG,EXEC NEXT INST
  1481	031437	205 13 0 00 777200 		MOVSI	AC,777200	;SETUP AC
  1482	031440	132 13 0 00 777777 		FSC	AC,-1		;RESCALE (UNDERFLOW)
  1483	031441	265 11 0 00 031442 		JSP	AC-2,.+1	;STORE FLAGS AND PC
  1484	031442	627 11 0 00 000100 		TLZN	AC-2,100	;TEST AND CLEAR BIT 11
  1485	031443	013 11 0 00 015601 		ER13	AC-2,15601	;AR FXU FAILED TO SET
  1486	031444	254 02 0 11 000003 		JRST	2,3(AC-2)	;CLEAR AR FXU
  1487	031445	321 15 0 00 031436 		JUMPL	AC+2,O15600	;LOOP ON ERROR SWITCH
  1488					PAGE
DAKCA	PDP-10 KA10 ADVANCED INSTRUCTION DIAGNOSTIC #1, VER 0,2	MACRO %52(537) 12:25 21-JAN-77 PAGE 12-1
DAKCAM	MAC	21-JAN-77 11:41		PART I.A - FSC AND NORMALIZE RETURN                                                SEQ 0047

  1489					;TEST NR ALL ZERO
  1490					;TEST ABILITY TO ASSERT NR ALL ZERO LEVEL
  1491					;AC=377000000000
  1492					;SCALE=401
  1493					;FAILURE SHOULD RESULT IN LOOPING NRT2-
  1494					;ATTEMPTING TO NORMALIZE
  1495
  1496			000012			AC=12
  1497						SAVEAC	(1,1)^
  1498	031446	201 14 0 00 031446 		MOVEI	AC+2,.
  1499	031447	202 14 0 00 030051 		MOVEM	AC+2,TESTPC	;SETUP SUBTEST PC
  1500	031450	201 14 0 00 000014 		MOVEI	AC+2,<AC+2>&17	;INFORM ERROR ROUTINE WHICH
  1501	031451	202 14 0 00 040244 		MOVEM	AC+2,ERRLOP#	;AC IS USED FOR ITERATION^
  1502
  1503	031452	205 12 0 00 377000 	O15700:	MOVSI	AC,377000	;SETUP AC
  1504	031453	132 12 0 00 000401 		FSC	AC,401		;RESCALE
  1505	031454	332 00 0 00 000012 		SKIPE	AC		;TEST AC=0
  1506	031455	003 12 0 00 015701 		ER3	AC,15701	;NR ALL ZERO ASSERTED
  1507	031456	321 14 0 00 031452 		JUMPL	AC+2,O15700	;LOOP ON ERROR SWITCH
DAKCA	PDP-10 KA10 ADVANCED INSTRUCTION DIAGNOSTIC #1, VER 0,2	MACRO %52(537) 12:25 21-JAN-77 PAGE 13
DAKCAM	MAC	21-JAN-77 11:41		PART I.B-FAD AND NORM RET                                                          SEQ 0048

  1508					SUBTTL  PART I.B-FAD AND NORM RET
  1509
  1510
  1511					;		PART I.B-FAD AND NORM RET
  1512
  1513					;AR=000600000000
  1514					;BR=000400000000
  1515					;FAILURE RESULTS IN LOSS OF BR
  1516					;CORRECT SUM=001500000000
  1517					;ERROR SUM=000600000000
  1518
  1519			000014			AC=14
  1520						SAVEAC	(1,1)^
  1521	031457	201 16 0 00 031457 		MOVEI	AC+2,.
  1522	031460	202 16 0 00 030051 		MOVEM	AC+2,TESTPC	;SETUP SUBTEST PC
  1523	031461	201 16 0 00 000016 		MOVEI	AC+2,<AC+2>&17	;INFORM ERROR ROUTINE WHICH
  1524	031462	202 16 0 00 040244 		MOVEM	AC+2,ERRLOP#	;AC IS USED FOR ITERATION^
  1525
  1526	031463	205 12 0 00 000600 	O16000:	MOVSI	AC-2,600	;SETUP FOR COMPARISON
  1527	031464	205 14 0 00 000600 		MOVSI	AC,600		;SETUP AC
  1528	031465	205 15 0 00 000400 		MOVSI	AC+1,400	;SETUP BR
  1529	031466	140 14 0 00 000015 		FAD	AC,AC+1		;C(AC)+C(E)
  1530	031467	316 14 0 00 000012 		CAMN	AC,AC-2		;TEST SUM=600000000
  1531	031470	003 14 0 00 016001 		ER3	AC,16001
  1532	031471	321 16 0 00 031463 		JUMPL	AC+2,O16000	;LOOP ON ERROR SWITCH
  1533
  1534					;AR=000600000000
  1535					;BR=000400000000
  1536					;FAILURE RESULTS IN LOSS
  1537					;OF LARGER NUMBER
  1538					;FAILURE RESULTS IN NORMALIZING
  1539					;CORRECT SUM=001500000000
  1540					;ERROR SUM=000400000000
  1541
  1542			000013			AC=13
  1543						SAVEAC	(1,1)^
  1544	031472	201 15 0 00 031472 		MOVEI	AC+2,.
  1545	031473	202 15 0 00 030051 		MOVEM	AC+2,TESTPC	;SETUP SUBTEST PC
  1546	031474	201 15 0 00 000015 		MOVEI	AC+2,<AC+2>&17	;INFORM ERROR ROUTINE WHICH
  1547	031475	202 15 0 00 040244 		MOVEM	AC+2,ERRLOP#	;AC IS USED FOR ITERATION^
  1548
  1549	031476	205 13 0 00 000600 	O16100:	MOVSI	AC,600		;SETUP AC
  1550	031477	205 14 0 00 000400 		MOVSI	AC+1,400	;SETUP BR
  1551	031500	140 13 0 00 000014 		FAD	AC,AC+1		;C(AC)+C(E)
  1552	031501	316 13 0 00 000014 		CAMN	AC,AC+1		;TEST SUM=000400000000
  1553	031502	003 13 0 00 016101 		ER3	AC,16101
  1554	031503	321 15 0 00 031476 		JUMPL	AC+2,O16100	;LOOP ON ERROR SWITCH
DAKCA	PDP-10 KA10 ADVANCED INSTRUCTION DIAGNOSTIC #1, VER 0,2	MACRO %52(537) 12:25 21-JAN-77 PAGE 14
DAKCAM	MAC	21-JAN-77 11:41		PART I.B-FAD AND NORM RET                                                          SEQ 0049

  1555					;AR=000600000000
  1556					;BR=000400000000
  1557					;FAILURE RESULTS IN LOSS OF BR
  1558					;CORRECT SUM=001500000000
  1559					;ERROR SUM=001600000000
  1560
  1561			000012			AC=12
  1562						SAVEAC	(1,1)^
  1563	031504	201 14 0 00 031504 		MOVEI	AC+2,.
  1564	031505	202 14 0 00 030051 		MOVEM	AC+2,TESTPC	;SETUP SUBTEST PC
  1565	031506	201 14 0 00 000014 		MOVEI	AC+2,<AC+2>&17	;INFORM ERROR ROUTINE WHICH
  1566	031507	202 14 0 00 040244 		MOVEM	AC+2,ERRLOP#	;AC IS USED FOR ITERATION^
  1567
  1568	031510	205 10 0 00 001600 	O16200:	MOVSI	AC-2,1600	;SETUP FOR COMPARISON
  1569	031511	205 12 0 00 000600 		MOVSI	AC,600		;SETUP AC
  1570	031512	205 13 0 00 000400 		MOVSI	AC+1,400	;SETUP BR
  1571	031513	140 12 0 00 000013 		FAD	AC,AC+1		;C(AC)+C(E)
  1572	031514	316 12 0 00 000010 		CAMN	AC,AC-2		;TEST SUM=1600000000
  1573	031515	003 12 0 00 016201 		ER3	AC,16201
  1574	031516	321 14 0 00 031510 		JUMPL	AC+2,O16200	;LOOP ON ERROR SWITCH
  1575
  1576					;AR=000600000000
  1577					;BR=000400000000
  1578					;FAILURE RESULTS IN LOSS OF AR
  1579					;CORRECT SUM=001500000000
  1580					;ERROR SUM=001400000000
  1581
  1582			000011			AC=11
  1583						SAVEAC	(1,1)^
  1584	031517	201 13 0 00 031517 		MOVEI	AC+2,.
  1585	031520	202 13 0 00 030051 		MOVEM	AC+2,TESTPC	;SETUP SUBTEST PC
  1586	031521	201 13 0 00 000013 		MOVEI	AC+2,<AC+2>&17	;INFORM ERROR ROUTINE WHICH
  1587	031522	202 13 0 00 040244 		MOVEM	AC+2,ERRLOP#	;AC IS USED FOR ITERATION^
  1588
  1589	031523	205 07 0 00 001400 	O16300:	MOVSI	AC-2,1400	;SETUP FOR COMPARISON
  1590	031524	205 11 0 00 000600 		MOVSI	AC,600		;SETUP AC
  1591	031525	205 12 0 00 000400 		MOVSI	AC+1,400	;SETUP BR
  1592	031526	140 11 0 00 000012 		FAD	AC,AC+1		;C(AC)+C(E)
  1593	031527	316 11 0 00 000007 		CAMN	AC,AC-2		;TEST SUM=1400000000
  1594	031530	003 11 0 00 016301 		ER3	AC,16301
  1595	031531	321 13 0 00 031523 		JUMPL	AC+2,O16300	;LOOP ON ERROR SWITCH
DAKCA	PDP-10 KA10 ADVANCED INSTRUCTION DIAGNOSTIC #1, VER 0,2	MACRO %52(537) 12:25 21-JAN-77 PAGE 15
DAKCAM	MAC	21-JAN-77 11:41		PART I.B-FAD AND NORM RET                                                          SEQ 0050

  1596					;AR=000600000000
  1597					;BR=000400000000
  1598					;CORRECT SUM=001500000000
  1599					;ERROR SUM=377500000000
  1600
  1601			000010			AC=10
  1602						SAVEAC	(1,1)^
  1603	031532	201 12 0 00 031532 		MOVEI	AC+2,.
  1604	031533	202 12 0 00 030051 		MOVEM	AC+2,TESTPC	;SETUP SUBTEST PC
  1605	031534	201 12 0 00 000012 		MOVEI	AC+2,<AC+2>&17	;INFORM ERROR ROUTINE WHICH
  1606	031535	202 12 0 00 040244 		MOVEM	AC+2,ERRLOP#	;AC IS USED FOR ITERATION^
  1607
  1608	031536	205 06 0 00 377500 	O16400:	MOVSI	AC-2,377500	;SETUP FOR COMPARISON
  1609	031537	205 10 0 00 000600 		MOVSI	AC,600		;SETUP AC
  1610	031540	205 11 0 00 000400 		MOVSI	AC+1,400	;SETUP BR
  1611	031541	140 10 0 00 000011 		FAD	AC,AC+1		;C(AC)+C(E)
  1612	031542	316 10 0 00 000006 		CAMN	AC,AC-2		;TEST SUM=377500000000
  1613	031543	003 10 0 00 016401 		ER3	AC,16401
  1614	031544	321 12 0 00 031536 		JUMPL	AC+2,O16400	;LOOP ON ERROR SWITCH
  1615
  1616					;AR=000600000000
  1617					;BR=000400000000
  1618					;CORRECT SUM=001500000000
  1619					;ERROR SUM=000500000000
  1620
  1621			000007			AC=7
  1622						SAVEAC	(1,1)^
  1623	031545	201 11 0 00 031545 		MOVEI	AC+2,.
  1624	031546	202 11 0 00 030051 		MOVEM	AC+2,TESTPC	;SETUP SUBTEST PC
  1625	031547	201 11 0 00 000011 		MOVEI	AC+2,<AC+2>&17	;INFORM ERROR ROUTINE WHICH
  1626	031550	202 11 0 00 040244 		MOVEM	AC+2,ERRLOP#	;AC IS USED FOR ITERATION^
  1627
  1628	031551	205 05 0 00 000500 	O16500:	MOVSI	AC-2,500	;SETUP FOR COMPARISON
  1629	031552	205 07 0 00 000600 		MOVSI	AC,600		;SETUP AC
  1630	031553	205 10 0 00 000400 		MOVSI	AC+1,400	;SETUP BR
  1631	031554	140 07 0 00 000010 		FAD	AC,AC+1		;C(AC)+C(E)
  1632	031555	316 07 0 00 000005 		CAMN	AC,AC-2		;TEST SUM=500000000
  1633	031556	003 07 0 00 016501 		ER3	AC,16501
  1634	031557	321 11 0 00 031551 		JUMPL	AC+2,O16500	;LOOP ON ERROR SWITCH
DAKCA	PDP-10 KA10 ADVANCED INSTRUCTION DIAGNOSTIC #1, VER 0,2	MACRO %52(537) 12:25 21-JAN-77 PAGE 16
DAKCAM	MAC	21-JAN-77 11:41		PART I.B-FAD AND NORM RET                                                          SEQ 0051

  1635
  1636					;AR=377000000000
  1637					;BR=377600000000
  1638					;FAILURE RESULTS IN A SUM
  1639					;=000700000000
  1640
  1641			000014			AC=14
  1642						SAVEAC	(1,1)^
  1643	031560	201 16 0 00 031560 		MOVEI	AC+2,.
  1644	031561	202 16 0 00 030051 		MOVEM	AC+2,TESTPC	;SETUP SUBTEST PC
  1645	031562	201 16 0 00 000016 		MOVEI	AC+2,<AC+2>&17	;INFORM ERROR ROUTINE WHICH
  1646	031563	202 16 0 00 040244 		MOVEM	AC+2,ERRLOP#	;AC IS USED FOR ITERATION^
  1647
  1648	031564	205 12 0 00 000700 	O16600:	MOVSI	AC-2,700	;SETUP FOR COMPARISON
  1649	031565	205 14 0 00 377000 		MOVSI	AC,377000	;SETUP AC
  1650	031566	205 15 0 00 377600 		MOVSI	AC+1,377600	;SETUP BR
  1651	031567	140 14 0 00 000015 		FAD	AC,AC+1		;ADD C(AC), C(E)
  1652	031570	316 14 0 00 000012 		CAMN	AC,AC-2		;TEST SUM=000700000000
  1653	031571	003 14 0 00 016601 		ER3	AC,16601
  1654	031572	321 16 0 00 031564 		JUMPL	AC+2,O16600	;LOOP ON ERROR SWITCH
DAKCA	PDP-10 KA10 ADVANCED INSTRUCTION DIAGNOSTIC #1, VER 0,2	MACRO %52(537) 12:25 21-JAN-77 PAGE 17
DAKCAM	MAC	21-JAN-77 11:41		PART I.B-FAD AND NORM RET                                                          SEQ 0052

  1655					;TEST ABILITY TO SET INDIVIDUAL BITS
  1656					;AR=600400000000 (-1/4)
  1657					;BR=177400000000 (+1/4)
  1658					;OPERANDS SELECTED SHOULD RESULT
  1659					;IN NR ALL ZERO -STORE 0
  1660					;FAILURE OF BIT 8 TO SET RESULTS IN
  1661					;A SUM=577400000000
  1662					;FAILURE OF ANY ONE BIT (1-7) RESULTS IN
  1663					;A SUM=577000000000
  1664
  1665			000014			AC=14
  1666						SAVEAC	(1,1)^
  1667	031573	201 16 0 00 031573 		MOVEI	AC+2,.
  1668	031574	202 16 0 00 030051 		MOVEM	AC+2,TESTPC	;SETUP SUBTEST PC
  1669	031575	201 16 0 00 000016 		MOVEI	AC+2,<AC+2>&17	;INFORM ERROR ROUTINE WHICH
  1670	031576	202 16 0 00 040244 		MOVEM	AC+2,ERRLOP#	;AC IS USED FOR ITERATION^
  1671
  1672	031577	205 12 0 00 577400 	O16700:	MOVSI	AC-2,577400	;SETUP FOR COMPARISON
  1673	031600	205 14 0 00 600400 		MOVSI	AC,600400	;SETUP AC
  1674	031601	205 15 0 00 177400 		MOVSI	AC+1,177400	;SETUP BR
  1675	031602	140 14 0 00 000015 		FAD	AC,AC+1		;C(AC)+C(E)
  1676	031603	316 14 0 00 000012 		CAMN	AC,AC-2		;TEST SUM=5774000000000
  1677	031604	003 14 0 00 016701 		ER3	AC,16701	;BR8 FAILED TO SET
  1678	031605	205 12 0 00 577000 		MOVSI	AC-2,577000	;SETUP FOR COMPARISON
  1679	031606	316 14 0 00 000012 		CAMN	AC,AC-2		;TEST SUM=577000000000
  1680	031607	003 14 0 00 016702 		ER3	AC,16702	;BR BIT (1-7) FAILED TO SET
  1681	031610	321 16 0 00 031577 		JUMPL	AC+2,O16700	;LOOP ON ERROR SWITCH
  1682
  1683					;FAILURE RESULTS IN LOSS OF DIFFERENCE
  1684					;BETWEEN EXPONENTS
  1685					;AR=200400000000 (+ 1/2)
  1686					;BR=205400000000 (+20)
  1687					;CORRECT SUM =205410000000
  1688					;ERROR SUM=001400000000
  1689
  1690			000010			AC=10
  1691						SAVEAC	(1,1)^
  1692	031611	201 12 0 00 031611 		MOVEI	AC+2,.
  1693	031612	202 12 0 00 030051 		MOVEM	AC+2,TESTPC	;SETUP SUBTEST PC
  1694	031613	201 12 0 00 000012 		MOVEI	AC+2,<AC+2>&17	;INFORM ERROR ROUTINE WHICH
  1695	031614	202 12 0 00 040244 		MOVEM	AC+2,ERRLOP#	;AC IS USED FOR ITERATION^
  1696
  1697	031615	205 06 0 00 001400 	O17000:	MOVSI	AC-2,001400	;SETUP FOR COMPARISON
  1698	031616	205 10 0 00 200400 		MOVSI	AC,200400	;SETUP AC
  1699	031617	205 11 0 00 205400 		MOVSI	AC+1,205400	;SETUP BR
  1700	031620	140 10 0 00 000011 		FAD	AC,AC+1		;C(AC)+C(E)
  1701	031621	316 10 0 00 000006 		CAMN	AC,AC-2		;TEST SUM=001400000000
  1702	031622	003 10 0 00 017001 		ER3	AC,17001
  1703	031623	321 12 0 00 031615 		JUMPL	AC+2,O17000	;LOOP ON ERROR SWITCH
DAKCA	PDP-10 KA10 ADVANCED INSTRUCTION DIAGNOSTIC #1, VER 0,2	MACRO %52(537) 12:25 21-JAN-77 PAGE 18
DAKCAM	MAC	21-JAN-77 11:41		PART I.B-FAD AND NORM RET                                                          SEQ 0053

  1704					;AR=200400000000
  1705					;BR=205600000000
  1706					;FAILURE RESULTS IN LOSS OF HIGH ORDER
  1707					;EXPONENT
  1708					;FAILURE RESULTS IN A SUM
  1709					;=001610000000
  1710
  1711			000012			AC=12
  1712						SAVEAC	(1,1)^
  1713	031624	201 14 0 00 031624 		MOVEI	AC+2,.
  1714	031625	202 14 0 00 030051 		MOVEM	AC+2,TESTPC	;SETUP SUBTEST PC
  1715	031626	201 14 0 00 000014 		MOVEI	AC+2,<AC+2>&17	;INFORM ERROR ROUTINE WHICH
  1716	031627	202 14 0 00 040244 		MOVEM	AC+2,ERRLOP#	;AC IS USED FOR ITERATION^
  1717
  1718	031630	205 10 0 00 001610 	O17100:	MOVSI	AC-2,1610	;SETUP FOR COMPARISON
  1719	031631	205 12 0 00 200400 		MOVSI	AC,200400	;SETUP AC
  1720	031632	205 13 0 00 205600 		MOVSI	AC+1,205600	;SETUP BR
  1721	031633	140 12 0 00 000013 		FAD	AC,AC+1		;C(AC)+C(E)
  1722	031634	316 12 0 00 000010 		CAMN	AC,AC-2		;TEST SUM=1610000000
  1723	031635	003 12 0 00 017101 		ER3	AC,17101
  1724	031636	321 14 0 00 031630 		JUMPL	AC+2,O17100	;LOOP ON ERROR SWITCH
  1725
  1726					;AR=200400000000
  1727					;BR=205600000000
  1728					;FAILURE RESULTS IN LOSS OF LARGER
  1729					;EXPONENT
  1730					;FAILURE RESULTS IN A SUM
  1731					;=000610000000
  1732
  1733			000011			AC=11
  1734						SAVEAC	(1,1)^
  1735	031637	201 13 0 00 031637 		MOVEI	AC+2,.
  1736	031640	202 13 0 00 030051 		MOVEM	AC+2,TESTPC	;SETUP SUBTEST PC
  1737	031641	201 13 0 00 000013 		MOVEI	AC+2,<AC+2>&17	;INFORM ERROR ROUTINE WHICH
  1738	031642	202 13 0 00 040244 		MOVEM	AC+2,ERRLOP#	;AC IS USED FOR ITERATION^
  1739
  1740	031643	205 07 0 00 000610 	O17200:	MOVSI	AC-2,610	;SETUP FOR COMPARISON
  1741	031644	205 11 0 00 200400 		MOVSI	AC,200400	;SETUP AC
  1742	031645	205 12 0 00 205600 		MOVSI	AC+1,205600	;SETUP BR
  1743	031646	140 11 0 00 000012 		FAD	AC,AC+1		;C(AC)+C(E)
  1744	031647	316 11 0 00 000007 		CAMN	AC,AC-2		;TEST SUM=610000000
  1745	031650	003 11 0 00 017201 		ER3	AC,17201
  1746	031651	321 13 0 00 031643 		JUMPL	AC+2,O17200	;LOOP ON ERROR SWITCH
DAKCA	PDP-10 KA10 ADVANCED INSTRUCTION DIAGNOSTIC #1, VER 0,2	MACRO %52(537) 12:25 21-JAN-77 PAGE 19
DAKCAM	MAC	21-JAN-77 11:41		PART I.B-FAD AND NORM RET                                                          SEQ 0054

  1747					;AR=000600000000
  1748					;BR=200400000000
  1749					;EXCESSIVE SHIFT COND, SHOULD
  1750					;RESULT IN NO ADD AND STORING THE LARGER
  1751					;FAILURE RESULTS IN A SUM
  1752					;=201500000000
  1753
  1754			000005			AC=5
  1755						SAVEAC	(1,1)^
  1756	031652	201 07 0 00 031652 		MOVEI	AC+2,.
  1757	031653	202 07 0 00 030051 		MOVEM	AC+2,TESTPC	;SETUP SUBTEST PC
  1758	031654	201 07 0 00 000007 		MOVEI	AC+2,<AC+2>&17	;INFORM ERROR ROUTINE WHICH
  1759	031655	202 07 0 00 040244 		MOVEM	AC+2,ERRLOP#	;AC IS USED FOR ITERATION^
  1760
  1761	031656	205 03 0 00 201500 	O17300:	MOVSI	AC-2,201500	;SETUP FOR COMPARISON
  1762	031657	205 05 0 00 000600 		MOVSI	AC,600		;SETUP AC
  1763	031660	205 06 0 00 200400 		MOVSI	AC+1,200400	;SETUP BR
  1764	031661	140 05 0 00 000006 		FAD	AC,AC+1		;C(AC)+C(E)
  1765	031662	316 05 0 00 000003 		CAMN	AC,AC-2		;TEST SUM=201500000000
  1766	031663	003 05 0 00 017301 		ER3	AC,17301
  1767	031664	321 07 0 00 031656 		JUMPL	AC+2,O17300	;LOOP ON ERROR SWITCH
  1768
  1769					;AR=200700000000
  1770					;BR=0
  1771					;EXCESSIVE SHIFT COND SHOULD
  1772					;RESULT IN NO ADD AND STORING THE LARGER
  1773					;FAILURE OF SC CLR AT FAT4 RESULTS IN
  1774					;LOSS OF EXPONENT. SUM=000700000000
  1775
  1776			000014			AC=14
  1777						SAVEAC	(1,1)^
  1778	031665	201 16 0 00 031665 		MOVEI	AC+2,.
  1779	031666	202 16 0 00 030051 		MOVEM	AC+2,TESTPC	;SETUP SUBTEST PC
  1780	031667	201 16 0 00 000016 		MOVEI	AC+2,<AC+2>&17	;INFORM ERROR ROUTINE WHICH
  1781	031670	202 16 0 00 040244 		MOVEM	AC+2,ERRLOP#	;AC IS USED FOR ITERATION^
  1782
  1783	031671	205 12 0 00 000700 	O17400:	MOVSI	AC-2,700	;SETUP FOR COMPARISON
  1784	031672	205 14 0 00 200700 		MOVSI	AC,200700	;SETUP AC
  1785	031673	400 15 0 00 000000 		SETZ	AC+1,		;SETUP BR
  1786	031674	140 14 0 00 000015 		FAD	AC,AC+1		;C(AC)+C(E)
  1787	031675	316 14 0 00 000012 		CAMN	AC,AC-2		;TEST SUM=700000000
  1788	031676	003 14 0 00 017401 		ER3	AC,17401
  1789	031677	321 16 0 00 031671 		JUMPL	AC+2,O17400	;LOOP ON ERROR SWITCH
DAKCA	PDP-10 KA10 ADVANCED INSTRUCTION DIAGNOSTIC #1, VER 0,2	MACRO %52(537) 12:25 21-JAN-77 PAGE 20
DAKCAM	MAC	21-JAN-77 11:41		PART I.B-FAD AND NORM RET                                                          SEQ 0055

  1790					;TEST ABILITY TO BRING UP PULSE
  1791					;AR=200400000000
  1792					;BR=205400000000
  1793					;FAILURE RESULTS IN LOSS OF SMALLER
  1794					;EXPONENT. EXCESSIVE SHIFT CONDITION
  1795					;RESULTS IN NO ADD AND STORING THE LARGER
  1796					;FAILURE RESULTS IN A SUM=205400000000
  1797
  1798			000014			AC=14
  1799						SAVEAC	(1,1)^
  1800	031700	201 16 0 00 031700 		MOVEI	AC+2,.
  1801	031701	202 16 0 00 030051 		MOVEM	AC+2,TESTPC	;SETUP SUBTEST PC
  1802	031702	201 16 0 00 000016 		MOVEI	AC+2,<AC+2>&17	;INFORM ERROR ROUTINE WHICH
  1803	031703	202 16 0 00 040244 		MOVEM	AC+2,ERRLOP#	;AC IS USED FOR ITERATION^
  1804
  1805	031704	205 14 0 00 200400 	O17500:	MOVSI	AC,200400	;SETUP AC
  1806	031705	205 15 0 00 205400 		MOVSI	AC+1,205400	;SETUP BR
  1807	031706	140 14 0 00 000015 		FAD	AC,AC+1		;C(AC)+C(E)
  1808	031707	316 14 0 00 000015 		CAMN	AC,AC+1		;TEST SUM=205400000000
  1809	031710	003 14 0 00 017501 		ER3	AC,17501
  1810	031711	321 16 0 00 031704 		JUMPL	AC+2,O17500	;LOOP ON ERROR SWITCH
  1811					PAGE
DAKCA	PDP-10 KA10 ADVANCED INSTRUCTION DIAGNOSTIC #1, VER 0,2	MACRO %52(537) 12:25 21-JAN-77 PAGE 20-1
DAKCAM	MAC	21-JAN-77 11:41		PART I.B-FAD AND NORM RET                                                          SEQ 0056

  1812					;AC EXP=201,202,204,210,220,240,300
  1813					;BR=200400000000
  1814					;FAILURE OF A BIT TO SET/AR TO SHIFT RESULTS IN
  1815					;AN EXPONENT=202,203,205,211,221,
  1816					;241,301. THE MANTISSA IS CORRECT IN ALL CASES
  1817
  1818			000013			AC=13
  1819						SAVEAC	(1,1)^
  1820	031712	201 15 0 00 031712 		MOVEI	AC+2,.
  1821	031713	202 15 0 00 030051 		MOVEM	AC+2,TESTPC	;SETUP SUBTEST PC
  1822	031714	201 15 0 00 000015 		MOVEI	AC+2,<AC+2>&17	;INFORM ERROR ROUTINE WHICH
  1823	031715	202 15 0 00 040244 		MOVEM	AC+2,ERRLOP#	;AC IS USED FOR ITERATION^
  1824
  1825			017600		SN=17600
  1826			000400			ZZ=400
  1827
  1828
  1829					O17600:	REPEAT	^D7,<
  1830					SN=SN+1
  1831						ZZ=ZZ+ZZ
  1832						MOVSI	AC-2,201400+ZZ	;SETUP FOR COMPARISION
  1833						MOVSI	AC,200400+ZZ	;SETUP AC
  1834						MOVSI	AC+1,200400	;SETUP BR
  1835						FAD	AC,AC+1		;C(AC)+C(E)
  1836						CAMN	AC,AC-2		;TEST EXP=AC EXP+1
  1837						ER3	AC,SN		;BIT UNDER TEST FAILED TO SET
  1838						JUMPL	AC+2,.-6	;LOOP ON ERROR SWITCH
  1839					>
  1840
  1841			017601		SN=SN+1
  1842			001000			ZZ=ZZ+ZZ
  1843	031716	205 11 0 00 202400 		MOVSI	AC-2,201400+ZZ	;SETUP FOR COMPARISION
  1844	031717	205 13 0 00 201400 		MOVSI	AC,200400+ZZ	;SETUP AC
  1845	031720	205 14 0 00 200400 		MOVSI	AC+1,200400	;SETUP BR
  1846	031721	140 13 0 00 000014 		FAD	AC,AC+1		;C(AC)+C(E)
  1847	031722	316 13 0 00 000011 		CAMN	AC,AC-2		;TEST EXP=AC EXP+1
  1848	031723	003 13 0 00 017601 		ER3	AC,SN		;BIT UNDER TEST FAILED TO SET
  1849	031724	321 15 0 00 031716 		JUMPL	AC+2,.-6	;LOOP ON ERROR SWITCH
  1850
  1851
  1852			017602		SN=SN+1
  1853			002000			ZZ=ZZ+ZZ
  1854	031725	205 11 0 00 203400 		MOVSI	AC-2,201400+ZZ	;SETUP FOR COMPARISION
  1855	031726	205 13 0 00 202400 		MOVSI	AC,200400+ZZ	;SETUP AC
  1856	031727	205 14 0 00 200400 		MOVSI	AC+1,200400	;SETUP BR
  1857	031730	140 13 0 00 000014 		FAD	AC,AC+1		;C(AC)+C(E)
  1858	031731	316 13 0 00 000011 		CAMN	AC,AC-2		;TEST EXP=AC EXP+1
  1859	031732	003 13 0 00 017602 		ER3	AC,SN		;BIT UNDER TEST FAILED TO SET
  1860	031733	321 15 0 00 031725 		JUMPL	AC+2,.-6	;LOOP ON ERROR SWITCH
  1861
  1862
  1863			017603		SN=SN+1
  1864			004000			ZZ=ZZ+ZZ
  1865	031734	205 11 0 00 205400 		MOVSI	AC-2,201400+ZZ	;SETUP FOR COMPARISION
  1866	031735	205 13 0 00 204400 		MOVSI	AC,200400+ZZ	;SETUP AC
DAKCA	PDP-10 KA10 ADVANCED INSTRUCTION DIAGNOSTIC #1, VER 0,2	MACRO %52(537) 12:25 21-JAN-77 PAGE 20-2
DAKCAM	MAC	21-JAN-77 11:41		PART I.B-FAD AND NORM RET                                                          SEQ 0057

  1867	031736	205 14 0 00 200400 		MOVSI	AC+1,200400	;SETUP BR
  1868	031737	140 13 0 00 000014 		FAD	AC,AC+1		;C(AC)+C(E)
  1869	031740	316 13 0 00 000011 		CAMN	AC,AC-2		;TEST EXP=AC EXP+1
  1870	031741	003 13 0 00 017603 		ER3	AC,SN		;BIT UNDER TEST FAILED TO SET
  1871	031742	321 15 0 00 031734 		JUMPL	AC+2,.-6	;LOOP ON ERROR SWITCH
  1872
  1873
  1874			017604		SN=SN+1
  1875			010000			ZZ=ZZ+ZZ
  1876	031743	205 11 0 00 211400 		MOVSI	AC-2,201400+ZZ	;SETUP FOR COMPARISION
  1877	031744	205 13 0 00 210400 		MOVSI	AC,200400+ZZ	;SETUP AC
  1878	031745	205 14 0 00 200400 		MOVSI	AC+1,200400	;SETUP BR
  1879	031746	140 13 0 00 000014 		FAD	AC,AC+1		;C(AC)+C(E)
  1880	031747	316 13 0 00 000011 		CAMN	AC,AC-2		;TEST EXP=AC EXP+1
  1881	031750	003 13 0 00 017604 		ER3	AC,SN		;BIT UNDER TEST FAILED TO SET
  1882	031751	321 15 0 00 031743 		JUMPL	AC+2,.-6	;LOOP ON ERROR SWITCH
  1883
  1884
  1885			017605		SN=SN+1
  1886			020000			ZZ=ZZ+ZZ
  1887	031752	205 11 0 00 221400 		MOVSI	AC-2,201400+ZZ	;SETUP FOR COMPARISION
  1888	031753	205 13 0 00 220400 		MOVSI	AC,200400+ZZ	;SETUP AC
  1889	031754	205 14 0 00 200400 		MOVSI	AC+1,200400	;SETUP BR
  1890	031755	140 13 0 00 000014 		FAD	AC,AC+1		;C(AC)+C(E)
  1891	031756	316 13 0 00 000011 		CAMN	AC,AC-2		;TEST EXP=AC EXP+1
  1892	031757	003 13 0 00 017605 		ER3	AC,SN		;BIT UNDER TEST FAILED TO SET
  1893	031760	321 15 0 00 031752 		JUMPL	AC+2,.-6	;LOOP ON ERROR SWITCH
  1894
  1895
  1896			017606		SN=SN+1
  1897			040000			ZZ=ZZ+ZZ
  1898	031761	205 11 0 00 241400 		MOVSI	AC-2,201400+ZZ	;SETUP FOR COMPARISION
  1899	031762	205 13 0 00 240400 		MOVSI	AC,200400+ZZ	;SETUP AC
  1900	031763	205 14 0 00 200400 		MOVSI	AC+1,200400	;SETUP BR
  1901	031764	140 13 0 00 000014 		FAD	AC,AC+1		;C(AC)+C(E)
  1902	031765	316 13 0 00 000011 		CAMN	AC,AC-2		;TEST EXP=AC EXP+1
  1903	031766	003 13 0 00 017606 		ER3	AC,SN		;BIT UNDER TEST FAILED TO SET
  1904	031767	321 15 0 00 031761 		JUMPL	AC+2,.-6	;LOOP ON ERROR SWITCH
  1905
  1906
  1907			017607		SN=SN+1
  1908			100000			ZZ=ZZ+ZZ
  1909	031770	205 11 0 00 301400 		MOVSI	AC-2,201400+ZZ	;SETUP FOR COMPARISION
  1910	031771	205 13 0 00 300400 		MOVSI	AC,200400+ZZ	;SETUP AC
  1911	031772	205 14 0 00 200400 		MOVSI	AC+1,200400	;SETUP BR
  1912	031773	140 13 0 00 000014 		FAD	AC,AC+1		;C(AC)+C(E)
  1913	031774	316 13 0 00 000011 		CAMN	AC,AC-2		;TEST EXP=AC EXP+1
  1914	031775	003 13 0 00 017607 		ER3	AC,SN		;BIT UNDER TEST FAILED TO SET
  1915	031776	321 15 0 00 031770 		JUMPL	AC+2,.-6	;LOOP ON ERROR SWITCH
  1916
DAKCA	PDP-10 KA10 ADVANCED INSTRUCTION DIAGNOSTIC #1, VER 0,2	MACRO %52(537) 12:25 21-JAN-77 PAGE 21
DAKCAM	MAC	21-JAN-77 11:41		PART I.B-FAD AND NORM RET                                                          SEQ 0058

  1917					;AR=200400000000
  1918					;BR=205400000000
  1919					;FAILURE RESULTS IN A BR EXPONENT=0.
  1920					;EXCESSIVE SHIFT CONDITION
  1921					;RESULTS IN NO ADD AND STORING THE LARGER
  1922
  1923			000012			AC=12
  1924						SAVEAC	(1,1)^
  1925	031777	201 14 0 00 031777 		MOVEI	AC+2,.
  1926	032000	202 14 0 00 030051 		MOVEM	AC+2,TESTPC	;SETUP SUBTEST PC
  1927	032001	201 14 0 00 000014 		MOVEI	AC+2,<AC+2>&17	;INFORM ERROR ROUTINE WHICH
  1928	032002	202 14 0 00 040244 		MOVEM	AC+2,ERRLOP#	;AC IS USED FOR ITERATION^
  1929
  1930	032003	205 10 0 00 200400 	O17700:	MOVSI	AC-2,200400	;SETUP FOR COMPARISION
  1931	032004	205 12 0 00 200400 		MOVSI	AC,200400	;SETUP AC
  1932	032005	205 13 0 00 205400 		MOVSI	AC+1,205400	;SETUP BR
  1933	032006	140 12 0 00 000013 		FAD	AC,AC+1		;C(AC)+C(E)
  1934	032007	316 12 0 00 000010 		CAMN	AC,AC-2		;TEST SUM=200400000000
  1935	032010	003 12 0 00 017701 		ER3	AC,17701
  1936	032011	321 14 0 00 032003 		JUMPL	AC+2,O17700	;LOOP ON ERROR SWITCH
  1937
  1938					;AR=600400000000 (-1/4)
  1939					;BR=600400000000 (-1/4)
  1940					;FAILURE RESULTS IN LOSS OF BR EXPONENT
  1941					;AN EXCESSIVE SHIFT CONDITION, NO ADD
  1942					;STORE 600400000000
  1943
  1944			000011			AC=11
  1945						SAVEAC	(1,1)^
  1946	032012	201 13 0 00 032012 		MOVEI	AC+2,.
  1947	032013	202 13 0 00 030051 		MOVEM	AC+2,TESTPC	;SETUP SUBTEST PC
  1948	032014	201 13 0 00 000013 		MOVEI	AC+2,<AC+2>&17	;INFORM ERROR ROUTINE WHICH
  1949	032015	202 13 0 00 040244 		MOVEM	AC+2,ERRLOP#	;AC IS USED FOR ITERATION^
  1950
  1951	032016	205 11 0 00 600400 	O20000:	MOVSI	AC,600400	;SETUP AC
  1952	032017	205 12 0 00 600400 		MOVSI	AC+1,600400	;SETUP BR
  1953	032020	140 11 0 00 000012 		FAD	AC,AC+1		;C(AC)+C(E)
  1954	032021	316 11 0 00 000012 		CAMN	AC,AC+1		;TEST SUM=600400
  1955	032022	003 11 0 00 020001 		ER3	AC,20001
  1956	032023	321 13 0 00 032016 		JUMPL	AC+2,O20000	;LOOP ON ERROR SWITCH
DAKCA	PDP-10 KA10 ADVANCED INSTRUCTION DIAGNOSTIC #1, VER 0,2	MACRO %52(537) 12:25 21-JAN-77 PAGE 22
DAKCAM	MAC	21-JAN-77 11:41		PART I.B-FAD AND NORM RET                                                          SEQ 0059

  1957					;THE DIFFERENCE BETWEEN EXPONENTS (EXCESSIVE SHIFT COND)
  1958					;SHOULD RESULT IN NO ADD AND STORING
  1959					;THE LARGER
  1960					;AR=0
  1961					;BR=205400000000
  1962					;FAILURE RESULTS IN A SUM
  1963					;=173400000000
  1964
  1965			000007			AC=7
  1966						SAVEAC	(1,1)^
  1967	032024	201 11 0 00 032024 		MOVEI	AC+2,.
  1968	032025	202 11 0 00 030051 		MOVEM	AC+2,TESTPC	;SETUP SUBTEST PC
  1969	032026	201 11 0 00 000011 		MOVEI	AC+2,<AC+2>&17	;INFORM ERROR ROUTINE WHICH
  1970	032027	202 11 0 00 040244 		MOVEM	AC+2,ERRLOP#	;AC IS USED FOR ITERATION^
  1971
  1972	032030	205 05 0 00 173400 	O20100:	MOVSI	AC-2,173400	;SETUP FOR COMPARISON
  1973	032031	400 07 0 00 000000 		SETZ	AC,		;SETUP AC
  1974	032032	205 10 0 00 205400 		MOVSI	AC+1,205400	;SETUP BR
  1975	032033	140 07 0 00 000010 		FAD	AC,AC+1		;C(AC)+C(E)
  1976	032034	316 07 0 00 000005 		CAMN	AC,AC-2		;TEST SUM=173400000000
  1977	032035	003 07 0 00 020101 		ER3	AC,20101
  1978	032036	321 11 0 00 032030 		JUMPL	AC+2,O20100	;LOOP ON ERROR SWITCH
  1979
  1980					;FAILURE RESULTS IN AN APPARENT DIFFERNECE IN
  1981					;EXPONENTS OF 177 EXCESSIVE SHIFT COND-
  1982					;NO ADD, STORE LARGER
  1983					;AR=200400000000
  1984					;BR=200400000000
  1985					;FAILURE RESULTS IN A SUM
  1986					;=200400000000
  1987
  1988			000006			AC=6
  1989						SAVEAC	(1,1)^
  1990	032037	201 10 0 00 032037 		MOVEI	AC+2,.
  1991	032040	202 10 0 00 030051 		MOVEM	AC+2,TESTPC	;SETUP SUBTEST PC
  1992	032041	201 10 0 00 000010 		MOVEI	AC+2,<AC+2>&17	;INFORM ERROR ROUTINE WHICH
  1993	032042	202 10 0 00 040244 		MOVEM	AC+2,ERRLOP#	;AC IS USED FOR ITERATION^
  1994
  1995	032043	205 06 0 00 200400 	O20200:	MOVSI	AC,200400	;SETUP AC
  1996	032044	205 07 0 00 200400 		MOVSI	AC+1,200400	;SETUP BR
  1997	032045	140 06 0 00 000007 		FAD	AC,AC+1		;C(AC)+C(E)
  1998	032046	316 06 0 00 000007 		CAMN	AC,AC+1		;TEST SUM=200400000000
  1999	032047	003 06 0 00 020201 		ER3	AC,20201
  2000	032050	321 10 0 00 032043 		JUMPL	AC+2,O20200	;LOOP ON ERROR SWITCH
DAKCA	PDP-10 KA10 ADVANCED INSTRUCTION DIAGNOSTIC #1, VER 0,2	MACRO %52(537) 12:25 21-JAN-77 PAGE 23
DAKCAM	MAC	21-JAN-77 11:41		PART I.B-FAD AND NORM RET                                                          SEQ 0060

  2001					;AR=577400000000 (-1/2)
  2002					;BR=577400000000 (-1/2)
  2003					;CORRECT SUM=576400000000 (-1)
  2004					;ERROR SUM=777400000000
  2005
  2006			000005			AC=5
  2007						SAVEAC	(1,1)^
  2008	032051	201 07 0 00 032051 		MOVEI	AC+2,.
  2009	032052	202 07 0 00 030051 		MOVEM	AC+2,TESTPC	;SETUP SUBTEST PC
  2010	032053	201 07 0 00 000007 		MOVEI	AC+2,<AC+2>&17	;INFORM ERROR ROUTINE WHICH
  2011	032054	202 07 0 00 040244 		MOVEM	AC+2,ERRLOP#	;AC IS USED FOR ITERATION^
  2012
  2013	032055	205 03 0 00 777400 	O20300:	MOVSI	AC-2,777400	;SETUP FOR COMPARISON
  2014	032056	205 05 0 00 577400 		MOVSI	AC,577400	;SETUP AC
  2015	032057	205 06 0 00 577400 		MOVSI	AC+1,577400	;SETUP BR
  2016	032060	140 05 0 00 000006 		FAD	AC,AC+1		;C(AC)+C(E)
  2017	032061	316 05 0 00 000003 		CAMN	AC,AC-2		;TEST SUM=777400000000
  2018	032062	003 05 0 00 020301 		ER3	AC,20301	;SC NEGATE SETUP FAILED
  2019	032063	321 07 0 00 032055 		JUMPL	AC+2,O20300	;LOOP ON ERROR SWITCH
  2020
  2021					;AR=205600000000
  2022					;BR=177400000000
  2023					;FAILURE RESULTS IN A SUM
  2024					;=214500000000
  2025
  2026			000013			AC=13
  2027						SAVEAC	(1,1)^
  2028	032064	201 15 0 00 032064 		MOVEI	AC+2,.
  2029	032065	202 15 0 00 030051 		MOVEM	AC+2,TESTPC	;SETUP SUBTEST PC
  2030	032066	201 15 0 00 000015 		MOVEI	AC+2,<AC+2>&17	;INFORM ERROR ROUTINE WHICH
  2031	032067	202 15 0 00 040244 		MOVEM	AC+2,ERRLOP#	;AC IS USED FOR ITERATION^
  2032
  2033	032070	205 11 0 00 214500 	O20400:	MOVSI	AC-2,214500	;SETUP FOR COMPARISON
  2034	032071	205 13 0 00 205600 		MOVSI	AC,205600	;SETUP AC
  2035	032072	205 14 0 00 177400 		MOVSI	AC+1,177400	;SETUP BR
  2036	032073	140 13 0 00 000014 		FAD	AC,AC+1		;C(AC)+C(E)
  2037	032074	316 13 0 00 000011 		CAMN	AC,AC-2		;TEST SUM=214500
  2038	032075	003 13 0 00 020401 		ER3	AC,20401
  2039	032076	321 15 0 00 032070 		JUMPL	AC+2,O20400	;LOOP ON ERROR SWITCH
DAKCA	PDP-10 KA10 ADVANCED INSTRUCTION DIAGNOSTIC #1, VER 0,2	MACRO %52(537) 12:25 21-JAN-77 PAGE 24
DAKCAM	MAC	21-JAN-77 11:41		PART I.B-FAD AND NORM RET                                                          SEQ 0061

  2040					;OPERANDS SELECTED SHOULD
  2041					;RESULT IN NR ALL ZERO CONDITION
  2042					;AR EXP=201,202,204,210,220,240,300
  2043					;BR EXP=202,204,207,214,225,246,307
  2044					;MANTISSA IN BOTH CASES=0
  2045					;FAILURE OF A BIT TO CLEAR RESULTS IN A
  2046					;SUM WHOSE EXPONENT IS EQUAL TO
  2047					;THE BR EXPONENT, A MANTISSA=400000000
  2048
  2049			000010			AC=10
  2050						SAVEAC	(1,1)^
  2051	032077	201 12 0 00 032077 		MOVEI	AC+2,.
  2052	032100	202 12 0 00 030051 		MOVEM	AC+2,TESTPC	;SETUP SUBTEST PC
  2053	032101	201 12 0 00 000012 		MOVEI	AC+2,<AC+2>&17	;INFORM ERROR ROUTINE WHICH
  2054	032102	202 12 0 00 040244 		MOVEM	AC+2,ERRLOP#	;AC IS USED FOR ITERATION^
  2055
  2056									;TEST AR8
  2057	032103	205 06 0 00 202400 	O20500:	MOVSI	AC-2,202400	;SETUP FOR COMPARISON
  2058	032104	205 10 0 00 201000 		MOVSI	AC,201000	;SETUP AC
  2059	032105	205 11 0 00 202000 		MOVSI	AC+1,202000	;SETUP BR
  2060	032106	140 10 0 00 000011 		FAD	AC,AC+1		;C(AC)+C(E)
  2061	032107	316 10 0 00 000006 		CAMN	AC,AC-2		;TEST SUM=202400000000
  2062	032110	003 10 0 00 020501 		ER3	AC,20501	;AR8 FAILED TO CLEAR
  2063	032111	321 12 0 00 032103 		JUMPL	AC+2,O20500	;LOOP ON ERROR SWITCH
  2064
  2065									;TEST AR7
  2066	032112	205 06 0 00 204400 	O20600:	MOVSI	AC-2,204400	;SETUP FOR COMPARISON
  2067	032113	205 10 0 00 202000 		MOVSI	AC,202000	;SETUP AC
  2068	032114	205 11 0 00 204000 		MOVSI	AC+1,204000	;SETUP BR
  2069	032115	140 10 0 00 000011 		FAD	AC,AC+1		;C(AC)+C(E)
  2070	032116	316 10 0 00 000006 		CAMN	AC,AC-2		;TEST SUM=204400000000
  2071	032117	003 10 0 00 020601 		ER3	AC,20601	;AR7 FAILED TO CLEAR
  2072	032120	321 12 0 00 032112 		JUMPL	AC+2,O20600	;LOOP ON ERROR SWITCH
  2073
  2074									;TEST AR6
  2075	032121	205 06 0 00 207400 	O20700:	MOVSI	AC-2,207400	;SETUP FOR COMPARISON
  2076	032122	205 10 0 00 204000 		MOVSI	AC,204000	;SETUP AC
  2077	032123	205 11 0 00 207000 		MOVSI	AC+1,207000	;SETUP BR
  2078	032124	140 10 0 00 000011 		FAD	AC,AC+1		;C(AC)+C(E)
  2079	032125	316 10 0 00 000006 		CAMN	AC,AC-2		;TEST SUM=207400000000
  2080	032126	003 10 0 00 020701 		ER3	AC,20701	;AR6 FAILED TO CLEAR
  2081	032127	321 12 0 00 032121 		JUMPL	AC+2,O20700	;LOOP ON ERROR SWITCH
  2082
  2083									;TEST AR5
  2084	032130	205 06 0 00 214400 	O21000:	MOVSI	AC-2,214400	;SETUP FOR COMPARISON
  2085	032131	205 10 0 00 210000 		MOVSI	AC,210000	;SETUP AC
  2086	032132	205 11 0 00 214000 		MOVSI	AC+1,214000	;SETUP BR
  2087	032133	140 10 0 00 000011 		FAD	AC,AC+1		;C(AC)+C(E)
  2088	032134	316 10 0 00 000006 		CAMN	AC,AC-2		;TEST SUM=214400000000
  2089	032135	003 10 0 00 021001 		ER3	AC,21001	;AR5 FAILED TO CLEAR
  2090	032136	321 12 0 00 032130 		JUMPL	AC+2,O21000	;LOOP ON ERROR SWITCH
DAKCA	PDP-10 KA10 ADVANCED INSTRUCTION DIAGNOSTIC #1, VER 0,2	MACRO %52(537) 12:25 21-JAN-77 PAGE 25
DAKCAM	MAC	21-JAN-77 11:41		PART I.B-FAD AND NORM RET                                                          SEQ 0062

  2091									;TEST AR4
  2092	032137	205 06 0 00 225400 	O21100:	MOVSI	AC-2,225400	;SETUP FOR COMPARISON
  2093	032140	205 10 0 00 220000 		MOVSI	AC,220000	;SETUP AC
  2094	032141	205 11 0 00 225000 		MOVSI	AC+1,225000	;SETUP BR
  2095	032142	140 10 0 00 000011 		FAD	AC,AC+1		;C(AC)+C(E)
  2096	032143	316 10 0 00 000006 		CAMN	AC,AC-2		;TEST SUM=225400000000
  2097	032144	003 10 0 00 021101 		ER3	AC,21101	;AR4 FAILED TO CLEAR
  2098	032145	321 12 0 00 032137 		JUMPL	AC+2,O21100	;LOOP ON ERROR SWITCH
  2099
  2100									;TEST AR3
  2101	032146	205 06 0 00 246400 	O21200:	MOVSI	AC-2,246400	;SETUP FOR COMPARISON
  2102	032147	205 10 0 00 240000 		MOVSI	AC,240000	;SETUP AC
  2103	032150	205 11 0 00 246000 		MOVSI	AC+1,246000	;SETUP BR
  2104	032151	140 10 0 00 000011 		FAD	AC,AC+1		;C(AC)+C(E)
  2105	032152	316 10 0 00 000006 		CAMN	AC,AC-2		;TEST SUM=246400000000
  2106	032153	003 10 0 00 021201 		ER3	AC,21201	;AR3 FAILED TO CLEAR
  2107	032154	321 12 0 00 032146 		JUMPL	AC+2,O21200	;LOOP ON ERROR SWITCH
  2108
  2109									;TEST AR2
  2110	032155	205 06 0 00 307400 	O21300:	MOVSI	AC-2,307400	;SETUP FOR COMPARISON
  2111	032156	205 10 0 00 300000 		MOVSI	AC,300000	;SETUP AC
  2112	032157	205 11 0 00 307000 		MOVSI	AC+1,307000	;SETUP BR
  2113	032160	140 10 0 00 000011 		FAD	AC,AC+1		;C(AC)+C(E)
  2114	032161	316 10 0 00 000006 		CAMN	AC,AC-2		;TEST SUM=307400000000
  2115	032162	003 10 0 00 021301 		ER3	AC,21301	;AR2 FAILED TO CLEAR
  2116	032163	321 12 0 00 032155 		JUMPL	AC+2,O21300	;LOOP ON ERROR SWITCH
DAKCA	PDP-10 KA10 ADVANCED INSTRUCTION DIAGNOSTIC #1, VER 0,2	MACRO %52(537) 12:25 21-JAN-77 PAGE 26
DAKCAM	MAC	21-JAN-77 11:41		PART I.B-FAD AND NORM RET                                                          SEQ 0063

  2117					;TEST ABILITY TO SET BITS 8-1
  2118					;AR EXP=200,201,202,203,204,205,206,207
  2119					;BR=600400000000
  2120					;FAILURE OF A BIT TO SET RESULTS IN A UNIQUE SUM
  2121
  2122			000007			AC=7
  2123						SAVEAC	(1,1)^
  2124	032164	201 11 0 00 032164 		MOVEI	AC+2,.
  2125	032165	202 11 0 00 030051 		MOVEM	AC+2,TESTPC	;SETUP SUBTEST PC
  2126	032166	201 11 0 00 000011 		MOVEI	AC+2,<AC+2>&17	;INFORM ERROR ROUTINE WHICH
  2127	032167	202 11 0 00 040244 		MOVEM	AC+2,ERRLOP#	;AC IS USED FOR ITERATION^
  2128									;TEST AR8(1)
  2129	032170	205 05 0 00 577200 	O21400:	MOVSI	AC-2,577200	;SETUP FOR COMPARISON
  2130	032171	205 07 0 00 200000 		MOVSI	AC,200000	;SETUP AC
  2131	032172	205 10 0 00 600400 		MOVSI	AC+1,600400	;SETUP BR
  2132	032173	140 07 0 00 000010 		FAD	AC,AC+1		;C(AC)+C(E)
  2133	032174	316 07 0 00 000005 		CAMN	AC,AC-2		;TEST SUM=577200000000
  2134	032175	003 07 0 00 021401 		ER3	AC,21401	;AR8 FAILED TO SET
  2135	032176	321 11 0 00 032170 		JUMPL	AC+2,O21400	;LOOP ON ERROR SWITCH
  2136
  2137									;TEST AR7 (1)
  2138	032177	205 05 0 00 576300 	O21500:	MOVSI	AC-2,576300	;SETUP FOR COMPARISON
  2139	032200	205 07 0 00 201000 		MOVSI	AC,201000	;SETUP AC
  2140	032201	205 10 0 00 600400 		MOVSI	AC+1,600400	;SETUP BR
  2141	032202	140 07 0 00 000010 		FAD	AC,AC+1		;C(AC)+C(E)
  2142	032203	316 07 0 00 000005 		CAMN	AC,AC-2		;TEST SUM=576300000000
  2143	032204	003 07 0 00 021501 		ER3	AC,21501	;AR7 FAILED TO SET
  2144	032205	321 11 0 00 032177 		JUMPL	AC+2,O21500	;LOOP ON ERROR SWITCH
  2145
  2146									;TEST AR6(1)
  2147	032206	205 05 0 00 575340 	O21600:	MOVSI	AC-2,575340	;SETUP FOR COMPARISON
  2148	032207	205 07 0 00 202000 		MOVSI	AC,202000	;SETUP AC
  2149	032210	205 10 0 00 600400 		MOVSI	AC+1,600400	;SETUP BR
  2150	032211	140 07 0 00 000010 		FAD	AC,AC+1		;C(AC)+C(E)
  2151	032212	316 07 0 00 000005 		CAMN	AC,AC-2		;TEST SUM=575340000000
  2152	032213	003 07 0 00 021601 		ER3	AC,21601	;AR6 FAILED TO SET
  2153	032214	321 11 0 00 032206 		JUMPL	AC+2,O21600	;LOOP ON ERROR SWITCH
  2154
  2155									;TEST AR5(1)
  2156	032215	205 05 0 00 574360 	O21700:	MOVSI	AC-2,574360	;SETUP FOR COMPARISON
  2157	032216	205 07 0 00 203000 		MOVSI	AC,203000	;SETUP AC
  2158	032217	205 10 0 00 600400 		MOVSI	AC+1,600400	;SETUP BR
  2159	032220	140 07 0 00 000010 		FAD	AC,AC+1		;C(AC)+C(E)
  2160	032221	316 07 0 00 000005 		CAMN	AC,AC-2		;TEST SUM=574360000000
  2161	032222	003 07 0 00 021701 		ER3	AC,21701	;AR5 FAILED TO SET
  2162	032223	321 11 0 00 032215 		JUMPL	AC+2,O21700	;LOOP ON ERROR SWITCH
DAKCA	PDP-10 KA10 ADVANCED INSTRUCTION DIAGNOSTIC #1, VER 0,2	MACRO %52(537) 12:25 21-JAN-77 PAGE 27
DAKCAM	MAC	21-JAN-77 11:41		PART I.B-FAD AND NORM RET                                                          SEQ 0064

  2163									;TEST AR4 (1)
  2164	032224	205 05 0 00 573370 	O22000:	MOVSI	AC-2,573370	;SETUP FOR COMPARISON
  2165	032225	205 07 0 00 204000 		MOVSI	AC,204000	;SETUP AC
  2166	032226	205 10 0 00 600400 		MOVSI	AC+1,600400	;SETUP BR
  2167	032227	140 07 0 00 000010 		FAD	AC,AC+1		;C(AC)+C(E)
  2168	032230	316 07 0 00 000005 		CAMN	AC,AC-2		;TEST SUM=573370000000
  2169	032231	003 07 0 00 022001 		ER3	AC,22001	;AR4 FAILED TO SET
  2170	032232	321 11 0 00 032224 		JUMPL	AC+2,O22000	;LOOP ON ERROR SWITCH
  2171
  2172									;TEST AR3(1)
  2173	032233	205 05 0 00 572374 	O22100:	MOVSI	AC-2,572374	;SETUP FOR COMPARISON
  2174	032234	205 07 0 00 205000 		MOVSI	AC,205000	;SETUP AC
  2175	032235	205 10 0 00 600400 		MOVSI	AC+1,600400	;SETUP BR
  2176	032236	140 07 0 00 000010 		FAD	AC,AC+1		;C(AC)+C(E)
  2177	032237	316 07 0 00 000005 		CAMN	AC,AC-2		;TEST SUM=572374000000
  2178	032240	003 07 0 00 022101 		ER3	AC,22101	;AR3 FAILED TO SET
  2179	032241	321 11 0 00 032233 		JUMPL	AC+2,O22100	;LOOP ON ERROR SWITCH
  2180
  2181									;TEST AR2(1)
  2182	032242	205 05 0 00 571376 	O22200:	MOVSI	AC-2,571376	;SETUP FOR COMPARISON
  2183	032243	205 07 0 00 206000 		MOVSI	AC,206000	;SETUP AC
  2184	032244	205 10 0 00 600400 		MOVSI	AC+1,600400	;SETUP BR
  2185	032245	140 07 0 00 000010 		FAD	AC,AC+1		;C(AC)+C(E)
  2186	032246	316 07 0 00 000005 		CAMN	AC,AC-2		;TEST SUM=571376000000
  2187	032247	003 07 0 00 022201 		ER3	AC,22201	;AR2 FAILED TO SET
  2188	032250	321 11 0 00 032242 		JUMPL	AC+2,O22200	;LOOP ON ERROR SWITCH
  2189
  2190									;TEST AR1(1)
  2191	032251	205 05 0 00 570377 	O22300:	MOVSI	AC-2,570377	;SETUP FOR COMPARISON
  2192	032252	205 07 0 00 207000 		MOVSI	AC,207000	;SETUP AC
  2193	032253	205 10 0 00 600400 		MOVSI	AC+1,600400	;SETUP BR
  2194	032254	140 07 0 00 000010 		FAD	AC,AC+1		;C(AC)+C(E)
  2195	032255	316 07 0 00 000005 		CAMN	AC,AC-2		;TEST SUM=570377000000
  2196	032256	003 07 0 00 022301 		ER3	AC,22301	;AR1 FAILED TO SET
  2197	032257	321 11 0 00 032251 		JUMPL	AC+2,O22300	;LOOP ON ERROR SWITCH
DAKCA	PDP-10 KA10 ADVANCED INSTRUCTION DIAGNOSTIC #1, VER 0,2	MACRO %52(537) 12:25 21-JAN-77 PAGE 28
DAKCAM	MAC	21-JAN-77 11:41		PART I.B-FAD AND NORM RET                                                          SEQ 0065

  2198					;AR=400200000000
  2199					;BR=377400000000
  2200					;FAILURE RESULTS IN LOSS OF BR EXPONENT,
  2201					;RESULTING IN AN EXCESSIVE SHIFT COND.-
  2202					;NO ADD STORE 400200000000
  2203
  2204			000006			AC=6
  2205						SAVEAC	(1,1)^
  2206	032260	201 10 0 00 032260 		MOVEI	AC+2,.
  2207	032261	202 10 0 00 030051 		MOVEM	AC+2,TESTPC	;SETUP SUBTEST PC
  2208	032262	201 10 0 00 000010 		MOVEI	AC+2,<AC+2>&17	;INFORM ERROR ROUTINE WHICH
  2209	032263	202 10 0 00 040244 		MOVEM	AC+2,ERRLOP#	;AC IS USED FOR ITERATION^
  2210
  2211	032264	205 04 0 00 400200 	O22400:	MOVSI	AC-2,400200	;SETUP FOR COMPARISON
  2212	032265	205 06 0 00 400200 		MOVSI	AC,400200	;SETUP AC
  2213	032266	205 07 0 00 377400 		MOVSI	AC+1,377400	;SETUP BR
  2214	032267	140 06 0 00 000007 		FAD	AC,AC+1		;C(AC)+C(E)
  2215	032270	316 06 0 00 000004 		CAMN	AC,AC-2		;TEST SUM=400200000000
  2216	032271	003 06 0 00 022401 		ER3	AC,22401
  2217	032272	321 10 0 00 032264 		JUMPL	AC+2,O22400	;LOOP ON ERROR SWITCH
  2218
  2219					;AR=377400000000
  2220					;BBR=400200000000
  2221					;FAILURE RESULTS IN LOSS OF BR EXPONENT,
  2222					;RESULTING IN AN EXECESSIVE SHIFT CONDITION. STORE
  2223					;377400000000
  2224
  2225			000005			AC=5
  2226						SAVEAC	(1,1)^
  2227	032273	201 07 0 00 032273 		MOVEI	AC+2,.
  2228	032274	202 07 0 00 030051 		MOVEM	AC+2,TESTPC	;SETUP SUBTEST PC
  2229	032275	201 07 0 00 000007 		MOVEI	AC+2,<AC+2>&17	;INFORM ERROR ROUTINE WHICH
  2230	032276	202 07 0 00 040244 		MOVEM	AC+2,ERRLOP#	;AC IS USED FOR ITERATION^
  2231
  2232	032277	205 03 0 00 377400 	O22500:	MOVSI	AC-2,377400	;SETUP FOR COMPARISON
  2233	032300	205 05 0 00 377400 		MOVSI	AC,377400	;SETUP AC
  2234	032301	205 06 0 00 400200 		MOVSI	AC+1,400200	;SETUP BR
  2235	032302	140 05 0 00 000006 		FAD	AC,AC+1		;C(AC)+C(E)
  2236	032303	316 05 0 00 000003 		CAMN	AC,AC-2		;TEST SUM=377400000000
  2237	032304	003 05 0 00 022501 		ER3	AC,22501	;SC+BR(FAT1) FAILED
  2238	032305	321 07 0 00 032277 		JUMPL	AC+2,O22500	;LOOP ON ERROR SWITCH
  2239					PAGE
DAKCA	PDP-10 KA10 ADVANCED INSTRUCTION DIAGNOSTIC #1, VER 0,2	MACRO %52(537) 12:25 21-JAN-77 PAGE 28-1
DAKCAM	MAC	21-JAN-77 11:41		PART I.B-FAD AND NORM RET                                                          SEQ 0066

  2240					;AR=200400000000
  2241					;BR=600400000000
  2242					;FAILURE RESULTS IN AN NR ALL ZERO COND.
  2243					;FAILURE RESULTS IN A SUM=0
  2244
  2245			000014			AC=14
  2246						SAVEAC	(1,1)^
  2247	032306	201 16 0 00 032306 		MOVEI	AC+2,.
  2248	032307	202 16 0 00 030051 		MOVEM	AC+2,TESTPC	;SETUP SUBTEST PC
  2249	032310	201 16 0 00 000016 		MOVEI	AC+2,<AC+2>&17	;INFORM ERROR ROUTINE WHICH
  2250	032311	202 16 0 00 040244 		MOVEM	AC+2,ERRLOP#	;AC IS USED FOR ITERATION^
  2251
  2252	032312	205 14 0 00 200400 	O22600:	MOVSI	AC,200400	;SETUP AC
  2253	032313	205 15 0 00 600400 		MOVSI	AC+1,600400	;SETUP BR
  2254	032314	140 14 0 00 000015 		FAD	AC,AC+1		;C(AC)+C(E)
  2255	032315	336 00 0 00 000014 		SKIPN	AC		;SETUP SUM=0
  2256	032316	003 14 0 00 022601 		ER3	AC,22601	;SC COMP SETUP FAILED
  2257	032317	321 16 0 00 032312 		JUMPL	AC+2,O22600	;LOOP ON ERROR SWITCH
DAKCA	PDP-10 KA10 ADVANCED INSTRUCTION DIAGNOSTIC #1, VER 0,2	MACRO %52(537) 12:25 21-JAN-77 PAGE 29
DAKCAM	MAC	21-JAN-77 11:41		PART I.B-FAD AND NORM RET                                                          SEQ 0067

  2258					;AR=200600000000
  2259					;BR=201400000000
  2260					;FAILURE RESULTS IN SHIFTING SUM OF AR
  2261					;AND BR RESULTING IN A SUM
  2262					;=202640000000
  2263
  2264			000014			AC=14
  2265						SAVEAC	(1,1)^
  2266	032320	201 16 0 00 032320 		MOVEI	AC+2,.
  2267	032321	202 16 0 00 030051 		MOVEM	AC+2,TESTPC	;SETUP SUBTEST PC
  2268	032322	201 16 0 00 000016 		MOVEI	AC+2,<AC+2>&17	;INFORM ERROR ROUTINE WHICH
  2269	032323	202 16 0 00 040244 		MOVEM	AC+2,ERRLOP#	;AC IS USED FOR ITERATION^
  2270
  2271	032324	205 12 0 00 202640 	O22700:	MOVSI	AC-2,202640	;SETUP FOR COMPARISON
  2272	032325	205 14 0 00 200600 		MOVSI	AC,200600	;SETUP AC
  2273	032326	205 15 0 00 201400 		MOVSI	AC+1,201400	;SETUP BR
  2274	032327	140 14 0 00 000015 		FAD	AC,AC+1		;C(AC)+C(E)
  2275	032330	316 14 0 00 000012 		CAMN	AC,AC-2		;TEST SUM=202640000000
  2276	032331	003 14 0 00 022701 		ER3	AC,22701
  2277	032332	321 16 0 00 032324 		JUMPL	AC+2,O22700	;LOOP ON ERROR SWITCH
  2278
  2279					;AR=577600000000 (-1/4) (UNNORMALIZED)
  2280					;BR=200400000000 (+1/2)
  2281					;FAILURE RESULTS IN A CORRECT MANTISSA,
  2282					;THE EXPONENT IS IN ERROR
  2283					;CORRECT SUM=177400000000
  2284					;ERROR SUM=376400000000
  2285
  2286			000013			AC=13
  2287						SAVEAC	(1,1)^
  2288	032333	201 15 0 00 032333 		MOVEI	AC+2,.
  2289	032334	202 15 0 00 030051 		MOVEM	AC+2,TESTPC	;SETUP SUBTEST PC
  2290	032335	201 15 0 00 000015 		MOVEI	AC+2,<AC+2>&17	;INFORM ERROR ROUTINE WHICH
  2291	032336	202 15 0 00 040244 		MOVEM	AC+2,ERRLOP#	;AC IS USED FOR ITERATION^
  2292
  2293	032337	205 11 0 00 376400 	O23000:	MOVSI	AC-2,376400	;SETUP FOR COMPARISON
  2294	032340	205 13 0 00 577600 		MOVSI	AC,577600	;SETUP AC
  2295	032341	205 14 0 00 200400 		MOVSI	AC+1,200400	;SETUP BR
  2296	032342	140 13 0 00 000014 		FAD	AC,AC+1		;C(AC)+C(E)
  2297	032343	316 13 0 00 000011 		CAMN	AC,AC-2		;TEST SUM=376400000000
  2298	032344	003 13 0 00 023001 		ER3	AC,23001
  2299	032345	321 15 0 00 032337 		JUMPL	AC+2,O23000	;LOOP ON ERROR SWITCH
DAKCA	PDP-10 KA10 ADVANCED INSTRUCTION DIAGNOSTIC #1, VER 0,2	MACRO %52(537) 12:25 21-JAN-77 PAGE 30
DAKCAM	MAC	21-JAN-77 11:41		PART I.B-FAD AND NORM RET                                                          SEQ 0068

  2300					;AR=600400000000 (-1/4)
  2301					;BR=577200000000 (-3/4)
  2302					;FAILURE RESULTS IN A CORRECT MANTISSA,
  2303					;THE EXPONENT IS IN ERROR
  2304					;CORRECT SUM=576400000000
  2305					;ERROR SUM=600400000000
  2306
  2307			000012			AC=12
  2308						SAVEAC	(1,1)^
  2309	032346	201 14 0 00 032346 		MOVEI	AC+2,.
  2310	032347	202 14 0 00 030051 		MOVEM	AC+2,TESTPC	;SETUP SUBTEST PC
  2311	032350	201 14 0 00 000014 		MOVEI	AC+2,<AC+2>&17	;INFORM ERROR ROUTINE WHICH
  2312	032351	202 14 0 00 040244 		MOVEM	AC+2,ERRLOP#	;AC IS USED FOR ITERATION^
  2313
  2314	032352	205 10 0 00 600400 	O23100:	MOVSI	AC-2,600400	;SETUP FOR COMPARISON
  2315	032353	205 12 0 00 600400 		MOVSI	AC,600400	;SETUP AC
  2316	032354	205 13 0 00 577200 		MOVSI	AC+1,577200	;SETUP BR
  2317	032355	140 12 0 00 000013 		FAD	AC,AC+1		;C(AC)+C(E)
  2318	032356	316 12 0 00 000010 		CAMN	AC,AC-2		;TEST SUM=600400000000
  2319	032357	003 12 0 00 023101 		ER3	AC,23101	;SC COMP SETUP FAILED
  2320	032360	321 14 0 00 032352 		JUMPL	AC+2,O23100	;LOOP ON ERROR SWITCH
  2321
  2322
  2323					;AR=600400000000 (-1/4)
  2324					;BR=577200000000 (-3/4)
  2325					;FAILURE RESULTS IN A CORRECT MANTISSA,
  2326					;THE EXPONENT IS IN ERROR
  2327					;CORRECT SUM=576400000000
  2328					;ERROR SUM =5777400000000
  2329
  2330			000011			AC=11
  2331
  2332						SAVEAC	(1,1)^
  2333	032361	201 13 0 00 032361 		MOVEI	AC+2,.
  2334	032362	202 13 0 00 030051 		MOVEM	AC+2,TESTPC	;SETUP SUBTEST PC
  2335	032363	201 13 0 00 000013 		MOVEI	AC+2,<AC+2>&17	;INFORM ERROR ROUTINE WHICH
  2336	032364	202 13 0 00 040244 		MOVEM	AC+2,ERRLOP#	;AC IS USED FOR ITERATION^
  2337
  2338	032365	205 07 0 00 577400 	O23200:	MOVSI	AC-2,577400	;SETUP FOR COMPARISON
  2339	032366	205 11 0 00 600400 		MOVSI	AC,600400	;SETUP AC
  2340	032367	205 12 0 00 577200 		MOVSI	AC+1,577200	;SETUP BR
  2341	032370	140 11 0 00 000012 		FAD	AC,AC+1		;C(AC)+C(E)
  2342	032371	316 11 0 00 000007 		CAMN	AC,AC-2		;TEST SUM=577400000000
  2343	032372	003 11 0 00 023201 		ER3	AC,23201
  2344	032373	321 13 0 00 032365 		JUMPL	AC+2,O23200	;LOOP ON ERROR SWITCH
DAKCA	PDP-10 KA10 ADVANCED INSTRUCTION DIAGNOSTIC #1, VER 0,2	MACRO %52(537) 12:25 21-JAN-77 PAGE 31
DAKCAM	MAC	21-JAN-77 11:41		PART I.B-FAD AND NORM RET                                                          SEQ 0069

  2345					;AR=600400000000 (-1/4)
  2346					;BR=577200000000 (-3/4)
  2347					;FAILURE RESULTS IN A CORRECT MANTISSA,
  2348					;THE EXPONENT IS IN ERROR
  2349					;CORRECT SUM=576400000000
  2350					;ERROR SUM=577000000000
  2351
  2352			000010			AC=10
  2353						SAVEAC	(1,1)^
  2354	032374	201 12 0 00 032374 		MOVEI	AC+2,.
  2355	032375	202 12 0 00 030051 		MOVEM	AC+2,TESTPC	;SETUP SUBTEST PC
  2356	032376	201 12 0 00 000012 		MOVEI	AC+2,<AC+2>&17	;INFORM ERROR ROUTINE WHICH
  2357	032377	202 12 0 00 040244 		MOVEM	AC+2,ERRLOP#	;AC IS USED FOR ITERATION^
  2358
  2359	032400	205 06 0 00 577000 	O23300:	MOVSI	AC-2,577000	;SETUP FOR COMPARISON
  2360	032401	205 10 0 00 600400 		MOVSI	AC,600400	;SETUP AC
  2361	032402	205 11 0 00 577200 		MOVSI	AC+1,577200	;SETUP BR
  2362	032403	140 10 0 00 000011 		FAD	AC,AC+1		;C(AC)+C(E)
  2363	032404	316 10 0 00 000006 		CAMN	AC,AC-2		;TEST SUM=577000000000
  2364	032405	003 10 0 00 023301 		ER3	AC,23301
  2365	032406	321 12 0 00 032400 		JUMPL	AC+2,O23300	;LOOP ON ERROR SWITCH
  2366
  2367					;AR=201400000000 (+1)
  2368					;BR=200400000000 (+1/2)
  2369					;CORRECT SUM=201600000000
  2370					;ERROR SUM=200600000000
  2371
  2372			000010			AC=10
  2373						SAVEAC	(1,1)^
  2374	032407	201 12 0 00 032407 		MOVEI	AC+2,.
  2375	032410	202 12 0 00 030051 		MOVEM	AC+2,TESTPC	;SETUP SUBTEST PC
  2376	032411	201 12 0 00 000012 		MOVEI	AC+2,<AC+2>&17	;INFORM ERROR ROUTINE WHICH
  2377	032412	202 12 0 00 040244 		MOVEM	AC+2,ERRLOP#	;AC IS USED FOR ITERATION^
  2378
  2379	032413	205 06 0 00 200600 	O23400:	MOVSI	AC-2,200600	;SETUP FOR COMPARISON
  2380	032414	205 10 0 00 201400 		MOVSI	AC,201400	;SETUP AC
  2381	032415	205 11 0 00 200400 		MOVSI	AC+1,200400	;SETUP BR
  2382	032416	140 10 0 00 000011 		FAD	AC,AC+1		;C(AC)+C(E)
  2383	032417	316 10 0 00 000006 		CAMN	AC,AC-2		;TEST SUM=200600000000
  2384	032420	003 10 0 00 023401 		ER3	AC,23401
  2385	032421	321 12 0 00 032413 		JUMPL	AC+2,O23400	;LOOP ON ERROR SWITCH
DAKCA	PDP-10 KA10 ADVANCED INSTRUCTION DIAGNOSTIC #1, VER 0,2	MACRO %52(537) 12:25 21-JAN-77 PAGE 32
DAKCAM	MAC	21-JAN-77 11:41		PART I.B-FAD AND NORM RET                                                          SEQ 0070

  2386					;AR=576400000000 (-1)
  2387					;BR=200400000000 (+1/2)
  2388					;CORRECT SUM=577400000000 (-1/2)
  2389					;ERROR SUM=177400000000
  2390
  2391			000007			AC=7
  2392						SAVEAC	(1,1)^
  2393	032422	201 11 0 00 032422 		MOVEI	AC+2,.
  2394	032423	202 11 0 00 030051 		MOVEM	AC+2,TESTPC	;SETUP SUBTEST PC
  2395	032424	201 11 0 00 000011 		MOVEI	AC+2,<AC+2>&17	;INFORM ERROR ROUTINE WHICH
  2396	032425	202 11 0 00 040244 		MOVEM	AC+2,ERRLOP#	;AC IS USED FOR ITERATION^
  2397
  2398	032426	205 05 0 00 177400 	O23500:	MOVSI	AC-2,177400	;SETUP FOR COMPARISON
  2399	032427	205 07 0 00 576400 		MOVSI	AC,576400	;SETUP AC
  2400	032430	205 10 0 00 200400 		MOVSI	AC+1,200400	;SETUP BR
  2401	032431	140 07 0 00 000010 		FAD	AC,AC+1		;C(AC)+C(E)
  2402	032432	316 07 0 00 000005 		CAMN	AC,AC-2		;TEST SUM=177400000000
  2403	032433	003 07 0 00 023501 		ER3	AC,23501
  2404	032434	321 11 0 00 032426 		JUMPL	AC+2,O23500	;LOOP ON ERROR SWITCH
  2405
  2406					;AR=200440000000
  2407					;BR=200400000000
  2408					;CORRECT SUM=201400000000
  2409					;ERROR SUM=570000000000
  2410
  2411			000010			AC=10
  2412						SAVEAC	(1,1)^
  2413	032435	201 12 0 00 032435 		MOVEI	AC+2,.
  2414	032436	202 12 0 00 030051 		MOVEM	AC+2,TESTPC	;SETUP SUBTEST PC
  2415	032437	201 12 0 00 000012 		MOVEI	AC+2,<AC+2>&17	;INFORM ERROR ROUTINE WHICH
  2416	032440	202 12 0 00 040244 		MOVEM	AC+2,ERRLOP#	;AC IS USED FOR ITERATION^
  2417
  2418	032441	205 06 0 00 175400 	O23600:	MOVSI	AC-2,175400	;SETUP FOR COMPARISON
  2419	032442	205 10 0 00 200440 		MOVSI	AC,200440	;SETUP AC
  2420	032443	205 11 0 00 200400 		MOVSI	AC+1,200400	;SETUP BR
  2421	032444	140 10 0 00 000011 		FAD	AC,AC+1		;C(AC)+C(E)
  2422	032445	316 10 0 00 000006 		CAMN	AC,AC-2		;TEST SUM=175400000000
  2423	032446	003 10 0 00 023601 		ER3	AC,23601
  2424	032447	321 12 0 00 032441 		JUMPL	AC+2,O23600	;LOOP ON ERROR SWITCH
DAKCA	PDP-10 KA10 ADVANCED INSTRUCTION DIAGNOSTIC #1, VER 0,2	MACRO %52(537) 12:25 21-JAN-77 PAGE 33
DAKCAM	MAC	21-JAN-77 11:41		PART I.B-FAD AND NORM RET                                                          SEQ 0071

  2425					;TEST ABILITY TO BRING UP NRT10
  2426					;AR=577400000000 (-1/2)
  2427					;BR=577400000000 (-1/2)
  2428					;CORRECT SUM=576400000000 (-1)
  2429					;ERROR SUM=577000000000
  2430
  2431			000007			AC=7
  2432						SAVEAC	(1,1)^
  2433	032450	201 11 0 00 032450 		MOVEI	AC+2,.
  2434	032451	202 11 0 00 030051 		MOVEM	AC+2,TESTPC	;SETUP SUBTEST PC
  2435	032452	201 11 0 00 000011 		MOVEI	AC+2,<AC+2>&17	;INFORM ERROR ROUTINE WHICH
  2436	032453	202 11 0 00 040244 		MOVEM	AC+2,ERRLOP#	;AC IS USED FOR ITERATION^
  2437
  2438	032454	205 05 0 00 577000 	O23700:	MOVSI	AC-2,577000	;SETUP FOR COMPARISON
  2439	032455	205 07 0 00 577400 		MOVSI	AC,577400	;SETUP AC
  2440	032456	205 10 0 00 577400 		MOVSI	AC+1,577400	;SETUP BR
  2441	032457	140 07 0 00 000010 		FAD	AC,AC+1		;C(AC)+C(E)
  2442	032460	316 07 0 00 000005 		CAMN	AC,AC-2		;TEST SUM=577000000000
  2443	032461	003 07 0 00 023701 		ER3	AC,23701
  2444	032462	321 11 0 00 032454 		JUMPL	AC+2,O23700	;LOOP ON ERROR SWITCH
DAKCA	PDP-10 KA10 ADVANCED INSTRUCTION DIAGNOSTIC #1, VER 0,2	MACRO %52(537) 12:25 21-JAN-77 PAGE 34
DAKCAM	MAC	21-JAN-77 11:41		PART I.C-FAD (LONG, NORM RET, ROUNDING)                                            SEQ 0072

  2445					SUBTTL	PART I.C-FAD (LONG, NORM RET, ROUNDING)
  2446
  2447					;		PART I.C-FAD(LONG, NORM RET, ROUNDING)
  2448
  2449					;TEST APPARENT ABILITY TO FCE,
  2450					;FAC, SAC, SAC2 AND DECODE
  2451					;AR=200400000077
  2452					;BR=206400000000
  2453					;FCE/SAC FAIL-C(AC) EQUALS ORIGINAL
  2454					;FAC FAILS-C(AC) EQUALS C(E)
  2455					;SAC2 FAILS- C(AC+1) EQUALS ORIGINAL
  2456
  2457			000014			AC=14
  2458						SAVEAC	(1,1)^
  2459	032463	201 16 0 00 032463 		MOVEI	AC+2,.
  2460	032464	202 16 0 00 030051 		MOVEM	AC+2,TESTPC	;SETUP SUBTEST PC
  2461	032465	201 16 0 00 000016 		MOVEI	AC+2,<AC+2>&17	;INFORM ERROR ROUTINE WHICH
  2462	032466	202 16 0 00 040244 		MOVEM	AC+2,ERRLOP#	;AC IS USED FOR ITERATION^
  2463
  2464	032467	541 12 0 00 000077 	O24000:	HRRI	AC-2,77		;SETUP AC-2
  2465	032470	505 12 0 00 200400 		HRLI	AC-2,200400	;FOR COMPARISON
  2466	032471	541 14 0 00 000077 		HRRI	AC,77		;SETUP
  2467	032472	505 14 0 00 200400 		HRLI	AC,200400	;AC
  2468	032473	205 13 0 00 206400 		MOVSI	AC-1,206400	;SETUP BR
  2469	032474	400 15 0 00 000000 		SETZ	AC+1,		;CLEAR AC+1
  2470	032475	141 14 0 00 000013 		FADL	AC,AC-1		;C(AC)+C(E)
  2471	032476	316 14 0 00 000012 		CAMN	AC,AC-2		;TEST C(AC)=ORIGINAL
  2472	032477	003 14 0 00 024001 		ER3	AC,24001	;FCE/SAC FAILED
  2473	032500	316 14 0 00 000013 		CAMN	AC,AC-1		;TEST C(AC)=C(E)
  2474	032501	003 14 0 00 024001 		ER3	AC,24001	;FAC FAILED
  2475	032502	336 00 0 00 000015 		SKIPN	AC+1		;TEST C(AC+1)=ORIGINAL
  2476	032503	004 15 0 00 024001 		ER4	AC+1,24001	;SAC2 FAILED
  2477	032504	321 16 0 00 032467 		JUMPL	AC+2,O24000	;LOOP ON ERROR SWITCH
DAKCA	PDP-10 KA10 ADVANCED INSTRUCTION DIAGNOSTIC #1, VER 0,2	MACRO %52(537) 12:25 21-JAN-77 PAGE 35
DAKCAM	MAC	21-JAN-77 11:41		PART I.C-FAD (LONG, NORM RET, ROUNDING)                                            SEQ 0073

  2478
  2479					;TEST APPARENT ABILITY TO SHIFT
  2480					;AR=200400000077
  2481					;BR=206400000000
  2482					;FAILURE TO SHIFT RESULTS IN A LOW
  2483					;ORDER SUM=0
  2484					;CORRECT HIGH ORDER=206404000000
  2485					;CORRECT LOW ORDER=153770000000
  2486
  2487			000014			AC=14
  2488						SAVEAC	(1,1)^
  2489	032505	201 16 0 00 032505 		MOVEI	AC+2,.
  2490	032506	202 16 0 00 030051 		MOVEM	AC+2,TESTPC	;SETUP SUBTEST PC
  2491	032507	201 16 0 00 000016 		MOVEI	AC+2,<AC+2>&17	;INFORM ERROR ROUTINE WHICH
  2492	032510	202 16 0 00 040244 		MOVEM	AC+2,ERRLOP#	;AC IS USED FOR ITERATION^
  2493
  2494	032511	541 14 0 00 000077 	O24100:	HRRI	AC,77		;SETUP
  2495	032512	505 14 0 00 200400 		HRLI	AC,200400	;AC
  2496	032513	205 13 0 00 206400 		MOVSI	AC-1,206400	;SETUP BR
  2497	032514	400 15 0 00 000000 		SETZ	AC+1,		;CLEAR AC+1
  2498	032515	141 14 0 00 000013 		FADL	AC,AC-1		;C(AC)+C(E)
  2499	032516	336 00 0 00 000015 		SKIPN	AC+1		;TEST AC+1 NOT = 0
  2500	032517	004 15 0 00 024101 		ER4	AC+1,24101	;MQ FAILED TO SHIFT
  2501	032520	321 16 0 00 032511 		JUMPL	AC+2,O24100	;LOOP ON ERROR SWITCH
DAKCA	PDP-10 KA10 ADVANCED INSTRUCTION DIAGNOSTIC #1, VER 0,2	MACRO %52(537) 12:25 21-JAN-77 PAGE 36
DAKCAM	MAC	21-JAN-77 11:41		PART I.C-FAD (LONG, NORM RET, ROUNDING)                                            SEQ 0074

  2502					;TEST IR FP LONG AND-IR FDVX
  2503					;AR=200400000077
  2504					;BR=206400000000
  2505					;IR FP LONG FAILS-C(AC+1)=ORIGINAL
  2506					;-IR FDVX FAILS-C(AC+1)=001760000000
  2507					;THE HIGH ORDER SUM IS CORRECT IN BOTH CASES
  2508					;HIGH ORDER SUM=206404000000
  2509					;CORR LOW ORDER SUM=153770000000
  2510
  2511			000013			AC=13
  2512						SAVEAC	(1,1)^
  2513	032521	201 15 0 00 032521 		MOVEI	AC+2,.
  2514	032522	202 15 0 00 030051 		MOVEM	AC+2,TESTPC	;SETUP SUBTEST PC
  2515	032523	201 15 0 00 000015 		MOVEI	AC+2,<AC+2>&17	;INFORM ERROR ROUTINE WHICH
  2516	032524	202 15 0 00 040244 		MOVEM	AC+2,ERRLOP#	;AC IS USED FOR ITERATION^
  2517
  2518									;TEST IR FP LONG
  2519	032525	205 11 0 00 206404 	O24200:	MOVSI	AC-2,206404	;SETUP FOR COMPARISON
  2520	032526	541 13 0 00 000077 		HRRI	AC,77		;SETUP
  2521	032527	505 13 0 00 200400 		HRLI	AC,200400	;AC
  2522	032530	205 12 0 00 206400 		MOVSI	AC-1,206400	;SETUP BR
  2523	032531	400 14 0 00 000000 		SETZ	AC+1,		;CLEAR AC+1
  2524	032532	141 13 0 00 000012 		FADL	AC,AC-1		;C(AC)+C(E)
  2525	032533	312 13 0 00 000011 		CAME	AC,AC-2		;TEST CORR HIGH ORDER SUM
  2526	032534	003 13 0 00 024201 		ER3	AC,24201	;INCORRECT HIGH ORDER
  2527	032535	336 00 0 00 000014 		SKIPN	AC+1		;TEST AC+1 DIFFERS ORIG
  2528	032536	004 14 0 00 024201 		ER4	AC+1,24201	;IR FP LONG FAILED
  2529	032537	321 15 0 00 032525 		JUMPL	AC+2,O24200	;LOOP ON ERROR SWITCH
  2530
  2531									;TEST-IR FDVX
  2532	032540	205 11 0 00 206404 	O24300:	MOVSI	AC-2,206404	;SETUP FOR COMPARISON
  2533	032541	541 13 0 00 000077 		HRRI	AC,77		;SETUP
  2534	032542	505 13 0 00 200400 		HRLI	AC,200400	;AC
  2535	032543	205 12 0 00 206400 		MOVSI	AC-1,206400	;SETUP BR
  2536	032544	141 13 0 00 000012 		FADL	AC,AC-1		;C(AC)+C(E)
  2537	032545	312 13 0 00 000011 		CAME	AC,AC-2		;TEST CORR HIGH ORDER
  2538	032546	003 13 0 00 024301 		ER3	AC,24301	;INCORRECT HIGH ORDER
  2539	032547	205 11 0 00 001760 		MOVSI	AC-2,1760	;SETUP FOR COMPARISON
  2540	032550	316 14 0 00 000011 		CAMN	AC+1,AC-2	;TEST LOW SUM=1760000000
  2541	032551	004 14 0 00 024301 		ER4	AC+1,24301	;-IR FDVX FAILED
  2542	032552	321 15 0 00 032540 		JUMPL	AC+2,O24300	;LOOP ON ERROR SWITCH
DAKCA	PDP-10 KA10 ADVANCED INSTRUCTION DIAGNOSTIC #1, VER 0,2	MACRO %52(537) 12:25 21-JAN-77 PAGE 37
DAKCAM	MAC	21-JAN-77 11:41		PART I.C-FAD (LONG, NORM RET, ROUNDING)                                            SEQ 0075

  2543					;AR=200400000077
  2544					;BR=206400000000
  2545					;FAILURE RESULTS IN A CORRECT
  2546					;HIGH ORDER SUM.  THE EXPONENT OF THE
  2547					;LOW ORDER SUM IS IN ERROR
  2548					;CORR HIGH ORDER=206404000000
  2549					;CORR LOW ORDER=153770000000
  2550					;ERR LOW ORDER=206770000000
  2551
  2552			000012			AC=12
  2553						SAVEAC	(1,1)^
  2554	032553	201 14 0 00 032553 		MOVEI	AC+2,.
  2555	032554	202 14 0 00 030051 		MOVEM	AC+2,TESTPC	;SETUP SUBTEST PC
  2556	032555	201 14 0 00 000014 		MOVEI	AC+2,<AC+2>&17	;INFORM ERROR ROUTINE WHICH
  2557	032556	202 14 0 00 040244 		MOVEM	AC+2,ERRLOP#	;AC IS USED FOR ITERATION^
  2558
  2559	032557	205 10 0 00 206770 	O24400:	MOVSI	AC-2,206770	;SETUP FOR COMPARISON
  2560	032560	541 12 0 00 000077 		HRRI	AC,77		;SETUP
  2561	032561	505 12 0 00 200400 		HRLI	AC,200400	;AC
  2562	032562	205 11 0 00 206400 		MOVSI	AC-1,206400	;SETUP BR
  2563	032563	141 12 0 00 000011 		FADL	AC,AC-1		;C(AC)+C(E)
  2564	032564	316 13 0 00 000010 		CAMN	AC+1,AC-2	;TEST LOW SUM=206770000000
  2565	032565	004 13 0 00 024401 		ER4	AC+1,24401
  2566	032566	321 14 0 00 032557 		JUMPL	AC+2,O24400	;LOOP ON ERROR SWITCH
  2567
  2568					;AR=200400000077
  2569					;BR=206400000000
  2570					;FAILURE RESULTS IN LOSS OF HIGH ORDER SUM
  2571					;CORRECT HIGH ORDER=206404000000
  2572					;CORRECT LOW ORDER=153770000000
  2573					;ERROR HIGH ORDER=001760000000
  2574
  2575			000011			AC=11
  2576						SAVEAC	(1,1)^
  2577	032567	201 13 0 00 032567 		MOVEI	AC+2,.
  2578	032570	202 13 0 00 030051 		MOVEM	AC+2,TESTPC	;SETUP SUBTEST PC
  2579	032571	201 13 0 00 000013 		MOVEI	AC+2,<AC+2>&17	;INFORM ERROR ROUTINE WHICH
  2580	032572	202 13 0 00 040244 		MOVEM	AC+2,ERRLOP#	;AC IS USED FOR ITERATION^
  2581
  2582	032573	205 07 0 00 153770 	O24500:	MOVSI	AC-2,153770	;SETUP FOR COMPARISON
  2583	032574	541 11 0 00 000077 		HRRI	AC,77		;SETUP
  2584	032575	505 11 0 00 200400 		HRLI	AC,200400	;AC
  2585	032576	205 10 0 00 206400 		MOVSI	AC-1,206400	;SETUP BR
  2586	032577	141 11 0 00 000010 		FADL	AC,AC-1		;C(AC)+C(E)
  2587	032600	312 12 0 00 000007 		CAME	AC+1,AC-2	;TEST CORR LOW ORDER SUM
  2588	032601	004 12 0 00 024501 		ER4	AC+1,24501		;INCORRECT LOW ORDER
  2589	032602	205 07 0 00 001760 		MOVSI	AC-2,1760	;SETUP FOR COMPARISON
  2590	032603	316 11 0 00 000007 		CAMN	AC,AC-2		;TEST HIGH SUM=1760000000
  2591	032604	003 11 0 00 024501 		ER3	AC,24501
  2592	032605	321 13 0 00 032573 		JUMPL	AC+2,O24500	;LOOP ON ERROR SWITCH
DAKCA	PDP-10 KA10 ADVANCED INSTRUCTION DIAGNOSTIC #1, VER 0,2	MACRO %52(537) 12:25 21-JAN-77 PAGE 38
DAKCAM	MAC	21-JAN-77 11:41		PART I.C-FAD (LONG, NORM RET, ROUNDING)                                            SEQ 0076

  2593					;AR=200400000077
  2594					;BR=206400000000
  2595					;FAILURE RESULTS IN LOSS OF LOW ORDER SUM
  2596					;CORRECT HIGH ORDER=206404000000
  2597					;CORRECT LOW ORDER=153770000000
  2598					;ERROR LOW ORDER=153202000000
  2599
  2600			000010			AC=10
  2601						SAVEAC	(1,1)^
  2602	032606	201 12 0 00 032606 		MOVEI	AC+2,.
  2603	032607	202 12 0 00 030051 		MOVEM	AC+2,TESTPC	;SETUP SUBTEST PC
  2604	032610	201 12 0 00 000012 		MOVEI	AC+2,<AC+2>&17	;INFORM ERROR ROUTINE WHICH
  2605	032611	202 12 0 00 040244 		MOVEM	AC+2,ERRLOP#	;AC IS USED FOR ITERATION^
  2606
  2607	032612	205 06 0 00 153202 	O24600:	MOVSI	AC-2,153202	;SETUP FOR COMPARISON
  2608	032613	541 10 0 00 000077 		HRRI	AC,77		;SETUP
  2609	032614	505 10 0 00 200400 		HRLI	AC,200400	;AC
  2610	032615	205 07 0 00 206400 		MOVSI	AC-1,206400	;SETUP BR
  2611	032616	141 10 0 00 000007 		FADL	AC,AC-1		;C(AC)+C(E)
  2612	032617	316 11 0 00 000006 		CAMN	AC+1,AC-2	;TEST LOW SUM=153202000000
  2613	032620	004 11 0 00 024601 		ER4	AC+1,24601
  2614	032621	321 12 0 00 032612 		JUMPL	AC+2,O24600	;LOOP ON ERROR SWITCH
  2615
  2616					;AR=200400000077
  2617					;BR=206400000000
  2618					;FAILURE RESULTS IN A CORRECT HIGH ORDER
  2619					;SUM. THE LOW ORDER SUM IS IN ERROR
  2620					;CORRECT HIGH ORDER 206404000000
  2621					;CORRECT LOW ORDER 153770000000
  2622					;ERROR LOW ORDER 153760000000
  2623
  2624			000007			AC=7
  2625						SAVEAC	(1,1)^
  2626	032622	201 11 0 00 032622 		MOVEI	AC+2,.
  2627	032623	202 11 0 00 030051 		MOVEM	AC+2,TESTPC	;SETUP SUBTEST PC
  2628	032624	201 11 0 00 000011 		MOVEI	AC+2,<AC+2>&17	;INFORM ERROR ROUTINE WHICH
  2629	032625	202 11 0 00 040244 		MOVEM	AC+2,ERRLOP#	;AC IS USED FOR ITERATION^
  2630
  2631	032626	205 05 0 00 153760 	O24700:	MOVSI	AC-2,153760	;SETUP FOR COMPARISON
  2632	032627	541 07 0 00 000077 		HRRI	AC,77		;SETUP
  2633	032630	505 07 0 00 200400 		HRLI	AC,200400	;AC
  2634	032631	205 06 0 00 206400 		MOVSI	AC-1,206400	;SETUP BR
  2635	032632	141 07 0 00 000006 		FADL	AC,AC-1		;C(AC)+C(E)
  2636	032633	316 10 0 00 000005 		CAMN	AC+1,AC-2	;TEST LOW SUM=153760000000
  2637	032634	004 10 0 00 024701 		ER4	AC+1,24701
  2638	032635	321 11 0 00 032626 		JUMPL	AC+2,O24700	;LOOP ON ERROR SWITCH
DAKCA	PDP-10 KA10 ADVANCED INSTRUCTION DIAGNOSTIC #1, VER 0,2	MACRO %52(537) 12:25 21-JAN-77 PAGE 39
DAKCAM	MAC	21-JAN-77 11:41		PART I.C-FAD (LONG, NORM RET, ROUNDING)                                            SEQ 0077

  2639					;AR=200400000077
  2640					;BR=206400000000
  2641					;FAILURE RESULTS IN A CORRECT HIGH ORDER
  2642					;SUM. THE EXPONENT OF THE LOW ORDER SUM
  2643					;IS IN ERROR
  2644					;CORRECT HIGH ORDER=206404000000
  2645					;CORRECT LOW ORDER=153770000000
  2646					;ERROR LOW ORDER=120770000000
  2647
  2648			000014			AC=14
  2649						SAVEAC	(1,1)^
  2650	032636	201 16 0 00 032636 		MOVEI	AC+2,.
  2651	032637	202 16 0 00 030051 		MOVEM	AC+2,TESTPC	;SETUP SUBTEST PC
  2652	032640	201 16 0 00 000016 		MOVEI	AC+2,<AC+2>&17	;INFORM ERROR ROUTINE WHICH
  2653	032641	202 16 0 00 040244 		MOVEM	AC+2,ERRLOP#	;AC IS USED FOR ITERATION^
  2654
  2655	032642	205 12 0 00 120770 	O25000:	MOVSI	AC-2,120770	;SETUP FOR COMPARISON
  2656	032643	541 14 0 00 000077 		HRRI	AC,77		;SETUP
  2657	032644	505 14 0 00 200400 		HRLI	AC,200400	;AC
  2658	032645	205 13 0 00 206400 		MOVSI	AC-1,206400	;SETUP BR
  2659	032646	141 14 0 00 000013 		FADL	AC,AC-1		;C(AC)+C(E)
  2660	032647	316 15 0 00 000012 		CAMN	AC+1,AC-2	;TEST LOW SUM=120770000000
  2661	032650	004 15 0 00 025001 		ER4	AC+1,25001
  2662	032651	321 16 0 00 032642 		JUMPL	AC+2,O25000	;LOOP ON ERROR SWITCH
  2663
  2664					;AR=200400000077
  2665					;BR=206400000000
  2666					;FAILURE RESULTS IN A CORRECT HIGH ORDER
  2667					;SUM, THE EXPONENT OF THE LOW ORDER
  2668					;SUM IS LOST
  2669					;CORRECT HIGH ORDER=206404000000
  2670					;CORRECT LOW ORDER=153770000000
  2671					;ERROR LOW ORDER=000770000000
  2672
  2673			000014			AC=14
  2674						SAVEAC	(1,1)^
  2675	032652	201 16 0 00 032652 		MOVEI	AC+2,.
  2676	032653	202 16 0 00 030051 		MOVEM	AC+2,TESTPC	;SETUP SUBTEST PC
  2677	032654	201 16 0 00 000016 		MOVEI	AC+2,<AC+2>&17	;INFORM ERROR ROUTINE WHICH
  2678	032655	202 16 0 00 040244 		MOVEM	AC+2,ERRLOP#	;AC IS USED FOR ITERATION^
  2679
  2680	032656	205 12 0 00 000770 	O25100:	MOVSI	AC-2,770	;SETUP FOR COMPARISON
  2681	032657	541 14 0 00 000077 		HRRI	AC,77		;SETUP
  2682	032660	505 14 0 00 200400 		HRLI	AC,200400	;AC
  2683	032661	205 13 0 00 206400 		MOVSI	AC-1,206400	;SETUP BR
  2684	032662	141 14 0 00 000013 		FADL	AC,AC-1		;C(AC)+C(E)
  2685	032663	316 15 0 00 000012 		CAMN	AC+1,AC-2	;TEST LOW SUM=770000000
  2686	032664	004 15 0 00 025101 		ER4	AC+1,25101
  2687	032665	321 16 0 00 032656 		JUMPL	AC+2,O25100	;LOOP ON ERROR SWITCH
DAKCA	PDP-10 KA10 ADVANCED INSTRUCTION DIAGNOSTIC #1, VER 0,2	MACRO %52(537) 12:25 21-JAN-77 PAGE 40
DAKCAM	MAC	21-JAN-77 11:41		PART I.C-FAD (LONG, NORM RET, ROUNDING)                                            SEQ 0078

  2688					;AR=200400000077
  2689					;BR=206400000000
  2690					;FAILURE RESULTS IN LOSS OF HIGH ORDER
  2691					;SUM. HIGH ORDER SUM EQUALS LOW
  2692					;ORDER SUM
  2693					;CORRECT HIGH ORDER=206404000000
  2694					;CORRECT LOW ORDER=153770000000
  2695					;ERROR HIGH ORDER=153770000000
  2696
  2697			000013			AC=13
  2698						SAVEAC	(1,1)^
  2699	032666	201 15 0 00 032666 		MOVEI	AC+2,.
  2700	032667	202 15 0 00 030051 		MOVEM	AC+2,TESTPC	;SETUP SUBTEST PC
  2701	032670	201 15 0 00 000015 		MOVEI	AC+2,<AC+2>&17	;INFORM ERROR ROUTINE WHICH
  2702	032671	202 15 0 00 040244 		MOVEM	AC+2,ERRLOP#	;AC IS USED FOR ITERATION^
  2703
  2704	032672	205 11 0 00 153770 	O25200:	MOVSI	AC-2,153770	;SETUP FOR COMPARISON
  2705	032673	541 13 0 00 000077 		HRRI	AC,77		;SETUP
  2706	032674	505 13 0 00 200400 		HRLI	AC,200400	;AC
  2707	032675	205 12 0 00 206400 		MOVSI	AC-1,206400	;SETUP BR
  2708	032676	141 13 0 00 000012 		FADL	AC,AC-1		;C(AC)+C(E)
  2709	032677	316 13 0 00 000011 		CAMN	AC,AC-2		;TEST HIGH SUM=LOW SUM
  2710	032700	003 13 0 00 025201 		ER3	AC,25201
  2711	032701	321 15 0 00 032672 		JUMPL	AC+2,O25200	;LOOP ON ERROR SWITCH
  2712
  2713					;AR=200400000077
  2714					;BR=206400000000
  2715					;FAILURE RESULTS IN LOSS OF LOW ORDER SUM.
  2716					;LOW ORDER SUM EQUALS HIGH ORDER SUM
  2717					;CORRECT HIGH ORDER=206404000000
  2718					;CORRECT LOW ORDER=153770000000
  2719					;ERROR LOW ORDER=206404000000
  2720
  2721			000012			AC=12
  2722						SAVEAC	(1,1)^
  2723	032702	201 14 0 00 032702 		MOVEI	AC+2,.
  2724	032703	202 14 0 00 030051 		MOVEM	AC+2,TESTPC	;SETUP SUBTEST PC
  2725	032704	201 14 0 00 000014 		MOVEI	AC+2,<AC+2>&17	;INFORM ERROR ROUTINE WHICH
  2726	032705	202 14 0 00 040244 		MOVEM	AC+2,ERRLOP#	;AC IS USED FOR ITERATION^
  2727
  2728	032706	205 10 0 00 206404 	O25300:	MOVSI	AC-2,206404	;SETUP FOR COMPARISON
  2729	032707	541 12 0 00 000077 		HRRI	AC,77		;SETUP
  2730	032710	505 12 0 00 200400 		HRLI	AC,200400	;AC
  2731	032711	205 11 0 00 206400 		MOVSI	AC-1,206400	;SETUP BR
  2732	032712	141 12 0 00 000011 		FADL	AC,AC-1		;C(AC)+C(E)
  2733	032713	316 13 0 00 000010 		CAMN	AC+1,AC-2	;TEST LOW SUM=HIGH SUM
  2734	032714	004 13 0 00 025301 		ER4	AC+1,25301
  2735	032715	321 14 0 00 032706 		JUMPL	AC+2,O25300	;LOOP ON ERROR SWITCH
DAKCA	PDP-10 KA10 ADVANCED INSTRUCTION DIAGNOSTIC #1, VER 0,2	MACRO %52(537) 12:25 21-JAN-77 PAGE 41
DAKCAM	MAC	21-JAN-77 11:41		PART I.C-FAD (LONG, NORM RET, ROUNDING)                                            SEQ 0079

  2736					;LOW ORDER EXPONENT IS LESS THAN 33
  2737					;AR=030400000003
  2738					;BR=032400000000
  2739					;FAILURE RESULTS IN A CORRECT HIGH ORDER
  2740					;SUM. THE LOW ORDER SUM IS IN ERROR
  2741					;CORRECT HIGH ORDER=032500000000
  2742					;CORRECT LOW ORDER=0
  2743					;ERROR LOW ORDER=377240000000
  2744
  2745			000011			AC=11
  2746						SAVEAC	(1,1)^
  2747	032716	201 13 0 00 032716 		MOVEI	AC+2,.
  2748	032717	202 13 0 00 030051 		MOVEM	AC+2,TESTPC	;SETUP SUBTEST PC
  2749	032720	201 13 0 00 000013 		MOVEI	AC+2,<AC+2>&17	;INFORM ERROR ROUTINE WHICH
  2750	032721	202 13 0 00 040244 		MOVEM	AC+2,ERRLOP#	;AC IS USED FOR ITERATION^
  2751
  2752	032722	205 07 0 00 377240 	O25400:	MOVSI	AC-2,377240	;SETUP FOR COMPARISON
  2753	032723	541 11 0 00 000003 		HRRI	AC,3		;SETUP
  2754	032724	505 11 0 00 030400 		HRLI	AC,30400	;AC
  2755	032725	205 10 0 00 032400 		MOVSI	AC-1,32400	;SETUP BR
  2756	032726	141 11 0 00 000010 		FADL	AC,AC-1		;C(AC)+C(E)
  2757	032727	316 12 0 00 000007 		CAMN	AC+1,AC-2	;TEST LOW SUM=377240000000
  2758	032730	004 12 0 00 025401 		ER4	AC+1,25401
  2759	032731	321 13 0 00 032722 		JUMPL	AC+2,O25400	;LOOP ON ERROR SWITCH
DAKCA	PDP-10 KA10 ADVANCED INSTRUCTION DIAGNOSTIC #1, VER 0,2	MACRO %52(537) 12:25 21-JAN-77 PAGE 42
DAKCAM	MAC	21-JAN-77 11:41		PART I.C-FAD (LONG, NORM RET, ROUNDING)                                            SEQ 0080

  2760					;TEST SCAD INPUT GATES-ONE'S
  2761					;TEST SC DATA BITS 4,5,7,8
  2762					;AR=200400000077
  2763					;BR=206400000000
  2764					;FAILURE OF A BIT RESULTS IN A LOW ORDER EXPONENT
  2765					;=154,155,163,173
  2766					;CORRECT HIGH ORDER=206404000000
  2767					;CORRECT LOW ORDER=153770000000
  2768
  2769			000010			AC=10
  2770						SAVEAC	(1,1)^
  2771	032732	201 12 0 00 032732 		MOVEI	AC+2,.
  2772	032733	202 12 0 00 030051 		MOVEM	AC+2,TESTPC	;SETUP SUBTEST PC
  2773	032734	201 12 0 00 000012 		MOVEI	AC+2,<AC+2>&17	;INFORM ERROR ROUTINE WHICH
  2774	032735	202 12 0 00 040244 		MOVEM	AC+2,ERRLOP#	;AC IS USED FOR ITERATION^
  2775
  2776									;TEST SC DATA 8
  2777	032736	205 06 0 00 154770 	O25500:	MOVSI	AC-2,154770	;SETUP FOR COMPARISON
  2778	032737	541 10 0 00 000077 		HRRI	AC,77		;SETUP
  2779	032740	505 10 0 00 200400 		HRLI	AC,200400	;AC
  2780	032741	205 07 0 00 206400 		MOVSI	AC-1,206400	;SETUP BR
  2781	032742	141 10 0 00 000007 		FADL	AC,AC-1		;C(AC)+C(E)
  2782	032743	316 11 0 00 000006 		CAMN	AC+1,AC-2	;TEST LOW SUM=154770000000
  2783	032744	004 11 0 00 025501 		ER4	AC+1,25501	;SC DATA 8 FAILED
  2784	032745	321 12 0 00 032736 		JUMPL	AC+2,O25500	;LOOP ON ERROR SWITCH
  2785
  2786									;TEST SCAD 7
  2787	032746	205 06 0 00 155770 	O25600:	MOVSI	AC-2,155770	;SETUP FOR COMPARISON
  2788	032747	541 10 0 00 000077 		HRRI	AC,77		;SETUP
  2789	032750	505 10 0 00 200400 		HRLI	AC,200400	;AC
  2790	032751	205 07 0 00 206400 		MOVSI	AC-1,206400	;SETUP BR
  2791	032752	141 10 0 00 000007 		FADL	AC,AC-1		;C(AC)+C(E)
  2792	032753	316 11 0 00 000006 		CAMN	AC+1,AC-2	;TEST LOW SUM=155770000000
  2793	032754	004 11 0 00 025601 		ER4	AC+1,25601	;SC DATA7 FAILED
  2794	032755	321 12 0 00 032746 		JUMPL	AC+2,O25600	;LOOP ON ERROR SWITCH
  2795
  2796									;TEST SCAD5
  2797	032756	205 06 0 00 163770 	O25700:	MOVSI	AC-2,163770	;SETUP FOR COMPARISON
  2798	032757	541 10 0 00 000077 		HRRI	AC,77		;SETUP
  2799	032760	505 10 0 00 200400 		HRLI	AC,200400	;AC
  2800	032761	205 07 0 00 206400 		MOVSI	AC-1,206400	;SETUP BR
  2801	032762	141 10 0 00 000007 		FADL	AC,AC-1		;C(AC)+C(E)
  2802	032763	316 11 0 00 000006 		CAMN	AC+1,AC-2	;TEST LOW SUM=163770000000
  2803	032764	004 11 0 00 025701 		ER4	AC+1,25701	;SC DATA 5 FAILED
  2804	032765	321 12 0 00 032756 		JUMPL	AC+2,O25700
  2805
  2806									;TEST SCAD4
  2807	032766	205 06 0 00 173770 	O26000:	MOVSI	AC-2,173770	;SETUP FOR COMPARISON
  2808	032767	541 10 0 00 000077 		HRRI	AC,77		;SETUP
  2809	032770	505 10 0 00 200400 		HRLI	AC,200400	;AC
  2810	032771	205 07 0 00 206400 		MOVSI	AC-1,206400	;SETUP BR
  2811	032772	141 10 0 00 000007 		FADL	AC,AC-1		;C(AC)+C(E)
  2812	032773	316 11 0 00 000006 		CAMN	AC+1,AC-2	;TEST LOW SUM=173770000000
  2813	032774	004 11 0 00 026001 		ER4	AC+1,26001	;SC DATA4 FAILED
  2814	032775	321 12 0 00 032766 		JUMPL	AC+2,O26000	;LOOP ON ERROR SWITCH
DAKCA	PDP-10 KA10 ADVANCED INSTRUCTION DIAGNOSTIC #1, VER 0,2	MACRO %52(537) 12:25 21-JAN-77 PAGE 43
DAKCAM	MAC	21-JAN-77 11:41		PART I.C-FAD (LONG, NORM RET, ROUNDING)                                            SEQ 0081

  2815					;TEST ABILITY TO SET SCAD DATA0
  2816					;TEST ABILITY TO SET SCAD SC+1 EN
  2817					;AR=200400000077
  2818					;BR=206400000000
  2819					;SCAD DATA0 FAILS-LOW ORDER EXP=207
  2820					;SCAD SC+1 EN FAILS-LOW ORDER EXP=152
  2821					;CORR HIGH ORDER=206404000000
  2822					;CORR LOW ORDER=153770000000
  2823
  2824			000007			AC=7
  2825						SAVEAC	(1,1)^
  2826	032776	201 11 0 00 032776 		MOVEI	AC+2,.
  2827	032777	202 11 0 00 030051 		MOVEM	AC+2,TESTPC	;SETUP SUBTEST PC
  2828	033000	201 11 0 00 000011 		MOVEI	AC+2,<AC+2>&17	;INFORM ERROR ROUTINE WHICH
  2829	033001	202 11 0 00 040244 		MOVEM	AC+2,ERRLOP#	;AC IS USED FOR ITERATION^
  2830
  2831									;TEST DATA0
  2832	033002	205 05 0 00 207770 	O26100:	MOVSI	AC-2,207770	;SETUP FOR COMPARISON
  2833	033003	541 07 0 00 000077 		HRRI	AC,77		;SETUP
  2834	033004	505 07 0 00 200400 		HRLI	AC,200400	;AC
  2835	033005	205 06 0 00 206400 		MOVSI	AC-1,206400	;SETUP BR
  2836	033006	141 07 0 00 000006 		FADL	AC,AC-1		;C(AC)+C(E)
  2837	033007	316 10 0 00 000005 		CAMN	AC+1,AC-2	;TEST SUM=207770000000
  2838	033010	004 10 0 00 026101 		ER4	AC+1,26101	;SCAD DATA0 FAILED TO SET
  2839	033011	321 11 0 00 033002 		JUMPL	AC+2,O26100	;LOOP ON ERROR SWITCH
  2840
  2841									;TEST SC+1 EN
  2842	033012	205 05 0 00 152770 	O26200:	MOVSI	AC-2,152770	;SETUP FOR COMPARISON
  2843	033013	541 07 0 00 000077 		HRRI	AC,77		;SETUP
  2844	033014	505 07 0 00 200400 		HRLI	AC,200400	;AC
  2845	033015	205 06 0 00 206400 		MOVSI	AC-1,206400	;SETUP BR
  2846	033016	141 07 0 00 000006 		FADL	AC,AC-1		;C(AC)+C(E)
  2847	033017	316 10 0 00 000005 		CAMN	AC+1,AC-2	;TEST LOW SUM=152770000000
  2848	033020	004 10 0 00 026201 		ER4	AC+1,26201	;SCAD SC+1 EN FAILED TO SET
  2849	033021	321 11 0 00 033012 		JUMPL	AC+2,O26200	;LOOP ON ERROR SWITCH
DAKCA	PDP-10 KA10 ADVANCED INSTRUCTION DIAGNOSTIC #1, VER 0,2	MACRO %52(537) 12:25 21-JAN-77 PAGE 44
DAKCAM	MAC	21-JAN-77 11:41		PART I.C-FAD (LONG, NORM RET, ROUNDING)                                            SEQ 0082

  2850					;AC=200400000001
  2851					;BR=201600000000
  2852					;FAILURE RESULTS IN A CORRECT HIGH
  2853					;ORDER SUM. THE LOW ORDER SUM IS IN
  2854					;ERROR
  2855					;CORRECT HIGH ORDER=202400000000
  2856					;CORRECT LOW ORDER=147200000000
  2857					;ERROR LOW ORDER=147400000000
  2858
  2859			000014			AC=14
  2860						SAVEAC	(1,1)^
  2861	033022	201 16 0 00 033022 		MOVEI	AC+2,.
  2862	033023	202 16 0 00 030051 		MOVEM	AC+2,TESTPC	;SETUP SUBTEST PC
  2863	033024	201 16 0 00 000016 		MOVEI	AC+2,<AC+2>&17	;INFORM ERROR ROUTINE WHICH
  2864	033025	202 16 0 00 040244 		MOVEM	AC+2,ERRLOP#	;AC IS USED FOR ITERATION^
  2865
  2866	033026	205 12 0 00 147400 	O26300:	MOVSI	AC-2,147400	;SETUP FOR COMPARISON
  2867	033027	541 14 0 00 000001 		HRRI	AC,1		;SETUP
  2868	033030	505 14 0 00 200400 		HRLI	AC,200400	;AC
  2869	033031	205 13 0 00 201600 		MOVSI	AC-1,201600	;SETUP BR
  2870	033032	141 14 0 00 000013 		FADL	AC,AC-1		;C(AC)+C(E)
  2871	033033	316 15 0 00 000012 		CAMN	AC+1,AC-2	;TEST LOW SUM=147400000000
  2872	033034	004 15 0 00 026301 		ER4	AC+1,26301
  2873	033035	321 16 0 00 033026 		JUMPL	AC+2,O26300	;LOOP ON ERROR SWITCH
  2874
  2875					;AR=577400000003
  2876					;BR=202400000000
  2877					;FAILURE RESULTS IN A CORRECT HIGH
  2878					;ORDER SUM, THE LOW ORDER SUM IS
  2879					;IN ERROR
  2880					;CORRECT HIGH ORDER=201600000000
  2881					;CORRECT LOW ORDER=146400000000
  2882					;ERROR LOW ORDER=146600000000
  2883
  2884			000014			AC=14
  2885						SAVEAC	(1,1)^
  2886	033036	201 16 0 00 033036 		MOVEI	AC+2,.
  2887	033037	202 16 0 00 030051 		MOVEM	AC+2,TESTPC	;SETUP SUBTEST PC
  2888	033040	201 16 0 00 000016 		MOVEI	AC+2,<AC+2>&17	;INFORM ERROR ROUTINE WHICH
  2889	033041	202 16 0 00 040244 		MOVEM	AC+2,ERRLOP#	;AC IS USED FOR ITERATION^
  2890
  2891	033042	205 12 0 00 146600 	O26400:	MOVSI	AC-2,146600	;SETUP FOR COMPARISON
  2892	033043	541 14 0 00 000003 		HRRI	AC,3		;SETUP
  2893	033044	505 14 0 00 577400 		HRLI	AC,577400	;AC
  2894	033045	205 13 0 00 202400 		MOVSI	AC-1,202400	;SETUP BR
  2895	033046	141 14 0 00 000013 		FADL	AC,AC-1		;C(AC)+C(E)
  2896	033047	316 15 0 00 000012 		CAMN	AC+1,AC-2	;TEST LOW SUM=146600000000
  2897	033050	004 15 0 00 026401 		ER4	AC+1,26401
  2898	033051	321 16 0 00 033042 		JUMPL	AC+2,O26400	;LOOP ON ERROR SWITCH
DAKCA	PDP-10 KA10 ADVANCED INSTRUCTION DIAGNOSTIC #1, VER 0,2	MACRO %52(537) 12:25 21-JAN-77 PAGE 45
DAKCAM	MAC	21-JAN-77 11:41		PART I.C-FAD (LONG, NORM RET, ROUNDING)                                            SEQ 0083

  2899					;AR=200400000077
  2900					;BR=206400000000
  2901					;FAILURE OF 1,2 OR 3 RESULTS IN AN
  2902					;UNROUNDED SUM
  2903					;CORRECT SUM=206404000001
  2904					;ERROR SUM=206404000000
  2905
  2906			000014			AC=14
  2907						SAVEAC	(1,1)^
  2908	033052	201 16 0 00 033052 		MOVEI	AC+2,.
  2909	033053	202 16 0 00 030051 		MOVEM	AC+2,TESTPC	;SETUP SUBTEST PC
  2910	033054	201 16 0 00 000016 		MOVEI	AC+2,<AC+2>&17	;INFORM ERROR ROUTINE WHICH
  2911	033055	202 16 0 00 040244 		MOVEM	AC+2,ERRLOP#	;AC IS USED FOR ITERATION^
  2912
  2913	033056	205 12 0 00 206404 	O26500:	MOVSI	AC-2,206404	;SETUP FOR COMPARISON
  2914	033057	541 14 0 00 000077 		HRRI	AC,77		;SETUP
  2915	033060	505 14 0 00 200400 		HRLI	AC,200400	;AC
  2916	033061	205 15 0 00 206400 		MOVSI	AC+1,206400	;SETUP BR
  2917	033062	144 14 0 00 000015 		FADR	AC,AC+1		;C(AC)+C(E)
  2918	033063	316 14 0 00 000012 		CAMN	AC,AC-2		;TEST SUM=206404000000
  2919	033064	003 14 0 00 026501 		ER3	AC,26501
  2920	033065	321 16 0 00 033056 		JUMPL	AC+2,O26500	;LOOP ON ERROR SWITCH
  2921
  2922					;AC=200400000077
  2923					;BR=206400000000
  2924					;FAILURE RESULTS IN A CORRECT MANTISSA,
  2925					;THE EXPONENT IS IN ERROR
  2926					;CORRECT SUM=206404000001
  2927					;ERROR SUM=171404000001
  2928
  2929			000014			AC=14
  2930						SAVEAC	(1,1)^
  2931	033066	201 16 0 00 033066 		MOVEI	AC+2,.
  2932	033067	202 16 0 00 030051 		MOVEM	AC+2,TESTPC	;SETUP SUBTEST PC
  2933	033070	201 16 0 00 000016 		MOVEI	AC+2,<AC+2>&17	;INFORM ERROR ROUTINE WHICH
  2934	033071	202 16 0 00 040244 		MOVEM	AC+2,ERRLOP#	;AC IS USED FOR ITERATION^
  2935
  2936	033072	541 12 0 00 000001 	O26600:	HRRI	AC-2,1		;SETUP AC-2
  2937	033073	505 12 0 00 171404 		HRLI	AC-2,171404	;FOR COMPARISON
  2938	033074	541 14 0 00 000077 		HRRI	AC,77		;SETUP
  2939	033075	505 14 0 00 200400 		HRLI	AC,200400	;AC
  2940	033076	205 13 0 00 206400 		MOVSI	AC-1,206400	;SETUP BR
  2941	033077	144 14 0 00 000013 		FADR	AC,AC-1		;C(AC)+C(E)
  2942	033100	316 14 0 00 000012 		CAMN	AC,AC-2		;TEST SUM=171404000001
  2943	033101	003 14 0 00 026601 		ER3	AC,26601
  2944	033102	321 16 0 00 033072 		JUMPL	AC+2,O26600	;LOOP ON ERROR SWITCH
DAKCA	PDP-10 KA10 ADVANCED INSTRUCTION DIAGNOSTIC #1, VER 0,2	MACRO %52(537) 12:25 21-JAN-77 PAGE 46
DAKCAM	MAC	21-JAN-77 11:41		PART I.C-FAD (LONG, NORM RET, ROUNDING)                                            SEQ 0084

  2945					;AR=200400000003
  2946					;BR=202400000000
  2947					;FAILURE RESULTS
  2948					;IN AN UNROUNDED SUM
  2949					;CORR SUM=202500000001
  2950					;ERROR SUM=202500000000
  2951
  2952			000013			AC=13
  2953						SAVEAC	(1,1)^
  2954	033103	201 15 0 00 033103 		MOVEI	AC+2,.
  2955	033104	202 15 0 00 030051 		MOVEM	AC+2,TESTPC	;SETUP SUBTEST PC
  2956	033105	201 15 0 00 000015 		MOVEI	AC+2,<AC+2>&17	;INFORM ERROR ROUTINE WHICH
  2957	033106	202 15 0 00 040244 		MOVEM	AC+2,ERRLOP#	;AC IS USED FOR ITERATION^
  2958
  2959	033107	205 11 0 00 202500 	O26700:	MOVSI	AC-2,202500	;SETUP FOR COMPARISON
  2960	033110	541 13 0 00 000003 		HRRI	AC,3		;SETUP
  2961	033111	505 13 0 00 200400 		HRLI	AC,200400	;AC
  2962	033112	205 14 0 00 202400 		MOVSI	AC+1,202400	;SETUP BR
  2963	033113	144 13 0 00 000014 		FADR	AC,AC+1		;C(AC)+C(E)
  2964	033114	316 13 0 00 000011 		CAMN	AC,AC-2		;TEST ERROR SUM
  2965	033115	003 13 0 00 026701 		ER3	AC,26701
  2966	033116	321 15 0 00 033107 		JUMPL	AC+2,O26700	;LOOP ON ERROR SWITCH
  2967
  2968					;AR=200400777777
  2969					;BR=202400000000
  2970					;FAILURE RESULTS IN CONTINOUS
  2971					;ROUNDING. EACH PASS ADDING ONE TO AD(AR).
  2972					;EVENTUALLY AN NRSHRT COND (AR8(1) AND
  2973					;AD 9-35=0) DEVELOPS. SHIFTING MQRT ONE
  2974					;BRINGS DOWN NR ROUND LEVEL. FADR IS
  2975					;TERMINATED.
  2976					;CORR SUM=202600000000
  2977					;ERROR SUM=203400000000
  2978
  2979			000012			AC=12
  2980						SAVEAC	(1,1)^
  2981	033117	201 14 0 00 033117 		MOVEI	AC+2,.
  2982	033120	202 14 0 00 030051 		MOVEM	AC+2,TESTPC	;SETUP SUBTEST PC
  2983	033121	201 14 0 00 000014 		MOVEI	AC+2,<AC+2>&17	;INFORM ERROR ROUTINE WHICH
  2984	033122	202 14 0 00 040244 		MOVEM	AC+2,ERRLOP#	;AC IS USED FOR ITERATION^
  2985
  2986	033123	205 10 0 00 203400 	O27000:	MOVSI	AC-2,203400	;SETUP FOR COMPARISON
  2987	033124	541 12 0 00 777777 		HRRI	AC,-1		;SETUP
  2988	033125	505 12 0 00 200400 		HRLI	AC,200400	;AC
  2989	033126	205 13 0 00 202400 		MOVSI	AC+1,202400	;SETUP BR
  2990	033127	144 12 0 00 000013 		FADR	AC,AC+1		;C(AC)+C(E)
  2991	033130	316 12 0 00 000010 		CAMN	AC,AC-2		;TEST SUM=203400000000
  2992	033131	003 12 0 00 027001 		ER3	AC,27001
  2993	033132	321 14 0 00 033123 		JUMPL	AC+2,O27000	;LOOP ON ERROR SWITCH
DAKCA	PDP-10 KA10 ADVANCED INSTRUCTION DIAGNOSTIC #1, VER 0,2	MACRO %52(537) 12:25 21-JAN-77 PAGE 47
DAKCAM	MAC	21-JAN-77 11:41		PART I.D-FSB AND UFA                                                               SEQ 0085

  2994					SUBTTL	PART I.D-FSB AND UFA
  2995
  2996					;		PART I.D-FSB AND UFA
  2997
  2998					;TEST FCE, FAC, SAC AND DECODE
  2999					;TEST APPARENT ABILITY TO FETCH/STORE
  3000					;C(E),C(AC) AND DECODE
  3001					;AR=205400000000
  3002					;BR=177400000000
  3003					;FCE/SAC FAIL-C(AC)=ORIGINAL
  3004					;FAC FAILS-C(AC)=2'S COMP C(BR)
  3005
  3006			000007			AC=7
  3007						SAVEAC	(1,1)^
  3008	033133	201 11 0 00 033133 		MOVEI	AC+2,.
  3009	033134	202 11 0 00 030051 		MOVEM	AC+2,TESTPC	;SETUP SUBTEST PC
  3010	033135	201 11 0 00 000011 		MOVEI	AC+2,<AC+2>&17	;INFORM ERROR ROUTINE WHICH
  3011	033136	202 11 0 00 040244 		MOVEM	AC+2,ERRLOP#	;AC IS USED FOR ITERATION^
  3012
  3013	033137	205 05 0 00 205400 	O27100:	MOVSI	AC-2,205400	;SETUP FOR COMPARISON
  3014	033140	205 07 0 00 205400 		MOVSI	AC,205400	;SETUP AC
  3015	033141	205 10 0 00 177400 		MOVSI	AC+1,177400	;SETUP BR
  3016	033142	150 07 0 00 000010 		FSB	AC,AC+1		;C(AC)-C(E)
  3017	033143	316 07 0 00 000005 		CAMN	AC,AC-2		;TEST AC=ORIG
  3018	033144	003 07 0 00 027101 		ER3	AC,27101	;FCE/SAC FAILED
  3019	033145	205 05 0 00 600400 		MOVSI	AC-2,600400	;SETUP FOR COMPARISON
  3020	033146	316 07 0 00 000005 		CAMN	AC,AC-2		;TEST AC=2'S COMP BR
  3021	033147	003 07 0 00 027101 		ER3	AC,27101	;FAC FAILED
  3022	033150	321 11 0 00 033137 		JUMPL	AC+2,O27100	;LOOP ON ERROR SWITCH
  3023
  3024					;AR=200400000000(1/2)
  3025					;BR=177400000000(1/4)
  3026					;FAILURE RESULTS IN LOSS OF SUBTRAHEND
  3027					;FAILURE RESULTS IN AN EXCESSIVE SHIFT
  3028					;COND, STORE MINUEND
  3029					;CORRECT DIFF=177400000000(1/4)
  3030					;ERROR DIFF=202400000000(1/2)
  3031
  3032			000014			AC=14
  3033						SAVEAC	(1,1)^
  3034	033151	201 16 0 00 033151 		MOVEI	AC+2,.
  3035	033152	202 16 0 00 030051 		MOVEM	AC+2,TESTPC	;SETUP SUBTEST PC
  3036	033153	201 16 0 00 000016 		MOVEI	AC+2,<AC+2>&17	;INFORM ERROR ROUTINE WHICH
  3037	033154	202 16 0 00 040244 		MOVEM	AC+2,ERRLOP#	;AC IS USED FOR ITERATION^
  3038
  3039	033155	205 12 0 00 200400 	O27200:	MOVSI	AC-2,200400	;SETUP FOR COMPARISON
  3040	033156	205 14 0 00 200400 		MOVSI	AC,200400	;SETUP AC
  3041	033157	205 15 0 00 177400 		MOVSI	AC+1,177400	;SETUP BR
  3042	033160	150 14 0 00 000015 		FSB	AC,AC+1		;C(AC)-C(E)
  3043	033161	316 14 0 00 000012 		CAMN	AC,AC-2		;TEST DIFF=200400000000
  3044	033162	003 14 0 00 027201 		ER3	AC,27201
  3045	033163	321 16 0 00 033155 		JUMPL	AC+2,O27200	;LOOP ON ERROR SWITCH
DAKCA	PDP-10 KA10 ADVANCED INSTRUCTION DIAGNOSTIC #1, VER 0,2	MACRO %52(537) 12:25 21-JAN-77 PAGE 48
DAKCAM	MAC	21-JAN-77 11:41		PART I.D-FSB AND UFA                                                               SEQ 0086

  3046					;AR=200400000000(1/2)
  3047					;BR=177400000000(1/4)
  3048					;FAILURE RESULTS IN A ONE'S COMPLEMENT
  3049					;SUBTRAHEND
  3050					;CORRECTd DIFF=177400000000
  3051					;ERROR DIFF=176477777777
  3052
  3053			000014			AC=14
  3054						SAVEAC	(1,1)^
  3055	033164	201 16 0 00 033164 		MOVEI	AC+2,.
  3056	033165	202 16 0 00 030051 		MOVEM	AC+2,TESTPC	;SETUP SUBTEST PC
  3057	033166	201 16 0 00 000016 		MOVEI	AC+2,<AC+2>&17	;INFORM ERROR ROUTINE WHICH
  3058	033167	202 16 0 00 040244 		MOVEM	AC+2,ERRLOP#	;AC IS USED FOR ITERATION^
  3059
  3060	033170	541 12 0 00 777774 	O27300:	HRRI	AC-2,-4		;SETUP AC-2
  3061	033171	505 12 0 00 176477 		HRLI	AC-2,176477	;FOR COMPARISON
  3062	033172	205 14 0 00 200400 		MOVSI	AC,200400	;SETUP AC
  3063	033173	205 15 0 00 177400 		MOVSI	AC+1,177400	;SETUP BR
  3064	033174	150 14 0 00 000015 		FSB	AC,AC+1		;C(AC)-C(E)
  3065	033175	316 14 0 00 000012 		CAMN	AC,AC-2		;TEST DIFF=176477777774
  3066	033176	003 14 0 00 027301 		ER3	AC,27301
  3067	033177	321 16 0 00 033170 		JUMPL	AC+2,O27300	;LOOP ON ERROR SWITCH
  3068
  3069					;AR=200400000000(1/2)
  3070					;BR=177400000000(1/4)
  3071					;FAILURE RESULTS IN LOSS OF 2'S COMP
  3072					;SUBTRAHEND. THE NUMBER IN AR IS ADDED
  3073					;TO ITSELF
  3074					;CORRECT DIFF=177400000000 1/4
  3075					;FAILURE DIFF=201400000000 (1)
  3076
  3077			000013			AC=13
  3078						SAVEAC	(1,1)^
  3079	033200	201 15 0 00 033200 		MOVEI	AC+2,.
  3080	033201	202 15 0 00 030051 		MOVEM	AC+2,TESTPC	;SETUP SUBTEST PC
  3081	033202	201 15 0 00 000015 		MOVEI	AC+2,<AC+2>&17	;INFORM ERROR ROUTINE WHICH
  3082	033203	202 15 0 00 040244 		MOVEM	AC+2,ERRLOP#	;AC IS USED FOR ITERATION^
  3083
  3084	033204	205 11 0 00 201400 	O27400:	MOVSI	AC-2,201400	;SETUP FOR COMPARISON
  3085	033205	205 13 0 00 200400 		MOVSI	AC,200400	;SETUP AC
  3086	033206	205 14 0 00 177400 		MOVSI	AC+1,177400	;SETUP BR
  3087	033207	150 13 0 00 000014 		FSB	AC,AC+1		;C(AC)-C(E)
  3088	033210	316 13 0 00 000011 		CAMN	AC,AC-2		;TEST DIFF=201400000000
  3089	033211	003 13 0 00 027401 		ER3	AC,27401
  3090	033212	321 15 0 00 033204 		JUMPL	AC+2,O27400	;LOOP ON ERROR SWITCH
DAKCA	PDP-10 KA10 ADVANCED INSTRUCTION DIAGNOSTIC #1, VER 0,2	MACRO %52(537) 12:25 21-JAN-77 PAGE 49
DAKCAM	MAC	21-JAN-77 11:41		PART I.D-FSB AND UFA                                                               SEQ 0087

  3091					;AR=200400000000
  3092					;BR=177400000000
  3093					;FAILURE RESULTS IN LOSS OF MINUEND
  3094					;THE NUMBER IN BR IS SUBTRACTED
  3095					;FROM ITSELF. NR ALL ZERO IS ASSERTED
  3096
  3097			000012			AC=12
  3098						SAVEAC	(1,1)^
  3099	033213	201 14 0 00 033213 		MOVEI	AC+2,.
  3100	033214	202 14 0 00 030051 		MOVEM	AC+2,TESTPC	;SETUP SUBTEST PC
  3101	033215	201 14 0 00 000014 		MOVEI	AC+2,<AC+2>&17	;INFORM ERROR ROUTINE WHICH
  3102	033216	202 14 0 00 040244 		MOVEM	AC+2,ERRLOP#	;AC IS USED FOR ITERATION^
  3103
  3104	033217	205 12 0 00 200400 	O27500:	MOVSI	AC,200400	;SETUP AC
  3105	033220	205 13 0 00 177400 		MOVSI	AC+1,177400	;SETUP BR
  3106	033221	150 12 0 00 000013 		FSB	AC,AC+1		;C(AC)-C(E)
  3107	033222	336 00 0 00 000012 		SKIPN	AC		;TEST DIFF=0
  3108	033223	003 12 0 00 027501 		ER3	AC,27501
  3109	033224	321 14 0 00 033217 		JUMPL	AC+2,O27500	;LOOP ON ERROR SWITCH
  3110
  3111					;AR=200400000000(1/2)
  3112					;BR=200400000000(1/2)
  3113					;FAILURE RESULTS IN A MINUEND
  3114					;EQUAL TO 777777777777
  3115					;CORRECT DIFF=0
  3116					;ERROR DIFF=631400000000
  3117
  3118			000011			AC=11
  3119						SAVEAC	(1,1)^
  3120	033225	201 13 0 00 033225 		MOVEI	AC+2,.
  3121	033226	202 13 0 00 030051 		MOVEM	AC+2,TESTPC	;SETUP SUBTEST PC
  3122	033227	201 13 0 00 000013 		MOVEI	AC+2,<AC+2>&17	;INFORM ERROR ROUTINE WHICH
  3123	033230	202 13 0 00 040244 		MOVEM	AC+2,ERRLOP#	;AC IS USED FOR ITERATION^
  3124
  3125	033231	205 07 0 00 631400 	O27600:	MOVSI	AC-2,631400	;SETUP FOR COMPARISON
  3126	033232	205 11 0 00 200400 		MOVSI	AC,200400	;SETUP AC
  3127	033233	205 12 0 00 200400 		MOVSI	AC+1,200400	;SETUP BR
  3128	033234	150 11 0 00 000012 		FSB	AC,AC+1		;C(AC)-C(E)
  3129	033235	316 11 0 00 000007 		CAMN	AC,AC-2		;TEST DIFF=631400000000
  3130	033236	003 11 0 00 027601 		ER3	AC,27601
  3131	033237	321 13 0 00 033231 		JUMPL	AC+2,O27600	;LOOP ON ERROR SWITCH
DAKCA	PDP-10 KA10 ADVANCED INSTRUCTION DIAGNOSTIC #1, VER 0,2	MACRO %52(537) 12:25 21-JAN-77 PAGE 50
DAKCAM	MAC	21-JAN-77 11:41		PART I.D-FSB AND UFA                                                               SEQ 0088

  3132					;AR=200400000000(1/2)
  3133					;BR=177400000000(1/4)
  3134					;FAILURE RESULTS IN ADDING TWO
  3135					;TO THE DIFFERENCE
  3136					;CORRECT DIFF=177400000000
  3137					;ERROR DIFF=177400000002
  3138
  3139			000010			AC=10
  3140						SAVEAC	(1,1)^
  3141	033240	201 12 0 00 033240 		MOVEI	AC+2,.
  3142	033241	202 12 0 00 030051 		MOVEM	AC+2,TESTPC	;SETUP SUBTEST PC
  3143	033242	201 12 0 00 000012 		MOVEI	AC+2,<AC+2>&17	;INFORM ERROR ROUTINE WHICH
  3144	033243	202 12 0 00 040244 		MOVEM	AC+2,ERRLOP#	;AC IS USED FOR ITERATION^
  3145
  3146	033244	541 06 0 00 000002 	O27700:	HRRI	AC-2,2		;SETUP AC-2
  3147	033245	505 06 0 00 177400 		HRLI	AC-2,177400	;FOR COMPARISON
  3148	033246	205 10 0 00 200400 		MOVSI	AC,200400	;SETUP AC
  3149	033247	205 11 0 00 177400 		MOVSI	AC+1,177400	;SETUP BR
  3150	033250	150 10 0 00 000011 		FSB	AC,AC+1		;C(AC)-C(E)
  3151	033251	316 10 0 00 000006 		CAMN	AC,AC-2		;TEST DIFF=177400000002
  3152	033252	003 10 0 00 027701 		ER3	AC,27701
  3153	033253	321 12 0 00 033244 		JUMPL	AC+2,O27700	;LOOP ON ERROR SWITCH
  3154
  3155					;TEST FCE, FAC, SAC AND DECODE
  3156					;TEST APPARENT ABILITY TO FETCH C(E), C(AC)
  3157					;STORE AND DECODE
  3158					;AR=200770000000
  3159					;BR=577700000000
  3160					;FCE FAILS-AC+1=C(AC)
  3161					;FAC FAILS-AC+1=C(BR)
  3162					;SAC FAILS-AC+1=ORIGINAL
  3163
  3164			000014			AC=14
  3165						SAVEAC  (1,1)^
  3166	033254	201 16 0 00 033254 		MOVEI	AC+2,.
  3167	033255	202 16 0 00 030051 		MOVEM	AC+2,TESTPC	;SETUP SUBTEST PC
  3168	033256	201 16 0 00 000016 		MOVEI	AC+2,<AC+2>&17	;INFORM ERROR ROUTINE WHICH
  3169	033257	202 16 0 00 040244 		MOVEM	AC+2,ERRLOP#	;AC IS USED FOR ITERATION^
  3170
  3171	033260	205 14 0 00 200770 	O30000:	MOVSI	AC,200770	;SETUP AC
  3172	033261	205 13 0 00 577700 		MOVSI	AC-1,577700	;SETUP BR
  3173	033262	130 14 0 00 000013 		UFA	AC,AC-1		;C(AC)+C(E)
  3174	033263	316 15 0 00 000014 		CAMN	AC+1,AC		;TEST AC+1=AC
  3175	033264	004 15 0 00 030001 		ER4	AC+1,30001	;FCE FAILED
  3176	033265	316 15 0 00 000013 		CAMN	AC+1,AC-1	;TEST AC+1=BR
  3177	033266	004 14 0 00 030001 		ER4	AC,30001	;FAC FAILED
  3178	033267	321 16 0 00 033260 		JUMPL	AC+2,O30000	;LOOP ON ERROR SWITCH
  3179
  3180	033270	205 14 0 00 200770 	O30100:	MOVSI	AC,200770	;SETUP AC
  3181	033271	205 13 0 00 577700 		MOVSI	AC-1,577700	;SETUP BR
  3182	033272	400 15 0 00 000000 		SETZ	AC+1,		;CLEAR AC+1
  3183	033273	130 14 0 00 000013 		UFA	AC,AC-1		;C(AC)+C(E)
  3184	033274	336 00 0 00 000015 		SKIPN	AC+1		;TEST DIFFERS FROM ZERO
  3185	033275	004 15 0 00 030101 		ER4	AC+1,30101	;SAC FAILED
  3186	033276	321 16 0 00 033270 		JUMPL	AC+2,O30100	;LOOP ON ERROR SWITCH
DAKCA	PDP-10 KA10 ADVANCED INSTRUCTION DIAGNOSTIC #1, VER 0,2	MACRO %52(537) 12:25 21-JAN-77 PAGE 51
DAKCAM	MAC	21-JAN-77 11:41		PART I.D-FSB AND UFA                                                               SEQ 0089

  3187					;AR=200600000000(+3/4)
  3188					;BR=577400000000(-1/2)
  3189					;FAILURE RESULTS IN A CORRECT SUM.
  3190					;THE SUM IS STORED IN AC0 VICE AC+1
  3191					;CORRECT SUM=200200000000
  3192
  3193			000014			AC=14
  3194						SAVEAC	(1,1)^
  3195	033277	201 16 0 00 033277 		MOVEI	AC+2,.
  3196	033300	202 16 0 00 030051 		MOVEM	AC+2,TESTPC	;SETUP SUBTEST PC
  3197	033301	201 16 0 00 000016 		MOVEI	AC+2,<AC+2>&17	;INFORM ERROR ROUTINE WHICH
  3198	033302	202 16 0 00 040244 		MOVEM	AC+2,ERRLOP#	;AC IS USED FOR ITERATION^
  3199
  3200	033303	205 12 0 00 200200 	O30200:	MOVSI	AC-2,200200	;SETUP FOR COMPARISON
  3201	033304	205 14 0 00 200600 		MOVSI	AC,200600	;SETUP AC
  3202	033305	205 13 0 00 577400 		MOVSI	AC-1,577400	;SETUP BR
  3203	033306	130 14 0 00 000013 		UFA	AC,AC-1		;C(AC)+C(E)
  3204	033307	316 14 0 00 000000 		CAMN	AC,		;TEST SUM IN AC0
  3205	033310	003 14 0 00 030201 		ER3	AC,30201
  3206	033311	321 16 0 00 033303 		JUMPL	AC+2,O30200	;LOOP ON ERROR SWITCH
  3207
  3208					;AR=200600000000(+3/4)
  3209					;BR=577400000000(-1/2)
  3210					;FAILURE RESULTS IN A CORRECT SUM.
  3211					;THE SUM IS STORED IN AC7 VICE AC4
  3212					;CORRECT SUM=200200000000
  3213
  3214			000003			AC=3
  3215						SAVEAC	(1,1)^
  3216	033312	201 05 0 00 033312 		MOVEI	AC+2,.
  3217	033313	202 05 0 00 030051 		MOVEM	AC+2,TESTPC	;SETUP SUBTEST PC
  3218	033314	201 05 0 00 000005 		MOVEI	AC+2,<AC+2>&17	;INFORM ERROR ROUTINE WHICH
  3219	033315	202 05 0 00 040244 		MOVEM	AC+2,ERRLOP#	;AC IS USED FOR ITERATION^
  3220
  3221	033316	205 01 0 00 200200 	O30300:	MOVSI	AC-2,200200	;SETUP FOR COMPARISON
  3222	033317	205 03 0 00 200600 		MOVSI	AC,200600	;SETUP AC
  3223	033320	205 02 0 00 577400 		MOVSI	AC-1,577400	;SETUP BR
  3224	033321	130 03 0 00 000002 		UFA	AC,AC-1		;C(AC)+C(E)
  3225	033322	316 07 0 00 000001 		CAMN	AC+4,AC-2	;TEST FOR SUM IN AC+4
  3226	033323	004 04 0 00 030301 		ER4	AC+1,30301
  3227	033324	321 05 0 00 033316 		JUMPL	AC+2,O30300	;LOOP ON ERROR SWITCH
DAKCA	PDP-10 KA10 ADVANCED INSTRUCTION DIAGNOSTIC #1, VER 0,2	MACRO %52(537) 12:25 21-JAN-77 PAGE 52
DAKCAM	MAC	21-JAN-77 11:41		PART I.D-FSB AND UFA                                                               SEQ 0090

  3228					;AC=200600000000(+3/4)
  3229					;BR=577400000000(-1/2)
  3230					;FAILURE RESULTS IN A NORMALIZED SUM (AC+1)
  3231					;CORRECT SUM=200200000000  (UNNORMALIZED)
  3232					;ERROR SUM=177400000000 (NORMALIZED)
  3233
  3234			000014			AC=14
  3235						SAVEAC	1,1^
  3236	033325	201 16 0 00 033325 		MOVEI	AC+2,.
  3237	033326	202 16 0 00 030051 		MOVEM	AC+2,TESTPC	;SETUP SUBTEST PC
  3238	033327	201 16 0 00 000016 		MOVEI	AC+2,<AC+2>&17	;INFORM ERROR ROUTINE WHICH
  3239	033330	202 16 0 00 040244 		MOVEM	AC+2,ERRLOP#	;AC IS USED FOR ITERATION^
  3240
  3241	033331	205 12 0 00 177400 	O30400:	MOVSI	AC-2,177400	;SETUP FOR COMPARISON
  3242	033332	205 14 0 00 200600 		MOVSI	AC,200600	;SETUP AC
  3243	033333	205 13 0 00 577400 		MOVSI	AC-1,577400	;SETUP BR
  3244	033334	130 14 0 00 000013 		UFA	AC,AC-1		;C(AC)+C(E)
  3245	033335	316 15 0 00 000012 		CAMN	AC+1,AC-2	;TEST SUM=177400000000
  3246	033336	004 15 0 00 030401 		ER4	AC+1,30401
  3247	033337	321 16 0 00 033331 		JUMPL	AC+2,O30400	;LOOP ON ERROR SWITCH
DAKCA	PDP-10 KA10 ADVANCED INSTRUCTION DIAGNOSTIC #1, VER 0,2	MACRO %52(537) 12:25 21-JAN-77 PAGE 53
DAKCAM	MAC	21-JAN-77 11:41		PART I.E-GEN TEST-FSC,FAD,FSB AND UFA                                              SEQ 0091

  3248					SUBTTL  PART I.E-GEN TEST-FSC,FAD,FSB AND UFA
  3249
  3250					;PART I.E-GENERAL TEST-FSC,FAD,FADR,FSB,FSBR,UFA
  3251
  3252					;TEST FSC
  3253					;INCREASING SCALE FACTOR
  3254					;AR=000400000000
  3255					;SCALE=1,2,4,10,20,40,100,200
  3256					;RESULTANT EXP=1,2,4,10,20,40,200,
  3257
  3258			000014			AC=14
  3259						SAVEAC	(1,1)^
  3260	033340	201 16 0 00 033340 		MOVEI	AC+2,.
  3261	033341	202 16 0 00 030051 		MOVEM	AC+2,TESTPC	;SETUP SUBTEST PC
  3262	033342	201 16 0 00 000016 		MOVEI	AC+2,<AC+2>&17	;INFORM ERROR ROUTINE WHICH
  3263	033343	202 16 0 00 040244 		MOVEM	AC+2,ERRLOP#	;AC IS USED FOR ITERATION^
  3264
  3265			030500		SN=30500
  3266			000400			XX=400
  3267			000000			ZZ=0
  3268
  3269							;TEST FSC
  3270					O30500:	REPEAT	^D8,<
  3271					SN=SN+1
  3272						XX=XX+XX
  3273						ZZ=ZZ+ZZ
  3274						IFE	ZZ,<ZZ=1>
  3275						MOVSI	AC-2,400+XX	;SETUP FOR COMPARISON
  3276						MOVSI	AC,400		;SETUP AC
  3277						FSC	AC,ZZ		;RESCALE
  3278						CAME	AC,AC-2		;TEST RESULT
  3279						ER3	AC,SN		;FSC FAILED
  3280						JUMPL	AC+2,.-5	;LOOP ON ERROR SWITCH
  3281					>
  3282
  3283			030501		SN=SN+1
  3284			001000			XX=XX+XX
  3285			000000			ZZ=ZZ+ZZ
  3286			000001			IFE	ZZ,<ZZ=1>
  3287	033344	205 12 0 00 001400 		MOVSI	AC-2,400+XX	;SETUP FOR COMPARISON
  3288	033345	205 14 0 00 000400 		MOVSI	AC,400		;SETUP AC
  3289	033346	132 14 0 00 000001 		FSC	AC,ZZ		;RESCALE
  3290	033347	312 14 0 00 000012 		CAME	AC,AC-2		;TEST RESULT
  3291	033350	003 14 0 00 030501 		ER3	AC,SN		;FSC FAILED
  3292	033351	321 16 0 00 033344 		JUMPL	AC+2,.-5	;LOOP ON ERROR SWITCH
  3293
  3294
  3295			030502		SN=SN+1
  3296			002000			XX=XX+XX
  3297			000002			ZZ=ZZ+ZZ
  3298						IFE	ZZ,<ZZ=1>
  3299	033352	205 12 0 00 002400 		MOVSI	AC-2,400+XX	;SETUP FOR COMPARISON
  3300	033353	205 14 0 00 000400 		MOVSI	AC,400		;SETUP AC
  3301	033354	132 14 0 00 000002 		FSC	AC,ZZ		;RESCALE
  3302	033355	312 14 0 00 000012 		CAME	AC,AC-2		;TEST RESULT
DAKCA	PDP-10 KA10 ADVANCED INSTRUCTION DIAGNOSTIC #1, VER 0,2	MACRO %52(537) 12:25 21-JAN-77 PAGE 53-1
DAKCAM	MAC	21-JAN-77 11:41		PART I.E-GEN TEST-FSC,FAD,FSB AND UFA                                              SEQ 0092

  3303	033356	003 14 0 00 030502 		ER3	AC,SN		;FSC FAILED
  3304	033357	321 16 0 00 033352 		JUMPL	AC+2,.-5	;LOOP ON ERROR SWITCH
  3305
  3306
  3307			030503		SN=SN+1
  3308			004000			XX=XX+XX
  3309			000004			ZZ=ZZ+ZZ
  3310						IFE	ZZ,<ZZ=1>
  3311	033360	205 12 0 00 004400 		MOVSI	AC-2,400+XX	;SETUP FOR COMPARISON
  3312	033361	205 14 0 00 000400 		MOVSI	AC,400		;SETUP AC
  3313	033362	132 14 0 00 000004 		FSC	AC,ZZ		;RESCALE
  3314	033363	312 14 0 00 000012 		CAME	AC,AC-2		;TEST RESULT
  3315	033364	003 14 0 00 030503 		ER3	AC,SN		;FSC FAILED
  3316	033365	321 16 0 00 033360 		JUMPL	AC+2,.-5	;LOOP ON ERROR SWITCH
  3317
  3318
  3319			030504		SN=SN+1
  3320			010000			XX=XX+XX
  3321			000010			ZZ=ZZ+ZZ
  3322						IFE	ZZ,<ZZ=1>
  3323	033366	205 12 0 00 010400 		MOVSI	AC-2,400+XX	;SETUP FOR COMPARISON
  3324	033367	205 14 0 00 000400 		MOVSI	AC,400		;SETUP AC
  3325	033370	132 14 0 00 000010 		FSC	AC,ZZ		;RESCALE
  3326	033371	312 14 0 00 000012 		CAME	AC,AC-2		;TEST RESULT
  3327	033372	003 14 0 00 030504 		ER3	AC,SN		;FSC FAILED
  3328	033373	321 16 0 00 033366 		JUMPL	AC+2,.-5	;LOOP ON ERROR SWITCH
  3329
  3330
  3331			030505		SN=SN+1
  3332			020000			XX=XX+XX
  3333			000020			ZZ=ZZ+ZZ
  3334						IFE	ZZ,<ZZ=1>
  3335	033374	205 12 0 00 020400 		MOVSI	AC-2,400+XX	;SETUP FOR COMPARISON
  3336	033375	205 14 0 00 000400 		MOVSI	AC,400		;SETUP AC
  3337	033376	132 14 0 00 000020 		FSC	AC,ZZ		;RESCALE
  3338	033377	312 14 0 00 000012 		CAME	AC,AC-2		;TEST RESULT
  3339	033400	003 14 0 00 030505 		ER3	AC,SN		;FSC FAILED
  3340	033401	321 16 0 00 033374 		JUMPL	AC+2,.-5	;LOOP ON ERROR SWITCH
  3341
  3342
  3343			030506		SN=SN+1
  3344			040000			XX=XX+XX
  3345			000040			ZZ=ZZ+ZZ
  3346						IFE	ZZ,<ZZ=1>
  3347	033402	205 12 0 00 040400 		MOVSI	AC-2,400+XX	;SETUP FOR COMPARISON
  3348	033403	205 14 0 00 000400 		MOVSI	AC,400		;SETUP AC
  3349	033404	132 14 0 00 000040 		FSC	AC,ZZ		;RESCALE
  3350	033405	312 14 0 00 000012 		CAME	AC,AC-2		;TEST RESULT
  3351	033406	003 14 0 00 030506 		ER3	AC,SN		;FSC FAILED
  3352	033407	321 16 0 00 033402 		JUMPL	AC+2,.-5	;LOOP ON ERROR SWITCH
  3353
  3354
  3355			030507		SN=SN+1
  3356			100000			XX=XX+XX
  3357			000100			ZZ=ZZ+ZZ
DAKCA	PDP-10 KA10 ADVANCED INSTRUCTION DIAGNOSTIC #1, VER 0,2	MACRO %52(537) 12:25 21-JAN-77 PAGE 53-2
DAKCAM	MAC	21-JAN-77 11:41		PART I.E-GEN TEST-FSC,FAD,FSB AND UFA                                              SEQ 0093

  3358						IFE	ZZ,<ZZ=1>
  3359	033410	205 12 0 00 100400 		MOVSI	AC-2,400+XX	;SETUP FOR COMPARISON
  3360	033411	205 14 0 00 000400 		MOVSI	AC,400		;SETUP AC
  3361	033412	132 14 0 00 000100 		FSC	AC,ZZ		;RESCALE
  3362	033413	312 14 0 00 000012 		CAME	AC,AC-2		;TEST RESULT
  3363	033414	003 14 0 00 030507 		ER3	AC,SN		;FSC FAILED
  3364	033415	321 16 0 00 033410 		JUMPL	AC+2,.-5	;LOOP ON ERROR SWITCH
  3365
  3366
  3367			030510		SN=SN+1
  3368			200000			XX=XX+XX
  3369			000200			ZZ=ZZ+ZZ
  3370						IFE	ZZ,<ZZ=1>
  3371	033416	205 12 0 00 200400 		MOVSI	AC-2,400+XX	;SETUP FOR COMPARISON
  3372	033417	205 14 0 00 000400 		MOVSI	AC,400		;SETUP AC
  3373	033420	132 14 0 00 000200 		FSC	AC,ZZ		;RESCALE
  3374	033421	312 14 0 00 000012 		CAME	AC,AC-2		;TEST RESULT
  3375	033422	003 14 0 00 030510 		ER3	AC,SN		;FSC FAILED
  3376	033423	321 16 0 00 033416 		JUMPL	AC+2,.-5	;LOOP ON ERROR SWITCH
  3377
  3378					PAGE
DAKCA	PDP-10 KA10 ADVANCED INSTRUCTION DIAGNOSTIC #1, VER 0,2	MACRO %52(537) 12:25 21-JAN-77 PAGE 53-3
DAKCAM	MAC	21-JAN-77 11:41		PART I.E-GEN TEST-FSC,FAD,FSB AND UFA                                              SEQ 0094

  3379					;TEST FSC
  3380					;INCREASING EXPONENT
  3381					;AR EXP=201,202,204,210,220,240,300
  3382					;SCALE=1
  3383					;RESULTANT EXP=202,203,205,211,221,241,301
  3384
  3385			000014			AC=14
  3386						SAVEAC	(1,1)^
  3387	033424	201 16 0 00 033424 		MOVEI	AC+2,.
  3388	033425	202 16 0 00 030051 		MOVEM	AC+2,TESTPC	;SETUP SUBTEST PC
  3389	033426	201 16 0 00 000016 		MOVEI	AC+2,<AC+2>&17	;INFORM ERROR ROUTINE WHICH
  3390	033427	202 16 0 00 040244 		MOVEM	AC+2,ERRLOP#	;AC IS USED FOR ITERATION^
  3391
  3392			030600		SN=30600
  3393			000400			ZZ=400
  3394
  3395							;TEST FSC
  3396					O30600:	REPEAT	^D7,<
  3397					SN=SN+1
  3398						ZZ=ZZ+ZZ
  3399						XX=ZZ+1000
  3400						MOVSI	AC-2,200400+XX	;SETUP FOR COMPARISON
  3401						MOVSI	AC,200400+ZZ	;SETUP AC
  3402						FSC	AC,1		;RESCALE
  3403						CAME	AC,AC-2		;TEST RESULT
  3404						ER3	AC,SN		;FSC FAILED
  3405						JUMPL	AC+2,.-5	;LOOP ON ERROR SWITCH
  3406					>
  3407
  3408			030601		SN=SN+1
  3409			001000			ZZ=ZZ+ZZ
  3410			002000			XX=ZZ+1000
  3411	033430	205 12 0 00 202400 		MOVSI	AC-2,200400+XX	;SETUP FOR COMPARISON
  3412	033431	205 14 0 00 201400 		MOVSI	AC,200400+ZZ	;SETUP AC
  3413	033432	132 14 0 00 000001 		FSC	AC,1		;RESCALE
  3414	033433	312 14 0 00 000012 		CAME	AC,AC-2		;TEST RESULT
  3415	033434	003 14 0 00 030601 		ER3	AC,SN		;FSC FAILED
  3416	033435	321 16 0 00 033430 		JUMPL	AC+2,.-5	;LOOP ON ERROR SWITCH
  3417
  3418
  3419			030602		SN=SN+1
  3420			002000			ZZ=ZZ+ZZ
  3421			003000			XX=ZZ+1000
  3422	033436	205 12 0 00 203400 		MOVSI	AC-2,200400+XX	;SETUP FOR COMPARISON
  3423	033437	205 14 0 00 202400 		MOVSI	AC,200400+ZZ	;SETUP AC
  3424	033440	132 14 0 00 000001 		FSC	AC,1		;RESCALE
  3425	033441	312 14 0 00 000012 		CAME	AC,AC-2		;TEST RESULT
  3426	033442	003 14 0 00 030602 		ER3	AC,SN		;FSC FAILED
  3427	033443	321 16 0 00 033436 		JUMPL	AC+2,.-5	;LOOP ON ERROR SWITCH
  3428
  3429
  3430			030603		SN=SN+1
  3431			004000			ZZ=ZZ+ZZ
  3432			005000			XX=ZZ+1000
  3433	033444	205 12 0 00 205400 		MOVSI	AC-2,200400+XX	;SETUP FOR COMPARISON
DAKCA	PDP-10 KA10 ADVANCED INSTRUCTION DIAGNOSTIC #1, VER 0,2	MACRO %52(537) 12:25 21-JAN-77 PAGE 53-4
DAKCAM	MAC	21-JAN-77 11:41		PART I.E-GEN TEST-FSC,FAD,FSB AND UFA                                              SEQ 0095

  3434	033445	205 14 0 00 204400 		MOVSI	AC,200400+ZZ	;SETUP AC
  3435	033446	132 14 0 00 000001 		FSC	AC,1		;RESCALE
  3436	033447	312 14 0 00 000012 		CAME	AC,AC-2		;TEST RESULT
  3437	033450	003 14 0 00 030603 		ER3	AC,SN		;FSC FAILED
  3438	033451	321 16 0 00 033444 		JUMPL	AC+2,.-5	;LOOP ON ERROR SWITCH
  3439
  3440
  3441			030604		SN=SN+1
  3442			010000			ZZ=ZZ+ZZ
  3443			011000			XX=ZZ+1000
  3444	033452	205 12 0 00 211400 		MOVSI	AC-2,200400+XX	;SETUP FOR COMPARISON
  3445	033453	205 14 0 00 210400 		MOVSI	AC,200400+ZZ	;SETUP AC
  3446	033454	132 14 0 00 000001 		FSC	AC,1		;RESCALE
  3447	033455	312 14 0 00 000012 		CAME	AC,AC-2		;TEST RESULT
  3448	033456	003 14 0 00 030604 		ER3	AC,SN		;FSC FAILED
  3449	033457	321 16 0 00 033452 		JUMPL	AC+2,.-5	;LOOP ON ERROR SWITCH
  3450
  3451
  3452			030605		SN=SN+1
  3453			020000			ZZ=ZZ+ZZ
  3454			021000			XX=ZZ+1000
  3455	033460	205 12 0 00 221400 		MOVSI	AC-2,200400+XX	;SETUP FOR COMPARISON
  3456	033461	205 14 0 00 220400 		MOVSI	AC,200400+ZZ	;SETUP AC
  3457	033462	132 14 0 00 000001 		FSC	AC,1		;RESCALE
  3458	033463	312 14 0 00 000012 		CAME	AC,AC-2		;TEST RESULT
  3459	033464	003 14 0 00 030605 		ER3	AC,SN		;FSC FAILED
  3460	033465	321 16 0 00 033460 		JUMPL	AC+2,.-5	;LOOP ON ERROR SWITCH
  3461
  3462
  3463			030606		SN=SN+1
  3464			040000			ZZ=ZZ+ZZ
  3465			041000			XX=ZZ+1000
  3466	033466	205 12 0 00 241400 		MOVSI	AC-2,200400+XX	;SETUP FOR COMPARISON
  3467	033467	205 14 0 00 240400 		MOVSI	AC,200400+ZZ	;SETUP AC
  3468	033470	132 14 0 00 000001 		FSC	AC,1		;RESCALE
  3469	033471	312 14 0 00 000012 		CAME	AC,AC-2		;TEST RESULT
  3470	033472	003 14 0 00 030606 		ER3	AC,SN		;FSC FAILED
  3471	033473	321 16 0 00 033466 		JUMPL	AC+2,.-5	;LOOP ON ERROR SWITCH
  3472
  3473
  3474			030607		SN=SN+1
  3475			100000			ZZ=ZZ+ZZ
  3476			101000			XX=ZZ+1000
  3477	033474	205 12 0 00 301400 		MOVSI	AC-2,200400+XX	;SETUP FOR COMPARISON
  3478	033475	205 14 0 00 300400 		MOVSI	AC,200400+ZZ	;SETUP AC
  3479	033476	132 14 0 00 000001 		FSC	AC,1		;RESCALE
  3480	033477	312 14 0 00 000012 		CAME	AC,AC-2		;TEST RESULT
  3481	033500	003 14 0 00 030607 		ER3	AC,SN		;FSC FAILED
  3482	033501	321 16 0 00 033474 		JUMPL	AC+2,.-5	;LOOP ON ERROR SWITCH
  3483
DAKCA	PDP-10 KA10 ADVANCED INSTRUCTION DIAGNOSTIC #1, VER 0,2	MACRO %52(537) 12:25 21-JAN-77 PAGE 54
DAKCAM	MAC	21-JAN-77 11:41		PART I.E-GEN TEST-FSC,FAD,FSB AND UFA                                              SEQ 0096

  3484					;TEST FSC
  3485					;NEGATIVE EXP, POSITIVE SCALE
  3486					;AR=777400000000
  3487					;SCALE=1,2,4,10,20,40,100,
  3488					;RESULTANT EXP=776,775,773,767,757,737,677,577
  3489
  3490			000013			AC=13
  3491						SAVEAC	(1,1)^
  3492	033502	201 15 0 00 033502 		MOVEI	AC+2,.
  3493	033503	202 15 0 00 030051 		MOVEM	AC+2,TESTPC	;SETUP SUBTEST PC
  3494	033504	201 15 0 00 000015 		MOVEI	AC+2,<AC+2>&17	;INFORM ERROR ROUTINE WHICH
  3495	033505	202 15 0 00 040244 		MOVEM	AC+2,ERRLOP#	;AC IS USED FOR ITERATION^
  3496
  3497			030700		SN=30700
  3498			000400			WW=400
  3499			000000			XX=0
  3500			776400			ZZ=776400
  3501
  3502							;TEST FSC
  3503					O30700:	REPEAT  ^D8,<
  3504					SN=SN+1
  3505						XX=XX+XX
  3506						ZZ=ZZ-WW
  3507						WW=WW+WW
  3508						IFE	XX,<XX=1>
  3509						MOVSI	AC-2,400+ZZ	;SETUP FOR COMPARISON
  3510						MOVSI	AC,777400	;SETUP AC
  3511						FSC	AC,XX		;RESCALE
  3512						CAME	AC,AC-2		;TEST RESULT
  3513						ER3	AC,SN		;FSC FAILED
  3514						JUMPL	AC+2,.-5	;LOOP ON ERROR SWITCH
  3515					>
  3516
  3517			030701		SN=SN+1
  3518			000000			XX=XX+XX
  3519			776000			ZZ=ZZ-WW
  3520			001000			WW=WW+WW
  3521			000001			IFE	XX,<XX=1>
  3522	033506	205 11 0 00 776400 		MOVSI	AC-2,400+ZZ	;SETUP FOR COMPARISON
  3523	033507	205 13 0 00 777400 		MOVSI	AC,777400	;SETUP AC
  3524	033510	132 13 0 00 000001 		FSC	AC,XX		;RESCALE
  3525	033511	312 13 0 00 000011 		CAME	AC,AC-2		;TEST RESULT
  3526	033512	003 13 0 00 030701 		ER3	AC,SN		;FSC FAILED
  3527	033513	321 15 0 00 033506 		JUMPL	AC+2,.-5	;LOOP ON ERROR SWITCH
  3528
  3529
  3530			030702		SN=SN+1
  3531			000002			XX=XX+XX
  3532			775000			ZZ=ZZ-WW
  3533			002000			WW=WW+WW
  3534						IFE	XX,<XX=1>
  3535	033514	205 11 0 00 775400 		MOVSI	AC-2,400+ZZ	;SETUP FOR COMPARISON
  3536	033515	205 13 0 00 777400 		MOVSI	AC,777400	;SETUP AC
  3537	033516	132 13 0 00 000002 		FSC	AC,XX		;RESCALE
  3538	033517	312 13 0 00 000011 		CAME	AC,AC-2		;TEST RESULT
DAKCA	PDP-10 KA10 ADVANCED INSTRUCTION DIAGNOSTIC #1, VER 0,2	MACRO %52(537) 12:25 21-JAN-77 PAGE 54-1
DAKCAM	MAC	21-JAN-77 11:41		PART I.E-GEN TEST-FSC,FAD,FSB AND UFA                                              SEQ 0097

  3539	033520	003 13 0 00 030702 		ER3	AC,SN		;FSC FAILED
  3540	033521	321 15 0 00 033514 		JUMPL	AC+2,.-5	;LOOP ON ERROR SWITCH
  3541
  3542
  3543			030703		SN=SN+1
  3544			000004			XX=XX+XX
  3545			773000			ZZ=ZZ-WW
  3546			004000			WW=WW+WW
  3547						IFE	XX,<XX=1>
  3548	033522	205 11 0 00 773400 		MOVSI	AC-2,400+ZZ	;SETUP FOR COMPARISON
  3549	033523	205 13 0 00 777400 		MOVSI	AC,777400	;SETUP AC
  3550	033524	132 13 0 00 000004 		FSC	AC,XX		;RESCALE
  3551	033525	312 13 0 00 000011 		CAME	AC,AC-2		;TEST RESULT
  3552	033526	003 13 0 00 030703 		ER3	AC,SN		;FSC FAILED
  3553	033527	321 15 0 00 033522 		JUMPL	AC+2,.-5	;LOOP ON ERROR SWITCH
  3554
  3555
  3556			030704		SN=SN+1
  3557			000010			XX=XX+XX
  3558			767000			ZZ=ZZ-WW
  3559			010000			WW=WW+WW
  3560						IFE	XX,<XX=1>
  3561	033530	205 11 0 00 767400 		MOVSI	AC-2,400+ZZ	;SETUP FOR COMPARISON
  3562	033531	205 13 0 00 777400 		MOVSI	AC,777400	;SETUP AC
  3563	033532	132 13 0 00 000010 		FSC	AC,XX		;RESCALE
  3564	033533	312 13 0 00 000011 		CAME	AC,AC-2		;TEST RESULT
  3565	033534	003 13 0 00 030704 		ER3	AC,SN		;FSC FAILED
  3566	033535	321 15 0 00 033530 		JUMPL	AC+2,.-5	;LOOP ON ERROR SWITCH
  3567
  3568
  3569			030705		SN=SN+1
  3570			000020			XX=XX+XX
  3571			757000			ZZ=ZZ-WW
  3572			020000			WW=WW+WW
  3573						IFE	XX,<XX=1>
  3574	033536	205 11 0 00 757400 		MOVSI	AC-2,400+ZZ	;SETUP FOR COMPARISON
  3575	033537	205 13 0 00 777400 		MOVSI	AC,777400	;SETUP AC
  3576	033540	132 13 0 00 000020 		FSC	AC,XX		;RESCALE
  3577	033541	312 13 0 00 000011 		CAME	AC,AC-2		;TEST RESULT
  3578	033542	003 13 0 00 030705 		ER3	AC,SN		;FSC FAILED
  3579	033543	321 15 0 00 033536 		JUMPL	AC+2,.-5	;LOOP ON ERROR SWITCH
  3580
  3581
  3582			030706		SN=SN+1
  3583			000040			XX=XX+XX
  3584			737000			ZZ=ZZ-WW
  3585			040000			WW=WW+WW
  3586						IFE	XX,<XX=1>
  3587	033544	205 11 0 00 737400 		MOVSI	AC-2,400+ZZ	;SETUP FOR COMPARISON
  3588	033545	205 13 0 00 777400 		MOVSI	AC,777400	;SETUP AC
  3589	033546	132 13 0 00 000040 		FSC	AC,XX		;RESCALE
  3590	033547	312 13 0 00 000011 		CAME	AC,AC-2		;TEST RESULT
  3591	033550	003 13 0 00 030706 		ER3	AC,SN		;FSC FAILED
  3592	033551	321 15 0 00 033544 		JUMPL	AC+2,.-5	;LOOP ON ERROR SWITCH
  3593
DAKCA	PDP-10 KA10 ADVANCED INSTRUCTION DIAGNOSTIC #1, VER 0,2	MACRO %52(537) 12:25 21-JAN-77 PAGE 54-2
DAKCAM	MAC	21-JAN-77 11:41		PART I.E-GEN TEST-FSC,FAD,FSB AND UFA                                              SEQ 0098

  3594
  3595			030707		SN=SN+1
  3596			000100			XX=XX+XX
  3597			677000			ZZ=ZZ-WW
  3598			100000			WW=WW+WW
  3599						IFE	XX,<XX=1>
  3600	033552	205 11 0 00 677400 		MOVSI	AC-2,400+ZZ	;SETUP FOR COMPARISON
  3601	033553	205 13 0 00 777400 		MOVSI	AC,777400	;SETUP AC
  3602	033554	132 13 0 00 000100 		FSC	AC,XX		;RESCALE
  3603	033555	312 13 0 00 000011 		CAME	AC,AC-2		;TEST RESULT
  3604	033556	003 13 0 00 030707 		ER3	AC,SN		;FSC FAILED
  3605	033557	321 15 0 00 033552 		JUMPL	AC+2,.-5	;LOOP ON ERROR SWITCH
  3606
  3607
  3608			030710		SN=SN+1
  3609			000200			XX=XX+XX
  3610			577000			ZZ=ZZ-WW
  3611			200000			WW=WW+WW
  3612						IFE	XX,<XX=1>
  3613	033560	205 11 0 00 577400 		MOVSI	AC-2,400+ZZ	;SETUP FOR COMPARISON
  3614	033561	205 13 0 00 777400 		MOVSI	AC,777400	;SETUP AC
  3615	033562	132 13 0 00 000200 		FSC	AC,XX		;RESCALE
  3616	033563	312 13 0 00 000011 		CAME	AC,AC-2		;TEST RESULT
  3617	033564	003 13 0 00 030710 		ER3	AC,SN		;FSC FAILED
  3618	033565	321 15 0 00 033560 		JUMPL	AC+2,.-5	;LOOP ON ERROR SWITCH
  3619
  3620					PAGE
DAKCA	PDP-10 KA10 ADVANCED INSTRUCTION DIAGNOSTIC #1, VER 0,2	MACRO %52(537) 12:25 21-JAN-77 PAGE 54-3
DAKCAM	MAC	21-JAN-77 11:41		PART I.E-GEN TEST-FSC,FAD,FSB AND UFA                                              SEQ 0099

  3621					;TEST FSC
  3622					;NEGATIVE EXP, NEGATIVE SCALE
  3623					;AR=577400000000
  3624					;SCALE=777,776,775,774,773,772,771,770
  3625					;RESULTANT EXP=600,601,602,603,604,605,606,607
  3626
  3627			000012			AC=12
  3628						SAVEAC	(1,1)^
  3629	033566	201 14 0 00 033566 		MOVEI	AC+2,.
  3630	033567	202 14 0 00 030051 		MOVEM	AC+2,TESTPC	;SETUP SUBTEST PC
  3631	033570	201 14 0 00 000014 		MOVEI	AC+2,<AC+2>&17	;INFORM ERROR ROUTINE WHICH
  3632	033571	202 14 0 00 040244 		MOVEM	AC+2,ERRLOP#	;AC IS USED FOR ITERATION^
  3633
  3634			031000		SN=31000
  3635			000000			XX=0
  3636			577000			ZZ=577000
  3637
  3638							;TEST FSC
  3639					O31000:	REPEAT	^D8,<
  3640					SN=SN+1
  3641						XX=XX-1
  3642						ZZ=ZZ+1000
  3643						MOVSI	AC-2,400+ZZ	;SETUP FOR COMPARISON
  3644						MOVSI	AC,577400	;SETUP AC
  3645						FSC	AC,XX		;RESCALE
  3646						CAME	AC,AC-2		;TEST RESULT
  3647						ER3	AC,SN		;FSC FAILED
  3648						JUMPL	AC+2,.-5	;LOOP ON ERROR SWITCH
  3649					>
  3650
  3651			031001		SN=SN+1
  3652		777777	777777			XX=XX-1
  3653			600000			ZZ=ZZ+1000
  3654	033572	205 10 0 00 600400 		MOVSI	AC-2,400+ZZ	;SETUP FOR COMPARISON
  3655	033573	205 12 0 00 577400 		MOVSI	AC,577400	;SETUP AC
  3656	033574	132 12 0 00 777777 		FSC	AC,XX		;RESCALE
  3657	033575	312 12 0 00 000010 		CAME	AC,AC-2		;TEST RESULT
  3658	033576	003 12 0 00 031001 		ER3	AC,SN		;FSC FAILED
  3659	033577	321 14 0 00 033572 		JUMPL	AC+2,.-5	;LOOP ON ERROR SWITCH
  3660
  3661
  3662			031002		SN=SN+1
  3663		777777	777776			XX=XX-1
  3664			601000			ZZ=ZZ+1000
  3665	033600	205 10 0 00 601400 		MOVSI	AC-2,400+ZZ	;SETUP FOR COMPARISON
  3666	033601	205 12 0 00 577400 		MOVSI	AC,577400	;SETUP AC
  3667	033602	132 12 0 00 777776 		FSC	AC,XX		;RESCALE
  3668	033603	312 12 0 00 000010 		CAME	AC,AC-2		;TEST RESULT
  3669	033604	003 12 0 00 031002 		ER3	AC,SN		;FSC FAILED
  3670	033605	321 14 0 00 033600 		JUMPL	AC+2,.-5	;LOOP ON ERROR SWITCH
  3671
  3672
  3673			031003		SN=SN+1
  3674		777777	777775			XX=XX-1
  3675			602000			ZZ=ZZ+1000
DAKCA	PDP-10 KA10 ADVANCED INSTRUCTION DIAGNOSTIC #1, VER 0,2	MACRO %52(537) 12:25 21-JAN-77 PAGE 54-4
DAKCAM	MAC	21-JAN-77 11:41		PART I.E-GEN TEST-FSC,FAD,FSB AND UFA                                              SEQ 0100

  3676	033606	205 10 0 00 602400 		MOVSI	AC-2,400+ZZ	;SETUP FOR COMPARISON
  3677	033607	205 12 0 00 577400 		MOVSI	AC,577400	;SETUP AC
  3678	033610	132 12 0 00 777775 		FSC	AC,XX		;RESCALE
  3679	033611	312 12 0 00 000010 		CAME	AC,AC-2		;TEST RESULT
  3680	033612	003 12 0 00 031003 		ER3	AC,SN		;FSC FAILED
  3681	033613	321 14 0 00 033606 		JUMPL	AC+2,.-5	;LOOP ON ERROR SWITCH
  3682
  3683
  3684			031004		SN=SN+1
  3685		777777	777774			XX=XX-1
  3686			603000			ZZ=ZZ+1000
  3687	033614	205 10 0 00 603400 		MOVSI	AC-2,400+ZZ	;SETUP FOR COMPARISON
  3688	033615	205 12 0 00 577400 		MOVSI	AC,577400	;SETUP AC
  3689	033616	132 12 0 00 777774 		FSC	AC,XX		;RESCALE
  3690	033617	312 12 0 00 000010 		CAME	AC,AC-2		;TEST RESULT
  3691	033620	003 12 0 00 031004 		ER3	AC,SN		;FSC FAILED
  3692	033621	321 14 0 00 033614 		JUMPL	AC+2,.-5	;LOOP ON ERROR SWITCH
  3693
  3694
  3695			031005		SN=SN+1
  3696		777777	777773			XX=XX-1
  3697			604000			ZZ=ZZ+1000
  3698	033622	205 10 0 00 604400 		MOVSI	AC-2,400+ZZ	;SETUP FOR COMPARISON
  3699	033623	205 12 0 00 577400 		MOVSI	AC,577400	;SETUP AC
  3700	033624	132 12 0 00 777773 		FSC	AC,XX		;RESCALE
  3701	033625	312 12 0 00 000010 		CAME	AC,AC-2		;TEST RESULT
  3702	033626	003 12 0 00 031005 		ER3	AC,SN		;FSC FAILED
  3703	033627	321 14 0 00 033622 		JUMPL	AC+2,.-5	;LOOP ON ERROR SWITCH
  3704
  3705
  3706			031006		SN=SN+1
  3707		777777	777772			XX=XX-1
  3708			605000			ZZ=ZZ+1000
  3709	033630	205 10 0 00 605400 		MOVSI	AC-2,400+ZZ	;SETUP FOR COMPARISON
  3710	033631	205 12 0 00 577400 		MOVSI	AC,577400	;SETUP AC
  3711	033632	132 12 0 00 777772 		FSC	AC,XX		;RESCALE
  3712	033633	312 12 0 00 000010 		CAME	AC,AC-2		;TEST RESULT
  3713	033634	003 12 0 00 031006 		ER3	AC,SN		;FSC FAILED
  3714	033635	321 14 0 00 033630 		JUMPL	AC+2,.-5	;LOOP ON ERROR SWITCH
  3715
  3716
  3717			031007		SN=SN+1
  3718		777777	777771			XX=XX-1
  3719			606000			ZZ=ZZ+1000
  3720	033636	205 10 0 00 606400 		MOVSI	AC-2,400+ZZ	;SETUP FOR COMPARISON
  3721	033637	205 12 0 00 577400 		MOVSI	AC,577400	;SETUP AC
  3722	033640	132 12 0 00 777771 		FSC	AC,XX		;RESCALE
  3723	033641	312 12 0 00 000010 		CAME	AC,AC-2		;TEST RESULT
  3724	033642	003 12 0 00 031007 		ER3	AC,SN		;FSC FAILED
  3725	033643	321 14 0 00 033636 		JUMPL	AC+2,.-5	;LOOP ON ERROR SWITCH
  3726
  3727
  3728			031010		SN=SN+1
  3729		777777	777770			XX=XX-1
  3730			607000			ZZ=ZZ+1000
DAKCA	PDP-10 KA10 ADVANCED INSTRUCTION DIAGNOSTIC #1, VER 0,2	MACRO %52(537) 12:25 21-JAN-77 PAGE 54-5
DAKCAM	MAC	21-JAN-77 11:41		PART I.E-GEN TEST-FSC,FAD,FSB AND UFA                                              SEQ 0101

  3731	033644	205 10 0 00 607400 		MOVSI	AC-2,400+ZZ	;SETUP FOR COMPARISON
  3732	033645	205 12 0 00 577400 		MOVSI	AC,577400	;SETUP AC
  3733	033646	132 12 0 00 777770 		FSC	AC,XX		;RESCALE
  3734	033647	312 12 0 00 000010 		CAME	AC,AC-2		;TEST RESULT
  3735	033650	003 12 0 00 031010 		ER3	AC,SN		;FSC FAILED
  3736	033651	321 14 0 00 033644 		JUMPL	AC+2,.-5	;LOOP ON ERROR SWITCH
  3737
DAKCA	PDP-10 KA10 ADVANCED INSTRUCTION DIAGNOSTIC #1, VER 0,2	MACRO %52(537) 12:25 21-JAN-77 PAGE 55
DAKCAM	MAC	21-JAN-77 11:41		PART I.E-GEN TEST-FSC,FAD,FSB AND UFA                                              SEQ 0102

  3738					;TEST FSC
  3739					;NR ALL ZERO CONDITION
  3740					;AR=200000000000
  3741					;SCALE=1,2,4
  3742					;RESULTANT AC=0
  3743
  3744			000011			AC=11
  3745						SAVEAC	(1,1)^
  3746	033652	201 13 0 00 033652 		MOVEI	AC+2,.
  3747	033653	202 13 0 00 030051 		MOVEM	AC+2,TESTPC	;SETUP SUBTEST PC
  3748	033654	201 13 0 00 000013 		MOVEI	AC+2,<AC+2>&17	;INFORM ERROR ROUTINE WHICH
  3749	033655	202 13 0 00 040244 		MOVEM	AC+2,ERRLOP#	;AC IS USED FOR ITERATION^
  3750
  3751			031100		SN=31100
  3752			000000			ZZ=0
  3753
  3754							;TEST FSC -ALL ZERO COND
  3755					O31100:	REPEAT	^D3,<
  3756					SN=SN+1
  3757						ZZ=ZZ+ZZ
  3758						IFE	ZZ,<ZZ=1>
  3759						MOVSI	AC,200000	;SETUP AC
  3760						FSC	AC,ZZ		;RESCALE
  3761						SKIPE	AC		;TEST AC=0
  3762						ER3	AC,SN		;FSC -NR ALL ZERO FAILED
  3763						JUMPL	AC+2,.-4	;LOOP ON ERROR SWITCH
  3764					>
  3765
  3766			031101		SN=SN+1
  3767			000000			ZZ=ZZ+ZZ
  3768			000001			IFE	ZZ,<ZZ=1>
  3769	033656	205 11 0 00 200000 		MOVSI	AC,200000	;SETUP AC
  3770	033657	132 11 0 00 000001 		FSC	AC,ZZ		;RESCALE
  3771	033660	332 00 0 00 000011 		SKIPE	AC		;TEST AC=0
  3772	033661	003 11 0 00 031101 		ER3	AC,SN		;FSC -NR ALL ZERO FAILED
  3773	033662	321 13 0 00 033656 		JUMPL	AC+2,.-4	;LOOP ON ERROR SWITCH
  3774
  3775
  3776			031102		SN=SN+1
  3777			000002			ZZ=ZZ+ZZ
  3778						IFE	ZZ,<ZZ=1>
  3779	033663	205 11 0 00 200000 		MOVSI	AC,200000	;SETUP AC
  3780	033664	132 11 0 00 000002 		FSC	AC,ZZ		;RESCALE
  3781	033665	332 00 0 00 000011 		SKIPE	AC		;TEST AC=0
  3782	033666	003 11 0 00 031102 		ER3	AC,SN		;FSC -NR ALL ZERO FAILED
  3783	033667	321 13 0 00 033663 		JUMPL	AC+2,.-4	;LOOP ON ERROR SWITCH
  3784
  3785
  3786			031103		SN=SN+1
  3787			000004			ZZ=ZZ+ZZ
  3788						IFE	ZZ,<ZZ=1>
  3789	033670	205 11 0 00 200000 		MOVSI	AC,200000	;SETUP AC
  3790	033671	132 11 0 00 000004 		FSC	AC,ZZ		;RESCALE
  3791	033672	332 00 0 00 000011 		SKIPE	AC		;TEST AC=0
  3792	033673	003 11 0 00 031103 		ER3	AC,SN		;FSC -NR ALL ZERO FAILED
DAKCA	PDP-10 KA10 ADVANCED INSTRUCTION DIAGNOSTIC #1, VER 0,2	MACRO %52(537) 12:25 21-JAN-77 PAGE 55-1
DAKCAM	MAC	21-JAN-77 11:41		PART I.E-GEN TEST-FSC,FAD,FSB AND UFA                                              SEQ 0103

  3793	033674	321 13 0 00 033670 		JUMPL	AC+2,.-4	;LOOP ON ERROR SWITCH
  3794
  3795					PAGE
DAKCA	PDP-10 KA10 ADVANCED INSTRUCTION DIAGNOSTIC #1, VER 0,2	MACRO %52(537) 12:25 21-JAN-77 PAGE 55-2
DAKCAM	MAC	21-JAN-77 11:41		PART I.E-GEN TEST-FSC,FAD,FSB AND UFA                                              SEQ 0104

  3796					;TEST FSC
  3797					;NR SHRT COND
  3798					;AR=577000000000
  3799					;SCALE=1,2,3
  3800					;RESULTANT EXPONENT=575,574,573
  3801
  3802			000010			AC=10
  3803						SAVEAC	(1,1)^
  3804	033675	201 12 0 00 033675 		MOVEI	AC+2,.
  3805	033676	202 12 0 00 030051 		MOVEM	AC+2,TESTPC	;SETUP SUBTEST PC
  3806	033677	201 12 0 00 000012 		MOVEI	AC+2,<AC+2>&17	;INFORM ERROR ROUTINE WHICH
  3807	033700	202 12 0 00 040244 		MOVEM	AC+2,ERRLOP#	;AC IS USED FOR ITERATION^
  3808
  3809			031200		SN=31200
  3810			576000			XX=576000
  3811			000000			ZZ=0
  3812
  3813							;TEST FSC-NRSHRT
  3814					O31200:	REPEAT	^D3,<
  3815					SN=SN+1
  3816						XX=XX-1000
  3817						ZZ=ZZ+1
  3818						MOVSI	AC-2,400+XX	;SETUP FOR COMPARISON
  3819						MOVSI	AC,577000	;SETUP AC
  3820						FSC	AC,ZZ		;RESCALE
  3821						CAME	AC,AC-2		;TEST RESULT
  3822						ER3	AC,SN		;FSC NRSHRT FAILED
  3823						JUMPL	AC+2,.-5	;LOOP ON ERROR SWITCH
  3824					>
  3825
  3826			031201		SN=SN+1
  3827			575000			XX=XX-1000
  3828			000001			ZZ=ZZ+1
  3829	033701	205 06 0 00 575400 		MOVSI	AC-2,400+XX	;SETUP FOR COMPARISON
  3830	033702	205 10 0 00 577000 		MOVSI	AC,577000	;SETUP AC
  3831	033703	132 10 0 00 000001 		FSC	AC,ZZ		;RESCALE
  3832	033704	312 10 0 00 000006 		CAME	AC,AC-2		;TEST RESULT
  3833	033705	003 10 0 00 031201 		ER3	AC,SN		;FSC NRSHRT FAILED
  3834	033706	321 12 0 00 033701 		JUMPL	AC+2,.-5	;LOOP ON ERROR SWITCH
  3835
  3836
  3837			031202		SN=SN+1
  3838			574000			XX=XX-1000
  3839			000002			ZZ=ZZ+1
  3840	033707	205 06 0 00 574400 		MOVSI	AC-2,400+XX	;SETUP FOR COMPARISON
  3841	033710	205 10 0 00 577000 		MOVSI	AC,577000	;SETUP AC
  3842	033711	132 10 0 00 000002 		FSC	AC,ZZ		;RESCALE
  3843	033712	312 10 0 00 000006 		CAME	AC,AC-2		;TEST RESULT
  3844	033713	003 10 0 00 031202 		ER3	AC,SN		;FSC NRSHRT FAILED
  3845	033714	321 12 0 00 033707 		JUMPL	AC+2,.-5	;LOOP ON ERROR SWITCH
  3846
  3847
  3848			031203		SN=SN+1
  3849			573000			XX=XX-1000
  3850			000003			ZZ=ZZ+1
DAKCA	PDP-10 KA10 ADVANCED INSTRUCTION DIAGNOSTIC #1, VER 0,2	MACRO %52(537) 12:25 21-JAN-77 PAGE 55-3
DAKCAM	MAC	21-JAN-77 11:41		PART I.E-GEN TEST-FSC,FAD,FSB AND UFA                                              SEQ 0105

  3851	033715	205 06 0 00 573400 		MOVSI	AC-2,400+XX	;SETUP FOR COMPARISON
  3852	033716	205 10 0 00 577000 		MOVSI	AC,577000	;SETUP AC
  3853	033717	132 10 0 00 000003 		FSC	AC,ZZ		;RESCALE
  3854	033720	312 10 0 00 000006 		CAME	AC,AC-2		;TEST RESULT
  3855	033721	003 10 0 00 031203 		ER3	AC,SN		;FSC NRSHRT FAILED
  3856	033722	321 12 0 00 033715 		JUMPL	AC+2,.-5	;LOOP ON ERROR SWITCH
  3857
DAKCA	PDP-10 KA10 ADVANCED INSTRUCTION DIAGNOSTIC #1, VER 0,2	MACRO %52(537) 12:25 21-JAN-77 PAGE 56
DAKCAM	MAC	21-JAN-77 11:41		PART I.E-GEN TEST-FSC,FAD,FSB AND UFA                                              SEQ 0106

  3858					;TEST FSC
  3859					;-NR NORMAL
  3860					;AR=200200000000
  3861					;SCALE=1,2,3
  3862					;RESULTANT EXPONENT=200,201,202
  3863
  3864			000007			AC=7
  3865						SAVEAC	(1,1)^
  3866	033723	201 11 0 00 033723 		MOVEI	AC+2,.
  3867	033724	202 11 0 00 030051 		MOVEM	AC+2,TESTPC	;SETUP SUBTEST PC
  3868	033725	201 11 0 00 000011 		MOVEI	AC+2,<AC+2>&17	;INFORM ERROR ROUTINE WHICH
  3869	033726	202 11 0 00 040244 		MOVEM	AC+2,ERRLOP#	;AC IS USED FOR ITERATION^
  3870
  3871			031300		SN=31300
  3872			177000			XX=177000
  3873			000000			ZZ=0
  3874
  3875							;TEST FSC-NR NORMAL
  3876					O31300:	REPEAT	^D3,<
  3877					SN=SN+1
  3878						XX=XX+1000
  3879						ZZ=ZZ+1
  3880						MOVSI	AC-2,400+XX	;SETUP FOR COMPARISON
  3881						MOVSI	AC,200200	;SETUP AC
  3882						FSC	AC,ZZ		;RESCALE
  3883						CAME	AC,AC-2		;TEST RESULT
  3884						ER3	AC,SN		;FSC-NR NORMAL FAILED
  3885						JUMPL	AC+2,.-5	;LOOP ON ERROR SWITCH
  3886					>
  3887
  3888			031301		SN=SN+1
  3889			200000			XX=XX+1000
  3890			000001			ZZ=ZZ+1
  3891	033727	205 05 0 00 200400 		MOVSI	AC-2,400+XX	;SETUP FOR COMPARISON
  3892	033730	205 07 0 00 200200 		MOVSI	AC,200200	;SETUP AC
  3893	033731	132 07 0 00 000001 		FSC	AC,ZZ		;RESCALE
  3894	033732	312 07 0 00 000005 		CAME	AC,AC-2		;TEST RESULT
  3895	033733	003 07 0 00 031301 		ER3	AC,SN		;FSC-NR NORMAL FAILED
  3896	033734	321 11 0 00 033727 		JUMPL	AC+2,.-5	;LOOP ON ERROR SWITCH
  3897
  3898
  3899			031302		SN=SN+1
  3900			201000			XX=XX+1000
  3901			000002			ZZ=ZZ+1
  3902	033735	205 05 0 00 201400 		MOVSI	AC-2,400+XX	;SETUP FOR COMPARISON
  3903	033736	205 07 0 00 200200 		MOVSI	AC,200200	;SETUP AC
  3904	033737	132 07 0 00 000002 		FSC	AC,ZZ		;RESCALE
  3905	033740	312 07 0 00 000005 		CAME	AC,AC-2		;TEST RESULT
  3906	033741	003 07 0 00 031302 		ER3	AC,SN		;FSC-NR NORMAL FAILED
  3907	033742	321 11 0 00 033735 		JUMPL	AC+2,.-5	;LOOP ON ERROR SWITCH
  3908
  3909
  3910			031303		SN=SN+1
  3911			202000			XX=XX+1000
  3912			000003			ZZ=ZZ+1
DAKCA	PDP-10 KA10 ADVANCED INSTRUCTION DIAGNOSTIC #1, VER 0,2	MACRO %52(537) 12:25 21-JAN-77 PAGE 56-1
DAKCAM	MAC	21-JAN-77 11:41		PART I.E-GEN TEST-FSC,FAD,FSB AND UFA                                              SEQ 0107

  3913	033743	205 05 0 00 202400 		MOVSI	AC-2,400+XX	;SETUP FOR COMPARISON
  3914	033744	205 07 0 00 200200 		MOVSI	AC,200200	;SETUP AC
  3915	033745	132 07 0 00 000003 		FSC	AC,ZZ		;RESCALE
  3916	033746	312 07 0 00 000005 		CAME	AC,AC-2		;TEST RESULT
  3917	033747	003 07 0 00 031303 		ER3	AC,SN		;FSC-NR NORMAL FAILED
  3918	033750	321 11 0 00 033743 		JUMPL	AC+2,.-5	;LOOP ON ERROR SWITCH
  3919
DAKCA	PDP-10 KA10 ADVANCED INSTRUCTION DIAGNOSTIC #1, VER 0,2	MACRO %52(537) 12:25 21-JAN-77 PAGE 57
DAKCAM	MAC	21-JAN-77 11:41		PART I.E-GEN TEST-FSC,FAD,FSB AND UFA                                              SEQ 0108

  3920					;TEST FSC
  3921					;-(NOT) NRSHRT COND
  3922					;TESTING AD9(1) AND AD9-35=0)
  3923					;EXP=400
  3924					;MANTISSA=400,200,100,40,20 ETC
  3925					;SCALE=0
  3926					;RESULTANT AC SHOULD=ORIGINAL
  3927
  3928			000006			AC=6
  3929						SAVEAC	(1,1)^
  3930	033751	201 10 0 00 033751 		MOVEI	AC+2,.
  3931	033752	202 10 0 00 030051 		MOVEM	AC+2,TESTPC	;SETUP SUBTEST PC
  3932	033753	201 10 0 00 000010 		MOVEI	AC+2,<AC+2>&17	;INFORM ERROR ROUTINE WHICH
  3933	033754	202 10 0 00 040244 		MOVEM	AC+2,ERRLOP#	;AC IS USED FOR ITERATION^
  3934
  3935			031400		SN=31400
  3936			001000			ZZ=1000
  3937
  3938							;TEST BITS 9-17(1)
  3939					O31400:	REPEAT	^D9,<
  3940					SN=SN+1
  3941						ZZ=ZZ/2
  3942						MOVSI	AC-2,400000+ZZ	;SETUP FOR COMPARISON
  3943						MOVSI	AC,400000+ZZ	;SETUP AC
  3944						FSC	AC,		;RESCALE
  3945						CAME	AC,AC-2		;TEST RESULT
  3946						ER3	AC,SN		;NRSHRT ASSERTED
  3947						JUMPL	AC+2,.-5	;LOOP ON ERROR SWITCH
  3948					>
  3949
  3950			031401		SN=SN+1
  3951			000400			ZZ=ZZ/2
  3952	033755	205 04 0 00 400400 		MOVSI	AC-2,400000+ZZ	;SETUP FOR COMPARISON
  3953	033756	205 06 0 00 400400 		MOVSI	AC,400000+ZZ	;SETUP AC
  3954	033757	132 06 0 00 000000 		FSC	AC,		;RESCALE
  3955	033760	312 06 0 00 000004 		CAME	AC,AC-2		;TEST RESULT
  3956	033761	003 06 0 00 031401 		ER3	AC,SN		;NRSHRT ASSERTED
  3957	033762	321 10 0 00 033755 		JUMPL	AC+2,.-5	;LOOP ON ERROR SWITCH
  3958
  3959
  3960			031402		SN=SN+1
  3961			000200			ZZ=ZZ/2
  3962	033763	205 04 0 00 400200 		MOVSI	AC-2,400000+ZZ	;SETUP FOR COMPARISON
  3963	033764	205 06 0 00 400200 		MOVSI	AC,400000+ZZ	;SETUP AC
  3964	033765	132 06 0 00 000000 		FSC	AC,		;RESCALE
  3965	033766	312 06 0 00 000004 		CAME	AC,AC-2		;TEST RESULT
  3966	033767	003 06 0 00 031402 		ER3	AC,SN		;NRSHRT ASSERTED
  3967	033770	321 10 0 00 033763 		JUMPL	AC+2,.-5	;LOOP ON ERROR SWITCH
  3968
  3969
  3970			031403		SN=SN+1
  3971			000100			ZZ=ZZ/2
  3972	033771	205 04 0 00 400100 		MOVSI	AC-2,400000+ZZ	;SETUP FOR COMPARISON
  3973	033772	205 06 0 00 400100 		MOVSI	AC,400000+ZZ	;SETUP AC
  3974	033773	132 06 0 00 000000 		FSC	AC,		;RESCALE
DAKCA	PDP-10 KA10 ADVANCED INSTRUCTION DIAGNOSTIC #1, VER 0,2	MACRO %52(537) 12:25 21-JAN-77 PAGE 57-1
DAKCAM	MAC	21-JAN-77 11:41		PART I.E-GEN TEST-FSC,FAD,FSB AND UFA                                              SEQ 0109

  3975	033774	312 06 0 00 000004 		CAME	AC,AC-2		;TEST RESULT
  3976	033775	003 06 0 00 031403 		ER3	AC,SN		;NRSHRT ASSERTED
  3977	033776	321 10 0 00 033771 		JUMPL	AC+2,.-5	;LOOP ON ERROR SWITCH
  3978
  3979
  3980			031404		SN=SN+1
  3981			000040			ZZ=ZZ/2
  3982	033777	205 04 0 00 400040 		MOVSI	AC-2,400000+ZZ	;SETUP FOR COMPARISON
  3983	034000	205 06 0 00 400040 		MOVSI	AC,400000+ZZ	;SETUP AC
  3984	034001	132 06 0 00 000000 		FSC	AC,		;RESCALE
  3985	034002	312 06 0 00 000004 		CAME	AC,AC-2		;TEST RESULT
  3986	034003	003 06 0 00 031404 		ER3	AC,SN		;NRSHRT ASSERTED
  3987	034004	321 10 0 00 033777 		JUMPL	AC+2,.-5	;LOOP ON ERROR SWITCH
  3988
  3989
  3990			031405		SN=SN+1
  3991			000020			ZZ=ZZ/2
  3992	034005	205 04 0 00 400020 		MOVSI	AC-2,400000+ZZ	;SETUP FOR COMPARISON
  3993	034006	205 06 0 00 400020 		MOVSI	AC,400000+ZZ	;SETUP AC
  3994	034007	132 06 0 00 000000 		FSC	AC,		;RESCALE
  3995	034010	312 06 0 00 000004 		CAME	AC,AC-2		;TEST RESULT
  3996	034011	003 06 0 00 031405 		ER3	AC,SN		;NRSHRT ASSERTED
  3997	034012	321 10 0 00 034005 		JUMPL	AC+2,.-5	;LOOP ON ERROR SWITCH
  3998
  3999
  4000			031406		SN=SN+1
  4001			000010			ZZ=ZZ/2
  4002	034013	205 04 0 00 400010 		MOVSI	AC-2,400000+ZZ	;SETUP FOR COMPARISON
  4003	034014	205 06 0 00 400010 		MOVSI	AC,400000+ZZ	;SETUP AC
  4004	034015	132 06 0 00 000000 		FSC	AC,		;RESCALE
  4005	034016	312 06 0 00 000004 		CAME	AC,AC-2		;TEST RESULT
  4006	034017	003 06 0 00 031406 		ER3	AC,SN		;NRSHRT ASSERTED
  4007	034020	321 10 0 00 034013 		JUMPL	AC+2,.-5	;LOOP ON ERROR SWITCH
  4008
  4009
  4010			031407		SN=SN+1
  4011			000004			ZZ=ZZ/2
  4012	034021	205 04 0 00 400004 		MOVSI	AC-2,400000+ZZ	;SETUP FOR COMPARISON
  4013	034022	205 06 0 00 400004 		MOVSI	AC,400000+ZZ	;SETUP AC
  4014	034023	132 06 0 00 000000 		FSC	AC,		;RESCALE
  4015	034024	312 06 0 00 000004 		CAME	AC,AC-2		;TEST RESULT
  4016	034025	003 06 0 00 031407 		ER3	AC,SN		;NRSHRT ASSERTED
  4017	034026	321 10 0 00 034021 		JUMPL	AC+2,.-5	;LOOP ON ERROR SWITCH
  4018
  4019
  4020			031410		SN=SN+1
  4021			000002			ZZ=ZZ/2
  4022	034027	205 04 0 00 400002 		MOVSI	AC-2,400000+ZZ	;SETUP FOR COMPARISON
  4023	034030	205 06 0 00 400002 		MOVSI	AC,400000+ZZ	;SETUP AC
  4024	034031	132 06 0 00 000000 		FSC	AC,		;RESCALE
  4025	034032	312 06 0 00 000004 		CAME	AC,AC-2		;TEST RESULT
  4026	034033	003 06 0 00 031410 		ER3	AC,SN		;NRSHRT ASSERTED
  4027	034034	321 10 0 00 034027 		JUMPL	AC+2,.-5	;LOOP ON ERROR SWITCH
  4028
  4029
DAKCA	PDP-10 KA10 ADVANCED INSTRUCTION DIAGNOSTIC #1, VER 0,2	MACRO %52(537) 12:25 21-JAN-77 PAGE 57-2
DAKCAM	MAC	21-JAN-77 11:41		PART I.E-GEN TEST-FSC,FAD,FSB AND UFA                                              SEQ 0110

  4030			031411		SN=SN+1
  4031			000001			ZZ=ZZ/2
  4032	034035	205 04 0 00 400001 		MOVSI	AC-2,400000+ZZ	;SETUP FOR COMPARISON
  4033	034036	205 06 0 00 400001 		MOVSI	AC,400000+ZZ	;SETUP AC
  4034	034037	132 06 0 00 000000 		FSC	AC,		;RESCALE
  4035	034040	312 06 0 00 000004 		CAME	AC,AC-2		;TEST RESULT
  4036	034041	003 06 0 00 031411 		ER3	AC,SN		;NRSHRT ASSERTED
  4037	034042	321 10 0 00 034035 		JUMPL	AC+2,.-5	;LOOP ON ERROR SWITCH
  4038
  4039					PAGE
DAKCA	PDP-10 KA10 ADVANCED INSTRUCTION DIAGNOSTIC #1, VER 0,2	MACRO %52(537) 12:25 21-JAN-77 PAGE 57-3
DAKCAM	MAC	21-JAN-77 11:41		PART I.E-GEN TEST-FSC,FAD,FSB AND UFA                                              SEQ 0111

  4040			031500		SN=31500
  4041			000000			ZZ=0
  4042							;TEST BITS 18-35(1)
  4043					O31500:	REPEAT	^D18,<
  4044					SN=SN+1
  4045						ZZ=ZZ/2
  4046						IFE	ZZ,<ZZ=400000>
  4047						HRLI	AC-2,400000	;SETUP AC-2
  4048						HRRI	AC-2,ZZ		;FOR COMPARISON
  4049						HRLI	AC,400000	;SETUP
  4050						HRRI	AC,ZZ		;AC
  4051						FSC	AC,		;RESCALE
  4052						CAME	AC,AC-2		;TEST RESULT
  4053						ER3	AC,SN		;NRSHRT ASSERTED
  4054						JUMPL	AC+2,.-7	;LOOP ON ERROR SWITCH
  4055					>
  4056
  4057			031501		SN=SN+1
  4058			000000			ZZ=ZZ/2
  4059			400000			IFE	ZZ,<ZZ=400000>
  4060	034043	505 04 0 00 400000 		HRLI	AC-2,400000	;SETUP AC-2
  4061	034044	541 04 0 00 400000 		HRRI	AC-2,ZZ		;FOR COMPARISON
  4062	034045	505 06 0 00 400000 		HRLI	AC,400000	;SETUP
  4063	034046	541 06 0 00 400000 		HRRI	AC,ZZ		;AC
  4064	034047	132 06 0 00 000000 		FSC	AC,		;RESCALE
  4065	034050	312 06 0 00 000004 		CAME	AC,AC-2		;TEST RESULT
  4066	034051	003 06 0 00 031501 		ER3	AC,SN		;NRSHRT ASSERTED
  4067	034052	321 10 0 00 034043 		JUMPL	AC+2,.-7	;LOOP ON ERROR SWITCH
  4068
  4069
  4070			031502		SN=SN+1
  4071			200000			ZZ=ZZ/2
  4072						IFE	ZZ,<ZZ=400000>
  4073	034053	505 04 0 00 400000 		HRLI	AC-2,400000	;SETUP AC-2
  4074	034054	541 04 0 00 200000 		HRRI	AC-2,ZZ		;FOR COMPARISON
  4075	034055	505 06 0 00 400000 		HRLI	AC,400000	;SETUP
  4076	034056	541 06 0 00 200000 		HRRI	AC,ZZ		;AC
  4077	034057	132 06 0 00 000000 		FSC	AC,		;RESCALE
  4078	034060	312 06 0 00 000004 		CAME	AC,AC-2		;TEST RESULT
  4079	034061	003 06 0 00 031502 		ER3	AC,SN		;NRSHRT ASSERTED
  4080	034062	321 10 0 00 034053 		JUMPL	AC+2,.-7	;LOOP ON ERROR SWITCH
  4081
  4082
  4083			031503		SN=SN+1
  4084			100000			ZZ=ZZ/2
  4085						IFE	ZZ,<ZZ=400000>
  4086	034063	505 04 0 00 400000 		HRLI	AC-2,400000	;SETUP AC-2
  4087	034064	541 04 0 00 100000 		HRRI	AC-2,ZZ		;FOR COMPARISON
  4088	034065	505 06 0 00 400000 		HRLI	AC,400000	;SETUP
  4089	034066	541 06 0 00 100000 		HRRI	AC,ZZ		;AC
  4090	034067	132 06 0 00 000000 		FSC	AC,		;RESCALE
  4091	034070	312 06 0 00 000004 		CAME	AC,AC-2		;TEST RESULT
  4092	034071	003 06 0 00 031503 		ER3	AC,SN		;NRSHRT ASSERTED
  4093	034072	321 10 0 00 034063 		JUMPL	AC+2,.-7	;LOOP ON ERROR SWITCH
  4094
DAKCA	PDP-10 KA10 ADVANCED INSTRUCTION DIAGNOSTIC #1, VER 0,2	MACRO %52(537) 12:25 21-JAN-77 PAGE 57-4
DAKCAM	MAC	21-JAN-77 11:41		PART I.E-GEN TEST-FSC,FAD,FSB AND UFA                                              SEQ 0112

  4095
  4096			031504		SN=SN+1
  4097			040000			ZZ=ZZ/2
  4098						IFE	ZZ,<ZZ=400000>
  4099	034073	505 04 0 00 400000 		HRLI	AC-2,400000	;SETUP AC-2
  4100	034074	541 04 0 00 040000 		HRRI	AC-2,ZZ		;FOR COMPARISON
  4101	034075	505 06 0 00 400000 		HRLI	AC,400000	;SETUP
  4102	034076	541 06 0 00 040000 		HRRI	AC,ZZ		;AC
  4103	034077	132 06 0 00 000000 		FSC	AC,		;RESCALE
  4104	034100	312 06 0 00 000004 		CAME	AC,AC-2		;TEST RESULT
  4105	034101	003 06 0 00 031504 		ER3	AC,SN		;NRSHRT ASSERTED
  4106	034102	321 10 0 00 034073 		JUMPL	AC+2,.-7	;LOOP ON ERROR SWITCH
  4107
  4108
  4109			031505		SN=SN+1
  4110			020000			ZZ=ZZ/2
  4111						IFE	ZZ,<ZZ=400000>
  4112	034103	505 04 0 00 400000 		HRLI	AC-2,400000	;SETUP AC-2
  4113	034104	541 04 0 00 020000 		HRRI	AC-2,ZZ		;FOR COMPARISON
  4114	034105	505 06 0 00 400000 		HRLI	AC,400000	;SETUP
  4115	034106	541 06 0 00 020000 		HRRI	AC,ZZ		;AC
  4116	034107	132 06 0 00 000000 		FSC	AC,		;RESCALE
  4117	034110	312 06 0 00 000004 		CAME	AC,AC-2		;TEST RESULT
  4118	034111	003 06 0 00 031505 		ER3	AC,SN		;NRSHRT ASSERTED
  4119	034112	321 10 0 00 034103 		JUMPL	AC+2,.-7	;LOOP ON ERROR SWITCH
  4120
  4121
  4122			031506		SN=SN+1
  4123			010000			ZZ=ZZ/2
  4124						IFE	ZZ,<ZZ=400000>
  4125	034113	505 04 0 00 400000 		HRLI	AC-2,400000	;SETUP AC-2
  4126	034114	541 04 0 00 010000 		HRRI	AC-2,ZZ		;FOR COMPARISON
  4127	034115	505 06 0 00 400000 		HRLI	AC,400000	;SETUP
  4128	034116	541 06 0 00 010000 		HRRI	AC,ZZ		;AC
  4129	034117	132 06 0 00 000000 		FSC	AC,		;RESCALE
  4130	034120	312 06 0 00 000004 		CAME	AC,AC-2		;TEST RESULT
  4131	034121	003 06 0 00 031506 		ER3	AC,SN		;NRSHRT ASSERTED
  4132	034122	321 10 0 00 034113 		JUMPL	AC+2,.-7	;LOOP ON ERROR SWITCH
  4133
  4134
  4135			031507		SN=SN+1
  4136			004000			ZZ=ZZ/2
  4137						IFE	ZZ,<ZZ=400000>
  4138	034123	505 04 0 00 400000 		HRLI	AC-2,400000	;SETUP AC-2
  4139	034124	541 04 0 00 004000 		HRRI	AC-2,ZZ		;FOR COMPARISON
  4140	034125	505 06 0 00 400000 		HRLI	AC,400000	;SETUP
  4141	034126	541 06 0 00 004000 		HRRI	AC,ZZ		;AC
  4142	034127	132 06 0 00 000000 		FSC	AC,		;RESCALE
  4143	034130	312 06 0 00 000004 		CAME	AC,AC-2		;TEST RESULT
  4144	034131	003 06 0 00 031507 		ER3	AC,SN		;NRSHRT ASSERTED
  4145	034132	321 10 0 00 034123 		JUMPL	AC+2,.-7	;LOOP ON ERROR SWITCH
  4146
  4147
  4148			031510		SN=SN+1
  4149			002000			ZZ=ZZ/2
DAKCA	PDP-10 KA10 ADVANCED INSTRUCTION DIAGNOSTIC #1, VER 0,2	MACRO %52(537) 12:25 21-JAN-77 PAGE 57-5
DAKCAM	MAC	21-JAN-77 11:41		PART I.E-GEN TEST-FSC,FAD,FSB AND UFA                                              SEQ 0113

  4150						IFE	ZZ,<ZZ=400000>
  4151	034133	505 04 0 00 400000 		HRLI	AC-2,400000	;SETUP AC-2
  4152	034134	541 04 0 00 002000 		HRRI	AC-2,ZZ		;FOR COMPARISON
  4153	034135	505 06 0 00 400000 		HRLI	AC,400000	;SETUP
  4154	034136	541 06 0 00 002000 		HRRI	AC,ZZ		;AC
  4155	034137	132 06 0 00 000000 		FSC	AC,		;RESCALE
  4156	034140	312 06 0 00 000004 		CAME	AC,AC-2		;TEST RESULT
  4157	034141	003 06 0 00 031510 		ER3	AC,SN		;NRSHRT ASSERTED
  4158	034142	321 10 0 00 034133 		JUMPL	AC+2,.-7	;LOOP ON ERROR SWITCH
  4159
  4160
  4161			031511		SN=SN+1
  4162			001000			ZZ=ZZ/2
  4163						IFE	ZZ,<ZZ=400000>
  4164	034143	505 04 0 00 400000 		HRLI	AC-2,400000	;SETUP AC-2
  4165	034144	541 04 0 00 001000 		HRRI	AC-2,ZZ		;FOR COMPARISON
  4166	034145	505 06 0 00 400000 		HRLI	AC,400000	;SETUP
  4167	034146	541 06 0 00 001000 		HRRI	AC,ZZ		;AC
  4168	034147	132 06 0 00 000000 		FSC	AC,		;RESCALE
  4169	034150	312 06 0 00 000004 		CAME	AC,AC-2		;TEST RESULT
  4170	034151	003 06 0 00 031511 		ER3	AC,SN		;NRSHRT ASSERTED
  4171	034152	321 10 0 00 034143 		JUMPL	AC+2,.-7	;LOOP ON ERROR SWITCH
  4172
  4173
  4174			031512		SN=SN+1
  4175			000400			ZZ=ZZ/2
  4176						IFE	ZZ,<ZZ=400000>
  4177	034153	505 04 0 00 400000 		HRLI	AC-2,400000	;SETUP AC-2
  4178	034154	541 04 0 00 000400 		HRRI	AC-2,ZZ		;FOR COMPARISON
  4179	034155	505 06 0 00 400000 		HRLI	AC,400000	;SETUP
  4180	034156	541 06 0 00 000400 		HRRI	AC,ZZ		;AC
  4181	034157	132 06 0 00 000000 		FSC	AC,		;RESCALE
  4182	034160	312 06 0 00 000004 		CAME	AC,AC-2		;TEST RESULT
  4183	034161	003 06 0 00 031512 		ER3	AC,SN		;NRSHRT ASSERTED
  4184	034162	321 10 0 00 034153 		JUMPL	AC+2,.-7	;LOOP ON ERROR SWITCH
  4185
  4186
  4187			031513		SN=SN+1
  4188			000200			ZZ=ZZ/2
  4189						IFE	ZZ,<ZZ=400000>
  4190	034163	505 04 0 00 400000 		HRLI	AC-2,400000	;SETUP AC-2
  4191	034164	541 04 0 00 000200 		HRRI	AC-2,ZZ		;FOR COMPARISON
  4192	034165	505 06 0 00 400000 		HRLI	AC,400000	;SETUP
  4193	034166	541 06 0 00 000200 		HRRI	AC,ZZ		;AC
  4194	034167	132 06 0 00 000000 		FSC	AC,		;RESCALE
  4195	034170	312 06 0 00 000004 		CAME	AC,AC-2		;TEST RESULT
  4196	034171	003 06 0 00 031513 		ER3	AC,SN		;NRSHRT ASSERTED
  4197	034172	321 10 0 00 034163 		JUMPL	AC+2,.-7	;LOOP ON ERROR SWITCH
  4198
  4199
  4200			031514		SN=SN+1
  4201			000100			ZZ=ZZ/2
  4202						IFE	ZZ,<ZZ=400000>
  4203	034173	505 04 0 00 400000 		HRLI	AC-2,400000	;SETUP AC-2
  4204	034174	541 04 0 00 000100 		HRRI	AC-2,ZZ		;FOR COMPARISON
DAKCA	PDP-10 KA10 ADVANCED INSTRUCTION DIAGNOSTIC #1, VER 0,2	MACRO %52(537) 12:25 21-JAN-77 PAGE 57-6
DAKCAM	MAC	21-JAN-77 11:41		PART I.E-GEN TEST-FSC,FAD,FSB AND UFA                                              SEQ 0114

  4205	034175	505 06 0 00 400000 		HRLI	AC,400000	;SETUP
  4206	034176	541 06 0 00 000100 		HRRI	AC,ZZ		;AC
  4207	034177	132 06 0 00 000000 		FSC	AC,		;RESCALE
  4208	034200	312 06 0 00 000004 		CAME	AC,AC-2		;TEST RESULT
  4209	034201	003 06 0 00 031514 		ER3	AC,SN		;NRSHRT ASSERTED
  4210	034202	321 10 0 00 034173 		JUMPL	AC+2,.-7	;LOOP ON ERROR SWITCH
  4211
  4212
  4213			031515		SN=SN+1
  4214			000040			ZZ=ZZ/2
  4215						IFE	ZZ,<ZZ=400000>
  4216	034203	505 04 0 00 400000 		HRLI	AC-2,400000	;SETUP AC-2
  4217	034204	541 04 0 00 000040 		HRRI	AC-2,ZZ		;FOR COMPARISON
  4218	034205	505 06 0 00 400000 		HRLI	AC,400000	;SETUP
  4219	034206	541 06 0 00 000040 		HRRI	AC,ZZ		;AC
  4220	034207	132 06 0 00 000000 		FSC	AC,		;RESCALE
  4221	034210	312 06 0 00 000004 		CAME	AC,AC-2		;TEST RESULT
  4222	034211	003 06 0 00 031515 		ER3	AC,SN		;NRSHRT ASSERTED
  4223	034212	321 10 0 00 034203 		JUMPL	AC+2,.-7	;LOOP ON ERROR SWITCH
  4224
  4225
  4226			031516		SN=SN+1
  4227			000020			ZZ=ZZ/2
  4228						IFE	ZZ,<ZZ=400000>
  4229	034213	505 04 0 00 400000 		HRLI	AC-2,400000	;SETUP AC-2
  4230	034214	541 04 0 00 000020 		HRRI	AC-2,ZZ		;FOR COMPARISON
  4231	034215	505 06 0 00 400000 		HRLI	AC,400000	;SETUP
  4232	034216	541 06 0 00 000020 		HRRI	AC,ZZ		;AC
  4233	034217	132 06 0 00 000000 		FSC	AC,		;RESCALE
  4234	034220	312 06 0 00 000004 		CAME	AC,AC-2		;TEST RESULT
  4235	034221	003 06 0 00 031516 		ER3	AC,SN		;NRSHRT ASSERTED
  4236	034222	321 10 0 00 034213 		JUMPL	AC+2,.-7	;LOOP ON ERROR SWITCH
  4237
  4238
  4239			031517		SN=SN+1
  4240			000010			ZZ=ZZ/2
  4241						IFE	ZZ,<ZZ=400000>
  4242	034223	505 04 0 00 400000 		HRLI	AC-2,400000	;SETUP AC-2
  4243	034224	541 04 0 00 000010 		HRRI	AC-2,ZZ		;FOR COMPARISON
  4244	034225	505 06 0 00 400000 		HRLI	AC,400000	;SETUP
  4245	034226	541 06 0 00 000010 		HRRI	AC,ZZ		;AC
  4246	034227	132 06 0 00 000000 		FSC	AC,		;RESCALE
  4247	034230	312 06 0 00 000004 		CAME	AC,AC-2		;TEST RESULT
  4248	034231	003 06 0 00 031517 		ER3	AC,SN		;NRSHRT ASSERTED
  4249	034232	321 10 0 00 034223 		JUMPL	AC+2,.-7	;LOOP ON ERROR SWITCH
  4250
  4251
  4252			031520		SN=SN+1
  4253			000004			ZZ=ZZ/2
  4254						IFE	ZZ,<ZZ=400000>
  4255	034233	505 04 0 00 400000 		HRLI	AC-2,400000	;SETUP AC-2
  4256	034234	541 04 0 00 000004 		HRRI	AC-2,ZZ		;FOR COMPARISON
  4257	034235	505 06 0 00 400000 		HRLI	AC,400000	;SETUP
  4258	034236	541 06 0 00 000004 		HRRI	AC,ZZ		;AC
  4259	034237	132 06 0 00 000000 		FSC	AC,		;RESCALE
DAKCA	PDP-10 KA10 ADVANCED INSTRUCTION DIAGNOSTIC #1, VER 0,2	MACRO %52(537) 12:25 21-JAN-77 PAGE 57-7
DAKCAM	MAC	21-JAN-77 11:41		PART I.E-GEN TEST-FSC,FAD,FSB AND UFA                                              SEQ 0115

  4260	034240	312 06 0 00 000004 		CAME	AC,AC-2		;TEST RESULT
  4261	034241	003 06 0 00 031520 		ER3	AC,SN		;NRSHRT ASSERTED
  4262	034242	321 10 0 00 034233 		JUMPL	AC+2,.-7	;LOOP ON ERROR SWITCH
  4263
  4264
  4265			031521		SN=SN+1
  4266			000002			ZZ=ZZ/2
  4267						IFE	ZZ,<ZZ=400000>
  4268	034243	505 04 0 00 400000 		HRLI	AC-2,400000	;SETUP AC-2
  4269	034244	541 04 0 00 000002 		HRRI	AC-2,ZZ		;FOR COMPARISON
  4270	034245	505 06 0 00 400000 		HRLI	AC,400000	;SETUP
  4271	034246	541 06 0 00 000002 		HRRI	AC,ZZ		;AC
  4272	034247	132 06 0 00 000000 		FSC	AC,		;RESCALE
  4273	034250	312 06 0 00 000004 		CAME	AC,AC-2		;TEST RESULT
  4274	034251	003 06 0 00 031521 		ER3	AC,SN		;NRSHRT ASSERTED
  4275	034252	321 10 0 00 034243 		JUMPL	AC+2,.-7	;LOOP ON ERROR SWITCH
  4276
  4277
  4278			031522		SN=SN+1
  4279			000001			ZZ=ZZ/2
  4280						IFE	ZZ,<ZZ=400000>
  4281	034253	505 04 0 00 400000 		HRLI	AC-2,400000	;SETUP AC-2
  4282	034254	541 04 0 00 000001 		HRRI	AC-2,ZZ		;FOR COMPARISON
  4283	034255	505 06 0 00 400000 		HRLI	AC,400000	;SETUP
  4284	034256	541 06 0 00 000001 		HRRI	AC,ZZ		;AC
  4285	034257	132 06 0 00 000000 		FSC	AC,		;RESCALE
  4286	034260	312 06 0 00 000004 		CAME	AC,AC-2		;TEST RESULT
  4287	034261	003 06 0 00 031522 		ER3	AC,SN		;NRSHRT ASSERTED
  4288	034262	321 10 0 00 034253 		JUMPL	AC+2,.-7	;LOOP ON ERROR SWITCH
  4289
DAKCA	PDP-10 KA10 ADVANCED INSTRUCTION DIAGNOSTIC #1, VER 0,2	MACRO %52(537) 12:25 21-JAN-77 PAGE 58
DAKCAM	MAC	21-JAN-77 11:41		PART I.E-GEN TEST-FSC,FAD,FSB AND UFA                                              SEQ 0116

  4290					;TEST FAD
  4291					;TEST TWO POSITIVES
  4292					;AR=200200,ZZ (UNNORMALIZED)
  4293					;BR=200200,ZZ (UNNORMALIZED)
  4294					;SUM=200400,ZZ+ZZ
  4295
  4296			000014			AC=14
  4297						SAVEAC	(1,1)^
  4298	034263	201 16 0 00 034263 		MOVEI	AC+2,.
  4299	034264	202 16 0 00 030051 		MOVEM	AC+2,TESTPC	;SETUP SUBTEST PC
  4300	034265	201 16 0 00 000016 		MOVEI	AC+2,<AC+2>&17	;INFORM ERROR ROUTINE WHICH
  4301	034266	202 16 0 00 040244 		MOVEM	AC+2,ERRLOP#	;AC IS USED FOR ITERATION^
  4302
  4303			031600		SN=31600
  4304			000001			XX=1
  4305			000000			ZZ=0
  4306
  4307							;TEST FAD
  4308					O31600:	REPEAT	^D10,<
  4309					SN=SN+1
  4310						XX=XX+XX
  4311						ZZ=ZZ+ZZ
  4312						IFE	ZZ,<ZZ=1>
  4313						HRLI	AC-2,200400	;SETUP AC-2
  4314						HRRI	AC-2,XX		;FOR COMPARISON
  4315						HRLI	AC,200200	;SETUP
  4316						HRRI	AC,ZZ		;AC
  4317						MOVEM	AC,AC-1		;SETUP BR
  4318						FAD	AC,AC-1		;C(AC)+C(E)
  4319						CAME	AC,AC-2		;TEST SUM
  4320						ER3	AC,SN		;FAD FAILED
  4321						JUMPL	AC+2,.-^D8	;LOOP ON ERROR SWITCH
  4322					>
  4323
  4324			031601		SN=SN+1
  4325			000002			XX=XX+XX
  4326			000000			ZZ=ZZ+ZZ
  4327			000001			IFE	ZZ,<ZZ=1>
  4328	034267	505 12 0 00 200400 		HRLI	AC-2,200400	;SETUP AC-2
  4329	034270	541 12 0 00 000002 		HRRI	AC-2,XX		;FOR COMPARISON
  4330	034271	505 14 0 00 200200 		HRLI	AC,200200	;SETUP
  4331	034272	541 14 0 00 000001 		HRRI	AC,ZZ		;AC
  4332	034273	202 14 0 00 000013 		MOVEM	AC,AC-1		;SETUP BR
  4333	034274	140 14 0 00 000013 		FAD	AC,AC-1		;C(AC)+C(E)
  4334	034275	312 14 0 00 000012 		CAME	AC,AC-2		;TEST SUM
  4335	034276	003 14 0 00 031601 		ER3	AC,SN		;FAD FAILED
  4336	034277	321 16 0 00 034267 		JUMPL	AC+2,.-^D8	;LOOP ON ERROR SWITCH
  4337
  4338
  4339			031602		SN=SN+1
  4340			000004			XX=XX+XX
  4341			000002			ZZ=ZZ+ZZ
  4342						IFE	ZZ,<ZZ=1>
  4343	034300	505 12 0 00 200400 		HRLI	AC-2,200400	;SETUP AC-2
  4344	034301	541 12 0 00 000004 		HRRI	AC-2,XX		;FOR COMPARISON
DAKCA	PDP-10 KA10 ADVANCED INSTRUCTION DIAGNOSTIC #1, VER 0,2	MACRO %52(537) 12:25 21-JAN-77 PAGE 58-1
DAKCAM	MAC	21-JAN-77 11:41		PART I.E-GEN TEST-FSC,FAD,FSB AND UFA                                              SEQ 0117

  4345	034302	505 14 0 00 200200 		HRLI	AC,200200	;SETUP
  4346	034303	541 14 0 00 000002 		HRRI	AC,ZZ		;AC
  4347	034304	202 14 0 00 000013 		MOVEM	AC,AC-1		;SETUP BR
  4348	034305	140 14 0 00 000013 		FAD	AC,AC-1		;C(AC)+C(E)
  4349	034306	312 14 0 00 000012 		CAME	AC,AC-2		;TEST SUM
  4350	034307	003 14 0 00 031602 		ER3	AC,SN		;FAD FAILED
  4351	034310	321 16 0 00 034300 		JUMPL	AC+2,.-^D8	;LOOP ON ERROR SWITCH
  4352
  4353
  4354			031603		SN=SN+1
  4355			000010			XX=XX+XX
  4356			000004			ZZ=ZZ+ZZ
  4357						IFE	ZZ,<ZZ=1>
  4358	034311	505 12 0 00 200400 		HRLI	AC-2,200400	;SETUP AC-2
  4359	034312	541 12 0 00 000010 		HRRI	AC-2,XX		;FOR COMPARISON
  4360	034313	505 14 0 00 200200 		HRLI	AC,200200	;SETUP
  4361	034314	541 14 0 00 000004 		HRRI	AC,ZZ		;AC
  4362	034315	202 14 0 00 000013 		MOVEM	AC,AC-1		;SETUP BR
  4363	034316	140 14 0 00 000013 		FAD	AC,AC-1		;C(AC)+C(E)
  4364	034317	312 14 0 00 000012 		CAME	AC,AC-2		;TEST SUM
  4365	034320	003 14 0 00 031603 		ER3	AC,SN		;FAD FAILED
  4366	034321	321 16 0 00 034311 		JUMPL	AC+2,.-^D8	;LOOP ON ERROR SWITCH
  4367
  4368
  4369			031604		SN=SN+1
  4370			000020			XX=XX+XX
  4371			000010			ZZ=ZZ+ZZ
  4372						IFE	ZZ,<ZZ=1>
  4373	034322	505 12 0 00 200400 		HRLI	AC-2,200400	;SETUP AC-2
  4374	034323	541 12 0 00 000020 		HRRI	AC-2,XX		;FOR COMPARISON
  4375	034324	505 14 0 00 200200 		HRLI	AC,200200	;SETUP
  4376	034325	541 14 0 00 000010 		HRRI	AC,ZZ		;AC
  4377	034326	202 14 0 00 000013 		MOVEM	AC,AC-1		;SETUP BR
  4378	034327	140 14 0 00 000013 		FAD	AC,AC-1		;C(AC)+C(E)
  4379	034330	312 14 0 00 000012 		CAME	AC,AC-2		;TEST SUM
  4380	034331	003 14 0 00 031604 		ER3	AC,SN		;FAD FAILED
  4381	034332	321 16 0 00 034322 		JUMPL	AC+2,.-^D8	;LOOP ON ERROR SWITCH
  4382
  4383
  4384			031605		SN=SN+1
  4385			000040			XX=XX+XX
  4386			000020			ZZ=ZZ+ZZ
  4387						IFE	ZZ,<ZZ=1>
  4388	034333	505 12 0 00 200400 		HRLI	AC-2,200400	;SETUP AC-2
  4389	034334	541 12 0 00 000040 		HRRI	AC-2,XX		;FOR COMPARISON
  4390	034335	505 14 0 00 200200 		HRLI	AC,200200	;SETUP
  4391	034336	541 14 0 00 000020 		HRRI	AC,ZZ		;AC
  4392	034337	202 14 0 00 000013 		MOVEM	AC,AC-1		;SETUP BR
  4393	034340	140 14 0 00 000013 		FAD	AC,AC-1		;C(AC)+C(E)
  4394	034341	312 14 0 00 000012 		CAME	AC,AC-2		;TEST SUM
  4395	034342	003 14 0 00 031605 		ER3	AC,SN		;FAD FAILED
  4396	034343	321 16 0 00 034333 		JUMPL	AC+2,.-^D8	;LOOP ON ERROR SWITCH
  4397
  4398
  4399			031606		SN=SN+1
DAKCA	PDP-10 KA10 ADVANCED INSTRUCTION DIAGNOSTIC #1, VER 0,2	MACRO %52(537) 12:25 21-JAN-77 PAGE 58-2
DAKCAM	MAC	21-JAN-77 11:41		PART I.E-GEN TEST-FSC,FAD,FSB AND UFA                                              SEQ 0118

  4400			000100			XX=XX+XX
  4401			000040			ZZ=ZZ+ZZ
  4402						IFE	ZZ,<ZZ=1>
  4403	034344	505 12 0 00 200400 		HRLI	AC-2,200400	;SETUP AC-2
  4404	034345	541 12 0 00 000100 		HRRI	AC-2,XX		;FOR COMPARISON
  4405	034346	505 14 0 00 200200 		HRLI	AC,200200	;SETUP
  4406	034347	541 14 0 00 000040 		HRRI	AC,ZZ		;AC
  4407	034350	202 14 0 00 000013 		MOVEM	AC,AC-1		;SETUP BR
  4408	034351	140 14 0 00 000013 		FAD	AC,AC-1		;C(AC)+C(E)
  4409	034352	312 14 0 00 000012 		CAME	AC,AC-2		;TEST SUM
  4410	034353	003 14 0 00 031606 		ER3	AC,SN		;FAD FAILED
  4411	034354	321 16 0 00 034344 		JUMPL	AC+2,.-^D8	;LOOP ON ERROR SWITCH
  4412
  4413
  4414			031607		SN=SN+1
  4415			000200			XX=XX+XX
  4416			000100			ZZ=ZZ+ZZ
  4417						IFE	ZZ,<ZZ=1>
  4418	034355	505 12 0 00 200400 		HRLI	AC-2,200400	;SETUP AC-2
  4419	034356	541 12 0 00 000200 		HRRI	AC-2,XX		;FOR COMPARISON
  4420	034357	505 14 0 00 200200 		HRLI	AC,200200	;SETUP
  4421	034360	541 14 0 00 000100 		HRRI	AC,ZZ		;AC
  4422	034361	202 14 0 00 000013 		MOVEM	AC,AC-1		;SETUP BR
  4423	034362	140 14 0 00 000013 		FAD	AC,AC-1		;C(AC)+C(E)
  4424	034363	312 14 0 00 000012 		CAME	AC,AC-2		;TEST SUM
  4425	034364	003 14 0 00 031607 		ER3	AC,SN		;FAD FAILED
  4426	034365	321 16 0 00 034355 		JUMPL	AC+2,.-^D8	;LOOP ON ERROR SWITCH
  4427
  4428
  4429			031610		SN=SN+1
  4430			000400			XX=XX+XX
  4431			000200			ZZ=ZZ+ZZ
  4432						IFE	ZZ,<ZZ=1>
  4433	034366	505 12 0 00 200400 		HRLI	AC-2,200400	;SETUP AC-2
  4434	034367	541 12 0 00 000400 		HRRI	AC-2,XX		;FOR COMPARISON
  4435	034370	505 14 0 00 200200 		HRLI	AC,200200	;SETUP
  4436	034371	541 14 0 00 000200 		HRRI	AC,ZZ		;AC
  4437	034372	202 14 0 00 000013 		MOVEM	AC,AC-1		;SETUP BR
  4438	034373	140 14 0 00 000013 		FAD	AC,AC-1		;C(AC)+C(E)
  4439	034374	312 14 0 00 000012 		CAME	AC,AC-2		;TEST SUM
  4440	034375	003 14 0 00 031610 		ER3	AC,SN		;FAD FAILED
  4441	034376	321 16 0 00 034366 		JUMPL	AC+2,.-^D8	;LOOP ON ERROR SWITCH
  4442
  4443
  4444			031611		SN=SN+1
  4445			001000			XX=XX+XX
  4446			000400			ZZ=ZZ+ZZ
  4447						IFE	ZZ,<ZZ=1>
  4448	034377	505 12 0 00 200400 		HRLI	AC-2,200400	;SETUP AC-2
  4449	034400	541 12 0 00 001000 		HRRI	AC-2,XX		;FOR COMPARISON
  4450	034401	505 14 0 00 200200 		HRLI	AC,200200	;SETUP
  4451	034402	541 14 0 00 000400 		HRRI	AC,ZZ		;AC
  4452	034403	202 14 0 00 000013 		MOVEM	AC,AC-1		;SETUP BR
  4453	034404	140 14 0 00 000013 		FAD	AC,AC-1		;C(AC)+C(E)
  4454	034405	312 14 0 00 000012 		CAME	AC,AC-2		;TEST SUM
DAKCA	PDP-10 KA10 ADVANCED INSTRUCTION DIAGNOSTIC #1, VER 0,2	MACRO %52(537) 12:25 21-JAN-77 PAGE 58-3
DAKCAM	MAC	21-JAN-77 11:41		PART I.E-GEN TEST-FSC,FAD,FSB AND UFA                                              SEQ 0119

  4455	034406	003 14 0 00 031611 		ER3	AC,SN		;FAD FAILED
  4456	034407	321 16 0 00 034377 		JUMPL	AC+2,.-^D8	;LOOP ON ERROR SWITCH
  4457
  4458
  4459			031612		SN=SN+1
  4460			002000			XX=XX+XX
  4461			001000			ZZ=ZZ+ZZ
  4462						IFE	ZZ,<ZZ=1>
  4463	034410	505 12 0 00 200400 		HRLI	AC-2,200400	;SETUP AC-2
  4464	034411	541 12 0 00 002000 		HRRI	AC-2,XX		;FOR COMPARISON
  4465	034412	505 14 0 00 200200 		HRLI	AC,200200	;SETUP
  4466	034413	541 14 0 00 001000 		HRRI	AC,ZZ		;AC
  4467	034414	202 14 0 00 000013 		MOVEM	AC,AC-1		;SETUP BR
  4468	034415	140 14 0 00 000013 		FAD	AC,AC-1		;C(AC)+C(E)
  4469	034416	312 14 0 00 000012 		CAME	AC,AC-2		;TEST SUM
  4470	034417	003 14 0 00 031612 		ER3	AC,SN		;FAD FAILED
  4471	034420	321 16 0 00 034410 		JUMPL	AC+2,.-^D8	;LOOP ON ERROR SWITCH
  4472
  4473					PAGE
DAKCA	PDP-10 KA10 ADVANCED INSTRUCTION DIAGNOSTIC #1, VER 0,2	MACRO %52(537) 12:25 21-JAN-77 PAGE 58-4
DAKCAM	MAC	21-JAN-77 11:41		PART I.E-GEN TEST-FSC,FAD,FSB AND UFA                                              SEQ 0120

  4474					;TEST FAD
  4475					;TWO POSITIVES
  4476					;AR=1/4,1/8,1/16,1/32,1/64,1/128
  4477					;BR=201400000000 (+1)
  4478					;SUMS=1 1/4, 1 1/8, 1 1/16, 1 1/32, 1 1/64, 1 1/128
  4479
  4480			000014			AC=14
  4481						SAVEAC	(1,1)^
  4482	034421	201 16 0 00 034421 		MOVEI	AC+2,.
  4483	034422	202 16 0 00 030051 		MOVEM	AC+2,TESTPC	;SETUP SUBTEST PC
  4484	034423	201 16 0 00 000016 		MOVEI	AC+2,<AC+2>&17	;INFORM ERROR ROUTINE WHICH
  4485	034424	202 16 0 00 040244 		MOVEM	AC+2,ERRLOP#	;AC IS USED FOR ITERATION^
  4486
  4487			031700		SN=31700
  4488			171400			XX=171400
  4489			000001			ZZ=1
  4490
  4491							;TEST FAD
  4492					O31700:	REPEAT	^D6,<
  4493					SN=SN+1
  4494						XX=XX+1000
  4495						ZZ=ZZ+ZZ
  4496						MOVSI	AC-2,201400+ZZ	;SETUP FOR COMPARISON
  4497						MOVSI	AC,XX		;SETUP AC
  4498						MOVSI	AC-1,201400	;SETUP BR
  4499						FAD	AC,AC-1		;C (AC)+C(E)
  4500						CAME	AC,AC-2		;TEST RESULT
  4501						ER3	AC,SN		;FAD FAILED
  4502						JUMPL	AC+2,.-6	;LOOP ON ERROR SWITCH
  4503					>
  4504
  4505			031701		SN=SN+1
  4506			172400			XX=XX+1000
  4507			000002			ZZ=ZZ+ZZ
  4508	034425	205 12 0 00 201402 		MOVSI	AC-2,201400+ZZ	;SETUP FOR COMPARISON
  4509	034426	205 14 0 00 172400 		MOVSI	AC,XX		;SETUP AC
  4510	034427	205 13 0 00 201400 		MOVSI	AC-1,201400	;SETUP BR
  4511	034430	140 14 0 00 000013 		FAD	AC,AC-1		;C (AC)+C(E)
  4512	034431	312 14 0 00 000012 		CAME	AC,AC-2		;TEST RESULT
  4513	034432	003 14 0 00 031701 		ER3	AC,SN		;FAD FAILED
  4514	034433	321 16 0 00 034425 		JUMPL	AC+2,.-6	;LOOP ON ERROR SWITCH
  4515
  4516
  4517			031702		SN=SN+1
  4518			173400			XX=XX+1000
  4519			000004			ZZ=ZZ+ZZ
  4520	034434	205 12 0 00 201404 		MOVSI	AC-2,201400+ZZ	;SETUP FOR COMPARISON
  4521	034435	205 14 0 00 173400 		MOVSI	AC,XX		;SETUP AC
  4522	034436	205 13 0 00 201400 		MOVSI	AC-1,201400	;SETUP BR
  4523	034437	140 14 0 00 000013 		FAD	AC,AC-1		;C (AC)+C(E)
  4524	034440	312 14 0 00 000012 		CAME	AC,AC-2		;TEST RESULT
  4525	034441	003 14 0 00 031702 		ER3	AC,SN		;FAD FAILED
  4526	034442	321 16 0 00 034434 		JUMPL	AC+2,.-6	;LOOP ON ERROR SWITCH
  4527
  4528
DAKCA	PDP-10 KA10 ADVANCED INSTRUCTION DIAGNOSTIC #1, VER 0,2	MACRO %52(537) 12:25 21-JAN-77 PAGE 58-5
DAKCAM	MAC	21-JAN-77 11:41		PART I.E-GEN TEST-FSC,FAD,FSB AND UFA                                              SEQ 0121

  4529			031703		SN=SN+1
  4530			174400			XX=XX+1000
  4531			000010			ZZ=ZZ+ZZ
  4532	034443	205 12 0 00 201410 		MOVSI	AC-2,201400+ZZ	;SETUP FOR COMPARISON
  4533	034444	205 14 0 00 174400 		MOVSI	AC,XX		;SETUP AC
  4534	034445	205 13 0 00 201400 		MOVSI	AC-1,201400	;SETUP BR
  4535	034446	140 14 0 00 000013 		FAD	AC,AC-1		;C (AC)+C(E)
  4536	034447	312 14 0 00 000012 		CAME	AC,AC-2		;TEST RESULT
  4537	034450	003 14 0 00 031703 		ER3	AC,SN		;FAD FAILED
  4538	034451	321 16 0 00 034443 		JUMPL	AC+2,.-6	;LOOP ON ERROR SWITCH
  4539
  4540
  4541			031704		SN=SN+1
  4542			175400			XX=XX+1000
  4543			000020			ZZ=ZZ+ZZ
  4544	034452	205 12 0 00 201420 		MOVSI	AC-2,201400+ZZ	;SETUP FOR COMPARISON
  4545	034453	205 14 0 00 175400 		MOVSI	AC,XX		;SETUP AC
  4546	034454	205 13 0 00 201400 		MOVSI	AC-1,201400	;SETUP BR
  4547	034455	140 14 0 00 000013 		FAD	AC,AC-1		;C (AC)+C(E)
  4548	034456	312 14 0 00 000012 		CAME	AC,AC-2		;TEST RESULT
  4549	034457	003 14 0 00 031704 		ER3	AC,SN		;FAD FAILED
  4550	034460	321 16 0 00 034452 		JUMPL	AC+2,.-6	;LOOP ON ERROR SWITCH
  4551
  4552
  4553			031705		SN=SN+1
  4554			176400			XX=XX+1000
  4555			000040			ZZ=ZZ+ZZ
  4556	034461	205 12 0 00 201440 		MOVSI	AC-2,201400+ZZ	;SETUP FOR COMPARISON
  4557	034462	205 14 0 00 176400 		MOVSI	AC,XX		;SETUP AC
  4558	034463	205 13 0 00 201400 		MOVSI	AC-1,201400	;SETUP BR
  4559	034464	140 14 0 00 000013 		FAD	AC,AC-1		;C (AC)+C(E)
  4560	034465	312 14 0 00 000012 		CAME	AC,AC-2		;TEST RESULT
  4561	034466	003 14 0 00 031705 		ER3	AC,SN		;FAD FAILED
  4562	034467	321 16 0 00 034461 		JUMPL	AC+2,.-6	;LOOP ON ERROR SWITCH
  4563
  4564
  4565			031706		SN=SN+1
  4566			177400			XX=XX+1000
  4567			000100			ZZ=ZZ+ZZ
  4568	034470	205 12 0 00 201500 		MOVSI	AC-2,201400+ZZ	;SETUP FOR COMPARISON
  4569	034471	205 14 0 00 177400 		MOVSI	AC,XX		;SETUP AC
  4570	034472	205 13 0 00 201400 		MOVSI	AC-1,201400	;SETUP BR
  4571	034473	140 14 0 00 000013 		FAD	AC,AC-1		;C (AC)+C(E)
  4572	034474	312 14 0 00 000012 		CAME	AC,AC-2		;TEST RESULT
  4573	034475	003 14 0 00 031706 		ER3	AC,SN		;FAD FAILED
  4574	034476	321 16 0 00 034470 		JUMPL	AC+2,.-6	;LOOP ON ERROR SWITCH
  4575
DAKCA	PDP-10 KA10 ADVANCED INSTRUCTION DIAGNOSTIC #1, VER 0,2	MACRO %52(537) 12:25 21-JAN-77 PAGE 59
DAKCAM	MAC	21-JAN-77 11:41		PART I.E-GEN TEST-FSC,FAD,FSB AND UFA                                              SEQ 0122

  4576					;TEST FAD
  4577					;TWO POSITIVES-LARGER EXPONENT IN AC
  4578					;AR=202.6 (3), 202.4 (2),201.4(1)
  4579					;BR=200.4 (+1/2)
  4580					;SUMS=202.7, 202.5, 201.6
  4581
  4582			000013			AC=13
  4583						SAVEAC	(1,1)^
  4584	034477	201 15 0 00 034477 		MOVEI	AC+2,.
  4585	034500	202 15 0 00 030051 		MOVEM	AC+2,TESTPC	;SETUP SUBTEST PC
  4586	034501	201 15 0 00 000015 		MOVEI	AC+2,<AC+2>&17	;INFORM ERROR ROUTINE WHICH
  4587	034502	202 15 0 00 040244 		MOVEM	AC+2,ERRLOP#	;AC IS USED FOR ITERATION^
  4588
  4589	034503	205 11 0 00 202700 	O32000:	MOVSI	AC-2,202700	;SETUP FOR COMPARISON
  4590	034504	205 13 0 00 202600 		MOVSI	AC,202600	;SETUP AC
  4591	034505	205 12 0 00 200400 		MOVSI	AC-1,200400	;SETUP BR
  4592	034506	140 13 0 00 000012 		FAD	AC,AC-1		;C(AC)+C(E)
  4593	034507	312 13 0 00 000011 		CAME	AC,AC-2		;TEST SUM
  4594	034510	003 13 0 00 032001 		ER3	AC,32001	;FAD FAILED
  4595	034511	321 15 0 00 034503 		JUMPL	AC+2,O32000	;LOOP ON ERROR SWITCH
  4596
  4597	034512	205 11 0 00 202500 	O32100:	MOVSI	AC-2,202500	;SETUP FOR COMPARISON
  4598	034513	205 13 0 00 202400 		MOVSI	AC,202400	;SETUP AC
  4599	034514	205 12 0 00 200400 		MOVSI	AC-1,200400	;SETUP BR
  4600	034515	140 13 0 00 000012 		FAD	AC,AC-1		;C(AC)+C(E)
  4601	034516	312 13 0 00 000011 		CAME	AC,AC-2		;TEST SUM
  4602	034517	003 13 0 00 032101 		ER3	AC,32101	;FAD FAILED
  4603	034520	321 15 0 00 034512 		JUMPL	AC+2,O32100	;LOOP ON ERROR SWITCH
  4604
  4605	034521	205 11 0 00 201600 	O32200:	MOVSI	AC-2,201600	;SETUP FOR COMPARISON
  4606	034522	205 13 0 00 201400 		MOVSI	AC,201400	;SETUP AC
  4607	034523	205 12 0 00 200400 		MOVSI	AC-1,200400	;SETUP BR
  4608	034524	140 13 0 00 000012 		FAD	AC,AC-1		;C(AC) +C(E)
  4609	034525	312 13 0 00 000011 		CAME	AC,AC-2		;TEST SUM
  4610	034526	003 13 0 00 032201 		ER3	AC,32201	;FAD FAILED
  4611	034527	321 15 0 00 034521 		JUMPL	AC+2,O32200	;LOOP ON ERROR SWITCH
DAKCA	PDP-10 KA10 ADVANCED INSTRUCTION DIAGNOSTIC #1, VER 0,2	MACRO %52(537) 12:25 21-JAN-77 PAGE 60
DAKCAM	MAC	21-JAN-77 11:41		PART I.E-GEN TEST-FSC,FAD,FSB AND UFA                                              SEQ 0123

  4612					;TEST FAD
  4613					;TWO POSITIVES
  4614					;EXCESSIVE SHIFT COND
  4615					;AR=000400000000
  4616					;BR=200.4,201.4,202.4
  4617
  4618			000012			AC=12
  4619						SAVEAC	(1,1)^
  4620	034530	201 14 0 00 034530 		MOVEI	AC+2,.
  4621	034531	202 14 0 00 030051 		MOVEM	AC+2,TESTPC	;SETUP SUBTEST PC
  4622	034532	201 14 0 00 000014 		MOVEI	AC+2,<AC+2>&17	;INFORM ERROR ROUTINE WHICH
  4623	034533	202 14 0 00 040244 		MOVEM	AC+2,ERRLOP#	;AC IS USED FOR ITERATION^
  4624
  4625			032300		SN=32300
  4626			177400			ZZ=177400
  4627
  4628							;TEST FAD EXCESSIVE SHIFT
  4629					O32300:	REPEAT	^D3,<
  4630					SN=SN+1
  4631						ZZ=ZZ+1000
  4632						MOVSI	AC,400		;SETUP AC
  4633						MOVSI	AC-1,ZZ		;SETUP BR
  4634						FAD	AC,AC-1		;C(AC) + C(E)
  4635						CAME	AC,AC-1		;TEST SUM
  4636						ER3	AC,SN		;FAD FAILED
  4637						JUMPL	AC+2,.-5	;LOOP ON ERROR SWITCH
  4638					>
  4639
  4640			032301		SN=SN+1
  4641			200400			ZZ=ZZ+1000
  4642	034534	205 12 0 00 000400 		MOVSI	AC,400		;SETUP AC
  4643	034535	205 11 0 00 200400 		MOVSI	AC-1,ZZ		;SETUP BR
  4644	034536	140 12 0 00 000011 		FAD	AC,AC-1		;C(AC) + C(E)
  4645	034537	312 12 0 00 000011 		CAME	AC,AC-1		;TEST SUM
  4646	034540	003 12 0 00 032301 		ER3	AC,SN		;FAD FAILED
  4647	034541	321 14 0 00 034534 		JUMPL	AC+2,.-5	;LOOP ON ERROR SWITCH
  4648
  4649
  4650			032302		SN=SN+1
  4651			201400			ZZ=ZZ+1000
  4652	034542	205 12 0 00 000400 		MOVSI	AC,400		;SETUP AC
  4653	034543	205 11 0 00 201400 		MOVSI	AC-1,ZZ		;SETUP BR
  4654	034544	140 12 0 00 000011 		FAD	AC,AC-1		;C(AC) + C(E)
  4655	034545	312 12 0 00 000011 		CAME	AC,AC-1		;TEST SUM
  4656	034546	003 12 0 00 032302 		ER3	AC,SN		;FAD FAILED
  4657	034547	321 14 0 00 034542 		JUMPL	AC+2,.-5	;LOOP ON ERROR SWITCH
  4658
  4659
  4660			032303		SN=SN+1
  4661			202400			ZZ=ZZ+1000
  4662	034550	205 12 0 00 000400 		MOVSI	AC,400		;SETUP AC
  4663	034551	205 11 0 00 202400 		MOVSI	AC-1,ZZ		;SETUP BR
  4664	034552	140 12 0 00 000011 		FAD	AC,AC-1		;C(AC) + C(E)
  4665	034553	312 12 0 00 000011 		CAME	AC,AC-1		;TEST SUM
  4666	034554	003 12 0 00 032303 		ER3	AC,SN		;FAD FAILED
DAKCA	PDP-10 KA10 ADVANCED INSTRUCTION DIAGNOSTIC #1, VER 0,2	MACRO %52(537) 12:25 21-JAN-77 PAGE 60-1
DAKCAM	MAC	21-JAN-77 11:41		PART I.E-GEN TEST-FSC,FAD,FSB AND UFA                                              SEQ 0124

  4667	034555	321 14 0 00 034550 		JUMPL	AC+2,.-5	;LOOP ON ERROR SWITCH
  4668
  4669					PAGE
DAKCA	PDP-10 KA10 ADVANCED INSTRUCTION DIAGNOSTIC #1, VER 0,2	MACRO %52(537) 12:25 21-JAN-77 PAGE 60-2
DAKCAM	MAC	21-JAN-77 11:41		PART I.E-GEN TEST-FSC,FAD,FSB AND UFA                                              SEQ 0125

  4670					;TEST FAD
  4671					;NR ALL ZERO COND
  4672					;AR=200000000000
  4673					;BR EXPONENT=201,202,203
  4674					;SUM=0
  4675
  4676			000011			AC=11
  4677						SAVEAC	(1,1)^
  4678	034556	201 13 0 00 034556 		MOVEI	AC+2,.
  4679	034557	202 13 0 00 030051 		MOVEM	AC+2,TESTPC	;SETUP SUBTEST PC
  4680	034560	201 13 0 00 000013 		MOVEI	AC+2,<AC+2>&17	;INFORM ERROR ROUTINE WHICH
  4681	034561	202 13 0 00 040244 		MOVEM	AC+2,ERRLOP#	;AC IS USED FOR ITERATION^
  4682
  4683			032400		SN=32400
  4684			200000			ZZ=200000
  4685
  4686							;TEST FAD NR ALL ZERO
  4687					O32400:	REPEAT	^D3,<
  4688					SN=SN+1
  4689						ZZ=ZZ+1000
  4690						MOVSI	AC,200000	;SETUP AC
  4691						MOVSI	AC-1,ZZ		;SETUP BR
  4692						FAD	AC,AC-1		;C(AC)+C(E)
  4693						SKIPE	AC		;TEST SUM
  4694						ER3	AC,SN		;FAD FAILED
  4695						JUMPL	AC+2,.-5	;LOOP ON ERROR SWITCH
  4696					>
  4697
  4698			032401		SN=SN+1
  4699			201000			ZZ=ZZ+1000
  4700	034562	205 11 0 00 200000 		MOVSI	AC,200000	;SETUP AC
  4701	034563	205 10 0 00 201000 		MOVSI	AC-1,ZZ		;SETUP BR
  4702	034564	140 11 0 00 000010 		FAD	AC,AC-1		;C(AC)+C(E)
  4703	034565	332 00 0 00 000011 		SKIPE	AC		;TEST SUM
  4704	034566	003 11 0 00 032401 		ER3	AC,SN		;FAD FAILED
  4705	034567	321 13 0 00 034562 		JUMPL	AC+2,.-5	;LOOP ON ERROR SWITCH
  4706
  4707
  4708			032402		SN=SN+1
  4709			202000			ZZ=ZZ+1000
  4710	034570	205 11 0 00 200000 		MOVSI	AC,200000	;SETUP AC
  4711	034571	205 10 0 00 202000 		MOVSI	AC-1,ZZ		;SETUP BR
  4712	034572	140 11 0 00 000010 		FAD	AC,AC-1		;C(AC)+C(E)
  4713	034573	332 00 0 00 000011 		SKIPE	AC		;TEST SUM
  4714	034574	003 11 0 00 032402 		ER3	AC,SN		;FAD FAILED
  4715	034575	321 13 0 00 034570 		JUMPL	AC+2,.-5	;LOOP ON ERROR SWITCH
  4716
  4717
  4718			032403		SN=SN+1
  4719			203000			ZZ=ZZ+1000
  4720	034576	205 11 0 00 200000 		MOVSI	AC,200000	;SETUP AC
  4721	034577	205 10 0 00 203000 		MOVSI	AC-1,ZZ		;SETUP BR
  4722	034600	140 11 0 00 000010 		FAD	AC,AC-1		;C(AC)+C(E)
  4723	034601	332 00 0 00 000011 		SKIPE	AC		;TEST SUM
  4724	034602	003 11 0 00 032403 		ER3	AC,SN		;FAD FAILED
DAKCA	PDP-10 KA10 ADVANCED INSTRUCTION DIAGNOSTIC #1, VER 0,2	MACRO %52(537) 12:25 21-JAN-77 PAGE 60-3
DAKCAM	MAC	21-JAN-77 11:41		PART I.E-GEN TEST-FSC,FAD,FSB AND UFA                                              SEQ 0126

  4725	034603	321 13 0 00 034576 		JUMPL	AC+2,.-5	;LOOP ON ERROR SWITCH
  4726
DAKCA	PDP-10 KA10 ADVANCED INSTRUCTION DIAGNOSTIC #1, VER 0,2	MACRO %52(537) 12:25 21-JAN-77 PAGE 61
DAKCAM	MAC	21-JAN-77 11:41		PART I.E-GEN TEST-FSC,FAD,FSB AND UFA                                              SEQ 0127

  4727					;TEST FAD
  4728					;TWO POSITIVES
  4729					;NRSHRT COND
  4730					;AR=200.4 (1/2), 201.4 (+1), 202.4 (+2)
  4731					;BR=(SAME AS AR)
  4732					;SUMS=201.4, 202.4, 203.4
  4733
  4734			000010			AC=10
  4735						SAVEAC	(1,1)^
  4736	034604	201 12 0 00 034604 		MOVEI	AC+2,.
  4737	034605	202 12 0 00 030051 		MOVEM	AC+2,TESTPC	;SETUP SUBTEST PC
  4738	034606	201 12 0 00 000012 		MOVEI	AC+2,<AC+2>&17	;INFORM ERROR ROUTINE WHICH
  4739	034607	202 12 0 00 040244 		MOVEM	AC+2,ERRLOP#	;AC IS USED FOR ITERATION^
  4740
  4741			032500		SN=32500
  4742			200400			XX=200400
  4743			177400			ZZ=177400
  4744
  4745							;TEST FAD NRSHRT
  4746					O32500:	REPEAT	^D3,<
  4747					SN=SN+1
  4748						XX=XX+1000
  4749						ZZ=ZZ+1000
  4750						MOVSI	AC-2,XX		;SETUP FOR COMPARISON
  4751						MOVSI	AC,ZZ		;SETUP AC
  4752						MOVSI	AC-1,ZZ		;SETUP BR
  4753						FAD	AC,AC-1		;C(AC)+C(E)
  4754						CAME	AC,AC-2		;TEST SUM
  4755						ER3	AC,SN		;FAD FAILED
  4756						JUMPL	AC+2,.-6	;LOOP ON ERROR SWITCH
  4757					>
  4758
  4759			032501		SN=SN+1
  4760			201400			XX=XX+1000
  4761			200400			ZZ=ZZ+1000
  4762	034610	205 06 0 00 201400 		MOVSI	AC-2,XX		;SETUP FOR COMPARISON
  4763	034611	205 10 0 00 200400 		MOVSI	AC,ZZ		;SETUP AC
  4764	034612	205 07 0 00 200400 		MOVSI	AC-1,ZZ		;SETUP BR
  4765	034613	140 10 0 00 000007 		FAD	AC,AC-1		;C(AC)+C(E)
  4766	034614	312 10 0 00 000006 		CAME	AC,AC-2		;TEST SUM
  4767	034615	003 10 0 00 032501 		ER3	AC,SN		;FAD FAILED
  4768	034616	321 12 0 00 034610 		JUMPL	AC+2,.-6	;LOOP ON ERROR SWITCH
  4769
  4770
  4771			032502		SN=SN+1
  4772			202400			XX=XX+1000
  4773			201400			ZZ=ZZ+1000
  4774	034617	205 06 0 00 202400 		MOVSI	AC-2,XX		;SETUP FOR COMPARISON
  4775	034620	205 10 0 00 201400 		MOVSI	AC,ZZ		;SETUP AC
  4776	034621	205 07 0 00 201400 		MOVSI	AC-1,ZZ		;SETUP BR
  4777	034622	140 10 0 00 000007 		FAD	AC,AC-1		;C(AC)+C(E)
  4778	034623	312 10 0 00 000006 		CAME	AC,AC-2		;TEST SUM
  4779	034624	003 10 0 00 032502 		ER3	AC,SN		;FAD FAILED
  4780	034625	321 12 0 00 034617 		JUMPL	AC+2,.-6	;LOOP ON ERROR SWITCH
  4781
DAKCA	PDP-10 KA10 ADVANCED INSTRUCTION DIAGNOSTIC #1, VER 0,2	MACRO %52(537) 12:25 21-JAN-77 PAGE 61-1
DAKCAM	MAC	21-JAN-77 11:41		PART I.E-GEN TEST-FSC,FAD,FSB AND UFA                                              SEQ 0128

  4782
  4783			032503		SN=SN+1
  4784			203400			XX=XX+1000
  4785			202400			ZZ=ZZ+1000
  4786	034626	205 06 0 00 203400 		MOVSI	AC-2,XX		;SETUP FOR COMPARISON
  4787	034627	205 10 0 00 202400 		MOVSI	AC,ZZ		;SETUP AC
  4788	034630	205 07 0 00 202400 		MOVSI	AC-1,ZZ		;SETUP BR
  4789	034631	140 10 0 00 000007 		FAD	AC,AC-1		;C(AC)+C(E)
  4790	034632	312 10 0 00 000006 		CAME	AC,AC-2		;TEST SUM
  4791	034633	003 10 0 00 032503 		ER3	AC,SN		;FAD FAILED
  4792	034634	321 12 0 00 034626 		JUMPL	AC+2,.-6	;LOOP ON ERROR SWITCH
  4793
  4794					PAGE
DAKCA	PDP-10 KA10 ADVANCED INSTRUCTION DIAGNOSTIC #1, VER 0,2	MACRO %52(537) 12:25 21-JAN-77 PAGE 61-2
DAKCAM	MAC	21-JAN-77 11:41		PART I.E-GEN TEST-FSC,FAD,FSB AND UFA                                              SEQ 0129

  4795					;TEST FAD
  4796					;TWO POSITIVES NR NORMAL
  4797					;AR=200.1, 200.04, 200.02
  4798					;BR=AR
  4799					;SUMS=177.4, 176.4, 175.4
  4800
  4801			000007			AC=7
  4802						SAVEAC	(1,1)^
  4803	034635	201 11 0 00 034635 		MOVEI	AC+2,.
  4804	034636	202 11 0 00 030051 		MOVEM	AC+2,TESTPC	;SETUP SUBTEST PC
  4805	034637	201 11 0 00 000011 		MOVEI	AC+2,<AC+2>&17	;INFORM ERROR ROUTINE WHICH
  4806	034640	202 11 0 00 040244 		MOVEM	AC+2,ERRLOP#	;AC IS USED FOR ITERATION^
  4807
  4808			032600		SN=32600
  4809			200400			XX=200400
  4810			000200			ZZ=200
  4811
  4812							;TEST FAD NR NORMAL
  4813					O32600:	REPEAT	^D3,<
  4814					SN=SN+1
  4815						XX=XX-1000
  4816						ZZ=ZZ/2
  4817						MOVSI	AC-2,XX		;SETUP FOR COMPARISON
  4818						MOVSI	AC,200000+ZZ	;SETUP AC
  4819						MOVSI	AC-1,200000+ZZ	;SETUP BR
  4820						FAD	AC,AC-1		;C(AC)+C(E)
  4821						CAME	AC,AC-2		;TEST SUM
  4822						ER3	AC,SN		;FAD FAILED
  4823						JUMPL	AC+2,.-6	;LOOP ON ERROR SWITCH
  4824					>
  4825
  4826			032601		SN=SN+1
  4827			177400			XX=XX-1000
  4828			000100			ZZ=ZZ/2
  4829	034641	205 05 0 00 177400 		MOVSI	AC-2,XX		;SETUP FOR COMPARISON
  4830	034642	205 07 0 00 200100 		MOVSI	AC,200000+ZZ	;SETUP AC
  4831	034643	205 06 0 00 200100 		MOVSI	AC-1,200000+ZZ	;SETUP BR
  4832	034644	140 07 0 00 000006 		FAD	AC,AC-1		;C(AC)+C(E)
  4833	034645	312 07 0 00 000005 		CAME	AC,AC-2		;TEST SUM
  4834	034646	003 07 0 00 032601 		ER3	AC,SN		;FAD FAILED
  4835	034647	321 11 0 00 034641 		JUMPL	AC+2,.-6	;LOOP ON ERROR SWITCH
  4836
  4837
  4838			032602		SN=SN+1
  4839			176400			XX=XX-1000
  4840			000040			ZZ=ZZ/2
  4841	034650	205 05 0 00 176400 		MOVSI	AC-2,XX		;SETUP FOR COMPARISON
  4842	034651	205 07 0 00 200040 		MOVSI	AC,200000+ZZ	;SETUP AC
  4843	034652	205 06 0 00 200040 		MOVSI	AC-1,200000+ZZ	;SETUP BR
  4844	034653	140 07 0 00 000006 		FAD	AC,AC-1		;C(AC)+C(E)
  4845	034654	312 07 0 00 000005 		CAME	AC,AC-2		;TEST SUM
  4846	034655	003 07 0 00 032602 		ER3	AC,SN		;FAD FAILED
  4847	034656	321 11 0 00 034650 		JUMPL	AC+2,.-6	;LOOP ON ERROR SWITCH
  4848
  4849
DAKCA	PDP-10 KA10 ADVANCED INSTRUCTION DIAGNOSTIC #1, VER 0,2	MACRO %52(537) 12:25 21-JAN-77 PAGE 61-3
DAKCAM	MAC	21-JAN-77 11:41		PART I.E-GEN TEST-FSC,FAD,FSB AND UFA                                              SEQ 0130

  4850			032603		SN=SN+1
  4851			175400			XX=XX-1000
  4852			000020			ZZ=ZZ/2
  4853	034657	205 05 0 00 175400 		MOVSI	AC-2,XX		;SETUP FOR COMPARISON
  4854	034660	205 07 0 00 200020 		MOVSI	AC,200000+ZZ	;SETUP AC
  4855	034661	205 06 0 00 200020 		MOVSI	AC-1,200000+ZZ	;SETUP BR
  4856	034662	140 07 0 00 000006 		FAD	AC,AC-1		;C(AC)+C(E)
  4857	034663	312 07 0 00 000005 		CAME	AC,AC-2		;TEST SUM
  4858	034664	003 07 0 00 032603 		ER3	AC,SN		;FAD FAILED
  4859	034665	321 11 0 00 034657 		JUMPL	AC+2,.-6	;LOOP ON ERROR SWITCH
  4860
DAKCA	PDP-10 KA10 ADVANCED INSTRUCTION DIAGNOSTIC #1, VER 0,2	MACRO %52(537) 12:25 21-JAN-77 PAGE 62
DAKCAM	MAC	21-JAN-77 11:41		PART I.E-GEN TEST-FSC,FAD,FSB AND UFA                                              SEQ 0131

  4861					;TEST FAD
  4862					;TWO NEGATIVES
  4863					;AR=577.4 (-1/2), 600.4 (-1/4), 601.4 (-1/8)
  4864					;BR=576400000000 (-1)
  4865					;SUMS=576.2 (-1 1/2), 576.3 (-1 1/4) 576.34 (-1 1/8)
  4866
  4867			000006			AC=6
  4868						SAVEAC	(1,1)^
  4869	034666	201 10 0 00 034666 		MOVEI	AC+2,.
  4870	034667	202 10 0 00 030051 		MOVEM	AC+2,TESTPC	;SETUP SUBTEST PC
  4871	034670	201 10 0 00 000010 		MOVEI	AC+2,<AC+2>&17	;INFORM ERROR ROUTINE WHICH
  4872	034671	202 10 0 00 040244 		MOVEM	AC+2,ERRLOP#	;AC IS USED FOR ITERATION^
  4873
  4874			032700		SN=32700
  4875			000200			WW=200
  4876			576000			XX=576000
  4877			576400			ZZ=576400
  4878
  4879							;TEST FAD -TWO NEGATIVES
  4880					O32700:	REPEAT	^D3,<
  4881					SN=SN+1
  4882						XX=XX+WW
  4883						WW=WW/2
  4884						ZZ=ZZ+1000
  4885						MOVSI	AC-2,XX		;SETUP FOR COMPARISON
  4886						MOVSI	AC,ZZ		;SETUP AC
  4887						MOVSI	AC-1,576400	;SETUP BR
  4888						FAD	AC,AC-1		;C(AC)+C(E)
  4889						CAME	AC,AC-2		;TEST SUM
  4890						ER3	AC,SN		;FAD FAILED
  4891						JUMPL	AC+2,.-6	;LOOP ON ERROR SWITCH
  4892					>
  4893
  4894			032701		SN=SN+1
  4895			576200			XX=XX+WW
  4896			000100			WW=WW/2
  4897			577400			ZZ=ZZ+1000
  4898	034672	205 04 0 00 576200 		MOVSI	AC-2,XX		;SETUP FOR COMPARISON
  4899	034673	205 06 0 00 577400 		MOVSI	AC,ZZ		;SETUP AC
  4900	034674	205 05 0 00 576400 		MOVSI	AC-1,576400	;SETUP BR
  4901	034675	140 06 0 00 000005 		FAD	AC,AC-1		;C(AC)+C(E)
  4902	034676	312 06 0 00 000004 		CAME	AC,AC-2		;TEST SUM
  4903	034677	003 06 0 00 032701 		ER3	AC,SN		;FAD FAILED
  4904	034700	321 10 0 00 034672 		JUMPL	AC+2,.-6	;LOOP ON ERROR SWITCH
  4905
  4906
  4907			032702		SN=SN+1
  4908			576300			XX=XX+WW
  4909			000040			WW=WW/2
  4910			600400			ZZ=ZZ+1000
  4911	034701	205 04 0 00 576300 		MOVSI	AC-2,XX		;SETUP FOR COMPARISON
  4912	034702	205 06 0 00 600400 		MOVSI	AC,ZZ		;SETUP AC
  4913	034703	205 05 0 00 576400 		MOVSI	AC-1,576400	;SETUP BR
  4914	034704	140 06 0 00 000005 		FAD	AC,AC-1		;C(AC)+C(E)
  4915	034705	312 06 0 00 000004 		CAME	AC,AC-2		;TEST SUM
DAKCA	PDP-10 KA10 ADVANCED INSTRUCTION DIAGNOSTIC #1, VER 0,2	MACRO %52(537) 12:25 21-JAN-77 PAGE 62-1
DAKCAM	MAC	21-JAN-77 11:41		PART I.E-GEN TEST-FSC,FAD,FSB AND UFA                                              SEQ 0132

  4916	034706	003 06 0 00 032702 		ER3	AC,SN		;FAD FAILED
  4917	034707	321 10 0 00 034701 		JUMPL	AC+2,.-6	;LOOP ON ERROR SWITCH
  4918
  4919
  4920			032703		SN=SN+1
  4921			576340			XX=XX+WW
  4922			000020			WW=WW/2
  4923			601400			ZZ=ZZ+1000
  4924	034710	205 04 0 00 576340 		MOVSI	AC-2,XX		;SETUP FOR COMPARISON
  4925	034711	205 06 0 00 601400 		MOVSI	AC,ZZ		;SETUP AC
  4926	034712	205 05 0 00 576400 		MOVSI	AC-1,576400	;SETUP BR
  4927	034713	140 06 0 00 000005 		FAD	AC,AC-1		;C(AC)+C(E)
  4928	034714	312 06 0 00 000004 		CAME	AC,AC-2		;TEST SUM
  4929	034715	003 06 0 00 032703 		ER3	AC,SN		;FAD FAILED
  4930	034716	321 10 0 00 034710 		JUMPL	AC+2,.-6	;LOOP ON ERROR SWITCH
  4931
  4932					PAGE
DAKCA	PDP-10 KA10 ADVANCED INSTRUCTION DIAGNOSTIC #1, VER 0,2	MACRO %52(537) 12:25 21-JAN-77 PAGE 62-2
DAKCAM	MAC	21-JAN-77 11:41		PART I.E-GEN TEST-FSC,FAD,FSB AND UFA                                              SEQ 0133

  4933					;TEST FAD
  4934					;TWO NEGATIVES
  4935					;LARGER EXPONENT IN AR
  4936					;AR=576.400000000 (-1)
  4937					;BR=577.4 (-1/2), 600.4 (-1/4), 601.4 (-1/8)
  4938					;SUMS=576.2 (-1 1/2), 576.3 (-1 1/4),576.34 (-1 1/8)
  4939
  4940			000014			AC=14
  4941						SAVEAC	(1,1)^
  4942	034717	201 16 0 00 034717 		MOVEI	AC+2,.
  4943	034720	202 16 0 00 030051 		MOVEM	AC+2,TESTPC	;SETUP SUBTEST PC
  4944	034721	201 16 0 00 000016 		MOVEI	AC+2,<AC+2>&17	;INFORM ERROR ROUTINE WHICH
  4945	034722	202 16 0 00 040244 		MOVEM	AC+2,ERRLOP#	;AC IS USED FOR ITERATION^
  4946
  4947			033000		SN=33000
  4948			000200			WW=200
  4949			576000			XX=576000
  4950			576400			ZZ=576400
  4951
  4952							;TEST FAD-LARGER IN AR
  4953					O33000:	REPEAT	^D3,<
  4954					SN=SN+1
  4955						XX=XX+WW
  4956						WW=WW/2
  4957						ZZ=ZZ+1000
  4958						MOVSI	AC-2,XX		;SETUP FOR COMPARISON
  4959						MOVSI	AC,576400	;SETUP AC
  4960						MOVSI	AC-1,ZZ		;SETUP BR
  4961						FAD	AC,AC-1		;C(AC)+C(E)
  4962						CAME	AC,AC-2		;TEST SUM
  4963						ER3	AC,SN		;FAD FAILED
  4964						JUMPL	AC+2,.-6	;LOOP ON ERROR SWITCH
  4965					>
  4966
  4967			033001		SN=SN+1
  4968			576200			XX=XX+WW
  4969			000100			WW=WW/2
  4970			577400			ZZ=ZZ+1000
  4971	034723	205 12 0 00 576200 		MOVSI	AC-2,XX		;SETUP FOR COMPARISON
  4972	034724	205 14 0 00 576400 		MOVSI	AC,576400	;SETUP AC
  4973	034725	205 13 0 00 577400 		MOVSI	AC-1,ZZ		;SETUP BR
  4974	034726	140 14 0 00 000013 		FAD	AC,AC-1		;C(AC)+C(E)
  4975	034727	312 14 0 00 000012 		CAME	AC,AC-2		;TEST SUM
  4976	034730	003 14 0 00 033001 		ER3	AC,SN		;FAD FAILED
  4977	034731	321 16 0 00 034723 		JUMPL	AC+2,.-6	;LOOP ON ERROR SWITCH
  4978
  4979
  4980			033002		SN=SN+1
  4981			576300			XX=XX+WW
  4982			000040			WW=WW/2
  4983			600400			ZZ=ZZ+1000
  4984	034732	205 12 0 00 576300 		MOVSI	AC-2,XX		;SETUP FOR COMPARISON
  4985	034733	205 14 0 00 576400 		MOVSI	AC,576400	;SETUP AC
  4986	034734	205 13 0 00 600400 		MOVSI	AC-1,ZZ		;SETUP BR
  4987	034735	140 14 0 00 000013 		FAD	AC,AC-1		;C(AC)+C(E)
DAKCA	PDP-10 KA10 ADVANCED INSTRUCTION DIAGNOSTIC #1, VER 0,2	MACRO %52(537) 12:25 21-JAN-77 PAGE 62-3
DAKCAM	MAC	21-JAN-77 11:41		PART I.E-GEN TEST-FSC,FAD,FSB AND UFA                                              SEQ 0134

  4988	034736	312 14 0 00 000012 		CAME	AC,AC-2		;TEST SUM
  4989	034737	003 14 0 00 033002 		ER3	AC,SN		;FAD FAILED
  4990	034740	321 16 0 00 034732 		JUMPL	AC+2,.-6	;LOOP ON ERROR SWITCH
  4991
  4992
  4993			033003		SN=SN+1
  4994			576340			XX=XX+WW
  4995			000020			WW=WW/2
  4996			601400			ZZ=ZZ+1000
  4997	034741	205 12 0 00 576340 		MOVSI	AC-2,XX		;SETUP FOR COMPARISON
  4998	034742	205 14 0 00 576400 		MOVSI	AC,576400	;SETUP AC
  4999	034743	205 13 0 00 601400 		MOVSI	AC-1,ZZ		;SETUP BR
  5000	034744	140 14 0 00 000013 		FAD	AC,AC-1		;C(AC)+C(E)
  5001	034745	312 14 0 00 000012 		CAME	AC,AC-2		;TEST SUM
  5002	034746	003 14 0 00 033003 		ER3	AC,SN		;FAD FAILED
  5003	034747	321 16 0 00 034741 		JUMPL	AC+2,.-6	;LOOP ON ERROR SWITCH
  5004
DAKCA	PDP-10 KA10 ADVANCED INSTRUCTION DIAGNOSTIC #1, VER 0,2	MACRO %52(537) 12:25 21-JAN-77 PAGE 63
DAKCAM	MAC	21-JAN-77 11:41		PART I.E-GEN TEST-FSC,FAD,FSB AND UFA                                              SEQ 0135

  5005					;TEST FAD
  5006					;TWO NEGATIVES
  5007					;NR SHRT COND
  5008					;AR=577.4 (-1/2), 600.4 (-1/4), 601.4(-1/8)
  5009					;BR=AR
  5010					;SUMS=576.4 (-1), 577.4 (-1/2), 600.4 (-1/4)
  5011
  5012			000014			AC=14
  5013						SAVEAC	(1,1)^
  5014	034750	201 16 0 00 034750 		MOVEI	AC+2,.
  5015	034751	202 16 0 00 030051 		MOVEM	AC+2,TESTPC	;SETUP SUBTEST PC
  5016	034752	201 16 0 00 000016 		MOVEI	AC+2,<AC+2>&17	;INFORM ERROR ROUTINE WHICH
  5017	034753	202 16 0 00 040244 		MOVEM	AC+2,ERRLOP#	;AC IS USED FOR ITERATION^
  5018
  5019			033100		SN=33100
  5020			575400			XX=575400
  5021			576400			ZZ=576400
  5022
  5023							;TEST FAD NRSHRT
  5024					O33100:	REPEAT	^D3,<
  5025					SN=SN+1
  5026						XX=XX+1000
  5027						ZZ=ZZ+1000
  5028						MOVSI	AC-2,XX		;SETUP FOR COMPARISON
  5029						MOVSI	AC,ZZ		;SETUP AC
  5030						MOVSI	AC-1,ZZ		;SETUP BR
  5031						FAD	AC,AC-1		;C(AC)+C(E)
  5032						CAME	AC,AC-2		;TEST SUM
  5033						ER3	AC,SN		;FAD FAILED
  5034						JUMPL	AC+2,.-6	;LOOP ON ERROR SWITCH
  5035					>
  5036
  5037			033101		SN=SN+1
  5038			576400			XX=XX+1000
  5039			577400			ZZ=ZZ+1000
  5040	034754	205 12 0 00 576400 		MOVSI	AC-2,XX		;SETUP FOR COMPARISON
  5041	034755	205 14 0 00 577400 		MOVSI	AC,ZZ		;SETUP AC
  5042	034756	205 13 0 00 577400 		MOVSI	AC-1,ZZ		;SETUP BR
  5043	034757	140 14 0 00 000013 		FAD	AC,AC-1		;C(AC)+C(E)
  5044	034760	312 14 0 00 000012 		CAME	AC,AC-2		;TEST SUM
  5045	034761	003 14 0 00 033101 		ER3	AC,SN		;FAD FAILED
  5046	034762	321 16 0 00 034754 		JUMPL	AC+2,.-6	;LOOP ON ERROR SWITCH
  5047
  5048
  5049			033102		SN=SN+1
  5050			577400			XX=XX+1000
  5051			600400			ZZ=ZZ+1000
  5052	034763	205 12 0 00 577400 		MOVSI	AC-2,XX		;SETUP FOR COMPARISON
  5053	034764	205 14 0 00 600400 		MOVSI	AC,ZZ		;SETUP AC
  5054	034765	205 13 0 00 600400 		MOVSI	AC-1,ZZ		;SETUP BR
  5055	034766	140 14 0 00 000013 		FAD	AC,AC-1		;C(AC)+C(E)
  5056	034767	312 14 0 00 000012 		CAME	AC,AC-2		;TEST SUM
  5057	034770	003 14 0 00 033102 		ER3	AC,SN		;FAD FAILED
  5058	034771	321 16 0 00 034763 		JUMPL	AC+2,.-6	;LOOP ON ERROR SWITCH
  5059
DAKCA	PDP-10 KA10 ADVANCED INSTRUCTION DIAGNOSTIC #1, VER 0,2	MACRO %52(537) 12:25 21-JAN-77 PAGE 63-1
DAKCAM	MAC	21-JAN-77 11:41		PART I.E-GEN TEST-FSC,FAD,FSB AND UFA                                              SEQ 0136

  5060
  5061			033103		SN=SN+1
  5062			600400			XX=XX+1000
  5063			601400			ZZ=ZZ+1000
  5064	034772	205 12 0 00 600400 		MOVSI	AC-2,XX		;SETUP FOR COMPARISON
  5065	034773	205 14 0 00 601400 		MOVSI	AC,ZZ		;SETUP AC
  5066	034774	205 13 0 00 601400 		MOVSI	AC-1,ZZ		;SETUP BR
  5067	034775	140 14 0 00 000013 		FAD	AC,AC-1		;C(AC)+C(E)
  5068	034776	312 14 0 00 000012 		CAME	AC,AC-2		;TEST SUM
  5069	034777	003 14 0 00 033103 		ER3	AC,SN		;FAD FAILED
  5070	035000	321 16 0 00 034772 		JUMPL	AC+2,.-6	;LOOP ON ERROR SWITCH
  5071
  5072					PAGE
DAKCA	PDP-10 KA10 ADVANCED INSTRUCTION DIAGNOSTIC #1, VER 0,2	MACRO %52(537) 12:25 21-JAN-77 PAGE 63-2
DAKCAM	MAC	21-JAN-77 11:41		PART I.E-GEN TEST-FSC,FAD,FSB AND UFA                                              SEQ 0137

  5073					;TEST FAD
  5074					;POSITIVE AND NEGATIVE
  5075					;LARGER IN AR
  5076					;AR=201.400000000 (+1)
  5077					;BR=577.4 (-1/2), 600.4 (-1/4), 601.4(-1/8)
  5078					;SUMS=200.4 (+1/2), 200.6 (+3/4), 200.7 (+7/8)
  5079
  5080			000013			AC=13
  5081						SAVEAC	(1,1)^
  5082	035001	201 15 0 00 035001 		MOVEI	AC+2,.
  5083	035002	202 15 0 00 030051 		MOVEM	AC+2,TESTPC	;SETUP SUBTEST PC
  5084	035003	201 15 0 00 000015 		MOVEI	AC+2,<AC+2>&17	;INFORM ERROR ROUTINE WHICH
  5085	035004	202 15 0 00 040244 		MOVEM	AC+2,ERRLOP#	;AC IS USED FOR ITERATION^
  5086
  5087			033200		SN=33200
  5088			001000			WW=1000
  5089			576400			XX=576400
  5090			000000			ZZ=0
  5091
  5092							;TEST FAD
  5093					O33200:	REPEAT	^D3,<
  5094					SN=SN+1
  5095						WW=WW/2
  5096						XX=XX+1000
  5097						ZZ=ZZ+WW
  5098						MOVSI	AC-2,200000+ZZ	;SETUP FOR COMPARISON
  5099						MOVSI	AC,201400	;SETUP AC
  5100						MOVSI	AC-1,XX		;SETUP BR
  5101						FAD	AC,AC-1		;C(AC)+C(E)
  5102						CAME	AC,AC-2		;TEST SUM
  5103						ER3	AC,SN		;FAD FAILED
  5104						JUMPL	AC+2,.-6	;LOOP ON ERROR SWITCH
  5105					>
  5106
  5107			033201		SN=SN+1
  5108			000400			WW=WW/2
  5109			577400			XX=XX+1000
  5110			000400			ZZ=ZZ+WW
  5111	035005	205 11 0 00 200400 		MOVSI	AC-2,200000+ZZ	;SETUP FOR COMPARISON
  5112	035006	205 13 0 00 201400 		MOVSI	AC,201400	;SETUP AC
  5113	035007	205 12 0 00 577400 		MOVSI	AC-1,XX		;SETUP BR
  5114	035010	140 13 0 00 000012 		FAD	AC,AC-1		;C(AC)+C(E)
  5115	035011	312 13 0 00 000011 		CAME	AC,AC-2		;TEST SUM
  5116	035012	003 13 0 00 033201 		ER3	AC,SN		;FAD FAILED
  5117	035013	321 15 0 00 035005 		JUMPL	AC+2,.-6	;LOOP ON ERROR SWITCH
  5118
  5119
  5120			033202		SN=SN+1
  5121			000200			WW=WW/2
  5122			600400			XX=XX+1000
  5123			000600			ZZ=ZZ+WW
  5124	035014	205 11 0 00 200600 		MOVSI	AC-2,200000+ZZ	;SETUP FOR COMPARISON
  5125	035015	205 13 0 00 201400 		MOVSI	AC,201400	;SETUP AC
  5126	035016	205 12 0 00 600400 		MOVSI	AC-1,XX		;SETUP BR
  5127	035017	140 13 0 00 000012 		FAD	AC,AC-1		;C(AC)+C(E)
DAKCA	PDP-10 KA10 ADVANCED INSTRUCTION DIAGNOSTIC #1, VER 0,2	MACRO %52(537) 12:25 21-JAN-77 PAGE 63-3
DAKCAM	MAC	21-JAN-77 11:41		PART I.E-GEN TEST-FSC,FAD,FSB AND UFA                                              SEQ 0138

  5128	035020	312 13 0 00 000011 		CAME	AC,AC-2		;TEST SUM
  5129	035021	003 13 0 00 033202 		ER3	AC,SN		;FAD FAILED
  5130	035022	321 15 0 00 035014 		JUMPL	AC+2,.-6	;LOOP ON ERROR SWITCH
  5131
  5132
  5133			033203		SN=SN+1
  5134			000100			WW=WW/2
  5135			601400			XX=XX+1000
  5136			000700			ZZ=ZZ+WW
  5137	035023	205 11 0 00 200700 		MOVSI	AC-2,200000+ZZ	;SETUP FOR COMPARISON
  5138	035024	205 13 0 00 201400 		MOVSI	AC,201400	;SETUP AC
  5139	035025	205 12 0 00 601400 		MOVSI	AC-1,XX		;SETUP BR
  5140	035026	140 13 0 00 000012 		FAD	AC,AC-1		;C(AC)+C(E)
  5141	035027	312 13 0 00 000011 		CAME	AC,AC-2		;TEST SUM
  5142	035030	003 13 0 00 033203 		ER3	AC,SN		;FAD FAILED
  5143	035031	321 15 0 00 035023 		JUMPL	AC+2,.-6	;LOOP ON ERROR SWITCH
  5144
DAKCA	PDP-10 KA10 ADVANCED INSTRUCTION DIAGNOSTIC #1, VER 0,2	MACRO %52(537) 12:25 21-JAN-77 PAGE 64
DAKCAM	MAC	21-JAN-77 11:41		PART I.E-GEN TEST-FSC,FAD,FSB AND UFA                                              SEQ 0139

  5145					;TEST FAD
  5146					;NOT NR ALL ZERO
  5147					;NOT NR NORMAL
  5148					;AR=200000000000
  5149					;BR=200000000001,2,4,10 ETC
  5150					;SUM=146400000000, EXPONENT
  5151					;INCREASING BY ONE
  5152
  5153			000012			AC=12
  5154						SAVEAC	(1,1)^
  5155	035032	201 14 0 00 035032 		MOVEI	AC+2,.
  5156	035033	202 14 0 00 030051 		MOVEM	AC+2,TESTPC	;SETUP SUBTEST PC
  5157	035034	201 14 0 00 000014 		MOVEI	AC+2,<AC+2>&17	;INFORM ERROR ROUTINE WHICH
  5158	035035	202 14 0 00 040244 		MOVEM	AC+2,ERRLOP#	;AC IS USED FOR ITERATION^
  5159
  5160			033300		SN=33300
  5161			145400			XX=145400
  5162			000000			ZZ=0
  5163
  5164							;TEST BITS 18-35(1)
  5165					O33300:	REPEAT	^D18,<
  5166					SN=SN+1
  5167						XX=XX+1000
  5168						ZZ=ZZ+ZZ
  5169						IFE	ZZ,<ZZ=1>
  5170						MOVSI	AC-2,XX		;SETUP FOR COMPARISON
  5171						MOVSI	AC,200000	;SETUP AC
  5172						MOVE	AC-1,[200000,,ZZ]	;SETUP BR
  5173						FAD	AC,AC-1		;C(AC)+C(E)
  5174						CAME	AC,AC-2		;TEST SUM
  5175						ER3	AC,SN		;FAD FAILED
  5176						CAME	AC-1,[200000,,ZZ]	;VERIFY THAT C(E) IS UNCHANGED
  5177						ER5	AC-1,SN		;FAILURE, C(E) WAS CLOBBERED
  5178						JUMPL	AC+2,.-^D8	;LOOP ON ERROR SWITCH
  5179					>
  5180
  5181			033301		SN=SN+1
  5182			146400			XX=XX+1000
  5183			000000			ZZ=ZZ+ZZ
  5184			000001			IFE	ZZ,<ZZ=1>
  5185	035036	205 10 0 00 146400 		MOVSI	AC-2,XX		;SETUP FOR COMPARISON
  5186	035037	205 12 0 00 200000 		MOVSI	AC,200000	;SETUP AC
  5187	035040	200 11 0 00 040011 		MOVE	AC-1,[200000,,ZZ]	;SETUP BR
  5188	035041	140 12 0 00 000011 		FAD	AC,AC-1		;C(AC)+C(E)
  5189	035042	312 12 0 00 000010 		CAME	AC,AC-2		;TEST SUM
  5190	035043	003 12 0 00 033301 		ER3	AC,SN		;FAD FAILED
  5191	035044	312 11 0 00 040011 		CAME	AC-1,[200000,,ZZ]	;VERIFY THAT C(E) IS UNCHANGED
  5192	035045	005 11 0 00 033301 		ER5	AC-1,SN		;FAILURE, C(E) WAS CLOBBERED
  5193	035046	321 14 0 00 035036 		JUMPL	AC+2,.-^D8	;LOOP ON ERROR SWITCH
  5194
  5195
  5196			033302		SN=SN+1
  5197			147400			XX=XX+1000
  5198			000002			ZZ=ZZ+ZZ
  5199						IFE	ZZ,<ZZ=1>
DAKCA	PDP-10 KA10 ADVANCED INSTRUCTION DIAGNOSTIC #1, VER 0,2	MACRO %52(537) 12:25 21-JAN-77 PAGE 64-1
DAKCAM	MAC	21-JAN-77 11:41		PART I.E-GEN TEST-FSC,FAD,FSB AND UFA                                              SEQ 0140

  5200	035047	205 10 0 00 147400 		MOVSI	AC-2,XX		;SETUP FOR COMPARISON
  5201	035050	205 12 0 00 200000 		MOVSI	AC,200000	;SETUP AC
  5202	035051	200 11 0 00 040012 		MOVE	AC-1,[200000,,ZZ]	;SETUP BR
  5203	035052	140 12 0 00 000011 		FAD	AC,AC-1		;C(AC)+C(E)
  5204	035053	312 12 0 00 000010 		CAME	AC,AC-2		;TEST SUM
  5205	035054	003 12 0 00 033302 		ER3	AC,SN		;FAD FAILED
  5206	035055	312 11 0 00 040012 		CAME	AC-1,[200000,,ZZ]	;VERIFY THAT C(E) IS UNCHANGED
  5207	035056	005 11 0 00 033302 		ER5	AC-1,SN		;FAILURE, C(E) WAS CLOBBERED
  5208	035057	321 14 0 00 035047 		JUMPL	AC+2,.-^D8	;LOOP ON ERROR SWITCH
  5209
  5210
  5211			033303		SN=SN+1
  5212			150400			XX=XX+1000
  5213			000004			ZZ=ZZ+ZZ
  5214						IFE	ZZ,<ZZ=1>
  5215	035060	205 10 0 00 150400 		MOVSI	AC-2,XX		;SETUP FOR COMPARISON
  5216	035061	205 12 0 00 200000 		MOVSI	AC,200000	;SETUP AC
  5217	035062	200 11 0 00 040013 		MOVE	AC-1,[200000,,ZZ]	;SETUP BR
  5218	035063	140 12 0 00 000011 		FAD	AC,AC-1		;C(AC)+C(E)
  5219	035064	312 12 0 00 000010 		CAME	AC,AC-2		;TEST SUM
  5220	035065	003 12 0 00 033303 		ER3	AC,SN		;FAD FAILED
  5221	035066	312 11 0 00 040013 		CAME	AC-1,[200000,,ZZ]	;VERIFY THAT C(E) IS UNCHANGED
  5222	035067	005 11 0 00 033303 		ER5	AC-1,SN		;FAILURE, C(E) WAS CLOBBERED
  5223	035070	321 14 0 00 035060 		JUMPL	AC+2,.-^D8	;LOOP ON ERROR SWITCH
  5224
  5225
  5226			033304		SN=SN+1
  5227			151400			XX=XX+1000
  5228			000010			ZZ=ZZ+ZZ
  5229						IFE	ZZ,<ZZ=1>
  5230	035071	205 10 0 00 151400 		MOVSI	AC-2,XX		;SETUP FOR COMPARISON
  5231	035072	205 12 0 00 200000 		MOVSI	AC,200000	;SETUP AC
  5232	035073	200 11 0 00 040014 		MOVE	AC-1,[200000,,ZZ]	;SETUP BR
  5233	035074	140 12 0 00 000011 		FAD	AC,AC-1		;C(AC)+C(E)
  5234	035075	312 12 0 00 000010 		CAME	AC,AC-2		;TEST SUM
  5235	035076	003 12 0 00 033304 		ER3	AC,SN		;FAD FAILED
  5236	035077	312 11 0 00 040014 		CAME	AC-1,[200000,,ZZ]	;VERIFY THAT C(E) IS UNCHANGED
  5237	035100	005 11 0 00 033304 		ER5	AC-1,SN		;FAILURE, C(E) WAS CLOBBERED
  5238	035101	321 14 0 00 035071 		JUMPL	AC+2,.-^D8	;LOOP ON ERROR SWITCH
  5239
  5240
  5241			033305		SN=SN+1
  5242			152400			XX=XX+1000
  5243			000020			ZZ=ZZ+ZZ
  5244						IFE	ZZ,<ZZ=1>
  5245	035102	205 10 0 00 152400 		MOVSI	AC-2,XX		;SETUP FOR COMPARISON
  5246	035103	205 12 0 00 200000 		MOVSI	AC,200000	;SETUP AC
  5247	035104	200 11 0 00 040015 		MOVE	AC-1,[200000,,ZZ]	;SETUP BR
  5248	035105	140 12 0 00 000011 		FAD	AC,AC-1		;C(AC)+C(E)
  5249	035106	312 12 0 00 000010 		CAME	AC,AC-2		;TEST SUM
  5250	035107	003 12 0 00 033305 		ER3	AC,SN		;FAD FAILED
  5251	035110	312 11 0 00 040015 		CAME	AC-1,[200000,,ZZ]	;VERIFY THAT C(E) IS UNCHANGED
  5252	035111	005 11 0 00 033305 		ER5	AC-1,SN		;FAILURE, C(E) WAS CLOBBERED
  5253	035112	321 14 0 00 035102 		JUMPL	AC+2,.-^D8	;LOOP ON ERROR SWITCH
  5254
DAKCA	PDP-10 KA10 ADVANCED INSTRUCTION DIAGNOSTIC #1, VER 0,2	MACRO %52(537) 12:25 21-JAN-77 PAGE 64-2
DAKCAM	MAC	21-JAN-77 11:41		PART I.E-GEN TEST-FSC,FAD,FSB AND UFA                                              SEQ 0141

  5255
  5256			033306		SN=SN+1
  5257			153400			XX=XX+1000
  5258			000040			ZZ=ZZ+ZZ
  5259						IFE	ZZ,<ZZ=1>
  5260	035113	205 10 0 00 153400 		MOVSI	AC-2,XX		;SETUP FOR COMPARISON
  5261	035114	205 12 0 00 200000 		MOVSI	AC,200000	;SETUP AC
  5262	035115	200 11 0 00 040016 		MOVE	AC-1,[200000,,ZZ]	;SETUP BR
  5263	035116	140 12 0 00 000011 		FAD	AC,AC-1		;C(AC)+C(E)
  5264	035117	312 12 0 00 000010 		CAME	AC,AC-2		;TEST SUM
  5265	035120	003 12 0 00 033306 		ER3	AC,SN		;FAD FAILED
  5266	035121	312 11 0 00 040016 		CAME	AC-1,[200000,,ZZ]	;VERIFY THAT C(E) IS UNCHANGED
  5267	035122	005 11 0 00 033306 		ER5	AC-1,SN		;FAILURE, C(E) WAS CLOBBERED
  5268	035123	321 14 0 00 035113 		JUMPL	AC+2,.-^D8	;LOOP ON ERROR SWITCH
  5269
  5270
  5271			033307		SN=SN+1
  5272			154400			XX=XX+1000
  5273			000100			ZZ=ZZ+ZZ
  5274						IFE	ZZ,<ZZ=1>
  5275	035124	205 10 0 00 154400 		MOVSI	AC-2,XX		;SETUP FOR COMPARISON
  5276	035125	205 12 0 00 200000 		MOVSI	AC,200000	;SETUP AC
  5277	035126	200 11 0 00 040017 		MOVE	AC-1,[200000,,ZZ]	;SETUP BR
  5278	035127	140 12 0 00 000011 		FAD	AC,AC-1		;C(AC)+C(E)
  5279	035130	312 12 0 00 000010 		CAME	AC,AC-2		;TEST SUM
  5280	035131	003 12 0 00 033307 		ER3	AC,SN		;FAD FAILED
  5281	035132	312 11 0 00 040017 		CAME	AC-1,[200000,,ZZ]	;VERIFY THAT C(E) IS UNCHANGED
  5282	035133	005 11 0 00 033307 		ER5	AC-1,SN		;FAILURE, C(E) WAS CLOBBERED
  5283	035134	321 14 0 00 035124 		JUMPL	AC+2,.-^D8	;LOOP ON ERROR SWITCH
  5284
  5285
  5286			033310		SN=SN+1
  5287			155400			XX=XX+1000
  5288			000200			ZZ=ZZ+ZZ
  5289						IFE	ZZ,<ZZ=1>
  5290	035135	205 10 0 00 155400 		MOVSI	AC-2,XX		;SETUP FOR COMPARISON
  5291	035136	205 12 0 00 200000 		MOVSI	AC,200000	;SETUP AC
  5292	035137	200 11 0 00 040020 		MOVE	AC-1,[200000,,ZZ]	;SETUP BR
  5293	035140	140 12 0 00 000011 		FAD	AC,AC-1		;C(AC)+C(E)
  5294	035141	312 12 0 00 000010 		CAME	AC,AC-2		;TEST SUM
  5295	035142	003 12 0 00 033310 		ER3	AC,SN		;FAD FAILED
  5296	035143	312 11 0 00 040020 		CAME	AC-1,[200000,,ZZ]	;VERIFY THAT C(E) IS UNCHANGED
  5297	035144	005 11 0 00 033310 		ER5	AC-1,SN		;FAILURE, C(E) WAS CLOBBERED
  5298	035145	321 14 0 00 035135 		JUMPL	AC+2,.-^D8	;LOOP ON ERROR SWITCH
  5299
  5300
  5301			033311		SN=SN+1
  5302			156400			XX=XX+1000
  5303			000400			ZZ=ZZ+ZZ
  5304						IFE	ZZ,<ZZ=1>
  5305	035146	205 10 0 00 156400 		MOVSI	AC-2,XX		;SETUP FOR COMPARISON
  5306	035147	205 12 0 00 200000 		MOVSI	AC,200000	;SETUP AC
  5307	035150	200 11 0 00 040021 		MOVE	AC-1,[200000,,ZZ]	;SETUP BR
  5308	035151	140 12 0 00 000011 		FAD	AC,AC-1		;C(AC)+C(E)
  5309	035152	312 12 0 00 000010 		CAME	AC,AC-2		;TEST SUM
DAKCA	PDP-10 KA10 ADVANCED INSTRUCTION DIAGNOSTIC #1, VER 0,2	MACRO %52(537) 12:25 21-JAN-77 PAGE 64-3
DAKCAM	MAC	21-JAN-77 11:41		PART I.E-GEN TEST-FSC,FAD,FSB AND UFA                                              SEQ 0142

  5310	035153	003 12 0 00 033311 		ER3	AC,SN		;FAD FAILED
  5311	035154	312 11 0 00 040021 		CAME	AC-1,[200000,,ZZ]	;VERIFY THAT C(E) IS UNCHANGED
  5312	035155	005 11 0 00 033311 		ER5	AC-1,SN		;FAILURE, C(E) WAS CLOBBERED
  5313	035156	321 14 0 00 035146 		JUMPL	AC+2,.-^D8	;LOOP ON ERROR SWITCH
  5314
  5315
  5316			033312		SN=SN+1
  5317			157400			XX=XX+1000
  5318			001000			ZZ=ZZ+ZZ
  5319						IFE	ZZ,<ZZ=1>
  5320	035157	205 10 0 00 157400 		MOVSI	AC-2,XX		;SETUP FOR COMPARISON
  5321	035160	205 12 0 00 200000 		MOVSI	AC,200000	;SETUP AC
  5322	035161	200 11 0 00 040022 		MOVE	AC-1,[200000,,ZZ]	;SETUP BR
  5323	035162	140 12 0 00 000011 		FAD	AC,AC-1		;C(AC)+C(E)
  5324	035163	312 12 0 00 000010 		CAME	AC,AC-2		;TEST SUM
  5325	035164	003 12 0 00 033312 		ER3	AC,SN		;FAD FAILED
  5326	035165	312 11 0 00 040022 		CAME	AC-1,[200000,,ZZ]	;VERIFY THAT C(E) IS UNCHANGED
  5327	035166	005 11 0 00 033312 		ER5	AC-1,SN		;FAILURE, C(E) WAS CLOBBERED
  5328	035167	321 14 0 00 035157 		JUMPL	AC+2,.-^D8	;LOOP ON ERROR SWITCH
  5329
  5330
  5331			033313		SN=SN+1
  5332			160400			XX=XX+1000
  5333			002000			ZZ=ZZ+ZZ
  5334						IFE	ZZ,<ZZ=1>
  5335	035170	205 10 0 00 160400 		MOVSI	AC-2,XX		;SETUP FOR COMPARISON
  5336	035171	205 12 0 00 200000 		MOVSI	AC,200000	;SETUP AC
  5337	035172	200 11 0 00 040023 		MOVE	AC-1,[200000,,ZZ]	;SETUP BR
  5338	035173	140 12 0 00 000011 		FAD	AC,AC-1		;C(AC)+C(E)
  5339	035174	312 12 0 00 000010 		CAME	AC,AC-2		;TEST SUM
  5340	035175	003 12 0 00 033313 		ER3	AC,SN		;FAD FAILED
  5341	035176	312 11 0 00 040023 		CAME	AC-1,[200000,,ZZ]	;VERIFY THAT C(E) IS UNCHANGED
  5342	035177	005 11 0 00 033313 		ER5	AC-1,SN		;FAILURE, C(E) WAS CLOBBERED
  5343	035200	321 14 0 00 035170 		JUMPL	AC+2,.-^D8	;LOOP ON ERROR SWITCH
  5344
  5345
  5346			033314		SN=SN+1
  5347			161400			XX=XX+1000
  5348			004000			ZZ=ZZ+ZZ
  5349						IFE	ZZ,<ZZ=1>
  5350	035201	205 10 0 00 161400 		MOVSI	AC-2,XX		;SETUP FOR COMPARISON
  5351	035202	205 12 0 00 200000 		MOVSI	AC,200000	;SETUP AC
  5352	035203	200 11 0 00 040024 		MOVE	AC-1,[200000,,ZZ]	;SETUP BR
  5353	035204	140 12 0 00 000011 		FAD	AC,AC-1		;C(AC)+C(E)
  5354	035205	312 12 0 00 000010 		CAME	AC,AC-2		;TEST SUM
  5355	035206	003 12 0 00 033314 		ER3	AC,SN		;FAD FAILED
  5356	035207	312 11 0 00 040024 		CAME	AC-1,[200000,,ZZ]	;VERIFY THAT C(E) IS UNCHANGED
  5357	035210	005 11 0 00 033314 		ER5	AC-1,SN		;FAILURE, C(E) WAS CLOBBERED
  5358	035211	321 14 0 00 035201 		JUMPL	AC+2,.-^D8	;LOOP ON ERROR SWITCH
  5359
  5360
  5361			033315		SN=SN+1
  5362			162400			XX=XX+1000
  5363			010000			ZZ=ZZ+ZZ
  5364						IFE	ZZ,<ZZ=1>
DAKCA	PDP-10 KA10 ADVANCED INSTRUCTION DIAGNOSTIC #1, VER 0,2	MACRO %52(537) 12:25 21-JAN-77 PAGE 64-4
DAKCAM	MAC	21-JAN-77 11:41		PART I.E-GEN TEST-FSC,FAD,FSB AND UFA                                              SEQ 0143

  5365	035212	205 10 0 00 162400 		MOVSI	AC-2,XX		;SETUP FOR COMPARISON
  5366	035213	205 12 0 00 200000 		MOVSI	AC,200000	;SETUP AC
  5367	035214	200 11 0 00 040025 		MOVE	AC-1,[200000,,ZZ]	;SETUP BR
  5368	035215	140 12 0 00 000011 		FAD	AC,AC-1		;C(AC)+C(E)
  5369	035216	312 12 0 00 000010 		CAME	AC,AC-2		;TEST SUM
  5370	035217	003 12 0 00 033315 		ER3	AC,SN		;FAD FAILED
  5371	035220	312 11 0 00 040025 		CAME	AC-1,[200000,,ZZ]	;VERIFY THAT C(E) IS UNCHANGED
  5372	035221	005 11 0 00 033315 		ER5	AC-1,SN		;FAILURE, C(E) WAS CLOBBERED
  5373	035222	321 14 0 00 035212 		JUMPL	AC+2,.-^D8	;LOOP ON ERROR SWITCH
  5374
  5375
  5376			033316		SN=SN+1
  5377			163400			XX=XX+1000
  5378			020000			ZZ=ZZ+ZZ
  5379						IFE	ZZ,<ZZ=1>
  5380	035223	205 10 0 00 163400 		MOVSI	AC-2,XX		;SETUP FOR COMPARISON
  5381	035224	205 12 0 00 200000 		MOVSI	AC,200000	;SETUP AC
  5382	035225	200 11 0 00 040026 		MOVE	AC-1,[200000,,ZZ]	;SETUP BR
  5383	035226	140 12 0 00 000011 		FAD	AC,AC-1		;C(AC)+C(E)
  5384	035227	312 12 0 00 000010 		CAME	AC,AC-2		;TEST SUM
  5385	035230	003 12 0 00 033316 		ER3	AC,SN		;FAD FAILED
  5386	035231	312 11 0 00 040026 		CAME	AC-1,[200000,,ZZ]	;VERIFY THAT C(E) IS UNCHANGED
  5387	035232	005 11 0 00 033316 		ER5	AC-1,SN		;FAILURE, C(E) WAS CLOBBERED
  5388	035233	321 14 0 00 035223 		JUMPL	AC+2,.-^D8	;LOOP ON ERROR SWITCH
  5389
  5390
  5391			033317		SN=SN+1
  5392			164400			XX=XX+1000
  5393			040000			ZZ=ZZ+ZZ
  5394						IFE	ZZ,<ZZ=1>
  5395	035234	205 10 0 00 164400 		MOVSI	AC-2,XX		;SETUP FOR COMPARISON
  5396	035235	205 12 0 00 200000 		MOVSI	AC,200000	;SETUP AC
  5397	035236	200 11 0 00 040027 		MOVE	AC-1,[200000,,ZZ]	;SETUP BR
  5398	035237	140 12 0 00 000011 		FAD	AC,AC-1		;C(AC)+C(E)
  5399	035240	312 12 0 00 000010 		CAME	AC,AC-2		;TEST SUM
  5400	035241	003 12 0 00 033317 		ER3	AC,SN		;FAD FAILED
  5401	035242	312 11 0 00 040027 		CAME	AC-1,[200000,,ZZ]	;VERIFY THAT C(E) IS UNCHANGED
  5402	035243	005 11 0 00 033317 		ER5	AC-1,SN		;FAILURE, C(E) WAS CLOBBERED
  5403	035244	321 14 0 00 035234 		JUMPL	AC+2,.-^D8	;LOOP ON ERROR SWITCH
  5404
  5405
  5406			033320		SN=SN+1
  5407			165400			XX=XX+1000
  5408			100000			ZZ=ZZ+ZZ
  5409						IFE	ZZ,<ZZ=1>
  5410	035245	205 10 0 00 165400 		MOVSI	AC-2,XX		;SETUP FOR COMPARISON
  5411	035246	205 12 0 00 200000 		MOVSI	AC,200000	;SETUP AC
  5412	035247	200 11 0 00 040030 		MOVE	AC-1,[200000,,ZZ]	;SETUP BR
  5413	035250	140 12 0 00 000011 		FAD	AC,AC-1		;C(AC)+C(E)
  5414	035251	312 12 0 00 000010 		CAME	AC,AC-2		;TEST SUM
  5415	035252	003 12 0 00 033320 		ER3	AC,SN		;FAD FAILED
  5416	035253	312 11 0 00 040030 		CAME	AC-1,[200000,,ZZ]	;VERIFY THAT C(E) IS UNCHANGED
  5417	035254	005 11 0 00 033320 		ER5	AC-1,SN		;FAILURE, C(E) WAS CLOBBERED
  5418	035255	321 14 0 00 035245 		JUMPL	AC+2,.-^D8	;LOOP ON ERROR SWITCH
  5419
DAKCA	PDP-10 KA10 ADVANCED INSTRUCTION DIAGNOSTIC #1, VER 0,2	MACRO %52(537) 12:25 21-JAN-77 PAGE 64-5
DAKCAM	MAC	21-JAN-77 11:41		PART I.E-GEN TEST-FSC,FAD,FSB AND UFA                                              SEQ 0144

  5420
  5421			033321		SN=SN+1
  5422			166400			XX=XX+1000
  5423			200000			ZZ=ZZ+ZZ
  5424						IFE	ZZ,<ZZ=1>
  5425	035256	205 10 0 00 166400 		MOVSI	AC-2,XX		;SETUP FOR COMPARISON
  5426	035257	205 12 0 00 200000 		MOVSI	AC,200000	;SETUP AC
  5427	035260	200 11 0 00 040031 		MOVE	AC-1,[200000,,ZZ]	;SETUP BR
  5428	035261	140 12 0 00 000011 		FAD	AC,AC-1		;C(AC)+C(E)
  5429	035262	312 12 0 00 000010 		CAME	AC,AC-2		;TEST SUM
  5430	035263	003 12 0 00 033321 		ER3	AC,SN		;FAD FAILED
  5431	035264	312 11 0 00 040031 		CAME	AC-1,[200000,,ZZ]	;VERIFY THAT C(E) IS UNCHANGED
  5432	035265	005 11 0 00 033321 		ER5	AC-1,SN		;FAILURE, C(E) WAS CLOBBERED
  5433	035266	321 14 0 00 035256 		JUMPL	AC+2,.-^D8	;LOOP ON ERROR SWITCH
  5434
  5435
  5436			033322		SN=SN+1
  5437			167400			XX=XX+1000
  5438			400000			ZZ=ZZ+ZZ
  5439						IFE	ZZ,<ZZ=1>
  5440	035267	205 10 0 00 167400 		MOVSI	AC-2,XX		;SETUP FOR COMPARISON
  5441	035270	205 12 0 00 200000 		MOVSI	AC,200000	;SETUP AC
  5442	035271	200 11 0 00 040032 		MOVE	AC-1,[200000,,ZZ]	;SETUP BR
  5443	035272	140 12 0 00 000011 		FAD	AC,AC-1		;C(AC)+C(E)
  5444	035273	312 12 0 00 000010 		CAME	AC,AC-2		;TEST SUM
  5445	035274	003 12 0 00 033322 		ER3	AC,SN		;FAD FAILED
  5446	035275	312 11 0 00 040032 		CAME	AC-1,[200000,,ZZ]	;VERIFY THAT C(E) IS UNCHANGED
  5447	035276	005 11 0 00 033322 		ER5	AC-1,SN		;FAILURE, C(E) WAS CLOBBERED
  5448	035277	321 14 0 00 035267 		JUMPL	AC+2,.-^D8	;LOOP ON ERROR SWITCH
  5449
  5450					PAGE
DAKCA	PDP-10 KA10 ADVANCED INSTRUCTION DIAGNOSTIC #1, VER 0,2	MACRO %52(537) 12:25 21-JAN-77 PAGE 64-6
DAKCAM	MAC	21-JAN-77 11:41		PART I.E-GEN TEST-FSC,FAD,FSB AND UFA                                              SEQ 0145

  5451			033400		SN=33400
  5452			000000			ZZ=0
  5453
  5454							;TEST BITS 10-17 (1)
  5455					O33400:	REPEAT	^D7,<
  5456					SN=SN+1
  5457						XX=XX+1000
  5458						ZZ=ZZ+ZZ
  5459						IFE	ZZ,<ZZ=1>
  5460						MOVSI	AC-2,XX		;SETUP FOR COMPARISON
  5461						MOVSI	AC,200000	;SETUP AC
  5462						MOVSI	AC-1,200000+ZZ	;SETUP BR
  5463						FAD	AC,AC-1		;C(AC)+C(E)
  5464						CAME	AC,AC-2		;TEST SUM
  5465						ER3	AC,SN		;FAD FAILED
  5466						CAME	AC-1,[200000+ZZ,,0]	;VERIFY THAT C(E) IS UNCHANGED
  5467						ER5	AC-1,SN		;FAILURE, C(E) WAS CLOBBERED
  5468						JUMPL	AC+2,.-^D8	;LOOP ON ERROR SWITCH
  5469					>
  5470
  5471			033401		SN=SN+1
  5472			170400			XX=XX+1000
  5473			000000			ZZ=ZZ+ZZ
  5474			000001			IFE	ZZ,<ZZ=1>
  5475	035300	205 10 0 00 170400 		MOVSI	AC-2,XX		;SETUP FOR COMPARISON
  5476	035301	205 12 0 00 200000 		MOVSI	AC,200000	;SETUP AC
  5477	035302	205 11 0 00 200001 		MOVSI	AC-1,200000+ZZ	;SETUP BR
  5478	035303	140 12 0 00 000011 		FAD	AC,AC-1		;C(AC)+C(E)
  5479	035304	312 12 0 00 000010 		CAME	AC,AC-2		;TEST SUM
  5480	035305	003 12 0 00 033401 		ER3	AC,SN		;FAD FAILED
  5481	035306	312 11 0 00 040033 		CAME	AC-1,[200000+ZZ,,0]	;VERIFY THAT C(E) IS UNCHANGED
  5482	035307	005 11 0 00 033401 		ER5	AC-1,SN		;FAILURE, C(E) WAS CLOBBERED
  5483	035310	321 14 0 00 035300 		JUMPL	AC+2,.-^D8	;LOOP ON ERROR SWITCH
  5484
  5485
  5486			033402		SN=SN+1
  5487			171400			XX=XX+1000
  5488			000002			ZZ=ZZ+ZZ
  5489						IFE	ZZ,<ZZ=1>
  5490	035311	205 10 0 00 171400 		MOVSI	AC-2,XX		;SETUP FOR COMPARISON
  5491	035312	205 12 0 00 200000 		MOVSI	AC,200000	;SETUP AC
  5492	035313	205 11 0 00 200002 		MOVSI	AC-1,200000+ZZ	;SETUP BR
  5493	035314	140 12 0 00 000011 		FAD	AC,AC-1		;C(AC)+C(E)
  5494	035315	312 12 0 00 000010 		CAME	AC,AC-2		;TEST SUM
  5495	035316	003 12 0 00 033402 		ER3	AC,SN		;FAD FAILED
  5496	035317	312 11 0 00 040034 		CAME	AC-1,[200000+ZZ,,0]	;VERIFY THAT C(E) IS UNCHANGED
  5497	035320	005 11 0 00 033402 		ER5	AC-1,SN		;FAILURE, C(E) WAS CLOBBERED
  5498	035321	321 14 0 00 035311 		JUMPL	AC+2,.-^D8	;LOOP ON ERROR SWITCH
  5499
  5500
  5501			033403		SN=SN+1
  5502			172400			XX=XX+1000
  5503			000004			ZZ=ZZ+ZZ
  5504						IFE	ZZ,<ZZ=1>
  5505	035322	205 10 0 00 172400 		MOVSI	AC-2,XX		;SETUP FOR COMPARISON
DAKCA	PDP-10 KA10 ADVANCED INSTRUCTION DIAGNOSTIC #1, VER 0,2	MACRO %52(537) 12:25 21-JAN-77 PAGE 64-7
DAKCAM	MAC	21-JAN-77 11:41		PART I.E-GEN TEST-FSC,FAD,FSB AND UFA                                              SEQ 0146

  5506	035323	205 12 0 00 200000 		MOVSI	AC,200000	;SETUP AC
  5507	035324	205 11 0 00 200004 		MOVSI	AC-1,200000+ZZ	;SETUP BR
  5508	035325	140 12 0 00 000011 		FAD	AC,AC-1		;C(AC)+C(E)
  5509	035326	312 12 0 00 000010 		CAME	AC,AC-2		;TEST SUM
  5510	035327	003 12 0 00 033403 		ER3	AC,SN		;FAD FAILED
  5511	035330	312 11 0 00 040035 		CAME	AC-1,[200000+ZZ,,0]	;VERIFY THAT C(E) IS UNCHANGED
  5512	035331	005 11 0 00 033403 		ER5	AC-1,SN		;FAILURE, C(E) WAS CLOBBERED
  5513	035332	321 14 0 00 035322 		JUMPL	AC+2,.-^D8	;LOOP ON ERROR SWITCH
  5514
  5515
  5516			033404		SN=SN+1
  5517			173400			XX=XX+1000
  5518			000010			ZZ=ZZ+ZZ
  5519						IFE	ZZ,<ZZ=1>
  5520	035333	205 10 0 00 173400 		MOVSI	AC-2,XX		;SETUP FOR COMPARISON
  5521	035334	205 12 0 00 200000 		MOVSI	AC,200000	;SETUP AC
  5522	035335	205 11 0 00 200010 		MOVSI	AC-1,200000+ZZ	;SETUP BR
  5523	035336	140 12 0 00 000011 		FAD	AC,AC-1		;C(AC)+C(E)
  5524	035337	312 12 0 00 000010 		CAME	AC,AC-2		;TEST SUM
  5525	035340	003 12 0 00 033404 		ER3	AC,SN		;FAD FAILED
  5526	035341	312 11 0 00 040036 		CAME	AC-1,[200000+ZZ,,0]	;VERIFY THAT C(E) IS UNCHANGED
  5527	035342	005 11 0 00 033404 		ER5	AC-1,SN		;FAILURE, C(E) WAS CLOBBERED
  5528	035343	321 14 0 00 035333 		JUMPL	AC+2,.-^D8	;LOOP ON ERROR SWITCH
  5529
  5530
  5531			033405		SN=SN+1
  5532			174400			XX=XX+1000
  5533			000020			ZZ=ZZ+ZZ
  5534						IFE	ZZ,<ZZ=1>
  5535	035344	205 10 0 00 174400 		MOVSI	AC-2,XX		;SETUP FOR COMPARISON
  5536	035345	205 12 0 00 200000 		MOVSI	AC,200000	;SETUP AC
  5537	035346	205 11 0 00 200020 		MOVSI	AC-1,200000+ZZ	;SETUP BR
  5538	035347	140 12 0 00 000011 		FAD	AC,AC-1		;C(AC)+C(E)
  5539	035350	312 12 0 00 000010 		CAME	AC,AC-2		;TEST SUM
  5540	035351	003 12 0 00 033405 		ER3	AC,SN		;FAD FAILED
  5541	035352	312 11 0 00 040037 		CAME	AC-1,[200000+ZZ,,0]	;VERIFY THAT C(E) IS UNCHANGED
  5542	035353	005 11 0 00 033405 		ER5	AC-1,SN		;FAILURE, C(E) WAS CLOBBERED
  5543	035354	321 14 0 00 035344 		JUMPL	AC+2,.-^D8	;LOOP ON ERROR SWITCH
  5544
  5545
  5546			033406		SN=SN+1
  5547			175400			XX=XX+1000
  5548			000040			ZZ=ZZ+ZZ
  5549						IFE	ZZ,<ZZ=1>
  5550	035355	205 10 0 00 175400 		MOVSI	AC-2,XX		;SETUP FOR COMPARISON
  5551	035356	205 12 0 00 200000 		MOVSI	AC,200000	;SETUP AC
  5552	035357	205 11 0 00 200040 		MOVSI	AC-1,200000+ZZ	;SETUP BR
  5553	035360	140 12 0 00 000011 		FAD	AC,AC-1		;C(AC)+C(E)
  5554	035361	312 12 0 00 000010 		CAME	AC,AC-2		;TEST SUM
  5555	035362	003 12 0 00 033406 		ER3	AC,SN		;FAD FAILED
  5556	035363	312 11 0 00 040040 		CAME	AC-1,[200000+ZZ,,0]	;VERIFY THAT C(E) IS UNCHANGED
  5557	035364	005 11 0 00 033406 		ER5	AC-1,SN		;FAILURE, C(E) WAS CLOBBERED
  5558	035365	321 14 0 00 035355 		JUMPL	AC+2,.-^D8	;LOOP ON ERROR SWITCH
  5559
  5560
DAKCA	PDP-10 KA10 ADVANCED INSTRUCTION DIAGNOSTIC #1, VER 0,2	MACRO %52(537) 12:25 21-JAN-77 PAGE 64-8
DAKCAM	MAC	21-JAN-77 11:41		PART I.E-GEN TEST-FSC,FAD,FSB AND UFA                                              SEQ 0147

  5561			033407		SN=SN+1
  5562			176400			XX=XX+1000
  5563			000100			ZZ=ZZ+ZZ
  5564						IFE	ZZ,<ZZ=1>
  5565	035366	205 10 0 00 176400 		MOVSI	AC-2,XX		;SETUP FOR COMPARISON
  5566	035367	205 12 0 00 200000 		MOVSI	AC,200000	;SETUP AC
  5567	035370	205 11 0 00 200100 		MOVSI	AC-1,200000+ZZ	;SETUP BR
  5568	035371	140 12 0 00 000011 		FAD	AC,AC-1		;C(AC)+C(E)
  5569	035372	312 12 0 00 000010 		CAME	AC,AC-2		;TEST SUM
  5570	035373	003 12 0 00 033407 		ER3	AC,SN		;FAD FAILED
  5571	035374	312 11 0 00 040041 		CAME	AC-1,[200000+ZZ,,0]	;VERIFY THAT C(E) IS UNCHANGED
  5572	035375	005 11 0 00 033407 		ER5	AC-1,SN		;FAILURE, C(E) WAS CLOBBERED
  5573	035376	321 14 0 00 035366 		JUMPL	AC+2,.-^D8	;LOOP ON ERROR SWITCH
  5574
DAKCA	PDP-10 KA10 ADVANCED INSTRUCTION DIAGNOSTIC #1, VER 0,2	MACRO %52(537) 12:25 21-JAN-77 PAGE 65
DAKCAM	MAC	21-JAN-77 11:41		PART I.E-GEN TEST-FSC,FAD,FSB AND UFA                                              SEQ 0148

  5575					;TEST FAD
  5576					;SET AROV, ARFOV, ARFXU FLAGS
  5577					;AR=377400000000,777700000000
  5578					;BR=377400000000,777700000000
  5579					;SUM=000400000000
  5580
  5581			000011			AC=11
  5582						SAVEAC	(1,1)^
  5583	035377	201 13 0 00 035377 		MOVEI	AC+2,.
  5584	035400	202 13 0 00 030051 		MOVEM	AC+2,TESTPC	;SETUP SUBTEST PC
  5585	035401	201 13 0 00 000013 		MOVEI	AC+2,<AC+2>&17	;INFORM ERROR ROUTINE WHICH
  5586	035402	202 13 0 00 040244 		MOVEM	AC+2,ERRLOP#	;AC IS USED FOR ITERATION^
  5587
  5588									;TEST AR OV FLAG
  5589	035403	255 10 0 00 035404 	O33500:	JFCL	10,.+1		;CLR FLAG EXEC NEXT INST
  5590	035404	205 07 0 00 000400 		MOVSI	AC-2,400	;SETUP FOR COMPARISON
  5591	035405	205 11 0 00 377400 		MOVSI	AC,377400	;SETUP AC
  5592	035406	205 10 0 00 377400 		MOVSI	AC-1,377400	;SETUP BR
  5593	035407	140 11 0 00 000010 		FAD	AC,AC-1		;C(AC)+C(E)
  5594	035410	265 12 0 00 035411 		JSP	AC+1,.+1
  5595	035411	312 11 0 00 000007 		CAME	AC,AC-2		;TEST SUM
  5596	035412	003 11 0 00 033501 		ER3	AC,33501	;FAD FAILED
  5597	035413	255 10 0 00 035415 		JFCL	10,.+2		;TEST AROV FLAG
  5598	035414	013 12 0 00 033501 		ER13	AC+1,33501	;AROV FAILED TO SET
  5599	035415	321 13 0 00 035403 		JUMPL	AC+2,O33500	;LOOP ON ERROR SWITCH
  5600
  5601									;TEST AR FOV FLAG
  5602	035416	255 01 0 00 035417 	O33600:	JFCL	1,.+1		;CLR FLAG, EXEC NEXT INST
  5603	035417	205 11 0 00 377400 		MOVSI	AC,377400	;SETUP AC
  5604	035420	205 10 0 00 377400 		MOVSI	AC-1,377400	;SETUP BR
  5605	035421	140 11 0 00 000010 		FAD	AC,AC-1		;C(AC)+C(E)
  5606	035422	265 12 0 00 035423 		JSP	AC+1,.+1
  5607	035423	255 01 0 00 035425 		JFCL	1,.+2		;TEST AR FOV FLAG
  5608	035424	013 12 0 00 033601 		ER13	AC+1,33601	;AR FOV FAILED TO SET
  5609	035425	321 13 0 00 035416 		JUMPL	AC+2,O33600	;LOOP ON ERROR SWITCH
  5610
  5611									;TEST ARFXU FLAG
  5612	035426	254 02 1 00 040042 	O33700:	JRST	2,@[.+1]	;CLR FLAG,EXEC NEXT INST
  5613	035427	205 11 0 00 777700 		MOVSI	AC,777700	;SETUP AC
  5614	035430	205 10 0 00 777700 		MOVSI	AC-1,777700	;SETUP BR
  5615	035431	140 11 0 00 000010 		FAD	AC,AC-1		;C(AC)+C(E)
  5616	035432	265 07 0 00 035433 		JSP	AC-2,.+1	;STORE FLAGS AND PC
  5617	035433	627 07 0 00 000100 		TLZN	AC-2,100	;TEST AND CLEAR BIT 11
  5618	035434	013 07 0 00 033701 		ER13	AC-2,33701	;AR FXU FAILED TO SET
  5619	035435	254 02 0 07 000003 		JRST	2,3(AC-2)	;CLEAR AR FXU
  5620	035436	321 13 0 00 035426 		JUMPL	AC+2,O33700	;LOOP ON ERROR SWITCH
DAKCA	PDP-10 KA10 ADVANCED INSTRUCTION DIAGNOSTIC #1, VER 0,2	MACRO %52(537) 12:25 21-JAN-77 PAGE 66
DAKCAM	MAC	21-JAN-77 11:41		PART I.E-GEN TEST-FSC,FAD,FSB AND UFA                                              SEQ 0149

  5621					;TEST FADL
  5622					;AR=200000000000
  5623					;BR=200777777777
  5624					;HIGH ORDER SUM=200777777777
  5625					;LOW ORDER SUM=0
  5626
  5627			000010			AC=10
  5628						SAVEAC	(1,1)^
  5629	035437	201 12 0 00 035437 		MOVEI	AC+2,.
  5630	035440	202 12 0 00 030051 		MOVEM	AC+2,TESTPC	;SETUP SUBTEST PC
  5631	035441	201 12 0 00 000012 		MOVEI	AC+2,<AC+2>&17	;INFORM ERROR ROUTINE WHICH
  5632	035442	202 12 0 00 040244 		MOVEM	AC+2,ERRLOP#	;AC IS USED FOR ITERATION^
  5633
  5634	035443	505 06 0 00 200777 	O34000:	HRLI	AC-2,200777	;SETUP AC-2
  5635	035444	541 06 0 00 777777 		HRRI	AC-2,-1		;FOR COMPARISON
  5636	035445	205 10 0 00 200000 		MOVSI	AC,200000	;SETUP AC
  5637	035446	505 07 0 00 200777 		HRLI	AC-1,200777	;SETUP
  5638	035447	541 07 0 00 777777 		HRRI	AC-1,-1		;BR
  5639	035450	141 10 0 00 000007 		FADL	AC,AC-1		;C(AC)+C(E)
  5640	035451	312 10 0 00 000006 		CAME	AC,AC-2		;TEST HIGH SUM
  5641	035452	003 10 0 00 034001 		ER3	AC,34001
  5642	035453	332 00 0 00 000011 		SKIPE	AC+1		;TEST LOW SUM
  5643	035454	004 11 0 00 034001 		ER4	AC+1,34001	;FADL FAILED
  5644	035455	321 12 0 00 035443 		JUMPL	AC+2,O34000	;LOOP ON ERROR SWITCH
DAKCA	PDP-10 KA10 ADVANCED INSTRUCTION DIAGNOSTIC #1, VER 0,2	MACRO %52(537) 12:25 21-JAN-77 PAGE 67
DAKCAM	MAC	21-JAN-77 11:41		PART I.E-GEN TEST-FSC,FAD,FSB AND UFA                                              SEQ 0150

  5645					;TEST FADL
  5646					;TEST AR35, MQ8 SHIFT CONNECTION
  5647					;AR=200000000001,2,4,10,20 ETC
  5648					;BR=201400000000, EXPONENT INCREASING
  5649					;BY 1
  5650					;HIGH ORDER SUM=C(BR)
  5651					;LOW ORDER SUM=XXX 400000, EXPONENT
  5652					;INCREASING BY 1
  5653
  5654			000007			AC=7
  5655						SAVEAC	(1,1)^
  5656	035456	201 11 0 00 035456 		MOVEI	AC+2,.
  5657	035457	202 11 0 00 030051 		MOVEM	AC+2,TESTPC	;SETUP SUBTEST PC
  5658	035460	201 11 0 00 000011 		MOVEI	AC+2,<AC+2>&17	;INFORM ERROR ROUTINE WHICH
  5659	035461	202 11 0 00 040244 		MOVEM	AC+2,ERRLOP#	;AC IS USED FOR ITERATION^
  5660
  5661			034100		SN=34100
  5662			145000			WW=145000
  5663			200400			XX=200400
  5664			000000			ZZ=0
  5665
  5666							;TEST BITS 18-35(1)
  5667					O34100:	REPEAT	^D18,<
  5668					SN=SN+1
  5669						WW=WW+1000
  5670						XX=XX+1000
  5671						ZZ=ZZ+ZZ
  5672						IFE	ZZ,<ZZ=1>
  5673						MOVSI	AC-2,400+WW	;SETUP FOR COMPARISON
  5674						HRLI	AC,200000	;SETUP
  5675						HRRI	AC,ZZ		;AC
  5676						MOVSI	AC-1,XX		;SETUP BR
  5677						FADL	AC,AC-1		;C(AC)+C(E)
  5678						CAME	AC,AC-1		;TEST HIGH SUM
  5679						ER3	AC,SN
  5680						CAME	AC+1,AC-2	;TEST LOW SUM
  5681						ER4	AC+1,SN		;FADL FAILED
  5682						JUMPL	AC+2,.-^D9	;LOOP ON ERROR SWITCH
  5683					>
  5684
  5685			034101		SN=SN+1
  5686			146000			WW=WW+1000
  5687			201400			XX=XX+1000
  5688			000000			ZZ=ZZ+ZZ
  5689			000001			IFE	ZZ,<ZZ=1>
  5690	035462	205 05 0 00 146400 		MOVSI	AC-2,400+WW	;SETUP FOR COMPARISON
  5691	035463	505 07 0 00 200000 		HRLI	AC,200000	;SETUP
  5692	035464	541 07 0 00 000001 		HRRI	AC,ZZ		;AC
  5693	035465	205 06 0 00 201400 		MOVSI	AC-1,XX		;SETUP BR
  5694	035466	141 07 0 00 000006 		FADL	AC,AC-1		;C(AC)+C(E)
  5695	035467	312 07 0 00 000006 		CAME	AC,AC-1		;TEST HIGH SUM
  5696	035470	003 07 0 00 034101 		ER3	AC,SN
  5697	035471	312 10 0 00 000005 		CAME	AC+1,AC-2	;TEST LOW SUM
  5698	035472	004 10 0 00 034101 		ER4	AC+1,SN		;FADL FAILED
  5699	035473	321 11 0 00 035462 		JUMPL	AC+2,.-^D9	;LOOP ON ERROR SWITCH
DAKCA	PDP-10 KA10 ADVANCED INSTRUCTION DIAGNOSTIC #1, VER 0,2	MACRO %52(537) 12:25 21-JAN-77 PAGE 67-1
DAKCAM	MAC	21-JAN-77 11:41		PART I.E-GEN TEST-FSC,FAD,FSB AND UFA                                              SEQ 0151

  5700
  5701
  5702			034102		SN=SN+1
  5703			147000			WW=WW+1000
  5704			202400			XX=XX+1000
  5705			000002			ZZ=ZZ+ZZ
  5706						IFE	ZZ,<ZZ=1>
  5707	035474	205 05 0 00 147400 		MOVSI	AC-2,400+WW	;SETUP FOR COMPARISON
  5708	035475	505 07 0 00 200000 		HRLI	AC,200000	;SETUP
  5709	035476	541 07 0 00 000002 		HRRI	AC,ZZ		;AC
  5710	035477	205 06 0 00 202400 		MOVSI	AC-1,XX		;SETUP BR
  5711	035500	141 07 0 00 000006 		FADL	AC,AC-1		;C(AC)+C(E)
  5712	035501	312 07 0 00 000006 		CAME	AC,AC-1		;TEST HIGH SUM
  5713	035502	003 07 0 00 034102 		ER3	AC,SN
  5714	035503	312 10 0 00 000005 		CAME	AC+1,AC-2	;TEST LOW SUM
  5715	035504	004 10 0 00 034102 		ER4	AC+1,SN		;FADL FAILED
  5716	035505	321 11 0 00 035474 		JUMPL	AC+2,.-^D9	;LOOP ON ERROR SWITCH
  5717
  5718
  5719			034103		SN=SN+1
  5720			150000			WW=WW+1000
  5721			203400			XX=XX+1000
  5722			000004			ZZ=ZZ+ZZ
  5723						IFE	ZZ,<ZZ=1>
  5724	035506	205 05 0 00 150400 		MOVSI	AC-2,400+WW	;SETUP FOR COMPARISON
  5725	035507	505 07 0 00 200000 		HRLI	AC,200000	;SETUP
  5726	035510	541 07 0 00 000004 		HRRI	AC,ZZ		;AC
  5727	035511	205 06 0 00 203400 		MOVSI	AC-1,XX		;SETUP BR
  5728	035512	141 07 0 00 000006 		FADL	AC,AC-1		;C(AC)+C(E)
  5729	035513	312 07 0 00 000006 		CAME	AC,AC-1		;TEST HIGH SUM
  5730	035514	003 07 0 00 034103 		ER3	AC,SN
  5731	035515	312 10 0 00 000005 		CAME	AC+1,AC-2	;TEST LOW SUM
  5732	035516	004 10 0 00 034103 		ER4	AC+1,SN		;FADL FAILED
  5733	035517	321 11 0 00 035506 		JUMPL	AC+2,.-^D9	;LOOP ON ERROR SWITCH
  5734
  5735
  5736			034104		SN=SN+1
  5737			151000			WW=WW+1000
  5738			204400			XX=XX+1000
  5739			000010			ZZ=ZZ+ZZ
  5740						IFE	ZZ,<ZZ=1>
  5741	035520	205 05 0 00 151400 		MOVSI	AC-2,400+WW	;SETUP FOR COMPARISON
  5742	035521	505 07 0 00 200000 		HRLI	AC,200000	;SETUP
  5743	035522	541 07 0 00 000010 		HRRI	AC,ZZ		;AC
  5744	035523	205 06 0 00 204400 		MOVSI	AC-1,XX		;SETUP BR
  5745	035524	141 07 0 00 000006 		FADL	AC,AC-1		;C(AC)+C(E)
  5746	035525	312 07 0 00 000006 		CAME	AC,AC-1		;TEST HIGH SUM
  5747	035526	003 07 0 00 034104 		ER3	AC,SN
  5748	035527	312 10 0 00 000005 		CAME	AC+1,AC-2	;TEST LOW SUM
  5749	035530	004 10 0 00 034104 		ER4	AC+1,SN		;FADL FAILED
  5750	035531	321 11 0 00 035520 		JUMPL	AC+2,.-^D9	;LOOP ON ERROR SWITCH
  5751
  5752
  5753			034105		SN=SN+1
  5754			152000			WW=WW+1000
DAKCA	PDP-10 KA10 ADVANCED INSTRUCTION DIAGNOSTIC #1, VER 0,2	MACRO %52(537) 12:25 21-JAN-77 PAGE 67-2
DAKCAM	MAC	21-JAN-77 11:41		PART I.E-GEN TEST-FSC,FAD,FSB AND UFA                                              SEQ 0152

  5755			205400			XX=XX+1000
  5756			000020			ZZ=ZZ+ZZ
  5757						IFE	ZZ,<ZZ=1>
  5758	035532	205 05 0 00 152400 		MOVSI	AC-2,400+WW	;SETUP FOR COMPARISON
  5759	035533	505 07 0 00 200000 		HRLI	AC,200000	;SETUP
  5760	035534	541 07 0 00 000020 		HRRI	AC,ZZ		;AC
  5761	035535	205 06 0 00 205400 		MOVSI	AC-1,XX		;SETUP BR
  5762	035536	141 07 0 00 000006 		FADL	AC,AC-1		;C(AC)+C(E)
  5763	035537	312 07 0 00 000006 		CAME	AC,AC-1		;TEST HIGH SUM
  5764	035540	003 07 0 00 034105 		ER3	AC,SN
  5765	035541	312 10 0 00 000005 		CAME	AC+1,AC-2	;TEST LOW SUM
  5766	035542	004 10 0 00 034105 		ER4	AC+1,SN		;FADL FAILED
  5767	035543	321 11 0 00 035532 		JUMPL	AC+2,.-^D9	;LOOP ON ERROR SWITCH
  5768
  5769
  5770			034106		SN=SN+1
  5771			153000			WW=WW+1000
  5772			206400			XX=XX+1000
  5773			000040			ZZ=ZZ+ZZ
  5774						IFE	ZZ,<ZZ=1>
  5775	035544	205 05 0 00 153400 		MOVSI	AC-2,400+WW	;SETUP FOR COMPARISON
  5776	035545	505 07 0 00 200000 		HRLI	AC,200000	;SETUP
  5777	035546	541 07 0 00 000040 		HRRI	AC,ZZ		;AC
  5778	035547	205 06 0 00 206400 		MOVSI	AC-1,XX		;SETUP BR
  5779	035550	141 07 0 00 000006 		FADL	AC,AC-1		;C(AC)+C(E)
  5780	035551	312 07 0 00 000006 		CAME	AC,AC-1		;TEST HIGH SUM
  5781	035552	003 07 0 00 034106 		ER3	AC,SN
  5782	035553	312 10 0 00 000005 		CAME	AC+1,AC-2	;TEST LOW SUM
  5783	035554	004 10 0 00 034106 		ER4	AC+1,SN		;FADL FAILED
  5784	035555	321 11 0 00 035544 		JUMPL	AC+2,.-^D9	;LOOP ON ERROR SWITCH
  5785
  5786
  5787			034107		SN=SN+1
  5788			154000			WW=WW+1000
  5789			207400			XX=XX+1000
  5790			000100			ZZ=ZZ+ZZ
  5791						IFE	ZZ,<ZZ=1>
  5792	035556	205 05 0 00 154400 		MOVSI	AC-2,400+WW	;SETUP FOR COMPARISON
  5793	035557	505 07 0 00 200000 		HRLI	AC,200000	;SETUP
  5794	035560	541 07 0 00 000100 		HRRI	AC,ZZ		;AC
  5795	035561	205 06 0 00 207400 		MOVSI	AC-1,XX		;SETUP BR
  5796	035562	141 07 0 00 000006 		FADL	AC,AC-1		;C(AC)+C(E)
  5797	035563	312 07 0 00 000006 		CAME	AC,AC-1		;TEST HIGH SUM
  5798	035564	003 07 0 00 034107 		ER3	AC,SN
  5799	035565	312 10 0 00 000005 		CAME	AC+1,AC-2	;TEST LOW SUM
  5800	035566	004 10 0 00 034107 		ER4	AC+1,SN		;FADL FAILED
  5801	035567	321 11 0 00 035556 		JUMPL	AC+2,.-^D9	;LOOP ON ERROR SWITCH
  5802
  5803
  5804			034110		SN=SN+1
  5805			155000			WW=WW+1000
  5806			210400			XX=XX+1000
  5807			000200			ZZ=ZZ+ZZ
  5808						IFE	ZZ,<ZZ=1>
  5809	035570	205 05 0 00 155400 		MOVSI	AC-2,400+WW	;SETUP FOR COMPARISON
DAKCA	PDP-10 KA10 ADVANCED INSTRUCTION DIAGNOSTIC #1, VER 0,2	MACRO %52(537) 12:25 21-JAN-77 PAGE 67-3
DAKCAM	MAC	21-JAN-77 11:41		PART I.E-GEN TEST-FSC,FAD,FSB AND UFA                                              SEQ 0153

  5810	035571	505 07 0 00 200000 		HRLI	AC,200000	;SETUP
  5811	035572	541 07 0 00 000200 		HRRI	AC,ZZ		;AC
  5812	035573	205 06 0 00 210400 		MOVSI	AC-1,XX		;SETUP BR
  5813	035574	141 07 0 00 000006 		FADL	AC,AC-1		;C(AC)+C(E)
  5814	035575	312 07 0 00 000006 		CAME	AC,AC-1		;TEST HIGH SUM
  5815	035576	003 07 0 00 034110 		ER3	AC,SN
  5816	035577	312 10 0 00 000005 		CAME	AC+1,AC-2	;TEST LOW SUM
  5817	035600	004 10 0 00 034110 		ER4	AC+1,SN		;FADL FAILED
  5818	035601	321 11 0 00 035570 		JUMPL	AC+2,.-^D9	;LOOP ON ERROR SWITCH
  5819
  5820
  5821			034111		SN=SN+1
  5822			156000			WW=WW+1000
  5823			211400			XX=XX+1000
  5824			000400			ZZ=ZZ+ZZ
  5825						IFE	ZZ,<ZZ=1>
  5826	035602	205 05 0 00 156400 		MOVSI	AC-2,400+WW	;SETUP FOR COMPARISON
  5827	035603	505 07 0 00 200000 		HRLI	AC,200000	;SETUP
  5828	035604	541 07 0 00 000400 		HRRI	AC,ZZ		;AC
  5829	035605	205 06 0 00 211400 		MOVSI	AC-1,XX		;SETUP BR
  5830	035606	141 07 0 00 000006 		FADL	AC,AC-1		;C(AC)+C(E)
  5831	035607	312 07 0 00 000006 		CAME	AC,AC-1		;TEST HIGH SUM
  5832	035610	003 07 0 00 034111 		ER3	AC,SN
  5833	035611	312 10 0 00 000005 		CAME	AC+1,AC-2	;TEST LOW SUM
  5834	035612	004 10 0 00 034111 		ER4	AC+1,SN		;FADL FAILED
  5835	035613	321 11 0 00 035602 		JUMPL	AC+2,.-^D9	;LOOP ON ERROR SWITCH
  5836
  5837
  5838			034112		SN=SN+1
  5839			157000			WW=WW+1000
  5840			212400			XX=XX+1000
  5841			001000			ZZ=ZZ+ZZ
  5842						IFE	ZZ,<ZZ=1>
  5843	035614	205 05 0 00 157400 		MOVSI	AC-2,400+WW	;SETUP FOR COMPARISON
  5844	035615	505 07 0 00 200000 		HRLI	AC,200000	;SETUP
  5845	035616	541 07 0 00 001000 		HRRI	AC,ZZ		;AC
  5846	035617	205 06 0 00 212400 		MOVSI	AC-1,XX		;SETUP BR
  5847	035620	141 07 0 00 000006 		FADL	AC,AC-1		;C(AC)+C(E)
  5848	035621	312 07 0 00 000006 		CAME	AC,AC-1		;TEST HIGH SUM
  5849	035622	003 07 0 00 034112 		ER3	AC,SN
  5850	035623	312 10 0 00 000005 		CAME	AC+1,AC-2	;TEST LOW SUM
  5851	035624	004 10 0 00 034112 		ER4	AC+1,SN		;FADL FAILED
  5852	035625	321 11 0 00 035614 		JUMPL	AC+2,.-^D9	;LOOP ON ERROR SWITCH
  5853
  5854
  5855			034113		SN=SN+1
  5856			160000			WW=WW+1000
  5857			213400			XX=XX+1000
  5858			002000			ZZ=ZZ+ZZ
  5859						IFE	ZZ,<ZZ=1>
  5860	035626	205 05 0 00 160400 		MOVSI	AC-2,400+WW	;SETUP FOR COMPARISON
  5861	035627	505 07 0 00 200000 		HRLI	AC,200000	;SETUP
  5862	035630	541 07 0 00 002000 		HRRI	AC,ZZ		;AC
  5863	035631	205 06 0 00 213400 		MOVSI	AC-1,XX		;SETUP BR
  5864	035632	141 07 0 00 000006 		FADL	AC,AC-1		;C(AC)+C(E)
DAKCA	PDP-10 KA10 ADVANCED INSTRUCTION DIAGNOSTIC #1, VER 0,2	MACRO %52(537) 12:25 21-JAN-77 PAGE 67-4
DAKCAM	MAC	21-JAN-77 11:41		PART I.E-GEN TEST-FSC,FAD,FSB AND UFA                                              SEQ 0154

  5865	035633	312 07 0 00 000006 		CAME	AC,AC-1		;TEST HIGH SUM
  5866	035634	003 07 0 00 034113 		ER3	AC,SN
  5867	035635	312 10 0 00 000005 		CAME	AC+1,AC-2	;TEST LOW SUM
  5868	035636	004 10 0 00 034113 		ER4	AC+1,SN		;FADL FAILED
  5869	035637	321 11 0 00 035626 		JUMPL	AC+2,.-^D9	;LOOP ON ERROR SWITCH
  5870
  5871
  5872			034114		SN=SN+1
  5873			161000			WW=WW+1000
  5874			214400			XX=XX+1000
  5875			004000			ZZ=ZZ+ZZ
  5876						IFE	ZZ,<ZZ=1>
  5877	035640	205 05 0 00 161400 		MOVSI	AC-2,400+WW	;SETUP FOR COMPARISON
  5878	035641	505 07 0 00 200000 		HRLI	AC,200000	;SETUP
  5879	035642	541 07 0 00 004000 		HRRI	AC,ZZ		;AC
  5880	035643	205 06 0 00 214400 		MOVSI	AC-1,XX		;SETUP BR
  5881	035644	141 07 0 00 000006 		FADL	AC,AC-1		;C(AC)+C(E)
  5882	035645	312 07 0 00 000006 		CAME	AC,AC-1		;TEST HIGH SUM
  5883	035646	003 07 0 00 034114 		ER3	AC,SN
  5884	035647	312 10 0 00 000005 		CAME	AC+1,AC-2	;TEST LOW SUM
  5885	035650	004 10 0 00 034114 		ER4	AC+1,SN		;FADL FAILED
  5886	035651	321 11 0 00 035640 		JUMPL	AC+2,.-^D9	;LOOP ON ERROR SWITCH
  5887
  5888
  5889			034115		SN=SN+1
  5890			162000			WW=WW+1000
  5891			215400			XX=XX+1000
  5892			010000			ZZ=ZZ+ZZ
  5893						IFE	ZZ,<ZZ=1>
  5894	035652	205 05 0 00 162400 		MOVSI	AC-2,400+WW	;SETUP FOR COMPARISON
  5895	035653	505 07 0 00 200000 		HRLI	AC,200000	;SETUP
  5896	035654	541 07 0 00 010000 		HRRI	AC,ZZ		;AC
  5897	035655	205 06 0 00 215400 		MOVSI	AC-1,XX		;SETUP BR
  5898	035656	141 07 0 00 000006 		FADL	AC,AC-1		;C(AC)+C(E)
  5899	035657	312 07 0 00 000006 		CAME	AC,AC-1		;TEST HIGH SUM
  5900	035660	003 07 0 00 034115 		ER3	AC,SN
  5901	035661	312 10 0 00 000005 		CAME	AC+1,AC-2	;TEST LOW SUM
  5902	035662	004 10 0 00 034115 		ER4	AC+1,SN		;FADL FAILED
  5903	035663	321 11 0 00 035652 		JUMPL	AC+2,.-^D9	;LOOP ON ERROR SWITCH
  5904
  5905
  5906			034116		SN=SN+1
  5907			163000			WW=WW+1000
  5908			216400			XX=XX+1000
  5909			020000			ZZ=ZZ+ZZ
  5910						IFE	ZZ,<ZZ=1>
  5911	035664	205 05 0 00 163400 		MOVSI	AC-2,400+WW	;SETUP FOR COMPARISON
  5912	035665	505 07 0 00 200000 		HRLI	AC,200000	;SETUP
  5913	035666	541 07 0 00 020000 		HRRI	AC,ZZ		;AC
  5914	035667	205 06 0 00 216400 		MOVSI	AC-1,XX		;SETUP BR
  5915	035670	141 07 0 00 000006 		FADL	AC,AC-1		;C(AC)+C(E)
  5916	035671	312 07 0 00 000006 		CAME	AC,AC-1		;TEST HIGH SUM
  5917	035672	003 07 0 00 034116 		ER3	AC,SN
  5918	035673	312 10 0 00 000005 		CAME	AC+1,AC-2	;TEST LOW SUM
  5919	035674	004 10 0 00 034116 		ER4	AC+1,SN		;FADL FAILED
DAKCA	PDP-10 KA10 ADVANCED INSTRUCTION DIAGNOSTIC #1, VER 0,2	MACRO %52(537) 12:25 21-JAN-77 PAGE 67-5
DAKCAM	MAC	21-JAN-77 11:41		PART I.E-GEN TEST-FSC,FAD,FSB AND UFA                                              SEQ 0155

  5920	035675	321 11 0 00 035664 		JUMPL	AC+2,.-^D9	;LOOP ON ERROR SWITCH
  5921
  5922
  5923			034117		SN=SN+1
  5924			164000			WW=WW+1000
  5925			217400			XX=XX+1000
  5926			040000			ZZ=ZZ+ZZ
  5927						IFE	ZZ,<ZZ=1>
  5928	035676	205 05 0 00 164400 		MOVSI	AC-2,400+WW	;SETUP FOR COMPARISON
  5929	035677	505 07 0 00 200000 		HRLI	AC,200000	;SETUP
  5930	035700	541 07 0 00 040000 		HRRI	AC,ZZ		;AC
  5931	035701	205 06 0 00 217400 		MOVSI	AC-1,XX		;SETUP BR
  5932	035702	141 07 0 00 000006 		FADL	AC,AC-1		;C(AC)+C(E)
  5933	035703	312 07 0 00 000006 		CAME	AC,AC-1		;TEST HIGH SUM
  5934	035704	003 07 0 00 034117 		ER3	AC,SN
  5935	035705	312 10 0 00 000005 		CAME	AC+1,AC-2	;TEST LOW SUM
  5936	035706	004 10 0 00 034117 		ER4	AC+1,SN		;FADL FAILED
  5937	035707	321 11 0 00 035676 		JUMPL	AC+2,.-^D9	;LOOP ON ERROR SWITCH
  5938
  5939
  5940			034120		SN=SN+1
  5941			165000			WW=WW+1000
  5942			220400			XX=XX+1000
  5943			100000			ZZ=ZZ+ZZ
  5944						IFE	ZZ,<ZZ=1>
  5945	035710	205 05 0 00 165400 		MOVSI	AC-2,400+WW	;SETUP FOR COMPARISON
  5946	035711	505 07 0 00 200000 		HRLI	AC,200000	;SETUP
  5947	035712	541 07 0 00 100000 		HRRI	AC,ZZ		;AC
  5948	035713	205 06 0 00 220400 		MOVSI	AC-1,XX		;SETUP BR
  5949	035714	141 07 0 00 000006 		FADL	AC,AC-1		;C(AC)+C(E)
  5950	035715	312 07 0 00 000006 		CAME	AC,AC-1		;TEST HIGH SUM
  5951	035716	003 07 0 00 034120 		ER3	AC,SN
  5952	035717	312 10 0 00 000005 		CAME	AC+1,AC-2	;TEST LOW SUM
  5953	035720	004 10 0 00 034120 		ER4	AC+1,SN		;FADL FAILED
  5954	035721	321 11 0 00 035710 		JUMPL	AC+2,.-^D9	;LOOP ON ERROR SWITCH
  5955
  5956
  5957			034121		SN=SN+1
  5958			166000			WW=WW+1000
  5959			221400			XX=XX+1000
  5960			200000			ZZ=ZZ+ZZ
  5961						IFE	ZZ,<ZZ=1>
  5962	035722	205 05 0 00 166400 		MOVSI	AC-2,400+WW	;SETUP FOR COMPARISON
  5963	035723	505 07 0 00 200000 		HRLI	AC,200000	;SETUP
  5964	035724	541 07 0 00 200000 		HRRI	AC,ZZ		;AC
  5965	035725	205 06 0 00 221400 		MOVSI	AC-1,XX		;SETUP BR
  5966	035726	141 07 0 00 000006 		FADL	AC,AC-1		;C(AC)+C(E)
  5967	035727	312 07 0 00 000006 		CAME	AC,AC-1		;TEST HIGH SUM
  5968	035730	003 07 0 00 034121 		ER3	AC,SN
  5969	035731	312 10 0 00 000005 		CAME	AC+1,AC-2	;TEST LOW SUM
  5970	035732	004 10 0 00 034121 		ER4	AC+1,SN		;FADL FAILED
  5971	035733	321 11 0 00 035722 		JUMPL	AC+2,.-^D9	;LOOP ON ERROR SWITCH
  5972
  5973
  5974			034122		SN=SN+1
DAKCA	PDP-10 KA10 ADVANCED INSTRUCTION DIAGNOSTIC #1, VER 0,2	MACRO %52(537) 12:25 21-JAN-77 PAGE 67-6
DAKCAM	MAC	21-JAN-77 11:41		PART I.E-GEN TEST-FSC,FAD,FSB AND UFA                                              SEQ 0156

  5975			167000			WW=WW+1000
  5976			222400			XX=XX+1000
  5977			400000			ZZ=ZZ+ZZ
  5978						IFE	ZZ,<ZZ=1>
  5979	035734	205 05 0 00 167400 		MOVSI	AC-2,400+WW	;SETUP FOR COMPARISON
  5980	035735	505 07 0 00 200000 		HRLI	AC,200000	;SETUP
  5981	035736	541 07 0 00 400000 		HRRI	AC,ZZ		;AC
  5982	035737	205 06 0 00 222400 		MOVSI	AC-1,XX		;SETUP BR
  5983	035740	141 07 0 00 000006 		FADL	AC,AC-1		;C(AC)+C(E)
  5984	035741	312 07 0 00 000006 		CAME	AC,AC-1		;TEST HIGH SUM
  5985	035742	003 07 0 00 034122 		ER3	AC,SN
  5986	035743	312 10 0 00 000005 		CAME	AC+1,AC-2	;TEST LOW SUM
  5987	035744	004 10 0 00 034122 		ER4	AC+1,SN		;FADL FAILED
  5988	035745	321 11 0 00 035734 		JUMPL	AC+2,.-^D9	;LOOP ON ERROR SWITCH
  5989
  5990					PAGE
DAKCA	PDP-10 KA10 ADVANCED INSTRUCTION DIAGNOSTIC #1, VER 0,2	MACRO %52(537) 12:25 21-JAN-77 PAGE 67-7
DAKCAM	MAC	21-JAN-77 11:41		PART I.E-GEN TEST-FSC,FAD,FSB AND UFA                                              SEQ 0157

  5991			034200		SN=34200
  5992			000000			ZZ=0
  5993
  5994							;TEST BIT 9-17(1)
  5995					O34200:	REPEAT	^D9,<
  5996					SN=SN+1
  5997						WW=WW+1000
  5998						XX=XX+1000
  5999						ZZ=ZZ+ZZ
  6000						IFE	ZZ,<ZZ=1>
  6001						MOVSI	AC-2,400+WW	;SETUP FOR COMPARISON
  6002						MOVSI	AC,200000+ZZ	;SETUP AC
  6003						MOVSI	AC-1,XX		;SETUP BR
  6004						FADL	AC,AC-1		;C(AC)+C(E)
  6005						CAME	AC,AC-1		;TEST HIGH SUM
  6006						ER3	AC,SN
  6007						CAME	AC+1,AC-2	;TEST LOW SUM
  6008						ER4	AC+1,SN		;FADL FAILED
  6009						JUMPL	AC+2,.-^D8	;LOOP ON ERROR SWITCH
  6010					>
  6011
  6012			034201		SN=SN+1
  6013			170000			WW=WW+1000
  6014			223400			XX=XX+1000
  6015			000000			ZZ=ZZ+ZZ
  6016			000001			IFE	ZZ,<ZZ=1>
  6017	035746	205 05 0 00 170400 		MOVSI	AC-2,400+WW	;SETUP FOR COMPARISON
  6018	035747	205 07 0 00 200001 		MOVSI	AC,200000+ZZ	;SETUP AC
  6019	035750	205 06 0 00 223400 		MOVSI	AC-1,XX		;SETUP BR
  6020	035751	141 07 0 00 000006 		FADL	AC,AC-1		;C(AC)+C(E)
  6021	035752	312 07 0 00 000006 		CAME	AC,AC-1		;TEST HIGH SUM
  6022	035753	003 07 0 00 034201 		ER3	AC,SN
  6023	035754	312 10 0 00 000005 		CAME	AC+1,AC-2	;TEST LOW SUM
  6024	035755	004 10 0 00 034201 		ER4	AC+1,SN		;FADL FAILED
  6025	035756	321 11 0 00 035746 		JUMPL	AC+2,.-^D8	;LOOP ON ERROR SWITCH
  6026
  6027
  6028			034202		SN=SN+1
  6029			171000			WW=WW+1000
  6030			224400			XX=XX+1000
  6031			000002			ZZ=ZZ+ZZ
  6032						IFE	ZZ,<ZZ=1>
  6033	035757	205 05 0 00 171400 		MOVSI	AC-2,400+WW	;SETUP FOR COMPARISON
  6034	035760	205 07 0 00 200002 		MOVSI	AC,200000+ZZ	;SETUP AC
  6035	035761	205 06 0 00 224400 		MOVSI	AC-1,XX		;SETUP BR
  6036	035762	141 07 0 00 000006 		FADL	AC,AC-1		;C(AC)+C(E)
  6037	035763	312 07 0 00 000006 		CAME	AC,AC-1		;TEST HIGH SUM
  6038	035764	003 07 0 00 034202 		ER3	AC,SN
  6039	035765	312 10 0 00 000005 		CAME	AC+1,AC-2	;TEST LOW SUM
  6040	035766	004 10 0 00 034202 		ER4	AC+1,SN		;FADL FAILED
  6041	035767	321 11 0 00 035757 		JUMPL	AC+2,.-^D8	;LOOP ON ERROR SWITCH
  6042
  6043
  6044			034203		SN=SN+1
  6045			172000			WW=WW+1000
DAKCA	PDP-10 KA10 ADVANCED INSTRUCTION DIAGNOSTIC #1, VER 0,2	MACRO %52(537) 12:25 21-JAN-77 PAGE 67-8
DAKCAM	MAC	21-JAN-77 11:41		PART I.E-GEN TEST-FSC,FAD,FSB AND UFA                                              SEQ 0158

  6046			225400			XX=XX+1000
  6047			000004			ZZ=ZZ+ZZ
  6048						IFE	ZZ,<ZZ=1>
  6049	035770	205 05 0 00 172400 		MOVSI	AC-2,400+WW	;SETUP FOR COMPARISON
  6050	035771	205 07 0 00 200004 		MOVSI	AC,200000+ZZ	;SETUP AC
  6051	035772	205 06 0 00 225400 		MOVSI	AC-1,XX		;SETUP BR
  6052	035773	141 07 0 00 000006 		FADL	AC,AC-1		;C(AC)+C(E)
  6053	035774	312 07 0 00 000006 		CAME	AC,AC-1		;TEST HIGH SUM
  6054	035775	003 07 0 00 034203 		ER3	AC,SN
  6055	035776	312 10 0 00 000005 		CAME	AC+1,AC-2	;TEST LOW SUM
  6056	035777	004 10 0 00 034203 		ER4	AC+1,SN		;FADL FAILED
  6057	036000	321 11 0 00 035770 		JUMPL	AC+2,.-^D8	;LOOP ON ERROR SWITCH
  6058
  6059
  6060			034204		SN=SN+1
  6061			173000			WW=WW+1000
  6062			226400			XX=XX+1000
  6063			000010			ZZ=ZZ+ZZ
  6064						IFE	ZZ,<ZZ=1>
  6065	036001	205 05 0 00 173400 		MOVSI	AC-2,400+WW	;SETUP FOR COMPARISON
  6066	036002	205 07 0 00 200010 		MOVSI	AC,200000+ZZ	;SETUP AC
  6067	036003	205 06 0 00 226400 		MOVSI	AC-1,XX		;SETUP BR
  6068	036004	141 07 0 00 000006 		FADL	AC,AC-1		;C(AC)+C(E)
  6069	036005	312 07 0 00 000006 		CAME	AC,AC-1		;TEST HIGH SUM
  6070	036006	003 07 0 00 034204 		ER3	AC,SN
  6071	036007	312 10 0 00 000005 		CAME	AC+1,AC-2	;TEST LOW SUM
  6072	036010	004 10 0 00 034204 		ER4	AC+1,SN		;FADL FAILED
  6073	036011	321 11 0 00 036001 		JUMPL	AC+2,.-^D8	;LOOP ON ERROR SWITCH
  6074
  6075
  6076			034205		SN=SN+1
  6077			174000			WW=WW+1000
  6078			227400			XX=XX+1000
  6079			000020			ZZ=ZZ+ZZ
  6080						IFE	ZZ,<ZZ=1>
  6081	036012	205 05 0 00 174400 		MOVSI	AC-2,400+WW	;SETUP FOR COMPARISON
  6082	036013	205 07 0 00 200020 		MOVSI	AC,200000+ZZ	;SETUP AC
  6083	036014	205 06 0 00 227400 		MOVSI	AC-1,XX		;SETUP BR
  6084	036015	141 07 0 00 000006 		FADL	AC,AC-1		;C(AC)+C(E)
  6085	036016	312 07 0 00 000006 		CAME	AC,AC-1		;TEST HIGH SUM
  6086	036017	003 07 0 00 034205 		ER3	AC,SN
  6087	036020	312 10 0 00 000005 		CAME	AC+1,AC-2	;TEST LOW SUM
  6088	036021	004 10 0 00 034205 		ER4	AC+1,SN		;FADL FAILED
  6089	036022	321 11 0 00 036012 		JUMPL	AC+2,.-^D8	;LOOP ON ERROR SWITCH
  6090
  6091
  6092			034206		SN=SN+1
  6093			175000			WW=WW+1000
  6094			230400			XX=XX+1000
  6095			000040			ZZ=ZZ+ZZ
  6096						IFE	ZZ,<ZZ=1>
  6097	036023	205 05 0 00 175400 		MOVSI	AC-2,400+WW	;SETUP FOR COMPARISON
  6098	036024	205 07 0 00 200040 		MOVSI	AC,200000+ZZ	;SETUP AC
  6099	036025	205 06 0 00 230400 		MOVSI	AC-1,XX		;SETUP BR
  6100	036026	141 07 0 00 000006 		FADL	AC,AC-1		;C(AC)+C(E)
DAKCA	PDP-10 KA10 ADVANCED INSTRUCTION DIAGNOSTIC #1, VER 0,2	MACRO %52(537) 12:25 21-JAN-77 PAGE 67-9
DAKCAM	MAC	21-JAN-77 11:41		PART I.E-GEN TEST-FSC,FAD,FSB AND UFA                                              SEQ 0159

  6101	036027	312 07 0 00 000006 		CAME	AC,AC-1		;TEST HIGH SUM
  6102	036030	003 07 0 00 034206 		ER3	AC,SN
  6103	036031	312 10 0 00 000005 		CAME	AC+1,AC-2	;TEST LOW SUM
  6104	036032	004 10 0 00 034206 		ER4	AC+1,SN		;FADL FAILED
  6105	036033	321 11 0 00 036023 		JUMPL	AC+2,.-^D8	;LOOP ON ERROR SWITCH
  6106
  6107
  6108			034207		SN=SN+1
  6109			176000			WW=WW+1000
  6110			231400			XX=XX+1000
  6111			000100			ZZ=ZZ+ZZ
  6112						IFE	ZZ,<ZZ=1>
  6113	036034	205 05 0 00 176400 		MOVSI	AC-2,400+WW	;SETUP FOR COMPARISON
  6114	036035	205 07 0 00 200100 		MOVSI	AC,200000+ZZ	;SETUP AC
  6115	036036	205 06 0 00 231400 		MOVSI	AC-1,XX		;SETUP BR
  6116	036037	141 07 0 00 000006 		FADL	AC,AC-1		;C(AC)+C(E)
  6117	036040	312 07 0 00 000006 		CAME	AC,AC-1		;TEST HIGH SUM
  6118	036041	003 07 0 00 034207 		ER3	AC,SN
  6119	036042	312 10 0 00 000005 		CAME	AC+1,AC-2	;TEST LOW SUM
  6120	036043	004 10 0 00 034207 		ER4	AC+1,SN		;FADL FAILED
  6121	036044	321 11 0 00 036034 		JUMPL	AC+2,.-^D8	;LOOP ON ERROR SWITCH
  6122
  6123
  6124			034210		SN=SN+1
  6125			177000			WW=WW+1000
  6126			232400			XX=XX+1000
  6127			000200			ZZ=ZZ+ZZ
  6128						IFE	ZZ,<ZZ=1>
  6129	036045	205 05 0 00 177400 		MOVSI	AC-2,400+WW	;SETUP FOR COMPARISON
  6130	036046	205 07 0 00 200200 		MOVSI	AC,200000+ZZ	;SETUP AC
  6131	036047	205 06 0 00 232400 		MOVSI	AC-1,XX		;SETUP BR
  6132	036050	141 07 0 00 000006 		FADL	AC,AC-1		;C(AC)+C(E)
  6133	036051	312 07 0 00 000006 		CAME	AC,AC-1		;TEST HIGH SUM
  6134	036052	003 07 0 00 034210 		ER3	AC,SN
  6135	036053	312 10 0 00 000005 		CAME	AC+1,AC-2	;TEST LOW SUM
  6136	036054	004 10 0 00 034210 		ER4	AC+1,SN		;FADL FAILED
  6137	036055	321 11 0 00 036045 		JUMPL	AC+2,.-^D8	;LOOP ON ERROR SWITCH
  6138
  6139
  6140			034211		SN=SN+1
  6141			200000			WW=WW+1000
  6142			233400			XX=XX+1000
  6143			000400			ZZ=ZZ+ZZ
  6144						IFE	ZZ,<ZZ=1>
  6145	036056	205 05 0 00 200400 		MOVSI	AC-2,400+WW	;SETUP FOR COMPARISON
  6146	036057	205 07 0 00 200400 		MOVSI	AC,200000+ZZ	;SETUP AC
  6147	036060	205 06 0 00 233400 		MOVSI	AC-1,XX		;SETUP BR
  6148	036061	141 07 0 00 000006 		FADL	AC,AC-1		;C(AC)+C(E)
  6149	036062	312 07 0 00 000006 		CAME	AC,AC-1		;TEST HIGH SUM
  6150	036063	003 07 0 00 034211 		ER3	AC,SN
  6151	036064	312 10 0 00 000005 		CAME	AC+1,AC-2	;TEST LOW SUM
  6152	036065	004 10 0 00 034211 		ER4	AC+1,SN		;FADL FAILED
  6153	036066	321 11 0 00 036056 		JUMPL	AC+2,.-^D8	;LOOP ON ERROR SWITCH
  6154
DAKCA	PDP-10 KA10 ADVANCED INSTRUCTION DIAGNOSTIC #1, VER 0,2	MACRO %52(537) 12:25 21-JAN-77 PAGE 68
DAKCAM	MAC	21-JAN-77 11:41		PART I.E-GEN TEST-FSC,FAD,FSB AND UFA                                              SEQ 0160

  6155					;TEST FADL
  6156					;NR SHRT COND
  6157					;TEST AR35, MQ8 SHIFT CONN
  6158					;AR=200400000000
  6159					;BR=200400000001
  6160					;HIGH SUM=201400000000
  6161					;LOW SUM=146400000000
  6162
  6163			000006			AC=6
  6164						SAVEAC	(1,1)^
  6165	036067	201 10 0 00 036067 		MOVEI	AC+2,.
  6166	036070	202 10 0 00 030051 		MOVEM	AC+2,TESTPC	;SETUP SUBTEST PC
  6167	036071	201 10 0 00 000010 		MOVEI	AC+2,<AC+2>&17	;INFORM ERROR ROUTINE WHICH
  6168	036072	202 10 0 00 040244 		MOVEM	AC+2,ERRLOP#	;AC IS USED FOR ITERATION^
  6169
  6170	036073	205 04 0 00 201400 	O34300:	MOVSI	AC-2,201400	;SETUP FOR COMPARISON
  6171	036074	205 06 0 00 200400 		MOVSI	AC,200400	;SETUP AC
  6172	036075	505 05 0 00 200400 		HRLI	AC-1,200400	;SETUP
  6173	036076	541 05 0 00 000001 		HRRI	AC-1,1		;BR
  6174	036077	141 06 0 00 000005 		FADL	AC,AC-1		;C(AC)+C(E)
  6175	036100	312 06 0 00 000004 		CAME	AC,AC-2		;TEST HIGH SUM
  6176	036101	003 06 0 00 034301 		ER3	AC,34301	;HIGH SUM ERROR
  6177	036102	205 04 0 00 146400 		MOVSI	AC-2,146400	;SETUP FOR COMPARISON
  6178	036103	312 07 0 00 000004 		CAME	AC+1,AC-2	;TEST LOW SUM
  6179	036104	004 07 0 00 034301 		ER4	AC+1,34301	;LOW SUM ERROR
  6180	036105	312 05 0 00 040043 		CAME	AC-1,[200400,,1]	;VERIFY THAT C(E) IS UNCHANGED
  6181	036106	005 05 0 00 034301 		ER5	AC-1,34301	;FAILURE, C(E) WAS CLOBBERED
  6182	036107	321 10 0 00 036073 		JUMPL	AC+2,O34300	;LOOP ON ERROR SWITCH
  6183
  6184					;TEST FADM
  6185					;AR=200400000000 (+1/2)
  6186					;BR=201400000000 (+1)
  6187					;SUM=201600000000 (+1 1/2)
  6188
  6189			000014			AC=14
  6190						SAVEAC	(1,1)^
  6191	036110	201 16 0 00 036110 		MOVEI	AC+2,.
  6192	036111	202 16 0 00 030051 		MOVEM	AC+2,TESTPC	;SETUP SUBTEST PC
  6193	036112	201 16 0 00 000016 		MOVEI	AC+2,<AC+2>&17	;INFORM ERROR ROUTINE WHICH
  6194	036113	202 16 0 00 040244 		MOVEM	AC+2,ERRLOP#	;AC IS USED FOR ITERATION^
  6195
  6196	036114	205 12 0 00 201600 	O34400:	MOVSI	AC-2,201600	;SETUP FOR COMPARISON
  6197	036115	205 14 0 00 200400 		MOVSI	AC,200400	;SETUP AC
  6198	036116	205 13 0 00 201400 		MOVSI	AC-1,201400	;SETUP BR
  6199	036117	142 14 0 00 000013 		FADM	AC,AC-1		;C(AC)+C(E)
  6200	036120	312 13 0 00 000012 		CAME	AC-1,AC-2	;TEST SUM
  6201	036121	005 13 0 00 034401 		ER5	AC-1,34401	;FADM FAILED
  6202	036122	312 14 0 00 040044 		CAME	AC,[200400,,0]	;VERIFY THAT C(AC) IS UNCHANGED
  6203	036123	003 14 0 00 034401 		ER3	AC,34401	;FAILURE, C(AC) WAS CLOBBERED
  6204	036124	321 16 0 00 036114 		JUMPL	AC+2,O34400	;LOOP ON ERROR SWITCH
  6205					PAGE
DAKCA	PDP-10 KA10 ADVANCED INSTRUCTION DIAGNOSTIC #1, VER 0,2	MACRO %52(537) 12:25 21-JAN-77 PAGE 68-1
DAKCAM	MAC	21-JAN-77 11:41		PART I.E-GEN TEST-FSC,FAD,FSB AND UFA                                              SEQ 0161

  6206					;TEST FADB
  6207					;AR=200400000000 (+1/2)
  6208					;BR=201400000000 (+1)
  6209					;SUM =201600000000 (+1 1/2)
  6210
  6211			000014			AC=14
  6212						SAVEAC	(1,1)^
  6213	036125	201 16 0 00 036125 		MOVEI	AC+2,.
  6214	036126	202 16 0 00 030051 		MOVEM	AC+2,TESTPC	;SETUP SUBTEST PC
  6215	036127	201 16 0 00 000016 		MOVEI	AC+2,<AC+2>&17	;INFORM ERROR ROUTINE WHICH
  6216	036130	202 16 0 00 040244 		MOVEM	AC+2,ERRLOP#	;AC IS USED FOR ITERATION^
  6217
  6218	036131	205 12 0 00 201600 	O34500:	MOVSI	AC-2,201600	;SETUP FOR COMPARISON
  6219	036132	205 14 0 00 200400 		MOVSI	AC,200400	;SETUP AC
  6220	036133	205 13 0 00 201400 		MOVSI	AC-1,201400	;SETUP BR
  6221	036134	143 14 0 00 000013 		FADB	AC,AC-1		;C(AC)+C(E)
  6222	036135	312 14 0 00 000012 		CAME	AC,AC-2		;TEST C(AC)
  6223	036136	003 14 0 00 034501 		ER3	AC,34501
  6224	036137	312 13 0 00 000012 		CAME	AC-1,AC-2	;TEST C(E)
  6225	036140	005 13 0 00 034501 		ER5	AC-1,34501	;FADB FAILED
  6226	036141	321 16 0 00 036131 		JUMPL	AC+2,O34500	;LOOP ON ERROR SWITCH
DAKCA	PDP-10 KA10 ADVANCED INSTRUCTION DIAGNOSTIC #1, VER 0,2	MACRO %52(537) 12:25 21-JAN-77 PAGE 69
DAKCAM	MAC	21-JAN-77 11:41		PART I.E-GEN TEST-FSC,FAD,FSB AND UFA                                              SEQ 0162

  6227					;TEST FADR
  6228					;TEST ROUNDING
  6229					;AR=200000000003,5,11, ETC
  6230					;BR=202400000000, EXPONENT INCREASING BY 1
  6231					;SUM=C(BR)+1
  6232
  6233			000013			AC=13
  6234						SAVEAC	(1,1)^
  6235	036142	201 15 0 00 036142 		MOVEI	AC+2,.
  6236	036143	202 15 0 00 030051 		MOVEM	AC+2,TESTPC	;SETUP SUBTEST PC
  6237	036144	201 15 0 00 000015 		MOVEI	AC+2,<AC+2>&17	;INFORM ERROR ROUTINE WHICH
  6238	036145	202 15 0 00 040244 		MOVEM	AC+2,ERRLOP#	;AC IS USED FOR ITERATION^
  6239
  6240			034600		SN=34600
  6241			201400			XX=201400
  6242			000001			ZZ=1
  6243
  6244							;TEST MQ RIGHT
  6245					O34600:	REPEAT  ^D17,<
  6246					SN=SN+1
  6247						XX=XX+1000
  6248						ZZ=ZZ+ZZ
  6249						HRLI	AC-2,XX		;SETUP AC-2
  6250						HRRI	AC-2,1		;FOR COMPARISON
  6251						HRLI	AC,200000	;SETUP
  6252						HRRI	AC,ZZ		;AC
  6253						AOJ	AC,		;SET BIT 35
  6254						MOVSI	AC-1,XX		;SETUP BR
  6255						FADR	AC,AC-1		;C(AC)+C(E)
  6256						CAME	AC,AC-2		;TEST SUM
  6257						ER3	AC,SN		;FADR FAILED
  6258						CAME	AC-1,[XX,,0]	;VERIFY THAT C(E) IS UNCHANGED
  6259						ER5	AC-1,SN		;FAILURE, C(E) WAS CLOBBERED
  6260						JUMPL	AC+2,.-^D11	;LOOP ON ERROR SWITCH
  6261					>
  6262
  6263			034601		SN=SN+1
  6264			202400			XX=XX+1000
  6265			000002			ZZ=ZZ+ZZ
  6266	036146	505 11 0 00 202400 		HRLI	AC-2,XX		;SETUP AC-2
  6267	036147	541 11 0 00 000001 		HRRI	AC-2,1		;FOR COMPARISON
  6268	036150	505 13 0 00 200000 		HRLI	AC,200000	;SETUP
  6269	036151	541 13 0 00 000002 		HRRI	AC,ZZ		;AC
  6270	036152	340 13 0 00 000000 		AOJ	AC,		;SET BIT 35
  6271	036153	205 12 0 00 202400 		MOVSI	AC-1,XX		;SETUP BR
  6272	036154	144 13 0 00 000012 		FADR	AC,AC-1		;C(AC)+C(E)
  6273	036155	312 13 0 00 000011 		CAME	AC,AC-2		;TEST SUM
  6274	036156	003 13 0 00 034601 		ER3	AC,SN		;FADR FAILED
  6275	036157	312 12 0 00 040045 		CAME	AC-1,[XX,,0]	;VERIFY THAT C(E) IS UNCHANGED
  6276	036160	005 12 0 00 034601 		ER5	AC-1,SN		;FAILURE, C(E) WAS CLOBBERED
  6277	036161	321 15 0 00 036146 		JUMPL	AC+2,.-^D11	;LOOP ON ERROR SWITCH
  6278
  6279
  6280			034602		SN=SN+1
  6281			203400			XX=XX+1000
DAKCA	PDP-10 KA10 ADVANCED INSTRUCTION DIAGNOSTIC #1, VER 0,2	MACRO %52(537) 12:25 21-JAN-77 PAGE 69-1
DAKCAM	MAC	21-JAN-77 11:41		PART I.E-GEN TEST-FSC,FAD,FSB AND UFA                                              SEQ 0163

  6282			000004			ZZ=ZZ+ZZ
  6283	036162	505 11 0 00 203400 		HRLI	AC-2,XX		;SETUP AC-2
  6284	036163	541 11 0 00 000001 		HRRI	AC-2,1		;FOR COMPARISON
  6285	036164	505 13 0 00 200000 		HRLI	AC,200000	;SETUP
  6286	036165	541 13 0 00 000004 		HRRI	AC,ZZ		;AC
  6287	036166	340 13 0 00 000000 		AOJ	AC,		;SET BIT 35
  6288	036167	205 12 0 00 203400 		MOVSI	AC-1,XX		;SETUP BR
  6289	036170	144 13 0 00 000012 		FADR	AC,AC-1		;C(AC)+C(E)
  6290	036171	312 13 0 00 000011 		CAME	AC,AC-2		;TEST SUM
  6291	036172	003 13 0 00 034602 		ER3	AC,SN		;FADR FAILED
  6292	036173	312 12 0 00 040046 		CAME	AC-1,[XX,,0]	;VERIFY THAT C(E) IS UNCHANGED
  6293	036174	005 12 0 00 034602 		ER5	AC-1,SN		;FAILURE, C(E) WAS CLOBBERED
  6294	036175	321 15 0 00 036162 		JUMPL	AC+2,.-^D11	;LOOP ON ERROR SWITCH
  6295
  6296
  6297			034603		SN=SN+1
  6298			204400			XX=XX+1000
  6299			000010			ZZ=ZZ+ZZ
  6300	036176	505 11 0 00 204400 		HRLI	AC-2,XX		;SETUP AC-2
  6301	036177	541 11 0 00 000001 		HRRI	AC-2,1		;FOR COMPARISON
  6302	036200	505 13 0 00 200000 		HRLI	AC,200000	;SETUP
  6303	036201	541 13 0 00 000010 		HRRI	AC,ZZ		;AC
  6304	036202	340 13 0 00 000000 		AOJ	AC,		;SET BIT 35
  6305	036203	205 12 0 00 204400 		MOVSI	AC-1,XX		;SETUP BR
  6306	036204	144 13 0 00 000012 		FADR	AC,AC-1		;C(AC)+C(E)
  6307	036205	312 13 0 00 000011 		CAME	AC,AC-2		;TEST SUM
  6308	036206	003 13 0 00 034603 		ER3	AC,SN		;FADR FAILED
  6309	036207	312 12 0 00 040047 		CAME	AC-1,[XX,,0]	;VERIFY THAT C(E) IS UNCHANGED
  6310	036210	005 12 0 00 034603 		ER5	AC-1,SN		;FAILURE, C(E) WAS CLOBBERED
  6311	036211	321 15 0 00 036176 		JUMPL	AC+2,.-^D11	;LOOP ON ERROR SWITCH
  6312
  6313
  6314			034604		SN=SN+1
  6315			205400			XX=XX+1000
  6316			000020			ZZ=ZZ+ZZ
  6317	036212	505 11 0 00 205400 		HRLI	AC-2,XX		;SETUP AC-2
  6318	036213	541 11 0 00 000001 		HRRI	AC-2,1		;FOR COMPARISON
  6319	036214	505 13 0 00 200000 		HRLI	AC,200000	;SETUP
  6320	036215	541 13 0 00 000020 		HRRI	AC,ZZ		;AC
  6321	036216	340 13 0 00 000000 		AOJ	AC,		;SET BIT 35
  6322	036217	205 12 0 00 205400 		MOVSI	AC-1,XX		;SETUP BR
  6323	036220	144 13 0 00 000012 		FADR	AC,AC-1		;C(AC)+C(E)
  6324	036221	312 13 0 00 000011 		CAME	AC,AC-2		;TEST SUM
  6325	036222	003 13 0 00 034604 		ER3	AC,SN		;FADR FAILED
  6326	036223	312 12 0 00 040050 		CAME	AC-1,[XX,,0]	;VERIFY THAT C(E) IS UNCHANGED
  6327	036224	005 12 0 00 034604 		ER5	AC-1,SN		;FAILURE, C(E) WAS CLOBBERED
  6328	036225	321 15 0 00 036212 		JUMPL	AC+2,.-^D11	;LOOP ON ERROR SWITCH
  6329
  6330
  6331			034605		SN=SN+1
  6332			206400			XX=XX+1000
  6333			000040			ZZ=ZZ+ZZ
  6334	036226	505 11 0 00 206400 		HRLI	AC-2,XX		;SETUP AC-2
  6335	036227	541 11 0 00 000001 		HRRI	AC-2,1		;FOR COMPARISON
  6336	036230	505 13 0 00 200000 		HRLI	AC,200000	;SETUP
DAKCA	PDP-10 KA10 ADVANCED INSTRUCTION DIAGNOSTIC #1, VER 0,2	MACRO %52(537) 12:25 21-JAN-77 PAGE 69-2
DAKCAM	MAC	21-JAN-77 11:41		PART I.E-GEN TEST-FSC,FAD,FSB AND UFA                                              SEQ 0164

  6337	036231	541 13 0 00 000040 		HRRI	AC,ZZ		;AC
  6338	036232	340 13 0 00 000000 		AOJ	AC,		;SET BIT 35
  6339	036233	205 12 0 00 206400 		MOVSI	AC-1,XX		;SETUP BR
  6340	036234	144 13 0 00 000012 		FADR	AC,AC-1		;C(AC)+C(E)
  6341	036235	312 13 0 00 000011 		CAME	AC,AC-2		;TEST SUM
  6342	036236	003 13 0 00 034605 		ER3	AC,SN		;FADR FAILED
  6343	036237	312 12 0 00 040051 		CAME	AC-1,[XX,,0]	;VERIFY THAT C(E) IS UNCHANGED
  6344	036240	005 12 0 00 034605 		ER5	AC-1,SN		;FAILURE, C(E) WAS CLOBBERED
  6345	036241	321 15 0 00 036226 		JUMPL	AC+2,.-^D11	;LOOP ON ERROR SWITCH
  6346
  6347
  6348			034606		SN=SN+1
  6349			207400			XX=XX+1000
  6350			000100			ZZ=ZZ+ZZ
  6351	036242	505 11 0 00 207400 		HRLI	AC-2,XX		;SETUP AC-2
  6352	036243	541 11 0 00 000001 		HRRI	AC-2,1		;FOR COMPARISON
  6353	036244	505 13 0 00 200000 		HRLI	AC,200000	;SETUP
  6354	036245	541 13 0 00 000100 		HRRI	AC,ZZ		;AC
  6355	036246	340 13 0 00 000000 		AOJ	AC,		;SET BIT 35
  6356	036247	205 12 0 00 207400 		MOVSI	AC-1,XX		;SETUP BR
  6357	036250	144 13 0 00 000012 		FADR	AC,AC-1		;C(AC)+C(E)
  6358	036251	312 13 0 00 000011 		CAME	AC,AC-2		;TEST SUM
  6359	036252	003 13 0 00 034606 		ER3	AC,SN		;FADR FAILED
  6360	036253	312 12 0 00 040052 		CAME	AC-1,[XX,,0]	;VERIFY THAT C(E) IS UNCHANGED
  6361	036254	005 12 0 00 034606 		ER5	AC-1,SN		;FAILURE, C(E) WAS CLOBBERED
  6362	036255	321 15 0 00 036242 		JUMPL	AC+2,.-^D11	;LOOP ON ERROR SWITCH
  6363
  6364
  6365			034607		SN=SN+1
  6366			210400			XX=XX+1000
  6367			000200			ZZ=ZZ+ZZ
  6368	036256	505 11 0 00 210400 		HRLI	AC-2,XX		;SETUP AC-2
  6369	036257	541 11 0 00 000001 		HRRI	AC-2,1		;FOR COMPARISON
  6370	036260	505 13 0 00 200000 		HRLI	AC,200000	;SETUP
  6371	036261	541 13 0 00 000200 		HRRI	AC,ZZ		;AC
  6372	036262	340 13 0 00 000000 		AOJ	AC,		;SET BIT 35
  6373	036263	205 12 0 00 210400 		MOVSI	AC-1,XX		;SETUP BR
  6374	036264	144 13 0 00 000012 		FADR	AC,AC-1		;C(AC)+C(E)
  6375	036265	312 13 0 00 000011 		CAME	AC,AC-2		;TEST SUM
  6376	036266	003 13 0 00 034607 		ER3	AC,SN		;FADR FAILED
  6377	036267	312 12 0 00 040053 		CAME	AC-1,[XX,,0]	;VERIFY THAT C(E) IS UNCHANGED
  6378	036270	005 12 0 00 034607 		ER5	AC-1,SN		;FAILURE, C(E) WAS CLOBBERED
  6379	036271	321 15 0 00 036256 		JUMPL	AC+2,.-^D11	;LOOP ON ERROR SWITCH
  6380
  6381
  6382			034610		SN=SN+1
  6383			211400			XX=XX+1000
  6384			000400			ZZ=ZZ+ZZ
  6385	036272	505 11 0 00 211400 		HRLI	AC-2,XX		;SETUP AC-2
  6386	036273	541 11 0 00 000001 		HRRI	AC-2,1		;FOR COMPARISON
  6387	036274	505 13 0 00 200000 		HRLI	AC,200000	;SETUP
  6388	036275	541 13 0 00 000400 		HRRI	AC,ZZ		;AC
  6389	036276	340 13 0 00 000000 		AOJ	AC,		;SET BIT 35
  6390	036277	205 12 0 00 211400 		MOVSI	AC-1,XX		;SETUP BR
  6391	036300	144 13 0 00 000012 		FADR	AC,AC-1		;C(AC)+C(E)
DAKCA	PDP-10 KA10 ADVANCED INSTRUCTION DIAGNOSTIC #1, VER 0,2	MACRO %52(537) 12:25 21-JAN-77 PAGE 69-3
DAKCAM	MAC	21-JAN-77 11:41		PART I.E-GEN TEST-FSC,FAD,FSB AND UFA                                              SEQ 0165

  6392	036301	312 13 0 00 000011 		CAME	AC,AC-2		;TEST SUM
  6393	036302	003 13 0 00 034610 		ER3	AC,SN		;FADR FAILED
  6394	036303	312 12 0 00 040054 		CAME	AC-1,[XX,,0]	;VERIFY THAT C(E) IS UNCHANGED
  6395	036304	005 12 0 00 034610 		ER5	AC-1,SN		;FAILURE, C(E) WAS CLOBBERED
  6396	036305	321 15 0 00 036272 		JUMPL	AC+2,.-^D11	;LOOP ON ERROR SWITCH
  6397
  6398
  6399			034611		SN=SN+1
  6400			212400			XX=XX+1000
  6401			001000			ZZ=ZZ+ZZ
  6402	036306	505 11 0 00 212400 		HRLI	AC-2,XX		;SETUP AC-2
  6403	036307	541 11 0 00 000001 		HRRI	AC-2,1		;FOR COMPARISON
  6404	036310	505 13 0 00 200000 		HRLI	AC,200000	;SETUP
  6405	036311	541 13 0 00 001000 		HRRI	AC,ZZ		;AC
  6406	036312	340 13 0 00 000000 		AOJ	AC,		;SET BIT 35
  6407	036313	205 12 0 00 212400 		MOVSI	AC-1,XX		;SETUP BR
  6408	036314	144 13 0 00 000012 		FADR	AC,AC-1		;C(AC)+C(E)
  6409	036315	312 13 0 00 000011 		CAME	AC,AC-2		;TEST SUM
  6410	036316	003 13 0 00 034611 		ER3	AC,SN		;FADR FAILED
  6411	036317	312 12 0 00 040055 		CAME	AC-1,[XX,,0]	;VERIFY THAT C(E) IS UNCHANGED
  6412	036320	005 12 0 00 034611 		ER5	AC-1,SN		;FAILURE, C(E) WAS CLOBBERED
  6413	036321	321 15 0 00 036306 		JUMPL	AC+2,.-^D11	;LOOP ON ERROR SWITCH
  6414
  6415
  6416			034612		SN=SN+1
  6417			213400			XX=XX+1000
  6418			002000			ZZ=ZZ+ZZ
  6419	036322	505 11 0 00 213400 		HRLI	AC-2,XX		;SETUP AC-2
  6420	036323	541 11 0 00 000001 		HRRI	AC-2,1		;FOR COMPARISON
  6421	036324	505 13 0 00 200000 		HRLI	AC,200000	;SETUP
  6422	036325	541 13 0 00 002000 		HRRI	AC,ZZ		;AC
  6423	036326	340 13 0 00 000000 		AOJ	AC,		;SET BIT 35
  6424	036327	205 12 0 00 213400 		MOVSI	AC-1,XX		;SETUP BR
  6425	036330	144 13 0 00 000012 		FADR	AC,AC-1		;C(AC)+C(E)
  6426	036331	312 13 0 00 000011 		CAME	AC,AC-2		;TEST SUM
  6427	036332	003 13 0 00 034612 		ER3	AC,SN		;FADR FAILED
  6428	036333	312 12 0 00 040056 		CAME	AC-1,[XX,,0]	;VERIFY THAT C(E) IS UNCHANGED
  6429	036334	005 12 0 00 034612 		ER5	AC-1,SN		;FAILURE, C(E) WAS CLOBBERED
  6430	036335	321 15 0 00 036322 		JUMPL	AC+2,.-^D11	;LOOP ON ERROR SWITCH
  6431
  6432
  6433			034613		SN=SN+1
  6434			214400			XX=XX+1000
  6435			004000			ZZ=ZZ+ZZ
  6436	036336	505 11 0 00 214400 		HRLI	AC-2,XX		;SETUP AC-2
  6437	036337	541 11 0 00 000001 		HRRI	AC-2,1		;FOR COMPARISON
  6438	036340	505 13 0 00 200000 		HRLI	AC,200000	;SETUP
  6439	036341	541 13 0 00 004000 		HRRI	AC,ZZ		;AC
  6440	036342	340 13 0 00 000000 		AOJ	AC,		;SET BIT 35
  6441	036343	205 12 0 00 214400 		MOVSI	AC-1,XX		;SETUP BR
  6442	036344	144 13 0 00 000012 		FADR	AC,AC-1		;C(AC)+C(E)
  6443	036345	312 13 0 00 000011 		CAME	AC,AC-2		;TEST SUM
  6444	036346	003 13 0 00 034613 		ER3	AC,SN		;FADR FAILED
  6445	036347	312 12 0 00 040057 		CAME	AC-1,[XX,,0]	;VERIFY THAT C(E) IS UNCHANGED
  6446	036350	005 12 0 00 034613 		ER5	AC-1,SN		;FAILURE, C(E) WAS CLOBBERED
DAKCA	PDP-10 KA10 ADVANCED INSTRUCTION DIAGNOSTIC #1, VER 0,2	MACRO %52(537) 12:25 21-JAN-77 PAGE 69-4
DAKCAM	MAC	21-JAN-77 11:41		PART I.E-GEN TEST-FSC,FAD,FSB AND UFA                                              SEQ 0166

  6447	036351	321 15 0 00 036336 		JUMPL	AC+2,.-^D11	;LOOP ON ERROR SWITCH
  6448
  6449
  6450			034614		SN=SN+1
  6451			215400			XX=XX+1000
  6452			010000			ZZ=ZZ+ZZ
  6453	036352	505 11 0 00 215400 		HRLI	AC-2,XX		;SETUP AC-2
  6454	036353	541 11 0 00 000001 		HRRI	AC-2,1		;FOR COMPARISON
  6455	036354	505 13 0 00 200000 		HRLI	AC,200000	;SETUP
  6456	036355	541 13 0 00 010000 		HRRI	AC,ZZ		;AC
  6457	036356	340 13 0 00 000000 		AOJ	AC,		;SET BIT 35
  6458	036357	205 12 0 00 215400 		MOVSI	AC-1,XX		;SETUP BR
  6459	036360	144 13 0 00 000012 		FADR	AC,AC-1		;C(AC)+C(E)
  6460	036361	312 13 0 00 000011 		CAME	AC,AC-2		;TEST SUM
  6461	036362	003 13 0 00 034614 		ER3	AC,SN		;FADR FAILED
  6462	036363	312 12 0 00 040060 		CAME	AC-1,[XX,,0]	;VERIFY THAT C(E) IS UNCHANGED
  6463	036364	005 12 0 00 034614 		ER5	AC-1,SN		;FAILURE, C(E) WAS CLOBBERED
  6464	036365	321 15 0 00 036352 		JUMPL	AC+2,.-^D11	;LOOP ON ERROR SWITCH
  6465
  6466
  6467			034615		SN=SN+1
  6468			216400			XX=XX+1000
  6469			020000			ZZ=ZZ+ZZ
  6470	036366	505 11 0 00 216400 		HRLI	AC-2,XX		;SETUP AC-2
  6471	036367	541 11 0 00 000001 		HRRI	AC-2,1		;FOR COMPARISON
  6472	036370	505 13 0 00 200000 		HRLI	AC,200000	;SETUP
  6473	036371	541 13 0 00 020000 		HRRI	AC,ZZ		;AC
  6474	036372	340 13 0 00 000000 		AOJ	AC,		;SET BIT 35
  6475	036373	205 12 0 00 216400 		MOVSI	AC-1,XX		;SETUP BR
  6476	036374	144 13 0 00 000012 		FADR	AC,AC-1		;C(AC)+C(E)
  6477	036375	312 13 0 00 000011 		CAME	AC,AC-2		;TEST SUM
  6478	036376	003 13 0 00 034615 		ER3	AC,SN		;FADR FAILED
  6479	036377	312 12 0 00 040061 		CAME	AC-1,[XX,,0]	;VERIFY THAT C(E) IS UNCHANGED
  6480	036400	005 12 0 00 034615 		ER5	AC-1,SN		;FAILURE, C(E) WAS CLOBBERED
  6481	036401	321 15 0 00 036366 		JUMPL	AC+2,.-^D11	;LOOP ON ERROR SWITCH
  6482
  6483
  6484			034616		SN=SN+1
  6485			217400			XX=XX+1000
  6486			040000			ZZ=ZZ+ZZ
  6487	036402	505 11 0 00 217400 		HRLI	AC-2,XX		;SETUP AC-2
  6488	036403	541 11 0 00 000001 		HRRI	AC-2,1		;FOR COMPARISON
  6489	036404	505 13 0 00 200000 		HRLI	AC,200000	;SETUP
  6490	036405	541 13 0 00 040000 		HRRI	AC,ZZ		;AC
  6491	036406	340 13 0 00 000000 		AOJ	AC,		;SET BIT 35
  6492	036407	205 12 0 00 217400 		MOVSI	AC-1,XX		;SETUP BR
  6493	036410	144 13 0 00 000012 		FADR	AC,AC-1		;C(AC)+C(E)
  6494	036411	312 13 0 00 000011 		CAME	AC,AC-2		;TEST SUM
  6495	036412	003 13 0 00 034616 		ER3	AC,SN		;FADR FAILED
  6496	036413	312 12 0 00 040062 		CAME	AC-1,[XX,,0]	;VERIFY THAT C(E) IS UNCHANGED
  6497	036414	005 12 0 00 034616 		ER5	AC-1,SN		;FAILURE, C(E) WAS CLOBBERED
  6498	036415	321 15 0 00 036402 		JUMPL	AC+2,.-^D11	;LOOP ON ERROR SWITCH
  6499
  6500
  6501			034617		SN=SN+1
DAKCA	PDP-10 KA10 ADVANCED INSTRUCTION DIAGNOSTIC #1, VER 0,2	MACRO %52(537) 12:25 21-JAN-77 PAGE 69-5
DAKCAM	MAC	21-JAN-77 11:41		PART I.E-GEN TEST-FSC,FAD,FSB AND UFA                                              SEQ 0167

  6502			220400			XX=XX+1000
  6503			100000			ZZ=ZZ+ZZ
  6504	036416	505 11 0 00 220400 		HRLI	AC-2,XX		;SETUP AC-2
  6505	036417	541 11 0 00 000001 		HRRI	AC-2,1		;FOR COMPARISON
  6506	036420	505 13 0 00 200000 		HRLI	AC,200000	;SETUP
  6507	036421	541 13 0 00 100000 		HRRI	AC,ZZ		;AC
  6508	036422	340 13 0 00 000000 		AOJ	AC,		;SET BIT 35
  6509	036423	205 12 0 00 220400 		MOVSI	AC-1,XX		;SETUP BR
  6510	036424	144 13 0 00 000012 		FADR	AC,AC-1		;C(AC)+C(E)
  6511	036425	312 13 0 00 000011 		CAME	AC,AC-2		;TEST SUM
  6512	036426	003 13 0 00 034617 		ER3	AC,SN		;FADR FAILED
  6513	036427	312 12 0 00 040063 		CAME	AC-1,[XX,,0]	;VERIFY THAT C(E) IS UNCHANGED
  6514	036430	005 12 0 00 034617 		ER5	AC-1,SN		;FAILURE, C(E) WAS CLOBBERED
  6515	036431	321 15 0 00 036416 		JUMPL	AC+2,.-^D11	;LOOP ON ERROR SWITCH
  6516
  6517
  6518			034620		SN=SN+1
  6519			221400			XX=XX+1000
  6520			200000			ZZ=ZZ+ZZ
  6521	036432	505 11 0 00 221400 		HRLI	AC-2,XX		;SETUP AC-2
  6522	036433	541 11 0 00 000001 		HRRI	AC-2,1		;FOR COMPARISON
  6523	036434	505 13 0 00 200000 		HRLI	AC,200000	;SETUP
  6524	036435	541 13 0 00 200000 		HRRI	AC,ZZ		;AC
  6525	036436	340 13 0 00 000000 		AOJ	AC,		;SET BIT 35
  6526	036437	205 12 0 00 221400 		MOVSI	AC-1,XX		;SETUP BR
  6527	036440	144 13 0 00 000012 		FADR	AC,AC-1		;C(AC)+C(E)
  6528	036441	312 13 0 00 000011 		CAME	AC,AC-2		;TEST SUM
  6529	036442	003 13 0 00 034620 		ER3	AC,SN		;FADR FAILED
  6530	036443	312 12 0 00 040064 		CAME	AC-1,[XX,,0]	;VERIFY THAT C(E) IS UNCHANGED
  6531	036444	005 12 0 00 034620 		ER5	AC-1,SN		;FAILURE, C(E) WAS CLOBBERED
  6532	036445	321 15 0 00 036432 		JUMPL	AC+2,.-^D11	;LOOP ON ERROR SWITCH
  6533
  6534
  6535			034621		SN=SN+1
  6536			222400			XX=XX+1000
  6537			400000			ZZ=ZZ+ZZ
  6538	036446	505 11 0 00 222400 		HRLI	AC-2,XX		;SETUP AC-2
  6539	036447	541 11 0 00 000001 		HRRI	AC-2,1		;FOR COMPARISON
  6540	036450	505 13 0 00 200000 		HRLI	AC,200000	;SETUP
  6541	036451	541 13 0 00 400000 		HRRI	AC,ZZ		;AC
  6542	036452	340 13 0 00 000000 		AOJ	AC,		;SET BIT 35
  6543	036453	205 12 0 00 222400 		MOVSI	AC-1,XX		;SETUP BR
  6544	036454	144 13 0 00 000012 		FADR	AC,AC-1		;C(AC)+C(E)
  6545	036455	312 13 0 00 000011 		CAME	AC,AC-2		;TEST SUM
  6546	036456	003 13 0 00 034621 		ER3	AC,SN		;FADR FAILED
  6547	036457	312 12 0 00 040065 		CAME	AC-1,[XX,,0]	;VERIFY THAT C(E) IS UNCHANGED
  6548	036460	005 12 0 00 034621 		ER5	AC-1,SN		;FAILURE, C(E) WAS CLOBBERED
  6549	036461	321 15 0 00 036446 		JUMPL	AC+2,.-^D11	;LOOP ON ERROR SWITCH
  6550
  6551					PAGE
DAKCA	PDP-10 KA10 ADVANCED INSTRUCTION DIAGNOSTIC #1, VER 0,2	MACRO %52(537) 12:25 21-JAN-77 PAGE 69-6
DAKCAM	MAC	21-JAN-77 11:41		PART I.E-GEN TEST-FSC,FAD,FSB AND UFA                                              SEQ 0168

  6552					;TEST FADRI
  6553					;AR=200400000003
  6554					;SUM=202500000001
  6555
  6556			000012			AC=12
  6557						SAVEAC	(1,1)^
  6558	036462	201 14 0 00 036462 		MOVEI	AC+2,.
  6559	036463	202 14 0 00 030051 		MOVEM	AC+2,TESTPC	;SETUP SUBTEST PC
  6560	036464	201 14 0 00 000014 		MOVEI	AC+2,<AC+2>&17	;INFORM ERROR ROUTINE WHICH
  6561	036465	202 14 0 00 040244 		MOVEM	AC+2,ERRLOP#	;AC IS USED FOR ITERATION^
  6562
  6563	036466	505 10 0 00 202500 	O34700:	HRLI	AC-2,202500	;SETUP AC-2
  6564	036467	541 10 0 00 000001 		HRRI	AC-2,1		;FOR COMPARISON
  6565	036470	505 12 0 00 200400 		HRLI	AC,200400	;SETUP
  6566	036471	541 12 0 00 000003 		HRRI	AC,3		;AC
  6567	036472	145 12 0 00 202400 		FADRI	AC,202400	;C(AC)+C(E)
  6568	036473	312 12 0 00 000010 		CAME	AC,AC-2		;TEST SUM
  6569	036474	003 12 0 00 034701 		ER3	AC,34701	;FADRI FAILED
  6570	036475	321 14 0 00 036466 		JUMPL	AC+2,O34700	;LOOP ON ERROR SWITCH
DAKCA	PDP-10 KA10 ADVANCED INSTRUCTION DIAGNOSTIC #1, VER 0,2	MACRO %52(537) 12:25 21-JAN-77 PAGE 70
DAKCAM	MAC	21-JAN-77 11:41		PART I.E-GEN TEST-FSC,FAD,FSB AND UFA                                              SEQ 0169

  6571					;TEST FSB
  6572					;TWO POSITIVES
  6573					;AR=201400000000 (+1)
  6574					;BR=177400000000 (+1/4)
  6575					;DIFF=200600000000 (+3/4)
  6576
  6577			000011			AC=11
  6578						SAVEAC	(1,1)^
  6579	036476	201 13 0 00 036476 		MOVEI	AC+2,.
  6580	036477	202 13 0 00 030051 		MOVEM	AC+2,TESTPC	;SETUP SUBTEST PC
  6581	036500	201 13 0 00 000013 		MOVEI	AC+2,<AC+2>&17	;INFORM ERROR ROUTINE WHICH
  6582	036501	202 13 0 00 040244 		MOVEM	AC+2,ERRLOP#	;AC IS USED FOR ITERATION^
  6583
  6584	036502	205 07 0 00 200600 	O35000:	MOVSI	AC-2,200600	;SETUP  FOR COMPARISON
  6585	036503	205 11 0 00 201400 		MOVSI	AC,201400	;SETUP AC
  6586	036504	205 10 0 00 177400 		MOVSI	AC-1,177400	;SETUP BR
  6587	036505	150 11 0 00 000010 		FSB	AC,AC-1		;C(AC)-C(E)
  6588	036506	312 11 0 00 000007 		CAME	AC,AC-2		;TEST DIFFERENCE
  6589	036507	003 11 0 00 035001 		ER3	AC,35001	;FSB FAILED
  6590	036510	312 10 0 00 040066 		CAME	AC-1,[177400,,0]	;VERIFY THAT C(E) IS UNCHANGED
  6591	036511	005 10 0 00 035001 		ER5	AC-1,35001	;C(E) WAS CLOBBERED
  6592	036512	321 13 0 00 036502 		JUMPL	AC+2,O35000	;LOOP ON ERROR SWITCH
  6593
  6594					;TEST FSBM
  6595					;TWO NEGATIVES
  6596					;AR=576400000000 (-1)
  6597					;BR=600400000000 (-1/4)
  6598					;DIFF=577200000000 (-3/4)
  6599
  6600			000010			AC=10
  6601						SAVEAC	(1,1)^
  6602	036513	201 12 0 00 036513 		MOVEI	AC+2,.
  6603	036514	202 12 0 00 030051 		MOVEM	AC+2,TESTPC	;SETUP SUBTEST PC
  6604	036515	201 12 0 00 000012 		MOVEI	AC+2,<AC+2>&17	;INFORM ERROR ROUTINE WHICH
  6605	036516	202 12 0 00 040244 		MOVEM	AC+2,ERRLOP#	;AC IS USED FOR ITERATION^
  6606
  6607	036517	205 06 0 00 577200 	O35100:	MOVSI	AC-2,577200	;SETUP FOR COMPARISON
  6608	036520	205 10 0 00 576400 		MOVSI	AC,576400	;SETUP AC
  6609	036521	205 07 0 00 600400 		MOVSI	AC-1,600400	;SETUP BR
  6610	036522	152 10 0 00 000007 		FSBM	AC,AC-1		;C(AC)-C(E)
  6611	036523	312 07 0 00 000006 		CAME	AC-1,AC-2	;TEST DIFFERENCE
  6612	036524	005 07 0 00 035101 		ER5	AC-1,35101	;FSBM FAILED
  6613	036525	312 10 0 00 040067 		CAME	AC,[576400,,0]	;VERIFY THAT C(AC) IS UNCHANGED
  6614	036526	003 10 0 00 035101 		ER3	AC,35101	;FAILURE, C(AC) WAS CLOBBERED
  6615	036527	321 12 0 00 036517 		JUMPL	AC+2,O35100	;LOOP ON ERROR SWITCH
DAKCA	PDP-10 KA10 ADVANCED INSTRUCTION DIAGNOSTIC #1, VER 0,2	MACRO %52(537) 12:25 21-JAN-77 PAGE 71
DAKCAM	MAC	21-JAN-77 11:41		PART I.E-GEN TEST-FSC,FAD,FSB AND UFA                                              SEQ 0170

  6616					;TEST FSBB
  6617					;NEGATIVE AND POSITIVE
  6618					;AR=201400000000 (+1)
  6619					;BR=577400000000 (-1/2)
  6620					;DIFF=201600000000 (+1 1/2)
  6621
  6622			000007			AC=7
  6623						SAVEAC	(1,1)^
  6624	036530	201 11 0 00 036530 		MOVEI	AC+2,.
  6625	036531	202 11 0 00 030051 		MOVEM	AC+2,TESTPC	;SETUP SUBTEST PC
  6626	036532	201 11 0 00 000011 		MOVEI	AC+2,<AC+2>&17	;INFORM ERROR ROUTINE WHICH
  6627	036533	202 11 0 00 040244 		MOVEM	AC+2,ERRLOP#	;AC IS USED FOR ITERATION^
  6628
  6629	036534	205 05 0 00 201600 	O35200:	MOVSI	AC-2,201600	;SETUP FOR COMPARISON
  6630	036535	205 07 0 00 201400 		MOVSI	AC,201400	;SETUP AC
  6631	036536	205 06 0 00 577400 		MOVSI	AC-1,577400	;SETUP BR
  6632	036537	153 07 0 00 000006 		FSBB	AC,AC-1		;C(AC)-C(E)
  6633	036540	312 07 0 00 000005 		CAME	AC,AC-2		;TEST C(AC)
  6634	036541	003 07 0 00 035201 		ER3	AC,35201
  6635	036542	312 06 0 00 000005 		CAME	AC-1,AC-2	;TEST C(E)
  6636	036543	005 06 0 00 035201 		ER5	AC-1,35201	;FSBB FAILED
  6637	036544	321 11 0 00 036534 		JUMPL	AC+2,O35200	;LOOP ON ERROR SWITCH
  6638
  6639					;TEST FSBRB
  6640					;TWO POSITIVES
  6641					;NR NORMAL
  6642					;AR=203400000000
  6643					;BR=200477777775
  6644					;DIFF=202660000001
  6645
  6646			000006			AC=6
  6647						SAVEAC	(1,1)^
  6648	036545	201 10 0 00 036545 		MOVEI	AC+2,.
  6649	036546	202 10 0 00 030051 		MOVEM	AC+2,TESTPC	;SETUP SUBTEST PC
  6650	036547	201 10 0 00 000010 		MOVEI	AC+2,<AC+2>&17	;INFORM ERROR ROUTINE WHICH
  6651	036550	202 10 0 00 040244 		MOVEM	AC+2,ERRLOP#	;AC IS USED FOR ITERATION^
  6652
  6653	036551	505 04 0 00 202660 	O35300:	HRLI	AC-2,202660	;SETUP AC-2
  6654	036552	541 04 0 00 000001 		HRRI	AC-2,1		;FOR COMPARISON
  6655	036553	205 06 0 00 203400 		MOVSI	AC,203400	;SETUP AC
  6656	036554	505 05 0 00 200477 		HRLI	AC-1,200477	;SETUP
  6657	036555	541 05 0 00 777775 		HRRI	AC-1,-3		;BR
  6658	036556	157 06 0 00 000005 		FSBRB	AC,AC-1		;C(AC)-C(E)
  6659	036557	312 06 0 00 000004 		CAME	AC,AC-2		;TEST C(AC)
  6660	036560	003 06 0 00 035301 		ER3	AC,35301
  6661	036561	312 05 0 00 000004 		CAME	AC-1,AC-2	;TEST C(E)
  6662	036562	005 05 0 00 035301 		ER5	AC-1,35301	;FSBRB FAILED
  6663	036563	321 10 0 00 036551 		JUMPL	AC+2,O35300	;LOOP ON ERROR SWITCH
DAKCA	PDP-10 KA10 ADVANCED INSTRUCTION DIAGNOSTIC #1, VER 0,2	MACRO %52(537) 12:25 21-JAN-77 PAGE 72
DAKCAM	MAC	21-JAN-77 11:41		PART I.E-GEN TEST-FSC,FAD,FSB AND UFA                                              SEQ 0171

  6664					;TEST UFA
  6665					;AR=200177000000
  6666					;BR=200076000000
  6667					;SUM=200275000000
  6668
  6669			000014			AC=14
  6670						SAVEAC	(1,1)^
  6671	036564	201 16 0 00 036564 		MOVEI	AC+2,.
  6672	036565	202 16 0 00 030051 		MOVEM	AC+2,TESTPC	;SETUP SUBTEST PC
  6673	036566	201 16 0 00 000016 		MOVEI	AC+2,<AC+2>&17	;INFORM ERROR ROUTINE WHICH
  6674	036567	202 16 0 00 040244 		MOVEM	AC+2,ERRLOP#	;AC IS USED FOR ITERATION^
  6675
  6676	036570	205 12 0 00 200177 	O35400:	MOVSI	AC-2,200177	;SETUP FOR COMPARISON
  6677	036571	205 14 0 00 200177 		MOVSI	AC,200177	;SETUP AC
  6678	036572	205 13 0 00 200076 		MOVSI	AC-1,200076	;SETUP BR
  6679	036573	130 14 0 00 000013 		UFA	AC,AC-1		;C(AC)+C(E)
  6680	036574	312 14 0 00 000012 		CAME	AC,AC-2		;TEST C(AC)=ORIGINAL
  6681	036575	003 14 0 00 035401 		ER3	AC,35401	;AC ERROR
  6682	036576	205 12 0 00 200275 		MOVSI	AC-2,200275	;SETUP FOR COMPARISON
  6683	036577	312 15 0 00 000012 		CAME	AC+1,AC-2	;TEST SUM
  6684	036600	004 15 0 00 035401 		ER4	AC+1,35401	;UFA FAILED
  6685	036601	312 13 0 00 040070 		CAME	AC-1,[200076,,0]	;VERIFY THAT C(E) IS UNCHANGED
  6686	036602	005 13 0 00 035401 		ER5	AC-1,35401
  6687	036603	321 16 0 00 036570 		JUMPL	AC+2,O35400	;LOOP ON ERROR SWITCH
DAKCA	PDP-10 KA10 ADVANCED INSTRUCTION DIAGNOSTIC #1, VER 0,2	MACRO %52(537) 12:25 21-JAN-77 PAGE 73
DAKCAM	MAC	21-JAN-77 11:41		PART I.E-GEN TEST-FSC,FAD,FSB AND UFA                                              SEQ 0172

  6688					;GENERAL TESTS TO VERIFY EFFECT OF FSC EXECUTION ON AROV, FOV AND FXU FLAGS
  6689
  6690			000004			AC=4
  6691						SAVEAC	(1,1)^
  6692	036604	201 06 0 00 036604 		MOVEI	AC+2,.
  6693	036605	202 06 0 00 030051 		MOVEM	AC+2,TESTPC	;SETUP SUBTEST PC
  6694	036606	201 06 0 00 000006 		MOVEI	AC+2,<AC+2>&17	;INFORM ERROR ROUTINE WHICH
  6695	036607	202 06 0 00 040244 		MOVEM	AC+2,ERRLOP#	;AC IS USED FOR ITERATION^
  6696
  6697	036610	254 02 1 00 036611 	O35500:	JRST	2,@.+1		;CLEAR FLAGS
  6698	036611	000000	036612				.+1
  6699	036612	205 02 0 00 377400 		MOVSI	AC-2,377400	;SETUP FOR COMPARISON
  6700	036613	205 04 0 00 377400 		MOVSI	AC,377400	;SETUP AC
  6701	036614	132 04 0 00 000000 		FSC	AC,0		;SCALE - NO FLAGS
  6702	036615	265 05 0 00 036616 		JSP	AC+1,.+1	;SAVE FLAGS
  6703	036616	312 04 0 00 000002 		CAME	AC,<AC-2>&17	;TEST C(AC) FOR NO CHANGE
  6704	036617	003 04 0 00 035501 		ER3	AC,35501	;C(AC) FAILED
  6705	036620	255 10 0 00 036622 		JOV	.+2		;EXAMINE AROV FLAG
  6706	036621	254 00 0 00 036623 		JRST	.+2
  6707	036622	013 05 0 00 035501 		ER13	AC+1,35501	;AROV FLAG WAS SET
  6708	036623	603 05 0 00 040100 		TLNE	AC+1,FOV+FXU	;EXAMINE FLAGS
  6709	036624	013 05 0 00 035501 		ER13	AC+1,35501	;A FLAG WAS SET
  6710	036625	321 06 0 00 036610 		JUMPL	AC+2,O35500	;LOOP ON ERROR SWITCH
  6711
  6712	036626	254 02 1 00 036627 	O35510:	JRST	2,@.+1		;CLEAR FLAGS
  6713	036627	000000	036630				.+1
  6714	036630	205 02 0 00 000400 		MOVSI	AC-2,400	;SETUP FOR COMPARISON
  6715	036631	205 04 0 00 377400 		MOVSI	AC,377400	;SETUP AC
  6716	036632	132 04 0 00 000001 		FSC	AC,1		;SCALE - AROV, FOV
  6717	036633	265 05 0 00 036634 		JSP	AC+1,.+1	;SAVE FLAGS
  6718	036634	312 04 0 00 000002 		CAME	AC,<AC-2>&17	;EXAMINE C(AC)
  6719	036635	003 04 0 00 035511 		ER3	AC,35511	;C(AC) FAILED
  6720	036636	255 10 0 00 036640 		JOV	.+2		;EXAMINE AROV FLAG
  6721	036637	013 05 0 00 035511 		ER13	AC+1,35511	;AROV FLAG WAS NOT SET
  6722	036640	603 05 0 00 000100 		TLNE	AC+1,FXU	;EXAMINE FXU
  6723	036641	013 05 0 00 035511 		ER13	AC+1,35511	;ERROR - FXU IS SET
  6724	036642	607 05 0 00 040000 		TLNN	AC+1,FOV	;EXAMINE FOV
  6725	036643	013 05 0 00 035511 		ER13	AC+1,35511	;ERROR - FOV NOT SET
  6726	036644	321 06 0 00 036626 		JUMPL	AC+2,O35510	;LOOP ON ERROR SWITCH
DAKCA	PDP-10 KA10 ADVANCED INSTRUCTION DIAGNOSTIC #1, VER 0,2	MACRO %52(537) 12:25 21-JAN-77 PAGE 74
DAKCAM	MAC	21-JAN-77 11:41		PART I.E-GEN TEST-FSC,FAD,FSB AND UFA                                              SEQ 0173

  6727
  6728	036645	254 02 1 00 036646 	O35520:	JRST	2,@.+1		;CLEAR FLAGS
  6729	036646	000000	036647				.+1
  6730	036647	205 02 0 00 177400 		MOVSI	AC-2,177400	;SETUP FOR COMPARISON
  6731	036650	205 04 0 00 377400 		MOVSI	AC,377400	;SETUP AC
  6732	036651	132 04 0 00 000200 		FSC	AC,200		;SCALE - AROV,FOV
  6733	036652	265 05 0 00 036653 		JSP	AC+1,.+1	;SAVE FLAGS
  6734	036653	312 04 0 00 000002 		CAME	AC,<AC-2>&17	;TEST C(AC)
  6735	036654	003 04 0 00 035521 		ER3	AC,35521	;C(AC) FAILED
  6736	036655	255 10 0 00 036657 		JOV	.+2		;EXAMINE AROV FLAG
  6737	036656	013 05 0 00 035521 		ER13	AC+1,35521	;AROV FLAG WAS NOT SET
  6738	036657	603 05 0 00 000100 		TLNE	AC+1,FXU	;EXAMINE FXU
  6739	036660	013 05 0 00 035521 		ER13	AC+1,35521	;FXU WAS SET
  6740	036661	607 05 0 00 040000 		TLNN	AC+1,FOV	;EXAMINE FOV
  6741	036662	013 05 0 00 035521 		ER13	AC+1,35521	;FOV WAS NOT SET
  6742	036663	321 06 0 00 036645 		JUMPL	AC+2,O35520	;LOOP ON ERROR SWITCH
DAKCA	PDP-10 KA10 ADVANCED INSTRUCTION DIAGNOSTIC #1, VER 0,2	MACRO %52(537) 12:25 21-JAN-77 PAGE 75
DAKCAM	MAC	21-JAN-77 11:41		PART I.E-GEN TEST-FSC,FAD,FSB AND UFA                                              SEQ 0174

  6743	036664	254 02 1 00 036665 	O35530:	JRST	2,@.+1		;CLEAR FLAGS
  6744	036665	000000	036666				.+1
  6745	036666	205 02 0 00 200400 		MOVSI	AC-2,200400	;SETUP FOR COMPARISON
  6746	036667	205 04 0 00 377400 		MOVSI	AC,377400	;SETUP AC
  6747	036670	132 04 0 00 000201 		FSC	AC,201		;SCALE - AROV,FOV
  6748	036671	265 05 0 00 036672 		JSP	AC+1,.+1	;SAVE FLAGS
  6749	036672	312 04 0 00 000002 		CAME	AC,<AC-2>&17	;TEST C(AC)
  6750	036673	003 04 0 00 035531 		ER3	AC,35531	;C(AC) FAILED
  6751	036674	255 10 0 00 036676 		JOV	.+2		;EXAMINE AROV FLAG
  6752	036675	013 05 0 00 035531 		ER13	AC+1,35531	;AROV FLAG NOT SET
  6753	036676	332 00 0 00 030041 		SKIPE	KLFLG
  6754	036677	254 00 0 00 036706 		JRST	O35535		;KL10
  6755	036700	607 05 0 00 000100 		TLNN	AC+1,FXU	;EXAMINE FXU
  6756	036701	013 05 0 00 035531 		ER13	AC+1,35531	;FXU WAS NOT SET
  6757	036702	607 05 0 00 040000 	O35537:	TLNN	AC+1,FOV	;EXAMINE FOV
  6758	036703	013 05 0 00 035531 		ER13	AC+1,35531	;FOV WAS NOT SET
  6759	036704	321 06 0 00 036664 		JUMPL	AC+2,O35530	;LOOP ON ERROR SWITCH.
  6760	036705	254 00 0 00 036711 		JRST O35540
  6761	036706	603 05 0 00 000100 	O35535:	TLNE	AC+1,FXU	;FXU SHOULD NOT BE SET ON KL10
  6762	036707	013 05 0 00 035532 		ER13	AC+1,35532
  6763	036710	254 00 0 00 036702 		JRST	O35537
DAKCA	PDP-10 KA10 ADVANCED INSTRUCTION DIAGNOSTIC #1, VER 0,2	MACRO %52(537) 12:25 21-JAN-77 PAGE 76
DAKCAM	MAC	21-JAN-77 11:41		PART I.E-GEN TEST-FSC,FAD,FSB AND UFA                                              SEQ 0175

  6764
  6765	036711	254 02 1 00 036712 	O35540:	JRST	2,@.+1		;CLEAR FLAGS
  6766	036712	000000	036713				.+1
  6767	036713	205 02 0 00 376400 		MOVSI	AC-2,376400	;SETUP FOR COMPARISON
  6768	036714	205 04 0 00 377400 		MOVSI	AC,377400	;SETUP AC
  6769	036715	132 04 0 00 000377 		FSC	AC,377		;SCALE - AROV, FOV
  6770	036716	265 05 0 00 036717 		JSP	AC+1,.+1	;SAVE FLAGS
  6771	036717	312 04 0 00 000002 		CAME	AC,<AC-2>&17	;TEST C(AC)
  6772	036720	003 04 0 00 035541 		ER3	AC,35541	;C(AC) FAILED
  6773	036721	255 10 0 00 036723 		JOV	.+2		;EXAMINE AROV FLAG
  6774	036722	013 05 0 00 035541 		ER13	AC+1,35541	;AROV FLAG WAS NOT SET
  6775	036723	332 00 0 00 030041 		SKIPE	KLFLG
  6776	036724	254 00 0 00 036733 		JRST	O35545		;KL10
  6777	036725	607 05 0 00 000100 		TLNN	AC+1,FXU	;EXAMINE FXU
  6778	036726	013 05 0 00 035541 		ER13	AC+1,35541	;FXU WAS NOT SET
  6779	036727	607 05 0 00 040000 	O35547:	TLNN	AC+1,FOV	;EXAMINE FOV
  6780	036730	013 05 0 00 035541 		ER13	AC+1,35541	;FOV WAS NOT SET
  6781	036731	321 06 0 00 036711 		JUMPL	AC+2,O35540	;LOOP ON ERROR SWITCH
  6782	036732	254 00 0 00 036736 		JRST	O35550
  6783	036733	603 05 0 00 000100 	O35545:	TLNE	AC+1,FXU	;FXU SHOULD NOT BE SET ON KL10
  6784	036734	013 05 0 00 035542 		ER13	AC+1,35542
  6785	036735	254 00 0 00 036727 		JRST	O35547
  6786
  6787	036736	254 02 1 00 036737 	O35550:	JRST	2,@.+1		;CLEAR FLAGS
  6788	036737	000000	036740				.+1
  6789	036740	205 02 0 00 377400 		MOVSI	AC-2,377400	;SETUP FOR COMPARISON
  6790	036741	205 04 0 00 377400 		MOVSI	AC,377400	;SETUP AC
  6791	036742	132 04 0 00 000400 		FSC	AC,400		;SCALE - NO FLAGS
  6792	036743	265 05 0 00 036744 		JSP	AC+1,.+1	;SAVE FLAGS
  6793	036744	312 04 0 00 000002 		CAME	AC,<AC-2>&17	;TEST C(AC)
  6794	036745	003 04 0 00 035551 		ER3	AC,35551	;C(AC) FAILED
  6795	036746	255 10 0 00 036750 		JOV	.+2		;EXAMINE AROV FLAG
  6796	036747	254 00 0 00 036751 		JRST	.+2
  6797	036750	013 05 0 00 035551 		ER13	AC+1,35551	;AROV FLAG WAS SET
  6798	036751	603 05 0 00 040100 		TLNE	AC+1,FOV+FXU	;EXAMINE FLAGS
  6799	036752	013 05 0 00 035551 		ER13	AC+1,35551	;A FLAG WAS SET
  6800	036753	321 06 0 00 036736 		JUMPL	AC+2,O35550	;LOOP ON ERROR SWITCH
DAKCA	PDP-10 KA10 ADVANCED INSTRUCTION DIAGNOSTIC #1, VER 0,2	MACRO %52(537) 12:25 21-JAN-77 PAGE 77
DAKCAM	MAC	21-JAN-77 11:41		PART I.E-GEN TEST-FSC,FAD,FSB AND UFA                                              SEQ 0176

  6801	036754	254 02 1 00 036755 	O35560:	JRST	2,@.+1		;CLEAR FLAGS
  6802	036755	000000	036756				.+1
  6803	036756	205 02 0 00 000400 		MOVSI	AC-2,400	;SETUP FOR COMPARISON
  6804	036757	205 04 0 00 377400 		MOVSI	AC,377400	;SETUP AC
  6805	036760	132 04 0 00 777401 		FSC	AC,-377		;SCALE - NO FLAGS
  6806	036761	265 05 0 00 036762 		JSP	AC+1,.+1	;SAVE FLAGS
  6807	036762	312 04 0 00 000002 		CAME	AC,<AC-2>&17	;TEST C(AC)
  6808	036763	003 04 0 00 035561 		ER3	AC,35561	;C(AC) FAILED
  6809	036764	255 10 0 00 036766 		JOV	.+2		;EXAMINE AROV FLAG
  6810	036765	254 00 0 00 036767 		JRST	.+2
  6811	036766	013 05 0 00 035561 		ER13	AC+1,35561	;AROV FLAG WAS SET
  6812	036767	603 05 0 00 040100 		TLNE	AC+1,FOV+FXU	;EXAMINE FLAGS
  6813	036770	013 05 0 00 035561 		ER13	AC+1,35561	;A FLAG WAS SET
  6814	036771	321 06 0 00 036754 		JUMPL	AC+2,O35560	;LOOP ON ERROR SWITCH
  6815
  6816	036772	254 02 1 00 036773 	O35570:	JRST	2,@.+1		;CLEAR FLAGS
  6817	036773	000000	036774				.+1
  6818	036774	205 02 0 00 377400 		MOVSI	AC-2,377400	;SETUP FOR COMPARISON
  6819	036775	205 04 0 00 377400 		MOVSI	AC,377400	;SETUP AC
  6820	036776	132 04 0 00 777400 		FSC	AC,-400		;SCALE - AROV,FOV,FXU
  6821	036777	265 05 0 00 037000 		JSP	AC+1,.+1	;SAVE FLAGS
  6822	037000	312 04 0 00 000002 		CAME	AC,<AC-2>&17	;TEST C(AC)
  6823	037001	003 04 0 00 035571 		ER3	AC,35571	;C(AC) FAILED
  6824	037002	255 10 0 00 037004 		JOV	.+2		;EXAMINE AROV FLAG
  6825	037003	013 05 0 00 035571 		ER13	AC+1,35571	;AROV FLAG WAS NOT SET
  6826	037004	607 05 0 00 040000 		TLNN	AC+1,FOV	;EXAMINE FOV FLAG
  6827	037005	013 05 0 00 035571 		ER13	AC+1,35571	;FOV WAS NOT SET
  6828	037006	607 05 0 00 000100 		TLNN	AC+1,FXU	;EXAMINE FXU FLAG
  6829	037007	013 05 0 00 035571 		ER13	AC+1,35571	;FXU WAS NOT SET
  6830	037010	321 06 0 00 036772 		JUMPL	AC+2,O35570	;LOOP ON ERROR SWITCH
DAKCA	PDP-10 KA10 ADVANCED INSTRUCTION DIAGNOSTIC #1, VER 0,2	MACRO %52(537) 12:25 21-JAN-77 PAGE 78
DAKCAM	MAC	21-JAN-77 11:41		PART I.E-GEN TEST-FSC,FAD,FSB AND UFA                                              SEQ 0177

  6831	037011	254 02 1 00 037012 	O35600:	JRST	2,@.+1		;CLEAR FLAGS
  6832	037012	000000	037013				.+1
  6833	037013	205 02 0 00 000400 		MOVSI	AC-2,400	;SETUP FOR COMPARISON
  6834	037014	205 04 0 00 000400 		MOVSI	AC,400		;SETUP AC
  6835	037015	132 04 0 00 000000 		FSC	AC,0		;FSC - NO FLAGS
  6836	037016	265 05 0 00 037017 		JSP	AC+1,.+1	;SAVE FLAGS
  6837	037017	312 04 0 00 000002 		CAME	AC,<AC-2>&17	;TEST C(AC)
  6838	037020	003 04 0 00 035601 		ER3	AC,35601	;C(AC) FAILED
  6839	037021	255 10 0 00 037023 		JOV	.+2		;EXAMINE AROV FLAG
  6840	037022	254 00 0 00 037024 		JRST	.+2
  6841	037023	013 05 0 00 035601 		ER13	AC+1,35601	;AROV WAS SET
  6842	037024	603 05 0 00 040100 		TLNE	AC+1,FOV+FXU	;TEST FOV,FXU
  6843	037025	013 05 0 00 035601 		ER13	AC+1,35601	;EITHER FOV OR FXU WAS SET
  6844	037026	321 06 0 00 037011 		JUMPL	AC+2,O35600	;LOOP ON ERROR SWITCH
  6845
  6846	037027	254 02 1 00 037030 	O35610:	JRST	2,@.+1		;CLEAR FLAGS
  6847	037030	000000	037031				.+1
  6848	037031	205 02 0 00 377400 		MOVSI	AC-2,377400	;SETUP FOR COMPARISON
  6849	037032	205 04 0 00 000400 		MOVSI	AC,400		;SETUP AC
  6850	037033	132 04 0 00 777777 		FSC	AC,-1		;SCALE - AROV,FOV,FXU
  6851	037034	265 05 0 00 037035 		JSP	AC+1,.+1	;SAVE FLAGS
  6852	037035	312 04 0 00 000002 		CAME	AC,<AC-2>&17	;TEST C(AC)
  6853	037036	003 04 0 00 035611 		ER3	AC,35611	;C(AC) FAILED
  6854	037037	255 10 0 00 037041 		JOV	.+2		;EXAMINE AROV FLAG
  6855	037040	013 05 0 00 035611 		ER13	AC+1,35611	;AROV FLAG WAS NOT SET
  6856	037041	607 05 0 00 040000 		TLNN	AC+1,FOV	;EXAMINE FOV FLAG
  6857	037042	013 05 0 00 035611 		ER13	AC+1,35611	;FOV WAS NOT SET
  6858	037043	607 05 0 00 000100 		TLNN	AC+1,FXU	;EXAMINE FXU FLAG
  6859	037044	013 05 0 00 035611 		ER13	AC+1,35611	;FXU WAS NOT SET
  6860	037045	321 06 0 00 037027 		JUMPL	AC+2,O35610	;LOOP ON ERROR SWITCH
  6861
  6862	037046	254 02 1 00 037047 	O35620:	JRST	2,@.+1		;CLEAR FLAGS
  6863	037047	000000	037050				.+1
  6864	037050	205 02 0 00 201400 		MOVSI	AC-2,201400	;SETUP FOR COMPARISON
  6865	037051	205 04 0 00 000400 		MOVSI	AC,400		;SETUP AC
  6866	037052	132 04 0 00 777601 		FSC	AC,-177		;SCALE - AROV,FOV,FXU
  6867	037053	265 05 0 00 037054 		JSP	AC+1,.+1	;SAVE FLAGS
  6868	037054	312 04 0 00 000002 		CAME	AC,<AC-2>&17	;TEST C(AC)
  6869	037055	003 04 0 00 035621 		ER3	AC,35621	;C(AC) FAILED
  6870	037056	255 10 0 00 037060 		JOV	.+2		;EXAMINE AROV FLAG
  6871	037057	013 05 0 00 035621 		ER13	AC+1,35621	;AROV FLAG WAS NOT SET
  6872	037060	607 05 0 00 040000 		TLNN	AC+1,FOV	;EXAMINE FOV FLAG
  6873	037061	013 05 0 00 035621 		ER13	AC+1,35621	;FOV WAS NOT SET
  6874	037062	607 05 0 00 000100 		TLNN	AC+1,FXU	;EXAMINE FXU FLAG
  6875	037063	013 05 0 00 035621 		ER13	AC+1,35621	;FXU WAS NOT SET
  6876	037064	321 06 0 00 037046 		JUMPL	AC+2,O35620	;LOOP ON ERROR SWITCH
DAKCA	PDP-10 KA10 ADVANCED INSTRUCTION DIAGNOSTIC #1, VER 0,2	MACRO %52(537) 12:25 21-JAN-77 PAGE 79
DAKCAM	MAC	21-JAN-77 11:41		PART I.E-GEN TEST-FSC,FAD,FSB AND UFA                                              SEQ 0178

  6877	037065	254 02 1 00 037066 	O35630:	JRST	2,@.+1		;CLEAR FLAGS
  6878	037066	000000	037067				.+1
  6879	037067	205 02 0 00 200400 		MOVSI	AC-2,200400	;SETUP FOR COMPARISON
  6880	037070	205 04 0 00 000400 		MOVSI	AC,400		;SETUP AC
  6881	037071	132 04 0 00 777600 		FSC	AC,-200		;SCALE - AROV,FOV,FXU
  6882	037072	265 05 0 00 037073 		JSP	AC+1,.+1	;SAVE FLAGS
  6883	037073	312 04 0 00 000002 		CAME	AC,<AC-2>&17	;TEST C(AC)
  6884	037074	003 04 0 00 035631 		ER3	AC,35631	;C(AC) FAILED
  6885	037075	255 10 0 00 037077 		JOV	.+2		;EXAMINE AROV FLAG
  6886	037076	013 05 0 00 035631 		ER13	AC+1,35631	;AROV FLAG WAS NOT SET
  6887	037077	607 05 0 00 040000 		TLNN	AC+1,FOV	;EXAMINE FOV FLAG
  6888	037100	013 05 0 00 035631 		ER13	AC+1,35631	;FOV WAS NOT SET
  6889	037101	607 05 0 00 000100 		TLNN	AC+1,FXU	;EXAMINE FXU FLAG
  6890	037102	013 05 0 00 035631 		ER13	AC+1,35631	;FXU WAS NOT SET
  6891	037103	321 06 0 00 037065 		JUMPL	AC+2,O35630	;LOOP ON ERROR SWITCH
  6892
  6893	037104	254 02 1 00 037105 	O35640:	JRST	2,@.+1		;CLEAR FLAGS
  6894	037105	000000	037106				.+1
  6895	037106	205 02 0 00 001400 		MOVSI	AC-2,1400	;SETUP FOR COMPARISON
  6896	037107	205 04 0 00 000400 		MOVSI	AC,400		;SETUP AC
  6897	037110	132 04 0 00 777401 		FSC	AC,-377		;SCALE - AROV,FOV,FXU
  6898	037111	265 05 0 00 037112 		JSP	AC+1,.+1	;SAVE FLAGS
  6899	037112	312 04 0 00 000002 		CAME	AC,<AC-2>&17	;TEST C(AC)
  6900	037113	003 04 0 00 035641 		ER3	AC,35641	;C(AC) FAILED
  6901	037114	255 10 0 00 037116 		JOV	.+2		;EXAMINE AROV FLAG
  6902	037115	013 05 0 00 035641 		ER13	AC+1,35641	;AROV FLAG WAS NOT SET
  6903	037116	607 05 0 00 040000 		TLNN	AC+1,FOV	;EXAMINE FOV FLAG
  6904	037117	013 05 0 00 035641 		ER13	AC+1,35641	;FOV WAS NOT SET
  6905	037120	332 00 0 00 030041 		SKIPE	KLFLG
  6906	037121	254 00 0 00 037126 		JRST	O35645		;KL10
  6907	037122	603 05 0 00 000100 		TLNE	AC+1,FXU	;EXAMINE FXU FLAG
  6908	037123	013 05 0 00 035641 		ER13	AC+1,35641	;FXU WAS  SET
  6909	037124	321 06 0 00 037104 	O35647:	JUMPL	AC+2,O35640	;LOOP ON ERROR SWITCH
  6910	037125	254 00 0 00 037131 		JRST	O35650
  6911	037126	607 05 0 00 000100 	O35645:	TLNN	AC+1,FXU	;FXU SHOULD BE SET ON KL10
  6912	037127	013 05 0 00 035642 		ER13	AC+1,35642
  6913	037130	254 00 0 00 037124 		JRST	O35647
DAKCA	PDP-10 KA10 ADVANCED INSTRUCTION DIAGNOSTIC #1, VER 0,2	MACRO %52(537) 12:25 21-JAN-77 PAGE 80
DAKCAM	MAC	21-JAN-77 11:41		PART I.E-GEN TEST-FSC,FAD,FSB AND UFA                                              SEQ 0179

  6914
  6915	037131	254 02 1 00 037132 	O35650:	JRST	2,@.+1		;CLEAR FLAGS
  6916	037132	000000	037133				.+1
  6917	037133	205 02 0 00 000400 		MOVSI	AC-2,400	;SETUP FOR COMPARISON
  6918	037134	205 04 0 00 000400 		MOVSI	AC,400		;SETUP AC
  6919	037135	132 04 0 00 777400 		FSC	AC,-400		;SCALE - AROV,FOV,FXU
  6920	037136	265 05 0 00 037137 		JSP	AC+1,.+1	;SAVE FLAGS
  6921	037137	312 04 0 00 000002 		CAME	AC,<AC-2>&17	;TEST C(AC)
  6922	037140	003 04 0 00 035651 		ER3	AC,35651	;C(AC) FAILED
  6923	037141	255 10 0 00 037143 		JOV	.+2		;EXAMINE AROV FLAG
  6924	037142	013 05 0 00 035651 		ER13	AC+1,35651	;AROV FLAG WAS NOT SET
  6925	037143	607 05 0 00 040000 		TLNN	AC+1,FOV	;EXAMINE FOV FLAG
  6926	037144	013 05 0 00 035651 		ER13	AC+1,35651	;FOV WAS NOT SET
  6927	037145	332 00 0 00 030041 		SKIPE	KLFLG
  6928	037146	254 00 0 00 037153 		JRST	O35655
  6929	037147	603 05 0 00 000100 		TLNE	AC+1,FXU	;EXAMINE FXU FLAG
  6930	037150	013 05 0 00 035651 		ER13	AC+1,35651	;FXU WAS SET
  6931	037151	321 06 0 00 037131 	O35657:	JUMPL	AC+2,O35650	;LOOP ON ERROR SWITCH
  6932	037152	254 00 0 00 037156 		JRST	O35660
  6933	037153	607 05 0 00 000100 	O35655:	TLNN	AC+1,FXU	;FXU SHOULD BE SET ON KL10
  6934	037154	013 05 0 00 035652 		ER13	AC+1,35652
  6935	037155	254 00 0 00 037151 		JRST	O35657
DAKCA	PDP-10 KA10 ADVANCED INSTRUCTION DIAGNOSTIC #1, VER 0,2	MACRO %52(537) 12:25 21-JAN-77 PAGE 81
DAKCAM	MAC	21-JAN-77 11:41		PART I.E-GEN TEST-FSC,FAD,FSB AND UFA                                              SEQ 0180

  6936	037156	254 02 1 00 037157 	O35660:	JRST	2,@.+1		;CLEAR FLAGS
  6937	037157	000000	037160				.+1
  6938	037160	205 02 0 00 377400 		MOVSI	AC-2,377400	;SETUP FOR COMPARISON
  6939	037161	205 04 0 00 000400 		MOVSI	AC,400		;SETUP AC
  6940	037162	132 04 0 00 000377 		FSC	AC,377		;SCALE - NO FLAGS
  6941	037163	265 05 0 00 037164 		JSP	AC+1,.+1	;SAVE FLAGS
  6942	037164	312 04 0 00 000002 		CAME	AC,<AC-2>&17	;TEST C(AC)
  6943	037165	003 04 0 00 035661 		ER3	AC,35661	;C(AC) FAILED
  6944	037166	255 10 0 00 037170 		JOV	.+2		;EXAMINE AROV FLAG
  6945	037167	254 00 0 00 037171 		JRST	.+2
  6946	037170	013 05 0 00 035661 		ER13	AC+1,35661	;AROV FLAG WAS SET
  6947	037171	603 05 0 00 040100 		TLNE	AC+1,FOV+FXU	;EXAMINE FLAGS
  6948	037172	013 05 0 00 035661 		ER13	AC+1,35661	;A FLAG WAS SET
  6949	037173	321 06 0 00 037156 		JUMPL	AC+2,O35660	;LOOP ON ERROR SWITCH
  6950
  6951	037174	254 02 1 00 037175 	O35670:	JRST	2,@.+1		;CLEAR FLAGS
  6952	037175	000000	037176				.+1
  6953	037176	205 02 0 00 000400 		MOVSI	AC-2,400	;SETUP FOR COMPARISON
  6954	037177	205 04 0 00 000400 		MOVSI	AC,400		;SETUP AC
  6955	037200	132 04 0 00 000400 		FSC	AC,400		;SCALE - NO FLAGS
  6956	037201	265 05 0 00 037202 		JSP	AC+1,.+1	;SAVE FLAGS
  6957	037202	312 04 0 00 000002 		CAME	AC,<AC-2>&17	;TEST C(AC)
  6958	037203	003 04 0 00 035671 		ER3	AC,35671	;C(AC) FAILED
  6959	037204	255 10 0 00 037206 		JOV	.+2		;EXAMINE AROV FLAG
  6960	037205	254 00 0 00 037207 		JRST	.+2
  6961	037206	013 05 0 00 035671 		ER13	AC+1,35671	;AROV FLAG WAS SET
  6962	037207	603 05 0 00 040100 		TLNE	AC+1,FOV+FXU	;EXAMINE FLAGS
  6963	037210	013 05 0 00 035671 		ER13	AC+1,35671	;A FLAG WAS SET
  6964	037211	321 06 0 00 037174 		JUMPL	AC+2,O35670	;LOOP ON ERROR SWITCH
DAKCA	PDP-10 KA10 ADVANCED INSTRUCTION DIAGNOSTIC #1, VER 0,2	MACRO %52(537) 12:25 21-JAN-77 PAGE 82
DAKCAM	MAC	21-JAN-77 11:41		PART I.E-GEN TEST-FSC,FAD,FSB AND UFA                                              SEQ 0181

  6965	037212	254 02 1 00 037213 	O35700:	JRST	2,@.+1		;CLEAR FLAGS
  6966	037213	000000	037214				.+1
  6967	037214	205 02 0 00 400400 		MOVSI	AC-2,-377400	;SETUP FOR COMPARISON
  6968	037215	205 04 0 00 400400 		MOVSI	AC,-377400	;SETUP AC
  6969	037216	132 04 0 00 000000 		FSC	AC,0		;SCALE - NO FLAGS
  6970	037217	265 05 0 00 037220 		JSP	AC+1,.+1	;SAVE FLAGS
  6971	037220	312 04 0 00 000002 		CAME	AC,<AC-2>&17	;TEST C(AC) FOR NO CHANGE
  6972	037221	003 04 0 00 035701 		ER3	AC,35701	;C(AC) FAILED
  6973	037222	255 10 0 00 037224 		JOV	.+2		;EXAMINE AROV FLAG
  6974	037223	254 00 0 00 037225 		JRST	.+2
  6975	037224	013 05 0 00 035701 		ER13	AC+1,35701	;AROV FLAG WAS SET
  6976	037225	603 05 0 00 040100 		TLNE	AC+1,FOV+FXU	;EXAMINE FLAGS
  6977	037226	013 05 0 00 035701 		ER13	AC+1,35701	;A FLAG WAS SET
  6978	037227	321 06 0 00 037212 		JUMPL	AC+2,O35700	;LOOP ON ERROR SWITCH
  6979
  6980	037230	254 02 1 00 037231 	O35710:	JRST	2,@.+1		;CLEAR FLAGS
  6981	037231	000000	037232				.+1
  6982	037232	205 02 0 00 777400 		MOVSI	AC-2,-400	;SETUP FOR COMPARISON
  6983	037233	205 04 0 00 400400 		MOVSI	AC,-377400	;SETUP AC
  6984	037234	132 04 0 00 000001 		FSC	AC,1		;SCALE - AROV,FOV
  6985	037235	265 05 0 00 037236 		JSP	AC+1,.+1	;SAVE FLAGS
  6986	037236	312 04 0 00 000002 		CAME	AC,<AC-2>&17	;EXAMINE C(AC)
  6987	037237	003 04 0 00 035711 		ER3	AC,35711	;C(AC) FAILED
  6988	037240	255 10 0 00 037242 		JOV	.+2		;EXAMINE AROV FLAG
  6989	037241	013 05 0 00 035711 		ER13	AC+1,35711	;AROV FLAG WAS NOT SET
  6990	037242	603 05 0 00 000100 		TLNE	AC+1,FXU	;EXAMINE FXU
  6991	037243	013 05 0 00 035711 		ER13	AC+1,35711	;ERROR - FXU IS SET
  6992	037244	607 05 0 00 040000 		TLNN	AC+1,FOV	;EXAMINE FOV
  6993	037245	013 05 0 00 035711 		ER13	AC+1,35711	;ERROR - FOV NOT SET
  6994	037246	321 06 0 00 037230 		JUMPL	AC+2,O35710	;LOOP ON ERROR SWITCH
  6995
  6996	037247	254 02 1 00 037250 	O35720:	JRST	2,@.+1		;CLEAR FLAGS
  6997	037250	000000	037251				.+1
  6998	037251	205 02 0 00 600400 		MOVSI	AC-2,-177400	;SETUP FOR COMPARISON
  6999	037252	205 04 0 00 400400 		MOVSI	AC,-377400	;SETUP AC
  7000	037253	132 04 0 00 000200 		FSC	AC,200		;SCALE - AROV,FOV
  7001	037254	265 05 0 00 037255 		JSP	AC+1,.+1	;SAVE FLAGS
  7002	037255	312 04 0 00 000002 		CAME	AC,<AC-2>&17	;TEST C(AC)
  7003	037256	003 04 0 00 035721 		ER3	AC,35721	;C(AC) FAILED
  7004	037257	255 10 0 00 037261 		JOV	.+2		;EXAMINE AROV FLAG
  7005	037260	013 05 0 00 035721 		ER13	AC+1,35721	;AROV FLAG WAS NOT SET
  7006	037261	603 05 0 00 000100 		TLNE	AC+1,FXU	;EXAMINE FXU
  7007	037262	013 05 0 00 035721 		ER13	AC+1,35721	;ERROR - FXU IS SET
  7008	037263	607 05 0 00 040000 		TLNN	AC+1,FOV	;EXAMINE FOV
  7009	037264	013 05 0 00 035721 		ER13	AC+1,35721	;ERROR - FOV NOT SET
  7010	037265	321 06 0 00 037247 		JUMPL	AC+2,O35720	;LOOP ON ERROR SWITCH
DAKCA	PDP-10 KA10 ADVANCED INSTRUCTION DIAGNOSTIC #1, VER 0,2	MACRO %52(537) 12:25 21-JAN-77 PAGE 83
DAKCAM	MAC	21-JAN-77 11:41		PART I.E-GEN TEST-FSC,FAD,FSB AND UFA                                              SEQ 0182

  7011	037266	254 02 1 00 037267 	O35730:	JRST	2,@.+1		;CLEAR FLAGS
  7012	037267	000000	037270				.+1
  7013	037270	205 02 0 00 577400 		MOVSI	AC-2,-200400	;SETUP FOR COMPARISON
  7014	037271	205 04 0 00 400400 		MOVSI	AC,-377400	;SETUP AC
  7015	037272	132 04 0 00 000201 		FSC	AC,201		;SCALE - AROV,FOV
  7016	037273	265 05 0 00 037274 		JSP	AC+1,.+1	;SAVE FLAGS
  7017	037274	312 04 0 00 000002 		CAME	AC,<AC-2>&17	;TEST C(AC)
  7018	037275	003 04 0 00 035731 		ER3	AC,35731	;C(AC) FAILED
  7019	037276	255 10 0 00 037300 		JOV	.+2		;EXAMINE AROV FLAG
  7020	037277	013 05 0 00 035731 		ER13	AC+1,35731	;AROV FLAG WAS NOT SET
  7021	037300	332 00 0 00 030041 		SKIPE	KLFLG
  7022	037301	254 00 0 00 037310 		JRST	O35735		;KL10
  7023	037302	607 05 0 00 000100 		TLNN	AC+1,FXU	;EXAMINE FXU
  7024	037303	013 05 0 00 035731 		ER13	AC+1,35731	;ERROR - FXU IS NOT SET
  7025	037304	607 05 0 00 040000 	O35737:	TLNN	AC+1,FOV	;EXAMINE FOV
  7026	037305	013 05 0 00 035731 		ER13	AC+1,35731	;ERROR - FOV NOT SET
  7027	037306	321 06 0 00 037266 		JUMPL	AC+2,O35730	;LOOP ON ERROR SWITCH
  7028	037307	254 00 0 00 037313 		JRST	O35740
  7029	037310	603 05 0 00 000100 	O35735:	TLNE	AC+1,FXU	;FXU SHOULD NOT BE SET ON KL10
  7030	037311	013 05 0 00 035732 		ER13	AC+1,35732
  7031	037312	254 00 0 00 037304 		JRST	O35737
  7032
  7033	037313	254 02 1 00 037314 	O35740:	JRST	2,@.+1		;CLEAR FLAGS
  7034	037314	000000	037315				.+1
  7035	037315	205 02 0 00 401400 		MOVSI	AC-2,-376400	;SETUP FOR COMPARISON
  7036	037316	205 04 0 00 400400 		MOVSI	AC,-377400	;SETUP AC
  7037	037317	132 04 0 00 000377 		FSC	AC,377		;SCALE - AROV, FOV
  7038	037320	265 05 0 00 037321 		JSP	AC+1,.+1	;SAVE FLAGS
  7039	037321	312 04 0 00 000002 		CAME	AC,<AC-2>&17	;TEST C(AC)
  7040	037322	003 04 0 00 035741 		ER3	AC,35741	;C(AC) RAILED
  7041	037323	255 10 0 00 037325 		JOV	.+2		;EXAMINE AROV FLAG
  7042	037324	013 05 0 00 035741 		ER13	AC+1,35741	;AROV FLAG WAS NOT SET
  7043	037325	332 00 0 00 030041 		SKIPE	KLFLG
  7044	037326	254 00 0 00 037335 		JRST	O35745
  7045	037327	607 05 0 00 000100 		TLNN	AC+1,FXU	;EXAMINE FXU
  7046	037330	013 05 0 00 035741 		ER13	AC+1,35741	;ERROR - FXU IS NOT SET
  7047	037331	607 05 0 00 040000 	O35747:	TLNN	AC+1,FOV	;EXAMINE FOV
  7048	037332	013 05 0 00 035741 		ER13	AC+1,35741	;ERROR - FOV NOT SET
  7049	037333	321 06 0 00 037313 		JUMPL	AC+2,O35740	;LOOP ON ERROR SWITCH
  7050	037334	254 00 0 00 037340 		JRST	O35750
  7051	037335	603 05 0 00 000100 	O35745:	TLNE	AC+1,FXU	;FXU SOULD NOT BE SET ON KL10
  7052	037336	013 05 0 00 035742 		ER13	AC+1,35742
  7053	037337	254 00 0 00 037331 		JRST	O35747
DAKCA	PDP-10 KA10 ADVANCED INSTRUCTION DIAGNOSTIC #1, VER 0,2	MACRO %52(537) 12:25 21-JAN-77 PAGE 84
DAKCAM	MAC	21-JAN-77 11:41		PART I.E-GEN TEST-FSC,FAD,FSB AND UFA                                              SEQ 0183

  7054
  7055	037340	254 02 1 00 037341 	O35750:	JRST	2,@.+1		;CLEAR FLAGS
  7056	037341	000000	037342				.+1
  7057	037342	205 02 0 00 400400 		MOVSI	AC-2,-377400	;SETUP FOR COMPARISON
  7058	037343	205 04 0 00 400400 		MOVSI	AC,-377400	;SETUP AC.
  7059	037344	132 04 0 00 000400 		FSC	AC,400		;SCALE - NO FLAGS
  7060	037345	265 05 0 00 037346 		JSP	AC+1,.+1	;SAVE FLAGS
  7061	037346	312 04 0 00 000002 		CAME	AC,<AC-2>&17	;TEST C(AC)
  7062	037347	003 04 0 00 035751 		ER3	AC,35751	;C(AC) FAILED
  7063	037350	255 10 0 00 037352 		JOV	.+2		;EXAMINE AROV FLAG
  7064	037351	254 00 0 00 037353 		JRST	.+2
  7065	037352	013 05 0 00 035751 		ER13	AC+1,35751	;AROV FLAG WAS SET
  7066	037353	603 05 0 00 040100 		TLNE	AC+1,FOV+FXU	;EXAMINE FLAGS
  7067	037354	013 05 0 00 035751 		ER13	AC+1,35751	;A FLAG WAS SET
  7068	037355	321 06 0 00 037340 		JUMPL	AC+2,O35750	;LOOP ON ERROR SWITCH
DAKCA	PDP-10 KA10 ADVANCED INSTRUCTION DIAGNOSTIC #1, VER 0,2	MACRO %52(537) 12:25 21-JAN-77 PAGE 85
DAKCAM	MAC	21-JAN-77 11:41		PART I.E-GEN TEST-FSC,FAD,FSB AND UFA                                              SEQ 0184

  7069	037356	254 02 1 00 037357 	O35760:	JRST	2,@.+1		;CLEAR FLAGS
  7070	037357	000000	037360				.+1
  7071	037360	205 02 0 00 777400 		MOVSI	AC-2,-400	;SETUP FOR COMPARISON
  7072	037361	205 04 0 00 400400 		MOVSI	AC,-377400	;SETUP AC
  7073	037362	132 04 0 00 777401 		FSC	AC,-377		;SCALE - NO FLAGS
  7074	037363	265 05 0 00 037364 		JSP	AC+1,.+1	;SAVE FLAGS
  7075	037364	312 04 0 00 000002 		CAME	AC,<AC-2>&17	;TEST C(AC)
  7076	037365	003 04 0 00 035761 		ER3	AC,35761	;C(AC) FAILED.
  7077	037366	255 10 0 00 037370 		JOV	.+2		;EXAMINE AROV FLAG
  7078	037367	254 00 0 00 037371 		JRST	.+2
  7079	037370	013 05 0 00 035761 		ER13	AC+1,35761	;AROV FLAG WAS SET
  7080	037371	603 05 0 00 040100 		TLNE	AC+1,FOV+FXU	;EXAMINE FLAGS
  7081	037372	013 05 0 00 035761 		ER13	AC+1,35761	;A FLAG WAS SET
  7082	037373	321 06 0 00 037356 		JUMPL	AC+2,O35760	;LOOP ON ERROR SWITCH
  7083
  7084	037374	254 02 1 00 037375 	O35770:	JRST	2,@.+1		;CLEAR FLAGS
  7085	037375	000000	037376				.+1
  7086	037376	205 02 0 00 400400 		MOVSI	AC-2,-377400	;SETUP FOR COMPARISON
  7087	037377	205 04 0 00 400400 		MOVSI	AC,-377400	;SETUP AC
  7088	037400	132 04 0 00 777400 		FSC	AC,-400		;SCALE - AROV,FOV,FXU
  7089	037401	265 05 0 00 037402 		JSP	AC+1,.+1	;SAVE FLAGS
  7090	037402	312 04 0 00 000002 		CAME	AC,<AC-2>&17	;TEST C(AC)
  7091	037403	003 04 0 00 035771 		ER3	AC,35771	;C(AC) FAILED
  7092	037404	255 10 0 00 037406 		JOV	.+2		;EXAMINE AROV FLAG
  7093	037405	013 05 0 00 035771 		ER13	AC+1,35771	;AROV FLAG WAS NOT SET
  7094	037406	607 05 0 00 040000 		TLNN	AC+1,FOV	;EXAMINE FOV FLAG
  7095	037407	013 05 0 00 035771 		ER13	AC+1,35771	;FOV WAS NOT SET
  7096	037410	607 05 0 00 000100 		TLNN	AC+1,FXU	;EXAMINE FXU FLAG
  7097	037411	013 05 0 00 035771 		ER13	AC+1,35771	;FXU WAS NOT SET
  7098	037412	321 06 0 00 036772 		JUMPL	AC+2,O35570	;LOOP ON ERROR SWITCH
DAKCA	PDP-10 KA10 ADVANCED INSTRUCTION DIAGNOSTIC #1, VER 0,2	MACRO %52(537) 12:25 21-JAN-77 PAGE 86
DAKCAM	MAC	21-JAN-77 11:41		PART I.E-GEN TEST-FSC,FAD,FSB AND UFA                                              SEQ 0185

  7099	037413	254 02 1 00 037414 	O36000:	JRST	2,@.+1		;CLEAR FLAGS
  7100	037414	000000	037415				.+1
  7101	037415	205 02 0 00 777400 		MOVSI	AC-2,-400	;SETUP FOR COMPARISON
  7102	037416	205 04 0 00 777400 		MOVSI	AC,-400		;SETUP AC
  7103	037417	132 04 0 00 000000 		FSC	AC,0		;FSC - NO FLAGS
  7104	037420	265 05 0 00 037421 		JSP	AC+1,.+1	;SAVE FLAGS
  7105	037421	312 04 0 00 000002 		CAME	AC,<AC-2>&17	;TEST C(AC)
  7106	037422	003 04 0 00 036001 		ER3	AC,36001	;C(AC) FAILED
  7107	037423	255 10 0 00 037425 		JOV	.+2		;EXAMINE AROV FLAG
  7108	037424	254 00 0 00 037426 		JRST	.+2
  7109	037425	013 05 0 00 036001 		ER13	AC+1,36001	;AROV FLAG WAS SET
  7110	037426	603 05 0 00 040100 		TLNE	AC+1,FOV+FXU	;TEST FOV,FXU
  7111	037427	013 05 0 00 036001 		ER13	AC+1,36001	;EITHER FOV OR FXU WAS SET
  7112	037430	321 06 0 00 037413 		JUMPL	AC+2,O36000	;LOOP ON ERROR SWITCH
  7113
  7114	037431	254 02 1 00 037432 	O36010:	JRST	2,@.+1		;CLEAR FLAGS
  7115	037432	000000	037433				.+1
  7116	037433	205 02 0 00 400400 		MOVSI	AC-2,-377400	;SETUP FOR COMPARISON
  7117	037434	205 04 0 00 777400 		MOVSI	AC,-400		;SETUP AC
  7118	037435	132 04 0 00 777777 		FSC	AC,-1		;SCALE - AROV,FOV,FXU
  7119	037436	265 05 0 00 037437 		JSP	AC+1,.+1	;SAVE FLAGS
  7120	037437	312 04 0 00 000002 		CAME	AC,<AC-2>&17	;TEST C(AC)
  7121	037440	003 04 0 00 036011 		ER3	AC,36011	;C(AC) FAILED
  7122	037441	255 10 0 00 037443 		JOV	.+2		;EXAMINE AROV FLAG
  7123	037442	013 05 0 00 036011 		ER13	AC+1,36011	;AROV FLAG WAS NOT SET
  7124	037443	607 05 0 00 040000 		TLNN	AC+1,FOV	;EXAMINE FOV FLAG
  7125	037444	013 05 0 00 036011 		ER13	AC+1,36011	;FOV WAS NOT SET
  7126	037445	607 05 0 00 000100 		TLNN	AC+1,FXU	;EXAMINE FXU FLAG
  7127	037446	013 05 0 00 036011 		ER13	AC+1,36011	;FXU WAS NOT SET
  7128	037447	321 06 0 00 037431 		JUMPL	AC+2,O36010	;LOOP ON ERROR SWITCH
  7129
  7130	037450	254 02 1 00 037451 	O36020:	JRST	2,@.+1		;CLEAR FLAGS
  7131	037451	000000	037452				.+1
  7132	037452	205 02 0 00 576400 		MOVSI	AC-2,-201400	;SETUP FOR COMPARISON
  7133	037453	205 04 0 00 777400 		MOVSI	AC,-400		;SETUP AC
  7134	037454	132 04 0 00 777601 		FSC	AC,-177		;SCALE - AROV,FOV,FXU
  7135	037455	265 05 0 00 037456 		JSP	AC+1,.+1	;SAVE FLAGS
  7136	037456	312 04 0 00 000002 		CAME	AC,<AC-2>&17	;TEST C(AC)
  7137	037457	003 04 0 00 036021 		ER3	AC,36021	;C(AC) FAILED
  7138	037460	255 10 0 00 037462 		JOV	.+2		;EXAMINE AROV FLAG
  7139	037461	013 05 0 00 036021 		ER13	AC+1,36021	;AROV FLAG WAS NOT SET
  7140	037462	607 05 0 00 040000 		TLNN	AC+1,FOV	;EXAMINE FOV FLAG
  7141	037463	013 05 0 00 036021 		ER13	AC+1,36021	;FOV WAS NOT SET
  7142	037464	607 05 0 00 000100 		TLNN	AC+1,FXU	;EXAMINE FXU FLAG
  7143	037465	013 05 0 00 036021 		ER13	AC+1,36021	;FXU WAS NOT SET
  7144	037466	321 06 0 00 037450 		JUMPL	AC+2,O36020	;LOOP ON ERROR SWITCH
DAKCA	PDP-10 KA10 ADVANCED INSTRUCTION DIAGNOSTIC #1, VER 0,2	MACRO %52(537) 12:25 21-JAN-77 PAGE 87
DAKCAM	MAC	21-JAN-77 11:41		PART I.E-GEN TEST-FSC,FAD,FSB AND UFA                                              SEQ 0186

  7145	037467	254 02 1 00 037470 	O36030:	JRST	2,@.+1		;CLEAR FLAGS
  7146	037470	000000	037471				.+1
  7147	037471	205 02 0 00 577400 		MOVSI	AC-2,-200400	;SETUP FOR COMPARISON
  7148	037472	205 04 0 00 777400 		MOVSI	AC,-400		;SETUP AC
  7149	037473	132 04 0 00 777600 		FSC	AC,-200		;SCALE - AROV,FOV,FXU
  7150	037474	265 05 0 00 037475 		JSP	AC+1,.+1	;SAVE FLAGS
  7151	037475	312 04 0 00 000002 		CAME	AC,<AC-2>&17	;TEST C(AC)
  7152	037476	003 04 0 00 036031 		ER3	AC,36031	;C(AC) FAILED
  7153	037477	255 10 0 00 037501 		JOV	.+2		;EXAMINE AROV FLAG
  7154	037500	013 05 0 00 036031 		ER13	AC+1,36031	;AROV FLAG WAS NOT SET
  7155	037501	607 05 0 00 040000 		TLNN	AC+1,FOV	;EXAMINE FOV FLAG
  7156	037502	013 05 0 00 036031 		ER13	AC+1,36031	;FOV WAS NOT SET
  7157	037503	607 05 0 00 000100 		TLNN	AC+1,FXU	;EXAMINE FXU FLAG
  7158	037504	013 05 0 00 036031 		ER13	AC+1,36031	;FXU WAS NOT SET
  7159	037505	321 06 0 00 037467 		JUMPL	AC+2,O36030	;LOOP ON ERROR SWITCH
  7160
  7161	037506	254 02 1 00 037507 	O36040:	JRST	2,@.+1		;CLEAR FLAGS
  7162	037507	000000	037510				.+1
  7163	037510	205 02 0 00 776400 		MOVSI	AC-2,-1400	;SETUP FOR COMPARISON
  7164	037511	205 04 0 00 777400 		MOVSI	AC,-400		;SETUP AC
  7165	037512	132 04 0 00 777401 		FSC	AC,-377		;SCALE - AROV,FOV,FXU
  7166	037513	265 05 0 00 037514 		JSP	AC+1,.+1	;SAVE FLAGS
  7167	037514	312 04 0 00 000002 		CAME	AC,<AC-2>&17	;TEST C(AC)
  7168	037515	003 04 0 00 036041 		ER3	AC,36041	;C(AC) FAILED
  7169	037516	255 10 0 00 037520 		JOV	.+2		;EXAMINE AROV FLAG
  7170	037517	013 05 0 00 036041 		ER13	AC+1,36041	;AROV FLAG WAS NOT SET
  7171	037520	607 05 0 00 040000 		TLNN	AC+1,FOV	;EXAMINE FOV FLAG
  7172	037521	013 05 0 00 036041 		ER13	AC+1,36041	;FOV WAS NOT SET
  7173	037522	332 00 0 00 030041 		SKIPE	KLFLG
  7174	037523	254 00 0 00 037530 		JRST	O36045		;KL10
  7175	037524	603 05 0 00 000100 		TLNE	AC+1,FXU	;EXAMINE FXU FLAG
  7176	037525	013 05 0 00 036041 		ER13	AC+1,36041	;FXU WAS SET
  7177	037526	321 06 0 00 037506 	O36047:	JUMPL	AC+2,O36040	;LOOP ON ERROR SWITCH
  7178	037527	254 00 0 00 037533 		JRST	O36050
  7179	037530	607 05 0 00 000100 	O36045:	TLNN	AC+1,FXU	;FXU SHOULD BE SET ON KL10
  7180	037531	013 05 0 00 036042 		ER13	AC+1,36042
  7181	037532	254 00 0 00 037526 		JRST	O36047
DAKCA	PDP-10 KA10 ADVANCED INSTRUCTION DIAGNOSTIC #1, VER 0,2	MACRO %52(537) 12:25 21-JAN-77 PAGE 88
DAKCAM	MAC	21-JAN-77 11:41		PART I.E-GEN TEST-FSC,FAD,FSB AND UFA                                              SEQ 0187

  7182
  7183	037533	254 02 1 00 037534 	O36050:	JRST	2,@.+1		;CLEAR FLAGS
  7184	037534	000000	037535				.+1
  7185	037535	205 02 0 00 777400 		MOVSI	AC-2,-400	;SETUP FOR COMPARISON
  7186	037536	205 04 0 00 777400 		MOVSI	AC,-400		;SETUP AC
  7187	037537	132 04 0 00 777400 		FSC	AC,-400		;SCALE - AROV,FOV,FXU
  7188	037540	265 05 0 00 037541 		JSP	AC+1,.+1	;SAVE FLAGS
  7189	037541	312 04 0 00 000002 		CAME	AC,<AC-2>&17	;TEST C(AC)
  7190	037542	003 04 0 00 036051 		ER3	AC,36051	;C(AC) FAILED
  7191	037543	255 10 0 00 037545 		JOV	.+2		;EXAMINE AROV FLAG
  7192	037544	013 05 0 00 036051 		ER13	AC+1,36051	;AROV FLAG WAS NOT SET
  7193	037545	607 05 0 00 040000 		TLNN	AC+1,FOV	;EXAMINE FOV FLAG
  7194	037546	013 05 0 00 036051 		ER13	AC+1,36051	;FOV WAS NOT SET
  7195	037547	332 00 0 00 030041 		SKIPE	KLFLG
  7196	037550	254 00 0 00 037555 		JRST	O36055		;KL10
  7197	037551	603 05 0 00 000100 		TLNE	AC+1,FXU	;EXAMINE FXU FLAG
  7198	037552	013 05 0 00 036051 		ER13	AC+1,36051	;FXU WAS SET
  7199	037553	321 06 0 00 037533 	O36057:	JUMPL	AC+2,O36050	;LOOP ON ERROR SWITCH
  7200	037554	254 00 0 00 037560 		JRST	O36060
  7201	037555	607 05 0 00 000100 	O36055:	TLNN	AC+1,FXU	;FXU SHOULD BE SET ON KL10
  7202	037556	013 05 0 00 036052 		ER13	AC+1,36052
  7203	037557	254 00 0 00 037553 		JRST	O36057
DAKCA	PDP-10 KA10 ADVANCED INSTRUCTION DIAGNOSTIC #1, VER 0,2	MACRO %52(537) 12:25 21-JAN-77 PAGE 89
DAKCAM	MAC	21-JAN-77 11:41		PART I.E-GEN TEST-FSC,FAD,FSB AND UFA                                              SEQ 0188

  7204	037560	254 02 1 00 037561 	O36060:	JRST	2,@.+1		;CLEAR FLAGS
  7205	037561	000000	037562				.+1
  7206	037562	205 02 0 00 400400 		MOVSI	AC-2,-377400	;SETUP FOR COMPARISON
  7207	037563	205 04 0 00 777400 		MOVSI	AC,-400		;SETUP AC
  7208	037564	132 04 0 00 000377 		FSC	AC,377		;SCALE - NO FLAGS
  7209	037565	265 05 0 00 037566 		JSP	AC+1,.+1	;SAVE FLAGS
  7210	037566	312 04 0 00 000002 		CAME	AC,<AC-2>&17	;TEST C(AC)
  7211	037567	003 04 0 00 036061 		ER3	AC,36061	;C(AC) FAILED
  7212	037570	255 10 0 00 037572 		JOV	.+2		;EXAMINE AROV FLAG
  7213	037571	254 00 0 00 037573 		JRST	.+2
  7214	037572	013 05 0 00 036061 		ER13	AC+1,36061	;AROV FLAG WAS SET
  7215	037573	603 05 0 00 040100 		TLNE	AC+1,FOV+FXU	;EXAMINE FLAGS
  7216	037574	013 05 0 00 036061 		ER13	AC+1,36061	;A FLAG WAS SET
  7217	037575	321 06 0 00 037560 		JUMPL	AC+2,O36060	;LOOP ON ERROR SWITCH
  7218
  7219	037576	254 02 1 00 037577 	O36070:	JRST	2,@.+1		;CLEAR FLAGS
  7220	037577	000000	037600				.+1
  7221	037600	205 02 0 00 777400 		MOVSI	AC-2,-400	;SETUP FOR COMPARISON
  7222	037601	205 04 0 00 777400 		MOVSI	AC,-400		;SETUP AC
  7223	037602	132 04 0 00 000400 		FSC	AC,400		;SCALE - NO FLAGS
  7224	037603	265 05 0 00 037604 		JSP	AC+1,.+1	;SAVE FLAGS
  7225	037604	312 04 0 00 000002 		CAME	AC,<AC-2>&17	;TEST C(AC)
  7226	037605	003 04 0 00 036071 		ER3	AC,36071	;C(AC) FAILED
  7227	037606	255 10 0 00 037610 		JOV	.+2		;EXAMINE AROV FLAG
  7228	037607	254 00 0 00 037611 		JRST	.+2
  7229	037610	013 05 0 00 036071 		ER13	AC+1,36071	;AROV FLAG WAS SET
  7230	037611	603 05 0 00 040100 		TLNE	AC+1,FOV+FXU	;EXAMINE FLAGS
  7231	037612	013 05 0 00 036071 		ER13	AC+1,36071	;A FLAG WAS SET
  7232	037613	321 06 0 00 037576 		JUMPL	AC+2,O36070	;LOOP ON ERROR SWITCH
  7233
  7234	037614	254 00 0 00 030057 		JRST	BEGEND		;REPEAT DIAGNOSTIC
DAKCA	PDP-10 KA10 ADVANCED INSTRUCTION DIAGNOSTIC #1, VER 0,2	MACRO %52(537) 12:25 21-JAN-77 PAGE 1
UUOERR	KLM	22-APR-75 01:42		*UUOERR* OLD-UUO ERROR HANDLER SUBROUTINE, V75B, APR 22,1975                       SEQ 0189

  7235					SUBTTL	*UUOERR* OLD-UUO ERROR HANDLER SUBROUTINE, V75B, APR 22,1975
  7236
  7237					;THIS SUBROUTINE PROVIDES ERROR REPORTING THRU THE USE OF UUO'S.
  7238
  7239	037615	202 00 0 00 040250 	ERRMES:	MOVEM	0,%ERAC0#	;SAVE AC0
  7240						IFDEF	EXCASB,<IFDEF	KI10,<
  7241						SKIPN	KAIFLG
  7242						JRST	.+5
  7243						SKIPE	USER		;USER MODE ?
  7244						JRST	.+3
  7245						SKIPE	MARGIN
  7246						DATAO	APR,[IMGNOF,,ISPDOF] ;CLR MARGINS >>
  7247	037616	202 01 0 00 040251 		MOVEM	1,%ERAC1#	;SAVE AC1
  7248	037617	202 02 0 00 040252 		MOVEM	2,%ERAC2#	;SAVE AC2
  7249	037620	350 00 0 00 030053 		AOS	ERRTLS		;INCREMENT ERROR TOTALS
  7250	037621	550 00 0 00 030114 		HRRZ	0,$SVUPC	;GET PC OF UUO
  7251	037622	316 00 0 00 030052 		CAMN	0,ERRPC		;PC = PC OF LAST ERROR ?
  7252	037623	350 00 0 00 040245 		AOS	MICNT#		;YES, ADD 1 TO ERROR COUNT
  7253	037624	200 00 0 00 040245 		MOVE	0,MICNT
  7254	037625	504 00 0 00 030114 		HRL	0,$SVUPC
  7255	037626	336 00 0 00 030041 		SKIPN	KLFLG		;NOT KL10
  7256	037627	332 00 0 00 030037 		SKIPE	USER		;AND NOT USER?
  7257	037630	254 00 0 00 037632 		JRST	.+2
  7258	037631	7 004 14 0 00 000000 		DATAO	PI,0		;YES, DISPLAY ERROR PC,ERROR COUNT
  7259	037632	402 00 0 00 040246 		SETZM	PROCED#		;CLEAR PROCEED FLAG
  7260	037633	037 10 0 00 000002 		SWITCH
  7261	037634	603 00 0 00 040000 		TLNE	NOPNT		;PRINTOUT ?
  7262	037635	254 00 0 00 037750 		JRST	%ERRS1		;NO, RESTORE AC'S AND RETURN
  7263	037636	200 01 0 00 030113 		MOVE	1,$SVUUO
  7264	037637	242 01 0 00 777745 		LSH	1,-^D27
  7265	037640	202 01 0 00 040247 		MOVEM	1,%ACS1A#	;SAVE UUO NUMBER
  7266	037641	200 00 0 00 040250 		MOVE	0,%ERAC0
  7267	037642	200 01 0 00 040251 		MOVE	1,%ERAC1
  7268	037643	335 00 1 00 040244 		SKIPGE	@ERRLOP		;ERR LOOP AC > OR = 0 ?
  7269	037644	254 00 0 00 040002 		JRST	%ERRS4		;NO, SEE IF PRINT ALL
  7270	037645	402 00 0 00 040245 	%ERMS1:	SETZM	MICNT		;CLEAR ERROR COUNT
  7271	037646	331 00 0 00 030043 		SKIPL	MONCTL		;DIAG MON OR SYS EXER ?
  7272	037647	254 00 0 00 037653 		JRST	.+4		;NO, DON'T NEED TITLE
  7273	037650	336 00 0 00 040253 		SKIPN	%ERFST#		;FIRST ERROR ?
  7274	037651	037 04 0 00 000002 		PNTNM			;YES, PRINT PROGRAM TITLE
  7275	037652	476 00 0 00 040253 		SETOM	%ERFST
  7276	037653	336 00 0 00 030047 		SKIPN	PASCNT		;FIRST PASS ?
  7277	037654	254 00 0 00 037660 		JRST	.+4		;YES
  7278						PMSG	<^TEST PASS COUNT = >^
  7279	037655	037 02 0 00 040071 		PSIXM	[SIXBIT\^TEST PASS COUNT = _\]^
  7280	037656	200 00 0 00 030047 		MOVE	PASCNT
  7281	037657	037 15 0 00 000000 		PNTDEC
  7282						PMSG	<^PC =   >^
  7283	037660	037 02 0 00 040075 		PSIXM	[SIXBIT\^PC =   _\]^
  7284	037661	550 00 0 00 030114 		HRRZ	0,$SVUPC	;GET PC OF UUO
  7285	037662	202 00 0 00 030052 		MOVEM	0,ERRPC		;SAVE FOR COMPARE
  7286	037663	037 06 0 00 000000 		PNT6			;PRINT UUO ADDRESS
  7287						XLIST
  7288						IFDEF	ERDIAG,<LIST
DAKCA	PDP-10 KA10 ADVANCED INSTRUCTION DIAGNOSTIC #1, VER 0,2	MACRO %52(537) 12:25 21-JAN-77 PAGE 2
UUOERR	KLM	22-APR-75 01:42		*UUOERR* OLD-UUO ERROR HANDLER SUBROUTINE, V75B, APR 22,1975                       SEQ 0190

  7289					;DIAGNOSTIC FORMAT ERROR PRINTER
  7290
  7291					;PRINT RESULT
  7292
  7293	037664				%ERMS2:	PMSG	<^RESULT  = >^
  7294	037664	037 02 0 00 040077 		PSIXM	[SIXBIT\^RESULT  = _\]^
  7295	037665	200 01 0 00 030113 		MOVE	1,$SVUUO	;GET AC # OF UUO
  7296	037666	242 01 0 00 777751 		LSH	1,-27
  7297	037667	405 01 0 00 000017 		ANDI	1,17
  7298	037670	200 00 0 01 000000 		MOVE	0,(1)		;GET C(AC)
  7299	037671	307 01 0 00 000001 		CAIG	1,1		;IS AC # = TO SAVE AC ?
  7300	037672	200 00 0 01 040250 		MOVE	0,%ERAC0(1)	;YES, GET SAVED AC
  7301	037673	037 13 0 00 000000 		PNTHW			;PRINT C(AC)
  7302
  7303	037674	200 00 0 00 030046 		MOVE	CONSW
  7304	037675	603 00 0 00 000200 		TLNE	TXTINH		;PRINT FAILURE DES AND FLT NBR ?
  7305	037676	254 00 0 00 037745 		JRST	%ERMORE		;NO, RESTORE AC'S ETC.
  7306
  7307					;PRINT FAILURE DESCRIPTOR
  7308
  7309	037677	200 01 0 00 040247 		MOVE	1,%ACS1A	;GET UUO NUMBER
  7310	037700	307 01 0 00 000001 		CAIG	1,1		;PRINT DESCRIPTOR ?
  7311	037701	254 00 0 00 037705 		JRST	%ERMS3		;NO, JUST PRINT FAULT NUMBER
  7312	037702	037 00 0 00 030242 		PCRL
  7313	037703	200 00 0 01 037731 		MOVE	%FLTTB(1)
  7314	037704	037 17 0 00 000000 		PNTAL			;PRINT FAULT DESCRIPTOR
  7315
  7316					;PRINT FAULT NUMBER
  7317
  7318	037705				%ERMS3:	PMSG	<^FAULT NUMBER = >^
  7319	037705	037 02 0 00 040101 		PSIXM	[SIXBIT\^FAULT NUMBER = _\]^
  7320	037706	201 00 0 00 037730 		MOVEI	TLET
  7321	037707	037 00 0 00 000000 		PNTA			;PRINT TEST LETTER
DAKCA	PDP-10 KA10 ADVANCED INSTRUCTION DIAGNOSTIC #1, VER 0,2	MACRO %52(537) 12:25 21-JAN-77 PAGE 3
UUOERR	KLM	22-APR-75 01:42		*UUOERR* OLD-UUO ERROR HANDLER SUBROUTINE, V75B, APR 22,1975                       SEQ 0191

  7322
  7323	037710	550 00 0 00 030113 		HRRZ	$SVUUO
  7324	037711	602 00 0 00 700000 		TRNE	700000
  7325	037712	254 00 0 00 037726 		JRST	%ER6X
  7326	037713	602 00 0 00 070000 		TRNE	070000
  7327	037714	254 00 0 00 037724 		JRST	%ER5X
  7328	037715	602 00 0 00 007000 		TRNE	007000
  7329	037716	254 00 0 00 037722 		JRST	%ER4X
  7330	037717	037 03 0 00 000000 		PNT3			;PRINT FAULT NUMBER
  7331	037720	037 00 0 00 030242 	%ER7X:	PCRL
  7332	037721	254 00 0 00 037745 		JRST	%ERMORE
  7333
  7334	037722	037 04 0 00 000000 	%ER4X:	PNT4
  7335	037723	254 00 0 00 037720 		JRST	%ER7X
  7336	037724	037 05 0 00 000000 	%ER5X:	PNT5
  7337	037725	254 00 0 00 037720 		JRST	%ER7X
  7338	037726	037 06 0 00 000000 	%ER6X:	PNT6
  7339	037727	254 00 0 00 037720 		JRST	%ER7X
  7340
  7341					;FAILURE DESCRIPTORS
  7342
  7343	037730	000000	000000		TLET:	0			;TEST LETTER
  7344	037731	000000	000000		%FLTTB:	0			;DESCRIPTOR TABLE
  7345	037732	000000	040104		%NODES:	[0]			;NO DESCRIPTOR
  7346	037733	000000	040104		SPDES:	[0]			;SPECIAL USER FAILURE DESCRIPTOR
  7347	037734	000000	040105		$ACF:	[ASCIZ/C(AC) FAILED/]
  7348	037735	000000	040110		%AC1F:	[ASCIZ/C(AC+1) FAILED/]
  7349	037736	000000	040113		%EF:	[ASCIZ/C(E) FAILED/]
  7350	037737	000000	040116		%E1F:	[ASCIZ/C(E+1) FAILED/]
  7351	037740	000000	040121		%ARF:	[ASCIZ/C(C(ACR)) FAILED/]
  7352	037741	000000	040125		%AR1F:	[ASCIZ/C(C(ACR+1)) FAILED/]
  7353	037742	000000	040131		%ALF:	[ASCIZ/C(C(ACL)) FAILED/]
  7354	037743	000000	040135		%EEF:	[ASCIZ/C(C(E)) FAILED/]
  7355	037744	000000	040140		%FF:	[ASCIZ/FLAG FAILED/]
  7356					>
  7357						XLIST
  7358						LIST
DAKCA	PDP-10 KA10 ADVANCED INSTRUCTION DIAGNOSTIC #1, VER 0,2	MACRO %52(537) 12:25 21-JAN-77 PAGE 8
UUOERR	KLM	22-APR-75 01:42		*UUOERR* OLD-UUO ERROR HANDLER SUBROUTINE, V75B, APR 22,1975                       SEQ 0192

  7359					;RESTORE AC'S AND RETURN OR HALT
  7360
  7361	037745	256 00 0 00 030101 	%ERMORE:XCT	ERMORE
  7362	037746	037 16 0 00 000002 		PNTMGN			;PRINT MARGINS
  7363	037747	037 10 0 00 000002 		SWITCH
  7364
  7365	037750	037 07 0 00 000003 	%ERRS1:	TTALTM			;ALTMODE CHECK
  7366	037751	254 00 0 00 037755 		JRST	.+4		;NONE
  7367	037752	201 00 0 00 037755 		MOVEI	.+3		;SAVE CONT ADDRESS
  7368	037753	202 00 0 00 000130 		MOVEM	JOBOPC
  7369	037754	254 00 1 00 030063 		JRST	@ALTMGO		;PERFORM TRANSFER
  7370	037755	200 00 0 00 030046 		MOVE	CONSW
  7371	037756	603 00 0 00 002000 		TLNE	0,ERSTOP	;HALT ON ERROR SWITCH SET ?
  7372	037757	037 14 0 00 000004 		ERRHLT			;YES
  7373	037760	607 00 0 00 004000 		TLNN	0,LOOPER	;LOOP ON ERROR SWITCH SET ?
  7374	037761	476 00 0 00 040246 		SETOM	PROCED		;NO, SET THE PROCEED FLAG
  7375	037762	603 00 0 00 010000 		TLNE	0,DING		;RING BELL SWITCH SET ?
  7376	037763	037 01 0 00 000007 		PBELL			;YES, GO RING BELL
  7377
  7378	037764	200 02 0 00 040252 	%ERRS2:	MOVE	2,%ERAC2	;RESTORE AC'S
  7379	037765	200 01 0 00 040251 		MOVE	1,%ERAC1
  7380	037766	476 00 1 00 040244 		SETOM	@ERRLOP		;SET C(ERR LOOP AC) TO -1
  7381	037767	336 00 0 00 040246 		SKIPN	PROCED		;LOOP ON ERROR ?
  7382	037770	254 00 0 00 040000 		JRST	%ERRS5		;YES
  7383	037771	350 00 1 00 040244 		AOS	@ERRLOP		;NO, INC C(ERR LOOP AC)
  7384	037772	350 00 1 00 040244 		AOS	@ERRLOP		;SO IT ='S 1
  7385	037773	331 00 0 00 030043 		SKIPL	MONCTL		;UNDER DIAGNOSTIC MONITOR ?
  7386	037774	254 00 0 00 040000 		JRST	%ERRS5		;NO, CONTINUE PROGRAM
  7387	037775	200 00 0 00 030053 		MOVE	0,ERRTLS	;YES
  7388	037776	301 00 0 00 000005 		CAIL	0,5		;PRINTED ALLOWED ERRORS ?
  7389	037777	254 00 0 00 030061 		JRST	$BEND2
  7390
  7391	040000	200 00 0 00 040250 	%ERRS5:	MOVE	0,%ERAC0	;NO, CONTINUE PROGRAM
  7392						IFDEF	EXCASB,<IFDEF KI10,<
  7393						SKIPN	KAIFLG
  7394						JRST	.+5
  7395						SKIPE	USER
  7396						JRST	.+3
  7397						SKIPE	MARGIN
  7398						DATAO	APR,MARGIN	;RESET MARGIN SYSTEM >>
  7399	040001	254 00 0 00 030065 		JRST	UUOEXT
  7400
  7401	040002	200 00 0 00 030046 	%ERRS4:	MOVE	0,CONSW
  7402	040003	607 00 0 00 001000 		TLNN	PALERS		;PRINT ALL ERRORS ?
  7403	040004	254 00 0 00 037750 		JRST	%ERRS1		;NO
  7404	040005	254 00 0 00 037645 		JRST	%ERMS1		;YES
DAKCA	PDP-10 KA10 ADVANCED INSTRUCTION DIAGNOSTIC #1, VER 0,2	MACRO %52(537) 12:25 21-JAN-77 PAGE 1
STOR	KLM	18-JAN-77 11:42		*STOR* RESERVED STORAGE, JAN 18,1977                                               SEQ 0193

  7405					SUBTTL	*STOR* RESERVED STORAGE, JAN 18,1977
  7406
  7407					;PROGRAM LITERALS
  7408
  7409						XLIST
  7410					IFNDEF	$LPAPER,<LIST>
  7411	040006					LIT
  7412	040006	45 70 51 64 00 00
  7413	040007	103 101 000 000 000
  7414	040010	000000	031437
  7415	040011	200000	000001
  7416	040012	200000	000002
  7417	040013	200000	000004
  7418	040014	200000	000010
  7419	040015	200000	000020
  7420	040016	200000	000040
  7421	040017	200000	000100
  7422	040020	200000	000200
  7423	040021	200000	000400
  7424	040022	200000	001000
  7425	040023	200000	002000
  7426	040024	200000	004000
  7427	040025	200000	010000
  7428	040026	200000	020000
  7429	040027	200000	040000
  7430	040030	200000	100000
  7431	040031	200000	200000
  7432	040032	200000	400000
  7433	040033	200001	000000
  7434	040034	200002	000000
  7435	040035	200004	000000
  7436	040036	200010	000000
  7437	040037	200020	000000
  7438	040040	200040	000000
  7439	040041	200100	000000
  7440	040042	000000	035427
  7441	040043	200400	000001
  7442	040044	200400	000000
  7443	040045	202400	000000
  7444	040046	203400	000000
  7445	040047	204400	000000
  7446	040050	205400	000000
  7447	040051	206400	000000
  7448	040052	207400	000000
  7449	040053	210400	000000
  7450	040054	211400	000000
  7451	040055	212400	000000
  7452	040056	213400	000000
  7453	040057	214400	000000
  7454	040060	215400	000000
  7455	040061	216400	000000
  7456	040062	217400	000000
  7457	040063	220400	000000
  7458	040064	221400	000000
  7459	040065	222400	000000
DAKCA	PDP-10 KA10 ADVANCED INSTRUCTION DIAGNOSTIC #1, VER 0,2	MACRO %52(537) 12:25 21-JAN-77 PAGE 1-1
STOR	KLM	18-JAN-77 11:42		*STOR* RESERVED STORAGE, JAN 18,1977                                               SEQ 0194

  7460	040066	177400	000000
  7461	040067	576400	000000
  7462	040070	200076	000000
  7463	040071	76 64 45 63 64 00
  7464	040072	60 41 63 63 00 43
  7465	040073	57 65 56 64 00 35
  7466	040074	00 77 00 00 00 00
  7467	040075	76 60 43 00 35 00
  7468	040076	00 00 77 00 00 00
  7469	040077	76 62 45 63 65 54
  7470	040100	64 00 00 35 00 77
  7471	040101	76 46 41 65 54 64
  7472	040102	00 56 65 55 42 45
  7473	040103	62 00 35 00 77 00
  7474	040104	000000	000000
  7475	040105	103 050 101 103 051
  7476	040106	040 106 101 111 114
  7477	040107	105 104 000 000 000
  7478	040110	103 050 101 103 053
  7479	040111	061 051 040 106 101
  7480	040112	111 114 105 104 000
  7481	040113	103 050 105 051 040
  7482	040114	106 101 111 114 105
  7483	040115	104 000 000 000 000
  7484	040116	103 050 105 053 061
  7485	040117	051 040 106 101 111
  7486	040120	114 105 104 000 000
  7487	040121	103 050 103 050 101
  7488	040122	103 122 051 051 040
  7489	040123	106 101 111 114 105
  7490	040124	104 000 000 000 000
  7491	040125	103 050 103 050 101
  7492	040126	103 122 053 061 051
  7493	040127	051 040 106 101 111
  7494	040130	114 105 104 000 000
  7495	040131	103 050 103 050 101
  7496	040132	103 114 051 051 040
  7497	040133	106 101 111 114 105
  7498	040134	104 000 000 000 000
  7499	040135	103 050 103 050 105
  7500	040136	051 051 040 106 101
  7501	040137	111 114 105 104 000
  7502	040140	106 114 101 107 040
  7503	040141	106 101 111 114 105
  7504	040142	104 000 000 000 000
  7505						LIST
  7506	040143	000000	000000		ENDSLD:	0
  7507
  7508					IFDEF	DEBUG,<
  7509	040144				PATCH:	BLOCK DEBUG		;PATCHING AREA
  7510					>
  7511
  7512					;PROGRAM VARIABLES
  7513	040244					VAR
  7514
DAKCA	PDP-10 KA10 ADVANCED INSTRUCTION DIAGNOSTIC #1, VER 0,2	MACRO %52(537) 12:25 21-JAN-77 PAGE 1-2
STOR	KLM	18-JAN-77 11:42		*STOR* RESERVED STORAGE, JAN 18,1977                                               SEQ 0195

  7515					IFDEF	PGMEND,<
  7516	040254	000000	000000		END:	0
  7517			030000			END	BEGIN	>

NO ERRORS DETECTED

PROGRAM BREAK IS 000000
ABSLUTE BREAK IS 040255
CPU TIME USED 00:32.349

11K CORE USED

AABCLR	   333#
AADRBK	   333#                                                                                                            SEQ 0196
AAPRC1	   333#
ABORT	   104#
AC	   704#	   706	   707	   708	   709	   711	   712	   713	   714	   715	   716	   723#	   725	   726
	   727	   728	   730	   731	   732	   733	   734	   735	   741#	   743	   744	   745	   746	   748
	   749	   750	   751	   752	   753	   760#	   762	   763	   764	   765	   767	   768	   769	   770
	   771	   772	   778#	   780	   781	   782	   783	   785	   786	   787	   788	   789	   790	   797#
	   799	   800	   801	   802	   823	   824	   825	   826	   827	   828	   834	   835	   836	   837
	   838	   839	   845	   846	   847	   848	   849	   850	   856	   857	   858	   859	   860	   861
	   867	   868	   869	   870	   871	   872	   878	   879	   880	   881	   882	   883	   889	   890
	   891	   892	   893	   894	   903#	   905	   906	   907	   908	   933	   934	   935	   936	   937
	   938	   945	   946	   947	   948	   949	   950	   957	   958	   959	   960	   961	   962	   969
	   970	   971	   972	   973	   974	   981	   982	   983	   984	   985	   986	   993	   994	   995
	   996	   997	   998	  1005	  1006	  1007	  1008	  1009	  1010	  1019#	  1021	  1022	  1023	  1024
	  1026	  1027	  1028	  1029	  1030	  1031	  1037#	  1039	  1040	  1041	  1042	  1064	  1065	  1066
	  1067	  1068	  1069	  1075	  1076	  1077	  1078	  1079	  1080	  1086	  1087	  1088	  1089	  1090
	  1091	  1097	  1098	  1099	  1100	  1101	  1102	  1108	  1109	  1110	  1111	  1112	  1113	  1119
	  1120	  1121	  1122	  1123	  1124	  1130	  1131	  1132	  1133	  1134	  1135	  1144#	  1146	  1147
	  1148	  1149	  1152	  1153	  1154	  1155	  1156	  1157	  1160	  1161	  1162	  1163	  1164	  1165
	  1168	  1169	  1170	  1171	  1172	  1173	  1176	  1177	  1178	  1179	  1180	  1181	  1183	  1184
	  1185	  1186	  1187	  1188	  1191	  1192	  1193	  1194	  1195	  1196	  1199	  1200	  1201	  1202
	  1203	  1204	  1207	  1208	  1209	  1210	  1211	  1212	  1218#	  1220	  1221	  1222	  1223	  1225
	  1226	  1227	  1228	  1229	  1230	  1237#	  1239	  1240	  1241	  1242	  1244	  1245	  1246	  1247
	  1248	  1249	  1257#	  1259	  1260	  1261	  1262	  1280	  1281	  1282	  1283	  1284	  1285	  1290
	  1291	  1292	  1293	  1294	  1295	  1300	  1301	  1302	  1303	  1304	  1305	  1310	  1311	  1312
	  1313	  1314	  1315	  1320	  1321	  1322	  1323	  1324	  1325	  1330	  1331	  1332	  1333	  1334
	  1335	  1340	  1341	  1342	  1343	  1344	  1345	  1350	  1351	  1352	  1353	  1354	  1355	  1360#
	  1362	  1363	  1364	  1365	  1367	  1368	  1369	  1370	  1371	  1372	  1377#	  1379	  1380	  1381
	  1382	  1384	  1385	  1386	  1387	  1388	  1389	  1396#	  1398	  1399	  1400	  1401	  1403	  1404
	  1405	  1406	  1407	  1408	  1415#	  1417	  1418	  1419	  1420	  1422	  1423	  1424	  1425	  1426
	  1427	  1434#	  1436	  1437	  1438	  1439	  1441	  1442	  1443	  1444	  1445	  1446	  1454#	  1456
	  1457	  1458	  1459	  1463	  1464	  1465	  1467	  1468	  1472	  1473	  1474	  1476	  1477	  1481
	  1482	  1483	  1484	  1485	  1486	  1487	  1496#	  1498	  1499	  1500	  1501	  1503	  1504	  1505
	  1506	  1507	  1519#	  1521	  1522	  1523	  1524	  1526	  1527	  1528	  1529	  1530	  1531	  1532
	  1542#	  1544	  1545	  1546	  1547	  1549	  1550	  1551	  1552	  1553	  1554	  1561#	  1563	  1564
	  1565	  1566	  1568	  1569	  1570	  1571	  1572	  1573	  1574	  1582#	  1584	  1585	  1586	  1587
	  1589	  1590	  1591	  1592	  1593	  1594	  1595	  1601#	  1603	  1604	  1605	  1606	  1608	  1609
	  1610	  1611	  1612	  1613	  1614	  1621#	  1623	  1624	  1625	  1626	  1628	  1629	  1630	  1631
	  1632	  1633	  1634	  1641#	  1643	  1644	  1645	  1646	  1648	  1649	  1650	  1651	  1652	  1653
	  1654	  1665#	  1667	  1668	  1669	  1670	  1672	  1673	  1674	  1675	  1676	  1677	  1678	  1679
	  1680	  1681	  1690#	  1692	  1693	  1694	  1695	  1697	  1698	  1699	  1700	  1701	  1702	  1703
	  1711#	  1713	  1714	  1715	  1716	  1718	  1719	  1720	  1721	  1722	  1723	  1724	  1733#	  1735
	  1736	  1737	  1738	  1740	  1741	  1742	  1743	  1744	  1745	  1746	  1754#	  1756	  1757	  1758
	  1759	  1761	  1762	  1763	  1764	  1765	  1766	  1767	  1776#	  1778	  1779	  1780	  1781	  1783
	  1784	  1785	  1786	  1787	  1788	  1789	  1798#	  1800	  1801	  1802	  1803	  1805	  1806	  1807
	  1808	  1809	  1810	  1818#	  1820	  1821	  1822	  1823	  1843	  1844	  1845	  1846	  1847	  1848
	  1849	  1854	  1855	  1856	  1857	  1858	  1859	  1860	  1865	  1866	  1867	  1868	  1869	  1870
	  1871	  1876	  1877	  1878	  1879	  1880	  1881	  1882	  1887	  1888	  1889	  1890	  1891	  1892
	  1893	  1898	  1899	  1900	  1901	  1902	  1903	  1904	  1909	  1910	  1911	  1912	  1913	  1914
	  1915	  1923#	  1925	  1926	  1927	  1928	  1930	  1931	  1932	  1933	  1934	  1935	  1936	  1944#
	  1946	  1947	  1948	  1949	  1951	  1952	  1953	  1954	  1955	  1956	  1965#	  1967	  1968	  1969
	  1970	  1972	  1973	  1974	  1975	  1976	  1977	  1978	  1988#	  1990	  1991	  1992	  1993	  1995
	  1996	  1997	  1998	  1999	  2000	  2006#	  2008	  2009	  2010	  2011	  2013	  2014	  2015	  2016
	  2017	  2018	  2019	  2026#	  2028	  2029	  2030	  2031	  2033	  2034	  2035	  2036	  2037	  2038     SEQ 0197
	  2039	  2049#	  2051	  2052	  2053	  2054	  2057	  2058	  2059	  2060	  2061	  2062	  2063	  2066
	  2067	  2068	  2069	  2070	  2071	  2072	  2075	  2076	  2077	  2078	  2079	  2080	  2081	  2084
	  2085	  2086	  2087	  2088	  2089	  2090	  2092	  2093	  2094	  2095	  2096	  2097	  2098	  2101
	  2102	  2103	  2104	  2105	  2106	  2107	  2110	  2111	  2112	  2113	  2114	  2115	  2116	  2122#
	  2124	  2125	  2126	  2127	  2129	  2130	  2131	  2132	  2133	  2134	  2135	  2138	  2139	  2140
	  2141	  2142	  2143	  2144	  2147	  2148	  2149	  2150	  2151	  2152	  2153	  2156	  2157	  2158
	  2159	  2160	  2161	  2162	  2164	  2165	  2166	  2167	  2168	  2169	  2170	  2173	  2174	  2175
	  2176	  2177	  2178	  2179	  2182	  2183	  2184	  2185	  2186	  2187	  2188	  2191	  2192	  2193
	  2194	  2195	  2196	  2197	  2204#	  2206	  2207	  2208	  2209	  2211	  2212	  2213	  2214	  2215
	  2216	  2217	  2225#	  2227	  2228	  2229	  2230	  2232	  2233	  2234	  2235	  2236	  2237	  2238
	  2245#	  2247	  2248	  2249	  2250	  2252	  2253	  2254	  2255	  2256	  2257	  2264#	  2266	  2267
	  2268	  2269	  2271	  2272	  2273	  2274	  2275	  2276	  2277	  2286#	  2288	  2289	  2290	  2291
	  2293	  2294	  2295	  2296	  2297	  2298	  2299	  2307#	  2309	  2310	  2311	  2312	  2314	  2315
	  2316	  2317	  2318	  2319	  2320	  2330#	  2333	  2334	  2335	  2336	  2338	  2339	  2340	  2341
	  2342	  2343	  2344	  2352#	  2354	  2355	  2356	  2357	  2359	  2360	  2361	  2362	  2363	  2364
	  2365	  2372#	  2374	  2375	  2376	  2377	  2379	  2380	  2381	  2382	  2383	  2384	  2385	  2391#
	  2393	  2394	  2395	  2396	  2398	  2399	  2400	  2401	  2402	  2403	  2404	  2411#	  2413	  2414
	  2415	  2416	  2418	  2419	  2420	  2421	  2422	  2423	  2424	  2431#	  2433	  2434	  2435	  2436
	  2438	  2439	  2440	  2441	  2442	  2443	  2444	  2457#	  2459	  2460	  2461	  2462	  2464	  2465
	  2466	  2467	  2468	  2469	  2470	  2471	  2472	  2473	  2474	  2475	  2476	  2477	  2487#	  2489
	  2490	  2491	  2492	  2494	  2495	  2496	  2497	  2498	  2499	  2500	  2501	  2511#	  2513	  2514
	  2515	  2516	  2519	  2520	  2521	  2522	  2523	  2524	  2525	  2526	  2527	  2528	  2529	  2532
	  2533	  2534	  2535	  2536	  2537	  2538	  2539	  2540	  2541	  2542	  2552#	  2554	  2555	  2556
	  2557	  2559	  2560	  2561	  2562	  2563	  2564	  2565	  2566	  2575#	  2577	  2578	  2579	  2580
	  2582	  2583	  2584	  2585	  2586	  2587	  2588	  2589	  2590	  2591	  2592	  2600#	  2602	  2603
	  2604	  2605	  2607	  2608	  2609	  2610	  2611	  2612	  2613	  2614	  2624#	  2626	  2627	  2628
	  2629	  2631	  2632	  2633	  2634	  2635	  2636	  2637	  2638	  2648#	  2650	  2651	  2652	  2653
	  2655	  2656	  2657	  2658	  2659	  2660	  2661	  2662	  2673#	  2675	  2676	  2677	  2678	  2680
	  2681	  2682	  2683	  2684	  2685	  2686	  2687	  2697#	  2699	  2700	  2701	  2702	  2704	  2705
	  2706	  2707	  2708	  2709	  2710	  2711	  2721#	  2723	  2724	  2725	  2726	  2728	  2729	  2730
	  2731	  2732	  2733	  2734	  2735	  2745#	  2747	  2748	  2749	  2750	  2752	  2753	  2754	  2755
	  2756	  2757	  2758	  2759	  2769#	  2771	  2772	  2773	  2774	  2777	  2778	  2779	  2780	  2781
	  2782	  2783	  2784	  2787	  2788	  2789	  2790	  2791	  2792	  2793	  2794	  2797	  2798	  2799
	  2800	  2801	  2802	  2803	  2804	  2807	  2808	  2809	  2810	  2811	  2812	  2813	  2814	  2824#
	  2826	  2827	  2828	  2829	  2832	  2833	  2834	  2835	  2836	  2837	  2838	  2839	  2842	  2843
	  2844	  2845	  2846	  2847	  2848	  2849	  2859#	  2861	  2862	  2863	  2864	  2866	  2867	  2868
	  2869	  2870	  2871	  2872	  2873	  2884#	  2886	  2887	  2888	  2889	  2891	  2892	  2893	  2894
	  2895	  2896	  2897	  2898	  2906#	  2908	  2909	  2910	  2911	  2913	  2914	  2915	  2916	  2917
	  2918	  2919	  2920	  2929#	  2931	  2932	  2933	  2934	  2936	  2937	  2938	  2939	  2940	  2941
	  2942	  2943	  2944	  2952#	  2954	  2955	  2956	  2957	  2959	  2960	  2961	  2962	  2963	  2964
	  2965	  2966	  2979#	  2981	  2982	  2983	  2984	  2986	  2987	  2988	  2989	  2990	  2991	  2992
	  2993	  3006#	  3008	  3009	  3010	  3011	  3013	  3014	  3015	  3016	  3017	  3018	  3019	  3020
	  3021	  3022	  3032#	  3034	  3035	  3036	  3037	  3039	  3040	  3041	  3042	  3043	  3044	  3045
	  3053#	  3055	  3056	  3057	  3058	  3060	  3061	  3062	  3063	  3064	  3065	  3066	  3067	  3077#
	  3079	  3080	  3081	  3082	  3084	  3085	  3086	  3087	  3088	  3089	  3090	  3097#	  3099	  3100
	  3101	  3102	  3104	  3105	  3106	  3107	  3108	  3109	  3118#	  3120	  3121	  3122	  3123	  3125
	  3126	  3127	  3128	  3129	  3130	  3131	  3139#	  3141	  3142	  3143	  3144	  3146	  3147	  3148
	  3149	  3150	  3151	  3152	  3153	  3164#	  3166	  3167	  3168	  3169	  3171	  3172	  3173	  3174
	  3175	  3176	  3177	  3178	  3180	  3181	  3182	  3183	  3184	  3185	  3186	  3193#	  3195	  3196
	  3197	  3198	  3200	  3201	  3202	  3203	  3204	  3205	  3206	  3214#	  3216	  3217	  3218	  3219
	  3221	  3222	  3223	  3224	  3225	  3226	  3227	  3234#	  3236	  3237	  3238	  3239	  3241	  3242
	  3243	  3244	  3245	  3246	  3247	  3258#	  3260	  3261	  3262	  3263	  3287	  3288	  3289	  3290
	  3291	  3292	  3299	  3300	  3301	  3302	  3303	  3304	  3311	  3312	  3313	  3314	  3315	  3316     SEQ 0198
	  3323	  3324	  3325	  3326	  3327	  3328	  3335	  3336	  3337	  3338	  3339	  3340	  3347	  3348
	  3349	  3350	  3351	  3352	  3359	  3360	  3361	  3362	  3363	  3364	  3371	  3372	  3373	  3374
	  3375	  3376	  3385#	  3387	  3388	  3389	  3390	  3411	  3412	  3413	  3414	  3415	  3416	  3422
	  3423	  3424	  3425	  3426	  3427	  3433	  3434	  3435	  3436	  3437	  3438	  3444	  3445	  3446
	  3447	  3448	  3449	  3455	  3456	  3457	  3458	  3459	  3460	  3466	  3467	  3468	  3469	  3470
	  3471	  3477	  3478	  3479	  3480	  3481	  3482	  3490#	  3492	  3493	  3494	  3495	  3522	  3523
	  3524	  3525	  3526	  3527	  3535	  3536	  3537	  3538	  3539	  3540	  3548	  3549	  3550	  3551
	  3552	  3553	  3561	  3562	  3563	  3564	  3565	  3566	  3574	  3575	  3576	  3577	  3578	  3579
	  3587	  3588	  3589	  3590	  3591	  3592	  3600	  3601	  3602	  3603	  3604	  3605	  3613	  3614
	  3615	  3616	  3617	  3618	  3627#	  3629	  3630	  3631	  3632	  3654	  3655	  3656	  3657	  3658
	  3659	  3665	  3666	  3667	  3668	  3669	  3670	  3676	  3677	  3678	  3679	  3680	  3681	  3687
	  3688	  3689	  3690	  3691	  3692	  3698	  3699	  3700	  3701	  3702	  3703	  3709	  3710	  3711
	  3712	  3713	  3714	  3720	  3721	  3722	  3723	  3724	  3725	  3731	  3732	  3733	  3734	  3735
	  3736	  3744#	  3746	  3747	  3748	  3749	  3769	  3770	  3771	  3772	  3773	  3779	  3780	  3781
	  3782	  3783	  3789	  3790	  3791	  3792	  3793	  3802#	  3804	  3805	  3806	  3807	  3829	  3830
	  3831	  3832	  3833	  3834	  3840	  3841	  3842	  3843	  3844	  3845	  3851	  3852	  3853	  3854
	  3855	  3856	  3864#	  3866	  3867	  3868	  3869	  3891	  3892	  3893	  3894	  3895	  3896	  3902
	  3903	  3904	  3905	  3906	  3907	  3913	  3914	  3915	  3916	  3917	  3918	  3928#	  3930	  3931
	  3932	  3933	  3952	  3953	  3954	  3955	  3956	  3957	  3962	  3963	  3964	  3965	  3966	  3967
	  3972	  3973	  3974	  3975	  3976	  3977	  3982	  3983	  3984	  3985	  3986	  3987	  3992	  3993
	  3994	  3995	  3996	  3997	  4002	  4003	  4004	  4005	  4006	  4007	  4012	  4013	  4014	  4015
	  4016	  4017	  4022	  4023	  4024	  4025	  4026	  4027	  4032	  4033	  4034	  4035	  4036	  4037
	  4060	  4061	  4062	  4063	  4064	  4065	  4066	  4067	  4073	  4074	  4075	  4076	  4077	  4078
	  4079	  4080	  4086	  4087	  4088	  4089	  4090	  4091	  4092	  4093	  4099	  4100	  4101	  4102
	  4103	  4104	  4105	  4106	  4112	  4113	  4114	  4115	  4116	  4117	  4118	  4119	  4125	  4126
	  4127	  4128	  4129	  4130	  4131	  4132	  4138	  4139	  4140	  4141	  4142	  4143	  4144	  4145
	  4151	  4152	  4153	  4154	  4155	  4156	  4157	  4158	  4164	  4165	  4166	  4167	  4168	  4169
	  4170	  4171	  4177	  4178	  4179	  4180	  4181	  4182	  4183	  4184	  4190	  4191	  4192	  4193
	  4194	  4195	  4196	  4197	  4203	  4204	  4205	  4206	  4207	  4208	  4209	  4210	  4216	  4217
	  4218	  4219	  4220	  4221	  4222	  4223	  4229	  4230	  4231	  4232	  4233	  4234	  4235	  4236
	  4242	  4243	  4244	  4245	  4246	  4247	  4248	  4249	  4255	  4256	  4257	  4258	  4259	  4260
	  4261	  4262	  4268	  4269	  4270	  4271	  4272	  4273	  4274	  4275	  4281	  4282	  4283	  4284
	  4285	  4286	  4287	  4288	  4296#	  4298	  4299	  4300	  4301	  4328	  4329	  4330	  4331	  4332
	  4333	  4334	  4335	  4336	  4343	  4344	  4345	  4346	  4347	  4348	  4349	  4350	  4351	  4358
	  4359	  4360	  4361	  4362	  4363	  4364	  4365	  4366	  4373	  4374	  4375	  4376	  4377	  4378
	  4379	  4380	  4381	  4388	  4389	  4390	  4391	  4392	  4393	  4394	  4395	  4396	  4403	  4404
	  4405	  4406	  4407	  4408	  4409	  4410	  4411	  4418	  4419	  4420	  4421	  4422	  4423	  4424
	  4425	  4426	  4433	  4434	  4435	  4436	  4437	  4438	  4439	  4440	  4441	  4448	  4449	  4450
	  4451	  4452	  4453	  4454	  4455	  4456	  4463	  4464	  4465	  4466	  4467	  4468	  4469	  4470
	  4471	  4480#	  4482	  4483	  4484	  4485	  4508	  4509	  4510	  4511	  4512	  4513	  4514	  4520
	  4521	  4522	  4523	  4524	  4525	  4526	  4532	  4533	  4534	  4535	  4536	  4537	  4538	  4544
	  4545	  4546	  4547	  4548	  4549	  4550	  4556	  4557	  4558	  4559	  4560	  4561	  4562	  4568
	  4569	  4570	  4571	  4572	  4573	  4574	  4582#	  4584	  4585	  4586	  4587	  4589	  4590	  4591
	  4592	  4593	  4594	  4595	  4597	  4598	  4599	  4600	  4601	  4602	  4603	  4605	  4606	  4607
	  4608	  4609	  4610	  4611	  4618#	  4620	  4621	  4622	  4623	  4642	  4643	  4644	  4645	  4646
	  4647	  4652	  4653	  4654	  4655	  4656	  4657	  4662	  4663	  4664	  4665	  4666	  4667	  4676#
	  4678	  4679	  4680	  4681	  4700	  4701	  4702	  4703	  4704	  4705	  4710	  4711	  4712	  4713
	  4714	  4715	  4720	  4721	  4722	  4723	  4724	  4725	  4734#	  4736	  4737	  4738	  4739	  4762
	  4763	  4764	  4765	  4766	  4767	  4768	  4774	  4775	  4776	  4777	  4778	  4779	  4780	  4786
	  4787	  4788	  4789	  4790	  4791	  4792	  4801#	  4803	  4804	  4805	  4806	  4829	  4830	  4831
	  4832	  4833	  4834	  4835	  4841	  4842	  4843	  4844	  4845	  4846	  4847	  4853	  4854	  4855
	  4856	  4857	  4858	  4859	  4867#	  4869	  4870	  4871	  4872	  4898	  4899	  4900	  4901	  4902
	  4903	  4904	  4911	  4912	  4913	  4914	  4915	  4916	  4917	  4924	  4925	  4926	  4927	  4928     SEQ 0199
	  4929	  4930	  4940#	  4942	  4943	  4944	  4945	  4971	  4972	  4973	  4974	  4975	  4976	  4977
	  4984	  4985	  4986	  4987	  4988	  4989	  4990	  4997	  4998	  4999	  5000	  5001	  5002	  5003
	  5012#	  5014	  5015	  5016	  5017	  5040	  5041	  5042	  5043	  5044	  5045	  5046	  5052	  5053
	  5054	  5055	  5056	  5057	  5058	  5064	  5065	  5066	  5067	  5068	  5069	  5070	  5080#	  5082
	  5083	  5084	  5085	  5111	  5112	  5113	  5114	  5115	  5116	  5117	  5124	  5125	  5126	  5127
	  5128	  5129	  5130	  5137	  5138	  5139	  5140	  5141	  5142	  5143	  5153#	  5155	  5156	  5157
	  5158	  5185	  5186	  5187	  5188	  5189	  5190	  5191	  5192	  5193	  5200	  5201	  5202	  5203
	  5204	  5205	  5206	  5207	  5208	  5215	  5216	  5217	  5218	  5219	  5220	  5221	  5222	  5223
	  5230	  5231	  5232	  5233	  5234	  5235	  5236	  5237	  5238	  5245	  5246	  5247	  5248	  5249
	  5250	  5251	  5252	  5253	  5260	  5261	  5262	  5263	  5264	  5265	  5266	  5267	  5268	  5275
	  5276	  5277	  5278	  5279	  5280	  5281	  5282	  5283	  5290	  5291	  5292	  5293	  5294	  5295
	  5296	  5297	  5298	  5305	  5306	  5307	  5308	  5309	  5310	  5311	  5312	  5313	  5320	  5321
	  5322	  5323	  5324	  5325	  5326	  5327	  5328	  5335	  5336	  5337	  5338	  5339	  5340	  5341
	  5342	  5343	  5350	  5351	  5352	  5353	  5354	  5355	  5356	  5357	  5358	  5365	  5366	  5367
	  5368	  5369	  5370	  5371	  5372	  5373	  5380	  5381	  5382	  5383	  5384	  5385	  5386	  5387
	  5388	  5395	  5396	  5397	  5398	  5399	  5400	  5401	  5402	  5403	  5410	  5411	  5412	  5413
	  5414	  5415	  5416	  5417	  5418	  5425	  5426	  5427	  5428	  5429	  5430	  5431	  5432	  5433
	  5440	  5441	  5442	  5443	  5444	  5445	  5446	  5447	  5448	  5475	  5476	  5477	  5478	  5479
	  5480	  5481	  5482	  5483	  5490	  5491	  5492	  5493	  5494	  5495	  5496	  5497	  5498	  5505
	  5506	  5507	  5508	  5509	  5510	  5511	  5512	  5513	  5520	  5521	  5522	  5523	  5524	  5525
	  5526	  5527	  5528	  5535	  5536	  5537	  5538	  5539	  5540	  5541	  5542	  5543	  5550	  5551
	  5552	  5553	  5554	  5555	  5556	  5557	  5558	  5565	  5566	  5567	  5568	  5569	  5570	  5571
	  5572	  5573	  5581#	  5583	  5584	  5585	  5586	  5590	  5591	  5592	  5593	  5594	  5595	  5596
	  5598	  5599	  5603	  5604	  5605	  5606	  5608	  5609	  5613	  5614	  5615	  5616	  5617	  5618
	  5619	  5620	  5627#	  5629	  5630	  5631	  5632	  5634	  5635	  5636	  5637	  5638	  5639	  5640
	  5641	  5642	  5643	  5644	  5654#	  5656	  5657	  5658	  5659	  5690	  5691	  5692	  5693	  5694
	  5695	  5696	  5697	  5698	  5699	  5707	  5708	  5709	  5710	  5711	  5712	  5713	  5714	  5715
	  5716	  5724	  5725	  5726	  5727	  5728	  5729	  5730	  5731	  5732	  5733	  5741	  5742	  5743
	  5744	  5745	  5746	  5747	  5748	  5749	  5750	  5758	  5759	  5760	  5761	  5762	  5763	  5764
	  5765	  5766	  5767	  5775	  5776	  5777	  5778	  5779	  5780	  5781	  5782	  5783	  5784	  5792
	  5793	  5794	  5795	  5796	  5797	  5798	  5799	  5800	  5801	  5809	  5810	  5811	  5812	  5813
	  5814	  5815	  5816	  5817	  5818	  5826	  5827	  5828	  5829	  5830	  5831	  5832	  5833	  5834
	  5835	  5843	  5844	  5845	  5846	  5847	  5848	  5849	  5850	  5851	  5852	  5860	  5861	  5862
	  5863	  5864	  5865	  5866	  5867	  5868	  5869	  5877	  5878	  5879	  5880	  5881	  5882	  5883
	  5884	  5885	  5886	  5894	  5895	  5896	  5897	  5898	  5899	  5900	  5901	  5902	  5903	  5911
	  5912	  5913	  5914	  5915	  5916	  5917	  5918	  5919	  5920	  5928	  5929	  5930	  5931	  5932
	  5933	  5934	  5935	  5936	  5937	  5945	  5946	  5947	  5948	  5949	  5950	  5951	  5952	  5953
	  5954	  5962	  5963	  5964	  5965	  5966	  5967	  5968	  5969	  5970	  5971	  5979	  5980	  5981
	  5982	  5983	  5984	  5985	  5986	  5987	  5988	  6017	  6018	  6019	  6020	  6021	  6022	  6023
	  6024	  6025	  6033	  6034	  6035	  6036	  6037	  6038	  6039	  6040	  6041	  6049	  6050	  6051
	  6052	  6053	  6054	  6055	  6056	  6057	  6065	  6066	  6067	  6068	  6069	  6070	  6071	  6072
	  6073	  6081	  6082	  6083	  6084	  6085	  6086	  6087	  6088	  6089	  6097	  6098	  6099	  6100
	  6101	  6102	  6103	  6104	  6105	  6113	  6114	  6115	  6116	  6117	  6118	  6119	  6120	  6121
	  6129	  6130	  6131	  6132	  6133	  6134	  6135	  6136	  6137	  6145	  6146	  6147	  6148	  6149
	  6150	  6151	  6152	  6153	  6163#	  6165	  6166	  6167	  6168	  6170	  6171	  6172	  6173	  6174
	  6175	  6176	  6177	  6178	  6179	  6180	  6181	  6182	  6189#	  6191	  6192	  6193	  6194	  6196
	  6197	  6198	  6199	  6200	  6201	  6202	  6203	  6204	  6211#	  6213	  6214	  6215	  6216	  6218
	  6219	  6220	  6221	  6222	  6223	  6224	  6225	  6226	  6233#	  6235	  6236	  6237	  6238	  6266
	  6267	  6268	  6269	  6270	  6271	  6272	  6273	  6274	  6275	  6276	  6277	  6283	  6284	  6285
	  6286	  6287	  6288	  6289	  6290	  6291	  6292	  6293	  6294	  6300	  6301	  6302	  6303	  6304
	  6305	  6306	  6307	  6308	  6309	  6310	  6311	  6317	  6318	  6319	  6320	  6321	  6322	  6323
	  6324	  6325	  6326	  6327	  6328	  6334	  6335	  6336	  6337	  6338	  6339	  6340	  6341	  6342
	  6343	  6344	  6345	  6351	  6352	  6353	  6354	  6355	  6356	  6357	  6358	  6359	  6360	  6361     SEQ 0200
	  6362	  6368	  6369	  6370	  6371	  6372	  6373	  6374	  6375	  6376	  6377	  6378	  6379	  6385
	  6386	  6387	  6388	  6389	  6390	  6391	  6392	  6393	  6394	  6395	  6396	  6402	  6403	  6404
	  6405	  6406	  6407	  6408	  6409	  6410	  6411	  6412	  6413	  6419	  6420	  6421	  6422	  6423
	  6424	  6425	  6426	  6427	  6428	  6429	  6430	  6436	  6437	  6438	  6439	  6440	  6441	  6442
	  6443	  6444	  6445	  6446	  6447	  6453	  6454	  6455	  6456	  6457	  6458	  6459	  6460	  6461
	  6462	  6463	  6464	  6470	  6471	  6472	  6473	  6474	  6475	  6476	  6477	  6478	  6479	  6480
	  6481	  6487	  6488	  6489	  6490	  6491	  6492	  6493	  6494	  6495	  6496	  6497	  6498	  6504
	  6505	  6506	  6507	  6508	  6509	  6510	  6511	  6512	  6513	  6514	  6515	  6521	  6522	  6523
	  6524	  6525	  6526	  6527	  6528	  6529	  6530	  6531	  6532	  6538	  6539	  6540	  6541	  6542
	  6543	  6544	  6545	  6546	  6547	  6548	  6549	  6556#	  6558	  6559	  6560	  6561	  6563	  6564
	  6565	  6566	  6567	  6568	  6569	  6570	  6577#	  6579	  6580	  6581	  6582	  6584	  6585	  6586
	  6587	  6588	  6589	  6590	  6591	  6592	  6600#	  6602	  6603	  6604	  6605	  6607	  6608	  6609
	  6610	  6611	  6612	  6613	  6614	  6615	  6622#	  6624	  6625	  6626	  6627	  6629	  6630	  6631
	  6632	  6633	  6634	  6635	  6636	  6637	  6646#	  6648	  6649	  6650	  6651	  6653	  6654	  6655
	  6656	  6657	  6658	  6659	  6660	  6661	  6662	  6663	  6669#	  6671	  6672	  6673	  6674	  6676
	  6677	  6678	  6679	  6680	  6681	  6682	  6683	  6684	  6685	  6686	  6687	  6690#	  6692	  6693
	  6694	  6695	  6699	  6700	  6701	  6702	  6703	  6704	  6707	  6708	  6709	  6710	  6714	  6715
	  6716	  6717	  6718	  6719	  6721	  6722	  6723	  6724	  6725	  6726	  6730	  6731	  6732	  6733
	  6734	  6735	  6737	  6738	  6739	  6740	  6741	  6742	  6745	  6746	  6747	  6748	  6749	  6750
	  6752	  6755	  6756	  6757	  6758	  6759	  6761	  6762	  6767	  6768	  6769	  6770	  6771	  6772
	  6774	  6777	  6778	  6779	  6780	  6781	  6783	  6784	  6789	  6790	  6791	  6792	  6793	  6794
	  6797	  6798	  6799	  6800	  6803	  6804	  6805	  6806	  6807	  6808	  6811	  6812	  6813	  6814
	  6818	  6819	  6820	  6821	  6822	  6823	  6825	  6826	  6827	  6828	  6829	  6830	  6833	  6834
	  6835	  6836	  6837	  6838	  6841	  6842	  6843	  6844	  6848	  6849	  6850	  6851	  6852	  6853
	  6855	  6856	  6857	  6858	  6859	  6860	  6864	  6865	  6866	  6867	  6868	  6869	  6871	  6872
	  6873	  6874	  6875	  6876	  6879	  6880	  6881	  6882	  6883	  6884	  6886	  6887	  6888	  6889
	  6890	  6891	  6895	  6896	  6897	  6898	  6899	  6900	  6902	  6903	  6904	  6907	  6908	  6909
	  6911	  6912	  6917	  6918	  6919	  6920	  6921	  6922	  6924	  6925	  6926	  6929	  6930	  6931
	  6933	  6934	  6938	  6939	  6940	  6941	  6942	  6943	  6946	  6947	  6948	  6949	  6953	  6954
	  6955	  6956	  6957	  6958	  6961	  6962	  6963	  6964	  6967	  6968	  6969	  6970	  6971	  6972
	  6975	  6976	  6977	  6978	  6982	  6983	  6984	  6985	  6986	  6987	  6989	  6990	  6991	  6992
	  6993	  6994	  6998	  6999	  7000	  7001	  7002	  7003	  7005	  7006	  7007	  7008	  7009	  7010
	  7013	  7014	  7015	  7016	  7017	  7018	  7020	  7023	  7024	  7025	  7026	  7027	  7029	  7030
	  7035	  7036	  7037	  7038	  7039	  7040	  7042	  7045	  7046	  7047	  7048	  7049	  7051	  7052
	  7057	  7058	  7059	  7060	  7061	  7062	  7065	  7066	  7067	  7068	  7071	  7072	  7073	  7074
	  7075	  7076	  7079	  7080	  7081	  7082	  7086	  7087	  7088	  7089	  7090	  7091	  7093	  7094
	  7095	  7096	  7097	  7098	  7101	  7102	  7103	  7104	  7105	  7106	  7109	  7110	  7111	  7112
	  7116	  7117	  7118	  7119	  7120	  7121	  7123	  7124	  7125	  7126	  7127	  7128	  7132	  7133
	  7134	  7135	  7136	  7137	  7139	  7140	  7141	  7142	  7143	  7144	  7147	  7148	  7149	  7150
	  7151	  7152	  7154	  7155	  7156	  7157	  7158	  7159	  7163	  7164	  7165	  7166	  7167	  7168
	  7170	  7171	  7172	  7175	  7176	  7177	  7179	  7180	  7185	  7186	  7187	  7188	  7189	  7190
	  7192	  7193	  7194	  7197	  7198	  7199	  7201	  7202	  7206	  7207	  7208	  7209	  7210	  7211
	  7214	  7215	  7216	  7217	  7221	  7222	  7223	  7224	  7225	  7226	  7229	  7230	  7231	  7232
AFOCLR	   333#
AFODIS	   333#
AFOENB	   333#
AFOV	   333#
ALTMGO	   419#	  7369
AMPCLR	   333#
AMPV	   333#
ANXCLR	   333#
ANXM	   333#
AOVCLR	   333#                                                                                                            SEQ 0201
AOVDIS	   333#
AOVENB	   333#
AOVFLO	   333#
APAREN	   333#
APARER	   333#
APDCLR	   333#
APDLOV	   333#
APWRFL	   333#
AROV	   333#
AROVU	   333#
AST	   534#
ATRPOS	   333#
ATSIN	   535#
AUSRIO	   333#
BEGEND	   415#	  7234
BEGIN	    74	    77	    78	    79	    80	    81	    82	    83	    84	   318	   319	   346#	  7517
BEGIN1	   362#	   416
BELL	   538#
BIS	   333#
CA00	   692	   702#
CCA	   333#
CHAIN	   124#
CHNOFF	   333#
CHNON	   333#
CLK	   333#
CLKCLR	   333#
CLKDIS	   333#
CLKENB	   333#
CLKU	   333#
CLOCKF	   401#
CNTLC	   418#
COMMA	   527#
CONSW	   402#	  7303	  7370	  7401
CPOPJ	   422#
CPOPJ1	   420#
CRLF	   253	   254	   522#
CRLF2	   257	   258	   524#
CRY0	   333#
CRY1	   333#
CSHFLG	   581#
CSHMEM	   582#
CYCL60	   575#
DCK	   333#
DDTLNK	   138#	   360
DDTSRT	   360#
DEBUG	    57#	  7508	  7509
DECVER	     3#	    10	    24	   381
DF22F	   486#
DIAGMN	   349#
DING	   110#	  7375
DOLLAR	   541#
DSKUPD	   386
END	  7516#                                                                                                            SEQ 0202
ENDFIX	   655#
ENDSLD	  7506#
ERDIAG	    62#	  7288
ERMORE	   435#	  7361
ERRELB	  7358
ERRLOP	   709#	   709	   728#	   728	   746#	   746	   765#	   765	   783#	   783	   802#	   802	   908#	   908
	  1024#	  1024	  1042#	  1042	  1149#	  1149	  1223#	  1223	  1242#	  1242	  1262#	  1262	  1365#	  1365
	  1382#	  1382	  1401#	  1401	  1420#	  1420	  1439#	  1439	  1459#	  1459	  1501#	  1501	  1524#	  1524
	  1547#	  1547	  1566#	  1566	  1587#	  1587	  1606#	  1606	  1626#	  1626	  1646#	  1646	  1670#	  1670
	  1695#	  1695	  1716#	  1716	  1738#	  1738	  1759#	  1759	  1781#	  1781	  1803#	  1803	  1823#	  1823
	  1928#	  1928	  1949#	  1949	  1970#	  1970	  1993#	  1993	  2011#	  2011	  2031#	  2031	  2054#	  2054
	  2127#	  2127	  2209#	  2209	  2230#	  2230	  2250#	  2250	  2269#	  2269	  2291#	  2291	  2312#	  2312
	  2336#	  2336	  2357#	  2357	  2377#	  2377	  2396#	  2396	  2416#	  2416	  2436#	  2436	  2462#	  2462
	  2492#	  2492	  2516#	  2516	  2557#	  2557	  2580#	  2580	  2605#	  2605	  2629#	  2629	  2653#	  2653
	  2678#	  2678	  2702#	  2702	  2726#	  2726	  2750#	  2750	  2774#	  2774	  2829#	  2829	  2864#	  2864
	  2889#	  2889	  2911#	  2911	  2934#	  2934	  2957#	  2957	  2984#	  2984	  3011#	  3011	  3037#	  3037
	  3058#	  3058	  3082#	  3082	  3102#	  3102	  3123#	  3123	  3144#	  3144	  3169#	  3169	  3198#	  3198
	  3219#	  3219	  3239#	  3239	  3263#	  3263	  3390#	  3390	  3495#	  3495	  3632#	  3632	  3749#	  3749
	  3807#	  3807	  3869#	  3869	  3933#	  3933	  4301#	  4301	  4485#	  4485	  4587#	  4587	  4623#	  4623
	  4681#	  4681	  4739#	  4739	  4806#	  4806	  4872#	  4872	  4945#	  4945	  5017#	  5017	  5085#	  5085
	  5158#	  5158	  5586#	  5586	  5632#	  5632	  5659#	  5659	  6168#	  6168	  6194#	  6194	  6216#	  6216
	  6238#	  6238	  6561#	  6561	  6582#	  6582	  6605#	  6605	  6627#	  6627	  6651#	  6651	  6674#	  6674
	  6695#	  6695	  7268	  7380	  7383	  7384
ERRMES	    43	    44	    45	    46	    47	    48	    49	    50	    51	    52	    53	  7239#
ERRPC	   406#	  7251	  7285
ERRTLS	   407#	  7249	  7387
ERSTOP	   113#	  7371
EXCASB	    58#	   384	  7240	  7392
EXIOT	   333#
FOV	   333#	  6708	  6724	  6740	  6757	  6779	  6798	  6812	  6826	  6842	  6856	  6872	  6887	  6903
	  6925	  6947	  6962	  6976	  6992	  7008	  7025	  7047	  7066	  7080	  7094	  7110	  7124	  7140
	  7155	  7171	  7193	  7215	  7230
FOVU	   333#
FRDLNK	   136#
FSELNK	   135#
FXU	   333#	  6708	  6722	  6738	  6755	  6761	  6777	  6783	  6798	  6812	  6828	  6842	  6858	  6874
	  6889	  6907	  6911	  6929	  6933	  6947	  6962	  6976	  6990	  7006	  7023	  7029	  7045	  7051
	  7066	  7080	  7096	  7110	  7126	  7142	  7157	  7175	  7179	  7197	  7201	  7215	  7230
HYPEN	   532#
INHCSH	   121#
INHPAG	   118#
INXM	   333#
IOCLR	   333#
ITERAT	    93#	   379
ITRCH1	   439#
ITRCNT	   379#
JOB41	   333#
JOBAPR	   333#
JOBCNI	   333#
JOBDDT	   333#
JOBFF	   333#
JOBOPC	   333#	  7368
JOBREL	   333#                                                                                                            SEQ 0203
JOBREN	   333#
JOBSA	   333#
JOBSYM	   333#
JOBTPC	   333#
JOBUSY	   333#
JOBUUO	   333#
JOBVER	   333#
KA10	    60#	   333
KAHZ50	   126#
KAIFLG	   396#
KI10	   333	  7240	  7392
KL10	   333
KLFLG	   397#	  6753	  6775	  6905	  6927	  7021	  7043	  7173	  7195	  7255
KLOLD	    63#	   333
KLTYP	   613#
LDLNK	   137#	   349	   351
LFP	   536#
LOOPER	   112#	  7373
LUUO	   333#
LUUO1	    43#	   466	   467
LUUO10	    50#	   466	   471
LUUO11	    51#	   466	   471
LUUO12	    52#	   466	   472
LUUO13	    53#	   466	   472
LUUO14	   466	   473
LUUO15	   466	   473
LUUO16	   466	   474
LUUO17	   466	   474
LUUO2	    44#	   466	   468
LUUO20	   466	   475
LUUO21	   466	   475
LUUO22	   466	   476
LUUO23	   466	   476
LUUO24	   466	   477
LUUO25	   466	   477
LUUO26	   466	   478
LUUO27	   466	   478
LUUO3	    45#	   466	   468
LUUO30	   466	   479
LUUO31	   466	   479
LUUO32	   466	   480
LUUO33	   466	   480
LUUO4	    46#	   466	   469
LUUO5	    47#	   466	   469
LUUO6	    48#	   466	   470
LUUO7	    49#	   466	   470
LUUOI	   333#
MAPNEW	   487#
MARGIN	   409#
MCNVER	     4#	    10	    24	   381
MEMLOW	   489#
MEMMAP	   387
MEMSIZ	   490#                                                                                                            SEQ 0204
MEMTOT	   488#
MICNT	  7252#	  7252	  7253	  7270
MINUS	   531#
MODDVC	   120#
MODDVL	   318	   318#	   382
MODDVU	   319	   319#	   383
MODLNK	   139#	   346
MONCTL	   399#	  7271	  7385
MONFLG	   398#
MONTEN	   400#
MPVU	   333#
NOPNT	   108#	  7261
NXMU	   333#
O12300	   711#	   716
O12400	   730#	   735
O12500	   748#	   753
O12600	   767#	   772
O12700	   785#	   790
O13000	   808#
O13100	   916#
O13200	  1026#	  1031
O13300	  1049#
O13400	  1152#	  1157
O13500	  1160#	  1165
O13600	  1168#	  1173
O13700	  1176#	  1181
O14000	  1183#	  1188
O14100	  1191#	  1196
O14200	  1199#	  1204
O14300	  1207#	  1212
O14400	  1225#	  1230
O14500	  1244#	  1249
O14600	  1267#
O14700	  1367#	  1372
O15000	  1384#	  1389
O15100	  1403#	  1408
O15200	  1422#	  1427
O15300	  1441#	  1446
O15400	  1462#	  1468
O15500	  1471#	  1477
O15600	  1480#	  1487
O15700	  1503#	  1507
O16000	  1526#	  1532
O16100	  1549#	  1554
O16200	  1568#	  1574
O16300	  1589#	  1595
O16400	  1608#	  1614
O16500	  1628#	  1634
O16600	  1648#	  1654
O16700	  1672#	  1681
O17000	  1697#	  1703
O17100	  1718#	  1724
O17200	  1740#	  1746                                                                                                     SEQ 0205
O17300	  1761#	  1767
O17400	  1783#	  1789
O17500	  1805#	  1810
O17600	  1829#
O17700	  1930#	  1936
O20000	  1951#	  1956
O20100	  1972#	  1978
O20200	  1995#	  2000
O20300	  2013#	  2019
O20400	  2033#	  2039
O20500	  2057#	  2063
O20600	  2066#	  2072
O20700	  2075#	  2081
O21000	  2084#	  2090
O21100	  2092#	  2098
O21200	  2101#	  2107
O21300	  2110#	  2116
O21400	  2129#	  2135
O21500	  2138#	  2144
O21600	  2147#	  2153
O21700	  2156#	  2162
O22000	  2164#	  2170
O22100	  2173#	  2179
O22200	  2182#	  2188
O22300	  2191#	  2197
O22400	  2211#	  2217
O22500	  2232#	  2238
O22600	  2252#	  2257
O22700	  2271#	  2277
O23000	  2293#	  2299
O23100	  2314#	  2320
O23200	  2338#	  2344
O23300	  2359#	  2365
O23400	  2379#	  2385
O23500	  2398#	  2404
O23600	  2418#	  2424
O23700	  2438#	  2444
O24000	  2464#	  2477
O24100	  2494#	  2501
O24200	  2519#	  2529
O24300	  2532#	  2542
O24400	  2559#	  2566
O24500	  2582#	  2592
O24600	  2607#	  2614
O24700	  2631#	  2638
O25000	  2655#	  2662
O25100	  2680#	  2687
O25200	  2704#	  2711
O25300	  2728#	  2735
O25400	  2752#	  2759
O25500	  2777#	  2784
O25600	  2787#	  2794
O25700	  2797#	  2804                                                                                                     SEQ 0206
O26000	  2807#	  2814
O26100	  2832#	  2839
O26200	  2842#	  2849
O26300	  2866#	  2873
O26400	  2891#	  2898
O26500	  2913#	  2920
O26600	  2936#	  2944
O26700	  2959#	  2966
O27000	  2986#	  2993
O27100	  3013#	  3022
O27200	  3039#	  3045
O27300	  3060#	  3067
O27400	  3084#	  3090
O27500	  3104#	  3109
O27600	  3125#	  3131
O27700	  3146#	  3153
O30000	  3171#	  3178
O30100	  3180#	  3186
O30200	  3200#	  3206
O30300	  3221#	  3227
O30400	  3241#	  3247
O30500	  3270#
O30600	  3396#
O30700	  3503#
O31000	  3639#
O31100	  3755#
O31200	  3814#
O31300	  3876#
O31400	  3939#
O31500	  4043#
O31600	  4308#
O31700	  4492#
O32000	  4589#	  4595
O32100	  4597#	  4603
O32200	  4605#	  4611
O32300	  4629#
O32400	  4687#
O32500	  4746#
O32600	  4813#
O32700	  4880#
O33000	  4953#
O33100	  5024#
O33200	  5093#
O33300	  5165#
O33400	  5455#
O33500	  5589#	  5599
O33600	  5602#	  5609
O33700	  5612#	  5620
O34000	  5634#	  5644
O34100	  5667#
O34200	  5995#
O34300	  6170#	  6182
O34400	  6196#	  6204                                                                                                     SEQ 0207
O34500	  6218#	  6226
O34600	  6245#
O34700	  6563#	  6570
O35000	  6584#	  6592
O35100	  6607#	  6615
O35200	  6629#	  6637
O35300	  6653#	  6663
O35400	  6676#	  6687
O35500	  6697#	  6710
O35510	  6712#	  6726
O35520	  6728#	  6742
O35530	  6743#	  6759
O35535	  6754	  6761#
O35537	  6757#	  6763
O35540	  6760	  6765#	  6781
O35545	  6776	  6783#
O35547	  6779#	  6785
O35550	  6782	  6787#	  6800
O35560	  6801#	  6814
O35570	  6816#	  6830	  7098
O35600	  6831#	  6844
O35610	  6846#	  6860
O35620	  6862#	  6876
O35630	  6877#	  6891
O35640	  6893#	  6909
O35645	  6906	  6911#
O35647	  6909#	  6913
O35650	  6910	  6915#	  6931
O35655	  6928	  6933#
O35657	  6931#	  6935
O35660	  6932	  6936#	  6949
O35670	  6951#	  6964
O35700	  6965#	  6978
O35710	  6980#	  6994
O35720	  6996#	  7010
O35730	  7011#	  7027
O35735	  7022	  7029#
O35737	  7025#	  7031
O35740	  7028	  7033#	  7049
O35745	  7044	  7051#
O35747	  7047#	  7053
O35750	  7050	  7055#	  7068
O35760	  7069#	  7082
O35770	  7084#
O36000	  7099#	  7112
O36010	  7114#	  7128
O36020	  7130#	  7144
O36030	  7145#	  7159
O36040	  7161#	  7177
O36045	  7174	  7179#
O36047	  7177#	  7181
O36050	  7178	  7183#	  7199
O36055	  7196	  7201#                                                                                                    SEQ 0208
O36057	  7199#	  7203
O36060	  7200	  7204#	  7217
O36070	  7219#	  7232
OPRSEL	   122#
OPTIME	   501#
P	   165	   166	   167	   168	   333#	   421
PAG	   333#
PALERS	   114#	  7402
PARCLR	   333#
PARDIS	   333#
PAREA1	    86#	   377
PAREA2	    87#	   378
PAREA3	    88#	   375
PAREA4	    89#	   376
PAREA5	    90#	   388
PAREA6	    91#	   389
PAREA7	   388#
PAREA8	   389#
PARENB	   333#
PARU	   333#
PASCNT	   403#	  7276	  7280
PATCH	  7509#
PDISF	   498#
PDLOVU	   333#
PERIOD	   528#
PFSTRT	   355#
PGMEND	    61#	  7515
PGMNAM	   380	   667#
PI	  7258
PICHN1	   333#
PICHN2	   333#
PICHN3	   333#
PICHN4	   333#
PICHN5	   333#
PICHN6	   333#
PICHN7	   333#
PICHNA	   333#
PICLR	   333#
PIOFF	   333#
PION	   333#
PLIST	   567#	   567
PLISTE	   567	   569#	   653
PLISTS	   568#
PLUS	   533#
PNTENB	   497#
PNTEXT	   376#
PNTFLG	   496#
PNTINH	   499#
PNTLPT	   109#
PNTNAM	   375#
PNTSPC	   500#
PROCED	  7259#	  7259	  7374	  7381
PVPAGI	   594#                                                                                                            SEQ 0209
PWFCLR	   333#
QUEST	   539#
RADIX	   542#
RADLSC	   544#
RADLSP	   543#
RANDBS	   377#
REENTR	   357#
RELIAB	   116#
RENTR1	    76	   664#
REPT	   333#
REPT1	   333#
REPTU	   455#
REQSET	   333#
RESRT1	    75	   432#
RESRT2	   433#
RETURN	   364#
RSTART	   105#
RTP	   537#
RUNFLG	   404#
SADR1	    74#	   353
SADR10	    83#	   369
SADR11	    84#	   370
SADR2	    75#	   355
SADR3	    76#	   357
SADR4	    77#
SADR5	    78#	   418
SADR6	    79#	   419
SADR7	    80#	   366
SADR8	    81#	   367
SADR9	    82#	   368
SBINIT	   178	   363#
SCOPE	   456#
SFSTRT	   353#
SLASH	   540#
SN	   804#	   820	   820#	   827	   831	   831#	   838	   842	   842#	   849	   853	   853#	   860	   864
	   864#	   871	   875	   875#	   882	   886	   886#	   893	   910#	   929	   929#	   937	   941	   941#
	   949	   953	   953#	   961	   965	   965#	   973	   977	   977#	   985	   989	   989#	   997	  1001
	  1001#	  1009	  1044#	  1061	  1061#	  1068	  1072	  1072#	  1079	  1083	  1083#	  1090	  1094	  1094#
	  1101	  1105	  1105#	  1112	  1116	  1116#	  1123	  1127	  1127#	  1134	  1263#	  1278	  1278#	  1284
	  1288	  1288#	  1294	  1298	  1298#	  1304	  1308	  1308#	  1314	  1318	  1318#	  1324	  1328	  1328#
	  1334	  1338	  1338#	  1344	  1348	  1348#	  1354	  1825#	  1841	  1841#	  1848	  1852	  1852#	  1859
	  1863	  1863#	  1870	  1874	  1874#	  1881	  1885	  1885#	  1892	  1896	  1896#	  1903	  1907	  1907#
	  1914	  3265#	  3283	  3283#	  3291	  3295	  3295#	  3303	  3307	  3307#	  3315	  3319	  3319#	  3327
	  3331	  3331#	  3339	  3343	  3343#	  3351	  3355	  3355#	  3363	  3367	  3367#	  3375	  3392#	  3408
	  3408#	  3415	  3419	  3419#	  3426	  3430	  3430#	  3437	  3441	  3441#	  3448	  3452	  3452#	  3459
	  3463	  3463#	  3470	  3474	  3474#	  3481	  3497#	  3517	  3517#	  3526	  3530	  3530#	  3539	  3543
	  3543#	  3552	  3556	  3556#	  3565	  3569	  3569#	  3578	  3582	  3582#	  3591	  3595	  3595#	  3604
	  3608	  3608#	  3617	  3634#	  3651	  3651#	  3658	  3662	  3662#	  3669	  3673	  3673#	  3680	  3684
	  3684#	  3691	  3695	  3695#	  3702	  3706	  3706#	  3713	  3717	  3717#	  3724	  3728	  3728#	  3735
	  3751#	  3766	  3766#	  3772	  3776	  3776#	  3782	  3786	  3786#	  3792	  3809#	  3826	  3826#	  3833
	  3837	  3837#	  3844	  3848	  3848#	  3855	  3871#	  3888	  3888#	  3895	  3899	  3899#	  3906	  3910
	  3910#	  3917	  3935#	  3950	  3950#	  3956	  3960	  3960#	  3966	  3970	  3970#	  3976	  3980	  3980#
	  3986	  3990	  3990#	  3996	  4000	  4000#	  4006	  4010	  4010#	  4016	  4020	  4020#	  4026	  4030     SEQ 0210
	  4030#	  4036	  4040#	  4057	  4057#	  4066	  4070	  4070#	  4079	  4083	  4083#	  4092	  4096	  4096#
	  4105	  4109	  4109#	  4118	  4122	  4122#	  4131	  4135	  4135#	  4144	  4148	  4148#	  4157	  4161
	  4161#	  4170	  4174	  4174#	  4183	  4187	  4187#	  4196	  4200	  4200#	  4209	  4213	  4213#	  4222
	  4226	  4226#	  4235	  4239	  4239#	  4248	  4252	  4252#	  4261	  4265	  4265#	  4274	  4278	  4278#
	  4287	  4303#	  4324	  4324#	  4335	  4339	  4339#	  4350	  4354	  4354#	  4365	  4369	  4369#	  4380
	  4384	  4384#	  4395	  4399	  4399#	  4410	  4414	  4414#	  4425	  4429	  4429#	  4440	  4444	  4444#
	  4455	  4459	  4459#	  4470	  4487#	  4505	  4505#	  4513	  4517	  4517#	  4525	  4529	  4529#	  4537
	  4541	  4541#	  4549	  4553	  4553#	  4561	  4565	  4565#	  4573	  4625#	  4640	  4640#	  4646	  4650
	  4650#	  4656	  4660	  4660#	  4666	  4683#	  4698	  4698#	  4704	  4708	  4708#	  4714	  4718	  4718#
	  4724	  4741#	  4759	  4759#	  4767	  4771	  4771#	  4779	  4783	  4783#	  4791	  4808#	  4826	  4826#
	  4834	  4838	  4838#	  4846	  4850	  4850#	  4858	  4874#	  4894	  4894#	  4903	  4907	  4907#	  4916
	  4920	  4920#	  4929	  4947#	  4967	  4967#	  4976	  4980	  4980#	  4989	  4993	  4993#	  5002	  5019#
	  5037	  5037#	  5045	  5049	  5049#	  5057	  5061	  5061#	  5069	  5087#	  5107	  5107#	  5116	  5120
	  5120#	  5129	  5133	  5133#	  5142	  5160#	  5181	  5181#	  5190	  5192	  5196	  5196#	  5205	  5207
	  5211	  5211#	  5220	  5222	  5226	  5226#	  5235	  5237	  5241	  5241#	  5250	  5252	  5256	  5256#
	  5265	  5267	  5271	  5271#	  5280	  5282	  5286	  5286#	  5295	  5297	  5301	  5301#	  5310	  5312
	  5316	  5316#	  5325	  5327	  5331	  5331#	  5340	  5342	  5346	  5346#	  5355	  5357	  5361	  5361#
	  5370	  5372	  5376	  5376#	  5385	  5387	  5391	  5391#	  5400	  5402	  5406	  5406#	  5415	  5417
	  5421	  5421#	  5430	  5432	  5436	  5436#	  5445	  5447	  5451#	  5471	  5471#	  5480	  5482	  5486
	  5486#	  5495	  5497	  5501	  5501#	  5510	  5512	  5516	  5516#	  5525	  5527	  5531	  5531#	  5540
	  5542	  5546	  5546#	  5555	  5557	  5561	  5561#	  5570	  5572	  5661#	  5685	  5685#	  5696	  5698
	  5702	  5702#	  5713	  5715	  5719	  5719#	  5730	  5732	  5736	  5736#	  5747	  5749	  5753	  5753#
	  5764	  5766	  5770	  5770#	  5781	  5783	  5787	  5787#	  5798	  5800	  5804	  5804#	  5815	  5817
	  5821	  5821#	  5832	  5834	  5838	  5838#	  5849	  5851	  5855	  5855#	  5866	  5868	  5872	  5872#
	  5883	  5885	  5889	  5889#	  5900	  5902	  5906	  5906#	  5917	  5919	  5923	  5923#	  5934	  5936
	  5940	  5940#	  5951	  5953	  5957	  5957#	  5968	  5970	  5974	  5974#	  5985	  5987	  5991#	  6012
	  6012#	  6022	  6024	  6028	  6028#	  6038	  6040	  6044	  6044#	  6054	  6056	  6060	  6060#	  6070
	  6072	  6076	  6076#	  6086	  6088	  6092	  6092#	  6102	  6104	  6108	  6108#	  6118	  6120	  6124
	  6124#	  6134	  6136	  6140	  6140#	  6150	  6152	  6240#	  6263	  6263#	  6274	  6276	  6280	  6280#
	  6291	  6293	  6297	  6297#	  6308	  6310	  6314	  6314#	  6325	  6327	  6331	  6331#	  6342	  6344
	  6348	  6348#	  6359	  6361	  6365	  6365#	  6376	  6378	  6382	  6382#	  6393	  6395	  6399	  6399#
	  6410	  6412	  6416	  6416#	  6427	  6429	  6433	  6433#	  6444	  6446	  6450	  6450#	  6461	  6463
	  6467	  6467#	  6478	  6480	  6484	  6484#	  6495	  6497	  6501	  6501#	  6512	  6514	  6518	  6518#
	  6529	  6531	  6535	  6535#	  6546	  6548
SPACE	   529#
SPDES	  7346#
SRTDDT	   359#
START	   347	   688#
START1	   366#
START2	   367#
START3	   368#
START4	   369#
START5	   370#
STARTA	   362	   692#
SUBLNK	   140#	   363
SWTEXR	   378#
SYSEXR	   351#
TAB	   530#
TESTPC	   405#	   707	   726	   744	   763	   781	   800	   906	  1022	  1040	  1147	  1221	  1240	  1260
	  1363	  1380	  1399	  1418	  1437	  1457	  1499	  1522	  1545	  1564	  1585	  1604	  1624	  1644
	  1668	  1693	  1714	  1736	  1757	  1779	  1801	  1821	  1926	  1947	  1968	  1991	  2009	  2029
	  2052	  2125	  2207	  2228	  2248	  2267	  2289	  2310	  2334	  2355	  2375	  2394	  2414	  2434
	  2460	  2490	  2514	  2555	  2578	  2603	  2627	  2651	  2676	  2700	  2724	  2748	  2772	  2827     SEQ 0211
	  2862	  2887	  2909	  2932	  2955	  2982	  3009	  3035	  3056	  3080	  3100	  3121	  3142	  3167
	  3196	  3217	  3237	  3261	  3388	  3493	  3630	  3747	  3805	  3867	  3931	  4299	  4483	  4585
	  4621	  4679	  4737	  4804	  4870	  4943	  5015	  5083	  5156	  5584	  5630	  5657	  6166	  6192
	  6214	  6236	  6559	  6580	  6603	  6625	  6649	  6672	  6693
TICKS	   408#
TLET	   690	  7320	  7343#
TOTALS	   106#
TTNBRF	   588#
TTYFIL	   504#
TTYSPD	   505#
TXTINH	   117#	  7304
USER	   395#	  7256
USERF	   333#
USRASB	    59#	   385
USRCRF	   514#
USRLFF	   513#
UUODIS	   467#
UUOEXT	   423#	  7399
UUORTN	   424#
UUOSKP	   421#
WW	   911#	   930	   930#	   931	   942	   942#	   943	   954	   954#	   955	   966	   966#	   967	   978
	   978#	   979	   990	   990#	   991	  1002	  1002#	  1003	  3498#	  3519	  3520	  3520#	  3532	  3533
	  3533#	  3545	  3546	  3546#	  3558	  3559	  3559#	  3571	  3572	  3572#	  3584	  3585	  3585#	  3597
	  3598	  3598#	  3610	  3611	  3611#	  4875#	  4895	  4896	  4896#	  4908	  4909	  4909#	  4921	  4922
	  4922#	  4948#	  4968	  4969	  4969#	  4981	  4982	  4982#	  4994	  4995	  4995#	  5088#	  5108	  5108#
	  5110	  5121	  5121#	  5123	  5134	  5134#	  5136	  5662#	  5686	  5686#	  5690	  5703	  5703#	  5707
	  5720	  5720#	  5724	  5737	  5737#	  5741	  5754	  5754#	  5758	  5771	  5771#	  5775	  5788	  5788#
	  5792	  5805	  5805#	  5809	  5822	  5822#	  5826	  5839	  5839#	  5843	  5856	  5856#	  5860	  5873
	  5873#	  5877	  5890	  5890#	  5894	  5907	  5907#	  5911	  5924	  5924#	  5928	  5941	  5941#	  5945
	  5958	  5958#	  5962	  5975	  5975#	  5979	  6013	  6013#	  6017	  6029	  6029#	  6033	  6045	  6045#
	  6049	  6061	  6061#	  6065	  6077	  6077#	  6081	  6093	  6093#	  6097	  6109	  6109#	  6113	  6125
	  6125#	  6129	  6141	  6141#	  6145
XX	   912#	   931	   931#	   934	   943	   943#	   946	   955	   955#	   958	   967	   967#	   970	   979
	   979#	   982	   991	   991#	   994	  1003	  1003#	  1006	  1045#	  1062	  1062#	  1063	  1073	  1073#
	  1074	  1084	  1084#	  1085	  1095	  1095#	  1096	  1106	  1106#	  1107	  1117	  1117#	  1118	  1128
	  1128#	  1129	  3266#	  3284	  3284#	  3287	  3296	  3296#	  3299	  3308	  3308#	  3311	  3320	  3320#
	  3323	  3332	  3332#	  3335	  3344	  3344#	  3347	  3356	  3356#	  3359	  3368	  3368#	  3371	  3410#
	  3411	  3421#	  3422	  3432#	  3433	  3443#	  3444	  3454#	  3455	  3465#	  3466	  3476#	  3477	  3499#
	  3518	  3518#	  3521	  3521#	  3524	  3531	  3531#	  3534	  3537	  3544	  3544#	  3547	  3550	  3557
	  3557#	  3560	  3563	  3570	  3570#	  3573	  3576	  3583	  3583#	  3586	  3589	  3596	  3596#	  3599
	  3602	  3609	  3609#	  3612	  3615	  3635#	  3652	  3652#	  3656	  3663	  3663#	  3667	  3674	  3674#
	  3678	  3685	  3685#	  3689	  3696	  3696#	  3700	  3707	  3707#	  3711	  3718	  3718#	  3722	  3729
	  3729#	  3733	  3810#	  3827	  3827#	  3829	  3838	  3838#	  3840	  3849	  3849#	  3851	  3872#	  3889
	  3889#	  3891	  3900	  3900#	  3902	  3911	  3911#	  3913	  4304#	  4325	  4325#	  4329	  4340	  4340#
	  4344	  4355	  4355#	  4359	  4370	  4370#	  4374	  4385	  4385#	  4389	  4400	  4400#	  4404	  4415
	  4415#	  4419	  4430	  4430#	  4434	  4445	  4445#	  4449	  4460	  4460#	  4464	  4488#	  4506	  4506#
	  4509	  4518	  4518#	  4521	  4530	  4530#	  4533	  4542	  4542#	  4545	  4554	  4554#	  4557	  4566
	  4566#	  4569	  4742#	  4760	  4760#	  4762	  4772	  4772#	  4774	  4784	  4784#	  4786	  4809#	  4827
	  4827#	  4829	  4839	  4839#	  4841	  4851	  4851#	  4853	  4876#	  4895	  4895#	  4898	  4908	  4908#
	  4911	  4921	  4921#	  4924	  4949#	  4968	  4968#	  4971	  4981	  4981#	  4984	  4994	  4994#	  4997
	  5020#	  5038	  5038#	  5040	  5050	  5050#	  5052	  5062	  5062#	  5064	  5089#	  5109	  5109#	  5113
	  5122	  5122#	  5126	  5135	  5135#	  5139	  5161#	  5182	  5182#	  5185	  5197	  5197#	  5200	  5212
	  5212#	  5215	  5227	  5227#	  5230	  5242	  5242#	  5245	  5257	  5257#	  5260	  5272	  5272#	  5275     SEQ 0212
	  5287	  5287#	  5290	  5302	  5302#	  5305	  5317	  5317#	  5320	  5332	  5332#	  5335	  5347	  5347#
	  5350	  5362	  5362#	  5365	  5377	  5377#	  5380	  5392	  5392#	  5395	  5407	  5407#	  5410	  5422
	  5422#	  5425	  5437	  5437#	  5440	  5472	  5472#	  5475	  5487	  5487#	  5490	  5502	  5502#	  5505
	  5517	  5517#	  5520	  5532	  5532#	  5535	  5547	  5547#	  5550	  5562	  5562#	  5565	  5663#	  5687
	  5687#	  5693	  5704	  5704#	  5710	  5721	  5721#	  5727	  5738	  5738#	  5744	  5755	  5755#	  5761
	  5772	  5772#	  5778	  5789	  5789#	  5795	  5806	  5806#	  5812	  5823	  5823#	  5829	  5840	  5840#
	  5846	  5857	  5857#	  5863	  5874	  5874#	  5880	  5891	  5891#	  5897	  5908	  5908#	  5914	  5925
	  5925#	  5931	  5942	  5942#	  5948	  5959	  5959#	  5965	  5976	  5976#	  5982	  6014	  6014#	  6019
	  6030	  6030#	  6035	  6046	  6046#	  6051	  6062	  6062#	  6067	  6078	  6078#	  6083	  6094	  6094#
	  6099	  6110	  6110#	  6115	  6126	  6126#	  6131	  6142	  6142#	  6147	  6241#	  6264	  6264#	  6266
	  6271	  6275	  6281	  6281#	  6283	  6288	  6292	  6298	  6298#	  6300	  6305	  6309	  6315	  6315#
	  6317	  6322	  6326	  6332	  6332#	  6334	  6339	  6343	  6349	  6349#	  6351	  6356	  6360	  6366
	  6366#	  6368	  6373	  6377	  6383	  6383#	  6385	  6390	  6394	  6400	  6400#	  6402	  6407	  6411
	  6417	  6417#	  6419	  6424	  6428	  6434	  6434#	  6436	  6441	  6445	  6451	  6451#	  6453	  6458
	  6462	  6468	  6468#	  6470	  6475	  6479	  6485	  6485#	  6487	  6492	  6496	  6502	  6502#	  6504
	  6509	  6513	  6519	  6519#	  6521	  6526	  6530	  6536	  6536#	  6538	  6543	  6547
ZZ	   805#	   821	   821#	   822	   822#	   825	   832	   832#	   833	   836	   843	   843#	   844	   847
	   854	   854#	   855	   858	   865	   865#	   866	   869	   876	   876#	   877	   880	   887	   887#
	   888	   891	   913#	   932	   932#	   935	   944	   944#	   947	   956	   956#	   959	   968	   968#
	   971	   980	   980#	   983	   992	   992#	   995	  1004	  1004#	  1007	  1046#	  1063	  1063#	  1065
	  1074	  1074#	  1076	  1085	  1085#	  1087	  1096	  1096#	  1098	  1107	  1107#	  1109	  1118	  1118#
	  1120	  1129	  1129#	  1131	  1264#	  1279	  1279#	  1281	  1289	  1289#	  1291	  1299	  1299#	  1301
	  1309	  1309#	  1311	  1319	  1319#	  1321	  1329	  1329#	  1331	  1339	  1339#	  1341	  1349	  1349#
	  1351	  1826#	  1842	  1842#	  1843	  1844	  1853	  1853#	  1854	  1855	  1864	  1864#	  1865	  1866
	  1875	  1875#	  1876	  1877	  1886	  1886#	  1887	  1888	  1897	  1897#	  1898	  1899	  1908	  1908#
	  1909	  1910	  3267#	  3285	  3285#	  3286	  3286#	  3289	  3297	  3297#	  3298	  3301	  3309	  3309#
	  3310	  3313	  3321	  3321#	  3322	  3325	  3333	  3333#	  3334	  3337	  3345	  3345#	  3346	  3349
	  3357	  3357#	  3358	  3361	  3369	  3369#	  3370	  3373	  3393#	  3409	  3409#	  3410	  3412	  3420
	  3420#	  3421	  3423	  3431	  3431#	  3432	  3434	  3442	  3442#	  3443	  3445	  3453	  3453#	  3454
	  3456	  3464	  3464#	  3465	  3467	  3475	  3475#	  3476	  3478	  3500#	  3519	  3519#	  3522	  3532
	  3532#	  3535	  3545	  3545#	  3548	  3558	  3558#	  3561	  3571	  3571#	  3574	  3584	  3584#	  3587
	  3597	  3597#	  3600	  3610	  3610#	  3613	  3636#	  3653	  3653#	  3654	  3664	  3664#	  3665	  3675
	  3675#	  3676	  3686	  3686#	  3687	  3697	  3697#	  3698	  3708	  3708#	  3709	  3719	  3719#	  3720
	  3730	  3730#	  3731	  3752#	  3767	  3767#	  3768	  3768#	  3770	  3777	  3777#	  3778	  3780	  3787
	  3787#	  3788	  3790	  3811#	  3828	  3828#	  3831	  3839	  3839#	  3842	  3850	  3850#	  3853	  3873#
	  3890	  3890#	  3893	  3901	  3901#	  3904	  3912	  3912#	  3915	  3936#	  3951	  3951#	  3952	  3953
	  3961	  3961#	  3962	  3963	  3971	  3971#	  3972	  3973	  3981	  3981#	  3982	  3983	  3991	  3991#
	  3992	  3993	  4001	  4001#	  4002	  4003	  4011	  4011#	  4012	  4013	  4021	  4021#	  4022	  4023
	  4031	  4031#	  4032	  4033	  4041#	  4058	  4058#	  4059	  4059#	  4061	  4063	  4071	  4071#	  4072
	  4074	  4076	  4084	  4084#	  4085	  4087	  4089	  4097	  4097#	  4098	  4100	  4102	  4110	  4110#
	  4111	  4113	  4115	  4123	  4123#	  4124	  4126	  4128	  4136	  4136#	  4137	  4139	  4141	  4149
	  4149#	  4150	  4152	  4154	  4162	  4162#	  4163	  4165	  4167	  4175	  4175#	  4176	  4178	  4180
	  4188	  4188#	  4189	  4191	  4193	  4201	  4201#	  4202	  4204	  4206	  4214	  4214#	  4215	  4217
	  4219	  4227	  4227#	  4228	  4230	  4232	  4240	  4240#	  4241	  4243	  4245	  4253	  4253#	  4254
	  4256	  4258	  4266	  4266#	  4267	  4269	  4271	  4279	  4279#	  4280	  4282	  4284	  4305#	  4326
	  4326#	  4327	  4327#	  4331	  4341	  4341#	  4342	  4346	  4356	  4356#	  4357	  4361	  4371	  4371#
	  4372	  4376	  4386	  4386#	  4387	  4391	  4401	  4401#	  4402	  4406	  4416	  4416#	  4417	  4421
	  4431	  4431#	  4432	  4436	  4446	  4446#	  4447	  4451	  4461	  4461#	  4462	  4466	  4489#	  4507
	  4507#	  4508	  4519	  4519#	  4520	  4531	  4531#	  4532	  4543	  4543#	  4544	  4555	  4555#	  4556
	  4567	  4567#	  4568	  4626#	  4641	  4641#	  4643	  4651	  4651#	  4653	  4661	  4661#	  4663	  4684#
	  4699	  4699#	  4701	  4709	  4709#	  4711	  4719	  4719#	  4721	  4743#	  4761	  4761#	  4763	  4764
	  4773	  4773#	  4775	  4776	  4785	  4785#	  4787	  4788	  4810#	  4828	  4828#	  4830	  4831	  4840
	  4840#	  4842	  4843	  4852	  4852#	  4854	  4855	  4877#	  4897	  4897#	  4899	  4910	  4910#	  4912     SEQ 0213
	  4923	  4923#	  4925	  4950#	  4970	  4970#	  4973	  4983	  4983#	  4986	  4996	  4996#	  4999	  5021#
	  5039	  5039#	  5041	  5042	  5051	  5051#	  5053	  5054	  5063	  5063#	  5065	  5066	  5090#	  5110
	  5110#	  5111	  5123	  5123#	  5124	  5136	  5136#	  5137	  5162#	  5183	  5183#	  5184	  5184#	  5187
	  5191	  5198	  5198#	  5199	  5202	  5206	  5213	  5213#	  5214	  5217	  5221	  5228	  5228#	  5229
	  5232	  5236	  5243	  5243#	  5244	  5247	  5251	  5258	  5258#	  5259	  5262	  5266	  5273	  5273#
	  5274	  5277	  5281	  5288	  5288#	  5289	  5292	  5296	  5303	  5303#	  5304	  5307	  5311	  5318
	  5318#	  5319	  5322	  5326	  5333	  5333#	  5334	  5337	  5341	  5348	  5348#	  5349	  5352	  5356
	  5363	  5363#	  5364	  5367	  5371	  5378	  5378#	  5379	  5382	  5386	  5393	  5393#	  5394	  5397
	  5401	  5408	  5408#	  5409	  5412	  5416	  5423	  5423#	  5424	  5427	  5431	  5438	  5438#	  5439
	  5442	  5446	  5452#	  5473	  5473#	  5474	  5474#	  5477	  5481	  5488	  5488#	  5489	  5492	  5496
	  5503	  5503#	  5504	  5507	  5511	  5518	  5518#	  5519	  5522	  5526	  5533	  5533#	  5534	  5537
	  5541	  5548	  5548#	  5549	  5552	  5556	  5563	  5563#	  5564	  5567	  5571	  5664#	  5688	  5688#
	  5689	  5689#	  5692	  5705	  5705#	  5706	  5709	  5722	  5722#	  5723	  5726	  5739	  5739#	  5740
	  5743	  5756	  5756#	  5757	  5760	  5773	  5773#	  5774	  5777	  5790	  5790#	  5791	  5794	  5807
	  5807#	  5808	  5811	  5824	  5824#	  5825	  5828	  5841	  5841#	  5842	  5845	  5858	  5858#	  5859
	  5862	  5875	  5875#	  5876	  5879	  5892	  5892#	  5893	  5896	  5909	  5909#	  5910	  5913	  5926
	  5926#	  5927	  5930	  5943	  5943#	  5944	  5947	  5960	  5960#	  5961	  5964	  5977	  5977#	  5978
	  5981	  5992#	  6015	  6015#	  6016	  6016#	  6018	  6031	  6031#	  6032	  6034	  6047	  6047#	  6048
	  6050	  6063	  6063#	  6064	  6066	  6079	  6079#	  6080	  6082	  6095	  6095#	  6096	  6098	  6111
	  6111#	  6112	  6114	  6127	  6127#	  6128	  6130	  6143	  6143#	  6144	  6146	  6242#	  6265	  6265#
	  6269	  6282	  6282#	  6286	  6299	  6299#	  6303	  6316	  6316#	  6320	  6333	  6333#	  6337	  6350
	  6350#	  6354	  6367	  6367#	  6371	  6384	  6384#	  6388	  6401	  6401#	  6405	  6418	  6418#	  6422
	  6435	  6435#	  6439	  6452	  6452#	  6456	  6469	  6469#	  6473	  6486	  6486#	  6490	  6503	  6503#
	  6507	  6520	  6520#	  6524	  6537	  6537#	  6541
$$MUUO	   619#
$$OUTE	   625#
$$TAX1	   637#
$$TAX2	   638#
$$TOGG	   631#
$$UUO	   608#
$ACC0	   446#
$ACF	  7347#
$BEND1	   416#
$BEND2	   417#	  7389
$CHRIN	   507#
$CRLF	   509#
$DEVCH	   333#
$DSKUP	   386#
$DVCH1	   333#
$DVOFF	   503#
$EMODE	   384#
$ENDFX	   653#	   654
$FFF	   511#
$IBUF	   559#
$INEXT	   561#
$INNM	   560#
$ITRHL	   427#
$ITRX1	   428#
$LPAPE	  7410
$MMAP	   387#
$MODVL	   382#
$MODVU	   383#
$OBUF	   550#                                                                                                            SEQ 0214
$ONETM	   410#
$OUTEX	   552#
$OUTNM	   551#
$PAPER	   333
$PARER	   434#
$PNAME	   380#
$PSHER	   438#
$PVER	   381#
$RSRTX	   430#
$RSRTY	   431#
$SPAG1	   450#
$START	   347#
$SVAPR	   448#
$SVPAG	   449#
$SVPI	   447#
$SVUPC	   453#	  7250	  7254	  7284
$SVUUO	   452#	  7263	  7295	  7323
$TABF	   510#
$TTCHR	   506#
$TWCNT	   502#
$TYPNB	   508#
$UMODE	   385#
$UORTX	   425#
$USRHL	   429#
$UUOER	   426#	   467
$VTF	   512#
%AC1F	  7348#
%ACS1A	  7265#	  7265	  7309
%ACTFL	   459#
%ACTUL	   460#
%ALF	  7353#
%AR1F	  7352#
%ARF	  7351#
%COREC	   458#
%CORFL	   457#
%DISCR	   461#
%E1F	  7350#
%EEF	  7354#
%EF	  7349#
%ER4X	  7329	  7334#
%ER5X	  7327	  7336#
%ER6X	  7325	  7338#
%ER7X	  7331#	  7335	  7337	  7339
%ERAC0	  7239#	  7239	  7266	  7300	  7391
%ERAC1	  7247#	  7247	  7267	  7379
%ERAC2	  7248#	  7248	  7378
%ERFST	  7273#	  7273	  7275
%ERHI1	   600#
%ERHI2	   601#
%ERHI3	   602#
%ERMOR	  7305	  7332	  7361#
%ERMS1	  7270#	  7404
%ERMS2	  7293#                                                                                                            SEQ 0215
%ERMS3	  7311	  7318#
%ERRS1	  7262	  7365#	  7403
%ERRS2	  7378#
%ERRS4	  7269	  7401#
%ERRS5	  7382	  7386	  7391#
%FF	  7355#
%FLTTB	  7313	  7344#
%NODES	  7345#
.JB41	   333#
.JBAPR	   333#
.JBCNI	   333#
.JBDDT	   333#
.JBFF	   333#
.JBOPC	   333#
.JBREL	   333#
.JBREN	   333#
.JBSA	   333#
.JBSYM	   333#
.JBTPC	   333#
.JBUSY	   333#
.JBUUO	   333#
.JBVER	   333#
CFLUSH	   289#
CINVAL	   288#                                                                                                            SEQ 0216
CLOKOP	   283#
CWRTBI	   290#
DROPDV	   250#	   664
ENDUUO	   296#	   415
EOPUUO	   297#	   417
ER1	    31#
ER10	    38#
ER11	    39#
ER12	    40#
ER13	    41#	  1467	  1476	  1485	  5598	  5608	  5618	  6707	  6709	  6721	  6723	  6725	  6737	  6739
	  6741	  6752	  6756	  6758	  6762	  6774	  6778	  6780	  6784	  6797	  6799	  6811	  6813	  6825
	  6827	  6829	  6841	  6843	  6855	  6857	  6859	  6871	  6873	  6875	  6886	  6888	  6890	  6902
	  6904	  6908	  6912	  6924	  6926	  6930	  6934	  6946	  6948	  6961	  6963	  6975	  6977	  6989
	  6991	  6993	  7005	  7007	  7009	  7020	  7024	  7026	  7030	  7042	  7046	  7048	  7052	  7065
	  7067	  7079	  7081	  7093	  7095	  7097	  7109	  7111	  7123	  7125	  7127	  7139	  7141	  7143
	  7154	  7156	  7158	  7170	  7172	  7176	  7180	  7192	  7194	  7198	  7202	  7214	  7216	  7229
	  7231
ER2	    32#
ER3	    33#	   715	   734	   752	   771	   789	   827	   838	   849	   860	   871	   882	   893	   937
	   949	   961	   973	   985	   997	  1009	  1030	  1068	  1079	  1090	  1101	  1112	  1123	  1134
	  1156	  1164	  1172	  1180	  1187	  1195	  1203	  1211	  1229	  1248	  1284	  1294	  1304	  1314
	  1324	  1334	  1344	  1354	  1371	  1388	  1407	  1426	  1445	  1506	  1531	  1553	  1573	  1594
	  1613	  1633	  1653	  1677	  1680	  1702	  1723	  1745	  1766	  1788	  1809	  1848	  1859	  1870
	  1881	  1892	  1903	  1914	  1935	  1955	  1977	  1999	  2018	  2038	  2062	  2071	  2080	  2089
	  2097	  2106	  2115	  2134	  2143	  2152	  2161	  2169	  2178	  2187	  2196	  2216	  2237	  2256
	  2276	  2298	  2319	  2343	  2364	  2384	  2403	  2423	  2443	  2472	  2474	  2526	  2538	  2591
	  2710	  2919	  2943	  2965	  2992	  3018	  3021	  3044	  3066	  3089	  3108	  3130	  3152	  3205
	  3291	  3303	  3315	  3327	  3339	  3351	  3363	  3375	  3415	  3426	  3437	  3448	  3459	  3470
	  3481	  3526	  3539	  3552	  3565	  3578	  3591	  3604	  3617	  3658	  3669	  3680	  3691	  3702
	  3713	  3724	  3735	  3772	  3782	  3792	  3833	  3844	  3855	  3895	  3906	  3917	  3956	  3966
	  3976	  3986	  3996	  4006	  4016	  4026	  4036	  4066	  4079	  4092	  4105	  4118	  4131	  4144
	  4157	  4170	  4183	  4196	  4209	  4222	  4235	  4248	  4261	  4274	  4287	  4335	  4350	  4365
	  4380	  4395	  4410	  4425	  4440	  4455	  4470	  4513	  4525	  4537	  4549	  4561	  4573	  4594
	  4602	  4610	  4646	  4656	  4666	  4704	  4714	  4724	  4767	  4779	  4791	  4834	  4846	  4858
	  4903	  4916	  4929	  4976	  4989	  5002	  5045	  5057	  5069	  5116	  5129	  5142	  5190	  5205
	  5220	  5235	  5250	  5265	  5280	  5295	  5310	  5325	  5340	  5355	  5370	  5385	  5400	  5415
	  5430	  5445	  5480	  5495	  5510	  5525	  5540	  5555	  5570	  5596	  5641	  5696	  5713	  5730
	  5747	  5764	  5781	  5798	  5815	  5832	  5849	  5866	  5883	  5900	  5917	  5934	  5951	  5968
	  5985	  6022	  6038	  6054	  6070	  6086	  6102	  6118	  6134	  6150	  6176	  6203	  6223	  6274
	  6291	  6308	  6325	  6342	  6359	  6376	  6393	  6410	  6427	  6444	  6461	  6478	  6495	  6512
	  6529	  6546	  6569	  6589	  6614	  6634	  6660	  6681	  6704	  6719	  6735	  6750	  6772	  6794
	  6808	  6823	  6838	  6853	  6869	  6884	  6900	  6922	  6943	  6958	  6972	  6987	  7003	  7018
	  7040	  7062	  7076	  7091	  7106	  7121	  7137	  7152	  7168	  7190	  7211	  7226
ER4	    34#	  2476	  2500	  2528	  2541	  2565	  2588	  2613	  2637	  2661	  2686	  2734	  2758	  2783
	  2793	  2803	  2813	  2838	  2848	  2872	  2897	  3175	  3177	  3185	  3226	  3246	  5643	  5698
	  5715	  5732	  5749	  5766	  5783	  5800	  5817	  5834	  5851	  5868	  5885	  5902	  5919	  5936
	  5953	  5970	  5987	  6024	  6040	  6056	  6072	  6088	  6104	  6120	  6136	  6152	  6179	  6684
ER5	    35#	  5192	  5207	  5222	  5237	  5252	  5267	  5282	  5297	  5312	  5327	  5342	  5357	  5372
	  5387	  5402	  5417	  5432	  5447	  5482	  5497	  5512	  5527	  5542	  5557	  5572	  6181	  6201
	  6225	  6276	  6293	  6310	  6327	  6344	  6361	  6378	  6395	  6412	  6429	  6446	  6463	  6480
	  6497	  6514	  6531	  6548	  6591	  6612	  6636	  6662	  6686
ER6	    36#
ER7	    37#                                                                                                            SEQ 0217
ERRHLT	   185#	  7372
FATAL	   184#
FRD36	   325#
FRD8	   326#
FREAD	   324#
FSELEC	   323#
GET	   168#
GO	   165#
HALT	    80	    81	    82	    83	    84	   170#	   436
JEN	   172#
JRSTF	   171#
MAPADR	   306#
MAPCNK	   307#
MAPMEM	   303#
MAPPNT	   309#
MAPSET	   308#
MEMSEG	   305#
MEMZRO	   304#
MODPCP	   316#
MODPCU	   315#
MTROP	   284#
NAME	     7#	    10
PBELL	   259#	  7376
PCRL	   253#	  7312	  7331
PCRL2	   257#
PCRL2F	   258#
PCRLF	   254#
PFORCE	   261#
PGMINT	   178#	   688
PJRST	   169#
PMSG	   263#	  7278	  7282	  7293	  7318
PMSGF	   266#
PNT1	   219#
PNT11	   233#
PNT11F	   234#
PNT1F	   220#
PNT2	   221#
PNT2F	   222#
PNT3	   223#	  7330
PNT3F	   224#
PNT4	   225#	  7334
PNT4F	   226#
PNT5	   227#	  7336
PNT5F	   228#
PNT6	   229#	  7286	  7338
PNT6F	   230#
PNT7	   231#
PNT7F	   232#
PNTA	   205#	  7321
PNTADF	   236#
PNTADR	   235#
PNTAF	   206#
PNTAL	   207#	  7314                                                                                                     SEQ 0218
PNTALF	   208#
PNTCHF	   218#
PNTCHR	   217#
PNTCI	   215#
PNTCIF	   216#
PNTCW	   251#
PNTCWF	   252#
PNTDCF	   244#
PNTDEC	   243#	  7281
PNTDS	   245#
PNTDSF	   246#
PNTHW	   239#	  7301
PNTHWF	   240#
PNTMGN	   330#	  7362
PNTMSF	   212#
PNTMSG	   211#
PNTNM	   247#	  7274
PNTOCF	   242#
PNTOCS	   241#
PNTOCT	   237#
PNTOTF	   238#
PNTSIX	   248#
PNTSXF	   249#
PSIXL	   209#
PSIXLF	   210#
PSIXM	   213#	  7279	  7283	  7294	  7319
PSIXMF	   214#
PSP	   255#
PSPF	   256#
PUT	   167#
RTN	   166#	   423
S	    96#	    98	   102	   131	   133	   142	   145	   160	   161	   163	   174	   176	   180	   182
	   187	   191	   333	   338	   344	   371	   373	   391	   393	   411	   413	   442	   444	   462
	   464	   482	   484	   492	   494	   515	   520	   546	   548	   555	   557	   563	   565	   571
	   573	   577	   579	   584	   586	   590	   592	   596	   598	   604	   606	   609	   611	   615
	   617	   621	   623	   627	   629	   633	   635	   640	   645	   649	   651
SAVEAC	    66#	   705	   724	   742	   761	   779	   798	   904	  1020	  1038	  1145	  1219	  1238	  1258
	  1361	  1378	  1397	  1416	  1435	  1455	  1497	  1520	  1543	  1562	  1583	  1602	  1622	  1642
	  1666	  1691	  1712	  1734	  1755	  1777	  1799	  1819	  1924	  1945	  1966	  1989	  2007	  2027
	  2050	  2123	  2205	  2226	  2246	  2265	  2287	  2308	  2332	  2353	  2373	  2392	  2412	  2432
	  2458	  2488	  2512	  2553	  2576	  2601	  2625	  2649	  2674	  2698	  2722	  2746	  2770	  2825
	  2860	  2885	  2907	  2930	  2953	  2980	  3007	  3033	  3054	  3078	  3098	  3119	  3140	  3165
	  3194	  3215	  3235	  3259	  3386	  3491	  3628	  3745	  3803	  3865	  3929	  4297	  4481	  4583
	  4619	  4677	  4735	  4802	  4868	  4941	  5013	  5081	  5154	  5582	  5628	  5655	  6164	  6190
	  6212	  6234	  6557	  6578	  6601	  6623	  6647	  6670	  6691
SIXBTZ	   272#
SWITCH	   278#	  7260	  7363
TTALTM	   200#	  7365
TTICHR	   193#
TTICNV	   198#
TTIDEC	   197#
