DBKAM PDP-10  KI10 BASIC INSTRUCTION DIAGNOSTIC (13) 0,2	MACRO %50A(432) 09:50  6-AUG-76 PAGE 1
DBKAMT	MAC	30-JUL-76 12:39		DIAGNOSTIC PARAMETERS                                                              SEQ 0011

     1					;DBKAM
     2
     3			000000			MCNVER==0
     4			000002			DECVER==2
     5
     6
     7						XLIST
     8						LIST
     9						LALL
    10
    11						NAME	\MCNVER,\DECVER^
    12
    13					TITLE	DBKAM PDP-10  KI10 BASIC INSTRUCTION DIAGNOSTIC (13) 0,2
    14					^
    15
    16					;(BYTE, BLOCK TRANSFER, JFFO AND OTHER BASIC MISCELLANEOUS INSTRUCTIONS)
    17
    18					;COPYRIGHT 1975
    19					;DIGITAL EQUIPMENT CORPORATION
    20					;MARLBORO, MASS. 01752
    21
    22					;JOHN R. KIRCHOFF
    23
    24	000137					LOC	137
    25	000137	000000	000002			MCNVER,,DECVER
    26
    27						NOSYMDBKAM PDP-10  KI10 BASIC INSTRUCTION DIAGNOSTIC (13) 0,2	MACRO %50A(432) 09:50  6-AUG-76 PAGE 2
DBKAMT	MAC	30-JUL-76 12:39		DIAGNOSTIC PARAMETERS                                                              SEQ 0012

    28					SUBTTL	DIAGNOSTIC PARAMETERS
    29
    30					;OPERATOR DEFINITIONS
    31
    32		001000	000000		OPDEF	ER1	[1B8]
    33		002000	000000		OPDEF	ER2	[2B8]
    34		003000	000000		OPDEF	ER3	[3B8]
    35		004000	000000		OPDEF	ER4	[4B8]
    36		005000	000000		OPDEF	ER5	[5B8]
    37		006000	000000		OPDEF	ER6	[6B8]
    38		007000	000000		OPDEF	ER7	[7B8]
    39		010000	000000		OPDEF	ER10	[10B8]
    40		011000	000000		OPDEF	ER11	[11B8]
    41		012000	000000		OPDEF	ER12	[12B8]
    42		013000	000000		OPDEF	ER13	[13B8]
    43
    44			040530		LUUO1=ERRMES
    45			040530		LUUO2=ERRMES
    46			040530		LUUO3=ERRMES
    47			040530		LUUO4=ERRMES
    48			040530		LUUO5=ERRMES
    49			040530		LUUO6=ERRMES
    50			040530		LUUO7=ERRMES
    51			040530		LUUO10=ERRMES
    52			040530		LUUO11=ERRMES
    53			040530		LUUO12=ERRMES
    54			040530		LUUO13=ERRMESDBKAM PDP-10  KI10 BASIC INSTRUCTION DIAGNOSTIC (13) 0,2	MACRO %50A(432) 09:50  6-AUG-76 PAGE 3
DBKAMT	MAC	30-JUL-76 12:39		DIAGNOSTIC PARAMETERS                                                              SEQ 0013

    55					;SUBROUTINE ASSEMBLY DEFINITIONS
    56
    57			000040		DEBUG=40
    58			000001		EXCASB=1
    59			000001		USRASB=1
    60			000001		KI10=1
    61			000001		KLOLD==1
    62			000001		KI10=1
    63			000001		PGMEND=1
    64			000001		ERDIAG=1
    65
    66					;SPECIAL FEATURE DEFINITIONS
    67
    68			030000		SADR1=BEGIN
    69			030000		SADR2=BEGIN
    70			030000		SADR3=BEGIN
    71			030000		SADR4=BEGIN
    72		254000	030000		SADR5=JRST BEGIN
    73		254000	030000		SADR6=JRST BEGIN
    74		254000	030000		SADR7=JRST BEGIN
    75		254000	030000		SADR8=JRST BEGIN
    76		254000	030000		SADR9=JRST BEGIN
    77		254000	030000		SADR10=JRST BEGIN
    78		254000	030000		SADR11=JRST BEGIN
    79
    80					;SPECIAL FEATURE PARAMETERS
    81
    82			000000		PAREA0=0
    83			000000		PAREA1=0
    84			000000		PAREA2=0
    85		444253	415500		PAREA3=SIXBIT/DBKAM/
    86		605664	000000		PAREA4=SIXBIT/PNT/
    87			000000		PAREA5=0
    88			000000		PAREA6=0
    89			001000		ITERAT==1000
    90
    91					;MACROS
    92
    93					DEFINE	SAVEAC	(A,B)<
    94						MOVEI	AC+2,.		;SAVE TEST PC
    95						MOVEM	AC+2,TESTPC
    96						MOVEI	AC+2,<AC+2>&17	;INFORM ERROR ROUTINE WHICH
    97						MOVEM	AC+2,ERRLOP#	;AC IS USED FOR ITERATION>DBKAM PDP-10  KI10 BASIC INSTRUCTION DIAGNOSTIC (13) 0,2	MACRO %50A(432) 09:50  6-AUG-76 PAGE 4
DBKAMT	MAC	30-JUL-76 12:39		DIAGNOSTIC PARAMETERS                                                              SEQ 0014

    98					;SPECIAL INSTRUCTIONS TO ASSEMBLER
    99
   100					IF1,<BYTBLK=14773>	;BYTBLK BEYOND AC RANGE FOR PASS 1
   101					IF1,<BLTBLK=15000>	;BLTBLK BEYOND AC RANGE FOR PASS 1
   102
   103					;MACROS
   104
   105					DEFINE	GMOV	(X1,DATA),<
   106						IFLE	<X1-20>,<
   107						MOVE	X1,[DATA]	;PRELOAD X1 WITH DATA>
   108						IFG	<X1-20>,<
   109						MOVE	AC+1,[DATA]
   110						MOVEM	AC+1,X1		;PRELOAD X1 WITH DATA>>
   111
   112					DEFINE	GCAM	(X1,DATA),<
   113					SN=SN+1
   114						IFG	<X1-20>,<
   115						MOVE	AC-1,X1
   116						CAME	AC-1,[DATA]	;IS C(X1) = DATA
   117						IFIDN	<DEST>,<X1>,<
   118						ER2	AC-1,SN		;DEST NOT LOADED CORRECTLY>
   119						IFDIF	<DEST>,<X1>,<
   120						ER2	AC-1,SN		;C(X1) WAS CLOBBERED>>
   121						IFLE	<X1-20>,<
   122						CAME	X1,[DATA]	;IS C(X1) = DATA
   123						IFIDN	<DEST>,<X1>,<
   124						ER2	X1,SN		;DEST NOT LOADED CORRECTLY>
   125						IFDIF	<DEST>,<X1>,<
   126						ER2	X1,SN		;C(X1) WAS CLOBBERED>>>DBKAM PDP-10  KI10 BASIC INSTRUCTION DIAGNOSTIC (13) 0,2	MACRO %50A(432) 09:50  6-AUG-76 PAGE 5
DBKAMT	MAC	30-JUL-76 12:39		DIAGNOSTIC PARAMETERS                                                              SEQ 0015

   127					DEFINE	BLTM1	(A1,C1,S1,D1,SC)<
   128					;VERIFY THAT BLT WILL TRANSFER A 1 WORD BLOCK OF DATA
   129					;WHERE SOURCE AND DESTINATION ARE DIFFERENT
   130					;SOURCE DATA = SC
   131
   132						AC=C1
   133						SAVEAC	(1,1)
   134					SN=A1
   135						SRCE=S1			;1ST LOC OF SOURCE = S1
   136						DEST=D1			;1ST LOC OF DESTINATION = D1
   137						SIZ=1			;BLOCK SIZE = 1 WORD
   138
   139					G'A1:	MOVE	AC,[SRCE,,DEST]	;LOAD BLT AC
   140						GMOV	(SRCE-1,<252525252525>)
   141						GMOV	(SRCE,<SC>)
   142						GMOV	(SRCE+1,<770077007700>)
   143						GMOV	(DEST-1,<070707070707>)
   144						GMOV	(DEST,<123456765432>)
   145						GMOV	(DEST+1,<552255225522>)
   146						BLT	AC,DEST+SIZ-1	;*BLOCK TRANSFER
   147						GCAM	(SRCE-1,<252525252525>)
   148						GCAM	(SRCE,<SC>)
   149						GCAM	(SRCE+1,<770077007700>)
   150						GCAM	(DEST-1,<070707070707>)
   151						GCAM	(DEST,<SC>)
   152						GCAM	(DEST+1,<552255225522>)
   153						JUMPL	AC+2,G'A1		;LOOP ON ERROR>DBKAM PDP-10  KI10 BASIC INSTRUCTION DIAGNOSTIC (13) 0,2	MACRO %50A(432) 09:50  6-AUG-76 PAGE 1
PARAM	KLM	26-FEB-76		*PARAM*	CONSOLE DATA SWITCH ASSIGNMENTS, FEB 26,1976                               SEQ 0016

   154					SUBTTL	*PARAM*	CONSOLE DATA SWITCH ASSIGNMENTS, FEB 26,1976
   155
   156					DEFINE	S,<;*********************************************************************>
   157
   158					S^;*********************************************************************^
   159					;*DATA SWITCHES (READ FROM CONSOLE IN EXEC MODE OR TYPED IN IN USER MODE)
   160					;*LEFT HALF SWITCHES ARE PRE-ASSIGNED FOR SUBROUTINE PACKAGE USE
   161					;*AND CONTROL LOOPING, PRINTING (TTY OR OTHER DEVICE) AND MISC. FUNCTIONS
   162					S^;*********************************************************************^
   163
   164			400000		ABORT==	400000			;ABORT PROGRAM ON PASS COMPLETION
   165			200000		RSTART==200000			;RESTART TEST, PRINT TOTALS
   166			100000		TOTALS==100000			;PRINT TOTALS, CONTINUE
   167
   168			040000		NOPNT==	040000			;INHIBIT ALL PRINT/TYPE OUT (EXCEPT FORCED)
   169			020000		PNTLPT==020000			;PRINT ALL DATA ON LPT (LOGICAL DEVICE, USER MODE)
   170			010000		DING==	010000			;RING BELL ON ERROR
   171
   172			004000		LOOPER==004000			;ENTER EXERCISE/CHECK LOOP ON ERROR
   173			002000		ERSTOP==002000			;HALT ON TEST ERROR
   174			001000		PALERS==001000			;PRINT ALL ERRORS
   175
   176			000400		RELIAB==000400			;RELIABILITY MODE
   177			000200		TXTINH==000200			;INHIBIT ERROR TEXT
   178			000100		INHPAG==000100			;INHIBIT PAGING
   179
   180			000040		MODDVC==000040			;MODIFY DEVICE CODE
   181			000020		INHCSH==000020			;INHIBIT CACHE
   182			000010		OPRSEL==000010			;OPERATOR SELECTION
   183
   184			000004		CHAIN==	000004			;CHAIN CONTROL SWITCH
   185
   186			000002		KAHZ50==000002			;KA10 50 HERTZ POWER
   187
   188									;SWITCH 17 RESERVED !!!DBKAM PDP-10  KI10 BASIC INSTRUCTION DIAGNOSTIC (13) 0,2	MACRO %50A(432) 09:50  6-AUG-76 PAGE 2
PARAM	KLM	26-FEB-76		*PARAM* PROGRAM/SUBROUTINE PARAMETERS, FEB 26,1976                                 SEQ 0017

   189					SUBTTL	*PARAM* PROGRAM/SUBROUTINE PARAMETERS, FEB 26,1976
   190
   191					S^;*********************************************************************^
   192					;*SPECIAL SUBPROGRAM LINKAGES
   193					S^;*********************************************************************^
   194
   195			027772		FSELNK=	27772	;FILE SELECT LINK
   196			027773		FRDLNK=	27773	;FILE READ LINK
   197			027774		LDLNK=	27774	;LOAD LINKAGE ADDRESS
   198			027775		DDTLNK=	27775	;DDT LINKAGE ADDRESS
   199			027776		MODLNK=	27776	;OPERATIONAL MODE CHECK LINKAGE ADDRESS
   200			027777		SUBLNK=	27777	;SUBROUTINE LINKAGE ADDRESS
   201
   202					S^;*********************************************************************^
   203					;*SPECIAL SUBROUTINE FATAL HALTS
   204					;*USED TO REPORT ERRORS THAT CAUSE THE SUBROUTINES TO BE UNUSABLE
   205					S^;*********************************************************************^
   206
   207					;ADDRESS   TAG	REASON
   208					;---------------------
   209
   210					; 1010 	NOEXEC	;PROGRAM NOT CODED FOR EXEC MODE OPERATION
   211					; 1011  PLERR	;FATAL PUSH LIST POINTER ERROR
   212					; 1012  PLERR1	;INITIAL PUSH LIST POINTER ERROR
   213					; 1013  MUOERR	;MUUO WITH LUUO HANDLER WIPED OUT
   214					; 1014  DTEBER	;DTE20 INTERRUPT WITHOUT DOORBELL
   215					; 1015  DTECER	;DTE20 CLOCK INTERRUPT WITHOUT FLAG SET
   216					; 1016  CPIERR	;CPU INITIALIZATION ERROR
   217					; 1017  EOPERR	;END OF PROGRAM ERROR
   218					; 1020  LUOERR	;INTERRUPT WITH LUUO HANDLER WIPED OUT
   219
   220					S^;*********************************************************************^DBKAM PDP-10  KI10 BASIC INSTRUCTION DIAGNOSTIC (13) 0,2	MACRO %50A(432) 09:50  6-AUG-76 PAGE 3
PARAM	KLM	26-FEB-76		*PARAM* PROGRAM/SUBROUTINE PARAMETERS, FEB 26,1976                                 SEQ 0018

   221					S^;*********************************************************************^
   222					;OPERATOR DEFINITIONS (NON-UUO'S)
   223					S^;*********************************************************************^
   224
   225		260740	000000		OPDEF	GO	[PUSHJ	P,]	;SUBROUTINE CALL
   226		263740	000000		OPDEF	RTN	[POPJ	P,]	;SUBROUTINE RETURN
   227		261740	000000		OPDEF	PUT	[PUSH	P,]	;PUT DATA ON PUSH LIST
   228		262740	000000		OPDEF	GET	[POP	P,]	;GET DATA FROM PUSH LIST
   229		254000	000000		OPDEF	PJRST	[JRST	]	;JRST TO ROUTINE THAT RTN'S
   230		254200	000000		OPDEF	HALT	[JRST	4,]	;DEFINITION FOR DDT
   231		254100	000000		OPDEF	JRSTF	[JRST	2,]	;DEFINITION FOR DDT
   232		254500	000000		OPDEF	JEN	[JRST	12,]	;DEFINITION FOR DDT
   233
   234					S^;*********************************************************************^
   235					;*SUBROUTINE INITIALIZATION CALL
   236					S^;*********************************************************************^
   237
   238		265000	030011		OPDEF	PGMINT	[JSP	0,SBINIT]	;SUBROUTINE INITIALIZATION
   239
   240					S^;*********************************************************************^
   241					;*HALTING UUO'S (A MORE GRACEFUL HALT THAN SIMPLY USING THE HALT INSTRUCTION).
   242					S^;*********************************************************************^
   243
   244		037640	000004		OPDEF	FATAL	[37B8!15B12!4]	;FATAL PROGRAMMING HALT
   245		037600	000004		OPDEF	ERRHLT	[37B8!14B12!4]	;PROGRAM ERROR HALT
   246
   247					S^;*********************************************************************^
   248					;*TERMINAL INPUT UUO'S
   249					;*ALWAYS COME FROM THE CONSOLE TERMINAL IN EXEC MODE OR THE
   250					;*CONTROLLING TERMINAL (REAL TERMINAL OR PTY) IN USER MODE.
   251					S^;*********************************************************************^
   252
   253		037000	000003		OPDEF	TTICHR 	[37B8!0B12!3]	;TTY, INPUT ANY CHARACTER
   254		037040	000003		OPDEF	TTIYES	[37B8!1B12!3]	;TTY, NORMAL RETURN Y
   255		037100	000003		OPDEF	TTINO	[37B8!2B12!3]	;TTY, NORMAL RETURN N
   256		037140	000003		OPDEF	TTIOCT	[37B8!3B12!3]	;TTY, INPUT OCTAL WORD
   257		037200	000003		OPDEF	TTIDEC	[37B8!4B12!3]	;TTY, INPUT DECIMAL WORD
   258		037240	000003		OPDEF	TTICNV	[37B8!5B12!3]	;TTY, INPUT CONVERTABLE WORD
   259		037300	000003		OPDEF	TTLOOK	[37B8!6B12!3]	;TTY, KEYBOARD CHECK
   260		037340	000003		OPDEF	TTALTM	[37B8!7B12!3]	;TTY, ALT-MODE CHECK
   261		037400	000003		OPDEF	TTSIXB	[37B8!10B12!3]	;TTY, INPUT SIXBIT WORD
   262		037440	000003		OPDEF	TTYINP	[37B8!11B12!3]	;TTY, IMAGE MODE INPUTDBKAM PDP-10  KI10 BASIC INSTRUCTION DIAGNOSTIC (13) 0,2	MACRO %50A(432) 09:50  6-AUG-76 PAGE 4
PARAM	KLM	26-FEB-76		*PARAM* PROGRAM/SUBROUTINE PARAMETERS, FEB 26,1976                                 SEQ 0019

   263					;*TERMINAL OUTPUT UUO'S.
   264
   265		037000	000000		OPDEF	PNTA	[37B8!0B12!0]	;PRINT ASCII WORD
   266		037000	000001		OPDEF	PNTAF	[37B8!0B12!1]	;PRINT ASCII WORD FORCED
   267		037740	000000		OPDEF	PNTAL	[37B8!17B12!0]	;PRINT ASCIZ LINE
   268		037740	000001		OPDEF	PNTALF	[37B8!17B12!1]	;PRINT ASCIZ LINE FORCED
   269		037600	000003		OPDEF	PSIXL	[37B8!14B12!3]	;PRINT SIXBIT'Z LINE
   270		037640	000003		OPDEF	PSIXLF	[37B8!15B12!3]	;PRINT SIXBIT'Z LINE FORCED
   271		037000	000000		OPDEF	PNTMSG	[37B8!0B12!0]	;PRINT MESSAGE IMMEDIATE
   272		037040	000000		OPDEF	PNTMSF	[37B8!1B12!0]	;PRINT MESSAGE IMMEDIATE FORCED
   273		037100	000000		OPDEF	PSIXM	[37B8!2B12!0]	;PRINT SIXBIT'Z MSG IMMEDIATE
   274		037200	000000		OPDEF	PSIXMF	[37B8!4B12!0]	;PRINT SIXBIT'Z MSG IMM FORCED
   275		037000	000000		OPDEF	PNTCI	[37B8!0B12!0]	;PRINT CHARACTER IMMEDIATE
   276		037040	000000		OPDEF	PNTCIF	[37B8!1B12!0]	;PRINT CHARACTER IMMEDIATE FORCED
   277		037500	000000		OPDEF	PNTCHR	[37B8!12B12!0]	;PRINT CHARACTER
   278		037500	000001		OPDEF	PNTCHF	[37B8!12B12!1]	;PRINT CHARACTER FORCED
   279		037040	000000		OPDEF	PNT1	[37B8!1B12!0]	;PRINT ONE OCTAL DIGIT
   280		037040	000001		OPDEF	PNT1F	[37B8!1B12!1]	;PRINT 1 OCTAL DIGIT FORCED
   281		037100	000000		OPDEF	PNT2	[37B8!2B12!0]	;PRINT TWO OCTAL DIGITS
   282		037100	000001		OPDEF	PNT2F	[37B8!2B12!1]	;PRINT 2 OCTAL DIGITS FORCED
   283		037140	000000		OPDEF	PNT3	[37B8!3B12!0]	;PRINT THREE OCTAL DIGITS
   284		037140	000001		OPDEF	PNT3F	[37B8!3B12!1]	;PRINT THREE OCTAL DIGITS FORCED
   285		037200	000000		OPDEF	PNT4	[37B8!4B12!0]	;PRINT FOUR OCTAL DIGITS
   286		037200	000001		OPDEF	PNT4F	[37B8!4B12!1]	;PRINT FOUR OCTAL DIGITS FORCED
   287		037240	000000		OPDEF	PNT5	[37B8!5B12!0]	;PRINT FIVE OCTAL DIGITS
   288		037240	000001		OPDEF	PNT5F	[37B8!5B12!1]	;PRINT FIVE OCTAL DIGITS FORCED
   289		037300	000000		OPDEF	PNT6	[37B8!6B12!0]	;PRINT SIX OCTAL DIGITS
   290		037300	000001		OPDEF	PNT6F	[37B8!6B12!1]	;PRINT SIX OCTAL DIGITS FORCED
   291		037340	000000		OPDEF	PNT7	[37B8!7B12!0]	;PRINT 7 OCTAL DIGITS
   292		037340	000001		OPDEF	PNT7F	[37B8!7B12!1]	;PRINT 7 OCTAL DIGITS FORCED
   293		037440	000000		OPDEF	PNT11	[37B8!11B12!0]	;PRINT 11 OCTAL DIGITS
   294		037440	000001		OPDEF	PNT11F	[37B8!11B12!1]	;PRINT 11 OCTAL DIGITS FORCED.
   295		037400	000000		OPDEF	PNTADR	[37B8!10B12!0]	;PRINT PHYSICAL ADDRESS
   296		037400	000001		OPDEF	PNTADF	[37B8!10B12!1]	;PRINT PHYSICAL ADDRESS FORCED
   297		037600	000000		OPDEF	PNTOCT  [37B8!14B12!0]	;PRINT FULL WORD OCTAL
   298		037600	000001		OPDEF	PNTOTF	[37B8!14B12!1]	;PRINT FULL WORD OCTAL FORCED
   299		037540	000000		OPDEF	PNTHW	[37B8!13B12!0]	;PRINT OCTAL HALF WORDS, 6 SP 6
   300		037540	000001		OPDEF	PNTHWF	[37B8!13B12!1]	;PRINT OCTAL HALF WORDS, 6 SP 6 FORCED
   301		037700	000003		OPDEF	PNTOCS	[37B8!16B12!3]	;PRINT OCTAL, SUPPRESS LEADING 0'S
   302		037740	000003		OPDEF	PNTOCF	[37B8!17B12!3]	;PRINT OCTAL, SUPPRESS LEADING 0'S FORCED
   303		037640	000000		OPDEF	PNTDEC	[37B8!15B12!0]	;PRINT DECIMAL, SUPRESS LEADING 0'S
   304		037640	000001		OPDEF	PNTDCF	[37B8!15B12!1]	;PRINT DECIMAL, SUPRESS LEADING 0'S FORCED
   305		037700	000000		OPDEF	PNTDS	[37B8!16B12!0]	;PRINT DECIMAL, SPACES FOR LD 0'S
   306		037700	000001		OPDEF	PNTDSF	[37B8!16B12!1]	;PRINT DECIMAL, SPACES FOR LD 0'S FORCEDDBKAM PDP-10  KI10 BASIC INSTRUCTION DIAGNOSTIC (13) 0,2	MACRO %50A(432) 09:50  6-AUG-76 PAGE 5
PARAM	KLM	26-FEB-76		*PARAM* PROGRAM/SUBROUTINE PARAMETERS, FEB 26,1976                                 SEQ 0020

   307		037200	000002		OPDEF	PNTNM	[37B8!4B12!2]	;PRINT PROGRAM NAME
   308		037000	000002		OPDEF	PNTSIX	[37B8!0B12!2]	;PRINT SIXBIT WORD
   309		037040	000002		OPDEF	PNTSXF	[37B8!1B12!2]	;PRINT SIXBIT WORD FORCED
   310		037240	000002		OPDEF	DROPDV	[37B8!5B12!2]	;CLOSE LOGICAL FILE, USER MODE
   311		037100	000002		OPDEF	PNTCW	[37B8!2B12!2]	;PRINT DF10 CONTROL WORD
   312		037140	000002		OPDEF	PNTCWF	[37B8!3B12!2]	;PRINT DF10 CONTROL WORD FORCED
   313		037000	030242		OPDEF	PCRL	[37B8!0B12!CRLF] ;PRINT CARRIAGE RETURN/LINE FEED
   314		037040	030242		OPDEF	PCRLF	[37B8!1B12!CRLF] ;PRINT CARRIAGE RETURN/LINE FEED FORCED
   315		037000	000040		OPDEF	PSP	[37B8!0B12!40]	;PRINT SPACE
   316		037040	000040		OPDEF	PSPF	[37B8!1B12!40]	;PRINT SPACE FORCED
   317		037000	030243		OPDEF	PCRL2	[37B8!0B12!CRLF2] ;PRINT CARRIAGE RETURN/LINE FEED (TWICE)
   318		037040	030243		OPDEF	PCRL2F	[37B8!1B12!CRLF2] ;PRINT CARRIAGE RETURN/LINE FEED (TWICE) FORCED
   319		037040	000007		OPDEF	PBELL	[37B8!1B12!7]	;PRINT TTY BELL
   320
   321		037040	000026		OPDEF	PFORCE	[37B8!1B12!26]	;PRINT FORCE, CONTROL O OVERRIDE
   322
   323					DEFINE	PMSG	(ARG),<
   324						PSIXM	[SIXBIT\ARG'_\]>
   325
   326					DEFINE	PMSGF	(ARG),<
   327						PSIXMF	[SIXBIT\ARG'_\]>
   328
   329					;*SIXBTZ -- MACRO TO GENERATE SIXBIT DATA FOR PRINTING
   330					;*	CONSERVES CORE OVER ASCIZ
   331
   332					DEFINE	SIXBTZ	(ARG),<	[SIXBIT\ARG'_\]>
   333
   334					;*CONSOLE SWITCH INPUT UUO.
   335					;*READS CONSOLE SWITCHES IF IN EXEC MODE OR ASKS FOR THEM IF
   336					;* USER MODE.
   337
   338		037400	000002		OPDEF	SWITCH	[37B8!10B12!2]	;INPUT CONSOLE SWITCHES
   339
   340					;*CLOCK INITIALIZATION UUO - TO SET DESIRED CLOCK OPERATION
   341					;*EITHER IGNORE CLOCK, ONLY LET IT TICK OR CAUSE INTERRUPT TO OCCUR.
   342
   343		037540	000004		OPDEF	CLOKOP	[37B8!13B12!4]	;CLOCK OPERATION UUO - PDP-11 CLOCK
   344		037200	000004		OPDEF	MTROP	[37B8!4B12!4]	;CLOCK OPERATION UUO - DK20 METER
   345
   346					;*KL10 ONLY CACHE OPERATION UUO'S
   347
   348		037040	000004		OPDEF	CINVAL	[37B8!1B12!4]	;CACHE INVALIDATE
   349		037100	000004		OPDEF	CFLUSH	[37B8!2B12!4]	;CACHE FLUSH
   350		037140	000004		OPDEF	CWRTBI	[37B8!3B12!4]	;CACHE WRITE-BACK & INVALIDATEDBKAM PDP-10  KI10 BASIC INSTRUCTION DIAGNOSTIC (13) 0,2	MACRO %50A(432) 09:50  6-AUG-76 PAGE 6
PARAM	KLM	26-FEB-76		*PARAM* PROGRAM/SUBROUTINE PARAMETERS, FEB 26,1976                                 SEQ 0021

   351					;*END OF PASS/PROGRAM UUOS
   352
   353					;PERFORMS THE END OF PASS FUNCTIONS. INCREMENT PASS COUNT,
   354					;*DECREMENT ITERATION COUNT, CHECK IF FINISHED WITH THIS PROGRAM ETC.
   355
   356		037500	000004		OPDEF	ENDUUO	[37B8!12B12!4]	;UUO TO DISPLAY LIGHTS
   357		037700	000004		OPDEF	EOPUUO	[37B8!16B12!4]	;END OF PROGRAM UUO
   358
   359					;*MEMORY MANAGEMENT UUO'S
   360					;*UUO'S TO PERFORM VARIOUS MEMORY FUNCTIONS. MAPPING, ZEROING, PAGING,
   361					;*ADDRESS CONVERSION, ETC...
   362
   363		037000	000004		OPDEF	MAPMEM	[37B8!0B12!4]	;MAP MEMORY
   364		037500	000002		OPDEF	MEMZRO	[37B8!12B12!2]	;ZERO MEMORY
   365		037440	000002		OPDEF	MEMSEG	[37B8!11B12!2]	;SETUP MEMORY SEGMENT
   366		037540	000002		OPDEF	MAPADR	[37B8!13B12!2]	;VIRTUAL TO PHYSICAL ADR CONVERT
   367		037640	000002		OPDEF	MAPCNK	[37B8!15B12!2]	;MAP MEMORY CHUNK
   368		037600	000002		OPDEF	MAPSET	[37B8!14B12!2]	;SET KI10 EXEC PAGE MAP
   369		037740	000002		OPDEF	MAPPNT	[37B8!17B12!2]	;PRINT MEMORY MAP
   370
   371					;*DEVICE CODE MODIFICATION UUO
   372					;*ALLOWS THE MODIFICATION OF IOT'S TO ONE DEVICE TO BE CHANGED TO
   373					;*IOT'S TO A DIFFERENT DEVICE CODE.
   374
   375		037340	000002		OPDEF	MODPCU	[37B8!7B12!2]	;MODIFY PERHIPERAL CODE, USER
   376		037300	000002		OPDEF	MODPCP	[37B8!6B12!2]	;MODIFY PERHIPERAL CODE, PROGRAM
   377
   378			030000			IFNDEF	MODDVL,<MODDVL==BEGIN>
   379			030000			IFNDEF	MODDVU,<MODDVU==BEGIN>
   380
   381					;*"DIAMON" FILE SELECTION AND READ UUOS
   382
   383		037240	000004		OPDEF	FSELECT	[37B8!5B12!4]	;FILE SELECTION
   384		037300	000004		OPDEF	FREAD	[37B8!6B12!4]	;FILE READ - ASCII DATA
   385		037340	000004		OPDEF	FRD36	[37B8!7B12!4]	;FILE READ - 36 BIT DATA
   386		037400	000004		OPDEF	FRD8	[37B8!10B12!4]	;FILE READ - 8 BIT DATA
   387
   388					;*KI10 ONLY UUO FOR PRINTING MARGIN VALUES
   389
   390		037700	000002		OPDEF	PNTMGN	[37B8!16B12!2]	;PRINT MARGIN VALUE
   391
   392						XLIST
