	  9480	  9481	  9482	  9483	  9490	  9491	  9518#	  9539	  9539#	  9546	  9554	  9554#	  9561	  9579#
	  9600	  9600#	  9608	  9615	  9615#	  9623	  9639#	  9658	  9658#	  9665	  9671	  9671#	  9678	  9744#    SEQ 0408
	  9763	  9763#	  9765	  9765#	  9777	  9777#	  9779	  9800#	  9820	  9820#	  9822	  9835	  9835#	  9837
	  9859#	  9882	  9882#	  9899	  9899#	  9927#	  9945	  9945#	  9949	  9958	  9958#	  9962	  9979#	  9997
	  9997#	  9999	 10011	 10011#	 10013	 10034#	 10056	 10056#	 10058	 10058#	 10062	 10073	 10073#	 10075
	 10079	 10100#	 10118	 10118#	 10123	 10131	 10131#	 10136	 10360#	 10382	 10382#	 10393	 10399	 10399#
	 10410	 10514#	 10536	 10536#	 10543	 10552	 10552#	 10559	 10568#	 10590	 10590#	 10595	 10606	 10606#
	 10611	 10621#	 10643	 10643#	 10650	 10659	 10659#	 10666	 10721#	 10744	 10744#	 10749	 10761	 10761#
	 10766	 10787#	 10809	 10809#	 10817	 10826	 10826#	 10834	 10853#	 10875	 10875#	 10880	 10892	 10892#
	 10897	 10918#	 10940	 10940#	 10945	 10957	 10957#	 10962	 11529#	 11549	 11549#	 11551	 11551#	 11564
	 11564#	 11566	 11839#	 11858	 11858#	 11860	 11872	 11872#	 11874	 11895#	 11915	 11915#	 11918	 11930
	 11930#	 11933	 12508#	 12511	 12555#	 12575	 12575#	 12581	 12589	 12589#	 12595	 12737#	 12757	 12757#
	 12759	 12772	 12772#	 12774	 12797#	 12826	 12826#	 12832	 12849	 12849#	 12855	 12883#	 12904	 12904#
	 12909	 12919	 12919#	 12924	 12947#	 12975	 12975#	 12981	 12997	 12997#	 13003	 13029#	 13050	 13050#
	 13060	 13066	 13066#	 13076	 13220#	 13241	 13241#	 13243	 13256	 13256#	 13258	 13364#	 13386	 13386#
	 13389	 13403	 13403#	 13406	 13420	 13420#	 13423	 13437	 13437#	 13440	 13454	 13454#	 13457	 13471
	 13471#	 13474	 13488	 13488#	 13491	 13505	 13505#	 13508	 13522	 13522#	 13525	 13539	 13539#	 13542
	 13570#	 13590	 13590#	 13593	 13605	 13605#	 13608	 13620	 13620#	 13623	 13635	 13635#	 13638	 13650
	 13650#	 13653	 13762#	 13785	 13785#	 13787	 13787#	 13789	 13803	 13803#	 13805	 13807	 13821	 13821#
	 13823	 13825	 13839	 13839#	 13841	 13843	 13857	 13857#	 13859	 13861	 13888#	 13911	 13911#	 13914
	 13929	 13929#	 13932	 13947	 13947#	 13950	 13965	 13965#	 13968	 13983	 13983#	 13986	 14015#	 14035
	 14035#	 14038	 14050	 14050#	 14053	 14065	 14065#	 14068	 14080	 14080#	 14083	 14095	 14095#	 14098
	 14123#	 14139	 14139#	 14141	 14150	 14150#	 14152	 14161	 14161#	 14163	 14172	 14172#	 14174	 14183
	 14183#	 14185	 14207#	 14229	 14229#	 14231	 14246	 14246#	 14248	 14263	 14263#	 14265	 14280	 14280#
	 14282	 14297	 14297#	 14299	 15542#	 15560	 15560#	 15562	 15573	 15573#	 15575	 15586	 15586#	 15588
	 15599	 15599#	 15601	 15612	 15612#	 15614	 15625	 15625#	 15627	 15638	 15638#	 15640	 15651	 15651#
	 15653	 15664	 15664#	 15666	 15677	 15677#	 15679	 15704#	 15728	 15728#	 15730	 15730#	 15732	 15747
	 15747#	 15749	 15751	 15766	 15766#	 15768	 15770	 15785	 15785#	 15787	 15789	 15804	 15804#	 15806
	 15808	 15837#	 15858	 15858#	 15860	 15874	 15874#	 15876	 15890	 15890#	 15892	 15906	 15906#	 15908
	 15922	 15922#	 15924	 15951#	 15973	 15973#	 15975	 15990	 15990#	 15992	 16007	 16007#	 16009	 16024
	 16024#	 16026	 16041	 16041#	 16043	 16071#	 16088	 16088#	 16092	 16101	 16101#	 16105	 16114	 16114#
	 16118	 16127	 16127#	 16131	 16140	 16140#	 16144	 16166#	 16188	 16188#	 16190	 16205	 16205#	 16207
	 16222	 16222#	 16224	 16239	 16239#	 16241	 16256	 16256#	 16258	 16286#	 16308	 16308#	 16310	 16325
	 16325#	 16327	 16342	 16342#	 16344	 16359	 16359#	 16361	 16376	 16376#	 16378
YY	  6875#	  6894	  6894#	  6896	  6896#	  6899	  6910	  6911	  6930	  6930#	  6932	  6935	  6946	  6947
	  6966	  6966#	  6968	  6971	  6982	  6983	  7002	  7002#	  7004	  7007	  7018	  7019	  7038	  7038#
	  7040	  7043	  7054	  7055	  7074	  7074#	  7076	  7079	  7090	  7091	  7110	  7110#	  7112	  7115
	  7126	  7127	  7146	  7146#	  7148	  7151	  7162	  7163	  7182	  7182#	  7184	  7187	  7198	  7199
	  7218	  7218#	  7220	  7223	  7234	  7235	  7254	  7254#	  7256	  7259	  7270	  7271	  7290	  7290#
	  7292	  7295	  7306	  7307	  7326	  7326#	  7328	  7331	  7342	  7343	  7362	  7362#	  7364	  7367
	  7378	  7379	  7398	  7398#	  7400	  7403	  7414	  7415	  7434	  7434#	  7436	  7439	  7450	  7451
	  7470	  7470#	  7472	  7475	  7486	  7487	  7506	  7506#	  7508	  7511	  7522	  7523	  7542	  7542#
	  7544	  7547	  7549	  7558	  7559	  7578	  7578#	  7580	  7583	  7585	  7594	  7595	  7614	  7614#
	  7616	  7619	  7621	  7630	  7631	  7650	  7650#	  7652	  7655	  7657	  7666	  7667	  7686	  7686#
	  7688	  7691	  7693	  7702	  7703	  7722	  7722#	  7724	  7727	  7729	  7738	  7739	  7758	  7758#
	  7760	  7763	  7765	  7774	  7775	  7794	  7794#	  7796	  7799	  7801	  7810	  7811	  7830	  7830#
	  7832	  7835	  7837	  7846	  7847	  7866	  7866#	  7868	  7871	  7873	  7882	  7883	  7902	  7902#
	  7904	  7907	  7909	  7918	  7919	  7938	  7938#	  7940	  7943	  7945	  7954	  7955	  7974	  7974#
	  7976	  7979	  7981	  7990	  7991	  8010	  8010#	  8012	  8015	  8017	  8026	  8027	  8046	  8046#
	  8048	  8051	  8053	  8062	  8063	  8082	  8082#	  8084	  8087	  8089	  8098	  8099	  8118	  8118#
	  8120	  8123	  8125	  8134	  8135	  8154	  8154#	  8156	  8159	  8161	  8170	  8171	  8195#	  8214
	  8214#	  8216	  8216#	  8219	  8234	  8235	  8243	  8244	  8250	  8250#	  8252	  8255	  8270	  8271
	  8279	  8280	  8286	  8286#	  8288	  8291	  8306	  8307	  8315	  8316	  8322	  8322#	  8324	  8327	  8342	  8343	  8351	  8352	  8358	  8358#	  8360	  8363	  8378	  8379	  8387	  8388	  8394	  8394#
	  8396	  8399	  8414	  8415	  8423	  8424	  8430	  8430#	  8432	  8435	  8450	  8451	  8459	  8460     SEQ 0409
	  8466	  8466#	  8468	  8471	  8486	  8487	  8495	  8496	  8502	  8502#	  8504	  8507	  8522	  8523
	  8531	  8532	  8538	  8538#	  8540	  8543	  8558	  8559	  8567	  8568	  8574	  8574#	  8576	  8579
	  8594	  8595	  8603	  8604	  8610	  8610#	  8612	  8615	  8630	  8631	  8639	  8640	  8646	  8646#
	  8648	  8651	  8666	  8667	  8675	  8676	  8682	  8682#	  8684	  8687	  8702	  8703	  8711	  8712
	  8718	  8718#	  8720	  8723	  8738	  8739	  8747	  8748	  8754	  8754#	  8756	  8759	  8774	  8775
	  8783	  8784	  8790	  8790#	  8792	  8795	  8810	  8811	  8819	  8820	  8826	  8826#	  8828	  8831
	  8846	  8847	  8855	  8856	  8862	  8862#	  8864	  8867	  8869	  8882	  8883	  8891	  8892	  8898
	  8898#	  8900	  8903	  8905	  8918	  8919	  8927	  8928	  8934	  8934#	  8936	  8939	  8941	  8954
	  8955	  8963	  8964	  8970	  8970#	  8972	  8975	  8977	  8990	  8991	  8999	  9000	  9006	  9006#
	  9008	  9011	  9013	  9026	  9027	  9035	  9036	  9042	  9042#	  9044	  9047	  9049	  9062	  9063
	  9071	  9072	  9078	  9078#	  9080	  9083	  9085	  9098	  9099	  9107	  9108	  9114	  9114#	  9116
	  9119	  9121	  9134	  9135	  9143	  9144	  9150	  9150#	  9152	  9155	  9157	  9170	  9171	  9179
	  9180	  9186	  9186#	  9188	  9191	  9193	  9206	  9207	  9215	  9216	  9222	  9222#	  9224	  9227
	  9229	  9242	  9243	  9251	  9252	  9258	  9258#	  9260	  9263	  9265	  9278	  9279	  9287	  9288
	  9294	  9294#	  9296	  9299	  9301	  9314	  9315	  9323	  9324	  9330	  9330#	  9332	  9335	  9337
	  9350	  9351	  9359	  9360	  9366	  9366#	  9368	  9371	  9373	  9386	  9387	  9395	  9396	  9402
	  9402#	  9404	  9407	  9409	  9422	  9423	  9431	  9432	  9438	  9438#	  9440	  9443	  9445	  9458
	  9459	  9467	  9468	  9474	  9474#	  9476	  9479	  9481	  9494	  9495	  9503	  9504	  9519#	  9540
	  9540#	  9541	  9541#	  9548	  9555	  9555#	  9556	  9563	  9860#	  9883	  9883#	  9892	  9900	  9900#
	  9909	 12798#	 12827	 12827#	 12833	 12850	 12850#	 12856	 12884#	 12905	 12905#	 12911	 12920	 12920#
	 12926
ZZ	  9520#	  9542	  9542#	  9543	  9557	  9557#	  9558	  9580#	  9601	  9601#	  9604	  9616	  9616#	  9619
	  9640#	  9659	  9659#	  9660	  9663	  9672	  9672#	  9673	  9676	  9693#	  9710	  9710#	  9712	  9722
	  9722#	  9724	  9745#	  9764	  9764#	  9766	  9778	  9778#	  9780	  9801#	  9821	  9821#	  9823	  9836
	  9836#	  9838	  9861#	  9884	  9884#	  9885	  9885#	  9886	  9887	  9901	  9901#	  9902	  9903	  9904
	  9926#	  9944	  9944#	  9947	  9957	  9957#	  9960	  9980#	  9998	  9998#	 10000	 10012	 10012#	 10014
	 10035#	 10057	 10057#	 10059	 10059#	 10063	 10074	 10074#	 10076	 10080	 10101#	 10119	 10119#	 10121
	 10132	 10132#	 10134	 10220#	 10241	 10241#	 10245	 10251	 10257	 10257#	 10261	 10267	 10273#	 10288
	 10288#	 10290	 10298	 10298#	 10300	 10308#	 10324	 10324#	 10327	 10335	 10335#	 10338	 10361#	 10383
	 10383#	 10387	 10400	 10400#	 10404	 10467#	 10481	 10481#	 10483	 10491	 10491#	 10493	 10515#	 10537
	 10537#	 10540	 10553	 10553#	 10556	 10569#	 10591	 10591#	 10594	 10607	 10607#	 10610	 10622#	 10644
	 10644#	 10647	 10660	 10660#	 10663	 10675#	 10694	 10694#	 10697	 10708	 10708#	 10711	 10722#	 10745
	 10745#	 10748	 10762	 10762#	 10765	 10788#	 10810	 10810#	 10811	 10811#	 10814	 10827	 10827#	 10828
	 10831	 10854#	 10876	 10876#	 10879	 10893	 10893#	 10896	 10919#	 10941	 10941#	 10943	 10958	 10958#
	 10960	 11002#	 11018	 11018#	 11021	 11029	 11029#	 11032	 11048#	 11065	 11065#	 11066	 11067	 11072
	 11078	 11078#	 11079	 11080	 11085	 11102#	 11116	 11116#	 11117	 11126	 11126#	 11127	 11153#	 11177
	 11177#	 11178	 11178#	 11180	 11181	 11196	 11196#	 11197	 11199	 11200	 11235#	 11248	 11248#	 11249
	 11258	 11258#	 11259	 11278#	 11302	 11302#	 11304	 11305	 11309	 11311	 11321	 11321#	 11323	 11324
	 11328	 11330	 11350#	 11371	 11371#	 11373	 11374	 11388	 11388#	 11390	 11391	 11414#	 11435	 11435#
	 11437	 11443	 11452	 11452#	 11454	 11460	 11480#	 11496	 11496#	 11497	 11500	 11508	 11508#	 11509
	 11512	 11530#	 11550	 11550#	 11553	 11554	 11565	 11565#	 11568	 11569	 11588#	 11605	 11605#	 11606
	 11607	 11618	 11618#	 11619	 11620	 11644#	 11661	 11661#	 11663	 11666	 11674	 11674#	 11676	 11679
	 11698#	 11714	 11714#	 11715	 11718	 11726	 11726#	 11727	 11730	 11738#	 11756	 11756#	 11757	 11757#
	 11758	 11759	 11770	 11770#	 11771	 11772	 11773	 11794#	 11808	 11808#	 11810	 11812	 11818	 11818#
	 11820	 11822	 11840#	 11859	 11859#	 11861	 11873	 11873#	 11875	 11896#	 11916	 11916#	 11917	 11917#
	 11919	 11931	 11931#	 11932	 11934	 11947#	 11963	 11963#	 11964	 11969	 11975	 11975#	 11976	 11981
	 11996#	 12012	 12012#	 12013	 12016	 12024	 12024#	 12025	 12028	 12045#	 12062	 12062#	 12063	 12064
	 12075	 12075#	 12076	 12077	 12100#	 12118	 12118#	 12119	 12120	 12132	 12132#	 12133	 12134	 12155#
	 12173	 12173#	 12175	 12180	 12187	 12187#	 12189	 12194	 12210#	 12227	 12227#	 12228	 12229	 12240
	 12240#	 12241	 12242	 12267#	 12284	 12284#	 12285	 12286	 12296	 12296#	 12297	 12298	 12313#	 12337
	 12337#	 12345	 12351	 12360	 12360#	 12368	 12374	 12395#	 12413	 12413#	 12414	 12415	 12420	 12426	 12426#	 12427	 12428	 12433	 12451#	 12469	 12469#	 12471	 12482	 12482#	 12484	 12507#	 12513	 12556#
	 12576	 12576#	 12577	 12590	 12590#	 12591	 12613#	 12636	 12636#	 12638	 12640	 12647	 12655	 12655#    SEQ 0410
	 12657	 12659	 12666	 12687#	 12703	 12703#	 12707	 12715	 12715#	 12719	 12738#	 12758	 12758#	 12761
	 12773	 12773#	 12776	 12799#	 12828	 12828#	 12831	 12851	 12851#	 12854	 12885#	 12906	 12906#	 12907
	 12921	 12921#	 12922	 12948#	 12976	 12976#	 12979	 12998	 12998#	 13001	 13030#	 13051	 13051#	 13053
	 13067	 13067#	 13069	 13093#	 13112	 13112#	 13113	 13113#	 13115	 13117	 13127	 13127#	 13128	 13130
	 13132	 13148#	 13170	 13170#	 13180	 13190	 13190#	 13200	 13221#	 13242	 13242#	 13244	 13245	 13257
	 13257#	 13259	 13260	 13283#	 13301	 13301#	 13302	 13314	 13314#	 13315	 13365#	 13387	 13387#	 13388
	 13388#	 13390	 13404	 13404#	 13405	 13407	 13421	 13421#	 13422	 13424	 13438	 13438#	 13439	 13441
	 13455	 13455#	 13456	 13458	 13472	 13472#	 13473	 13475	 13489	 13489#	 13490	 13492	 13506	 13506#
	 13507	 13509	 13523	 13523#	 13524	 13526	 13540	 13540#	 13541	 13543	 13571#	 13591	 13591#	 13592
	 13592#	 13594	 13598	 13606	 13606#	 13607	 13609	 13613	 13621	 13621#	 13622	 13624	 13628	 13636
	 13636#	 13637	 13639	 13643	 13651	 13651#	 13652	 13654	 13658	 13678#	 13693	 13693#	 13694	 13694#
	 13696	 13704	 13704#	 13705	 13707	 13715	 13715#	 13716	 13718	 13726	 13726#	 13727	 13729	 13737
	 13737#	 13738	 13740	 13763#	 13786	 13786#	 13788	 13788#	 13790	 13804	 13804#	 13806	 13808	 13822
	 13822#	 13824	 13826	 13840	 13840#	 13842	 13844	 13858	 13858#	 13860	 13862	 13889#	 13912	 13912#
	 13913	 13913#	 13915	 13921	 13930	 13930#	 13931	 13933	 13939	 13948	 13948#	 13949	 13951	 13957
	 13966	 13966#	 13967	 13969	 13975	 13984	 13984#	 13985	 13987	 13993	 14016#	 14036	 14036#	 14037
	 14039	 14040	 14044	 14051	 14051#	 14052	 14054	 14055	 14059	 14066	 14066#	 14067	 14069	 14070
	 14074	 14081	 14081#	 14082	 14084	 14085	 14089	 14096	 14096#	 14097	 14099	 14100	 14104	 14124#
	 14140	 14140#	 14143	 14151	 14151#	 14154	 14162	 14162#	 14165	 14173	 14173#	 14176	 14184	 14184#
	 14187	 14208#	 14230	 14230#	 14232	 14233	 14238	 14247	 14247#	 14249	 14250	 14255	 14264	 14264#
	 14266	 14267	 14272	 14281	 14281#	 14283	 14284	 14289	 14298	 14298#	 14300	 14301	 14306	 14327#
	 14344	 14344#	 14345	 14345#	 14347	 14357	 14357#	 14358	 14360	 14370	 14370#	 14371	 14373	 14383
	 14383#	 14384	 14386	 14396	 14396#	 14397	 14399	 14425#	 14442	 14442#	 14443	 14443#	 14444	 14445
	 14455	 14455#	 14456	 14457	 14458	 14468	 14468#	 14469	 14470	 14471	 14481	 14481#	 14482	 14483
	 14484	 14494	 14494#	 14495	 14496	 14497	 14507	 14507#	 14508	 14509	 14510	 14520	 14520#	 14521
	 14522	 14523	 14533	 14533#	 14534	 14535	 14536	 14546	 14546#	 14547	 14548	 14549	 14559	 14559#
	 14560	 14561	 14562	 14572	 14572#	 14573	 14574	 14575	 14585	 14585#	 14586	 14587	 14588	 14598
	 14598#	 14599	 14600	 14601	 14611	 14611#	 14612	 14613	 14614	 14624	 14624#	 14625	 14626	 14627
	 14637	 14637#	 14638	 14639	 14640	 14650	 14650#	 14651	 14652	 14653	 14663	 14663#	 14664	 14665
	 14666	 14675#	 14692	 14692#	 14693	 14693#	 14694	 14695	 14705	 14705#	 14706	 14707	 14708	 14718
	 14718#	 14719	 14720	 14721	 14731	 14731#	 14732	 14733	 14734	 14744	 14744#	 14745	 14746	 14747
	 14757	 14757#	 14758	 14759	 14760	 14770	 14770#	 14771	 14772	 14773	 14783	 14783#	 14784	 14785
	 14786	 14796	 14796#	 14797	 14798	 14799	 14809	 14809#	 14810	 14811	 14812	 14822	 14822#	 14823
	 14824	 14825	 14835	 14835#	 14836	 14837	 14838	 14848	 14848#	 14849	 14850	 14851	 14861	 14861#
	 14862	 14863	 14864	 14874	 14874#	 14875	 14876	 14877	 14887	 14887#	 14888	 14889	 14890	 14900
	 14900#	 14901	 14902	 14903	 14929#	 14949	 14949#	 14950	 14950#	 14951	 14952	 14965	 14965#	 14966
	 14967	 14968	 14981	 14981#	 14982	 14983	 14984	 14997	 14997#	 14998	 14999	 15000	 15013	 15013#
	 15014	 15015	 15016	 15029	 15029#	 15030	 15031	 15032	 15045	 15045#	 15046	 15047	 15048	 15061
	 15061#	 15062	 15063	 15064	 15077	 15077#	 15078	 15079	 15080	 15093	 15093#	 15094	 15095	 15096
	 15109	 15109#	 15110	 15111	 15112	 15125	 15125#	 15126	 15127	 15128	 15141	 15141#	 15142	 15143
	 15144	 15157	 15157#	 15158	 15159	 15160	 15173	 15173#	 15174	 15175	 15176	 15189	 15189#	 15190
	 15191	 15192	 15205	 15205#	 15206	 15207	 15208	 15221	 15221#	 15222	 15223	 15224	 15236#	 15256
	 15256#	 15257	 15257#	 15258	 15259	 15272	 15272#	 15273	 15274	 15275	 15288	 15288#	 15289	 15290
	 15291	 15304	 15304#	 15305	 15306	 15307	 15320	 15320#	 15321	 15322	 15323	 15336	 15336#	 15337
	 15338	 15339	 15352	 15352#	 15353	 15354	 15355	 15368	 15368#	 15369	 15370	 15371	 15384	 15384#
	 15385	 15386	 15387	 15400	 15400#	 15401	 15402	 15403	 15416	 15416#	 15417	 15418	 15419	 15432
	 15432#	 15433	 15434	 15435	 15448	 15448#	 15449	 15450	 15451	 15464	 15464#	 15465	 15466	 15467
	 15480	 15480#	 15481	 15482	 15483	 15496	 15496#	 15497	 15498	 15499	 15512	 15512#	 15513	 15514
	 15515	 15543#	 15561	 15561#	 15563	 15574	 15574#	 15576	 15587	 15587#	 15589	 15600	 15600#	 15602
	 15613	 15613#	 15615	 15626	 15626#	 15628	 15639	 15639#	 15641	 15652	 15652#	 15654	 15665	 15665#
	 15667	 15678	 15678#	 15680	 15705#	 15729	 15729#	 15731	 15731#	 15733	 15739	 15748	 15748#	 15750	 15752	 15758	 15767	 15767#	 15769	 15771	 15777	 15786	 15786#	 15788	 15790	 15796	 15805	 15805#
	 15807	 15809	 15815	 15838#	 15859	 15859#	 15861	 15875	 15875#	 15877	 15891	 15891#	 15893	 15907     SEQ 0411
	 15907#	 15909	 15923	 15923#	 15925	 15952#	 15974	 15974#	 15976	 15991	 15991#	 15993	 16008	 16008#
	 16010	 16025	 16025#	 16027	 16042	 16042#	 16044	 16072#	 16089	 16089#	 16091	 16102	 16102#	 16104
	 16115	 16115#	 16117	 16128	 16128#	 16130	 16141	 16141#	 16143	 16167#	 16189	 16189#	 16191	 16197
	 16206	 16206#	 16208	 16214	 16223	 16223#	 16225	 16231	 16240	 16240#	 16242	 16248	 16257	 16257#
	 16259	 16265	 16287#	 16309	 16309#	 16311	 16312	 16319	 16326	 16326#	 16328	 16329	 16336	 16343
	 16343#	 16345	 16346	 16353	 16360	 16360#	 16362	 16363	 16370	 16377	 16377#	 16379	 16380	 16387
$$MUUO	   646#
$$OUTE	   652#
$$TAX1	   664#
$$TAX2	   665#
$$TOGG	   658#
$$UUO	   635#
$ACC0	   473#
$ACF	 16505#
$BEND1	   443#
$BEND2	   444#	 16547
$CHRIN	   534#
$CRLF	   536#
$DEVCH	   360#
$DSKUP	   413#
$DVCH1	   360#
$DVOFF	   530#
$EMODE	   411#
$ENDFX	   680#	   681
$FFF	   538#
$IBUF	   586#
$INEXT	   588#
$INNM	   587#
$ITRHL	   454#
$ITRX1	   455#
$LPAPE	 16568
$MMAP	   414#
$MODVL	   409#
$MODVU	   410#
$OBUF	   577#
$ONETM	   437#
$OUTEX	   579#
$OUTNM	   578#
$PAPER	   360
$PARER	   461#
$PNAME	   407#
$PSHER	   465#
$PVER	   408#
$RSRTX	   457#
$RSRTY	   458#
$SPAG1	   477#
$START	   374#
$SVAPR	   475#
$SVPAG	   476#
$SVPI	   474#
$SVUPC	   480#	 16408	 16412	 16442$SVUUO	   479#	 16421	 16453	 16481
$TABF	   537#                                                                                                            SEQ 0412
$TTCHR	   533#
$TWCNT	   529#
$TYPNB	   535#
$UMODE	   412#
$UORTX	   452#
$USRHL	   456#
$UUOER	   453#	   494
$VTF	   539#
%AC1F	 16506#
%ACS1A	 16423#	 16423	 16467
%ACTFL	   486#
%ACTUL	   487#
%ALF	 16511#
%AR1F	 16510#
%ARF	 16509#
%COREC	   485#
%CORFL	   484#
%DISCR	   488#
%E1F	 16508#
%EEF	 16512#
%EF	 16507#
%ER4X	 16487	 16492#
%ER5X	 16485	 16494#
%ER6X	 16483	 16496#
%ER7X	 16489#	 16493	 16495	 16497
%ERAC0	 16397#	 16397	 16424	 16458	 16549
%ERAC1	 16405#	 16405	 16425	 16537
%ERAC2	 16406#	 16406	 16536
%ERFST	 16431#	 16431	 16433
%ERHI1	   627#
%ERHI2	   628#
%ERHI3	   629#
%ERMOR	 16463	 16490	 16519#
%ERMS1	 16428#	 16562
%ERMS2	 16451#
%ERMS3	 16469	 16476#
%ERRS1	 16420	 16523#	 16561
%ERRS2	 16536#
%ERRS4	 16427	 16559#
%ERRS5	 16540	 16544	 16549#
%FF	 16513#
%FLTTB	 16471	 16502#
%NODES	 16503#
.JB41	   360#
.JBAPR	   360#
.JBCNI	   360#
.JBDDT	   360#
.JBFF	   360#
.JBOPC	   360#
.JBREL	   360#
.JBREN	   360#CFLUSH	   316#
CINVAL	   315#                                                                                                            SEQ 0414
CLOKOP	   310#
CWRTBI	   317#
DROPDV	   277#	   685
ENDUUO	   323#	   442
EOPUUO	   324#	   444
ER1	    33#
ER10	    40#
ER11	    41#
ER12	    42#
ER13	    43#	 10430	 10451	 10547	 10563	 10601	 10617	 10654	 10670	 10703	 10717	 10756	 10773	 10821
	 10838	 10887	 10904	 10952	 10969	 10983	 11186	 11205	 11314	 11316	 11333	 11335	 11383	 11400
	 11447	 11464	 12355	 12378	 12536	 12538	 12644	 12646	 12663	 12665	 12842	 12844	 12865	 12867
	 12985	 12987	 13007	 13009	 13059	 13075	 13122	 13137	 13184	 13204	 13341	 13343
ER2	    34#
ER3	    35#	   760	   794	   828	   862	   896	   930	   964	   998	  1032	  1066	  1100	  1134	  1168
	  1202	  1236	  1270	  1304	  1338	  1372	  1406	  1440	  1474	  1508	  1542	  1576	  1610	  1644
	  1678	  1712	  1746	  1780	  1814	  1848	  1882	  1916	  1950	  2007	  2041	  2075	  2109	  2143
	  2177	  2211	  2245	  2279	  2313	  2347	  2381	  2415	  2449	  2483	  2517	  2551	  2585	  2619
	  2653	  2687	  2721	  2755	  2789	  2823	  2857	  2891	  2925	  2959	  2993	  3027	  3061	  3095
	  3129	  3163	  3197	  3253	  3287	  3321	  3355	  3389	  3423	  3457	  3491	  3525	  3559	  3593
	  3627	  3661	  3695	  3729	  3763	  3797	  3831	  3865	  3899	  3933	  3967	  4001	  4035	  4069
	  4103	  4137	  4171	  4205	  4239	  4273	  4307	  4341	  4375	  4409	  4443	  4494	  4526	  4558
	  4590	  4622	  4654	  4686	  4718	  4750	  4782	  4814	  4846	  4878	  4910	  4942	  4974	  5006
	  5038	  5070	  5102	  5134	  5166	  5198	  5230	  5262	  5294	  5326	  5358	  5390	  5422	  5454
	  5486	  5518	  5550	  5582	  5614	  5669	  5703	  5737	  5771	  5805	  5839	  5873	  5907	  5941
	  5975	  6009	  6043	  6077	  6111	  6145	  6179	  6213	  6247	  6281	  6315	  6349	  6383	  6417
	  6451	  6485	  6519	  6553	  6587	  6621	  6655	  6689	  6723	  6757	  6791	  6825	  6859	  6919
	  6955	  6991	  7027	  7063	  7099	  7135	  7171	  7207	  7243	  7279	  7315	  7351	  7387	  7423
	  7459	  7495	  7531	  7567	  7603	  7639	  7675	  7711	  7747	  7783	  7819	  7855	  7891	  7927
	  7963	  7999	  8035	  8071	  8107	  8143	  8179	  8239	  8275	  8311	  8347	  8383	  8419	  8455
	  8491	  8527	  8563	  8599	  8635	  8671	  8707	  8743	  8779	  8815	  8851	  8887	  8923	  8959
	  8995	  9031	  9067	  9103	  9139	  9175	  9211	  9247	  9283	  9319	  9355	  9391	  9427	  9463
	  9499	  9547	  9562	  9610	  9625	  9666	  9679	  9717	  9729	  9772	  9786	  9830	  9845	  9894
	  9911	  9950	  9963	 10006	 10020	 10066	 10083	 10124	 10137	 10182	 10201	 10248	 10264	 10293
	 10303	 10390	 10407	 10426	 10445	 10486	 10496	 10544	 10560	 10599	 10615	 10651	 10667	 10701
	 10715	 10753	 10770	 10818	 10835	 10884	 10901	 10949	 10966	 10979	 11024	 11035	 11071	 11084
	 11121	 11131	 11188	 11207	 11220	 11310	 11329	 11378	 11395	 11442	 11459	 11501	 11513	 11557
	 11572	 11611	 11624	 11667	 11680	 11719	 11731	 11763	 11777	 11813	 11823	 11867	 11881	 11925
	 11940	 11968	 11980	 12017	 12029	 12068	 12081	 12124	 12138	 12182	 12196	 12233	 12246	 12289
	 12301	 12350	 12373	 12419	 12432	 12475	 12488	 12517	 12530	 12582	 12596	 12648	 12667	 12767
	 12782	 12837	 12860	 12912	 12927	 12989	 13011	 13061	 13077	 13251	 13266	 13307	 13320	 13335
	 13396	 13413	 13430	 13447	 13464	 13481	 13498	 13515	 13532	 13549	 13597	 13612	 13627	 13642
	 13657	 13794	 13812	 13830	 13848	 13866	 13922	 13940	 13958	 13976	 13994	 14043	 14058	 14073
	 14088	 14103	 14145	 14156	 14167	 14178	 14189	 14239	 14256	 14273	 14290	 14307	 14350	 14363
	 14376	 14389	 14402	 14448	 14461	 14474	 14487	 14500	 14513	 14526	 14539	 14552	 14565	 14578
	 14591	 14604	 14617	 14630	 14643	 14656	 14669	 14698	 14711	 14724	 14737	 14750	 14763	 14776
	 14789	 14802	 14815	 14828	 14841	 14854	 14867	 14880	 14893	 14906	 14956	 14972	 14988	 15004
	 15020	 15036	 15052	 15068	 15084	 15100	 15116	 15132	 15148	 15164	 15180	 15196	 15212	 15228
	 15263	 15279	 15295	 15311	 15327	 15343	 15359	 15375	 15391	 15407	 15423	 15439	 15455	 15471
	 15487	 15503	 15519	 15566	 15579	 15592	 15605	 15618	 15631	 15644	 15657	 15670	 15683	 15740
	 15759	 15778	 15797	 15816	 15865	 15881	 15897	 15913	 15929	 15981	 15998	 16015	 16032	 16049	 16094	 16107	 16120	 16133	 16146	 16198	 16215	 16232	 16249	 16266	 16316	 16333	 16350	 16367
	 16384                                                                                                             SEQ 0415
ER4	    36#	   763	   797	   831	   865	   899	   933	   967	  1001	  1035	  1069	  1103	  1137	  1171
	  1205	  1239	  1273	  1307	  1341	  1375	  1409	  1443	  1477	  1511	  1545	  1579	  1613	  1647
	  1681	  1715	  1749	  1783	  1817	  1851	  1885	  1919	  1953	  2010	  2044	  2078	  2112	  2146
	  2180	  2214	  2248	  2282	  2316	  2350	  2384	  2418	  2452	  2486	  2520	  2554	  2588	  2622
	  2656	  2690	  2724	  2758	  2792	  2826	  2860	  2894	  2928	  2962	  2996	  3030	  3064	  3098
	  3132	  3166	  3200	  3256	  3290	  3324	  3358	  3392	  3426	  3460	  3494	  3528	  3562	  3596
	  3630	  3664	  3698	  3732	  3766	  3800	  3834	  3868	  3902	  3936	  3970	  4004	  4038	  4072
	  4106	  4140	  4174	  4208	  4242	  4276	  4310	  4344	  4378	  4412	  4446	  4497	  4529	  4561
	  4593	  4625	  4657	  4689	  4721	  4753	  4785	  4817	  4849	  4881	  4913	  4945	  4977	  5009
	  5041	  5073	  5105	  5137	  5169	  5201	  5233	  5265	  5297	  5329	  5361	  5393	  5425	  5457
	  5489	  5521	  5553	  5585	  5617	  5672	  5706	  5740	  5774	  5808	  5842	  5876	  5910	  5944
	  5978	  6012	  6046	  6080	  6114	  6148	  6182	  6216	  6250	  6284	  6318	  6352	  6386	  6420
	  6454	  6488	  6522	  6556	  6590	  6624	  6658	  6692	  6726	  6760	  6794	  6828	  6862	  6922
	  6958	  6994	  7030	  7066	  7102	  7138	  7174	  7210	  7246	  7282	  7318	  7354	  7390	  7426
	  7462	  7498	  7534	  7570	  7606	  7642	  7678	  7714	  7750	  7786	  7822	  7858	  7894	  7930
	  7966	  8002	  8038	  8074	  8110	  8146	  8182	  8242	  8278	  8314	  8350	  8386	  8422	  8458
	  8494	  8530	  8566	  8602	  8638	  8674	  8710	  8746	  8782	  8818	  8854	  8890	  8926	  8962
	  8998	  9034	  9070	  9106	  9142	  9178	  9214	  9250	  9286	  9322	  9358	  9394	  9430	  9466
	  9502	  9549	  9564	  9607	  9622	  9664	  9677	  9715	  9727	  9770	  9784	  9827	  9842	  9891
	  9908	  9952	  9965	 10004	 10018	 10068	 10085	 10126	 10139	 10180	 10199	 10250	 10266	 10330
	 10341	 10392	 10409	 10428	 10447	 11190	 11209	 11253	 11263	 11312	 11331	 11380	 11397	 11444
	 11461	 11503	 11515	 11559	 11574	 11613	 11626	 11669	 11682	 11721	 11733	 11765	 11779	 11865
	 11879	 11923	 11938	 11970	 11982	 12019	 12031	 12070	 12083	 12127	 12141	 12179	 12193	 12235
	 12248	 12291	 12303	 12352	 12375	 12477	 12490	 12519	 12532	 12584	 12598	 12650	 12669	 12710
	 12722	 12765	 12780	 12839	 12862	 12914	 12929	 12991	 13013	 13309	 13322	 13337	 13394	 13411
	 13428	 13445	 13462	 13479	 13496	 13513	 13530	 13547	 13600	 13615	 13630	 13645	 13660	 13798
	 13816	 13834	 13852	 13870	 13924	 13942	 13960	 13978	 13996	 14241	 14258	 14275	 14292	 14309
	 14450	 14463	 14476	 14489	 14502	 14515	 14528	 14541	 14554	 14567	 14580	 14593	 14606	 14619
	 14632	 14645	 14658	 14671	 14700	 14713	 14726	 14739	 14752	 14765	 14778	 14791	 14804	 14817
	 14830	 14843	 14856	 14869	 14882	 14895	 14908	 14958	 14974	 14990	 15006	 15022	 15038	 15054
	 15070	 15086	 15102	 15118	 15134	 15150	 15166	 15182	 15198	 15214	 15230	 15265	 15281	 15297
	 15313	 15329	 15345	 15361	 15377	 15393	 15409	 15425	 15441	 15457	 15473	 15489	 15505	 15521
	 15568	 15581	 15594	 15607	 15620	 15633	 15646	 15659	 15672	 15685	 15742	 15761	 15780	 15799
	 15818	 15869	 15885	 15901	 15917	 15933	 15983	 16000	 16017	 16034	 16051	 16096	 16109	 16122
	 16135	 16148	 16200	 16217	 16234	 16251	 16268	 16320	 16337	 16354	 16371	 16388
ER5	    37#	   766	   800	   834	   868	   902	   936	   970	  1004	  1038	  1072	  1106	  1140	  1174
	  1208	  1242	  1276	  1310	  1344	  1378	  1412	  1446	  1480	  1514	  1548	  1582	  1616	  1650
	  1684	  1718	  1752	  1786	  1820	  1854	  1888	  1922	  1956	  2013	  2047	  2081	  2115	  2149
	  2183	  2217	  2251	  2285	  2319	  2353	  2387	  2421	  2455	  2489	  2523	  2557	  2591	  2625
	  2659	  2693	  2727	  2761	  2795	  2829	  2863	  2897	  2931	  2965	  2999	  3033	  3067	  3101
	  3135	  3169	  3203	  3259	  3293	  3327	  3361	  3395	  3429	  3463	  3497	  3531	  3565	  3599
	  3633	  3667	  3701	  3735	  3769	  3803	  3837	  3871	  3905	  3939	  3973	  4007	  4041	  4075
	  4109	  4143	  4177	  4211	  4245	  4279	  4313	  4347	  4381	  4415	  4449	  4500	  4532	  4564
	  4596	  4628	  4660	  4692	  4724	  4756	  4788	  4820	  4852	  4884	  4916	  4948	  4980	  5012
	  5044	  5076	  5108	  5140	  5172	  5204	  5236	  5268	  5300	  5332	  5364	  5396	  5428	  5460
	  5492	  5524	  5556	  5588	  5620	  5675	  5709	  5743	  5777	  5811	  5845	  5879	  5913	  5947
	  5981	  6015	  6049	  6083	  6117	  6151	  6185	  6219	  6253	  6287	  6321	  6355	  6389	  6423
	  6457	  6491	  6525	  6559	  6593	  6627	  6661	  6695	  6729	  6763	  6797	  6831	  6865	  6925
	  6961	  6997	  7033	  7069	  7105	  7141	  7177	  7213	  7249	  7285	  7321	  7357	  7393	  7429
	  7465	  7501	  7537	  7573	  7609	  7645	  7681	  7717	  7753	  7789	  7825	  7861	  7897	  7933
	  7969	  8005	  8041	  8077	  8113	  8149	  8185	  8245	  8281	  8317	  8353	  8389	  8425	  8461	  8497	  8533	  8569	  8605	  8641	  8677	  8713	  8749	  8785	  8821	  8857	  8893	  8929	  8965
	  9001	  9037	  9073	  9109	  9145	  9181	  9217	  9253	  9289	  9325	  9361	  9397	  9433	  9469     SEQ 0416
	  9505	 10252	 10268	 10394	 10411	 10449	 10981	 11073	 11086	 12421	 12434	 12534	 13249	 13264
	 13339	 13398	 13415	 13432	 13449	 13466	 13483	 13500	 13517	 13534	 13551	 13699	 13710	 13721
	 13732	 13743	 13796	 13814	 13832	 13850	 13868	 13920	 13938	 13956	 13974	 13992	 14045	 14060
	 14075	 14090	 14105	 14237	 14254	 14271	 14288	 14305	 14352	 14365	 14378	 14391	 14404	 14960
	 14976	 14992	 15008	 15024	 15040	 15056	 15072	 15088	 15104	 15120	 15136	 15152	 15168	 15184
	 15200	 15216	 15232	 15267	 15283	 15299	 15315	 15331	 15347	 15363	 15379	 15395	 15411	 15427
	 15443	 15459	 15475	 15491	 15507	 15523	 15738	 15757	 15776	 15795	 15814	 15867	 15883	 15899
	 15915	 15931	 15985	 16002	 16019	 16036	 16053	 16196	 16213	 16230	 16247	 16264	 16318	 16335
	 16352	 16369	 16386
ER6	    38#
ER7	    39#
ERRHLT	   212#	 16530
FATAL	   211#
FRD36	   352#
FRD8	   353#
FREAD	   351#
FSELEC	   350#
GET	   195#
GO	   192#
HALT	   197#	   463
JEN	   199#
JRSTF	   198#	 10420	 10439	 10464	 10538	 10554	 10592	 10608	 10645	 10661	 10695	 10709	 10746	 10763
	 10812	 10829	 10877	 10894	 10942	 10959	 10973	 10999	 11179	 11192	 11198	 11211	 11303	 11322
	 11372	 11389	 11436	 11453	 11477	 12344	 12367	 12392	 12523	 12552	 12637	 12656	 12684	 12829
	 12852	 12880	 12977	 12999	 13052	 13068	 13114	 13129	 13176	 13196	 13217	 13328
MAPADR	   333#
MAPCNK	   334#
MAPMEM	   330#
MAPPNT	   336#
MAPSET	   335#
MEMSEG	   332#
MEMZRO	   331#
MODPCP	   343#
MODPCU	   342#
MOP1	    98#	   745	   779	   813	   847	   881	   915	   949	   983	  1017	  1051	  1085	  1119	  1153
	  1187	  1221	  1255	  1289	  1323	  1357	  1391	  1425	  1459	  1493	  1527	  1561	  1595	  1629
	  1663	  1697	  1731	  1765	  1799	  1833	  1867	  1901	  1935	  1992	  2026	  2060	  2094	  2128
	  2162	  2196	  2230	  2264	  2298	  2332	  2366	  2400	  2434	  2468	  2502	  2536	  2570	  2604
	  2638	  2672	  2706	  2740	  2774	  2808	  2842	  2876	  2910	  2944	  2978	  3012	  3046	  3080
	  3114	  3148	  3182	  3238	  3272	  3306	  3340	  3374	  3408	  3442	  3476	  3510	  3544	  3578
	  3612	  3646	  3680	  3714	  3748	  3782	  3816	  3850	  3884	  3918	  3952	  3986	  4020	  4054
	  4088	  4122	  4156	  4190	  4224	  4258	  4292	  4326	  4360	  4394	  4428	  4479	  4511	  4543
	  4575	  4607	  4639	  4671	  4703	  4735	  4767	  4799	  4831	  4863	  4895	  4927	  4959	  4991
	  5023	  5055	  5087	  5119	  5151	  5183	  5215	  5247	  5279	  5311	  5343	  5375	  5407	  5439
	  5471	  5503	  5535	  5567	  5599	  5654	  5688	  5722	  5756	  5790	  5824	  5858	  5892	  5926
	  5960	  5994	  6028	  6062	  6096	  6130	  6164	  6198	  6232	  6266	  6300	  6334	  6368	  6402
	  6436	  6470	  6504	  6538	  6572	  6606	  6640	  6674	  6708	  6742	  6776	  6810	  6844	  6904
	  6940	  6976	  7012	  7048	  7084	  7120	  7156	  7192	  7228	  7264	  7300	  7336	  7372	  7408
	  7444	  7480	  7516	  7552	  7588	  7624	  7660	  7696	  7732	  7768	  7804	  7840	  7876	  7912
	  7948	  7984	  8020	  8056	  8092	  8128	  8164	  8224	  8260	  8296	  8332	  8368	  8404	  8440
	  8476	  8512	  8548	  8584	  8620	  8656	  8692	  8728	  8764	  8800	  8836	  8872	  8908	  8944	  8980	  9016	  9052	  9088	  9124	  9160	  9196	  9232	  9268	  9304	  9340	  9376	  9412	  9448
	  9484                                                                                                             SEQ 0417
MTROP	   311#
NAME	     8#	    11
PBELL	   286#	 16534
PCRL	   280#	 16470	 16489
PCRL2	   284#
PCRL2F	   285#
PCRLF	   281#
PFORCE	   288#
PGMINT	   205#	   702
PJRST	   196#
PMSG	   290#	 16436	 16440	 16451	 16476
PMSGF	   293#
PNT1	   246#
PNT11	   260#
PNT11F	   261#
PNT1F	   247#
PNT2	   248#
PNT2F	   249#
PNT3	   250#	 16488
PNT3F	   251#
PNT4	   252#	 16492
PNT4F	   253#
PNT5	   254#	 16494
PNT5F	   255#
PNT6	   256#	 16444	 16496
PNT6F	   257#
PNT7	   258#
PNT7F	   259#
PNTA	   232#	 16479
PNTADF	   263#
PNTADR	   262#
PNTAF	   233#
PNTAL	   234#	 16472
PNTALF	   235#
PNTCHF	   245#
PNTCHR	   244#
PNTCI	   242#
PNTCIF	   243#
PNTCW	   278#
PNTCWF	   279#
PNTDCF	   271#
PNTDEC	   270#	 16439
PNTDS	   272#
PNTDSF	   273#
PNTHW	   266#	 16459
PNTHWF	   267#
PNTMGN	   357#	 16520
PNTMSF	   239#
PNTMSG	   238#
PNTNM	   274#	 16432
PNTOCF	   269#PNTOCS	   268#
PNTOCT	   264#                                                                                                            SEQ 0418
PNTOTF	   265#
PNTSIX	   275#
PNTSXF	   276#
PSIXL	   236#
PSIXLF	   237#
PSIXM	   240#	 16437	 16441	 16452	 16477
PSIXMF	   241#
PSP	   282#
PSPF	   283#
PUT	   194#
RTN	   193#	   450
S	   123#	   125	   129	   158	   160	   169	   172	   187	   188	   190	   201	   203	   207	   209
	   214	   218	   360	   365	   371	   398	   400	   418	   420	   438	   440	   469	   471	   489
	   491	   509	   511	   519	   521	   542	   547	   573	   575	   582	   584	   590	   592	   598
	   600	   604	   606	   611	   613	   617	   619	   623	   625	   631	   633	   636	   638	   642
	   644	   648	   650	   654	   656	   660	   662	   667	   672	   676	   678
SAVEAC	    93#	   714	  1960	  3207	  4453	  5624	  6869	  8189	  9511	  9572	  9632	  9686	  9737	  9793
	  9852	  9919	  9972	 10027	 10093	 10169	 10188	 10213	 10353	 10459	 10507	 10780	 10846	 10911
	 10994	 11041	 11096	 11146	 11228	 11271	 11343	 11407	 11472	 11522	 11581	 11637	 11691	 11787
	 11832	 11888	 11989	 12038	 12093	 12148	 12203	 12260	 12339	 12362	 12387	 12444	 12501	 12547
	 12606	 12679	 12730	 12790	 12875	 12939	 13022	 13086	 13171	 13191	 13212	 13276	 13357	 13563
	 13671	 13755	 13881	 14008	 14116	 14200	 14320	 14418	 14922	 15535	 15697	 15830	 15944	 16064
	 16159	 16279
SIXBTZ	   299#
SWITCH	   305#	 16418	 16521
TTALTM	   227#	 16523
TTICHR	   220#
TTICNV	   225#
TTIDEC	   224#
TTINO	   222#
TTIOCT	   223#
TTIYES	   221#
TTLOOK	   226#
TTSIXB	   228#
TTYINP	   229#