DBKAL PDP-10  KI10 BASIC INSTRUCTION DIAGNOSTIC (12) 0,2	MACRO %50A(432) 10:32  6-AUG-76 PAGE 1
DBKALT	MAC	30-JUL-76 12:39		DIAGNOSTIC PARAMETERS                                                              SEQ 0011

     1					;DBKAL
     2
     3			000000			MCNVER==0
     4			000002			DECVER==2
     5
     6
     7						XLIST
     8						LIST
     9						LALL
    10
    11						NAME	\MCNVER,\DECVER^
    12
    13					TITLE	DBKAL PDP-10  KI10 BASIC INSTRUCTION DIAGNOSTIC (12) 0,2
    14					^
    15
    16					;(MULTIPY, INTERGER MULTIPLY, DIVIDE, INTERGER DIVIDE)
    17
    18					;COPYRIGHT 1975
    19					;DIGITAL EQUIPMENT CORPORATION
    20					;MARLBORO, MASS. 01752
    21
    22					;JOHN R. KIRCHOFF
    23
    24	000137					LOC	137
    25	000137	000000	000002			MCNVER,,DECVER
    26
    27						.DIRECTIVE	.OKOVL
    28						NOSYMDBKAL PDP-10  KI10 BASIC INSTRUCTION DIAGNOSTIC (12) 0,2	MACRO %50A(432) 10:32  6-AUG-76 PAGE 2
DBKALT	MAC	30-JUL-76 12:39		DIAGNOSTIC PARAMETERS                                                              SEQ 0012

    29					SUBTTL	DIAGNOSTIC PARAMETERS
    30
    31					;OPERATOR DEFINITIONS
    32
    33		001000	000000		OPDEF	ER1	[1B8]
    34		002000	000000		OPDEF	ER2	[2B8]
    35		003000	000000		OPDEF	ER3	[3B8]
    36		004000	000000		OPDEF	ER4	[4B8]
    37		005000	000000		OPDEF	ER5	[5B8]
    38		006000	000000		OPDEF	ER6	[6B8]
    39		007000	000000		OPDEF	ER7	[7B8]
    40		010000	000000		OPDEF	ER10	[10B8]
    41		011000	000000		OPDEF	ER11	[11B8]
    42		012000	000000		OPDEF	ER12	[12B8]
    43		013000	000000		OPDEF	ER13	[13B8]
    44
    45			044422		LUUO1=ERRMES
    46			044422		LUUO2=ERRMES
    47			044422		LUUO3=ERRMES
    48			044422		LUUO4=ERRMES
    49			044422		LUUO5=ERRMES
    50			044422		LUUO6=ERRMES
    51			044422		LUUO7=ERRMES
    52			044422		LUUO10=ERRMES
    53			044422		LUUO11=ERRMES
    54			044422		LUUO12=ERRMES
    55			044422		LUUO13=ERRMESDBKAL PDP-10  KI10 BASIC INSTRUCTION DIAGNOSTIC (12) 0,2	MACRO %50A(432) 10:32  6-AUG-76 PAGE 3
DBKALT	MAC	30-JUL-76 12:39		DIAGNOSTIC PARAMETERS                                                              SEQ 0013

    56					;SUBROUTINE ASSEMBLY DEFINITIONS
    57
    58			000040		DEBUG=40
    59			000001		EXCASB=1
    60			000001		USRASB=1
    61			000001		KI10=1
    62			000001		KLOLD==1
    63			000001		PGMEND=1
    64			000001		ERDIAG=1
    65
    66					;SPECIAL FEATURE DEFINITIONS
    67
    68			030000		SADR1=BEGIN
    69			030000		SADR2=BEGIN
    70			030000		SADR3=BEGIN
    71			030000		SADR4=BEGIN
    72		254000	030000		SADR5=JRST BEGIN
    73		254000	030000		SADR6=JRST BEGIN
    74		254000	030000		SADR7=JRST BEGIN
    75		254000	030000		SADR8=JRST BEGIN
    76		254000	030000		SADR9=JRST BEGIN
    77		254000	030000		SADR10=JRST BEGIN
    78		254000	030000		SADR11=JRST BEGIN
    79
    80					;SPECIAL FEATURE PARAMETERS
    81
    82			000000		PAREA0=0
    83			000000		PAREA1=0
    84			000000		PAREA2=0
    85		444253	415400		PAREA3=SIXBIT/DBKAL/
    86		605664	000000		PAREA4=SIXBIT/PNT/
    87			000000		PAREA5=0
    88			000000		PAREA6=0
    89			001000		ITERAT==1000
    90
    91					;MACROS
    92
    93					DEFINE	SAVEAC	(A,B)<
    94						MOVEI	AC+2,.		;SAVE TEST PC
    95						MOVEM	AC+2,TESTPC
    96						MOVEI	AC+2,<AC+2>&17	;INFORM ERROR ROUTINE WHICH
    97						MOVEM	AC+2,ERRLOP#	;AC IS USED FOR ITERATION>DBKAL PDP-10  KI10 BASIC INSTRUCTION DIAGNOSTIC (12) 0,2	MACRO %50A(432) 10:32  6-AUG-76 PAGE 4
DBKALT	MAC	30-JUL-76 12:39		DIAGNOSTIC PARAMETERS                                                              SEQ 0014

    98					DEFINE	MOP1	(T,A1,A2,EE,R1,R2)<
    99					;THIS MACRO INITIALIZES AC,AC+1 AND E WITH [A1],[A2] AND
   100					;[EE] RESPECTIVELY, PERFORMS 'MUL AC,E' AND COMPARES AC,AC+1
   101					;AND E AGAINST [R1], [R2] AND [EE] RESPECTIVELY.
   102					;IF ANY OF THE ABOVE COMPARISONS FAIL, AN ERROR IS REPORTED
   103
   104					F'T'0:	AA1=A1				;INITIAL C(AC)
   105						MOVE	AC,[A1]			;PRELOAD AC (MULTIPLIER)
   106						AA2=A2				;INITIAL C(AC+1)
   107						MOVE	AC+1,[A2]		;PRELOAD AC+1
   108						AEE=EE				;INITIAL C(E)
   109						MOVE	E,[EE]			;PRELOAD E (MULTIPLICAND)
   110						MUL	AC,E			;*MULTIPLY C(E) BY C(AC)
   111						AR1=R1				;EXPECTED RESULT IN AC
   112						CAME	AC,[R1]			;IS HIGH PRODUCT CORRECT?
   113						ER3	AC,T'1		;HIGH PRODUCT FAILED
   114						AR2=R2				;EXPECTED RESULT IN AC+1
   115						CAME	AC+1,[R2]		;IS LOW PRODUCT CORRECT?
   116						ER4	AC+1,T'2		;LOW PRODUCT FAILED
   117						AEE=EE				;INITIAL C(E)
   118						CAME	E,[EE]			;WAS C(E) CLOBBERED?
   119						ER5	E,T'3			;C(E) WAS CLOBBERED
   120						JUMPL	AC+2,F'T'0		;LOOP ON ERROR SWITCH>DBKAL PDP-10  KI10 BASIC INSTRUCTION DIAGNOSTIC (12) 0,2	MACRO %50A(432) 10:32  6-AUG-76 PAGE 1
PARAM	KLM	26-FEB-76		*PARAM*	CONSOLE DATA SWITCH ASSIGNMENTS, FEB 26,1976                               SEQ 0015

   121					SUBTTL	*PARAM*	CONSOLE DATA SWITCH ASSIGNMENTS, FEB 26,1976
   122
   123					DEFINE	S,<;*********************************************************************>
   124
   125					S^;*********************************************************************^
   126					;*DATA SWITCHES (READ FROM CONSOLE IN EXEC MODE OR TYPED IN IN USER MODE)
   127					;*LEFT HALF SWITCHES ARE PRE-ASSIGNED FOR SUBROUTINE PACKAGE USE
   128					;*AND CONTROL LOOPING, PRINTING (TTY OR OTHER DEVICE) AND MISC. FUNCTIONS
   129					S^;*********************************************************************^
   130
   131			400000		ABORT==	400000			;ABORT PROGRAM ON PASS COMPLETION
   132			200000		RSTART==200000			;RESTART TEST, PRINT TOTALS
   133			100000		TOTALS==100000			;PRINT TOTALS, CONTINUE
   134
   135			040000		NOPNT==	040000			;INHIBIT ALL PRINT/TYPE OUT (EXCEPT FORCED)
   136			020000		PNTLPT==020000			;PRINT ALL DATA ON LPT (LOGICAL DEVICE, USER MODE)
   137			010000		DING==	010000			;RING BELL ON ERROR
   138
   139			004000		LOOPER==004000			;ENTER EXERCISE/CHECK LOOP ON ERROR
   140			002000		ERSTOP==002000			;HALT ON TEST ERROR
   141			001000		PALERS==001000			;PRINT ALL ERRORS
   142
   143			000400		RELIAB==000400			;RELIABILITY MODE
   144			000200		TXTINH==000200			;INHIBIT ERROR TEXT
   145			000100		INHPAG==000100			;INHIBIT PAGING
   146
   147			000040		MODDVC==000040			;MODIFY DEVICE CODE
   148			000020		INHCSH==000020			;INHIBIT CACHE
   149			000010		OPRSEL==000010			;OPERATOR SELECTION
   150
   151			000004		CHAIN==	000004			;CHAIN CONTROL SWITCH
   152
   153			000002		KAHZ50==000002			;KA10 50 HERTZ POWER
   154
   155									;SWITCH 17 RESERVED !!!DBKAL PDP-10  KI10 BASIC INSTRUCTION DIAGNOSTIC (12) 0,2	MACRO %50A(432) 10:32  6-AUG-76 PAGE 2
PARAM	KLM	26-FEB-76		*PARAM* PROGRAM/SUBROUTINE PARAMETERS, FEB 26,1976                                 SEQ 0016

   156					SUBTTL	*PARAM* PROGRAM/SUBROUTINE PARAMETERS, FEB 26,1976
   157
   158					S^;*********************************************************************^
   159					;*SPECIAL SUBPROGRAM LINKAGES
   160					S^;*********************************************************************^
   161
   162			027772		FSELNK=	27772	;FILE SELECT LINK
   163			027773		FRDLNK=	27773	;FILE READ LINK
   164			027774		LDLNK=	27774	;LOAD LINKAGE ADDRESS
   165			027775		DDTLNK=	27775	;DDT LINKAGE ADDRESS
   166			027776		MODLNK=	27776	;OPERATIONAL MODE CHECK LINKAGE ADDRESS
   167			027777		SUBLNK=	27777	;SUBROUTINE LINKAGE ADDRESS
   168
   169					S^;*********************************************************************^
   170					;*SPECIAL SUBROUTINE FATAL HALTS
   171					;*USED TO REPORT ERRORS THAT CAUSE THE SUBROUTINES TO BE UNUSABLE
   172					S^;*********************************************************************^
   173
   174					;ADDRESS   TAG	REASON
   175					;---------------------
   176
   177					; 1010 	NOEXEC	;PROGRAM NOT CODED FOR EXEC MODE OPERATION
   178					; 1011  PLERR	;FATAL PUSH LIST POINTER ERROR
   179					; 1012  PLERR1	;INITIAL PUSH LIST POINTER ERROR
   180					; 1013  MUOERR	;MUUO WITH LUUO HANDLER WIPED OUT
   181					; 1014  DTEBER	;DTE20 INTERRUPT WITHOUT DOORBELL
   182					; 1015  DTECER	;DTE20 CLOCK INTERRUPT WITHOUT FLAG SET
   183					; 1016  CPIERR	;CPU INITIALIZATION ERROR
   184					; 1017  EOPERR	;END OF PROGRAM ERROR
   185					; 1020  LUOERR	;INTERRUPT WITH LUUO HANDLER WIPED OUT
   186
   187					S^;*********************************************************************^DBKAL PDP-10  KI10 BASIC INSTRUCTION DIAGNOSTIC (12) 0,2	MACRO %50A(432) 10:32  6-AUG-76 PAGE 3
PARAM	KLM	26-FEB-76		*PARAM* PROGRAM/SUBROUTINE PARAMETERS, FEB 26,1976                                 SEQ 0017

   188					S^;*********************************************************************^
   189					;OPERATOR DEFINITIONS (NON-UUO'S)
   190					S^;*********************************************************************^
   191
   192		260740	000000		OPDEF	GO	[PUSHJ	P,]	;SUBROUTINE CALL
   193		263740	000000		OPDEF	RTN	[POPJ	P,]	;SUBROUTINE RETURN
   194		261740	000000		OPDEF	PUT	[PUSH	P,]	;PUT DATA ON PUSH LIST
   195		262740	000000		OPDEF	GET	[POP	P,]	;GET DATA FROM PUSH LIST
   196		254000	000000		OPDEF	PJRST	[JRST	]	;JRST TO ROUTINE THAT RTN'S
   197		254200	000000		OPDEF	HALT	[JRST	4,]	;DEFINITION FOR DDT
   198		254100	000000		OPDEF	JRSTF	[JRST	2,]	;DEFINITION FOR DDT
   199		254500	000000		OPDEF	JEN	[JRST	12,]	;DEFINITION FOR DDT
   200
   201					S^;*********************************************************************^
   202					;*SUBROUTINE INITIALIZATION CALL
   203					S^;*********************************************************************^
   204
   205		265000	030011		OPDEF	PGMINT	[JSP	0,SBINIT]	;SUBROUTINE INITIALIZATION
   206
   207					S^;*********************************************************************^
   208					;*HALTING UUO'S (A MORE GRACEFUL HALT THAN SIMPLY USING THE HALT INSTRUCTION).
   209					S^;*********************************************************************^
   210
   211		037640	000004		OPDEF	FATAL	[37B8!15B12!4]	;FATAL PROGRAMMING HALT
   212		037600	000004		OPDEF	ERRHLT	[37B8!14B12!4]	;PROGRAM ERROR HALT
   213
   214					S^;*********************************************************************^
   215					;*TERMINAL INPUT UUO'S
   216					;*ALWAYS COME FROM THE CONSOLE TERMINAL IN EXEC MODE OR THE
   217					;*CONTROLLING TERMINAL (REAL TERMINAL OR PTY) IN USER MODE.
   218					S^;*********************************************************************^
   219
   220		037000	000003		OPDEF	TTICHR 	[37B8!0B12!3]	;TTY, INPUT ANY CHARACTER
   221		037040	000003		OPDEF	TTIYES	[37B8!1B12!3]	;TTY, NORMAL RETURN Y
   222		037100	000003		OPDEF	TTINO	[37B8!2B12!3]	;TTY, NORMAL RETURN N
   223		037140	000003		OPDEF	TTIOCT	[37B8!3B12!3]	;TTY, INPUT OCTAL WORD
   224		037200	000003		OPDEF	TTIDEC	[37B8!4B12!3]	;TTY, INPUT DECIMAL WORD
   225		037240	000003		OPDEF	TTICNV	[37B8!5B12!3]	;TTY, INPUT CONVERTABLE WORD
   226		037300	000003		OPDEF	TTLOOK	[37B8!6B12!3]	;TTY, KEYBOARD CHECK
   227		037340	000003		OPDEF	TTALTM	[37B8!7B12!3]	;TTY, ALT-MODE CHECK
   228		037400	000003		OPDEF	TTSIXB	[37B8!10B12!3]	;TTY, INPUT SIXBIT WORD
   229		037440	000003		OPDEF	TTYINP	[37B8!11B12!3]	;TTY, IMAGE MODE INPUTDBKAL PDP-10  KI10 BASIC INSTRUCTION DIAGNOSTIC (12) 0,2	MACRO %50A(432) 10:32  6-AUG-76 PAGE 4
PARAM	KLM	26-FEB-76		*PARAM* PROGRAM/SUBROUTINE PARAMETERS, FEB 26,1976                                 SEQ 0018

   230					;*TERMINAL OUTPUT UUO'S.
   231
   232		037000	000000		OPDEF	PNTA	[37B8!0B12!0]	;PRINT ASCII WORD
   233		037000	000001		OPDEF	PNTAF	[37B8!0B12!1]	;PRINT ASCII WORD FORCED
   234		037740	000000		OPDEF	PNTAL	[37B8!17B12!0]	;PRINT ASCIZ LINE
   235		037740	000001		OPDEF	PNTALF	[37B8!17B12!1]	;PRINT ASCIZ LINE FORCED
   236		037600	000003		OPDEF	PSIXL	[37B8!14B12!3]	;PRINT SIXBIT'Z LINE
   237		037640	000003		OPDEF	PSIXLF	[37B8!15B12!3]	;PRINT SIXBIT'Z LINE FORCED
   238		037000	000000		OPDEF	PNTMSG	[37B8!0B12!0]	;PRINT MESSAGE IMMEDIATE
   239		037040	000000		OPDEF	PNTMSF	[37B8!1B12!0]	;PRINT MESSAGE IMMEDIATE FORCED
   240		037100	000000		OPDEF	PSIXM	[37B8!2B12!0]	;PRINT SIXBIT'Z MSG IMMEDIATE
   241		037200	000000		OPDEF	PSIXMF	[37B8!4B12!0]	;PRINT SIXBIT'Z MSG IMM FORCED
   242		037000	000000		OPDEF	PNTCI	[37B8!0B12!0]	;PRINT CHARACTER IMMEDIATE
   243		037040	000000		OPDEF	PNTCIF	[37B8!1B12!0]	;PRINT CHARACTER IMMEDIATE FORCED
   244		037500	000000		OPDEF	PNTCHR	[37B8!12B12!0]	;PRINT CHARACTER
   245		037500	000001		OPDEF	PNTCHF	[37B8!12B12!1]	;PRINT CHARACTER FORCED
   246		037040	000000		OPDEF	PNT1	[37B8!1B12!0]	;PRINT ONE OCTAL DIGIT
   247		037040	000001		OPDEF	PNT1F	[37B8!1B12!1]	;PRINT 1 OCTAL DIGIT FORCED
   248		037100	000000		OPDEF	PNT2	[37B8!2B12!0]	;PRINT TWO OCTAL DIGITS
   249		037100	000001		OPDEF	PNT2F	[37B8!2B12!1]	;PRINT 2 OCTAL DIGITS FORCED
   250		037140	000000		OPDEF	PNT3	[37B8!3B12!0]	;PRINT THREE OCTAL DIGITS
   251		037140	000001		OPDEF	PNT3F	[37B8!3B12!1]	;PRINT THREE OCTAL DIGITS FORCED
   252		037200	000000		OPDEF	PNT4	[37B8!4B12!0]	;PRINT FOUR OCTAL DIGITS
   253		037200	000001		OPDEF	PNT4F	[37B8!4B12!1]	;PRINT FOUR OCTAL DIGITS FORCED
   254		037240	000000		OPDEF	PNT5	[37B8!5B12!0]	;PRINT FIVE OCTAL DIGITS
   255		037240	000001		OPDEF	PNT5F	[37B8!5B12!1]	;PRINT FIVE OCTAL DIGITS FORCED
   256		037300	000000		OPDEF	PNT6	[37B8!6B12!0]	;PRINT SIX OCTAL DIGITS
   257		037300	000001		OPDEF	PNT6F	[37B8!6B12!1]	;PRINT SIX OCTAL DIGITS FORCED
   258		037340	000000		OPDEF	PNT7	[37B8!7B12!0]	;PRINT 7 OCTAL DIGITS
   259		037340	000001		OPDEF	PNT7F	[37B8!7B12!1]	;PRINT 7 OCTAL DIGITS FORCED
   260		037440	000000		OPDEF	PNT11	[37B8!11B12!0]	;PRINT 11 OCTAL DIGITS
   261		037440	000001		OPDEF	PNT11F	[37B8!11B12!1]	;PRINT 11 OCTAL DIGITS FORCED.
   262		037400	000000		OPDEF	PNTADR	[37B8!10B12!0]	;PRINT PHYSICAL ADDRESS
   263		037400	000001		OPDEF	PNTADF	[37B8!10B12!1]	;PRINT PHYSICAL ADDRESS FORCED
   264		037600	000000		OPDEF	PNTOCT  [37B8!14B12!0]	;PRINT FULL WORD OCTAL
   265		037600	000001		OPDEF	PNTOTF	[37B8!14B12!1]	;PRINT FULL WORD OCTAL FORCED
   266		037540	000000		OPDEF	PNTHW	[37B8!13B12!0]	;PRINT OCTAL HALF WORDS, 6 SP 6
   267		037540	000001		OPDEF	PNTHWF	[37B8!13B12!1]	;PRINT OCTAL HALF WORDS, 6 SP 6 FORCED
   268		037700	000003		OPDEF	PNTOCS	[37B8!16B12!3]	;PRINT OCTAL, SUPPRESS LEADING 0'S
   269		037740	000003		OPDEF	PNTOCF	[37B8!17B12!3]	;PRINT OCTAL, SUPPRESS LEADING 0'S FORCED
   270		037640	000000		OPDEF	PNTDEC	[37B8!15B12!0]	;PRINT DECIMAL, SUPRESS LEADING 0'S
   271		037640	000001		OPDEF	PNTDCF	[37B8!15B12!1]	;PRINT DECIMAL, SUPRESS LEADING 0'S FORCED
   272		037700	000000		OPDEF	PNTDS	[37B8!16B12!0]	;PRINT DECIMAL, SPACES FOR LD 0'S
   273		037700	000001		OPDEF	PNTDSF	[37B8!16B12!1]	;PRINT DECIMAL, SPACES FOR LD 0'S FORCEDDBKAL PDP-10  KI10 BASIC INSTRUCTION DIAGNOSTIC (12) 0,2	MACRO %50A(432) 10:32  6-AUG-76 PAGE 5
PARAM	KLM	26-FEB-76		*PARAM* PROGRAM/SUBROUTINE PARAMETERS, FEB 26,1976                                 SEQ 0019

   274		037200	000002		OPDEF	PNTNM	[37B8!4B12!2]	;PRINT PROGRAM NAME
   275		037000	000002		OPDEF	PNTSIX	[37B8!0B12!2]	;PRINT SIXBIT WORD
   276		037040	000002		OPDEF	PNTSXF	[37B8!1B12!2]	;PRINT SIXBIT WORD FORCED
   277		037240	000002		OPDEF	DROPDV	[37B8!5B12!2]	;CLOSE LOGICAL FILE, USER MODE
   278		037100	000002		OPDEF	PNTCW	[37B8!2B12!2]	;PRINT DF10 CONTROL WORD
   279		037140	000002		OPDEF	PNTCWF	[37B8!3B12!2]	;PRINT DF10 CONTROL WORD FORCED
   280		037000	030242		OPDEF	PCRL	[37B8!0B12!CRLF] ;PRINT CARRIAGE RETURN/LINE FEED
   281		037040	030242		OPDEF	PCRLF	[37B8!1B12!CRLF] ;PRINT CARRIAGE RETURN/LINE FEED FORCED
   282		037000	000040		OPDEF	PSP	[37B8!0B12!40]	;PRINT SPACE
   283		037040	000040		OPDEF	PSPF	[37B8!1B12!40]	;PRINT SPACE FORCED
   284		037000	030243		OPDEF	PCRL2	[37B8!0B12!CRLF2] ;PRINT CARRIAGE RETURN/LINE FEED (TWICE)
   285		037040	030243		OPDEF	PCRL2F	[37B8!1B12!CRLF2] ;PRINT CARRIAGE RETURN/LINE FEED (TWICE) FORCED
   286		037040	000007		OPDEF	PBELL	[37B8!1B12!7]	;PRINT TTY BELL
   287
   288		037040	000026		OPDEF	PFORCE	[37B8!1B12!26]	;PRINT FORCE, CONTROL O OVERRIDE
   289
   290					DEFINE	PMSG	(ARG),<
   291						PSIXM	[SIXBIT\ARG'_\]>
   292
   293					DEFINE	PMSGF	(ARG),<
   294						PSIXMF	[SIXBIT\ARG'_\]>
   295
   296					;*SIXBTZ -- MACRO TO GENERATE SIXBIT DATA FOR PRINTING
   297					;*	CONSERVES CORE OVER ASCIZ
   298
   299					DEFINE	SIXBTZ	(ARG),<	[SIXBIT\ARG'_\]>
   300
   301					;*CONSOLE SWITCH INPUT UUO.
   302					;*READS CONSOLE SWITCHES IF IN EXEC MODE OR ASKS FOR THEM IF
   303					;* USER MODE.
   304
   305		037400	000002		OPDEF	SWITCH	[37B8!10B12!2]	;INPUT CONSOLE SWITCHES
   306
   307					;*CLOCK INITIALIZATION UUO - TO SET DESIRED CLOCK OPERATION
   308					;*EITHER IGNORE CLOCK, ONLY LET IT TICK OR CAUSE INTERRUPT TO OCCUR.
   309
   310		037540	000004		OPDEF	CLOKOP	[37B8!13B12!4]	;CLOCK OPERATION UUO - PDP-11 CLOCK
   311		037200	000004		OPDEF	MTROP	[37B8!4B12!4]	;CLOCK OPERATION UUO - DK20 METER
   312
   313					;*KL10 ONLY CACHE OPERATION UUO'S
   314
   315		037040	000004		OPDEF	CINVAL	[37B8!1B12!4]	;CACHE INVALIDATE
   316		037100	000004		OPDEF	CFLUSH	[37B8!2B12!4]	;CACHE FLUSH
   317		037140	000004		OPDEF	CWRTBI	[37B8!3B12!4]	;CACHE WRITE-BACK & INVALIDATEDBKAL PDP-10  KI10 BASIC INSTRUCTION DIAGNOSTIC (12) 0,2	MACRO %50A(432) 10:32  6-AUG-76 PAGE 6
PARAM	KLM	26-FEB-76		*PARAM* PROGRAM/SUBROUTINE PARAMETERS, FEB 26,1976                                 SEQ 0020

   318					;*END OF PASS/PROGRAM UUOS
   319
   320					;PERFORMS THE END OF PASS FUNCTIONS. INCREMENT PASS COUNT,
   321					;*DECREMENT ITERATION COUNT, CHECK IF FINISHED WITH THIS PROGRAM ETC.
   322
   323		037500	000004		OPDEF	ENDUUO	[37B8!12B12!4]	;UUO TO DISPLAY LIGHTS
   324		037700	000004		OPDEF	EOPUUO	[37B8!16B12!4]	;END OF PROGRAM UUO
   325
   326					;*MEMORY MANAGEMENT UUO'S
   327					;*UUO'S TO PERFORM VARIOUS MEMORY FUNCTIONS. MAPPING, ZEROING, PAGING,
   328					;*ADDRESS CONVERSION, ETC...
   329
   330		037000	000004		OPDEF	MAPMEM	[37B8!0B12!4]	;MAP MEMORY
   331		037500	000002		OPDEF	MEMZRO	[37B8!12B12!2]	;ZERO MEMORY
   332		037440	000002		OPDEF	MEMSEG	[37B8!11B12!2]	;SETUP MEMORY SEGMENT
   333		037540	000002		OPDEF	MAPADR	[37B8!13B12!2]	;VIRTUAL TO PHYSICAL ADR CONVERT
   334		037640	000002		OPDEF	MAPCNK	[37B8!15B12!2]	;MAP MEMORY CHUNK
   335		037600	000002		OPDEF	MAPSET	[37B8!14B12!2]	;SET KI10 EXEC PAGE MAP
   336		037740	000002		OPDEF	MAPPNT	[37B8!17B12!2]	;PRINT MEMORY MAP
   337
   338					;*DEVICE CODE MODIFICATION UUO
   339					;*ALLOWS THE MODIFICATION OF IOT'S TO ONE DEVICE TO BE CHANGED TO
   340					;*IOT'S TO A DIFFERENT DEVICE CODE.
   341
   342		037340	000002		OPDEF	MODPCU	[37B8!7B12!2]	;MODIFY PERHIPERAL CODE, USER
   343		037300	000002		OPDEF	MODPCP	[37B8!6B12!2]	;MODIFY PERHIPERAL CODE, PROGRAM
   344
   345			030000			IFNDEF	MODDVL,<MODDVL==BEGIN>
   346			030000			IFNDEF	MODDVU,<MODDVU==BEGIN>
   347
   348					;*"DIAMON" FILE SELECTION AND READ UUOS
   349
   350		037240	000004		OPDEF	FSELECT	[37B8!5B12!4]	;FILE SELECTION
   351		037300	000004		OPDEF	FREAD	[37B8!6B12!4]	;FILE READ - ASCII DATA
   352		037340	000004		OPDEF	FRD36	[37B8!7B12!4]	;FILE READ - 36 BIT DATA
   353		037400	000004		OPDEF	FRD8	[37B8!10B12!4]	;FILE READ - 8 BIT DATA
   354
   355					;*KI10 ONLY UUO FOR PRINTING MARGIN VALUES
   356
   357		037700	000002		OPDEF	PNTMGN	[37B8!16B12!2]	;PRINT MARGIN VALUE
   358
   359						XLIST
