DBKCA	PDP-10 KI10 ADVANCED INSTRUCTION DIAGNOSTIC #1, VERSION 0,3 	MACRO %52(462) 10:44  9-AUG-76 PAGE 1
DBKCAT	MAC	30-JUL-76 12:47		DIAGNOSTIC PARAMETERS                                                              SEQ 0011

     1					;MAINDEC-10-DBKCA
     2
     3			000003		DECVER=003
     4			000000		MCNVER=000
     5
     6						XLIST
     7						LIST
     8						LALL
     9
    10					NAME	\MCNVER,\DECVER^
    11					TITLE	DBKCA	PDP-10 KI10 ADVANCED INSTRUCTION DIAGNOSTIC #1, VERSION 0,3 ^
    12
    13						XALL
    14					;(FLOATING SCALE, FLOATING ADD/SUB AND UNNORMALIZED FLOATING ADD)
    15
    16					;COPYRIGHT 1972, 1973, 1974, 1975
    17					;DIGITAL EQUIPMENT CORPORATION
    18					;MAYNARD, MASS. 01754
    19
    20					;JOHN R. KIRCHOFF
    21					;LINDA GARLAND
    22
    23	000137				LOC	137
    24	000137	000000	000003		MCNVER,,DECVER
    25						NOSYMDBKCA	PDP-10 KI10 ADVANCED INSTRUCTION DIAGNOSTIC #1, VERSION 0,3 	MACRO %52(462) 10:44  9-AUG-76 PAGE 2
DBKCAT	MAC	30-JUL-76 12:47		DIAGNOSTIC PARAMETERS                                                              SEQ 0012

    26					SUBTTL	DIAGNOSTIC PARAMETERS
    27
    28					;OPERATOR DEFINITIONS
    29
    30		001000	000000		OPDEF	ER1	[1B8]
    31		002000	000000		OPDEF	ER2	[2B8]
    32		003000	000000		OPDEF	ER3	[3B8]
    33		004000	000000		OPDEF	ER4	[4B8]
    34		005000	000000		OPDEF	ER5	[5B8]
    35		006000	000000		OPDEF	ER6	[6B8]
    36		007000	000000		OPDEF	ER7	[7B8]
    37		010000	000000		OPDEF	ER10	[10B8]
    38		011000	000000		OPDEF	ER11	[11B8]
    39		012000	000000		OPDEF	ER12	[12B8]
    40		013000	000000		OPDEF	ER13	[13B8]
    41
    42			037615		LUUO1==ERRMES
    43			037615		LUUO2==ERRMES
    44			037615		LUUO3==ERRMES
    45			037615		LUUO4==ERRMES
    46			037615		LUUO5==ERRMES
    47			037615		LUUO6==ERRMES
    48			037615		LUUO7==ERRMES
    49			037615		LUUO10==ERRMES
    50			037615		LUUO11==ERRMES
    51			037615		LUUO12==ERRMES
    52			037615		LUUO13==ERRMES
    53
    54					;SUBROUTINE ASSEMBLY DEFINITIONS
    55
    56			000100		DEBUG=100
    57			000001		EXCASB=1
    58			000001		USRASB=1
    59			000001		KI10=1
    60			000001		PGMEND=1
    61			000001		ERDIAG=1
    62			000001		KLOLD=1
    63			030000		MODDVU=BEGIN
    64			030000		MODDVL=BEGINDBKCA	PDP-10 KI10 ADVANCED INSTRUCTION DIAGNOSTIC #1, VERSION 0,3 	MACRO %52(462) 10:44  9-AUG-76 PAGE 3
DBKCAT	MAC	30-JUL-76 12:47		DIAGNOSTIC PARAMETERS                                                              SEQ 0013

    65					;MACROS
    66
    67					DEFINE	SAVEAC	(A,B)<
    68						MOVEI	AC+2,.
    69						MOVEM	AC+2,TESTPC	;SETUP SUBTEST PC
    70						MOVEI	AC+2,<AC+2>&17	;INFORM ERROR ROUTINE WHICH
    71						MOVEM	AC+2,ERRLOP#	;AC IS USED FOR ITERATION>
    72
    73					;BEGIN ASSEMBLY PARAMETERS
    74
    75			030000		SADR1=BEGIN
    76			030076		SADR2=RESRT1
    77			030600		SADR3=RENTR1
    78			030000		SADR4=BEGIN
    79			030000		SADR5=BEGIN
    80			030000		SADR6=BEGIN
    81		254200	030000		SADR7=HALT BEGIN
    82		254200	030000		SADR8=HALT BEGIN
    83		254200	030000		SADR9=HALT BEGIN
    84		254200	030000		SADR10=HALT BEGIN
    85		254200	030000		SADR11=HALT BEGIN
    86
    87			000000		PAREA1=0
    88			000000		PAREA2=0
    89		444253	434100		PAREA3=SIXBIT/DBKCA/
    90		605664	000000		PAREA4=SIXBIT/PNT/
    91			000000		PAREA5=0
    92			000000		PAREA6=0
    93
    94			001000		ITERAT=1000DBKCA	PDP-10 KI10 ADVANCED INSTRUCTION DIAGNOSTIC #1, VERSION 0,3 	MACRO %52(462) 10:44  9-AUG-76 PAGE 1
PARAM	KLM	26-FEB-76		*PARAM*	CONSOLE DATA SWITCH ASSIGNMENTS, FEB 26,1976                               SEQ 0014

    95					SUBTTL	*PARAM*	CONSOLE DATA SWITCH ASSIGNMENTS, FEB 26,1976
    96
    97					DEFINE	S,<;*********************************************************************>
    98
    99					S^;*********************************************************************^
   100					;*DATA SWITCHES (READ FROM CONSOLE IN EXEC MODE OR TYPED IN IN USER MODE)
   101					;*LEFT HALF SWITCHES ARE PRE-ASSIGNED FOR SUBROUTINE PACKAGE USE
   102					;*AND CONTROL LOOPING, PRINTING (TTY OR OTHER DEVICE) AND MISC. FUNCTIONS
   103					S^;*********************************************************************^
   104
   105			400000		ABORT==	400000			;ABORT PROGRAM ON PASS COMPLETION
   106			200000		RSTART==200000			;RESTART TEST, PRINT TOTALS
   107			100000		TOTALS==100000			;PRINT TOTALS, CONTINUE
   108
   109			040000		NOPNT==	040000			;INHIBIT ALL PRINT/TYPE OUT (EXCEPT FORCED)
   110			020000		PNTLPT==020000			;PRINT ALL DATA ON LPT (LOGICAL DEVICE, USER MODE)
   111			010000		DING==	010000			;RING BELL ON ERROR
   112
   113			004000		LOOPER==004000			;ENTER EXERCISE/CHECK LOOP ON ERROR
   114			002000		ERSTOP==002000			;HALT ON TEST ERROR
   115			001000		PALERS==001000			;PRINT ALL ERRORS
   116
   117			000400		RELIAB==000400			;RELIABILITY MODE
   118			000200		TXTINH==000200			;INHIBIT ERROR TEXT
   119			000100		INHPAG==000100			;INHIBIT PAGING
   120
   121			000040		MODDVC==000040			;MODIFY DEVICE CODE
   122			000020		INHCSH==000020			;INHIBIT CACHE
   123			000010		OPRSEL==000010			;OPERATOR SELECTION
   124
   125			000004		CHAIN==	000004			;CHAIN CONTROL SWITCH
   126
   127			000002		KAHZ50==000002			;KA10 50 HERTZ POWER
   128
   129									;SWITCH 17 RESERVED !!!DBKCA	PDP-10 KI10 ADVANCED INSTRUCTION DIAGNOSTIC #1, VERSION 0,3 	MACRO %52(462) 10:44  9-AUG-76 PAGE 2
PARAM	KLM	26-FEB-76		*PARAM* PROGRAM/SUBROUTINE PARAMETERS, FEB 26,1976                                 SEQ 0015

   130					SUBTTL	*PARAM* PROGRAM/SUBROUTINE PARAMETERS, FEB 26,1976
   131
   132					S^;*********************************************************************^
   133					;*SPECIAL SUBPROGRAM LINKAGES
   134					S^;*********************************************************************^
   135
   136			027772		FSELNK=	27772	;FILE SELECT LINK
   137			027773		FRDLNK=	27773	;FILE READ LINK
   138			027774		LDLNK=	27774	;LOAD LINKAGE ADDRESS
   139			027775		DDTLNK=	27775	;DDT LINKAGE ADDRESS
   140			027776		MODLNK=	27776	;OPERATIONAL MODE CHECK LINKAGE ADDRESS
   141			027777		SUBLNK=	27777	;SUBROUTINE LINKAGE ADDRESS
   142
   143					S^;*********************************************************************^
   144					;*SPECIAL SUBROUTINE FATAL HALTS
   145					;*USED TO REPORT ERRORS THAT CAUSE THE SUBROUTINES TO BE UNUSABLE
   146					S^;*********************************************************************^
   147
   148					;ADDRESS   TAG	REASON
   149					;---------------------
   150
   151					; 1010 	NOEXEC	;PROGRAM NOT CODED FOR EXEC MODE OPERATION
   152					; 1011  PLERR	;FATAL PUSH LIST POINTER ERROR
   153					; 1012  PLERR1	;INITIAL PUSH LIST POINTER ERROR
   154					; 1013  MUOERR	;MUUO WITH LUUO HANDLER WIPED OUT
   155					; 1014  DTEBER	;DTE20 INTERRUPT WITHOUT DOORBELL
   156					; 1015  DTECER	;DTE20 CLOCK INTERRUPT WITHOUT FLAG SET
   157					; 1016  CPIERR	;CPU INITIALIZATION ERROR
   158					; 1017  EOPERR	;END OF PROGRAM ERROR
   159					; 1020  LUOERR	;INTERRUPT WITH LUUO HANDLER WIPED OUT
   160
   161					S^;*********************************************************************^DBKCA	PDP-10 KI10 ADVANCED INSTRUCTION DIAGNOSTIC #1, VERSION 0,3 	MACRO %52(462) 10:44  9-AUG-76 PAGE 3
PARAM	KLM	26-FEB-76		*PARAM* PROGRAM/SUBROUTINE PARAMETERS, FEB 26,1976                                 SEQ 0016

   162					S^;*********************************************************************^
   163					;OPERATOR DEFINITIONS (NON-UUO'S)
   164					S^;*********************************************************************^
   165
   166		260740	000000		OPDEF	GO	[PUSHJ	P,]	;SUBROUTINE CALL
   167		263740	000000		OPDEF	RTN	[POPJ	P,]	;SUBROUTINE RETURN
   168		261740	000000		OPDEF	PUT	[PUSH	P,]	;PUT DATA ON PUSH LIST
   169		262740	000000		OPDEF	GET	[POP	P,]	;GET DATA FROM PUSH LIST
   170		254000	000000		OPDEF	PJRST	[JRST	]	;JRST TO ROUTINE THAT RTN'S
   171		254200	000000		OPDEF	HALT	[JRST	4,]	;DEFINITION FOR DDT
   172		254100	000000		OPDEF	JRSTF	[JRST	2,]	;DEFINITION FOR DDT
   173		254500	000000		OPDEF	JEN	[JRST	12,]	;DEFINITION FOR DDT
   174
   175					S^;*********************************************************************^
   176					;*SUBROUTINE INITIALIZATION CALL
   177					S^;*********************************************************************^
   178
   179		265000	030011		OPDEF	PGMINT	[JSP	0,SBINIT]	;SUBROUTINE INITIALIZATION
   180
   181					S^;*********************************************************************^
   182					;*HALTING UUO'S (A MORE GRACEFUL HALT THAN SIMPLY USING THE HALT INSTRUCTION).
   183					S^;*********************************************************************^
   184
   185		037640	000004		OPDEF	FATAL	[37B8!15B12!4]	;FATAL PROGRAMMING HALT
   186		037600	000004		OPDEF	ERRHLT	[37B8!14B12!4]	;PROGRAM ERROR HALT
   187
   188					S^;*********************************************************************^
   189					;*TERMINAL INPUT UUO'S
   190					;*ALWAYS COME FROM THE CONSOLE TERMINAL IN EXEC MODE OR THE
   191					;*CONTROLLING TERMINAL (REAL TERMINAL OR PTY) IN USER MODE.
   192					S^;*********************************************************************^
   193
   194		037000	000003		OPDEF	TTICHR 	[37B8!0B12!3]	;TTY, INPUT ANY CHARACTER
   195		037040	000003		OPDEF	TTIYES	[37B8!1B12!3]	;TTY, NORMAL RETURN Y
   196		037100	000003		OPDEF	TTINO	[37B8!2B12!3]	;TTY, NORMAL RETURN N
   197		037140	000003		OPDEF	TTIOCT	[37B8!3B12!3]	;TTY, INPUT OCTAL WORD
   198		037200	000003		OPDEF	TTIDEC	[37B8!4B12!3]	;TTY, INPUT DECIMAL WORD
   199		037240	000003		OPDEF	TTICNV	[37B8!5B12!3]	;TTY, INPUT CONVERTABLE WORD
   200		037300	000003		OPDEF	TTLOOK	[37B8!6B12!3]	;TTY, KEYBOARD CHECK
   201		037340	000003		OPDEF	TTALTM	[37B8!7B12!3]	;TTY, ALT-MODE CHECK
   202		037400	000003		OPDEF	TTSIXB	[37B8!10B12!3]	;TTY, INPUT SIXBIT WORD
   203		037440	000003		OPDEF	TTYINP	[37B8!11B12!3]	;TTY, IMAGE MODE INPUTDBKCA	PDP-10 KI10 ADVANCED INSTRUCTION DIAGNOSTIC #1, VERSION 0,3 	MACRO %52(462) 10:44  9-AUG-76 PAGE 4
PARAM	KLM	26-FEB-76		*PARAM* PROGRAM/SUBROUTINE PARAMETERS, FEB 26,1976                                 SEQ 0017

   204					;*TERMINAL OUTPUT UUO'S.
   205
   206		037000	000000		OPDEF	PNTA	[37B8!0B12!0]	;PRINT ASCII WORD
   207		037000	000001		OPDEF	PNTAF	[37B8!0B12!1]	;PRINT ASCII WORD FORCED
   208		037740	000000		OPDEF	PNTAL	[37B8!17B12!0]	;PRINT ASCIZ LINE
   209		037740	000001		OPDEF	PNTALF	[37B8!17B12!1]	;PRINT ASCIZ LINE FORCED
   210		037600	000003		OPDEF	PSIXL	[37B8!14B12!3]	;PRINT SIXBIT'Z LINE
   211		037640	000003		OPDEF	PSIXLF	[37B8!15B12!3]	;PRINT SIXBIT'Z LINE FORCED
   212		037000	000000		OPDEF	PNTMSG	[37B8!0B12!0]	;PRINT MESSAGE IMMEDIATE
   213		037040	000000		OPDEF	PNTMSF	[37B8!1B12!0]	;PRINT MESSAGE IMMEDIATE FORCED
   214		037100	000000		OPDEF	PSIXM	[37B8!2B12!0]	;PRINT SIXBIT'Z MSG IMMEDIATE
   215		037200	000000		OPDEF	PSIXMF	[37B8!4B12!0]	;PRINT SIXBIT'Z MSG IMM FORCED
   216		037000	000000		OPDEF	PNTCI	[37B8!0B12!0]	;PRINT CHARACTER IMMEDIATE
   217		037040	000000		OPDEF	PNTCIF	[37B8!1B12!0]	;PRINT CHARACTER IMMEDIATE FORCED
   218		037500	000000		OPDEF	PNTCHR	[37B8!12B12!0]	;PRINT CHARACTER
   219		037500	000001		OPDEF	PNTCHF	[37B8!12B12!1]	;PRINT CHARACTER FORCED
   220		037040	000000		OPDEF	PNT1	[37B8!1B12!0]	;PRINT ONE OCTAL DIGIT
   221		037040	000001		OPDEF	PNT1F	[37B8!1B12!1]	;PRINT 1 OCTAL DIGIT FORCED
   222		037100	000000		OPDEF	PNT2	[37B8!2B12!0]	;PRINT TWO OCTAL DIGITS
   223		037100	000001		OPDEF	PNT2F	[37B8!2B12!1]	;PRINT 2 OCTAL DIGITS FORCED
   224		037140	000000		OPDEF	PNT3	[37B8!3B12!0]	;PRINT THREE OCTAL DIGITS
   225		037140	000001		OPDEF	PNT3F	[37B8!3B12!1]	;PRINT THREE OCTAL DIGITS FORCED
   226		037200	000000		OPDEF	PNT4	[37B8!4B12!0]	;PRINT FOUR OCTAL DIGITS
   227		037200	000001		OPDEF	PNT4F	[37B8!4B12!1]	;PRINT FOUR OCTAL DIGITS FORCED
   228		037240	000000		OPDEF	PNT5	[37B8!5B12!0]	;PRINT FIVE OCTAL DIGITS
   229		037240	000001		OPDEF	PNT5F	[37B8!5B12!1]	;PRINT FIVE OCTAL DIGITS FORCED
   230		037300	000000		OPDEF	PNT6	[37B8!6B12!0]	;PRINT SIX OCTAL DIGITS
   231		037300	000001		OPDEF	PNT6F	[37B8!6B12!1]	;PRINT SIX OCTAL DIGITS FORCED
   232		037340	000000		OPDEF	PNT7	[37B8!7B12!0]	;PRINT 7 OCTAL DIGITS
   233		037340	000001		OPDEF	PNT7F	[37B8!7B12!1]	;PRINT 7 OCTAL DIGITS FORCED
   234		037440	000000		OPDEF	PNT11	[37B8!11B12!0]	;PRINT 11 OCTAL DIGITS
   235		037440	000001		OPDEF	PNT11F	[37B8!11B12!1]	;PRINT 11 OCTAL DIGITS FORCED.
   236		037400	000000		OPDEF	PNTADR	[37B8!10B12!0]	;PRINT PHYSICAL ADDRESS
   237		037400	000001		OPDEF	PNTADF	[37B8!10B12!1]	;PRINT PHYSICAL ADDRESS FORCED
   238		037600	000000		OPDEF	PNTOCT  [37B8!14B12!0]	;PRINT FULL WORD OCTAL
   239		037600	000001		OPDEF	PNTOTF	[37B8!14B12!1]	;PRINT FULL WORD OCTAL FORCED
   240		037540	000000		OPDEF	PNTHW	[37B8!13B12!0]	;PRINT OCTAL HALF WORDS, 6 SP 6
   241		037540	000001		OPDEF	PNTHWF	[37B8!13B12!1]	;PRINT OCTAL HALF WORDS, 6 SP 6 FORCED
   242		037700	000003		OPDEF	PNTOCS	[37B8!16B12!3]	;PRINT OCTAL, SUPPRESS LEADING 0'S
   243		037740	000003		OPDEF	PNTOCF	[37B8!17B12!3]	;PRINT OCTAL, SUPPRESS LEADING 0'S FORCED
   244		037640	000000		OPDEF	PNTDEC	[37B8!15B12!0]	;PRINT DECIMAL, SUPRESS LEADING 0'S
   245		037640	000001		OPDEF	PNTDCF	[37B8!15B12!1]	;PRINT DECIMAL, SUPRESS LEADING 0'S FORCED
   246		037700	000000		OPDEF	PNTDS	[37B8!16B12!0]	;PRINT DECIMAL, SPACES FOR LD 0'S
   247		037700	000001		OPDEF	PNTDSF	[37B8!16B12!1]	;PRINT DECIMAL, SPACES FOR LD 0'S FORCEDDBKCA	PDP-10 KI10 ADVANCED INSTRUCTION DIAGNOSTIC #1, VERSION 0,3 	MACRO %52(462) 10:44  9-AUG-76 PAGE 5
PARAM	KLM	26-FEB-76		*PARAM* PROGRAM/SUBROUTINE PARAMETERS, FEB 26,1976                                 SEQ 0018

   248		037200	000002		OPDEF	PNTNM	[37B8!4B12!2]	;PRINT PROGRAM NAME
   249		037000	000002		OPDEF	PNTSIX	[37B8!0B12!2]	;PRINT SIXBIT WORD
   250		037040	000002		OPDEF	PNTSXF	[37B8!1B12!2]	;PRINT SIXBIT WORD FORCED
   251		037240	000002		OPDEF	DROPDV	[37B8!5B12!2]	;CLOSE LOGICAL FILE, USER MODE
   252		037100	000002		OPDEF	PNTCW	[37B8!2B12!2]	;PRINT DF10 CONTROL WORD
   253		037140	000002		OPDEF	PNTCWF	[37B8!3B12!2]	;PRINT DF10 CONTROL WORD FORCED
   254		037000	030242		OPDEF	PCRL	[37B8!0B12!CRLF] ;PRINT CARRIAGE RETURN/LINE FEED
   255		037040	030242		OPDEF	PCRLF	[37B8!1B12!CRLF] ;PRINT CARRIAGE RETURN/LINE FEED FORCED
   256		037000	000040		OPDEF	PSP	[37B8!0B12!40]	;PRINT SPACE
   257		037040	000040		OPDEF	PSPF	[37B8!1B12!40]	;PRINT SPACE FORCED
   258		037000	030243		OPDEF	PCRL2	[37B8!0B12!CRLF2] ;PRINT CARRIAGE RETURN/LINE FEED (TWICE)
   259		037040	030243		OPDEF	PCRL2F	[37B8!1B12!CRLF2] ;PRINT CARRIAGE RETURN/LINE FEED (TWICE) FORCED
   260		037040	000007		OPDEF	PBELL	[37B8!1B12!7]	;PRINT TTY BELL
   261
   262		037040	000026		OPDEF	PFORCE	[37B8!1B12!26]	;PRINT FORCE, CONTROL O OVERRIDE
   263
   264					DEFINE	PMSG	(ARG),<
   265						PSIXM	[SIXBIT\ARG'_\]>
   266
   267					DEFINE	PMSGF	(ARG),<
   268						PSIXMF	[SIXBIT\ARG'_\]>
   269
   270					;*SIXBTZ -- MACRO TO GENERATE SIXBIT DATA FOR PRINTING
   271					;*	CONSERVES CORE OVER ASCIZ
   272
   273					DEFINE	SIXBTZ	(ARG),<	[SIXBIT\ARG'_\]>
   274
   275					;*CONSOLE SWITCH INPUT UUO.
   276					;*READS CONSOLE SWITCHES IF IN EXEC MODE OR ASKS FOR THEM IF
   277					;* USER MODE.
   278
   279		037400	000002		OPDEF	SWITCH	[37B8!10B12!2]	;INPUT CONSOLE SWITCHES
   280
   281					;*CLOCK INITIALIZATION UUO - TO SET DESIRED CLOCK OPERATION
   282					;*EITHER IGNORE CLOCK, ONLY LET IT TICK OR CAUSE INTERRUPT TO OCCUR.
   283
   284		037540	000004		OPDEF	CLOKOP	[37B8!13B12!4]	;CLOCK OPERATION UUO - PDP-11 CLOCK
   285		037200	000004		OPDEF	MTROP	[37B8!4B12!4]	;CLOCK OPERATION UUO - DK20 METER
   286
   287					;*KL10 ONLY CACHE OPERATION UUO'S
   288
   289		037040	000004		OPDEF	CINVAL	[37B8!1B12!4]	;CACHE INVALIDATE
   290		037100	000004		OPDEF	CFLUSH	[37B8!2B12!4]	;CACHE FLUSH
   291		037140	000004		OPDEF	CWRTBI	[37B8!3B12!4]	;CACHE WRITE-BACK & INVALIDATEDBKCA	PDP-10 KI10 ADVANCED INSTRUCTION DIAGNOSTIC #1, VERSION 0,3 	MACRO %52(462) 10:44  9-AUG-76 PAGE 6
PARAM	KLM	26-FEB-76		*PARAM* PROGRAM/SUBROUTINE PARAMETERS, FEB 26,1976                                 SEQ 0019

   292					;*END OF PASS/PROGRAM UUOS
   293
   294					;PERFORMS THE END OF PASS FUNCTIONS. INCREMENT PASS COUNT,
   295					;*DECREMENT ITERATION COUNT, CHECK IF FINISHED WITH THIS PROGRAM ETC.
   296
   297		037500	000004		OPDEF	ENDUUO	[37B8!12B12!4]	;UUO TO DISPLAY LIGHTS
   298		037700	000004		OPDEF	EOPUUO	[37B8!16B12!4]	;END OF PROGRAM UUO
   299
   300					;*MEMORY MANAGEMENT UUO'S
   301					;*UUO'S TO PERFORM VARIOUS MEMORY FUNCTIONS. MAPPING, ZEROING, PAGING,
   302					;*ADDRESS CONVERSION, ETC...
   303
   304		037000	000004		OPDEF	MAPMEM	[37B8!0B12!4]	;MAP MEMORY
   305		037500	000002		OPDEF	MEMZRO	[37B8!12B12!2]	;ZERO MEMORY
   306		037440	000002		OPDEF	MEMSEG	[37B8!11B12!2]	;SETUP MEMORY SEGMENT
   307		037540	000002		OPDEF	MAPADR	[37B8!13B12!2]	;VIRTUAL TO PHYSICAL ADR CONVERT
   308		037640	000002		OPDEF	MAPCNK	[37B8!15B12!2]	;MAP MEMORY CHUNK
   309		037600	000002		OPDEF	MAPSET	[37B8!14B12!2]	;SET KI10 EXEC PAGE MAP
   310		037740	000002		OPDEF	MAPPNT	[37B8!17B12!2]	;PRINT MEMORY MAP
   311
   312					;*DEVICE CODE MODIFICATION UUO
   313					;*ALLOWS THE MODIFICATION OF IOT'S TO ONE DEVICE TO BE CHANGED TO
   314					;*IOT'S TO A DIFFERENT DEVICE CODE.
   315
   316		037340	000002		OPDEF	MODPCU	[37B8!7B12!2]	;MODIFY PERHIPERAL CODE, USER
   317		037300	000002		OPDEF	MODPCP	[37B8!6B12!2]	;MODIFY PERHIPERAL CODE, PROGRAM
   318
   319						IFNDEF	MODDVL,<MODDVL==BEGIN>
   320						IFNDEF	MODDVU,<MODDVU==BEGIN>
   321
   322					;*"DIAMON" FILE SELECTION AND READ UUOS
   323
   324		037240	000004		OPDEF	FSELECT	[37B8!5B12!4]	;FILE SELECTION
   325		037300	000004		OPDEF	FREAD	[37B8!6B12!4]	;FILE READ - ASCII DATA
   326		037340	000004		OPDEF	FRD36	[37B8!7B12!4]	;FILE READ - 36 BIT DATA
   327		037400	000004		OPDEF	FRD8	[37B8!10B12!4]	;FILE READ - 8 BIT DATA
   328
   329					;*KI10 ONLY UUO FOR PRINTING MARGIN VALUES
   330
   331		037700	000002		OPDEF	PNTMGN	[37B8!16B12!2]	;PRINT MARGIN VALUE
   332
   333						XLIST
   334						LISTDBKCA	PDP-10 KI10 ADVANCED INSTRUCTION DIAGNOSTIC #1, VERSION 0,3 	MACRO %52(462) 10:44  9-AUG-76 PAGE 1
FIXED	KLM	26-FEB-76		*FIXED* FIXED CONTROL AND DISPATCH STORAGE, FEB 26,1976                            SEQ 0020

   335					SUBTTL	*FIXED* FIXED CONTROL AND DISPATCH STORAGE, FEB 26,1976
   336
   337	030000					LOC	30000
   338
   339					S^;*********************************************************************^
   340					;*PROGRAM STARTING ADDRESSES
   341					;*THESE ADDRESSES CALL VARIOUS SPECIAL START ROUTINES AND OR OPTIONS
   342					;*NORMAL START ADDRESS IS 30000 ALL OTHERS ARE SPECIAL. INVOKED BECAUSE
   343					;*OF END OF PASS, POWER FAILURE, DDT START, RE-ENTERING(TYPICALLY USER
   344					;*MODE), OR ANY NUMBER OF SPECIAL FEATURE TESTS.
   345					S^;*********************************************************************^
   346
   347	030000	254 00 1 00 027776 	BEGIN:	JRST	@MODLNK		;STAND-ALONE START
   348	030001	254 00 0 00 030624 	$START:	JRST	START		;MODE CHECK STARTING ADDRESS
   349
   350	030002	254 00 1 00 027774 	DIAGMN:	JRST	@LDLNK		;DIAGNOSTIC MONITOR START
   351
   352	030003	254 00 1 00 027774 	SYSEXR:	JRST	@LDLNK		;SYSTEM EXERCISER START
   353
   354	030004	254 00 0 00 030000 	SFSTRT:	JRST	SADR1		;SPECIAL FEATURE START
   355
   356	030005	254 00 0 00 030076 	PFSTRT:	JRST	SADR2		;POWER FAIL RESTART
   357
   358	030006	254 00 0 00 030600 	REENTR:	JRST	SADR3		;REENTER START(USUALLY USER MODE ONLY)
   359
   360	030007				SRTDDT:				;COMMONLY MISTAKEN NAME FOR "DDTSRT"
   361	030007	254 00 1 00 027775 	DDTSRT:	JRST	@DDTLNK		;DDT START
   362
   363	030010	254 00 0 00 030627 	BEGIN1:	JRST	STARTA		;LOOP START(END OF PASS COMES HERE)
   364	030011	254 00 1 00 027777 	SBINIT:	JRST	@SUBLNK		;PMGINT LINKAGE
   365	030012	000000	000000		RETURN:	0			;RETURN ADDRESS STORAGE
   366
   367	030013	254200	030000		START1:	SADR7			;OPTIONAL STARTING ADR/INSTRUCTIONS
   368	030014	254200	030000		START2:	SADR8			; "
   369	030015	254200	030000		START3:	SADR9			; "
   370	030016	254200	030000		START4:	SADR10			; "
   371	030017	254200	030000		START5:	SADR11			; "DBKCA	PDP-10 KI10 ADVANCED INSTRUCTION DIAGNOSTIC #1, VERSION 0,3 	MACRO %52(462) 10:44  9-AUG-76 PAGE 2
FIXED	KLM	26-FEB-76		*FIXED* FIXED CONTROL AND DISPATCH STORAGE, FEB 26,1976                            SEQ 0021

   372					S^;*********************************************************************^
   373					;*PROGRAM FIXED PARAMETER AREA
   374					S^;*********************************************************************^
   375
   376	030020	444253	434100		PNTNAM:	PAREA3		;SIXBIT PROGRAM NAME
   377	030021	605664	000000		PNTEXT:	PAREA4		;SIXBIT PROGRAM EXTENSION
   378	030022	000000	000000		RANDBS:	PAREA1		;RANDOM BASE NUMBER
   379	030023	000000	000000		SWTEXR:	PAREA2		;SYSTEM EXERCISER SWITCHES
   380	030024	000000	001000		ITRCNT:	ITERAT		;PROGRAM ITERATIONS
   381	030025	000000	030602		$PNAME:	PGMNAM		;POINTER TO PROGRAMS NAME
   382	030026	000000	000003		$PVER:	MCNVER,,DECVER	;MCN & DEC VERSION LEVEL
   383	030027	000000	030000		$MODVL:	MODDVL		;DEVICE CODE CHANGE LOWER LIMIT
   384	030030	000000	030000		$MODVU:	MODDVU		;DEVICE CODE CHANGE UPPER LIMIT
   385	030031	777777	777777		$EMODE:	IFNDEF EXCASB,<0> IFDEF EXCASB,<-1>	;EXEC ALLOWED
   386	030032	777777	777777		$UMODE:	IFNDEF USRASB,<0> IFDEF USRASB,<-1>	;USER ALLOWED
   387	030033	000000	000000		$DSKUP:	IFNDEF DSKUPD,<0> IFDEF DSKUPD,<-1>	;DISK UPDATE MODE
   388	030034	000000	000000		$MMAP:	IFNDEF MEMMAP,<0> IFDEF MEMMAP,<-1>	;ALLOW MEMORY RTNS
   389	030035	000000	000000		PAREA7:	PAREA5		;OPTIONAL PARAMETER
   390	030036	000000	000000		PAREA8:	PAREA6		;OPTIONAL PARAMETER
   391
   392					S^;*********************************************************************^
   393					;*PROGRAM VARIABLE PARAMETER AREA
   394					S^;*********************************************************************^
   395
   396	030037	000000	000000		USER:	0		; 0 = EXEC, -1 = USER MODE FLAG
   397	030040	000000	000000		KAIFLG:	0		;PROCESSOR TYPE, 0 = KA10, -1 = KI10
   398	030041	000000	000000		KLFLG:	0		;PROCESSOR TYPE, 0 = KA/KI, -1 = KL10
   399	030042	777777	777777		MONFLG:	-1		;DIAG MONITOR SPECIAL USER FLAG
   400	030043	000000	000000		MONCTL:	0		;DIAG MON/SYS EXR FLAG
   401	030044	000000	000000		MONTEN:	0		;-1= LOADED BY 10
   402	030045	000000	000000		CLOCKF:	0		;CLOCK TICKED FLAG
   403	030046	000000	000000		CONSW:	0		;CONSOLE SWITCH SETTINGS
   404	030047	000000	000000		PASCNT:	0		;PROGRAM PASS COUNT
   405	030050	000000	000000		RUNFLG:	0		;PROGRAM RUN FLAG
   406	030051	000000	000000		TESTPC:	0		;SUBTEST PC
   407	030052	000000	000000		ERRPC:	0		;ERROR PC
   408	030053	000000	000000		ERRTLS:	0		;ERROR TOTALS
   409	030054	000000	000000		TICKS:	0		;PROGRAM RUNNING TIME
   410	030055	000000	000000		MARGIN:	0		;KI10 MARGIN WORD VALUE
   411	030056	000000	000000		$ONETM:	0		;SUBROUTINE INITIALIZATION FLAGDBKCA	PDP-10 KI10 ADVANCED INSTRUCTION DIAGNOSTIC #1, VERSION 0,3 	MACRO %52(462) 10:44  9-AUG-76 PAGE 3
FIXED	KLM	26-FEB-76		*FIXED* FIXED CONTROL AND DISPATCH STORAGE, FEB 26,1976                            SEQ 0022

   412					S^;*********************************************************************^
   413					;*SPECIAL PROGRAM DISPATCH ADDRESSES
   414					S^;*********************************************************************^
   415
   416	030057	037 12 0 00 000004 	BEGEND:	ENDUUO		;END OF PASS
   417	030060	254 00 0 00 030010 	$BEND1:	JRST	BEGIN1	;KEEP RUNNING PROGRAM
   418	030061	037 16 0 00 000004 	$BEND2:	EOPUUO		;END OF PROGRAM - NO RETURN
   419	030062	000000	030000		CNTLC:	SADR5		;CONTROL C XFER ADDRESS
   420	030063	000000	030000		ALTMGO:	SADR6		;ALTMODE XFER ADDRESS
   421	030064				CPOPJ1:			;SKIP RETURN
   422	030064	350 00 0 17 000000 	UUOSKP:	AOS	(P)	;SKIP RETURN FROM UUO
   423	030065				CPOPJ:			;NON-SKIP REGULAR RETURN
   424	030065	263 17 0 00 000000 	UUOEXT:	RTN		;UUO RETURN
   425	030066	255 00 0 00 000000 	UUORTN:	JFCL		;ADDITIONAL USERS UUO ROUTINE
   426	030067	255 00 0 00 000000 	$UORTX:	JFCL		;ADDITIONAL UUO LINKAGE
   427	030070	255 00 0 00 000000 	$UUOER:	JFCL		;INITED AS (JRST $UOERX)
   428	030071	255 00 0 00 000000 	$ITRHL:	JFCL		;ADDITIONAL INTERRUPT LINKAGE
   429	030072	255 00 0 00 000000 	$ITRX1:	JFCL		; "
   430	030073	255 00 0 00 000000 	$USRHL:	JFCL		; "
   431	030074	255 00 0 00 000000 	$RSRTX:	JFCL		;ADDITIONAL POWER FAIL LINKAGE
   432	030075	255 00 0 00 000000 	$RSRTY:	JFCL		; "
   433	030076	255 00 0 00 000000 	RESRT1:	JFCL		; INITED AS (JRST RESRTX)
   434	030077	255 00 0 00 000000 	RESRT2:	JFCL		; "
   435	030100	255 00 0 00 000000 	$PARER:	JFCL		;ADDITIONAL PARITY ERROR LINKAGE
   436	030101	255 00 0 00 000000 	ERMORE:	JFCL		;ADDITIONAL ERROR HANDLER LINKAGE
   437	030102	254 04 0 00 030102 		HALT	.	;IMPROPER TRANSFER HALT
   438
   439	030103	000000	000000		$PSHER:	0		;INITED AS (JRST PSHERR)
   440	030104	000000	000000		ITRCH1:	0		;PC & FLAGS OF CURRENT INTERRUPT
   441	030105	000000	000000			0		;INITED AS (JRST $ITRC1)
   442
   443					S^;*********************************************************************^
   444					;*PROCESSOR CONTROL STORAGE
   445					S^;*********************************************************************^
   446
   447	030106	000000	000000		$ACC0:	0		;INTERRUPT SAVED AC0
   448	030107	000000	000000		$SVPI:	0		;INTERRUPT SAVED PI
   449	030110	000000	000000		$SVAPR:	0		;INTERRUPT SAVED APR
   450	030111	000000	000000		$SVPAG:	0		;INTERRUPT SAVED PAG (DATAI)
   451	030112	000000	000000		$SPAG1:	0		;INTERRUPT SAVED PAG (CONI)
   452
   453	030113	000000	000000		$SVUUO:	0		;CURRENT USERS UUO
   454	030114	000000	000000		$SVUPC:	0		;PC OF CURRENT USERS UUO
   455
   456	030115	000000	000000		REPTU:	0		;REPEAT UUO ITERATIONS
   457	030116	000000	000000		SCOPE:	0		;ERROR HANDLER SCOPE LOOP FLAG
   458	030117	000000	000000		%CORFLG:0		; " CORRECT FLAG
   459	030120	000000	000000		%COREC:	0		; " CORRECT DATA
   460	030121	000000	000000		%ACTFL:	0		; " ACTUAL FLAG
   461	030122	000000	000000		%ACTUL:	0		; " ACTUAL DATA
   462	030123	000000	000000		%DISCR:	0		; " DISCREPENCY DATADBKCA	PDP-10 KI10 ADVANCED INSTRUCTION DIAGNOSTIC #1, VERSION 0,3 	MACRO %52(462) 10:44  9-AUG-76 PAGE 4
FIXED	KLM	26-FEB-76		*FIXED* FIXED CONTROL AND DISPATCH STORAGE, FEB 26,1976                            SEQ 0023

   463					S^;*********************************************************************^
   464					;*UUO DISPATCH TABLE
   465					S^;*********************************************************************^
   466						XLIST
   467						LIST
   468	030124	037615	030070		UUODIS:	LUUO1,,$UUOER
   469	030125	037615	037615			LUUO3,,LUUO2
   470	030126	037615	037615			LUUO5,,LUUO4
   471	030127	037615	037615			LUUO7,,LUUO6
   472	030130	037615	037615			LUUO11,,LUUO10
   473	030131	037615	037615			LUUO13,,LUUO12
   474	030132	030070	030070			LUUO15,,LUUO14
   475	030133	030070	030070			LUUO17,,LUUO16
   476	030134	030070	030070			LUUO21,,LUUO20
   477	030135	030070	030070			LUUO23,,LUUO22
   478	030136	030070	030070			LUUO25,,LUUO24
   479	030137	030070	030070			LUUO27,,LUUO26
   480	030140	030070	030070			LUUO31,,LUUO30
   481	030141	030070	030070			LUUO33,,LUUO32
   482
   483					S^;*********************************************************************^
   484					;*MEMORY MANAGMENT STORAGE
   485					S^;*********************************************************************^
   486
   487	030142	000000	000000		DF22F:	0		;DF10 CONTROL FLAG, 0 = 18, -1 = 22 BIT
   488	030143	000000	000000		MAPNEW:	0		;MEMORY MAPPING CONTROL FLAG, -1 = 4096K MAPPING
   489	030144	000000	000000		MEMTOT:	0		;TOTAL MEMORY SIZE IN K (1024.)
   490	030145	000000	000000		MEMLOW:	0		;LOWEST USABLE MEMORY
   491	030146				MEMSIZ:	BLOCK ^D41	;MEMORY SEGMENT POINTER TABLE
   492
   493					S^;*********************************************************************^
   494					;*PRINT CONTROL STORAGE
   495					S^;*********************************************************************^
   496
   497	030217	000000	000000		PNTFLG:	0		;PRINT FLAG, -1 WHILE IN PRINT ROUTINE
   498	030220	000000	000000		PNTENB:	0		;PRINT ENABLE
   499	030221	000000	000000		PDISF:	0		;PRINT DISABLED FLAG
   500	030222	000000	000000		PNTINH:	0		;INHIBIT PRINT INPUT CHECKS
   501	030223	000000	000000		PNTSPC:	0		;PRINT SPACE CONTROL
   502	030224	000000	000000		OPTIME:	0		;TYPE-IN WAIT TIME
   503	030225	000000	000000		$TWCNT:	0		;TIME WAITED
   504	030226	000000	000000		$DVOFF:	0		;LOGICAL DEVICE INITED FLAG
   505	030227	000000	000000		TTYFIL:	0		;TTY EXEC FILLERS FLAG
   506	030230	000000	000000		TTYSPD:	0		;TTY EXEC BAUD RATE
   507	030231	000000	000000		$TTCHR:	0		;ACTUAL TYPED IN CHAR
   508	030232	000000	000000		$CHRIN:	0		;UPPER CASED & PARITY STRIPPED CHAR
   509	030233	000000	000000		$TYPNB:	0		;TYPED IN NUMBER
   510	030234	000000	000000		$CRLF:	0		;FREE CR/LF FLAG
   511	030235	000000	000000		$TABF:	0		;TAB CONVERSION FLAG
   512	030236	000000	000000		$FFF:	0		;FORM FEED CONVERSION FLAG
   513	030237	000000	000000		$VTF:	0		;VERTICAL TAB CONVERSION FLAG
   514	030240	000000	000000		USRLFF:	0		;USER LF FILLERS
   515	030241	000000	000000		USRCRF:	0		;USER CR FILLERSDBKCA	PDP-10 KI10 ADVANCED INSTRUCTION DIAGNOSTIC #1, VERSION 0,3 	MACRO %52(462) 10:44  9-AUG-76 PAGE 5
FIXED	KLM	26-FEB-76		*FIXED* FIXED CONTROL AND DISPATCH STORAGE, FEB 26,1976                            SEQ 0024

   516					S^;*********************************************************************^
   517					;*THE FOLLOWING MISCELLANEOUS PRINT CHARACTERS ARE INCLUDED
   518					;*TO FACILITATE PRINTING AND ARE CALLED AS FOLLOWS:
   519					;*	MOVEI	NAME
   520					;*	PNTA		;OR PNTAF
   521					S^;*********************************************************************^
   522
   523	030242				CRLF:	ASCII/
   524	030242	015 012 000 000 000 	/
   525	030243				CRLF2:	ASCII/
   526
   527	030243	015 012 015 012 000 	/
   528	030244	054 000 000 000 000 	COMMA:	ASCII/,/
   529	030245	056 000 000 000 000 	PERIOD:	ASCII/./
   530	030246	040 000 000 000 000 	SPACE:	ASCII/ /
   531	030247	011 000 000 000 000 	TAB:	ASCII/	/
   532	030250				MINUS:
   533	030250	055 000 000 000 000 	HYPEN:	ASCII/-/
   534	030251	053 000 000 000 000 	PLUS:	ASCII/+/
   535	030252	052 000 000 000 000 	AST:	ASCII/*/
   536	030253	100 000 000 000 000 	ATSIN:	ASCII/@/
   537	030254	050 000 000 000 000 	LFP:	ASCII/(/
   538	030255	051 000 000 000 000 	RTP:	ASCII/)/
   539	030256	007 0000000000 		BELL:	BYTE (7) 007
   540	030257	077 000 000 000 000 	QUEST:	ASCII/?/
   541	030260	057 000 000 000 000 	SLASH:	ASCII!/!
   542	030261	044 000 000 000 000 	DOLLAR:	ASCII/$/
   543	030262	000000	000012		RADIX:	^D10			;DECIMAL PRINT RADIX
   544	030263	000000	000040		RADLSP:	40			;DECIMAL PRINT LEADING CHAR
   545	030264	000000	000012		RADLSC:	^D10			;DECIMAL PRINT LEADING CHAR COUNT
   546
   547					S^;*********************************************************************^
   548					;*USER MODE OUTPUT FILE INFORMATION
   549					S^;*********************************************************************^
   550
   551	030265				$OBUF:	BLOCK	3		;LOGICAL FILE OUTPUT BUFFER HEADER
   552	030270	60 62 51 56 64 00 	$OUTNM:	SIXBIT	/PRINT/		;FILE NAME
   553	030271	60 56 64 00 00 00 	$OUTEX:	SIXBIT	/PNT/		;FILE NAME EXTENSION
   554	030272					BLOCK	2
   555
   556					S^;*********************************************************************^
   557					;*DISK UPDATE MODE FILE INFORMATION
   558					S^;*********************************************************************^
   559
   560	030274				$IBUF:	BLOCK	3
   561	030277	60 62 51 56 64 00 	$INNM:	SIXBIT	/PRINT/
   562	030300	60 56 64 00 00 00 	$INEXT:	SIXBIT	/PNT/
   563	030301					BLOCK	2DBKCA	PDP-10 KI10 ADVANCED INSTRUCTION DIAGNOSTIC #1, VERSION 0,3 	MACRO %52(462) 10:44  9-AUG-76 PAGE 6
FIXED	KLM	26-FEB-76		*FIXED* FIXED CONTROL AND DISPATCH STORAGE, FEB 26,1976                            SEQ 0025

   564					S^;*********************************************************************^
   565					;*PUSHDOWN LIST CONTROL INFORMATION
   566					S^;*********************************************************************^
   567
   568	030303	777577	030303		PLIST:	PLIST-PLISTE,,PLIST
   569	030304				PLISTS:	BLOCK	200
   570	030504	000000	000000		PLISTE:	0		;END OF PUSHDOWN LIST
   571
   572					S^;*********************************************************************^
   573					;*POWER LINE CLOCK FREQUENCY FLAG
   574					S^;*********************************************************************^
   575
   576	030505	000000	000000		CYCL60:	0	;0 = 60, -1 = 50 CYCLE
   577
   578					S^;*********************************************************************^
   579					;*KL10 CACHE CONTROL FLAGS
   580					S^;*********************************************************************^
   581
   582	030506	000000	000000		CSHFLG:	0	;ALLOW CACHE IF 0
   583	030507	000000	000000		CSHMEM:	0	;CACHE MEMORY SEGMENTS IF 0
   584
   585					S^;*********************************************************************^
   586					;*NUMBER INPUT DIGIT FLAG
   587					S^;*********************************************************************^
   588
   589	030510	000000	000000		TTNBRF:	0	;-1 IF ANY DIGIT TYPED
   590
   591					S^;*********************************************************************^
   592					;*KL10 & KI10 "INHPAG" SWITCH PAGING PREVENTION
   593					S^;*********************************************************************^
   594
   595	030511	000000	000000		PVPAGI:	0	;IF NON-ZERO, OVERRIDE "INHPAG" SWITCH ACTION
   596
   597					S^;*********************************************************************^
   598					;*ERROR REPORTING ROUTINE ADDITIONAL USERS CONTROL INSTRUCTIONS
   599					S^;*********************************************************************^
   600
   601	030512	000000	000000		%ERHI1:	0	;IF NON-ZERO, XCT'D AT START OF %ERUUO
   602	030513	000000	000000		%ERHI2:	0	;IF NON-ZERO, XCT'D AT END OF %ERUUO
   603	030514	000000	000000		%ERHI3:	0	;IF NON-ZERO, XCT'D AFTER "PC" OF %ERUUO
   604
   605					S^;*********************************************************************^
   606					;*SPECIAL USERS UUO INTERCEPT INSTRUCTION
   607					S^;*********************************************************************^
   608
   609	030515	000000	000000		$$UUO:	0	;IF NON-ZERO, XCT'D AT START OF $UORTNDBKCA	PDP-10 KI10 ADVANCED INSTRUCTION DIAGNOSTIC #1, VERSION 0,3 	MACRO %52(462) 10:44  9-AUG-76 PAGE 7
FIXED	KLM	26-FEB-76		*FIXED* FIXED CONTROL AND DISPATCH STORAGE, FEB 26,1976                            SEQ 0026

   610					S^;*********************************************************************^
   611					;*KL10 PROCESSOR TYPE FLAG, 0=P0, 1=BBD NEW, 2=BBD OLD
   612					S^;*********************************************************************^
   613
   614	030516	000000	000000		KLTYP:	0
   615
   616					S^;*********************************************************************^
   617					;*SPECIAL USERS MUUO INTERCEPT INSTRUCTION
   618					S^;*********************************************************************^
   619
   620	030517	000000	000000		$$MUUO:	0	;IF NON-ZERO, XCT'D AT START OF MUUOER
   621
   622					S^;*********************************************************************^
   623					;*SPECIAL USERS USER MODE OUTPUT ERROR INTERCEPT INSTUCTION
   624					S^;*********************************************************************^
   625
   626	030520	000000	000000		$$OUTER:0	;IF NON-ZERO, XCT'D AT END OF USER MODE ERROR
   627
   628					S^;*********************************************************************^
   629					;*"SWITCH" CALL USAGE CONTROL
   630					S^;*********************************************************************^
   631
   632	030521	000000	000000		$$TOGGLE:0	;IF NON-ZERO, USE C(CONSW) FOR SWITCHES
   633
   634					S^;*********************************************************************^
   635					;*SPECIAL USERS ALTMODE SWITCH CALL INTERCEPT INSTRUCTIONS
   636					S^;*********************************************************************^
   637
   638	030522	000000	000000		$$TAX1:	0	;IF NON-ZERO, XCT'D AT START OF ALTMODE SWITCH CALL
   639	030523	000000	000000		$$TAX2:	0	;IF NON-ZERO, XCT'D AT END OF ALTMODE SWITCH CALL
   640
   641					S^;*********************************************************************^
   642					;*SPECIAL FUTURE EXPANSION ROOM
   643					;*IF ANY FIXED AREA TAGS ARE ADDED, REDUCE THE SIZE OF
   644					;*THIS BLOCK STATEMENT ACCORDINGLY.  THIS MUST BE DONE
   645					;*SO THAT PREVIOUS FIXED ASSIGNMENTS DO NOT CHANGE.
   646					S^;*********************************************************************^
   647
   648	030524					BLOCK	53	;HOPEFULLY THIS IS ENOUGH FOREVER
   649
   650					S^;*********************************************************************^
   651					;*END OF FIXED STORAGE
   652					S^;*********************************************************************^
   653
   654			030577			$ENDFX=<PLISTE+100>&<777700>-1
   655	030577					LOC	$ENDFX
   656	030577	000000	000000		ENDFIX:	0		;END OF FIXED STORAGEDBKCA	PDP-10 KI10 ADVANCED INSTRUCTION DIAGNOSTIC #1, VERSION 0,3 	MACRO %52(462) 10:44  9-AUG-76 PAGE 1
DBKCAM	MAC	26-MAY-76 16:51		DIAGNOSTIC SECTION                                                                 SEQ 0027

   657					SUBTTL	DIAGNOSTIC SECTION
   658					;	GENERAL DESCRIPTION
   659					;PART   IA  -FSC AND NORMALIZE RETURN
   660					;PART   IB  -FAD AND NORMALIZE RETURN
   661					;PART   IC  -FAD LONG,NORMALIZE RETURN AND ROUND
   662					;PART   ID  -FSB AND UFA
   663					;PART   IE  -GEN TEST FSC,FAD,FADR,FSB,FSBR AND UFA
   664
   665	030600	037 05 0 00 000002 	RENTR1:	DROPDV			;CLOSE LOGICAL OUTPUT FILE
   666	030601	040 00 0 00 040022 		CALL	[SIXBIT .EXIT.]
   667
   668	030602				PGMNAM:	ASCIZ?
   669	030602	015 012 120 104 120 	PDP-10 KI10 ADVANCED INSTRUCTION DIAGNOSTIC #1 (DBKCA)
   670	030603	055 061 060 040 113
   671	030604	111 061 060 040 101
   672	030605	104 126 101 116 103
   673	030606	105 104 040 111 116
   674	030607	123 124 122 125 103
   675	030610	124 111 117 116 040
   676	030611	104 111 101 107 116
   677	030612	117 123 124 111 103
   678	030613	040 043 061 040 050
   679	030614	104 102 113 103 101
   680	030615	051 015 012 050 106 	(FSC, FLOATING ADD/SUB, UFA)
   681	030616	123 103 054 040 106
   682	030617	114 117 101 124 111
   683	030620	116 107 040 101 104
   684	030621	104 057 123 125 102
   685	030622	054 040 125 106 101
   686	030623	051 015 012 000 000 	?
   687					;INITIALIZE SUBROUTINES
   688
   689	030624	265 00 0 00 030011 	START:	PGMINT
   690	030625	200 00 0 00 040023 		MOVE	[ASCIZ/CA/]
   691	030626	202 00 0 00 037736 		MOVEM	TLET		;INITIALIZE TEST LETTER
   692
   693	030627	254 00 0 00 030630 	STARTA:	JRST	CA00		;GO PERFORM DIAGNOSTICDBKCA	PDP-10 KI10 ADVANCED INSTRUCTION DIAGNOSTIC #1, VERSION 0,3 	MACRO %52(462) 10:44  9-AUG-76 PAGE 2
DBKCAM	MAC	26-MAY-76 16:51		PART I.A - FSC AND NORMALIZE RETURN                                                SEQ 0028

   694					SUBTTL	PART I.A - FSC AND NORMALIZE RETURN
   695
   696					;PART I.A - FSC AND NORMALIZE RETURN
   697					;FAILURE RESULTS IN A LOSS
   698					;OF EXPONENT
   699					;AC=570400000000
   700					;SCALE=7
   701					;FINAL AC=777400000000
   702
   703	030630				CA00:	LALL
   704
   705			000013			AC=13
   706						SAVEAC	(1,1)^
   707	030630	201 15 0 00 030630 		MOVEI	AC+2,.
   708	030631	202 15 0 00 030051 		MOVEM	AC+2,TESTPC	;SETUP SUBTEST PC
   709	030632	201 15 0 00 000015 		MOVEI	AC+2,<AC+2>&17	;INFORM ERROR ROUTINE WHICH
   710	030633	202 15 0 00 040261 		MOVEM	AC+2,ERRLOP#	;AC IS USED FOR ITERATION^
   711
   712	030634	205 11 0 00 777400 	O12300:	MOVSI	AC-2,777400	;SETUP FOR COMPARISON
   713	030635	205 13 0 00 570400 		MOVSI	AC,570400	;SETUP AC
   714	030636	132 13 0 00 000007 		FSC	AC,7		;RESCALE
   715	030637	316 13 0 00 000011 		CAMN	AC,AC-2		;TEST AC=777400000000
   716	030640	003 13 0 00 012301 		ER3	AC,12301
   717	030641	321 15 0 00 030634 		JUMPL	AC+2,O12300	;LOOP ON ERROR SWITCH
   718
   719					;AC=000400000000
   720					;SCALE=0
   721					;FAILURE RESULTS IN AN EXPONENT
   722					;EQUAL TO 376
   723
   724			000012			AC=12
   725						SAVEAC	(1,1)^
   726	030642	201 14 0 00 030642 		MOVEI	AC+2,.
   727	030643	202 14 0 00 030051 		MOVEM	AC+2,TESTPC	;SETUP SUBTEST PC
   728	030644	201 14 0 00 000014 		MOVEI	AC+2,<AC+2>&17	;INFORM ERROR ROUTINE WHICH
   729	030645	202 14 0 00 040261 		MOVEM	AC+2,ERRLOP#	;AC IS USED FOR ITERATION^
   730
   731	030646	205 10 0 00 376400 	O12400:	MOVSI	AC-2,376400	;SETUP FOR COMPARISON
   732	030647	205 12 0 00 000400 		MOVSI	AC,400		;SETUP AC
   733	030650	132 12 0 00 000000 		FSC	AC,0		;RESCALE
   734	030651	316 12 0 00 000010 		CAMN	AC,AC-2		;TEST EXP=376
   735	030652	003 12 0 00 012401 		ER3	AC,12401	;SCAD SC COMP SETUP FAILED
   736	030653	321 14 0 00 030646 		JUMPL	AC+2,O12400	;LOOP ON ERROR SWITCHDBKCA	PDP-10 KI10 ADVANCED INSTRUCTION DIAGNOSTIC #1, VERSION 0,3 	MACRO %52(462) 10:44  9-AUG-76 PAGE 3
DBKCAM	MAC	26-MAY-76 16:51		PART I.A - FSC AND NORMALIZE RETURN                                                SEQ 0029

   737					;AC=175400000000
   738					;SCALE=0
   739					;FAILURE RESULTS IN AN EXPONENT
   740					;EQUAL TO 002
   741
   742			000011			AC=11
   743						SAVEAC	(1,1)^
   744	030654	201 13 0 00 030654 		MOVEI	AC+2,.
   745	030655	202 13 0 00 030051 		MOVEM	AC+2,TESTPC	;SETUP SUBTEST PC
   746	030656	201 13 0 00 000013 		MOVEI	AC+2,<AC+2>&17	;INFORM ERROR ROUTINE WHICH
   747	030657	202 13 0 00 040261 		MOVEM	AC+2,ERRLOP#	;AC IS USED FOR ITERATION^
   748
   749	030660	205 07 0 00 177400 	O12500:	MOVSI	AC-2,177400	;SETUP FOR COMPARISON
   750	030661	205 11 0 00 175400 		MOVSI	AC,175400	;SETUP AC
   751	030662	132 11 0 00 000000 		FSC	AC,0		;RESCALE
   752	030663	316 11 0 00 000007 		CAMN	AC,AC-2		;TEST EXP=177
   753	030664	003 11 0 00 012501 		ER3	AC,12501
   754	030665	321 13 0 00 030660 		JUMPL	AC+2,O12500	;LOOP ON ERROR SWITCH
   755
   756					;AC=000400000000
   757					;SCALE=0
   758					;FAILURE OF 1, 2, OR 3 RESULTS IN AN
   759					;EXPONENT EQUAL TO 377
   760
   761			000010			AC=10
   762						SAVEAC	(1,1)^
   763	030666	201 12 0 00 030666 		MOVEI	AC+2,.
   764	030667	202 12 0 00 030051 		MOVEM	AC+2,TESTPC	;SETUP SUBTEST PC
   765	030670	201 12 0 00 000012 		MOVEI	AC+2,<AC+2>&17	;INFORM ERROR ROUTINE WHICH
   766	030671	202 12 0 00 040261 		MOVEM	AC+2,ERRLOP#	;AC IS USED FOR ITERATION^
   767
   768	030672	205 06 0 00 377400 	O12600:	MOVSI	AC-2,377400	;SETUP FOR COMPARISON
   769	030673	205 10 0 00 000400 		MOVSI	AC,400		;SETUP AC
   770	030674	132 10 0 00 000000 		FSC	AC,0		;RESCALE
   771	030675	316 10 0 00 000006 		CAMN	AC,AC-2		;TEST EXP=377
   772	030676	003 10 0 00 012601 		ER3	AC,12601
   773	030677	321 12 0 00 030672 		JUMPL	AC+2,O12600	;LOOP ON ERROR SWITCHDBKCA	PDP-10 KI10 ADVANCED INSTRUCTION DIAGNOSTIC #1, VERSION 0,3 	MACRO %52(462) 10:44  9-AUG-76 PAGE 4
DBKCAM	MAC	26-MAY-76 16:51		PART I.A - FSC AND NORMALIZE RETURN                                                SEQ 0030

   774					;AC=000400000000
   775					;SCALE=177
   776					;FAILURE RESULTS IN AN
   777					;EXPONENT=0
   778
   779			000007			AC=7
   780						SAVEAC	(1,1)^
   781	030700	201 11 0 00 030700 		MOVEI	AC+2,.
   782	030701	202 11 0 00 030051 		MOVEM	AC+2,TESTPC	;SETUP SUBTEST PC
   783	030702	201 11 0 00 000011 		MOVEI	AC+2,<AC+2>&17	;INFORM ERROR ROUTINE WHICH
   784	030703	202 11 0 00 040261 		MOVEM	AC+2,ERRLOP#	;AC IS USED FOR ITERATION^
   785
   786	030704	205 05 0 00 000400 	O12700:	MOVSI	AC-2,400	;SETUP FOR COMPARISON
   787	030705	205 07 0 00 000400 		MOVSI	AC,400		;SETUP AC
   788	030706	132 07 0 00 000177 		FSC	AC,177		;RESCALE
   789	030707	316 07 0 00 000005 		CAMN	AC,AC-2		;TEST EXP=0
   790	030710	003 07 0 00 012701 		ER3	AC,12701
   791	030711	321 11 0 00 030704 		JUMPL	AC+2,O12700	;LOOP ON ERROR SWITCH
   792					PAGEDBKCA	PDP-10 KI10 ADVANCED INSTRUCTION DIAGNOSTIC #1, VERSION 0,3 	MACRO %52(462) 10:44  9-AUG-76 PAGE 4-1
DBKCAM	MAC	26-MAY-76 16:51		PART I.A - FSC AND NORMALIZE RETURN                                                SEQ 0031

   793					;AC=000400000000
   794					;SCALE=201,202,204,210,220,240,300
   795					;FAILURE OF A BIT TO SET RESULTS IN AN
   796					;EXPONENT EQUAL TO 200
   797
   798			000006			AC=6
   799						SAVEAC	(1,1)^
   800	030712	201 10 0 00 030712 		MOVEI	AC+2,.
   801	030713	202 10 0 00 030051 		MOVEM	AC+2,TESTPC	;SETUP SUBTEST PC
   802	030714	201 10 0 00 000010 		MOVEI	AC+2,<AC+2>&17	;INFORM ERROR ROUTINE WHICH
   803	030715	202 10 0 00 040261 		MOVEM	AC+2,ERRLOP#	;AC IS USED FOR ITERATION^
   804
   805			013000		SN=13000
   806			000000			ZZ=0
   807
   808							;TEST BITS 8-2
   809					O13000:	REPEAT	^D7,<
   810					SN=SN+1
   811						ZZ=ZZ+ZZ
   812						IFE	ZZ,<ZZ=1>
   813						MOVSI	AC-2,200400	;SETUP FOR COMPARISON
   814						MOVSI	AC,400		;SETUP AC
   815						FSC	AC,200+ZZ	;RESCALE
   816						CAMN	AC,AC-2		;TEST EXP=200
   817						ER3	AC,SN		;BIT UNDER TEST FAILED TO SET
   818						JUMPL	AC+2,.-5	;LOOP ON ERROR SWITCH
   819					>
   820
   821			013001		SN=SN+1
   822			000000			ZZ=ZZ+ZZ
   823			000001			IFE	ZZ,<ZZ=1>
   824	030716	205 04 0 00 200400 		MOVSI	AC-2,200400	;SETUP FOR COMPARISON
   825	030717	205 06 0 00 000400 		MOVSI	AC,400		;SETUP AC
   826	030720	132 06 0 00 000201 		FSC	AC,200+ZZ	;RESCALE
   827	030721	316 06 0 00 000004 		CAMN	AC,AC-2		;TEST EXP=200
   828	030722	003 06 0 00 013001 		ER3	AC,SN		;BIT UNDER TEST FAILED TO SET
   829	030723	321 10 0 00 030716 		JUMPL	AC+2,.-5	;LOOP ON ERROR SWITCH
   830
   831
   832			013002		SN=SN+1
   833			000002			ZZ=ZZ+ZZ
   834						IFE	ZZ,<ZZ=1>
   835	030724	205 04 0 00 200400 		MOVSI	AC-2,200400	;SETUP FOR COMPARISON
   836	030725	205 06 0 00 000400 		MOVSI	AC,400		;SETUP AC
   837	030726	132 06 0 00 000202 		FSC	AC,200+ZZ	;RESCALE
   838	030727	316 06 0 00 000004 		CAMN	AC,AC-2		;TEST EXP=200
   839	030730	003 06 0 00 013002 		ER3	AC,SN		;BIT UNDER TEST FAILED TO SET
   840	030731	321 10 0 00 030724 		JUMPL	AC+2,.-5	;LOOP ON ERROR SWITCH
   841
   842
   843			013003		SN=SN+1
   844			000004			ZZ=ZZ+ZZ
   845						IFE	ZZ,<ZZ=1>
   846	030732	205 04 0 00 200400 		MOVSI	AC-2,200400	;SETUP FOR COMPARISON
   847	030733	205 06 0 00 000400 		MOVSI	AC,400		;SETUP ACDBKCA	PDP-10 KI10 ADVANCED INSTRUCTION DIAGNOSTIC #1, VERSION 0,3 	MACRO %52(462) 10:44  9-AUG-76 PAGE 4-2
DBKCAM	MAC	26-MAY-76 16:51		PART I.A - FSC AND NORMALIZE RETURN                                                SEQ 0032

   848	030734	132 06 0 00 000204 		FSC	AC,200+ZZ	;RESCALE
   849	030735	316 06 0 00 000004 		CAMN	AC,AC-2		;TEST EXP=200
   850	030736	003 06 0 00 013003 		ER3	AC,SN		;BIT UNDER TEST FAILED TO SET
   851	030737	321 10 0 00 030732 		JUMPL	AC+2,.-5	;LOOP ON ERROR SWITCH
   852
   853
   854			013004		SN=SN+1
   855			000010			ZZ=ZZ+ZZ
   856						IFE	ZZ,<ZZ=1>
   857	030740	205 04 0 00 200400 		MOVSI	AC-2,200400	;SETUP FOR COMPARISON
   858	030741	205 06 0 00 000400 		MOVSI	AC,400		;SETUP AC
   859	030742	132 06 0 00 000210 		FSC	AC,200+ZZ	;RESCALE
   860	030743	316 06 0 00 000004 		CAMN	AC,AC-2		;TEST EXP=200
   861	030744	003 06 0 00 013004 		ER3	AC,SN		;BIT UNDER TEST FAILED TO SET
   862	030745	321 10 0 00 030740 		JUMPL	AC+2,.-5	;LOOP ON ERROR SWITCH
   863
   864
   865			013005		SN=SN+1
   866			000020			ZZ=ZZ+ZZ
   867						IFE	ZZ,<ZZ=1>
   868	030746	205 04 0 00 200400 		MOVSI	AC-2,200400	;SETUP FOR COMPARISON
   869	030747	205 06 0 00 000400 		MOVSI	AC,400		;SETUP AC
   870	030750	132 06 0 00 000220 		FSC	AC,200+ZZ	;RESCALE
   871	030751	316 06 0 00 000004 		CAMN	AC,AC-2		;TEST EXP=200
   872	030752	003 06 0 00 013005 		ER3	AC,SN		;BIT UNDER TEST FAILED TO SET
   873	030753	321 10 0 00 030746 		JUMPL	AC+2,.-5	;LOOP ON ERROR SWITCH
   874
   875
   876			013006		SN=SN+1
   877			000040			ZZ=ZZ+ZZ
   878						IFE	ZZ,<ZZ=1>
   879	030754	205 04 0 00 200400 		MOVSI	AC-2,200400	;SETUP FOR COMPARISON
   880	030755	205 06 0 00 000400 		MOVSI	AC,400		;SETUP AC
   881	030756	132 06 0 00 000240 		FSC	AC,200+ZZ	;RESCALE
   882	030757	316 06 0 00 000004 		CAMN	AC,AC-2		;TEST EXP=200
   883	030760	003 06 0 00 013006 		ER3	AC,SN		;BIT UNDER TEST FAILED TO SET
   884	030761	321 10 0 00 030754 		JUMPL	AC+2,.-5	;LOOP ON ERROR SWITCH
   885
   886
   887			013007		SN=SN+1
   888			000100			ZZ=ZZ+ZZ
   889						IFE	ZZ,<ZZ=1>
   890	030762	205 04 0 00 200400 		MOVSI	AC-2,200400	;SETUP FOR COMPARISON
   891	030763	205 06 0 00 000400 		MOVSI	AC,400		;SETUP AC
   892	030764	132 06 0 00 000300 		FSC	AC,200+ZZ	;RESCALE
   893	030765	316 06 0 00 000004 		CAMN	AC,AC-2		;TEST EXP=200
   894	030766	003 06 0 00 013007 		ER3	AC,SN		;BIT UNDER TEST FAILED TO SET
   895	030767	321 10 0 00 030762 		JUMPL	AC+2,.-5	;LOOP ON ERROR SWITCH
   896DBKCA	PDP-10 KI10 ADVANCED INSTRUCTION DIAGNOSTIC #1, VERSION 0,3 	MACRO %52(462) 10:44  9-AUG-76 PAGE 5
DBKCAM	MAC	26-MAY-76 16:51		PART I.A - FSC AND NORMALIZE RETURN                                                SEQ 0033

   897					;TEST ABILITY TO TRANSFER ZERO'S
   898					;TEST ABILITY TO CLEAR SC8-2
   899					;EXPONENT =1,2,4,10,20,40,100
   900					;SCALE = 375,373,367,357,337,277,177
   901					;FAILURE OF A BIT TO CLEAR RESULTS
   902					;IN AN EXPONENT = 377
   903
   904			000005			AC=5
   905						SAVEAC	(1,1)^
   906	030770	201 07 0 00 030770 		MOVEI	AC+2,.
   907	030771	202 07 0 00 030051 		MOVEM	AC+2,TESTPC	;SETUP SUBTEST PC
   908	030772	201 07 0 00 000007 		MOVEI	AC+2,<AC+2>&17	;INFORM ERROR ROUTINE WHICH
   909	030773	202 07 0 00 040261 		MOVEM	AC+2,ERRLOP#	;AC IS USED FOR ITERATION^
   910
   911			013100		SN=13100
   912			000200			WW=200
   913			001000			XX=1000
   914			000176			ZZ=176
   915
   916							;TEST BITS 8-2
   917					O13100:	REPEAT  ^D7,<
   918					SN=SN+1
   919						WW=WW+WW
   920						XX=XX+WW
   921						ZZ=ZZ+ZZ+1
   922						MOVSI	AC-2,377400	;SETUP FOR COMPARISON
   923						MOVSI	AC,XX		;SETUP AC
   924						FSC	AC,ZZ		;RESCALE
   925						CAMN	AC,AC-2		;TEST EXP = 377
   926						ER3	AC,SN		;BIT UNDER TEST FAILED TO CLEAR
   927						JUMPL	AC+2,.-5	;LOOP ON ERROR SWITCH
   928					>
   929
   930			013101		SN=SN+1
   931			000400			WW=WW+WW
   932			001400			XX=XX+WW
   933			000375			ZZ=ZZ+ZZ+1
   934	030774	205 03 0 00 377400 		MOVSI	AC-2,377400	;SETUP FOR COMPARISON
   935	030775	205 05 0 00 001400 		MOVSI	AC,XX		;SETUP AC
   936	030776	132 05 0 00 000375 		FSC	AC,ZZ		;RESCALE
   937	030777	316 05 0 00 000003 		CAMN	AC,AC-2		;TEST EXP = 377
   938	031000	003 05 0 00 013101 		ER3	AC,SN		;BIT UNDER TEST FAILED TO CLEAR
   939	031001	321 07 0 00 030774 		JUMPL	AC+2,.-5	;LOOP ON ERROR SWITCH
   940
   941
   942			013102		SN=SN+1
   943			001000			WW=WW+WW
   944			002400			XX=XX+WW
   945			000773			ZZ=ZZ+ZZ+1
   946	031002	205 03 0 00 377400 		MOVSI	AC-2,377400	;SETUP FOR COMPARISON
   947	031003	205 05 0 00 002400 		MOVSI	AC,XX		;SETUP AC
   948	031004	132 05 0 00 000773 		FSC	AC,ZZ		;RESCALE
   949	031005	316 05 0 00 000003 		CAMN	AC,AC-2		;TEST EXP = 377
   950	031006	003 05 0 00 013102 		ER3	AC,SN		;BIT UNDER TEST FAILED TO CLEAR
   951	031007	321 07 0 00 031002 		JUMPL	AC+2,.-5	;LOOP ON ERROR SWITCHDBKCA	PDP-10 KI10 ADVANCED INSTRUCTION DIAGNOSTIC #1, VERSION 0,3 	MACRO %52(462) 10:44  9-AUG-76 PAGE 5-1
DBKCAM	MAC	26-MAY-76 16:51		PART I.A - FSC AND NORMALIZE RETURN                                                SEQ 0034

   952
   953
   954			013103		SN=SN+1
   955			002000			WW=WW+WW
   956			004400			XX=XX+WW
   957			001767			ZZ=ZZ+ZZ+1
   958	031010	205 03 0 00 377400 		MOVSI	AC-2,377400	;SETUP FOR COMPARISON
   959	031011	205 05 0 00 004400 		MOVSI	AC,XX		;SETUP AC
   960	031012	132 05 0 00 001767 		FSC	AC,ZZ		;RESCALE
   961	031013	316 05 0 00 000003 		CAMN	AC,AC-2		;TEST EXP = 377
   962	031014	003 05 0 00 013103 		ER3	AC,SN		;BIT UNDER TEST FAILED TO CLEAR
   963	031015	321 07 0 00 031010 		JUMPL	AC+2,.-5	;LOOP ON ERROR SWITCH
   964
   965
   966			013104		SN=SN+1
   967			004000			WW=WW+WW
   968			010400			XX=XX+WW
   969			003757			ZZ=ZZ+ZZ+1
   970	031016	205 03 0 00 377400 		MOVSI	AC-2,377400	;SETUP FOR COMPARISON
   971	031017	205 05 0 00 010400 		MOVSI	AC,XX		;SETUP AC
   972	031020	132 05 0 00 003757 		FSC	AC,ZZ		;RESCALE
   973	031021	316 05 0 00 000003 		CAMN	AC,AC-2		;TEST EXP = 377
   974	031022	003 05 0 00 013104 		ER3	AC,SN		;BIT UNDER TEST FAILED TO CLEAR
   975	031023	321 07 0 00 031016 		JUMPL	AC+2,.-5	;LOOP ON ERROR SWITCH
   976
   977
   978			013105		SN=SN+1
   979			010000			WW=WW+WW
   980			020400			XX=XX+WW
   981			007737			ZZ=ZZ+ZZ+1
   982	031024	205 03 0 00 377400 		MOVSI	AC-2,377400	;SETUP FOR COMPARISON
   983	031025	205 05 0 00 020400 		MOVSI	AC,XX		;SETUP AC
   984	031026	132 05 0 00 007737 		FSC	AC,ZZ		;RESCALE
   985	031027	316 05 0 00 000003 		CAMN	AC,AC-2		;TEST EXP = 377
   986	031030	003 05 0 00 013105 		ER3	AC,SN		;BIT UNDER TEST FAILED TO CLEAR
   987	031031	321 07 0 00 031024 		JUMPL	AC+2,.-5	;LOOP ON ERROR SWITCH
   988
   989
   990			013106		SN=SN+1
   991			020000			WW=WW+WW
   992			040400			XX=XX+WW
   993			017677			ZZ=ZZ+ZZ+1
   994	031032	205 03 0 00 377400 		MOVSI	AC-2,377400	;SETUP FOR COMPARISON
   995	031033	205 05 0 00 040400 		MOVSI	AC,XX		;SETUP AC
   996	031034	132 05 0 00 017677 		FSC	AC,ZZ		;RESCALE
   997	031035	316 05 0 00 000003 		CAMN	AC,AC-2		;TEST EXP = 377
   998	031036	003 05 0 00 013106 		ER3	AC,SN		;BIT UNDER TEST FAILED TO CLEAR
   999	031037	321 07 0 00 031032 		JUMPL	AC+2,.-5	;LOOP ON ERROR SWITCH
  1000
  1001
  1002			013107		SN=SN+1
  1003			040000			WW=WW+WW
  1004			100400			XX=XX+WW
  1005			037577			ZZ=ZZ+ZZ+1
  1006	031040	205 03 0 00 377400 		MOVSI	AC-2,377400	;SETUP FOR COMPARISONDBKCA	PDP-10 KI10 ADVANCED INSTRUCTION DIAGNOSTIC #1, VERSION 0,3 	MACRO %52(462) 10:44  9-AUG-76 PAGE 5-2
DBKCAM	MAC	26-MAY-76 16:51		PART I.A - FSC AND NORMALIZE RETURN                                                SEQ 0035

  1007	031041	205 05 0 00 100400 		MOVSI	AC,XX		;SETUP AC
  1008	031042	132 05 0 00 037577 		FSC	AC,ZZ		;RESCALE
  1009	031043	316 05 0 00 000003 		CAMN	AC,AC-2		;TEST EXP = 377
  1010	031044	003 05 0 00 013107 		ER3	AC,SN		;BIT UNDER TEST FAILED TO CLEAR
  1011	031045	321 07 0 00 031040 		JUMPL	AC+2,.-5	;LOOP ON ERROR SWITCH
  1012
  1013					PAGEDBKCA	PDP-10 KI10 ADVANCED INSTRUCTION DIAGNOSTIC #1, VERSION 0,3 	MACRO %52(462) 10:44  9-AUG-76 PAGE 5-3
DBKCAM	MAC	26-MAY-76 16:51		PART I.A - FSC AND NORMALIZE RETURN                                                SEQ 0036

  1014					;AC=200400000000
  1015					;SCALE=5
  1016					;FAILURE OF ANY ONE RESULTS IN LOSS
  1017					;OF THE EXPONENT. THE RESULTANT EXPONENT
  1018					;IS EQUAL TO THE SCALING FACTOR
  1019
  1020			000014			AC=14
  1021						SAVEAC	(1,1)^
  1022	031046	201 16 0 00 031046 		MOVEI	AC+2,.
  1023	031047	202 16 0 00 030051 		MOVEM	AC+2,TESTPC	;SETUP SUBTEST PC
  1024	031050	201 16 0 00 000016 		MOVEI	AC+2,<AC+2>&17	;INFORM ERROR ROUTINE WHICH
  1025	031051	202 16 0 00 040261 		MOVEM	AC+2,ERRLOP#	;AC IS USED FOR ITERATION^
  1026
  1027	031052	205 12 0 00 005400 	O13200:	MOVSI	AC-2,5400	;SETUP FOR COMPARISON
  1028	031053	205 14 0 00 200400 		MOVSI	AC,200400	;SETUP AC
  1029	031054	132 14 0 00 000005 		FSC	AC,5		;RESCALE
  1030	031055	316 14 0 00 000012 		CAMN	AC,AC-2		;TEST EXP=5
  1031	031056	003 14 0 00 013201 		ER3	AC,13201
  1032	031057	321 16 0 00 031052 		JUMPL	AC+2,O13200	;LOOP ON ERROR SWITCHDBKCA	PDP-10 KI10 ADVANCED INSTRUCTION DIAGNOSTIC #1, VERSION 0,3 	MACRO %52(462) 10:44  9-AUG-76 PAGE 6
DBKCAM	MAC	26-MAY-76 16:51		PART I.A - FSC AND NORMALIZE RETURN                                                SEQ 0037

  1033					;EXPONENT = 201,202,204,210,220,240,300
  1034					;SCALE=0
  1035					;FAILURE OF A BIT TO SET RESULTS IN AN
  1036					;EXPONENT EQUAL TO 200
  1037
  1038			000014			AC=14
  1039						SAVEAC	(1,1)^
  1040	031060	201 16 0 00 031060 		MOVEI	AC+2,.
  1041	031061	202 16 0 00 030051 		MOVEM	AC+2,TESTPC	;SETUP SUBTEST PC
  1042	031062	201 16 0 00 000016 		MOVEI	AC+2,<AC+2>&17	;INFORM ERROR ROUTINE WHICH
  1043	031063	202 16 0 00 040261 		MOVEM	AC+2,ERRLOP#	;AC IS USED FOR ITERATION^
  1044
  1045			013300		SN=13300
  1046			000200			XX=200
  1047			201000			ZZ=201000
  1048
  1049							;TEST BITS 8-2
  1050					O13300:	REPEAT	^D7,<
  1051					SN=SN+1
  1052						XX=XX+XX
  1053						ZZ=ZZ+XX
  1054						MOVSI	AC-2,200400	;SETUP FOR COMPARISON
  1055						MOVSI	AC,ZZ		;SETUP AC
  1056						FSC	AC,0		;RESCALE
  1057						CAMN	AC,AC-2		;TEST EXP=200
  1058						ER3	AC,SN		;GATE UNDER TEST FAILED TO SET
  1059						JUMPL	AC+2,.-5	;LOOP ON ERROR SWITCH
  1060					>
  1061
  1062			013301		SN=SN+1
  1063			000400			XX=XX+XX
  1064			201400			ZZ=ZZ+XX
  1065	031064	205 12 0 00 200400 		MOVSI	AC-2,200400	;SETUP FOR COMPARISON
  1066	031065	205 14 0 00 201400 		MOVSI	AC,ZZ		;SETUP AC
  1067	031066	132 14 0 00 000000 		FSC	AC,0		;RESCALE
  1068	031067	316 14 0 00 000012 		CAMN	AC,AC-2		;TEST EXP=200
  1069	031070	003 14 0 00 013301 		ER3	AC,SN		;GATE UNDER TEST FAILED TO SET
  1070	031071	321 16 0 00 031064 		JUMPL	AC+2,.-5	;LOOP ON ERROR SWITCH
  1071
  1072
  1073			013302		SN=SN+1
  1074			001000			XX=XX+XX
  1075			202400			ZZ=ZZ+XX
  1076	031072	205 12 0 00 200400 		MOVSI	AC-2,200400	;SETUP FOR COMPARISON
  1077	031073	205 14 0 00 202400 		MOVSI	AC,ZZ		;SETUP AC
  1078	031074	132 14 0 00 000000 		FSC	AC,0		;RESCALE
  1079	031075	316 14 0 00 000012 		CAMN	AC,AC-2		;TEST EXP=200
  1080	031076	003 14 0 00 013302 		ER3	AC,SN		;GATE UNDER TEST FAILED TO SET
  1081	031077	321 16 0 00 031072 		JUMPL	AC+2,.-5	;LOOP ON ERROR SWITCH
  1082
  1083
  1084			013303		SN=SN+1
  1085			002000			XX=XX+XX
  1086			204400			ZZ=ZZ+XX
  1087	031100	205 12 0 00 200400 		MOVSI	AC-2,200400	;SETUP FOR COMPARISONDBKCA	PDP-10 KI10 ADVANCED INSTRUCTION DIAGNOSTIC #1, VERSION 0,3 	MACRO %52(462) 10:44  9-AUG-76 PAGE 6-1
DBKCAM	MAC	26-MAY-76 16:51		PART I.A - FSC AND NORMALIZE RETURN                                                SEQ 0038

  1088	031101	205 14 0 00 204400 		MOVSI	AC,ZZ		;SETUP AC
  1089	031102	132 14 0 00 000000 		FSC	AC,0		;RESCALE
  1090	031103	316 14 0 00 000012 		CAMN	AC,AC-2		;TEST EXP=200
  1091	031104	003 14 0 00 013303 		ER3	AC,SN		;GATE UNDER TEST FAILED TO SET
  1092	031105	321 16 0 00 031100 		JUMPL	AC+2,.-5	;LOOP ON ERROR SWITCH
  1093
  1094
  1095			013304		SN=SN+1
  1096			004000			XX=XX+XX
  1097			210400			ZZ=ZZ+XX
  1098	031106	205 12 0 00 200400 		MOVSI	AC-2,200400	;SETUP FOR COMPARISON
  1099	031107	205 14 0 00 210400 		MOVSI	AC,ZZ		;SETUP AC
  1100	031110	132 14 0 00 000000 		FSC	AC,0		;RESCALE
  1101	031111	316 14 0 00 000012 		CAMN	AC,AC-2		;TEST EXP=200
  1102	031112	003 14 0 00 013304 		ER3	AC,SN		;GATE UNDER TEST FAILED TO SET
  1103	031113	321 16 0 00 031106 		JUMPL	AC+2,.-5	;LOOP ON ERROR SWITCH
  1104
  1105
  1106			013305		SN=SN+1
  1107			010000			XX=XX+XX
  1108			220400			ZZ=ZZ+XX
  1109	031114	205 12 0 00 200400 		MOVSI	AC-2,200400	;SETUP FOR COMPARISON
  1110	031115	205 14 0 00 220400 		MOVSI	AC,ZZ		;SETUP AC
  1111	031116	132 14 0 00 000000 		FSC	AC,0		;RESCALE
  1112	031117	316 14 0 00 000012 		CAMN	AC,AC-2		;TEST EXP=200
  1113	031120	003 14 0 00 013305 		ER3	AC,SN		;GATE UNDER TEST FAILED TO SET
  1114	031121	321 16 0 00 031114 		JUMPL	AC+2,.-5	;LOOP ON ERROR SWITCH
  1115
  1116
  1117			013306		SN=SN+1
  1118			020000			XX=XX+XX
  1119			240400			ZZ=ZZ+XX
  1120	031122	205 12 0 00 200400 		MOVSI	AC-2,200400	;SETUP FOR COMPARISON
  1121	031123	205 14 0 00 240400 		MOVSI	AC,ZZ		;SETUP AC
  1122	031124	132 14 0 00 000000 		FSC	AC,0		;RESCALE
  1123	031125	316 14 0 00 000012 		CAMN	AC,AC-2		;TEST EXP=200
  1124	031126	003 14 0 00 013306 		ER3	AC,SN		;GATE UNDER TEST FAILED TO SET
  1125	031127	321 16 0 00 031122 		JUMPL	AC+2,.-5	;LOOP ON ERROR SWITCH
  1126
  1127
  1128			013307		SN=SN+1
  1129			040000			XX=XX+XX
  1130			300400			ZZ=ZZ+XX
  1131	031130	205 12 0 00 200400 		MOVSI	AC-2,200400	;SETUP FOR COMPARISON
  1132	031131	205 14 0 00 300400 		MOVSI	AC,ZZ		;SETUP AC
  1133	031132	132 14 0 00 000000 		FSC	AC,0		;RESCALE
  1134	031133	316 14 0 00 000012 		CAMN	AC,AC-2		;TEST EXP=200
  1135	031134	003 14 0 00 013307 		ER3	AC,SN		;GATE UNDER TEST FAILED TO SET
  1136	031135	321 16 0 00 031130 		JUMPL	AC+2,.-5	;LOOP ON ERROR SWITCH
  1137DBKCA	PDP-10 KI10 ADVANCED INSTRUCTION DIAGNOSTIC #1, VERSION 0,3 	MACRO %52(462) 10:44  9-AUG-76 PAGE 7
DBKCAM	MAC	26-MAY-76 16:51		PART I.A - FSC AND NORMALIZE RETURN                                                SEQ 0039

  1138					;TEST SC DATA1-8 GATES - (ZERO'S)
  1139					;TEST SCAD INPUT GATES - (ZERO'S)
  1140					;EXPONENT = 376,375,373,367,357,337,277,177
  1141					;SCALE = 1,2,4,10,20,40,100,200
  1142					;FAILURE RESULTS IN AN EXPONENT =
  1143					;0,1,3,7,17,37,77,177
  1144
  1145			000013			AC=13
  1146						SAVEAC	(1,1)^
  1147	031136	201 15 0 00 031136 		MOVEI	AC+2,.
  1148	031137	202 15 0 00 030051 		MOVEM	AC+2,TESTPC	;SETUP SUBTEST PC
  1149	031140	201 15 0 00 000015 		MOVEI	AC+2,<AC+2>&17	;INFORM ERROR ROUTINE WHICH
  1150	031141	202 15 0 00 040261 		MOVEM	AC+2,ERRLOP#	;AC IS USED FOR ITERATION^
  1151
  1152									;TEST SCAD8
  1153	031142	205 11 0 00 000400 	O13400:	MOVSI	AC-2,400	;SETUP FOR COMPARISON
  1154	031143	205 13 0 00 376400 		MOVSI	AC,376400	;SETUP AC
  1155	031144	132 13 0 00 000001 		FSC	AC,1		;RESCALE
  1156	031145	316 13 0 00 000011 		CAMN	AC,AC-2		;TEST EXP = 0
  1157	031146	003 13 0 00 013401 		ER3	AC,13401	;SCAD 8 SET
  1158	031147	321 15 0 00 031142 		JUMPL	AC+2,O13400	;LOOP ON ERROR SWITCH
  1159
  1160									;TEST SCAD7
  1161	031150	205 11 0 00 001400 	O13500:	MOVSI	AC-2,1400	;SETUP FOR COMPARISON
  1162	031151	205 13 0 00 375400 		MOVSI	AC,375400	;SETUP AC
  1163	031152	132 13 0 00 000002 		FSC	AC,2		;RESCALE
  1164	031153	316 13 0 00 000011 		CAMN	AC,AC-2		;TEST EXP=1
  1165	031154	003 13 0 00 013501 		ER3	AC,13501	;SCAD7 SET
  1166	031155	321 15 0 00 031150 		JUMPL	AC+2,O13500	;LOOP ON ERROR SWITCH
  1167
  1168									;TEST SCAD6
  1169	031156	205 11 0 00 003400 	O13600:	MOVSI	AC-2,3400	;SETUP FOR COMPARISON
  1170	031157	205 13 0 00 373400 		MOVSI	AC,373400	;SETUP AC
  1171	031160	132 13 0 00 000004 		FSC	AC,4		;RESCALE
  1172	031161	316 13 0 00 000011 		CAMN	AC,AC-2		;TEST EXP=3
  1173	031162	003 13 0 00 013601 		ER3	AC,13601	;SCAD6 SET
  1174	031163	321 15 0 00 031156 		JUMPL	AC+2,O13600	;LOOP ON ERROR SWITCH
  1175
  1176									;TEST SCAD5
  1177	031164	205 11 0 00 007400 	O13700:	MOVSI	AC-2,7400	;SETUP FOR COMPARISON
  1178	031165	205 13 0 00 367400 		MOVSI	AC,367400	;SETUP AC
  1179	031166	132 13 0 00 000010 		FSC	AC,10		;RESCALE
  1180	031167	316 13 0 00 000011 		CAMN	AC,AC-2		;TEST EXP=7
  1181	031170	003 13 0 00 013701 		ER3	AC,13701	;SCAD5 SET
  1182	031171	321 15 0 00 031164 		JUMPL	AC+2,O13700	;LOOP ON ERROR SWITCHDBKCA	PDP-10 KI10 ADVANCED INSTRUCTION DIAGNOSTIC #1, VERSION 0,3 	MACRO %52(462) 10:44  9-AUG-76 PAGE 8
DBKCAM	MAC	26-MAY-76 16:51		PART I.A - FSC AND NORMALIZE RETURN                                                SEQ 0040

  1183									;TEST SCAD4
  1184	031172	205 11 0 00 017400 	O14000:	MOVSI	AC-2,17400	;SETUP FOR COMPARISON
  1185	031173	205 13 0 00 357400 		MOVSI	AC,357400	;SETUP AC
  1186	031174	132 13 0 00 000020 		FSC	AC,20		;RESCALE
  1187	031175	316 13 0 00 000011 		CAMN	AC,AC-2		;TEST EXP=17
  1188	031176	003 13 0 00 014001 		ER3	AC,14001	;SCAD4 SET
  1189	031177	321 15 0 00 031172 		JUMPL	AC+2,O14000	;LOOP ON ERROR SWITCH
  1190
  1191									;TEST SCAD3
  1192	031200	205 11 0 00 037400 	O14100:	MOVSI	AC-2,37400	;SETUP FOR COMPARISON
  1193	031201	205 13 0 00 337400 		MOVSI	AC,337400	;SETUP AC
  1194	031202	132 13 0 00 000040 		FSC	AC,40		;RESCALE
  1195	031203	316 13 0 00 000011 		CAMN	AC,AC-2		;TEST EXP=37
  1196	031204	003 13 0 00 014101 		ER3	AC,14101	;SCAD3 SET
  1197	031205	321 15 0 00 031200 		JUMPL	AC+2,O14100	;LOOP ON ERROR SWITCH
  1198
  1199									;TEST SCAD2
  1200	031206	205 11 0 00 077400 	O14200:	MOVSI	AC-2,77400	;SETUP FOR COMPARISON
  1201	031207	205 13 0 00 277400 		MOVSI	AC,277400	;SETUP AC
  1202	031210	132 13 0 00 000100 		FSC	AC,100		;RESCALE
  1203	031211	316 13 0 00 000011 		CAMN	AC,AC-2		;TEST EXP=77
  1204	031212	003 13 0 00 014201 		ER3	AC,14201	;SCAD2 SET
  1205	031213	321 15 0 00 031206 		JUMPL	AC+2,O14200	;LOOP ON ERROR SWITCH
  1206
  1207									;TEST SCAD1
  1208	031214	205 11 0 00 177400 	O14300:	MOVSI	AC-2,177400	;SETUP FOR COMPARISON
  1209	031215	205 13 0 00 177400 		MOVSI	AC,177400	;SETUP AC
  1210	031216	132 13 0 00 000200 		FSC	AC,200		;RESCALE
  1211	031217	316 13 0 00 000011 		CAMN	AC,AC-2		;TEST EXP=177
  1212	031220	003 13 0 00 014301 		ER3	AC,14301	;SCAD1 SET
  1213	031221	321 15 0 00 031214 		JUMPL	AC+2,O14300	;LOOP ON ERROR SWITCHDBKCA	PDP-10 KI10 ADVANCED INSTRUCTION DIAGNOSTIC #1, VERSION 0,3 	MACRO %52(462) 10:44  9-AUG-76 PAGE 9
DBKCAM	MAC	26-MAY-76 16:51		PART I.A - FSC AND NORMALIZE RETURN                                                SEQ 0041

  1214					;AC=577200000000
  1215					;SCALE=1
  1216					;FAILURE RESULTS IN AN EXPONENT
  1217					;EQUAL TO 776
  1218
  1219			000012			AC=12
  1220						SAVEAC	(1,1)^
  1221	031222	201 14 0 00 031222 		MOVEI	AC+2,.
  1222	031223	202 14 0 00 030051 		MOVEM	AC+2,TESTPC	;SETUP SUBTEST PC
  1223	031224	201 14 0 00 000014 		MOVEI	AC+2,<AC+2>&17	;INFORM ERROR ROUTINE WHICH
  1224	031225	202 14 0 00 040261 		MOVEM	AC+2,ERRLOP#	;AC IS USED FOR ITERATION^
  1225
  1226	031226	205 10 0 00 776200 	O14400:	MOVSI	AC-2,776200	;SETUP FOR COMPARISON
  1227	031227	205 12 0 00 577200 		MOVSI	AC,577200	;SETUP AC
  1228	031230	132 12 0 00 000001 		FSC	AC,1		;RESCALE
  1229	031231	316 12 0 00 000010 		CAMN	AC,AC-2		;TEST EXP=776
  1230	031232	003 12 0 00 014401 		ER3	AC,14401
  1231	031233	321 14 0 00 031226 		JUMPL	AC+2,O14400	;LOOP ON ERROR SWITCH
  1232
  1233					;AC=577200000000
  1234					;SCALING FACTOR=0
  1235					;SETTING SCAD+1 EN RESULTS IN AN
  1236					;EXPONENT=576
  1237
  1238			000011			AC=11
  1239						SAVEAC	(1,1)^
  1240	031234	201 13 0 00 031234 		MOVEI	AC+2,.
  1241	031235	202 13 0 00 030051 		MOVEM	AC+2,TESTPC	;SETUP SUBTEST PC
  1242	031236	201 13 0 00 000013 		MOVEI	AC+2,<AC+2>&17	;INFORM ERROR ROUTINE WHICH
  1243	031237	202 13 0 00 040261 		MOVEM	AC+2,ERRLOP#	;AC IS USED FOR ITERATION^
  1244
  1245	031240	205 07 0 00 576200 	O14500:	MOVSI	AC-2,576200	;SETUP FOR COMPARISON
  1246	031241	205 11 0 00 577200 		MOVSI	AC,577200	;SETUP AC
  1247	031242	132 11 0 00 000000 		FSC	AC,0		;RESCALE
  1248	031243	316 11 0 00 000007 		CAMN	AC,AC-2		;TEST EXP=576
  1249	031244	003 11 0 00 014501 		ER3	AC,14501
  1250	031245	321 13 0 00 031240 		JUMPL	AC+2,O14500	;LOOP ON ERROR SWITCH
  1251					PAGEDBKCA	PDP-10 KI10 ADVANCED INSTRUCTION DIAGNOSTIC #1, VERSION 0,3 	MACRO %52(462) 10:44  9-AUG-76 PAGE 9-1
DBKCAM	MAC	26-MAY-76 16:51		PART I.A - FSC AND NORMALIZE RETURN                                                SEQ 0042

  1252					;TEST ABILITY TO TRANSFER ZERO'S
  1253					;EXP=776,775,773,767,757,737,677,577
  1254					;SCALING FACTOR=0
  1255					;FAILURE OF A BIT TO CLEAR RESULTS IN
  1256					;AN EXPONENT=777
  1257
  1258			000010			AC=10
  1259						SAVEAC	(1,1)^
  1260	031246	201 12 0 00 031246 		MOVEI	AC+2,.
  1261	031247	202 12 0 00 030051 		MOVEM	AC+2,TESTPC	;SETUP SUBTEST PC
  1262	031250	201 12 0 00 000012 		MOVEI	AC+2,<AC+2>&17	;INFORM ERROR ROUTINE WHICH
  1263	031251	202 12 0 00 040261 		MOVEM	AC+2,ERRLOP#	;AC IS USED FOR ITERATION^
  1264			014600		SN=14600
  1265			376400			ZZ=376400
  1266
  1267
  1268					O14600:	REPEAT	^D8,<
  1269					SN=SN+1
  1270						ZZ=<ZZ+ZZ+1000>&777777
  1271						MOVSI	AC-2,777200	;SETUP FOR COMPARISON
  1272						MOVSI	AC,200+ZZ	;SETUP AC
  1273						FSC	AC,0		;RESCALE
  1274						CAMN	AC,AC-2		;TEST EXP=777
  1275						ER3	AC,SN
  1276						JUMPL	AC+2,.-5	;LOOP ON ERROR SWITCH
  1277					>
  1278
  1279			014601		SN=SN+1
  1280			776000			ZZ=<ZZ+ZZ+1000>&777777
  1281	031252	205 06 0 00 777200 		MOVSI	AC-2,777200	;SETUP FOR COMPARISON
  1282	031253	205 10 0 00 776200 		MOVSI	AC,200+ZZ	;SETUP AC
  1283	031254	132 10 0 00 000000 		FSC	AC,0		;RESCALE
  1284	031255	316 10 0 00 000006 		CAMN	AC,AC-2		;TEST EXP=777
  1285	031256	003 10 0 00 014601 		ER3	AC,SN
  1286	031257	321 12 0 00 031252 		JUMPL	AC+2,.-5	;LOOP ON ERROR SWITCH
  1287
  1288
  1289			014602		SN=SN+1
  1290			775000			ZZ=<ZZ+ZZ+1000>&777777
  1291	031260	205 06 0 00 777200 		MOVSI	AC-2,777200	;SETUP FOR COMPARISON
  1292	031261	205 10 0 00 775200 		MOVSI	AC,200+ZZ	;SETUP AC
  1293	031262	132 10 0 00 000000 		FSC	AC,0		;RESCALE
  1294	031263	316 10 0 00 000006 		CAMN	AC,AC-2		;TEST EXP=777
  1295	031264	003 10 0 00 014602 		ER3	AC,SN
  1296	031265	321 12 0 00 031260 		JUMPL	AC+2,.-5	;LOOP ON ERROR SWITCH
  1297
  1298
  1299			014603		SN=SN+1
  1300			773000			ZZ=<ZZ+ZZ+1000>&777777
  1301	031266	205 06 0 00 777200 		MOVSI	AC-2,777200	;SETUP FOR COMPARISON
  1302	031267	205 10 0 00 773200 		MOVSI	AC,200+ZZ	;SETUP AC
  1303	031270	132 10 0 00 000000 		FSC	AC,0		;RESCALE
  1304	031271	316 10 0 00 000006 		CAMN	AC,AC-2		;TEST EXP=777
  1305	031272	003 10 0 00 014603 		ER3	AC,SN
  1306	031273	321 12 0 00 031266 		JUMPL	AC+2,.-5	;LOOP ON ERROR SWITCHDBKCA	PDP-10 KI10 ADVANCED INSTRUCTION DIAGNOSTIC #1, VERSION 0,3 	MACRO %52(462) 10:44  9-AUG-76 PAGE 9-2
DBKCAM	MAC	26-MAY-76 16:51		PART I.A - FSC AND NORMALIZE RETURN                                                SEQ 0043

  1307
  1308
  1309			014604		SN=SN+1
  1310			767000			ZZ=<ZZ+ZZ+1000>&777777
  1311	031274	205 06 0 00 777200 		MOVSI	AC-2,777200	;SETUP FOR COMPARISON
  1312	031275	205 10 0 00 767200 		MOVSI	AC,200+ZZ	;SETUP AC
  1313	031276	132 10 0 00 000000 		FSC	AC,0		;RESCALE
  1314	031277	316 10 0 00 000006 		CAMN	AC,AC-2		;TEST EXP=777
  1315	031300	003 10 0 00 014604 		ER3	AC,SN
  1316	031301	321 12 0 00 031274 		JUMPL	AC+2,.-5	;LOOP ON ERROR SWITCH
  1317
  1318
  1319			014605		SN=SN+1
  1320			757000			ZZ=<ZZ+ZZ+1000>&777777
  1321	031302	205 06 0 00 777200 		MOVSI	AC-2,777200	;SETUP FOR COMPARISON
  1322	031303	205 10 0 00 757200 		MOVSI	AC,200+ZZ	;SETUP AC
  1323	031304	132 10 0 00 000000 		FSC	AC,0		;RESCALE
  1324	031305	316 10 0 00 000006 		CAMN	AC,AC-2		;TEST EXP=777
  1325	031306	003 10 0 00 014605 		ER3	AC,SN
  1326	031307	321 12 0 00 031302 		JUMPL	AC+2,.-5	;LOOP ON ERROR SWITCH
  1327
  1328
  1329			014606		SN=SN+1
  1330			737000			ZZ=<ZZ+ZZ+1000>&777777
  1331	031310	205 06 0 00 777200 		MOVSI	AC-2,777200	;SETUP FOR COMPARISON
  1332	031311	205 10 0 00 737200 		MOVSI	AC,200+ZZ	;SETUP AC
  1333	031312	132 10 0 00 000000 		FSC	AC,0		;RESCALE
  1334	031313	316 10 0 00 000006 		CAMN	AC,AC-2		;TEST EXP=777
  1335	031314	003 10 0 00 014606 		ER3	AC,SN
  1336	031315	321 12 0 00 031310 		JUMPL	AC+2,.-5	;LOOP ON ERROR SWITCH
  1337
  1338
  1339			014607		SN=SN+1
  1340			677000			ZZ=<ZZ+ZZ+1000>&777777
  1341	031316	205 06 0 00 777200 		MOVSI	AC-2,777200	;SETUP FOR COMPARISON
  1342	031317	205 10 0 00 677200 		MOVSI	AC,200+ZZ	;SETUP AC
  1343	031320	132 10 0 00 000000 		FSC	AC,0		;RESCALE
  1344	031321	316 10 0 00 000006 		CAMN	AC,AC-2		;TEST EXP=777
  1345	031322	003 10 0 00 014607 		ER3	AC,SN
  1346	031323	321 12 0 00 031316 		JUMPL	AC+2,.-5	;LOOP ON ERROR SWITCH
  1347
  1348
  1349			014610		SN=SN+1
  1350			577000			ZZ=<ZZ+ZZ+1000>&777777
  1351	031324	205 06 0 00 777200 		MOVSI	AC-2,777200	;SETUP FOR COMPARISON
  1352	031325	205 10 0 00 577200 		MOVSI	AC,200+ZZ	;SETUP AC
  1353	031326	132 10 0 00 000000 		FSC	AC,0		;RESCALE
  1354	031327	316 10 0 00 000006 		CAMN	AC,AC-2		;TEST EXP=777
  1355	031330	003 10 0 00 014610 		ER3	AC,SN
  1356	031331	321 12 0 00 031324 		JUMPL	AC+2,.-5	;LOOP ON ERROR SWITCH
  1357DBKCA	PDP-10 KI10 ADVANCED INSTRUCTION DIAGNOSTIC #1, VERSION 0,3 	MACRO %52(462) 10:44  9-AUG-76 PAGE 10
DBKCAM	MAC	26-MAY-76 16:51		PART I.A - FSC AND NORMALIZE RETURN                                                SEQ 0044

  1358					;AC=206200000000
  1359					;SCALING FACTOR=0
  1360
  1361			000007			AC=7
  1362						SAVEAC	(1,1)^
  1363	031332	201 11 0 00 031332 		MOVEI	AC+2,.
  1364	031333	202 11 0 00 030051 		MOVEM	AC+2,TESTPC	;SETUP SUBTEST PC
  1365	031334	201 11 0 00 000011 		MOVEI	AC+2,<AC+2>&17	;INFORM ERROR ROUTINE WHICH
  1366	031335	202 11 0 00 040261 		MOVEM	AC+2,ERRLOP#	;AC IS USED FOR ITERATION^
  1367
  1368	031336	205 05 0 00 206200 	O14700:	MOVSI	AC-2,206200	;SETUP FOR COMPARISON
  1369	031337	205 07 0 00 206200 		MOVSI	AC,206200	;SETUP AC
  1370	031340	132 07 0 00 000000 		FSC	AC,0		;RESCALE
  1371	031341	316 07 0 00 000005 		CAMN	AC,AC-2		;TEST AC=ORIG
  1372	031342	003 07 0 00 014701 		ER3	AC,14701
  1373	031343	321 11 0 00 031336 		JUMPL	AC+2,O14700	;LOOP ON ERROR SWITCH
  1374
  1375					;AC=577600000000
  1376					;SCALING FACTOR=0
  1377
  1378			000006			AC=6
  1379						SAVEAC	(1,1)^
  1380	031344	201 10 0 00 031344 		MOVEI	AC+2,.
  1381	031345	202 10 0 00 030051 		MOVEM	AC+2,TESTPC	;SETUP SUBTEST PC
  1382	031346	201 10 0 00 000010 		MOVEI	AC+2,<AC+2>&17	;INFORM ERROR ROUTINE WHICH
  1383	031347	202 10 0 00 040261 		MOVEM	AC+2,ERRLOP#	;AC IS USED FOR ITERATION^
  1384
  1385	031350	205 04 0 00 577600 	O15000:	MOVSI	AC-2,577600	;SETUP FOR COMPARISON
  1386	031351	205 06 0 00 577600 		MOVSI	AC,577600	;SETUP AC
  1387	031352	132 06 0 00 000000 		FSC	AC,0		;RESCALE
  1388	031353	316 06 0 00 000004 		CAMN	AC,AC-2		;TEST AC=ORIG
  1389	031354	003 06 0 00 015001 		ER3	AC,15001
  1390	031355	321 10 0 00 031350 		JUMPL	AC+2,O15000	;LOOP ON ERROR SWITCH
  1391
  1392					;AC=206200000000
  1393					;SCALING FACTOR=0
  1394					;FAILURE RESULTS IN AN EXPONENT
  1395					;EQUAL TO 170, THE FRACTION IS NORMALIZED
  1396
  1397			000005			AC=5
  1398						SAVEAC	(1,1)^
  1399	031356	201 07 0 00 031356 		MOVEI	AC+2,.
  1400	031357	202 07 0 00 030051 		MOVEM	AC+2,TESTPC	;SETUP SUBTEST PC
  1401	031360	201 07 0 00 000007 		MOVEI	AC+2,<AC+2>&17	;INFORM ERROR ROUTINE WHICH
  1402	031361	202 07 0 00 040261 		MOVEM	AC+2,ERRLOP#	;AC IS USED FOR ITERATION^
  1403
  1404	031362	205 03 0 00 170400 	O15100:	MOVSI	AC-2,170400	;SETUP FOR COMPARISON
  1405	031363	205 05 0 00 206200 		MOVSI	AC,206200	;SETUP AC
  1406	031364	132 05 0 00 000000 		FSC	AC,0		;RESCALE
  1407	031365	316 05 0 00 000003 		CAMN	AC,AC-2		;TEST EXP=170
  1408	031366	003 05 0 00 015101 		ER3	AC,15101
  1409	031367	321 07 0 00 031362 		JUMPL	AC+2,O15100	;LOOP ON ERROR SWITCHDBKCA	PDP-10 KI10 ADVANCED INSTRUCTION DIAGNOSTIC #1, VERSION 0,3 	MACRO %52(462) 10:44  9-AUG-76 PAGE 11
DBKCAM	MAC	26-MAY-76 16:51		PART I.A - FSC AND NORMALIZE RETURN                                                SEQ 0045

  1410					;TEST - NR NORMAL
  1411					;AC=206200000000
  1412					;SCALE=0
  1413					;FAILURE RESULTS IN AN EXPONENT
  1414					;EQUAL TO 171, THE MANTISSA IS NORMALIZED
  1415
  1416			000014			AC=14
  1417						SAVEAC	(1,1)^
  1418	031370	201 16 0 00 031370 		MOVEI	AC+2,.
  1419	031371	202 16 0 00 030051 		MOVEM	AC+2,TESTPC	;SETUP SUBTEST PC
  1420	031372	201 16 0 00 000016 		MOVEI	AC+2,<AC+2>&17	;INFORM ERROR ROUTINE WHICH
  1421	031373	202 16 0 00 040261 		MOVEM	AC+2,ERRLOP#	;AC IS USED FOR ITERATION^
  1422
  1423	031374	205 12 0 00 171400 	O15200:	MOVSI	AC-2,171400	;SETUP FOR COMPARISON
  1424	031375	205 14 0 00 206200 		MOVSI	AC,206200	;SETUP AC
  1425	031376	132 14 0 00 000000 		FSC	AC,0		;RESCALE
  1426	031377	316 14 0 00 000012 		CAMN	AC,AC-2		;TEST EXP=171
  1427	031400	003 14 0 00 015201 		ER3	AC,15201
  1428	031401	321 16 0 00 031374 		JUMPL	AC+2,O15200	;LOOP ON ERROR SWITCH
  1429
  1430					;AC=200200000000
  1431					;SCALING FACTOR=0
  1432					;FAILURE RESULTS IN AN EXPONENT
  1433					;EQUAL TO ORIG. THE FRACTION IS NORMALIZED
  1434
  1435			000014			AC=14
  1436						SAVEAC	(1,1)^
  1437	031402	201 16 0 00 031402 		MOVEI	AC+2,.
  1438	031403	202 16 0 00 030051 		MOVEM	AC+2,TESTPC	;SETUP SUBTEST PC
  1439	031404	201 16 0 00 000016 		MOVEI	AC+2,<AC+2>&17	;INFORM ERROR ROUTINE WHICH
  1440	031405	202 16 0 00 040261 		MOVEM	AC+2,ERRLOP#	;AC IS USED FOR ITERATION^
  1441
  1442	031406	205 12 0 00 200400 	O15300:	MOVSI	AC-2,200400	;SETUP FOR COMPARISON
  1443	031407	205 14 0 00 200200 		MOVSI	AC,200200	;SETUP AC
  1444	031410	132 14 0 00 000000 		FSC	AC,0		;RESCALE
  1445	031411	316 14 0 00 000012 		CAMN	AC,AC-2		;TEST EXP=ORIG
  1446	031412	003 14 0 00 015301 		ER3	AC,15301
  1447	031413	321 16 0 00 031406 		JUMPL	AC+2,O15300	;LOOP ON ERROR SWITCHDBKCA	PDP-10 KI10 ADVANCED INSTRUCTION DIAGNOSTIC #1, VERSION 0,3 	MACRO %52(462) 10:44  9-AUG-76 PAGE 12
DBKCAM	MAC	26-MAY-76 16:51		PART I.A - FSC AND NORMALIZE RETURN                                                SEQ 0046

  1448					;TEST AR FXU SET
  1449					;TEST ABILITY TO SET FLAGS ON OVERFLOW
  1450					;AC=377400000000,777200000000
  1451					;SCALING FACTOR=1,-1
  1452					;AN ERROR WILL OCCUR IF APPROPRIATE
  1453					;FLAG FAILS TO SET
  1454
  1455			000013			AC=13
  1456						SAVEAC	(1,1)^
  1457	031414	201 15 0 00 031414 		MOVEI	AC+2,.
  1458	031415	202 15 0 00 030051 		MOVEM	AC+2,TESTPC	;SETUP SUBTEST PC
  1459	031416	201 15 0 00 000015 		MOVEI	AC+2,<AC+2>&17	;INFORM ERROR ROUTINE WHICH
  1460	031417	202 15 0 00 040261 		MOVEM	AC+2,ERRLOP#	;AC IS USED FOR ITERATION^
  1461
  1462									;TEST AROV SET
  1463	031420	255 10 0 00 031421 	O15400:	JFCL	10,.+1		;CLR FLG, EXEC NEXT INST
  1464	031421	205 13 0 00 377400 		MOVSI	AC,377400	;SETUP AC
  1465	031422	132 13 0 00 000001 		FSC	AC,1		;RESCALE (OVERFLOW)
  1466	031423	265 14 0 00 031424 		JSP	AC+1,.+1
  1467	031424	255 10 0 00 031426 		JFCL	10,.+2		;TEST AROV FLAG
  1468	031425	013 14 0 00 015401 		ER13	AC+1,15401	;AROV FAILED TO SET
  1469	031426	321 15 0 00 031420 		JUMPL	AC+2,O15400	;LOOP ON ERROR SWITCH
  1470
  1471									;TEST ARFOV SET
  1472	031427	255 01 0 00 031430 	O15500:	JFCL	1,.+1		;CLR FLG, EXEC NEXT INST
  1473	031430	205 13 0 00 377400 		MOVSI	AC,377400	;SETUP AC
  1474	031431	132 13 0 00 000001 		FSC	AC,1		;RESCALE (OVERFLOW)
  1475	031432	265 14 0 00 031433 		JSP	AC+1,.+1
  1476	031433	255 01 0 00 031435 		JFCL	1,.+2		;TEST ARFOV FLAG
  1477	031434	013 14 0 00 015501 		ER13	AC+1,15501	;ARFOV FAILED TO SET
  1478	031435	321 15 0 00 031427 		JUMPL	AC+2,O15500	;LOOP ON ERROR SWITCH
  1479
  1480									;TEST ARFXU SET
  1481	031436	254 02 1 00 040024 	O15600:	JRST	2,@[.+1]	;CLEAR FLAG,EXEC NEXT INST
  1482	031437	205 13 0 00 777200 		MOVSI	AC,777200	;SETUP AC
  1483	031440	132 13 0 00 777777 		FSC	AC,-1		;RESCALE (UNDERFLOW)
  1484	031441	265 11 0 00 031442 		JSP	AC-2,.+1	;STORE FLAGS AND PC
  1485	031442	627 11 0 00 000100 		TLZN	AC-2,100	;TEST AND CLEAR BIT 11
  1486	031443	013 11 0 00 015601 		ER13	AC-2,15601	;AR FXU FAILED TO SET
  1487	031444	254 02 0 11 000003 		JRST	2,3(AC-2)	;CLEAR AR FXU
  1488	031445	321 15 0 00 031436 		JUMPL	AC+2,O15600	;LOOP ON ERROR SWITCH
  1489					PAGEDBKCA	PDP-10 KI10 ADVANCED INSTRUCTION DIAGNOSTIC #1, VERSION 0,3 	MACRO %52(462) 10:44  9-AUG-76 PAGE 12-1
DBKCAM	MAC	26-MAY-76 16:51		PART I.A - FSC AND NORMALIZE RETURN                                                SEQ 0047

  1490					;TEST NR ALL ZERO
  1491					;TEST ABILITY TO ASSERT NR ALL ZERO LEVEL
  1492					;AC=377000000000
  1493					;SCALE=401
  1494					;FAILURE SHOULD RESULT IN LOOPING NRT2-
  1495					;ATTEMPTING TO NORMALIZE
  1496
  1497			000012			AC=12
  1498						SAVEAC	(1,1)^
  1499	031446	201 14 0 00 031446 		MOVEI	AC+2,.
  1500	031447	202 14 0 00 030051 		MOVEM	AC+2,TESTPC	;SETUP SUBTEST PC
  1501	031450	201 14 0 00 000014 		MOVEI	AC+2,<AC+2>&17	;INFORM ERROR ROUTINE WHICH
  1502	031451	202 14 0 00 040261 		MOVEM	AC+2,ERRLOP#	;AC IS USED FOR ITERATION^
  1503
  1504	031452	205 12 0 00 377000 	O15700:	MOVSI	AC,377000	;SETUP AC
  1505	031453	132 12 0 00 000401 		FSC	AC,401		;RESCALE
  1506	031454	332 00 0 00 000012 		SKIPE	AC		;TEST AC=0
  1507	031455	003 12 0 00 015701 		ER3	AC,15701	;NR ALL ZERO ASSERTED
  1508	031456	321 14 0 00 031452 		JUMPL	AC+2,O15700	;LOOP ON ERROR SWITCHDBKCA	PDP-10 KI10 ADVANCED INSTRUCTION DIAGNOSTIC #1, VERSION 0,3 	MACRO %52(462) 10:44  9-AUG-76 PAGE 13
DBKCAM	MAC	26-MAY-76 16:51		PART I.B-FAD AND NORM RET                                                          SEQ 0048

  1509					SUBTTL  PART I.B-FAD AND NORM RET
  1510
  1511
  1512					;		PART I.B-FAD AND NORM RET
  1513
  1514					;AR=000600000000
  1515					;BR=000400000000
  1516					;FAILURE RESULTS IN LOSS OF BR
  1517					;CORRECT SUM=001500000000
  1518					;ERROR SUM=000600000000
  1519
  1520			000014			AC=14
  1521						SAVEAC	(1,1)^
  1522	031457	201 16 0 00 031457 		MOVEI	AC+2,.
  1523	031460	202 16 0 00 030051 		MOVEM	AC+2,TESTPC	;SETUP SUBTEST PC
  1524	031461	201 16 0 00 000016 		MOVEI	AC+2,<AC+2>&17	;INFORM ERROR ROUTINE WHICH
  1525	031462	202 16 0 00 040261 		MOVEM	AC+2,ERRLOP#	;AC IS USED FOR ITERATION^
  1526
  1527	031463	205 12 0 00 000600 	O16000:	MOVSI	AC-2,600	;SETUP FOR COMPARISON
  1528	031464	205 14 0 00 000600 		MOVSI	AC,600		;SETUP AC
  1529	031465	205 15 0 00 000400 		MOVSI	AC+1,400	;SETUP BR
  1530	031466	140 14 0 00 000015 		FAD	AC,AC+1		;C(AC)+C(E)
  1531	031467	316 14 0 00 000012 		CAMN	AC,AC-2		;TEST SUM=600000000
  1532	031470	003 14 0 00 016001 		ER3	AC,16001
  1533	031471	321 16 0 00 031463 		JUMPL	AC+2,O16000	;LOOP ON ERROR SWITCH
  1534
  1535					;AR=000600000000
  1536					;BR=000400000000
  1537					;FAILURE RESULTS IN LOSS
  1538					;OF LARGER NUMBER
  1539					;FAILURE RESULTS IN NORMALIZING
  1540					;CORRECT SUM=001500000000
  1541					;ERROR SUM=000400000000
  1542
  1543			000013			AC=13
  1544						SAVEAC	(1,1)^
  1545	031472	201 15 0 00 031472 		MOVEI	AC+2,.
  1546	031473	202 15 0 00 030051 		MOVEM	AC+2,TESTPC	;SETUP SUBTEST PC
  1547	031474	201 15 0 00 000015 		MOVEI	AC+2,<AC+2>&17	;INFORM ERROR ROUTINE WHICH
  1548	031475	202 15 0 00 040261 		MOVEM	AC+2,ERRLOP#	;AC IS USED FOR ITERATION^
  1549
  1550	031476	205 13 0 00 000600 	O16100:	MOVSI	AC,600		;SETUP AC
  1551	031477	205 14 0 00 000400 		MOVSI	AC+1,400	;SETUP BR
  1552	031500	140 13 0 00 000014 		FAD	AC,AC+1		;C(AC)+C(E)
  1553	031501	316 13 0 00 000014 		CAMN	AC,AC+1		;TEST SUM=000400000000
  1554	031502	003 13 0 00 016101 		ER3	AC,16101
  1555	031503	321 15 0 00 031476 		JUMPL	AC+2,O16100	;LOOP ON ERROR SWITCHDBKCA	PDP-10 KI10 ADVANCED INSTRUCTION DIAGNOSTIC #1, VERSION 0,3 	MACRO %52(462) 10:44  9-AUG-76 PAGE 14
DBKCAM	MAC	26-MAY-76 16:51		PART I.B-FAD AND NORM RET                                                          SEQ 0049

  1556					;AR=000600000000
  1557					;BR=000400000000
  1558					;FAILURE RESULTS IN LOSS OF BR
  1559					;CORRECT SUM=001500000000
  1560					;ERROR SUM=001600000000
  1561
  1562			000012			AC=12
  1563						SAVEAC	(1,1)^
  1564	031504	201 14 0 00 031504 		MOVEI	AC+2,.
  1565	031505	202 14 0 00 030051 		MOVEM	AC+2,TESTPC	;SETUP SUBTEST PC
  1566	031506	201 14 0 00 000014 		MOVEI	AC+2,<AC+2>&17	;INFORM ERROR ROUTINE WHICH
  1567	031507	202 14 0 00 040261 		MOVEM	AC+2,ERRLOP#	;AC IS USED FOR ITERATION^
  1568
  1569	031510	205 10 0 00 001600 	O16200:	MOVSI	AC-2,1600	;SETUP FOR COMPARISON
  1570	031511	205 12 0 00 000600 		MOVSI	AC,600		;SETUP AC
  1571	031512	205 13 0 00 000400 		MOVSI	AC+1,400	;SETUP BR
  1572	031513	140 12 0 00 000013 		FAD	AC,AC+1		;C(AC)+C(E)
  1573	031514	316 12 0 00 000010 		CAMN	AC,AC-2		;TEST SUM=1600000000
  1574	031515	003 12 0 00 016201 		ER3	AC,16201
  1575	031516	321 14 0 00 031510 		JUMPL	AC+2,O16200	;LOOP ON ERROR SWITCH
  1576
  1577					;AR=000600000000
  1578					;BR=000400000000
  1579					;FAILURE RESULTS IN LOSS OF AR
  1580					;CORRECT SUM=001500000000
  1581					;ERROR SUM=001400000000
  1582
  1583			000011			AC=11
  1584						SAVEAC	(1,1)^
  1585	031517	201 13 0 00 031517 		MOVEI	AC+2,.
  1586	031520	202 13 0 00 030051 		MOVEM	AC+2,TESTPC	;SETUP SUBTEST PC
  1587	031521	201 13 0 00 000013 		MOVEI	AC+2,<AC+2>&17	;INFORM ERROR ROUTINE WHICH
  1588	031522	202 13 0 00 040261 		MOVEM	AC+2,ERRLOP#	;AC IS USED FOR ITERATION^
  1589
  1590	031523	205 07 0 00 001400 	O16300:	MOVSI	AC-2,1400	;SETUP FOR COMPARISON
  1591	031524	205 11 0 00 000600 		MOVSI	AC,600		;SETUP AC
  1592	031525	205 12 0 00 000400 		MOVSI	AC+1,400	;SETUP BR
  1593	031526	140 11 0 00 000012 		FAD	AC,AC+1		;C(AC)+C(E)
  1594	031527	316 11 0 00 000007 		CAMN	AC,AC-2		;TEST SUM=1400000000
  1595	031530	003 11 0 00 016301 		ER3	AC,16301
  1596	031531	321 13 0 00 031523 		JUMPL	AC+2,O16300	;LOOP ON ERROR SWITCHDBKCA	PDP-10 KI10 ADVANCED INSTRUCTION DIAGNOSTIC #1, VERSION 0,3 	MACRO %52(462) 10:44  9-AUG-76 PAGE 15
DBKCAM	MAC	26-MAY-76 16:51		PART I.B-FAD AND NORM RET                                                          SEQ 0050

  1597					;AR=000600000000
  1598					;BR=000400000000
  1599					;CORRECT SUM=001500000000
  1600					;ERROR SUM=377500000000
  1601
  1602			000010			AC=10
  1603						SAVEAC	(1,1)^
  1604	031532	201 12 0 00 031532 		MOVEI	AC+2,.
  1605	031533	202 12 0 00 030051 		MOVEM	AC+2,TESTPC	;SETUP SUBTEST PC
  1606	031534	201 12 0 00 000012 		MOVEI	AC+2,<AC+2>&17	;INFORM ERROR ROUTINE WHICH
  1607	031535	202 12 0 00 040261 		MOVEM	AC+2,ERRLOP#	;AC IS USED FOR ITERATION^
  1608
  1609	031536	205 06 0 00 377500 	O16400:	MOVSI	AC-2,377500	;SETUP FOR COMPARISON
  1610	031537	205 10 0 00 000600 		MOVSI	AC,600		;SETUP AC
  1611	031540	205 11 0 00 000400 		MOVSI	AC+1,400	;SETUP BR
  1612	031541	140 10 0 00 000011 		FAD	AC,AC+1		;C(AC)+C(E)
  1613	031542	316 10 0 00 000006 		CAMN	AC,AC-2		;TEST SUM=377500000000
  1614	031543	003 10 0 00 016401 		ER3	AC,16401
  1615	031544	321 12 0 00 031536 		JUMPL	AC+2,O16400	;LOOP ON ERROR SWITCH
  1616
  1617					;AR=000600000000
  1618					;BR=000400000000
  1619					;CORRECT SUM=001500000000
  1620					;ERROR SUM=000500000000
  1621
  1622			000007			AC=7
  1623						SAVEAC	(1,1)^
  1624	031545	201 11 0 00 031545 		MOVEI	AC+2,.
  1625	031546	202 11 0 00 030051 		MOVEM	AC+2,TESTPC	;SETUP SUBTEST PC
  1626	031547	201 11 0 00 000011 		MOVEI	AC+2,<AC+2>&17	;INFORM ERROR ROUTINE WHICH
  1627	031550	202 11 0 00 040261 		MOVEM	AC+2,ERRLOP#	;AC IS USED FOR ITERATION^
  1628
  1629	031551	205 05 0 00 000500 	O16500:	MOVSI	AC-2,500	;SETUP FOR COMPARISON
  1630	031552	205 07 0 00 000600 		MOVSI	AC,600		;SETUP AC
  1631	031553	205 10 0 00 000400 		MOVSI	AC+1,400	;SETUP BR
  1632	031554	140 07 0 00 000010 		FAD	AC,AC+1		;C(AC)+C(E)
  1633	031555	316 07 0 00 000005 		CAMN	AC,AC-2		;TEST SUM=500000000
  1634	031556	003 07 0 00 016501 		ER3	AC,16501
  1635	031557	321 11 0 00 031551 		JUMPL	AC+2,O16500	;LOOP ON ERROR SWITCHDBKCA	PDP-10 KI10 ADVANCED INSTRUCTION DIAGNOSTIC #1, VERSION 0,3 	MACRO %52(462) 10:44  9-AUG-76 PAGE 16
DBKCAM	MAC	26-MAY-76 16:51		PART I.B-FAD AND NORM RET                                                          SEQ 0051

  1636
  1637					;AR=377000000000
  1638					;BR=377600000000
  1639					;FAILURE RESULTS IN A SUM
  1640					;=000700000000
  1641
  1642			000014			AC=14
  1643						SAVEAC	(1,1)^
  1644	031560	201 16 0 00 031560 		MOVEI	AC+2,.
  1645	031561	202 16 0 00 030051 		MOVEM	AC+2,TESTPC	;SETUP SUBTEST PC
  1646	031562	201 16 0 00 000016 		MOVEI	AC+2,<AC+2>&17	;INFORM ERROR ROUTINE WHICH
  1647	031563	202 16 0 00 040261 		MOVEM	AC+2,ERRLOP#	;AC IS USED FOR ITERATION^
  1648
  1649	031564	205 12 0 00 000700 	O16600:	MOVSI	AC-2,700	;SETUP FOR COMPARISON
  1650	031565	205 14 0 00 377000 		MOVSI	AC,377000	;SETUP AC
  1651	031566	205 15 0 00 377600 		MOVSI	AC+1,377600	;SETUP BR
  1652	031567	140 14 0 00 000015 		FAD	AC,AC+1		;ADD C(AC), C(E)
  1653	031570	316 14 0 00 000012 		CAMN	AC,AC-2		;TEST SUM=000700000000
  1654	031571	003 14 0 00 016601 		ER3	AC,16601
  1655	031572	321 16 0 00 031564 		JUMPL	AC+2,O16600	;LOOP ON ERROR SWITCHDBKCA	PDP-10 KI10 ADVANCED INSTRUCTION DIAGNOSTIC #1, VERSION 0,3 	MACRO %52(462) 10:44  9-AUG-76 PAGE 17
DBKCAM	MAC	26-MAY-76 16:51		PART I.B-FAD AND NORM RET                                                          SEQ 0052

  1656					;TEST ABILITY TO SET INDIVIDUAL BITS
  1657					;AR=600400000000 (-1/4)
  1658					;BR=177400000000 (+1/4)
  1659					;OPERANDS SELECTED SHOULD RESULT
  1660					;IN NR ALL ZERO -STORE 0
  1661					;FAILURE OF BIT 8 TO SET RESULTS IN
  1662					;A SUM=577400000000
  1663					;FAILURE OF ANY ONE BIT (1-7) RESULTS IN
  1664					;A SUM=577000000000
  1665
  1666			000014			AC=14
  1667						SAVEAC	(1,1)^
  1668	031573	201 16 0 00 031573 		MOVEI	AC+2,.
  1669	031574	202 16 0 00 030051 		MOVEM	AC+2,TESTPC	;SETUP SUBTEST PC
  1670	031575	201 16 0 00 000016 		MOVEI	AC+2,<AC+2>&17	;INFORM ERROR ROUTINE WHICH
  1671	031576	202 16 0 00 040261 		MOVEM	AC+2,ERRLOP#	;AC IS USED FOR ITERATION^
  1672
  1673	031577	205 12 0 00 577400 	O16700:	MOVSI	AC-2,577400	;SETUP FOR COMPARISON
  1674	031600	205 14 0 00 600400 		MOVSI	AC,600400	;SETUP AC
  1675	031601	205 15 0 00 177400 		MOVSI	AC+1,177400	;SETUP BR
  1676	031602	140 14 0 00 000015 		FAD	AC,AC+1		;C(AC)+C(E)
  1677	031603	316 14 0 00 000012 		CAMN	AC,AC-2		;TEST SUM=5774000000000
  1678	031604	003 14 0 00 016701 		ER3	AC,16701	;BR8 FAILED TO SET
  1679	031605	205 12 0 00 577000 		MOVSI	AC-2,577000	;SETUP FOR COMPARISON
  1680	031606	316 14 0 00 000012 		CAMN	AC,AC-2		;TEST SUM=577000000000
  1681	031607	003 14 0 00 016702 		ER3	AC,16702	;BR BIT (1-7) FAILED TO SET
  1682	031610	321 16 0 00 031577 		JUMPL	AC+2,O16700	;LOOP ON ERROR SWITCH
  1683
  1684					;FAILURE RESULTS IN LOSS OF DIFFERENCE
  1685					;BETWEEN EXPONENTS
  1686					;AR=200400000000 (+ 1/2)
  1687					;BR=205400000000 (+20)
  1688					;CORRECT SUM =205410000000
  1689					;ERROR SUM=001400000000
  1690
  1691			000010			AC=10
  1692						SAVEAC	(1,1)^
  1693	031611	201 12 0 00 031611 		MOVEI	AC+2,.
  1694	031612	202 12 0 00 030051 		MOVEM	AC+2,TESTPC	;SETUP SUBTEST PC
  1695	031613	201 12 0 00 000012 		MOVEI	AC+2,<AC+2>&17	;INFORM ERROR ROUTINE WHICH
  1696	031614	202 12 0 00 040261 		MOVEM	AC+2,ERRLOP#	;AC IS USED FOR ITERATION^
  1697
  1698	031615	205 06 0 00 001400 	O17000:	MOVSI	AC-2,001400	;SETUP FOR COMPARISON
  1699	031616	205 10 0 00 200400 		MOVSI	AC,200400	;SETUP AC
  1700	031617	205 11 0 00 205400 		MOVSI	AC+1,205400	;SETUP BR
  1701	031620	140 10 0 00 000011 		FAD	AC,AC+1		;C(AC)+C(E)
  1702	031621	316 10 0 00 000006 		CAMN	AC,AC-2		;TEST SUM=001400000000
  1703	031622	003 10 0 00 017001 		ER3	AC,17001
  1704	031623	321 12 0 00 031615 		JUMPL	AC+2,O17000	;LOOP ON ERROR SWITCHDBKCA	PDP-10 KI10 ADVANCED INSTRUCTION DIAGNOSTIC #1, VERSION 0,3 	MACRO %52(462) 10:44  9-AUG-76 PAGE 18
DBKCAM	MAC	26-MAY-76 16:51		PART I.B-FAD AND NORM RET                                                          SEQ 0053

  1705					;AR=200400000000
  1706					;BR=205600000000
  1707					;FAILURE RESULTS IN LOSS OF HIGH ORDER
  1708					;EXPONENT
  1709					;FAILURE RESULTS IN A SUM
  1710					;=001610000000
  1711
  1712			000012			AC=12
  1713						SAVEAC	(1,1)^
  1714	031624	201 14 0 00 031624 		MOVEI	AC+2,.
  1715	031625	202 14 0 00 030051 		MOVEM	AC+2,TESTPC	;SETUP SUBTEST PC
  1716	031626	201 14 0 00 000014 		MOVEI	AC+2,<AC+2>&17	;INFORM ERROR ROUTINE WHICH
  1717	031627	202 14 0 00 040261 		MOVEM	AC+2,ERRLOP#	;AC IS USED FOR ITERATION^
  1718
  1719	031630	205 10 0 00 001610 	O17100:	MOVSI	AC-2,1610	;SETUP FOR COMPARISON
  1720	031631	205 12 0 00 200400 		MOVSI	AC,200400	;SETUP AC
  1721	031632	205 13 0 00 205600 		MOVSI	AC+1,205600	;SETUP BR
  1722	031633	140 12 0 00 000013 		FAD	AC,AC+1		;C(AC)+C(E)
  1723	031634	316 12 0 00 000010 		CAMN	AC,AC-2		;TEST SUM=1610000000
  1724	031635	003 12 0 00 017101 		ER3	AC,17101
  1725	031636	321 14 0 00 031630 		JUMPL	AC+2,O17100	;LOOP ON ERROR SWITCH
  1726
  1727					;AR=200400000000
  1728					;BR=205600000000
  1729					;FAILURE RESULTS IN LOSS OF LARGER
  1730					;EXPONENT
  1731					;FAILURE RESULTS IN A SUM
  1732					;=000610000000
  1733
  1734			000011			AC=11
  1735						SAVEAC	(1,1)^
  1736	031637	201 13 0 00 031637 		MOVEI	AC+2,.
  1737	031640	202 13 0 00 030051 		MOVEM	AC+2,TESTPC	;SETUP SUBTEST PC
  1738	031641	201 13 0 00 000013 		MOVEI	AC+2,<AC+2>&17	;INFORM ERROR ROUTINE WHICH
  1739	031642	202 13 0 00 040261 		MOVEM	AC+2,ERRLOP#	;AC IS USED FOR ITERATION^
  1740
  1741	031643	205 07 0 00 000610 	O17200:	MOVSI	AC-2,610	;SETUP FOR COMPARISON
  1742	031644	205 11 0 00 200400 		MOVSI	AC,200400	;SETUP AC
  1743	031645	205 12 0 00 205600 		MOVSI	AC+1,205600	;SETUP BR
  1744	031646	140 11 0 00 000012 		FAD	AC,AC+1		;C(AC)+C(E)
  1745	031647	316 11 0 00 000007 		CAMN	AC,AC-2		;TEST SUM=610000000
  1746	031650	003 11 0 00 017201 		ER3	AC,17201
  1747	031651	321 13 0 00 031643 		JUMPL	AC+2,O17200	;LOOP ON ERROR SWITCHDBKCA	PDP-10 KI10 ADVANCED INSTRUCTION DIAGNOSTIC #1, VERSION 0,3 	MACRO %52(462) 10:44  9-AUG-76 PAGE 19
DBKCAM	MAC	26-MAY-76 16:51		PART I.B-FAD AND NORM RET                                                          SEQ 0054

  1748					;AR=000600000000
  1749					;BR=200400000000
  1750					;EXCESSIVE SHIFT COND, SHOULD
  1751					;RESULT IN NO ADD AND STORING THE LARGER
  1752					;FAILURE RESULTS IN A SUM
  1753					;=201500000000
  1754
  1755			000005			AC=5
  1756						SAVEAC	(1,1)^
  1757	031652	201 07 0 00 031652 		MOVEI	AC+2,.
  1758	031653	202 07 0 00 030051 		MOVEM	AC+2,TESTPC	;SETUP SUBTEST PC
  1759	031654	201 07 0 00 000007 		MOVEI	AC+2,<AC+2>&17	;INFORM ERROR ROUTINE WHICH
  1760	031655	202 07 0 00 040261 		MOVEM	AC+2,ERRLOP#	;AC IS USED FOR ITERATION^
  1761
  1762	031656	205 03 0 00 201500 	O17300:	MOVSI	AC-2,201500	;SETUP FOR COMPARISON
  1763	031657	205 05 0 00 000600 		MOVSI	AC,600		;SETUP AC
  1764	031660	205 06 0 00 200400 		MOVSI	AC+1,200400	;SETUP BR
  1765	031661	140 05 0 00 000006 		FAD	AC,AC+1		;C(AC)+C(E)
  1766	031662	316 05 0 00 000003 		CAMN	AC,AC-2		;TEST SUM=201500000000
  1767	031663	003 05 0 00 017301 		ER3	AC,17301
  1768	031664	321 07 0 00 031656 		JUMPL	AC+2,O17300	;LOOP ON ERROR SWITCH
  1769
  1770					;AR=200700000000
  1771					;BR=0
  1772					;EXCESSIVE SHIFT COND SHOULD
  1773					;RESULT IN NO ADD AND STORING THE LARGER
  1774					;FAILURE OF SC CLR AT FAT4 RESULTS IN
  1775					;LOSS OF EXPONENT. SUM=000700000000
  1776
  1777			000014			AC=14
  1778						SAVEAC	(1,1)^
  1779	031665	201 16 0 00 031665 		MOVEI	AC+2,.
  1780	031666	202 16 0 00 030051 		MOVEM	AC+2,TESTPC	;SETUP SUBTEST PC
  1781	031667	201 16 0 00 000016 		MOVEI	AC+2,<AC+2>&17	;INFORM ERROR ROUTINE WHICH
  1782	031670	202 16 0 00 040261 		MOVEM	AC+2,ERRLOP#	;AC IS USED FOR ITERATION^
  1783
  1784	031671	205 12 0 00 000700 	O17400:	MOVSI	AC-2,700	;SETUP FOR COMPARISON
  1785	031672	205 14 0 00 200700 		MOVSI	AC,200700	;SETUP AC
  1786	031673	400 15 0 00 000000 		SETZ	AC+1,		;SETUP BR
  1787	031674	140 14 0 00 000015 		FAD	AC,AC+1		;C(AC)+C(E)
  1788	031675	316 14 0 00 000012 		CAMN	AC,AC-2		;TEST SUM=700000000
  1789	031676	003 14 0 00 017401 		ER3	AC,17401
  1790	031677	321 16 0 00 031671 		JUMPL	AC+2,O17400	;LOOP ON ERROR SWITCHDBKCA	PDP-10 KI10 ADVANCED INSTRUCTION DIAGNOSTIC #1, VERSION 0,3 	MACRO %52(462) 10:44  9-AUG-76 PAGE 20
DBKCAM	MAC	26-MAY-76 16:51		PART I.B-FAD AND NORM RET                                                          SEQ 0055

  1791					;TEST ABILITY TO BRING UP PULSE
  1792					;AR=200400000000
  1793					;BR=205400000000
  1794					;FAILURE RESULTS IN LOSS OF SMALLER
  1795					;EXPONENT. EXCESSIVE SHIFT CONDITION
  1796					;RESULTS IN NO ADD AND STORING THE LARGER
  1797					;FAILURE RESULTS IN A SUM=205400000000
  1798
  1799			000014			AC=14
  1800						SAVEAC	(1,1)^
  1801	031700	201 16 0 00 031700 		MOVEI	AC+2,.
  1802	031701	202 16 0 00 030051 		MOVEM	AC+2,TESTPC	;SETUP SUBTEST PC
  1803	031702	201 16 0 00 000016 		MOVEI	AC+2,<AC+2>&17	;INFORM ERROR ROUTINE WHICH
  1804	031703	202 16 0 00 040261 		MOVEM	AC+2,ERRLOP#	;AC IS USED FOR ITERATION^
  1805
  1806	031704	205 14 0 00 200400 	O17500:	MOVSI	AC,200400	;SETUP AC
  1807	031705	205 15 0 00 205400 		MOVSI	AC+1,205400	;SETUP BR
  1808	031706	140 14 0 00 000015 		FAD	AC,AC+1		;C(AC)+C(E)
  1809	031707	316 14 0 00 000015 		CAMN	AC,AC+1		;TEST SUM=205400000000
  1810	031710	003 14 0 00 017501 		ER3	AC,17501
  1811	031711	321 16 0 00 031704 		JUMPL	AC+2,O17500	;LOOP ON ERROR SWITCH
  1812					PAGEDBKCA	PDP-10 KI10 ADVANCED INSTRUCTION DIAGNOSTIC #1, VERSION 0,3 	MACRO %52(462) 10:44  9-AUG-76 PAGE 20-1
DBKCAM	MAC	26-MAY-76 16:51		PART I.B-FAD AND NORM RET                                                          SEQ 0056

  1813					;AC EXP=201,202,204,210,220,240,300
  1814					;BR=200400000000
  1815					;FAILURE OF A BIT TO SET/AR TO SHIFT RESULTS IN
  1816					;AN EXPONENT=202,203,205,211,221,
  1817					;241,301. THE MANTISSA IS CORRECT IN ALL CASES
  1818
  1819			000013			AC=13
  1820						SAVEAC	(1,1)^
  1821	031712	201 15 0 00 031712 		MOVEI	AC+2,.
  1822	031713	202 15 0 00 030051 		MOVEM	AC+2,TESTPC	;SETUP SUBTEST PC
  1823	031714	201 15 0 00 000015 		MOVEI	AC+2,<AC+2>&17	;INFORM ERROR ROUTINE WHICH
  1824	031715	202 15 0 00 040261 		MOVEM	AC+2,ERRLOP#	;AC IS USED FOR ITERATION^
  1825
  1826			017600		SN=17600
  1827			000400			ZZ=400
  1828
  1829
  1830					O17600:	REPEAT	^D7,<
  1831					SN=SN+1
  1832						ZZ=ZZ+ZZ
  1833						MOVSI	AC-2,201400+ZZ	;SETUP FOR COMPARISION
  1834						MOVSI	AC,200400+ZZ	;SETUP AC
  1835						MOVSI	AC+1,200400	;SETUP BR
  1836						FAD	AC,AC+1		;C(AC)+C(E)
  1837						CAMN	AC,AC-2		;TEST EXP=AC EXP+1
  1838						ER3	AC,SN		;BIT UNDER TEST FAILED TO SET
  1839						JUMPL	AC+2,.-6	;LOOP ON ERROR SWITCH
  1840					>
  1841
  1842			017601		SN=SN+1
  1843			001000			ZZ=ZZ+ZZ
  1844	031716	205 11 0 00 202400 		MOVSI	AC-2,201400+ZZ	;SETUP FOR COMPARISION
  1845	031717	205 13 0 00 201400 		MOVSI	AC,200400+ZZ	;SETUP AC
  1846	031720	205 14 0 00 200400 		MOVSI	AC+1,200400	;SETUP BR
  1847	031721	140 13 0 00 000014 		FAD	AC,AC+1		;C(AC)+C(E)
  1848	031722	316 13 0 00 000011 		CAMN	AC,AC-2		;TEST EXP=AC EXP+1
  1849	031723	003 13 0 00 017601 		ER3	AC,SN		;BIT UNDER TEST FAILED TO SET
  1850	031724	321 15 0 00 031716 		JUMPL	AC+2,.-6	;LOOP ON ERROR SWITCH
  1851
  1852
  1853			017602		SN=SN+1
  1854			002000			ZZ=ZZ+ZZ
  1855	031725	205 11 0 00 203400 		MOVSI	AC-2,201400+ZZ	;SETUP FOR COMPARISION
  1856	031726	205 13 0 00 202400 		MOVSI	AC,200400+ZZ	;SETUP AC
  1857	031727	205 14 0 00 200400 		MOVSI	AC+1,200400	;SETUP BR
  1858	031730	140 13 0 00 000014 		FAD	AC,AC+1		;C(AC)+C(E)
  1859	031731	316 13 0 00 000011 		CAMN	AC,AC-2		;TEST EXP=AC EXP+1
  1860	031732	003 13 0 00 017602 		ER3	AC,SN		;BIT UNDER TEST FAILED TO SET
  1861	031733	321 15 0 00 031725 		JUMPL	AC+2,.-6	;LOOP ON ERROR SWITCH
  1862
  1863
  1864			017603		SN=SN+1
  1865			004000			ZZ=ZZ+ZZ
  1866	031734	205 11 0 00 205400 		MOVSI	AC-2,201400+ZZ	;SETUP FOR COMPARISION
  1867	031735	205 13 0 00 204400 		MOVSI	AC,200400+ZZ	;SETUP ACDBKCA	PDP-10 KI10 ADVANCED INSTRUCTION DIAGNOSTIC #1, VERSION 0,3 	MACRO %52(462) 10:44  9-AUG-76 PAGE 20-2
DBKCAM	MAC	26-MAY-76 16:51		PART I.B-FAD AND NORM RET                                                          SEQ 0057

  1868	031736	205 14 0 00 200400 		MOVSI	AC+1,200400	;SETUP BR
  1869	031737	140 13 0 00 000014 		FAD	AC,AC+1		;C(AC)+C(E)
  1870	031740	316 13 0 00 000011 		CAMN	AC,AC-2		;TEST EXP=AC EXP+1
  1871	031741	003 13 0 00 017603 		ER3	AC,SN		;BIT UNDER TEST FAILED TO SET
  1872	031742	321 15 0 00 031734 		JUMPL	AC+2,.-6	;LOOP ON ERROR SWITCH
  1873
  1874
  1875			017604		SN=SN+1
  1876			010000			ZZ=ZZ+ZZ
  1877	031743	205 11 0 00 211400 		MOVSI	AC-2,201400+ZZ	;SETUP FOR COMPARISION
  1878	031744	205 13 0 00 210400 		MOVSI	AC,200400+ZZ	;SETUP AC
  1879	031745	205 14 0 00 200400 		MOVSI	AC+1,200400	;SETUP BR
  1880	031746	140 13 0 00 000014 		FAD	AC,AC+1		;C(AC)+C(E)
  1881	031747	316 13 0 00 000011 		CAMN	AC,AC-2		;TEST EXP=AC EXP+1
  1882	031750	003 13 0 00 017604 		ER3	AC,SN		;BIT UNDER TEST FAILED TO SET
  1883	031751	321 15 0 00 031743 		JUMPL	AC+2,.-6	;LOOP ON ERROR SWITCH
  1884
  1885
  1886			017605		SN=SN+1
  1887			020000			ZZ=ZZ+ZZ
  1888	031752	205 11 0 00 221400 		MOVSI	AC-2,201400+ZZ	;SETUP FOR COMPARISION
  1889	031753	205 13 0 00 220400 		MOVSI	AC,200400+ZZ	;SETUP AC
  1890	031754	205 14 0 00 200400 		MOVSI	AC+1,200400	;SETUP BR
  1891	031755	140 13 0 00 000014 		FAD	AC,AC+1		;C(AC)+C(E)
  1892	031756	316 13 0 00 000011 		CAMN	AC,AC-2		;TEST EXP=AC EXP+1
  1893	031757	003 13 0 00 017605 		ER3	AC,SN		;BIT UNDER TEST FAILED TO SET
  1894	031760	321 15 0 00 031752 		JUMPL	AC+2,.-6	;LOOP ON ERROR SWITCH
  1895
  1896
  1897			017606		SN=SN+1
  1898			040000			ZZ=ZZ+ZZ
  1899	031761	205 11 0 00 241400 		MOVSI	AC-2,201400+ZZ	;SETUP FOR COMPARISION
  1900	031762	205 13 0 00 240400 		MOVSI	AC,200400+ZZ	;SETUP AC
  1901	031763	205 14 0 00 200400 		MOVSI	AC+1,200400	;SETUP BR
  1902	031764	140 13 0 00 000014 		FAD	AC,AC+1		;C(AC)+C(E)
  1903	031765	316 13 0 00 000011 		CAMN	AC,AC-2		;TEST EXP=AC EXP+1
  1904	031766	003 13 0 00 017606 		ER3	AC,SN		;BIT UNDER TEST FAILED TO SET
  1905	031767	321 15 0 00 031761 		JUMPL	AC+2,.-6	;LOOP ON ERROR SWITCH
  1906
  1907
  1908			017607		SN=SN+1
  1909			100000			ZZ=ZZ+ZZ
  1910	031770	205 11 0 00 301400 		MOVSI	AC-2,201400+ZZ	;SETUP FOR COMPARISION
  1911	031771	205 13 0 00 300400 		MOVSI	AC,200400+ZZ	;SETUP AC
  1912	031772	205 14 0 00 200400 		MOVSI	AC+1,200400	;SETUP BR
  1913	031773	140 13 0 00 000014 		FAD	AC,AC+1		;C(AC)+C(E)
  1914	031774	316 13 0 00 000011 		CAMN	AC,AC-2		;TEST EXP=AC EXP+1
  1915	031775	003 13 0 00 017607 		ER3	AC,SN		;BIT UNDER TEST FAILED TO SET
  1916	031776	321 15 0 00 031770 		JUMPL	AC+2,.-6	;LOOP ON ERROR SWITCH
  1917DBKCA	PDP-10 KI10 ADVANCED INSTRUCTION DIAGNOSTIC #1, VERSION 0,3 	MACRO %52(462) 10:44  9-AUG-76 PAGE 21
DBKCAM	MAC	26-MAY-76 16:51		PART I.B-FAD AND NORM RET                                                          SEQ 0058

  1918					;AR=200400000000
  1919					;BR=205400000000
  1920					;FAILURE RESULTS IN A BR EXPONENT=0.
  1921					;EXCESSIVE SHIFT CONDITION
  1922					;RESULTS IN NO ADD AND STORING THE LARGER
  1923
  1924			000012			AC=12
  1925						SAVEAC	(1,1)^
  1926	031777	201 14 0 00 031777 		MOVEI	AC+2,.
  1927	032000	202 14 0 00 030051 		MOVEM	AC+2,TESTPC	;SETUP SUBTEST PC
  1928	032001	201 14 0 00 000014 		MOVEI	AC+2,<AC+2>&17	;INFORM ERROR ROUTINE WHICH
  1929	032002	202 14 0 00 040261 		MOVEM	AC+2,ERRLOP#	;AC IS USED FOR ITERATION^
  1930
  1931	032003	205 10 0 00 200400 	O17700:	MOVSI	AC-2,200400	;SETUP FOR COMPARISION
  1932	032004	205 12 0 00 200400 		MOVSI	AC,200400	;SETUP AC
  1933	032005	205 13 0 00 205400 		MOVSI	AC+1,205400	;SETUP BR
  1934	032006	140 12 0 00 000013 		FAD	AC,AC+1		;C(AC)+C(E)
  1935	032007	316 12 0 00 000010 		CAMN	AC,AC-2		;TEST SUM=200400000000
  1936	032010	003 12 0 00 017701 		ER3	AC,17701
  1937	032011	321 14 0 00 032003 		JUMPL	AC+2,O17700	;LOOP ON ERROR SWITCH
  1938
  1939					;AR=600400000000 (-1/4)
  1940					;BR=600400000000 (-1/4)
  1941					;FAILURE RESULTS IN LOSS OF BR EXPONENT
  1942					;AN EXCESSIVE SHIFT CONDITION, NO ADD
  1943					;STORE 600400000000
  1944
  1945			000011			AC=11
  1946						SAVEAC	(1,1)^
  1947	032012	201 13 0 00 032012 		MOVEI	AC+2,.
  1948	032013	202 13 0 00 030051 		MOVEM	AC+2,TESTPC	;SETUP SUBTEST PC
  1949	032014	201 13 0 00 000013 		MOVEI	AC+2,<AC+2>&17	;INFORM ERROR ROUTINE WHICH
  1950	032015	202 13 0 00 040261 		MOVEM	AC+2,ERRLOP#	;AC IS USED FOR ITERATION^
  1951
  1952	032016	205 11 0 00 600400 	O20000:	MOVSI	AC,600400	;SETUP AC
  1953	032017	205 12 0 00 600400 		MOVSI	AC+1,600400	;SETUP BR
  1954	032020	140 11 0 00 000012 		FAD	AC,AC+1		;C(AC)+C(E)
  1955	032021	316 11 0 00 000012 		CAMN	AC,AC+1		;TEST SUM=600400
  1956	032022	003 11 0 00 020001 		ER3	AC,20001
  1957	032023	321 13 0 00 032016 		JUMPL	AC+2,O20000	;LOOP ON ERROR SWITCHDBKCA	PDP-10 KI10 ADVANCED INSTRUCTION DIAGNOSTIC #1, VERSION 0,3 	MACRO %52(462) 10:44  9-AUG-76 PAGE 22
DBKCAM	MAC	26-MAY-76 16:51		PART I.B-FAD AND NORM RET                                                          SEQ 0059

  1958					;THE DIFFERENCE BETWEEN EXPONENTS (EXCESSIVE SHIFT COND)
  1959					;SHOULD RESULT IN NO ADD AND STORING
  1960					;THE LARGER
  1961					;AR=0
  1962					;BR=205400000000
  1963					;FAILURE RESULTS IN A SUM
  1964					;=173400000000
  1965
  1966			000007			AC=7
  1967						SAVEAC	(1,1)^
  1968	032024	201 11 0 00 032024 		MOVEI	AC+2,.
  1969	032025	202 11 0 00 030051 		MOVEM	AC+2,TESTPC	;SETUP SUBTEST PC
  1970	032026	201 11 0 00 000011 		MOVEI	AC+2,<AC+2>&17	;INFORM ERROR ROUTINE WHICH
  1971	032027	202 11 0 00 040261 		MOVEM	AC+2,ERRLOP#	;AC IS USED FOR ITERATION^
  1972
  1973	032030	205 05 0 00 173400 	O20100:	MOVSI	AC-2,173400	;SETUP FOR COMPARISON
  1974	032031	400 07 0 00 000000 		SETZ	AC,		;SETUP AC
  1975	032032	205 10 0 00 205400 		MOVSI	AC+1,205400	;SETUP BR
  1976	032033	140 07 0 00 000010 		FAD	AC,AC+1		;C(AC)+C(E)
  1977	032034	316 07 0 00 000005 		CAMN	AC,AC-2		;TEST SUM=173400000000
  1978	032035	003 07 0 00 020101 		ER3	AC,20101
  1979	032036	321 11 0 00 032030 		JUMPL	AC+2,O20100	;LOOP ON ERROR SWITCH
  1980
  1981					;FAILURE RESULTS IN AN APPARENT DIFFERNECE IN
  1982					;EXPONENTS OF 177 EXCESSIVE SHIFT COND-
  1983					;NO ADD, STORE LARGER
  1984					;AR=200400000000
  1985					;BR=200400000000
  1986					;FAILURE RESULTS IN A SUM
  1987					;=200400000000
  1988
  1989			000006			AC=6
  1990						SAVEAC	(1,1)^
  1991	032037	201 10 0 00 032037 		MOVEI	AC+2,.
  1992	032040	202 10 0 00 030051 		MOVEM	AC+2,TESTPC	;SETUP SUBTEST PC
  1993	032041	201 10 0 00 000010 		MOVEI	AC+2,<AC+2>&17	;INFORM ERROR ROUTINE WHICH
  1994	032042	202 10 0 00 040261 		MOVEM	AC+2,ERRLOP#	;AC IS USED FOR ITERATION^
  1995
  1996	032043	205 06 0 00 200400 	O20200:	MOVSI	AC,200400	;SETUP AC
  1997	032044	205 07 0 00 200400 		MOVSI	AC+1,200400	;SETUP BR
  1998	032045	140 06 0 00 000007 		FAD	AC,AC+1		;C(AC)+C(E)
  1999	032046	316 06 0 00 000007 		CAMN	AC,AC+1		;TEST SUM=200400000000
  2000	032047	003 06 0 00 020201 		ER3	AC,20201
  2001	032050	321 10 0 00 032043 		JUMPL	AC+2,O20200	;LOOP ON ERROR SWITCHDBKCA	PDP-10 KI10 ADVANCED INSTRUCTION DIAGNOSTIC #1, VERSION 0,3 	MACRO %52(462) 10:44  9-AUG-76 PAGE 23
DBKCAM	MAC	26-MAY-76 16:51		PART I.B-FAD AND NORM RET                                                          SEQ 0060

  2002					;AR=577400000000 (-1/2)
  2003					;BR=577400000000 (-1/2)
  2004					;CORRECT SUM=576400000000 (-1)
  2005					;ERROR SUM=777400000000
  2006
  2007			000005			AC=5
  2008						SAVEAC	(1,1)^
  2009	032051	201 07 0 00 032051 		MOVEI	AC+2,.
  2010	032052	202 07 0 00 030051 		MOVEM	AC+2,TESTPC	;SETUP SUBTEST PC
  2011	032053	201 07 0 00 000007 		MOVEI	AC+2,<AC+2>&17	;INFORM ERROR ROUTINE WHICH
  2012	032054	202 07 0 00 040261 		MOVEM	AC+2,ERRLOP#	;AC IS USED FOR ITERATION^
  2013
  2014	032055	205 03 0 00 777400 	O20300:	MOVSI	AC-2,777400	;SETUP FOR COMPARISON
  2015	032056	205 05 0 00 577400 		MOVSI	AC,577400	;SETUP AC
  2016	032057	205 06 0 00 577400 		MOVSI	AC+1,577400	;SETUP BR
  2017	032060	140 05 0 00 000006 		FAD	AC,AC+1		;C(AC)+C(E)
  2018	032061	316 05 0 00 000003 		CAMN	AC,AC-2		;TEST SUM=777400000000
  2019	032062	003 05 0 00 020301 		ER3	AC,20301	;SC NEGATE SETUP FAILED
  2020	032063	321 07 0 00 032055 		JUMPL	AC+2,O20300	;LOOP ON ERROR SWITCH
  2021
  2022					;AR=205600000000
  2023					;BR=177400000000
  2024					;FAILURE RESULTS IN A SUM
  2025					;=214500000000
  2026
  2027			000013			AC=13
  2028						SAVEAC	(1,1)^
  2029	032064	201 15 0 00 032064 		MOVEI	AC+2,.
  2030	032065	202 15 0 00 030051 		MOVEM	AC+2,TESTPC	;SETUP SUBTEST PC
  2031	032066	201 15 0 00 000015 		MOVEI	AC+2,<AC+2>&17	;INFORM ERROR ROUTINE WHICH
  2032	032067	202 15 0 00 040261 		MOVEM	AC+2,ERRLOP#	;AC IS USED FOR ITERATION^
  2033
  2034	032070	205 11 0 00 214500 	O20400:	MOVSI	AC-2,214500	;SETUP FOR COMPARISON
  2035	032071	205 13 0 00 205600 		MOVSI	AC,205600	;SETUP AC
  2036	032072	205 14 0 00 177400 		MOVSI	AC+1,177400	;SETUP BR
  2037	032073	140 13 0 00 000014 		FAD	AC,AC+1		;C(AC)+C(E)
  2038	032074	316 13 0 00 000011 		CAMN	AC,AC-2		;TEST SUM=214500
  2039	032075	003 13 0 00 020401 		ER3	AC,20401
  2040	032076	321 15 0 00 032070 		JUMPL	AC+2,O20400	;LOOP ON ERROR SWITCHDBKCA	PDP-10 KI10 ADVANCED INSTRUCTION DIAGNOSTIC #1, VERSION 0,3 	MACRO %52(462) 10:44  9-AUG-76 PAGE 24
DBKCAM	MAC	26-MAY-76 16:51		PART I.B-FAD AND NORM RET                                                          SEQ 0061

  2041					;OPERANDS SELECTED SHOULD
  2042					;RESULT IN NR ALL ZERO CONDITION
  2043					;AR EXP=201,202,204,210,220,240,300
  2044					;BR EXP=202,204,207,214,225,246,307
  2045					;MANTISSA IN BOTH CASES=0
  2046					;FAILURE OF A BIT TO CLEAR RESULTS IN A
  2047					;SUM WHOSE EXPONENT IS EQUAL TO
  2048					;THE BR EXPONENT, A MANTISSA=400000000
  2049
  2050			000010			AC=10
  2051						SAVEAC	(1,1)^
  2052	032077	201 12 0 00 032077 		MOVEI	AC+2,.
  2053	032100	202 12 0 00 030051 		MOVEM	AC+2,TESTPC	;SETUP SUBTEST PC
  2054	032101	201 12 0 00 000012 		MOVEI	AC+2,<AC+2>&17	;INFORM ERROR ROUTINE WHICH
  2055	032102	202 12 0 00 040261 		MOVEM	AC+2,ERRLOP#	;AC IS USED FOR ITERATION^
  2056
  2057									;TEST AR8
  2058	032103	205 06 0 00 202400 	O20500:	MOVSI	AC-2,202400	;SETUP FOR COMPARISON
  2059	032104	205 10 0 00 201000 		MOVSI	AC,201000	;SETUP AC
  2060	032105	205 11 0 00 202000 		MOVSI	AC+1,202000	;SETUP BR
  2061	032106	140 10 0 00 000011 		FAD	AC,AC+1		;C(AC)+C(E)
  2062	032107	316 10 0 00 000006 		CAMN	AC,AC-2		;TEST SUM=202400000000
  2063	032110	003 10 0 00 020501 		ER3	AC,20501	;AR8 FAILED TO CLEAR
  2064	032111	321 12 0 00 032103 		JUMPL	AC+2,O20500	;LOOP ON ERROR SWITCH
  2065
  2066									;TEST AR7
  2067	032112	205 06 0 00 204400 	O20600:	MOVSI	AC-2,204400	;SETUP FOR COMPARISON
  2068	032113	205 10 0 00 202000 		MOVSI	AC,202000	;SETUP AC
  2069	032114	205 11 0 00 204000 		MOVSI	AC+1,204000	;SETUP BR
  2070	032115	140 10 0 00 000011 		FAD	AC,AC+1		;C(AC)+C(E)
  2071	032116	316 10 0 00 000006 		CAMN	AC,AC-2		;TEST SUM=204400000000
  2072	032117	003 10 0 00 020601 		ER3	AC,20601	;AR7 FAILED TO CLEAR
  2073	032120	321 12 0 00 032112 		JUMPL	AC+2,O20600	;LOOP ON ERROR SWITCH
  2074
  2075									;TEST AR6
  2076	032121	205 06 0 00 207400 	O20700:	MOVSI	AC-2,207400	;SETUP FOR COMPARISON
  2077	032122	205 10 0 00 204000 		MOVSI	AC,204000	;SETUP AC
  2078	032123	205 11 0 00 207000 		MOVSI	AC+1,207000	;SETUP BR
  2079	032124	140 10 0 00 000011 		FAD	AC,AC+1		;C(AC)+C(E)
  2080	032125	316 10 0 00 000006 		CAMN	AC,AC-2		;TEST SUM=207400000000
  2081	032126	003 10 0 00 020701 		ER3	AC,20701	;AR6 FAILED TO CLEAR
  2082	032127	321 12 0 00 032121 		JUMPL	AC+2,O20700	;LOOP ON ERROR SWITCH
  2083
  2084									;TEST AR5
  2085	032130	205 06 0 00 214400 	O21000:	MOVSI	AC-2,214400	;SETUP FOR COMPARISON
  2086	032131	205 10 0 00 210000 		MOVSI	AC,210000	;SETUP AC
  2087	032132	205 11 0 00 214000 		MOVSI	AC+1,214000	;SETUP BR
  2088	032133	140 10 0 00 000011 		FAD	AC,AC+1		;C(AC)+C(E)
  2089	032134	316 10 0 00 000006 		CAMN	AC,AC-2		;TEST SUM=214400000000
  2090	032135	003 10 0 00 021001 		ER3	AC,21001	;AR5 FAILED TO CLEAR
  2091	032136	321 12 0 00 032130 		JUMPL	AC+2,O21000	;LOOP ON ERROR SWITCHDBKCA	PDP-10 KI10 ADVANCED INSTRUCTION DIAGNOSTIC #1, VERSION 0,3 	MACRO %52(462) 10:44  9-AUG-76 PAGE 25
DBKCAM	MAC	26-MAY-76 16:51		PART I.B-FAD AND NORM RET                                                          SEQ 0062

  2092									;TEST AR4
  2093	032137	205 06 0 00 225400 	O21100:	MOVSI	AC-2,225400	;SETUP FOR COMPARISON
  2094	032140	205 10 0 00 220000 		MOVSI	AC,220000	;SETUP AC
  2095	032141	205 11 0 00 225000 		MOVSI	AC+1,225000	;SETUP BR
  2096	032142	140 10 0 00 000011 		FAD	AC,AC+1		;C(AC)+C(E)
  2097	032143	316 10 0 00 000006 		CAMN	AC,AC-2		;TEST SUM=225400000000
  2098	032144	003 10 0 00 021101 		ER3	AC,21101	;AR4 FAILED TO CLEAR
  2099	032145	321 12 0 00 032137 		JUMPL	AC+2,O21100	;LOOP ON ERROR SWITCH
  2100
  2101									;TEST AR3
  2102	032146	205 06 0 00 246400 	O21200:	MOVSI	AC-2,246400	;SETUP FOR COMPARISON
  2103	032147	205 10 0 00 240000 		MOVSI	AC,240000	;SETUP AC
  2104	032150	205 11 0 00 246000 		MOVSI	AC+1,246000	;SETUP BR
  2105	032151	140 10 0 00 000011 		FAD	AC,AC+1		;C(AC)+C(E)
  2106	032152	316 10 0 00 000006 		CAMN	AC,AC-2		;TEST SUM=246400000000
  2107	032153	003 10 0 00 021201 		ER3	AC,21201	;AR3 FAILED TO CLEAR
  2108	032154	321 12 0 00 032146 		JUMPL	AC+2,O21200	;LOOP ON ERROR SWITCH
  2109
  2110									;TEST AR2
  2111	032155	205 06 0 00 307400 	O21300:	MOVSI	AC-2,307400	;SETUP FOR COMPARISON
  2112	032156	205 10 0 00 300000 		MOVSI	AC,300000	;SETUP AC
  2113	032157	205 11 0 00 307000 		MOVSI	AC+1,307000	;SETUP BR
  2114	032160	140 10 0 00 000011 		FAD	AC,AC+1		;C(AC)+C(E)
  2115	032161	316 10 0 00 000006 		CAMN	AC,AC-2		;TEST SUM=307400000000
  2116	032162	003 10 0 00 021301 		ER3	AC,21301	;AR2 FAILED TO CLEAR
  2117	032163	321 12 0 00 032155 		JUMPL	AC+2,O21300	;LOOP ON ERROR SWITCHDBKCA	PDP-10 KI10 ADVANCED INSTRUCTION DIAGNOSTIC #1, VERSION 0,3 	MACRO %52(462) 10:44  9-AUG-76 PAGE 26
DBKCAM	MAC	26-MAY-76 16:51		PART I.B-FAD AND NORM RET                                                          SEQ 0063

  2118					;TEST ABILITY TO SET BITS 8-1
  2119					;AR EXP=200,201,202,203,204,205,206,207
  2120					;BR=600400000000
  2121					;FAILURE OF A BIT TO SET RESULTS IN A UNIQUE SUM
  2122
  2123			000007			AC=7
  2124						SAVEAC	(1,1)^
  2125	032164	201 11 0 00 032164 		MOVEI	AC+2,.
  2126	032165	202 11 0 00 030051 		MOVEM	AC+2,TESTPC	;SETUP SUBTEST PC
  2127	032166	201 11 0 00 000011 		MOVEI	AC+2,<AC+2>&17	;INFORM ERROR ROUTINE WHICH
  2128	032167	202 11 0 00 040261 		MOVEM	AC+2,ERRLOP#	;AC IS USED FOR ITERATION^
  2129									;TEST AR8(1)
  2130	032170	205 05 0 00 577200 	O21400:	MOVSI	AC-2,577200	;SETUP FOR COMPARISON
  2131	032171	205 07 0 00 200000 		MOVSI	AC,200000	;SETUP AC
  2132	032172	205 10 0 00 600400 		MOVSI	AC+1,600400	;SETUP BR
  2133	032173	140 07 0 00 000010 		FAD	AC,AC+1		;C(AC)+C(E)
  2134	032174	316 07 0 00 000005 		CAMN	AC,AC-2		;TEST SUM=577200000000
  2135	032175	003 07 0 00 021401 		ER3	AC,21401	;AR8 FAILED TO SET
  2136	032176	321 11 0 00 032170 		JUMPL	AC+2,O21400	;LOOP ON ERROR SWITCH
  2137
  2138									;TEST AR7 (1)
  2139	032177	205 05 0 00 576300 	O21500:	MOVSI	AC-2,576300	;SETUP FOR COMPARISON
  2140	032200	205 07 0 00 201000 		MOVSI	AC,201000	;SETUP AC
  2141	032201	205 10 0 00 600400 		MOVSI	AC+1,600400	;SETUP BR
  2142	032202	140 07 0 00 000010 		FAD	AC,AC+1		;C(AC)+C(E)
  2143	032203	316 07 0 00 000005 		CAMN	AC,AC-2		;TEST SUM=576300000000
  2144	032204	003 07 0 00 021501 		ER3	AC,21501	;AR7 FAILED TO SET
  2145	032205	321 11 0 00 032177 		JUMPL	AC+2,O21500	;LOOP ON ERROR SWITCH
  2146
  2147									;TEST AR6(1)
  2148	032206	205 05 0 00 575340 	O21600:	MOVSI	AC-2,575340	;SETUP FOR COMPARISON
  2149	032207	205 07 0 00 202000 		MOVSI	AC,202000	;SETUP AC
  2150	032210	205 10 0 00 600400 		MOVSI	AC+1,600400	;SETUP BR
  2151	032211	140 07 0 00 000010 		FAD	AC,AC+1		;C(AC)+C(E)
  2152	032212	316 07 0 00 000005 		CAMN	AC,AC-2		;TEST SUM=575340000000
  2153	032213	003 07 0 00 021601 		ER3	AC,21601	;AR6 FAILED TO SET
  2154	032214	321 11 0 00 032206 		JUMPL	AC+2,O21600	;LOOP ON ERROR SWITCH
  2155
  2156									;TEST AR5(1)
  2157	032215	205 05 0 00 574360 	O21700:	MOVSI	AC-2,574360	;SETUP FOR COMPARISON
  2158	032216	205 07 0 00 203000 		MOVSI	AC,203000	;SETUP AC
  2159	032217	205 10 0 00 600400 		MOVSI	AC+1,600400	;SETUP BR
  2160	032220	140 07 0 00 000010 		FAD	AC,AC+1		;C(AC)+C(E)
  2161	032221	316 07 0 00 000005 		CAMN	AC,AC-2		;TEST SUM=574360000000
  2162	032222	003 07 0 00 021701 		ER3	AC,21701	;AR5 FAILED TO SET
  2163	032223	321 11 0 00 032215 		JUMPL	AC+2,O21700	;LOOP ON ERROR SWITCHDBKCA	PDP-10 KI10 ADVANCED INSTRUCTION DIAGNOSTIC #1, VERSION 0,3 	MACRO %52(462) 10:44  9-AUG-76 PAGE 27
DBKCAM	MAC	26-MAY-76 16:51		PART I.B-FAD AND NORM RET                                                          SEQ 0064

  2164									;TEST AR4 (1)
  2165	032224	205 05 0 00 573370 	O22000:	MOVSI	AC-2,573370	;SETUP FOR COMPARISON
  2166	032225	205 07 0 00 204000 		MOVSI	AC,204000	;SETUP AC
  2167	032226	205 10 0 00 600400 		MOVSI	AC+1,600400	;SETUP BR
  2168	032227	140 07 0 00 000010 		FAD	AC,AC+1		;C(AC)+C(E)
  2169	032230	316 07 0 00 000005 		CAMN	AC,AC-2		;TEST SUM=573370000000
  2170	032231	003 07 0 00 022001 		ER3	AC,22001	;AR4 FAILED TO SET
  2171	032232	321 11 0 00 032224 		JUMPL	AC+2,O22000	;LOOP ON ERROR SWITCH
  2172
  2173									;TEST AR3(1)
  2174	032233	205 05 0 00 572374 	O22100:	MOVSI	AC-2,572374	;SETUP FOR COMPARISON
  2175	032234	205 07 0 00 205000 		MOVSI	AC,205000	;SETUP AC
  2176	032235	205 10 0 00 600400 		MOVSI	AC+1,600400	;SETUP BR
  2177	032236	140 07 0 00 000010 		FAD	AC,AC+1		;C(AC)+C(E)
  2178	032237	316 07 0 00 000005 		CAMN	AC,AC-2		;TEST SUM=572374000000
  2179	032240	003 07 0 00 022101 		ER3	AC,22101	;AR3 FAILED TO SET
  2180	032241	321 11 0 00 032233 		JUMPL	AC+2,O22100	;LOOP ON ERROR SWITCH
  2181
  2182									;TEST AR2(1)
  2183	032242	205 05 0 00 571376 	O22200:	MOVSI	AC-2,571376	;SETUP FOR COMPARISON
  2184	032243	205 07 0 00 206000 		MOVSI	AC,206000	;SETUP AC
  2185	032244	205 10 0 00 600400 		MOVSI	AC+1,600400	;SETUP BR
  2186	032245	140 07 0 00 000010 		FAD	AC,AC+1		;C(AC)+C(E)
  2187	032246	316 07 0 00 000005 		CAMN	AC,AC-2		;TEST SUM=571376000000
  2188	032247	003 07 0 00 022201 		ER3	AC,22201	;AR2 FAILED TO SET
  2189	032250	321 11 0 00 032242 		JUMPL	AC+2,O22200	;LOOP ON ERROR SWITCH
  2190
  2191									;TEST AR1(1)
  2192	032251	205 05 0 00 570377 	O22300:	MOVSI	AC-2,570377	;SETUP FOR COMPARISON
  2193	032252	205 07 0 00 207000 		MOVSI	AC,207000	;SETUP AC
  2194	032253	205 10 0 00 600400 		MOVSI	AC+1,600400	;SETUP BR
  2195	032254	140 07 0 00 000010 		FAD	AC,AC+1		;C(AC)+C(E)
  2196	032255	316 07 0 00 000005 		CAMN	AC,AC-2		;TEST SUM=570377000000
  2197	032256	003 07 0 00 022301 		ER3	AC,22301	;AR1 FAILED TO SET
  2198	032257	321 11 0 00 032251 		JUMPL	AC+2,O22300	;LOOP ON ERROR SWITCHDBKCA	PDP-10 KI10 ADVANCED INSTRUCTION DIAGNOSTIC #1, VERSION 0,3 	MACRO %52(462) 10:44  9-AUG-76 PAGE 28
DBKCAM	MAC	26-MAY-76 16:51		PART I.B-FAD AND NORM RET                                                          SEQ 0065

  2199					;AR=400200000000
  2200					;BR=377400000000
  2201					;FAILURE RESULTS IN LOSS OF BR EXPONENT,
  2202					;RESULTING IN AN EXCESSIVE SHIFT COND.-
  2203					;NO ADD STORE 400200000000
  2204
  2205			000006			AC=6
  2206						SAVEAC	(1,1)^
  2207	032260	201 10 0 00 032260 		MOVEI	AC+2,.
  2208	032261	202 10 0 00 030051 		MOVEM	AC+2,TESTPC	;SETUP SUBTEST PC
  2209	032262	201 10 0 00 000010 		MOVEI	AC+2,<AC+2>&17	;INFORM ERROR ROUTINE WHICH
  2210	032263	202 10 0 00 040261 		MOVEM	AC+2,ERRLOP#	;AC IS USED FOR ITERATION^
  2211
  2212	032264	205 04 0 00 400200 	O22400:	MOVSI	AC-2,400200	;SETUP FOR COMPARISON
  2213	032265	205 06 0 00 400200 		MOVSI	AC,400200	;SETUP AC
  2214	032266	205 07 0 00 377400 		MOVSI	AC+1,377400	;SETUP BR
  2215	032267	140 06 0 00 000007 		FAD	AC,AC+1		;C(AC)+C(E)
  2216	032270	316 06 0 00 000004 		CAMN	AC,AC-2		;TEST SUM=400200000000
  2217	032271	003 06 0 00 022401 		ER3	AC,22401
  2218	032272	321 10 0 00 032264 		JUMPL	AC+2,O22400	;LOOP ON ERROR SWITCH
  2219
  2220					;AR=377400000000
  2221					;BBR=400200000000
  2222					;FAILURE RESULTS IN LOSS OF BR EXPONENT,
  2223					;RESULTING IN AN EXECESSIVE SHIFT CONDITION. STORE
  2224					;377400000000
  2225
  2226			000005			AC=5
  2227						SAVEAC	(1,1)^
  2228	032273	201 07 0 00 032273 		MOVEI	AC+2,.
  2229	032274	202 07 0 00 030051 		MOVEM	AC+2,TESTPC	;SETUP SUBTEST PC
  2230	032275	201 07 0 00 000007 		MOVEI	AC+2,<AC+2>&17	;INFORM ERROR ROUTINE WHICH
  2231	032276	202 07 0 00 040261 		MOVEM	AC+2,ERRLOP#	;AC IS USED FOR ITERATION^
  2232
  2233	032277	205 03 0 00 377400 	O22500:	MOVSI	AC-2,377400	;SETUP FOR COMPARISON
  2234	032300	205 05 0 00 377400 		MOVSI	AC,377400	;SETUP AC
  2235	032301	205 06 0 00 400200 		MOVSI	AC+1,400200	;SETUP BR
  2236	032302	140 05 0 00 000006 		FAD	AC,AC+1		;C(AC)+C(E)
  2237	032303	316 05 0 00 000003 		CAMN	AC,AC-2		;TEST SUM=377400000000
  2238	032304	003 05 0 00 022501 		ER3	AC,22501	;SC+BR(FAT1) FAILED
  2239	032305	321 07 0 00 032277 		JUMPL	AC+2,O22500	;LOOP ON ERROR SWITCH
  2240					PAGEDBKCA	PDP-10 KI10 ADVANCED INSTRUCTION DIAGNOSTIC #1, VERSION 0,3 	MACRO %52(462) 10:44  9-AUG-76 PAGE 28-1
DBKCAM	MAC	26-MAY-76 16:51		PART I.B-FAD AND NORM RET                                                          SEQ 0066

  2241					;AR=200400000000
  2242					;BR=600400000000
  2243					;FAILURE RESULTS IN AN NR ALL ZERO COND.
  2244					;FAILURE RESULTS IN A SUM=0
  2245
  2246			000014			AC=14
  2247						SAVEAC	(1,1)^
  2248	032306	201 16 0 00 032306 		MOVEI	AC+2,.
  2249	032307	202 16 0 00 030051 		MOVEM	AC+2,TESTPC	;SETUP SUBTEST PC
  2250	032310	201 16 0 00 000016 		MOVEI	AC+2,<AC+2>&17	;INFORM ERROR ROUTINE WHICH
  2251	032311	202 16 0 00 040261 		MOVEM	AC+2,ERRLOP#	;AC IS USED FOR ITERATION^
  2252
  2253	032312	205 14 0 00 200400 	O22600:	MOVSI	AC,200400	;SETUP AC
  2254	032313	205 15 0 00 600400 		MOVSI	AC+1,600400	;SETUP BR
  2255	032314	140 14 0 00 000015 		FAD	AC,AC+1		;C(AC)+C(E)
  2256	032315	336 00 0 00 000014 		SKIPN	AC		;SETUP SUM=0
  2257	032316	003 14 0 00 022601 		ER3	AC,22601	;SC COMP SETUP FAILED
  2258	032317	321 16 0 00 032312 		JUMPL	AC+2,O22600	;LOOP ON ERROR SWITCHDBKCA	PDP-10 KI10 ADVANCED INSTRUCTION DIAGNOSTIC #1, VERSION 0,3 	MACRO %52(462) 10:44  9-AUG-76 PAGE 29
DBKCAM	MAC	26-MAY-76 16:51		PART I.B-FAD AND NORM RET                                                          SEQ 0067

  2259					;AR=200600000000
  2260					;BR=201400000000
  2261					;FAILURE RESULTS IN SHIFTING SUM OF AR
  2262					;AND BR RESULTING IN A SUM
  2263					;=202640000000
  2264
  2265			000014			AC=14
  2266						SAVEAC	(1,1)^
  2267	032320	201 16 0 00 032320 		MOVEI	AC+2,.
  2268	032321	202 16 0 00 030051 		MOVEM	AC+2,TESTPC	;SETUP SUBTEST PC
  2269	032322	201 16 0 00 000016 		MOVEI	AC+2,<AC+2>&17	;INFORM ERROR ROUTINE WHICH
  2270	032323	202 16 0 00 040261 		MOVEM	AC+2,ERRLOP#	;AC IS USED FOR ITERATION^
  2271
  2272	032324	205 12 0 00 202640 	O22700:	MOVSI	AC-2,202640	;SETUP FOR COMPARISON
  2273	032325	205 14 0 00 200600 		MOVSI	AC,200600	;SETUP AC
  2274	032326	205 15 0 00 201400 		MOVSI	AC+1,201400	;SETUP BR
  2275	032327	140 14 0 00 000015 		FAD	AC,AC+1		;C(AC)+C(E)
  2276	032330	316 14 0 00 000012 		CAMN	AC,AC-2		;TEST SUM=202640000000
  2277	032331	003 14 0 00 022701 		ER3	AC,22701
  2278	032332	321 16 0 00 032324 		JUMPL	AC+2,O22700	;LOOP ON ERROR SWITCH
  2279
  2280					;AR=577600000000 (-1/4) (UNNORMALIZED)
  2281					;BR=200400000000 (+1/2)
  2282					;FAILURE RESULTS IN A CORRECT MANTISSA,
  2283					;THE EXPONENT IS IN ERROR
  2284					;CORRECT SUM=177400000000
  2285					;ERROR SUM=376400000000
  2286
  2287			000013			AC=13
  2288						SAVEAC	(1,1)^
  2289	032333	201 15 0 00 032333 		MOVEI	AC+2,.
  2290	032334	202 15 0 00 030051 		MOVEM	AC+2,TESTPC	;SETUP SUBTEST PC
  2291	032335	201 15 0 00 000015 		MOVEI	AC+2,<AC+2>&17	;INFORM ERROR ROUTINE WHICH
  2292	032336	202 15 0 00 040261 		MOVEM	AC+2,ERRLOP#	;AC IS USED FOR ITERATION^
  2293
  2294	032337	205 11 0 00 376400 	O23000:	MOVSI	AC-2,376400	;SETUP FOR COMPARISON
  2295	032340	205 13 0 00 577600 		MOVSI	AC,577600	;SETUP AC
  2296	032341	205 14 0 00 200400 		MOVSI	AC+1,200400	;SETUP BR
  2297	032342	140 13 0 00 000014 		FAD	AC,AC+1		;C(AC)+C(E)
  2298	032343	316 13 0 00 000011 		CAMN	AC,AC-2		;TEST SUM=376400000000
  2299	032344	003 13 0 00 023001 		ER3	AC,23001
  2300	032345	321 15 0 00 032337 		JUMPL	AC+2,O23000	;LOOP ON ERROR SWITCHDBKCA	PDP-10 KI10 ADVANCED INSTRUCTION DIAGNOSTIC #1, VERSION 0,3 	MACRO %52(462) 10:44  9-AUG-76 PAGE 30
DBKCAM	MAC	26-MAY-76 16:51		PART I.B-FAD AND NORM RET                                                          SEQ 0068

  2301					;AR=600400000000 (-1/4)
  2302					;BR=577200000000 (-3/4)
  2303					;FAILURE RESULTS IN A CORRECT MANTISSA,
  2304					;THE EXPONENT IS IN ERROR
  2305					;CORRECT SUM=576400000000
  2306					;ERROR SUM=600400000000
  2307
  2308			000012			AC=12
  2309						SAVEAC	(1,1)^
  2310	032346	201 14 0 00 032346 		MOVEI	AC+2,.
  2311	032347	202 14 0 00 030051 		MOVEM	AC+2,TESTPC	;SETUP SUBTEST PC
  2312	032350	201 14 0 00 000014 		MOVEI	AC+2,<AC+2>&17	;INFORM ERROR ROUTINE WHICH
  2313	032351	202 14 0 00 040261 		MOVEM	AC+2,ERRLOP#	;AC IS USED FOR ITERATION^
  2314
  2315	032352	205 10 0 00 600400 	O23100:	MOVSI	AC-2,600400	;SETUP FOR COMPARISON
  2316	032353	205 12 0 00 600400 		MOVSI	AC,600400	;SETUP AC
  2317	032354	205 13 0 00 577200 		MOVSI	AC+1,577200	;SETUP BR
  2318	032355	140 12 0 00 000013 		FAD	AC,AC+1		;C(AC)+C(E)
  2319	032356	316 12 0 00 000010 		CAMN	AC,AC-2		;TEST SUM=600400000000
  2320	032357	003 12 0 00 023101 		ER3	AC,23101	;SC COMP SETUP FAILED
  2321	032360	321 14 0 00 032352 		JUMPL	AC+2,O23100	;LOOP ON ERROR SWITCH
  2322
  2323
  2324					;AR=600400000000 (-1/4)
  2325					;BR=577200000000 (-3/4)
  2326					;FAILURE RESULTS IN A CORRECT MANTISSA,
  2327					;THE EXPONENT IS IN ERROR
  2328					;CORRECT SUM=576400000000
  2329					;ERROR SUM =5777400000000
  2330
  2331			000011			AC=11
  2332
  2333						SAVEAC	(1,1)^
  2334	032361	201 13 0 00 032361 		MOVEI	AC+2,.
  2335	032362	202 13 0 00 030051 		MOVEM	AC+2,TESTPC	;SETUP SUBTEST PC
  2336	032363	201 13 0 00 000013 		MOVEI	AC+2,<AC+2>&17	;INFORM ERROR ROUTINE WHICH
  2337	032364	202 13 0 00 040261 		MOVEM	AC+2,ERRLOP#	;AC IS USED FOR ITERATION^
  2338
  2339	032365	205 07 0 00 577400 	O23200:	MOVSI	AC-2,577400	;SETUP FOR COMPARISON
  2340	032366	205 11 0 00 600400 		MOVSI	AC,600400	;SETUP AC
  2341	032367	205 12 0 00 577200 		MOVSI	AC+1,577200	;SETUP BR
  2342	032370	140 11 0 00 000012 		FAD	AC,AC+1		;C(AC)+C(E)
  2343	032371	316 11 0 00 000007 		CAMN	AC,AC-2		;TEST SUM=577400000000
  2344	032372	003 11 0 00 023201 		ER3	AC,23201
  2345	032373	321 13 0 00 032365 		JUMPL	AC+2,O23200	;LOOP ON ERROR SWITCHDBKCA	PDP-10 KI10 ADVANCED INSTRUCTION DIAGNOSTIC #1, VERSION 0,3 	MACRO %52(462) 10:44  9-AUG-76 PAGE 31
DBKCAM	MAC	26-MAY-76 16:51		PART I.B-FAD AND NORM RET                                                          SEQ 0069

  2346					;AR=600400000000 (-1/4)
  2347					;BR=577200000000 (-3/4)
  2348					;FAILURE RESULTS IN A CORRECT MANTISSA,
  2349					;THE EXPONENT IS IN ERROR
  2350					;CORRECT SUM=576400000000
  2351					;ERROR SUM=577000000000
  2352
  2353			000010			AC=10
  2354						SAVEAC	(1,1)^
  2355	032374	201 12 0 00 032374 		MOVEI	AC+2,.
  2356	032375	202 12 0 00 030051 		MOVEM	AC+2,TESTPC	;SETUP SUBTEST PC
  2357	032376	201 12 0 00 000012 		MOVEI	AC+2,<AC+2>&17	;INFORM ERROR ROUTINE WHICH
  2358	032377	202 12 0 00 040261 		MOVEM	AC+2,ERRLOP#	;AC IS USED FOR ITERATION^
  2359
  2360	032400	205 06 0 00 577000 	O23300:	MOVSI	AC-2,577000	;SETUP FOR COMPARISON
  2361	032401	205 10 0 00 600400 		MOVSI	AC,600400	;SETUP AC
  2362	032402	205 11 0 00 577200 		MOVSI	AC+1,577200	;SETUP BR
  2363	032403	140 10 0 00 000011 		FAD	AC,AC+1		;C(AC)+C(E)
  2364	032404	316 10 0 00 000006 		CAMN	AC,AC-2		;TEST SUM=577000000000
  2365	032405	003 10 0 00 023301 		ER3	AC,23301
  2366	032406	321 12 0 00 032400 		JUMPL	AC+2,O23300	;LOOP ON ERROR SWITCH
  2367
  2368					;AR=201400000000 (+1)
  2369					;BR=200400000000 (+1/2)
  2370					;CORRECT SUM=201600000000
  2371					;ERROR SUM=200600000000
  2372
  2373			000010			AC=10
  2374						SAVEAC	(1,1)^
  2375	032407	201 12 0 00 032407 		MOVEI	AC+2,.
  2376	032410	202 12 0 00 030051 		MOVEM	AC+2,TESTPC	;SETUP SUBTEST PC
  2377	032411	201 12 0 00 000012 		MOVEI	AC+2,<AC+2>&17	;INFORM ERROR ROUTINE WHICH
  2378	032412	202 12 0 00 040261 		MOVEM	AC+2,ERRLOP#	;AC IS USED FOR ITERATION^
  2379
  2380	032413	205 06 0 00 200600 	O23400:	MOVSI	AC-2,200600	;SETUP FOR COMPARISON
  2381	032414	205 10 0 00 201400 		MOVSI	AC,201400	;SETUP AC
  2382	032415	205 11 0 00 200400 		MOVSI	AC+1,200400	;SETUP BR
  2383	032416	140 10 0 00 000011 		FAD	AC,AC+1		;C(AC)+C(E)
  2384	032417	316 10 0 00 000006 		CAMN	AC,AC-2		;TEST SUM=200600000000
  2385	032420	003 10 0 00 023401 		ER3	AC,23401
  2386	032421	321 12 0 00 032413 		JUMPL	AC+2,O23400	;LOOP ON ERROR SWITCHDBKCA	PDP-10 KI10 ADVANCED INSTRUCTION DIAGNOSTIC #1, VERSION 0,3 	MACRO %52(462) 10:44  9-AUG-76 PAGE 32
DBKCAM	MAC	26-MAY-76 16:51		PART I.B-FAD AND NORM RET                                                          SEQ 0070

  2387					;AR=576400000000 (-1)
  2388					;BR=200400000000 (+1/2)
  2389					;CORRECT SUM=577400000000 (-1/2)
  2390					;ERROR SUM=177400000000
  2391
  2392			000007			AC=7
  2393						SAVEAC	(1,1)^
  2394	032422	201 11 0 00 032422 		MOVEI	AC+2,.
  2395	032423	202 11 0 00 030051 		MOVEM	AC+2,TESTPC	;SETUP SUBTEST PC
  2396	032424	201 11 0 00 000011 		MOVEI	AC+2,<AC+2>&17	;INFORM ERROR ROUTINE WHICH
  2397	032425	202 11 0 00 040261 		MOVEM	AC+2,ERRLOP#	;AC IS USED FOR ITERATION^
  2398
  2399	032426	205 05 0 00 177400 	O23500:	MOVSI	AC-2,177400	;SETUP FOR COMPARISON
  2400	032427	205 07 0 00 576400 		MOVSI	AC,576400	;SETUP AC
  2401	032430	205 10 0 00 200400 		MOVSI	AC+1,200400	;SETUP BR
  2402	032431	140 07 0 00 000010 		FAD	AC,AC+1		;C(AC)+C(E)
  2403	032432	316 07 0 00 000005 		CAMN	AC,AC-2		;TEST SUM=177400000000
  2404	032433	003 07 0 00 023501 		ER3	AC,23501
  2405	032434	321 11 0 00 032426 		JUMPL	AC+2,O23500	;LOOP ON ERROR SWITCH
  2406
  2407					;AR=200440000000
  2408					;BR=200400000000
  2409					;CORRECT SUM=201400000000
  2410					;ERROR SUM=570000000000
  2411
  2412			000010			AC=10
  2413						SAVEAC	(1,1)^
  2414	032435	201 12 0 00 032435 		MOVEI	AC+2,.
  2415	032436	202 12 0 00 030051 		MOVEM	AC+2,TESTPC	;SETUP SUBTEST PC
  2416	032437	201 12 0 00 000012 		MOVEI	AC+2,<AC+2>&17	;INFORM ERROR ROUTINE WHICH
  2417	032440	202 12 0 00 040261 		MOVEM	AC+2,ERRLOP#	;AC IS USED FOR ITERATION^
  2418
  2419	032441	205 06 0 00 175400 	O23600:	MOVSI	AC-2,175400	;SETUP FOR COMPARISON
  2420	032442	205 10 0 00 200440 		MOVSI	AC,200440	;SETUP AC
  2421	032443	205 11 0 00 200400 		MOVSI	AC+1,200400	;SETUP BR
  2422	032444	140 10 0 00 000011 		FAD	AC,AC+1		;C(AC)+C(E)
  2423	032445	316 10 0 00 000006 		CAMN	AC,AC-2		;TEST SUM=175400000000
  2424	032446	003 10 0 00 023601 		ER3	AC,23601
  2425	032447	321 12 0 00 032441 		JUMPL	AC+2,O23600	;LOOP ON ERROR SWITCHDBKCA	PDP-10 KI10 ADVANCED INSTRUCTION DIAGNOSTIC #1, VERSION 0,3 	MACRO %52(462) 10:44  9-AUG-76 PAGE 33
DBKCAM	MAC	26-MAY-76 16:51		PART I.B-FAD AND NORM RET                                                          SEQ 0071

  2426					;TEST ABILITY TO BRING UP NRT10
  2427					;AR=577400000000 (-1/2)
  2428					;BR=577400000000 (-1/2)
  2429					;CORRECT SUM=576400000000 (-1)
  2430					;ERROR SUM=577000000000
  2431
  2432			000007			AC=7
  2433						SAVEAC	(1,1)^
  2434	032450	201 11 0 00 032450 		MOVEI	AC+2,.
  2435	032451	202 11 0 00 030051 		MOVEM	AC+2,TESTPC	;SETUP SUBTEST PC
  2436	032452	201 11 0 00 000011 		MOVEI	AC+2,<AC+2>&17	;INFORM ERROR ROUTINE WHICH
  2437	032453	202 11 0 00 040261 		MOVEM	AC+2,ERRLOP#	;AC IS USED FOR ITERATION^
  2438
  2439	032454	205 05 0 00 577000 	O23700:	MOVSI	AC-2,577000	;SETUP FOR COMPARISON
  2440	032455	205 07 0 00 577400 		MOVSI	AC,577400	;SETUP AC
  2441	032456	205 10 0 00 577400 		MOVSI	AC+1,577400	;SETUP BR
  2442	032457	140 07 0 00 000010 		FAD	AC,AC+1		;C(AC)+C(E)
  2443	032460	316 07 0 00 000005 		CAMN	AC,AC-2		;TEST SUM=577000000000
  2444	032461	003 07 0 00 023701 		ER3	AC,23701
  2445	032462	321 11 0 00 032454 		JUMPL	AC+2,O23700	;LOOP ON ERROR SWITCHDBKCA	PDP-10 KI10 ADVANCED INSTRUCTION DIAGNOSTIC #1, VERSION 0,3 	MACRO %52(462) 10:44  9-AUG-76 PAGE 34
DBKCAM	MAC	26-MAY-76 16:51		PART I.C-FAD (LONG, NORM RET, ROUNDING)                                            SEQ 0072

  2446					SUBTTL	PART I.C-FAD (LONG, NORM RET, ROUNDING)
  2447
  2448					;		PART I.C-FAD(LONG, NORM RET, ROUNDING)
  2449
  2450					;TEST APPARENT ABILITY TO FCE,
  2451					;FAC, SAC, SAC2 AND DECODE
  2452					;AR=200400000077
  2453					;BR=206400000000
  2454					;FCE/SAC FAIL-C(AC) EQUALS ORIGINAL
  2455					;FAC FAILS-C(AC) EQUALS C(E)
  2456					;SAC2 FAILS- C(AC+1) EQUALS ORIGINAL
  2457
  2458			000014			AC=14
  2459						SAVEAC	(1,1)^
  2460	032463	201 16 0 00 032463 		MOVEI	AC+2,.
  2461	032464	202 16 0 00 030051 		MOVEM	AC+2,TESTPC	;SETUP SUBTEST PC
  2462	032465	201 16 0 00 000016 		MOVEI	AC+2,<AC+2>&17	;INFORM ERROR ROUTINE WHICH
  2463	032466	202 16 0 00 040261 		MOVEM	AC+2,ERRLOP#	;AC IS USED FOR ITERATION^
  2464
  2465	032467	541 12 0 00 000077 	O24000:	HRRI	AC-2,77		;SETUP AC-2
  2466	032470	505 12 0 00 200400 		HRLI	AC-2,200400	;FOR COMPARISON
  2467	032471	541 14 0 00 000077 		HRRI	AC,77		;SETUP
  2468	032472	505 14 0 00 200400 		HRLI	AC,200400	;AC
  2469	032473	205 13 0 00 206400 		MOVSI	AC-1,206400	;SETUP BR
  2470	032474	400 15 0 00 000000 		SETZ	AC+1,		;CLEAR AC+1
  2471	032475	141 14 0 00 000013 		FADL	AC,AC-1		;C(AC)+C(E)
  2472	032476	316 14 0 00 000012 		CAMN	AC,AC-2		;TEST C(AC)=ORIGINAL
  2473	032477	003 14 0 00 024001 		ER3	AC,24001	;FCE/SAC FAILED
  2474	032500	316 14 0 00 000013 		CAMN	AC,AC-1		;TEST C(AC)=C(E)
  2475	032501	003 14 0 00 024001 		ER3	AC,24001	;FAC FAILED
  2476	032502	336 00 0 00 000015 		SKIPN	AC+1		;TEST C(AC+1)=ORIGINAL
  2477	032503	004 15 0 00 024001 		ER4	AC+1,24001	;SAC2 FAILED
  2478	032504	321 16 0 00 032467 		JUMPL	AC+2,O24000	;LOOP ON ERROR SWITCHDBKCA	PDP-10 KI10 ADVANCED INSTRUCTION DIAGNOSTIC #1, VERSION 0,3 	MACRO %52(462) 10:44  9-AUG-76 PAGE 35
DBKCAM	MAC	26-MAY-76 16:51		PART I.C-FAD (LONG, NORM RET, ROUNDING)                                            SEQ 0073

  2479
  2480					;TEST APPARENT ABILITY TO SHIFT
  2481					;AR=200400000077
  2482					;BR=206400000000
  2483					;FAILURE TO SHIFT RESULTS IN A LOW
  2484					;ORDER SUM=0
  2485					;CORRECT HIGH ORDER=206404000000
  2486					;CORRECT LOW ORDER=153770000000
  2487
  2488			000014			AC=14
  2489						SAVEAC	(1,1)^
  2490	032505	201 16 0 00 032505 		MOVEI	AC+2,.
  2491	032506	202 16 0 00 030051 		MOVEM	AC+2,TESTPC	;SETUP SUBTEST PC
  2492	032507	201 16 0 00 000016 		MOVEI	AC+2,<AC+2>&17	;INFORM ERROR ROUTINE WHICH
  2493	032510	202 16 0 00 040261 		MOVEM	AC+2,ERRLOP#	;AC IS USED FOR ITERATION^
  2494
  2495	032511	541 14 0 00 000077 	O24100:	HRRI	AC,77		;SETUP
  2496	032512	505 14 0 00 200400 		HRLI	AC,200400	;AC
  2497	032513	205 13 0 00 206400 		MOVSI	AC-1,206400	;SETUP BR
  2498	032514	400 15 0 00 000000 		SETZ	AC+1,		;CLEAR AC+1
  2499	032515	141 14 0 00 000013 		FADL	AC,AC-1		;C(AC)+C(E)
  2500	032516	336 00 0 00 000015 		SKIPN	AC+1		;TEST AC+1 NOT = 0
  2501	032517	004 15 0 00 024101 		ER4	AC+1,24101	;MQ FAILED TO SHIFT
  2502	032520	321 16 0 00 032511 		JUMPL	AC+2,O24100	;LOOP ON ERROR SWITCHDBKCA	PDP-10 KI10 ADVANCED INSTRUCTION DIAGNOSTIC #1, VERSION 0,3 	MACRO %52(462) 10:44  9-AUG-76 PAGE 36
DBKCAM	MAC	26-MAY-76 16:51		PART I.C-FAD (LONG, NORM RET, ROUNDING)                                            SEQ 0074

  2503					;TEST IR FP LONG AND-IR FDVX
  2504					;AR=200400000077
  2505					;BR=206400000000
  2506					;IR FP LONG FAILS-C(AC+1)=ORIGINAL
  2507					;-IR FDVX FAILS-C(AC+1)=001760000000
  2508					;THE HIGH ORDER SUM IS CORRECT IN BOTH CASES
  2509					;HIGH ORDER SUM=206404000000
  2510					;CORR LOW ORDER SUM=153770000000
  2511
  2512			000013			AC=13
  2513						SAVEAC	(1,1)^
  2514	032521	201 15 0 00 032521 		MOVEI	AC+2,.
  2515	032522	202 15 0 00 030051 		MOVEM	AC+2,TESTPC	;SETUP SUBTEST PC
  2516	032523	201 15 0 00 000015 		MOVEI	AC+2,<AC+2>&17	;INFORM ERROR ROUTINE WHICH
  2517	032524	202 15 0 00 040261 		MOVEM	AC+2,ERRLOP#	;AC IS USED FOR ITERATION^
  2518
  2519									;TEST IR FP LONG
  2520	032525	205 11 0 00 206404 	O24200:	MOVSI	AC-2,206404	;SETUP FOR COMPARISON
  2521	032526	541 13 0 00 000077 		HRRI	AC,77		;SETUP
  2522	032527	505 13 0 00 200400 		HRLI	AC,200400	;AC
  2523	032530	205 12 0 00 206400 		MOVSI	AC-1,206400	;SETUP BR
  2524	032531	400 14 0 00 000000 		SETZ	AC+1,		;CLEAR AC+1
  2525	032532	141 13 0 00 000012 		FADL	AC,AC-1		;C(AC)+C(E)
  2526	032533	312 13 0 00 000011 		CAME	AC,AC-2		;TEST CORR HIGH ORDER SUM
  2527	032534	003 13 0 00 024201 		ER3	AC,24201	;INCORRECT HIGH ORDER
  2528	032535	336 00 0 00 000014 		SKIPN	AC+1		;TEST AC+1 DIFFERS ORIG
  2529	032536	004 14 0 00 024201 		ER4	AC+1,24201	;IR FP LONG FAILED
  2530	032537	321 15 0 00 032525 		JUMPL	AC+2,O24200	;LOOP ON ERROR SWITCH
  2531
  2532									;TEST-IR FDVX
  2533	032540	205 11 0 00 206404 	O24300:	MOVSI	AC-2,206404	;SETUP FOR COMPARISON
  2534	032541	541 13 0 00 000077 		HRRI	AC,77		;SETUP
  2535	032542	505 13 0 00 200400 		HRLI	AC,200400	;AC
  2536	032543	205 12 0 00 206400 		MOVSI	AC-1,206400	;SETUP BR
  2537	032544	141 13 0 00 000012 		FADL	AC,AC-1		;C(AC)+C(E)
  2538	032545	312 13 0 00 000011 		CAME	AC,AC-2		;TEST CORR HIGH ORDER
  2539	032546	003 13 0 00 024301 		ER3	AC,24301	;INCORRECT HIGH ORDER
  2540	032547	205 11 0 00 001760 		MOVSI	AC-2,1760	;SETUP FOR COMPARISON
  2541	032550	316 14 0 00 000011 		CAMN	AC+1,AC-2	;TEST LOW SUM=1760000000
  2542	032551	004 14 0 00 024301 		ER4	AC+1,24301	;-IR FDVX FAILED
  2543	032552	321 15 0 00 032540 		JUMPL	AC+2,O24300	;LOOP ON ERROR SWITCHDBKCA	PDP-10 KI10 ADVANCED INSTRUCTION DIAGNOSTIC #1, VERSION 0,3 	MACRO %52(462) 10:44  9-AUG-76 PAGE 37
DBKCAM	MAC	26-MAY-76 16:51		PART I.C-FAD (LONG, NORM RET, ROUNDING)                                            SEQ 0075

  2544					;AR=200400000077
  2545					;BR=206400000000
  2546					;FAILURE RESULTS IN A CORRECT
  2547					;HIGH ORDER SUM.  THE EXPONENT OF THE
  2548					;LOW ORDER SUM IS IN ERROR
  2549					;CORR HIGH ORDER=206404000000
  2550					;CORR LOW ORDER=153770000000
  2551					;ERR LOW ORDER=206770000000
  2552
  2553			000012			AC=12
  2554						SAVEAC	(1,1)^
  2555	032553	201 14 0 00 032553 		MOVEI	AC+2,.
  2556	032554	202 14 0 00 030051 		MOVEM	AC+2,TESTPC	;SETUP SUBTEST PC
  2557	032555	201 14 0 00 000014 		MOVEI	AC+2,<AC+2>&17	;INFORM ERROR ROUTINE WHICH
  2558	032556	202 14 0 00 040261 		MOVEM	AC+2,ERRLOP#	;AC IS USED FOR ITERATION^
  2559
  2560	032557	205 10 0 00 206770 	O24400:	MOVSI	AC-2,206770	;SETUP FOR COMPARISON
  2561	032560	541 12 0 00 000077 		HRRI	AC,77		;SETUP
  2562	032561	505 12 0 00 200400 		HRLI	AC,200400	;AC
  2563	032562	205 11 0 00 206400 		MOVSI	AC-1,206400	;SETUP BR
  2564	032563	141 12 0 00 000011 		FADL	AC,AC-1		;C(AC)+C(E)
  2565	032564	316 13 0 00 000010 		CAMN	AC+1,AC-2	;TEST LOW SUM=206770000000
  2566	032565	004 13 0 00 024401 		ER4	AC+1,24401
  2567	032566	321 14 0 00 032557 		JUMPL	AC+2,O24400	;LOOP ON ERROR SWITCH
  2568
  2569					;AR=200400000077
  2570					;BR=206400000000
  2571					;FAILURE RESULTS IN LOSS OF HIGH ORDER SUM
  2572					;CORRECT HIGH ORDER=206404000000
  2573					;CORRECT LOW ORDER=153770000000
  2574					;ERROR HIGH ORDER=001760000000
  2575
  2576			000011			AC=11
  2577						SAVEAC	(1,1)^
  2578	032567	201 13 0 00 032567 		MOVEI	AC+2,.
  2579	032570	202 13 0 00 030051 		MOVEM	AC+2,TESTPC	;SETUP SUBTEST PC
  2580	032571	201 13 0 00 000013 		MOVEI	AC+2,<AC+2>&17	;INFORM ERROR ROUTINE WHICH
  2581	032572	202 13 0 00 040261 		MOVEM	AC+2,ERRLOP#	;AC IS USED FOR ITERATION^
  2582
  2583	032573	205 07 0 00 153770 	O24500:	MOVSI	AC-2,153770	;SETUP FOR COMPARISON
  2584	032574	541 11 0 00 000077 		HRRI	AC,77		;SETUP
  2585	032575	505 11 0 00 200400 		HRLI	AC,200400	;AC
  2586	032576	205 10 0 00 206400 		MOVSI	AC-1,206400	;SETUP BR
  2587	032577	141 11 0 00 000010 		FADL	AC,AC-1		;C(AC)+C(E)
  2588	032600	312 12 0 00 000007 		CAME	AC+1,AC-2	;TEST CORR LOW ORDER SUM
  2589	032601	004 12 0 00 024501 		ER4	AC+1,24501		;INCORRECT LOW ORDER
  2590	032602	205 07 0 00 001760 		MOVSI	AC-2,1760	;SETUP FOR COMPARISON
  2591	032603	316 11 0 00 000007 		CAMN	AC,AC-2		;TEST HIGH SUM=1760000000
  2592	032604	003 11 0 00 024501 		ER3	AC,24501
  2593	032605	321 13 0 00 032573 		JUMPL	AC+2,O24500	;LOOP ON ERROR SWITCHDBKCA	PDP-10 KI10 ADVANCED INSTRUCTION DIAGNOSTIC #1, VERSION 0,3 	MACRO %52(462) 10:44  9-AUG-76 PAGE 38
DBKCAM	MAC	26-MAY-76 16:51		PART I.C-FAD (LONG, NORM RET, ROUNDING)                                            SEQ 0076

  2594					;AR=200400000077
  2595					;BR=206400000000
  2596					;FAILURE RESULTS IN LOSS OF LOW ORDER SUM
  2597					;CORRECT HIGH ORDER=206404000000
  2598					;CORRECT LOW ORDER=153770000000
  2599					;ERROR LOW ORDER=153202000000
  2600
  2601			000010			AC=10
  2602						SAVEAC	(1,1)^
  2603	032606	201 12 0 00 032606 		MOVEI	AC+2,.
  2604	032607	202 12 0 00 030051 		MOVEM	AC+2,TESTPC	;SETUP SUBTEST PC
  2605	032610	201 12 0 00 000012 		MOVEI	AC+2,<AC+2>&17	;INFORM ERROR ROUTINE WHICH
  2606	032611	202 12 0 00 040261 		MOVEM	AC+2,ERRLOP#	;AC IS USED FOR ITERATION^
  2607
  2608	032612	205 06 0 00 153202 	O24600:	MOVSI	AC-2,153202	;SETUP FOR COMPARISON
  2609	032613	541 10 0 00 000077 		HRRI	AC,77		;SETUP
  2610	032614	505 10 0 00 200400 		HRLI	AC,200400	;AC
  2611	032615	205 07 0 00 206400 		MOVSI	AC-1,206400	;SETUP BR
  2612	032616	141 10 0 00 000007 		FADL	AC,AC-1		;C(AC)+C(E)
  2613	032617	316 11 0 00 000006 		CAMN	AC+1,AC-2	;TEST LOW SUM=153202000000
  2614	032620	004 11 0 00 024601 		ER4	AC+1,24601
  2615	032621	321 12 0 00 032612 		JUMPL	AC+2,O24600	;LOOP ON ERROR SWITCH
  2616
  2617					;AR=200400000077
  2618					;BR=206400000000
  2619					;FAILURE RESULTS IN A CORRECT HIGH ORDER
  2620					;SUM. THE LOW ORDER SUM IS IN ERROR
  2621					;CORRECT HIGH ORDER 206404000000
  2622					;CORRECT LOW ORDER 153770000000
  2623					;ERROR LOW ORDER 153760000000
  2624
  2625			000007			AC=7
  2626						SAVEAC	(1,1)^
  2627	032622	201 11 0 00 032622 		MOVEI	AC+2,.
  2628	032623	202 11 0 00 030051 		MOVEM	AC+2,TESTPC	;SETUP SUBTEST PC
  2629	032624	201 11 0 00 000011 		MOVEI	AC+2,<AC+2>&17	;INFORM ERROR ROUTINE WHICH
  2630	032625	202 11 0 00 040261 		MOVEM	AC+2,ERRLOP#	;AC IS USED FOR ITERATION^
  2631
  2632	032626	205 05 0 00 153760 	O24700:	MOVSI	AC-2,153760	;SETUP FOR COMPARISON
  2633	032627	541 07 0 00 000077 		HRRI	AC,77		;SETUP
  2634	032630	505 07 0 00 200400 		HRLI	AC,200400	;AC
  2635	032631	205 06 0 00 206400 		MOVSI	AC-1,206400	;SETUP BR
  2636	032632	141 07 0 00 000006 		FADL	AC,AC-1		;C(AC)+C(E)
  2637	032633	316 10 0 00 000005 		CAMN	AC+1,AC-2	;TEST LOW SUM=153760000000
  2638	032634	004 10 0 00 024701 		ER4	AC+1,24701
  2639	032635	321 11 0 00 032626 		JUMPL	AC+2,O24700	;LOOP ON ERROR SWITCHDBKCA	PDP-10 KI10 ADVANCED INSTRUCTION DIAGNOSTIC #1, VERSION 0,3 	MACRO %52(462) 10:44  9-AUG-76 PAGE 39
DBKCAM	MAC	26-MAY-76 16:51		PART I.C-FAD (LONG, NORM RET, ROUNDING)                                            SEQ 0077

  2640					;AR=200400000077
  2641					;BR=206400000000
  2642					;FAILURE RESULTS IN A CORRECT HIGH ORDER
  2643					;SUM. THE EXPONENT OF THE LOW ORDER SUM
  2644					;IS IN ERROR
  2645					;CORRECT HIGH ORDER=206404000000
  2646					;CORRECT LOW ORDER=153770000000
  2647					;ERROR LOW ORDER=120770000000
  2648
  2649			000014			AC=14
  2650						SAVEAC	(1,1)^
  2651	032636	201 16 0 00 032636 		MOVEI	AC+2,.
  2652	032637	202 16 0 00 030051 		MOVEM	AC+2,TESTPC	;SETUP SUBTEST PC
  2653	032640	201 16 0 00 000016 		MOVEI	AC+2,<AC+2>&17	;INFORM ERROR ROUTINE WHICH
  2654	032641	202 16 0 00 040261 		MOVEM	AC+2,ERRLOP#	;AC IS USED FOR ITERATION^
  2655
  2656	032642	205 12 0 00 120770 	O25000:	MOVSI	AC-2,120770	;SETUP FOR COMPARISON
  2657	032643	541 14 0 00 000077 		HRRI	AC,77		;SETUP
  2658	032644	505 14 0 00 200400 		HRLI	AC,200400	;AC
  2659	032645	205 13 0 00 206400 		MOVSI	AC-1,206400	;SETUP BR
  2660	032646	141 14 0 00 000013 		FADL	AC,AC-1		;C(AC)+C(E)
  2661	032647	316 15 0 00 000012 		CAMN	AC+1,AC-2	;TEST LOW SUM=120770000000
  2662	032650	004 15 0 00 025001 		ER4	AC+1,25001
  2663	032651	321 16 0 00 032642 		JUMPL	AC+2,O25000	;LOOP ON ERROR SWITCH
  2664
  2665					;AR=200400000077
  2666					;BR=206400000000
  2667					;FAILURE RESULTS IN A CORRECT HIGH ORDER
  2668					;SUM, THE EXPONENT OF THE LOW ORDER
  2669					;SUM IS LOST
  2670					;CORRECT HIGH ORDER=206404000000
  2671					;CORRECT LOW ORDER=153770000000
  2672					;ERROR LOW ORDER=000770000000
  2673
  2674			000014			AC=14
  2675						SAVEAC	(1,1)^
  2676	032652	201 16 0 00 032652 		MOVEI	AC+2,.
  2677	032653	202 16 0 00 030051 		MOVEM	AC+2,TESTPC	;SETUP SUBTEST PC
  2678	032654	201 16 0 00 000016 		MOVEI	AC+2,<AC+2>&17	;INFORM ERROR ROUTINE WHICH
  2679	032655	202 16 0 00 040261 		MOVEM	AC+2,ERRLOP#	;AC IS USED FOR ITERATION^
  2680
  2681	032656	205 12 0 00 000770 	O25100:	MOVSI	AC-2,770	;SETUP FOR COMPARISON
  2682	032657	541 14 0 00 000077 		HRRI	AC,77		;SETUP
  2683	032660	505 14 0 00 200400 		HRLI	AC,200400	;AC
  2684	032661	205 13 0 00 206400 		MOVSI	AC-1,206400	;SETUP BR
  2685	032662	141 14 0 00 000013 		FADL	AC,AC-1		;C(AC)+C(E)
  2686	032663	316 15 0 00 000012 		CAMN	AC+1,AC-2	;TEST LOW SUM=770000000
  2687	032664	004 15 0 00 025101 		ER4	AC+1,25101
  2688	032665	321 16 0 00 032656 		JUMPL	AC+2,O25100	;LOOP ON ERROR SWITCHDBKCA	PDP-10 KI10 ADVANCED INSTRUCTION DIAGNOSTIC #1, VERSION 0,3 	MACRO %52(462) 10:44  9-AUG-76 PAGE 40
DBKCAM	MAC	26-MAY-76 16:51		PART I.C-FAD (LONG, NORM RET, ROUNDING)                                            SEQ 0078

  2689					;AR=200400000077
  2690					;BR=206400000000
  2691					;FAILURE RESULTS IN LOSS OF HIGH ORDER
  2692					;SUM. HIGH ORDER SUM EQUALS LOW
  2693					;ORDER SUM
  2694					;CORRECT HIGH ORDER=206404000000
  2695					;CORRECT LOW ORDER=153770000000
  2696					;ERROR HIGH ORDER=153770000000
  2697
  2698			000013			AC=13
  2699						SAVEAC	(1,1)^
  2700	032666	201 15 0 00 032666 		MOVEI	AC+2,.
  2701	032667	202 15 0 00 030051 		MOVEM	AC+2,TESTPC	;SETUP SUBTEST PC
  2702	032670	201 15 0 00 000015 		MOVEI	AC+2,<AC+2>&17	;INFORM ERROR ROUTINE WHICH
  2703	032671	202 15 0 00 040261 		MOVEM	AC+2,ERRLOP#	;AC IS USED FOR ITERATION^
  2704
  2705	032672	205 11 0 00 153770 	O25200:	MOVSI	AC-2,153770	;SETUP FOR COMPARISON
  2706	032673	541 13 0 00 000077 		HRRI	AC,77		;SETUP
  2707	032674	505 13 0 00 200400 		HRLI	AC,200400	;AC
  2708	032675	205 12 0 00 206400 		MOVSI	AC-1,206400	;SETUP BR
  2709	032676	141 13 0 00 000012 		FADL	AC,AC-1		;C(AC)+C(E)
  2710	032677	316 13 0 00 000011 		CAMN	AC,AC-2		;TEST HIGH SUM=LOW SUM
  2711	032700	003 13 0 00 025201 		ER3	AC,25201
  2712	032701	321 15 0 00 032672 		JUMPL	AC+2,O25200	;LOOP ON ERROR SWITCH
  2713
  2714					;AR=200400000077
  2715					;BR=206400000000
  2716					;FAILURE RESULTS IN LOSS OF LOW ORDER SUM.
  2717					;LOW ORDER SUM EQUALS HIGH ORDER SUM
  2718					;CORRECT HIGH ORDER=206404000000
  2719					;CORRECT LOW ORDER=153770000000
  2720					;ERROR LOW ORDER=206404000000
  2721
  2722			000012			AC=12
  2723						SAVEAC	(1,1)^
  2724	032702	201 14 0 00 032702 		MOVEI	AC+2,.
  2725	032703	202 14 0 00 030051 		MOVEM	AC+2,TESTPC	;SETUP SUBTEST PC
  2726	032704	201 14 0 00 000014 		MOVEI	AC+2,<AC+2>&17	;INFORM ERROR ROUTINE WHICH
  2727	032705	202 14 0 00 040261 		MOVEM	AC+2,ERRLOP#	;AC IS USED FOR ITERATION^
  2728
  2729	032706	205 10 0 00 206404 	O25300:	MOVSI	AC-2,206404	;SETUP FOR COMPARISON
  2730	032707	541 12 0 00 000077 		HRRI	AC,77		;SETUP
  2731	032710	505 12 0 00 200400 		HRLI	AC,200400	;AC
  2732	032711	205 11 0 00 206400 		MOVSI	AC-1,206400	;SETUP BR
  2733	032712	141 12 0 00 000011 		FADL	AC,AC-1		;C(AC)+C(E)
  2734	032713	316 13 0 00 000010 		CAMN	AC+1,AC-2	;TEST LOW SUM=HIGH SUM
  2735	032714	004 13 0 00 025301 		ER4	AC+1,25301
  2736	032715	321 14 0 00 032706 		JUMPL	AC+2,O25300	;LOOP ON ERROR SWITCHDBKCA	PDP-10 KI10 ADVANCED INSTRUCTION DIAGNOSTIC #1, VERSION 0,3 	MACRO %52(462) 10:44  9-AUG-76 PAGE 41
DBKCAM	MAC	26-MAY-76 16:51		PART I.C-FAD (LONG, NORM RET, ROUNDING)                                            SEQ 0079

  2737					;LOW ORDER EXPONENT IS LESS THAN 33
  2738					;AR=030400000003
  2739					;BR=032400000000
  2740					;FAILURE RESULTS IN A CORRECT HIGH ORDER
  2741					;SUM. THE LOW ORDER SUM IS IN ERROR
  2742					;CORRECT HIGH ORDER=032500000000
  2743					;CORRECT LOW ORDER=0
  2744					;ERROR LOW ORDER=377240000000
  2745
  2746			000011			AC=11
  2747						SAVEAC	(1,1)^
  2748	032716	201 13 0 00 032716 		MOVEI	AC+2,.
  2749	032717	202 13 0 00 030051 		MOVEM	AC+2,TESTPC	;SETUP SUBTEST PC
  2750	032720	201 13 0 00 000013 		MOVEI	AC+2,<AC+2>&17	;INFORM ERROR ROUTINE WHICH
  2751	032721	202 13 0 00 040261 		MOVEM	AC+2,ERRLOP#	;AC IS USED FOR ITERATION^
  2752
  2753	032722	205 07 0 00 377240 	O25400:	MOVSI	AC-2,377240	;SETUP FOR COMPARISON
  2754	032723	541 11 0 00 000003 		HRRI	AC,3		;SETUP
  2755	032724	505 11 0 00 030400 		HRLI	AC,30400	;AC
  2756	032725	205 10 0 00 032400 		MOVSI	AC-1,32400	;SETUP BR
  2757	032726	141 11 0 00 000010 		FADL	AC,AC-1		;C(AC)+C(E)
  2758	032727	316 12 0 00 000007 		CAMN	AC+1,AC-2	;TEST LOW SUM=377240000000
  2759	032730	004 12 0 00 025401 		ER4	AC+1,25401
  2760	032731	321 13 0 00 032722 		JUMPL	AC+2,O25400	;LOOP ON ERROR SWITCHDBKCA	PDP-10 KI10 ADVANCED INSTRUCTION DIAGNOSTIC #1, VERSION 0,3 	MACRO %52(462) 10:44  9-AUG-76 PAGE 42
DBKCAM	MAC	26-MAY-76 16:51		PART I.C-FAD (LONG, NORM RET, ROUNDING)                                            SEQ 0080

  2761					;TEST SCAD INPUT GATES-ONE'S
  2762					;TEST SC DATA BITS 4,5,7,8
  2763					;AR=200400000077
  2764					;BR=206400000000
  2765					;FAILURE OF A BIT RESULTS IN A LOW ORDER EXPONENT
  2766					;=154,155,163,173
  2767					;CORRECT HIGH ORDER=206404000000
  2768					;CORRECT LOW ORDER=153770000000
  2769
  2770			000010			AC=10
  2771						SAVEAC	(1,1)^
  2772	032732	201 12 0 00 032732 		MOVEI	AC+2,.
  2773	032733	202 12 0 00 030051 		MOVEM	AC+2,TESTPC	;SETUP SUBTEST PC
  2774	032734	201 12 0 00 000012 		MOVEI	AC+2,<AC+2>&17	;INFORM ERROR ROUTINE WHICH
  2775	032735	202 12 0 00 040261 		MOVEM	AC+2,ERRLOP#	;AC IS USED FOR ITERATION^
  2776
  2777									;TEST SC DATA 8
  2778	032736	205 06 0 00 154770 	O25500:	MOVSI	AC-2,154770	;SETUP FOR COMPARISON
  2779	032737	541 10 0 00 000077 		HRRI	AC,77		;SETUP
  2780	032740	505 10 0 00 200400 		HRLI	AC,200400	;AC
  2781	032741	205 07 0 00 206400 		MOVSI	AC-1,206400	;SETUP BR
  2782	032742	141 10 0 00 000007 		FADL	AC,AC-1		;C(AC)+C(E)
  2783	032743	316 11 0 00 000006 		CAMN	AC+1,AC-2	;TEST LOW SUM=154770000000
  2784	032744	004 11 0 00 025501 		ER4	AC+1,25501	;SC DATA 8 FAILED
  2785	032745	321 12 0 00 032736 		JUMPL	AC+2,O25500	;LOOP ON ERROR SWITCH
  2786
  2787									;TEST SCAD 7
  2788	032746	205 06 0 00 155770 	O25600:	MOVSI	AC-2,155770	;SETUP FOR COMPARISON
  2789	032747	541 10 0 00 000077 		HRRI	AC,77		;SETUP
  2790	032750	505 10 0 00 200400 		HRLI	AC,200400	;AC
  2791	032751	205 07 0 00 206400 		MOVSI	AC-1,206400	;SETUP BR
  2792	032752	141 10 0 00 000007 		FADL	AC,AC-1		;C(AC)+C(E)
  2793	032753	316 11 0 00 000006 		CAMN	AC+1,AC-2	;TEST LOW SUM=155770000000
  2794	032754	004 11 0 00 025601 		ER4	AC+1,25601	;SC DATA7 FAILED
  2795	032755	321 12 0 00 032746 		JUMPL	AC+2,O25600	;LOOP ON ERROR SWITCH
  2796
  2797									;TEST SCAD5
  2798	032756	205 06 0 00 163770 	O25700:	MOVSI	AC-2,163770	;SETUP FOR COMPARISON
  2799	032757	541 10 0 00 000077 		HRRI	AC,77		;SETUP
  2800	032760	505 10 0 00 200400 		HRLI	AC,200400	;AC
  2801	032761	205 07 0 00 206400 		MOVSI	AC-1,206400	;SETUP BR
  2802	032762	141 10 0 00 000007 		FADL	AC,AC-1		;C(AC)+C(E)
  2803	032763	316 11 0 00 000006 		CAMN	AC+1,AC-2	;TEST LOW SUM=163770000000
  2804	032764	004 11 0 00 025701 		ER4	AC+1,25701	;SC DATA 5 FAILED
  2805	032765	321 12 0 00 032756 		JUMPL	AC+2,O25700
  2806
  2807									;TEST SCAD4
  2808	032766	205 06 0 00 173770 	O26000:	MOVSI	AC-2,173770	;SETUP FOR COMPARISON
  2809	032767	541 10 0 00 000077 		HRRI	AC,77		;SETUP
  2810	032770	505 10 0 00 200400 		HRLI	AC,200400	;AC
  2811	032771	205 07 0 00 206400 		MOVSI	AC-1,206400	;SETUP BR
  2812	032772	141 10 0 00 000007 		FADL	AC,AC-1		;C(AC)+C(E)
  2813	032773	316 11 0 00 000006 		CAMN	AC+1,AC-2	;TEST LOW SUM=173770000000
  2814	032774	004 11 0 00 026001 		ER4	AC+1,26001	;SC DATA4 FAILED
  2815	032775	321 12 0 00 032766 		JUMPL	AC+2,O26000	;LOOP ON ERROR SWITCHDBKCA	PDP-10 KI10 ADVANCED INSTRUCTION DIAGNOSTIC #1, VERSION 0,3 	MACRO %52(462) 10:44  9-AUG-76 PAGE 43
DBKCAM	MAC	26-MAY-76 16:51		PART I.C-FAD (LONG, NORM RET, ROUNDING)                                            SEQ 0081

  2816					;TEST ABILITY TO SET SCAD DATA0
  2817					;TEST ABILITY TO SET SCAD SC+1 EN
  2818					;AR=200400000077
  2819					;BR=206400000000
  2820					;SCAD DATA0 FAILS-LOW ORDER EXP=207
  2821					;SCAD SC+1 EN FAILS-LOW ORDER EXP=152
  2822					;CORR HIGH ORDER=206404000000
  2823					;CORR LOW ORDER=153770000000
  2824
  2825			000007			AC=7
  2826						SAVEAC	(1,1)^
  2827	032776	201 11 0 00 032776 		MOVEI	AC+2,.
  2828	032777	202 11 0 00 030051 		MOVEM	AC+2,TESTPC	;SETUP SUBTEST PC
  2829	033000	201 11 0 00 000011 		MOVEI	AC+2,<AC+2>&17	;INFORM ERROR ROUTINE WHICH
  2830	033001	202 11 0 00 040261 		MOVEM	AC+2,ERRLOP#	;AC IS USED FOR ITERATION^
  2831
  2832									;TEST DATA0
  2833	033002	205 05 0 00 207770 	O26100:	MOVSI	AC-2,207770	;SETUP FOR COMPARISON
  2834	033003	541 07 0 00 000077 		HRRI	AC,77		;SETUP
  2835	033004	505 07 0 00 200400 		HRLI	AC,200400	;AC
  2836	033005	205 06 0 00 206400 		MOVSI	AC-1,206400	;SETUP BR
  2837	033006	141 07 0 00 000006 		FADL	AC,AC-1		;C(AC)+C(E)
  2838	033007	316 10 0 00 000005 		CAMN	AC+1,AC-2	;TEST SUM=207770000000
  2839	033010	004 10 0 00 026101 		ER4	AC+1,26101	;SCAD DATA0 FAILED TO SET
  2840	033011	321 11 0 00 033002 		JUMPL	AC+2,O26100	;LOOP ON ERROR SWITCH
  2841
  2842									;TEST SC+1 EN
  2843	033012	205 05 0 00 152770 	O26200:	MOVSI	AC-2,152770	;SETUP FOR COMPARISON
  2844	033013	541 07 0 00 000077 		HRRI	AC,77		;SETUP
  2845	033014	505 07 0 00 200400 		HRLI	AC,200400	;AC
  2846	033015	205 06 0 00 206400 		MOVSI	AC-1,206400	;SETUP BR
  2847	033016	141 07 0 00 000006 		FADL	AC,AC-1		;C(AC)+C(E)
  2848	033017	316 10 0 00 000005 		CAMN	AC+1,AC-2	;TEST LOW SUM=152770000000
  2849	033020	004 10 0 00 026201 		ER4	AC+1,26201	;SCAD SC+1 EN FAILED TO SET
  2850	033021	321 11 0 00 033012 		JUMPL	AC+2,O26200	;LOOP ON ERROR SWITCHDBKCA	PDP-10 KI10 ADVANCED INSTRUCTION DIAGNOSTIC #1, VERSION 0,3 	MACRO %52(462) 10:44  9-AUG-76 PAGE 44
DBKCAM	MAC	26-MAY-76 16:51		PART I.C-FAD (LONG, NORM RET, ROUNDING)                                            SEQ 0082

  2851					;AC=200400000001
  2852					;BR=201600000000
  2853					;FAILURE RESULTS IN A CORRECT HIGH
  2854					;ORDER SUM. THE LOW ORDER SUM IS IN
  2855					;ERROR
  2856					;CORRECT HIGH ORDER=202400000000
  2857					;CORRECT LOW ORDER=147200000000
  2858					;ERROR LOW ORDER=147400000000
  2859
  2860			000014			AC=14
  2861						SAVEAC	(1,1)^
  2862	033022	201 16 0 00 033022 		MOVEI	AC+2,.
  2863	033023	202 16 0 00 030051 		MOVEM	AC+2,TESTPC	;SETUP SUBTEST PC
  2864	033024	201 16 0 00 000016 		MOVEI	AC+2,<AC+2>&17	;INFORM ERROR ROUTINE WHICH
  2865	033025	202 16 0 00 040261 		MOVEM	AC+2,ERRLOP#	;AC IS USED FOR ITERATION^
  2866
  2867	033026	205 12 0 00 147400 	O26300:	MOVSI	AC-2,147400	;SETUP FOR COMPARISON
  2868	033027	541 14 0 00 000001 		HRRI	AC,1		;SETUP
  2869	033030	505 14 0 00 200400 		HRLI	AC,200400	;AC
  2870	033031	205 13 0 00 201600 		MOVSI	AC-1,201600	;SETUP BR
  2871	033032	141 14 0 00 000013 		FADL	AC,AC-1		;C(AC)+C(E)
  2872	033033	316 15 0 00 000012 		CAMN	AC+1,AC-2	;TEST LOW SUM=147400000000
  2873	033034	004 15 0 00 026301 		ER4	AC+1,26301
  2874	033035	321 16 0 00 033026 		JUMPL	AC+2,O26300	;LOOP ON ERROR SWITCH
  2875
  2876					;AR=577400000003
  2877					;BR=202400000000
  2878					;FAILURE RESULTS IN A CORRECT HIGH
  2879					;ORDER SUM, THE LOW ORDER SUM IS
  2880					;IN ERROR
  2881					;CORRECT HIGH ORDER=201600000000
  2882					;CORRECT LOW ORDER=146400000000
  2883					;ERROR LOW ORDER=146600000000
  2884
  2885			000014			AC=14
  2886						SAVEAC	(1,1)^
  2887	033036	201 16 0 00 033036 		MOVEI	AC+2,.
  2888	033037	202 16 0 00 030051 		MOVEM	AC+2,TESTPC	;SETUP SUBTEST PC
  2889	033040	201 16 0 00 000016 		MOVEI	AC+2,<AC+2>&17	;INFORM ERROR ROUTINE WHICH
  2890	033041	202 16 0 00 040261 		MOVEM	AC+2,ERRLOP#	;AC IS USED FOR ITERATION^
  2891
  2892	033042	205 12 0 00 146600 	O26400:	MOVSI	AC-2,146600	;SETUP FOR COMPARISON
  2893	033043	541 14 0 00 000003 		HRRI	AC,3		;SETUP
  2894	033044	505 14 0 00 577400 		HRLI	AC,577400	;AC
  2895	033045	205 13 0 00 202400 		MOVSI	AC-1,202400	;SETUP BR
  2896	033046	141 14 0 00 000013 		FADL	AC,AC-1		;C(AC)+C(E)
  2897	033047	316 15 0 00 000012 		CAMN	AC+1,AC-2	;TEST LOW SUM=146600000000
  2898	033050	004 15 0 00 026401 		ER4	AC+1,26401
  2899	033051	321 16 0 00 033042 		JUMPL	AC+2,O26400	;LOOP ON ERROR SWITCHDBKCA	PDP-10 KI10 ADVANCED INSTRUCTION DIAGNOSTIC #1, VERSION 0,3 	MACRO %52(462) 10:44  9-AUG-76 PAGE 45
DBKCAM	MAC	26-MAY-76 16:51		PART I.C-FAD (LONG, NORM RET, ROUNDING)                                            SEQ 0083

  2900					;AR=200400000077
  2901					;BR=206400000000
  2902					;FAILURE OF 1,2 OR 3 RESULTS IN AN
  2903					;UNROUNDED SUM
  2904					;CORRECT SUM=206404000001
  2905					;ERROR SUM=206404000000
  2906
  2907			000014			AC=14
  2908						SAVEAC	(1,1)^
  2909	033052	201 16 0 00 033052 		MOVEI	AC+2,.
  2910	033053	202 16 0 00 030051 		MOVEM	AC+2,TESTPC	;SETUP SUBTEST PC
  2911	033054	201 16 0 00 000016 		MOVEI	AC+2,<AC+2>&17	;INFORM ERROR ROUTINE WHICH
  2912	033055	202 16 0 00 040261 		MOVEM	AC+2,ERRLOP#	;AC IS USED FOR ITERATION^
  2913
  2914	033056	205 12 0 00 206404 	O26500:	MOVSI	AC-2,206404	;SETUP FOR COMPARISON
  2915	033057	541 14 0 00 000077 		HRRI	AC,77		;SETUP
  2916	033060	505 14 0 00 200400 		HRLI	AC,200400	;AC
  2917	033061	205 15 0 00 206400 		MOVSI	AC+1,206400	;SETUP BR
  2918	033062	144 14 0 00 000015 		FADR	AC,AC+1		;C(AC)+C(E)
  2919	033063	316 14 0 00 000012 		CAMN	AC,AC-2		;TEST SUM=206404000000
  2920	033064	003 14 0 00 026501 		ER3	AC,26501
  2921	033065	321 16 0 00 033056 		JUMPL	AC+2,O26500	;LOOP ON ERROR SWITCH
  2922
  2923					;AC=200400000077
  2924					;BR=206400000000
  2925					;FAILURE RESULTS IN A CORRECT MANTISSA,
  2926					;THE EXPONENT IS IN ERROR
  2927					;CORRECT SUM=206404000001
  2928					;ERROR SUM=171404000001
  2929
  2930			000014			AC=14
  2931						SAVEAC	(1,1)^
  2932	033066	201 16 0 00 033066 		MOVEI	AC+2,.
  2933	033067	202 16 0 00 030051 		MOVEM	AC+2,TESTPC	;SETUP SUBTEST PC
  2934	033070	201 16 0 00 000016 		MOVEI	AC+2,<AC+2>&17	;INFORM ERROR ROUTINE WHICH
  2935	033071	202 16 0 00 040261 		MOVEM	AC+2,ERRLOP#	;AC IS USED FOR ITERATION^
  2936
  2937	033072	541 12 0 00 000001 	O26600:	HRRI	AC-2,1		;SETUP AC-2
  2938	033073	505 12 0 00 171404 		HRLI	AC-2,171404	;FOR COMPARISON
  2939	033074	541 14 0 00 000077 		HRRI	AC,77		;SETUP
  2940	033075	505 14 0 00 200400 		HRLI	AC,200400	;AC
  2941	033076	205 13 0 00 206400 		MOVSI	AC-1,206400	;SETUP BR
  2942	033077	144 14 0 00 000013 		FADR	AC,AC-1		;C(AC)+C(E)
  2943	033100	316 14 0 00 000012 		CAMN	AC,AC-2		;TEST SUM=171404000001
  2944	033101	003 14 0 00 026601 		ER3	AC,26601
  2945	033102	321 16 0 00 033072 		JUMPL	AC+2,O26600	;LOOP ON ERROR SWITCHDBKCA	PDP-10 KI10 ADVANCED INSTRUCTION DIAGNOSTIC #1, VERSION 0,3 	MACRO %52(462) 10:44  9-AUG-76 PAGE 46
DBKCAM	MAC	26-MAY-76 16:51		PART I.C-FAD (LONG, NORM RET, ROUNDING)                                            SEQ 0084

  2946					;AR=200400000003
  2947					;BR=202400000000
  2948					;FAILURE RESULTS
  2949					;IN AN UNROUNDED SUM
  2950					;CORR SUM=202500000001
  2951					;ERROR SUM=202500000000
  2952
  2953			000013			AC=13
  2954						SAVEAC	(1,1)^
  2955	033103	201 15 0 00 033103 		MOVEI	AC+2,.
  2956	033104	202 15 0 00 030051 		MOVEM	AC+2,TESTPC	;SETUP SUBTEST PC
  2957	033105	201 15 0 00 000015 		MOVEI	AC+2,<AC+2>&17	;INFORM ERROR ROUTINE WHICH
  2958	033106	202 15 0 00 040261 		MOVEM	AC+2,ERRLOP#	;AC IS USED FOR ITERATION^
  2959
  2960	033107	205 11 0 00 202500 	O26700:	MOVSI	AC-2,202500	;SETUP FOR COMPARISON
  2961	033110	541 13 0 00 000003 		HRRI	AC,3		;SETUP
  2962	033111	505 13 0 00 200400 		HRLI	AC,200400	;AC
  2963	033112	205 14 0 00 202400 		MOVSI	AC+1,202400	;SETUP BR
  2964	033113	144 13 0 00 000014 		FADR	AC,AC+1		;C(AC)+C(E)
  2965	033114	316 13 0 00 000011 		CAMN	AC,AC-2		;TEST ERROR SUM
  2966	033115	003 13 0 00 026701 		ER3	AC,26701
  2967	033116	321 15 0 00 033107 		JUMPL	AC+2,O26700	;LOOP ON ERROR SWITCH
  2968
  2969					;AR=200400777777
  2970					;BR=202400000000
  2971					;FAILURE RESULTS IN CONTINOUS
  2972					;ROUNDING. EACH PASS ADDING ONE TO AD(AR).
  2973					;EVENTUALLY AN NRSHRT COND (AR8(1) AND
  2974					;AD 9-35=0) DEVELOPS. SHIFTING MQRT ONE
  2975					;BRINGS DOWN NR ROUND LEVEL. FADR IS
  2976					;TERMINATED.
  2977					;CORR SUM=202600000000
  2978					;ERROR SUM=203400000000
  2979
  2980			000012			AC=12
  2981						SAVEAC	(1,1)^
  2982	033117	201 14 0 00 033117 		MOVEI	AC+2,.
  2983	033120	202 14 0 00 030051 		MOVEM	AC+2,TESTPC	;SETUP SUBTEST PC
  2984	033121	201 14 0 00 000014 		MOVEI	AC+2,<AC+2>&17	;INFORM ERROR ROUTINE WHICH
  2985	033122	202 14 0 00 040261 		MOVEM	AC+2,ERRLOP#	;AC IS USED FOR ITERATION^
  2986
  2987	033123	205 10 0 00 203400 	O27000:	MOVSI	AC-2,203400	;SETUP FOR COMPARISON
  2988	033124	541 12 0 00 777777 		HRRI	AC,-1		;SETUP
  2989	033125	505 12 0 00 200400 		HRLI	AC,200400	;AC
  2990	033126	205 13 0 00 202400 		MOVSI	AC+1,202400	;SETUP BR
  2991	033127	144 12 0 00 000013 		FADR	AC,AC+1		;C(AC)+C(E)
  2992	033130	316 12 0 00 000010 		CAMN	AC,AC-2		;TEST SUM=203400000000
  2993	033131	003 12 0 00 027001 		ER3	AC,27001
  2994	033132	321 14 0 00 033123 		JUMPL	AC+2,O27000	;LOOP ON ERROR SWITCHDBKCA	PDP-10 KI10 ADVANCED INSTRUCTION DIAGNOSTIC #1, VERSION 0,3 	MACRO %52(462) 10:44  9-AUG-76 PAGE 47
DBKCAM	MAC	26-MAY-76 16:51		PART I.D-FSB AND UFA                                                               SEQ 0085

  2995					SUBTTL	PART I.D-FSB AND UFA
  2996
  2997					;		PART I.D-FSB AND UFA
  2998
  2999					;TEST FCE, FAC, SAC AND DECODE
  3000					;TEST APPARENT ABILITY TO FETCH/STORE
  3001					;C(E),C(AC) AND DECODE
  3002					;AR=205400000000
  3003					;BR=177400000000
  3004					;FCE/SAC FAIL-C(AC)=ORIGINAL
  3005					;FAC FAILS-C(AC)=2'S COMP C(BR)
  3006
  3007			000007			AC=7
  3008						SAVEAC	(1,1)^
  3009	033133	201 11 0 00 033133 		MOVEI	AC+2,.
  3010	033134	202 11 0 00 030051 		MOVEM	AC+2,TESTPC	;SETUP SUBTEST PC
  3011	033135	201 11 0 00 000011 		MOVEI	AC+2,<AC+2>&17	;INFORM ERROR ROUTINE WHICH
  3012	033136	202 11 0 00 040261 		MOVEM	AC+2,ERRLOP#	;AC IS USED FOR ITERATION^
  3013
  3014	033137	205 05 0 00 205400 	O27100:	MOVSI	AC-2,205400	;SETUP FOR COMPARISON
  3015	033140	205 07 0 00 205400 		MOVSI	AC,205400	;SETUP AC
  3016	033141	205 10 0 00 177400 		MOVSI	AC+1,177400	;SETUP BR
  3017	033142	150 07 0 00 000010 		FSB	AC,AC+1		;C(AC)-C(E)
  3018	033143	316 07 0 00 000005 		CAMN	AC,AC-2		;TEST AC=ORIG
  3019	033144	003 07 0 00 027101 		ER3	AC,27101	;FCE/SAC FAILED
  3020	033145	205 05 0 00 600400 		MOVSI	AC-2,600400	;SETUP FOR COMPARISON
  3021	033146	316 07 0 00 000005 		CAMN	AC,AC-2		;TEST AC=2'S COMP BR
  3022	033147	003 07 0 00 027101 		ER3	AC,27101	;FAC FAILED
  3023	033150	321 11 0 00 033137 		JUMPL	AC+2,O27100	;LOOP ON ERROR SWITCH
  3024
  3025					;AR=200400000000(1/2)
  3026					;BR=177400000000(1/4)
  3027					;FAILURE RESULTS IN LOSS OF SUBTRAHEND
  3028					;FAILURE RESULTS IN AN EXCESSIVE SHIFT
  3029					;COND, STORE MINUEND
  3030					;CORRECT DIFF=177400000000(1/4)
  3031					;ERROR DIFF=202400000000(1/2)
  3032
  3033			000014			AC=14
  3034						SAVEAC	(1,1)^
  3035	033151	201 16 0 00 033151 		MOVEI	AC+2,.
  3036	033152	202 16 0 00 030051 		MOVEM	AC+2,TESTPC	;SETUP SUBTEST PC
  3037	033153	201 16 0 00 000016 		MOVEI	AC+2,<AC+2>&17	;INFORM ERROR ROUTINE WHICH
  3038	033154	202 16 0 00 040261 		MOVEM	AC+2,ERRLOP#	;AC IS USED FOR ITERATION^
  3039
  3040	033155	205 12 0 00 200400 	O27200:	MOVSI	AC-2,200400	;SETUP FOR COMPARISON
  3041	033156	205 14 0 00 200400 		MOVSI	AC,200400	;SETUP AC
  3042	033157	205 15 0 00 177400 		MOVSI	AC+1,177400	;SETUP BR
  3043	033160	150 14 0 00 000015 		FSB	AC,AC+1		;C(AC)-C(E)
  3044	033161	316 14 0 00 000012 		CAMN	AC,AC-2		;TEST DIFF=200400000000
  3045	033162	003 14 0 00 027201 		ER3	AC,27201
  3046	033163	321 16 0 00 033155 		JUMPL	AC+2,O27200	;LOOP ON ERROR SWITCHDBKCA	PDP-10 KI10 ADVANCED INSTRUCTION DIAGNOSTIC #1, VERSION 0,3 	MACRO %52(462) 10:44  9-AUG-76 PAGE 48
DBKCAM	MAC	26-MAY-76 16:51		PART I.D-FSB AND UFA                                                               SEQ 0086

  3047					;AR=200400000000(1/2)
  3048					;BR=177400000000(1/4)
  3049					;FAILURE RESULTS IN A ONE'S COMPLEMENT
  3050					;SUBTRAHEND
  3051					;CORRECTd DIFF=177400000000
  3052					;ERROR DIFF=176477777777
  3053
  3054			000014			AC=14
  3055						SAVEAC	(1,1)^
  3056	033164	201 16 0 00 033164 		MOVEI	AC+2,.
  3057	033165	202 16 0 00 030051 		MOVEM	AC+2,TESTPC	;SETUP SUBTEST PC
  3058	033166	201 16 0 00 000016 		MOVEI	AC+2,<AC+2>&17	;INFORM ERROR ROUTINE WHICH
  3059	033167	202 16 0 00 040261 		MOVEM	AC+2,ERRLOP#	;AC IS USED FOR ITERATION^
  3060
  3061	033170	541 12 0 00 777774 	O27300:	HRRI	AC-2,-4		;SETUP AC-2
  3062	033171	505 12 0 00 176477 		HRLI	AC-2,176477	;FOR COMPARISON
  3063	033172	205 14 0 00 200400 		MOVSI	AC,200400	;SETUP AC
  3064	033173	205 15 0 00 177400 		MOVSI	AC+1,177400	;SETUP BR
  3065	033174	150 14 0 00 000015 		FSB	AC,AC+1		;C(AC)-C(E)
  3066	033175	316 14 0 00 000012 		CAMN	AC,AC-2		;TEST DIFF=176477777774
  3067	033176	003 14 0 00 027301 		ER3	AC,27301
  3068	033177	321 16 0 00 033170 		JUMPL	AC+2,O27300	;LOOP ON ERROR SWITCH
  3069
  3070					;AR=200400000000(1/2)
  3071					;BR=177400000000(1/4)
  3072					;FAILURE RESULTS IN LOSS OF 2'S COMP
  3073					;SUBTRAHEND. THE NUMBER IN AR IS ADDED
  3074					;TO ITSELF
  3075					;CORRECT DIFF=177400000000 1/4
  3076					;FAILURE DIFF=201400000000 (1)
  3077
  3078			000013			AC=13
  3079						SAVEAC	(1,1)^
  3080	033200	201 15 0 00 033200 		MOVEI	AC+2,.
  3081	033201	202 15 0 00 030051 		MOVEM	AC+2,TESTPC	;SETUP SUBTEST PC
  3082	033202	201 15 0 00 000015 		MOVEI	AC+2,<AC+2>&17	;INFORM ERROR ROUTINE WHICH
  3083	033203	202 15 0 00 040261 		MOVEM	AC+2,ERRLOP#	;AC IS USED FOR ITERATION^
  3084
  3085	033204	205 11 0 00 201400 	O27400:	MOVSI	AC-2,201400	;SETUP FOR COMPARISON
  3086	033205	205 13 0 00 200400 		MOVSI	AC,200400	;SETUP AC
  3087	033206	205 14 0 00 177400 		MOVSI	AC+1,177400	;SETUP BR
  3088	033207	150 13 0 00 000014 		FSB	AC,AC+1		;C(AC)-C(E)
  3089	033210	316 13 0 00 000011 		CAMN	AC,AC-2		;TEST DIFF=201400000000
  3090	033211	003 13 0 00 027401 		ER3	AC,27401
  3091	033212	321 15 0 00 033204 		JUMPL	AC+2,O27400	;LOOP ON ERROR SWITCHDBKCA	PDP-10 KI10 ADVANCED INSTRUCTION DIAGNOSTIC #1, VERSION 0,3 	MACRO %52(462) 10:44  9-AUG-76 PAGE 49
DBKCAM	MAC	26-MAY-76 16:51		PART I.D-FSB AND UFA                                                               SEQ 0087

  3092					;AR=200400000000
  3093					;BR=177400000000
  3094					;FAILURE RESULTS IN LOSS OF MINUEND
  3095					;THE NUMBER IN BR IS SUBTRACTED
  3096					;FROM ITSELF. NR ALL ZERO IS ASSERTED
  3097
  3098			000012			AC=12
  3099						SAVEAC	(1,1)^
  3100	033213	201 14 0 00 033213 		MOVEI	AC+2,.
  3101	033214	202 14 0 00 030051 		MOVEM	AC+2,TESTPC	;SETUP SUBTEST PC
  3102	033215	201 14 0 00 000014 		MOVEI	AC+2,<AC+2>&17	;INFORM ERROR ROUTINE WHICH
  3103	033216	202 14 0 00 040261 		MOVEM	AC+2,ERRLOP#	;AC IS USED FOR ITERATION^
  3104
  3105	033217	205 12 0 00 200400 	O27500:	MOVSI	AC,200400	;SETUP AC
  3106	033220	205 13 0 00 177400 		MOVSI	AC+1,177400	;SETUP BR
  3107	033221	150 12 0 00 000013 		FSB	AC,AC+1		;C(AC)-C(E)
  3108	033222	336 00 0 00 000012 		SKIPN	AC		;TEST DIFF=0
  3109	033223	003 12 0 00 027501 		ER3	AC,27501
  3110	033224	321 14 0 00 033217 		JUMPL	AC+2,O27500	;LOOP ON ERROR SWITCH
  3111
  3112					;AR=200400000000(1/2)
  3113					;BR=200400000000(1/2)
  3114					;FAILURE RESULTS IN A MINUEND
  3115					;EQUAL TO 777777777777
  3116					;CORRECT DIFF=0
  3117					;ERROR DIFF=631400000000
  3118
  3119			000011			AC=11
  3120						SAVEAC	(1,1)^
  3121	033225	201 13 0 00 033225 		MOVEI	AC+2,.
  3122	033226	202 13 0 00 030051 		MOVEM	AC+2,TESTPC	;SETUP SUBTEST PC
  3123	033227	201 13 0 00 000013 		MOVEI	AC+2,<AC+2>&17	;INFORM ERROR ROUTINE WHICH
  3124	033230	202 13 0 00 040261 		MOVEM	AC+2,ERRLOP#	;AC IS USED FOR ITERATION^
  3125
  3126	033231	205 07 0 00 631400 	O27600:	MOVSI	AC-2,631400	;SETUP FOR COMPARISON
  3127	033232	205 11 0 00 200400 		MOVSI	AC,200400	;SETUP AC
  3128	033233	205 12 0 00 200400 		MOVSI	AC+1,200400	;SETUP BR
  3129	033234	150 11 0 00 000012 		FSB	AC,AC+1		;C(AC)-C(E)
  3130	033235	316 11 0 00 000007 		CAMN	AC,AC-2		;TEST DIFF=631400000000
  3131	033236	003 11 0 00 027601 		ER3	AC,27601
  3132	033237	321 13 0 00 033231 		JUMPL	AC+2,O27600	;LOOP ON ERROR SWITCHDBKCA	PDP-10 KI10 ADVANCED INSTRUCTION DIAGNOSTIC #1, VERSION 0,3 	MACRO %52(462) 10:44  9-AUG-76 PAGE 50
DBKCAM	MAC	26-MAY-76 16:51		PART I.D-FSB AND UFA                                                               SEQ 0088

  3133					;AR=200400000000(1/2)
  3134					;BR=177400000000(1/4)
  3135					;FAILURE RESULTS IN ADDING TWO
  3136					;TO THE DIFFERENCE
  3137					;CORRECT DIFF=177400000000
  3138					;ERROR DIFF=177400000002
  3139
  3140			000010			AC=10
  3141						SAVEAC	(1,1)^
  3142	033240	201 12 0 00 033240 		MOVEI	AC+2,.
  3143	033241	202 12 0 00 030051 		MOVEM	AC+2,TESTPC	;SETUP SUBTEST PC
  3144	033242	201 12 0 00 000012 		MOVEI	AC+2,<AC+2>&17	;INFORM ERROR ROUTINE WHICH
  3145	033243	202 12 0 00 040261 		MOVEM	AC+2,ERRLOP#	;AC IS USED FOR ITERATION^
  3146
  3147	033244	541 06 0 00 000002 	O27700:	HRRI	AC-2,2		;SETUP AC-2
  3148	033245	505 06 0 00 177400 		HRLI	AC-2,177400	;FOR COMPARISON
  3149	033246	205 10 0 00 200400 		MOVSI	AC,200400	;SETUP AC
  3150	033247	205 11 0 00 177400 		MOVSI	AC+1,177400	;SETUP BR
  3151	033250	150 10 0 00 000011 		FSB	AC,AC+1		;C(AC)-C(E)
  3152	033251	316 10 0 00 000006 		CAMN	AC,AC-2		;TEST DIFF=177400000002
  3153	033252	003 10 0 00 027701 		ER3	AC,27701
  3154	033253	321 12 0 00 033244 		JUMPL	AC+2,O27700	;LOOP ON ERROR SWITCH
  3155
  3156					;TEST FCE, FAC, SAC AND DECODE
  3157					;TEST APPARENT ABILITY TO FETCH C(E), C(AC)
  3158					;STORE AND DECODE
  3159					;AR=200770000000
  3160					;BR=577700000000
  3161					;FCE FAILS-AC+1=C(AC)
  3162					;FAC FAILS-AC+1=C(BR)
  3163					;SAC FAILS-AC+1=ORIGINAL
  3164
  3165			000014			AC=14
  3166						SAVEAC  (1,1)^
  3167	033254	201 16 0 00 033254 		MOVEI	AC+2,.
  3168	033255	202 16 0 00 030051 		MOVEM	AC+2,TESTPC	;SETUP SUBTEST PC
  3169	033256	201 16 0 00 000016 		MOVEI	AC+2,<AC+2>&17	;INFORM ERROR ROUTINE WHICH
  3170	033257	202 16 0 00 040261 		MOVEM	AC+2,ERRLOP#	;AC IS USED FOR ITERATION^
  3171
  3172	033260	205 14 0 00 200770 	O30000:	MOVSI	AC,200770	;SETUP AC
  3173	033261	205 13 0 00 577700 		MOVSI	AC-1,577700	;SETUP BR
  3174	033262	130 14 0 00 000013 		UFA	AC,AC-1		;C(AC)+C(E)
  3175	033263	316 15 0 00 000014 		CAMN	AC+1,AC		;TEST AC+1=AC
  3176	033264	004 15 0 00 030001 		ER4	AC+1,30001	;FCE FAILED
  3177	033265	316 15 0 00 000013 		CAMN	AC+1,AC-1	;TEST AC+1=BR
  3178	033266	004 14 0 00 030001 		ER4	AC,30001	;FAC FAILED
  3179	033267	321 16 0 00 033260 		JUMPL	AC+2,O30000	;LOOP ON ERROR SWITCH
  3180
  3181	033270	205 14 0 00 200770 	O30100:	MOVSI	AC,200770	;SETUP AC
  3182	033271	205 13 0 00 577700 		MOVSI	AC-1,577700	;SETUP BR
  3183	033272	400 15 0 00 000000 		SETZ	AC+1,		;CLEAR AC+1
  3184	033273	130 14 0 00 000013 		UFA	AC,AC-1		;C(AC)+C(E)
  3185	033274	336 00 0 00 000015 		SKIPN	AC+1		;TEST DIFFERS FROM ZERO
  3186	033275	004 15 0 00 030101 		ER4	AC+1,30101	;SAC FAILED
  3187	033276	321 16 0 00 033270 		JUMPL	AC+2,O30100	;LOOP ON ERROR SWITCHDBKCA	PDP-10 KI10 ADVANCED INSTRUCTION DIAGNOSTIC #1, VERSION 0,3 	MACRO %52(462) 10:44  9-AUG-76 PAGE 51
DBKCAM	MAC	26-MAY-76 16:51		PART I.D-FSB AND UFA                                                               SEQ 0089

  3188					;AR=200600000000(+3/4)
  3189					;BR=577400000000(-1/2)
  3190					;FAILURE RESULTS IN A CORRECT SUM.
  3191					;THE SUM IS STORED IN AC0 VICE AC+1
  3192					;CORRECT SUM=200200000000
  3193
  3194			000014			AC=14
  3195						SAVEAC	(1,1)^
  3196	033277	201 16 0 00 033277 		MOVEI	AC+2,.
  3197	033300	202 16 0 00 030051 		MOVEM	AC+2,TESTPC	;SETUP SUBTEST PC
  3198	033301	201 16 0 00 000016 		MOVEI	AC+2,<AC+2>&17	;INFORM ERROR ROUTINE WHICH
  3199	033302	202 16 0 00 040261 		MOVEM	AC+2,ERRLOP#	;AC IS USED FOR ITERATION^
  3200
  3201	033303	205 12 0 00 200200 	O30200:	MOVSI	AC-2,200200	;SETUP FOR COMPARISON
  3202	033304	205 14 0 00 200600 		MOVSI	AC,200600	;SETUP AC
  3203	033305	205 13 0 00 577400 		MOVSI	AC-1,577400	;SETUP BR
  3204	033306	130 14 0 00 000013 		UFA	AC,AC-1		;C(AC)+C(E)
  3205	033307	316 14 0 00 000000 		CAMN	AC,		;TEST SUM IN AC0
  3206	033310	003 14 0 00 030201 		ER3	AC,30201
  3207	033311	321 16 0 00 033303 		JUMPL	AC+2,O30200	;LOOP ON ERROR SWITCH
  3208
  3209					;AR=200600000000(+3/4)
  3210					;BR=577400000000(-1/2)
  3211					;FAILURE RESULTS IN A CORRECT SUM.
  3212					;THE SUM IS STORED IN AC7 VICE AC4
  3213					;CORRECT SUM=200200000000
  3214
  3215			000003			AC=3
  3216						SAVEAC	(1,1)^
  3217	033312	201 05 0 00 033312 		MOVEI	AC+2,.
  3218	033313	202 05 0 00 030051 		MOVEM	AC+2,TESTPC	;SETUP SUBTEST PC
  3219	033314	201 05 0 00 000005 		MOVEI	AC+2,<AC+2>&17	;INFORM ERROR ROUTINE WHICH
  3220	033315	202 05 0 00 040261 		MOVEM	AC+2,ERRLOP#	;AC IS USED FOR ITERATION^
  3221
  3222	033316	205 01 0 00 200200 	O30300:	MOVSI	AC-2,200200	;SETUP FOR COMPARISON
  3223	033317	205 03 0 00 200600 		MOVSI	AC,200600	;SETUP AC
  3224	033320	205 02 0 00 577400 		MOVSI	AC-1,577400	;SETUP BR
  3225	033321	130 03 0 00 000002 		UFA	AC,AC-1		;C(AC)+C(E)
  3226	033322	316 07 0 00 000001 		CAMN	AC+4,AC-2	;TEST FOR SUM IN AC+4
  3227	033323	004 04 0 00 030301 		ER4	AC+1,30301
  3228	033324	321 05 0 00 033316 		JUMPL	AC+2,O30300	;LOOP ON ERROR SWITCHDBKCA	PDP-10 KI10 ADVANCED INSTRUCTION DIAGNOSTIC #1, VERSION 0,3 	MACRO %52(462) 10:44  9-AUG-76 PAGE 52
DBKCAM	MAC	26-MAY-76 16:51		PART I.D-FSB AND UFA                                                               SEQ 0090

  3229					;AC=200600000000(+3/4)
  3230					;BR=577400000000(-1/2)
  3231					;FAILURE RESULTS IN A NORMALIZED SUM (AC+1)
  3232					;CORRECT SUM=200200000000  (UNNORMALIZED)
  3233					;ERROR SUM=177400000000 (NORMALIZED)
  3234
  3235			000014			AC=14
  3236						SAVEAC	1,1^
  3237	033325	201 16 0 00 033325 		MOVEI	AC+2,.
  3238	033326	202 16 0 00 030051 		MOVEM	AC+2,TESTPC	;SETUP SUBTEST PC
  3239	033327	201 16 0 00 000016 		MOVEI	AC+2,<AC+2>&17	;INFORM ERROR ROUTINE WHICH
  3240	033330	202 16 0 00 040261 		MOVEM	AC+2,ERRLOP#	;AC IS USED FOR ITERATION^
  3241
  3242	033331	205 12 0 00 177400 	O30400:	MOVSI	AC-2,177400	;SETUP FOR COMPARISON
  3243	033332	205 14 0 00 200600 		MOVSI	AC,200600	;SETUP AC
  3244	033333	205 13 0 00 577400 		MOVSI	AC-1,577400	;SETUP BR
  3245	033334	130 14 0 00 000013 		UFA	AC,AC-1		;C(AC)+C(E)
  3246	033335	316 15 0 00 000012 		CAMN	AC+1,AC-2	;TEST SUM=177400000000
  3247	033336	004 15 0 00 030401 		ER4	AC+1,30401
  3248	033337	321 16 0 00 033331 		JUMPL	AC+2,O30400	;LOOP ON ERROR SWITCHDBKCA	PDP-10 KI10 ADVANCED INSTRUCTION DIAGNOSTIC #1, VERSION 0,3 	MACRO %52(462) 10:44  9-AUG-76 PAGE 53
DBKCAM	MAC	26-MAY-76 16:51		PART I.E-GEN TEST-FSC,FAD,FSB AND UFA                                              SEQ 0091

  3249					SUBTTL  PART I.E-GEN TEST-FSC,FAD,FSB AND UFA
  3250
  3251					;PART I.E-GENERAL TEST-FSC,FAD,FADR,FSB,FSBR,UFA
  3252
  3253					;TEST FSC
  3254					;INCREASING SCALE FACTOR
  3255					;AR=000400000000
  3256					;SCALE=1,2,4,10,20,40,100,200
  3257					;RESULTANT EXP=1,2,4,10,20,40,200,
  3258
  3259			000014			AC=14
  3260						SAVEAC	(1,1)^
  3261	033340	201 16 0 00 033340 		MOVEI	AC+2,.
  3262	033341	202 16 0 00 030051 		MOVEM	AC+2,TESTPC	;SETUP SUBTEST PC
  3263	033342	201 16 0 00 000016 		MOVEI	AC+2,<AC+2>&17	;INFORM ERROR ROUTINE WHICH
  3264	033343	202 16 0 00 040261 		MOVEM	AC+2,ERRLOP#	;AC IS USED FOR ITERATION^
  3265
  3266			030500		SN=30500
  3267			000400			XX=400
  3268			000000			ZZ=0
  3269
  3270							;TEST FSC
  3271					O30500:	REPEAT	^D8,<
  3272					SN=SN+1
  3273						XX=XX+XX
  3274						ZZ=ZZ+ZZ
  3275						IFE	ZZ,<ZZ=1>
  3276						MOVSI	AC-2,400+XX	;SETUP FOR COMPARISON
  3277						MOVSI	AC,400		;SETUP AC
  3278						FSC	AC,ZZ		;RESCALE
  3279						CAME	AC,AC-2		;TEST RESULT
  3280						ER3	AC,SN		;FSC FAILED
  3281						JUMPL	AC+2,.-5	;LOOP ON ERROR SWITCH
  3282					>
  3283
  3284			030501		SN=SN+1
  3285			001000			XX=XX+XX
  3286			000000			ZZ=ZZ+ZZ
  3287			000001			IFE	ZZ,<ZZ=1>
  3288	033344	205 12 0 00 001400 		MOVSI	AC-2,400+XX	;SETUP FOR COMPARISON
  3289	033345	205 14 0 00 000400 		MOVSI	AC,400		;SETUP AC
  3290	033346	132 14 0 00 000001 		FSC	AC,ZZ		;RESCALE
  3291	033347	312 14 0 00 000012 		CAME	AC,AC-2		;TEST RESULT
  3292	033350	003 14 0 00 030501 		ER3	AC,SN		;FSC FAILED
  3293	033351	321 16 0 00 033344 		JUMPL	AC+2,.-5	;LOOP ON ERROR SWITCH
  3294
  3295
  3296			030502		SN=SN+1
  3297			002000			XX=XX+XX
  3298			000002			ZZ=ZZ+ZZ
  3299						IFE	ZZ,<ZZ=1>
  3300	033352	205 12 0 00 002400 		MOVSI	AC-2,400+XX	;SETUP FOR COMPARISON
  3301	033353	205 14 0 00 000400 		MOVSI	AC,400		;SETUP AC
  3302	033354	132 14 0 00 000002 		FSC	AC,ZZ		;RESCALE
  3303	033355	312 14 0 00 000012 		CAME	AC,AC-2		;TEST RESULTDBKCA	PDP-10 KI10 ADVANCED INSTRUCTION DIAGNOSTIC #1, VERSION 0,3 	MACRO %52(462) 10:44  9-AUG-76 PAGE 53-1
DBKCAM	MAC	26-MAY-76 16:51		PART I.E-GEN TEST-FSC,FAD,FSB AND UFA                                              SEQ 0092

  3304	033356	003 14 0 00 030502 		ER3	AC,SN		;FSC FAILED
  3305	033357	321 16 0 00 033352 		JUMPL	AC+2,.-5	;LOOP ON ERROR SWITCH
  3306
  3307
  3308			030503		SN=SN+1
  3309			004000			XX=XX+XX
  3310			000004			ZZ=ZZ+ZZ
  3311						IFE	ZZ,<ZZ=1>
  3312	033360	205 12 0 00 004400 		MOVSI	AC-2,400+XX	;SETUP FOR COMPARISON
  3313	033361	205 14 0 00 000400 		MOVSI	AC,400		;SETUP AC
  3314	033362	132 14 0 00 000004 		FSC	AC,ZZ		;RESCALE
  3315	033363	312 14 0 00 000012 		CAME	AC,AC-2		;TEST RESULT
  3316	033364	003 14 0 00 030503 		ER3	AC,SN		;FSC FAILED
  3317	033365	321 16 0 00 033360 		JUMPL	AC+2,.-5	;LOOP ON ERROR SWITCH
  3318
  3319
  3320			030504		SN=SN+1
  3321			010000			XX=XX+XX
  3322			000010			ZZ=ZZ+ZZ
  3323						IFE	ZZ,<ZZ=1>
  3324	033366	205 12 0 00 010400 		MOVSI	AC-2,400+XX	;SETUP FOR COMPARISON
  3325	033367	205 14 0 00 000400 		MOVSI	AC,400		;SETUP AC
  3326	033370	132 14 0 00 000010 		FSC	AC,ZZ		;RESCALE
  3327	033371	312 14 0 00 000012 		CAME	AC,AC-2		;TEST RESULT
  3328	033372	003 14 0 00 030504 		ER3	AC,SN		;FSC FAILED
  3329	033373	321 16 0 00 033366 		JUMPL	AC+2,.-5	;LOOP ON ERROR SWITCH
  3330
  3331
  3332			030505		SN=SN+1
  3333			020000			XX=XX+XX
  3334			000020			ZZ=ZZ+ZZ
  3335						IFE	ZZ,<ZZ=1>
  3336	033374	205 12 0 00 020400 		MOVSI	AC-2,400+XX	;SETUP FOR COMPARISON
  3337	033375	205 14 0 00 000400 		MOVSI	AC,400		;SETUP AC
  3338	033376	132 14 0 00 000020 		FSC	AC,ZZ		;RESCALE
  3339	033377	312 14 0 00 000012 		CAME	AC,AC-2		;TEST RESULT
  3340	033400	003 14 0 00 030505 		ER3	AC,SN		;FSC FAILED
  3341	033401	321 16 0 00 033374 		JUMPL	AC+2,.-5	;LOOP ON ERROR SWITCH
  3342
  3343
  3344			030506		SN=SN+1
  3345			040000			XX=XX+XX
  3346			000040			ZZ=ZZ+ZZ
  3347						IFE	ZZ,<ZZ=1>
  3348	033402	205 12 0 00 040400 		MOVSI	AC-2,400+XX	;SETUP FOR COMPARISON
  3349	033403	205 14 0 00 000400 		MOVSI	AC,400		;SETUP AC
  3350	033404	132 14 0 00 000040 		FSC	AC,ZZ		;RESCALE
  3351	033405	312 14 0 00 000012 		CAME	AC,AC-2		;TEST RESULT
  3352	033406	003 14 0 00 030506 		ER3	AC,SN		;FSC FAILED
  3353	033407	321 16 0 00 033402 		JUMPL	AC+2,.-5	;LOOP ON ERROR SWITCH
  3354
  3355
  3356			030507		SN=SN+1
  3357			100000			XX=XX+XX
  3358			000100			ZZ=ZZ+ZZDBKCA	PDP-10 KI10 ADVANCED INSTRUCTION DIAGNOSTIC #1, VERSION 0,3 	MACRO %52(462) 10:44  9-AUG-76 PAGE 53-2
DBKCAM	MAC	26-MAY-76 16:51		PART I.E-GEN TEST-FSC,FAD,FSB AND UFA                                              SEQ 0093

  3359						IFE	ZZ,<ZZ=1>
  3360	033410	205 12 0 00 100400 		MOVSI	AC-2,400+XX	;SETUP FOR COMPARISON
  3361	033411	205 14 0 00 000400 		MOVSI	AC,400		;SETUP AC
  3362	033412	132 14 0 00 000100 		FSC	AC,ZZ		;RESCALE
  3363	033413	312 14 0 00 000012 		CAME	AC,AC-2		;TEST RESULT
  3364	033414	003 14 0 00 030507 		ER3	AC,SN		;FSC FAILED
  3365	033415	321 16 0 00 033410 		JUMPL	AC+2,.-5	;LOOP ON ERROR SWITCH
  3366
  3367
  3368			030510		SN=SN+1
  3369			200000			XX=XX+XX
  3370			000200			ZZ=ZZ+ZZ
  3371						IFE	ZZ,<ZZ=1>
  3372	033416	205 12 0 00 200400 		MOVSI	AC-2,400+XX	;SETUP FOR COMPARISON
  3373	033417	205 14 0 00 000400 		MOVSI	AC,400		;SETUP AC
  3374	033420	132 14 0 00 000200 		FSC	AC,ZZ		;RESCALE
  3375	033421	312 14 0 00 000012 		CAME	AC,AC-2		;TEST RESULT
  3376	033422	003 14 0 00 030510 		ER3	AC,SN		;FSC FAILED
  3377	033423	321 16 0 00 033416 		JUMPL	AC+2,.-5	;LOOP ON ERROR SWITCH
  3378
  3379					PAGEDBKCA	PDP-10 KI10 ADVANCED INSTRUCTION DIAGNOSTIC #1, VERSION 0,3 	MACRO %52(462) 10:44  9-AUG-76 PAGE 53-3
DBKCAM	MAC	26-MAY-76 16:51		PART I.E-GEN TEST-FSC,FAD,FSB AND UFA                                              SEQ 0094

  3380					;TEST FSC
  3381					;INCREASING EXPONENT
  3382					;AR EXP=201,202,204,210,220,240,300
  3383					;SCALE=1
  3384					;RESULTANT EXP=202,203,205,211,221,241,301
  3385
  3386			000014			AC=14
  3387						SAVEAC	(1,1)^
  3388	033424	201 16 0 00 033424 		MOVEI	AC+2,.
  3389	033425	202 16 0 00 030051 		MOVEM	AC+2,TESTPC	;SETUP SUBTEST PC
  3390	033426	201 16 0 00 000016 		MOVEI	AC+2,<AC+2>&17	;INFORM ERROR ROUTINE WHICH
  3391	033427	202 16 0 00 040261 		MOVEM	AC+2,ERRLOP#	;AC IS USED FOR ITERATION^
  3392
  3393			030600		SN=30600
  3394			000400			ZZ=400
  3395
  3396							;TEST FSC
  3397					O30600:	REPEAT	^D7,<
  3398					SN=SN+1
  3399						ZZ=ZZ+ZZ
  3400						XX=ZZ+1000
  3401						MOVSI	AC-2,200400+XX	;SETUP FOR COMPARISON
  3402						MOVSI	AC,200400+ZZ	;SETUP AC
  3403						FSC	AC,1		;RESCALE
  3404						CAME	AC,AC-2		;TEST RESULT
  3405						ER3	AC,SN		;FSC FAILED
  3406						JUMPL	AC+2,.-5	;LOOP ON ERROR SWITCH
  3407					>
  3408
  3409			030601		SN=SN+1
  3410			001000			ZZ=ZZ+ZZ
  3411			002000			XX=ZZ+1000
  3412	033430	205 12 0 00 202400 		MOVSI	AC-2,200400+XX	;SETUP FOR COMPARISON
  3413	033431	205 14 0 00 201400 		MOVSI	AC,200400+ZZ	;SETUP AC
  3414	033432	132 14 0 00 000001 		FSC	AC,1		;RESCALE
  3415	033433	312 14 0 00 000012 		CAME	AC,AC-2		;TEST RESULT
  3416	033434	003 14 0 00 030601 		ER3	AC,SN		;FSC FAILED
  3417	033435	321 16 0 00 033430 		JUMPL	AC+2,.-5	;LOOP ON ERROR SWITCH
  3418
  3419
  3420			030602		SN=SN+1
  3421			002000			ZZ=ZZ+ZZ
  3422			003000			XX=ZZ+1000
  3423	033436	205 12 0 00 203400 		MOVSI	AC-2,200400+XX	;SETUP FOR COMPARISON
  3424	033437	205 14 0 00 202400 		MOVSI	AC,200400+ZZ	;SETUP AC
  3425	033440	132 14 0 00 000001 		FSC	AC,1		;RESCALE
  3426	033441	312 14 0 00 000012 		CAME	AC,AC-2		;TEST RESULT
  3427	033442	003 14 0 00 030602 		ER3	AC,SN		;FSC FAILED
  3428	033443	321 16 0 00 033436 		JUMPL	AC+2,.-5	;LOOP ON ERROR SWITCH
  3429
  3430
  3431			030603		SN=SN+1
  3432			004000			ZZ=ZZ+ZZ
  3433			005000			XX=ZZ+1000
  3434	033444	205 12 0 00 205400 		MOVSI	AC-2,200400+XX	;SETUP FOR COMPARISONDBKCA	PDP-10 KI10 ADVANCED INSTRUCTION DIAGNOSTIC #1, VERSION 0,3 	MACRO %52(462) 10:44  9-AUG-76 PAGE 53-4
DBKCAM	MAC	26-MAY-76 16:51		PART I.E-GEN TEST-FSC,FAD,FSB AND UFA                                              SEQ 0095

  3435	033445	205 14 0 00 204400 		MOVSI	AC,200400+ZZ	;SETUP AC
  3436	033446	132 14 0 00 000001 		FSC	AC,1		;RESCALE
  3437	033447	312 14 0 00 000012 		CAME	AC,AC-2		;TEST RESULT
  3438	033450	003 14 0 00 030603 		ER3	AC,SN		;FSC FAILED
  3439	033451	321 16 0 00 033444 		JUMPL	AC+2,.-5	;LOOP ON ERROR SWITCH
  3440
  3441
  3442			030604		SN=SN+1
  3443			010000			ZZ=ZZ+ZZ
  3444			011000			XX=ZZ+1000
  3445	033452	205 12 0 00 211400 		MOVSI	AC-2,200400+XX	;SETUP FOR COMPARISON
  3446	033453	205 14 0 00 210400 		MOVSI	AC,200400+ZZ	;SETUP AC
  3447	033454	132 14 0 00 000001 		FSC	AC,1		;RESCALE
  3448	033455	312 14 0 00 000012 		CAME	AC,AC-2		;TEST RESULT
  3449	033456	003 14 0 00 030604 		ER3	AC,SN		;FSC FAILED
  3450	033457	321 16 0 00 033452 		JUMPL	AC+2,.-5	;LOOP ON ERROR SWITCH
  3451
  3452
  3453			030605		SN=SN+1
  3454			020000			ZZ=ZZ+ZZ
  3455			021000			XX=ZZ+1000
  3456	033460	205 12 0 00 221400 		MOVSI	AC-2,200400+XX	;SETUP FOR COMPARISON
  3457	033461	205 14 0 00 220400 		MOVSI	AC,200400+ZZ	;SETUP AC
  3458	033462	132 14 0 00 000001 		FSC	AC,1		;RESCALE
  3459	033463	312 14 0 00 000012 		CAME	AC,AC-2		;TEST RESULT
  3460	033464	003 14 0 00 030605 		ER3	AC,SN		;FSC FAILED
  3461	033465	321 16 0 00 033460 		JUMPL	AC+2,.-5	;LOOP ON ERROR SWITCH
  3462
  3463
  3464			030606		SN=SN+1
  3465			040000			ZZ=ZZ+ZZ
  3466			041000			XX=ZZ+1000
  3467	033466	205 12 0 00 241400 		MOVSI	AC-2,200400+XX	;SETUP FOR COMPARISON
  3468	033467	205 14 0 00 240400 		MOVSI	AC,200400+ZZ	;SETUP AC
  3469	033470	132 14 0 00 000001 		FSC	AC,1		;RESCALE
  3470	033471	312 14 0 00 000012 		CAME	AC,AC-2		;TEST RESULT
  3471	033472	003 14 0 00 030606 		ER3	AC,SN		;FSC FAILED
  3472	033473	321 16 0 00 033466 		JUMPL	AC+2,.-5	;LOOP ON ERROR SWITCH
  3473
  3474
  3475			030607		SN=SN+1
  3476			100000			ZZ=ZZ+ZZ
  3477			101000			XX=ZZ+1000
  3478	033474	205 12 0 00 301400 		MOVSI	AC-2,200400+XX	;SETUP FOR COMPARISON
  3479	033475	205 14 0 00 300400 		MOVSI	AC,200400+ZZ	;SETUP AC
  3480	033476	132 14 0 00 000001 		FSC	AC,1		;RESCALE
  3481	033477	312 14 0 00 000012 		CAME	AC,AC-2		;TEST RESULT
  3482	033500	003 14 0 00 030607 		ER3	AC,SN		;FSC FAILED
  3483	033501	321 16 0 00 033474 		JUMPL	AC+2,.-5	;LOOP ON ERROR SWITCH
  3484DBKCA	PDP-10 KI10 ADVANCED INSTRUCTION DIAGNOSTIC #1, VERSION 0,3 	MACRO %52(462) 10:44  9-AUG-76 PAGE 54
DBKCAM	MAC	26-MAY-76 16:51		PART I.E-GEN TEST-FSC,FAD,FSB AND UFA                                              SEQ 0096

  3485					;TEST FSC
  3486					;NEGATIVE EXP, POSITIVE SCALE
  3487					;AR=777400000000
  3488					;SCALE=1,2,4,10,20,40,100,
  3489					;RESULTANT EXP=776,775,773,767,757,737,677,577
  3490
  3491			000013			AC=13
  3492						SAVEAC	(1,1)^
  3493	033502	201 15 0 00 033502 		MOVEI	AC+2,.
  3494	033503	202 15 0 00 030051 		MOVEM	AC+2,TESTPC	;SETUP SUBTEST PC
  3495	033504	201 15 0 00 000015 		MOVEI	AC+2,<AC+2>&17	;INFORM ERROR ROUTINE WHICH
  3496	033505	202 15 0 00 040261 		MOVEM	AC+2,ERRLOP#	;AC IS USED FOR ITERATION^
  3497
  3498			030700		SN=30700
  3499			000400			WW=400
  3500			000000			XX=0
  3501			776400			ZZ=776400
  3502
  3503							;TEST FSC
  3504					O30700:	REPEAT  ^D8,<
  3505					SN=SN+1
  3506						XX=XX+XX
  3507						ZZ=ZZ-WW
  3508						WW=WW+WW
  3509						IFE	XX,<XX=1>
  3510						MOVSI	AC-2,400+ZZ	;SETUP FOR COMPARISON
  3511						MOVSI	AC,777400	;SETUP AC
  3512						FSC	AC,XX		;RESCALE
  3513						CAME	AC,AC-2		;TEST RESULT
  3514						ER3	AC,SN		;FSC FAILED
  3515						JUMPL	AC+2,.-5	;LOOP ON ERROR SWITCH
  3516					>
  3517
  3518			030701		SN=SN+1
  3519			000000			XX=XX+XX
  3520			776000			ZZ=ZZ-WW
  3521			001000			WW=WW+WW
  3522			000001			IFE	XX,<XX=1>
  3523	033506	205 11 0 00 776400 		MOVSI	AC-2,400+ZZ	;SETUP FOR COMPARISON
  3524	033507	205 13 0 00 777400 		MOVSI	AC,777400	;SETUP AC
  3525	033510	132 13 0 00 000001 		FSC	AC,XX		;RESCALE
  3526	033511	312 13 0 00 000011 		CAME	AC,AC-2		;TEST RESULT
  3527	033512	003 13 0 00 030701 		ER3	AC,SN		;FSC FAILED
  3528	033513	321 15 0 00 033506 		JUMPL	AC+2,.-5	;LOOP ON ERROR SWITCH
  3529
  3530
  3531			030702		SN=SN+1
  3532			000002			XX=XX+XX
  3533			775000			ZZ=ZZ-WW
  3534			002000			WW=WW+WW
  3535						IFE	XX,<XX=1>
  3536	033514	205 11 0 00 775400 		MOVSI	AC-2,400+ZZ	;SETUP FOR COMPARISON
  3537	033515	205 13 0 00 777400 		MOVSI	AC,777400	;SETUP AC
  3538	033516	132 13 0 00 000002 		FSC	AC,XX		;RESCALE
  3539	033517	312 13 0 00 000011 		CAME	AC,AC-2		;TEST RESULTDBKCA	PDP-10 KI10 ADVANCED INSTRUCTION DIAGNOSTIC #1, VERSION 0,3 	MACRO %52(462) 10:44  9-AUG-76 PAGE 54-1
DBKCAM	MAC	26-MAY-76 16:51		PART I.E-GEN TEST-FSC,FAD,FSB AND UFA                                              SEQ 0097

  3540	033520	003 13 0 00 030702 		ER3	AC,SN		;FSC FAILED
  3541	033521	321 15 0 00 033514 		JUMPL	AC+2,.-5	;LOOP ON ERROR SWITCH
  3542
  3543
  3544			030703		SN=SN+1
  3545			000004			XX=XX+XX
  3546			773000			ZZ=ZZ-WW
  3547			004000			WW=WW+WW
  3548						IFE	XX,<XX=1>
  3549	033522	205 11 0 00 773400 		MOVSI	AC-2,400+ZZ	;SETUP FOR COMPARISON
  3550	033523	205 13 0 00 777400 		MOVSI	AC,777400	;SETUP AC
  3551	033524	132 13 0 00 000004 		FSC	AC,XX		;RESCALE
  3552	033525	312 13 0 00 000011 		CAME	AC,AC-2		;TEST RESULT
  3553	033526	003 13 0 00 030703 		ER3	AC,SN		;FSC FAILED
  3554	033527	321 15 0 00 033522 		JUMPL	AC+2,.-5	;LOOP ON ERROR SWITCH
  3555
  3556
  3557			030704		SN=SN+1
  3558			000010			XX=XX+XX
  3559			767000			ZZ=ZZ-WW
  3560			010000			WW=WW+WW
  3561						IFE	XX,<XX=1>
  3562	033530	205 11 0 00 767400 		MOVSI	AC-2,400+ZZ	;SETUP FOR COMPARISON
  3563	033531	205 13 0 00 777400 		MOVSI	AC,777400	;SETUP AC
  3564	033532	132 13 0 00 000010 		FSC	AC,XX		;RESCALE
  3565	033533	312 13 0 00 000011 		CAME	AC,AC-2		;TEST RESULT
  3566	033534	003 13 0 00 030704 		ER3	AC,SN		;FSC FAILED
  3567	033535	321 15 0 00 033530 		JUMPL	AC+2,.-5	;LOOP ON ERROR SWITCH
  3568
  3569
  3570			030705		SN=SN+1
  3571			000020			XX=XX+XX
  3572			757000			ZZ=ZZ-WW
  3573			020000			WW=WW+WW
  3574						IFE	XX,<XX=1>
  3575	033536	205 11 0 00 757400 		MOVSI	AC-2,400+ZZ	;SETUP FOR COMPARISON
  3576	033537	205 13 0 00 777400 		MOVSI	AC,777400	;SETUP AC
  3577	033540	132 13 0 00 000020 		FSC	AC,XX		;RESCALE
  3578	033541	312 13 0 00 000011 		CAME	AC,AC-2		;TEST RESULT
  3579	033542	003 13 0 00 030705 		ER3	AC,SN		;FSC FAILED
  3580	033543	321 15 0 00 033536 		JUMPL	AC+2,.-5	;LOOP ON ERROR SWITCH
  3581
  3582
  3583			030706		SN=SN+1
  3584			000040			XX=XX+XX
  3585			737000			ZZ=ZZ-WW
  3586			040000			WW=WW+WW
  3587						IFE	XX,<XX=1>
  3588	033544	205 11 0 00 737400 		MOVSI	AC-2,400+ZZ	;SETUP FOR COMPARISON
  3589	033545	205 13 0 00 777400 		MOVSI	AC,777400	;SETUP AC
  3590	033546	132 13 0 00 000040 		FSC	AC,XX		;RESCALE
  3591	033547	312 13 0 00 000011 		CAME	AC,AC-2		;TEST RESULT
  3592	033550	003 13 0 00 030706 		ER3	AC,SN		;FSC FAILED
  3593	033551	321 15 0 00 033544 		JUMPL	AC+2,.-5	;LOOP ON ERROR SWITCH
  3594DBKCA	PDP-10 KI10 ADVANCED INSTRUCTION DIAGNOSTIC #1, VERSION 0,3 	MACRO %52(462) 10:44  9-AUG-76 PAGE 54-2
DBKCAM	MAC	26-MAY-76 16:51		PART I.E-GEN TEST-FSC,FAD,FSB AND UFA                                              SEQ 0098

  3595
  3596			030707		SN=SN+1
  3597			000100			XX=XX+XX
  3598			677000			ZZ=ZZ-WW
  3599			100000			WW=WW+WW
  3600						IFE	XX,<XX=1>
  3601	033552	205 11 0 00 677400 		MOVSI	AC-2,400+ZZ	;SETUP FOR COMPARISON
  3602	033553	205 13 0 00 777400 		MOVSI	AC,777400	;SETUP AC
  3603	033554	132 13 0 00 000100 		FSC	AC,XX		;RESCALE
  3604	033555	312 13 0 00 000011 		CAME	AC,AC-2		;TEST RESULT
  3605	033556	003 13 0 00 030707 		ER3	AC,SN		;FSC FAILED
  3606	033557	321 15 0 00 033552 		JUMPL	AC+2,.-5	;LOOP ON ERROR SWITCH
  3607
  3608
  3609			030710		SN=SN+1
  3610			000200			XX=XX+XX
  3611			577000			ZZ=ZZ-WW
  3612			200000			WW=WW+WW
  3613						IFE	XX,<XX=1>
  3614	033560	205 11 0 00 577400 		MOVSI	AC-2,400+ZZ	;SETUP FOR COMPARISON
  3615	033561	205 13 0 00 777400 		MOVSI	AC,777400	;SETUP AC
  3616	033562	132 13 0 00 000200 		FSC	AC,XX		;RESCALE
  3617	033563	312 13 0 00 000011 		CAME	AC,AC-2		;TEST RESULT
  3618	033564	003 13 0 00 030710 		ER3	AC,SN		;FSC FAILED
  3619	033565	321 15 0 00 033560 		JUMPL	AC+2,.-5	;LOOP ON ERROR SWITCH
  3620
  3621					PAGEDBKCA	PDP-10 KI10 ADVANCED INSTRUCTION DIAGNOSTIC #1, VERSION 0,3 	MACRO %52(462) 10:44  9-AUG-76 PAGE 54-3
DBKCAM	MAC	26-MAY-76 16:51		PART I.E-GEN TEST-FSC,FAD,FSB AND UFA                                              SEQ 0099

  3622					;TEST FSC
  3623					;NEGATIVE EXP, NEGATIVE SCALE
  3624					;AR=577400000000
  3625					;SCALE=777,776,775,774,773,772,771,770
  3626					;RESULTANT EXP=600,601,602,603,604,605,606,607
  3627
  3628			000012			AC=12
  3629						SAVEAC	(1,1)^
  3630	033566	201 14 0 00 033566 		MOVEI	AC+2,.
  3631	033567	202 14 0 00 030051 		MOVEM	AC+2,TESTPC	;SETUP SUBTEST PC
  3632	033570	201 14 0 00 000014 		MOVEI	AC+2,<AC+2>&17	;INFORM ERROR ROUTINE WHICH
  3633	033571	202 14 0 00 040261 		MOVEM	AC+2,ERRLOP#	;AC IS USED FOR ITERATION^
  3634
  3635			031000		SN=31000
  3636			000000			XX=0
  3637			577000			ZZ=577000
  3638
  3639							;TEST FSC
  3640					O31000:	REPEAT	^D8,<
  3641					SN=SN+1
  3642						XX=XX-1
  3643						ZZ=ZZ+1000
  3644						MOVSI	AC-2,400+ZZ	;SETUP FOR COMPARISON
  3645						MOVSI	AC,577400	;SETUP AC
  3646						FSC	AC,XX		;RESCALE
  3647						CAME	AC,AC-2		;TEST RESULT
  3648						ER3	AC,SN		;FSC FAILED
  3649						JUMPL	AC+2,.-5	;LOOP ON ERROR SWITCH
  3650					>
  3651
  3652			031001		SN=SN+1
  3653		777777	777777			XX=XX-1
  3654			600000			ZZ=ZZ+1000
  3655	033572	205 10 0 00 600400 		MOVSI	AC-2,400+ZZ	;SETUP FOR COMPARISON
  3656	033573	205 12 0 00 577400 		MOVSI	AC,577400	;SETUP AC
  3657	033574	132 12 0 00 777777 		FSC	AC,XX		;RESCALE
  3658	033575	312 12 0 00 000010 		CAME	AC,AC-2		;TEST RESULT
  3659	033576	003 12 0 00 031001 		ER3	AC,SN		;FSC FAILED
  3660	033577	321 14 0 00 033572 		JUMPL	AC+2,.-5	;LOOP ON ERROR SWITCH
  3661
  3662
  3663			031002		SN=SN+1
  3664		777777	777776			XX=XX-1
  3665			601000			ZZ=ZZ+1000
  3666	033600	205 10 0 00 601400 		MOVSI	AC-2,400+ZZ	;SETUP FOR COMPARISON
  3667	033601	205 12 0 00 577400 		MOVSI	AC,577400	;SETUP AC
  3668	033602	132 12 0 00 777776 		FSC	AC,XX		;RESCALE
  3669	033603	312 12 0 00 000010 		CAME	AC,AC-2		;TEST RESULT
  3670	033604	003 12 0 00 031002 		ER3	AC,SN		;FSC FAILED
  3671	033605	321 14 0 00 033600 		JUMPL	AC+2,.-5	;LOOP ON ERROR SWITCH
  3672
  3673
  3674			031003		SN=SN+1
  3675		777777	777775			XX=XX-1
  3676			602000			ZZ=ZZ+1000DBKCA	PDP-10 KI10 ADVANCED INSTRUCTION DIAGNOSTIC #1, VERSION 0,3 	MACRO %52(462) 10:44  9-AUG-76 PAGE 54-4
DBKCAM	MAC	26-MAY-76 16:51		PART I.E-GEN TEST-FSC,FAD,FSB AND UFA                                              SEQ 0100

  3677	033606	205 10 0 00 602400 		MOVSI	AC-2,400+ZZ	;SETUP FOR COMPARISON
  3678	033607	205 12 0 00 577400 		MOVSI	AC,577400	;SETUP AC
  3679	033610	132 12 0 00 777775 		FSC	AC,XX		;RESCALE
  3680	033611	312 12 0 00 000010 		CAME	AC,AC-2		;TEST RESULT
  3681	033612	003 12 0 00 031003 		ER3	AC,SN		;FSC FAILED
  3682	033613	321 14 0 00 033606 		JUMPL	AC+2,.-5	;LOOP ON ERROR SWITCH
  3683
  3684
  3685			031004		SN=SN+1
  3686		777777	777774			XX=XX-1
  3687			603000			ZZ=ZZ+1000
  3688	033614	205 10 0 00 603400 		MOVSI	AC-2,400+ZZ	;SETUP FOR COMPARISON
  3689	033615	205 12 0 00 577400 		MOVSI	AC,577400	;SETUP AC
  3690	033616	132 12 0 00 777774 		FSC	AC,XX		;RESCALE
  3691	033617	312 12 0 00 000010 		CAME	AC,AC-2		;TEST RESULT
  3692	033620	003 12 0 00 031004 		ER3	AC,SN		;FSC FAILED
  3693	033621	321 14 0 00 033614 		JUMPL	AC+2,.-5	;LOOP ON ERROR SWITCH
  3694
  3695
  3696			031005		SN=SN+1
  3697		777777	777773			XX=XX-1
  3698			604000			ZZ=ZZ+1000
  3699	033622	205 10 0 00 604400 		MOVSI	AC-2,400+ZZ	;SETUP FOR COMPARISON
  3700	033623	205 12 0 00 577400 		MOVSI	AC,577400	;SETUP AC
  3701	033624	132 12 0 00 777773 		FSC	AC,XX		;RESCALE
  3702	033625	312 12 0 00 000010 		CAME	AC,AC-2		;TEST RESULT
  3703	033626	003 12 0 00 031005 		ER3	AC,SN		;FSC FAILED
  3704	033627	321 14 0 00 033622 		JUMPL	AC+2,.-5	;LOOP ON ERROR SWITCH
  3705
  3706
  3707			031006		SN=SN+1
  3708		777777	777772			XX=XX-1
  3709			605000			ZZ=ZZ+1000
  3710	033630	205 10 0 00 605400 		MOVSI	AC-2,400+ZZ	;SETUP FOR COMPARISON
  3711	033631	205 12 0 00 577400 		MOVSI	AC,577400	;SETUP AC
  3712	033632	132 12 0 00 777772 		FSC	AC,XX		;RESCALE
  3713	033633	312 12 0 00 000010 		CAME	AC,AC-2		;TEST RESULT
  3714	033634	003 12 0 00 031006 		ER3	AC,SN		;FSC FAILED
  3715	033635	321 14 0 00 033630 		JUMPL	AC+2,.-5	;LOOP ON ERROR SWITCH
  3716
  3717
  3718			031007		SN=SN+1
  3719		777777	777771			XX=XX-1
  3720			606000			ZZ=ZZ+1000
  3721	033636	205 10 0 00 606400 		MOVSI	AC-2,400+ZZ	;SETUP FOR COMPARISON
  3722	033637	205 12 0 00 577400 		MOVSI	AC,577400	;SETUP AC
  3723	033640	132 12 0 00 777771 		FSC	AC,XX		;RESCALE
  3724	033641	312 12 0 00 000010 		CAME	AC,AC-2		;TEST RESULT
  3725	033642	003 12 0 00 031007 		ER3	AC,SN		;FSC FAILED
  3726	033643	321 14 0 00 033636 		JUMPL	AC+2,.-5	;LOOP ON ERROR SWITCH
  3727
  3728
  3729			031010		SN=SN+1
  3730		777777	777770			XX=XX-1
  3731			607000			ZZ=ZZ+1000DBKCA	PDP-10 KI10 ADVANCED INSTRUCTION DIAGNOSTIC #1, VERSION 0,3 	MACRO %52(462) 10:44  9-AUG-76 PAGE 54-5
DBKCAM	MAC	26-MAY-76 16:51		PART I.E-GEN TEST-FSC,FAD,FSB AND UFA                                              SEQ 0101

  3732	033644	205 10 0 00 607400 		MOVSI	AC-2,400+ZZ	;SETUP FOR COMPARISON
  3733	033645	205 12 0 00 577400 		MOVSI	AC,577400	;SETUP AC
  3734	033646	132 12 0 00 777770 		FSC	AC,XX		;RESCALE
  3735	033647	312 12 0 00 000010 		CAME	AC,AC-2		;TEST RESULT
  3736	033650	003 12 0 00 031010 		ER3	AC,SN		;FSC FAILED
  3737	033651	321 14 0 00 033644 		JUMPL	AC+2,.-5	;LOOP ON ERROR SWITCH
  3738DBKCA	PDP-10 KI10 ADVANCED INSTRUCTION DIAGNOSTIC #1, VERSION 0,3 	MACRO %52(462) 10:44  9-AUG-76 PAGE 55
DBKCAM	MAC	26-MAY-76 16:51		PART I.E-GEN TEST-FSC,FAD,FSB AND UFA                                              SEQ 0102

  3739					;TEST FSC
  3740					;NR ALL ZERO CONDITION
  3741					;AR=200000000000
  3742					;SCALE=1,2,4
  3743					;RESULTANT AC=0
  3744
  3745			000011			AC=11
  3746						SAVEAC	(1,1)^
  3747	033652	201 13 0 00 033652 		MOVEI	AC+2,.
  3748	033653	202 13 0 00 030051 		MOVEM	AC+2,TESTPC	;SETUP SUBTEST PC
  3749	033654	201 13 0 00 000013 		MOVEI	AC+2,<AC+2>&17	;INFORM ERROR ROUTINE WHICH
  3750	033655	202 13 0 00 040261 		MOVEM	AC+2,ERRLOP#	;AC IS USED FOR ITERATION^
  3751
  3752			031100		SN=31100
  3753			000000			ZZ=0
  3754
  3755							;TEST FSC -ALL ZERO COND
  3756					O31100:	REPEAT	^D3,<
  3757					SN=SN+1
  3758						ZZ=ZZ+ZZ
  3759						IFE	ZZ,<ZZ=1>
  3760						MOVSI	AC,200000	;SETUP AC
  3761						FSC	AC,ZZ		;RESCALE
  3762						SKIPE	AC		;TEST AC=0
  3763						ER3	AC,SN		;FSC -NR ALL ZERO FAILED
  3764						JUMPL	AC+2,.-4	;LOOP ON ERROR SWITCH
  3765					>
  3766
  3767			031101		SN=SN+1
  3768			000000			ZZ=ZZ+ZZ
  3769			000001			IFE	ZZ,<ZZ=1>
  3770	033656	205 11 0 00 200000 		MOVSI	AC,200000	;SETUP AC
  3771	033657	132 11 0 00 000001 		FSC	AC,ZZ		;RESCALE
  3772	033660	332 00 0 00 000011 		SKIPE	AC		;TEST AC=0
  3773	033661	003 11 0 00 031101 		ER3	AC,SN		;FSC -NR ALL ZERO FAILED
  3774	033662	321 13 0 00 033656 		JUMPL	AC+2,.-4	;LOOP ON ERROR SWITCH
  3775
  3776
  3777			031102		SN=SN+1
  3778			000002			ZZ=ZZ+ZZ
  3779						IFE	ZZ,<ZZ=1>
  3780	033663	205 11 0 00 200000 		MOVSI	AC,200000	;SETUP AC
  3781	033664	132 11 0 00 000002 		FSC	AC,ZZ		;RESCALE
  3782	033665	332 00 0 00 000011 		SKIPE	AC		;TEST AC=0
  3783	033666	003 11 0 00 031102 		ER3	AC,SN		;FSC -NR ALL ZERO FAILED
  3784	033667	321 13 0 00 033663 		JUMPL	AC+2,.-4	;LOOP ON ERROR SWITCH
  3785
  3786
  3787			031103		SN=SN+1
  3788			000004			ZZ=ZZ+ZZ
  3789						IFE	ZZ,<ZZ=1>
  3790	033670	205 11 0 00 200000 		MOVSI	AC,200000	;SETUP AC
  3791	033671	132 11 0 00 000004 		FSC	AC,ZZ		;RESCALE
  3792	033672	332 00 0 00 000011 		SKIPE	AC		;TEST AC=0
  3793	033673	003 11 0 00 031103 		ER3	AC,SN		;FSC -NR ALL ZERO FAILEDDBKCA	PDP-10 KI10 ADVANCED INSTRUCTION DIAGNOSTIC #1, VERSION 0,3 	MACRO %52(462) 10:44  9-AUG-76 PAGE 55-1
DBKCAM	MAC	26-MAY-76 16:51		PART I.E-GEN TEST-FSC,FAD,FSB AND UFA                                              SEQ 0103

  3794	033674	321 13 0 00 033670 		JUMPL	AC+2,.-4	;LOOP ON ERROR SWITCH
  3795
  3796					PAGEDBKCA	PDP-10 KI10 ADVANCED INSTRUCTION DIAGNOSTIC #1, VERSION 0,3 	MACRO %52(462) 10:44  9-AUG-76 PAGE 55-2
DBKCAM	MAC	26-MAY-76 16:51		PART I.E-GEN TEST-FSC,FAD,FSB AND UFA                                              SEQ 0104

  3797					;TEST FSC
  3798					;NR SHRT COND
  3799					;AR=577000000000
  3800					;SCALE=1,2,3
  3801					;RESULTANT EXPONENT=575,574,573
  3802
  3803			000010			AC=10
  3804						SAVEAC	(1,1)^
  3805	033675	201 12 0 00 033675 		MOVEI	AC+2,.
  3806	033676	202 12 0 00 030051 		MOVEM	AC+2,TESTPC	;SETUP SUBTEST PC
  3807	033677	201 12 0 00 000012 		MOVEI	AC+2,<AC+2>&17	;INFORM ERROR ROUTINE WHICH
  3808	033700	202 12 0 00 040261 		MOVEM	AC+2,ERRLOP#	;AC IS USED FOR ITERATION^
  3809
  3810			031200		SN=31200
  3811			576000			XX=576000
  3812			000000			ZZ=0
  3813
  3814							;TEST FSC-NRSHRT
  3815					O31200:	REPEAT	^D3,<
  3816					SN=SN+1
  3817						XX=XX-1000
  3818						ZZ=ZZ+1
  3819						MOVSI	AC-2,400+XX	;SETUP FOR COMPARISON
  3820						MOVSI	AC,577000	;SETUP AC
  3821						FSC	AC,ZZ		;RESCALE
  3822						CAME	AC,AC-2		;TEST RESULT
  3823						ER3	AC,SN		;FSC NRSHRT FAILED
  3824						JUMPL	AC+2,.-5	;LOOP ON ERROR SWITCH
  3825					>
  3826
  3827			031201		SN=SN+1
  3828			575000			XX=XX-1000
  3829			000001			ZZ=ZZ+1
  3830	033701	205 06 0 00 575400 		MOVSI	AC-2,400+XX	;SETUP FOR COMPARISON
  3831	033702	205 10 0 00 577000 		MOVSI	AC,577000	;SETUP AC
  3832	033703	132 10 0 00 000001 		FSC	AC,ZZ		;RESCALE
  3833	033704	312 10 0 00 000006 		CAME	AC,AC-2		;TEST RESULT
  3834	033705	003 10 0 00 031201 		ER3	AC,SN		;FSC NRSHRT FAILED
  3835	033706	321 12 0 00 033701 		JUMPL	AC+2,.-5	;LOOP ON ERROR SWITCH
  3836
  3837
  3838			031202		SN=SN+1
  3839			574000			XX=XX-1000
  3840			000002			ZZ=ZZ+1
  3841	033707	205 06 0 00 574400 		MOVSI	AC-2,400+XX	;SETUP FOR COMPARISON
  3842	033710	205 10 0 00 577000 		MOVSI	AC,577000	;SETUP AC
  3843	033711	132 10 0 00 000002 		FSC	AC,ZZ		;RESCALE
  3844	033712	312 10 0 00 000006 		CAME	AC,AC-2		;TEST RESULT
  3845	033713	003 10 0 00 031202 		ER3	AC,SN		;FSC NRSHRT FAILED
  3846	033714	321 12 0 00 033707 		JUMPL	AC+2,.-5	;LOOP ON ERROR SWITCH
  3847
  3848
  3849			031203		SN=SN+1
  3850			573000			XX=XX-1000
  3851			000003			ZZ=ZZ+1DBKCA	PDP-10 KI10 ADVANCED INSTRUCTION DIAGNOSTIC #1, VERSION 0,3 	MACRO %52(462) 10:44  9-AUG-76 PAGE 55-3
DBKCAM	MAC	26-MAY-76 16:51		PART I.E-GEN TEST-FSC,FAD,FSB AND UFA                                              SEQ 0105

  3852	033715	205 06 0 00 573400 		MOVSI	AC-2,400+XX	;SETUP FOR COMPARISON
  3853	033716	205 10 0 00 577000 		MOVSI	AC,577000	;SETUP AC
  3854	033717	132 10 0 00 000003 		FSC	AC,ZZ		;RESCALE
  3855	033720	312 10 0 00 000006 		CAME	AC,AC-2		;TEST RESULT
  3856	033721	003 10 0 00 031203 		ER3	AC,SN		;FSC NRSHRT FAILED
  3857	033722	321 12 0 00 033715 		JUMPL	AC+2,.-5	;LOOP ON ERROR SWITCH
  3858DBKCA	PDP-10 KI10 ADVANCED INSTRUCTION DIAGNOSTIC #1, VERSION 0,3 	MACRO %52(462) 10:44  9-AUG-76 PAGE 56
DBKCAM	MAC	26-MAY-76 16:51		PART I.E-GEN TEST-FSC,FAD,FSB AND UFA                                              SEQ 0106

  3859					;TEST FSC
  3860					;-NR NORMAL
  3861					;AR=200200000000
  3862					;SCALE=1,2,3
  3863					;RESULTANT EXPONENT=200,201,202
  3864
  3865			000007			AC=7
  3866						SAVEAC	(1,1)^
  3867	033723	201 11 0 00 033723 		MOVEI	AC+2,.
  3868	033724	202 11 0 00 030051 		MOVEM	AC+2,TESTPC	;SETUP SUBTEST PC
  3869	033725	201 11 0 00 000011 		MOVEI	AC+2,<AC+2>&17	;INFORM ERROR ROUTINE WHICH
  3870	033726	202 11 0 00 040261 		MOVEM	AC+2,ERRLOP#	;AC IS USED FOR ITERATION^
  3871
  3872			031300		SN=31300
  3873			177000			XX=177000
  3874			000000			ZZ=0
  3875
  3876							;TEST FSC-NR NORMAL
  3877					O31300:	REPEAT	^D3,<
  3878					SN=SN+1
  3879						XX=XX+1000
  3880						ZZ=ZZ+1
  3881						MOVSI	AC-2,400+XX	;SETUP FOR COMPARISON
  3882						MOVSI	AC,200200	;SETUP AC
  3883						FSC	AC,ZZ		;RESCALE
  3884						CAME	AC,AC-2		;TEST RESULT
  3885						ER3	AC,SN		;FSC-NR NORMAL FAILED
  3886						JUMPL	AC+2,.-5	;LOOP ON ERROR SWITCH
  3887					>
  3888
  3889			031301		SN=SN+1
  3890			200000			XX=XX+1000
  3891			000001			ZZ=ZZ+1
  3892	033727	205 05 0 00 200400 		MOVSI	AC-2,400+XX	;SETUP FOR COMPARISON
  3893	033730	205 07 0 00 200200 		MOVSI	AC,200200	;SETUP AC
  3894	033731	132 07 0 00 000001 		FSC	AC,ZZ		;RESCALE
  3895	033732	312 07 0 00 000005 		CAME	AC,AC-2		;TEST RESULT
  3896	033733	003 07 0 00 031301 		ER3	AC,SN		;FSC-NR NORMAL FAILED
  3897	033734	321 11 0 00 033727 		JUMPL	AC+2,.-5	;LOOP ON ERROR SWITCH
  3898
  3899
  3900			031302		SN=SN+1
  3901			201000			XX=XX+1000
  3902			000002			ZZ=ZZ+1
  3903	033735	205 05 0 00 201400 		MOVSI	AC-2,400+XX	;SETUP FOR COMPARISON
  3904	033736	205 07 0 00 200200 		MOVSI	AC,200200	;SETUP AC
  3905	033737	132 07 0 00 000002 		FSC	AC,ZZ		;RESCALE
  3906	033740	312 07 0 00 000005 		CAME	AC,AC-2		;TEST RESULT
  3907	033741	003 07 0 00 031302 		ER3	AC,SN		;FSC-NR NORMAL FAILED
  3908	033742	321 11 0 00 033735 		JUMPL	AC+2,.-5	;LOOP ON ERROR SWITCH
  3909
  3910
  3911			031303		SN=SN+1
  3912			202000			XX=XX+1000
  3913			000003			ZZ=ZZ+1DBKCA	PDP-10 KI10 ADVANCED INSTRUCTION DIAGNOSTIC #1, VERSION 0,3 	MACRO %52(462) 10:44  9-AUG-76 PAGE 56-1
DBKCAM	MAC	26-MAY-76 16:51		PART I.E-GEN TEST-FSC,FAD,FSB AND UFA                                              SEQ 0107

  3914	033743	205 05 0 00 202400 		MOVSI	AC-2,400+XX	;SETUP FOR COMPARISON
  3915	033744	205 07 0 00 200200 		MOVSI	AC,200200	;SETUP AC
  3916	033745	132 07 0 00 000003 		FSC	AC,ZZ		;RESCALE
  3917	033746	312 07 0 00 000005 		CAME	AC,AC-2		;TEST RESULT
  3918	033747	003 07 0 00 031303 		ER3	AC,SN		;FSC-NR NORMAL FAILED
  3919	033750	321 11 0 00 033743 		JUMPL	AC+2,.-5	;LOOP ON ERROR SWITCH
  3920DBKCA	PDP-10 KI10 ADVANCED INSTRUCTION DIAGNOSTIC #1, VERSION 0,3 	MACRO %52(462) 10:44  9-AUG-76 PAGE 57
DBKCAM	MAC	26-MAY-76 16:51		PART I.E-GEN TEST-FSC,FAD,FSB AND UFA                                              SEQ 0108

  3921					;TEST FSC
  3922					;-(NOT) NRSHRT COND
  3923					;TESTING AD9(1) AND AD9-35=0)
  3924					;EXP=400
  3925					;MANTISSA=400,200,100,40,20 ETC
  3926					;SCALE=0
  3927					;RESULTANT AC SHOULD=ORIGINAL
  3928
  3929			000006			AC=6
  3930						SAVEAC	(1,1)^
  3931	033751	201 10 0 00 033751 		MOVEI	AC+2,.
  3932	033752	202 10 0 00 030051 		MOVEM	AC+2,TESTPC	;SETUP SUBTEST PC
  3933	033753	201 10 0 00 000010 		MOVEI	AC+2,<AC+2>&17	;INFORM ERROR ROUTINE WHICH
  3934	033754	202 10 0 00 040261 		MOVEM	AC+2,ERRLOP#	;AC IS USED FOR ITERATION^
  3935
  3936			031400		SN=31400
  3937			001000			ZZ=1000
  3938
  3939							;TEST BITS 9-17(1)
  3940					O31400:	REPEAT	^D9,<
  3941					SN=SN+1
  3942						ZZ=ZZ/2
  3943						MOVSI	AC-2,400000+ZZ	;SETUP FOR COMPARISON
  3944						MOVSI	AC,400000+ZZ	;SETUP AC
  3945						FSC	AC,		;RESCALE
  3946						CAME	AC,AC-2		;TEST RESULT
  3947						ER3	AC,SN		;NRSHRT ASSERTED
  3948						JUMPL	AC+2,.-5	;LOOP ON ERROR SWITCH
  3949					>
  3950
  3951			031401		SN=SN+1
  3952			000400			ZZ=ZZ/2
  3953	033755	205 04 0 00 400400 		MOVSI	AC-2,400000+ZZ	;SETUP FOR COMPARISON
  3954	033756	205 06 0 00 400400 		MOVSI	AC,400000+ZZ	;SETUP AC
  3955	033757	132 06 0 00 000000 		FSC	AC,		;RESCALE
  3956	033760	312 06 0 00 000004 		CAME	AC,AC-2		;TEST RESULT
  3957	033761	003 06 0 00 031401 		ER3	AC,SN		;NRSHRT ASSERTED
  3958	033762	321 10 0 00 033755 		JUMPL	AC+2,.-5	;LOOP ON ERROR SWITCH
  3959
  3960
  3961			031402		SN=SN+1
  3962			000200			ZZ=ZZ/2
  3963	033763	205 04 0 00 400200 		MOVSI	AC-2,400000+ZZ	;SETUP FOR COMPARISON
  3964	033764	205 06 0 00 400200 		MOVSI	AC,400000+ZZ	;SETUP AC
  3965	033765	132 06 0 00 000000 		FSC	AC,		;RESCALE
  3966	033766	312 06 0 00 000004 		CAME	AC,AC-2		;TEST RESULT
  3967	033767	003 06 0 00 031402 		ER3	AC,SN		;NRSHRT ASSERTED
  3968	033770	321 10 0 00 033763 		JUMPL	AC+2,.-5	;LOOP ON ERROR SWITCH
  3969
  3970
  3971			031403		SN=SN+1
  3972			000100			ZZ=ZZ/2
  3973	033771	205 04 0 00 400100 		MOVSI	AC-2,400000+ZZ	;SETUP FOR COMPARISON
  3974	033772	205 06 0 00 400100 		MOVSI	AC,400000+ZZ	;SETUP AC
  3975	033773	132 06 0 00 000000 		FSC	AC,		;RESCALEDBKCA	PDP-10 KI10 ADVANCED INSTRUCTION DIAGNOSTIC #1, VERSION 0,3 	MACRO %52(462) 10:44  9-AUG-76 PAGE 57-1
DBKCAM	MAC	26-MAY-76 16:51		PART I.E-GEN TEST-FSC,FAD,FSB AND UFA                                              SEQ 0109

  3976	033774	312 06 0 00 000004 		CAME	AC,AC-2		;TEST RESULT
  3977	033775	003 06 0 00 031403 		ER3	AC,SN		;NRSHRT ASSERTED
  3978	033776	321 10 0 00 033771 		JUMPL	AC+2,.-5	;LOOP ON ERROR SWITCH
  3979
  3980
  3981			031404		SN=SN+1
  3982			000040			ZZ=ZZ/2
  3983	033777	205 04 0 00 400040 		MOVSI	AC-2,400000+ZZ	;SETUP FOR COMPARISON
  3984	034000	205 06 0 00 400040 		MOVSI	AC,400000+ZZ	;SETUP AC
  3985	034001	132 06 0 00 000000 		FSC	AC,		;RESCALE
  3986	034002	312 06 0 00 000004 		CAME	AC,AC-2		;TEST RESULT
  3987	034003	003 06 0 00 031404 		ER3	AC,SN		;NRSHRT ASSERTED
  3988	034004	321 10 0 00 033777 		JUMPL	AC+2,.-5	;LOOP ON ERROR SWITCH
  3989
  3990
  3991			031405		SN=SN+1
  3992			000020			ZZ=ZZ/2
  3993	034005	205 04 0 00 400020 		MOVSI	AC-2,400000+ZZ	;SETUP FOR COMPARISON
  3994	034006	205 06 0 00 400020 		MOVSI	AC,400000+ZZ	;SETUP AC
  3995	034007	132 06 0 00 000000 		FSC	AC,		;RESCALE
  3996	034010	312 06 0 00 000004 		CAME	AC,AC-2		;TEST RESULT
  3997	034011	003 06 0 00 031405 		ER3	AC,SN		;NRSHRT ASSERTED
  3998	034012	321 10 0 00 034005 		JUMPL	AC+2,.-5	;LOOP ON ERROR SWITCH
  3999
  4000
  4001			031406		SN=SN+1
  4002			000010			ZZ=ZZ/2
  4003	034013	205 04 0 00 400010 		MOVSI	AC-2,400000+ZZ	;SETUP FOR COMPARISON
  4004	034014	205 06 0 00 400010 		MOVSI	AC,400000+ZZ	;SETUP AC
  4005	034015	132 06 0 00 000000 		FSC	AC,		;RESCALE
  4006	034016	312 06 0 00 000004 		CAME	AC,AC-2		;TEST RESULT
  4007	034017	003 06 0 00 031406 		ER3	AC,SN		;NRSHRT ASSERTED
  4008	034020	321 10 0 00 034013 		JUMPL	AC+2,.-5	;LOOP ON ERROR SWITCH
  4009
  4010
  4011			031407		SN=SN+1
  4012			000004			ZZ=ZZ/2
  4013	034021	205 04 0 00 400004 		MOVSI	AC-2,400000+ZZ	;SETUP FOR COMPARISON
  4014	034022	205 06 0 00 400004 		MOVSI	AC,400000+ZZ	;SETUP AC
  4015	034023	132 06 0 00 000000 		FSC	AC,		;RESCALE
  4016	034024	312 06 0 00 000004 		CAME	AC,AC-2		;TEST RESULT
  4017	034025	003 06 0 00 031407 		ER3	AC,SN		;NRSHRT ASSERTED
  4018	034026	321 10 0 00 034021 		JUMPL	AC+2,.-5	;LOOP ON ERROR SWITCH
  4019
  4020
  4021			031410		SN=SN+1
  4022			000002			ZZ=ZZ/2
  4023	034027	205 04 0 00 400002 		MOVSI	AC-2,400000+ZZ	;SETUP FOR COMPARISON
  4024	034030	205 06 0 00 400002 		MOVSI	AC,400000+ZZ	;SETUP AC
  4025	034031	132 06 0 00 000000 		FSC	AC,		;RESCALE
  4026	034032	312 06 0 00 000004 		CAME	AC,AC-2		;TEST RESULT
  4027	034033	003 06 0 00 031410 		ER3	AC,SN		;NRSHRT ASSERTED
  4028	034034	321 10 0 00 034027 		JUMPL	AC+2,.-5	;LOOP ON ERROR SWITCH
  4029
  4030DBKCA	PDP-10 KI10 ADVANCED INSTRUCTION DIAGNOSTIC #1, VERSION 0,3 	MACRO %52(462) 10:44  9-AUG-76 PAGE 57-2
DBKCAM	MAC	26-MAY-76 16:51		PART I.E-GEN TEST-FSC,FAD,FSB AND UFA                                              SEQ 0110

  4031			031411		SN=SN+1
  4032			000001			ZZ=ZZ/2
  4033	034035	205 04 0 00 400001 		MOVSI	AC-2,400000+ZZ	;SETUP FOR COMPARISON
  4034	034036	205 06 0 00 400001 		MOVSI	AC,400000+ZZ	;SETUP AC
  4035	034037	132 06 0 00 000000 		FSC	AC,		;RESCALE
  4036	034040	312 06 0 00 000004 		CAME	AC,AC-2		;TEST RESULT
  4037	034041	003 06 0 00 031411 		ER3	AC,SN		;NRSHRT ASSERTED
  4038	034042	321 10 0 00 034035 		JUMPL	AC+2,.-5	;LOOP ON ERROR SWITCH
  4039
  4040					PAGEDBKCA	PDP-10 KI10 ADVANCED INSTRUCTION DIAGNOSTIC #1, VERSION 0,3 	MACRO %52(462) 10:44  9-AUG-76 PAGE 57-3
DBKCAM	MAC	26-MAY-76 16:51		PART I.E-GEN TEST-FSC,FAD,FSB AND UFA                                              SEQ 0111

  4041			031500		SN=31500
  4042			000000			ZZ=0
  4043							;TEST BITS 18-35(1)
  4044					O31500:	REPEAT	^D18,<
  4045					SN=SN+1
  4046						ZZ=ZZ/2
  4047						IFE	ZZ,<ZZ=400000>
  4048						HRLI	AC-2,400000	;SETUP AC-2
  4049						HRRI	AC-2,ZZ		;FOR COMPARISON
  4050						HRLI	AC,400000	;SETUP
  4051						HRRI	AC,ZZ		;AC
  4052						FSC	AC,		;RESCALE
  4053						CAME	AC,AC-2		;TEST RESULT
  4054						ER3	AC,SN		;NRSHRT ASSERTED
  4055						JUMPL	AC+2,.-7	;LOOP ON ERROR SWITCH
  4056					>
  4057
  4058			031501		SN=SN+1
  4059			000000			ZZ=ZZ/2
  4060			400000			IFE	ZZ,<ZZ=400000>
  4061	034043	505 04 0 00 400000 		HRLI	AC-2,400000	;SETUP AC-2
  4062	034044	541 04 0 00 400000 		HRRI	AC-2,ZZ		;FOR COMPARISON
  4063	034045	505 06 0 00 400000 		HRLI	AC,400000	;SETUP
  4064	034046	541 06 0 00 400000 		HRRI	AC,ZZ		;AC
  4065	034047	132 06 0 00 000000 		FSC	AC,		;RESCALE
  4066	034050	312 06 0 00 000004 		CAME	AC,AC-2		;TEST RESULT
  4067	034051	003 06 0 00 031501 		ER3	AC,SN		;NRSHRT ASSERTED
  4068	034052	321 10 0 00 034043 		JUMPL	AC+2,.-7	;LOOP ON ERROR SWITCH
  4069
  4070
  4071			031502		SN=SN+1
  4072			200000			ZZ=ZZ/2
  4073						IFE	ZZ,<ZZ=400000>
  4074	034053	505 04 0 00 400000 		HRLI	AC-2,400000	;SETUP AC-2
  4075	034054	541 04 0 00 200000 		HRRI	AC-2,ZZ		;FOR COMPARISON
  4076	034055	505 06 0 00 400000 		HRLI	AC,400000	;SETUP
  4077	034056	541 06 0 00 200000 		HRRI	AC,ZZ		;AC
  4078	034057	132 06 0 00 000000 		FSC	AC,		;RESCALE
  4079	034060	312 06 0 00 000004 		CAME	AC,AC-2		;TEST RESULT
  4080	034061	003 06 0 00 031502 		ER3	AC,SN		;NRSHRT ASSERTED
  4081	034062	321 10 0 00 034053 		JUMPL	AC+2,.-7	;LOOP ON ERROR SWITCH
  4082
  4083
  4084			031503		SN=SN+1
  4085			100000			ZZ=ZZ/2
  4086						IFE	ZZ,<ZZ=400000>
  4087	034063	505 04 0 00 400000 		HRLI	AC-2,400000	;SETUP AC-2
  4088	034064	541 04 0 00 100000 		HRRI	AC-2,ZZ		;FOR COMPARISON
  4089	034065	505 06 0 00 400000 		HRLI	AC,400000	;SETUP
  4090	034066	541 06 0 00 100000 		HRRI	AC,ZZ		;AC
  4091	034067	132 06 0 00 000000 		FSC	AC,		;RESCALE
  4092	034070	312 06 0 00 000004 		CAME	AC,AC-2		;TEST RESULT
  4093	034071	003 06 0 00 031503 		ER3	AC,SN		;NRSHRT ASSERTED
  4094	034072	321 10 0 00 034063 		JUMPL	AC+2,.-7	;LOOP ON ERROR SWITCH
  4095DBKCA	PDP-10 KI10 ADVANCED INSTRUCTION DIAGNOSTIC #1, VERSION 0,3 	MACRO %52(462) 10:44  9-AUG-76 PAGE 57-4
DBKCAM	MAC	26-MAY-76 16:51		PART I.E-GEN TEST-FSC,FAD,FSB AND UFA                                              SEQ 0112

  4096
  4097			031504		SN=SN+1
  4098			040000			ZZ=ZZ/2
  4099						IFE	ZZ,<ZZ=400000>
  4100	034073	505 04 0 00 400000 		HRLI	AC-2,400000	;SETUP AC-2
  4101	034074	541 04 0 00 040000 		HRRI	AC-2,ZZ		;FOR COMPARISON
  4102	034075	505 06 0 00 400000 		HRLI	AC,400000	;SETUP
  4103	034076	541 06 0 00 040000 		HRRI	AC,ZZ		;AC
  4104	034077	132 06 0 00 000000 		FSC	AC,		;RESCALE
  4105	034100	312 06 0 00 000004 		CAME	AC,AC-2		;TEST RESULT
  4106	034101	003 06 0 00 031504 		ER3	AC,SN		;NRSHRT ASSERTED
  4107	034102	321 10 0 00 034073 		JUMPL	AC+2,.-7	;LOOP ON ERROR SWITCH
  4108
  4109
  4110			031505		SN=SN+1
  4111			020000			ZZ=ZZ/2
  4112						IFE	ZZ,<ZZ=400000>
  4113	034103	505 04 0 00 400000 		HRLI	AC-2,400000	;SETUP AC-2
  4114	034104	541 04 0 00 020000 		HRRI	AC-2,ZZ		;FOR COMPARISON
  4115	034105	505 06 0 00 400000 		HRLI	AC,400000	;SETUP
  4116	034106	541 06 0 00 020000 		HRRI	AC,ZZ		;AC
  4117	034107	132 06 0 00 000000 		FSC	AC,		;RESCALE
  4118	034110	312 06 0 00 000004 		CAME	AC,AC-2		;TEST RESULT
  4119	034111	003 06 0 00 031505 		ER3	AC,SN		;NRSHRT ASSERTED
  4120	034112	321 10 0 00 034103 		JUMPL	AC+2,.-7	;LOOP ON ERROR SWITCH
  4121
  4122
  4123			031506		SN=SN+1
  4124			010000			ZZ=ZZ/2
  4125						IFE	ZZ,<ZZ=400000>
  4126	034113	505 04 0 00 400000 		HRLI	AC-2,400000	;SETUP AC-2
  4127	034114	541 04 0 00 010000 		HRRI	AC-2,ZZ		;FOR COMPARISON
  4128	034115	505 06 0 00 400000 		HRLI	AC,400000	;SETUP
  4129	034116	541 06 0 00 010000 		HRRI	AC,ZZ		;AC
  4130	034117	132 06 0 00 000000 		FSC	AC,		;RESCALE
  4131	034120	312 06 0 00 000004 		CAME	AC,AC-2		;TEST RESULT
  4132	034121	003 06 0 00 031506 		ER3	AC,SN		;NRSHRT ASSERTED
  4133	034122	321 10 0 00 034113 		JUMPL	AC+2,.-7	;LOOP ON ERROR SWITCH
  4134
  4135
  4136			031507		SN=SN+1
  4137			004000			ZZ=ZZ/2
  4138						IFE	ZZ,<ZZ=400000>
  4139	034123	505 04 0 00 400000 		HRLI	AC-2,400000	;SETUP AC-2
  4140	034124	541 04 0 00 004000 		HRRI	AC-2,ZZ		;FOR COMPARISON
  4141	034125	505 06 0 00 400000 		HRLI	AC,400000	;SETUP
  4142	034126	541 06 0 00 004000 		HRRI	AC,ZZ		;AC
  4143	034127	132 06 0 00 000000 		FSC	AC,		;RESCALE
  4144	034130	312 06 0 00 000004 		CAME	AC,AC-2		;TEST RESULT
  4145	034131	003 06 0 00 031507 		ER3	AC,SN		;NRSHRT ASSERTED
  4146	034132	321 10 0 00 034123 		JUMPL	AC+2,.-7	;LOOP ON ERROR SWITCH
  4147
  4148
  4149			031510		SN=SN+1
  4150			002000			ZZ=ZZ/2DBKCA	PDP-10 KI10 ADVANCED INSTRUCTION DIAGNOSTIC #1, VERSION 0,3 	MACRO %52(462) 10:44  9-AUG-76 PAGE 57-5
DBKCAM	MAC	26-MAY-76 16:51		PART I.E-GEN TEST-FSC,FAD,FSB AND UFA                                              SEQ 0113

  4151						IFE	ZZ,<ZZ=400000>
  4152	034133	505 04 0 00 400000 		HRLI	AC-2,400000	;SETUP AC-2
  4153	034134	541 04 0 00 002000 		HRRI	AC-2,ZZ		;FOR COMPARISON
  4154	034135	505 06 0 00 400000 		HRLI	AC,400000	;SETUP
  4155	034136	541 06 0 00 002000 		HRRI	AC,ZZ		;AC
  4156	034137	132 06 0 00 000000 		FSC	AC,		;RESCALE
  4157	034140	312 06 0 00 000004 		CAME	AC,AC-2		;TEST RESULT
  4158	034141	003 06 0 00 031510 		ER3	AC,SN		;NRSHRT ASSERTED
  4159	034142	321 10 0 00 034133 		JUMPL	AC+2,.-7	;LOOP ON ERROR SWITCH
  4160
  4161
  4162			031511		SN=SN+1
  4163			001000			ZZ=ZZ/2
  4164						IFE	ZZ,<ZZ=400000>
  4165	034143	505 04 0 00 400000 		HRLI	AC-2,400000	;SETUP AC-2
  4166	034144	541 04 0 00 001000 		HRRI	AC-2,ZZ		;FOR COMPARISON
  4167	034145	505 06 0 00 400000 		HRLI	AC,400000	;SETUP
  4168	034146	541 06 0 00 001000 		HRRI	AC,ZZ		;AC
  4169	034147	132 06 0 00 000000 		FSC	AC,		;RESCALE
  4170	034150	312 06 0 00 000004 		CAME	AC,AC-2		;TEST RESULT
  4171	034151	003 06 0 00 031511 		ER3	AC,SN		;NRSHRT ASSERTED
  4172	034152	321 10 0 00 034143 		JUMPL	AC+2,.-7	;LOOP ON ERROR SWITCH
  4173
  4174
  4175			031512		SN=SN+1
  4176			000400			ZZ=ZZ/2
  4177						IFE	ZZ,<ZZ=400000>
  4178	034153	505 04 0 00 400000 		HRLI	AC-2,400000	;SETUP AC-2
  4179	034154	541 04 0 00 000400 		HRRI	AC-2,ZZ		;FOR COMPARISON
  4180	034155	505 06 0 00 400000 		HRLI	AC,400000	;SETUP
  4181	034156	541 06 0 00 000400 		HRRI	AC,ZZ		;AC
  4182	034157	132 06 0 00 000000 		FSC	AC,		;RESCALE
  4183	034160	312 06 0 00 000004 		CAME	AC,AC-2		;TEST RESULT
  4184	034161	003 06 0 00 031512 		ER3	AC,SN		;NRSHRT ASSERTED
  4185	034162	321 10 0 00 034153 		JUMPL	AC+2,.-7	;LOOP ON ERROR SWITCH
  4186
  4187
  4188			031513		SN=SN+1
  4189			000200			ZZ=ZZ/2
  4190						IFE	ZZ,<ZZ=400000>
  4191	034163	505 04 0 00 400000 		HRLI	AC-2,400000	;SETUP AC-2
  4192	034164	541 04 0 00 000200 		HRRI	AC-2,ZZ		;FOR COMPARISON
  4193	034165	505 06 0 00 400000 		HRLI	AC,400000	;SETUP
  4194	034166	541 06 0 00 000200 		HRRI	AC,ZZ		;AC
  4195	034167	132 06 0 00 000000 		FSC	AC,		;RESCALE
  4196	034170	312 06 0 00 000004 		CAME	AC,AC-2		;TEST RESULT
  4197	034171	003 06 0 00 031513 		ER3	AC,SN		;NRSHRT ASSERTED
  4198	034172	321 10 0 00 034163 		JUMPL	AC+2,.-7	;LOOP ON ERROR SWITCH
  4199
  4200
  4201			031514		SN=SN+1
  4202			000100			ZZ=ZZ/2
  4203						IFE	ZZ,<ZZ=400000>
  4204	034173	505 04 0 00 400000 		HRLI	AC-2,400000	;SETUP AC-2
  4205	034174	541 04 0 00 000100 		HRRI	AC-2,ZZ		;FOR COMPARISONDBKCA	PDP-10 KI10 ADVANCED INSTRUCTION DIAGNOSTIC #1, VERSION 0,3 	MACRO %52(462) 10:44  9-AUG-76 PAGE 57-6
DBKCAM	MAC	26-MAY-76 16:51		PART I.E-GEN TEST-FSC,FAD,FSB AND UFA                                              SEQ 0114

  4206	034175	505 06 0 00 400000 		HRLI	AC,400000	;SETUP
  4207	034176	541 06 0 00 000100 		HRRI	AC,ZZ		;AC
  4208	034177	132 06 0 00 000000 		FSC	AC,		;RESCALE
  4209	034200	312 06 0 00 000004 		CAME	AC,AC-2		;TEST RESULT
  4210	034201	003 06 0 00 031514 		ER3	AC,SN		;NRSHRT ASSERTED
  4211	034202	321 10 0 00 034173 		JUMPL	AC+2,.-7	;LOOP ON ERROR SWITCH
  4212
  4213
  4214			031515		SN=SN+1
  4215			000040			ZZ=ZZ/2
  4216						IFE	ZZ,<ZZ=400000>
  4217	034203	505 04 0 00 400000 		HRLI	AC-2,400000	;SETUP AC-2
  4218	034204	541 04 0 00 000040 		HRRI	AC-2,ZZ		;FOR COMPARISON
  4219	034205	505 06 0 00 400000 		HRLI	AC,400000	;SETUP
  4220	034206	541 06 0 00 000040 		HRRI	AC,ZZ		;AC
  4221	034207	132 06 0 00 000000 		FSC	AC,		;RESCALE
  4222	034210	312 06 0 00 000004 		CAME	AC,AC-2		;TEST RESULT
  4223	034211	003 06 0 00 031515 		ER3	AC,SN		;NRSHRT ASSERTED
  4224	034212	321 10 0 00 034203 		JUMPL	AC+2,.-7	;LOOP ON ERROR SWITCH
  4225
  4226
  4227			031516		SN=SN+1
  4228			000020			ZZ=ZZ/2
  4229						IFE	ZZ,<ZZ=400000>
  4230	034213	505 04 0 00 400000 		HRLI	AC-2,400000	;SETUP AC-2
  4231	034214	541 04 0 00 000020 		HRRI	AC-2,ZZ		;FOR COMPARISON
  4232	034215	505 06 0 00 400000 		HRLI	AC,400000	;SETUP
  4233	034216	541 06 0 00 000020 		HRRI	AC,ZZ		;AC
  4234	034217	132 06 0 00 000000 		FSC	AC,		;RESCALE
  4235	034220	312 06 0 00 000004 		CAME	AC,AC-2		;TEST RESULT
  4236	034221	003 06 0 00 031516 		ER3	AC,SN		;NRSHRT ASSERTED
  4237	034222	321 10 0 00 034213 		JUMPL	AC+2,.-7	;LOOP ON ERROR SWITCH
  4238
  4239
  4240			031517		SN=SN+1
  4241			000010			ZZ=ZZ/2
  4242						IFE	ZZ,<ZZ=400000>
  4243	034223	505 04 0 00 400000 		HRLI	AC-2,400000	;SETUP AC-2
  4244	034224	541 04 0 00 000010 		HRRI	AC-2,ZZ		;FOR COMPARISON
  4245	034225	505 06 0 00 400000 		HRLI	AC,400000	;SETUP
  4246	034226	541 06 0 00 000010 		HRRI	AC,ZZ		;AC
  4247	034227	132 06 0 00 000000 		FSC	AC,		;RESCALE
  4248	034230	312 06 0 00 000004 		CAME	AC,AC-2		;TEST RESULT
  4249	034231	003 06 0 00 031517 		ER3	AC,SN		;NRSHRT ASSERTED
  4250	034232	321 10 0 00 034223 		JUMPL	AC+2,.-7	;LOOP ON ERROR SWITCH
  4251
  4252
  4253			031520		SN=SN+1
  4254			000004			ZZ=ZZ/2
  4255						IFE	ZZ,<ZZ=400000>
  4256	034233	505 04 0 00 400000 		HRLI	AC-2,400000	;SETUP AC-2
  4257	034234	541 04 0 00 000004 		HRRI	AC-2,ZZ		;FOR COMPARISON
  4258	034235	505 06 0 00 400000 		HRLI	AC,400000	;SETUP
  4259	034236	541 06 0 00 000004 		HRRI	AC,ZZ		;AC
  4260	034237	132 06 0 00 000000 		FSC	AC,		;RESCALEDBKCA	PDP-10 KI10 ADVANCED INSTRUCTION DIAGNOSTIC #1, VERSION 0,3 	MACRO %52(462) 10:44  9-AUG-76 PAGE 57-7
DBKCAM	MAC	26-MAY-76 16:51		PART I.E-GEN TEST-FSC,FAD,FSB AND UFA                                              SEQ 0115

  4261	034240	312 06 0 00 000004 		CAME	AC,AC-2		;TEST RESULT
  4262	034241	003 06 0 00 031520 		ER3	AC,SN		;NRSHRT ASSERTED
  4263	034242	321 10 0 00 034233 		JUMPL	AC+2,.-7	;LOOP ON ERROR SWITCH
  4264
  4265
  4266			031521		SN=SN+1
  4267			000002			ZZ=ZZ/2
  4268						IFE	ZZ,<ZZ=400000>
  4269	034243	505 04 0 00 400000 		HRLI	AC-2,400000	;SETUP AC-2
  4270	034244	541 04 0 00 000002 		HRRI	AC-2,ZZ		;FOR COMPARISON
  4271	034245	505 06 0 00 400000 		HRLI	AC,400000	;SETUP
  4272	034246	541 06 0 00 000002 		HRRI	AC,ZZ		;AC
  4273	034247	132 06 0 00 000000 		FSC	AC,		;RESCALE
  4274	034250	312 06 0 00 000004 		CAME	AC,AC-2		;TEST RESULT
  4275	034251	003 06 0 00 031521 		ER3	AC,SN		;NRSHRT ASSERTED
  4276	034252	321 10 0 00 034243 		JUMPL	AC+2,.-7	;LOOP ON ERROR SWITCH
  4277
  4278
  4279			031522		SN=SN+1
  4280			000001			ZZ=ZZ/2
  4281						IFE	ZZ,<ZZ=400000>
  4282	034253	505 04 0 00 400000 		HRLI	AC-2,400000	;SETUP AC-2
  4283	034254	541 04 0 00 000001 		HRRI	AC-2,ZZ		;FOR COMPARISON
  4284	034255	505 06 0 00 400000 		HRLI	AC,400000	;SETUP
  4285	034256	541 06 0 00 000001 		HRRI	AC,ZZ		;AC
  4286	034257	132 06 0 00 000000 		FSC	AC,		;RESCALE
  4287	034260	312 06 0 00 000004 		CAME	AC,AC-2		;TEST RESULT
  4288	034261	003 06 0 00 031522 		ER3	AC,SN		;NRSHRT ASSERTED
  4289	034262	321 10 0 00 034253 		JUMPL	AC+2,.-7	;LOOP ON ERROR SWITCH
  4290DBKCA	PDP-10 KI10 ADVANCED INSTRUCTION DIAGNOSTIC #1, VERSION 0,3 	MACRO %52(462) 10:44  9-AUG-76 PAGE 58
DBKCAM	MAC	26-MAY-76 16:51		PART I.E-GEN TEST-FSC,FAD,FSB AND UFA                                              SEQ 0116

  4291					;TEST FAD
  4292					;TEST TWO POSITIVES
  4293					;AR=200200,ZZ (UNNORMALIZED)
  4294					;BR=200200,ZZ (UNNORMALIZED)
  4295					;SUM=200400,ZZ+ZZ
  4296
  4297			000014			AC=14
  4298						SAVEAC	(1,1)^
  4299	034263	201 16 0 00 034263 		MOVEI	AC+2,.
  4300	034264	202 16 0 00 030051 		MOVEM	AC+2,TESTPC	;SETUP SUBTEST PC
  4301	034265	201 16 0 00 000016 		MOVEI	AC+2,<AC+2>&17	;INFORM ERROR ROUTINE WHICH
  4302	034266	202 16 0 00 040261 		MOVEM	AC+2,ERRLOP#	;AC IS USED FOR ITERATION^
  4303
  4304			031600		SN=31600
  4305			000001			XX=1
  4306			000000			ZZ=0
  4307
  4308							;TEST FAD
  4309					O31600:	REPEAT	^D10,<
  4310					SN=SN+1
  4311						XX=XX+XX
  4312						ZZ=ZZ+ZZ
  4313						IFE	ZZ,<ZZ=1>
  4314						HRLI	AC-2,200400	;SETUP AC-2
  4315						HRRI	AC-2,XX		;FOR COMPARISON
  4316						HRLI	AC,200200	;SETUP
  4317						HRRI	AC,ZZ		;AC
  4318						MOVEM	AC,AC-1		;SETUP BR
  4319						FAD	AC,AC-1		;C(AC)+C(E)
  4320						CAME	AC,AC-2		;TEST SUM
  4321						ER3	AC,SN		;FAD FAILED
  4322						JUMPL	AC+2,.-^D8	;LOOP ON ERROR SWITCH
  4323					>
  4324
  4325			031601		SN=SN+1
  4326			000002			XX=XX+XX
  4327			000000			ZZ=ZZ+ZZ
  4328			000001			IFE	ZZ,<ZZ=1>
  4329	034267	505 12 0 00 200400 		HRLI	AC-2,200400	;SETUP AC-2
  4330	034270	541 12 0 00 000002 		HRRI	AC-2,XX		;FOR COMPARISON
  4331	034271	505 14 0 00 200200 		HRLI	AC,200200	;SETUP
  4332	034272	541 14 0 00 000001 		HRRI	AC,ZZ		;AC
  4333	034273	202 14 0 00 000013 		MOVEM	AC,AC-1		;SETUP BR
  4334	034274	140 14 0 00 000013 		FAD	AC,AC-1		;C(AC)+C(E)
  4335	034275	312 14 0 00 000012 		CAME	AC,AC-2		;TEST SUM
  4336	034276	003 14 0 00 031601 		ER3	AC,SN		;FAD FAILED
  4337	034277	321 16 0 00 034267 		JUMPL	AC+2,.-^D8	;LOOP ON ERROR SWITCH
  4338
  4339
  4340			031602		SN=SN+1
  4341			000004			XX=XX+XX
  4342			000002			ZZ=ZZ+ZZ
  4343						IFE	ZZ,<ZZ=1>
  4344	034300	505 12 0 00 200400 		HRLI	AC-2,200400	;SETUP AC-2
  4345	034301	541 12 0 00 000004 		HRRI	AC-2,XX		;FOR COMPARISONDBKCA	PDP-10 KI10 ADVANCED INSTRUCTION DIAGNOSTIC #1, VERSION 0,3 	MACRO %52(462) 10:44  9-AUG-76 PAGE 58-1
DBKCAM	MAC	26-MAY-76 16:51		PART I.E-GEN TEST-FSC,FAD,FSB AND UFA                                              SEQ 0117

  4346	034302	505 14 0 00 200200 		HRLI	AC,200200	;SETUP
  4347	034303	541 14 0 00 000002 		HRRI	AC,ZZ		;AC
  4348	034304	202 14 0 00 000013 		MOVEM	AC,AC-1		;SETUP BR
  4349	034305	140 14 0 00 000013 		FAD	AC,AC-1		;C(AC)+C(E)
  4350	034306	312 14 0 00 000012 		CAME	AC,AC-2		;TEST SUM
  4351	034307	003 14 0 00 031602 		ER3	AC,SN		;FAD FAILED
  4352	034310	321 16 0 00 034300 		JUMPL	AC+2,.-^D8	;LOOP ON ERROR SWITCH
  4353
  4354
  4355			031603		SN=SN+1
  4356			000010			XX=XX+XX
  4357			000004			ZZ=ZZ+ZZ
  4358						IFE	ZZ,<ZZ=1>
  4359	034311	505 12 0 00 200400 		HRLI	AC-2,200400	;SETUP AC-2
  4360	034312	541 12 0 00 000010 		HRRI	AC-2,XX		;FOR COMPARISON
  4361	034313	505 14 0 00 200200 		HRLI	AC,200200	;SETUP
  4362	034314	541 14 0 00 000004 		HRRI	AC,ZZ		;AC
  4363	034315	202 14 0 00 000013 		MOVEM	AC,AC-1		;SETUP BR
  4364	034316	140 14 0 00 000013 		FAD	AC,AC-1		;C(AC)+C(E)
  4365	034317	312 14 0 00 000012 		CAME	AC,AC-2		;TEST SUM
  4366	034320	003 14 0 00 031603 		ER3	AC,SN		;FAD FAILED
  4367	034321	321 16 0 00 034311 		JUMPL	AC+2,.-^D8	;LOOP ON ERROR SWITCH
  4368
  4369
  4370			031604		SN=SN+1
  4371			000020			XX=XX+XX
  4372			000010			ZZ=ZZ+ZZ
  4373						IFE	ZZ,<ZZ=1>
  4374	034322	505 12 0 00 200400 		HRLI	AC-2,200400	;SETUP AC-2
  4375	034323	541 12 0 00 000020 		HRRI	AC-2,XX		;FOR COMPARISON
  4376	034324	505 14 0 00 200200 		HRLI	AC,200200	;SETUP
  4377	034325	541 14 0 00 000010 		HRRI	AC,ZZ		;AC
  4378	034326	202 14 0 00 000013 		MOVEM	AC,AC-1		;SETUP BR
  4379	034327	140 14 0 00 000013 		FAD	AC,AC-1		;C(AC)+C(E)
  4380	034330	312 14 0 00 000012 		CAME	AC,AC-2		;TEST SUM
  4381	034331	003 14 0 00 031604 		ER3	AC,SN		;FAD FAILED
  4382	034332	321 16 0 00 034322 		JUMPL	AC+2,.-^D8	;LOOP ON ERROR SWITCH
  4383
  4384
  4385			031605		SN=SN+1
  4386			000040			XX=XX+XX
  4387			000020			ZZ=ZZ+ZZ
  4388						IFE	ZZ,<ZZ=1>
  4389	034333	505 12 0 00 200400 		HRLI	AC-2,200400	;SETUP AC-2
  4390	034334	541 12 0 00 000040 		HRRI	AC-2,XX		;FOR COMPARISON
  4391	034335	505 14 0 00 200200 		HRLI	AC,200200	;SETUP
  4392	034336	541 14 0 00 000020 		HRRI	AC,ZZ		;AC
  4393	034337	202 14 0 00 000013 		MOVEM	AC,AC-1		;SETUP BR
  4394	034340	140 14 0 00 000013 		FAD	AC,AC-1		;C(AC)+C(E)
  4395	034341	312 14 0 00 000012 		CAME	AC,AC-2		;TEST SUM
  4396	034342	003 14 0 00 031605 		ER3	AC,SN		;FAD FAILED
  4397	034343	321 16 0 00 034333 		JUMPL	AC+2,.-^D8	;LOOP ON ERROR SWITCH
  4398
  4399
  4400			031606		SN=SN+1DBKCA	PDP-10 KI10 ADVANCED INSTRUCTION DIAGNOSTIC #1, VERSION 0,3 	MACRO %52(462) 10:44  9-AUG-76 PAGE 58-2
DBKCAM	MAC	26-MAY-76 16:51		PART I.E-GEN TEST-FSC,FAD,FSB AND UFA                                              SEQ 0118

  4401			000100			XX=XX+XX
  4402			000040			ZZ=ZZ+ZZ
  4403						IFE	ZZ,<ZZ=1>
  4404	034344	505 12 0 00 200400 		HRLI	AC-2,200400	;SETUP AC-2
  4405	034345	541 12 0 00 000100 		HRRI	AC-2,XX		;FOR COMPARISON
  4406	034346	505 14 0 00 200200 		HRLI	AC,200200	;SETUP
  4407	034347	541 14 0 00 000040 		HRRI	AC,ZZ		;AC
  4408	034350	202 14 0 00 000013 		MOVEM	AC,AC-1		;SETUP BR
  4409	034351	140 14 0 00 000013 		FAD	AC,AC-1		;C(AC)+C(E)
  4410	034352	312 14 0 00 000012 		CAME	AC,AC-2		;TEST SUM
  4411	034353	003 14 0 00 031606 		ER3	AC,SN		;FAD FAILED
  4412	034354	321 16 0 00 034344 		JUMPL	AC+2,.-^D8	;LOOP ON ERROR SWITCH
  4413
  4414
  4415			031607		SN=SN+1
  4416			000200			XX=XX+XX
  4417			000100			ZZ=ZZ+ZZ
  4418						IFE	ZZ,<ZZ=1>
  4419	034355	505 12 0 00 200400 		HRLI	AC-2,200400	;SETUP AC-2
  4420	034356	541 12 0 00 000200 		HRRI	AC-2,XX		;FOR COMPARISON
  4421	034357	505 14 0 00 200200 		HRLI	AC,200200	;SETUP
  4422	034360	541 14 0 00 000100 		HRRI	AC,ZZ		;AC
  4423	034361	202 14 0 00 000013 		MOVEM	AC,AC-1		;SETUP BR
  4424	034362	140 14 0 00 000013 		FAD	AC,AC-1		;C(AC)+C(E)
  4425	034363	312 14 0 00 000012 		CAME	AC,AC-2		;TEST SUM
  4426	034364	003 14 0 00 031607 		ER3	AC,SN		;FAD FAILED
  4427	034365	321 16 0 00 034355 		JUMPL	AC+2,.-^D8	;LOOP ON ERROR SWITCH
  4428
  4429
  4430			031610		SN=SN+1
  4431			000400			XX=XX+XX
  4432			000200			ZZ=ZZ+ZZ
  4433						IFE	ZZ,<ZZ=1>
  4434	034366	505 12 0 00 200400 		HRLI	AC-2,200400	;SETUP AC-2
  4435	034367	541 12 0 00 000400 		HRRI	AC-2,XX		;FOR COMPARISON
  4436	034370	505 14 0 00 200200 		HRLI	AC,200200	;SETUP
  4437	034371	541 14 0 00 000200 		HRRI	AC,ZZ		;AC
  4438	034372	202 14 0 00 000013 		MOVEM	AC,AC-1		;SETUP BR
  4439	034373	140 14 0 00 000013 		FAD	AC,AC-1		;C(AC)+C(E)
  4440	034374	312 14 0 00 000012 		CAME	AC,AC-2		;TEST SUM
  4441	034375	003 14 0 00 031610 		ER3	AC,SN		;FAD FAILED
  4442	034376	321 16 0 00 034366 		JUMPL	AC+2,.-^D8	;LOOP ON ERROR SWITCH
  4443
  4444
  4445			031611		SN=SN+1
  4446			001000			XX=XX+XX
  4447			000400			ZZ=ZZ+ZZ
  4448						IFE	ZZ,<ZZ=1>
  4449	034377	505 12 0 00 200400 		HRLI	AC-2,200400	;SETUP AC-2
  4450	034400	541 12 0 00 001000 		HRRI	AC-2,XX		;FOR COMPARISON
  4451	034401	505 14 0 00 200200 		HRLI	AC,200200	;SETUP
  4452	034402	541 14 0 00 000400 		HRRI	AC,ZZ		;AC
  4453	034403	202 14 0 00 000013 		MOVEM	AC,AC-1		;SETUP BR
  4454	034404	140 14 0 00 000013 		FAD	AC,AC-1		;C(AC)+C(E)
  4455	034405	312 14 0 00 000012 		CAME	AC,AC-2		;TEST SUMDBKCA	PDP-10 KI10 ADVANCED INSTRUCTION DIAGNOSTIC #1, VERSION 0,3 	MACRO %52(462) 10:44  9-AUG-76 PAGE 58-3
DBKCAM	MAC	26-MAY-76 16:51		PART I.E-GEN TEST-FSC,FAD,FSB AND UFA                                              SEQ 0119

  4456	034406	003 14 0 00 031611 		ER3	AC,SN		;FAD FAILED
  4457	034407	321 16 0 00 034377 		JUMPL	AC+2,.-^D8	;LOOP ON ERROR SWITCH
  4458
  4459
  4460			031612		SN=SN+1
  4461			002000			XX=XX+XX
  4462			001000			ZZ=ZZ+ZZ
  4463						IFE	ZZ,<ZZ=1>
  4464	034410	505 12 0 00 200400 		HRLI	AC-2,200400	;SETUP AC-2
  4465	034411	541 12 0 00 002000 		HRRI	AC-2,XX		;FOR COMPARISON
  4466	034412	505 14 0 00 200200 		HRLI	AC,200200	;SETUP
  4467	034413	541 14 0 00 001000 		HRRI	AC,ZZ		;AC
  4468	034414	202 14 0 00 000013 		MOVEM	AC,AC-1		;SETUP BR
  4469	034415	140 14 0 00 000013 		FAD	AC,AC-1		;C(AC)+C(E)
  4470	034416	312 14 0 00 000012 		CAME	AC,AC-2		;TEST SUM
  4471	034417	003 14 0 00 031612 		ER3	AC,SN		;FAD FAILED
  4472	034420	321 16 0 00 034410 		JUMPL	AC+2,.-^D8	;LOOP ON ERROR SWITCH
  4473
  4474					PAGEDBKCA	PDP-10 KI10 ADVANCED INSTRUCTION DIAGNOSTIC #1, VERSION 0,3 	MACRO %52(462) 10:44  9-AUG-76 PAGE 58-4
DBKCAM	MAC	26-MAY-76 16:51		PART I.E-GEN TEST-FSC,FAD,FSB AND UFA                                              SEQ 0120

  4475					;TEST FAD
  4476					;TWO POSITIVES
  4477					;AR=1/4,1/8,1/16,1/32,1/64,1/128
  4478					;BR=201400000000 (+1)
  4479					;SUMS=1 1/4, 1 1/8, 1 1/16, 1 1/32, 1 1/64, 1 1/128
  4480
  4481			000014			AC=14
  4482						SAVEAC	(1,1)^
  4483	034421	201 16 0 00 034421 		MOVEI	AC+2,.
  4484	034422	202 16 0 00 030051 		MOVEM	AC+2,TESTPC	;SETUP SUBTEST PC
  4485	034423	201 16 0 00 000016 		MOVEI	AC+2,<AC+2>&17	;INFORM ERROR ROUTINE WHICH
  4486	034424	202 16 0 00 040261 		MOVEM	AC+2,ERRLOP#	;AC IS USED FOR ITERATION^
  4487
  4488			031700		SN=31700
  4489			171400			XX=171400
  4490			000001			ZZ=1
  4491
  4492							;TEST FAD
  4493					O31700:	REPEAT	^D6,<
  4494					SN=SN+1
  4495						XX=XX+1000
  4496						ZZ=ZZ+ZZ
  4497						MOVSI	AC-2,201400+ZZ	;SETUP FOR COMPARISON
  4498						MOVSI	AC,XX		;SETUP AC
  4499						MOVSI	AC-1,201400	;SETUP BR
  4500						FAD	AC,AC-1		;C (AC)+C(E)
  4501						CAME	AC,AC-2		;TEST RESULT
  4502						ER3	AC,SN		;FAD FAILED
  4503						JUMPL	AC+2,.-6	;LOOP ON ERROR SWITCH
  4504					>
  4505
  4506			031701		SN=SN+1
  4507			172400			XX=XX+1000
  4508			000002			ZZ=ZZ+ZZ
  4509	034425	205 12 0 00 201402 		MOVSI	AC-2,201400+ZZ	;SETUP FOR COMPARISON
  4510	034426	205 14 0 00 172400 		MOVSI	AC,XX		;SETUP AC
  4511	034427	205 13 0 00 201400 		MOVSI	AC-1,201400	;SETUP BR
  4512	034430	140 14 0 00 000013 		FAD	AC,AC-1		;C (AC)+C(E)
  4513	034431	312 14 0 00 000012 		CAME	AC,AC-2		;TEST RESULT
  4514	034432	003 14 0 00 031701 		ER3	AC,SN		;FAD FAILED
  4515	034433	321 16 0 00 034425 		JUMPL	AC+2,.-6	;LOOP ON ERROR SWITCH
  4516
  4517
  4518			031702		SN=SN+1
  4519			173400			XX=XX+1000
  4520			000004			ZZ=ZZ+ZZ
  4521	034434	205 12 0 00 201404 		MOVSI	AC-2,201400+ZZ	;SETUP FOR COMPARISON
  4522	034435	205 14 0 00 173400 		MOVSI	AC,XX		;SETUP AC
  4523	034436	205 13 0 00 201400 		MOVSI	AC-1,201400	;SETUP BR
  4524	034437	140 14 0 00 000013 		FAD	AC,AC-1		;C (AC)+C(E)
  4525	034440	312 14 0 00 000012 		CAME	AC,AC-2		;TEST RESULT
  4526	034441	003 14 0 00 031702 		ER3	AC,SN		;FAD FAILED
  4527	034442	321 16 0 00 034434 		JUMPL	AC+2,.-6	;LOOP ON ERROR SWITCH
  4528
  4529DBKCA	PDP-10 KI10 ADVANCED INSTRUCTION DIAGNOSTIC #1, VERSION 0,3 	MACRO %52(462) 10:44  9-AUG-76 PAGE 58-5
DBKCAM	MAC	26-MAY-76 16:51		PART I.E-GEN TEST-FSC,FAD,FSB AND UFA                                              SEQ 0121

  4530			031703		SN=SN+1
  4531			174400			XX=XX+1000
  4532			000010			ZZ=ZZ+ZZ
  4533	034443	205 12 0 00 201410 		MOVSI	AC-2,201400+ZZ	;SETUP FOR COMPARISON
  4534	034444	205 14 0 00 174400 		MOVSI	AC,XX		;SETUP AC
  4535	034445	205 13 0 00 201400 		MOVSI	AC-1,201400	;SETUP BR
  4536	034446	140 14 0 00 000013 		FAD	AC,AC-1		;C (AC)+C(E)
  4537	034447	312 14 0 00 000012 		CAME	AC,AC-2		;TEST RESULT
  4538	034450	003 14 0 00 031703 		ER3	AC,SN		;FAD FAILED
  4539	034451	321 16 0 00 034443 		JUMPL	AC+2,.-6	;LOOP ON ERROR SWITCH
  4540
  4541
  4542			031704		SN=SN+1
  4543			175400			XX=XX+1000
  4544			000020			ZZ=ZZ+ZZ
  4545	034452	205 12 0 00 201420 		MOVSI	AC-2,201400+ZZ	;SETUP FOR COMPARISON
  4546	034453	205 14 0 00 175400 		MOVSI	AC,XX		;SETUP AC
  4547	034454	205 13 0 00 201400 		MOVSI	AC-1,201400	;SETUP BR
  4548	034455	140 14 0 00 000013 		FAD	AC,AC-1		;C (AC)+C(E)
  4549	034456	312 14 0 00 000012 		CAME	AC,AC-2		;TEST RESULT
  4550	034457	003 14 0 00 031704 		ER3	AC,SN		;FAD FAILED
  4551	034460	321 16 0 00 034452 		JUMPL	AC+2,.-6	;LOOP ON ERROR SWITCH
  4552
  4553
  4554			031705		SN=SN+1
  4555			176400			XX=XX+1000
  4556			000040			ZZ=ZZ+ZZ
  4557	034461	205 12 0 00 201440 		MOVSI	AC-2,201400+ZZ	;SETUP FOR COMPARISON
  4558	034462	205 14 0 00 176400 		MOVSI	AC,XX		;SETUP AC
  4559	034463	205 13 0 00 201400 		MOVSI	AC-1,201400	;SETUP BR
  4560	034464	140 14 0 00 000013 		FAD	AC,AC-1		;C (AC)+C(E)
  4561	034465	312 14 0 00 000012 		CAME	AC,AC-2		;TEST RESULT
  4562	034466	003 14 0 00 031705 		ER3	AC,SN		;FAD FAILED
  4563	034467	321 16 0 00 034461 		JUMPL	AC+2,.-6	;LOOP ON ERROR SWITCH
  4564
  4565
  4566			031706		SN=SN+1
  4567			177400			XX=XX+1000
  4568			000100			ZZ=ZZ+ZZ
  4569	034470	205 12 0 00 201500 		MOVSI	AC-2,201400+ZZ	;SETUP FOR COMPARISON
  4570	034471	205 14 0 00 177400 		MOVSI	AC,XX		;SETUP AC
  4571	034472	205 13 0 00 201400 		MOVSI	AC-1,201400	;SETUP BR
  4572	034473	140 14 0 00 000013 		FAD	AC,AC-1		;C (AC)+C(E)
  4573	034474	312 14 0 00 000012 		CAME	AC,AC-2		;TEST RESULT
  4574	034475	003 14 0 00 031706 		ER3	AC,SN		;FAD FAILED
  4575	034476	321 16 0 00 034470 		JUMPL	AC+2,.-6	;LOOP ON ERROR SWITCH
  4576DBKCA	PDP-10 KI10 ADVANCED INSTRUCTION DIAGNOSTIC #1, VERSION 0,3 	MACRO %52(462) 10:44  9-AUG-76 PAGE 59
DBKCAM	MAC	26-MAY-76 16:51		PART I.E-GEN TEST-FSC,FAD,FSB AND UFA                                              SEQ 0122

  4577					;TEST FAD
  4578					;TWO POSITIVES-LARGER EXPONENT IN AC
  4579					;AR=202.6 (3), 202.4 (2),201.4(1)
  4580					;BR=200.4 (+1/2)
  4581					;SUMS=202.7, 202.5, 201.6
  4582
  4583			000013			AC=13
  4584						SAVEAC	(1,1)^
  4585	034477	201 15 0 00 034477 		MOVEI	AC+2,.
  4586	034500	202 15 0 00 030051 		MOVEM	AC+2,TESTPC	;SETUP SUBTEST PC
  4587	034501	201 15 0 00 000015 		MOVEI	AC+2,<AC+2>&17	;INFORM ERROR ROUTINE WHICH
  4588	034502	202 15 0 00 040261 		MOVEM	AC+2,ERRLOP#	;AC IS USED FOR ITERATION^
  4589
  4590	034503	205 11 0 00 202700 	O32000:	MOVSI	AC-2,202700	;SETUP FOR COMPARISON
  4591	034504	205 13 0 00 202600 		MOVSI	AC,202600	;SETUP AC
  4592	034505	205 12 0 00 200400 		MOVSI	AC-1,200400	;SETUP BR
  4593	034506	140 13 0 00 000012 		FAD	AC,AC-1		;C(AC)+C(E)
  4594	034507	312 13 0 00 000011 		CAME	AC,AC-2		;TEST SUM
  4595	034510	003 13 0 00 032001 		ER3	AC,32001	;FAD FAILED
  4596	034511	321 15 0 00 034503 		JUMPL	AC+2,O32000	;LOOP ON ERROR SWITCH
  4597
  4598	034512	205 11 0 00 202500 	O32100:	MOVSI	AC-2,202500	;SETUP FOR COMPARISON
  4599	034513	205 13 0 00 202400 		MOVSI	AC,202400	;SETUP AC
  4600	034514	205 12 0 00 200400 		MOVSI	AC-1,200400	;SETUP BR
  4601	034515	140 13 0 00 000012 		FAD	AC,AC-1		;C(AC)+C(E)
  4602	034516	312 13 0 00 000011 		CAME	AC,AC-2		;TEST SUM
  4603	034517	003 13 0 00 032101 		ER3	AC,32101	;FAD FAILED
  4604	034520	321 15 0 00 034512 		JUMPL	AC+2,O32100	;LOOP ON ERROR SWITCH
  4605
  4606	034521	205 11 0 00 201600 	O32200:	MOVSI	AC-2,201600	;SETUP FOR COMPARISON
  4607	034522	205 13 0 00 201400 		MOVSI	AC,201400	;SETUP AC
  4608	034523	205 12 0 00 200400 		MOVSI	AC-1,200400	;SETUP BR
  4609	034524	140 13 0 00 000012 		FAD	AC,AC-1		;C(AC) +C(E)
  4610	034525	312 13 0 00 000011 		CAME	AC,AC-2		;TEST SUM
  4611	034526	003 13 0 00 032201 		ER3	AC,32201	;FAD FAILED
  4612	034527	321 15 0 00 034521 		JUMPL	AC+2,O32200	;LOOP ON ERROR SWITCHDBKCA	PDP-10 KI10 ADVANCED INSTRUCTION DIAGNOSTIC #1, VERSION 0,3 	MACRO %52(462) 10:44  9-AUG-76 PAGE 60
DBKCAM	MAC	26-MAY-76 16:51		PART I.E-GEN TEST-FSC,FAD,FSB AND UFA                                              SEQ 0123

  4613					;TEST FAD
  4614					;TWO POSITIVES
  4615					;EXCESSIVE SHIFT COND
  4616					;AR=000400000000
  4617					;BR=200.4,201.4,202.4
  4618
  4619			000012			AC=12
  4620						SAVEAC	(1,1)^
  4621	034530	201 14 0 00 034530 		MOVEI	AC+2,.
  4622	034531	202 14 0 00 030051 		MOVEM	AC+2,TESTPC	;SETUP SUBTEST PC
  4623	034532	201 14 0 00 000014 		MOVEI	AC+2,<AC+2>&17	;INFORM ERROR ROUTINE WHICH
  4624	034533	202 14 0 00 040261 		MOVEM	AC+2,ERRLOP#	;AC IS USED FOR ITERATION^
  4625
  4626			032300		SN=32300
  4627			177400			ZZ=177400
  4628
  4629							;TEST FAD EXCESSIVE SHIFT
  4630					O32300:	REPEAT	^D3,<
  4631					SN=SN+1
  4632						ZZ=ZZ+1000
  4633						MOVSI	AC,400		;SETUP AC
  4634						MOVSI	AC-1,ZZ		;SETUP BR
  4635						FAD	AC,AC-1		;C(AC) + C(E)
  4636						CAME	AC,AC-1		;TEST SUM
  4637						ER3	AC,SN		;FAD FAILED
  4638						JUMPL	AC+2,.-5	;LOOP ON ERROR SWITCH
  4639					>
  4640
  4641			032301		SN=SN+1
  4642			200400			ZZ=ZZ+1000
  4643	034534	205 12 0 00 000400 		MOVSI	AC,400		;SETUP AC
  4644	034535	205 11 0 00 200400 		MOVSI	AC-1,ZZ		;SETUP BR
  4645	034536	140 12 0 00 000011 		FAD	AC,AC-1		;C(AC) + C(E)
  4646	034537	312 12 0 00 000011 		CAME	AC,AC-1		;TEST SUM
  4647	034540	003 12 0 00 032301 		ER3	AC,SN		;FAD FAILED
  4648	034541	321 14 0 00 034534 		JUMPL	AC+2,.-5	;LOOP ON ERROR SWITCH
  4649
  4650
  4651			032302		SN=SN+1
  4652			201400			ZZ=ZZ+1000
  4653	034542	205 12 0 00 000400 		MOVSI	AC,400		;SETUP AC
  4654	034543	205 11 0 00 201400 		MOVSI	AC-1,ZZ		;SETUP BR
  4655	034544	140 12 0 00 000011 		FAD	AC,AC-1		;C(AC) + C(E)
  4656	034545	312 12 0 00 000011 		CAME	AC,AC-1		;TEST SUM
  4657	034546	003 12 0 00 032302 		ER3	AC,SN		;FAD FAILED
  4658	034547	321 14 0 00 034542 		JUMPL	AC+2,.-5	;LOOP ON ERROR SWITCH
  4659
  4660
  4661			032303		SN=SN+1
  4662			202400			ZZ=ZZ+1000
  4663	034550	205 12 0 00 000400 		MOVSI	AC,400		;SETUP AC
  4664	034551	205 11 0 00 202400 		MOVSI	AC-1,ZZ		;SETUP BR
  4665	034552	140 12 0 00 000011 		FAD	AC,AC-1		;C(AC) + C(E)
  4666	034553	312 12 0 00 000011 		CAME	AC,AC-1		;TEST SUM
  4667	034554	003 12 0 00 032303 		ER3	AC,SN		;FAD FAILEDDBKCA	PDP-10 KI10 ADVANCED INSTRUCTION DIAGNOSTIC #1, VERSION 0,3 	MACRO %52(462) 10:44  9-AUG-76 PAGE 60-1
DBKCAM	MAC	26-MAY-76 16:51		PART I.E-GEN TEST-FSC,FAD,FSB AND UFA                                              SEQ 0124

  4668	034555	321 14 0 00 034550 		JUMPL	AC+2,.-5	;LOOP ON ERROR SWITCH
  4669
  4670					PAGEDBKCA	PDP-10 KI10 ADVANCED INSTRUCTION DIAGNOSTIC #1, VERSION 0,3 	MACRO %52(462) 10:44  9-AUG-76 PAGE 60-2
DBKCAM	MAC	26-MAY-76 16:51		PART I.E-GEN TEST-FSC,FAD,FSB AND UFA                                              SEQ 0125

  4671					;TEST FAD
  4672					;NR ALL ZERO COND
  4673					;AR=200000000000
  4674					;BR EXPONENT=201,202,203
  4675					;SUM=0
  4676
  4677			000011			AC=11
  4678						SAVEAC	(1,1)^
  4679	034556	201 13 0 00 034556 		MOVEI	AC+2,.
  4680	034557	202 13 0 00 030051 		MOVEM	AC+2,TESTPC	;SETUP SUBTEST PC
  4681	034560	201 13 0 00 000013 		MOVEI	AC+2,<AC+2>&17	;INFORM ERROR ROUTINE WHICH
  4682	034561	202 13 0 00 040261 		MOVEM	AC+2,ERRLOP#	;AC IS USED FOR ITERATION^
  4683
  4684			032400		SN=32400
  4685			200000			ZZ=200000
  4686
  4687							;TEST FAD NR ALL ZERO
  4688					O32400:	REPEAT	^D3,<
  4689					SN=SN+1
  4690						ZZ=ZZ+1000
  4691						MOVSI	AC,200000	;SETUP AC
  4692						MOVSI	AC-1,ZZ		;SETUP BR
  4693						FAD	AC,AC-1		;C(AC)+C(E)
  4694						SKIPE	AC		;TEST SUM
  4695						ER3	AC,SN		;FAD FAILED
  4696						JUMPL	AC+2,.-5	;LOOP ON ERROR SWITCH
  4697					>
  4698
  4699			032401		SN=SN+1
  4700			201000			ZZ=ZZ+1000
  4701	034562	205 11 0 00 200000 		MOVSI	AC,200000	;SETUP AC
  4702	034563	205 10 0 00 201000 		MOVSI	AC-1,ZZ		;SETUP BR
  4703	034564	140 11 0 00 000010 		FAD	AC,AC-1		;C(AC)+C(E)
  4704	034565	332 00 0 00 000011 		SKIPE	AC		;TEST SUM
  4705	034566	003 11 0 00 032401 		ER3	AC,SN		;FAD FAILED
  4706	034567	321 13 0 00 034562 		JUMPL	AC+2,.-5	;LOOP ON ERROR SWITCH
  4707
  4708
  4709			032402		SN=SN+1
  4710			202000			ZZ=ZZ+1000
  4711	034570	205 11 0 00 200000 		MOVSI	AC,200000	;SETUP AC
  4712	034571	205 10 0 00 202000 		MOVSI	AC-1,ZZ		;SETUP BR
  4713	034572	140 11 0 00 000010 		FAD	AC,AC-1		;C(AC)+C(E)
  4714	034573	332 00 0 00 000011 		SKIPE	AC		;TEST SUM
  4715	034574	003 11 0 00 032402 		ER3	AC,SN		;FAD FAILED
  4716	034575	321 13 0 00 034570 		JUMPL	AC+2,.-5	;LOOP ON ERROR SWITCH
  4717
  4718
  4719			032403		SN=SN+1
  4720			203000			ZZ=ZZ+1000
  4721	034576	205 11 0 00 200000 		MOVSI	AC,200000	;SETUP AC
  4722	034577	205 10 0 00 203000 		MOVSI	AC-1,ZZ		;SETUP BR
  4723	034600	140 11 0 00 000010 		FAD	AC,AC-1		;C(AC)+C(E)
  4724	034601	332 00 0 00 000011 		SKIPE	AC		;TEST SUM
  4725	034602	003 11 0 00 032403 		ER3	AC,SN		;FAD FAILEDDBKCA	PDP-10 KI10 ADVANCED INSTRUCTION DIAGNOSTIC #1, VERSION 0,3 	MACRO %52(462) 10:44  9-AUG-76 PAGE 60-3
DBKCAM	MAC	26-MAY-76 16:51		PART I.E-GEN TEST-FSC,FAD,FSB AND UFA                                              SEQ 0126

  4726	034603	321 13 0 00 034576 		JUMPL	AC+2,.-5	;LOOP ON ERROR SWITCH
  4727DBKCA	PDP-10 KI10 ADVANCED INSTRUCTION DIAGNOSTIC #1, VERSION 0,3 	MACRO %52(462) 10:44  9-AUG-76 PAGE 61
DBKCAM	MAC	26-MAY-76 16:51		PART I.E-GEN TEST-FSC,FAD,FSB AND UFA                                              SEQ 0127

  4728					;TEST FAD
  4729					;TWO POSITIVES
  4730					;NRSHRT COND
  4731					;AR=200.4 (1/2), 201.4 (+1), 202.4 (+2)
  4732					;BR=(SAME AS AR)
  4733					;SUMS=201.4, 202.4, 203.4
  4734
  4735			000010			AC=10
  4736						SAVEAC	(1,1)^
  4737	034604	201 12 0 00 034604 		MOVEI	AC+2,.
  4738	034605	202 12 0 00 030051 		MOVEM	AC+2,TESTPC	;SETUP SUBTEST PC
  4739	034606	201 12 0 00 000012 		MOVEI	AC+2,<AC+2>&17	;INFORM ERROR ROUTINE WHICH
  4740	034607	202 12 0 00 040261 		MOVEM	AC+2,ERRLOP#	;AC IS USED FOR ITERATION^
  4741
  4742			032500		SN=32500
  4743			200400			XX=200400
  4744			177400			ZZ=177400
  4745
  4746							;TEST FAD NRSHRT
  4747					O32500:	REPEAT	^D3,<
  4748					SN=SN+1
  4749						XX=XX+1000
  4750						ZZ=ZZ+1000
  4751						MOVSI	AC-2,XX		;SETUP FOR COMPARISON
  4752						MOVSI	AC,ZZ		;SETUP AC
  4753						MOVSI	AC-1,ZZ		;SETUP BR
  4754						FAD	AC,AC-1		;C(AC)+C(E)
  4755						CAME	AC,AC-2		;TEST SUM
  4756						ER3	AC,SN		;FAD FAILED
  4757						JUMPL	AC+2,.-6	;LOOP ON ERROR SWITCH
  4758					>
  4759
  4760			032501		SN=SN+1
  4761			201400			XX=XX+1000
  4762			200400			ZZ=ZZ+1000
  4763	034610	205 06 0 00 201400 		MOVSI	AC-2,XX		;SETUP FOR COMPARISON
  4764	034611	205 10 0 00 200400 		MOVSI	AC,ZZ		;SETUP AC
  4765	034612	205 07 0 00 200400 		MOVSI	AC-1,ZZ		;SETUP BR
  4766	034613	140 10 0 00 000007 		FAD	AC,AC-1		;C(AC)+C(E)
  4767	034614	312 10 0 00 000006 		CAME	AC,AC-2		;TEST SUM
  4768	034615	003 10 0 00 032501 		ER3	AC,SN		;FAD FAILED
  4769	034616	321 12 0 00 034610 		JUMPL	AC+2,.-6	;LOOP ON ERROR SWITCH
  4770
  4771
  4772			032502		SN=SN+1
  4773			202400			XX=XX+1000
  4774			201400			ZZ=ZZ+1000
  4775	034617	205 06 0 00 202400 		MOVSI	AC-2,XX		;SETUP FOR COMPARISON
  4776	034620	205 10 0 00 201400 		MOVSI	AC,ZZ		;SETUP AC
  4777	034621	205 07 0 00 201400 		MOVSI	AC-1,ZZ		;SETUP BR
  4778	034622	140 10 0 00 000007 		FAD	AC,AC-1		;C(AC)+C(E)
  4779	034623	312 10 0 00 000006 		CAME	AC,AC-2		;TEST SUM
  4780	034624	003 10 0 00 032502 		ER3	AC,SN		;FAD FAILED
  4781	034625	321 12 0 00 034617 		JUMPL	AC+2,.-6	;LOOP ON ERROR SWITCH
  4782DBKCA	PDP-10 KI10 ADVANCED INSTRUCTION DIAGNOSTIC #1, VERSION 0,3 	MACRO %52(462) 10:44  9-AUG-76 PAGE 61-1
DBKCAM	MAC	26-MAY-76 16:51		PART I.E-GEN TEST-FSC,FAD,FSB AND UFA                                              SEQ 0128

  4783
  4784			032503		SN=SN+1
  4785			203400			XX=XX+1000
  4786			202400			ZZ=ZZ+1000
  4787	034626	205 06 0 00 203400 		MOVSI	AC-2,XX		;SETUP FOR COMPARISON
  4788	034627	205 10 0 00 202400 		MOVSI	AC,ZZ		;SETUP AC
  4789	034630	205 07 0 00 202400 		MOVSI	AC-1,ZZ		;SETUP BR
  4790	034631	140 10 0 00 000007 		FAD	AC,AC-1		;C(AC)+C(E)
  4791	034632	312 10 0 00 000006 		CAME	AC,AC-2		;TEST SUM
  4792	034633	003 10 0 00 032503 		ER3	AC,SN		;FAD FAILED
  4793	034634	321 12 0 00 034626 		JUMPL	AC+2,.-6	;LOOP ON ERROR SWITCH
  4794
  4795					PAGEDBKCA	PDP-10 KI10 ADVANCED INSTRUCTION DIAGNOSTIC #1, VERSION 0,3 	MACRO %52(462) 10:44  9-AUG-76 PAGE 61-2
DBKCAM	MAC	26-MAY-76 16:51		PART I.E-GEN TEST-FSC,FAD,FSB AND UFA                                              SEQ 0129

  4796					;TEST FAD
  4797					;TWO POSITIVES NR NORMAL
  4798					;AR=200.1, 200.04, 200.02
  4799					;BR=AR
  4800					;SUMS=177.4, 176.4, 175.4
  4801
  4802			000007			AC=7
  4803						SAVEAC	(1,1)^
  4804	034635	201 11 0 00 034635 		MOVEI	AC+2,.
  4805	034636	202 11 0 00 030051 		MOVEM	AC+2,TESTPC	;SETUP SUBTEST PC
  4806	034637	201 11 0 00 000011 		MOVEI	AC+2,<AC+2>&17	;INFORM ERROR ROUTINE WHICH
  4807	034640	202 11 0 00 040261 		MOVEM	AC+2,ERRLOP#	;AC IS USED FOR ITERATION^
  4808
  4809			032600		SN=32600
  4810			200400			XX=200400
  4811			000200			ZZ=200
  4812
  4813							;TEST FAD NR NORMAL
  4814					O32600:	REPEAT	^D3,<
  4815					SN=SN+1
  4816						XX=XX-1000
  4817						ZZ=ZZ/2
  4818						MOVSI	AC-2,XX		;SETUP FOR COMPARISON
  4819						MOVSI	AC,200000+ZZ	;SETUP AC
  4820						MOVSI	AC-1,200000+ZZ	;SETUP BR
  4821						FAD	AC,AC-1		;C(AC)+C(E)
  4822						CAME	AC,AC-2		;TEST SUM
  4823						ER3	AC,SN		;FAD FAILED
  4824						JUMPL	AC+2,.-6	;LOOP ON ERROR SWITCH
  4825					>
  4826
  4827			032601		SN=SN+1
  4828			177400			XX=XX-1000
  4829			000100			ZZ=ZZ/2
  4830	034641	205 05 0 00 177400 		MOVSI	AC-2,XX		;SETUP FOR COMPARISON
  4831	034642	205 07 0 00 200100 		MOVSI	AC,200000+ZZ	;SETUP AC
  4832	034643	205 06 0 00 200100 		MOVSI	AC-1,200000+ZZ	;SETUP BR
  4833	034644	140 07 0 00 000006 		FAD	AC,AC-1		;C(AC)+C(E)
  4834	034645	312 07 0 00 000005 		CAME	AC,AC-2		;TEST SUM
  4835	034646	003 07 0 00 032601 		ER3	AC,SN		;FAD FAILED
  4836	034647	321 11 0 00 034641 		JUMPL	AC+2,.-6	;LOOP ON ERROR SWITCH
  4837
  4838
  4839			032602		SN=SN+1
  4840			176400			XX=XX-1000
  4841			000040			ZZ=ZZ/2
  4842	034650	205 05 0 00 176400 		MOVSI	AC-2,XX		;SETUP FOR COMPARISON
  4843	034651	205 07 0 00 200040 		MOVSI	AC,200000+ZZ	;SETUP AC
  4844	034652	205 06 0 00 200040 		MOVSI	AC-1,200000+ZZ	;SETUP BR
  4845	034653	140 07 0 00 000006 		FAD	AC,AC-1		;C(AC)+C(E)
  4846	034654	312 07 0 00 000005 		CAME	AC,AC-2		;TEST SUM
  4847	034655	003 07 0 00 032602 		ER3	AC,SN		;FAD FAILED
  4848	034656	321 11 0 00 034650 		JUMPL	AC+2,.-6	;LOOP ON ERROR SWITCH
  4849
  4850DBKCA	PDP-10 KI10 ADVANCED INSTRUCTION DIAGNOSTIC #1, VERSION 0,3 	MACRO %52(462) 10:44  9-AUG-76 PAGE 61-3
DBKCAM	MAC	26-MAY-76 16:51		PART I.E-GEN TEST-FSC,FAD,FSB AND UFA                                              SEQ 0130

  4851			032603		SN=SN+1
  4852			175400			XX=XX-1000
  4853			000020			ZZ=ZZ/2
  4854	034657	205 05 0 00 175400 		MOVSI	AC-2,XX		;SETUP FOR COMPARISON
  4855	034660	205 07 0 00 200020 		MOVSI	AC,200000+ZZ	;SETUP AC
  4856	034661	205 06 0 00 200020 		MOVSI	AC-1,200000+ZZ	;SETUP BR
  4857	034662	140 07 0 00 000006 		FAD	AC,AC-1		;C(AC)+C(E)
  4858	034663	312 07 0 00 000005 		CAME	AC,AC-2		;TEST SUM
  4859	034664	003 07 0 00 032603 		ER3	AC,SN		;FAD FAILED
  4860	034665	321 11 0 00 034657 		JUMPL	AC+2,.-6	;LOOP ON ERROR SWITCH
  4861DBKCA	PDP-10 KI10 ADVANCED INSTRUCTION DIAGNOSTIC #1, VERSION 0,3 	MACRO %52(462) 10:44  9-AUG-76 PAGE 62
DBKCAM	MAC	26-MAY-76 16:51		PART I.E-GEN TEST-FSC,FAD,FSB AND UFA                                              SEQ 0131

  4862					;TEST FAD
  4863					;TWO NEGATIVES
  4864					;AR=577.4 (-1/2), 600.4 (-1/4), 601.4 (-1/8)
  4865					;BR=576400000000 (-1)
  4866					;SUMS=576.2 (-1 1/2), 576.3 (-1 1/4) 576.34 (-1 1/8)
  4867
  4868			000006			AC=6
  4869						SAVEAC	(1,1)^
  4870	034666	201 10 0 00 034666 		MOVEI	AC+2,.
  4871	034667	202 10 0 00 030051 		MOVEM	AC+2,TESTPC	;SETUP SUBTEST PC
  4872	034670	201 10 0 00 000010 		MOVEI	AC+2,<AC+2>&17	;INFORM ERROR ROUTINE WHICH
  4873	034671	202 10 0 00 040261 		MOVEM	AC+2,ERRLOP#	;AC IS USED FOR ITERATION^
  4874
  4875			032700		SN=32700
  4876			000200			WW=200
  4877			576000			XX=576000
  4878			576400			ZZ=576400
  4879
  4880							;TEST FAD -TWO NEGATIVES
  4881					O32700:	REPEAT	^D3,<
  4882					SN=SN+1
  4883						XX=XX+WW
  4884						WW=WW/2
  4885						ZZ=ZZ+1000
  4886						MOVSI	AC-2,XX		;SETUP FOR COMPARISON
  4887						MOVSI	AC,ZZ		;SETUP AC
  4888						MOVSI	AC-1,576400	;SETUP BR
  4889						FAD	AC,AC-1		;C(AC)+C(E)
  4890						CAME	AC,AC-2		;TEST SUM
  4891						ER3	AC,SN		;FAD FAILED
  4892						JUMPL	AC+2,.-6	;LOOP ON ERROR SWITCH
  4893					>
  4894
  4895			032701		SN=SN+1
  4896			576200			XX=XX+WW
  4897			000100			WW=WW/2
  4898			577400			ZZ=ZZ+1000
  4899	034672	205 04 0 00 576200 		MOVSI	AC-2,XX		;SETUP FOR COMPARISON
  4900	034673	205 06 0 00 577400 		MOVSI	AC,ZZ		;SETUP AC
  4901	034674	205 05 0 00 576400 		MOVSI	AC-1,576400	;SETUP BR
  4902	034675	140 06 0 00 000005 		FAD	AC,AC-1		;C(AC)+C(E)
  4903	034676	312 06 0 00 000004 		CAME	AC,AC-2		;TEST SUM
  4904	034677	003 06 0 00 032701 		ER3	AC,SN		;FAD FAILED
  4905	034700	321 10 0 00 034672 		JUMPL	AC+2,.-6	;LOOP ON ERROR SWITCH
  4906
  4907
  4908			032702		SN=SN+1
  4909			576300			XX=XX+WW
  4910			000040			WW=WW/2
  4911			600400			ZZ=ZZ+1000
  4912	034701	205 04 0 00 576300 		MOVSI	AC-2,XX		;SETUP FOR COMPARISON
  4913	034702	205 06 0 00 600400 		MOVSI	AC,ZZ		;SETUP AC
  4914	034703	205 05 0 00 576400 		MOVSI	AC-1,576400	;SETUP BR
  4915	034704	140 06 0 00 000005 		FAD	AC,AC-1		;C(AC)+C(E)
  4916	034705	312 06 0 00 000004 		CAME	AC,AC-2		;TEST SUMDBKCA	PDP-10 KI10 ADVANCED INSTRUCTION DIAGNOSTIC #1, VERSION 0,3 	MACRO %52(462) 10:44  9-AUG-76 PAGE 62-1
DBKCAM	MAC	26-MAY-76 16:51		PART I.E-GEN TEST-FSC,FAD,FSB AND UFA                                              SEQ 0132

  4917	034706	003 06 0 00 032702 		ER3	AC,SN		;FAD FAILED
  4918	034707	321 10 0 00 034701 		JUMPL	AC+2,.-6	;LOOP ON ERROR SWITCH
  4919
  4920
  4921			032703		SN=SN+1
  4922			576340			XX=XX+WW
  4923			000020			WW=WW/2
  4924			601400			ZZ=ZZ+1000
  4925	034710	205 04 0 00 576340 		MOVSI	AC-2,XX		;SETUP FOR COMPARISON
  4926	034711	205 06 0 00 601400 		MOVSI	AC,ZZ		;SETUP AC
  4927	034712	205 05 0 00 576400 		MOVSI	AC-1,576400	;SETUP BR
  4928	034713	140 06 0 00 000005 		FAD	AC,AC-1		;C(AC)+C(E)
  4929	034714	312 06 0 00 000004 		CAME	AC,AC-2		;TEST SUM
  4930	034715	003 06 0 00 032703 		ER3	AC,SN		;FAD FAILED
  4931	034716	321 10 0 00 034710 		JUMPL	AC+2,.-6	;LOOP ON ERROR SWITCH
  4932
  4933					PAGEDBKCA	PDP-10 KI10 ADVANCED INSTRUCTION DIAGNOSTIC #1, VERSION 0,3 	MACRO %52(462) 10:44  9-AUG-76 PAGE 62-2
DBKCAM	MAC	26-MAY-76 16:51		PART I.E-GEN TEST-FSC,FAD,FSB AND UFA                                              SEQ 0133

  4934					;TEST FAD
  4935					;TWO NEGATIVES
  4936					;LARGER EXPONENT IN AR
  4937					;AR=576.400000000 (-1)
  4938					;BR=577.4 (-1/2), 600.4 (-1/4), 601.4 (-1/8)
  4939					;SUMS=576.2 (-1 1/2), 576.3 (-1 1/4),576.34 (-1 1/8)
  4940
  4941			000014			AC=14
  4942						SAVEAC	(1,1)^
  4943	034717	201 16 0 00 034717 		MOVEI	AC+2,.
  4944	034720	202 16 0 00 030051 		MOVEM	AC+2,TESTPC	;SETUP SUBTEST PC
  4945	034721	201 16 0 00 000016 		MOVEI	AC+2,<AC+2>&17	;INFORM ERROR ROUTINE WHICH
  4946	034722	202 16 0 00 040261 		MOVEM	AC+2,ERRLOP#	;AC IS USED FOR ITERATION^
  4947
  4948			033000		SN=33000
  4949			000200			WW=200
  4950			576000			XX=576000
  4951			576400			ZZ=576400
  4952
  4953							;TEST FAD-LARGER IN AR
  4954					O33000:	REPEAT	^D3,<
  4955					SN=SN+1
  4956						XX=XX+WW
  4957						WW=WW/2
  4958						ZZ=ZZ+1000
  4959						MOVSI	AC-2,XX		;SETUP FOR COMPARISON
  4960						MOVSI	AC,576400	;SETUP AC
  4961						MOVSI	AC-1,ZZ		;SETUP BR
  4962						FAD	AC,AC-1		;C(AC)+C(E)
  4963						CAME	AC,AC-2		;TEST SUM
  4964						ER3	AC,SN		;FAD FAILED
  4965						JUMPL	AC+2,.-6	;LOOP ON ERROR SWITCH
  4966					>
  4967
  4968			033001		SN=SN+1
  4969			576200			XX=XX+WW
  4970			000100			WW=WW/2
  4971			577400			ZZ=ZZ+1000
  4972	034723	205 12 0 00 576200 		MOVSI	AC-2,XX		;SETUP FOR COMPARISON
  4973	034724	205 14 0 00 576400 		MOVSI	AC,576400	;SETUP AC
  4974	034725	205 13 0 00 577400 		MOVSI	AC-1,ZZ		;SETUP BR
  4975	034726	140 14 0 00 000013 		FAD	AC,AC-1		;C(AC)+C(E)
  4976	034727	312 14 0 00 000012 		CAME	AC,AC-2		;TEST SUM
  4977	034730	003 14 0 00 033001 		ER3	AC,SN		;FAD FAILED
  4978	034731	321 16 0 00 034723 		JUMPL	AC+2,.-6	;LOOP ON ERROR SWITCH
  4979
  4980
  4981			033002		SN=SN+1
  4982			576300			XX=XX+WW
  4983			000040			WW=WW/2
  4984			600400			ZZ=ZZ+1000
  4985	034732	205 12 0 00 576300 		MOVSI	AC-2,XX		;SETUP FOR COMPARISON
  4986	034733	205 14 0 00 576400 		MOVSI	AC,576400	;SETUP AC
  4987	034734	205 13 0 00 600400 		MOVSI	AC-1,ZZ		;SETUP BR
  4988	034735	140 14 0 00 000013 		FAD	AC,AC-1		;C(AC)+C(E)DBKCA	PDP-10 KI10 ADVANCED INSTRUCTION DIAGNOSTIC #1, VERSION 0,3 	MACRO %52(462) 10:44  9-AUG-76 PAGE 62-3
DBKCAM	MAC	26-MAY-76 16:51		PART I.E-GEN TEST-FSC,FAD,FSB AND UFA                                              SEQ 0134

  4989	034736	312 14 0 00 000012 		CAME	AC,AC-2		;TEST SUM
  4990	034737	003 14 0 00 033002 		ER3	AC,SN		;FAD FAILED
  4991	034740	321 16 0 00 034732 		JUMPL	AC+2,.-6	;LOOP ON ERROR SWITCH
  4992
  4993
  4994			033003		SN=SN+1
  4995			576340			XX=XX+WW
  4996			000020			WW=WW/2
  4997			601400			ZZ=ZZ+1000
  4998	034741	205 12 0 00 576340 		MOVSI	AC-2,XX		;SETUP FOR COMPARISON
  4999	034742	205 14 0 00 576400 		MOVSI	AC,576400	;SETUP AC
  5000	034743	205 13 0 00 601400 		MOVSI	AC-1,ZZ		;SETUP BR
  5001	034744	140 14 0 00 000013 		FAD	AC,AC-1		;C(AC)+C(E)
  5002	034745	312 14 0 00 000012 		CAME	AC,AC-2		;TEST SUM
  5003	034746	003 14 0 00 033003 		ER3	AC,SN		;FAD FAILED
  5004	034747	321 16 0 00 034741 		JUMPL	AC+2,.-6	;LOOP ON ERROR SWITCH
  5005DBKCA	PDP-10 KI10 ADVANCED INSTRUCTION DIAGNOSTIC #1, VERSION 0,3 	MACRO %52(462) 10:44  9-AUG-76 PAGE 63
DBKCAM	MAC	26-MAY-76 16:51		PART I.E-GEN TEST-FSC,FAD,FSB AND UFA                                              SEQ 0135

  5006					;TEST FAD
  5007					;TWO NEGATIVES
  5008					;NR SHRT COND
  5009					;AR=577.4 (-1/2), 600.4 (-1/4), 601.4(-1/8)
  5010					;BR=AR
  5011					;SUMS=576.4 (-1), 577.4 (-1/2), 600.4 (-1/4)
  5012
  5013			000014			AC=14
  5014						SAVEAC	(1,1)^
  5015	034750	201 16 0 00 034750 		MOVEI	AC+2,.
  5016	034751	202 16 0 00 030051 		MOVEM	AC+2,TESTPC	;SETUP SUBTEST PC
  5017	034752	201 16 0 00 000016 		MOVEI	AC+2,<AC+2>&17	;INFORM ERROR ROUTINE WHICH
  5018	034753	202 16 0 00 040261 		MOVEM	AC+2,ERRLOP#	;AC IS USED FOR ITERATION^
  5019
  5020			033100		SN=33100
  5021			575400			XX=575400
  5022			576400			ZZ=576400
  5023
  5024							;TEST FAD NRSHRT
  5025					O33100:	REPEAT	^D3,<
  5026					SN=SN+1
  5027						XX=XX+1000
  5028						ZZ=ZZ+1000
  5029						MOVSI	AC-2,XX		;SETUP FOR COMPARISON
  5030						MOVSI	AC,ZZ		;SETUP AC
  5031						MOVSI	AC-1,ZZ		;SETUP BR
  5032						FAD	AC,AC-1		;C(AC)+C(E)
  5033						CAME	AC,AC-2		;TEST SUM
  5034						ER3	AC,SN		;FAD FAILED
  5035						JUMPL	AC+2,.-6	;LOOP ON ERROR SWITCH
  5036					>
  5037
  5038			033101		SN=SN+1
  5039			576400			XX=XX+1000
  5040			577400			ZZ=ZZ+1000
  5041	034754	205 12 0 00 576400 		MOVSI	AC-2,XX		;SETUP FOR COMPARISON
  5042	034755	205 14 0 00 577400 		MOVSI	AC,ZZ		;SETUP AC
  5043	034756	205 13 0 00 577400 		MOVSI	AC-1,ZZ		;SETUP BR
  5044	034757	140 14 0 00 000013 		FAD	AC,AC-1		;C(AC)+C(E)
  5045	034760	312 14 0 00 000012 		CAME	AC,AC-2		;TEST SUM
  5046	034761	003 14 0 00 033101 		ER3	AC,SN		;FAD FAILED
  5047	034762	321 16 0 00 034754 		JUMPL	AC+2,.-6	;LOOP ON ERROR SWITCH
  5048
  5049
  5050			033102		SN=SN+1
  5051			577400			XX=XX+1000
  5052			600400			ZZ=ZZ+1000
  5053	034763	205 12 0 00 577400 		MOVSI	AC-2,XX		;SETUP FOR COMPARISON
  5054	034764	205 14 0 00 600400 		MOVSI	AC,ZZ		;SETUP AC
  5055	034765	205 13 0 00 600400 		MOVSI	AC-1,ZZ		;SETUP BR
  5056	034766	140 14 0 00 000013 		FAD	AC,AC-1		;C(AC)+C(E)
  5057	034767	312 14 0 00 000012 		CAME	AC,AC-2		;TEST SUM
  5058	034770	003 14 0 00 033102 		ER3	AC,SN		;FAD FAILED
  5059	034771	321 16 0 00 034763 		JUMPL	AC+2,.-6	;LOOP ON ERROR SWITCH
  5060DBKCA	PDP-10 KI10 ADVANCED INSTRUCTION DIAGNOSTIC #1, VERSION 0,3 	MACRO %52(462) 10:44  9-AUG-76 PAGE 63-1
DBKCAM	MAC	26-MAY-76 16:51		PART I.E-GEN TEST-FSC,FAD,FSB AND UFA                                              SEQ 0136

  5061
  5062			033103		SN=SN+1
  5063			600400			XX=XX+1000
  5064			601400			ZZ=ZZ+1000
  5065	034772	205 12 0 00 600400 		MOVSI	AC-2,XX		;SETUP FOR COMPARISON
  5066	034773	205 14 0 00 601400 		MOVSI	AC,ZZ		;SETUP AC
  5067	034774	205 13 0 00 601400 		MOVSI	AC-1,ZZ		;SETUP BR
  5068	034775	140 14 0 00 000013 		FAD	AC,AC-1		;C(AC)+C(E)
  5069	034776	312 14 0 00 000012 		CAME	AC,AC-2		;TEST SUM
  5070	034777	003 14 0 00 033103 		ER3	AC,SN		;FAD FAILED
  5071	035000	321 16 0 00 034772 		JUMPL	AC+2,.-6	;LOOP ON ERROR SWITCH
  5072
  5073					PAGEDBKCA	PDP-10 KI10 ADVANCED INSTRUCTION DIAGNOSTIC #1, VERSION 0,3 	MACRO %52(462) 10:44  9-AUG-76 PAGE 63-2
DBKCAM	MAC	26-MAY-76 16:51		PART I.E-GEN TEST-FSC,FAD,FSB AND UFA                                              SEQ 0137

  5074					;TEST FAD
  5075					;POSITIVE AND NEGATIVE
  5076					;LARGER IN AR
  5077					;AR=201.400000000 (+1)
  5078					;BR=577.4 (-1/2), 600.4 (-1/4), 601.4(-1/8)
  5079					;SUMS=200.4 (+1/2), 200.6 (+3/4), 200.7 (+7/8)
  5080
  5081			000013			AC=13
  5082						SAVEAC	(1,1)^
  5083	035001	201 15 0 00 035001 		MOVEI	AC+2,.
  5084	035002	202 15 0 00 030051 		MOVEM	AC+2,TESTPC	;SETUP SUBTEST PC
  5085	035003	201 15 0 00 000015 		MOVEI	AC+2,<AC+2>&17	;INFORM ERROR ROUTINE WHICH
  5086	035004	202 15 0 00 040261 		MOVEM	AC+2,ERRLOP#	;AC IS USED FOR ITERATION^
  5087
  5088			033200		SN=33200
  5089			001000			WW=1000
  5090			576400			XX=576400
  5091			000000			ZZ=0
  5092
  5093							;TEST FAD
  5094					O33200:	REPEAT	^D3,<
  5095					SN=SN+1
  5096						WW=WW/2
  5097						XX=XX+1000
  5098						ZZ=ZZ+WW
  5099						MOVSI	AC-2,200000+ZZ	;SETUP FOR COMPARISON
  5100						MOVSI	AC,201400	;SETUP AC
  5101						MOVSI	AC-1,XX		;SETUP BR
  5102						FAD	AC,AC-1		;C(AC)+C(E)
  5103						CAME	AC,AC-2		;TEST SUM
  5104						ER3	AC,SN		;FAD FAILED
  5105						JUMPL	AC+2,.-6	;LOOP ON ERROR SWITCH
  5106					>
  5107
  5108			033201		SN=SN+1
  5109			000400			WW=WW/2
  5110			577400			XX=XX+1000
  5111			000400			ZZ=ZZ+WW
  5112	035005	205 11 0 00 200400 		MOVSI	AC-2,200000+ZZ	;SETUP FOR COMPARISON
  5113	035006	205 13 0 00 201400 		MOVSI	AC,201400	;SETUP AC
  5114	035007	205 12 0 00 577400 		MOVSI	AC-1,XX		;SETUP BR
  5115	035010	140 13 0 00 000012 		FAD	AC,AC-1		;C(AC)+C(E)
  5116	035011	312 13 0 00 000011 		CAME	AC,AC-2		;TEST SUM
  5117	035012	003 13 0 00 033201 		ER3	AC,SN		;FAD FAILED
  5118	035013	321 15 0 00 035005 		JUMPL	AC+2,.-6	;LOOP ON ERROR SWITCH
  5119
  5120
  5121			033202		SN=SN+1
  5122			000200			WW=WW/2
  5123			600400			XX=XX+1000
  5124			000600			ZZ=ZZ+WW
  5125	035014	205 11 0 00 200600 		MOVSI	AC-2,200000+ZZ	;SETUP FOR COMPARISON
  5126	035015	205 13 0 00 201400 		MOVSI	AC,201400	;SETUP AC
  5127	035016	205 12 0 00 600400 		MOVSI	AC-1,XX		;SETUP BR
  5128	035017	140 13 0 00 000012 		FAD	AC,AC-1		;C(AC)+C(E)DBKCA	PDP-10 KI10 ADVANCED INSTRUCTION DIAGNOSTIC #1, VERSION 0,3 	MACRO %52(462) 10:44  9-AUG-76 PAGE 63-3
DBKCAM	MAC	26-MAY-76 16:51		PART I.E-GEN TEST-FSC,FAD,FSB AND UFA                                              SEQ 0138

  5129	035020	312 13 0 00 000011 		CAME	AC,AC-2		;TEST SUM
  5130	035021	003 13 0 00 033202 		ER3	AC,SN		;FAD FAILED
  5131	035022	321 15 0 00 035014 		JUMPL	AC+2,.-6	;LOOP ON ERROR SWITCH
  5132
  5133
  5134			033203		SN=SN+1
  5135			000100			WW=WW/2
  5136			601400			XX=XX+1000
  5137			000700			ZZ=ZZ+WW
  5138	035023	205 11 0 00 200700 		MOVSI	AC-2,200000+ZZ	;SETUP FOR COMPARISON
  5139	035024	205 13 0 00 201400 		MOVSI	AC,201400	;SETUP AC
  5140	035025	205 12 0 00 601400 		MOVSI	AC-1,XX		;SETUP BR
  5141	035026	140 13 0 00 000012 		FAD	AC,AC-1		;C(AC)+C(E)
  5142	035027	312 13 0 00 000011 		CAME	AC,AC-2		;TEST SUM
  5143	035030	003 13 0 00 033203 		ER3	AC,SN		;FAD FAILED
  5144	035031	321 15 0 00 035023 		JUMPL	AC+2,.-6	;LOOP ON ERROR SWITCH
  5145DBKCA	PDP-10 KI10 ADVANCED INSTRUCTION DIAGNOSTIC #1, VERSION 0,3 	MACRO %52(462) 10:44  9-AUG-76 PAGE 64
DBKCAM	MAC	26-MAY-76 16:51		PART I.E-GEN TEST-FSC,FAD,FSB AND UFA                                              SEQ 0139

  5146					;TEST FAD
  5147					;NOT NR ALL ZERO
  5148					;NOT NR NORMAL
  5149					;AR=200000000000
  5150					;BR=200000000001,2,4,10 ETC
  5151					;SUM=146400000000, EXPONENT
  5152					;INCREASING BY ONE
  5153
  5154			000012			AC=12
  5155						SAVEAC	(1,1)^
  5156	035032	201 14 0 00 035032 		MOVEI	AC+2,.
  5157	035033	202 14 0 00 030051 		MOVEM	AC+2,TESTPC	;SETUP SUBTEST PC
  5158	035034	201 14 0 00 000014 		MOVEI	AC+2,<AC+2>&17	;INFORM ERROR ROUTINE WHICH
  5159	035035	202 14 0 00 040261 		MOVEM	AC+2,ERRLOP#	;AC IS USED FOR ITERATION^
  5160
  5161			033300		SN=33300
  5162			145400			XX=145400
  5163			000000			ZZ=0
  5164
  5165							;TEST BITS 18-35(1)
  5166					O33300:	REPEAT	^D18,<
  5167					SN=SN+1
  5168						XX=XX+1000
  5169						ZZ=ZZ+ZZ
  5170						IFE	ZZ,<ZZ=1>
  5171						MOVSI	AC-2,XX		;SETUP FOR COMPARISON
  5172						MOVSI	AC,200000	;SETUP AC
  5173						MOVE	AC-1,[200000,,ZZ]	;SETUP BR
  5174						FAD	AC,AC-1		;C(AC)+C(E)
  5175						CAME	AC,AC-2		;TEST SUM
  5176						ER3	AC,SN		;FAD FAILED
  5177						CAME	AC-1,[200000,,ZZ]	;VERIFY THAT C(E) IS UNCHANGED
  5178						ER5	AC-1,SN		;FAILURE, C(E) WAS CLOBBERED
  5179						JUMPL	AC+2,.-^D8	;LOOP ON ERROR SWITCH
  5180					>
  5181
  5182			033301		SN=SN+1
  5183			146400			XX=XX+1000
  5184			000000			ZZ=ZZ+ZZ
  5185			000001			IFE	ZZ,<ZZ=1>
  5186	035036	205 10 0 00 146400 		MOVSI	AC-2,XX		;SETUP FOR COMPARISON
  5187	035037	205 12 0 00 200000 		MOVSI	AC,200000	;SETUP AC
  5188	035040	200 11 0 00 040025 		MOVE	AC-1,[200000,,ZZ]	;SETUP BR
  5189	035041	140 12 0 00 000011 		FAD	AC,AC-1		;C(AC)+C(E)
  5190	035042	312 12 0 00 000010 		CAME	AC,AC-2		;TEST SUM
  5191	035043	003 12 0 00 033301 		ER3	AC,SN		;FAD FAILED
  5192	035044	312 11 0 00 040025 		CAME	AC-1,[200000,,ZZ]	;VERIFY THAT C(E) IS UNCHANGED
  5193	035045	005 11 0 00 033301 		ER5	AC-1,SN		;FAILURE, C(E) WAS CLOBBERED
  5194	035046	321 14 0 00 035036 		JUMPL	AC+2,.-^D8	;LOOP ON ERROR SWITCH
  5195
  5196
  5197			033302		SN=SN+1
  5198			147400			XX=XX+1000
  5199			000002			ZZ=ZZ+ZZ
  5200						IFE	ZZ,<ZZ=1>DBKCA	PDP-10 KI10 ADVANCED INSTRUCTION DIAGNOSTIC #1, VERSION 0,3 	MACRO %52(462) 10:44  9-AUG-76 PAGE 64-1
DBKCAM	MAC	26-MAY-76 16:51		PART I.E-GEN TEST-FSC,FAD,FSB AND UFA                                              SEQ 0140

  5201	035047	205 10 0 00 147400 		MOVSI	AC-2,XX		;SETUP FOR COMPARISON
  5202	035050	205 12 0 00 200000 		MOVSI	AC,200000	;SETUP AC
  5203	035051	200 11 0 00 040026 		MOVE	AC-1,[200000,,ZZ]	;SETUP BR
  5204	035052	140 12 0 00 000011 		FAD	AC,AC-1		;C(AC)+C(E)
  5205	035053	312 12 0 00 000010 		CAME	AC,AC-2		;TEST SUM
  5206	035054	003 12 0 00 033302 		ER3	AC,SN		;FAD FAILED
  5207	035055	312 11 0 00 040026 		CAME	AC-1,[200000,,ZZ]	;VERIFY THAT C(E) IS UNCHANGED
  5208	035056	005 11 0 00 033302 		ER5	AC-1,SN		;FAILURE, C(E) WAS CLOBBERED
  5209	035057	321 14 0 00 035047 		JUMPL	AC+2,.-^D8	;LOOP ON ERROR SWITCH
  5210
  5211
  5212			033303		SN=SN+1
  5213			150400			XX=XX+1000
  5214			000004			ZZ=ZZ+ZZ
  5215						IFE	ZZ,<ZZ=1>
  5216	035060	205 10 0 00 150400 		MOVSI	AC-2,XX		;SETUP FOR COMPARISON
  5217	035061	205 12 0 00 200000 		MOVSI	AC,200000	;SETUP AC
  5218	035062	200 11 0 00 040027 		MOVE	AC-1,[200000,,ZZ]	;SETUP BR
  5219	035063	140 12 0 00 000011 		FAD	AC,AC-1		;C(AC)+C(E)
  5220	035064	312 12 0 00 000010 		CAME	AC,AC-2		;TEST SUM
  5221	035065	003 12 0 00 033303 		ER3	AC,SN		;FAD FAILED
  5222	035066	312 11 0 00 040027 		CAME	AC-1,[200000,,ZZ]	;VERIFY THAT C(E) IS UNCHANGED
  5223	035067	005 11 0 00 033303 		ER5	AC-1,SN		;FAILURE, C(E) WAS CLOBBERED
  5224	035070	321 14 0 00 035060 		JUMPL	AC+2,.-^D8	;LOOP ON ERROR SWITCH
  5225
  5226
  5227			033304		SN=SN+1
  5228			151400			XX=XX+1000
  5229			000010			ZZ=ZZ+ZZ
  5230						IFE	ZZ,<ZZ=1>
  5231	035071	205 10 0 00 151400 		MOVSI	AC-2,XX		;SETUP FOR COMPARISON
  5232	035072	205 12 0 00 200000 		MOVSI	AC,200000	;SETUP AC
  5233	035073	200 11 0 00 040030 		MOVE	AC-1,[200000,,ZZ]	;SETUP BR
  5234	035074	140 12 0 00 000011 		FAD	AC,AC-1		;C(AC)+C(E)
  5235	035075	312 12 0 00 000010 		CAME	AC,AC-2		;TEST SUM
  5236	035076	003 12 0 00 033304 		ER3	AC,SN		;FAD FAILED
  5237	035077	312 11 0 00 040030 		CAME	AC-1,[200000,,ZZ]	;VERIFY THAT C(E) IS UNCHANGED
  5238	035100	005 11 0 00 033304 		ER5	AC-1,SN		;FAILURE, C(E) WAS CLOBBERED
  5239	035101	321 14 0 00 035071 		JUMPL	AC+2,.-^D8	;LOOP ON ERROR SWITCH
  5240
  5241
  5242			033305		SN=SN+1
  5243			152400			XX=XX+1000
  5244			000020			ZZ=ZZ+ZZ
  5245						IFE	ZZ,<ZZ=1>
  5246	035102	205 10 0 00 152400 		MOVSI	AC-2,XX		;SETUP FOR COMPARISON
  5247	035103	205 12 0 00 200000 		MOVSI	AC,200000	;SETUP AC
  5248	035104	200 11 0 00 040031 		MOVE	AC-1,[200000,,ZZ]	;SETUP BR
  5249	035105	140 12 0 00 000011 		FAD	AC,AC-1		;C(AC)+C(E)
  5250	035106	312 12 0 00 000010 		CAME	AC,AC-2		;TEST SUM
  5251	035107	003 12 0 00 033305 		ER3	AC,SN		;FAD FAILED
  5252	035110	312 11 0 00 040031 		CAME	AC-1,[200000,,ZZ]	;VERIFY THAT C(E) IS UNCHANGED
  5253	035111	005 11 0 00 033305 		ER5	AC-1,SN		;FAILURE, C(E) WAS CLOBBERED
  5254	035112	321 14 0 00 035102 		JUMPL	AC+2,.-^D8	;LOOP ON ERROR SWITCH
  5255DBKCA	PDP-10 KI10 ADVANCED INSTRUCTION DIAGNOSTIC #1, VERSION 0,3 	MACRO %52(462) 10:44  9-AUG-76 PAGE 64-2
DBKCAM	MAC	26-MAY-76 16:51		PART I.E-GEN TEST-FSC,FAD,FSB AND UFA                                              SEQ 0141

  5256
  5257			033306		SN=SN+1
  5258			153400			XX=XX+1000
  5259			000040			ZZ=ZZ+ZZ
  5260						IFE	ZZ,<ZZ=1>
  5261	035113	205 10 0 00 153400 		MOVSI	AC-2,XX		;SETUP FOR COMPARISON
  5262	035114	205 12 0 00 200000 		MOVSI	AC,200000	;SETUP AC
  5263	035115	200 11 0 00 040032 		MOVE	AC-1,[200000,,ZZ]	;SETUP BR
  5264	035116	140 12 0 00 000011 		FAD	AC,AC-1		;C(AC)+C(E)
  5265	035117	312 12 0 00 000010 		CAME	AC,AC-2		;TEST SUM
  5266	035120	003 12 0 00 033306 		ER3	AC,SN		;FAD FAILED
  5267	035121	312 11 0 00 040032 		CAME	AC-1,[200000,,ZZ]	;VERIFY THAT C(E) IS UNCHANGED
  5268	035122	005 11 0 00 033306 		ER5	AC-1,SN		;FAILURE, C(E) WAS CLOBBERED
  5269	035123	321 14 0 00 035113 		JUMPL	AC+2,.-^D8	;LOOP ON ERROR SWITCH
  5270
  5271
  5272			033307		SN=SN+1
  5273			154400			XX=XX+1000
  5274			000100			ZZ=ZZ+ZZ
  5275						IFE	ZZ,<ZZ=1>
  5276	035124	205 10 0 00 154400 		MOVSI	AC-2,XX		;SETUP FOR COMPARISON
  5277	035125	205 12 0 00 200000 		MOVSI	AC,200000	;SETUP AC
  5278	035126	200 11 0 00 040033 		MOVE	AC-1,[200000,,ZZ]	;SETUP BR
  5279	035127	140 12 0 00 000011 		FAD	AC,AC-1		;C(AC)+C(E)
  5280	035130	312 12 0 00 000010 		CAME	AC,AC-2		;TEST SUM
  5281	035131	003 12 0 00 033307 		ER3	AC,SN		;FAD FAILED
  5282	035132	312 11 0 00 040033 		CAME	AC-1,[200000,,ZZ]	;VERIFY THAT C(E) IS UNCHANGED
  5283	035133	005 11 0 00 033307 		ER5	AC-1,SN		;FAILURE, C(E) WAS CLOBBERED
  5284	035134	321 14 0 00 035124 		JUMPL	AC+2,.-^D8	;LOOP ON ERROR SWITCH
  5285
  5286
  5287			033310		SN=SN+1
  5288			155400			XX=XX+1000
  5289			000200			ZZ=ZZ+ZZ
  5290						IFE	ZZ,<ZZ=1>
  5291	035135	205 10 0 00 155400 		MOVSI	AC-2,XX		;SETUP FOR COMPARISON
  5292	035136	205 12 0 00 200000 		MOVSI	AC,200000	;SETUP AC
  5293	035137	200 11 0 00 040034 		MOVE	AC-1,[200000,,ZZ]	;SETUP BR
  5294	035140	140 12 0 00 000011 		FAD	AC,AC-1		;C(AC)+C(E)
  5295	035141	312 12 0 00 000010 		CAME	AC,AC-2		;TEST SUM
  5296	035142	003 12 0 00 033310 		ER3	AC,SN		;FAD FAILED
  5297	035143	312 11 0 00 040034 		CAME	AC-1,[200000,,ZZ]	;VERIFY THAT C(E) IS UNCHANGED
  5298	035144	005 11 0 00 033310 		ER5	AC-1,SN		;FAILURE, C(E) WAS CLOBBERED
  5299	035145	321 14 0 00 035135 		JUMPL	AC+2,.-^D8	;LOOP ON ERROR SWITCH
  5300
  5301
  5302			033311		SN=SN+1
  5303			156400			XX=XX+1000
  5304			000400			ZZ=ZZ+ZZ
  5305						IFE	ZZ,<ZZ=1>
  5306	035146	205 10 0 00 156400 		MOVSI	AC-2,XX		;SETUP FOR COMPARISON
  5307	035147	205 12 0 00 200000 		MOVSI	AC,200000	;SETUP AC
  5308	035150	200 11 0 00 040035 		MOVE	AC-1,[200000,,ZZ]	;SETUP BR
  5309	035151	140 12 0 00 000011 		FAD	AC,AC-1		;C(AC)+C(E)
  5310	035152	312 12 0 00 000010 		CAME	AC,AC-2		;TEST SUMDBKCA	PDP-10 KI10 ADVANCED INSTRUCTION DIAGNOSTIC #1, VERSION 0,3 	MACRO %52(462) 10:44  9-AUG-76 PAGE 64-3
DBKCAM	MAC	26-MAY-76 16:51		PART I.E-GEN TEST-FSC,FAD,FSB AND UFA                                              SEQ 0142

  5311	035153	003 12 0 00 033311 		ER3	AC,SN		;FAD FAILED
  5312	035154	312 11 0 00 040035 		CAME	AC-1,[200000,,ZZ]	;VERIFY THAT C(E) IS UNCHANGED
  5313	035155	005 11 0 00 033311 		ER5	AC-1,SN		;FAILURE, C(E) WAS CLOBBERED
  5314	035156	321 14 0 00 035146 		JUMPL	AC+2,.-^D8	;LOOP ON ERROR SWITCH
  5315
  5316
  5317			033312		SN=SN+1
  5318			157400			XX=XX+1000
  5319			001000			ZZ=ZZ+ZZ
  5320						IFE	ZZ,<ZZ=1>
  5321	035157	205 10 0 00 157400 		MOVSI	AC-2,XX		;SETUP FOR COMPARISON
  5322	035160	205 12 0 00 200000 		MOVSI	AC,200000	;SETUP AC
  5323	035161	200 11 0 00 040036 		MOVE	AC-1,[200000,,ZZ]	;SETUP BR
  5324	035162	140 12 0 00 000011 		FAD	AC,AC-1		;C(AC)+C(E)
  5325	035163	312 12 0 00 000010 		CAME	AC,AC-2		;TEST SUM
  5326	035164	003 12 0 00 033312 		ER3	AC,SN		;FAD FAILED
  5327	035165	312 11 0 00 040036 		CAME	AC-1,[200000,,ZZ]	;VERIFY THAT C(E) IS UNCHANGED
  5328	035166	005 11 0 00 033312 		ER5	AC-1,SN		;FAILURE, C(E) WAS CLOBBERED
  5329	035167	321 14 0 00 035157 		JUMPL	AC+2,.-^D8	;LOOP ON ERROR SWITCH
  5330
  5331
  5332			033313		SN=SN+1
  5333			160400			XX=XX+1000
  5334			002000			ZZ=ZZ+ZZ
  5335						IFE	ZZ,<ZZ=1>
  5336	035170	205 10 0 00 160400 		MOVSI	AC-2,XX		;SETUP FOR COMPARISON
  5337	035171	205 12 0 00 200000 		MOVSI	AC,200000	;SETUP AC
  5338	035172	200 11 0 00 040037 		MOVE	AC-1,[200000,,ZZ]	;SETUP BR
  5339	035173	140 12 0 00 000011 		FAD	AC,AC-1		;C(AC)+C(E)
  5340	035174	312 12 0 00 000010 		CAME	AC,AC-2		;TEST SUM
  5341	035175	003 12 0 00 033313 		ER3	AC,SN		;FAD FAILED
  5342	035176	312 11 0 00 040037 		CAME	AC-1,[200000,,ZZ]	;VERIFY THAT C(E) IS UNCHANGED
  5343	035177	005 11 0 00 033313 		ER5	AC-1,SN		;FAILURE, C(E) WAS CLOBBERED
  5344	035200	321 14 0 00 035170 		JUMPL	AC+2,.-^D8	;LOOP ON ERROR SWITCH
  5345
  5346
  5347			033314		SN=SN+1
  5348			161400			XX=XX+1000
  5349			004000			ZZ=ZZ+ZZ
  5350						IFE	ZZ,<ZZ=1>
  5351	035201	205 10 0 00 161400 		MOVSI	AC-2,XX		;SETUP FOR COMPARISON
  5352	035202	205 12 0 00 200000 		MOVSI	AC,200000	;SETUP AC
  5353	035203	200 11 0 00 040040 		MOVE	AC-1,[200000,,ZZ]	;SETUP BR
  5354	035204	140 12 0 00 000011 		FAD	AC,AC-1		;C(AC)+C(E)
  5355	035205	312 12 0 00 000010 		CAME	AC,AC-2		;TEST SUM
  5356	035206	003 12 0 00 033314 		ER3	AC,SN		;FAD FAILED
  5357	035207	312 11 0 00 040040 		CAME	AC-1,[200000,,ZZ]	;VERIFY THAT C(E) IS UNCHANGED
  5358	035210	005 11 0 00 033314 		ER5	AC-1,SN		;FAILURE, C(E) WAS CLOBBERED
  5359	035211	321 14 0 00 035201 		JUMPL	AC+2,.-^D8	;LOOP ON ERROR SWITCH
  5360
  5361
  5362			033315		SN=SN+1
  5363			162400			XX=XX+1000
  5364			010000			ZZ=ZZ+ZZ
  5365						IFE	ZZ,<ZZ=1>DBKCA	PDP-10 KI10 ADVANCED INSTRUCTION DIAGNOSTIC #1, VERSION 0,3 	MACRO %52(462) 10:44  9-AUG-76 PAGE 64-4
DBKCAM	MAC	26-MAY-76 16:51		PART I.E-GEN TEST-FSC,FAD,FSB AND UFA                                              SEQ 0143

  5366	035212	205 10 0 00 162400 		MOVSI	AC-2,XX		;SETUP FOR COMPARISON
  5367	035213	205 12 0 00 200000 		MOVSI	AC,200000	;SETUP AC
  5368	035214	200 11 0 00 040041 		MOVE	AC-1,[200000,,ZZ]	;SETUP BR
  5369	035215	140 12 0 00 000011 		FAD	AC,AC-1		;C(AC)+C(E)
  5370	035216	312 12 0 00 000010 		CAME	AC,AC-2		;TEST SUM
  5371	035217	003 12 0 00 033315 		ER3	AC,SN		;FAD FAILED
  5372	035220	312 11 0 00 040041 		CAME	AC-1,[200000,,ZZ]	;VERIFY THAT C(E) IS UNCHANGED
  5373	035221	005 11 0 00 033315 		ER5	AC-1,SN		;FAILURE, C(E) WAS CLOBBERED
  5374	035222	321 14 0 00 035212 		JUMPL	AC+2,.-^D8	;LOOP ON ERROR SWITCH
  5375
  5376
  5377			033316		SN=SN+1
  5378			163400			XX=XX+1000
  5379			020000			ZZ=ZZ+ZZ
  5380						IFE	ZZ,<ZZ=1>
  5381	035223	205 10 0 00 163400 		MOVSI	AC-2,XX		;SETUP FOR COMPARISON
  5382	035224	205 12 0 00 200000 		MOVSI	AC,200000	;SETUP AC
  5383	035225	200 11 0 00 040042 		MOVE	AC-1,[200000,,ZZ]	;SETUP BR
  5384	035226	140 12 0 00 000011 		FAD	AC,AC-1		;C(AC)+C(E)
  5385	035227	312 12 0 00 000010 		CAME	AC,AC-2		;TEST SUM
  5386	035230	003 12 0 00 033316 		ER3	AC,SN		;FAD FAILED
  5387	035231	312 11 0 00 040042 		CAME	AC-1,[200000,,ZZ]	;VERIFY THAT C(E) IS UNCHANGED
  5388	035232	005 11 0 00 033316 		ER5	AC-1,SN		;FAILURE, C(E) WAS CLOBBERED
  5389	035233	321 14 0 00 035223 		JUMPL	AC+2,.-^D8	;LOOP ON ERROR SWITCH
  5390
  5391
  5392			033317		SN=SN+1
  5393			164400			XX=XX+1000
  5394			040000			ZZ=ZZ+ZZ
  5395						IFE	ZZ,<ZZ=1>
  5396	035234	205 10 0 00 164400 		MOVSI	AC-2,XX		;SETUP FOR COMPARISON
  5397	035235	205 12 0 00 200000 		MOVSI	AC,200000	;SETUP AC
  5398	035236	200 11 0 00 040043 		MOVE	AC-1,[200000,,ZZ]	;SETUP BR
  5399	035237	140 12 0 00 000011 		FAD	AC,AC-1		;C(AC)+C(E)
  5400	035240	312 12 0 00 000010 		CAME	AC,AC-2		;TEST SUM
  5401	035241	003 12 0 00 033317 		ER3	AC,SN		;FAD FAILED
  5402	035242	312 11 0 00 040043 		CAME	AC-1,[200000,,ZZ]	;VERIFY THAT C(E) IS UNCHANGED
  5403	035243	005 11 0 00 033317 		ER5	AC-1,SN		;FAILURE, C(E) WAS CLOBBERED
  5404	035244	321 14 0 00 035234 		JUMPL	AC+2,.-^D8	;LOOP ON ERROR SWITCH
  5405
  5406
  5407			033320		SN=SN+1
  5408			165400			XX=XX+1000
  5409			100000			ZZ=ZZ+ZZ
  5410						IFE	ZZ,<ZZ=1>
  5411	035245	205 10 0 00 165400 		MOVSI	AC-2,XX		;SETUP FOR COMPARISON
  5412	035246	205 12 0 00 200000 		MOVSI	AC,200000	;SETUP AC
  5413	035247	200 11 0 00 040044 		MOVE	AC-1,[200000,,ZZ]	;SETUP BR
  5414	035250	140 12 0 00 000011 		FAD	AC,AC-1		;C(AC)+C(E)
  5415	035251	312 12 0 00 000010 		CAME	AC,AC-2		;TEST SUM
  5416	035252	003 12 0 00 033320 		ER3	AC,SN		;FAD FAILED
  5417	035253	312 11 0 00 040044 		CAME	AC-1,[200000,,ZZ]	;VERIFY THAT C(E) IS UNCHANGED
  5418	035254	005 11 0 00 033320 		ER5	AC-1,SN		;FAILURE, C(E) WAS CLOBBERED
  5419	035255	321 14 0 00 035245 		JUMPL	AC+2,.-^D8	;LOOP ON ERROR SWITCH
  5420DBKCA	PDP-10 KI10 ADVANCED INSTRUCTION DIAGNOSTIC #1, VERSION 0,3 	MACRO %52(462) 10:44  9-AUG-76 PAGE 64-5
DBKCAM	MAC	26-MAY-76 16:51		PART I.E-GEN TEST-FSC,FAD,FSB AND UFA                                              SEQ 0144

  5421
  5422			033321		SN=SN+1
  5423			166400			XX=XX+1000
  5424			200000			ZZ=ZZ+ZZ
  5425						IFE	ZZ,<ZZ=1>
  5426	035256	205 10 0 00 166400 		MOVSI	AC-2,XX		;SETUP FOR COMPARISON
  5427	035257	205 12 0 00 200000 		MOVSI	AC,200000	;SETUP AC
  5428	035260	200 11 0 00 040045 		MOVE	AC-1,[200000,,ZZ]	;SETUP BR
  5429	035261	140 12 0 00 000011 		FAD	AC,AC-1		;C(AC)+C(E)
  5430	035262	312 12 0 00 000010 		CAME	AC,AC-2		;TEST SUM
  5431	035263	003 12 0 00 033321 		ER3	AC,SN		;FAD FAILED
  5432	035264	312 11 0 00 040045 		CAME	AC-1,[200000,,ZZ]	;VERIFY THAT C(E) IS UNCHANGED
  5433	035265	005 11 0 00 033321 		ER5	AC-1,SN		;FAILURE, C(E) WAS CLOBBERED
  5434	035266	321 14 0 00 035256 		JUMPL	AC+2,.-^D8	;LOOP ON ERROR SWITCH
  5435
  5436
  5437			033322		SN=SN+1
  5438			167400			XX=XX+1000
  5439			400000			ZZ=ZZ+ZZ
  5440						IFE	ZZ,<ZZ=1>
  5441	035267	205 10 0 00 167400 		MOVSI	AC-2,XX		;SETUP FOR COMPARISON
  5442	035270	205 12 0 00 200000 		MOVSI	AC,200000	;SETUP AC
  5443	035271	200 11 0 00 040046 		MOVE	AC-1,[200000,,ZZ]	;SETUP BR
  5444	035272	140 12 0 00 000011 		FAD	AC,AC-1		;C(AC)+C(E)
  5445	035273	312 12 0 00 000010 		CAME	AC,AC-2		;TEST SUM
  5446	035274	003 12 0 00 033322 		ER3	AC,SN		;FAD FAILED
  5447	035275	312 11 0 00 040046 		CAME	AC-1,[200000,,ZZ]	;VERIFY THAT C(E) IS UNCHANGED
  5448	035276	005 11 0 00 033322 		ER5	AC-1,SN		;FAILURE, C(E) WAS CLOBBERED
  5449	035277	321 14 0 00 035267 		JUMPL	AC+2,.-^D8	;LOOP ON ERROR SWITCH
  5450
  5451					PAGEDBKCA	PDP-10 KI10 ADVANCED INSTRUCTION DIAGNOSTIC #1, VERSION 0,3 	MACRO %52(462) 10:44  9-AUG-76 PAGE 64-6
DBKCAM	MAC	26-MAY-76 16:51		PART I.E-GEN TEST-FSC,FAD,FSB AND UFA                                              SEQ 0145

  5452			033400		SN=33400
  5453			000000			ZZ=0
  5454
  5455							;TEST BITS 10-17 (1)
  5456					O33400:	REPEAT	^D7,<
  5457					SN=SN+1
  5458						XX=XX+1000
  5459						ZZ=ZZ+ZZ
  5460						IFE	ZZ,<ZZ=1>
  5461						MOVSI	AC-2,XX		;SETUP FOR COMPARISON
  5462						MOVSI	AC,200000	;SETUP AC
  5463						MOVSI	AC-1,200000+ZZ	;SETUP BR
  5464						FAD	AC,AC-1		;C(AC)+C(E)
  5465						CAME	AC,AC-2		;TEST SUM
  5466						ER3	AC,SN		;FAD FAILED
  5467						CAME	AC-1,[200000+ZZ,,0]	;VERIFY THAT C(E) IS UNCHANGED
  5468						ER5	AC-1,SN		;FAILURE, C(E) WAS CLOBBERED
  5469						JUMPL	AC+2,.-^D8	;LOOP ON ERROR SWITCH
  5470					>
  5471
  5472			033401		SN=SN+1
  5473			170400			XX=XX+1000
  5474			000000			ZZ=ZZ+ZZ
  5475			000001			IFE	ZZ,<ZZ=1>
  5476	035300	205 10 0 00 170400 		MOVSI	AC-2,XX		;SETUP FOR COMPARISON
  5477	035301	205 12 0 00 200000 		MOVSI	AC,200000	;SETUP AC
  5478	035302	205 11 0 00 200001 		MOVSI	AC-1,200000+ZZ	;SETUP BR
  5479	035303	140 12 0 00 000011 		FAD	AC,AC-1		;C(AC)+C(E)
  5480	035304	312 12 0 00 000010 		CAME	AC,AC-2		;TEST SUM
  5481	035305	003 12 0 00 033401 		ER3	AC,SN		;FAD FAILED
  5482	035306	312 11 0 00 040047 		CAME	AC-1,[200000+ZZ,,0]	;VERIFY THAT C(E) IS UNCHANGED
  5483	035307	005 11 0 00 033401 		ER5	AC-1,SN		;FAILURE, C(E) WAS CLOBBERED
  5484	035310	321 14 0 00 035300 		JUMPL	AC+2,.-^D8	;LOOP ON ERROR SWITCH
  5485
  5486
  5487			033402		SN=SN+1
  5488			171400			XX=XX+1000
  5489			000002			ZZ=ZZ+ZZ
  5490						IFE	ZZ,<ZZ=1>
  5491	035311	205 10 0 00 171400 		MOVSI	AC-2,XX		;SETUP FOR COMPARISON
  5492	035312	205 12 0 00 200000 		MOVSI	AC,200000	;SETUP AC
  5493	035313	205 11 0 00 200002 		MOVSI	AC-1,200000+ZZ	;SETUP BR
  5494	035314	140 12 0 00 000011 		FAD	AC,AC-1		;C(AC)+C(E)
  5495	035315	312 12 0 00 000010 		CAME	AC,AC-2		;TEST SUM
  5496	035316	003 12 0 00 033402 		ER3	AC,SN		;FAD FAILED
  5497	035317	312 11 0 00 040050 		CAME	AC-1,[200000+ZZ,,0]	;VERIFY THAT C(E) IS UNCHANGED
  5498	035320	005 11 0 00 033402 		ER5	AC-1,SN		;FAILURE, C(E) WAS CLOBBERED
  5499	035321	321 14 0 00 035311 		JUMPL	AC+2,.-^D8	;LOOP ON ERROR SWITCH
  5500
  5501
  5502			033403		SN=SN+1
  5503			172400			XX=XX+1000
  5504			000004			ZZ=ZZ+ZZ
  5505						IFE	ZZ,<ZZ=1>
  5506	035322	205 10 0 00 172400 		MOVSI	AC-2,XX		;SETUP FOR COMPARISONDBKCA	PDP-10 KI10 ADVANCED INSTRUCTION DIAGNOSTIC #1, VERSION 0,3 	MACRO %52(462) 10:44  9-AUG-76 PAGE 64-7
DBKCAM	MAC	26-MAY-76 16:51		PART I.E-GEN TEST-FSC,FAD,FSB AND UFA                                              SEQ 0146

  5507	035323	205 12 0 00 200000 		MOVSI	AC,200000	;SETUP AC
  5508	035324	205 11 0 00 200004 		MOVSI	AC-1,200000+ZZ	;SETUP BR
  5509	035325	140 12 0 00 000011 		FAD	AC,AC-1		;C(AC)+C(E)
  5510	035326	312 12 0 00 000010 		CAME	AC,AC-2		;TEST SUM
  5511	035327	003 12 0 00 033403 		ER3	AC,SN		;FAD FAILED
  5512	035330	312 11 0 00 040051 		CAME	AC-1,[200000+ZZ,,0]	;VERIFY THAT C(E) IS UNCHANGED
  5513	035331	005 11 0 00 033403 		ER5	AC-1,SN		;FAILURE, C(E) WAS CLOBBERED
  5514	035332	321 14 0 00 035322 		JUMPL	AC+2,.-^D8	;LOOP ON ERROR SWITCH
  5515
  5516
  5517			033404		SN=SN+1
  5518			173400			XX=XX+1000
  5519			000010			ZZ=ZZ+ZZ
  5520						IFE	ZZ,<ZZ=1>
  5521	035333	205 10 0 00 173400 		MOVSI	AC-2,XX		;SETUP FOR COMPARISON
  5522	035334	205 12 0 00 200000 		MOVSI	AC,200000	;SETUP AC
  5523	035335	205 11 0 00 200010 		MOVSI	AC-1,200000+ZZ	;SETUP BR
  5524	035336	140 12 0 00 000011 		FAD	AC,AC-1		;C(AC)+C(E)
  5525	035337	312 12 0 00 000010 		CAME	AC,AC-2		;TEST SUM
  5526	035340	003 12 0 00 033404 		ER3	AC,SN		;FAD FAILED
  5527	035341	312 11 0 00 040052 		CAME	AC-1,[200000+ZZ,,0]	;VERIFY THAT C(E) IS UNCHANGED
  5528	035342	005 11 0 00 033404 		ER5	AC-1,SN		;FAILURE, C(E) WAS CLOBBERED
  5529	035343	321 14 0 00 035333 		JUMPL	AC+2,.-^D8	;LOOP ON ERROR SWITCH
  5530
  5531
  5532			033405		SN=SN+1
  5533			174400			XX=XX+1000
  5534			000020			ZZ=ZZ+ZZ
  5535						IFE	ZZ,<ZZ=1>
  5536	035344	205 10 0 00 174400 		MOVSI	AC-2,XX		;SETUP FOR COMPARISON
  5537	035345	205 12 0 00 200000 		MOVSI	AC,200000	;SETUP AC
  5538	035346	205 11 0 00 200020 		MOVSI	AC-1,200000+ZZ	;SETUP BR
  5539	035347	140 12 0 00 000011 		FAD	AC,AC-1		;C(AC)+C(E)
  5540	035350	312 12 0 00 000010 		CAME	AC,AC-2		;TEST SUM
  5541	035351	003 12 0 00 033405 		ER3	AC,SN		;FAD FAILED
  5542	035352	312 11 0 00 040053 		CAME	AC-1,[200000+ZZ,,0]	;VERIFY THAT C(E) IS UNCHANGED
  5543	035353	005 11 0 00 033405 		ER5	AC-1,SN		;FAILURE, C(E) WAS CLOBBERED
  5544	035354	321 14 0 00 035344 		JUMPL	AC+2,.-^D8	;LOOP ON ERROR SWITCH
  5545
  5546
  5547			033406		SN=SN+1
  5548			175400			XX=XX+1000
  5549			000040			ZZ=ZZ+ZZ
  5550						IFE	ZZ,<ZZ=1>
  5551	035355	205 10 0 00 175400 		MOVSI	AC-2,XX		;SETUP FOR COMPARISON
  5552	035356	205 12 0 00 200000 		MOVSI	AC,200000	;SETUP AC
  5553	035357	205 11 0 00 200040 		MOVSI	AC-1,200000+ZZ	;SETUP BR
  5554	035360	140 12 0 00 000011 		FAD	AC,AC-1		;C(AC)+C(E)
  5555	035361	312 12 0 00 000010 		CAME	AC,AC-2		;TEST SUM
  5556	035362	003 12 0 00 033406 		ER3	AC,SN		;FAD FAILED
  5557	035363	312 11 0 00 040054 		CAME	AC-1,[200000+ZZ,,0]	;VERIFY THAT C(E) IS UNCHANGED
  5558	035364	005 11 0 00 033406 		ER5	AC-1,SN		;FAILURE, C(E) WAS CLOBBERED
  5559	035365	321 14 0 00 035355 		JUMPL	AC+2,.-^D8	;LOOP ON ERROR SWITCH
  5560
  5561DBKCA	PDP-10 KI10 ADVANCED INSTRUCTION DIAGNOSTIC #1, VERSION 0,3 	MACRO %52(462) 10:44  9-AUG-76 PAGE 64-8
DBKCAM	MAC	26-MAY-76 16:51		PART I.E-GEN TEST-FSC,FAD,FSB AND UFA                                              SEQ 0147

  5562			033407		SN=SN+1
  5563			176400			XX=XX+1000
  5564			000100			ZZ=ZZ+ZZ
  5565						IFE	ZZ,<ZZ=1>
  5566	035366	205 10 0 00 176400 		MOVSI	AC-2,XX		;SETUP FOR COMPARISON
  5567	035367	205 12 0 00 200000 		MOVSI	AC,200000	;SETUP AC
  5568	035370	205 11 0 00 200100 		MOVSI	AC-1,200000+ZZ	;SETUP BR
  5569	035371	140 12 0 00 000011 		FAD	AC,AC-1		;C(AC)+C(E)
  5570	035372	312 12 0 00 000010 		CAME	AC,AC-2		;TEST SUM
  5571	035373	003 12 0 00 033407 		ER3	AC,SN		;FAD FAILED
  5572	035374	312 11 0 00 040055 		CAME	AC-1,[200000+ZZ,,0]	;VERIFY THAT C(E) IS UNCHANGED
  5573	035375	005 11 0 00 033407 		ER5	AC-1,SN		;FAILURE, C(E) WAS CLOBBERED
  5574	035376	321 14 0 00 035366 		JUMPL	AC+2,.-^D8	;LOOP ON ERROR SWITCH
  5575DBKCA	PDP-10 KI10 ADVANCED INSTRUCTION DIAGNOSTIC #1, VERSION 0,3 	MACRO %52(462) 10:44  9-AUG-76 PAGE 65
DBKCAM	MAC	26-MAY-76 16:51		PART I.E-GEN TEST-FSC,FAD,FSB AND UFA                                              SEQ 0148

  5576					;TEST FAD
  5577					;SET AROV, ARFOV, ARFXU FLAGS
  5578					;AR=377400000000,777700000000
  5579					;BR=377400000000,777700000000
  5580					;SUM=000400000000
  5581
  5582			000011			AC=11
  5583						SAVEAC	(1,1)^
  5584	035377	201 13 0 00 035377 		MOVEI	AC+2,.
  5585	035400	202 13 0 00 030051 		MOVEM	AC+2,TESTPC	;SETUP SUBTEST PC
  5586	035401	201 13 0 00 000013 		MOVEI	AC+2,<AC+2>&17	;INFORM ERROR ROUTINE WHICH
  5587	035402	202 13 0 00 040261 		MOVEM	AC+2,ERRLOP#	;AC IS USED FOR ITERATION^
  5588
  5589									;TEST AR OV FLAG
  5590	035403	255 10 0 00 035404 	O33500:	JFCL	10,.+1		;CLR FLAG EXEC NEXT INST
  5591	035404	205 07 0 00 000400 		MOVSI	AC-2,400	;SETUP FOR COMPARISON
  5592	035405	205 11 0 00 377400 		MOVSI	AC,377400	;SETUP AC
  5593	035406	205 10 0 00 377400 		MOVSI	AC-1,377400	;SETUP BR
  5594	035407	140 11 0 00 000010 		FAD	AC,AC-1		;C(AC)+C(E)
  5595	035410	265 12 0 00 035411 		JSP	AC+1,.+1
  5596	035411	312 11 0 00 000007 		CAME	AC,AC-2		;TEST SUM
  5597	035412	003 11 0 00 033501 		ER3	AC,33501	;FAD FAILED
  5598	035413	255 10 0 00 035415 		JFCL	10,.+2		;TEST AROV FLAG
  5599	035414	013 12 0 00 033501 		ER13	AC+1,33501	;AROV FAILED TO SET
  5600	035415	321 13 0 00 035403 		JUMPL	AC+2,O33500	;LOOP ON ERROR SWITCH
  5601
  5602									;TEST AR FOV FLAG
  5603	035416	255 01 0 00 035417 	O33600:	JFCL	1,.+1		;CLR FLAG, EXEC NEXT INST
  5604	035417	205 11 0 00 377400 		MOVSI	AC,377400	;SETUP AC
  5605	035420	205 10 0 00 377400 		MOVSI	AC-1,377400	;SETUP BR
  5606	035421	140 11 0 00 000010 		FAD	AC,AC-1		;C(AC)+C(E)
  5607	035422	265 12 0 00 035423 		JSP	AC+1,.+1
  5608	035423	255 01 0 00 035425 		JFCL	1,.+2		;TEST AR FOV FLAG
  5609	035424	013 12 0 00 033601 		ER13	AC+1,33601	;AR FOV FAILED TO SET
  5610	035425	321 13 0 00 035416 		JUMPL	AC+2,O33600	;LOOP ON ERROR SWITCH
  5611
  5612									;TEST ARFXU FLAG
  5613	035426	254 02 1 00 040056 	O33700:	JRST	2,@[.+1]	;CLR FLAG,EXEC NEXT INST
  5614	035427	205 11 0 00 777700 		MOVSI	AC,777700	;SETUP AC
  5615	035430	205 10 0 00 777700 		MOVSI	AC-1,777700	;SETUP BR
  5616	035431	140 11 0 00 000010 		FAD	AC,AC-1		;C(AC)+C(E)
  5617	035432	265 07 0 00 035433 		JSP	AC-2,.+1	;STORE FLAGS AND PC
  5618	035433	627 07 0 00 000100 		TLZN	AC-2,100	;TEST AND CLEAR BIT 11
  5619	035434	013 07 0 00 033701 		ER13	AC-2,33701	;AR FXU FAILED TO SET
  5620	035435	254 02 0 07 000003 		JRST	2,3(AC-2)	;CLEAR AR FXU
  5621	035436	321 13 0 00 035426 		JUMPL	AC+2,O33700	;LOOP ON ERROR SWITCHDBKCA	PDP-10 KI10 ADVANCED INSTRUCTION DIAGNOSTIC #1, VERSION 0,3 	MACRO %52(462) 10:44  9-AUG-76 PAGE 66
DBKCAM	MAC	26-MAY-76 16:51		PART I.E-GEN TEST-FSC,FAD,FSB AND UFA                                              SEQ 0149

  5622					;TEST FADL
  5623					;AR=200000000000
  5624					;BR=200777777777
  5625					;HIGH ORDER SUM=200777777777
  5626					;LOW ORDER SUM=0
  5627
  5628			000010			AC=10
  5629						SAVEAC	(1,1)^
  5630	035437	201 12 0 00 035437 		MOVEI	AC+2,.
  5631	035440	202 12 0 00 030051 		MOVEM	AC+2,TESTPC	;SETUP SUBTEST PC
  5632	035441	201 12 0 00 000012 		MOVEI	AC+2,<AC+2>&17	;INFORM ERROR ROUTINE WHICH
  5633	035442	202 12 0 00 040261 		MOVEM	AC+2,ERRLOP#	;AC IS USED FOR ITERATION^
  5634
  5635	035443	505 06 0 00 200777 	O34000:	HRLI	AC-2,200777	;SETUP AC-2
  5636	035444	541 06 0 00 777777 		HRRI	AC-2,-1		;FOR COMPARISON
  5637	035445	205 10 0 00 200000 		MOVSI	AC,200000	;SETUP AC
  5638	035446	505 07 0 00 200777 		HRLI	AC-1,200777	;SETUP
  5639	035447	541 07 0 00 777777 		HRRI	AC-1,-1		;BR
  5640	035450	141 10 0 00 000007 		FADL	AC,AC-1		;C(AC)+C(E)
  5641	035451	312 10 0 00 000006 		CAME	AC,AC-2		;TEST HIGH SUM
  5642	035452	003 10 0 00 034001 		ER3	AC,34001
  5643	035453	332 00 0 00 000011 		SKIPE	AC+1		;TEST LOW SUM
  5644	035454	004 11 0 00 034001 		ER4	AC+1,34001	;FADL FAILED
  5645	035455	321 12 0 00 035443 		JUMPL	AC+2,O34000	;LOOP ON ERROR SWITCHDBKCA	PDP-10 KI10 ADVANCED INSTRUCTION DIAGNOSTIC #1, VERSION 0,3 	MACRO %52(462) 10:44  9-AUG-76 PAGE 67
DBKCAM	MAC	26-MAY-76 16:51		PART I.E-GEN TEST-FSC,FAD,FSB AND UFA                                              SEQ 0150

  5646					;TEST FADL
  5647					;TEST AR35, MQ8 SHIFT CONNECTION
  5648					;AR=200000000001,2,4,10,20 ETC
  5649					;BR=201400000000, EXPONENT INCREASING
  5650					;BY 1
  5651					;HIGH ORDER SUM=C(BR)
  5652					;LOW ORDER SUM=XXX 400000, EXPONENT
  5653					;INCREASING BY 1
  5654
  5655			000007			AC=7
  5656						SAVEAC	(1,1)^
  5657	035456	201 11 0 00 035456 		MOVEI	AC+2,.
  5658	035457	202 11 0 00 030051 		MOVEM	AC+2,TESTPC	;SETUP SUBTEST PC
  5659	035460	201 11 0 00 000011 		MOVEI	AC+2,<AC+2>&17	;INFORM ERROR ROUTINE WHICH
  5660	035461	202 11 0 00 040261 		MOVEM	AC+2,ERRLOP#	;AC IS USED FOR ITERATION^
  5661
  5662			034100		SN=34100
  5663			145000			WW=145000
  5664			200400			XX=200400
  5665			000000			ZZ=0
  5666
  5667							;TEST BITS 18-35(1)
  5668					O34100:	REPEAT	^D18,<
  5669					SN=SN+1
  5670						WW=WW+1000
  5671						XX=XX+1000
  5672						ZZ=ZZ+ZZ
  5673						IFE	ZZ,<ZZ=1>
  5674						MOVSI	AC-2,400+WW	;SETUP FOR COMPARISON
  5675						HRLI	AC,200000	;SETUP
  5676						HRRI	AC,ZZ		;AC
  5677						MOVSI	AC-1,XX		;SETUP BR
  5678						FADL	AC,AC-1		;C(AC)+C(E)
  5679						CAME	AC,AC-1		;TEST HIGH SUM
  5680						ER3	AC,SN
  5681						CAME	AC+1,AC-2	;TEST LOW SUM
  5682						ER4	AC+1,SN		;FADL FAILED
  5683						JUMPL	AC+2,.-^D9	;LOOP ON ERROR SWITCH
  5684					>
  5685
  5686			034101		SN=SN+1
  5687			146000			WW=WW+1000
  5688			201400			XX=XX+1000
  5689			000000			ZZ=ZZ+ZZ
  5690			000001			IFE	ZZ,<ZZ=1>
  5691	035462	205 05 0 00 146400 		MOVSI	AC-2,400+WW	;SETUP FOR COMPARISON
  5692	035463	505 07 0 00 200000 		HRLI	AC,200000	;SETUP
  5693	035464	541 07 0 00 000001 		HRRI	AC,ZZ		;AC
  5694	035465	205 06 0 00 201400 		MOVSI	AC-1,XX		;SETUP BR
  5695	035466	141 07 0 00 000006 		FADL	AC,AC-1		;C(AC)+C(E)
  5696	035467	312 07 0 00 000006 		CAME	AC,AC-1		;TEST HIGH SUM
  5697	035470	003 07 0 00 034101 		ER3	AC,SN
  5698	035471	312 10 0 00 000005 		CAME	AC+1,AC-2	;TEST LOW SUM
  5699	035472	004 10 0 00 034101 		ER4	AC+1,SN		;FADL FAILED
  5700	035473	321 11 0 00 035462 		JUMPL	AC+2,.-^D9	;LOOP ON ERROR SWITCHDBKCA	PDP-10 KI10 ADVANCED INSTRUCTION DIAGNOSTIC #1, VERSION 0,3 	MACRO %52(462) 10:44  9-AUG-76 PAGE 67-1
DBKCAM	MAC	26-MAY-76 16:51		PART I.E-GEN TEST-FSC,FAD,FSB AND UFA                                              SEQ 0151

  5701
  5702
  5703			034102		SN=SN+1
  5704			147000			WW=WW+1000
  5705			202400			XX=XX+1000
  5706			000002			ZZ=ZZ+ZZ
  5707						IFE	ZZ,<ZZ=1>
  5708	035474	205 05 0 00 147400 		MOVSI	AC-2,400+WW	;SETUP FOR COMPARISON
  5709	035475	505 07 0 00 200000 		HRLI	AC,200000	;SETUP
  5710	035476	541 07 0 00 000002 		HRRI	AC,ZZ		;AC
  5711	035477	205 06 0 00 202400 		MOVSI	AC-1,XX		;SETUP BR
  5712	035500	141 07 0 00 000006 		FADL	AC,AC-1		;C(AC)+C(E)
  5713	035501	312 07 0 00 000006 		CAME	AC,AC-1		;TEST HIGH SUM
  5714	035502	003 07 0 00 034102 		ER3	AC,SN
  5715	035503	312 10 0 00 000005 		CAME	AC+1,AC-2	;TEST LOW SUM
  5716	035504	004 10 0 00 034102 		ER4	AC+1,SN		;FADL FAILED
  5717	035505	321 11 0 00 035474 		JUMPL	AC+2,.-^D9	;LOOP ON ERROR SWITCH
  5718
  5719
  5720			034103		SN=SN+1
  5721			150000			WW=WW+1000
  5722			203400			XX=XX+1000
  5723			000004			ZZ=ZZ+ZZ
  5724						IFE	ZZ,<ZZ=1>
  5725	035506	205 05 0 00 150400 		MOVSI	AC-2,400+WW	;SETUP FOR COMPARISON
  5726	035507	505 07 0 00 200000 		HRLI	AC,200000	;SETUP
  5727	035510	541 07 0 00 000004 		HRRI	AC,ZZ		;AC
  5728	035511	205 06 0 00 203400 		MOVSI	AC-1,XX		;SETUP BR
  5729	035512	141 07 0 00 000006 		FADL	AC,AC-1		;C(AC)+C(E)
  5730	035513	312 07 0 00 000006 		CAME	AC,AC-1		;TEST HIGH SUM
  5731	035514	003 07 0 00 034103 		ER3	AC,SN
  5732	035515	312 10 0 00 000005 		CAME	AC+1,AC-2	;TEST LOW SUM
  5733	035516	004 10 0 00 034103 		ER4	AC+1,SN		;FADL FAILED
  5734	035517	321 11 0 00 035506 		JUMPL	AC+2,.-^D9	;LOOP ON ERROR SWITCH
  5735
  5736
  5737			034104		SN=SN+1
  5738			151000			WW=WW+1000
  5739			204400			XX=XX+1000
  5740			000010			ZZ=ZZ+ZZ
  5741						IFE	ZZ,<ZZ=1>
  5742	035520	205 05 0 00 151400 		MOVSI	AC-2,400+WW	;SETUP FOR COMPARISON
  5743	035521	505 07 0 00 200000 		HRLI	AC,200000	;SETUP
  5744	035522	541 07 0 00 000010 		HRRI	AC,ZZ		;AC
  5745	035523	205 06 0 00 204400 		MOVSI	AC-1,XX		;SETUP BR
  5746	035524	141 07 0 00 000006 		FADL	AC,AC-1		;C(AC)+C(E)
  5747	035525	312 07 0 00 000006 		CAME	AC,AC-1		;TEST HIGH SUM
  5748	035526	003 07 0 00 034104 		ER3	AC,SN
  5749	035527	312 10 0 00 000005 		CAME	AC+1,AC-2	;TEST LOW SUM
  5750	035530	004 10 0 00 034104 		ER4	AC+1,SN		;FADL FAILED
  5751	035531	321 11 0 00 035520 		JUMPL	AC+2,.-^D9	;LOOP ON ERROR SWITCH
  5752
  5753
  5754			034105		SN=SN+1
  5755			152000			WW=WW+1000DBKCA	PDP-10 KI10 ADVANCED INSTRUCTION DIAGNOSTIC #1, VERSION 0,3 	MACRO %52(462) 10:44  9-AUG-76 PAGE 67-2
DBKCAM	MAC	26-MAY-76 16:51		PART I.E-GEN TEST-FSC,FAD,FSB AND UFA                                              SEQ 0152

  5756			205400			XX=XX+1000
  5757			000020			ZZ=ZZ+ZZ
  5758						IFE	ZZ,<ZZ=1>
  5759	035532	205 05 0 00 152400 		MOVSI	AC-2,400+WW	;SETUP FOR COMPARISON
  5760	035533	505 07 0 00 200000 		HRLI	AC,200000	;SETUP
  5761	035534	541 07 0 00 000020 		HRRI	AC,ZZ		;AC
  5762	035535	205 06 0 00 205400 		MOVSI	AC-1,XX		;SETUP BR
  5763	035536	141 07 0 00 000006 		FADL	AC,AC-1		;C(AC)+C(E)
  5764	035537	312 07 0 00 000006 		CAME	AC,AC-1		;TEST HIGH SUM
  5765	035540	003 07 0 00 034105 		ER3	AC,SN
  5766	035541	312 10 0 00 000005 		CAME	AC+1,AC-2	;TEST LOW SUM
  5767	035542	004 10 0 00 034105 		ER4	AC+1,SN		;FADL FAILED
  5768	035543	321 11 0 00 035532 		JUMPL	AC+2,.-^D9	;LOOP ON ERROR SWITCH
  5769
  5770
  5771			034106		SN=SN+1
  5772			153000			WW=WW+1000
  5773			206400			XX=XX+1000
  5774			000040			ZZ=ZZ+ZZ
  5775						IFE	ZZ,<ZZ=1>
  5776	035544	205 05 0 00 153400 		MOVSI	AC-2,400+WW	;SETUP FOR COMPARISON
  5777	035545	505 07 0 00 200000 		HRLI	AC,200000	;SETUP
  5778	035546	541 07 0 00 000040 		HRRI	AC,ZZ		;AC
  5779	035547	205 06 0 00 206400 		MOVSI	AC-1,XX		;SETUP BR
  5780	035550	141 07 0 00 000006 		FADL	AC,AC-1		;C(AC)+C(E)
  5781	035551	312 07 0 00 000006 		CAME	AC,AC-1		;TEST HIGH SUM
  5782	035552	003 07 0 00 034106 		ER3	AC,SN
  5783	035553	312 10 0 00 000005 		CAME	AC+1,AC-2	;TEST LOW SUM
  5784	035554	004 10 0 00 034106 		ER4	AC+1,SN		;FADL FAILED
  5785	035555	321 11 0 00 035544 		JUMPL	AC+2,.-^D9	;LOOP ON ERROR SWITCH
  5786
  5787
  5788			034107		SN=SN+1
  5789			154000			WW=WW+1000
  5790			207400			XX=XX+1000
  5791			000100			ZZ=ZZ+ZZ
  5792						IFE	ZZ,<ZZ=1>
  5793	035556	205 05 0 00 154400 		MOVSI	AC-2,400+WW	;SETUP FOR COMPARISON
  5794	035557	505 07 0 00 200000 		HRLI	AC,200000	;SETUP
  5795	035560	541 07 0 00 000100 		HRRI	AC,ZZ		;AC
  5796	035561	205 06 0 00 207400 		MOVSI	AC-1,XX		;SETUP BR
  5797	035562	141 07 0 00 000006 		FADL	AC,AC-1		;C(AC)+C(E)
  5798	035563	312 07 0 00 000006 		CAME	AC,AC-1		;TEST HIGH SUM
  5799	035564	003 07 0 00 034107 		ER3	AC,SN
  5800	035565	312 10 0 00 000005 		CAME	AC+1,AC-2	;TEST LOW SUM
  5801	035566	004 10 0 00 034107 		ER4	AC+1,SN		;FADL FAILED
  5802	035567	321 11 0 00 035556 		JUMPL	AC+2,.-^D9	;LOOP ON ERROR SWITCH
  5803
  5804
  5805			034110		SN=SN+1
  5806			155000			WW=WW+1000
  5807			210400			XX=XX+1000
  5808			000200			ZZ=ZZ+ZZ
  5809						IFE	ZZ,<ZZ=1>
  5810	035570	205 05 0 00 155400 		MOVSI	AC-2,400+WW	;SETUP FOR COMPARISONDBKCA	PDP-10 KI10 ADVANCED INSTRUCTION DIAGNOSTIC #1, VERSION 0,3 	MACRO %52(462) 10:44  9-AUG-76 PAGE 67-3
DBKCAM	MAC	26-MAY-76 16:51		PART I.E-GEN TEST-FSC,FAD,FSB AND UFA                                              SEQ 0153

  5811	035571	505 07 0 00 200000 		HRLI	AC,200000	;SETUP
  5812	035572	541 07 0 00 000200 		HRRI	AC,ZZ		;AC
  5813	035573	205 06 0 00 210400 		MOVSI	AC-1,XX		;SETUP BR
  5814	035574	141 07 0 00 000006 		FADL	AC,AC-1		;C(AC)+C(E)
  5815	035575	312 07 0 00 000006 		CAME	AC,AC-1		;TEST HIGH SUM
  5816	035576	003 07 0 00 034110 		ER3	AC,SN
  5817	035577	312 10 0 00 000005 		CAME	AC+1,AC-2	;TEST LOW SUM
  5818	035600	004 10 0 00 034110 		ER4	AC+1,SN		;FADL FAILED
  5819	035601	321 11 0 00 035570 		JUMPL	AC+2,.-^D9	;LOOP ON ERROR SWITCH
  5820
  5821
  5822			034111		SN=SN+1
  5823			156000			WW=WW+1000
  5824			211400			XX=XX+1000
  5825			000400			ZZ=ZZ+ZZ
  5826						IFE	ZZ,<ZZ=1>
  5827	035602	205 05 0 00 156400 		MOVSI	AC-2,400+WW	;SETUP FOR COMPARISON
  5828	035603	505 07 0 00 200000 		HRLI	AC,200000	;SETUP
  5829	035604	541 07 0 00 000400 		HRRI	AC,ZZ		;AC
  5830	035605	205 06 0 00 211400 		MOVSI	AC-1,XX		;SETUP BR
  5831	035606	141 07 0 00 000006 		FADL	AC,AC-1		;C(AC)+C(E)
  5832	035607	312 07 0 00 000006 		CAME	AC,AC-1		;TEST HIGH SUM
  5833	035610	003 07 0 00 034111 		ER3	AC,SN
  5834	035611	312 10 0 00 000005 		CAME	AC+1,AC-2	;TEST LOW SUM
  5835	035612	004 10 0 00 034111 		ER4	AC+1,SN		;FADL FAILED
  5836	035613	321 11 0 00 035602 		JUMPL	AC+2,.-^D9	;LOOP ON ERROR SWITCH
  5837
  5838
  5839			034112		SN=SN+1
  5840			157000			WW=WW+1000
  5841			212400			XX=XX+1000
  5842			001000			ZZ=ZZ+ZZ
  5843						IFE	ZZ,<ZZ=1>
  5844	035614	205 05 0 00 157400 		MOVSI	AC-2,400+WW	;SETUP FOR COMPARISON
  5845	035615	505 07 0 00 200000 		HRLI	AC,200000	;SETUP
  5846	035616	541 07 0 00 001000 		HRRI	AC,ZZ		;AC
  5847	035617	205 06 0 00 212400 		MOVSI	AC-1,XX		;SETUP BR
  5848	035620	141 07 0 00 000006 		FADL	AC,AC-1		;C(AC)+C(E)
  5849	035621	312 07 0 00 000006 		CAME	AC,AC-1		;TEST HIGH SUM
  5850	035622	003 07 0 00 034112 		ER3	AC,SN
  5851	035623	312 10 0 00 000005 		CAME	AC+1,AC-2	;TEST LOW SUM
  5852	035624	004 10 0 00 034112 		ER4	AC+1,SN		;FADL FAILED
  5853	035625	321 11 0 00 035614 		JUMPL	AC+2,.-^D9	;LOOP ON ERROR SWITCH
  5854
  5855
  5856			034113		SN=SN+1
  5857			160000			WW=WW+1000
  5858			213400			XX=XX+1000
  5859			002000			ZZ=ZZ+ZZ
  5860						IFE	ZZ,<ZZ=1>
  5861	035626	205 05 0 00 160400 		MOVSI	AC-2,400+WW	;SETUP FOR COMPARISON
  5862	035627	505 07 0 00 200000 		HRLI	AC,200000	;SETUP
  5863	035630	541 07 0 00 002000 		HRRI	AC,ZZ		;AC
  5864	035631	205 06 0 00 213400 		MOVSI	AC-1,XX		;SETUP BR
  5865	035632	141 07 0 00 000006 		FADL	AC,AC-1		;C(AC)+C(E)DBKCA	PDP-10 KI10 ADVANCED INSTRUCTION DIAGNOSTIC #1, VERSION 0,3 	MACRO %52(462) 10:44  9-AUG-76 PAGE 67-4
DBKCAM	MAC	26-MAY-76 16:51		PART I.E-GEN TEST-FSC,FAD,FSB AND UFA                                              SEQ 0154

  5866	035633	312 07 0 00 000006 		CAME	AC,AC-1		;TEST HIGH SUM
  5867	035634	003 07 0 00 034113 		ER3	AC,SN
  5868	035635	312 10 0 00 000005 		CAME	AC+1,AC-2	;TEST LOW SUM
  5869	035636	004 10 0 00 034113 		ER4	AC+1,SN		;FADL FAILED
  5870	035637	321 11 0 00 035626 		JUMPL	AC+2,.-^D9	;LOOP ON ERROR SWITCH
  5871
  5872
  5873			034114		SN=SN+1
  5874			161000			WW=WW+1000
  5875			214400			XX=XX+1000
  5876			004000			ZZ=ZZ+ZZ
  5877						IFE	ZZ,<ZZ=1>
  5878	035640	205 05 0 00 161400 		MOVSI	AC-2,400+WW	;SETUP FOR COMPARISON
  5879	035641	505 07 0 00 200000 		HRLI	AC,200000	;SETUP
  5880	035642	541 07 0 00 004000 		HRRI	AC,ZZ		;AC
  5881	035643	205 06 0 00 214400 		MOVSI	AC-1,XX		;SETUP BR
  5882	035644	141 07 0 00 000006 		FADL	AC,AC-1		;C(AC)+C(E)
  5883	035645	312 07 0 00 000006 		CAME	AC,AC-1		;TEST HIGH SUM
  5884	035646	003 07 0 00 034114 		ER3	AC,SN
  5885	035647	312 10 0 00 000005 		CAME	AC+1,AC-2	;TEST LOW SUM
  5886	035650	004 10 0 00 034114 		ER4	AC+1,SN		;FADL FAILED
  5887	035651	321 11 0 00 035640 		JUMPL	AC+2,.-^D9	;LOOP ON ERROR SWITCH
  5888
  5889
  5890			034115		SN=SN+1
  5891			162000			WW=WW+1000
  5892			215400			XX=XX+1000
  5893			010000			ZZ=ZZ+ZZ
  5894						IFE	ZZ,<ZZ=1>
  5895	035652	205 05 0 00 162400 		MOVSI	AC-2,400+WW	;SETUP FOR COMPARISON
  5896	035653	505 07 0 00 200000 		HRLI	AC,200000	;SETUP
  5897	035654	541 07 0 00 010000 		HRRI	AC,ZZ		;AC
  5898	035655	205 06 0 00 215400 		MOVSI	AC-1,XX		;SETUP BR
  5899	035656	141 07 0 00 000006 		FADL	AC,AC-1		;C(AC)+C(E)
  5900	035657	312 07 0 00 000006 		CAME	AC,AC-1		;TEST HIGH SUM
  5901	035660	003 07 0 00 034115 		ER3	AC,SN
  5902	035661	312 10 0 00 000005 		CAME	AC+1,AC-2	;TEST LOW SUM
  5903	035662	004 10 0 00 034115 		ER4	AC+1,SN		;FADL FAILED
  5904	035663	321 11 0 00 035652 		JUMPL	AC+2,.-^D9	;LOOP ON ERROR SWITCH
  5905
  5906
  5907			034116		SN=SN+1
  5908			163000			WW=WW+1000
  5909			216400			XX=XX+1000
  5910			020000			ZZ=ZZ+ZZ
  5911						IFE	ZZ,<ZZ=1>
  5912	035664	205 05 0 00 163400 		MOVSI	AC-2,400+WW	;SETUP FOR COMPARISON
  5913	035665	505 07 0 00 200000 		HRLI	AC,200000	;SETUP
  5914	035666	541 07 0 00 020000 		HRRI	AC,ZZ		;AC
  5915	035667	205 06 0 00 216400 		MOVSI	AC-1,XX		;SETUP BR
  5916	035670	141 07 0 00 000006 		FADL	AC,AC-1		;C(AC)+C(E)
  5917	035671	312 07 0 00 000006 		CAME	AC,AC-1		;TEST HIGH SUM
  5918	035672	003 07 0 00 034116 		ER3	AC,SN
  5919	035673	312 10 0 00 000005 		CAME	AC+1,AC-2	;TEST LOW SUM
  5920	035674	004 10 0 00 034116 		ER4	AC+1,SN		;FADL FAILEDDBKCA	PDP-10 KI10 ADVANCED INSTRUCTION DIAGNOSTIC #1, VERSION 0,3 	MACRO %52(462) 10:44  9-AUG-76 PAGE 67-5
DBKCAM	MAC	26-MAY-76 16:51		PART I.E-GEN TEST-FSC,FAD,FSB AND UFA                                              SEQ 0155

  5921	035675	321 11 0 00 035664 		JUMPL	AC+2,.-^D9	;LOOP ON ERROR SWITCH
  5922
  5923
  5924			034117		SN=SN+1
  5925			164000			WW=WW+1000
  5926			217400			XX=XX+1000
  5927			040000			ZZ=ZZ+ZZ
  5928						IFE	ZZ,<ZZ=1>
  5929	035676	205 05 0 00 164400 		MOVSI	AC-2,400+WW	;SETUP FOR COMPARISON
  5930	035677	505 07 0 00 200000 		HRLI	AC,200000	;SETUP
  5931	035700	541 07 0 00 040000 		HRRI	AC,ZZ		;AC
  5932	035701	205 06 0 00 217400 		MOVSI	AC-1,XX		;SETUP BR
  5933	035702	141 07 0 00 000006 		FADL	AC,AC-1		;C(AC)+C(E)
  5934	035703	312 07 0 00 000006 		CAME	AC,AC-1		;TEST HIGH SUM
  5935	035704	003 07 0 00 034117 		ER3	AC,SN
  5936	035705	312 10 0 00 000005 		CAME	AC+1,AC-2	;TEST LOW SUM
  5937	035706	004 10 0 00 034117 		ER4	AC+1,SN		;FADL FAILED
  5938	035707	321 11 0 00 035676 		JUMPL	AC+2,.-^D9	;LOOP ON ERROR SWITCH
  5939
  5940
  5941			034120		SN=SN+1
  5942			165000			WW=WW+1000
  5943			220400			XX=XX+1000
  5944			100000			ZZ=ZZ+ZZ
  5945						IFE	ZZ,<ZZ=1>
  5946	035710	205 05 0 00 165400 		MOVSI	AC-2,400+WW	;SETUP FOR COMPARISON
  5947	035711	505 07 0 00 200000 		HRLI	AC,200000	;SETUP
  5948	035712	541 07 0 00 100000 		HRRI	AC,ZZ		;AC
  5949	035713	205 06 0 00 220400 		MOVSI	AC-1,XX		;SETUP BR
  5950	035714	141 07 0 00 000006 		FADL	AC,AC-1		;C(AC)+C(E)
  5951	035715	312 07 0 00 000006 		CAME	AC,AC-1		;TEST HIGH SUM
  5952	035716	003 07 0 00 034120 		ER3	AC,SN
  5953	035717	312 10 0 00 000005 		CAME	AC+1,AC-2	;TEST LOW SUM
  5954	035720	004 10 0 00 034120 		ER4	AC+1,SN		;FADL FAILED
  5955	035721	321 11 0 00 035710 		JUMPL	AC+2,.-^D9	;LOOP ON ERROR SWITCH
  5956
  5957
  5958			034121		SN=SN+1
  5959			166000			WW=WW+1000
  5960			221400			XX=XX+1000
  5961			200000			ZZ=ZZ+ZZ
  5962						IFE	ZZ,<ZZ=1>
  5963	035722	205 05 0 00 166400 		MOVSI	AC-2,400+WW	;SETUP FOR COMPARISON
  5964	035723	505 07 0 00 200000 		HRLI	AC,200000	;SETUP
  5965	035724	541 07 0 00 200000 		HRRI	AC,ZZ		;AC
  5966	035725	205 06 0 00 221400 		MOVSI	AC-1,XX		;SETUP BR
  5967	035726	141 07 0 00 000006 		FADL	AC,AC-1		;C(AC)+C(E)
  5968	035727	312 07 0 00 000006 		CAME	AC,AC-1		;TEST HIGH SUM
  5969	035730	003 07 0 00 034121 		ER3	AC,SN
  5970	035731	312 10 0 00 000005 		CAME	AC+1,AC-2	;TEST LOW SUM
  5971	035732	004 10 0 00 034121 		ER4	AC+1,SN		;FADL FAILED
  5972	035733	321 11 0 00 035722 		JUMPL	AC+2,.-^D9	;LOOP ON ERROR SWITCH
  5973
  5974
  5975			034122		SN=SN+1DBKCA	PDP-10 KI10 ADVANCED INSTRUCTION DIAGNOSTIC #1, VERSION 0,3 	MACRO %52(462) 10:44  9-AUG-76 PAGE 67-6
DBKCAM	MAC	26-MAY-76 16:51		PART I.E-GEN TEST-FSC,FAD,FSB AND UFA                                              SEQ 0156

  5976			167000			WW=WW+1000
  5977			222400			XX=XX+1000
  5978			400000			ZZ=ZZ+ZZ
  5979						IFE	ZZ,<ZZ=1>
  5980	035734	205 05 0 00 167400 		MOVSI	AC-2,400+WW	;SETUP FOR COMPARISON
  5981	035735	505 07 0 00 200000 		HRLI	AC,200000	;SETUP
  5982	035736	541 07 0 00 400000 		HRRI	AC,ZZ		;AC
  5983	035737	205 06 0 00 222400 		MOVSI	AC-1,XX		;SETUP BR
  5984	035740	141 07 0 00 000006 		FADL	AC,AC-1		;C(AC)+C(E)
  5985	035741	312 07 0 00 000006 		CAME	AC,AC-1		;TEST HIGH SUM
  5986	035742	003 07 0 00 034122 		ER3	AC,SN
  5987	035743	312 10 0 00 000005 		CAME	AC+1,AC-2	;TEST LOW SUM
  5988	035744	004 10 0 00 034122 		ER4	AC+1,SN		;FADL FAILED
  5989	035745	321 11 0 00 035734 		JUMPL	AC+2,.-^D9	;LOOP ON ERROR SWITCH
  5990
  5991					PAGEDBKCA	PDP-10 KI10 ADVANCED INSTRUCTION DIAGNOSTIC #1, VERSION 0,3 	MACRO %52(462) 10:44  9-AUG-76 PAGE 67-7
DBKCAM	MAC	26-MAY-76 16:51		PART I.E-GEN TEST-FSC,FAD,FSB AND UFA                                              SEQ 0157

  5992			034200		SN=34200
  5993			000000			ZZ=0
  5994
  5995							;TEST BIT 9-17(1)
  5996					O34200:	REPEAT	^D9,<
  5997					SN=SN+1
  5998						WW=WW+1000
  5999						XX=XX+1000
  6000						ZZ=ZZ+ZZ
  6001						IFE	ZZ,<ZZ=1>
  6002						MOVSI	AC-2,400+WW	;SETUP FOR COMPARISON
  6003						MOVSI	AC,200000+ZZ	;SETUP AC
  6004						MOVSI	AC-1,XX		;SETUP BR
  6005						FADL	AC,AC-1		;C(AC)+C(E)
  6006						CAME	AC,AC-1		;TEST HIGH SUM
  6007						ER3	AC,SN
  6008						CAME	AC+1,AC-2	;TEST LOW SUM
  6009						ER4	AC+1,SN		;FADL FAILED
  6010						JUMPL	AC+2,.-^D8	;LOOP ON ERROR SWITCH
  6011					>
  6012
  6013			034201		SN=SN+1
  6014			170000			WW=WW+1000
  6015			223400			XX=XX+1000
  6016			000000			ZZ=ZZ+ZZ
  6017			000001			IFE	ZZ,<ZZ=1>
  6018	035746	205 05 0 00 170400 		MOVSI	AC-2,400+WW	;SETUP FOR COMPARISON
  6019	035747	205 07 0 00 200001 		MOVSI	AC,200000+ZZ	;SETUP AC
  6020	035750	205 06 0 00 223400 		MOVSI	AC-1,XX		;SETUP BR
  6021	035751	141 07 0 00 000006 		FADL	AC,AC-1		;C(AC)+C(E)
  6022	035752	312 07 0 00 000006 		CAME	AC,AC-1		;TEST HIGH SUM
  6023	035753	003 07 0 00 034201 		ER3	AC,SN
  6024	035754	312 10 0 00 000005 		CAME	AC+1,AC-2	;TEST LOW SUM
  6025	035755	004 10 0 00 034201 		ER4	AC+1,SN		;FADL FAILED
  6026	035756	321 11 0 00 035746 		JUMPL	AC+2,.-^D8	;LOOP ON ERROR SWITCH
  6027
  6028
  6029			034202		SN=SN+1
  6030			171000			WW=WW+1000
  6031			224400			XX=XX+1000
  6032			000002			ZZ=ZZ+ZZ
  6033						IFE	ZZ,<ZZ=1>
  6034	035757	205 05 0 00 171400 		MOVSI	AC-2,400+WW	;SETUP FOR COMPARISON
  6035	035760	205 07 0 00 200002 		MOVSI	AC,200000+ZZ	;SETUP AC
  6036	035761	205 06 0 00 224400 		MOVSI	AC-1,XX		;SETUP BR
  6037	035762	141 07 0 00 000006 		FADL	AC,AC-1		;C(AC)+C(E)
  6038	035763	312 07 0 00 000006 		CAME	AC,AC-1		;TEST HIGH SUM
  6039	035764	003 07 0 00 034202 		ER3	AC,SN
  6040	035765	312 10 0 00 000005 		CAME	AC+1,AC-2	;TEST LOW SUM
  6041	035766	004 10 0 00 034202 		ER4	AC+1,SN		;FADL FAILED
  6042	035767	321 11 0 00 035757 		JUMPL	AC+2,.-^D8	;LOOP ON ERROR SWITCH
  6043
  6044
  6045			034203		SN=SN+1
  6046			172000			WW=WW+1000DBKCA	PDP-10 KI10 ADVANCED INSTRUCTION DIAGNOSTIC #1, VERSION 0,3 	MACRO %52(462) 10:44  9-AUG-76 PAGE 67-8
DBKCAM	MAC	26-MAY-76 16:51		PART I.E-GEN TEST-FSC,FAD,FSB AND UFA                                              SEQ 0158

  6047			225400			XX=XX+1000
  6048			000004			ZZ=ZZ+ZZ
  6049						IFE	ZZ,<ZZ=1>
  6050	035770	205 05 0 00 172400 		MOVSI	AC-2,400+WW	;SETUP FOR COMPARISON
  6051	035771	205 07 0 00 200004 		MOVSI	AC,200000+ZZ	;SETUP AC
  6052	035772	205 06 0 00 225400 		MOVSI	AC-1,XX		;SETUP BR
  6053	035773	141 07 0 00 000006 		FADL	AC,AC-1		;C(AC)+C(E)
  6054	035774	312 07 0 00 000006 		CAME	AC,AC-1		;TEST HIGH SUM
  6055	035775	003 07 0 00 034203 		ER3	AC,SN
  6056	035776	312 10 0 00 000005 		CAME	AC+1,AC-2	;TEST LOW SUM
  6057	035777	004 10 0 00 034203 		ER4	AC+1,SN		;FADL FAILED
  6058	036000	321 11 0 00 035770 		JUMPL	AC+2,.-^D8	;LOOP ON ERROR SWITCH
  6059
  6060
  6061			034204		SN=SN+1
  6062			173000			WW=WW+1000
  6063			226400			XX=XX+1000
  6064			000010			ZZ=ZZ+ZZ
  6065						IFE	ZZ,<ZZ=1>
  6066	036001	205 05 0 00 173400 		MOVSI	AC-2,400+WW	;SETUP FOR COMPARISON
  6067	036002	205 07 0 00 200010 		MOVSI	AC,200000+ZZ	;SETUP AC
  6068	036003	205 06 0 00 226400 		MOVSI	AC-1,XX		;SETUP BR
  6069	036004	141 07 0 00 000006 		FADL	AC,AC-1		;C(AC)+C(E)
  6070	036005	312 07 0 00 000006 		CAME	AC,AC-1		;TEST HIGH SUM
  6071	036006	003 07 0 00 034204 		ER3	AC,SN
  6072	036007	312 10 0 00 000005 		CAME	AC+1,AC-2	;TEST LOW SUM
  6073	036010	004 10 0 00 034204 		ER4	AC+1,SN		;FADL FAILED
  6074	036011	321 11 0 00 036001 		JUMPL	AC+2,.-^D8	;LOOP ON ERROR SWITCH
  6075
  6076
  6077			034205		SN=SN+1
  6078			174000			WW=WW+1000
  6079			227400			XX=XX+1000
  6080			000020			ZZ=ZZ+ZZ
  6081						IFE	ZZ,<ZZ=1>
  6082	036012	205 05 0 00 174400 		MOVSI	AC-2,400+WW	;SETUP FOR COMPARISON
  6083	036013	205 07 0 00 200020 		MOVSI	AC,200000+ZZ	;SETUP AC
  6084	036014	205 06 0 00 227400 		MOVSI	AC-1,XX		;SETUP BR
  6085	036015	141 07 0 00 000006 		FADL	AC,AC-1		;C(AC)+C(E)
  6086	036016	312 07 0 00 000006 		CAME	AC,AC-1		;TEST HIGH SUM
  6087	036017	003 07 0 00 034205 		ER3	AC,SN
  6088	036020	312 10 0 00 000005 		CAME	AC+1,AC-2	;TEST LOW SUM
  6089	036021	004 10 0 00 034205 		ER4	AC+1,SN		;FADL FAILED
  6090	036022	321 11 0 00 036012 		JUMPL	AC+2,.-^D8	;LOOP ON ERROR SWITCH
  6091
  6092
  6093			034206		SN=SN+1
  6094			175000			WW=WW+1000
  6095			230400			XX=XX+1000
  6096			000040			ZZ=ZZ+ZZ
  6097						IFE	ZZ,<ZZ=1>
  6098	036023	205 05 0 00 175400 		MOVSI	AC-2,400+WW	;SETUP FOR COMPARISON
  6099	036024	205 07 0 00 200040 		MOVSI	AC,200000+ZZ	;SETUP AC
  6100	036025	205 06 0 00 230400 		MOVSI	AC-1,XX		;SETUP BR
  6101	036026	141 07 0 00 000006 		FADL	AC,AC-1		;C(AC)+C(E)DBKCA	PDP-10 KI10 ADVANCED INSTRUCTION DIAGNOSTIC #1, VERSION 0,3 	MACRO %52(462) 10:44  9-AUG-76 PAGE 67-9
DBKCAM	MAC	26-MAY-76 16:51		PART I.E-GEN TEST-FSC,FAD,FSB AND UFA                                              SEQ 0159

  6102	036027	312 07 0 00 000006 		CAME	AC,AC-1		;TEST HIGH SUM
  6103	036030	003 07 0 00 034206 		ER3	AC,SN
  6104	036031	312 10 0 00 000005 		CAME	AC+1,AC-2	;TEST LOW SUM
  6105	036032	004 10 0 00 034206 		ER4	AC+1,SN		;FADL FAILED
  6106	036033	321 11 0 00 036023 		JUMPL	AC+2,.-^D8	;LOOP ON ERROR SWITCH
  6107
  6108
  6109			034207		SN=SN+1
  6110			176000			WW=WW+1000
  6111			231400			XX=XX+1000
  6112			000100			ZZ=ZZ+ZZ
  6113						IFE	ZZ,<ZZ=1>
  6114	036034	205 05 0 00 176400 		MOVSI	AC-2,400+WW	;SETUP FOR COMPARISON
  6115	036035	205 07 0 00 200100 		MOVSI	AC,200000+ZZ	;SETUP AC
  6116	036036	205 06 0 00 231400 		MOVSI	AC-1,XX		;SETUP BR
  6117	036037	141 07 0 00 000006 		FADL	AC,AC-1		;C(AC)+C(E)
  6118	036040	312 07 0 00 000006 		CAME	AC,AC-1		;TEST HIGH SUM
  6119	036041	003 07 0 00 034207 		ER3	AC,SN
  6120	036042	312 10 0 00 000005 		CAME	AC+1,AC-2	;TEST LOW SUM
  6121	036043	004 10 0 00 034207 		ER4	AC+1,SN		;FADL FAILED
  6122	036044	321 11 0 00 036034 		JUMPL	AC+2,.-^D8	;LOOP ON ERROR SWITCH
  6123
  6124
  6125			034210		SN=SN+1
  6126			177000			WW=WW+1000
  6127			232400			XX=XX+1000
  6128			000200			ZZ=ZZ+ZZ
  6129						IFE	ZZ,<ZZ=1>
  6130	036045	205 05 0 00 177400 		MOVSI	AC-2,400+WW	;SETUP FOR COMPARISON
  6131	036046	205 07 0 00 200200 		MOVSI	AC,200000+ZZ	;SETUP AC
  6132	036047	205 06 0 00 232400 		MOVSI	AC-1,XX		;SETUP BR
  6133	036050	141 07 0 00 000006 		FADL	AC,AC-1		;C(AC)+C(E)
  6134	036051	312 07 0 00 000006 		CAME	AC,AC-1		;TEST HIGH SUM
  6135	036052	003 07 0 00 034210 		ER3	AC,SN
  6136	036053	312 10 0 00 000005 		CAME	AC+1,AC-2	;TEST LOW SUM
  6137	036054	004 10 0 00 034210 		ER4	AC+1,SN		;FADL FAILED
  6138	036055	321 11 0 00 036045 		JUMPL	AC+2,.-^D8	;LOOP ON ERROR SWITCH
  6139
  6140
  6141			034211		SN=SN+1
  6142			200000			WW=WW+1000
  6143			233400			XX=XX+1000
  6144			000400			ZZ=ZZ+ZZ
  6145						IFE	ZZ,<ZZ=1>
  6146	036056	205 05 0 00 200400 		MOVSI	AC-2,400+WW	;SETUP FOR COMPARISON
  6147	036057	205 07 0 00 200400 		MOVSI	AC,200000+ZZ	;SETUP AC
  6148	036060	205 06 0 00 233400 		MOVSI	AC-1,XX		;SETUP BR
  6149	036061	141 07 0 00 000006 		FADL	AC,AC-1		;C(AC)+C(E)
  6150	036062	312 07 0 00 000006 		CAME	AC,AC-1		;TEST HIGH SUM
  6151	036063	003 07 0 00 034211 		ER3	AC,SN
  6152	036064	312 10 0 00 000005 		CAME	AC+1,AC-2	;TEST LOW SUM
  6153	036065	004 10 0 00 034211 		ER4	AC+1,SN		;FADL FAILED
  6154	036066	321 11 0 00 036056 		JUMPL	AC+2,.-^D8	;LOOP ON ERROR SWITCH
  6155DBKCA	PDP-10 KI10 ADVANCED INSTRUCTION DIAGNOSTIC #1, VERSION 0,3 	MACRO %52(462) 10:44  9-AUG-76 PAGE 68
DBKCAM	MAC	26-MAY-76 16:51		PART I.E-GEN TEST-FSC,FAD,FSB AND UFA                                              SEQ 0160

  6156					;TEST FADL
  6157					;NR SHRT COND
  6158					;TEST AR35, MQ8 SHIFT CONN
  6159					;AR=200400000000
  6160					;BR=200400000001
  6161					;HIGH SUM=201400000000
  6162					;LOW SUM=146400000000
  6163
  6164			000006			AC=6
  6165						SAVEAC	(1,1)^
  6166	036067	201 10 0 00 036067 		MOVEI	AC+2,.
  6167	036070	202 10 0 00 030051 		MOVEM	AC+2,TESTPC	;SETUP SUBTEST PC
  6168	036071	201 10 0 00 000010 		MOVEI	AC+2,<AC+2>&17	;INFORM ERROR ROUTINE WHICH
  6169	036072	202 10 0 00 040261 		MOVEM	AC+2,ERRLOP#	;AC IS USED FOR ITERATION^
  6170
  6171	036073	205 04 0 00 201400 	O34300:	MOVSI	AC-2,201400	;SETUP FOR COMPARISON
  6172	036074	205 06 0 00 200400 		MOVSI	AC,200400	;SETUP AC
  6173	036075	505 05 0 00 200400 		HRLI	AC-1,200400	;SETUP
  6174	036076	541 05 0 00 000001 		HRRI	AC-1,1		;BR
  6175	036077	141 06 0 00 000005 		FADL	AC,AC-1		;C(AC)+C(E)
  6176	036100	312 06 0 00 000004 		CAME	AC,AC-2		;TEST HIGH SUM
  6177	036101	003 06 0 00 034301 		ER3	AC,34301	;HIGH SUM ERROR
  6178	036102	205 04 0 00 146400 		MOVSI	AC-2,146400	;SETUP FOR COMPARISON
  6179	036103	312 07 0 00 000004 		CAME	AC+1,AC-2	;TEST LOW SUM
  6180	036104	004 07 0 00 034301 		ER4	AC+1,34301	;LOW SUM ERROR
  6181	036105	312 05 0 00 040057 		CAME	AC-1,[200400,,1]	;VERIFY THAT C(E) IS UNCHANGED
  6182	036106	005 05 0 00 034301 		ER5	AC-1,34301	;FAILURE, C(E) WAS CLOBBERED
  6183	036107	321 10 0 00 036073 		JUMPL	AC+2,O34300	;LOOP ON ERROR SWITCH
  6184
  6185					;TEST FADM
  6186					;AR=200400000000 (+1/2)
  6187					;BR=201400000000 (+1)
  6188					;SUM=201600000000 (+1 1/2)
  6189
  6190			000014			AC=14
  6191						SAVEAC	(1,1)^
  6192	036110	201 16 0 00 036110 		MOVEI	AC+2,.
  6193	036111	202 16 0 00 030051 		MOVEM	AC+2,TESTPC	;SETUP SUBTEST PC
  6194	036112	201 16 0 00 000016 		MOVEI	AC+2,<AC+2>&17	;INFORM ERROR ROUTINE WHICH
  6195	036113	202 16 0 00 040261 		MOVEM	AC+2,ERRLOP#	;AC IS USED FOR ITERATION^
  6196
  6197	036114	205 12 0 00 201600 	O34400:	MOVSI	AC-2,201600	;SETUP FOR COMPARISON
  6198	036115	205 14 0 00 200400 		MOVSI	AC,200400	;SETUP AC
  6199	036116	205 13 0 00 201400 		MOVSI	AC-1,201400	;SETUP BR
  6200	036117	142 14 0 00 000013 		FADM	AC,AC-1		;C(AC)+C(E)
  6201	036120	312 13 0 00 000012 		CAME	AC-1,AC-2	;TEST SUM
  6202	036121	005 13 0 00 034401 		ER5	AC-1,34401	;FADM FAILED
  6203	036122	312 14 0 00 040060 		CAME	AC,[200400,,0]	;VERIFY THAT C(AC) IS UNCHANGED
  6204	036123	003 14 0 00 034401 		ER3	AC,34401	;FAILURE, C(AC) WAS CLOBBERED
  6205	036124	321 16 0 00 036114 		JUMPL	AC+2,O34400	;LOOP ON ERROR SWITCH
  6206					PAGEDBKCA	PDP-10 KI10 ADVANCED INSTRUCTION DIAGNOSTIC #1, VERSION 0,3 	MACRO %52(462) 10:44  9-AUG-76 PAGE 68-1
DBKCAM	MAC	26-MAY-76 16:51		PART I.E-GEN TEST-FSC,FAD,FSB AND UFA                                              SEQ 0161

  6207					;TEST FADB
  6208					;AR=200400000000 (+1/2)
  6209					;BR=201400000000 (+1)
  6210					;SUM =201600000000 (+1 1/2)
  6211
  6212			000014			AC=14
  6213						SAVEAC	(1,1)^
  6214	036125	201 16 0 00 036125 		MOVEI	AC+2,.
  6215	036126	202 16 0 00 030051 		MOVEM	AC+2,TESTPC	;SETUP SUBTEST PC
  6216	036127	201 16 0 00 000016 		MOVEI	AC+2,<AC+2>&17	;INFORM ERROR ROUTINE WHICH
  6217	036130	202 16 0 00 040261 		MOVEM	AC+2,ERRLOP#	;AC IS USED FOR ITERATION^
  6218
  6219	036131	205 12 0 00 201600 	O34500:	MOVSI	AC-2,201600	;SETUP FOR COMPARISON
  6220	036132	205 14 0 00 200400 		MOVSI	AC,200400	;SETUP AC
  6221	036133	205 13 0 00 201400 		MOVSI	AC-1,201400	;SETUP BR
  6222	036134	143 14 0 00 000013 		FADB	AC,AC-1		;C(AC)+C(E)
  6223	036135	312 14 0 00 000012 		CAME	AC,AC-2		;TEST C(AC)
  6224	036136	003 14 0 00 034501 		ER3	AC,34501
  6225	036137	312 13 0 00 000012 		CAME	AC-1,AC-2	;TEST C(E)
  6226	036140	005 13 0 00 034501 		ER5	AC-1,34501	;FADB FAILED
  6227	036141	321 16 0 00 036131 		JUMPL	AC+2,O34500	;LOOP ON ERROR SWITCHDBKCA	PDP-10 KI10 ADVANCED INSTRUCTION DIAGNOSTIC #1, VERSION 0,3 	MACRO %52(462) 10:44  9-AUG-76 PAGE 69
DBKCAM	MAC	26-MAY-76 16:51		PART I.E-GEN TEST-FSC,FAD,FSB AND UFA                                              SEQ 0162

  6228					;TEST FADR
  6229					;TEST ROUNDING
  6230					;AR=200000000003,5,11, ETC
  6231					;BR=202400000000, EXPONENT INCREASING BY 1
  6232					;SUM=C(BR)+1
  6233
  6234			000013			AC=13
  6235						SAVEAC	(1,1)^
  6236	036142	201 15 0 00 036142 		MOVEI	AC+2,.
  6237	036143	202 15 0 00 030051 		MOVEM	AC+2,TESTPC	;SETUP SUBTEST PC
  6238	036144	201 15 0 00 000015 		MOVEI	AC+2,<AC+2>&17	;INFORM ERROR ROUTINE WHICH
  6239	036145	202 15 0 00 040261 		MOVEM	AC+2,ERRLOP#	;AC IS USED FOR ITERATION^
  6240
  6241			034600		SN=34600
  6242			201400			XX=201400
  6243			000001			ZZ=1
  6244
  6245							;TEST MQ RIGHT
  6246					O34600:	REPEAT  ^D17,<
  6247					SN=SN+1
  6248						XX=XX+1000
  6249						ZZ=ZZ+ZZ
  6250						HRLI	AC-2,XX		;SETUP AC-2
  6251						HRRI	AC-2,1		;FOR COMPARISON
  6252						HRLI	AC,200000	;SETUP
  6253						HRRI	AC,ZZ		;AC
  6254						AOJ	AC,		;SET BIT 35
  6255						MOVSI	AC-1,XX		;SETUP BR
  6256						FADR	AC,AC-1		;C(AC)+C(E)
  6257						CAME	AC,AC-2		;TEST SUM
  6258						ER3	AC,SN		;FADR FAILED
  6259						CAME	AC-1,[XX,,0]	;VERIFY THAT C(E) IS UNCHANGED
  6260						ER5	AC-1,SN		;FAILURE, C(E) WAS CLOBBERED
  6261						JUMPL	AC+2,.-^D11	;LOOP ON ERROR SWITCH
  6262					>
  6263
  6264			034601		SN=SN+1
  6265			202400			XX=XX+1000
  6266			000002			ZZ=ZZ+ZZ
  6267	036146	505 11 0 00 202400 		HRLI	AC-2,XX		;SETUP AC-2
  6268	036147	541 11 0 00 000001 		HRRI	AC-2,1		;FOR COMPARISON
  6269	036150	505 13 0 00 200000 		HRLI	AC,200000	;SETUP
  6270	036151	541 13 0 00 000002 		HRRI	AC,ZZ		;AC
  6271	036152	340 13 0 00 000000 		AOJ	AC,		;SET BIT 35
  6272	036153	205 12 0 00 202400 		MOVSI	AC-1,XX		;SETUP BR
  6273	036154	144 13 0 00 000012 		FADR	AC,AC-1		;C(AC)+C(E)
  6274	036155	312 13 0 00 000011 		CAME	AC,AC-2		;TEST SUM
  6275	036156	003 13 0 00 034601 		ER3	AC,SN		;FADR FAILED
  6276	036157	312 12 0 00 040061 		CAME	AC-1,[XX,,0]	;VERIFY THAT C(E) IS UNCHANGED
  6277	036160	005 12 0 00 034601 		ER5	AC-1,SN		;FAILURE, C(E) WAS CLOBBERED
  6278	036161	321 15 0 00 036146 		JUMPL	AC+2,.-^D11	;LOOP ON ERROR SWITCH
  6279
  6280
  6281			034602		SN=SN+1
  6282			203400			XX=XX+1000DBKCA	PDP-10 KI10 ADVANCED INSTRUCTION DIAGNOSTIC #1, VERSION 0,3 	MACRO %52(462) 10:44  9-AUG-76 PAGE 69-1
DBKCAM	MAC	26-MAY-76 16:51		PART I.E-GEN TEST-FSC,FAD,FSB AND UFA                                              SEQ 0163

  6283			000004			ZZ=ZZ+ZZ
  6284	036162	505 11 0 00 203400 		HRLI	AC-2,XX		;SETUP AC-2
  6285	036163	541 11 0 00 000001 		HRRI	AC-2,1		;FOR COMPARISON
  6286	036164	505 13 0 00 200000 		HRLI	AC,200000	;SETUP
  6287	036165	541 13 0 00 000004 		HRRI	AC,ZZ		;AC
  6288	036166	340 13 0 00 000000 		AOJ	AC,		;SET BIT 35
  6289	036167	205 12 0 00 203400 		MOVSI	AC-1,XX		;SETUP BR
  6290	036170	144 13 0 00 000012 		FADR	AC,AC-1		;C(AC)+C(E)
  6291	036171	312 13 0 00 000011 		CAME	AC,AC-2		;TEST SUM
  6292	036172	003 13 0 00 034602 		ER3	AC,SN		;FADR FAILED
  6293	036173	312 12 0 00 040062 		CAME	AC-1,[XX,,0]	;VERIFY THAT C(E) IS UNCHANGED
  6294	036174	005 12 0 00 034602 		ER5	AC-1,SN		;FAILURE, C(E) WAS CLOBBERED
  6295	036175	321 15 0 00 036162 		JUMPL	AC+2,.-^D11	;LOOP ON ERROR SWITCH
  6296
  6297
  6298			034603		SN=SN+1
  6299			204400			XX=XX+1000
  6300			000010			ZZ=ZZ+ZZ
  6301	036176	505 11 0 00 204400 		HRLI	AC-2,XX		;SETUP AC-2
  6302	036177	541 11 0 00 000001 		HRRI	AC-2,1		;FOR COMPARISON
  6303	036200	505 13 0 00 200000 		HRLI	AC,200000	;SETUP
  6304	036201	541 13 0 00 000010 		HRRI	AC,ZZ		;AC
  6305	036202	340 13 0 00 000000 		AOJ	AC,		;SET BIT 35
  6306	036203	205 12 0 00 204400 		MOVSI	AC-1,XX		;SETUP BR
  6307	036204	144 13 0 00 000012 		FADR	AC,AC-1		;C(AC)+C(E)
  6308	036205	312 13 0 00 000011 		CAME	AC,AC-2		;TEST SUM
  6309	036206	003 13 0 00 034603 		ER3	AC,SN		;FADR FAILED
  6310	036207	312 12 0 00 040063 		CAME	AC-1,[XX,,0]	;VERIFY THAT C(E) IS UNCHANGED
  6311	036210	005 12 0 00 034603 		ER5	AC-1,SN		;FAILURE, C(E) WAS CLOBBERED
  6312	036211	321 15 0 00 036176 		JUMPL	AC+2,.-^D11	;LOOP ON ERROR SWITCH
  6313
  6314
  6315			034604		SN=SN+1
  6316			205400			XX=XX+1000
  6317			000020			ZZ=ZZ+ZZ
  6318	036212	505 11 0 00 205400 		HRLI	AC-2,XX		;SETUP AC-2
  6319	036213	541 11 0 00 000001 		HRRI	AC-2,1		;FOR COMPARISON
  6320	036214	505 13 0 00 200000 		HRLI	AC,200000	;SETUP
  6321	036215	541 13 0 00 000020 		HRRI	AC,ZZ		;AC
  6322	036216	340 13 0 00 000000 		AOJ	AC,		;SET BIT 35
  6323	036217	205 12 0 00 205400 		MOVSI	AC-1,XX		;SETUP BR
  6324	036220	144 13 0 00 000012 		FADR	AC,AC-1		;C(AC)+C(E)
  6325	036221	312 13 0 00 000011 		CAME	AC,AC-2		;TEST SUM
  6326	036222	003 13 0 00 034604 		ER3	AC,SN		;FADR FAILED
  6327	036223	312 12 0 00 040064 		CAME	AC-1,[XX,,0]	;VERIFY THAT C(E) IS UNCHANGED
  6328	036224	005 12 0 00 034604 		ER5	AC-1,SN		;FAILURE, C(E) WAS CLOBBERED
  6329	036225	321 15 0 00 036212 		JUMPL	AC+2,.-^D11	;LOOP ON ERROR SWITCH
  6330
  6331
  6332			034605		SN=SN+1
  6333			206400			XX=XX+1000
  6334			000040			ZZ=ZZ+ZZ
  6335	036226	505 11 0 00 206400 		HRLI	AC-2,XX		;SETUP AC-2
  6336	036227	541 11 0 00 000001 		HRRI	AC-2,1		;FOR COMPARISON
  6337	036230	505 13 0 00 200000 		HRLI	AC,200000	;SETUPDBKCA	PDP-10 KI10 ADVANCED INSTRUCTION DIAGNOSTIC #1, VERSION 0,3 	MACRO %52(462) 10:44  9-AUG-76 PAGE 69-2
DBKCAM	MAC	26-MAY-76 16:51		PART I.E-GEN TEST-FSC,FAD,FSB AND UFA                                              SEQ 0164

  6338	036231	541 13 0 00 000040 		HRRI	AC,ZZ		;AC
  6339	036232	340 13 0 00 000000 		AOJ	AC,		;SET BIT 35
  6340	036233	205 12 0 00 206400 		MOVSI	AC-1,XX		;SETUP BR
  6341	036234	144 13 0 00 000012 		FADR	AC,AC-1		;C(AC)+C(E)
  6342	036235	312 13 0 00 000011 		CAME	AC,AC-2		;TEST SUM
  6343	036236	003 13 0 00 034605 		ER3	AC,SN		;FADR FAILED
  6344	036237	312 12 0 00 040065 		CAME	AC-1,[XX,,0]	;VERIFY THAT C(E) IS UNCHANGED
  6345	036240	005 12 0 00 034605 		ER5	AC-1,SN		;FAILURE, C(E) WAS CLOBBERED
  6346	036241	321 15 0 00 036226 		JUMPL	AC+2,.-^D11	;LOOP ON ERROR SWITCH
  6347
  6348
  6349			034606		SN=SN+1
  6350			207400			XX=XX+1000
  6351			000100			ZZ=ZZ+ZZ
  6352	036242	505 11 0 00 207400 		HRLI	AC-2,XX		;SETUP AC-2
  6353	036243	541 11 0 00 000001 		HRRI	AC-2,1		;FOR COMPARISON
  6354	036244	505 13 0 00 200000 		HRLI	AC,200000	;SETUP
  6355	036245	541 13 0 00 000100 		HRRI	AC,ZZ		;AC
  6356	036246	340 13 0 00 000000 		AOJ	AC,		;SET BIT 35
  6357	036247	205 12 0 00 207400 		MOVSI	AC-1,XX		;SETUP BR
  6358	036250	144 13 0 00 000012 		FADR	AC,AC-1		;C(AC)+C(E)
  6359	036251	312 13 0 00 000011 		CAME	AC,AC-2		;TEST SUM
  6360	036252	003 13 0 00 034606 		ER3	AC,SN		;FADR FAILED
  6361	036253	312 12 0 00 040066 		CAME	AC-1,[XX,,0]	;VERIFY THAT C(E) IS UNCHANGED
  6362	036254	005 12 0 00 034606 		ER5	AC-1,SN		;FAILURE, C(E) WAS CLOBBERED
  6363	036255	321 15 0 00 036242 		JUMPL	AC+2,.-^D11	;LOOP ON ERROR SWITCH
  6364
  6365
  6366			034607		SN=SN+1
  6367			210400			XX=XX+1000
  6368			000200			ZZ=ZZ+ZZ
  6369	036256	505 11 0 00 210400 		HRLI	AC-2,XX		;SETUP AC-2
  6370	036257	541 11 0 00 000001 		HRRI	AC-2,1		;FOR COMPARISON
  6371	036260	505 13 0 00 200000 		HRLI	AC,200000	;SETUP
  6372	036261	541 13 0 00 000200 		HRRI	AC,ZZ		;AC
  6373	036262	340 13 0 00 000000 		AOJ	AC,		;SET BIT 35
  6374	036263	205 12 0 00 210400 		MOVSI	AC-1,XX		;SETUP BR
  6375	036264	144 13 0 00 000012 		FADR	AC,AC-1		;C(AC)+C(E)
  6376	036265	312 13 0 00 000011 		CAME	AC,AC-2		;TEST SUM
  6377	036266	003 13 0 00 034607 		ER3	AC,SN		;FADR FAILED
  6378	036267	312 12 0 00 040067 		CAME	AC-1,[XX,,0]	;VERIFY THAT C(E) IS UNCHANGED
  6379	036270	005 12 0 00 034607 		ER5	AC-1,SN		;FAILURE, C(E) WAS CLOBBERED
  6380	036271	321 15 0 00 036256 		JUMPL	AC+2,.-^D11	;LOOP ON ERROR SWITCH
  6381
  6382
  6383			034610		SN=SN+1
  6384			211400			XX=XX+1000
  6385			000400			ZZ=ZZ+ZZ
  6386	036272	505 11 0 00 211400 		HRLI	AC-2,XX		;SETUP AC-2
  6387	036273	541 11 0 00 000001 		HRRI	AC-2,1		;FOR COMPARISON
  6388	036274	505 13 0 00 200000 		HRLI	AC,200000	;SETUP
  6389	036275	541 13 0 00 000400 		HRRI	AC,ZZ		;AC
  6390	036276	340 13 0 00 000000 		AOJ	AC,		;SET BIT 35
  6391	036277	205 12 0 00 211400 		MOVSI	AC-1,XX		;SETUP BR
  6392	036300	144 13 0 00 000012 		FADR	AC,AC-1		;C(AC)+C(E)DBKCA	PDP-10 KI10 ADVANCED INSTRUCTION DIAGNOSTIC #1, VERSION 0,3 	MACRO %52(462) 10:44  9-AUG-76 PAGE 69-3
DBKCAM	MAC	26-MAY-76 16:51		PART I.E-GEN TEST-FSC,FAD,FSB AND UFA                                              SEQ 0165

  6393	036301	312 13 0 00 000011 		CAME	AC,AC-2		;TEST SUM
  6394	036302	003 13 0 00 034610 		ER3	AC,SN		;FADR FAILED
  6395	036303	312 12 0 00 040070 		CAME	AC-1,[XX,,0]	;VERIFY THAT C(E) IS UNCHANGED
  6396	036304	005 12 0 00 034610 		ER5	AC-1,SN		;FAILURE, C(E) WAS CLOBBERED
  6397	036305	321 15 0 00 036272 		JUMPL	AC+2,.-^D11	;LOOP ON ERROR SWITCH
  6398
  6399
  6400			034611		SN=SN+1
  6401			212400			XX=XX+1000
  6402			001000			ZZ=ZZ+ZZ
  6403	036306	505 11 0 00 212400 		HRLI	AC-2,XX		;SETUP AC-2
  6404	036307	541 11 0 00 000001 		HRRI	AC-2,1		;FOR COMPARISON
  6405	036310	505 13 0 00 200000 		HRLI	AC,200000	;SETUP
  6406	036311	541 13 0 00 001000 		HRRI	AC,ZZ		;AC
  6407	036312	340 13 0 00 000000 		AOJ	AC,		;SET BIT 35
  6408	036313	205 12 0 00 212400 		MOVSI	AC-1,XX		;SETUP BR
  6409	036314	144 13 0 00 000012 		FADR	AC,AC-1		;C(AC)+C(E)
  6410	036315	312 13 0 00 000011 		CAME	AC,AC-2		;TEST SUM
  6411	036316	003 13 0 00 034611 		ER3	AC,SN		;FADR FAILED
  6412	036317	312 12 0 00 040071 		CAME	AC-1,[XX,,0]	;VERIFY THAT C(E) IS UNCHANGED
  6413	036320	005 12 0 00 034611 		ER5	AC-1,SN		;FAILURE, C(E) WAS CLOBBERED
  6414	036321	321 15 0 00 036306 		JUMPL	AC+2,.-^D11	;LOOP ON ERROR SWITCH
  6415
  6416
  6417			034612		SN=SN+1
  6418			213400			XX=XX+1000
  6419			002000			ZZ=ZZ+ZZ
  6420	036322	505 11 0 00 213400 		HRLI	AC-2,XX		;SETUP AC-2
  6421	036323	541 11 0 00 000001 		HRRI	AC-2,1		;FOR COMPARISON
  6422	036324	505 13 0 00 200000 		HRLI	AC,200000	;SETUP
  6423	036325	541 13 0 00 002000 		HRRI	AC,ZZ		;AC
  6424	036326	340 13 0 00 000000 		AOJ	AC,		;SET BIT 35
  6425	036327	205 12 0 00 213400 		MOVSI	AC-1,XX		;SETUP BR
  6426	036330	144 13 0 00 000012 		FADR	AC,AC-1		;C(AC)+C(E)
  6427	036331	312 13 0 00 000011 		CAME	AC,AC-2		;TEST SUM
  6428	036332	003 13 0 00 034612 		ER3	AC,SN		;FADR FAILED
  6429	036333	312 12 0 00 040072 		CAME	AC-1,[XX,,0]	;VERIFY THAT C(E) IS UNCHANGED
  6430	036334	005 12 0 00 034612 		ER5	AC-1,SN		;FAILURE, C(E) WAS CLOBBERED
  6431	036335	321 15 0 00 036322 		JUMPL	AC+2,.-^D11	;LOOP ON ERROR SWITCH
  6432
  6433
  6434			034613		SN=SN+1
  6435			214400			XX=XX+1000
  6436			004000			ZZ=ZZ+ZZ
  6437	036336	505 11 0 00 214400 		HRLI	AC-2,XX		;SETUP AC-2
  6438	036337	541 11 0 00 000001 		HRRI	AC-2,1		;FOR COMPARISON
  6439	036340	505 13 0 00 200000 		HRLI	AC,200000	;SETUP
  6440	036341	541 13 0 00 004000 		HRRI	AC,ZZ		;AC
  6441	036342	340 13 0 00 000000 		AOJ	AC,		;SET BIT 35
  6442	036343	205 12 0 00 214400 		MOVSI	AC-1,XX		;SETUP BR
  6443	036344	144 13 0 00 000012 		FADR	AC,AC-1		;C(AC)+C(E)
  6444	036345	312 13 0 00 000011 		CAME	AC,AC-2		;TEST SUM
  6445	036346	003 13 0 00 034613 		ER3	AC,SN		;FADR FAILED
  6446	036347	312 12 0 00 040073 		CAME	AC-1,[XX,,0]	;VERIFY THAT C(E) IS UNCHANGED
  6447	036350	005 12 0 00 034613 		ER5	AC-1,SN		;FAILURE, C(E) WAS CLOBBEREDDBKCA	PDP-10 KI10 ADVANCED INSTRUCTION DIAGNOSTIC #1, VERSION 0,3 	MACRO %52(462) 10:44  9-AUG-76 PAGE 69-4
DBKCAM	MAC	26-MAY-76 16:51		PART I.E-GEN TEST-FSC,FAD,FSB AND UFA                                              SEQ 0166

  6448	036351	321 15 0 00 036336 		JUMPL	AC+2,.-^D11	;LOOP ON ERROR SWITCH
  6449
  6450
  6451			034614		SN=SN+1
  6452			215400			XX=XX+1000
  6453			010000			ZZ=ZZ+ZZ
  6454	036352	505 11 0 00 215400 		HRLI	AC-2,XX		;SETUP AC-2
  6455	036353	541 11 0 00 000001 		HRRI	AC-2,1		;FOR COMPARISON
  6456	036354	505 13 0 00 200000 		HRLI	AC,200000	;SETUP
  6457	036355	541 13 0 00 010000 		HRRI	AC,ZZ		;AC
  6458	036356	340 13 0 00 000000 		AOJ	AC,		;SET BIT 35
  6459	036357	205 12 0 00 215400 		MOVSI	AC-1,XX		;SETUP BR
  6460	036360	144 13 0 00 000012 		FADR	AC,AC-1		;C(AC)+C(E)
  6461	036361	312 13 0 00 000011 		CAME	AC,AC-2		;TEST SUM
  6462	036362	003 13 0 00 034614 		ER3	AC,SN		;FADR FAILED
  6463	036363	312 12 0 00 040074 		CAME	AC-1,[XX,,0]	;VERIFY THAT C(E) IS UNCHANGED
  6464	036364	005 12 0 00 034614 		ER5	AC-1,SN		;FAILURE, C(E) WAS CLOBBERED
  6465	036365	321 15 0 00 036352 		JUMPL	AC+2,.-^D11	;LOOP ON ERROR SWITCH
  6466
  6467
  6468			034615		SN=SN+1
  6469			216400			XX=XX+1000
  6470			020000			ZZ=ZZ+ZZ
  6471	036366	505 11 0 00 216400 		HRLI	AC-2,XX		;SETUP AC-2
  6472	036367	541 11 0 00 000001 		HRRI	AC-2,1		;FOR COMPARISON
  6473	036370	505 13 0 00 200000 		HRLI	AC,200000	;SETUP
  6474	036371	541 13 0 00 020000 		HRRI	AC,ZZ		;AC
  6475	036372	340 13 0 00 000000 		AOJ	AC,		;SET BIT 35
  6476	036373	205 12 0 00 216400 		MOVSI	AC-1,XX		;SETUP BR
  6477	036374	144 13 0 00 000012 		FADR	AC,AC-1		;C(AC)+C(E)
  6478	036375	312 13 0 00 000011 		CAME	AC,AC-2		;TEST SUM
  6479	036376	003 13 0 00 034615 		ER3	AC,SN		;FADR FAILED
  6480	036377	312 12 0 00 040075 		CAME	AC-1,[XX,,0]	;VERIFY THAT C(E) IS UNCHANGED
  6481	036400	005 12 0 00 034615 		ER5	AC-1,SN		;FAILURE, C(E) WAS CLOBBERED
  6482	036401	321 15 0 00 036366 		JUMPL	AC+2,.-^D11	;LOOP ON ERROR SWITCH
  6483
  6484
  6485			034616		SN=SN+1
  6486			217400			XX=XX+1000
  6487			040000			ZZ=ZZ+ZZ
  6488	036402	505 11 0 00 217400 		HRLI	AC-2,XX		;SETUP AC-2
  6489	036403	541 11 0 00 000001 		HRRI	AC-2,1		;FOR COMPARISON
  6490	036404	505 13 0 00 200000 		HRLI	AC,200000	;SETUP
  6491	036405	541 13 0 00 040000 		HRRI	AC,ZZ		;AC
  6492	036406	340 13 0 00 000000 		AOJ	AC,		;SET BIT 35
  6493	036407	205 12 0 00 217400 		MOVSI	AC-1,XX		;SETUP BR
  6494	036410	144 13 0 00 000012 		FADR	AC,AC-1		;C(AC)+C(E)
  6495	036411	312 13 0 00 000011 		CAME	AC,AC-2		;TEST SUM
  6496	036412	003 13 0 00 034616 		ER3	AC,SN		;FADR FAILED
  6497	036413	312 12 0 00 040076 		CAME	AC-1,[XX,,0]	;VERIFY THAT C(E) IS UNCHANGED
  6498	036414	005 12 0 00 034616 		ER5	AC-1,SN		;FAILURE, C(E) WAS CLOBBERED
  6499	036415	321 15 0 00 036402 		JUMPL	AC+2,.-^D11	;LOOP ON ERROR SWITCH
  6500
  6501
  6502			034617		SN=SN+1DBKCA	PDP-10 KI10 ADVANCED INSTRUCTION DIAGNOSTIC #1, VERSION 0,3 	MACRO %52(462) 10:44  9-AUG-76 PAGE 69-5
DBKCAM	MAC	26-MAY-76 16:51		PART I.E-GEN TEST-FSC,FAD,FSB AND UFA                                              SEQ 0167

  6503			220400			XX=XX+1000
  6504			100000			ZZ=ZZ+ZZ
  6505	036416	505 11 0 00 220400 		HRLI	AC-2,XX		;SETUP AC-2
  6506	036417	541 11 0 00 000001 		HRRI	AC-2,1		;FOR COMPARISON
  6507	036420	505 13 0 00 200000 		HRLI	AC,200000	;SETUP
  6508	036421	541 13 0 00 100000 		HRRI	AC,ZZ		;AC
  6509	036422	340 13 0 00 000000 		AOJ	AC,		;SET BIT 35
  6510	036423	205 12 0 00 220400 		MOVSI	AC-1,XX		;SETUP BR
  6511	036424	144 13 0 00 000012 		FADR	AC,AC-1		;C(AC)+C(E)
  6512	036425	312 13 0 00 000011 		CAME	AC,AC-2		;TEST SUM
  6513	036426	003 13 0 00 034617 		ER3	AC,SN		;FADR FAILED
  6514	036427	312 12 0 00 040077 		CAME	AC-1,[XX,,0]	;VERIFY THAT C(E) IS UNCHANGED
  6515	036430	005 12 0 00 034617 		ER5	AC-1,SN		;FAILURE, C(E) WAS CLOBBERED
  6516	036431	321 15 0 00 036416 		JUMPL	AC+2,.-^D11	;LOOP ON ERROR SWITCH
  6517
  6518
  6519			034620		SN=SN+1
  6520			221400			XX=XX+1000
  6521			200000			ZZ=ZZ+ZZ
  6522	036432	505 11 0 00 221400 		HRLI	AC-2,XX		;SETUP AC-2
  6523	036433	541 11 0 00 000001 		HRRI	AC-2,1		;FOR COMPARISON
  6524	036434	505 13 0 00 200000 		HRLI	AC,200000	;SETUP
  6525	036435	541 13 0 00 200000 		HRRI	AC,ZZ		;AC
  6526	036436	340 13 0 00 000000 		AOJ	AC,		;SET BIT 35
  6527	036437	205 12 0 00 221400 		MOVSI	AC-1,XX		;SETUP BR
  6528	036440	144 13 0 00 000012 		FADR	AC,AC-1		;C(AC)+C(E)
  6529	036441	312 13 0 00 000011 		CAME	AC,AC-2		;TEST SUM
  6530	036442	003 13 0 00 034620 		ER3	AC,SN		;FADR FAILED
  6531	036443	312 12 0 00 040100 		CAME	AC-1,[XX,,0]	;VERIFY THAT C(E) IS UNCHANGED
  6532	036444	005 12 0 00 034620 		ER5	AC-1,SN		;FAILURE, C(E) WAS CLOBBERED
  6533	036445	321 15 0 00 036432 		JUMPL	AC+2,.-^D11	;LOOP ON ERROR SWITCH
  6534
  6535
  6536			034621		SN=SN+1
  6537			222400			XX=XX+1000
  6538			400000			ZZ=ZZ+ZZ
  6539	036446	505 11 0 00 222400 		HRLI	AC-2,XX		;SETUP AC-2
  6540	036447	541 11 0 00 000001 		HRRI	AC-2,1		;FOR COMPARISON
  6541	036450	505 13 0 00 200000 		HRLI	AC,200000	;SETUP
  6542	036451	541 13 0 00 400000 		HRRI	AC,ZZ		;AC
  6543	036452	340 13 0 00 000000 		AOJ	AC,		;SET BIT 35
  6544	036453	205 12 0 00 222400 		MOVSI	AC-1,XX		;SETUP BR
  6545	036454	144 13 0 00 000012 		FADR	AC,AC-1		;C(AC)+C(E)
  6546	036455	312 13 0 00 000011 		CAME	AC,AC-2		;TEST SUM
  6547	036456	003 13 0 00 034621 		ER3	AC,SN		;FADR FAILED
  6548	036457	312 12 0 00 040101 		CAME	AC-1,[XX,,0]	;VERIFY THAT C(E) IS UNCHANGED
  6549	036460	005 12 0 00 034621 		ER5	AC-1,SN		;FAILURE, C(E) WAS CLOBBERED
  6550	036461	321 15 0 00 036446 		JUMPL	AC+2,.-^D11	;LOOP ON ERROR SWITCH
  6551
  6552					PAGEDBKCA	PDP-10 KI10 ADVANCED INSTRUCTION DIAGNOSTIC #1, VERSION 0,3 	MACRO %52(462) 10:44  9-AUG-76 PAGE 69-6
DBKCAM	MAC	26-MAY-76 16:51		PART I.E-GEN TEST-FSC,FAD,FSB AND UFA                                              SEQ 0168

  6553					;TEST FADRI
  6554					;AR=200400000003
  6555					;SUM=202500000001
  6556
  6557			000012			AC=12
  6558						SAVEAC	(1,1)^
  6559	036462	201 14 0 00 036462 		MOVEI	AC+2,.
  6560	036463	202 14 0 00 030051 		MOVEM	AC+2,TESTPC	;SETUP SUBTEST PC
  6561	036464	201 14 0 00 000014 		MOVEI	AC+2,<AC+2>&17	;INFORM ERROR ROUTINE WHICH
  6562	036465	202 14 0 00 040261 		MOVEM	AC+2,ERRLOP#	;AC IS USED FOR ITERATION^
  6563
  6564	036466	505 10 0 00 202500 	O34700:	HRLI	AC-2,202500	;SETUP AC-2
  6565	036467	541 10 0 00 000001 		HRRI	AC-2,1		;FOR COMPARISON
  6566	036470	505 12 0 00 200400 		HRLI	AC,200400	;SETUP
  6567	036471	541 12 0 00 000003 		HRRI	AC,3		;AC
  6568	036472	145 12 0 00 202400 		FADRI	AC,202400	;C(AC)+C(E)
  6569	036473	312 12 0 00 000010 		CAME	AC,AC-2		;TEST SUM
  6570	036474	003 12 0 00 034701 		ER3	AC,34701	;FADRI FAILED
  6571	036475	321 14 0 00 036466 		JUMPL	AC+2,O34700	;LOOP ON ERROR SWITCHDBKCA	PDP-10 KI10 ADVANCED INSTRUCTION DIAGNOSTIC #1, VERSION 0,3 	MACRO %52(462) 10:44  9-AUG-76 PAGE 70
DBKCAM	MAC	26-MAY-76 16:51		PART I.E-GEN TEST-FSC,FAD,FSB AND UFA                                              SEQ 0169

  6572					;TEST FSB
  6573					;TWO POSITIVES
  6574					;AR=201400000000 (+1)
  6575					;BR=177400000000 (+1/4)
  6576					;DIFF=200600000000 (+3/4)
  6577
  6578			000011			AC=11
  6579						SAVEAC	(1,1)^
  6580	036476	201 13 0 00 036476 		MOVEI	AC+2,.
  6581	036477	202 13 0 00 030051 		MOVEM	AC+2,TESTPC	;SETUP SUBTEST PC
  6582	036500	201 13 0 00 000013 		MOVEI	AC+2,<AC+2>&17	;INFORM ERROR ROUTINE WHICH
  6583	036501	202 13 0 00 040261 		MOVEM	AC+2,ERRLOP#	;AC IS USED FOR ITERATION^
  6584
  6585	036502	205 07 0 00 200600 	O35000:	MOVSI	AC-2,200600	;SETUP  FOR COMPARISON
  6586	036503	205 11 0 00 201400 		MOVSI	AC,201400	;SETUP AC
  6587	036504	205 10 0 00 177400 		MOVSI	AC-1,177400	;SETUP BR
  6588	036505	150 11 0 00 000010 		FSB	AC,AC-1		;C(AC)-C(E)
  6589	036506	312 11 0 00 000007 		CAME	AC,AC-2		;TEST DIFFERENCE
  6590	036507	003 11 0 00 035001 		ER3	AC,35001	;FSB FAILED
  6591	036510	312 10 0 00 040102 		CAME	AC-1,[177400,,0]	;VERIFY THAT C(E) IS UNCHANGED
  6592	036511	005 10 0 00 035001 		ER5	AC-1,35001	;C(E) WAS CLOBBERED
  6593	036512	321 13 0 00 036502 		JUMPL	AC+2,O35000	;LOOP ON ERROR SWITCH
  6594
  6595					;TEST FSBM
  6596					;TWO NEGATIVES
  6597					;AR=576400000000 (-1)
  6598					;BR=600400000000 (-1/4)
  6599					;DIFF=577200000000 (-3/4)
  6600
  6601			000010			AC=10
  6602						SAVEAC	(1,1)^
  6603	036513	201 12 0 00 036513 		MOVEI	AC+2,.
  6604	036514	202 12 0 00 030051 		MOVEM	AC+2,TESTPC	;SETUP SUBTEST PC
  6605	036515	201 12 0 00 000012 		MOVEI	AC+2,<AC+2>&17	;INFORM ERROR ROUTINE WHICH
  6606	036516	202 12 0 00 040261 		MOVEM	AC+2,ERRLOP#	;AC IS USED FOR ITERATION^
  6607
  6608	036517	205 06 0 00 577200 	O35100:	MOVSI	AC-2,577200	;SETUP FOR COMPARISON
  6609	036520	205 10 0 00 576400 		MOVSI	AC,576400	;SETUP AC
  6610	036521	205 07 0 00 600400 		MOVSI	AC-1,600400	;SETUP BR
  6611	036522	152 10 0 00 000007 		FSBM	AC,AC-1		;C(AC)-C(E)
  6612	036523	312 07 0 00 000006 		CAME	AC-1,AC-2	;TEST DIFFERENCE
  6613	036524	005 07 0 00 035101 		ER5	AC-1,35101	;FSBM FAILED
  6614	036525	312 10 0 00 040103 		CAME	AC,[576400,,0]	;VERIFY THAT C(AC) IS UNCHANGED
  6615	036526	003 10 0 00 035101 		ER3	AC,35101	;FAILURE, C(AC) WAS CLOBBERED
  6616	036527	321 12 0 00 036517 		JUMPL	AC+2,O35100	;LOOP ON ERROR SWITCHDBKCA	PDP-10 KI10 ADVANCED INSTRUCTION DIAGNOSTIC #1, VERSION 0,3 	MACRO %52(462) 10:44  9-AUG-76 PAGE 71
DBKCAM	MAC	26-MAY-76 16:51		PART I.E-GEN TEST-FSC,FAD,FSB AND UFA                                              SEQ 0170

  6617					;TEST FSBB
  6618					;NEGATIVE AND POSITIVE
  6619					;AR=201400000000 (+1)
  6620					;BR=577400000000 (-1/2)
  6621					;DIFF=201600000000 (+1 1/2)
  6622
  6623			000007			AC=7
  6624						SAVEAC	(1,1)^
  6625	036530	201 11 0 00 036530 		MOVEI	AC+2,.
  6626	036531	202 11 0 00 030051 		MOVEM	AC+2,TESTPC	;SETUP SUBTEST PC
  6627	036532	201 11 0 00 000011 		MOVEI	AC+2,<AC+2>&17	;INFORM ERROR ROUTINE WHICH
  6628	036533	202 11 0 00 040261 		MOVEM	AC+2,ERRLOP#	;AC IS USED FOR ITERATION^
  6629
  6630	036534	205 05 0 00 201600 	O35200:	MOVSI	AC-2,201600	;SETUP FOR COMPARISON
  6631	036535	205 07 0 00 201400 		MOVSI	AC,201400	;SETUP AC
  6632	036536	205 06 0 00 577400 		MOVSI	AC-1,577400	;SETUP BR
  6633	036537	153 07 0 00 000006 		FSBB	AC,AC-1		;C(AC)-C(E)
  6634	036540	312 07 0 00 000005 		CAME	AC,AC-2		;TEST C(AC)
  6635	036541	003 07 0 00 035201 		ER3	AC,35201
  6636	036542	312 06 0 00 000005 		CAME	AC-1,AC-2	;TEST C(E)
  6637	036543	005 06 0 00 035201 		ER5	AC-1,35201	;FSBB FAILED
  6638	036544	321 11 0 00 036534 		JUMPL	AC+2,O35200	;LOOP ON ERROR SWITCH
  6639
  6640					;TEST FSBRB
  6641					;TWO POSITIVES
  6642					;NR NORMAL
  6643					;AR=203400000000
  6644					;BR=200477777775
  6645					;DIFF=202660000001
  6646
  6647			000006			AC=6
  6648						SAVEAC	(1,1)^
  6649	036545	201 10 0 00 036545 		MOVEI	AC+2,.
  6650	036546	202 10 0 00 030051 		MOVEM	AC+2,TESTPC	;SETUP SUBTEST PC
  6651	036547	201 10 0 00 000010 		MOVEI	AC+2,<AC+2>&17	;INFORM ERROR ROUTINE WHICH
  6652	036550	202 10 0 00 040261 		MOVEM	AC+2,ERRLOP#	;AC IS USED FOR ITERATION^
  6653
  6654	036551	505 04 0 00 202660 	O35300:	HRLI	AC-2,202660	;SETUP AC-2
  6655	036552	541 04 0 00 000001 		HRRI	AC-2,1		;FOR COMPARISON
  6656	036553	205 06 0 00 203400 		MOVSI	AC,203400	;SETUP AC
  6657	036554	505 05 0 00 200477 		HRLI	AC-1,200477	;SETUP
  6658	036555	541 05 0 00 777775 		HRRI	AC-1,-3		;BR
  6659	036556	157 06 0 00 000005 		FSBRB	AC,AC-1		;C(AC)-C(E)
  6660	036557	312 06 0 00 000004 		CAME	AC,AC-2		;TEST C(AC)
  6661	036560	003 06 0 00 035301 		ER3	AC,35301
  6662	036561	312 05 0 00 000004 		CAME	AC-1,AC-2	;TEST C(E)
  6663	036562	005 05 0 00 035301 		ER5	AC-1,35301	;FSBRB FAILED
  6664	036563	321 10 0 00 036551 		JUMPL	AC+2,O35300	;LOOP ON ERROR SWITCHDBKCA	PDP-10 KI10 ADVANCED INSTRUCTION DIAGNOSTIC #1, VERSION 0,3 	MACRO %52(462) 10:44  9-AUG-76 PAGE 72
DBKCAM	MAC	26-MAY-76 16:51		PART I.E-GEN TEST-FSC,FAD,FSB AND UFA                                              SEQ 0171

  6665					;TEST UFA
  6666					;AR=200177000000
  6667					;BR=200076000000
  6668					;SUM=200275000000
  6669
  6670			000014			AC=14
  6671						SAVEAC	(1,1)^
  6672	036564	201 16 0 00 036564 		MOVEI	AC+2,.
  6673	036565	202 16 0 00 030051 		MOVEM	AC+2,TESTPC	;SETUP SUBTEST PC
  6674	036566	201 16 0 00 000016 		MOVEI	AC+2,<AC+2>&17	;INFORM ERROR ROUTINE WHICH
  6675	036567	202 16 0 00 040261 		MOVEM	AC+2,ERRLOP#	;AC IS USED FOR ITERATION^
  6676
  6677	036570	205 12 0 00 200177 	O35400:	MOVSI	AC-2,200177	;SETUP FOR COMPARISON
  6678	036571	205 14 0 00 200177 		MOVSI	AC,200177	;SETUP AC
  6679	036572	205 13 0 00 200076 		MOVSI	AC-1,200076	;SETUP BR
  6680	036573	130 14 0 00 000013 		UFA	AC,AC-1		;C(AC)+C(E)
  6681	036574	312 14 0 00 000012 		CAME	AC,AC-2		;TEST C(AC)=ORIGINAL
  6682	036575	003 14 0 00 035401 		ER3	AC,35401	;AC ERROR
  6683	036576	205 12 0 00 200275 		MOVSI	AC-2,200275	;SETUP FOR COMPARISON
  6684	036577	312 15 0 00 000012 		CAME	AC+1,AC-2	;TEST SUM
  6685	036600	004 15 0 00 035401 		ER4	AC+1,35401	;UFA FAILED
  6686	036601	312 13 0 00 040104 		CAME	AC-1,[200076,,0]	;VERIFY THAT C(E) IS UNCHANGED
  6687	036602	005 13 0 00 035401 		ER5	AC-1,35401
  6688	036603	321 16 0 00 036570 		JUMPL	AC+2,O35400	;LOOP ON ERROR SWITCHDBKCA	PDP-10 KI10 ADVANCED INSTRUCTION DIAGNOSTIC #1, VERSION 0,3 	MACRO %52(462) 10:44  9-AUG-76 PAGE 73
DBKCAM	MAC	26-MAY-76 16:51		PART I.E-GEN TEST-FSC,FAD,FSB AND UFA                                              SEQ 0172

  6689					;GENERAL TESTS TO VERIFY EFFECT OF FSC EXECUTION ON AROV, FOV AND FXU FLAGS
  6690
  6691			000004			AC=4
  6692						SAVEAC	(1,1)^
  6693	036604	201 06 0 00 036604 		MOVEI	AC+2,.
  6694	036605	202 06 0 00 030051 		MOVEM	AC+2,TESTPC	;SETUP SUBTEST PC
  6695	036606	201 06 0 00 000006 		MOVEI	AC+2,<AC+2>&17	;INFORM ERROR ROUTINE WHICH
  6696	036607	202 06 0 00 040261 		MOVEM	AC+2,ERRLOP#	;AC IS USED FOR ITERATION^
  6697
  6698	036610	254 02 1 00 036611 	O35500:	JRST	2,@.+1		;CLEAR FLAGS
  6699	036611	000000	036612				.+1
  6700	036612	205 02 0 00 377400 		MOVSI	AC-2,377400	;SETUP FOR COMPARISON
  6701	036613	205 04 0 00 377400 		MOVSI	AC,377400	;SETUP AC
  6702	036614	132 04 0 00 000000 		FSC	AC,0		;SCALE - NO FLAGS
  6703	036615	265 05 0 00 036616 		JSP	AC+1,.+1	;SAVE FLAGS
  6704	036616	312 04 0 00 000002 		CAME	AC,<AC-2>&17	;TEST C(AC) FOR NO CHANGE
  6705	036617	003 04 0 00 035501 		ER3	AC,35501	;C(AC) FAILED
  6706	036620	255 10 0 00 036622 		JOV	.+2		;EXAMINE AROV FLAG
  6707	036621	254 00 0 00 036623 		JRST	.+2
  6708	036622	013 05 0 00 035501 		ER13	AC+1,35501	;AROV FLAG WAS SET
  6709	036623	603 05 0 00 040100 		TLNE	AC+1,FOV+FXU	;EXAMINE FLAGS
  6710	036624	013 05 0 00 035501 		ER13	AC+1,35501	;A FLAG WAS SET
  6711	036625	321 06 0 00 036610 		JUMPL	AC+2,O35500	;LOOP ON ERROR SWITCH
  6712
  6713	036626	254 02 1 00 036627 	O35510:	JRST	2,@.+1		;CLEAR FLAGS
  6714	036627	000000	036630				.+1
  6715	036630	205 02 0 00 000400 		MOVSI	AC-2,400	;SETUP FOR COMPARISON
  6716	036631	205 04 0 00 377400 		MOVSI	AC,377400	;SETUP AC
  6717	036632	132 04 0 00 000001 		FSC	AC,1		;SCALE - AROV, FOV
  6718	036633	265 05 0 00 036634 		JSP	AC+1,.+1	;SAVE FLAGS
  6719	036634	312 04 0 00 000002 		CAME	AC,<AC-2>&17	;EXAMINE C(AC)
  6720	036635	003 04 0 00 035511 		ER3	AC,35511	;C(AC) FAILED
  6721	036636	255 10 0 00 036640 		JOV	.+2		;EXAMINE AROV FLAG
  6722	036637	013 05 0 00 035511 		ER13	AC+1,35511	;AROV FLAG WAS NOT SET
  6723	036640	603 05 0 00 000100 		TLNE	AC+1,FXU	;EXAMINE FXU
  6724	036641	013 05 0 00 035511 		ER13	AC+1,35511	;ERROR - FXU IS SET
  6725	036642	607 05 0 00 040000 		TLNN	AC+1,FOV	;EXAMINE FOV
  6726	036643	013 05 0 00 035511 		ER13	AC+1,35511	;ERROR - FOV NOT SET
  6727	036644	321 06 0 00 036626 		JUMPL	AC+2,O35510	;LOOP ON ERROR SWITCHDBKCA	PDP-10 KI10 ADVANCED INSTRUCTION DIAGNOSTIC #1, VERSION 0,3 	MACRO %52(462) 10:44  9-AUG-76 PAGE 74
DBKCAM	MAC	26-MAY-76 16:51		PART I.E-GEN TEST-FSC,FAD,FSB AND UFA                                              SEQ 0173

  6728
  6729	036645	254 02 1 00 036646 	O35520:	JRST	2,@.+1		;CLEAR FLAGS
  6730	036646	000000	036647				.+1
  6731	036647	205 02 0 00 177400 		MOVSI	AC-2,177400	;SETUP FOR COMPARISON
  6732	036650	205 04 0 00 377400 		MOVSI	AC,377400	;SETUP AC
  6733	036651	132 04 0 00 000200 		FSC	AC,200		;SCALE - AROV,FOV
  6734	036652	265 05 0 00 036653 		JSP	AC+1,.+1	;SAVE FLAGS
  6735	036653	312 04 0 00 000002 		CAME	AC,<AC-2>&17	;TEST C(AC)
  6736	036654	003 04 0 00 035521 		ER3	AC,35521	;C(AC) FAILED
  6737	036655	255 10 0 00 036657 		JOV	.+2		;EXAMINE AROV FLAG
  6738	036656	013 05 0 00 035521 		ER13	AC+1,35521	;AROV FLAG WAS NOT SET
  6739	036657	603 05 0 00 000100 		TLNE	AC+1,FXU	;EXAMINE FXU
  6740	036660	013 05 0 00 035521 		ER13	AC+1,35521	;FXU WAS SET
  6741	036661	607 05 0 00 040000 		TLNN	AC+1,FOV	;EXAMINE FOV
  6742	036662	013 05 0 00 035521 		ER13	AC+1,35521	;FOV WAS NOT SET
  6743	036663	321 06 0 00 036645 		JUMPL	AC+2,O35520	;LOOP ON ERROR SWITCHDBKCA	PDP-10 KI10 ADVANCED INSTRUCTION DIAGNOSTIC #1, VERSION 0,3 	MACRO %52(462) 10:44  9-AUG-76 PAGE 75
DBKCAM	MAC	26-MAY-76 16:51		PART I.E-GEN TEST-FSC,FAD,FSB AND UFA                                              SEQ 0174

  6744	036664	254 02 1 00 036665 	O35530:	JRST	2,@.+1		;CLEAR FLAGS
  6745	036665	000000	036666				.+1
  6746	036666	205 02 0 00 200400 		MOVSI	AC-2,200400	;SETUP FOR COMPARISON
  6747	036667	205 04 0 00 377400 		MOVSI	AC,377400	;SETUP AC
  6748	036670	132 04 0 00 000201 		FSC	AC,201		;SCALE - AROV,FOV
  6749	036671	265 05 0 00 036672 		JSP	AC+1,.+1	;SAVE FLAGS
  6750	036672	312 04 0 00 000002 		CAME	AC,<AC-2>&17	;TEST C(AC)
  6751	036673	003 04 0 00 035531 		ER3	AC,35531	;C(AC) FAILED
  6752	036674	255 10 0 00 036676 		JOV	.+2		;EXAMINE AROV FLAG
  6753	036675	013 05 0 00 035531 		ER13	AC+1,35531	;AROV FLAG NOT SET
  6754	036676	332 00 0 00 030041 		SKIPE	KLFLG
  6755	036677	254 00 0 00 036706 		JRST	O35535		;KL10
  6756	036700	607 05 0 00 000100 		TLNN	AC+1,FXU	;EXAMINE FXU
  6757	036701	013 05 0 00 035531 		ER13	AC+1,35531	;FXU WAS NOT SET
  6758	036702	607 05 0 00 040000 	O35537:	TLNN	AC+1,FOV	;EXAMINE FOV
  6759	036703	013 05 0 00 035531 		ER13	AC+1,35531	;FOV WAS NOT SET
  6760	036704	321 06 0 00 036664 		JUMPL	AC+2,O35530	;LOOP ON ERROR SWITCH.
  6761	036705	254 00 0 00 036711 		JRST O35540
  6762	036706	603 05 0 00 000100 	O35535:	TLNE	AC+1,FXU	;FXU SHOULD NOT BE SET ON KL10
  6763	036707	013 05 0 00 035532 		ER13	AC+1,35532
  6764	036710	254 00 0 00 036702 		JRST	O35537DBKCA	PDP-10 KI10 ADVANCED INSTRUCTION DIAGNOSTIC #1, VERSION 0,3 	MACRO %52(462) 10:44  9-AUG-76 PAGE 76
DBKCAM	MAC	26-MAY-76 16:51		PART I.E-GEN TEST-FSC,FAD,FSB AND UFA                                              SEQ 0175

  6765
  6766	036711	254 02 1 00 036712 	O35540:	JRST	2,@.+1		;CLEAR FLAGS
  6767	036712	000000	036713				.+1
  6768	036713	205 02 0 00 376400 		MOVSI	AC-2,376400	;SETUP FOR COMPARISON
  6769	036714	205 04 0 00 377400 		MOVSI	AC,377400	;SETUP AC
  6770	036715	132 04 0 00 000377 		FSC	AC,377		;SCALE - AROV, FOV
  6771	036716	265 05 0 00 036717 		JSP	AC+1,.+1	;SAVE FLAGS
  6772	036717	312 04 0 00 000002 		CAME	AC,<AC-2>&17	;TEST C(AC)
  6773	036720	003 04 0 00 035541 		ER3	AC,35541	;C(AC) FAILED
  6774	036721	255 10 0 00 036723 		JOV	.+2		;EXAMINE AROV FLAG
  6775	036722	013 05 0 00 035541 		ER13	AC+1,35541	;AROV FLAG WAS NOT SET
  6776	036723	332 00 0 00 030041 		SKIPE	KLFLG
  6777	036724	254 00 0 00 036733 		JRST	O35545		;KL10
  6778	036725	607 05 0 00 000100 		TLNN	AC+1,FXU	;EXAMINE FXU
  6779	036726	013 05 0 00 035541 		ER13	AC+1,35541	;FXU WAS NOT SET
  6780	036727	607 05 0 00 040000 	O35547:	TLNN	AC+1,FOV	;EXAMINE FOV
  6781	036730	013 05 0 00 035541 		ER13	AC+1,35541	;FOV WAS NOT SET
  6782	036731	321 06 0 00 036711 		JUMPL	AC+2,O35540	;LOOP ON ERROR SWITCH
  6783	036732	254 00 0 00 036736 		JRST	O35550
  6784	036733	603 05 0 00 000100 	O35545:	TLNE	AC+1,FXU	;FXU SHOULD NOT BE SET ON KL10
  6785	036734	013 05 0 00 035542 		ER13	AC+1,35542
  6786	036735	254 00 0 00 036727 		JRST	O35547
  6787
  6788	036736	254 02 1 00 036737 	O35550:	JRST	2,@.+1		;CLEAR FLAGS
  6789	036737	000000	036740				.+1
  6790	036740	205 02 0 00 377400 		MOVSI	AC-2,377400	;SETUP FOR COMPARISON
  6791	036741	205 04 0 00 377400 		MOVSI	AC,377400	;SETUP AC
  6792	036742	132 04 0 00 000400 		FSC	AC,400		;SCALE - NO FLAGS
  6793	036743	265 05 0 00 036744 		JSP	AC+1,.+1	;SAVE FLAGS
  6794	036744	312 04 0 00 000002 		CAME	AC,<AC-2>&17	;TEST C(AC)
  6795	036745	003 04 0 00 035551 		ER3	AC,35551	;C(AC) FAILED
  6796	036746	255 10 0 00 036750 		JOV	.+2		;EXAMINE AROV FLAG
  6797	036747	254 00 0 00 036751 		JRST	.+2
  6798	036750	013 05 0 00 035551 		ER13	AC+1,35551	;AROV FLAG WAS SET
  6799	036751	603 05 0 00 040100 		TLNE	AC+1,FOV+FXU	;EXAMINE FLAGS
  6800	036752	013 05 0 00 035551 		ER13	AC+1,35551	;A FLAG WAS SET
  6801	036753	321 06 0 00 036736 		JUMPL	AC+2,O35550	;LOOP ON ERROR SWITCHDBKCA	PDP-10 KI10 ADVANCED INSTRUCTION DIAGNOSTIC #1, VERSION 0,3 	MACRO %52(462) 10:44  9-AUG-76 PAGE 77
DBKCAM	MAC	26-MAY-76 16:51		PART I.E-GEN TEST-FSC,FAD,FSB AND UFA                                              SEQ 0176

  6802	036754	254 02 1 00 036755 	O35560:	JRST	2,@.+1		;CLEAR FLAGS
  6803	036755	000000	036756				.+1
  6804	036756	205 02 0 00 000400 		MOVSI	AC-2,400	;SETUP FOR COMPARISON
  6805	036757	205 04 0 00 377400 		MOVSI	AC,377400	;SETUP AC
  6806	036760	132 04 0 00 777401 		FSC	AC,-377		;SCALE - NO FLAGS
  6807	036761	265 05 0 00 036762 		JSP	AC+1,.+1	;SAVE FLAGS
  6808	036762	312 04 0 00 000002 		CAME	AC,<AC-2>&17	;TEST C(AC)
  6809	036763	003 04 0 00 035561 		ER3	AC,35561	;C(AC) FAILED
  6810	036764	255 10 0 00 036766 		JOV	.+2		;EXAMINE AROV FLAG
  6811	036765	254 00 0 00 036767 		JRST	.+2
  6812	036766	013 05 0 00 035561 		ER13	AC+1,35561	;AROV FLAG WAS SET
  6813	036767	603 05 0 00 040100 		TLNE	AC+1,FOV+FXU	;EXAMINE FLAGS
  6814	036770	013 05 0 00 035561 		ER13	AC+1,35561	;A FLAG WAS SET
  6815	036771	321 06 0 00 036754 		JUMPL	AC+2,O35560	;LOOP ON ERROR SWITCH
  6816
  6817	036772	254 02 1 00 036773 	O35570:	JRST	2,@.+1		;CLEAR FLAGS
  6818	036773	000000	036774				.+1
  6819	036774	205 02 0 00 377400 		MOVSI	AC-2,377400	;SETUP FOR COMPARISON
  6820	036775	205 04 0 00 377400 		MOVSI	AC,377400	;SETUP AC
  6821	036776	132 04 0 00 777400 		FSC	AC,-400		;SCALE - AROV,FOV,FXU
  6822	036777	265 05 0 00 037000 		JSP	AC+1,.+1	;SAVE FLAGS
  6823	037000	312 04 0 00 000002 		CAME	AC,<AC-2>&17	;TEST C(AC)
  6824	037001	003 04 0 00 035571 		ER3	AC,35571	;C(AC) FAILED
  6825	037002	255 10 0 00 037004 		JOV	.+2		;EXAMINE AROV FLAG
  6826	037003	013 05 0 00 035571 		ER13	AC+1,35571	;AROV FLAG WAS NOT SET
  6827	037004	607 05 0 00 040000 		TLNN	AC+1,FOV	;EXAMINE FOV FLAG
  6828	037005	013 05 0 00 035571 		ER13	AC+1,35571	;FOV WAS NOT SET
  6829	037006	607 05 0 00 000100 		TLNN	AC+1,FXU	;EXAMINE FXU FLAG
  6830	037007	013 05 0 00 035571 		ER13	AC+1,35571	;FXU WAS NOT SET
  6831	037010	321 06 0 00 036772 		JUMPL	AC+2,O35570	;LOOP ON ERROR SWITCHDBKCA	PDP-10 KI10 ADVANCED INSTRUCTION DIAGNOSTIC #1, VERSION 0,3 	MACRO %52(462) 10:44  9-AUG-76 PAGE 78
DBKCAM	MAC	26-MAY-76 16:51		PART I.E-GEN TEST-FSC,FAD,FSB AND UFA                                              SEQ 0177

  6832	037011	254 02 1 00 037012 	O35600:	JRST	2,@.+1		;CLEAR FLAGS
  6833	037012	000000	037013				.+1
  6834	037013	205 02 0 00 000400 		MOVSI	AC-2,400	;SETUP FOR COMPARISON
  6835	037014	205 04 0 00 000400 		MOVSI	AC,400		;SETUP AC
  6836	037015	132 04 0 00 000000 		FSC	AC,0		;FSC - NO FLAGS
  6837	037016	265 05 0 00 037017 		JSP	AC+1,.+1	;SAVE FLAGS
  6838	037017	312 04 0 00 000002 		CAME	AC,<AC-2>&17	;TEST C(AC)
  6839	037020	003 04 0 00 035601 		ER3	AC,35601	;C(AC) FAILED
  6840	037021	255 10 0 00 037023 		JOV	.+2		;EXAMINE AROV FLAG
  6841	037022	254 00 0 00 037024 		JRST	.+2
  6842	037023	013 05 0 00 035601 		ER13	AC+1,35601	;AROV WAS SET
  6843	037024	603 05 0 00 040100 		TLNE	AC+1,FOV+FXU	;TEST FOV,FXU
  6844	037025	013 05 0 00 035601 		ER13	AC+1,35601	;EITHER FOV OR FXU WAS SET
  6845	037026	321 06 0 00 037011 		JUMPL	AC+2,O35600	;LOOP ON ERROR SWITCH
  6846
  6847	037027	254 02 1 00 037030 	O35610:	JRST	2,@.+1		;CLEAR FLAGS
  6848	037030	000000	037031				.+1
  6849	037031	205 02 0 00 377400 		MOVSI	AC-2,377400	;SETUP FOR COMPARISON
  6850	037032	205 04 0 00 000400 		MOVSI	AC,400		;SETUP AC
  6851	037033	132 04 0 00 777777 		FSC	AC,-1		;SCALE - AROV,FOV,FXU
  6852	037034	265 05 0 00 037035 		JSP	AC+1,.+1	;SAVE FLAGS
  6853	037035	312 04 0 00 000002 		CAME	AC,<AC-2>&17	;TEST C(AC)
  6854	037036	003 04 0 00 035611 		ER3	AC,35611	;C(AC) FAILED
  6855	037037	255 10 0 00 037041 		JOV	.+2		;EXAMINE AROV FLAG
  6856	037040	013 05 0 00 035611 		ER13	AC+1,35611	;AROV FLAG WAS NOT SET
  6857	037041	607 05 0 00 040000 		TLNN	AC+1,FOV	;EXAMINE FOV FLAG
  6858	037042	013 05 0 00 035611 		ER13	AC+1,35611	;FOV WAS NOT SET
  6859	037043	607 05 0 00 000100 		TLNN	AC+1,FXU	;EXAMINE FXU FLAG
  6860	037044	013 05 0 00 035611 		ER13	AC+1,35611	;FXU WAS NOT SET
  6861	037045	321 06 0 00 037027 		JUMPL	AC+2,O35610	;LOOP ON ERROR SWITCH
  6862
  6863	037046	254 02 1 00 037047 	O35620:	JRST	2,@.+1		;CLEAR FLAGS
  6864	037047	000000	037050				.+1
  6865	037050	205 02 0 00 201400 		MOVSI	AC-2,201400	;SETUP FOR COMPARISON
  6866	037051	205 04 0 00 000400 		MOVSI	AC,400		;SETUP AC
  6867	037052	132 04 0 00 777601 		FSC	AC,-177		;SCALE - AROV,FOV,FXU
  6868	037053	265 05 0 00 037054 		JSP	AC+1,.+1	;SAVE FLAGS
  6869	037054	312 04 0 00 000002 		CAME	AC,<AC-2>&17	;TEST C(AC)
  6870	037055	003 04 0 00 035621 		ER3	AC,35621	;C(AC) FAILED
  6871	037056	255 10 0 00 037060 		JOV	.+2		;EXAMINE AROV FLAG
  6872	037057	013 05 0 00 035621 		ER13	AC+1,35621	;AROV FLAG WAS NOT SET
  6873	037060	607 05 0 00 040000 		TLNN	AC+1,FOV	;EXAMINE FOV FLAG
  6874	037061	013 05 0 00 035621 		ER13	AC+1,35621	;FOV WAS NOT SET
  6875	037062	607 05 0 00 000100 		TLNN	AC+1,FXU	;EXAMINE FXU FLAG
  6876	037063	013 05 0 00 035621 		ER13	AC+1,35621	;FXU WAS NOT SET
  6877	037064	321 06 0 00 037046 		JUMPL	AC+2,O35620	;LOOP ON ERROR SWITCHDBKCA	PDP-10 KI10 ADVANCED INSTRUCTION DIAGNOSTIC #1, VERSION 0,3 	MACRO %52(462) 10:44  9-AUG-76 PAGE 79
DBKCAM	MAC	26-MAY-76 16:51		PART I.E-GEN TEST-FSC,FAD,FSB AND UFA                                              SEQ 0178

  6878	037065	254 02 1 00 037066 	O35630:	JRST	2,@.+1		;CLEAR FLAGS
  6879	037066	000000	037067				.+1
  6880	037067	205 02 0 00 200400 		MOVSI	AC-2,200400	;SETUP FOR COMPARISON
  6881	037070	205 04 0 00 000400 		MOVSI	AC,400		;SETUP AC
  6882	037071	132 04 0 00 777600 		FSC	AC,-200		;SCALE - AROV,FOV,FXU
  6883	037072	265 05 0 00 037073 		JSP	AC+1,.+1	;SAVE FLAGS
  6884	037073	312 04 0 00 000002 		CAME	AC,<AC-2>&17	;TEST C(AC)
  6885	037074	003 04 0 00 035631 		ER3	AC,35631	;C(AC) FAILED
  6886	037075	255 10 0 00 037077 		JOV	.+2		;EXAMINE AROV FLAG
  6887	037076	013 05 0 00 035631 		ER13	AC+1,35631	;AROV FLAG WAS NOT SET
  6888	037077	607 05 0 00 040000 		TLNN	AC+1,FOV	;EXAMINE FOV FLAG
  6889	037100	013 05 0 00 035631 		ER13	AC+1,35631	;FOV WAS NOT SET
  6890	037101	607 05 0 00 000100 		TLNN	AC+1,FXU	;EXAMINE FXU FLAG
  6891	037102	013 05 0 00 035631 		ER13	AC+1,35631	;FXU WAS NOT SET
  6892	037103	321 06 0 00 037065 		JUMPL	AC+2,O35630	;LOOP ON ERROR SWITCH
  6893
  6894	037104	254 02 1 00 037105 	O35640:	JRST	2,@.+1		;CLEAR FLAGS
  6895	037105	000000	037106				.+1
  6896	037106	205 02 0 00 001400 		MOVSI	AC-2,1400	;SETUP FOR COMPARISON
  6897	037107	205 04 0 00 000400 		MOVSI	AC,400		;SETUP AC
  6898	037110	132 04 0 00 777401 		FSC	AC,-377		;SCALE - AROV,FOV,FXU
  6899	037111	265 05 0 00 037112 		JSP	AC+1,.+1	;SAVE FLAGS
  6900	037112	312 04 0 00 000002 		CAME	AC,<AC-2>&17	;TEST C(AC)
  6901	037113	003 04 0 00 035641 		ER3	AC,35641	;C(AC) FAILED
  6902	037114	255 10 0 00 037116 		JOV	.+2		;EXAMINE AROV FLAG
  6903	037115	013 05 0 00 035641 		ER13	AC+1,35641	;AROV FLAG WAS NOT SET
  6904	037116	607 05 0 00 040000 		TLNN	AC+1,FOV	;EXAMINE FOV FLAG
  6905	037117	013 05 0 00 035641 		ER13	AC+1,35641	;FOV WAS NOT SET
  6906	037120	332 00 0 00 030041 		SKIPE	KLFLG
  6907	037121	254 00 0 00 037126 		JRST	O35645		;KL10
  6908	037122	603 05 0 00 000100 		TLNE	AC+1,FXU	;EXAMINE FXU FLAG
  6909	037123	013 05 0 00 035641 		ER13	AC+1,35641	;FXU WAS  SET
  6910	037124	321 06 0 00 037104 	O35647:	JUMPL	AC+2,O35640	;LOOP ON ERROR SWITCH
  6911	037125	254 00 0 00 037131 		JRST	O35650
  6912	037126	607 05 0 00 000100 	O35645:	TLNN	AC+1,FXU	;FXU SHOULD BE SET ON KL10
  6913	037127	013 05 0 00 035642 		ER13	AC+1,35642
  6914	037130	254 00 0 00 037124 		JRST	O35647DBKCA	PDP-10 KI10 ADVANCED INSTRUCTION DIAGNOSTIC #1, VERSION 0,3 	MACRO %52(462) 10:44  9-AUG-76 PAGE 80
DBKCAM	MAC	26-MAY-76 16:51		PART I.E-GEN TEST-FSC,FAD,FSB AND UFA                                              SEQ 0179

  6915
  6916	037131	254 02 1 00 037132 	O35650:	JRST	2,@.+1		;CLEAR FLAGS
  6917	037132	000000	037133				.+1
  6918	037133	205 02 0 00 000400 		MOVSI	AC-2,400	;SETUP FOR COMPARISON
  6919	037134	205 04 0 00 000400 		MOVSI	AC,400		;SETUP AC
  6920	037135	132 04 0 00 777400 		FSC	AC,-400		;SCALE - AROV,FOV,FXU
  6921	037136	265 05 0 00 037137 		JSP	AC+1,.+1	;SAVE FLAGS
  6922	037137	312 04 0 00 000002 		CAME	AC,<AC-2>&17	;TEST C(AC)
  6923	037140	003 04 0 00 035651 		ER3	AC,35651	;C(AC) FAILED
  6924	037141	255 10 0 00 037143 		JOV	.+2		;EXAMINE AROV FLAG
  6925	037142	013 05 0 00 035651 		ER13	AC+1,35651	;AROV FLAG WAS NOT SET
  6926	037143	607 05 0 00 040000 		TLNN	AC+1,FOV	;EXAMINE FOV FLAG
  6927	037144	013 05 0 00 035651 		ER13	AC+1,35651	;FOV WAS NOT SET
  6928	037145	332 00 0 00 030041 		SKIPE	KLFLG
  6929	037146	254 00 0 00 037153 		JRST	O35655
  6930	037147	603 05 0 00 000100 		TLNE	AC+1,FXU	;EXAMINE FXU FLAG
  6931	037150	013 05 0 00 035651 		ER13	AC+1,35651	;FXU WAS SET
  6932	037151	321 06 0 00 037131 	O35657:	JUMPL	AC+2,O35650	;LOOP ON ERROR SWITCH
  6933	037152	254 00 0 00 037156 		JRST	O35660
  6934	037153	607 05 0 00 000100 	O35655:	TLNN	AC+1,FXU	;FXU SHOULD BE SET ON KL10
  6935	037154	013 05 0 00 035652 		ER13	AC+1,35652
  6936	037155	254 00 0 00 037151 		JRST	O35657DBKCA	PDP-10 KI10 ADVANCED INSTRUCTION DIAGNOSTIC #1, VERSION 0,3 	MACRO %52(462) 10:44  9-AUG-76 PAGE 81
DBKCAM	MAC	26-MAY-76 16:51		PART I.E-GEN TEST-FSC,FAD,FSB AND UFA                                              SEQ 0180

  6937	037156	254 02 1 00 037157 	O35660:	JRST	2,@.+1		;CLEAR FLAGS
  6938	037157	000000	037160				.+1
  6939	037160	205 02 0 00 377400 		MOVSI	AC-2,377400	;SETUP FOR COMPARISON
  6940	037161	205 04 0 00 000400 		MOVSI	AC,400		;SETUP AC
  6941	037162	132 04 0 00 000377 		FSC	AC,377		;SCALE - NO FLAGS
  6942	037163	265 05 0 00 037164 		JSP	AC+1,.+1	;SAVE FLAGS
  6943	037164	312 04 0 00 000002 		CAME	AC,<AC-2>&17	;TEST C(AC)
  6944	037165	003 04 0 00 035661 		ER3	AC,35661	;C(AC) FAILED
  6945	037166	255 10 0 00 037170 		JOV	.+2		;EXAMINE AROV FLAG
  6946	037167	254 00 0 00 037171 		JRST	.+2
  6947	037170	013 05 0 00 035661 		ER13	AC+1,35661	;AROV FLAG WAS SET
  6948	037171	603 05 0 00 040100 		TLNE	AC+1,FOV+FXU	;EXAMINE FLAGS
  6949	037172	013 05 0 00 035661 		ER13	AC+1,35661	;A FLAG WAS SET
  6950	037173	321 06 0 00 037156 		JUMPL	AC+2,O35660	;LOOP ON ERROR SWITCH
  6951
  6952	037174	254 02 1 00 037175 	O35670:	JRST	2,@.+1		;CLEAR FLAGS
  6953	037175	000000	037176				.+1
  6954	037176	205 02 0 00 000400 		MOVSI	AC-2,400	;SETUP FOR COMPARISON
  6955	037177	205 04 0 00 000400 		MOVSI	AC,400		;SETUP AC
  6956	037200	132 04 0 00 000400 		FSC	AC,400		;SCALE - NO FLAGS
  6957	037201	265 05 0 00 037202 		JSP	AC+1,.+1	;SAVE FLAGS
  6958	037202	312 04 0 00 000002 		CAME	AC,<AC-2>&17	;TEST C(AC)
  6959	037203	003 04 0 00 035671 		ER3	AC,35671	;C(AC) FAILED
  6960	037204	255 10 0 00 037206 		JOV	.+2		;EXAMINE AROV FLAG
  6961	037205	254 00 0 00 037207 		JRST	.+2
  6962	037206	013 05 0 00 035671 		ER13	AC+1,35671	;AROV FLAG WAS SET
  6963	037207	603 05 0 00 040100 		TLNE	AC+1,FOV+FXU	;EXAMINE FLAGS
  6964	037210	013 05 0 00 035671 		ER13	AC+1,35671	;A FLAG WAS SET
  6965	037211	321 06 0 00 037174 		JUMPL	AC+2,O35670	;LOOP ON ERROR SWITCHDBKCA	PDP-10 KI10 ADVANCED INSTRUCTION DIAGNOSTIC #1, VERSION 0,3 	MACRO %52(462) 10:44  9-AUG-76 PAGE 82
DBKCAM	MAC	26-MAY-76 16:51		PART I.E-GEN TEST-FSC,FAD,FSB AND UFA                                              SEQ 0181

  6966	037212	254 02 1 00 037213 	O35700:	JRST	2,@.+1		;CLEAR FLAGS
  6967	037213	000000	037214				.+1
  6968	037214	205 02 0 00 400400 		MOVSI	AC-2,-377400	;SETUP FOR COMPARISON
  6969	037215	205 04 0 00 400400 		MOVSI	AC,-377400	;SETUP AC
  6970	037216	132 04 0 00 000000 		FSC	AC,0		;SCALE - NO FLAGS
  6971	037217	265 05 0 00 037220 		JSP	AC+1,.+1	;SAVE FLAGS
  6972	037220	312 04 0 00 000002 		CAME	AC,<AC-2>&17	;TEST C(AC) FOR NO CHANGE
  6973	037221	003 04 0 00 035701 		ER3	AC,35701	;C(AC) FAILED
  6974	037222	255 10 0 00 037224 		JOV	.+2		;EXAMINE AROV FLAG
  6975	037223	254 00 0 00 037225 		JRST	.+2
  6976	037224	013 05 0 00 035701 		ER13	AC+1,35701	;AROV FLAG WAS SET
  6977	037225	603 05 0 00 040100 		TLNE	AC+1,FOV+FXU	;EXAMINE FLAGS
  6978	037226	013 05 0 00 035701 		ER13	AC+1,35701	;A FLAG WAS SET
  6979	037227	321 06 0 00 037212 		JUMPL	AC+2,O35700	;LOOP ON ERROR SWITCH
  6980
  6981	037230	254 02 1 00 037231 	O35710:	JRST	2,@.+1		;CLEAR FLAGS
  6982	037231	000000	037232				.+1
  6983	037232	205 02 0 00 777400 		MOVSI	AC-2,-400	;SETUP FOR COMPARISON
  6984	037233	205 04 0 00 400400 		MOVSI	AC,-377400	;SETUP AC
  6985	037234	132 04 0 00 000001 		FSC	AC,1		;SCALE - AROV,FOV
  6986	037235	265 05 0 00 037236 		JSP	AC+1,.+1	;SAVE FLAGS
  6987	037236	312 04 0 00 000002 		CAME	AC,<AC-2>&17	;EXAMINE C(AC)
  6988	037237	003 04 0 00 035711 		ER3	AC,35711	;C(AC) FAILED
  6989	037240	255 10 0 00 037242 		JOV	.+2		;EXAMINE AROV FLAG
  6990	037241	013 05 0 00 035711 		ER13	AC+1,35711	;AROV FLAG WAS NOT SET
  6991	037242	603 05 0 00 000100 		TLNE	AC+1,FXU	;EXAMINE FXU
  6992	037243	013 05 0 00 035711 		ER13	AC+1,35711	;ERROR - FXU IS SET
  6993	037244	607 05 0 00 040000 		TLNN	AC+1,FOV	;EXAMINE FOV
  6994	037245	013 05 0 00 035711 		ER13	AC+1,35711	;ERROR - FOV NOT SET
  6995	037246	321 06 0 00 037230 		JUMPL	AC+2,O35710	;LOOP ON ERROR SWITCH
  6996
  6997	037247	254 02 1 00 037250 	O35720:	JRST	2,@.+1		;CLEAR FLAGS
  6998	037250	000000	037251				.+1
  6999	037251	205 02 0 00 600400 		MOVSI	AC-2,-177400	;SETUP FOR COMPARISON
  7000	037252	205 04 0 00 400400 		MOVSI	AC,-377400	;SETUP AC
  7001	037253	132 04 0 00 000200 		FSC	AC,200		;SCALE - AROV,FOV
  7002	037254	265 05 0 00 037255 		JSP	AC+1,.+1	;SAVE FLAGS
  7003	037255	312 04 0 00 000002 		CAME	AC,<AC-2>&17	;TEST C(AC)
  7004	037256	003 04 0 00 035721 		ER3	AC,35721	;C(AC) FAILED
  7005	037257	255 10 0 00 037261 		JOV	.+2		;EXAMINE AROV FLAG
  7006	037260	013 05 0 00 035721 		ER13	AC+1,35721	;AROV FLAG WAS NOT SET
  7007	037261	603 05 0 00 000100 		TLNE	AC+1,FXU	;EXAMINE FXU
  7008	037262	013 05 0 00 035721 		ER13	AC+1,35721	;ERROR - FXU IS SET
  7009	037263	607 05 0 00 040000 		TLNN	AC+1,FOV	;EXAMINE FOV
  7010	037264	013 05 0 00 035721 		ER13	AC+1,35721	;ERROR - FOV NOT SET
  7011	037265	321 06 0 00 037247 		JUMPL	AC+2,O35720	;LOOP ON ERROR SWITCHDBKCA	PDP-10 KI10 ADVANCED INSTRUCTION DIAGNOSTIC #1, VERSION 0,3 	MACRO %52(462) 10:44  9-AUG-76 PAGE 83
DBKCAM	MAC	26-MAY-76 16:51		PART I.E-GEN TEST-FSC,FAD,FSB AND UFA                                              SEQ 0182

  7012	037266	254 02 1 00 037267 	O35730:	JRST	2,@.+1		;CLEAR FLAGS
  7013	037267	000000	037270				.+1
  7014	037270	205 02 0 00 577400 		MOVSI	AC-2,-200400	;SETUP FOR COMPARISON
  7015	037271	205 04 0 00 400400 		MOVSI	AC,-377400	;SETUP AC
  7016	037272	132 04 0 00 000201 		FSC	AC,201		;SCALE - AROV,FOV
  7017	037273	265 05 0 00 037274 		JSP	AC+1,.+1	;SAVE FLAGS
  7018	037274	312 04 0 00 000002 		CAME	AC,<AC-2>&17	;TEST C(AC)
  7019	037275	003 04 0 00 035731 		ER3	AC,35731	;C(AC) FAILED
  7020	037276	255 10 0 00 037300 		JOV	.+2		;EXAMINE AROV FLAG
  7021	037277	013 05 0 00 035731 		ER13	AC+1,35731	;AROV FLAG WAS NOT SET
  7022	037300	332 00 0 00 030041 		SKIPE	KLFLG
  7023	037301	254 00 0 00 037310 		JRST	O35735		;KL10
  7024	037302	607 05 0 00 000100 		TLNN	AC+1,FXU	;EXAMINE FXU
  7025	037303	013 05 0 00 035731 		ER13	AC+1,35731	;ERROR - FXU IS NOT SET
  7026	037304	607 05 0 00 040000 	O35737:	TLNN	AC+1,FOV	;EXAMINE FOV
  7027	037305	013 05 0 00 035731 		ER13	AC+1,35731	;ERROR - FOV NOT SET
  7028	037306	321 06 0 00 037266 		JUMPL	AC+2,O35730	;LOOP ON ERROR SWITCH
  7029	037307	254 00 0 00 037313 		JRST	O35740
  7030	037310	603 05 0 00 000100 	O35735:	TLNE	AC+1,FXU	;FXU SHOULD NOT BE SET ON KL10
  7031	037311	013 05 0 00 035732 		ER13	AC+1,35732
  7032	037312	254 00 0 00 037304 		JRST	O35737
  7033
  7034	037313	254 02 1 00 037314 	O35740:	JRST	2,@.+1		;CLEAR FLAGS
  7035	037314	000000	037315				.+1
  7036	037315	205 02 0 00 401400 		MOVSI	AC-2,-376400	;SETUP FOR COMPARISON
  7037	037316	205 04 0 00 400400 		MOVSI	AC,-377400	;SETUP AC
  7038	037317	132 04 0 00 000377 		FSC	AC,377		;SCALE - AROV, FOV
  7039	037320	265 05 0 00 037321 		JSP	AC+1,.+1	;SAVE FLAGS
  7040	037321	312 04 0 00 000002 		CAME	AC,<AC-2>&17	;TEST C(AC)
  7041	037322	003 04 0 00 035741 		ER3	AC,35741	;C(AC) RAILED
  7042	037323	255 10 0 00 037325 		JOV	.+2		;EXAMINE AROV FLAG
  7043	037324	013 05 0 00 035741 		ER13	AC+1,35741	;AROV FLAG WAS NOT SET
  7044	037325	332 00 0 00 030041 		SKIPE	KLFLG
  7045	037326	254 00 0 00 037335 		JRST	O35745
  7046	037327	607 05 0 00 000100 		TLNN	AC+1,FXU	;EXAMINE FXU
  7047	037330	013 05 0 00 035741 		ER13	AC+1,35741	;ERROR - FXU IS NOT SET
  7048	037331	607 05 0 00 040000 	O35747:	TLNN	AC+1,FOV	;EXAMINE FOV
  7049	037332	013 05 0 00 035741 		ER13	AC+1,35741	;ERROR - FOV NOT SET
  7050	037333	321 06 0 00 037313 		JUMPL	AC+2,O35740	;LOOP ON ERROR SWITCH
  7051	037334	254 00 0 00 037340 		JRST	O35750
  7052	037335	603 05 0 00 000100 	O35745:	TLNE	AC+1,FXU	;FXU SOULD NOT BE SET ON KL10
  7053	037336	013 05 0 00 035742 		ER13	AC+1,35742
  7054	037337	254 00 0 00 037331 		JRST	O35747DBKCA	PDP-10 KI10 ADVANCED INSTRUCTION DIAGNOSTIC #1, VERSION 0,3 	MACRO %52(462) 10:44  9-AUG-76 PAGE 84
DBKCAM	MAC	26-MAY-76 16:51		PART I.E-GEN TEST-FSC,FAD,FSB AND UFA                                              SEQ 0183

  7055
  7056	037340	254 02 1 00 037341 	O35750:	JRST	2,@.+1		;CLEAR FLAGS
  7057	037341	000000	037342				.+1
  7058	037342	205 02 0 00 400400 		MOVSI	AC-2,-377400	;SETUP FOR COMPARISON
  7059	037343	205 04 0 00 400400 		MOVSI	AC,-377400	;SETUP AC.
  7060	037344	132 04 0 00 000400 		FSC	AC,400		;SCALE - NO FLAGS
  7061	037345	265 05 0 00 037346 		JSP	AC+1,.+1	;SAVE FLAGS
  7062	037346	312 04 0 00 000002 		CAME	AC,<AC-2>&17	;TEST C(AC)
  7063	037347	003 04 0 00 035751 		ER3	AC,35751	;C(AC) FAILED
  7064	037350	255 10 0 00 037352 		JOV	.+2		;EXAMINE AROV FLAG
  7065	037351	254 00 0 00 037353 		JRST	.+2
  7066	037352	013 05 0 00 035751 		ER13	AC+1,35751	;AROV FLAG WAS SET
  7067	037353	603 05 0 00 040100 		TLNE	AC+1,FOV+FXU	;EXAMINE FLAGS
  7068	037354	013 05 0 00 035751 		ER13	AC+1,35751	;A FLAG WAS SET
  7069	037355	321 06 0 00 037340 		JUMPL	AC+2,O35750	;LOOP ON ERROR SWITCHDBKCA	PDP-10 KI10 ADVANCED INSTRUCTION DIAGNOSTIC #1, VERSION 0,3 	MACRO %52(462) 10:44  9-AUG-76 PAGE 85
DBKCAM	MAC	26-MAY-76 16:51		PART I.E-GEN TEST-FSC,FAD,FSB AND UFA                                              SEQ 0184

  7070	037356	254 02 1 00 037357 	O35760:	JRST	2,@.+1		;CLEAR FLAGS
  7071	037357	000000	037360				.+1
  7072	037360	205 02 0 00 777400 		MOVSI	AC-2,-400	;SETUP FOR COMPARISON
  7073	037361	205 04 0 00 400400 		MOVSI	AC,-377400	;SETUP AC
  7074	037362	132 04 0 00 777401 		FSC	AC,-377		;SCALE - NO FLAGS
  7075	037363	265 05 0 00 037364 		JSP	AC+1,.+1	;SAVE FLAGS
  7076	037364	312 04 0 00 000002 		CAME	AC,<AC-2>&17	;TEST C(AC)
  7077	037365	003 04 0 00 035761 		ER3	AC,35761	;C(AC) FAILED.
  7078	037366	255 10 0 00 037370 		JOV	.+2		;EXAMINE AROV FLAG
  7079	037367	254 00 0 00 037371 		JRST	.+2
  7080	037370	013 05 0 00 035761 		ER13	AC+1,35761	;AROV FLAG WAS SET
  7081	037371	603 05 0 00 040100 		TLNE	AC+1,FOV+FXU	;EXAMINE FLAGS
  7082	037372	013 05 0 00 035761 		ER13	AC+1,35761	;A FLAG WAS SET
  7083	037373	321 06 0 00 037356 		JUMPL	AC+2,O35760	;LOOP ON ERROR SWITCH
  7084
  7085	037374	254 02 1 00 037375 	O35770:	JRST	2,@.+1		;CLEAR FLAGS
  7086	037375	000000	037376				.+1
  7087	037376	205 02 0 00 400400 		MOVSI	AC-2,-377400	;SETUP FOR COMPARISON
  7088	037377	205 04 0 00 400400 		MOVSI	AC,-377400	;SETUP AC
  7089	037400	132 04 0 00 777400 		FSC	AC,-400		;SCALE - AROV,FOV,FXU
  7090	037401	265 05 0 00 037402 		JSP	AC+1,.+1	;SAVE FLAGS
  7091	037402	312 04 0 00 000002 		CAME	AC,<AC-2>&17	;TEST C(AC)
  7092	037403	003 04 0 00 035771 		ER3	AC,35771	;C(AC) FAILED
  7093	037404	255 10 0 00 037406 		JOV	.+2		;EXAMINE AROV FLAG
  7094	037405	013 05 0 00 035771 		ER13	AC+1,35771	;AROV FLAG WAS NOT SET
  7095	037406	607 05 0 00 040000 		TLNN	AC+1,FOV	;EXAMINE FOV FLAG
  7096	037407	013 05 0 00 035771 		ER13	AC+1,35771	;FOV WAS NOT SET
  7097	037410	607 05 0 00 000100 		TLNN	AC+1,FXU	;EXAMINE FXU FLAG
  7098	037411	013 05 0 00 035771 		ER13	AC+1,35771	;FXU WAS NOT SET
  7099	037412	321 06 0 00 036772 		JUMPL	AC+2,O35570	;LOOP ON ERROR SWITCHDBKCA	PDP-10 KI10 ADVANCED INSTRUCTION DIAGNOSTIC #1, VERSION 0,3 	MACRO %52(462) 10:44  9-AUG-76 PAGE 86
DBKCAM	MAC	26-MAY-76 16:51		PART I.E-GEN TEST-FSC,FAD,FSB AND UFA                                              SEQ 0185

  7100	037413	254 02 1 00 037414 	O36000:	JRST	2,@.+1		;CLEAR FLAGS
  7101	037414	000000	037415				.+1
  7102	037415	205 02 0 00 777400 		MOVSI	AC-2,-400	;SETUP FOR COMPARISON
  7103	037416	205 04 0 00 777400 		MOVSI	AC,-400		;SETUP AC
  7104	037417	132 04 0 00 000000 		FSC	AC,0		;FSC - NO FLAGS
  7105	037420	265 05 0 00 037421 		JSP	AC+1,.+1	;SAVE FLAGS
  7106	037421	312 04 0 00 000002 		CAME	AC,<AC-2>&17	;TEST C(AC)
  7107	037422	003 04 0 00 036001 		ER3	AC,36001	;C(AC) FAILED
  7108	037423	255 10 0 00 037425 		JOV	.+2		;EXAMINE AROV FLAG
  7109	037424	254 00 0 00 037426 		JRST	.+2
  7110	037425	013 05 0 00 036001 		ER13	AC+1,36001	;AROV FLAG WAS SET
  7111	037426	603 05 0 00 040100 		TLNE	AC+1,FOV+FXU	;TEST FOV,FXU
  7112	037427	013 05 0 00 036001 		ER13	AC+1,36001	;EITHER FOV OR FXU WAS SET
  7113	037430	321 06 0 00 037413 		JUMPL	AC+2,O36000	;LOOP ON ERROR SWITCH
  7114
  7115	037431	254 02 1 00 037432 	O36010:	JRST	2,@.+1		;CLEAR FLAGS
  7116	037432	000000	037433				.+1
  7117	037433	205 02 0 00 400400 		MOVSI	AC-2,-377400	;SETUP FOR COMPARISON
  7118	037434	205 04 0 00 777400 		MOVSI	AC,-400		;SETUP AC
  7119	037435	132 04 0 00 777777 		FSC	AC,-1		;SCALE - AROV,FOV,FXU
  7120	037436	265 05 0 00 037437 		JSP	AC+1,.+1	;SAVE FLAGS
  7121	037437	312 04 0 00 000002 		CAME	AC,<AC-2>&17	;TEST C(AC)
  7122	037440	003 04 0 00 036011 		ER3	AC,36011	;C(AC) FAILED
  7123	037441	255 10 0 00 037443 		JOV	.+2		;EXAMINE AROV FLAG
  7124	037442	013 05 0 00 036011 		ER13	AC+1,36011	;AROV FLAG WAS NOT SET
  7125	037443	607 05 0 00 040000 		TLNN	AC+1,FOV	;EXAMINE FOV FLAG
  7126	037444	013 05 0 00 036011 		ER13	AC+1,36011	;FOV WAS NOT SET
  7127	037445	607 05 0 00 000100 		TLNN	AC+1,FXU	;EXAMINE FXU FLAG
  7128	037446	013 05 0 00 036011 		ER13	AC+1,36011	;FXU WAS NOT SET
  7129	037447	321 06 0 00 037431 		JUMPL	AC+2,O36010	;LOOP ON ERROR SWITCH
  7130
  7131	037450	254 02 1 00 037451 	O36020:	JRST	2,@.+1		;CLEAR FLAGS
  7132	037451	000000	037452				.+1
  7133	037452	205 02 0 00 576400 		MOVSI	AC-2,-201400	;SETUP FOR COMPARISON
  7134	037453	205 04 0 00 777400 		MOVSI	AC,-400		;SETUP AC
  7135	037454	132 04 0 00 777601 		FSC	AC,-177		;SCALE - AROV,FOV,FXU
  7136	037455	265 05 0 00 037456 		JSP	AC+1,.+1	;SAVE FLAGS
  7137	037456	312 04 0 00 000002 		CAME	AC,<AC-2>&17	;TEST C(AC)
  7138	037457	003 04 0 00 036021 		ER3	AC,36021	;C(AC) FAILED
  7139	037460	255 10 0 00 037462 		JOV	.+2		;EXAMINE AROV FLAG
  7140	037461	013 05 0 00 036021 		ER13	AC+1,36021	;AROV FLAG WAS NOT SET
  7141	037462	607 05 0 00 040000 		TLNN	AC+1,FOV	;EXAMINE FOV FLAG
  7142	037463	013 05 0 00 036021 		ER13	AC+1,36021	;FOV WAS NOT SET
  7143	037464	607 05 0 00 000100 		TLNN	AC+1,FXU	;EXAMINE FXU FLAG
  7144	037465	013 05 0 00 036021 		ER13	AC+1,36021	;FXU WAS NOT SET
  7145	037466	321 06 0 00 037450 		JUMPL	AC+2,O36020	;LOOP ON ERROR SWITCHDBKCA	PDP-10 KI10 ADVANCED INSTRUCTION DIAGNOSTIC #1, VERSION 0,3 	MACRO %52(462) 10:44  9-AUG-76 PAGE 87
DBKCAM	MAC	26-MAY-76 16:51		PART I.E-GEN TEST-FSC,FAD,FSB AND UFA                                              SEQ 0186

  7146	037467	254 02 1 00 037470 	O36030:	JRST	2,@.+1		;CLEAR FLAGS
  7147	037470	000000	037471				.+1
  7148	037471	205 02 0 00 577400 		MOVSI	AC-2,-200400	;SETUP FOR COMPARISON
  7149	037472	205 04 0 00 777400 		MOVSI	AC,-400		;SETUP AC
  7150	037473	132 04 0 00 777600 		FSC	AC,-200		;SCALE - AROV,FOV,FXU
  7151	037474	265 05 0 00 037475 		JSP	AC+1,.+1	;SAVE FLAGS
  7152	037475	312 04 0 00 000002 		CAME	AC,<AC-2>&17	;TEST C(AC)
  7153	037476	003 04 0 00 036031 		ER3	AC,36031	;C(AC) FAILED
  7154	037477	255 10 0 00 037501 		JOV	.+2		;EXAMINE AROV FLAG
  7155	037500	013 05 0 00 036031 		ER13	AC+1,36031	;AROV FLAG WAS NOT SET
  7156	037501	607 05 0 00 040000 		TLNN	AC+1,FOV	;EXAMINE FOV FLAG
  7157	037502	013 05 0 00 036031 		ER13	AC+1,36031	;FOV WAS NOT SET
  7158	037503	607 05 0 00 000100 		TLNN	AC+1,FXU	;EXAMINE FXU FLAG
  7159	037504	013 05 0 00 036031 		ER13	AC+1,36031	;FXU WAS NOT SET
  7160	037505	321 06 0 00 037467 		JUMPL	AC+2,O36030	;LOOP ON ERROR SWITCH
  7161
  7162	037506	254 02 1 00 037507 	O36040:	JRST	2,@.+1		;CLEAR FLAGS
  7163	037507	000000	037510				.+1
  7164	037510	205 02 0 00 776400 		MOVSI	AC-2,-1400	;SETUP FOR COMPARISON
  7165	037511	205 04 0 00 777400 		MOVSI	AC,-400		;SETUP AC
  7166	037512	132 04 0 00 777401 		FSC	AC,-377		;SCALE - AROV,FOV,FXU
  7167	037513	265 05 0 00 037514 		JSP	AC+1,.+1	;SAVE FLAGS
  7168	037514	312 04 0 00 000002 		CAME	AC,<AC-2>&17	;TEST C(AC)
  7169	037515	003 04 0 00 036041 		ER3	AC,36041	;C(AC) FAILED
  7170	037516	255 10 0 00 037520 		JOV	.+2		;EXAMINE AROV FLAG
  7171	037517	013 05 0 00 036041 		ER13	AC+1,36041	;AROV FLAG WAS NOT SET
  7172	037520	607 05 0 00 040000 		TLNN	AC+1,FOV	;EXAMINE FOV FLAG
  7173	037521	013 05 0 00 036041 		ER13	AC+1,36041	;FOV WAS NOT SET
  7174	037522	332 00 0 00 030041 		SKIPE	KLFLG
  7175	037523	254 00 0 00 037530 		JRST	O36045		;KL10
  7176	037524	603 05 0 00 000100 		TLNE	AC+1,FXU	;EXAMINE FXU FLAG
  7177	037525	013 05 0 00 036041 		ER13	AC+1,36041	;FXU WAS SET
  7178	037526	321 06 0 00 037506 	O36047:	JUMPL	AC+2,O36040	;LOOP ON ERROR SWITCH
  7179	037527	254 00 0 00 037533 		JRST	O36050
  7180	037530	607 05 0 00 000100 	O36045:	TLNN	AC+1,FXU	;FXU SHOULD BE SET ON KL10
  7181	037531	013 05 0 00 036042 		ER13	AC+1,36042
  7182	037532	254 00 0 00 037526 		JRST	O36047DBKCA	PDP-10 KI10 ADVANCED INSTRUCTION DIAGNOSTIC #1, VERSION 0,3 	MACRO %52(462) 10:44  9-AUG-76 PAGE 88
DBKCAM	MAC	26-MAY-76 16:51		PART I.E-GEN TEST-FSC,FAD,FSB AND UFA                                              SEQ 0187

  7183
  7184	037533	254 02 1 00 037534 	O36050:	JRST	2,@.+1		;CLEAR FLAGS
  7185	037534	000000	037535				.+1
  7186	037535	205 02 0 00 777400 		MOVSI	AC-2,-400	;SETUP FOR COMPARISON
  7187	037536	205 04 0 00 777400 		MOVSI	AC,-400		;SETUP AC
  7188	037537	132 04 0 00 777400 		FSC	AC,-400		;SCALE - AROV,FOV,FXU
  7189	037540	265 05 0 00 037541 		JSP	AC+1,.+1	;SAVE FLAGS
  7190	037541	312 04 0 00 000002 		CAME	AC,<AC-2>&17	;TEST C(AC)
  7191	037542	003 04 0 00 036051 		ER3	AC,36051	;C(AC) FAILED
  7192	037543	255 10 0 00 037545 		JOV	.+2		;EXAMINE AROV FLAG
  7193	037544	013 05 0 00 036051 		ER13	AC+1,36051	;AROV FLAG WAS NOT SET
  7194	037545	607 05 0 00 040000 		TLNN	AC+1,FOV	;EXAMINE FOV FLAG
  7195	037546	013 05 0 00 036051 		ER13	AC+1,36051	;FOV WAS NOT SET
  7196	037547	332 00 0 00 030041 		SKIPE	KLFLG
  7197	037550	254 00 0 00 037555 		JRST	O36055		;KL10
  7198	037551	603 05 0 00 000100 		TLNE	AC+1,FXU	;EXAMINE FXU FLAG
  7199	037552	013 05 0 00 036051 		ER13	AC+1,36051	;FXU WAS SET
  7200	037553	321 06 0 00 037533 	O36057:	JUMPL	AC+2,O36050	;LOOP ON ERROR SWITCH
  7201	037554	254 00 0 00 037560 		JRST	O36060
  7202	037555	607 05 0 00 000100 	O36055:	TLNN	AC+1,FXU	;FXU SHOULD BE SET ON KL10
  7203	037556	013 05 0 00 036052 		ER13	AC+1,36052
  7204	037557	254 00 0 00 037553 		JRST	O36057DBKCA	PDP-10 KI10 ADVANCED INSTRUCTION DIAGNOSTIC #1, VERSION 0,3 	MACRO %52(462) 10:44  9-AUG-76 PAGE 89
DBKCAM	MAC	26-MAY-76 16:51		PART I.E-GEN TEST-FSC,FAD,FSB AND UFA                                              SEQ 0188

  7205	037560	254 02 1 00 037561 	O36060:	JRST	2,@.+1		;CLEAR FLAGS
  7206	037561	000000	037562				.+1
  7207	037562	205 02 0 00 400400 		MOVSI	AC-2,-377400	;SETUP FOR COMPARISON
  7208	037563	205 04 0 00 777400 		MOVSI	AC,-400		;SETUP AC
  7209	037564	132 04 0 00 000377 		FSC	AC,377		;SCALE - NO FLAGS
  7210	037565	265 05 0 00 037566 		JSP	AC+1,.+1	;SAVE FLAGS
  7211	037566	312 04 0 00 000002 		CAME	AC,<AC-2>&17	;TEST C(AC)
  7212	037567	003 04 0 00 036061 		ER3	AC,36061	;C(AC) FAILED
  7213	037570	255 10 0 00 037572 		JOV	.+2		;EXAMINE AROV FLAG
  7214	037571	254 00 0 00 037573 		JRST	.+2
  7215	037572	013 05 0 00 036061 		ER13	AC+1,36061	;AROV FLAG WAS SET
  7216	037573	603 05 0 00 040100 		TLNE	AC+1,FOV+FXU	;EXAMINE FLAGS
  7217	037574	013 05 0 00 036061 		ER13	AC+1,36061	;A FLAG WAS SET
  7218	037575	321 06 0 00 037560 		JUMPL	AC+2,O36060	;LOOP ON ERROR SWITCH
  7219
  7220	037576	254 02 1 00 037577 	O36070:	JRST	2,@.+1		;CLEAR FLAGS
  7221	037577	000000	037600				.+1
  7222	037600	205 02 0 00 777400 		MOVSI	AC-2,-400	;SETUP FOR COMPARISON
  7223	037601	205 04 0 00 777400 		MOVSI	AC,-400		;SETUP AC
  7224	037602	132 04 0 00 000400 		FSC	AC,400		;SCALE - NO FLAGS
  7225	037603	265 05 0 00 037604 		JSP	AC+1,.+1	;SAVE FLAGS
  7226	037604	312 04 0 00 000002 		CAME	AC,<AC-2>&17	;TEST C(AC)
  7227	037605	003 04 0 00 036071 		ER3	AC,36071	;C(AC) FAILED
  7228	037606	255 10 0 00 037610 		JOV	.+2		;EXAMINE AROV FLAG
  7229	037607	254 00 0 00 037611 		JRST	.+2
  7230	037610	013 05 0 00 036071 		ER13	AC+1,36071	;AROV FLAG WAS SET
  7231	037611	603 05 0 00 040100 		TLNE	AC+1,FOV+FXU	;EXAMINE FLAGS
  7232	037612	013 05 0 00 036071 		ER13	AC+1,36071	;A FLAG WAS SET
  7233	037613	321 06 0 00 037576 		JUMPL	AC+2,O36070	;LOOP ON ERROR SWITCH
  7234
  7235	037614	254 00 0 00 030057 		JRST	BEGEND		;REPEAT DIAGNOSTICDBKCA	PDP-10 KI10 ADVANCED INSTRUCTION DIAGNOSTIC #1, VERSION 0,3 	MACRO %52(462) 10:44  9-AUG-76 PAGE 1
UUOERR	KLM	22-APR-75		*UUOERR* OLD-UUO ERROR HANDLER SUBROUTINE, V75B, APR 22,1975                       SEQ 0189

  7236					SUBTTL	*UUOERR* OLD-UUO ERROR HANDLER SUBROUTINE, V75B, APR 22,1975
  7237
  7238					;THIS SUBROUTINE PROVIDES ERROR REPORTING THRU THE USE OF UUO'S.
  7239
  7240	037615	202 00 0 00 040265 	ERRMES:	MOVEM	0,%ERAC0#	;SAVE AC0
  7241						IFDEF	EXCASB,<IFDEF	KI10,<
  7242	037616	336 00 0 00 030040 		SKIPN	KAIFLG
  7243	037617	254 00 0 00 037624 		JRST	.+5
  7244	037620	332 00 0 00 030037 		SKIPE	USER		;USER MODE ?
  7245	037621	254 00 0 00 037624 		JRST	.+3
  7246	037622	332 00 0 00 030055 		SKIPE	MARGIN
  7247	037623	7 000 14 0 00 040105 		DATAO	APR,[IMGNOF,,ISPDOF] ;CLR MARGINS >>
  7248	037624	202 01 0 00 040266 		MOVEM	1,%ERAC1#	;SAVE AC1
  7249	037625	202 02 0 00 040267 		MOVEM	2,%ERAC2#	;SAVE AC2
  7250	037626	350 00 0 00 030053 		AOS	ERRTLS		;INCREMENT ERROR TOTALS
  7251	037627	550 00 0 00 030114 		HRRZ	0,$SVUPC	;GET PC OF UUO
  7252	037630	316 00 0 00 030052 		CAMN	0,ERRPC		;PC = PC OF LAST ERROR ?
  7253	037631	350 00 0 00 040262 		AOS	MICNT#		;YES, ADD 1 TO ERROR COUNT
  7254	037632	200 00 0 00 040262 		MOVE	0,MICNT
  7255	037633	504 00 0 00 030114 		HRL	0,$SVUPC
  7256	037634	336 00 0 00 030041 		SKIPN	KLFLG		;NOT KL10
  7257	037635	332 00 0 00 030037 		SKIPE	USER		;AND NOT USER?
  7258	037636	254 00 0 00 037640 		JRST	.+2
  7259	037637	7 004 14 0 00 000000 		DATAO	PI,0		;YES, DISPLAY ERROR PC,ERROR COUNT
  7260	037640	402 00 0 00 040263 		SETZM	PROCED#		;CLEAR PROCEED FLAG
  7261	037641	037 10 0 00 000002 		SWITCH
  7262	037642	603 00 0 00 040000 		TLNE	NOPNT		;PRINTOUT ?
  7263	037643	254 00 0 00 037756 		JRST	%ERRS1		;NO, RESTORE AC'S AND RETURN
  7264	037644	200 01 0 00 030113 		MOVE	1,$SVUUO
  7265	037645	242 01 0 00 777745 		LSH	1,-^D27
  7266	037646	202 01 0 00 040264 		MOVEM	1,%ACS1A#	;SAVE UUO NUMBER
  7267	037647	200 00 0 00 040265 		MOVE	0,%ERAC0
  7268	037650	200 01 0 00 040266 		MOVE	1,%ERAC1
  7269	037651	335 00 1 00 040261 		SKIPGE	@ERRLOP		;ERR LOOP AC > OR = 0 ?
  7270	037652	254 00 0 00 040016 		JRST	%ERRS4		;NO, SEE IF PRINT ALL
  7271	037653	402 00 0 00 040262 	%ERMS1:	SETZM	MICNT		;CLEAR ERROR COUNT
  7272	037654	331 00 0 00 030043 		SKIPL	MONCTL		;DIAG MON OR SYS EXER ?
  7273	037655	254 00 0 00 037661 		JRST	.+4		;NO, DON'T NEED TITLE
  7274	037656	336 00 0 00 040270 		SKIPN	%ERFST#		;FIRST ERROR ?
  7275	037657	037 04 0 00 000002 		PNTNM			;YES, PRINT PROGRAM TITLE
  7276	037660	476 00 0 00 040270 		SETOM	%ERFST
  7277	037661	336 00 0 00 030047 		SKIPN	PASCNT		;FIRST PASS ?
  7278	037662	254 00 0 00 037666 		JRST	.+4		;YES
  7279						PMSG	<^TEST PASS COUNT = >^
  7280	037663	037 02 0 00 040106 		PSIXM	[SIXBIT\^TEST PASS COUNT = _\]^
  7281	037664	200 00 0 00 030047 		MOVE	PASCNT
  7282	037665	037 15 0 00 000000 		PNTDEC
  7283						PMSG	<^PC =   >^
  7284	037666	037 02 0 00 040112 		PSIXM	[SIXBIT\^PC =   _\]^
  7285	037667	550 00 0 00 030114 		HRRZ	0,$SVUPC	;GET PC OF UUO
  7286	037670	202 00 0 00 030052 		MOVEM	0,ERRPC		;SAVE FOR COMPARE
  7287	037671	037 06 0 00 000000 		PNT6			;PRINT UUO ADDRESS
  7288						XLIST
  7289						IFDEF	ERDIAG,<LISTDBKCA	PDP-10 KI10 ADVANCED INSTRUCTION DIAGNOSTIC #1, VERSION 0,3 	MACRO %52(462) 10:44  9-AUG-76 PAGE 2
UUOERR	KLM	22-APR-75		*UUOERR* OLD-UUO ERROR HANDLER SUBROUTINE, V75B, APR 22,1975                       SEQ 0190

  7290					;DIAGNOSTIC FORMAT ERROR PRINTER
  7291
  7292					;PRINT RESULT
  7293
  7294	037672				%ERMS2:	PMSG	<^RESULT  = >^
  7295	037672	037 02 0 00 040114 		PSIXM	[SIXBIT\^RESULT  = _\]^
  7296	037673	200 01 0 00 030113 		MOVE	1,$SVUUO	;GET AC # OF UUO
  7297	037674	242 01 0 00 777751 		LSH	1,-27
  7298	037675	405 01 0 00 000017 		ANDI	1,17
  7299	037676	200 00 0 01 000000 		MOVE	0,(1)		;GET C(AC)
  7300	037677	307 01 0 00 000001 		CAIG	1,1		;IS AC # = TO SAVE AC ?
  7301	037700	200 00 0 01 040265 		MOVE	0,%ERAC0(1)	;YES, GET SAVED AC
  7302	037701	037 13 0 00 000000 		PNTHW			;PRINT C(AC)
  7303
  7304	037702	200 00 0 00 030046 		MOVE	CONSW
  7305	037703	603 00 0 00 000200 		TLNE	TXTINH		;PRINT FAILURE DES AND FLT NBR ?
  7306	037704	254 00 0 00 037753 		JRST	%ERMORE		;NO, RESTORE AC'S ETC.
  7307
  7308					;PRINT FAILURE DESCRIPTOR
  7309
  7310	037705	200 01 0 00 040264 		MOVE	1,%ACS1A	;GET UUO NUMBER
  7311	037706	307 01 0 00 000001 		CAIG	1,1		;PRINT DESCRIPTOR ?
  7312	037707	254 00 0 00 037713 		JRST	%ERMS3		;NO, JUST PRINT FAULT NUMBER
  7313	037710	037 00 0 00 030242 		PCRL
  7314	037711	200 00 0 01 037737 		MOVE	%FLTTB(1)
  7315	037712	037 17 0 00 000000 		PNTAL			;PRINT FAULT DESCRIPTOR
  7316
  7317					;PRINT FAULT NUMBER
  7318
  7319	037713				%ERMS3:	PMSG	<^FAULT NUMBER = >^
  7320	037713	037 02 0 00 040116 		PSIXM	[SIXBIT\^FAULT NUMBER = _\]^
  7321	037714	201 00 0 00 037736 		MOVEI	TLET
  7322	037715	037 00 0 00 000000 		PNTA			;PRINT TEST LETTERDBKCA	PDP-10 KI10 ADVANCED INSTRUCTION DIAGNOSTIC #1, VERSION 0,3 	MACRO %52(462) 10:44  9-AUG-76 PAGE 3
UUOERR	KLM	22-APR-75		*UUOERR* OLD-UUO ERROR HANDLER SUBROUTINE, V75B, APR 22,1975                       SEQ 0191

  7323
  7324	037716	550 00 0 00 030113 		HRRZ	$SVUUO
  7325	037717	602 00 0 00 700000 		TRNE	700000
  7326	037720	254 00 0 00 037734 		JRST	%ER6X
  7327	037721	602 00 0 00 070000 		TRNE	070000
  7328	037722	254 00 0 00 037732 		JRST	%ER5X
  7329	037723	602 00 0 00 007000 		TRNE	007000
  7330	037724	254 00 0 00 037730 		JRST	%ER4X
  7331	037725	037 03 0 00 000000 		PNT3			;PRINT FAULT NUMBER
  7332	037726	037 00 0 00 030242 	%ER7X:	PCRL
  7333	037727	254 00 0 00 037753 		JRST	%ERMORE
  7334
  7335	037730	037 04 0 00 000000 	%ER4X:	PNT4
  7336	037731	254 00 0 00 037726 		JRST	%ER7X
  7337	037732	037 05 0 00 000000 	%ER5X:	PNT5
  7338	037733	254 00 0 00 037726 		JRST	%ER7X
  7339	037734	037 06 0 00 000000 	%ER6X:	PNT6
  7340	037735	254 00 0 00 037726 		JRST	%ER7X
  7341
  7342					;FAILURE DESCRIPTORS
  7343
  7344	037736	000000	000000		TLET:	0			;TEST LETTER
  7345	037737	000000	000000		%FLTTB:	0			;DESCRIPTOR TABLE
  7346	037740	000000	040121		%NODES:	[0]			;NO DESCRIPTOR
  7347	037741	000000	040121		SPDES:	[0]			;SPECIAL USER FAILURE DESCRIPTOR
  7348	037742	000000	040122		$ACF:	[ASCIZ/C(AC) FAILED/]
  7349	037743	000000	040125		%AC1F:	[ASCIZ/C(AC+1) FAILED/]
  7350	037744	000000	040130		%EF:	[ASCIZ/C(E) FAILED/]
  7351	037745	000000	040133		%E1F:	[ASCIZ/C(E+1) FAILED/]
  7352	037746	000000	040136		%ARF:	[ASCIZ/C(C(ACR)) FAILED/]
  7353	037747	000000	040142		%AR1F:	[ASCIZ/C(C(ACR+1)) FAILED/]
  7354	037750	000000	040146		%ALF:	[ASCIZ/C(C(ACL)) FAILED/]
  7355	037751	000000	040152		%EEF:	[ASCIZ/C(C(E)) FAILED/]
  7356	037752	000000	040155		%FF:	[ASCIZ/FLAG FAILED/]
  7357					>
  7358						XLIST
  7359						LISTDBKCA	PDP-10 KI10 ADVANCED INSTRUCTION DIAGNOSTIC #1, VERSION 0,3 	MACRO %52(462) 10:44  9-AUG-76 PAGE 8
UUOERR	KLM	22-APR-75		*UUOERR* OLD-UUO ERROR HANDLER SUBROUTINE, V75B, APR 22,1975                       SEQ 0192

  7360					;RESTORE AC'S AND RETURN OR HALT
  7361
  7362	037753	256 00 0 00 030101 	%ERMORE:XCT	ERMORE
  7363	037754	037 16 0 00 000002 		PNTMGN			;PRINT MARGINS
  7364	037755	037 10 0 00 000002 		SWITCH
  7365
  7366	037756	037 07 0 00 000003 	%ERRS1:	TTALTM			;ALTMODE CHECK
  7367	037757	254 00 0 00 037763 		JRST	.+4		;NONE
  7368	037760	201 00 0 00 037763 		MOVEI	.+3		;SAVE CONT ADDRESS
  7369	037761	202 00 0 00 000130 		MOVEM	JOBOPC
  7370	037762	254 00 1 00 030063 		JRST	@ALTMGO		;PERFORM TRANSFER
  7371	037763	200 00 0 00 030046 		MOVE	CONSW
  7372	037764	603 00 0 00 002000 		TLNE	0,ERSTOP	;HALT ON ERROR SWITCH SET ?
  7373	037765	037 14 0 00 000004 		ERRHLT			;YES
  7374	037766	607 00 0 00 004000 		TLNN	0,LOOPER	;LOOP ON ERROR SWITCH SET ?
  7375	037767	476 00 0 00 040263 		SETOM	PROCED		;NO, SET THE PROCEED FLAG
  7376	037770	603 00 0 00 010000 		TLNE	0,DING		;RING BELL SWITCH SET ?
  7377	037771	037 01 0 00 000007 		PBELL			;YES, GO RING BELL
  7378
  7379	037772	200 02 0 00 040267 	%ERRS2:	MOVE	2,%ERAC2	;RESTORE AC'S
  7380	037773	200 01 0 00 040266 		MOVE	1,%ERAC1
  7381	037774	476 00 1 00 040261 		SETOM	@ERRLOP		;SET C(ERR LOOP AC) TO -1
  7382	037775	336 00 0 00 040263 		SKIPN	PROCED		;LOOP ON ERROR ?
  7383	037776	254 00 0 00 040006 		JRST	%ERRS5		;YES
  7384	037777	350 00 1 00 040261 		AOS	@ERRLOP		;NO, INC C(ERR LOOP AC)
  7385	040000	350 00 1 00 040261 		AOS	@ERRLOP		;SO IT ='S 1
  7386	040001	331 00 0 00 030043 		SKIPL	MONCTL		;UNDER DIAGNOSTIC MONITOR ?
  7387	040002	254 00 0 00 040006 		JRST	%ERRS5		;NO, CONTINUE PROGRAM
  7388	040003	200 00 0 00 030053 		MOVE	0,ERRTLS	;YES
  7389	040004	301 00 0 00 000005 		CAIL	0,5		;PRINTED ALLOWED ERRORS ?
  7390	040005	254 00 0 00 030061 		JRST	$BEND2
  7391
  7392	040006	200 00 0 00 040265 	%ERRS5:	MOVE	0,%ERAC0	;NO, CONTINUE PROGRAM
  7393						IFDEF	EXCASB,<IFDEF KI10,<
  7394	040007	336 00 0 00 030040 		SKIPN	KAIFLG
  7395	040010	254 00 0 00 040015 		JRST	.+5
  7396	040011	332 00 0 00 030037 		SKIPE	USER
  7397	040012	254 00 0 00 040015 		JRST	.+3
  7398	040013	332 00 0 00 030055 		SKIPE	MARGIN
  7399	040014	7 000 14 0 00 030055 		DATAO	APR,MARGIN	;RESET MARGIN SYSTEM >>
  7400	040015	254 00 0 00 030065 		JRST	UUOEXT
  7401
  7402	040016	200 00 0 00 030046 	%ERRS4:	MOVE	0,CONSW
  7403	040017	607 00 0 00 001000 		TLNN	PALERS		;PRINT ALL ERRORS ?
  7404	040020	254 00 0 00 037756 		JRST	%ERRS1		;NO
  7405	040021	254 00 0 00 037653 		JRST	%ERMS1		;YESDBKCA	PDP-10 KI10 ADVANCED INSTRUCTION DIAGNOSTIC #1, VERSION 0,3 	MACRO %52(462) 10:44  9-AUG-76 PAGE 1
STOR	KLM	 5-JAN-76		*STOR* RESERVED STORAGE, JAN 5,1976                                                SEQ 0193

  7406					SUBTTL	*STOR* RESERVED STORAGE, JAN 5,1976
  7407
  7408					;PROGRAM LITERALS
  7409
  7410						XLIST
  7411					IFNDEF	$LPAPER,<LIST>
  7412	040022					LIT
  7413	040022	45 70 51 64 00 00
  7414	040023	103 101 000 000 000
  7415	040024	000000	031437
  7416	040025	200000	000001
  7417	040026	200000	000002
  7418	040027	200000	000004
  7419	040030	200000	000010
  7420	040031	200000	000020
  7421	040032	200000	000040
  7422	040033	200000	000100
  7423	040034	200000	000200
  7424	040035	200000	000400
  7425	040036	200000	001000
  7426	040037	200000	002000
  7427	040040	200000	004000
  7428	040041	200000	010000
  7429	040042	200000	020000
  7430	040043	200000	040000
  7431	040044	200000	100000
  7432	040045	200000	200000
  7433	040046	200000	400000
  7434	040047	200001	000000
  7435	040050	200002	000000
  7436	040051	200004	000000
  7437	040052	200010	000000
  7438	040053	200020	000000
  7439	040054	200040	000000
  7440	040055	200100	000000
  7441	040056	000000	035427
  7442	040057	200400	000001
  7443	040060	200400	000000
  7444	040061	202400	000000
  7445	040062	203400	000000
  7446	040063	204400	000000
  7447	040064	205400	000000
  7448	040065	206400	000000
  7449	040066	207400	000000
  7450	040067	210400	000000
  7451	040070	211400	000000
  7452	040071	212400	000000
  7453	040072	213400	000000
  7454	040073	214400	000000
  7455	040074	215400	000000
  7456	040075	216400	000000
  7457	040076	217400	000000
  7458	040077	220400	000000
  7459	040100	221400	000000
  7460	040101	222400	000000DBKCA	PDP-10 KI10 ADVANCED INSTRUCTION DIAGNOSTIC #1, VERSION 0,3 	MACRO %52(462) 10:44  9-AUG-76 PAGE 1-1
STOR	KLM	 5-JAN-76		*STOR* RESERVED STORAGE, JAN 5,1976                                                SEQ 0194

  7461	040102	177400	000000
  7462	040103	576400	000000
  7463	040104	200076	000000
  7464	040105	002000	010000
  7465	040106	76 64 45 63 64 00
  7466	040107	60 41 63 63 00 43
  7467	040110	57 65 56 64 00 35
  7468	040111	00 77 00 00 00 00
  7469	040112	76 60 43 00 35 00
  7470	040113	00 00 77 00 00 00
  7471	040114	76 62 45 63 65 54
  7472	040115	64 00 00 35 00 77
  7473	040116	76 46 41 65 54 64
  7474	040117	00 56 65 55 42 45
  7475	040120	62 00 35 00 77 00
  7476	040121	000000	000000
  7477	040122	103 050 101 103 051
  7478	040123	040 106 101 111 114
  7479	040124	105 104 000 000 000
  7480	040125	103 050 101 103 053
  7481	040126	061 051 040 106 101
  7482	040127	111 114 105 104 000
  7483	040130	103 050 105 051 040
  7484	040131	106 101 111 114 105
  7485	040132	104 000 000 000 000
  7486	040133	103 050 105 053 061
  7487	040134	051 040 106 101 111
  7488	040135	114 105 104 000 000
  7489	040136	103 050 103 050 101
  7490	040137	103 122 051 051 040
  7491	040140	106 101 111 114 105
  7492	040141	104 000 000 000 000
  7493	040142	103 050 103 050 101
  7494	040143	103 122 053 061 051
  7495	040144	051 040 106 101 111
  7496	040145	114 105 104 000 000
  7497	040146	103 050 103 050 101
  7498	040147	103 114 051 051 040
  7499	040150	106 101 111 114 105
  7500	040151	104 000 000 000 000
  7501	040152	103 050 103 050 105
  7502	040153	051 051 040 106 101
  7503	040154	111 114 105 104 000
  7504	040155	106 114 101 107 040
  7505	040156	106 101 111 114 105
  7506	040157	104 000 000 000 000
  7507						LIST
  7508	040160	000000	000000		ENDSLD:	0
  7509
  7510					IFDEF	DEBUG,<
  7511	040161				PATCH:	BLOCK DEBUG		;PATCHING AREA
  7512					>
  7513
  7514					;PROGRAM VARIABLES
  7515	040261					VARDBKCA	PDP-10 KI10 ADVANCED INSTRUCTION DIAGNOSTIC #1, VERSION 0,3 	MACRO %52(462) 10:44  9-AUG-76 PAGE 1-2
STOR	KLM	 5-JAN-76		*STOR* RESERVED STORAGE, JAN 5,1976                                                SEQ 0195

  7516
  7517					IFDEF	PGMEND,<
  7518	040271	000000	000000		END:	0
  7519			030000			END	BEGIN	>

NO ERRORS DETECTED

PROGRAM BREAK IS 000000
ABSLUTE BREAK IS 040272
CPU TIME USED 00:21.336

6K CORE USED
ABORT	   105#
AC	   705#	   707	   708	   709	   710	   712	   713	   714	   715	   716	   717	   724#	   726	   727     SEQ 0196
	   728	   729	   731	   732	   733	   734	   735	   736	   742#	   744	   745	   746	   747	   749
	   750	   751	   752	   753	   754	   761#	   763	   764	   765	   766	   768	   769	   770	   771
	   772	   773	   779#	   781	   782	   783	   784	   786	   787	   788	   789	   790	   791	   798#
	   800	   801	   802	   803	   824	   825	   826	   827	   828	   829	   835	   836	   837	   838
	   839	   840	   846	   847	   848	   849	   850	   851	   857	   858	   859	   860	   861	   862
	   868	   869	   870	   871	   872	   873	   879	   880	   881	   882	   883	   884	   890	   891
	   892	   893	   894	   895	   904#	   906	   907	   908	   909	   934	   935	   936	   937	   938
	   939	   946	   947	   948	   949	   950	   951	   958	   959	   960	   961	   962	   963	   970
	   971	   972	   973	   974	   975	   982	   983	   984	   985	   986	   987	   994	   995	   996
	   997	   998	   999	  1006	  1007	  1008	  1009	  1010	  1011	  1020#	  1022	  1023	  1024	  1025
	  1027	  1028	  1029	  1030	  1031	  1032	  1038#	  1040	  1041	  1042	  1043	  1065	  1066	  1067
	  1068	  1069	  1070	  1076	  1077	  1078	  1079	  1080	  1081	  1087	  1088	  1089	  1090	  1091
	  1092	  1098	  1099	  1100	  1101	  1102	  1103	  1109	  1110	  1111	  1112	  1113	  1114	  1120
	  1121	  1122	  1123	  1124	  1125	  1131	  1132	  1133	  1134	  1135	  1136	  1145#	  1147	  1148
	  1149	  1150	  1153	  1154	  1155	  1156	  1157	  1158	  1161	  1162	  1163	  1164	  1165	  1166
	  1169	  1170	  1171	  1172	  1173	  1174	  1177	  1178	  1179	  1180	  1181	  1182	  1184	  1185
	  1186	  1187	  1188	  1189	  1192	  1193	  1194	  1195	  1196	  1197	  1200	  1201	  1202	  1203
	  1204	  1205	  1208	  1209	  1210	  1211	  1212	  1213	  1219#	  1221	  1222	  1223	  1224	  1226
	  1227	  1228	  1229	  1230	  1231	  1238#	  1240	  1241	  1242	  1243	  1245	  1246	  1247	  1248
	  1249	  1250	  1258#	  1260	  1261	  1262	  1263	  1281	  1282	  1283	  1284	  1285	  1286	  1291
	  1292	  1293	  1294	  1295	  1296	  1301	  1302	  1303	  1304	  1305	  1306	  1311	  1312	  1313
	  1314	  1315	  1316	  1321	  1322	  1323	  1324	  1325	  1326	  1331	  1332	  1333	  1334	  1335
	  1336	  1341	  1342	  1343	  1344	  1345	  1346	  1351	  1352	  1353	  1354	  1355	  1356	  1361#
	  1363	  1364	  1365	  1366	  1368	  1369	  1370	  1371	  1372	  1373	  1378#	  1380	  1381	  1382
	  1383	  1385	  1386	  1387	  1388	  1389	  1390	  1397#	  1399	  1400	  1401	  1402	  1404	  1405
	  1406	  1407	  1408	  1409	  1416#	  1418	  1419	  1420	  1421	  1423	  1424	  1425	  1426	  1427
	  1428	  1435#	  1437	  1438	  1439	  1440	  1442	  1443	  1444	  1445	  1446	  1447	  1455#	  1457
	  1458	  1459	  1460	  1464	  1465	  1466	  1468	  1469	  1473	  1474	  1475	  1477	  1478	  1482
	  1483	  1484	  1485	  1486	  1487	  1488	  1497#	  1499	  1500	  1501	  1502	  1504	  1505	  1506
	  1507	  1508	  1520#	  1522	  1523	  1524	  1525	  1527	  1528	  1529	  1530	  1531	  1532	  1533
	  1543#	  1545	  1546	  1547	  1548	  1550	  1551	  1552	  1553	  1554	  1555	  1562#	  1564	  1565
	  1566	  1567	  1569	  1570	  1571	  1572	  1573	  1574	  1575	  1583#	  1585	  1586	  1587	  1588
	  1590	  1591	  1592	  1593	  1594	  1595	  1596	  1602#	  1604	  1605	  1606	  1607	  1609	  1610
	  1611	  1612	  1613	  1614	  1615	  1622#	  1624	  1625	  1626	  1627	  1629	  1630	  1631	  1632
	  1633	  1634	  1635	  1642#	  1644	  1645	  1646	  1647	  1649	  1650	  1651	  1652	  1653	  1654
	  1655	  1666#	  1668	  1669	  1670	  1671	  1673	  1674	  1675	  1676	  1677	  1678	  1679	  1680
	  1681	  1682	  1691#	  1693	  1694	  1695	  1696	  1698	  1699	  1700	  1701	  1702	  1703	  1704
	  1712#	  1714	  1715	  1716	  1717	  1719	  1720	  1721	  1722	  1723	  1724	  1725	  1734#	  1736
	  1737	  1738	  1739	  1741	  1742	  1743	  1744	  1745	  1746	  1747	  1755#	  1757	  1758	  1759
	  1760	  1762	  1763	  1764	  1765	  1766	  1767	  1768	  1777#	  1779	  1780	  1781	  1782	  1784
	  1785	  1786	  1787	  1788	  1789	  1790	  1799#	  1801	  1802	  1803	  1804	  1806	  1807	  1808
	  1809	  1810	  1811	  1819#	  1821	  1822	  1823	  1824	  1844	  1845	  1846	  1847	  1848	  1849
	  1850	  1855	  1856	  1857	  1858	  1859	  1860	  1861	  1866	  1867	  1868	  1869	  1870	  1871
	  1872	  1877	  1878	  1879	  1880	  1881	  1882	  1883	  1888	  1889	  1890	  1891	  1892	  1893
	  1894	  1899	  1900	  1901	  1902	  1903	  1904	  1905	  1910	  1911	  1912	  1913	  1914	  1915
	  1916	  1924#	  1926	  1927	  1928	  1929	  1931	  1932	  1933	  1934	  1935	  1936	  1937	  1945#
	  1947	  1948	  1949	  1950	  1952	  1953	  1954	  1955	  1956	  1957	  1966#	  1968	  1969	  1970
	  1971	  1973	  1974	  1975	  1976	  1977	  1978	  1979	  1989#	  1991	  1992	  1993	  1994	  1996
	  1997	  1998	  1999	  2000	  2001	  2007#	  2009	  2010	  2011	  2012	  2014	  2015	  2016	  2017
	  2018	  2019	  2020	  2027#	  2029	  2030	  2031	  2032	  2034	  2035	  2036	  2037	  2038	  2039
	  2040	  2050#	  2052	  2053	  2054	  2055	  2058	  2059	  2060	  2061	  2062	  2063	  2064	  2067	  2068	  2069	  2070	  2071	  2072	  2073	  2076	  2077	  2078	  2079	  2080	  2081	  2082	  2085
	  2086	  2087	  2088	  2089	  2090	  2091	  2093	  2094	  2095	  2096	  2097	  2098	  2099	  2102     SEQ 0197
	  2103	  2104	  2105	  2106	  2107	  2108	  2111	  2112	  2113	  2114	  2115	  2116	  2117	  2123#
	  2125	  2126	  2127	  2128	  2130	  2131	  2132	  2133	  2134	  2135	  2136	  2139	  2140	  2141
	  2142	  2143	  2144	  2145	  2148	  2149	  2150	  2151	  2152	  2153	  2154	  2157	  2158	  2159
	  2160	  2161	  2162	  2163	  2165	  2166	  2167	  2168	  2169	  2170	  2171	  2174	  2175	  2176
	  2177	  2178	  2179	  2180	  2183	  2184	  2185	  2186	  2187	  2188	  2189	  2192	  2193	  2194
	  2195	  2196	  2197	  2198	  2205#	  2207	  2208	  2209	  2210	  2212	  2213	  2214	  2215	  2216
	  2217	  2218	  2226#	  2228	  2229	  2230	  2231	  2233	  2234	  2235	  2236	  2237	  2238	  2239
	  2246#	  2248	  2249	  2250	  2251	  2253	  2254	  2255	  2256	  2257	  2258	  2265#	  2267	  2268
	  2269	  2270	  2272	  2273	  2274	  2275	  2276	  2277	  2278	  2287#	  2289	  2290	  2291	  2292
	  2294	  2295	  2296	  2297	  2298	  2299	  2300	  2308#	  2310	  2311	  2312	  2313	  2315	  2316
	  2317	  2318	  2319	  2320	  2321	  2331#	  2334	  2335	  2336	  2337	  2339	  2340	  2341	  2342
	  2343	  2344	  2345	  2353#	  2355	  2356	  2357	  2358	  2360	  2361	  2362	  2363	  2364	  2365
	  2366	  2373#	  2375	  2376	  2377	  2378	  2380	  2381	  2382	  2383	  2384	  2385	  2386	  2392#
	  2394	  2395	  2396	  2397	  2399	  2400	  2401	  2402	  2403	  2404	  2405	  2412#	  2414	  2415
	  2416	  2417	  2419	  2420	  2421	  2422	  2423	  2424	  2425	  2432#	  2434	  2435	  2436	  2437
	  2439	  2440	  2441	  2442	  2443	  2444	  2445	  2458#	  2460	  2461	  2462	  2463	  2465	  2466
	  2467	  2468	  2469	  2470	  2471	  2472	  2473	  2474	  2475	  2476	  2477	  2478	  2488#	  2490
	  2491	  2492	  2493	  2495	  2496	  2497	  2498	  2499	  2500	  2501	  2502	  2512#	  2514	  2515
	  2516	  2517	  2520	  2521	  2522	  2523	  2524	  2525	  2526	  2527	  2528	  2529	  2530	  2533
	  2534	  2535	  2536	  2537	  2538	  2539	  2540	  2541	  2542	  2543	  2553#	  2555	  2556	  2557
	  2558	  2560	  2561	  2562	  2563	  2564	  2565	  2566	  2567	  2576#	  2578	  2579	  2580	  2581
	  2583	  2584	  2585	  2586	  2587	  2588	  2589	  2590	  2591	  2592	  2593	  2601#	  2603	  2604
	  2605	  2606	  2608	  2609	  2610	  2611	  2612	  2613	  2614	  2615	  2625#	  2627	  2628	  2629
	  2630	  2632	  2633	  2634	  2635	  2636	  2637	  2638	  2639	  2649#	  2651	  2652	  2653	  2654
	  2656	  2657	  2658	  2659	  2660	  2661	  2662	  2663	  2674#	  2676	  2677	  2678	  2679	  2681
	  2682	  2683	  2684	  2685	  2686	  2687	  2688	  2698#	  2700	  2701	  2702	  2703	  2705	  2706
	  2707	  2708	  2709	  2710	  2711	  2712	  2722#	  2724	  2725	  2726	  2727	  2729	  2730	  2731
	  2732	  2733	  2734	  2735	  2736	  2746#	  2748	  2749	  2750	  2751	  2753	  2754	  2755	  2756
	  2757	  2758	  2759	  2760	  2770#	  2772	  2773	  2774	  2775	  2778	  2779	  2780	  2781	  2782
	  2783	  2784	  2785	  2788	  2789	  2790	  2791	  2792	  2793	  2794	  2795	  2798	  2799	  2800
	  2801	  2802	  2803	  2804	  2805	  2808	  2809	  2810	  2811	  2812	  2813	  2814	  2815	  2825#
	  2827	  2828	  2829	  2830	  2833	  2834	  2835	  2836	  2837	  2838	  2839	  2840	  2843	  2844
	  2845	  2846	  2847	  2848	  2849	  2850	  2860#	  2862	  2863	  2864	  2865	  2867	  2868	  2869
	  2870	  2871	  2872	  2873	  2874	  2885#	  2887	  2888	  2889	  2890	  2892	  2893	  2894	  2895
	  2896	  2897	  2898	  2899	  2907#	  2909	  2910	  2911	  2912	  2914	  2915	  2916	  2917	  2918
	  2919	  2920	  2921	  2930#	  2932	  2933	  2934	  2935	  2937	  2938	  2939	  2940	  2941	  2942
	  2943	  2944	  2945	  2953#	  2955	  2956	  2957	  2958	  2960	  2961	  2962	  2963	  2964	  2965
	  2966	  2967	  2980#	  2982	  2983	  2984	  2985	  2987	  2988	  2989	  2990	  2991	  2992	  2993
	  2994	  3007#	  3009	  3010	  3011	  3012	  3014	  3015	  3016	  3017	  3018	  3019	  3020	  3021
	  3022	  3023	  3033#	  3035	  3036	  3037	  3038	  3040	  3041	  3042	  3043	  3044	  3045	  3046
	  3054#	  3056	  3057	  3058	  3059	  3061	  3062	  3063	  3064	  3065	  3066	  3067	  3068	  3078#
	  3080	  3081	  3082	  3083	  3085	  3086	  3087	  3088	  3089	  3090	  3091	  3098#	  3100	  3101
	  3102	  3103	  3105	  3106	  3107	  3108	  3109	  3110	  3119#	  3121	  3122	  3123	  3124	  3126
	  3127	  3128	  3129	  3130	  3131	  3132	  3140#	  3142	  3143	  3144	  3145	  3147	  3148	  3149
	  3150	  3151	  3152	  3153	  3154	  3165#	  3167	  3168	  3169	  3170	  3172	  3173	  3174	  3175
	  3176	  3177	  3178	  3179	  3181	  3182	  3183	  3184	  3185	  3186	  3187	  3194#	  3196	  3197
	  3198	  3199	  3201	  3202	  3203	  3204	  3205	  3206	  3207	  3215#	  3217	  3218	  3219	  3220
	  3222	  3223	  3224	  3225	  3226	  3227	  3228	  3235#	  3237	  3238	  3239	  3240	  3242	  3243
	  3244	  3245	  3246	  3247	  3248	  3259#	  3261	  3262	  3263	  3264	  3288	  3289	  3290	  3291
	  3292	  3293	  3300	  3301	  3302	  3303	  3304	  3305	  3312	  3313	  3314	  3315	  3316	  3317
	  3324	  3325	  3326	  3327	  3328	  3329	  3336	  3337	  3338	  3339	  3340	  3341	  3348	  3349	  3350	  3351	  3352	  3353	  3360	  3361	  3362	  3363	  3364	  3365	  3372	  3373	  3374	  3375
	  3376	  3377	  3386#	  3388	  3389	  3390	  3391	  3412	  3413	  3414	  3415	  3416	  3417	  3423     SEQ 0198
	  3424	  3425	  3426	  3427	  3428	  3434	  3435	  3436	  3437	  3438	  3439	  3445	  3446	  3447
	  3448	  3449	  3450	  3456	  3457	  3458	  3459	  3460	  3461	  3467	  3468	  3469	  3470	  3471
	  3472	  3478	  3479	  3480	  3481	  3482	  3483	  3491#	  3493	  3494	  3495	  3496	  3523	  3524
	  3525	  3526	  3527	  3528	  3536	  3537	  3538	  3539	  3540	  3541	  3549	  3550	  3551	  3552
	  3553	  3554	  3562	  3563	  3564	  3565	  3566	  3567	  3575	  3576	  3577	  3578	  3579	  3580
	  3588	  3589	  3590	  3591	  3592	  3593	  3601	  3602	  3603	  3604	  3605	  3606	  3614	  3615
	  3616	  3617	  3618	  3619	  3628#	  3630	  3631	  3632	  3633	  3655	  3656	  3657	  3658	  3659
	  3660	  3666	  3667	  3668	  3669	  3670	  3671	  3677	  3678	  3679	  3680	  3681	  3682	  3688
	  3689	  3690	  3691	  3692	  3693	  3699	  3700	  3701	  3702	  3703	  3704	  3710	  3711	  3712
	  3713	  3714	  3715	  3721	  3722	  3723	  3724	  3725	  3726	  3732	  3733	  3734	  3735	  3736
	  3737	  3745#	  3747	  3748	  3749	  3750	  3770	  3771	  3772	  3773	  3774	  3780	  3781	  3782
	  3783	  3784	  3790	  3791	  3792	  3793	  3794	  3803#	  3805	  3806	  3807	  3808	  3830	  3831
	  3832	  3833	  3834	  3835	  3841	  3842	  3843	  3844	  3845	  3846	  3852	  3853	  3854	  3855
	  3856	  3857	  3865#	  3867	  3868	  3869	  3870	  3892	  3893	  3894	  3895	  3896	  3897	  3903
	  3904	  3905	  3906	  3907	  3908	  3914	  3915	  3916	  3917	  3918	  3919	  3929#	  3931	  3932
	  3933	  3934	  3953	  3954	  3955	  3956	  3957	  3958	  3963	  3964	  3965	  3966	  3967	  3968
	  3973	  3974	  3975	  3976	  3977	  3978	  3983	  3984	  3985	  3986	  3987	  3988	  3993	  3994
	  3995	  3996	  3997	  3998	  4003	  4004	  4005	  4006	  4007	  4008	  4013	  4014	  4015	  4016
	  4017	  4018	  4023	  4024	  4025	  4026	  4027	  4028	  4033	  4034	  4035	  4036	  4037	  4038
	  4061	  4062	  4063	  4064	  4065	  4066	  4067	  4068	  4074	  4075	  4076	  4077	  4078	  4079
	  4080	  4081	  4087	  4088	  4089	  4090	  4091	  4092	  4093	  4094	  4100	  4101	  4102	  4103
	  4104	  4105	  4106	  4107	  4113	  4114	  4115	  4116	  4117	  4118	  4119	  4120	  4126	  4127
	  4128	  4129	  4130	  4131	  4132	  4133	  4139	  4140	  4141	  4142	  4143	  4144	  4145	  4146
	  4152	  4153	  4154	  4155	  4156	  4157	  4158	  4159	  4165	  4166	  4167	  4168	  4169	  4170
	  4171	  4172	  4178	  4179	  4180	  4181	  4182	  4183	  4184	  4185	  4191	  4192	  4193	  4194
	  4195	  4196	  4197	  4198	  4204	  4205	  4206	  4207	  4208	  4209	  4210	  4211	  4217	  4218
	  4219	  4220	  4221	  4222	  4223	  4224	  4230	  4231	  4232	  4233	  4234	  4235	  4236	  4237
	  4243	  4244	  4245	  4246	  4247	  4248	  4249	  4250	  4256	  4257	  4258	  4259	  4260	  4261
	  4262	  4263	  4269	  4270	  4271	  4272	  4273	  4274	  4275	  4276	  4282	  4283	  4284	  4285
	  4286	  4287	  4288	  4289	  4297#	  4299	  4300	  4301	  4302	  4329	  4330	  4331	  4332	  4333
	  4334	  4335	  4336	  4337	  4344	  4345	  4346	  4347	  4348	  4349	  4350	  4351	  4352	  4359
	  4360	  4361	  4362	  4363	  4364	  4365	  4366	  4367	  4374	  4375	  4376	  4377	  4378	  4379
	  4380	  4381	  4382	  4389	  4390	  4391	  4392	  4393	  4394	  4395	  4396	  4397	  4404	  4405
	  4406	  4407	  4408	  4409	  4410	  4411	  4412	  4419	  4420	  4421	  4422	  4423	  4424	  4425
	  4426	  4427	  4434	  4435	  4436	  4437	  4438	  4439	  4440	  4441	  4442	  4449	  4450	  4451
	  4452	  4453	  4454	  4455	  4456	  4457	  4464	  4465	  4466	  4467	  4468	  4469	  4470	  4471
	  4472	  4481#	  4483	  4484	  4485	  4486	  4509	  4510	  4511	  4512	  4513	  4514	  4515	  4521
	  4522	  4523	  4524	  4525	  4526	  4527	  4533	  4534	  4535	  4536	  4537	  4538	  4539	  4545
	  4546	  4547	  4548	  4549	  4550	  4551	  4557	  4558	  4559	  4560	  4561	  4562	  4563	  4569
	  4570	  4571	  4572	  4573	  4574	  4575	  4583#	  4585	  4586	  4587	  4588	  4590	  4591	  4592
	  4593	  4594	  4595	  4596	  4598	  4599	  4600	  4601	  4602	  4603	  4604	  4606	  4607	  4608
	  4609	  4610	  4611	  4612	  4619#	  4621	  4622	  4623	  4624	  4643	  4644	  4645	  4646	  4647
	  4648	  4653	  4654	  4655	  4656	  4657	  4658	  4663	  4664	  4665	  4666	  4667	  4668	  4677#
	  4679	  4680	  4681	  4682	  4701	  4702	  4703	  4704	  4705	  4706	  4711	  4712	  4713	  4714
	  4715	  4716	  4721	  4722	  4723	  4724	  4725	  4726	  4735#	  4737	  4738	  4739	  4740	  4763
	  4764	  4765	  4766	  4767	  4768	  4769	  4775	  4776	  4777	  4778	  4779	  4780	  4781	  4787
	  4788	  4789	  4790	  4791	  4792	  4793	  4802#	  4804	  4805	  4806	  4807	  4830	  4831	  4832
	  4833	  4834	  4835	  4836	  4842	  4843	  4844	  4845	  4846	  4847	  4848	  4854	  4855	  4856
	  4857	  4858	  4859	  4860	  4868#	  4870	  4871	  4872	  4873	  4899	  4900	  4901	  4902	  4903
	  4904	  4905	  4912	  4913	  4914	  4915	  4916	  4917	  4918	  4925	  4926	  4927	  4928	  4929
	  4930	  4931	  4941#	  4943	  4944	  4945	  4946	  4972	  4973	  4974	  4975	  4976	  4977	  4978	  4985	  4986	  4987	  4988	  4989	  4990	  4991	  4998	  4999	  5000	  5001	  5002	  5003	  5004
	  5013#	  5015	  5016	  5017	  5018	  5041	  5042	  5043	  5044	  5045	  5046	  5047	  5053	  5054     SEQ 0199
	  5055	  5056	  5057	  5058	  5059	  5065	  5066	  5067	  5068	  5069	  5070	  5071	  5081#	  5083
	  5084	  5085	  5086	  5112	  5113	  5114	  5115	  5116	  5117	  5118	  5125	  5126	  5127	  5128
	  5129	  5130	  5131	  5138	  5139	  5140	  5141	  5142	  5143	  5144	  5154#	  5156	  5157	  5158
	  5159	  5186	  5187	  5188	  5189	  5190	  5191	  5192	  5193	  5194	  5201	  5202	  5203	  5204
	  5205	  5206	  5207	  5208	  5209	  5216	  5217	  5218	  5219	  5220	  5221	  5222	  5223	  5224
	  5231	  5232	  5233	  5234	  5235	  5236	  5237	  5238	  5239	  5246	  5247	  5248	  5249	  5250
	  5251	  5252	  5253	  5254	  5261	  5262	  5263	  5264	  5265	  5266	  5267	  5268	  5269	  5276
	  5277	  5278	  5279	  5280	  5281	  5282	  5283	  5284	  5291	  5292	  5293	  5294	  5295	  5296
	  5297	  5298	  5299	  5306	  5307	  5308	  5309	  5310	  5311	  5312	  5313	  5314	  5321	  5322
	  5323	  5324	  5325	  5326	  5327	  5328	  5329	  5336	  5337	  5338	  5339	  5340	  5341	  5342
	  5343	  5344	  5351	  5352	  5353	  5354	  5355	  5356	  5357	  5358	  5359	  5366	  5367	  5368
	  5369	  5370	  5371	  5372	  5373	  5374	  5381	  5382	  5383	  5384	  5385	  5386	  5387	  5388
	  5389	  5396	  5397	  5398	  5399	  5400	  5401	  5402	  5403	  5404	  5411	  5412	  5413	  5414
	  5415	  5416	  5417	  5418	  5419	  5426	  5427	  5428	  5429	  5430	  5431	  5432	  5433	  5434
	  5441	  5442	  5443	  5444	  5445	  5446	  5447	  5448	  5449	  5476	  5477	  5478	  5479	  5480
	  5481	  5482	  5483	  5484	  5491	  5492	  5493	  5494	  5495	  5496	  5497	  5498	  5499	  5506
	  5507	  5508	  5509	  5510	  5511	  5512	  5513	  5514	  5521	  5522	  5523	  5524	  5525	  5526
	  5527	  5528	  5529	  5536	  5537	  5538	  5539	  5540	  5541	  5542	  5543	  5544	  5551	  5552
	  5553	  5554	  5555	  5556	  5557	  5558	  5559	  5566	  5567	  5568	  5569	  5570	  5571	  5572
	  5573	  5574	  5582#	  5584	  5585	  5586	  5587	  5591	  5592	  5593	  5594	  5595	  5596	  5597
	  5599	  5600	  5604	  5605	  5606	  5607	  5609	  5610	  5614	  5615	  5616	  5617	  5618	  5619
	  5620	  5621	  5628#	  5630	  5631	  5632	  5633	  5635	  5636	  5637	  5638	  5639	  5640	  5641
	  5642	  5643	  5644	  5645	  5655#	  5657	  5658	  5659	  5660	  5691	  5692	  5693	  5694	  5695
	  5696	  5697	  5698	  5699	  5700	  5708	  5709	  5710	  5711	  5712	  5713	  5714	  5715	  5716
	  5717	  5725	  5726	  5727	  5728	  5729	  5730	  5731	  5732	  5733	  5734	  5742	  5743	  5744
	  5745	  5746	  5747	  5748	  5749	  5750	  5751	  5759	  5760	  5761	  5762	  5763	  5764	  5765
	  5766	  5767	  5768	  5776	  5777	  5778	  5779	  5780	  5781	  5782	  5783	  5784	  5785	  5793
	  5794	  5795	  5796	  5797	  5798	  5799	  5800	  5801	  5802	  5810	  5811	  5812	  5813	  5814
	  5815	  5816	  5817	  5818	  5819	  5827	  5828	  5829	  5830	  5831	  5832	  5833	  5834	  5835
	  5836	  5844	  5845	  5846	  5847	  5848	  5849	  5850	  5851	  5852	  5853	  5861	  5862	  5863
	  5864	  5865	  5866	  5867	  5868	  5869	  5870	  5878	  5879	  5880	  5881	  5882	  5883	  5884
	  5885	  5886	  5887	  5895	  5896	  5897	  5898	  5899	  5900	  5901	  5902	  5903	  5904	  5912
	  5913	  5914	  5915	  5916	  5917	  5918	  5919	  5920	  5921	  5929	  5930	  5931	  5932	  5933
	  5934	  5935	  5936	  5937	  5938	  5946	  5947	  5948	  5949	  5950	  5951	  5952	  5953	  5954
	  5955	  5963	  5964	  5965	  5966	  5967	  5968	  5969	  5970	  5971	  5972	  5980	  5981	  5982
	  5983	  5984	  5985	  5986	  5987	  5988	  5989	  6018	  6019	  6020	  6021	  6022	  6023	  6024
	  6025	  6026	  6034	  6035	  6036	  6037	  6038	  6039	  6040	  6041	  6042	  6050	  6051	  6052
	  6053	  6054	  6055	  6056	  6057	  6058	  6066	  6067	  6068	  6069	  6070	  6071	  6072	  6073
	  6074	  6082	  6083	  6084	  6085	  6086	  6087	  6088	  6089	  6090	  6098	  6099	  6100	  6101
	  6102	  6103	  6104	  6105	  6106	  6114	  6115	  6116	  6117	  6118	  6119	  6120	  6121	  6122
	  6130	  6131	  6132	  6133	  6134	  6135	  6136	  6137	  6138	  6146	  6147	  6148	  6149	  6150
	  6151	  6152	  6153	  6154	  6164#	  6166	  6167	  6168	  6169	  6171	  6172	  6173	  6174	  6175
	  6176	  6177	  6178	  6179	  6180	  6181	  6182	  6183	  6190#	  6192	  6193	  6194	  6195	  6197
	  6198	  6199	  6200	  6201	  6202	  6203	  6204	  6205	  6212#	  6214	  6215	  6216	  6217	  6219
	  6220	  6221	  6222	  6223	  6224	  6225	  6226	  6227	  6234#	  6236	  6237	  6238	  6239	  6267
	  6268	  6269	  6270	  6271	  6272	  6273	  6274	  6275	  6276	  6277	  6278	  6284	  6285	  6286
	  6287	  6288	  6289	  6290	  6291	  6292	  6293	  6294	  6295	  6301	  6302	  6303	  6304	  6305
	  6306	  6307	  6308	  6309	  6310	  6311	  6312	  6318	  6319	  6320	  6321	  6322	  6323	  6324
	  6325	  6326	  6327	  6328	  6329	  6335	  6336	  6337	  6338	  6339	  6340	  6341	  6342	  6343
	  6344	  6345	  6346	  6352	  6353	  6354	  6355	  6356	  6357	  6358	  6359	  6360	  6361	  6362
	  6363	  6369	  6370	  6371	  6372	  6373	  6374	  6375	  6376	  6377	  6378	  6379	  6380	  6386	  6387	  6388	  6389	  6390	  6391	  6392	  6393	  6394	  6395	  6396	  6397	  6403	  6404	  6405
	  6406	  6407	  6408	  6409	  6410	  6411	  6412	  6413	  6414	  6420	  6421	  6422	  6423	  6424     SEQ 0200
	  6425	  6426	  6427	  6428	  6429	  6430	  6431	  6437	  6438	  6439	  6440	  6441	  6442	  6443
	  6444	  6445	  6446	  6447	  6448	  6454	  6455	  6456	  6457	  6458	  6459	  6460	  6461	  6462
	  6463	  6464	  6465	  6471	  6472	  6473	  6474	  6475	  6476	  6477	  6478	  6479	  6480	  6481
	  6482	  6488	  6489	  6490	  6491	  6492	  6493	  6494	  6495	  6496	  6497	  6498	  6499	  6505
	  6506	  6507	  6508	  6509	  6510	  6511	  6512	  6513	  6514	  6515	  6516	  6522	  6523	  6524
	  6525	  6526	  6527	  6528	  6529	  6530	  6531	  6532	  6533	  6539	  6540	  6541	  6542	  6543
	  6544	  6545	  6546	  6547	  6548	  6549	  6550	  6557#	  6559	  6560	  6561	  6562	  6564	  6565
	  6566	  6567	  6568	  6569	  6570	  6571	  6578#	  6580	  6581	  6582	  6583	  6585	  6586	  6587
	  6588	  6589	  6590	  6591	  6592	  6593	  6601#	  6603	  6604	  6605	  6606	  6608	  6609	  6610
	  6611	  6612	  6613	  6614	  6615	  6616	  6623#	  6625	  6626	  6627	  6628	  6630	  6631	  6632
	  6633	  6634	  6635	  6636	  6637	  6638	  6647#	  6649	  6650	  6651	  6652	  6654	  6655	  6656
	  6657	  6658	  6659	  6660	  6661	  6662	  6663	  6664	  6670#	  6672	  6673	  6674	  6675	  6677
	  6678	  6679	  6680	  6681	  6682	  6683	  6684	  6685	  6686	  6687	  6688	  6691#	  6693	  6694
	  6695	  6696	  6700	  6701	  6702	  6703	  6704	  6705	  6708	  6709	  6710	  6711	  6715	  6716
	  6717	  6718	  6719	  6720	  6722	  6723	  6724	  6725	  6726	  6727	  6731	  6732	  6733	  6734
	  6735	  6736	  6738	  6739	  6740	  6741	  6742	  6743	  6746	  6747	  6748	  6749	  6750	  6751
	  6753	  6756	  6757	  6758	  6759	  6760	  6762	  6763	  6768	  6769	  6770	  6771	  6772	  6773
	  6775	  6778	  6779	  6780	  6781	  6782	  6784	  6785	  6790	  6791	  6792	  6793	  6794	  6795
	  6798	  6799	  6800	  6801	  6804	  6805	  6806	  6807	  6808	  6809	  6812	  6813	  6814	  6815
	  6819	  6820	  6821	  6822	  6823	  6824	  6826	  6827	  6828	  6829	  6830	  6831	  6834	  6835
	  6836	  6837	  6838	  6839	  6842	  6843	  6844	  6845	  6849	  6850	  6851	  6852	  6853	  6854
	  6856	  6857	  6858	  6859	  6860	  6861	  6865	  6866	  6867	  6868	  6869	  6870	  6872	  6873
	  6874	  6875	  6876	  6877	  6880	  6881	  6882	  6883	  6884	  6885	  6887	  6888	  6889	  6890
	  6891	  6892	  6896	  6897	  6898	  6899	  6900	  6901	  6903	  6904	  6905	  6908	  6909	  6910
	  6912	  6913	  6918	  6919	  6920	  6921	  6922	  6923	  6925	  6926	  6927	  6930	  6931	  6932
	  6934	  6935	  6939	  6940	  6941	  6942	  6943	  6944	  6947	  6948	  6949	  6950	  6954	  6955
	  6956	  6957	  6958	  6959	  6962	  6963	  6964	  6965	  6968	  6969	  6970	  6971	  6972	  6973
	  6976	  6977	  6978	  6979	  6983	  6984	  6985	  6986	  6987	  6988	  6990	  6991	  6992	  6993
	  6994	  6995	  6999	  7000	  7001	  7002	  7003	  7004	  7006	  7007	  7008	  7009	  7010	  7011
	  7014	  7015	  7016	  7017	  7018	  7019	  7021	  7024	  7025	  7026	  7027	  7028	  7030	  7031
	  7036	  7037	  7038	  7039	  7040	  7041	  7043	  7046	  7047	  7048	  7049	  7050	  7052	  7053
	  7058	  7059	  7060	  7061	  7062	  7063	  7066	  7067	  7068	  7069	  7072	  7073	  7074	  7075
	  7076	  7077	  7080	  7081	  7082	  7083	  7087	  7088	  7089	  7090	  7091	  7092	  7094	  7095
	  7096	  7097	  7098	  7099	  7102	  7103	  7104	  7105	  7106	  7107	  7110	  7111	  7112	  7113
	  7117	  7118	  7119	  7120	  7121	  7122	  7124	  7125	  7126	  7127	  7128	  7129	  7133	  7134
	  7135	  7136	  7137	  7138	  7140	  7141	  7142	  7143	  7144	  7145	  7148	  7149	  7150	  7151
	  7152	  7153	  7155	  7156	  7157	  7158	  7159	  7160	  7164	  7165	  7166	  7167	  7168	  7169
	  7171	  7172	  7173	  7176	  7177	  7178	  7180	  7181	  7186	  7187	  7188	  7189	  7190	  7191
	  7193	  7194	  7195	  7198	  7199	  7200	  7202	  7203	  7207	  7208	  7209	  7210	  7211	  7212
	  7215	  7216	  7217	  7218	  7222	  7223	  7224	  7225	  7226	  7227	  7230	  7231	  7232	  7233
ALTMGO	   420#	  7370
AMCLRB	   334#
ANXM	   334#
APR	  7247	  7399
AROV	   334#
AROVTP	   334#
AROVU	   334#
AST	   535#
ATSIN	   536#
BEGEND	   416#	  7235
BEGIN	    63	    64	    75	    78	    79	    80	    81	    82	    83	    84	    85	   347#	  7519BEGIN1	   363#	   417
BELL	   539#                                                                                                            SEQ 0201
BIS	   334#
CA00	   693	   703#
CCA	   334#
CHAIN	   125#
CHNOFF	   334#
CHNON	   334#
CLK	   334#
CLKCLR	   334#
CLKDIS	   334#
CLKENB	   334#
CLKU	   334#
CLOCKF	   402#
CNTLC	   419#
CNTRP	   334#
COMMA	   528#
CONSW	   403#	  7304	  7371	  7402
CPOPJ	   423#
CPOPJ1	   421#
CRLF	   254	   255	   523#
CRLF2	   258	   259	   525#
CRY0	   334#
CRY1	   334#
CSHFLG	   582#
CSHMEM	   583#
CTRP	   334#
CYCL60	   576#
DCK	   334#
DDTLNK	   139#	   361
DDTSRT	   361#
DEBUG	    56#	  7510	  7511
DECVER	     3#	    10	    24	   382
DF22F	   487#
DIAGMN	   350#
DING	   111#	  7376
DOLLAR	   542#
DSKUPD	   387
END	  7518#
ENDFIX	   656#
ENDSLD	  7508#
ERDIAG	    61#	  7289
ERMORE	   436#	  7362
ERRELB	  7359
ERRLOP	   710#	   710	   729#	   729	   747#	   747	   766#	   766	   784#	   784	   803#	   803	   909#	   909
	  1025#	  1025	  1043#	  1043	  1150#	  1150	  1224#	  1224	  1243#	  1243	  1263#	  1263	  1366#	  1366
	  1383#	  1383	  1402#	  1402	  1421#	  1421	  1440#	  1440	  1460#	  1460	  1502#	  1502	  1525#	  1525
	  1548#	  1548	  1567#	  1567	  1588#	  1588	  1607#	  1607	  1627#	  1627	  1647#	  1647	  1671#	  1671
	  1696#	  1696	  1717#	  1717	  1739#	  1739	  1760#	  1760	  1782#	  1782	  1804#	  1804	  1824#	  1824
	  1929#	  1929	  1950#	  1950	  1971#	  1971	  1994#	  1994	  2012#	  2012	  2032#	  2032	  2055#	  2055
	  2128#	  2128	  2210#	  2210	  2231#	  2231	  2251#	  2251	  2270#	  2270	  2292#	  2292	  2313#	  2313
	  2337#	  2337	  2358#	  2358	  2378#	  2378	  2397#	  2397	  2417#	  2417	  2437#	  2437	  2463#	  2463
	  2493#	  2493	  2517#	  2517	  2558#	  2558	  2581#	  2581	  2606#	  2606	  2630#	  2630	  2654#	  2654	  2679#	  2679	  2703#	  2703	  2727#	  2727	  2751#	  2751	  2775#	  2775	  2830#	  2830	  2865#	  2865
	  2890#	  2890	  2912#	  2912	  2935#	  2935	  2958#	  2958	  2985#	  2985	  3012#	  3012	  3038#	  3038     SEQ 0202
	  3059#	  3059	  3083#	  3083	  3103#	  3103	  3124#	  3124	  3145#	  3145	  3170#	  3170	  3199#	  3199
	  3220#	  3220	  3240#	  3240	  3264#	  3264	  3391#	  3391	  3496#	  3496	  3633#	  3633	  3750#	  3750
	  3808#	  3808	  3870#	  3870	  3934#	  3934	  4302#	  4302	  4486#	  4486	  4588#	  4588	  4624#	  4624
	  4682#	  4682	  4740#	  4740	  4807#	  4807	  4873#	  4873	  4946#	  4946	  5018#	  5018	  5086#	  5086
	  5159#	  5159	  5587#	  5587	  5633#	  5633	  5660#	  5660	  6169#	  6169	  6195#	  6195	  6217#	  6217
	  6239#	  6239	  6562#	  6562	  6583#	  6583	  6606#	  6606	  6628#	  6628	  6652#	  6652	  6675#	  6675
	  6696#	  6696	  7269	  7381	  7384	  7385
ERRMES	    42	    43	    44	    45	    46	    47	    48	    49	    50	    51	    52	  7240#
ERRPC	   407#	  7252	  7286
ERRTLS	   408#	  7250	  7388
ERSTOP	   114#	  7372
EXCASB	    57#	   385	  7241	  7393
EXCMEM	   334#
EXCPFW	   334#
EXIOT	   334#
FOV	   334#	  6709	  6725	  6741	  6758	  6780	  6799	  6813	  6827	  6843	  6857	  6873	  6888	  6904
	  6926	  6948	  6963	  6977	  6993	  7009	  7026	  7048	  7067	  7081	  7095	  7111	  7125	  7141
	  7156	  7172	  7194	  7216	  7231
FOVU	   334#
FRDLNK	   137#
FSELNK	   136#
FXU	   334#	  6709	  6723	  6739	  6756	  6762	  6778	  6784	  6799	  6813	  6829	  6843	  6859	  6875
	  6890	  6908	  6912	  6930	  6934	  6948	  6963	  6977	  6991	  7007	  7024	  7030	  7046	  7052
	  7067	  7081	  7097	  7111	  7127	  7143	  7158	  7176	  7180	  7198	  7202	  7216	  7231
HYPEN	   533#
IADBRK	   334#
IADEXC	   334#
IADSTP	   334#
IADUSR	   334#
IAPRC1	   334#
IAPRE1	   334#
IASRTC	   334#
IASRTE	   334#
IASRTS	   334#
ICNSLL	   334#
ICNSLR	   334#
IDATAF	   334#
IEVNPR	   334#
IFMMAN	   334#
IINSTF	   334#
IIOPFC	   334#
IIOPFL	   334#
IMAINT	   334#
IMGINM	   334#
IMGNLO	   334#
IMGNOF	   334#	  7247
IMGNON	   334#
IMIPGD	   334#
IMLAPD	   334#
INHCSH	   122#
INHPAG	   119#INXCLR	   334#
INXM	   334#                                                                                                            SEQ 0203
INXSTP	   334#
IOCLR	   334#
IP50HZ	   334#
IPAREN	   334#
IPARER	   334#
IPRSTP	   334#
IPWRFL	   334#
IPWRLO	   334#
IRQCLR	   334#
ISPDOF	   334#	  7247
ISPDON	   334#
ITERAT	    94#	   380
ITMDIS	   334#
ITMENB	   334#
ITMOEN	   334#
ITMOUT	   334#
ITMSET	   334#
ITRCH1	   440#
ITRCNT	   380#
IWRITE	   334#
JOB41	   334#
JOBAPR	   334#
JOBCNI	   334#
JOBDDT	   334#
JOBFF	   334#
JOBOPC	   334#	  7369
JOBREL	   334#
JOBREN	   334#
JOBSA	   334#
JOBSYM	   334#
JOBTPC	   334#
JOBUSY	   334#
JOBUUO	   334#
JOBVER	   334#
KA10	   334
KAHZ50	   127#
KAIFLG	   397#	  7242	  7394
KI10	    59#	   334	  7241	  7393
KL10	   334
KLFLG	   398#	  6754	  6776	  6906	  6928	  7022	  7044	  7174	  7196	  7256
KLOLD	    62#	   334
KLTYP	   614#
KNTRP	   334#
KTRP	   334#
LDEXCB	   334#
LDLNK	   138#	   350	   352
LDUSRB	   334#
LFP	   537#
LIP	   334#
LOOPER	   113#	  7374
LUUO	   334#LUUO1	    42#	   467	   468
LUUO10	    49#	   467	   472                                                                                             SEQ 0204
LUUO11	    50#	   467	   472
LUUO12	    51#	   467	   473
LUUO13	    52#	   467	   473
LUUO14	   467	   474
LUUO15	   467	   474
LUUO16	   467	   475
LUUO17	   467	   475
LUUO2	    43#	   467	   469
LUUO20	   467	   476
LUUO21	   467	   476
LUUO22	   467	   477
LUUO23	   467	   477
LUUO24	   467	   478
LUUO25	   467	   478
LUUO26	   467	   479
LUUO27	   467	   479
LUUO3	    44#	   467	   469
LUUO30	   467	   480
LUUO31	   467	   480
LUUO32	   467	   481
LUUO33	   467	   481
LUUO4	    45#	   467	   470
LUUO5	    46#	   467	   470
LUUO6	    47#	   467	   471
LUUO7	    48#	   467	   471
LUUOI	   334#
MAPNEW	   488#
MARGIN	   410#	  7246	  7398	  7399
MCNVER	     4#	    10	    24	   382
MEMLOW	   490#
MEMMAP	   388
MEMSIZ	   491#
MEMTOT	   489#
MICNT	  7253#	  7253	  7254	  7271
MINUS	   532#
MODDVC	   121#
MODDVL	    64#	   319	   383
MODDVU	    63#	   320	   384
MODLNK	   140#	   347
MONCTL	   400#	  7272	  7386
MONFLG	   399#
MONTEN	   401#
MPVU	   334#
MUUO	   334#
MUUOPC	   334#
NOPNT	   109#	  7262
NXMU	   334#
O12300	   712#	   717
O12400	   731#	   736
O12500	   749#	   754
O12600	   768#	   773O12700	   786#	   791
O13000	   809#                                                                                                            SEQ 0205
O13100	   917#
O13200	  1027#	  1032
O13300	  1050#
O13400	  1153#	  1158
O13500	  1161#	  1166
O13600	  1169#	  1174
O13700	  1177#	  1182
O14000	  1184#	  1189
O14100	  1192#	  1197
O14200	  1200#	  1205
O14300	  1208#	  1213
O14400	  1226#	  1231
O14500	  1245#	  1250
O14600	  1268#
O14700	  1368#	  1373
O15000	  1385#	  1390
O15100	  1404#	  1409
O15200	  1423#	  1428
O15300	  1442#	  1447
O15400	  1463#	  1469
O15500	  1472#	  1478
O15600	  1481#	  1488
O15700	  1504#	  1508
O16000	  1527#	  1533
O16100	  1550#	  1555
O16200	  1569#	  1575
O16300	  1590#	  1596
O16400	  1609#	  1615
O16500	  1629#	  1635
O16600	  1649#	  1655
O16700	  1673#	  1682
O17000	  1698#	  1704
O17100	  1719#	  1725
O17200	  1741#	  1747
O17300	  1762#	  1768
O17400	  1784#	  1790
O17500	  1806#	  1811
O17600	  1830#
O17700	  1931#	  1937
O20000	  1952#	  1957
O20100	  1973#	  1979
O20200	  1996#	  2001
O20300	  2014#	  2020
O20400	  2034#	  2040
O20500	  2058#	  2064
O20600	  2067#	  2073
O20700	  2076#	  2082
O21000	  2085#	  2091
O21100	  2093#	  2099
O21200	  2102#	  2108
O21300	  2111#	  2117O21400	  2130#	  2136
O21500	  2139#	  2145                                                                                                     SEQ 0206
O21600	  2148#	  2154
O21700	  2157#	  2163
O22000	  2165#	  2171
O22100	  2174#	  2180
O22200	  2183#	  2189
O22300	  2192#	  2198
O22400	  2212#	  2218
O22500	  2233#	  2239
O22600	  2253#	  2258
O22700	  2272#	  2278
O23000	  2294#	  2300
O23100	  2315#	  2321
O23200	  2339#	  2345
O23300	  2360#	  2366
O23400	  2380#	  2386
O23500	  2399#	  2405
O23600	  2419#	  2425
O23700	  2439#	  2445
O24000	  2465#	  2478
O24100	  2495#	  2502
O24200	  2520#	  2530
O24300	  2533#	  2543
O24400	  2560#	  2567
O24500	  2583#	  2593
O24600	  2608#	  2615
O24700	  2632#	  2639
O25000	  2656#	  2663
O25100	  2681#	  2688
O25200	  2705#	  2712
O25300	  2729#	  2736
O25400	  2753#	  2760
O25500	  2778#	  2785
O25600	  2788#	  2795
O25700	  2798#	  2805
O26000	  2808#	  2815
O26100	  2833#	  2840
O26200	  2843#	  2850
O26300	  2867#	  2874
O26400	  2892#	  2899
O26500	  2914#	  2921
O26600	  2937#	  2945
O26700	  2960#	  2967
O27000	  2987#	  2994
O27100	  3014#	  3023
O27200	  3040#	  3046
O27300	  3061#	  3068
O27400	  3085#	  3091
O27500	  3105#	  3110
O27600	  3126#	  3132
O27700	  3147#	  3154
O30000	  3172#	  3179O30100	  3181#	  3187
O30200	  3201#	  3207                                                                                                     SEQ 0207
O30300	  3222#	  3228
O30400	  3242#	  3248
O30500	  3271#
O30600	  3397#
O30700	  3504#
O31000	  3640#
O31100	  3756#
O31200	  3815#
O31300	  3877#
O31400	  3940#
O31500	  4044#
O31600	  4309#
O31700	  4493#
O32000	  4590#	  4596
O32100	  4598#	  4604
O32200	  4606#	  4612
O32300	  4630#
O32400	  4688#
O32500	  4747#
O32600	  4814#
O32700	  4881#
O33000	  4954#
O33100	  5025#
O33200	  5094#
O33300	  5166#
O33400	  5456#
O33500	  5590#	  5600
O33600	  5603#	  5610
O33700	  5613#	  5621
O34000	  5635#	  5645
O34100	  5668#
O34200	  5996#
O34300	  6171#	  6183
O34400	  6197#	  6205
O34500	  6219#	  6227
O34600	  6246#
O34700	  6564#	  6571
O35000	  6585#	  6593
O35100	  6608#	  6616
O35200	  6630#	  6638
O35300	  6654#	  6664
O35400	  6677#	  6688
O35500	  6698#	  6711
O35510	  6713#	  6727
O35520	  6729#	  6743
O35530	  6744#	  6760
O35535	  6755	  6762#
O35537	  6758#	  6764
O35540	  6761	  6766#	  6782
O35545	  6777	  6784#
O35547	  6780#	  6786O35550	  6783	  6788#	  6801
O35560	  6802#	  6815                                                                                                     SEQ 0208
O35570	  6817#	  6831	  7099
O35600	  6832#	  6845
O35610	  6847#	  6861
O35620	  6863#	  6877
O35630	  6878#	  6892
O35640	  6894#	  6910
O35645	  6907	  6912#
O35647	  6910#	  6914
O35650	  6911	  6916#	  6932
O35655	  6929	  6934#
O35657	  6932#	  6936
O35660	  6933	  6937#	  6950
O35670	  6952#	  6965
O35700	  6966#	  6979
O35710	  6981#	  6995
O35720	  6997#	  7011
O35730	  7012#	  7028
O35735	  7023	  7030#
O35737	  7026#	  7032
O35740	  7029	  7034#	  7050
O35745	  7045	  7052#
O35747	  7048#	  7054
O35750	  7051	  7056#	  7069
O35760	  7070#	  7083
O35770	  7085#
O36000	  7100#	  7113
O36010	  7115#	  7129
O36020	  7131#	  7145
O36030	  7146#	  7160
O36040	  7162#	  7178
O36045	  7175	  7180#
O36047	  7178#	  7182
O36050	  7179	  7184#	  7200
O36055	  7197	  7202#
O36057	  7200#	  7204
O36060	  7201	  7205#	  7218
O36070	  7220#	  7233
OPRSEL	   123#
OPTIME	   502#
P	   166	   167	   168	   169	   334#	   422
PAG	   334#
PALERS	   115#	  7403
PARCLR	   334#
PARDIS	   334#
PAREA1	    87#	   378
PAREA2	    88#	   379
PAREA3	    89#	   376
PAREA4	    90#	   377
PAREA5	    91#	   389
PAREA6	    92#	   390
PAREA7	   389#PAREA8	   390#
PARENB	   334#                                                                                                            SEQ 0209
PARU	   334#
PASCNT	   404#	  7277	  7281
PATCH	  7511#
PDISF	   499#
PDLOVU	   334#
PDOVTP	   334#
PERIOD	   529#
PFSTRT	   356#
PGFTRP	   334#
PGMEND	    60#	  7517
PGMNAM	   381	   668#
PI	  7259
PICHN1	   334#
PICHN2	   334#
PICHN3	   334#
PICHN4	   334#
PICHN5	   334#
PICHN6	   334#
PICHN7	   334#
PICHNA	   334#
PICLR	   334#
PIOFF	   334#
PION	   334#
PLIST	   568#	   568
PLISTE	   568	   570#	   654
PLISTS	   569#
PLUS	   534#
PNTENB	   498#
PNTEXT	   377#
PNTFLG	   497#
PNTINH	   500#
PNTLPT	   110#
PNTNAM	   376#
PNTRP	   334#
PNTSPC	   501#
PROCED	  7260#	  7260	  7375	  7382
PTRP	   334#
PVPAGI	   595#
PWFCLR	   334#
QUEST	   540#
RADIX	   543#
RADLSC	   545#
RADLSP	   544#
RANDBS	   378#
REENTR	   358#
RELIAB	   117#
RENTR1	    77	   665#
REPT	   334#
REPT1	   334#
REPTU	   456#
REQSET	   334#RESRT1	    76	   433#
RESRT2	   434#                                                                                                            SEQ 0210
RETURN	   365#
RSTART	   106#
RTP	   538#
RUNFLG	   405#
SADR1	    75#	   354
SADR10	    84#	   370
SADR11	    85#	   371
SADR2	    76#	   356
SADR3	    77#	   358
SADR4	    78#
SADR5	    79#	   419
SADR6	    80#	   420
SADR7	    81#	   367
SADR8	    82#	   368
SADR9	    83#	   369
SBINIT	   179	   364#
SCOPE	   457#
SENSE1	   334#
SENSE2	   334#
SENSE3	   334#
SENSE4	   334#
SENSE5	   334#
SENSE6	   334#
SFSTRT	   354#
SLASH	   541#
SMLUSR	   334#
SN	   805#	   821	   821#	   828	   832	   832#	   839	   843	   843#	   850	   854	   854#	   861	   865
	   865#	   872	   876	   876#	   883	   887	   887#	   894	   911#	   930	   930#	   938	   942	   942#
	   950	   954	   954#	   962	   966	   966#	   974	   978	   978#	   986	   990	   990#	   998	  1002
	  1002#	  1010	  1045#	  1062	  1062#	  1069	  1073	  1073#	  1080	  1084	  1084#	  1091	  1095	  1095#
	  1102	  1106	  1106#	  1113	  1117	  1117#	  1124	  1128	  1128#	  1135	  1264#	  1279	  1279#	  1285
	  1289	  1289#	  1295	  1299	  1299#	  1305	  1309	  1309#	  1315	  1319	  1319#	  1325	  1329	  1329#
	  1335	  1339	  1339#	  1345	  1349	  1349#	  1355	  1826#	  1842	  1842#	  1849	  1853	  1853#	  1860
	  1864	  1864#	  1871	  1875	  1875#	  1882	  1886	  1886#	  1893	  1897	  1897#	  1904	  1908	  1908#
	  1915	  3266#	  3284	  3284#	  3292	  3296	  3296#	  3304	  3308	  3308#	  3316	  3320	  3320#	  3328
	  3332	  3332#	  3340	  3344	  3344#	  3352	  3356	  3356#	  3364	  3368	  3368#	  3376	  3393#	  3409
	  3409#	  3416	  3420	  3420#	  3427	  3431	  3431#	  3438	  3442	  3442#	  3449	  3453	  3453#	  3460
	  3464	  3464#	  3471	  3475	  3475#	  3482	  3498#	  3518	  3518#	  3527	  3531	  3531#	  3540	  3544
	  3544#	  3553	  3557	  3557#	  3566	  3570	  3570#	  3579	  3583	  3583#	  3592	  3596	  3596#	  3605
	  3609	  3609#	  3618	  3635#	  3652	  3652#	  3659	  3663	  3663#	  3670	  3674	  3674#	  3681	  3685
	  3685#	  3692	  3696	  3696#	  3703	  3707	  3707#	  3714	  3718	  3718#	  3725	  3729	  3729#	  3736
	  3752#	  3767	  3767#	  3773	  3777	  3777#	  3783	  3787	  3787#	  3793	  3810#	  3827	  3827#	  3834
	  3838	  3838#	  3845	  3849	  3849#	  3856	  3872#	  3889	  3889#	  3896	  3900	  3900#	  3907	  3911
	  3911#	  3918	  3936#	  3951	  3951#	  3957	  3961	  3961#	  3967	  3971	  3971#	  3977	  3981	  3981#
	  3987	  3991	  3991#	  3997	  4001	  4001#	  4007	  4011	  4011#	  4017	  4021	  4021#	  4027	  4031
	  4031#	  4037	  4041#	  4058	  4058#	  4067	  4071	  4071#	  4080	  4084	  4084#	  4093	  4097	  4097#
	  4106	  4110	  4110#	  4119	  4123	  4123#	  4132	  4136	  4136#	  4145	  4149	  4149#	  4158	  4162
	  4162#	  4171	  4175	  4175#	  4184	  4188	  4188#	  4197	  4201	  4201#	  4210	  4214	  4214#	  4223
	  4227	  4227#	  4236	  4240	  4240#	  4249	  4253	  4253#	  4262	  4266	  4266#	  4275	  4279	  4279#
	  4288	  4304#	  4325	  4325#	  4336	  4340	  4340#	  4351	  4355	  4355#	  4366	  4370	  4370#	  4381
	  4385	  4385#	  4396	  4400	  4400#	  4411	  4415	  4415#	  4426	  4430	  4430#	  4441	  4445	  4445#	  4456	  4460	  4460#	  4471	  4488#	  4506	  4506#	  4514	  4518	  4518#	  4526	  4530	  4530#	  4538
	  4542	  4542#	  4550	  4554	  4554#	  4562	  4566	  4566#	  4574	  4626#	  4641	  4641#	  4647	  4651     SEQ 0211
	  4651#	  4657	  4661	  4661#	  4667	  4684#	  4699	  4699#	  4705	  4709	  4709#	  4715	  4719	  4719#
	  4725	  4742#	  4760	  4760#	  4768	  4772	  4772#	  4780	  4784	  4784#	  4792	  4809#	  4827	  4827#
	  4835	  4839	  4839#	  4847	  4851	  4851#	  4859	  4875#	  4895	  4895#	  4904	  4908	  4908#	  4917
	  4921	  4921#	  4930	  4948#	  4968	  4968#	  4977	  4981	  4981#	  4990	  4994	  4994#	  5003	  5020#
	  5038	  5038#	  5046	  5050	  5050#	  5058	  5062	  5062#	  5070	  5088#	  5108	  5108#	  5117	  5121
	  5121#	  5130	  5134	  5134#	  5143	  5161#	  5182	  5182#	  5191	  5193	  5197	  5197#	  5206	  5208
	  5212	  5212#	  5221	  5223	  5227	  5227#	  5236	  5238	  5242	  5242#	  5251	  5253	  5257	  5257#
	  5266	  5268	  5272	  5272#	  5281	  5283	  5287	  5287#	  5296	  5298	  5302	  5302#	  5311	  5313
	  5317	  5317#	  5326	  5328	  5332	  5332#	  5341	  5343	  5347	  5347#	  5356	  5358	  5362	  5362#
	  5371	  5373	  5377	  5377#	  5386	  5388	  5392	  5392#	  5401	  5403	  5407	  5407#	  5416	  5418
	  5422	  5422#	  5431	  5433	  5437	  5437#	  5446	  5448	  5452#	  5472	  5472#	  5481	  5483	  5487
	  5487#	  5496	  5498	  5502	  5502#	  5511	  5513	  5517	  5517#	  5526	  5528	  5532	  5532#	  5541
	  5543	  5547	  5547#	  5556	  5558	  5562	  5562#	  5571	  5573	  5662#	  5686	  5686#	  5697	  5699
	  5703	  5703#	  5714	  5716	  5720	  5720#	  5731	  5733	  5737	  5737#	  5748	  5750	  5754	  5754#
	  5765	  5767	  5771	  5771#	  5782	  5784	  5788	  5788#	  5799	  5801	  5805	  5805#	  5816	  5818
	  5822	  5822#	  5833	  5835	  5839	  5839#	  5850	  5852	  5856	  5856#	  5867	  5869	  5873	  5873#
	  5884	  5886	  5890	  5890#	  5901	  5903	  5907	  5907#	  5918	  5920	  5924	  5924#	  5935	  5937
	  5941	  5941#	  5952	  5954	  5958	  5958#	  5969	  5971	  5975	  5975#	  5986	  5988	  5992#	  6013
	  6013#	  6023	  6025	  6029	  6029#	  6039	  6041	  6045	  6045#	  6055	  6057	  6061	  6061#	  6071
	  6073	  6077	  6077#	  6087	  6089	  6093	  6093#	  6103	  6105	  6109	  6109#	  6119	  6121	  6125
	  6125#	  6135	  6137	  6141	  6141#	  6151	  6153	  6241#	  6264	  6264#	  6275	  6277	  6281	  6281#
	  6292	  6294	  6298	  6298#	  6309	  6311	  6315	  6315#	  6326	  6328	  6332	  6332#	  6343	  6345
	  6349	  6349#	  6360	  6362	  6366	  6366#	  6377	  6379	  6383	  6383#	  6394	  6396	  6400	  6400#
	  6411	  6413	  6417	  6417#	  6428	  6430	  6434	  6434#	  6445	  6447	  6451	  6451#	  6462	  6464
	  6468	  6468#	  6479	  6481	  6485	  6485#	  6496	  6498	  6502	  6502#	  6513	  6515	  6519	  6519#
	  6530	  6532	  6536	  6536#	  6547	  6549
SNTRP	   334#
SPACE	   530#
SPDES	  7347#
SRTDDT	   360#
START	   348	   689#
START1	   367#
START2	   368#
START3	   369#
START4	   370#
START5	   371#
STARTA	   363	   693#
STRP	   334#
SUBLNK	   141#	   364
SWTEXR	   379#
SYSEXR	   352#
TAB	   531#
TESTPC	   406#	   708	   727	   745	   764	   782	   801	   907	  1023	  1041	  1148	  1222	  1241	  1261
	  1364	  1381	  1400	  1419	  1438	  1458	  1500	  1523	  1546	  1565	  1586	  1605	  1625	  1645
	  1669	  1694	  1715	  1737	  1758	  1780	  1802	  1822	  1927	  1948	  1969	  1992	  2010	  2030
	  2053	  2126	  2208	  2229	  2249	  2268	  2290	  2311	  2335	  2356	  2376	  2395	  2415	  2435
	  2461	  2491	  2515	  2556	  2579	  2604	  2628	  2652	  2677	  2701	  2725	  2749	  2773	  2828
	  2863	  2888	  2910	  2933	  2956	  2983	  3010	  3036	  3057	  3081	  3101	  3122	  3143	  3168
	  3197	  3218	  3238	  3262	  3389	  3494	  3631	  3748	  3806	  3868	  3932	  4300	  4484	  4586
	  4622	  4680	  4738	  4805	  4871	  4944	  5016	  5084	  5157	  5585	  5631	  5658	  6167	  6193
	  6215	  6237	  6560	  6581	  6604	  6626	  6650	  6673	  6694TICKS	   409#
TLET	   691	  7321	  7344#                                                                                            SEQ 0212
TN0	   334#
TN1	   334#
TOTALS	   107#
TRP3TP	   334#
TRPENB	   334#
TTNBRF	   589#
TTYFIL	   505#
TTYSPD	   506#
TXTINH	   118#	  7305
UOLIP	   334#
UOUSR	   334#
USER	   396#	  7244	  7257	  7396
USERF	   334#
USRASB	    58#	   386
USRCMP	   334#
USRCRF	   515#
USRLFF	   514#
USRPFW	   334#
UUODIS	   468#
UUOEXT	   424#	  7400
UUORTN	   425#
UUOSKP	   422#
WW	   912#	   931	   931#	   932	   943	   943#	   944	   955	   955#	   956	   967	   967#	   968	   979
	   979#	   980	   991	   991#	   992	  1003	  1003#	  1004	  3499#	  3520	  3521	  3521#	  3533	  3534
	  3534#	  3546	  3547	  3547#	  3559	  3560	  3560#	  3572	  3573	  3573#	  3585	  3586	  3586#	  3598
	  3599	  3599#	  3611	  3612	  3612#	  4876#	  4896	  4897	  4897#	  4909	  4910	  4910#	  4922	  4923
	  4923#	  4949#	  4969	  4970	  4970#	  4982	  4983	  4983#	  4995	  4996	  4996#	  5089#	  5109	  5109#
	  5111	  5122	  5122#	  5124	  5135	  5135#	  5137	  5663#	  5687	  5687#	  5691	  5704	  5704#	  5708
	  5721	  5721#	  5725	  5738	  5738#	  5742	  5755	  5755#	  5759	  5772	  5772#	  5776	  5789	  5789#
	  5793	  5806	  5806#	  5810	  5823	  5823#	  5827	  5840	  5840#	  5844	  5857	  5857#	  5861	  5874
	  5874#	  5878	  5891	  5891#	  5895	  5908	  5908#	  5912	  5925	  5925#	  5929	  5942	  5942#	  5946
	  5959	  5959#	  5963	  5976	  5976#	  5980	  6014	  6014#	  6018	  6030	  6030#	  6034	  6046	  6046#
	  6050	  6062	  6062#	  6066	  6078	  6078#	  6082	  6094	  6094#	  6098	  6110	  6110#	  6114	  6126
	  6126#	  6130	  6142	  6142#	  6146
XX	   913#	   932	   932#	   935	   944	   944#	   947	   956	   956#	   959	   968	   968#	   971	   980
	   980#	   983	   992	   992#	   995	  1004	  1004#	  1007	  1046#	  1063	  1063#	  1064	  1074	  1074#
	  1075	  1085	  1085#	  1086	  1096	  1096#	  1097	  1107	  1107#	  1108	  1118	  1118#	  1119	  1129
	  1129#	  1130	  3267#	  3285	  3285#	  3288	  3297	  3297#	  3300	  3309	  3309#	  3312	  3321	  3321#
	  3324	  3333	  3333#	  3336	  3345	  3345#	  3348	  3357	  3357#	  3360	  3369	  3369#	  3372	  3411#
	  3412	  3422#	  3423	  3433#	  3434	  3444#	  3445	  3455#	  3456	  3466#	  3467	  3477#	  3478	  3500#
	  3519	  3519#	  3522	  3522#	  3525	  3532	  3532#	  3535	  3538	  3545	  3545#	  3548	  3551	  3558
	  3558#	  3561	  3564	  3571	  3571#	  3574	  3577	  3584	  3584#	  3587	  3590	  3597	  3597#	  3600
	  3603	  3610	  3610#	  3613	  3616	  3636#	  3653	  3653#	  3657	  3664	  3664#	  3668	  3675	  3675#
	  3679	  3686	  3686#	  3690	  3697	  3697#	  3701	  3708	  3708#	  3712	  3719	  3719#	  3723	  3730
	  3730#	  3734	  3811#	  3828	  3828#	  3830	  3839	  3839#	  3841	  3850	  3850#	  3852	  3873#	  3890
	  3890#	  3892	  3901	  3901#	  3903	  3912	  3912#	  3914	  4305#	  4326	  4326#	  4330	  4341	  4341#
	  4345	  4356	  4356#	  4360	  4371	  4371#	  4375	  4386	  4386#	  4390	  4401	  4401#	  4405	  4416
	  4416#	  4420	  4431	  4431#	  4435	  4446	  4446#	  4450	  4461	  4461#	  4465	  4489#	  4507	  4507#
	  4510	  4519	  4519#	  4522	  4531	  4531#	  4534	  4543	  4543#	  4546	  4555	  4555#	  4558	  4567
	  4567#	  4570	  4743#	  4761	  4761#	  4763	  4773	  4773#	  4775	  4785	  4785#	  4787	  4810#	  4828
	  4828#	  4830	  4840	  4840#	  4842	  4852	  4852#	  4854	  4877#	  4896	  4896#	  4899	  4909	  4909#	  4912	  4922	  4922#	  4925	  4950#	  4969	  4969#	  4972	  4982	  4982#	  4985	  4995	  4995#	  4998
	  5021#	  5039	  5039#	  5041	  5051	  5051#	  5053	  5063	  5063#	  5065	  5090#	  5110	  5110#	  5114     SEQ 0213
	  5123	  5123#	  5127	  5136	  5136#	  5140	  5162#	  5183	  5183#	  5186	  5198	  5198#	  5201	  5213
	  5213#	  5216	  5228	  5228#	  5231	  5243	  5243#	  5246	  5258	  5258#	  5261	  5273	  5273#	  5276
	  5288	  5288#	  5291	  5303	  5303#	  5306	  5318	  5318#	  5321	  5333	  5333#	  5336	  5348	  5348#
	  5351	  5363	  5363#	  5366	  5378	  5378#	  5381	  5393	  5393#	  5396	  5408	  5408#	  5411	  5423
	  5423#	  5426	  5438	  5438#	  5441	  5473	  5473#	  5476	  5488	  5488#	  5491	  5503	  5503#	  5506
	  5518	  5518#	  5521	  5533	  5533#	  5536	  5548	  5548#	  5551	  5563	  5563#	  5566	  5664#	  5688
	  5688#	  5694	  5705	  5705#	  5711	  5722	  5722#	  5728	  5739	  5739#	  5745	  5756	  5756#	  5762
	  5773	  5773#	  5779	  5790	  5790#	  5796	  5807	  5807#	  5813	  5824	  5824#	  5830	  5841	  5841#
	  5847	  5858	  5858#	  5864	  5875	  5875#	  5881	  5892	  5892#	  5898	  5909	  5909#	  5915	  5926
	  5926#	  5932	  5943	  5943#	  5949	  5960	  5960#	  5966	  5977	  5977#	  5983	  6015	  6015#	  6020
	  6031	  6031#	  6036	  6047	  6047#	  6052	  6063	  6063#	  6068	  6079	  6079#	  6084	  6095	  6095#
	  6100	  6111	  6111#	  6116	  6127	  6127#	  6132	  6143	  6143#	  6148	  6242#	  6265	  6265#	  6267
	  6272	  6276	  6282	  6282#	  6284	  6289	  6293	  6299	  6299#	  6301	  6306	  6310	  6316	  6316#
	  6318	  6323	  6327	  6333	  6333#	  6335	  6340	  6344	  6350	  6350#	  6352	  6357	  6361	  6367
	  6367#	  6369	  6374	  6378	  6384	  6384#	  6386	  6391	  6395	  6401	  6401#	  6403	  6408	  6412
	  6418	  6418#	  6420	  6425	  6429	  6435	  6435#	  6437	  6442	  6446	  6452	  6452#	  6454	  6459
	  6463	  6469	  6469#	  6471	  6476	  6480	  6486	  6486#	  6488	  6493	  6497	  6503	  6503#	  6505
	  6510	  6514	  6520	  6520#	  6522	  6527	  6531	  6537	  6537#	  6539	  6544	  6548
ZZ	   806#	   822	   822#	   823	   823#	   826	   833	   833#	   834	   837	   844	   844#	   845	   848
	   855	   855#	   856	   859	   866	   866#	   867	   870	   877	   877#	   878	   881	   888	   888#
	   889	   892	   914#	   933	   933#	   936	   945	   945#	   948	   957	   957#	   960	   969	   969#
	   972	   981	   981#	   984	   993	   993#	   996	  1005	  1005#	  1008	  1047#	  1064	  1064#	  1066
	  1075	  1075#	  1077	  1086	  1086#	  1088	  1097	  1097#	  1099	  1108	  1108#	  1110	  1119	  1119#
	  1121	  1130	  1130#	  1132	  1265#	  1280	  1280#	  1282	  1290	  1290#	  1292	  1300	  1300#	  1302
	  1310	  1310#	  1312	  1320	  1320#	  1322	  1330	  1330#	  1332	  1340	  1340#	  1342	  1350	  1350#
	  1352	  1827#	  1843	  1843#	  1844	  1845	  1854	  1854#	  1855	  1856	  1865	  1865#	  1866	  1867
	  1876	  1876#	  1877	  1878	  1887	  1887#	  1888	  1889	  1898	  1898#	  1899	  1900	  1909	  1909#
	  1910	  1911	  3268#	  3286	  3286#	  3287	  3287#	  3290	  3298	  3298#	  3299	  3302	  3310	  3310#
	  3311	  3314	  3322	  3322#	  3323	  3326	  3334	  3334#	  3335	  3338	  3346	  3346#	  3347	  3350
	  3358	  3358#	  3359	  3362	  3370	  3370#	  3371	  3374	  3394#	  3410	  3410#	  3411	  3413	  3421
	  3421#	  3422	  3424	  3432	  3432#	  3433	  3435	  3443	  3443#	  3444	  3446	  3454	  3454#	  3455
	  3457	  3465	  3465#	  3466	  3468	  3476	  3476#	  3477	  3479	  3501#	  3520	  3520#	  3523	  3533
	  3533#	  3536	  3546	  3546#	  3549	  3559	  3559#	  3562	  3572	  3572#	  3575	  3585	  3585#	  3588
	  3598	  3598#	  3601	  3611	  3611#	  3614	  3637#	  3654	  3654#	  3655	  3665	  3665#	  3666	  3676
	  3676#	  3677	  3687	  3687#	  3688	  3698	  3698#	  3699	  3709	  3709#	  3710	  3720	  3720#	  3721
	  3731	  3731#	  3732	  3753#	  3768	  3768#	  3769	  3769#	  3771	  3778	  3778#	  3779	  3781	  3788
	  3788#	  3789	  3791	  3812#	  3829	  3829#	  3832	  3840	  3840#	  3843	  3851	  3851#	  3854	  3874#
	  3891	  3891#	  3894	  3902	  3902#	  3905	  3913	  3913#	  3916	  3937#	  3952	  3952#	  3953	  3954
	  3962	  3962#	  3963	  3964	  3972	  3972#	  3973	  3974	  3982	  3982#	  3983	  3984	  3992	  3992#
	  3993	  3994	  4002	  4002#	  4003	  4004	  4012	  4012#	  4013	  4014	  4022	  4022#	  4023	  4024
	  4032	  4032#	  4033	  4034	  4042#	  4059	  4059#	  4060	  4060#	  4062	  4064	  4072	  4072#	  4073
	  4075	  4077	  4085	  4085#	  4086	  4088	  4090	  4098	  4098#	  4099	  4101	  4103	  4111	  4111#
	  4112	  4114	  4116	  4124	  4124#	  4125	  4127	  4129	  4137	  4137#	  4138	  4140	  4142	  4150
	  4150#	  4151	  4153	  4155	  4163	  4163#	  4164	  4166	  4168	  4176	  4176#	  4177	  4179	  4181
	  4189	  4189#	  4190	  4192	  4194	  4202	  4202#	  4203	  4205	  4207	  4215	  4215#	  4216	  4218
	  4220	  4228	  4228#	  4229	  4231	  4233	  4241	  4241#	  4242	  4244	  4246	  4254	  4254#	  4255
	  4257	  4259	  4267	  4267#	  4268	  4270	  4272	  4280	  4280#	  4281	  4283	  4285	  4306#	  4327
	  4327#	  4328	  4328#	  4332	  4342	  4342#	  4343	  4347	  4357	  4357#	  4358	  4362	  4372	  4372#
	  4373	  4377	  4387	  4387#	  4388	  4392	  4402	  4402#	  4403	  4407	  4417	  4417#	  4418	  4422
	  4432	  4432#	  4433	  4437	  4447	  4447#	  4448	  4452	  4462	  4462#	  4463	  4467	  4490#	  4508
	  4508#	  4509	  4520	  4520#	  4521	  4532	  4532#	  4533	  4544	  4544#	  4545	  4556	  4556#	  4557	  4568	  4568#	  4569	  4627#	  4642	  4642#	  4644	  4652	  4652#	  4654	  4662	  4662#	  4664	  4685#
	  4700	  4700#	  4702	  4710	  4710#	  4712	  4720	  4720#	  4722	  4744#	  4762	  4762#	  4764	  4765     SEQ 0214
	  4774	  4774#	  4776	  4777	  4786	  4786#	  4788	  4789	  4811#	  4829	  4829#	  4831	  4832	  4841
	  4841#	  4843	  4844	  4853	  4853#	  4855	  4856	  4878#	  4898	  4898#	  4900	  4911	  4911#	  4913
	  4924	  4924#	  4926	  4951#	  4971	  4971#	  4974	  4984	  4984#	  4987	  4997	  4997#	  5000	  5022#
	  5040	  5040#	  5042	  5043	  5052	  5052#	  5054	  5055	  5064	  5064#	  5066	  5067	  5091#	  5111
	  5111#	  5112	  5124	  5124#	  5125	  5137	  5137#	  5138	  5163#	  5184	  5184#	  5185	  5185#	  5188
	  5192	  5199	  5199#	  5200	  5203	  5207	  5214	  5214#	  5215	  5218	  5222	  5229	  5229#	  5230
	  5233	  5237	  5244	  5244#	  5245	  5248	  5252	  5259	  5259#	  5260	  5263	  5267	  5274	  5274#
	  5275	  5278	  5282	  5289	  5289#	  5290	  5293	  5297	  5304	  5304#	  5305	  5308	  5312	  5319
	  5319#	  5320	  5323	  5327	  5334	  5334#	  5335	  5338	  5342	  5349	  5349#	  5350	  5353	  5357
	  5364	  5364#	  5365	  5368	  5372	  5379	  5379#	  5380	  5383	  5387	  5394	  5394#	  5395	  5398
	  5402	  5409	  5409#	  5410	  5413	  5417	  5424	  5424#	  5425	  5428	  5432	  5439	  5439#	  5440
	  5443	  5447	  5453#	  5474	  5474#	  5475	  5475#	  5478	  5482	  5489	  5489#	  5490	  5493	  5497
	  5504	  5504#	  5505	  5508	  5512	  5519	  5519#	  5520	  5523	  5527	  5534	  5534#	  5535	  5538
	  5542	  5549	  5549#	  5550	  5553	  5557	  5564	  5564#	  5565	  5568	  5572	  5665#	  5689	  5689#
	  5690	  5690#	  5693	  5706	  5706#	  5707	  5710	  5723	  5723#	  5724	  5727	  5740	  5740#	  5741
	  5744	  5757	  5757#	  5758	  5761	  5774	  5774#	  5775	  5778	  5791	  5791#	  5792	  5795	  5808
	  5808#	  5809	  5812	  5825	  5825#	  5826	  5829	  5842	  5842#	  5843	  5846	  5859	  5859#	  5860
	  5863	  5876	  5876#	  5877	  5880	  5893	  5893#	  5894	  5897	  5910	  5910#	  5911	  5914	  5927
	  5927#	  5928	  5931	  5944	  5944#	  5945	  5948	  5961	  5961#	  5962	  5965	  5978	  5978#	  5979
	  5982	  5993#	  6016	  6016#	  6017	  6017#	  6019	  6032	  6032#	  6033	  6035	  6048	  6048#	  6049
	  6051	  6064	  6064#	  6065	  6067	  6080	  6080#	  6081	  6083	  6096	  6096#	  6097	  6099	  6112
	  6112#	  6113	  6115	  6128	  6128#	  6129	  6131	  6144	  6144#	  6145	  6147	  6243#	  6266	  6266#
	  6270	  6283	  6283#	  6287	  6300	  6300#	  6304	  6317	  6317#	  6321	  6334	  6334#	  6338	  6351
	  6351#	  6355	  6368	  6368#	  6372	  6385	  6385#	  6389	  6402	  6402#	  6406	  6419	  6419#	  6423
	  6436	  6436#	  6440	  6453	  6453#	  6457	  6470	  6470#	  6474	  6487	  6487#	  6491	  6504	  6504#
	  6508	  6521	  6521#	  6525	  6538	  6538#	  6542
$$MUUO	   620#
$$OUTE	   626#
$$TAX1	   638#
$$TAX2	   639#
$$TOGG	   632#
$$UUO	   609#
$ACC0	   447#
$ACF	  7348#
$BEND1	   417#
$BEND2	   418#	  7390
$CHRIN	   508#
$CRLF	   510#
$DEVCH	   334#
$DSKUP	   387#
$DVCH1	   334#
$DVOFF	   504#
$EMODE	   385#
$ENDFX	   654#	   655
$FFF	   512#
$IBUF	   560#
$INEXT	   562#
$INNM	   561#
$ITRHL	   428#
$ITRX1	   429#
$LPAPE	  7411$MMAP	   388#
$MODVL	   383#                                                                                                            SEQ 0215
$MODVU	   384#
$OBUF	   551#
$ONETM	   411#
$OUTEX	   553#
$OUTNM	   552#
$PAPER	   334
$PARER	   435#
$PNAME	   381#
$PSHER	   439#
$PVER	   382#
$RSRTX	   431#
$RSRTY	   432#
$SPAG1	   451#
$START	   348#
$SVAPR	   449#
$SVPAG	   450#
$SVPI	   448#
$SVUPC	   454#	  7251	  7255	  7285
$SVUUO	   453#	  7264	  7296	  7324
$TABF	   511#
$TTCHR	   507#
$TWCNT	   503#
$TYPNB	   509#
$UMODE	   386#
$UORTX	   426#
$USRHL	   430#
$UUOER	   427#	   468
$VTF	   513#
%AC1F	  7349#
%ACS1A	  7266#	  7266	  7310
%ACTFL	   460#
%ACTUL	   461#
%ALF	  7354#
%AR1F	  7353#
%ARF	  7352#
%COREC	   459#
%CORFL	   458#
%DISCR	   462#
%E1F	  7351#
%EEF	  7355#
%EF	  7350#
%ER4X	  7330	  7335#
%ER5X	  7328	  7337#
%ER6X	  7326	  7339#
%ER7X	  7332#	  7336	  7338	  7340
%ERAC0	  7240#	  7240	  7267	  7301	  7392
%ERAC1	  7248#	  7248	  7268	  7380
%ERAC2	  7249#	  7249	  7379
%ERFST	  7274#	  7274	  7276
%ERHI1	   601#
%ERHI2	   602#%ERHI3	   603#
%ERMOR	  7306	  7333	  7362#                                                                                            SEQ 0216
%ERMS1	  7271#	  7405
%ERMS2	  7294#
%ERMS3	  7312	  7319#
%ERRS1	  7263	  7366#	  7404
%ERRS2	  7379#
%ERRS4	  7270	  7402#
%ERRS5	  7383	  7387	  7392#
%FF	  7356#
%FLTTB	  7314	  7345#
%NODES	  7346#
.JB41	   334#
.JBAPR	   334#
.JBCNI	   334#
.JBDDT	   334#
.JBFF	   334#
.JBOPC	   334#
.JBREL	   334#
.JBREN	   334#
.JBSA	   334#
.JBSYM	   334#
.JBTPC	   334#
.JBUSY	   334#
.JBUUO	   334#
.JBVER	   334#
CFLUSH	   290#
CINVAL	   289#                                                                                                            SEQ 0217
CLOKOP	   284#
CWRTBI	   291#
DROPDV	   251#	   665
ENDUUO	   297#	   416
EOPUUO	   298#	   418
ER1	    30#
ER10	    37#
ER11	    38#
ER12	    39#
ER13	    40#	  1468	  1477	  1486	  5599	  5609	  5619	  6708	  6710	  6722	  6724	  6726	  6738	  6740
	  6742	  6753	  6757	  6759	  6763	  6775	  6779	  6781	  6785	  6798	  6800	  6812	  6814	  6826
	  6828	  6830	  6842	  6844	  6856	  6858	  6860	  6872	  6874	  6876	  6887	  6889	  6891	  6903
	  6905	  6909	  6913	  6925	  6927	  6931	  6935	  6947	  6949	  6962	  6964	  6976	  6978	  6990
	  6992	  6994	  7006	  7008	  7010	  7021	  7025	  7027	  7031	  7043	  7047	  7049	  7053	  7066
	  7068	  7080	  7082	  7094	  7096	  7098	  7110	  7112	  7124	  7126	  7128	  7140	  7142	  7144
	  7155	  7157	  7159	  7171	  7173	  7177	  7181	  7193	  7195	  7199	  7203	  7215	  7217	  7230
	  7232
ER2	    31#
ER3	    32#	   716	   735	   753	   772	   790	   828	   839	   850	   861	   872	   883	   894	   938
	   950	   962	   974	   986	   998	  1010	  1031	  1069	  1080	  1091	  1102	  1113	  1124	  1135
	  1157	  1165	  1173	  1181	  1188	  1196	  1204	  1212	  1230	  1249	  1285	  1295	  1305	  1315
	  1325	  1335	  1345	  1355	  1372	  1389	  1408	  1427	  1446	  1507	  1532	  1554	  1574	  1595
	  1614	  1634	  1654	  1678	  1681	  1703	  1724	  1746	  1767	  1789	  1810	  1849	  1860	  1871
	  1882	  1893	  1904	  1915	  1936	  1956	  1978	  2000	  2019	  2039	  2063	  2072	  2081	  2090
	  2098	  2107	  2116	  2135	  2144	  2153	  2162	  2170	  2179	  2188	  2197	  2217	  2238	  2257
	  2277	  2299	  2320	  2344	  2365	  2385	  2404	  2424	  2444	  2473	  2475	  2527	  2539	  2592
	  2711	  2920	  2944	  2966	  2993	  3019	  3022	  3045	  3067	  3090	  3109	  3131	  3153	  3206
	  3292	  3304	  3316	  3328	  3340	  3352	  3364	  3376	  3416	  3427	  3438	  3449	  3460	  3471
	  3482	  3527	  3540	  3553	  3566	  3579	  3592	  3605	  3618	  3659	  3670	  3681	  3692	  3703
	  3714	  3725	  3736	  3773	  3783	  3793	  3834	  3845	  3856	  3896	  3907	  3918	  3957	  3967
	  3977	  3987	  3997	  4007	  4017	  4027	  4037	  4067	  4080	  4093	  4106	  4119	  4132	  4145
	  4158	  4171	  4184	  4197	  4210	  4223	  4236	  4249	  4262	  4275	  4288	  4336	  4351	  4366
	  4381	  4396	  4411	  4426	  4441	  4456	  4471	  4514	  4526	  4538	  4550	  4562	  4574	  4595
	  4603	  4611	  4647	  4657	  4667	  4705	  4715	  4725	  4768	  4780	  4792	  4835	  4847	  4859
	  4904	  4917	  4930	  4977	  4990	  5003	  5046	  5058	  5070	  5117	  5130	  5143	  5191	  5206
	  5221	  5236	  5251	  5266	  5281	  5296	  5311	  5326	  5341	  5356	  5371	  5386	  5401	  5416
	  5431	  5446	  5481	  5496	  5511	  5526	  5541	  5556	  5571	  5597	  5642	  5697	  5714	  5731
	  5748	  5765	  5782	  5799	  5816	  5833	  5850	  5867	  5884	  5901	  5918	  5935	  5952	  5969
	  5986	  6023	  6039	  6055	  6071	  6087	  6103	  6119	  6135	  6151	  6177	  6204	  6224	  6275
	  6292	  6309	  6326	  6343	  6360	  6377	  6394	  6411	  6428	  6445	  6462	  6479	  6496	  6513
	  6530	  6547	  6570	  6590	  6615	  6635	  6661	  6682	  6705	  6720	  6736	  6751	  6773	  6795
	  6809	  6824	  6839	  6854	  6870	  6885	  6901	  6923	  6944	  6959	  6973	  6988	  7004	  7019
	  7041	  7063	  7077	  7092	  7107	  7122	  7138	  7153	  7169	  7191	  7212	  7227
ER4	    33#	  2477	  2501	  2529	  2542	  2566	  2589	  2614	  2638	  2662	  2687	  2735	  2759	  2784
	  2794	  2804	  2814	  2839	  2849	  2873	  2898	  3176	  3178	  3186	  3227	  3247	  5644	  5699
	  5716	  5733	  5750	  5767	  5784	  5801	  5818	  5835	  5852	  5869	  5886	  5903	  5920	  5937
	  5954	  5971	  5988	  6025	  6041	  6057	  6073	  6089	  6105	  6121	  6137	  6153	  6180	  6685
ER5	    34#	  5193	  5208	  5223	  5238	  5253	  5268	  5283	  5298	  5313	  5328	  5343	  5358	  5373
	  5388	  5403	  5418	  5433	  5448	  5483	  5498	  5513	  5528	  5543	  5558	  5573	  6182	  6202
	  6226	  6277	  6294	  6311	  6328	  6345	  6362	  6379	  6396	  6413	  6430	  6447	  6464	  6481
	  6498	  6515	  6532	  6549	  6592	  6613	  6637	  6663	  6687ER6	    35#
ER7	    36#                                                                                                            SEQ 0218
ERRHLT	   186#	  7373
FATAL	   185#
FRD36	   326#
FRD8	   327#
FREAD	   325#
FSELEC	   324#
GET	   169#
GO	   166#
HALT	    81	    82	    83	    84	    85	   171#	   437
JEN	   173#
JRSTF	   172#
MAPADR	   307#
MAPCNK	   308#
MAPMEM	   304#
MAPPNT	   310#
MAPSET	   309#
MEMSEG	   306#
MEMZRO	   305#
MODPCP	   317#
MODPCU	   316#
MTROP	   285#
NAME	     7#	    10
PBELL	   260#	  7377
PCRL	   254#	  7313	  7332
PCRL2	   258#
PCRL2F	   259#
PCRLF	   255#
PFORCE	   262#
PGMINT	   179#	   689
PJRST	   170#
PMSG	   264#	  7279	  7283	  7294	  7319
PMSGF	   267#
PNT1	   220#
PNT11	   234#
PNT11F	   235#
PNT1F	   221#
PNT2	   222#
PNT2F	   223#
PNT3	   224#	  7331
PNT3F	   225#
PNT4	   226#	  7335
PNT4F	   227#
PNT5	   228#	  7337
PNT5F	   229#
PNT6	   230#	  7287	  7339
PNT6F	   231#
PNT7	   232#
PNT7F	   233#
PNTA	   206#	  7322
PNTADF	   237#
PNTADR	   236#PNTAF	   207#
PNTAL	   208#	  7315                                                                                                     SEQ 0219
PNTALF	   209#
PNTCHF	   219#
PNTCHR	   218#
PNTCI	   216#
PNTCIF	   217#
PNTCW	   252#
PNTCWF	   253#
PNTDCF	   245#
PNTDEC	   244#	  7282
PNTDS	   246#
PNTDSF	   247#
PNTHW	   240#	  7302
PNTHWF	   241#
PNTMGN	   331#	  7363
PNTMSF	   213#
PNTMSG	   212#
PNTNM	   248#	  7275
PNTOCF	   243#
PNTOCS	   242#
PNTOCT	   238#
PNTOTF	   239#
PNTSIX	   249#
PNTSXF	   250#
PSIXL	   210#
PSIXLF	   211#
PSIXM	   214#	  7280	  7284	  7295	  7320
PSIXMF	   215#
PSP	   256#
PSPF	   257#
PUT	   168#
RTN	   167#	   424
S	    97#	    99	   103	   132	   134	   143	   146	   161	   162	   164	   175	   177	   181	   183
	   188	   192	   334	   339	   345	   372	   374	   392	   394	   412	   414	   443	   445	   463
	   465	   483	   485	   493	   495	   516	   521	   547	   549	   556	   558	   564	   566	   572
	   574	   578	   580	   585	   587	   591	   593	   597	   599	   605	   607	   610	   612	   616
	   618	   622	   624	   628	   630	   634	   636	   641	   646	   650	   652
SAVEAC	    67#	   706	   725	   743	   762	   780	   799	   905	  1021	  1039	  1146	  1220	  1239	  1259
	  1362	  1379	  1398	  1417	  1436	  1456	  1498	  1521	  1544	  1563	  1584	  1603	  1623	  1643
	  1667	  1692	  1713	  1735	  1756	  1778	  1800	  1820	  1925	  1946	  1967	  1990	  2008	  2028
	  2051	  2124	  2206	  2227	  2247	  2266	  2288	  2309	  2333	  2354	  2374	  2393	  2413	  2433
	  2459	  2489	  2513	  2554	  2577	  2602	  2626	  2650	  2675	  2699	  2723	  2747	  2771	  2826
	  2861	  2886	  2908	  2931	  2954	  2981	  3008	  3034	  3055	  3079	  3099	  3120	  3141	  3166
	  3195	  3216	  3236	  3260	  3387	  3492	  3629	  3746	  3804	  3866	  3930	  4298	  4482	  4584
	  4620	  4678	  4736	  4803	  4869	  4942	  5014	  5082	  5155	  5583	  5629	  5656	  6165	  6191
	  6213	  6235	  6558	  6579	  6602	  6624	  6648	  6671	  6692
SIXBTZ	   273#
SWITCH	   279#	  7261	  7364
TTALTM	   201#	  7366
TTICHR	   194#
TTICNV	   199#
TTIDEC	   198#