DBKCE	PDP-10 KI10 ADVANCED INSTRUCTION DIAGNOSTIC #5, VERSION 0,3 	MACRO %52(462) 13:32  9-AUG-76 PAGE 1
DBKCET	MAC	30-JUL-76 12:48		DIAGNOSTIC PARAMETERS                                                              SEQ 0011

     1					;MAINDEC-10-DBKCE
     2
     3			000003		DECVER=003
     4			000000		MCNVER=000
     5
     6						XLIST
     7						LIST
     8						LALL
     9
    10					NAME	\MCNVER,\DECVER^
    11					TITLE	DBKCE	PDP-10 KI10 ADVANCED INSTRUCTION DIAGNOSTIC #5, VERSION 0,3 ^
    12
    13					;(DOUBLE FLOATING POINT INSTRUCTIONS - DFAD, DFSB, DFMP, DFDV)
    14
    15					;COPYRIGHT 1972, 1973, 1974, 1975
    16					;DIGITAL EQUIPMENT CORPORATION
    17					;MAYNARD, MASS.  01754
    18
    19					;JOHN R. KIRCHOFF
    20					;LINDA GARLAND
    21
    22	000137				LOC	137
    23	000137	000000	000003		MCNVER,,DECVER
    24						NOSYMDBKCE	PDP-10 KI10 ADVANCED INSTRUCTION DIAGNOSTIC #5, VERSION 0,3 	MACRO %52(462) 13:32  9-AUG-76 PAGE 2
DBKCET	MAC	30-JUL-76 12:48		DIAGNOSTIC PARAMETERS                                                              SEQ 0012

    25					SUBTTL	DIAGNOSTIC PARAMETERS
    26
    27					;OPERATOR DEFINITIONS
    28
    29		110000	000000		OPDEF	DFAD	[110B8]
    30		111000	000000		OPDEF	DFSB	[111B8]
    31		112000	000000		OPDEF	DFMP	[112B8]
    32		113000	000000		OPDEF	DFDV	[113B8]
    33		120000	000000		OPDEF	DMOVE	[120B8]
    34		121000	000000		OPDEF	DMOVN	[121B8]
    35		122000	000000		OPDEF	DMOVEM	[122B8]
    36		123000	000000		OPDEF	DMOVNM	[123B8]
    37
    38		001000	000000		OPDEF	ER1	[1B8]
    39		002000	000000		OPDEF	ER2	[2B8]
    40		003000	000000		OPDEF	ER3	[3B8]
    41		004000	000000		OPDEF	ER4	[4B8]
    42		005000	000000		OPDEF	ER5	[5B8]
    43		006000	000000		OPDEF	ER6	[6B8]
    44		007000	000000		OPDEF	ER7	[7B8]
    45		010000	000000		OPDEF	ER10	[10B8]
    46		011000	000000		OPDEF	ER11	[11B8]
    47		012000	000000		OPDEF	ER12	[12B8]
    48		013000	000000		OPDEF	ER13	[13B8]
    49
    50			037745		LUUO1==ERRMES
    51			037745		LUUO2==ERRMES
    52			037745		LUUO3==ERRMES
    53			037745		LUUO4==ERRMES
    54			037745		LUUO5==ERRMES
    55			037745		LUUO6==ERRMES
    56			037745		LUUO7==ERRMES
    57			037745		LUUO10==ERRMES
    58			037745		LUUO11==ERRMES
    59			037745		LUUO12==ERRMES
    60			037745		LUUO13==ERRMES
    61
    62					;SUBROUTINE ASSEMBLY DEFINITIONS
    63
    64			000100		DEBUG=100
    65			000001		EXCASB=1
    66			000001		USRASB=1
    67			000001		KI10=1
    68			000001		KL10=1
    69			000001		KL10P0=1
    70			000001		PGMEND=1
    71			000001		ERDIAG=1
    72			000001		KLOLD=1
    73			030000		MODDVU=BEGIN
    74			030000		MODDVL=BEGINDBKCE	PDP-10 KI10 ADVANCED INSTRUCTION DIAGNOSTIC #5, VERSION 0,3 	MACRO %52(462) 13:32  9-AUG-76 PAGE 3
DBKCET	MAC	30-JUL-76 12:48		DIAGNOSTIC PARAMETERS                                                              SEQ 0013

    75					;MACROS
    76
    77					DEFINE	SAVEAC	(A,B)<
    78						MOVEI	AC+4,.
    79						MOVEM	AC+4,TESTPC	;SETUP SUBTEST PC
    80						MOVEI	AC+4,<AC+4>&17	;INFORM ERROR ROUTINE WHICH
    81						MOVEM	AC+4,ERRLOP#	;AC IS USED FOR ITERATION>
    82
    83					;BEGIN ASSEMBLY PARAMETERS
    84
    85			030000		SADR1=BEGIN
    86			030076		SADR2=RESRT1
    87			030600		SADR3=RENTR1
    88			030000		SADR4=BEGIN
    89			030000		SADR5=BEGIN
    90			030000		SADR6=BEGIN
    91			000000		SADR7=0
    92			000000		SADR8=0
    93			000000		SADR9=0
    94			000000		SADR10=0
    95			000000		SADR11=0
    96
    97			000000		PAREA1=0
    98			000000		PAREA2=0
    99		444253	434500		PAREA3=SIXBIT/DBKCE/
   100		605664	000000		PAREA4=SIXBIT/PNT/
   101			000000		PAREA5=0
   102			000000		PAREA6=0
   103
   104			001000		ITERAT=1000DBKCE	PDP-10 KI10 ADVANCED INSTRUCTION DIAGNOSTIC #5, VERSION 0,3 	MACRO %52(462) 13:32  9-AUG-76 PAGE 4
DBKCET	MAC	30-JUL-76 12:48		DIAGNOSTIC PARAMETERS                                                              SEQ 0014

   105					DEFINE	DFA	(T,A,B,C,D,E,F,G,H,I,M,K,L)	<
   106					S'T'00:	DMOVE	AC,[A,,B
   107							C,,D]
   108						DFAD	AC,[E,,F
   109							G,,H]
   110						CAME	AC,[I,,M]
   111						ER3	AC,T'01
   112						CAME	AC+1,[K,,L]
   113						ER4	AC+1,T'01
   114						JUMPL	AC+4,S'T'00	;LOOP ON ERROR SWITCH>
   115
   116					DEFINE	DFS	(T,A,B,C,D,E,F,G,H,I,M,K,L)	<
   117					S'T'00:	DMOVE	AC,[A,,B
   118							C,,D]
   119						DFSB	AC,[E,,F
   120							G,,H]
   121						CAME	AC,[I,,M]
   122						ER3	AC,T'01
   123						CAME	AC+1,[K,,L]
   124						ER4	AC+1,T'01
   125						JUMPL	AC+4,S'T'00	;LOOP ON ERROR SWITCH>
   126
   127					DEFINE	DFM	(T,A,B,C,D,E,F,G,H,I,M,K,L)	<
   128					S'T'00:	DMOVE	AC,[A,,B
   129							C,,D]
   130						DFMP	AC,[E,,F
   131							G,,H]
   132						CAME	AC,[I,,M]
   133						ER3	AC,T'01
   134						CAME	AC+1,[K,,L]
   135						ER4	AC+1,T'01
   136						JUMPL	AC+4,S'T'00	;LOOP ON ERROR SWITCH>
   137
   138					DEFINE	DFMKL	(T,A,B,C,D,E,F,G,H,I,M,K,L,KL1,KL2,KL3,KL4)	<
   139					S'T'00:	DMOVE	AC,[A,,B
   140							C,,D]
   141						DFMP	AC,[E,,F
   142							G,,H]
   143						SKIPE	KLFLG
   144						JRST	S'T'05
   145						CAME	AC,[I,,M]
   146						ER3	AC,T'01
   147						CAME	AC+1,[K,,L]
   148						ER4	AC+1,T'01
   149					S'T'06:	JUMPL	AC+4,S'T'00		;LOOP ON ERROR SWITCH
   150						JRST	S'T'07
   151
   152					S'T'05:	CAME	AC,[KL1,,KL2]
   153						ER3	AC,T'01
   154						CAME	AC+1,[KL3,,KL4]
   155						ER4	AC+1,T'01
   156						JRST	S'T'06
   157
   158					S'T'07:	JRST	.+1	>
   159DBKCE	PDP-10 KI10 ADVANCED INSTRUCTION DIAGNOSTIC #5, VERSION 0,3 	MACRO %52(462) 13:32  9-AUG-76 PAGE 4-1
DBKCET	MAC	30-JUL-76 12:48		DIAGNOSTIC PARAMETERS                                                              SEQ 0015

   160					DEFINE	DFD	(T,A,B,C,D,E,F,G,H,I,M,K,L)	<
   161					S'T'00:	DMOVE	AC,[A,,B
   162							C,,D]
   163						DFDV	AC,[E,,F
   164							G,,H]
   165						CAME	AC,[I,,M]
   166						ER3	AC,T'01
   167						CAME	AC+1,[K,,L]
   168						ER4	AC+1,T'01
   169						JUMPL	AC+4,S'T'00	;LOOP ON ERROR SWITCH>
   170					DEFINE	DFDKL	(T,A,B,C,D,E,F,G,H,I,M,K,L,KL1,KL2,KL3,KL4)	<
   171					S'T'00:	DMOVE	AC,[A,,B
   172							C,,D]
   173						DFDV	AC,[E,,F
   174							G,,H]
   175						SKIPE	KLFLG
   176						JRST	S'T'05
   177						CAME	AC,[I,,M]
   178						ER3	AC,T'01
   179						CAME	AC+1,[K,,L]
   180						ER4	AC+1,T'01
   181					S'T'06:	JUMPL	AC+4,S'T'00		;LOOP ON ERROR SWITCH
   182						JRST	S'T'07
   183
   184					S'T'05:	CAME	AC,[KL1,,KL2]
   185						ER3	AC,T'01
   186						CAME	AC+1,[KL3,,KL4]
   187						ER4	AC+1,T'01
   188						JRST	S'T'06
   189
   190					S'T'07:	JRST	.+1	>DBKCE	PDP-10 KI10 ADVANCED INSTRUCTION DIAGNOSTIC #5, VERSION 0,3 	MACRO %52(462) 13:32  9-AUG-76 PAGE 5
DBKCET	MAC	30-JUL-76 12:48		DIAGNOSTIC PARAMETERS                                                              SEQ 0016

   191					DEFINE	DFARP	(T,A,B,C,D,E,F,G,H,I,M,K,L)	<
   192						DMOVE	AC,[A,,B
   193							C,,D]
   194						DFAD	AC,[E,,F
   195							G,,H]
   196						CAME	AC,[I,,M]
   197						ER3	AC,T
   198						CAME	AC+1,[K,,L]
   199						ER4	AC+1,T
   200						JUMPL	AC+4,.-^D6	;LOOP ON ERROR SWITCH>DBKCE	PDP-10 KI10 ADVANCED INSTRUCTION DIAGNOSTIC #5, VERSION 0,3 	MACRO %52(462) 13:32  9-AUG-76 PAGE 1
PARAM	KLM	26-FEB-76		*PARAM*	CONSOLE DATA SWITCH ASSIGNMENTS, FEB 26,1976                               SEQ 0017

   201					SUBTTL	*PARAM*	CONSOLE DATA SWITCH ASSIGNMENTS, FEB 26,1976
   202
   203					DEFINE	S,<;*********************************************************************>
   204
   205					S^;*********************************************************************^
   206					;*DATA SWITCHES (READ FROM CONSOLE IN EXEC MODE OR TYPED IN IN USER MODE)
   207					;*LEFT HALF SWITCHES ARE PRE-ASSIGNED FOR SUBROUTINE PACKAGE USE
   208					;*AND CONTROL LOOPING, PRINTING (TTY OR OTHER DEVICE) AND MISC. FUNCTIONS
   209					S^;*********************************************************************^
   210
   211			400000		ABORT==	400000			;ABORT PROGRAM ON PASS COMPLETION
   212			200000		RSTART==200000			;RESTART TEST, PRINT TOTALS
   213			100000		TOTALS==100000			;PRINT TOTALS, CONTINUE
   214
   215			040000		NOPNT==	040000			;INHIBIT ALL PRINT/TYPE OUT (EXCEPT FORCED)
   216			020000		PNTLPT==020000			;PRINT ALL DATA ON LPT (LOGICAL DEVICE, USER MODE)
   217			010000		DING==	010000			;RING BELL ON ERROR
   218
   219			004000		LOOPER==004000			;ENTER EXERCISE/CHECK LOOP ON ERROR
   220			002000		ERSTOP==002000			;HALT ON TEST ERROR
   221			001000		PALERS==001000			;PRINT ALL ERRORS
   222
   223			000400		RELIAB==000400			;RELIABILITY MODE
   224			000200		TXTINH==000200			;INHIBIT ERROR TEXT
   225			000100		INHPAG==000100			;INHIBIT PAGING
   226
   227			000040		MODDVC==000040			;MODIFY DEVICE CODE
   228			000020		INHCSH==000020			;INHIBIT CACHE
   229			000010		OPRSEL==000010			;OPERATOR SELECTION
   230
   231			000004		CHAIN==	000004			;CHAIN CONTROL SWITCH
   232
   233			000002		KAHZ50==000002			;KA10 50 HERTZ POWER
   234
   235									;SWITCH 17 RESERVED !!!DBKCE	PDP-10 KI10 ADVANCED INSTRUCTION DIAGNOSTIC #5, VERSION 0,3 	MACRO %52(462) 13:32  9-AUG-76 PAGE 2
PARAM	KLM	26-FEB-76		*PARAM* PROGRAM/SUBROUTINE PARAMETERS, FEB 26,1976                                 SEQ 0018

   236					SUBTTL	*PARAM* PROGRAM/SUBROUTINE PARAMETERS, FEB 26,1976
   237
   238					S^;*********************************************************************^
   239					;*SPECIAL SUBPROGRAM LINKAGES
   240					S^;*********************************************************************^
   241
   242			027772		FSELNK=	27772	;FILE SELECT LINK
   243			027773		FRDLNK=	27773	;FILE READ LINK
   244			027774		LDLNK=	27774	;LOAD LINKAGE ADDRESS
   245			027775		DDTLNK=	27775	;DDT LINKAGE ADDRESS
   246			027776		MODLNK=	27776	;OPERATIONAL MODE CHECK LINKAGE ADDRESS
   247			027777		SUBLNK=	27777	;SUBROUTINE LINKAGE ADDRESS
   248
   249					S^;*********************************************************************^
   250					;*SPECIAL SUBROUTINE FATAL HALTS
   251					;*USED TO REPORT ERRORS THAT CAUSE THE SUBROUTINES TO BE UNUSABLE
   252					S^;*********************************************************************^
   253
   254					;ADDRESS   TAG	REASON
   255					;---------------------
   256
   257					; 1010 	NOEXEC	;PROGRAM NOT CODED FOR EXEC MODE OPERATION
   258					; 1011  PLERR	;FATAL PUSH LIST POINTER ERROR
   259					; 1012  PLERR1	;INITIAL PUSH LIST POINTER ERROR
   260					; 1013  MUOERR	;MUUO WITH LUUO HANDLER WIPED OUT
   261					; 1014  DTEBER	;DTE20 INTERRUPT WITHOUT DOORBELL
   262					; 1015  DTECER	;DTE20 CLOCK INTERRUPT WITHOUT FLAG SET
   263					; 1016  CPIERR	;CPU INITIALIZATION ERROR
   264					; 1017  EOPERR	;END OF PROGRAM ERROR
   265					; 1020  LUOERR	;INTERRUPT WITH LUUO HANDLER WIPED OUT
   266
   267					S^;*********************************************************************^DBKCE	PDP-10 KI10 ADVANCED INSTRUCTION DIAGNOSTIC #5, VERSION 0,3 	MACRO %52(462) 13:32  9-AUG-76 PAGE 3
PARAM	KLM	26-FEB-76		*PARAM* PROGRAM/SUBROUTINE PARAMETERS, FEB 26,1976                                 SEQ 0019

   268					S^;*********************************************************************^
   269					;OPERATOR DEFINITIONS (NON-UUO'S)
   270					S^;*********************************************************************^
   271
   272		260740	000000		OPDEF	GO	[PUSHJ	P,]	;SUBROUTINE CALL
   273		263740	000000		OPDEF	RTN	[POPJ	P,]	;SUBROUTINE RETURN
   274		261740	000000		OPDEF	PUT	[PUSH	P,]	;PUT DATA ON PUSH LIST
   275		262740	000000		OPDEF	GET	[POP	P,]	;GET DATA FROM PUSH LIST
   276		254000	000000		OPDEF	PJRST	[JRST	]	;JRST TO ROUTINE THAT RTN'S
   277		254200	000000		OPDEF	HALT	[JRST	4,]	;DEFINITION FOR DDT
   278		254100	000000		OPDEF	JRSTF	[JRST	2,]	;DEFINITION FOR DDT
   279		254500	000000		OPDEF	JEN	[JRST	12,]	;DEFINITION FOR DDT
   280
   281					S^;*********************************************************************^
   282					;*SUBROUTINE INITIALIZATION CALL
   283					S^;*********************************************************************^
   284
   285		265000	030011		OPDEF	PGMINT	[JSP	0,SBINIT]	;SUBROUTINE INITIALIZATION
   286
   287					S^;*********************************************************************^
   288					;*HALTING UUO'S (A MORE GRACEFUL HALT THAN SIMPLY USING THE HALT INSTRUCTION).
   289					S^;*********************************************************************^
   290
   291		037640	000004		OPDEF	FATAL	[37B8!15B12!4]	;FATAL PROGRAMMING HALT
   292		037600	000004		OPDEF	ERRHLT	[37B8!14B12!4]	;PROGRAM ERROR HALT
   293
   294					S^;*********************************************************************^
   295					;*TERMINAL INPUT UUO'S
   296					;*ALWAYS COME FROM THE CONSOLE TERMINAL IN EXEC MODE OR THE
   297					;*CONTROLLING TERMINAL (REAL TERMINAL OR PTY) IN USER MODE.
   298					S^;*********************************************************************^
   299
   300		037000	000003		OPDEF	TTICHR 	[37B8!0B12!3]	;TTY, INPUT ANY CHARACTER
   301		037040	000003		OPDEF	TTIYES	[37B8!1B12!3]	;TTY, NORMAL RETURN Y
   302		037100	000003		OPDEF	TTINO	[37B8!2B12!3]	;TTY, NORMAL RETURN N
   303		037140	000003		OPDEF	TTIOCT	[37B8!3B12!3]	;TTY, INPUT OCTAL WORD
   304		037200	000003		OPDEF	TTIDEC	[37B8!4B12!3]	;TTY, INPUT DECIMAL WORD
   305		037240	000003		OPDEF	TTICNV	[37B8!5B12!3]	;TTY, INPUT CONVERTABLE WORD
   306		037300	000003		OPDEF	TTLOOK	[37B8!6B12!3]	;TTY, KEYBOARD CHECK
   307		037340	000003		OPDEF	TTALTM	[37B8!7B12!3]	;TTY, ALT-MODE CHECK
   308		037400	000003		OPDEF	TTSIXB	[37B8!10B12!3]	;TTY, INPUT SIXBIT WORD
   309		037440	000003		OPDEF	TTYINP	[37B8!11B12!3]	;TTY, IMAGE MODE INPUTDBKCE	PDP-10 KI10 ADVANCED INSTRUCTION DIAGNOSTIC #5, VERSION 0,3 	MACRO %52(462) 13:32  9-AUG-76 PAGE 4
PARAM	KLM	26-FEB-76		*PARAM* PROGRAM/SUBROUTINE PARAMETERS, FEB 26,1976                                 SEQ 0020

   310					;*TERMINAL OUTPUT UUO'S.
   311
   312		037000	000000		OPDEF	PNTA	[37B8!0B12!0]	;PRINT ASCII WORD
   313		037000	000001		OPDEF	PNTAF	[37B8!0B12!1]	;PRINT ASCII WORD FORCED
   314		037740	000000		OPDEF	PNTAL	[37B8!17B12!0]	;PRINT ASCIZ LINE
   315		037740	000001		OPDEF	PNTALF	[37B8!17B12!1]	;PRINT ASCIZ LINE FORCED
   316		037600	000003		OPDEF	PSIXL	[37B8!14B12!3]	;PRINT SIXBIT'Z LINE
   317		037640	000003		OPDEF	PSIXLF	[37B8!15B12!3]	;PRINT SIXBIT'Z LINE FORCED
   318		037000	000000		OPDEF	PNTMSG	[37B8!0B12!0]	;PRINT MESSAGE IMMEDIATE
   319		037040	000000		OPDEF	PNTMSF	[37B8!1B12!0]	;PRINT MESSAGE IMMEDIATE FORCED
   320		037100	000000		OPDEF	PSIXM	[37B8!2B12!0]	;PRINT SIXBIT'Z MSG IMMEDIATE
   321		037200	000000		OPDEF	PSIXMF	[37B8!4B12!0]	;PRINT SIXBIT'Z MSG IMM FORCED
   322		037000	000000		OPDEF	PNTCI	[37B8!0B12!0]	;PRINT CHARACTER IMMEDIATE
   323		037040	000000		OPDEF	PNTCIF	[37B8!1B12!0]	;PRINT CHARACTER IMMEDIATE FORCED
   324		037500	000000		OPDEF	PNTCHR	[37B8!12B12!0]	;PRINT CHARACTER
   325		037500	000001		OPDEF	PNTCHF	[37B8!12B12!1]	;PRINT CHARACTER FORCED
   326		037040	000000		OPDEF	PNT1	[37B8!1B12!0]	;PRINT ONE OCTAL DIGIT
   327		037040	000001		OPDEF	PNT1F	[37B8!1B12!1]	;PRINT 1 OCTAL DIGIT FORCED
   328		037100	000000		OPDEF	PNT2	[37B8!2B12!0]	;PRINT TWO OCTAL DIGITS
   329		037100	000001		OPDEF	PNT2F	[37B8!2B12!1]	;PRINT 2 OCTAL DIGITS FORCED
   330		037140	000000		OPDEF	PNT3	[37B8!3B12!0]	;PRINT THREE OCTAL DIGITS
   331		037140	000001		OPDEF	PNT3F	[37B8!3B12!1]	;PRINT THREE OCTAL DIGITS FORCED
   332		037200	000000		OPDEF	PNT4	[37B8!4B12!0]	;PRINT FOUR OCTAL DIGITS
   333		037200	000001		OPDEF	PNT4F	[37B8!4B12!1]	;PRINT FOUR OCTAL DIGITS FORCED
   334		037240	000000		OPDEF	PNT5	[37B8!5B12!0]	;PRINT FIVE OCTAL DIGITS
   335		037240	000001		OPDEF	PNT5F	[37B8!5B12!1]	;PRINT FIVE OCTAL DIGITS FORCED
   336		037300	000000		OPDEF	PNT6	[37B8!6B12!0]	;PRINT SIX OCTAL DIGITS
   337		037300	000001		OPDEF	PNT6F	[37B8!6B12!1]	;PRINT SIX OCTAL DIGITS FORCED
   338		037340	000000		OPDEF	PNT7	[37B8!7B12!0]	;PRINT 7 OCTAL DIGITS
   339		037340	000001		OPDEF	PNT7F	[37B8!7B12!1]	;PRINT 7 OCTAL DIGITS FORCED
   340		037440	000000		OPDEF	PNT11	[37B8!11B12!0]	;PRINT 11 OCTAL DIGITS
   341		037440	000001		OPDEF	PNT11F	[37B8!11B12!1]	;PRINT 11 OCTAL DIGITS FORCED.
   342		037400	000000		OPDEF	PNTADR	[37B8!10B12!0]	;PRINT PHYSICAL ADDRESS
   343		037400	000001		OPDEF	PNTADF	[37B8!10B12!1]	;PRINT PHYSICAL ADDRESS FORCED
   344		037600	000000		OPDEF	PNTOCT  [37B8!14B12!0]	;PRINT FULL WORD OCTAL
   345		037600	000001		OPDEF	PNTOTF	[37B8!14B12!1]	;PRINT FULL WORD OCTAL FORCED
   346		037540	000000		OPDEF	PNTHW	[37B8!13B12!0]	;PRINT OCTAL HALF WORDS, 6 SP 6
   347		037540	000001		OPDEF	PNTHWF	[37B8!13B12!1]	;PRINT OCTAL HALF WORDS, 6 SP 6 FORCED
   348		037700	000003		OPDEF	PNTOCS	[37B8!16B12!3]	;PRINT OCTAL, SUPPRESS LEADING 0'S
   349		037740	000003		OPDEF	PNTOCF	[37B8!17B12!3]	;PRINT OCTAL, SUPPRESS LEADING 0'S FORCED
   350		037640	000000		OPDEF	PNTDEC	[37B8!15B12!0]	;PRINT DECIMAL, SUPRESS LEADING 0'S
   351		037640	000001		OPDEF	PNTDCF	[37B8!15B12!1]	;PRINT DECIMAL, SUPRESS LEADING 0'S FORCED
   352		037700	000000		OPDEF	PNTDS	[37B8!16B12!0]	;PRINT DECIMAL, SPACES FOR LD 0'S
   353		037700	000001		OPDEF	PNTDSF	[37B8!16B12!1]	;PRINT DECIMAL, SPACES FOR LD 0'S FORCEDDBKCE	PDP-10 KI10 ADVANCED INSTRUCTION DIAGNOSTIC #5, VERSION 0,3 	MACRO %52(462) 13:32  9-AUG-76 PAGE 5
PARAM	KLM	26-FEB-76		*PARAM* PROGRAM/SUBROUTINE PARAMETERS, FEB 26,1976                                 SEQ 0021

   354		037200	000002		OPDEF	PNTNM	[37B8!4B12!2]	;PRINT PROGRAM NAME
   355		037000	000002		OPDEF	PNTSIX	[37B8!0B12!2]	;PRINT SIXBIT WORD
   356		037040	000002		OPDEF	PNTSXF	[37B8!1B12!2]	;PRINT SIXBIT WORD FORCED
   357		037240	000002		OPDEF	DROPDV	[37B8!5B12!2]	;CLOSE LOGICAL FILE, USER MODE
   358		037100	000002		OPDEF	PNTCW	[37B8!2B12!2]	;PRINT DF10 CONTROL WORD
   359		037140	000002		OPDEF	PNTCWF	[37B8!3B12!2]	;PRINT DF10 CONTROL WORD FORCED
   360		037000	030242		OPDEF	PCRL	[37B8!0B12!CRLF] ;PRINT CARRIAGE RETURN/LINE FEED
   361		037040	030242		OPDEF	PCRLF	[37B8!1B12!CRLF] ;PRINT CARRIAGE RETURN/LINE FEED FORCED
   362		037000	000040		OPDEF	PSP	[37B8!0B12!40]	;PRINT SPACE
   363		037040	000040		OPDEF	PSPF	[37B8!1B12!40]	;PRINT SPACE FORCED
   364		037000	030243		OPDEF	PCRL2	[37B8!0B12!CRLF2] ;PRINT CARRIAGE RETURN/LINE FEED (TWICE)
   365		037040	030243		OPDEF	PCRL2F	[37B8!1B12!CRLF2] ;PRINT CARRIAGE RETURN/LINE FEED (TWICE) FORCED
   366		037040	000007		OPDEF	PBELL	[37B8!1B12!7]	;PRINT TTY BELL
   367
   368		037040	000026		OPDEF	PFORCE	[37B8!1B12!26]	;PRINT FORCE, CONTROL O OVERRIDE
   369
   370					DEFINE	PMSG	(ARG),<
   371						PSIXM	[SIXBIT\ARG'_\]>
   372
   373					DEFINE	PMSGF	(ARG),<
   374						PSIXMF	[SIXBIT\ARG'_\]>
   375
   376					;*SIXBTZ -- MACRO TO GENERATE SIXBIT DATA FOR PRINTING
   377					;*	CONSERVES CORE OVER ASCIZ
   378
   379					DEFINE	SIXBTZ	(ARG),<	[SIXBIT\ARG'_\]>
   380
   381					;*CONSOLE SWITCH INPUT UUO.
   382					;*READS CONSOLE SWITCHES IF IN EXEC MODE OR ASKS FOR THEM IF
   383					;* USER MODE.
   384
   385		037400	000002		OPDEF	SWITCH	[37B8!10B12!2]	;INPUT CONSOLE SWITCHES
   386
   387					;*CLOCK INITIALIZATION UUO - TO SET DESIRED CLOCK OPERATION
   388					;*EITHER IGNORE CLOCK, ONLY LET IT TICK OR CAUSE INTERRUPT TO OCCUR.
   389
   390		037540	000004		OPDEF	CLOKOP	[37B8!13B12!4]	;CLOCK OPERATION UUO - PDP-11 CLOCK
   391		037200	000004		OPDEF	MTROP	[37B8!4B12!4]	;CLOCK OPERATION UUO - DK20 METER
   392
   393					;*KL10 ONLY CACHE OPERATION UUO'S
   394
   395		037040	000004		OPDEF	CINVAL	[37B8!1B12!4]	;CACHE INVALIDATE
   396		037100	000004		OPDEF	CFLUSH	[37B8!2B12!4]	;CACHE FLUSH
   397		037140	000004		OPDEF	CWRTBI	[37B8!3B12!4]	;CACHE WRITE-BACK & INVALIDATEDBKCE	PDP-10 KI10 ADVANCED INSTRUCTION DIAGNOSTIC #5, VERSION 0,3 	MACRO %52(462) 13:32  9-AUG-76 PAGE 6
PARAM	KLM	26-FEB-76		*PARAM* PROGRAM/SUBROUTINE PARAMETERS, FEB 26,1976                                 SEQ 0022

   398					;*END OF PASS/PROGRAM UUOS
   399
   400					;PERFORMS THE END OF PASS FUNCTIONS. INCREMENT PASS COUNT,
   401					;*DECREMENT ITERATION COUNT, CHECK IF FINISHED WITH THIS PROGRAM ETC.
   402
   403		037500	000004		OPDEF	ENDUUO	[37B8!12B12!4]	;UUO TO DISPLAY LIGHTS
   404		037700	000004		OPDEF	EOPUUO	[37B8!16B12!4]	;END OF PROGRAM UUO
   405
   406					;*MEMORY MANAGEMENT UUO'S
   407					;*UUO'S TO PERFORM VARIOUS MEMORY FUNCTIONS. MAPPING, ZEROING, PAGING,
   408					;*ADDRESS CONVERSION, ETC...
   409
   410		037000	000004		OPDEF	MAPMEM	[37B8!0B12!4]	;MAP MEMORY
   411		037500	000002		OPDEF	MEMZRO	[37B8!12B12!2]	;ZERO MEMORY
   412		037440	000002		OPDEF	MEMSEG	[37B8!11B12!2]	;SETUP MEMORY SEGMENT
   413		037540	000002		OPDEF	MAPADR	[37B8!13B12!2]	;VIRTUAL TO PHYSICAL ADR CONVERT
   414		037640	000002		OPDEF	MAPCNK	[37B8!15B12!2]	;MAP MEMORY CHUNK
   415		037600	000002		OPDEF	MAPSET	[37B8!14B12!2]	;SET KI10 EXEC PAGE MAP
   416		037740	000002		OPDEF	MAPPNT	[37B8!17B12!2]	;PRINT MEMORY MAP
   417
   418					;*DEVICE CODE MODIFICATION UUO
   419					;*ALLOWS THE MODIFICATION OF IOT'S TO ONE DEVICE TO BE CHANGED TO
   420					;*IOT'S TO A DIFFERENT DEVICE CODE.
   421
   422		037340	000002		OPDEF	MODPCU	[37B8!7B12!2]	;MODIFY PERHIPERAL CODE, USER
   423		037300	000002		OPDEF	MODPCP	[37B8!6B12!2]	;MODIFY PERHIPERAL CODE, PROGRAM
   424
   425						IFNDEF	MODDVL,<MODDVL==BEGIN>
   426						IFNDEF	MODDVU,<MODDVU==BEGIN>
   427
   428					;*"DIAMON" FILE SELECTION AND READ UUOS
   429
   430		037240	000004		OPDEF	FSELECT	[37B8!5B12!4]	;FILE SELECTION
   431		037300	000004		OPDEF	FREAD	[37B8!6B12!4]	;FILE READ - ASCII DATA
   432		037340	000004		OPDEF	FRD36	[37B8!7B12!4]	;FILE READ - 36 BIT DATA
   433		037400	000004		OPDEF	FRD8	[37B8!10B12!4]	;FILE READ - 8 BIT DATA
   434
   435					;*KI10 ONLY UUO FOR PRINTING MARGIN VALUES
   436
   437		037700	000002		OPDEF	PNTMGN	[37B8!16B12!2]	;PRINT MARGIN VALUE
   438
   439						XLIST
   440						LISTDBKCE	PDP-10 KI10 ADVANCED INSTRUCTION DIAGNOSTIC #5, VERSION 0,3 	MACRO %52(462) 13:32  9-AUG-76 PAGE 1
FIXED	KLM	26-FEB-76		*FIXED* FIXED CONTROL AND DISPATCH STORAGE, FEB 26,1976                            SEQ 0023

   441					SUBTTL	*FIXED* FIXED CONTROL AND DISPATCH STORAGE, FEB 26,1976
   442
   443	030000					LOC	30000
   444
   445					S^;*********************************************************************^
   446					;*PROGRAM STARTING ADDRESSES
   447					;*THESE ADDRESSES CALL VARIOUS SPECIAL START ROUTINES AND OR OPTIONS
   448					;*NORMAL START ADDRESS IS 30000 ALL OTHERS ARE SPECIAL. INVOKED BECAUSE
   449					;*OF END OF PASS, POWER FAILURE, DDT START, RE-ENTERING(TYPICALLY USER
   450					;*MODE), OR ANY NUMBER OF SPECIAL FEATURE TESTS.
   451					S^;*********************************************************************^
   452
   453	030000	254 00 1 00 027776 	BEGIN:	JRST	@MODLNK		;STAND-ALONE START
   454	030001	254 00 0 00 030627 	$START:	JRST	START		;MODE CHECK STARTING ADDRESS
   455
   456	030002	254 00 1 00 027774 	DIAGMN:	JRST	@LDLNK		;DIAGNOSTIC MONITOR START
   457
   458	030003	254 00 1 00 027774 	SYSEXR:	JRST	@LDLNK		;SYSTEM EXERCISER START
   459
   460	030004	254 00 0 00 030000 	SFSTRT:	JRST	SADR1		;SPECIAL FEATURE START
   461
   462	030005	254 00 0 00 030076 	PFSTRT:	JRST	SADR2		;POWER FAIL RESTART
   463
   464	030006	254 00 0 00 030600 	REENTR:	JRST	SADR3		;REENTER START(USUALLY USER MODE ONLY)
   465
   466	030007				SRTDDT:				;COMMONLY MISTAKEN NAME FOR "DDTSRT"
   467	030007	254 00 1 00 027775 	DDTSRT:	JRST	@DDTLNK		;DDT START
   468
   469	030010	254 00 0 00 030632 	BEGIN1:	JRST	STARTA		;LOOP START(END OF PASS COMES HERE)
   470	030011	254 00 1 00 027777 	SBINIT:	JRST	@SUBLNK		;PMGINT LINKAGE
   471	030012	000000	000000		RETURN:	0			;RETURN ADDRESS STORAGE
   472
   473	030013	000000	000000		START1:	SADR7			;OPTIONAL STARTING ADR/INSTRUCTIONS
   474	030014	000000	000000		START2:	SADR8			; "
   475	030015	000000	000000		START3:	SADR9			; "
   476	030016	000000	000000		START4:	SADR10			; "
   477	030017	000000	000000		START5:	SADR11			; "DBKCE	PDP-10 KI10 ADVANCED INSTRUCTION DIAGNOSTIC #5, VERSION 0,3 	MACRO %52(462) 13:32  9-AUG-76 PAGE 2
FIXED	KLM	26-FEB-76		*FIXED* FIXED CONTROL AND DISPATCH STORAGE, FEB 26,1976                            SEQ 0024

   478					S^;*********************************************************************^
   479					;*PROGRAM FIXED PARAMETER AREA
   480					S^;*********************************************************************^
   481
   482	030020	444253	434500		PNTNAM:	PAREA3		;SIXBIT PROGRAM NAME
   483	030021	605664	000000		PNTEXT:	PAREA4		;SIXBIT PROGRAM EXTENSION
   484	030022	000000	000000		RANDBS:	PAREA1		;RANDOM BASE NUMBER
   485	030023	000000	000000		SWTEXR:	PAREA2		;SYSTEM EXERCISER SWITCHES
   486	030024	000000	001000		ITRCNT:	ITERAT		;PROGRAM ITERATIONS
   487	030025	000000	030602		$PNAME:	PGMNAM		;POINTER TO PROGRAMS NAME
   488	030026	000000	000003		$PVER:	MCNVER,,DECVER	;MCN & DEC VERSION LEVEL
   489	030027	000000	030000		$MODVL:	MODDVL		;DEVICE CODE CHANGE LOWER LIMIT
   490	030030	000000	030000		$MODVU:	MODDVU		;DEVICE CODE CHANGE UPPER LIMIT
   491	030031	777777	777777		$EMODE:	IFNDEF EXCASB,<0> IFDEF EXCASB,<-1>	;EXEC ALLOWED
   492	030032	777777	777777		$UMODE:	IFNDEF USRASB,<0> IFDEF USRASB,<-1>	;USER ALLOWED
   493	030033	000000	000000		$DSKUP:	IFNDEF DSKUPD,<0> IFDEF DSKUPD,<-1>	;DISK UPDATE MODE
   494	030034	000000	000000		$MMAP:	IFNDEF MEMMAP,<0> IFDEF MEMMAP,<-1>	;ALLOW MEMORY RTNS
   495	030035	000000	000000		PAREA7:	PAREA5		;OPTIONAL PARAMETER
   496	030036	000000	000000		PAREA8:	PAREA6		;OPTIONAL PARAMETER
   497
   498					S^;*********************************************************************^
   499					;*PROGRAM VARIABLE PARAMETER AREA
   500					S^;*********************************************************************^
   501
   502	030037	000000	000000		USER:	0		; 0 = EXEC, -1 = USER MODE FLAG
   503	030040	000000	000000		KAIFLG:	0		;PROCESSOR TYPE, 0 = KA10, -1 = KI10
   504	030041	000000	000000		KLFLG:	0		;PROCESSOR TYPE, 0 = KA/KI, -1 = KL10
   505	030042	777777	777777		MONFLG:	-1		;DIAG MONITOR SPECIAL USER FLAG
   506	030043	000000	000000		MONCTL:	0		;DIAG MON/SYS EXR FLAG
   507	030044	000000	000000		MONTEN:	0		;-1= LOADED BY 10
   508	030045	000000	000000		CLOCKF:	0		;CLOCK TICKED FLAG
   509	030046	000000	000000		CONSW:	0		;CONSOLE SWITCH SETTINGS
   510	030047	000000	000000		PASCNT:	0		;PROGRAM PASS COUNT
   511	030050	000000	000000		RUNFLG:	0		;PROGRAM RUN FLAG
   512	030051	000000	000000		TESTPC:	0		;SUBTEST PC
   513	030052	000000	000000		ERRPC:	0		;ERROR PC
   514	030053	000000	000000		ERRTLS:	0		;ERROR TOTALS
   515	030054	000000	000000		TICKS:	0		;PROGRAM RUNNING TIME
   516	030055	000000	000000		MARGIN:	0		;KI10 MARGIN WORD VALUE
   517	030056	000000	000000		$ONETM:	0		;SUBROUTINE INITIALIZATION FLAGDBKCE	PDP-10 KI10 ADVANCED INSTRUCTION DIAGNOSTIC #5, VERSION 0,3 	MACRO %52(462) 13:32  9-AUG-76 PAGE 3
FIXED	KLM	26-FEB-76		*FIXED* FIXED CONTROL AND DISPATCH STORAGE, FEB 26,1976                            SEQ 0025

   518					S^;*********************************************************************^
   519					;*SPECIAL PROGRAM DISPATCH ADDRESSES
   520					S^;*********************************************************************^
   521
   522	030057	037 12 0 00 000004 	BEGEND:	ENDUUO		;END OF PASS
   523	030060	254 00 0 00 030010 	$BEND1:	JRST	BEGIN1	;KEEP RUNNING PROGRAM
   524	030061	037 16 0 00 000004 	$BEND2:	EOPUUO		;END OF PROGRAM - NO RETURN
   525	030062	000000	030000		CNTLC:	SADR5		;CONTROL C XFER ADDRESS
   526	030063	000000	030000		ALTMGO:	SADR6		;ALTMODE XFER ADDRESS
   527	030064				CPOPJ1:			;SKIP RETURN
   528	030064	350 00 0 17 000000 	UUOSKP:	AOS	(P)	;SKIP RETURN FROM UUO
   529	030065				CPOPJ:			;NON-SKIP REGULAR RETURN
   530	030065	263 17 0 00 000000 	UUOEXT:	RTN		;UUO RETURN
   531	030066	255 00 0 00 000000 	UUORTN:	JFCL		;ADDITIONAL USERS UUO ROUTINE
   532	030067	255 00 0 00 000000 	$UORTX:	JFCL		;ADDITIONAL UUO LINKAGE
   533	030070	255 00 0 00 000000 	$UUOER:	JFCL		;INITED AS (JRST $UOERX)
   534	030071	255 00 0 00 000000 	$ITRHL:	JFCL		;ADDITIONAL INTERRUPT LINKAGE
   535	030072	255 00 0 00 000000 	$ITRX1:	JFCL		; "
   536	030073	255 00 0 00 000000 	$USRHL:	JFCL		; "
   537	030074	255 00 0 00 000000 	$RSRTX:	JFCL		;ADDITIONAL POWER FAIL LINKAGE
   538	030075	255 00 0 00 000000 	$RSRTY:	JFCL		; "
   539	030076	255 00 0 00 000000 	RESRT1:	JFCL		; INITED AS (JRST RESRTX)
   540	030077	255 00 0 00 000000 	RESRT2:	JFCL		; "
   541	030100	255 00 0 00 000000 	$PARER:	JFCL		;ADDITIONAL PARITY ERROR LINKAGE
   542	030101	255 00 0 00 000000 	ERMORE:	JFCL		;ADDITIONAL ERROR HANDLER LINKAGE
   543	030102	254 04 0 00 030102 		HALT	.	;IMPROPER TRANSFER HALT
   544
   545	030103	000000	000000		$PSHER:	0		;INITED AS (JRST PSHERR)
   546	030104	000000	000000		ITRCH1:	0		;PC & FLAGS OF CURRENT INTERRUPT
   547	030105	000000	000000			0		;INITED AS (JRST $ITRC1)
   548
   549					S^;*********************************************************************^
   550					;*PROCESSOR CONTROL STORAGE
   551					S^;*********************************************************************^
   552
   553	030106	000000	000000		$ACC0:	0		;INTERRUPT SAVED AC0
   554	030107	000000	000000		$SVPI:	0		;INTERRUPT SAVED PI
   555	030110	000000	000000		$SVAPR:	0		;INTERRUPT SAVED APR
   556	030111	000000	000000		$SVPAG:	0		;INTERRUPT SAVED PAG (DATAI)
   557	030112	000000	000000		$SPAG1:	0		;INTERRUPT SAVED PAG (CONI)
   558
   559	030113	000000	000000		$SVUUO:	0		;CURRENT USERS UUO
   560	030114	000000	000000		$SVUPC:	0		;PC OF CURRENT USERS UUO
   561
   562	030115	000000	000000		REPTU:	0		;REPEAT UUO ITERATIONS
   563	030116	000000	000000		SCOPE:	0		;ERROR HANDLER SCOPE LOOP FLAG
   564	030117	000000	000000		%CORFLG:0		; " CORRECT FLAG
   565	030120	000000	000000		%COREC:	0		; " CORRECT DATA
   566	030121	000000	000000		%ACTFL:	0		; " ACTUAL FLAG
   567	030122	000000	000000		%ACTUL:	0		; " ACTUAL DATA
   568	030123	000000	000000		%DISCR:	0		; " DISCREPENCY DATADBKCE	PDP-10 KI10 ADVANCED INSTRUCTION DIAGNOSTIC #5, VERSION 0,3 	MACRO %52(462) 13:32  9-AUG-76 PAGE 4
FIXED	KLM	26-FEB-76		*FIXED* FIXED CONTROL AND DISPATCH STORAGE, FEB 26,1976                            SEQ 0026

   569					S^;*********************************************************************^
   570					;*UUO DISPATCH TABLE
   571					S^;*********************************************************************^
   572						XLIST
   573						LIST
   574	030124	037745	030070		UUODIS:	LUUO1,,$UUOER
   575	030125	037745	037745			LUUO3,,LUUO2
   576	030126	037745	037745			LUUO5,,LUUO4
   577	030127	037745	037745			LUUO7,,LUUO6
   578	030130	037745	037745			LUUO11,,LUUO10
   579	030131	037745	037745			LUUO13,,LUUO12
   580	030132	030070	030070			LUUO15,,LUUO14
   581	030133	030070	030070			LUUO17,,LUUO16
   582	030134	030070	030070			LUUO21,,LUUO20
   583	030135	030070	030070			LUUO23,,LUUO22
   584	030136	030070	030070			LUUO25,,LUUO24
   585	030137	030070	030070			LUUO27,,LUUO26
   586	030140	030070	030070			LUUO31,,LUUO30
   587	030141	030070	030070			LUUO33,,LUUO32
   588
   589					S^;*********************************************************************^
   590					;*MEMORY MANAGMENT STORAGE
   591					S^;*********************************************************************^
   592
   593	030142	000000	000000		DF22F:	0		;DF10 CONTROL FLAG, 0 = 18, -1 = 22 BIT
   594	030143	000000	000000		MAPNEW:	0		;MEMORY MAPPING CONTROL FLAG, -1 = 4096K MAPPING
   595	030144	000000	000000		MEMTOT:	0		;TOTAL MEMORY SIZE IN K (1024.)
   596	030145	000000	000000		MEMLOW:	0		;LOWEST USABLE MEMORY
   597	030146				MEMSIZ:	BLOCK ^D41	;MEMORY SEGMENT POINTER TABLE
   598
   599					S^;*********************************************************************^
   600					;*PRINT CONTROL STORAGE
   601					S^;*********************************************************************^
   602
   603	030217	000000	000000		PNTFLG:	0		;PRINT FLAG, -1 WHILE IN PRINT ROUTINE
   604	030220	000000	000000		PNTENB:	0		;PRINT ENABLE
   605	030221	000000	000000		PDISF:	0		;PRINT DISABLED FLAG
   606	030222	000000	000000		PNTINH:	0		;INHIBIT PRINT INPUT CHECKS
   607	030223	000000	000000		PNTSPC:	0		;PRINT SPACE CONTROL
   608	030224	000000	000000		OPTIME:	0		;TYPE-IN WAIT TIME
   609	030225	000000	000000		$TWCNT:	0		;TIME WAITED
   610	030226	000000	000000		$DVOFF:	0		;LOGICAL DEVICE INITED FLAG
   611	030227	000000	000000		TTYFIL:	0		;TTY EXEC FILLERS FLAG
   612	030230	000000	000000		TTYSPD:	0		;TTY EXEC BAUD RATE
   613	030231	000000	000000		$TTCHR:	0		;ACTUAL TYPED IN CHAR
   614	030232	000000	000000		$CHRIN:	0		;UPPER CASED & PARITY STRIPPED CHAR
   615	030233	000000	000000		$TYPNB:	0		;TYPED IN NUMBER
   616	030234	000000	000000		$CRLF:	0		;FREE CR/LF FLAG
   617	030235	000000	000000		$TABF:	0		;TAB CONVERSION FLAG
   618	030236	000000	000000		$FFF:	0		;FORM FEED CONVERSION FLAG
   619	030237	000000	000000		$VTF:	0		;VERTICAL TAB CONVERSION FLAG
   620	030240	000000	000000		USRLFF:	0		;USER LF FILLERS
   621	030241	000000	000000		USRCRF:	0		;USER CR FILLERSDBKCE	PDP-10 KI10 ADVANCED INSTRUCTION DIAGNOSTIC #5, VERSION 0,3 	MACRO %52(462) 13:32  9-AUG-76 PAGE 5
FIXED	KLM	26-FEB-76		*FIXED* FIXED CONTROL AND DISPATCH STORAGE, FEB 26,1976                            SEQ 0027

   622					S^;*********************************************************************^
   623					;*THE FOLLOWING MISCELLANEOUS PRINT CHARACTERS ARE INCLUDED
   624					;*TO FACILITATE PRINTING AND ARE CALLED AS FOLLOWS:
   625					;*	MOVEI	NAME
   626					;*	PNTA		;OR PNTAF
   627					S^;*********************************************************************^
   628
   629	030242				CRLF:	ASCII/
   630	030242	015 012 000 000 000 	/
   631	030243				CRLF2:	ASCII/
   632
   633	030243	015 012 015 012 000 	/
   634	030244	054 000 000 000 000 	COMMA:	ASCII/,/
   635	030245	056 000 000 000 000 	PERIOD:	ASCII/./
   636	030246	040 000 000 000 000 	SPACE:	ASCII/ /
   637	030247	011 000 000 000 000 	TAB:	ASCII/	/
   638	030250				MINUS:
   639	030250	055 000 000 000 000 	HYPEN:	ASCII/-/
   640	030251	053 000 000 000 000 	PLUS:	ASCII/+/
   641	030252	052 000 000 000 000 	AST:	ASCII/*/
   642	030253	100 000 000 000 000 	ATSIN:	ASCII/@/
   643	030254	050 000 000 000 000 	LFP:	ASCII/(/
   644	030255	051 000 000 000 000 	RTP:	ASCII/)/
   645	030256	007 0000000000 		BELL:	BYTE (7) 007
   646	030257	077 000 000 000 000 	QUEST:	ASCII/?/
   647	030260	057 000 000 000 000 	SLASH:	ASCII!/!
   648	030261	044 000 000 000 000 	DOLLAR:	ASCII/$/
   649	030262	000000	000012		RADIX:	^D10			;DECIMAL PRINT RADIX
   650	030263	000000	000040		RADLSP:	40			;DECIMAL PRINT LEADING CHAR
   651	030264	000000	000012		RADLSC:	^D10			;DECIMAL PRINT LEADING CHAR COUNT
   652
   653					S^;*********************************************************************^
   654					;*USER MODE OUTPUT FILE INFORMATION
   655					S^;*********************************************************************^
   656
   657	030265				$OBUF:	BLOCK	3		;LOGICAL FILE OUTPUT BUFFER HEADER
   658	030270	60 62 51 56 64 00 	$OUTNM:	SIXBIT	/PRINT/		;FILE NAME
   659	030271	60 56 64 00 00 00 	$OUTEX:	SIXBIT	/PNT/		;FILE NAME EXTENSION
   660	030272					BLOCK	2
   661
   662					S^;*********************************************************************^
   663					;*DISK UPDATE MODE FILE INFORMATION
   664					S^;*********************************************************************^
   665
   666	030274				$IBUF:	BLOCK	3
   667	030277	60 62 51 56 64 00 	$INNM:	SIXBIT	/PRINT/
   668	030300	60 56 64 00 00 00 	$INEXT:	SIXBIT	/PNT/
   669	030301					BLOCK	2DBKCE	PDP-10 KI10 ADVANCED INSTRUCTION DIAGNOSTIC #5, VERSION 0,3 	MACRO %52(462) 13:32  9-AUG-76 PAGE 6
FIXED	KLM	26-FEB-76		*FIXED* FIXED CONTROL AND DISPATCH STORAGE, FEB 26,1976                            SEQ 0028

   670					S^;*********************************************************************^
   671					;*PUSHDOWN LIST CONTROL INFORMATION
   672					S^;*********************************************************************^
   673
   674	030303	777577	030303		PLIST:	PLIST-PLISTE,,PLIST
   675	030304				PLISTS:	BLOCK	200
   676	030504	000000	000000		PLISTE:	0		;END OF PUSHDOWN LIST
   677
   678					S^;*********************************************************************^
   679					;*POWER LINE CLOCK FREQUENCY FLAG
   680					S^;*********************************************************************^
   681
   682	030505	000000	000000		CYCL60:	0	;0 = 60, -1 = 50 CYCLE
   683
   684					S^;*********************************************************************^
   685					;*KL10 CACHE CONTROL FLAGS
   686					S^;*********************************************************************^
   687
   688	030506	000000	000000		CSHFLG:	0	;ALLOW CACHE IF 0
   689	030507	000000	000000		CSHMEM:	0	;CACHE MEMORY SEGMENTS IF 0
   690
   691					S^;*********************************************************************^
   692					;*NUMBER INPUT DIGIT FLAG
   693					S^;*********************************************************************^
   694
   695	030510	000000	000000		TTNBRF:	0	;-1 IF ANY DIGIT TYPED
   696
   697					S^;*********************************************************************^
   698					;*KL10 & KI10 "INHPAG" SWITCH PAGING PREVENTION
   699					S^;*********************************************************************^
   700
   701	030511	000000	000000		PVPAGI:	0	;IF NON-ZERO, OVERRIDE "INHPAG" SWITCH ACTION
   702
   703					S^;*********************************************************************^
   704					;*ERROR REPORTING ROUTINE ADDITIONAL USERS CONTROL INSTRUCTIONS
   705					S^;*********************************************************************^
   706
   707	030512	000000	000000		%ERHI1:	0	;IF NON-ZERO, XCT'D AT START OF %ERUUO
   708	030513	000000	000000		%ERHI2:	0	;IF NON-ZERO, XCT'D AT END OF %ERUUO
   709	030514	000000	000000		%ERHI3:	0	;IF NON-ZERO, XCT'D AFTER "PC" OF %ERUUO
   710
   711					S^;*********************************************************************^
   712					;*SPECIAL USERS UUO INTERCEPT INSTRUCTION
   713					S^;*********************************************************************^
   714
   715	030515	000000	000000		$$UUO:	0	;IF NON-ZERO, XCT'D AT START OF $UORTNDBKCE	PDP-10 KI10 ADVANCED INSTRUCTION DIAGNOSTIC #5, VERSION 0,3 	MACRO %52(462) 13:32  9-AUG-76 PAGE 7
FIXED	KLM	26-FEB-76		*FIXED* FIXED CONTROL AND DISPATCH STORAGE, FEB 26,1976                            SEQ 0029

   716					S^;*********************************************************************^
   717					;*KL10 PROCESSOR TYPE FLAG, 0=P0, 1=BBD NEW, 2=BBD OLD
   718					S^;*********************************************************************^
   719
   720	030516	000000	000000		KLTYP:	0
   721
   722					S^;*********************************************************************^
   723					;*SPECIAL USERS MUUO INTERCEPT INSTRUCTION
   724					S^;*********************************************************************^
   725
   726	030517	000000	000000		$$MUUO:	0	;IF NON-ZERO, XCT'D AT START OF MUUOER
   727
   728					S^;*********************************************************************^
   729					;*SPECIAL USERS USER MODE OUTPUT ERROR INTERCEPT INSTUCTION
   730					S^;*********************************************************************^
   731
   732	030520	000000	000000		$$OUTER:0	;IF NON-ZERO, XCT'D AT END OF USER MODE ERROR
   733
   734					S^;*********************************************************************^
   735					;*"SWITCH" CALL USAGE CONTROL
   736					S^;*********************************************************************^
   737
   738	030521	000000	000000		$$TOGGLE:0	;IF NON-ZERO, USE C(CONSW) FOR SWITCHES
   739
   740					S^;*********************************************************************^
   741					;*SPECIAL USERS ALTMODE SWITCH CALL INTERCEPT INSTRUCTIONS
   742					S^;*********************************************************************^
   743
   744	030522	000000	000000		$$TAX1:	0	;IF NON-ZERO, XCT'D AT START OF ALTMODE SWITCH CALL
   745	030523	000000	000000		$$TAX2:	0	;IF NON-ZERO, XCT'D AT END OF ALTMODE SWITCH CALL
   746
   747					S^;*********************************************************************^
   748					;*SPECIAL FUTURE EXPANSION ROOM
   749					;*IF ANY FIXED AREA TAGS ARE ADDED, REDUCE THE SIZE OF
   750					;*THIS BLOCK STATEMENT ACCORDINGLY.  THIS MUST BE DONE
   751					;*SO THAT PREVIOUS FIXED ASSIGNMENTS DO NOT CHANGE.
   752					S^;*********************************************************************^
   753
   754	030524					BLOCK	53	;HOPEFULLY THIS IS ENOUGH FOREVER
   755
   756					S^;*********************************************************************^
   757					;*END OF FIXED STORAGE
   758					S^;*********************************************************************^
   759
   760			030577			$ENDFX=<PLISTE+100>&<777700>-1
   761	030577					LOC	$ENDFX
   762	030577	000000	000000		ENDFIX:	0		;END OF FIXED STORAGEDBKCE	PDP-10 KI10 ADVANCED INSTRUCTION DIAGNOSTIC #5, VERSION 0,3 	MACRO %52(462) 13:32  9-AUG-76 PAGE 1
DBKCEM	MAC	28-MAY-76 11:21		*FIXED* FIXED CONTROL AND DISPATCH STORAGE, FEB 26,1976                            SEQ 0030

   763	030600	037 05 0 00 000002 	RENTR1:	DROPDV			;CLOSE LOGICAL OUTPUT FILE
   764	030601	040 00 0 00 040152 		CALL	[SIXBIT .EXIT.]
   765
   766	030602				PGMNAM:	ASCIZ	/
   767	030602	015 012 120 104 120 	PDP-10 KI10 ADVANCED INSTRUCTION DIAGNOSTIC #5 (DBKCE)
   768	030603	055 061 060 040 113
   769	030604	111 061 060 040 101
   770	030605	104 126 101 116 103
   771	030606	105 104 040 111 116
   772	030607	123 124 122 125 103
   773	030610	124 111 117 116 040
   774	030611	104 111 101 107 116
   775	030612	117 123 124 111 103
   776	030613	040 043 065 040 050
   777	030614	104 102 113 103 105
   778	030615	051 015 012 050 104 	(DOUBLE PRECISION DFAD, DFSB, DFMP, DFDV)
   779	030616	117 125 102 114 105
   780	030617	040 120 122 105 103
   781	030620	111 123 111 117 116
   782	030621	040 104 106 101 104
   783	030622	054 040 104 106 123
   784	030623	102 054 040 104 106
   785	030624	115 120 054 040 104
   786	030625	106 104 126 051 015
   787	030626	012 000 000 000 000 	/
   788
   789					;INITIALIZE SUBROUTINES
   790
   791	030627	265 00 0 00 030011 	START:	PGMINT
   792	030630	200 00 0 00 040153 		MOVE	[ASCIZ/CE/]
   793	030631	202 00 0 00 040066 		MOVEM	TLET		;INITIALIZE TEST LETTER
   794
   795	030632	254 00 0 00 030633 	STARTA:	JRST	CE00		;GO PERFORM DIAGNOSTICDBKCE	PDP-10 KI10 ADVANCED INSTRUCTION DIAGNOSTIC #5, VERSION 0,3 	MACRO %52(462) 13:32  9-AUG-76 PAGE 2
DBKCEM	MAC	28-MAY-76 11:21		CHECK NORMALIZATION FOR DOUBLE PRECISION FLOATING POINT NUMBERS                    SEQ 0031

   796					SUBTTL CHECK NORMALIZATION FOR DOUBLE PRECISION FLOATING POINT NUMBERS
   797
   798			000004			AC=4
   799	030633				CE00:	SAVEAC	(1,1)^
   800	030633	201 10 0 00 030633 		MOVEI	AC+4,.
   801	030634	202 10 0 00 030051 		MOVEM	AC+4,TESTPC	;SETUP SUBTEST PC
   802	030635	201 10 0 00 000010 		MOVEI	AC+4,<AC+4>&17	;INFORM ERROR ROUTINE WHICH
   803	030636	202 10 0 00 042257 		MOVEM	AC+4,ERRLOP#	;AC IS USED FOR ITERATION^
   804	030637	254 02 1 00 040154 		JRSTF	@[.+1]		;CLEAR ALL FLAGS
   805
   806			000101		T=101
   807	030640				S100:	DFARP	T,201400,0,0,0,577400,0,0,0,200400,0,0,0^
   808						DMOVE	AC,[201400,,0
   809	030640	120 04 0 00 040155 			0,,0]
   810						DFAD	AC,[577400,,0
   811	030641	110 04 0 00 040157 			0,,0]
   812	030642	312 04 0 00 040161 		CAME	AC,[200400,,0]
   813	030643	003 04 0 00 000101 		ER3	AC,T
   814	030644	312 05 0 00 040156 		CAME	AC+1,[0,,0]
   815	030645	004 05 0 00 000101 		ER4	AC+1,T
   816	030646	321 10 0 00 030640 		JUMPL	AC+4,.-^D6	;LOOP ON ERROR SWITCH^
   817
   818			000400			XX=400
   819			200400			ZZ=200400
   820
   821						REPEAT	^D8,
   822					<T=T+1
   823						XX=XX/2
   824						ZZ=ZZ-1000
   825						DFARP	T,200400+XX,0,0,0,577400,0,0,0,ZZ,0,0,0
   826					>
   827			000102		T=T+1
   828			000200			XX=XX/2
   829			177400			ZZ=ZZ-1000
   830						DFARP	T,200400+XX,0,0,0,577400,0,0,0,ZZ,0,0,0^
   831						DMOVE	AC,[200400+XX,,0
   832	030647	120 04 0 00 040162 			0,,0]
   833						DFAD	AC,[577400,,0
   834	030650	110 04 0 00 040157 			0,,0]
   835	030651	312 04 0 00 040164 		CAME	AC,[ZZ,,0]
   836	030652	003 04 0 00 000102 		ER3	AC,T
   837	030653	312 05 0 00 040156 		CAME	AC+1,[0,,0]
   838	030654	004 05 0 00 000102 		ER4	AC+1,T
   839	030655	321 10 0 00 030647 		JUMPL	AC+4,.-^D6	;LOOP ON ERROR SWITCH^
   840
   841			000103		T=T+1
   842			000100			XX=XX/2
   843			176400			ZZ=ZZ-1000
   844						DFARP	T,200400+XX,0,0,0,577400,0,0,0,ZZ,0,0,0^
   845						DMOVE	AC,[200400+XX,,0
   846	030656	120 04 0 00 040165 			0,,0]
   847						DFAD	AC,[577400,,0
   848	030657	110 04 0 00 040157 			0,,0]
   849	030660	312 04 0 00 040167 		CAME	AC,[ZZ,,0]
   850	030661	003 04 0 00 000103 		ER3	AC,TDBKCE	PDP-10 KI10 ADVANCED INSTRUCTION DIAGNOSTIC #5, VERSION 0,3 	MACRO %52(462) 13:32  9-AUG-76 PAGE 2-1
DBKCEM	MAC	28-MAY-76 11:21		CHECK NORMALIZATION FOR DOUBLE PRECISION FLOATING POINT NUMBERS                    SEQ 0032

   851	030662	312 05 0 00 040156 		CAME	AC+1,[0,,0]
   852	030663	004 05 0 00 000103 		ER4	AC+1,T
   853	030664	321 10 0 00 030656 		JUMPL	AC+4,.-^D6	;LOOP ON ERROR SWITCH^
   854
   855			000104		T=T+1
   856			000040			XX=XX/2
   857			175400			ZZ=ZZ-1000
   858						DFARP	T,200400+XX,0,0,0,577400,0,0,0,ZZ,0,0,0^
   859						DMOVE	AC,[200400+XX,,0
   860	030665	120 04 0 00 040170 			0,,0]
   861						DFAD	AC,[577400,,0
   862	030666	110 04 0 00 040157 			0,,0]
   863	030667	312 04 0 00 040172 		CAME	AC,[ZZ,,0]
   864	030670	003 04 0 00 000104 		ER3	AC,T
   865	030671	312 05 0 00 040156 		CAME	AC+1,[0,,0]
   866	030672	004 05 0 00 000104 		ER4	AC+1,T
   867	030673	321 10 0 00 030665 		JUMPL	AC+4,.-^D6	;LOOP ON ERROR SWITCH^
   868
   869			000105		T=T+1
   870			000020			XX=XX/2
   871			174400			ZZ=ZZ-1000
   872						DFARP	T,200400+XX,0,0,0,577400,0,0,0,ZZ,0,0,0^
   873						DMOVE	AC,[200400+XX,,0
   874	030674	120 04 0 00 040173 			0,,0]
   875						DFAD	AC,[577400,,0
   876	030675	110 04 0 00 040157 			0,,0]
   877	030676	312 04 0 00 040175 		CAME	AC,[ZZ,,0]
   878	030677	003 04 0 00 000105 		ER3	AC,T
   879	030700	312 05 0 00 040156 		CAME	AC+1,[0,,0]
   880	030701	004 05 0 00 000105 		ER4	AC+1,T
   881	030702	321 10 0 00 030674 		JUMPL	AC+4,.-^D6	;LOOP ON ERROR SWITCH^
   882
   883			000106		T=T+1
   884			000010			XX=XX/2
   885			173400			ZZ=ZZ-1000
   886						DFARP	T,200400+XX,0,0,0,577400,0,0,0,ZZ,0,0,0^
   887						DMOVE	AC,[200400+XX,,0
   888	030703	120 04 0 00 040176 			0,,0]
   889						DFAD	AC,[577400,,0
   890	030704	110 04 0 00 040157 			0,,0]
   891	030705	312 04 0 00 040200 		CAME	AC,[ZZ,,0]
   892	030706	003 04 0 00 000106 		ER3	AC,T
   893	030707	312 05 0 00 040156 		CAME	AC+1,[0,,0]
   894	030710	004 05 0 00 000106 		ER4	AC+1,T
   895	030711	321 10 0 00 030703 		JUMPL	AC+4,.-^D6	;LOOP ON ERROR SWITCH^
   896
   897			000107		T=T+1
   898			000004			XX=XX/2
   899			172400			ZZ=ZZ-1000
   900						DFARP	T,200400+XX,0,0,0,577400,0,0,0,ZZ,0,0,0^
   901						DMOVE	AC,[200400+XX,,0
   902	030712	120 04 0 00 040201 			0,,0]
   903						DFAD	AC,[577400,,0
   904	030713	110 04 0 00 040157 			0,,0]
   905	030714	312 04 0 00 040203 		CAME	AC,[ZZ,,0]DBKCE	PDP-10 KI10 ADVANCED INSTRUCTION DIAGNOSTIC #5, VERSION 0,3 	MACRO %52(462) 13:32  9-AUG-76 PAGE 2-2
DBKCEM	MAC	28-MAY-76 11:21		CHECK NORMALIZATION FOR DOUBLE PRECISION FLOATING POINT NUMBERS                    SEQ 0033

   906	030715	003 04 0 00 000107 		ER3	AC,T
   907	030716	312 05 0 00 040156 		CAME	AC+1,[0,,0]
   908	030717	004 05 0 00 000107 		ER4	AC+1,T
   909	030720	321 10 0 00 030712 		JUMPL	AC+4,.-^D6	;LOOP ON ERROR SWITCH^
   910
   911			000110		T=T+1
   912			000002			XX=XX/2
   913			171400			ZZ=ZZ-1000
   914						DFARP	T,200400+XX,0,0,0,577400,0,0,0,ZZ,0,0,0^
   915						DMOVE	AC,[200400+XX,,0
   916	030721	120 04 0 00 040204 			0,,0]
   917						DFAD	AC,[577400,,0
   918	030722	110 04 0 00 040157 			0,,0]
   919	030723	312 04 0 00 040206 		CAME	AC,[ZZ,,0]
   920	030724	003 04 0 00 000110 		ER3	AC,T
   921	030725	312 05 0 00 040156 		CAME	AC+1,[0,,0]
   922	030726	004 05 0 00 000110 		ER4	AC+1,T
   923	030727	321 10 0 00 030721 		JUMPL	AC+4,.-^D6	;LOOP ON ERROR SWITCH^
   924
   925			000111		T=T+1
   926			000001			XX=XX/2
   927			170400			ZZ=ZZ-1000
   928						DFARP	T,200400+XX,0,0,0,577400,0,0,0,ZZ,0,0,0^
   929						DMOVE	AC,[200400+XX,,0
   930	030730	120 04 0 00 040207 			0,,0]
   931						DFAD	AC,[577400,,0
   932	030731	110 04 0 00 040157 			0,,0]
   933	030732	312 04 0 00 040211 		CAME	AC,[ZZ,,0]
   934	030733	003 04 0 00 000111 		ER3	AC,T
   935	030734	312 05 0 00 040156 		CAME	AC+1,[0,,0]
   936	030735	004 05 0 00 000111 		ER4	AC+1,T
   937	030736	321 10 0 00 030730 		JUMPL	AC+4,.-^D6	;LOOP ON ERROR SWITCH^
   938
   939
   940		000001	000000			XX=1000000
   941
   942						REPEAT	^D18,
   943					<T=T+1
   944						XX=XX/2
   945						ZZ=ZZ-1000
   946						DFARP	T,200400,XX,0,0,577400,0,0,0,ZZ,0,0,0
   947					>
   948			000112		T=T+1
   949			400000			XX=XX/2
   950			167400			ZZ=ZZ-1000
   951						DFARP	T,200400,XX,0,0,577400,0,0,0,ZZ,0,0,0^
   952						DMOVE	AC,[200400,,XX
   953	030737	120 04 0 00 040212 			0,,0]
   954						DFAD	AC,[577400,,0
   955	030740	110 04 0 00 040157 			0,,0]
   956	030741	312 04 0 00 040214 		CAME	AC,[ZZ,,0]
   957	030742	003 04 0 00 000112 		ER3	AC,T
   958	030743	312 05 0 00 040156 		CAME	AC+1,[0,,0]
   959	030744	004 05 0 00 000112 		ER4	AC+1,T
   960	030745	321 10 0 00 030737 		JUMPL	AC+4,.-^D6	;LOOP ON ERROR SWITCH^DBKCE	PDP-10 KI10 ADVANCED INSTRUCTION DIAGNOSTIC #5, VERSION 0,3 	MACRO %52(462) 13:32  9-AUG-76 PAGE 2-3
DBKCEM	MAC	28-MAY-76 11:21		CHECK NORMALIZATION FOR DOUBLE PRECISION FLOATING POINT NUMBERS                    SEQ 0034

   961
   962			000113		T=T+1
   963			200000			XX=XX/2
   964			166400			ZZ=ZZ-1000
   965						DFARP	T,200400,XX,0,0,577400,0,0,0,ZZ,0,0,0^
   966						DMOVE	AC,[200400,,XX
   967	030746	120 04 0 00 040215 			0,,0]
   968						DFAD	AC,[577400,,0
   969	030747	110 04 0 00 040157 			0,,0]
   970	030750	312 04 0 00 040217 		CAME	AC,[ZZ,,0]
   971	030751	003 04 0 00 000113 		ER3	AC,T
   972	030752	312 05 0 00 040156 		CAME	AC+1,[0,,0]
   973	030753	004 05 0 00 000113 		ER4	AC+1,T
   974	030754	321 10 0 00 030746 		JUMPL	AC+4,.-^D6	;LOOP ON ERROR SWITCH^
   975
   976			000114		T=T+1
   977			100000			XX=XX/2
   978			165400			ZZ=ZZ-1000
   979						DFARP	T,200400,XX,0,0,577400,0,0,0,ZZ,0,0,0^
   980						DMOVE	AC,[200400,,XX
   981	030755	120 04 0 00 040220 			0,,0]
   982						DFAD	AC,[577400,,0
   983	030756	110 04 0 00 040157 			0,,0]
   984	030757	312 04 0 00 040222 		CAME	AC,[ZZ,,0]
   985	030760	003 04 0 00 000114 		ER3	AC,T
   986	030761	312 05 0 00 040156 		CAME	AC+1,[0,,0]
   987	030762	004 05 0 00 000114 		ER4	AC+1,T
   988	030763	321 10 0 00 030755 		JUMPL	AC+4,.-^D6	;LOOP ON ERROR SWITCH^
   989
   990			000115		T=T+1
   991			040000			XX=XX/2
   992			164400			ZZ=ZZ-1000
   993						DFARP	T,200400,XX,0,0,577400,0,0,0,ZZ,0,0,0^
   994						DMOVE	AC,[200400,,XX
   995	030764	120 04 0 00 040223 			0,,0]
   996						DFAD	AC,[577400,,0
   997	030765	110 04 0 00 040157 			0,,0]
   998	030766	312 04 0 00 040225 		CAME	AC,[ZZ,,0]
   999	030767	003 04 0 00 000115 		ER3	AC,T
  1000	030770	312 05 0 00 040156 		CAME	AC+1,[0,,0]
  1001	030771	004 05 0 00 000115 		ER4	AC+1,T
  1002	030772	321 10 0 00 030764 		JUMPL	AC+4,.-^D6	;LOOP ON ERROR SWITCH^
  1003
  1004			000116		T=T+1
  1005			020000			XX=XX/2
  1006			163400			ZZ=ZZ-1000
  1007						DFARP	T,200400,XX,0,0,577400,0,0,0,ZZ,0,0,0^
  1008						DMOVE	AC,[200400,,XX
  1009	030773	120 04 0 00 040226 			0,,0]
  1010						DFAD	AC,[577400,,0
  1011	030774	110 04 0 00 040157 			0,,0]
  1012	030775	312 04 0 00 040230 		CAME	AC,[ZZ,,0]
  1013	030776	003 04 0 00 000116 		ER3	AC,T
  1014	030777	312 05 0 00 040156 		CAME	AC+1,[0,,0]
  1015	031000	004 05 0 00 000116 		ER4	AC+1,TDBKCE	PDP-10 KI10 ADVANCED INSTRUCTION DIAGNOSTIC #5, VERSION 0,3 	MACRO %52(462) 13:32  9-AUG-76 PAGE 2-4
DBKCEM	MAC	28-MAY-76 11:21		CHECK NORMALIZATION FOR DOUBLE PRECISION FLOATING POINT NUMBERS                    SEQ 0035

  1016	031001	321 10 0 00 030773 		JUMPL	AC+4,.-^D6	;LOOP ON ERROR SWITCH^
  1017
  1018			000117		T=T+1
  1019			010000			XX=XX/2
  1020			162400			ZZ=ZZ-1000
  1021						DFARP	T,200400,XX,0,0,577400,0,0,0,ZZ,0,0,0^
  1022						DMOVE	AC,[200400,,XX
  1023	031002	120 04 0 00 040231 			0,,0]
  1024						DFAD	AC,[577400,,0
  1025	031003	110 04 0 00 040157 			0,,0]
  1026	031004	312 04 0 00 040233 		CAME	AC,[ZZ,,0]
  1027	031005	003 04 0 00 000117 		ER3	AC,T
  1028	031006	312 05 0 00 040156 		CAME	AC+1,[0,,0]
  1029	031007	004 05 0 00 000117 		ER4	AC+1,T
  1030	031010	321 10 0 00 031002 		JUMPL	AC+4,.-^D6	;LOOP ON ERROR SWITCH^
  1031
  1032			000120		T=T+1
  1033			004000			XX=XX/2
  1034			161400			ZZ=ZZ-1000
  1035						DFARP	T,200400,XX,0,0,577400,0,0,0,ZZ,0,0,0^
  1036						DMOVE	AC,[200400,,XX
  1037	031011	120 04 0 00 040234 			0,,0]
  1038						DFAD	AC,[577400,,0
  1039	031012	110 04 0 00 040157 			0,,0]
  1040	031013	312 04 0 00 040236 		CAME	AC,[ZZ,,0]
  1041	031014	003 04 0 00 000120 		ER3	AC,T
  1042	031015	312 05 0 00 040156 		CAME	AC+1,[0,,0]
  1043	031016	004 05 0 00 000120 		ER4	AC+1,T
  1044	031017	321 10 0 00 031011 		JUMPL	AC+4,.-^D6	;LOOP ON ERROR SWITCH^
  1045
  1046			000121		T=T+1
  1047			002000			XX=XX/2
  1048			160400			ZZ=ZZ-1000
  1049						DFARP	T,200400,XX,0,0,577400,0,0,0,ZZ,0,0,0^
  1050						DMOVE	AC,[200400,,XX
  1051	031020	120 04 0 00 040237 			0,,0]
  1052						DFAD	AC,[577400,,0
  1053	031021	110 04 0 00 040157 			0,,0]
  1054	031022	312 04 0 00 040241 		CAME	AC,[ZZ,,0]
  1055	031023	003 04 0 00 000121 		ER3	AC,T
  1056	031024	312 05 0 00 040156 		CAME	AC+1,[0,,0]
  1057	031025	004 05 0 00 000121 		ER4	AC+1,T
  1058	031026	321 10 0 00 031020 		JUMPL	AC+4,.-^D6	;LOOP ON ERROR SWITCH^
  1059
  1060			000122		T=T+1
  1061			001000			XX=XX/2
  1062			157400			ZZ=ZZ-1000
  1063						DFARP	T,200400,XX,0,0,577400,0,0,0,ZZ,0,0,0^
  1064						DMOVE	AC,[200400,,XX
  1065	031027	120 04 0 00 040242 			0,,0]
  1066						DFAD	AC,[577400,,0
  1067	031030	110 04 0 00 040157 			0,,0]
  1068	031031	312 04 0 00 040244 		CAME	AC,[ZZ,,0]
  1069	031032	003 04 0 00 000122 		ER3	AC,T
  1070	031033	312 05 0 00 040156 		CAME	AC+1,[0,,0]DBKCE	PDP-10 KI10 ADVANCED INSTRUCTION DIAGNOSTIC #5, VERSION 0,3 	MACRO %52(462) 13:32  9-AUG-76 PAGE 2-5
DBKCEM	MAC	28-MAY-76 11:21		CHECK NORMALIZATION FOR DOUBLE PRECISION FLOATING POINT NUMBERS                    SEQ 0036

  1071	031034	004 05 0 00 000122 		ER4	AC+1,T
  1072	031035	321 10 0 00 031027 		JUMPL	AC+4,.-^D6	;LOOP ON ERROR SWITCH^
  1073
  1074			000123		T=T+1
  1075			000400			XX=XX/2
  1076			156400			ZZ=ZZ-1000
  1077						DFARP	T,200400,XX,0,0,577400,0,0,0,ZZ,0,0,0^
  1078						DMOVE	AC,[200400,,XX
  1079	031036	120 04 0 00 040245 			0,,0]
  1080						DFAD	AC,[577400,,0
  1081	031037	110 04 0 00 040157 			0,,0]
  1082	031040	312 04 0 00 040247 		CAME	AC,[ZZ,,0]
  1083	031041	003 04 0 00 000123 		ER3	AC,T
  1084	031042	312 05 0 00 040156 		CAME	AC+1,[0,,0]
  1085	031043	004 05 0 00 000123 		ER4	AC+1,T
  1086	031044	321 10 0 00 031036 		JUMPL	AC+4,.-^D6	;LOOP ON ERROR SWITCH^
  1087
  1088			000124		T=T+1
  1089			000200			XX=XX/2
  1090			155400			ZZ=ZZ-1000
  1091						DFARP	T,200400,XX,0,0,577400,0,0,0,ZZ,0,0,0^
  1092						DMOVE	AC,[200400,,XX
  1093	031045	120 04 0 00 040250 			0,,0]
  1094						DFAD	AC,[577400,,0
  1095	031046	110 04 0 00 040157 			0,,0]
  1096	031047	312 04 0 00 040252 		CAME	AC,[ZZ,,0]
  1097	031050	003 04 0 00 000124 		ER3	AC,T
  1098	031051	312 05 0 00 040156 		CAME	AC+1,[0,,0]
  1099	031052	004 05 0 00 000124 		ER4	AC+1,T
  1100	031053	321 10 0 00 031045 		JUMPL	AC+4,.-^D6	;LOOP ON ERROR SWITCH^
  1101
  1102			000125		T=T+1
  1103			000100			XX=XX/2
  1104			154400			ZZ=ZZ-1000
  1105						DFARP	T,200400,XX,0,0,577400,0,0,0,ZZ,0,0,0^
  1106						DMOVE	AC,[200400,,XX
  1107	031054	120 04 0 00 040253 			0,,0]
  1108						DFAD	AC,[577400,,0
  1109	031055	110 04 0 00 040157 			0,,0]
  1110	031056	312 04 0 00 040255 		CAME	AC,[ZZ,,0]
  1111	031057	003 04 0 00 000125 		ER3	AC,T
  1112	031060	312 05 0 00 040156 		CAME	AC+1,[0,,0]
  1113	031061	004 05 0 00 000125 		ER4	AC+1,T
  1114	031062	321 10 0 00 031054 		JUMPL	AC+4,.-^D6	;LOOP ON ERROR SWITCH^
  1115
  1116			000126		T=T+1
  1117			000040			XX=XX/2
  1118			153400			ZZ=ZZ-1000
  1119						DFARP	T,200400,XX,0,0,577400,0,0,0,ZZ,0,0,0^
  1120						DMOVE	AC,[200400,,XX
  1121	031063	120 04 0 00 040256 			0,,0]
  1122						DFAD	AC,[577400,,0
  1123	031064	110 04 0 00 040157 			0,,0]
  1124	031065	312 04 0 00 040260 		CAME	AC,[ZZ,,0]
  1125	031066	003 04 0 00 000126 		ER3	AC,TDBKCE	PDP-10 KI10 ADVANCED INSTRUCTION DIAGNOSTIC #5, VERSION 0,3 	MACRO %52(462) 13:32  9-AUG-76 PAGE 2-6
DBKCEM	MAC	28-MAY-76 11:21		CHECK NORMALIZATION FOR DOUBLE PRECISION FLOATING POINT NUMBERS                    SEQ 0037

  1126	031067	312 05 0 00 040156 		CAME	AC+1,[0,,0]
  1127	031070	004 05 0 00 000126 		ER4	AC+1,T
  1128	031071	321 10 0 00 031063 		JUMPL	AC+4,.-^D6	;LOOP ON ERROR SWITCH^
  1129
  1130			000127		T=T+1
  1131			000020			XX=XX/2
  1132			152400			ZZ=ZZ-1000
  1133						DFARP	T,200400,XX,0,0,577400,0,0,0,ZZ,0,0,0^
  1134						DMOVE	AC,[200400,,XX
  1135	031072	120 04 0 00 040261 			0,,0]
  1136						DFAD	AC,[577400,,0
  1137	031073	110 04 0 00 040157 			0,,0]
  1138	031074	312 04 0 00 040263 		CAME	AC,[ZZ,,0]
  1139	031075	003 04 0 00 000127 		ER3	AC,T
  1140	031076	312 05 0 00 040156 		CAME	AC+1,[0,,0]
  1141	031077	004 05 0 00 000127 		ER4	AC+1,T
  1142	031100	321 10 0 00 031072 		JUMPL	AC+4,.-^D6	;LOOP ON ERROR SWITCH^
  1143
  1144			000130		T=T+1
  1145			000010			XX=XX/2
  1146			151400			ZZ=ZZ-1000
  1147						DFARP	T,200400,XX,0,0,577400,0,0,0,ZZ,0,0,0^
  1148						DMOVE	AC,[200400,,XX
  1149	031101	120 04 0 00 040264 			0,,0]
  1150						DFAD	AC,[577400,,0
  1151	031102	110 04 0 00 040157 			0,,0]
  1152	031103	312 04 0 00 040266 		CAME	AC,[ZZ,,0]
  1153	031104	003 04 0 00 000130 		ER3	AC,T
  1154	031105	312 05 0 00 040156 		CAME	AC+1,[0,,0]
  1155	031106	004 05 0 00 000130 		ER4	AC+1,T
  1156	031107	321 10 0 00 031101 		JUMPL	AC+4,.-^D6	;LOOP ON ERROR SWITCH^
  1157
  1158			000131		T=T+1
  1159			000004			XX=XX/2
  1160			150400			ZZ=ZZ-1000
  1161						DFARP	T,200400,XX,0,0,577400,0,0,0,ZZ,0,0,0^
  1162						DMOVE	AC,[200400,,XX
  1163	031110	120 04 0 00 040267 			0,,0]
  1164						DFAD	AC,[577400,,0
  1165	031111	110 04 0 00 040157 			0,,0]
  1166	031112	312 04 0 00 040271 		CAME	AC,[ZZ,,0]
  1167	031113	003 04 0 00 000131 		ER3	AC,T
  1168	031114	312 05 0 00 040156 		CAME	AC+1,[0,,0]
  1169	031115	004 05 0 00 000131 		ER4	AC+1,T
  1170	031116	321 10 0 00 031110 		JUMPL	AC+4,.-^D6	;LOOP ON ERROR SWITCH^
  1171
  1172			000132		T=T+1
  1173			000002			XX=XX/2
  1174			147400			ZZ=ZZ-1000
  1175						DFARP	T,200400,XX,0,0,577400,0,0,0,ZZ,0,0,0^
  1176						DMOVE	AC,[200400,,XX
  1177	031117	120 04 0 00 040272 			0,,0]
  1178						DFAD	AC,[577400,,0
  1179	031120	110 04 0 00 040157 			0,,0]
  1180	031121	312 04 0 00 040274 		CAME	AC,[ZZ,,0]DBKCE	PDP-10 KI10 ADVANCED INSTRUCTION DIAGNOSTIC #5, VERSION 0,3 	MACRO %52(462) 13:32  9-AUG-76 PAGE 2-7
DBKCEM	MAC	28-MAY-76 11:21		CHECK NORMALIZATION FOR DOUBLE PRECISION FLOATING POINT NUMBERS                    SEQ 0038

  1181	031122	003 04 0 00 000132 		ER3	AC,T
  1182	031123	312 05 0 00 040156 		CAME	AC+1,[0,,0]
  1183	031124	004 05 0 00 000132 		ER4	AC+1,T
  1184	031125	321 10 0 00 031117 		JUMPL	AC+4,.-^D6	;LOOP ON ERROR SWITCH^
  1185
  1186			000133		T=T+1
  1187			000001			XX=XX/2
  1188			146400			ZZ=ZZ-1000
  1189						DFARP	T,200400,XX,0,0,577400,0,0,0,ZZ,0,0,0^
  1190						DMOVE	AC,[200400,,XX
  1191	031126	120 04 0 00 040275 			0,,0]
  1192						DFAD	AC,[577400,,0
  1193	031127	110 04 0 00 040157 			0,,0]
  1194	031130	312 04 0 00 040277 		CAME	AC,[ZZ,,0]
  1195	031131	003 04 0 00 000133 		ER3	AC,T
  1196	031132	312 05 0 00 040156 		CAME	AC+1,[0,,0]
  1197	031133	004 05 0 00 000133 		ER4	AC+1,T
  1198	031134	321 10 0 00 031126 		JUMPL	AC+4,.-^D6	;LOOP ON ERROR SWITCH^
  1199
  1200
  1201			400000			XX=400000
  1202
  1203						REPEAT	^D17,
  1204					<T=T+1
  1205						XX=XX/2
  1206						ZZ=ZZ-1000
  1207						DFARP	T,200400,0,XX,0,577400,0,0,0,ZZ,0,0,0
  1208					>
  1209			000134		T=T+1
  1210			200000			XX=XX/2
  1211			145400			ZZ=ZZ-1000
  1212						DFARP	T,200400,0,XX,0,577400,0,0,0,ZZ,0,0,0^
  1213						DMOVE	AC,[200400,,0
  1214	031135	120 04 0 00 040300 			XX,,0]
  1215						DFAD	AC,[577400,,0
  1216	031136	110 04 0 00 040157 			0,,0]
  1217	031137	312 04 0 00 040302 		CAME	AC,[ZZ,,0]
  1218	031140	003 04 0 00 000134 		ER3	AC,T
  1219	031141	312 05 0 00 040156 		CAME	AC+1,[0,,0]
  1220	031142	004 05 0 00 000134 		ER4	AC+1,T
  1221	031143	321 10 0 00 031135 		JUMPL	AC+4,.-^D6	;LOOP ON ERROR SWITCH^
  1222
  1223			000135		T=T+1
  1224			100000			XX=XX/2
  1225			144400			ZZ=ZZ-1000
  1226						DFARP	T,200400,0,XX,0,577400,0,0,0,ZZ,0,0,0^
  1227						DMOVE	AC,[200400,,0
  1228	031144	120 04 0 00 040303 			XX,,0]
  1229						DFAD	AC,[577400,,0
  1230	031145	110 04 0 00 040157 			0,,0]
  1231	031146	312 04 0 00 040305 		CAME	AC,[ZZ,,0]
  1232	031147	003 04 0 00 000135 		ER3	AC,T
  1233	031150	312 05 0 00 040156 		CAME	AC+1,[0,,0]
  1234	031151	004 05 0 00 000135 		ER4	AC+1,T
  1235	031152	321 10 0 00 031144 		JUMPL	AC+4,.-^D6	;LOOP ON ERROR SWITCH^DBKCE	PDP-10 KI10 ADVANCED INSTRUCTION DIAGNOSTIC #5, VERSION 0,3 	MACRO %52(462) 13:32  9-AUG-76 PAGE 2-8
DBKCEM	MAC	28-MAY-76 11:21		CHECK NORMALIZATION FOR DOUBLE PRECISION FLOATING POINT NUMBERS                    SEQ 0039

  1236
  1237			000136		T=T+1
  1238			040000			XX=XX/2
  1239			143400			ZZ=ZZ-1000
  1240						DFARP	T,200400,0,XX,0,577400,0,0,0,ZZ,0,0,0^
  1241						DMOVE	AC,[200400,,0
  1242	031153	120 04 0 00 040306 			XX,,0]
  1243						DFAD	AC,[577400,,0
  1244	031154	110 04 0 00 040157 			0,,0]
  1245	031155	312 04 0 00 040310 		CAME	AC,[ZZ,,0]
  1246	031156	003 04 0 00 000136 		ER3	AC,T
  1247	031157	312 05 0 00 040156 		CAME	AC+1,[0,,0]
  1248	031160	004 05 0 00 000136 		ER4	AC+1,T
  1249	031161	321 10 0 00 031153 		JUMPL	AC+4,.-^D6	;LOOP ON ERROR SWITCH^
  1250
  1251			000137		T=T+1
  1252			020000			XX=XX/2
  1253			142400			ZZ=ZZ-1000
  1254						DFARP	T,200400,0,XX,0,577400,0,0,0,ZZ,0,0,0^
  1255						DMOVE	AC,[200400,,0
  1256	031162	120 04 0 00 040311 			XX,,0]
  1257						DFAD	AC,[577400,,0
  1258	031163	110 04 0 00 040157 			0,,0]
  1259	031164	312 04 0 00 040313 		CAME	AC,[ZZ,,0]
  1260	031165	003 04 0 00 000137 		ER3	AC,T
  1261	031166	312 05 0 00 040156 		CAME	AC+1,[0,,0]
  1262	031167	004 05 0 00 000137 		ER4	AC+1,T
  1263	031170	321 10 0 00 031162 		JUMPL	AC+4,.-^D6	;LOOP ON ERROR SWITCH^
  1264
  1265			000140		T=T+1
  1266			010000			XX=XX/2
  1267			141400			ZZ=ZZ-1000
  1268						DFARP	T,200400,0,XX,0,577400,0,0,0,ZZ,0,0,0^
  1269						DMOVE	AC,[200400,,0
  1270	031171	120 04 0 00 040314 			XX,,0]
  1271						DFAD	AC,[577400,,0
  1272	031172	110 04 0 00 040157 			0,,0]
  1273	031173	312 04 0 00 040316 		CAME	AC,[ZZ,,0]
  1274	031174	003 04 0 00 000140 		ER3	AC,T
  1275	031175	312 05 0 00 040156 		CAME	AC+1,[0,,0]
  1276	031176	004 05 0 00 000140 		ER4	AC+1,T
  1277	031177	321 10 0 00 031171 		JUMPL	AC+4,.-^D6	;LOOP ON ERROR SWITCH^
  1278
  1279			000141		T=T+1
  1280			004000			XX=XX/2
  1281			140400			ZZ=ZZ-1000
  1282						DFARP	T,200400,0,XX,0,577400,0,0,0,ZZ,0,0,0^
  1283						DMOVE	AC,[200400,,0
  1284	031200	120 04 0 00 040317 			XX,,0]
  1285						DFAD	AC,[577400,,0
  1286	031201	110 04 0 00 040157 			0,,0]
  1287	031202	312 04 0 00 040321 		CAME	AC,[ZZ,,0]
  1288	031203	003 04 0 00 000141 		ER3	AC,T
  1289	031204	312 05 0 00 040156 		CAME	AC+1,[0,,0]
  1290	031205	004 05 0 00 000141 		ER4	AC+1,TDBKCE	PDP-10 KI10 ADVANCED INSTRUCTION DIAGNOSTIC #5, VERSION 0,3 	MACRO %52(462) 13:32  9-AUG-76 PAGE 2-9
DBKCEM	MAC	28-MAY-76 11:21		CHECK NORMALIZATION FOR DOUBLE PRECISION FLOATING POINT NUMBERS                    SEQ 0040

  1291	031206	321 10 0 00 031200 		JUMPL	AC+4,.-^D6	;LOOP ON ERROR SWITCH^
  1292
  1293			000142		T=T+1
  1294			002000			XX=XX/2
  1295			137400			ZZ=ZZ-1000
  1296						DFARP	T,200400,0,XX,0,577400,0,0,0,ZZ,0,0,0^
  1297						DMOVE	AC,[200400,,0
  1298	031207	120 04 0 00 040322 			XX,,0]
  1299						DFAD	AC,[577400,,0
  1300	031210	110 04 0 00 040157 			0,,0]
  1301	031211	312 04 0 00 040324 		CAME	AC,[ZZ,,0]
  1302	031212	003 04 0 00 000142 		ER3	AC,T
  1303	031213	312 05 0 00 040156 		CAME	AC+1,[0,,0]
  1304	031214	004 05 0 00 000142 		ER4	AC+1,T
  1305	031215	321 10 0 00 031207 		JUMPL	AC+4,.-^D6	;LOOP ON ERROR SWITCH^
  1306
  1307			000143		T=T+1
  1308			001000			XX=XX/2
  1309			136400			ZZ=ZZ-1000
  1310						DFARP	T,200400,0,XX,0,577400,0,0,0,ZZ,0,0,0^
  1311						DMOVE	AC,[200400,,0
  1312	031216	120 04 0 00 040325 			XX,,0]
  1313						DFAD	AC,[577400,,0
  1314	031217	110 04 0 00 040157 			0,,0]
  1315	031220	312 04 0 00 040327 		CAME	AC,[ZZ,,0]
  1316	031221	003 04 0 00 000143 		ER3	AC,T
  1317	031222	312 05 0 00 040156 		CAME	AC+1,[0,,0]
  1318	031223	004 05 0 00 000143 		ER4	AC+1,T
  1319	031224	321 10 0 00 031216 		JUMPL	AC+4,.-^D6	;LOOP ON ERROR SWITCH^
  1320
  1321			000144		T=T+1
  1322			000400			XX=XX/2
  1323			135400			ZZ=ZZ-1000
  1324						DFARP	T,200400,0,XX,0,577400,0,0,0,ZZ,0,0,0^
  1325						DMOVE	AC,[200400,,0
  1326	031225	120 04 0 00 040330 			XX,,0]
  1327						DFAD	AC,[577400,,0
  1328	031226	110 04 0 00 040157 			0,,0]
  1329	031227	312 04 0 00 040332 		CAME	AC,[ZZ,,0]
  1330	031230	003 04 0 00 000144 		ER3	AC,T
  1331	031231	312 05 0 00 040156 		CAME	AC+1,[0,,0]
  1332	031232	004 05 0 00 000144 		ER4	AC+1,T
  1333	031233	321 10 0 00 031225 		JUMPL	AC+4,.-^D6	;LOOP ON ERROR SWITCH^
  1334
  1335			000145		T=T+1
  1336			000200			XX=XX/2
  1337			134400			ZZ=ZZ-1000
  1338						DFARP	T,200400,0,XX,0,577400,0,0,0,ZZ,0,0,0^
  1339						DMOVE	AC,[200400,,0
  1340	031234	120 04 0 00 040333 			XX,,0]
  1341						DFAD	AC,[577400,,0
  1342	031235	110 04 0 00 040157 			0,,0]
  1343	031236	312 04 0 00 040335 		CAME	AC,[ZZ,,0]
  1344	031237	003 04 0 00 000145 		ER3	AC,T
  1345	031240	312 05 0 00 040156 		CAME	AC+1,[0,,0]DBKCE	PDP-10 KI10 ADVANCED INSTRUCTION DIAGNOSTIC #5, VERSION 0,3 	MACRO %52(462) 13:32  9-AUG-76 PAGE 2-10
DBKCEM	MAC	28-MAY-76 11:21		CHECK NORMALIZATION FOR DOUBLE PRECISION FLOATING POINT NUMBERS                    SEQ 0041

  1346	031241	004 05 0 00 000145 		ER4	AC+1,T
  1347	031242	321 10 0 00 031234 		JUMPL	AC+4,.-^D6	;LOOP ON ERROR SWITCH^
  1348
  1349			000146		T=T+1
  1350			000100			XX=XX/2
  1351			133400			ZZ=ZZ-1000
  1352						DFARP	T,200400,0,XX,0,577400,0,0,0,ZZ,0,0,0^
  1353						DMOVE	AC,[200400,,0
  1354	031243	120 04 0 00 040336 			XX,,0]
  1355						DFAD	AC,[577400,,0
  1356	031244	110 04 0 00 040157 			0,,0]
  1357	031245	312 04 0 00 040340 		CAME	AC,[ZZ,,0]
  1358	031246	003 04 0 00 000146 		ER3	AC,T
  1359	031247	312 05 0 00 040156 		CAME	AC+1,[0,,0]
  1360	031250	004 05 0 00 000146 		ER4	AC+1,T
  1361	031251	321 10 0 00 031243 		JUMPL	AC+4,.-^D6	;LOOP ON ERROR SWITCH^
  1362
  1363			000147		T=T+1
  1364			000040			XX=XX/2
  1365			132400			ZZ=ZZ-1000
  1366						DFARP	T,200400,0,XX,0,577400,0,0,0,ZZ,0,0,0^
  1367						DMOVE	AC,[200400,,0
  1368	031252	120 04 0 00 040341 			XX,,0]
  1369						DFAD	AC,[577400,,0
  1370	031253	110 04 0 00 040157 			0,,0]
  1371	031254	312 04 0 00 040343 		CAME	AC,[ZZ,,0]
  1372	031255	003 04 0 00 000147 		ER3	AC,T
  1373	031256	312 05 0 00 040156 		CAME	AC+1,[0,,0]
  1374	031257	004 05 0 00 000147 		ER4	AC+1,T
  1375	031260	321 10 0 00 031252 		JUMPL	AC+4,.-^D6	;LOOP ON ERROR SWITCH^
  1376
  1377			000150		T=T+1
  1378			000020			XX=XX/2
  1379			131400			ZZ=ZZ-1000
  1380						DFARP	T,200400,0,XX,0,577400,0,0,0,ZZ,0,0,0^
  1381						DMOVE	AC,[200400,,0
  1382	031261	120 04 0 00 040344 			XX,,0]
  1383						DFAD	AC,[577400,,0
  1384	031262	110 04 0 00 040157 			0,,0]
  1385	031263	312 04 0 00 040346 		CAME	AC,[ZZ,,0]
  1386	031264	003 04 0 00 000150 		ER3	AC,T
  1387	031265	312 05 0 00 040156 		CAME	AC+1,[0,,0]
  1388	031266	004 05 0 00 000150 		ER4	AC+1,T
  1389	031267	321 10 0 00 031261 		JUMPL	AC+4,.-^D6	;LOOP ON ERROR SWITCH^
  1390
  1391			000151		T=T+1
  1392			000010			XX=XX/2
  1393			130400			ZZ=ZZ-1000
  1394						DFARP	T,200400,0,XX,0,577400,0,0,0,ZZ,0,0,0^
  1395						DMOVE	AC,[200400,,0
  1396	031270	120 04 0 00 040347 			XX,,0]
  1397						DFAD	AC,[577400,,0
  1398	031271	110 04 0 00 040157 			0,,0]
  1399	031272	312 04 0 00 040351 		CAME	AC,[ZZ,,0]
  1400	031273	003 04 0 00 000151 		ER3	AC,TDBKCE	PDP-10 KI10 ADVANCED INSTRUCTION DIAGNOSTIC #5, VERSION 0,3 	MACRO %52(462) 13:32  9-AUG-76 PAGE 2-11
DBKCEM	MAC	28-MAY-76 11:21		CHECK NORMALIZATION FOR DOUBLE PRECISION FLOATING POINT NUMBERS                    SEQ 0042

  1401	031274	312 05 0 00 040156 		CAME	AC+1,[0,,0]
  1402	031275	004 05 0 00 000151 		ER4	AC+1,T
  1403	031276	321 10 0 00 031270 		JUMPL	AC+4,.-^D6	;LOOP ON ERROR SWITCH^
  1404
  1405			000152		T=T+1
  1406			000004			XX=XX/2
  1407			127400			ZZ=ZZ-1000
  1408						DFARP	T,200400,0,XX,0,577400,0,0,0,ZZ,0,0,0^
  1409						DMOVE	AC,[200400,,0
  1410	031277	120 04 0 00 040352 			XX,,0]
  1411						DFAD	AC,[577400,,0
  1412	031300	110 04 0 00 040157 			0,,0]
  1413	031301	312 04 0 00 040354 		CAME	AC,[ZZ,,0]
  1414	031302	003 04 0 00 000152 		ER3	AC,T
  1415	031303	312 05 0 00 040156 		CAME	AC+1,[0,,0]
  1416	031304	004 05 0 00 000152 		ER4	AC+1,T
  1417	031305	321 10 0 00 031277 		JUMPL	AC+4,.-^D6	;LOOP ON ERROR SWITCH^
  1418
  1419			000153		T=T+1
  1420			000002			XX=XX/2
  1421			126400			ZZ=ZZ-1000
  1422						DFARP	T,200400,0,XX,0,577400,0,0,0,ZZ,0,0,0^
  1423						DMOVE	AC,[200400,,0
  1424	031306	120 04 0 00 040355 			XX,,0]
  1425						DFAD	AC,[577400,,0
  1426	031307	110 04 0 00 040157 			0,,0]
  1427	031310	312 04 0 00 040357 		CAME	AC,[ZZ,,0]
  1428	031311	003 04 0 00 000153 		ER3	AC,T
  1429	031312	312 05 0 00 040156 		CAME	AC+1,[0,,0]
  1430	031313	004 05 0 00 000153 		ER4	AC+1,T
  1431	031314	321 10 0 00 031306 		JUMPL	AC+4,.-^D6	;LOOP ON ERROR SWITCH^
  1432
  1433			000154		T=T+1
  1434			000001			XX=XX/2
  1435			125400			ZZ=ZZ-1000
  1436						DFARP	T,200400,0,XX,0,577400,0,0,0,ZZ,0,0,0^
  1437						DMOVE	AC,[200400,,0
  1438	031315	120 04 0 00 040360 			XX,,0]
  1439						DFAD	AC,[577400,,0
  1440	031316	110 04 0 00 040157 			0,,0]
  1441	031317	312 04 0 00 040362 		CAME	AC,[ZZ,,0]
  1442	031320	003 04 0 00 000154 		ER3	AC,T
  1443	031321	312 05 0 00 040156 		CAME	AC+1,[0,,0]
  1444	031322	004 05 0 00 000154 		ER4	AC+1,T
  1445	031323	321 10 0 00 031315 		JUMPL	AC+4,.-^D6	;LOOP ON ERROR SWITCH^
  1446
  1447
  1448		000001	000000			XX=1000000
  1449
  1450						REPEAT	^D18,
  1451					<T=T+1
  1452						XX=XX/2
  1453						ZZ=ZZ-1000
  1454						DFARP	T,200400,0,0,XX,577400,0,0,0,ZZ,0,0,0
  1455					>DBKCE	PDP-10 KI10 ADVANCED INSTRUCTION DIAGNOSTIC #5, VERSION 0,3 	MACRO %52(462) 13:32  9-AUG-76 PAGE 2-12
DBKCEM	MAC	28-MAY-76 11:21		CHECK NORMALIZATION FOR DOUBLE PRECISION FLOATING POINT NUMBERS                    SEQ 0043

  1456			000155		T=T+1
  1457			400000			XX=XX/2
  1458			124400			ZZ=ZZ-1000
  1459						DFARP	T,200400,0,0,XX,577400,0,0,0,ZZ,0,0,0^
  1460						DMOVE	AC,[200400,,0
  1461	031324	120 04 0 00 040363 			0,,XX]
  1462						DFAD	AC,[577400,,0
  1463	031325	110 04 0 00 040157 			0,,0]
  1464	031326	312 04 0 00 040365 		CAME	AC,[ZZ,,0]
  1465	031327	003 04 0 00 000155 		ER3	AC,T
  1466	031330	312 05 0 00 040156 		CAME	AC+1,[0,,0]
  1467	031331	004 05 0 00 000155 		ER4	AC+1,T
  1468	031332	321 10 0 00 031324 		JUMPL	AC+4,.-^D6	;LOOP ON ERROR SWITCH^
  1469
  1470			000156		T=T+1
  1471			200000			XX=XX/2
  1472			123400			ZZ=ZZ-1000
  1473						DFARP	T,200400,0,0,XX,577400,0,0,0,ZZ,0,0,0^
  1474						DMOVE	AC,[200400,,0
  1475	031333	120 04 0 00 040366 			0,,XX]
  1476						DFAD	AC,[577400,,0
  1477	031334	110 04 0 00 040157 			0,,0]
  1478	031335	312 04 0 00 040370 		CAME	AC,[ZZ,,0]
  1479	031336	003 04 0 00 000156 		ER3	AC,T
  1480	031337	312 05 0 00 040156 		CAME	AC+1,[0,,0]
  1481	031340	004 05 0 00 000156 		ER4	AC+1,T
  1482	031341	321 10 0 00 031333 		JUMPL	AC+4,.-^D6	;LOOP ON ERROR SWITCH^
  1483
  1484			000157		T=T+1
  1485			100000			XX=XX/2
  1486			122400			ZZ=ZZ-1000
  1487						DFARP	T,200400,0,0,XX,577400,0,0,0,ZZ,0,0,0^
  1488						DMOVE	AC,[200400,,0
  1489	031342	120 04 0 00 040371 			0,,XX]
  1490						DFAD	AC,[577400,,0
  1491	031343	110 04 0 00 040157 			0,,0]
  1492	031344	312 04 0 00 040373 		CAME	AC,[ZZ,,0]
  1493	031345	003 04 0 00 000157 		ER3	AC,T
  1494	031346	312 05 0 00 040156 		CAME	AC+1,[0,,0]
  1495	031347	004 05 0 00 000157 		ER4	AC+1,T
  1496	031350	321 10 0 00 031342 		JUMPL	AC+4,.-^D6	;LOOP ON ERROR SWITCH^
  1497
  1498			000160		T=T+1
  1499			040000			XX=XX/2
  1500			121400			ZZ=ZZ-1000
  1501						DFARP	T,200400,0,0,XX,577400,0,0,0,ZZ,0,0,0^
  1502						DMOVE	AC,[200400,,0
  1503	031351	120 04 0 00 040374 			0,,XX]
  1504						DFAD	AC,[577400,,0
  1505	031352	110 04 0 00 040157 			0,,0]
  1506	031353	312 04 0 00 040376 		CAME	AC,[ZZ,,0]
  1507	031354	003 04 0 00 000160 		ER3	AC,T
  1508	031355	312 05 0 00 040156 		CAME	AC+1,[0,,0]
  1509	031356	004 05 0 00 000160 		ER4	AC+1,T
  1510	031357	321 10 0 00 031351 		JUMPL	AC+4,.-^D6	;LOOP ON ERROR SWITCH^DBKCE	PDP-10 KI10 ADVANCED INSTRUCTION DIAGNOSTIC #5, VERSION 0,3 	MACRO %52(462) 13:32  9-AUG-76 PAGE 2-13
DBKCEM	MAC	28-MAY-76 11:21		CHECK NORMALIZATION FOR DOUBLE PRECISION FLOATING POINT NUMBERS                    SEQ 0044

  1511
  1512			000161		T=T+1
  1513			020000			XX=XX/2
  1514			120400			ZZ=ZZ-1000
  1515						DFARP	T,200400,0,0,XX,577400,0,0,0,ZZ,0,0,0^
  1516						DMOVE	AC,[200400,,0
  1517	031360	120 04 0 00 040377 			0,,XX]
  1518						DFAD	AC,[577400,,0
  1519	031361	110 04 0 00 040157 			0,,0]
  1520	031362	312 04 0 00 040401 		CAME	AC,[ZZ,,0]
  1521	031363	003 04 0 00 000161 		ER3	AC,T
  1522	031364	312 05 0 00 040156 		CAME	AC+1,[0,,0]
  1523	031365	004 05 0 00 000161 		ER4	AC+1,T
  1524	031366	321 10 0 00 031360 		JUMPL	AC+4,.-^D6	;LOOP ON ERROR SWITCH^
  1525
  1526			000162		T=T+1
  1527			010000			XX=XX/2
  1528			117400			ZZ=ZZ-1000
  1529						DFARP	T,200400,0,0,XX,577400,0,0,0,ZZ,0,0,0^
  1530						DMOVE	AC,[200400,,0
  1531	031367	120 04 0 00 040402 			0,,XX]
  1532						DFAD	AC,[577400,,0
  1533	031370	110 04 0 00 040157 			0,,0]
  1534	031371	312 04 0 00 040404 		CAME	AC,[ZZ,,0]
  1535	031372	003 04 0 00 000162 		ER3	AC,T
  1536	031373	312 05 0 00 040156 		CAME	AC+1,[0,,0]
  1537	031374	004 05 0 00 000162 		ER4	AC+1,T
  1538	031375	321 10 0 00 031367 		JUMPL	AC+4,.-^D6	;LOOP ON ERROR SWITCH^
  1539
  1540			000163		T=T+1
  1541			004000			XX=XX/2
  1542			116400			ZZ=ZZ-1000
  1543						DFARP	T,200400,0,0,XX,577400,0,0,0,ZZ,0,0,0^
  1544						DMOVE	AC,[200400,,0
  1545	031376	120 04 0 00 040405 			0,,XX]
  1546						DFAD	AC,[577400,,0
  1547	031377	110 04 0 00 040157 			0,,0]
  1548	031400	312 04 0 00 040407 		CAME	AC,[ZZ,,0]
  1549	031401	003 04 0 00 000163 		ER3	AC,T
  1550	031402	312 05 0 00 040156 		CAME	AC+1,[0,,0]
  1551	031403	004 05 0 00 000163 		ER4	AC+1,T
  1552	031404	321 10 0 00 031376 		JUMPL	AC+4,.-^D6	;LOOP ON ERROR SWITCH^
  1553
  1554			000164		T=T+1
  1555			002000			XX=XX/2
  1556			115400			ZZ=ZZ-1000
  1557						DFARP	T,200400,0,0,XX,577400,0,0,0,ZZ,0,0,0^
  1558						DMOVE	AC,[200400,,0
  1559	031405	120 04 0 00 040410 			0,,XX]
  1560						DFAD	AC,[577400,,0
  1561	031406	110 04 0 00 040157 			0,,0]
  1562	031407	312 04 0 00 040412 		CAME	AC,[ZZ,,0]
  1563	031410	003 04 0 00 000164 		ER3	AC,T
  1564	031411	312 05 0 00 040156 		CAME	AC+1,[0,,0]
  1565	031412	004 05 0 00 000164 		ER4	AC+1,TDBKCE	PDP-10 KI10 ADVANCED INSTRUCTION DIAGNOSTIC #5, VERSION 0,3 	MACRO %52(462) 13:32  9-AUG-76 PAGE 2-14
DBKCEM	MAC	28-MAY-76 11:21		CHECK NORMALIZATION FOR DOUBLE PRECISION FLOATING POINT NUMBERS                    SEQ 0045

  1566	031413	321 10 0 00 031405 		JUMPL	AC+4,.-^D6	;LOOP ON ERROR SWITCH^
  1567
  1568			000165		T=T+1
  1569			001000			XX=XX/2
  1570			114400			ZZ=ZZ-1000
  1571						DFARP	T,200400,0,0,XX,577400,0,0,0,ZZ,0,0,0^
  1572						DMOVE	AC,[200400,,0
  1573	031414	120 04 0 00 040413 			0,,XX]
  1574						DFAD	AC,[577400,,0
  1575	031415	110 04 0 00 040157 			0,,0]
  1576	031416	312 04 0 00 040415 		CAME	AC,[ZZ,,0]
  1577	031417	003 04 0 00 000165 		ER3	AC,T
  1578	031420	312 05 0 00 040156 		CAME	AC+1,[0,,0]
  1579	031421	004 05 0 00 000165 		ER4	AC+1,T
  1580	031422	321 10 0 00 031414 		JUMPL	AC+4,.-^D6	;LOOP ON ERROR SWITCH^
  1581
  1582			000166		T=T+1
  1583			000400			XX=XX/2
  1584			113400			ZZ=ZZ-1000
  1585						DFARP	T,200400,0,0,XX,577400,0,0,0,ZZ,0,0,0^
  1586						DMOVE	AC,[200400,,0
  1587	031423	120 04 0 00 040416 			0,,XX]
  1588						DFAD	AC,[577400,,0
  1589	031424	110 04 0 00 040157 			0,,0]
  1590	031425	312 04 0 00 040420 		CAME	AC,[ZZ,,0]
  1591	031426	003 04 0 00 000166 		ER3	AC,T
  1592	031427	312 05 0 00 040156 		CAME	AC+1,[0,,0]
  1593	031430	004 05 0 00 000166 		ER4	AC+1,T
  1594	031431	321 10 0 00 031423 		JUMPL	AC+4,.-^D6	;LOOP ON ERROR SWITCH^
  1595
  1596			000167		T=T+1
  1597			000200			XX=XX/2
  1598			112400			ZZ=ZZ-1000
  1599						DFARP	T,200400,0,0,XX,577400,0,0,0,ZZ,0,0,0^
  1600						DMOVE	AC,[200400,,0
  1601	031432	120 04 0 00 040421 			0,,XX]
  1602						DFAD	AC,[577400,,0
  1603	031433	110 04 0 00 040157 			0,,0]
  1604	031434	312 04 0 00 040423 		CAME	AC,[ZZ,,0]
  1605	031435	003 04 0 00 000167 		ER3	AC,T
  1606	031436	312 05 0 00 040156 		CAME	AC+1,[0,,0]
  1607	031437	004 05 0 00 000167 		ER4	AC+1,T
  1608	031440	321 10 0 00 031432 		JUMPL	AC+4,.-^D6	;LOOP ON ERROR SWITCH^
  1609
  1610			000170		T=T+1
  1611			000100			XX=XX/2
  1612			111400			ZZ=ZZ-1000
  1613						DFARP	T,200400,0,0,XX,577400,0,0,0,ZZ,0,0,0^
  1614						DMOVE	AC,[200400,,0
  1615	031441	120 04 0 00 040424 			0,,XX]
  1616						DFAD	AC,[577400,,0
  1617	031442	110 04 0 00 040157 			0,,0]
  1618	031443	312 04 0 00 040426 		CAME	AC,[ZZ,,0]
  1619	031444	003 04 0 00 000170 		ER3	AC,T
  1620	031445	312 05 0 00 040156 		CAME	AC+1,[0,,0]DBKCE	PDP-10 KI10 ADVANCED INSTRUCTION DIAGNOSTIC #5, VERSION 0,3 	MACRO %52(462) 13:32  9-AUG-76 PAGE 2-15
DBKCEM	MAC	28-MAY-76 11:21		CHECK NORMALIZATION FOR DOUBLE PRECISION FLOATING POINT NUMBERS                    SEQ 0046

  1621	031446	004 05 0 00 000170 		ER4	AC+1,T
  1622	031447	321 10 0 00 031441 		JUMPL	AC+4,.-^D6	;LOOP ON ERROR SWITCH^
  1623
  1624			000171		T=T+1
  1625			000040			XX=XX/2
  1626			110400			ZZ=ZZ-1000
  1627						DFARP	T,200400,0,0,XX,577400,0,0,0,ZZ,0,0,0^
  1628						DMOVE	AC,[200400,,0
  1629	031450	120 04 0 00 040427 			0,,XX]
  1630						DFAD	AC,[577400,,0
  1631	031451	110 04 0 00 040157 			0,,0]
  1632	031452	312 04 0 00 040431 		CAME	AC,[ZZ,,0]
  1633	031453	003 04 0 00 000171 		ER3	AC,T
  1634	031454	312 05 0 00 040156 		CAME	AC+1,[0,,0]
  1635	031455	004 05 0 00 000171 		ER4	AC+1,T
  1636	031456	321 10 0 00 031450 		JUMPL	AC+4,.-^D6	;LOOP ON ERROR SWITCH^
  1637
  1638			000172		T=T+1
  1639			000020			XX=XX/2
  1640			107400			ZZ=ZZ-1000
  1641						DFARP	T,200400,0,0,XX,577400,0,0,0,ZZ,0,0,0^
  1642						DMOVE	AC,[200400,,0
  1643	031457	120 04 0 00 040432 			0,,XX]
  1644						DFAD	AC,[577400,,0
  1645	031460	110 04 0 00 040157 			0,,0]
  1646	031461	312 04 0 00 040434 		CAME	AC,[ZZ,,0]
  1647	031462	003 04 0 00 000172 		ER3	AC,T
  1648	031463	312 05 0 00 040156 		CAME	AC+1,[0,,0]
  1649	031464	004 05 0 00 000172 		ER4	AC+1,T
  1650	031465	321 10 0 00 031457 		JUMPL	AC+4,.-^D6	;LOOP ON ERROR SWITCH^
  1651
  1652			000173		T=T+1
  1653			000010			XX=XX/2
  1654			106400			ZZ=ZZ-1000
  1655						DFARP	T,200400,0,0,XX,577400,0,0,0,ZZ,0,0,0^
  1656						DMOVE	AC,[200400,,0
  1657	031466	120 04 0 00 040435 			0,,XX]
  1658						DFAD	AC,[577400,,0
  1659	031467	110 04 0 00 040157 			0,,0]
  1660	031470	312 04 0 00 040437 		CAME	AC,[ZZ,,0]
  1661	031471	003 04 0 00 000173 		ER3	AC,T
  1662	031472	312 05 0 00 040156 		CAME	AC+1,[0,,0]
  1663	031473	004 05 0 00 000173 		ER4	AC+1,T
  1664	031474	321 10 0 00 031466 		JUMPL	AC+4,.-^D6	;LOOP ON ERROR SWITCH^
  1665
  1666			000174		T=T+1
  1667			000004			XX=XX/2
  1668			105400			ZZ=ZZ-1000
  1669						DFARP	T,200400,0,0,XX,577400,0,0,0,ZZ,0,0,0^
  1670						DMOVE	AC,[200400,,0
  1671	031475	120 04 0 00 040440 			0,,XX]
  1672						DFAD	AC,[577400,,0
  1673	031476	110 04 0 00 040157 			0,,0]
  1674	031477	312 04 0 00 040442 		CAME	AC,[ZZ,,0]
  1675	031500	003 04 0 00 000174 		ER3	AC,TDBKCE	PDP-10 KI10 ADVANCED INSTRUCTION DIAGNOSTIC #5, VERSION 0,3 	MACRO %52(462) 13:32  9-AUG-76 PAGE 2-16
DBKCEM	MAC	28-MAY-76 11:21		CHECK NORMALIZATION FOR DOUBLE PRECISION FLOATING POINT NUMBERS                    SEQ 0047

  1676	031501	312 05 0 00 040156 		CAME	AC+1,[0,,0]
  1677	031502	004 05 0 00 000174 		ER4	AC+1,T
  1678	031503	321 10 0 00 031475 		JUMPL	AC+4,.-^D6	;LOOP ON ERROR SWITCH^
  1679
  1680			000175		T=T+1
  1681			000002			XX=XX/2
  1682			104400			ZZ=ZZ-1000
  1683						DFARP	T,200400,0,0,XX,577400,0,0,0,ZZ,0,0,0^
  1684						DMOVE	AC,[200400,,0
  1685	031504	120 04 0 00 040443 			0,,XX]
  1686						DFAD	AC,[577400,,0
  1687	031505	110 04 0 00 040157 			0,,0]
  1688	031506	312 04 0 00 040445 		CAME	AC,[ZZ,,0]
  1689	031507	003 04 0 00 000175 		ER3	AC,T
  1690	031510	312 05 0 00 040156 		CAME	AC+1,[0,,0]
  1691	031511	004 05 0 00 000175 		ER4	AC+1,T
  1692	031512	321 10 0 00 031504 		JUMPL	AC+4,.-^D6	;LOOP ON ERROR SWITCH^
  1693
  1694			000176		T=T+1
  1695			000001			XX=XX/2
  1696			103400			ZZ=ZZ-1000
  1697						DFARP	T,200400,0,0,XX,577400,0,0,0,ZZ,0,0,0^
  1698						DMOVE	AC,[200400,,0
  1699	031513	120 04 0 00 040446 			0,,XX]
  1700						DFAD	AC,[577400,,0
  1701	031514	110 04 0 00 040157 			0,,0]
  1702	031515	312 04 0 00 040450 		CAME	AC,[ZZ,,0]
  1703	031516	003 04 0 00 000176 		ER3	AC,T
  1704	031517	312 05 0 00 040156 		CAME	AC+1,[0,,0]
  1705	031520	004 05 0 00 000176 		ER4	AC+1,T
  1706	031521	321 10 0 00 031513 		JUMPL	AC+4,.-^D6	;LOOP ON ERROR SWITCH^
  1707DBKCE	PDP-10 KI10 ADVANCED INSTRUCTION DIAGNOSTIC #5, VERSION 0,3 	MACRO %52(462) 13:32  9-AUG-76 PAGE 3
DBKCEM	MAC	28-MAY-76 11:21		CHECK NORMALIZATION FOR DOUBLE PRECISION FLOATING POINT NUMBERS                    SEQ 0048

  1708			000200		T=200
  1709			776777			XX=776777
  1710			577377			YY=577377
  1711			000000			ZZ=0
  1712
  1713					S200:	REPEAT	^D9,
  1714					<T=T+1
  1715						XX=<XX-1>/2
  1716						YY=YY+1000
  1717						ZZ=ZZ+ZZ
  1718						IFE	ZZ,<ZZ=-1>
  1719					DFARP	T,600000+XX&777,-1,-1,-1,0,0,0,0,YY,-1,377777,ZZ
  1720					>
  1721			000201		T=T+1
  1722			377377			XX=<XX-1>/2
  1723			600377			YY=YY+1000
  1724			000000			ZZ=ZZ+ZZ
  1725		777777	777777			IFE	ZZ,<ZZ=-1>
  1726					DFARP	T,600000+XX&777,-1,-1,-1,0,0,0,0,YY,-1,377777,ZZ^
  1727						DMOVE	AC,[600000+XX&777,,-1
  1728	031522	120 04 0 00 040451 			-1,,-1]
  1729						DFAD	AC,[0,,0
  1730	031523	110 04 0 00 040453 			0,,0]
  1731	031524	312 04 0 00 040451 		CAME	AC,[YY,,-1]
  1732	031525	003 04 0 00 000201 		ER3	AC,T
  1733	031526	312 05 0 00 040455 		CAME	AC+1,[377777,,ZZ]
  1734	031527	004 05 0 00 000201 		ER4	AC+1,T
  1735	031530	321 10 0 00 031522 		JUMPL	AC+4,.-^D6	;LOOP ON ERROR SWITCH^
  1736
  1737			000202		T=T+1
  1738			177577			XX=<XX-1>/2
  1739			601377			YY=YY+1000
  1740		777777	777776			ZZ=ZZ+ZZ
  1741						IFE	ZZ,<ZZ=-1>
  1742					DFARP	T,600000+XX&777,-1,-1,-1,0,0,0,0,YY,-1,377777,ZZ^
  1743						DMOVE	AC,[600000+XX&777,,-1
  1744	031531	120 04 0 00 040456 			-1,,-1]
  1745						DFAD	AC,[0,,0
  1746	031532	110 04 0 00 040453 			0,,0]
  1747	031533	312 04 0 00 040460 		CAME	AC,[YY,,-1]
  1748	031534	003 04 0 00 000202 		ER3	AC,T
  1749	031535	312 05 0 00 040461 		CAME	AC+1,[377777,,ZZ]
  1750	031536	004 05 0 00 000202 		ER4	AC+1,T
  1751	031537	321 10 0 00 031531 		JUMPL	AC+4,.-^D6	;LOOP ON ERROR SWITCH^
  1752
  1753			000203		T=T+1
  1754			077677			XX=<XX-1>/2
  1755			602377			YY=YY+1000
  1756		777777	777774			ZZ=ZZ+ZZ
  1757						IFE	ZZ,<ZZ=-1>
  1758					DFARP	T,600000+XX&777,-1,-1,-1,0,0,0,0,YY,-1,377777,ZZ^
  1759						DMOVE	AC,[600000+XX&777,,-1
  1760	031540	120 04 0 00 040462 			-1,,-1]
  1761						DFAD	AC,[0,,0
  1762	031541	110 04 0 00 040453 			0,,0]DBKCE	PDP-10 KI10 ADVANCED INSTRUCTION DIAGNOSTIC #5, VERSION 0,3 	MACRO %52(462) 13:32  9-AUG-76 PAGE 3-1
DBKCEM	MAC	28-MAY-76 11:21		CHECK NORMALIZATION FOR DOUBLE PRECISION FLOATING POINT NUMBERS                    SEQ 0049

  1763	031542	312 04 0 00 040464 		CAME	AC,[YY,,-1]
  1764	031543	003 04 0 00 000203 		ER3	AC,T
  1765	031544	312 05 0 00 040465 		CAME	AC+1,[377777,,ZZ]
  1766	031545	004 05 0 00 000203 		ER4	AC+1,T
  1767	031546	321 10 0 00 031540 		JUMPL	AC+4,.-^D6	;LOOP ON ERROR SWITCH^
  1768
  1769			000204		T=T+1
  1770			037737			XX=<XX-1>/2
  1771			603377			YY=YY+1000
  1772		777777	777770			ZZ=ZZ+ZZ
  1773						IFE	ZZ,<ZZ=-1>
  1774					DFARP	T,600000+XX&777,-1,-1,-1,0,0,0,0,YY,-1,377777,ZZ^
  1775						DMOVE	AC,[600000+XX&777,,-1
  1776	031547	120 04 0 00 040466 			-1,,-1]
  1777						DFAD	AC,[0,,0
  1778	031550	110 04 0 00 040453 			0,,0]
  1779	031551	312 04 0 00 040470 		CAME	AC,[YY,,-1]
  1780	031552	003 04 0 00 000204 		ER3	AC,T
  1781	031553	312 05 0 00 040471 		CAME	AC+1,[377777,,ZZ]
  1782	031554	004 05 0 00 000204 		ER4	AC+1,T
  1783	031555	321 10 0 00 031547 		JUMPL	AC+4,.-^D6	;LOOP ON ERROR SWITCH^
  1784
  1785			000205		T=T+1
  1786			017757			XX=<XX-1>/2
  1787			604377			YY=YY+1000
  1788		777777	777760			ZZ=ZZ+ZZ
  1789						IFE	ZZ,<ZZ=-1>
  1790					DFARP	T,600000+XX&777,-1,-1,-1,0,0,0,0,YY,-1,377777,ZZ^
  1791						DMOVE	AC,[600000+XX&777,,-1
  1792	031556	120 04 0 00 040472 			-1,,-1]
  1793						DFAD	AC,[0,,0
  1794	031557	110 04 0 00 040453 			0,,0]
  1795	031560	312 04 0 00 040474 		CAME	AC,[YY,,-1]
  1796	031561	003 04 0 00 000205 		ER3	AC,T
  1797	031562	312 05 0 00 040475 		CAME	AC+1,[377777,,ZZ]
  1798	031563	004 05 0 00 000205 		ER4	AC+1,T
  1799	031564	321 10 0 00 031556 		JUMPL	AC+4,.-^D6	;LOOP ON ERROR SWITCH^
  1800
  1801			000206		T=T+1
  1802			007767			XX=<XX-1>/2
  1803			605377			YY=YY+1000
  1804		777777	777740			ZZ=ZZ+ZZ
  1805						IFE	ZZ,<ZZ=-1>
  1806					DFARP	T,600000+XX&777,-1,-1,-1,0,0,0,0,YY,-1,377777,ZZ^
  1807						DMOVE	AC,[600000+XX&777,,-1
  1808	031565	120 04 0 00 040476 			-1,,-1]
  1809						DFAD	AC,[0,,0
  1810	031566	110 04 0 00 040453 			0,,0]
  1811	031567	312 04 0 00 040500 		CAME	AC,[YY,,-1]
  1812	031570	003 04 0 00 000206 		ER3	AC,T
  1813	031571	312 05 0 00 040501 		CAME	AC+1,[377777,,ZZ]
  1814	031572	004 05 0 00 000206 		ER4	AC+1,T
  1815	031573	321 10 0 00 031565 		JUMPL	AC+4,.-^D6	;LOOP ON ERROR SWITCH^
  1816
  1817			000207		T=T+1DBKCE	PDP-10 KI10 ADVANCED INSTRUCTION DIAGNOSTIC #5, VERSION 0,3 	MACRO %52(462) 13:32  9-AUG-76 PAGE 3-2
DBKCEM	MAC	28-MAY-76 11:21		CHECK NORMALIZATION FOR DOUBLE PRECISION FLOATING POINT NUMBERS                    SEQ 0050

  1818			003773			XX=<XX-1>/2
  1819			606377			YY=YY+1000
  1820		777777	777700			ZZ=ZZ+ZZ
  1821						IFE	ZZ,<ZZ=-1>
  1822					DFARP	T,600000+XX&777,-1,-1,-1,0,0,0,0,YY,-1,377777,ZZ^
  1823						DMOVE	AC,[600000+XX&777,,-1
  1824	031574	120 04 0 00 040502 			-1,,-1]
  1825						DFAD	AC,[0,,0
  1826	031575	110 04 0 00 040453 			0,,0]
  1827	031576	312 04 0 00 040504 		CAME	AC,[YY,,-1]
  1828	031577	003 04 0 00 000207 		ER3	AC,T
  1829	031600	312 05 0 00 040505 		CAME	AC+1,[377777,,ZZ]
  1830	031601	004 05 0 00 000207 		ER4	AC+1,T
  1831	031602	321 10 0 00 031574 		JUMPL	AC+4,.-^D6	;LOOP ON ERROR SWITCH^
  1832
  1833			000210		T=T+1
  1834			001775			XX=<XX-1>/2
  1835			607377			YY=YY+1000
  1836		777777	777600			ZZ=ZZ+ZZ
  1837						IFE	ZZ,<ZZ=-1>
  1838					DFARP	T,600000+XX&777,-1,-1,-1,0,0,0,0,YY,-1,377777,ZZ^
  1839						DMOVE	AC,[600000+XX&777,,-1
  1840	031603	120 04 0 00 040506 			-1,,-1]
  1841						DFAD	AC,[0,,0
  1842	031604	110 04 0 00 040453 			0,,0]
  1843	031605	312 04 0 00 040510 		CAME	AC,[YY,,-1]
  1844	031606	003 04 0 00 000210 		ER3	AC,T
  1845	031607	312 05 0 00 040511 		CAME	AC+1,[377777,,ZZ]
  1846	031610	004 05 0 00 000210 		ER4	AC+1,T
  1847	031611	321 10 0 00 031603 		JUMPL	AC+4,.-^D6	;LOOP ON ERROR SWITCH^
  1848
  1849			000211		T=T+1
  1850			000776			XX=<XX-1>/2
  1851			610377			YY=YY+1000
  1852		777777	777400			ZZ=ZZ+ZZ
  1853						IFE	ZZ,<ZZ=-1>
  1854					DFARP	T,600000+XX&777,-1,-1,-1,0,0,0,0,YY,-1,377777,ZZ^
  1855						DMOVE	AC,[600000+XX&777,,-1
  1856	031612	120 04 0 00 040512 			-1,,-1]
  1857						DFAD	AC,[0,,0
  1858	031613	110 04 0 00 040453 			0,,0]
  1859	031614	312 04 0 00 040514 		CAME	AC,[YY,,-1]
  1860	031615	003 04 0 00 000211 		ER3	AC,T
  1861	031616	312 05 0 00 040515 		CAME	AC+1,[377777,,ZZ]
  1862	031617	004 05 0 00 000211 		ER4	AC+1,T
  1863	031620	321 10 0 00 031612 		JUMPL	AC+4,.-^D6	;LOOP ON ERROR SWITCH^
  1864
  1865
  1866		777776	777777			XX=777776777777
  1867
  1868						REPEAT	^D10,
  1869					<T=T+1
  1870						XX=<XX-1>/2
  1871						YY=YY+1000
  1872						ZZ=ZZ+ZZDBKCE	PDP-10 KI10 ADVANCED INSTRUCTION DIAGNOSTIC #5, VERSION 0,3 	MACRO %52(462) 13:32  9-AUG-76 PAGE 3-3
DBKCEM	MAC	28-MAY-76 11:21		CHECK NORMALIZATION FOR DOUBLE PRECISION FLOATING POINT NUMBERS                    SEQ 0051

  1873						DFARP	T,600777,XX&777777,-1,-1,0,0,0,0,YY,-1,377777,ZZ
  1874					>
  1875			000212		T=T+1
  1876		777777	377777			XX=<XX-1>/2
  1877			611377			YY=YY+1000
  1878		777777	777000			ZZ=ZZ+ZZ
  1879						DFARP	T,600777,XX&777777,-1,-1,0,0,0,0,YY,-1,377777,ZZ^
  1880						DMOVE	AC,[600777,,XX&777777
  1881	031621	120 04 0 00 040516 			-1,,-1]
  1882						DFAD	AC,[0,,0
  1883	031622	110 04 0 00 040453 			0,,0]
  1884	031623	312 04 0 00 040520 		CAME	AC,[YY,,-1]
  1885	031624	003 04 0 00 000212 		ER3	AC,T
  1886	031625	312 05 0 00 040521 		CAME	AC+1,[377777,,ZZ]
  1887	031626	004 05 0 00 000212 		ER4	AC+1,T
  1888	031627	321 10 0 00 031621 		JUMPL	AC+4,.-^D6	;LOOP ON ERROR SWITCH^
  1889
  1890			000213		T=T+1
  1891		777777	577777			XX=<XX-1>/2
  1892			612377			YY=YY+1000
  1893		777777	776000			ZZ=ZZ+ZZ
  1894						DFARP	T,600777,XX&777777,-1,-1,0,0,0,0,YY,-1,377777,ZZ^
  1895						DMOVE	AC,[600777,,XX&777777
  1896	031630	120 04 0 00 040522 			-1,,-1]
  1897						DFAD	AC,[0,,0
  1898	031631	110 04 0 00 040453 			0,,0]
  1899	031632	312 04 0 00 040524 		CAME	AC,[YY,,-1]
  1900	031633	003 04 0 00 000213 		ER3	AC,T
  1901	031634	312 05 0 00 040525 		CAME	AC+1,[377777,,ZZ]
  1902	031635	004 05 0 00 000213 		ER4	AC+1,T
  1903	031636	321 10 0 00 031630 		JUMPL	AC+4,.-^D6	;LOOP ON ERROR SWITCH^
  1904
  1905			000214		T=T+1
  1906		777777	677777			XX=<XX-1>/2
  1907			613377			YY=YY+1000
  1908		777777	774000			ZZ=ZZ+ZZ
  1909						DFARP	T,600777,XX&777777,-1,-1,0,0,0,0,YY,-1,377777,ZZ^
  1910						DMOVE	AC,[600777,,XX&777777
  1911	031637	120 04 0 00 040526 			-1,,-1]
  1912						DFAD	AC,[0,,0
  1913	031640	110 04 0 00 040453 			0,,0]
  1914	031641	312 04 0 00 040530 		CAME	AC,[YY,,-1]
  1915	031642	003 04 0 00 000214 		ER3	AC,T
  1916	031643	312 05 0 00 040531 		CAME	AC+1,[377777,,ZZ]
  1917	031644	004 05 0 00 000214 		ER4	AC+1,T
  1918	031645	321 10 0 00 031637 		JUMPL	AC+4,.-^D6	;LOOP ON ERROR SWITCH^
  1919
  1920			000215		T=T+1
  1921		777777	737777			XX=<XX-1>/2
  1922			614377			YY=YY+1000
  1923		777777	770000			ZZ=ZZ+ZZ
  1924						DFARP	T,600777,XX&777777,-1,-1,0,0,0,0,YY,-1,377777,ZZ^
  1925						DMOVE	AC,[600777,,XX&777777
  1926	031646	120 04 0 00 040532 			-1,,-1]
  1927						DFAD	AC,[0,,0DBKCE	PDP-10 KI10 ADVANCED INSTRUCTION DIAGNOSTIC #5, VERSION 0,3 	MACRO %52(462) 13:32  9-AUG-76 PAGE 3-4
DBKCEM	MAC	28-MAY-76 11:21		CHECK NORMALIZATION FOR DOUBLE PRECISION FLOATING POINT NUMBERS                    SEQ 0052

  1928	031647	110 04 0 00 040453 			0,,0]
  1929	031650	312 04 0 00 040534 		CAME	AC,[YY,,-1]
  1930	031651	003 04 0 00 000215 		ER3	AC,T
  1931	031652	312 05 0 00 040535 		CAME	AC+1,[377777,,ZZ]
  1932	031653	004 05 0 00 000215 		ER4	AC+1,T
  1933	031654	321 10 0 00 031646 		JUMPL	AC+4,.-^D6	;LOOP ON ERROR SWITCH^
  1934
  1935			000216		T=T+1
  1936		777777	757777			XX=<XX-1>/2
  1937			615377			YY=YY+1000
  1938		777777	760000			ZZ=ZZ+ZZ
  1939						DFARP	T,600777,XX&777777,-1,-1,0,0,0,0,YY,-1,377777,ZZ^
  1940						DMOVE	AC,[600777,,XX&777777
  1941	031655	120 04 0 00 040536 			-1,,-1]
  1942						DFAD	AC,[0,,0
  1943	031656	110 04 0 00 040453 			0,,0]
  1944	031657	312 04 0 00 040540 		CAME	AC,[YY,,-1]
  1945	031660	003 04 0 00 000216 		ER3	AC,T
  1946	031661	312 05 0 00 040541 		CAME	AC+1,[377777,,ZZ]
  1947	031662	004 05 0 00 000216 		ER4	AC+1,T
  1948	031663	321 10 0 00 031655 		JUMPL	AC+4,.-^D6	;LOOP ON ERROR SWITCH^
  1949
  1950			000217		T=T+1
  1951		777777	767777			XX=<XX-1>/2
  1952			616377			YY=YY+1000
  1953		777777	740000			ZZ=ZZ+ZZ
  1954						DFARP	T,600777,XX&777777,-1,-1,0,0,0,0,YY,-1,377777,ZZ^
  1955						DMOVE	AC,[600777,,XX&777777
  1956	031664	120 04 0 00 040542 			-1,,-1]
  1957						DFAD	AC,[0,,0
  1958	031665	110 04 0 00 040453 			0,,0]
  1959	031666	312 04 0 00 040544 		CAME	AC,[YY,,-1]
  1960	031667	003 04 0 00 000217 		ER3	AC,T
  1961	031670	312 05 0 00 040545 		CAME	AC+1,[377777,,ZZ]
  1962	031671	004 05 0 00 000217 		ER4	AC+1,T
  1963	031672	321 10 0 00 031664 		JUMPL	AC+4,.-^D6	;LOOP ON ERROR SWITCH^
  1964
  1965			000220		T=T+1
  1966		777777	773777			XX=<XX-1>/2
  1967			617377			YY=YY+1000
  1968		777777	700000			ZZ=ZZ+ZZ
  1969						DFARP	T,600777,XX&777777,-1,-1,0,0,0,0,YY,-1,377777,ZZ^
  1970						DMOVE	AC,[600777,,XX&777777
  1971	031673	120 04 0 00 040546 			-1,,-1]
  1972						DFAD	AC,[0,,0
  1973	031674	110 04 0 00 040453 			0,,0]
  1974	031675	312 04 0 00 040550 		CAME	AC,[YY,,-1]
  1975	031676	003 04 0 00 000220 		ER3	AC,T
  1976	031677	312 05 0 00 040551 		CAME	AC+1,[377777,,ZZ]
  1977	031700	004 05 0 00 000220 		ER4	AC+1,T
  1978	031701	321 10 0 00 031673 		JUMPL	AC+4,.-^D6	;LOOP ON ERROR SWITCH^
  1979
  1980			000221		T=T+1
  1981		777777	775777			XX=<XX-1>/2
  1982			620377			YY=YY+1000DBKCE	PDP-10 KI10 ADVANCED INSTRUCTION DIAGNOSTIC #5, VERSION 0,3 	MACRO %52(462) 13:32  9-AUG-76 PAGE 3-5
DBKCEM	MAC	28-MAY-76 11:21		CHECK NORMALIZATION FOR DOUBLE PRECISION FLOATING POINT NUMBERS                    SEQ 0053

  1983		777777	600000			ZZ=ZZ+ZZ
  1984						DFARP	T,600777,XX&777777,-1,-1,0,0,0,0,YY,-1,377777,ZZ^
  1985						DMOVE	AC,[600777,,XX&777777
  1986	031702	120 04 0 00 040552 			-1,,-1]
  1987						DFAD	AC,[0,,0
  1988	031703	110 04 0 00 040453 			0,,0]
  1989	031704	312 04 0 00 040554 		CAME	AC,[YY,,-1]
  1990	031705	003 04 0 00 000221 		ER3	AC,T
  1991	031706	312 05 0 00 040555 		CAME	AC+1,[377777,,ZZ]
  1992	031707	004 05 0 00 000221 		ER4	AC+1,T
  1993	031710	321 10 0 00 031702 		JUMPL	AC+4,.-^D6	;LOOP ON ERROR SWITCH^
  1994
  1995			000222		T=T+1
  1996		777777	776777			XX=<XX-1>/2
  1997			621377			YY=YY+1000
  1998		777777	400000			ZZ=ZZ+ZZ
  1999						DFARP	T,600777,XX&777777,-1,-1,0,0,0,0,YY,-1,377777,ZZ^
  2000						DMOVE	AC,[600777,,XX&777777
  2001	031711	120 04 0 00 040556 			-1,,-1]
  2002						DFAD	AC,[0,,0
  2003	031712	110 04 0 00 040453 			0,,0]
  2004	031713	312 04 0 00 040560 		CAME	AC,[YY,,-1]
  2005	031714	003 04 0 00 000222 		ER3	AC,T
  2006	031715	312 05 0 00 040561 		CAME	AC+1,[377777,,ZZ]
  2007	031716	004 05 0 00 000222 		ER4	AC+1,T
  2008	031717	321 10 0 00 031711 		JUMPL	AC+4,.-^D6	;LOOP ON ERROR SWITCH^
  2009
  2010			000223		T=T+1
  2011		777777	777377			XX=<XX-1>/2
  2012			622377			YY=YY+1000
  2013		777777	000000			ZZ=ZZ+ZZ
  2014						DFARP	T,600777,XX&777777,-1,-1,0,0,0,0,YY,-1,377777,ZZ^
  2015						DMOVE	AC,[600777,,XX&777777
  2016	031720	120 04 0 00 040562 			-1,,-1]
  2017						DFAD	AC,[0,,0
  2018	031721	110 04 0 00 040453 			0,,0]
  2019	031722	312 04 0 00 040564 		CAME	AC,[YY,,-1]
  2020	031723	003 04 0 00 000223 		ER3	AC,T
  2021	031724	312 05 0 00 040565 		CAME	AC+1,[377777,,ZZ]
  2022	031725	004 05 0 00 000223 		ER4	AC+1,T
  2023	031726	321 10 0 00 031720 		JUMPL	AC+4,.-^D6	;LOOP ON ERROR SWITCH^
  2024
  2025
  2026		777777	777777			ZZ=-1
  2027
  2028						REPEAT	^D8,
  2029					<T=T+1
  2030						XX=<XX-1>/2
  2031						YY=YY+1000
  2032						ZZ=ZZ+ZZ
  2033						DFARP	T,600777,XX,-1,-1,0,0,0,0,YY,-1,ZZ&377777,0
  2034					>
  2035			000224		T=T+1
  2036		777777	777577			XX=<XX-1>/2
  2037			623377			YY=YY+1000DBKCE	PDP-10 KI10 ADVANCED INSTRUCTION DIAGNOSTIC #5, VERSION 0,3 	MACRO %52(462) 13:32  9-AUG-76 PAGE 3-6
DBKCEM	MAC	28-MAY-76 11:21		CHECK NORMALIZATION FOR DOUBLE PRECISION FLOATING POINT NUMBERS                    SEQ 0054

  2038		777777	777776			ZZ=ZZ+ZZ
  2039						DFARP	T,600777,XX,-1,-1,0,0,0,0,YY,-1,ZZ&377777,0^
  2040						DMOVE	AC,[600777,,XX
  2041	031727	120 04 0 00 040566 			-1,,-1]
  2042						DFAD	AC,[0,,0
  2043	031730	110 04 0 00 040453 			0,,0]
  2044	031731	312 04 0 00 040570 		CAME	AC,[YY,,-1]
  2045	031732	003 04 0 00 000224 		ER3	AC,T
  2046	031733	312 05 0 00 040571 		CAME	AC+1,[ZZ&377777,,0]
  2047	031734	004 05 0 00 000224 		ER4	AC+1,T
  2048	031735	321 10 0 00 031727 		JUMPL	AC+4,.-^D6	;LOOP ON ERROR SWITCH^
  2049
  2050			000225		T=T+1
  2051		777777	777677			XX=<XX-1>/2
  2052			624377			YY=YY+1000
  2053		777777	777774			ZZ=ZZ+ZZ
  2054						DFARP	T,600777,XX,-1,-1,0,0,0,0,YY,-1,ZZ&377777,0^
  2055						DMOVE	AC,[600777,,XX
  2056	031736	120 04 0 00 040572 			-1,,-1]
  2057						DFAD	AC,[0,,0
  2058	031737	110 04 0 00 040453 			0,,0]
  2059	031740	312 04 0 00 040574 		CAME	AC,[YY,,-1]
  2060	031741	003 04 0 00 000225 		ER3	AC,T
  2061	031742	312 05 0 00 040575 		CAME	AC+1,[ZZ&377777,,0]
  2062	031743	004 05 0 00 000225 		ER4	AC+1,T
  2063	031744	321 10 0 00 031736 		JUMPL	AC+4,.-^D6	;LOOP ON ERROR SWITCH^
  2064
  2065			000226		T=T+1
  2066		777777	777737			XX=<XX-1>/2
  2067			625377			YY=YY+1000
  2068		777777	777770			ZZ=ZZ+ZZ
  2069						DFARP	T,600777,XX,-1,-1,0,0,0,0,YY,-1,ZZ&377777,0^
  2070						DMOVE	AC,[600777,,XX
  2071	031745	120 04 0 00 040576 			-1,,-1]
  2072						DFAD	AC,[0,,0
  2073	031746	110 04 0 00 040453 			0,,0]
  2074	031747	312 04 0 00 040600 		CAME	AC,[YY,,-1]
  2075	031750	003 04 0 00 000226 		ER3	AC,T
  2076	031751	312 05 0 00 040601 		CAME	AC+1,[ZZ&377777,,0]
  2077	031752	004 05 0 00 000226 		ER4	AC+1,T
  2078	031753	321 10 0 00 031745 		JUMPL	AC+4,.-^D6	;LOOP ON ERROR SWITCH^
  2079
  2080			000227		T=T+1
  2081		777777	777757			XX=<XX-1>/2
  2082			626377			YY=YY+1000
  2083		777777	777760			ZZ=ZZ+ZZ
  2084						DFARP	T,600777,XX,-1,-1,0,0,0,0,YY,-1,ZZ&377777,0^
  2085						DMOVE	AC,[600777,,XX
  2086	031754	120 04 0 00 040602 			-1,,-1]
  2087						DFAD	AC,[0,,0
  2088	031755	110 04 0 00 040453 			0,,0]
  2089	031756	312 04 0 00 040604 		CAME	AC,[YY,,-1]
  2090	031757	003 04 0 00 000227 		ER3	AC,T
  2091	031760	312 05 0 00 040605 		CAME	AC+1,[ZZ&377777,,0]
  2092	031761	004 05 0 00 000227 		ER4	AC+1,TDBKCE	PDP-10 KI10 ADVANCED INSTRUCTION DIAGNOSTIC #5, VERSION 0,3 	MACRO %52(462) 13:32  9-AUG-76 PAGE 3-7
DBKCEM	MAC	28-MAY-76 11:21		CHECK NORMALIZATION FOR DOUBLE PRECISION FLOATING POINT NUMBERS                    SEQ 0055

  2093	031762	321 10 0 00 031754 		JUMPL	AC+4,.-^D6	;LOOP ON ERROR SWITCH^
  2094
  2095			000230		T=T+1
  2096		777777	777767			XX=<XX-1>/2
  2097			627377			YY=YY+1000
  2098		777777	777740			ZZ=ZZ+ZZ
  2099						DFARP	T,600777,XX,-1,-1,0,0,0,0,YY,-1,ZZ&377777,0^
  2100						DMOVE	AC,[600777,,XX
  2101	031763	120 04 0 00 040606 			-1,,-1]
  2102						DFAD	AC,[0,,0
  2103	031764	110 04 0 00 040453 			0,,0]
  2104	031765	312 04 0 00 040610 		CAME	AC,[YY,,-1]
  2105	031766	003 04 0 00 000230 		ER3	AC,T
  2106	031767	312 05 0 00 040611 		CAME	AC+1,[ZZ&377777,,0]
  2107	031770	004 05 0 00 000230 		ER4	AC+1,T
  2108	031771	321 10 0 00 031763 		JUMPL	AC+4,.-^D6	;LOOP ON ERROR SWITCH^
  2109
  2110			000231		T=T+1
  2111		777777	777773			XX=<XX-1>/2
  2112			630377			YY=YY+1000
  2113		777777	777700			ZZ=ZZ+ZZ
  2114						DFARP	T,600777,XX,-1,-1,0,0,0,0,YY,-1,ZZ&377777,0^
  2115						DMOVE	AC,[600777,,XX
  2116	031772	120 04 0 00 040612 			-1,,-1]
  2117						DFAD	AC,[0,,0
  2118	031773	110 04 0 00 040453 			0,,0]
  2119	031774	312 04 0 00 040614 		CAME	AC,[YY,,-1]
  2120	031775	003 04 0 00 000231 		ER3	AC,T
  2121	031776	312 05 0 00 040615 		CAME	AC+1,[ZZ&377777,,0]
  2122	031777	004 05 0 00 000231 		ER4	AC+1,T
  2123	032000	321 10 0 00 031772 		JUMPL	AC+4,.-^D6	;LOOP ON ERROR SWITCH^
  2124
  2125			000232		T=T+1
  2126		777777	777775			XX=<XX-1>/2
  2127			631377			YY=YY+1000
  2128		777777	777600			ZZ=ZZ+ZZ
  2129						DFARP	T,600777,XX,-1,-1,0,0,0,0,YY,-1,ZZ&377777,0^
  2130						DMOVE	AC,[600777,,XX
  2131	032001	120 04 0 00 040616 			-1,,-1]
  2132						DFAD	AC,[0,,0
  2133	032002	110 04 0 00 040453 			0,,0]
  2134	032003	312 04 0 00 040620 		CAME	AC,[YY,,-1]
  2135	032004	003 04 0 00 000232 		ER3	AC,T
  2136	032005	312 05 0 00 040621 		CAME	AC+1,[ZZ&377777,,0]
  2137	032006	004 05 0 00 000232 		ER4	AC+1,T
  2138	032007	321 10 0 00 032001 		JUMPL	AC+4,.-^D6	;LOOP ON ERROR SWITCH^
  2139
  2140			000233		T=T+1
  2141		777777	777776			XX=<XX-1>/2
  2142			632377			YY=YY+1000
  2143		777777	777400			ZZ=ZZ+ZZ
  2144						DFARP	T,600777,XX,-1,-1,0,0,0,0,YY,-1,ZZ&377777,0^
  2145						DMOVE	AC,[600777,,XX
  2146	032010	120 04 0 00 040622 			-1,,-1]
  2147						DFAD	AC,[0,,0DBKCE	PDP-10 KI10 ADVANCED INSTRUCTION DIAGNOSTIC #5, VERSION 0,3 	MACRO %52(462) 13:32  9-AUG-76 PAGE 3-8
DBKCEM	MAC	28-MAY-76 11:21		CHECK NORMALIZATION FOR DOUBLE PRECISION FLOATING POINT NUMBERS                    SEQ 0056

  2148	032011	110 04 0 00 040453 			0,,0]
  2149	032012	312 04 0 00 040624 		CAME	AC,[YY,,-1]
  2150	032013	003 04 0 00 000233 		ER3	AC,T
  2151	032014	312 05 0 00 040625 		CAME	AC+1,[ZZ&377777,,0]
  2152	032015	004 05 0 00 000233 		ER4	AC+1,T
  2153	032016	321 10 0 00 032010 		JUMPL	AC+4,.-^D6	;LOOP ON ERROR SWITCH^
  2154DBKCE	PDP-10 KI10 ADVANCED INSTRUCTION DIAGNOSTIC #5, VERSION 0,3 	MACRO %52(462) 13:32  9-AUG-76 PAGE 4
DBKCEM	MAC	28-MAY-76 11:21		CHECK NORMALIZATION FOR DOUBLE PRECISION FLOATING POINT NUMBERS                    SEQ 0057

  2155		777777	377777			XX=777777377777
  2156
  2157						REPEAT	^D9,
  2158					<T=T+1
  2159						XX=<XX-1>/2
  2160						YY=YY+1000
  2161						ZZ=ZZ+ZZ
  2162						DFARP	T,600777,-1,XX,-1,0,0,0,0,YY,-1,ZZ&377777,0
  2163					>
  2164			000234		T=T+1
  2165		777777	577777			XX=<XX-1>/2
  2166			633377			YY=YY+1000
  2167		777777	777000			ZZ=ZZ+ZZ
  2168						DFARP	T,600777,-1,XX,-1,0,0,0,0,YY,-1,ZZ&377777,0^
  2169						DMOVE	AC,[600777,,-1
  2170	032017	120 04 0 00 040626 			XX,,-1]
  2171						DFAD	AC,[0,,0
  2172	032020	110 04 0 00 040453 			0,,0]
  2173	032021	312 04 0 00 040630 		CAME	AC,[YY,,-1]
  2174	032022	003 04 0 00 000234 		ER3	AC,T
  2175	032023	312 05 0 00 040631 		CAME	AC+1,[ZZ&377777,,0]
  2176	032024	004 05 0 00 000234 		ER4	AC+1,T
  2177	032025	321 10 0 00 032017 		JUMPL	AC+4,.-^D6	;LOOP ON ERROR SWITCH^
  2178
  2179			000235		T=T+1
  2180		777777	677777			XX=<XX-1>/2
  2181			634377			YY=YY+1000
  2182		777777	776000			ZZ=ZZ+ZZ
  2183						DFARP	T,600777,-1,XX,-1,0,0,0,0,YY,-1,ZZ&377777,0^
  2184						DMOVE	AC,[600777,,-1
  2185	032026	120 04 0 00 040632 			XX,,-1]
  2186						DFAD	AC,[0,,0
  2187	032027	110 04 0 00 040453 			0,,0]
  2188	032030	312 04 0 00 040634 		CAME	AC,[YY,,-1]
  2189	032031	003 04 0 00 000235 		ER3	AC,T
  2190	032032	312 05 0 00 040635 		CAME	AC+1,[ZZ&377777,,0]
  2191	032033	004 05 0 00 000235 		ER4	AC+1,T
  2192	032034	321 10 0 00 032026 		JUMPL	AC+4,.-^D6	;LOOP ON ERROR SWITCH^
  2193
  2194			000236		T=T+1
  2195		777777	737777			XX=<XX-1>/2
  2196			635377			YY=YY+1000
  2197		777777	774000			ZZ=ZZ+ZZ
  2198						DFARP	T,600777,-1,XX,-1,0,0,0,0,YY,-1,ZZ&377777,0^
  2199						DMOVE	AC,[600777,,-1
  2200	032035	120 04 0 00 040636 			XX,,-1]
  2201						DFAD	AC,[0,,0
  2202	032036	110 04 0 00 040453 			0,,0]
  2203	032037	312 04 0 00 040640 		CAME	AC,[YY,,-1]
  2204	032040	003 04 0 00 000236 		ER3	AC,T
  2205	032041	312 05 0 00 040641 		CAME	AC+1,[ZZ&377777,,0]
  2206	032042	004 05 0 00 000236 		ER4	AC+1,T
  2207	032043	321 10 0 00 032035 		JUMPL	AC+4,.-^D6	;LOOP ON ERROR SWITCH^
  2208
  2209			000237		T=T+1DBKCE	PDP-10 KI10 ADVANCED INSTRUCTION DIAGNOSTIC #5, VERSION 0,3 	MACRO %52(462) 13:32  9-AUG-76 PAGE 4-1
DBKCEM	MAC	28-MAY-76 11:21		CHECK NORMALIZATION FOR DOUBLE PRECISION FLOATING POINT NUMBERS                    SEQ 0058

  2210		777777	757777			XX=<XX-1>/2
  2211			636377			YY=YY+1000
  2212		777777	770000			ZZ=ZZ+ZZ
  2213						DFARP	T,600777,-1,XX,-1,0,0,0,0,YY,-1,ZZ&377777,0^
  2214						DMOVE	AC,[600777,,-1
  2215	032044	120 04 0 00 040642 			XX,,-1]
  2216						DFAD	AC,[0,,0
  2217	032045	110 04 0 00 040453 			0,,0]
  2218	032046	312 04 0 00 040644 		CAME	AC,[YY,,-1]
  2219	032047	003 04 0 00 000237 		ER3	AC,T
  2220	032050	312 05 0 00 040645 		CAME	AC+1,[ZZ&377777,,0]
  2221	032051	004 05 0 00 000237 		ER4	AC+1,T
  2222	032052	321 10 0 00 032044 		JUMPL	AC+4,.-^D6	;LOOP ON ERROR SWITCH^
  2223
  2224			000240		T=T+1
  2225		777777	767777			XX=<XX-1>/2
  2226			637377			YY=YY+1000
  2227		777777	760000			ZZ=ZZ+ZZ
  2228						DFARP	T,600777,-1,XX,-1,0,0,0,0,YY,-1,ZZ&377777,0^
  2229						DMOVE	AC,[600777,,-1
  2230	032053	120 04 0 00 040646 			XX,,-1]
  2231						DFAD	AC,[0,,0
  2232	032054	110 04 0 00 040453 			0,,0]
  2233	032055	312 04 0 00 040650 		CAME	AC,[YY,,-1]
  2234	032056	003 04 0 00 000240 		ER3	AC,T
  2235	032057	312 05 0 00 040651 		CAME	AC+1,[ZZ&377777,,0]
  2236	032060	004 05 0 00 000240 		ER4	AC+1,T
  2237	032061	321 10 0 00 032053 		JUMPL	AC+4,.-^D6	;LOOP ON ERROR SWITCH^
  2238
  2239			000241		T=T+1
  2240		777777	773777			XX=<XX-1>/2
  2241			640377			YY=YY+1000
  2242		777777	740000			ZZ=ZZ+ZZ
  2243						DFARP	T,600777,-1,XX,-1,0,0,0,0,YY,-1,ZZ&377777,0^
  2244						DMOVE	AC,[600777,,-1
  2245	032062	120 04 0 00 040652 			XX,,-1]
  2246						DFAD	AC,[0,,0
  2247	032063	110 04 0 00 040453 			0,,0]
  2248	032064	312 04 0 00 040654 		CAME	AC,[YY,,-1]
  2249	032065	003 04 0 00 000241 		ER3	AC,T
  2250	032066	312 05 0 00 040655 		CAME	AC+1,[ZZ&377777,,0]
  2251	032067	004 05 0 00 000241 		ER4	AC+1,T
  2252	032070	321 10 0 00 032062 		JUMPL	AC+4,.-^D6	;LOOP ON ERROR SWITCH^
  2253
  2254			000242		T=T+1
  2255		777777	775777			XX=<XX-1>/2
  2256			641377			YY=YY+1000
  2257		777777	700000			ZZ=ZZ+ZZ
  2258						DFARP	T,600777,-1,XX,-1,0,0,0,0,YY,-1,ZZ&377777,0^
  2259						DMOVE	AC,[600777,,-1
  2260	032071	120 04 0 00 040656 			XX,,-1]
  2261						DFAD	AC,[0,,0
  2262	032072	110 04 0 00 040453 			0,,0]
  2263	032073	312 04 0 00 040660 		CAME	AC,[YY,,-1]
  2264	032074	003 04 0 00 000242 		ER3	AC,TDBKCE	PDP-10 KI10 ADVANCED INSTRUCTION DIAGNOSTIC #5, VERSION 0,3 	MACRO %52(462) 13:32  9-AUG-76 PAGE 4-2
DBKCEM	MAC	28-MAY-76 11:21		CHECK NORMALIZATION FOR DOUBLE PRECISION FLOATING POINT NUMBERS                    SEQ 0059

  2265	032075	312 05 0 00 040661 		CAME	AC+1,[ZZ&377777,,0]
  2266	032076	004 05 0 00 000242 		ER4	AC+1,T
  2267	032077	321 10 0 00 032071 		JUMPL	AC+4,.-^D6	;LOOP ON ERROR SWITCH^
  2268
  2269			000243		T=T+1
  2270		777777	776777			XX=<XX-1>/2
  2271			642377			YY=YY+1000
  2272		777777	600000			ZZ=ZZ+ZZ
  2273						DFARP	T,600777,-1,XX,-1,0,0,0,0,YY,-1,ZZ&377777,0^
  2274						DMOVE	AC,[600777,,-1
  2275	032100	120 04 0 00 040662 			XX,,-1]
  2276						DFAD	AC,[0,,0
  2277	032101	110 04 0 00 040453 			0,,0]
  2278	032102	312 04 0 00 040664 		CAME	AC,[YY,,-1]
  2279	032103	003 04 0 00 000243 		ER3	AC,T
  2280	032104	312 05 0 00 040301 		CAME	AC+1,[ZZ&377777,,0]
  2281	032105	004 05 0 00 000243 		ER4	AC+1,T
  2282	032106	321 10 0 00 032100 		JUMPL	AC+4,.-^D6	;LOOP ON ERROR SWITCH^
  2283
  2284			000244		T=T+1
  2285		777777	777377			XX=<XX-1>/2
  2286			643377			YY=YY+1000
  2287		777777	400000			ZZ=ZZ+ZZ
  2288						DFARP	T,600777,-1,XX,-1,0,0,0,0,YY,-1,ZZ&377777,0^
  2289						DMOVE	AC,[600777,,-1
  2290	032107	120 04 0 00 040665 			XX,,-1]
  2291						DFAD	AC,[0,,0
  2292	032110	110 04 0 00 040453 			0,,0]
  2293	032111	312 04 0 00 040667 		CAME	AC,[YY,,-1]
  2294	032112	003 04 0 00 000244 		ER3	AC,T
  2295	032113	312 05 0 00 040156 		CAME	AC+1,[ZZ&377777,,0]
  2296	032114	004 05 0 00 000244 		ER4	AC+1,T
  2297	032115	321 10 0 00 032107 		JUMPL	AC+4,.-^D6	;LOOP ON ERROR SWITCH^
  2298
  2299
  2300		777777	777777			ZZ=-1
  2301
  2302						REPEAT	^D8,
  2303					<T=T+1
  2304						XX=<XX-1>/2
  2305						YY=YY+1000
  2306						ZZ=ZZ+ZZ
  2307						DFARP	T,600777,-1,XX,-1,0,0,0,0,YY,ZZ,0,0
  2308					>
  2309			000245		T=T+1
  2310		777777	777577			XX=<XX-1>/2
  2311			644377			YY=YY+1000
  2312		777777	777776			ZZ=ZZ+ZZ
  2313						DFARP	T,600777,-1,XX,-1,0,0,0,0,YY,ZZ,0,0^
  2314						DMOVE	AC,[600777,,-1
  2315	032116	120 04 0 00 040670 			XX,,-1]
  2316						DFAD	AC,[0,,0
  2317	032117	110 04 0 00 040453 			0,,0]
  2318	032120	312 04 0 00 040672 		CAME	AC,[YY,,ZZ]
  2319	032121	003 04 0 00 000245 		ER3	AC,TDBKCE	PDP-10 KI10 ADVANCED INSTRUCTION DIAGNOSTIC #5, VERSION 0,3 	MACRO %52(462) 13:32  9-AUG-76 PAGE 4-3
DBKCEM	MAC	28-MAY-76 11:21		CHECK NORMALIZATION FOR DOUBLE PRECISION FLOATING POINT NUMBERS                    SEQ 0060

  2320	032122	312 05 0 00 040156 		CAME	AC+1,[0,,0]
  2321	032123	004 05 0 00 000245 		ER4	AC+1,T
  2322	032124	321 10 0 00 032116 		JUMPL	AC+4,.-^D6	;LOOP ON ERROR SWITCH^
  2323
  2324			000246		T=T+1
  2325		777777	777677			XX=<XX-1>/2
  2326			645377			YY=YY+1000
  2327		777777	777774			ZZ=ZZ+ZZ
  2328						DFARP	T,600777,-1,XX,-1,0,0,0,0,YY,ZZ,0,0^
  2329						DMOVE	AC,[600777,,-1
  2330	032125	120 04 0 00 040673 			XX,,-1]
  2331						DFAD	AC,[0,,0
  2332	032126	110 04 0 00 040453 			0,,0]
  2333	032127	312 04 0 00 040675 		CAME	AC,[YY,,ZZ]
  2334	032130	003 04 0 00 000246 		ER3	AC,T
  2335	032131	312 05 0 00 040156 		CAME	AC+1,[0,,0]
  2336	032132	004 05 0 00 000246 		ER4	AC+1,T
  2337	032133	321 10 0 00 032125 		JUMPL	AC+4,.-^D6	;LOOP ON ERROR SWITCH^
  2338
  2339			000247		T=T+1
  2340		777777	777737			XX=<XX-1>/2
  2341			646377			YY=YY+1000
  2342		777777	777770			ZZ=ZZ+ZZ
  2343						DFARP	T,600777,-1,XX,-1,0,0,0,0,YY,ZZ,0,0^
  2344						DMOVE	AC,[600777,,-1
  2345	032134	120 04 0 00 040676 			XX,,-1]
  2346						DFAD	AC,[0,,0
  2347	032135	110 04 0 00 040453 			0,,0]
  2348	032136	312 04 0 00 040700 		CAME	AC,[YY,,ZZ]
  2349	032137	003 04 0 00 000247 		ER3	AC,T
  2350	032140	312 05 0 00 040156 		CAME	AC+1,[0,,0]
  2351	032141	004 05 0 00 000247 		ER4	AC+1,T
  2352	032142	321 10 0 00 032134 		JUMPL	AC+4,.-^D6	;LOOP ON ERROR SWITCH^
  2353
  2354			000250		T=T+1
  2355		777777	777757			XX=<XX-1>/2
  2356			647377			YY=YY+1000
  2357		777777	777760			ZZ=ZZ+ZZ
  2358						DFARP	T,600777,-1,XX,-1,0,0,0,0,YY,ZZ,0,0^
  2359						DMOVE	AC,[600777,,-1
  2360	032143	120 04 0 00 040701 			XX,,-1]
  2361						DFAD	AC,[0,,0
  2362	032144	110 04 0 00 040453 			0,,0]
  2363	032145	312 04 0 00 040703 		CAME	AC,[YY,,ZZ]
  2364	032146	003 04 0 00 000250 		ER3	AC,T
  2365	032147	312 05 0 00 040156 		CAME	AC+1,[0,,0]
  2366	032150	004 05 0 00 000250 		ER4	AC+1,T
  2367	032151	321 10 0 00 032143 		JUMPL	AC+4,.-^D6	;LOOP ON ERROR SWITCH^
  2368
  2369			000251		T=T+1
  2370		777777	777767			XX=<XX-1>/2
  2371			650377			YY=YY+1000
  2372		777777	777740			ZZ=ZZ+ZZ
  2373						DFARP	T,600777,-1,XX,-1,0,0,0,0,YY,ZZ,0,0^
  2374						DMOVE	AC,[600777,,-1DBKCE	PDP-10 KI10 ADVANCED INSTRUCTION DIAGNOSTIC #5, VERSION 0,3 	MACRO %52(462) 13:32  9-AUG-76 PAGE 4-4
DBKCEM	MAC	28-MAY-76 11:21		CHECK NORMALIZATION FOR DOUBLE PRECISION FLOATING POINT NUMBERS                    SEQ 0061

  2375	032152	120 04 0 00 040704 			XX,,-1]
  2376						DFAD	AC,[0,,0
  2377	032153	110 04 0 00 040453 			0,,0]
  2378	032154	312 04 0 00 040706 		CAME	AC,[YY,,ZZ]
  2379	032155	003 04 0 00 000251 		ER3	AC,T
  2380	032156	312 05 0 00 040156 		CAME	AC+1,[0,,0]
  2381	032157	004 05 0 00 000251 		ER4	AC+1,T
  2382	032160	321 10 0 00 032152 		JUMPL	AC+4,.-^D6	;LOOP ON ERROR SWITCH^
  2383
  2384			000252		T=T+1
  2385		777777	777773			XX=<XX-1>/2
  2386			651377			YY=YY+1000
  2387		777777	777700			ZZ=ZZ+ZZ
  2388						DFARP	T,600777,-1,XX,-1,0,0,0,0,YY,ZZ,0,0^
  2389						DMOVE	AC,[600777,,-1
  2390	032161	120 04 0 00 040707 			XX,,-1]
  2391						DFAD	AC,[0,,0
  2392	032162	110 04 0 00 040453 			0,,0]
  2393	032163	312 04 0 00 040711 		CAME	AC,[YY,,ZZ]
  2394	032164	003 04 0 00 000252 		ER3	AC,T
  2395	032165	312 05 0 00 040156 		CAME	AC+1,[0,,0]
  2396	032166	004 05 0 00 000252 		ER4	AC+1,T
  2397	032167	321 10 0 00 032161 		JUMPL	AC+4,.-^D6	;LOOP ON ERROR SWITCH^
  2398
  2399			000253		T=T+1
  2400		777777	777775			XX=<XX-1>/2
  2401			652377			YY=YY+1000
  2402		777777	777600			ZZ=ZZ+ZZ
  2403						DFARP	T,600777,-1,XX,-1,0,0,0,0,YY,ZZ,0,0^
  2404						DMOVE	AC,[600777,,-1
  2405	032170	120 04 0 00 040712 			XX,,-1]
  2406						DFAD	AC,[0,,0
  2407	032171	110 04 0 00 040453 			0,,0]
  2408	032172	312 04 0 00 040714 		CAME	AC,[YY,,ZZ]
  2409	032173	003 04 0 00 000253 		ER3	AC,T
  2410	032174	312 05 0 00 040156 		CAME	AC+1,[0,,0]
  2411	032175	004 05 0 00 000253 		ER4	AC+1,T
  2412	032176	321 10 0 00 032170 		JUMPL	AC+4,.-^D6	;LOOP ON ERROR SWITCH^
  2413
  2414			000254		T=T+1
  2415		777777	777776			XX=<XX-1>/2
  2416			653377			YY=YY+1000
  2417		777777	777400			ZZ=ZZ+ZZ
  2418						DFARP	T,600777,-1,XX,-1,0,0,0,0,YY,ZZ,0,0^
  2419						DMOVE	AC,[600777,,-1
  2420	032177	120 04 0 00 040715 			XX,,-1]
  2421						DFAD	AC,[0,,0
  2422	032200	110 04 0 00 040453 			0,,0]
  2423	032201	312 04 0 00 040717 		CAME	AC,[YY,,ZZ]
  2424	032202	003 04 0 00 000254 		ER3	AC,T
  2425	032203	312 05 0 00 040156 		CAME	AC+1,[0,,0]
  2426	032204	004 05 0 00 000254 		ER4	AC+1,T
  2427	032205	321 10 0 00 032177 		JUMPL	AC+4,.-^D6	;LOOP ON ERROR SWITCH^
  2428
  2429DBKCE	PDP-10 KI10 ADVANCED INSTRUCTION DIAGNOSTIC #5, VERSION 0,3 	MACRO %52(462) 13:32  9-AUG-76 PAGE 4-5
DBKCEM	MAC	28-MAY-76 11:21		CHECK NORMALIZATION FOR DOUBLE PRECISION FLOATING POINT NUMBERS                    SEQ 0062

  2430		777776	777777			XX=777776777777
  2431
  2432						REPEAT	^D10,
  2433					<T=T+1
  2434						XX=<XX-1>/2
  2435						YY=YY+1000
  2436						ZZ=ZZ+ZZ
  2437						DFARP	T,600777,-1,-1,XX,0,0,0,0,YY,ZZ,0,0
  2438					>
  2439			000255		T=T+1
  2440		777777	377777			XX=<XX-1>/2
  2441			654377			YY=YY+1000
  2442		777777	777000			ZZ=ZZ+ZZ
  2443						DFARP	T,600777,-1,-1,XX,0,0,0,0,YY,ZZ,0,0^
  2444						DMOVE	AC,[600777,,-1
  2445	032206	120 04 0 00 040720 			-1,,XX]
  2446						DFAD	AC,[0,,0
  2447	032207	110 04 0 00 040453 			0,,0]
  2448	032210	312 04 0 00 040722 		CAME	AC,[YY,,ZZ]
  2449	032211	003 04 0 00 000255 		ER3	AC,T
  2450	032212	312 05 0 00 040156 		CAME	AC+1,[0,,0]
  2451	032213	004 05 0 00 000255 		ER4	AC+1,T
  2452	032214	321 10 0 00 032206 		JUMPL	AC+4,.-^D6	;LOOP ON ERROR SWITCH^
  2453
  2454			000256		T=T+1
  2455		777777	577777			XX=<XX-1>/2
  2456			655377			YY=YY+1000
  2457		777777	776000			ZZ=ZZ+ZZ
  2458						DFARP	T,600777,-1,-1,XX,0,0,0,0,YY,ZZ,0,0^
  2459						DMOVE	AC,[600777,,-1
  2460	032215	120 04 0 00 040723 			-1,,XX]
  2461						DFAD	AC,[0,,0
  2462	032216	110 04 0 00 040453 			0,,0]
  2463	032217	312 04 0 00 040725 		CAME	AC,[YY,,ZZ]
  2464	032220	003 04 0 00 000256 		ER3	AC,T
  2465	032221	312 05 0 00 040156 		CAME	AC+1,[0,,0]
  2466	032222	004 05 0 00 000256 		ER4	AC+1,T
  2467	032223	321 10 0 00 032215 		JUMPL	AC+4,.-^D6	;LOOP ON ERROR SWITCH^
  2468
  2469			000257		T=T+1
  2470		777777	677777			XX=<XX-1>/2
  2471			656377			YY=YY+1000
  2472		777777	774000			ZZ=ZZ+ZZ
  2473						DFARP	T,600777,-1,-1,XX,0,0,0,0,YY,ZZ,0,0^
  2474						DMOVE	AC,[600777,,-1
  2475	032224	120 04 0 00 040726 			-1,,XX]
  2476						DFAD	AC,[0,,0
  2477	032225	110 04 0 00 040453 			0,,0]
  2478	032226	312 04 0 00 040730 		CAME	AC,[YY,,ZZ]
  2479	032227	003 04 0 00 000257 		ER3	AC,T
  2480	032230	312 05 0 00 040156 		CAME	AC+1,[0,,0]
  2481	032231	004 05 0 00 000257 		ER4	AC+1,T
  2482	032232	321 10 0 00 032224 		JUMPL	AC+4,.-^D6	;LOOP ON ERROR SWITCH^
  2483
  2484			000260		T=T+1DBKCE	PDP-10 KI10 ADVANCED INSTRUCTION DIAGNOSTIC #5, VERSION 0,3 	MACRO %52(462) 13:32  9-AUG-76 PAGE 4-6
DBKCEM	MAC	28-MAY-76 11:21		CHECK NORMALIZATION FOR DOUBLE PRECISION FLOATING POINT NUMBERS                    SEQ 0063

  2485		777777	737777			XX=<XX-1>/2
  2486			657377			YY=YY+1000
  2487		777777	770000			ZZ=ZZ+ZZ
  2488						DFARP	T,600777,-1,-1,XX,0,0,0,0,YY,ZZ,0,0^
  2489						DMOVE	AC,[600777,,-1
  2490	032233	120 04 0 00 040731 			-1,,XX]
  2491						DFAD	AC,[0,,0
  2492	032234	110 04 0 00 040453 			0,,0]
  2493	032235	312 04 0 00 040733 		CAME	AC,[YY,,ZZ]
  2494	032236	003 04 0 00 000260 		ER3	AC,T
  2495	032237	312 05 0 00 040156 		CAME	AC+1,[0,,0]
  2496	032240	004 05 0 00 000260 		ER4	AC+1,T
  2497	032241	321 10 0 00 032233 		JUMPL	AC+4,.-^D6	;LOOP ON ERROR SWITCH^
  2498
  2499			000261		T=T+1
  2500		777777	757777			XX=<XX-1>/2
  2501			660377			YY=YY+1000
  2502		777777	760000			ZZ=ZZ+ZZ
  2503						DFARP	T,600777,-1,-1,XX,0,0,0,0,YY,ZZ,0,0^
  2504						DMOVE	AC,[600777,,-1
  2505	032242	120 04 0 00 040734 			-1,,XX]
  2506						DFAD	AC,[0,,0
  2507	032243	110 04 0 00 040453 			0,,0]
  2508	032244	312 04 0 00 040736 		CAME	AC,[YY,,ZZ]
  2509	032245	003 04 0 00 000261 		ER3	AC,T
  2510	032246	312 05 0 00 040156 		CAME	AC+1,[0,,0]
  2511	032247	004 05 0 00 000261 		ER4	AC+1,T
  2512	032250	321 10 0 00 032242 		JUMPL	AC+4,.-^D6	;LOOP ON ERROR SWITCH^
  2513
  2514			000262		T=T+1
  2515		777777	767777			XX=<XX-1>/2
  2516			661377			YY=YY+1000
  2517		777777	740000			ZZ=ZZ+ZZ
  2518						DFARP	T,600777,-1,-1,XX,0,0,0,0,YY,ZZ,0,0^
  2519						DMOVE	AC,[600777,,-1
  2520	032251	120 04 0 00 040737 			-1,,XX]
  2521						DFAD	AC,[0,,0
  2522	032252	110 04 0 00 040453 			0,,0]
  2523	032253	312 04 0 00 040741 		CAME	AC,[YY,,ZZ]
  2524	032254	003 04 0 00 000262 		ER3	AC,T
  2525	032255	312 05 0 00 040156 		CAME	AC+1,[0,,0]
  2526	032256	004 05 0 00 000262 		ER4	AC+1,T
  2527	032257	321 10 0 00 032251 		JUMPL	AC+4,.-^D6	;LOOP ON ERROR SWITCH^
  2528
  2529			000263		T=T+1
  2530		777777	773777			XX=<XX-1>/2
  2531			662377			YY=YY+1000
  2532		777777	700000			ZZ=ZZ+ZZ
  2533						DFARP	T,600777,-1,-1,XX,0,0,0,0,YY,ZZ,0,0^
  2534						DMOVE	AC,[600777,,-1
  2535	032260	120 04 0 00 040742 			-1,,XX]
  2536						DFAD	AC,[0,,0
  2537	032261	110 04 0 00 040453 			0,,0]
  2538	032262	312 04 0 00 040744 		CAME	AC,[YY,,ZZ]
  2539	032263	003 04 0 00 000263 		ER3	AC,TDBKCE	PDP-10 KI10 ADVANCED INSTRUCTION DIAGNOSTIC #5, VERSION 0,3 	MACRO %52(462) 13:32  9-AUG-76 PAGE 4-7
DBKCEM	MAC	28-MAY-76 11:21		CHECK NORMALIZATION FOR DOUBLE PRECISION FLOATING POINT NUMBERS                    SEQ 0064

  2540	032264	312 05 0 00 040156 		CAME	AC+1,[0,,0]
  2541	032265	004 05 0 00 000263 		ER4	AC+1,T
  2542	032266	321 10 0 00 032260 		JUMPL	AC+4,.-^D6	;LOOP ON ERROR SWITCH^
  2543
  2544			000264		T=T+1
  2545		777777	775777			XX=<XX-1>/2
  2546			663377			YY=YY+1000
  2547		777777	600000			ZZ=ZZ+ZZ
  2548						DFARP	T,600777,-1,-1,XX,0,0,0,0,YY,ZZ,0,0^
  2549						DMOVE	AC,[600777,,-1
  2550	032267	120 04 0 00 040745 			-1,,XX]
  2551						DFAD	AC,[0,,0
  2552	032270	110 04 0 00 040453 			0,,0]
  2553	032271	312 04 0 00 040747 		CAME	AC,[YY,,ZZ]
  2554	032272	003 04 0 00 000264 		ER3	AC,T
  2555	032273	312 05 0 00 040156 		CAME	AC+1,[0,,0]
  2556	032274	004 05 0 00 000264 		ER4	AC+1,T
  2557	032275	321 10 0 00 032267 		JUMPL	AC+4,.-^D6	;LOOP ON ERROR SWITCH^
  2558
  2559			000265		T=T+1
  2560		777777	776777			XX=<XX-1>/2
  2561			664377			YY=YY+1000
  2562		777777	400000			ZZ=ZZ+ZZ
  2563						DFARP	T,600777,-1,-1,XX,0,0,0,0,YY,ZZ,0,0^
  2564						DMOVE	AC,[600777,,-1
  2565	032276	120 04 0 00 040750 			-1,,XX]
  2566						DFAD	AC,[0,,0
  2567	032277	110 04 0 00 040453 			0,,0]
  2568	032300	312 04 0 00 040752 		CAME	AC,[YY,,ZZ]
  2569	032301	003 04 0 00 000265 		ER3	AC,T
  2570	032302	312 05 0 00 040156 		CAME	AC+1,[0,,0]
  2571	032303	004 05 0 00 000265 		ER4	AC+1,T
  2572	032304	321 10 0 00 032276 		JUMPL	AC+4,.-^D6	;LOOP ON ERROR SWITCH^
  2573
  2574			000266		T=T+1
  2575		777777	777377			XX=<XX-1>/2
  2576			665377			YY=YY+1000
  2577		777777	000000			ZZ=ZZ+ZZ
  2578						DFARP	T,600777,-1,-1,XX,0,0,0,0,YY,ZZ,0,0^
  2579						DMOVE	AC,[600777,,-1
  2580	032305	120 04 0 00 040753 			-1,,XX]
  2581						DFAD	AC,[0,,0
  2582	032306	110 04 0 00 040453 			0,,0]
  2583	032307	312 04 0 00 040755 		CAME	AC,[YY,,ZZ]
  2584	032310	003 04 0 00 000266 		ER3	AC,T
  2585	032311	312 05 0 00 040156 		CAME	AC+1,[0,,0]
  2586	032312	004 05 0 00 000266 		ER4	AC+1,T
  2587	032313	321 10 0 00 032305 		JUMPL	AC+4,.-^D6	;LOOP ON ERROR SWITCH^
  2588
  2589
  2590			665000			YY=YY-377
  2591		777777	777777			ZZ=-1
  2592
  2593						REPEAT	^D7,
  2594					<T=T+1DBKCE	PDP-10 KI10 ADVANCED INSTRUCTION DIAGNOSTIC #5, VERSION 0,3 	MACRO %52(462) 13:32  9-AUG-76 PAGE 4-8
DBKCEM	MAC	28-MAY-76 11:21		CHECK NORMALIZATION FOR DOUBLE PRECISION FLOATING POINT NUMBERS                    SEQ 0065

  2595						XX=<XX-1>/2
  2596						YY=YY+1000
  2597						ZZ=ZZ+ZZ
  2598						DFARP	T,600777,-1,-1,XX,0,0,0,0,YY+ZZ&377,0,0,0
  2599					>
  2600			000267		T=T+1
  2601		777777	777577			XX=<XX-1>/2
  2602			666000			YY=YY+1000
  2603		777777	777776			ZZ=ZZ+ZZ
  2604						DFARP	T,600777,-1,-1,XX,0,0,0,0,YY+ZZ&377,0,0,0^
  2605						DMOVE	AC,[600777,,-1
  2606	032314	120 04 0 00 040756 			-1,,XX]
  2607						DFAD	AC,[0,,0
  2608	032315	110 04 0 00 040453 			0,,0]
  2609	032316	312 04 0 00 040760 		CAME	AC,[YY+ZZ&377,,0]
  2610	032317	003 04 0 00 000267 		ER3	AC,T
  2611	032320	312 05 0 00 040156 		CAME	AC+1,[0,,0]
  2612	032321	004 05 0 00 000267 		ER4	AC+1,T
  2613	032322	321 10 0 00 032314 		JUMPL	AC+4,.-^D6	;LOOP ON ERROR SWITCH^
  2614
  2615			000270		T=T+1
  2616		777777	777677			XX=<XX-1>/2
  2617			667000			YY=YY+1000
  2618		777777	777774			ZZ=ZZ+ZZ
  2619						DFARP	T,600777,-1,-1,XX,0,0,0,0,YY+ZZ&377,0,0,0^
  2620						DMOVE	AC,[600777,,-1
  2621	032323	120 04 0 00 040761 			-1,,XX]
  2622						DFAD	AC,[0,,0
  2623	032324	110 04 0 00 040453 			0,,0]
  2624	032325	312 04 0 00 040763 		CAME	AC,[YY+ZZ&377,,0]
  2625	032326	003 04 0 00 000270 		ER3	AC,T
  2626	032327	312 05 0 00 040156 		CAME	AC+1,[0,,0]
  2627	032330	004 05 0 00 000270 		ER4	AC+1,T
  2628	032331	321 10 0 00 032323 		JUMPL	AC+4,.-^D6	;LOOP ON ERROR SWITCH^
  2629
  2630			000271		T=T+1
  2631		777777	777737			XX=<XX-1>/2
  2632			670000			YY=YY+1000
  2633		777777	777770			ZZ=ZZ+ZZ
  2634						DFARP	T,600777,-1,-1,XX,0,0,0,0,YY+ZZ&377,0,0,0^
  2635						DMOVE	AC,[600777,,-1
  2636	032332	120 04 0 00 040764 			-1,,XX]
  2637						DFAD	AC,[0,,0
  2638	032333	110 04 0 00 040453 			0,,0]
  2639	032334	312 04 0 00 040766 		CAME	AC,[YY+ZZ&377,,0]
  2640	032335	003 04 0 00 000271 		ER3	AC,T
  2641	032336	312 05 0 00 040156 		CAME	AC+1,[0,,0]
  2642	032337	004 05 0 00 000271 		ER4	AC+1,T
  2643	032340	321 10 0 00 032332 		JUMPL	AC+4,.-^D6	;LOOP ON ERROR SWITCH^
  2644
  2645			000272		T=T+1
  2646		777777	777757			XX=<XX-1>/2
  2647			671000			YY=YY+1000
  2648		777777	777760			ZZ=ZZ+ZZ
  2649						DFARP	T,600777,-1,-1,XX,0,0,0,0,YY+ZZ&377,0,0,0^DBKCE	PDP-10 KI10 ADVANCED INSTRUCTION DIAGNOSTIC #5, VERSION 0,3 	MACRO %52(462) 13:32  9-AUG-76 PAGE 4-9
DBKCEM	MAC	28-MAY-76 11:21		CHECK NORMALIZATION FOR DOUBLE PRECISION FLOATING POINT NUMBERS                    SEQ 0066

  2650						DMOVE	AC,[600777,,-1
  2651	032341	120 04 0 00 040767 			-1,,XX]
  2652						DFAD	AC,[0,,0
  2653	032342	110 04 0 00 040453 			0,,0]
  2654	032343	312 04 0 00 040771 		CAME	AC,[YY+ZZ&377,,0]
  2655	032344	003 04 0 00 000272 		ER3	AC,T
  2656	032345	312 05 0 00 040156 		CAME	AC+1,[0,,0]
  2657	032346	004 05 0 00 000272 		ER4	AC+1,T
  2658	032347	321 10 0 00 032341 		JUMPL	AC+4,.-^D6	;LOOP ON ERROR SWITCH^
  2659
  2660			000273		T=T+1
  2661		777777	777767			XX=<XX-1>/2
  2662			672000			YY=YY+1000
  2663		777777	777740			ZZ=ZZ+ZZ
  2664						DFARP	T,600777,-1,-1,XX,0,0,0,0,YY+ZZ&377,0,0,0^
  2665						DMOVE	AC,[600777,,-1
  2666	032350	120 04 0 00 040772 			-1,,XX]
  2667						DFAD	AC,[0,,0
  2668	032351	110 04 0 00 040453 			0,,0]
  2669	032352	312 04 0 00 040774 		CAME	AC,[YY+ZZ&377,,0]
  2670	032353	003 04 0 00 000273 		ER3	AC,T
  2671	032354	312 05 0 00 040156 		CAME	AC+1,[0,,0]
  2672	032355	004 05 0 00 000273 		ER4	AC+1,T
  2673	032356	321 10 0 00 032350 		JUMPL	AC+4,.-^D6	;LOOP ON ERROR SWITCH^
  2674
  2675			000274		T=T+1
  2676		777777	777773			XX=<XX-1>/2
  2677			673000			YY=YY+1000
  2678		777777	777700			ZZ=ZZ+ZZ
  2679						DFARP	T,600777,-1,-1,XX,0,0,0,0,YY+ZZ&377,0,0,0^
  2680						DMOVE	AC,[600777,,-1
  2681	032357	120 04 0 00 040775 			-1,,XX]
  2682						DFAD	AC,[0,,0
  2683	032360	110 04 0 00 040453 			0,,0]
  2684	032361	312 04 0 00 040777 		CAME	AC,[YY+ZZ&377,,0]
  2685	032362	003 04 0 00 000274 		ER3	AC,T
  2686	032363	312 05 0 00 040156 		CAME	AC+1,[0,,0]
  2687	032364	004 05 0 00 000274 		ER4	AC+1,T
  2688	032365	321 10 0 00 032357 		JUMPL	AC+4,.-^D6	;LOOP ON ERROR SWITCH^
  2689
  2690			000275		T=T+1
  2691		777777	777775			XX=<XX-1>/2
  2692			674000			YY=YY+1000
  2693		777777	777600			ZZ=ZZ+ZZ
  2694						DFARP	T,600777,-1,-1,XX,0,0,0,0,YY+ZZ&377,0,0,0^
  2695						DMOVE	AC,[600777,,-1
  2696	032366	120 04 0 00 041000 			-1,,XX]
  2697						DFAD	AC,[0,,0
  2698	032367	110 04 0 00 040453 			0,,0]
  2699	032370	312 04 0 00 041002 		CAME	AC,[YY+ZZ&377,,0]
  2700	032371	003 04 0 00 000275 		ER3	AC,T
  2701	032372	312 05 0 00 040156 		CAME	AC+1,[0,,0]
  2702	032373	004 05 0 00 000275 		ER4	AC+1,T
  2703	032374	321 10 0 00 032366 		JUMPL	AC+4,.-^D6	;LOOP ON ERROR SWITCH^
  2704DBKCE	PDP-10 KI10 ADVANCED INSTRUCTION DIAGNOSTIC #5, VERSION 0,3 	MACRO %52(462) 13:32  9-AUG-76 PAGE 4-10
DBKCEM	MAC	28-MAY-76 11:21		CHECK NORMALIZATION FOR DOUBLE PRECISION FLOATING POINT NUMBERS                    SEQ 0067

  2705
  2706			000276		T=T+1
  2707		777777	777776			XX=<XX-1>/2
  2708		777777	777400			ZZ=ZZ+ZZ
  2709						DFARP	T,600777,-1,-1,XX,0,0,0,0,YY+ZZ&777,0,0,0^
  2710						DMOVE	AC,[600777,,-1
  2711	032375	120 04 0 00 041003 			-1,,XX]
  2712						DFAD	AC,[0,,0
  2713	032376	110 04 0 00 040453 			0,,0]
  2714	032377	312 04 0 00 041005 		CAME	AC,[YY+ZZ&777,,0]
  2715	032400	003 04 0 00 000276 		ER3	AC,T
  2716	032401	312 05 0 00 040156 		CAME	AC+1,[0,,0]
  2717	032402	004 05 0 00 000276 		ER4	AC+1,T
  2718	032403	321 10 0 00 032375 		JUMPL	AC+4,.-^D6	;LOOP ON ERROR SWITCH^DBKCE	PDP-10 KI10 ADVANCED INSTRUCTION DIAGNOSTIC #5, VERSION 0,3 	MACRO %52(462) 13:32  9-AUG-76 PAGE 5
DBKCEM	MAC	28-MAY-76 11:21		CHECK NORMALIZATION FOR DOUBLE PRECISION FLOATING POINT NUMBERS                    SEQ 0068

  2719
  2720					SUBTTL	DFAD TEST-DOUBLE FLOATING POINT ADD AND ROUND
  2721
  2722					;CHECK THAT DFAD AC,E DOES NOT ALTER C(E) OR C(E+1)
  2723
  2724					S10100:	DMOVE	AC,[200777,,-1
  2725	032404	120 04 0 00 041006 			-1,,-1]
  2726						DMOVE	AC+2,[200000,,0
  2727	032405	120 06 0 00 041010 			400000,,-1]
  2728	032406	110 04 0 00 000006 		DFAD	AC,AC+2
  2729	032407	312 06 0 00 040301 		CAME	AC+2,[200000,,0]
  2730	032410	005 06 0 00 010101 		ER5	AC+2,10101	;C(E) WAS ALTERED
  2731	032411	312 07 0 00 041011 		CAME	AC+3,[400000,,-1]
  2732	032412	006 07 0 00 010101 		ER6	AC+3,10101	;C(E+1) WAS ALTERED
  2733	032413	321 10 0 00 032404 		JUMPL	AC+4,S10100	;LOOP ON ERROR SWITCH
  2734
  2735						DFA	102,600,0,0,0,400,0,0,0,1500,0,0,0^
  2736					S10200:	DMOVE	AC,[600,,0
  2737	032414	120 04 0 00 041012 			0,,0]
  2738						DFAD	AC,[400,,0
  2739	032415	110 04 0 00 041014 			0,,0]
  2740	032416	312 04 0 00 041016 		CAME	AC,[1500,,0]
  2741	032417	003 04 0 00 010201 		ER3	AC,10201
  2742	032420	312 05 0 00 040156 		CAME	AC+1,[0,,0]
  2743	032421	004 05 0 00 010201 		ER4	AC+1,10201
  2744	032422	321 10 0 00 032414 		JUMPL	AC+4,S10200	;LOOP ON ERROR SWITCH^
  2745
  2746						DFA	103,377000,0,0,0,377600,0,0,0,377600,0,0,0^
  2747					S10300:	DMOVE	AC,[377000,,0
  2748	032423	120 04 0 00 041017 			0,,0]
  2749						DFAD	AC,[377600,,0
  2750	032424	110 04 0 00 041021 			0,,0]
  2751	032425	312 04 0 00 040621 		CAME	AC,[377600,,0]
  2752	032426	003 04 0 00 010301 		ER3	AC,10301
  2753	032427	312 05 0 00 040156 		CAME	AC+1,[0,,0]
  2754	032430	004 05 0 00 010301 		ER4	AC+1,10301
  2755	032431	321 10 0 00 032423 		JUMPL	AC+4,S10300	;LOOP ON ERROR SWITCH^
  2756
  2757						DFA	104,600400,0,0,0,177400,0,0,0,0,0,0,0^
  2758					S10400:	DMOVE	AC,[600400,,0
  2759	032432	120 04 0 00 041023 			0,,0]
  2760						DFAD	AC,[177400,,0
  2761	032433	110 04 0 00 041025 			0,,0]
  2762	032434	312 04 0 00 040156 		CAME	AC,[0,,0]
  2763	032435	003 04 0 00 010401 		ER3	AC,10401
  2764	032436	312 05 0 00 040156 		CAME	AC+1,[0,,0]
  2765	032437	004 05 0 00 010401 		ER4	AC+1,10401
  2766	032440	321 10 0 00 032432 		JUMPL	AC+4,S10400	;LOOP ON ERROR SWITCH^
  2767
  2768						DFA	105,200400,0,0,0,205400,0,0,0,205410,0,0,0^
  2769					S10500:	DMOVE	AC,[200400,,0
  2770	032441	120 04 0 00 041027 			0,,0]
  2771						DFAD	AC,[205400,,0
  2772	032442	110 04 0 00 041031 			0,,0]
  2773	032443	312 04 0 00 041033 		CAME	AC,[205410,,0]DBKCE	PDP-10 KI10 ADVANCED INSTRUCTION DIAGNOSTIC #5, VERSION 0,3 	MACRO %52(462) 13:32  9-AUG-76 PAGE 5-1
DBKCEM	MAC	28-MAY-76 11:21		DFAD TEST-DOUBLE FLOATING POINT ADD AND ROUND                                      SEQ 0069

  2774	032444	003 04 0 00 010501 		ER3	AC,10501
  2775	032445	312 05 0 00 040156 		CAME	AC+1,[0,,0]
  2776	032446	004 05 0 00 010501 		ER4	AC+1,10501
  2777	032447	321 10 0 00 032441 		JUMPL	AC+4,S10500	;LOOP ON ERROR SWITCH^
  2778
  2779						DFA	106,200400,0,0,0,205600,0,0,0,205610,0,0,0^
  2780					S10600:	DMOVE	AC,[200400,,0
  2781	032450	120 04 0 00 041027 			0,,0]
  2782						DFAD	AC,[205600,,0
  2783	032451	110 04 0 00 041034 			0,,0]
  2784	032452	312 04 0 00 041036 		CAME	AC,[205610,,0]
  2785	032453	003 04 0 00 010601 		ER3	AC,10601
  2786	032454	312 05 0 00 040156 		CAME	AC+1,[0,,0]
  2787	032455	004 05 0 00 010601 		ER4	AC+1,10601
  2788	032456	321 10 0 00 032450 		JUMPL	AC+4,S10600	;LOOP ON ERROR SWITCH^
  2789
  2790						DFA	107,600,0,0,0,200400,0,0,0,200400,0,0,0^
  2791					S10700:	DMOVE	AC,[600,,0
  2792	032457	120 04 0 00 041012 			0,,0]
  2793						DFAD	AC,[200400,,0
  2794	032460	110 04 0 00 041027 			0,,0]
  2795	032461	312 04 0 00 040161 		CAME	AC,[200400,,0]
  2796	032462	003 04 0 00 010701 		ER3	AC,10701
  2797	032463	312 05 0 00 040156 		CAME	AC+1,[0,,0]
  2798	032464	004 05 0 00 010701 		ER4	AC+1,10701
  2799	032465	321 10 0 00 032457 		JUMPL	AC+4,S10700	;LOOP ON ERROR SWITCH^
  2800
  2801						DFA	110,200700,0,0,0,0,0,0,0,200700,0,0,0^
  2802					S11000:	DMOVE	AC,[200700,,0
  2803	032466	120 04 0 00 041037 			0,,0]
  2804						DFAD	AC,[0,,0
  2805	032467	110 04 0 00 040453 			0,,0]
  2806	032470	312 04 0 00 041037 		CAME	AC,[200700,,0]
  2807	032471	003 04 0 00 011001 		ER3	AC,11001
  2808	032472	312 05 0 00 040156 		CAME	AC+1,[0,,0]
  2809	032473	004 05 0 00 011001 		ER4	AC+1,11001
  2810	032474	321 10 0 00 032466 		JUMPL	AC+4,S11000	;LOOP ON ERROR SWITCH^
  2811
  2812						DFA	111,201400,0,0,0,200400,0,0,0,201600,0,0,0^
  2813					S11100:	DMOVE	AC,[201400,,0
  2814	032475	120 04 0 00 040155 			0,,0]
  2815						DFAD	AC,[200400,,0
  2816	032476	110 04 0 00 041027 			0,,0]
  2817	032477	312 04 0 00 041041 		CAME	AC,[201600,,0]
  2818	032500	003 04 0 00 011101 		ER3	AC,11101
  2819	032501	312 05 0 00 040156 		CAME	AC+1,[0,,0]
  2820	032502	004 05 0 00 011101 		ER4	AC+1,11101
  2821	032503	321 10 0 00 032475 		JUMPL	AC+4,S11100	;LOOP ON ERROR SWITCH^
  2822
  2823						DFA	112,202400,0,0,0,200400,0,0,0,202500,0,0,0^
  2824					S11200:	DMOVE	AC,[202400,,0
  2825	032504	120 04 0 00 041042 			0,,0]
  2826						DFAD	AC,[200400,,0
  2827	032505	110 04 0 00 041027 			0,,0]
  2828	032506	312 04 0 00 041044 		CAME	AC,[202500,,0]DBKCE	PDP-10 KI10 ADVANCED INSTRUCTION DIAGNOSTIC #5, VERSION 0,3 	MACRO %52(462) 13:32  9-AUG-76 PAGE 5-2
DBKCEM	MAC	28-MAY-76 11:21		DFAD TEST-DOUBLE FLOATING POINT ADD AND ROUND                                      SEQ 0070

  2829	032507	003 04 0 00 011201 		ER3	AC,11201
  2830	032510	312 05 0 00 040156 		CAME	AC+1,[0,,0]
  2831	032511	004 05 0 00 011201 		ER4	AC+1,11201
  2832	032512	321 10 0 00 032504 		JUMPL	AC+4,S11200	;LOOP ON ERROR SWITCH^
  2833
  2834						DFA	113,204400,0,0,0,200400,0,0,0,204420,0,0,0^
  2835					S11300:	DMOVE	AC,[204400,,0
  2836	032513	120 04 0 00 041045 			0,,0]
  2837						DFAD	AC,[200400,,0
  2838	032514	110 04 0 00 041027 			0,,0]
  2839	032515	312 04 0 00 041047 		CAME	AC,[204420,,0]
  2840	032516	003 04 0 00 011301 		ER3	AC,11301
  2841	032517	312 05 0 00 040156 		CAME	AC+1,[0,,0]
  2842	032520	004 05 0 00 011301 		ER4	AC+1,11301
  2843	032521	321 10 0 00 032513 		JUMPL	AC+4,S11300	;LOOP ON ERROR SWITCH^
  2844
  2845						DFA	114,210400,0,0,0,200400,0,0,0,210401,0,0,0^
  2846					S11400:	DMOVE	AC,[210400,,0
  2847	032522	120 04 0 00 041050 			0,,0]
  2848						DFAD	AC,[200400,,0
  2849	032523	110 04 0 00 041027 			0,,0]
  2850	032524	312 04 0 00 041052 		CAME	AC,[210401,,0]
  2851	032525	003 04 0 00 011401 		ER3	AC,11401
  2852	032526	312 05 0 00 040156 		CAME	AC+1,[0,,0]
  2853	032527	004 05 0 00 011401 		ER4	AC+1,11401
  2854	032530	321 10 0 00 032522 		JUMPL	AC+4,S11400	;LOOP ON ERROR SWITCH^
  2855
  2856						DFA	115,220400,0,0,0,200400,0,0,0,220400,2000,0,0^
  2857					S11500:	DMOVE	AC,[220400,,0
  2858	032531	120 04 0 00 041053 			0,,0]
  2859						DFAD	AC,[200400,,0
  2860	032532	110 04 0 00 041027 			0,,0]
  2861	032533	312 04 0 00 041055 		CAME	AC,[220400,,2000]
  2862	032534	003 04 0 00 011501 		ER3	AC,11501
  2863	032535	312 05 0 00 040156 		CAME	AC+1,[0,,0]
  2864	032536	004 05 0 00 011501 		ER4	AC+1,11501
  2865	032537	321 10 0 00 032531 		JUMPL	AC+4,S11500	;LOOP ON ERROR SWITCH^
  2866
  2867						DFA	116,240400,0,0,0,200400,0,0,0,240400,0,4000,0^
  2868					S11600:	DMOVE	AC,[240400,,0
  2869	032540	120 04 0 00 041056 			0,,0]
  2870						DFAD	AC,[200400,,0
  2871	032541	110 04 0 00 041027 			0,,0]
  2872	032542	312 04 0 00 041056 		CAME	AC,[240400,,0]
  2873	032543	003 04 0 00 011601 		ER3	AC,11601
  2874	032544	312 05 0 00 040320 		CAME	AC+1,[4000,,0]
  2875	032545	004 05 0 00 011601 		ER4	AC+1,11601
  2876	032546	321 10 0 00 032540 		JUMPL	AC+4,S11600	;LOOP ON ERROR SWITCH^
  2877
  2878						DFA	117,300400,0,0,0,200400,0,0,0,300400,0,0,0^
  2879					S11700:	DMOVE	AC,[300400,,0
  2880	032547	120 04 0 00 041060 			0,,0]
  2881						DFAD	AC,[200400,,0
  2882	032550	110 04 0 00 041027 			0,,0]
  2883	032551	312 04 0 00 041060 		CAME	AC,[300400,,0]DBKCE	PDP-10 KI10 ADVANCED INSTRUCTION DIAGNOSTIC #5, VERSION 0,3 	MACRO %52(462) 13:32  9-AUG-76 PAGE 5-3
DBKCEM	MAC	28-MAY-76 11:21		DFAD TEST-DOUBLE FLOATING POINT ADD AND ROUND                                      SEQ 0071

  2884	032552	003 04 0 00 011701 		ER3	AC,11701
  2885	032553	312 05 0 00 040156 		CAME	AC+1,[0,,0]
  2886	032554	004 05 0 00 011701 		ER4	AC+1,11701
  2887	032555	321 10 0 00 032547 		JUMPL	AC+4,S11700	;LOOP ON ERROR SWITCH^
  2888
  2889						DFA	120,600400,0,0,0,600400,0,0,0,577400,0,0,0^
  2890					S12000:	DMOVE	AC,[600400,,0
  2891	032556	120 04 0 00 041023 			0,,0]
  2892						DFAD	AC,[600400,,0
  2893	032557	110 04 0 00 041023 			0,,0]
  2894	032560	312 04 0 00 040157 		CAME	AC,[577400,,0]
  2895	032561	003 04 0 00 012001 		ER3	AC,12001
  2896	032562	312 05 0 00 040156 		CAME	AC+1,[0,,0]
  2897	032563	004 05 0 00 012001 		ER4	AC+1,12001
  2898	032564	321 10 0 00 032556 		JUMPL	AC+4,S12000	;LOOP ON ERROR SWITCH^
  2899
  2900						DFA	121,0,0,0,0,205400,0,0,0,205400,0,0,0^
  2901					S12100:	DMOVE	AC,[0,,0
  2902	032565	120 04 0 00 040453 			0,,0]
  2903						DFAD	AC,[205400,,0
  2904	032566	110 04 0 00 041031 			0,,0]
  2905	032567	312 04 0 00 041031 		CAME	AC,[205400,,0]
  2906	032570	003 04 0 00 012101 		ER3	AC,12101
  2907	032571	312 05 0 00 040156 		CAME	AC+1,[0,,0]
  2908	032572	004 05 0 00 012101 		ER4	AC+1,12101
  2909	032573	321 10 0 00 032565 		JUMPL	AC+4,S12100	;LOOP ON ERROR SWITCH^
  2910
  2911						DFA	122,200400,0,0,0,200400,0,0,0,201400,0,0,0^
  2912					S12200:	DMOVE	AC,[200400,,0
  2913	032574	120 04 0 00 041027 			0,,0]
  2914						DFAD	AC,[200400,,0
  2915	032575	110 04 0 00 041027 			0,,0]
  2916	032576	312 04 0 00 040155 		CAME	AC,[201400,,0]
  2917	032577	003 04 0 00 012201 		ER3	AC,12201
  2918	032600	312 05 0 00 040156 		CAME	AC+1,[0,,0]
  2919	032601	004 05 0 00 012201 		ER4	AC+1,12201
  2920	032602	321 10 0 00 032574 		JUMPL	AC+4,S12200	;LOOP ON ERROR SWITCH^
  2921
  2922						DFA	123,577400,0,0,0,577400,0,0,0,576400,0,0,0^
  2923					S12300:	DMOVE	AC,[577400,,0
  2924	032603	120 04 0 00 040157 			0,,0]
  2925						DFAD	AC,[577400,,0
  2926	032604	110 04 0 00 040157 			0,,0]
  2927	032605	312 04 0 00 041062 		CAME	AC,[576400,,0]
  2928	032606	003 04 0 00 012301 		ER3	AC,12301
  2929	032607	312 05 0 00 040156 		CAME	AC+1,[0,,0]
  2930	032610	004 05 0 00 012301 		ER4	AC+1,12301
  2931	032611	321 10 0 00 032603 		JUMPL	AC+4,S12300	;LOOP ON ERROR SWITCH^
  2932
  2933						DFA	124,205600,0,0,0,177400,0,0,0,205604,0,0,0^
  2934					S12400:	DMOVE	AC,[205600,,0
  2935	032612	120 04 0 00 041034 			0,,0]
  2936						DFAD	AC,[177400,,0
  2937	032613	110 04 0 00 041025 			0,,0]
  2938	032614	312 04 0 00 041063 		CAME	AC,[205604,,0]DBKCE	PDP-10 KI10 ADVANCED INSTRUCTION DIAGNOSTIC #5, VERSION 0,3 	MACRO %52(462) 13:32  9-AUG-76 PAGE 5-4
DBKCEM	MAC	28-MAY-76 11:21		DFAD TEST-DOUBLE FLOATING POINT ADD AND ROUND                                      SEQ 0072

  2939	032615	003 04 0 00 012401 		ER3	AC,12401
  2940	032616	312 05 0 00 040156 		CAME	AC+1,[0,,0]
  2941	032617	004 05 0 00 012401 		ER4	AC+1,12401
  2942	032620	321 10 0 00 032612 		JUMPL	AC+4,S12400	;LOOP ON ERROR SWITCH^DBKCE	PDP-10 KI10 ADVANCED INSTRUCTION DIAGNOSTIC #5, VERSION 0,3 	MACRO %52(462) 13:32  9-AUG-76 PAGE 6
DBKCEM	MAC	28-MAY-76 11:21		DFAD TEST-DOUBLE FLOATING POINT ADD AND ROUND                                      SEQ 0073

  2943
  2944						DFA	125,201000,0,0,0,202000,0,0,0,0,0,0,0^
  2945					S12500:	DMOVE	AC,[201000,,0
  2946	032621	120 04 0 00 041064 			0,,0]
  2947						DFAD	AC,[202000,,0
  2948	032622	110 04 0 00 041066 			0,,0]
  2949	032623	312 04 0 00 040156 		CAME	AC,[0,,0]
  2950	032624	003 04 0 00 012501 		ER3	AC,12501
  2951	032625	312 05 0 00 040156 		CAME	AC+1,[0,,0]
  2952	032626	004 05 0 00 012501 		ER4	AC+1,12501
  2953	032627	321 10 0 00 032621 		JUMPL	AC+4,S12500	;LOOP ON ERROR SWITCH^
  2954
  2955						DFA	126,202000,0,0,0,204000,0,0,0,0,0,0,0^
  2956					S12600:	DMOVE	AC,[202000,,0
  2957	032630	120 04 0 00 041066 			0,,0]
  2958						DFAD	AC,[204000,,0
  2959	032631	110 04 0 00 041070 			0,,0]
  2960	032632	312 04 0 00 040156 		CAME	AC,[0,,0]
  2961	032633	003 04 0 00 012601 		ER3	AC,12601
  2962	032634	312 05 0 00 040156 		CAME	AC+1,[0,,0]
  2963	032635	004 05 0 00 012601 		ER4	AC+1,12601
  2964	032636	321 10 0 00 032630 		JUMPL	AC+4,S12600	;LOOP ON ERROR SWITCH^
  2965
  2966						DFA	127,204000,0,0,0,207000,0,0,0,0,0,0,0^
  2967					S12700:	DMOVE	AC,[204000,,0
  2968	032637	120 04 0 00 041070 			0,,0]
  2969						DFAD	AC,[207000,,0
  2970	032640	110 04 0 00 041072 			0,,0]
  2971	032641	312 04 0 00 040156 		CAME	AC,[0,,0]
  2972	032642	003 04 0 00 012701 		ER3	AC,12701
  2973	032643	312 05 0 00 040156 		CAME	AC+1,[0,,0]
  2974	032644	004 05 0 00 012701 		ER4	AC+1,12701
  2975	032645	321 10 0 00 032637 		JUMPL	AC+4,S12700	;LOOP ON ERROR SWITCH^
  2976
  2977						DFA	130,210000,0,0,0,214000,0,0,0,0,0,0,0^
  2978					S13000:	DMOVE	AC,[210000,,0
  2979	032646	120 04 0 00 041074 			0,,0]
  2980						DFAD	AC,[214000,,0
  2981	032647	110 04 0 00 041076 			0,,0]
  2982	032650	312 04 0 00 040156 		CAME	AC,[0,,0]
  2983	032651	003 04 0 00 013001 		ER3	AC,13001
  2984	032652	312 05 0 00 040156 		CAME	AC+1,[0,,0]
  2985	032653	004 05 0 00 013001 		ER4	AC+1,13001
  2986	032654	321 10 0 00 032646 		JUMPL	AC+4,S13000	;LOOP ON ERROR SWITCH^
  2987
  2988						DFA	131,220000,0,0,0,225000,0,0,0,0,0,0,0^
  2989					S13100:	DMOVE	AC,[220000,,0
  2990	032655	120 04 0 00 041100 			0,,0]
  2991						DFAD	AC,[225000,,0
  2992	032656	110 04 0 00 041102 			0,,0]
  2993	032657	312 04 0 00 040156 		CAME	AC,[0,,0]
  2994	032660	003 04 0 00 013101 		ER3	AC,13101
  2995	032661	312 05 0 00 040156 		CAME	AC+1,[0,,0]
  2996	032662	004 05 0 00 013101 		ER4	AC+1,13101
  2997	032663	321 10 0 00 032655 		JUMPL	AC+4,S13100	;LOOP ON ERROR SWITCH^DBKCE	PDP-10 KI10 ADVANCED INSTRUCTION DIAGNOSTIC #5, VERSION 0,3 	MACRO %52(462) 13:32  9-AUG-76 PAGE 6-1
DBKCEM	MAC	28-MAY-76 11:21		DFAD TEST-DOUBLE FLOATING POINT ADD AND ROUND                                      SEQ 0074

  2998
  2999						DFA	132,240000,0,0,0,246000,0,0,0,0,0,0,0^
  3000					S13200:	DMOVE	AC,[240000,,0
  3001	032664	120 04 0 00 041104 			0,,0]
  3002						DFAD	AC,[246000,,0
  3003	032665	110 04 0 00 041106 			0,,0]
  3004	032666	312 04 0 00 040156 		CAME	AC,[0,,0]
  3005	032667	003 04 0 00 013201 		ER3	AC,13201
  3006	032670	312 05 0 00 040156 		CAME	AC+1,[0,,0]
  3007	032671	004 05 0 00 013201 		ER4	AC+1,13201
  3008	032672	321 10 0 00 032664 		JUMPL	AC+4,S13200	;LOOP ON ERROR SWITCH^
  3009
  3010						DFA	133,300000,0,0,0,307000,0,0,0,0,0,0,0^
  3011					S13300:	DMOVE	AC,[300000,,0
  3012	032673	120 04 0 00 041110 			0,,0]
  3013						DFAD	AC,[307000,,0
  3014	032674	110 04 0 00 041112 			0,,0]
  3015	032675	312 04 0 00 040156 		CAME	AC,[0,,0]
  3016	032676	003 04 0 00 013301 		ER3	AC,13301
  3017	032677	312 05 0 00 040156 		CAME	AC+1,[0,,0]
  3018	032700	004 05 0 00 013301 		ER4	AC+1,13301
  3019	032701	321 10 0 00 032673 		JUMPL	AC+4,S13300	;LOOP ON ERROR SWITCH^
  3020
  3021						DFA	134,200000,0,0,0,600400,0,0,0,600400,0,0,0^
  3022					S13400:	DMOVE	AC,[200000,,0
  3023	032702	120 04 0 00 041114 			0,,0]
  3024						DFAD	AC,[600400,,0
  3025	032703	110 04 0 00 041023 			0,,0]
  3026	032704	312 04 0 00 041023 		CAME	AC,[600400,,0]
  3027	032705	003 04 0 00 013401 		ER3	AC,13401
  3028	032706	312 05 0 00 040156 		CAME	AC+1,[0,,0]
  3029	032707	004 05 0 00 013401 		ER4	AC+1,13401
  3030	032710	321 10 0 00 032702 		JUMPL	AC+4,S13400	;LOOP ON ERROR SWITCH^
  3031
  3032						DFA	135,201000,0,0,0,600400,0,0,0,600400,0,0,0^
  3033					S13500:	DMOVE	AC,[201000,,0
  3034	032711	120 04 0 00 041064 			0,,0]
  3035						DFAD	AC,[600400,,0
  3036	032712	110 04 0 00 041023 			0,,0]
  3037	032713	312 04 0 00 041023 		CAME	AC,[600400,,0]
  3038	032714	003 04 0 00 013501 		ER3	AC,13501
  3039	032715	312 05 0 00 040156 		CAME	AC+1,[0,,0]
  3040	032716	004 05 0 00 013501 		ER4	AC+1,13501
  3041	032717	321 10 0 00 032711 		JUMPL	AC+4,S13500	;LOOP ON ERROR SWITCH^
  3042
  3043						DFA	136,202000,0,0,0,600400,0,0,0,600400,0,0,0^
  3044					S13600:	DMOVE	AC,[202000,,0
  3045	032720	120 04 0 00 041066 			0,,0]
  3046						DFAD	AC,[600400,,0
  3047	032721	110 04 0 00 041023 			0,,0]
  3048	032722	312 04 0 00 041023 		CAME	AC,[600400,,0]
  3049	032723	003 04 0 00 013601 		ER3	AC,13601
  3050	032724	312 05 0 00 040156 		CAME	AC+1,[0,,0]
  3051	032725	004 05 0 00 013601 		ER4	AC+1,13601
  3052	032726	321 10 0 00 032720 		JUMPL	AC+4,S13600	;LOOP ON ERROR SWITCH^DBKCE	PDP-10 KI10 ADVANCED INSTRUCTION DIAGNOSTIC #5, VERSION 0,3 	MACRO %52(462) 13:32  9-AUG-76 PAGE 6-2
DBKCEM	MAC	28-MAY-76 11:21		DFAD TEST-DOUBLE FLOATING POINT ADD AND ROUND                                      SEQ 0075

  3053
  3054						DFA	137,203000,0,0,0,600400,0,0,0,600400,0,0,0^
  3055					S13700:	DMOVE	AC,[203000,,0
  3056	032727	120 04 0 00 041116 			0,,0]
  3057						DFAD	AC,[600400,,0
  3058	032730	110 04 0 00 041023 			0,,0]
  3059	032731	312 04 0 00 041023 		CAME	AC,[600400,,0]
  3060	032732	003 04 0 00 013701 		ER3	AC,13701
  3061	032733	312 05 0 00 040156 		CAME	AC+1,[0,,0]
  3062	032734	004 05 0 00 013701 		ER4	AC+1,13701
  3063	032735	321 10 0 00 032727 		JUMPL	AC+4,S13700	;LOOP ON ERROR SWITCH^
  3064
  3065						DFA	140,204000,0,0,0,600400,0,0,0,600400,0,0,0^
  3066					S14000:	DMOVE	AC,[204000,,0
  3067	032736	120 04 0 00 041070 			0,,0]
  3068						DFAD	AC,[600400,,0
  3069	032737	110 04 0 00 041023 			0,,0]
  3070	032740	312 04 0 00 041023 		CAME	AC,[600400,,0]
  3071	032741	003 04 0 00 014001 		ER3	AC,14001
  3072	032742	312 05 0 00 040156 		CAME	AC+1,[0,,0]
  3073	032743	004 05 0 00 014001 		ER4	AC+1,14001
  3074	032744	321 10 0 00 032736 		JUMPL	AC+4,S14000	;LOOP ON ERROR SWITCH^
  3075
  3076						DFA	141,206000,0,0,0,600400,0,0,0,600400,0,0,0^
  3077					S14100:	DMOVE	AC,[206000,,0
  3078	032745	120 04 0 00 041120 			0,,0]
  3079						DFAD	AC,[600400,,0
  3080	032746	110 04 0 00 041023 			0,,0]
  3081	032747	312 04 0 00 041023 		CAME	AC,[600400,,0]
  3082	032750	003 04 0 00 014101 		ER3	AC,14101
  3083	032751	312 05 0 00 040156 		CAME	AC+1,[0,,0]
  3084	032752	004 05 0 00 014101 		ER4	AC+1,14101
  3085	032753	321 10 0 00 032745 		JUMPL	AC+4,S14100	;LOOP ON ERROR SWITCH^
  3086
  3087						DFA	142,207000,0,0,0,600400,0,0,0,600400,0,0,0^
  3088					S14200:	DMOVE	AC,[207000,,0
  3089	032754	120 04 0 00 041072 			0,,0]
  3090						DFAD	AC,[600400,,0
  3091	032755	110 04 0 00 041023 			0,,0]
  3092	032756	312 04 0 00 041023 		CAME	AC,[600400,,0]
  3093	032757	003 04 0 00 014201 		ER3	AC,14201
  3094	032760	312 05 0 00 040156 		CAME	AC+1,[0,,0]
  3095	032761	004 05 0 00 014201 		ER4	AC+1,14201
  3096	032762	321 10 0 00 032754 		JUMPL	AC+4,S14200	;LOOP ON ERROR SWITCH^
  3097
  3098						DFA	143,400200,0,0,0,377400,0,0,0,401400,0,0,0^
  3099					S14300:	DMOVE	AC,[400200,,0
  3100	032763	120 04 0 00 041122 			0,,0]
  3101						DFAD	AC,[377400,,0
  3102	032764	110 04 0 00 041124 			0,,0]
  3103	032765	312 04 0 00 041126 		CAME	AC,[401400,,0]
  3104	032766	003 04 0 00 014301 		ER3	AC,14301
  3105	032767	312 05 0 00 040156 		CAME	AC+1,[0,,0]
  3106	032770	004 05 0 00 014301 		ER4	AC+1,14301
  3107	032771	321 10 0 00 032763 		JUMPL	AC+4,S14300	;LOOP ON ERROR SWITCH^DBKCE	PDP-10 KI10 ADVANCED INSTRUCTION DIAGNOSTIC #5, VERSION 0,3 	MACRO %52(462) 13:32  9-AUG-76 PAGE 6-3
DBKCEM	MAC	28-MAY-76 11:21		DFAD TEST-DOUBLE FLOATING POINT ADD AND ROUND                                      SEQ 0076

  3108
  3109						DFA	144,377400,0,0,0,400200,0,0,0,401400,0,0,0^
  3110					S14400:	DMOVE	AC,[377400,,0
  3111	032772	120 04 0 00 041124 			0,,0]
  3112						DFAD	AC,[400200,,0
  3113	032773	110 04 0 00 041122 			0,,0]
  3114	032774	312 04 0 00 041126 		CAME	AC,[401400,,0]
  3115	032775	003 04 0 00 014401 		ER3	AC,14401
  3116	032776	312 05 0 00 040156 		CAME	AC+1,[0,,0]
  3117	032777	004 05 0 00 014401 		ER4	AC+1,14401
  3118	033000	321 10 0 00 032772 		JUMPL	AC+4,S14400	;LOOP ON ERROR SWITCH^
  3119
  3120						DFA	145,200400,0,0,0,600400,0,0,0,177400,0,0,0^
  3121					S14500:	DMOVE	AC,[200400,,0
  3122	033001	120 04 0 00 041027 			0,,0]
  3123						DFAD	AC,[600400,,0
  3124	033002	110 04 0 00 041023 			0,,0]
  3125	033003	312 04 0 00 040164 		CAME	AC,[177400,,0]
  3126	033004	003 04 0 00 014501 		ER3	AC,14501
  3127	033005	312 05 0 00 040156 		CAME	AC+1,[0,,0]
  3128	033006	004 05 0 00 014501 		ER4	AC+1,14501
  3129	033007	321 10 0 00 033001 		JUMPL	AC+4,S14500	;LOOP ON ERROR SWITCH^
  3130
  3131						DFA	146,200600,0,0,0,201400,0,0,0,201700,0,0,0^
  3132					S14600:	DMOVE	AC,[200600,,0
  3133	033010	120 04 0 00 040162 			0,,0]
  3134						DFAD	AC,[201400,,0
  3135	033011	110 04 0 00 040155 			0,,0]
  3136	033012	312 04 0 00 041127 		CAME	AC,[201700,,0]
  3137	033013	003 04 0 00 014601 		ER3	AC,14601
  3138	033014	312 05 0 00 040156 		CAME	AC+1,[0,,0]
  3139	033015	004 05 0 00 014601 		ER4	AC+1,14601
  3140	033016	321 10 0 00 033010 		JUMPL	AC+4,S14600	;LOOP ON ERROR SWITCH^
  3141
  3142						DFA	147,577600,0,0,0,200400,0,0,0,177400,0,0,0^
  3143					S14700:	DMOVE	AC,[577600,,0
  3144	033017	120 04 0 00 041130 			0,,0]
  3145						DFAD	AC,[200400,,0
  3146	033020	110 04 0 00 041027 			0,,0]
  3147	033021	312 04 0 00 040164 		CAME	AC,[177400,,0]
  3148	033022	003 04 0 00 014701 		ER3	AC,14701
  3149	033023	312 05 0 00 040156 		CAME	AC+1,[0,,0]
  3150	033024	004 05 0 00 014701 		ER4	AC+1,14701
  3151	033025	321 10 0 00 033017 		JUMPL	AC+4,S14700	;LOOP ON ERROR SWITCH^
  3152
  3153						DFA	150,600400,0,0,0,577200,0,0,0,576400,0,0,0^
  3154					S15000:	DMOVE	AC,[600400,,0
  3155	033026	120 04 0 00 041023 			0,,0]
  3156						DFAD	AC,[577200,,0
  3157	033027	110 04 0 00 041132 			0,,0]
  3158	033030	312 04 0 00 041062 		CAME	AC,[576400,,0]
  3159	033031	003 04 0 00 015001 		ER3	AC,15001
  3160	033032	312 05 0 00 040156 		CAME	AC+1,[0,,0]
  3161	033033	004 05 0 00 015001 		ER4	AC+1,15001
  3162	033034	321 10 0 00 033026 		JUMPL	AC+4,S15000	;LOOP ON ERROR SWITCH^DBKCE	PDP-10 KI10 ADVANCED INSTRUCTION DIAGNOSTIC #5, VERSION 0,3 	MACRO %52(462) 13:32  9-AUG-76 PAGE 6-4
DBKCEM	MAC	28-MAY-76 11:21		DFAD TEST-DOUBLE FLOATING POINT ADD AND ROUND                                      SEQ 0077

  3163
  3164						DFA	151,576400,0,0,0,200400,0,0,0,577400,0,0,0^
  3165					S15100:	DMOVE	AC,[576400,,0
  3166	033035	120 04 0 00 041134 			0,,0]
  3167						DFAD	AC,[200400,,0
  3168	033036	110 04 0 00 041027 			0,,0]
  3169	033037	312 04 0 00 040157 		CAME	AC,[577400,,0]
  3170	033040	003 04 0 00 015101 		ER3	AC,15101
  3171	033041	312 05 0 00 040156 		CAME	AC+1,[0,,0]
  3172	033042	004 05 0 00 015101 		ER4	AC+1,15101
  3173	033043	321 10 0 00 033035 		JUMPL	AC+4,S15100	;LOOP ON ERROR SWITCH^
  3174
  3175						DFA	152,200440,0,0,0,200400,0,0,0,201420,0,0,0^
  3176					S15200:	DMOVE	AC,[200440,,0
  3177	033044	120 04 0 00 040170 			0,,0]
  3178						DFAD	AC,[200400,,0
  3179	033045	110 04 0 00 041027 			0,,0]
  3180	033046	312 04 0 00 041136 		CAME	AC,[201420,,0]
  3181	033047	003 04 0 00 015201 		ER3	AC,15201
  3182	033050	312 05 0 00 040156 		CAME	AC+1,[0,,0]
  3183	033051	004 05 0 00 015201 		ER4	AC+1,15201
  3184	033052	321 10 0 00 033044 		JUMPL	AC+4,S15200	;LOOP ON ERROR SWITCH^
  3185
  3186						DFA	153,577400,0,0,0,577400,0,0,0,576400,0,0,0^
  3187					S15300:	DMOVE	AC,[577400,,0
  3188	033053	120 04 0 00 040157 			0,,0]
  3189						DFAD	AC,[577400,,0
  3190	033054	110 04 0 00 040157 			0,,0]
  3191	033055	312 04 0 00 041062 		CAME	AC,[576400,,0]
  3192	033056	003 04 0 00 015301 		ER3	AC,15301
  3193	033057	312 05 0 00 040156 		CAME	AC+1,[0,,0]
  3194	033060	004 05 0 00 015301 		ER4	AC+1,15301
  3195	033061	321 10 0 00 033053 		JUMPL	AC+4,S15300	;LOOP ON ERROR SWITCH^
  3196
  3197						DFA	154,200400,77,0,0,206400,0,0,0,206404,0,374000,0^
  3198					S15400:	DMOVE	AC,[200400,,77
  3199	033062	120 04 0 00 041137 			0,,0]
  3200						DFAD	AC,[206400,,0
  3201	033063	110 04 0 00 041141 			0,,0]
  3202	033064	312 04 0 00 041143 		CAME	AC,[206404,,0]
  3203	033065	003 04 0 00 015401 		ER3	AC,15401
  3204	033066	312 05 0 00 040641 		CAME	AC+1,[374000,,0]
  3205	033067	004 05 0 00 015401 		ER4	AC+1,15401
  3206	033070	321 10 0 00 033062 		JUMPL	AC+4,S15400	;LOOP ON ERROR SWITCH^
  3207
  3208						DFA	155,30400,3,0,0,32400,0,0,0,32500,0,300000,0^
  3209					S15500:	DMOVE	AC,[30400,,3
  3210	033071	120 04 0 00 041144 			0,,0]
  3211						DFAD	AC,[32400,,0
  3212	033072	110 04 0 00 041146 			0,,0]
  3213	033073	312 04 0 00 041150 		CAME	AC,[32500,,0]
  3214	033074	003 04 0 00 015501 		ER3	AC,15501
  3215	033075	312 05 0 00 040661 		CAME	AC+1,[300000,,0]
  3216	033076	004 05 0 00 015501 		ER4	AC+1,15501
  3217	033077	321 10 0 00 033071 		JUMPL	AC+4,S15500	;LOOP ON ERROR SWITCH^DBKCE	PDP-10 KI10 ADVANCED INSTRUCTION DIAGNOSTIC #5, VERSION 0,3 	MACRO %52(462) 13:32  9-AUG-76 PAGE 6-5
DBKCEM	MAC	28-MAY-76 11:21		DFAD TEST-DOUBLE FLOATING POINT ADD AND ROUND                                      SEQ 0078

  3218
  3219						DFA	156,200400,1,0,0,201600,0,0,0,202400,0,100000,0^
  3220					S15600:	DMOVE	AC,[200400,,1
  3221	033100	120 04 0 00 040275 			0,,0]
  3222						DFAD	AC,[201600,,0
  3223	033101	110 04 0 00 041151 			0,,0]
  3224	033102	312 04 0 00 041042 		CAME	AC,[202400,,0]
  3225	033103	003 04 0 00 015601 		ER3	AC,15601
  3226	033104	312 05 0 00 040304 		CAME	AC+1,[100000,,0]
  3227	033105	004 05 0 00 015601 		ER4	AC+1,15601
  3228	033106	321 10 0 00 033100 		JUMPL	AC+4,S15600	;LOOP ON ERROR SWITCH^
  3229
  3230						DFA	157,577400,3,0,0,202400,0,0,0,201600,1,200000,0^
  3231					S15700:	DMOVE	AC,[577400,,3
  3232	033107	120 04 0 00 041153 			0,,0]
  3233						DFAD	AC,[202400,,0
  3234	033110	110 04 0 00 041042 			0,,0]
  3235	033111	312 04 0 00 041155 		CAME	AC,[201600,,1]
  3236	033112	003 04 0 00 015701 		ER3	AC,15701
  3237	033113	312 05 0 00 040301 		CAME	AC+1,[200000,,0]
  3238	033114	004 05 0 00 015701 		ER4	AC+1,15701
  3239	033115	321 10 0 00 033107 		JUMPL	AC+4,S15700	;LOOP ON ERROR SWITCH^
  3240DBKCE	PDP-10 KI10 ADVANCED INSTRUCTION DIAGNOSTIC #5, VERSION 0,3 	MACRO %52(462) 13:32  9-AUG-76 PAGE 7
DBKCEM	MAC	28-MAY-76 11:21		DFAD TEST-DOUBLE FLOATING POINT ADD AND ROUND                                      SEQ 0079

  3241
  3242						DFA	160,200400,3,0,0,202400,0,0,0,202500,0,300000,0^
  3243					S16000:	DMOVE	AC,[200400,,3
  3244	033116	120 04 0 00 041156 			0,,0]
  3245						DFAD	AC,[202400,,0
  3246	033117	110 04 0 00 041042 			0,,0]
  3247	033120	312 04 0 00 041044 		CAME	AC,[202500,,0]
  3248	033121	003 04 0 00 016001 		ER3	AC,16001
  3249	033122	312 05 0 00 040661 		CAME	AC+1,[300000,,0]
  3250	033123	004 05 0 00 016001 		ER4	AC+1,16001
  3251	033124	321 10 0 00 033116 		JUMPL	AC+4,S16000	;LOOP ON ERROR SWITCH^
  3252
  3253						DFA	161,200400,-1,0,0,202400,0,0,0,202500,177777,300000,0^
  3254					S16100:	DMOVE	AC,[200400,,-1
  3255	033125	120 04 0 00 041160 			0,,0]
  3256						DFAD	AC,[202400,,0
  3257	033126	110 04 0 00 041042 			0,,0]
  3258	033127	312 04 0 00 041162 		CAME	AC,[202500,,177777]
  3259	033130	003 04 0 00 016101 		ER3	AC,16101
  3260	033131	312 05 0 00 040661 		CAME	AC+1,[300000,,0]
  3261	033132	004 05 0 00 016101 		ER4	AC+1,16101
  3262	033133	321 10 0 00 033125 		JUMPL	AC+4,S16100	;LOOP ON ERROR SWITCH^
  3263
  3264						DFA	162,200200,1,0,0,200200,1,0,0,200400,2,0,0^
  3265					S16200:	DMOVE	AC,[200200,,1
  3266	033134	120 04 0 00 041163 			0,,0]
  3267						DFAD	AC,[200200,,1
  3268	033135	110 04 0 00 041163 			0,,0]
  3269	033136	312 04 0 00 040272 		CAME	AC,[200400,,2]
  3270	033137	003 04 0 00 016201 		ER3	AC,16201
  3271	033140	312 05 0 00 040156 		CAME	AC+1,[0,,0]
  3272	033141	004 05 0 00 016201 		ER4	AC+1,16201
  3273	033142	321 10 0 00 033134 		JUMPL	AC+4,S16200	;LOOP ON ERROR SWITCH^
  3274
  3275						DFA	163,200200,2,0,0,200200,2,0,0,200400,4,0,0^
  3276					S16300:	DMOVE	AC,[200200,,2
  3277	033143	120 04 0 00 041165 			0,,0]
  3278						DFAD	AC,[200200,,2
  3279	033144	110 04 0 00 041165 			0,,0]
  3280	033145	312 04 0 00 040267 		CAME	AC,[200400,,4]
  3281	033146	003 04 0 00 016301 		ER3	AC,16301
  3282	033147	312 05 0 00 040156 		CAME	AC+1,[0,,0]
  3283	033150	004 05 0 00 016301 		ER4	AC+1,16301
  3284	033151	321 10 0 00 033143 		JUMPL	AC+4,S16300	;LOOP ON ERROR SWITCH^
  3285
  3286						DFA	164,200200,4,0,0,200200,4,0,0,200400,10,0,0^
  3287					S16400:	DMOVE	AC,[200200,,4
  3288	033152	120 04 0 00 041167 			0,,0]
  3289						DFAD	AC,[200200,,4
  3290	033153	110 04 0 00 041167 			0,,0]
  3291	033154	312 04 0 00 040264 		CAME	AC,[200400,,10]
  3292	033155	003 04 0 00 016401 		ER3	AC,16401
  3293	033156	312 05 0 00 040156 		CAME	AC+1,[0,,0]
  3294	033157	004 05 0 00 016401 		ER4	AC+1,16401
  3295	033160	321 10 0 00 033152 		JUMPL	AC+4,S16400	;LOOP ON ERROR SWITCH^DBKCE	PDP-10 KI10 ADVANCED INSTRUCTION DIAGNOSTIC #5, VERSION 0,3 	MACRO %52(462) 13:32  9-AUG-76 PAGE 7-1
DBKCEM	MAC	28-MAY-76 11:21		DFAD TEST-DOUBLE FLOATING POINT ADD AND ROUND                                      SEQ 0080

  3296
  3297						DFA	165,200200,10,0,0,200200,10,0,0,200400,20,0,0^
  3298					S16500:	DMOVE	AC,[200200,,10
  3299	033161	120 04 0 00 041171 			0,,0]
  3300						DFAD	AC,[200200,,10
  3301	033162	110 04 0 00 041171 			0,,0]
  3302	033163	312 04 0 00 040261 		CAME	AC,[200400,,20]
  3303	033164	003 04 0 00 016501 		ER3	AC,16501
  3304	033165	312 05 0 00 040156 		CAME	AC+1,[0,,0]
  3305	033166	004 05 0 00 016501 		ER4	AC+1,16501
  3306	033167	321 10 0 00 033161 		JUMPL	AC+4,S16500	;LOOP ON ERROR SWITCH^
  3307
  3308						DFA	166,200200,20,0,0,200200,20,0,0,200400,40,0,0^
  3309					S16600:	DMOVE	AC,[200200,,20
  3310	033170	120 04 0 00 041173 			0,,0]
  3311						DFAD	AC,[200200,,20
  3312	033171	110 04 0 00 041173 			0,,0]
  3313	033172	312 04 0 00 040256 		CAME	AC,[200400,,40]
  3314	033173	003 04 0 00 016601 		ER3	AC,16601
  3315	033174	312 05 0 00 040156 		CAME	AC+1,[0,,0]
  3316	033175	004 05 0 00 016601 		ER4	AC+1,16601
  3317	033176	321 10 0 00 033170 		JUMPL	AC+4,S16600	;LOOP ON ERROR SWITCH^
  3318
  3319						DFA	167,200200,40,0,0,200200,40,0,0,200400,100,0,0^
  3320					S16700:	DMOVE	AC,[200200,,40
  3321	033177	120 04 0 00 041175 			0,,0]
  3322						DFAD	AC,[200200,,40
  3323	033200	110 04 0 00 041175 			0,,0]
  3324	033201	312 04 0 00 040253 		CAME	AC,[200400,,100]
  3325	033202	003 04 0 00 016701 		ER3	AC,16701
  3326	033203	312 05 0 00 040156 		CAME	AC+1,[0,,0]
  3327	033204	004 05 0 00 016701 		ER4	AC+1,16701
  3328	033205	321 10 0 00 033177 		JUMPL	AC+4,S16700	;LOOP ON ERROR SWITCH^
  3329
  3330						DFA	170,200200,100,0,0,200200,100,0,0,200400,200,0,0^
  3331					S17000:	DMOVE	AC,[200200,,100
  3332	033206	120 04 0 00 041177 			0,,0]
  3333						DFAD	AC,[200200,,100
  3334	033207	110 04 0 00 041177 			0,,0]
  3335	033210	312 04 0 00 040250 		CAME	AC,[200400,,200]
  3336	033211	003 04 0 00 017001 		ER3	AC,17001
  3337	033212	312 05 0 00 040156 		CAME	AC+1,[0,,0]
  3338	033213	004 05 0 00 017001 		ER4	AC+1,17001
  3339	033214	321 10 0 00 033206 		JUMPL	AC+4,S17000	;LOOP ON ERROR SWITCH^
  3340
  3341						DFA	171,200200,200,0,0,200200,200,0,0,200400,400,0,0^
  3342					S17100:	DMOVE	AC,[200200,,200
  3343	033215	120 04 0 00 041201 			0,,0]
  3344						DFAD	AC,[200200,,200
  3345	033216	110 04 0 00 041201 			0,,0]
  3346	033217	312 04 0 00 040245 		CAME	AC,[200400,,400]
  3347	033220	003 04 0 00 017101 		ER3	AC,17101
  3348	033221	312 05 0 00 040156 		CAME	AC+1,[0,,0]
  3349	033222	004 05 0 00 017101 		ER4	AC+1,17101
  3350	033223	321 10 0 00 033215 		JUMPL	AC+4,S17100	;LOOP ON ERROR SWITCH^DBKCE	PDP-10 KI10 ADVANCED INSTRUCTION DIAGNOSTIC #5, VERSION 0,3 	MACRO %52(462) 13:32  9-AUG-76 PAGE 7-2
DBKCEM	MAC	28-MAY-76 11:21		DFAD TEST-DOUBLE FLOATING POINT ADD AND ROUND                                      SEQ 0081

  3351
  3352						DFA	172,200200,400,0,0,200200,400,0,0,200400,1000,0,0^
  3353					S17200:	DMOVE	AC,[200200,,400
  3354	033224	120 04 0 00 041203 			0,,0]
  3355						DFAD	AC,[200200,,400
  3356	033225	110 04 0 00 041203 			0,,0]
  3357	033226	312 04 0 00 040242 		CAME	AC,[200400,,1000]
  3358	033227	003 04 0 00 017201 		ER3	AC,17201
  3359	033230	312 05 0 00 040156 		CAME	AC+1,[0,,0]
  3360	033231	004 05 0 00 017201 		ER4	AC+1,17201
  3361	033232	321 10 0 00 033224 		JUMPL	AC+4,S17200	;LOOP ON ERROR SWITCH^
  3362
  3363						DFA	173,200200,1000,0,0,200200,1000,0,0,200400,2000,0,0^
  3364					S17300:	DMOVE	AC,[200200,,1000
  3365	033233	120 04 0 00 041205 			0,,0]
  3366						DFAD	AC,[200200,,1000
  3367	033234	110 04 0 00 041205 			0,,0]
  3368	033235	312 04 0 00 040237 		CAME	AC,[200400,,2000]
  3369	033236	003 04 0 00 017301 		ER3	AC,17301
  3370	033237	312 05 0 00 040156 		CAME	AC+1,[0,,0]
  3371	033240	004 05 0 00 017301 		ER4	AC+1,17301
  3372	033241	321 10 0 00 033233 		JUMPL	AC+4,S17300	;LOOP ON ERROR SWITCH^
  3373
  3374						DFA	174,172400,0,0,0,201400,0,0,0,201402,0,0,0^
  3375					S17400:	DMOVE	AC,[172400,,0
  3376	033242	120 04 0 00 041207 			0,,0]
  3377						DFAD	AC,[201400,,0
  3378	033243	110 04 0 00 040155 			0,,0]
  3379	033244	312 04 0 00 041211 		CAME	AC,[201402,,0]
  3380	033245	003 04 0 00 017401 		ER3	AC,17401
  3381	033246	312 05 0 00 040156 		CAME	AC+1,[0,,0]
  3382	033247	004 05 0 00 017401 		ER4	AC+1,17401
  3383	033250	321 10 0 00 033242 		JUMPL	AC+4,S17400	;LOOP ON ERROR SWITCH^
  3384
  3385						DFA	175,173400,0,0,0,201400,0,0,0,201404,0,0,0^
  3386					S17500:	DMOVE	AC,[173400,,0
  3387	033251	120 04 0 00 041212 			0,,0]
  3388						DFAD	AC,[201400,,0
  3389	033252	110 04 0 00 040155 			0,,0]
  3390	033253	312 04 0 00 041214 		CAME	AC,[201404,,0]
  3391	033254	003 04 0 00 017501 		ER3	AC,17501
  3392	033255	312 05 0 00 040156 		CAME	AC+1,[0,,0]
  3393	033256	004 05 0 00 017501 		ER4	AC+1,17501
  3394	033257	321 10 0 00 033251 		JUMPL	AC+4,S17500	;LOOP ON ERROR SWITCH^
  3395
  3396						DFA	176,174400,0,0,0,201400,0,0,0,201410,0,0,0^
  3397					S17600:	DMOVE	AC,[174400,,0
  3398	033260	120 04 0 00 041215 			0,,0]
  3399						DFAD	AC,[201400,,0
  3400	033261	110 04 0 00 040155 			0,,0]
  3401	033262	312 04 0 00 041217 		CAME	AC,[201410,,0]
  3402	033263	003 04 0 00 017601 		ER3	AC,17601
  3403	033264	312 05 0 00 040156 		CAME	AC+1,[0,,0]
  3404	033265	004 05 0 00 017601 		ER4	AC+1,17601
  3405	033266	321 10 0 00 033260 		JUMPL	AC+4,S17600	;LOOP ON ERROR SWITCH^DBKCE	PDP-10 KI10 ADVANCED INSTRUCTION DIAGNOSTIC #5, VERSION 0,3 	MACRO %52(462) 13:32  9-AUG-76 PAGE 7-3
DBKCEM	MAC	28-MAY-76 11:21		DFAD TEST-DOUBLE FLOATING POINT ADD AND ROUND                                      SEQ 0082

  3406
  3407						DFA	177,175400,0,0,0,201400,0,0,0,201420,0,0,0^
  3408					S17700:	DMOVE	AC,[175400,,0
  3409	033267	120 04 0 00 041220 			0,,0]
  3410						DFAD	AC,[201400,,0
  3411	033270	110 04 0 00 040155 			0,,0]
  3412	033271	312 04 0 00 041136 		CAME	AC,[201420,,0]
  3413	033272	003 04 0 00 017701 		ER3	AC,17701
  3414	033273	312 05 0 00 040156 		CAME	AC+1,[0,,0]
  3415	033274	004 05 0 00 017701 		ER4	AC+1,17701
  3416	033275	321 10 0 00 033267 		JUMPL	AC+4,S17700	;LOOP ON ERROR SWITCH^
  3417
  3418						DFA	200,176400,0,0,0,201400,0,0,0,201440,0,0,0^
  3419					S20000:	DMOVE	AC,[176400,,0
  3420	033276	120 04 0 00 041222 			0,,0]
  3421						DFAD	AC,[201400,,0
  3422	033277	110 04 0 00 040155 			0,,0]
  3423	033300	312 04 0 00 041224 		CAME	AC,[201440,,0]
  3424	033301	003 04 0 00 020001 		ER3	AC,20001
  3425	033302	312 05 0 00 040156 		CAME	AC+1,[0,,0]
  3426	033303	004 05 0 00 020001 		ER4	AC+1,20001
  3427	033304	321 10 0 00 033276 		JUMPL	AC+4,S20000	;LOOP ON ERROR SWITCH^
  3428
  3429						DFA	201,177400,0,0,0,201400,0,0,0,201500,0,0,0^
  3430					S20100:	DMOVE	AC,[177400,,0
  3431	033305	120 04 0 00 041025 			0,,0]
  3432						DFAD	AC,[201400,,0
  3433	033306	110 04 0 00 040155 			0,,0]
  3434	033307	312 04 0 00 041225 		CAME	AC,[201500,,0]
  3435	033310	003 04 0 00 020101 		ER3	AC,20101
  3436	033311	312 05 0 00 040156 		CAME	AC+1,[0,,0]
  3437	033312	004 05 0 00 020101 		ER4	AC+1,20101
  3438	033313	321 10 0 00 033305 		JUMPL	AC+4,S20100	;LOOP ON ERROR SWITCH^
  3439
  3440						DFA	202,202600,0,0,0,200400,0,0,0,202700,0,0,0^
  3441					S20200:	DMOVE	AC,[202600,,0
  3442	033314	120 04 0 00 041226 			0,,0]
  3443						DFAD	AC,[200400,,0
  3444	033315	110 04 0 00 041027 			0,,0]
  3445	033316	312 04 0 00 041230 		CAME	AC,[202700,,0]
  3446	033317	003 04 0 00 020201 		ER3	AC,20201
  3447	033320	312 05 0 00 040156 		CAME	AC+1,[0,,0]
  3448	033321	004 05 0 00 020201 		ER4	AC+1,20201
  3449	033322	321 10 0 00 033314 		JUMPL	AC+4,S20200	;LOOP ON ERROR SWITCH^
  3450
  3451						DFA	203,400,0,0,0,200400,0,0,0,200400,0,0,0^
  3452					S20300:	DMOVE	AC,[400,,0
  3453	033323	120 04 0 00 041014 			0,,0]
  3454						DFAD	AC,[200400,,0
  3455	033324	110 04 0 00 041027 			0,,0]
  3456	033325	312 04 0 00 040161 		CAME	AC,[200400,,0]
  3457	033326	003 04 0 00 020301 		ER3	AC,20301
  3458	033327	312 05 0 00 040156 		CAME	AC+1,[0,,0]
  3459	033330	004 05 0 00 020301 		ER4	AC+1,20301
  3460	033331	321 10 0 00 033323 		JUMPL	AC+4,S20300	;LOOP ON ERROR SWITCH^DBKCE	PDP-10 KI10 ADVANCED INSTRUCTION DIAGNOSTIC #5, VERSION 0,3 	MACRO %52(462) 13:32  9-AUG-76 PAGE 7-4
DBKCEM	MAC	28-MAY-76 11:21		DFAD TEST-DOUBLE FLOATING POINT ADD AND ROUND                                      SEQ 0083

  3461
  3462						DFA	204,400,0,0,0,201400,0,0,0,201400,0,0,0^
  3463					S20400:	DMOVE	AC,[400,,0
  3464	033332	120 04 0 00 041014 			0,,0]
  3465						DFAD	AC,[201400,,0
  3466	033333	110 04 0 00 040155 			0,,0]
  3467	033334	312 04 0 00 040155 		CAME	AC,[201400,,0]
  3468	033335	003 04 0 00 020401 		ER3	AC,20401
  3469	033336	312 05 0 00 040156 		CAME	AC+1,[0,,0]
  3470	033337	004 05 0 00 020401 		ER4	AC+1,20401
  3471	033340	321 10 0 00 033332 		JUMPL	AC+4,S20400	;LOOP ON ERROR SWITCH^
  3472
  3473						DFA	205,400,0,0,0,202400,0,0,0,202400,0,0,0^
  3474					S20500:	DMOVE	AC,[400,,0
  3475	033341	120 04 0 00 041014 			0,,0]
  3476						DFAD	AC,[202400,,0
  3477	033342	110 04 0 00 041042 			0,,0]
  3478	033343	312 04 0 00 041042 		CAME	AC,[202400,,0]
  3479	033344	003 04 0 00 020501 		ER3	AC,20501
  3480	033345	312 05 0 00 040156 		CAME	AC+1,[0,,0]
  3481	033346	004 05 0 00 020501 		ER4	AC+1,20501
  3482	033347	321 10 0 00 033341 		JUMPL	AC+4,S20500	;LOOP ON ERROR SWITCH^
  3483
  3484						DFA	206,200000,0,0,0,201000,0,0,0,0,0,0,0^
  3485					S20600:	DMOVE	AC,[200000,,0
  3486	033350	120 04 0 00 041114 			0,,0]
  3487						DFAD	AC,[201000,,0
  3488	033351	110 04 0 00 041064 			0,,0]
  3489	033352	312 04 0 00 040156 		CAME	AC,[0,,0]
  3490	033353	003 04 0 00 020601 		ER3	AC,20601
  3491	033354	312 05 0 00 040156 		CAME	AC+1,[0,,0]
  3492	033355	004 05 0 00 020601 		ER4	AC+1,20601
  3493	033356	321 10 0 00 033350 		JUMPL	AC+4,S20600	;LOOP ON ERROR SWITCH^
  3494
  3495						DFA	207,200000,0,0,0,202000,0,0,0,0,0,0,0^
  3496					S20700:	DMOVE	AC,[200000,,0
  3497	033357	120 04 0 00 041114 			0,,0]
  3498						DFAD	AC,[202000,,0
  3499	033360	110 04 0 00 041066 			0,,0]
  3500	033361	312 04 0 00 040156 		CAME	AC,[0,,0]
  3501	033362	003 04 0 00 020701 		ER3	AC,20701
  3502	033363	312 05 0 00 040156 		CAME	AC+1,[0,,0]
  3503	033364	004 05 0 00 020701 		ER4	AC+1,20701
  3504	033365	321 10 0 00 033357 		JUMPL	AC+4,S20700	;LOOP ON ERROR SWITCH^
  3505
  3506						DFA	210,200000,0,0,0,203000,0,0,0,0,0,0,0^
  3507					S21000:	DMOVE	AC,[200000,,0
  3508	033366	120 04 0 00 041114 			0,,0]
  3509						DFAD	AC,[203000,,0
  3510	033367	110 04 0 00 041116 			0,,0]
  3511	033370	312 04 0 00 040156 		CAME	AC,[0,,0]
  3512	033371	003 04 0 00 021001 		ER3	AC,21001
  3513	033372	312 05 0 00 040156 		CAME	AC+1,[0,,0]
  3514	033373	004 05 0 00 021001 		ER4	AC+1,21001
  3515	033374	321 10 0 00 033366 		JUMPL	AC+4,S21000	;LOOP ON ERROR SWITCH^DBKCE	PDP-10 KI10 ADVANCED INSTRUCTION DIAGNOSTIC #5, VERSION 0,3 	MACRO %52(462) 13:32  9-AUG-76 PAGE 7-5
DBKCEM	MAC	28-MAY-76 11:21		DFAD TEST-DOUBLE FLOATING POINT ADD AND ROUND                                      SEQ 0084

  3516
  3517						DFA	211,200400,0,0,0,200400,0,0,0,201400,0,0,0^
  3518					S21100:	DMOVE	AC,[200400,,0
  3519	033375	120 04 0 00 041027 			0,,0]
  3520						DFAD	AC,[200400,,0
  3521	033376	110 04 0 00 041027 			0,,0]
  3522	033377	312 04 0 00 040155 		CAME	AC,[201400,,0]
  3523	033400	003 04 0 00 021101 		ER3	AC,21101
  3524	033401	312 05 0 00 040156 		CAME	AC+1,[0,,0]
  3525	033402	004 05 0 00 021101 		ER4	AC+1,21101
  3526	033403	321 10 0 00 033375 		JUMPL	AC+4,S21100	;LOOP ON ERROR SWITCH^
  3527
  3528						DFA	212,201400,0,0,0,201400,0,0,0,202400,0,0,0^
  3529					S21200:	DMOVE	AC,[201400,,0
  3530	033404	120 04 0 00 040155 			0,,0]
  3531						DFAD	AC,[201400,,0
  3532	033405	110 04 0 00 040155 			0,,0]
  3533	033406	312 04 0 00 041042 		CAME	AC,[202400,,0]
  3534	033407	003 04 0 00 021201 		ER3	AC,21201
  3535	033410	312 05 0 00 040156 		CAME	AC+1,[0,,0]
  3536	033411	004 05 0 00 021201 		ER4	AC+1,21201
  3537	033412	321 10 0 00 033404 		JUMPL	AC+4,S21200	;LOOP ON ERROR SWITCH^
  3538DBKCE	PDP-10 KI10 ADVANCED INSTRUCTION DIAGNOSTIC #5, VERSION 0,3 	MACRO %52(462) 13:32  9-AUG-76 PAGE 8
DBKCEM	MAC	28-MAY-76 11:21		DFAD TEST-DOUBLE FLOATING POINT ADD AND ROUND                                      SEQ 0085

  3539
  3540						DFA	213,202400,0,0,0,202400,0,0,0,203400,0,0,0^
  3541					S21300:	DMOVE	AC,[202400,,0
  3542	033413	120 04 0 00 041042 			0,,0]
  3543						DFAD	AC,[202400,,0
  3544	033414	110 04 0 00 041042 			0,,0]
  3545	033415	312 04 0 00 041231 		CAME	AC,[203400,,0]
  3546	033416	003 04 0 00 021301 		ER3	AC,21301
  3547	033417	312 05 0 00 040156 		CAME	AC+1,[0,,0]
  3548	033420	004 05 0 00 021301 		ER4	AC+1,21301
  3549	033421	321 10 0 00 033413 		JUMPL	AC+4,S21300	;LOOP ON ERROR SWITCH^
  3550
  3551						DFA	214,200100,0,0,0,200100,0,0,0,177400,0,0,0^
  3552					S21400:	DMOVE	AC,[200100,,0
  3553	033422	120 04 0 00 041232 			0,,0]
  3554						DFAD	AC,[200100,,0
  3555	033423	110 04 0 00 041232 			0,,0]
  3556	033424	312 04 0 00 040164 		CAME	AC,[177400,,0]
  3557	033425	003 04 0 00 021401 		ER3	AC,21401
  3558	033426	312 05 0 00 040156 		CAME	AC+1,[0,,0]
  3559	033427	004 05 0 00 021401 		ER4	AC+1,21401
  3560	033430	321 10 0 00 033422 		JUMPL	AC+4,S21400	;LOOP ON ERROR SWITCH^
  3561
  3562						DFA	215,200040,0,0,0,200040,0,0,0,176400,0,0,0^
  3563					S21500:	DMOVE	AC,[200040,,0
  3564	033431	120 04 0 00 041234 			0,,0]
  3565						DFAD	AC,[200040,,0
  3566	033432	110 04 0 00 041234 			0,,0]
  3567	033433	312 04 0 00 040167 		CAME	AC,[176400,,0]
  3568	033434	003 04 0 00 021501 		ER3	AC,21501
  3569	033435	312 05 0 00 040156 		CAME	AC+1,[0,,0]
  3570	033436	004 05 0 00 021501 		ER4	AC+1,21501
  3571	033437	321 10 0 00 033431 		JUMPL	AC+4,S21500	;LOOP ON ERROR SWITCH^
  3572
  3573						DFA	216,200020,0,0,0,200020,0,0,0,175400,0,0,0^
  3574					S21600:	DMOVE	AC,[200020,,0
  3575	033440	120 04 0 00 041236 			0,,0]
  3576						DFAD	AC,[200020,,0
  3577	033441	110 04 0 00 041236 			0,,0]
  3578	033442	312 04 0 00 040172 		CAME	AC,[175400,,0]
  3579	033443	003 04 0 00 021601 		ER3	AC,21601
  3580	033444	312 05 0 00 040156 		CAME	AC+1,[0,,0]
  3581	033445	004 05 0 00 021601 		ER4	AC+1,21601
  3582	033446	321 10 0 00 033440 		JUMPL	AC+4,S21600	;LOOP ON ERROR SWITCH^
  3583
  3584						DFA	217,577400,0,0,0,576400,0,0,0,576200,0,0,0^
  3585					S21700:	DMOVE	AC,[577400,,0
  3586	033447	120 04 0 00 040157 			0,,0]
  3587						DFAD	AC,[576400,,0
  3588	033450	110 04 0 00 041134 			0,,0]
  3589	033451	312 04 0 00 041240 		CAME	AC,[576200,,0]
  3590	033452	003 04 0 00 021701 		ER3	AC,21701
  3591	033453	312 05 0 00 040156 		CAME	AC+1,[0,,0]
  3592	033454	004 05 0 00 021701 		ER4	AC+1,21701
  3593	033455	321 10 0 00 033447 		JUMPL	AC+4,S21700	;LOOP ON ERROR SWITCH^DBKCE	PDP-10 KI10 ADVANCED INSTRUCTION DIAGNOSTIC #5, VERSION 0,3 	MACRO %52(462) 13:32  9-AUG-76 PAGE 8-1
DBKCEM	MAC	28-MAY-76 11:21		DFAD TEST-DOUBLE FLOATING POINT ADD AND ROUND                                      SEQ 0086

  3594
  3595						DFA	220,600400,0,0,0,576400,0,0,0,576300,0,0,0^
  3596					S22000:	DMOVE	AC,[600400,,0
  3597	033456	120 04 0 00 041023 			0,,0]
  3598						DFAD	AC,[576400,,0
  3599	033457	110 04 0 00 041134 			0,,0]
  3600	033460	312 04 0 00 041241 		CAME	AC,[576300,,0]
  3601	033461	003 04 0 00 022001 		ER3	AC,22001
  3602	033462	312 05 0 00 040156 		CAME	AC+1,[0,,0]
  3603	033463	004 05 0 00 022001 		ER4	AC+1,22001
  3604	033464	321 10 0 00 033456 		JUMPL	AC+4,S22000	;LOOP ON ERROR SWITCH^
  3605
  3606						DFA	221,601400,0,0,0,576400,0,0,0,576340,0,0,0^
  3607					S22100:	DMOVE	AC,[601400,,0
  3608	033465	120 04 0 00 041242 			0,,0]
  3609						DFAD	AC,[576400,,0
  3610	033466	110 04 0 00 041134 			0,,0]
  3611	033467	312 04 0 00 041244 		CAME	AC,[576340,,0]
  3612	033470	003 04 0 00 022101 		ER3	AC,22101
  3613	033471	312 05 0 00 040156 		CAME	AC+1,[0,,0]
  3614	033472	004 05 0 00 022101 		ER4	AC+1,22101
  3615	033473	321 10 0 00 033465 		JUMPL	AC+4,S22100	;LOOP ON ERROR SWITCH^
  3616
  3617						DFA	222,576400,0,0,0,577400,0,0,0,576200,0,0,0^
  3618					S22200:	DMOVE	AC,[576400,,0
  3619	033474	120 04 0 00 041134 			0,,0]
  3620						DFAD	AC,[577400,,0
  3621	033475	110 04 0 00 040157 			0,,0]
  3622	033476	312 04 0 00 041240 		CAME	AC,[576200,,0]
  3623	033477	003 04 0 00 022201 		ER3	AC,22201
  3624	033500	312 05 0 00 040156 		CAME	AC+1,[0,,0]
  3625	033501	004 05 0 00 022201 		ER4	AC+1,22201
  3626	033502	321 10 0 00 033474 		JUMPL	AC+4,S22200	;LOOP ON ERROR SWITCH^
  3627
  3628						DFA	223,576400,0,0,0,600400,0,0,0,576300,0,0,0^
  3629					S22300:	DMOVE	AC,[576400,,0
  3630	033503	120 04 0 00 041134 			0,,0]
  3631						DFAD	AC,[600400,,0
  3632	033504	110 04 0 00 041023 			0,,0]
  3633	033505	312 04 0 00 041241 		CAME	AC,[576300,,0]
  3634	033506	003 04 0 00 022301 		ER3	AC,22301
  3635	033507	312 05 0 00 040156 		CAME	AC+1,[0,,0]
  3636	033510	004 05 0 00 022301 		ER4	AC+1,22301
  3637	033511	321 10 0 00 033503 		JUMPL	AC+4,S22300	;LOOP ON ERROR SWITCH^
  3638
  3639						DFA	224,576400,0,0,0,601400,0,0,0,576340,0,0,0^
  3640					S22400:	DMOVE	AC,[576400,,0
  3641	033512	120 04 0 00 041134 			0,,0]
  3642						DFAD	AC,[601400,,0
  3643	033513	110 04 0 00 041242 			0,,0]
  3644	033514	312 04 0 00 041244 		CAME	AC,[576340,,0]
  3645	033515	003 04 0 00 022401 		ER3	AC,22401
  3646	033516	312 05 0 00 040156 		CAME	AC+1,[0,,0]
  3647	033517	004 05 0 00 022401 		ER4	AC+1,22401
  3648	033520	321 10 0 00 033512 		JUMPL	AC+4,S22400	;LOOP ON ERROR SWITCH^DBKCE	PDP-10 KI10 ADVANCED INSTRUCTION DIAGNOSTIC #5, VERSION 0,3 	MACRO %52(462) 13:32  9-AUG-76 PAGE 8-2
DBKCEM	MAC	28-MAY-76 11:21		DFAD TEST-DOUBLE FLOATING POINT ADD AND ROUND                                      SEQ 0087

  3649
  3650						DFA	225,577400,0,0,0,577400,0,0,0,576400,0,0,0^
  3651					S22500:	DMOVE	AC,[577400,,0
  3652	033521	120 04 0 00 040157 			0,,0]
  3653						DFAD	AC,[577400,,0
  3654	033522	110 04 0 00 040157 			0,,0]
  3655	033523	312 04 0 00 041062 		CAME	AC,[576400,,0]
  3656	033524	003 04 0 00 022501 		ER3	AC,22501
  3657	033525	312 05 0 00 040156 		CAME	AC+1,[0,,0]
  3658	033526	004 05 0 00 022501 		ER4	AC+1,22501
  3659	033527	321 10 0 00 033521 		JUMPL	AC+4,S22500	;LOOP ON ERROR SWITCH^
  3660
  3661						DFA	226,601400,0,0,0,601400,0,0,0,600400,0,0,0^
  3662					S22600:	DMOVE	AC,[601400,,0
  3663	033530	120 04 0 00 041242 			0,,0]
  3664						DFAD	AC,[601400,,0
  3665	033531	110 04 0 00 041242 			0,,0]
  3666	033532	312 04 0 00 041023 		CAME	AC,[600400,,0]
  3667	033533	003 04 0 00 022601 		ER3	AC,22601
  3668	033534	312 05 0 00 040156 		CAME	AC+1,[0,,0]
  3669	033535	004 05 0 00 022601 		ER4	AC+1,22601
  3670	033536	321 10 0 00 033530 		JUMPL	AC+4,S22600	;LOOP ON ERROR SWITCH^
  3671
  3672						DFA	227,201400,0,0,0,577400,0,0,0,200400,0,0,0^
  3673					S22700:	DMOVE	AC,[201400,,0
  3674	033537	120 04 0 00 040155 			0,,0]
  3675						DFAD	AC,[577400,,0
  3676	033540	110 04 0 00 040157 			0,,0]
  3677	033541	312 04 0 00 040161 		CAME	AC,[200400,,0]
  3678	033542	003 04 0 00 022701 		ER3	AC,22701
  3679	033543	312 05 0 00 040156 		CAME	AC+1,[0,,0]
  3680	033544	004 05 0 00 022701 		ER4	AC+1,22701
  3681	033545	321 10 0 00 033537 		JUMPL	AC+4,S22700	;LOOP ON ERROR SWITCH^
  3682
  3683						DFA	230,201400,0,0,0,600400,0,0,0,200600,0,0,0^
  3684					S23000:	DMOVE	AC,[201400,,0
  3685	033546	120 04 0 00 040155 			0,,0]
  3686						DFAD	AC,[600400,,0
  3687	033547	110 04 0 00 041023 			0,,0]
  3688	033550	312 04 0 00 040162 		CAME	AC,[200600,,0]
  3689	033551	003 04 0 00 023001 		ER3	AC,23001
  3690	033552	312 05 0 00 040156 		CAME	AC+1,[0,,0]
  3691	033553	004 05 0 00 023001 		ER4	AC+1,23001
  3692	033554	321 10 0 00 033546 		JUMPL	AC+4,S23000	;LOOP ON ERROR SWITCH^
  3693
  3694						DFA	231,201400,0,0,0,601400,0,0,0,200700,0,0,0^
  3695					S23100:	DMOVE	AC,[201400,,0
  3696	033555	120 04 0 00 040155 			0,,0]
  3697						DFAD	AC,[601400,,0
  3698	033556	110 04 0 00 041242 			0,,0]
  3699	033557	312 04 0 00 041037 		CAME	AC,[200700,,0]
  3700	033560	003 04 0 00 023101 		ER3	AC,23101
  3701	033561	312 05 0 00 040156 		CAME	AC+1,[0,,0]
  3702	033562	004 05 0 00 023101 		ER4	AC+1,23101
  3703	033563	321 10 0 00 033555 		JUMPL	AC+4,S23100	;LOOP ON ERROR SWITCH^DBKCE	PDP-10 KI10 ADVANCED INSTRUCTION DIAGNOSTIC #5, VERSION 0,3 	MACRO %52(462) 13:32  9-AUG-76 PAGE 8-3
DBKCEM	MAC	28-MAY-76 11:21		DFAD TEST-DOUBLE FLOATING POINT ADD AND ROUND                                      SEQ 0088

  3704
  3705						DFA	232,200000,0,0,0,200000,1,0,0,146400,0,0,0^
  3706					S23200:	DMOVE	AC,[200000,,0
  3707	033564	120 04 0 00 041114 			0,,0]
  3708						DFAD	AC,[200000,,1
  3709	033565	110 04 0 00 041245 			0,,0]
  3710	033566	312 04 0 00 040277 		CAME	AC,[146400,,0]
  3711	033567	003 04 0 00 023201 		ER3	AC,23201
  3712	033570	312 05 0 00 040156 		CAME	AC+1,[0,,0]
  3713	033571	004 05 0 00 023201 		ER4	AC+1,23201
  3714	033572	321 10 0 00 033564 		JUMPL	AC+4,S23200	;LOOP ON ERROR SWITCH^
  3715
  3716						DFA	233,200000,0,0,0,200000,2,0,0,147400,0,0,0^
  3717					S23300:	DMOVE	AC,[200000,,0
  3718	033573	120 04 0 00 041114 			0,,0]
  3719						DFAD	AC,[200000,,2
  3720	033574	110 04 0 00 041247 			0,,0]
  3721	033575	312 04 0 00 040274 		CAME	AC,[147400,,0]
  3722	033576	003 04 0 00 023301 		ER3	AC,23301
  3723	033577	312 05 0 00 040156 		CAME	AC+1,[0,,0]
  3724	033600	004 05 0 00 023301 		ER4	AC+1,23301
  3725	033601	321 10 0 00 033573 		JUMPL	AC+4,S23300	;LOOP ON ERROR SWITCH^
  3726
  3727						DFA	234,200000,0,0,0,200000,4,0,0,150400,0,0,0^
  3728					S23400:	DMOVE	AC,[200000,,0
  3729	033602	120 04 0 00 041114 			0,,0]
  3730						DFAD	AC,[200000,,4
  3731	033603	110 04 0 00 041251 			0,,0]
  3732	033604	312 04 0 00 040271 		CAME	AC,[150400,,0]
  3733	033605	003 04 0 00 023401 		ER3	AC,23401
  3734	033606	312 05 0 00 040156 		CAME	AC+1,[0,,0]
  3735	033607	004 05 0 00 023401 		ER4	AC+1,23401
  3736	033610	321 10 0 00 033602 		JUMPL	AC+4,S23400	;LOOP ON ERROR SWITCH^
  3737
  3738						DFA	235,200000,0,0,0,200000,10,0,0,151400,0,0,0^
  3739					S23500:	DMOVE	AC,[200000,,0
  3740	033611	120 04 0 00 041114 			0,,0]
  3741						DFAD	AC,[200000,,10
  3742	033612	110 04 0 00 041253 			0,,0]
  3743	033613	312 04 0 00 040266 		CAME	AC,[151400,,0]
  3744	033614	003 04 0 00 023501 		ER3	AC,23501
  3745	033615	312 05 0 00 040156 		CAME	AC+1,[0,,0]
  3746	033616	004 05 0 00 023501 		ER4	AC+1,23501
  3747	033617	321 10 0 00 033611 		JUMPL	AC+4,S23500	;LOOP ON ERROR SWITCH^
  3748
  3749						DFA	236,200000,0,0,0,200000,20,0,0,152400,0,0,0^
  3750					S23600:	DMOVE	AC,[200000,,0
  3751	033620	120 04 0 00 041114 			0,,0]
  3752						DFAD	AC,[200000,,20
  3753	033621	110 04 0 00 041255 			0,,0]
  3754	033622	312 04 0 00 040263 		CAME	AC,[152400,,0]
  3755	033623	003 04 0 00 023601 		ER3	AC,23601
  3756	033624	312 05 0 00 040156 		CAME	AC+1,[0,,0]
  3757	033625	004 05 0 00 023601 		ER4	AC+1,23601
  3758	033626	321 10 0 00 033620 		JUMPL	AC+4,S23600	;LOOP ON ERROR SWITCH^DBKCE	PDP-10 KI10 ADVANCED INSTRUCTION DIAGNOSTIC #5, VERSION 0,3 	MACRO %52(462) 13:32  9-AUG-76 PAGE 8-4
DBKCEM	MAC	28-MAY-76 11:21		DFAD TEST-DOUBLE FLOATING POINT ADD AND ROUND                                      SEQ 0089

  3759
  3760						DFA	237,200000,0,0,0,200000,40,0,0,153400,0,0,0^
  3761					S23700:	DMOVE	AC,[200000,,0
  3762	033627	120 04 0 00 041114 			0,,0]
  3763						DFAD	AC,[200000,,40
  3764	033630	110 04 0 00 041257 			0,,0]
  3765	033631	312 04 0 00 040260 		CAME	AC,[153400,,0]
  3766	033632	003 04 0 00 023701 		ER3	AC,23701
  3767	033633	312 05 0 00 040156 		CAME	AC+1,[0,,0]
  3768	033634	004 05 0 00 023701 		ER4	AC+1,23701
  3769	033635	321 10 0 00 033627 		JUMPL	AC+4,S23700	;LOOP ON ERROR SWITCH^
  3770
  3771						DFA	240,200000,0,0,0,200000,100,0,0,154400,0,0,0^
  3772					S24000:	DMOVE	AC,[200000,,0
  3773	033636	120 04 0 00 041114 			0,,0]
  3774						DFAD	AC,[200000,,100
  3775	033637	110 04 0 00 041261 			0,,0]
  3776	033640	312 04 0 00 040255 		CAME	AC,[154400,,0]
  3777	033641	003 04 0 00 024001 		ER3	AC,24001
  3778	033642	312 05 0 00 040156 		CAME	AC+1,[0,,0]
  3779	033643	004 05 0 00 024001 		ER4	AC+1,24001
  3780	033644	321 10 0 00 033636 		JUMPL	AC+4,S24000	;LOOP ON ERROR SWITCH^
  3781
  3782						DFA	241,200000,0,0,0,200000,200,0,0,155400,0,0,0^
  3783					S24100:	DMOVE	AC,[200000,,0
  3784	033645	120 04 0 00 041114 			0,,0]
  3785						DFAD	AC,[200000,,200
  3786	033646	110 04 0 00 041263 			0,,0]
  3787	033647	312 04 0 00 040252 		CAME	AC,[155400,,0]
  3788	033650	003 04 0 00 024101 		ER3	AC,24101
  3789	033651	312 05 0 00 040156 		CAME	AC+1,[0,,0]
  3790	033652	004 05 0 00 024101 		ER4	AC+1,24101
  3791	033653	321 10 0 00 033645 		JUMPL	AC+4,S24100	;LOOP ON ERROR SWITCH^
  3792
  3793						DFA	242,200000,0,0,0,200000,400,0,0,156400,0,0,0^
  3794					S24200:	DMOVE	AC,[200000,,0
  3795	033654	120 04 0 00 041114 			0,,0]
  3796						DFAD	AC,[200000,,400
  3797	033655	110 04 0 00 041265 			0,,0]
  3798	033656	312 04 0 00 040247 		CAME	AC,[156400,,0]
  3799	033657	003 04 0 00 024201 		ER3	AC,24201
  3800	033660	312 05 0 00 040156 		CAME	AC+1,[0,,0]
  3801	033661	004 05 0 00 024201 		ER4	AC+1,24201
  3802	033662	321 10 0 00 033654 		JUMPL	AC+4,S24200	;LOOP ON ERROR SWITCH^
  3803
  3804						DFA	243,200000,0,0,0,200000,1000,0,0,157400,0,0,0^
  3805					S24300:	DMOVE	AC,[200000,,0
  3806	033663	120 04 0 00 041114 			0,,0]
  3807						DFAD	AC,[200000,,1000
  3808	033664	110 04 0 00 041267 			0,,0]
  3809	033665	312 04 0 00 040244 		CAME	AC,[157400,,0]
  3810	033666	003 04 0 00 024301 		ER3	AC,24301
  3811	033667	312 05 0 00 040156 		CAME	AC+1,[0,,0]
  3812	033670	004 05 0 00 024301 		ER4	AC+1,24301
  3813	033671	321 10 0 00 033663 		JUMPL	AC+4,S24300	;LOOP ON ERROR SWITCH^DBKCE	PDP-10 KI10 ADVANCED INSTRUCTION DIAGNOSTIC #5, VERSION 0,3 	MACRO %52(462) 13:32  9-AUG-76 PAGE 8-5
DBKCEM	MAC	28-MAY-76 11:21		DFAD TEST-DOUBLE FLOATING POINT ADD AND ROUND                                      SEQ 0090

  3814
  3815						DFA	244,200000,0,0,0,200000,2000,0,0,160400,0,0,0^
  3816					S24400:	DMOVE	AC,[200000,,0
  3817	033672	120 04 0 00 041114 			0,,0]
  3818						DFAD	AC,[200000,,2000
  3819	033673	110 04 0 00 041271 			0,,0]
  3820	033674	312 04 0 00 040241 		CAME	AC,[160400,,0]
  3821	033675	003 04 0 00 024401 		ER3	AC,24401
  3822	033676	312 05 0 00 040156 		CAME	AC+1,[0,,0]
  3823	033677	004 05 0 00 024401 		ER4	AC+1,24401
  3824	033700	321 10 0 00 033672 		JUMPL	AC+4,S24400	;LOOP ON ERROR SWITCH^
  3825
  3826						DFA	245,200000,0,0,0,200000,4000,0,0,161400,0,0,0^
  3827					S24500:	DMOVE	AC,[200000,,0
  3828	033701	120 04 0 00 041114 			0,,0]
  3829						DFAD	AC,[200000,,4000
  3830	033702	110 04 0 00 041273 			0,,0]
  3831	033703	312 04 0 00 040236 		CAME	AC,[161400,,0]
  3832	033704	003 04 0 00 024501 		ER3	AC,24501
  3833	033705	312 05 0 00 040156 		CAME	AC+1,[0,,0]
  3834	033706	004 05 0 00 024501 		ER4	AC+1,24501
  3835	033707	321 10 0 00 033701 		JUMPL	AC+4,S24500	;LOOP ON ERROR SWITCH^DBKCE	PDP-10 KI10 ADVANCED INSTRUCTION DIAGNOSTIC #5, VERSION 0,3 	MACRO %52(462) 13:32  9-AUG-76 PAGE 9
DBKCEM	MAC	28-MAY-76 11:21		DFAD TEST-DOUBLE FLOATING POINT ADD AND ROUND                                      SEQ 0091

  3836
  3837						DFA	246,200000,0,0,0,200000,10000,0,0,162400,0,0,0^
  3838					S24600:	DMOVE	AC,[200000,,0
  3839	033710	120 04 0 00 041114 			0,,0]
  3840						DFAD	AC,[200000,,10000
  3841	033711	110 04 0 00 041275 			0,,0]
  3842	033712	312 04 0 00 040233 		CAME	AC,[162400,,0]
  3843	033713	003 04 0 00 024601 		ER3	AC,24601
  3844	033714	312 05 0 00 040156 		CAME	AC+1,[0,,0]
  3845	033715	004 05 0 00 024601 		ER4	AC+1,24601
  3846	033716	321 10 0 00 033710 		JUMPL	AC+4,S24600	;LOOP ON ERROR SWITCH^
  3847
  3848						DFA	247,200000,0,0,0,200000,20000,0,0,163400,0,0,0^
  3849					S24700:	DMOVE	AC,[200000,,0
  3850	033717	120 04 0 00 041114 			0,,0]
  3851						DFAD	AC,[200000,,20000
  3852	033720	110 04 0 00 041277 			0,,0]
  3853	033721	312 04 0 00 040230 		CAME	AC,[163400,,0]
  3854	033722	003 04 0 00 024701 		ER3	AC,24701
  3855	033723	312 05 0 00 040156 		CAME	AC+1,[0,,0]
  3856	033724	004 05 0 00 024701 		ER4	AC+1,24701
  3857	033725	321 10 0 00 033717 		JUMPL	AC+4,S24700	;LOOP ON ERROR SWITCH^
  3858
  3859						DFA	250,200000,0,0,0,200000,40000,0,0,164400,0,0,0^
  3860					S25000:	DMOVE	AC,[200000,,0
  3861	033726	120 04 0 00 041114 			0,,0]
  3862						DFAD	AC,[200000,,40000
  3863	033727	110 04 0 00 041301 			0,,0]
  3864	033730	312 04 0 00 040225 		CAME	AC,[164400,,0]
  3865	033731	003 04 0 00 025001 		ER3	AC,25001
  3866	033732	312 05 0 00 040156 		CAME	AC+1,[0,,0]
  3867	033733	004 05 0 00 025001 		ER4	AC+1,25001
  3868	033734	321 10 0 00 033726 		JUMPL	AC+4,S25000	;LOOP ON ERROR SWITCH^
  3869
  3870						DFA	251,200000,0,0,0,200000,100000,0,0,165400,0,0,0^
  3871					S25100:	DMOVE	AC,[200000,,0
  3872	033735	120 04 0 00 041114 			0,,0]
  3873						DFAD	AC,[200000,,100000
  3874	033736	110 04 0 00 041303 			0,,0]
  3875	033737	312 04 0 00 040222 		CAME	AC,[165400,,0]
  3876	033740	003 04 0 00 025101 		ER3	AC,25101
  3877	033741	312 05 0 00 040156 		CAME	AC+1,[0,,0]
  3878	033742	004 05 0 00 025101 		ER4	AC+1,25101
  3879	033743	321 10 0 00 033735 		JUMPL	AC+4,S25100	;LOOP ON ERROR SWITCH^
  3880
  3881						DFA	252,200000,0,0,0,200000,200000,0,0,166400,0,0,0^
  3882					S25200:	DMOVE	AC,[200000,,0
  3883	033744	120 04 0 00 041114 			0,,0]
  3884						DFAD	AC,[200000,,200000
  3885	033745	110 04 0 00 041305 			0,,0]
  3886	033746	312 04 0 00 040217 		CAME	AC,[166400,,0]
  3887	033747	003 04 0 00 025201 		ER3	AC,25201
  3888	033750	312 05 0 00 040156 		CAME	AC+1,[0,,0]
  3889	033751	004 05 0 00 025201 		ER4	AC+1,25201
  3890	033752	321 10 0 00 033744 		JUMPL	AC+4,S25200	;LOOP ON ERROR SWITCH^DBKCE	PDP-10 KI10 ADVANCED INSTRUCTION DIAGNOSTIC #5, VERSION 0,3 	MACRO %52(462) 13:32  9-AUG-76 PAGE 9-1
DBKCEM	MAC	28-MAY-76 11:21		DFAD TEST-DOUBLE FLOATING POINT ADD AND ROUND                                      SEQ 0092

  3891
  3892						DFA	253,200000,0,0,0,200000,400000,0,0,167400,0,0,0^
  3893					S25300:	DMOVE	AC,[200000,,0
  3894	033753	120 04 0 00 041114 			0,,0]
  3895						DFAD	AC,[200000,,400000
  3896	033754	110 04 0 00 041307 			0,,0]
  3897	033755	312 04 0 00 040214 		CAME	AC,[167400,,0]
  3898	033756	003 04 0 00 025301 		ER3	AC,25301
  3899	033757	312 05 0 00 040156 		CAME	AC+1,[0,,0]
  3900	033760	004 05 0 00 025301 		ER4	AC+1,25301
  3901	033761	321 10 0 00 033753 		JUMPL	AC+4,S25300	;LOOP ON ERROR SWITCH^
  3902
  3903						DFA	254,200000,0,0,0,200001,0,0,0,170400,0,0,0^
  3904					S25400:	DMOVE	AC,[200000,,0
  3905	033762	120 04 0 00 041114 			0,,0]
  3906						DFAD	AC,[200001,,0
  3907	033763	110 04 0 00 041311 			0,,0]
  3908	033764	312 04 0 00 040211 		CAME	AC,[170400,,0]
  3909	033765	003 04 0 00 025401 		ER3	AC,25401
  3910	033766	312 05 0 00 040156 		CAME	AC+1,[0,,0]
  3911	033767	004 05 0 00 025401 		ER4	AC+1,25401
  3912	033770	321 10 0 00 033762 		JUMPL	AC+4,S25400	;LOOP ON ERROR SWITCH^
  3913
  3914						DFA	255,200000,0,0,0,200002,0,0,0,171400,0,0,0^
  3915					S25500:	DMOVE	AC,[200000,,0
  3916	033771	120 04 0 00 041114 			0,,0]
  3917						DFAD	AC,[200002,,0
  3918	033772	110 04 0 00 041313 			0,,0]
  3919	033773	312 04 0 00 040206 		CAME	AC,[171400,,0]
  3920	033774	003 04 0 00 025501 		ER3	AC,25501
  3921	033775	312 05 0 00 040156 		CAME	AC+1,[0,,0]
  3922	033776	004 05 0 00 025501 		ER4	AC+1,25501
  3923	033777	321 10 0 00 033771 		JUMPL	AC+4,S25500	;LOOP ON ERROR SWITCH^
  3924
  3925						DFA	256,200000,0,0,0,200004,0,0,0,172400,0,0,0^
  3926					S25600:	DMOVE	AC,[200000,,0
  3927	034000	120 04 0 00 041114 			0,,0]
  3928						DFAD	AC,[200004,,0
  3929	034001	110 04 0 00 041315 			0,,0]
  3930	034002	312 04 0 00 040203 		CAME	AC,[172400,,0]
  3931	034003	003 04 0 00 025601 		ER3	AC,25601
  3932	034004	312 05 0 00 040156 		CAME	AC+1,[0,,0]
  3933	034005	004 05 0 00 025601 		ER4	AC+1,25601
  3934	034006	321 10 0 00 034000 		JUMPL	AC+4,S25600	;LOOP ON ERROR SWITCH^
  3935
  3936						DFA	257,200000,0,0,0,200010,0,0,0,173400,0,0,0^
  3937					S25700:	DMOVE	AC,[200000,,0
  3938	034007	120 04 0 00 041114 			0,,0]
  3939						DFAD	AC,[200010,,0
  3940	034010	110 04 0 00 041317 			0,,0]
  3941	034011	312 04 0 00 040200 		CAME	AC,[173400,,0]
  3942	034012	003 04 0 00 025701 		ER3	AC,25701
  3943	034013	312 05 0 00 040156 		CAME	AC+1,[0,,0]
  3944	034014	004 05 0 00 025701 		ER4	AC+1,25701
  3945	034015	321 10 0 00 034007 		JUMPL	AC+4,S25700	;LOOP ON ERROR SWITCH^DBKCE	PDP-10 KI10 ADVANCED INSTRUCTION DIAGNOSTIC #5, VERSION 0,3 	MACRO %52(462) 13:32  9-AUG-76 PAGE 9-2
DBKCEM	MAC	28-MAY-76 11:21		DFAD TEST-DOUBLE FLOATING POINT ADD AND ROUND                                      SEQ 0093

  3946
  3947						DFA	260,200000,0,0,0,200020,0,0,0,174400,0,0,0^
  3948					S26000:	DMOVE	AC,[200000,,0
  3949	034016	120 04 0 00 041114 			0,,0]
  3950						DFAD	AC,[200020,,0
  3951	034017	110 04 0 00 041236 			0,,0]
  3952	034020	312 04 0 00 040175 		CAME	AC,[174400,,0]
  3953	034021	003 04 0 00 026001 		ER3	AC,26001
  3954	034022	312 05 0 00 040156 		CAME	AC+1,[0,,0]
  3955	034023	004 05 0 00 026001 		ER4	AC+1,26001
  3956	034024	321 10 0 00 034016 		JUMPL	AC+4,S26000	;LOOP ON ERROR SWITCH^
  3957
  3958						DFA	261,200000,0,0,0,200040,0,0,0,175400,0,0,0^
  3959					S26100:	DMOVE	AC,[200000,,0
  3960	034025	120 04 0 00 041114 			0,,0]
  3961						DFAD	AC,[200040,,0
  3962	034026	110 04 0 00 041234 			0,,0]
  3963	034027	312 04 0 00 040172 		CAME	AC,[175400,,0]
  3964	034030	003 04 0 00 026101 		ER3	AC,26101
  3965	034031	312 05 0 00 040156 		CAME	AC+1,[0,,0]
  3966	034032	004 05 0 00 026101 		ER4	AC+1,26101
  3967	034033	321 10 0 00 034025 		JUMPL	AC+4,S26100	;LOOP ON ERROR SWITCH^
  3968
  3969						DFA	262,200000,0,0,0,200100,0,0,0,176400,0,0,0^
  3970					S26200:	DMOVE	AC,[200000,,0
  3971	034034	120 04 0 00 041114 			0,,0]
  3972						DFAD	AC,[200100,,0
  3973	034035	110 04 0 00 041232 			0,,0]
  3974	034036	312 04 0 00 040167 		CAME	AC,[176400,,0]
  3975	034037	003 04 0 00 026201 		ER3	AC,26201
  3976	034040	312 05 0 00 040156 		CAME	AC+1,[0,,0]
  3977	034041	004 05 0 00 026201 		ER4	AC+1,26201
  3978	034042	321 10 0 00 034034 		JUMPL	AC+4,S26200	;LOOP ON ERROR SWITCH^
  3979
  3980						DFA	263,377400,0,0,0,377400,0,0,0,400,0,0,0^
  3981					S26300:	DMOVE	AC,[377400,,0
  3982	034043	120 04 0 00 041124 			0,,0]
  3983						DFAD	AC,[377400,,0
  3984	034044	110 04 0 00 041124 			0,,0]
  3985	034045	312 04 0 00 040331 		CAME	AC,[400,,0]
  3986	034046	003 04 0 00 026301 		ER3	AC,26301
  3987	034047	312 05 0 00 040156 		CAME	AC+1,[0,,0]
  3988	034050	004 05 0 00 026301 		ER4	AC+1,26301
  3989	034051	321 10 0 00 034043 		JUMPL	AC+4,S26300	;LOOP ON ERROR SWITCH^
  3990
  3991						DFA	264,777700,0,0,0,777700,0,0,0,400400,0,0,0^
  3992					S26400:	DMOVE	AC,[777700,,0
  3993	034052	120 04 0 00 041321 			0,,0]
  3994						DFAD	AC,[777700,,0
  3995	034053	110 04 0 00 041321 			0,,0]
  3996	034054	312 04 0 00 041323 		CAME	AC,[400400,,0]
  3997	034055	003 04 0 00 026401 		ER3	AC,26401
  3998	034056	312 05 0 00 040156 		CAME	AC+1,[0,,0]
  3999	034057	004 05 0 00 026401 		ER4	AC+1,26401
  4000	034060	321 10 0 00 034052 		JUMPL	AC+4,S26400	;LOOP ON ERROR SWITCH^DBKCE	PDP-10 KI10 ADVANCED INSTRUCTION DIAGNOSTIC #5, VERSION 0,3 	MACRO %52(462) 13:32  9-AUG-76 PAGE 9-3
DBKCEM	MAC	28-MAY-76 11:21		DFAD TEST-DOUBLE FLOATING POINT ADD AND ROUND                                      SEQ 0094

  4001
  4002						DFA	265,200000,0,0,0,200777,-1,0,0,200777,-1,0,0^
  4003					S26500:	DMOVE	AC,[200000,,0
  4004	034061	120 04 0 00 041114 			0,,0]
  4005						DFAD	AC,[200777,,-1
  4006	034062	110 04 0 00 041324 			0,,0]
  4007	034063	312 04 0 00 041006 		CAME	AC,[200777,,-1]
  4008	034064	003 04 0 00 026501 		ER3	AC,26501
  4009	034065	312 05 0 00 040156 		CAME	AC+1,[0,,0]
  4010	034066	004 05 0 00 026501 		ER4	AC+1,26501
  4011	034067	321 10 0 00 034061 		JUMPL	AC+4,S26500	;LOOP ON ERROR SWITCH^
  4012
  4013						DFA	266,200000,1,0,0,201400,0,0,0,201400,0,200000,0^
  4014					S26600:	DMOVE	AC,[200000,,1
  4015	034070	120 04 0 00 041245 			0,,0]
  4016						DFAD	AC,[201400,,0
  4017	034071	110 04 0 00 040155 			0,,0]
  4018	034072	312 04 0 00 040155 		CAME	AC,[201400,,0]
  4019	034073	003 04 0 00 026601 		ER3	AC,26601
  4020	034074	312 05 0 00 040301 		CAME	AC+1,[200000,,0]
  4021	034075	004 05 0 00 026601 		ER4	AC+1,26601
  4022	034076	321 10 0 00 034070 		JUMPL	AC+4,S26600	;LOOP ON ERROR SWITCH^
  4023
  4024						DFA	267,200000,2,0,0,202400,0,0,0,202400,0,200000,0^
  4025					S26700:	DMOVE	AC,[200000,,2
  4026	034077	120 04 0 00 041247 			0,,0]
  4027						DFAD	AC,[202400,,0
  4028	034100	110 04 0 00 041042 			0,,0]
  4029	034101	312 04 0 00 041042 		CAME	AC,[202400,,0]
  4030	034102	003 04 0 00 026701 		ER3	AC,26701
  4031	034103	312 05 0 00 040301 		CAME	AC+1,[200000,,0]
  4032	034104	004 05 0 00 026701 		ER4	AC+1,26701
  4033	034105	321 10 0 00 034077 		JUMPL	AC+4,S26700	;LOOP ON ERROR SWITCH^
  4034
  4035						DFA	270,200000,4,0,0,203400,0,0,0,203400,0,200000,0^
  4036					S27000:	DMOVE	AC,[200000,,4
  4037	034106	120 04 0 00 041251 			0,,0]
  4038						DFAD	AC,[203400,,0
  4039	034107	110 04 0 00 041326 			0,,0]
  4040	034110	312 04 0 00 041231 		CAME	AC,[203400,,0]
  4041	034111	003 04 0 00 027001 		ER3	AC,27001
  4042	034112	312 05 0 00 040301 		CAME	AC+1,[200000,,0]
  4043	034113	004 05 0 00 027001 		ER4	AC+1,27001
  4044	034114	321 10 0 00 034106 		JUMPL	AC+4,S27000	;LOOP ON ERROR SWITCH^
  4045
  4046						DFA	271,200000,10,0,0,204400,0,0,0,204400,0,200000,0^
  4047					S27100:	DMOVE	AC,[200000,,10
  4048	034115	120 04 0 00 041253 			0,,0]
  4049						DFAD	AC,[204400,,0
  4050	034116	110 04 0 00 041045 			0,,0]
  4051	034117	312 04 0 00 041045 		CAME	AC,[204400,,0]
  4052	034120	003 04 0 00 027101 		ER3	AC,27101
  4053	034121	312 05 0 00 040301 		CAME	AC+1,[200000,,0]
  4054	034122	004 05 0 00 027101 		ER4	AC+1,27101
  4055	034123	321 10 0 00 034115 		JUMPL	AC+4,S27100	;LOOP ON ERROR SWITCH^DBKCE	PDP-10 KI10 ADVANCED INSTRUCTION DIAGNOSTIC #5, VERSION 0,3 	MACRO %52(462) 13:32  9-AUG-76 PAGE 9-4
DBKCEM	MAC	28-MAY-76 11:21		DFAD TEST-DOUBLE FLOATING POINT ADD AND ROUND                                      SEQ 0095

  4056
  4057						DFA	272,200000,20,0,0,205400,0,0,0,205400,0,200000,0^
  4058					S27200:	DMOVE	AC,[200000,,20
  4059	034124	120 04 0 00 041255 			0,,0]
  4060						DFAD	AC,[205400,,0
  4061	034125	110 04 0 00 041031 			0,,0]
  4062	034126	312 04 0 00 041031 		CAME	AC,[205400,,0]
  4063	034127	003 04 0 00 027201 		ER3	AC,27201
  4064	034130	312 05 0 00 040301 		CAME	AC+1,[200000,,0]
  4065	034131	004 05 0 00 027201 		ER4	AC+1,27201
  4066	034132	321 10 0 00 034124 		JUMPL	AC+4,S27200	;LOOP ON ERROR SWITCH^
  4067
  4068						DFA	273,200000,40,0,0,206400,0,0,0,206400,0,200000,0^
  4069					S27300:	DMOVE	AC,[200000,,40
  4070	034133	120 04 0 00 041257 			0,,0]
  4071						DFAD	AC,[206400,,0
  4072	034134	110 04 0 00 041141 			0,,0]
  4073	034135	312 04 0 00 041141 		CAME	AC,[206400,,0]
  4074	034136	003 04 0 00 027301 		ER3	AC,27301
  4075	034137	312 05 0 00 040301 		CAME	AC+1,[200000,,0]
  4076	034140	004 05 0 00 027301 		ER4	AC+1,27301
  4077	034141	321 10 0 00 034133 		JUMPL	AC+4,S27300	;LOOP ON ERROR SWITCH^
  4078
  4079						DFA	274,200000,100,0,0,207400,0,0,0,207400,0,200000,0^
  4080					S27400:	DMOVE	AC,[200000,,100
  4081	034142	120 04 0 00 041261 			0,,0]
  4082						DFAD	AC,[207400,,0
  4083	034143	110 04 0 00 041330 			0,,0]
  4084	034144	312 04 0 00 041330 		CAME	AC,[207400,,0]
  4085	034145	003 04 0 00 027401 		ER3	AC,27401
  4086	034146	312 05 0 00 040301 		CAME	AC+1,[200000,,0]
  4087	034147	004 05 0 00 027401 		ER4	AC+1,27401
  4088	034150	321 10 0 00 034142 		JUMPL	AC+4,S27400	;LOOP ON ERROR SWITCH^
  4089
  4090						DFA	275,200000,200,0,0,210400,0,0,0,210400,0,200000,0^
  4091					S27500:	DMOVE	AC,[200000,,200
  4092	034151	120 04 0 00 041263 			0,,0]
  4093						DFAD	AC,[210400,,0
  4094	034152	110 04 0 00 041050 			0,,0]
  4095	034153	312 04 0 00 041050 		CAME	AC,[210400,,0]
  4096	034154	003 04 0 00 027501 		ER3	AC,27501
  4097	034155	312 05 0 00 040301 		CAME	AC+1,[200000,,0]
  4098	034156	004 05 0 00 027501 		ER4	AC+1,27501
  4099	034157	321 10 0 00 034151 		JUMPL	AC+4,S27500	;LOOP ON ERROR SWITCH^
  4100
  4101						DFA	276,200000,400,0,0,211400,0,0,0,211400,0,200000,0^
  4102					S27600:	DMOVE	AC,[200000,,400
  4103	034160	120 04 0 00 041265 			0,,0]
  4104						DFAD	AC,[211400,,0
  4105	034161	110 04 0 00 041332 			0,,0]
  4106	034162	312 04 0 00 041332 		CAME	AC,[211400,,0]
  4107	034163	003 04 0 00 027601 		ER3	AC,27601
  4108	034164	312 05 0 00 040301 		CAME	AC+1,[200000,,0]
  4109	034165	004 05 0 00 027601 		ER4	AC+1,27601
  4110	034166	321 10 0 00 034160 		JUMPL	AC+4,S27600	;LOOP ON ERROR SWITCH^DBKCE	PDP-10 KI10 ADVANCED INSTRUCTION DIAGNOSTIC #5, VERSION 0,3 	MACRO %52(462) 13:32  9-AUG-76 PAGE 9-5
DBKCEM	MAC	28-MAY-76 11:21		DFAD TEST-DOUBLE FLOATING POINT ADD AND ROUND                                      SEQ 0096

  4111
  4112						DFA	277,200000,1000,0,0,212400,0,0,0,212400,0,200000,0^
  4113					S27700:	DMOVE	AC,[200000,,1000
  4114	034167	120 04 0 00 041267 			0,,0]
  4115						DFAD	AC,[212400,,0
  4116	034170	110 04 0 00 041334 			0,,0]
  4117	034171	312 04 0 00 041334 		CAME	AC,[212400,,0]
  4118	034172	003 04 0 00 027701 		ER3	AC,27701
  4119	034173	312 05 0 00 040301 		CAME	AC+1,[200000,,0]
  4120	034174	004 05 0 00 027701 		ER4	AC+1,27701
  4121	034175	321 10 0 00 034167 		JUMPL	AC+4,S27700	;LOOP ON ERROR SWITCH^
  4122
  4123						DFA	300,200000,2000,0,0,213400,0,0,0,213400,0,200000,0^
  4124					S30000:	DMOVE	AC,[200000,,2000
  4125	034176	120 04 0 00 041271 			0,,0]
  4126						DFAD	AC,[213400,,0
  4127	034177	110 04 0 00 041336 			0,,0]
  4128	034200	312 04 0 00 041336 		CAME	AC,[213400,,0]
  4129	034201	003 04 0 00 030001 		ER3	AC,30001
  4130	034202	312 05 0 00 040301 		CAME	AC+1,[200000,,0]
  4131	034203	004 05 0 00 030001 		ER4	AC+1,30001
  4132	034204	321 10 0 00 034176 		JUMPL	AC+4,S30000	;LOOP ON ERROR SWITCH^
  4133
  4134						DFA	301,200000,4000,0,0,214400,0,0,0,214400,0,200000,0^
  4135					S30100:	DMOVE	AC,[200000,,4000
  4136	034205	120 04 0 00 041273 			0,,0]
  4137						DFAD	AC,[214400,,0
  4138	034206	110 04 0 00 041340 			0,,0]
  4139	034207	312 04 0 00 041340 		CAME	AC,[214400,,0]
  4140	034210	003 04 0 00 030101 		ER3	AC,30101
  4141	034211	312 05 0 00 040301 		CAME	AC+1,[200000,,0]
  4142	034212	004 05 0 00 030101 		ER4	AC+1,30101
  4143	034213	321 10 0 00 034205 		JUMPL	AC+4,S30100	;LOOP ON ERROR SWITCH^DBKCE	PDP-10 KI10 ADVANCED INSTRUCTION DIAGNOSTIC #5, VERSION 0,3 	MACRO %52(462) 13:32  9-AUG-76 PAGE 10
DBKCEM	MAC	28-MAY-76 11:21		DFAD TEST-DOUBLE FLOATING POINT ADD AND ROUND                                      SEQ 0097

  4144
  4145						DFA	302,200000,10000,0,0,215400,0,0,0,215400,0,200000,0^
  4146					S30200:	DMOVE	AC,[200000,,10000
  4147	034214	120 04 0 00 041275 			0,,0]
  4148						DFAD	AC,[215400,,0
  4149	034215	110 04 0 00 041342 			0,,0]
  4150	034216	312 04 0 00 041342 		CAME	AC,[215400,,0]
  4151	034217	003 04 0 00 030201 		ER3	AC,30201
  4152	034220	312 05 0 00 040301 		CAME	AC+1,[200000,,0]
  4153	034221	004 05 0 00 030201 		ER4	AC+1,30201
  4154	034222	321 10 0 00 034214 		JUMPL	AC+4,S30200	;LOOP ON ERROR SWITCH^
  4155
  4156						DFA	303,200000,20000,0,0,216400,0,0,0,216400,0,200000,0^
  4157					S30300:	DMOVE	AC,[200000,,20000
  4158	034223	120 04 0 00 041277 			0,,0]
  4159						DFAD	AC,[216400,,0
  4160	034224	110 04 0 00 041344 			0,,0]
  4161	034225	312 04 0 00 041344 		CAME	AC,[216400,,0]
  4162	034226	003 04 0 00 030301 		ER3	AC,30301
  4163	034227	312 05 0 00 040301 		CAME	AC+1,[200000,,0]
  4164	034230	004 05 0 00 030301 		ER4	AC+1,30301
  4165	034231	321 10 0 00 034223 		JUMPL	AC+4,S30300	;LOOP ON ERROR SWITCH^
  4166
  4167						DFA	304,200000,40000,0,0,217400,0,0,0,217400,0,200000,0^
  4168					S30400:	DMOVE	AC,[200000,,40000
  4169	034232	120 04 0 00 041301 			0,,0]
  4170						DFAD	AC,[217400,,0
  4171	034233	110 04 0 00 041346 			0,,0]
  4172	034234	312 04 0 00 041346 		CAME	AC,[217400,,0]
  4173	034235	003 04 0 00 030401 		ER3	AC,30401
  4174	034236	312 05 0 00 040301 		CAME	AC+1,[200000,,0]
  4175	034237	004 05 0 00 030401 		ER4	AC+1,30401
  4176	034240	321 10 0 00 034232 		JUMPL	AC+4,S30400	;LOOP ON ERROR SWITCH^
  4177
  4178						DFA	305,200000,100000,0,0,220400,0,0,0,220400,0,200000,0^
  4179					S30500:	DMOVE	AC,[200000,,100000
  4180	034241	120 04 0 00 041303 			0,,0]
  4181						DFAD	AC,[220400,,0
  4182	034242	110 04 0 00 041053 			0,,0]
  4183	034243	312 04 0 00 041053 		CAME	AC,[220400,,0]
  4184	034244	003 04 0 00 030501 		ER3	AC,30501
  4185	034245	312 05 0 00 040301 		CAME	AC+1,[200000,,0]
  4186	034246	004 05 0 00 030501 		ER4	AC+1,30501
  4187	034247	321 10 0 00 034241 		JUMPL	AC+4,S30500	;LOOP ON ERROR SWITCH^
  4188
  4189						DFA	306,200000,200000,0,0,221400,0,0,0,221400,0,200000,0^
  4190					S30600:	DMOVE	AC,[200000,,200000
  4191	034250	120 04 0 00 041305 			0,,0]
  4192						DFAD	AC,[221400,,0
  4193	034251	110 04 0 00 041350 			0,,0]
  4194	034252	312 04 0 00 041350 		CAME	AC,[221400,,0]
  4195	034253	003 04 0 00 030601 		ER3	AC,30601
  4196	034254	312 05 0 00 040301 		CAME	AC+1,[200000,,0]
  4197	034255	004 05 0 00 030601 		ER4	AC+1,30601
  4198	034256	321 10 0 00 034250 		JUMPL	AC+4,S30600	;LOOP ON ERROR SWITCH^DBKCE	PDP-10 KI10 ADVANCED INSTRUCTION DIAGNOSTIC #5, VERSION 0,3 	MACRO %52(462) 13:32  9-AUG-76 PAGE 10-1
DBKCEM	MAC	28-MAY-76 11:21		DFAD TEST-DOUBLE FLOATING POINT ADD AND ROUND                                      SEQ 0098

  4199
  4200						DFA	307,200000,400000,0,0,222400,0,0,0,222400,0,200000,0^
  4201					S30700:	DMOVE	AC,[200000,,400000
  4202	034257	120 04 0 00 041307 			0,,0]
  4203						DFAD	AC,[222400,,0
  4204	034260	110 04 0 00 041352 			0,,0]
  4205	034261	312 04 0 00 041352 		CAME	AC,[222400,,0]
  4206	034262	003 04 0 00 030701 		ER3	AC,30701
  4207	034263	312 05 0 00 040301 		CAME	AC+1,[200000,,0]
  4208	034264	004 05 0 00 030701 		ER4	AC+1,30701
  4209	034265	321 10 0 00 034257 		JUMPL	AC+4,S30700	;LOOP ON ERROR SWITCH^
  4210
  4211						DFA	310,200001,0,0,0,223400,0,0,0,223400,0,200000,0^
  4212					S31000:	DMOVE	AC,[200001,,0
  4213	034266	120 04 0 00 041311 			0,,0]
  4214						DFAD	AC,[223400,,0
  4215	034267	110 04 0 00 041354 			0,,0]
  4216	034270	312 04 0 00 041354 		CAME	AC,[223400,,0]
  4217	034271	003 04 0 00 031001 		ER3	AC,31001
  4218	034272	312 05 0 00 040301 		CAME	AC+1,[200000,,0]
  4219	034273	004 05 0 00 031001 		ER4	AC+1,31001
  4220	034274	321 10 0 00 034266 		JUMPL	AC+4,S31000	;LOOP ON ERROR SWITCH^
  4221
  4222						DFA	311,200002,0,0,0,224400,0,0,0,224400,0,200000,0^
  4223					S31100:	DMOVE	AC,[200002,,0
  4224	034275	120 04 0 00 041313 			0,,0]
  4225						DFAD	AC,[224400,,0
  4226	034276	110 04 0 00 041356 			0,,0]
  4227	034277	312 04 0 00 041356 		CAME	AC,[224400,,0]
  4228	034300	003 04 0 00 031101 		ER3	AC,31101
  4229	034301	312 05 0 00 040301 		CAME	AC+1,[200000,,0]
  4230	034302	004 05 0 00 031101 		ER4	AC+1,31101
  4231	034303	321 10 0 00 034275 		JUMPL	AC+4,S31100	;LOOP ON ERROR SWITCH^
  4232
  4233						DFA	312,200004,0,0,0,225400,0,0,0,225400,0,200000,0^
  4234					S31200:	DMOVE	AC,[200004,,0
  4235	034304	120 04 0 00 041315 			0,,0]
  4236						DFAD	AC,[225400,,0
  4237	034305	110 04 0 00 041360 			0,,0]
  4238	034306	312 04 0 00 041360 		CAME	AC,[225400,,0]
  4239	034307	003 04 0 00 031201 		ER3	AC,31201
  4240	034310	312 05 0 00 040301 		CAME	AC+1,[200000,,0]
  4241	034311	004 05 0 00 031201 		ER4	AC+1,31201
  4242	034312	321 10 0 00 034304 		JUMPL	AC+4,S31200	;LOOP ON ERROR SWITCH^
  4243
  4244						DFA	313,200010,0,0,0,226400,0,0,0,226400,0,200000,0^
  4245					S31300:	DMOVE	AC,[200010,,0
  4246	034313	120 04 0 00 041317 			0,,0]
  4247						DFAD	AC,[226400,,0
  4248	034314	110 04 0 00 041362 			0,,0]
  4249	034315	312 04 0 00 041362 		CAME	AC,[226400,,0]
  4250	034316	003 04 0 00 031301 		ER3	AC,31301
  4251	034317	312 05 0 00 040301 		CAME	AC+1,[200000,,0]
  4252	034320	004 05 0 00 031301 		ER4	AC+1,31301
  4253	034321	321 10 0 00 034313 		JUMPL	AC+4,S31300	;LOOP ON ERROR SWITCH^DBKCE	PDP-10 KI10 ADVANCED INSTRUCTION DIAGNOSTIC #5, VERSION 0,3 	MACRO %52(462) 13:32  9-AUG-76 PAGE 10-2
DBKCEM	MAC	28-MAY-76 11:21		DFAD TEST-DOUBLE FLOATING POINT ADD AND ROUND                                      SEQ 0099

  4254
  4255						DFA	314,200020,0,0,0,227400,0,0,0,227400,0,200000,0^
  4256					S31400:	DMOVE	AC,[200020,,0
  4257	034322	120 04 0 00 041236 			0,,0]
  4258						DFAD	AC,[227400,,0
  4259	034323	110 04 0 00 041364 			0,,0]
  4260	034324	312 04 0 00 041364 		CAME	AC,[227400,,0]
  4261	034325	003 04 0 00 031401 		ER3	AC,31401
  4262	034326	312 05 0 00 040301 		CAME	AC+1,[200000,,0]
  4263	034327	004 05 0 00 031401 		ER4	AC+1,31401
  4264	034330	321 10 0 00 034322 		JUMPL	AC+4,S31400	;LOOP ON ERROR SWITCH^
  4265
  4266						DFA	315,200040,0,0,0,230400,0,0,0,230400,0,200000,0^
  4267					S31500:	DMOVE	AC,[200040,,0
  4268	034331	120 04 0 00 041234 			0,,0]
  4269						DFAD	AC,[230400,,0
  4270	034332	110 04 0 00 041366 			0,,0]
  4271	034333	312 04 0 00 041366 		CAME	AC,[230400,,0]
  4272	034334	003 04 0 00 031501 		ER3	AC,31501
  4273	034335	312 05 0 00 040301 		CAME	AC+1,[200000,,0]
  4274	034336	004 05 0 00 031501 		ER4	AC+1,31501
  4275	034337	321 10 0 00 034331 		JUMPL	AC+4,S31500	;LOOP ON ERROR SWITCH^
  4276
  4277						DFA	316,200100,0,0,0,231400,0,0,0,231400,0,200000,0^
  4278					S31600:	DMOVE	AC,[200100,,0
  4279	034340	120 04 0 00 041232 			0,,0]
  4280						DFAD	AC,[231400,,0
  4281	034341	110 04 0 00 041370 			0,,0]
  4282	034342	312 04 0 00 041370 		CAME	AC,[231400,,0]
  4283	034343	003 04 0 00 031601 		ER3	AC,31601
  4284	034344	312 05 0 00 040301 		CAME	AC+1,[200000,,0]
  4285	034345	004 05 0 00 031601 		ER4	AC+1,31601
  4286	034346	321 10 0 00 034340 		JUMPL	AC+4,S31600	;LOOP ON ERROR SWITCH^
  4287
  4288						DFA	317,200200,0,0,0,232400,0,0,0,232400,0,200000,0^
  4289					S31700:	DMOVE	AC,[200200,,0
  4290	034347	120 04 0 00 041372 			0,,0]
  4291						DFAD	AC,[232400,,0
  4292	034350	110 04 0 00 041374 			0,,0]
  4293	034351	312 04 0 00 041374 		CAME	AC,[232400,,0]
  4294	034352	003 04 0 00 031701 		ER3	AC,31701
  4295	034353	312 05 0 00 040301 		CAME	AC+1,[200000,,0]
  4296	034354	004 05 0 00 031701 		ER4	AC+1,31701
  4297	034355	321 10 0 00 034347 		JUMPL	AC+4,S31700	;LOOP ON ERROR SWITCH^
  4298
  4299						DFA	320,200400,0,0,0,233400,0,0,0,233400,0,200000,0^
  4300					S32000:	DMOVE	AC,[200400,,0
  4301	034356	120 04 0 00 041027 			0,,0]
  4302						DFAD	AC,[233400,,0
  4303	034357	110 04 0 00 041376 			0,,0]
  4304	034360	312 04 0 00 041376 		CAME	AC,[233400,,0]
  4305	034361	003 04 0 00 032001 		ER3	AC,32001
  4306	034362	312 05 0 00 040301 		CAME	AC+1,[200000,,0]
  4307	034363	004 05 0 00 032001 		ER4	AC+1,32001
  4308	034364	321 10 0 00 034356 		JUMPL	AC+4,S32000	;LOOP ON ERROR SWITCH^DBKCE	PDP-10 KI10 ADVANCED INSTRUCTION DIAGNOSTIC #5, VERSION 0,3 	MACRO %52(462) 13:32  9-AUG-76 PAGE 10-3
DBKCEM	MAC	28-MAY-76 11:21		DFAD TEST-DOUBLE FLOATING POINT ADD AND ROUND                                      SEQ 0100

  4309
  4310						DFA	321,200400,0,0,0,200400,1,0,0,201400,0,200000,0^
  4311					S32100:	DMOVE	AC,[200400,,0
  4312	034365	120 04 0 00 041027 			0,,0]
  4313						DFAD	AC,[200400,,1
  4314	034366	110 04 0 00 040275 			0,,0]
  4315	034367	312 04 0 00 040155 		CAME	AC,[201400,,0]
  4316	034370	003 04 0 00 032101 		ER3	AC,32101
  4317	034371	312 05 0 00 040301 		CAME	AC+1,[200000,,0]
  4318	034372	004 05 0 00 032101 		ER4	AC+1,32101
  4319	034373	321 10 0 00 034365 		JUMPL	AC+4,S32100	;LOOP ON ERROR SWITCH^
  4320
  4321						DFA	322,200400,0,0,0,201400,0,0,0,201600,0,0,0^
  4322					S32200:	DMOVE	AC,[200400,,0
  4323	034374	120 04 0 00 041027 			0,,0]
  4324						DFAD	AC,[201400,,0
  4325	034375	110 04 0 00 040155 			0,,0]
  4326	034376	312 04 0 00 041041 		CAME	AC,[201600,,0]
  4327	034377	003 04 0 00 032201 		ER3	AC,32201
  4328	034400	312 05 0 00 040156 		CAME	AC+1,[0,,0]
  4329	034401	004 05 0 00 032201 		ER4	AC+1,32201
  4330	034402	321 10 0 00 034374 		JUMPL	AC+4,S32200	;LOOP ON ERROR SWITCH^
  4331
  4332						DFA	323,200000,3,0,0,202400,0,0,0,202400,0,300000,0^
  4333					S32300:	DMOVE	AC,[200000,,3
  4334	034403	120 04 0 00 041400 			0,,0]
  4335						DFAD	AC,[202400,,0
  4336	034404	110 04 0 00 041042 			0,,0]
  4337	034405	312 04 0 00 041042 		CAME	AC,[202400,,0]
  4338	034406	003 04 0 00 032301 		ER3	AC,32301
  4339	034407	312 05 0 00 040661 		CAME	AC+1,[300000,,0]
  4340	034410	004 05 0 00 032301 		ER4	AC+1,32301
  4341	034411	321 10 0 00 034403 		JUMPL	AC+4,S32300	;LOOP ON ERROR SWITCH^
  4342
  4343						DFA	324,200000,5,0,0,203400,0,0,0,203400,0,240000,0^
  4344					S32400:	DMOVE	AC,[200000,,5
  4345	034412	120 04 0 00 041402 			0,,0]
  4346						DFAD	AC,[203400,,0
  4347	034413	110 04 0 00 041326 			0,,0]
  4348	034414	312 04 0 00 041231 		CAME	AC,[203400,,0]
  4349	034415	003 04 0 00 032401 		ER3	AC,32401
  4350	034416	312 05 0 00 041104 		CAME	AC+1,[240000,,0]
  4351	034417	004 05 0 00 032401 		ER4	AC+1,32401
  4352	034420	321 10 0 00 034412 		JUMPL	AC+4,S32400	;LOOP ON ERROR SWITCH^
  4353
  4354						DFA	325,200000,11,0,0,204400,0,0,0,204400,0,220000,0^
  4355					S32500:	DMOVE	AC,[200000,,11
  4356	034421	120 04 0 00 041404 			0,,0]
  4357						DFAD	AC,[204400,,0
  4358	034422	110 04 0 00 041045 			0,,0]
  4359	034423	312 04 0 00 041045 		CAME	AC,[204400,,0]
  4360	034424	003 04 0 00 032501 		ER3	AC,32501
  4361	034425	312 05 0 00 041100 		CAME	AC+1,[220000,,0]
  4362	034426	004 05 0 00 032501 		ER4	AC+1,32501
  4363	034427	321 10 0 00 034421 		JUMPL	AC+4,S32500	;LOOP ON ERROR SWITCH^DBKCE	PDP-10 KI10 ADVANCED INSTRUCTION DIAGNOSTIC #5, VERSION 0,3 	MACRO %52(462) 13:32  9-AUG-76 PAGE 10-4
DBKCEM	MAC	28-MAY-76 11:21		DFAD TEST-DOUBLE FLOATING POINT ADD AND ROUND                                      SEQ 0101

  4364
  4365						DFA	326,200000,21,0,0,205400,0,0,0,205400,0,210000,0^
  4366					S32600:	DMOVE	AC,[200000,,21
  4367	034430	120 04 0 00 041406 			0,,0]
  4368						DFAD	AC,[205400,,0
  4369	034431	110 04 0 00 041031 			0,,0]
  4370	034432	312 04 0 00 041031 		CAME	AC,[205400,,0]
  4371	034433	003 04 0 00 032601 		ER3	AC,32601
  4372	034434	312 05 0 00 041074 		CAME	AC+1,[210000,,0]
  4373	034435	004 05 0 00 032601 		ER4	AC+1,32601
  4374	034436	321 10 0 00 034430 		JUMPL	AC+4,S32600	;LOOP ON ERROR SWITCH^
  4375
  4376						DFA	327,200000,41,0,0,206400,0,0,0,206400,0,204000,0^
  4377					S32700:	DMOVE	AC,[200000,,41
  4378	034437	120 04 0 00 041410 			0,,0]
  4379						DFAD	AC,[206400,,0
  4380	034440	110 04 0 00 041141 			0,,0]
  4381	034441	312 04 0 00 041141 		CAME	AC,[206400,,0]
  4382	034442	003 04 0 00 032701 		ER3	AC,32701
  4383	034443	312 05 0 00 041070 		CAME	AC+1,[204000,,0]
  4384	034444	004 05 0 00 032701 		ER4	AC+1,32701
  4385	034445	321 10 0 00 034437 		JUMPL	AC+4,S32700	;LOOP ON ERROR SWITCH^
  4386
  4387						DFA	330,200000,101,0,0,207400,0,0,0,207400,0,202000,0^
  4388					S33000:	DMOVE	AC,[200000,,101
  4389	034446	120 04 0 00 041412 			0,,0]
  4390						DFAD	AC,[207400,,0
  4391	034447	110 04 0 00 041330 			0,,0]
  4392	034450	312 04 0 00 041330 		CAME	AC,[207400,,0]
  4393	034451	003 04 0 00 033001 		ER3	AC,33001
  4394	034452	312 05 0 00 041066 		CAME	AC+1,[202000,,0]
  4395	034453	004 05 0 00 033001 		ER4	AC+1,33001
  4396	034454	321 10 0 00 034446 		JUMPL	AC+4,S33000	;LOOP ON ERROR SWITCH^
  4397
  4398						DFA	331,200000,201,0,0,210400,0,0,0,210400,0,201000,0^
  4399					S33100:	DMOVE	AC,[200000,,201
  4400	034455	120 04 0 00 041414 			0,,0]
  4401						DFAD	AC,[210400,,0
  4402	034456	110 04 0 00 041050 			0,,0]
  4403	034457	312 04 0 00 041050 		CAME	AC,[210400,,0]
  4404	034460	003 04 0 00 033101 		ER3	AC,33101
  4405	034461	312 05 0 00 041064 		CAME	AC+1,[201000,,0]
  4406	034462	004 05 0 00 033101 		ER4	AC+1,33101
  4407	034463	321 10 0 00 034455 		JUMPL	AC+4,S33100	;LOOP ON ERROR SWITCH^
  4408
  4409						DFA	332,200000,401,0,0,211400,0,0,0,211400,0,200400,0^
  4410					S33200:	DMOVE	AC,[200000,,401
  4411	034464	120 04 0 00 041416 			0,,0]
  4412						DFAD	AC,[211400,,0
  4413	034465	110 04 0 00 041332 			0,,0]
  4414	034466	312 04 0 00 041332 		CAME	AC,[211400,,0]
  4415	034467	003 04 0 00 033201 		ER3	AC,33201
  4416	034470	312 05 0 00 040161 		CAME	AC+1,[200400,,0]
  4417	034471	004 05 0 00 033201 		ER4	AC+1,33201
  4418	034472	321 10 0 00 034464 		JUMPL	AC+4,S33200	;LOOP ON ERROR SWITCH^DBKCE	PDP-10 KI10 ADVANCED INSTRUCTION DIAGNOSTIC #5, VERSION 0,3 	MACRO %52(462) 13:32  9-AUG-76 PAGE 10-5
DBKCEM	MAC	28-MAY-76 11:21		DFAD TEST-DOUBLE FLOATING POINT ADD AND ROUND                                      SEQ 0102

  4419
  4420						DFA	333,200000,1001,0,0,212400,0,0,0,212400,0,200200,0^
  4421					S33300:	DMOVE	AC,[200000,,1001
  4422	034473	120 04 0 00 041420 			0,,0]
  4423						DFAD	AC,[212400,,0
  4424	034474	110 04 0 00 041334 			0,,0]
  4425	034475	312 04 0 00 041334 		CAME	AC,[212400,,0]
  4426	034476	003 04 0 00 033301 		ER3	AC,33301
  4427	034477	312 05 0 00 041372 		CAME	AC+1,[200200,,0]
  4428	034500	004 05 0 00 033301 		ER4	AC+1,33301
  4429	034501	321 10 0 00 034473 		JUMPL	AC+4,S33300	;LOOP ON ERROR SWITCH^
  4430
  4431						DFA	334,200000,2001,0,0,213400,0,0,0,213400,0,200100,0^
  4432					S33400:	DMOVE	AC,[200000,,2001
  4433	034502	120 04 0 00 041422 			0,,0]
  4434						DFAD	AC,[213400,,0
  4435	034503	110 04 0 00 041336 			0,,0]
  4436	034504	312 04 0 00 041336 		CAME	AC,[213400,,0]
  4437	034505	003 04 0 00 033401 		ER3	AC,33401
  4438	034506	312 05 0 00 041232 		CAME	AC+1,[200100,,0]
  4439	034507	004 05 0 00 033401 		ER4	AC+1,33401
  4440	034510	321 10 0 00 034502 		JUMPL	AC+4,S33400	;LOOP ON ERROR SWITCH^DBKCE	PDP-10 KI10 ADVANCED INSTRUCTION DIAGNOSTIC #5, VERSION 0,3 	MACRO %52(462) 13:32  9-AUG-76 PAGE 11
DBKCEM	MAC	28-MAY-76 11:21		DFAD TEST-DOUBLE FLOATING POINT ADD AND ROUND                                      SEQ 0103

  4441
  4442						DFA	335,200000,4001,0,0,214400,0,0,0,214400,0,200040,0^
  4443					S33500:	DMOVE	AC,[200000,,4001
  4444	034511	120 04 0 00 041424 			0,,0]
  4445						DFAD	AC,[214400,,0
  4446	034512	110 04 0 00 041340 			0,,0]
  4447	034513	312 04 0 00 041340 		CAME	AC,[214400,,0]
  4448	034514	003 04 0 00 033501 		ER3	AC,33501
  4449	034515	312 05 0 00 041234 		CAME	AC+1,[200040,,0]
  4450	034516	004 05 0 00 033501 		ER4	AC+1,33501
  4451	034517	321 10 0 00 034511 		JUMPL	AC+4,S33500	;LOOP ON ERROR SWITCH^
  4452
  4453						DFA	336,200000,10001,0,0,215400,0,0,0,215400,0,200020,0^
  4454					S33600:	DMOVE	AC,[200000,,10001
  4455	034520	120 04 0 00 041426 			0,,0]
  4456						DFAD	AC,[215400,,0
  4457	034521	110 04 0 00 041342 			0,,0]
  4458	034522	312 04 0 00 041342 		CAME	AC,[215400,,0]
  4459	034523	003 04 0 00 033601 		ER3	AC,33601
  4460	034524	312 05 0 00 041236 		CAME	AC+1,[200020,,0]
  4461	034525	004 05 0 00 033601 		ER4	AC+1,33601
  4462	034526	321 10 0 00 034520 		JUMPL	AC+4,S33600	;LOOP ON ERROR SWITCH^
  4463
  4464						DFA	337,200000,20001,0,0,216400,0,0,0,216400,0,200010,0^
  4465					S33700:	DMOVE	AC,[200000,,20001
  4466	034527	120 04 0 00 041430 			0,,0]
  4467						DFAD	AC,[216400,,0
  4468	034530	110 04 0 00 041344 			0,,0]
  4469	034531	312 04 0 00 041344 		CAME	AC,[216400,,0]
  4470	034532	003 04 0 00 033701 		ER3	AC,33701
  4471	034533	312 05 0 00 041317 		CAME	AC+1,[200010,,0]
  4472	034534	004 05 0 00 033701 		ER4	AC+1,33701
  4473	034535	321 10 0 00 034527 		JUMPL	AC+4,S33700	;LOOP ON ERROR SWITCH^
  4474
  4475						DFA	340,200000,40001,0,0,217400,0,0,0,217400,0,200004,0^
  4476					S34000:	DMOVE	AC,[200000,,40001
  4477	034536	120 04 0 00 041432 			0,,0]
  4478						DFAD	AC,[217400,,0
  4479	034537	110 04 0 00 041346 			0,,0]
  4480	034540	312 04 0 00 041346 		CAME	AC,[217400,,0]
  4481	034541	003 04 0 00 034001 		ER3	AC,34001
  4482	034542	312 05 0 00 041315 		CAME	AC+1,[200004,,0]
  4483	034543	004 05 0 00 034001 		ER4	AC+1,34001
  4484	034544	321 10 0 00 034536 		JUMPL	AC+4,S34000	;LOOP ON ERROR SWITCH^
  4485
  4486						DFA	341,200000,100001,0,0,220400,0,0,0,220400,0,200002,0^
  4487					S34100:	DMOVE	AC,[200000,,100001
  4488	034545	120 04 0 00 041434 			0,,0]
  4489						DFAD	AC,[220400,,0
  4490	034546	110 04 0 00 041053 			0,,0]
  4491	034547	312 04 0 00 041053 		CAME	AC,[220400,,0]
  4492	034550	003 04 0 00 034101 		ER3	AC,34101
  4493	034551	312 05 0 00 041313 		CAME	AC+1,[200002,,0]
  4494	034552	004 05 0 00 034101 		ER4	AC+1,34101
  4495	034553	321 10 0 00 034545 		JUMPL	AC+4,S34100	;LOOP ON ERROR SWITCH^DBKCE	PDP-10 KI10 ADVANCED INSTRUCTION DIAGNOSTIC #5, VERSION 0,3 	MACRO %52(462) 13:32  9-AUG-76 PAGE 11-1
DBKCEM	MAC	28-MAY-76 11:21		DFAD TEST-DOUBLE FLOATING POINT ADD AND ROUND                                      SEQ 0104

  4496
  4497						DFA	342,200000,200001,0,0,221400,0,0,0,221400,0,200001,0^
  4498					S34200:	DMOVE	AC,[200000,,200001
  4499	034554	120 04 0 00 041436 			0,,0]
  4500						DFAD	AC,[221400,,0
  4501	034555	110 04 0 00 041350 			0,,0]
  4502	034556	312 04 0 00 041350 		CAME	AC,[221400,,0]
  4503	034557	003 04 0 00 034201 		ER3	AC,34201
  4504	034560	312 05 0 00 041311 		CAME	AC+1,[200001,,0]
  4505	034561	004 05 0 00 034201 		ER4	AC+1,34201
  4506	034562	321 10 0 00 034554 		JUMPL	AC+4,S34200	;LOOP ON ERROR SWITCH^
  4507
  4508						DFA	343,200000,400001,0,0,222400,0,0,0,222400,0,200000,400000^
  4509					S34300:	DMOVE	AC,[200000,,400001
  4510	034563	120 04 0 00 041440 			0,,0]
  4511						DFAD	AC,[222400,,0
  4512	034564	110 04 0 00 041352 			0,,0]
  4513	034565	312 04 0 00 041352 		CAME	AC,[222400,,0]
  4514	034566	003 04 0 00 034301 		ER3	AC,34301
  4515	034567	312 05 0 00 041307 		CAME	AC+1,[200000,,400000]
  4516	034570	004 05 0 00 034301 		ER4	AC+1,34301
  4517	034571	321 10 0 00 034563 		JUMPL	AC+4,S34300	;LOOP ON ERROR SWITCH^DBKCE	PDP-10 KI10 ADVANCED INSTRUCTION DIAGNOSTIC #5, VERSION 0,3 	MACRO %52(462) 13:32  9-AUG-76 PAGE 12
DBKCEM	MAC	28-MAY-76 11:21		DFAD TEST-DOUBLE FLOATING POINT ADD AND ROUND                                      SEQ 0105

  4518					;TEST AROV, FOV AND FXU FLAGS - DFAD
  4519
  4520			000004			AC=4
  4521						SAVEAC	(1,1)^
  4522	034572	201 10 0 00 034572 		MOVEI	AC+4,.
  4523	034573	202 10 0 00 030051 		MOVEM	AC+4,TESTPC	;SETUP SUBTEST PC
  4524	034574	201 10 0 00 000010 		MOVEI	AC+4,<AC+4>&17	;INFORM ERROR ROUTINE WHICH
  4525	034575	202 10 0 00 042257 		MOVEM	AC+4,ERRLOP#	;AC IS USED FOR ITERATION^
  4526
  4527	034576	254 02 1 00 041442 	S34400:	JRSTF	@[.+1]		;CLEAR ALL FLAGS
  4528						DMOVE	AC,[377400,,0
  4529	034577	120 04 0 00 041124 			    0,,0]
  4530						DFAD	AC,[376777,,-1
  4531	034600	110 04 0 00 041443 			    -1,,-2]	;EXPECT AROV, FOV, FXU=0,0,0
  4532	034601	265 03 0 00 034602 		JSP	AC-1,.+1	;SAVE FLAGS
  4533	034602	312 04 0 00 040455 		CAME	AC,[377777,,-1]
  4534	034603	003 04 0 00 034401 		ER3	AC,34401	;C(AC) FAILED
  4535	034604	312 05 0 00 040455 		CAME	AC+1,[377777,,-1]
  4536	034605	004 05 0 00 034401 		ER4	AC+1,34401	;C(AC+1) FAILED
  4537	034606	255 10 0 00 034610 		JOV	.+2
  4538	034607	254 00 0 00 034611 		JRST	.+2
  4539	034610	013 03 0 00 034401 		ER13	AC-1,34401	;AROV WAS SET
  4540	034611	255 01 0 00 034613 		JFOV	.+2
  4541	034612	254 00 0 00 034614 		JRST	.+2
  4542	034613	013 03 0 00 034401 		ER13	AC-1,34401	;FOV WAS SET
  4543	034614	603 03 0 00 000100 		TLNE	AC-1,FXU
  4544	034615	013 03 0 00 034401 		ER13	AC-1,34401	;FXU WAS SET
  4545	034616	321 10 0 00 034576 		JUMPL	AC+4,S34400	;LOOP ON ERROR SWITCH
  4546
  4547	034617	254 02 1 00 041445 	S34500:	JRSTF	@[.+1]		;CLEAR ALL FLAGS
  4548						DMOVE	AC,[377400,,0
  4549	034620	120 04 0 00 041124 			    0,,0]
  4550						DFAD	AC,[377400,,0
  4551	034621	110 04 0 00 041124 			    0,,0]	;EXPECT AROV, FOV, FXU=1,1,0
  4552	034622	265 03 0 00 034623 		JSP	AC-1,.+1	;SAVE FLAGS
  4553	034623	312 04 0 00 040331 		CAME	AC,[400,,0]
  4554	034624	003 04 0 00 034501 		ER3	AC,34501	;C(AC) FAILED
  4555	034625	312 05 0 00 040156 		CAME	AC+1,[0,,0]
  4556	034626	004 05 0 00 034501 		ER4	AC+1,34501	;C(AC+1) FAILED
  4557	034627	255 10 0 00 034631 		JOV	.+2
  4558	034630	013 03 0 00 034501 		ER13	AC-1,34501	;AROV WAS CLEAR
  4559	034631	255 01 0 00 034633 		JFOV	.+2
  4560	034632	013 03 0 00 034501 		ER13	AC-1,34501	;FOV WAS CLEAR
  4561	034633	603 03 0 00 000100 		TLNE	AC-1,FXU
  4562	034634	013 03 0 00 034501 		ER13	AC-1,34501	;FXU WAS SET
  4563	034635	321 10 0 00 034617 		JUMPL	AC+4,S34500	;LOOP ON ERROR SWITCHDBKCE	PDP-10 KI10 ADVANCED INSTRUCTION DIAGNOSTIC #5, VERSION 0,3 	MACRO %52(462) 13:32  9-AUG-76 PAGE 13
DBKCEM	MAC	28-MAY-76 11:21		DFAD TEST-DOUBLE FLOATING POINT ADD AND ROUND                                      SEQ 0106

  4564	034636	254 02 1 00 041446 	S34600:	JRSTF	@[.+1]		;CLEAR ALL FLAGS
  4565						DMOVE	AC,[200,,0
  4566	034637	120 04 0 00 041447 			    0,,0]
  4567						DFAD	AC,[200,,0
  4568	034640	110 04 0 00 041447 			    0,,0]	;EXPECT AROV, FOV, FXU=0,0,0
  4569	034641	265 03 0 00 034642 		JSP	AC-1,.+1	;SAVE FLAGS
  4570	034642	312 04 0 00 040331 		CAME	AC,[400,,0]
  4571	034643	003 04 0 00 034601 		ER3	AC,34601	;C(AC) FAILED
  4572	034644	312 05 0 00 040156 		CAME	AC+1,[0,,0]
  4573	034645	004 05 0 00 034601 		ER4	AC+1,34601	;C(AC+1) FAILED
  4574	034646	255 10 0 00 034650 		JOV	.+2
  4575	034647	254 00 0 00 034651 		JRST	.+2
  4576	034650	013 03 0 00 034601 		ER13	AC-1,34601	;AROV WAS SET
  4577	034651	255 01 0 00 034653 		JFOV	.+2
  4578	034652	254 00 0 00 034654 		JRST	.+2
  4579	034653	013 03 0 00 034601 		ER13	AC-1,34601	;FOV WAS SET
  4580	034654	603 03 0 00 000100 		TLNE	AC-1,FXU
  4581	034655	013 03 0 00 034601 		ER13	AC-1,34601	;FXU WAS SET
  4582	034656	321 10 0 00 034636 		JUMPL	AC+4,S34600	;LOOP ON ERROR SWITCH
  4583
  4584	034657	254 02 1 00 041451 	S34700:	JRSTF	@[.+1]		;CLEAR ALL FLAGS
  4585						DMOVE	AC,[200,,0
  4586	034660	120 04 0 00 041447 			    0,,0]
  4587						DFAD	AC,[177,,-1
  4588	034661	110 04 0 00 041452 			    -1,,-1]	;EXPECT AROV,FOV,FXU=1,1,1
  4589	034662	265 03 0 00 034663 		JSP	AC-1,.+1	;SAVE FLAGS
  4590	034663	312 04 0 00 040455 		CAME	AC,[377777,,-1]
  4591	034664	003 04 0 00 034701 		ER3	AC,34701	;C(AC) FAILED
  4592	034665	312 05 0 00 040461 		CAME	AC+1,[377777,,-2]
  4593	034666	004 05 0 00 034701 		ER4	AC+1,34701	;C(AC+1) FAILED
  4594	034667	255 10 0 00 034671 		JOV	.+2
  4595	034670	013 03 0 00 034701 		ER13	AC-1,34701	;AROV WAS CLEAR
  4596	034671	255 01 0 00 034673 		JFOV	.+2
  4597	034672	013 03 0 00 034701 		ER13	AC-1,34701	;FOV WAS CLEAR
  4598	034673	607 03 0 00 000100 		TLNN	AC-1,FXU
  4599	034674	013 03 0 00 034701 		ER13	AC-1,34701	;FXU WAS CLEAR
  4600	034675	321 10 0 00 034657 		JUMPL	AC+4,S34700	;LOOP ON ERROR SWITCHDBKCE	PDP-10 KI10 ADVANCED INSTRUCTION DIAGNOSTIC #5, VERSION 0,3 	MACRO %52(462) 13:32  9-AUG-76 PAGE 14
DBKCEM	MAC	28-MAY-76 11:21		DFAD TEST-DOUBLE FLOATING POINT ADD AND ROUND                                      SEQ 0107

  4601	034676	254 02 1 00 041454 	S35000:	JRSTF	@[.+1]		;CLEAR ALL FLAGS
  4602						DMOVE	AC,[400400,,0
  4603	034677	120 04 0 00 041455 			    0,,0]
  4604						DFAD	AC,[401000,,0
  4605	034700	110 04 0 00 041457 			    0,,2]	;EXPECT AROV, FOV, FXU = 0,0,0
  4606	034701	265 03 0 00 034702 		JSP	AC-1,.+1	;SAVE FLAGS
  4607	034702	312 04 0 00 041461 		CAME	AC,[400000,,0]
  4608	034703	003 04 0 00 035001 		ER3	AC,35001	;C(AC) FAILED
  4609	034704	312 05 0 00 040447 		CAME	AC+1,[0,,1]
  4610	034705	004 05 0 00 035001 		ER4	AC+1,35001	;C(AC+1) FAILED
  4611	034706	255 10 0 00 034710 		JOV	.+2
  4612	034707	254 00 0 00 034711 		JRST	.+2
  4613	034710	013 03 0 00 035001 		ER13	AC-1,35001	;AROV WAS SET
  4614	034711	255 01 0 00 034713 		JFOV	.+2
  4615	034712	254 00 0 00 034714 		JRST	.+2
  4616	034713	013 03 0 00 035001 		ER13	AC-1,35001	;FOV WAS SET
  4617	034714	603 03 0 00 000100 		TLNE	AC-1,FXU
  4618	034715	013 03 0 00 035001 		ER13	AC-1,35001	;FXU WAS SET
  4619	034716	321 10 0 00 034676 		JUMPL	AC+4,S35000	;LOOP ON ERROR SWITCH
  4620
  4621	034717	254 02 1 00 041462 	S35100:	JRSTF	@[.+1]		;CLEAR ALL FLAGS
  4622						DMOVE	AC,[400400,,0
  4623	034720	120 04 0 00 041455 			    0,,0]
  4624						DFAD	AC,[400400,,0
  4625	034721	110 04 0 00 041455 			    0,,0]	;EXPECT AROV, FOV, FXU=1,1,0
  4626	034722	265 03 0 00 034723 		JSP	AC-1,.+1	;SAVE FLAGS
  4627	034723	312 04 0 00 041463 		CAME	AC,[777400,,0]
  4628	034724	003 04 0 00 035101 		ER3	AC,35101	;C(AC) FAILED
  4629	034725	312 05 0 00 040156 		CAME	AC+1,[0,,0]
  4630	034726	004 05 0 00 035101 		ER4	AC+1,35101	;C(AC+1) FAILED
  4631	034727	255 10 0 00 034731 		JOV	.+2
  4632	034730	013 03 0 00 035101 		ER13	AC-1,35101	;AROV WAS CLEAR
  4633	034731	255 01 0 00 034733 		JFOV	.+2
  4634	034732	013 03 0 00 035101 		ER13	AC-1,35101	;FOV WAS CLEAR
  4635	034733	603 03 0 00 000100 		TLNE	AC-1,FXU
  4636	034734	013 03 0 00 035101 		ER13	AC-1,35101	;FXU WAS SET
  4637	034735	321 10 0 00 034717 		JUMPL	AC+4,S35100	;LOOP ON ERROR SWITCHDBKCE	PDP-10 KI10 ADVANCED INSTRUCTION DIAGNOSTIC #5, VERSION 0,3 	MACRO %52(462) 13:32  9-AUG-76 PAGE 15
DBKCEM	MAC	28-MAY-76 11:21		DFAD TEST-DOUBLE FLOATING POINT ADD AND ROUND                                      SEQ 0108

  4638	034736	254 02 1 00 041464 	S35200:	JRSTF	@[.+1]		;CLEAR ALL FLAGS
  4639						DMOVE	AC,[777600,,0
  4640	034737	120 04 0 00 041465 			    0,,0]
  4641						DFAD	AC,[777600,,0
  4642	034740	110 04 0 00 041465 			    0,,0]	;EXPECT AROV,FOV,FXV=0,0,0
  4643	034741	265 03 0 00 034742 		JSP	AC-1,.+1	;SAVE FLAGS
  4644	034742	312 04 0 00 041463 		CAME	AC,[777400,,0]
  4645	034743	003 04 0 00 035201 		ER3	AC,35201	;C(AC) FAILED
  4646	034744	312 05 0 00 040156 		CAME	AC+1,[0,,0]
  4647	034745	004 05 0 00 035201 		ER4	AC+1,35201	;C(AC+1) FAILED
  4648	034746	255 10 0 00 034750 		JOV	.+2
  4649	034747	254 00 0 00 034751 		JRST	.+2
  4650	034750	013 03 0 00 035201 		ER13	AC-1,35201	;AROV WAS SET
  4651	034751	255 01 0 00 034753 		JFOV	.+2
  4652	034752	254 00 0 00 034754 		JRST	.+2
  4653	034753	013 03 0 00 035201 		ER13	AC-1,35201	;FOV WAS SET
  4654	034754	603 03 0 00 000100 		TLNE	AC-1,FXU
  4655	034755	013 03 0 00 035201 		ER13	AC-1,35201	;FXU WAS SET
  4656	034756	321 10 0 00 034736 		JUMPL	AC+4,S35200	;LOOP ON ERROR SWITCH
  4657
  4658	034757	254 02 1 00 041467 	S35300:	JRSTF	@[.+1]		;CLEAR ALL FLAGS
  4659						DMOVE	AC,[777600,,0
  4660	034760	120 04 0 00 041465 			    0,,0]
  4661						DFAD	AC,[777600,,0
  4662	034761	110 04 0 00 041470 			    0,,1]	;EXPECT AROV,FOV,FXU=1,1,1
  4663	034762	265 03 0 00 034763 		JSP	AC-1,.+1	;SAVE FLAGS
  4664	034763	312 04 0 00 041461 		CAME	AC,[400000,,0]
  4665	034764	003 04 0 00 035301 		ER3	AC,35301	;C(AC) FAILED
  4666	034765	312 05 0 00 040444 		CAME	AC+1,[0,,2]
  4667	034766	004 05 0 00 035301 		ER4	AC+1,35301	;C(AC+1) FAILED
  4668	034767	255 10 0 00 034771 		JOV	.+2
  4669	034770	013 03 0 00 035301 		ER13	AC-1,35301	;AROV WAS CLEAR
  4670	034771	255 01 0 00 034773 		JFOV	.+2
  4671	034772	013 03 0 00 035301 		ER13	AC-1,35301	;FOV WAS CLEAR
  4672	034773	607 03 0 00 000100 		TLNN	AC-1,FXU
  4673	034774	013 03 0 00 035301 		ER13	AC-1,35301	;FXU WAS CLEAR
  4674	034775	321 10 0 00 034757 		JUMPL	AC+4,S35300	;LOOP ON ERROR SWITCHDBKCE	PDP-10 KI10 ADVANCED INSTRUCTION DIAGNOSTIC #5, VERSION 0,3 	MACRO %52(462) 13:32  9-AUG-76 PAGE 16
DBKCEM	MAC	28-MAY-76 11:21		DFSB TEST-DOUBLE FLOATING POINT SUBTRACT AND ROUND                                 SEQ 0109

  4675					SUBTTL	DFSB TEST-DOUBLE FLOATING POINT SUBTRACT AND ROUND
  4676
  4677			000004			AC=4
  4678						SAVEAC	(1,1)^
  4679	034776	201 10 0 00 034776 		MOVEI	AC+4,.
  4680	034777	202 10 0 00 030051 		MOVEM	AC+4,TESTPC	;SETUP SUBTEST PC
  4681	035000	201 10 0 00 000010 		MOVEI	AC+4,<AC+4>&17	;INFORM ERROR ROUTINE WHICH
  4682	035001	202 10 0 00 042257 		MOVEM	AC+4,ERRLOP#	;AC IS USED FOR ITERATION^
  4683	035002	254 02 1 00 041472 		JRSTF	@[.+1]		;CLEAR ALL FLAGS
  4684
  4685					;CHECK THAT DFSB AC,E DOES NOT ALTER C(E) OR C(E+1)
  4686					S40100:	DMOVE	AC,[200777,,-1
  4687	035003	120 04 0 00 041006 			-1,,-1]
  4688						DMOVE	AC+2,[200000,,0
  4689	035004	120 06 0 00 041010 			400000,,-1]
  4690	035005	111 04 0 00 000006 		DFSB	AC,AC+2
  4691	035006	312 06 0 00 040301 		CAME	AC+2,[200000,,0]
  4692	035007	005 06 0 00 040101 		ER5	AC+2,40101	;C(E) WAS ALTERED
  4693	035010	312 07 0 00 041011 		CAME	AC+3,[400000,,-1]
  4694	035011	006 07 0 00 040101 		ER6	AC+3,40101	;C(E+1) WAS ALTERED
  4695	035012	321 10 0 00 035003 		JUMPL	AC+4,S40100	;LOOP ON ERROR SWITCH
  4696
  4697						DFS	402,205400,0,0,0,177400,0,0,0,204770,0,0,0^
  4698					S40200:	DMOVE	AC,[205400,,0
  4699	035013	120 04 0 00 041031 			0,,0]
  4700						DFSB	AC,[177400,,0
  4701	035014	111 04 0 00 041025 			0,,0]
  4702	035015	312 04 0 00 041473 		CAME	AC,[204770,,0]
  4703	035016	003 04 0 00 040201 		ER3	AC,40201
  4704	035017	312 05 0 00 040156 		CAME	AC+1,[0,,0]
  4705	035020	004 05 0 00 040201 		ER4	AC+1,40201
  4706	035021	321 10 0 00 035013 		JUMPL	AC+4,S40200	;LOOP ON ERROR SWITCH^
  4707
  4708						DFS	403,200400,0,0,0,177400,0,0,0,177400,0,0,0^
  4709					S40300:	DMOVE	AC,[200400,,0
  4710	035022	120 04 0 00 041027 			0,,0]
  4711						DFSB	AC,[177400,,0
  4712	035023	111 04 0 00 041025 			0,,0]
  4713	035024	312 04 0 00 040164 		CAME	AC,[177400,,0]
  4714	035025	003 04 0 00 040301 		ER3	AC,40301
  4715	035026	312 05 0 00 040156 		CAME	AC+1,[0,,0]
  4716	035027	004 05 0 00 040301 		ER4	AC+1,40301
  4717	035030	321 10 0 00 035022 		JUMPL	AC+4,S40300	;LOOP ON ERROR SWITCH^
  4718
  4719						DFS	404,200400,0,0,0,200400,0,0,0,0,0,0,0^
  4720					S40400:	DMOVE	AC,[200400,,0
  4721	035031	120 04 0 00 041027 			0,,0]
  4722						DFSB	AC,[200400,,0
  4723	035032	111 04 0 00 041027 			0,,0]
  4724	035033	312 04 0 00 040156 		CAME	AC,[0,,0]
  4725	035034	003 04 0 00 040401 		ER3	AC,40401
  4726	035035	312 05 0 00 040156 		CAME	AC+1,[0,,0]
  4727	035036	004 05 0 00 040401 		ER4	AC+1,40401
  4728	035037	321 10 0 00 035031 		JUMPL	AC+4,S40400	;LOOP ON ERROR SWITCH^
  4729DBKCE	PDP-10 KI10 ADVANCED INSTRUCTION DIAGNOSTIC #5, VERSION 0,3 	MACRO %52(462) 13:32  9-AUG-76 PAGE 16-1
DBKCEM	MAC	28-MAY-76 11:21		DFSB TEST-DOUBLE FLOATING POINT SUBTRACT AND ROUND                                 SEQ 0110

  4730						DFS	405,201400,0,0,0,177400,0,0,0,200600,0,0,0^
  4731					S40500:	DMOVE	AC,[201400,,0
  4732	035040	120 04 0 00 040155 			0,,0]
  4733						DFSB	AC,[177400,,0
  4734	035041	111 04 0 00 041025 			0,,0]
  4735	035042	312 04 0 00 040162 		CAME	AC,[200600,,0]
  4736	035043	003 04 0 00 040501 		ER3	AC,40501
  4737	035044	312 05 0 00 040156 		CAME	AC+1,[0,,0]
  4738	035045	004 05 0 00 040501 		ER4	AC+1,40501
  4739	035046	321 10 0 00 035040 		JUMPL	AC+4,S40500	;LOOP ON ERROR SWITCH^
  4740
  4741						DFS	406,576400,0,0,0,600400,0,0,0,577200,0,0,0^
  4742					S40600:	DMOVE	AC,[576400,,0
  4743	035047	120 04 0 00 041134 			0,,0]
  4744						DFSB	AC,[600400,,0
  4745	035050	111 04 0 00 041023 			0,,0]
  4746	035051	312 04 0 00 041132 		CAME	AC,[577200,,0]
  4747	035052	003 04 0 00 040601 		ER3	AC,40601
  4748	035053	312 05 0 00 040156 		CAME	AC+1,[0,,0]
  4749	035054	004 05 0 00 040601 		ER4	AC+1,40601
  4750	035055	321 10 0 00 035047 		JUMPL	AC+4,S40600	;LOOP ON ERROR SWITCH^
  4751
  4752						DFS	407,201400,0,0,0,577400,0,0,0,201600,0,0,0^
  4753					S40700:	DMOVE	AC,[201400,,0
  4754	035056	120 04 0 00 040155 			0,,0]
  4755						DFSB	AC,[577400,,0
  4756	035057	111 04 0 00 040157 			0,,0]
  4757	035060	312 04 0 00 041041 		CAME	AC,[201600,,0]
  4758	035061	003 04 0 00 040701 		ER3	AC,40701
  4759	035062	312 05 0 00 040156 		CAME	AC+1,[0,,0]
  4760	035063	004 05 0 00 040701 		ER4	AC+1,40701
  4761	035064	321 10 0 00 035056 		JUMPL	AC+4,S40700	;LOOP ON ERROR SWITCH^
  4762
  4763						DFS	410,203400,0,0,0,200477,777775,0,0,202660,0,300000,0^
  4764					S41000:	DMOVE	AC,[203400,,0
  4765	035065	120 04 0 00 041326 			0,,0]
  4766						DFSB	AC,[200477,,777775
  4767	035066	111 04 0 00 041474 			0,,0]
  4768	035067	312 04 0 00 041476 		CAME	AC,[202660,,0]
  4769	035070	003 04 0 00 041001 		ER3	AC,41001
  4770	035071	312 05 0 00 040661 		CAME	AC+1,[300000,,0]
  4771	035072	004 05 0 00 041001 		ER4	AC+1,41001
  4772	035073	321 10 0 00 035065 		JUMPL	AC+4,S41000	;LOOP ON ERROR SWITCH^DBKCE	PDP-10 KI10 ADVANCED INSTRUCTION DIAGNOSTIC #5, VERSION 0,3 	MACRO %52(462) 13:32  9-AUG-76 PAGE 17
DBKCEM	MAC	28-MAY-76 11:21		DFSB TEST-DOUBLE FLOATING POINT SUBTRACT AND ROUND                                 SEQ 0111

  4773					;TEST AROV, FOV AND FXU FLAGS - DFSB
  4774
  4775			000004			AC=4
  4776						SAVEAC	(1,1)^
  4777	035074	201 10 0 00 035074 		MOVEI	AC+4,.
  4778	035075	202 10 0 00 030051 		MOVEM	AC+4,TESTPC	;SETUP SUBTEST PC
  4779	035076	201 10 0 00 000010 		MOVEI	AC+4,<AC+4>&17	;INFORM ERROR ROUTINE WHICH
  4780	035077	202 10 0 00 042257 		MOVEM	AC+4,ERRLOP#	;AC IS USED FOR ITERATION^
  4781
  4782	035100	254 02 1 00 041477 	S41100:	JRSTF	@[.+1]		;CLEAR ALL FLAGS
  4783						DMOVE	AC,[377400,,0
  4784	035101	120 04 0 00 041124 			    0,,0]
  4785						DFSB	AC,[400400,,0
  4786	035102	111 04 0 00 041500 			    0,,1]	;EXPECT AROV,FOV,FXU=0,0,0
  4787	035103	265 03 0 00 035104 		JSP	AC-1,.+1	;SAVE FLAGS
  4788	035104	312 04 0 00 040455 		CAME	AC,[377777,,-1]
  4789	035105	003 04 0 00 041101 		ER3	AC,41101	;C(AC) FAILED
  4790	035106	312 05 0 00 040455 		CAME	AC+1,[377777,,-1]
  4791	035107	004 05 0 00 041101 		ER4	AC+1,41101	;C(AC+1) FAILED
  4792	035110	255 10 0 00 035112 		JOV	.+2
  4793	035111	254 00 0 00 035113 		JRST	.+2
  4794	035112	013 03 0 00 041101 		ER13	AC-1,41101	;AROV WAS SET
  4795	035113	255 01 0 00 035115 		JFOV	.+2
  4796	035114	254 00 0 00 035116 		JRST	.+2
  4797	035115	013 03 0 00 041101 		ER13	AC-1,41101	;FOV WAS SET
  4798	035116	603 03 0 00 000100 		TLNE	AC-1,FXU
  4799	035117	013 03 0 00 041101 		ER13	AC-1,41101	;FXU WAS SET
  4800	035120	321 10 0 00 035100 		JUMPL	AC+4,S41100	;LOOP ON ERROR SWITCH
  4801
  4802	035121	254 02 1 00 041502 	S41200:	JRSTF	@[.+1]		;CLEAR ALL FLAGS
  4803						DMOVE	AC,[377400,,0
  4804	035122	120 04 0 00 041124 			    0,,0]
  4805						DFSB	AC,[400400,,0
  4806	035123	111 04 0 00 041455 			    0,,0]	;EXPECT AROV,FOV,FXU=1,1,0
  4807	035124	265 03 0 00 035125 		JSP	AC-1,.+1	;SAVE FLAGS
  4808	035125	312 04 0 00 040331 		CAME	AC,[400,,0]
  4809	035126	003 04 0 00 041201 		ER3	AC,41201	;C(AC) FAILED
  4810	035127	312 05 0 00 040156 		CAME	AC+1,[0,,0]
  4811	035130	004 05 0 00 041201 		ER4	AC+1,41201	;C(AC+1)FAILED
  4812	035131	255 10 0 00 035133 		JOV	.+2
  4813	035132	013 03 0 00 041201 		ER13	AC-1,41201	;AROV WAS CLEAR
  4814	035133	255 01 0 00 035135 		JFOV	.+2
  4815	035134	013 03 0 00 041201 		ER13	AC-1,41201	;FOV WAS CLEAR
  4816	035135	603 03 0 00 000100 		TLNE	AC-1,FXU
  4817	035136	013 03 0 00 041201 		ER13	AC-1,41201	;FXU WAS SET
  4818	035137	321 10 0 00 035121 		JUMPL	AC+4,S41200	;LOOP ON ERROR SWITCHDBKCE	PDP-10 KI10 ADVANCED INSTRUCTION DIAGNOSTIC #5, VERSION 0,3 	MACRO %52(462) 13:32  9-AUG-76 PAGE 18
DBKCEM	MAC	28-MAY-76 11:21		DFSB TEST-DOUBLE FLOATING POINT SUBTRACT AND ROUND                                 SEQ 0112

  4819	035140	254 02 1 00 041503 	S41300:	JRSTF	@[.+1]		;CLEAR ALL FLAGS
  4820						DMOVE	AC,[777,,-1
  4821	035141	120 04 0 00 041504 			    -1,,-1]
  4822						DFSB	AC,[377,,-1
  4823	035142	111 04 0 00 041506 			    -1,,-1]	;EXPECT AROV,FOV,FXU=0,0,0
  4824	035143	265 03 0 00 035144 		JSP	AC-1,.+1	;SAVE FLAGS
  4825	035144	312 04 0 00 040331 		CAME	AC,[400,,0]
  4826	035145	003 04 0 00 041301 		ER3	AC,41301	;C(AC) FAILED
  4827	035146	312 05 0 00 040156 		CAME	AC+1,[0,,0]
  4828	035147	004 05 0 00 041301 		ER4	AC+1,41301	;C(AC+1) FAILED
  4829	035150	255 10 0 00 035152 		JOV	.+2
  4830	035151	254 00 0 00 035153 		JRST	.+2
  4831	035152	013 03 0 00 041301 		ER13	AC-1,41301	;AROV WAS SET
  4832	035153	255 01 0 00 035155 		JFOV	.+2
  4833	035154	254 00 0 00 035156 		JRST	.+2
  4834	035155	013 03 0 00 041301 		ER13	AC-1,41301	;FOV WAS SET
  4835	035156	603 03 0 00 000100 		TLNE	AC-1,FXU
  4836	035157	013 03 0 00 041301 		ER13	AC-1,41301	;FXU WAS SET
  4837	035160	321 10 0 00 035140 		JUMPL	AC+4,S41300	;LOOP ON ERROR SWITCH
  4838
  4839	035161	254 02 1 00 041510 	S41400:	JRSTF	@[.+1]		;CLEAR ALL FLAGS
  4840						DMOVE	AC,[777,,-1
  4841	035162	120 04 0 00 041504 			    -1,,-1]
  4842						DFSB	AC,[400,,0
  4843	035163	111 04 0 00 041014 			    0,,0]	;EXPECT AROV,FOV,FXU=1,1,1
  4844	035164	265 03 0 00 035165 		JSP	AC-1,.+1	;SAVE FLAGS
  4845	035165	312 04 0 00 040455 		CAME	AC,[377777,,-1]
  4846	035166	003 04 0 00 041401 		ER3	AC,41401	;C(AC) FAILED
  4847	035167	312 05 0 00 040461 		CAME	AC+1,[377777,,-2]
  4848	035170	004 05 0 00 041401 		ER4	AC+1,41401	;C(AC+1) FAILED
  4849	035171	255 10 0 00 035173 		JOV	.+2
  4850	035172	013 03 0 00 041401 		ER13	AC-1,41401	;AROV WAS CLEAR
  4851	035173	255 01 0 00 035175 		JFOV	.+2
  4852	035174	013 03 0 00 041401 		ER13	AC-1,41401	;FOV WAS CLEAR
  4853	035175	607 03 0 00 000100 		TLNN	AC-1,FXU
  4854	035176	013 03 0 00 041401 		ER13	AC-1,41401	;FXU WAS CLEAR
  4855	035177	321 10 0 00 035161 		JUMPL	AC+4,S41400	;LOOP ON ERROR SWITCHDBKCE	PDP-10 KI10 ADVANCED INSTRUCTION DIAGNOSTIC #5, VERSION 0,3 	MACRO %52(462) 13:32  9-AUG-76 PAGE 19
DBKCEM	MAC	28-MAY-76 11:21		DFSB TEST-DOUBLE FLOATING POINT SUBTRACT AND ROUND                                 SEQ 0113

  4856	035200	254 02 1 00 041511 	S41500:	JRSTF	@[.+1]		;CLEAR ALL FLAGS
  4857						DMOVE	AC,[400400,,0
  4858	035201	120 04 0 00 041455 			    0,,0]
  4859						DFSB	AC,[377377,,-1
  4860	035202	111 04 0 00 041512 			    -1,,-1]	;EXPECT AROV,FOV,FXU=0,0,0
  4861	035203	265 03 0 00 035204 		JSP	AC-1,.+1	;SAVE FLAGS
  4862	035204	312 04 0 00 041461 		CAME	AC,[400000,,0]
  4863	035205	003 04 0 00 041501 		ER3	AC,41501	;C(AC) FAILED
  4864	035206	312 05 0 00 040447 		CAME	AC+1,[0,,1]
  4865	035207	004 05 0 00 041501 		ER4	AC+1,41501	;C(AC+1) FAILED
  4866	035210	255 10 0 00 035212 		JOV	.+2
  4867	035211	254 00 0 00 035213 		JRST	.+2
  4868	035212	013 03 0 00 041501 		ER13	AC-1,41501	;AROV WAS SET
  4869	035213	255 01 0 00 035215 		JFOV	.+2
  4870	035214	254 00 0 00 035216 		JRST	.+2
  4871	035215	013 03 0 00 041501 		ER13	AC-1,41501	;FOV WAS SET
  4872	035216	603 03 0 00 000100 		TLNE	AC-1,FXU
  4873	035217	013 03 0 00 041501 		ER13	AC-1,41501	;FXU WAS SET
  4874	035220	321 10 0 00 035200 		JUMPL	AC+4,S41500	;LOOP ON ERROR SWITCH
  4875
  4876	035221	254 02 1 00 041514 	S41600:	JRSTF	@[.+1]		;CLEAR ALL FLAGS
  4877						DMOVE	AC,[400400,,0
  4878	035222	120 04 0 00 041455 			    0,,0]
  4879						DFSB	AC,[377400,,0
  4880	035223	111 04 0 00 041124 			    0,,0]	;EXPECT AROV,FOV,FXU=1,1,0
  4881	035224	265 03 0 00 035225 		JSP	AC-1,.+1	;SAVE FLAGS
  4882	035225	312 04 0 00 041463 		CAME	AC,[777400,,0]
  4883	035226	003 04 0 00 041601 		ER3	AC,41601	;C(AC) FAILED
  4884	035227	312 05 0 00 040156 		CAME	AC+1,[0,,0]
  4885	035230	004 05 0 00 041601 		ER4	AC+1,41601	;C(AC+1) FAILED
  4886	035231	255 10 0 00 035233 		JOV	.+2
  4887	035232	013 03 0 00 041601 		ER13	AC-1,41601	;AROV WAS CLEAR
  4888	035233	255 01 0 00 035235 		JFOV	.+2
  4889	035234	013 03 0 00 041601 		ER13	AC-1,41601	;FOV WAS CLEAR
  4890	035235	603 03 0 00 000100 		TLNE	AC-1,FXU
  4891	035236	013 03 0 00 041601 		ER13	AC-1,41601	;FXU WAS SET
  4892	035237	321 10 0 00 035221 		JUMPL	AC+4,S41600	;LOOP ON ERROR SWITCHDBKCE	PDP-10 KI10 ADVANCED INSTRUCTION DIAGNOSTIC #5, VERSION 0,3 	MACRO %52(462) 13:32  9-AUG-76 PAGE 20
DBKCEM	MAC	28-MAY-76 11:21		DFSB TEST-DOUBLE FLOATING POINT SUBTRACT AND ROUND                                 SEQ 0114

  4893	035240	254 02 1 00 041515 	S41700:	JRSTF	@[.+1]		;CLEAR ALL FLAGS
  4894						DMOVE	AC,[777000,,0
  4895	035241	120 04 0 00 041516 			    0,,0]
  4896						DFSB	AC,[777400,,0
  4897	035242	111 04 0 00 041520 			    0,,0]	;EXPECT AROV,FOV,FXU=0,0,0
  4898	035243	265 03 0 00 035244 		JSP	AC-1,.+1	;SAVE FLAGS
  4899	035244	312 04 0 00 041463 		CAME	AC,[777400,,0]
  4900	035245	003 04 0 00 041701 		ER3	AC,41701	;C(AC) FAILED
  4901	035246	312 05 0 00 040156 		CAME	AC+1,[0,,0]
  4902	035247	004 05 0 00 041701 		ER4	AC+1,41701	;C(AC+1) FAILED
  4903	035250	255 10 0 00 035252 		JOV	.+2
  4904	035251	254 00 0 00 035253 		JRST	.+2
  4905	035252	013 03 0 00 041701 		ER13	AC-1,41701	;AROV WAS SET
  4906	035253	255 01 0 00 035255 		JFOV	.+2
  4907	035254	254 00 0 00 035256 		JRST	.+2
  4908	035255	013 03 0 00 041701 		ER13	AC-1,41701	;FOV WAS SET
  4909	035256	603 03 0 00 000100 		TLNE	AC-1,FXU
  4910	035257	013 03 0 00 041701 		ER13	AC-1,41701	;FXU WAS SET
  4911	035260	321 10 0 00 035240 		JUMPL	AC+4,S41700	;LOOP ON ERROR SWITCH
  4912
  4913	035261	254 02 1 00 041522 	S42000:	JRSTF	@[.+1]		;CLEAR ALL FLAGS
  4914						DMOVE	AC,[777000,,0
  4915	035262	120 04 0 00 041523 			    0,,1]
  4916						DFSB	AC,[777400,,0
  4917	035263	111 04 0 00 041520 			    0,,0]	;EXPECT AROV,FOV,FXU=1,1,1
  4918	035264	265 03 0 00 035265 		JSP	AC-1,.+1	;SAVE FLAGS
  4919	035265	312 04 0 00 041461 		CAME	AC,[400000,,0]
  4920	035266	003 04 0 00 042001 		ER3	AC,42001	;C(AC) FAILED
  4921	035267	312 05 0 00 040444 		CAME	AC+1,[0,,2]
  4922	035270	004 05 0 00 042001 		ER4	AC+1,42001	;C(AC+1) FAILED
  4923	035271	255 10 0 00 035273 		JOV	.+2
  4924	035272	013 03 0 00 042001 		ER13	AC-1,42001	;AROV WAS CLEAR
  4925	035273	255 01 0 00 035275 		JFOV	.+2
  4926	035274	013 03 0 00 042001 		ER13	AC-1,42001	;FOV WAS CLEAR
  4927	035275	607 03 0 00 000100 		TLNN	AC-1,FXU
  4928	035276	013 03 0 00 042001 		ER13	AC-1,42001	;FXU WAS CLEAR
  4929	035277	321 10 0 00 035261 		JUMPL	AC+4,S42000	;LOOP ON ERROR SWITCHDBKCE	PDP-10 KI10 ADVANCED INSTRUCTION DIAGNOSTIC #5, VERSION 0,3 	MACRO %52(462) 13:32  9-AUG-76 PAGE 21
DBKCEM	MAC	28-MAY-76 11:21		DFMP TEST-DOUBLE FLOATING POINT MULTIPLY AND ROUND                                 SEQ 0115

  4930					SUBTTL	DFMP TEST-DOUBLE FLOATING POINT MULTIPLY AND ROUND
  4931
  4932			000004			AC=4
  4933						SAVEAC	(1,1)^
  4934	035300	201 10 0 00 035300 		MOVEI	AC+4,.
  4935	035301	202 10 0 00 030051 		MOVEM	AC+4,TESTPC	;SETUP SUBTEST PC
  4936	035302	201 10 0 00 000010 		MOVEI	AC+4,<AC+4>&17	;INFORM ERROR ROUTINE WHICH
  4937	035303	202 10 0 00 042257 		MOVEM	AC+4,ERRLOP#	;AC IS USED FOR ITERATION^
  4938	035304	254 02 1 00 041525 		JRSTF	@[.+1]		;CLEAR ALL FLAGS
  4939
  4940					;CHECK THAT DFMP AC,E DOES NOT ALTER C(E) OR C(E+1)
  4941					S50100:	DMOVE	AC,[200777,,-1
  4942	035305	120 04 0 00 041006 			-1,,-1]
  4943						DMOVE	AC+2,[201400,,0
  4944	035306	120 06 0 00 041526 			400000,,-1]
  4945	035307	112 04 0 00 000006 		DFMP	AC,AC+2
  4946	035310	312 06 0 00 040155 		CAME	AC+2,[201400,,0]
  4947	035311	005 06 0 00 050101 		ER5	AC+2,50101	;C(E) WAS ALTERED
  4948	035312	312 07 0 00 041011 		CAME	AC+3,[400000,,-1]
  4949	035313	006 07 0 00 050101 		ER6	AC+3,50101	;C(E+1) WAS ALTERED
  4950	035314	321 10 0 00 035305 		JUMPL	AC+4,S50100	;LOOP ON ERROR SWITCH
  4951
  4952						DFM	502,200400,0,0,0,0,0,0,0,0,0,0,0^
  4953					S50200:	DMOVE	AC,[200400,,0
  4954	035315	120 04 0 00 041027 			0,,0]
  4955						DFMP	AC,[0,,0
  4956	035316	112 04 0 00 040453 			0,,0]
  4957	035317	312 04 0 00 040156 		CAME	AC,[0,,0]
  4958	035320	003 04 0 00 050201 		ER3	AC,50201
  4959	035321	312 05 0 00 040156 		CAME	AC+1,[0,,0]
  4960	035322	004 05 0 00 050201 		ER4	AC+1,50201
  4961	035323	321 10 0 00 035315 		JUMPL	AC+4,S50200	;LOOP ON ERROR SWITCH^
  4962
  4963						DFM	503,200400,0,0,0,200400,0,0,0,177400,0,0,0^
  4964					S50300:	DMOVE	AC,[200400,,0
  4965	035324	120 04 0 00 041027 			0,,0]
  4966						DFMP	AC,[200400,,0
  4967	035325	112 04 0 00 041027 			0,,0]
  4968	035326	312 04 0 00 040164 		CAME	AC,[177400,,0]
  4969	035327	003 04 0 00 050301 		ER3	AC,50301
  4970	035330	312 05 0 00 040156 		CAME	AC+1,[0,,0]
  4971	035331	004 05 0 00 050301 		ER4	AC+1,50301
  4972	035332	321 10 0 00 035324 		JUMPL	AC+4,S50300	;LOOP ON ERROR SWITCH^
  4973
  4974						DFM	504,400,0,0,0,400,0,0,0,177400,0,0,0^
  4975					S50400:	DMOVE	AC,[400,,0
  4976	035333	120 04 0 00 041014 			0,,0]
  4977						DFMP	AC,[400,,0
  4978	035334	112 04 0 00 041014 			0,,0]
  4979	035335	312 04 0 00 040164 		CAME	AC,[177400,,0]
  4980	035336	003 04 0 00 050401 		ER3	AC,50401
  4981	035337	312 05 0 00 040156 		CAME	AC+1,[0,,0]
  4982	035340	004 05 0 00 050401 		ER4	AC+1,50401
  4983	035341	321 10 0 00 035333 		JUMPL	AC+4,S50400	;LOOP ON ERROR SWITCH^
  4984DBKCE	PDP-10 KI10 ADVANCED INSTRUCTION DIAGNOSTIC #5, VERSION 0,3 	MACRO %52(462) 13:32  9-AUG-76 PAGE 21-1
DBKCEM	MAC	28-MAY-76 11:21		DFMP TEST-DOUBLE FLOATING POINT MULTIPLY AND ROUND                                 SEQ 0116

  4985						DFM	505,200400,0,0,0,400,0,0,0,377400,0,0,0^
  4986					S50500:	DMOVE	AC,[200400,,0
  4987	035342	120 04 0 00 041027 			0,,0]
  4988						DFMP	AC,[400,,0
  4989	035343	112 04 0 00 041014 			0,,0]
  4990	035344	312 04 0 00 040625 		CAME	AC,[377400,,0]
  4991	035345	003 04 0 00 050501 		ER3	AC,50501
  4992	035346	312 05 0 00 040156 		CAME	AC+1,[0,,0]
  4993	035347	004 05 0 00 050501 		ER4	AC+1,50501
  4994	035350	321 10 0 00 035342 		JUMPL	AC+4,S50500	;LOOP ON ERROR SWITCH^
  4995
  4996						DFM	506,177400,0,0,0,400,0,0,0,376400,0,0,0^
  4997					S50600:	DMOVE	AC,[177400,,0
  4998	035351	120 04 0 00 041025 			0,,0]
  4999						DFMP	AC,[400,,0
  5000	035352	112 04 0 00 041014 			0,,0]
  5001	035353	312 04 0 00 041530 		CAME	AC,[376400,,0]
  5002	035354	003 04 0 00 050601 		ER3	AC,50601
  5003	035355	312 05 0 00 040156 		CAME	AC+1,[0,,0]
  5004	035356	004 05 0 00 050601 		ER4	AC+1,50601
  5005	035357	321 10 0 00 035351 		JUMPL	AC+4,S50600	;LOOP ON ERROR SWITCH^
  5006
  5007						DFM	507,377400,0,0,0,400,0,0,0,176400,0,0,0^
  5008					S50700:	DMOVE	AC,[377400,,0
  5009	035360	120 04 0 00 041124 			0,,0]
  5010						DFMP	AC,[400,,0
  5011	035361	112 04 0 00 041014 			0,,0]
  5012	035362	312 04 0 00 040167 		CAME	AC,[176400,,0]
  5013	035363	003 04 0 00 050701 		ER3	AC,50701
  5014	035364	312 05 0 00 040156 		CAME	AC+1,[0,,0]
  5015	035365	004 05 0 00 050701 		ER4	AC+1,50701
  5016	035366	321 10 0 00 035360 		JUMPL	AC+4,S50700	;LOOP ON ERROR SWITCH^
  5017
  5018						DFM	510,577400,0,0,0,400,0,0,0,400400,0,0,0^
  5019					S51000:	DMOVE	AC,[577400,,0
  5020	035367	120 04 0 00 040157 			0,,0]
  5021						DFMP	AC,[400,,0
  5022	035370	112 04 0 00 041014 			0,,0]
  5023	035371	312 04 0 00 041323 		CAME	AC,[400400,,0]
  5024	035372	003 04 0 00 051001 		ER3	AC,51001
  5025	035373	312 05 0 00 040156 		CAME	AC+1,[0,,0]
  5026	035374	004 05 0 00 051001 		ER4	AC+1,51001
  5027	035375	321 10 0 00 035367 		JUMPL	AC+4,S51000	;LOOP ON ERROR SWITCH^
  5028
  5029						DFM	511,400,0,0,0,200400,0,0,0,377400,0,0,0^
  5030					S51100:	DMOVE	AC,[400,,0
  5031	035376	120 04 0 00 041014 			0,,0]
  5032						DFMP	AC,[200400,,0
  5033	035377	112 04 0 00 041027 			0,,0]
  5034	035400	312 04 0 00 040625 		CAME	AC,[377400,,0]
  5035	035401	003 04 0 00 051101 		ER3	AC,51101
  5036	035402	312 05 0 00 040156 		CAME	AC+1,[0,,0]
  5037	035403	004 05 0 00 051101 		ER4	AC+1,51101
  5038	035404	321 10 0 00 035376 		JUMPL	AC+4,S51100	;LOOP ON ERROR SWITCH^
  5039DBKCE	PDP-10 KI10 ADVANCED INSTRUCTION DIAGNOSTIC #5, VERSION 0,3 	MACRO %52(462) 13:32  9-AUG-76 PAGE 21-2
DBKCEM	MAC	28-MAY-76 11:21		DFMP TEST-DOUBLE FLOATING POINT MULTIPLY AND ROUND                                 SEQ 0117

  5040						DFM	512,200400,0,0,0,577400,0,0,0,600400,0,0,0^
  5041					S51200:	DMOVE	AC,[200400,,0
  5042	035405	120 04 0 00 041027 			0,,0]
  5043						DFMP	AC,[577400,,0
  5044	035406	112 04 0 00 040157 			0,,0]
  5045	035407	312 04 0 00 041023 		CAME	AC,[600400,,0]
  5046	035410	003 04 0 00 051201 		ER3	AC,51201
  5047	035411	312 05 0 00 040156 		CAME	AC+1,[0,,0]
  5048	035412	004 05 0 00 051201 		ER4	AC+1,51201
  5049	035413	321 10 0 00 035405 		JUMPL	AC+4,S51200	;LOOP ON ERROR SWITCH^
  5050
  5051						DFM	513,200400,0,0,0,205400,0,0,0,204400,0,0,0^
  5052					S51300:	DMOVE	AC,[200400,,0
  5053	035414	120 04 0 00 041027 			0,,0]
  5054						DFMP	AC,[205400,,0
  5055	035415	112 04 0 00 041031 			0,,0]
  5056	035416	312 04 0 00 041045 		CAME	AC,[204400,,0]
  5057	035417	003 04 0 00 051301 		ER3	AC,51301
  5058	035420	312 05 0 00 040156 		CAME	AC+1,[0,,0]
  5059	035421	004 05 0 00 051301 		ER4	AC+1,51301
  5060	035422	321 10 0 00 035414 		JUMPL	AC+4,S51300	;LOOP ON ERROR SWITCH^
  5061
  5062						DFM	514,0,0,0,0,577400,0,0,0,0,0,0,0^
  5063					S51400:	DMOVE	AC,[0,,0
  5064	035423	120 04 0 00 040453 			0,,0]
  5065						DFMP	AC,[577400,,0
  5066	035424	112 04 0 00 040157 			0,,0]
  5067	035425	312 04 0 00 040156 		CAME	AC,[0,,0]
  5068	035426	003 04 0 00 051401 		ER3	AC,51401
  5069	035427	312 05 0 00 040156 		CAME	AC+1,[0,,0]
  5070	035430	004 05 0 00 051401 		ER4	AC+1,51401
  5071	035431	321 10 0 00 035423 		JUMPL	AC+4,S51400	;LOOP ON ERROR SWITCH^
  5072
  5073						DFM	515,200400,0,0,0,201400,0,0,0,200400,0,0,0^
  5074					S51500:	DMOVE	AC,[200400,,0
  5075	035432	120 04 0 00 041027 			0,,0]
  5076						DFMP	AC,[201400,,0
  5077	035433	112 04 0 00 040155 			0,,0]
  5078	035434	312 04 0 00 040161 		CAME	AC,[200400,,0]
  5079	035435	003 04 0 00 051501 		ER3	AC,51501
  5080	035436	312 05 0 00 040156 		CAME	AC+1,[0,,0]
  5081	035437	004 05 0 00 051501 		ER4	AC+1,51501
  5082	035440	321 10 0 00 035432 		JUMPL	AC+4,S51500	;LOOP ON ERROR SWITCH^
  5083
  5084						DFM	516,200400,0,0,0,202400,0,0,0,201400,0,0,0^
  5085					S51600:	DMOVE	AC,[200400,,0
  5086	035441	120 04 0 00 041027 			0,,0]
  5087						DFMP	AC,[202400,,0
  5088	035442	112 04 0 00 041042 			0,,0]
  5089	035443	312 04 0 00 040155 		CAME	AC,[201400,,0]
  5090	035444	003 04 0 00 051601 		ER3	AC,51601
  5091	035445	312 05 0 00 040156 		CAME	AC+1,[0,,0]
  5092	035446	004 05 0 00 051601 		ER4	AC+1,51601
  5093	035447	321 10 0 00 035441 		JUMPL	AC+4,S51600	;LOOP ON ERROR SWITCH^
  5094DBKCE	PDP-10 KI10 ADVANCED INSTRUCTION DIAGNOSTIC #5, VERSION 0,3 	MACRO %52(462) 13:32  9-AUG-76 PAGE 21-3
DBKCEM	MAC	28-MAY-76 11:21		DFMP TEST-DOUBLE FLOATING POINT MULTIPLY AND ROUND                                 SEQ 0118

  5095						DFM	517,200400,0,0,0,204400,0,0,0,203400,0,0,0^
  5096					S51700:	DMOVE	AC,[200400,,0
  5097	035450	120 04 0 00 041027 			0,,0]
  5098						DFMP	AC,[204400,,0
  5099	035451	112 04 0 00 041045 			0,,0]
  5100	035452	312 04 0 00 041231 		CAME	AC,[203400,,0]
  5101	035453	003 04 0 00 051701 		ER3	AC,51701
  5102	035454	312 05 0 00 040156 		CAME	AC+1,[0,,0]
  5103	035455	004 05 0 00 051701 		ER4	AC+1,51701
  5104	035456	321 10 0 00 035450 		JUMPL	AC+4,S51700	;LOOP ON ERROR SWITCH^
  5105
  5106						DFM	520,200400,0,0,0,210400,0,0,0,207400,0,0,0^
  5107					S52000:	DMOVE	AC,[200400,,0
  5108	035457	120 04 0 00 041027 			0,,0]
  5109						DFMP	AC,[210400,,0
  5110	035460	112 04 0 00 041050 			0,,0]
  5111	035461	312 04 0 00 041330 		CAME	AC,[207400,,0]
  5112	035462	003 04 0 00 052001 		ER3	AC,52001
  5113	035463	312 05 0 00 040156 		CAME	AC+1,[0,,0]
  5114	035464	004 05 0 00 052001 		ER4	AC+1,52001
  5115	035465	321 10 0 00 035457 		JUMPL	AC+4,S52000	;LOOP ON ERROR SWITCH^
  5116
  5117						DFM	521,200400,0,0,0,220400,0,0,0,217400,0,0,0^
  5118					S52100:	DMOVE	AC,[200400,,0
  5119	035466	120 04 0 00 041027 			0,,0]
  5120						DFMP	AC,[220400,,0
  5121	035467	112 04 0 00 041053 			0,,0]
  5122	035470	312 04 0 00 041346 		CAME	AC,[217400,,0]
  5123	035471	003 04 0 00 052101 		ER3	AC,52101
  5124	035472	312 05 0 00 040156 		CAME	AC+1,[0,,0]
  5125	035473	004 05 0 00 052101 		ER4	AC+1,52101
  5126	035474	321 10 0 00 035466 		JUMPL	AC+4,S52100	;LOOP ON ERROR SWITCH^
  5127
  5128						DFM	522,200400,0,0,0,240400,0,0,0,237400,0,0,0^
  5129					S52200:	DMOVE	AC,[200400,,0
  5130	035475	120 04 0 00 041027 			0,,0]
  5131						DFMP	AC,[240400,,0
  5132	035476	112 04 0 00 041056 			0,,0]
  5133	035477	312 04 0 00 041531 		CAME	AC,[237400,,0]
  5134	035500	003 04 0 00 052201 		ER3	AC,52201
  5135	035501	312 05 0 00 040156 		CAME	AC+1,[0,,0]
  5136	035502	004 05 0 00 052201 		ER4	AC+1,52201
  5137	035503	321 10 0 00 035475 		JUMPL	AC+4,S52200	;LOOP ON ERROR SWITCH^
  5138
  5139						DFM	523,200400,0,0,0,300400,0,0,0,277400,0,0,0^
  5140					S52300:	DMOVE	AC,[200400,,0
  5141	035504	120 04 0 00 041027 			0,,0]
  5142						DFMP	AC,[300400,,0
  5143	035505	112 04 0 00 041060 			0,,0]
  5144	035506	312 04 0 00 041532 		CAME	AC,[277400,,0]
  5145	035507	003 04 0 00 052301 		ER3	AC,52301
  5146	035510	312 05 0 00 040156 		CAME	AC+1,[0,,0]
  5147	035511	004 05 0 00 052301 		ER4	AC+1,52301
  5148	035512	321 10 0 00 035504 		JUMPL	AC+4,S52300	;LOOP ON ERROR SWITCH^
  5149DBKCE	PDP-10 KI10 ADVANCED INSTRUCTION DIAGNOSTIC #5, VERSION 0,3 	MACRO %52(462) 13:32  9-AUG-76 PAGE 21-4
DBKCEM	MAC	28-MAY-76 11:21		DFMP TEST-DOUBLE FLOATING POINT MULTIPLY AND ROUND                                 SEQ 0119

  5150						DFM	524,201400,0,0,0,200400,0,0,0,200400,0,0,0^
  5151					S52400:	DMOVE	AC,[201400,,0
  5152	035513	120 04 0 00 040155 			0,,0]
  5153						DFMP	AC,[200400,,0
  5154	035514	112 04 0 00 041027 			0,,0]
  5155	035515	312 04 0 00 040161 		CAME	AC,[200400,,0]
  5156	035516	003 04 0 00 052401 		ER3	AC,52401
  5157	035517	312 05 0 00 040156 		CAME	AC+1,[0,,0]
  5158	035520	004 05 0 00 052401 		ER4	AC+1,52401
  5159	035521	321 10 0 00 035513 		JUMPL	AC+4,S52400	;LOOP ON ERROR SWITCH^
  5160
  5161						DFM	525,202400,0,0,0,200400,0,0,0,201400,0,0,0^
  5162					S52500:	DMOVE	AC,[202400,,0
  5163	035522	120 04 0 00 041042 			0,,0]
  5164						DFMP	AC,[200400,,0
  5165	035523	112 04 0 00 041027 			0,,0]
  5166	035524	312 04 0 00 040155 		CAME	AC,[201400,,0]
  5167	035525	003 04 0 00 052501 		ER3	AC,52501
  5168	035526	312 05 0 00 040156 		CAME	AC+1,[0,,0]
  5169	035527	004 05 0 00 052501 		ER4	AC+1,52501
  5170	035530	321 10 0 00 035522 		JUMPL	AC+4,S52500	;LOOP ON ERROR SWITCH^DBKCE	PDP-10 KI10 ADVANCED INSTRUCTION DIAGNOSTIC #5, VERSION 0,3 	MACRO %52(462) 13:32  9-AUG-76 PAGE 22
DBKCEM	MAC	28-MAY-76 11:21		DFMP TEST-DOUBLE FLOATING POINT MULTIPLY AND ROUND                                 SEQ 0120

  5171
  5172
  5173						DFM	526,204400,0,0,0,200400,0,0,0,203400,0,0,0^
  5174					S52600:	DMOVE	AC,[204400,,0
  5175	035531	120 04 0 00 041045 			0,,0]
  5176						DFMP	AC,[200400,,0
  5177	035532	112 04 0 00 041027 			0,,0]
  5178	035533	312 04 0 00 041231 		CAME	AC,[203400,,0]
  5179	035534	003 04 0 00 052601 		ER3	AC,52601
  5180	035535	312 05 0 00 040156 		CAME	AC+1,[0,,0]
  5181	035536	004 05 0 00 052601 		ER4	AC+1,52601
  5182	035537	321 10 0 00 035531 		JUMPL	AC+4,S52600	;LOOP ON ERROR SWITCH^
  5183
  5184						DFM	527,210400,0,0,0,200400,0,0,0,207400,0,0,0^
  5185					S52700:	DMOVE	AC,[210400,,0
  5186	035540	120 04 0 00 041050 			0,,0]
  5187						DFMP	AC,[200400,,0
  5188	035541	112 04 0 00 041027 			0,,0]
  5189	035542	312 04 0 00 041330 		CAME	AC,[207400,,0]
  5190	035543	003 04 0 00 052701 		ER3	AC,52701
  5191	035544	312 05 0 00 040156 		CAME	AC+1,[0,,0]
  5192	035545	004 05 0 00 052701 		ER4	AC+1,52701
  5193	035546	321 10 0 00 035540 		JUMPL	AC+4,S52700	;LOOP ON ERROR SWITCH^
  5194
  5195						DFM	530,220400,0,0,0,200400,0,0,0,217400,0,0,0^
  5196					S53000:	DMOVE	AC,[220400,,0
  5197	035547	120 04 0 00 041053 			0,,0]
  5198						DFMP	AC,[200400,,0
  5199	035550	112 04 0 00 041027 			0,,0]
  5200	035551	312 04 0 00 041346 		CAME	AC,[217400,,0]
  5201	035552	003 04 0 00 053001 		ER3	AC,53001
  5202	035553	312 05 0 00 040156 		CAME	AC+1,[0,,0]
  5203	035554	004 05 0 00 053001 		ER4	AC+1,53001
  5204	035555	321 10 0 00 035547 		JUMPL	AC+4,S53000	;LOOP ON ERROR SWITCH^
  5205
  5206						DFM	531,240400,0,0,0,200400,0,0,0,237400,0,0,0^
  5207					S53100:	DMOVE	AC,[240400,,0
  5208	035556	120 04 0 00 041056 			0,,0]
  5209						DFMP	AC,[200400,,0
  5210	035557	112 04 0 00 041027 			0,,0]
  5211	035560	312 04 0 00 041531 		CAME	AC,[237400,,0]
  5212	035561	003 04 0 00 053101 		ER3	AC,53101
  5213	035562	312 05 0 00 040156 		CAME	AC+1,[0,,0]
  5214	035563	004 05 0 00 053101 		ER4	AC+1,53101
  5215	035564	321 10 0 00 035556 		JUMPL	AC+4,S53100	;LOOP ON ERROR SWITCH^
  5216
  5217						DFM	532,300400,0,0,0,200400,0,0,0,277400,0,0,0^
  5218					S53200:	DMOVE	AC,[300400,,0
  5219	035565	120 04 0 00 041060 			0,,0]
  5220						DFMP	AC,[200400,,0
  5221	035566	112 04 0 00 041027 			0,,0]
  5222	035567	312 04 0 00 041532 		CAME	AC,[277400,,0]
  5223	035570	003 04 0 00 053201 		ER3	AC,53201
  5224	035571	312 05 0 00 040156 		CAME	AC+1,[0,,0]
  5225	035572	004 05 0 00 053201 		ER4	AC+1,53201DBKCE	PDP-10 KI10 ADVANCED INSTRUCTION DIAGNOSTIC #5, VERSION 0,3 	MACRO %52(462) 13:32  9-AUG-76 PAGE 22-1
DBKCEM	MAC	28-MAY-76 11:21		DFMP TEST-DOUBLE FLOATING POINT MULTIPLY AND ROUND                                 SEQ 0121

  5226	035573	321 10 0 00 035565 		JUMPL	AC+4,S53200	;LOOP ON ERROR SWITCH^
  5227
  5228						DFM	533,200400,0,0,0,576400,0,0,0,577400,0,0,0^
  5229					S53300:	DMOVE	AC,[200400,,0
  5230	035574	120 04 0 00 041027 			0,,0]
  5231						DFMP	AC,[576400,,0
  5232	035575	112 04 0 00 041134 			0,,0]
  5233	035576	312 04 0 00 040157 		CAME	AC,[577400,,0]
  5234	035577	003 04 0 00 053301 		ER3	AC,53301
  5235	035600	312 05 0 00 040156 		CAME	AC+1,[0,,0]
  5236	035601	004 05 0 00 053301 		ER4	AC+1,53301
  5237	035602	321 10 0 00 035574 		JUMPL	AC+4,S53300	;LOOP ON ERROR SWITCH^
  5238
  5239						DFM	534,200400,0,0,0,575400,0,0,0,576400,0,0,0^
  5240					S53400:	DMOVE	AC,[200400,,0
  5241	035603	120 04 0 00 041027 			0,,0]
  5242						DFMP	AC,[575400,,0
  5243	035604	112 04 0 00 041533 			0,,0]
  5244	035605	312 04 0 00 041062 		CAME	AC,[576400,,0]
  5245	035606	003 04 0 00 053401 		ER3	AC,53401
  5246	035607	312 05 0 00 040156 		CAME	AC+1,[0,,0]
  5247	035610	004 05 0 00 053401 		ER4	AC+1,53401
  5248	035611	321 10 0 00 035603 		JUMPL	AC+4,S53400	;LOOP ON ERROR SWITCH^
  5249
  5250						DFM	535,200777,-1,0,0,200400,0,0,0,177777,-1,0,0^
  5251					S53500:	DMOVE	AC,[200777,,-1
  5252	035612	120 04 0 00 041324 			0,,0]
  5253						DFMP	AC,[200400,,0
  5254	035613	112 04 0 00 041027 			0,,0]
  5255	035614	312 04 0 00 041535 		CAME	AC,[177777,,-1]
  5256	035615	003 04 0 00 053501 		ER3	AC,53501
  5257	035616	312 05 0 00 040156 		CAME	AC+1,[0,,0]
  5258	035617	004 05 0 00 053501 		ER4	AC+1,53501
  5259	035620	321 10 0 00 035612 		JUMPL	AC+4,S53500	;LOOP ON ERROR SWITCH^
  5260
  5261						DFM	536,200777,-2,0,0,200400,0,0,0,177777,-2,0,0^
  5262					S53600:	DMOVE	AC,[200777,,-2
  5263	035621	120 04 0 00 041536 			0,,0]
  5264						DFMP	AC,[200400,,0
  5265	035622	112 04 0 00 041027 			0,,0]
  5266	035623	312 04 0 00 041540 		CAME	AC,[177777,,-2]
  5267	035624	003 04 0 00 053601 		ER3	AC,53601
  5268	035625	312 05 0 00 040156 		CAME	AC+1,[0,,0]
  5269	035626	004 05 0 00 053601 		ER4	AC+1,53601
  5270	035627	321 10 0 00 035621 		JUMPL	AC+4,S53600	;LOOP ON ERROR SWITCH^
  5271
  5272						DFM	537,200777,-3,0,0,200400,0,0,0,177777,-3,0,0^
  5273					S53700:	DMOVE	AC,[200777,,-3
  5274	035630	120 04 0 00 041541 			0,,0]
  5275						DFMP	AC,[200400,,0
  5276	035631	112 04 0 00 041027 			0,,0]
  5277	035632	312 04 0 00 041543 		CAME	AC,[177777,,-3]
  5278	035633	003 04 0 00 053701 		ER3	AC,53701
  5279	035634	312 05 0 00 040156 		CAME	AC+1,[0,,0]
  5280	035635	004 05 0 00 053701 		ER4	AC+1,53701DBKCE	PDP-10 KI10 ADVANCED INSTRUCTION DIAGNOSTIC #5, VERSION 0,3 	MACRO %52(462) 13:32  9-AUG-76 PAGE 22-2
DBKCEM	MAC	28-MAY-76 11:21		DFMP TEST-DOUBLE FLOATING POINT MULTIPLY AND ROUND                                 SEQ 0122

  5281	035636	321 10 0 00 035630 		JUMPL	AC+4,S53700	;LOOP ON ERROR SWITCH^
  5282
  5283						DFM	540,200777,-4,0,0,200400,0,0,0,177777,-4,0,0^
  5284					S54000:	DMOVE	AC,[200777,,-4
  5285	035637	120 04 0 00 041544 			0,,0]
  5286						DFMP	AC,[200400,,0
  5287	035640	112 04 0 00 041027 			0,,0]
  5288	035641	312 04 0 00 041546 		CAME	AC,[177777,,-4]
  5289	035642	003 04 0 00 054001 		ER3	AC,54001
  5290	035643	312 05 0 00 040156 		CAME	AC+1,[0,,0]
  5291	035644	004 05 0 00 054001 		ER4	AC+1,54001
  5292	035645	321 10 0 00 035637 		JUMPL	AC+4,S54000	;LOOP ON ERROR SWITCH^
  5293
  5294						DFM	541,0,0,0,0,200400,0,0,0,0,0,0,0^
  5295					S54100:	DMOVE	AC,[0,,0
  5296	035646	120 04 0 00 040453 			0,,0]
  5297						DFMP	AC,[200400,,0
  5298	035647	112 04 0 00 041027 			0,,0]
  5299	035650	312 04 0 00 040156 		CAME	AC,[0,,0]
  5300	035651	003 04 0 00 054101 		ER3	AC,54101
  5301	035652	312 05 0 00 040156 		CAME	AC+1,[0,,0]
  5302	035653	004 05 0 00 054101 		ER4	AC+1,54101
  5303	035654	321 10 0 00 035646 		JUMPL	AC+4,S54100	;LOOP ON ERROR SWITCH^
  5304
  5305						DFM	542,577400,0,0,0,200400,0,0,0,600400,0,0,0^
  5306					S54200:	DMOVE	AC,[577400,,0
  5307	035655	120 04 0 00 040157 			0,,0]
  5308						DFMP	AC,[200400,,0
  5309	035656	112 04 0 00 041027 			0,,0]
  5310	035657	312 04 0 00 041023 		CAME	AC,[600400,,0]
  5311	035660	003 04 0 00 054201 		ER3	AC,54201
  5312	035661	312 05 0 00 040156 		CAME	AC+1,[0,,0]
  5313	035662	004 05 0 00 054201 		ER4	AC+1,54201
  5314	035663	321 10 0 00 035655 		JUMPL	AC+4,S54200	;LOOP ON ERROR SWITCH^
  5315
  5316						DFMKL	543,501700,0,0,0,500400,0,0,0,374100,0,0,0,372400,0,0,0^
  5317					S54300:	DMOVE	AC,[501700,,0
  5318	035664	120 04 0 00 041547 			0,,0]
  5319						DFMP	AC,[500400,,0
  5320	035665	112 04 0 00 041551 			0,,0]
  5321	035666	332 00 0 00 030041 		SKIPE	KLFLG
  5322	035667	254 00 0 00 035676 		JRST	S54305
  5323	035670	312 04 0 00 041553 		CAME	AC,[374100,,0]
  5324	035671	003 04 0 00 054301 		ER3	AC,54301
  5325	035672	312 05 0 00 040156 		CAME	AC+1,[0,,0]
  5326	035673	004 05 0 00 054301 		ER4	AC+1,54301
  5327	035674	321 10 0 00 035664 	S54306:	JUMPL	AC+4,S54300		;LOOP ON ERROR SWITCH
  5328	035675	254 00 0 00 035703 		JRST	S54307
  5329
  5330	035676	312 04 0 00 041554 	S54305:	CAME	AC,[372400,,0]
  5331	035677	003 04 0 00 054301 		ER3	AC,54301
  5332	035700	312 05 0 00 040156 		CAME	AC+1,[0,,0]
  5333	035701	004 05 0 00 054301 		ER4	AC+1,54301
  5334	035702	254 00 0 00 035674 		JRST	S54306
  5335DBKCE	PDP-10 KI10 ADVANCED INSTRUCTION DIAGNOSTIC #5, VERSION 0,3 	MACRO %52(462) 13:32  9-AUG-76 PAGE 22-3
DBKCEM	MAC	28-MAY-76 11:21		DFMP TEST-DOUBLE FLOATING POINT MULTIPLY AND ROUND                                 SEQ 0123

  5336	035703	254 00 0 00 035704 	S54307:	JRST	.+1	^
  5337
  5338						DFMKL	544,502700,0,0,0,500400,0,0,0,373100,0,0,0,371400,0,0,0^
  5339					S54400:	DMOVE	AC,[502700,,0
  5340	035704	120 04 0 00 041555 			0,,0]
  5341						DFMP	AC,[500400,,0
  5342	035705	112 04 0 00 041551 			0,,0]
  5343	035706	332 00 0 00 030041 		SKIPE	KLFLG
  5344	035707	254 00 0 00 035716 		JRST	S54405
  5345	035710	312 04 0 00 041557 		CAME	AC,[373100,,0]
  5346	035711	003 04 0 00 054401 		ER3	AC,54401
  5347	035712	312 05 0 00 040156 		CAME	AC+1,[0,,0]
  5348	035713	004 05 0 00 054401 		ER4	AC+1,54401
  5349	035714	321 10 0 00 035704 	S54406:	JUMPL	AC+4,S54400		;LOOP ON ERROR SWITCH
  5350	035715	254 00 0 00 035723 		JRST	S54407
  5351
  5352	035716	312 04 0 00 041560 	S54405:	CAME	AC,[371400,,0]
  5353	035717	003 04 0 00 054401 		ER3	AC,54401
  5354	035720	312 05 0 00 040156 		CAME	AC+1,[0,,0]
  5355	035721	004 05 0 00 054401 		ER4	AC+1,54401
  5356	035722	254 00 0 00 035714 		JRST	S54406
  5357
  5358	035723	254 00 0 00 035724 	S54407:	JRST	.+1	^
  5359
  5360						DFMKL	545,503700,0,0,0,500400,0,0,0,372100,0,0,0,370400,0,0,0^
  5361					S54500:	DMOVE	AC,[503700,,0
  5362	035724	120 04 0 00 041561 			0,,0]
  5363						DFMP	AC,[500400,,0
  5364	035725	112 04 0 00 041551 			0,,0]
  5365	035726	332 00 0 00 030041 		SKIPE	KLFLG
  5366	035727	254 00 0 00 035736 		JRST	S54505
  5367	035730	312 04 0 00 041563 		CAME	AC,[372100,,0]
  5368	035731	003 04 0 00 054501 		ER3	AC,54501
  5369	035732	312 05 0 00 040156 		CAME	AC+1,[0,,0]
  5370	035733	004 05 0 00 054501 		ER4	AC+1,54501
  5371	035734	321 10 0 00 035724 	S54506:	JUMPL	AC+4,S54500		;LOOP ON ERROR SWITCH
  5372	035735	254 00 0 00 035743 		JRST	S54507
  5373
  5374	035736	312 04 0 00 041564 	S54505:	CAME	AC,[370400,,0]
  5375	035737	003 04 0 00 054501 		ER3	AC,54501
  5376	035740	312 05 0 00 040156 		CAME	AC+1,[0,,0]
  5377	035741	004 05 0 00 054501 		ER4	AC+1,54501
  5378	035742	254 00 0 00 035734 		JRST	S54506
  5379
  5380	035743	254 00 0 00 035744 	S54507:	JRST	.+1	^
  5381
  5382						DFMKL	546,504700,0,0,0,500400,0,0,0,371100,0,0,0,367400,0,0,0^
  5383					S54600:	DMOVE	AC,[504700,,0
  5384	035744	120 04 0 00 041565 			0,,0]
  5385						DFMP	AC,[500400,,0
  5386	035745	112 04 0 00 041551 			0,,0]
  5387	035746	332 00 0 00 030041 		SKIPE	KLFLG
  5388	035747	254 00 0 00 035756 		JRST	S54605
  5389	035750	312 04 0 00 041567 		CAME	AC,[371100,,0]
  5390	035751	003 04 0 00 054601 		ER3	AC,54601DBKCE	PDP-10 KI10 ADVANCED INSTRUCTION DIAGNOSTIC #5, VERSION 0,3 	MACRO %52(462) 13:32  9-AUG-76 PAGE 22-4
DBKCEM	MAC	28-MAY-76 11:21		DFMP TEST-DOUBLE FLOATING POINT MULTIPLY AND ROUND                                 SEQ 0124

  5391	035752	312 05 0 00 040156 		CAME	AC+1,[0,,0]
  5392	035753	004 05 0 00 054601 		ER4	AC+1,54601
  5393	035754	321 10 0 00 035744 	S54606:	JUMPL	AC+4,S54600		;LOOP ON ERROR SWITCH
  5394	035755	254 00 0 00 035763 		JRST	S54607
  5395
  5396	035756	312 04 0 00 041570 	S54605:	CAME	AC,[367400,,0]
  5397	035757	003 04 0 00 054601 		ER3	AC,54601
  5398	035760	312 05 0 00 040156 		CAME	AC+1,[0,,0]
  5399	035761	004 05 0 00 054601 		ER4	AC+1,54601
  5400	035762	254 00 0 00 035754 		JRST	S54606
  5401
  5402	035763	254 00 0 00 035764 	S54607:	JRST	.+1	^
  5403
  5404						DFMKL	547,505700,0,0,0,500400,0,0,0,370100,0,0,0,366400,0,0,0^
  5405					S54700:	DMOVE	AC,[505700,,0
  5406	035764	120 04 0 00 041571 			0,,0]
  5407						DFMP	AC,[500400,,0
  5408	035765	112 04 0 00 041551 			0,,0]
  5409	035766	332 00 0 00 030041 		SKIPE	KLFLG
  5410	035767	254 00 0 00 035776 		JRST	S54705
  5411	035770	312 04 0 00 041573 		CAME	AC,[370100,,0]
  5412	035771	003 04 0 00 054701 		ER3	AC,54701
  5413	035772	312 05 0 00 040156 		CAME	AC+1,[0,,0]
  5414	035773	004 05 0 00 054701 		ER4	AC+1,54701
  5415	035774	321 10 0 00 035764 	S54706:	JUMPL	AC+4,S54700		;LOOP ON ERROR SWITCH
  5416	035775	254 00 0 00 036003 		JRST	S54707
  5417
  5418	035776	312 04 0 00 041574 	S54705:	CAME	AC,[366400,,0]
  5419	035777	003 04 0 00 054701 		ER3	AC,54701
  5420	036000	312 05 0 00 040156 		CAME	AC+1,[0,,0]
  5421	036001	004 05 0 00 054701 		ER4	AC+1,54701
  5422	036002	254 00 0 00 035774 		JRST	S54706
  5423
  5424	036003	254 00 0 00 036004 	S54707:	JRST	.+1	^
  5425
  5426						DFMKL	550,200200,0,0,0,200400,0,0,0,177200,0,0,0,176400,0,0,0^
  5427					S55000:	DMOVE	AC,[200200,,0
  5428	036004	120 04 0 00 041372 			0,,0]
  5429						DFMP	AC,[200400,,0
  5430	036005	112 04 0 00 041027 			0,,0]
  5431	036006	332 00 0 00 030041 		SKIPE	KLFLG
  5432	036007	254 00 0 00 036016 		JRST	S55005
  5433	036010	312 04 0 00 041575 		CAME	AC,[177200,,0]
  5434	036011	003 04 0 00 055001 		ER3	AC,55001
  5435	036012	312 05 0 00 040156 		CAME	AC+1,[0,,0]
  5436	036013	004 05 0 00 055001 		ER4	AC+1,55001
  5437	036014	321 10 0 00 036004 	S55006:	JUMPL	AC+4,S55000		;LOOP ON ERROR SWITCH
  5438	036015	254 00 0 00 036023 		JRST	S55007
  5439
  5440	036016	312 04 0 00 040167 	S55005:	CAME	AC,[176400,,0]
  5441	036017	003 04 0 00 055001 		ER3	AC,55001
  5442	036020	312 05 0 00 040156 		CAME	AC+1,[0,,0]
  5443	036021	004 05 0 00 055001 		ER4	AC+1,55001
  5444	036022	254 00 0 00 036014 		JRST	S55006
  5445DBKCE	PDP-10 KI10 ADVANCED INSTRUCTION DIAGNOSTIC #5, VERSION 0,3 	MACRO %52(462) 13:32  9-AUG-76 PAGE 22-5
DBKCEM	MAC	28-MAY-76 11:21		DFMP TEST-DOUBLE FLOATING POINT MULTIPLY AND ROUND                                 SEQ 0125

  5446	036023	254 00 0 00 036024 	S55007:	JRST	.+1	^
  5447
  5448						DFMKL	551,200100,0,0,0,200400,0,0,0,177100,0,0,0,175400,0,0,0^
  5449					S55100:	DMOVE	AC,[200100,,0
  5450	036024	120 04 0 00 041232 			0,,0]
  5451						DFMP	AC,[200400,,0
  5452	036025	112 04 0 00 041027 			0,,0]
  5453	036026	332 00 0 00 030041 		SKIPE	KLFLG
  5454	036027	254 00 0 00 036036 		JRST	S55105
  5455	036030	312 04 0 00 041576 		CAME	AC,[177100,,0]
  5456	036031	003 04 0 00 055101 		ER3	AC,55101
  5457	036032	312 05 0 00 040156 		CAME	AC+1,[0,,0]
  5458	036033	004 05 0 00 055101 		ER4	AC+1,55101
  5459	036034	321 10 0 00 036024 	S55106:	JUMPL	AC+4,S55100		;LOOP ON ERROR SWITCH
  5460	036035	254 00 0 00 036043 		JRST	S55107
  5461
  5462	036036	312 04 0 00 040172 	S55105:	CAME	AC,[175400,,0]
  5463	036037	003 04 0 00 055101 		ER3	AC,55101
  5464	036040	312 05 0 00 040156 		CAME	AC+1,[0,,0]
  5465	036041	004 05 0 00 055101 		ER4	AC+1,55101
  5466	036042	254 00 0 00 036034 		JRST	S55106
  5467
  5468	036043	254 00 0 00 036044 	S55107:	JRST	.+1	^
  5469
  5470						DFMKL	552,200040,0,0,0,200400,0,0,0,177040,0,0,0,174400,0,0,0^
  5471					S55200:	DMOVE	AC,[200040,,0
  5472	036044	120 04 0 00 041234 			0,,0]
  5473						DFMP	AC,[200400,,0
  5474	036045	112 04 0 00 041027 			0,,0]
  5475	036046	332 00 0 00 030041 		SKIPE	KLFLG
  5476	036047	254 00 0 00 036056 		JRST	S55205
  5477	036050	312 04 0 00 041577 		CAME	AC,[177040,,0]
  5478	036051	003 04 0 00 055201 		ER3	AC,55201
  5479	036052	312 05 0 00 040156 		CAME	AC+1,[0,,0]
  5480	036053	004 05 0 00 055201 		ER4	AC+1,55201
  5481	036054	321 10 0 00 036044 	S55206:	JUMPL	AC+4,S55200		;LOOP ON ERROR SWITCH
  5482	036055	254 00 0 00 036063 		JRST	S55207
  5483
  5484	036056	312 04 0 00 040175 	S55205:	CAME	AC,[174400,,0]
  5485	036057	003 04 0 00 055201 		ER3	AC,55201
  5486	036060	312 05 0 00 040156 		CAME	AC+1,[0,,0]
  5487	036061	004 05 0 00 055201 		ER4	AC+1,55201
  5488	036062	254 00 0 00 036054 		JRST	S55206
  5489
  5490	036063	254 00 0 00 036064 	S55207:	JRST	.+1	^
  5491
  5492						DFMKL	553,200020,0,0,0,200400,0,0,0,177020,0,0,0,173400,0,0,0^
  5493					S55300:	DMOVE	AC,[200020,,0
  5494	036064	120 04 0 00 041236 			0,,0]
  5495						DFMP	AC,[200400,,0
  5496	036065	112 04 0 00 041027 			0,,0]
  5497	036066	332 00 0 00 030041 		SKIPE	KLFLG
  5498	036067	254 00 0 00 036076 		JRST	S55305
  5499	036070	312 04 0 00 041600 		CAME	AC,[177020,,0]
  5500	036071	003 04 0 00 055301 		ER3	AC,55301DBKCE	PDP-10 KI10 ADVANCED INSTRUCTION DIAGNOSTIC #5, VERSION 0,3 	MACRO %52(462) 13:32  9-AUG-76 PAGE 22-6
DBKCEM	MAC	28-MAY-76 11:21		DFMP TEST-DOUBLE FLOATING POINT MULTIPLY AND ROUND                                 SEQ 0126

  5501	036072	312 05 0 00 040156 		CAME	AC+1,[0,,0]
  5502	036073	004 05 0 00 055301 		ER4	AC+1,55301
  5503	036074	321 10 0 00 036064 	S55306:	JUMPL	AC+4,S55300		;LOOP ON ERROR SWITCH
  5504	036075	254 00 0 00 036103 		JRST	S55307
  5505
  5506	036076	312 04 0 00 040200 	S55305:	CAME	AC,[173400,,0]
  5507	036077	003 04 0 00 055301 		ER3	AC,55301
  5508	036100	312 05 0 00 040156 		CAME	AC+1,[0,,0]
  5509	036101	004 05 0 00 055301 		ER4	AC+1,55301
  5510	036102	254 00 0 00 036074 		JRST	S55306
  5511
  5512	036103	254 00 0 00 036104 	S55307:	JRST	.+1	^
  5513
  5514						DFMKL	554,200010,0,0,0,200400,0,0,0,177010,0,0,0,172400,0,0,0^
  5515					S55400:	DMOVE	AC,[200010,,0
  5516	036104	120 04 0 00 041317 			0,,0]
  5517						DFMP	AC,[200400,,0
  5518	036105	112 04 0 00 041027 			0,,0]
  5519	036106	332 00 0 00 030041 		SKIPE	KLFLG
  5520	036107	254 00 0 00 036116 		JRST	S55405
  5521	036110	312 04 0 00 041601 		CAME	AC,[177010,,0]
  5522	036111	003 04 0 00 055401 		ER3	AC,55401
  5523	036112	312 05 0 00 040156 		CAME	AC+1,[0,,0]
  5524	036113	004 05 0 00 055401 		ER4	AC+1,55401
  5525	036114	321 10 0 00 036104 	S55406:	JUMPL	AC+4,S55400		;LOOP ON ERROR SWITCH
  5526	036115	254 00 0 00 036123 		JRST	S55407
  5527
  5528	036116	312 04 0 00 040203 	S55405:	CAME	AC,[172400,,0]
  5529	036117	003 04 0 00 055401 		ER3	AC,55401
  5530	036120	312 05 0 00 040156 		CAME	AC+1,[0,,0]
  5531	036121	004 05 0 00 055401 		ER4	AC+1,55401
  5532	036122	254 00 0 00 036114 		JRST	S55406
  5533
  5534	036123	254 00 0 00 036124 	S55407:	JRST	.+1	^
  5535
  5536						DFMKL	555,200004,0,0,0,200400,0,0,0,177004,0,0,0,171400,0,0,0^
  5537					S55500:	DMOVE	AC,[200004,,0
  5538	036124	120 04 0 00 041315 			0,,0]
  5539						DFMP	AC,[200400,,0
  5540	036125	112 04 0 00 041027 			0,,0]
  5541	036126	332 00 0 00 030041 		SKIPE	KLFLG
  5542	036127	254 00 0 00 036136 		JRST	S55505
  5543	036130	312 04 0 00 041602 		CAME	AC,[177004,,0]
  5544	036131	003 04 0 00 055501 		ER3	AC,55501
  5545	036132	312 05 0 00 040156 		CAME	AC+1,[0,,0]
  5546	036133	004 05 0 00 055501 		ER4	AC+1,55501
  5547	036134	321 10 0 00 036124 	S55506:	JUMPL	AC+4,S55500		;LOOP ON ERROR SWITCH
  5548	036135	254 00 0 00 036143 		JRST	S55507
  5549
  5550	036136	312 04 0 00 040206 	S55505:	CAME	AC,[171400,,0]
  5551	036137	003 04 0 00 055501 		ER3	AC,55501
  5552	036140	312 05 0 00 040156 		CAME	AC+1,[0,,0]
  5553	036141	004 05 0 00 055501 		ER4	AC+1,55501
  5554	036142	254 00 0 00 036134 		JRST	S55506
  5555DBKCE	PDP-10 KI10 ADVANCED INSTRUCTION DIAGNOSTIC #5, VERSION 0,3 	MACRO %52(462) 13:32  9-AUG-76 PAGE 22-7
DBKCEM	MAC	28-MAY-76 11:21		DFMP TEST-DOUBLE FLOATING POINT MULTIPLY AND ROUND                                 SEQ 0127

  5556	036143	254 00 0 00 036144 	S55507:	JRST	.+1	^
  5557
  5558						DFMKL	556,200002,0,0,0,200400,0,0,0,177002,0,0,0,170400,0,0,0^
  5559					S55600:	DMOVE	AC,[200002,,0
  5560	036144	120 04 0 00 041313 			0,,0]
  5561						DFMP	AC,[200400,,0
  5562	036145	112 04 0 00 041027 			0,,0]
  5563	036146	332 00 0 00 030041 		SKIPE	KLFLG
  5564	036147	254 00 0 00 036156 		JRST	S55605
  5565	036150	312 04 0 00 041603 		CAME	AC,[177002,,0]
  5566	036151	003 04 0 00 055601 		ER3	AC,55601
  5567	036152	312 05 0 00 040156 		CAME	AC+1,[0,,0]
  5568	036153	004 05 0 00 055601 		ER4	AC+1,55601
  5569	036154	321 10 0 00 036144 	S55606:	JUMPL	AC+4,S55600		;LOOP ON ERROR SWITCH
  5570	036155	254 00 0 00 036163 		JRST	S55607
  5571
  5572	036156	312 04 0 00 040211 	S55605:	CAME	AC,[170400,,0]
  5573	036157	003 04 0 00 055601 		ER3	AC,55601
  5574	036160	312 05 0 00 040156 		CAME	AC+1,[0,,0]
  5575	036161	004 05 0 00 055601 		ER4	AC+1,55601
  5576	036162	254 00 0 00 036154 		JRST	S55606
  5577
  5578	036163	254 00 0 00 036164 	S55607:	JRST	.+1	^
  5579
  5580						DFMKL	557,500700,0,0,0,200400,0,0,0,501700,0,0,0,503400,0,0,0^
  5581					S55700:	DMOVE	AC,[500700,,0
  5582	036164	120 04 0 00 041604 			0,,0]
  5583						DFMP	AC,[200400,,0
  5584	036165	112 04 0 00 041027 			0,,0]
  5585	036166	332 00 0 00 030041 		SKIPE	KLFLG
  5586	036167	254 00 0 00 036176 		JRST	S55705
  5587	036170	312 04 0 00 041547 		CAME	AC,[501700,,0]
  5588	036171	003 04 0 00 055701 		ER3	AC,55701
  5589	036172	312 05 0 00 040156 		CAME	AC+1,[0,,0]
  5590	036173	004 05 0 00 055701 		ER4	AC+1,55701
  5591	036174	321 10 0 00 036164 	S55706:	JUMPL	AC+4,S55700		;LOOP ON ERROR SWITCH
  5592	036175	254 00 0 00 036203 		JRST	S55707
  5593
  5594	036176	312 04 0 00 041606 	S55705:	CAME	AC,[503400,,0]
  5595	036177	003 04 0 00 055701 		ER3	AC,55701
  5596	036200	312 05 0 00 040156 		CAME	AC+1,[0,,0]
  5597	036201	004 05 0 00 055701 		ER4	AC+1,55701
  5598	036202	254 00 0 00 036174 		JRST	S55706
  5599
  5600	036203	254 00 0 00 036204 	S55707:	JRST	.+1	^DBKCE	PDP-10 KI10 ADVANCED INSTRUCTION DIAGNOSTIC #5, VERSION 0,3 	MACRO %52(462) 13:32  9-AUG-76 PAGE 23
DBKCEM	MAC	28-MAY-76 11:21		DFMP TEST-DOUBLE FLOATING POINT MULTIPLY AND ROUND                                 SEQ 0128

  5601
  5602						DFMKL	560,500770,0,0,0,200400,0,0,0,501770,0,0,0,506400,0,0,0^
  5603					S56000:	DMOVE	AC,[500770,,0
  5604	036204	120 04 0 00 041607 			0,,0]
  5605						DFMP	AC,[200400,,0
  5606	036205	112 04 0 00 041027 			0,,0]
  5607	036206	332 00 0 00 030041 		SKIPE	KLFLG
  5608	036207	254 00 0 00 036216 		JRST	S56005
  5609	036210	312 04 0 00 041611 		CAME	AC,[501770,,0]
  5610	036211	003 04 0 00 056001 		ER3	AC,56001
  5611	036212	312 05 0 00 040156 		CAME	AC+1,[0,,0]
  5612	036213	004 05 0 00 056001 		ER4	AC+1,56001
  5613	036214	321 10 0 00 036204 	S56006:	JUMPL	AC+4,S56000		;LOOP ON ERROR SWITCH
  5614	036215	254 00 0 00 036223 		JRST	S56007
  5615
  5616	036216	312 04 0 00 041612 	S56005:	CAME	AC,[506400,,0]
  5617	036217	003 04 0 00 056001 		ER3	AC,56001
  5618	036220	312 05 0 00 040156 		CAME	AC+1,[0,,0]
  5619	036221	004 05 0 00 056001 		ER4	AC+1,56001
  5620	036222	254 00 0 00 036214 		JRST	S56006
  5621
  5622	036223	254 00 0 00 036224 	S56007:	JRST	.+1	^
  5623
  5624						DFM	561,200775,0,0,0,200775,0,0,0,200772,11000,0,0^
  5625					S56100:	DMOVE	AC,[200775,,0
  5626	036224	120 04 0 00 041613 			0,,0]
  5627						DFMP	AC,[200775,,0
  5628	036225	112 04 0 00 041613 			0,,0]
  5629	036226	312 04 0 00 041615 		CAME	AC,[200772,,11000]
  5630	036227	003 04 0 00 056101 		ER3	AC,56101
  5631	036230	312 05 0 00 040156 		CAME	AC+1,[0,,0]
  5632	036231	004 05 0 00 056101 		ER4	AC+1,56101
  5633	036232	321 10 0 00 036224 		JUMPL	AC+4,S56100	;LOOP ON ERROR SWITCH^
  5634
  5635						DFM	562,200774,0,0,0,200774,0,0,0,200770,20000,0,0^
  5636					S56200:	DMOVE	AC,[200774,,0
  5637	036233	120 04 0 00 041616 			0,,0]
  5638						DFMP	AC,[200774,,0
  5639	036234	112 04 0 00 041616 			0,,0]
  5640	036235	312 04 0 00 041620 		CAME	AC,[200770,,20000]
  5641	036236	003 04 0 00 056201 		ER3	AC,56201
  5642	036237	312 05 0 00 040156 		CAME	AC+1,[0,,0]
  5643	036240	004 05 0 00 056201 		ER4	AC+1,56201
  5644	036241	321 10 0 00 036233 		JUMPL	AC+4,S56200	;LOOP ON ERROR SWITCH^
  5645
  5646						DFM	563,200773,0,0,0,200773,0,0,0,200766,31000,0,0^
  5647					S56300:	DMOVE	AC,[200773,,0
  5648	036242	120 04 0 00 041621 			0,,0]
  5649						DFMP	AC,[200773,,0
  5650	036243	112 04 0 00 041621 			0,,0]
  5651	036244	312 04 0 00 041623 		CAME	AC,[200766,,31000]
  5652	036245	003 04 0 00 056301 		ER3	AC,56301
  5653	036246	312 05 0 00 040156 		CAME	AC+1,[0,,0]
  5654	036247	004 05 0 00 056301 		ER4	AC+1,56301
  5655	036250	321 10 0 00 036242 		JUMPL	AC+4,S56300	;LOOP ON ERROR SWITCH^DBKCE	PDP-10 KI10 ADVANCED INSTRUCTION DIAGNOSTIC #5, VERSION 0,3 	MACRO %52(462) 13:32  9-AUG-76 PAGE 23-1
DBKCEM	MAC	28-MAY-76 11:21		DFMP TEST-DOUBLE FLOATING POINT MULTIPLY AND ROUND                                 SEQ 0129

  5656
  5657						DFM	564,177477,0,0,0,200700,0,0,0,177427,100000,0,0^
  5658					S56400:	DMOVE	AC,[177477,,0
  5659	036251	120 04 0 00 041624 			0,,0]
  5660						DFMP	AC,[200700,,0
  5661	036252	112 04 0 00 041037 			0,,0]
  5662	036253	312 04 0 00 041626 		CAME	AC,[177427,,100000]
  5663	036254	003 04 0 00 056401 		ER3	AC,56401
  5664	036255	312 05 0 00 040156 		CAME	AC+1,[0,,0]
  5665	036256	004 05 0 00 056401 		ER4	AC+1,56401
  5666	036257	321 10 0 00 036251 		JUMPL	AC+4,S56400	;LOOP ON ERROR SWITCH^
  5667
  5668						DFM	565,200777,-1,0,0,200777,-1,0,0,200777,-2,0,400^
  5669					S56500:	DMOVE	AC,[200777,,-1
  5670	036260	120 04 0 00 041324 			0,,0]
  5671						DFMP	AC,[200777,,-1
  5672	036261	112 04 0 00 041324 			0,,0]
  5673	036262	312 04 0 00 041536 		CAME	AC,[200777,,-2]
  5674	036263	003 04 0 00 056501 		ER3	AC,56501
  5675	036264	312 05 0 00 040417 		CAME	AC+1,[0,,400]
  5676	036265	004 05 0 00 056501 		ER4	AC+1,56501
  5677	036266	321 10 0 00 036260 		JUMPL	AC+4,S56500	;LOOP ON ERROR SWITCH^
  5678
  5679						DFM	566,200777,-2,0,0,200777,-1,0,0,200777,-3,0,1000^
  5680					S56600:	DMOVE	AC,[200777,,-2
  5681	036267	120 04 0 00 041536 			0,,0]
  5682						DFMP	AC,[200777,,-1
  5683	036270	112 04 0 00 041324 			0,,0]
  5684	036271	312 04 0 00 041541 		CAME	AC,[200777,,-3]
  5685	036272	003 04 0 00 056601 		ER3	AC,56601
  5686	036273	312 05 0 00 040414 		CAME	AC+1,[0,,1000]
  5687	036274	004 05 0 00 056601 		ER4	AC+1,56601
  5688	036275	321 10 0 00 036267 		JUMPL	AC+4,S56600	;LOOP ON ERROR SWITCH^
  5689
  5690						DFM	567,200777,-3,0,0,200777,-1,0,0,200777,-4,0,1400^
  5691					S56700:	DMOVE	AC,[200777,,-3
  5692	036276	120 04 0 00 041541 			0,,0]
  5693						DFMP	AC,[200777,,-1
  5694	036277	112 04 0 00 041324 			0,,0]
  5695	036300	312 04 0 00 041544 		CAME	AC,[200777,,-4]
  5696	036301	003 04 0 00 056701 		ER3	AC,56701
  5697	036302	312 05 0 00 041627 		CAME	AC+1,[0,,1400]
  5698	036303	004 05 0 00 056701 		ER4	AC+1,56701
  5699	036304	321 10 0 00 036276 		JUMPL	AC+4,S56700	;LOOP ON ERROR SWITCH^
  5700
  5701						DFM	570,200777,-4,0,0,200777,-1,0,0,200777,-5,0,2000^
  5702					S57000:	DMOVE	AC,[200777,,-4
  5703	036305	120 04 0 00 041544 			0,,0]
  5704						DFMP	AC,[200777,,-1
  5705	036306	112 04 0 00 041324 			0,,0]
  5706	036307	312 04 0 00 041630 		CAME	AC,[200777,,-5]
  5707	036310	003 04 0 00 057001 		ER3	AC,57001
  5708	036311	312 05 0 00 040411 		CAME	AC+1,[0,,2000]
  5709	036312	004 05 0 00 057001 		ER4	AC+1,57001
  5710	036313	321 10 0 00 036305 		JUMPL	AC+4,S57000	;LOOP ON ERROR SWITCH^DBKCE	PDP-10 KI10 ADVANCED INSTRUCTION DIAGNOSTIC #5, VERSION 0,3 	MACRO %52(462) 13:32  9-AUG-76 PAGE 23-2
DBKCEM	MAC	28-MAY-76 11:21		DFMP TEST-DOUBLE FLOATING POINT MULTIPLY AND ROUND                                 SEQ 0130

  5711
  5712						DFM	571,200777,-5,0,0,200777,-1,0,0,200777,-6,0,2400^
  5713					S57100:	DMOVE	AC,[200777,,-5
  5714	036314	120 04 0 00 041630 			0,,0]
  5715						DFMP	AC,[200777,,-1
  5716	036315	112 04 0 00 041324 			0,,0]
  5717	036316	312 04 0 00 041632 		CAME	AC,[200777,,-6]
  5718	036317	003 04 0 00 057101 		ER3	AC,57101
  5719	036320	312 05 0 00 041633 		CAME	AC+1,[0,,2400]
  5720	036321	004 05 0 00 057101 		ER4	AC+1,57101
  5721	036322	321 10 0 00 036314 		JUMPL	AC+4,S57100	;LOOP ON ERROR SWITCH^
  5722
  5723						DFM	572,500000,-1,0,0,200777,0,0,0,500001,776777,400,0^
  5724					S57200:	DMOVE	AC,[500000,,-1
  5725	036323	120 04 0 00 041634 			0,,0]
  5726						DFMP	AC,[200777,,0
  5727	036324	112 04 0 00 041636 			0,,0]
  5728	036325	312 04 0 00 041640 		CAME	AC,[500001,,776777]
  5729	036326	003 04 0 00 057201 		ER3	AC,57201
  5730	036327	312 05 0 00 040331 		CAME	AC+1,[400,,0]
  5731	036330	004 05 0 00 057201 		ER4	AC+1,57201
  5732	036331	321 10 0 00 036323 		JUMPL	AC+4,S57200	;LOOP ON ERROR SWITCH^
  5733
  5734						DFM	573,500000,777770,0,0,200777,0,0,0,500001,776770,4000,0^
  5735					S57300:	DMOVE	AC,[500000,,777770
  5736	036332	120 04 0 00 041641 			0,,0]
  5737						DFMP	AC,[200777,,0
  5738	036333	112 04 0 00 041636 			0,,0]
  5739	036334	312 04 0 00 041643 		CAME	AC,[500001,,776770]
  5740	036335	003 04 0 00 057301 		ER3	AC,57301
  5741	036336	312 05 0 00 040320 		CAME	AC+1,[4000,,0]
  5742	036337	004 05 0 00 057301 		ER4	AC+1,57301
  5743	036340	321 10 0 00 036332 		JUMPL	AC+4,S57300	;LOOP ON ERROR SWITCH^
  5744
  5745						DFM	574,500000,-1,0,0,500000,-1,0,0,376776,1001,377000,400^
  5746					S57400:	DMOVE	AC,[500000,,-1
  5747	036341	120 04 0 00 041634 			0,,0]
  5748						DFMP	AC,[500000,,-1
  5749	036342	112 04 0 00 041634 			0,,0]
  5750	036343	312 04 0 00 041644 		CAME	AC,[376776,,1001]
  5751	036344	003 04 0 00 057401 		ER3	AC,57401
  5752	036345	312 05 0 00 041645 		CAME	AC+1,[377000,,400]
  5753	036346	004 05 0 00 057401 		ER4	AC+1,57401
  5754	036347	321 10 0 00 036341 		JUMPL	AC+4,S57400	;LOOP ON ERROR SWITCH^
  5755
  5756						DFM	575,500000,-2,0,0,500000,-2,0,0,376776,1003,376000,2000^
  5757					S57500:	DMOVE	AC,[500000,,-2
  5758	036350	120 04 0 00 041646 			0,,0]
  5759						DFMP	AC,[500000,,-2
  5760	036351	112 04 0 00 041646 			0,,0]
  5761	036352	312 04 0 00 041650 		CAME	AC,[376776,,1003]
  5762	036353	003 04 0 00 057501 		ER3	AC,57501
  5763	036354	312 05 0 00 041651 		CAME	AC+1,[376000,,2000]
  5764	036355	004 05 0 00 057501 		ER4	AC+1,57501
  5765	036356	321 10 0 00 036350 		JUMPL	AC+4,S57500	;LOOP ON ERROR SWITCH^DBKCE	PDP-10 KI10 ADVANCED INSTRUCTION DIAGNOSTIC #5, VERSION 0,3 	MACRO %52(462) 13:32  9-AUG-76 PAGE 23-3
DBKCEM	MAC	28-MAY-76 11:21		DFMP TEST-DOUBLE FLOATING POINT MULTIPLY AND ROUND                                 SEQ 0131

  5766
  5767						DFMKL	576,200777,-1,0,0,200000,2,0,0,177000,3,377777,776000,146777,-1,0,0^
  5768					S57600:	DMOVE	AC,[200777,,-1
  5769	036357	120 04 0 00 041324 			0,,0]
  5770						DFMP	AC,[200000,,2
  5771	036360	112 04 0 00 041247 			0,,0]
  5772	036361	332 00 0 00 030041 		SKIPE	KLFLG
  5773	036362	254 00 0 00 036371 		JRST	S57605
  5774	036363	312 04 0 00 041652 		CAME	AC,[177000,,3]
  5775	036364	003 04 0 00 057601 		ER3	AC,57601
  5776	036365	312 05 0 00 040525 		CAME	AC+1,[377777,,776000]
  5777	036366	004 05 0 00 057601 		ER4	AC+1,57601
  5778	036367	321 10 0 00 036357 	S57606:	JUMPL	AC+4,S57600		;LOOP ON ERROR SWITCH
  5779	036370	254 00 0 00 036376 		JRST	S57607
  5780
  5781	036371	312 04 0 00 041653 	S57605:	CAME	AC,[146777,,-1]
  5782	036372	003 04 0 00 057601 		ER3	AC,57601
  5783	036373	312 05 0 00 040156 		CAME	AC+1,[0,,0]
  5784	036374	004 05 0 00 057601 		ER4	AC+1,57601
  5785	036375	254 00 0 00 036367 		JRST	S57606
  5786
  5787	036376	254 00 0 00 036377 	S57607:	JRST	.+1	^
  5788
  5789						DFM	577,200700,0,0,0,200400,77,0,0,177700,156,100000,0^
  5790					S57700:	DMOVE	AC,[200700,,0
  5791	036377	120 04 0 00 041037 			0,,0]
  5792						DFMP	AC,[200400,,77
  5793	036400	112 04 0 00 041137 			0,,0]
  5794	036401	312 04 0 00 041654 		CAME	AC,[177700,,156]
  5795	036402	003 04 0 00 057701 		ER3	AC,57701
  5796	036403	312 05 0 00 040304 		CAME	AC+1,[100000,,0]
  5797	036404	004 05 0 00 057701 		ER4	AC+1,57701
  5798	036405	321 10 0 00 036377 		JUMPL	AC+4,S57700	;LOOP ON ERROR SWITCH^
  5799
  5800						DFM	600,200700,0,0,0,200400,76,0,0,177700,154,200000,0^
  5801					S60000:	DMOVE	AC,[200700,,0
  5802	036406	120 04 0 00 041037 			0,,0]
  5803						DFMP	AC,[200400,,76
  5804	036407	112 04 0 00 041655 			0,,0]
  5805	036410	312 04 0 00 041657 		CAME	AC,[177700,,154]
  5806	036411	003 04 0 00 060001 		ER3	AC,60001
  5807	036412	312 05 0 00 040301 		CAME	AC+1,[200000,,0]
  5808	036413	004 05 0 00 060001 		ER4	AC+1,60001
  5809	036414	321 10 0 00 036406 		JUMPL	AC+4,S60000	;LOOP ON ERROR SWITCH^
  5810
  5811						DFM	601,200700,0,0,0,200400,75,0,0,177700,152,300000,0^
  5812					S60100:	DMOVE	AC,[200700,,0
  5813	036415	120 04 0 00 041037 			0,,0]
  5814						DFMP	AC,[200400,,75
  5815	036416	112 04 0 00 041660 			0,,0]
  5816	036417	312 04 0 00 041662 		CAME	AC,[177700,,152]
  5817	036420	003 04 0 00 060101 		ER3	AC,60101
  5818	036421	312 05 0 00 040661 		CAME	AC+1,[300000,,0]
  5819	036422	004 05 0 00 060101 		ER4	AC+1,60101
  5820	036423	321 10 0 00 036415 		JUMPL	AC+4,S60100	;LOOP ON ERROR SWITCH^DBKCE	PDP-10 KI10 ADVANCED INSTRUCTION DIAGNOSTIC #5, VERSION 0,3 	MACRO %52(462) 13:32  9-AUG-76 PAGE 23-4
DBKCEM	MAC	28-MAY-76 11:21		DFMP TEST-DOUBLE FLOATING POINT MULTIPLY AND ROUND                                 SEQ 0132

  5821
  5822						DFM	602,577400,0,0,0,600400,0,0,0,176400,0,0,0^
  5823					S60200:	DMOVE	AC,[577400,,0
  5824	036424	120 04 0 00 040157 			0,,0]
  5825						DFMP	AC,[600400,,0
  5826	036425	112 04 0 00 041023 			0,,0]
  5827	036426	312 04 0 00 040167 		CAME	AC,[176400,,0]
  5828	036427	003 04 0 00 060201 		ER3	AC,60201
  5829	036430	312 05 0 00 040156 		CAME	AC+1,[0,,0]
  5830	036431	004 05 0 00 060201 		ER4	AC+1,60201
  5831	036432	321 10 0 00 036424 		JUMPL	AC+4,S60200	;LOOP ON ERROR SWITCH^
  5832
  5833						DFM	603,600400,77,0,0,177660,0,0,0,602120,152,120000,0^
  5834					S60300:	DMOVE	AC,[600400,,77
  5835	036433	120 04 0 00 041663 			0,,0]
  5836						DFMP	AC,[177660,,0
  5837	036434	112 04 0 00 041665 			0,,0]
  5838	036435	312 04 0 00 041667 		CAME	AC,[602120,,152]
  5839	036436	003 04 0 00 060301 		ER3	AC,60301
  5840	036437	312 05 0 00 041670 		CAME	AC+1,[120000,,0]
  5841	036440	004 05 0 00 060301 		ER4	AC+1,60301
  5842	036441	321 10 0 00 036433 		JUMPL	AC+4,S60300	;LOOP ON ERROR SWITCH^
  5843
  5844						DFM	604,600400,76,0,0,177600,0,0,0,602200,135,0,0^
  5845					S60400:	DMOVE	AC,[600400,,76
  5846	036442	120 04 0 00 041671 			0,,0]
  5847						DFMP	AC,[177600,,0
  5848	036443	112 04 0 00 041673 			0,,0]
  5849	036444	312 04 0 00 041675 		CAME	AC,[602200,,135]
  5850	036445	003 04 0 00 060401 		ER3	AC,60401
  5851	036446	312 05 0 00 040156 		CAME	AC+1,[0,,0]
  5852	036447	004 05 0 00 060401 		ER4	AC+1,60401
  5853	036450	321 10 0 00 036442 		JUMPL	AC+4,S60400	;LOOP ON ERROR SWITCH^
  5854
  5855						DFM	605,600400,0,0,0,576400,0,0,0,177400,0,0,0^
  5856					S60500:	DMOVE	AC,[600400,,0
  5857	036451	120 04 0 00 041023 			0,,0]
  5858						DFMP	AC,[576400,,0
  5859	036452	112 04 0 00 041134 			0,,0]
  5860	036453	312 04 0 00 040164 		CAME	AC,[177400,,0]
  5861	036454	003 04 0 00 060501 		ER3	AC,60501
  5862	036455	312 05 0 00 040156 		CAME	AC+1,[0,,0]
  5863	036456	004 05 0 00 060501 		ER4	AC+1,60501
  5864	036457	321 10 0 00 036451 		JUMPL	AC+4,S60500	;LOOP ON ERROR SWITCH^
  5865
  5866						DFM	606,600400,0,0,0,575400,0,0,0,200400,0,0,0^
  5867					S60600:	DMOVE	AC,[600400,,0
  5868	036460	120 04 0 00 041023 			0,,0]
  5869						DFMP	AC,[575400,,0
  5870	036461	112 04 0 00 041533 			0,,0]
  5871	036462	312 04 0 00 040161 		CAME	AC,[200400,,0]
  5872	036463	003 04 0 00 060601 		ER3	AC,60601
  5873	036464	312 05 0 00 040156 		CAME	AC+1,[0,,0]
  5874	036465	004 05 0 00 060601 		ER4	AC+1,60601
  5875	036466	321 10 0 00 036460 		JUMPL	AC+4,S60600	;LOOP ON ERROR SWITCH^DBKCE	PDP-10 KI10 ADVANCED INSTRUCTION DIAGNOSTIC #5, VERSION 0,3 	MACRO %52(462) 13:32  9-AUG-76 PAGE 23-5
DBKCEM	MAC	28-MAY-76 11:21		DFMP TEST-DOUBLE FLOATING POINT MULTIPLY AND ROUND                                 SEQ 0133

  5876
  5877						DFM	607,400000,1,0,0,201400,0,0,0,400000,1,0,0^
  5878					S60700:	DMOVE	AC,[400000,,1
  5879	036467	120 04 0 00 041676 			0,,0]
  5880						DFMP	AC,[201400,,0
  5881	036470	112 04 0 00 040155 			0,,0]
  5882	036471	312 04 0 00 041676 		CAME	AC,[400000,,1]
  5883	036472	003 04 0 00 060701 		ER3	AC,60701
  5884	036473	312 05 0 00 040156 		CAME	AC+1,[0,,0]
  5885	036474	004 05 0 00 060701 		ER4	AC+1,60701
  5886	036475	321 10 0 00 036467 		JUMPL	AC+4,S60700	;LOOP ON ERROR SWITCH^DBKCE	PDP-10 KI10 ADVANCED INSTRUCTION DIAGNOSTIC #5, VERSION 0,3 	MACRO %52(462) 13:32  9-AUG-76 PAGE 24
DBKCEM	MAC	28-MAY-76 11:21		DFMP TEST-DOUBLE FLOATING POINT MULTIPLY AND ROUND                                 SEQ 0134

  5887					;TEST AROV, FOV AND FXU FLAGS - DFMP
  5888
  5889			000004			AC=4
  5890						SAVEAC	(1,1)^
  5891	036476	201 10 0 00 036476 		MOVEI	AC+4,.
  5892	036477	202 10 0 00 030051 		MOVEM	AC+4,TESTPC	;SETUP SUBTEST PC
  5893	036500	201 10 0 00 000010 		MOVEI	AC+4,<AC+4>&17	;INFORM ERROR ROUTINE WHICH
  5894	036501	202 10 0 00 042257 		MOVEM	AC+4,ERRLOP#	;AC IS USED FOR ITERATION^
  5895
  5896	036502	254 02 1 00 041700 	S61000:	JRSTF	@[.+1]		;CLEAR ALL FLAGS
  5897						DMOVE	AC,[377400,,0
  5898	036503	120 04 0 00 041124 			    0,,0]
  5899						DFMP	AC,[201777,,-1
  5900	036504	112 04 0 00 041701 			    -1,,-1]	;EXPECT AROV,FOV,FXU=0,0,0
  5901	036505	265 03 0 00 036506 		JSP	AC-1,.+1	;SAVE FLAGS
  5902	036506	312 04 0 00 040455 		CAME	AC,[377777,,-1]
  5903	036507	003 04 0 00 061001 		ER3	AC,61001	;C(AC) FAILED
  5904	036510	312 05 0 00 040455 		CAME	AC+1,[377777,,-1]
  5905	036511	004 05 0 00 061001 		ER4	AC+1,61001	;C(AC+1) FAILED
  5906	036512	255 10 0 00 036514 		JOV	.+2
  5907	036513	254 00 0 00 036515 		JRST	.+2
  5908	036514	013 03 0 00 061001 		ER13	AC-1,61001	;AROV WAS SET
  5909	036515	255 01 0 00 036517 		JFOV	.+2
  5910	036516	254 00 0 00 036520 		JRST	.+2
  5911	036517	013 03 0 00 061001 		ER13	AC-1,61001	;FOV WAS SET
  5912	036520	603 03 0 00 000100 		TLNE	AC-1,FXU
  5913	036521	013 03 0 00 061001 		ER13	AC-1,61001	;FXU WAS SET
  5914	036522	321 10 0 00 036502 		JUMPL	AC+4,S61000	;LOOP ON ERROR SWITCH
  5915
  5916	036523	254 02 1 00 041703 	S61100:	JRSTF	@[.+1]		;CLEAR ALL FLAGS
  5917						DMOVE	AC,[377400,,0
  5918	036524	120 04 0 00 041124 			    0,,0]
  5919						DFMP	AC,[202400,,0
  5920	036525	112 04 0 00 041042 			    0,,0]	;EXPECT AROV,FOV,FXU=1,1,0
  5921	036526	265 03 0 00 036527 		JSP	AC-1,.+1	;SAVE FLAGS
  5922	036527	312 04 0 00 040331 		CAME	AC,[400,,0]
  5923	036530	003 04 0 00 061101 		ER3	AC,61101	;C(AC) FAILED
  5924	036531	312 05 0 00 040156 		CAME	AC+1,[0,,0]
  5925	036532	004 05 0 00 061101 		ER4	AC+1,61101	;C(AC+1) FAILED
  5926	036533	255 10 0 00 036535 		JOV	.+2
  5927	036534	013 03 0 00 061101 		ER13	AC-1,61101	;AROV WAS CLEAR
  5928	036535	255 01 0 00 036537 		JFOV	.+2
  5929	036536	013 03 0 00 061101 		ER13	AC-1,61101	;FOV WAS CLEAR
  5930	036537	603 03 0 00 000100 		TLNE	AC-1,FXU
  5931	036540	013 03 0 00 061101 		ER13	AC-1,61101	;FXU WAS SET
  5932	036541	321 10 0 00 036523 		JUMPL	AC+4,S61100	;LOOP ON ERROR SWITCHDBKCE	PDP-10 KI10 ADVANCED INSTRUCTION DIAGNOSTIC #5, VERSION 0,3 	MACRO %52(462) 13:32  9-AUG-76 PAGE 25
DBKCEM	MAC	28-MAY-76 11:21		DFMP TEST-DOUBLE FLOATING POINT MULTIPLY AND ROUND                                 SEQ 0135

  5933	036542	254 02 1 00 041704 	S61200:	JRSTF	@[.+1]		;CLEAR ALL FLAGS
  5934						DMOVE	AC,[1400,,0
  5935	036543	120 04 0 00 041705 			    0,,0]
  5936						DFMP	AC,[200400,,0
  5937	036544	112 04 0 00 041027 			    0,,0]	;EXPECT AROV,FOV,FXU=0,0,0
  5938	036545	265 03 0 00 036546 		JSP	AC-1,.+1	;SAVE FLAGS
  5939	036546	312 04 0 00 040331 		CAME	AC,[400,,0]
  5940	036547	003 04 0 00 061201 		ER3	AC,61201	;C(AC) FAILED
  5941	036550	312 05 0 00 040156 		CAME	AC+1,[0,,0]
  5942	036551	004 05 0 00 061201 		ER4	AC+1,61201	;C(AC+1) FAILED
  5943	036552	255 10 0 00 036554 		JOV	.+2
  5944	036553	254 00 0 00 036555 		JRST	.+2
  5945	036554	013 03 0 00 061201 		ER13	AC-1,61201	;AROV WAS SET
  5946	036555	255 01 0 00 036557 		JFOV	.+2
  5947	036556	254 00 0 00 036560 		JRST	.+2
  5948	036557	013 03 0 00 061201 		ER13	AC-1,61201	;FOV WAS SET
  5949	036560	603 03 0 00 000100 		TLNE	AC-1,FXU
  5950	036561	013 03 0 00 061201 		ER13	AC-1,61201	;FXU WAS SET
  5951	036562	321 10 0 00 036542 		JUMPL	AC+4,S61200	;LOOP ON ERROR SWITCH
  5952
  5953	036563	254 02 1 00 041707 	S61300:	JRSTF	@[.+1]		;CLEAR ALL FLAGS
  5954						DMOVE	AC,[777,,-1
  5955	036564	120 04 0 00 041504 			    -1,,-1]
  5956						DFMP	AC,[200400,,0
  5957	036565	112 04 0 00 041027 			    0,,0]	;EXPECT AROV,FOV,FXU=1,1,1
  5958	036566	265 03 0 00 036567 		JSP	AC-1,.+1	;SAVE FLAGS
  5959	036567	312 04 0 00 040455 		CAME	AC,[377777,,-1]
  5960	036570	003 04 0 00 061301 		ER3	AC,61301	;C(AC) FAILED
  5961	036571	312 05 0 00 040455 		CAME	AC+1,[377777,,-1]
  5962	036572	004 05 0 00 061301 		ER4	AC+1,61301	;C(AC+1) FAILED
  5963	036573	255 10 0 00 036575 		JOV	.+2
  5964	036574	013 03 0 00 061301 		ER13	AC-1,61301	;AROV WAS CLEAR
  5965	036575	255 01 0 00 036577 		JFOV	.+2
  5966	036576	013 03 0 00 061301 		ER13	AC-1,61301	;FOV WAS CLEAR
  5967	036577	607 03 0 00 000100 		TLNN	AC-1,FXU
  5968	036600	013 03 0 00 061301 		ER13	AC-1,61301	;FXU WAS CLEAR
  5969	036601	321 10 0 00 036563 		JUMPL	AC+4,S61300	;LOOP ON ERROR SWITCHDBKCE	PDP-10 KI10 ADVANCED INSTRUCTION DIAGNOSTIC #5, VERSION 0,3 	MACRO %52(462) 13:32  9-AUG-76 PAGE 26
DBKCEM	MAC	28-MAY-76 11:21		DFMP TEST-DOUBLE FLOATING POINT MULTIPLY AND ROUND                                 SEQ 0136

  5970	036602	254 02 1 00 041710 	S61400:	JRSTF	@[.+1]		;CLEAR ALL FLAGS
  5971						DMOVE	AC,[400400,,0
  5972	036603	120 04 0 00 041455 			    0,,0]
  5973						DFMP	AC,[576000,,00
  5974	036604	112 04 0 00 041711 			    0,,1]	;EXPECT AROV,FOV,FXU=0,0,0
  5975	036605	265 03 0 00 036606 		JSP	AC-1,.+1	;SAVE FLAGS
  5976	036606	312 04 0 00 040455 		CAME	AC,[377777,,-1]
  5977	036607	003 04 0 00 061401 		ER3	AC,61401	;C(AC) FAILED
  5978	036610	312 05 0 00 040455 		CAME	AC+1,[377777,,-1]
  5979	036611	004 05 0 00 061401 		ER4	AC+1,61401	;C(AC+1) FAILED
  5980	036612	255 10 0 00 036614 		JOV	.+2
  5981	036613	254 00 0 00 036615 		JRST	.+2
  5982	036614	013 03 0 00 061401 		ER13	AC-1,61401	;AROV WAS SET
  5983	036615	255 01 0 00 036617 		JFOV	.+2
  5984	036616	254 00 0 00 036620 		JRST	.+2
  5985	036617	013 03 0 00 061401 		ER13	AC-1,61401	;FOV WAS SET
  5986	036620	603 03 0 00 000100 		TLNE	AC-1,FXU
  5987	036621	013 03 0 00 061401 		ER13	AC-1,61401	;FXU WAS SET
  5988	036622	321 10 0 00 036602 		JUMPL	AC+4,S61400	;LOOP ON ERROR SWITCH
  5989
  5990	036623	254 02 1 00 041713 	S61500:	JRSTF	@[.+1]		;CLEAR ALL FLAGS
  5991						DMOVE	AC,[400400,,0
  5992	036624	120 04 0 00 041455 			    0,,0]
  5993						DFMP	AC,[575400,,0
  5994	036625	112 04 0 00 041533 			    0,,0]	;EXPECT AROV,FOV,FXU=1,1,0
  5995	036626	265 03 0 00 036627 		JSP	AC-1,.+1	;SAVE FLAGS
  5996	036627	312 04 0 00 040331 		CAME	AC,[400,,0]
  5997	036630	003 04 0 00 061501 		ER3	AC,61501	;C(AC) FAILED
  5998	036631	312 05 0 00 040156 		CAME	AC+1,[0,,0]
  5999	036632	004 05 0 00 061501 		ER4	AC+1,61501	;C(AC+1) FAILED
  6000	036633	255 10 0 00 036635 		JOV	.+2
  6001	036634	013 03 0 00 061501 		ER13	AC-1,61501	;AROV WAS CLEAR
  6002	036635	255 01 0 00 036637 		JFOV	.+2
  6003	036636	013 03 0 00 061501 		ER13	AC-1,61501	;FOV WAS CLEAR
  6004	036637	603 03 0 00 000100 		TLNE	AC-1,FXU
  6005	036640	013 03 0 00 061501 		ER13	AC-1,61501	;FXU WAS SET
  6006	036641	321 10 0 00 036623 		JUMPL	AC+4,S61500	;LOOP ON ERROR SWITCHDBKCE	PDP-10 KI10 ADVANCED INSTRUCTION DIAGNOSTIC #5, VERSION 0,3 	MACRO %52(462) 13:32  9-AUG-76 PAGE 27
DBKCEM	MAC	28-MAY-76 11:21		DFMP TEST-DOUBLE FLOATING POINT MULTIPLY AND ROUND                                 SEQ 0137

  6007	036642	254 02 1 00 041714 	S61600:	JRSTF	@[.+1]		;CLEAR ALL FLAGS
  6008						DMOVE	AC,[776400,,0
  6009	036643	120 04 0 00 041715 			    0,,0]
  6010						DFMP	AC,[577400,,0
  6011	036644	112 04 0 00 040157 			    0,,0]	;EXPECT AROV,FOV,FXU=0,0,0
  6012	036645	265 03 0 00 036646 		JSP	AC-1,.+1	;SAVE FLAGS
  6013	036646	312 04 0 00 040331 		CAME	AC,[400,,0]
  6014	036647	003 04 0 00 061601 		ER3	AC,61601	;C(AC) FAILED
  6015	036650	312 05 0 00 040156 		CAME	AC+1,[0,,0]
  6016	036651	004 05 0 00 061601 		ER4	AC+1,61601	;C(AC+1) FAILED
  6017	036652	255 10 0 00 036654 		JOV	.+2
  6018	036653	254 00 0 00 036655 		JRST	.+2
  6019	036654	013 03 0 00 061601 		ER13	AC-1,61601	;AROV WAS SET
  6020	036655	255 01 0 00 036657 		JFOV	.+2
  6021	036656	254 00 0 00 036660 		JRST	.+2
  6022	036657	013 03 0 00 061601 		ER13	AC-1,61601	;FOV WAS SET
  6023	036660	603 03 0 00 000100 		TLNE	AC-1,FXU
  6024	036661	013 03 0 00 061601 		ER13	AC-1,61601	;FXU WAS SET
  6025	036662	321 10 0 00 036642 		JUMPL	AC+4,S61600	;LOOP ON ERROR SWITCH
  6026
  6027	036663	254 02 1 00 041717 	S61700:	JRSTF	@[.+1]		;CLEAR ALL FLAGS
  6028						DMOVE	AC,[777000,,0
  6029	036664	120 04 0 00 041523 			    0,,1]
  6030						DFMP	AC,[577400,,0
  6031	036665	112 04 0 00 040157 			    0,,0]	;EXPECT AROV,FOV,FXU=1,1,1
  6032	036666	265 03 0 00 036667 		JSP	AC-1,.+1	;SAVE FLAGS
  6033	036667	312 04 0 00 040455 		CAME	AC,[377777,,-1]
  6034	036670	003 04 0 00 061701 		ER3	AC,61701		;C(AC) FAILED
  6035	036671	312 05 0 00 040455 		CAME	AC+1,[377777,,-1]
  6036	036672	004 05 0 00 061701 		ER4	AC+1,61701	;C(AC+1) FAILED
  6037	036673	255 10 0 00 036675 		JOV	.+2
  6038	036674	013 03 0 00 061701 		ER13	AC-1,61701	;AROV WAS CLEAR
  6039	036675	255 01 0 00 036677 		JFOV	.+2
  6040	036676	013 03 0 00 061701 		ER13	AC-1,61701	;FOV WAS CLEAR
  6041	036677	607 03 0 00 000100 		TLNN	AC-1,FXU
  6042	036700	013 03 0 00 061701 		ER13	AC-1,61701	;FXU WAS CLEAR
  6043	036701	321 10 0 00 036663 		JUMPL	AC+4,S61700	;LOOP ON ERROR SWITCHDBKCE	PDP-10 KI10 ADVANCED INSTRUCTION DIAGNOSTIC #5, VERSION 0,3 	MACRO %52(462) 13:32  9-AUG-76 PAGE 28
DBKCEM	MAC	28-MAY-76 11:21		DFDV TEST-DOUBLE FLOATING POINT DIVIDE                                             SEQ 0138

  6044					SUBTTL	DFDV TEST-DOUBLE FLOATING POINT DIVIDE
  6045
  6046			000004			AC=4
  6047						SAVEAC	(1,1)^
  6048	036702	201 10 0 00 036702 		MOVEI	AC+4,.
  6049	036703	202 10 0 00 030051 		MOVEM	AC+4,TESTPC	;SETUP SUBTEST PC
  6050	036704	201 10 0 00 000010 		MOVEI	AC+4,<AC+4>&17	;INFORM ERROR ROUTINE WHICH
  6051	036705	202 10 0 00 042257 		MOVEM	AC+4,ERRLOP#	;AC IS USED FOR ITERATION^
  6052	036706	254 02 1 00 041720 		JRSTF	@[.+1]		;CLEAR ALL FLAGS
  6053
  6054					;CHECK THAT DFDV AC,E DOES NOT ALTER C(E) OR C(E+1)
  6055					S70100:	DMOVE	AC,[200777,,-1
  6056	036707	120 04 0 00 041006 			-1,,-1]
  6057						DMOVE	AC+2,[200400,,0
  6058	036710	120 06 0 00 041721 			400000,,-1]
  6059	036711	113 04 0 00 000006 		DFDV	AC,AC+2
  6060	036712	312 06 0 00 040161 		CAME	AC+2,[200400,,0]
  6061	036713	005 06 0 00 070101 		ER5	AC+2,70101	;C(E) WAS ALTERED
  6062	036714	312 07 0 00 041011 		CAME	AC+3,[400000,,-1]
  6063	036715	006 07 0 00 070101 		ER6	AC+3,70101	;C(E+1) WAS ALTERED
  6064	036716	321 10 0 00 036707 		JUMPL	AC+4,S70100	;LOOP ON ERROR SWITCH
  6065
  6066						DFD	702,200400,0,0,0,200400,0,0,0,201400,0,0,0^
  6067					S70200:	DMOVE	AC,[200400,,0
  6068	036717	120 04 0 00 041027 			0,,0]
  6069						DFDV	AC,[200400,,0
  6070	036720	113 04 0 00 041027 			0,,0]
  6071	036721	312 04 0 00 040155 		CAME	AC,[201400,,0]
  6072	036722	003 04 0 00 070201 		ER3	AC,70201
  6073	036723	312 05 0 00 040156 		CAME	AC+1,[0,,0]
  6074	036724	004 05 0 00 070201 		ER4	AC+1,70201
  6075	036725	321 10 0 00 036717 		JUMPL	AC+4,S70200	;LOOP ON ERROR SWITCH^
  6076
  6077						DFD	703,201400,0,0,0,201400,0,0,0,201400,0,0,0^
  6078					S70300:	DMOVE	AC,[201400,,0
  6079	036726	120 04 0 00 040155 			0,,0]
  6080						DFDV	AC,[201400,,0
  6081	036727	113 04 0 00 040155 			0,,0]
  6082	036730	312 04 0 00 040155 		CAME	AC,[201400,,0]
  6083	036731	003 04 0 00 070301 		ER3	AC,70301
  6084	036732	312 05 0 00 040156 		CAME	AC+1,[0,,0]
  6085	036733	004 05 0 00 070301 		ER4	AC+1,70301
  6086	036734	321 10 0 00 036726 		JUMPL	AC+4,S70300	;LOOP ON ERROR SWITCH^
  6087
  6088						DFD	704,202400,0,0,0,202400,0,0,0,201400,0,0,0^
  6089					S70400:	DMOVE	AC,[202400,,0
  6090	036735	120 04 0 00 041042 			0,,0]
  6091						DFDV	AC,[202400,,0
  6092	036736	113 04 0 00 041042 			0,,0]
  6093	036737	312 04 0 00 040155 		CAME	AC,[201400,,0]
  6094	036740	003 04 0 00 070401 		ER3	AC,70401
  6095	036741	312 05 0 00 040156 		CAME	AC+1,[0,,0]
  6096	036742	004 05 0 00 070401 		ER4	AC+1,70401
  6097	036743	321 10 0 00 036735 		JUMPL	AC+4,S70400	;LOOP ON ERROR SWITCH^
  6098DBKCE	PDP-10 KI10 ADVANCED INSTRUCTION DIAGNOSTIC #5, VERSION 0,3 	MACRO %52(462) 13:32  9-AUG-76 PAGE 28-1
DBKCEM	MAC	28-MAY-76 11:21		DFDV TEST-DOUBLE FLOATING POINT DIVIDE                                             SEQ 0139

  6099						DFD	705,201400,0,0,0,200400,0,0,0,202400,0,0,0^
  6100					S70500:	DMOVE	AC,[201400,,0
  6101	036744	120 04 0 00 040155 			0,,0]
  6102						DFDV	AC,[200400,,0
  6103	036745	113 04 0 00 041027 			0,,0]
  6104	036746	312 04 0 00 041042 		CAME	AC,[202400,,0]
  6105	036747	003 04 0 00 070501 		ER3	AC,70501
  6106	036750	312 05 0 00 040156 		CAME	AC+1,[0,,0]
  6107	036751	004 05 0 00 070501 		ER4	AC+1,70501
  6108	036752	321 10 0 00 036744 		JUMPL	AC+4,S70500	;LOOP ON ERROR SWITCH^
  6109
  6110						DFD	706,202400,0,0,0,202400,0,0,0,201400,0,0,0^
  6111					S70600:	DMOVE	AC,[202400,,0
  6112	036753	120 04 0 00 041042 			0,,0]
  6113						DFDV	AC,[202400,,0
  6114	036754	113 04 0 00 041042 			0,,0]
  6115	036755	312 04 0 00 040155 		CAME	AC,[201400,,0]
  6116	036756	003 04 0 00 070601 		ER3	AC,70601
  6117	036757	312 05 0 00 040156 		CAME	AC+1,[0,,0]
  6118	036760	004 05 0 00 070601 		ER4	AC+1,70601
  6119	036761	321 10 0 00 036753 		JUMPL	AC+4,S70600	;LOOP ON ERROR SWITCH^
  6120
  6121						DFD	707,203400,0,0,0,200400,0,0,0,204400,0,0,0^
  6122					S70700:	DMOVE	AC,[203400,,0
  6123	036762	120 04 0 00 041326 			0,,0]
  6124						DFDV	AC,[200400,,0
  6125	036763	113 04 0 00 041027 			0,,0]
  6126	036764	312 04 0 00 041045 		CAME	AC,[204400,,0]
  6127	036765	003 04 0 00 070701 		ER3	AC,70701
  6128	036766	312 05 0 00 040156 		CAME	AC+1,[0,,0]
  6129	036767	004 05 0 00 070701 		ER4	AC+1,70701
  6130	036770	321 10 0 00 036762 		JUMPL	AC+4,S70700	;LOOP ON ERROR SWITCH^
  6131
  6132						DFD	710,200600,0,0,0,200400,0,0,0,201600,0,0,0^
  6133					S71000:	DMOVE	AC,[200600,,0
  6134	036771	120 04 0 00 040162 			0,,0]
  6135						DFDV	AC,[200400,,0
  6136	036772	113 04 0 00 041027 			0,,0]
  6137	036773	312 04 0 00 041041 		CAME	AC,[201600,,0]
  6138	036774	003 04 0 00 071001 		ER3	AC,71001
  6139	036775	312 05 0 00 040156 		CAME	AC+1,[0,,0]
  6140	036776	004 05 0 00 071001 		ER4	AC+1,71001
  6141	036777	321 10 0 00 036771 		JUMPL	AC+4,S71000	;LOOP ON ERROR SWITCH^
  6142
  6143						DFD	711,200700,0,0,0,200400,0,0,0,201700,0,0,0^
  6144					S71100:	DMOVE	AC,[200700,,0
  6145	037000	120 04 0 00 041037 			0,,0]
  6146						DFDV	AC,[200400,,0
  6147	037001	113 04 0 00 041027 			0,,0]
  6148	037002	312 04 0 00 041127 		CAME	AC,[201700,,0]
  6149	037003	003 04 0 00 071101 		ER3	AC,71101
  6150	037004	312 05 0 00 040156 		CAME	AC+1,[0,,0]
  6151	037005	004 05 0 00 071101 		ER4	AC+1,71101
  6152	037006	321 10 0 00 037000 		JUMPL	AC+4,S71100	;LOOP ON ERROR SWITCH^
  6153DBKCE	PDP-10 KI10 ADVANCED INSTRUCTION DIAGNOSTIC #5, VERSION 0,3 	MACRO %52(462) 13:32  9-AUG-76 PAGE 28-2
DBKCEM	MAC	28-MAY-76 11:21		DFDV TEST-DOUBLE FLOATING POINT DIVIDE                                             SEQ 0140

  6154						DFD	712,200740,0,0,0,200400,0,0,0,201740,0,0,0^
  6155					S71200:	DMOVE	AC,[200740,,0
  6156	037007	120 04 0 00 041723 			0,,0]
  6157						DFDV	AC,[200400,,0
  6158	037010	113 04 0 00 041027 			0,,0]
  6159	037011	312 04 0 00 041725 		CAME	AC,[201740,,0]
  6160	037012	003 04 0 00 071201 		ER3	AC,71201
  6161	037013	312 05 0 00 040156 		CAME	AC+1,[0,,0]
  6162	037014	004 05 0 00 071201 		ER4	AC+1,71201
  6163	037015	321 10 0 00 037007 		JUMPL	AC+4,S71200	;LOOP ON ERROR SWITCH^
  6164
  6165						DFD	713,200400,0,0,0,577400,0,0,0,576400,0,0,0^
  6166					S71300:	DMOVE	AC,[200400,,0
  6167	037016	120 04 0 00 041027 			0,,0]
  6168						DFDV	AC,[577400,,0
  6169	037017	113 04 0 00 040157 			0,,0]
  6170	037020	312 04 0 00 041062 		CAME	AC,[576400,,0]
  6171	037021	003 04 0 00 071301 		ER3	AC,71301
  6172	037022	312 05 0 00 040156 		CAME	AC+1,[0,,0]
  6173	037023	004 05 0 00 071301 		ER4	AC+1,71301
  6174	037024	321 10 0 00 037016 		JUMPL	AC+4,S71300	;LOOP ON ERROR SWITCH^
  6175
  6176						DFD	714,200600,0,0,0,577400,0,0,0,576200,0,0,0^
  6177					S71400:	DMOVE	AC,[200600,,0
  6178	037025	120 04 0 00 040162 			0,,0]
  6179						DFDV	AC,[577400,,0
  6180	037026	113 04 0 00 040157 			0,,0]
  6181	037027	312 04 0 00 041240 		CAME	AC,[576200,,0]
  6182	037030	003 04 0 00 071401 		ER3	AC,71401
  6183	037031	312 05 0 00 040156 		CAME	AC+1,[0,,0]
  6184	037032	004 05 0 00 071401 		ER4	AC+1,71401
  6185	037033	321 10 0 00 037025 		JUMPL	AC+4,S71400	;LOOP ON ERROR SWITCH^
  6186
  6187						DFD	715,177400,0,0,0,204400,0,0,0,174400,0,0,0^
  6188					S71500:	DMOVE	AC,[177400,,0
  6189	037034	120 04 0 00 041025 			0,,0]
  6190						DFDV	AC,[204400,,0
  6191	037035	113 04 0 00 041045 			0,,0]
  6192	037036	312 04 0 00 040175 		CAME	AC,[174400,,0]
  6193	037037	003 04 0 00 071501 		ER3	AC,71501
  6194	037040	312 05 0 00 040156 		CAME	AC+1,[0,,0]
  6195	037041	004 05 0 00 071501 		ER4	AC+1,71501
  6196	037042	321 10 0 00 037034 		JUMPL	AC+4,S71500	;LOOP ON ERROR SWITCH^
  6197
  6198						DFDKL	716,576400,0,0,0,200600,0,0,0,576252,525252,252525,252526,576252,525252,252
  6199					525,252525^
  6200					S71600:	DMOVE	AC,[576400,,0
  6201	037043	120 04 0 00 041134 			0,,0]
  6202						DFDV	AC,[200600,,0
  6203	037044	113 04 0 00 040162 			0,,0]
  6204	037045	332 00 0 00 030041 		SKIPE	KLFLG
  6205	037046	254 00 0 00 037055 		JRST	S71605
  6206	037047	312 04 0 00 041726 		CAME	AC,[576252,,525252]
  6207	037050	003 04 0 00 071601 		ER3	AC,71601
  6208	037051	312 05 0 00 041727 		CAME	AC+1,[252525,,252526]DBKCE	PDP-10 KI10 ADVANCED INSTRUCTION DIAGNOSTIC #5, VERSION 0,3 	MACRO %52(462) 13:32  9-AUG-76 PAGE 28-3
DBKCEM	MAC	28-MAY-76 11:21		DFDV TEST-DOUBLE FLOATING POINT DIVIDE                                             SEQ 0141

  6209	037052	004 05 0 00 071601 		ER4	AC+1,71601
  6210	037053	321 10 0 00 037043 	S71606:	JUMPL	AC+4,S71600		;LOOP ON ERROR SWITCH
  6211	037054	254 00 0 00 037062 		JRST	S71607
  6212
  6213	037055	312 04 0 00 041726 	S71605:	CAME	AC,[576252,,525252]
  6214	037056	003 04 0 00 071601 		ER3	AC,71601
  6215	037057	312 05 0 00 041730 		CAME	AC+1,[252525,,252525]
  6216	037060	004 05 0 00 071601 		ER4	AC+1,71601
  6217	037061	254 00 0 00 037053 		JRST	S71606
  6218
  6219	037062	254 00 0 00 037063 	S71607:	JRST	.+1	^
  6220
  6221						DFD	717,600600,0,0,0,577400,0,0,0,177400,0,0,0^
  6222					S71700:	DMOVE	AC,[600600,,0
  6223	037063	120 04 0 00 041731 			0,,0]
  6224						DFDV	AC,[577400,,0
  6225	037064	113 04 0 00 040157 			0,,0]
  6226	037065	312 04 0 00 040164 		CAME	AC,[177400,,0]
  6227	037066	003 04 0 00 071701 		ER3	AC,71701
  6228	037067	312 05 0 00 040156 		CAME	AC+1,[0,,0]
  6229	037070	004 05 0 00 071701 		ER4	AC+1,71701
  6230	037071	321 10 0 00 037063 		JUMPL	AC+4,S71700	;LOOP ON ERROR SWITCH^
  6231
  6232						DFD	720,600400,0,0,0,577400,0,0,0,200400,0,0,0^
  6233					S72000:	DMOVE	AC,[600400,,0
  6234	037072	120 04 0 00 041023 			0,,0]
  6235						DFDV	AC,[577400,,0
  6236	037073	113 04 0 00 040157 			0,,0]
  6237	037074	312 04 0 00 040161 		CAME	AC,[200400,,0]
  6238	037075	003 04 0 00 072001 		ER3	AC,72001
  6239	037076	312 05 0 00 040156 		CAME	AC+1,[0,,0]
  6240	037077	004 05 0 00 072001 		ER4	AC+1,72001
  6241	037100	321 10 0 00 037072 		JUMPL	AC+4,S72000	;LOOP ON ERROR SWITCH^
  6242
  6243						DFDKL	721,377400,-1,0,0,577400,-1,0,0,777375,773771,373773,776005,777375,773771,3
  6244					73773,776004^
  6245					S72100:	DMOVE	AC,[377400,,-1
  6246	037101	120 04 0 00 041733 			0,,0]
  6247						DFDV	AC,[577400,,-1
  6248	037102	113 04 0 00 041735 			0,,0]
  6249	037103	332 00 0 00 030041 		SKIPE	KLFLG
  6250	037104	254 00 0 00 037113 		JRST	S72105
  6251	037105	312 04 0 00 041737 		CAME	AC,[777375,,773771]
  6252	037106	003 04 0 00 072101 		ER3	AC,72101
  6253	037107	312 05 0 00 041740 		CAME	AC+1,[373773,,776005]
  6254	037110	004 05 0 00 072101 		ER4	AC+1,72101
  6255	037111	321 10 0 00 037101 	S72106:	JUMPL	AC+4,S72100		;LOOP ON ERROR SWITCH
  6256	037112	254 00 0 00 037120 		JRST	S72107
  6257
  6258	037113	312 04 0 00 041737 	S72105:	CAME	AC,[777375,,773771]
  6259	037114	003 04 0 00 072101 		ER3	AC,72101
  6260	037115	312 05 0 00 041741 		CAME	AC+1,[373773,,776004]
  6261	037116	004 05 0 00 072101 		ER4	AC+1,72101
  6262	037117	254 00 0 00 037111 		JRST	S72106
  6263DBKCE	PDP-10 KI10 ADVANCED INSTRUCTION DIAGNOSTIC #5, VERSION 0,3 	MACRO %52(462) 13:32  9-AUG-76 PAGE 28-4
DBKCEM	MAC	28-MAY-76 11:21		DFDV TEST-DOUBLE FLOATING POINT DIVIDE                                             SEQ 0142

  6264	037120	254 00 0 00 037121 	S72107:	JRST	.+1	^
  6265
  6266						DFD	722,201400,0,0,0,0,0,0,0,201400,0,0,0^
  6267					S72200:	DMOVE	AC,[201400,,0
  6268	037121	120 04 0 00 040155 			0,,0]
  6269						DFDV	AC,[0,,0
  6270	037122	113 04 0 00 040453 			0,,0]
  6271	037123	312 04 0 00 040155 		CAME	AC,[201400,,0]
  6272	037124	003 04 0 00 072201 		ER3	AC,72201
  6273	037125	312 05 0 00 040156 		CAME	AC+1,[0,,0]
  6274	037126	004 05 0 00 072201 		ER4	AC+1,72201
  6275	037127	321 10 0 00 037121 		JUMPL	AC+4,S72200	;LOOP ON ERROR SWITCH^
  6276
  6277						DFD	723,377400,0,0,0,400,0,0,0,200400,0,0,0^
  6278					S72300:	DMOVE	AC,[377400,,0
  6279	037130	120 04 0 00 041124 			0,,0]
  6280						DFDV	AC,[400,,0
  6281	037131	113 04 0 00 041014 			0,,0]
  6282	037132	312 04 0 00 040161 		CAME	AC,[200400,,0]
  6283	037133	003 04 0 00 072301 		ER3	AC,72301
  6284	037134	312 05 0 00 040156 		CAME	AC+1,[0,,0]
  6285	037135	004 05 0 00 072301 		ER4	AC+1,72301
  6286	037136	321 10 0 00 037130 		JUMPL	AC+4,S72300	;LOOP ON ERROR SWITCH^
  6287
  6288						DFD	724,577775,0,0,0,577777,0,0,0,577775,0,0,0^
  6289					S72400:	DMOVE	AC,[577775,,0
  6290	037137	120 04 0 00 041742 			0,,0]
  6291						DFDV	AC,[577777,,0
  6292	037140	113 04 0 00 041744 			0,,0]
  6293	037141	312 04 0 00 041742 		CAME	AC,[577775,,0]
  6294	037142	003 04 0 00 072401 		ER3	AC,72401
  6295	037143	312 05 0 00 040156 		CAME	AC+1,[0,,0]
  6296	037144	004 05 0 00 072401 		ER4	AC+1,72401
  6297	037145	321 10 0 00 037137 		JUMPL	AC+4,S72400	;LOOP ON ERROR SWITCH^
  6298
  6299						DFD	725,577774,0,0,0,577777,0,0,0,577774,0,0,0^
  6300					S72500:	DMOVE	AC,[577774,,0
  6301	037146	120 04 0 00 041746 			0,,0]
  6302						DFDV	AC,[577777,,0
  6303	037147	113 04 0 00 041744 			0,,0]
  6304	037150	312 04 0 00 041746 		CAME	AC,[577774,,0]
  6305	037151	003 04 0 00 072501 		ER3	AC,72501
  6306	037152	312 05 0 00 040156 		CAME	AC+1,[0,,0]
  6307	037153	004 05 0 00 072501 		ER4	AC+1,72501
  6308	037154	321 10 0 00 037146 		JUMPL	AC+4,S72500	;LOOP ON ERROR SWITCH^DBKCE	PDP-10 KI10 ADVANCED INSTRUCTION DIAGNOSTIC #5, VERSION 0,3 	MACRO %52(462) 13:32  9-AUG-76 PAGE 29
DBKCEM	MAC	28-MAY-76 11:21		DFDV TEST-DOUBLE FLOATING POINT DIVIDE                                             SEQ 0143

  6309
  6310						DFDKL	726,210777,-1,0,0,170750,0,0,0,221414,456123,150726,20622,221414,456123,150
  6311					726,20623^
  6312					S72600:	DMOVE	AC,[210777,,-1
  6313	037155	120 04 0 00 041750 			0,,0]
  6314						DFDV	AC,[170750,,0
  6315	037156	113 04 0 00 041752 			0,,0]
  6316	037157	332 00 0 00 030041 		SKIPE	KLFLG
  6317	037160	254 00 0 00 037167 		JRST	S72605
  6318	037161	312 04 0 00 041754 		CAME	AC,[221414,,456123]
  6319	037162	003 04 0 00 072601 		ER3	AC,72601
  6320	037163	312 05 0 00 041755 		CAME	AC+1,[150726,,20622]
  6321	037164	004 05 0 00 072601 		ER4	AC+1,72601
  6322	037165	321 10 0 00 037155 	S72606:	JUMPL	AC+4,S72600		;LOOP ON ERROR SWITCH
  6323	037166	254 00 0 00 037174 		JRST	S72607
  6324
  6325	037167	312 04 0 00 041754 	S72605:	CAME	AC,[221414,,456123]
  6326	037170	003 04 0 00 072601 		ER3	AC,72601
  6327	037171	312 05 0 00 041756 		CAME	AC+1,[150726,,20623]
  6328	037172	004 05 0 00 072601 		ER4	AC+1,72601
  6329	037173	254 00 0 00 037165 		JRST	S72606
  6330
  6331	037174	254 00 0 00 037175 	S72607:	JRST	.+1	^
  6332
  6333						DFD	727,210777,-1,0,0,170555,0,0,0,221547,63714,314631,463146^
  6334					S72700:	DMOVE	AC,[210777,,-1
  6335	037175	120 04 0 00 041750 			0,,0]
  6336						DFDV	AC,[170555,,0
  6337	037176	113 04 0 00 041757 			0,,0]
  6338	037177	312 04 0 00 041761 		CAME	AC,[221547,,63714]
  6339	037200	003 04 0 00 072701 		ER3	AC,72701
  6340	037201	312 05 0 00 041762 		CAME	AC+1,[314631,,463146]
  6341	037202	004 05 0 00 072701 		ER4	AC+1,72701
  6342	037203	321 10 0 00 037175 		JUMPL	AC+4,S72700	;LOOP ON ERROR SWITCH^
  6343
  6344						DFD	730,577000,555555,0,0,200400,0,0,0,576000,555555,0,0^
  6345					S73000:	DMOVE	AC,[577000,,555555
  6346	037204	120 04 0 00 041763 			0,,0]
  6347						DFDV	AC,[200400,,0
  6348	037205	113 04 0 00 041027 			0,,0]
  6349	037206	312 04 0 00 041765 		CAME	AC,[576000,,555555]
  6350	037207	003 04 0 00 073001 		ER3	AC,73001
  6351	037210	312 05 0 00 040156 		CAME	AC+1,[0,,0]
  6352	037211	004 05 0 00 073001 		ER4	AC+1,73001
  6353	037212	321 10 0 00 037204 		JUMPL	AC+4,S73000	;LOOP ON ERROR SWITCH^
  6354
  6355						DFD	731,210777,-1,-1,-1,170555,0,0,0,221547,63715,200263,431746^
  6356					S73100:	DMOVE	AC,[210777,,-1
  6357	037213	120 04 0 00 041766 			-1,,-1]
  6358						DFDV	AC,[170555,,0
  6359	037214	113 04 0 00 041757 			0,,0]
  6360	037215	312 04 0 00 041770 		CAME	AC,[221547,,63715]
  6361	037216	003 04 0 00 073101 		ER3	AC,73101
  6362	037217	312 05 0 00 041771 		CAME	AC+1,[200263,,431746]
  6363	037220	004 05 0 00 073101 		ER4	AC+1,73101DBKCE	PDP-10 KI10 ADVANCED INSTRUCTION DIAGNOSTIC #5, VERSION 0,3 	MACRO %52(462) 13:32  9-AUG-76 PAGE 29-1
DBKCEM	MAC	28-MAY-76 11:21		DFDV TEST-DOUBLE FLOATING POINT DIVIDE                                             SEQ 0144

  6364	037221	321 10 0 00 037213 		JUMPL	AC+4,S73100	;LOOP ON ERROR SWITCH^
  6365
  6366						DFDKL	732,210777,-3,0,0,170555,0,0,0,221547,63713,145545,545545,221547,63713,1455
  6367					45,545546^
  6368					S73200:	DMOVE	AC,[210777,,-3
  6369	037222	120 04 0 00 041772 			0,,0]
  6370						DFDV	AC,[170555,,0
  6371	037223	113 04 0 00 041757 			0,,0]
  6372	037224	332 00 0 00 030041 		SKIPE	KLFLG
  6373	037225	254 00 0 00 037234 		JRST	S73205
  6374	037226	312 04 0 00 041774 		CAME	AC,[221547,,63713]
  6375	037227	003 04 0 00 073201 		ER3	AC,73201
  6376	037230	312 05 0 00 041775 		CAME	AC+1,[145545,,545545]
  6377	037231	004 05 0 00 073201 		ER4	AC+1,73201
  6378	037232	321 10 0 00 037222 	S73206:	JUMPL	AC+4,S73200		;LOOP ON ERROR SWITCH
  6379	037233	254 00 0 00 037241 		JRST	S73207
  6380
  6381	037234	312 04 0 00 041774 	S73205:	CAME	AC,[221547,,63713]
  6382	037235	003 04 0 00 073201 		ER3	AC,73201
  6383	037236	312 05 0 00 041776 		CAME	AC+1,[145545,,545546]
  6384	037237	004 05 0 00 073201 		ER4	AC+1,73201
  6385	037240	254 00 0 00 037232 		JRST	S73206
  6386
  6387	037241	254 00 0 00 037242 	S73207:	JRST	.+1	^
  6388
  6389						DFD	733,377400,0,555000,0,100777,0,0,0,77400,400400,355355,355355^
  6390					S73300:	DMOVE	AC,[377400,,0
  6391	037242	120 04 0 00 041777 			555000,,0]
  6392						DFDV	AC,[100777,,0
  6393	037243	113 04 0 00 042001 			0,,0]
  6394	037244	312 04 0 00 042003 		CAME	AC,[77400,,400400]
  6395	037245	003 04 0 00 073301 		ER3	AC,73301
  6396	037246	312 05 0 00 042004 		CAME	AC+1,[355355,,355355]
  6397	037247	004 05 0 00 073301 		ER4	AC+1,73301
  6398	037250	321 10 0 00 037242 		JUMPL	AC+4,S73300	;LOOP ON ERROR SWITCH^
  6399
  6400						DFDKL	734,373400,0,200777,0,100777,0,0,0,73400,400401,1400,400400,73400,400401,14
  6401					00,400401^
  6402					S73400:	DMOVE	AC,[373400,,0
  6403	037251	120 04 0 00 042005 			200777,,0]
  6404						DFDV	AC,[100777,,0
  6405	037252	113 04 0 00 042001 			0,,0]
  6406	037253	332 00 0 00 030041 		SKIPE	KLFLG
  6407	037254	254 00 0 00 037263 		JRST	S73405
  6408	037255	312 04 0 00 042007 		CAME	AC,[73400,,400401]
  6409	037256	003 04 0 00 073401 		ER3	AC,73401
  6410	037257	312 05 0 00 042010 		CAME	AC+1,[1400,,400400]
  6411	037260	004 05 0 00 073401 		ER4	AC+1,73401
  6412	037261	321 10 0 00 037251 	S73406:	JUMPL	AC+4,S73400		;LOOP ON ERROR SWITCH
  6413	037262	254 00 0 00 037270 		JRST	S73407
  6414
  6415	037263	312 04 0 00 042007 	S73405:	CAME	AC,[73400,,400401]
  6416	037264	003 04 0 00 073401 		ER3	AC,73401
  6417	037265	312 05 0 00 042011 		CAME	AC+1,[1400,,400401]
  6418	037266	004 05 0 00 073401 		ER4	AC+1,73401DBKCE	PDP-10 KI10 ADVANCED INSTRUCTION DIAGNOSTIC #5, VERSION 0,3 	MACRO %52(462) 13:32  9-AUG-76 PAGE 29-2
DBKCEM	MAC	28-MAY-76 11:21		DFDV TEST-DOUBLE FLOATING POINT DIVIDE                                             SEQ 0145

  6419	037267	254 00 0 00 037261 		JRST	S73406
  6420
  6421	037270	254 00 0 00 037271 	S73407:	JRST	.+1	^
  6422
  6423						DFD	735,200777,-1,0,0,200777,-2,0,0,201400,0,200000,400^
  6424					S73500:	DMOVE	AC,[200777,,-1
  6425	037271	120 04 0 00 041324 			0,,0]
  6426						DFDV	AC,[200777,,-2
  6427	037272	113 04 0 00 041536 			0,,0]
  6428	037273	312 04 0 00 040155 		CAME	AC,[201400,,0]
  6429	037274	003 04 0 00 073501 		ER3	AC,73501
  6430	037275	312 05 0 00 041265 		CAME	AC+1,[200000,,400]
  6431	037276	004 05 0 00 073501 		ER4	AC+1,73501
  6432	037277	321 10 0 00 037271 		JUMPL	AC+4,S73500	;LOOP ON ERROR SWITCH^
  6433
  6434						DFD	736,200777,-1,0,0,200777,-4,0,0,201400,1,200000,3000^
  6435					S73600:	DMOVE	AC,[200777,,-1
  6436	037300	120 04 0 00 041324 			0,,0]
  6437						DFDV	AC,[200777,,-4
  6438	037301	113 04 0 00 041544 			0,,0]
  6439	037302	312 04 0 00 042012 		CAME	AC,[201400,,1]
  6440	037303	003 04 0 00 073601 		ER3	AC,73601
  6441	037304	312 05 0 00 042013 		CAME	AC+1,[200000,,3000]
  6442	037305	004 05 0 00 073601 		ER4	AC+1,73601
  6443	037306	321 10 0 00 037300 		JUMPL	AC+4,S73600	;LOOP ON ERROR SWITCH^
  6444
  6445						DFD	737,210777,-1,0,0,170555,0,0,0,221547,63714,314631,463146^
  6446					S73700:	DMOVE	AC,[210777,,-1
  6447	037307	120 04 0 00 041750 			0,,0]
  6448						DFDV	AC,[170555,,0
  6449	037310	113 04 0 00 041757 			0,,0]
  6450	037311	312 04 0 00 041761 		CAME	AC,[221547,,63714]
  6451	037312	003 04 0 00 073701 		ER3	AC,73701
  6452	037313	312 05 0 00 041762 		CAME	AC+1,[314631,,463146]
  6453	037314	004 05 0 00 073701 		ER4	AC+1,73701
  6454	037315	321 10 0 00 037307 		JUMPL	AC+4,S73700	;LOOP ON ERROR SWITCH^
  6455
  6456						DFDKL	741,210777,-1,0,0,170555,600000,0,0,221546,272702,301417,730633,221546,2727
  6457					02,301417,730634^
  6458					S74100:	DMOVE	AC,[210777,,-1
  6459	037316	120 04 0 00 041750 			0,,0]
  6460						DFDV	AC,[170555,,600000
  6461	037317	113 04 0 00 042014 			0,,0]
  6462	037320	332 00 0 00 030041 		SKIPE	KLFLG
  6463	037321	254 00 0 00 037330 		JRST	S74105
  6464	037322	312 04 0 00 042016 		CAME	AC,[221546,,272702]
  6465	037323	003 04 0 00 074101 		ER3	AC,74101
  6466	037324	312 05 0 00 042017 		CAME	AC+1,[301417,,730633]
  6467	037325	004 05 0 00 074101 		ER4	AC+1,74101
  6468	037326	321 10 0 00 037316 	S74106:	JUMPL	AC+4,S74100		;LOOP ON ERROR SWITCH
  6469	037327	254 00 0 00 037335 		JRST	S74107
  6470
  6471	037330	312 04 0 00 042016 	S74105:	CAME	AC,[221546,,272702]
  6472	037331	003 04 0 00 074101 		ER3	AC,74101
  6473	037332	312 05 0 00 042020 		CAME	AC+1,[301417,,730634]DBKCE	PDP-10 KI10 ADVANCED INSTRUCTION DIAGNOSTIC #5, VERSION 0,3 	MACRO %52(462) 13:32  9-AUG-76 PAGE 29-3
DBKCEM	MAC	28-MAY-76 11:21		DFDV TEST-DOUBLE FLOATING POINT DIVIDE                                             SEQ 0146

  6474	037333	004 05 0 00 074101 		ER4	AC+1,74101
  6475	037334	254 00 0 00 037326 		JRST	S74106
  6476
  6477	037335	254 00 0 00 037336 	S74107:	JRST	.+1	^
  6478
  6479						DFDKL	742,210777,-1,0,0,170557,0,0,0,221545,111740,234200,262444,221545,111740,23
  6480					4200,262445^
  6481					S74200:	DMOVE	AC,[210777,,-1
  6482	037336	120 04 0 00 041750 			0,,0]
  6483						DFDV	AC,[170557,,0
  6484	037337	113 04 0 00 042021 			0,,0]
  6485	037340	332 00 0 00 030041 		SKIPE	KLFLG
  6486	037341	254 00 0 00 037350 		JRST	S74205
  6487	037342	312 04 0 00 042023 		CAME	AC,[221545,,111740]
  6488	037343	003 04 0 00 074201 		ER3	AC,74201
  6489	037344	312 05 0 00 042024 		CAME	AC+1,[234200,,262444]
  6490	037345	004 05 0 00 074201 		ER4	AC+1,74201
  6491	037346	321 10 0 00 037336 	S74206:	JUMPL	AC+4,S74200		;LOOP ON ERROR SWITCH
  6492	037347	254 00 0 00 037355 		JRST	S74207
  6493
  6494	037350	312 04 0 00 042023 	S74205:	CAME	AC,[221545,,111740]
  6495	037351	003 04 0 00 074201 		ER3	AC,74201
  6496	037352	312 05 0 00 042025 		CAME	AC+1,[234200,,262445]
  6497	037353	004 05 0 00 074201 		ER4	AC+1,74201
  6498	037354	254 00 0 00 037346 		JRST	S74206
  6499
  6500	037355	254 00 0 00 037356 	S74207:	JRST	.+1	^
  6501
  6502						DFD	743,210777,-1,0,0,170560,0,0,0,221544,131025,220544,131026^
  6503					S74300:	DMOVE	AC,[210777,,-1
  6504	037356	120 04 0 00 041750 			0,,0]
  6505						DFDV	AC,[170560,,0
  6506	037357	113 04 0 00 042026 			0,,0]
  6507	037360	312 04 0 00 042030 		CAME	AC,[221544,,131025]
  6508	037361	003 04 0 00 074301 		ER3	AC,74301
  6509	037362	312 05 0 00 042031 		CAME	AC+1,[220544,,131026]
  6510	037363	004 05 0 00 074301 		ER4	AC+1,74301
  6511	037364	321 10 0 00 037356 		JUMPL	AC+4,S74300	;LOOP ON ERROR SWITCH^
  6512
  6513						DFD	744,377400,0,0,0,100777,0,0,0,77400,400400,200200,200200^
  6514					S74400:	DMOVE	AC,[377400,,0
  6515	037365	120 04 0 00 041124 			0,,0]
  6516						DFDV	AC,[100777,,0
  6517	037366	113 04 0 00 042001 			0,,0]
  6518	037367	312 04 0 00 042003 		CAME	AC,[77400,,400400]
  6519	037370	003 04 0 00 074401 		ER3	AC,74401
  6520	037371	312 05 0 00 042032 		CAME	AC+1,[200200,,200200]
  6521	037372	004 05 0 00 074401 		ER4	AC+1,74401
  6522	037373	321 10 0 00 037365 		JUMPL	AC+4,S74400	;LOOP ON ERROR SWITCH^
  6523
  6524						DFD	745,376400,0,0,0,100777,0,0,0,76400,400400,200200,200200^
  6525					S74500:	DMOVE	AC,[376400,,0
  6526	037374	120 04 0 00 042033 			0,,0]
  6527						DFDV	AC,[100777,,0
  6528	037375	113 04 0 00 042001 			0,,0]DBKCE	PDP-10 KI10 ADVANCED INSTRUCTION DIAGNOSTIC #5, VERSION 0,3 	MACRO %52(462) 13:32  9-AUG-76 PAGE 29-4
DBKCEM	MAC	28-MAY-76 11:21		DFDV TEST-DOUBLE FLOATING POINT DIVIDE                                             SEQ 0147

  6529	037376	312 04 0 00 042035 		CAME	AC,[76400,,400400]
  6530	037377	003 04 0 00 074501 		ER3	AC,74501
  6531	037400	312 05 0 00 042032 		CAME	AC+1,[200200,,200200]
  6532	037401	004 05 0 00 074501 		ER4	AC+1,74501
  6533	037402	321 10 0 00 037374 		JUMPL	AC+4,S74500	;LOOP ON ERROR SWITCH^
  6534
  6535						DFD	746,375400,0,0,0,100777,0,0,0,75400,400400,200200,200200^
  6536					S74600:	DMOVE	AC,[375400,,0
  6537	037403	120 04 0 00 042036 			0,,0]
  6538						DFDV	AC,[100777,,0
  6539	037404	113 04 0 00 042001 			0,,0]
  6540	037405	312 04 0 00 042040 		CAME	AC,[75400,,400400]
  6541	037406	003 04 0 00 074601 		ER3	AC,74601
  6542	037407	312 05 0 00 042032 		CAME	AC+1,[200200,,200200]
  6543	037410	004 05 0 00 074601 		ER4	AC+1,74601
  6544	037411	321 10 0 00 037403 		JUMPL	AC+4,S74600	;LOOP ON ERROR SWITCH^
  6545
  6546						DFD	747,374400,0,0,0,100777,0,0,0,74400,400400,200200,200200^
  6547					S74700:	DMOVE	AC,[374400,,0
  6548	037412	120 04 0 00 042041 			0,,0]
  6549						DFDV	AC,[100777,,0
  6550	037413	113 04 0 00 042001 			0,,0]
  6551	037414	312 04 0 00 042043 		CAME	AC,[74400,,400400]
  6552	037415	003 04 0 00 074701 		ER3	AC,74701
  6553	037416	312 05 0 00 042032 		CAME	AC+1,[200200,,200200]
  6554	037417	004 05 0 00 074701 		ER4	AC+1,74701
  6555	037420	321 10 0 00 037412 		JUMPL	AC+4,S74700	;LOOP ON ERROR SWITCH^
  6556
  6557						DFD	750,373400,0,0,0,100777,0,0,0,73400,400400,200200,200200^
  6558					S75000:	DMOVE	AC,[373400,,0
  6559	037421	120 04 0 00 042044 			0,,0]
  6560						DFDV	AC,[100777,,0
  6561	037422	113 04 0 00 042001 			0,,0]
  6562	037423	312 04 0 00 042046 		CAME	AC,[73400,,400400]
  6563	037424	003 04 0 00 075001 		ER3	AC,75001
  6564	037425	312 05 0 00 042032 		CAME	AC+1,[200200,,200200]
  6565	037426	004 05 0 00 075001 		ER4	AC+1,75001
  6566	037427	321 10 0 00 037421 		JUMPL	AC+4,S75000	;LOOP ON ERROR SWITCH^
  6567
  6568						DFD	751,372400,0,0,0,100777,0,0,0,72400,400400,200200,200200^
  6569					S75100:	DMOVE	AC,[372400,,0
  6570	037430	120 04 0 00 042047 			0,,0]
  6571						DFDV	AC,[100777,,0
  6572	037431	113 04 0 00 042001 			0,,0]
  6573	037432	312 04 0 00 042051 		CAME	AC,[72400,,400400]
  6574	037433	003 04 0 00 075101 		ER3	AC,75101
  6575	037434	312 05 0 00 042032 		CAME	AC+1,[200200,,200200]
  6576	037435	004 05 0 00 075101 		ER4	AC+1,75101
  6577	037436	321 10 0 00 037430 		JUMPL	AC+4,S75100	;LOOP ON ERROR SWITCH^
  6578
  6579						DFD	752,210777,0,0,0,210777,0,0,0,201400,0,0,0^
  6580					S75200:	DMOVE	AC,[210777,,0
  6581	037437	120 04 0 00 042052 			0,,0]
  6582						DFDV	AC,[210777,,0
  6583	037440	113 04 0 00 042052 			0,,0]DBKCE	PDP-10 KI10 ADVANCED INSTRUCTION DIAGNOSTIC #5, VERSION 0,3 	MACRO %52(462) 13:32  9-AUG-76 PAGE 29-5
DBKCEM	MAC	28-MAY-76 11:21		DFDV TEST-DOUBLE FLOATING POINT DIVIDE                                             SEQ 0148

  6584	037441	312 04 0 00 040155 		CAME	AC,[201400,,0]
  6585	037442	003 04 0 00 075201 		ER3	AC,75201
  6586	037443	312 05 0 00 040156 		CAME	AC+1,[0,,0]
  6587	037444	004 05 0 00 075201 		ER4	AC+1,75201
  6588	037445	321 10 0 00 037437 		JUMPL	AC+4,S75200	;LOOP ON ERROR SWITCH^
  6589
  6590						DFD	753,200400,0,0,0,210777,0,0,0,170400,400400,200200,200200^
  6591					S75300:	DMOVE	AC,[200400,,0
  6592	037446	120 04 0 00 041027 			0,,0]
  6593						DFDV	AC,[210777,,0
  6594	037447	113 04 0 00 042052 			0,,0]
  6595	037450	312 04 0 00 042054 		CAME	AC,[170400,,400400]
  6596	037451	003 04 0 00 075301 		ER3	AC,75301
  6597	037452	312 05 0 00 042032 		CAME	AC+1,[200200,,200200]
  6598	037453	004 05 0 00 075301 		ER4	AC+1,75301
  6599	037454	321 10 0 00 037446 		JUMPL	AC+4,S75300	;LOOP ON ERROR SWITCH^
  6600
  6601						DFD	754,371400,0,0,0,100777,0,0,0,71400,400400,200200,200200^
  6602					S75400:	DMOVE	AC,[371400,,0
  6603	037455	120 04 0 00 042055 			0,,0]
  6604						DFDV	AC,[100777,,0
  6605	037456	113 04 0 00 042001 			0,,0]
  6606	037457	312 04 0 00 042057 		CAME	AC,[71400,,400400]
  6607	037460	003 04 0 00 075401 		ER3	AC,75401
  6608	037461	312 05 0 00 042032 		CAME	AC+1,[200200,,200200]
  6609	037462	004 05 0 00 075401 		ER4	AC+1,75401
  6610	037463	321 10 0 00 037455 		JUMPL	AC+4,S75400	;LOOP ON ERROR SWITCH^
  6611
  6612						DFD	755,370400,0,0,0,100777,0,0,0,070400,400400,200200,200200^
  6613					S75500:	DMOVE	AC,[370400,,0
  6614	037464	120 04 0 00 042060 			0,,0]
  6615						DFDV	AC,[100777,,0
  6616	037465	113 04 0 00 042001 			0,,0]
  6617	037466	312 04 0 00 042062 		CAME	AC,[070400,,400400]
  6618	037467	003 04 0 00 075501 		ER3	AC,75501
  6619	037470	312 05 0 00 042032 		CAME	AC+1,[200200,,200200]
  6620	037471	004 05 0 00 075501 		ER4	AC+1,75501
  6621	037472	321 10 0 00 037464 		JUMPL	AC+4,S75500	;LOOP ON ERROR SWITCH^
  6622
  6623						DFD	756,367400,0,0,0,100777,0,0,0,67400,400400,200200,200200^
  6624					S75600:	DMOVE	AC,[367400,,0
  6625	037473	120 04 0 00 042063 			0,,0]
  6626						DFDV	AC,[100777,,0
  6627	037474	113 04 0 00 042001 			0,,0]
  6628	037475	312 04 0 00 042065 		CAME	AC,[67400,,400400]
  6629	037476	003 04 0 00 075601 		ER3	AC,75601
  6630	037477	312 05 0 00 042032 		CAME	AC+1,[200200,,200200]
  6631	037500	004 05 0 00 075601 		ER4	AC+1,75601
  6632	037501	321 10 0 00 037473 		JUMPL	AC+4,S75600	;LOOP ON ERROR SWITCH^DBKCE	PDP-10 KI10 ADVANCED INSTRUCTION DIAGNOSTIC #5, VERSION 0,3 	MACRO %52(462) 13:32  9-AUG-76 PAGE 30
DBKCEM	MAC	28-MAY-76 11:21		DFDV TEST-DOUBLE FLOATING POINT DIVIDE                                             SEQ 0149

  6633					;TEST AROV, FOV AND FXU FLAGS-DFDV
  6634
  6635			000004			AC=4
  6636						SAVEAC	(1,1)^
  6637	037502	201 10 0 00 037502 		MOVEI	AC+4,.
  6638	037503	202 10 0 00 030051 		MOVEM	AC+4,TESTPC	;SETUP SUBTEST PC
  6639	037504	201 10 0 00 000010 		MOVEI	AC+4,<AC+4>&17	;INFORM ERROR ROUTINE WHICH
  6640	037505	202 10 0 00 042257 		MOVEM	AC+4,ERRLOP#	;AC IS USED FOR ITERATION^
  6641
  6642	037506	254 02 1 00 042066 	S75700:	JRSTF	@[.+1]		;CLEAR ALL FLAGS
  6643						DMOVE	AC,[376777,,-1
  6644	037507	120 04 0 00 042067 				-1,,-1]
  6645						DFDV	AC,[200400,,0
  6646	037510	113 04 0 00 041027 				0,,0]	;EXPECT AROV,FOV,FXU=0,0,0
  6647	037511	265 03 0 00 037512 		JSP	AC-1,.+1	;SAVE FLAGS
  6648	037512	312 04 0 00 040455 		CAME	AC,[377777,,-1]
  6649	037513	003 04 0 00 075701 		ER3	AC,75701	;C(AC) FAILED
  6650	037514	312 05 0 00 040455 		CAME	AC+1,[377777,,-1]
  6651	037515	004 05 0 00 075701 		ER4	AC+1,75701	;C(AC+1)FAILED
  6652	037516	255 10 0 00 037520 		JOV	.+2
  6653	037517	254 00 0 00 037521 		JRST	.+2
  6654	037520	013 03 0 00 075701 		ER13	AC-1,75701	;AROV WAS SET
  6655	037521	255 01 0 00 037523 		JFOV	.+2
  6656	037522	254 00 0 00 037524 		JRST	.+2
  6657	037523	013 03 0 00 075701 		ER13	AC-1,75701	;FOV WAS SET
  6658	037524	603 03 0 00 000100 		TLNE	AC-1,FXU
  6659	037525	013 03 0 00 075701 		ER13	AC-1,75701	;FXU WAS SET
  6660	037526	321 10 0 00 037506 		JUMPL	AC+4,S75700	;LOOP ON ERROR SWITCH
  6661
  6662	037527	254 02 1 00 042071 	S76000:	JRSTF	@[.+1]		;CLEAR ALL FLAGS
  6663						DMOVE	AC,[377400,,0
  6664	037530	120 04 0 00 041124 				0,,0]
  6665						DFDV	AC,[200400,,0
  6666	037531	113 04 0 00 041027 				0,,0]	;EXPECT AROV,FOV,FXU=1,1,0
  6667	037532	265 03 0 00 037533 		JSP	AC-1,.+1	;SAVE FLAGS
  6668	037533	312 04 0 00 040331 		CAME	AC,[400,,0]
  6669	037534	003 04 0 00 076001 		ER3	AC,76001	;C(AC) FAILED
  6670	037535	312 05 0 00 040156 		CAME	AC+1,[0,,0]
  6671	037536	004 05 0 00 076001 		ER4	AC+1,76001	;C(AC+1) FAILED
  6672	037537	255 10 0 00 037541 		JOV	.+2
  6673	037540	013 03 0 00 076001 		ER13	AC-1,76001	;AROV WAS CLEAR
  6674	037541	255 01 0 00 037543 		JFOV	.+2
  6675	037542	013 03 0 00 076001 		ER13	AC-1,76001	;FOV WAS CLEAR
  6676	037543	603 03 0 00 000100 		TLNE	AC-1,FXU
  6677	037544	013 03 0 00 076001 		ER13	AC-1,76001	;FXU WAS SET
  6678	037545	321 10 0 00 037527 		JUMPL	AC+4,S76000	;LOOP ON ERROR SWITCHDBKCE	PDP-10 KI10 ADVANCED INSTRUCTION DIAGNOSTIC #5, VERSION 0,3 	MACRO %52(462) 13:32  9-AUG-76 PAGE 31
DBKCEM	MAC	28-MAY-76 11:21		DFDV TEST-DOUBLE FLOATING POINT DIVIDE                                             SEQ 0150

  6679	037546	254 02 1 00 042072 	S76100:	JRSTF	@[.+1]		;CLEAR ALL FLAGS
  6680						DMOVE	AC,[1400,,0
  6681	037547	120 04 0 00 041705 				0,,0]
  6682						DFDV	AC,[202400,,0
  6683	037550	113 04 0 00 041042 				0,,0]	;EXPECT AROV,FOV,FXU=0,0,0
  6684	037551	265 03 0 00 037552 		JSP	AC-1,.+1	;SAVE FLAGS
  6685	037552	312 04 0 00 040331 		CAME	AC,[400,,0]
  6686	037553	003 04 0 00 076101 		ER3	AC,76101	;C(AC) FAILED
  6687	037554	312 05 0 00 040156 		CAME	AC+1,[0,,0]
  6688	037555	004 05 0 00 076101 		ER4	AC+1,76101	;C(AC+1) FAILED
  6689	037556	255 10 0 00 037560 		JOV	.+2
  6690	037557	254 00 0 00 037561 		JRST	.+2
  6691	037560	013 03 0 00 076101 		ER13	AC-1,76101	;AROV WAS SET
  6692	037561	255 01 0 00 037563 		JFOV	.+2
  6693	037562	254 00 0 00 037564 		JRST	.+2
  6694	037563	013 03 0 00 076101 		ER13	AC-1,76101	;FOV WAS SET
  6695	037564	603 03 0 00 000100 		TLNE	AC-1,FXU
  6696	037565	013 03 0 00 076101 		ER13	AC-1,76101	;FXU WAS SET
  6697	037566	321 10 0 00 037546 		JUMPL	AC+4,S76100	;LOOP ON ERROR SWITCH
  6698
  6699	037567	254 02 1 00 042073 	S76200:JRSTF	@[.+1]		;CLEAR ALL FLAGS
  6700						DMOVE	AC,[777,,-1
  6701	037570	120 04 0 00 041504 				-1,,-1]
  6702						DFDV	AC,[202400,,0
  6703	037571	113 04 0 00 041042 				0,,0]	;EXPECT AROV,FOV,FXU=1,1,1
  6704	037572	265 03 0 00 037573 		JSP	AC-1,.+1	;SAVE FLAGS
  6705	037573	312 04 0 00 040455 		CAME	AC,[377777,,-1]
  6706	037574	003 04 0 00 076201 		ER3	AC,76201	;C(AC) FAILED
  6707	037575	312 05 0 00 040455 		CAME	AC+1,[377777,,-1]
  6708	037576	004 05 0 00 076201 		ER4	AC+1,76201	;C(AC+1) FAILED
  6709	037577	255 10 0 00 037601 		JOV	.+2
  6710	037600	013 03 0 00 076201 		ER13	AC-1,76201	;AROV WAS CLEAR
  6711	037601	255 01 0 00 037603 		JFOV	.+2
  6712	037602	013 03 0 00 076201 		ER13	AC-1,76201	;FOV WAS CLEAR
  6713	037603	607 03 0 00 000100 		TLNN	AC-1,FXU
  6714	037604	013 03 0 00 076201 		ER13	AC-1,76201	;FXU WAS CLEAR
  6715	037605	321 10 0 00 037567 		JUMPL	AC+4,S76200	;LOOP ON ERROR SWITCHDBKCE	PDP-10 KI10 ADVANCED INSTRUCTION DIAGNOSTIC #5, VERSION 0,3 	MACRO %52(462) 13:32  9-AUG-76 PAGE 32
DBKCEM	MAC	28-MAY-76 11:21		DFDV TEST-DOUBLE FLOATING POINT DIVIDE                                             SEQ 0151

  6716	037606	254 02 1 00 042074 	S76300:	JRSTF	@[.+1]		;CLEAR ALL FLAGS
  6717						DMOVE	AC,[376777,,-1
  6718	037607	120 04 0 00 042067 				-1,,-1]
  6719						DFDV	AC,[577400,,0
  6720	037610	113 04 0 00 040157 				0,,0]	;EXPECT AROV,FOV,FXU=0,0,0
  6721	037611	265 03 0 00 037612 		JSP	AC-1,.+1	;SAVE FLAGS
  6722	037612	312 04 0 00 041461 		CAME	AC,[400000,,0]
  6723	037613	003 04 0 00 076301 		ER3	AC,76301	;C(AC) FAILED
  6724	037614	312 05 0 00 040447 		CAME	AC+1,[0,,1]
  6725	037615	004 05 0 00 076301 		ER4	AC+1,76301	;C(AC+1) FAILED
  6726	037616	255 10 0 00 037620 		JOV	.+2
  6727	037617	254 00 0 00 037621 		JRST	.+2
  6728	037620	013 03 0 00 076301 		ER13	AC-1,76301	;AROV WAS SET
  6729	037621	255 01 0 00 037623 		JFOV	.+2
  6730	037622	254 00 0 00 037624 		JRST	.+2
  6731	037623	013 03 0 00 076301 		ER13	AC-1,76301	;FOV WAS SET
  6732	037624	603 03 0 00 000100 		TLNE	AC-1,FXU
  6733	037625	013 03 0 00 076301 		ER13	AC-1,76301	;FXU WAS SET
  6734	037626	321 10 0 00 037606 		JUMPL	AC+4,S76300	;LOOP ON ERROR SWITCH
  6735
  6736	037627	254 02 1 00 042075 	S76400:	JRSTF	@[.+1]		;CLEAR ALL FLAGS
  6737						DMOVE	AC,[377400,,0
  6738	037630	120 04 0 00 041124 				0,,0]
  6739						DFDV	AC,[777400,,0
  6740	037631	113 04 0 00 041520 				0,,0]	;EXPECT AROV,FOV,FXU=1,1,0
  6741	037632	265 03 0 00 037633 		JSP	AC-1,.+1	;SAVE FLAGS
  6742	037633	312 04 0 00 040157 		CAME	AC,[577400,,0]
  6743	037634	003 04 0 00 076401 		ER3	AC,76401	;C(AC) FAILED
  6744	037635	312 05 0 00 040156 		CAME	AC+1,[0,,0]
  6745	037636	004 05 0 00 076401 		ER4	AC+1,76401	;C(AC+1) FAILED
  6746	037637	255 10 0 00 037641 		JOV	.+2
  6747	037640	013 03 0 00 076401 		ER13	AC-1,76401	;AROV WAS CLEAR
  6748	037641	255 01 0 00 037643 		JFOV	.+2
  6749	037642	013 03 0 00 076401 		ER13	AC-1,76401	;FOV WAS CLEAR
  6750	037643	603 03 0 00 000100 		TLNE	AC-1,FXU
  6751	037644	013 03 0 00 076401 		ER13	AC-1,76401	;FXU WAS SET
  6752	037645	321 10 0 00 037627 		JUMPL	AC+4,S76400	;LOOP ON ERROR SWITCHDBKCE	PDP-10 KI10 ADVANCED INSTRUCTION DIAGNOSTIC #5, VERSION 0,3 	MACRO %52(462) 13:32  9-AUG-76 PAGE 33
DBKCEM	MAC	28-MAY-76 11:21		DFDV TEST-DOUBLE FLOATING POINT DIVIDE                                             SEQ 0152

  6753	037646	254 02 1 00 042076 	S76500:	JRSTF	@[.+1]		;CLEAR ALL FLAGS
  6754						DMOVE	AC,[1400,,0
  6755	037647	120 04 0 00 041705 				0,,0]
  6756						DFDV	AC,[575400,,0
  6757	037650	113 04 0 00 041533 				0,,0]	;EXPECT AROV,FOV,FXU=0,0,0
  6758	037651	265 03 0 00 037652 		JSP	AC-1,.+1	;SAVE FLAGS
  6759	037652	312 04 0 00 041463 		CAME	AC,[777400,,0]
  6760	037653	003 04 0 00 076501 		ER3	AC,76501	;C(AC) FAILED
  6761	037654	312 05 0 00 040156 		CAME	AC+1,[0,,0]
  6762	037655	004 05 0 00 076501 		ER4	AC+1,76501	;C(AC+1) FAILED
  6763	037656	255 10 0 00 037660 		JOV	.+2
  6764	037657	254 00 0 00 037661 		JRST	.+2
  6765	037660	013 03 0 00 076501 		ER13	AC-1,76501	;AROV WAS SET
  6766	037661	255 01 0 00 037663 		JFOV	.+2
  6767	037662	254 00 0 00 037664 		JRST	.+2
  6768	037663	013 03 0 00 076501 		ER13	AC-1,76501	;FOV WAS SET
  6769	037664	603 03 0 00 000100 		TLNE	AC-1,FXU
  6770	037665	013 03 0 00 076501 		ER13	AC-1,76501	;FXU WAS SET
  6771	037666	321 10 0 00 037646 		JUMPL	AC+4,S76500	;LOOP ON ERROR SWITCH
  6772
  6773	037667	254 02 1 00 042077 	S76600:	JRSTF	@[.+1]		;CLEAR ALL FLAGS
  6774						DMOVE	AC,[777,,-1
  6775	037670	120 04 0 00 041504 				-1,,-1]
  6776						DFDV	AC,[575400,,0
  6777	037671	113 04 0 00 041533 				0,,0]	;EXPECT AROV,FOV,FXU=1,1,1
  6778	037672	265 03 0 00 037673 		JSP	AC-1,.+1	;SAVE FLAGS
  6779	037673	312 04 0 00 041461 		CAME	AC,[400000,,0]
  6780	037674	003 04 0 00 076601 		ER3	AC,76601	;C(AC) FAILED
  6781	037675	312 05 0 00 040447 		CAME	AC+1,[0,,1]
  6782	037676	004 05 0 00 076601 		ER4	AC+1,76601	;C(AC+1) FAILED
  6783	037677	255 10 0 00 037701 		JOV	.+2
  6784	037700	013 03 0 00 076601 		ER13	AC-1,76601	;AROV WAS CLEAR
  6785	037701	255 01 0 00 037703 		JFOV	.+2
  6786	037702	013 03 0 00 076601 		ER13	AC-1,76601	;FOV WAS CLEAR
  6787	037703	607 03 0 00 000100 		TLNN	AC-1,FXU
  6788	037704	013 03 0 00 076601 		ER13	AC-1,76601	;FXU WAS CLEAR
  6789	037705	321 10 0 00 037667 		JUMPL	AC+4,S76600	;LOOP ON ERROR SWITCHDBKCE	PDP-10 KI10 ADVANCED INSTRUCTION DIAGNOSTIC #5, VERSION 0,3 	MACRO %52(462) 13:32  9-AUG-76 PAGE 34
DBKCEM	MAC	28-MAY-76 11:21		DFDV TEST-DOUBLE FLOATING POINT DIVIDE                                             SEQ 0153

  6790					;TEST AROV,FOV AND DCK FLAGS-DFDV
  6791
  6792	037706	254 02 1 00 042100 	S76700:	JRSTF	@[.+1]		;CLEAR ALL FLAGS
  6793						DMOVE	AC,[201400,,0
  6794	037707	120 04 0 00 040155 				0,,0]
  6795						DFDV	AC,[0,,0
  6796	037710	113 04 0 00 040453 				0,,0]	;EXPECT AROV,FOV,DCK=1,1,1
  6797	037711	265 03 0 00 037712 		JSP	AC-1,.+1	;SAVE FLAGS
  6798	037712	312 04 0 00 040155 		CAME	AC,[201400,,0]
  6799	037713	003 04 0 00 076701 		ER3	AC,76701	;C(AC) FAILED
  6800	037714	312 05 0 00 040156 		CAME	AC+1,[0,,0]
  6801	037715	004 05 0 00 076701 		ER4	AC+1,76701	;C(AC+1) FAILED
  6802	037716	255 10 0 00 037720 		JOV	.+2
  6803	037717	013 03 0 00 076701 		ER13	AC-1,76701	;AROV WAS CLEAR
  6804	037720	255 01 0 00 037722 		JFOV	.+2
  6805	037721	013 03 0 00 076701 		ER13	AC-1,76701	;FOV WAS CLEAR
  6806	037722	607 03 0 00 000040 		TLNN	AC-1,DCK
  6807	037723	013 03 0 00 076701 		ER13	AC-1,76701	;DCK WAS CLEAR
  6808	037724	321 10 0 00 037706 		JUMPL	AC+4,S76700	;LOOP ON ERROR SWITCH
  6809
  6810					;TEST AROV,FOV AND DCK FLAGS-DFDV
  6811
  6812	037725	254 02 1 00 042101 	S77000:	JRSTF	@[.+1]		;CLEAR ALL FLAGS
  6813						DMOVE	AC,[201400,,0
  6814	037726	120 04 0 00 040155 				0,,0]
  6815						DFDV	AC,[201200,,0
  6816	037727	113 04 0 00 042102 				0,,0]	;EXPECT AROV,FOV,DCK=1,1,1
  6817	037730	265 03 0 00 037731 		JSP	AC-1,.+1	;SAVE FLAGS
  6818	037731	312 04 0 00 040155 		CAME	AC,[201400,,0]
  6819	037732	003 04 0 00 077001 		ER3	AC,77001	;C(AC) FAILED
  6820	037733	312 05 0 00 040156 		CAME	AC+1,[0,,0]
  6821	037734	004 05 0 00 077001 		ER4	AC+1,77001	;C(AC+1) FAILED
  6822	037735	255 10 0 00 037737 		JOV	.+2
  6823	037736	013 03 0 00 077001 		ER13	AC-1,77001	;AROV WAS CLEAR
  6824	037737	255 01 0 00 037741 		JFOV	.+2
  6825	037740	013 03 0 00 077001 		ER13	AC-1,77001	;FOV WAS CLEAR
  6826	037741	607 03 0 00 000040 		TLNN	AC-1,DCK
  6827	037742	013 03 0 00 077001 		ER13	AC-1,77001	;DCK WAS CLEAR
  6828	037743	321 10 0 00 037725 		JUMPL	AC+4,S77000	;LOOP ON ERROR SWITCH
  6829
  6830	037744	254 00 0 00 030057 		JRST	BEGENDDBKCE	PDP-10 KI10 ADVANCED INSTRUCTION DIAGNOSTIC #5, VERSION 0,3 	MACRO %52(462) 13:32  9-AUG-76 PAGE 1
UUOERR	KLM	22-APR-75		*UUOERR* OLD-UUO ERROR HANDLER SUBROUTINE, V75B, APR 22,1975                       SEQ 0154

  6831					SUBTTL	*UUOERR* OLD-UUO ERROR HANDLER SUBROUTINE, V75B, APR 22,1975
  6832
  6833					;THIS SUBROUTINE PROVIDES ERROR REPORTING THRU THE USE OF UUO'S.
  6834
  6835	037745	202 00 0 00 042263 	ERRMES:	MOVEM	0,%ERAC0#	;SAVE AC0
  6836						IFDEF	EXCASB,<IFDEF	KI10,<
  6837	037746	336 00 0 00 030040 		SKIPN	KAIFLG
  6838	037747	254 00 0 00 037754 		JRST	.+5
  6839	037750	332 00 0 00 030037 		SKIPE	USER		;USER MODE ?
  6840	037751	254 00 0 00 037754 		JRST	.+3
  6841	037752	332 00 0 00 030055 		SKIPE	MARGIN
  6842	037753	7 000 14 0 00 042104 		DATAO	APR,[IMGNOF,,ISPDOF] ;CLR MARGINS >>
  6843	037754	202 01 0 00 042264 		MOVEM	1,%ERAC1#	;SAVE AC1
  6844	037755	202 02 0 00 042265 		MOVEM	2,%ERAC2#	;SAVE AC2
  6845	037756	350 00 0 00 030053 		AOS	ERRTLS		;INCREMENT ERROR TOTALS
  6846	037757	550 00 0 00 030114 		HRRZ	0,$SVUPC	;GET PC OF UUO
  6847	037760	316 00 0 00 030052 		CAMN	0,ERRPC		;PC = PC OF LAST ERROR ?
  6848	037761	350 00 0 00 042260 		AOS	MICNT#		;YES, ADD 1 TO ERROR COUNT
  6849	037762	200 00 0 00 042260 		MOVE	0,MICNT
  6850	037763	504 00 0 00 030114 		HRL	0,$SVUPC
  6851	037764	336 00 0 00 030041 		SKIPN	KLFLG		;NOT KL10
  6852	037765	332 00 0 00 030037 		SKIPE	USER		;AND NOT USER?
  6853	037766	254 00 0 00 037770 		JRST	.+2
  6854	037767	7 004 14 0 00 000000 		DATAO	PI,0		;YES, DISPLAY ERROR PC,ERROR COUNT
  6855	037770	402 00 0 00 042261 		SETZM	PROCED#		;CLEAR PROCEED FLAG
  6856	037771	037 10 0 00 000002 		SWITCH
  6857	037772	603 00 0 00 040000 		TLNE	NOPNT		;PRINTOUT ?
  6858	037773	254 00 0 00 040106 		JRST	%ERRS1		;NO, RESTORE AC'S AND RETURN
  6859	037774	200 01 0 00 030113 		MOVE	1,$SVUUO
  6860	037775	242 01 0 00 777745 		LSH	1,-^D27
  6861	037776	202 01 0 00 042262 		MOVEM	1,%ACS1A#	;SAVE UUO NUMBER
  6862	037777	200 00 0 00 042263 		MOVE	0,%ERAC0
  6863	040000	200 01 0 00 042264 		MOVE	1,%ERAC1
  6864	040001	335 00 1 00 042257 		SKIPGE	@ERRLOP		;ERR LOOP AC > OR = 0 ?
  6865	040002	254 00 0 00 040146 		JRST	%ERRS4		;NO, SEE IF PRINT ALL
  6866	040003	402 00 0 00 042260 	%ERMS1:	SETZM	MICNT		;CLEAR ERROR COUNT
  6867	040004	331 00 0 00 030043 		SKIPL	MONCTL		;DIAG MON OR SYS EXER ?
  6868	040005	254 00 0 00 040011 		JRST	.+4		;NO, DON'T NEED TITLE
  6869	040006	336 00 0 00 042266 		SKIPN	%ERFST#		;FIRST ERROR ?
  6870	040007	037 04 0 00 000002 		PNTNM			;YES, PRINT PROGRAM TITLE
  6871	040010	476 00 0 00 042266 		SETOM	%ERFST
  6872	040011	336 00 0 00 030047 		SKIPN	PASCNT		;FIRST PASS ?
  6873	040012	254 00 0 00 040016 		JRST	.+4		;YES
  6874						PMSG	<^TEST PASS COUNT = >^
  6875	040013	037 02 0 00 042105 		PSIXM	[SIXBIT\^TEST PASS COUNT = _\]^
  6876	040014	200 00 0 00 030047 		MOVE	PASCNT
  6877	040015	037 15 0 00 000000 		PNTDEC
  6878						PMSG	<^PC =   >^
  6879	040016	037 02 0 00 042111 		PSIXM	[SIXBIT\^PC =   _\]^
  6880	040017	550 00 0 00 030114 		HRRZ	0,$SVUPC	;GET PC OF UUO
  6881	040020	202 00 0 00 030052 		MOVEM	0,ERRPC		;SAVE FOR COMPARE
  6882	040021	037 06 0 00 000000 		PNT6			;PRINT UUO ADDRESS
  6883						XLIST
  6884						IFDEF	ERDIAG,<LISTDBKCE	PDP-10 KI10 ADVANCED INSTRUCTION DIAGNOSTIC #5, VERSION 0,3 	MACRO %52(462) 13:32  9-AUG-76 PAGE 2
UUOERR	KLM	22-APR-75		*UUOERR* OLD-UUO ERROR HANDLER SUBROUTINE, V75B, APR 22,1975                       SEQ 0155

  6885					;DIAGNOSTIC FORMAT ERROR PRINTER
  6886
  6887					;PRINT RESULT
  6888
  6889	040022				%ERMS2:	PMSG	<^RESULT  = >^
  6890	040022	037 02 0 00 042113 		PSIXM	[SIXBIT\^RESULT  = _\]^
  6891	040023	200 01 0 00 030113 		MOVE	1,$SVUUO	;GET AC # OF UUO
  6892	040024	242 01 0 00 777751 		LSH	1,-27
  6893	040025	405 01 0 00 000017 		ANDI	1,17
  6894	040026	200 00 0 01 000000 		MOVE	0,(1)		;GET C(AC)
  6895	040027	307 01 0 00 000001 		CAIG	1,1		;IS AC # = TO SAVE AC ?
  6896	040030	200 00 0 01 042263 		MOVE	0,%ERAC0(1)	;YES, GET SAVED AC
  6897	040031	037 13 0 00 000000 		PNTHW			;PRINT C(AC)
  6898
  6899	040032	200 00 0 00 030046 		MOVE	CONSW
  6900	040033	603 00 0 00 000200 		TLNE	TXTINH		;PRINT FAILURE DES AND FLT NBR ?
  6901	040034	254 00 0 00 040103 		JRST	%ERMORE		;NO, RESTORE AC'S ETC.
  6902
  6903					;PRINT FAILURE DESCRIPTOR
  6904
  6905	040035	200 01 0 00 042262 		MOVE	1,%ACS1A	;GET UUO NUMBER
  6906	040036	307 01 0 00 000001 		CAIG	1,1		;PRINT DESCRIPTOR ?
  6907	040037	254 00 0 00 040043 		JRST	%ERMS3		;NO, JUST PRINT FAULT NUMBER
  6908	040040	037 00 0 00 030242 		PCRL
  6909	040041	200 00 0 01 040067 		MOVE	%FLTTB(1)
  6910	040042	037 17 0 00 000000 		PNTAL			;PRINT FAULT DESCRIPTOR
  6911
  6912					;PRINT FAULT NUMBER
  6913
  6914	040043				%ERMS3:	PMSG	<^FAULT NUMBER = >^
  6915	040043	037 02 0 00 042115 		PSIXM	[SIXBIT\^FAULT NUMBER = _\]^
  6916	040044	201 00 0 00 040066 		MOVEI	TLET
  6917	040045	037 00 0 00 000000 		PNTA			;PRINT TEST LETTERDBKCE	PDP-10 KI10 ADVANCED INSTRUCTION DIAGNOSTIC #5, VERSION 0,3 	MACRO %52(462) 13:32  9-AUG-76 PAGE 3
UUOERR	KLM	22-APR-75		*UUOERR* OLD-UUO ERROR HANDLER SUBROUTINE, V75B, APR 22,1975                       SEQ 0156

  6918
  6919	040046	550 00 0 00 030113 		HRRZ	$SVUUO
  6920	040047	602 00 0 00 700000 		TRNE	700000
  6921	040050	254 00 0 00 040064 		JRST	%ER6X
  6922	040051	602 00 0 00 070000 		TRNE	070000
  6923	040052	254 00 0 00 040062 		JRST	%ER5X
  6924	040053	602 00 0 00 007000 		TRNE	007000
  6925	040054	254 00 0 00 040060 		JRST	%ER4X
  6926	040055	037 03 0 00 000000 		PNT3			;PRINT FAULT NUMBER
  6927	040056	037 00 0 00 030242 	%ER7X:	PCRL
  6928	040057	254 00 0 00 040103 		JRST	%ERMORE
  6929
  6930	040060	037 04 0 00 000000 	%ER4X:	PNT4
  6931	040061	254 00 0 00 040056 		JRST	%ER7X
  6932	040062	037 05 0 00 000000 	%ER5X:	PNT5
  6933	040063	254 00 0 00 040056 		JRST	%ER7X
  6934	040064	037 06 0 00 000000 	%ER6X:	PNT6
  6935	040065	254 00 0 00 040056 		JRST	%ER7X
  6936
  6937					;FAILURE DESCRIPTORS
  6938
  6939	040066	000000	000000		TLET:	0			;TEST LETTER
  6940	040067	000000	000000		%FLTTB:	0			;DESCRIPTOR TABLE
  6941	040070	000000	040156		%NODES:	[0]			;NO DESCRIPTOR
  6942	040071	000000	040156		SPDES:	[0]			;SPECIAL USER FAILURE DESCRIPTOR
  6943	040072	000000	042120		$ACF:	[ASCIZ/C(AC) FAILED/]
  6944	040073	000000	042123		%AC1F:	[ASCIZ/C(AC+1) FAILED/]
  6945	040074	000000	042126		%EF:	[ASCIZ/C(E) FAILED/]
  6946	040075	000000	042131		%E1F:	[ASCIZ/C(E+1) FAILED/]
  6947	040076	000000	042134		%ARF:	[ASCIZ/C(C(ACR)) FAILED/]
  6948	040077	000000	042140		%AR1F:	[ASCIZ/C(C(ACR+1)) FAILED/]
  6949	040100	000000	042144		%ALF:	[ASCIZ/C(C(ACL)) FAILED/]
  6950	040101	000000	042150		%EEF:	[ASCIZ/C(C(E)) FAILED/]
  6951	040102	000000	042153		%FF:	[ASCIZ/FLAG FAILED/]
  6952					>
  6953						XLIST
  6954						LISTDBKCE	PDP-10 KI10 ADVANCED INSTRUCTION DIAGNOSTIC #5, VERSION 0,3 	MACRO %52(462) 13:32  9-AUG-76 PAGE 8
UUOERR	KLM	22-APR-75		*UUOERR* OLD-UUO ERROR HANDLER SUBROUTINE, V75B, APR 22,1975                       SEQ 0157

  6955					;RESTORE AC'S AND RETURN OR HALT
  6956
  6957	040103	256 00 0 00 030101 	%ERMORE:XCT	ERMORE
  6958	040104	037 16 0 00 000002 		PNTMGN			;PRINT MARGINS
  6959	040105	037 10 0 00 000002 		SWITCH
  6960
  6961	040106	037 07 0 00 000003 	%ERRS1:	TTALTM			;ALTMODE CHECK
  6962	040107	254 00 0 00 040113 		JRST	.+4		;NONE
  6963	040110	201 00 0 00 040113 		MOVEI	.+3		;SAVE CONT ADDRESS
  6964	040111	202 00 0 00 000130 		MOVEM	JOBOPC
  6965	040112	254 00 1 00 030063 		JRST	@ALTMGO		;PERFORM TRANSFER
  6966	040113	200 00 0 00 030046 		MOVE	CONSW
  6967	040114	603 00 0 00 002000 		TLNE	0,ERSTOP	;HALT ON ERROR SWITCH SET ?
  6968	040115	037 14 0 00 000004 		ERRHLT			;YES
  6969	040116	607 00 0 00 004000 		TLNN	0,LOOPER	;LOOP ON ERROR SWITCH SET ?
  6970	040117	476 00 0 00 042261 		SETOM	PROCED		;NO, SET THE PROCEED FLAG
  6971	040120	603 00 0 00 010000 		TLNE	0,DING		;RING BELL SWITCH SET ?
  6972	040121	037 01 0 00 000007 		PBELL			;YES, GO RING BELL
  6973
  6974	040122	200 02 0 00 042265 	%ERRS2:	MOVE	2,%ERAC2	;RESTORE AC'S
  6975	040123	200 01 0 00 042264 		MOVE	1,%ERAC1
  6976	040124	476 00 1 00 042257 		SETOM	@ERRLOP		;SET C(ERR LOOP AC) TO -1
  6977	040125	336 00 0 00 042261 		SKIPN	PROCED		;LOOP ON ERROR ?
  6978	040126	254 00 0 00 040136 		JRST	%ERRS5		;YES
  6979	040127	350 00 1 00 042257 		AOS	@ERRLOP		;NO, INC C(ERR LOOP AC)
  6980	040130	350 00 1 00 042257 		AOS	@ERRLOP		;SO IT ='S 1
  6981	040131	331 00 0 00 030043 		SKIPL	MONCTL		;UNDER DIAGNOSTIC MONITOR ?
  6982	040132	254 00 0 00 040136 		JRST	%ERRS5		;NO, CONTINUE PROGRAM
  6983	040133	200 00 0 00 030053 		MOVE	0,ERRTLS	;YES
  6984	040134	301 00 0 00 000005 		CAIL	0,5		;PRINTED ALLOWED ERRORS ?
  6985	040135	254 00 0 00 030061 		JRST	$BEND2
  6986
  6987	040136	200 00 0 00 042263 	%ERRS5:	MOVE	0,%ERAC0	;NO, CONTINUE PROGRAM
  6988						IFDEF	EXCASB,<IFDEF KI10,<
  6989	040137	336 00 0 00 030040 		SKIPN	KAIFLG
  6990	040140	254 00 0 00 040145 		JRST	.+5
  6991	040141	332 00 0 00 030037 		SKIPE	USER
  6992	040142	254 00 0 00 040145 		JRST	.+3
  6993	040143	332 00 0 00 030055 		SKIPE	MARGIN
  6994	040144	7 000 14 0 00 030055 		DATAO	APR,MARGIN	;RESET MARGIN SYSTEM >>
  6995	040145	254 00 0 00 030065 		JRST	UUOEXT
  6996
  6997	040146	200 00 0 00 030046 	%ERRS4:	MOVE	0,CONSW
  6998	040147	607 00 0 00 001000 		TLNN	PALERS		;PRINT ALL ERRORS ?
  6999	040150	254 00 0 00 040106 		JRST	%ERRS1		;NO
  7000	040151	254 00 0 00 040003 		JRST	%ERMS1		;YESDBKCE	PDP-10 KI10 ADVANCED INSTRUCTION DIAGNOSTIC #5, VERSION 0,3 	MACRO %52(462) 13:32  9-AUG-76 PAGE 1
STOR	KLM	 5-JAN-76		*STOR* RESERVED STORAGE, JAN 5,1976                                                SEQ 0158

  7001					SUBTTL	*STOR* RESERVED STORAGE, JAN 5,1976
  7002
  7003					;PROGRAM LITERALS
  7004
  7005						XLIST
  7006					IFNDEF	$LPAPER,<LIST>
  7007	040152					LIT
  7008	040152	45 70 51 64 00 00
  7009	040153	103 105 000 000 000
  7010	040154	000000	030640
  7011	040155	201400	000000
  7012	040156	000000	000000
  7013	040157	577400	000000
  7014	040160	000000	000000
  7015	040161	200400	000000
  7016	040162	200600	000000
  7017	040163	000000	000000
  7018	040164	177400	000000
  7019	040165	200500	000000
  7020	040166	000000	000000
  7021	040167	176400	000000
  7022	040170	200440	000000
  7023	040171	000000	000000
  7024	040172	175400	000000
  7025	040173	200420	000000
  7026	040174	000000	000000
  7027	040175	174400	000000
  7028	040176	200410	000000
  7029	040177	000000	000000
  7030	040200	173400	000000
  7031	040201	200404	000000
  7032	040202	000000	000000
  7033	040203	172400	000000
  7034	040204	200402	000000
  7035	040205	000000	000000
  7036	040206	171400	000000
  7037	040207	200401	000000
  7038	040210	000000	000000
  7039	040211	170400	000000
  7040	040212	200400	400000
  7041	040213	000000	000000
  7042	040214	167400	000000
  7043	040215	200400	200000
  7044	040216	000000	000000
  7045	040217	166400	000000
  7046	040220	200400	100000
  7047	040221	000000	000000
  7048	040222	165400	000000
  7049	040223	200400	040000
  7050	040224	000000	000000
  7051	040225	164400	000000
  7052	040226	200400	020000
  7053	040227	000000	000000
  7054	040230	163400	000000
  7055	040231	200400	010000DBKCE	PDP-10 KI10 ADVANCED INSTRUCTION DIAGNOSTIC #5, VERSION 0,3 	MACRO %52(462) 13:32  9-AUG-76 PAGE 1-1
STOR	KLM	 5-JAN-76		*STOR* RESERVED STORAGE, JAN 5,1976                                                SEQ 0159

  7056	040232	000000	000000
  7057	040233	162400	000000
  7058	040234	200400	004000
  7059	040235	000000	000000
  7060	040236	161400	000000
  7061	040237	200400	002000
  7062	040240	000000	000000
  7063	040241	160400	000000
  7064	040242	200400	001000
  7065	040243	000000	000000
  7066	040244	157400	000000
  7067	040245	200400	000400
  7068	040246	000000	000000
  7069	040247	156400	000000
  7070	040250	200400	000200
  7071	040251	000000	000000
  7072	040252	155400	000000
  7073	040253	200400	000100
  7074	040254	000000	000000
  7075	040255	154400	000000
  7076	040256	200400	000040
  7077	040257	000000	000000
  7078	040260	153400	000000
  7079	040261	200400	000020
  7080	040262	000000	000000
  7081	040263	152400	000000
  7082	040264	200400	000010
  7083	040265	000000	000000
  7084	040266	151400	000000
  7085	040267	200400	000004
  7086	040270	000000	000000
  7087	040271	150400	000000
  7088	040272	200400	000002
  7089	040273	000000	000000
  7090	040274	147400	000000
  7091	040275	200400	000001
  7092	040276	000000	000000
  7093	040277	146400	000000
  7094	040300	200400	000000
  7095	040301	200000	000000
  7096	040302	145400	000000
  7097	040303	200400	000000
  7098	040304	100000	000000
  7099	040305	144400	000000
  7100	040306	200400	000000
  7101	040307	040000	000000
  7102	040310	143400	000000
  7103	040311	200400	000000
  7104	040312	020000	000000
  7105	040313	142400	000000
  7106	040314	200400	000000
  7107	040315	010000	000000
  7108	040316	141400	000000
  7109	040317	200400	000000
  7110	040320	004000	000000DBKCE	PDP-10 KI10 ADVANCED INSTRUCTION DIAGNOSTIC #5, VERSION 0,3 	MACRO %52(462) 13:32  9-AUG-76 PAGE 1-2
STOR	KLM	 5-JAN-76		*STOR* RESERVED STORAGE, JAN 5,1976                                                SEQ 0160

  7111	040321	140400	000000
  7112	040322	200400	000000
  7113	040323	002000	000000
  7114	040324	137400	000000
  7115	040325	200400	000000
  7116	040326	001000	000000
  7117	040327	136400	000000
  7118	040330	200400	000000
  7119	040331	000400	000000
  7120	040332	135400	000000
  7121	040333	200400	000000
  7122	040334	000200	000000
  7123	040335	134400	000000
  7124	040336	200400	000000
  7125	040337	000100	000000
  7126	040340	133400	000000
  7127	040341	200400	000000
  7128	040342	000040	000000
  7129	040343	132400	000000
  7130	040344	200400	000000
  7131	040345	000020	000000
  7132	040346	131400	000000
  7133	040347	200400	000000
  7134	040350	000010	000000
  7135	040351	130400	000000
  7136	040352	200400	000000
  7137	040353	000004	000000
  7138	040354	127400	000000
  7139	040355	200400	000000
  7140	040356	000002	000000
  7141	040357	126400	000000
  7142	040360	200400	000000
  7143	040361	000001	000000
  7144	040362	125400	000000
  7145	040363	200400	000000
  7146	040364	000000	400000
  7147	040365	124400	000000
  7148	040366	200400	000000
  7149	040367	000000	200000
  7150	040370	123400	000000
  7151	040371	200400	000000
  7152	040372	000000	100000
  7153	040373	122400	000000
  7154	040374	200400	000000
  7155	040375	000000	040000
  7156	040376	121400	000000
  7157	040377	200400	000000
  7158	040400	000000	020000
  7159	040401	120400	000000
  7160	040402	200400	000000
  7161	040403	000000	010000
  7162	040404	117400	000000
  7163	040405	200400	000000
  7164	040406	000000	004000
  7165	040407	116400	000000DBKCE	PDP-10 KI10 ADVANCED INSTRUCTION DIAGNOSTIC #5, VERSION 0,3 	MACRO %52(462) 13:32  9-AUG-76 PAGE 1-3
STOR	KLM	 5-JAN-76		*STOR* RESERVED STORAGE, JAN 5,1976                                                SEQ 0161

  7166	040410	200400	000000
  7167	040411	000000	002000
  7168	040412	115400	000000
  7169	040413	200400	000000
  7170	040414	000000	001000
  7171	040415	114400	000000
  7172	040416	200400	000000
  7173	040417	000000	000400
  7174	040420	113400	000000
  7175	040421	200400	000000
  7176	040422	000000	000200
  7177	040423	112400	000000
  7178	040424	200400	000000
  7179	040425	000000	000100
  7180	040426	111400	000000
  7181	040427	200400	000000
  7182	040430	000000	000040
  7183	040431	110400	000000
  7184	040432	200400	000000
  7185	040433	000000	000020
  7186	040434	107400	000000
  7187	040435	200400	000000
  7188	040436	000000	000010
  7189	040437	106400	000000
  7190	040440	200400	000000
  7191	040441	000000	000004
  7192	040442	105400	000000
  7193	040443	200400	000000
  7194	040444	000000	000002
  7195	040445	104400	000000
  7196	040446	200400	000000
  7197	040447	000000	000001
  7198	040450	103400	000000
  7199	040451	600377	777777
  7200	040452	777777	777777
  7201	040453	000000	000000
  7202	040454	000000	000000
  7203	040455	377777	777777
  7204	040456	600577	777777
  7205	040457	777777	777777
  7206	040460	601377	777777
  7207	040461	377777	777776
  7208	040462	600677	777777
  7209	040463	777777	777777
  7210	040464	602377	777777
  7211	040465	377777	777774
  7212	040466	600737	777777
  7213	040467	777777	777777
  7214	040470	603377	777777
  7215	040471	377777	777770
  7216	040472	600757	777777
  7217	040473	777777	777777
  7218	040474	604377	777777
  7219	040475	377777	777760
  7220	040476	600767	777777DBKCE	PDP-10 KI10 ADVANCED INSTRUCTION DIAGNOSTIC #5, VERSION 0,3 	MACRO %52(462) 13:32  9-AUG-76 PAGE 1-4
STOR	KLM	 5-JAN-76		*STOR* RESERVED STORAGE, JAN 5,1976                                                SEQ 0162

  7221	040477	777777	777777
  7222	040500	605377	777777
  7223	040501	377777	777740
  7224	040502	600773	777777
  7225	040503	777777	777777
  7226	040504	606377	777777
  7227	040505	377777	777700
  7228	040506	600775	777777
  7229	040507	777777	777777
  7230	040510	607377	777777
  7231	040511	377777	777600
  7232	040512	600776	777777
  7233	040513	777777	777777
  7234	040514	610377	777777
  7235	040515	377777	777400
  7236	040516	600777	377777
  7237	040517	777777	777777
  7238	040520	611377	777777
  7239	040521	377777	777000
  7240	040522	600777	577777
  7241	040523	777777	777777
  7242	040524	612377	777777
  7243	040525	377777	776000
  7244	040526	600777	677777
  7245	040527	777777	777777
  7246	040530	613377	777777
  7247	040531	377777	774000
  7248	040532	600777	737777
  7249	040533	777777	777777
  7250	040534	614377	777777
  7251	040535	377777	770000
  7252	040536	600777	757777
  7253	040537	777777	777777
  7254	040540	615377	777777
  7255	040541	377777	760000
  7256	040542	600777	767777
  7257	040543	777777	777777
  7258	040544	616377	777777
  7259	040545	377777	740000
  7260	040546	600777	773777
  7261	040547	777777	777777
  7262	040550	617377	777777
  7263	040551	377777	700000
  7264	040552	600777	775777
  7265	040553	777777	777777
  7266	040554	620377	777777
  7267	040555	377777	600000
  7268	040556	600777	776777
  7269	040557	777777	777777
  7270	040560	621377	777777
  7271	040561	377777	400000
  7272	040562	600777	777377
  7273	040563	777777	777777
  7274	040564	622377	777777
  7275	040565	377777	000000DBKCE	PDP-10 KI10 ADVANCED INSTRUCTION DIAGNOSTIC #5, VERSION 0,3 	MACRO %52(462) 13:32  9-AUG-76 PAGE 1-5
STOR	KLM	 5-JAN-76		*STOR* RESERVED STORAGE, JAN 5,1976                                                SEQ 0163

  7276	040566	600777	777577
  7277	040567	777777	777777
  7278	040570	623377	777777
  7279	040571	377776	000000
  7280	040572	600777	777677
  7281	040573	777777	777777
  7282	040574	624377	777777
  7283	040575	377774	000000
  7284	040576	600777	777737
  7285	040577	777777	777777
  7286	040600	625377	777777
  7287	040601	377770	000000
  7288	040602	600777	777757
  7289	040603	777777	777777
  7290	040604	626377	777777
  7291	040605	377760	000000
  7292	040606	600777	777767
  7293	040607	777777	777777
  7294	040610	627377	777777
  7295	040611	377740	000000
  7296	040612	600777	777773
  7297	040613	777777	777777
  7298	040614	630377	777777
  7299	040615	377700	000000
  7300	040616	600777	777775
  7301	040617	777777	777777
  7302	040620	631377	777777
  7303	040621	377600	000000
  7304	040622	600777	777776
  7305	040623	777777	777777
  7306	040624	632377	777777
  7307	040625	377400	000000
  7308	040626	600777	777777
  7309	040627	577777	777777
  7310	040630	633377	777777
  7311	040631	377000	000000
  7312	040632	600777	777777
  7313	040633	677777	777777
  7314	040634	634377	777777
  7315	040635	376000	000000
  7316	040636	600777	777777
  7317	040637	737777	777777
  7318	040640	635377	777777
  7319	040641	374000	000000
  7320	040642	600777	777777
  7321	040643	757777	777777
  7322	040644	636377	777777
  7323	040645	370000	000000
  7324	040646	600777	777777
  7325	040647	767777	777777
  7326	040650	637377	777777
  7327	040651	360000	000000
  7328	040652	600777	777777
  7329	040653	773777	777777
  7330	040654	640377	777777DBKCE	PDP-10 KI10 ADVANCED INSTRUCTION DIAGNOSTIC #5, VERSION 0,3 	MACRO %52(462) 13:32  9-AUG-76 PAGE 1-6
STOR	KLM	 5-JAN-76		*STOR* RESERVED STORAGE, JAN 5,1976                                                SEQ 0164

  7331	040655	340000	000000
  7332	040656	600777	777777
  7333	040657	775777	777777
  7334	040660	641377	777777
  7335	040661	300000	000000
  7336	040662	600777	777777
  7337	040663	776777	777777
  7338	040664	642377	777777
  7339	040665	600777	777777
  7340	040666	777377	777777
  7341	040667	643377	777777
  7342	040670	600777	777777
  7343	040671	777577	777777
  7344	040672	644377	777776
  7345	040673	600777	777777
  7346	040674	777677	777777
  7347	040675	645377	777774
  7348	040676	600777	777777
  7349	040677	777737	777777
  7350	040700	646377	777770
  7351	040701	600777	777777
  7352	040702	777757	777777
  7353	040703	647377	777760
  7354	040704	600777	777777
  7355	040705	777767	777777
  7356	040706	650377	777740
  7357	040707	600777	777777
  7358	040710	777773	777777
  7359	040711	651377	777700
  7360	040712	600777	777777
  7361	040713	777775	777777
  7362	040714	652377	777600
  7363	040715	600777	777777
  7364	040716	777776	777777
  7365	040717	653377	777400
  7366	040720	600777	777777
  7367	040721	777777	377777
  7368	040722	654377	777000
  7369	040723	600777	777777
  7370	040724	777777	577777
  7371	040725	655377	776000
  7372	040726	600777	777777
  7373	040727	777777	677777
  7374	040730	656377	774000
  7375	040731	600777	777777
  7376	040732	777777	737777
  7377	040733	657377	770000
  7378	040734	600777	777777
  7379	040735	777777	757777
  7380	040736	660377	760000
  7381	040737	600777	777777
  7382	040740	777777	767777
  7383	040741	661377	740000
  7384	040742	600777	777777
  7385	040743	777777	773777DBKCE	PDP-10 KI10 ADVANCED INSTRUCTION DIAGNOSTIC #5, VERSION 0,3 	MACRO %52(462) 13:32  9-AUG-76 PAGE 1-7
STOR	KLM	 5-JAN-76		*STOR* RESERVED STORAGE, JAN 5,1976                                                SEQ 0165

  7386	040744	662377	700000
  7387	040745	600777	777777
  7388	040746	777777	775777
  7389	040747	663377	600000
  7390	040750	600777	777777
  7391	040751	777777	776777
  7392	040752	664377	400000
  7393	040753	600777	777777
  7394	040754	777777	777377
  7395	040755	665377	000000
  7396	040756	600777	777777
  7397	040757	777777	777577
  7398	040760	666376	000000
  7399	040761	600777	777777
  7400	040762	777777	777677
  7401	040763	667374	000000
  7402	040764	600777	777777
  7403	040765	777777	777737
  7404	040766	670370	000000
  7405	040767	600777	777777
  7406	040770	777777	777757
  7407	040771	671360	000000
  7408	040772	600777	777777
  7409	040773	777777	777767
  7410	040774	672340	000000
  7411	040775	600777	777777
  7412	040776	777777	777773
  7413	040777	673300	000000
  7414	041000	600777	777777
  7415	041001	777777	777775
  7416	041002	674200	000000
  7417	041003	600777	777777
  7418	041004	777777	777776
  7419	041005	674400	000000
  7420	041006	200777	777777
  7421	041007	777777	777777
  7422	041010	200000	000000
  7423	041011	400000	777777
  7424	041012	000600	000000
  7425	041013	000000	000000
  7426	041014	000400	000000
  7427	041015	000000	000000
  7428	041016	001500	000000
  7429	041017	377000	000000
  7430	041020	000000	000000
  7431	041021	377600	000000
  7432	041022	000000	000000
  7433	041023	600400	000000
  7434	041024	000000	000000
  7435	041025	177400	000000
  7436	041026	000000	000000
  7437	041027	200400	000000
  7438	041030	000000	000000
  7439	041031	205400	000000
  7440	041032	000000	000000DBKCE	PDP-10 KI10 ADVANCED INSTRUCTION DIAGNOSTIC #5, VERSION 0,3 	MACRO %52(462) 13:32  9-AUG-76 PAGE 1-8
STOR	KLM	 5-JAN-76		*STOR* RESERVED STORAGE, JAN 5,1976                                                SEQ 0166

  7441	041033	205410	000000
  7442	041034	205600	000000
  7443	041035	000000	000000
  7444	041036	205610	000000
  7445	041037	200700	000000
  7446	041040	000000	000000
  7447	041041	201600	000000
  7448	041042	202400	000000
  7449	041043	000000	000000
  7450	041044	202500	000000
  7451	041045	204400	000000
  7452	041046	000000	000000
  7453	041047	204420	000000
  7454	041050	210400	000000
  7455	041051	000000	000000
  7456	041052	210401	000000
  7457	041053	220400	000000
  7458	041054	000000	000000
  7459	041055	220400	002000
  7460	041056	240400	000000
  7461	041057	000000	000000
  7462	041060	300400	000000
  7463	041061	000000	000000
  7464	041062	576400	000000
  7465	041063	205604	000000
  7466	041064	201000	000000
  7467	041065	000000	000000
  7468	041066	202000	000000
  7469	041067	000000	000000
  7470	041070	204000	000000
  7471	041071	000000	000000
  7472	041072	207000	000000
  7473	041073	000000	000000
  7474	041074	210000	000000
  7475	041075	000000	000000
  7476	041076	214000	000000
  7477	041077	000000	000000
  7478	041100	220000	000000
  7479	041101	000000	000000
  7480	041102	225000	000000
  7481	041103	000000	000000
  7482	041104	240000	000000
  7483	041105	000000	000000
  7484	041106	246000	000000
  7485	041107	000000	000000
  7486	041110	300000	000000
  7487	041111	000000	000000
  7488	041112	307000	000000
  7489	041113	000000	000000
  7490	041114	200000	000000
  7491	041115	000000	000000
  7492	041116	203000	000000
  7493	041117	000000	000000
  7494	041120	206000	000000
  7495	041121	000000	000000DBKCE	PDP-10 KI10 ADVANCED INSTRUCTION DIAGNOSTIC #5, VERSION 0,3 	MACRO %52(462) 13:32  9-AUG-76 PAGE 1-9
STOR	KLM	 5-JAN-76		*STOR* RESERVED STORAGE, JAN 5,1976                                                SEQ 0167

  7496	041122	400200	000000
  7497	041123	000000	000000
  7498	041124	377400	000000
  7499	041125	000000	000000
  7500	041126	401400	000000
  7501	041127	201700	000000
  7502	041130	577600	000000
  7503	041131	000000	000000
  7504	041132	577200	000000
  7505	041133	000000	000000
  7506	041134	576400	000000
  7507	041135	000000	000000
  7508	041136	201420	000000
  7509	041137	200400	000077
  7510	041140	000000	000000
  7511	041141	206400	000000
  7512	041142	000000	000000
  7513	041143	206404	000000
  7514	041144	030400	000003
  7515	041145	000000	000000
  7516	041146	032400	000000
  7517	041147	000000	000000
  7518	041150	032500	000000
  7519	041151	201600	000000
  7520	041152	000000	000000
  7521	041153	577400	000003
  7522	041154	000000	000000
  7523	041155	201600	000001
  7524	041156	200400	000003
  7525	041157	000000	000000
  7526	041160	200400	777777
  7527	041161	000000	000000
  7528	041162	202500	177777
  7529	041163	200200	000001
  7530	041164	000000	000000
  7531	041165	200200	000002
  7532	041166	000000	000000
  7533	041167	200200	000004
  7534	041170	000000	000000
  7535	041171	200200	000010
  7536	041172	000000	000000
  7537	041173	200200	000020
  7538	041174	000000	000000
  7539	041175	200200	000040
  7540	041176	000000	000000
  7541	041177	200200	000100
  7542	041200	000000	000000
  7543	041201	200200	000200
  7544	041202	000000	000000
  7545	041203	200200	000400
  7546	041204	000000	000000
  7547	041205	200200	001000
  7548	041206	000000	000000
  7549	041207	172400	000000
  7550	041210	000000	000000DBKCE	PDP-10 KI10 ADVANCED INSTRUCTION DIAGNOSTIC #5, VERSION 0,3 	MACRO %52(462) 13:32  9-AUG-76 PAGE 1-10
STOR	KLM	 5-JAN-76		*STOR* RESERVED STORAGE, JAN 5,1976                                                SEQ 0168

  7551	041211	201402	000000
  7552	041212	173400	000000
  7553	041213	000000	000000
  7554	041214	201404	000000
  7555	041215	174400	000000
  7556	041216	000000	000000
  7557	041217	201410	000000
  7558	041220	175400	000000
  7559	041221	000000	000000
  7560	041222	176400	000000
  7561	041223	000000	000000
  7562	041224	201440	000000
  7563	041225	201500	000000
  7564	041226	202600	000000
  7565	041227	000000	000000
  7566	041230	202700	000000
  7567	041231	203400	000000
  7568	041232	200100	000000
  7569	041233	000000	000000
  7570	041234	200040	000000
  7571	041235	000000	000000
  7572	041236	200020	000000
  7573	041237	000000	000000
  7574	041240	576200	000000
  7575	041241	576300	000000
  7576	041242	601400	000000
  7577	041243	000000	000000
  7578	041244	576340	000000
  7579	041245	200000	000001
  7580	041246	000000	000000
  7581	041247	200000	000002
  7582	041250	000000	000000
  7583	041251	200000	000004
  7584	041252	000000	000000
  7585	041253	200000	000010
  7586	041254	000000	000000
  7587	041255	200000	000020
  7588	041256	000000	000000
  7589	041257	200000	000040
  7590	041260	000000	000000
  7591	041261	200000	000100
  7592	041262	000000	000000
  7593	041263	200000	000200
  7594	041264	000000	000000
  7595	041265	200000	000400
  7596	041266	000000	000000
  7597	041267	200000	001000
  7598	041270	000000	000000
  7599	041271	200000	002000
  7600	041272	000000	000000
  7601	041273	200000	004000
  7602	041274	000000	000000
  7603	041275	200000	010000
  7604	041276	000000	000000
  7605	041277	200000	020000DBKCE	PDP-10 KI10 ADVANCED INSTRUCTION DIAGNOSTIC #5, VERSION 0,3 	MACRO %52(462) 13:32  9-AUG-76 PAGE 1-11
STOR	KLM	 5-JAN-76		*STOR* RESERVED STORAGE, JAN 5,1976                                                SEQ 0169

  7606	041300	000000	000000
  7607	041301	200000	040000
  7608	041302	000000	000000
  7609	041303	200000	100000
  7610	041304	000000	000000
  7611	041305	200000	200000
  7612	041306	000000	000000
  7613	041307	200000	400000
  7614	041310	000000	000000
  7615	041311	200001	000000
  7616	041312	000000	000000
  7617	041313	200002	000000
  7618	041314	000000	000000
  7619	041315	200004	000000
  7620	041316	000000	000000
  7621	041317	200010	000000
  7622	041320	000000	000000
  7623	041321	777700	000000
  7624	041322	000000	000000
  7625	041323	400400	000000
  7626	041324	200777	777777
  7627	041325	000000	000000
  7628	041326	203400	000000
  7629	041327	000000	000000
  7630	041330	207400	000000
  7631	041331	000000	000000
  7632	041332	211400	000000
  7633	041333	000000	000000
  7634	041334	212400	000000
  7635	041335	000000	000000
  7636	041336	213400	000000
  7637	041337	000000	000000
  7638	041340	214400	000000
  7639	041341	000000	000000
  7640	041342	215400	000000
  7641	041343	000000	000000
  7642	041344	216400	000000
  7643	041345	000000	000000
  7644	041346	217400	000000
  7645	041347	000000	000000
  7646	041350	221400	000000
  7647	041351	000000	000000
  7648	041352	222400	000000
  7649	041353	000000	000000
  7650	041354	223400	000000
  7651	041355	000000	000000
  7652	041356	224400	000000
  7653	041357	000000	000000
  7654	041360	225400	000000
  7655	041361	000000	000000
  7656	041362	226400	000000
  7657	041363	000000	000000
  7658	041364	227400	000000
  7659	041365	000000	000000
  7660	041366	230400	000000DBKCE	PDP-10 KI10 ADVANCED INSTRUCTION DIAGNOSTIC #5, VERSION 0,3 	MACRO %52(462) 13:32  9-AUG-76 PAGE 1-12
STOR	KLM	 5-JAN-76		*STOR* RESERVED STORAGE, JAN 5,1976                                                SEQ 0170

  7661	041367	000000	000000
  7662	041370	231400	000000
  7663	041371	000000	000000
  7664	041372	200200	000000
  7665	041373	000000	000000
  7666	041374	232400	000000
  7667	041375	000000	000000
  7668	041376	233400	000000
  7669	041377	000000	000000
  7670	041400	200000	000003
  7671	041401	000000	000000
  7672	041402	200000	000005
  7673	041403	000000	000000
  7674	041404	200000	000011
  7675	041405	000000	000000
  7676	041406	200000	000021
  7677	041407	000000	000000
  7678	041410	200000	000041
  7679	041411	000000	000000
  7680	041412	200000	000101
  7681	041413	000000	000000
  7682	041414	200000	000201
  7683	041415	000000	000000
  7684	041416	200000	000401
  7685	041417	000000	000000
  7686	041420	200000	001001
  7687	041421	000000	000000
  7688	041422	200000	002001
  7689	041423	000000	000000
  7690	041424	200000	004001
  7691	041425	000000	000000
  7692	041426	200000	010001
  7693	041427	000000	000000
  7694	041430	200000	020001
  7695	041431	000000	000000
  7696	041432	200000	040001
  7697	041433	000000	000000
  7698	041434	200000	100001
  7699	041435	000000	000000
  7700	041436	200000	200001
  7701	041437	000000	000000
  7702	041440	200000	400001
  7703	041441	000000	000000
  7704	041442	000000	034577
  7705	041443	376777	777777
  7706	041444	777777	777776
  7707	041445	000000	034620
  7708	041446	000000	034637
  7709	041447	000200	000000
  7710	041450	000000	000000
  7711	041451	000000	034660
  7712	041452	000177	777777
  7713	041453	777777	777777
  7714	041454	000000	034677
  7715	041455	400400	000000DBKCE	PDP-10 KI10 ADVANCED INSTRUCTION DIAGNOSTIC #5, VERSION 0,3 	MACRO %52(462) 13:32  9-AUG-76 PAGE 1-13
STOR	KLM	 5-JAN-76		*STOR* RESERVED STORAGE, JAN 5,1976                                                SEQ 0171

  7716	041456	000000	000000
  7717	041457	401000	000000
  7718	041460	000000	000002
  7719	041461	400000	000000
  7720	041462	000000	034720
  7721	041463	777400	000000
  7722	041464	000000	034737
  7723	041465	777600	000000
  7724	041466	000000	000000
  7725	041467	000000	034760
  7726	041470	777600	000000
  7727	041471	000000	000001
  7728	041472	000000	035003
  7729	041473	204770	000000
  7730	041474	200477	777775
  7731	041475	000000	000000
  7732	041476	202660	000000
  7733	041477	000000	035101
  7734	041500	400400	000000
  7735	041501	000000	000001
  7736	041502	000000	035122
  7737	041503	000000	035141
  7738	041504	000777	777777
  7739	041505	777777	777777
  7740	041506	000377	777777
  7741	041507	777777	777777
  7742	041510	000000	035162
  7743	041511	000000	035201
  7744	041512	377377	777777
  7745	041513	777777	777777
  7746	041514	000000	035222
  7747	041515	000000	035241
  7748	041516	777000	000000
  7749	041517	000000	000000
  7750	041520	777400	000000
  7751	041521	000000	000000
  7752	041522	000000	035262
  7753	041523	777000	000000
  7754	041524	000000	000001
  7755	041525	000000	035305
  7756	041526	201400	000000
  7757	041527	400000	777777
  7758	041530	376400	000000
  7759	041531	237400	000000
  7760	041532	277400	000000
  7761	041533	575400	000000
  7762	041534	000000	000000
  7763	041535	177777	777777
  7764	041536	200777	777776
  7765	041537	000000	000000
  7766	041540	177777	777776
  7767	041541	200777	777775
  7768	041542	000000	000000
  7769	041543	177777	777775
  7770	041544	200777	777774DBKCE	PDP-10 KI10 ADVANCED INSTRUCTION DIAGNOSTIC #5, VERSION 0,3 	MACRO %52(462) 13:32  9-AUG-76 PAGE 1-14
STOR	KLM	 5-JAN-76		*STOR* RESERVED STORAGE, JAN 5,1976                                                SEQ 0172

  7771	041545	000000	000000
  7772	041546	177777	777774
  7773	041547	501700	000000
  7774	041550	000000	000000
  7775	041551	500400	000000
  7776	041552	000000	000000
  7777	041553	374100	000000
  7778	041554	372400	000000
  7779	041555	502700	000000
  7780	041556	000000	000000
  7781	041557	373100	000000
  7782	041560	371400	000000
  7783	041561	503700	000000
  7784	041562	000000	000000
  7785	041563	372100	000000
  7786	041564	370400	000000
  7787	041565	504700	000000
  7788	041566	000000	000000
  7789	041567	371100	000000
  7790	041570	367400	000000
  7791	041571	505700	000000
  7792	041572	000000	000000
  7793	041573	370100	000000
  7794	041574	366400	000000
  7795	041575	177200	000000
  7796	041576	177100	000000
  7797	041577	177040	000000
  7798	041600	177020	000000
  7799	041601	177010	000000
  7800	041602	177004	000000
  7801	041603	177002	000000
  7802	041604	500700	000000
  7803	041605	000000	000000
  7804	041606	503400	000000
  7805	041607	500770	000000
  7806	041610	000000	000000
  7807	041611	501770	000000
  7808	041612	506400	000000
  7809	041613	200775	000000
  7810	041614	000000	000000
  7811	041615	200772	011000
  7812	041616	200774	000000
  7813	041617	000000	000000
  7814	041620	200770	020000
  7815	041621	200773	000000
  7816	041622	000000	000000
  7817	041623	200766	031000
  7818	041624	177477	000000
  7819	041625	000000	000000
  7820	041626	177427	100000
  7821	041627	000000	001400
  7822	041630	200777	777773
  7823	041631	000000	000000
  7824	041632	200777	777772
  7825	041633	000000	002400DBKCE	PDP-10 KI10 ADVANCED INSTRUCTION DIAGNOSTIC #5, VERSION 0,3 	MACRO %52(462) 13:32  9-AUG-76 PAGE 1-15
STOR	KLM	 5-JAN-76		*STOR* RESERVED STORAGE, JAN 5,1976                                                SEQ 0173

  7826	041634	500000	777777
  7827	041635	000000	000000
  7828	041636	200777	000000
  7829	041637	000000	000000
  7830	041640	500001	776777
  7831	041641	500000	777770
  7832	041642	000000	000000
  7833	041643	500001	776770
  7834	041644	376776	001001
  7835	041645	377000	000400
  7836	041646	500000	777776
  7837	041647	000000	000000
  7838	041650	376776	001003
  7839	041651	376000	002000
  7840	041652	177000	000003
  7841	041653	146777	777777
  7842	041654	177700	000156
  7843	041655	200400	000076
  7844	041656	000000	000000
  7845	041657	177700	000154
  7846	041660	200400	000075
  7847	041661	000000	000000
  7848	041662	177700	000152
  7849	041663	600400	000077
  7850	041664	000000	000000
  7851	041665	177660	000000
  7852	041666	000000	000000
  7853	041667	602120	000152
  7854	041670	120000	000000
  7855	041671	600400	000076
  7856	041672	000000	000000
  7857	041673	177600	000000
  7858	041674	000000	000000
  7859	041675	602200	000135
  7860	041676	400000	000001
  7861	041677	000000	000000
  7862	041700	000000	036503
  7863	041701	201777	777777
  7864	041702	777777	777777
  7865	041703	000000	036524
  7866	041704	000000	036543
  7867	041705	001400	000000
  7868	041706	000000	000000
  7869	041707	000000	036564
  7870	041710	000000	036603
  7871	041711	576000	000000
  7872	041712	000000	000001
  7873	041713	000000	036624
  7874	041714	000000	036643
  7875	041715	776400	000000
  7876	041716	000000	000000
  7877	041717	000000	036664
  7878	041720	000000	036707
  7879	041721	200400	000000
  7880	041722	400000	777777DBKCE	PDP-10 KI10 ADVANCED INSTRUCTION DIAGNOSTIC #5, VERSION 0,3 	MACRO %52(462) 13:32  9-AUG-76 PAGE 1-16
STOR	KLM	 5-JAN-76		*STOR* RESERVED STORAGE, JAN 5,1976                                                SEQ 0174

  7881	041723	200740	000000
  7882	041724	000000	000000
  7883	041725	201740	000000
  7884	041726	576252	525252
  7885	041727	252525	252526
  7886	041730	252525	252525
  7887	041731	600600	000000
  7888	041732	000000	000000
  7889	041733	377400	777777
  7890	041734	000000	000000
  7891	041735	577400	777777
  7892	041736	000000	000000
  7893	041737	777375	773771
  7894	041740	373773	776005
  7895	041741	373773	776004
  7896	041742	577775	000000
  7897	041743	000000	000000
  7898	041744	577777	000000
  7899	041745	000000	000000
  7900	041746	577774	000000
  7901	041747	000000	000000
  7902	041750	210777	777777
  7903	041751	000000	000000
  7904	041752	170750	000000
  7905	041753	000000	000000
  7906	041754	221414	456123
  7907	041755	150726	020622
  7908	041756	150726	020623
  7909	041757	170555	000000
  7910	041760	000000	000000
  7911	041761	221547	063714
  7912	041762	314631	463146
  7913	041763	577000	555555
  7914	041764	000000	000000
  7915	041765	576000	555555
  7916	041766	210777	777777
  7917	041767	777777	777777
  7918	041770	221547	063715
  7919	041771	200263	431746
  7920	041772	210777	777775
  7921	041773	000000	000000
  7922	041774	221547	063713
  7923	041775	145545	545545
  7924	041776	145545	545546
  7925	041777	377400	000000
  7926	042000	555000	000000
  7927	042001	100777	000000
  7928	042002	000000	000000
  7929	042003	077400	400400
  7930	042004	355355	355355
  7931	042005	373400	000000
  7932	042006	200777	000000
  7933	042007	073400	400401
  7934	042010	001400	400400
  7935	042011	001400	400401DBKCE	PDP-10 KI10 ADVANCED INSTRUCTION DIAGNOSTIC #5, VERSION 0,3 	MACRO %52(462) 13:32  9-AUG-76 PAGE 1-17
STOR	KLM	 5-JAN-76		*STOR* RESERVED STORAGE, JAN 5,1976                                                SEQ 0175

  7936	042012	201400	000001
  7937	042013	200000	003000
  7938	042014	170555	600000
  7939	042015	000000	000000
  7940	042016	221546	272702
  7941	042017	301417	730633
  7942	042020	301417	730634
  7943	042021	170557	000000
  7944	042022	000000	000000
  7945	042023	221545	111740
  7946	042024	234200	262444
  7947	042025	234200	262445
  7948	042026	170560	000000
  7949	042027	000000	000000
  7950	042030	221544	131025
  7951	042031	220544	131026
  7952	042032	200200	200200
  7953	042033	376400	000000
  7954	042034	000000	000000
  7955	042035	076400	400400
  7956	042036	375400	000000
  7957	042037	000000	000000
  7958	042040	075400	400400
  7959	042041	374400	000000
  7960	042042	000000	000000
  7961	042043	074400	400400
  7962	042044	373400	000000
  7963	042045	000000	000000
  7964	042046	073400	400400
  7965	042047	372400	000000
  7966	042050	000000	000000
  7967	042051	072400	400400
  7968	042052	210777	000000
  7969	042053	000000	000000
  7970	042054	170400	400400
  7971	042055	371400	000000
  7972	042056	000000	000000
  7973	042057	071400	400400
  7974	042060	370400	000000
  7975	042061	000000	000000
  7976	042062	070400	400400
  7977	042063	367400	000000
  7978	042064	000000	000000
  7979	042065	067400	400400
  7980	042066	000000	037507
  7981	042067	376777	777777
  7982	042070	777777	777777
  7983	042071	000000	037530
  7984	042072	000000	037547
  7985	042073	000000	037570
  7986	042074	000000	037607
  7987	042075	000000	037630
  7988	042076	000000	037647
  7989	042077	000000	037670
  7990	042100	000000	037707DBKCE	PDP-10 KI10 ADVANCED INSTRUCTION DIAGNOSTIC #5, VERSION 0,3 	MACRO %52(462) 13:32  9-AUG-76 PAGE 1-18
STOR	KLM	 5-JAN-76		*STOR* RESERVED STORAGE, JAN 5,1976                                                SEQ 0176

  7991	042101	000000	037726
  7992	042102	201200	000000
  7993	042103	000000	000000
  7994	042104	002000	010000
  7995	042105	76 64 45 63 64 00
  7996	042106	60 41 63 63 00 43
  7997	042107	57 65 56 64 00 35
  7998	042110	00 77 00 00 00 00
  7999	042111	76 60 43 00 35 00
  8000	042112	00 00 77 00 00 00
  8001	042113	76 62 45 63 65 54
  8002	042114	64 00 00 35 00 77
  8003	042115	76 46 41 65 54 64
  8004	042116	00 56 65 55 42 45
  8005	042117	62 00 35 00 77 00
  8006	042120	103 050 101 103 051
  8007	042121	040 106 101 111 114
  8008	042122	105 104 000 000 000
  8009	042123	103 050 101 103 053
  8010	042124	061 051 040 106 101
  8011	042125	111 114 105 104 000
  8012	042126	103 050 105 051 040
  8013	042127	106 101 111 114 105
  8014	042130	104 000 000 000 000
  8015	042131	103 050 105 053 061
  8016	042132	051 040 106 101 111
  8017	042133	114 105 104 000 000
  8018	042134	103 050 103 050 101
  8019	042135	103 122 051 051 040
  8020	042136	106 101 111 114 105
  8021	042137	104 000 000 000 000
  8022	042140	103 050 103 050 101
  8023	042141	103 122 053 061 051
  8024	042142	051 040 106 101 111
  8025	042143	114 105 104 000 000
  8026	042144	103 050 103 050 101
  8027	042145	103 114 051 051 040
  8028	042146	106 101 111 114 105
  8029	042147	104 000 000 000 000
  8030	042150	103 050 103 050 105
  8031	042151	051 051 040 106 101
  8032	042152	111 114 105 104 000
  8033	042153	106 114 101 107 040
  8034	042154	106 101 111 114 105
  8035	042155	104 000 000 000 000
  8036						LIST
  8037	042156	000000	000000		ENDSLD:	0
  8038
  8039					IFDEF	DEBUG,<
  8040	042157				PATCH:	BLOCK DEBUG		;PATCHING AREA
  8041					>
  8042
  8043					;PROGRAM VARIABLES
  8044	042257					VAR
  8045DBKCE	PDP-10 KI10 ADVANCED INSTRUCTION DIAGNOSTIC #5, VERSION 0,3 	MACRO %52(462) 13:32  9-AUG-76 PAGE 1-19
STOR	KLM	 5-JAN-76		*STOR* RESERVED STORAGE, JAN 5,1976                                                SEQ 0177

  8046					IFDEF	PGMEND,<
  8047	042267	000000	000000		END:	0
  8048			030000			END	BEGIN	>

NO ERRORS DETECTED

PROGRAM BREAK IS 000000
ABSLUTE BREAK IS 042270
CPU TIME USED 00:28.088

11K CORE USED
ABORT	   211#
AC	   798#	   800	   801	   802	   803	   808	   810	   812	   813	   814	   815	   816	   831	   833     SEQ 0178
	   835	   836	   837	   838	   839	   845	   847	   849	   850	   851	   852	   853	   859	   861
	   863	   864	   865	   866	   867	   873	   875	   877	   878	   879	   880	   881	   887	   889
	   891	   892	   893	   894	   895	   901	   903	   905	   906	   907	   908	   909	   915	   917
	   919	   920	   921	   922	   923	   929	   931	   933	   934	   935	   936	   937	   952	   954
	   956	   957	   958	   959	   960	   966	   968	   970	   971	   972	   973	   974	   980	   982
	   984	   985	   986	   987	   988	   994	   996	   998	   999	  1000	  1001	  1002	  1008	  1010
	  1012	  1013	  1014	  1015	  1016	  1022	  1024	  1026	  1027	  1028	  1029	  1030	  1036	  1038
	  1040	  1041	  1042	  1043	  1044	  1050	  1052	  1054	  1055	  1056	  1057	  1058	  1064	  1066
	  1068	  1069	  1070	  1071	  1072	  1078	  1080	  1082	  1083	  1084	  1085	  1086	  1092	  1094
	  1096	  1097	  1098	  1099	  1100	  1106	  1108	  1110	  1111	  1112	  1113	  1114	  1120	  1122
	  1124	  1125	  1126	  1127	  1128	  1134	  1136	  1138	  1139	  1140	  1141	  1142	  1148	  1150
	  1152	  1153	  1154	  1155	  1156	  1162	  1164	  1166	  1167	  1168	  1169	  1170	  1176	  1178
	  1180	  1181	  1182	  1183	  1184	  1190	  1192	  1194	  1195	  1196	  1197	  1198	  1213	  1215
	  1217	  1218	  1219	  1220	  1221	  1227	  1229	  1231	  1232	  1233	  1234	  1235	  1241	  1243
	  1245	  1246	  1247	  1248	  1249	  1255	  1257	  1259	  1260	  1261	  1262	  1263	  1269	  1271
	  1273	  1274	  1275	  1276	  1277	  1283	  1285	  1287	  1288	  1289	  1290	  1291	  1297	  1299
	  1301	  1302	  1303	  1304	  1305	  1311	  1313	  1315	  1316	  1317	  1318	  1319	  1325	  1327
	  1329	  1330	  1331	  1332	  1333	  1339	  1341	  1343	  1344	  1345	  1346	  1347	  1353	  1355
	  1357	  1358	  1359	  1360	  1361	  1367	  1369	  1371	  1372	  1373	  1374	  1375	  1381	  1383
	  1385	  1386	  1387	  1388	  1389	  1395	  1397	  1399	  1400	  1401	  1402	  1403	  1409	  1411
	  1413	  1414	  1415	  1416	  1417	  1423	  1425	  1427	  1428	  1429	  1430	  1431	  1437	  1439
	  1441	  1442	  1443	  1444	  1445	  1460	  1462	  1464	  1465	  1466	  1467	  1468	  1474	  1476
	  1478	  1479	  1480	  1481	  1482	  1488	  1490	  1492	  1493	  1494	  1495	  1496	  1502	  1504
	  1506	  1507	  1508	  1509	  1510	  1516	  1518	  1520	  1521	  1522	  1523	  1524	  1530	  1532
	  1534	  1535	  1536	  1537	  1538	  1544	  1546	  1548	  1549	  1550	  1551	  1552	  1558	  1560
	  1562	  1563	  1564	  1565	  1566	  1572	  1574	  1576	  1577	  1578	  1579	  1580	  1586	  1588
	  1590	  1591	  1592	  1593	  1594	  1600	  1602	  1604	  1605	  1606	  1607	  1608	  1614	  1616
	  1618	  1619	  1620	  1621	  1622	  1628	  1630	  1632	  1633	  1634	  1635	  1636	  1642	  1644
	  1646	  1647	  1648	  1649	  1650	  1656	  1658	  1660	  1661	  1662	  1663	  1664	  1670	  1672
	  1674	  1675	  1676	  1677	  1678	  1684	  1686	  1688	  1689	  1690	  1691	  1692	  1698	  1700
	  1702	  1703	  1704	  1705	  1706	  1727	  1729	  1731	  1732	  1733	  1734	  1735	  1743	  1745
	  1747	  1748	  1749	  1750	  1751	  1759	  1761	  1763	  1764	  1765	  1766	  1767	  1775	  1777
	  1779	  1780	  1781	  1782	  1783	  1791	  1793	  1795	  1796	  1797	  1798	  1799	  1807	  1809
	  1811	  1812	  1813	  1814	  1815	  1823	  1825	  1827	  1828	  1829	  1830	  1831	  1839	  1841
	  1843	  1844	  1845	  1846	  1847	  1855	  1857	  1859	  1860	  1861	  1862	  1863	  1880	  1882
	  1884	  1885	  1886	  1887	  1888	  1895	  1897	  1899	  1900	  1901	  1902	  1903	  1910	  1912
	  1914	  1915	  1916	  1917	  1918	  1925	  1927	  1929	  1930	  1931	  1932	  1933	  1940	  1942
	  1944	  1945	  1946	  1947	  1948	  1955	  1957	  1959	  1960	  1961	  1962	  1963	  1970	  1972
	  1974	  1975	  1976	  1977	  1978	  1985	  1987	  1989	  1990	  1991	  1992	  1993	  2000	  2002
	  2004	  2005	  2006	  2007	  2008	  2015	  2017	  2019	  2020	  2021	  2022	  2023	  2040	  2042
	  2044	  2045	  2046	  2047	  2048	  2055	  2057	  2059	  2060	  2061	  2062	  2063	  2070	  2072
	  2074	  2075	  2076	  2077	  2078	  2085	  2087	  2089	  2090	  2091	  2092	  2093	  2100	  2102
	  2104	  2105	  2106	  2107	  2108	  2115	  2117	  2119	  2120	  2121	  2122	  2123	  2130	  2132
	  2134	  2135	  2136	  2137	  2138	  2145	  2147	  2149	  2150	  2151	  2152	  2153	  2169	  2171
	  2173	  2174	  2175	  2176	  2177	  2184	  2186	  2188	  2189	  2190	  2191	  2192	  2199	  2201
	  2203	  2204	  2205	  2206	  2207	  2214	  2216	  2218	  2219	  2220	  2221	  2222	  2229	  2231
	  2233	  2234	  2235	  2236	  2237	  2244	  2246	  2248	  2249	  2250	  2251	  2252	  2259	  2261
	  2263	  2264	  2265	  2266	  2267	  2274	  2276	  2278	  2279	  2280	  2281	  2282	  2289	  2291
	  2293	  2294	  2295	  2296	  2297	  2314	  2316	  2318	  2319	  2320	  2321	  2322	  2329	  2331
	  2333	  2334	  2335	  2336	  2337	  2344	  2346	  2348	  2349	  2350	  2351	  2352	  2359	  2361
	  2363	  2364	  2365	  2366	  2367	  2374	  2376	  2378	  2379	  2380	  2381	  2382	  2389	  2391	  2393	  2394	  2395	  2396	  2397	  2404	  2406	  2408	  2409	  2410	  2411	  2412	  2419	  2421
	  2423	  2424	  2425	  2426	  2427	  2444	  2446	  2448	  2449	  2450	  2451	  2452	  2459	  2461     SEQ 0179
	  2463	  2464	  2465	  2466	  2467	  2474	  2476	  2478	  2479	  2480	  2481	  2482	  2489	  2491
	  2493	  2494	  2495	  2496	  2497	  2504	  2506	  2508	  2509	  2510	  2511	  2512	  2519	  2521
	  2523	  2524	  2525	  2526	  2527	  2534	  2536	  2538	  2539	  2540	  2541	  2542	  2549	  2551
	  2553	  2554	  2555	  2556	  2557	  2564	  2566	  2568	  2569	  2570	  2571	  2572	  2579	  2581
	  2583	  2584	  2585	  2586	  2587	  2605	  2607	  2609	  2610	  2611	  2612	  2613	  2620	  2622
	  2624	  2625	  2626	  2627	  2628	  2635	  2637	  2639	  2640	  2641	  2642	  2643	  2650	  2652
	  2654	  2655	  2656	  2657	  2658	  2665	  2667	  2669	  2670	  2671	  2672	  2673	  2680	  2682
	  2684	  2685	  2686	  2687	  2688	  2695	  2697	  2699	  2700	  2701	  2702	  2703	  2710	  2712
	  2714	  2715	  2716	  2717	  2718	  2724	  2726	  2728	  2729	  2730	  2731	  2732	  2733	  2736
	  2738	  2740	  2741	  2742	  2743	  2744	  2747	  2749	  2751	  2752	  2753	  2754	  2755	  2758
	  2760	  2762	  2763	  2764	  2765	  2766	  2769	  2771	  2773	  2774	  2775	  2776	  2777	  2780
	  2782	  2784	  2785	  2786	  2787	  2788	  2791	  2793	  2795	  2796	  2797	  2798	  2799	  2802
	  2804	  2806	  2807	  2808	  2809	  2810	  2813	  2815	  2817	  2818	  2819	  2820	  2821	  2824
	  2826	  2828	  2829	  2830	  2831	  2832	  2835	  2837	  2839	  2840	  2841	  2842	  2843	  2846
	  2848	  2850	  2851	  2852	  2853	  2854	  2857	  2859	  2861	  2862	  2863	  2864	  2865	  2868
	  2870	  2872	  2873	  2874	  2875	  2876	  2879	  2881	  2883	  2884	  2885	  2886	  2887	  2890
	  2892	  2894	  2895	  2896	  2897	  2898	  2901	  2903	  2905	  2906	  2907	  2908	  2909	  2912
	  2914	  2916	  2917	  2918	  2919	  2920	  2923	  2925	  2927	  2928	  2929	  2930	  2931	  2934
	  2936	  2938	  2939	  2940	  2941	  2942	  2945	  2947	  2949	  2950	  2951	  2952	  2953	  2956
	  2958	  2960	  2961	  2962	  2963	  2964	  2967	  2969	  2971	  2972	  2973	  2974	  2975	  2978
	  2980	  2982	  2983	  2984	  2985	  2986	  2989	  2991	  2993	  2994	  2995	  2996	  2997	  3000
	  3002	  3004	  3005	  3006	  3007	  3008	  3011	  3013	  3015	  3016	  3017	  3018	  3019	  3022
	  3024	  3026	  3027	  3028	  3029	  3030	  3033	  3035	  3037	  3038	  3039	  3040	  3041	  3044
	  3046	  3048	  3049	  3050	  3051	  3052	  3055	  3057	  3059	  3060	  3061	  3062	  3063	  3066
	  3068	  3070	  3071	  3072	  3073	  3074	  3077	  3079	  3081	  3082	  3083	  3084	  3085	  3088
	  3090	  3092	  3093	  3094	  3095	  3096	  3099	  3101	  3103	  3104	  3105	  3106	  3107	  3110
	  3112	  3114	  3115	  3116	  3117	  3118	  3121	  3123	  3125	  3126	  3127	  3128	  3129	  3132
	  3134	  3136	  3137	  3138	  3139	  3140	  3143	  3145	  3147	  3148	  3149	  3150	  3151	  3154
	  3156	  3158	  3159	  3160	  3161	  3162	  3165	  3167	  3169	  3170	  3171	  3172	  3173	  3176
	  3178	  3180	  3181	  3182	  3183	  3184	  3187	  3189	  3191	  3192	  3193	  3194	  3195	  3198
	  3200	  3202	  3203	  3204	  3205	  3206	  3209	  3211	  3213	  3214	  3215	  3216	  3217	  3220
	  3222	  3224	  3225	  3226	  3227	  3228	  3231	  3233	  3235	  3236	  3237	  3238	  3239	  3243
	  3245	  3247	  3248	  3249	  3250	  3251	  3254	  3256	  3258	  3259	  3260	  3261	  3262	  3265
	  3267	  3269	  3270	  3271	  3272	  3273	  3276	  3278	  3280	  3281	  3282	  3283	  3284	  3287
	  3289	  3291	  3292	  3293	  3294	  3295	  3298	  3300	  3302	  3303	  3304	  3305	  3306	  3309
	  3311	  3313	  3314	  3315	  3316	  3317	  3320	  3322	  3324	  3325	  3326	  3327	  3328	  3331
	  3333	  3335	  3336	  3337	  3338	  3339	  3342	  3344	  3346	  3347	  3348	  3349	  3350	  3353
	  3355	  3357	  3358	  3359	  3360	  3361	  3364	  3366	  3368	  3369	  3370	  3371	  3372	  3375
	  3377	  3379	  3380	  3381	  3382	  3383	  3386	  3388	  3390	  3391	  3392	  3393	  3394	  3397
	  3399	  3401	  3402	  3403	  3404	  3405	  3408	  3410	  3412	  3413	  3414	  3415	  3416	  3419
	  3421	  3423	  3424	  3425	  3426	  3427	  3430	  3432	  3434	  3435	  3436	  3437	  3438	  3441
	  3443	  3445	  3446	  3447	  3448	  3449	  3452	  3454	  3456	  3457	  3458	  3459	  3460	  3463
	  3465	  3467	  3468	  3469	  3470	  3471	  3474	  3476	  3478	  3479	  3480	  3481	  3482	  3485
	  3487	  3489	  3490	  3491	  3492	  3493	  3496	  3498	  3500	  3501	  3502	  3503	  3504	  3507
	  3509	  3511	  3512	  3513	  3514	  3515	  3518	  3520	  3522	  3523	  3524	  3525	  3526	  3529
	  3531	  3533	  3534	  3535	  3536	  3537	  3541	  3543	  3545	  3546	  3547	  3548	  3549	  3552
	  3554	  3556	  3557	  3558	  3559	  3560	  3563	  3565	  3567	  3568	  3569	  3570	  3571	  3574
	  3576	  3578	  3579	  3580	  3581	  3582	  3585	  3587	  3589	  3590	  3591	  3592	  3593	  3596
	  3598	  3600	  3601	  3602	  3603	  3604	  3607	  3609	  3611	  3612	  3613	  3614	  3615	  3618
	  3620	  3622	  3623	  3624	  3625	  3626	  3629	  3631	  3633	  3634	  3635	  3636	  3637	  3640
	  3642	  3644	  3645	  3646	  3647	  3648	  3651	  3653	  3655	  3656	  3657	  3658	  3659	  3662	  3664	  3666	  3667	  3668	  3669	  3670	  3673	  3675	  3677	  3678	  3679	  3680	  3681	  3684
	  3686	  3688	  3689	  3690	  3691	  3692	  3695	  3697	  3699	  3700	  3701	  3702	  3703	  3706     SEQ 0180
	  3708	  3710	  3711	  3712	  3713	  3714	  3717	  3719	  3721	  3722	  3723	  3724	  3725	  3728
	  3730	  3732	  3733	  3734	  3735	  3736	  3739	  3741	  3743	  3744	  3745	  3746	  3747	  3750
	  3752	  3754	  3755	  3756	  3757	  3758	  3761	  3763	  3765	  3766	  3767	  3768	  3769	  3772
	  3774	  3776	  3777	  3778	  3779	  3780	  3783	  3785	  3787	  3788	  3789	  3790	  3791	  3794
	  3796	  3798	  3799	  3800	  3801	  3802	  3805	  3807	  3809	  3810	  3811	  3812	  3813	  3816
	  3818	  3820	  3821	  3822	  3823	  3824	  3827	  3829	  3831	  3832	  3833	  3834	  3835	  3838
	  3840	  3842	  3843	  3844	  3845	  3846	  3849	  3851	  3853	  3854	  3855	  3856	  3857	  3860
	  3862	  3864	  3865	  3866	  3867	  3868	  3871	  3873	  3875	  3876	  3877	  3878	  3879	  3882
	  3884	  3886	  3887	  3888	  3889	  3890	  3893	  3895	  3897	  3898	  3899	  3900	  3901	  3904
	  3906	  3908	  3909	  3910	  3911	  3912	  3915	  3917	  3919	  3920	  3921	  3922	  3923	  3926
	  3928	  3930	  3931	  3932	  3933	  3934	  3937	  3939	  3941	  3942	  3943	  3944	  3945	  3948
	  3950	  3952	  3953	  3954	  3955	  3956	  3959	  3961	  3963	  3964	  3965	  3966	  3967	  3970
	  3972	  3974	  3975	  3976	  3977	  3978	  3981	  3983	  3985	  3986	  3987	  3988	  3989	  3992
	  3994	  3996	  3997	  3998	  3999	  4000	  4003	  4005	  4007	  4008	  4009	  4010	  4011	  4014
	  4016	  4018	  4019	  4020	  4021	  4022	  4025	  4027	  4029	  4030	  4031	  4032	  4033	  4036
	  4038	  4040	  4041	  4042	  4043	  4044	  4047	  4049	  4051	  4052	  4053	  4054	  4055	  4058
	  4060	  4062	  4063	  4064	  4065	  4066	  4069	  4071	  4073	  4074	  4075	  4076	  4077	  4080
	  4082	  4084	  4085	  4086	  4087	  4088	  4091	  4093	  4095	  4096	  4097	  4098	  4099	  4102
	  4104	  4106	  4107	  4108	  4109	  4110	  4113	  4115	  4117	  4118	  4119	  4120	  4121	  4124
	  4126	  4128	  4129	  4130	  4131	  4132	  4135	  4137	  4139	  4140	  4141	  4142	  4143	  4146
	  4148	  4150	  4151	  4152	  4153	  4154	  4157	  4159	  4161	  4162	  4163	  4164	  4165	  4168
	  4170	  4172	  4173	  4174	  4175	  4176	  4179	  4181	  4183	  4184	  4185	  4186	  4187	  4190
	  4192	  4194	  4195	  4196	  4197	  4198	  4201	  4203	  4205	  4206	  4207	  4208	  4209	  4212
	  4214	  4216	  4217	  4218	  4219	  4220	  4223	  4225	  4227	  4228	  4229	  4230	  4231	  4234
	  4236	  4238	  4239	  4240	  4241	  4242	  4245	  4247	  4249	  4250	  4251	  4252	  4253	  4256
	  4258	  4260	  4261	  4262	  4263	  4264	  4267	  4269	  4271	  4272	  4273	  4274	  4275	  4278
	  4280	  4282	  4283	  4284	  4285	  4286	  4289	  4291	  4293	  4294	  4295	  4296	  4297	  4300
	  4302	  4304	  4305	  4306	  4307	  4308	  4311	  4313	  4315	  4316	  4317	  4318	  4319	  4322
	  4324	  4326	  4327	  4328	  4329	  4330	  4333	  4335	  4337	  4338	  4339	  4340	  4341	  4344
	  4346	  4348	  4349	  4350	  4351	  4352	  4355	  4357	  4359	  4360	  4361	  4362	  4363	  4366
	  4368	  4370	  4371	  4372	  4373	  4374	  4377	  4379	  4381	  4382	  4383	  4384	  4385	  4388
	  4390	  4392	  4393	  4394	  4395	  4396	  4399	  4401	  4403	  4404	  4405	  4406	  4407	  4410
	  4412	  4414	  4415	  4416	  4417	  4418	  4421	  4423	  4425	  4426	  4427	  4428	  4429	  4432
	  4434	  4436	  4437	  4438	  4439	  4440	  4443	  4445	  4447	  4448	  4449	  4450	  4451	  4454
	  4456	  4458	  4459	  4460	  4461	  4462	  4465	  4467	  4469	  4470	  4471	  4472	  4473	  4476
	  4478	  4480	  4481	  4482	  4483	  4484	  4487	  4489	  4491	  4492	  4493	  4494	  4495	  4498
	  4500	  4502	  4503	  4504	  4505	  4506	  4509	  4511	  4513	  4514	  4515	  4516	  4517	  4520#
	  4522	  4523	  4524	  4525	  4528	  4530	  4532	  4533	  4534	  4535	  4536	  4539	  4542	  4543
	  4544	  4545	  4548	  4550	  4552	  4553	  4554	  4555	  4556	  4558	  4560	  4561	  4562	  4563
	  4565	  4567	  4569	  4570	  4571	  4572	  4573	  4576	  4579	  4580	  4581	  4582	  4585	  4587
	  4589	  4590	  4591	  4592	  4593	  4595	  4597	  4598	  4599	  4600	  4602	  4604	  4606	  4607
	  4608	  4609	  4610	  4613	  4616	  4617	  4618	  4619	  4622	  4624	  4626	  4627	  4628	  4629
	  4630	  4632	  4634	  4635	  4636	  4637	  4639	  4641	  4643	  4644	  4645	  4646	  4647	  4650
	  4653	  4654	  4655	  4656	  4659	  4661	  4663	  4664	  4665	  4666	  4667	  4669	  4671	  4672
	  4673	  4674	  4677#	  4679	  4680	  4681	  4682	  4686	  4688	  4690	  4691	  4692	  4693	  4694
	  4695	  4698	  4700	  4702	  4703	  4704	  4705	  4706	  4709	  4711	  4713	  4714	  4715	  4716
	  4717	  4720	  4722	  4724	  4725	  4726	  4727	  4728	  4731	  4733	  4735	  4736	  4737	  4738
	  4739	  4742	  4744	  4746	  4747	  4748	  4749	  4750	  4753	  4755	  4757	  4758	  4759	  4760
	  4761	  4764	  4766	  4768	  4769	  4770	  4771	  4772	  4775#	  4777	  4778	  4779	  4780	  4783
	  4785	  4787	  4788	  4789	  4790	  4791	  4794	  4797	  4798	  4799	  4800	  4803	  4805	  4807
	  4808	  4809	  4810	  4811	  4813	  4815	  4816	  4817	  4818	  4820	  4822	  4824	  4825	  4826	  4827	  4828	  4831	  4834	  4835	  4836	  4837	  4840	  4842	  4844	  4845	  4846	  4847	  4848
	  4850	  4852	  4853	  4854	  4855	  4857	  4859	  4861	  4862	  4863	  4864	  4865	  4868	  4871     SEQ 0181
	  4872	  4873	  4874	  4877	  4879	  4881	  4882	  4883	  4884	  4885	  4887	  4889	  4890	  4891
	  4892	  4894	  4896	  4898	  4899	  4900	  4901	  4902	  4905	  4908	  4909	  4910	  4911	  4914
	  4916	  4918	  4919	  4920	  4921	  4922	  4924	  4926	  4927	  4928	  4929	  4932#	  4934	  4935
	  4936	  4937	  4941	  4943	  4945	  4946	  4947	  4948	  4949	  4950	  4953	  4955	  4957	  4958
	  4959	  4960	  4961	  4964	  4966	  4968	  4969	  4970	  4971	  4972	  4975	  4977	  4979	  4980
	  4981	  4982	  4983	  4986	  4988	  4990	  4991	  4992	  4993	  4994	  4997	  4999	  5001	  5002
	  5003	  5004	  5005	  5008	  5010	  5012	  5013	  5014	  5015	  5016	  5019	  5021	  5023	  5024
	  5025	  5026	  5027	  5030	  5032	  5034	  5035	  5036	  5037	  5038	  5041	  5043	  5045	  5046
	  5047	  5048	  5049	  5052	  5054	  5056	  5057	  5058	  5059	  5060	  5063	  5065	  5067	  5068
	  5069	  5070	  5071	  5074	  5076	  5078	  5079	  5080	  5081	  5082	  5085	  5087	  5089	  5090
	  5091	  5092	  5093	  5096	  5098	  5100	  5101	  5102	  5103	  5104	  5107	  5109	  5111	  5112
	  5113	  5114	  5115	  5118	  5120	  5122	  5123	  5124	  5125	  5126	  5129	  5131	  5133	  5134
	  5135	  5136	  5137	  5140	  5142	  5144	  5145	  5146	  5147	  5148	  5151	  5153	  5155	  5156
	  5157	  5158	  5159	  5162	  5164	  5166	  5167	  5168	  5169	  5170	  5174	  5176	  5178	  5179
	  5180	  5181	  5182	  5185	  5187	  5189	  5190	  5191	  5192	  5193	  5196	  5198	  5200	  5201
	  5202	  5203	  5204	  5207	  5209	  5211	  5212	  5213	  5214	  5215	  5218	  5220	  5222	  5223
	  5224	  5225	  5226	  5229	  5231	  5233	  5234	  5235	  5236	  5237	  5240	  5242	  5244	  5245
	  5246	  5247	  5248	  5251	  5253	  5255	  5256	  5257	  5258	  5259	  5262	  5264	  5266	  5267
	  5268	  5269	  5270	  5273	  5275	  5277	  5278	  5279	  5280	  5281	  5284	  5286	  5288	  5289
	  5290	  5291	  5292	  5295	  5297	  5299	  5300	  5301	  5302	  5303	  5306	  5308	  5310	  5311
	  5312	  5313	  5314	  5317	  5319	  5323	  5324	  5325	  5326	  5327	  5330	  5331	  5332	  5333
	  5339	  5341	  5345	  5346	  5347	  5348	  5349	  5352	  5353	  5354	  5355	  5361	  5363	  5367
	  5368	  5369	  5370	  5371	  5374	  5375	  5376	  5377	  5383	  5385	  5389	  5390	  5391	  5392
	  5393	  5396	  5397	  5398	  5399	  5405	  5407	  5411	  5412	  5413	  5414	  5415	  5418	  5419
	  5420	  5421	  5427	  5429	  5433	  5434	  5435	  5436	  5437	  5440	  5441	  5442	  5443	  5449
	  5451	  5455	  5456	  5457	  5458	  5459	  5462	  5463	  5464	  5465	  5471	  5473	  5477	  5478
	  5479	  5480	  5481	  5484	  5485	  5486	  5487	  5493	  5495	  5499	  5500	  5501	  5502	  5503
	  5506	  5507	  5508	  5509	  5515	  5517	  5521	  5522	  5523	  5524	  5525	  5528	  5529	  5530
	  5531	  5537	  5539	  5543	  5544	  5545	  5546	  5547	  5550	  5551	  5552	  5553	  5559	  5561
	  5565	  5566	  5567	  5568	  5569	  5572	  5573	  5574	  5575	  5581	  5583	  5587	  5588	  5589
	  5590	  5591	  5594	  5595	  5596	  5597	  5603	  5605	  5609	  5610	  5611	  5612	  5613	  5616
	  5617	  5618	  5619	  5625	  5627	  5629	  5630	  5631	  5632	  5633	  5636	  5638	  5640	  5641
	  5642	  5643	  5644	  5647	  5649	  5651	  5652	  5653	  5654	  5655	  5658	  5660	  5662	  5663
	  5664	  5665	  5666	  5669	  5671	  5673	  5674	  5675	  5676	  5677	  5680	  5682	  5684	  5685
	  5686	  5687	  5688	  5691	  5693	  5695	  5696	  5697	  5698	  5699	  5702	  5704	  5706	  5707
	  5708	  5709	  5710	  5713	  5715	  5717	  5718	  5719	  5720	  5721	  5724	  5726	  5728	  5729
	  5730	  5731	  5732	  5735	  5737	  5739	  5740	  5741	  5742	  5743	  5746	  5748	  5750	  5751
	  5752	  5753	  5754	  5757	  5759	  5761	  5762	  5763	  5764	  5765	  5768	  5770	  5774	  5775
	  5776	  5777	  5778	  5781	  5782	  5783	  5784	  5790	  5792	  5794	  5795	  5796	  5797	  5798
	  5801	  5803	  5805	  5806	  5807	  5808	  5809	  5812	  5814	  5816	  5817	  5818	  5819	  5820
	  5823	  5825	  5827	  5828	  5829	  5830	  5831	  5834	  5836	  5838	  5839	  5840	  5841	  5842
	  5845	  5847	  5849	  5850	  5851	  5852	  5853	  5856	  5858	  5860	  5861	  5862	  5863	  5864
	  5867	  5869	  5871	  5872	  5873	  5874	  5875	  5878	  5880	  5882	  5883	  5884	  5885	  5886
	  5889#	  5891	  5892	  5893	  5894	  5897	  5899	  5901	  5902	  5903	  5904	  5905	  5908	  5911
	  5912	  5913	  5914	  5917	  5919	  5921	  5922	  5923	  5924	  5925	  5927	  5929	  5930	  5931
	  5932	  5934	  5936	  5938	  5939	  5940	  5941	  5942	  5945	  5948	  5949	  5950	  5951	  5954
	  5956	  5958	  5959	  5960	  5961	  5962	  5964	  5966	  5967	  5968	  5969	  5971	  5973	  5975
	  5976	  5977	  5978	  5979	  5982	  5985	  5986	  5987	  5988	  5991	  5993	  5995	  5996	  5997
	  5998	  5999	  6001	  6003	  6004	  6005	  6006	  6008	  6010	  6012	  6013	  6014	  6015	  6016
	  6019	  6022	  6023	  6024	  6025	  6028	  6030	  6032	  6033	  6034	  6035	  6036	  6038	  6040
	  6041	  6042	  6043	  6046#	  6048	  6049	  6050	  6051	  6055	  6057	  6059	  6060	  6061	  6062	  6063	  6064	  6067	  6069	  6071	  6072	  6073	  6074	  6075	  6078	  6080	  6082	  6083	  6084
	  6085	  6086	  6089	  6091	  6093	  6094	  6095	  6096	  6097	  6100	  6102	  6104	  6105	  6106     SEQ 0182
	  6107	  6108	  6111	  6113	  6115	  6116	  6117	  6118	  6119	  6122	  6124	  6126	  6127	  6128
	  6129	  6130	  6133	  6135	  6137	  6138	  6139	  6140	  6141	  6144	  6146	  6148	  6149	  6150
	  6151	  6152	  6155	  6157	  6159	  6160	  6161	  6162	  6163	  6166	  6168	  6170	  6171	  6172
	  6173	  6174	  6177	  6179	  6181	  6182	  6183	  6184	  6185	  6188	  6190	  6192	  6193	  6194
	  6195	  6196	  6200	  6202	  6206	  6207	  6208	  6209	  6210	  6213	  6214	  6215	  6216	  6222
	  6224	  6226	  6227	  6228	  6229	  6230	  6233	  6235	  6237	  6238	  6239	  6240	  6241	  6245
	  6247	  6251	  6252	  6253	  6254	  6255	  6258	  6259	  6260	  6261	  6267	  6269	  6271	  6272
	  6273	  6274	  6275	  6278	  6280	  6282	  6283	  6284	  6285	  6286	  6289	  6291	  6293	  6294
	  6295	  6296	  6297	  6300	  6302	  6304	  6305	  6306	  6307	  6308	  6312	  6314	  6318	  6319
	  6320	  6321	  6322	  6325	  6326	  6327	  6328	  6334	  6336	  6338	  6339	  6340	  6341	  6342
	  6345	  6347	  6349	  6350	  6351	  6352	  6353	  6356	  6358	  6360	  6361	  6362	  6363	  6364
	  6368	  6370	  6374	  6375	  6376	  6377	  6378	  6381	  6382	  6383	  6384	  6390	  6392	  6394
	  6395	  6396	  6397	  6398	  6402	  6404	  6408	  6409	  6410	  6411	  6412	  6415	  6416	  6417
	  6418	  6424	  6426	  6428	  6429	  6430	  6431	  6432	  6435	  6437	  6439	  6440	  6441	  6442
	  6443	  6446	  6448	  6450	  6451	  6452	  6453	  6454	  6458	  6460	  6464	  6465	  6466	  6467
	  6468	  6471	  6472	  6473	  6474	  6481	  6483	  6487	  6488	  6489	  6490	  6491	  6494	  6495
	  6496	  6497	  6503	  6505	  6507	  6508	  6509	  6510	  6511	  6514	  6516	  6518	  6519	  6520
	  6521	  6522	  6525	  6527	  6529	  6530	  6531	  6532	  6533	  6536	  6538	  6540	  6541	  6542
	  6543	  6544	  6547	  6549	  6551	  6552	  6553	  6554	  6555	  6558	  6560	  6562	  6563	  6564
	  6565	  6566	  6569	  6571	  6573	  6574	  6575	  6576	  6577	  6580	  6582	  6584	  6585	  6586
	  6587	  6588	  6591	  6593	  6595	  6596	  6597	  6598	  6599	  6602	  6604	  6606	  6607	  6608
	  6609	  6610	  6613	  6615	  6617	  6618	  6619	  6620	  6621	  6624	  6626	  6628	  6629	  6630
	  6631	  6632	  6635#	  6637	  6638	  6639	  6640	  6643	  6645	  6647	  6648	  6649	  6650	  6651
	  6654	  6657	  6658	  6659	  6660	  6663	  6665	  6667	  6668	  6669	  6670	  6671	  6673	  6675
	  6676	  6677	  6678	  6680	  6682	  6684	  6685	  6686	  6687	  6688	  6691	  6694	  6695	  6696
	  6697	  6700	  6702	  6704	  6705	  6706	  6707	  6708	  6710	  6712	  6713	  6714	  6715	  6717
	  6719	  6721	  6722	  6723	  6724	  6725	  6728	  6731	  6732	  6733	  6734	  6737	  6739	  6741
	  6742	  6743	  6744	  6745	  6747	  6749	  6750	  6751	  6752	  6754	  6756	  6758	  6759	  6760
	  6761	  6762	  6765	  6768	  6769	  6770	  6771	  6774	  6776	  6778	  6779	  6780	  6781	  6782
	  6784	  6786	  6787	  6788	  6789	  6793	  6795	  6797	  6798	  6799	  6800	  6801	  6803	  6805
	  6806	  6807	  6808	  6813	  6815	  6817	  6818	  6819	  6820	  6821	  6823	  6825	  6826	  6827
	  6828
ALTMGO	   526#	  6965
AMCLRB	   440#
ANXM	   440#
APR	  6842	  6994
AROV	   440#
AROVTP	   440#
AROVU	   440#
AST	   641#
ATSIN	   642#
BEGEND	   522#	  6830
BEGIN	    73	    74	    85	    88	    89	    90	   453#	  8048
BEGIN1	   469#	   523
BELL	   645#
BIS	   440#
CCA	   440#
CE00	   795	   799#
CHAIN	   231#
CHNOFF	   440#
CHNON	   440#CLK	   440#
CLKCLR	   440#                                                                                                            SEQ 0183
CLKDIS	   440#
CLKENB	   440#
CLKU	   440#
CLOCKF	   508#
CNTLC	   525#
CNTRP	   440#
COMMA	   634#
CONSW	   509#	  6899	  6966	  6997
CPOPJ	   529#
CPOPJ1	   527#
CRLF	   360	   361	   629#
CRLF2	   364	   365	   631#
CRY0	   440#
CRY1	   440#
CSHFLG	   688#
CSHMEM	   689#
CTRP	   440#
CYCL60	   682#
DCK	   440#	  6806	  6826
DDTLNK	   245#	   467
DDTSRT	   467#
DEBUG	    64#	  8039	  8040
DECVER	     3#	    10	    23	   488
DF22F	   593#
DIAGMN	   456#
DING	   217#	  6971
DOLLAR	   648#
DSKUPD	   493
END	  8047#
ENDFIX	   762#
ENDSLD	  8037#
ERDIAG	    71#	  6884
ERMORE	   542#	  6957
ERRELB	  6954
ERRLOP	   803#	   803	  4525#	  4525	  4682#	  4682	  4780#	  4780	  4937#	  4937	  5894#	  5894	  6051#	  6051
	  6640#	  6640	  6864	  6976	  6979	  6980
ERRMES	    50	    51	    52	    53	    54	    55	    56	    57	    58	    59	    60	  6835#
ERRPC	   513#	  6847	  6881
ERRTLS	   514#	  6845	  6983
ERSTOP	   220#	  6967
EXCASB	    65#	   491	  6836	  6988
EXCMEM	   440#
EXCPFW	   440#
EXIOT	   440#
FOV	   440#
FOVU	   440#
FRDLNK	   243#
FSELNK	   242#
FXU	   440#	  4543	  4561	  4580	  4598	  4617	  4635	  4654	  4672	  4798	  4816	  4835	  4853	  4872
	  4890	  4909	  4927	  5912	  5930	  5949	  5967	  5986	  6004	  6023	  6041	  6658	  6676	  6695
	  6713	  6732	  6750	  6769	  6787HYPEN	   639#
IADBRK	   440#                                                                                                            SEQ 0184
IADEXC	   440#
IADSTP	   440#
IADUSR	   440#
IAPRC1	   440#
IAPRE1	   440#
IASRTC	   440#
IASRTE	   440#
IASRTS	   440#
ICNSLL	   440#
ICNSLR	   440#
IDATAF	   440#
IEVNPR	   440#
IFMMAN	   440#
IINSTF	   440#
IIOPFC	   440#
IIOPFL	   440#
IMAINT	   440#
IMGINM	   440#
IMGNLO	   440#
IMGNOF	   440#	  6842
IMGNON	   440#
IMIPGD	   440#
IMLAPD	   440#
INHCSH	   228#
INHPAG	   225#
INXCLR	   440#
INXM	   440#
INXSTP	   440#
IOCLR	   440#
IP50HZ	   440#
IPAREN	   440#
IPARER	   440#
IPRSTP	   440#
IPWRFL	   440#
IPWRLO	   440#
IRQCLR	   440#
ISPDOF	   440#	  6842
ISPDON	   440#
ITERAT	   104#	   486
ITMDIS	   440#
ITMENB	   440#
ITMOEN	   440#
ITMOUT	   440#
ITMSET	   440#
ITRCH1	   546#
ITRCNT	   486#
IWRITE	   440#
JOB41	   440#
JOBAPR	   440#
JOBCNI	   440#
JOBDDT	   440#JOBFF	   440#
JOBOPC	   440#	  6964                                                                                                     SEQ 0185
JOBREL	   440#
JOBREN	   440#
JOBSA	   440#
JOBSYM	   440#
JOBTPC	   440#
JOBUSY	   440#
JOBUUO	   440#
JOBVER	   440#
KA10	   440
KAHZ50	   233#
KAIFLG	   503#	  6837	  6989
KI10	    67#	   440	  6836	  6988
KL10	    68#	   440
KL10P0	    69#	   440
KLFLG	   504#	  5321	  5343	  5365	  5387	  5409	  5431	  5453	  5475	  5497	  5519	  5541	  5563	  5585
	  5607	  5772	  6204	  6249	  6316	  6372	  6406	  6462	  6485	  6851
KLOLD	    72#	   440
KLTYP	   720#
KNTRP	   440#
KTRP	   440#
LAPRAL	   440#
LAPRP1	   440#
LAPRP2	   440#
LAPRP3	   440#
LAPRP4	   440#
LAPRP5	   440#
LAPRP6	   440#
LAPRP7	   440#
LAROVT	   440#
LCADEN	   440#
LCADRP	   440#
LCASDE	   440#
LCASLD	   440#
LCASLO	   440#
LCASWB	   440#
LCASWD	   440#
LCCAER	   440#
LCCASD	   440#
LCHNOF	   440#
LCHNON	   440#
LCIOPF	   440#
LCNTRP	   440#
LCNTXT	   440#
LCNXER	   440#
LCPAER	   440#
LCPWRF	   440#
LCSAER	   440#
LCSBER	   440#
LCSLOA	   440#
LCSLOO	   440#
LCTRP	   440#LCWSX	   440#
LDATAF	   440#                                                                                                            SEQ 0186
LDCAER	   440#
LDCASD	   440#
LDEXCB	   440#
LDIOPF	   440#
LDLNK	   244#	   456	   458
LDNXER	   440#
LDPAER	   440#
LDPWRF	   440#
LDSAER	   440#
LDSBER	   440#
LDUSRB	   440#
LEBXMH	   440#
LEBXML	   440#
LECAER	   440#
LECASD	   440#
LEIOPF	   440#
LENXER	   440#
LEPAER	   440#
LEPWRF	   440#
LESAER	   440#
LESBER	   440#
LEUPFW	   440#
LEVNCD	   440#
LEVNPA	   440#
LEVNPD	   440#
LEXCMP	   440#
LFLGCL	   440#
LFLGDS	   440#
LFLGEN	   440#
LFLGST	   440#
LFP	   643#
LINSTF	   440#
LINT	   440#
LIOCLR	   440#
LIOPFE	   440#
LIP	   440#
LKNTRP	   440#
LKTRP	   440#
LLACBL	   440#
LLDUSB	   440#
LLPRCN	   440#
LMBXMH	   440#
LMBXML	   440#
LMUUO	   440#
LMUUOP	   440#
LNXMEN	   440#
LNXMER	   440#
LOOPER	   219#	  6969
LPAREN	   440#
LPARER	   440#
LPDOVT	   440#LPFWPC	   440#
LPGFTR	   440#                                                                                                            SEQ 0187
LPICH1	   440#
LPICH2	   440#
LPICH3	   440#
LPICH4	   440#
LPICH5	   440#
LPICH6	   440#
LPICH7	   440#
LPICHA	   440#
LPICLR	   440#
LPIIP1	   440#
LPIIP2	   440#
LPIIP3	   440#
LPIIP4	   440#
LPIIP5	   440#
LPIIP6	   440#
LPIIP7	   440#
LPIOFF	   440#
LPION	   440#
LPNTRP	   440#
LPRCH1	   440#
LPRCH2	   440#
LPRCH3	   440#
LPRCH4	   440#
LPRCH5	   440#
LPRCH6	   440#
LPRCH7	   440#
LPRFMH	   440#
LPRFML	   440#
LPTRP	   440#
LPWRFE	   440#
LPWRFL	   440#
LREQSE	   440#
LRQCLR	   440#
LSADEN	   440#
LSADRP	   440#
LSBSEN	   440#
LSBUSE	   440#
LSCAER	   440#
LSCASD	   440#
LSECMO	   440#
LSIOPF	   440#
LSMODE	   440#
LSNTRP	   440#
LSNXER	   440#
LSPAER	   440#
LSPWRF	   440#
LSSAER	   440#
LSSBER	   440#
LSTRP	   440#
LTBASH	   440#
LTBASL	   440#LTRP3T	   440#
LTRPAE	   440#                                                                                                            SEQ 0188
LTRPEN	   440#
LUSCMP	   440#
LUUO	   440#
LUUO1	    50#	   573	   574
LUUO10	    57#	   573	   578
LUUO11	    58#	   573	   578
LUUO12	    59#	   573	   579
LUUO13	    60#	   573	   579
LUUO14	   573	   580
LUUO15	   573	   580
LUUO16	   573	   581
LUUO17	   573	   581
LUUO2	    51#	   573	   575
LUUO20	   573	   582
LUUO21	   573	   582
LUUO22	   573	   583
LUUO23	   573	   583
LUUO24	   573	   584
LUUO25	   573	   584
LUUO26	   573	   585
LUUO27	   573	   585
LUUO3	    52#	   573	   575
LUUO30	   573	   586
LUUO31	   573	   586
LUUO32	   573	   587
LUUO33	   573	   587
LUUO4	    53#	   573	   576
LUUO5	    54#	   573	   576
LUUO6	    55#	   573	   577
LUUO7	    56#	   573	   577
LUUOI	   440#
LWRITE	   440#
MAPNEW	   594#
MARGIN	   516#	  6841	  6993	  6994
MCNVER	     4#	    10	    23	   488
MEMLOW	   596#
MEMMAP	   494
MEMSIZ	   597#
MEMTOT	   595#
MICNT	  6848#	  6848	  6849	  6866
MINUS	   638#
MODDVC	   227#
MODDVL	    74#	   425	   489
MODDVU	    73#	   426	   490
MODLNK	   246#	   453
MONCTL	   506#	  6867	  6981
MONFLG	   505#
MONTEN	   507#
MPVU	   440#
MUUO	   440#
MUUOPC	   440#NOPNT	   215#	  6857
NXMU	   440#                                                                                                            SEQ 0189
OPRSEL	   229#
OPTIME	   608#
P	   272	   273	   274	   275	   440#	   528
PAG	   440#
PALERS	   221#	  6998
PARCLR	   440#
PARDIS	   440#
PAREA1	    97#	   484
PAREA2	    98#	   485
PAREA3	    99#	   482
PAREA4	   100#	   483
PAREA5	   101#	   495
PAREA6	   102#	   496
PAREA7	   495#
PAREA8	   496#
PARENB	   440#
PARU	   440#
PASCNT	   510#	  6872	  6876
PATCH	  8040#
PDISF	   605#
PDLOVU	   440#
PDOVTP	   440#
PERIOD	   635#
PFSTRT	   462#
PGFTRP	   440#
PGMEND	    70#	  8046
PGMNAM	   487	   766#
PI	  6854
PICHN1	   440#
PICHN2	   440#
PICHN3	   440#
PICHN4	   440#
PICHN5	   440#
PICHN6	   440#
PICHN7	   440#
PICHNA	   440#
PICLR	   440#
PIOFF	   440#
PION	   440#
PLIST	   674#	   674
PLISTE	   674	   676#	   760
PLISTS	   675#
PLUS	   640#
PNTENB	   604#
PNTEXT	   483#
PNTFLG	   603#
PNTINH	   606#
PNTLPT	   216#
PNTNAM	   482#
PNTRP	   440#
PNTSPC	   607#PROCED	  6855#	  6855	  6970	  6977
PTRP	   440#                                                                                                            SEQ 0190
PVPAGI	   701#
PWFCLR	   440#
QUEST	   646#
RADIX	   649#
RADLSC	   651#
RADLSP	   650#
RANDBS	   484#
REENTR	   464#
RELIAB	   223#
RENTR1	    87	   763#
REPT	   440#
REPT1	   440#
REPTU	   562#
REQSET	   440#
RESRT1	    86	   539#
RESRT2	   540#
RETURN	   471#
RSTART	   212#
RTP	   644#
RUNFLG	   511#
S100	   807#
S10100	  2724#	  2733
S10200	  2736#	  2744
S10300	  2747#	  2755
S10400	  2758#	  2766
S10500	  2769#	  2777
S10600	  2780#	  2788
S10700	  2791#	  2799
S11000	  2802#	  2810
S11100	  2813#	  2821
S11200	  2824#	  2832
S11300	  2835#	  2843
S11400	  2846#	  2854
S11500	  2857#	  2865
S11600	  2868#	  2876
S11700	  2879#	  2887
S12000	  2890#	  2898
S12100	  2901#	  2909
S12200	  2912#	  2920
S12300	  2923#	  2931
S12400	  2934#	  2942
S12500	  2945#	  2953
S12600	  2956#	  2964
S12700	  2967#	  2975
S13000	  2978#	  2986
S13100	  2989#	  2997
S13200	  3000#	  3008
S13300	  3011#	  3019
S13400	  3022#	  3030
S13500	  3033#	  3041
S13600	  3044#	  3052S13700	  3055#	  3063
S14000	  3066#	  3074                                                                                                     SEQ 0191
S14100	  3077#	  3085
S14200	  3088#	  3096
S14300	  3099#	  3107
S14400	  3110#	  3118
S14500	  3121#	  3129
S14600	  3132#	  3140
S14700	  3143#	  3151
S15000	  3154#	  3162
S15100	  3165#	  3173
S15200	  3176#	  3184
S15300	  3187#	  3195
S15400	  3198#	  3206
S15500	  3209#	  3217
S15600	  3220#	  3228
S15700	  3231#	  3239
S16000	  3243#	  3251
S16100	  3254#	  3262
S16200	  3265#	  3273
S16300	  3276#	  3284
S16400	  3287#	  3295
S16500	  3298#	  3306
S16600	  3309#	  3317
S16700	  3320#	  3328
S17000	  3331#	  3339
S17100	  3342#	  3350
S17200	  3353#	  3361
S17300	  3364#	  3372
S17400	  3375#	  3383
S17500	  3386#	  3394
S17600	  3397#	  3405
S17700	  3408#	  3416
S200	  1713#
S20000	  3419#	  3427
S20100	  3430#	  3438
S20200	  3441#	  3449
S20300	  3452#	  3460
S20400	  3463#	  3471
S20500	  3474#	  3482
S20600	  3485#	  3493
S20700	  3496#	  3504
S21000	  3507#	  3515
S21100	  3518#	  3526
S21200	  3529#	  3537
S21300	  3541#	  3549
S21400	  3552#	  3560
S21500	  3563#	  3571
S21600	  3574#	  3582
S21700	  3585#	  3593
S22000	  3596#	  3604
S22100	  3607#	  3615
S22200	  3618#	  3626S22300	  3629#	  3637
S22400	  3640#	  3648                                                                                                     SEQ 0192
S22500	  3651#	  3659
S22600	  3662#	  3670
S22700	  3673#	  3681
S23000	  3684#	  3692
S23100	  3695#	  3703
S23200	  3706#	  3714
S23300	  3717#	  3725
S23400	  3728#	  3736
S23500	  3739#	  3747
S23600	  3750#	  3758
S23700	  3761#	  3769
S24000	  3772#	  3780
S24100	  3783#	  3791
S24200	  3794#	  3802
S24300	  3805#	  3813
S24400	  3816#	  3824
S24500	  3827#	  3835
S24600	  3838#	  3846
S24700	  3849#	  3857
S25000	  3860#	  3868
S25100	  3871#	  3879
S25200	  3882#	  3890
S25300	  3893#	  3901
S25400	  3904#	  3912
S25500	  3915#	  3923
S25600	  3926#	  3934
S25700	  3937#	  3945
S26000	  3948#	  3956
S26100	  3959#	  3967
S26200	  3970#	  3978
S26300	  3981#	  3989
S26400	  3992#	  4000
S26500	  4003#	  4011
S26600	  4014#	  4022
S26700	  4025#	  4033
S27000	  4036#	  4044
S27100	  4047#	  4055
S27200	  4058#	  4066
S27300	  4069#	  4077
S27400	  4080#	  4088
S27500	  4091#	  4099
S27600	  4102#	  4110
S27700	  4113#	  4121
S30000	  4124#	  4132
S30100	  4135#	  4143
S30200	  4146#	  4154
S30300	  4157#	  4165
S30400	  4168#	  4176
S30500	  4179#	  4187
S30600	  4190#	  4198
S30700	  4201#	  4209S31000	  4212#	  4220
S31100	  4223#	  4231                                                                                                     SEQ 0193
S31200	  4234#	  4242
S31300	  4245#	  4253
S31400	  4256#	  4264
S31500	  4267#	  4275
S31600	  4278#	  4286
S31700	  4289#	  4297
S32000	  4300#	  4308
S32100	  4311#	  4319
S32200	  4322#	  4330
S32300	  4333#	  4341
S32400	  4344#	  4352
S32500	  4355#	  4363
S32600	  4366#	  4374
S32700	  4377#	  4385
S33000	  4388#	  4396
S33100	  4399#	  4407
S33200	  4410#	  4418
S33300	  4421#	  4429
S33400	  4432#	  4440
S33500	  4443#	  4451
S33600	  4454#	  4462
S33700	  4465#	  4473
S34000	  4476#	  4484
S34100	  4487#	  4495
S34200	  4498#	  4506
S34300	  4509#	  4517
S34400	  4527#	  4545
S34500	  4547#	  4563
S34600	  4564#	  4582
S34700	  4584#	  4600
S35000	  4601#	  4619
S35100	  4621#	  4637
S35200	  4638#	  4656
S35300	  4658#	  4674
S40100	  4686#	  4695
S40200	  4698#	  4706
S40300	  4709#	  4717
S40400	  4720#	  4728
S40500	  4731#	  4739
S40600	  4742#	  4750
S40700	  4753#	  4761
S41000	  4764#	  4772
S41100	  4782#	  4800
S41200	  4802#	  4818
S41300	  4819#	  4837
S41400	  4839#	  4855
S41500	  4856#	  4874
S41600	  4876#	  4892
S41700	  4893#	  4911
S42000	  4913#	  4929
S50100	  4941#	  4950S50200	  4953#	  4961
S50300	  4964#	  4972                                                                                                     SEQ 0194
S50400	  4975#	  4983
S50500	  4986#	  4994
S50600	  4997#	  5005
S50700	  5008#	  5016
S51000	  5019#	  5027
S51100	  5030#	  5038
S51200	  5041#	  5049
S51300	  5052#	  5060
S51400	  5063#	  5071
S51500	  5074#	  5082
S51600	  5085#	  5093
S51700	  5096#	  5104
S52000	  5107#	  5115
S52100	  5118#	  5126
S52200	  5129#	  5137
S52300	  5140#	  5148
S52400	  5151#	  5159
S52500	  5162#	  5170
S52600	  5174#	  5182
S52700	  5185#	  5193
S53000	  5196#	  5204
S53100	  5207#	  5215
S53200	  5218#	  5226
S53300	  5229#	  5237
S53400	  5240#	  5248
S53500	  5251#	  5259
S53600	  5262#	  5270
S53700	  5273#	  5281
S54000	  5284#	  5292
S54100	  5295#	  5303
S54200	  5306#	  5314
S54300	  5317#	  5327
S54305	  5322	  5330#
S54306	  5327#	  5334
S54307	  5328	  5336#
S54400	  5339#	  5349
S54405	  5344	  5352#
S54406	  5349#	  5356
S54407	  5350	  5358#
S54500	  5361#	  5371
S54505	  5366	  5374#
S54506	  5371#	  5378
S54507	  5372	  5380#
S54600	  5383#	  5393
S54605	  5388	  5396#
S54606	  5393#	  5400
S54607	  5394	  5402#
S54700	  5405#	  5415
S54705	  5410	  5418#
S54706	  5415#	  5422
S54707	  5416	  5424#S55000	  5427#	  5437
S55005	  5432	  5440#                                                                                                    SEQ 0195
S55006	  5437#	  5444
S55007	  5438	  5446#
S55100	  5449#	  5459
S55105	  5454	  5462#
S55106	  5459#	  5466
S55107	  5460	  5468#
S55200	  5471#	  5481
S55205	  5476	  5484#
S55206	  5481#	  5488
S55207	  5482	  5490#
S55300	  5493#	  5503
S55305	  5498	  5506#
S55306	  5503#	  5510
S55307	  5504	  5512#
S55400	  5515#	  5525
S55405	  5520	  5528#
S55406	  5525#	  5532
S55407	  5526	  5534#
S55500	  5537#	  5547
S55505	  5542	  5550#
S55506	  5547#	  5554
S55507	  5548	  5556#
S55600	  5559#	  5569
S55605	  5564	  5572#
S55606	  5569#	  5576
S55607	  5570	  5578#
S55700	  5581#	  5591
S55705	  5586	  5594#
S55706	  5591#	  5598
S55707	  5592	  5600#
S56000	  5603#	  5613
S56005	  5608	  5616#
S56006	  5613#	  5620
S56007	  5614	  5622#
S56100	  5625#	  5633
S56200	  5636#	  5644
S56300	  5647#	  5655
S56400	  5658#	  5666
S56500	  5669#	  5677
S56600	  5680#	  5688
S56700	  5691#	  5699
S57000	  5702#	  5710
S57100	  5713#	  5721
S57200	  5724#	  5732
S57300	  5735#	  5743
S57400	  5746#	  5754
S57500	  5757#	  5765
S57600	  5768#	  5778
S57605	  5773	  5781#
S57606	  5778#	  5785
S57607	  5779	  5787#S57700	  5790#	  5798
S60000	  5801#	  5809                                                                                                     SEQ 0196
S60100	  5812#	  5820
S60200	  5823#	  5831
S60300	  5834#	  5842
S60400	  5845#	  5853
S60500	  5856#	  5864
S60600	  5867#	  5875
S60700	  5878#	  5886
S61000	  5896#	  5914
S61100	  5916#	  5932
S61200	  5933#	  5951
S61300	  5953#	  5969
S61400	  5970#	  5988
S61500	  5990#	  6006
S61600	  6007#	  6025
S61700	  6027#	  6043
S70100	  6055#	  6064
S70200	  6067#	  6075
S70300	  6078#	  6086
S70400	  6089#	  6097
S70500	  6100#	  6108
S70600	  6111#	  6119
S70700	  6122#	  6130
S71000	  6133#	  6141
S71100	  6144#	  6152
S71200	  6155#	  6163
S71300	  6166#	  6174
S71400	  6177#	  6185
S71500	  6188#	  6196
S71600	  6200#	  6210
S71605	  6205	  6213#
S71606	  6210#	  6217
S71607	  6211	  6219#
S71700	  6222#	  6230
S72000	  6233#	  6241
S72100	  6245#	  6255
S72105	  6250	  6258#
S72106	  6255#	  6262
S72107	  6256	  6264#
S72200	  6267#	  6275
S72300	  6278#	  6286
S72400	  6289#	  6297
S72500	  6300#	  6308
S72600	  6312#	  6322
S72605	  6317	  6325#
S72606	  6322#	  6329
S72607	  6323	  6331#
S72700	  6334#	  6342
S73000	  6345#	  6353
S73100	  6356#	  6364
S73200	  6368#	  6378
S73205	  6373	  6381#S73206	  6378#	  6385
S73207	  6379	  6387#                                                                                                    SEQ 0197
S73300	  6390#	  6398
S73400	  6402#	  6412
S73405	  6407	  6415#
S73406	  6412#	  6419
S73407	  6413	  6421#
S73500	  6424#	  6432
S73600	  6435#	  6443
S73700	  6446#	  6454
S74100	  6458#	  6468
S74105	  6463	  6471#
S74106	  6468#	  6475
S74107	  6469	  6477#
S74200	  6481#	  6491
S74205	  6486	  6494#
S74206	  6491#	  6498
S74207	  6492	  6500#
S74300	  6503#	  6511
S74400	  6514#	  6522
S74500	  6525#	  6533
S74600	  6536#	  6544
S74700	  6547#	  6555
S75000	  6558#	  6566
S75100	  6569#	  6577
S75200	  6580#	  6588
S75300	  6591#	  6599
S75400	  6602#	  6610
S75500	  6613#	  6621
S75600	  6624#	  6632
S75700	  6642#	  6660
S76000	  6662#	  6678
S76100	  6679#	  6697
S76200	  6699#	  6715
S76300	  6716#	  6734
S76400	  6736#	  6752
S76500	  6753#	  6771
S76600	  6773#	  6789
S76700	  6792#	  6808
S77000	  6812#	  6828
SADR1	    85#	   460
SADR10	    94#	   476
SADR11	    95#	   477
SADR2	    86#	   462
SADR3	    87#	   464
SADR4	    88#
SADR5	    89#	   525
SADR6	    90#	   526
SADR7	    91#	   473
SADR8	    92#	   474
SADR9	    93#	   475
SBINIT	   285	   470#
SCOPE	   563#SENSE1	   440#
SENSE2	   440#                                                                                                            SEQ 0198
SENSE3	   440#
SENSE4	   440#
SENSE5	   440#
SENSE6	   440#
SFSTRT	   460#
SLASH	   647#
SMLUSR	   440#
SNTRP	   440#
SPACE	   636#
SPDES	  6942#
SRTDDT	   466#
START	   454	   791#
START1	   473#
START2	   474#
START3	   475#
START4	   476#
START5	   477#
STARTA	   469	   795#
STRP	   440#
SUBLNK	   247#	   470
SWTEXR	   485#
SYSEXR	   458#
T	   806#	   813	   815	   827	   827#	   836	   838	   841	   841#	   850	   852	   855	   855#	   864
	   866	   869	   869#	   878	   880	   883	   883#	   892	   894	   897	   897#	   906	   908	   911
	   911#	   920	   922	   925	   925#	   934	   936	   948	   948#	   957	   959	   962	   962#	   971
	   973	   976	   976#	   985	   987	   990	   990#	   999	  1001	  1004	  1004#	  1013	  1015	  1018
	  1018#	  1027	  1029	  1032	  1032#	  1041	  1043	  1046	  1046#	  1055	  1057	  1060	  1060#	  1069
	  1071	  1074	  1074#	  1083	  1085	  1088	  1088#	  1097	  1099	  1102	  1102#	  1111	  1113	  1116
	  1116#	  1125	  1127	  1130	  1130#	  1139	  1141	  1144	  1144#	  1153	  1155	  1158	  1158#	  1167
	  1169	  1172	  1172#	  1181	  1183	  1186	  1186#	  1195	  1197	  1209	  1209#	  1218	  1220	  1223
	  1223#	  1232	  1234	  1237	  1237#	  1246	  1248	  1251	  1251#	  1260	  1262	  1265	  1265#	  1274
	  1276	  1279	  1279#	  1288	  1290	  1293	  1293#	  1302	  1304	  1307	  1307#	  1316	  1318	  1321
	  1321#	  1330	  1332	  1335	  1335#	  1344	  1346	  1349	  1349#	  1358	  1360	  1363	  1363#	  1372
	  1374	  1377	  1377#	  1386	  1388	  1391	  1391#	  1400	  1402	  1405	  1405#	  1414	  1416	  1419
	  1419#	  1428	  1430	  1433	  1433#	  1442	  1444	  1456	  1456#	  1465	  1467	  1470	  1470#	  1479
	  1481	  1484	  1484#	  1493	  1495	  1498	  1498#	  1507	  1509	  1512	  1512#	  1521	  1523	  1526
	  1526#	  1535	  1537	  1540	  1540#	  1549	  1551	  1554	  1554#	  1563	  1565	  1568	  1568#	  1577
	  1579	  1582	  1582#	  1591	  1593	  1596	  1596#	  1605	  1607	  1610	  1610#	  1619	  1621	  1624
	  1624#	  1633	  1635	  1638	  1638#	  1647	  1649	  1652	  1652#	  1661	  1663	  1666	  1666#	  1675
	  1677	  1680	  1680#	  1689	  1691	  1694	  1694#	  1703	  1705	  1708#	  1721	  1721#	  1732	  1734
	  1737	  1737#	  1748	  1750	  1753	  1753#	  1764	  1766	  1769	  1769#	  1780	  1782	  1785	  1785#
	  1796	  1798	  1801	  1801#	  1812	  1814	  1817	  1817#	  1828	  1830	  1833	  1833#	  1844	  1846
	  1849	  1849#	  1860	  1862	  1875	  1875#	  1885	  1887	  1890	  1890#	  1900	  1902	  1905	  1905#
	  1915	  1917	  1920	  1920#	  1930	  1932	  1935	  1935#	  1945	  1947	  1950	  1950#	  1960	  1962
	  1965	  1965#	  1975	  1977	  1980	  1980#	  1990	  1992	  1995	  1995#	  2005	  2007	  2010	  2010#
	  2020	  2022	  2035	  2035#	  2045	  2047	  2050	  2050#	  2060	  2062	  2065	  2065#	  2075	  2077
	  2080	  2080#	  2090	  2092	  2095	  2095#	  2105	  2107	  2110	  2110#	  2120	  2122	  2125	  2125#
	  2135	  2137	  2140	  2140#	  2150	  2152	  2164	  2164#	  2174	  2176	  2179	  2179#	  2189	  2191
	  2194	  2194#	  2204	  2206	  2209	  2209#	  2219	  2221	  2224	  2224#	  2234	  2236	  2239	  2239#
	  2249	  2251	  2254	  2254#	  2264	  2266	  2269	  2269#	  2279	  2281	  2284	  2284#	  2294	  2296
	  2309	  2309#	  2319	  2321	  2324	  2324#	  2334	  2336	  2339	  2339#	  2349	  2351	  2354	  2354#	  2364	  2366	  2369	  2369#	  2379	  2381	  2384	  2384#	  2394	  2396	  2399	  2399#	  2409	  2411
	  2414	  2414#	  2424	  2426	  2439	  2439#	  2449	  2451	  2454	  2454#	  2464	  2466	  2469	  2469#    SEQ 0199
	  2479	  2481	  2484	  2484#	  2494	  2496	  2499	  2499#	  2509	  2511	  2514	  2514#	  2524	  2526
	  2529	  2529#	  2539	  2541	  2544	  2544#	  2554	  2556	  2559	  2559#	  2569	  2571	  2574	  2574#
	  2584	  2586	  2600	  2600#	  2610	  2612	  2615	  2615#	  2625	  2627	  2630	  2630#	  2640	  2642
	  2645	  2645#	  2655	  2657	  2660	  2660#	  2670	  2672	  2675	  2675#	  2685	  2687	  2690	  2690#
	  2700	  2702	  2706	  2706#	  2715	  2717
TAB	   637#
TESTPC	   512#	   801	  4523	  4680	  4778	  4935	  5892	  6049	  6638
TICKS	   515#
TLET	   793	  6916	  6939#
TN0	   440#
TN1	   440#
TOTALS	   213#
TRP3TP	   440#
TRPENB	   440#
TTNBRF	   695#
TTYFIL	   611#
TTYSPD	   612#
TXTINH	   224#	  6900
UOLIP	   440#
UOUSR	   440#
USER	   502#	  6839	  6852	  6991
USERF	   440#
USRASB	    66#	   492
USRCMP	   440#
USRCRF	   621#
USRLFF	   620#
USRPFW	   440#
UUODIS	   574#
UUOEXT	   530#	  6995
UUORTN	   531#
UUOSKP	   528#
XX	   818#	   828	   828#	   831	   842	   842#	   845	   856	   856#	   859	   870	   870#	   873	   884
	   884#	   887	   898	   898#	   901	   912	   912#	   915	   926	   926#	   929	   940#	   949	   949#
	   952	   963	   963#	   966	   977	   977#	   980	   991	   991#	   994	  1005	  1005#	  1008	  1019
	  1019#	  1022	  1033	  1033#	  1036	  1047	  1047#	  1050	  1061	  1061#	  1064	  1075	  1075#	  1078
	  1089	  1089#	  1092	  1103	  1103#	  1106	  1117	  1117#	  1120	  1131	  1131#	  1134	  1145	  1145#
	  1148	  1159	  1159#	  1162	  1173	  1173#	  1176	  1187	  1187#	  1190	  1201#	  1210	  1210#	  1214
	  1224	  1224#	  1228	  1238	  1238#	  1242	  1252	  1252#	  1256	  1266	  1266#	  1270	  1280	  1280#
	  1284	  1294	  1294#	  1298	  1308	  1308#	  1312	  1322	  1322#	  1326	  1336	  1336#	  1340	  1350
	  1350#	  1354	  1364	  1364#	  1368	  1378	  1378#	  1382	  1392	  1392#	  1396	  1406	  1406#	  1410
	  1420	  1420#	  1424	  1434	  1434#	  1438	  1448#	  1457	  1457#	  1461	  1471	  1471#	  1475	  1485
	  1485#	  1489	  1499	  1499#	  1503	  1513	  1513#	  1517	  1527	  1527#	  1531	  1541	  1541#	  1545
	  1555	  1555#	  1559	  1569	  1569#	  1573	  1583	  1583#	  1587	  1597	  1597#	  1601	  1611	  1611#
	  1615	  1625	  1625#	  1629	  1639	  1639#	  1643	  1653	  1653#	  1657	  1667	  1667#	  1671	  1681
	  1681#	  1685	  1695	  1695#	  1699	  1709#	  1722	  1722#	  1727	  1738	  1738#	  1743	  1754	  1754#
	  1759	  1770	  1770#	  1775	  1786	  1786#	  1791	  1802	  1802#	  1807	  1818	  1818#	  1823	  1834
	  1834#	  1839	  1850	  1850#	  1855	  1866#	  1876	  1876#	  1880	  1891	  1891#	  1895	  1906	  1906#
	  1910	  1921	  1921#	  1925	  1936	  1936#	  1940	  1951	  1951#	  1955	  1966	  1966#	  1970	  1981
	  1981#	  1985	  1996	  1996#	  2000	  2011	  2011#	  2015	  2036	  2036#	  2040	  2051	  2051#	  2055
	  2066	  2066#	  2070	  2081	  2081#	  2085	  2096	  2096#	  2100	  2111	  2111#	  2115	  2126	  2126#
	  2130	  2141	  2141#	  2145	  2155#	  2165	  2165#	  2170	  2180	  2180#	  2185	  2195	  2195#	  2200	  2210	  2210#	  2215	  2225	  2225#	  2230	  2240	  2240#	  2245	  2255	  2255#	  2260	  2270	  2270#
	  2275	  2285	  2285#	  2290	  2310	  2310#	  2315	  2325	  2325#	  2330	  2340	  2340#	  2345	  2355     SEQ 0200
	  2355#	  2360	  2370	  2370#	  2375	  2385	  2385#	  2390	  2400	  2400#	  2405	  2415	  2415#	  2420
	  2430#	  2440	  2440#	  2445	  2455	  2455#	  2460	  2470	  2470#	  2475	  2485	  2485#	  2490	  2500
	  2500#	  2505	  2515	  2515#	  2520	  2530	  2530#	  2535	  2545	  2545#	  2550	  2560	  2560#	  2565
	  2575	  2575#	  2580	  2601	  2601#	  2606	  2616	  2616#	  2621	  2631	  2631#	  2636	  2646	  2646#
	  2651	  2661	  2661#	  2666	  2676	  2676#	  2681	  2691	  2691#	  2696	  2707	  2707#	  2711
YY	  1710#	  1723	  1723#	  1731	  1739	  1739#	  1747	  1755	  1755#	  1763	  1771	  1771#	  1779	  1787
	  1787#	  1795	  1803	  1803#	  1811	  1819	  1819#	  1827	  1835	  1835#	  1843	  1851	  1851#	  1859
	  1877	  1877#	  1884	  1892	  1892#	  1899	  1907	  1907#	  1914	  1922	  1922#	  1929	  1937	  1937#
	  1944	  1952	  1952#	  1959	  1967	  1967#	  1974	  1982	  1982#	  1989	  1997	  1997#	  2004	  2012
	  2012#	  2019	  2037	  2037#	  2044	  2052	  2052#	  2059	  2067	  2067#	  2074	  2082	  2082#	  2089
	  2097	  2097#	  2104	  2112	  2112#	  2119	  2127	  2127#	  2134	  2142	  2142#	  2149	  2166	  2166#
	  2173	  2181	  2181#	  2188	  2196	  2196#	  2203	  2211	  2211#	  2218	  2226	  2226#	  2233	  2241
	  2241#	  2248	  2256	  2256#	  2263	  2271	  2271#	  2278	  2286	  2286#	  2293	  2311	  2311#	  2318
	  2326	  2326#	  2333	  2341	  2341#	  2348	  2356	  2356#	  2363	  2371	  2371#	  2378	  2386	  2386#
	  2393	  2401	  2401#	  2408	  2416	  2416#	  2423	  2441	  2441#	  2448	  2456	  2456#	  2463	  2471
	  2471#	  2478	  2486	  2486#	  2493	  2501	  2501#	  2508	  2516	  2516#	  2523	  2531	  2531#	  2538
	  2546	  2546#	  2553	  2561	  2561#	  2568	  2576	  2576#	  2583	  2590	  2590#	  2602	  2602#	  2609
	  2617	  2617#	  2624	  2632	  2632#	  2639	  2647	  2647#	  2654	  2662	  2662#	  2669	  2677	  2677#
	  2684	  2692	  2692#	  2699	  2714
ZZ	   819#	   829	   829#	   835	   843	   843#	   849	   857	   857#	   863	   871	   871#	   877	   885
	   885#	   891	   899	   899#	   905	   913	   913#	   919	   927	   927#	   933	   950	   950#	   956
	   964	   964#	   970	   978	   978#	   984	   992	   992#	   998	  1006	  1006#	  1012	  1020	  1020#
	  1026	  1034	  1034#	  1040	  1048	  1048#	  1054	  1062	  1062#	  1068	  1076	  1076#	  1082	  1090
	  1090#	  1096	  1104	  1104#	  1110	  1118	  1118#	  1124	  1132	  1132#	  1138	  1146	  1146#	  1152
	  1160	  1160#	  1166	  1174	  1174#	  1180	  1188	  1188#	  1194	  1211	  1211#	  1217	  1225	  1225#
	  1231	  1239	  1239#	  1245	  1253	  1253#	  1259	  1267	  1267#	  1273	  1281	  1281#	  1287	  1295
	  1295#	  1301	  1309	  1309#	  1315	  1323	  1323#	  1329	  1337	  1337#	  1343	  1351	  1351#	  1357
	  1365	  1365#	  1371	  1379	  1379#	  1385	  1393	  1393#	  1399	  1407	  1407#	  1413	  1421	  1421#
	  1427	  1435	  1435#	  1441	  1458	  1458#	  1464	  1472	  1472#	  1478	  1486	  1486#	  1492	  1500
	  1500#	  1506	  1514	  1514#	  1520	  1528	  1528#	  1534	  1542	  1542#	  1548	  1556	  1556#	  1562
	  1570	  1570#	  1576	  1584	  1584#	  1590	  1598	  1598#	  1604	  1612	  1612#	  1618	  1626	  1626#
	  1632	  1640	  1640#	  1646	  1654	  1654#	  1660	  1668	  1668#	  1674	  1682	  1682#	  1688	  1696
	  1696#	  1702	  1711#	  1724	  1724#	  1725	  1725#	  1733	  1740	  1740#	  1741	  1749	  1756	  1756#
	  1757	  1765	  1772	  1772#	  1773	  1781	  1788	  1788#	  1789	  1797	  1804	  1804#	  1805	  1813
	  1820	  1820#	  1821	  1829	  1836	  1836#	  1837	  1845	  1852	  1852#	  1853	  1861	  1878	  1878#
	  1886	  1893	  1893#	  1901	  1908	  1908#	  1916	  1923	  1923#	  1931	  1938	  1938#	  1946	  1953
	  1953#	  1961	  1968	  1968#	  1976	  1983	  1983#	  1991	  1998	  1998#	  2006	  2013	  2013#	  2021
	  2026#	  2038	  2038#	  2046	  2053	  2053#	  2061	  2068	  2068#	  2076	  2083	  2083#	  2091	  2098
	  2098#	  2106	  2113	  2113#	  2121	  2128	  2128#	  2136	  2143	  2143#	  2151	  2167	  2167#	  2175
	  2182	  2182#	  2190	  2197	  2197#	  2205	  2212	  2212#	  2220	  2227	  2227#	  2235	  2242	  2242#
	  2250	  2257	  2257#	  2265	  2272	  2272#	  2280	  2287	  2287#	  2295	  2300#	  2312	  2312#	  2318
	  2327	  2327#	  2333	  2342	  2342#	  2348	  2357	  2357#	  2363	  2372	  2372#	  2378	  2387	  2387#
	  2393	  2402	  2402#	  2408	  2417	  2417#	  2423	  2442	  2442#	  2448	  2457	  2457#	  2463	  2472
	  2472#	  2478	  2487	  2487#	  2493	  2502	  2502#	  2508	  2517	  2517#	  2523	  2532	  2532#	  2538
	  2547	  2547#	  2553	  2562	  2562#	  2568	  2577	  2577#	  2583	  2591#	  2603	  2603#	  2609	  2618
	  2618#	  2624	  2633	  2633#	  2639	  2648	  2648#	  2654	  2663	  2663#	  2669	  2678	  2678#	  2684
	  2693	  2693#	  2699	  2708	  2708#	  2714
$$MUUO	   726#
$$OUTE	   732#
$$TAX1	   744#
$$TAX2	   745#$$TOGG	   738#
$$UUO	   715#                                                                                                            SEQ 0201
$ACC0	   553#
$ACF	  6943#
$BEND1	   523#
$BEND2	   524#	  6985
$CHRIN	   614#
$CRLF	   616#
$DEVCH	   440#
$DSKUP	   493#
$DVCH1	   440#
$DVOFF	   610#
$EMODE	   491#
$ENDFX	   760#	   761
$FFF	   618#
$IBUF	   666#
$INEXT	   668#
$INNM	   667#
$ITRHL	   534#
$ITRX1	   535#
$LPAPE	  7006
$MMAP	   494#
$MODVL	   489#
$MODVU	   490#
$OBUF	   657#
$ONETM	   517#
$OUTEX	   659#
$OUTNM	   658#
$PAPER	   440
$PARER	   541#
$PNAME	   487#
$PSHER	   545#
$PVER	   488#
$RSRTX	   537#
$RSRTY	   538#
$SPAG1	   557#
$START	   454#
$SVAPR	   555#
$SVPAG	   556#
$SVPI	   554#
$SVUPC	   560#	  6846	  6850	  6880
$SVUUO	   559#	  6859	  6891	  6919
$TABF	   617#
$TTCHR	   613#
$TWCNT	   609#
$TYPNB	   615#
$UMODE	   492#
$UORTX	   532#
$USRHL	   536#
$UUOER	   533#	   574
$VTF	   619#
%AC1F	  6944#
%ACS1A	  6861#	  6861	  6905%ACTFL	   566#
%ACTUL	   567#                                                                                                            SEQ 0202
%ALF	  6949#
%AR1F	  6948#
%ARF	  6947#
%COREC	   565#
%CORFL	   564#
%DISCR	   568#
%E1F	  6946#
%EEF	  6950#
%EF	  6945#
%ER4X	  6925	  6930#
%ER5X	  6923	  6932#
%ER6X	  6921	  6934#
%ER7X	  6927#	  6931	  6933	  6935
%ERAC0	  6835#	  6835	  6862	  6896	  6987
%ERAC1	  6843#	  6843	  6863	  6975
%ERAC2	  6844#	  6844	  6974
%ERFST	  6869#	  6869	  6871
%ERHI1	   707#
%ERHI2	   708#
%ERHI3	   709#
%ERMOR	  6901	  6928	  6957#
%ERMS1	  6866#	  7000
%ERMS2	  6889#
%ERMS3	  6907	  6914#
%ERRS1	  6858	  6961#	  6999
%ERRS2	  6974#
%ERRS4	  6865	  6997#
%ERRS5	  6978	  6982	  6987#
%FF	  6951#
%FLTTB	  6909	  6940#
%NODES	  6941#
.JB41	   440#
.JBAPR	   440#
.JBCNI	   440#
.JBDDT	   440#
.JBFF	   440#
.JBOPC	   440#
.JBREL	   440#
.JBREN	   440#
.JBSA	   440#
.JBSYM	   440#
.JBTPC	   440#
.JBUSY	   440#
.JBUUO	   440#
.JBVER	   440#
CFLUSH	   396#
CINVAL	   395#                                                                                                            SEQ 0203
CLOKOP	   390#
CWRTBI	   397#
DFA	   105#	  2735	  2746	  2757	  2768	  2779	  2790	  2801	  2812	  2823	  2834	  2845	  2856	  2867
	  2878	  2889	  2900	  2911	  2922	  2933	  2944	  2955	  2966	  2977	  2988	  2999	  3010	  3021
	  3032	  3043	  3054	  3065	  3076	  3087	  3098	  3109	  3120	  3131	  3142	  3153	  3164	  3175
	  3186	  3197	  3208	  3219	  3230	  3242	  3253	  3264	  3275	  3286	  3297	  3308	  3319	  3330
	  3341	  3352	  3363	  3374	  3385	  3396	  3407	  3418	  3429	  3440	  3451	  3462	  3473	  3484
	  3495	  3506	  3517	  3528	  3540	  3551	  3562	  3573	  3584	  3595	  3606	  3617	  3628	  3639
	  3650	  3661	  3672	  3683	  3694	  3705	  3716	  3727	  3738	  3749	  3760	  3771	  3782	  3793
	  3804	  3815	  3826	  3837	  3848	  3859	  3870	  3881	  3892	  3903	  3914	  3925	  3936	  3947
	  3958	  3969	  3980	  3991	  4002	  4013	  4024	  4035	  4046	  4057	  4068	  4079	  4090	  4101
	  4112	  4123	  4134	  4145	  4156	  4167	  4178	  4189	  4200	  4211	  4222	  4233	  4244	  4255
	  4266	  4277	  4288	  4299	  4310	  4321	  4332	  4343	  4354	  4365	  4376	  4387	  4398	  4409
	  4420	  4431	  4442	  4453	  4464	  4475	  4486	  4497	  4508
DFAD	    29#	   810	   833	   847	   861	   875	   889	   903	   917	   931	   954	   968	   982	   996
	  1010	  1024	  1038	  1052	  1066	  1080	  1094	  1108	  1122	  1136	  1150	  1164	  1178	  1192
	  1215	  1229	  1243	  1257	  1271	  1285	  1299	  1313	  1327	  1341	  1355	  1369	  1383	  1397
	  1411	  1425	  1439	  1462	  1476	  1490	  1504	  1518	  1532	  1546	  1560	  1574	  1588	  1602
	  1616	  1630	  1644	  1658	  1672	  1686	  1700	  1729	  1745	  1761	  1777	  1793	  1809	  1825
	  1841	  1857	  1882	  1897	  1912	  1927	  1942	  1957	  1972	  1987	  2002	  2017	  2042	  2057
	  2072	  2087	  2102	  2117	  2132	  2147	  2171	  2186	  2201	  2216	  2231	  2246	  2261	  2276
	  2291	  2316	  2331	  2346	  2361	  2376	  2391	  2406	  2421	  2446	  2461	  2476	  2491	  2506
	  2521	  2536	  2551	  2566	  2581	  2607	  2622	  2637	  2652	  2667	  2682	  2697	  2712	  2728
	  2738	  2749	  2760	  2771	  2782	  2793	  2804	  2815	  2826	  2837	  2848	  2859	  2870	  2881
	  2892	  2903	  2914	  2925	  2936	  2947	  2958	  2969	  2980	  2991	  3002	  3013	  3024	  3035
	  3046	  3057	  3068	  3079	  3090	  3101	  3112	  3123	  3134	  3145	  3156	  3167	  3178	  3189
	  3200	  3211	  3222	  3233	  3245	  3256	  3267	  3278	  3289	  3300	  3311	  3322	  3333	  3344
	  3355	  3366	  3377	  3388	  3399	  3410	  3421	  3432	  3443	  3454	  3465	  3476	  3487	  3498
	  3509	  3520	  3531	  3543	  3554	  3565	  3576	  3587	  3598	  3609	  3620	  3631	  3642	  3653
	  3664	  3675	  3686	  3697	  3708	  3719	  3730	  3741	  3752	  3763	  3774	  3785	  3796	  3807
	  3818	  3829	  3840	  3851	  3862	  3873	  3884	  3895	  3906	  3917	  3928	  3939	  3950	  3961
	  3972	  3983	  3994	  4005	  4016	  4027	  4038	  4049	  4060	  4071	  4082	  4093	  4104	  4115
	  4126	  4137	  4148	  4159	  4170	  4181	  4192	  4203	  4214	  4225	  4236	  4247	  4258	  4269
	  4280	  4291	  4302	  4313	  4324	  4335	  4346	  4357	  4368	  4379	  4390	  4401	  4412	  4423
	  4434	  4445	  4456	  4467	  4478	  4489	  4500	  4511	  4530	  4550	  4567	  4587	  4604	  4624
	  4641	  4661
DFARP	   191#	   807	   830	   844	   858	   872	   886	   900	   914	   928	   951	   965	   979	   993
	  1007	  1021	  1035	  1049	  1063	  1077	  1091	  1105	  1119	  1133	  1147	  1161	  1175	  1189
	  1212	  1226	  1240	  1254	  1268	  1282	  1296	  1310	  1324	  1338	  1352	  1366	  1380	  1394
	  1408	  1422	  1436	  1459	  1473	  1487	  1501	  1515	  1529	  1543	  1557	  1571	  1585	  1599
	  1613	  1627	  1641	  1655	  1669	  1683	  1697	  1726	  1742	  1758	  1774	  1790	  1806	  1822
	  1838	  1854	  1879	  1894	  1909	  1924	  1939	  1954	  1969	  1984	  1999	  2014	  2039	  2054
	  2069	  2084	  2099	  2114	  2129	  2144	  2168	  2183	  2198	  2213	  2228	  2243	  2258	  2273
	  2288	  2313	  2328	  2343	  2358	  2373	  2388	  2403	  2418	  2443	  2458	  2473	  2488	  2503
	  2518	  2533	  2548	  2563	  2578	  2604	  2619	  2634	  2649	  2664	  2679	  2694	  2709
DFD	   160#	  6066	  6077	  6088	  6099	  6110	  6121	  6132	  6143	  6154	  6165	  6176	  6187	  6221
	  6232	  6266	  6277	  6288	  6299	  6333	  6344	  6355	  6389	  6423	  6434	  6445	  6502	  6513
	  6524	  6535	  6546	  6557	  6568	  6579	  6590	  6601	  6612	  6623
DFDKL	   170#	  6198	  6243	  6310	  6366	  6400	  6456	  6479
DFDV	    32#	  6059	  6069	  6080	  6091	  6102	  6113	  6124	  6135	  6146	  6157	  6168	  6179	  6190
	  6202	  6224	  6235	  6247	  6269	  6280	  6291	  6302	  6314	  6336	  6347	  6358	  6370	  6392	  6404	  6426	  6437	  6448	  6460	  6483	  6505	  6516	  6527	  6538	  6549	  6560	  6571	  6582
	  6593	  6604	  6615	  6626	  6645	  6665	  6682	  6702	  6719	  6739	  6756	  6776	  6795	  6815     SEQ 0204
DFM	   127#	  4952	  4963	  4974	  4985	  4996	  5007	  5018	  5029	  5040	  5051	  5062	  5073	  5084
	  5095	  5106	  5117	  5128	  5139	  5150	  5161	  5173	  5184	  5195	  5206	  5217	  5228	  5239
	  5250	  5261	  5272	  5283	  5294	  5305	  5624	  5635	  5646	  5657	  5668	  5679	  5690	  5701
	  5712	  5723	  5734	  5745	  5756	  5789	  5800	  5811	  5822	  5833	  5844	  5855	  5866	  5877
DFMKL	   138#	  5316	  5338	  5360	  5382	  5404	  5426	  5448	  5470	  5492	  5514	  5536	  5558	  5580
	  5602	  5767
DFMP	    31#	  4945	  4955	  4966	  4977	  4988	  4999	  5010	  5021	  5032	  5043	  5054	  5065	  5076
	  5087	  5098	  5109	  5120	  5131	  5142	  5153	  5164	  5176	  5187	  5198	  5209	  5220	  5231
	  5242	  5253	  5264	  5275	  5286	  5297	  5308	  5319	  5341	  5363	  5385	  5407	  5429	  5451
	  5473	  5495	  5517	  5539	  5561	  5583	  5605	  5627	  5638	  5649	  5660	  5671	  5682	  5693
	  5704	  5715	  5726	  5737	  5748	  5759	  5770	  5792	  5803	  5814	  5825	  5836	  5847	  5858
	  5869	  5880	  5899	  5919	  5936	  5956	  5973	  5993	  6010	  6030
DFS	   116#	  4697	  4708	  4719	  4730	  4741	  4752	  4763
DFSB	    30#	  4690	  4700	  4711	  4722	  4733	  4744	  4755	  4766	  4785	  4805	  4822	  4842	  4859
	  4879	  4896	  4916
DMOVE	    33#	   808	   831	   845	   859	   873	   887	   901	   915	   929	   952	   966	   980	   994
	  1008	  1022	  1036	  1050	  1064	  1078	  1092	  1106	  1120	  1134	  1148	  1162	  1176	  1190
	  1213	  1227	  1241	  1255	  1269	  1283	  1297	  1311	  1325	  1339	  1353	  1367	  1381	  1395
	  1409	  1423	  1437	  1460	  1474	  1488	  1502	  1516	  1530	  1544	  1558	  1572	  1586	  1600
	  1614	  1628	  1642	  1656	  1670	  1684	  1698	  1727	  1743	  1759	  1775	  1791	  1807	  1823
	  1839	  1855	  1880	  1895	  1910	  1925	  1940	  1955	  1970	  1985	  2000	  2015	  2040	  2055
	  2070	  2085	  2100	  2115	  2130	  2145	  2169	  2184	  2199	  2214	  2229	  2244	  2259	  2274
	  2289	  2314	  2329	  2344	  2359	  2374	  2389	  2404	  2419	  2444	  2459	  2474	  2489	  2504
	  2519	  2534	  2549	  2564	  2579	  2605	  2620	  2635	  2650	  2665	  2680	  2695	  2710	  2724
	  2726	  2736	  2747	  2758	  2769	  2780	  2791	  2802	  2813	  2824	  2835	  2846	  2857	  2868
	  2879	  2890	  2901	  2912	  2923	  2934	  2945	  2956	  2967	  2978	  2989	  3000	  3011	  3022
	  3033	  3044	  3055	  3066	  3077	  3088	  3099	  3110	  3121	  3132	  3143	  3154	  3165	  3176
	  3187	  3198	  3209	  3220	  3231	  3243	  3254	  3265	  3276	  3287	  3298	  3309	  3320	  3331
	  3342	  3353	  3364	  3375	  3386	  3397	  3408	  3419	  3430	  3441	  3452	  3463	  3474	  3485
	  3496	  3507	  3518	  3529	  3541	  3552	  3563	  3574	  3585	  3596	  3607	  3618	  3629	  3640
	  3651	  3662	  3673	  3684	  3695	  3706	  3717	  3728	  3739	  3750	  3761	  3772	  3783	  3794
	  3805	  3816	  3827	  3838	  3849	  3860	  3871	  3882	  3893	  3904	  3915	  3926	  3937	  3948
	  3959	  3970	  3981	  3992	  4003	  4014	  4025	  4036	  4047	  4058	  4069	  4080	  4091	  4102
	  4113	  4124	  4135	  4146	  4157	  4168	  4179	  4190	  4201	  4212	  4223	  4234	  4245	  4256
	  4267	  4278	  4289	  4300	  4311	  4322	  4333	  4344	  4355	  4366	  4377	  4388	  4399	  4410
	  4421	  4432	  4443	  4454	  4465	  4476	  4487	  4498	  4509	  4528	  4548	  4565	  4585	  4602
	  4622	  4639	  4659	  4686	  4688	  4698	  4709	  4720	  4731	  4742	  4753	  4764	  4783	  4803
	  4820	  4840	  4857	  4877	  4894	  4914	  4941	  4943	  4953	  4964	  4975	  4986	  4997	  5008
	  5019	  5030	  5041	  5052	  5063	  5074	  5085	  5096	  5107	  5118	  5129	  5140	  5151	  5162
	  5174	  5185	  5196	  5207	  5218	  5229	  5240	  5251	  5262	  5273	  5284	  5295	  5306	  5317
	  5339	  5361	  5383	  5405	  5427	  5449	  5471	  5493	  5515	  5537	  5559	  5581	  5603	  5625
	  5636	  5647	  5658	  5669	  5680	  5691	  5702	  5713	  5724	  5735	  5746	  5757	  5768	  5790
	  5801	  5812	  5823	  5834	  5845	  5856	  5867	  5878	  5897	  5917	  5934	  5954	  5971	  5991
	  6008	  6028	  6055	  6057	  6067	  6078	  6089	  6100	  6111	  6122	  6133	  6144	  6155	  6166
	  6177	  6188	  6200	  6222	  6233	  6245	  6267	  6278	  6289	  6300	  6312	  6334	  6345	  6356
	  6368	  6390	  6402	  6424	  6435	  6446	  6458	  6481	  6503	  6514	  6525	  6536	  6547	  6558
	  6569	  6580	  6591	  6602	  6613	  6624	  6643	  6663	  6680	  6700	  6717	  6737	  6754	  6774
	  6793	  6813
DMOVEM	    35#
DMOVN	    34#
DMOVNM	    36#DROPDV	   357#	   763
ENDUUO	   403#	   522                                                                                                     SEQ 0205
EOPUUO	   404#	   524
ER1	    38#
ER10	    45#
ER11	    46#
ER12	    47#
ER13	    48#	  4539	  4542	  4544	  4558	  4560	  4562	  4576	  4579	  4581	  4595	  4597	  4599	  4613
	  4616	  4618	  4632	  4634	  4636	  4650	  4653	  4655	  4669	  4671	  4673	  4794	  4797	  4799
	  4813	  4815	  4817	  4831	  4834	  4836	  4850	  4852	  4854	  4868	  4871	  4873	  4887	  4889
	  4891	  4905	  4908	  4910	  4924	  4926	  4928	  5908	  5911	  5913	  5927	  5929	  5931	  5945
	  5948	  5950	  5964	  5966	  5968	  5982	  5985	  5987	  6001	  6003	  6005	  6019	  6022	  6024
	  6038	  6040	  6042	  6654	  6657	  6659	  6673	  6675	  6677	  6691	  6694	  6696	  6710	  6712
	  6714	  6728	  6731	  6733	  6747	  6749	  6751	  6765	  6768	  6770	  6784	  6786	  6788	  6803
	  6805	  6807	  6823	  6825	  6827
ER2	    39#
ER3	    40#	   813	   836	   850	   864	   878	   892	   906	   920	   934	   957	   971	   985	   999
	  1013	  1027	  1041	  1055	  1069	  1083	  1097	  1111	  1125	  1139	  1153	  1167	  1181	  1195
	  1218	  1232	  1246	  1260	  1274	  1288	  1302	  1316	  1330	  1344	  1358	  1372	  1386	  1400
	  1414	  1428	  1442	  1465	  1479	  1493	  1507	  1521	  1535	  1549	  1563	  1577	  1591	  1605
	  1619	  1633	  1647	  1661	  1675	  1689	  1703	  1732	  1748	  1764	  1780	  1796	  1812	  1828
	  1844	  1860	  1885	  1900	  1915	  1930	  1945	  1960	  1975	  1990	  2005	  2020	  2045	  2060
	  2075	  2090	  2105	  2120	  2135	  2150	  2174	  2189	  2204	  2219	  2234	  2249	  2264	  2279
	  2294	  2319	  2334	  2349	  2364	  2379	  2394	  2409	  2424	  2449	  2464	  2479	  2494	  2509
	  2524	  2539	  2554	  2569	  2584	  2610	  2625	  2640	  2655	  2670	  2685	  2700	  2715	  2741
	  2752	  2763	  2774	  2785	  2796	  2807	  2818	  2829	  2840	  2851	  2862	  2873	  2884	  2895
	  2906	  2917	  2928	  2939	  2950	  2961	  2972	  2983	  2994	  3005	  3016	  3027	  3038	  3049
	  3060	  3071	  3082	  3093	  3104	  3115	  3126	  3137	  3148	  3159	  3170	  3181	  3192	  3203
	  3214	  3225	  3236	  3248	  3259	  3270	  3281	  3292	  3303	  3314	  3325	  3336	  3347	  3358
	  3369	  3380	  3391	  3402	  3413	  3424	  3435	  3446	  3457	  3468	  3479	  3490	  3501	  3512
	  3523	  3534	  3546	  3557	  3568	  3579	  3590	  3601	  3612	  3623	  3634	  3645	  3656	  3667
	  3678	  3689	  3700	  3711	  3722	  3733	  3744	  3755	  3766	  3777	  3788	  3799	  3810	  3821
	  3832	  3843	  3854	  3865	  3876	  3887	  3898	  3909	  3920	  3931	  3942	  3953	  3964	  3975
	  3986	  3997	  4008	  4019	  4030	  4041	  4052	  4063	  4074	  4085	  4096	  4107	  4118	  4129
	  4140	  4151	  4162	  4173	  4184	  4195	  4206	  4217	  4228	  4239	  4250	  4261	  4272	  4283
	  4294	  4305	  4316	  4327	  4338	  4349	  4360	  4371	  4382	  4393	  4404	  4415	  4426	  4437
	  4448	  4459	  4470	  4481	  4492	  4503	  4514	  4534	  4554	  4571	  4591	  4608	  4628	  4645
	  4665	  4703	  4714	  4725	  4736	  4747	  4758	  4769	  4789	  4809	  4826	  4846	  4863	  4883
	  4900	  4920	  4958	  4969	  4980	  4991	  5002	  5013	  5024	  5035	  5046	  5057	  5068	  5079
	  5090	  5101	  5112	  5123	  5134	  5145	  5156	  5167	  5179	  5190	  5201	  5212	  5223	  5234
	  5245	  5256	  5267	  5278	  5289	  5300	  5311	  5324	  5331	  5346	  5353	  5368	  5375	  5390
	  5397	  5412	  5419	  5434	  5441	  5456	  5463	  5478	  5485	  5500	  5507	  5522	  5529	  5544
	  5551	  5566	  5573	  5588	  5595	  5610	  5617	  5630	  5641	  5652	  5663	  5674	  5685	  5696
	  5707	  5718	  5729	  5740	  5751	  5762	  5775	  5782	  5795	  5806	  5817	  5828	  5839	  5850
	  5861	  5872	  5883	  5903	  5923	  5940	  5960	  5977	  5997	  6014	  6034	  6072	  6083	  6094
	  6105	  6116	  6127	  6138	  6149	  6160	  6171	  6182	  6193	  6207	  6214	  6227	  6238	  6252
	  6259	  6272	  6283	  6294	  6305	  6319	  6326	  6339	  6350	  6361	  6375	  6382	  6395	  6409
	  6416	  6429	  6440	  6451	  6465	  6472	  6488	  6495	  6508	  6519	  6530	  6541	  6552	  6563
	  6574	  6585	  6596	  6607	  6618	  6629	  6649	  6669	  6686	  6706	  6723	  6743	  6760	  6780
	  6799	  6819
ER4	    41#	   815	   838	   852	   866	   880	   894	   908	   922	   936	   959	   973	   987	  1001
	  1015	  1029	  1043	  1057	  1071	  1085	  1099	  1113	  1127	  1141	  1155	  1169	  1183	  1197
	  1220	  1234	  1248	  1262	  1276	  1290	  1304	  1318	  1332	  1346	  1360	  1374	  1388	  1402	  1416	  1430	  1444	  1467	  1481	  1495	  1509	  1523	  1537	  1551	  1565	  1579	  1593	  1607
	  1621	  1635	  1649	  1663	  1677	  1691	  1705	  1734	  1750	  1766	  1782	  1798	  1814	  1830     SEQ 0206
	  1846	  1862	  1887	  1902	  1917	  1932	  1947	  1962	  1977	  1992	  2007	  2022	  2047	  2062
	  2077	  2092	  2107	  2122	  2137	  2152	  2176	  2191	  2206	  2221	  2236	  2251	  2266	  2281
	  2296	  2321	  2336	  2351	  2366	  2381	  2396	  2411	  2426	  2451	  2466	  2481	  2496	  2511
	  2526	  2541	  2556	  2571	  2586	  2612	  2627	  2642	  2657	  2672	  2687	  2702	  2717	  2743
	  2754	  2765	  2776	  2787	  2798	  2809	  2820	  2831	  2842	  2853	  2864	  2875	  2886	  2897
	  2908	  2919	  2930	  2941	  2952	  2963	  2974	  2985	  2996	  3007	  3018	  3029	  3040	  3051
	  3062	  3073	  3084	  3095	  3106	  3117	  3128	  3139	  3150	  3161	  3172	  3183	  3194	  3205
	  3216	  3227	  3238	  3250	  3261	  3272	  3283	  3294	  3305	  3316	  3327	  3338	  3349	  3360
	  3371	  3382	  3393	  3404	  3415	  3426	  3437	  3448	  3459	  3470	  3481	  3492	  3503	  3514
	  3525	  3536	  3548	  3559	  3570	  3581	  3592	  3603	  3614	  3625	  3636	  3647	  3658	  3669
	  3680	  3691	  3702	  3713	  3724	  3735	  3746	  3757	  3768	  3779	  3790	  3801	  3812	  3823
	  3834	  3845	  3856	  3867	  3878	  3889	  3900	  3911	  3922	  3933	  3944	  3955	  3966	  3977
	  3988	  3999	  4010	  4021	  4032	  4043	  4054	  4065	  4076	  4087	  4098	  4109	  4120	  4131
	  4142	  4153	  4164	  4175	  4186	  4197	  4208	  4219	  4230	  4241	  4252	  4263	  4274	  4285
	  4296	  4307	  4318	  4329	  4340	  4351	  4362	  4373	  4384	  4395	  4406	  4417	  4428	  4439
	  4450	  4461	  4472	  4483	  4494	  4505	  4516	  4536	  4556	  4573	  4593	  4610	  4630	  4647
	  4667	  4705	  4716	  4727	  4738	  4749	  4760	  4771	  4791	  4811	  4828	  4848	  4865	  4885
	  4902	  4922	  4960	  4971	  4982	  4993	  5004	  5015	  5026	  5037	  5048	  5059	  5070	  5081
	  5092	  5103	  5114	  5125	  5136	  5147	  5158	  5169	  5181	  5192	  5203	  5214	  5225	  5236
	  5247	  5258	  5269	  5280	  5291	  5302	  5313	  5326	  5333	  5348	  5355	  5370	  5377	  5392
	  5399	  5414	  5421	  5436	  5443	  5458	  5465	  5480	  5487	  5502	  5509	  5524	  5531	  5546
	  5553	  5568	  5575	  5590	  5597	  5612	  5619	  5632	  5643	  5654	  5665	  5676	  5687	  5698
	  5709	  5720	  5731	  5742	  5753	  5764	  5777	  5784	  5797	  5808	  5819	  5830	  5841	  5852
	  5863	  5874	  5885	  5905	  5925	  5942	  5962	  5979	  5999	  6016	  6036	  6074	  6085	  6096
	  6107	  6118	  6129	  6140	  6151	  6162	  6173	  6184	  6195	  6209	  6216	  6229	  6240	  6254
	  6261	  6274	  6285	  6296	  6307	  6321	  6328	  6341	  6352	  6363	  6377	  6384	  6397	  6411
	  6418	  6431	  6442	  6453	  6467	  6474	  6490	  6497	  6510	  6521	  6532	  6543	  6554	  6565
	  6576	  6587	  6598	  6609	  6620	  6631	  6651	  6671	  6688	  6708	  6725	  6745	  6762	  6782
	  6801	  6821
ER5	    42#	  2730	  4692	  4947	  6061
ER6	    43#	  2732	  4694	  4949	  6063
ER7	    44#
ERRHLT	   292#	  6968
FATAL	   291#
FRD36	   432#
FRD8	   433#
FREAD	   431#
FSELEC	   430#
GET	   275#
GO	   272#
HALT	   277#	   543
JEN	   279#
JRSTF	   278#	   804	  4527	  4547	  4564	  4584	  4601	  4621	  4638	  4658	  4683	  4782	  4802	  4819
	  4839	  4856	  4876	  4893	  4913	  4938	  5896	  5916	  5933	  5953	  5970	  5990	  6007	  6027
	  6052	  6642	  6662	  6679	  6699	  6716	  6736	  6753	  6773	  6792	  6812
MAPADR	   413#
MAPCNK	   414#
MAPMEM	   410#
MAPPNT	   416#
MAPSET	   415#
MEMSEG	   412#MEMZRO	   411#
MODPCP	   423#                                                                                                            SEQ 0207
MODPCU	   422#
MTROP	   391#
NAME	     7#	    10
PBELL	   366#	  6972
PCRL	   360#	  6908	  6927
PCRL2	   364#
PCRL2F	   365#
PCRLF	   361#
PFORCE	   368#
PGMINT	   285#	   791
PJRST	   276#
PMSG	   370#	  6874	  6878	  6889	  6914
PMSGF	   373#
PNT1	   326#
PNT11	   340#
PNT11F	   341#
PNT1F	   327#
PNT2	   328#
PNT2F	   329#
PNT3	   330#	  6926
PNT3F	   331#
PNT4	   332#	  6930
PNT4F	   333#
PNT5	   334#	  6932
PNT5F	   335#
PNT6	   336#	  6882	  6934
PNT6F	   337#
PNT7	   338#
PNT7F	   339#
PNTA	   312#	  6917
PNTADF	   343#
PNTADR	   342#
PNTAF	   313#
PNTAL	   314#	  6910
PNTALF	   315#
PNTCHF	   325#
PNTCHR	   324#
PNTCI	   322#
PNTCIF	   323#
PNTCW	   358#
PNTCWF	   359#
PNTDCF	   351#
PNTDEC	   350#	  6877
PNTDS	   352#
PNTDSF	   353#
PNTHW	   346#	  6897
PNTHWF	   347#
PNTMGN	   437#	  6958
PNTMSF	   319#
PNTMSG	   318#
PNTNM	   354#	  6870PNTOCF	   349#
PNTOCS	   348#                                                                                                            SEQ 0208
PNTOCT	   344#
PNTOTF	   345#
PNTSIX	   355#
PNTSXF	   356#
PSIXL	   316#
PSIXLF	   317#
PSIXM	   320#	  6875	  6879	  6890	  6915
PSIXMF	   321#
PSP	   362#
PSPF	   363#
PUT	   274#
RTN	   273#	   530
S	   203#	   205	   209	   238	   240	   249	   252	   267	   268	   270	   281	   283	   287	   289
	   294	   298	   440	   445	   451	   478	   480	   498	   500	   518	   520	   549	   551	   569
	   571	   589	   591	   599	   601	   622	   627	   653	   655	   662	   664	   670	   672	   678
	   680	   684	   686	   691	   693	   697	   699	   703	   705	   711	   713	   716	   718	   722
	   724	   728	   730	   734	   736	   740	   742	   747	   752	   756	   758
SAVEAC	    77#	   799	  4521	  4678	  4776	  4933	  5890	  6047	  6636
SIXBTZ	   379#
SWITCH	   385#	  6856	  6959
TTALTM	   307#	  6961
TTICHR	   300#
TTICNV	   305#
TTIDEC	   304#
TTINO	   302#
TTIOCT	   303#
TTIYES	   301#
TTLOOK	   306#
TTSIXB	   308#
TTYINP	   309#