DBKCD 	PDP-10 KI10 ADVANCED INSTRUCTION DIAGNOSTIC #4, VERSION 0,3 	MACRO %52(462) 12:35  9-AUG-76 PAGE 1
DBKCDT	MAC	30-JUL-76 12:48		DIAGNOSTIC PARAMETERS                                                              SEQ 0011

     1					;MAINDEC-10-DBKCD
     2
     3			000003		DECVER=003
     4			000000		MCNVER=000
     5
     6						XLIST
     7						LIST
     8						LALL
     9
    10					NAME	\MCNVER,\DECVER^
    11					TITLE	DBKCD 	PDP-10 KI10 ADVANCED INSTRUCTION DIAGNOSTIC #4, VERSION 0,3 ^
    12
    13					;(EXTENDED ADDERS AND ASSOCIATED LOGIC)
    14
    15					;COPYRIGHT 1972, 1973, 1974, 1975
    16					;DIGITAL EQUIPMENT CORPORATION
    17					;MAYNARD, MASS.  01754
    18
    19					;JOHN R. KIRCHOFF
    20					;LINDA GARLAND
    21
    22	000137				LOC	137
    23	000137	000000	000003		MCNVER,,DECVER
    24						NOSYMDBKCD 	PDP-10 KI10 ADVANCED INSTRUCTION DIAGNOSTIC #4, VERSION 0,3 	MACRO %52(462) 12:35  9-AUG-76 PAGE 2
DBKCDT	MAC	30-JUL-76 12:48		DIAGNOSTIC PARAMETERS                                                              SEQ 0012

    25					SUBTTL	DIAGNOSTIC PARAMETERS
    26
    27					;OPERATOR DEFINITIONS
    28
    29		110000	000000		OPDEF	DFAD	[110B8]
    30		111000	000000		OPDEF	DFSB	[111B8]
    31		112000	000000		OPDEF	DFMP	[112B8]
    32		113000	000000		OPDEF	DFDV	[113B8]
    33		120000	000000		OPDEF	DMOVE	[120B8]
    34		121000	000000		OPDEF	DMOVN	[121B8]
    35		122000	000000		OPDEF	DMOVEM	[122B8]
    36		123000	000000		OPDEF	DMOVNM	[123B8]
    37
    38		001000	000000		OPDEF	ER1	[1B8]
    39		002000	000000		OPDEF	ER2	[2B8]
    40		003000	000000		OPDEF	ER3	[3B8]
    41		004000	000000		OPDEF	ER4	[4B8]
    42		005000	000000		OPDEF	ER5	[5B8]
    43		006000	000000		OPDEF	ER6	[6B8]
    44		007000	000000		OPDEF	ER7	[7B8]
    45		010000	000000		OPDEF	ER10	[10B8]
    46		011000	000000		OPDEF	ER11	[11B8]
    47		012000	000000		OPDEF	ER12	[12B8]
    48		013000	000000		OPDEF	ER13	[13B8]
    49
    50			043145		LUUO1==ERRMES
    51			043145		LUUO2==ERRMES
    52			043145		LUUO3==ERRMES
    53			043145		LUUO4==ERRMES
    54			043145		LUUO5==ERRMES
    55			043145		LUUO6==ERRMES
    56			043145		LUUO7==ERRMES
    57			043145		LUUO10==ERRMES
    58			043145		LUUO11==ERRMES
    59			043145		LUUO12==ERRMES
    60			043145		LUUO13==ERRMES
    61
    62					;SUBROUTINE ASSEMBLY DEFINITIONS
    63
    64			000100		DEBUG=100
    65			000001		EXCASB=1
    66			000001		USRASB=1
    67			000001		KI10=1
    68			000001		PGMEND=1
    69			000001		ERDIAG=1
    70			000001		KLOLD=1
    71			030000		MODDVU=BEGIN
    72			030000		MODDVL=BEGINDBKCD 	PDP-10 KI10 ADVANCED INSTRUCTION DIAGNOSTIC #4, VERSION 0,3 	MACRO %52(462) 12:35  9-AUG-76 PAGE 3
DBKCDT	MAC	30-JUL-76 12:48		DIAGNOSTIC PARAMETERS                                                              SEQ 0013

    73					;MACROS
    74
    75					DEFINE	SAVEAC	(A,B)<
    76						MOVEI	AC+4,.
    77						MOVEM	AC+4,TESTPC	;SETUP SUBTEST PC
    78						MOVEI	AC+4,<AC+4>&17	;INFORM ERROR ROUTINE WHICH
    79						MOVEM	AC+4,ERRLOP#	;AC IS USED FOR ITERATION>
    80
    81					;BEGIN ASSEMBLY PARAMETERS
    82
    83			030000		SADR1=BEGIN
    84			030076		SADR2=RESRT1
    85			030600		SADR3=RENTR1
    86			030000		SADR4=BEGIN
    87			030000		SADR5=BEGIN
    88			030000		SADR6=BEGIN
    89			000000		SADR7=0
    90			000000		SADR8=0
    91			000000		SADR9=0
    92			000000		SADR10=0
    93			000000		SADR11=0
    94
    95			000000		PAREA1=0
    96			000000		PAREA2=0
    97		444253	434400		PAREA3=SIXBIT/DBKCD/
    98		605664	000000		PAREA4=SIXBIT/PNT/
    99			000000		PAREA5=0
   100			000000		PAREA6=0
   101
   102			001000		ITERAT=1000DBKCD 	PDP-10 KI10 ADVANCED INSTRUCTION DIAGNOSTIC #4, VERSION 0,3 	MACRO %52(462) 12:35  9-AUG-76 PAGE 4
DBKCDT	MAC	30-JUL-76 12:48		DIAGNOSTIC PARAMETERS                                                              SEQ 0014

   103					DEFINE	DFA	(T,A,B,C,D,E,F,G,H,I,M,K,L)	<
   104					R'T'00:	DMOVE	AC,[A,,B
   105							C,,D]
   106						DFAD	AC,[E,,F
   107							G,,H]
   108						CAME	AC,[I,,M]
   109						ER3	AC,T'01
   110						CAME	AC+1,[K,,L]
   111						ER4	AC+1,T'01
   112						JUMPL	AC+4,R'T'00	;LOOP ON ERROR SWITCH>
   113
   114					DEFINE	DFS	(T,A,B,C,D,E,F,G,H,I,M,K,L)	<
   115					R'T'00:	DMOVE	AC,[A,,B
   116							C,,D]
   117						DFSB	AC,[E,,F
   118							G,,H]
   119						CAME	AC,[I,,M]
   120						ER3	AC,T'01
   121						CAME	AC+1,[K,,L]
   122						ER4	AC+1,T'01
   123						JUMPL	AC+4,R'T'00	;LOOP ON ERROR SWITCH>
   124
   125					DEFINE	DFM	(T,A,B,C,D,E,F,G,H,I,M,K,L)	<
   126					R'T'00:	DMOVE	AC,[A,,B
   127							C,,D]
   128						DFMP	AC,[E,,F
   129							G,,H]
   130						CAME	AC,[I,,M]
   131						ER3	AC,T'01
   132						CAME	AC+1,[K,,L]
   133						ER4	AC+1,T'01
   134						JUMPL	AC+4,R'T'00	;LOOP ON ERROR SWITCH>
   135
   136					DEFINE	DFD	(T,A,B,C,D,E,F,G,H,I,M,K,L)	<
   137					R'T'00:	DMOVE	AC,[A,,B
   138							C,,D]
   139						DFDV	AC,[E,,F
   140							G,,H]
   141						CAME	AC,[I,,M]
   142						ER3	AC,T'01
   143						CAME	AC+1,[K,,L]
   144						ER4	AC+1,T'01
   145						JUMPL	AC+4,R'T'00	;LOOP ON ERROR SWITCH>DBKCD 	PDP-10 KI10 ADVANCED INSTRUCTION DIAGNOSTIC #4, VERSION 0,3 	MACRO %52(462) 12:35  9-AUG-76 PAGE 5
DBKCDT	MAC	30-JUL-76 12:48		DIAGNOSTIC PARAMETERS                                                              SEQ 0015

   146					DEFINE	DFARP	(T,A,B,C,D,E,F,G,H,I,M,K,L)	<
   147						DMOVE	AC,[A,,B
   148							C,,D]
   149						DFAD	AC,[E,,F
   150							G,,H]
   151						CAME	AC,[I,,M]
   152						ER3	AC,T
   153						CAME	AC+1,[K,,L]
   154						ER4	AC+1,T
   155						JUMPL	AC+4,.-^D6	;LOOP ON ERROR SWITCH>DBKCD 	PDP-10 KI10 ADVANCED INSTRUCTION DIAGNOSTIC #4, VERSION 0,3 	MACRO %52(462) 12:35  9-AUG-76 PAGE 1
PARAM	KLM	26-FEB-76		*PARAM*	CONSOLE DATA SWITCH ASSIGNMENTS, FEB 26,1976                               SEQ 0016

   156					SUBTTL	*PARAM*	CONSOLE DATA SWITCH ASSIGNMENTS, FEB 26,1976
   157
   158					DEFINE	S,<;*********************************************************************>
   159
   160					S^;*********************************************************************^
   161					;*DATA SWITCHES (READ FROM CONSOLE IN EXEC MODE OR TYPED IN IN USER MODE)
   162					;*LEFT HALF SWITCHES ARE PRE-ASSIGNED FOR SUBROUTINE PACKAGE USE
   163					;*AND CONTROL LOOPING, PRINTING (TTY OR OTHER DEVICE) AND MISC. FUNCTIONS
   164					S^;*********************************************************************^
   165
   166			400000		ABORT==	400000			;ABORT PROGRAM ON PASS COMPLETION
   167			200000		RSTART==200000			;RESTART TEST, PRINT TOTALS
   168			100000		TOTALS==100000			;PRINT TOTALS, CONTINUE
   169
   170			040000		NOPNT==	040000			;INHIBIT ALL PRINT/TYPE OUT (EXCEPT FORCED)
   171			020000		PNTLPT==020000			;PRINT ALL DATA ON LPT (LOGICAL DEVICE, USER MODE)
   172			010000		DING==	010000			;RING BELL ON ERROR
   173
   174			004000		LOOPER==004000			;ENTER EXERCISE/CHECK LOOP ON ERROR
   175			002000		ERSTOP==002000			;HALT ON TEST ERROR
   176			001000		PALERS==001000			;PRINT ALL ERRORS
   177
   178			000400		RELIAB==000400			;RELIABILITY MODE
   179			000200		TXTINH==000200			;INHIBIT ERROR TEXT
   180			000100		INHPAG==000100			;INHIBIT PAGING
   181
   182			000040		MODDVC==000040			;MODIFY DEVICE CODE
   183			000020		INHCSH==000020			;INHIBIT CACHE
   184			000010		OPRSEL==000010			;OPERATOR SELECTION
   185
   186			000004		CHAIN==	000004			;CHAIN CONTROL SWITCH
   187
   188			000002		KAHZ50==000002			;KA10 50 HERTZ POWER
   189
   190									;SWITCH 17 RESERVED !!!DBKCD 	PDP-10 KI10 ADVANCED INSTRUCTION DIAGNOSTIC #4, VERSION 0,3 	MACRO %52(462) 12:35  9-AUG-76 PAGE 2
PARAM	KLM	26-FEB-76		*PARAM* PROGRAM/SUBROUTINE PARAMETERS, FEB 26,1976                                 SEQ 0017

   191					SUBTTL	*PARAM* PROGRAM/SUBROUTINE PARAMETERS, FEB 26,1976
   192
   193					S^;*********************************************************************^
   194					;*SPECIAL SUBPROGRAM LINKAGES
   195					S^;*********************************************************************^
   196
   197			027772		FSELNK=	27772	;FILE SELECT LINK
   198			027773		FRDLNK=	27773	;FILE READ LINK
   199			027774		LDLNK=	27774	;LOAD LINKAGE ADDRESS
   200			027775		DDTLNK=	27775	;DDT LINKAGE ADDRESS
   201			027776		MODLNK=	27776	;OPERATIONAL MODE CHECK LINKAGE ADDRESS
   202			027777		SUBLNK=	27777	;SUBROUTINE LINKAGE ADDRESS
   203
   204					S^;*********************************************************************^
   205					;*SPECIAL SUBROUTINE FATAL HALTS
   206					;*USED TO REPORT ERRORS THAT CAUSE THE SUBROUTINES TO BE UNUSABLE
   207					S^;*********************************************************************^
   208
   209					;ADDRESS   TAG	REASON
   210					;---------------------
   211
   212					; 1010 	NOEXEC	;PROGRAM NOT CODED FOR EXEC MODE OPERATION
   213					; 1011  PLERR	;FATAL PUSH LIST POINTER ERROR
   214					; 1012  PLERR1	;INITIAL PUSH LIST POINTER ERROR
   215					; 1013  MUOERR	;MUUO WITH LUUO HANDLER WIPED OUT
   216					; 1014  DTEBER	;DTE20 INTERRUPT WITHOUT DOORBELL
   217					; 1015  DTECER	;DTE20 CLOCK INTERRUPT WITHOUT FLAG SET
   218					; 1016  CPIERR	;CPU INITIALIZATION ERROR
   219					; 1017  EOPERR	;END OF PROGRAM ERROR
   220					; 1020  LUOERR	;INTERRUPT WITH LUUO HANDLER WIPED OUT
   221
   222					S^;*********************************************************************^DBKCD 	PDP-10 KI10 ADVANCED INSTRUCTION DIAGNOSTIC #4, VERSION 0,3 	MACRO %52(462) 12:35  9-AUG-76 PAGE 3
PARAM	KLM	26-FEB-76		*PARAM* PROGRAM/SUBROUTINE PARAMETERS, FEB 26,1976                                 SEQ 0018

   223					S^;*********************************************************************^
   224					;OPERATOR DEFINITIONS (NON-UUO'S)
   225					S^;*********************************************************************^
   226
   227		260740	000000		OPDEF	GO	[PUSHJ	P,]	;SUBROUTINE CALL
   228		263740	000000		OPDEF	RTN	[POPJ	P,]	;SUBROUTINE RETURN
   229		261740	000000		OPDEF	PUT	[PUSH	P,]	;PUT DATA ON PUSH LIST
   230		262740	000000		OPDEF	GET	[POP	P,]	;GET DATA FROM PUSH LIST
   231		254000	000000		OPDEF	PJRST	[JRST	]	;JRST TO ROUTINE THAT RTN'S
   232		254200	000000		OPDEF	HALT	[JRST	4,]	;DEFINITION FOR DDT
   233		254100	000000		OPDEF	JRSTF	[JRST	2,]	;DEFINITION FOR DDT
   234		254500	000000		OPDEF	JEN	[JRST	12,]	;DEFINITION FOR DDT
   235
   236					S^;*********************************************************************^
   237					;*SUBROUTINE INITIALIZATION CALL
   238					S^;*********************************************************************^
   239
   240		265000	030011		OPDEF	PGMINT	[JSP	0,SBINIT]	;SUBROUTINE INITIALIZATION
   241
   242					S^;*********************************************************************^
   243					;*HALTING UUO'S (A MORE GRACEFUL HALT THAN SIMPLY USING THE HALT INSTRUCTION).
   244					S^;*********************************************************************^
   245
   246		037640	000004		OPDEF	FATAL	[37B8!15B12!4]	;FATAL PROGRAMMING HALT
   247		037600	000004		OPDEF	ERRHLT	[37B8!14B12!4]	;PROGRAM ERROR HALT
   248
   249					S^;*********************************************************************^
   250					;*TERMINAL INPUT UUO'S
   251					;*ALWAYS COME FROM THE CONSOLE TERMINAL IN EXEC MODE OR THE
   252					;*CONTROLLING TERMINAL (REAL TERMINAL OR PTY) IN USER MODE.
   253					S^;*********************************************************************^
   254
   255		037000	000003		OPDEF	TTICHR 	[37B8!0B12!3]	;TTY, INPUT ANY CHARACTER
   256		037040	000003		OPDEF	TTIYES	[37B8!1B12!3]	;TTY, NORMAL RETURN Y
   257		037100	000003		OPDEF	TTINO	[37B8!2B12!3]	;TTY, NORMAL RETURN N
   258		037140	000003		OPDEF	TTIOCT	[37B8!3B12!3]	;TTY, INPUT OCTAL WORD
   259		037200	000003		OPDEF	TTIDEC	[37B8!4B12!3]	;TTY, INPUT DECIMAL WORD
   260		037240	000003		OPDEF	TTICNV	[37B8!5B12!3]	;TTY, INPUT CONVERTABLE WORD
   261		037300	000003		OPDEF	TTLOOK	[37B8!6B12!3]	;TTY, KEYBOARD CHECK
   262		037340	000003		OPDEF	TTALTM	[37B8!7B12!3]	;TTY, ALT-MODE CHECK
   263		037400	000003		OPDEF	TTSIXB	[37B8!10B12!3]	;TTY, INPUT SIXBIT WORD
   264		037440	000003		OPDEF	TTYINP	[37B8!11B12!3]	;TTY, IMAGE MODE INPUTDBKCD 	PDP-10 KI10 ADVANCED INSTRUCTION DIAGNOSTIC #4, VERSION 0,3 	MACRO %52(462) 12:35  9-AUG-76 PAGE 4
PARAM	KLM	26-FEB-76		*PARAM* PROGRAM/SUBROUTINE PARAMETERS, FEB 26,1976                                 SEQ 0019

   265					;*TERMINAL OUTPUT UUO'S.
   266
   267		037000	000000		OPDEF	PNTA	[37B8!0B12!0]	;PRINT ASCII WORD
   268		037000	000001		OPDEF	PNTAF	[37B8!0B12!1]	;PRINT ASCII WORD FORCED
   269		037740	000000		OPDEF	PNTAL	[37B8!17B12!0]	;PRINT ASCIZ LINE
   270		037740	000001		OPDEF	PNTALF	[37B8!17B12!1]	;PRINT ASCIZ LINE FORCED
   271		037600	000003		OPDEF	PSIXL	[37B8!14B12!3]	;PRINT SIXBIT'Z LINE
   272		037640	000003		OPDEF	PSIXLF	[37B8!15B12!3]	;PRINT SIXBIT'Z LINE FORCED
   273		037000	000000		OPDEF	PNTMSG	[37B8!0B12!0]	;PRINT MESSAGE IMMEDIATE
   274		037040	000000		OPDEF	PNTMSF	[37B8!1B12!0]	;PRINT MESSAGE IMMEDIATE FORCED
   275		037100	000000		OPDEF	PSIXM	[37B8!2B12!0]	;PRINT SIXBIT'Z MSG IMMEDIATE
   276		037200	000000		OPDEF	PSIXMF	[37B8!4B12!0]	;PRINT SIXBIT'Z MSG IMM FORCED
   277		037000	000000		OPDEF	PNTCI	[37B8!0B12!0]	;PRINT CHARACTER IMMEDIATE
   278		037040	000000		OPDEF	PNTCIF	[37B8!1B12!0]	;PRINT CHARACTER IMMEDIATE FORCED
   279		037500	000000		OPDEF	PNTCHR	[37B8!12B12!0]	;PRINT CHARACTER
   280		037500	000001		OPDEF	PNTCHF	[37B8!12B12!1]	;PRINT CHARACTER FORCED
   281		037040	000000		OPDEF	PNT1	[37B8!1B12!0]	;PRINT ONE OCTAL DIGIT
   282		037040	000001		OPDEF	PNT1F	[37B8!1B12!1]	;PRINT 1 OCTAL DIGIT FORCED
   283		037100	000000		OPDEF	PNT2	[37B8!2B12!0]	;PRINT TWO OCTAL DIGITS
   284		037100	000001		OPDEF	PNT2F	[37B8!2B12!1]	;PRINT 2 OCTAL DIGITS FORCED
   285		037140	000000		OPDEF	PNT3	[37B8!3B12!0]	;PRINT THREE OCTAL DIGITS
   286		037140	000001		OPDEF	PNT3F	[37B8!3B12!1]	;PRINT THREE OCTAL DIGITS FORCED
   287		037200	000000		OPDEF	PNT4	[37B8!4B12!0]	;PRINT FOUR OCTAL DIGITS
   288		037200	000001		OPDEF	PNT4F	[37B8!4B12!1]	;PRINT FOUR OCTAL DIGITS FORCED
   289		037240	000000		OPDEF	PNT5	[37B8!5B12!0]	;PRINT FIVE OCTAL DIGITS
   290		037240	000001		OPDEF	PNT5F	[37B8!5B12!1]	;PRINT FIVE OCTAL DIGITS FORCED
   291		037300	000000		OPDEF	PNT6	[37B8!6B12!0]	;PRINT SIX OCTAL DIGITS
   292		037300	000001		OPDEF	PNT6F	[37B8!6B12!1]	;PRINT SIX OCTAL DIGITS FORCED
   293		037340	000000		OPDEF	PNT7	[37B8!7B12!0]	;PRINT 7 OCTAL DIGITS
   294		037340	000001		OPDEF	PNT7F	[37B8!7B12!1]	;PRINT 7 OCTAL DIGITS FORCED
   295		037440	000000		OPDEF	PNT11	[37B8!11B12!0]	;PRINT 11 OCTAL DIGITS
   296		037440	000001		OPDEF	PNT11F	[37B8!11B12!1]	;PRINT 11 OCTAL DIGITS FORCED.
   297		037400	000000		OPDEF	PNTADR	[37B8!10B12!0]	;PRINT PHYSICAL ADDRESS
   298		037400	000001		OPDEF	PNTADF	[37B8!10B12!1]	;PRINT PHYSICAL ADDRESS FORCED
   299		037600	000000		OPDEF	PNTOCT  [37B8!14B12!0]	;PRINT FULL WORD OCTAL
   300		037600	000001		OPDEF	PNTOTF	[37B8!14B12!1]	;PRINT FULL WORD OCTAL FORCED
   301		037540	000000		OPDEF	PNTHW	[37B8!13B12!0]	;PRINT OCTAL HALF WORDS, 6 SP 6
   302		037540	000001		OPDEF	PNTHWF	[37B8!13B12!1]	;PRINT OCTAL HALF WORDS, 6 SP 6 FORCED
   303		037700	000003		OPDEF	PNTOCS	[37B8!16B12!3]	;PRINT OCTAL, SUPPRESS LEADING 0'S
   304		037740	000003		OPDEF	PNTOCF	[37B8!17B12!3]	;PRINT OCTAL, SUPPRESS LEADING 0'S FORCED
   305		037640	000000		OPDEF	PNTDEC	[37B8!15B12!0]	;PRINT DECIMAL, SUPRESS LEADING 0'S
   306		037640	000001		OPDEF	PNTDCF	[37B8!15B12!1]	;PRINT DECIMAL, SUPRESS LEADING 0'S FORCED
   307		037700	000000		OPDEF	PNTDS	[37B8!16B12!0]	;PRINT DECIMAL, SPACES FOR LD 0'S
   308		037700	000001		OPDEF	PNTDSF	[37B8!16B12!1]	;PRINT DECIMAL, SPACES FOR LD 0'S FORCEDDBKCD 	PDP-10 KI10 ADVANCED INSTRUCTION DIAGNOSTIC #4, VERSION 0,3 	MACRO %52(462) 12:35  9-AUG-76 PAGE 5
PARAM	KLM	26-FEB-76		*PARAM* PROGRAM/SUBROUTINE PARAMETERS, FEB 26,1976                                 SEQ 0020

   309		037200	000002		OPDEF	PNTNM	[37B8!4B12!2]	;PRINT PROGRAM NAME
   310		037000	000002		OPDEF	PNTSIX	[37B8!0B12!2]	;PRINT SIXBIT WORD
   311		037040	000002		OPDEF	PNTSXF	[37B8!1B12!2]	;PRINT SIXBIT WORD FORCED
   312		037240	000002		OPDEF	DROPDV	[37B8!5B12!2]	;CLOSE LOGICAL FILE, USER MODE
   313		037100	000002		OPDEF	PNTCW	[37B8!2B12!2]	;PRINT DF10 CONTROL WORD
   314		037140	000002		OPDEF	PNTCWF	[37B8!3B12!2]	;PRINT DF10 CONTROL WORD FORCED
   315		037000	030242		OPDEF	PCRL	[37B8!0B12!CRLF] ;PRINT CARRIAGE RETURN/LINE FEED
   316		037040	030242		OPDEF	PCRLF	[37B8!1B12!CRLF] ;PRINT CARRIAGE RETURN/LINE FEED FORCED
   317		037000	000040		OPDEF	PSP	[37B8!0B12!40]	;PRINT SPACE
   318		037040	000040		OPDEF	PSPF	[37B8!1B12!40]	;PRINT SPACE FORCED
   319		037000	030243		OPDEF	PCRL2	[37B8!0B12!CRLF2] ;PRINT CARRIAGE RETURN/LINE FEED (TWICE)
   320		037040	030243		OPDEF	PCRL2F	[37B8!1B12!CRLF2] ;PRINT CARRIAGE RETURN/LINE FEED (TWICE) FORCED
   321		037040	000007		OPDEF	PBELL	[37B8!1B12!7]	;PRINT TTY BELL
   322
   323		037040	000026		OPDEF	PFORCE	[37B8!1B12!26]	;PRINT FORCE, CONTROL O OVERRIDE
   324
   325					DEFINE	PMSG	(ARG),<
   326						PSIXM	[SIXBIT\ARG'_\]>
   327
   328					DEFINE	PMSGF	(ARG),<
   329						PSIXMF	[SIXBIT\ARG'_\]>
   330
   331					;*SIXBTZ -- MACRO TO GENERATE SIXBIT DATA FOR PRINTING
   332					;*	CONSERVES CORE OVER ASCIZ
   333
   334					DEFINE	SIXBTZ	(ARG),<	[SIXBIT\ARG'_\]>
   335
   336					;*CONSOLE SWITCH INPUT UUO.
   337					;*READS CONSOLE SWITCHES IF IN EXEC MODE OR ASKS FOR THEM IF
   338					;* USER MODE.
   339
   340		037400	000002		OPDEF	SWITCH	[37B8!10B12!2]	;INPUT CONSOLE SWITCHES
   341
   342					;*CLOCK INITIALIZATION UUO - TO SET DESIRED CLOCK OPERATION
   343					;*EITHER IGNORE CLOCK, ONLY LET IT TICK OR CAUSE INTERRUPT TO OCCUR.
   344
   345		037540	000004		OPDEF	CLOKOP	[37B8!13B12!4]	;CLOCK OPERATION UUO - PDP-11 CLOCK
   346		037200	000004		OPDEF	MTROP	[37B8!4B12!4]	;CLOCK OPERATION UUO - DK20 METER
   347
   348					;*KL10 ONLY CACHE OPERATION UUO'S
   349
   350		037040	000004		OPDEF	CINVAL	[37B8!1B12!4]	;CACHE INVALIDATE
   351		037100	000004		OPDEF	CFLUSH	[37B8!2B12!4]	;CACHE FLUSH
   352		037140	000004		OPDEF	CWRTBI	[37B8!3B12!4]	;CACHE WRITE-BACK & INVALIDATEDBKCD 	PDP-10 KI10 ADVANCED INSTRUCTION DIAGNOSTIC #4, VERSION 0,3 	MACRO %52(462) 12:35  9-AUG-76 PAGE 6
PARAM	KLM	26-FEB-76		*PARAM* PROGRAM/SUBROUTINE PARAMETERS, FEB 26,1976                                 SEQ 0021

   353					;*END OF PASS/PROGRAM UUOS
   354
   355					;PERFORMS THE END OF PASS FUNCTIONS. INCREMENT PASS COUNT,
   356					;*DECREMENT ITERATION COUNT, CHECK IF FINISHED WITH THIS PROGRAM ETC.
   357
   358		037500	000004		OPDEF	ENDUUO	[37B8!12B12!4]	;UUO TO DISPLAY LIGHTS
   359		037700	000004		OPDEF	EOPUUO	[37B8!16B12!4]	;END OF PROGRAM UUO
   360
   361					;*MEMORY MANAGEMENT UUO'S
   362					;*UUO'S TO PERFORM VARIOUS MEMORY FUNCTIONS. MAPPING, ZEROING, PAGING,
   363					;*ADDRESS CONVERSION, ETC...
   364
   365		037000	000004		OPDEF	MAPMEM	[37B8!0B12!4]	;MAP MEMORY
   366		037500	000002		OPDEF	MEMZRO	[37B8!12B12!2]	;ZERO MEMORY
   367		037440	000002		OPDEF	MEMSEG	[37B8!11B12!2]	;SETUP MEMORY SEGMENT
   368		037540	000002		OPDEF	MAPADR	[37B8!13B12!2]	;VIRTUAL TO PHYSICAL ADR CONVERT
   369		037640	000002		OPDEF	MAPCNK	[37B8!15B12!2]	;MAP MEMORY CHUNK
   370		037600	000002		OPDEF	MAPSET	[37B8!14B12!2]	;SET KI10 EXEC PAGE MAP
   371		037740	000002		OPDEF	MAPPNT	[37B8!17B12!2]	;PRINT MEMORY MAP
   372
   373					;*DEVICE CODE MODIFICATION UUO
   374					;*ALLOWS THE MODIFICATION OF IOT'S TO ONE DEVICE TO BE CHANGED TO
   375					;*IOT'S TO A DIFFERENT DEVICE CODE.
   376
   377		037340	000002		OPDEF	MODPCU	[37B8!7B12!2]	;MODIFY PERHIPERAL CODE, USER
   378		037300	000002		OPDEF	MODPCP	[37B8!6B12!2]	;MODIFY PERHIPERAL CODE, PROGRAM
   379
   380						IFNDEF	MODDVL,<MODDVL==BEGIN>
   381						IFNDEF	MODDVU,<MODDVU==BEGIN>
   382
   383					;*"DIAMON" FILE SELECTION AND READ UUOS
   384
   385		037240	000004		OPDEF	FSELECT	[37B8!5B12!4]	;FILE SELECTION
   386		037300	000004		OPDEF	FREAD	[37B8!6B12!4]	;FILE READ - ASCII DATA
   387		037340	000004		OPDEF	FRD36	[37B8!7B12!4]	;FILE READ - 36 BIT DATA
   388		037400	000004		OPDEF	FRD8	[37B8!10B12!4]	;FILE READ - 8 BIT DATA
   389
   390					;*KI10 ONLY UUO FOR PRINTING MARGIN VALUES
   391
   392		037700	000002		OPDEF	PNTMGN	[37B8!16B12!2]	;PRINT MARGIN VALUE
   393
   394						XLIST
   395						LISTDBKCD 	PDP-10 KI10 ADVANCED INSTRUCTION DIAGNOSTIC #4, VERSION 0,3 	MACRO %52(462) 12:35  9-AUG-76 PAGE 1
FIXED	KLM	26-FEB-76		*FIXED* FIXED CONTROL AND DISPATCH STORAGE, FEB 26,1976                            SEQ 0022

   396					SUBTTL	*FIXED* FIXED CONTROL AND DISPATCH STORAGE, FEB 26,1976
   397
   398	030000					LOC	30000
   399
   400					S^;*********************************************************************^
   401					;*PROGRAM STARTING ADDRESSES
   402					;*THESE ADDRESSES CALL VARIOUS SPECIAL START ROUTINES AND OR OPTIONS
   403					;*NORMAL START ADDRESS IS 30000 ALL OTHERS ARE SPECIAL. INVOKED BECAUSE
   404					;*OF END OF PASS, POWER FAILURE, DDT START, RE-ENTERING(TYPICALLY USER
   405					;*MODE), OR ANY NUMBER OF SPECIAL FEATURE TESTS.
   406					S^;*********************************************************************^
   407
   408	030000	254 00 1 00 027776 	BEGIN:	JRST	@MODLNK		;STAND-ALONE START
   409	030001	254 00 0 00 030624 	$START:	JRST	START		;MODE CHECK STARTING ADDRESS
   410
   411	030002	254 00 1 00 027774 	DIAGMN:	JRST	@LDLNK		;DIAGNOSTIC MONITOR START
   412
   413	030003	254 00 1 00 027774 	SYSEXR:	JRST	@LDLNK		;SYSTEM EXERCISER START
   414
   415	030004	254 00 0 00 030000 	SFSTRT:	JRST	SADR1		;SPECIAL FEATURE START
   416
   417	030005	254 00 0 00 030076 	PFSTRT:	JRST	SADR2		;POWER FAIL RESTART
   418
   419	030006	254 00 0 00 030600 	REENTR:	JRST	SADR3		;REENTER START(USUALLY USER MODE ONLY)
   420
   421	030007				SRTDDT:				;COMMONLY MISTAKEN NAME FOR "DDTSRT"
   422	030007	254 00 1 00 027775 	DDTSRT:	JRST	@DDTLNK		;DDT START
   423
   424	030010	254 00 0 00 030627 	BEGIN1:	JRST	STARTA		;LOOP START(END OF PASS COMES HERE)
   425	030011	254 00 1 00 027777 	SBINIT:	JRST	@SUBLNK		;PMGINT LINKAGE
   426	030012	000000	000000		RETURN:	0			;RETURN ADDRESS STORAGE
   427
   428	030013	000000	000000		START1:	SADR7			;OPTIONAL STARTING ADR/INSTRUCTIONS
   429	030014	000000	000000		START2:	SADR8			; "
   430	030015	000000	000000		START3:	SADR9			; "
   431	030016	000000	000000		START4:	SADR10			; "
   432	030017	000000	000000		START5:	SADR11			; "DBKCD 	PDP-10 KI10 ADVANCED INSTRUCTION DIAGNOSTIC #4, VERSION 0,3 	MACRO %52(462) 12:35  9-AUG-76 PAGE 2
FIXED	KLM	26-FEB-76		*FIXED* FIXED CONTROL AND DISPATCH STORAGE, FEB 26,1976                            SEQ 0023

   433					S^;*********************************************************************^
   434					;*PROGRAM FIXED PARAMETER AREA
   435					S^;*********************************************************************^
   436
   437	030020	444253	434400		PNTNAM:	PAREA3		;SIXBIT PROGRAM NAME
   438	030021	605664	000000		PNTEXT:	PAREA4		;SIXBIT PROGRAM EXTENSION
   439	030022	000000	000000		RANDBS:	PAREA1		;RANDOM BASE NUMBER
   440	030023	000000	000000		SWTEXR:	PAREA2		;SYSTEM EXERCISER SWITCHES
   441	030024	000000	001000		ITRCNT:	ITERAT		;PROGRAM ITERATIONS
   442	030025	000000	030602		$PNAME:	PGMNAM		;POINTER TO PROGRAMS NAME
   443	030026	000000	000003		$PVER:	MCNVER,,DECVER	;MCN & DEC VERSION LEVEL
   444	030027	000000	030000		$MODVL:	MODDVL		;DEVICE CODE CHANGE LOWER LIMIT
   445	030030	000000	030000		$MODVU:	MODDVU		;DEVICE CODE CHANGE UPPER LIMIT
   446	030031	777777	777777		$EMODE:	IFNDEF EXCASB,<0> IFDEF EXCASB,<-1>	;EXEC ALLOWED
   447	030032	777777	777777		$UMODE:	IFNDEF USRASB,<0> IFDEF USRASB,<-1>	;USER ALLOWED
   448	030033	000000	000000		$DSKUP:	IFNDEF DSKUPD,<0> IFDEF DSKUPD,<-1>	;DISK UPDATE MODE
   449	030034	000000	000000		$MMAP:	IFNDEF MEMMAP,<0> IFDEF MEMMAP,<-1>	;ALLOW MEMORY RTNS
   450	030035	000000	000000		PAREA7:	PAREA5		;OPTIONAL PARAMETER
   451	030036	000000	000000		PAREA8:	PAREA6		;OPTIONAL PARAMETER
   452
   453					S^;*********************************************************************^
   454					;*PROGRAM VARIABLE PARAMETER AREA
   455					S^;*********************************************************************^
   456
   457	030037	000000	000000		USER:	0		; 0 = EXEC, -1 = USER MODE FLAG
   458	030040	000000	000000		KAIFLG:	0		;PROCESSOR TYPE, 0 = KA10, -1 = KI10
   459	030041	000000	000000		KLFLG:	0		;PROCESSOR TYPE, 0 = KA/KI, -1 = KL10
   460	030042	777777	777777		MONFLG:	-1		;DIAG MONITOR SPECIAL USER FLAG
   461	030043	000000	000000		MONCTL:	0		;DIAG MON/SYS EXR FLAG
   462	030044	000000	000000		MONTEN:	0		;-1= LOADED BY 10
   463	030045	000000	000000		CLOCKF:	0		;CLOCK TICKED FLAG
   464	030046	000000	000000		CONSW:	0		;CONSOLE SWITCH SETTINGS
   465	030047	000000	000000		PASCNT:	0		;PROGRAM PASS COUNT
   466	030050	000000	000000		RUNFLG:	0		;PROGRAM RUN FLAG
   467	030051	000000	000000		TESTPC:	0		;SUBTEST PC
   468	030052	000000	000000		ERRPC:	0		;ERROR PC
   469	030053	000000	000000		ERRTLS:	0		;ERROR TOTALS
   470	030054	000000	000000		TICKS:	0		;PROGRAM RUNNING TIME
   471	030055	000000	000000		MARGIN:	0		;KI10 MARGIN WORD VALUE
   472	030056	000000	000000		$ONETM:	0		;SUBROUTINE INITIALIZATION FLAGDBKCD 	PDP-10 KI10 ADVANCED INSTRUCTION DIAGNOSTIC #4, VERSION 0,3 	MACRO %52(462) 12:35  9-AUG-76 PAGE 3
FIXED	KLM	26-FEB-76		*FIXED* FIXED CONTROL AND DISPATCH STORAGE, FEB 26,1976                            SEQ 0024

   473					S^;*********************************************************************^
   474					;*SPECIAL PROGRAM DISPATCH ADDRESSES
   475					S^;*********************************************************************^
   476
   477	030057	037 12 0 00 000004 	BEGEND:	ENDUUO		;END OF PASS
   478	030060	254 00 0 00 030010 	$BEND1:	JRST	BEGIN1	;KEEP RUNNING PROGRAM
   479	030061	037 16 0 00 000004 	$BEND2:	EOPUUO		;END OF PROGRAM - NO RETURN
   480	030062	000000	030000		CNTLC:	SADR5		;CONTROL C XFER ADDRESS
   481	030063	000000	030000		ALTMGO:	SADR6		;ALTMODE XFER ADDRESS
   482	030064				CPOPJ1:			;SKIP RETURN
   483	030064	350 00 0 17 000000 	UUOSKP:	AOS	(P)	;SKIP RETURN FROM UUO
   484	030065				CPOPJ:			;NON-SKIP REGULAR RETURN
   485	030065	263 17 0 00 000000 	UUOEXT:	RTN		;UUO RETURN
   486	030066	255 00 0 00 000000 	UUORTN:	JFCL		;ADDITIONAL USERS UUO ROUTINE
   487	030067	255 00 0 00 000000 	$UORTX:	JFCL		;ADDITIONAL UUO LINKAGE
   488	030070	255 00 0 00 000000 	$UUOER:	JFCL		;INITED AS (JRST $UOERX)
   489	030071	255 00 0 00 000000 	$ITRHL:	JFCL		;ADDITIONAL INTERRUPT LINKAGE
   490	030072	255 00 0 00 000000 	$ITRX1:	JFCL		; "
   491	030073	255 00 0 00 000000 	$USRHL:	JFCL		; "
   492	030074	255 00 0 00 000000 	$RSRTX:	JFCL		;ADDITIONAL POWER FAIL LINKAGE
   493	030075	255 00 0 00 000000 	$RSRTY:	JFCL		; "
   494	030076	255 00 0 00 000000 	RESRT1:	JFCL		; INITED AS (JRST RESRTX)
   495	030077	255 00 0 00 000000 	RESRT2:	JFCL		; "
   496	030100	255 00 0 00 000000 	$PARER:	JFCL		;ADDITIONAL PARITY ERROR LINKAGE
   497	030101	255 00 0 00 000000 	ERMORE:	JFCL		;ADDITIONAL ERROR HANDLER LINKAGE
   498	030102	254 04 0 00 030102 		HALT	.	;IMPROPER TRANSFER HALT
   499
   500	030103	000000	000000		$PSHER:	0		;INITED AS (JRST PSHERR)
   501	030104	000000	000000		ITRCH1:	0		;PC & FLAGS OF CURRENT INTERRUPT
   502	030105	000000	000000			0		;INITED AS (JRST $ITRC1)
   503
   504					S^;*********************************************************************^
   505					;*PROCESSOR CONTROL STORAGE
   506					S^;*********************************************************************^
   507
   508	030106	000000	000000		$ACC0:	0		;INTERRUPT SAVED AC0
   509	030107	000000	000000		$SVPI:	0		;INTERRUPT SAVED PI
   510	030110	000000	000000		$SVAPR:	0		;INTERRUPT SAVED APR
   511	030111	000000	000000		$SVPAG:	0		;INTERRUPT SAVED PAG (DATAI)
   512	030112	000000	000000		$SPAG1:	0		;INTERRUPT SAVED PAG (CONI)
   513
   514	030113	000000	000000		$SVUUO:	0		;CURRENT USERS UUO
   515	030114	000000	000000		$SVUPC:	0		;PC OF CURRENT USERS UUO
   516
   517	030115	000000	000000		REPTU:	0		;REPEAT UUO ITERATIONS
   518	030116	000000	000000		SCOPE:	0		;ERROR HANDLER SCOPE LOOP FLAG
   519	030117	000000	000000		%CORFLG:0		; " CORRECT FLAG
   520	030120	000000	000000		%COREC:	0		; " CORRECT DATA
   521	030121	000000	000000		%ACTFL:	0		; " ACTUAL FLAG
   522	030122	000000	000000		%ACTUL:	0		; " ACTUAL DATA
   523	030123	000000	000000		%DISCR:	0		; " DISCREPENCY DATADBKCD 	PDP-10 KI10 ADVANCED INSTRUCTION DIAGNOSTIC #4, VERSION 0,3 	MACRO %52(462) 12:35  9-AUG-76 PAGE 4
FIXED	KLM	26-FEB-76		*FIXED* FIXED CONTROL AND DISPATCH STORAGE, FEB 26,1976                            SEQ 0025

   524					S^;*********************************************************************^
   525					;*UUO DISPATCH TABLE
   526					S^;*********************************************************************^
   527						XLIST
   528						LIST
   529	030124	043145	030070		UUODIS:	LUUO1,,$UUOER
   530	030125	043145	043145			LUUO3,,LUUO2
   531	030126	043145	043145			LUUO5,,LUUO4
   532	030127	043145	043145			LUUO7,,LUUO6
   533	030130	043145	043145			LUUO11,,LUUO10
   534	030131	043145	043145			LUUO13,,LUUO12
   535	030132	030070	030070			LUUO15,,LUUO14
   536	030133	030070	030070			LUUO17,,LUUO16
   537	030134	030070	030070			LUUO21,,LUUO20
   538	030135	030070	030070			LUUO23,,LUUO22
   539	030136	030070	030070			LUUO25,,LUUO24
   540	030137	030070	030070			LUUO27,,LUUO26
   541	030140	030070	030070			LUUO31,,LUUO30
   542	030141	030070	030070			LUUO33,,LUUO32
   543
   544					S^;*********************************************************************^
   545					;*MEMORY MANAGMENT STORAGE
   546					S^;*********************************************************************^
   547
   548	030142	000000	000000		DF22F:	0		;DF10 CONTROL FLAG, 0 = 18, -1 = 22 BIT
   549	030143	000000	000000		MAPNEW:	0		;MEMORY MAPPING CONTROL FLAG, -1 = 4096K MAPPING
   550	030144	000000	000000		MEMTOT:	0		;TOTAL MEMORY SIZE IN K (1024.)
   551	030145	000000	000000		MEMLOW:	0		;LOWEST USABLE MEMORY
   552	030146				MEMSIZ:	BLOCK ^D41	;MEMORY SEGMENT POINTER TABLE
   553
   554					S^;*********************************************************************^
   555					;*PRINT CONTROL STORAGE
   556					S^;*********************************************************************^
   557
   558	030217	000000	000000		PNTFLG:	0		;PRINT FLAG, -1 WHILE IN PRINT ROUTINE
   559	030220	000000	000000		PNTENB:	0		;PRINT ENABLE
   560	030221	000000	000000		PDISF:	0		;PRINT DISABLED FLAG
   561	030222	000000	000000		PNTINH:	0		;INHIBIT PRINT INPUT CHECKS
   562	030223	000000	000000		PNTSPC:	0		;PRINT SPACE CONTROL
   563	030224	000000	000000		OPTIME:	0		;TYPE-IN WAIT TIME
   564	030225	000000	000000		$TWCNT:	0		;TIME WAITED
   565	030226	000000	000000		$DVOFF:	0		;LOGICAL DEVICE INITED FLAG
   566	030227	000000	000000		TTYFIL:	0		;TTY EXEC FILLERS FLAG
   567	030230	000000	000000		TTYSPD:	0		;TTY EXEC BAUD RATE
   568	030231	000000	000000		$TTCHR:	0		;ACTUAL TYPED IN CHAR
   569	030232	000000	000000		$CHRIN:	0		;UPPER CASED & PARITY STRIPPED CHAR
   570	030233	000000	000000		$TYPNB:	0		;TYPED IN NUMBER
   571	030234	000000	000000		$CRLF:	0		;FREE CR/LF FLAG
   572	030235	000000	000000		$TABF:	0		;TAB CONVERSION FLAG
   573	030236	000000	000000		$FFF:	0		;FORM FEED CONVERSION FLAG
   574	030237	000000	000000		$VTF:	0		;VERTICAL TAB CONVERSION FLAG
   575	030240	000000	000000		USRLFF:	0		;USER LF FILLERS
   576	030241	000000	000000		USRCRF:	0		;USER CR FILLERSDBKCD 	PDP-10 KI10 ADVANCED INSTRUCTION DIAGNOSTIC #4, VERSION 0,3 	MACRO %52(462) 12:35  9-AUG-76 PAGE 5
FIXED	KLM	26-FEB-76		*FIXED* FIXED CONTROL AND DISPATCH STORAGE, FEB 26,1976                            SEQ 0026

   577					S^;*********************************************************************^
   578					;*THE FOLLOWING MISCELLANEOUS PRINT CHARACTERS ARE INCLUDED
   579					;*TO FACILITATE PRINTING AND ARE CALLED AS FOLLOWS:
   580					;*	MOVEI	NAME
   581					;*	PNTA		;OR PNTAF
   582					S^;*********************************************************************^
   583
   584	030242				CRLF:	ASCII/
   585	030242	015 012 000 000 000 	/
   586	030243				CRLF2:	ASCII/
   587
   588	030243	015 012 015 012 000 	/
   589	030244	054 000 000 000 000 	COMMA:	ASCII/,/
   590	030245	056 000 000 000 000 	PERIOD:	ASCII/./
   591	030246	040 000 000 000 000 	SPACE:	ASCII/ /
   592	030247	011 000 000 000 000 	TAB:	ASCII/	/
   593	030250				MINUS:
   594	030250	055 000 000 000 000 	HYPEN:	ASCII/-/
   595	030251	053 000 000 000 000 	PLUS:	ASCII/+/
   596	030252	052 000 000 000 000 	AST:	ASCII/*/
   597	030253	100 000 000 000 000 	ATSIN:	ASCII/@/
   598	030254	050 000 000 000 000 	LFP:	ASCII/(/
   599	030255	051 000 000 000 000 	RTP:	ASCII/)/
   600	030256	007 0000000000 		BELL:	BYTE (7) 007
   601	030257	077 000 000 000 000 	QUEST:	ASCII/?/
   602	030260	057 000 000 000 000 	SLASH:	ASCII!/!
   603	030261	044 000 000 000 000 	DOLLAR:	ASCII/$/
   604	030262	000000	000012		RADIX:	^D10			;DECIMAL PRINT RADIX
   605	030263	000000	000040		RADLSP:	40			;DECIMAL PRINT LEADING CHAR
   606	030264	000000	000012		RADLSC:	^D10			;DECIMAL PRINT LEADING CHAR COUNT
   607
   608					S^;*********************************************************************^
   609					;*USER MODE OUTPUT FILE INFORMATION
   610					S^;*********************************************************************^
   611
   612	030265				$OBUF:	BLOCK	3		;LOGICAL FILE OUTPUT BUFFER HEADER
   613	030270	60 62 51 56 64 00 	$OUTNM:	SIXBIT	/PRINT/		;FILE NAME
   614	030271	60 56 64 00 00 00 	$OUTEX:	SIXBIT	/PNT/		;FILE NAME EXTENSION
   615	030272					BLOCK	2
   616
   617					S^;*********************************************************************^
   618					;*DISK UPDATE MODE FILE INFORMATION
   619					S^;*********************************************************************^
   620
   621	030274				$IBUF:	BLOCK	3
   622	030277	60 62 51 56 64 00 	$INNM:	SIXBIT	/PRINT/
   623	030300	60 56 64 00 00 00 	$INEXT:	SIXBIT	/PNT/
   624	030301					BLOCK	2DBKCD 	PDP-10 KI10 ADVANCED INSTRUCTION DIAGNOSTIC #4, VERSION 0,3 	MACRO %52(462) 12:35  9-AUG-76 PAGE 6
FIXED	KLM	26-FEB-76		*FIXED* FIXED CONTROL AND DISPATCH STORAGE, FEB 26,1976                            SEQ 0027

   625					S^;*********************************************************************^
   626					;*PUSHDOWN LIST CONTROL INFORMATION
   627					S^;*********************************************************************^
   628
   629	030303	777577	030303		PLIST:	PLIST-PLISTE,,PLIST
   630	030304				PLISTS:	BLOCK	200
   631	030504	000000	000000		PLISTE:	0		;END OF PUSHDOWN LIST
   632
   633					S^;*********************************************************************^
   634					;*POWER LINE CLOCK FREQUENCY FLAG
   635					S^;*********************************************************************^
   636
   637	030505	000000	000000		CYCL60:	0	;0 = 60, -1 = 50 CYCLE
   638
   639					S^;*********************************************************************^
   640					;*KL10 CACHE CONTROL FLAGS
   641					S^;*********************************************************************^
   642
   643	030506	000000	000000		CSHFLG:	0	;ALLOW CACHE IF 0
   644	030507	000000	000000		CSHMEM:	0	;CACHE MEMORY SEGMENTS IF 0
   645
   646					S^;*********************************************************************^
   647					;*NUMBER INPUT DIGIT FLAG
   648					S^;*********************************************************************^
   649
   650	030510	000000	000000		TTNBRF:	0	;-1 IF ANY DIGIT TYPED
   651
   652					S^;*********************************************************************^
   653					;*KL10 & KI10 "INHPAG" SWITCH PAGING PREVENTION
   654					S^;*********************************************************************^
   655
   656	030511	000000	000000		PVPAGI:	0	;IF NON-ZERO, OVERRIDE "INHPAG" SWITCH ACTION
   657
   658					S^;*********************************************************************^
   659					;*ERROR REPORTING ROUTINE ADDITIONAL USERS CONTROL INSTRUCTIONS
   660					S^;*********************************************************************^
   661
   662	030512	000000	000000		%ERHI1:	0	;IF NON-ZERO, XCT'D AT START OF %ERUUO
   663	030513	000000	000000		%ERHI2:	0	;IF NON-ZERO, XCT'D AT END OF %ERUUO
   664	030514	000000	000000		%ERHI3:	0	;IF NON-ZERO, XCT'D AFTER "PC" OF %ERUUO
   665
   666					S^;*********************************************************************^
   667					;*SPECIAL USERS UUO INTERCEPT INSTRUCTION
   668					S^;*********************************************************************^
   669
   670	030515	000000	000000		$$UUO:	0	;IF NON-ZERO, XCT'D AT START OF $UORTNDBKCD 	PDP-10 KI10 ADVANCED INSTRUCTION DIAGNOSTIC #4, VERSION 0,3 	MACRO %52(462) 12:35  9-AUG-76 PAGE 7
FIXED	KLM	26-FEB-76		*FIXED* FIXED CONTROL AND DISPATCH STORAGE, FEB 26,1976                            SEQ 0028

   671					S^;*********************************************************************^
   672					;*KL10 PROCESSOR TYPE FLAG, 0=P0, 1=BBD NEW, 2=BBD OLD
   673					S^;*********************************************************************^
   674
   675	030516	000000	000000		KLTYP:	0
   676
   677					S^;*********************************************************************^
   678					;*SPECIAL USERS MUUO INTERCEPT INSTRUCTION
   679					S^;*********************************************************************^
   680
   681	030517	000000	000000		$$MUUO:	0	;IF NON-ZERO, XCT'D AT START OF MUUOER
   682
   683					S^;*********************************************************************^
   684					;*SPECIAL USERS USER MODE OUTPUT ERROR INTERCEPT INSTUCTION
   685					S^;*********************************************************************^
   686
   687	030520	000000	000000		$$OUTER:0	;IF NON-ZERO, XCT'D AT END OF USER MODE ERROR
   688
   689					S^;*********************************************************************^
   690					;*"SWITCH" CALL USAGE CONTROL
   691					S^;*********************************************************************^
   692
   693	030521	000000	000000		$$TOGGLE:0	;IF NON-ZERO, USE C(CONSW) FOR SWITCHES
   694
   695					S^;*********************************************************************^
   696					;*SPECIAL USERS ALTMODE SWITCH CALL INTERCEPT INSTRUCTIONS
   697					S^;*********************************************************************^
   698
   699	030522	000000	000000		$$TAX1:	0	;IF NON-ZERO, XCT'D AT START OF ALTMODE SWITCH CALL
   700	030523	000000	000000		$$TAX2:	0	;IF NON-ZERO, XCT'D AT END OF ALTMODE SWITCH CALL
   701
   702					S^;*********************************************************************^
   703					;*SPECIAL FUTURE EXPANSION ROOM
   704					;*IF ANY FIXED AREA TAGS ARE ADDED, REDUCE THE SIZE OF
   705					;*THIS BLOCK STATEMENT ACCORDINGLY.  THIS MUST BE DONE
   706					;*SO THAT PREVIOUS FIXED ASSIGNMENTS DO NOT CHANGE.
   707					S^;*********************************************************************^
   708
   709	030524					BLOCK	53	;HOPEFULLY THIS IS ENOUGH FOREVER
   710
   711					S^;*********************************************************************^
   712					;*END OF FIXED STORAGE
   713					S^;*********************************************************************^
   714
   715			030577			$ENDFX=<PLISTE+100>&<777700>-1
   716	030577					LOC	$ENDFX
   717	030577	000000	000000		ENDFIX:	0		;END OF FIXED STORAGEDBKCD 	PDP-10 KI10 ADVANCED INSTRUCTION DIAGNOSTIC #4, VERSION 0,3 	MACRO %52(462) 12:35  9-AUG-76 PAGE 1
DBKCDM	MAC	26-MAY-76 16:52		*FIXED* FIXED CONTROL AND DISPATCH STORAGE, FEB 26,1976                            SEQ 0029

   718						LALL
   719	030600	037 05 0 00 000002 	RENTR1:	DROPDV			;CLOSE LOGICAL OUTPUT FILE
   720	030601	040 00 0 00 043352 		CALL	[SIXBIT .EXIT.]
   721
   722	030602				PGMNAM:	ASCIZ	/
   723	030602	015 012 120 104 120 	PDP-10 KI10 ADVANCED INSTRUCTION DIAGNOSTIC #4 (DBKCD)
   724	030603	055 061 060 040 113
   725	030604	111 061 060 040 101
   726	030605	104 126 101 116 103
   727	030606	105 104 040 111 116
   728	030607	123 124 122 125 103
   729	030610	124 111 117 116 040
   730	030611	104 111 101 107 116
   731	030612	117 123 124 111 103
   732	030613	040 043 064 040 050
   733	030614	104 102 113 103 104
   734	030615	051 015 012 050 104 	(DOUBLE PRECISION HARDWARE)
   735	030616	117 125 102 114 105
   736	030617	040 120 122 105 103
   737	030620	111 123 111 117 116
   738	030621	040 110 101 122 104
   739	030622	127 101 122 105 051
   740	030623	015 012 000 000 000 	/
   741
   742					;INITIALIZE SUBROUTINES
   743
   744	030624	265 00 0 00 030011 	START:	PGMINT
   745	030625	200 00 0 00 043353 		MOVE	[ASCIZ/CD/]
   746	030626	202 00 0 00 043266 		MOVEM	TLET		;INITIALIZE TEST LETTER
   747
   748	030627	254 00 0 00 030630 	STARTA:	JRST	CD00		;GO PERFORM DIAGNOSTICDBKCD 	PDP-10 KI10 ADVANCED INSTRUCTION DIAGNOSTIC #4, VERSION 0,3 	MACRO %52(462) 12:35  9-AUG-76 PAGE 2
DBKCDM	MAC	26-MAY-76 16:52		TEST AR, ARX, AD, ADX AND NORMALIZE LOGIC FOR DOUBLE FLOATING POINT OPERATIONS     SEQ 0030

   749					SUBTTL	TEST AR, ARX, AD, ADX AND NORMALIZE LOGIC FOR DOUBLE FLOATING POINT OPERATIONS
   750
   751			000004			AC=4
   752	030630				CD00:	SAVEAC	(1,1)^
   753	030630	201 10 0 00 030630 		MOVEI	AC+4,.
   754	030631	202 10 0 00 030051 		MOVEM	AC+4,TESTPC	;SETUP SUBTEST PC
   755	030632	201 10 0 00 000010 		MOVEI	AC+4,<AC+4>&17	;INFORM ERROR ROUTINE WHICH
   756	030633	202 10 0 00 044713 		MOVEM	AC+4,ERRLOP#	;AC IS USED FOR ITERATION^
   757
   758					;ADD A WORD OF ALL ZEROS TO A WORD OF ALL ZEROS
   759						DFA	1,0,0,0,0,0,0,0,0,0,0,0,0^
   760					R100:	DMOVE	AC,[0,,0
   761	030634	120 04 0 00 043354 			0,,0]
   762						DFAD	AC,[0,,0
   763	030635	110 04 0 00 043354 			0,,0]
   764	030636	312 04 0 00 043354 		CAME	AC,[0,,0]
   765	030637	003 04 0 00 000101 		ER3	AC,101
   766	030640	312 05 0 00 043354 		CAME	AC+1,[0,,0]
   767	030641	004 05 0 00 000101 		ER4	AC+1,101
   768	030642	321 10 0 00 030634 		JUMPL	AC+4,R100	;LOOP ON ERROR SWITCH^
   769					PAGEDBKCD 	PDP-10 KI10 ADVANCED INSTRUCTION DIAGNOSTIC #4, VERSION 0,3 	MACRO %52(462) 12:35  9-AUG-76 PAGE 2-1
DBKCDM	MAC	26-MAY-76 16:52		TEST AR, ARX, AD, ADX AND NORMALIZE LOGIC FOR DOUBLE FLOATING POINT OPERATIONS     SEQ 0031

   770					;RIPPLE ONES TESTS (TO A WORD OF ALL ZEROS, ADD A RIPPLED ONE)
   771			000200		T=200
   772			001000			XX=1000
   773			201400			ZZ=201400
   774
   775
   776					R200:	REPEAT	^D9,<
   777					T=T+1
   778						XX=XX/2
   779						ZZ=ZZ-1000
   780						DFARP	T,200000,0,0,0,200000+XX,0,0,0,ZZ,0,0,0
   781					>
   782
   783			000201		T=T+1
   784			000400			XX=XX/2
   785			200400			ZZ=ZZ-1000
   786						DFARP	T,200000,0,0,0,200000+XX,0,0,0,ZZ,0,0,0^
   787						DMOVE	AC,[200000,,0
   788	030643	120 04 0 00 043356 			0,,0]
   789						DFAD	AC,[200000+XX,,0
   790	030644	110 04 0 00 043360 			0,,0]
   791	030645	312 04 0 00 043360 		CAME	AC,[ZZ,,0]
   792	030646	003 04 0 00 000201 		ER3	AC,T
   793	030647	312 05 0 00 043354 		CAME	AC+1,[0,,0]
   794	030650	004 05 0 00 000201 		ER4	AC+1,T
   795	030651	321 10 0 00 030643 		JUMPL	AC+4,.-^D6	;LOOP ON ERROR SWITCH^
   796
   797
   798			000202		T=T+1
   799			000200			XX=XX/2
   800			177400			ZZ=ZZ-1000
   801						DFARP	T,200000,0,0,0,200000+XX,0,0,0,ZZ,0,0,0^
   802						DMOVE	AC,[200000,,0
   803	030652	120 04 0 00 043356 			0,,0]
   804						DFAD	AC,[200000+XX,,0
   805	030653	110 04 0 00 043362 			0,,0]
   806	030654	312 04 0 00 043364 		CAME	AC,[ZZ,,0]
   807	030655	003 04 0 00 000202 		ER3	AC,T
   808	030656	312 05 0 00 043354 		CAME	AC+1,[0,,0]
   809	030657	004 05 0 00 000202 		ER4	AC+1,T
   810	030660	321 10 0 00 030652 		JUMPL	AC+4,.-^D6	;LOOP ON ERROR SWITCH^
   811
   812
   813			000203		T=T+1
   814			000100			XX=XX/2
   815			176400			ZZ=ZZ-1000
   816						DFARP	T,200000,0,0,0,200000+XX,0,0,0,ZZ,0,0,0^
   817						DMOVE	AC,[200000,,0
   818	030661	120 04 0 00 043356 			0,,0]
   819						DFAD	AC,[200000+XX,,0
   820	030662	110 04 0 00 043365 			0,,0]
   821	030663	312 04 0 00 043367 		CAME	AC,[ZZ,,0]
   822	030664	003 04 0 00 000203 		ER3	AC,T
   823	030665	312 05 0 00 043354 		CAME	AC+1,[0,,0]
   824	030666	004 05 0 00 000203 		ER4	AC+1,TDBKCD 	PDP-10 KI10 ADVANCED INSTRUCTION DIAGNOSTIC #4, VERSION 0,3 	MACRO %52(462) 12:35  9-AUG-76 PAGE 2-2
DBKCDM	MAC	26-MAY-76 16:52		TEST AR, ARX, AD, ADX AND NORMALIZE LOGIC FOR DOUBLE FLOATING POINT OPERATIONS     SEQ 0032

   825	030667	321 10 0 00 030661 		JUMPL	AC+4,.-^D6	;LOOP ON ERROR SWITCH^
   826
   827
   828			000204		T=T+1
   829			000040			XX=XX/2
   830			175400			ZZ=ZZ-1000
   831						DFARP	T,200000,0,0,0,200000+XX,0,0,0,ZZ,0,0,0^
   832						DMOVE	AC,[200000,,0
   833	030670	120 04 0 00 043356 			0,,0]
   834						DFAD	AC,[200000+XX,,0
   835	030671	110 04 0 00 043370 			0,,0]
   836	030672	312 04 0 00 043372 		CAME	AC,[ZZ,,0]
   837	030673	003 04 0 00 000204 		ER3	AC,T
   838	030674	312 05 0 00 043354 		CAME	AC+1,[0,,0]
   839	030675	004 05 0 00 000204 		ER4	AC+1,T
   840	030676	321 10 0 00 030670 		JUMPL	AC+4,.-^D6	;LOOP ON ERROR SWITCH^
   841
   842
   843			000205		T=T+1
   844			000020			XX=XX/2
   845			174400			ZZ=ZZ-1000
   846						DFARP	T,200000,0,0,0,200000+XX,0,0,0,ZZ,0,0,0^
   847						DMOVE	AC,[200000,,0
   848	030677	120 04 0 00 043356 			0,,0]
   849						DFAD	AC,[200000+XX,,0
   850	030700	110 04 0 00 043373 			0,,0]
   851	030701	312 04 0 00 043375 		CAME	AC,[ZZ,,0]
   852	030702	003 04 0 00 000205 		ER3	AC,T
   853	030703	312 05 0 00 043354 		CAME	AC+1,[0,,0]
   854	030704	004 05 0 00 000205 		ER4	AC+1,T
   855	030705	321 10 0 00 030677 		JUMPL	AC+4,.-^D6	;LOOP ON ERROR SWITCH^
   856
   857
   858			000206		T=T+1
   859			000010			XX=XX/2
   860			173400			ZZ=ZZ-1000
   861						DFARP	T,200000,0,0,0,200000+XX,0,0,0,ZZ,0,0,0^
   862						DMOVE	AC,[200000,,0
   863	030706	120 04 0 00 043356 			0,,0]
   864						DFAD	AC,[200000+XX,,0
   865	030707	110 04 0 00 043376 			0,,0]
   866	030710	312 04 0 00 043400 		CAME	AC,[ZZ,,0]
   867	030711	003 04 0 00 000206 		ER3	AC,T
   868	030712	312 05 0 00 043354 		CAME	AC+1,[0,,0]
   869	030713	004 05 0 00 000206 		ER4	AC+1,T
   870	030714	321 10 0 00 030706 		JUMPL	AC+4,.-^D6	;LOOP ON ERROR SWITCH^
   871
   872
   873			000207		T=T+1
   874			000004			XX=XX/2
   875			172400			ZZ=ZZ-1000
   876						DFARP	T,200000,0,0,0,200000+XX,0,0,0,ZZ,0,0,0^
   877						DMOVE	AC,[200000,,0
   878	030715	120 04 0 00 043356 			0,,0]
   879						DFAD	AC,[200000+XX,,0DBKCD 	PDP-10 KI10 ADVANCED INSTRUCTION DIAGNOSTIC #4, VERSION 0,3 	MACRO %52(462) 12:35  9-AUG-76 PAGE 2-3
DBKCDM	MAC	26-MAY-76 16:52		TEST AR, ARX, AD, ADX AND NORMALIZE LOGIC FOR DOUBLE FLOATING POINT OPERATIONS     SEQ 0033

   880	030716	110 04 0 00 043401 			0,,0]
   881	030717	312 04 0 00 043403 		CAME	AC,[ZZ,,0]
   882	030720	003 04 0 00 000207 		ER3	AC,T
   883	030721	312 05 0 00 043354 		CAME	AC+1,[0,,0]
   884	030722	004 05 0 00 000207 		ER4	AC+1,T
   885	030723	321 10 0 00 030715 		JUMPL	AC+4,.-^D6	;LOOP ON ERROR SWITCH^
   886
   887
   888			000210		T=T+1
   889			000002			XX=XX/2
   890			171400			ZZ=ZZ-1000
   891						DFARP	T,200000,0,0,0,200000+XX,0,0,0,ZZ,0,0,0^
   892						DMOVE	AC,[200000,,0
   893	030724	120 04 0 00 043356 			0,,0]
   894						DFAD	AC,[200000+XX,,0
   895	030725	110 04 0 00 043404 			0,,0]
   896	030726	312 04 0 00 043406 		CAME	AC,[ZZ,,0]
   897	030727	003 04 0 00 000210 		ER3	AC,T
   898	030730	312 05 0 00 043354 		CAME	AC+1,[0,,0]
   899	030731	004 05 0 00 000210 		ER4	AC+1,T
   900	030732	321 10 0 00 030724 		JUMPL	AC+4,.-^D6	;LOOP ON ERROR SWITCH^
   901
   902
   903			000211		T=T+1
   904			000001			XX=XX/2
   905			170400			ZZ=ZZ-1000
   906						DFARP	T,200000,0,0,0,200000+XX,0,0,0,ZZ,0,0,0^
   907						DMOVE	AC,[200000,,0
   908	030733	120 04 0 00 043356 			0,,0]
   909						DFAD	AC,[200000+XX,,0
   910	030734	110 04 0 00 043407 			0,,0]
   911	030735	312 04 0 00 043411 		CAME	AC,[ZZ,,0]
   912	030736	003 04 0 00 000211 		ER3	AC,T
   913	030737	312 05 0 00 043354 		CAME	AC+1,[0,,0]
   914	030740	004 05 0 00 000211 		ER4	AC+1,T
   915	030741	321 10 0 00 030733 		JUMPL	AC+4,.-^D6	;LOOP ON ERROR SWITCH^
   916
   917
   918		000001	000000			XX=1000000
   919
   920
   921						REPEAT	^D18,<
   922					T=T+1
   923						XX=XX/2
   924						ZZ=ZZ-1000
   925						DFARP	T,200000,0,0,0,200000,XX,0,0,ZZ,0,0,0
   926					>
   927
   928			000212		T=T+1
   929			400000			XX=XX/2
   930			167400			ZZ=ZZ-1000
   931						DFARP	T,200000,0,0,0,200000,XX,0,0,ZZ,0,0,0^
   932						DMOVE	AC,[200000,,0
   933	030742	120 04 0 00 043356 			0,,0]
   934						DFAD	AC,[200000,,XXDBKCD 	PDP-10 KI10 ADVANCED INSTRUCTION DIAGNOSTIC #4, VERSION 0,3 	MACRO %52(462) 12:35  9-AUG-76 PAGE 2-4
DBKCDM	MAC	26-MAY-76 16:52		TEST AR, ARX, AD, ADX AND NORMALIZE LOGIC FOR DOUBLE FLOATING POINT OPERATIONS     SEQ 0034

   935	030743	110 04 0 00 043412 			0,,0]
   936	030744	312 04 0 00 043414 		CAME	AC,[ZZ,,0]
   937	030745	003 04 0 00 000212 		ER3	AC,T
   938	030746	312 05 0 00 043354 		CAME	AC+1,[0,,0]
   939	030747	004 05 0 00 000212 		ER4	AC+1,T
   940	030750	321 10 0 00 030742 		JUMPL	AC+4,.-^D6	;LOOP ON ERROR SWITCH^
   941
   942
   943			000213		T=T+1
   944			200000			XX=XX/2
   945			166400			ZZ=ZZ-1000
   946						DFARP	T,200000,0,0,0,200000,XX,0,0,ZZ,0,0,0^
   947						DMOVE	AC,[200000,,0
   948	030751	120 04 0 00 043356 			0,,0]
   949						DFAD	AC,[200000,,XX
   950	030752	110 04 0 00 043415 			0,,0]
   951	030753	312 04 0 00 043417 		CAME	AC,[ZZ,,0]
   952	030754	003 04 0 00 000213 		ER3	AC,T
   953	030755	312 05 0 00 043354 		CAME	AC+1,[0,,0]
   954	030756	004 05 0 00 000213 		ER4	AC+1,T
   955	030757	321 10 0 00 030751 		JUMPL	AC+4,.-^D6	;LOOP ON ERROR SWITCH^
   956
   957
   958			000214		T=T+1
   959			100000			XX=XX/2
   960			165400			ZZ=ZZ-1000
   961						DFARP	T,200000,0,0,0,200000,XX,0,0,ZZ,0,0,0^
   962						DMOVE	AC,[200000,,0
   963	030760	120 04 0 00 043356 			0,,0]
   964						DFAD	AC,[200000,,XX
   965	030761	110 04 0 00 043420 			0,,0]
   966	030762	312 04 0 00 043422 		CAME	AC,[ZZ,,0]
   967	030763	003 04 0 00 000214 		ER3	AC,T
   968	030764	312 05 0 00 043354 		CAME	AC+1,[0,,0]
   969	030765	004 05 0 00 000214 		ER4	AC+1,T
   970	030766	321 10 0 00 030760 		JUMPL	AC+4,.-^D6	;LOOP ON ERROR SWITCH^
   971
   972
   973			000215		T=T+1
   974			040000			XX=XX/2
   975			164400			ZZ=ZZ-1000
   976						DFARP	T,200000,0,0,0,200000,XX,0,0,ZZ,0,0,0^
   977						DMOVE	AC,[200000,,0
   978	030767	120 04 0 00 043356 			0,,0]
   979						DFAD	AC,[200000,,XX
   980	030770	110 04 0 00 043423 			0,,0]
   981	030771	312 04 0 00 043425 		CAME	AC,[ZZ,,0]
   982	030772	003 04 0 00 000215 		ER3	AC,T
   983	030773	312 05 0 00 043354 		CAME	AC+1,[0,,0]
   984	030774	004 05 0 00 000215 		ER4	AC+1,T
   985	030775	321 10 0 00 030767 		JUMPL	AC+4,.-^D6	;LOOP ON ERROR SWITCH^
   986
   987
   988			000216		T=T+1
   989			020000			XX=XX/2DBKCD 	PDP-10 KI10 ADVANCED INSTRUCTION DIAGNOSTIC #4, VERSION 0,3 	MACRO %52(462) 12:35  9-AUG-76 PAGE 2-5
DBKCDM	MAC	26-MAY-76 16:52		TEST AR, ARX, AD, ADX AND NORMALIZE LOGIC FOR DOUBLE FLOATING POINT OPERATIONS     SEQ 0035

   990			163400			ZZ=ZZ-1000
   991						DFARP	T,200000,0,0,0,200000,XX,0,0,ZZ,0,0,0^
   992						DMOVE	AC,[200000,,0
   993	030776	120 04 0 00 043356 			0,,0]
   994						DFAD	AC,[200000,,XX
   995	030777	110 04 0 00 043426 			0,,0]
   996	031000	312 04 0 00 043430 		CAME	AC,[ZZ,,0]
   997	031001	003 04 0 00 000216 		ER3	AC,T
   998	031002	312 05 0 00 043354 		CAME	AC+1,[0,,0]
   999	031003	004 05 0 00 000216 		ER4	AC+1,T
  1000	031004	321 10 0 00 030776 		JUMPL	AC+4,.-^D6	;LOOP ON ERROR SWITCH^
  1001
  1002
  1003			000217		T=T+1
  1004			010000			XX=XX/2
  1005			162400			ZZ=ZZ-1000
  1006						DFARP	T,200000,0,0,0,200000,XX,0,0,ZZ,0,0,0^
  1007						DMOVE	AC,[200000,,0
  1008	031005	120 04 0 00 043356 			0,,0]
  1009						DFAD	AC,[200000,,XX
  1010	031006	110 04 0 00 043431 			0,,0]
  1011	031007	312 04 0 00 043433 		CAME	AC,[ZZ,,0]
  1012	031010	003 04 0 00 000217 		ER3	AC,T
  1013	031011	312 05 0 00 043354 		CAME	AC+1,[0,,0]
  1014	031012	004 05 0 00 000217 		ER4	AC+1,T
  1015	031013	321 10 0 00 031005 		JUMPL	AC+4,.-^D6	;LOOP ON ERROR SWITCH^
  1016
  1017
  1018			000220		T=T+1
  1019			004000			XX=XX/2
  1020			161400			ZZ=ZZ-1000
  1021						DFARP	T,200000,0,0,0,200000,XX,0,0,ZZ,0,0,0^
  1022						DMOVE	AC,[200000,,0
  1023	031014	120 04 0 00 043356 			0,,0]
  1024						DFAD	AC,[200000,,XX
  1025	031015	110 04 0 00 043434 			0,,0]
  1026	031016	312 04 0 00 043436 		CAME	AC,[ZZ,,0]
  1027	031017	003 04 0 00 000220 		ER3	AC,T
  1028	031020	312 05 0 00 043354 		CAME	AC+1,[0,,0]
  1029	031021	004 05 0 00 000220 		ER4	AC+1,T
  1030	031022	321 10 0 00 031014 		JUMPL	AC+4,.-^D6	;LOOP ON ERROR SWITCH^
  1031
  1032
  1033			000221		T=T+1
  1034			002000			XX=XX/2
  1035			160400			ZZ=ZZ-1000
  1036						DFARP	T,200000,0,0,0,200000,XX,0,0,ZZ,0,0,0^
  1037						DMOVE	AC,[200000,,0
  1038	031023	120 04 0 00 043356 			0,,0]
  1039						DFAD	AC,[200000,,XX
  1040	031024	110 04 0 00 043437 			0,,0]
  1041	031025	312 04 0 00 043441 		CAME	AC,[ZZ,,0]
  1042	031026	003 04 0 00 000221 		ER3	AC,T
  1043	031027	312 05 0 00 043354 		CAME	AC+1,[0,,0]
  1044	031030	004 05 0 00 000221 		ER4	AC+1,TDBKCD 	PDP-10 KI10 ADVANCED INSTRUCTION DIAGNOSTIC #4, VERSION 0,3 	MACRO %52(462) 12:35  9-AUG-76 PAGE 2-6
DBKCDM	MAC	26-MAY-76 16:52		TEST AR, ARX, AD, ADX AND NORMALIZE LOGIC FOR DOUBLE FLOATING POINT OPERATIONS     SEQ 0036

  1045	031031	321 10 0 00 031023 		JUMPL	AC+4,.-^D6	;LOOP ON ERROR SWITCH^
  1046
  1047
  1048			000222		T=T+1
  1049			001000			XX=XX/2
  1050			157400			ZZ=ZZ-1000
  1051						DFARP	T,200000,0,0,0,200000,XX,0,0,ZZ,0,0,0^
  1052						DMOVE	AC,[200000,,0
  1053	031032	120 04 0 00 043356 			0,,0]
  1054						DFAD	AC,[200000,,XX
  1055	031033	110 04 0 00 043442 			0,,0]
  1056	031034	312 04 0 00 043444 		CAME	AC,[ZZ,,0]
  1057	031035	003 04 0 00 000222 		ER3	AC,T
  1058	031036	312 05 0 00 043354 		CAME	AC+1,[0,,0]
  1059	031037	004 05 0 00 000222 		ER4	AC+1,T
  1060	031040	321 10 0 00 031032 		JUMPL	AC+4,.-^D6	;LOOP ON ERROR SWITCH^
  1061
  1062
  1063			000223		T=T+1
  1064			000400			XX=XX/2
  1065			156400			ZZ=ZZ-1000
  1066						DFARP	T,200000,0,0,0,200000,XX,0,0,ZZ,0,0,0^
  1067						DMOVE	AC,[200000,,0
  1068	031041	120 04 0 00 043356 			0,,0]
  1069						DFAD	AC,[200000,,XX
  1070	031042	110 04 0 00 043445 			0,,0]
  1071	031043	312 04 0 00 043447 		CAME	AC,[ZZ,,0]
  1072	031044	003 04 0 00 000223 		ER3	AC,T
  1073	031045	312 05 0 00 043354 		CAME	AC+1,[0,,0]
  1074	031046	004 05 0 00 000223 		ER4	AC+1,T
  1075	031047	321 10 0 00 031041 		JUMPL	AC+4,.-^D6	;LOOP ON ERROR SWITCH^
  1076
  1077
  1078			000224		T=T+1
  1079			000200			XX=XX/2
  1080			155400			ZZ=ZZ-1000
  1081						DFARP	T,200000,0,0,0,200000,XX,0,0,ZZ,0,0,0^
  1082						DMOVE	AC,[200000,,0
  1083	031050	120 04 0 00 043356 			0,,0]
  1084						DFAD	AC,[200000,,XX
  1085	031051	110 04 0 00 043450 			0,,0]
  1086	031052	312 04 0 00 043452 		CAME	AC,[ZZ,,0]
  1087	031053	003 04 0 00 000224 		ER3	AC,T
  1088	031054	312 05 0 00 043354 		CAME	AC+1,[0,,0]
  1089	031055	004 05 0 00 000224 		ER4	AC+1,T
  1090	031056	321 10 0 00 031050 		JUMPL	AC+4,.-^D6	;LOOP ON ERROR SWITCH^
  1091
  1092
  1093			000225		T=T+1
  1094			000100			XX=XX/2
  1095			154400			ZZ=ZZ-1000
  1096						DFARP	T,200000,0,0,0,200000,XX,0,0,ZZ,0,0,0^
  1097						DMOVE	AC,[200000,,0
  1098	031057	120 04 0 00 043356 			0,,0]
  1099						DFAD	AC,[200000,,XXDBKCD 	PDP-10 KI10 ADVANCED INSTRUCTION DIAGNOSTIC #4, VERSION 0,3 	MACRO %52(462) 12:35  9-AUG-76 PAGE 2-7
DBKCDM	MAC	26-MAY-76 16:52		TEST AR, ARX, AD, ADX AND NORMALIZE LOGIC FOR DOUBLE FLOATING POINT OPERATIONS     SEQ 0037

  1100	031060	110 04 0 00 043453 			0,,0]
  1101	031061	312 04 0 00 043455 		CAME	AC,[ZZ,,0]
  1102	031062	003 04 0 00 000225 		ER3	AC,T
  1103	031063	312 05 0 00 043354 		CAME	AC+1,[0,,0]
  1104	031064	004 05 0 00 000225 		ER4	AC+1,T
  1105	031065	321 10 0 00 031057 		JUMPL	AC+4,.-^D6	;LOOP ON ERROR SWITCH^
  1106
  1107
  1108			000226		T=T+1
  1109			000040			XX=XX/2
  1110			153400			ZZ=ZZ-1000
  1111						DFARP	T,200000,0,0,0,200000,XX,0,0,ZZ,0,0,0^
  1112						DMOVE	AC,[200000,,0
  1113	031066	120 04 0 00 043356 			0,,0]
  1114						DFAD	AC,[200000,,XX
  1115	031067	110 04 0 00 043456 			0,,0]
  1116	031070	312 04 0 00 043460 		CAME	AC,[ZZ,,0]
  1117	031071	003 04 0 00 000226 		ER3	AC,T
  1118	031072	312 05 0 00 043354 		CAME	AC+1,[0,,0]
  1119	031073	004 05 0 00 000226 		ER4	AC+1,T
  1120	031074	321 10 0 00 031066 		JUMPL	AC+4,.-^D6	;LOOP ON ERROR SWITCH^
  1121
  1122
  1123			000227		T=T+1
  1124			000020			XX=XX/2
  1125			152400			ZZ=ZZ-1000
  1126						DFARP	T,200000,0,0,0,200000,XX,0,0,ZZ,0,0,0^
  1127						DMOVE	AC,[200000,,0
  1128	031075	120 04 0 00 043356 			0,,0]
  1129						DFAD	AC,[200000,,XX
  1130	031076	110 04 0 00 043461 			0,,0]
  1131	031077	312 04 0 00 043463 		CAME	AC,[ZZ,,0]
  1132	031100	003 04 0 00 000227 		ER3	AC,T
  1133	031101	312 05 0 00 043354 		CAME	AC+1,[0,,0]
  1134	031102	004 05 0 00 000227 		ER4	AC+1,T
  1135	031103	321 10 0 00 031075 		JUMPL	AC+4,.-^D6	;LOOP ON ERROR SWITCH^
  1136
  1137
  1138			000230		T=T+1
  1139			000010			XX=XX/2
  1140			151400			ZZ=ZZ-1000
  1141						DFARP	T,200000,0,0,0,200000,XX,0,0,ZZ,0,0,0^
  1142						DMOVE	AC,[200000,,0
  1143	031104	120 04 0 00 043356 			0,,0]
  1144						DFAD	AC,[200000,,XX
  1145	031105	110 04 0 00 043464 			0,,0]
  1146	031106	312 04 0 00 043466 		CAME	AC,[ZZ,,0]
  1147	031107	003 04 0 00 000230 		ER3	AC,T
  1148	031110	312 05 0 00 043354 		CAME	AC+1,[0,,0]
  1149	031111	004 05 0 00 000230 		ER4	AC+1,T
  1150	031112	321 10 0 00 031104 		JUMPL	AC+4,.-^D6	;LOOP ON ERROR SWITCH^
  1151
  1152
  1153			000231		T=T+1
  1154			000004			XX=XX/2DBKCD 	PDP-10 KI10 ADVANCED INSTRUCTION DIAGNOSTIC #4, VERSION 0,3 	MACRO %52(462) 12:35  9-AUG-76 PAGE 2-8
DBKCDM	MAC	26-MAY-76 16:52		TEST AR, ARX, AD, ADX AND NORMALIZE LOGIC FOR DOUBLE FLOATING POINT OPERATIONS     SEQ 0038

  1155			150400			ZZ=ZZ-1000
  1156						DFARP	T,200000,0,0,0,200000,XX,0,0,ZZ,0,0,0^
  1157						DMOVE	AC,[200000,,0
  1158	031113	120 04 0 00 043356 			0,,0]
  1159						DFAD	AC,[200000,,XX
  1160	031114	110 04 0 00 043467 			0,,0]
  1161	031115	312 04 0 00 043471 		CAME	AC,[ZZ,,0]
  1162	031116	003 04 0 00 000231 		ER3	AC,T
  1163	031117	312 05 0 00 043354 		CAME	AC+1,[0,,0]
  1164	031120	004 05 0 00 000231 		ER4	AC+1,T
  1165	031121	321 10 0 00 031113 		JUMPL	AC+4,.-^D6	;LOOP ON ERROR SWITCH^
  1166
  1167
  1168			000232		T=T+1
  1169			000002			XX=XX/2
  1170			147400			ZZ=ZZ-1000
  1171						DFARP	T,200000,0,0,0,200000,XX,0,0,ZZ,0,0,0^
  1172						DMOVE	AC,[200000,,0
  1173	031122	120 04 0 00 043356 			0,,0]
  1174						DFAD	AC,[200000,,XX
  1175	031123	110 04 0 00 043472 			0,,0]
  1176	031124	312 04 0 00 043474 		CAME	AC,[ZZ,,0]
  1177	031125	003 04 0 00 000232 		ER3	AC,T
  1178	031126	312 05 0 00 043354 		CAME	AC+1,[0,,0]
  1179	031127	004 05 0 00 000232 		ER4	AC+1,T
  1180	031130	321 10 0 00 031122 		JUMPL	AC+4,.-^D6	;LOOP ON ERROR SWITCH^
  1181
  1182
  1183			000233		T=T+1
  1184			000001			XX=XX/2
  1185			146400			ZZ=ZZ-1000
  1186						DFARP	T,200000,0,0,0,200000,XX,0,0,ZZ,0,0,0^
  1187						DMOVE	AC,[200000,,0
  1188	031131	120 04 0 00 043356 			0,,0]
  1189						DFAD	AC,[200000,,XX
  1190	031132	110 04 0 00 043475 			0,,0]
  1191	031133	312 04 0 00 043477 		CAME	AC,[ZZ,,0]
  1192	031134	003 04 0 00 000233 		ER3	AC,T
  1193	031135	312 05 0 00 043354 		CAME	AC+1,[0,,0]
  1194	031136	004 05 0 00 000233 		ER4	AC+1,T
  1195	031137	321 10 0 00 031131 		JUMPL	AC+4,.-^D6	;LOOP ON ERROR SWITCH^
  1196
  1197
  1198			400000			XX=400000
  1199
  1200			000234		T=T+1
  1201						DFARP	T,200000,0,0,0,200000,0,XX,0,0,0,0,0^
  1202						DMOVE	AC,[200000,,0
  1203	031140	120 04 0 00 043356 			0,,0]
  1204						DFAD	AC,[200000,,0
  1205	031141	110 04 0 00 043500 			XX,,0]
  1206	031142	312 04 0 00 043354 		CAME	AC,[0,,0]
  1207	031143	003 04 0 00 000234 		ER3	AC,T
  1208	031144	312 05 0 00 043354 		CAME	AC+1,[0,,0]
  1209	031145	004 05 0 00 000234 		ER4	AC+1,TDBKCD 	PDP-10 KI10 ADVANCED INSTRUCTION DIAGNOSTIC #4, VERSION 0,3 	MACRO %52(462) 12:35  9-AUG-76 PAGE 2-9
DBKCDM	MAC	26-MAY-76 16:52		TEST AR, ARX, AD, ADX AND NORMALIZE LOGIC FOR DOUBLE FLOATING POINT OPERATIONS     SEQ 0039

  1210	031146	321 10 0 00 031140 		JUMPL	AC+4,.-^D6	;LOOP ON ERROR SWITCH^
  1211
  1212
  1213						REPEAT	^D17,<
  1214					T=T+1
  1215						XX=XX/2
  1216						ZZ=ZZ-1000
  1217						DFARP	T,200000,0,0,0,200000,0,XX,0,ZZ,0,0,0
  1218					>
  1219
  1220			000235		T=T+1
  1221			200000			XX=XX/2
  1222			145400			ZZ=ZZ-1000
  1223						DFARP	T,200000,0,0,0,200000,0,XX,0,ZZ,0,0,0^
  1224						DMOVE	AC,[200000,,0
  1225	031147	120 04 0 00 043356 			0,,0]
  1226						DFAD	AC,[200000,,0
  1227	031150	110 04 0 00 043502 			XX,,0]
  1228	031151	312 04 0 00 043504 		CAME	AC,[ZZ,,0]
  1229	031152	003 04 0 00 000235 		ER3	AC,T
  1230	031153	312 05 0 00 043354 		CAME	AC+1,[0,,0]
  1231	031154	004 05 0 00 000235 		ER4	AC+1,T
  1232	031155	321 10 0 00 031147 		JUMPL	AC+4,.-^D6	;LOOP ON ERROR SWITCH^
  1233
  1234
  1235			000236		T=T+1
  1236			100000			XX=XX/2
  1237			144400			ZZ=ZZ-1000
  1238						DFARP	T,200000,0,0,0,200000,0,XX,0,ZZ,0,0,0^
  1239						DMOVE	AC,[200000,,0
  1240	031156	120 04 0 00 043356 			0,,0]
  1241						DFAD	AC,[200000,,0
  1242	031157	110 04 0 00 043505 			XX,,0]
  1243	031160	312 04 0 00 043507 		CAME	AC,[ZZ,,0]
  1244	031161	003 04 0 00 000236 		ER3	AC,T
  1245	031162	312 05 0 00 043354 		CAME	AC+1,[0,,0]
  1246	031163	004 05 0 00 000236 		ER4	AC+1,T
  1247	031164	321 10 0 00 031156 		JUMPL	AC+4,.-^D6	;LOOP ON ERROR SWITCH^
  1248
  1249
  1250			000237		T=T+1
  1251			040000			XX=XX/2
  1252			143400			ZZ=ZZ-1000
  1253						DFARP	T,200000,0,0,0,200000,0,XX,0,ZZ,0,0,0^
  1254						DMOVE	AC,[200000,,0
  1255	031165	120 04 0 00 043356 			0,,0]
  1256						DFAD	AC,[200000,,0
  1257	031166	110 04 0 00 043510 			XX,,0]
  1258	031167	312 04 0 00 043512 		CAME	AC,[ZZ,,0]
  1259	031170	003 04 0 00 000237 		ER3	AC,T
  1260	031171	312 05 0 00 043354 		CAME	AC+1,[0,,0]
  1261	031172	004 05 0 00 000237 		ER4	AC+1,T
  1262	031173	321 10 0 00 031165 		JUMPL	AC+4,.-^D6	;LOOP ON ERROR SWITCH^
  1263
  1264DBKCD 	PDP-10 KI10 ADVANCED INSTRUCTION DIAGNOSTIC #4, VERSION 0,3 	MACRO %52(462) 12:35  9-AUG-76 PAGE 2-10
DBKCDM	MAC	26-MAY-76 16:52		TEST AR, ARX, AD, ADX AND NORMALIZE LOGIC FOR DOUBLE FLOATING POINT OPERATIONS     SEQ 0040

  1265			000240		T=T+1
  1266			020000			XX=XX/2
  1267			142400			ZZ=ZZ-1000
  1268						DFARP	T,200000,0,0,0,200000,0,XX,0,ZZ,0,0,0^
  1269						DMOVE	AC,[200000,,0
  1270	031174	120 04 0 00 043356 			0,,0]
  1271						DFAD	AC,[200000,,0
  1272	031175	110 04 0 00 043513 			XX,,0]
  1273	031176	312 04 0 00 043515 		CAME	AC,[ZZ,,0]
  1274	031177	003 04 0 00 000240 		ER3	AC,T
  1275	031200	312 05 0 00 043354 		CAME	AC+1,[0,,0]
  1276	031201	004 05 0 00 000240 		ER4	AC+1,T
  1277	031202	321 10 0 00 031174 		JUMPL	AC+4,.-^D6	;LOOP ON ERROR SWITCH^
  1278
  1279
  1280			000241		T=T+1
  1281			010000			XX=XX/2
  1282			141400			ZZ=ZZ-1000
  1283						DFARP	T,200000,0,0,0,200000,0,XX,0,ZZ,0,0,0^
  1284						DMOVE	AC,[200000,,0
  1285	031203	120 04 0 00 043356 			0,,0]
  1286						DFAD	AC,[200000,,0
  1287	031204	110 04 0 00 043516 			XX,,0]
  1288	031205	312 04 0 00 043520 		CAME	AC,[ZZ,,0]
  1289	031206	003 04 0 00 000241 		ER3	AC,T
  1290	031207	312 05 0 00 043354 		CAME	AC+1,[0,,0]
  1291	031210	004 05 0 00 000241 		ER4	AC+1,T
  1292	031211	321 10 0 00 031203 		JUMPL	AC+4,.-^D6	;LOOP ON ERROR SWITCH^
  1293
  1294
  1295			000242		T=T+1
  1296			004000			XX=XX/2
  1297			140400			ZZ=ZZ-1000
  1298						DFARP	T,200000,0,0,0,200000,0,XX,0,ZZ,0,0,0^
  1299						DMOVE	AC,[200000,,0
  1300	031212	120 04 0 00 043356 			0,,0]
  1301						DFAD	AC,[200000,,0
  1302	031213	110 04 0 00 043521 			XX,,0]
  1303	031214	312 04 0 00 043523 		CAME	AC,[ZZ,,0]
  1304	031215	003 04 0 00 000242 		ER3	AC,T
  1305	031216	312 05 0 00 043354 		CAME	AC+1,[0,,0]
  1306	031217	004 05 0 00 000242 		ER4	AC+1,T
  1307	031220	321 10 0 00 031212 		JUMPL	AC+4,.-^D6	;LOOP ON ERROR SWITCH^
  1308
  1309
  1310			000243		T=T+1
  1311			002000			XX=XX/2
  1312			137400			ZZ=ZZ-1000
  1313						DFARP	T,200000,0,0,0,200000,0,XX,0,ZZ,0,0,0^
  1314						DMOVE	AC,[200000,,0
  1315	031221	120 04 0 00 043356 			0,,0]
  1316						DFAD	AC,[200000,,0
  1317	031222	110 04 0 00 043524 			XX,,0]
  1318	031223	312 04 0 00 043526 		CAME	AC,[ZZ,,0]
  1319	031224	003 04 0 00 000243 		ER3	AC,TDBKCD 	PDP-10 KI10 ADVANCED INSTRUCTION DIAGNOSTIC #4, VERSION 0,3 	MACRO %52(462) 12:35  9-AUG-76 PAGE 2-11
DBKCDM	MAC	26-MAY-76 16:52		TEST AR, ARX, AD, ADX AND NORMALIZE LOGIC FOR DOUBLE FLOATING POINT OPERATIONS     SEQ 0041

  1320	031225	312 05 0 00 043354 		CAME	AC+1,[0,,0]
  1321	031226	004 05 0 00 000243 		ER4	AC+1,T
  1322	031227	321 10 0 00 031221 		JUMPL	AC+4,.-^D6	;LOOP ON ERROR SWITCH^
  1323
  1324
  1325			000244		T=T+1
  1326			001000			XX=XX/2
  1327			136400			ZZ=ZZ-1000
  1328						DFARP	T,200000,0,0,0,200000,0,XX,0,ZZ,0,0,0^
  1329						DMOVE	AC,[200000,,0
  1330	031230	120 04 0 00 043356 			0,,0]
  1331						DFAD	AC,[200000,,0
  1332	031231	110 04 0 00 043527 			XX,,0]
  1333	031232	312 04 0 00 043531 		CAME	AC,[ZZ,,0]
  1334	031233	003 04 0 00 000244 		ER3	AC,T
  1335	031234	312 05 0 00 043354 		CAME	AC+1,[0,,0]
  1336	031235	004 05 0 00 000244 		ER4	AC+1,T
  1337	031236	321 10 0 00 031230 		JUMPL	AC+4,.-^D6	;LOOP ON ERROR SWITCH^
  1338
  1339
  1340			000245		T=T+1
  1341			000400			XX=XX/2
  1342			135400			ZZ=ZZ-1000
  1343						DFARP	T,200000,0,0,0,200000,0,XX,0,ZZ,0,0,0^
  1344						DMOVE	AC,[200000,,0
  1345	031237	120 04 0 00 043356 			0,,0]
  1346						DFAD	AC,[200000,,0
  1347	031240	110 04 0 00 043532 			XX,,0]
  1348	031241	312 04 0 00 043534 		CAME	AC,[ZZ,,0]
  1349	031242	003 04 0 00 000245 		ER3	AC,T
  1350	031243	312 05 0 00 043354 		CAME	AC+1,[0,,0]
  1351	031244	004 05 0 00 000245 		ER4	AC+1,T
  1352	031245	321 10 0 00 031237 		JUMPL	AC+4,.-^D6	;LOOP ON ERROR SWITCH^
  1353
  1354
  1355			000246		T=T+1
  1356			000200			XX=XX/2
  1357			134400			ZZ=ZZ-1000
  1358						DFARP	T,200000,0,0,0,200000,0,XX,0,ZZ,0,0,0^
  1359						DMOVE	AC,[200000,,0
  1360	031246	120 04 0 00 043356 			0,,0]
  1361						DFAD	AC,[200000,,0
  1362	031247	110 04 0 00 043535 			XX,,0]
  1363	031250	312 04 0 00 043537 		CAME	AC,[ZZ,,0]
  1364	031251	003 04 0 00 000246 		ER3	AC,T
  1365	031252	312 05 0 00 043354 		CAME	AC+1,[0,,0]
  1366	031253	004 05 0 00 000246 		ER4	AC+1,T
  1367	031254	321 10 0 00 031246 		JUMPL	AC+4,.-^D6	;LOOP ON ERROR SWITCH^
  1368
  1369
  1370			000247		T=T+1
  1371			000100			XX=XX/2
  1372			133400			ZZ=ZZ-1000
  1373						DFARP	T,200000,0,0,0,200000,0,XX,0,ZZ,0,0,0^
  1374						DMOVE	AC,[200000,,0DBKCD 	PDP-10 KI10 ADVANCED INSTRUCTION DIAGNOSTIC #4, VERSION 0,3 	MACRO %52(462) 12:35  9-AUG-76 PAGE 2-12
DBKCDM	MAC	26-MAY-76 16:52		TEST AR, ARX, AD, ADX AND NORMALIZE LOGIC FOR DOUBLE FLOATING POINT OPERATIONS     SEQ 0042

  1375	031255	120 04 0 00 043356 			0,,0]
  1376						DFAD	AC,[200000,,0
  1377	031256	110 04 0 00 043540 			XX,,0]
  1378	031257	312 04 0 00 043542 		CAME	AC,[ZZ,,0]
  1379	031260	003 04 0 00 000247 		ER3	AC,T
  1380	031261	312 05 0 00 043354 		CAME	AC+1,[0,,0]
  1381	031262	004 05 0 00 000247 		ER4	AC+1,T
  1382	031263	321 10 0 00 031255 		JUMPL	AC+4,.-^D6	;LOOP ON ERROR SWITCH^
  1383
  1384
  1385			000250		T=T+1
  1386			000040			XX=XX/2
  1387			132400			ZZ=ZZ-1000
  1388						DFARP	T,200000,0,0,0,200000,0,XX,0,ZZ,0,0,0^
  1389						DMOVE	AC,[200000,,0
  1390	031264	120 04 0 00 043356 			0,,0]
  1391						DFAD	AC,[200000,,0
  1392	031265	110 04 0 00 043543 			XX,,0]
  1393	031266	312 04 0 00 043545 		CAME	AC,[ZZ,,0]
  1394	031267	003 04 0 00 000250 		ER3	AC,T
  1395	031270	312 05 0 00 043354 		CAME	AC+1,[0,,0]
  1396	031271	004 05 0 00 000250 		ER4	AC+1,T
  1397	031272	321 10 0 00 031264 		JUMPL	AC+4,.-^D6	;LOOP ON ERROR SWITCH^
  1398
  1399
  1400			000251		T=T+1
  1401			000020			XX=XX/2
  1402			131400			ZZ=ZZ-1000
  1403						DFARP	T,200000,0,0,0,200000,0,XX,0,ZZ,0,0,0^
  1404						DMOVE	AC,[200000,,0
  1405	031273	120 04 0 00 043356 			0,,0]
  1406						DFAD	AC,[200000,,0
  1407	031274	110 04 0 00 043546 			XX,,0]
  1408	031275	312 04 0 00 043550 		CAME	AC,[ZZ,,0]
  1409	031276	003 04 0 00 000251 		ER3	AC,T
  1410	031277	312 05 0 00 043354 		CAME	AC+1,[0,,0]
  1411	031300	004 05 0 00 000251 		ER4	AC+1,T
  1412	031301	321 10 0 00 031273 		JUMPL	AC+4,.-^D6	;LOOP ON ERROR SWITCH^
  1413
  1414
  1415			000252		T=T+1
  1416			000010			XX=XX/2
  1417			130400			ZZ=ZZ-1000
  1418						DFARP	T,200000,0,0,0,200000,0,XX,0,ZZ,0,0,0^
  1419						DMOVE	AC,[200000,,0
  1420	031302	120 04 0 00 043356 			0,,0]
  1421						DFAD	AC,[200000,,0
  1422	031303	110 04 0 00 043551 			XX,,0]
  1423	031304	312 04 0 00 043553 		CAME	AC,[ZZ,,0]
  1424	031305	003 04 0 00 000252 		ER3	AC,T
  1425	031306	312 05 0 00 043354 		CAME	AC+1,[0,,0]
  1426	031307	004 05 0 00 000252 		ER4	AC+1,T
  1427	031310	321 10 0 00 031302 		JUMPL	AC+4,.-^D6	;LOOP ON ERROR SWITCH^
  1428
  1429DBKCD 	PDP-10 KI10 ADVANCED INSTRUCTION DIAGNOSTIC #4, VERSION 0,3 	MACRO %52(462) 12:35  9-AUG-76 PAGE 2-13
DBKCDM	MAC	26-MAY-76 16:52		TEST AR, ARX, AD, ADX AND NORMALIZE LOGIC FOR DOUBLE FLOATING POINT OPERATIONS     SEQ 0043

  1430			000253		T=T+1
  1431			000004			XX=XX/2
  1432			127400			ZZ=ZZ-1000
  1433						DFARP	T,200000,0,0,0,200000,0,XX,0,ZZ,0,0,0^
  1434						DMOVE	AC,[200000,,0
  1435	031311	120 04 0 00 043356 			0,,0]
  1436						DFAD	AC,[200000,,0
  1437	031312	110 04 0 00 043554 			XX,,0]
  1438	031313	312 04 0 00 043556 		CAME	AC,[ZZ,,0]
  1439	031314	003 04 0 00 000253 		ER3	AC,T
  1440	031315	312 05 0 00 043354 		CAME	AC+1,[0,,0]
  1441	031316	004 05 0 00 000253 		ER4	AC+1,T
  1442	031317	321 10 0 00 031311 		JUMPL	AC+4,.-^D6	;LOOP ON ERROR SWITCH^
  1443
  1444
  1445			000254		T=T+1
  1446			000002			XX=XX/2
  1447			126400			ZZ=ZZ-1000
  1448						DFARP	T,200000,0,0,0,200000,0,XX,0,ZZ,0,0,0^
  1449						DMOVE	AC,[200000,,0
  1450	031320	120 04 0 00 043356 			0,,0]
  1451						DFAD	AC,[200000,,0
  1452	031321	110 04 0 00 043557 			XX,,0]
  1453	031322	312 04 0 00 043561 		CAME	AC,[ZZ,,0]
  1454	031323	003 04 0 00 000254 		ER3	AC,T
  1455	031324	312 05 0 00 043354 		CAME	AC+1,[0,,0]
  1456	031325	004 05 0 00 000254 		ER4	AC+1,T
  1457	031326	321 10 0 00 031320 		JUMPL	AC+4,.-^D6	;LOOP ON ERROR SWITCH^
  1458
  1459
  1460			000255		T=T+1
  1461			000001			XX=XX/2
  1462			125400			ZZ=ZZ-1000
  1463						DFARP	T,200000,0,0,0,200000,0,XX,0,ZZ,0,0,0^
  1464						DMOVE	AC,[200000,,0
  1465	031327	120 04 0 00 043356 			0,,0]
  1466						DFAD	AC,[200000,,0
  1467	031330	110 04 0 00 043562 			XX,,0]
  1468	031331	312 04 0 00 043564 		CAME	AC,[ZZ,,0]
  1469	031332	003 04 0 00 000255 		ER3	AC,T
  1470	031333	312 05 0 00 043354 		CAME	AC+1,[0,,0]
  1471	031334	004 05 0 00 000255 		ER4	AC+1,T
  1472	031335	321 10 0 00 031327 		JUMPL	AC+4,.-^D6	;LOOP ON ERROR SWITCH^
  1473
  1474
  1475		000001	000000			XX=1000000
  1476
  1477
  1478						REPEAT	^D18,<
  1479					T=T+1
  1480						XX=XX/2
  1481						ZZ=ZZ-1000
  1482						DFARP	T,200000,0,0,0,200000,0,0,XX,ZZ,0,0,0
  1483					>
  1484DBKCD 	PDP-10 KI10 ADVANCED INSTRUCTION DIAGNOSTIC #4, VERSION 0,3 	MACRO %52(462) 12:35  9-AUG-76 PAGE 2-14
DBKCDM	MAC	26-MAY-76 16:52		TEST AR, ARX, AD, ADX AND NORMALIZE LOGIC FOR DOUBLE FLOATING POINT OPERATIONS     SEQ 0044

  1485			000256		T=T+1
  1486			400000			XX=XX/2
  1487			124400			ZZ=ZZ-1000
  1488						DFARP	T,200000,0,0,0,200000,0,0,XX,ZZ,0,0,0^
  1489						DMOVE	AC,[200000,,0
  1490	031336	120 04 0 00 043356 			0,,0]
  1491						DFAD	AC,[200000,,0
  1492	031337	110 04 0 00 043565 			0,,XX]
  1493	031340	312 04 0 00 043567 		CAME	AC,[ZZ,,0]
  1494	031341	003 04 0 00 000256 		ER3	AC,T
  1495	031342	312 05 0 00 043354 		CAME	AC+1,[0,,0]
  1496	031343	004 05 0 00 000256 		ER4	AC+1,T
  1497	031344	321 10 0 00 031336 		JUMPL	AC+4,.-^D6	;LOOP ON ERROR SWITCH^
  1498
  1499
  1500			000257		T=T+1
  1501			200000			XX=XX/2
  1502			123400			ZZ=ZZ-1000
  1503						DFARP	T,200000,0,0,0,200000,0,0,XX,ZZ,0,0,0^
  1504						DMOVE	AC,[200000,,0
  1505	031345	120 04 0 00 043356 			0,,0]
  1506						DFAD	AC,[200000,,0
  1507	031346	110 04 0 00 043570 			0,,XX]
  1508	031347	312 04 0 00 043572 		CAME	AC,[ZZ,,0]
  1509	031350	003 04 0 00 000257 		ER3	AC,T
  1510	031351	312 05 0 00 043354 		CAME	AC+1,[0,,0]
  1511	031352	004 05 0 00 000257 		ER4	AC+1,T
  1512	031353	321 10 0 00 031345 		JUMPL	AC+4,.-^D6	;LOOP ON ERROR SWITCH^
  1513
  1514
  1515			000260		T=T+1
  1516			100000			XX=XX/2
  1517			122400			ZZ=ZZ-1000
  1518						DFARP	T,200000,0,0,0,200000,0,0,XX,ZZ,0,0,0^
  1519						DMOVE	AC,[200000,,0
  1520	031354	120 04 0 00 043356 			0,,0]
  1521						DFAD	AC,[200000,,0
  1522	031355	110 04 0 00 043573 			0,,XX]
  1523	031356	312 04 0 00 043575 		CAME	AC,[ZZ,,0]
  1524	031357	003 04 0 00 000260 		ER3	AC,T
  1525	031360	312 05 0 00 043354 		CAME	AC+1,[0,,0]
  1526	031361	004 05 0 00 000260 		ER4	AC+1,T
  1527	031362	321 10 0 00 031354 		JUMPL	AC+4,.-^D6	;LOOP ON ERROR SWITCH^
  1528
  1529
  1530			000261		T=T+1
  1531			040000			XX=XX/2
  1532			121400			ZZ=ZZ-1000
  1533						DFARP	T,200000,0,0,0,200000,0,0,XX,ZZ,0,0,0^
  1534						DMOVE	AC,[200000,,0
  1535	031363	120 04 0 00 043356 			0,,0]
  1536						DFAD	AC,[200000,,0
  1537	031364	110 04 0 00 043576 			0,,XX]
  1538	031365	312 04 0 00 043600 		CAME	AC,[ZZ,,0]
  1539	031366	003 04 0 00 000261 		ER3	AC,TDBKCD 	PDP-10 KI10 ADVANCED INSTRUCTION DIAGNOSTIC #4, VERSION 0,3 	MACRO %52(462) 12:35  9-AUG-76 PAGE 2-15
DBKCDM	MAC	26-MAY-76 16:52		TEST AR, ARX, AD, ADX AND NORMALIZE LOGIC FOR DOUBLE FLOATING POINT OPERATIONS     SEQ 0045

  1540	031367	312 05 0 00 043354 		CAME	AC+1,[0,,0]
  1541	031370	004 05 0 00 000261 		ER4	AC+1,T
  1542	031371	321 10 0 00 031363 		JUMPL	AC+4,.-^D6	;LOOP ON ERROR SWITCH^
  1543
  1544
  1545			000262		T=T+1
  1546			020000			XX=XX/2
  1547			120400			ZZ=ZZ-1000
  1548						DFARP	T,200000,0,0,0,200000,0,0,XX,ZZ,0,0,0^
  1549						DMOVE	AC,[200000,,0
  1550	031372	120 04 0 00 043356 			0,,0]
  1551						DFAD	AC,[200000,,0
  1552	031373	110 04 0 00 043601 			0,,XX]
  1553	031374	312 04 0 00 043603 		CAME	AC,[ZZ,,0]
  1554	031375	003 04 0 00 000262 		ER3	AC,T
  1555	031376	312 05 0 00 043354 		CAME	AC+1,[0,,0]
  1556	031377	004 05 0 00 000262 		ER4	AC+1,T
  1557	031400	321 10 0 00 031372 		JUMPL	AC+4,.-^D6	;LOOP ON ERROR SWITCH^
  1558
  1559
  1560			000263		T=T+1
  1561			010000			XX=XX/2
  1562			117400			ZZ=ZZ-1000
  1563						DFARP	T,200000,0,0,0,200000,0,0,XX,ZZ,0,0,0^
  1564						DMOVE	AC,[200000,,0
  1565	031401	120 04 0 00 043356 			0,,0]
  1566						DFAD	AC,[200000,,0
  1567	031402	110 04 0 00 043604 			0,,XX]
  1568	031403	312 04 0 00 043606 		CAME	AC,[ZZ,,0]
  1569	031404	003 04 0 00 000263 		ER3	AC,T
  1570	031405	312 05 0 00 043354 		CAME	AC+1,[0,,0]
  1571	031406	004 05 0 00 000263 		ER4	AC+1,T
  1572	031407	321 10 0 00 031401 		JUMPL	AC+4,.-^D6	;LOOP ON ERROR SWITCH^
  1573
  1574
  1575			000264		T=T+1
  1576			004000			XX=XX/2
  1577			116400			ZZ=ZZ-1000
  1578						DFARP	T,200000,0,0,0,200000,0,0,XX,ZZ,0,0,0^
  1579						DMOVE	AC,[200000,,0
  1580	031410	120 04 0 00 043356 			0,,0]
  1581						DFAD	AC,[200000,,0
  1582	031411	110 04 0 00 043607 			0,,XX]
  1583	031412	312 04 0 00 043611 		CAME	AC,[ZZ,,0]
  1584	031413	003 04 0 00 000264 		ER3	AC,T
  1585	031414	312 05 0 00 043354 		CAME	AC+1,[0,,0]
  1586	031415	004 05 0 00 000264 		ER4	AC+1,T
  1587	031416	321 10 0 00 031410 		JUMPL	AC+4,.-^D6	;LOOP ON ERROR SWITCH^
  1588
  1589
  1590			000265		T=T+1
  1591			002000			XX=XX/2
  1592			115400			ZZ=ZZ-1000
  1593						DFARP	T,200000,0,0,0,200000,0,0,XX,ZZ,0,0,0^
  1594						DMOVE	AC,[200000,,0DBKCD 	PDP-10 KI10 ADVANCED INSTRUCTION DIAGNOSTIC #4, VERSION 0,3 	MACRO %52(462) 12:35  9-AUG-76 PAGE 2-16
DBKCDM	MAC	26-MAY-76 16:52		TEST AR, ARX, AD, ADX AND NORMALIZE LOGIC FOR DOUBLE FLOATING POINT OPERATIONS     SEQ 0046

  1595	031417	120 04 0 00 043356 			0,,0]
  1596						DFAD	AC,[200000,,0
  1597	031420	110 04 0 00 043612 			0,,XX]
  1598	031421	312 04 0 00 043614 		CAME	AC,[ZZ,,0]
  1599	031422	003 04 0 00 000265 		ER3	AC,T
  1600	031423	312 05 0 00 043354 		CAME	AC+1,[0,,0]
  1601	031424	004 05 0 00 000265 		ER4	AC+1,T
  1602	031425	321 10 0 00 031417 		JUMPL	AC+4,.-^D6	;LOOP ON ERROR SWITCH^
  1603
  1604
  1605			000266		T=T+1
  1606			001000			XX=XX/2
  1607			114400			ZZ=ZZ-1000
  1608						DFARP	T,200000,0,0,0,200000,0,0,XX,ZZ,0,0,0^
  1609						DMOVE	AC,[200000,,0
  1610	031426	120 04 0 00 043356 			0,,0]
  1611						DFAD	AC,[200000,,0
  1612	031427	110 04 0 00 043615 			0,,XX]
  1613	031430	312 04 0 00 043617 		CAME	AC,[ZZ,,0]
  1614	031431	003 04 0 00 000266 		ER3	AC,T
  1615	031432	312 05 0 00 043354 		CAME	AC+1,[0,,0]
  1616	031433	004 05 0 00 000266 		ER4	AC+1,T
  1617	031434	321 10 0 00 031426 		JUMPL	AC+4,.-^D6	;LOOP ON ERROR SWITCH^
  1618
  1619
  1620			000267		T=T+1
  1621			000400			XX=XX/2
  1622			113400			ZZ=ZZ-1000
  1623						DFARP	T,200000,0,0,0,200000,0,0,XX,ZZ,0,0,0^
  1624						DMOVE	AC,[200000,,0
  1625	031435	120 04 0 00 043356 			0,,0]
  1626						DFAD	AC,[200000,,0
  1627	031436	110 04 0 00 043620 			0,,XX]
  1628	031437	312 04 0 00 043622 		CAME	AC,[ZZ,,0]
  1629	031440	003 04 0 00 000267 		ER3	AC,T
  1630	031441	312 05 0 00 043354 		CAME	AC+1,[0,,0]
  1631	031442	004 05 0 00 000267 		ER4	AC+1,T
  1632	031443	321 10 0 00 031435 		JUMPL	AC+4,.-^D6	;LOOP ON ERROR SWITCH^
  1633
  1634
  1635			000270		T=T+1
  1636			000200			XX=XX/2
  1637			112400			ZZ=ZZ-1000
  1638						DFARP	T,200000,0,0,0,200000,0,0,XX,ZZ,0,0,0^
  1639						DMOVE	AC,[200000,,0
  1640	031444	120 04 0 00 043356 			0,,0]
  1641						DFAD	AC,[200000,,0
  1642	031445	110 04 0 00 043623 			0,,XX]
  1643	031446	312 04 0 00 043625 		CAME	AC,[ZZ,,0]
  1644	031447	003 04 0 00 000270 		ER3	AC,T
  1645	031450	312 05 0 00 043354 		CAME	AC+1,[0,,0]
  1646	031451	004 05 0 00 000270 		ER4	AC+1,T
  1647	031452	321 10 0 00 031444 		JUMPL	AC+4,.-^D6	;LOOP ON ERROR SWITCH^
  1648
  1649DBKCD 	PDP-10 KI10 ADVANCED INSTRUCTION DIAGNOSTIC #4, VERSION 0,3 	MACRO %52(462) 12:35  9-AUG-76 PAGE 2-17
DBKCDM	MAC	26-MAY-76 16:52		TEST AR, ARX, AD, ADX AND NORMALIZE LOGIC FOR DOUBLE FLOATING POINT OPERATIONS     SEQ 0047

  1650			000271		T=T+1
  1651			000100			XX=XX/2
  1652			111400			ZZ=ZZ-1000
  1653						DFARP	T,200000,0,0,0,200000,0,0,XX,ZZ,0,0,0^
  1654						DMOVE	AC,[200000,,0
  1655	031453	120 04 0 00 043356 			0,,0]
  1656						DFAD	AC,[200000,,0
  1657	031454	110 04 0 00 043626 			0,,XX]
  1658	031455	312 04 0 00 043630 		CAME	AC,[ZZ,,0]
  1659	031456	003 04 0 00 000271 		ER3	AC,T
  1660	031457	312 05 0 00 043354 		CAME	AC+1,[0,,0]
  1661	031460	004 05 0 00 000271 		ER4	AC+1,T
  1662	031461	321 10 0 00 031453 		JUMPL	AC+4,.-^D6	;LOOP ON ERROR SWITCH^
  1663
  1664
  1665			000272		T=T+1
  1666			000040			XX=XX/2
  1667			110400			ZZ=ZZ-1000
  1668						DFARP	T,200000,0,0,0,200000,0,0,XX,ZZ,0,0,0^
  1669						DMOVE	AC,[200000,,0
  1670	031462	120 04 0 00 043356 			0,,0]
  1671						DFAD	AC,[200000,,0
  1672	031463	110 04 0 00 043631 			0,,XX]
  1673	031464	312 04 0 00 043633 		CAME	AC,[ZZ,,0]
  1674	031465	003 04 0 00 000272 		ER3	AC,T
  1675	031466	312 05 0 00 043354 		CAME	AC+1,[0,,0]
  1676	031467	004 05 0 00 000272 		ER4	AC+1,T
  1677	031470	321 10 0 00 031462 		JUMPL	AC+4,.-^D6	;LOOP ON ERROR SWITCH^
  1678
  1679
  1680			000273		T=T+1
  1681			000020			XX=XX/2
  1682			107400			ZZ=ZZ-1000
  1683						DFARP	T,200000,0,0,0,200000,0,0,XX,ZZ,0,0,0^
  1684						DMOVE	AC,[200000,,0
  1685	031471	120 04 0 00 043356 			0,,0]
  1686						DFAD	AC,[200000,,0
  1687	031472	110 04 0 00 043634 			0,,XX]
  1688	031473	312 04 0 00 043636 		CAME	AC,[ZZ,,0]
  1689	031474	003 04 0 00 000273 		ER3	AC,T
  1690	031475	312 05 0 00 043354 		CAME	AC+1,[0,,0]
  1691	031476	004 05 0 00 000273 		ER4	AC+1,T
  1692	031477	321 10 0 00 031471 		JUMPL	AC+4,.-^D6	;LOOP ON ERROR SWITCH^
  1693
  1694
  1695			000274		T=T+1
  1696			000010			XX=XX/2
  1697			106400			ZZ=ZZ-1000
  1698						DFARP	T,200000,0,0,0,200000,0,0,XX,ZZ,0,0,0^
  1699						DMOVE	AC,[200000,,0
  1700	031500	120 04 0 00 043356 			0,,0]
  1701						DFAD	AC,[200000,,0
  1702	031501	110 04 0 00 043637 			0,,XX]
  1703	031502	312 04 0 00 043641 		CAME	AC,[ZZ,,0]
  1704	031503	003 04 0 00 000274 		ER3	AC,TDBKCD 	PDP-10 KI10 ADVANCED INSTRUCTION DIAGNOSTIC #4, VERSION 0,3 	MACRO %52(462) 12:35  9-AUG-76 PAGE 2-18
DBKCDM	MAC	26-MAY-76 16:52		TEST AR, ARX, AD, ADX AND NORMALIZE LOGIC FOR DOUBLE FLOATING POINT OPERATIONS     SEQ 0048

  1705	031504	312 05 0 00 043354 		CAME	AC+1,[0,,0]
  1706	031505	004 05 0 00 000274 		ER4	AC+1,T
  1707	031506	321 10 0 00 031500 		JUMPL	AC+4,.-^D6	;LOOP ON ERROR SWITCH^
  1708
  1709
  1710			000275		T=T+1
  1711			000004			XX=XX/2
  1712			105400			ZZ=ZZ-1000
  1713						DFARP	T,200000,0,0,0,200000,0,0,XX,ZZ,0,0,0^
  1714						DMOVE	AC,[200000,,0
  1715	031507	120 04 0 00 043356 			0,,0]
  1716						DFAD	AC,[200000,,0
  1717	031510	110 04 0 00 043642 			0,,XX]
  1718	031511	312 04 0 00 043644 		CAME	AC,[ZZ,,0]
  1719	031512	003 04 0 00 000275 		ER3	AC,T
  1720	031513	312 05 0 00 043354 		CAME	AC+1,[0,,0]
  1721	031514	004 05 0 00 000275 		ER4	AC+1,T
  1722	031515	321 10 0 00 031507 		JUMPL	AC+4,.-^D6	;LOOP ON ERROR SWITCH^
  1723
  1724
  1725			000276		T=T+1
  1726			000002			XX=XX/2
  1727			104400			ZZ=ZZ-1000
  1728						DFARP	T,200000,0,0,0,200000,0,0,XX,ZZ,0,0,0^
  1729						DMOVE	AC,[200000,,0
  1730	031516	120 04 0 00 043356 			0,,0]
  1731						DFAD	AC,[200000,,0
  1732	031517	110 04 0 00 043645 			0,,XX]
  1733	031520	312 04 0 00 043647 		CAME	AC,[ZZ,,0]
  1734	031521	003 04 0 00 000276 		ER3	AC,T
  1735	031522	312 05 0 00 043354 		CAME	AC+1,[0,,0]
  1736	031523	004 05 0 00 000276 		ER4	AC+1,T
  1737	031524	321 10 0 00 031516 		JUMPL	AC+4,.-^D6	;LOOP ON ERROR SWITCH^
  1738
  1739
  1740			000277		T=T+1
  1741			000001			XX=XX/2
  1742			103400			ZZ=ZZ-1000
  1743						DFARP	T,200000,0,0,0,200000,0,0,XX,ZZ,0,0,0^
  1744						DMOVE	AC,[200000,,0
  1745	031525	120 04 0 00 043356 			0,,0]
  1746						DFAD	AC,[200000,,0
  1747	031526	110 04 0 00 043650 			0,,XX]
  1748	031527	312 04 0 00 043652 		CAME	AC,[ZZ,,0]
  1749	031530	003 04 0 00 000277 		ER3	AC,T
  1750	031531	312 05 0 00 043354 		CAME	AC+1,[0,,0]
  1751	031532	004 05 0 00 000277 		ER4	AC+1,T
  1752	031533	321 10 0 00 031525 		JUMPL	AC+4,.-^D6	;LOOP ON ERROR SWITCH^
  1753DBKCD 	PDP-10 KI10 ADVANCED INSTRUCTION DIAGNOSTIC #4, VERSION 0,3 	MACRO %52(462) 12:35  9-AUG-76 PAGE 3
DBKCDM	MAC	26-MAY-76 16:52		TEST AR, ARX, AD, ADX AND NORMALIZE LOGIC FOR DOUBLE FLOATING POINT OPERATIONS     SEQ 0049

  1754					;RIPPLE ONES TEST (TO A RIPPLED ONE, ADD A WORD OF ALL ZEROS)
  1755			000300		T=300
  1756			001000			XX=1000
  1757			201400			ZZ=201400
  1758
  1759
  1760					R300:	REPEAT	^D9,<
  1761					T=T+1
  1762						XX=XX/2
  1763						ZZ=ZZ-1000
  1764						DFARP	T,200000+XX,0,0,0,200000,0,0,0,ZZ,0,0,0
  1765					>
  1766
  1767			000301		T=T+1
  1768			000400			XX=XX/2
  1769			200400			ZZ=ZZ-1000
  1770						DFARP	T,200000+XX,0,0,0,200000,0,0,0,ZZ,0,0,0^
  1771						DMOVE	AC,[200000+XX,,0
  1772	031534	120 04 0 00 043360 			0,,0]
  1773						DFAD	AC,[200000,,0
  1774	031535	110 04 0 00 043356 			0,,0]
  1775	031536	312 04 0 00 043360 		CAME	AC,[ZZ,,0]
  1776	031537	003 04 0 00 000301 		ER3	AC,T
  1777	031540	312 05 0 00 043354 		CAME	AC+1,[0,,0]
  1778	031541	004 05 0 00 000301 		ER4	AC+1,T
  1779	031542	321 10 0 00 031534 		JUMPL	AC+4,.-^D6	;LOOP ON ERROR SWITCH^
  1780
  1781
  1782			000302		T=T+1
  1783			000200			XX=XX/2
  1784			177400			ZZ=ZZ-1000
  1785						DFARP	T,200000+XX,0,0,0,200000,0,0,0,ZZ,0,0,0^
  1786						DMOVE	AC,[200000+XX,,0
  1787	031543	120 04 0 00 043362 			0,,0]
  1788						DFAD	AC,[200000,,0
  1789	031544	110 04 0 00 043356 			0,,0]
  1790	031545	312 04 0 00 043364 		CAME	AC,[ZZ,,0]
  1791	031546	003 04 0 00 000302 		ER3	AC,T
  1792	031547	312 05 0 00 043354 		CAME	AC+1,[0,,0]
  1793	031550	004 05 0 00 000302 		ER4	AC+1,T
  1794	031551	321 10 0 00 031543 		JUMPL	AC+4,.-^D6	;LOOP ON ERROR SWITCH^
  1795
  1796
  1797			000303		T=T+1
  1798			000100			XX=XX/2
  1799			176400			ZZ=ZZ-1000
  1800						DFARP	T,200000+XX,0,0,0,200000,0,0,0,ZZ,0,0,0^
  1801						DMOVE	AC,[200000+XX,,0
  1802	031552	120 04 0 00 043365 			0,,0]
  1803						DFAD	AC,[200000,,0
  1804	031553	110 04 0 00 043356 			0,,0]
  1805	031554	312 04 0 00 043367 		CAME	AC,[ZZ,,0]
  1806	031555	003 04 0 00 000303 		ER3	AC,T
  1807	031556	312 05 0 00 043354 		CAME	AC+1,[0,,0]
  1808	031557	004 05 0 00 000303 		ER4	AC+1,TDBKCD 	PDP-10 KI10 ADVANCED INSTRUCTION DIAGNOSTIC #4, VERSION 0,3 	MACRO %52(462) 12:35  9-AUG-76 PAGE 3-1
DBKCDM	MAC	26-MAY-76 16:52		TEST AR, ARX, AD, ADX AND NORMALIZE LOGIC FOR DOUBLE FLOATING POINT OPERATIONS     SEQ 0050

  1809	031560	321 10 0 00 031552 		JUMPL	AC+4,.-^D6	;LOOP ON ERROR SWITCH^
  1810
  1811
  1812			000304		T=T+1
  1813			000040			XX=XX/2
  1814			175400			ZZ=ZZ-1000
  1815						DFARP	T,200000+XX,0,0,0,200000,0,0,0,ZZ,0,0,0^
  1816						DMOVE	AC,[200000+XX,,0
  1817	031561	120 04 0 00 043370 			0,,0]
  1818						DFAD	AC,[200000,,0
  1819	031562	110 04 0 00 043356 			0,,0]
  1820	031563	312 04 0 00 043372 		CAME	AC,[ZZ,,0]
  1821	031564	003 04 0 00 000304 		ER3	AC,T
  1822	031565	312 05 0 00 043354 		CAME	AC+1,[0,,0]
  1823	031566	004 05 0 00 000304 		ER4	AC+1,T
  1824	031567	321 10 0 00 031561 		JUMPL	AC+4,.-^D6	;LOOP ON ERROR SWITCH^
  1825
  1826
  1827			000305		T=T+1
  1828			000020			XX=XX/2
  1829			174400			ZZ=ZZ-1000
  1830						DFARP	T,200000+XX,0,0,0,200000,0,0,0,ZZ,0,0,0^
  1831						DMOVE	AC,[200000+XX,,0
  1832	031570	120 04 0 00 043373 			0,,0]
  1833						DFAD	AC,[200000,,0
  1834	031571	110 04 0 00 043356 			0,,0]
  1835	031572	312 04 0 00 043375 		CAME	AC,[ZZ,,0]
  1836	031573	003 04 0 00 000305 		ER3	AC,T
  1837	031574	312 05 0 00 043354 		CAME	AC+1,[0,,0]
  1838	031575	004 05 0 00 000305 		ER4	AC+1,T
  1839	031576	321 10 0 00 031570 		JUMPL	AC+4,.-^D6	;LOOP ON ERROR SWITCH^
  1840
  1841
  1842			000306		T=T+1
  1843			000010			XX=XX/2
  1844			173400			ZZ=ZZ-1000
  1845						DFARP	T,200000+XX,0,0,0,200000,0,0,0,ZZ,0,0,0^
  1846						DMOVE	AC,[200000+XX,,0
  1847	031577	120 04 0 00 043376 			0,,0]
  1848						DFAD	AC,[200000,,0
  1849	031600	110 04 0 00 043356 			0,,0]
  1850	031601	312 04 0 00 043400 		CAME	AC,[ZZ,,0]
  1851	031602	003 04 0 00 000306 		ER3	AC,T
  1852	031603	312 05 0 00 043354 		CAME	AC+1,[0,,0]
  1853	031604	004 05 0 00 000306 		ER4	AC+1,T
  1854	031605	321 10 0 00 031577 		JUMPL	AC+4,.-^D6	;LOOP ON ERROR SWITCH^
  1855
  1856
  1857			000307		T=T+1
  1858			000004			XX=XX/2
  1859			172400			ZZ=ZZ-1000
  1860						DFARP	T,200000+XX,0,0,0,200000,0,0,0,ZZ,0,0,0^
  1861						DMOVE	AC,[200000+XX,,0
  1862	031606	120 04 0 00 043401 			0,,0]
  1863						DFAD	AC,[200000,,0DBKCD 	PDP-10 KI10 ADVANCED INSTRUCTION DIAGNOSTIC #4, VERSION 0,3 	MACRO %52(462) 12:35  9-AUG-76 PAGE 3-2
DBKCDM	MAC	26-MAY-76 16:52		TEST AR, ARX, AD, ADX AND NORMALIZE LOGIC FOR DOUBLE FLOATING POINT OPERATIONS     SEQ 0051

  1864	031607	110 04 0 00 043356 			0,,0]
  1865	031610	312 04 0 00 043403 		CAME	AC,[ZZ,,0]
  1866	031611	003 04 0 00 000307 		ER3	AC,T
  1867	031612	312 05 0 00 043354 		CAME	AC+1,[0,,0]
  1868	031613	004 05 0 00 000307 		ER4	AC+1,T
  1869	031614	321 10 0 00 031606 		JUMPL	AC+4,.-^D6	;LOOP ON ERROR SWITCH^
  1870
  1871
  1872			000310		T=T+1
  1873			000002			XX=XX/2
  1874			171400			ZZ=ZZ-1000
  1875						DFARP	T,200000+XX,0,0,0,200000,0,0,0,ZZ,0,0,0^
  1876						DMOVE	AC,[200000+XX,,0
  1877	031615	120 04 0 00 043404 			0,,0]
  1878						DFAD	AC,[200000,,0
  1879	031616	110 04 0 00 043356 			0,,0]
  1880	031617	312 04 0 00 043406 		CAME	AC,[ZZ,,0]
  1881	031620	003 04 0 00 000310 		ER3	AC,T
  1882	031621	312 05 0 00 043354 		CAME	AC+1,[0,,0]
  1883	031622	004 05 0 00 000310 		ER4	AC+1,T
  1884	031623	321 10 0 00 031615 		JUMPL	AC+4,.-^D6	;LOOP ON ERROR SWITCH^
  1885
  1886
  1887			000311		T=T+1
  1888			000001			XX=XX/2
  1889			170400			ZZ=ZZ-1000
  1890						DFARP	T,200000+XX,0,0,0,200000,0,0,0,ZZ,0,0,0^
  1891						DMOVE	AC,[200000+XX,,0
  1892	031624	120 04 0 00 043407 			0,,0]
  1893						DFAD	AC,[200000,,0
  1894	031625	110 04 0 00 043356 			0,,0]
  1895	031626	312 04 0 00 043411 		CAME	AC,[ZZ,,0]
  1896	031627	003 04 0 00 000311 		ER3	AC,T
  1897	031630	312 05 0 00 043354 		CAME	AC+1,[0,,0]
  1898	031631	004 05 0 00 000311 		ER4	AC+1,T
  1899	031632	321 10 0 00 031624 		JUMPL	AC+4,.-^D6	;LOOP ON ERROR SWITCH^
  1900
  1901
  1902		000001	000000			XX=1000000
  1903
  1904
  1905						REPEAT	^D18,<
  1906					T=T+1
  1907						XX=XX/2
  1908						ZZ=ZZ-1000
  1909						DFARP	T,200000,XX,0,0,200000,0,0,0,ZZ,0,0,0
  1910					>
  1911
  1912			000312		T=T+1
  1913			400000			XX=XX/2
  1914			167400			ZZ=ZZ-1000
  1915						DFARP	T,200000,XX,0,0,200000,0,0,0,ZZ,0,0,0^
  1916						DMOVE	AC,[200000,,XX
  1917	031633	120 04 0 00 043412 			0,,0]
  1918						DFAD	AC,[200000,,0DBKCD 	PDP-10 KI10 ADVANCED INSTRUCTION DIAGNOSTIC #4, VERSION 0,3 	MACRO %52(462) 12:35  9-AUG-76 PAGE 3-3
DBKCDM	MAC	26-MAY-76 16:52		TEST AR, ARX, AD, ADX AND NORMALIZE LOGIC FOR DOUBLE FLOATING POINT OPERATIONS     SEQ 0052

  1919	031634	110 04 0 00 043356 			0,,0]
  1920	031635	312 04 0 00 043414 		CAME	AC,[ZZ,,0]
  1921	031636	003 04 0 00 000312 		ER3	AC,T
  1922	031637	312 05 0 00 043354 		CAME	AC+1,[0,,0]
  1923	031640	004 05 0 00 000312 		ER4	AC+1,T
  1924	031641	321 10 0 00 031633 		JUMPL	AC+4,.-^D6	;LOOP ON ERROR SWITCH^
  1925
  1926
  1927			000313		T=T+1
  1928			200000			XX=XX/2
  1929			166400			ZZ=ZZ-1000
  1930						DFARP	T,200000,XX,0,0,200000,0,0,0,ZZ,0,0,0^
  1931						DMOVE	AC,[200000,,XX
  1932	031642	120 04 0 00 043415 			0,,0]
  1933						DFAD	AC,[200000,,0
  1934	031643	110 04 0 00 043356 			0,,0]
  1935	031644	312 04 0 00 043417 		CAME	AC,[ZZ,,0]
  1936	031645	003 04 0 00 000313 		ER3	AC,T
  1937	031646	312 05 0 00 043354 		CAME	AC+1,[0,,0]
  1938	031647	004 05 0 00 000313 		ER4	AC+1,T
  1939	031650	321 10 0 00 031642 		JUMPL	AC+4,.-^D6	;LOOP ON ERROR SWITCH^
  1940
  1941
  1942			000314		T=T+1
  1943			100000			XX=XX/2
  1944			165400			ZZ=ZZ-1000
  1945						DFARP	T,200000,XX,0,0,200000,0,0,0,ZZ,0,0,0^
  1946						DMOVE	AC,[200000,,XX
  1947	031651	120 04 0 00 043420 			0,,0]
  1948						DFAD	AC,[200000,,0
  1949	031652	110 04 0 00 043356 			0,,0]
  1950	031653	312 04 0 00 043422 		CAME	AC,[ZZ,,0]
  1951	031654	003 04 0 00 000314 		ER3	AC,T
  1952	031655	312 05 0 00 043354 		CAME	AC+1,[0,,0]
  1953	031656	004 05 0 00 000314 		ER4	AC+1,T
  1954	031657	321 10 0 00 031651 		JUMPL	AC+4,.-^D6	;LOOP ON ERROR SWITCH^
  1955
  1956
  1957			000315		T=T+1
  1958			040000			XX=XX/2
  1959			164400			ZZ=ZZ-1000
  1960						DFARP	T,200000,XX,0,0,200000,0,0,0,ZZ,0,0,0^
  1961						DMOVE	AC,[200000,,XX
  1962	031660	120 04 0 00 043423 			0,,0]
  1963						DFAD	AC,[200000,,0
  1964	031661	110 04 0 00 043356 			0,,0]
  1965	031662	312 04 0 00 043425 		CAME	AC,[ZZ,,0]
  1966	031663	003 04 0 00 000315 		ER3	AC,T
  1967	031664	312 05 0 00 043354 		CAME	AC+1,[0,,0]
  1968	031665	004 05 0 00 000315 		ER4	AC+1,T
  1969	031666	321 10 0 00 031660 		JUMPL	AC+4,.-^D6	;LOOP ON ERROR SWITCH^
  1970
  1971
  1972			000316		T=T+1
  1973			020000			XX=XX/2DBKCD 	PDP-10 KI10 ADVANCED INSTRUCTION DIAGNOSTIC #4, VERSION 0,3 	MACRO %52(462) 12:35  9-AUG-76 PAGE 3-4
DBKCDM	MAC	26-MAY-76 16:52		TEST AR, ARX, AD, ADX AND NORMALIZE LOGIC FOR DOUBLE FLOATING POINT OPERATIONS     SEQ 0053

  1974			163400			ZZ=ZZ-1000
  1975						DFARP	T,200000,XX,0,0,200000,0,0,0,ZZ,0,0,0^
  1976						DMOVE	AC,[200000,,XX
  1977	031667	120 04 0 00 043426 			0,,0]
  1978						DFAD	AC,[200000,,0
  1979	031670	110 04 0 00 043356 			0,,0]
  1980	031671	312 04 0 00 043430 		CAME	AC,[ZZ,,0]
  1981	031672	003 04 0 00 000316 		ER3	AC,T
  1982	031673	312 05 0 00 043354 		CAME	AC+1,[0,,0]
  1983	031674	004 05 0 00 000316 		ER4	AC+1,T
  1984	031675	321 10 0 00 031667 		JUMPL	AC+4,.-^D6	;LOOP ON ERROR SWITCH^
  1985
  1986
  1987			000317		T=T+1
  1988			010000			XX=XX/2
  1989			162400			ZZ=ZZ-1000
  1990						DFARP	T,200000,XX,0,0,200000,0,0,0,ZZ,0,0,0^
  1991						DMOVE	AC,[200000,,XX
  1992	031676	120 04 0 00 043431 			0,,0]
  1993						DFAD	AC,[200000,,0
  1994	031677	110 04 0 00 043356 			0,,0]
  1995	031700	312 04 0 00 043433 		CAME	AC,[ZZ,,0]
  1996	031701	003 04 0 00 000317 		ER3	AC,T
  1997	031702	312 05 0 00 043354 		CAME	AC+1,[0,,0]
  1998	031703	004 05 0 00 000317 		ER4	AC+1,T
  1999	031704	321 10 0 00 031676 		JUMPL	AC+4,.-^D6	;LOOP ON ERROR SWITCH^
  2000
  2001
  2002			000320		T=T+1
  2003			004000			XX=XX/2
  2004			161400			ZZ=ZZ-1000
  2005						DFARP	T,200000,XX,0,0,200000,0,0,0,ZZ,0,0,0^
  2006						DMOVE	AC,[200000,,XX
  2007	031705	120 04 0 00 043434 			0,,0]
  2008						DFAD	AC,[200000,,0
  2009	031706	110 04 0 00 043356 			0,,0]
  2010	031707	312 04 0 00 043436 		CAME	AC,[ZZ,,0]
  2011	031710	003 04 0 00 000320 		ER3	AC,T
  2012	031711	312 05 0 00 043354 		CAME	AC+1,[0,,0]
  2013	031712	004 05 0 00 000320 		ER4	AC+1,T
  2014	031713	321 10 0 00 031705 		JUMPL	AC+4,.-^D6	;LOOP ON ERROR SWITCH^
  2015
  2016
  2017			000321		T=T+1
  2018			002000			XX=XX/2
  2019			160400			ZZ=ZZ-1000
  2020						DFARP	T,200000,XX,0,0,200000,0,0,0,ZZ,0,0,0^
  2021						DMOVE	AC,[200000,,XX
  2022	031714	120 04 0 00 043437 			0,,0]
  2023						DFAD	AC,[200000,,0
  2024	031715	110 04 0 00 043356 			0,,0]
  2025	031716	312 04 0 00 043441 		CAME	AC,[ZZ,,0]
  2026	031717	003 04 0 00 000321 		ER3	AC,T
  2027	031720	312 05 0 00 043354 		CAME	AC+1,[0,,0]
  2028	031721	004 05 0 00 000321 		ER4	AC+1,TDBKCD 	PDP-10 KI10 ADVANCED INSTRUCTION DIAGNOSTIC #4, VERSION 0,3 	MACRO %52(462) 12:35  9-AUG-76 PAGE 3-5
DBKCDM	MAC	26-MAY-76 16:52		TEST AR, ARX, AD, ADX AND NORMALIZE LOGIC FOR DOUBLE FLOATING POINT OPERATIONS     SEQ 0054

  2029	031722	321 10 0 00 031714 		JUMPL	AC+4,.-^D6	;LOOP ON ERROR SWITCH^
  2030
  2031
  2032			000322		T=T+1
  2033			001000			XX=XX/2
  2034			157400			ZZ=ZZ-1000
  2035						DFARP	T,200000,XX,0,0,200000,0,0,0,ZZ,0,0,0^
  2036						DMOVE	AC,[200000,,XX
  2037	031723	120 04 0 00 043442 			0,,0]
  2038						DFAD	AC,[200000,,0
  2039	031724	110 04 0 00 043356 			0,,0]
  2040	031725	312 04 0 00 043444 		CAME	AC,[ZZ,,0]
  2041	031726	003 04 0 00 000322 		ER3	AC,T
  2042	031727	312 05 0 00 043354 		CAME	AC+1,[0,,0]
  2043	031730	004 05 0 00 000322 		ER4	AC+1,T
  2044	031731	321 10 0 00 031723 		JUMPL	AC+4,.-^D6	;LOOP ON ERROR SWITCH^
  2045
  2046
  2047			000323		T=T+1
  2048			000400			XX=XX/2
  2049			156400			ZZ=ZZ-1000
  2050						DFARP	T,200000,XX,0,0,200000,0,0,0,ZZ,0,0,0^
  2051						DMOVE	AC,[200000,,XX
  2052	031732	120 04 0 00 043445 			0,,0]
  2053						DFAD	AC,[200000,,0
  2054	031733	110 04 0 00 043356 			0,,0]
  2055	031734	312 04 0 00 043447 		CAME	AC,[ZZ,,0]
  2056	031735	003 04 0 00 000323 		ER3	AC,T
  2057	031736	312 05 0 00 043354 		CAME	AC+1,[0,,0]
  2058	031737	004 05 0 00 000323 		ER4	AC+1,T
  2059	031740	321 10 0 00 031732 		JUMPL	AC+4,.-^D6	;LOOP ON ERROR SWITCH^
  2060
  2061
  2062			000324		T=T+1
  2063			000200			XX=XX/2
  2064			155400			ZZ=ZZ-1000
  2065						DFARP	T,200000,XX,0,0,200000,0,0,0,ZZ,0,0,0^
  2066						DMOVE	AC,[200000,,XX
  2067	031741	120 04 0 00 043450 			0,,0]
  2068						DFAD	AC,[200000,,0
  2069	031742	110 04 0 00 043356 			0,,0]
  2070	031743	312 04 0 00 043452 		CAME	AC,[ZZ,,0]
  2071	031744	003 04 0 00 000324 		ER3	AC,T
  2072	031745	312 05 0 00 043354 		CAME	AC+1,[0,,0]
  2073	031746	004 05 0 00 000324 		ER4	AC+1,T
  2074	031747	321 10 0 00 031741 		JUMPL	AC+4,.-^D6	;LOOP ON ERROR SWITCH^
  2075
  2076
  2077			000325		T=T+1
  2078			000100			XX=XX/2
  2079			154400			ZZ=ZZ-1000
  2080						DFARP	T,200000,XX,0,0,200000,0,0,0,ZZ,0,0,0^
  2081						DMOVE	AC,[200000,,XX
  2082	031750	120 04 0 00 043453 			0,,0]
  2083						DFAD	AC,[200000,,0DBKCD 	PDP-10 KI10 ADVANCED INSTRUCTION DIAGNOSTIC #4, VERSION 0,3 	MACRO %52(462) 12:35  9-AUG-76 PAGE 3-6
DBKCDM	MAC	26-MAY-76 16:52		TEST AR, ARX, AD, ADX AND NORMALIZE LOGIC FOR DOUBLE FLOATING POINT OPERATIONS     SEQ 0055

  2084	031751	110 04 0 00 043356 			0,,0]
  2085	031752	312 04 0 00 043455 		CAME	AC,[ZZ,,0]
  2086	031753	003 04 0 00 000325 		ER3	AC,T
  2087	031754	312 05 0 00 043354 		CAME	AC+1,[0,,0]
  2088	031755	004 05 0 00 000325 		ER4	AC+1,T
  2089	031756	321 10 0 00 031750 		JUMPL	AC+4,.-^D6	;LOOP ON ERROR SWITCH^
  2090
  2091
  2092			000326		T=T+1
  2093			000040			XX=XX/2
  2094			153400			ZZ=ZZ-1000
  2095						DFARP	T,200000,XX,0,0,200000,0,0,0,ZZ,0,0,0^
  2096						DMOVE	AC,[200000,,XX
  2097	031757	120 04 0 00 043456 			0,,0]
  2098						DFAD	AC,[200000,,0
  2099	031760	110 04 0 00 043356 			0,,0]
  2100	031761	312 04 0 00 043460 		CAME	AC,[ZZ,,0]
  2101	031762	003 04 0 00 000326 		ER3	AC,T
  2102	031763	312 05 0 00 043354 		CAME	AC+1,[0,,0]
  2103	031764	004 05 0 00 000326 		ER4	AC+1,T
  2104	031765	321 10 0 00 031757 		JUMPL	AC+4,.-^D6	;LOOP ON ERROR SWITCH^
  2105
  2106
  2107			000327		T=T+1
  2108			000020			XX=XX/2
  2109			152400			ZZ=ZZ-1000
  2110						DFARP	T,200000,XX,0,0,200000,0,0,0,ZZ,0,0,0^
  2111						DMOVE	AC,[200000,,XX
  2112	031766	120 04 0 00 043461 			0,,0]
  2113						DFAD	AC,[200000,,0
  2114	031767	110 04 0 00 043356 			0,,0]
  2115	031770	312 04 0 00 043463 		CAME	AC,[ZZ,,0]
  2116	031771	003 04 0 00 000327 		ER3	AC,T
  2117	031772	312 05 0 00 043354 		CAME	AC+1,[0,,0]
  2118	031773	004 05 0 00 000327 		ER4	AC+1,T
  2119	031774	321 10 0 00 031766 		JUMPL	AC+4,.-^D6	;LOOP ON ERROR SWITCH^
  2120
  2121
  2122			000330		T=T+1
  2123			000010			XX=XX/2
  2124			151400			ZZ=ZZ-1000
  2125						DFARP	T,200000,XX,0,0,200000,0,0,0,ZZ,0,0,0^
  2126						DMOVE	AC,[200000,,XX
  2127	031775	120 04 0 00 043464 			0,,0]
  2128						DFAD	AC,[200000,,0
  2129	031776	110 04 0 00 043356 			0,,0]
  2130	031777	312 04 0 00 043466 		CAME	AC,[ZZ,,0]
  2131	032000	003 04 0 00 000330 		ER3	AC,T
  2132	032001	312 05 0 00 043354 		CAME	AC+1,[0,,0]
  2133	032002	004 05 0 00 000330 		ER4	AC+1,T
  2134	032003	321 10 0 00 031775 		JUMPL	AC+4,.-^D6	;LOOP ON ERROR SWITCH^
  2135
  2136
  2137			000331		T=T+1
  2138			000004			XX=XX/2DBKCD 	PDP-10 KI10 ADVANCED INSTRUCTION DIAGNOSTIC #4, VERSION 0,3 	MACRO %52(462) 12:35  9-AUG-76 PAGE 3-7
DBKCDM	MAC	26-MAY-76 16:52		TEST AR, ARX, AD, ADX AND NORMALIZE LOGIC FOR DOUBLE FLOATING POINT OPERATIONS     SEQ 0056

  2139			150400			ZZ=ZZ-1000
  2140						DFARP	T,200000,XX,0,0,200000,0,0,0,ZZ,0,0,0^
  2141						DMOVE	AC,[200000,,XX
  2142	032004	120 04 0 00 043467 			0,,0]
  2143						DFAD	AC,[200000,,0
  2144	032005	110 04 0 00 043356 			0,,0]
  2145	032006	312 04 0 00 043471 		CAME	AC,[ZZ,,0]
  2146	032007	003 04 0 00 000331 		ER3	AC,T
  2147	032010	312 05 0 00 043354 		CAME	AC+1,[0,,0]
  2148	032011	004 05 0 00 000331 		ER4	AC+1,T
  2149	032012	321 10 0 00 032004 		JUMPL	AC+4,.-^D6	;LOOP ON ERROR SWITCH^
  2150
  2151
  2152			000332		T=T+1
  2153			000002			XX=XX/2
  2154			147400			ZZ=ZZ-1000
  2155						DFARP	T,200000,XX,0,0,200000,0,0,0,ZZ,0,0,0^
  2156						DMOVE	AC,[200000,,XX
  2157	032013	120 04 0 00 043472 			0,,0]
  2158						DFAD	AC,[200000,,0
  2159	032014	110 04 0 00 043356 			0,,0]
  2160	032015	312 04 0 00 043474 		CAME	AC,[ZZ,,0]
  2161	032016	003 04 0 00 000332 		ER3	AC,T
  2162	032017	312 05 0 00 043354 		CAME	AC+1,[0,,0]
  2163	032020	004 05 0 00 000332 		ER4	AC+1,T
  2164	032021	321 10 0 00 032013 		JUMPL	AC+4,.-^D6	;LOOP ON ERROR SWITCH^
  2165
  2166
  2167			000333		T=T+1
  2168			000001			XX=XX/2
  2169			146400			ZZ=ZZ-1000
  2170						DFARP	T,200000,XX,0,0,200000,0,0,0,ZZ,0,0,0^
  2171						DMOVE	AC,[200000,,XX
  2172	032022	120 04 0 00 043475 			0,,0]
  2173						DFAD	AC,[200000,,0
  2174	032023	110 04 0 00 043356 			0,,0]
  2175	032024	312 04 0 00 043477 		CAME	AC,[ZZ,,0]
  2176	032025	003 04 0 00 000333 		ER3	AC,T
  2177	032026	312 05 0 00 043354 		CAME	AC+1,[0,,0]
  2178	032027	004 05 0 00 000333 		ER4	AC+1,T
  2179	032030	321 10 0 00 032022 		JUMPL	AC+4,.-^D6	;LOOP ON ERROR SWITCH^
  2180
  2181
  2182			400000			XX=400000
  2183
  2184			000334		T=T+1
  2185						DFARP	T,200000,0,XX,0,200000,0,0,0,0,0,0,0^
  2186						DMOVE	AC,[200000,,0
  2187	032031	120 04 0 00 043500 			XX,,0]
  2188						DFAD	AC,[200000,,0
  2189	032032	110 04 0 00 043356 			0,,0]
  2190	032033	312 04 0 00 043354 		CAME	AC,[0,,0]
  2191	032034	003 04 0 00 000334 		ER3	AC,T
  2192	032035	312 05 0 00 043354 		CAME	AC+1,[0,,0]
  2193	032036	004 05 0 00 000334 		ER4	AC+1,TDBKCD 	PDP-10 KI10 ADVANCED INSTRUCTION DIAGNOSTIC #4, VERSION 0,3 	MACRO %52(462) 12:35  9-AUG-76 PAGE 3-8
DBKCDM	MAC	26-MAY-76 16:52		TEST AR, ARX, AD, ADX AND NORMALIZE LOGIC FOR DOUBLE FLOATING POINT OPERATIONS     SEQ 0057

  2194	032037	321 10 0 00 032031 		JUMPL	AC+4,.-^D6	;LOOP ON ERROR SWITCH^
  2195
  2196
  2197						REPEAT	^D17,<
  2198					T=T+1
  2199						XX=XX/2
  2200						ZZ=ZZ-1000
  2201						DFARP	T,200000,0,XX,0,200000,0,0,0,ZZ,0,0,0
  2202
  2203					>
  2204
  2205			000335		T=T+1
  2206			200000			XX=XX/2
  2207			145400			ZZ=ZZ-1000
  2208						DFARP	T,200000,0,XX,0,200000,0,0,0,ZZ,0,0,0^
  2209						DMOVE	AC,[200000,,0
  2210	032040	120 04 0 00 043502 			XX,,0]
  2211						DFAD	AC,[200000,,0
  2212	032041	110 04 0 00 043356 			0,,0]
  2213	032042	312 04 0 00 043504 		CAME	AC,[ZZ,,0]
  2214	032043	003 04 0 00 000335 		ER3	AC,T
  2215	032044	312 05 0 00 043354 		CAME	AC+1,[0,,0]
  2216	032045	004 05 0 00 000335 		ER4	AC+1,T
  2217	032046	321 10 0 00 032040 		JUMPL	AC+4,.-^D6	;LOOP ON ERROR SWITCH^
  2218
  2219
  2220
  2221			000336		T=T+1
  2222			100000			XX=XX/2
  2223			144400			ZZ=ZZ-1000
  2224						DFARP	T,200000,0,XX,0,200000,0,0,0,ZZ,0,0,0^
  2225						DMOVE	AC,[200000,,0
  2226	032047	120 04 0 00 043505 			XX,,0]
  2227						DFAD	AC,[200000,,0
  2228	032050	110 04 0 00 043356 			0,,0]
  2229	032051	312 04 0 00 043507 		CAME	AC,[ZZ,,0]
  2230	032052	003 04 0 00 000336 		ER3	AC,T
  2231	032053	312 05 0 00 043354 		CAME	AC+1,[0,,0]
  2232	032054	004 05 0 00 000336 		ER4	AC+1,T
  2233	032055	321 10 0 00 032047 		JUMPL	AC+4,.-^D6	;LOOP ON ERROR SWITCH^
  2234
  2235
  2236
  2237			000337		T=T+1
  2238			040000			XX=XX/2
  2239			143400			ZZ=ZZ-1000
  2240						DFARP	T,200000,0,XX,0,200000,0,0,0,ZZ,0,0,0^
  2241						DMOVE	AC,[200000,,0
  2242	032056	120 04 0 00 043510 			XX,,0]
  2243						DFAD	AC,[200000,,0
  2244	032057	110 04 0 00 043356 			0,,0]
  2245	032060	312 04 0 00 043512 		CAME	AC,[ZZ,,0]
  2246	032061	003 04 0 00 000337 		ER3	AC,T
  2247	032062	312 05 0 00 043354 		CAME	AC+1,[0,,0]
  2248	032063	004 05 0 00 000337 		ER4	AC+1,TDBKCD 	PDP-10 KI10 ADVANCED INSTRUCTION DIAGNOSTIC #4, VERSION 0,3 	MACRO %52(462) 12:35  9-AUG-76 PAGE 3-9
DBKCDM	MAC	26-MAY-76 16:52		TEST AR, ARX, AD, ADX AND NORMALIZE LOGIC FOR DOUBLE FLOATING POINT OPERATIONS     SEQ 0058

  2249	032064	321 10 0 00 032056 		JUMPL	AC+4,.-^D6	;LOOP ON ERROR SWITCH^
  2250
  2251
  2252
  2253			000340		T=T+1
  2254			020000			XX=XX/2
  2255			142400			ZZ=ZZ-1000
  2256						DFARP	T,200000,0,XX,0,200000,0,0,0,ZZ,0,0,0^
  2257						DMOVE	AC,[200000,,0
  2258	032065	120 04 0 00 043513 			XX,,0]
  2259						DFAD	AC,[200000,,0
  2260	032066	110 04 0 00 043356 			0,,0]
  2261	032067	312 04 0 00 043515 		CAME	AC,[ZZ,,0]
  2262	032070	003 04 0 00 000340 		ER3	AC,T
  2263	032071	312 05 0 00 043354 		CAME	AC+1,[0,,0]
  2264	032072	004 05 0 00 000340 		ER4	AC+1,T
  2265	032073	321 10 0 00 032065 		JUMPL	AC+4,.-^D6	;LOOP ON ERROR SWITCH^
  2266
  2267
  2268
  2269			000341		T=T+1
  2270			010000			XX=XX/2
  2271			141400			ZZ=ZZ-1000
  2272						DFARP	T,200000,0,XX,0,200000,0,0,0,ZZ,0,0,0^
  2273						DMOVE	AC,[200000,,0
  2274	032074	120 04 0 00 043516 			XX,,0]
  2275						DFAD	AC,[200000,,0
  2276	032075	110 04 0 00 043356 			0,,0]
  2277	032076	312 04 0 00 043520 		CAME	AC,[ZZ,,0]
  2278	032077	003 04 0 00 000341 		ER3	AC,T
  2279	032100	312 05 0 00 043354 		CAME	AC+1,[0,,0]
  2280	032101	004 05 0 00 000341 		ER4	AC+1,T
  2281	032102	321 10 0 00 032074 		JUMPL	AC+4,.-^D6	;LOOP ON ERROR SWITCH^
  2282
  2283
  2284
  2285			000342		T=T+1
  2286			004000			XX=XX/2
  2287			140400			ZZ=ZZ-1000
  2288						DFARP	T,200000,0,XX,0,200000,0,0,0,ZZ,0,0,0^
  2289						DMOVE	AC,[200000,,0
  2290	032103	120 04 0 00 043521 			XX,,0]
  2291						DFAD	AC,[200000,,0
  2292	032104	110 04 0 00 043356 			0,,0]
  2293	032105	312 04 0 00 043523 		CAME	AC,[ZZ,,0]
  2294	032106	003 04 0 00 000342 		ER3	AC,T
  2295	032107	312 05 0 00 043354 		CAME	AC+1,[0,,0]
  2296	032110	004 05 0 00 000342 		ER4	AC+1,T
  2297	032111	321 10 0 00 032103 		JUMPL	AC+4,.-^D6	;LOOP ON ERROR SWITCH^
  2298
  2299
  2300
  2301			000343		T=T+1
  2302			002000			XX=XX/2
  2303			137400			ZZ=ZZ-1000DBKCD 	PDP-10 KI10 ADVANCED INSTRUCTION DIAGNOSTIC #4, VERSION 0,3 	MACRO %52(462) 12:35  9-AUG-76 PAGE 3-10
DBKCDM	MAC	26-MAY-76 16:52		TEST AR, ARX, AD, ADX AND NORMALIZE LOGIC FOR DOUBLE FLOATING POINT OPERATIONS     SEQ 0059

  2304						DFARP	T,200000,0,XX,0,200000,0,0,0,ZZ,0,0,0^
  2305						DMOVE	AC,[200000,,0
  2306	032112	120 04 0 00 043524 			XX,,0]
  2307						DFAD	AC,[200000,,0
  2308	032113	110 04 0 00 043356 			0,,0]
  2309	032114	312 04 0 00 043526 		CAME	AC,[ZZ,,0]
  2310	032115	003 04 0 00 000343 		ER3	AC,T
  2311	032116	312 05 0 00 043354 		CAME	AC+1,[0,,0]
  2312	032117	004 05 0 00 000343 		ER4	AC+1,T
  2313	032120	321 10 0 00 032112 		JUMPL	AC+4,.-^D6	;LOOP ON ERROR SWITCH^
  2314
  2315
  2316
  2317			000344		T=T+1
  2318			001000			XX=XX/2
  2319			136400			ZZ=ZZ-1000
  2320						DFARP	T,200000,0,XX,0,200000,0,0,0,ZZ,0,0,0^
  2321						DMOVE	AC,[200000,,0
  2322	032121	120 04 0 00 043527 			XX,,0]
  2323						DFAD	AC,[200000,,0
  2324	032122	110 04 0 00 043356 			0,,0]
  2325	032123	312 04 0 00 043531 		CAME	AC,[ZZ,,0]
  2326	032124	003 04 0 00 000344 		ER3	AC,T
  2327	032125	312 05 0 00 043354 		CAME	AC+1,[0,,0]
  2328	032126	004 05 0 00 000344 		ER4	AC+1,T
  2329	032127	321 10 0 00 032121 		JUMPL	AC+4,.-^D6	;LOOP ON ERROR SWITCH^
  2330
  2331
  2332
  2333			000345		T=T+1
  2334			000400			XX=XX/2
  2335			135400			ZZ=ZZ-1000
  2336						DFARP	T,200000,0,XX,0,200000,0,0,0,ZZ,0,0,0^
  2337						DMOVE	AC,[200000,,0
  2338	032130	120 04 0 00 043532 			XX,,0]
  2339						DFAD	AC,[200000,,0
  2340	032131	110 04 0 00 043356 			0,,0]
  2341	032132	312 04 0 00 043534 		CAME	AC,[ZZ,,0]
  2342	032133	003 04 0 00 000345 		ER3	AC,T
  2343	032134	312 05 0 00 043354 		CAME	AC+1,[0,,0]
  2344	032135	004 05 0 00 000345 		ER4	AC+1,T
  2345	032136	321 10 0 00 032130 		JUMPL	AC+4,.-^D6	;LOOP ON ERROR SWITCH^
  2346
  2347
  2348
  2349			000346		T=T+1
  2350			000200			XX=XX/2
  2351			134400			ZZ=ZZ-1000
  2352						DFARP	T,200000,0,XX,0,200000,0,0,0,ZZ,0,0,0^
  2353						DMOVE	AC,[200000,,0
  2354	032137	120 04 0 00 043535 			XX,,0]
  2355						DFAD	AC,[200000,,0
  2356	032140	110 04 0 00 043356 			0,,0]
  2357	032141	312 04 0 00 043537 		CAME	AC,[ZZ,,0]
  2358	032142	003 04 0 00 000346 		ER3	AC,TDBKCD 	PDP-10 KI10 ADVANCED INSTRUCTION DIAGNOSTIC #4, VERSION 0,3 	MACRO %52(462) 12:35  9-AUG-76 PAGE 3-11
DBKCDM	MAC	26-MAY-76 16:52		TEST AR, ARX, AD, ADX AND NORMALIZE LOGIC FOR DOUBLE FLOATING POINT OPERATIONS     SEQ 0060

  2359	032143	312 05 0 00 043354 		CAME	AC+1,[0,,0]
  2360	032144	004 05 0 00 000346 		ER4	AC+1,T
  2361	032145	321 10 0 00 032137 		JUMPL	AC+4,.-^D6	;LOOP ON ERROR SWITCH^
  2362
  2363
  2364
  2365			000347		T=T+1
  2366			000100			XX=XX/2
  2367			133400			ZZ=ZZ-1000
  2368						DFARP	T,200000,0,XX,0,200000,0,0,0,ZZ,0,0,0^
  2369						DMOVE	AC,[200000,,0
  2370	032146	120 04 0 00 043540 			XX,,0]
  2371						DFAD	AC,[200000,,0
  2372	032147	110 04 0 00 043356 			0,,0]
  2373	032150	312 04 0 00 043542 		CAME	AC,[ZZ,,0]
  2374	032151	003 04 0 00 000347 		ER3	AC,T
  2375	032152	312 05 0 00 043354 		CAME	AC+1,[0,,0]
  2376	032153	004 05 0 00 000347 		ER4	AC+1,T
  2377	032154	321 10 0 00 032146 		JUMPL	AC+4,.-^D6	;LOOP ON ERROR SWITCH^
  2378
  2379
  2380
  2381			000350		T=T+1
  2382			000040			XX=XX/2
  2383			132400			ZZ=ZZ-1000
  2384						DFARP	T,200000,0,XX,0,200000,0,0,0,ZZ,0,0,0^
  2385						DMOVE	AC,[200000,,0
  2386	032155	120 04 0 00 043543 			XX,,0]
  2387						DFAD	AC,[200000,,0
  2388	032156	110 04 0 00 043356 			0,,0]
  2389	032157	312 04 0 00 043545 		CAME	AC,[ZZ,,0]
  2390	032160	003 04 0 00 000350 		ER3	AC,T
  2391	032161	312 05 0 00 043354 		CAME	AC+1,[0,,0]
  2392	032162	004 05 0 00 000350 		ER4	AC+1,T
  2393	032163	321 10 0 00 032155 		JUMPL	AC+4,.-^D6	;LOOP ON ERROR SWITCH^
  2394
  2395
  2396
  2397			000351		T=T+1
  2398			000020			XX=XX/2
  2399			131400			ZZ=ZZ-1000
  2400						DFARP	T,200000,0,XX,0,200000,0,0,0,ZZ,0,0,0^
  2401						DMOVE	AC,[200000,,0
  2402	032164	120 04 0 00 043546 			XX,,0]
  2403						DFAD	AC,[200000,,0
  2404	032165	110 04 0 00 043356 			0,,0]
  2405	032166	312 04 0 00 043550 		CAME	AC,[ZZ,,0]
  2406	032167	003 04 0 00 000351 		ER3	AC,T
  2407	032170	312 05 0 00 043354 		CAME	AC+1,[0,,0]
  2408	032171	004 05 0 00 000351 		ER4	AC+1,T
  2409	032172	321 10 0 00 032164 		JUMPL	AC+4,.-^D6	;LOOP ON ERROR SWITCH^
  2410
  2411
  2412
  2413			000352		T=T+1DBKCD 	PDP-10 KI10 ADVANCED INSTRUCTION DIAGNOSTIC #4, VERSION 0,3 	MACRO %52(462) 12:35  9-AUG-76 PAGE 3-12
DBKCDM	MAC	26-MAY-76 16:52		TEST AR, ARX, AD, ADX AND NORMALIZE LOGIC FOR DOUBLE FLOATING POINT OPERATIONS     SEQ 0061

  2414			000010			XX=XX/2
  2415			130400			ZZ=ZZ-1000
  2416						DFARP	T,200000,0,XX,0,200000,0,0,0,ZZ,0,0,0^
  2417						DMOVE	AC,[200000,,0
  2418	032173	120 04 0 00 043551 			XX,,0]
  2419						DFAD	AC,[200000,,0
  2420	032174	110 04 0 00 043356 			0,,0]
  2421	032175	312 04 0 00 043553 		CAME	AC,[ZZ,,0]
  2422	032176	003 04 0 00 000352 		ER3	AC,T
  2423	032177	312 05 0 00 043354 		CAME	AC+1,[0,,0]
  2424	032200	004 05 0 00 000352 		ER4	AC+1,T
  2425	032201	321 10 0 00 032173 		JUMPL	AC+4,.-^D6	;LOOP ON ERROR SWITCH^
  2426
  2427
  2428
  2429			000353		T=T+1
  2430			000004			XX=XX/2
  2431			127400			ZZ=ZZ-1000
  2432						DFARP	T,200000,0,XX,0,200000,0,0,0,ZZ,0,0,0^
  2433						DMOVE	AC,[200000,,0
  2434	032202	120 04 0 00 043554 			XX,,0]
  2435						DFAD	AC,[200000,,0
  2436	032203	110 04 0 00 043356 			0,,0]
  2437	032204	312 04 0 00 043556 		CAME	AC,[ZZ,,0]
  2438	032205	003 04 0 00 000353 		ER3	AC,T
  2439	032206	312 05 0 00 043354 		CAME	AC+1,[0,,0]
  2440	032207	004 05 0 00 000353 		ER4	AC+1,T
  2441	032210	321 10 0 00 032202 		JUMPL	AC+4,.-^D6	;LOOP ON ERROR SWITCH^
  2442
  2443
  2444
  2445			000354		T=T+1
  2446			000002			XX=XX/2
  2447			126400			ZZ=ZZ-1000
  2448						DFARP	T,200000,0,XX,0,200000,0,0,0,ZZ,0,0,0^
  2449						DMOVE	AC,[200000,,0
  2450	032211	120 04 0 00 043557 			XX,,0]
  2451						DFAD	AC,[200000,,0
  2452	032212	110 04 0 00 043356 			0,,0]
  2453	032213	312 04 0 00 043561 		CAME	AC,[ZZ,,0]
  2454	032214	003 04 0 00 000354 		ER3	AC,T
  2455	032215	312 05 0 00 043354 		CAME	AC+1,[0,,0]
  2456	032216	004 05 0 00 000354 		ER4	AC+1,T
  2457	032217	321 10 0 00 032211 		JUMPL	AC+4,.-^D6	;LOOP ON ERROR SWITCH^
  2458
  2459
  2460
  2461			000355		T=T+1
  2462			000001			XX=XX/2
  2463			125400			ZZ=ZZ-1000
  2464						DFARP	T,200000,0,XX,0,200000,0,0,0,ZZ,0,0,0^
  2465						DMOVE	AC,[200000,,0
  2466	032220	120 04 0 00 043562 			XX,,0]
  2467						DFAD	AC,[200000,,0
  2468	032221	110 04 0 00 043356 			0,,0]DBKCD 	PDP-10 KI10 ADVANCED INSTRUCTION DIAGNOSTIC #4, VERSION 0,3 	MACRO %52(462) 12:35  9-AUG-76 PAGE 3-13
DBKCDM	MAC	26-MAY-76 16:52		TEST AR, ARX, AD, ADX AND NORMALIZE LOGIC FOR DOUBLE FLOATING POINT OPERATIONS     SEQ 0062

  2469	032222	312 04 0 00 043564 		CAME	AC,[ZZ,,0]
  2470	032223	003 04 0 00 000355 		ER3	AC,T
  2471	032224	312 05 0 00 043354 		CAME	AC+1,[0,,0]
  2472	032225	004 05 0 00 000355 		ER4	AC+1,T
  2473	032226	321 10 0 00 032220 		JUMPL	AC+4,.-^D6	;LOOP ON ERROR SWITCH^
  2474
  2475
  2476
  2477		000001	000000			XX=1000000
  2478
  2479
  2480						REPEAT	^D18,<
  2481					T=T+1
  2482						XX=XX/2
  2483						ZZ=ZZ-1000
  2484						DFARP	T,200000,0,0,XX,200000,0,0,0,ZZ,0,0,0
  2485					>
  2486
  2487			000356		T=T+1
  2488			400000			XX=XX/2
  2489			124400			ZZ=ZZ-1000
  2490						DFARP	T,200000,0,0,XX,200000,0,0,0,ZZ,0,0,0^
  2491						DMOVE	AC,[200000,,0
  2492	032227	120 04 0 00 043565 			0,,XX]
  2493						DFAD	AC,[200000,,0
  2494	032230	110 04 0 00 043356 			0,,0]
  2495	032231	312 04 0 00 043567 		CAME	AC,[ZZ,,0]
  2496	032232	003 04 0 00 000356 		ER3	AC,T
  2497	032233	312 05 0 00 043354 		CAME	AC+1,[0,,0]
  2498	032234	004 05 0 00 000356 		ER4	AC+1,T
  2499	032235	321 10 0 00 032227 		JUMPL	AC+4,.-^D6	;LOOP ON ERROR SWITCH^
  2500
  2501
  2502			000357		T=T+1
  2503			200000			XX=XX/2
  2504			123400			ZZ=ZZ-1000
  2505						DFARP	T,200000,0,0,XX,200000,0,0,0,ZZ,0,0,0^
  2506						DMOVE	AC,[200000,,0
  2507	032236	120 04 0 00 043570 			0,,XX]
  2508						DFAD	AC,[200000,,0
  2509	032237	110 04 0 00 043356 			0,,0]
  2510	032240	312 04 0 00 043572 		CAME	AC,[ZZ,,0]
  2511	032241	003 04 0 00 000357 		ER3	AC,T
  2512	032242	312 05 0 00 043354 		CAME	AC+1,[0,,0]
  2513	032243	004 05 0 00 000357 		ER4	AC+1,T
  2514	032244	321 10 0 00 032236 		JUMPL	AC+4,.-^D6	;LOOP ON ERROR SWITCH^
  2515
  2516
  2517			000360		T=T+1
  2518			100000			XX=XX/2
  2519			122400			ZZ=ZZ-1000
  2520						DFARP	T,200000,0,0,XX,200000,0,0,0,ZZ,0,0,0^
  2521						DMOVE	AC,[200000,,0
  2522	032245	120 04 0 00 043573 			0,,XX]
  2523						DFAD	AC,[200000,,0DBKCD 	PDP-10 KI10 ADVANCED INSTRUCTION DIAGNOSTIC #4, VERSION 0,3 	MACRO %52(462) 12:35  9-AUG-76 PAGE 3-14
DBKCDM	MAC	26-MAY-76 16:52		TEST AR, ARX, AD, ADX AND NORMALIZE LOGIC FOR DOUBLE FLOATING POINT OPERATIONS     SEQ 0063

  2524	032246	110 04 0 00 043356 			0,,0]
  2525	032247	312 04 0 00 043575 		CAME	AC,[ZZ,,0]
  2526	032250	003 04 0 00 000360 		ER3	AC,T
  2527	032251	312 05 0 00 043354 		CAME	AC+1,[0,,0]
  2528	032252	004 05 0 00 000360 		ER4	AC+1,T
  2529	032253	321 10 0 00 032245 		JUMPL	AC+4,.-^D6	;LOOP ON ERROR SWITCH^
  2530
  2531
  2532			000361		T=T+1
  2533			040000			XX=XX/2
  2534			121400			ZZ=ZZ-1000
  2535						DFARP	T,200000,0,0,XX,200000,0,0,0,ZZ,0,0,0^
  2536						DMOVE	AC,[200000,,0
  2537	032254	120 04 0 00 043576 			0,,XX]
  2538						DFAD	AC,[200000,,0
  2539	032255	110 04 0 00 043356 			0,,0]
  2540	032256	312 04 0 00 043600 		CAME	AC,[ZZ,,0]
  2541	032257	003 04 0 00 000361 		ER3	AC,T
  2542	032260	312 05 0 00 043354 		CAME	AC+1,[0,,0]
  2543	032261	004 05 0 00 000361 		ER4	AC+1,T
  2544	032262	321 10 0 00 032254 		JUMPL	AC+4,.-^D6	;LOOP ON ERROR SWITCH^
  2545
  2546
  2547			000362		T=T+1
  2548			020000			XX=XX/2
  2549			120400			ZZ=ZZ-1000
  2550						DFARP	T,200000,0,0,XX,200000,0,0,0,ZZ,0,0,0^
  2551						DMOVE	AC,[200000,,0
  2552	032263	120 04 0 00 043601 			0,,XX]
  2553						DFAD	AC,[200000,,0
  2554	032264	110 04 0 00 043356 			0,,0]
  2555	032265	312 04 0 00 043603 		CAME	AC,[ZZ,,0]
  2556	032266	003 04 0 00 000362 		ER3	AC,T
  2557	032267	312 05 0 00 043354 		CAME	AC+1,[0,,0]
  2558	032270	004 05 0 00 000362 		ER4	AC+1,T
  2559	032271	321 10 0 00 032263 		JUMPL	AC+4,.-^D6	;LOOP ON ERROR SWITCH^
  2560
  2561
  2562			000363		T=T+1
  2563			010000			XX=XX/2
  2564			117400			ZZ=ZZ-1000
  2565						DFARP	T,200000,0,0,XX,200000,0,0,0,ZZ,0,0,0^
  2566						DMOVE	AC,[200000,,0
  2567	032272	120 04 0 00 043604 			0,,XX]
  2568						DFAD	AC,[200000,,0
  2569	032273	110 04 0 00 043356 			0,,0]
  2570	032274	312 04 0 00 043606 		CAME	AC,[ZZ,,0]
  2571	032275	003 04 0 00 000363 		ER3	AC,T
  2572	032276	312 05 0 00 043354 		CAME	AC+1,[0,,0]
  2573	032277	004 05 0 00 000363 		ER4	AC+1,T
  2574	032300	321 10 0 00 032272 		JUMPL	AC+4,.-^D6	;LOOP ON ERROR SWITCH^
  2575
  2576
  2577			000364		T=T+1
  2578			004000			XX=XX/2DBKCD 	PDP-10 KI10 ADVANCED INSTRUCTION DIAGNOSTIC #4, VERSION 0,3 	MACRO %52(462) 12:35  9-AUG-76 PAGE 3-15
DBKCDM	MAC	26-MAY-76 16:52		TEST AR, ARX, AD, ADX AND NORMALIZE LOGIC FOR DOUBLE FLOATING POINT OPERATIONS     SEQ 0064

  2579			116400			ZZ=ZZ-1000
  2580						DFARP	T,200000,0,0,XX,200000,0,0,0,ZZ,0,0,0^
  2581						DMOVE	AC,[200000,,0
  2582	032301	120 04 0 00 043607 			0,,XX]
  2583						DFAD	AC,[200000,,0
  2584	032302	110 04 0 00 043356 			0,,0]
  2585	032303	312 04 0 00 043611 		CAME	AC,[ZZ,,0]
  2586	032304	003 04 0 00 000364 		ER3	AC,T
  2587	032305	312 05 0 00 043354 		CAME	AC+1,[0,,0]
  2588	032306	004 05 0 00 000364 		ER4	AC+1,T
  2589	032307	321 10 0 00 032301 		JUMPL	AC+4,.-^D6	;LOOP ON ERROR SWITCH^
  2590
  2591
  2592			000365		T=T+1
  2593			002000			XX=XX/2
  2594			115400			ZZ=ZZ-1000
  2595						DFARP	T,200000,0,0,XX,200000,0,0,0,ZZ,0,0,0^
  2596						DMOVE	AC,[200000,,0
  2597	032310	120 04 0 00 043612 			0,,XX]
  2598						DFAD	AC,[200000,,0
  2599	032311	110 04 0 00 043356 			0,,0]
  2600	032312	312 04 0 00 043614 		CAME	AC,[ZZ,,0]
  2601	032313	003 04 0 00 000365 		ER3	AC,T
  2602	032314	312 05 0 00 043354 		CAME	AC+1,[0,,0]
  2603	032315	004 05 0 00 000365 		ER4	AC+1,T
  2604	032316	321 10 0 00 032310 		JUMPL	AC+4,.-^D6	;LOOP ON ERROR SWITCH^
  2605
  2606
  2607			000366		T=T+1
  2608			001000			XX=XX/2
  2609			114400			ZZ=ZZ-1000
  2610						DFARP	T,200000,0,0,XX,200000,0,0,0,ZZ,0,0,0^
  2611						DMOVE	AC,[200000,,0
  2612	032317	120 04 0 00 043615 			0,,XX]
  2613						DFAD	AC,[200000,,0
  2614	032320	110 04 0 00 043356 			0,,0]
  2615	032321	312 04 0 00 043617 		CAME	AC,[ZZ,,0]
  2616	032322	003 04 0 00 000366 		ER3	AC,T
  2617	032323	312 05 0 00 043354 		CAME	AC+1,[0,,0]
  2618	032324	004 05 0 00 000366 		ER4	AC+1,T
  2619	032325	321 10 0 00 032317 		JUMPL	AC+4,.-^D6	;LOOP ON ERROR SWITCH^
  2620
  2621
  2622			000367		T=T+1
  2623			000400			XX=XX/2
  2624			113400			ZZ=ZZ-1000
  2625						DFARP	T,200000,0,0,XX,200000,0,0,0,ZZ,0,0,0^
  2626						DMOVE	AC,[200000,,0
  2627	032326	120 04 0 00 043620 			0,,XX]
  2628						DFAD	AC,[200000,,0
  2629	032327	110 04 0 00 043356 			0,,0]
  2630	032330	312 04 0 00 043622 		CAME	AC,[ZZ,,0]
  2631	032331	003 04 0 00 000367 		ER3	AC,T
  2632	032332	312 05 0 00 043354 		CAME	AC+1,[0,,0]
  2633	032333	004 05 0 00 000367 		ER4	AC+1,TDBKCD 	PDP-10 KI10 ADVANCED INSTRUCTION DIAGNOSTIC #4, VERSION 0,3 	MACRO %52(462) 12:35  9-AUG-76 PAGE 3-16
DBKCDM	MAC	26-MAY-76 16:52		TEST AR, ARX, AD, ADX AND NORMALIZE LOGIC FOR DOUBLE FLOATING POINT OPERATIONS     SEQ 0065

  2634	032334	321 10 0 00 032326 		JUMPL	AC+4,.-^D6	;LOOP ON ERROR SWITCH^
  2635
  2636
  2637			000370		T=T+1
  2638			000200			XX=XX/2
  2639			112400			ZZ=ZZ-1000
  2640						DFARP	T,200000,0,0,XX,200000,0,0,0,ZZ,0,0,0^
  2641						DMOVE	AC,[200000,,0
  2642	032335	120 04 0 00 043623 			0,,XX]
  2643						DFAD	AC,[200000,,0
  2644	032336	110 04 0 00 043356 			0,,0]
  2645	032337	312 04 0 00 043625 		CAME	AC,[ZZ,,0]
  2646	032340	003 04 0 00 000370 		ER3	AC,T
  2647	032341	312 05 0 00 043354 		CAME	AC+1,[0,,0]
  2648	032342	004 05 0 00 000370 		ER4	AC+1,T
  2649	032343	321 10 0 00 032335 		JUMPL	AC+4,.-^D6	;LOOP ON ERROR SWITCH^
  2650
  2651
  2652			000371		T=T+1
  2653			000100			XX=XX/2
  2654			111400			ZZ=ZZ-1000
  2655						DFARP	T,200000,0,0,XX,200000,0,0,0,ZZ,0,0,0^
  2656						DMOVE	AC,[200000,,0
  2657	032344	120 04 0 00 043626 			0,,XX]
  2658						DFAD	AC,[200000,,0
  2659	032345	110 04 0 00 043356 			0,,0]
  2660	032346	312 04 0 00 043630 		CAME	AC,[ZZ,,0]
  2661	032347	003 04 0 00 000371 		ER3	AC,T
  2662	032350	312 05 0 00 043354 		CAME	AC+1,[0,,0]
  2663	032351	004 05 0 00 000371 		ER4	AC+1,T
  2664	032352	321 10 0 00 032344 		JUMPL	AC+4,.-^D6	;LOOP ON ERROR SWITCH^
  2665
  2666
  2667			000372		T=T+1
  2668			000040			XX=XX/2
  2669			110400			ZZ=ZZ-1000
  2670						DFARP	T,200000,0,0,XX,200000,0,0,0,ZZ,0,0,0^
  2671						DMOVE	AC,[200000,,0
  2672	032353	120 04 0 00 043631 			0,,XX]
  2673						DFAD	AC,[200000,,0
  2674	032354	110 04 0 00 043356 			0,,0]
  2675	032355	312 04 0 00 043633 		CAME	AC,[ZZ,,0]
  2676	032356	003 04 0 00 000372 		ER3	AC,T
  2677	032357	312 05 0 00 043354 		CAME	AC+1,[0,,0]
  2678	032360	004 05 0 00 000372 		ER4	AC+1,T
  2679	032361	321 10 0 00 032353 		JUMPL	AC+4,.-^D6	;LOOP ON ERROR SWITCH^
  2680
  2681
  2682			000373		T=T+1
  2683			000020			XX=XX/2
  2684			107400			ZZ=ZZ-1000
  2685						DFARP	T,200000,0,0,XX,200000,0,0,0,ZZ,0,0,0^
  2686						DMOVE	AC,[200000,,0
  2687	032362	120 04 0 00 043634 			0,,XX]
  2688						DFAD	AC,[200000,,0DBKCD 	PDP-10 KI10 ADVANCED INSTRUCTION DIAGNOSTIC #4, VERSION 0,3 	MACRO %52(462) 12:35  9-AUG-76 PAGE 3-17
DBKCDM	MAC	26-MAY-76 16:52		TEST AR, ARX, AD, ADX AND NORMALIZE LOGIC FOR DOUBLE FLOATING POINT OPERATIONS     SEQ 0066

  2689	032363	110 04 0 00 043356 			0,,0]
  2690	032364	312 04 0 00 043636 		CAME	AC,[ZZ,,0]
  2691	032365	003 04 0 00 000373 		ER3	AC,T
  2692	032366	312 05 0 00 043354 		CAME	AC+1,[0,,0]
  2693	032367	004 05 0 00 000373 		ER4	AC+1,T
  2694	032370	321 10 0 00 032362 		JUMPL	AC+4,.-^D6	;LOOP ON ERROR SWITCH^
  2695
  2696
  2697			000374		T=T+1
  2698			000010			XX=XX/2
  2699			106400			ZZ=ZZ-1000
  2700						DFARP	T,200000,0,0,XX,200000,0,0,0,ZZ,0,0,0^
  2701						DMOVE	AC,[200000,,0
  2702	032371	120 04 0 00 043637 			0,,XX]
  2703						DFAD	AC,[200000,,0
  2704	032372	110 04 0 00 043356 			0,,0]
  2705	032373	312 04 0 00 043641 		CAME	AC,[ZZ,,0]
  2706	032374	003 04 0 00 000374 		ER3	AC,T
  2707	032375	312 05 0 00 043354 		CAME	AC+1,[0,,0]
  2708	032376	004 05 0 00 000374 		ER4	AC+1,T
  2709	032377	321 10 0 00 032371 		JUMPL	AC+4,.-^D6	;LOOP ON ERROR SWITCH^
  2710
  2711
  2712			000375		T=T+1
  2713			000004			XX=XX/2
  2714			105400			ZZ=ZZ-1000
  2715						DFARP	T,200000,0,0,XX,200000,0,0,0,ZZ,0,0,0^
  2716						DMOVE	AC,[200000,,0
  2717	032400	120 04 0 00 043642 			0,,XX]
  2718						DFAD	AC,[200000,,0
  2719	032401	110 04 0 00 043356 			0,,0]
  2720	032402	312 04 0 00 043644 		CAME	AC,[ZZ,,0]
  2721	032403	003 04 0 00 000375 		ER3	AC,T
  2722	032404	312 05 0 00 043354 		CAME	AC+1,[0,,0]
  2723	032405	004 05 0 00 000375 		ER4	AC+1,T
  2724	032406	321 10 0 00 032400 		JUMPL	AC+4,.-^D6	;LOOP ON ERROR SWITCH^
  2725
  2726
  2727			000376		T=T+1
  2728			000002			XX=XX/2
  2729			104400			ZZ=ZZ-1000
  2730						DFARP	T,200000,0,0,XX,200000,0,0,0,ZZ,0,0,0^
  2731						DMOVE	AC,[200000,,0
  2732	032407	120 04 0 00 043645 			0,,XX]
  2733						DFAD	AC,[200000,,0
  2734	032410	110 04 0 00 043356 			0,,0]
  2735	032411	312 04 0 00 043647 		CAME	AC,[ZZ,,0]
  2736	032412	003 04 0 00 000376 		ER3	AC,T
  2737	032413	312 05 0 00 043354 		CAME	AC+1,[0,,0]
  2738	032414	004 05 0 00 000376 		ER4	AC+1,T
  2739	032415	321 10 0 00 032407 		JUMPL	AC+4,.-^D6	;LOOP ON ERROR SWITCH^
  2740
  2741
  2742			000377		T=T+1
  2743			000001			XX=XX/2DBKCD 	PDP-10 KI10 ADVANCED INSTRUCTION DIAGNOSTIC #4, VERSION 0,3 	MACRO %52(462) 12:35  9-AUG-76 PAGE 3-18
DBKCDM	MAC	26-MAY-76 16:52		TEST AR, ARX, AD, ADX AND NORMALIZE LOGIC FOR DOUBLE FLOATING POINT OPERATIONS     SEQ 0067

  2744			103400			ZZ=ZZ-1000
  2745						DFARP	T,200000,0,0,XX,200000,0,0,0,ZZ,0,0,0^
  2746						DMOVE	AC,[200000,,0
  2747	032416	120 04 0 00 043650 			0,,XX]
  2748						DFAD	AC,[200000,,0
  2749	032417	110 04 0 00 043356 			0,,0]
  2750	032420	312 04 0 00 043652 		CAME	AC,[ZZ,,0]
  2751	032421	003 04 0 00 000377 		ER3	AC,T
  2752	032422	312 05 0 00 043354 		CAME	AC+1,[0,,0]
  2753	032423	004 05 0 00 000377 		ER4	AC+1,T
  2754	032424	321 10 0 00 032416 		JUMPL	AC+4,.-^D6	;LOOP ON ERROR SWITCH^
  2755DBKCD 	PDP-10 KI10 ADVANCED INSTRUCTION DIAGNOSTIC #4, VERSION 0,3 	MACRO %52(462) 12:35  9-AUG-76 PAGE 4
DBKCDM	MAC	26-MAY-76 16:52		TEST AR, ARX, AD, ADX AND NORMALIZE LOGIC FOR DOUBLE FLOATING POINT OPERATIONS     SEQ 0068

  2756
  2757					;ADD A FRACTION OF ALL ONES TO A FRACTION OF ALL ZEROS
  2758
  2759						DFA	4,0,0,0,0,777,-1,-1,-1,777,-1,377777,-1^
  2760					R400:	DMOVE	AC,[0,,0
  2761	032425	120 04 0 00 043354 			0,,0]
  2762						DFAD	AC,[777,,-1
  2763	032426	110 04 0 00 043653 			-1,,-1]
  2764	032427	312 04 0 00 043653 		CAME	AC,[777,,-1]
  2765	032430	003 04 0 00 000401 		ER3	AC,401
  2766	032431	312 05 0 00 043655 		CAME	AC+1,[377777,,-1]
  2767	032432	004 05 0 00 000401 		ER4	AC+1,401
  2768	032433	321 10 0 00 032425 		JUMPL	AC+4,R400	;LOOP ON ERROR SWITCH^
  2769
  2770					;ADD A FRACTION OF ALL ZEROS TO A FRACTION OF ALL ONES
  2771
  2772						DFA	5,777,-1,-1,-1,0,0,0,0,777,-1,377777,-1^
  2773					R500:	DMOVE	AC,[777,,-1
  2774	032434	120 04 0 00 043653 			-1,,-1]
  2775						DFAD	AC,[0,,0
  2776	032435	110 04 0 00 043354 			0,,0]
  2777	032436	312 04 0 00 043653 		CAME	AC,[777,,-1]
  2778	032437	003 04 0 00 000501 		ER3	AC,501
  2779	032440	312 05 0 00 043655 		CAME	AC+1,[377777,,-1]
  2780	032441	004 05 0 00 000501 		ER4	AC+1,501
  2781	032442	321 10 0 00 032434 		JUMPL	AC+4,R500	;LOOP ON ERROR SWITCH^
  2782					PAGEDBKCD 	PDP-10 KI10 ADVANCED INSTRUCTION DIAGNOSTIC #4, VERSION 0,3 	MACRO %52(462) 12:35  9-AUG-76 PAGE 4-1
DBKCDM	MAC	26-MAY-76 16:52		TEST AR, ARX, AD, ADX AND NORMALIZE LOGIC FOR DOUBLE FLOATING POINT OPERATIONS     SEQ 0069

  2783					;RIPPLE ZEROS TESTS (TO A FRACTION OF ALL ZEROS, ADD A RIPPLED ZERO)
  2784
  2785			000600		T=600
  2786			000000			ZZ=0
  2787
  2788
  2789					R600:	REPEAT	^D18,<
  2790					T=T+1
  2791						ZZ=ZZ+ZZ+1
  2792						IFE	<ZZ-1>,<ZZ=-2>
  2793						DFARP	T,0,0,0,0,777,-1,-1,ZZ,777,-1,377777,ZZ
  2794					>
  2795
  2796			000601		T=T+1
  2797			000001			ZZ=ZZ+ZZ+1
  2798		777777	777776			IFE	<ZZ-1>,<ZZ=-2>
  2799						DFARP	T,0,0,0,0,777,-1,-1,ZZ,777,-1,377777,ZZ^
  2800						DMOVE	AC,[0,,0
  2801	032443	120 04 0 00 043354 			0,,0]
  2802						DFAD	AC,[777,,-1
  2803	032444	110 04 0 00 043656 			-1,,ZZ]
  2804	032445	312 04 0 00 043653 		CAME	AC,[777,,-1]
  2805	032446	003 04 0 00 000601 		ER3	AC,T
  2806	032447	312 05 0 00 043660 		CAME	AC+1,[377777,,ZZ]
  2807	032450	004 05 0 00 000601 		ER4	AC+1,T
  2808	032451	321 10 0 00 032443 		JUMPL	AC+4,.-^D6	;LOOP ON ERROR SWITCH^
  2809
  2810
  2811			000602		T=T+1
  2812		777777	777775			ZZ=ZZ+ZZ+1
  2813						IFE	<ZZ-1>,<ZZ=-2>
  2814						DFARP	T,0,0,0,0,777,-1,-1,ZZ,777,-1,377777,ZZ^
  2815						DMOVE	AC,[0,,0
  2816	032452	120 04 0 00 043354 			0,,0]
  2817						DFAD	AC,[777,,-1
  2818	032453	110 04 0 00 043661 			-1,,ZZ]
  2819	032454	312 04 0 00 043653 		CAME	AC,[777,,-1]
  2820	032455	003 04 0 00 000602 		ER3	AC,T
  2821	032456	312 05 0 00 043663 		CAME	AC+1,[377777,,ZZ]
  2822	032457	004 05 0 00 000602 		ER4	AC+1,T
  2823	032460	321 10 0 00 032452 		JUMPL	AC+4,.-^D6	;LOOP ON ERROR SWITCH^
  2824
  2825
  2826			000603		T=T+1
  2827		777777	777773			ZZ=ZZ+ZZ+1
  2828						IFE	<ZZ-1>,<ZZ=-2>
  2829						DFARP	T,0,0,0,0,777,-1,-1,ZZ,777,-1,377777,ZZ^
  2830						DMOVE	AC,[0,,0
  2831	032461	120 04 0 00 043354 			0,,0]
  2832						DFAD	AC,[777,,-1
  2833	032462	110 04 0 00 043664 			-1,,ZZ]
  2834	032463	312 04 0 00 043653 		CAME	AC,[777,,-1]
  2835	032464	003 04 0 00 000603 		ER3	AC,T
  2836	032465	312 05 0 00 043666 		CAME	AC+1,[377777,,ZZ]
  2837	032466	004 05 0 00 000603 		ER4	AC+1,TDBKCD 	PDP-10 KI10 ADVANCED INSTRUCTION DIAGNOSTIC #4, VERSION 0,3 	MACRO %52(462) 12:35  9-AUG-76 PAGE 4-2
DBKCDM	MAC	26-MAY-76 16:52		TEST AR, ARX, AD, ADX AND NORMALIZE LOGIC FOR DOUBLE FLOATING POINT OPERATIONS     SEQ 0070

  2838	032467	321 10 0 00 032461 		JUMPL	AC+4,.-^D6	;LOOP ON ERROR SWITCH^
  2839
  2840
  2841			000604		T=T+1
  2842		777777	777767			ZZ=ZZ+ZZ+1
  2843						IFE	<ZZ-1>,<ZZ=-2>
  2844						DFARP	T,0,0,0,0,777,-1,-1,ZZ,777,-1,377777,ZZ^
  2845						DMOVE	AC,[0,,0
  2846	032470	120 04 0 00 043354 			0,,0]
  2847						DFAD	AC,[777,,-1
  2848	032471	110 04 0 00 043667 			-1,,ZZ]
  2849	032472	312 04 0 00 043653 		CAME	AC,[777,,-1]
  2850	032473	003 04 0 00 000604 		ER3	AC,T
  2851	032474	312 05 0 00 043671 		CAME	AC+1,[377777,,ZZ]
  2852	032475	004 05 0 00 000604 		ER4	AC+1,T
  2853	032476	321 10 0 00 032470 		JUMPL	AC+4,.-^D6	;LOOP ON ERROR SWITCH^
  2854
  2855
  2856			000605		T=T+1
  2857		777777	777757			ZZ=ZZ+ZZ+1
  2858						IFE	<ZZ-1>,<ZZ=-2>
  2859						DFARP	T,0,0,0,0,777,-1,-1,ZZ,777,-1,377777,ZZ^
  2860						DMOVE	AC,[0,,0
  2861	032477	120 04 0 00 043354 			0,,0]
  2862						DFAD	AC,[777,,-1
  2863	032500	110 04 0 00 043672 			-1,,ZZ]
  2864	032501	312 04 0 00 043653 		CAME	AC,[777,,-1]
  2865	032502	003 04 0 00 000605 		ER3	AC,T
  2866	032503	312 05 0 00 043674 		CAME	AC+1,[377777,,ZZ]
  2867	032504	004 05 0 00 000605 		ER4	AC+1,T
  2868	032505	321 10 0 00 032477 		JUMPL	AC+4,.-^D6	;LOOP ON ERROR SWITCH^
  2869
  2870
  2871			000606		T=T+1
  2872		777777	777737			ZZ=ZZ+ZZ+1
  2873						IFE	<ZZ-1>,<ZZ=-2>
  2874						DFARP	T,0,0,0,0,777,-1,-1,ZZ,777,-1,377777,ZZ^
  2875						DMOVE	AC,[0,,0
  2876	032506	120 04 0 00 043354 			0,,0]
  2877						DFAD	AC,[777,,-1
  2878	032507	110 04 0 00 043675 			-1,,ZZ]
  2879	032510	312 04 0 00 043653 		CAME	AC,[777,,-1]
  2880	032511	003 04 0 00 000606 		ER3	AC,T
  2881	032512	312 05 0 00 043677 		CAME	AC+1,[377777,,ZZ]
  2882	032513	004 05 0 00 000606 		ER4	AC+1,T
  2883	032514	321 10 0 00 032506 		JUMPL	AC+4,.-^D6	;LOOP ON ERROR SWITCH^
  2884
  2885
  2886			000607		T=T+1
  2887		777777	777677			ZZ=ZZ+ZZ+1
  2888						IFE	<ZZ-1>,<ZZ=-2>
  2889						DFARP	T,0,0,0,0,777,-1,-1,ZZ,777,-1,377777,ZZ^
  2890						DMOVE	AC,[0,,0
  2891	032515	120 04 0 00 043354 			0,,0]
  2892						DFAD	AC,[777,,-1DBKCD 	PDP-10 KI10 ADVANCED INSTRUCTION DIAGNOSTIC #4, VERSION 0,3 	MACRO %52(462) 12:35  9-AUG-76 PAGE 4-3
DBKCDM	MAC	26-MAY-76 16:52		TEST AR, ARX, AD, ADX AND NORMALIZE LOGIC FOR DOUBLE FLOATING POINT OPERATIONS     SEQ 0071

  2893	032516	110 04 0 00 043700 			-1,,ZZ]
  2894	032517	312 04 0 00 043653 		CAME	AC,[777,,-1]
  2895	032520	003 04 0 00 000607 		ER3	AC,T
  2896	032521	312 05 0 00 043702 		CAME	AC+1,[377777,,ZZ]
  2897	032522	004 05 0 00 000607 		ER4	AC+1,T
  2898	032523	321 10 0 00 032515 		JUMPL	AC+4,.-^D6	;LOOP ON ERROR SWITCH^
  2899
  2900
  2901			000610		T=T+1
  2902		777777	777577			ZZ=ZZ+ZZ+1
  2903						IFE	<ZZ-1>,<ZZ=-2>
  2904						DFARP	T,0,0,0,0,777,-1,-1,ZZ,777,-1,377777,ZZ^
  2905						DMOVE	AC,[0,,0
  2906	032524	120 04 0 00 043354 			0,,0]
  2907						DFAD	AC,[777,,-1
  2908	032525	110 04 0 00 043703 			-1,,ZZ]
  2909	032526	312 04 0 00 043653 		CAME	AC,[777,,-1]
  2910	032527	003 04 0 00 000610 		ER3	AC,T
  2911	032530	312 05 0 00 043705 		CAME	AC+1,[377777,,ZZ]
  2912	032531	004 05 0 00 000610 		ER4	AC+1,T
  2913	032532	321 10 0 00 032524 		JUMPL	AC+4,.-^D6	;LOOP ON ERROR SWITCH^
  2914
  2915
  2916			000611		T=T+1
  2917		777777	777377			ZZ=ZZ+ZZ+1
  2918						IFE	<ZZ-1>,<ZZ=-2>
  2919						DFARP	T,0,0,0,0,777,-1,-1,ZZ,777,-1,377777,ZZ^
  2920						DMOVE	AC,[0,,0
  2921	032533	120 04 0 00 043354 			0,,0]
  2922						DFAD	AC,[777,,-1
  2923	032534	110 04 0 00 043706 			-1,,ZZ]
  2924	032535	312 04 0 00 043653 		CAME	AC,[777,,-1]
  2925	032536	003 04 0 00 000611 		ER3	AC,T
  2926	032537	312 05 0 00 043710 		CAME	AC+1,[377777,,ZZ]
  2927	032540	004 05 0 00 000611 		ER4	AC+1,T
  2928	032541	321 10 0 00 032533 		JUMPL	AC+4,.-^D6	;LOOP ON ERROR SWITCH^
  2929
  2930
  2931			000612		T=T+1
  2932		777777	776777			ZZ=ZZ+ZZ+1
  2933						IFE	<ZZ-1>,<ZZ=-2>
  2934						DFARP	T,0,0,0,0,777,-1,-1,ZZ,777,-1,377777,ZZ^
  2935						DMOVE	AC,[0,,0
  2936	032542	120 04 0 00 043354 			0,,0]
  2937						DFAD	AC,[777,,-1
  2938	032543	110 04 0 00 043711 			-1,,ZZ]
  2939	032544	312 04 0 00 043653 		CAME	AC,[777,,-1]
  2940	032545	003 04 0 00 000612 		ER3	AC,T
  2941	032546	312 05 0 00 043713 		CAME	AC+1,[377777,,ZZ]
  2942	032547	004 05 0 00 000612 		ER4	AC+1,T
  2943	032550	321 10 0 00 032542 		JUMPL	AC+4,.-^D6	;LOOP ON ERROR SWITCH^
  2944
  2945
  2946			000613		T=T+1
  2947		777777	775777			ZZ=ZZ+ZZ+1DBKCD 	PDP-10 KI10 ADVANCED INSTRUCTION DIAGNOSTIC #4, VERSION 0,3 	MACRO %52(462) 12:35  9-AUG-76 PAGE 4-4
DBKCDM	MAC	26-MAY-76 16:52		TEST AR, ARX, AD, ADX AND NORMALIZE LOGIC FOR DOUBLE FLOATING POINT OPERATIONS     SEQ 0072

  2948						IFE	<ZZ-1>,<ZZ=-2>
  2949						DFARP	T,0,0,0,0,777,-1,-1,ZZ,777,-1,377777,ZZ^
  2950						DMOVE	AC,[0,,0
  2951	032551	120 04 0 00 043354 			0,,0]
  2952						DFAD	AC,[777,,-1
  2953	032552	110 04 0 00 043714 			-1,,ZZ]
  2954	032553	312 04 0 00 043653 		CAME	AC,[777,,-1]
  2955	032554	003 04 0 00 000613 		ER3	AC,T
  2956	032555	312 05 0 00 043716 		CAME	AC+1,[377777,,ZZ]
  2957	032556	004 05 0 00 000613 		ER4	AC+1,T
  2958	032557	321 10 0 00 032551 		JUMPL	AC+4,.-^D6	;LOOP ON ERROR SWITCH^
  2959
  2960
  2961			000614		T=T+1
  2962		777777	773777			ZZ=ZZ+ZZ+1
  2963						IFE	<ZZ-1>,<ZZ=-2>
  2964						DFARP	T,0,0,0,0,777,-1,-1,ZZ,777,-1,377777,ZZ^
  2965						DMOVE	AC,[0,,0
  2966	032560	120 04 0 00 043354 			0,,0]
  2967						DFAD	AC,[777,,-1
  2968	032561	110 04 0 00 043717 			-1,,ZZ]
  2969	032562	312 04 0 00 043653 		CAME	AC,[777,,-1]
  2970	032563	003 04 0 00 000614 		ER3	AC,T
  2971	032564	312 05 0 00 043721 		CAME	AC+1,[377777,,ZZ]
  2972	032565	004 05 0 00 000614 		ER4	AC+1,T
  2973	032566	321 10 0 00 032560 		JUMPL	AC+4,.-^D6	;LOOP ON ERROR SWITCH^
  2974
  2975
  2976			000615		T=T+1
  2977		777777	767777			ZZ=ZZ+ZZ+1
  2978						IFE	<ZZ-1>,<ZZ=-2>
  2979						DFARP	T,0,0,0,0,777,-1,-1,ZZ,777,-1,377777,ZZ^
  2980						DMOVE	AC,[0,,0
  2981	032567	120 04 0 00 043354 			0,,0]
  2982						DFAD	AC,[777,,-1
  2983	032570	110 04 0 00 043722 			-1,,ZZ]
  2984	032571	312 04 0 00 043653 		CAME	AC,[777,,-1]
  2985	032572	003 04 0 00 000615 		ER3	AC,T
  2986	032573	312 05 0 00 043724 		CAME	AC+1,[377777,,ZZ]
  2987	032574	004 05 0 00 000615 		ER4	AC+1,T
  2988	032575	321 10 0 00 032567 		JUMPL	AC+4,.-^D6	;LOOP ON ERROR SWITCH^
  2989
  2990
  2991			000616		T=T+1
  2992		777777	757777			ZZ=ZZ+ZZ+1
  2993						IFE	<ZZ-1>,<ZZ=-2>
  2994						DFARP	T,0,0,0,0,777,-1,-1,ZZ,777,-1,377777,ZZ^
  2995						DMOVE	AC,[0,,0
  2996	032576	120 04 0 00 043354 			0,,0]
  2997						DFAD	AC,[777,,-1
  2998	032577	110 04 0 00 043725 			-1,,ZZ]
  2999	032600	312 04 0 00 043653 		CAME	AC,[777,,-1]
  3000	032601	003 04 0 00 000616 		ER3	AC,T
  3001	032602	312 05 0 00 043727 		CAME	AC+1,[377777,,ZZ]
  3002	032603	004 05 0 00 000616 		ER4	AC+1,TDBKCD 	PDP-10 KI10 ADVANCED INSTRUCTION DIAGNOSTIC #4, VERSION 0,3 	MACRO %52(462) 12:35  9-AUG-76 PAGE 4-5
DBKCDM	MAC	26-MAY-76 16:52		TEST AR, ARX, AD, ADX AND NORMALIZE LOGIC FOR DOUBLE FLOATING POINT OPERATIONS     SEQ 0073

  3003	032604	321 10 0 00 032576 		JUMPL	AC+4,.-^D6	;LOOP ON ERROR SWITCH^
  3004
  3005
  3006			000617		T=T+1
  3007		777777	737777			ZZ=ZZ+ZZ+1
  3008						IFE	<ZZ-1>,<ZZ=-2>
  3009						DFARP	T,0,0,0,0,777,-1,-1,ZZ,777,-1,377777,ZZ^
  3010						DMOVE	AC,[0,,0
  3011	032605	120 04 0 00 043354 			0,,0]
  3012						DFAD	AC,[777,,-1
  3013	032606	110 04 0 00 043730 			-1,,ZZ]
  3014	032607	312 04 0 00 043653 		CAME	AC,[777,,-1]
  3015	032610	003 04 0 00 000617 		ER3	AC,T
  3016	032611	312 05 0 00 043732 		CAME	AC+1,[377777,,ZZ]
  3017	032612	004 05 0 00 000617 		ER4	AC+1,T
  3018	032613	321 10 0 00 032605 		JUMPL	AC+4,.-^D6	;LOOP ON ERROR SWITCH^
  3019
  3020
  3021			000620		T=T+1
  3022		777777	677777			ZZ=ZZ+ZZ+1
  3023						IFE	<ZZ-1>,<ZZ=-2>
  3024						DFARP	T,0,0,0,0,777,-1,-1,ZZ,777,-1,377777,ZZ^
  3025						DMOVE	AC,[0,,0
  3026	032614	120 04 0 00 043354 			0,,0]
  3027						DFAD	AC,[777,,-1
  3028	032615	110 04 0 00 043733 			-1,,ZZ]
  3029	032616	312 04 0 00 043653 		CAME	AC,[777,,-1]
  3030	032617	003 04 0 00 000620 		ER3	AC,T
  3031	032620	312 05 0 00 043735 		CAME	AC+1,[377777,,ZZ]
  3032	032621	004 05 0 00 000620 		ER4	AC+1,T
  3033	032622	321 10 0 00 032614 		JUMPL	AC+4,.-^D6	;LOOP ON ERROR SWITCH^
  3034
  3035
  3036			000621		T=T+1
  3037		777777	577777			ZZ=ZZ+ZZ+1
  3038						IFE	<ZZ-1>,<ZZ=-2>
  3039						DFARP	T,0,0,0,0,777,-1,-1,ZZ,777,-1,377777,ZZ^
  3040						DMOVE	AC,[0,,0
  3041	032623	120 04 0 00 043354 			0,,0]
  3042						DFAD	AC,[777,,-1
  3043	032624	110 04 0 00 043736 			-1,,ZZ]
  3044	032625	312 04 0 00 043653 		CAME	AC,[777,,-1]
  3045	032626	003 04 0 00 000621 		ER3	AC,T
  3046	032627	312 05 0 00 043740 		CAME	AC+1,[377777,,ZZ]
  3047	032630	004 05 0 00 000621 		ER4	AC+1,T
  3048	032631	321 10 0 00 032623 		JUMPL	AC+4,.-^D6	;LOOP ON ERROR SWITCH^
  3049
  3050
  3051			000622		T=T+1
  3052		777777	377777			ZZ=ZZ+ZZ+1
  3053						IFE	<ZZ-1>,<ZZ=-2>
  3054						DFARP	T,0,0,0,0,777,-1,-1,ZZ,777,-1,377777,ZZ^
  3055						DMOVE	AC,[0,,0
  3056	032632	120 04 0 00 043354 			0,,0]
  3057						DFAD	AC,[777,,-1DBKCD 	PDP-10 KI10 ADVANCED INSTRUCTION DIAGNOSTIC #4, VERSION 0,3 	MACRO %52(462) 12:35  9-AUG-76 PAGE 4-6
DBKCDM	MAC	26-MAY-76 16:52		TEST AR, ARX, AD, ADX AND NORMALIZE LOGIC FOR DOUBLE FLOATING POINT OPERATIONS     SEQ 0074

  3058	032633	110 04 0 00 043741 			-1,,ZZ]
  3059	032634	312 04 0 00 043653 		CAME	AC,[777,,-1]
  3060	032635	003 04 0 00 000622 		ER3	AC,T
  3061	032636	312 05 0 00 043743 		CAME	AC+1,[377777,,ZZ]
  3062	032637	004 05 0 00 000622 		ER4	AC+1,T
  3063	032640	321 10 0 00 032632 		JUMPL	AC+4,.-^D6	;LOOP ON ERROR SWITCH^
  3064
  3065
  3066			000000			ZZ=0
  3067
  3068
  3069						REPEAT	^D18,<
  3070					T=T+1
  3071						ZZ=ZZ+ZZ+1
  3072						IFE	<ZZ-1>,<ZZ=-2>
  3073						DFARP	T,0,0,0,0,777,-1,ZZ,-1,777,-1,ZZ&377777,-1
  3074					>
  3075
  3076			000623		T=T+1
  3077			000001			ZZ=ZZ+ZZ+1
  3078		777777	777776			IFE	<ZZ-1>,<ZZ=-2>
  3079						DFARP	T,0,0,0,0,777,-1,ZZ,-1,777,-1,ZZ&377777,-1^
  3080						DMOVE	AC,[0,,0
  3081	032641	120 04 0 00 043354 			0,,0]
  3082						DFAD	AC,[777,,-1
  3083	032642	110 04 0 00 043744 			ZZ,,-1]
  3084	032643	312 04 0 00 043653 		CAME	AC,[777,,-1]
  3085	032644	003 04 0 00 000623 		ER3	AC,T
  3086	032645	312 05 0 00 043746 		CAME	AC+1,[ZZ&377777,,-1]
  3087	032646	004 05 0 00 000623 		ER4	AC+1,T
  3088	032647	321 10 0 00 032641 		JUMPL	AC+4,.-^D6	;LOOP ON ERROR SWITCH^
  3089
  3090
  3091			000624		T=T+1
  3092		777777	777775			ZZ=ZZ+ZZ+1
  3093						IFE	<ZZ-1>,<ZZ=-2>
  3094						DFARP	T,0,0,0,0,777,-1,ZZ,-1,777,-1,ZZ&377777,-1^
  3095						DMOVE	AC,[0,,0
  3096	032650	120 04 0 00 043354 			0,,0]
  3097						DFAD	AC,[777,,-1
  3098	032651	110 04 0 00 043747 			ZZ,,-1]
  3099	032652	312 04 0 00 043653 		CAME	AC,[777,,-1]
  3100	032653	003 04 0 00 000624 		ER3	AC,T
  3101	032654	312 05 0 00 043751 		CAME	AC+1,[ZZ&377777,,-1]
  3102	032655	004 05 0 00 000624 		ER4	AC+1,T
  3103	032656	321 10 0 00 032650 		JUMPL	AC+4,.-^D6	;LOOP ON ERROR SWITCH^
  3104
  3105
  3106			000625		T=T+1
  3107		777777	777773			ZZ=ZZ+ZZ+1
  3108						IFE	<ZZ-1>,<ZZ=-2>
  3109						DFARP	T,0,0,0,0,777,-1,ZZ,-1,777,-1,ZZ&377777,-1^
  3110						DMOVE	AC,[0,,0
  3111	032657	120 04 0 00 043354 			0,,0]
  3112						DFAD	AC,[777,,-1DBKCD 	PDP-10 KI10 ADVANCED INSTRUCTION DIAGNOSTIC #4, VERSION 0,3 	MACRO %52(462) 12:35  9-AUG-76 PAGE 4-7
DBKCDM	MAC	26-MAY-76 16:52		TEST AR, ARX, AD, ADX AND NORMALIZE LOGIC FOR DOUBLE FLOATING POINT OPERATIONS     SEQ 0075

  3113	032660	110 04 0 00 043752 			ZZ,,-1]
  3114	032661	312 04 0 00 043653 		CAME	AC,[777,,-1]
  3115	032662	003 04 0 00 000625 		ER3	AC,T
  3116	032663	312 05 0 00 043754 		CAME	AC+1,[ZZ&377777,,-1]
  3117	032664	004 05 0 00 000625 		ER4	AC+1,T
  3118	032665	321 10 0 00 032657 		JUMPL	AC+4,.-^D6	;LOOP ON ERROR SWITCH^
  3119
  3120
  3121			000626		T=T+1
  3122		777777	777767			ZZ=ZZ+ZZ+1
  3123						IFE	<ZZ-1>,<ZZ=-2>
  3124						DFARP	T,0,0,0,0,777,-1,ZZ,-1,777,-1,ZZ&377777,-1^
  3125						DMOVE	AC,[0,,0
  3126	032666	120 04 0 00 043354 			0,,0]
  3127						DFAD	AC,[777,,-1
  3128	032667	110 04 0 00 043755 			ZZ,,-1]
  3129	032670	312 04 0 00 043653 		CAME	AC,[777,,-1]
  3130	032671	003 04 0 00 000626 		ER3	AC,T
  3131	032672	312 05 0 00 043757 		CAME	AC+1,[ZZ&377777,,-1]
  3132	032673	004 05 0 00 000626 		ER4	AC+1,T
  3133	032674	321 10 0 00 032666 		JUMPL	AC+4,.-^D6	;LOOP ON ERROR SWITCH^
  3134
  3135
  3136			000627		T=T+1
  3137		777777	777757			ZZ=ZZ+ZZ+1
  3138						IFE	<ZZ-1>,<ZZ=-2>
  3139						DFARP	T,0,0,0,0,777,-1,ZZ,-1,777,-1,ZZ&377777,-1^
  3140						DMOVE	AC,[0,,0
  3141	032675	120 04 0 00 043354 			0,,0]
  3142						DFAD	AC,[777,,-1
  3143	032676	110 04 0 00 043760 			ZZ,,-1]
  3144	032677	312 04 0 00 043653 		CAME	AC,[777,,-1]
  3145	032700	003 04 0 00 000627 		ER3	AC,T
  3146	032701	312 05 0 00 043762 		CAME	AC+1,[ZZ&377777,,-1]
  3147	032702	004 05 0 00 000627 		ER4	AC+1,T
  3148	032703	321 10 0 00 032675 		JUMPL	AC+4,.-^D6	;LOOP ON ERROR SWITCH^
  3149
  3150
  3151			000630		T=T+1
  3152		777777	777737			ZZ=ZZ+ZZ+1
  3153						IFE	<ZZ-1>,<ZZ=-2>
  3154						DFARP	T,0,0,0,0,777,-1,ZZ,-1,777,-1,ZZ&377777,-1^
  3155						DMOVE	AC,[0,,0
  3156	032704	120 04 0 00 043354 			0,,0]
  3157						DFAD	AC,[777,,-1
  3158	032705	110 04 0 00 043763 			ZZ,,-1]
  3159	032706	312 04 0 00 043653 		CAME	AC,[777,,-1]
  3160	032707	003 04 0 00 000630 		ER3	AC,T
  3161	032710	312 05 0 00 043765 		CAME	AC+1,[ZZ&377777,,-1]
  3162	032711	004 05 0 00 000630 		ER4	AC+1,T
  3163	032712	321 10 0 00 032704 		JUMPL	AC+4,.-^D6	;LOOP ON ERROR SWITCH^
  3164
  3165
  3166			000631		T=T+1
  3167		777777	777677			ZZ=ZZ+ZZ+1DBKCD 	PDP-10 KI10 ADVANCED INSTRUCTION DIAGNOSTIC #4, VERSION 0,3 	MACRO %52(462) 12:35  9-AUG-76 PAGE 4-8
DBKCDM	MAC	26-MAY-76 16:52		TEST AR, ARX, AD, ADX AND NORMALIZE LOGIC FOR DOUBLE FLOATING POINT OPERATIONS     SEQ 0076

  3168						IFE	<ZZ-1>,<ZZ=-2>
  3169						DFARP	T,0,0,0,0,777,-1,ZZ,-1,777,-1,ZZ&377777,-1^
  3170						DMOVE	AC,[0,,0
  3171	032713	120 04 0 00 043354 			0,,0]
  3172						DFAD	AC,[777,,-1
  3173	032714	110 04 0 00 043766 			ZZ,,-1]
  3174	032715	312 04 0 00 043653 		CAME	AC,[777,,-1]
  3175	032716	003 04 0 00 000631 		ER3	AC,T
  3176	032717	312 05 0 00 043770 		CAME	AC+1,[ZZ&377777,,-1]
  3177	032720	004 05 0 00 000631 		ER4	AC+1,T
  3178	032721	321 10 0 00 032713 		JUMPL	AC+4,.-^D6	;LOOP ON ERROR SWITCH^
  3179
  3180
  3181			000632		T=T+1
  3182		777777	777577			ZZ=ZZ+ZZ+1
  3183						IFE	<ZZ-1>,<ZZ=-2>
  3184						DFARP	T,0,0,0,0,777,-1,ZZ,-1,777,-1,ZZ&377777,-1^
  3185						DMOVE	AC,[0,,0
  3186	032722	120 04 0 00 043354 			0,,0]
  3187						DFAD	AC,[777,,-1
  3188	032723	110 04 0 00 043771 			ZZ,,-1]
  3189	032724	312 04 0 00 043653 		CAME	AC,[777,,-1]
  3190	032725	003 04 0 00 000632 		ER3	AC,T
  3191	032726	312 05 0 00 043773 		CAME	AC+1,[ZZ&377777,,-1]
  3192	032727	004 05 0 00 000632 		ER4	AC+1,T
  3193	032730	321 10 0 00 032722 		JUMPL	AC+4,.-^D6	;LOOP ON ERROR SWITCH^
  3194
  3195
  3196			000633		T=T+1
  3197		777777	777377			ZZ=ZZ+ZZ+1
  3198						IFE	<ZZ-1>,<ZZ=-2>
  3199						DFARP	T,0,0,0,0,777,-1,ZZ,-1,777,-1,ZZ&377777,-1^
  3200						DMOVE	AC,[0,,0
  3201	032731	120 04 0 00 043354 			0,,0]
  3202						DFAD	AC,[777,,-1
  3203	032732	110 04 0 00 043774 			ZZ,,-1]
  3204	032733	312 04 0 00 043653 		CAME	AC,[777,,-1]
  3205	032734	003 04 0 00 000633 		ER3	AC,T
  3206	032735	312 05 0 00 043776 		CAME	AC+1,[ZZ&377777,,-1]
  3207	032736	004 05 0 00 000633 		ER4	AC+1,T
  3208	032737	321 10 0 00 032731 		JUMPL	AC+4,.-^D6	;LOOP ON ERROR SWITCH^
  3209
  3210
  3211			000634		T=T+1
  3212		777777	776777			ZZ=ZZ+ZZ+1
  3213						IFE	<ZZ-1>,<ZZ=-2>
  3214						DFARP	T,0,0,0,0,777,-1,ZZ,-1,777,-1,ZZ&377777,-1^
  3215						DMOVE	AC,[0,,0
  3216	032740	120 04 0 00 043354 			0,,0]
  3217						DFAD	AC,[777,,-1
  3218	032741	110 04 0 00 043777 			ZZ,,-1]
  3219	032742	312 04 0 00 043653 		CAME	AC,[777,,-1]
  3220	032743	003 04 0 00 000634 		ER3	AC,T
  3221	032744	312 05 0 00 044001 		CAME	AC+1,[ZZ&377777,,-1]
  3222	032745	004 05 0 00 000634 		ER4	AC+1,TDBKCD 	PDP-10 KI10 ADVANCED INSTRUCTION DIAGNOSTIC #4, VERSION 0,3 	MACRO %52(462) 12:35  9-AUG-76 PAGE 4-9
DBKCDM	MAC	26-MAY-76 16:52		TEST AR, ARX, AD, ADX AND NORMALIZE LOGIC FOR DOUBLE FLOATING POINT OPERATIONS     SEQ 0077

  3223	032746	321 10 0 00 032740 		JUMPL	AC+4,.-^D6	;LOOP ON ERROR SWITCH^
  3224
  3225
  3226			000635		T=T+1
  3227		777777	775777			ZZ=ZZ+ZZ+1
  3228						IFE	<ZZ-1>,<ZZ=-2>
  3229						DFARP	T,0,0,0,0,777,-1,ZZ,-1,777,-1,ZZ&377777,-1^
  3230						DMOVE	AC,[0,,0
  3231	032747	120 04 0 00 043354 			0,,0]
  3232						DFAD	AC,[777,,-1
  3233	032750	110 04 0 00 044002 			ZZ,,-1]
  3234	032751	312 04 0 00 043653 		CAME	AC,[777,,-1]
  3235	032752	003 04 0 00 000635 		ER3	AC,T
  3236	032753	312 05 0 00 044004 		CAME	AC+1,[ZZ&377777,,-1]
  3237	032754	004 05 0 00 000635 		ER4	AC+1,T
  3238	032755	321 10 0 00 032747 		JUMPL	AC+4,.-^D6	;LOOP ON ERROR SWITCH^
  3239
  3240
  3241			000636		T=T+1
  3242		777777	773777			ZZ=ZZ+ZZ+1
  3243						IFE	<ZZ-1>,<ZZ=-2>
  3244						DFARP	T,0,0,0,0,777,-1,ZZ,-1,777,-1,ZZ&377777,-1^
  3245						DMOVE	AC,[0,,0
  3246	032756	120 04 0 00 043354 			0,,0]
  3247						DFAD	AC,[777,,-1
  3248	032757	110 04 0 00 044005 			ZZ,,-1]
  3249	032760	312 04 0 00 043653 		CAME	AC,[777,,-1]
  3250	032761	003 04 0 00 000636 		ER3	AC,T
  3251	032762	312 05 0 00 044007 		CAME	AC+1,[ZZ&377777,,-1]
  3252	032763	004 05 0 00 000636 		ER4	AC+1,T
  3253	032764	321 10 0 00 032756 		JUMPL	AC+4,.-^D6	;LOOP ON ERROR SWITCH^
  3254
  3255
  3256			000637		T=T+1
  3257		777777	767777			ZZ=ZZ+ZZ+1
  3258						IFE	<ZZ-1>,<ZZ=-2>
  3259						DFARP	T,0,0,0,0,777,-1,ZZ,-1,777,-1,ZZ&377777,-1^
  3260						DMOVE	AC,[0,,0
  3261	032765	120 04 0 00 043354 			0,,0]
  3262						DFAD	AC,[777,,-1
  3263	032766	110 04 0 00 044010 			ZZ,,-1]
  3264	032767	312 04 0 00 043653 		CAME	AC,[777,,-1]
  3265	032770	003 04 0 00 000637 		ER3	AC,T
  3266	032771	312 05 0 00 044012 		CAME	AC+1,[ZZ&377777,,-1]
  3267	032772	004 05 0 00 000637 		ER4	AC+1,T
  3268	032773	321 10 0 00 032765 		JUMPL	AC+4,.-^D6	;LOOP ON ERROR SWITCH^
  3269
  3270
  3271			000640		T=T+1
  3272		777777	757777			ZZ=ZZ+ZZ+1
  3273						IFE	<ZZ-1>,<ZZ=-2>
  3274						DFARP	T,0,0,0,0,777,-1,ZZ,-1,777,-1,ZZ&377777,-1^
  3275						DMOVE	AC,[0,,0
  3276	032774	120 04 0 00 043354 			0,,0]
  3277						DFAD	AC,[777,,-1DBKCD 	PDP-10 KI10 ADVANCED INSTRUCTION DIAGNOSTIC #4, VERSION 0,3 	MACRO %52(462) 12:35  9-AUG-76 PAGE 4-10
DBKCDM	MAC	26-MAY-76 16:52		TEST AR, ARX, AD, ADX AND NORMALIZE LOGIC FOR DOUBLE FLOATING POINT OPERATIONS     SEQ 0078

  3278	032775	110 04 0 00 044013 			ZZ,,-1]
  3279	032776	312 04 0 00 043653 		CAME	AC,[777,,-1]
  3280	032777	003 04 0 00 000640 		ER3	AC,T
  3281	033000	312 05 0 00 044015 		CAME	AC+1,[ZZ&377777,,-1]
  3282	033001	004 05 0 00 000640 		ER4	AC+1,T
  3283	033002	321 10 0 00 032774 		JUMPL	AC+4,.-^D6	;LOOP ON ERROR SWITCH^
  3284
  3285
  3286			000641		T=T+1
  3287		777777	737777			ZZ=ZZ+ZZ+1
  3288						IFE	<ZZ-1>,<ZZ=-2>
  3289						DFARP	T,0,0,0,0,777,-1,ZZ,-1,777,-1,ZZ&377777,-1^
  3290						DMOVE	AC,[0,,0
  3291	033003	120 04 0 00 043354 			0,,0]
  3292						DFAD	AC,[777,,-1
  3293	033004	110 04 0 00 044016 			ZZ,,-1]
  3294	033005	312 04 0 00 043653 		CAME	AC,[777,,-1]
  3295	033006	003 04 0 00 000641 		ER3	AC,T
  3296	033007	312 05 0 00 044020 		CAME	AC+1,[ZZ&377777,,-1]
  3297	033010	004 05 0 00 000641 		ER4	AC+1,T
  3298	033011	321 10 0 00 033003 		JUMPL	AC+4,.-^D6	;LOOP ON ERROR SWITCH^
  3299
  3300
  3301			000642		T=T+1
  3302		777777	677777			ZZ=ZZ+ZZ+1
  3303						IFE	<ZZ-1>,<ZZ=-2>
  3304						DFARP	T,0,0,0,0,777,-1,ZZ,-1,777,-1,ZZ&377777,-1^
  3305						DMOVE	AC,[0,,0
  3306	033012	120 04 0 00 043354 			0,,0]
  3307						DFAD	AC,[777,,-1
  3308	033013	110 04 0 00 044021 			ZZ,,-1]
  3309	033014	312 04 0 00 043653 		CAME	AC,[777,,-1]
  3310	033015	003 04 0 00 000642 		ER3	AC,T
  3311	033016	312 05 0 00 044023 		CAME	AC+1,[ZZ&377777,,-1]
  3312	033017	004 05 0 00 000642 		ER4	AC+1,T
  3313	033020	321 10 0 00 033012 		JUMPL	AC+4,.-^D6	;LOOP ON ERROR SWITCH^
  3314
  3315
  3316			000643		T=T+1
  3317		777777	577777			ZZ=ZZ+ZZ+1
  3318						IFE	<ZZ-1>,<ZZ=-2>
  3319						DFARP	T,0,0,0,0,777,-1,ZZ,-1,777,-1,ZZ&377777,-1^
  3320						DMOVE	AC,[0,,0
  3321	033021	120 04 0 00 043354 			0,,0]
  3322						DFAD	AC,[777,,-1
  3323	033022	110 04 0 00 044024 			ZZ,,-1]
  3324	033023	312 04 0 00 043653 		CAME	AC,[777,,-1]
  3325	033024	003 04 0 00 000643 		ER3	AC,T
  3326	033025	312 05 0 00 044026 		CAME	AC+1,[ZZ&377777,,-1]
  3327	033026	004 05 0 00 000643 		ER4	AC+1,T
  3328	033027	321 10 0 00 033021 		JUMPL	AC+4,.-^D6	;LOOP ON ERROR SWITCH^
  3329
  3330
  3331			000644		T=T+1
  3332		777777	377777			ZZ=ZZ+ZZ+1DBKCD 	PDP-10 KI10 ADVANCED INSTRUCTION DIAGNOSTIC #4, VERSION 0,3 	MACRO %52(462) 12:35  9-AUG-76 PAGE 4-11
DBKCDM	MAC	26-MAY-76 16:52		TEST AR, ARX, AD, ADX AND NORMALIZE LOGIC FOR DOUBLE FLOATING POINT OPERATIONS     SEQ 0079

  3333						IFE	<ZZ-1>,<ZZ=-2>
  3334						DFARP	T,0,0,0,0,777,-1,ZZ,-1,777,-1,ZZ&377777,-1^
  3335						DMOVE	AC,[0,,0
  3336	033030	120 04 0 00 043354 			0,,0]
  3337						DFAD	AC,[777,,-1
  3338	033031	110 04 0 00 044027 			ZZ,,-1]
  3339	033032	312 04 0 00 043653 		CAME	AC,[777,,-1]
  3340	033033	003 04 0 00 000644 		ER3	AC,T
  3341	033034	312 05 0 00 043655 		CAME	AC+1,[ZZ&377777,,-1]
  3342	033035	004 05 0 00 000644 		ER4	AC+1,T
  3343	033036	321 10 0 00 033030 		JUMPL	AC+4,.-^D6	;LOOP ON ERROR SWITCH^
  3344
  3345
  3346			000000			ZZ=0
  3347
  3348
  3349						REPEAT	^D18,<
  3350					T=T+1
  3351						ZZ=ZZ+ZZ+1
  3352						IFE	<ZZ-1>,<ZZ=-2>
  3353						DFARP	T,0,0,0,0,777,ZZ,-1,-1,777,ZZ,377777,-1
  3354					>
  3355
  3356			000645		T=T+1
  3357			000001			ZZ=ZZ+ZZ+1
  3358		777777	777776			IFE	<ZZ-1>,<ZZ=-2>
  3359						DFARP	T,0,0,0,0,777,ZZ,-1,-1,777,ZZ,377777,-1^
  3360						DMOVE	AC,[0,,0
  3361	033037	120 04 0 00 043354 			0,,0]
  3362						DFAD	AC,[777,,ZZ
  3363	033040	110 04 0 00 044031 			-1,,-1]
  3364	033041	312 04 0 00 044031 		CAME	AC,[777,,ZZ]
  3365	033042	003 04 0 00 000645 		ER3	AC,T
  3366	033043	312 05 0 00 043655 		CAME	AC+1,[377777,,-1]
  3367	033044	004 05 0 00 000645 		ER4	AC+1,T
  3368	033045	321 10 0 00 033037 		JUMPL	AC+4,.-^D6	;LOOP ON ERROR SWITCH^
  3369
  3370
  3371			000646		T=T+1
  3372		777777	777775			ZZ=ZZ+ZZ+1
  3373						IFE	<ZZ-1>,<ZZ=-2>
  3374						DFARP	T,0,0,0,0,777,ZZ,-1,-1,777,ZZ,377777,-1^
  3375						DMOVE	AC,[0,,0
  3376	033046	120 04 0 00 043354 			0,,0]
  3377						DFAD	AC,[777,,ZZ
  3378	033047	110 04 0 00 044033 			-1,,-1]
  3379	033050	312 04 0 00 044033 		CAME	AC,[777,,ZZ]
  3380	033051	003 04 0 00 000646 		ER3	AC,T
  3381	033052	312 05 0 00 043655 		CAME	AC+1,[377777,,-1]
  3382	033053	004 05 0 00 000646 		ER4	AC+1,T
  3383	033054	321 10 0 00 033046 		JUMPL	AC+4,.-^D6	;LOOP ON ERROR SWITCH^
  3384
  3385
  3386			000647		T=T+1
  3387		777777	777773			ZZ=ZZ+ZZ+1DBKCD 	PDP-10 KI10 ADVANCED INSTRUCTION DIAGNOSTIC #4, VERSION 0,3 	MACRO %52(462) 12:35  9-AUG-76 PAGE 4-12
DBKCDM	MAC	26-MAY-76 16:52		TEST AR, ARX, AD, ADX AND NORMALIZE LOGIC FOR DOUBLE FLOATING POINT OPERATIONS     SEQ 0080

  3388						IFE	<ZZ-1>,<ZZ=-2>
  3389						DFARP	T,0,0,0,0,777,ZZ,-1,-1,777,ZZ,377777,-1^
  3390						DMOVE	AC,[0,,0
  3391	033055	120 04 0 00 043354 			0,,0]
  3392						DFAD	AC,[777,,ZZ
  3393	033056	110 04 0 00 044035 			-1,,-1]
  3394	033057	312 04 0 00 044035 		CAME	AC,[777,,ZZ]
  3395	033060	003 04 0 00 000647 		ER3	AC,T
  3396	033061	312 05 0 00 043655 		CAME	AC+1,[377777,,-1]
  3397	033062	004 05 0 00 000647 		ER4	AC+1,T
  3398	033063	321 10 0 00 033055 		JUMPL	AC+4,.-^D6	;LOOP ON ERROR SWITCH^
  3399
  3400
  3401			000650		T=T+1
  3402		777777	777767			ZZ=ZZ+ZZ+1
  3403						IFE	<ZZ-1>,<ZZ=-2>
  3404						DFARP	T,0,0,0,0,777,ZZ,-1,-1,777,ZZ,377777,-1^
  3405						DMOVE	AC,[0,,0
  3406	033064	120 04 0 00 043354 			0,,0]
  3407						DFAD	AC,[777,,ZZ
  3408	033065	110 04 0 00 044037 			-1,,-1]
  3409	033066	312 04 0 00 044037 		CAME	AC,[777,,ZZ]
  3410	033067	003 04 0 00 000650 		ER3	AC,T
  3411	033070	312 05 0 00 043655 		CAME	AC+1,[377777,,-1]
  3412	033071	004 05 0 00 000650 		ER4	AC+1,T
  3413	033072	321 10 0 00 033064 		JUMPL	AC+4,.-^D6	;LOOP ON ERROR SWITCH^
  3414
  3415
  3416			000651		T=T+1
  3417		777777	777757			ZZ=ZZ+ZZ+1
  3418						IFE	<ZZ-1>,<ZZ=-2>
  3419						DFARP	T,0,0,0,0,777,ZZ,-1,-1,777,ZZ,377777,-1^
  3420						DMOVE	AC,[0,,0
  3421	033073	120 04 0 00 043354 			0,,0]
  3422						DFAD	AC,[777,,ZZ
  3423	033074	110 04 0 00 044041 			-1,,-1]
  3424	033075	312 04 0 00 044041 		CAME	AC,[777,,ZZ]
  3425	033076	003 04 0 00 000651 		ER3	AC,T
  3426	033077	312 05 0 00 043655 		CAME	AC+1,[377777,,-1]
  3427	033100	004 05 0 00 000651 		ER4	AC+1,T
  3428	033101	321 10 0 00 033073 		JUMPL	AC+4,.-^D6	;LOOP ON ERROR SWITCH^
  3429
  3430
  3431			000652		T=T+1
  3432		777777	777737			ZZ=ZZ+ZZ+1
  3433						IFE	<ZZ-1>,<ZZ=-2>
  3434						DFARP	T,0,0,0,0,777,ZZ,-1,-1,777,ZZ,377777,-1^
  3435						DMOVE	AC,[0,,0
  3436	033102	120 04 0 00 043354 			0,,0]
  3437						DFAD	AC,[777,,ZZ
  3438	033103	110 04 0 00 044043 			-1,,-1]
  3439	033104	312 04 0 00 044043 		CAME	AC,[777,,ZZ]
  3440	033105	003 04 0 00 000652 		ER3	AC,T
  3441	033106	312 05 0 00 043655 		CAME	AC+1,[377777,,-1]
  3442	033107	004 05 0 00 000652 		ER4	AC+1,TDBKCD 	PDP-10 KI10 ADVANCED INSTRUCTION DIAGNOSTIC #4, VERSION 0,3 	MACRO %52(462) 12:35  9-AUG-76 PAGE 4-13
DBKCDM	MAC	26-MAY-76 16:52		TEST AR, ARX, AD, ADX AND NORMALIZE LOGIC FOR DOUBLE FLOATING POINT OPERATIONS     SEQ 0081

  3443	033110	321 10 0 00 033102 		JUMPL	AC+4,.-^D6	;LOOP ON ERROR SWITCH^
  3444
  3445
  3446			000653		T=T+1
  3447		777777	777677			ZZ=ZZ+ZZ+1
  3448						IFE	<ZZ-1>,<ZZ=-2>
  3449						DFARP	T,0,0,0,0,777,ZZ,-1,-1,777,ZZ,377777,-1^
  3450						DMOVE	AC,[0,,0
  3451	033111	120 04 0 00 043354 			0,,0]
  3452						DFAD	AC,[777,,ZZ
  3453	033112	110 04 0 00 044045 			-1,,-1]
  3454	033113	312 04 0 00 044045 		CAME	AC,[777,,ZZ]
  3455	033114	003 04 0 00 000653 		ER3	AC,T
  3456	033115	312 05 0 00 043655 		CAME	AC+1,[377777,,-1]
  3457	033116	004 05 0 00 000653 		ER4	AC+1,T
  3458	033117	321 10 0 00 033111 		JUMPL	AC+4,.-^D6	;LOOP ON ERROR SWITCH^
  3459
  3460
  3461			000654		T=T+1
  3462		777777	777577			ZZ=ZZ+ZZ+1
  3463						IFE	<ZZ-1>,<ZZ=-2>
  3464						DFARP	T,0,0,0,0,777,ZZ,-1,-1,777,ZZ,377777,-1^
  3465						DMOVE	AC,[0,,0
  3466	033120	120 04 0 00 043354 			0,,0]
  3467						DFAD	AC,[777,,ZZ
  3468	033121	110 04 0 00 044047 			-1,,-1]
  3469	033122	312 04 0 00 044047 		CAME	AC,[777,,ZZ]
  3470	033123	003 04 0 00 000654 		ER3	AC,T
  3471	033124	312 05 0 00 043655 		CAME	AC+1,[377777,,-1]
  3472	033125	004 05 0 00 000654 		ER4	AC+1,T
  3473	033126	321 10 0 00 033120 		JUMPL	AC+4,.-^D6	;LOOP ON ERROR SWITCH^
  3474
  3475
  3476			000655		T=T+1
  3477		777777	777377			ZZ=ZZ+ZZ+1
  3478						IFE	<ZZ-1>,<ZZ=-2>
  3479						DFARP	T,0,0,0,0,777,ZZ,-1,-1,777,ZZ,377777,-1^
  3480						DMOVE	AC,[0,,0
  3481	033127	120 04 0 00 043354 			0,,0]
  3482						DFAD	AC,[777,,ZZ
  3483	033130	110 04 0 00 044051 			-1,,-1]
  3484	033131	312 04 0 00 044051 		CAME	AC,[777,,ZZ]
  3485	033132	003 04 0 00 000655 		ER3	AC,T
  3486	033133	312 05 0 00 043655 		CAME	AC+1,[377777,,-1]
  3487	033134	004 05 0 00 000655 		ER4	AC+1,T
  3488	033135	321 10 0 00 033127 		JUMPL	AC+4,.-^D6	;LOOP ON ERROR SWITCH^
  3489
  3490
  3491			000656		T=T+1
  3492		777777	776777			ZZ=ZZ+ZZ+1
  3493						IFE	<ZZ-1>,<ZZ=-2>
  3494						DFARP	T,0,0,0,0,777,ZZ,-1,-1,777,ZZ,377777,-1^
  3495						DMOVE	AC,[0,,0
  3496	033136	120 04 0 00 043354 			0,,0]
  3497						DFAD	AC,[777,,ZZDBKCD 	PDP-10 KI10 ADVANCED INSTRUCTION DIAGNOSTIC #4, VERSION 0,3 	MACRO %52(462) 12:35  9-AUG-76 PAGE 4-14
DBKCDM	MAC	26-MAY-76 16:52		TEST AR, ARX, AD, ADX AND NORMALIZE LOGIC FOR DOUBLE FLOATING POINT OPERATIONS     SEQ 0082

  3498	033137	110 04 0 00 044053 			-1,,-1]
  3499	033140	312 04 0 00 044053 		CAME	AC,[777,,ZZ]
  3500	033141	003 04 0 00 000656 		ER3	AC,T
  3501	033142	312 05 0 00 043655 		CAME	AC+1,[377777,,-1]
  3502	033143	004 05 0 00 000656 		ER4	AC+1,T
  3503	033144	321 10 0 00 033136 		JUMPL	AC+4,.-^D6	;LOOP ON ERROR SWITCH^
  3504
  3505
  3506			000657		T=T+1
  3507		777777	775777			ZZ=ZZ+ZZ+1
  3508						IFE	<ZZ-1>,<ZZ=-2>
  3509						DFARP	T,0,0,0,0,777,ZZ,-1,-1,777,ZZ,377777,-1^
  3510						DMOVE	AC,[0,,0
  3511	033145	120 04 0 00 043354 			0,,0]
  3512						DFAD	AC,[777,,ZZ
  3513	033146	110 04 0 00 044055 			-1,,-1]
  3514	033147	312 04 0 00 044055 		CAME	AC,[777,,ZZ]
  3515	033150	003 04 0 00 000657 		ER3	AC,T
  3516	033151	312 05 0 00 043655 		CAME	AC+1,[377777,,-1]
  3517	033152	004 05 0 00 000657 		ER4	AC+1,T
  3518	033153	321 10 0 00 033145 		JUMPL	AC+4,.-^D6	;LOOP ON ERROR SWITCH^
  3519
  3520
  3521			000660		T=T+1
  3522		777777	773777			ZZ=ZZ+ZZ+1
  3523						IFE	<ZZ-1>,<ZZ=-2>
  3524						DFARP	T,0,0,0,0,777,ZZ,-1,-1,777,ZZ,377777,-1^
  3525						DMOVE	AC,[0,,0
  3526	033154	120 04 0 00 043354 			0,,0]
  3527						DFAD	AC,[777,,ZZ
  3528	033155	110 04 0 00 044057 			-1,,-1]
  3529	033156	312 04 0 00 044057 		CAME	AC,[777,,ZZ]
  3530	033157	003 04 0 00 000660 		ER3	AC,T
  3531	033160	312 05 0 00 043655 		CAME	AC+1,[377777,,-1]
  3532	033161	004 05 0 00 000660 		ER4	AC+1,T
  3533	033162	321 10 0 00 033154 		JUMPL	AC+4,.-^D6	;LOOP ON ERROR SWITCH^
  3534
  3535
  3536			000661		T=T+1
  3537		777777	767777			ZZ=ZZ+ZZ+1
  3538						IFE	<ZZ-1>,<ZZ=-2>
  3539						DFARP	T,0,0,0,0,777,ZZ,-1,-1,777,ZZ,377777,-1^
  3540						DMOVE	AC,[0,,0
  3541	033163	120 04 0 00 043354 			0,,0]
  3542						DFAD	AC,[777,,ZZ
  3543	033164	110 04 0 00 044061 			-1,,-1]
  3544	033165	312 04 0 00 044061 		CAME	AC,[777,,ZZ]
  3545	033166	003 04 0 00 000661 		ER3	AC,T
  3546	033167	312 05 0 00 043655 		CAME	AC+1,[377777,,-1]
  3547	033170	004 05 0 00 000661 		ER4	AC+1,T
  3548	033171	321 10 0 00 033163 		JUMPL	AC+4,.-^D6	;LOOP ON ERROR SWITCH^
  3549
  3550
  3551			000662		T=T+1
  3552		777777	757777			ZZ=ZZ+ZZ+1DBKCD 	PDP-10 KI10 ADVANCED INSTRUCTION DIAGNOSTIC #4, VERSION 0,3 	MACRO %52(462) 12:35  9-AUG-76 PAGE 4-15
DBKCDM	MAC	26-MAY-76 16:52		TEST AR, ARX, AD, ADX AND NORMALIZE LOGIC FOR DOUBLE FLOATING POINT OPERATIONS     SEQ 0083

  3553						IFE	<ZZ-1>,<ZZ=-2>
  3554						DFARP	T,0,0,0,0,777,ZZ,-1,-1,777,ZZ,377777,-1^
  3555						DMOVE	AC,[0,,0
  3556	033172	120 04 0 00 043354 			0,,0]
  3557						DFAD	AC,[777,,ZZ
  3558	033173	110 04 0 00 044063 			-1,,-1]
  3559	033174	312 04 0 00 044063 		CAME	AC,[777,,ZZ]
  3560	033175	003 04 0 00 000662 		ER3	AC,T
  3561	033176	312 05 0 00 043655 		CAME	AC+1,[377777,,-1]
  3562	033177	004 05 0 00 000662 		ER4	AC+1,T
  3563	033200	321 10 0 00 033172 		JUMPL	AC+4,.-^D6	;LOOP ON ERROR SWITCH^
  3564
  3565
  3566			000663		T=T+1
  3567		777777	737777			ZZ=ZZ+ZZ+1
  3568						IFE	<ZZ-1>,<ZZ=-2>
  3569						DFARP	T,0,0,0,0,777,ZZ,-1,-1,777,ZZ,377777,-1^
  3570						DMOVE	AC,[0,,0
  3571	033201	120 04 0 00 043354 			0,,0]
  3572						DFAD	AC,[777,,ZZ
  3573	033202	110 04 0 00 044065 			-1,,-1]
  3574	033203	312 04 0 00 044065 		CAME	AC,[777,,ZZ]
  3575	033204	003 04 0 00 000663 		ER3	AC,T
  3576	033205	312 05 0 00 043655 		CAME	AC+1,[377777,,-1]
  3577	033206	004 05 0 00 000663 		ER4	AC+1,T
  3578	033207	321 10 0 00 033201 		JUMPL	AC+4,.-^D6	;LOOP ON ERROR SWITCH^
  3579
  3580
  3581			000664		T=T+1
  3582		777777	677777			ZZ=ZZ+ZZ+1
  3583						IFE	<ZZ-1>,<ZZ=-2>
  3584						DFARP	T,0,0,0,0,777,ZZ,-1,-1,777,ZZ,377777,-1^
  3585						DMOVE	AC,[0,,0
  3586	033210	120 04 0 00 043354 			0,,0]
  3587						DFAD	AC,[777,,ZZ
  3588	033211	110 04 0 00 044067 			-1,,-1]
  3589	033212	312 04 0 00 044067 		CAME	AC,[777,,ZZ]
  3590	033213	003 04 0 00 000664 		ER3	AC,T
  3591	033214	312 05 0 00 043655 		CAME	AC+1,[377777,,-1]
  3592	033215	004 05 0 00 000664 		ER4	AC+1,T
  3593	033216	321 10 0 00 033210 		JUMPL	AC+4,.-^D6	;LOOP ON ERROR SWITCH^
  3594
  3595
  3596			000665		T=T+1
  3597		777777	577777			ZZ=ZZ+ZZ+1
  3598						IFE	<ZZ-1>,<ZZ=-2>
  3599						DFARP	T,0,0,0,0,777,ZZ,-1,-1,777,ZZ,377777,-1^
  3600						DMOVE	AC,[0,,0
  3601	033217	120 04 0 00 043354 			0,,0]
  3602						DFAD	AC,[777,,ZZ
  3603	033220	110 04 0 00 044071 			-1,,-1]
  3604	033221	312 04 0 00 044071 		CAME	AC,[777,,ZZ]
  3605	033222	003 04 0 00 000665 		ER3	AC,T
  3606	033223	312 05 0 00 043655 		CAME	AC+1,[377777,,-1]
  3607	033224	004 05 0 00 000665 		ER4	AC+1,TDBKCD 	PDP-10 KI10 ADVANCED INSTRUCTION DIAGNOSTIC #4, VERSION 0,3 	MACRO %52(462) 12:35  9-AUG-76 PAGE 4-16
DBKCDM	MAC	26-MAY-76 16:52		TEST AR, ARX, AD, ADX AND NORMALIZE LOGIC FOR DOUBLE FLOATING POINT OPERATIONS     SEQ 0084

  3608	033225	321 10 0 00 033217 		JUMPL	AC+4,.-^D6	;LOOP ON ERROR SWITCH^
  3609
  3610
  3611			000666		T=T+1
  3612		777777	377777			ZZ=ZZ+ZZ+1
  3613						IFE	<ZZ-1>,<ZZ=-2>
  3614						DFARP	T,0,0,0,0,777,ZZ,-1,-1,777,ZZ,377777,-1^
  3615						DMOVE	AC,[0,,0
  3616	033226	120 04 0 00 043354 			0,,0]
  3617						DFAD	AC,[777,,ZZ
  3618	033227	110 04 0 00 044073 			-1,,-1]
  3619	033230	312 04 0 00 044073 		CAME	AC,[777,,ZZ]
  3620	033231	003 04 0 00 000666 		ER3	AC,T
  3621	033232	312 05 0 00 043655 		CAME	AC+1,[377777,,-1]
  3622	033233	004 05 0 00 000666 		ER4	AC+1,T
  3623	033234	321 10 0 00 033226 		JUMPL	AC+4,.-^D6	;LOOP ON ERROR SWITCH^
  3624
  3625
  3626			000000			ZZ=0
  3627
  3628
  3629						REPEAT	^D8,<
  3630					T=T+1
  3631						ZZ=ZZ+ZZ+1
  3632						IFE	<ZZ-1>,<ZZ=-2>
  3633						DFARP	T,0,0,0,0,ZZ&777,-1,-1,-1,ZZ&777,-1,377777,-1
  3634					>
  3635
  3636
  3637			000667		T=T+1
  3638			000001			ZZ=ZZ+ZZ+1
  3639		777777	777776			IFE	<ZZ-1>,<ZZ=-2>
  3640						DFARP	T,0,0,0,0,ZZ&777,-1,-1,-1,ZZ&777,-1,377777,-1^
  3641						DMOVE	AC,[0,,0
  3642	033235	120 04 0 00 043354 			0,,0]
  3643						DFAD	AC,[ZZ&777,,-1
  3644	033236	110 04 0 00 044075 			-1,,-1]
  3645	033237	312 04 0 00 044075 		CAME	AC,[ZZ&777,,-1]
  3646	033240	003 04 0 00 000667 		ER3	AC,T
  3647	033241	312 05 0 00 043655 		CAME	AC+1,[377777,,-1]
  3648	033242	004 05 0 00 000667 		ER4	AC+1,T
  3649	033243	321 10 0 00 033235 		JUMPL	AC+4,.-^D6	;LOOP ON ERROR SWITCH^
  3650
  3651
  3652			000670		T=T+1
  3653		777777	777775			ZZ=ZZ+ZZ+1
  3654						IFE	<ZZ-1>,<ZZ=-2>
  3655						DFARP	T,0,0,0,0,ZZ&777,-1,-1,-1,ZZ&777,-1,377777,-1^
  3656						DMOVE	AC,[0,,0
  3657	033244	120 04 0 00 043354 			0,,0]
  3658						DFAD	AC,[ZZ&777,,-1
  3659	033245	110 04 0 00 044077 			-1,,-1]
  3660	033246	312 04 0 00 044077 		CAME	AC,[ZZ&777,,-1]
  3661	033247	003 04 0 00 000670 		ER3	AC,T
  3662	033250	312 05 0 00 043655 		CAME	AC+1,[377777,,-1]DBKCD 	PDP-10 KI10 ADVANCED INSTRUCTION DIAGNOSTIC #4, VERSION 0,3 	MACRO %52(462) 12:35  9-AUG-76 PAGE 4-17
DBKCDM	MAC	26-MAY-76 16:52		TEST AR, ARX, AD, ADX AND NORMALIZE LOGIC FOR DOUBLE FLOATING POINT OPERATIONS     SEQ 0085

  3663	033251	004 05 0 00 000670 		ER4	AC+1,T
  3664	033252	321 10 0 00 033244 		JUMPL	AC+4,.-^D6	;LOOP ON ERROR SWITCH^
  3665
  3666
  3667			000671		T=T+1
  3668		777777	777773			ZZ=ZZ+ZZ+1
  3669						IFE	<ZZ-1>,<ZZ=-2>
  3670						DFARP	T,0,0,0,0,ZZ&777,-1,-1,-1,ZZ&777,-1,377777,-1^
  3671						DMOVE	AC,[0,,0
  3672	033253	120 04 0 00 043354 			0,,0]
  3673						DFAD	AC,[ZZ&777,,-1
  3674	033254	110 04 0 00 044101 			-1,,-1]
  3675	033255	312 04 0 00 044101 		CAME	AC,[ZZ&777,,-1]
  3676	033256	003 04 0 00 000671 		ER3	AC,T
  3677	033257	312 05 0 00 043655 		CAME	AC+1,[377777,,-1]
  3678	033260	004 05 0 00 000671 		ER4	AC+1,T
  3679	033261	321 10 0 00 033253 		JUMPL	AC+4,.-^D6	;LOOP ON ERROR SWITCH^
  3680
  3681
  3682			000672		T=T+1
  3683		777777	777767			ZZ=ZZ+ZZ+1
  3684						IFE	<ZZ-1>,<ZZ=-2>
  3685						DFARP	T,0,0,0,0,ZZ&777,-1,-1,-1,ZZ&777,-1,377777,-1^
  3686						DMOVE	AC,[0,,0
  3687	033262	120 04 0 00 043354 			0,,0]
  3688						DFAD	AC,[ZZ&777,,-1
  3689	033263	110 04 0 00 044103 			-1,,-1]
  3690	033264	312 04 0 00 044103 		CAME	AC,[ZZ&777,,-1]
  3691	033265	003 04 0 00 000672 		ER3	AC,T
  3692	033266	312 05 0 00 043655 		CAME	AC+1,[377777,,-1]
  3693	033267	004 05 0 00 000672 		ER4	AC+1,T
  3694	033270	321 10 0 00 033262 		JUMPL	AC+4,.-^D6	;LOOP ON ERROR SWITCH^
  3695
  3696
  3697			000673		T=T+1
  3698		777777	777757			ZZ=ZZ+ZZ+1
  3699						IFE	<ZZ-1>,<ZZ=-2>
  3700						DFARP	T,0,0,0,0,ZZ&777,-1,-1,-1,ZZ&777,-1,377777,-1^
  3701						DMOVE	AC,[0,,0
  3702	033271	120 04 0 00 043354 			0,,0]
  3703						DFAD	AC,[ZZ&777,,-1
  3704	033272	110 04 0 00 044105 			-1,,-1]
  3705	033273	312 04 0 00 044105 		CAME	AC,[ZZ&777,,-1]
  3706	033274	003 04 0 00 000673 		ER3	AC,T
  3707	033275	312 05 0 00 043655 		CAME	AC+1,[377777,,-1]
  3708	033276	004 05 0 00 000673 		ER4	AC+1,T
  3709	033277	321 10 0 00 033271 		JUMPL	AC+4,.-^D6	;LOOP ON ERROR SWITCH^
  3710
  3711
  3712			000674		T=T+1
  3713		777777	777737			ZZ=ZZ+ZZ+1
  3714						IFE	<ZZ-1>,<ZZ=-2>
  3715						DFARP	T,0,0,0,0,ZZ&777,-1,-1,-1,ZZ&777,-1,377777,-1^
  3716						DMOVE	AC,[0,,0
  3717	033300	120 04 0 00 043354 			0,,0]DBKCD 	PDP-10 KI10 ADVANCED INSTRUCTION DIAGNOSTIC #4, VERSION 0,3 	MACRO %52(462) 12:35  9-AUG-76 PAGE 4-18
DBKCDM	MAC	26-MAY-76 16:52		TEST AR, ARX, AD, ADX AND NORMALIZE LOGIC FOR DOUBLE FLOATING POINT OPERATIONS     SEQ 0086

  3718						DFAD	AC,[ZZ&777,,-1
  3719	033301	110 04 0 00 044107 			-1,,-1]
  3720	033302	312 04 0 00 044107 		CAME	AC,[ZZ&777,,-1]
  3721	033303	003 04 0 00 000674 		ER3	AC,T
  3722	033304	312 05 0 00 043655 		CAME	AC+1,[377777,,-1]
  3723	033305	004 05 0 00 000674 		ER4	AC+1,T
  3724	033306	321 10 0 00 033300 		JUMPL	AC+4,.-^D6	;LOOP ON ERROR SWITCH^
  3725
  3726
  3727			000675		T=T+1
  3728		777777	777677			ZZ=ZZ+ZZ+1
  3729						IFE	<ZZ-1>,<ZZ=-2>
  3730						DFARP	T,0,0,0,0,ZZ&777,-1,-1,-1,ZZ&777,-1,377777,-1^
  3731						DMOVE	AC,[0,,0
  3732	033307	120 04 0 00 043354 			0,,0]
  3733						DFAD	AC,[ZZ&777,,-1
  3734	033310	110 04 0 00 044111 			-1,,-1]
  3735	033311	312 04 0 00 044111 		CAME	AC,[ZZ&777,,-1]
  3736	033312	003 04 0 00 000675 		ER3	AC,T
  3737	033313	312 05 0 00 043655 		CAME	AC+1,[377777,,-1]
  3738	033314	004 05 0 00 000675 		ER4	AC+1,T
  3739	033315	321 10 0 00 033307 		JUMPL	AC+4,.-^D6	;LOOP ON ERROR SWITCH^
  3740
  3741
  3742			000676		T=T+1
  3743		777777	777577			ZZ=ZZ+ZZ+1
  3744						IFE	<ZZ-1>,<ZZ=-2>
  3745						DFARP	T,0,0,0,0,ZZ&777,-1,-1,-1,ZZ&777,-1,377777,-1^
  3746						DMOVE	AC,[0,,0
  3747	033316	120 04 0 00 043354 			0,,0]
  3748						DFAD	AC,[ZZ&777,,-1
  3749	033317	110 04 0 00 044113 			-1,,-1]
  3750	033320	312 04 0 00 044113 		CAME	AC,[ZZ&777,,-1]
  3751	033321	003 04 0 00 000676 		ER3	AC,T
  3752	033322	312 05 0 00 043655 		CAME	AC+1,[377777,,-1]
  3753	033323	004 05 0 00 000676 		ER4	AC+1,T
  3754	033324	321 10 0 00 033316 		JUMPL	AC+4,.-^D6	;LOOP ON ERROR SWITCH^
  3755
  3756
  3757			000677		T=T+1
  3758						DFARP	T,0,0,0,0,1377,-1,-1,-1,777,-1,377777,-2^
  3759						DMOVE	AC,[0,,0
  3760	033325	120 04 0 00 043354 			0,,0]
  3761						DFAD	AC,[1377,,-1
  3762	033326	110 04 0 00 044115 			-1,,-1]
  3763	033327	312 04 0 00 043653 		CAME	AC,[777,,-1]
  3764	033330	003 04 0 00 000677 		ER3	AC,T
  3765	033331	312 05 0 00 043660 		CAME	AC+1,[377777,,-2]
  3766	033332	004 05 0 00 000677 		ER4	AC+1,T
  3767	033333	321 10 0 00 033325 		JUMPL	AC+4,.-^D6	;LOOP ON ERROR SWITCH^DBKCD 	PDP-10 KI10 ADVANCED INSTRUCTION DIAGNOSTIC #4, VERSION 0,3 	MACRO %52(462) 12:35  9-AUG-76 PAGE 5
DBKCDM	MAC	26-MAY-76 16:52		TEST AR, ARX, AD, ADX AND NORMALIZE LOGIC FOR DOUBLE FLOATING POINT OPERATIONS     SEQ 0087

  3768					;RIPPLE ZEROS TEST (TO A RIPPLED ZERO, ADD A FRACTION OF ALL ZEROS)
  3769
  3770			000700		T=700
  3771			000000			ZZ=0
  3772
  3773
  3774					R700:	REPEAT	^D18,<
  3775					T=T+1
  3776						ZZ=ZZ+ZZ+1
  3777						IFE	<ZZ-1>,<ZZ=-2>
  3778						DFARP	T,777,-1,-1,ZZ,0,0,0,0,777,-1,377777,ZZ
  3779					>
  3780
  3781			000701		T=T+1
  3782			000001			ZZ=ZZ+ZZ+1
  3783		777777	777776			IFE	<ZZ-1>,<ZZ=-2>
  3784						DFARP	T,777,-1,-1,ZZ,0,0,0,0,777,-1,377777,ZZ^
  3785						DMOVE	AC,[777,,-1
  3786	033334	120 04 0 00 043656 			-1,,ZZ]
  3787						DFAD	AC,[0,,0
  3788	033335	110 04 0 00 043354 			0,,0]
  3789	033336	312 04 0 00 043653 		CAME	AC,[777,,-1]
  3790	033337	003 04 0 00 000701 		ER3	AC,T
  3791	033340	312 05 0 00 043660 		CAME	AC+1,[377777,,ZZ]
  3792	033341	004 05 0 00 000701 		ER4	AC+1,T
  3793	033342	321 10 0 00 033334 		JUMPL	AC+4,.-^D6	;LOOP ON ERROR SWITCH^
  3794
  3795
  3796			000702		T=T+1
  3797		777777	777775			ZZ=ZZ+ZZ+1
  3798						IFE	<ZZ-1>,<ZZ=-2>
  3799						DFARP	T,777,-1,-1,ZZ,0,0,0,0,777,-1,377777,ZZ^
  3800						DMOVE	AC,[777,,-1
  3801	033343	120 04 0 00 043661 			-1,,ZZ]
  3802						DFAD	AC,[0,,0
  3803	033344	110 04 0 00 043354 			0,,0]
  3804	033345	312 04 0 00 043653 		CAME	AC,[777,,-1]
  3805	033346	003 04 0 00 000702 		ER3	AC,T
  3806	033347	312 05 0 00 043663 		CAME	AC+1,[377777,,ZZ]
  3807	033350	004 05 0 00 000702 		ER4	AC+1,T
  3808	033351	321 10 0 00 033343 		JUMPL	AC+4,.-^D6	;LOOP ON ERROR SWITCH^
  3809
  3810
  3811			000703		T=T+1
  3812		777777	777773			ZZ=ZZ+ZZ+1
  3813						IFE	<ZZ-1>,<ZZ=-2>
  3814						DFARP	T,777,-1,-1,ZZ,0,0,0,0,777,-1,377777,ZZ^
  3815						DMOVE	AC,[777,,-1
  3816	033352	120 04 0 00 043664 			-1,,ZZ]
  3817						DFAD	AC,[0,,0
  3818	033353	110 04 0 00 043354 			0,,0]
  3819	033354	312 04 0 00 043653 		CAME	AC,[777,,-1]
  3820	033355	003 04 0 00 000703 		ER3	AC,T
  3821	033356	312 05 0 00 043666 		CAME	AC+1,[377777,,ZZ]
  3822	033357	004 05 0 00 000703 		ER4	AC+1,TDBKCD 	PDP-10 KI10 ADVANCED INSTRUCTION DIAGNOSTIC #4, VERSION 0,3 	MACRO %52(462) 12:35  9-AUG-76 PAGE 5-1
DBKCDM	MAC	26-MAY-76 16:52		TEST AR, ARX, AD, ADX AND NORMALIZE LOGIC FOR DOUBLE FLOATING POINT OPERATIONS     SEQ 0088

  3823	033360	321 10 0 00 033352 		JUMPL	AC+4,.-^D6	;LOOP ON ERROR SWITCH^
  3824
  3825
  3826			000704		T=T+1
  3827		777777	777767			ZZ=ZZ+ZZ+1
  3828						IFE	<ZZ-1>,<ZZ=-2>
  3829						DFARP	T,777,-1,-1,ZZ,0,0,0,0,777,-1,377777,ZZ^
  3830						DMOVE	AC,[777,,-1
  3831	033361	120 04 0 00 043667 			-1,,ZZ]
  3832						DFAD	AC,[0,,0
  3833	033362	110 04 0 00 043354 			0,,0]
  3834	033363	312 04 0 00 043653 		CAME	AC,[777,,-1]
  3835	033364	003 04 0 00 000704 		ER3	AC,T
  3836	033365	312 05 0 00 043671 		CAME	AC+1,[377777,,ZZ]
  3837	033366	004 05 0 00 000704 		ER4	AC+1,T
  3838	033367	321 10 0 00 033361 		JUMPL	AC+4,.-^D6	;LOOP ON ERROR SWITCH^
  3839
  3840
  3841			000705		T=T+1
  3842		777777	777757			ZZ=ZZ+ZZ+1
  3843						IFE	<ZZ-1>,<ZZ=-2>
  3844						DFARP	T,777,-1,-1,ZZ,0,0,0,0,777,-1,377777,ZZ^
  3845						DMOVE	AC,[777,,-1
  3846	033370	120 04 0 00 043672 			-1,,ZZ]
  3847						DFAD	AC,[0,,0
  3848	033371	110 04 0 00 043354 			0,,0]
  3849	033372	312 04 0 00 043653 		CAME	AC,[777,,-1]
  3850	033373	003 04 0 00 000705 		ER3	AC,T
  3851	033374	312 05 0 00 043674 		CAME	AC+1,[377777,,ZZ]
  3852	033375	004 05 0 00 000705 		ER4	AC+1,T
  3853	033376	321 10 0 00 033370 		JUMPL	AC+4,.-^D6	;LOOP ON ERROR SWITCH^
  3854
  3855
  3856			000706		T=T+1
  3857		777777	777737			ZZ=ZZ+ZZ+1
  3858						IFE	<ZZ-1>,<ZZ=-2>
  3859						DFARP	T,777,-1,-1,ZZ,0,0,0,0,777,-1,377777,ZZ^
  3860						DMOVE	AC,[777,,-1
  3861	033377	120 04 0 00 043675 			-1,,ZZ]
  3862						DFAD	AC,[0,,0
  3863	033400	110 04 0 00 043354 			0,,0]
  3864	033401	312 04 0 00 043653 		CAME	AC,[777,,-1]
  3865	033402	003 04 0 00 000706 		ER3	AC,T
  3866	033403	312 05 0 00 043677 		CAME	AC+1,[377777,,ZZ]
  3867	033404	004 05 0 00 000706 		ER4	AC+1,T
  3868	033405	321 10 0 00 033377 		JUMPL	AC+4,.-^D6	;LOOP ON ERROR SWITCH^
  3869
  3870
  3871			000707		T=T+1
  3872		777777	777677			ZZ=ZZ+ZZ+1
  3873						IFE	<ZZ-1>,<ZZ=-2>
  3874						DFARP	T,777,-1,-1,ZZ,0,0,0,0,777,-1,377777,ZZ^
  3875						DMOVE	AC,[777,,-1
  3876	033406	120 04 0 00 043700 			-1,,ZZ]
  3877						DFAD	AC,[0,,0DBKCD 	PDP-10 KI10 ADVANCED INSTRUCTION DIAGNOSTIC #4, VERSION 0,3 	MACRO %52(462) 12:35  9-AUG-76 PAGE 5-2
DBKCDM	MAC	26-MAY-76 16:52		TEST AR, ARX, AD, ADX AND NORMALIZE LOGIC FOR DOUBLE FLOATING POINT OPERATIONS     SEQ 0089

  3878	033407	110 04 0 00 043354 			0,,0]
  3879	033410	312 04 0 00 043653 		CAME	AC,[777,,-1]
  3880	033411	003 04 0 00 000707 		ER3	AC,T
  3881	033412	312 05 0 00 043702 		CAME	AC+1,[377777,,ZZ]
  3882	033413	004 05 0 00 000707 		ER4	AC+1,T
  3883	033414	321 10 0 00 033406 		JUMPL	AC+4,.-^D6	;LOOP ON ERROR SWITCH^
  3884
  3885
  3886			000710		T=T+1
  3887		777777	777577			ZZ=ZZ+ZZ+1
  3888						IFE	<ZZ-1>,<ZZ=-2>
  3889						DFARP	T,777,-1,-1,ZZ,0,0,0,0,777,-1,377777,ZZ^
  3890						DMOVE	AC,[777,,-1
  3891	033415	120 04 0 00 043703 			-1,,ZZ]
  3892						DFAD	AC,[0,,0
  3893	033416	110 04 0 00 043354 			0,,0]
  3894	033417	312 04 0 00 043653 		CAME	AC,[777,,-1]
  3895	033420	003 04 0 00 000710 		ER3	AC,T
  3896	033421	312 05 0 00 043705 		CAME	AC+1,[377777,,ZZ]
  3897	033422	004 05 0 00 000710 		ER4	AC+1,T
  3898	033423	321 10 0 00 033415 		JUMPL	AC+4,.-^D6	;LOOP ON ERROR SWITCH^
  3899
  3900
  3901			000711		T=T+1
  3902		777777	777377			ZZ=ZZ+ZZ+1
  3903						IFE	<ZZ-1>,<ZZ=-2>
  3904						DFARP	T,777,-1,-1,ZZ,0,0,0,0,777,-1,377777,ZZ^
  3905						DMOVE	AC,[777,,-1
  3906	033424	120 04 0 00 043706 			-1,,ZZ]
  3907						DFAD	AC,[0,,0
  3908	033425	110 04 0 00 043354 			0,,0]
  3909	033426	312 04 0 00 043653 		CAME	AC,[777,,-1]
  3910	033427	003 04 0 00 000711 		ER3	AC,T
  3911	033430	312 05 0 00 043710 		CAME	AC+1,[377777,,ZZ]
  3912	033431	004 05 0 00 000711 		ER4	AC+1,T
  3913	033432	321 10 0 00 033424 		JUMPL	AC+4,.-^D6	;LOOP ON ERROR SWITCH^
  3914
  3915
  3916			000712		T=T+1
  3917		777777	776777			ZZ=ZZ+ZZ+1
  3918						IFE	<ZZ-1>,<ZZ=-2>
  3919						DFARP	T,777,-1,-1,ZZ,0,0,0,0,777,-1,377777,ZZ^
  3920						DMOVE	AC,[777,,-1
  3921	033433	120 04 0 00 043711 			-1,,ZZ]
  3922						DFAD	AC,[0,,0
  3923	033434	110 04 0 00 043354 			0,,0]
  3924	033435	312 04 0 00 043653 		CAME	AC,[777,,-1]
  3925	033436	003 04 0 00 000712 		ER3	AC,T
  3926	033437	312 05 0 00 043713 		CAME	AC+1,[377777,,ZZ]
  3927	033440	004 05 0 00 000712 		ER4	AC+1,T
  3928	033441	321 10 0 00 033433 		JUMPL	AC+4,.-^D6	;LOOP ON ERROR SWITCH^
  3929
  3930
  3931			000713		T=T+1
  3932		777777	775777			ZZ=ZZ+ZZ+1DBKCD 	PDP-10 KI10 ADVANCED INSTRUCTION DIAGNOSTIC #4, VERSION 0,3 	MACRO %52(462) 12:35  9-AUG-76 PAGE 5-3
DBKCDM	MAC	26-MAY-76 16:52		TEST AR, ARX, AD, ADX AND NORMALIZE LOGIC FOR DOUBLE FLOATING POINT OPERATIONS     SEQ 0090

  3933						IFE	<ZZ-1>,<ZZ=-2>
  3934						DFARP	T,777,-1,-1,ZZ,0,0,0,0,777,-1,377777,ZZ^
  3935						DMOVE	AC,[777,,-1
  3936	033442	120 04 0 00 043714 			-1,,ZZ]
  3937						DFAD	AC,[0,,0
  3938	033443	110 04 0 00 043354 			0,,0]
  3939	033444	312 04 0 00 043653 		CAME	AC,[777,,-1]
  3940	033445	003 04 0 00 000713 		ER3	AC,T
  3941	033446	312 05 0 00 043716 		CAME	AC+1,[377777,,ZZ]
  3942	033447	004 05 0 00 000713 		ER4	AC+1,T
  3943	033450	321 10 0 00 033442 		JUMPL	AC+4,.-^D6	;LOOP ON ERROR SWITCH^
  3944
  3945
  3946			000714		T=T+1
  3947		777777	773777			ZZ=ZZ+ZZ+1
  3948						IFE	<ZZ-1>,<ZZ=-2>
  3949						DFARP	T,777,-1,-1,ZZ,0,0,0,0,777,-1,377777,ZZ^
  3950						DMOVE	AC,[777,,-1
  3951	033451	120 04 0 00 043717 			-1,,ZZ]
  3952						DFAD	AC,[0,,0
  3953	033452	110 04 0 00 043354 			0,,0]
  3954	033453	312 04 0 00 043653 		CAME	AC,[777,,-1]
  3955	033454	003 04 0 00 000714 		ER3	AC,T
  3956	033455	312 05 0 00 043721 		CAME	AC+1,[377777,,ZZ]
  3957	033456	004 05 0 00 000714 		ER4	AC+1,T
  3958	033457	321 10 0 00 033451 		JUMPL	AC+4,.-^D6	;LOOP ON ERROR SWITCH^
  3959
  3960
  3961			000715		T=T+1
  3962		777777	767777			ZZ=ZZ+ZZ+1
  3963						IFE	<ZZ-1>,<ZZ=-2>
  3964						DFARP	T,777,-1,-1,ZZ,0,0,0,0,777,-1,377777,ZZ^
  3965						DMOVE	AC,[777,,-1
  3966	033460	120 04 0 00 043722 			-1,,ZZ]
  3967						DFAD	AC,[0,,0
  3968	033461	110 04 0 00 043354 			0,,0]
  3969	033462	312 04 0 00 043653 		CAME	AC,[777,,-1]
  3970	033463	003 04 0 00 000715 		ER3	AC,T
  3971	033464	312 05 0 00 043724 		CAME	AC+1,[377777,,ZZ]
  3972	033465	004 05 0 00 000715 		ER4	AC+1,T
  3973	033466	321 10 0 00 033460 		JUMPL	AC+4,.-^D6	;LOOP ON ERROR SWITCH^
  3974
  3975
  3976			000716		T=T+1
  3977		777777	757777			ZZ=ZZ+ZZ+1
  3978						IFE	<ZZ-1>,<ZZ=-2>
  3979						DFARP	T,777,-1,-1,ZZ,0,0,0,0,777,-1,377777,ZZ^
  3980						DMOVE	AC,[777,,-1
  3981	033467	120 04 0 00 043725 			-1,,ZZ]
  3982						DFAD	AC,[0,,0
  3983	033470	110 04 0 00 043354 			0,,0]
  3984	033471	312 04 0 00 043653 		CAME	AC,[777,,-1]
  3985	033472	003 04 0 00 000716 		ER3	AC,T
  3986	033473	312 05 0 00 043727 		CAME	AC+1,[377777,,ZZ]
  3987	033474	004 05 0 00 000716 		ER4	AC+1,TDBKCD 	PDP-10 KI10 ADVANCED INSTRUCTION DIAGNOSTIC #4, VERSION 0,3 	MACRO %52(462) 12:35  9-AUG-76 PAGE 5-4
DBKCDM	MAC	26-MAY-76 16:52		TEST AR, ARX, AD, ADX AND NORMALIZE LOGIC FOR DOUBLE FLOATING POINT OPERATIONS     SEQ 0091

  3988	033475	321 10 0 00 033467 		JUMPL	AC+4,.-^D6	;LOOP ON ERROR SWITCH^
  3989
  3990
  3991			000717		T=T+1
  3992		777777	737777			ZZ=ZZ+ZZ+1
  3993						IFE	<ZZ-1>,<ZZ=-2>
  3994						DFARP	T,777,-1,-1,ZZ,0,0,0,0,777,-1,377777,ZZ^
  3995						DMOVE	AC,[777,,-1
  3996	033476	120 04 0 00 043730 			-1,,ZZ]
  3997						DFAD	AC,[0,,0
  3998	033477	110 04 0 00 043354 			0,,0]
  3999	033500	312 04 0 00 043653 		CAME	AC,[777,,-1]
  4000	033501	003 04 0 00 000717 		ER3	AC,T
  4001	033502	312 05 0 00 043732 		CAME	AC+1,[377777,,ZZ]
  4002	033503	004 05 0 00 000717 		ER4	AC+1,T
  4003	033504	321 10 0 00 033476 		JUMPL	AC+4,.-^D6	;LOOP ON ERROR SWITCH^
  4004
  4005
  4006			000720		T=T+1
  4007		777777	677777			ZZ=ZZ+ZZ+1
  4008						IFE	<ZZ-1>,<ZZ=-2>
  4009						DFARP	T,777,-1,-1,ZZ,0,0,0,0,777,-1,377777,ZZ^
  4010						DMOVE	AC,[777,,-1
  4011	033505	120 04 0 00 043733 			-1,,ZZ]
  4012						DFAD	AC,[0,,0
  4013	033506	110 04 0 00 043354 			0,,0]
  4014	033507	312 04 0 00 043653 		CAME	AC,[777,,-1]
  4015	033510	003 04 0 00 000720 		ER3	AC,T
  4016	033511	312 05 0 00 043735 		CAME	AC+1,[377777,,ZZ]
  4017	033512	004 05 0 00 000720 		ER4	AC+1,T
  4018	033513	321 10 0 00 033505 		JUMPL	AC+4,.-^D6	;LOOP ON ERROR SWITCH^
  4019
  4020
  4021			000721		T=T+1
  4022		777777	577777			ZZ=ZZ+ZZ+1
  4023						IFE	<ZZ-1>,<ZZ=-2>
  4024						DFARP	T,777,-1,-1,ZZ,0,0,0,0,777,-1,377777,ZZ^
  4025						DMOVE	AC,[777,,-1
  4026	033514	120 04 0 00 043736 			-1,,ZZ]
  4027						DFAD	AC,[0,,0
  4028	033515	110 04 0 00 043354 			0,,0]
  4029	033516	312 04 0 00 043653 		CAME	AC,[777,,-1]
  4030	033517	003 04 0 00 000721 		ER3	AC,T
  4031	033520	312 05 0 00 043740 		CAME	AC+1,[377777,,ZZ]
  4032	033521	004 05 0 00 000721 		ER4	AC+1,T
  4033	033522	321 10 0 00 033514 		JUMPL	AC+4,.-^D6	;LOOP ON ERROR SWITCH^
  4034
  4035
  4036			000722		T=T+1
  4037		777777	377777			ZZ=ZZ+ZZ+1
  4038						IFE	<ZZ-1>,<ZZ=-2>
  4039						DFARP	T,777,-1,-1,ZZ,0,0,0,0,777,-1,377777,ZZ^
  4040						DMOVE	AC,[777,,-1
  4041	033523	120 04 0 00 043741 			-1,,ZZ]
  4042						DFAD	AC,[0,,0DBKCD 	PDP-10 KI10 ADVANCED INSTRUCTION DIAGNOSTIC #4, VERSION 0,3 	MACRO %52(462) 12:35  9-AUG-76 PAGE 5-5
DBKCDM	MAC	26-MAY-76 16:52		TEST AR, ARX, AD, ADX AND NORMALIZE LOGIC FOR DOUBLE FLOATING POINT OPERATIONS     SEQ 0092

  4043	033524	110 04 0 00 043354 			0,,0]
  4044	033525	312 04 0 00 043653 		CAME	AC,[777,,-1]
  4045	033526	003 04 0 00 000722 		ER3	AC,T
  4046	033527	312 05 0 00 043743 		CAME	AC+1,[377777,,ZZ]
  4047	033530	004 05 0 00 000722 		ER4	AC+1,T
  4048	033531	321 10 0 00 033523 		JUMPL	AC+4,.-^D6	;LOOP ON ERROR SWITCH^
  4049
  4050
  4051			000000			ZZ=0
  4052
  4053
  4054						REPEAT	^D18,<
  4055					T=T+1
  4056						ZZ=ZZ+ZZ+1
  4057						IFE	<ZZ-1>,<ZZ=-2>
  4058						DFARP	T,777,-1,ZZ,-1,0,0,0,0,777,-1,ZZ&377777,-1
  4059					>
  4060
  4061			000723		T=T+1
  4062			000001			ZZ=ZZ+ZZ+1
  4063		777777	777776			IFE	<ZZ-1>,<ZZ=-2>
  4064						DFARP	T,777,-1,ZZ,-1,0,0,0,0,777,-1,ZZ&377777,-1^
  4065						DMOVE	AC,[777,,-1
  4066	033532	120 04 0 00 043744 			ZZ,,-1]
  4067						DFAD	AC,[0,,0
  4068	033533	110 04 0 00 043354 			0,,0]
  4069	033534	312 04 0 00 043653 		CAME	AC,[777,,-1]
  4070	033535	003 04 0 00 000723 		ER3	AC,T
  4071	033536	312 05 0 00 043746 		CAME	AC+1,[ZZ&377777,,-1]
  4072	033537	004 05 0 00 000723 		ER4	AC+1,T
  4073	033540	321 10 0 00 033532 		JUMPL	AC+4,.-^D6	;LOOP ON ERROR SWITCH^
  4074
  4075
  4076			000724		T=T+1
  4077		777777	777775			ZZ=ZZ+ZZ+1
  4078						IFE	<ZZ-1>,<ZZ=-2>
  4079						DFARP	T,777,-1,ZZ,-1,0,0,0,0,777,-1,ZZ&377777,-1^
  4080						DMOVE	AC,[777,,-1
  4081	033541	120 04 0 00 043747 			ZZ,,-1]
  4082						DFAD	AC,[0,,0
  4083	033542	110 04 0 00 043354 			0,,0]
  4084	033543	312 04 0 00 043653 		CAME	AC,[777,,-1]
  4085	033544	003 04 0 00 000724 		ER3	AC,T
  4086	033545	312 05 0 00 043751 		CAME	AC+1,[ZZ&377777,,-1]
  4087	033546	004 05 0 00 000724 		ER4	AC+1,T
  4088	033547	321 10 0 00 033541 		JUMPL	AC+4,.-^D6	;LOOP ON ERROR SWITCH^
  4089
  4090
  4091			000725		T=T+1
  4092		777777	777773			ZZ=ZZ+ZZ+1
  4093						IFE	<ZZ-1>,<ZZ=-2>
  4094						DFARP	T,777,-1,ZZ,-1,0,0,0,0,777,-1,ZZ&377777,-1^
  4095						DMOVE	AC,[777,,-1
  4096	033550	120 04 0 00 043752 			ZZ,,-1]
  4097						DFAD	AC,[0,,0DBKCD 	PDP-10 KI10 ADVANCED INSTRUCTION DIAGNOSTIC #4, VERSION 0,3 	MACRO %52(462) 12:35  9-AUG-76 PAGE 5-6
DBKCDM	MAC	26-MAY-76 16:52		TEST AR, ARX, AD, ADX AND NORMALIZE LOGIC FOR DOUBLE FLOATING POINT OPERATIONS     SEQ 0093

  4098	033551	110 04 0 00 043354 			0,,0]
  4099	033552	312 04 0 00 043653 		CAME	AC,[777,,-1]
  4100	033553	003 04 0 00 000725 		ER3	AC,T
  4101	033554	312 05 0 00 043754 		CAME	AC+1,[ZZ&377777,,-1]
  4102	033555	004 05 0 00 000725 		ER4	AC+1,T
  4103	033556	321 10 0 00 033550 		JUMPL	AC+4,.-^D6	;LOOP ON ERROR SWITCH^
  4104
  4105
  4106			000726		T=T+1
  4107		777777	777767			ZZ=ZZ+ZZ+1
  4108						IFE	<ZZ-1>,<ZZ=-2>
  4109						DFARP	T,777,-1,ZZ,-1,0,0,0,0,777,-1,ZZ&377777,-1^
  4110						DMOVE	AC,[777,,-1
  4111	033557	120 04 0 00 043755 			ZZ,,-1]
  4112						DFAD	AC,[0,,0
  4113	033560	110 04 0 00 043354 			0,,0]
  4114	033561	312 04 0 00 043653 		CAME	AC,[777,,-1]
  4115	033562	003 04 0 00 000726 		ER3	AC,T
  4116	033563	312 05 0 00 043757 		CAME	AC+1,[ZZ&377777,,-1]
  4117	033564	004 05 0 00 000726 		ER4	AC+1,T
  4118	033565	321 10 0 00 033557 		JUMPL	AC+4,.-^D6	;LOOP ON ERROR SWITCH^
  4119
  4120
  4121			000727		T=T+1
  4122		777777	777757			ZZ=ZZ+ZZ+1
  4123						IFE	<ZZ-1>,<ZZ=-2>
  4124						DFARP	T,777,-1,ZZ,-1,0,0,0,0,777,-1,ZZ&377777,-1^
  4125						DMOVE	AC,[777,,-1
  4126	033566	120 04 0 00 043760 			ZZ,,-1]
  4127						DFAD	AC,[0,,0
  4128	033567	110 04 0 00 043354 			0,,0]
  4129	033570	312 04 0 00 043653 		CAME	AC,[777,,-1]
  4130	033571	003 04 0 00 000727 		ER3	AC,T
  4131	033572	312 05 0 00 043762 		CAME	AC+1,[ZZ&377777,,-1]
  4132	033573	004 05 0 00 000727 		ER4	AC+1,T
  4133	033574	321 10 0 00 033566 		JUMPL	AC+4,.-^D6	;LOOP ON ERROR SWITCH^
  4134
  4135
  4136			000730		T=T+1
  4137		777777	777737			ZZ=ZZ+ZZ+1
  4138						IFE	<ZZ-1>,<ZZ=-2>
  4139						DFARP	T,777,-1,ZZ,-1,0,0,0,0,777,-1,ZZ&377777,-1^
  4140						DMOVE	AC,[777,,-1
  4141	033575	120 04 0 00 043763 			ZZ,,-1]
  4142						DFAD	AC,[0,,0
  4143	033576	110 04 0 00 043354 			0,,0]
  4144	033577	312 04 0 00 043653 		CAME	AC,[777,,-1]
  4145	033600	003 04 0 00 000730 		ER3	AC,T
  4146	033601	312 05 0 00 043765 		CAME	AC+1,[ZZ&377777,,-1]
  4147	033602	004 05 0 00 000730 		ER4	AC+1,T
  4148	033603	321 10 0 00 033575 		JUMPL	AC+4,.-^D6	;LOOP ON ERROR SWITCH^
  4149
  4150
  4151			000731		T=T+1
  4152		777777	777677			ZZ=ZZ+ZZ+1DBKCD 	PDP-10 KI10 ADVANCED INSTRUCTION DIAGNOSTIC #4, VERSION 0,3 	MACRO %52(462) 12:35  9-AUG-76 PAGE 5-7
DBKCDM	MAC	26-MAY-76 16:52		TEST AR, ARX, AD, ADX AND NORMALIZE LOGIC FOR DOUBLE FLOATING POINT OPERATIONS     SEQ 0094

  4153						IFE	<ZZ-1>,<ZZ=-2>
  4154						DFARP	T,777,-1,ZZ,-1,0,0,0,0,777,-1,ZZ&377777,-1^
  4155						DMOVE	AC,[777,,-1
  4156	033604	120 04 0 00 043766 			ZZ,,-1]
  4157						DFAD	AC,[0,,0
  4158	033605	110 04 0 00 043354 			0,,0]
  4159	033606	312 04 0 00 043653 		CAME	AC,[777,,-1]
  4160	033607	003 04 0 00 000731 		ER3	AC,T
  4161	033610	312 05 0 00 043770 		CAME	AC+1,[ZZ&377777,,-1]
  4162	033611	004 05 0 00 000731 		ER4	AC+1,T
  4163	033612	321 10 0 00 033604 		JUMPL	AC+4,.-^D6	;LOOP ON ERROR SWITCH^
  4164
  4165
  4166			000732		T=T+1
  4167		777777	777577			ZZ=ZZ+ZZ+1
  4168						IFE	<ZZ-1>,<ZZ=-2>
  4169						DFARP	T,777,-1,ZZ,-1,0,0,0,0,777,-1,ZZ&377777,-1^
  4170						DMOVE	AC,[777,,-1
  4171	033613	120 04 0 00 043771 			ZZ,,-1]
  4172						DFAD	AC,[0,,0
  4173	033614	110 04 0 00 043354 			0,,0]
  4174	033615	312 04 0 00 043653 		CAME	AC,[777,,-1]
  4175	033616	003 04 0 00 000732 		ER3	AC,T
  4176	033617	312 05 0 00 043773 		CAME	AC+1,[ZZ&377777,,-1]
  4177	033620	004 05 0 00 000732 		ER4	AC+1,T
  4178	033621	321 10 0 00 033613 		JUMPL	AC+4,.-^D6	;LOOP ON ERROR SWITCH^
  4179
  4180
  4181			000733		T=T+1
  4182		777777	777377			ZZ=ZZ+ZZ+1
  4183						IFE	<ZZ-1>,<ZZ=-2>
  4184						DFARP	T,777,-1,ZZ,-1,0,0,0,0,777,-1,ZZ&377777,-1^
  4185						DMOVE	AC,[777,,-1
  4186	033622	120 04 0 00 043774 			ZZ,,-1]
  4187						DFAD	AC,[0,,0
  4188	033623	110 04 0 00 043354 			0,,0]
  4189	033624	312 04 0 00 043653 		CAME	AC,[777,,-1]
  4190	033625	003 04 0 00 000733 		ER3	AC,T
  4191	033626	312 05 0 00 043776 		CAME	AC+1,[ZZ&377777,,-1]
  4192	033627	004 05 0 00 000733 		ER4	AC+1,T
  4193	033630	321 10 0 00 033622 		JUMPL	AC+4,.-^D6	;LOOP ON ERROR SWITCH^
  4194
  4195
  4196			000734		T=T+1
  4197		777777	776777			ZZ=ZZ+ZZ+1
  4198						IFE	<ZZ-1>,<ZZ=-2>
  4199						DFARP	T,777,-1,ZZ,-1,0,0,0,0,777,-1,ZZ&377777,-1^
  4200						DMOVE	AC,[777,,-1
  4201	033631	120 04 0 00 043777 			ZZ,,-1]
  4202						DFAD	AC,[0,,0
  4203	033632	110 04 0 00 043354 			0,,0]
  4204	033633	312 04 0 00 043653 		CAME	AC,[777,,-1]
  4205	033634	003 04 0 00 000734 		ER3	AC,T
  4206	033635	312 05 0 00 044001 		CAME	AC+1,[ZZ&377777,,-1]
  4207	033636	004 05 0 00 000734 		ER4	AC+1,TDBKCD 	PDP-10 KI10 ADVANCED INSTRUCTION DIAGNOSTIC #4, VERSION 0,3 	MACRO %52(462) 12:35  9-AUG-76 PAGE 5-8
DBKCDM	MAC	26-MAY-76 16:52		TEST AR, ARX, AD, ADX AND NORMALIZE LOGIC FOR DOUBLE FLOATING POINT OPERATIONS     SEQ 0095

  4208	033637	321 10 0 00 033631 		JUMPL	AC+4,.-^D6	;LOOP ON ERROR SWITCH^
  4209
  4210
  4211			000735		T=T+1
  4212		777777	775777			ZZ=ZZ+ZZ+1
  4213						IFE	<ZZ-1>,<ZZ=-2>
  4214						DFARP	T,777,-1,ZZ,-1,0,0,0,0,777,-1,ZZ&377777,-1^
  4215						DMOVE	AC,[777,,-1
  4216	033640	120 04 0 00 044002 			ZZ,,-1]
  4217						DFAD	AC,[0,,0
  4218	033641	110 04 0 00 043354 			0,,0]
  4219	033642	312 04 0 00 043653 		CAME	AC,[777,,-1]
  4220	033643	003 04 0 00 000735 		ER3	AC,T
  4221	033644	312 05 0 00 044004 		CAME	AC+1,[ZZ&377777,,-1]
  4222	033645	004 05 0 00 000735 		ER4	AC+1,T
  4223	033646	321 10 0 00 033640 		JUMPL	AC+4,.-^D6	;LOOP ON ERROR SWITCH^
  4224
  4225
  4226			000736		T=T+1
  4227		777777	773777			ZZ=ZZ+ZZ+1
  4228						IFE	<ZZ-1>,<ZZ=-2>
  4229						DFARP	T,777,-1,ZZ,-1,0,0,0,0,777,-1,ZZ&377777,-1^
  4230						DMOVE	AC,[777,,-1
  4231	033647	120 04 0 00 044005 			ZZ,,-1]
  4232						DFAD	AC,[0,,0
  4233	033650	110 04 0 00 043354 			0,,0]
  4234	033651	312 04 0 00 043653 		CAME	AC,[777,,-1]
  4235	033652	003 04 0 00 000736 		ER3	AC,T
  4236	033653	312 05 0 00 044007 		CAME	AC+1,[ZZ&377777,,-1]
  4237	033654	004 05 0 00 000736 		ER4	AC+1,T
  4238	033655	321 10 0 00 033647 		JUMPL	AC+4,.-^D6	;LOOP ON ERROR SWITCH^
  4239
  4240
  4241			000737		T=T+1
  4242		777777	767777			ZZ=ZZ+ZZ+1
  4243						IFE	<ZZ-1>,<ZZ=-2>
  4244						DFARP	T,777,-1,ZZ,-1,0,0,0,0,777,-1,ZZ&377777,-1^
  4245						DMOVE	AC,[777,,-1
  4246	033656	120 04 0 00 044010 			ZZ,,-1]
  4247						DFAD	AC,[0,,0
  4248	033657	110 04 0 00 043354 			0,,0]
  4249	033660	312 04 0 00 043653 		CAME	AC,[777,,-1]
  4250	033661	003 04 0 00 000737 		ER3	AC,T
  4251	033662	312 05 0 00 044012 		CAME	AC+1,[ZZ&377777,,-1]
  4252	033663	004 05 0 00 000737 		ER4	AC+1,T
  4253	033664	321 10 0 00 033656 		JUMPL	AC+4,.-^D6	;LOOP ON ERROR SWITCH^
  4254
  4255
  4256			000740		T=T+1
  4257		777777	757777			ZZ=ZZ+ZZ+1
  4258						IFE	<ZZ-1>,<ZZ=-2>
  4259						DFARP	T,777,-1,ZZ,-1,0,0,0,0,777,-1,ZZ&377777,-1^
  4260						DMOVE	AC,[777,,-1
  4261	033665	120 04 0 00 044013 			ZZ,,-1]
  4262						DFAD	AC,[0,,0DBKCD 	PDP-10 KI10 ADVANCED INSTRUCTION DIAGNOSTIC #4, VERSION 0,3 	MACRO %52(462) 12:35  9-AUG-76 PAGE 5-9
DBKCDM	MAC	26-MAY-76 16:52		TEST AR, ARX, AD, ADX AND NORMALIZE LOGIC FOR DOUBLE FLOATING POINT OPERATIONS     SEQ 0096

  4263	033666	110 04 0 00 043354 			0,,0]
  4264	033667	312 04 0 00 043653 		CAME	AC,[777,,-1]
  4265	033670	003 04 0 00 000740 		ER3	AC,T
  4266	033671	312 05 0 00 044015 		CAME	AC+1,[ZZ&377777,,-1]
  4267	033672	004 05 0 00 000740 		ER4	AC+1,T
  4268	033673	321 10 0 00 033665 		JUMPL	AC+4,.-^D6	;LOOP ON ERROR SWITCH^
  4269
  4270
  4271			000741		T=T+1
  4272		777777	737777			ZZ=ZZ+ZZ+1
  4273						IFE	<ZZ-1>,<ZZ=-2>
  4274						DFARP	T,777,-1,ZZ,-1,0,0,0,0,777,-1,ZZ&377777,-1^
  4275						DMOVE	AC,[777,,-1
  4276	033674	120 04 0 00 044016 			ZZ,,-1]
  4277						DFAD	AC,[0,,0
  4278	033675	110 04 0 00 043354 			0,,0]
  4279	033676	312 04 0 00 043653 		CAME	AC,[777,,-1]
  4280	033677	003 04 0 00 000741 		ER3	AC,T
  4281	033700	312 05 0 00 044020 		CAME	AC+1,[ZZ&377777,,-1]
  4282	033701	004 05 0 00 000741 		ER4	AC+1,T
  4283	033702	321 10 0 00 033674 		JUMPL	AC+4,.-^D6	;LOOP ON ERROR SWITCH^
  4284
  4285
  4286			000742		T=T+1
  4287		777777	677777			ZZ=ZZ+ZZ+1
  4288						IFE	<ZZ-1>,<ZZ=-2>
  4289						DFARP	T,777,-1,ZZ,-1,0,0,0,0,777,-1,ZZ&377777,-1^
  4290						DMOVE	AC,[777,,-1
  4291	033703	120 04 0 00 044021 			ZZ,,-1]
  4292						DFAD	AC,[0,,0
  4293	033704	110 04 0 00 043354 			0,,0]
  4294	033705	312 04 0 00 043653 		CAME	AC,[777,,-1]
  4295	033706	003 04 0 00 000742 		ER3	AC,T
  4296	033707	312 05 0 00 044023 		CAME	AC+1,[ZZ&377777,,-1]
  4297	033710	004 05 0 00 000742 		ER4	AC+1,T
  4298	033711	321 10 0 00 033703 		JUMPL	AC+4,.-^D6	;LOOP ON ERROR SWITCH^
  4299
  4300
  4301			000743		T=T+1
  4302		777777	577777			ZZ=ZZ+ZZ+1
  4303						IFE	<ZZ-1>,<ZZ=-2>
  4304						DFARP	T,777,-1,ZZ,-1,0,0,0,0,777,-1,ZZ&377777,-1^
  4305						DMOVE	AC,[777,,-1
  4306	033712	120 04 0 00 044024 			ZZ,,-1]
  4307						DFAD	AC,[0,,0
  4308	033713	110 04 0 00 043354 			0,,0]
  4309	033714	312 04 0 00 043653 		CAME	AC,[777,,-1]
  4310	033715	003 04 0 00 000743 		ER3	AC,T
  4311	033716	312 05 0 00 044026 		CAME	AC+1,[ZZ&377777,,-1]
  4312	033717	004 05 0 00 000743 		ER4	AC+1,T
  4313	033720	321 10 0 00 033712 		JUMPL	AC+4,.-^D6	;LOOP ON ERROR SWITCH^
  4314
  4315
  4316			000744		T=T+1
  4317		777777	377777			ZZ=ZZ+ZZ+1DBKCD 	PDP-10 KI10 ADVANCED INSTRUCTION DIAGNOSTIC #4, VERSION 0,3 	MACRO %52(462) 12:35  9-AUG-76 PAGE 5-10
DBKCDM	MAC	26-MAY-76 16:52		TEST AR, ARX, AD, ADX AND NORMALIZE LOGIC FOR DOUBLE FLOATING POINT OPERATIONS     SEQ 0097

  4318						IFE	<ZZ-1>,<ZZ=-2>
  4319						DFARP	T,777,-1,ZZ,-1,0,0,0,0,777,-1,ZZ&377777,-1^
  4320						DMOVE	AC,[777,,-1
  4321	033721	120 04 0 00 044027 			ZZ,,-1]
  4322						DFAD	AC,[0,,0
  4323	033722	110 04 0 00 043354 			0,,0]
  4324	033723	312 04 0 00 043653 		CAME	AC,[777,,-1]
  4325	033724	003 04 0 00 000744 		ER3	AC,T
  4326	033725	312 05 0 00 043655 		CAME	AC+1,[ZZ&377777,,-1]
  4327	033726	004 05 0 00 000744 		ER4	AC+1,T
  4328	033727	321 10 0 00 033721 		JUMPL	AC+4,.-^D6	;LOOP ON ERROR SWITCH^
  4329
  4330
  4331			000000			ZZ=0
  4332
  4333
  4334						REPEAT	^D18,<
  4335					T=T+1
  4336						ZZ=ZZ+ZZ+1
  4337						IFE	<ZZ-1>,<ZZ=-2>
  4338						DFARP	T,777,ZZ,-1,-1,0,0,0,0,777,ZZ,377777,-1
  4339					>
  4340
  4341			000745		T=T+1
  4342			000001			ZZ=ZZ+ZZ+1
  4343		777777	777776			IFE	<ZZ-1>,<ZZ=-2>
  4344						DFARP	T,777,ZZ,-1,-1,0,0,0,0,777,ZZ,377777,-1^
  4345						DMOVE	AC,[777,,ZZ
  4346	033730	120 04 0 00 044031 			-1,,-1]
  4347						DFAD	AC,[0,,0
  4348	033731	110 04 0 00 043354 			0,,0]
  4349	033732	312 04 0 00 044031 		CAME	AC,[777,,ZZ]
  4350	033733	003 04 0 00 000745 		ER3	AC,T
  4351	033734	312 05 0 00 043655 		CAME	AC+1,[377777,,-1]
  4352	033735	004 05 0 00 000745 		ER4	AC+1,T
  4353	033736	321 10 0 00 033730 		JUMPL	AC+4,.-^D6	;LOOP ON ERROR SWITCH^
  4354
  4355
  4356			000746		T=T+1
  4357		777777	777775			ZZ=ZZ+ZZ+1
  4358						IFE	<ZZ-1>,<ZZ=-2>
  4359						DFARP	T,777,ZZ,-1,-1,0,0,0,0,777,ZZ,377777,-1^
  4360						DMOVE	AC,[777,,ZZ
  4361	033737	120 04 0 00 044033 			-1,,-1]
  4362						DFAD	AC,[0,,0
  4363	033740	110 04 0 00 043354 			0,,0]
  4364	033741	312 04 0 00 044033 		CAME	AC,[777,,ZZ]
  4365	033742	003 04 0 00 000746 		ER3	AC,T
  4366	033743	312 05 0 00 043655 		CAME	AC+1,[377777,,-1]
  4367	033744	004 05 0 00 000746 		ER4	AC+1,T
  4368	033745	321 10 0 00 033737 		JUMPL	AC+4,.-^D6	;LOOP ON ERROR SWITCH^
  4369
  4370
  4371			000747		T=T+1
  4372		777777	777773			ZZ=ZZ+ZZ+1DBKCD 	PDP-10 KI10 ADVANCED INSTRUCTION DIAGNOSTIC #4, VERSION 0,3 	MACRO %52(462) 12:35  9-AUG-76 PAGE 5-11
DBKCDM	MAC	26-MAY-76 16:52		TEST AR, ARX, AD, ADX AND NORMALIZE LOGIC FOR DOUBLE FLOATING POINT OPERATIONS     SEQ 0098

  4373						IFE	<ZZ-1>,<ZZ=-2>
  4374						DFARP	T,777,ZZ,-1,-1,0,0,0,0,777,ZZ,377777,-1^
  4375						DMOVE	AC,[777,,ZZ
  4376	033746	120 04 0 00 044035 			-1,,-1]
  4377						DFAD	AC,[0,,0
  4378	033747	110 04 0 00 043354 			0,,0]
  4379	033750	312 04 0 00 044035 		CAME	AC,[777,,ZZ]
  4380	033751	003 04 0 00 000747 		ER3	AC,T
  4381	033752	312 05 0 00 043655 		CAME	AC+1,[377777,,-1]
  4382	033753	004 05 0 00 000747 		ER4	AC+1,T
  4383	033754	321 10 0 00 033746 		JUMPL	AC+4,.-^D6	;LOOP ON ERROR SWITCH^
  4384
  4385
  4386			000750		T=T+1
  4387		777777	777767			ZZ=ZZ+ZZ+1
  4388						IFE	<ZZ-1>,<ZZ=-2>
  4389						DFARP	T,777,ZZ,-1,-1,0,0,0,0,777,ZZ,377777,-1^
  4390						DMOVE	AC,[777,,ZZ
  4391	033755	120 04 0 00 044037 			-1,,-1]
  4392						DFAD	AC,[0,,0
  4393	033756	110 04 0 00 043354 			0,,0]
  4394	033757	312 04 0 00 044037 		CAME	AC,[777,,ZZ]
  4395	033760	003 04 0 00 000750 		ER3	AC,T
  4396	033761	312 05 0 00 043655 		CAME	AC+1,[377777,,-1]
  4397	033762	004 05 0 00 000750 		ER4	AC+1,T
  4398	033763	321 10 0 00 033755 		JUMPL	AC+4,.-^D6	;LOOP ON ERROR SWITCH^
  4399
  4400
  4401			000751		T=T+1
  4402		777777	777757			ZZ=ZZ+ZZ+1
  4403						IFE	<ZZ-1>,<ZZ=-2>
  4404						DFARP	T,777,ZZ,-1,-1,0,0,0,0,777,ZZ,377777,-1^
  4405						DMOVE	AC,[777,,ZZ
  4406	033764	120 04 0 00 044041 			-1,,-1]
  4407						DFAD	AC,[0,,0
  4408	033765	110 04 0 00 043354 			0,,0]
  4409	033766	312 04 0 00 044041 		CAME	AC,[777,,ZZ]
  4410	033767	003 04 0 00 000751 		ER3	AC,T
  4411	033770	312 05 0 00 043655 		CAME	AC+1,[377777,,-1]
  4412	033771	004 05 0 00 000751 		ER4	AC+1,T
  4413	033772	321 10 0 00 033764 		JUMPL	AC+4,.-^D6	;LOOP ON ERROR SWITCH^
  4414
  4415
  4416			000752		T=T+1
  4417		777777	777737			ZZ=ZZ+ZZ+1
  4418						IFE	<ZZ-1>,<ZZ=-2>
  4419						DFARP	T,777,ZZ,-1,-1,0,0,0,0,777,ZZ,377777,-1^
  4420						DMOVE	AC,[777,,ZZ
  4421	033773	120 04 0 00 044043 			-1,,-1]
  4422						DFAD	AC,[0,,0
  4423	033774	110 04 0 00 043354 			0,,0]
  4424	033775	312 04 0 00 044043 		CAME	AC,[777,,ZZ]
  4425	033776	003 04 0 00 000752 		ER3	AC,T
  4426	033777	312 05 0 00 043655 		CAME	AC+1,[377777,,-1]
  4427	034000	004 05 0 00 000752 		ER4	AC+1,TDBKCD 	PDP-10 KI10 ADVANCED INSTRUCTION DIAGNOSTIC #4, VERSION 0,3 	MACRO %52(462) 12:35  9-AUG-76 PAGE 5-12
DBKCDM	MAC	26-MAY-76 16:52		TEST AR, ARX, AD, ADX AND NORMALIZE LOGIC FOR DOUBLE FLOATING POINT OPERATIONS     SEQ 0099

  4428	034001	321 10 0 00 033773 		JUMPL	AC+4,.-^D6	;LOOP ON ERROR SWITCH^
  4429
  4430
  4431			000753		T=T+1
  4432		777777	777677			ZZ=ZZ+ZZ+1
  4433						IFE	<ZZ-1>,<ZZ=-2>
  4434						DFARP	T,777,ZZ,-1,-1,0,0,0,0,777,ZZ,377777,-1^
  4435						DMOVE	AC,[777,,ZZ
  4436	034002	120 04 0 00 044045 			-1,,-1]
  4437						DFAD	AC,[0,,0
  4438	034003	110 04 0 00 043354 			0,,0]
  4439	034004	312 04 0 00 044045 		CAME	AC,[777,,ZZ]
  4440	034005	003 04 0 00 000753 		ER3	AC,T
  4441	034006	312 05 0 00 043655 		CAME	AC+1,[377777,,-1]
  4442	034007	004 05 0 00 000753 		ER4	AC+1,T
  4443	034010	321 10 0 00 034002 		JUMPL	AC+4,.-^D6	;LOOP ON ERROR SWITCH^
  4444
  4445
  4446			000754		T=T+1
  4447		777777	777577			ZZ=ZZ+ZZ+1
  4448						IFE	<ZZ-1>,<ZZ=-2>
  4449						DFARP	T,777,ZZ,-1,-1,0,0,0,0,777,ZZ,377777,-1^
  4450						DMOVE	AC,[777,,ZZ
  4451	034011	120 04 0 00 044047 			-1,,-1]
  4452						DFAD	AC,[0,,0
  4453	034012	110 04 0 00 043354 			0,,0]
  4454	034013	312 04 0 00 044047 		CAME	AC,[777,,ZZ]
  4455	034014	003 04 0 00 000754 		ER3	AC,T
  4456	034015	312 05 0 00 043655 		CAME	AC+1,[377777,,-1]
  4457	034016	004 05 0 00 000754 		ER4	AC+1,T
  4458	034017	321 10 0 00 034011 		JUMPL	AC+4,.-^D6	;LOOP ON ERROR SWITCH^
  4459
  4460
  4461			000755		T=T+1
  4462		777777	777377			ZZ=ZZ+ZZ+1
  4463						IFE	<ZZ-1>,<ZZ=-2>
  4464						DFARP	T,777,ZZ,-1,-1,0,0,0,0,777,ZZ,377777,-1^
  4465						DMOVE	AC,[777,,ZZ
  4466	034020	120 04 0 00 044051 			-1,,-1]
  4467						DFAD	AC,[0,,0
  4468	034021	110 04 0 00 043354 			0,,0]
  4469	034022	312 04 0 00 044051 		CAME	AC,[777,,ZZ]
  4470	034023	003 04 0 00 000755 		ER3	AC,T
  4471	034024	312 05 0 00 043655 		CAME	AC+1,[377777,,-1]
  4472	034025	004 05 0 00 000755 		ER4	AC+1,T
  4473	034026	321 10 0 00 034020 		JUMPL	AC+4,.-^D6	;LOOP ON ERROR SWITCH^
  4474
  4475
  4476			000756		T=T+1
  4477		777777	776777			ZZ=ZZ+ZZ+1
  4478						IFE	<ZZ-1>,<ZZ=-2>
  4479						DFARP	T,777,ZZ,-1,-1,0,0,0,0,777,ZZ,377777,-1^
  4480						DMOVE	AC,[777,,ZZ
  4481	034027	120 04 0 00 044053 			-1,,-1]
  4482						DFAD	AC,[0,,0DBKCD 	PDP-10 KI10 ADVANCED INSTRUCTION DIAGNOSTIC #4, VERSION 0,3 	MACRO %52(462) 12:35  9-AUG-76 PAGE 5-13
DBKCDM	MAC	26-MAY-76 16:52		TEST AR, ARX, AD, ADX AND NORMALIZE LOGIC FOR DOUBLE FLOATING POINT OPERATIONS     SEQ 0100

  4483	034030	110 04 0 00 043354 			0,,0]
  4484	034031	312 04 0 00 044053 		CAME	AC,[777,,ZZ]
  4485	034032	003 04 0 00 000756 		ER3	AC,T
  4486	034033	312 05 0 00 043655 		CAME	AC+1,[377777,,-1]
  4487	034034	004 05 0 00 000756 		ER4	AC+1,T
  4488	034035	321 10 0 00 034027 		JUMPL	AC+4,.-^D6	;LOOP ON ERROR SWITCH^
  4489
  4490
  4491			000757		T=T+1
  4492		777777	775777			ZZ=ZZ+ZZ+1
  4493						IFE	<ZZ-1>,<ZZ=-2>
  4494						DFARP	T,777,ZZ,-1,-1,0,0,0,0,777,ZZ,377777,-1^
  4495						DMOVE	AC,[777,,ZZ
  4496	034036	120 04 0 00 044055 			-1,,-1]
  4497						DFAD	AC,[0,,0
  4498	034037	110 04 0 00 043354 			0,,0]
  4499	034040	312 04 0 00 044055 		CAME	AC,[777,,ZZ]
  4500	034041	003 04 0 00 000757 		ER3	AC,T
  4501	034042	312 05 0 00 043655 		CAME	AC+1,[377777,,-1]
  4502	034043	004 05 0 00 000757 		ER4	AC+1,T
  4503	034044	321 10 0 00 034036 		JUMPL	AC+4,.-^D6	;LOOP ON ERROR SWITCH^
  4504
  4505
  4506			000760		T=T+1
  4507		777777	773777			ZZ=ZZ+ZZ+1
  4508						IFE	<ZZ-1>,<ZZ=-2>
  4509						DFARP	T,777,ZZ,-1,-1,0,0,0,0,777,ZZ,377777,-1^
  4510						DMOVE	AC,[777,,ZZ
  4511	034045	120 04 0 00 044057 			-1,,-1]
  4512						DFAD	AC,[0,,0
  4513	034046	110 04 0 00 043354 			0,,0]
  4514	034047	312 04 0 00 044057 		CAME	AC,[777,,ZZ]
  4515	034050	003 04 0 00 000760 		ER3	AC,T
  4516	034051	312 05 0 00 043655 		CAME	AC+1,[377777,,-1]
  4517	034052	004 05 0 00 000760 		ER4	AC+1,T
  4518	034053	321 10 0 00 034045 		JUMPL	AC+4,.-^D6	;LOOP ON ERROR SWITCH^
  4519
  4520
  4521			000761		T=T+1
  4522		777777	767777			ZZ=ZZ+ZZ+1
  4523						IFE	<ZZ-1>,<ZZ=-2>
  4524						DFARP	T,777,ZZ,-1,-1,0,0,0,0,777,ZZ,377777,-1^
  4525						DMOVE	AC,[777,,ZZ
  4526	034054	120 04 0 00 044061 			-1,,-1]
  4527						DFAD	AC,[0,,0
  4528	034055	110 04 0 00 043354 			0,,0]
  4529	034056	312 04 0 00 044061 		CAME	AC,[777,,ZZ]
  4530	034057	003 04 0 00 000761 		ER3	AC,T
  4531	034060	312 05 0 00 043655 		CAME	AC+1,[377777,,-1]
  4532	034061	004 05 0 00 000761 		ER4	AC+1,T
  4533	034062	321 10 0 00 034054 		JUMPL	AC+4,.-^D6	;LOOP ON ERROR SWITCH^
  4534
  4535
  4536			000762		T=T+1
  4537		777777	757777			ZZ=ZZ+ZZ+1DBKCD 	PDP-10 KI10 ADVANCED INSTRUCTION DIAGNOSTIC #4, VERSION 0,3 	MACRO %52(462) 12:35  9-AUG-76 PAGE 5-14
DBKCDM	MAC	26-MAY-76 16:52		TEST AR, ARX, AD, ADX AND NORMALIZE LOGIC FOR DOUBLE FLOATING POINT OPERATIONS     SEQ 0101

  4538						IFE	<ZZ-1>,<ZZ=-2>
  4539						DFARP	T,777,ZZ,-1,-1,0,0,0,0,777,ZZ,377777,-1^
  4540						DMOVE	AC,[777,,ZZ
  4541	034063	120 04 0 00 044063 			-1,,-1]
  4542						DFAD	AC,[0,,0
  4543	034064	110 04 0 00 043354 			0,,0]
  4544	034065	312 04 0 00 044063 		CAME	AC,[777,,ZZ]
  4545	034066	003 04 0 00 000762 		ER3	AC,T
  4546	034067	312 05 0 00 043655 		CAME	AC+1,[377777,,-1]
  4547	034070	004 05 0 00 000762 		ER4	AC+1,T
  4548	034071	321 10 0 00 034063 		JUMPL	AC+4,.-^D6	;LOOP ON ERROR SWITCH^
  4549
  4550
  4551			000763		T=T+1
  4552		777777	737777			ZZ=ZZ+ZZ+1
  4553						IFE	<ZZ-1>,<ZZ=-2>
  4554						DFARP	T,777,ZZ,-1,-1,0,0,0,0,777,ZZ,377777,-1^
  4555						DMOVE	AC,[777,,ZZ
  4556	034072	120 04 0 00 044065 			-1,,-1]
  4557						DFAD	AC,[0,,0
  4558	034073	110 04 0 00 043354 			0,,0]
  4559	034074	312 04 0 00 044065 		CAME	AC,[777,,ZZ]
  4560	034075	003 04 0 00 000763 		ER3	AC,T
  4561	034076	312 05 0 00 043655 		CAME	AC+1,[377777,,-1]
  4562	034077	004 05 0 00 000763 		ER4	AC+1,T
  4563	034100	321 10 0 00 034072 		JUMPL	AC+4,.-^D6	;LOOP ON ERROR SWITCH^
  4564
  4565
  4566			000764		T=T+1
  4567		777777	677777			ZZ=ZZ+ZZ+1
  4568						IFE	<ZZ-1>,<ZZ=-2>
  4569						DFARP	T,777,ZZ,-1,-1,0,0,0,0,777,ZZ,377777,-1^
  4570						DMOVE	AC,[777,,ZZ
  4571	034101	120 04 0 00 044067 			-1,,-1]
  4572						DFAD	AC,[0,,0
  4573	034102	110 04 0 00 043354 			0,,0]
  4574	034103	312 04 0 00 044067 		CAME	AC,[777,,ZZ]
  4575	034104	003 04 0 00 000764 		ER3	AC,T
  4576	034105	312 05 0 00 043655 		CAME	AC+1,[377777,,-1]
  4577	034106	004 05 0 00 000764 		ER4	AC+1,T
  4578	034107	321 10 0 00 034101 		JUMPL	AC+4,.-^D6	;LOOP ON ERROR SWITCH^
  4579
  4580
  4581			000765		T=T+1
  4582		777777	577777			ZZ=ZZ+ZZ+1
  4583						IFE	<ZZ-1>,<ZZ=-2>
  4584						DFARP	T,777,ZZ,-1,-1,0,0,0,0,777,ZZ,377777,-1^
  4585						DMOVE	AC,[777,,ZZ
  4586	034110	120 04 0 00 044071 			-1,,-1]
  4587						DFAD	AC,[0,,0
  4588	034111	110 04 0 00 043354 			0,,0]
  4589	034112	312 04 0 00 044071 		CAME	AC,[777,,ZZ]
  4590	034113	003 04 0 00 000765 		ER3	AC,T
  4591	034114	312 05 0 00 043655 		CAME	AC+1,[377777,,-1]
  4592	034115	004 05 0 00 000765 		ER4	AC+1,TDBKCD 	PDP-10 KI10 ADVANCED INSTRUCTION DIAGNOSTIC #4, VERSION 0,3 	MACRO %52(462) 12:35  9-AUG-76 PAGE 5-15
DBKCDM	MAC	26-MAY-76 16:52		TEST AR, ARX, AD, ADX AND NORMALIZE LOGIC FOR DOUBLE FLOATING POINT OPERATIONS     SEQ 0102

  4593	034116	321 10 0 00 034110 		JUMPL	AC+4,.-^D6	;LOOP ON ERROR SWITCH^
  4594
  4595
  4596			000766		T=T+1
  4597		777777	377777			ZZ=ZZ+ZZ+1
  4598						IFE	<ZZ-1>,<ZZ=-2>
  4599						DFARP	T,777,ZZ,-1,-1,0,0,0,0,777,ZZ,377777,-1^
  4600						DMOVE	AC,[777,,ZZ
  4601	034117	120 04 0 00 044073 			-1,,-1]
  4602						DFAD	AC,[0,,0
  4603	034120	110 04 0 00 043354 			0,,0]
  4604	034121	312 04 0 00 044073 		CAME	AC,[777,,ZZ]
  4605	034122	003 04 0 00 000766 		ER3	AC,T
  4606	034123	312 05 0 00 043655 		CAME	AC+1,[377777,,-1]
  4607	034124	004 05 0 00 000766 		ER4	AC+1,T
  4608	034125	321 10 0 00 034117 		JUMPL	AC+4,.-^D6	;LOOP ON ERROR SWITCH^
  4609
  4610
  4611			000000			ZZ=0
  4612
  4613
  4614						REPEAT	^D8,<
  4615					T=T+1
  4616						ZZ=ZZ+ZZ+1
  4617						IFE	<ZZ-1>,<ZZ=-2>
  4618						DFARP	T,ZZ&777,-1,-1,-1,0,0,0,0,ZZ&777,-1,377777,-1
  4619					>
  4620
  4621			000767		T=T+1
  4622			000001			ZZ=ZZ+ZZ+1
  4623		777777	777776			IFE	<ZZ-1>,<ZZ=-2>
  4624						DFARP	T,ZZ&777,-1,-1,-1,0,0,0,0,ZZ&777,-1,377777,-1^
  4625						DMOVE	AC,[ZZ&777,,-1
  4626	034126	120 04 0 00 044075 			-1,,-1]
  4627						DFAD	AC,[0,,0
  4628	034127	110 04 0 00 043354 			0,,0]
  4629	034130	312 04 0 00 044075 		CAME	AC,[ZZ&777,,-1]
  4630	034131	003 04 0 00 000767 		ER3	AC,T
  4631	034132	312 05 0 00 043655 		CAME	AC+1,[377777,,-1]
  4632	034133	004 05 0 00 000767 		ER4	AC+1,T
  4633	034134	321 10 0 00 034126 		JUMPL	AC+4,.-^D6	;LOOP ON ERROR SWITCH^
  4634
  4635
  4636			000770		T=T+1
  4637		777777	777775			ZZ=ZZ+ZZ+1
  4638						IFE	<ZZ-1>,<ZZ=-2>
  4639						DFARP	T,ZZ&777,-1,-1,-1,0,0,0,0,ZZ&777,-1,377777,-1^
  4640						DMOVE	AC,[ZZ&777,,-1
  4641	034135	120 04 0 00 044077 			-1,,-1]
  4642						DFAD	AC,[0,,0
  4643	034136	110 04 0 00 043354 			0,,0]
  4644	034137	312 04 0 00 044077 		CAME	AC,[ZZ&777,,-1]
  4645	034140	003 04 0 00 000770 		ER3	AC,T
  4646	034141	312 05 0 00 043655 		CAME	AC+1,[377777,,-1]
  4647	034142	004 05 0 00 000770 		ER4	AC+1,TDBKCD 	PDP-10 KI10 ADVANCED INSTRUCTION DIAGNOSTIC #4, VERSION 0,3 	MACRO %52(462) 12:35  9-AUG-76 PAGE 5-16
DBKCDM	MAC	26-MAY-76 16:52		TEST AR, ARX, AD, ADX AND NORMALIZE LOGIC FOR DOUBLE FLOATING POINT OPERATIONS     SEQ 0103

  4648	034143	321 10 0 00 034135 		JUMPL	AC+4,.-^D6	;LOOP ON ERROR SWITCH^
  4649
  4650
  4651			000771		T=T+1
  4652		777777	777773			ZZ=ZZ+ZZ+1
  4653						IFE	<ZZ-1>,<ZZ=-2>
  4654						DFARP	T,ZZ&777,-1,-1,-1,0,0,0,0,ZZ&777,-1,377777,-1^
  4655						DMOVE	AC,[ZZ&777,,-1
  4656	034144	120 04 0 00 044101 			-1,,-1]
  4657						DFAD	AC,[0,,0
  4658	034145	110 04 0 00 043354 			0,,0]
  4659	034146	312 04 0 00 044101 		CAME	AC,[ZZ&777,,-1]
  4660	034147	003 04 0 00 000771 		ER3	AC,T
  4661	034150	312 05 0 00 043655 		CAME	AC+1,[377777,,-1]
  4662	034151	004 05 0 00 000771 		ER4	AC+1,T
  4663	034152	321 10 0 00 034144 		JUMPL	AC+4,.-^D6	;LOOP ON ERROR SWITCH^
  4664
  4665
  4666			000772		T=T+1
  4667		777777	777767			ZZ=ZZ+ZZ+1
  4668						IFE	<ZZ-1>,<ZZ=-2>
  4669						DFARP	T,ZZ&777,-1,-1,-1,0,0,0,0,ZZ&777,-1,377777,-1^
  4670						DMOVE	AC,[ZZ&777,,-1
  4671	034153	120 04 0 00 044103 			-1,,-1]
  4672						DFAD	AC,[0,,0
  4673	034154	110 04 0 00 043354 			0,,0]
  4674	034155	312 04 0 00 044103 		CAME	AC,[ZZ&777,,-1]
  4675	034156	003 04 0 00 000772 		ER3	AC,T
  4676	034157	312 05 0 00 043655 		CAME	AC+1,[377777,,-1]
  4677	034160	004 05 0 00 000772 		ER4	AC+1,T
  4678	034161	321 10 0 00 034153 		JUMPL	AC+4,.-^D6	;LOOP ON ERROR SWITCH^
  4679
  4680
  4681			000773		T=T+1
  4682		777777	777757			ZZ=ZZ+ZZ+1
  4683						IFE	<ZZ-1>,<ZZ=-2>
  4684						DFARP	T,ZZ&777,-1,-1,-1,0,0,0,0,ZZ&777,-1,377777,-1^
  4685						DMOVE	AC,[ZZ&777,,-1
  4686	034162	120 04 0 00 044105 			-1,,-1]
  4687						DFAD	AC,[0,,0
  4688	034163	110 04 0 00 043354 			0,,0]
  4689	034164	312 04 0 00 044105 		CAME	AC,[ZZ&777,,-1]
  4690	034165	003 04 0 00 000773 		ER3	AC,T
  4691	034166	312 05 0 00 043655 		CAME	AC+1,[377777,,-1]
  4692	034167	004 05 0 00 000773 		ER4	AC+1,T
  4693	034170	321 10 0 00 034162 		JUMPL	AC+4,.-^D6	;LOOP ON ERROR SWITCH^
  4694
  4695
  4696			000774		T=T+1
  4697		777777	777737			ZZ=ZZ+ZZ+1
  4698						IFE	<ZZ-1>,<ZZ=-2>
  4699						DFARP	T,ZZ&777,-1,-1,-1,0,0,0,0,ZZ&777,-1,377777,-1^
  4700						DMOVE	AC,[ZZ&777,,-1
  4701	034171	120 04 0 00 044107 			-1,,-1]
  4702						DFAD	AC,[0,,0DBKCD 	PDP-10 KI10 ADVANCED INSTRUCTION DIAGNOSTIC #4, VERSION 0,3 	MACRO %52(462) 12:35  9-AUG-76 PAGE 5-17
DBKCDM	MAC	26-MAY-76 16:52		TEST AR, ARX, AD, ADX AND NORMALIZE LOGIC FOR DOUBLE FLOATING POINT OPERATIONS     SEQ 0104

  4703	034172	110 04 0 00 043354 			0,,0]
  4704	034173	312 04 0 00 044107 		CAME	AC,[ZZ&777,,-1]
  4705	034174	003 04 0 00 000774 		ER3	AC,T
  4706	034175	312 05 0 00 043655 		CAME	AC+1,[377777,,-1]
  4707	034176	004 05 0 00 000774 		ER4	AC+1,T
  4708	034177	321 10 0 00 034171 		JUMPL	AC+4,.-^D6	;LOOP ON ERROR SWITCH^
  4709
  4710
  4711			000775		T=T+1
  4712		777777	777677			ZZ=ZZ+ZZ+1
  4713						IFE	<ZZ-1>,<ZZ=-2>
  4714						DFARP	T,ZZ&777,-1,-1,-1,0,0,0,0,ZZ&777,-1,377777,-1^
  4715						DMOVE	AC,[ZZ&777,,-1
  4716	034200	120 04 0 00 044111 			-1,,-1]
  4717						DFAD	AC,[0,,0
  4718	034201	110 04 0 00 043354 			0,,0]
  4719	034202	312 04 0 00 044111 		CAME	AC,[ZZ&777,,-1]
  4720	034203	003 04 0 00 000775 		ER3	AC,T
  4721	034204	312 05 0 00 043655 		CAME	AC+1,[377777,,-1]
  4722	034205	004 05 0 00 000775 		ER4	AC+1,T
  4723	034206	321 10 0 00 034200 		JUMPL	AC+4,.-^D6	;LOOP ON ERROR SWITCH^
  4724
  4725
  4726			000776		T=T+1
  4727		777777	777577			ZZ=ZZ+ZZ+1
  4728						IFE	<ZZ-1>,<ZZ=-2>
  4729						DFARP	T,ZZ&777,-1,-1,-1,0,0,0,0,ZZ&777,-1,377777,-1^
  4730						DMOVE	AC,[ZZ&777,,-1
  4731	034207	120 04 0 00 044113 			-1,,-1]
  4732						DFAD	AC,[0,,0
  4733	034210	110 04 0 00 043354 			0,,0]
  4734	034211	312 04 0 00 044113 		CAME	AC,[ZZ&777,,-1]
  4735	034212	003 04 0 00 000776 		ER3	AC,T
  4736	034213	312 05 0 00 043655 		CAME	AC+1,[377777,,-1]
  4737	034214	004 05 0 00 000776 		ER4	AC+1,T
  4738	034215	321 10 0 00 034207 		JUMPL	AC+4,.-^D6	;LOOP ON ERROR SWITCH^
  4739
  4740
  4741			000777		T=T+1
  4742						DFARP	T,0,0,0,0,1377,-1,-1,-1,777,-1,377777,-2^
  4743						DMOVE	AC,[0,,0
  4744	034216	120 04 0 00 043354 			0,,0]
  4745						DFAD	AC,[1377,,-1
  4746	034217	110 04 0 00 044115 			-1,,-1]
  4747	034220	312 04 0 00 043653 		CAME	AC,[777,,-1]
  4748	034221	003 04 0 00 000777 		ER3	AC,T
  4749	034222	312 05 0 00 043660 		CAME	AC+1,[377777,,-2]
  4750	034223	004 05 0 00 000777 		ER4	AC+1,T
  4751	034224	321 10 0 00 034216 		JUMPL	AC+4,.-^D6	;LOOP ON ERROR SWITCH^DBKCD 	PDP-10 KI10 ADVANCED INSTRUCTION DIAGNOSTIC #4, VERSION 0,3 	MACRO %52(462) 12:35  9-AUG-76 PAGE 6
DBKCDM	MAC	26-MAY-76 16:52		TEST AR, ARX, AD, ADX AND NORMALIZE LOGIC FOR DOUBLE FLOATING POINT OPERATIONS     SEQ 0105

  4752					;RIPPLE ZEROS - RIPPLE ONES COMBINED (ADD A RIPPLED ONE TO A RIPPLED ZERO)
  4753
  4754			001000		T=1000
  4755			000000			XX=0
  4756			000000			ZZ=0
  4757
  4758
  4759					R1000:	REPEAT	^D18,<
  4760					T=T+1
  4761						XX=XX+XX+1
  4762						IFE	<XX-1>,<XX=-2>
  4763						ZZ=ZZ+ZZ
  4764						IFE	ZZ,<ZZ=1>
  4765						DFARP	T,777,-1,-1,XX,0,0,0,ZZ,777,-1,377777,-1
  4766					>
  4767
  4768			001001		T=T+1
  4769			000001			XX=XX+XX+1
  4770		777777	777776			IFE	<XX-1>,<XX=-2>
  4771			000000			ZZ=ZZ+ZZ
  4772			000001			IFE	ZZ,<ZZ=1>
  4773						DFARP	T,777,-1,-1,XX,0,0,0,ZZ,777,-1,377777,-1^
  4774						DMOVE	AC,[777,,-1
  4775	034225	120 04 0 00 043656 			-1,,XX]
  4776						DFAD	AC,[0,,0
  4777	034226	110 04 0 00 044117 			0,,ZZ]
  4778	034227	312 04 0 00 043653 		CAME	AC,[777,,-1]
  4779	034230	003 04 0 00 001001 		ER3	AC,T
  4780	034231	312 05 0 00 043655 		CAME	AC+1,[377777,,-1]
  4781	034232	004 05 0 00 001001 		ER4	AC+1,T
  4782	034233	321 10 0 00 034225 		JUMPL	AC+4,.-^D6	;LOOP ON ERROR SWITCH^
  4783
  4784
  4785			001002		T=T+1
  4786		777777	777775			XX=XX+XX+1
  4787						IFE	<XX-1>,<XX=-2>
  4788			000002			ZZ=ZZ+ZZ
  4789						IFE	ZZ,<ZZ=1>
  4790						DFARP	T,777,-1,-1,XX,0,0,0,ZZ,777,-1,377777,-1^
  4791						DMOVE	AC,[777,,-1
  4792	034234	120 04 0 00 043661 			-1,,XX]
  4793						DFAD	AC,[0,,0
  4794	034235	110 04 0 00 044121 			0,,ZZ]
  4795	034236	312 04 0 00 043653 		CAME	AC,[777,,-1]
  4796	034237	003 04 0 00 001002 		ER3	AC,T
  4797	034240	312 05 0 00 043655 		CAME	AC+1,[377777,,-1]
  4798	034241	004 05 0 00 001002 		ER4	AC+1,T
  4799	034242	321 10 0 00 034234 		JUMPL	AC+4,.-^D6	;LOOP ON ERROR SWITCH^
  4800
  4801
  4802			001003		T=T+1
  4803		777777	777773			XX=XX+XX+1
  4804						IFE	<XX-1>,<XX=-2>
  4805			000004			ZZ=ZZ+ZZ
  4806						IFE	ZZ,<ZZ=1>DBKCD 	PDP-10 KI10 ADVANCED INSTRUCTION DIAGNOSTIC #4, VERSION 0,3 	MACRO %52(462) 12:35  9-AUG-76 PAGE 6-1
DBKCDM	MAC	26-MAY-76 16:52		TEST AR, ARX, AD, ADX AND NORMALIZE LOGIC FOR DOUBLE FLOATING POINT OPERATIONS     SEQ 0106

  4807						DFARP	T,777,-1,-1,XX,0,0,0,ZZ,777,-1,377777,-1^
  4808						DMOVE	AC,[777,,-1
  4809	034243	120 04 0 00 043664 			-1,,XX]
  4810						DFAD	AC,[0,,0
  4811	034244	110 04 0 00 044123 			0,,ZZ]
  4812	034245	312 04 0 00 043653 		CAME	AC,[777,,-1]
  4813	034246	003 04 0 00 001003 		ER3	AC,T
  4814	034247	312 05 0 00 043655 		CAME	AC+1,[377777,,-1]
  4815	034250	004 05 0 00 001003 		ER4	AC+1,T
  4816	034251	321 10 0 00 034243 		JUMPL	AC+4,.-^D6	;LOOP ON ERROR SWITCH^
  4817
  4818
  4819			001004		T=T+1
  4820		777777	777767			XX=XX+XX+1
  4821						IFE	<XX-1>,<XX=-2>
  4822			000010			ZZ=ZZ+ZZ
  4823						IFE	ZZ,<ZZ=1>
  4824						DFARP	T,777,-1,-1,XX,0,0,0,ZZ,777,-1,377777,-1^
  4825						DMOVE	AC,[777,,-1
  4826	034252	120 04 0 00 043667 			-1,,XX]
  4827						DFAD	AC,[0,,0
  4828	034253	110 04 0 00 044125 			0,,ZZ]
  4829	034254	312 04 0 00 043653 		CAME	AC,[777,,-1]
  4830	034255	003 04 0 00 001004 		ER3	AC,T
  4831	034256	312 05 0 00 043655 		CAME	AC+1,[377777,,-1]
  4832	034257	004 05 0 00 001004 		ER4	AC+1,T
  4833	034260	321 10 0 00 034252 		JUMPL	AC+4,.-^D6	;LOOP ON ERROR SWITCH^
  4834
  4835
  4836			001005		T=T+1
  4837		777777	777757			XX=XX+XX+1
  4838						IFE	<XX-1>,<XX=-2>
  4839			000020			ZZ=ZZ+ZZ
  4840						IFE	ZZ,<ZZ=1>
  4841						DFARP	T,777,-1,-1,XX,0,0,0,ZZ,777,-1,377777,-1^
  4842						DMOVE	AC,[777,,-1
  4843	034261	120 04 0 00 043672 			-1,,XX]
  4844						DFAD	AC,[0,,0
  4845	034262	110 04 0 00 044127 			0,,ZZ]
  4846	034263	312 04 0 00 043653 		CAME	AC,[777,,-1]
  4847	034264	003 04 0 00 001005 		ER3	AC,T
  4848	034265	312 05 0 00 043655 		CAME	AC+1,[377777,,-1]
  4849	034266	004 05 0 00 001005 		ER4	AC+1,T
  4850	034267	321 10 0 00 034261 		JUMPL	AC+4,.-^D6	;LOOP ON ERROR SWITCH^
  4851
  4852
  4853			001006		T=T+1
  4854		777777	777737			XX=XX+XX+1
  4855						IFE	<XX-1>,<XX=-2>
  4856			000040			ZZ=ZZ+ZZ
  4857						IFE	ZZ,<ZZ=1>
  4858						DFARP	T,777,-1,-1,XX,0,0,0,ZZ,777,-1,377777,-1^
  4859						DMOVE	AC,[777,,-1
  4860	034270	120 04 0 00 043675 			-1,,XX]
  4861						DFAD	AC,[0,,0DBKCD 	PDP-10 KI10 ADVANCED INSTRUCTION DIAGNOSTIC #4, VERSION 0,3 	MACRO %52(462) 12:35  9-AUG-76 PAGE 6-2
DBKCDM	MAC	26-MAY-76 16:52		TEST AR, ARX, AD, ADX AND NORMALIZE LOGIC FOR DOUBLE FLOATING POINT OPERATIONS     SEQ 0107

  4862	034271	110 04 0 00 044131 			0,,ZZ]
  4863	034272	312 04 0 00 043653 		CAME	AC,[777,,-1]
  4864	034273	003 04 0 00 001006 		ER3	AC,T
  4865	034274	312 05 0 00 043655 		CAME	AC+1,[377777,,-1]
  4866	034275	004 05 0 00 001006 		ER4	AC+1,T
  4867	034276	321 10 0 00 034270 		JUMPL	AC+4,.-^D6	;LOOP ON ERROR SWITCH^
  4868
  4869
  4870			001007		T=T+1
  4871		777777	777677			XX=XX+XX+1
  4872						IFE	<XX-1>,<XX=-2>
  4873			000100			ZZ=ZZ+ZZ
  4874						IFE	ZZ,<ZZ=1>
  4875						DFARP	T,777,-1,-1,XX,0,0,0,ZZ,777,-1,377777,-1^
  4876						DMOVE	AC,[777,,-1
  4877	034277	120 04 0 00 043700 			-1,,XX]
  4878						DFAD	AC,[0,,0
  4879	034300	110 04 0 00 044133 			0,,ZZ]
  4880	034301	312 04 0 00 043653 		CAME	AC,[777,,-1]
  4881	034302	003 04 0 00 001007 		ER3	AC,T
  4882	034303	312 05 0 00 043655 		CAME	AC+1,[377777,,-1]
  4883	034304	004 05 0 00 001007 		ER4	AC+1,T
  4884	034305	321 10 0 00 034277 		JUMPL	AC+4,.-^D6	;LOOP ON ERROR SWITCH^
  4885
  4886
  4887			001010		T=T+1
  4888		777777	777577			XX=XX+XX+1
  4889						IFE	<XX-1>,<XX=-2>
  4890			000200			ZZ=ZZ+ZZ
  4891						IFE	ZZ,<ZZ=1>
  4892						DFARP	T,777,-1,-1,XX,0,0,0,ZZ,777,-1,377777,-1^
  4893						DMOVE	AC,[777,,-1
  4894	034306	120 04 0 00 043703 			-1,,XX]
  4895						DFAD	AC,[0,,0
  4896	034307	110 04 0 00 044135 			0,,ZZ]
  4897	034310	312 04 0 00 043653 		CAME	AC,[777,,-1]
  4898	034311	003 04 0 00 001010 		ER3	AC,T
  4899	034312	312 05 0 00 043655 		CAME	AC+1,[377777,,-1]
  4900	034313	004 05 0 00 001010 		ER4	AC+1,T
  4901	034314	321 10 0 00 034306 		JUMPL	AC+4,.-^D6	;LOOP ON ERROR SWITCH^
  4902
  4903
  4904			001011		T=T+1
  4905		777777	777377			XX=XX+XX+1
  4906						IFE	<XX-1>,<XX=-2>
  4907			000400			ZZ=ZZ+ZZ
  4908						IFE	ZZ,<ZZ=1>
  4909						DFARP	T,777,-1,-1,XX,0,0,0,ZZ,777,-1,377777,-1^
  4910						DMOVE	AC,[777,,-1
  4911	034315	120 04 0 00 043706 			-1,,XX]
  4912						DFAD	AC,[0,,0
  4913	034316	110 04 0 00 044137 			0,,ZZ]
  4914	034317	312 04 0 00 043653 		CAME	AC,[777,,-1]
  4915	034320	003 04 0 00 001011 		ER3	AC,T
  4916	034321	312 05 0 00 043655 		CAME	AC+1,[377777,,-1]DBKCD 	PDP-10 KI10 ADVANCED INSTRUCTION DIAGNOSTIC #4, VERSION 0,3 	MACRO %52(462) 12:35  9-AUG-76 PAGE 6-3
DBKCDM	MAC	26-MAY-76 16:52		TEST AR, ARX, AD, ADX AND NORMALIZE LOGIC FOR DOUBLE FLOATING POINT OPERATIONS     SEQ 0108

  4917	034322	004 05 0 00 001011 		ER4	AC+1,T
  4918	034323	321 10 0 00 034315 		JUMPL	AC+4,.-^D6	;LOOP ON ERROR SWITCH^
  4919
  4920
  4921			001012		T=T+1
  4922		777777	776777			XX=XX+XX+1
  4923						IFE	<XX-1>,<XX=-2>
  4924			001000			ZZ=ZZ+ZZ
  4925						IFE	ZZ,<ZZ=1>
  4926						DFARP	T,777,-1,-1,XX,0,0,0,ZZ,777,-1,377777,-1^
  4927						DMOVE	AC,[777,,-1
  4928	034324	120 04 0 00 043711 			-1,,XX]
  4929						DFAD	AC,[0,,0
  4930	034325	110 04 0 00 044141 			0,,ZZ]
  4931	034326	312 04 0 00 043653 		CAME	AC,[777,,-1]
  4932	034327	003 04 0 00 001012 		ER3	AC,T
  4933	034330	312 05 0 00 043655 		CAME	AC+1,[377777,,-1]
  4934	034331	004 05 0 00 001012 		ER4	AC+1,T
  4935	034332	321 10 0 00 034324 		JUMPL	AC+4,.-^D6	;LOOP ON ERROR SWITCH^
  4936
  4937
  4938			001013		T=T+1
  4939		777777	775777			XX=XX+XX+1
  4940						IFE	<XX-1>,<XX=-2>
  4941			002000			ZZ=ZZ+ZZ
  4942						IFE	ZZ,<ZZ=1>
  4943						DFARP	T,777,-1,-1,XX,0,0,0,ZZ,777,-1,377777,-1^
  4944						DMOVE	AC,[777,,-1
  4945	034333	120 04 0 00 043714 			-1,,XX]
  4946						DFAD	AC,[0,,0
  4947	034334	110 04 0 00 044143 			0,,ZZ]
  4948	034335	312 04 0 00 043653 		CAME	AC,[777,,-1]
  4949	034336	003 04 0 00 001013 		ER3	AC,T
  4950	034337	312 05 0 00 043655 		CAME	AC+1,[377777,,-1]
  4951	034340	004 05 0 00 001013 		ER4	AC+1,T
  4952	034341	321 10 0 00 034333 		JUMPL	AC+4,.-^D6	;LOOP ON ERROR SWITCH^
  4953
  4954
  4955			001014		T=T+1
  4956		777777	773777			XX=XX+XX+1
  4957						IFE	<XX-1>,<XX=-2>
  4958			004000			ZZ=ZZ+ZZ
  4959						IFE	ZZ,<ZZ=1>
  4960						DFARP	T,777,-1,-1,XX,0,0,0,ZZ,777,-1,377777,-1^
  4961						DMOVE	AC,[777,,-1
  4962	034342	120 04 0 00 043717 			-1,,XX]
  4963						DFAD	AC,[0,,0
  4964	034343	110 04 0 00 044145 			0,,ZZ]
  4965	034344	312 04 0 00 043653 		CAME	AC,[777,,-1]
  4966	034345	003 04 0 00 001014 		ER3	AC,T
  4967	034346	312 05 0 00 043655 		CAME	AC+1,[377777,,-1]
  4968	034347	004 05 0 00 001014 		ER4	AC+1,T
  4969	034350	321 10 0 00 034342 		JUMPL	AC+4,.-^D6	;LOOP ON ERROR SWITCH^
  4970
  4971DBKCD 	PDP-10 KI10 ADVANCED INSTRUCTION DIAGNOSTIC #4, VERSION 0,3 	MACRO %52(462) 12:35  9-AUG-76 PAGE 6-4
DBKCDM	MAC	26-MAY-76 16:52		TEST AR, ARX, AD, ADX AND NORMALIZE LOGIC FOR DOUBLE FLOATING POINT OPERATIONS     SEQ 0109

  4972			001015		T=T+1
  4973		777777	767777			XX=XX+XX+1
  4974						IFE	<XX-1>,<XX=-2>
  4975			010000			ZZ=ZZ+ZZ
  4976						IFE	ZZ,<ZZ=1>
  4977						DFARP	T,777,-1,-1,XX,0,0,0,ZZ,777,-1,377777,-1^
  4978						DMOVE	AC,[777,,-1
  4979	034351	120 04 0 00 043722 			-1,,XX]
  4980						DFAD	AC,[0,,0
  4981	034352	110 04 0 00 044147 			0,,ZZ]
  4982	034353	312 04 0 00 043653 		CAME	AC,[777,,-1]
  4983	034354	003 04 0 00 001015 		ER3	AC,T
  4984	034355	312 05 0 00 043655 		CAME	AC+1,[377777,,-1]
  4985	034356	004 05 0 00 001015 		ER4	AC+1,T
  4986	034357	321 10 0 00 034351 		JUMPL	AC+4,.-^D6	;LOOP ON ERROR SWITCH^
  4987
  4988
  4989			001016		T=T+1
  4990		777777	757777			XX=XX+XX+1
  4991						IFE	<XX-1>,<XX=-2>
  4992			020000			ZZ=ZZ+ZZ
  4993						IFE	ZZ,<ZZ=1>
  4994						DFARP	T,777,-1,-1,XX,0,0,0,ZZ,777,-1,377777,-1^
  4995						DMOVE	AC,[777,,-1
  4996	034360	120 04 0 00 043725 			-1,,XX]
  4997						DFAD	AC,[0,,0
  4998	034361	110 04 0 00 044151 			0,,ZZ]
  4999	034362	312 04 0 00 043653 		CAME	AC,[777,,-1]
  5000	034363	003 04 0 00 001016 		ER3	AC,T
  5001	034364	312 05 0 00 043655 		CAME	AC+1,[377777,,-1]
  5002	034365	004 05 0 00 001016 		ER4	AC+1,T
  5003	034366	321 10 0 00 034360 		JUMPL	AC+4,.-^D6	;LOOP ON ERROR SWITCH^
  5004
  5005
  5006			001017		T=T+1
  5007		777777	737777			XX=XX+XX+1
  5008						IFE	<XX-1>,<XX=-2>
  5009			040000			ZZ=ZZ+ZZ
  5010						IFE	ZZ,<ZZ=1>
  5011						DFARP	T,777,-1,-1,XX,0,0,0,ZZ,777,-1,377777,-1^
  5012						DMOVE	AC,[777,,-1
  5013	034367	120 04 0 00 043730 			-1,,XX]
  5014						DFAD	AC,[0,,0
  5015	034370	110 04 0 00 044153 			0,,ZZ]
  5016	034371	312 04 0 00 043653 		CAME	AC,[777,,-1]
  5017	034372	003 04 0 00 001017 		ER3	AC,T
  5018	034373	312 05 0 00 043655 		CAME	AC+1,[377777,,-1]
  5019	034374	004 05 0 00 001017 		ER4	AC+1,T
  5020	034375	321 10 0 00 034367 		JUMPL	AC+4,.-^D6	;LOOP ON ERROR SWITCH^
  5021
  5022
  5023			001020		T=T+1
  5024		777777	677777			XX=XX+XX+1
  5025						IFE	<XX-1>,<XX=-2>
  5026			100000			ZZ=ZZ+ZZDBKCD 	PDP-10 KI10 ADVANCED INSTRUCTION DIAGNOSTIC #4, VERSION 0,3 	MACRO %52(462) 12:35  9-AUG-76 PAGE 6-5
DBKCDM	MAC	26-MAY-76 16:52		TEST AR, ARX, AD, ADX AND NORMALIZE LOGIC FOR DOUBLE FLOATING POINT OPERATIONS     SEQ 0110

  5027						IFE	ZZ,<ZZ=1>
  5028						DFARP	T,777,-1,-1,XX,0,0,0,ZZ,777,-1,377777,-1^
  5029						DMOVE	AC,[777,,-1
  5030	034376	120 04 0 00 043733 			-1,,XX]
  5031						DFAD	AC,[0,,0
  5032	034377	110 04 0 00 044155 			0,,ZZ]
  5033	034400	312 04 0 00 043653 		CAME	AC,[777,,-1]
  5034	034401	003 04 0 00 001020 		ER3	AC,T
  5035	034402	312 05 0 00 043655 		CAME	AC+1,[377777,,-1]
  5036	034403	004 05 0 00 001020 		ER4	AC+1,T
  5037	034404	321 10 0 00 034376 		JUMPL	AC+4,.-^D6	;LOOP ON ERROR SWITCH^
  5038
  5039
  5040			001021		T=T+1
  5041		777777	577777			XX=XX+XX+1
  5042						IFE	<XX-1>,<XX=-2>
  5043			200000			ZZ=ZZ+ZZ
  5044						IFE	ZZ,<ZZ=1>
  5045						DFARP	T,777,-1,-1,XX,0,0,0,ZZ,777,-1,377777,-1^
  5046						DMOVE	AC,[777,,-1
  5047	034405	120 04 0 00 043736 			-1,,XX]
  5048						DFAD	AC,[0,,0
  5049	034406	110 04 0 00 044157 			0,,ZZ]
  5050	034407	312 04 0 00 043653 		CAME	AC,[777,,-1]
  5051	034410	003 04 0 00 001021 		ER3	AC,T
  5052	034411	312 05 0 00 043655 		CAME	AC+1,[377777,,-1]
  5053	034412	004 05 0 00 001021 		ER4	AC+1,T
  5054	034413	321 10 0 00 034405 		JUMPL	AC+4,.-^D6	;LOOP ON ERROR SWITCH^
  5055
  5056
  5057			001022		T=T+1
  5058		777777	377777			XX=XX+XX+1
  5059						IFE	<XX-1>,<XX=-2>
  5060			400000			ZZ=ZZ+ZZ
  5061						IFE	ZZ,<ZZ=1>
  5062						DFARP	T,777,-1,-1,XX,0,0,0,ZZ,777,-1,377777,-1^
  5063						DMOVE	AC,[777,,-1
  5064	034414	120 04 0 00 043741 			-1,,XX]
  5065						DFAD	AC,[0,,0
  5066	034415	110 04 0 00 044161 			0,,ZZ]
  5067	034416	312 04 0 00 043653 		CAME	AC,[777,,-1]
  5068	034417	003 04 0 00 001022 		ER3	AC,T
  5069	034420	312 05 0 00 043655 		CAME	AC+1,[377777,,-1]
  5070	034421	004 05 0 00 001022 		ER4	AC+1,T
  5071	034422	321 10 0 00 034414 		JUMPL	AC+4,.-^D6	;LOOP ON ERROR SWITCH^
  5072
  5073
  5074			000000			XX=0
  5075			000000			ZZ=0
  5076
  5077
  5078						REPEAT	^D18,<
  5079					T=T+1
  5080						XX=XX+XX+1
  5081						IFE	<XX-1>,<XX=-2>DBKCD 	PDP-10 KI10 ADVANCED INSTRUCTION DIAGNOSTIC #4, VERSION 0,3 	MACRO %52(462) 12:35  9-AUG-76 PAGE 6-6
DBKCDM	MAC	26-MAY-76 16:52		TEST AR, ARX, AD, ADX AND NORMALIZE LOGIC FOR DOUBLE FLOATING POINT OPERATIONS     SEQ 0111

  5082						ZZ=ZZ+ZZ
  5083						IFE	ZZ,<ZZ=1>
  5084						DFARP	T,777,-1,XX,-1,0,0,ZZ,0,777,-1,377777,-1
  5085					>
  5086
  5087			001023		T=T+1
  5088			000001			XX=XX+XX+1
  5089		777777	777776			IFE	<XX-1>,<XX=-2>
  5090			000000			ZZ=ZZ+ZZ
  5091			000001			IFE	ZZ,<ZZ=1>
  5092						DFARP	T,777,-1,XX,-1,0,0,ZZ,0,777,-1,377777,-1^
  5093						DMOVE	AC,[777,,-1
  5094	034423	120 04 0 00 043744 			XX,,-1]
  5095						DFAD	AC,[0,,0
  5096	034424	110 04 0 00 044163 			ZZ,,0]
  5097	034425	312 04 0 00 043653 		CAME	AC,[777,,-1]
  5098	034426	003 04 0 00 001023 		ER3	AC,T
  5099	034427	312 05 0 00 043655 		CAME	AC+1,[377777,,-1]
  5100	034430	004 05 0 00 001023 		ER4	AC+1,T
  5101	034431	321 10 0 00 034423 		JUMPL	AC+4,.-^D6	;LOOP ON ERROR SWITCH^
  5102
  5103
  5104			001024		T=T+1
  5105		777777	777775			XX=XX+XX+1
  5106						IFE	<XX-1>,<XX=-2>
  5107			000002			ZZ=ZZ+ZZ
  5108						IFE	ZZ,<ZZ=1>
  5109						DFARP	T,777,-1,XX,-1,0,0,ZZ,0,777,-1,377777,-1^
  5110						DMOVE	AC,[777,,-1
  5111	034432	120 04 0 00 043747 			XX,,-1]
  5112						DFAD	AC,[0,,0
  5113	034433	110 04 0 00 044165 			ZZ,,0]
  5114	034434	312 04 0 00 043653 		CAME	AC,[777,,-1]
  5115	034435	003 04 0 00 001024 		ER3	AC,T
  5116	034436	312 05 0 00 043655 		CAME	AC+1,[377777,,-1]
  5117	034437	004 05 0 00 001024 		ER4	AC+1,T
  5118	034440	321 10 0 00 034432 		JUMPL	AC+4,.-^D6	;LOOP ON ERROR SWITCH^
  5119
  5120
  5121			001025		T=T+1
  5122		777777	777773			XX=XX+XX+1
  5123						IFE	<XX-1>,<XX=-2>
  5124			000004			ZZ=ZZ+ZZ
  5125						IFE	ZZ,<ZZ=1>
  5126						DFARP	T,777,-1,XX,-1,0,0,ZZ,0,777,-1,377777,-1^
  5127						DMOVE	AC,[777,,-1
  5128	034441	120 04 0 00 043752 			XX,,-1]
  5129						DFAD	AC,[0,,0
  5130	034442	110 04 0 00 044167 			ZZ,,0]
  5131	034443	312 04 0 00 043653 		CAME	AC,[777,,-1]
  5132	034444	003 04 0 00 001025 		ER3	AC,T
  5133	034445	312 05 0 00 043655 		CAME	AC+1,[377777,,-1]
  5134	034446	004 05 0 00 001025 		ER4	AC+1,T
  5135	034447	321 10 0 00 034441 		JUMPL	AC+4,.-^D6	;LOOP ON ERROR SWITCH^
  5136DBKCD 	PDP-10 KI10 ADVANCED INSTRUCTION DIAGNOSTIC #4, VERSION 0,3 	MACRO %52(462) 12:35  9-AUG-76 PAGE 6-7
DBKCDM	MAC	26-MAY-76 16:52		TEST AR, ARX, AD, ADX AND NORMALIZE LOGIC FOR DOUBLE FLOATING POINT OPERATIONS     SEQ 0112

  5137
  5138			001026		T=T+1
  5139		777777	777767			XX=XX+XX+1
  5140						IFE	<XX-1>,<XX=-2>
  5141			000010			ZZ=ZZ+ZZ
  5142						IFE	ZZ,<ZZ=1>
  5143						DFARP	T,777,-1,XX,-1,0,0,ZZ,0,777,-1,377777,-1^
  5144						DMOVE	AC,[777,,-1
  5145	034450	120 04 0 00 043755 			XX,,-1]
  5146						DFAD	AC,[0,,0
  5147	034451	110 04 0 00 044171 			ZZ,,0]
  5148	034452	312 04 0 00 043653 		CAME	AC,[777,,-1]
  5149	034453	003 04 0 00 001026 		ER3	AC,T
  5150	034454	312 05 0 00 043655 		CAME	AC+1,[377777,,-1]
  5151	034455	004 05 0 00 001026 		ER4	AC+1,T
  5152	034456	321 10 0 00 034450 		JUMPL	AC+4,.-^D6	;LOOP ON ERROR SWITCH^
  5153
  5154
  5155			001027		T=T+1
  5156		777777	777757			XX=XX+XX+1
  5157						IFE	<XX-1>,<XX=-2>
  5158			000020			ZZ=ZZ+ZZ
  5159						IFE	ZZ,<ZZ=1>
  5160						DFARP	T,777,-1,XX,-1,0,0,ZZ,0,777,-1,377777,-1^
  5161						DMOVE	AC,[777,,-1
  5162	034457	120 04 0 00 043760 			XX,,-1]
  5163						DFAD	AC,[0,,0
  5164	034460	110 04 0 00 044173 			ZZ,,0]
  5165	034461	312 04 0 00 043653 		CAME	AC,[777,,-1]
  5166	034462	003 04 0 00 001027 		ER3	AC,T
  5167	034463	312 05 0 00 043655 		CAME	AC+1,[377777,,-1]
  5168	034464	004 05 0 00 001027 		ER4	AC+1,T
  5169	034465	321 10 0 00 034457 		JUMPL	AC+4,.-^D6	;LOOP ON ERROR SWITCH^
  5170
  5171
  5172			001030		T=T+1
  5173		777777	777737			XX=XX+XX+1
  5174						IFE	<XX-1>,<XX=-2>
  5175			000040			ZZ=ZZ+ZZ
  5176						IFE	ZZ,<ZZ=1>
  5177						DFARP	T,777,-1,XX,-1,0,0,ZZ,0,777,-1,377777,-1^
  5178						DMOVE	AC,[777,,-1
  5179	034466	120 04 0 00 043763 			XX,,-1]
  5180						DFAD	AC,[0,,0
  5181	034467	110 04 0 00 044175 			ZZ,,0]
  5182	034470	312 04 0 00 043653 		CAME	AC,[777,,-1]
  5183	034471	003 04 0 00 001030 		ER3	AC,T
  5184	034472	312 05 0 00 043655 		CAME	AC+1,[377777,,-1]
  5185	034473	004 05 0 00 001030 		ER4	AC+1,T
  5186	034474	321 10 0 00 034466 		JUMPL	AC+4,.-^D6	;LOOP ON ERROR SWITCH^
  5187
  5188
  5189			001031		T=T+1
  5190		777777	777677			XX=XX+XX+1
  5191						IFE	<XX-1>,<XX=-2>DBKCD 	PDP-10 KI10 ADVANCED INSTRUCTION DIAGNOSTIC #4, VERSION 0,3 	MACRO %52(462) 12:35  9-AUG-76 PAGE 6-8
DBKCDM	MAC	26-MAY-76 16:52		TEST AR, ARX, AD, ADX AND NORMALIZE LOGIC FOR DOUBLE FLOATING POINT OPERATIONS     SEQ 0113

  5192			000100			ZZ=ZZ+ZZ
  5193						IFE	ZZ,<ZZ=1>
  5194						DFARP	T,777,-1,XX,-1,0,0,ZZ,0,777,-1,377777,-1^
  5195						DMOVE	AC,[777,,-1
  5196	034475	120 04 0 00 043766 			XX,,-1]
  5197						DFAD	AC,[0,,0
  5198	034476	110 04 0 00 044177 			ZZ,,0]
  5199	034477	312 04 0 00 043653 		CAME	AC,[777,,-1]
  5200	034500	003 04 0 00 001031 		ER3	AC,T
  5201	034501	312 05 0 00 043655 		CAME	AC+1,[377777,,-1]
  5202	034502	004 05 0 00 001031 		ER4	AC+1,T
  5203	034503	321 10 0 00 034475 		JUMPL	AC+4,.-^D6	;LOOP ON ERROR SWITCH^
  5204
  5205
  5206			001032		T=T+1
  5207		777777	777577			XX=XX+XX+1
  5208						IFE	<XX-1>,<XX=-2>
  5209			000200			ZZ=ZZ+ZZ
  5210						IFE	ZZ,<ZZ=1>
  5211						DFARP	T,777,-1,XX,-1,0,0,ZZ,0,777,-1,377777,-1^
  5212						DMOVE	AC,[777,,-1
  5213	034504	120 04 0 00 043771 			XX,,-1]
  5214						DFAD	AC,[0,,0
  5215	034505	110 04 0 00 044201 			ZZ,,0]
  5216	034506	312 04 0 00 043653 		CAME	AC,[777,,-1]
  5217	034507	003 04 0 00 001032 		ER3	AC,T
  5218	034510	312 05 0 00 043655 		CAME	AC+1,[377777,,-1]
  5219	034511	004 05 0 00 001032 		ER4	AC+1,T
  5220	034512	321 10 0 00 034504 		JUMPL	AC+4,.-^D6	;LOOP ON ERROR SWITCH^
  5221
  5222
  5223			001033		T=T+1
  5224		777777	777377			XX=XX+XX+1
  5225						IFE	<XX-1>,<XX=-2>
  5226			000400			ZZ=ZZ+ZZ
  5227						IFE	ZZ,<ZZ=1>
  5228						DFARP	T,777,-1,XX,-1,0,0,ZZ,0,777,-1,377777,-1^
  5229						DMOVE	AC,[777,,-1
  5230	034513	120 04 0 00 043774 			XX,,-1]
  5231						DFAD	AC,[0,,0
  5232	034514	110 04 0 00 044203 			ZZ,,0]
  5233	034515	312 04 0 00 043653 		CAME	AC,[777,,-1]
  5234	034516	003 04 0 00 001033 		ER3	AC,T
  5235	034517	312 05 0 00 043655 		CAME	AC+1,[377777,,-1]
  5236	034520	004 05 0 00 001033 		ER4	AC+1,T
  5237	034521	321 10 0 00 034513 		JUMPL	AC+4,.-^D6	;LOOP ON ERROR SWITCH^
  5238
  5239
  5240			001034		T=T+1
  5241		777777	776777			XX=XX+XX+1
  5242						IFE	<XX-1>,<XX=-2>
  5243			001000			ZZ=ZZ+ZZ
  5244						IFE	ZZ,<ZZ=1>
  5245						DFARP	T,777,-1,XX,-1,0,0,ZZ,0,777,-1,377777,-1^
  5246						DMOVE	AC,[777,,-1DBKCD 	PDP-10 KI10 ADVANCED INSTRUCTION DIAGNOSTIC #4, VERSION 0,3 	MACRO %52(462) 12:35  9-AUG-76 PAGE 6-9
DBKCDM	MAC	26-MAY-76 16:52		TEST AR, ARX, AD, ADX AND NORMALIZE LOGIC FOR DOUBLE FLOATING POINT OPERATIONS     SEQ 0114

  5247	034522	120 04 0 00 043777 			XX,,-1]
  5248						DFAD	AC,[0,,0
  5249	034523	110 04 0 00 044205 			ZZ,,0]
  5250	034524	312 04 0 00 043653 		CAME	AC,[777,,-1]
  5251	034525	003 04 0 00 001034 		ER3	AC,T
  5252	034526	312 05 0 00 043655 		CAME	AC+1,[377777,,-1]
  5253	034527	004 05 0 00 001034 		ER4	AC+1,T
  5254	034530	321 10 0 00 034522 		JUMPL	AC+4,.-^D6	;LOOP ON ERROR SWITCH^
  5255
  5256
  5257			001035		T=T+1
  5258		777777	775777			XX=XX+XX+1
  5259						IFE	<XX-1>,<XX=-2>
  5260			002000			ZZ=ZZ+ZZ
  5261						IFE	ZZ,<ZZ=1>
  5262						DFARP	T,777,-1,XX,-1,0,0,ZZ,0,777,-1,377777,-1^
  5263						DMOVE	AC,[777,,-1
  5264	034531	120 04 0 00 044002 			XX,,-1]
  5265						DFAD	AC,[0,,0
  5266	034532	110 04 0 00 044207 			ZZ,,0]
  5267	034533	312 04 0 00 043653 		CAME	AC,[777,,-1]
  5268	034534	003 04 0 00 001035 		ER3	AC,T
  5269	034535	312 05 0 00 043655 		CAME	AC+1,[377777,,-1]
  5270	034536	004 05 0 00 001035 		ER4	AC+1,T
  5271	034537	321 10 0 00 034531 		JUMPL	AC+4,.-^D6	;LOOP ON ERROR SWITCH^
  5272
  5273
  5274			001036		T=T+1
  5275		777777	773777			XX=XX+XX+1
  5276						IFE	<XX-1>,<XX=-2>
  5277			004000			ZZ=ZZ+ZZ
  5278						IFE	ZZ,<ZZ=1>
  5279						DFARP	T,777,-1,XX,-1,0,0,ZZ,0,777,-1,377777,-1^
  5280						DMOVE	AC,[777,,-1
  5281	034540	120 04 0 00 044005 			XX,,-1]
  5282						DFAD	AC,[0,,0
  5283	034541	110 04 0 00 044211 			ZZ,,0]
  5284	034542	312 04 0 00 043653 		CAME	AC,[777,,-1]
  5285	034543	003 04 0 00 001036 		ER3	AC,T
  5286	034544	312 05 0 00 043655 		CAME	AC+1,[377777,,-1]
  5287	034545	004 05 0 00 001036 		ER4	AC+1,T
  5288	034546	321 10 0 00 034540 		JUMPL	AC+4,.-^D6	;LOOP ON ERROR SWITCH^
  5289
  5290
  5291			001037		T=T+1
  5292		777777	767777			XX=XX+XX+1
  5293						IFE	<XX-1>,<XX=-2>
  5294			010000			ZZ=ZZ+ZZ
  5295						IFE	ZZ,<ZZ=1>
  5296						DFARP	T,777,-1,XX,-1,0,0,ZZ,0,777,-1,377777,-1^
  5297						DMOVE	AC,[777,,-1
  5298	034547	120 04 0 00 044010 			XX,,-1]
  5299						DFAD	AC,[0,,0
  5300	034550	110 04 0 00 044213 			ZZ,,0]
  5301	034551	312 04 0 00 043653 		CAME	AC,[777,,-1]DBKCD 	PDP-10 KI10 ADVANCED INSTRUCTION DIAGNOSTIC #4, VERSION 0,3 	MACRO %52(462) 12:35  9-AUG-76 PAGE 6-10
DBKCDM	MAC	26-MAY-76 16:52		TEST AR, ARX, AD, ADX AND NORMALIZE LOGIC FOR DOUBLE FLOATING POINT OPERATIONS     SEQ 0115

  5302	034552	003 04 0 00 001037 		ER3	AC,T
  5303	034553	312 05 0 00 043655 		CAME	AC+1,[377777,,-1]
  5304	034554	004 05 0 00 001037 		ER4	AC+1,T
  5305	034555	321 10 0 00 034547 		JUMPL	AC+4,.-^D6	;LOOP ON ERROR SWITCH^
  5306
  5307
  5308			001040		T=T+1
  5309		777777	757777			XX=XX+XX+1
  5310						IFE	<XX-1>,<XX=-2>
  5311			020000			ZZ=ZZ+ZZ
  5312						IFE	ZZ,<ZZ=1>
  5313						DFARP	T,777,-1,XX,-1,0,0,ZZ,0,777,-1,377777,-1^
  5314						DMOVE	AC,[777,,-1
  5315	034556	120 04 0 00 044013 			XX,,-1]
  5316						DFAD	AC,[0,,0
  5317	034557	110 04 0 00 044215 			ZZ,,0]
  5318	034560	312 04 0 00 043653 		CAME	AC,[777,,-1]
  5319	034561	003 04 0 00 001040 		ER3	AC,T
  5320	034562	312 05 0 00 043655 		CAME	AC+1,[377777,,-1]
  5321	034563	004 05 0 00 001040 		ER4	AC+1,T
  5322	034564	321 10 0 00 034556 		JUMPL	AC+4,.-^D6	;LOOP ON ERROR SWITCH^
  5323
  5324
  5325			001041		T=T+1
  5326		777777	737777			XX=XX+XX+1
  5327						IFE	<XX-1>,<XX=-2>
  5328			040000			ZZ=ZZ+ZZ
  5329						IFE	ZZ,<ZZ=1>
  5330						DFARP	T,777,-1,XX,-1,0,0,ZZ,0,777,-1,377777,-1^
  5331						DMOVE	AC,[777,,-1
  5332	034565	120 04 0 00 044016 			XX,,-1]
  5333						DFAD	AC,[0,,0
  5334	034566	110 04 0 00 044217 			ZZ,,0]
  5335	034567	312 04 0 00 043653 		CAME	AC,[777,,-1]
  5336	034570	003 04 0 00 001041 		ER3	AC,T
  5337	034571	312 05 0 00 043655 		CAME	AC+1,[377777,,-1]
  5338	034572	004 05 0 00 001041 		ER4	AC+1,T
  5339	034573	321 10 0 00 034565 		JUMPL	AC+4,.-^D6	;LOOP ON ERROR SWITCH^
  5340
  5341
  5342			001042		T=T+1
  5343		777777	677777			XX=XX+XX+1
  5344						IFE	<XX-1>,<XX=-2>
  5345			100000			ZZ=ZZ+ZZ
  5346						IFE	ZZ,<ZZ=1>
  5347						DFARP	T,777,-1,XX,-1,0,0,ZZ,0,777,-1,377777,-1^
  5348						DMOVE	AC,[777,,-1
  5349	034574	120 04 0 00 044021 			XX,,-1]
  5350						DFAD	AC,[0,,0
  5351	034575	110 04 0 00 044221 			ZZ,,0]
  5352	034576	312 04 0 00 043653 		CAME	AC,[777,,-1]
  5353	034577	003 04 0 00 001042 		ER3	AC,T
  5354	034600	312 05 0 00 043655 		CAME	AC+1,[377777,,-1]
  5355	034601	004 05 0 00 001042 		ER4	AC+1,T
  5356	034602	321 10 0 00 034574 		JUMPL	AC+4,.-^D6	;LOOP ON ERROR SWITCH^DBKCD 	PDP-10 KI10 ADVANCED INSTRUCTION DIAGNOSTIC #4, VERSION 0,3 	MACRO %52(462) 12:35  9-AUG-76 PAGE 6-11
DBKCDM	MAC	26-MAY-76 16:52		TEST AR, ARX, AD, ADX AND NORMALIZE LOGIC FOR DOUBLE FLOATING POINT OPERATIONS     SEQ 0116

  5357
  5358
  5359			001043		T=T+1
  5360		777777	577777			XX=XX+XX+1
  5361						IFE	<XX-1>,<XX=-2>
  5362			200000			ZZ=ZZ+ZZ
  5363						IFE	ZZ,<ZZ=1>
  5364						DFARP	T,777,-1,XX,-1,0,0,ZZ,0,777,-1,377777,-1^
  5365						DMOVE	AC,[777,,-1
  5366	034603	120 04 0 00 044024 			XX,,-1]
  5367						DFAD	AC,[0,,0
  5368	034604	110 04 0 00 043355 			ZZ,,0]
  5369	034605	312 04 0 00 043653 		CAME	AC,[777,,-1]
  5370	034606	003 04 0 00 001043 		ER3	AC,T
  5371	034607	312 05 0 00 043655 		CAME	AC+1,[377777,,-1]
  5372	034610	004 05 0 00 001043 		ER4	AC+1,T
  5373	034611	321 10 0 00 034603 		JUMPL	AC+4,.-^D6	;LOOP ON ERROR SWITCH^
  5374
  5375
  5376			001044		T=T+1
  5377		777777	377777			XX=XX+XX+1
  5378						IFE	<XX-1>,<XX=-2>
  5379			400000			ZZ=ZZ+ZZ
  5380						IFE	ZZ,<ZZ=1>
  5381						DFARP	T,777,-1,XX,-1,0,0,ZZ,0,777,-1,377777,-1^
  5382						DMOVE	AC,[777,,-1
  5383	034612	120 04 0 00 044027 			XX,,-1]
  5384						DFAD	AC,[0,,0
  5385	034613	110 04 0 00 044223 			ZZ,,0]
  5386	034614	312 04 0 00 043653 		CAME	AC,[777,,-1]
  5387	034615	003 04 0 00 001044 		ER3	AC,T
  5388	034616	312 05 0 00 043655 		CAME	AC+1,[377777,,-1]
  5389	034617	004 05 0 00 001044 		ER4	AC+1,T
  5390	034620	321 10 0 00 034612 		JUMPL	AC+4,.-^D6	;LOOP ON ERROR SWITCH^
  5391
  5392
  5393			000000			XX=0
  5394			000000			ZZ=0
  5395
  5396
  5397						REPEAT	^D18,<
  5398					T=T+1
  5399						XX=XX+XX+1
  5400						IFE	<XX-1>,<XX=-2>
  5401						ZZ=ZZ+ZZ
  5402						IFE	ZZ,<ZZ=1>
  5403						DFARP	T,777,XX,-1,-1,0,ZZ,0,0,777,-1,377777,-1
  5404					>
  5405
  5406			001045		T=T+1
  5407			000001			XX=XX+XX+1
  5408		777777	777776			IFE	<XX-1>,<XX=-2>
  5409			000000			ZZ=ZZ+ZZ
  5410			000001			IFE	ZZ,<ZZ=1>
  5411						DFARP	T,777,XX,-1,-1,0,ZZ,0,0,777,-1,377777,-1^DBKCD 	PDP-10 KI10 ADVANCED INSTRUCTION DIAGNOSTIC #4, VERSION 0,3 	MACRO %52(462) 12:35  9-AUG-76 PAGE 6-12
DBKCDM	MAC	26-MAY-76 16:52		TEST AR, ARX, AD, ADX AND NORMALIZE LOGIC FOR DOUBLE FLOATING POINT OPERATIONS     SEQ 0117

  5412						DMOVE	AC,[777,,XX
  5413	034621	120 04 0 00 044031 			-1,,-1]
  5414						DFAD	AC,[0,,ZZ
  5415	034622	110 04 0 00 044120 			0,,0]
  5416	034623	312 04 0 00 043653 		CAME	AC,[777,,-1]
  5417	034624	003 04 0 00 001045 		ER3	AC,T
  5418	034625	312 05 0 00 043655 		CAME	AC+1,[377777,,-1]
  5419	034626	004 05 0 00 001045 		ER4	AC+1,T
  5420	034627	321 10 0 00 034621 		JUMPL	AC+4,.-^D6	;LOOP ON ERROR SWITCH^
  5421
  5422
  5423			001046		T=T+1
  5424		777777	777775			XX=XX+XX+1
  5425						IFE	<XX-1>,<XX=-2>
  5426			000002			ZZ=ZZ+ZZ
  5427						IFE	ZZ,<ZZ=1>
  5428						DFARP	T,777,XX,-1,-1,0,ZZ,0,0,777,-1,377777,-1^
  5429						DMOVE	AC,[777,,XX
  5430	034630	120 04 0 00 044033 			-1,,-1]
  5431						DFAD	AC,[0,,ZZ
  5432	034631	110 04 0 00 044122 			0,,0]
  5433	034632	312 04 0 00 043653 		CAME	AC,[777,,-1]
  5434	034633	003 04 0 00 001046 		ER3	AC,T
  5435	034634	312 05 0 00 043655 		CAME	AC+1,[377777,,-1]
  5436	034635	004 05 0 00 001046 		ER4	AC+1,T
  5437	034636	321 10 0 00 034630 		JUMPL	AC+4,.-^D6	;LOOP ON ERROR SWITCH^
  5438
  5439
  5440			001047		T=T+1
  5441		777777	777773			XX=XX+XX+1
  5442						IFE	<XX-1>,<XX=-2>
  5443			000004			ZZ=ZZ+ZZ
  5444						IFE	ZZ,<ZZ=1>
  5445						DFARP	T,777,XX,-1,-1,0,ZZ,0,0,777,-1,377777,-1^
  5446						DMOVE	AC,[777,,XX
  5447	034637	120 04 0 00 044035 			-1,,-1]
  5448						DFAD	AC,[0,,ZZ
  5449	034640	110 04 0 00 044124 			0,,0]
  5450	034641	312 04 0 00 043653 		CAME	AC,[777,,-1]
  5451	034642	003 04 0 00 001047 		ER3	AC,T
  5452	034643	312 05 0 00 043655 		CAME	AC+1,[377777,,-1]
  5453	034644	004 05 0 00 001047 		ER4	AC+1,T
  5454	034645	321 10 0 00 034637 		JUMPL	AC+4,.-^D6	;LOOP ON ERROR SWITCH^
  5455
  5456
  5457			001050		T=T+1
  5458		777777	777767			XX=XX+XX+1
  5459						IFE	<XX-1>,<XX=-2>
  5460			000010			ZZ=ZZ+ZZ
  5461						IFE	ZZ,<ZZ=1>
  5462						DFARP	T,777,XX,-1,-1,0,ZZ,0,0,777,-1,377777,-1^
  5463						DMOVE	AC,[777,,XX
  5464	034646	120 04 0 00 044037 			-1,,-1]
  5465						DFAD	AC,[0,,ZZ
  5466	034647	110 04 0 00 044126 			0,,0]DBKCD 	PDP-10 KI10 ADVANCED INSTRUCTION DIAGNOSTIC #4, VERSION 0,3 	MACRO %52(462) 12:35  9-AUG-76 PAGE 6-13
DBKCDM	MAC	26-MAY-76 16:52		TEST AR, ARX, AD, ADX AND NORMALIZE LOGIC FOR DOUBLE FLOATING POINT OPERATIONS     SEQ 0118

  5467	034650	312 04 0 00 043653 		CAME	AC,[777,,-1]
  5468	034651	003 04 0 00 001050 		ER3	AC,T
  5469	034652	312 05 0 00 043655 		CAME	AC+1,[377777,,-1]
  5470	034653	004 05 0 00 001050 		ER4	AC+1,T
  5471	034654	321 10 0 00 034646 		JUMPL	AC+4,.-^D6	;LOOP ON ERROR SWITCH^
  5472
  5473
  5474			001051		T=T+1
  5475		777777	777757			XX=XX+XX+1
  5476						IFE	<XX-1>,<XX=-2>
  5477			000020			ZZ=ZZ+ZZ
  5478						IFE	ZZ,<ZZ=1>
  5479						DFARP	T,777,XX,-1,-1,0,ZZ,0,0,777,-1,377777,-1^
  5480						DMOVE	AC,[777,,XX
  5481	034655	120 04 0 00 044041 			-1,,-1]
  5482						DFAD	AC,[0,,ZZ
  5483	034656	110 04 0 00 044130 			0,,0]
  5484	034657	312 04 0 00 043653 		CAME	AC,[777,,-1]
  5485	034660	003 04 0 00 001051 		ER3	AC,T
  5486	034661	312 05 0 00 043655 		CAME	AC+1,[377777,,-1]
  5487	034662	004 05 0 00 001051 		ER4	AC+1,T
  5488	034663	321 10 0 00 034655 		JUMPL	AC+4,.-^D6	;LOOP ON ERROR SWITCH^
  5489
  5490
  5491			001052		T=T+1
  5492		777777	777737			XX=XX+XX+1
  5493						IFE	<XX-1>,<XX=-2>
  5494			000040			ZZ=ZZ+ZZ
  5495						IFE	ZZ,<ZZ=1>
  5496						DFARP	T,777,XX,-1,-1,0,ZZ,0,0,777,-1,377777,-1^
  5497						DMOVE	AC,[777,,XX
  5498	034664	120 04 0 00 044043 			-1,,-1]
  5499						DFAD	AC,[0,,ZZ
  5500	034665	110 04 0 00 044132 			0,,0]
  5501	034666	312 04 0 00 043653 		CAME	AC,[777,,-1]
  5502	034667	003 04 0 00 001052 		ER3	AC,T
  5503	034670	312 05 0 00 043655 		CAME	AC+1,[377777,,-1]
  5504	034671	004 05 0 00 001052 		ER4	AC+1,T
  5505	034672	321 10 0 00 034664 		JUMPL	AC+4,.-^D6	;LOOP ON ERROR SWITCH^
  5506
  5507
  5508			001053		T=T+1
  5509		777777	777677			XX=XX+XX+1
  5510						IFE	<XX-1>,<XX=-2>
  5511			000100			ZZ=ZZ+ZZ
  5512						IFE	ZZ,<ZZ=1>
  5513						DFARP	T,777,XX,-1,-1,0,ZZ,0,0,777,-1,377777,-1^
  5514						DMOVE	AC,[777,,XX
  5515	034673	120 04 0 00 044045 			-1,,-1]
  5516						DFAD	AC,[0,,ZZ
  5517	034674	110 04 0 00 044134 			0,,0]
  5518	034675	312 04 0 00 043653 		CAME	AC,[777,,-1]
  5519	034676	003 04 0 00 001053 		ER3	AC,T
  5520	034677	312 05 0 00 043655 		CAME	AC+1,[377777,,-1]
  5521	034700	004 05 0 00 001053 		ER4	AC+1,TDBKCD 	PDP-10 KI10 ADVANCED INSTRUCTION DIAGNOSTIC #4, VERSION 0,3 	MACRO %52(462) 12:35  9-AUG-76 PAGE 6-14
DBKCDM	MAC	26-MAY-76 16:52		TEST AR, ARX, AD, ADX AND NORMALIZE LOGIC FOR DOUBLE FLOATING POINT OPERATIONS     SEQ 0119

  5522	034701	321 10 0 00 034673 		JUMPL	AC+4,.-^D6	;LOOP ON ERROR SWITCH^
  5523
  5524
  5525			001054		T=T+1
  5526		777777	777577			XX=XX+XX+1
  5527						IFE	<XX-1>,<XX=-2>
  5528			000200			ZZ=ZZ+ZZ
  5529						IFE	ZZ,<ZZ=1>
  5530						DFARP	T,777,XX,-1,-1,0,ZZ,0,0,777,-1,377777,-1^
  5531						DMOVE	AC,[777,,XX
  5532	034702	120 04 0 00 044047 			-1,,-1]
  5533						DFAD	AC,[0,,ZZ
  5534	034703	110 04 0 00 044136 			0,,0]
  5535	034704	312 04 0 00 043653 		CAME	AC,[777,,-1]
  5536	034705	003 04 0 00 001054 		ER3	AC,T
  5537	034706	312 05 0 00 043655 		CAME	AC+1,[377777,,-1]
  5538	034707	004 05 0 00 001054 		ER4	AC+1,T
  5539	034710	321 10 0 00 034702 		JUMPL	AC+4,.-^D6	;LOOP ON ERROR SWITCH^
  5540
  5541
  5542			001055		T=T+1
  5543		777777	777377			XX=XX+XX+1
  5544						IFE	<XX-1>,<XX=-2>
  5545			000400			ZZ=ZZ+ZZ
  5546						IFE	ZZ,<ZZ=1>
  5547						DFARP	T,777,XX,-1,-1,0,ZZ,0,0,777,-1,377777,-1^
  5548						DMOVE	AC,[777,,XX
  5549	034711	120 04 0 00 044051 			-1,,-1]
  5550						DFAD	AC,[0,,ZZ
  5551	034712	110 04 0 00 044140 			0,,0]
  5552	034713	312 04 0 00 043653 		CAME	AC,[777,,-1]
  5553	034714	003 04 0 00 001055 		ER3	AC,T
  5554	034715	312 05 0 00 043655 		CAME	AC+1,[377777,,-1]
  5555	034716	004 05 0 00 001055 		ER4	AC+1,T
  5556	034717	321 10 0 00 034711 		JUMPL	AC+4,.-^D6	;LOOP ON ERROR SWITCH^
  5557
  5558
  5559			001056		T=T+1
  5560		777777	776777			XX=XX+XX+1
  5561						IFE	<XX-1>,<XX=-2>
  5562			001000			ZZ=ZZ+ZZ
  5563						IFE	ZZ,<ZZ=1>
  5564						DFARP	T,777,XX,-1,-1,0,ZZ,0,0,777,-1,377777,-1^
  5565						DMOVE	AC,[777,,XX
  5566	034720	120 04 0 00 044053 			-1,,-1]
  5567						DFAD	AC,[0,,ZZ
  5568	034721	110 04 0 00 044142 			0,,0]
  5569	034722	312 04 0 00 043653 		CAME	AC,[777,,-1]
  5570	034723	003 04 0 00 001056 		ER3	AC,T
  5571	034724	312 05 0 00 043655 		CAME	AC+1,[377777,,-1]
  5572	034725	004 05 0 00 001056 		ER4	AC+1,T
  5573	034726	321 10 0 00 034720 		JUMPL	AC+4,.-^D6	;LOOP ON ERROR SWITCH^
  5574
  5575
  5576			001057		T=T+1DBKCD 	PDP-10 KI10 ADVANCED INSTRUCTION DIAGNOSTIC #4, VERSION 0,3 	MACRO %52(462) 12:35  9-AUG-76 PAGE 6-15
DBKCDM	MAC	26-MAY-76 16:52		TEST AR, ARX, AD, ADX AND NORMALIZE LOGIC FOR DOUBLE FLOATING POINT OPERATIONS     SEQ 0120

  5577		777777	775777			XX=XX+XX+1
  5578						IFE	<XX-1>,<XX=-2>
  5579			002000			ZZ=ZZ+ZZ
  5580						IFE	ZZ,<ZZ=1>
  5581						DFARP	T,777,XX,-1,-1,0,ZZ,0,0,777,-1,377777,-1^
  5582						DMOVE	AC,[777,,XX
  5583	034727	120 04 0 00 044055 			-1,,-1]
  5584						DFAD	AC,[0,,ZZ
  5585	034730	110 04 0 00 044144 			0,,0]
  5586	034731	312 04 0 00 043653 		CAME	AC,[777,,-1]
  5587	034732	003 04 0 00 001057 		ER3	AC,T
  5588	034733	312 05 0 00 043655 		CAME	AC+1,[377777,,-1]
  5589	034734	004 05 0 00 001057 		ER4	AC+1,T
  5590	034735	321 10 0 00 034727 		JUMPL	AC+4,.-^D6	;LOOP ON ERROR SWITCH^
  5591
  5592
  5593			001060		T=T+1
  5594		777777	773777			XX=XX+XX+1
  5595						IFE	<XX-1>,<XX=-2>
  5596			004000			ZZ=ZZ+ZZ
  5597						IFE	ZZ,<ZZ=1>
  5598						DFARP	T,777,XX,-1,-1,0,ZZ,0,0,777,-1,377777,-1^
  5599						DMOVE	AC,[777,,XX
  5600	034736	120 04 0 00 044057 			-1,,-1]
  5601						DFAD	AC,[0,,ZZ
  5602	034737	110 04 0 00 044146 			0,,0]
  5603	034740	312 04 0 00 043653 		CAME	AC,[777,,-1]
  5604	034741	003 04 0 00 001060 		ER3	AC,T
  5605	034742	312 05 0 00 043655 		CAME	AC+1,[377777,,-1]
  5606	034743	004 05 0 00 001060 		ER4	AC+1,T
  5607	034744	321 10 0 00 034736 		JUMPL	AC+4,.-^D6	;LOOP ON ERROR SWITCH^
  5608
  5609
  5610			001061		T=T+1
  5611		777777	767777			XX=XX+XX+1
  5612						IFE	<XX-1>,<XX=-2>
  5613			010000			ZZ=ZZ+ZZ
  5614						IFE	ZZ,<ZZ=1>
  5615						DFARP	T,777,XX,-1,-1,0,ZZ,0,0,777,-1,377777,-1^
  5616						DMOVE	AC,[777,,XX
  5617	034745	120 04 0 00 044061 			-1,,-1]
  5618						DFAD	AC,[0,,ZZ
  5619	034746	110 04 0 00 044150 			0,,0]
  5620	034747	312 04 0 00 043653 		CAME	AC,[777,,-1]
  5621	034750	003 04 0 00 001061 		ER3	AC,T
  5622	034751	312 05 0 00 043655 		CAME	AC+1,[377777,,-1]
  5623	034752	004 05 0 00 001061 		ER4	AC+1,T
  5624	034753	321 10 0 00 034745 		JUMPL	AC+4,.-^D6	;LOOP ON ERROR SWITCH^
  5625
  5626
  5627			001062		T=T+1
  5628		777777	757777			XX=XX+XX+1
  5629						IFE	<XX-1>,<XX=-2>
  5630			020000			ZZ=ZZ+ZZ
  5631						IFE	ZZ,<ZZ=1>DBKCD 	PDP-10 KI10 ADVANCED INSTRUCTION DIAGNOSTIC #4, VERSION 0,3 	MACRO %52(462) 12:35  9-AUG-76 PAGE 6-16
DBKCDM	MAC	26-MAY-76 16:52		TEST AR, ARX, AD, ADX AND NORMALIZE LOGIC FOR DOUBLE FLOATING POINT OPERATIONS     SEQ 0121

  5632						DFARP	T,777,XX,-1,-1,0,ZZ,0,0,777,-1,377777,-1^
  5633						DMOVE	AC,[777,,XX
  5634	034754	120 04 0 00 044063 			-1,,-1]
  5635						DFAD	AC,[0,,ZZ
  5636	034755	110 04 0 00 044152 			0,,0]
  5637	034756	312 04 0 00 043653 		CAME	AC,[777,,-1]
  5638	034757	003 04 0 00 001062 		ER3	AC,T
  5639	034760	312 05 0 00 043655 		CAME	AC+1,[377777,,-1]
  5640	034761	004 05 0 00 001062 		ER4	AC+1,T
  5641	034762	321 10 0 00 034754 		JUMPL	AC+4,.-^D6	;LOOP ON ERROR SWITCH^
  5642
  5643
  5644			001063		T=T+1
  5645		777777	737777			XX=XX+XX+1
  5646						IFE	<XX-1>,<XX=-2>
  5647			040000			ZZ=ZZ+ZZ
  5648						IFE	ZZ,<ZZ=1>
  5649						DFARP	T,777,XX,-1,-1,0,ZZ,0,0,777,-1,377777,-1^
  5650						DMOVE	AC,[777,,XX
  5651	034763	120 04 0 00 044065 			-1,,-1]
  5652						DFAD	AC,[0,,ZZ
  5653	034764	110 04 0 00 044154 			0,,0]
  5654	034765	312 04 0 00 043653 		CAME	AC,[777,,-1]
  5655	034766	003 04 0 00 001063 		ER3	AC,T
  5656	034767	312 05 0 00 043655 		CAME	AC+1,[377777,,-1]
  5657	034770	004 05 0 00 001063 		ER4	AC+1,T
  5658	034771	321 10 0 00 034763 		JUMPL	AC+4,.-^D6	;LOOP ON ERROR SWITCH^
  5659
  5660
  5661			001064		T=T+1
  5662		777777	677777			XX=XX+XX+1
  5663						IFE	<XX-1>,<XX=-2>
  5664			100000			ZZ=ZZ+ZZ
  5665						IFE	ZZ,<ZZ=1>
  5666						DFARP	T,777,XX,-1,-1,0,ZZ,0,0,777,-1,377777,-1^
  5667						DMOVE	AC,[777,,XX
  5668	034772	120 04 0 00 044067 			-1,,-1]
  5669						DFAD	AC,[0,,ZZ
  5670	034773	110 04 0 00 044156 			0,,0]
  5671	034774	312 04 0 00 043653 		CAME	AC,[777,,-1]
  5672	034775	003 04 0 00 001064 		ER3	AC,T
  5673	034776	312 05 0 00 043655 		CAME	AC+1,[377777,,-1]
  5674	034777	004 05 0 00 001064 		ER4	AC+1,T
  5675	035000	321 10 0 00 034772 		JUMPL	AC+4,.-^D6	;LOOP ON ERROR SWITCH^
  5676
  5677
  5678			001065		T=T+1
  5679		777777	577777			XX=XX+XX+1
  5680						IFE	<XX-1>,<XX=-2>
  5681			200000			ZZ=ZZ+ZZ
  5682						IFE	ZZ,<ZZ=1>
  5683						DFARP	T,777,XX,-1,-1,0,ZZ,0,0,777,-1,377777,-1^
  5684						DMOVE	AC,[777,,XX
  5685	035001	120 04 0 00 044071 			-1,,-1]
  5686						DFAD	AC,[0,,ZZDBKCD 	PDP-10 KI10 ADVANCED INSTRUCTION DIAGNOSTIC #4, VERSION 0,3 	MACRO %52(462) 12:35  9-AUG-76 PAGE 6-17
DBKCDM	MAC	26-MAY-76 16:52		TEST AR, ARX, AD, ADX AND NORMALIZE LOGIC FOR DOUBLE FLOATING POINT OPERATIONS     SEQ 0122

  5687	035002	110 04 0 00 044160 			0,,0]
  5688	035003	312 04 0 00 043653 		CAME	AC,[777,,-1]
  5689	035004	003 04 0 00 001065 		ER3	AC,T
  5690	035005	312 05 0 00 043655 		CAME	AC+1,[377777,,-1]
  5691	035006	004 05 0 00 001065 		ER4	AC+1,T
  5692	035007	321 10 0 00 035001 		JUMPL	AC+4,.-^D6	;LOOP ON ERROR SWITCH^
  5693
  5694
  5695			001066		T=T+1
  5696		777777	377777			XX=XX+XX+1
  5697						IFE	<XX-1>,<XX=-2>
  5698			400000			ZZ=ZZ+ZZ
  5699						IFE	ZZ,<ZZ=1>
  5700						DFARP	T,777,XX,-1,-1,0,ZZ,0,0,777,-1,377777,-1^
  5701						DMOVE	AC,[777,,XX
  5702	035010	120 04 0 00 044073 			-1,,-1]
  5703						DFAD	AC,[0,,ZZ
  5704	035011	110 04 0 00 044162 			0,,0]
  5705	035012	312 04 0 00 043653 		CAME	AC,[777,,-1]
  5706	035013	003 04 0 00 001066 		ER3	AC,T
  5707	035014	312 05 0 00 043655 		CAME	AC+1,[377777,,-1]
  5708	035015	004 05 0 00 001066 		ER4	AC+1,T
  5709	035016	321 10 0 00 035010 		JUMPL	AC+4,.-^D6	;LOOP ON ERROR SWITCH^
  5710
  5711
  5712			000000			XX=0
  5713			000000			ZZ=0
  5714
  5715
  5716						REPEAT	^D9,<
  5717					T=T+1
  5718						XX=XX+XX+1
  5719						IFE	<XX-1>,<XX=-2>
  5720						ZZ=ZZ+ZZ
  5721						IFE	ZZ,<ZZ=1>
  5722						DFARP	T,XX&777,-1,-1,-1,ZZ,0,0,0,777,-1,377777,-1
  5723					>DBKCD 	PDP-10 KI10 ADVANCED INSTRUCTION DIAGNOSTIC #4, VERSION 0,3 	MACRO %52(462) 12:35  9-AUG-76 PAGE 7
DBKCDM	MAC	26-MAY-76 16:52		TEST AR, ARX, AD, ADX AND NORMALIZE LOGIC FOR DOUBLE FLOATING POINT OPERATIONS     SEQ 0123

  5724
  5725			001067		T=T+1
  5726			000001			XX=XX+XX+1
  5727		777777	777776			IFE	<XX-1>,<XX=-2>
  5728			000000			ZZ=ZZ+ZZ
  5729			000001			IFE	ZZ,<ZZ=1>
  5730						DFARP	T,XX&777,-1,-1,-1,ZZ,0,0,0,777,-1,377777,-1^
  5731						DMOVE	AC,[XX&777,,-1
  5732	035017	120 04 0 00 044075 			-1,,-1]
  5733						DFAD	AC,[ZZ,,0
  5734	035020	110 04 0 00 044164 			0,,0]
  5735	035021	312 04 0 00 043653 		CAME	AC,[777,,-1]
  5736	035022	003 04 0 00 001067 		ER3	AC,T
  5737	035023	312 05 0 00 043655 		CAME	AC+1,[377777,,-1]
  5738	035024	004 05 0 00 001067 		ER4	AC+1,T
  5739	035025	321 10 0 00 035017 		JUMPL	AC+4,.-^D6	;LOOP ON ERROR SWITCH^
  5740
  5741
  5742			001070		T=T+1
  5743		777777	777775			XX=XX+XX+1
  5744						IFE	<XX-1>,<XX=-2>
  5745			000002			ZZ=ZZ+ZZ
  5746						IFE	ZZ,<ZZ=1>
  5747						DFARP	T,XX&777,-1,-1,-1,ZZ,0,0,0,777,-1,377777,-1^
  5748						DMOVE	AC,[XX&777,,-1
  5749	035026	120 04 0 00 044077 			-1,,-1]
  5750						DFAD	AC,[ZZ,,0
  5751	035027	110 04 0 00 044166 			0,,0]
  5752	035030	312 04 0 00 043653 		CAME	AC,[777,,-1]
  5753	035031	003 04 0 00 001070 		ER3	AC,T
  5754	035032	312 05 0 00 043655 		CAME	AC+1,[377777,,-1]
  5755	035033	004 05 0 00 001070 		ER4	AC+1,T
  5756	035034	321 10 0 00 035026 		JUMPL	AC+4,.-^D6	;LOOP ON ERROR SWITCH^
  5757
  5758
  5759			001071		T=T+1
  5760		777777	777773			XX=XX+XX+1
  5761						IFE	<XX-1>,<XX=-2>
  5762			000004			ZZ=ZZ+ZZ
  5763						IFE	ZZ,<ZZ=1>
  5764						DFARP	T,XX&777,-1,-1,-1,ZZ,0,0,0,777,-1,377777,-1^
  5765						DMOVE	AC,[XX&777,,-1
  5766	035035	120 04 0 00 044101 			-1,,-1]
  5767						DFAD	AC,[ZZ,,0
  5768	035036	110 04 0 00 044170 			0,,0]
  5769	035037	312 04 0 00 043653 		CAME	AC,[777,,-1]
  5770	035040	003 04 0 00 001071 		ER3	AC,T
  5771	035041	312 05 0 00 043655 		CAME	AC+1,[377777,,-1]
  5772	035042	004 05 0 00 001071 		ER4	AC+1,T
  5773	035043	321 10 0 00 035035 		JUMPL	AC+4,.-^D6	;LOOP ON ERROR SWITCH^
  5774
  5775
  5776			001072		T=T+1
  5777		777777	777767			XX=XX+XX+1
  5778						IFE	<XX-1>,<XX=-2>DBKCD 	PDP-10 KI10 ADVANCED INSTRUCTION DIAGNOSTIC #4, VERSION 0,3 	MACRO %52(462) 12:35  9-AUG-76 PAGE 7-1
DBKCDM	MAC	26-MAY-76 16:52		TEST AR, ARX, AD, ADX AND NORMALIZE LOGIC FOR DOUBLE FLOATING POINT OPERATIONS     SEQ 0124

  5779			000010			ZZ=ZZ+ZZ
  5780						IFE	ZZ,<ZZ=1>
  5781						DFARP	T,XX&777,-1,-1,-1,ZZ,0,0,0,777,-1,377777,-1^
  5782						DMOVE	AC,[XX&777,,-1
  5783	035044	120 04 0 00 044103 			-1,,-1]
  5784						DFAD	AC,[ZZ,,0
  5785	035045	110 04 0 00 044172 			0,,0]
  5786	035046	312 04 0 00 043653 		CAME	AC,[777,,-1]
  5787	035047	003 04 0 00 001072 		ER3	AC,T
  5788	035050	312 05 0 00 043655 		CAME	AC+1,[377777,,-1]
  5789	035051	004 05 0 00 001072 		ER4	AC+1,T
  5790	035052	321 10 0 00 035044 		JUMPL	AC+4,.-^D6	;LOOP ON ERROR SWITCH^
  5791
  5792
  5793			001073		T=T+1
  5794		777777	777757			XX=XX+XX+1
  5795						IFE	<XX-1>,<XX=-2>
  5796			000020			ZZ=ZZ+ZZ
  5797						IFE	ZZ,<ZZ=1>
  5798						DFARP	T,XX&777,-1,-1,-1,ZZ,0,0,0,777,-1,377777,-1^
  5799						DMOVE	AC,[XX&777,,-1
  5800	035053	120 04 0 00 044105 			-1,,-1]
  5801						DFAD	AC,[ZZ,,0
  5802	035054	110 04 0 00 044174 			0,,0]
  5803	035055	312 04 0 00 043653 		CAME	AC,[777,,-1]
  5804	035056	003 04 0 00 001073 		ER3	AC,T
  5805	035057	312 05 0 00 043655 		CAME	AC+1,[377777,,-1]
  5806	035060	004 05 0 00 001073 		ER4	AC+1,T
  5807	035061	321 10 0 00 035053 		JUMPL	AC+4,.-^D6	;LOOP ON ERROR SWITCH^
  5808
  5809
  5810			001074		T=T+1
  5811		777777	777737			XX=XX+XX+1
  5812						IFE	<XX-1>,<XX=-2>
  5813			000040			ZZ=ZZ+ZZ
  5814						IFE	ZZ,<ZZ=1>
  5815						DFARP	T,XX&777,-1,-1,-1,ZZ,0,0,0,777,-1,377777,-1^
  5816						DMOVE	AC,[XX&777,,-1
  5817	035062	120 04 0 00 044107 			-1,,-1]
  5818						DFAD	AC,[ZZ,,0
  5819	035063	110 04 0 00 044176 			0,,0]
  5820	035064	312 04 0 00 043653 		CAME	AC,[777,,-1]
  5821	035065	003 04 0 00 001074 		ER3	AC,T
  5822	035066	312 05 0 00 043655 		CAME	AC+1,[377777,,-1]
  5823	035067	004 05 0 00 001074 		ER4	AC+1,T
  5824	035070	321 10 0 00 035062 		JUMPL	AC+4,.-^D6	;LOOP ON ERROR SWITCH^
  5825
  5826
  5827			001075		T=T+1
  5828		777777	777677			XX=XX+XX+1
  5829						IFE	<XX-1>,<XX=-2>
  5830			000100			ZZ=ZZ+ZZ
  5831						IFE	ZZ,<ZZ=1>
  5832						DFARP	T,XX&777,-1,-1,-1,ZZ,0,0,0,777,-1,377777,-1^
  5833						DMOVE	AC,[XX&777,,-1DBKCD 	PDP-10 KI10 ADVANCED INSTRUCTION DIAGNOSTIC #4, VERSION 0,3 	MACRO %52(462) 12:35  9-AUG-76 PAGE 7-2
DBKCDM	MAC	26-MAY-76 16:52		TEST AR, ARX, AD, ADX AND NORMALIZE LOGIC FOR DOUBLE FLOATING POINT OPERATIONS     SEQ 0125

  5834	035071	120 04 0 00 044111 			-1,,-1]
  5835						DFAD	AC,[ZZ,,0
  5836	035072	110 04 0 00 044200 			0,,0]
  5837	035073	312 04 0 00 043653 		CAME	AC,[777,,-1]
  5838	035074	003 04 0 00 001075 		ER3	AC,T
  5839	035075	312 05 0 00 043655 		CAME	AC+1,[377777,,-1]
  5840	035076	004 05 0 00 001075 		ER4	AC+1,T
  5841	035077	321 10 0 00 035071 		JUMPL	AC+4,.-^D6	;LOOP ON ERROR SWITCH^
  5842
  5843
  5844			001076		T=T+1
  5845		777777	777577			XX=XX+XX+1
  5846						IFE	<XX-1>,<XX=-2>
  5847			000200			ZZ=ZZ+ZZ
  5848						IFE	ZZ,<ZZ=1>
  5849						DFARP	T,XX&777,-1,-1,-1,ZZ,0,0,0,777,-1,377777,-1^
  5850						DMOVE	AC,[XX&777,,-1
  5851	035100	120 04 0 00 044113 			-1,,-1]
  5852						DFAD	AC,[ZZ,,0
  5853	035101	110 04 0 00 044202 			0,,0]
  5854	035102	312 04 0 00 043653 		CAME	AC,[777,,-1]
  5855	035103	003 04 0 00 001076 		ER3	AC,T
  5856	035104	312 05 0 00 043655 		CAME	AC+1,[377777,,-1]
  5857	035105	004 05 0 00 001076 		ER4	AC+1,T
  5858	035106	321 10 0 00 035100 		JUMPL	AC+4,.-^D6	;LOOP ON ERROR SWITCH^
  5859
  5860
  5861			001077		T=T+1
  5862		777777	777377			XX=XX+XX+1
  5863						IFE	<XX-1>,<XX=-2>
  5864			000400			ZZ=ZZ+ZZ
  5865						IFE	ZZ,<ZZ=1>
  5866						DFARP	T,XX&777,-1,-1,-1,ZZ,0,0,0,777,-1,377777,-1^
  5867						DMOVE	AC,[XX&777,,-1
  5868	035107	120 04 0 00 044225 			-1,,-1]
  5869						DFAD	AC,[ZZ,,0
  5870	035110	110 04 0 00 044204 			0,,0]
  5871	035111	312 04 0 00 043653 		CAME	AC,[777,,-1]
  5872	035112	003 04 0 00 001077 		ER3	AC,T
  5873	035113	312 05 0 00 043655 		CAME	AC+1,[377777,,-1]
  5874	035114	004 05 0 00 001077 		ER4	AC+1,T
  5875	035115	321 10 0 00 035107 		JUMPL	AC+4,.-^D6	;LOOP ON ERROR SWITCH^
  5876
  5877					;RIPPLE ZEROS - RIPPLE ONES COMBINED (ADD A RIPPLED ZERO TO A RIPPLED ONE)
  5878
  5879			001100		T=1100
  5880			000000			XX=0
  5881			000000			ZZ=0
  5882
  5883
  5884					R1100:	REPEAT	^D18,<
  5885					T=T+1
  5886						XX=XX+XX
  5887						IFE	XX,<XX=1>
  5888						ZZ=ZZ+ZZ+1DBKCD 	PDP-10 KI10 ADVANCED INSTRUCTION DIAGNOSTIC #4, VERSION 0,3 	MACRO %52(462) 12:35  9-AUG-76 PAGE 7-3
DBKCDM	MAC	26-MAY-76 16:52		TEST AR, ARX, AD, ADX AND NORMALIZE LOGIC FOR DOUBLE FLOATING POINT OPERATIONS     SEQ 0126

  5889						IFE	<ZZ-1>,<ZZ=-2>
  5890						DFARP	T,0,0,0,XX,777,-1,-1,ZZ,777,-1,377777,-1
  5891					>
  5892
  5893			001101		T=T+1
  5894			000000			XX=XX+XX
  5895			000001			IFE	XX,<XX=1>
  5896			000001			ZZ=ZZ+ZZ+1
  5897		777777	777776			IFE	<ZZ-1>,<ZZ=-2>
  5898						DFARP	T,0,0,0,XX,777,-1,-1,ZZ,777,-1,377777,-1^
  5899						DMOVE	AC,[0,,0
  5900	035116	120 04 0 00 044117 			0,,XX]
  5901						DFAD	AC,[777,,-1
  5902	035117	110 04 0 00 043656 			-1,,ZZ]
  5903	035120	312 04 0 00 043653 		CAME	AC,[777,,-1]
  5904	035121	003 04 0 00 001101 		ER3	AC,T
  5905	035122	312 05 0 00 043655 		CAME	AC+1,[377777,,-1]
  5906	035123	004 05 0 00 001101 		ER4	AC+1,T
  5907	035124	321 10 0 00 035116 		JUMPL	AC+4,.-^D6	;LOOP ON ERROR SWITCH^
  5908
  5909
  5910			001102		T=T+1
  5911			000002			XX=XX+XX
  5912						IFE	XX,<XX=1>
  5913		777777	777775			ZZ=ZZ+ZZ+1
  5914						IFE	<ZZ-1>,<ZZ=-2>
  5915						DFARP	T,0,0,0,XX,777,-1,-1,ZZ,777,-1,377777,-1^
  5916						DMOVE	AC,[0,,0
  5917	035125	120 04 0 00 044121 			0,,XX]
  5918						DFAD	AC,[777,,-1
  5919	035126	110 04 0 00 043661 			-1,,ZZ]
  5920	035127	312 04 0 00 043653 		CAME	AC,[777,,-1]
  5921	035130	003 04 0 00 001102 		ER3	AC,T
  5922	035131	312 05 0 00 043655 		CAME	AC+1,[377777,,-1]
  5923	035132	004 05 0 00 001102 		ER4	AC+1,T
  5924	035133	321 10 0 00 035125 		JUMPL	AC+4,.-^D6	;LOOP ON ERROR SWITCH^
  5925
  5926
  5927			001103		T=T+1
  5928			000004			XX=XX+XX
  5929						IFE	XX,<XX=1>
  5930		777777	777773			ZZ=ZZ+ZZ+1
  5931						IFE	<ZZ-1>,<ZZ=-2>
  5932						DFARP	T,0,0,0,XX,777,-1,-1,ZZ,777,-1,377777,-1^
  5933						DMOVE	AC,[0,,0
  5934	035134	120 04 0 00 044123 			0,,XX]
  5935						DFAD	AC,[777,,-1
  5936	035135	110 04 0 00 043664 			-1,,ZZ]
  5937	035136	312 04 0 00 043653 		CAME	AC,[777,,-1]
  5938	035137	003 04 0 00 001103 		ER3	AC,T
  5939	035140	312 05 0 00 043655 		CAME	AC+1,[377777,,-1]
  5940	035141	004 05 0 00 001103 		ER4	AC+1,T
  5941	035142	321 10 0 00 035134 		JUMPL	AC+4,.-^D6	;LOOP ON ERROR SWITCH^
  5942
  5943DBKCD 	PDP-10 KI10 ADVANCED INSTRUCTION DIAGNOSTIC #4, VERSION 0,3 	MACRO %52(462) 12:35  9-AUG-76 PAGE 7-4
DBKCDM	MAC	26-MAY-76 16:52		TEST AR, ARX, AD, ADX AND NORMALIZE LOGIC FOR DOUBLE FLOATING POINT OPERATIONS     SEQ 0127

  5944			001104		T=T+1
  5945			000010			XX=XX+XX
  5946						IFE	XX,<XX=1>
  5947		777777	777767			ZZ=ZZ+ZZ+1
  5948						IFE	<ZZ-1>,<ZZ=-2>
  5949						DFARP	T,0,0,0,XX,777,-1,-1,ZZ,777,-1,377777,-1^
  5950						DMOVE	AC,[0,,0
  5951	035143	120 04 0 00 044125 			0,,XX]
  5952						DFAD	AC,[777,,-1
  5953	035144	110 04 0 00 043667 			-1,,ZZ]
  5954	035145	312 04 0 00 043653 		CAME	AC,[777,,-1]
  5955	035146	003 04 0 00 001104 		ER3	AC,T
  5956	035147	312 05 0 00 043655 		CAME	AC+1,[377777,,-1]
  5957	035150	004 05 0 00 001104 		ER4	AC+1,T
  5958	035151	321 10 0 00 035143 		JUMPL	AC+4,.-^D6	;LOOP ON ERROR SWITCH^
  5959
  5960
  5961			001105		T=T+1
  5962			000020			XX=XX+XX
  5963						IFE	XX,<XX=1>
  5964		777777	777757			ZZ=ZZ+ZZ+1
  5965						IFE	<ZZ-1>,<ZZ=-2>
  5966						DFARP	T,0,0,0,XX,777,-1,-1,ZZ,777,-1,377777,-1^
  5967						DMOVE	AC,[0,,0
  5968	035152	120 04 0 00 044127 			0,,XX]
  5969						DFAD	AC,[777,,-1
  5970	035153	110 04 0 00 043672 			-1,,ZZ]
  5971	035154	312 04 0 00 043653 		CAME	AC,[777,,-1]
  5972	035155	003 04 0 00 001105 		ER3	AC,T
  5973	035156	312 05 0 00 043655 		CAME	AC+1,[377777,,-1]
  5974	035157	004 05 0 00 001105 		ER4	AC+1,T
  5975	035160	321 10 0 00 035152 		JUMPL	AC+4,.-^D6	;LOOP ON ERROR SWITCH^
  5976
  5977
  5978			001106		T=T+1
  5979			000040			XX=XX+XX
  5980						IFE	XX,<XX=1>
  5981		777777	777737			ZZ=ZZ+ZZ+1
  5982						IFE	<ZZ-1>,<ZZ=-2>
  5983						DFARP	T,0,0,0,XX,777,-1,-1,ZZ,777,-1,377777,-1^
  5984						DMOVE	AC,[0,,0
  5985	035161	120 04 0 00 044131 			0,,XX]
  5986						DFAD	AC,[777,,-1
  5987	035162	110 04 0 00 043675 			-1,,ZZ]
  5988	035163	312 04 0 00 043653 		CAME	AC,[777,,-1]
  5989	035164	003 04 0 00 001106 		ER3	AC,T
  5990	035165	312 05 0 00 043655 		CAME	AC+1,[377777,,-1]
  5991	035166	004 05 0 00 001106 		ER4	AC+1,T
  5992	035167	321 10 0 00 035161 		JUMPL	AC+4,.-^D6	;LOOP ON ERROR SWITCH^
  5993
  5994
  5995			001107		T=T+1
  5996			000100			XX=XX+XX
  5997						IFE	XX,<XX=1>
  5998		777777	777677			ZZ=ZZ+ZZ+1DBKCD 	PDP-10 KI10 ADVANCED INSTRUCTION DIAGNOSTIC #4, VERSION 0,3 	MACRO %52(462) 12:35  9-AUG-76 PAGE 7-5
DBKCDM	MAC	26-MAY-76 16:52		TEST AR, ARX, AD, ADX AND NORMALIZE LOGIC FOR DOUBLE FLOATING POINT OPERATIONS     SEQ 0128

  5999						IFE	<ZZ-1>,<ZZ=-2>
  6000						DFARP	T,0,0,0,XX,777,-1,-1,ZZ,777,-1,377777,-1^
  6001						DMOVE	AC,[0,,0
  6002	035170	120 04 0 00 044133 			0,,XX]
  6003						DFAD	AC,[777,,-1
  6004	035171	110 04 0 00 043700 			-1,,ZZ]
  6005	035172	312 04 0 00 043653 		CAME	AC,[777,,-1]
  6006	035173	003 04 0 00 001107 		ER3	AC,T
  6007	035174	312 05 0 00 043655 		CAME	AC+1,[377777,,-1]
  6008	035175	004 05 0 00 001107 		ER4	AC+1,T
  6009	035176	321 10 0 00 035170 		JUMPL	AC+4,.-^D6	;LOOP ON ERROR SWITCH^
  6010
  6011
  6012			001110		T=T+1
  6013			000200			XX=XX+XX
  6014						IFE	XX,<XX=1>
  6015		777777	777577			ZZ=ZZ+ZZ+1
  6016						IFE	<ZZ-1>,<ZZ=-2>
  6017						DFARP	T,0,0,0,XX,777,-1,-1,ZZ,777,-1,377777,-1^
  6018						DMOVE	AC,[0,,0
  6019	035177	120 04 0 00 044135 			0,,XX]
  6020						DFAD	AC,[777,,-1
  6021	035200	110 04 0 00 043703 			-1,,ZZ]
  6022	035201	312 04 0 00 043653 		CAME	AC,[777,,-1]
  6023	035202	003 04 0 00 001110 		ER3	AC,T
  6024	035203	312 05 0 00 043655 		CAME	AC+1,[377777,,-1]
  6025	035204	004 05 0 00 001110 		ER4	AC+1,T
  6026	035205	321 10 0 00 035177 		JUMPL	AC+4,.-^D6	;LOOP ON ERROR SWITCH^
  6027
  6028
  6029			001111		T=T+1
  6030			000400			XX=XX+XX
  6031						IFE	XX,<XX=1>
  6032		777777	777377			ZZ=ZZ+ZZ+1
  6033						IFE	<ZZ-1>,<ZZ=-2>
  6034						DFARP	T,0,0,0,XX,777,-1,-1,ZZ,777,-1,377777,-1^
  6035						DMOVE	AC,[0,,0
  6036	035206	120 04 0 00 044137 			0,,XX]
  6037						DFAD	AC,[777,,-1
  6038	035207	110 04 0 00 043706 			-1,,ZZ]
  6039	035210	312 04 0 00 043653 		CAME	AC,[777,,-1]
  6040	035211	003 04 0 00 001111 		ER3	AC,T
  6041	035212	312 05 0 00 043655 		CAME	AC+1,[377777,,-1]
  6042	035213	004 05 0 00 001111 		ER4	AC+1,T
  6043	035214	321 10 0 00 035206 		JUMPL	AC+4,.-^D6	;LOOP ON ERROR SWITCH^
  6044
  6045
  6046			001112		T=T+1
  6047			001000			XX=XX+XX
  6048						IFE	XX,<XX=1>
  6049		777777	776777			ZZ=ZZ+ZZ+1
  6050						IFE	<ZZ-1>,<ZZ=-2>
  6051						DFARP	T,0,0,0,XX,777,-1,-1,ZZ,777,-1,377777,-1^
  6052						DMOVE	AC,[0,,0
  6053	035215	120 04 0 00 044141 			0,,XX]DBKCD 	PDP-10 KI10 ADVANCED INSTRUCTION DIAGNOSTIC #4, VERSION 0,3 	MACRO %52(462) 12:35  9-AUG-76 PAGE 7-6
DBKCDM	MAC	26-MAY-76 16:52		TEST AR, ARX, AD, ADX AND NORMALIZE LOGIC FOR DOUBLE FLOATING POINT OPERATIONS     SEQ 0129

  6054						DFAD	AC,[777,,-1
  6055	035216	110 04 0 00 043711 			-1,,ZZ]
  6056	035217	312 04 0 00 043653 		CAME	AC,[777,,-1]
  6057	035220	003 04 0 00 001112 		ER3	AC,T
  6058	035221	312 05 0 00 043655 		CAME	AC+1,[377777,,-1]
  6059	035222	004 05 0 00 001112 		ER4	AC+1,T
  6060	035223	321 10 0 00 035215 		JUMPL	AC+4,.-^D6	;LOOP ON ERROR SWITCH^
  6061
  6062
  6063			001113		T=T+1
  6064			002000			XX=XX+XX
  6065						IFE	XX,<XX=1>
  6066		777777	775777			ZZ=ZZ+ZZ+1
  6067						IFE	<ZZ-1>,<ZZ=-2>
  6068						DFARP	T,0,0,0,XX,777,-1,-1,ZZ,777,-1,377777,-1^
  6069						DMOVE	AC,[0,,0
  6070	035224	120 04 0 00 044143 			0,,XX]
  6071						DFAD	AC,[777,,-1
  6072	035225	110 04 0 00 043714 			-1,,ZZ]
  6073	035226	312 04 0 00 043653 		CAME	AC,[777,,-1]
  6074	035227	003 04 0 00 001113 		ER3	AC,T
  6075	035230	312 05 0 00 043655 		CAME	AC+1,[377777,,-1]
  6076	035231	004 05 0 00 001113 		ER4	AC+1,T
  6077	035232	321 10 0 00 035224 		JUMPL	AC+4,.-^D6	;LOOP ON ERROR SWITCH^
  6078
  6079
  6080			001114		T=T+1
  6081			004000			XX=XX+XX
  6082						IFE	XX,<XX=1>
  6083		777777	773777			ZZ=ZZ+ZZ+1
  6084						IFE	<ZZ-1>,<ZZ=-2>
  6085						DFARP	T,0,0,0,XX,777,-1,-1,ZZ,777,-1,377777,-1^
  6086						DMOVE	AC,[0,,0
  6087	035233	120 04 0 00 044145 			0,,XX]
  6088						DFAD	AC,[777,,-1
  6089	035234	110 04 0 00 043717 			-1,,ZZ]
  6090	035235	312 04 0 00 043653 		CAME	AC,[777,,-1]
  6091	035236	003 04 0 00 001114 		ER3	AC,T
  6092	035237	312 05 0 00 043655 		CAME	AC+1,[377777,,-1]
  6093	035240	004 05 0 00 001114 		ER4	AC+1,T
  6094	035241	321 10 0 00 035233 		JUMPL	AC+4,.-^D6	;LOOP ON ERROR SWITCH^
  6095
  6096
  6097			001115		T=T+1
  6098			010000			XX=XX+XX
  6099						IFE	XX,<XX=1>
  6100		777777	767777			ZZ=ZZ+ZZ+1
  6101						IFE	<ZZ-1>,<ZZ=-2>
  6102						DFARP	T,0,0,0,XX,777,-1,-1,ZZ,777,-1,377777,-1^
  6103						DMOVE	AC,[0,,0
  6104	035242	120 04 0 00 044147 			0,,XX]
  6105						DFAD	AC,[777,,-1
  6106	035243	110 04 0 00 043722 			-1,,ZZ]
  6107	035244	312 04 0 00 043653 		CAME	AC,[777,,-1]
  6108	035245	003 04 0 00 001115 		ER3	AC,TDBKCD 	PDP-10 KI10 ADVANCED INSTRUCTION DIAGNOSTIC #4, VERSION 0,3 	MACRO %52(462) 12:35  9-AUG-76 PAGE 7-7
DBKCDM	MAC	26-MAY-76 16:52		TEST AR, ARX, AD, ADX AND NORMALIZE LOGIC FOR DOUBLE FLOATING POINT OPERATIONS     SEQ 0130

  6109	035246	312 05 0 00 043655 		CAME	AC+1,[377777,,-1]
  6110	035247	004 05 0 00 001115 		ER4	AC+1,T
  6111	035250	321 10 0 00 035242 		JUMPL	AC+4,.-^D6	;LOOP ON ERROR SWITCH^
  6112
  6113
  6114			001116		T=T+1
  6115			020000			XX=XX+XX
  6116						IFE	XX,<XX=1>
  6117		777777	757777			ZZ=ZZ+ZZ+1
  6118						IFE	<ZZ-1>,<ZZ=-2>
  6119						DFARP	T,0,0,0,XX,777,-1,-1,ZZ,777,-1,377777,-1^
  6120						DMOVE	AC,[0,,0
  6121	035251	120 04 0 00 044151 			0,,XX]
  6122						DFAD	AC,[777,,-1
  6123	035252	110 04 0 00 043725 			-1,,ZZ]
  6124	035253	312 04 0 00 043653 		CAME	AC,[777,,-1]
  6125	035254	003 04 0 00 001116 		ER3	AC,T
  6126	035255	312 05 0 00 043655 		CAME	AC+1,[377777,,-1]
  6127	035256	004 05 0 00 001116 		ER4	AC+1,T
  6128	035257	321 10 0 00 035251 		JUMPL	AC+4,.-^D6	;LOOP ON ERROR SWITCH^
  6129
  6130
  6131			001117		T=T+1
  6132			040000			XX=XX+XX
  6133						IFE	XX,<XX=1>
  6134		777777	737777			ZZ=ZZ+ZZ+1
  6135						IFE	<ZZ-1>,<ZZ=-2>
  6136						DFARP	T,0,0,0,XX,777,-1,-1,ZZ,777,-1,377777,-1^
  6137						DMOVE	AC,[0,,0
  6138	035260	120 04 0 00 044153 			0,,XX]
  6139						DFAD	AC,[777,,-1
  6140	035261	110 04 0 00 043730 			-1,,ZZ]
  6141	035262	312 04 0 00 043653 		CAME	AC,[777,,-1]
  6142	035263	003 04 0 00 001117 		ER3	AC,T
  6143	035264	312 05 0 00 043655 		CAME	AC+1,[377777,,-1]
  6144	035265	004 05 0 00 001117 		ER4	AC+1,T
  6145	035266	321 10 0 00 035260 		JUMPL	AC+4,.-^D6	;LOOP ON ERROR SWITCH^
  6146
  6147
  6148			001120		T=T+1
  6149			100000			XX=XX+XX
  6150						IFE	XX,<XX=1>
  6151		777777	677777			ZZ=ZZ+ZZ+1
  6152						IFE	<ZZ-1>,<ZZ=-2>
  6153						DFARP	T,0,0,0,XX,777,-1,-1,ZZ,777,-1,377777,-1^
  6154						DMOVE	AC,[0,,0
  6155	035267	120 04 0 00 044155 			0,,XX]
  6156						DFAD	AC,[777,,-1
  6157	035270	110 04 0 00 043733 			-1,,ZZ]
  6158	035271	312 04 0 00 043653 		CAME	AC,[777,,-1]
  6159	035272	003 04 0 00 001120 		ER3	AC,T
  6160	035273	312 05 0 00 043655 		CAME	AC+1,[377777,,-1]
  6161	035274	004 05 0 00 001120 		ER4	AC+1,T
  6162	035275	321 10 0 00 035267 		JUMPL	AC+4,.-^D6	;LOOP ON ERROR SWITCH^
  6163DBKCD 	PDP-10 KI10 ADVANCED INSTRUCTION DIAGNOSTIC #4, VERSION 0,3 	MACRO %52(462) 12:35  9-AUG-76 PAGE 7-8
DBKCDM	MAC	26-MAY-76 16:52		TEST AR, ARX, AD, ADX AND NORMALIZE LOGIC FOR DOUBLE FLOATING POINT OPERATIONS     SEQ 0131

  6164
  6165			001121		T=T+1
  6166			200000			XX=XX+XX
  6167						IFE	XX,<XX=1>
  6168		777777	577777			ZZ=ZZ+ZZ+1
  6169						IFE	<ZZ-1>,<ZZ=-2>
  6170						DFARP	T,0,0,0,XX,777,-1,-1,ZZ,777,-1,377777,-1^
  6171						DMOVE	AC,[0,,0
  6172	035276	120 04 0 00 044157 			0,,XX]
  6173						DFAD	AC,[777,,-1
  6174	035277	110 04 0 00 043736 			-1,,ZZ]
  6175	035300	312 04 0 00 043653 		CAME	AC,[777,,-1]
  6176	035301	003 04 0 00 001121 		ER3	AC,T
  6177	035302	312 05 0 00 043655 		CAME	AC+1,[377777,,-1]
  6178	035303	004 05 0 00 001121 		ER4	AC+1,T
  6179	035304	321 10 0 00 035276 		JUMPL	AC+4,.-^D6	;LOOP ON ERROR SWITCH^
  6180
  6181
  6182			001122		T=T+1
  6183			400000			XX=XX+XX
  6184						IFE	XX,<XX=1>
  6185		777777	377777			ZZ=ZZ+ZZ+1
  6186						IFE	<ZZ-1>,<ZZ=-2>
  6187						DFARP	T,0,0,0,XX,777,-1,-1,ZZ,777,-1,377777,-1^
  6188						DMOVE	AC,[0,,0
  6189	035305	120 04 0 00 044161 			0,,XX]
  6190						DFAD	AC,[777,,-1
  6191	035306	110 04 0 00 043741 			-1,,ZZ]
  6192	035307	312 04 0 00 043653 		CAME	AC,[777,,-1]
  6193	035310	003 04 0 00 001122 		ER3	AC,T
  6194	035311	312 05 0 00 043655 		CAME	AC+1,[377777,,-1]
  6195	035312	004 05 0 00 001122 		ER4	AC+1,T
  6196	035313	321 10 0 00 035305 		JUMPL	AC+4,.-^D6	;LOOP ON ERROR SWITCH^
  6197
  6198
  6199			000000			XX=0
  6200			000000			ZZ=0
  6201
  6202
  6203						REPEAT	^D18,<
  6204					T=T+1
  6205						XX=XX+XX
  6206						IFE	XX,<XX=1>
  6207						ZZ=ZZ+ZZ+1
  6208						IFE	<ZZ-1>,<ZZ=-2>
  6209						DFARP	T,0,0,XX,0,777,-1,ZZ,-1,777,-1,377777,-1
  6210					>
  6211
  6212			001123		T=T+1
  6213			000000			XX=XX+XX
  6214			000001			IFE	XX,<XX=1>
  6215			000001			ZZ=ZZ+ZZ+1
  6216		777777	777776			IFE	<ZZ-1>,<ZZ=-2>
  6217						DFARP	T,0,0,XX,0,777,-1,ZZ,-1,777,-1,377777,-1^
  6218						DMOVE	AC,[0,,0DBKCD 	PDP-10 KI10 ADVANCED INSTRUCTION DIAGNOSTIC #4, VERSION 0,3 	MACRO %52(462) 12:35  9-AUG-76 PAGE 7-9
DBKCDM	MAC	26-MAY-76 16:52		TEST AR, ARX, AD, ADX AND NORMALIZE LOGIC FOR DOUBLE FLOATING POINT OPERATIONS     SEQ 0132

  6219	035314	120 04 0 00 044163 			XX,,0]
  6220						DFAD	AC,[777,,-1
  6221	035315	110 04 0 00 043744 			ZZ,,-1]
  6222	035316	312 04 0 00 043653 		CAME	AC,[777,,-1]
  6223	035317	003 04 0 00 001123 		ER3	AC,T
  6224	035320	312 05 0 00 043655 		CAME	AC+1,[377777,,-1]
  6225	035321	004 05 0 00 001123 		ER4	AC+1,T
  6226	035322	321 10 0 00 035314 		JUMPL	AC+4,.-^D6	;LOOP ON ERROR SWITCH^
  6227
  6228
  6229			001124		T=T+1
  6230			000002			XX=XX+XX
  6231						IFE	XX,<XX=1>
  6232		777777	777775			ZZ=ZZ+ZZ+1
  6233						IFE	<ZZ-1>,<ZZ=-2>
  6234						DFARP	T,0,0,XX,0,777,-1,ZZ,-1,777,-1,377777,-1^
  6235						DMOVE	AC,[0,,0
  6236	035323	120 04 0 00 044165 			XX,,0]
  6237						DFAD	AC,[777,,-1
  6238	035324	110 04 0 00 043747 			ZZ,,-1]
  6239	035325	312 04 0 00 043653 		CAME	AC,[777,,-1]
  6240	035326	003 04 0 00 001124 		ER3	AC,T
  6241	035327	312 05 0 00 043655 		CAME	AC+1,[377777,,-1]
  6242	035330	004 05 0 00 001124 		ER4	AC+1,T
  6243	035331	321 10 0 00 035323 		JUMPL	AC+4,.-^D6	;LOOP ON ERROR SWITCH^
  6244
  6245
  6246			001125		T=T+1
  6247			000004			XX=XX+XX
  6248						IFE	XX,<XX=1>
  6249		777777	777773			ZZ=ZZ+ZZ+1
  6250						IFE	<ZZ-1>,<ZZ=-2>
  6251						DFARP	T,0,0,XX,0,777,-1,ZZ,-1,777,-1,377777,-1^
  6252						DMOVE	AC,[0,,0
  6253	035332	120 04 0 00 044167 			XX,,0]
  6254						DFAD	AC,[777,,-1
  6255	035333	110 04 0 00 043752 			ZZ,,-1]
  6256	035334	312 04 0 00 043653 		CAME	AC,[777,,-1]
  6257	035335	003 04 0 00 001125 		ER3	AC,T
  6258	035336	312 05 0 00 043655 		CAME	AC+1,[377777,,-1]
  6259	035337	004 05 0 00 001125 		ER4	AC+1,T
  6260	035340	321 10 0 00 035332 		JUMPL	AC+4,.-^D6	;LOOP ON ERROR SWITCH^
  6261
  6262
  6263			001126		T=T+1
  6264			000010			XX=XX+XX
  6265						IFE	XX,<XX=1>
  6266		777777	777767			ZZ=ZZ+ZZ+1
  6267						IFE	<ZZ-1>,<ZZ=-2>
  6268						DFARP	T,0,0,XX,0,777,-1,ZZ,-1,777,-1,377777,-1^
  6269						DMOVE	AC,[0,,0
  6270	035341	120 04 0 00 044171 			XX,,0]
  6271						DFAD	AC,[777,,-1
  6272	035342	110 04 0 00 043755 			ZZ,,-1]
  6273	035343	312 04 0 00 043653 		CAME	AC,[777,,-1]DBKCD 	PDP-10 KI10 ADVANCED INSTRUCTION DIAGNOSTIC #4, VERSION 0,3 	MACRO %52(462) 12:35  9-AUG-76 PAGE 7-10
DBKCDM	MAC	26-MAY-76 16:52		TEST AR, ARX, AD, ADX AND NORMALIZE LOGIC FOR DOUBLE FLOATING POINT OPERATIONS     SEQ 0133

  6274	035344	003 04 0 00 001126 		ER3	AC,T
  6275	035345	312 05 0 00 043655 		CAME	AC+1,[377777,,-1]
  6276	035346	004 05 0 00 001126 		ER4	AC+1,T
  6277	035347	321 10 0 00 035341 		JUMPL	AC+4,.-^D6	;LOOP ON ERROR SWITCH^
  6278
  6279
  6280			001127		T=T+1
  6281			000020			XX=XX+XX
  6282						IFE	XX,<XX=1>
  6283		777777	777757			ZZ=ZZ+ZZ+1
  6284						IFE	<ZZ-1>,<ZZ=-2>
  6285						DFARP	T,0,0,XX,0,777,-1,ZZ,-1,777,-1,377777,-1^
  6286						DMOVE	AC,[0,,0
  6287	035350	120 04 0 00 044173 			XX,,0]
  6288						DFAD	AC,[777,,-1
  6289	035351	110 04 0 00 043760 			ZZ,,-1]
  6290	035352	312 04 0 00 043653 		CAME	AC,[777,,-1]
  6291	035353	003 04 0 00 001127 		ER3	AC,T
  6292	035354	312 05 0 00 043655 		CAME	AC+1,[377777,,-1]
  6293	035355	004 05 0 00 001127 		ER4	AC+1,T
  6294	035356	321 10 0 00 035350 		JUMPL	AC+4,.-^D6	;LOOP ON ERROR SWITCH^
  6295
  6296
  6297			001130		T=T+1
  6298			000040			XX=XX+XX
  6299						IFE	XX,<XX=1>
  6300		777777	777737			ZZ=ZZ+ZZ+1
  6301						IFE	<ZZ-1>,<ZZ=-2>
  6302						DFARP	T,0,0,XX,0,777,-1,ZZ,-1,777,-1,377777,-1^
  6303						DMOVE	AC,[0,,0
  6304	035357	120 04 0 00 044175 			XX,,0]
  6305						DFAD	AC,[777,,-1
  6306	035360	110 04 0 00 043763 			ZZ,,-1]
  6307	035361	312 04 0 00 043653 		CAME	AC,[777,,-1]
  6308	035362	003 04 0 00 001130 		ER3	AC,T
  6309	035363	312 05 0 00 043655 		CAME	AC+1,[377777,,-1]
  6310	035364	004 05 0 00 001130 		ER4	AC+1,T
  6311	035365	321 10 0 00 035357 		JUMPL	AC+4,.-^D6	;LOOP ON ERROR SWITCH^
  6312
  6313
  6314			001131		T=T+1
  6315			000100			XX=XX+XX
  6316						IFE	XX,<XX=1>
  6317		777777	777677			ZZ=ZZ+ZZ+1
  6318						IFE	<ZZ-1>,<ZZ=-2>
  6319						DFARP	T,0,0,XX,0,777,-1,ZZ,-1,777,-1,377777,-1^
  6320						DMOVE	AC,[0,,0
  6321	035366	120 04 0 00 044177 			XX,,0]
  6322						DFAD	AC,[777,,-1
  6323	035367	110 04 0 00 043766 			ZZ,,-1]
  6324	035370	312 04 0 00 043653 		CAME	AC,[777,,-1]
  6325	035371	003 04 0 00 001131 		ER3	AC,T
  6326	035372	312 05 0 00 043655 		CAME	AC+1,[377777,,-1]
  6327	035373	004 05 0 00 001131 		ER4	AC+1,T
  6328	035374	321 10 0 00 035366 		JUMPL	AC+4,.-^D6	;LOOP ON ERROR SWITCH^DBKCD 	PDP-10 KI10 ADVANCED INSTRUCTION DIAGNOSTIC #4, VERSION 0,3 	MACRO %52(462) 12:35  9-AUG-76 PAGE 7-11
DBKCDM	MAC	26-MAY-76 16:52		TEST AR, ARX, AD, ADX AND NORMALIZE LOGIC FOR DOUBLE FLOATING POINT OPERATIONS     SEQ 0134

  6329
  6330
  6331			001132		T=T+1
  6332			000200			XX=XX+XX
  6333						IFE	XX,<XX=1>
  6334		777777	777577			ZZ=ZZ+ZZ+1
  6335						IFE	<ZZ-1>,<ZZ=-2>
  6336						DFARP	T,0,0,XX,0,777,-1,ZZ,-1,777,-1,377777,-1^
  6337						DMOVE	AC,[0,,0
  6338	035375	120 04 0 00 044201 			XX,,0]
  6339						DFAD	AC,[777,,-1
  6340	035376	110 04 0 00 043771 			ZZ,,-1]
  6341	035377	312 04 0 00 043653 		CAME	AC,[777,,-1]
  6342	035400	003 04 0 00 001132 		ER3	AC,T
  6343	035401	312 05 0 00 043655 		CAME	AC+1,[377777,,-1]
  6344	035402	004 05 0 00 001132 		ER4	AC+1,T
  6345	035403	321 10 0 00 035375 		JUMPL	AC+4,.-^D6	;LOOP ON ERROR SWITCH^
  6346
  6347
  6348			001133		T=T+1
  6349			000400			XX=XX+XX
  6350						IFE	XX,<XX=1>
  6351		777777	777377			ZZ=ZZ+ZZ+1
  6352						IFE	<ZZ-1>,<ZZ=-2>
  6353						DFARP	T,0,0,XX,0,777,-1,ZZ,-1,777,-1,377777,-1^
  6354						DMOVE	AC,[0,,0
  6355	035404	120 04 0 00 044203 			XX,,0]
  6356						DFAD	AC,[777,,-1
  6357	035405	110 04 0 00 043774 			ZZ,,-1]
  6358	035406	312 04 0 00 043653 		CAME	AC,[777,,-1]
  6359	035407	003 04 0 00 001133 		ER3	AC,T
  6360	035410	312 05 0 00 043655 		CAME	AC+1,[377777,,-1]
  6361	035411	004 05 0 00 001133 		ER4	AC+1,T
  6362	035412	321 10 0 00 035404 		JUMPL	AC+4,.-^D6	;LOOP ON ERROR SWITCH^
  6363
  6364
  6365			001134		T=T+1
  6366			001000			XX=XX+XX
  6367						IFE	XX,<XX=1>
  6368		777777	776777			ZZ=ZZ+ZZ+1
  6369						IFE	<ZZ-1>,<ZZ=-2>
  6370						DFARP	T,0,0,XX,0,777,-1,ZZ,-1,777,-1,377777,-1^
  6371						DMOVE	AC,[0,,0
  6372	035413	120 04 0 00 044205 			XX,,0]
  6373						DFAD	AC,[777,,-1
  6374	035414	110 04 0 00 043777 			ZZ,,-1]
  6375	035415	312 04 0 00 043653 		CAME	AC,[777,,-1]
  6376	035416	003 04 0 00 001134 		ER3	AC,T
  6377	035417	312 05 0 00 043655 		CAME	AC+1,[377777,,-1]
  6378	035420	004 05 0 00 001134 		ER4	AC+1,T
  6379	035421	321 10 0 00 035413 		JUMPL	AC+4,.-^D6	;LOOP ON ERROR SWITCH^
  6380
  6381
  6382			001135		T=T+1
  6383			002000			XX=XX+XXDBKCD 	PDP-10 KI10 ADVANCED INSTRUCTION DIAGNOSTIC #4, VERSION 0,3 	MACRO %52(462) 12:35  9-AUG-76 PAGE 7-12
DBKCDM	MAC	26-MAY-76 16:52		TEST AR, ARX, AD, ADX AND NORMALIZE LOGIC FOR DOUBLE FLOATING POINT OPERATIONS     SEQ 0135

  6384						IFE	XX,<XX=1>
  6385		777777	775777			ZZ=ZZ+ZZ+1
  6386						IFE	<ZZ-1>,<ZZ=-2>
  6387						DFARP	T,0,0,XX,0,777,-1,ZZ,-1,777,-1,377777,-1^
  6388						DMOVE	AC,[0,,0
  6389	035422	120 04 0 00 044207 			XX,,0]
  6390						DFAD	AC,[777,,-1
  6391	035423	110 04 0 00 044002 			ZZ,,-1]
  6392	035424	312 04 0 00 043653 		CAME	AC,[777,,-1]
  6393	035425	003 04 0 00 001135 		ER3	AC,T
  6394	035426	312 05 0 00 043655 		CAME	AC+1,[377777,,-1]
  6395	035427	004 05 0 00 001135 		ER4	AC+1,T
  6396	035430	321 10 0 00 035422 		JUMPL	AC+4,.-^D6	;LOOP ON ERROR SWITCH^
  6397
  6398
  6399			001136		T=T+1
  6400			004000			XX=XX+XX
  6401						IFE	XX,<XX=1>
  6402		777777	773777			ZZ=ZZ+ZZ+1
  6403						IFE	<ZZ-1>,<ZZ=-2>
  6404						DFARP	T,0,0,XX,0,777,-1,ZZ,-1,777,-1,377777,-1^
  6405						DMOVE	AC,[0,,0
  6406	035431	120 04 0 00 044211 			XX,,0]
  6407						DFAD	AC,[777,,-1
  6408	035432	110 04 0 00 044005 			ZZ,,-1]
  6409	035433	312 04 0 00 043653 		CAME	AC,[777,,-1]
  6410	035434	003 04 0 00 001136 		ER3	AC,T
  6411	035435	312 05 0 00 043655 		CAME	AC+1,[377777,,-1]
  6412	035436	004 05 0 00 001136 		ER4	AC+1,T
  6413	035437	321 10 0 00 035431 		JUMPL	AC+4,.-^D6	;LOOP ON ERROR SWITCH^
  6414
  6415
  6416			001137		T=T+1
  6417			010000			XX=XX+XX
  6418						IFE	XX,<XX=1>
  6419		777777	767777			ZZ=ZZ+ZZ+1
  6420						IFE	<ZZ-1>,<ZZ=-2>
  6421						DFARP	T,0,0,XX,0,777,-1,ZZ,-1,777,-1,377777,-1^
  6422						DMOVE	AC,[0,,0
  6423	035440	120 04 0 00 044213 			XX,,0]
  6424						DFAD	AC,[777,,-1
  6425	035441	110 04 0 00 044010 			ZZ,,-1]
  6426	035442	312 04 0 00 043653 		CAME	AC,[777,,-1]
  6427	035443	003 04 0 00 001137 		ER3	AC,T
  6428	035444	312 05 0 00 043655 		CAME	AC+1,[377777,,-1]
  6429	035445	004 05 0 00 001137 		ER4	AC+1,T
  6430	035446	321 10 0 00 035440 		JUMPL	AC+4,.-^D6	;LOOP ON ERROR SWITCH^
  6431
  6432
  6433			001140		T=T+1
  6434			020000			XX=XX+XX
  6435						IFE	XX,<XX=1>
  6436		777777	757777			ZZ=ZZ+ZZ+1
  6437						IFE	<ZZ-1>,<ZZ=-2>
  6438						DFARP	T,0,0,XX,0,777,-1,ZZ,-1,777,-1,377777,-1^DBKCD 	PDP-10 KI10 ADVANCED INSTRUCTION DIAGNOSTIC #4, VERSION 0,3 	MACRO %52(462) 12:35  9-AUG-76 PAGE 7-13
DBKCDM	MAC	26-MAY-76 16:52		TEST AR, ARX, AD, ADX AND NORMALIZE LOGIC FOR DOUBLE FLOATING POINT OPERATIONS     SEQ 0136

  6439						DMOVE	AC,[0,,0
  6440	035447	120 04 0 00 044215 			XX,,0]
  6441						DFAD	AC,[777,,-1
  6442	035450	110 04 0 00 044013 			ZZ,,-1]
  6443	035451	312 04 0 00 043653 		CAME	AC,[777,,-1]
  6444	035452	003 04 0 00 001140 		ER3	AC,T
  6445	035453	312 05 0 00 043655 		CAME	AC+1,[377777,,-1]
  6446	035454	004 05 0 00 001140 		ER4	AC+1,T
  6447	035455	321 10 0 00 035447 		JUMPL	AC+4,.-^D6	;LOOP ON ERROR SWITCH^
  6448
  6449
  6450			001141		T=T+1
  6451			040000			XX=XX+XX
  6452						IFE	XX,<XX=1>
  6453		777777	737777			ZZ=ZZ+ZZ+1
  6454						IFE	<ZZ-1>,<ZZ=-2>
  6455						DFARP	T,0,0,XX,0,777,-1,ZZ,-1,777,-1,377777,-1^
  6456						DMOVE	AC,[0,,0
  6457	035456	120 04 0 00 044217 			XX,,0]
  6458						DFAD	AC,[777,,-1
  6459	035457	110 04 0 00 044016 			ZZ,,-1]
  6460	035460	312 04 0 00 043653 		CAME	AC,[777,,-1]
  6461	035461	003 04 0 00 001141 		ER3	AC,T
  6462	035462	312 05 0 00 043655 		CAME	AC+1,[377777,,-1]
  6463	035463	004 05 0 00 001141 		ER4	AC+1,T
  6464	035464	321 10 0 00 035456 		JUMPL	AC+4,.-^D6	;LOOP ON ERROR SWITCH^
  6465
  6466
  6467			001142		T=T+1
  6468			100000			XX=XX+XX
  6469						IFE	XX,<XX=1>
  6470		777777	677777			ZZ=ZZ+ZZ+1
  6471						IFE	<ZZ-1>,<ZZ=-2>
  6472						DFARP	T,0,0,XX,0,777,-1,ZZ,-1,777,-1,377777,-1^
  6473						DMOVE	AC,[0,,0
  6474	035465	120 04 0 00 044221 			XX,,0]
  6475						DFAD	AC,[777,,-1
  6476	035466	110 04 0 00 044021 			ZZ,,-1]
  6477	035467	312 04 0 00 043653 		CAME	AC,[777,,-1]
  6478	035470	003 04 0 00 001142 		ER3	AC,T
  6479	035471	312 05 0 00 043655 		CAME	AC+1,[377777,,-1]
  6480	035472	004 05 0 00 001142 		ER4	AC+1,T
  6481	035473	321 10 0 00 035465 		JUMPL	AC+4,.-^D6	;LOOP ON ERROR SWITCH^
  6482
  6483
  6484			001143		T=T+1
  6485			200000			XX=XX+XX
  6486						IFE	XX,<XX=1>
  6487		777777	577777			ZZ=ZZ+ZZ+1
  6488						IFE	<ZZ-1>,<ZZ=-2>
  6489						DFARP	T,0,0,XX,0,777,-1,ZZ,-1,777,-1,377777,-1^
  6490						DMOVE	AC,[0,,0
  6491	035474	120 04 0 00 043355 			XX,,0]
  6492						DFAD	AC,[777,,-1
  6493	035475	110 04 0 00 044024 			ZZ,,-1]DBKCD 	PDP-10 KI10 ADVANCED INSTRUCTION DIAGNOSTIC #4, VERSION 0,3 	MACRO %52(462) 12:35  9-AUG-76 PAGE 7-14
DBKCDM	MAC	26-MAY-76 16:52		TEST AR, ARX, AD, ADX AND NORMALIZE LOGIC FOR DOUBLE FLOATING POINT OPERATIONS     SEQ 0137

  6494	035476	312 04 0 00 043653 		CAME	AC,[777,,-1]
  6495	035477	003 04 0 00 001143 		ER3	AC,T
  6496	035500	312 05 0 00 043655 		CAME	AC+1,[377777,,-1]
  6497	035501	004 05 0 00 001143 		ER4	AC+1,T
  6498	035502	321 10 0 00 035474 		JUMPL	AC+4,.-^D6	;LOOP ON ERROR SWITCH^
  6499
  6500
  6501			001144		T=T+1
  6502			400000			XX=XX+XX
  6503						IFE	XX,<XX=1>
  6504		777777	377777			ZZ=ZZ+ZZ+1
  6505						IFE	<ZZ-1>,<ZZ=-2>
  6506						DFARP	T,0,0,XX,0,777,-1,ZZ,-1,777,-1,377777,-1^
  6507						DMOVE	AC,[0,,0
  6508	035503	120 04 0 00 044223 			XX,,0]
  6509						DFAD	AC,[777,,-1
  6510	035504	110 04 0 00 044027 			ZZ,,-1]
  6511	035505	312 04 0 00 043653 		CAME	AC,[777,,-1]
  6512	035506	003 04 0 00 001144 		ER3	AC,T
  6513	035507	312 05 0 00 043655 		CAME	AC+1,[377777,,-1]
  6514	035510	004 05 0 00 001144 		ER4	AC+1,T
  6515	035511	321 10 0 00 035503 		JUMPL	AC+4,.-^D6	;LOOP ON ERROR SWITCH^
  6516
  6517
  6518			000000			XX=0
  6519			000000			ZZ=0
  6520
  6521
  6522						REPEAT	^D18,<
  6523					T=T+1
  6524						XX=XX+XX
  6525						IFE	XX,<XX=1>
  6526						ZZ=ZZ+ZZ+1
  6527						IFE	<ZZ-1>,<ZZ=-2>
  6528						DFARP	T,0,XX,0,0,777,ZZ,-1,-1,777,-1,377777,-1
  6529					>
  6530
  6531			001145		T=T+1
  6532			000000			XX=XX+XX
  6533			000001			IFE	XX,<XX=1>
  6534			000001			ZZ=ZZ+ZZ+1
  6535		777777	777776			IFE	<ZZ-1>,<ZZ=-2>
  6536						DFARP	T,0,XX,0,0,777,ZZ,-1,-1,777,-1,377777,-1^
  6537						DMOVE	AC,[0,,XX
  6538	035512	120 04 0 00 044120 			0,,0]
  6539						DFAD	AC,[777,,ZZ
  6540	035513	110 04 0 00 044031 			-1,,-1]
  6541	035514	312 04 0 00 043653 		CAME	AC,[777,,-1]
  6542	035515	003 04 0 00 001145 		ER3	AC,T
  6543	035516	312 05 0 00 043655 		CAME	AC+1,[377777,,-1]
  6544	035517	004 05 0 00 001145 		ER4	AC+1,T
  6545	035520	321 10 0 00 035512 		JUMPL	AC+4,.-^D6	;LOOP ON ERROR SWITCH^
  6546
  6547
  6548			001146		T=T+1DBKCD 	PDP-10 KI10 ADVANCED INSTRUCTION DIAGNOSTIC #4, VERSION 0,3 	MACRO %52(462) 12:35  9-AUG-76 PAGE 7-15
DBKCDM	MAC	26-MAY-76 16:52		TEST AR, ARX, AD, ADX AND NORMALIZE LOGIC FOR DOUBLE FLOATING POINT OPERATIONS     SEQ 0138

  6549			000002			XX=XX+XX
  6550						IFE	XX,<XX=1>
  6551		777777	777775			ZZ=ZZ+ZZ+1
  6552						IFE	<ZZ-1>,<ZZ=-2>
  6553						DFARP	T,0,XX,0,0,777,ZZ,-1,-1,777,-1,377777,-1^
  6554						DMOVE	AC,[0,,XX
  6555	035521	120 04 0 00 044122 			0,,0]
  6556						DFAD	AC,[777,,ZZ
  6557	035522	110 04 0 00 044033 			-1,,-1]
  6558	035523	312 04 0 00 043653 		CAME	AC,[777,,-1]
  6559	035524	003 04 0 00 001146 		ER3	AC,T
  6560	035525	312 05 0 00 043655 		CAME	AC+1,[377777,,-1]
  6561	035526	004 05 0 00 001146 		ER4	AC+1,T
  6562	035527	321 10 0 00 035521 		JUMPL	AC+4,.-^D6	;LOOP ON ERROR SWITCH^
  6563
  6564
  6565			001147		T=T+1
  6566			000004			XX=XX+XX
  6567						IFE	XX,<XX=1>
  6568		777777	777773			ZZ=ZZ+ZZ+1
  6569						IFE	<ZZ-1>,<ZZ=-2>
  6570						DFARP	T,0,XX,0,0,777,ZZ,-1,-1,777,-1,377777,-1^
  6571						DMOVE	AC,[0,,XX
  6572	035530	120 04 0 00 044124 			0,,0]
  6573						DFAD	AC,[777,,ZZ
  6574	035531	110 04 0 00 044035 			-1,,-1]
  6575	035532	312 04 0 00 043653 		CAME	AC,[777,,-1]
  6576	035533	003 04 0 00 001147 		ER3	AC,T
  6577	035534	312 05 0 00 043655 		CAME	AC+1,[377777,,-1]
  6578	035535	004 05 0 00 001147 		ER4	AC+1,T
  6579	035536	321 10 0 00 035530 		JUMPL	AC+4,.-^D6	;LOOP ON ERROR SWITCH^
  6580
  6581
  6582			001150		T=T+1
  6583			000010			XX=XX+XX
  6584						IFE	XX,<XX=1>
  6585		777777	777767			ZZ=ZZ+ZZ+1
  6586						IFE	<ZZ-1>,<ZZ=-2>
  6587						DFARP	T,0,XX,0,0,777,ZZ,-1,-1,777,-1,377777,-1^
  6588						DMOVE	AC,[0,,XX
  6589	035537	120 04 0 00 044126 			0,,0]
  6590						DFAD	AC,[777,,ZZ
  6591	035540	110 04 0 00 044037 			-1,,-1]
  6592	035541	312 04 0 00 043653 		CAME	AC,[777,,-1]
  6593	035542	003 04 0 00 001150 		ER3	AC,T
  6594	035543	312 05 0 00 043655 		CAME	AC+1,[377777,,-1]
  6595	035544	004 05 0 00 001150 		ER4	AC+1,T
  6596	035545	321 10 0 00 035537 		JUMPL	AC+4,.-^D6	;LOOP ON ERROR SWITCH^
  6597
  6598
  6599			001151		T=T+1
  6600			000020			XX=XX+XX
  6601						IFE	XX,<XX=1>
  6602		777777	777757			ZZ=ZZ+ZZ+1
  6603						IFE	<ZZ-1>,<ZZ=-2>DBKCD 	PDP-10 KI10 ADVANCED INSTRUCTION DIAGNOSTIC #4, VERSION 0,3 	MACRO %52(462) 12:35  9-AUG-76 PAGE 7-16
DBKCDM	MAC	26-MAY-76 16:52		TEST AR, ARX, AD, ADX AND NORMALIZE LOGIC FOR DOUBLE FLOATING POINT OPERATIONS     SEQ 0139

  6604						DFARP	T,0,XX,0,0,777,ZZ,-1,-1,777,-1,377777,-1^
  6605						DMOVE	AC,[0,,XX
  6606	035546	120 04 0 00 044130 			0,,0]
  6607						DFAD	AC,[777,,ZZ
  6608	035547	110 04 0 00 044041 			-1,,-1]
  6609	035550	312 04 0 00 043653 		CAME	AC,[777,,-1]
  6610	035551	003 04 0 00 001151 		ER3	AC,T
  6611	035552	312 05 0 00 043655 		CAME	AC+1,[377777,,-1]
  6612	035553	004 05 0 00 001151 		ER4	AC+1,T
  6613	035554	321 10 0 00 035546 		JUMPL	AC+4,.-^D6	;LOOP ON ERROR SWITCH^
  6614
  6615
  6616			001152		T=T+1
  6617			000040			XX=XX+XX
  6618						IFE	XX,<XX=1>
  6619		777777	777737			ZZ=ZZ+ZZ+1
  6620						IFE	<ZZ-1>,<ZZ=-2>
  6621						DFARP	T,0,XX,0,0,777,ZZ,-1,-1,777,-1,377777,-1^
  6622						DMOVE	AC,[0,,XX
  6623	035555	120 04 0 00 044132 			0,,0]
  6624						DFAD	AC,[777,,ZZ
  6625	035556	110 04 0 00 044043 			-1,,-1]
  6626	035557	312 04 0 00 043653 		CAME	AC,[777,,-1]
  6627	035560	003 04 0 00 001152 		ER3	AC,T
  6628	035561	312 05 0 00 043655 		CAME	AC+1,[377777,,-1]
  6629	035562	004 05 0 00 001152 		ER4	AC+1,T
  6630	035563	321 10 0 00 035555 		JUMPL	AC+4,.-^D6	;LOOP ON ERROR SWITCH^
  6631
  6632
  6633			001153		T=T+1
  6634			000100			XX=XX+XX
  6635						IFE	XX,<XX=1>
  6636		777777	777677			ZZ=ZZ+ZZ+1
  6637						IFE	<ZZ-1>,<ZZ=-2>
  6638						DFARP	T,0,XX,0,0,777,ZZ,-1,-1,777,-1,377777,-1^
  6639						DMOVE	AC,[0,,XX
  6640	035564	120 04 0 00 044134 			0,,0]
  6641						DFAD	AC,[777,,ZZ
  6642	035565	110 04 0 00 044045 			-1,,-1]
  6643	035566	312 04 0 00 043653 		CAME	AC,[777,,-1]
  6644	035567	003 04 0 00 001153 		ER3	AC,T
  6645	035570	312 05 0 00 043655 		CAME	AC+1,[377777,,-1]
  6646	035571	004 05 0 00 001153 		ER4	AC+1,T
  6647	035572	321 10 0 00 035564 		JUMPL	AC+4,.-^D6	;LOOP ON ERROR SWITCH^
  6648
  6649
  6650			001154		T=T+1
  6651			000200			XX=XX+XX
  6652						IFE	XX,<XX=1>
  6653		777777	777577			ZZ=ZZ+ZZ+1
  6654						IFE	<ZZ-1>,<ZZ=-2>
  6655						DFARP	T,0,XX,0,0,777,ZZ,-1,-1,777,-1,377777,-1^
  6656						DMOVE	AC,[0,,XX
  6657	035573	120 04 0 00 044136 			0,,0]
  6658						DFAD	AC,[777,,ZZDBKCD 	PDP-10 KI10 ADVANCED INSTRUCTION DIAGNOSTIC #4, VERSION 0,3 	MACRO %52(462) 12:35  9-AUG-76 PAGE 7-17
DBKCDM	MAC	26-MAY-76 16:52		TEST AR, ARX, AD, ADX AND NORMALIZE LOGIC FOR DOUBLE FLOATING POINT OPERATIONS     SEQ 0140

  6659	035574	110 04 0 00 044047 			-1,,-1]
  6660	035575	312 04 0 00 043653 		CAME	AC,[777,,-1]
  6661	035576	003 04 0 00 001154 		ER3	AC,T
  6662	035577	312 05 0 00 043655 		CAME	AC+1,[377777,,-1]
  6663	035600	004 05 0 00 001154 		ER4	AC+1,T
  6664	035601	321 10 0 00 035573 		JUMPL	AC+4,.-^D6	;LOOP ON ERROR SWITCH^
  6665
  6666
  6667			001155		T=T+1
  6668			000400			XX=XX+XX
  6669						IFE	XX,<XX=1>
  6670		777777	777377			ZZ=ZZ+ZZ+1
  6671						IFE	<ZZ-1>,<ZZ=-2>
  6672						DFARP	T,0,XX,0,0,777,ZZ,-1,-1,777,-1,377777,-1^
  6673						DMOVE	AC,[0,,XX
  6674	035602	120 04 0 00 044140 			0,,0]
  6675						DFAD	AC,[777,,ZZ
  6676	035603	110 04 0 00 044051 			-1,,-1]
  6677	035604	312 04 0 00 043653 		CAME	AC,[777,,-1]
  6678	035605	003 04 0 00 001155 		ER3	AC,T
  6679	035606	312 05 0 00 043655 		CAME	AC+1,[377777,,-1]
  6680	035607	004 05 0 00 001155 		ER4	AC+1,T
  6681	035610	321 10 0 00 035602 		JUMPL	AC+4,.-^D6	;LOOP ON ERROR SWITCH^
  6682
  6683
  6684			001156		T=T+1
  6685			001000			XX=XX+XX
  6686						IFE	XX,<XX=1>
  6687		777777	776777			ZZ=ZZ+ZZ+1
  6688						IFE	<ZZ-1>,<ZZ=-2>
  6689						DFARP	T,0,XX,0,0,777,ZZ,-1,-1,777,-1,377777,-1^
  6690						DMOVE	AC,[0,,XX
  6691	035611	120 04 0 00 044142 			0,,0]
  6692						DFAD	AC,[777,,ZZ
  6693	035612	110 04 0 00 044053 			-1,,-1]
  6694	035613	312 04 0 00 043653 		CAME	AC,[777,,-1]
  6695	035614	003 04 0 00 001156 		ER3	AC,T
  6696	035615	312 05 0 00 043655 		CAME	AC+1,[377777,,-1]
  6697	035616	004 05 0 00 001156 		ER4	AC+1,T
  6698	035617	321 10 0 00 035611 		JUMPL	AC+4,.-^D6	;LOOP ON ERROR SWITCH^
  6699
  6700
  6701			001157		T=T+1
  6702			002000			XX=XX+XX
  6703						IFE	XX,<XX=1>
  6704		777777	775777			ZZ=ZZ+ZZ+1
  6705						IFE	<ZZ-1>,<ZZ=-2>
  6706						DFARP	T,0,XX,0,0,777,ZZ,-1,-1,777,-1,377777,-1^
  6707						DMOVE	AC,[0,,XX
  6708	035620	120 04 0 00 044144 			0,,0]
  6709						DFAD	AC,[777,,ZZ
  6710	035621	110 04 0 00 044055 			-1,,-1]
  6711	035622	312 04 0 00 043653 		CAME	AC,[777,,-1]
  6712	035623	003 04 0 00 001157 		ER3	AC,T
  6713	035624	312 05 0 00 043655 		CAME	AC+1,[377777,,-1]DBKCD 	PDP-10 KI10 ADVANCED INSTRUCTION DIAGNOSTIC #4, VERSION 0,3 	MACRO %52(462) 12:35  9-AUG-76 PAGE 7-18
DBKCDM	MAC	26-MAY-76 16:52		TEST AR, ARX, AD, ADX AND NORMALIZE LOGIC FOR DOUBLE FLOATING POINT OPERATIONS     SEQ 0141

  6714	035625	004 05 0 00 001157 		ER4	AC+1,T
  6715	035626	321 10 0 00 035620 		JUMPL	AC+4,.-^D6	;LOOP ON ERROR SWITCH^
  6716
  6717
  6718			001160		T=T+1
  6719			004000			XX=XX+XX
  6720						IFE	XX,<XX=1>
  6721		777777	773777			ZZ=ZZ+ZZ+1
  6722						IFE	<ZZ-1>,<ZZ=-2>
  6723						DFARP	T,0,XX,0,0,777,ZZ,-1,-1,777,-1,377777,-1^
  6724						DMOVE	AC,[0,,XX
  6725	035627	120 04 0 00 044146 			0,,0]
  6726						DFAD	AC,[777,,ZZ
  6727	035630	110 04 0 00 044057 			-1,,-1]
  6728	035631	312 04 0 00 043653 		CAME	AC,[777,,-1]
  6729	035632	003 04 0 00 001160 		ER3	AC,T
  6730	035633	312 05 0 00 043655 		CAME	AC+1,[377777,,-1]
  6731	035634	004 05 0 00 001160 		ER4	AC+1,T
  6732	035635	321 10 0 00 035627 		JUMPL	AC+4,.-^D6	;LOOP ON ERROR SWITCH^
  6733
  6734
  6735			001161		T=T+1
  6736			010000			XX=XX+XX
  6737						IFE	XX,<XX=1>
  6738		777777	767777			ZZ=ZZ+ZZ+1
  6739						IFE	<ZZ-1>,<ZZ=-2>
  6740						DFARP	T,0,XX,0,0,777,ZZ,-1,-1,777,-1,377777,-1^
  6741						DMOVE	AC,[0,,XX
  6742	035636	120 04 0 00 044150 			0,,0]
  6743						DFAD	AC,[777,,ZZ
  6744	035637	110 04 0 00 044061 			-1,,-1]
  6745	035640	312 04 0 00 043653 		CAME	AC,[777,,-1]
  6746	035641	003 04 0 00 001161 		ER3	AC,T
  6747	035642	312 05 0 00 043655 		CAME	AC+1,[377777,,-1]
  6748	035643	004 05 0 00 001161 		ER4	AC+1,T
  6749	035644	321 10 0 00 035636 		JUMPL	AC+4,.-^D6	;LOOP ON ERROR SWITCH^
  6750
  6751
  6752			001162		T=T+1
  6753			020000			XX=XX+XX
  6754						IFE	XX,<XX=1>
  6755		777777	757777			ZZ=ZZ+ZZ+1
  6756						IFE	<ZZ-1>,<ZZ=-2>
  6757						DFARP	T,0,XX,0,0,777,ZZ,-1,-1,777,-1,377777,-1^
  6758						DMOVE	AC,[0,,XX
  6759	035645	120 04 0 00 044152 			0,,0]
  6760						DFAD	AC,[777,,ZZ
  6761	035646	110 04 0 00 044063 			-1,,-1]
  6762	035647	312 04 0 00 043653 		CAME	AC,[777,,-1]
  6763	035650	003 04 0 00 001162 		ER3	AC,T
  6764	035651	312 05 0 00 043655 		CAME	AC+1,[377777,,-1]
  6765	035652	004 05 0 00 001162 		ER4	AC+1,T
  6766	035653	321 10 0 00 035645 		JUMPL	AC+4,.-^D6	;LOOP ON ERROR SWITCH^
  6767
  6768DBKCD 	PDP-10 KI10 ADVANCED INSTRUCTION DIAGNOSTIC #4, VERSION 0,3 	MACRO %52(462) 12:35  9-AUG-76 PAGE 7-19
DBKCDM	MAC	26-MAY-76 16:52		TEST AR, ARX, AD, ADX AND NORMALIZE LOGIC FOR DOUBLE FLOATING POINT OPERATIONS     SEQ 0142

  6769			001163		T=T+1
  6770			040000			XX=XX+XX
  6771						IFE	XX,<XX=1>
  6772		777777	737777			ZZ=ZZ+ZZ+1
  6773						IFE	<ZZ-1>,<ZZ=-2>
  6774						DFARP	T,0,XX,0,0,777,ZZ,-1,-1,777,-1,377777,-1^
  6775						DMOVE	AC,[0,,XX
  6776	035654	120 04 0 00 044154 			0,,0]
  6777						DFAD	AC,[777,,ZZ
  6778	035655	110 04 0 00 044065 			-1,,-1]
  6779	035656	312 04 0 00 043653 		CAME	AC,[777,,-1]
  6780	035657	003 04 0 00 001163 		ER3	AC,T
  6781	035660	312 05 0 00 043655 		CAME	AC+1,[377777,,-1]
  6782	035661	004 05 0 00 001163 		ER4	AC+1,T
  6783	035662	321 10 0 00 035654 		JUMPL	AC+4,.-^D6	;LOOP ON ERROR SWITCH^
  6784
  6785
  6786			001164		T=T+1
  6787			100000			XX=XX+XX
  6788						IFE	XX,<XX=1>
  6789		777777	677777			ZZ=ZZ+ZZ+1
  6790						IFE	<ZZ-1>,<ZZ=-2>
  6791						DFARP	T,0,XX,0,0,777,ZZ,-1,-1,777,-1,377777,-1^
  6792						DMOVE	AC,[0,,XX
  6793	035663	120 04 0 00 044156 			0,,0]
  6794						DFAD	AC,[777,,ZZ
  6795	035664	110 04 0 00 044067 			-1,,-1]
  6796	035665	312 04 0 00 043653 		CAME	AC,[777,,-1]
  6797	035666	003 04 0 00 001164 		ER3	AC,T
  6798	035667	312 05 0 00 043655 		CAME	AC+1,[377777,,-1]
  6799	035670	004 05 0 00 001164 		ER4	AC+1,T
  6800	035671	321 10 0 00 035663 		JUMPL	AC+4,.-^D6	;LOOP ON ERROR SWITCH^
  6801
  6802
  6803			001165		T=T+1
  6804			200000			XX=XX+XX
  6805						IFE	XX,<XX=1>
  6806		777777	577777			ZZ=ZZ+ZZ+1
  6807						IFE	<ZZ-1>,<ZZ=-2>
  6808						DFARP	T,0,XX,0,0,777,ZZ,-1,-1,777,-1,377777,-1^
  6809						DMOVE	AC,[0,,XX
  6810	035672	120 04 0 00 044160 			0,,0]
  6811						DFAD	AC,[777,,ZZ
  6812	035673	110 04 0 00 044071 			-1,,-1]
  6813	035674	312 04 0 00 043653 		CAME	AC,[777,,-1]
  6814	035675	003 04 0 00 001165 		ER3	AC,T
  6815	035676	312 05 0 00 043655 		CAME	AC+1,[377777,,-1]
  6816	035677	004 05 0 00 001165 		ER4	AC+1,T
  6817	035700	321 10 0 00 035672 		JUMPL	AC+4,.-^D6	;LOOP ON ERROR SWITCH^
  6818
  6819
  6820			001166		T=T+1
  6821			400000			XX=XX+XX
  6822						IFE	XX,<XX=1>
  6823		777777	377777			ZZ=ZZ+ZZ+1DBKCD 	PDP-10 KI10 ADVANCED INSTRUCTION DIAGNOSTIC #4, VERSION 0,3 	MACRO %52(462) 12:35  9-AUG-76 PAGE 7-20
DBKCDM	MAC	26-MAY-76 16:52		TEST AR, ARX, AD, ADX AND NORMALIZE LOGIC FOR DOUBLE FLOATING POINT OPERATIONS     SEQ 0143

  6824						IFE	<ZZ-1>,<ZZ=-2>
  6825						DFARP	T,0,XX,0,0,777,ZZ,-1,-1,777,-1,377777,-1^
  6826						DMOVE	AC,[0,,XX
  6827	035701	120 04 0 00 044162 			0,,0]
  6828						DFAD	AC,[777,,ZZ
  6829	035702	110 04 0 00 044073 			-1,,-1]
  6830	035703	312 04 0 00 043653 		CAME	AC,[777,,-1]
  6831	035704	003 04 0 00 001166 		ER3	AC,T
  6832	035705	312 05 0 00 043655 		CAME	AC+1,[377777,,-1]
  6833	035706	004 05 0 00 001166 		ER4	AC+1,T
  6834	035707	321 10 0 00 035701 		JUMPL	AC+4,.-^D6	;LOOP ON ERROR SWITCH^
  6835
  6836
  6837			000000			XX=0
  6838			000000			ZZ=0
  6839
  6840
  6841						REPEAT	^D9,<
  6842					T=T+1
  6843						XX=XX+XX
  6844						IFE	XX,<XX=1>
  6845						ZZ=ZZ+ZZ+1
  6846						IFE	<ZZ-1>,<ZZ=-2>
  6847						DFARP	T,XX,0,0,0,ZZ&777,-1,-1,-1,777,-1,377777,-1
  6848					>DBKCD 	PDP-10 KI10 ADVANCED INSTRUCTION DIAGNOSTIC #4, VERSION 0,3 	MACRO %52(462) 12:35  9-AUG-76 PAGE 8
DBKCDM	MAC	26-MAY-76 16:52		TEST AR, ARX, AD, ADX AND NORMALIZE LOGIC FOR DOUBLE FLOATING POINT OPERATIONS     SEQ 0144

  6849
  6850			001167		T=T+1
  6851			000000			XX=XX+XX
  6852			000001			IFE	XX,<XX=1>
  6853			000001			ZZ=ZZ+ZZ+1
  6854		777777	777776			IFE	<ZZ-1>,<ZZ=-2>
  6855						DFARP	T,XX,0,0,0,ZZ&777,-1,-1,-1,777,-1,377777,-1^
  6856						DMOVE	AC,[XX,,0
  6857	035710	120 04 0 00 044164 			0,,0]
  6858						DFAD	AC,[ZZ&777,,-1
  6859	035711	110 04 0 00 044075 			-1,,-1]
  6860	035712	312 04 0 00 043653 		CAME	AC,[777,,-1]
  6861	035713	003 04 0 00 001167 		ER3	AC,T
  6862	035714	312 05 0 00 043655 		CAME	AC+1,[377777,,-1]
  6863	035715	004 05 0 00 001167 		ER4	AC+1,T
  6864	035716	321 10 0 00 035710 		JUMPL	AC+4,.-^D6	;LOOP ON ERROR SWITCH^
  6865
  6866
  6867			001170		T=T+1
  6868			000002			XX=XX+XX
  6869						IFE	XX,<XX=1>
  6870		777777	777775			ZZ=ZZ+ZZ+1
  6871						IFE	<ZZ-1>,<ZZ=-2>
  6872						DFARP	T,XX,0,0,0,ZZ&777,-1,-1,-1,777,-1,377777,-1^
  6873						DMOVE	AC,[XX,,0
  6874	035717	120 04 0 00 044166 			0,,0]
  6875						DFAD	AC,[ZZ&777,,-1
  6876	035720	110 04 0 00 044077 			-1,,-1]
  6877	035721	312 04 0 00 043653 		CAME	AC,[777,,-1]
  6878	035722	003 04 0 00 001170 		ER3	AC,T
  6879	035723	312 05 0 00 043655 		CAME	AC+1,[377777,,-1]
  6880	035724	004 05 0 00 001170 		ER4	AC+1,T
  6881	035725	321 10 0 00 035717 		JUMPL	AC+4,.-^D6	;LOOP ON ERROR SWITCH^
  6882
  6883
  6884			001171		T=T+1
  6885			000004			XX=XX+XX
  6886						IFE	XX,<XX=1>
  6887		777777	777773			ZZ=ZZ+ZZ+1
  6888						IFE	<ZZ-1>,<ZZ=-2>
  6889						DFARP	T,XX,0,0,0,ZZ&777,-1,-1,-1,777,-1,377777,-1^
  6890						DMOVE	AC,[XX,,0
  6891	035726	120 04 0 00 044170 			0,,0]
  6892						DFAD	AC,[ZZ&777,,-1
  6893	035727	110 04 0 00 044101 			-1,,-1]
  6894	035730	312 04 0 00 043653 		CAME	AC,[777,,-1]
  6895	035731	003 04 0 00 001171 		ER3	AC,T
  6896	035732	312 05 0 00 043655 		CAME	AC+1,[377777,,-1]
  6897	035733	004 05 0 00 001171 		ER4	AC+1,T
  6898	035734	321 10 0 00 035726 		JUMPL	AC+4,.-^D6	;LOOP ON ERROR SWITCH^
  6899
  6900
  6901			001172		T=T+1
  6902			000010			XX=XX+XX
  6903						IFE	XX,<XX=1>DBKCD 	PDP-10 KI10 ADVANCED INSTRUCTION DIAGNOSTIC #4, VERSION 0,3 	MACRO %52(462) 12:35  9-AUG-76 PAGE 8-1
DBKCDM	MAC	26-MAY-76 16:52		TEST AR, ARX, AD, ADX AND NORMALIZE LOGIC FOR DOUBLE FLOATING POINT OPERATIONS     SEQ 0145

  6904		777777	777767			ZZ=ZZ+ZZ+1
  6905						IFE	<ZZ-1>,<ZZ=-2>
  6906						DFARP	T,XX,0,0,0,ZZ&777,-1,-1,-1,777,-1,377777,-1^
  6907						DMOVE	AC,[XX,,0
  6908	035735	120 04 0 00 044172 			0,,0]
  6909						DFAD	AC,[ZZ&777,,-1
  6910	035736	110 04 0 00 044103 			-1,,-1]
  6911	035737	312 04 0 00 043653 		CAME	AC,[777,,-1]
  6912	035740	003 04 0 00 001172 		ER3	AC,T
  6913	035741	312 05 0 00 043655 		CAME	AC+1,[377777,,-1]
  6914	035742	004 05 0 00 001172 		ER4	AC+1,T
  6915	035743	321 10 0 00 035735 		JUMPL	AC+4,.-^D6	;LOOP ON ERROR SWITCH^
  6916
  6917
  6918			001173		T=T+1
  6919			000020			XX=XX+XX
  6920						IFE	XX,<XX=1>
  6921		777777	777757			ZZ=ZZ+ZZ+1
  6922						IFE	<ZZ-1>,<ZZ=-2>
  6923						DFARP	T,XX,0,0,0,ZZ&777,-1,-1,-1,777,-1,377777,-1^
  6924						DMOVE	AC,[XX,,0
  6925	035744	120 04 0 00 044174 			0,,0]
  6926						DFAD	AC,[ZZ&777,,-1
  6927	035745	110 04 0 00 044105 			-1,,-1]
  6928	035746	312 04 0 00 043653 		CAME	AC,[777,,-1]
  6929	035747	003 04 0 00 001173 		ER3	AC,T
  6930	035750	312 05 0 00 043655 		CAME	AC+1,[377777,,-1]
  6931	035751	004 05 0 00 001173 		ER4	AC+1,T
  6932	035752	321 10 0 00 035744 		JUMPL	AC+4,.-^D6	;LOOP ON ERROR SWITCH^
  6933
  6934
  6935			001174		T=T+1
  6936			000040			XX=XX+XX
  6937						IFE	XX,<XX=1>
  6938		777777	777737			ZZ=ZZ+ZZ+1
  6939						IFE	<ZZ-1>,<ZZ=-2>
  6940						DFARP	T,XX,0,0,0,ZZ&777,-1,-1,-1,777,-1,377777,-1^
  6941						DMOVE	AC,[XX,,0
  6942	035753	120 04 0 00 044176 			0,,0]
  6943						DFAD	AC,[ZZ&777,,-1
  6944	035754	110 04 0 00 044107 			-1,,-1]
  6945	035755	312 04 0 00 043653 		CAME	AC,[777,,-1]
  6946	035756	003 04 0 00 001174 		ER3	AC,T
  6947	035757	312 05 0 00 043655 		CAME	AC+1,[377777,,-1]
  6948	035760	004 05 0 00 001174 		ER4	AC+1,T
  6949	035761	321 10 0 00 035753 		JUMPL	AC+4,.-^D6	;LOOP ON ERROR SWITCH^
  6950
  6951
  6952			001175		T=T+1
  6953			000100			XX=XX+XX
  6954						IFE	XX,<XX=1>
  6955		777777	777677			ZZ=ZZ+ZZ+1
  6956						IFE	<ZZ-1>,<ZZ=-2>
  6957						DFARP	T,XX,0,0,0,ZZ&777,-1,-1,-1,777,-1,377777,-1^
  6958						DMOVE	AC,[XX,,0DBKCD 	PDP-10 KI10 ADVANCED INSTRUCTION DIAGNOSTIC #4, VERSION 0,3 	MACRO %52(462) 12:35  9-AUG-76 PAGE 8-2
DBKCDM	MAC	26-MAY-76 16:52		TEST AR, ARX, AD, ADX AND NORMALIZE LOGIC FOR DOUBLE FLOATING POINT OPERATIONS     SEQ 0146

  6959	035762	120 04 0 00 044200 			0,,0]
  6960						DFAD	AC,[ZZ&777,,-1
  6961	035763	110 04 0 00 044111 			-1,,-1]
  6962	035764	312 04 0 00 043653 		CAME	AC,[777,,-1]
  6963	035765	003 04 0 00 001175 		ER3	AC,T
  6964	035766	312 05 0 00 043655 		CAME	AC+1,[377777,,-1]
  6965	035767	004 05 0 00 001175 		ER4	AC+1,T
  6966	035770	321 10 0 00 035762 		JUMPL	AC+4,.-^D6	;LOOP ON ERROR SWITCH^
  6967
  6968
  6969			001176		T=T+1
  6970			000200			XX=XX+XX
  6971						IFE	XX,<XX=1>
  6972		777777	777577			ZZ=ZZ+ZZ+1
  6973						IFE	<ZZ-1>,<ZZ=-2>
  6974						DFARP	T,XX,0,0,0,ZZ&777,-1,-1,-1,777,-1,377777,-1^
  6975						DMOVE	AC,[XX,,0
  6976	035771	120 04 0 00 044202 			0,,0]
  6977						DFAD	AC,[ZZ&777,,-1
  6978	035772	110 04 0 00 044113 			-1,,-1]
  6979	035773	312 04 0 00 043653 		CAME	AC,[777,,-1]
  6980	035774	003 04 0 00 001176 		ER3	AC,T
  6981	035775	312 05 0 00 043655 		CAME	AC+1,[377777,,-1]
  6982	035776	004 05 0 00 001176 		ER4	AC+1,T
  6983	035777	321 10 0 00 035771 		JUMPL	AC+4,.-^D6	;LOOP ON ERROR SWITCH^
  6984
  6985
  6986			001177		T=T+1
  6987			000400			XX=XX+XX
  6988						IFE	XX,<XX=1>
  6989		777777	777377			ZZ=ZZ+ZZ+1
  6990						IFE	<ZZ-1>,<ZZ=-2>
  6991						DFARP	T,XX,0,0,0,ZZ&777,-1,-1,-1,777,-1,377777,-1^
  6992						DMOVE	AC,[XX,,0
  6993	036000	120 04 0 00 044204 			0,,0]
  6994						DFAD	AC,[ZZ&777,,-1
  6995	036001	110 04 0 00 044225 			-1,,-1]
  6996	036002	312 04 0 00 043653 		CAME	AC,[777,,-1]
  6997	036003	003 04 0 00 001177 		ER3	AC,T
  6998	036004	312 05 0 00 043655 		CAME	AC+1,[377777,,-1]
  6999	036005	004 05 0 00 001177 		ER4	AC+1,T
  7000	036006	321 10 0 00 036000 		JUMPL	AC+4,.-^D6	;LOOP ON ERROR SWITCH^
  7001
  7002					;RIPPLE ONES (TO A FRACTION OF ALL ONES, ADD A RIPPLED ONE)
  7003
  7004			001200		T=1200
  7005
  7006			000000			XX=0
  7007
  7008
  7009					R1200:	REPEAT	^D18,<
  7010					T=T+1
  7011						ZZ=XX
  7012						XX=XX+XX
  7013						IFE	XX,<XX=1>DBKCD 	PDP-10 KI10 ADVANCED INSTRUCTION DIAGNOSTIC #4, VERSION 0,3 	MACRO %52(462) 12:35  9-AUG-76 PAGE 8-3
DBKCDM	MAC	26-MAY-76 16:52		TEST AR, ARX, AD, ADX AND NORMALIZE LOGIC FOR DOUBLE FLOATING POINT OPERATIONS     SEQ 0147

  7014						DFARP	T,200777,-1,-1,-1,200000,0,0,XX,201400,0,0,ZZ
  7015					>
  7016
  7017			001201		T=T+1
  7018			000000			ZZ=XX
  7019			000000			XX=XX+XX
  7020			000001			IFE	XX,<XX=1>
  7021						DFARP	T,200777,-1,-1,-1,200000,0,0,XX,201400,0,0,ZZ^
  7022						DMOVE	AC,[200777,,-1
  7023	036007	120 04 0 00 044227 			-1,,-1]
  7024						DFAD	AC,[200000,,0
  7025	036010	110 04 0 00 043650 			0,,XX]
  7026	036011	312 04 0 00 044231 		CAME	AC,[201400,,0]
  7027	036012	003 04 0 00 001201 		ER3	AC,T
  7028	036013	312 05 0 00 043354 		CAME	AC+1,[0,,ZZ]
  7029	036014	004 05 0 00 001201 		ER4	AC+1,T
  7030	036015	321 10 0 00 036007 		JUMPL	AC+4,.-^D6	;LOOP ON ERROR SWITCH^
  7031
  7032
  7033			001202		T=T+1
  7034			000001			ZZ=XX
  7035			000002			XX=XX+XX
  7036						IFE	XX,<XX=1>
  7037						DFARP	T,200777,-1,-1,-1,200000,0,0,XX,201400,0,0,ZZ^
  7038						DMOVE	AC,[200777,,-1
  7039	036016	120 04 0 00 044227 			-1,,-1]
  7040						DFAD	AC,[200000,,0
  7041	036017	110 04 0 00 043645 			0,,XX]
  7042	036020	312 04 0 00 044231 		CAME	AC,[201400,,0]
  7043	036021	003 04 0 00 001202 		ER3	AC,T
  7044	036022	312 05 0 00 043651 		CAME	AC+1,[0,,ZZ]
  7045	036023	004 05 0 00 001202 		ER4	AC+1,T
  7046	036024	321 10 0 00 036016 		JUMPL	AC+4,.-^D6	;LOOP ON ERROR SWITCH^
  7047
  7048
  7049			001203		T=T+1
  7050			000002			ZZ=XX
  7051			000004			XX=XX+XX
  7052						IFE	XX,<XX=1>
  7053						DFARP	T,200777,-1,-1,-1,200000,0,0,XX,201400,0,0,ZZ^
  7054						DMOVE	AC,[200777,,-1
  7055	036025	120 04 0 00 044227 			-1,,-1]
  7056						DFAD	AC,[200000,,0
  7057	036026	110 04 0 00 043642 			0,,XX]
  7058	036027	312 04 0 00 044231 		CAME	AC,[201400,,0]
  7059	036030	003 04 0 00 001203 		ER3	AC,T
  7060	036031	312 05 0 00 043646 		CAME	AC+1,[0,,ZZ]
  7061	036032	004 05 0 00 001203 		ER4	AC+1,T
  7062	036033	321 10 0 00 036025 		JUMPL	AC+4,.-^D6	;LOOP ON ERROR SWITCH^
  7063
  7064
  7065			001204		T=T+1
  7066			000004			ZZ=XX
  7067			000010			XX=XX+XX
  7068						IFE	XX,<XX=1>DBKCD 	PDP-10 KI10 ADVANCED INSTRUCTION DIAGNOSTIC #4, VERSION 0,3 	MACRO %52(462) 12:35  9-AUG-76 PAGE 8-4
DBKCDM	MAC	26-MAY-76 16:52		TEST AR, ARX, AD, ADX AND NORMALIZE LOGIC FOR DOUBLE FLOATING POINT OPERATIONS     SEQ 0148

  7069						DFARP	T,200777,-1,-1,-1,200000,0,0,XX,201400,0,0,ZZ^
  7070						DMOVE	AC,[200777,,-1
  7071	036034	120 04 0 00 044227 			-1,,-1]
  7072						DFAD	AC,[200000,,0
  7073	036035	110 04 0 00 043637 			0,,XX]
  7074	036036	312 04 0 00 044231 		CAME	AC,[201400,,0]
  7075	036037	003 04 0 00 001204 		ER3	AC,T
  7076	036040	312 05 0 00 043643 		CAME	AC+1,[0,,ZZ]
  7077	036041	004 05 0 00 001204 		ER4	AC+1,T
  7078	036042	321 10 0 00 036034 		JUMPL	AC+4,.-^D6	;LOOP ON ERROR SWITCH^
  7079
  7080
  7081			001205		T=T+1
  7082			000010			ZZ=XX
  7083			000020			XX=XX+XX
  7084						IFE	XX,<XX=1>
  7085						DFARP	T,200777,-1,-1,-1,200000,0,0,XX,201400,0,0,ZZ^
  7086						DMOVE	AC,[200777,,-1
  7087	036043	120 04 0 00 044227 			-1,,-1]
  7088						DFAD	AC,[200000,,0
  7089	036044	110 04 0 00 043634 			0,,XX]
  7090	036045	312 04 0 00 044231 		CAME	AC,[201400,,0]
  7091	036046	003 04 0 00 001205 		ER3	AC,T
  7092	036047	312 05 0 00 043640 		CAME	AC+1,[0,,ZZ]
  7093	036050	004 05 0 00 001205 		ER4	AC+1,T
  7094	036051	321 10 0 00 036043 		JUMPL	AC+4,.-^D6	;LOOP ON ERROR SWITCH^
  7095
  7096
  7097			001206		T=T+1
  7098			000020			ZZ=XX
  7099			000040			XX=XX+XX
  7100						IFE	XX,<XX=1>
  7101						DFARP	T,200777,-1,-1,-1,200000,0,0,XX,201400,0,0,ZZ^
  7102						DMOVE	AC,[200777,,-1
  7103	036052	120 04 0 00 044227 			-1,,-1]
  7104						DFAD	AC,[200000,,0
  7105	036053	110 04 0 00 043631 			0,,XX]
  7106	036054	312 04 0 00 044231 		CAME	AC,[201400,,0]
  7107	036055	003 04 0 00 001206 		ER3	AC,T
  7108	036056	312 05 0 00 043635 		CAME	AC+1,[0,,ZZ]
  7109	036057	004 05 0 00 001206 		ER4	AC+1,T
  7110	036060	321 10 0 00 036052 		JUMPL	AC+4,.-^D6	;LOOP ON ERROR SWITCH^
  7111
  7112
  7113			001207		T=T+1
  7114			000040			ZZ=XX
  7115			000100			XX=XX+XX
  7116						IFE	XX,<XX=1>
  7117						DFARP	T,200777,-1,-1,-1,200000,0,0,XX,201400,0,0,ZZ^
  7118						DMOVE	AC,[200777,,-1
  7119	036061	120 04 0 00 044227 			-1,,-1]
  7120						DFAD	AC,[200000,,0
  7121	036062	110 04 0 00 043626 			0,,XX]
  7122	036063	312 04 0 00 044231 		CAME	AC,[201400,,0]
  7123	036064	003 04 0 00 001207 		ER3	AC,TDBKCD 	PDP-10 KI10 ADVANCED INSTRUCTION DIAGNOSTIC #4, VERSION 0,3 	MACRO %52(462) 12:35  9-AUG-76 PAGE 8-5
DBKCDM	MAC	26-MAY-76 16:52		TEST AR, ARX, AD, ADX AND NORMALIZE LOGIC FOR DOUBLE FLOATING POINT OPERATIONS     SEQ 0149

  7124	036065	312 05 0 00 043632 		CAME	AC+1,[0,,ZZ]
  7125	036066	004 05 0 00 001207 		ER4	AC+1,T
  7126	036067	321 10 0 00 036061 		JUMPL	AC+4,.-^D6	;LOOP ON ERROR SWITCH^
  7127
  7128
  7129			001210		T=T+1
  7130			000100			ZZ=XX
  7131			000200			XX=XX+XX
  7132						IFE	XX,<XX=1>
  7133						DFARP	T,200777,-1,-1,-1,200000,0,0,XX,201400,0,0,ZZ^
  7134						DMOVE	AC,[200777,,-1
  7135	036070	120 04 0 00 044227 			-1,,-1]
  7136						DFAD	AC,[200000,,0
  7137	036071	110 04 0 00 043623 			0,,XX]
  7138	036072	312 04 0 00 044231 		CAME	AC,[201400,,0]
  7139	036073	003 04 0 00 001210 		ER3	AC,T
  7140	036074	312 05 0 00 043627 		CAME	AC+1,[0,,ZZ]
  7141	036075	004 05 0 00 001210 		ER4	AC+1,T
  7142	036076	321 10 0 00 036070 		JUMPL	AC+4,.-^D6	;LOOP ON ERROR SWITCH^
  7143
  7144
  7145			001211		T=T+1
  7146			000200			ZZ=XX
  7147			000400			XX=XX+XX
  7148						IFE	XX,<XX=1>
  7149						DFARP	T,200777,-1,-1,-1,200000,0,0,XX,201400,0,0,ZZ^
  7150						DMOVE	AC,[200777,,-1
  7151	036077	120 04 0 00 044227 			-1,,-1]
  7152						DFAD	AC,[200000,,0
  7153	036100	110 04 0 00 043620 			0,,XX]
  7154	036101	312 04 0 00 044231 		CAME	AC,[201400,,0]
  7155	036102	003 04 0 00 001211 		ER3	AC,T
  7156	036103	312 05 0 00 043624 		CAME	AC+1,[0,,ZZ]
  7157	036104	004 05 0 00 001211 		ER4	AC+1,T
  7158	036105	321 10 0 00 036077 		JUMPL	AC+4,.-^D6	;LOOP ON ERROR SWITCH^
  7159
  7160
  7161			001212		T=T+1
  7162			000400			ZZ=XX
  7163			001000			XX=XX+XX
  7164						IFE	XX,<XX=1>
  7165						DFARP	T,200777,-1,-1,-1,200000,0,0,XX,201400,0,0,ZZ^
  7166						DMOVE	AC,[200777,,-1
  7167	036106	120 04 0 00 044227 			-1,,-1]
  7168						DFAD	AC,[200000,,0
  7169	036107	110 04 0 00 043615 			0,,XX]
  7170	036110	312 04 0 00 044231 		CAME	AC,[201400,,0]
  7171	036111	003 04 0 00 001212 		ER3	AC,T
  7172	036112	312 05 0 00 043621 		CAME	AC+1,[0,,ZZ]
  7173	036113	004 05 0 00 001212 		ER4	AC+1,T
  7174	036114	321 10 0 00 036106 		JUMPL	AC+4,.-^D6	;LOOP ON ERROR SWITCH^
  7175
  7176
  7177			001213		T=T+1
  7178			001000			ZZ=XXDBKCD 	PDP-10 KI10 ADVANCED INSTRUCTION DIAGNOSTIC #4, VERSION 0,3 	MACRO %52(462) 12:35  9-AUG-76 PAGE 8-6
DBKCDM	MAC	26-MAY-76 16:52		TEST AR, ARX, AD, ADX AND NORMALIZE LOGIC FOR DOUBLE FLOATING POINT OPERATIONS     SEQ 0150

  7179			002000			XX=XX+XX
  7180						IFE	XX,<XX=1>
  7181						DFARP	T,200777,-1,-1,-1,200000,0,0,XX,201400,0,0,ZZ^
  7182						DMOVE	AC,[200777,,-1
  7183	036115	120 04 0 00 044227 			-1,,-1]
  7184						DFAD	AC,[200000,,0
  7185	036116	110 04 0 00 043612 			0,,XX]
  7186	036117	312 04 0 00 044231 		CAME	AC,[201400,,0]
  7187	036120	003 04 0 00 001213 		ER3	AC,T
  7188	036121	312 05 0 00 043616 		CAME	AC+1,[0,,ZZ]
  7189	036122	004 05 0 00 001213 		ER4	AC+1,T
  7190	036123	321 10 0 00 036115 		JUMPL	AC+4,.-^D6	;LOOP ON ERROR SWITCH^
  7191
  7192
  7193			001214		T=T+1
  7194			002000			ZZ=XX
  7195			004000			XX=XX+XX
  7196						IFE	XX,<XX=1>
  7197						DFARP	T,200777,-1,-1,-1,200000,0,0,XX,201400,0,0,ZZ^
  7198						DMOVE	AC,[200777,,-1
  7199	036124	120 04 0 00 044227 			-1,,-1]
  7200						DFAD	AC,[200000,,0
  7201	036125	110 04 0 00 043607 			0,,XX]
  7202	036126	312 04 0 00 044231 		CAME	AC,[201400,,0]
  7203	036127	003 04 0 00 001214 		ER3	AC,T
  7204	036130	312 05 0 00 043613 		CAME	AC+1,[0,,ZZ]
  7205	036131	004 05 0 00 001214 		ER4	AC+1,T
  7206	036132	321 10 0 00 036124 		JUMPL	AC+4,.-^D6	;LOOP ON ERROR SWITCH^
  7207
  7208
  7209			001215		T=T+1
  7210			004000			ZZ=XX
  7211			010000			XX=XX+XX
  7212						IFE	XX,<XX=1>
  7213						DFARP	T,200777,-1,-1,-1,200000,0,0,XX,201400,0,0,ZZ^
  7214						DMOVE	AC,[200777,,-1
  7215	036133	120 04 0 00 044227 			-1,,-1]
  7216						DFAD	AC,[200000,,0
  7217	036134	110 04 0 00 043604 			0,,XX]
  7218	036135	312 04 0 00 044231 		CAME	AC,[201400,,0]
  7219	036136	003 04 0 00 001215 		ER3	AC,T
  7220	036137	312 05 0 00 043610 		CAME	AC+1,[0,,ZZ]
  7221	036140	004 05 0 00 001215 		ER4	AC+1,T
  7222	036141	321 10 0 00 036133 		JUMPL	AC+4,.-^D6	;LOOP ON ERROR SWITCH^
  7223
  7224
  7225			001216		T=T+1
  7226			010000			ZZ=XX
  7227			020000			XX=XX+XX
  7228						IFE	XX,<XX=1>
  7229						DFARP	T,200777,-1,-1,-1,200000,0,0,XX,201400,0,0,ZZ^
  7230						DMOVE	AC,[200777,,-1
  7231	036142	120 04 0 00 044227 			-1,,-1]
  7232						DFAD	AC,[200000,,0
  7233	036143	110 04 0 00 043601 			0,,XX]DBKCD 	PDP-10 KI10 ADVANCED INSTRUCTION DIAGNOSTIC #4, VERSION 0,3 	MACRO %52(462) 12:35  9-AUG-76 PAGE 8-7
DBKCDM	MAC	26-MAY-76 16:52		TEST AR, ARX, AD, ADX AND NORMALIZE LOGIC FOR DOUBLE FLOATING POINT OPERATIONS     SEQ 0151

  7234	036144	312 04 0 00 044231 		CAME	AC,[201400,,0]
  7235	036145	003 04 0 00 001216 		ER3	AC,T
  7236	036146	312 05 0 00 043605 		CAME	AC+1,[0,,ZZ]
  7237	036147	004 05 0 00 001216 		ER4	AC+1,T
  7238	036150	321 10 0 00 036142 		JUMPL	AC+4,.-^D6	;LOOP ON ERROR SWITCH^
  7239
  7240
  7241			001217		T=T+1
  7242			020000			ZZ=XX
  7243			040000			XX=XX+XX
  7244						IFE	XX,<XX=1>
  7245						DFARP	T,200777,-1,-1,-1,200000,0,0,XX,201400,0,0,ZZ^
  7246						DMOVE	AC,[200777,,-1
  7247	036151	120 04 0 00 044227 			-1,,-1]
  7248						DFAD	AC,[200000,,0
  7249	036152	110 04 0 00 043576 			0,,XX]
  7250	036153	312 04 0 00 044231 		CAME	AC,[201400,,0]
  7251	036154	003 04 0 00 001217 		ER3	AC,T
  7252	036155	312 05 0 00 043602 		CAME	AC+1,[0,,ZZ]
  7253	036156	004 05 0 00 001217 		ER4	AC+1,T
  7254	036157	321 10 0 00 036151 		JUMPL	AC+4,.-^D6	;LOOP ON ERROR SWITCH^
  7255
  7256
  7257			001220		T=T+1
  7258			040000			ZZ=XX
  7259			100000			XX=XX+XX
  7260						IFE	XX,<XX=1>
  7261						DFARP	T,200777,-1,-1,-1,200000,0,0,XX,201400,0,0,ZZ^
  7262						DMOVE	AC,[200777,,-1
  7263	036160	120 04 0 00 044227 			-1,,-1]
  7264						DFAD	AC,[200000,,0
  7265	036161	110 04 0 00 043573 			0,,XX]
  7266	036162	312 04 0 00 044231 		CAME	AC,[201400,,0]
  7267	036163	003 04 0 00 001220 		ER3	AC,T
  7268	036164	312 05 0 00 043577 		CAME	AC+1,[0,,ZZ]
  7269	036165	004 05 0 00 001220 		ER4	AC+1,T
  7270	036166	321 10 0 00 036160 		JUMPL	AC+4,.-^D6	;LOOP ON ERROR SWITCH^
  7271
  7272
  7273			001221		T=T+1
  7274			100000			ZZ=XX
  7275			200000			XX=XX+XX
  7276						IFE	XX,<XX=1>
  7277						DFARP	T,200777,-1,-1,-1,200000,0,0,XX,201400,0,0,ZZ^
  7278						DMOVE	AC,[200777,,-1
  7279	036167	120 04 0 00 044227 			-1,,-1]
  7280						DFAD	AC,[200000,,0
  7281	036170	110 04 0 00 043570 			0,,XX]
  7282	036171	312 04 0 00 044231 		CAME	AC,[201400,,0]
  7283	036172	003 04 0 00 001221 		ER3	AC,T
  7284	036173	312 05 0 00 043574 		CAME	AC+1,[0,,ZZ]
  7285	036174	004 05 0 00 001221 		ER4	AC+1,T
  7286	036175	321 10 0 00 036167 		JUMPL	AC+4,.-^D6	;LOOP ON ERROR SWITCH^
  7287
  7288DBKCD 	PDP-10 KI10 ADVANCED INSTRUCTION DIAGNOSTIC #4, VERSION 0,3 	MACRO %52(462) 12:35  9-AUG-76 PAGE 8-8
DBKCDM	MAC	26-MAY-76 16:52		TEST AR, ARX, AD, ADX AND NORMALIZE LOGIC FOR DOUBLE FLOATING POINT OPERATIONS     SEQ 0152

  7289			001222		T=T+1
  7290			200000			ZZ=XX
  7291			400000			XX=XX+XX
  7292						IFE	XX,<XX=1>
  7293						DFARP	T,200777,-1,-1,-1,200000,0,0,XX,201400,0,0,ZZ^
  7294						DMOVE	AC,[200777,,-1
  7295	036176	120 04 0 00 044227 			-1,,-1]
  7296						DFAD	AC,[200000,,0
  7297	036177	110 04 0 00 043565 			0,,XX]
  7298	036200	312 04 0 00 044231 		CAME	AC,[201400,,0]
  7299	036201	003 04 0 00 001222 		ER3	AC,T
  7300	036202	312 05 0 00 043571 		CAME	AC+1,[0,,ZZ]
  7301	036203	004 05 0 00 001222 		ER4	AC+1,T
  7302	036204	321 10 0 00 036176 		JUMPL	AC+4,.-^D6	;LOOP ON ERROR SWITCH^
  7303
  7304
  7305			400000			ZZ=XX
  7306			000001			XX=1
  7307
  7308			001223		T=T+1
  7309						DFARP	T,200777,-1,-1,-1,200000,0,XX,0,201400,0,0,ZZ^
  7310						DMOVE	AC,[200777,,-1
  7311	036205	120 04 0 00 044227 			-1,,-1]
  7312						DFAD	AC,[200000,,0
  7313	036206	110 04 0 00 043562 			XX,,0]
  7314	036207	312 04 0 00 044231 		CAME	AC,[201400,,0]
  7315	036210	003 04 0 00 001223 		ER3	AC,T
  7316	036211	312 05 0 00 043566 		CAME	AC+1,[0,,ZZ]
  7317	036212	004 05 0 00 001223 		ER4	AC+1,T
  7318	036213	321 10 0 00 036205 		JUMPL	AC+4,.-^D6	;LOOP ON ERROR SWITCH^
  7319
  7320
  7321
  7322						REPEAT	^D16,<
  7323					T=T+1
  7324						ZZ=XX
  7325						XX=XX+XX
  7326						DFARP	T,200777,-1,-1,-1,200000,0,XX,0,201400,0,ZZ,0
  7327					>
  7328
  7329			001224		T=T+1
  7330			000001			ZZ=XX
  7331			000002			XX=XX+XX
  7332						DFARP	T,200777,-1,-1,-1,200000,0,XX,0,201400,0,ZZ,0^
  7333						DMOVE	AC,[200777,,-1
  7334	036214	120 04 0 00 044227 			-1,,-1]
  7335						DFAD	AC,[200000,,0
  7336	036215	110 04 0 00 043557 			XX,,0]
  7337	036216	312 04 0 00 044231 		CAME	AC,[201400,,0]
  7338	036217	003 04 0 00 001224 		ER3	AC,T
  7339	036220	312 05 0 00 043563 		CAME	AC+1,[ZZ,,0]
  7340	036221	004 05 0 00 001224 		ER4	AC+1,T
  7341	036222	321 10 0 00 036214 		JUMPL	AC+4,.-^D6	;LOOP ON ERROR SWITCH^
  7342
  7343DBKCD 	PDP-10 KI10 ADVANCED INSTRUCTION DIAGNOSTIC #4, VERSION 0,3 	MACRO %52(462) 12:35  9-AUG-76 PAGE 8-9
DBKCDM	MAC	26-MAY-76 16:52		TEST AR, ARX, AD, ADX AND NORMALIZE LOGIC FOR DOUBLE FLOATING POINT OPERATIONS     SEQ 0153

  7344			001225		T=T+1
  7345			000002			ZZ=XX
  7346			000004			XX=XX+XX
  7347						DFARP	T,200777,-1,-1,-1,200000,0,XX,0,201400,0,ZZ,0^
  7348						DMOVE	AC,[200777,,-1
  7349	036223	120 04 0 00 044227 			-1,,-1]
  7350						DFAD	AC,[200000,,0
  7351	036224	110 04 0 00 043554 			XX,,0]
  7352	036225	312 04 0 00 044231 		CAME	AC,[201400,,0]
  7353	036226	003 04 0 00 001225 		ER3	AC,T
  7354	036227	312 05 0 00 043560 		CAME	AC+1,[ZZ,,0]
  7355	036230	004 05 0 00 001225 		ER4	AC+1,T
  7356	036231	321 10 0 00 036223 		JUMPL	AC+4,.-^D6	;LOOP ON ERROR SWITCH^
  7357
  7358
  7359			001226		T=T+1
  7360			000004			ZZ=XX
  7361			000010			XX=XX+XX
  7362						DFARP	T,200777,-1,-1,-1,200000,0,XX,0,201400,0,ZZ,0^
  7363						DMOVE	AC,[200777,,-1
  7364	036232	120 04 0 00 044227 			-1,,-1]
  7365						DFAD	AC,[200000,,0
  7366	036233	110 04 0 00 043551 			XX,,0]
  7367	036234	312 04 0 00 044231 		CAME	AC,[201400,,0]
  7368	036235	003 04 0 00 001226 		ER3	AC,T
  7369	036236	312 05 0 00 043555 		CAME	AC+1,[ZZ,,0]
  7370	036237	004 05 0 00 001226 		ER4	AC+1,T
  7371	036240	321 10 0 00 036232 		JUMPL	AC+4,.-^D6	;LOOP ON ERROR SWITCH^
  7372
  7373
  7374			001227		T=T+1
  7375			000010			ZZ=XX
  7376			000020			XX=XX+XX
  7377						DFARP	T,200777,-1,-1,-1,200000,0,XX,0,201400,0,ZZ,0^
  7378						DMOVE	AC,[200777,,-1
  7379	036241	120 04 0 00 044227 			-1,,-1]
  7380						DFAD	AC,[200000,,0
  7381	036242	110 04 0 00 043546 			XX,,0]
  7382	036243	312 04 0 00 044231 		CAME	AC,[201400,,0]
  7383	036244	003 04 0 00 001227 		ER3	AC,T
  7384	036245	312 05 0 00 043552 		CAME	AC+1,[ZZ,,0]
  7385	036246	004 05 0 00 001227 		ER4	AC+1,T
  7386	036247	321 10 0 00 036241 		JUMPL	AC+4,.-^D6	;LOOP ON ERROR SWITCH^
  7387
  7388
  7389			001230		T=T+1
  7390			000020			ZZ=XX
  7391			000040			XX=XX+XX
  7392						DFARP	T,200777,-1,-1,-1,200000,0,XX,0,201400,0,ZZ,0^
  7393						DMOVE	AC,[200777,,-1
  7394	036250	120 04 0 00 044227 			-1,,-1]
  7395						DFAD	AC,[200000,,0
  7396	036251	110 04 0 00 043543 			XX,,0]
  7397	036252	312 04 0 00 044231 		CAME	AC,[201400,,0]
  7398	036253	003 04 0 00 001230 		ER3	AC,TDBKCD 	PDP-10 KI10 ADVANCED INSTRUCTION DIAGNOSTIC #4, VERSION 0,3 	MACRO %52(462) 12:35  9-AUG-76 PAGE 8-10
DBKCDM	MAC	26-MAY-76 16:52		TEST AR, ARX, AD, ADX AND NORMALIZE LOGIC FOR DOUBLE FLOATING POINT OPERATIONS     SEQ 0154

  7399	036254	312 05 0 00 043547 		CAME	AC+1,[ZZ,,0]
  7400	036255	004 05 0 00 001230 		ER4	AC+1,T
  7401	036256	321 10 0 00 036250 		JUMPL	AC+4,.-^D6	;LOOP ON ERROR SWITCH^
  7402
  7403
  7404			001231		T=T+1
  7405			000040			ZZ=XX
  7406			000100			XX=XX+XX
  7407						DFARP	T,200777,-1,-1,-1,200000,0,XX,0,201400,0,ZZ,0^
  7408						DMOVE	AC,[200777,,-1
  7409	036257	120 04 0 00 044227 			-1,,-1]
  7410						DFAD	AC,[200000,,0
  7411	036260	110 04 0 00 043540 			XX,,0]
  7412	036261	312 04 0 00 044231 		CAME	AC,[201400,,0]
  7413	036262	003 04 0 00 001231 		ER3	AC,T
  7414	036263	312 05 0 00 043544 		CAME	AC+1,[ZZ,,0]
  7415	036264	004 05 0 00 001231 		ER4	AC+1,T
  7416	036265	321 10 0 00 036257 		JUMPL	AC+4,.-^D6	;LOOP ON ERROR SWITCH^
  7417
  7418
  7419			001232		T=T+1
  7420			000100			ZZ=XX
  7421			000200			XX=XX+XX
  7422						DFARP	T,200777,-1,-1,-1,200000,0,XX,0,201400,0,ZZ,0^
  7423						DMOVE	AC,[200777,,-1
  7424	036266	120 04 0 00 044227 			-1,,-1]
  7425						DFAD	AC,[200000,,0
  7426	036267	110 04 0 00 043535 			XX,,0]
  7427	036270	312 04 0 00 044231 		CAME	AC,[201400,,0]
  7428	036271	003 04 0 00 001232 		ER3	AC,T
  7429	036272	312 05 0 00 043541 		CAME	AC+1,[ZZ,,0]
  7430	036273	004 05 0 00 001232 		ER4	AC+1,T
  7431	036274	321 10 0 00 036266 		JUMPL	AC+4,.-^D6	;LOOP ON ERROR SWITCH^
  7432
  7433
  7434			001233		T=T+1
  7435			000200			ZZ=XX
  7436			000400			XX=XX+XX
  7437						DFARP	T,200777,-1,-1,-1,200000,0,XX,0,201400,0,ZZ,0^
  7438						DMOVE	AC,[200777,,-1
  7439	036275	120 04 0 00 044227 			-1,,-1]
  7440						DFAD	AC,[200000,,0
  7441	036276	110 04 0 00 043532 			XX,,0]
  7442	036277	312 04 0 00 044231 		CAME	AC,[201400,,0]
  7443	036300	003 04 0 00 001233 		ER3	AC,T
  7444	036301	312 05 0 00 043536 		CAME	AC+1,[ZZ,,0]
  7445	036302	004 05 0 00 001233 		ER4	AC+1,T
  7446	036303	321 10 0 00 036275 		JUMPL	AC+4,.-^D6	;LOOP ON ERROR SWITCH^
  7447
  7448
  7449			001234		T=T+1
  7450			000400			ZZ=XX
  7451			001000			XX=XX+XX
  7452						DFARP	T,200777,-1,-1,-1,200000,0,XX,0,201400,0,ZZ,0^
  7453						DMOVE	AC,[200777,,-1DBKCD 	PDP-10 KI10 ADVANCED INSTRUCTION DIAGNOSTIC #4, VERSION 0,3 	MACRO %52(462) 12:35  9-AUG-76 PAGE 8-11
DBKCDM	MAC	26-MAY-76 16:52		TEST AR, ARX, AD, ADX AND NORMALIZE LOGIC FOR DOUBLE FLOATING POINT OPERATIONS     SEQ 0155

  7454	036304	120 04 0 00 044227 			-1,,-1]
  7455						DFAD	AC,[200000,,0
  7456	036305	110 04 0 00 043527 			XX,,0]
  7457	036306	312 04 0 00 044231 		CAME	AC,[201400,,0]
  7458	036307	003 04 0 00 001234 		ER3	AC,T
  7459	036310	312 05 0 00 043533 		CAME	AC+1,[ZZ,,0]
  7460	036311	004 05 0 00 001234 		ER4	AC+1,T
  7461	036312	321 10 0 00 036304 		JUMPL	AC+4,.-^D6	;LOOP ON ERROR SWITCH^
  7462
  7463
  7464			001235		T=T+1
  7465			001000			ZZ=XX
  7466			002000			XX=XX+XX
  7467						DFARP	T,200777,-1,-1,-1,200000,0,XX,0,201400,0,ZZ,0^
  7468						DMOVE	AC,[200777,,-1
  7469	036313	120 04 0 00 044227 			-1,,-1]
  7470						DFAD	AC,[200000,,0
  7471	036314	110 04 0 00 043524 			XX,,0]
  7472	036315	312 04 0 00 044231 		CAME	AC,[201400,,0]
  7473	036316	003 04 0 00 001235 		ER3	AC,T
  7474	036317	312 05 0 00 043530 		CAME	AC+1,[ZZ,,0]
  7475	036320	004 05 0 00 001235 		ER4	AC+1,T
  7476	036321	321 10 0 00 036313 		JUMPL	AC+4,.-^D6	;LOOP ON ERROR SWITCH^
  7477
  7478
  7479			001236		T=T+1
  7480			002000			ZZ=XX
  7481			004000			XX=XX+XX
  7482						DFARP	T,200777,-1,-1,-1,200000,0,XX,0,201400,0,ZZ,0^
  7483						DMOVE	AC,[200777,,-1
  7484	036322	120 04 0 00 044227 			-1,,-1]
  7485						DFAD	AC,[200000,,0
  7486	036323	110 04 0 00 043521 			XX,,0]
  7487	036324	312 04 0 00 044231 		CAME	AC,[201400,,0]
  7488	036325	003 04 0 00 001236 		ER3	AC,T
  7489	036326	312 05 0 00 043525 		CAME	AC+1,[ZZ,,0]
  7490	036327	004 05 0 00 001236 		ER4	AC+1,T
  7491	036330	321 10 0 00 036322 		JUMPL	AC+4,.-^D6	;LOOP ON ERROR SWITCH^
  7492
  7493
  7494			001237		T=T+1
  7495			004000			ZZ=XX
  7496			010000			XX=XX+XX
  7497						DFARP	T,200777,-1,-1,-1,200000,0,XX,0,201400,0,ZZ,0^
  7498						DMOVE	AC,[200777,,-1
  7499	036331	120 04 0 00 044227 			-1,,-1]
  7500						DFAD	AC,[200000,,0
  7501	036332	110 04 0 00 043516 			XX,,0]
  7502	036333	312 04 0 00 044231 		CAME	AC,[201400,,0]
  7503	036334	003 04 0 00 001237 		ER3	AC,T
  7504	036335	312 05 0 00 043522 		CAME	AC+1,[ZZ,,0]
  7505	036336	004 05 0 00 001237 		ER4	AC+1,T
  7506	036337	321 10 0 00 036331 		JUMPL	AC+4,.-^D6	;LOOP ON ERROR SWITCH^
  7507
  7508DBKCD 	PDP-10 KI10 ADVANCED INSTRUCTION DIAGNOSTIC #4, VERSION 0,3 	MACRO %52(462) 12:35  9-AUG-76 PAGE 8-12
DBKCDM	MAC	26-MAY-76 16:52		TEST AR, ARX, AD, ADX AND NORMALIZE LOGIC FOR DOUBLE FLOATING POINT OPERATIONS     SEQ 0156

  7509			001240		T=T+1
  7510			010000			ZZ=XX
  7511			020000			XX=XX+XX
  7512						DFARP	T,200777,-1,-1,-1,200000,0,XX,0,201400,0,ZZ,0^
  7513						DMOVE	AC,[200777,,-1
  7514	036340	120 04 0 00 044227 			-1,,-1]
  7515						DFAD	AC,[200000,,0
  7516	036341	110 04 0 00 043513 			XX,,0]
  7517	036342	312 04 0 00 044231 		CAME	AC,[201400,,0]
  7518	036343	003 04 0 00 001240 		ER3	AC,T
  7519	036344	312 05 0 00 043517 		CAME	AC+1,[ZZ,,0]
  7520	036345	004 05 0 00 001240 		ER4	AC+1,T
  7521	036346	321 10 0 00 036340 		JUMPL	AC+4,.-^D6	;LOOP ON ERROR SWITCH^
  7522
  7523
  7524			001241		T=T+1
  7525			020000			ZZ=XX
  7526			040000			XX=XX+XX
  7527						DFARP	T,200777,-1,-1,-1,200000,0,XX,0,201400,0,ZZ,0^
  7528						DMOVE	AC,[200777,,-1
  7529	036347	120 04 0 00 044227 			-1,,-1]
  7530						DFAD	AC,[200000,,0
  7531	036350	110 04 0 00 043510 			XX,,0]
  7532	036351	312 04 0 00 044231 		CAME	AC,[201400,,0]
  7533	036352	003 04 0 00 001241 		ER3	AC,T
  7534	036353	312 05 0 00 043514 		CAME	AC+1,[ZZ,,0]
  7535	036354	004 05 0 00 001241 		ER4	AC+1,T
  7536	036355	321 10 0 00 036347 		JUMPL	AC+4,.-^D6	;LOOP ON ERROR SWITCH^
  7537
  7538
  7539			001242		T=T+1
  7540			040000			ZZ=XX
  7541			100000			XX=XX+XX
  7542						DFARP	T,200777,-1,-1,-1,200000,0,XX,0,201400,0,ZZ,0^
  7543						DMOVE	AC,[200777,,-1
  7544	036356	120 04 0 00 044227 			-1,,-1]
  7545						DFAD	AC,[200000,,0
  7546	036357	110 04 0 00 043505 			XX,,0]
  7547	036360	312 04 0 00 044231 		CAME	AC,[201400,,0]
  7548	036361	003 04 0 00 001242 		ER3	AC,T
  7549	036362	312 05 0 00 043511 		CAME	AC+1,[ZZ,,0]
  7550	036363	004 05 0 00 001242 		ER4	AC+1,T
  7551	036364	321 10 0 00 036356 		JUMPL	AC+4,.-^D6	;LOOP ON ERROR SWITCH^
  7552
  7553
  7554			001243		T=T+1
  7555			100000			ZZ=XX
  7556			200000			XX=XX+XX
  7557						DFARP	T,200777,-1,-1,-1,200000,0,XX,0,201400,0,ZZ,0^
  7558						DMOVE	AC,[200777,,-1
  7559	036365	120 04 0 00 044227 			-1,,-1]
  7560						DFAD	AC,[200000,,0
  7561	036366	110 04 0 00 043502 			XX,,0]
  7562	036367	312 04 0 00 044231 		CAME	AC,[201400,,0]
  7563	036370	003 04 0 00 001243 		ER3	AC,TDBKCD 	PDP-10 KI10 ADVANCED INSTRUCTION DIAGNOSTIC #4, VERSION 0,3 	MACRO %52(462) 12:35  9-AUG-76 PAGE 8-13
DBKCDM	MAC	26-MAY-76 16:52		TEST AR, ARX, AD, ADX AND NORMALIZE LOGIC FOR DOUBLE FLOATING POINT OPERATIONS     SEQ 0157

  7564	036371	312 05 0 00 043506 		CAME	AC+1,[ZZ,,0]
  7565	036372	004 05 0 00 001243 		ER4	AC+1,T
  7566	036373	321 10 0 00 036365 		JUMPL	AC+4,.-^D6	;LOOP ON ERROR SWITCH^
  7567
  7568
  7569			200000			ZZ=XX
  7570			400000			XX=XX+XX
  7571
  7572			001244		T=T+1
  7573						DFARP	T,200777,-1,-1,-1,200000,0,XX,0,200777,-1,377777,-1^
  7574						DMOVE	AC,[200777,,-1
  7575	036374	120 04 0 00 044227 			-1,,-1]
  7576						DFAD	AC,[200000,,0
  7577	036375	110 04 0 00 043500 			XX,,0]
  7578	036376	312 04 0 00 044227 		CAME	AC,[200777,,-1]
  7579	036377	003 04 0 00 001244 		ER3	AC,T
  7580	036400	312 05 0 00 043655 		CAME	AC+1,[377777,,-1]
  7581	036401	004 05 0 00 001244 		ER4	AC+1,T
  7582	036402	321 10 0 00 036374 		JUMPL	AC+4,.-^D6	;LOOP ON ERROR SWITCH^
  7583
  7584			001245		T=T+1
  7585			000001			XX=1
  7586						DFARP	T,200777,-1,-1,-1,200000,XX,0,0,201400,0,ZZ,0^
  7587						DMOVE	AC,[200777,,-1
  7588	036403	120 04 0 00 044227 			-1,,-1]
  7589						DFAD	AC,[200000,,XX
  7590	036404	110 04 0 00 043475 			0,,0]
  7591	036405	312 04 0 00 044231 		CAME	AC,[201400,,0]
  7592	036406	003 04 0 00 001245 		ER3	AC,T
  7593	036407	312 05 0 00 043356 		CAME	AC+1,[ZZ,,0]
  7594	036410	004 05 0 00 001245 		ER4	AC+1,T
  7595	036411	321 10 0 00 036403 		JUMPL	AC+4,.-^D6	;LOOP ON ERROR SWITCH^
  7596
  7597
  7598						REPEAT	^D17,<
  7599					T=T+1
  7600						ZZ=XX
  7601						XX=XX+XX
  7602						DFARP	T,200777,-1,-1,-1,200000,XX,0,0,201400,ZZ,0,0
  7603					>
  7604
  7605
  7606			001246		T=T+1
  7607			000001			ZZ=XX
  7608			000002			XX=XX+XX
  7609						DFARP	T,200777,-1,-1,-1,200000,XX,0,0,201400,ZZ,0,0^
  7610						DMOVE	AC,[200777,,-1
  7611	036412	120 04 0 00 044227 			-1,,-1]
  7612						DFAD	AC,[200000,,XX
  7613	036413	110 04 0 00 043472 			0,,0]
  7614	036414	312 04 0 00 044232 		CAME	AC,[201400,,ZZ]
  7615	036415	003 04 0 00 001246 		ER3	AC,T
  7616	036416	312 05 0 00 043354 		CAME	AC+1,[0,,0]
  7617	036417	004 05 0 00 001246 		ER4	AC+1,T
  7618	036420	321 10 0 00 036412 		JUMPL	AC+4,.-^D6	;LOOP ON ERROR SWITCH^DBKCD 	PDP-10 KI10 ADVANCED INSTRUCTION DIAGNOSTIC #4, VERSION 0,3 	MACRO %52(462) 12:35  9-AUG-76 PAGE 8-14
DBKCDM	MAC	26-MAY-76 16:52		TEST AR, ARX, AD, ADX AND NORMALIZE LOGIC FOR DOUBLE FLOATING POINT OPERATIONS     SEQ 0158

  7619
  7620
  7621			001247		T=T+1
  7622			000002			ZZ=XX
  7623			000004			XX=XX+XX
  7624						DFARP	T,200777,-1,-1,-1,200000,XX,0,0,201400,ZZ,0,0^
  7625						DMOVE	AC,[200777,,-1
  7626	036421	120 04 0 00 044227 			-1,,-1]
  7627						DFAD	AC,[200000,,XX
  7628	036422	110 04 0 00 043467 			0,,0]
  7629	036423	312 04 0 00 044233 		CAME	AC,[201400,,ZZ]
  7630	036424	003 04 0 00 001247 		ER3	AC,T
  7631	036425	312 05 0 00 043354 		CAME	AC+1,[0,,0]
  7632	036426	004 05 0 00 001247 		ER4	AC+1,T
  7633	036427	321 10 0 00 036421 		JUMPL	AC+4,.-^D6	;LOOP ON ERROR SWITCH^
  7634
  7635
  7636			001250		T=T+1
  7637			000004			ZZ=XX
  7638			000010			XX=XX+XX
  7639						DFARP	T,200777,-1,-1,-1,200000,XX,0,0,201400,ZZ,0,0^
  7640						DMOVE	AC,[200777,,-1
  7641	036430	120 04 0 00 044227 			-1,,-1]
  7642						DFAD	AC,[200000,,XX
  7643	036431	110 04 0 00 043464 			0,,0]
  7644	036432	312 04 0 00 044234 		CAME	AC,[201400,,ZZ]
  7645	036433	003 04 0 00 001250 		ER3	AC,T
  7646	036434	312 05 0 00 043354 		CAME	AC+1,[0,,0]
  7647	036435	004 05 0 00 001250 		ER4	AC+1,T
  7648	036436	321 10 0 00 036430 		JUMPL	AC+4,.-^D6	;LOOP ON ERROR SWITCH^
  7649
  7650
  7651			001251		T=T+1
  7652			000010			ZZ=XX
  7653			000020			XX=XX+XX
  7654						DFARP	T,200777,-1,-1,-1,200000,XX,0,0,201400,ZZ,0,0^
  7655						DMOVE	AC,[200777,,-1
  7656	036437	120 04 0 00 044227 			-1,,-1]
  7657						DFAD	AC,[200000,,XX
  7658	036440	110 04 0 00 043461 			0,,0]
  7659	036441	312 04 0 00 044235 		CAME	AC,[201400,,ZZ]
  7660	036442	003 04 0 00 001251 		ER3	AC,T
  7661	036443	312 05 0 00 043354 		CAME	AC+1,[0,,0]
  7662	036444	004 05 0 00 001251 		ER4	AC+1,T
  7663	036445	321 10 0 00 036437 		JUMPL	AC+4,.-^D6	;LOOP ON ERROR SWITCH^
  7664
  7665
  7666			001252		T=T+1
  7667			000020			ZZ=XX
  7668			000040			XX=XX+XX
  7669						DFARP	T,200777,-1,-1,-1,200000,XX,0,0,201400,ZZ,0,0^
  7670						DMOVE	AC,[200777,,-1
  7671	036446	120 04 0 00 044227 			-1,,-1]
  7672						DFAD	AC,[200000,,XX
  7673	036447	110 04 0 00 043456 			0,,0]DBKCD 	PDP-10 KI10 ADVANCED INSTRUCTION DIAGNOSTIC #4, VERSION 0,3 	MACRO %52(462) 12:35  9-AUG-76 PAGE 8-15
DBKCDM	MAC	26-MAY-76 16:52		TEST AR, ARX, AD, ADX AND NORMALIZE LOGIC FOR DOUBLE FLOATING POINT OPERATIONS     SEQ 0159

  7674	036450	312 04 0 00 044236 		CAME	AC,[201400,,ZZ]
  7675	036451	003 04 0 00 001252 		ER3	AC,T
  7676	036452	312 05 0 00 043354 		CAME	AC+1,[0,,0]
  7677	036453	004 05 0 00 001252 		ER4	AC+1,T
  7678	036454	321 10 0 00 036446 		JUMPL	AC+4,.-^D6	;LOOP ON ERROR SWITCH^
  7679
  7680
  7681			001253		T=T+1
  7682			000040			ZZ=XX
  7683			000100			XX=XX+XX
  7684						DFARP	T,200777,-1,-1,-1,200000,XX,0,0,201400,ZZ,0,0^
  7685						DMOVE	AC,[200777,,-1
  7686	036455	120 04 0 00 044227 			-1,,-1]
  7687						DFAD	AC,[200000,,XX
  7688	036456	110 04 0 00 043453 			0,,0]
  7689	036457	312 04 0 00 044237 		CAME	AC,[201400,,ZZ]
  7690	036460	003 04 0 00 001253 		ER3	AC,T
  7691	036461	312 05 0 00 043354 		CAME	AC+1,[0,,0]
  7692	036462	004 05 0 00 001253 		ER4	AC+1,T
  7693	036463	321 10 0 00 036455 		JUMPL	AC+4,.-^D6	;LOOP ON ERROR SWITCH^
  7694
  7695
  7696			001254		T=T+1
  7697			000100			ZZ=XX
  7698			000200			XX=XX+XX
  7699						DFARP	T,200777,-1,-1,-1,200000,XX,0,0,201400,ZZ,0,0^
  7700						DMOVE	AC,[200777,,-1
  7701	036464	120 04 0 00 044227 			-1,,-1]
  7702						DFAD	AC,[200000,,XX
  7703	036465	110 04 0 00 043450 			0,,0]
  7704	036466	312 04 0 00 044240 		CAME	AC,[201400,,ZZ]
  7705	036467	003 04 0 00 001254 		ER3	AC,T
  7706	036470	312 05 0 00 043354 		CAME	AC+1,[0,,0]
  7707	036471	004 05 0 00 001254 		ER4	AC+1,T
  7708	036472	321 10 0 00 036464 		JUMPL	AC+4,.-^D6	;LOOP ON ERROR SWITCH^
  7709
  7710
  7711			001255		T=T+1
  7712			000200			ZZ=XX
  7713			000400			XX=XX+XX
  7714						DFARP	T,200777,-1,-1,-1,200000,XX,0,0,201400,ZZ,0,0^
  7715						DMOVE	AC,[200777,,-1
  7716	036473	120 04 0 00 044227 			-1,,-1]
  7717						DFAD	AC,[200000,,XX
  7718	036474	110 04 0 00 043445 			0,,0]
  7719	036475	312 04 0 00 044241 		CAME	AC,[201400,,ZZ]
  7720	036476	003 04 0 00 001255 		ER3	AC,T
  7721	036477	312 05 0 00 043354 		CAME	AC+1,[0,,0]
  7722	036500	004 05 0 00 001255 		ER4	AC+1,T
  7723	036501	321 10 0 00 036473 		JUMPL	AC+4,.-^D6	;LOOP ON ERROR SWITCH^
  7724
  7725
  7726			001256		T=T+1
  7727			000400			ZZ=XX
  7728			001000			XX=XX+XXDBKCD 	PDP-10 KI10 ADVANCED INSTRUCTION DIAGNOSTIC #4, VERSION 0,3 	MACRO %52(462) 12:35  9-AUG-76 PAGE 8-16
DBKCDM	MAC	26-MAY-76 16:52		TEST AR, ARX, AD, ADX AND NORMALIZE LOGIC FOR DOUBLE FLOATING POINT OPERATIONS     SEQ 0160

  7729						DFARP	T,200777,-1,-1,-1,200000,XX,0,0,201400,ZZ,0,0^
  7730						DMOVE	AC,[200777,,-1
  7731	036502	120 04 0 00 044227 			-1,,-1]
  7732						DFAD	AC,[200000,,XX
  7733	036503	110 04 0 00 043442 			0,,0]
  7734	036504	312 04 0 00 044242 		CAME	AC,[201400,,ZZ]
  7735	036505	003 04 0 00 001256 		ER3	AC,T
  7736	036506	312 05 0 00 043354 		CAME	AC+1,[0,,0]
  7737	036507	004 05 0 00 001256 		ER4	AC+1,T
  7738	036510	321 10 0 00 036502 		JUMPL	AC+4,.-^D6	;LOOP ON ERROR SWITCH^
  7739
  7740
  7741			001257		T=T+1
  7742			001000			ZZ=XX
  7743			002000			XX=XX+XX
  7744						DFARP	T,200777,-1,-1,-1,200000,XX,0,0,201400,ZZ,0,0^
  7745						DMOVE	AC,[200777,,-1
  7746	036511	120 04 0 00 044227 			-1,,-1]
  7747						DFAD	AC,[200000,,XX
  7748	036512	110 04 0 00 043437 			0,,0]
  7749	036513	312 04 0 00 044243 		CAME	AC,[201400,,ZZ]
  7750	036514	003 04 0 00 001257 		ER3	AC,T
  7751	036515	312 05 0 00 043354 		CAME	AC+1,[0,,0]
  7752	036516	004 05 0 00 001257 		ER4	AC+1,T
  7753	036517	321 10 0 00 036511 		JUMPL	AC+4,.-^D6	;LOOP ON ERROR SWITCH^
  7754
  7755
  7756			001260		T=T+1
  7757			002000			ZZ=XX
  7758			004000			XX=XX+XX
  7759						DFARP	T,200777,-1,-1,-1,200000,XX,0,0,201400,ZZ,0,0^
  7760						DMOVE	AC,[200777,,-1
  7761	036520	120 04 0 00 044227 			-1,,-1]
  7762						DFAD	AC,[200000,,XX
  7763	036521	110 04 0 00 043434 			0,,0]
  7764	036522	312 04 0 00 044244 		CAME	AC,[201400,,ZZ]
  7765	036523	003 04 0 00 001260 		ER3	AC,T
  7766	036524	312 05 0 00 043354 		CAME	AC+1,[0,,0]
  7767	036525	004 05 0 00 001260 		ER4	AC+1,T
  7768	036526	321 10 0 00 036520 		JUMPL	AC+4,.-^D6	;LOOP ON ERROR SWITCH^
  7769
  7770
  7771			001261		T=T+1
  7772			004000			ZZ=XX
  7773			010000			XX=XX+XX
  7774						DFARP	T,200777,-1,-1,-1,200000,XX,0,0,201400,ZZ,0,0^
  7775						DMOVE	AC,[200777,,-1
  7776	036527	120 04 0 00 044227 			-1,,-1]
  7777						DFAD	AC,[200000,,XX
  7778	036530	110 04 0 00 043431 			0,,0]
  7779	036531	312 04 0 00 044245 		CAME	AC,[201400,,ZZ]
  7780	036532	003 04 0 00 001261 		ER3	AC,T
  7781	036533	312 05 0 00 043354 		CAME	AC+1,[0,,0]
  7782	036534	004 05 0 00 001261 		ER4	AC+1,T
  7783	036535	321 10 0 00 036527 		JUMPL	AC+4,.-^D6	;LOOP ON ERROR SWITCH^DBKCD 	PDP-10 KI10 ADVANCED INSTRUCTION DIAGNOSTIC #4, VERSION 0,3 	MACRO %52(462) 12:35  9-AUG-76 PAGE 8-17
DBKCDM	MAC	26-MAY-76 16:52		TEST AR, ARX, AD, ADX AND NORMALIZE LOGIC FOR DOUBLE FLOATING POINT OPERATIONS     SEQ 0161

  7784
  7785
  7786			001262		T=T+1
  7787			010000			ZZ=XX
  7788			020000			XX=XX+XX
  7789						DFARP	T,200777,-1,-1,-1,200000,XX,0,0,201400,ZZ,0,0^
  7790						DMOVE	AC,[200777,,-1
  7791	036536	120 04 0 00 044227 			-1,,-1]
  7792						DFAD	AC,[200000,,XX
  7793	036537	110 04 0 00 043426 			0,,0]
  7794	036540	312 04 0 00 044246 		CAME	AC,[201400,,ZZ]
  7795	036541	003 04 0 00 001262 		ER3	AC,T
  7796	036542	312 05 0 00 043354 		CAME	AC+1,[0,,0]
  7797	036543	004 05 0 00 001262 		ER4	AC+1,T
  7798	036544	321 10 0 00 036536 		JUMPL	AC+4,.-^D6	;LOOP ON ERROR SWITCH^
  7799
  7800
  7801			001263		T=T+1
  7802			020000			ZZ=XX
  7803			040000			XX=XX+XX
  7804						DFARP	T,200777,-1,-1,-1,200000,XX,0,0,201400,ZZ,0,0^
  7805						DMOVE	AC,[200777,,-1
  7806	036545	120 04 0 00 044227 			-1,,-1]
  7807						DFAD	AC,[200000,,XX
  7808	036546	110 04 0 00 043423 			0,,0]
  7809	036547	312 04 0 00 044247 		CAME	AC,[201400,,ZZ]
  7810	036550	003 04 0 00 001263 		ER3	AC,T
  7811	036551	312 05 0 00 043354 		CAME	AC+1,[0,,0]
  7812	036552	004 05 0 00 001263 		ER4	AC+1,T
  7813	036553	321 10 0 00 036545 		JUMPL	AC+4,.-^D6	;LOOP ON ERROR SWITCH^
  7814
  7815
  7816			001264		T=T+1
  7817			040000			ZZ=XX
  7818			100000			XX=XX+XX
  7819						DFARP	T,200777,-1,-1,-1,200000,XX,0,0,201400,ZZ,0,0^
  7820						DMOVE	AC,[200777,,-1
  7821	036554	120 04 0 00 044227 			-1,,-1]
  7822						DFAD	AC,[200000,,XX
  7823	036555	110 04 0 00 043420 			0,,0]
  7824	036556	312 04 0 00 044250 		CAME	AC,[201400,,ZZ]
  7825	036557	003 04 0 00 001264 		ER3	AC,T
  7826	036560	312 05 0 00 043354 		CAME	AC+1,[0,,0]
  7827	036561	004 05 0 00 001264 		ER4	AC+1,T
  7828	036562	321 10 0 00 036554 		JUMPL	AC+4,.-^D6	;LOOP ON ERROR SWITCH^
  7829
  7830
  7831			001265		T=T+1
  7832			100000			ZZ=XX
  7833			200000			XX=XX+XX
  7834						DFARP	T,200777,-1,-1,-1,200000,XX,0,0,201400,ZZ,0,0^
  7835						DMOVE	AC,[200777,,-1
  7836	036563	120 04 0 00 044227 			-1,,-1]
  7837						DFAD	AC,[200000,,XX
  7838	036564	110 04 0 00 043415 			0,,0]DBKCD 	PDP-10 KI10 ADVANCED INSTRUCTION DIAGNOSTIC #4, VERSION 0,3 	MACRO %52(462) 12:35  9-AUG-76 PAGE 8-18
DBKCDM	MAC	26-MAY-76 16:52		TEST AR, ARX, AD, ADX AND NORMALIZE LOGIC FOR DOUBLE FLOATING POINT OPERATIONS     SEQ 0162

  7839	036565	312 04 0 00 044251 		CAME	AC,[201400,,ZZ]
  7840	036566	003 04 0 00 001265 		ER3	AC,T
  7841	036567	312 05 0 00 043354 		CAME	AC+1,[0,,0]
  7842	036570	004 05 0 00 001265 		ER4	AC+1,T
  7843	036571	321 10 0 00 036563 		JUMPL	AC+4,.-^D6	;LOOP ON ERROR SWITCH^
  7844
  7845
  7846			001266		T=T+1
  7847			200000			ZZ=XX
  7848			400000			XX=XX+XX
  7849						DFARP	T,200777,-1,-1,-1,200000,XX,0,0,201400,ZZ,0,0^
  7850						DMOVE	AC,[200777,,-1
  7851	036572	120 04 0 00 044227 			-1,,-1]
  7852						DFAD	AC,[200000,,XX
  7853	036573	110 04 0 00 043412 			0,,0]
  7854	036574	312 04 0 00 044252 		CAME	AC,[201400,,ZZ]
  7855	036575	003 04 0 00 001266 		ER3	AC,T
  7856	036576	312 05 0 00 043354 		CAME	AC+1,[0,,0]
  7857	036577	004 05 0 00 001266 		ER4	AC+1,T
  7858	036600	321 10 0 00 036572 		JUMPL	AC+4,.-^D6	;LOOP ON ERROR SWITCH^
  7859
  7860
  7861
  7862			001267		T=T+1
  7863			400000			ZZ=XX
  7864			000001			XX=1
  7865						DFARP	T,200777,-1,-1,-1,200000+XX,0,0,0,201400,ZZ,0,0^
  7866						DMOVE	AC,[200777,,-1
  7867	036601	120 04 0 00 044227 			-1,,-1]
  7868						DFAD	AC,[200000+XX,,0
  7869	036602	110 04 0 00 043407 			0,,0]
  7870	036603	312 04 0 00 044253 		CAME	AC,[201400,,ZZ]
  7871	036604	003 04 0 00 001267 		ER3	AC,T
  7872	036605	312 05 0 00 043354 		CAME	AC+1,[0,,0]
  7873	036606	004 05 0 00 001267 		ER4	AC+1,T
  7874	036607	321 10 0 00 036601 		JUMPL	AC+4,.-^D6	;LOOP ON ERROR SWITCH^
  7875
  7876
  7877						REPEAT	^D8,<
  7878					T=T+1
  7879						ZZ=XX
  7880						XX=XX+XX
  7881						DFARP	T,200777,-1,-1,-1,200000+XX,0,0,0,201400+ZZ,0,0,0
  7882					>
  7883
  7884			001270		T=T+1
  7885			000001			ZZ=XX
  7886			000002			XX=XX+XX
  7887						DFARP	T,200777,-1,-1,-1,200000+XX,0,0,0,201400+ZZ,0,0,0^
  7888						DMOVE	AC,[200777,,-1
  7889	036610	120 04 0 00 044227 			-1,,-1]
  7890						DFAD	AC,[200000+XX,,0
  7891	036611	110 04 0 00 043404 			0,,0]
  7892	036612	312 04 0 00 044254 		CAME	AC,[201400+ZZ,,0]
  7893	036613	003 04 0 00 001270 		ER3	AC,TDBKCD 	PDP-10 KI10 ADVANCED INSTRUCTION DIAGNOSTIC #4, VERSION 0,3 	MACRO %52(462) 12:35  9-AUG-76 PAGE 8-19
DBKCDM	MAC	26-MAY-76 16:52		TEST AR, ARX, AD, ADX AND NORMALIZE LOGIC FOR DOUBLE FLOATING POINT OPERATIONS     SEQ 0163

  7894	036614	312 05 0 00 043354 		CAME	AC+1,[0,,0]
  7895	036615	004 05 0 00 001270 		ER4	AC+1,T
  7896	036616	321 10 0 00 036610 		JUMPL	AC+4,.-^D6	;LOOP ON ERROR SWITCH^
  7897
  7898
  7899			001271		T=T+1
  7900			000002			ZZ=XX
  7901			000004			XX=XX+XX
  7902						DFARP	T,200777,-1,-1,-1,200000+XX,0,0,0,201400+ZZ,0,0,0^
  7903						DMOVE	AC,[200777,,-1
  7904	036617	120 04 0 00 044227 			-1,,-1]
  7905						DFAD	AC,[200000+XX,,0
  7906	036620	110 04 0 00 043401 			0,,0]
  7907	036621	312 04 0 00 044255 		CAME	AC,[201400+ZZ,,0]
  7908	036622	003 04 0 00 001271 		ER3	AC,T
  7909	036623	312 05 0 00 043354 		CAME	AC+1,[0,,0]
  7910	036624	004 05 0 00 001271 		ER4	AC+1,T
  7911	036625	321 10 0 00 036617 		JUMPL	AC+4,.-^D6	;LOOP ON ERROR SWITCH^
  7912
  7913
  7914			001272		T=T+1
  7915			000004			ZZ=XX
  7916			000010			XX=XX+XX
  7917						DFARP	T,200777,-1,-1,-1,200000+XX,0,0,0,201400+ZZ,0,0,0^
  7918						DMOVE	AC,[200777,,-1
  7919	036626	120 04 0 00 044227 			-1,,-1]
  7920						DFAD	AC,[200000+XX,,0
  7921	036627	110 04 0 00 043376 			0,,0]
  7922	036630	312 04 0 00 044256 		CAME	AC,[201400+ZZ,,0]
  7923	036631	003 04 0 00 001272 		ER3	AC,T
  7924	036632	312 05 0 00 043354 		CAME	AC+1,[0,,0]
  7925	036633	004 05 0 00 001272 		ER4	AC+1,T
  7926	036634	321 10 0 00 036626 		JUMPL	AC+4,.-^D6	;LOOP ON ERROR SWITCH^
  7927
  7928
  7929			001273		T=T+1
  7930			000010			ZZ=XX
  7931			000020			XX=XX+XX
  7932						DFARP	T,200777,-1,-1,-1,200000+XX,0,0,0,201400+ZZ,0,0,0^
  7933						DMOVE	AC,[200777,,-1
  7934	036635	120 04 0 00 044227 			-1,,-1]
  7935						DFAD	AC,[200000+XX,,0
  7936	036636	110 04 0 00 043373 			0,,0]
  7937	036637	312 04 0 00 044257 		CAME	AC,[201400+ZZ,,0]
  7938	036640	003 04 0 00 001273 		ER3	AC,T
  7939	036641	312 05 0 00 043354 		CAME	AC+1,[0,,0]
  7940	036642	004 05 0 00 001273 		ER4	AC+1,T
  7941	036643	321 10 0 00 036635 		JUMPL	AC+4,.-^D6	;LOOP ON ERROR SWITCH^
  7942
  7943
  7944			001274		T=T+1
  7945			000020			ZZ=XX
  7946			000040			XX=XX+XX
  7947						DFARP	T,200777,-1,-1,-1,200000+XX,0,0,0,201400+ZZ,0,0,0^
  7948						DMOVE	AC,[200777,,-1DBKCD 	PDP-10 KI10 ADVANCED INSTRUCTION DIAGNOSTIC #4, VERSION 0,3 	MACRO %52(462) 12:35  9-AUG-76 PAGE 8-20
DBKCDM	MAC	26-MAY-76 16:52		TEST AR, ARX, AD, ADX AND NORMALIZE LOGIC FOR DOUBLE FLOATING POINT OPERATIONS     SEQ 0164

  7949	036644	120 04 0 00 044227 			-1,,-1]
  7950						DFAD	AC,[200000+XX,,0
  7951	036645	110 04 0 00 043370 			0,,0]
  7952	036646	312 04 0 00 044260 		CAME	AC,[201400+ZZ,,0]
  7953	036647	003 04 0 00 001274 		ER3	AC,T
  7954	036650	312 05 0 00 043354 		CAME	AC+1,[0,,0]
  7955	036651	004 05 0 00 001274 		ER4	AC+1,T
  7956	036652	321 10 0 00 036644 		JUMPL	AC+4,.-^D6	;LOOP ON ERROR SWITCH^
  7957
  7958
  7959			001275		T=T+1
  7960			000040			ZZ=XX
  7961			000100			XX=XX+XX
  7962						DFARP	T,200777,-1,-1,-1,200000+XX,0,0,0,201400+ZZ,0,0,0^
  7963						DMOVE	AC,[200777,,-1
  7964	036653	120 04 0 00 044227 			-1,,-1]
  7965						DFAD	AC,[200000+XX,,0
  7966	036654	110 04 0 00 043365 			0,,0]
  7967	036655	312 04 0 00 044261 		CAME	AC,[201400+ZZ,,0]
  7968	036656	003 04 0 00 001275 		ER3	AC,T
  7969	036657	312 05 0 00 043354 		CAME	AC+1,[0,,0]
  7970	036660	004 05 0 00 001275 		ER4	AC+1,T
  7971	036661	321 10 0 00 036653 		JUMPL	AC+4,.-^D6	;LOOP ON ERROR SWITCH^
  7972
  7973
  7974			001276		T=T+1
  7975			000100			ZZ=XX
  7976			000200			XX=XX+XX
  7977						DFARP	T,200777,-1,-1,-1,200000+XX,0,0,0,201400+ZZ,0,0,0^
  7978						DMOVE	AC,[200777,,-1
  7979	036662	120 04 0 00 044227 			-1,,-1]
  7980						DFAD	AC,[200000+XX,,0
  7981	036663	110 04 0 00 043362 			0,,0]
  7982	036664	312 04 0 00 044262 		CAME	AC,[201400+ZZ,,0]
  7983	036665	003 04 0 00 001276 		ER3	AC,T
  7984	036666	312 05 0 00 043354 		CAME	AC+1,[0,,0]
  7985	036667	004 05 0 00 001276 		ER4	AC+1,T
  7986	036670	321 10 0 00 036662 		JUMPL	AC+4,.-^D6	;LOOP ON ERROR SWITCH^
  7987
  7988
  7989			001277		T=T+1
  7990			000200			ZZ=XX
  7991			000400			XX=XX+XX
  7992						DFARP	T,200777,-1,-1,-1,200000+XX,0,0,0,201400+ZZ,0,0,0^
  7993						DMOVE	AC,[200777,,-1
  7994	036671	120 04 0 00 044227 			-1,,-1]
  7995						DFAD	AC,[200000+XX,,0
  7996	036672	110 04 0 00 043360 			0,,0]
  7997	036673	312 04 0 00 044263 		CAME	AC,[201400+ZZ,,0]
  7998	036674	003 04 0 00 001277 		ER3	AC,T
  7999	036675	312 05 0 00 043354 		CAME	AC+1,[0,,0]
  8000	036676	004 05 0 00 001277 		ER4	AC+1,T
  8001	036677	321 10 0 00 036671 		JUMPL	AC+4,.-^D6	;LOOP ON ERROR SWITCH^
  8002DBKCD 	PDP-10 KI10 ADVANCED INSTRUCTION DIAGNOSTIC #4, VERSION 0,3 	MACRO %52(462) 12:35  9-AUG-76 PAGE 9
DBKCDM	MAC	26-MAY-76 16:52		TEST AR, ARX, AD, ADX AND NORMALIZE LOGIC FOR DOUBLE FLOATING POINT OPERATIONS     SEQ 0165

  8003					;RIPPLE ONES (TO A RIPPLED ONE, ADD A FRACTION OF ALL ONES)
  8004
  8005			001300		T=1300
  8006
  8007			000000			XX=0
  8008
  8009
  8010					R1300:	REPEAT	^D18,<
  8011					T=T+1
  8012						ZZ=XX
  8013						XX=XX+XX
  8014						IFE	XX,<XX=1>
  8015						DFARP	T,200000,0,0,XX,200777,-1,-1,-1,201400,0,0,ZZ
  8016					>
  8017
  8018			001301		T=T+1
  8019			000000			ZZ=XX
  8020			000000			XX=XX+XX
  8021			000001			IFE	XX,<XX=1>
  8022						DFARP	T,200000,0,0,XX,200777,-1,-1,-1,201400,0,0,ZZ^
  8023						DMOVE	AC,[200000,,0
  8024	036700	120 04 0 00 043650 			0,,XX]
  8025						DFAD	AC,[200777,,-1
  8026	036701	110 04 0 00 044227 			-1,,-1]
  8027	036702	312 04 0 00 044231 		CAME	AC,[201400,,0]
  8028	036703	003 04 0 00 001301 		ER3	AC,T
  8029	036704	312 05 0 00 043354 		CAME	AC+1,[0,,ZZ]
  8030	036705	004 05 0 00 001301 		ER4	AC+1,T
  8031	036706	321 10 0 00 036700 		JUMPL	AC+4,.-^D6	;LOOP ON ERROR SWITCH^
  8032
  8033
  8034			001302		T=T+1
  8035			000001			ZZ=XX
  8036			000002			XX=XX+XX
  8037						IFE	XX,<XX=1>
  8038						DFARP	T,200000,0,0,XX,200777,-1,-1,-1,201400,0,0,ZZ^
  8039						DMOVE	AC,[200000,,0
  8040	036707	120 04 0 00 043645 			0,,XX]
  8041						DFAD	AC,[200777,,-1
  8042	036710	110 04 0 00 044227 			-1,,-1]
  8043	036711	312 04 0 00 044231 		CAME	AC,[201400,,0]
  8044	036712	003 04 0 00 001302 		ER3	AC,T
  8045	036713	312 05 0 00 043651 		CAME	AC+1,[0,,ZZ]
  8046	036714	004 05 0 00 001302 		ER4	AC+1,T
  8047	036715	321 10 0 00 036707 		JUMPL	AC+4,.-^D6	;LOOP ON ERROR SWITCH^
  8048
  8049
  8050			001303		T=T+1
  8051			000002			ZZ=XX
  8052			000004			XX=XX+XX
  8053						IFE	XX,<XX=1>
  8054						DFARP	T,200000,0,0,XX,200777,-1,-1,-1,201400,0,0,ZZ^
  8055						DMOVE	AC,[200000,,0
  8056	036716	120 04 0 00 043642 			0,,XX]
  8057						DFAD	AC,[200777,,-1DBKCD 	PDP-10 KI10 ADVANCED INSTRUCTION DIAGNOSTIC #4, VERSION 0,3 	MACRO %52(462) 12:35  9-AUG-76 PAGE 9-1
DBKCDM	MAC	26-MAY-76 16:52		TEST AR, ARX, AD, ADX AND NORMALIZE LOGIC FOR DOUBLE FLOATING POINT OPERATIONS     SEQ 0166

  8058	036717	110 04 0 00 044227 			-1,,-1]
  8059	036720	312 04 0 00 044231 		CAME	AC,[201400,,0]
  8060	036721	003 04 0 00 001303 		ER3	AC,T
  8061	036722	312 05 0 00 043646 		CAME	AC+1,[0,,ZZ]
  8062	036723	004 05 0 00 001303 		ER4	AC+1,T
  8063	036724	321 10 0 00 036716 		JUMPL	AC+4,.-^D6	;LOOP ON ERROR SWITCH^
  8064
  8065
  8066			001304		T=T+1
  8067			000004			ZZ=XX
  8068			000010			XX=XX+XX
  8069						IFE	XX,<XX=1>
  8070						DFARP	T,200000,0,0,XX,200777,-1,-1,-1,201400,0,0,ZZ^
  8071						DMOVE	AC,[200000,,0
  8072	036725	120 04 0 00 043637 			0,,XX]
  8073						DFAD	AC,[200777,,-1
  8074	036726	110 04 0 00 044227 			-1,,-1]
  8075	036727	312 04 0 00 044231 		CAME	AC,[201400,,0]
  8076	036730	003 04 0 00 001304 		ER3	AC,T
  8077	036731	312 05 0 00 043643 		CAME	AC+1,[0,,ZZ]
  8078	036732	004 05 0 00 001304 		ER4	AC+1,T
  8079	036733	321 10 0 00 036725 		JUMPL	AC+4,.-^D6	;LOOP ON ERROR SWITCH^
  8080
  8081
  8082			001305		T=T+1
  8083			000010			ZZ=XX
  8084			000020			XX=XX+XX
  8085						IFE	XX,<XX=1>
  8086						DFARP	T,200000,0,0,XX,200777,-1,-1,-1,201400,0,0,ZZ^
  8087						DMOVE	AC,[200000,,0
  8088	036734	120 04 0 00 043634 			0,,XX]
  8089						DFAD	AC,[200777,,-1
  8090	036735	110 04 0 00 044227 			-1,,-1]
  8091	036736	312 04 0 00 044231 		CAME	AC,[201400,,0]
  8092	036737	003 04 0 00 001305 		ER3	AC,T
  8093	036740	312 05 0 00 043640 		CAME	AC+1,[0,,ZZ]
  8094	036741	004 05 0 00 001305 		ER4	AC+1,T
  8095	036742	321 10 0 00 036734 		JUMPL	AC+4,.-^D6	;LOOP ON ERROR SWITCH^
  8096
  8097
  8098			001306		T=T+1
  8099			000020			ZZ=XX
  8100			000040			XX=XX+XX
  8101						IFE	XX,<XX=1>
  8102						DFARP	T,200000,0,0,XX,200777,-1,-1,-1,201400,0,0,ZZ^
  8103						DMOVE	AC,[200000,,0
  8104	036743	120 04 0 00 043631 			0,,XX]
  8105						DFAD	AC,[200777,,-1
  8106	036744	110 04 0 00 044227 			-1,,-1]
  8107	036745	312 04 0 00 044231 		CAME	AC,[201400,,0]
  8108	036746	003 04 0 00 001306 		ER3	AC,T
  8109	036747	312 05 0 00 043635 		CAME	AC+1,[0,,ZZ]
  8110	036750	004 05 0 00 001306 		ER4	AC+1,T
  8111	036751	321 10 0 00 036743 		JUMPL	AC+4,.-^D6	;LOOP ON ERROR SWITCH^
  8112DBKCD 	PDP-10 KI10 ADVANCED INSTRUCTION DIAGNOSTIC #4, VERSION 0,3 	MACRO %52(462) 12:35  9-AUG-76 PAGE 9-2
DBKCDM	MAC	26-MAY-76 16:52		TEST AR, ARX, AD, ADX AND NORMALIZE LOGIC FOR DOUBLE FLOATING POINT OPERATIONS     SEQ 0167

  8113
  8114			001307		T=T+1
  8115			000040			ZZ=XX
  8116			000100			XX=XX+XX
  8117						IFE	XX,<XX=1>
  8118						DFARP	T,200000,0,0,XX,200777,-1,-1,-1,201400,0,0,ZZ^
  8119						DMOVE	AC,[200000,,0
  8120	036752	120 04 0 00 043626 			0,,XX]
  8121						DFAD	AC,[200777,,-1
  8122	036753	110 04 0 00 044227 			-1,,-1]
  8123	036754	312 04 0 00 044231 		CAME	AC,[201400,,0]
  8124	036755	003 04 0 00 001307 		ER3	AC,T
  8125	036756	312 05 0 00 043632 		CAME	AC+1,[0,,ZZ]
  8126	036757	004 05 0 00 001307 		ER4	AC+1,T
  8127	036760	321 10 0 00 036752 		JUMPL	AC+4,.-^D6	;LOOP ON ERROR SWITCH^
  8128
  8129
  8130			001310		T=T+1
  8131			000100			ZZ=XX
  8132			000200			XX=XX+XX
  8133						IFE	XX,<XX=1>
  8134						DFARP	T,200000,0,0,XX,200777,-1,-1,-1,201400,0,0,ZZ^
  8135						DMOVE	AC,[200000,,0
  8136	036761	120 04 0 00 043623 			0,,XX]
  8137						DFAD	AC,[200777,,-1
  8138	036762	110 04 0 00 044227 			-1,,-1]
  8139	036763	312 04 0 00 044231 		CAME	AC,[201400,,0]
  8140	036764	003 04 0 00 001310 		ER3	AC,T
  8141	036765	312 05 0 00 043627 		CAME	AC+1,[0,,ZZ]
  8142	036766	004 05 0 00 001310 		ER4	AC+1,T
  8143	036767	321 10 0 00 036761 		JUMPL	AC+4,.-^D6	;LOOP ON ERROR SWITCH^
  8144
  8145
  8146			001311		T=T+1
  8147			000200			ZZ=XX
  8148			000400			XX=XX+XX
  8149						IFE	XX,<XX=1>
  8150						DFARP	T,200000,0,0,XX,200777,-1,-1,-1,201400,0,0,ZZ^
  8151						DMOVE	AC,[200000,,0
  8152	036770	120 04 0 00 043620 			0,,XX]
  8153						DFAD	AC,[200777,,-1
  8154	036771	110 04 0 00 044227 			-1,,-1]
  8155	036772	312 04 0 00 044231 		CAME	AC,[201400,,0]
  8156	036773	003 04 0 00 001311 		ER3	AC,T
  8157	036774	312 05 0 00 043624 		CAME	AC+1,[0,,ZZ]
  8158	036775	004 05 0 00 001311 		ER4	AC+1,T
  8159	036776	321 10 0 00 036770 		JUMPL	AC+4,.-^D6	;LOOP ON ERROR SWITCH^
  8160
  8161
  8162			001312		T=T+1
  8163			000400			ZZ=XX
  8164			001000			XX=XX+XX
  8165						IFE	XX,<XX=1>
  8166						DFARP	T,200000,0,0,XX,200777,-1,-1,-1,201400,0,0,ZZ^
  8167						DMOVE	AC,[200000,,0DBKCD 	PDP-10 KI10 ADVANCED INSTRUCTION DIAGNOSTIC #4, VERSION 0,3 	MACRO %52(462) 12:35  9-AUG-76 PAGE 9-3
DBKCDM	MAC	26-MAY-76 16:52		TEST AR, ARX, AD, ADX AND NORMALIZE LOGIC FOR DOUBLE FLOATING POINT OPERATIONS     SEQ 0168

  8168	036777	120 04 0 00 043615 			0,,XX]
  8169						DFAD	AC,[200777,,-1
  8170	037000	110 04 0 00 044227 			-1,,-1]
  8171	037001	312 04 0 00 044231 		CAME	AC,[201400,,0]
  8172	037002	003 04 0 00 001312 		ER3	AC,T
  8173	037003	312 05 0 00 043621 		CAME	AC+1,[0,,ZZ]
  8174	037004	004 05 0 00 001312 		ER4	AC+1,T
  8175	037005	321 10 0 00 036777 		JUMPL	AC+4,.-^D6	;LOOP ON ERROR SWITCH^
  8176
  8177
  8178			001313		T=T+1
  8179			001000			ZZ=XX
  8180			002000			XX=XX+XX
  8181						IFE	XX,<XX=1>
  8182						DFARP	T,200000,0,0,XX,200777,-1,-1,-1,201400,0,0,ZZ^
  8183						DMOVE	AC,[200000,,0
  8184	037006	120 04 0 00 043612 			0,,XX]
  8185						DFAD	AC,[200777,,-1
  8186	037007	110 04 0 00 044227 			-1,,-1]
  8187	037010	312 04 0 00 044231 		CAME	AC,[201400,,0]
  8188	037011	003 04 0 00 001313 		ER3	AC,T
  8189	037012	312 05 0 00 043616 		CAME	AC+1,[0,,ZZ]
  8190	037013	004 05 0 00 001313 		ER4	AC+1,T
  8191	037014	321 10 0 00 037006 		JUMPL	AC+4,.-^D6	;LOOP ON ERROR SWITCH^
  8192
  8193
  8194			001314		T=T+1
  8195			002000			ZZ=XX
  8196			004000			XX=XX+XX
  8197						IFE	XX,<XX=1>
  8198						DFARP	T,200000,0,0,XX,200777,-1,-1,-1,201400,0,0,ZZ^
  8199						DMOVE	AC,[200000,,0
  8200	037015	120 04 0 00 043607 			0,,XX]
  8201						DFAD	AC,[200777,,-1
  8202	037016	110 04 0 00 044227 			-1,,-1]
  8203	037017	312 04 0 00 044231 		CAME	AC,[201400,,0]
  8204	037020	003 04 0 00 001314 		ER3	AC,T
  8205	037021	312 05 0 00 043613 		CAME	AC+1,[0,,ZZ]
  8206	037022	004 05 0 00 001314 		ER4	AC+1,T
  8207	037023	321 10 0 00 037015 		JUMPL	AC+4,.-^D6	;LOOP ON ERROR SWITCH^
  8208
  8209
  8210			001315		T=T+1
  8211			004000			ZZ=XX
  8212			010000			XX=XX+XX
  8213						IFE	XX,<XX=1>
  8214						DFARP	T,200000,0,0,XX,200777,-1,-1,-1,201400,0,0,ZZ^
  8215						DMOVE	AC,[200000,,0
  8216	037024	120 04 0 00 043604 			0,,XX]
  8217						DFAD	AC,[200777,,-1
  8218	037025	110 04 0 00 044227 			-1,,-1]
  8219	037026	312 04 0 00 044231 		CAME	AC,[201400,,0]
  8220	037027	003 04 0 00 001315 		ER3	AC,T
  8221	037030	312 05 0 00 043610 		CAME	AC+1,[0,,ZZ]
  8222	037031	004 05 0 00 001315 		ER4	AC+1,TDBKCD 	PDP-10 KI10 ADVANCED INSTRUCTION DIAGNOSTIC #4, VERSION 0,3 	MACRO %52(462) 12:35  9-AUG-76 PAGE 9-4
DBKCDM	MAC	26-MAY-76 16:52		TEST AR, ARX, AD, ADX AND NORMALIZE LOGIC FOR DOUBLE FLOATING POINT OPERATIONS     SEQ 0169

  8223	037032	321 10 0 00 037024 		JUMPL	AC+4,.-^D6	;LOOP ON ERROR SWITCH^
  8224
  8225
  8226			001316		T=T+1
  8227			010000			ZZ=XX
  8228			020000			XX=XX+XX
  8229						IFE	XX,<XX=1>
  8230						DFARP	T,200000,0,0,XX,200777,-1,-1,-1,201400,0,0,ZZ^
  8231						DMOVE	AC,[200000,,0
  8232	037033	120 04 0 00 043601 			0,,XX]
  8233						DFAD	AC,[200777,,-1
  8234	037034	110 04 0 00 044227 			-1,,-1]
  8235	037035	312 04 0 00 044231 		CAME	AC,[201400,,0]
  8236	037036	003 04 0 00 001316 		ER3	AC,T
  8237	037037	312 05 0 00 043605 		CAME	AC+1,[0,,ZZ]
  8238	037040	004 05 0 00 001316 		ER4	AC+1,T
  8239	037041	321 10 0 00 037033 		JUMPL	AC+4,.-^D6	;LOOP ON ERROR SWITCH^
  8240
  8241
  8242			001317		T=T+1
  8243			020000			ZZ=XX
  8244			040000			XX=XX+XX
  8245						IFE	XX,<XX=1>
  8246						DFARP	T,200000,0,0,XX,200777,-1,-1,-1,201400,0,0,ZZ^
  8247						DMOVE	AC,[200000,,0
  8248	037042	120 04 0 00 043576 			0,,XX]
  8249						DFAD	AC,[200777,,-1
  8250	037043	110 04 0 00 044227 			-1,,-1]
  8251	037044	312 04 0 00 044231 		CAME	AC,[201400,,0]
  8252	037045	003 04 0 00 001317 		ER3	AC,T
  8253	037046	312 05 0 00 043602 		CAME	AC+1,[0,,ZZ]
  8254	037047	004 05 0 00 001317 		ER4	AC+1,T
  8255	037050	321 10 0 00 037042 		JUMPL	AC+4,.-^D6	;LOOP ON ERROR SWITCH^
  8256
  8257
  8258			001320		T=T+1
  8259			040000			ZZ=XX
  8260			100000			XX=XX+XX
  8261						IFE	XX,<XX=1>
  8262						DFARP	T,200000,0,0,XX,200777,-1,-1,-1,201400,0,0,ZZ^
  8263						DMOVE	AC,[200000,,0
  8264	037051	120 04 0 00 043573 			0,,XX]
  8265						DFAD	AC,[200777,,-1
  8266	037052	110 04 0 00 044227 			-1,,-1]
  8267	037053	312 04 0 00 044231 		CAME	AC,[201400,,0]
  8268	037054	003 04 0 00 001320 		ER3	AC,T
  8269	037055	312 05 0 00 043577 		CAME	AC+1,[0,,ZZ]
  8270	037056	004 05 0 00 001320 		ER4	AC+1,T
  8271	037057	321 10 0 00 037051 		JUMPL	AC+4,.-^D6	;LOOP ON ERROR SWITCH^
  8272
  8273
  8274			001321		T=T+1
  8275			100000			ZZ=XX
  8276			200000			XX=XX+XX
  8277						IFE	XX,<XX=1>DBKCD 	PDP-10 KI10 ADVANCED INSTRUCTION DIAGNOSTIC #4, VERSION 0,3 	MACRO %52(462) 12:35  9-AUG-76 PAGE 9-5
DBKCDM	MAC	26-MAY-76 16:52		TEST AR, ARX, AD, ADX AND NORMALIZE LOGIC FOR DOUBLE FLOATING POINT OPERATIONS     SEQ 0170

  8278						DFARP	T,200000,0,0,XX,200777,-1,-1,-1,201400,0,0,ZZ^
  8279						DMOVE	AC,[200000,,0
  8280	037060	120 04 0 00 043570 			0,,XX]
  8281						DFAD	AC,[200777,,-1
  8282	037061	110 04 0 00 044227 			-1,,-1]
  8283	037062	312 04 0 00 044231 		CAME	AC,[201400,,0]
  8284	037063	003 04 0 00 001321 		ER3	AC,T
  8285	037064	312 05 0 00 043574 		CAME	AC+1,[0,,ZZ]
  8286	037065	004 05 0 00 001321 		ER4	AC+1,T
  8287	037066	321 10 0 00 037060 		JUMPL	AC+4,.-^D6	;LOOP ON ERROR SWITCH^
  8288
  8289
  8290			001322		T=T+1
  8291			200000			ZZ=XX
  8292			400000			XX=XX+XX
  8293						IFE	XX,<XX=1>
  8294						DFARP	T,200000,0,0,XX,200777,-1,-1,-1,201400,0,0,ZZ^
  8295						DMOVE	AC,[200000,,0
  8296	037067	120 04 0 00 043565 			0,,XX]
  8297						DFAD	AC,[200777,,-1
  8298	037070	110 04 0 00 044227 			-1,,-1]
  8299	037071	312 04 0 00 044231 		CAME	AC,[201400,,0]
  8300	037072	003 04 0 00 001322 		ER3	AC,T
  8301	037073	312 05 0 00 043571 		CAME	AC+1,[0,,ZZ]
  8302	037074	004 05 0 00 001322 		ER4	AC+1,T
  8303	037075	321 10 0 00 037067 		JUMPL	AC+4,.-^D6	;LOOP ON ERROR SWITCH^
  8304
  8305
  8306			400000			ZZ=XX
  8307			000001			XX=1
  8308
  8309			001323		T=T+1
  8310						DFARP	T,200000,0,XX,0,200777,-1,-1,-1,201400,0,0,ZZ^
  8311						DMOVE	AC,[200000,,0
  8312	037076	120 04 0 00 043562 			XX,,0]
  8313						DFAD	AC,[200777,,-1
  8314	037077	110 04 0 00 044227 			-1,,-1]
  8315	037100	312 04 0 00 044231 		CAME	AC,[201400,,0]
  8316	037101	003 04 0 00 001323 		ER3	AC,T
  8317	037102	312 05 0 00 043566 		CAME	AC+1,[0,,ZZ]
  8318	037103	004 05 0 00 001323 		ER4	AC+1,T
  8319	037104	321 10 0 00 037076 		JUMPL	AC+4,.-^D6	;LOOP ON ERROR SWITCH^
  8320
  8321
  8322
  8323						REPEAT	^D16,<
  8324					T=T+1
  8325						ZZ=XX
  8326						XX=XX+XX
  8327						DFARP	T,200000,0,XX,0,200777,-1,-1,-1,201400,0,ZZ,0
  8328					>
  8329
  8330			001324		T=T+1
  8331			000001			ZZ=XX
  8332			000002			XX=XX+XXDBKCD 	PDP-10 KI10 ADVANCED INSTRUCTION DIAGNOSTIC #4, VERSION 0,3 	MACRO %52(462) 12:35  9-AUG-76 PAGE 9-6
DBKCDM	MAC	26-MAY-76 16:52		TEST AR, ARX, AD, ADX AND NORMALIZE LOGIC FOR DOUBLE FLOATING POINT OPERATIONS     SEQ 0171

  8333						DFARP	T,200000,0,XX,0,200777,-1,-1,-1,201400,0,ZZ,0^
  8334						DMOVE	AC,[200000,,0
  8335	037105	120 04 0 00 043557 			XX,,0]
  8336						DFAD	AC,[200777,,-1
  8337	037106	110 04 0 00 044227 			-1,,-1]
  8338	037107	312 04 0 00 044231 		CAME	AC,[201400,,0]
  8339	037110	003 04 0 00 001324 		ER3	AC,T
  8340	037111	312 05 0 00 043563 		CAME	AC+1,[ZZ,,0]
  8341	037112	004 05 0 00 001324 		ER4	AC+1,T
  8342	037113	321 10 0 00 037105 		JUMPL	AC+4,.-^D6	;LOOP ON ERROR SWITCH^
  8343
  8344
  8345			001325		T=T+1
  8346			000002			ZZ=XX
  8347			000004			XX=XX+XX
  8348						DFARP	T,200000,0,XX,0,200777,-1,-1,-1,201400,0,ZZ,0^
  8349						DMOVE	AC,[200000,,0
  8350	037114	120 04 0 00 043554 			XX,,0]
  8351						DFAD	AC,[200777,,-1
  8352	037115	110 04 0 00 044227 			-1,,-1]
  8353	037116	312 04 0 00 044231 		CAME	AC,[201400,,0]
  8354	037117	003 04 0 00 001325 		ER3	AC,T
  8355	037120	312 05 0 00 043560 		CAME	AC+1,[ZZ,,0]
  8356	037121	004 05 0 00 001325 		ER4	AC+1,T
  8357	037122	321 10 0 00 037114 		JUMPL	AC+4,.-^D6	;LOOP ON ERROR SWITCH^
  8358
  8359
  8360			001326		T=T+1
  8361			000004			ZZ=XX
  8362			000010			XX=XX+XX
  8363						DFARP	T,200000,0,XX,0,200777,-1,-1,-1,201400,0,ZZ,0^
  8364						DMOVE	AC,[200000,,0
  8365	037123	120 04 0 00 043551 			XX,,0]
  8366						DFAD	AC,[200777,,-1
  8367	037124	110 04 0 00 044227 			-1,,-1]
  8368	037125	312 04 0 00 044231 		CAME	AC,[201400,,0]
  8369	037126	003 04 0 00 001326 		ER3	AC,T
  8370	037127	312 05 0 00 043555 		CAME	AC+1,[ZZ,,0]
  8371	037130	004 05 0 00 001326 		ER4	AC+1,T
  8372	037131	321 10 0 00 037123 		JUMPL	AC+4,.-^D6	;LOOP ON ERROR SWITCH^
  8373
  8374
  8375			001327		T=T+1
  8376			000010			ZZ=XX
  8377			000020			XX=XX+XX
  8378						DFARP	T,200000,0,XX,0,200777,-1,-1,-1,201400,0,ZZ,0^
  8379						DMOVE	AC,[200000,,0
  8380	037132	120 04 0 00 043546 			XX,,0]
  8381						DFAD	AC,[200777,,-1
  8382	037133	110 04 0 00 044227 			-1,,-1]
  8383	037134	312 04 0 00 044231 		CAME	AC,[201400,,0]
  8384	037135	003 04 0 00 001327 		ER3	AC,T
  8385	037136	312 05 0 00 043552 		CAME	AC+1,[ZZ,,0]
  8386	037137	004 05 0 00 001327 		ER4	AC+1,T
  8387	037140	321 10 0 00 037132 		JUMPL	AC+4,.-^D6	;LOOP ON ERROR SWITCH^DBKCD 	PDP-10 KI10 ADVANCED INSTRUCTION DIAGNOSTIC #4, VERSION 0,3 	MACRO %52(462) 12:35  9-AUG-76 PAGE 9-7
DBKCDM	MAC	26-MAY-76 16:52		TEST AR, ARX, AD, ADX AND NORMALIZE LOGIC FOR DOUBLE FLOATING POINT OPERATIONS     SEQ 0172

  8388
  8389
  8390			001330		T=T+1
  8391			000020			ZZ=XX
  8392			000040			XX=XX+XX
  8393						DFARP	T,200000,0,XX,0,200777,-1,-1,-1,201400,0,ZZ,0^
  8394						DMOVE	AC,[200000,,0
  8395	037141	120 04 0 00 043543 			XX,,0]
  8396						DFAD	AC,[200777,,-1
  8397	037142	110 04 0 00 044227 			-1,,-1]
  8398	037143	312 04 0 00 044231 		CAME	AC,[201400,,0]
  8399	037144	003 04 0 00 001330 		ER3	AC,T
  8400	037145	312 05 0 00 043547 		CAME	AC+1,[ZZ,,0]
  8401	037146	004 05 0 00 001330 		ER4	AC+1,T
  8402	037147	321 10 0 00 037141 		JUMPL	AC+4,.-^D6	;LOOP ON ERROR SWITCH^
  8403
  8404
  8405			001331		T=T+1
  8406			000040			ZZ=XX
  8407			000100			XX=XX+XX
  8408						DFARP	T,200000,0,XX,0,200777,-1,-1,-1,201400,0,ZZ,0^
  8409						DMOVE	AC,[200000,,0
  8410	037150	120 04 0 00 043540 			XX,,0]
  8411						DFAD	AC,[200777,,-1
  8412	037151	110 04 0 00 044227 			-1,,-1]
  8413	037152	312 04 0 00 044231 		CAME	AC,[201400,,0]
  8414	037153	003 04 0 00 001331 		ER3	AC,T
  8415	037154	312 05 0 00 043544 		CAME	AC+1,[ZZ,,0]
  8416	037155	004 05 0 00 001331 		ER4	AC+1,T
  8417	037156	321 10 0 00 037150 		JUMPL	AC+4,.-^D6	;LOOP ON ERROR SWITCH^
  8418
  8419
  8420			001332		T=T+1
  8421			000100			ZZ=XX
  8422			000200			XX=XX+XX
  8423						DFARP	T,200000,0,XX,0,200777,-1,-1,-1,201400,0,ZZ,0^
  8424						DMOVE	AC,[200000,,0
  8425	037157	120 04 0 00 043535 			XX,,0]
  8426						DFAD	AC,[200777,,-1
  8427	037160	110 04 0 00 044227 			-1,,-1]
  8428	037161	312 04 0 00 044231 		CAME	AC,[201400,,0]
  8429	037162	003 04 0 00 001332 		ER3	AC,T
  8430	037163	312 05 0 00 043541 		CAME	AC+1,[ZZ,,0]
  8431	037164	004 05 0 00 001332 		ER4	AC+1,T
  8432	037165	321 10 0 00 037157 		JUMPL	AC+4,.-^D6	;LOOP ON ERROR SWITCH^
  8433
  8434
  8435			001333		T=T+1
  8436			000200			ZZ=XX
  8437			000400			XX=XX+XX
  8438						DFARP	T,200000,0,XX,0,200777,-1,-1,-1,201400,0,ZZ,0^
  8439						DMOVE	AC,[200000,,0
  8440	037166	120 04 0 00 043532 			XX,,0]
  8441						DFAD	AC,[200777,,-1
  8442	037167	110 04 0 00 044227 			-1,,-1]DBKCD 	PDP-10 KI10 ADVANCED INSTRUCTION DIAGNOSTIC #4, VERSION 0,3 	MACRO %52(462) 12:35  9-AUG-76 PAGE 9-8
DBKCDM	MAC	26-MAY-76 16:52		TEST AR, ARX, AD, ADX AND NORMALIZE LOGIC FOR DOUBLE FLOATING POINT OPERATIONS     SEQ 0173

  8443	037170	312 04 0 00 044231 		CAME	AC,[201400,,0]
  8444	037171	003 04 0 00 001333 		ER3	AC,T
  8445	037172	312 05 0 00 043536 		CAME	AC+1,[ZZ,,0]
  8446	037173	004 05 0 00 001333 		ER4	AC+1,T
  8447	037174	321 10 0 00 037166 		JUMPL	AC+4,.-^D6	;LOOP ON ERROR SWITCH^
  8448
  8449
  8450			001334		T=T+1
  8451			000400			ZZ=XX
  8452			001000			XX=XX+XX
  8453						DFARP	T,200000,0,XX,0,200777,-1,-1,-1,201400,0,ZZ,0^
  8454						DMOVE	AC,[200000,,0
  8455	037175	120 04 0 00 043527 			XX,,0]
  8456						DFAD	AC,[200777,,-1
  8457	037176	110 04 0 00 044227 			-1,,-1]
  8458	037177	312 04 0 00 044231 		CAME	AC,[201400,,0]
  8459	037200	003 04 0 00 001334 		ER3	AC,T
  8460	037201	312 05 0 00 043533 		CAME	AC+1,[ZZ,,0]
  8461	037202	004 05 0 00 001334 		ER4	AC+1,T
  8462	037203	321 10 0 00 037175 		JUMPL	AC+4,.-^D6	;LOOP ON ERROR SWITCH^
  8463
  8464
  8465			001335		T=T+1
  8466			001000			ZZ=XX
  8467			002000			XX=XX+XX
  8468						DFARP	T,200000,0,XX,0,200777,-1,-1,-1,201400,0,ZZ,0^
  8469						DMOVE	AC,[200000,,0
  8470	037204	120 04 0 00 043524 			XX,,0]
  8471						DFAD	AC,[200777,,-1
  8472	037205	110 04 0 00 044227 			-1,,-1]
  8473	037206	312 04 0 00 044231 		CAME	AC,[201400,,0]
  8474	037207	003 04 0 00 001335 		ER3	AC,T
  8475	037210	312 05 0 00 043530 		CAME	AC+1,[ZZ,,0]
  8476	037211	004 05 0 00 001335 		ER4	AC+1,T
  8477	037212	321 10 0 00 037204 		JUMPL	AC+4,.-^D6	;LOOP ON ERROR SWITCH^
  8478
  8479
  8480			001336		T=T+1
  8481			002000			ZZ=XX
  8482			004000			XX=XX+XX
  8483						DFARP	T,200000,0,XX,0,200777,-1,-1,-1,201400,0,ZZ,0^
  8484						DMOVE	AC,[200000,,0
  8485	037213	120 04 0 00 043521 			XX,,0]
  8486						DFAD	AC,[200777,,-1
  8487	037214	110 04 0 00 044227 			-1,,-1]
  8488	037215	312 04 0 00 044231 		CAME	AC,[201400,,0]
  8489	037216	003 04 0 00 001336 		ER3	AC,T
  8490	037217	312 05 0 00 043525 		CAME	AC+1,[ZZ,,0]
  8491	037220	004 05 0 00 001336 		ER4	AC+1,T
  8492	037221	321 10 0 00 037213 		JUMPL	AC+4,.-^D6	;LOOP ON ERROR SWITCH^
  8493
  8494
  8495			001337		T=T+1
  8496			004000			ZZ=XX
  8497			010000			XX=XX+XXDBKCD 	PDP-10 KI10 ADVANCED INSTRUCTION DIAGNOSTIC #4, VERSION 0,3 	MACRO %52(462) 12:35  9-AUG-76 PAGE 9-9
DBKCDM	MAC	26-MAY-76 16:52		TEST AR, ARX, AD, ADX AND NORMALIZE LOGIC FOR DOUBLE FLOATING POINT OPERATIONS     SEQ 0174

  8498						DFARP	T,200000,0,XX,0,200777,-1,-1,-1,201400,0,ZZ,0^
  8499						DMOVE	AC,[200000,,0
  8500	037222	120 04 0 00 043516 			XX,,0]
  8501						DFAD	AC,[200777,,-1
  8502	037223	110 04 0 00 044227 			-1,,-1]
  8503	037224	312 04 0 00 044231 		CAME	AC,[201400,,0]
  8504	037225	003 04 0 00 001337 		ER3	AC,T
  8505	037226	312 05 0 00 043522 		CAME	AC+1,[ZZ,,0]
  8506	037227	004 05 0 00 001337 		ER4	AC+1,T
  8507	037230	321 10 0 00 037222 		JUMPL	AC+4,.-^D6	;LOOP ON ERROR SWITCH^
  8508
  8509
  8510			001340		T=T+1
  8511			010000			ZZ=XX
  8512			020000			XX=XX+XX
  8513						DFARP	T,200000,0,XX,0,200777,-1,-1,-1,201400,0,ZZ,0^
  8514						DMOVE	AC,[200000,,0
  8515	037231	120 04 0 00 043513 			XX,,0]
  8516						DFAD	AC,[200777,,-1
  8517	037232	110 04 0 00 044227 			-1,,-1]
  8518	037233	312 04 0 00 044231 		CAME	AC,[201400,,0]
  8519	037234	003 04 0 00 001340 		ER3	AC,T
  8520	037235	312 05 0 00 043517 		CAME	AC+1,[ZZ,,0]
  8521	037236	004 05 0 00 001340 		ER4	AC+1,T
  8522	037237	321 10 0 00 037231 		JUMPL	AC+4,.-^D6	;LOOP ON ERROR SWITCH^
  8523
  8524
  8525			001341		T=T+1
  8526			020000			ZZ=XX
  8527			040000			XX=XX+XX
  8528						DFARP	T,200000,0,XX,0,200777,-1,-1,-1,201400,0,ZZ,0^
  8529						DMOVE	AC,[200000,,0
  8530	037240	120 04 0 00 043510 			XX,,0]
  8531						DFAD	AC,[200777,,-1
  8532	037241	110 04 0 00 044227 			-1,,-1]
  8533	037242	312 04 0 00 044231 		CAME	AC,[201400,,0]
  8534	037243	003 04 0 00 001341 		ER3	AC,T
  8535	037244	312 05 0 00 043514 		CAME	AC+1,[ZZ,,0]
  8536	037245	004 05 0 00 001341 		ER4	AC+1,T
  8537	037246	321 10 0 00 037240 		JUMPL	AC+4,.-^D6	;LOOP ON ERROR SWITCH^
  8538
  8539
  8540			001342		T=T+1
  8541			040000			ZZ=XX
  8542			100000			XX=XX+XX
  8543						DFARP	T,200000,0,XX,0,200777,-1,-1,-1,201400,0,ZZ,0^
  8544						DMOVE	AC,[200000,,0
  8545	037247	120 04 0 00 043505 			XX,,0]
  8546						DFAD	AC,[200777,,-1
  8547	037250	110 04 0 00 044227 			-1,,-1]
  8548	037251	312 04 0 00 044231 		CAME	AC,[201400,,0]
  8549	037252	003 04 0 00 001342 		ER3	AC,T
  8550	037253	312 05 0 00 043511 		CAME	AC+1,[ZZ,,0]
  8551	037254	004 05 0 00 001342 		ER4	AC+1,T
  8552	037255	321 10 0 00 037247 		JUMPL	AC+4,.-^D6	;LOOP ON ERROR SWITCH^DBKCD 	PDP-10 KI10 ADVANCED INSTRUCTION DIAGNOSTIC #4, VERSION 0,3 	MACRO %52(462) 12:35  9-AUG-76 PAGE 9-10
DBKCDM	MAC	26-MAY-76 16:52		TEST AR, ARX, AD, ADX AND NORMALIZE LOGIC FOR DOUBLE FLOATING POINT OPERATIONS     SEQ 0175

  8553
  8554
  8555			001343		T=T+1
  8556			100000			ZZ=XX
  8557			200000			XX=XX+XX
  8558						DFARP	T,200000,0,XX,0,200777,-1,-1,-1,201400,0,ZZ,0^
  8559						DMOVE	AC,[200000,,0
  8560	037256	120 04 0 00 043502 			XX,,0]
  8561						DFAD	AC,[200777,,-1
  8562	037257	110 04 0 00 044227 			-1,,-1]
  8563	037260	312 04 0 00 044231 		CAME	AC,[201400,,0]
  8564	037261	003 04 0 00 001343 		ER3	AC,T
  8565	037262	312 05 0 00 043506 		CAME	AC+1,[ZZ,,0]
  8566	037263	004 05 0 00 001343 		ER4	AC+1,T
  8567	037264	321 10 0 00 037256 		JUMPL	AC+4,.-^D6	;LOOP ON ERROR SWITCH^
  8568
  8569
  8570
  8571			200000			ZZ=XX
  8572			400000			XX=XX+XX
  8573			001344		T=T+1
  8574						DFARP	T,200000,0,XX,0,200777,-1,-1,-1,200777,-1,377777,-1^
  8575						DMOVE	AC,[200000,,0
  8576	037265	120 04 0 00 043500 			XX,,0]
  8577						DFAD	AC,[200777,,-1
  8578	037266	110 04 0 00 044227 			-1,,-1]
  8579	037267	312 04 0 00 044227 		CAME	AC,[200777,,-1]
  8580	037270	003 04 0 00 001344 		ER3	AC,T
  8581	037271	312 05 0 00 043655 		CAME	AC+1,[377777,,-1]
  8582	037272	004 05 0 00 001344 		ER4	AC+1,T
  8583	037273	321 10 0 00 037265 		JUMPL	AC+4,.-^D6	;LOOP ON ERROR SWITCH^
  8584
  8585
  8586			000001			XX=1
  8587			001345		T=T+1
  8588						DFARP	T,200000,XX,0,0,200777,-1,-1,-1,201400,0,ZZ,0^
  8589						DMOVE	AC,[200000,,XX
  8590	037274	120 04 0 00 043475 			0,,0]
  8591						DFAD	AC,[200777,,-1
  8592	037275	110 04 0 00 044227 			-1,,-1]
  8593	037276	312 04 0 00 044231 		CAME	AC,[201400,,0]
  8594	037277	003 04 0 00 001345 		ER3	AC,T
  8595	037300	312 05 0 00 043356 		CAME	AC+1,[ZZ,,0]
  8596	037301	004 05 0 00 001345 		ER4	AC+1,T
  8597	037302	321 10 0 00 037274 		JUMPL	AC+4,.-^D6	;LOOP ON ERROR SWITCH^
  8598
  8599						REPEAT	^D17,<
  8600					T=T+1
  8601						ZZ=XX
  8602						XX=XX+XX
  8603						DFARP	T,200000,XX,0,0,200777,-1,-1,-1,201400,ZZ,0,0
  8604					>
  8605
  8606			001346		T=T+1
  8607			000001			ZZ=XXDBKCD 	PDP-10 KI10 ADVANCED INSTRUCTION DIAGNOSTIC #4, VERSION 0,3 	MACRO %52(462) 12:35  9-AUG-76 PAGE 9-11
DBKCDM	MAC	26-MAY-76 16:52		TEST AR, ARX, AD, ADX AND NORMALIZE LOGIC FOR DOUBLE FLOATING POINT OPERATIONS     SEQ 0176

  8608			000002			XX=XX+XX
  8609						DFARP	T,200000,XX,0,0,200777,-1,-1,-1,201400,ZZ,0,0^
  8610						DMOVE	AC,[200000,,XX
  8611	037303	120 04 0 00 043472 			0,,0]
  8612						DFAD	AC,[200777,,-1
  8613	037304	110 04 0 00 044227 			-1,,-1]
  8614	037305	312 04 0 00 044232 		CAME	AC,[201400,,ZZ]
  8615	037306	003 04 0 00 001346 		ER3	AC,T
  8616	037307	312 05 0 00 043354 		CAME	AC+1,[0,,0]
  8617	037310	004 05 0 00 001346 		ER4	AC+1,T
  8618	037311	321 10 0 00 037303 		JUMPL	AC+4,.-^D6	;LOOP ON ERROR SWITCH^
  8619
  8620
  8621			001347		T=T+1
  8622			000002			ZZ=XX
  8623			000004			XX=XX+XX
  8624						DFARP	T,200000,XX,0,0,200777,-1,-1,-1,201400,ZZ,0,0^
  8625						DMOVE	AC,[200000,,XX
  8626	037312	120 04 0 00 043467 			0,,0]
  8627						DFAD	AC,[200777,,-1
  8628	037313	110 04 0 00 044227 			-1,,-1]
  8629	037314	312 04 0 00 044233 		CAME	AC,[201400,,ZZ]
  8630	037315	003 04 0 00 001347 		ER3	AC,T
  8631	037316	312 05 0 00 043354 		CAME	AC+1,[0,,0]
  8632	037317	004 05 0 00 001347 		ER4	AC+1,T
  8633	037320	321 10 0 00 037312 		JUMPL	AC+4,.-^D6	;LOOP ON ERROR SWITCH^
  8634
  8635
  8636			001350		T=T+1
  8637			000004			ZZ=XX
  8638			000010			XX=XX+XX
  8639						DFARP	T,200000,XX,0,0,200777,-1,-1,-1,201400,ZZ,0,0^
  8640						DMOVE	AC,[200000,,XX
  8641	037321	120 04 0 00 043464 			0,,0]
  8642						DFAD	AC,[200777,,-1
  8643	037322	110 04 0 00 044227 			-1,,-1]
  8644	037323	312 04 0 00 044234 		CAME	AC,[201400,,ZZ]
  8645	037324	003 04 0 00 001350 		ER3	AC,T
  8646	037325	312 05 0 00 043354 		CAME	AC+1,[0,,0]
  8647	037326	004 05 0 00 001350 		ER4	AC+1,T
  8648	037327	321 10 0 00 037321 		JUMPL	AC+4,.-^D6	;LOOP ON ERROR SWITCH^
  8649
  8650
  8651			001351		T=T+1
  8652			000010			ZZ=XX
  8653			000020			XX=XX+XX
  8654						DFARP	T,200000,XX,0,0,200777,-1,-1,-1,201400,ZZ,0,0^
  8655						DMOVE	AC,[200000,,XX
  8656	037330	120 04 0 00 043461 			0,,0]
  8657						DFAD	AC,[200777,,-1
  8658	037331	110 04 0 00 044227 			-1,,-1]
  8659	037332	312 04 0 00 044235 		CAME	AC,[201400,,ZZ]
  8660	037333	003 04 0 00 001351 		ER3	AC,T
  8661	037334	312 05 0 00 043354 		CAME	AC+1,[0,,0]
  8662	037335	004 05 0 00 001351 		ER4	AC+1,TDBKCD 	PDP-10 KI10 ADVANCED INSTRUCTION DIAGNOSTIC #4, VERSION 0,3 	MACRO %52(462) 12:35  9-AUG-76 PAGE 9-12
DBKCDM	MAC	26-MAY-76 16:52		TEST AR, ARX, AD, ADX AND NORMALIZE LOGIC FOR DOUBLE FLOATING POINT OPERATIONS     SEQ 0177

  8663	037336	321 10 0 00 037330 		JUMPL	AC+4,.-^D6	;LOOP ON ERROR SWITCH^
  8664
  8665
  8666			001352		T=T+1
  8667			000020			ZZ=XX
  8668			000040			XX=XX+XX
  8669						DFARP	T,200000,XX,0,0,200777,-1,-1,-1,201400,ZZ,0,0^
  8670						DMOVE	AC,[200000,,XX
  8671	037337	120 04 0 00 043456 			0,,0]
  8672						DFAD	AC,[200777,,-1
  8673	037340	110 04 0 00 044227 			-1,,-1]
  8674	037341	312 04 0 00 044236 		CAME	AC,[201400,,ZZ]
  8675	037342	003 04 0 00 001352 		ER3	AC,T
  8676	037343	312 05 0 00 043354 		CAME	AC+1,[0,,0]
  8677	037344	004 05 0 00 001352 		ER4	AC+1,T
  8678	037345	321 10 0 00 037337 		JUMPL	AC+4,.-^D6	;LOOP ON ERROR SWITCH^
  8679
  8680
  8681			001353		T=T+1
  8682			000040			ZZ=XX
  8683			000100			XX=XX+XX
  8684						DFARP	T,200000,XX,0,0,200777,-1,-1,-1,201400,ZZ,0,0^
  8685						DMOVE	AC,[200000,,XX
  8686	037346	120 04 0 00 043453 			0,,0]
  8687						DFAD	AC,[200777,,-1
  8688	037347	110 04 0 00 044227 			-1,,-1]
  8689	037350	312 04 0 00 044237 		CAME	AC,[201400,,ZZ]
  8690	037351	003 04 0 00 001353 		ER3	AC,T
  8691	037352	312 05 0 00 043354 		CAME	AC+1,[0,,0]
  8692	037353	004 05 0 00 001353 		ER4	AC+1,T
  8693	037354	321 10 0 00 037346 		JUMPL	AC+4,.-^D6	;LOOP ON ERROR SWITCH^
  8694
  8695
  8696			001354		T=T+1
  8697			000100			ZZ=XX
  8698			000200			XX=XX+XX
  8699						DFARP	T,200000,XX,0,0,200777,-1,-1,-1,201400,ZZ,0,0^
  8700						DMOVE	AC,[200000,,XX
  8701	037355	120 04 0 00 043450 			0,,0]
  8702						DFAD	AC,[200777,,-1
  8703	037356	110 04 0 00 044227 			-1,,-1]
  8704	037357	312 04 0 00 044240 		CAME	AC,[201400,,ZZ]
  8705	037360	003 04 0 00 001354 		ER3	AC,T
  8706	037361	312 05 0 00 043354 		CAME	AC+1,[0,,0]
  8707	037362	004 05 0 00 001354 		ER4	AC+1,T
  8708	037363	321 10 0 00 037355 		JUMPL	AC+4,.-^D6	;LOOP ON ERROR SWITCH^
  8709
  8710
  8711			001355		T=T+1
  8712			000200			ZZ=XX
  8713			000400			XX=XX+XX
  8714						DFARP	T,200000,XX,0,0,200777,-1,-1,-1,201400,ZZ,0,0^
  8715						DMOVE	AC,[200000,,XX
  8716	037364	120 04 0 00 043445 			0,,0]
  8717						DFAD	AC,[200777,,-1DBKCD 	PDP-10 KI10 ADVANCED INSTRUCTION DIAGNOSTIC #4, VERSION 0,3 	MACRO %52(462) 12:35  9-AUG-76 PAGE 9-13
DBKCDM	MAC	26-MAY-76 16:52		TEST AR, ARX, AD, ADX AND NORMALIZE LOGIC FOR DOUBLE FLOATING POINT OPERATIONS     SEQ 0178

  8718	037365	110 04 0 00 044227 			-1,,-1]
  8719	037366	312 04 0 00 044241 		CAME	AC,[201400,,ZZ]
  8720	037367	003 04 0 00 001355 		ER3	AC,T
  8721	037370	312 05 0 00 043354 		CAME	AC+1,[0,,0]
  8722	037371	004 05 0 00 001355 		ER4	AC+1,T
  8723	037372	321 10 0 00 037364 		JUMPL	AC+4,.-^D6	;LOOP ON ERROR SWITCH^
  8724
  8725
  8726			001356		T=T+1
  8727			000400			ZZ=XX
  8728			001000			XX=XX+XX
  8729						DFARP	T,200000,XX,0,0,200777,-1,-1,-1,201400,ZZ,0,0^
  8730						DMOVE	AC,[200000,,XX
  8731	037373	120 04 0 00 043442 			0,,0]
  8732						DFAD	AC,[200777,,-1
  8733	037374	110 04 0 00 044227 			-1,,-1]
  8734	037375	312 04 0 00 044242 		CAME	AC,[201400,,ZZ]
  8735	037376	003 04 0 00 001356 		ER3	AC,T
  8736	037377	312 05 0 00 043354 		CAME	AC+1,[0,,0]
  8737	037400	004 05 0 00 001356 		ER4	AC+1,T
  8738	037401	321 10 0 00 037373 		JUMPL	AC+4,.-^D6	;LOOP ON ERROR SWITCH^
  8739
  8740
  8741			001357		T=T+1
  8742			001000			ZZ=XX
  8743			002000			XX=XX+XX
  8744						DFARP	T,200000,XX,0,0,200777,-1,-1,-1,201400,ZZ,0,0^
  8745						DMOVE	AC,[200000,,XX
  8746	037402	120 04 0 00 043437 			0,,0]
  8747						DFAD	AC,[200777,,-1
  8748	037403	110 04 0 00 044227 			-1,,-1]
  8749	037404	312 04 0 00 044243 		CAME	AC,[201400,,ZZ]
  8750	037405	003 04 0 00 001357 		ER3	AC,T
  8751	037406	312 05 0 00 043354 		CAME	AC+1,[0,,0]
  8752	037407	004 05 0 00 001357 		ER4	AC+1,T
  8753	037410	321 10 0 00 037402 		JUMPL	AC+4,.-^D6	;LOOP ON ERROR SWITCH^
  8754
  8755
  8756			001360		T=T+1
  8757			002000			ZZ=XX
  8758			004000			XX=XX+XX
  8759						DFARP	T,200000,XX,0,0,200777,-1,-1,-1,201400,ZZ,0,0^
  8760						DMOVE	AC,[200000,,XX
  8761	037411	120 04 0 00 043434 			0,,0]
  8762						DFAD	AC,[200777,,-1
  8763	037412	110 04 0 00 044227 			-1,,-1]
  8764	037413	312 04 0 00 044244 		CAME	AC,[201400,,ZZ]
  8765	037414	003 04 0 00 001360 		ER3	AC,T
  8766	037415	312 05 0 00 043354 		CAME	AC+1,[0,,0]
  8767	037416	004 05 0 00 001360 		ER4	AC+1,T
  8768	037417	321 10 0 00 037411 		JUMPL	AC+4,.-^D6	;LOOP ON ERROR SWITCH^
  8769
  8770
  8771			001361		T=T+1
  8772			004000			ZZ=XXDBKCD 	PDP-10 KI10 ADVANCED INSTRUCTION DIAGNOSTIC #4, VERSION 0,3 	MACRO %52(462) 12:35  9-AUG-76 PAGE 9-14
DBKCDM	MAC	26-MAY-76 16:52		TEST AR, ARX, AD, ADX AND NORMALIZE LOGIC FOR DOUBLE FLOATING POINT OPERATIONS     SEQ 0179

  8773			010000			XX=XX+XX
  8774						DFARP	T,200000,XX,0,0,200777,-1,-1,-1,201400,ZZ,0,0^
  8775						DMOVE	AC,[200000,,XX
  8776	037420	120 04 0 00 043431 			0,,0]
  8777						DFAD	AC,[200777,,-1
  8778	037421	110 04 0 00 044227 			-1,,-1]
  8779	037422	312 04 0 00 044245 		CAME	AC,[201400,,ZZ]
  8780	037423	003 04 0 00 001361 		ER3	AC,T
  8781	037424	312 05 0 00 043354 		CAME	AC+1,[0,,0]
  8782	037425	004 05 0 00 001361 		ER4	AC+1,T
  8783	037426	321 10 0 00 037420 		JUMPL	AC+4,.-^D6	;LOOP ON ERROR SWITCH^
  8784
  8785
  8786			001362		T=T+1
  8787			010000			ZZ=XX
  8788			020000			XX=XX+XX
  8789						DFARP	T,200000,XX,0,0,200777,-1,-1,-1,201400,ZZ,0,0^
  8790						DMOVE	AC,[200000,,XX
  8791	037427	120 04 0 00 043426 			0,,0]
  8792						DFAD	AC,[200777,,-1
  8793	037430	110 04 0 00 044227 			-1,,-1]
  8794	037431	312 04 0 00 044246 		CAME	AC,[201400,,ZZ]
  8795	037432	003 04 0 00 001362 		ER3	AC,T
  8796	037433	312 05 0 00 043354 		CAME	AC+1,[0,,0]
  8797	037434	004 05 0 00 001362 		ER4	AC+1,T
  8798	037435	321 10 0 00 037427 		JUMPL	AC+4,.-^D6	;LOOP ON ERROR SWITCH^
  8799
  8800
  8801			001363		T=T+1
  8802			020000			ZZ=XX
  8803			040000			XX=XX+XX
  8804						DFARP	T,200000,XX,0,0,200777,-1,-1,-1,201400,ZZ,0,0^
  8805						DMOVE	AC,[200000,,XX
  8806	037436	120 04 0 00 043423 			0,,0]
  8807						DFAD	AC,[200777,,-1
  8808	037437	110 04 0 00 044227 			-1,,-1]
  8809	037440	312 04 0 00 044247 		CAME	AC,[201400,,ZZ]
  8810	037441	003 04 0 00 001363 		ER3	AC,T
  8811	037442	312 05 0 00 043354 		CAME	AC+1,[0,,0]
  8812	037443	004 05 0 00 001363 		ER4	AC+1,T
  8813	037444	321 10 0 00 037436 		JUMPL	AC+4,.-^D6	;LOOP ON ERROR SWITCH^
  8814
  8815
  8816			001364		T=T+1
  8817			040000			ZZ=XX
  8818			100000			XX=XX+XX
  8819						DFARP	T,200000,XX,0,0,200777,-1,-1,-1,201400,ZZ,0,0^
  8820						DMOVE	AC,[200000,,XX
  8821	037445	120 04 0 00 043420 			0,,0]
  8822						DFAD	AC,[200777,,-1
  8823	037446	110 04 0 00 044227 			-1,,-1]
  8824	037447	312 04 0 00 044250 		CAME	AC,[201400,,ZZ]
  8825	037450	003 04 0 00 001364 		ER3	AC,T
  8826	037451	312 05 0 00 043354 		CAME	AC+1,[0,,0]
  8827	037452	004 05 0 00 001364 		ER4	AC+1,TDBKCD 	PDP-10 KI10 ADVANCED INSTRUCTION DIAGNOSTIC #4, VERSION 0,3 	MACRO %52(462) 12:35  9-AUG-76 PAGE 9-15
DBKCDM	MAC	26-MAY-76 16:52		TEST AR, ARX, AD, ADX AND NORMALIZE LOGIC FOR DOUBLE FLOATING POINT OPERATIONS     SEQ 0180

  8828	037453	321 10 0 00 037445 		JUMPL	AC+4,.-^D6	;LOOP ON ERROR SWITCH^
  8829
  8830
  8831			001365		T=T+1
  8832			100000			ZZ=XX
  8833			200000			XX=XX+XX
  8834						DFARP	T,200000,XX,0,0,200777,-1,-1,-1,201400,ZZ,0,0^
  8835						DMOVE	AC,[200000,,XX
  8836	037454	120 04 0 00 043415 			0,,0]
  8837						DFAD	AC,[200777,,-1
  8838	037455	110 04 0 00 044227 			-1,,-1]
  8839	037456	312 04 0 00 044251 		CAME	AC,[201400,,ZZ]
  8840	037457	003 04 0 00 001365 		ER3	AC,T
  8841	037460	312 05 0 00 043354 		CAME	AC+1,[0,,0]
  8842	037461	004 05 0 00 001365 		ER4	AC+1,T
  8843	037462	321 10 0 00 037454 		JUMPL	AC+4,.-^D6	;LOOP ON ERROR SWITCH^
  8844
  8845
  8846			001366		T=T+1
  8847			200000			ZZ=XX
  8848			400000			XX=XX+XX
  8849						DFARP	T,200000,XX,0,0,200777,-1,-1,-1,201400,ZZ,0,0^
  8850						DMOVE	AC,[200000,,XX
  8851	037463	120 04 0 00 043412 			0,,0]
  8852						DFAD	AC,[200777,,-1
  8853	037464	110 04 0 00 044227 			-1,,-1]
  8854	037465	312 04 0 00 044252 		CAME	AC,[201400,,ZZ]
  8855	037466	003 04 0 00 001366 		ER3	AC,T
  8856	037467	312 05 0 00 043354 		CAME	AC+1,[0,,0]
  8857	037470	004 05 0 00 001366 		ER4	AC+1,T
  8858	037471	321 10 0 00 037463 		JUMPL	AC+4,.-^D6	;LOOP ON ERROR SWITCH^
  8859
  8860
  8861			001367		T=T+1
  8862			400000			ZZ=XX
  8863			000001			XX=1
  8864						DFARP	T,200000+XX,0,0,0,200777,-1,-1,-1,201400,ZZ,0,0^
  8865						DMOVE	AC,[200000+XX,,0
  8866	037472	120 04 0 00 043407 			0,,0]
  8867						DFAD	AC,[200777,,-1
  8868	037473	110 04 0 00 044227 			-1,,-1]
  8869	037474	312 04 0 00 044253 		CAME	AC,[201400,,ZZ]
  8870	037475	003 04 0 00 001367 		ER3	AC,T
  8871	037476	312 05 0 00 043354 		CAME	AC+1,[0,,0]
  8872	037477	004 05 0 00 001367 		ER4	AC+1,T
  8873	037500	321 10 0 00 037472 		JUMPL	AC+4,.-^D6	;LOOP ON ERROR SWITCH^
  8874
  8875						REPEAT	^D8,<
  8876					T=T+1
  8877						ZZ=XX
  8878						XX=XX+XX
  8879						DFARP	T,200000+XX,0,0,0,200777,-1,-1,-1,201400+ZZ,0,0,0
  8880					>DBKCD 	PDP-10 KI10 ADVANCED INSTRUCTION DIAGNOSTIC #4, VERSION 0,3 	MACRO %52(462) 12:35  9-AUG-76 PAGE 10
DBKCDM	MAC	26-MAY-76 16:52		TEST AR, ARX, AD, ADX AND NORMALIZE LOGIC FOR DOUBLE FLOATING POINT OPERATIONS     SEQ 0181

  8881
  8882			001370		T=T+1
  8883			000001			ZZ=XX
  8884			000002			XX=XX+XX
  8885						DFARP	T,200000+XX,0,0,0,200777,-1,-1,-1,201400+ZZ,0,0,0^
  8886						DMOVE	AC,[200000+XX,,0
  8887	037501	120 04 0 00 043404 			0,,0]
  8888						DFAD	AC,[200777,,-1
  8889	037502	110 04 0 00 044227 			-1,,-1]
  8890	037503	312 04 0 00 044254 		CAME	AC,[201400+ZZ,,0]
  8891	037504	003 04 0 00 001370 		ER3	AC,T
  8892	037505	312 05 0 00 043354 		CAME	AC+1,[0,,0]
  8893	037506	004 05 0 00 001370 		ER4	AC+1,T
  8894	037507	321 10 0 00 037501 		JUMPL	AC+4,.-^D6	;LOOP ON ERROR SWITCH^
  8895
  8896
  8897			001371		T=T+1
  8898			000002			ZZ=XX
  8899			000004			XX=XX+XX
  8900						DFARP	T,200000+XX,0,0,0,200777,-1,-1,-1,201400+ZZ,0,0,0^
  8901						DMOVE	AC,[200000+XX,,0
  8902	037510	120 04 0 00 043401 			0,,0]
  8903						DFAD	AC,[200777,,-1
  8904	037511	110 04 0 00 044227 			-1,,-1]
  8905	037512	312 04 0 00 044255 		CAME	AC,[201400+ZZ,,0]
  8906	037513	003 04 0 00 001371 		ER3	AC,T
  8907	037514	312 05 0 00 043354 		CAME	AC+1,[0,,0]
  8908	037515	004 05 0 00 001371 		ER4	AC+1,T
  8909	037516	321 10 0 00 037510 		JUMPL	AC+4,.-^D6	;LOOP ON ERROR SWITCH^
  8910
  8911
  8912			001372		T=T+1
  8913			000004			ZZ=XX
  8914			000010			XX=XX+XX
  8915						DFARP	T,200000+XX,0,0,0,200777,-1,-1,-1,201400+ZZ,0,0,0^
  8916						DMOVE	AC,[200000+XX,,0
  8917	037517	120 04 0 00 043376 			0,,0]
  8918						DFAD	AC,[200777,,-1
  8919	037520	110 04 0 00 044227 			-1,,-1]
  8920	037521	312 04 0 00 044256 		CAME	AC,[201400+ZZ,,0]
  8921	037522	003 04 0 00 001372 		ER3	AC,T
  8922	037523	312 05 0 00 043354 		CAME	AC+1,[0,,0]
  8923	037524	004 05 0 00 001372 		ER4	AC+1,T
  8924	037525	321 10 0 00 037517 		JUMPL	AC+4,.-^D6	;LOOP ON ERROR SWITCH^
  8925
  8926
  8927			001373		T=T+1
  8928			000010			ZZ=XX
  8929			000020			XX=XX+XX
  8930						DFARP	T,200000+XX,0,0,0,200777,-1,-1,-1,201400+ZZ,0,0,0^
  8931						DMOVE	AC,[200000+XX,,0
  8932	037526	120 04 0 00 043373 			0,,0]
  8933						DFAD	AC,[200777,,-1
  8934	037527	110 04 0 00 044227 			-1,,-1]
  8935	037530	312 04 0 00 044257 		CAME	AC,[201400+ZZ,,0]DBKCD 	PDP-10 KI10 ADVANCED INSTRUCTION DIAGNOSTIC #4, VERSION 0,3 	MACRO %52(462) 12:35  9-AUG-76 PAGE 10-1
DBKCDM	MAC	26-MAY-76 16:52		TEST AR, ARX, AD, ADX AND NORMALIZE LOGIC FOR DOUBLE FLOATING POINT OPERATIONS     SEQ 0182

  8936	037531	003 04 0 00 001373 		ER3	AC,T
  8937	037532	312 05 0 00 043354 		CAME	AC+1,[0,,0]
  8938	037533	004 05 0 00 001373 		ER4	AC+1,T
  8939	037534	321 10 0 00 037526 		JUMPL	AC+4,.-^D6	;LOOP ON ERROR SWITCH^
  8940
  8941
  8942			001374		T=T+1
  8943			000020			ZZ=XX
  8944			000040			XX=XX+XX
  8945						DFARP	T,200000+XX,0,0,0,200777,-1,-1,-1,201400+ZZ,0,0,0^
  8946						DMOVE	AC,[200000+XX,,0
  8947	037535	120 04 0 00 043370 			0,,0]
  8948						DFAD	AC,[200777,,-1
  8949	037536	110 04 0 00 044227 			-1,,-1]
  8950	037537	312 04 0 00 044260 		CAME	AC,[201400+ZZ,,0]
  8951	037540	003 04 0 00 001374 		ER3	AC,T
  8952	037541	312 05 0 00 043354 		CAME	AC+1,[0,,0]
  8953	037542	004 05 0 00 001374 		ER4	AC+1,T
  8954	037543	321 10 0 00 037535 		JUMPL	AC+4,.-^D6	;LOOP ON ERROR SWITCH^
  8955
  8956
  8957			001375		T=T+1
  8958			000040			ZZ=XX
  8959			000100			XX=XX+XX
  8960						DFARP	T,200000+XX,0,0,0,200777,-1,-1,-1,201400+ZZ,0,0,0^
  8961						DMOVE	AC,[200000+XX,,0
  8962	037544	120 04 0 00 043365 			0,,0]
  8963						DFAD	AC,[200777,,-1
  8964	037545	110 04 0 00 044227 			-1,,-1]
  8965	037546	312 04 0 00 044261 		CAME	AC,[201400+ZZ,,0]
  8966	037547	003 04 0 00 001375 		ER3	AC,T
  8967	037550	312 05 0 00 043354 		CAME	AC+1,[0,,0]
  8968	037551	004 05 0 00 001375 		ER4	AC+1,T
  8969	037552	321 10 0 00 037544 		JUMPL	AC+4,.-^D6	;LOOP ON ERROR SWITCH^
  8970
  8971
  8972			001376		T=T+1
  8973			000100			ZZ=XX
  8974			000200			XX=XX+XX
  8975						DFARP	T,200000+XX,0,0,0,200777,-1,-1,-1,201400+ZZ,0,0,0^
  8976						DMOVE	AC,[200000+XX,,0
  8977	037553	120 04 0 00 043362 			0,,0]
  8978						DFAD	AC,[200777,,-1
  8979	037554	110 04 0 00 044227 			-1,,-1]
  8980	037555	312 04 0 00 044262 		CAME	AC,[201400+ZZ,,0]
  8981	037556	003 04 0 00 001376 		ER3	AC,T
  8982	037557	312 05 0 00 043354 		CAME	AC+1,[0,,0]
  8983	037560	004 05 0 00 001376 		ER4	AC+1,T
  8984	037561	321 10 0 00 037553 		JUMPL	AC+4,.-^D6	;LOOP ON ERROR SWITCH^
  8985
  8986
  8987			001377		T=T+1
  8988			000200			ZZ=XX
  8989			000400			XX=XX+XX
  8990						DFARP	T,200000+XX,0,0,0,200777,-1,-1,-1,201400+ZZ,0,0,0^DBKCD 	PDP-10 KI10 ADVANCED INSTRUCTION DIAGNOSTIC #4, VERSION 0,3 	MACRO %52(462) 12:35  9-AUG-76 PAGE 10-2
DBKCDM	MAC	26-MAY-76 16:52		TEST AR, ARX, AD, ADX AND NORMALIZE LOGIC FOR DOUBLE FLOATING POINT OPERATIONS     SEQ 0183

  8991						DMOVE	AC,[200000+XX,,0
  8992	037562	120 04 0 00 043360 			0,,0]
  8993						DFAD	AC,[200777,,-1
  8994	037563	110 04 0 00 044227 			-1,,-1]
  8995	037564	312 04 0 00 044263 		CAME	AC,[201400+ZZ,,0]
  8996	037565	003 04 0 00 001377 		ER3	AC,T
  8997	037566	312 05 0 00 043354 		CAME	AC+1,[0,,0]
  8998	037567	004 05 0 00 001377 		ER4	AC+1,T
  8999	037570	321 10 0 00 037562 		JUMPL	AC+4,.-^D6	;LOOP ON ERROR SWITCH^
  9000
  9001
  9002					;RIPPLE ZEROS TESTS (TO A FRACTION OF ALL ONES, ADD A RIPPLED ZERO)
  9003
  9004			001400		T=1400
  9005
  9006			000000			XX=0
  9007
  9008
  9009					R1400:	REPEAT	^D18,<
  9010					T=T+1
  9011						ZZ=XX
  9012						IFE	ZZ,<ZZ=-1>
  9013						XX=XX+XX+1
  9014						IFE	<XX-1>,<XX=-2>
  9015						DFARP	T,200777,-1,-1,-1,200777,-1,-1,XX,201777,-1,377777,ZZ
  9016					>
  9017
  9018			001401		T=T+1
  9019			000000			ZZ=XX
  9020		777777	777777			IFE	ZZ,<ZZ=-1>
  9021			000001			XX=XX+XX+1
  9022		777777	777776			IFE	<XX-1>,<XX=-2>
  9023						DFARP	T,200777,-1,-1,-1,200777,-1,-1,XX,201777,-1,377777,ZZ^
  9024						DMOVE	AC,[200777,,-1
  9025	037571	120 04 0 00 044227 			-1,,-1]
  9026						DFAD	AC,[200777,,-1
  9027	037572	110 04 0 00 044264 			-1,,XX]
  9028	037573	312 04 0 00 044266 		CAME	AC,[201777,,-1]
  9029	037574	003 04 0 00 001401 		ER3	AC,T
  9030	037575	312 05 0 00 043655 		CAME	AC+1,[377777,,ZZ]
  9031	037576	004 05 0 00 001401 		ER4	AC+1,T
  9032	037577	321 10 0 00 037571 		JUMPL	AC+4,.-^D6	;LOOP ON ERROR SWITCH^
  9033
  9034
  9035			001402		T=T+1
  9036		777777	777776			ZZ=XX
  9037						IFE	ZZ,<ZZ=-1>
  9038		777777	777775			XX=XX+XX+1
  9039						IFE	<XX-1>,<XX=-2>
  9040						DFARP	T,200777,-1,-1,-1,200777,-1,-1,XX,201777,-1,377777,ZZ^
  9041						DMOVE	AC,[200777,,-1
  9042	037600	120 04 0 00 044227 			-1,,-1]
  9043						DFAD	AC,[200777,,-1
  9044	037601	110 04 0 00 044267 			-1,,XX]
  9045	037602	312 04 0 00 044266 		CAME	AC,[201777,,-1]DBKCD 	PDP-10 KI10 ADVANCED INSTRUCTION DIAGNOSTIC #4, VERSION 0,3 	MACRO %52(462) 12:35  9-AUG-76 PAGE 10-3
DBKCDM	MAC	26-MAY-76 16:52		TEST AR, ARX, AD, ADX AND NORMALIZE LOGIC FOR DOUBLE FLOATING POINT OPERATIONS     SEQ 0184

  9046	037603	003 04 0 00 001402 		ER3	AC,T
  9047	037604	312 05 0 00 043660 		CAME	AC+1,[377777,,ZZ]
  9048	037605	004 05 0 00 001402 		ER4	AC+1,T
  9049	037606	321 10 0 00 037600 		JUMPL	AC+4,.-^D6	;LOOP ON ERROR SWITCH^
  9050
  9051
  9052			001403		T=T+1
  9053		777777	777775			ZZ=XX
  9054						IFE	ZZ,<ZZ=-1>
  9055		777777	777773			XX=XX+XX+1
  9056						IFE	<XX-1>,<XX=-2>
  9057						DFARP	T,200777,-1,-1,-1,200777,-1,-1,XX,201777,-1,377777,ZZ^
  9058						DMOVE	AC,[200777,,-1
  9059	037607	120 04 0 00 044227 			-1,,-1]
  9060						DFAD	AC,[200777,,-1
  9061	037610	110 04 0 00 044271 			-1,,XX]
  9062	037611	312 04 0 00 044266 		CAME	AC,[201777,,-1]
  9063	037612	003 04 0 00 001403 		ER3	AC,T
  9064	037613	312 05 0 00 043663 		CAME	AC+1,[377777,,ZZ]
  9065	037614	004 05 0 00 001403 		ER4	AC+1,T
  9066	037615	321 10 0 00 037607 		JUMPL	AC+4,.-^D6	;LOOP ON ERROR SWITCH^
  9067
  9068
  9069			001404		T=T+1
  9070		777777	777773			ZZ=XX
  9071						IFE	ZZ,<ZZ=-1>
  9072		777777	777767			XX=XX+XX+1
  9073						IFE	<XX-1>,<XX=-2>
  9074						DFARP	T,200777,-1,-1,-1,200777,-1,-1,XX,201777,-1,377777,ZZ^
  9075						DMOVE	AC,[200777,,-1
  9076	037616	120 04 0 00 044227 			-1,,-1]
  9077						DFAD	AC,[200777,,-1
  9078	037617	110 04 0 00 044273 			-1,,XX]
  9079	037620	312 04 0 00 044266 		CAME	AC,[201777,,-1]
  9080	037621	003 04 0 00 001404 		ER3	AC,T
  9081	037622	312 05 0 00 043666 		CAME	AC+1,[377777,,ZZ]
  9082	037623	004 05 0 00 001404 		ER4	AC+1,T
  9083	037624	321 10 0 00 037616 		JUMPL	AC+4,.-^D6	;LOOP ON ERROR SWITCH^
  9084
  9085
  9086			001405		T=T+1
  9087		777777	777767			ZZ=XX
  9088						IFE	ZZ,<ZZ=-1>
  9089		777777	777757			XX=XX+XX+1
  9090						IFE	<XX-1>,<XX=-2>
  9091						DFARP	T,200777,-1,-1,-1,200777,-1,-1,XX,201777,-1,377777,ZZ^
  9092						DMOVE	AC,[200777,,-1
  9093	037625	120 04 0 00 044227 			-1,,-1]
  9094						DFAD	AC,[200777,,-1
  9095	037626	110 04 0 00 044275 			-1,,XX]
  9096	037627	312 04 0 00 044266 		CAME	AC,[201777,,-1]
  9097	037630	003 04 0 00 001405 		ER3	AC,T
  9098	037631	312 05 0 00 043671 		CAME	AC+1,[377777,,ZZ]
  9099	037632	004 05 0 00 001405 		ER4	AC+1,T
  9100	037633	321 10 0 00 037625 		JUMPL	AC+4,.-^D6	;LOOP ON ERROR SWITCH^DBKCD 	PDP-10 KI10 ADVANCED INSTRUCTION DIAGNOSTIC #4, VERSION 0,3 	MACRO %52(462) 12:35  9-AUG-76 PAGE 10-4
DBKCDM	MAC	26-MAY-76 16:52		TEST AR, ARX, AD, ADX AND NORMALIZE LOGIC FOR DOUBLE FLOATING POINT OPERATIONS     SEQ 0185

  9101
  9102
  9103			001406		T=T+1
  9104		777777	777757			ZZ=XX
  9105						IFE	ZZ,<ZZ=-1>
  9106		777777	777737			XX=XX+XX+1
  9107						IFE	<XX-1>,<XX=-2>
  9108						DFARP	T,200777,-1,-1,-1,200777,-1,-1,XX,201777,-1,377777,ZZ^
  9109						DMOVE	AC,[200777,,-1
  9110	037634	120 04 0 00 044227 			-1,,-1]
  9111						DFAD	AC,[200777,,-1
  9112	037635	110 04 0 00 044277 			-1,,XX]
  9113	037636	312 04 0 00 044266 		CAME	AC,[201777,,-1]
  9114	037637	003 04 0 00 001406 		ER3	AC,T
  9115	037640	312 05 0 00 043674 		CAME	AC+1,[377777,,ZZ]
  9116	037641	004 05 0 00 001406 		ER4	AC+1,T
  9117	037642	321 10 0 00 037634 		JUMPL	AC+4,.-^D6	;LOOP ON ERROR SWITCH^
  9118
  9119
  9120			001407		T=T+1
  9121		777777	777737			ZZ=XX
  9122						IFE	ZZ,<ZZ=-1>
  9123		777777	777677			XX=XX+XX+1
  9124						IFE	<XX-1>,<XX=-2>
  9125						DFARP	T,200777,-1,-1,-1,200777,-1,-1,XX,201777,-1,377777,ZZ^
  9126						DMOVE	AC,[200777,,-1
  9127	037643	120 04 0 00 044227 			-1,,-1]
  9128						DFAD	AC,[200777,,-1
  9129	037644	110 04 0 00 044301 			-1,,XX]
  9130	037645	312 04 0 00 044266 		CAME	AC,[201777,,-1]
  9131	037646	003 04 0 00 001407 		ER3	AC,T
  9132	037647	312 05 0 00 043677 		CAME	AC+1,[377777,,ZZ]
  9133	037650	004 05 0 00 001407 		ER4	AC+1,T
  9134	037651	321 10 0 00 037643 		JUMPL	AC+4,.-^D6	;LOOP ON ERROR SWITCH^
  9135
  9136
  9137			001410		T=T+1
  9138		777777	777677			ZZ=XX
  9139						IFE	ZZ,<ZZ=-1>
  9140		777777	777577			XX=XX+XX+1
  9141						IFE	<XX-1>,<XX=-2>
  9142						DFARP	T,200777,-1,-1,-1,200777,-1,-1,XX,201777,-1,377777,ZZ^
  9143						DMOVE	AC,[200777,,-1
  9144	037652	120 04 0 00 044227 			-1,,-1]
  9145						DFAD	AC,[200777,,-1
  9146	037653	110 04 0 00 044303 			-1,,XX]
  9147	037654	312 04 0 00 044266 		CAME	AC,[201777,,-1]
  9148	037655	003 04 0 00 001410 		ER3	AC,T
  9149	037656	312 05 0 00 043702 		CAME	AC+1,[377777,,ZZ]
  9150	037657	004 05 0 00 001410 		ER4	AC+1,T
  9151	037660	321 10 0 00 037652 		JUMPL	AC+4,.-^D6	;LOOP ON ERROR SWITCH^
  9152
  9153
  9154			001411		T=T+1
  9155		777777	777577			ZZ=XXDBKCD 	PDP-10 KI10 ADVANCED INSTRUCTION DIAGNOSTIC #4, VERSION 0,3 	MACRO %52(462) 12:35  9-AUG-76 PAGE 10-5
DBKCDM	MAC	26-MAY-76 16:52		TEST AR, ARX, AD, ADX AND NORMALIZE LOGIC FOR DOUBLE FLOATING POINT OPERATIONS     SEQ 0186

  9156						IFE	ZZ,<ZZ=-1>
  9157		777777	777377			XX=XX+XX+1
  9158						IFE	<XX-1>,<XX=-2>
  9159						DFARP	T,200777,-1,-1,-1,200777,-1,-1,XX,201777,-1,377777,ZZ^
  9160						DMOVE	AC,[200777,,-1
  9161	037661	120 04 0 00 044227 			-1,,-1]
  9162						DFAD	AC,[200777,,-1
  9163	037662	110 04 0 00 044305 			-1,,XX]
  9164	037663	312 04 0 00 044266 		CAME	AC,[201777,,-1]
  9165	037664	003 04 0 00 001411 		ER3	AC,T
  9166	037665	312 05 0 00 043705 		CAME	AC+1,[377777,,ZZ]
  9167	037666	004 05 0 00 001411 		ER4	AC+1,T
  9168	037667	321 10 0 00 037661 		JUMPL	AC+4,.-^D6	;LOOP ON ERROR SWITCH^
  9169
  9170
  9171			001412		T=T+1
  9172		777777	777377			ZZ=XX
  9173						IFE	ZZ,<ZZ=-1>
  9174		777777	776777			XX=XX+XX+1
  9175						IFE	<XX-1>,<XX=-2>
  9176						DFARP	T,200777,-1,-1,-1,200777,-1,-1,XX,201777,-1,377777,ZZ^
  9177						DMOVE	AC,[200777,,-1
  9178	037670	120 04 0 00 044227 			-1,,-1]
  9179						DFAD	AC,[200777,,-1
  9180	037671	110 04 0 00 044307 			-1,,XX]
  9181	037672	312 04 0 00 044266 		CAME	AC,[201777,,-1]
  9182	037673	003 04 0 00 001412 		ER3	AC,T
  9183	037674	312 05 0 00 043710 		CAME	AC+1,[377777,,ZZ]
  9184	037675	004 05 0 00 001412 		ER4	AC+1,T
  9185	037676	321 10 0 00 037670 		JUMPL	AC+4,.-^D6	;LOOP ON ERROR SWITCH^
  9186
  9187
  9188			001413		T=T+1
  9189		777777	776777			ZZ=XX
  9190						IFE	ZZ,<ZZ=-1>
  9191		777777	775777			XX=XX+XX+1
  9192						IFE	<XX-1>,<XX=-2>
  9193						DFARP	T,200777,-1,-1,-1,200777,-1,-1,XX,201777,-1,377777,ZZ^
  9194						DMOVE	AC,[200777,,-1
  9195	037677	120 04 0 00 044227 			-1,,-1]
  9196						DFAD	AC,[200777,,-1
  9197	037700	110 04 0 00 044311 			-1,,XX]
  9198	037701	312 04 0 00 044266 		CAME	AC,[201777,,-1]
  9199	037702	003 04 0 00 001413 		ER3	AC,T
  9200	037703	312 05 0 00 043713 		CAME	AC+1,[377777,,ZZ]
  9201	037704	004 05 0 00 001413 		ER4	AC+1,T
  9202	037705	321 10 0 00 037677 		JUMPL	AC+4,.-^D6	;LOOP ON ERROR SWITCH^
  9203
  9204
  9205			001414		T=T+1
  9206		777777	775777			ZZ=XX
  9207						IFE	ZZ,<ZZ=-1>
  9208		777777	773777			XX=XX+XX+1
  9209						IFE	<XX-1>,<XX=-2>
  9210						DFARP	T,200777,-1,-1,-1,200777,-1,-1,XX,201777,-1,377777,ZZ^DBKCD 	PDP-10 KI10 ADVANCED INSTRUCTION DIAGNOSTIC #4, VERSION 0,3 	MACRO %52(462) 12:35  9-AUG-76 PAGE 10-6
DBKCDM	MAC	26-MAY-76 16:52		TEST AR, ARX, AD, ADX AND NORMALIZE LOGIC FOR DOUBLE FLOATING POINT OPERATIONS     SEQ 0187

  9211						DMOVE	AC,[200777,,-1
  9212	037706	120 04 0 00 044227 			-1,,-1]
  9213						DFAD	AC,[200777,,-1
  9214	037707	110 04 0 00 044313 			-1,,XX]
  9215	037710	312 04 0 00 044266 		CAME	AC,[201777,,-1]
  9216	037711	003 04 0 00 001414 		ER3	AC,T
  9217	037712	312 05 0 00 043716 		CAME	AC+1,[377777,,ZZ]
  9218	037713	004 05 0 00 001414 		ER4	AC+1,T
  9219	037714	321 10 0 00 037706 		JUMPL	AC+4,.-^D6	;LOOP ON ERROR SWITCH^
  9220
  9221
  9222			001415		T=T+1
  9223		777777	773777			ZZ=XX
  9224						IFE	ZZ,<ZZ=-1>
  9225		777777	767777			XX=XX+XX+1
  9226						IFE	<XX-1>,<XX=-2>
  9227						DFARP	T,200777,-1,-1,-1,200777,-1,-1,XX,201777,-1,377777,ZZ^
  9228						DMOVE	AC,[200777,,-1
  9229	037715	120 04 0 00 044227 			-1,,-1]
  9230						DFAD	AC,[200777,,-1
  9231	037716	110 04 0 00 044315 			-1,,XX]
  9232	037717	312 04 0 00 044266 		CAME	AC,[201777,,-1]
  9233	037720	003 04 0 00 001415 		ER3	AC,T
  9234	037721	312 05 0 00 043721 		CAME	AC+1,[377777,,ZZ]
  9235	037722	004 05 0 00 001415 		ER4	AC+1,T
  9236	037723	321 10 0 00 037715 		JUMPL	AC+4,.-^D6	;LOOP ON ERROR SWITCH^
  9237
  9238
  9239			001416		T=T+1
  9240		777777	767777			ZZ=XX
  9241						IFE	ZZ,<ZZ=-1>
  9242		777777	757777			XX=XX+XX+1
  9243						IFE	<XX-1>,<XX=-2>
  9244						DFARP	T,200777,-1,-1,-1,200777,-1,-1,XX,201777,-1,377777,ZZ^
  9245						DMOVE	AC,[200777,,-1
  9246	037724	120 04 0 00 044227 			-1,,-1]
  9247						DFAD	AC,[200777,,-1
  9248	037725	110 04 0 00 044317 			-1,,XX]
  9249	037726	312 04 0 00 044266 		CAME	AC,[201777,,-1]
  9250	037727	003 04 0 00 001416 		ER3	AC,T
  9251	037730	312 05 0 00 043724 		CAME	AC+1,[377777,,ZZ]
  9252	037731	004 05 0 00 001416 		ER4	AC+1,T
  9253	037732	321 10 0 00 037724 		JUMPL	AC+4,.-^D6	;LOOP ON ERROR SWITCH^
  9254
  9255
  9256			001417		T=T+1
  9257		777777	757777			ZZ=XX
  9258						IFE	ZZ,<ZZ=-1>
  9259		777777	737777			XX=XX+XX+1
  9260						IFE	<XX-1>,<XX=-2>
  9261						DFARP	T,200777,-1,-1,-1,200777,-1,-1,XX,201777,-1,377777,ZZ^
  9262						DMOVE	AC,[200777,,-1
  9263	037733	120 04 0 00 044227 			-1,,-1]
  9264						DFAD	AC,[200777,,-1
  9265	037734	110 04 0 00 044321 			-1,,XX]DBKCD 	PDP-10 KI10 ADVANCED INSTRUCTION DIAGNOSTIC #4, VERSION 0,3 	MACRO %52(462) 12:35  9-AUG-76 PAGE 10-7
DBKCDM	MAC	26-MAY-76 16:52		TEST AR, ARX, AD, ADX AND NORMALIZE LOGIC FOR DOUBLE FLOATING POINT OPERATIONS     SEQ 0188

  9266	037735	312 04 0 00 044266 		CAME	AC,[201777,,-1]
  9267	037736	003 04 0 00 001417 		ER3	AC,T
  9268	037737	312 05 0 00 043727 		CAME	AC+1,[377777,,ZZ]
  9269	037740	004 05 0 00 001417 		ER4	AC+1,T
  9270	037741	321 10 0 00 037733 		JUMPL	AC+4,.-^D6	;LOOP ON ERROR SWITCH^
  9271
  9272
  9273			001420		T=T+1
  9274		777777	737777			ZZ=XX
  9275						IFE	ZZ,<ZZ=-1>
  9276		777777	677777			XX=XX+XX+1
  9277						IFE	<XX-1>,<XX=-2>
  9278						DFARP	T,200777,-1,-1,-1,200777,-1,-1,XX,201777,-1,377777,ZZ^
  9279						DMOVE	AC,[200777,,-1
  9280	037742	120 04 0 00 044227 			-1,,-1]
  9281						DFAD	AC,[200777,,-1
  9282	037743	110 04 0 00 044323 			-1,,XX]
  9283	037744	312 04 0 00 044266 		CAME	AC,[201777,,-1]
  9284	037745	003 04 0 00 001420 		ER3	AC,T
  9285	037746	312 05 0 00 043732 		CAME	AC+1,[377777,,ZZ]
  9286	037747	004 05 0 00 001420 		ER4	AC+1,T
  9287	037750	321 10 0 00 037742 		JUMPL	AC+4,.-^D6	;LOOP ON ERROR SWITCH^
  9288
  9289
  9290			001421		T=T+1
  9291		777777	677777			ZZ=XX
  9292						IFE	ZZ,<ZZ=-1>
  9293		777777	577777			XX=XX+XX+1
  9294						IFE	<XX-1>,<XX=-2>
  9295						DFARP	T,200777,-1,-1,-1,200777,-1,-1,XX,201777,-1,377777,ZZ^
  9296						DMOVE	AC,[200777,,-1
  9297	037751	120 04 0 00 044227 			-1,,-1]
  9298						DFAD	AC,[200777,,-1
  9299	037752	110 04 0 00 044325 			-1,,XX]
  9300	037753	312 04 0 00 044266 		CAME	AC,[201777,,-1]
  9301	037754	003 04 0 00 001421 		ER3	AC,T
  9302	037755	312 05 0 00 043735 		CAME	AC+1,[377777,,ZZ]
  9303	037756	004 05 0 00 001421 		ER4	AC+1,T
  9304	037757	321 10 0 00 037751 		JUMPL	AC+4,.-^D6	;LOOP ON ERROR SWITCH^
  9305
  9306
  9307			001422		T=T+1
  9308		777777	577777			ZZ=XX
  9309						IFE	ZZ,<ZZ=-1>
  9310		777777	377777			XX=XX+XX+1
  9311						IFE	<XX-1>,<XX=-2>
  9312						DFARP	T,200777,-1,-1,-1,200777,-1,-1,XX,201777,-1,377777,ZZ^
  9313						DMOVE	AC,[200777,,-1
  9314	037760	120 04 0 00 044227 			-1,,-1]
  9315						DFAD	AC,[200777,,-1
  9316	037761	110 04 0 00 044327 			-1,,XX]
  9317	037762	312 04 0 00 044266 		CAME	AC,[201777,,-1]
  9318	037763	003 04 0 00 001422 		ER3	AC,T
  9319	037764	312 05 0 00 043740 		CAME	AC+1,[377777,,ZZ]
  9320	037765	004 05 0 00 001422 		ER4	AC+1,TDBKCD 	PDP-10 KI10 ADVANCED INSTRUCTION DIAGNOSTIC #4, VERSION 0,3 	MACRO %52(462) 12:35  9-AUG-76 PAGE 10-8
DBKCDM	MAC	26-MAY-76 16:52		TEST AR, ARX, AD, ADX AND NORMALIZE LOGIC FOR DOUBLE FLOATING POINT OPERATIONS     SEQ 0189

  9321	037766	321 10 0 00 037760 		JUMPL	AC+4,.-^D6	;LOOP ON ERROR SWITCH^
  9322
  9323
  9324			001423		T=T+1
  9325		777777	377777			ZZ=XX
  9326		777777	777776			XX=-2
  9327						DFARP	T,200777,-1,-1,-1,200777,-1,XX,-1,201777,-1,377777,ZZ^
  9328						DMOVE	AC,[200777,,-1
  9329	037767	120 04 0 00 044227 			-1,,-1]
  9330						DFAD	AC,[200777,,-1
  9331	037770	110 04 0 00 044331 			XX,,-1]
  9332	037771	312 04 0 00 044266 		CAME	AC,[201777,,-1]
  9333	037772	003 04 0 00 001423 		ER3	AC,T
  9334	037773	312 05 0 00 043743 		CAME	AC+1,[377777,,ZZ]
  9335	037774	004 05 0 00 001423 		ER4	AC+1,T
  9336	037775	321 10 0 00 037767 		JUMPL	AC+4,.-^D6	;LOOP ON ERROR SWITCH^
  9337
  9338
  9339						REPEAT	^D16,<
  9340					T=T+1
  9341						ZZ=XX
  9342						XX=XX+XX+1
  9343						DFARP	T,200777,-1,-1,-1,200777,-1,XX,-1,201777,-1,ZZ&377777,-1
  9344					>
  9345
  9346			001424		T=T+1
  9347		777777	777776			ZZ=XX
  9348		777777	777775			XX=XX+XX+1
  9349						DFARP	T,200777,-1,-1,-1,200777,-1,XX,-1,201777,-1,ZZ&377777,-1^
  9350						DMOVE	AC,[200777,,-1
  9351	037776	120 04 0 00 044227 			-1,,-1]
  9352						DFAD	AC,[200777,,-1
  9353	037777	110 04 0 00 044333 			XX,,-1]
  9354	040000	312 04 0 00 044266 		CAME	AC,[201777,,-1]
  9355	040001	003 04 0 00 001424 		ER3	AC,T
  9356	040002	312 05 0 00 043746 		CAME	AC+1,[ZZ&377777,,-1]
  9357	040003	004 05 0 00 001424 		ER4	AC+1,T
  9358	040004	321 10 0 00 037776 		JUMPL	AC+4,.-^D6	;LOOP ON ERROR SWITCH^
  9359
  9360
  9361			001425		T=T+1
  9362		777777	777775			ZZ=XX
  9363		777777	777773			XX=XX+XX+1
  9364						DFARP	T,200777,-1,-1,-1,200777,-1,XX,-1,201777,-1,ZZ&377777,-1^
  9365						DMOVE	AC,[200777,,-1
  9366	040005	120 04 0 00 044227 			-1,,-1]
  9367						DFAD	AC,[200777,,-1
  9368	040006	110 04 0 00 044335 			XX,,-1]
  9369	040007	312 04 0 00 044266 		CAME	AC,[201777,,-1]
  9370	040010	003 04 0 00 001425 		ER3	AC,T
  9371	040011	312 05 0 00 043751 		CAME	AC+1,[ZZ&377777,,-1]
  9372	040012	004 05 0 00 001425 		ER4	AC+1,T
  9373	040013	321 10 0 00 040005 		JUMPL	AC+4,.-^D6	;LOOP ON ERROR SWITCH^
  9374
  9375DBKCD 	PDP-10 KI10 ADVANCED INSTRUCTION DIAGNOSTIC #4, VERSION 0,3 	MACRO %52(462) 12:35  9-AUG-76 PAGE 10-9
DBKCDM	MAC	26-MAY-76 16:52		TEST AR, ARX, AD, ADX AND NORMALIZE LOGIC FOR DOUBLE FLOATING POINT OPERATIONS     SEQ 0190

  9376			001426		T=T+1
  9377		777777	777773			ZZ=XX
  9378		777777	777767			XX=XX+XX+1
  9379						DFARP	T,200777,-1,-1,-1,200777,-1,XX,-1,201777,-1,ZZ&377777,-1^
  9380						DMOVE	AC,[200777,,-1
  9381	040014	120 04 0 00 044227 			-1,,-1]
  9382						DFAD	AC,[200777,,-1
  9383	040015	110 04 0 00 044337 			XX,,-1]
  9384	040016	312 04 0 00 044266 		CAME	AC,[201777,,-1]
  9385	040017	003 04 0 00 001426 		ER3	AC,T
  9386	040020	312 05 0 00 043754 		CAME	AC+1,[ZZ&377777,,-1]
  9387	040021	004 05 0 00 001426 		ER4	AC+1,T
  9388	040022	321 10 0 00 040014 		JUMPL	AC+4,.-^D6	;LOOP ON ERROR SWITCH^
  9389
  9390
  9391			001427		T=T+1
  9392		777777	777767			ZZ=XX
  9393		777777	777757			XX=XX+XX+1
  9394						DFARP	T,200777,-1,-1,-1,200777,-1,XX,-1,201777,-1,ZZ&377777,-1^
  9395						DMOVE	AC,[200777,,-1
  9396	040023	120 04 0 00 044227 			-1,,-1]
  9397						DFAD	AC,[200777,,-1
  9398	040024	110 04 0 00 044341 			XX,,-1]
  9399	040025	312 04 0 00 044266 		CAME	AC,[201777,,-1]
  9400	040026	003 04 0 00 001427 		ER3	AC,T
  9401	040027	312 05 0 00 043757 		CAME	AC+1,[ZZ&377777,,-1]
  9402	040030	004 05 0 00 001427 		ER4	AC+1,T
  9403	040031	321 10 0 00 040023 		JUMPL	AC+4,.-^D6	;LOOP ON ERROR SWITCH^
  9404
  9405
  9406			001430		T=T+1
  9407		777777	777757			ZZ=XX
  9408		777777	777737			XX=XX+XX+1
  9409						DFARP	T,200777,-1,-1,-1,200777,-1,XX,-1,201777,-1,ZZ&377777,-1^
  9410						DMOVE	AC,[200777,,-1
  9411	040032	120 04 0 00 044227 			-1,,-1]
  9412						DFAD	AC,[200777,,-1
  9413	040033	110 04 0 00 044343 			XX,,-1]
  9414	040034	312 04 0 00 044266 		CAME	AC,[201777,,-1]
  9415	040035	003 04 0 00 001430 		ER3	AC,T
  9416	040036	312 05 0 00 043762 		CAME	AC+1,[ZZ&377777,,-1]
  9417	040037	004 05 0 00 001430 		ER4	AC+1,T
  9418	040040	321 10 0 00 040032 		JUMPL	AC+4,.-^D6	;LOOP ON ERROR SWITCH^
  9419
  9420
  9421			001431		T=T+1
  9422		777777	777737			ZZ=XX
  9423		777777	777677			XX=XX+XX+1
  9424						DFARP	T,200777,-1,-1,-1,200777,-1,XX,-1,201777,-1,ZZ&377777,-1^
  9425						DMOVE	AC,[200777,,-1
  9426	040041	120 04 0 00 044227 			-1,,-1]
  9427						DFAD	AC,[200777,,-1
  9428	040042	110 04 0 00 044345 			XX,,-1]
  9429	040043	312 04 0 00 044266 		CAME	AC,[201777,,-1]
  9430	040044	003 04 0 00 001431 		ER3	AC,TDBKCD 	PDP-10 KI10 ADVANCED INSTRUCTION DIAGNOSTIC #4, VERSION 0,3 	MACRO %52(462) 12:35  9-AUG-76 PAGE 10-10
DBKCDM	MAC	26-MAY-76 16:52		TEST AR, ARX, AD, ADX AND NORMALIZE LOGIC FOR DOUBLE FLOATING POINT OPERATIONS     SEQ 0191

  9431	040045	312 05 0 00 043765 		CAME	AC+1,[ZZ&377777,,-1]
  9432	040046	004 05 0 00 001431 		ER4	AC+1,T
  9433	040047	321 10 0 00 040041 		JUMPL	AC+4,.-^D6	;LOOP ON ERROR SWITCH^
  9434
  9435
  9436			001432		T=T+1
  9437		777777	777677			ZZ=XX
  9438		777777	777577			XX=XX+XX+1
  9439						DFARP	T,200777,-1,-1,-1,200777,-1,XX,-1,201777,-1,ZZ&377777,-1^
  9440						DMOVE	AC,[200777,,-1
  9441	040050	120 04 0 00 044227 			-1,,-1]
  9442						DFAD	AC,[200777,,-1
  9443	040051	110 04 0 00 044347 			XX,,-1]
  9444	040052	312 04 0 00 044266 		CAME	AC,[201777,,-1]
  9445	040053	003 04 0 00 001432 		ER3	AC,T
  9446	040054	312 05 0 00 043770 		CAME	AC+1,[ZZ&377777,,-1]
  9447	040055	004 05 0 00 001432 		ER4	AC+1,T
  9448	040056	321 10 0 00 040050 		JUMPL	AC+4,.-^D6	;LOOP ON ERROR SWITCH^
  9449
  9450
  9451			001433		T=T+1
  9452		777777	777577			ZZ=XX
  9453		777777	777377			XX=XX+XX+1
  9454						DFARP	T,200777,-1,-1,-1,200777,-1,XX,-1,201777,-1,ZZ&377777,-1^
  9455						DMOVE	AC,[200777,,-1
  9456	040057	120 04 0 00 044227 			-1,,-1]
  9457						DFAD	AC,[200777,,-1
  9458	040060	110 04 0 00 044351 			XX,,-1]
  9459	040061	312 04 0 00 044266 		CAME	AC,[201777,,-1]
  9460	040062	003 04 0 00 001433 		ER3	AC,T
  9461	040063	312 05 0 00 043773 		CAME	AC+1,[ZZ&377777,,-1]
  9462	040064	004 05 0 00 001433 		ER4	AC+1,T
  9463	040065	321 10 0 00 040057 		JUMPL	AC+4,.-^D6	;LOOP ON ERROR SWITCH^
  9464
  9465
  9466			001434		T=T+1
  9467		777777	777377			ZZ=XX
  9468		777777	776777			XX=XX+XX+1
  9469						DFARP	T,200777,-1,-1,-1,200777,-1,XX,-1,201777,-1,ZZ&377777,-1^
  9470						DMOVE	AC,[200777,,-1
  9471	040066	120 04 0 00 044227 			-1,,-1]
  9472						DFAD	AC,[200777,,-1
  9473	040067	110 04 0 00 044353 			XX,,-1]
  9474	040070	312 04 0 00 044266 		CAME	AC,[201777,,-1]
  9475	040071	003 04 0 00 001434 		ER3	AC,T
  9476	040072	312 05 0 00 043776 		CAME	AC+1,[ZZ&377777,,-1]
  9477	040073	004 05 0 00 001434 		ER4	AC+1,T
  9478	040074	321 10 0 00 040066 		JUMPL	AC+4,.-^D6	;LOOP ON ERROR SWITCH^
  9479
  9480
  9481			001435		T=T+1
  9482		777777	776777			ZZ=XX
  9483		777777	775777			XX=XX+XX+1
  9484						DFARP	T,200777,-1,-1,-1,200777,-1,XX,-1,201777,-1,ZZ&377777,-1^
  9485						DMOVE	AC,[200777,,-1DBKCD 	PDP-10 KI10 ADVANCED INSTRUCTION DIAGNOSTIC #4, VERSION 0,3 	MACRO %52(462) 12:35  9-AUG-76 PAGE 10-11
DBKCDM	MAC	26-MAY-76 16:52		TEST AR, ARX, AD, ADX AND NORMALIZE LOGIC FOR DOUBLE FLOATING POINT OPERATIONS     SEQ 0192

  9486	040075	120 04 0 00 044227 			-1,,-1]
  9487						DFAD	AC,[200777,,-1
  9488	040076	110 04 0 00 044355 			XX,,-1]
  9489	040077	312 04 0 00 044266 		CAME	AC,[201777,,-1]
  9490	040100	003 04 0 00 001435 		ER3	AC,T
  9491	040101	312 05 0 00 044001 		CAME	AC+1,[ZZ&377777,,-1]
  9492	040102	004 05 0 00 001435 		ER4	AC+1,T
  9493	040103	321 10 0 00 040075 		JUMPL	AC+4,.-^D6	;LOOP ON ERROR SWITCH^
  9494
  9495
  9496			001436		T=T+1
  9497		777777	775777			ZZ=XX
  9498		777777	773777			XX=XX+XX+1
  9499						DFARP	T,200777,-1,-1,-1,200777,-1,XX,-1,201777,-1,ZZ&377777,-1^
  9500						DMOVE	AC,[200777,,-1
  9501	040104	120 04 0 00 044227 			-1,,-1]
  9502						DFAD	AC,[200777,,-1
  9503	040105	110 04 0 00 044357 			XX,,-1]
  9504	040106	312 04 0 00 044266 		CAME	AC,[201777,,-1]
  9505	040107	003 04 0 00 001436 		ER3	AC,T
  9506	040110	312 05 0 00 044004 		CAME	AC+1,[ZZ&377777,,-1]
  9507	040111	004 05 0 00 001436 		ER4	AC+1,T
  9508	040112	321 10 0 00 040104 		JUMPL	AC+4,.-^D6	;LOOP ON ERROR SWITCH^
  9509
  9510
  9511			001437		T=T+1
  9512		777777	773777			ZZ=XX
  9513		777777	767777			XX=XX+XX+1
  9514						DFARP	T,200777,-1,-1,-1,200777,-1,XX,-1,201777,-1,ZZ&377777,-1^
  9515						DMOVE	AC,[200777,,-1
  9516	040113	120 04 0 00 044227 			-1,,-1]
  9517						DFAD	AC,[200777,,-1
  9518	040114	110 04 0 00 044361 			XX,,-1]
  9519	040115	312 04 0 00 044266 		CAME	AC,[201777,,-1]
  9520	040116	003 04 0 00 001437 		ER3	AC,T
  9521	040117	312 05 0 00 044007 		CAME	AC+1,[ZZ&377777,,-1]
  9522	040120	004 05 0 00 001437 		ER4	AC+1,T
  9523	040121	321 10 0 00 040113 		JUMPL	AC+4,.-^D6	;LOOP ON ERROR SWITCH^
  9524
  9525
  9526			001440		T=T+1
  9527		777777	767777			ZZ=XX
  9528		777777	757777			XX=XX+XX+1
  9529						DFARP	T,200777,-1,-1,-1,200777,-1,XX,-1,201777,-1,ZZ&377777,-1^
  9530						DMOVE	AC,[200777,,-1
  9531	040122	120 04 0 00 044227 			-1,,-1]
  9532						DFAD	AC,[200777,,-1
  9533	040123	110 04 0 00 044363 			XX,,-1]
  9534	040124	312 04 0 00 044266 		CAME	AC,[201777,,-1]
  9535	040125	003 04 0 00 001440 		ER3	AC,T
  9536	040126	312 05 0 00 044012 		CAME	AC+1,[ZZ&377777,,-1]
  9537	040127	004 05 0 00 001440 		ER4	AC+1,T
  9538	040130	321 10 0 00 040122 		JUMPL	AC+4,.-^D6	;LOOP ON ERROR SWITCH^
  9539
  9540DBKCD 	PDP-10 KI10 ADVANCED INSTRUCTION DIAGNOSTIC #4, VERSION 0,3 	MACRO %52(462) 12:35  9-AUG-76 PAGE 10-12
DBKCDM	MAC	26-MAY-76 16:52		TEST AR, ARX, AD, ADX AND NORMALIZE LOGIC FOR DOUBLE FLOATING POINT OPERATIONS     SEQ 0193

  9541			001441		T=T+1
  9542		777777	757777			ZZ=XX
  9543		777777	737777			XX=XX+XX+1
  9544						DFARP	T,200777,-1,-1,-1,200777,-1,XX,-1,201777,-1,ZZ&377777,-1^
  9545						DMOVE	AC,[200777,,-1
  9546	040131	120 04 0 00 044227 			-1,,-1]
  9547						DFAD	AC,[200777,,-1
  9548	040132	110 04 0 00 044365 			XX,,-1]
  9549	040133	312 04 0 00 044266 		CAME	AC,[201777,,-1]
  9550	040134	003 04 0 00 001441 		ER3	AC,T
  9551	040135	312 05 0 00 044015 		CAME	AC+1,[ZZ&377777,,-1]
  9552	040136	004 05 0 00 001441 		ER4	AC+1,T
  9553	040137	321 10 0 00 040131 		JUMPL	AC+4,.-^D6	;LOOP ON ERROR SWITCH^
  9554
  9555
  9556			001442		T=T+1
  9557		777777	737777			ZZ=XX
  9558		777777	677777			XX=XX+XX+1
  9559						DFARP	T,200777,-1,-1,-1,200777,-1,XX,-1,201777,-1,ZZ&377777,-1^
  9560						DMOVE	AC,[200777,,-1
  9561	040140	120 04 0 00 044227 			-1,,-1]
  9562						DFAD	AC,[200777,,-1
  9563	040141	110 04 0 00 044367 			XX,,-1]
  9564	040142	312 04 0 00 044266 		CAME	AC,[201777,,-1]
  9565	040143	003 04 0 00 001442 		ER3	AC,T
  9566	040144	312 05 0 00 044020 		CAME	AC+1,[ZZ&377777,,-1]
  9567	040145	004 05 0 00 001442 		ER4	AC+1,T
  9568	040146	321 10 0 00 040140 		JUMPL	AC+4,.-^D6	;LOOP ON ERROR SWITCH^
  9569
  9570
  9571			001443		T=T+1
  9572		777777	677777			ZZ=XX
  9573		777777	577777			XX=XX+XX+1
  9574						DFARP	T,200777,-1,-1,-1,200777,-1,XX,-1,201777,-1,ZZ&377777,-1^
  9575						DMOVE	AC,[200777,,-1
  9576	040147	120 04 0 00 044227 			-1,,-1]
  9577						DFAD	AC,[200777,,-1
  9578	040150	110 04 0 00 044371 			XX,,-1]
  9579	040151	312 04 0 00 044266 		CAME	AC,[201777,,-1]
  9580	040152	003 04 0 00 001443 		ER3	AC,T
  9581	040153	312 05 0 00 044023 		CAME	AC+1,[ZZ&377777,,-1]
  9582	040154	004 05 0 00 001443 		ER4	AC+1,T
  9583	040155	321 10 0 00 040147 		JUMPL	AC+4,.-^D6	;LOOP ON ERROR SWITCH^
  9584
  9585
  9586			001444		T=T+1
  9587		777777	377777			XX=XX+XX+1
  9588		777777	377777			ZZ=XX
  9589						DFARP	T,200777,-1,-1,-1,200777,-1,XX,-1,201777,-1,ZZ,-1^
  9590						DMOVE	AC,[200777,,-1
  9591	040156	120 04 0 00 044227 			-1,,-1]
  9592						DFAD	AC,[200777,,-1
  9593	040157	110 04 0 00 044373 			XX,,-1]
  9594	040160	312 04 0 00 044266 		CAME	AC,[201777,,-1]
  9595	040161	003 04 0 00 001444 		ER3	AC,TDBKCD 	PDP-10 KI10 ADVANCED INSTRUCTION DIAGNOSTIC #4, VERSION 0,3 	MACRO %52(462) 12:35  9-AUG-76 PAGE 10-13
DBKCDM	MAC	26-MAY-76 16:52		TEST AR, ARX, AD, ADX AND NORMALIZE LOGIC FOR DOUBLE FLOATING POINT OPERATIONS     SEQ 0194

  9596	040162	312 05 0 00 043655 		CAME	AC+1,[ZZ,,-1]
  9597	040163	004 05 0 00 001444 		ER4	AC+1,T
  9598	040164	321 10 0 00 040156 		JUMPL	AC+4,.-^D6	;LOOP ON ERROR SWITCH^
  9599
  9600			001445		T=T+1
  9601			177777			ZZ=XX&177777
  9602		777777	777776			XX=-2
  9603						DFARP	T,200777,-1,-1,-1,200777,XX,-1,-1,201777,-1,ZZ,-1^
  9604						DMOVE	AC,[200777,,-1
  9605	040165	120 04 0 00 044227 			-1,,-1]
  9606						DFAD	AC,[200777,,XX
  9607	040166	110 04 0 00 044375 			-1,,-1]
  9608	040167	312 04 0 00 044266 		CAME	AC,[201777,,-1]
  9609	040170	003 04 0 00 001445 		ER3	AC,T
  9610	040171	312 05 0 00 044026 		CAME	AC+1,[ZZ,,-1]
  9611	040172	004 05 0 00 001445 		ER4	AC+1,T
  9612	040173	321 10 0 00 040165 		JUMPL	AC+4,.-^D6	;LOOP ON ERROR SWITCH^
  9613
  9614
  9615						REPEAT	^D17,<
  9616					T=T+1
  9617						ZZ=XX
  9618						XX=XX+XX+1
  9619						DFARP	T,200777,-1,-1,-1,200777,XX,-1,-1,201777,ZZ,377777,-1
  9620					>
  9621
  9622			001446		T=T+1
  9623		777777	777776			ZZ=XX
  9624		777777	777775			XX=XX+XX+1
  9625						DFARP	T,200777,-1,-1,-1,200777,XX,-1,-1,201777,ZZ,377777,-1^
  9626						DMOVE	AC,[200777,,-1
  9627	040174	120 04 0 00 044227 			-1,,-1]
  9628						DFAD	AC,[200777,,XX
  9629	040175	110 04 0 00 044377 			-1,,-1]
  9630	040176	312 04 0 00 044401 		CAME	AC,[201777,,ZZ]
  9631	040177	003 04 0 00 001446 		ER3	AC,T
  9632	040200	312 05 0 00 043655 		CAME	AC+1,[377777,,-1]
  9633	040201	004 05 0 00 001446 		ER4	AC+1,T
  9634	040202	321 10 0 00 040174 		JUMPL	AC+4,.-^D6	;LOOP ON ERROR SWITCH^
  9635
  9636
  9637			001447		T=T+1
  9638		777777	777775			ZZ=XX
  9639		777777	777773			XX=XX+XX+1
  9640						DFARP	T,200777,-1,-1,-1,200777,XX,-1,-1,201777,ZZ,377777,-1^
  9641						DMOVE	AC,[200777,,-1
  9642	040203	120 04 0 00 044227 			-1,,-1]
  9643						DFAD	AC,[200777,,XX
  9644	040204	110 04 0 00 044402 			-1,,-1]
  9645	040205	312 04 0 00 044404 		CAME	AC,[201777,,ZZ]
  9646	040206	003 04 0 00 001447 		ER3	AC,T
  9647	040207	312 05 0 00 043655 		CAME	AC+1,[377777,,-1]
  9648	040210	004 05 0 00 001447 		ER4	AC+1,T
  9649	040211	321 10 0 00 040203 		JUMPL	AC+4,.-^D6	;LOOP ON ERROR SWITCH^
  9650DBKCD 	PDP-10 KI10 ADVANCED INSTRUCTION DIAGNOSTIC #4, VERSION 0,3 	MACRO %52(462) 12:35  9-AUG-76 PAGE 10-14
DBKCDM	MAC	26-MAY-76 16:52		TEST AR, ARX, AD, ADX AND NORMALIZE LOGIC FOR DOUBLE FLOATING POINT OPERATIONS     SEQ 0195

  9651
  9652			001450		T=T+1
  9653		777777	777773			ZZ=XX
  9654		777777	777767			XX=XX+XX+1
  9655						DFARP	T,200777,-1,-1,-1,200777,XX,-1,-1,201777,ZZ,377777,-1^
  9656						DMOVE	AC,[200777,,-1
  9657	040212	120 04 0 00 044227 			-1,,-1]
  9658						DFAD	AC,[200777,,XX
  9659	040213	110 04 0 00 044405 			-1,,-1]
  9660	040214	312 04 0 00 044407 		CAME	AC,[201777,,ZZ]
  9661	040215	003 04 0 00 001450 		ER3	AC,T
  9662	040216	312 05 0 00 043655 		CAME	AC+1,[377777,,-1]
  9663	040217	004 05 0 00 001450 		ER4	AC+1,T
  9664	040220	321 10 0 00 040212 		JUMPL	AC+4,.-^D6	;LOOP ON ERROR SWITCH^
  9665
  9666
  9667			001451		T=T+1
  9668		777777	777767			ZZ=XX
  9669		777777	777757			XX=XX+XX+1
  9670						DFARP	T,200777,-1,-1,-1,200777,XX,-1,-1,201777,ZZ,377777,-1^
  9671						DMOVE	AC,[200777,,-1
  9672	040221	120 04 0 00 044227 			-1,,-1]
  9673						DFAD	AC,[200777,,XX
  9674	040222	110 04 0 00 044410 			-1,,-1]
  9675	040223	312 04 0 00 044412 		CAME	AC,[201777,,ZZ]
  9676	040224	003 04 0 00 001451 		ER3	AC,T
  9677	040225	312 05 0 00 043655 		CAME	AC+1,[377777,,-1]
  9678	040226	004 05 0 00 001451 		ER4	AC+1,T
  9679	040227	321 10 0 00 040221 		JUMPL	AC+4,.-^D6	;LOOP ON ERROR SWITCH^
  9680
  9681
  9682			001452		T=T+1
  9683		777777	777757			ZZ=XX
  9684		777777	777737			XX=XX+XX+1
  9685						DFARP	T,200777,-1,-1,-1,200777,XX,-1,-1,201777,ZZ,377777,-1^
  9686						DMOVE	AC,[200777,,-1
  9687	040230	120 04 0 00 044227 			-1,,-1]
  9688						DFAD	AC,[200777,,XX
  9689	040231	110 04 0 00 044413 			-1,,-1]
  9690	040232	312 04 0 00 044415 		CAME	AC,[201777,,ZZ]
  9691	040233	003 04 0 00 001452 		ER3	AC,T
  9692	040234	312 05 0 00 043655 		CAME	AC+1,[377777,,-1]
  9693	040235	004 05 0 00 001452 		ER4	AC+1,T
  9694	040236	321 10 0 00 040230 		JUMPL	AC+4,.-^D6	;LOOP ON ERROR SWITCH^
  9695
  9696
  9697			001453		T=T+1
  9698		777777	777737			ZZ=XX
  9699		777777	777677			XX=XX+XX+1
  9700						DFARP	T,200777,-1,-1,-1,200777,XX,-1,-1,201777,ZZ,377777,-1^
  9701						DMOVE	AC,[200777,,-1
  9702	040237	120 04 0 00 044227 			-1,,-1]
  9703						DFAD	AC,[200777,,XX
  9704	040240	110 04 0 00 044416 			-1,,-1]
  9705	040241	312 04 0 00 044420 		CAME	AC,[201777,,ZZ]DBKCD 	PDP-10 KI10 ADVANCED INSTRUCTION DIAGNOSTIC #4, VERSION 0,3 	MACRO %52(462) 12:35  9-AUG-76 PAGE 10-15
DBKCDM	MAC	26-MAY-76 16:52		TEST AR, ARX, AD, ADX AND NORMALIZE LOGIC FOR DOUBLE FLOATING POINT OPERATIONS     SEQ 0196

  9706	040242	003 04 0 00 001453 		ER3	AC,T
  9707	040243	312 05 0 00 043655 		CAME	AC+1,[377777,,-1]
  9708	040244	004 05 0 00 001453 		ER4	AC+1,T
  9709	040245	321 10 0 00 040237 		JUMPL	AC+4,.-^D6	;LOOP ON ERROR SWITCH^
  9710
  9711
  9712			001454		T=T+1
  9713		777777	777677			ZZ=XX
  9714		777777	777577			XX=XX+XX+1
  9715						DFARP	T,200777,-1,-1,-1,200777,XX,-1,-1,201777,ZZ,377777,-1^
  9716						DMOVE	AC,[200777,,-1
  9717	040246	120 04 0 00 044227 			-1,,-1]
  9718						DFAD	AC,[200777,,XX
  9719	040247	110 04 0 00 044421 			-1,,-1]
  9720	040250	312 04 0 00 044423 		CAME	AC,[201777,,ZZ]
  9721	040251	003 04 0 00 001454 		ER3	AC,T
  9722	040252	312 05 0 00 043655 		CAME	AC+1,[377777,,-1]
  9723	040253	004 05 0 00 001454 		ER4	AC+1,T
  9724	040254	321 10 0 00 040246 		JUMPL	AC+4,.-^D6	;LOOP ON ERROR SWITCH^
  9725
  9726
  9727			001455		T=T+1
  9728		777777	777577			ZZ=XX
  9729		777777	777377			XX=XX+XX+1
  9730						DFARP	T,200777,-1,-1,-1,200777,XX,-1,-1,201777,ZZ,377777,-1^
  9731						DMOVE	AC,[200777,,-1
  9732	040255	120 04 0 00 044227 			-1,,-1]
  9733						DFAD	AC,[200777,,XX
  9734	040256	110 04 0 00 044424 			-1,,-1]
  9735	040257	312 04 0 00 044426 		CAME	AC,[201777,,ZZ]
  9736	040260	003 04 0 00 001455 		ER3	AC,T
  9737	040261	312 05 0 00 043655 		CAME	AC+1,[377777,,-1]
  9738	040262	004 05 0 00 001455 		ER4	AC+1,T
  9739	040263	321 10 0 00 040255 		JUMPL	AC+4,.-^D6	;LOOP ON ERROR SWITCH^
  9740
  9741
  9742			001456		T=T+1
  9743		777777	777377			ZZ=XX
  9744		777777	776777			XX=XX+XX+1
  9745						DFARP	T,200777,-1,-1,-1,200777,XX,-1,-1,201777,ZZ,377777,-1^
  9746						DMOVE	AC,[200777,,-1
  9747	040264	120 04 0 00 044227 			-1,,-1]
  9748						DFAD	AC,[200777,,XX
  9749	040265	110 04 0 00 044427 			-1,,-1]
  9750	040266	312 04 0 00 044431 		CAME	AC,[201777,,ZZ]
  9751	040267	003 04 0 00 001456 		ER3	AC,T
  9752	040270	312 05 0 00 043655 		CAME	AC+1,[377777,,-1]
  9753	040271	004 05 0 00 001456 		ER4	AC+1,T
  9754	040272	321 10 0 00 040264 		JUMPL	AC+4,.-^D6	;LOOP ON ERROR SWITCH^
  9755
  9756
  9757			001457		T=T+1
  9758		777777	776777			ZZ=XX
  9759		777777	775777			XX=XX+XX+1
  9760						DFARP	T,200777,-1,-1,-1,200777,XX,-1,-1,201777,ZZ,377777,-1^DBKCD 	PDP-10 KI10 ADVANCED INSTRUCTION DIAGNOSTIC #4, VERSION 0,3 	MACRO %52(462) 12:35  9-AUG-76 PAGE 10-16
DBKCDM	MAC	26-MAY-76 16:52		TEST AR, ARX, AD, ADX AND NORMALIZE LOGIC FOR DOUBLE FLOATING POINT OPERATIONS     SEQ 0197

  9761						DMOVE	AC,[200777,,-1
  9762	040273	120 04 0 00 044227 			-1,,-1]
  9763						DFAD	AC,[200777,,XX
  9764	040274	110 04 0 00 044432 			-1,,-1]
  9765	040275	312 04 0 00 044434 		CAME	AC,[201777,,ZZ]
  9766	040276	003 04 0 00 001457 		ER3	AC,T
  9767	040277	312 05 0 00 043655 		CAME	AC+1,[377777,,-1]
  9768	040300	004 05 0 00 001457 		ER4	AC+1,T
  9769	040301	321 10 0 00 040273 		JUMPL	AC+4,.-^D6	;LOOP ON ERROR SWITCH^
  9770
  9771
  9772			001460		T=T+1
  9773		777777	775777			ZZ=XX
  9774		777777	773777			XX=XX+XX+1
  9775						DFARP	T,200777,-1,-1,-1,200777,XX,-1,-1,201777,ZZ,377777,-1^
  9776						DMOVE	AC,[200777,,-1
  9777	040302	120 04 0 00 044227 			-1,,-1]
  9778						DFAD	AC,[200777,,XX
  9779	040303	110 04 0 00 044435 			-1,,-1]
  9780	040304	312 04 0 00 044437 		CAME	AC,[201777,,ZZ]
  9781	040305	003 04 0 00 001460 		ER3	AC,T
  9782	040306	312 05 0 00 043655 		CAME	AC+1,[377777,,-1]
  9783	040307	004 05 0 00 001460 		ER4	AC+1,T
  9784	040310	321 10 0 00 040302 		JUMPL	AC+4,.-^D6	;LOOP ON ERROR SWITCH^
  9785
  9786
  9787			001461		T=T+1
  9788		777777	773777			ZZ=XX
  9789		777777	767777			XX=XX+XX+1
  9790						DFARP	T,200777,-1,-1,-1,200777,XX,-1,-1,201777,ZZ,377777,-1^
  9791						DMOVE	AC,[200777,,-1
  9792	040311	120 04 0 00 044227 			-1,,-1]
  9793						DFAD	AC,[200777,,XX
  9794	040312	110 04 0 00 044440 			-1,,-1]
  9795	040313	312 04 0 00 044442 		CAME	AC,[201777,,ZZ]
  9796	040314	003 04 0 00 001461 		ER3	AC,T
  9797	040315	312 05 0 00 043655 		CAME	AC+1,[377777,,-1]
  9798	040316	004 05 0 00 001461 		ER4	AC+1,T
  9799	040317	321 10 0 00 040311 		JUMPL	AC+4,.-^D6	;LOOP ON ERROR SWITCH^
  9800
  9801
  9802			001462		T=T+1
  9803		777777	767777			ZZ=XX
  9804		777777	757777			XX=XX+XX+1
  9805						DFARP	T,200777,-1,-1,-1,200777,XX,-1,-1,201777,ZZ,377777,-1^
  9806						DMOVE	AC,[200777,,-1
  9807	040320	120 04 0 00 044227 			-1,,-1]
  9808						DFAD	AC,[200777,,XX
  9809	040321	110 04 0 00 044443 			-1,,-1]
  9810	040322	312 04 0 00 044445 		CAME	AC,[201777,,ZZ]
  9811	040323	003 04 0 00 001462 		ER3	AC,T
  9812	040324	312 05 0 00 043655 		CAME	AC+1,[377777,,-1]
  9813	040325	004 05 0 00 001462 		ER4	AC+1,T
  9814	040326	321 10 0 00 040320 		JUMPL	AC+4,.-^D6	;LOOP ON ERROR SWITCH^
  9815DBKCD 	PDP-10 KI10 ADVANCED INSTRUCTION DIAGNOSTIC #4, VERSION 0,3 	MACRO %52(462) 12:35  9-AUG-76 PAGE 10-17
DBKCDM	MAC	26-MAY-76 16:52		TEST AR, ARX, AD, ADX AND NORMALIZE LOGIC FOR DOUBLE FLOATING POINT OPERATIONS     SEQ 0198

  9816
  9817			001463		T=T+1
  9818		777777	757777			ZZ=XX
  9819		777777	737777			XX=XX+XX+1
  9820						DFARP	T,200777,-1,-1,-1,200777,XX,-1,-1,201777,ZZ,377777,-1^
  9821						DMOVE	AC,[200777,,-1
  9822	040327	120 04 0 00 044227 			-1,,-1]
  9823						DFAD	AC,[200777,,XX
  9824	040330	110 04 0 00 044446 			-1,,-1]
  9825	040331	312 04 0 00 044450 		CAME	AC,[201777,,ZZ]
  9826	040332	003 04 0 00 001463 		ER3	AC,T
  9827	040333	312 05 0 00 043655 		CAME	AC+1,[377777,,-1]
  9828	040334	004 05 0 00 001463 		ER4	AC+1,T
  9829	040335	321 10 0 00 040327 		JUMPL	AC+4,.-^D6	;LOOP ON ERROR SWITCH^
  9830
  9831
  9832			001464		T=T+1
  9833		777777	737777			ZZ=XX
  9834		777777	677777			XX=XX+XX+1
  9835						DFARP	T,200777,-1,-1,-1,200777,XX,-1,-1,201777,ZZ,377777,-1^
  9836						DMOVE	AC,[200777,,-1
  9837	040336	120 04 0 00 044227 			-1,,-1]
  9838						DFAD	AC,[200777,,XX
  9839	040337	110 04 0 00 044451 			-1,,-1]
  9840	040340	312 04 0 00 044453 		CAME	AC,[201777,,ZZ]
  9841	040341	003 04 0 00 001464 		ER3	AC,T
  9842	040342	312 05 0 00 043655 		CAME	AC+1,[377777,,-1]
  9843	040343	004 05 0 00 001464 		ER4	AC+1,T
  9844	040344	321 10 0 00 040336 		JUMPL	AC+4,.-^D6	;LOOP ON ERROR SWITCH^
  9845
  9846
  9847			001465		T=T+1
  9848		777777	677777			ZZ=XX
  9849		777777	577777			XX=XX+XX+1
  9850						DFARP	T,200777,-1,-1,-1,200777,XX,-1,-1,201777,ZZ,377777,-1^
  9851						DMOVE	AC,[200777,,-1
  9852	040345	120 04 0 00 044227 			-1,,-1]
  9853						DFAD	AC,[200777,,XX
  9854	040346	110 04 0 00 044454 			-1,,-1]
  9855	040347	312 04 0 00 044456 		CAME	AC,[201777,,ZZ]
  9856	040350	003 04 0 00 001465 		ER3	AC,T
  9857	040351	312 05 0 00 043655 		CAME	AC+1,[377777,,-1]
  9858	040352	004 05 0 00 001465 		ER4	AC+1,T
  9859	040353	321 10 0 00 040345 		JUMPL	AC+4,.-^D6	;LOOP ON ERROR SWITCH^
  9860
  9861
  9862			001466		T=T+1
  9863		777777	577777			ZZ=XX
  9864		777777	377777			XX=XX+XX+1
  9865						DFARP	T,200777,-1,-1,-1,200777,XX,-1,-1,201777,ZZ,377777,-1^
  9866						DMOVE	AC,[200777,,-1
  9867	040354	120 04 0 00 044227 			-1,,-1]
  9868						DFAD	AC,[200777,,XX
  9869	040355	110 04 0 00 044457 			-1,,-1]
  9870	040356	312 04 0 00 044461 		CAME	AC,[201777,,ZZ]DBKCD 	PDP-10 KI10 ADVANCED INSTRUCTION DIAGNOSTIC #4, VERSION 0,3 	MACRO %52(462) 12:35  9-AUG-76 PAGE 10-18
DBKCDM	MAC	26-MAY-76 16:52		TEST AR, ARX, AD, ADX AND NORMALIZE LOGIC FOR DOUBLE FLOATING POINT OPERATIONS     SEQ 0199

  9871	040357	003 04 0 00 001466 		ER3	AC,T
  9872	040360	312 05 0 00 043655 		CAME	AC+1,[377777,,-1]
  9873	040361	004 05 0 00 001466 		ER4	AC+1,T
  9874	040362	321 10 0 00 040354 		JUMPL	AC+4,.-^D6	;LOOP ON ERROR SWITCH^
  9875
  9876
  9877			001467		T=T+1
  9878		777777	377777			ZZ=XX
  9879		777777	777776			XX=-2
  9880						DFARP	T,200777,-1,-1,-1,200777&XX,-1,-1,-1,201777,ZZ,377777,-1^
  9881						DMOVE	AC,[200777,,-1
  9882	040363	120 04 0 00 044227 			-1,,-1]
  9883						DFAD	AC,[200777&XX,,-1
  9884	040364	110 04 0 00 044462 			-1,,-1]
  9885	040365	312 04 0 00 044464 		CAME	AC,[201777,,ZZ]
  9886	040366	003 04 0 00 001467 		ER3	AC,T
  9887	040367	312 05 0 00 043655 		CAME	AC+1,[377777,,-1]
  9888	040370	004 05 0 00 001467 		ER4	AC+1,T
  9889	040371	321 10 0 00 040363 		JUMPL	AC+4,.-^D6	;LOOP ON ERROR SWITCH^
  9890
  9891
  9892						REPEAT	^D8,<
  9893					T=T+1
  9894						ZZ=XX
  9895						XX=XX+XX+1
  9896						DFARP	T,200777,-1,-1,-1,200777&XX,-1,-1,-1,201777&ZZ,-1,377777,-1
  9897					>DBKCD 	PDP-10 KI10 ADVANCED INSTRUCTION DIAGNOSTIC #4, VERSION 0,3 	MACRO %52(462) 12:35  9-AUG-76 PAGE 11
DBKCDM	MAC	26-MAY-76 16:52		TEST AR, ARX, AD, ADX AND NORMALIZE LOGIC FOR DOUBLE FLOATING POINT OPERATIONS     SEQ 0200

  9898
  9899			001470		T=T+1
  9900		777777	777776			ZZ=XX
  9901		777777	777775			XX=XX+XX+1
  9902						DFARP	T,200777,-1,-1,-1,200777&XX,-1,-1,-1,201777&ZZ,-1,377777,-1^
  9903						DMOVE	AC,[200777,,-1
  9904	040372	120 04 0 00 044227 			-1,,-1]
  9905						DFAD	AC,[200777&XX,,-1
  9906	040373	110 04 0 00 044465 			-1,,-1]
  9907	040374	312 04 0 00 044467 		CAME	AC,[201777&ZZ,,-1]
  9908	040375	003 04 0 00 001470 		ER3	AC,T
  9909	040376	312 05 0 00 043655 		CAME	AC+1,[377777,,-1]
  9910	040377	004 05 0 00 001470 		ER4	AC+1,T
  9911	040400	321 10 0 00 040372 		JUMPL	AC+4,.-^D6	;LOOP ON ERROR SWITCH^
  9912
  9913
  9914			001471		T=T+1
  9915		777777	777775			ZZ=XX
  9916		777777	777773			XX=XX+XX+1
  9917						DFARP	T,200777,-1,-1,-1,200777&XX,-1,-1,-1,201777&ZZ,-1,377777,-1^
  9918						DMOVE	AC,[200777,,-1
  9919	040401	120 04 0 00 044227 			-1,,-1]
  9920						DFAD	AC,[200777&XX,,-1
  9921	040402	110 04 0 00 044470 			-1,,-1]
  9922	040403	312 04 0 00 044472 		CAME	AC,[201777&ZZ,,-1]
  9923	040404	003 04 0 00 001471 		ER3	AC,T
  9924	040405	312 05 0 00 043655 		CAME	AC+1,[377777,,-1]
  9925	040406	004 05 0 00 001471 		ER4	AC+1,T
  9926	040407	321 10 0 00 040401 		JUMPL	AC+4,.-^D6	;LOOP ON ERROR SWITCH^
  9927
  9928
  9929			001472		T=T+1
  9930		777777	777773			ZZ=XX
  9931		777777	777767			XX=XX+XX+1
  9932						DFARP	T,200777,-1,-1,-1,200777&XX,-1,-1,-1,201777&ZZ,-1,377777,-1^
  9933						DMOVE	AC,[200777,,-1
  9934	040410	120 04 0 00 044227 			-1,,-1]
  9935						DFAD	AC,[200777&XX,,-1
  9936	040411	110 04 0 00 044473 			-1,,-1]
  9937	040412	312 04 0 00 044475 		CAME	AC,[201777&ZZ,,-1]
  9938	040413	003 04 0 00 001472 		ER3	AC,T
  9939	040414	312 05 0 00 043655 		CAME	AC+1,[377777,,-1]
  9940	040415	004 05 0 00 001472 		ER4	AC+1,T
  9941	040416	321 10 0 00 040410 		JUMPL	AC+4,.-^D6	;LOOP ON ERROR SWITCH^
  9942
  9943
  9944			001473		T=T+1
  9945		777777	777767			ZZ=XX
  9946		777777	777757			XX=XX+XX+1
  9947						DFARP	T,200777,-1,-1,-1,200777&XX,-1,-1,-1,201777&ZZ,-1,377777,-1^
  9948						DMOVE	AC,[200777,,-1
  9949	040417	120 04 0 00 044227 			-1,,-1]
  9950						DFAD	AC,[200777&XX,,-1
  9951	040420	110 04 0 00 044476 			-1,,-1]
  9952	040421	312 04 0 00 044500 		CAME	AC,[201777&ZZ,,-1]DBKCD 	PDP-10 KI10 ADVANCED INSTRUCTION DIAGNOSTIC #4, VERSION 0,3 	MACRO %52(462) 12:35  9-AUG-76 PAGE 11-1
DBKCDM	MAC	26-MAY-76 16:52		TEST AR, ARX, AD, ADX AND NORMALIZE LOGIC FOR DOUBLE FLOATING POINT OPERATIONS     SEQ 0201

  9953	040422	003 04 0 00 001473 		ER3	AC,T
  9954	040423	312 05 0 00 043655 		CAME	AC+1,[377777,,-1]
  9955	040424	004 05 0 00 001473 		ER4	AC+1,T
  9956	040425	321 10 0 00 040417 		JUMPL	AC+4,.-^D6	;LOOP ON ERROR SWITCH^
  9957
  9958
  9959			001474		T=T+1
  9960		777777	777757			ZZ=XX
  9961		777777	777737			XX=XX+XX+1
  9962						DFARP	T,200777,-1,-1,-1,200777&XX,-1,-1,-1,201777&ZZ,-1,377777,-1^
  9963						DMOVE	AC,[200777,,-1
  9964	040426	120 04 0 00 044227 			-1,,-1]
  9965						DFAD	AC,[200777&XX,,-1
  9966	040427	110 04 0 00 044501 			-1,,-1]
  9967	040430	312 04 0 00 044503 		CAME	AC,[201777&ZZ,,-1]
  9968	040431	003 04 0 00 001474 		ER3	AC,T
  9969	040432	312 05 0 00 043655 		CAME	AC+1,[377777,,-1]
  9970	040433	004 05 0 00 001474 		ER4	AC+1,T
  9971	040434	321 10 0 00 040426 		JUMPL	AC+4,.-^D6	;LOOP ON ERROR SWITCH^
  9972
  9973
  9974			001475		T=T+1
  9975		777777	777737			ZZ=XX
  9976		777777	777677			XX=XX+XX+1
  9977						DFARP	T,200777,-1,-1,-1,200777&XX,-1,-1,-1,201777&ZZ,-1,377777,-1^
  9978						DMOVE	AC,[200777,,-1
  9979	040435	120 04 0 00 044227 			-1,,-1]
  9980						DFAD	AC,[200777&XX,,-1
  9981	040436	110 04 0 00 044504 			-1,,-1]
  9982	040437	312 04 0 00 044506 		CAME	AC,[201777&ZZ,,-1]
  9983	040440	003 04 0 00 001475 		ER3	AC,T
  9984	040441	312 05 0 00 043655 		CAME	AC+1,[377777,,-1]
  9985	040442	004 05 0 00 001475 		ER4	AC+1,T
  9986	040443	321 10 0 00 040435 		JUMPL	AC+4,.-^D6	;LOOP ON ERROR SWITCH^
  9987
  9988
  9989			001476		T=T+1
  9990		777777	777677			ZZ=XX
  9991		777777	777577			XX=XX+XX+1
  9992						DFARP	T,200777,-1,-1,-1,200777&XX,-1,-1,-1,201777&ZZ,-1,377777,-1^
  9993						DMOVE	AC,[200777,,-1
  9994	040444	120 04 0 00 044227 			-1,,-1]
  9995						DFAD	AC,[200777&XX,,-1
  9996	040445	110 04 0 00 044507 			-1,,-1]
  9997	040446	312 04 0 00 044511 		CAME	AC,[201777&ZZ,,-1]
  9998	040447	003 04 0 00 001476 		ER3	AC,T
  9999	040450	312 05 0 00 043655 		CAME	AC+1,[377777,,-1]
 10000	040451	004 05 0 00 001476 		ER4	AC+1,T
 10001	040452	321 10 0 00 040444 		JUMPL	AC+4,.-^D6	;LOOP ON ERROR SWITCH^
 10002
 10003
 10004			001477		T=T+1
 10005		777777	777577			ZZ=XX
 10006		777777	777377			XX=XX+XX+1
 10007						DFARP	T,200777,-1,-1,-1,200777&XX,-1,-1,-1,201777&ZZ,-1,377777,-1^DBKCD 	PDP-10 KI10 ADVANCED INSTRUCTION DIAGNOSTIC #4, VERSION 0,3 	MACRO %52(462) 12:35  9-AUG-76 PAGE 11-2
DBKCDM	MAC	26-MAY-76 16:52		TEST AR, ARX, AD, ADX AND NORMALIZE LOGIC FOR DOUBLE FLOATING POINT OPERATIONS     SEQ 0202

 10008						DMOVE	AC,[200777,,-1
 10009	040453	120 04 0 00 044227 			-1,,-1]
 10010						DFAD	AC,[200777&XX,,-1
 10011	040454	110 04 0 00 044512 			-1,,-1]
 10012	040455	312 04 0 00 044514 		CAME	AC,[201777&ZZ,,-1]
 10013	040456	003 04 0 00 001477 		ER3	AC,T
 10014	040457	312 05 0 00 043655 		CAME	AC+1,[377777,,-1]
 10015	040460	004 05 0 00 001477 		ER4	AC+1,T
 10016	040461	321 10 0 00 040453 		JUMPL	AC+4,.-^D6	;LOOP ON ERROR SWITCH^
 10017
 10018					;RIPPLE ZEROS TESTS (TO A RIPPLED ZERO, ADD A FRACTION OF ALL ONES)
 10019
 10020			001500		T=1500
 10021
 10022			000000			XX=0
 10023
 10024
 10025					R1500:	REPEAT	^D18,<
 10026					T=T+1
 10027						ZZ=XX
 10028						IFE	ZZ,<ZZ=-1>
 10029						XX=XX+XX+1
 10030						IFE	<XX-1>,<XX=-2>
 10031						DFARP	T,200777,-1,-1,XX,200777,-1,-1,-1,201777,-1,377777,ZZ
 10032					>
 10033
 10034			001501		T=T+1
 10035			000000			ZZ=XX
 10036		777777	777777			IFE	ZZ,<ZZ=-1>
 10037			000001			XX=XX+XX+1
 10038		777777	777776			IFE	<XX-1>,<XX=-2>
 10039						DFARP	T,200777,-1,-1,XX,200777,-1,-1,-1,201777,-1,377777,ZZ^
 10040						DMOVE	AC,[200777,,-1
 10041	040462	120 04 0 00 044264 			-1,,XX]
 10042						DFAD	AC,[200777,,-1
 10043	040463	110 04 0 00 044227 			-1,,-1]
 10044	040464	312 04 0 00 044266 		CAME	AC,[201777,,-1]
 10045	040465	003 04 0 00 001501 		ER3	AC,T
 10046	040466	312 05 0 00 043655 		CAME	AC+1,[377777,,ZZ]
 10047	040467	004 05 0 00 001501 		ER4	AC+1,T
 10048	040470	321 10 0 00 040462 		JUMPL	AC+4,.-^D6	;LOOP ON ERROR SWITCH^
 10049
 10050
 10051			001502		T=T+1
 10052		777777	777776			ZZ=XX
 10053						IFE	ZZ,<ZZ=-1>
 10054		777777	777775			XX=XX+XX+1
 10055						IFE	<XX-1>,<XX=-2>
 10056						DFARP	T,200777,-1,-1,XX,200777,-1,-1,-1,201777,-1,377777,ZZ^
 10057						DMOVE	AC,[200777,,-1
 10058	040471	120 04 0 00 044267 			-1,,XX]
 10059						DFAD	AC,[200777,,-1
 10060	040472	110 04 0 00 044227 			-1,,-1]
 10061	040473	312 04 0 00 044266 		CAME	AC,[201777,,-1]
 10062	040474	003 04 0 00 001502 		ER3	AC,TDBKCD 	PDP-10 KI10 ADVANCED INSTRUCTION DIAGNOSTIC #4, VERSION 0,3 	MACRO %52(462) 12:35  9-AUG-76 PAGE 11-3
DBKCDM	MAC	26-MAY-76 16:52		TEST AR, ARX, AD, ADX AND NORMALIZE LOGIC FOR DOUBLE FLOATING POINT OPERATIONS     SEQ 0203

 10063	040475	312 05 0 00 043660 		CAME	AC+1,[377777,,ZZ]
 10064	040476	004 05 0 00 001502 		ER4	AC+1,T
 10065	040477	321 10 0 00 040471 		JUMPL	AC+4,.-^D6	;LOOP ON ERROR SWITCH^
 10066
 10067
 10068			001503		T=T+1
 10069		777777	777775			ZZ=XX
 10070						IFE	ZZ,<ZZ=-1>
 10071		777777	777773			XX=XX+XX+1
 10072						IFE	<XX-1>,<XX=-2>
 10073						DFARP	T,200777,-1,-1,XX,200777,-1,-1,-1,201777,-1,377777,ZZ^
 10074						DMOVE	AC,[200777,,-1
 10075	040500	120 04 0 00 044271 			-1,,XX]
 10076						DFAD	AC,[200777,,-1
 10077	040501	110 04 0 00 044227 			-1,,-1]
 10078	040502	312 04 0 00 044266 		CAME	AC,[201777,,-1]
 10079	040503	003 04 0 00 001503 		ER3	AC,T
 10080	040504	312 05 0 00 043663 		CAME	AC+1,[377777,,ZZ]
 10081	040505	004 05 0 00 001503 		ER4	AC+1,T
 10082	040506	321 10 0 00 040500 		JUMPL	AC+4,.-^D6	;LOOP ON ERROR SWITCH^
 10083
 10084
 10085			001504		T=T+1
 10086		777777	777773			ZZ=XX
 10087						IFE	ZZ,<ZZ=-1>
 10088		777777	777767			XX=XX+XX+1
 10089						IFE	<XX-1>,<XX=-2>
 10090						DFARP	T,200777,-1,-1,XX,200777,-1,-1,-1,201777,-1,377777,ZZ^
 10091						DMOVE	AC,[200777,,-1
 10092	040507	120 04 0 00 044273 			-1,,XX]
 10093						DFAD	AC,[200777,,-1
 10094	040510	110 04 0 00 044227 			-1,,-1]
 10095	040511	312 04 0 00 044266 		CAME	AC,[201777,,-1]
 10096	040512	003 04 0 00 001504 		ER3	AC,T
 10097	040513	312 05 0 00 043666 		CAME	AC+1,[377777,,ZZ]
 10098	040514	004 05 0 00 001504 		ER4	AC+1,T
 10099	040515	321 10 0 00 040507 		JUMPL	AC+4,.-^D6	;LOOP ON ERROR SWITCH^
 10100
 10101
 10102			001505		T=T+1
 10103		777777	777767			ZZ=XX
 10104						IFE	ZZ,<ZZ=-1>
 10105		777777	777757			XX=XX+XX+1
 10106						IFE	<XX-1>,<XX=-2>
 10107						DFARP	T,200777,-1,-1,XX,200777,-1,-1,-1,201777,-1,377777,ZZ^
 10108						DMOVE	AC,[200777,,-1
 10109	040516	120 04 0 00 044275 			-1,,XX]
 10110						DFAD	AC,[200777,,-1
 10111	040517	110 04 0 00 044227 			-1,,-1]
 10112	040520	312 04 0 00 044266 		CAME	AC,[201777,,-1]
 10113	040521	003 04 0 00 001505 		ER3	AC,T
 10114	040522	312 05 0 00 043671 		CAME	AC+1,[377777,,ZZ]
 10115	040523	004 05 0 00 001505 		ER4	AC+1,T
 10116	040524	321 10 0 00 040516 		JUMPL	AC+4,.-^D6	;LOOP ON ERROR SWITCH^
 10117DBKCD 	PDP-10 KI10 ADVANCED INSTRUCTION DIAGNOSTIC #4, VERSION 0,3 	MACRO %52(462) 12:35  9-AUG-76 PAGE 11-4
DBKCDM	MAC	26-MAY-76 16:52		TEST AR, ARX, AD, ADX AND NORMALIZE LOGIC FOR DOUBLE FLOATING POINT OPERATIONS     SEQ 0204

 10118
 10119			001506		T=T+1
 10120		777777	777757			ZZ=XX
 10121						IFE	ZZ,<ZZ=-1>
 10122		777777	777737			XX=XX+XX+1
 10123						IFE	<XX-1>,<XX=-2>
 10124						DFARP	T,200777,-1,-1,XX,200777,-1,-1,-1,201777,-1,377777,ZZ^
 10125						DMOVE	AC,[200777,,-1
 10126	040525	120 04 0 00 044277 			-1,,XX]
 10127						DFAD	AC,[200777,,-1
 10128	040526	110 04 0 00 044227 			-1,,-1]
 10129	040527	312 04 0 00 044266 		CAME	AC,[201777,,-1]
 10130	040530	003 04 0 00 001506 		ER3	AC,T
 10131	040531	312 05 0 00 043674 		CAME	AC+1,[377777,,ZZ]
 10132	040532	004 05 0 00 001506 		ER4	AC+1,T
 10133	040533	321 10 0 00 040525 		JUMPL	AC+4,.-^D6	;LOOP ON ERROR SWITCH^
 10134
 10135
 10136			001507		T=T+1
 10137		777777	777737			ZZ=XX
 10138						IFE	ZZ,<ZZ=-1>
 10139		777777	777677			XX=XX+XX+1
 10140						IFE	<XX-1>,<XX=-2>
 10141						DFARP	T,200777,-1,-1,XX,200777,-1,-1,-1,201777,-1,377777,ZZ^
 10142						DMOVE	AC,[200777,,-1
 10143	040534	120 04 0 00 044301 			-1,,XX]
 10144						DFAD	AC,[200777,,-1
 10145	040535	110 04 0 00 044227 			-1,,-1]
 10146	040536	312 04 0 00 044266 		CAME	AC,[201777,,-1]
 10147	040537	003 04 0 00 001507 		ER3	AC,T
 10148	040540	312 05 0 00 043677 		CAME	AC+1,[377777,,ZZ]
 10149	040541	004 05 0 00 001507 		ER4	AC+1,T
 10150	040542	321 10 0 00 040534 		JUMPL	AC+4,.-^D6	;LOOP ON ERROR SWITCH^
 10151
 10152
 10153			001510		T=T+1
 10154		777777	777677			ZZ=XX
 10155						IFE	ZZ,<ZZ=-1>
 10156		777777	777577			XX=XX+XX+1
 10157						IFE	<XX-1>,<XX=-2>
 10158						DFARP	T,200777,-1,-1,XX,200777,-1,-1,-1,201777,-1,377777,ZZ^
 10159						DMOVE	AC,[200777,,-1
 10160	040543	120 04 0 00 044303 			-1,,XX]
 10161						DFAD	AC,[200777,,-1
 10162	040544	110 04 0 00 044227 			-1,,-1]
 10163	040545	312 04 0 00 044266 		CAME	AC,[201777,,-1]
 10164	040546	003 04 0 00 001510 		ER3	AC,T
 10165	040547	312 05 0 00 043702 		CAME	AC+1,[377777,,ZZ]
 10166	040550	004 05 0 00 001510 		ER4	AC+1,T
 10167	040551	321 10 0 00 040543 		JUMPL	AC+4,.-^D6	;LOOP ON ERROR SWITCH^
 10168
 10169
 10170			001511		T=T+1
 10171		777777	777577			ZZ=XX
 10172						IFE	ZZ,<ZZ=-1>DBKCD 	PDP-10 KI10 ADVANCED INSTRUCTION DIAGNOSTIC #4, VERSION 0,3 	MACRO %52(462) 12:35  9-AUG-76 PAGE 11-5
DBKCDM	MAC	26-MAY-76 16:52		TEST AR, ARX, AD, ADX AND NORMALIZE LOGIC FOR DOUBLE FLOATING POINT OPERATIONS     SEQ 0205

 10173		777777	777377			XX=XX+XX+1
 10174						IFE	<XX-1>,<XX=-2>
 10175						DFARP	T,200777,-1,-1,XX,200777,-1,-1,-1,201777,-1,377777,ZZ^
 10176						DMOVE	AC,[200777,,-1
 10177	040552	120 04 0 00 044305 			-1,,XX]
 10178						DFAD	AC,[200777,,-1
 10179	040553	110 04 0 00 044227 			-1,,-1]
 10180	040554	312 04 0 00 044266 		CAME	AC,[201777,,-1]
 10181	040555	003 04 0 00 001511 		ER3	AC,T
 10182	040556	312 05 0 00 043705 		CAME	AC+1,[377777,,ZZ]
 10183	040557	004 05 0 00 001511 		ER4	AC+1,T
 10184	040560	321 10 0 00 040552 		JUMPL	AC+4,.-^D6	;LOOP ON ERROR SWITCH^
 10185
 10186
 10187			001512		T=T+1
 10188		777777	777377			ZZ=XX
 10189						IFE	ZZ,<ZZ=-1>
 10190		777777	776777			XX=XX+XX+1
 10191						IFE	<XX-1>,<XX=-2>
 10192						DFARP	T,200777,-1,-1,XX,200777,-1,-1,-1,201777,-1,377777,ZZ^
 10193						DMOVE	AC,[200777,,-1
 10194	040561	120 04 0 00 044307 			-1,,XX]
 10195						DFAD	AC,[200777,,-1
 10196	040562	110 04 0 00 044227 			-1,,-1]
 10197	040563	312 04 0 00 044266 		CAME	AC,[201777,,-1]
 10198	040564	003 04 0 00 001512 		ER3	AC,T
 10199	040565	312 05 0 00 043710 		CAME	AC+1,[377777,,ZZ]
 10200	040566	004 05 0 00 001512 		ER4	AC+1,T
 10201	040567	321 10 0 00 040561 		JUMPL	AC+4,.-^D6	;LOOP ON ERROR SWITCH^
 10202
 10203
 10204			001513		T=T+1
 10205		777777	776777			ZZ=XX
 10206						IFE	ZZ,<ZZ=-1>
 10207		777777	775777			XX=XX+XX+1
 10208						IFE	<XX-1>,<XX=-2>
 10209						DFARP	T,200777,-1,-1,XX,200777,-1,-1,-1,201777,-1,377777,ZZ^
 10210						DMOVE	AC,[200777,,-1
 10211	040570	120 04 0 00 044311 			-1,,XX]
 10212						DFAD	AC,[200777,,-1
 10213	040571	110 04 0 00 044227 			-1,,-1]
 10214	040572	312 04 0 00 044266 		CAME	AC,[201777,,-1]
 10215	040573	003 04 0 00 001513 		ER3	AC,T
 10216	040574	312 05 0 00 043713 		CAME	AC+1,[377777,,ZZ]
 10217	040575	004 05 0 00 001513 		ER4	AC+1,T
 10218	040576	321 10 0 00 040570 		JUMPL	AC+4,.-^D6	;LOOP ON ERROR SWITCH^
 10219
 10220
 10221			001514		T=T+1
 10222		777777	775777			ZZ=XX
 10223						IFE	ZZ,<ZZ=-1>
 10224		777777	773777			XX=XX+XX+1
 10225						IFE	<XX-1>,<XX=-2>
 10226						DFARP	T,200777,-1,-1,XX,200777,-1,-1,-1,201777,-1,377777,ZZ^
 10227						DMOVE	AC,[200777,,-1DBKCD 	PDP-10 KI10 ADVANCED INSTRUCTION DIAGNOSTIC #4, VERSION 0,3 	MACRO %52(462) 12:35  9-AUG-76 PAGE 11-6
DBKCDM	MAC	26-MAY-76 16:52		TEST AR, ARX, AD, ADX AND NORMALIZE LOGIC FOR DOUBLE FLOATING POINT OPERATIONS     SEQ 0206

 10228	040577	120 04 0 00 044313 			-1,,XX]
 10229						DFAD	AC,[200777,,-1
 10230	040600	110 04 0 00 044227 			-1,,-1]
 10231	040601	312 04 0 00 044266 		CAME	AC,[201777,,-1]
 10232	040602	003 04 0 00 001514 		ER3	AC,T
 10233	040603	312 05 0 00 043716 		CAME	AC+1,[377777,,ZZ]
 10234	040604	004 05 0 00 001514 		ER4	AC+1,T
 10235	040605	321 10 0 00 040577 		JUMPL	AC+4,.-^D6	;LOOP ON ERROR SWITCH^
 10236
 10237
 10238			001515		T=T+1
 10239		777777	773777			ZZ=XX
 10240						IFE	ZZ,<ZZ=-1>
 10241		777777	767777			XX=XX+XX+1
 10242						IFE	<XX-1>,<XX=-2>
 10243						DFARP	T,200777,-1,-1,XX,200777,-1,-1,-1,201777,-1,377777,ZZ^
 10244						DMOVE	AC,[200777,,-1
 10245	040606	120 04 0 00 044315 			-1,,XX]
 10246						DFAD	AC,[200777,,-1
 10247	040607	110 04 0 00 044227 			-1,,-1]
 10248	040610	312 04 0 00 044266 		CAME	AC,[201777,,-1]
 10249	040611	003 04 0 00 001515 		ER3	AC,T
 10250	040612	312 05 0 00 043721 		CAME	AC+1,[377777,,ZZ]
 10251	040613	004 05 0 00 001515 		ER4	AC+1,T
 10252	040614	321 10 0 00 040606 		JUMPL	AC+4,.-^D6	;LOOP ON ERROR SWITCH^
 10253
 10254
 10255			001516		T=T+1
 10256		777777	767777			ZZ=XX
 10257						IFE	ZZ,<ZZ=-1>
 10258		777777	757777			XX=XX+XX+1
 10259						IFE	<XX-1>,<XX=-2>
 10260						DFARP	T,200777,-1,-1,XX,200777,-1,-1,-1,201777,-1,377777,ZZ^
 10261						DMOVE	AC,[200777,,-1
 10262	040615	120 04 0 00 044317 			-1,,XX]
 10263						DFAD	AC,[200777,,-1
 10264	040616	110 04 0 00 044227 			-1,,-1]
 10265	040617	312 04 0 00 044266 		CAME	AC,[201777,,-1]
 10266	040620	003 04 0 00 001516 		ER3	AC,T
 10267	040621	312 05 0 00 043724 		CAME	AC+1,[377777,,ZZ]
 10268	040622	004 05 0 00 001516 		ER4	AC+1,T
 10269	040623	321 10 0 00 040615 		JUMPL	AC+4,.-^D6	;LOOP ON ERROR SWITCH^
 10270
 10271
 10272			001517		T=T+1
 10273		777777	757777			ZZ=XX
 10274						IFE	ZZ,<ZZ=-1>
 10275		777777	737777			XX=XX+XX+1
 10276						IFE	<XX-1>,<XX=-2>
 10277						DFARP	T,200777,-1,-1,XX,200777,-1,-1,-1,201777,-1,377777,ZZ^
 10278						DMOVE	AC,[200777,,-1
 10279	040624	120 04 0 00 044321 			-1,,XX]
 10280						DFAD	AC,[200777,,-1
 10281	040625	110 04 0 00 044227 			-1,,-1]
 10282	040626	312 04 0 00 044266 		CAME	AC,[201777,,-1]DBKCD 	PDP-10 KI10 ADVANCED INSTRUCTION DIAGNOSTIC #4, VERSION 0,3 	MACRO %52(462) 12:35  9-AUG-76 PAGE 11-7
DBKCDM	MAC	26-MAY-76 16:52		TEST AR, ARX, AD, ADX AND NORMALIZE LOGIC FOR DOUBLE FLOATING POINT OPERATIONS     SEQ 0207

 10283	040627	003 04 0 00 001517 		ER3	AC,T
 10284	040630	312 05 0 00 043727 		CAME	AC+1,[377777,,ZZ]
 10285	040631	004 05 0 00 001517 		ER4	AC+1,T
 10286	040632	321 10 0 00 040624 		JUMPL	AC+4,.-^D6	;LOOP ON ERROR SWITCH^
 10287
 10288
 10289			001520		T=T+1
 10290		777777	737777			ZZ=XX
 10291						IFE	ZZ,<ZZ=-1>
 10292		777777	677777			XX=XX+XX+1
 10293						IFE	<XX-1>,<XX=-2>
 10294						DFARP	T,200777,-1,-1,XX,200777,-1,-1,-1,201777,-1,377777,ZZ^
 10295						DMOVE	AC,[200777,,-1
 10296	040633	120 04 0 00 044323 			-1,,XX]
 10297						DFAD	AC,[200777,,-1
 10298	040634	110 04 0 00 044227 			-1,,-1]
 10299	040635	312 04 0 00 044266 		CAME	AC,[201777,,-1]
 10300	040636	003 04 0 00 001520 		ER3	AC,T
 10301	040637	312 05 0 00 043732 		CAME	AC+1,[377777,,ZZ]
 10302	040640	004 05 0 00 001520 		ER4	AC+1,T
 10303	040641	321 10 0 00 040633 		JUMPL	AC+4,.-^D6	;LOOP ON ERROR SWITCH^
 10304
 10305
 10306			001521		T=T+1
 10307		777777	677777			ZZ=XX
 10308						IFE	ZZ,<ZZ=-1>
 10309		777777	577777			XX=XX+XX+1
 10310						IFE	<XX-1>,<XX=-2>
 10311						DFARP	T,200777,-1,-1,XX,200777,-1,-1,-1,201777,-1,377777,ZZ^
 10312						DMOVE	AC,[200777,,-1
 10313	040642	120 04 0 00 044325 			-1,,XX]
 10314						DFAD	AC,[200777,,-1
 10315	040643	110 04 0 00 044227 			-1,,-1]
 10316	040644	312 04 0 00 044266 		CAME	AC,[201777,,-1]
 10317	040645	003 04 0 00 001521 		ER3	AC,T
 10318	040646	312 05 0 00 043735 		CAME	AC+1,[377777,,ZZ]
 10319	040647	004 05 0 00 001521 		ER4	AC+1,T
 10320	040650	321 10 0 00 040642 		JUMPL	AC+4,.-^D6	;LOOP ON ERROR SWITCH^
 10321
 10322
 10323			001522		T=T+1
 10324		777777	577777			ZZ=XX
 10325						IFE	ZZ,<ZZ=-1>
 10326		777777	377777			XX=XX+XX+1
 10327						IFE	<XX-1>,<XX=-2>
 10328						DFARP	T,200777,-1,-1,XX,200777,-1,-1,-1,201777,-1,377777,ZZ^
 10329						DMOVE	AC,[200777,,-1
 10330	040651	120 04 0 00 044327 			-1,,XX]
 10331						DFAD	AC,[200777,,-1
 10332	040652	110 04 0 00 044227 			-1,,-1]
 10333	040653	312 04 0 00 044266 		CAME	AC,[201777,,-1]
 10334	040654	003 04 0 00 001522 		ER3	AC,T
 10335	040655	312 05 0 00 043740 		CAME	AC+1,[377777,,ZZ]
 10336	040656	004 05 0 00 001522 		ER4	AC+1,T
 10337	040657	321 10 0 00 040651 		JUMPL	AC+4,.-^D6	;LOOP ON ERROR SWITCH^DBKCD 	PDP-10 KI10 ADVANCED INSTRUCTION DIAGNOSTIC #4, VERSION 0,3 	MACRO %52(462) 12:35  9-AUG-76 PAGE 11-8
DBKCDM	MAC	26-MAY-76 16:52		TEST AR, ARX, AD, ADX AND NORMALIZE LOGIC FOR DOUBLE FLOATING POINT OPERATIONS     SEQ 0208

 10338
 10339
 10340			001523		T=T+1
 10341		777777	377777			ZZ=XX
 10342		777777	777776			XX=-2
 10343						DFARP	T,200777,-1,XX,-1,200777,-1,-1,-1,201777,-1,377777,ZZ^
 10344						DMOVE	AC,[200777,,-1
 10345	040660	120 04 0 00 044331 			XX,,-1]
 10346						DFAD	AC,[200777,,-1
 10347	040661	110 04 0 00 044227 			-1,,-1]
 10348	040662	312 04 0 00 044266 		CAME	AC,[201777,,-1]
 10349	040663	003 04 0 00 001523 		ER3	AC,T
 10350	040664	312 05 0 00 043743 		CAME	AC+1,[377777,,ZZ]
 10351	040665	004 05 0 00 001523 		ER4	AC+1,T
 10352	040666	321 10 0 00 040660 		JUMPL	AC+4,.-^D6	;LOOP ON ERROR SWITCH^
 10353
 10354
 10355						REPEAT	^D16,<
 10356					T=T+1
 10357						ZZ=XX
 10358						XX=XX+XX+1
 10359						DFARP	T,200777,-1,XX,-1,200777,-1,-1,-1,201777,-1,ZZ&377777,-1
 10360					>
 10361
 10362			001524		T=T+1
 10363		777777	777776			ZZ=XX
 10364		777777	777775			XX=XX+XX+1
 10365						DFARP	T,200777,-1,XX,-1,200777,-1,-1,-1,201777,-1,ZZ&377777,-1^
 10366						DMOVE	AC,[200777,,-1
 10367	040667	120 04 0 00 044333 			XX,,-1]
 10368						DFAD	AC,[200777,,-1
 10369	040670	110 04 0 00 044227 			-1,,-1]
 10370	040671	312 04 0 00 044266 		CAME	AC,[201777,,-1]
 10371	040672	003 04 0 00 001524 		ER3	AC,T
 10372	040673	312 05 0 00 043746 		CAME	AC+1,[ZZ&377777,,-1]
 10373	040674	004 05 0 00 001524 		ER4	AC+1,T
 10374	040675	321 10 0 00 040667 		JUMPL	AC+4,.-^D6	;LOOP ON ERROR SWITCH^
 10375
 10376
 10377			001525		T=T+1
 10378		777777	777775			ZZ=XX
 10379		777777	777773			XX=XX+XX+1
 10380						DFARP	T,200777,-1,XX,-1,200777,-1,-1,-1,201777,-1,ZZ&377777,-1^
 10381						DMOVE	AC,[200777,,-1
 10382	040676	120 04 0 00 044335 			XX,,-1]
 10383						DFAD	AC,[200777,,-1
 10384	040677	110 04 0 00 044227 			-1,,-1]
 10385	040700	312 04 0 00 044266 		CAME	AC,[201777,,-1]
 10386	040701	003 04 0 00 001525 		ER3	AC,T
 10387	040702	312 05 0 00 043751 		CAME	AC+1,[ZZ&377777,,-1]
 10388	040703	004 05 0 00 001525 		ER4	AC+1,T
 10389	040704	321 10 0 00 040676 		JUMPL	AC+4,.-^D6	;LOOP ON ERROR SWITCH^
 10390
 10391
 10392			001526		T=T+1DBKCD 	PDP-10 KI10 ADVANCED INSTRUCTION DIAGNOSTIC #4, VERSION 0,3 	MACRO %52(462) 12:35  9-AUG-76 PAGE 11-9
DBKCDM	MAC	26-MAY-76 16:52		TEST AR, ARX, AD, ADX AND NORMALIZE LOGIC FOR DOUBLE FLOATING POINT OPERATIONS     SEQ 0209

 10393		777777	777773			ZZ=XX
 10394		777777	777767			XX=XX+XX+1
 10395						DFARP	T,200777,-1,XX,-1,200777,-1,-1,-1,201777,-1,ZZ&377777,-1^
 10396						DMOVE	AC,[200777,,-1
 10397	040705	120 04 0 00 044337 			XX,,-1]
 10398						DFAD	AC,[200777,,-1
 10399	040706	110 04 0 00 044227 			-1,,-1]
 10400	040707	312 04 0 00 044266 		CAME	AC,[201777,,-1]
 10401	040710	003 04 0 00 001526 		ER3	AC,T
 10402	040711	312 05 0 00 043754 		CAME	AC+1,[ZZ&377777,,-1]
 10403	040712	004 05 0 00 001526 		ER4	AC+1,T
 10404	040713	321 10 0 00 040705 		JUMPL	AC+4,.-^D6	;LOOP ON ERROR SWITCH^
 10405
 10406
 10407			001527		T=T+1
 10408		777777	777767			ZZ=XX
 10409		777777	777757			XX=XX+XX+1
 10410						DFARP	T,200777,-1,XX,-1,200777,-1,-1,-1,201777,-1,ZZ&377777,-1^
 10411						DMOVE	AC,[200777,,-1
 10412	040714	120 04 0 00 044341 			XX,,-1]
 10413						DFAD	AC,[200777,,-1
 10414	040715	110 04 0 00 044227 			-1,,-1]
 10415	040716	312 04 0 00 044266 		CAME	AC,[201777,,-1]
 10416	040717	003 04 0 00 001527 		ER3	AC,T
 10417	040720	312 05 0 00 043757 		CAME	AC+1,[ZZ&377777,,-1]
 10418	040721	004 05 0 00 001527 		ER4	AC+1,T
 10419	040722	321 10 0 00 040714 		JUMPL	AC+4,.-^D6	;LOOP ON ERROR SWITCH^
 10420
 10421
 10422			001530		T=T+1
 10423		777777	777757			ZZ=XX
 10424		777777	777737			XX=XX+XX+1
 10425						DFARP	T,200777,-1,XX,-1,200777,-1,-1,-1,201777,-1,ZZ&377777,-1^
 10426						DMOVE	AC,[200777,,-1
 10427	040723	120 04 0 00 044343 			XX,,-1]
 10428						DFAD	AC,[200777,,-1
 10429	040724	110 04 0 00 044227 			-1,,-1]
 10430	040725	312 04 0 00 044266 		CAME	AC,[201777,,-1]
 10431	040726	003 04 0 00 001530 		ER3	AC,T
 10432	040727	312 05 0 00 043762 		CAME	AC+1,[ZZ&377777,,-1]
 10433	040730	004 05 0 00 001530 		ER4	AC+1,T
 10434	040731	321 10 0 00 040723 		JUMPL	AC+4,.-^D6	;LOOP ON ERROR SWITCH^
 10435
 10436
 10437			001531		T=T+1
 10438		777777	777737			ZZ=XX
 10439		777777	777677			XX=XX+XX+1
 10440						DFARP	T,200777,-1,XX,-1,200777,-1,-1,-1,201777,-1,ZZ&377777,-1^
 10441						DMOVE	AC,[200777,,-1
 10442	040732	120 04 0 00 044345 			XX,,-1]
 10443						DFAD	AC,[200777,,-1
 10444	040733	110 04 0 00 044227 			-1,,-1]
 10445	040734	312 04 0 00 044266 		CAME	AC,[201777,,-1]
 10446	040735	003 04 0 00 001531 		ER3	AC,T
 10447	040736	312 05 0 00 043765 		CAME	AC+1,[ZZ&377777,,-1]DBKCD 	PDP-10 KI10 ADVANCED INSTRUCTION DIAGNOSTIC #4, VERSION 0,3 	MACRO %52(462) 12:35  9-AUG-76 PAGE 11-10
DBKCDM	MAC	26-MAY-76 16:52		TEST AR, ARX, AD, ADX AND NORMALIZE LOGIC FOR DOUBLE FLOATING POINT OPERATIONS     SEQ 0210

 10448	040737	004 05 0 00 001531 		ER4	AC+1,T
 10449	040740	321 10 0 00 040732 		JUMPL	AC+4,.-^D6	;LOOP ON ERROR SWITCH^
 10450
 10451
 10452			001532		T=T+1
 10453		777777	777677			ZZ=XX
 10454		777777	777577			XX=XX+XX+1
 10455						DFARP	T,200777,-1,XX,-1,200777,-1,-1,-1,201777,-1,ZZ&377777,-1^
 10456						DMOVE	AC,[200777,,-1
 10457	040741	120 04 0 00 044347 			XX,,-1]
 10458						DFAD	AC,[200777,,-1
 10459	040742	110 04 0 00 044227 			-1,,-1]
 10460	040743	312 04 0 00 044266 		CAME	AC,[201777,,-1]
 10461	040744	003 04 0 00 001532 		ER3	AC,T
 10462	040745	312 05 0 00 043770 		CAME	AC+1,[ZZ&377777,,-1]
 10463	040746	004 05 0 00 001532 		ER4	AC+1,T
 10464	040747	321 10 0 00 040741 		JUMPL	AC+4,.-^D6	;LOOP ON ERROR SWITCH^
 10465
 10466
 10467			001533		T=T+1
 10468		777777	777577			ZZ=XX
 10469		777777	777377			XX=XX+XX+1
 10470						DFARP	T,200777,-1,XX,-1,200777,-1,-1,-1,201777,-1,ZZ&377777,-1^
 10471						DMOVE	AC,[200777,,-1
 10472	040750	120 04 0 00 044351 			XX,,-1]
 10473						DFAD	AC,[200777,,-1
 10474	040751	110 04 0 00 044227 			-1,,-1]
 10475	040752	312 04 0 00 044266 		CAME	AC,[201777,,-1]
 10476	040753	003 04 0 00 001533 		ER3	AC,T
 10477	040754	312 05 0 00 043773 		CAME	AC+1,[ZZ&377777,,-1]
 10478	040755	004 05 0 00 001533 		ER4	AC+1,T
 10479	040756	321 10 0 00 040750 		JUMPL	AC+4,.-^D6	;LOOP ON ERROR SWITCH^
 10480
 10481
 10482			001534		T=T+1
 10483		777777	777377			ZZ=XX
 10484		777777	776777			XX=XX+XX+1
 10485						DFARP	T,200777,-1,XX,-1,200777,-1,-1,-1,201777,-1,ZZ&377777,-1^
 10486						DMOVE	AC,[200777,,-1
 10487	040757	120 04 0 00 044353 			XX,,-1]
 10488						DFAD	AC,[200777,,-1
 10489	040760	110 04 0 00 044227 			-1,,-1]
 10490	040761	312 04 0 00 044266 		CAME	AC,[201777,,-1]
 10491	040762	003 04 0 00 001534 		ER3	AC,T
 10492	040763	312 05 0 00 043776 		CAME	AC+1,[ZZ&377777,,-1]
 10493	040764	004 05 0 00 001534 		ER4	AC+1,T
 10494	040765	321 10 0 00 040757 		JUMPL	AC+4,.-^D6	;LOOP ON ERROR SWITCH^
 10495
 10496
 10497			001535		T=T+1
 10498		777777	776777			ZZ=XX
 10499		777777	775777			XX=XX+XX+1
 10500						DFARP	T,200777,-1,XX,-1,200777,-1,-1,-1,201777,-1,ZZ&377777,-1^
 10501						DMOVE	AC,[200777,,-1
 10502	040766	120 04 0 00 044355 			XX,,-1]DBKCD 	PDP-10 KI10 ADVANCED INSTRUCTION DIAGNOSTIC #4, VERSION 0,3 	MACRO %52(462) 12:35  9-AUG-76 PAGE 11-11
DBKCDM	MAC	26-MAY-76 16:52		TEST AR, ARX, AD, ADX AND NORMALIZE LOGIC FOR DOUBLE FLOATING POINT OPERATIONS     SEQ 0211

 10503						DFAD	AC,[200777,,-1
 10504	040767	110 04 0 00 044227 			-1,,-1]
 10505	040770	312 04 0 00 044266 		CAME	AC,[201777,,-1]
 10506	040771	003 04 0 00 001535 		ER3	AC,T
 10507	040772	312 05 0 00 044001 		CAME	AC+1,[ZZ&377777,,-1]
 10508	040773	004 05 0 00 001535 		ER4	AC+1,T
 10509	040774	321 10 0 00 040766 		JUMPL	AC+4,.-^D6	;LOOP ON ERROR SWITCH^
 10510
 10511
 10512			001536		T=T+1
 10513		777777	775777			ZZ=XX
 10514		777777	773777			XX=XX+XX+1
 10515						DFARP	T,200777,-1,XX,-1,200777,-1,-1,-1,201777,-1,ZZ&377777,-1^
 10516						DMOVE	AC,[200777,,-1
 10517	040775	120 04 0 00 044357 			XX,,-1]
 10518						DFAD	AC,[200777,,-1
 10519	040776	110 04 0 00 044227 			-1,,-1]
 10520	040777	312 04 0 00 044266 		CAME	AC,[201777,,-1]
 10521	041000	003 04 0 00 001536 		ER3	AC,T
 10522	041001	312 05 0 00 044004 		CAME	AC+1,[ZZ&377777,,-1]
 10523	041002	004 05 0 00 001536 		ER4	AC+1,T
 10524	041003	321 10 0 00 040775 		JUMPL	AC+4,.-^D6	;LOOP ON ERROR SWITCH^
 10525
 10526
 10527			001537		T=T+1
 10528		777777	773777			ZZ=XX
 10529		777777	767777			XX=XX+XX+1
 10530						DFARP	T,200777,-1,XX,-1,200777,-1,-1,-1,201777,-1,ZZ&377777,-1^
 10531						DMOVE	AC,[200777,,-1
 10532	041004	120 04 0 00 044361 			XX,,-1]
 10533						DFAD	AC,[200777,,-1
 10534	041005	110 04 0 00 044227 			-1,,-1]
 10535	041006	312 04 0 00 044266 		CAME	AC,[201777,,-1]
 10536	041007	003 04 0 00 001537 		ER3	AC,T
 10537	041010	312 05 0 00 044007 		CAME	AC+1,[ZZ&377777,,-1]
 10538	041011	004 05 0 00 001537 		ER4	AC+1,T
 10539	041012	321 10 0 00 041004 		JUMPL	AC+4,.-^D6	;LOOP ON ERROR SWITCH^
 10540
 10541
 10542			001540		T=T+1
 10543		777777	767777			ZZ=XX
 10544		777777	757777			XX=XX+XX+1
 10545						DFARP	T,200777,-1,XX,-1,200777,-1,-1,-1,201777,-1,ZZ&377777,-1^
 10546						DMOVE	AC,[200777,,-1
 10547	041013	120 04 0 00 044363 			XX,,-1]
 10548						DFAD	AC,[200777,,-1
 10549	041014	110 04 0 00 044227 			-1,,-1]
 10550	041015	312 04 0 00 044266 		CAME	AC,[201777,,-1]
 10551	041016	003 04 0 00 001540 		ER3	AC,T
 10552	041017	312 05 0 00 044012 		CAME	AC+1,[ZZ&377777,,-1]
 10553	041020	004 05 0 00 001540 		ER4	AC+1,T
 10554	041021	321 10 0 00 041013 		JUMPL	AC+4,.-^D6	;LOOP ON ERROR SWITCH^
 10555
 10556
 10557			001541		T=T+1DBKCD 	PDP-10 KI10 ADVANCED INSTRUCTION DIAGNOSTIC #4, VERSION 0,3 	MACRO %52(462) 12:35  9-AUG-76 PAGE 11-12
DBKCDM	MAC	26-MAY-76 16:52		TEST AR, ARX, AD, ADX AND NORMALIZE LOGIC FOR DOUBLE FLOATING POINT OPERATIONS     SEQ 0212

 10558		777777	757777			ZZ=XX
 10559		777777	737777			XX=XX+XX+1
 10560						DFARP	T,200777,-1,XX,-1,200777,-1,-1,-1,201777,-1,ZZ&377777,-1^
 10561						DMOVE	AC,[200777,,-1
 10562	041022	120 04 0 00 044365 			XX,,-1]
 10563						DFAD	AC,[200777,,-1
 10564	041023	110 04 0 00 044227 			-1,,-1]
 10565	041024	312 04 0 00 044266 		CAME	AC,[201777,,-1]
 10566	041025	003 04 0 00 001541 		ER3	AC,T
 10567	041026	312 05 0 00 044015 		CAME	AC+1,[ZZ&377777,,-1]
 10568	041027	004 05 0 00 001541 		ER4	AC+1,T
 10569	041030	321 10 0 00 041022 		JUMPL	AC+4,.-^D6	;LOOP ON ERROR SWITCH^
 10570
 10571
 10572			001542		T=T+1
 10573		777777	737777			ZZ=XX
 10574		777777	677777			XX=XX+XX+1
 10575						DFARP	T,200777,-1,XX,-1,200777,-1,-1,-1,201777,-1,ZZ&377777,-1^
 10576						DMOVE	AC,[200777,,-1
 10577	041031	120 04 0 00 044367 			XX,,-1]
 10578						DFAD	AC,[200777,,-1
 10579	041032	110 04 0 00 044227 			-1,,-1]
 10580	041033	312 04 0 00 044266 		CAME	AC,[201777,,-1]
 10581	041034	003 04 0 00 001542 		ER3	AC,T
 10582	041035	312 05 0 00 044020 		CAME	AC+1,[ZZ&377777,,-1]
 10583	041036	004 05 0 00 001542 		ER4	AC+1,T
 10584	041037	321 10 0 00 041031 		JUMPL	AC+4,.-^D6	;LOOP ON ERROR SWITCH^
 10585
 10586
 10587			001543		T=T+1
 10588		777777	677777			ZZ=XX
 10589		777777	577777			XX=XX+XX+1
 10590						DFARP	T,200777,-1,XX,-1,200777,-1,-1,-1,201777,-1,ZZ&377777,-1^
 10591						DMOVE	AC,[200777,,-1
 10592	041040	120 04 0 00 044371 			XX,,-1]
 10593						DFAD	AC,[200777,,-1
 10594	041041	110 04 0 00 044227 			-1,,-1]
 10595	041042	312 04 0 00 044266 		CAME	AC,[201777,,-1]
 10596	041043	003 04 0 00 001543 		ER3	AC,T
 10597	041044	312 05 0 00 044023 		CAME	AC+1,[ZZ&377777,,-1]
 10598	041045	004 05 0 00 001543 		ER4	AC+1,T
 10599	041046	321 10 0 00 041040 		JUMPL	AC+4,.-^D6	;LOOP ON ERROR SWITCH^
 10600
 10601
 10602			001544		T=T+1
 10603		777777	377777			XX=XX+XX+1
 10604		777777	377777			ZZ=XX
 10605						DFARP	T,200777,-1,XX,-1,200777,-1,-1,-1,201777,-1,ZZ,-1^
 10606						DMOVE	AC,[200777,,-1
 10607	041047	120 04 0 00 044373 			XX,,-1]
 10608						DFAD	AC,[200777,,-1
 10609	041050	110 04 0 00 044227 			-1,,-1]
 10610	041051	312 04 0 00 044266 		CAME	AC,[201777,,-1]
 10611	041052	003 04 0 00 001544 		ER3	AC,T
 10612	041053	312 05 0 00 043655 		CAME	AC+1,[ZZ,,-1]DBKCD 	PDP-10 KI10 ADVANCED INSTRUCTION DIAGNOSTIC #4, VERSION 0,3 	MACRO %52(462) 12:35  9-AUG-76 PAGE 11-13
DBKCDM	MAC	26-MAY-76 16:52		TEST AR, ARX, AD, ADX AND NORMALIZE LOGIC FOR DOUBLE FLOATING POINT OPERATIONS     SEQ 0213

 10613	041054	004 05 0 00 001544 		ER4	AC+1,T
 10614	041055	321 10 0 00 041047 		JUMPL	AC+4,.-^D6	;LOOP ON ERROR SWITCH^
 10615
 10616			001545		T=T+1
 10617			177777			ZZ=XX&177777
 10618		777777	777776			XX=-2
 10619						DFARP	T,200777,XX,-1,-1,200777,-1,-1,-1,201777,-1,ZZ,-1^
 10620						DMOVE	AC,[200777,,XX
 10621	041056	120 04 0 00 044375 			-1,,-1]
 10622						DFAD	AC,[200777,,-1
 10623	041057	110 04 0 00 044227 			-1,,-1]
 10624	041060	312 04 0 00 044266 		CAME	AC,[201777,,-1]
 10625	041061	003 04 0 00 001545 		ER3	AC,T
 10626	041062	312 05 0 00 044026 		CAME	AC+1,[ZZ,,-1]
 10627	041063	004 05 0 00 001545 		ER4	AC+1,T
 10628	041064	321 10 0 00 041056 		JUMPL	AC+4,.-^D6	;LOOP ON ERROR SWITCH^
 10629
 10630
 10631						REPEAT	^D17,<
 10632					T=T+1
 10633						ZZ=XX
 10634						XX=XX+XX+1
 10635						DFARP	T,200777,XX,-1,-1,200777,-1,-1,-1,201777,ZZ,377777,-1
 10636					>
 10637
 10638			001546		T=T+1
 10639		777777	777776			ZZ=XX
 10640		777777	777775			XX=XX+XX+1
 10641						DFARP	T,200777,XX,-1,-1,200777,-1,-1,-1,201777,ZZ,377777,-1^
 10642						DMOVE	AC,[200777,,XX
 10643	041065	120 04 0 00 044377 			-1,,-1]
 10644						DFAD	AC,[200777,,-1
 10645	041066	110 04 0 00 044227 			-1,,-1]
 10646	041067	312 04 0 00 044401 		CAME	AC,[201777,,ZZ]
 10647	041070	003 04 0 00 001546 		ER3	AC,T
 10648	041071	312 05 0 00 043655 		CAME	AC+1,[377777,,-1]
 10649	041072	004 05 0 00 001546 		ER4	AC+1,T
 10650	041073	321 10 0 00 041065 		JUMPL	AC+4,.-^D6	;LOOP ON ERROR SWITCH^
 10651
 10652
 10653			001547		T=T+1
 10654		777777	777775			ZZ=XX
 10655		777777	777773			XX=XX+XX+1
 10656						DFARP	T,200777,XX,-1,-1,200777,-1,-1,-1,201777,ZZ,377777,-1^
 10657						DMOVE	AC,[200777,,XX
 10658	041074	120 04 0 00 044402 			-1,,-1]
 10659						DFAD	AC,[200777,,-1
 10660	041075	110 04 0 00 044227 			-1,,-1]
 10661	041076	312 04 0 00 044404 		CAME	AC,[201777,,ZZ]
 10662	041077	003 04 0 00 001547 		ER3	AC,T
 10663	041100	312 05 0 00 043655 		CAME	AC+1,[377777,,-1]
 10664	041101	004 05 0 00 001547 		ER4	AC+1,T
 10665	041102	321 10 0 00 041074 		JUMPL	AC+4,.-^D6	;LOOP ON ERROR SWITCH^
 10666
 10667DBKCD 	PDP-10 KI10 ADVANCED INSTRUCTION DIAGNOSTIC #4, VERSION 0,3 	MACRO %52(462) 12:35  9-AUG-76 PAGE 11-14
DBKCDM	MAC	26-MAY-76 16:52		TEST AR, ARX, AD, ADX AND NORMALIZE LOGIC FOR DOUBLE FLOATING POINT OPERATIONS     SEQ 0214

 10668			001550		T=T+1
 10669		777777	777773			ZZ=XX
 10670		777777	777767			XX=XX+XX+1
 10671						DFARP	T,200777,XX,-1,-1,200777,-1,-1,-1,201777,ZZ,377777,-1^
 10672						DMOVE	AC,[200777,,XX
 10673	041103	120 04 0 00 044405 			-1,,-1]
 10674						DFAD	AC,[200777,,-1
 10675	041104	110 04 0 00 044227 			-1,,-1]
 10676	041105	312 04 0 00 044407 		CAME	AC,[201777,,ZZ]
 10677	041106	003 04 0 00 001550 		ER3	AC,T
 10678	041107	312 05 0 00 043655 		CAME	AC+1,[377777,,-1]
 10679	041110	004 05 0 00 001550 		ER4	AC+1,T
 10680	041111	321 10 0 00 041103 		JUMPL	AC+4,.-^D6	;LOOP ON ERROR SWITCH^
 10681
 10682
 10683			001551		T=T+1
 10684		777777	777767			ZZ=XX
 10685		777777	777757			XX=XX+XX+1
 10686						DFARP	T,200777,XX,-1,-1,200777,-1,-1,-1,201777,ZZ,377777,-1^
 10687						DMOVE	AC,[200777,,XX
 10688	041112	120 04 0 00 044410 			-1,,-1]
 10689						DFAD	AC,[200777,,-1
 10690	041113	110 04 0 00 044227 			-1,,-1]
 10691	041114	312 04 0 00 044412 		CAME	AC,[201777,,ZZ]
 10692	041115	003 04 0 00 001551 		ER3	AC,T
 10693	041116	312 05 0 00 043655 		CAME	AC+1,[377777,,-1]
 10694	041117	004 05 0 00 001551 		ER4	AC+1,T
 10695	041120	321 10 0 00 041112 		JUMPL	AC+4,.-^D6	;LOOP ON ERROR SWITCH^
 10696
 10697
 10698			001552		T=T+1
 10699		777777	777757			ZZ=XX
 10700		777777	777737			XX=XX+XX+1
 10701						DFARP	T,200777,XX,-1,-1,200777,-1,-1,-1,201777,ZZ,377777,-1^
 10702						DMOVE	AC,[200777,,XX
 10703	041121	120 04 0 00 044413 			-1,,-1]
 10704						DFAD	AC,[200777,,-1
 10705	041122	110 04 0 00 044227 			-1,,-1]
 10706	041123	312 04 0 00 044415 		CAME	AC,[201777,,ZZ]
 10707	041124	003 04 0 00 001552 		ER3	AC,T
 10708	041125	312 05 0 00 043655 		CAME	AC+1,[377777,,-1]
 10709	041126	004 05 0 00 001552 		ER4	AC+1,T
 10710	041127	321 10 0 00 041121 		JUMPL	AC+4,.-^D6	;LOOP ON ERROR SWITCH^
 10711
 10712
 10713			001553		T=T+1
 10714		777777	777737			ZZ=XX
 10715		777777	777677			XX=XX+XX+1
 10716						DFARP	T,200777,XX,-1,-1,200777,-1,-1,-1,201777,ZZ,377777,-1^
 10717						DMOVE	AC,[200777,,XX
 10718	041130	120 04 0 00 044416 			-1,,-1]
 10719						DFAD	AC,[200777,,-1
 10720	041131	110 04 0 00 044227 			-1,,-1]
 10721	041132	312 04 0 00 044420 		CAME	AC,[201777,,ZZ]
 10722	041133	003 04 0 00 001553 		ER3	AC,TDBKCD 	PDP-10 KI10 ADVANCED INSTRUCTION DIAGNOSTIC #4, VERSION 0,3 	MACRO %52(462) 12:35  9-AUG-76 PAGE 11-15
DBKCDM	MAC	26-MAY-76 16:52		TEST AR, ARX, AD, ADX AND NORMALIZE LOGIC FOR DOUBLE FLOATING POINT OPERATIONS     SEQ 0215

 10723	041134	312 05 0 00 043655 		CAME	AC+1,[377777,,-1]
 10724	041135	004 05 0 00 001553 		ER4	AC+1,T
 10725	041136	321 10 0 00 041130 		JUMPL	AC+4,.-^D6	;LOOP ON ERROR SWITCH^
 10726
 10727
 10728			001554		T=T+1
 10729		777777	777677			ZZ=XX
 10730		777777	777577			XX=XX+XX+1
 10731						DFARP	T,200777,XX,-1,-1,200777,-1,-1,-1,201777,ZZ,377777,-1^
 10732						DMOVE	AC,[200777,,XX
 10733	041137	120 04 0 00 044421 			-1,,-1]
 10734						DFAD	AC,[200777,,-1
 10735	041140	110 04 0 00 044227 			-1,,-1]
 10736	041141	312 04 0 00 044423 		CAME	AC,[201777,,ZZ]
 10737	041142	003 04 0 00 001554 		ER3	AC,T
 10738	041143	312 05 0 00 043655 		CAME	AC+1,[377777,,-1]
 10739	041144	004 05 0 00 001554 		ER4	AC+1,T
 10740	041145	321 10 0 00 041137 		JUMPL	AC+4,.-^D6	;LOOP ON ERROR SWITCH^
 10741
 10742
 10743			001555		T=T+1
 10744		777777	777577			ZZ=XX
 10745		777777	777377			XX=XX+XX+1
 10746						DFARP	T,200777,XX,-1,-1,200777,-1,-1,-1,201777,ZZ,377777,-1^
 10747						DMOVE	AC,[200777,,XX
 10748	041146	120 04 0 00 044424 			-1,,-1]
 10749						DFAD	AC,[200777,,-1
 10750	041147	110 04 0 00 044227 			-1,,-1]
 10751	041150	312 04 0 00 044426 		CAME	AC,[201777,,ZZ]
 10752	041151	003 04 0 00 001555 		ER3	AC,T
 10753	041152	312 05 0 00 043655 		CAME	AC+1,[377777,,-1]
 10754	041153	004 05 0 00 001555 		ER4	AC+1,T
 10755	041154	321 10 0 00 041146 		JUMPL	AC+4,.-^D6	;LOOP ON ERROR SWITCH^
 10756
 10757
 10758			001556		T=T+1
 10759		777777	777377			ZZ=XX
 10760		777777	776777			XX=XX+XX+1
 10761						DFARP	T,200777,XX,-1,-1,200777,-1,-1,-1,201777,ZZ,377777,-1^
 10762						DMOVE	AC,[200777,,XX
 10763	041155	120 04 0 00 044427 			-1,,-1]
 10764						DFAD	AC,[200777,,-1
 10765	041156	110 04 0 00 044227 			-1,,-1]
 10766	041157	312 04 0 00 044431 		CAME	AC,[201777,,ZZ]
 10767	041160	003 04 0 00 001556 		ER3	AC,T
 10768	041161	312 05 0 00 043655 		CAME	AC+1,[377777,,-1]
 10769	041162	004 05 0 00 001556 		ER4	AC+1,T
 10770	041163	321 10 0 00 041155 		JUMPL	AC+4,.-^D6	;LOOP ON ERROR SWITCH^
 10771
 10772
 10773			001557		T=T+1
 10774		777777	776777			ZZ=XX
 10775		777777	775777			XX=XX+XX+1
 10776						DFARP	T,200777,XX,-1,-1,200777,-1,-1,-1,201777,ZZ,377777,-1^
 10777						DMOVE	AC,[200777,,XXDBKCD 	PDP-10 KI10 ADVANCED INSTRUCTION DIAGNOSTIC #4, VERSION 0,3 	MACRO %52(462) 12:35  9-AUG-76 PAGE 11-16
DBKCDM	MAC	26-MAY-76 16:52		TEST AR, ARX, AD, ADX AND NORMALIZE LOGIC FOR DOUBLE FLOATING POINT OPERATIONS     SEQ 0216

 10778	041164	120 04 0 00 044432 			-1,,-1]
 10779						DFAD	AC,[200777,,-1
 10780	041165	110 04 0 00 044227 			-1,,-1]
 10781	041166	312 04 0 00 044434 		CAME	AC,[201777,,ZZ]
 10782	041167	003 04 0 00 001557 		ER3	AC,T
 10783	041170	312 05 0 00 043655 		CAME	AC+1,[377777,,-1]
 10784	041171	004 05 0 00 001557 		ER4	AC+1,T
 10785	041172	321 10 0 00 041164 		JUMPL	AC+4,.-^D6	;LOOP ON ERROR SWITCH^
 10786
 10787
 10788			001560		T=T+1
 10789		777777	775777			ZZ=XX
 10790		777777	773777			XX=XX+XX+1
 10791						DFARP	T,200777,XX,-1,-1,200777,-1,-1,-1,201777,ZZ,377777,-1^
 10792						DMOVE	AC,[200777,,XX
 10793	041173	120 04 0 00 044435 			-1,,-1]
 10794						DFAD	AC,[200777,,-1
 10795	041174	110 04 0 00 044227 			-1,,-1]
 10796	041175	312 04 0 00 044437 		CAME	AC,[201777,,ZZ]
 10797	041176	003 04 0 00 001560 		ER3	AC,T
 10798	041177	312 05 0 00 043655 		CAME	AC+1,[377777,,-1]
 10799	041200	004 05 0 00 001560 		ER4	AC+1,T
 10800	041201	321 10 0 00 041173 		JUMPL	AC+4,.-^D6	;LOOP ON ERROR SWITCH^
 10801
 10802
 10803			001561		T=T+1
 10804		777777	773777			ZZ=XX
 10805		777777	767777			XX=XX+XX+1
 10806						DFARP	T,200777,XX,-1,-1,200777,-1,-1,-1,201777,ZZ,377777,-1^
 10807						DMOVE	AC,[200777,,XX
 10808	041202	120 04 0 00 044440 			-1,,-1]
 10809						DFAD	AC,[200777,,-1
 10810	041203	110 04 0 00 044227 			-1,,-1]
 10811	041204	312 04 0 00 044442 		CAME	AC,[201777,,ZZ]
 10812	041205	003 04 0 00 001561 		ER3	AC,T
 10813	041206	312 05 0 00 043655 		CAME	AC+1,[377777,,-1]
 10814	041207	004 05 0 00 001561 		ER4	AC+1,T
 10815	041210	321 10 0 00 041202 		JUMPL	AC+4,.-^D6	;LOOP ON ERROR SWITCH^
 10816
 10817
 10818			001562		T=T+1
 10819		777777	767777			ZZ=XX
 10820		777777	757777			XX=XX+XX+1
 10821						DFARP	T,200777,XX,-1,-1,200777,-1,-1,-1,201777,ZZ,377777,-1^
 10822						DMOVE	AC,[200777,,XX
 10823	041211	120 04 0 00 044443 			-1,,-1]
 10824						DFAD	AC,[200777,,-1
 10825	041212	110 04 0 00 044227 			-1,,-1]
 10826	041213	312 04 0 00 044445 		CAME	AC,[201777,,ZZ]
 10827	041214	003 04 0 00 001562 		ER3	AC,T
 10828	041215	312 05 0 00 043655 		CAME	AC+1,[377777,,-1]
 10829	041216	004 05 0 00 001562 		ER4	AC+1,T
 10830	041217	321 10 0 00 041211 		JUMPL	AC+4,.-^D6	;LOOP ON ERROR SWITCH^
 10831
 10832DBKCD 	PDP-10 KI10 ADVANCED INSTRUCTION DIAGNOSTIC #4, VERSION 0,3 	MACRO %52(462) 12:35  9-AUG-76 PAGE 11-17
DBKCDM	MAC	26-MAY-76 16:52		TEST AR, ARX, AD, ADX AND NORMALIZE LOGIC FOR DOUBLE FLOATING POINT OPERATIONS     SEQ 0217

 10833			001563		T=T+1
 10834		777777	757777			ZZ=XX
 10835		777777	737777			XX=XX+XX+1
 10836						DFARP	T,200777,XX,-1,-1,200777,-1,-1,-1,201777,ZZ,377777,-1^
 10837						DMOVE	AC,[200777,,XX
 10838	041220	120 04 0 00 044446 			-1,,-1]
 10839						DFAD	AC,[200777,,-1
 10840	041221	110 04 0 00 044227 			-1,,-1]
 10841	041222	312 04 0 00 044450 		CAME	AC,[201777,,ZZ]
 10842	041223	003 04 0 00 001563 		ER3	AC,T
 10843	041224	312 05 0 00 043655 		CAME	AC+1,[377777,,-1]
 10844	041225	004 05 0 00 001563 		ER4	AC+1,T
 10845	041226	321 10 0 00 041220 		JUMPL	AC+4,.-^D6	;LOOP ON ERROR SWITCH^
 10846
 10847
 10848			001564		T=T+1
 10849		777777	737777			ZZ=XX
 10850		777777	677777			XX=XX+XX+1
 10851						DFARP	T,200777,XX,-1,-1,200777,-1,-1,-1,201777,ZZ,377777,-1^
 10852						DMOVE	AC,[200777,,XX
 10853	041227	120 04 0 00 044451 			-1,,-1]
 10854						DFAD	AC,[200777,,-1
 10855	041230	110 04 0 00 044227 			-1,,-1]
 10856	041231	312 04 0 00 044453 		CAME	AC,[201777,,ZZ]
 10857	041232	003 04 0 00 001564 		ER3	AC,T
 10858	041233	312 05 0 00 043655 		CAME	AC+1,[377777,,-1]
 10859	041234	004 05 0 00 001564 		ER4	AC+1,T
 10860	041235	321 10 0 00 041227 		JUMPL	AC+4,.-^D6	;LOOP ON ERROR SWITCH^
 10861
 10862
 10863			001565		T=T+1
 10864		777777	677777			ZZ=XX
 10865		777777	577777			XX=XX+XX+1
 10866						DFARP	T,200777,XX,-1,-1,200777,-1,-1,-1,201777,ZZ,377777,-1^
 10867						DMOVE	AC,[200777,,XX
 10868	041236	120 04 0 00 044454 			-1,,-1]
 10869						DFAD	AC,[200777,,-1
 10870	041237	110 04 0 00 044227 			-1,,-1]
 10871	041240	312 04 0 00 044456 		CAME	AC,[201777,,ZZ]
 10872	041241	003 04 0 00 001565 		ER3	AC,T
 10873	041242	312 05 0 00 043655 		CAME	AC+1,[377777,,-1]
 10874	041243	004 05 0 00 001565 		ER4	AC+1,T
 10875	041244	321 10 0 00 041236 		JUMPL	AC+4,.-^D6	;LOOP ON ERROR SWITCH^
 10876
 10877
 10878			001566		T=T+1
 10879		777777	577777			ZZ=XX
 10880		777777	377777			XX=XX+XX+1
 10881						DFARP	T,200777,XX,-1,-1,200777,-1,-1,-1,201777,ZZ,377777,-1^
 10882						DMOVE	AC,[200777,,XX
 10883	041245	120 04 0 00 044457 			-1,,-1]
 10884						DFAD	AC,[200777,,-1
 10885	041246	110 04 0 00 044227 			-1,,-1]
 10886	041247	312 04 0 00 044461 		CAME	AC,[201777,,ZZ]
 10887	041250	003 04 0 00 001566 		ER3	AC,TDBKCD 	PDP-10 KI10 ADVANCED INSTRUCTION DIAGNOSTIC #4, VERSION 0,3 	MACRO %52(462) 12:35  9-AUG-76 PAGE 11-18
DBKCDM	MAC	26-MAY-76 16:52		TEST AR, ARX, AD, ADX AND NORMALIZE LOGIC FOR DOUBLE FLOATING POINT OPERATIONS     SEQ 0218

 10888	041251	312 05 0 00 043655 		CAME	AC+1,[377777,,-1]
 10889	041252	004 05 0 00 001566 		ER4	AC+1,T
 10890	041253	321 10 0 00 041245 		JUMPL	AC+4,.-^D6	;LOOP ON ERROR SWITCH^
 10891
 10892
 10893			001567		T=T+1
 10894		777777	377777			ZZ=XX
 10895		777777	777776			XX=-2
 10896						DFARP	T,200777&XX,-1,-1,-1,200777,-1,-1,-1,201777,ZZ,377777,-1^
 10897						DMOVE	AC,[200777&XX,,-1
 10898	041254	120 04 0 00 044462 			-1,,-1]
 10899						DFAD	AC,[200777,,-1
 10900	041255	110 04 0 00 044227 			-1,,-1]
 10901	041256	312 04 0 00 044464 		CAME	AC,[201777,,ZZ]
 10902	041257	003 04 0 00 001567 		ER3	AC,T
 10903	041260	312 05 0 00 043655 		CAME	AC+1,[377777,,-1]
 10904	041261	004 05 0 00 001567 		ER4	AC+1,T
 10905	041262	321 10 0 00 041254 		JUMPL	AC+4,.-^D6	;LOOP ON ERROR SWITCH^
 10906
 10907
 10908						REPEAT	^D8,<
 10909					T=T+1
 10910						ZZ=XX
 10911						XX=XX+XX+1
 10912						DFARP	T,200777&XX,-1,-1,-1,200777,-1,-1,-1,201777&ZZ,-1,377777,-1
 10913					>DBKCD 	PDP-10 KI10 ADVANCED INSTRUCTION DIAGNOSTIC #4, VERSION 0,3 	MACRO %52(462) 12:35  9-AUG-76 PAGE 12
DBKCDM	MAC	26-MAY-76 16:52		TEST AR, ARX, AD, ADX AND NORMALIZE LOGIC FOR DOUBLE FLOATING POINT OPERATIONS     SEQ 0219

 10914
 10915			001570		T=T+1
 10916		777777	777776			ZZ=XX
 10917		777777	777775			XX=XX+XX+1
 10918						DFARP	T,200777&XX,-1,-1,-1,200777,-1,-1,-1,201777&ZZ,-1,377777,-1^
 10919						DMOVE	AC,[200777&XX,,-1
 10920	041263	120 04 0 00 044465 			-1,,-1]
 10921						DFAD	AC,[200777,,-1
 10922	041264	110 04 0 00 044227 			-1,,-1]
 10923	041265	312 04 0 00 044467 		CAME	AC,[201777&ZZ,,-1]
 10924	041266	003 04 0 00 001570 		ER3	AC,T
 10925	041267	312 05 0 00 043655 		CAME	AC+1,[377777,,-1]
 10926	041270	004 05 0 00 001570 		ER4	AC+1,T
 10927	041271	321 10 0 00 041263 		JUMPL	AC+4,.-^D6	;LOOP ON ERROR SWITCH^
 10928
 10929
 10930			001571		T=T+1
 10931		777777	777775			ZZ=XX
 10932		777777	777773			XX=XX+XX+1
 10933						DFARP	T,200777&XX,-1,-1,-1,200777,-1,-1,-1,201777&ZZ,-1,377777,-1^
 10934						DMOVE	AC,[200777&XX,,-1
 10935	041272	120 04 0 00 044470 			-1,,-1]
 10936						DFAD	AC,[200777,,-1
 10937	041273	110 04 0 00 044227 			-1,,-1]
 10938	041274	312 04 0 00 044472 		CAME	AC,[201777&ZZ,,-1]
 10939	041275	003 04 0 00 001571 		ER3	AC,T
 10940	041276	312 05 0 00 043655 		CAME	AC+1,[377777,,-1]
 10941	041277	004 05 0 00 001571 		ER4	AC+1,T
 10942	041300	321 10 0 00 041272 		JUMPL	AC+4,.-^D6	;LOOP ON ERROR SWITCH^
 10943
 10944
 10945			001572		T=T+1
 10946		777777	777773			ZZ=XX
 10947		777777	777767			XX=XX+XX+1
 10948						DFARP	T,200777&XX,-1,-1,-1,200777,-1,-1,-1,201777&ZZ,-1,377777,-1^
 10949						DMOVE	AC,[200777&XX,,-1
 10950	041301	120 04 0 00 044473 			-1,,-1]
 10951						DFAD	AC,[200777,,-1
 10952	041302	110 04 0 00 044227 			-1,,-1]
 10953	041303	312 04 0 00 044475 		CAME	AC,[201777&ZZ,,-1]
 10954	041304	003 04 0 00 001572 		ER3	AC,T
 10955	041305	312 05 0 00 043655 		CAME	AC+1,[377777,,-1]
 10956	041306	004 05 0 00 001572 		ER4	AC+1,T
 10957	041307	321 10 0 00 041301 		JUMPL	AC+4,.-^D6	;LOOP ON ERROR SWITCH^
 10958
 10959
 10960			001573		T=T+1
 10961		777777	777767			ZZ=XX
 10962		777777	777757			XX=XX+XX+1
 10963						DFARP	T,200777&XX,-1,-1,-1,200777,-1,-1,-1,201777&ZZ,-1,377777,-1^
 10964						DMOVE	AC,[200777&XX,,-1
 10965	041310	120 04 0 00 044476 			-1,,-1]
 10966						DFAD	AC,[200777,,-1
 10967	041311	110 04 0 00 044227 			-1,,-1]
 10968	041312	312 04 0 00 044500 		CAME	AC,[201777&ZZ,,-1]DBKCD 	PDP-10 KI10 ADVANCED INSTRUCTION DIAGNOSTIC #4, VERSION 0,3 	MACRO %52(462) 12:35  9-AUG-76 PAGE 12-1
DBKCDM	MAC	26-MAY-76 16:52		TEST AR, ARX, AD, ADX AND NORMALIZE LOGIC FOR DOUBLE FLOATING POINT OPERATIONS     SEQ 0220

 10969	041313	003 04 0 00 001573 		ER3	AC,T
 10970	041314	312 05 0 00 043655 		CAME	AC+1,[377777,,-1]
 10971	041315	004 05 0 00 001573 		ER4	AC+1,T
 10972	041316	321 10 0 00 041310 		JUMPL	AC+4,.-^D6	;LOOP ON ERROR SWITCH^
 10973
 10974
 10975			001574		T=T+1
 10976		777777	777757			ZZ=XX
 10977		777777	777737			XX=XX+XX+1
 10978						DFARP	T,200777&XX,-1,-1,-1,200777,-1,-1,-1,201777&ZZ,-1,377777,-1^
 10979						DMOVE	AC,[200777&XX,,-1
 10980	041317	120 04 0 00 044501 			-1,,-1]
 10981						DFAD	AC,[200777,,-1
 10982	041320	110 04 0 00 044227 			-1,,-1]
 10983	041321	312 04 0 00 044503 		CAME	AC,[201777&ZZ,,-1]
 10984	041322	003 04 0 00 001574 		ER3	AC,T
 10985	041323	312 05 0 00 043655 		CAME	AC+1,[377777,,-1]
 10986	041324	004 05 0 00 001574 		ER4	AC+1,T
 10987	041325	321 10 0 00 041317 		JUMPL	AC+4,.-^D6	;LOOP ON ERROR SWITCH^
 10988
 10989
 10990			001575		T=T+1
 10991		777777	777737			ZZ=XX
 10992		777777	777677			XX=XX+XX+1
 10993						DFARP	T,200777&XX,-1,-1,-1,200777,-1,-1,-1,201777&ZZ,-1,377777,-1^
 10994						DMOVE	AC,[200777&XX,,-1
 10995	041326	120 04 0 00 044504 			-1,,-1]
 10996						DFAD	AC,[200777,,-1
 10997	041327	110 04 0 00 044227 			-1,,-1]
 10998	041330	312 04 0 00 044506 		CAME	AC,[201777&ZZ,,-1]
 10999	041331	003 04 0 00 001575 		ER3	AC,T
 11000	041332	312 05 0 00 043655 		CAME	AC+1,[377777,,-1]
 11001	041333	004 05 0 00 001575 		ER4	AC+1,T
 11002	041334	321 10 0 00 041326 		JUMPL	AC+4,.-^D6	;LOOP ON ERROR SWITCH^
 11003
 11004
 11005			001576		T=T+1
 11006		777777	777677			ZZ=XX
 11007		777777	777577			XX=XX+XX+1
 11008						DFARP	T,200777&XX,-1,-1,-1,200777,-1,-1,-1,201777&ZZ,-1,377777,-1^
 11009						DMOVE	AC,[200777&XX,,-1
 11010	041335	120 04 0 00 044507 			-1,,-1]
 11011						DFAD	AC,[200777,,-1
 11012	041336	110 04 0 00 044227 			-1,,-1]
 11013	041337	312 04 0 00 044511 		CAME	AC,[201777&ZZ,,-1]
 11014	041340	003 04 0 00 001576 		ER3	AC,T
 11015	041341	312 05 0 00 043655 		CAME	AC+1,[377777,,-1]
 11016	041342	004 05 0 00 001576 		ER4	AC+1,T
 11017	041343	321 10 0 00 041335 		JUMPL	AC+4,.-^D6	;LOOP ON ERROR SWITCH^
 11018
 11019
 11020			001577		T=T+1
 11021		777777	777577			ZZ=XX
 11022		777777	777377			XX=XX+XX+1
 11023						DFARP	T,200777&XX,-1,-1,-1,200777,-1,-1,-1,201777&ZZ,-1,377777,-1^DBKCD 	PDP-10 KI10 ADVANCED INSTRUCTION DIAGNOSTIC #4, VERSION 0,3 	MACRO %52(462) 12:35  9-AUG-76 PAGE 12-2
DBKCDM	MAC	26-MAY-76 16:52		TEST AR, ARX, AD, ADX AND NORMALIZE LOGIC FOR DOUBLE FLOATING POINT OPERATIONS     SEQ 0221

 11024						DMOVE	AC,[200777&XX,,-1
 11025	041344	120 04 0 00 044512 			-1,,-1]
 11026						DFAD	AC,[200777,,-1
 11027	041345	110 04 0 00 044227 			-1,,-1]
 11028	041346	312 04 0 00 044514 		CAME	AC,[201777&ZZ,,-1]
 11029	041347	003 04 0 00 001577 		ER3	AC,T
 11030	041350	312 05 0 00 043655 		CAME	AC+1,[377777,,-1]
 11031	041351	004 05 0 00 001577 		ER4	AC+1,T
 11032	041352	321 10 0 00 041344 		JUMPL	AC+4,.-^D6	;LOOP ON ERROR SWITCH^
 11033
 11034
 11035					;RIPPLE ONES TESTS (ADD A FRACTION OF A RIPPLED ONE TO SAME)
 11036
 11037			001600		T=1600
 11038			000000			XX=0
 11039			103400			ZZ=103400
 11040
 11041
 11042					R1600:	REPEAT	^D18,<
 11043					T=T+1
 11044						XX=XX+XX
 11045						IFE	XX,<XX=1>
 11046						ZZ=ZZ+1000
 11047						DFARP	T,200000,0,0,XX,200000,0,0,XX,ZZ,0,0,0
 11048					>
 11049
 11050			001601		T=T+1
 11051			000000			XX=XX+XX
 11052			000001			IFE	XX,<XX=1>
 11053			104400			ZZ=ZZ+1000
 11054						DFARP	T,200000,0,0,XX,200000,0,0,XX,ZZ,0,0,0^
 11055						DMOVE	AC,[200000,,0
 11056	041353	120 04 0 00 043650 			0,,XX]
 11057						DFAD	AC,[200000,,0
 11058	041354	110 04 0 00 043650 			0,,XX]
 11059	041355	312 04 0 00 043647 		CAME	AC,[ZZ,,0]
 11060	041356	003 04 0 00 001601 		ER3	AC,T
 11061	041357	312 05 0 00 043354 		CAME	AC+1,[0,,0]
 11062	041360	004 05 0 00 001601 		ER4	AC+1,T
 11063	041361	321 10 0 00 041353 		JUMPL	AC+4,.-^D6	;LOOP ON ERROR SWITCH^
 11064
 11065
 11066			001602		T=T+1
 11067			000002			XX=XX+XX
 11068						IFE	XX,<XX=1>
 11069			105400			ZZ=ZZ+1000
 11070						DFARP	T,200000,0,0,XX,200000,0,0,XX,ZZ,0,0,0^
 11071						DMOVE	AC,[200000,,0
 11072	041362	120 04 0 00 043645 			0,,XX]
 11073						DFAD	AC,[200000,,0
 11074	041363	110 04 0 00 043645 			0,,XX]
 11075	041364	312 04 0 00 043644 		CAME	AC,[ZZ,,0]
 11076	041365	003 04 0 00 001602 		ER3	AC,T
 11077	041366	312 05 0 00 043354 		CAME	AC+1,[0,,0]
 11078	041367	004 05 0 00 001602 		ER4	AC+1,TDBKCD 	PDP-10 KI10 ADVANCED INSTRUCTION DIAGNOSTIC #4, VERSION 0,3 	MACRO %52(462) 12:35  9-AUG-76 PAGE 12-3
DBKCDM	MAC	26-MAY-76 16:52		TEST AR, ARX, AD, ADX AND NORMALIZE LOGIC FOR DOUBLE FLOATING POINT OPERATIONS     SEQ 0222

 11079	041370	321 10 0 00 041362 		JUMPL	AC+4,.-^D6	;LOOP ON ERROR SWITCH^
 11080
 11081
 11082			001603		T=T+1
 11083			000004			XX=XX+XX
 11084						IFE	XX,<XX=1>
 11085			106400			ZZ=ZZ+1000
 11086						DFARP	T,200000,0,0,XX,200000,0,0,XX,ZZ,0,0,0^
 11087						DMOVE	AC,[200000,,0
 11088	041371	120 04 0 00 043642 			0,,XX]
 11089						DFAD	AC,[200000,,0
 11090	041372	110 04 0 00 043642 			0,,XX]
 11091	041373	312 04 0 00 043641 		CAME	AC,[ZZ,,0]
 11092	041374	003 04 0 00 001603 		ER3	AC,T
 11093	041375	312 05 0 00 043354 		CAME	AC+1,[0,,0]
 11094	041376	004 05 0 00 001603 		ER4	AC+1,T
 11095	041377	321 10 0 00 041371 		JUMPL	AC+4,.-^D6	;LOOP ON ERROR SWITCH^
 11096
 11097
 11098			001604		T=T+1
 11099			000010			XX=XX+XX
 11100						IFE	XX,<XX=1>
 11101			107400			ZZ=ZZ+1000
 11102						DFARP	T,200000,0,0,XX,200000,0,0,XX,ZZ,0,0,0^
 11103						DMOVE	AC,[200000,,0
 11104	041400	120 04 0 00 043637 			0,,XX]
 11105						DFAD	AC,[200000,,0
 11106	041401	110 04 0 00 043637 			0,,XX]
 11107	041402	312 04 0 00 043636 		CAME	AC,[ZZ,,0]
 11108	041403	003 04 0 00 001604 		ER3	AC,T
 11109	041404	312 05 0 00 043354 		CAME	AC+1,[0,,0]
 11110	041405	004 05 0 00 001604 		ER4	AC+1,T
 11111	041406	321 10 0 00 041400 		JUMPL	AC+4,.-^D6	;LOOP ON ERROR SWITCH^
 11112
 11113
 11114			001605		T=T+1
 11115			000020			XX=XX+XX
 11116						IFE	XX,<XX=1>
 11117			110400			ZZ=ZZ+1000
 11118						DFARP	T,200000,0,0,XX,200000,0,0,XX,ZZ,0,0,0^
 11119						DMOVE	AC,[200000,,0
 11120	041407	120 04 0 00 043634 			0,,XX]
 11121						DFAD	AC,[200000,,0
 11122	041410	110 04 0 00 043634 			0,,XX]
 11123	041411	312 04 0 00 043633 		CAME	AC,[ZZ,,0]
 11124	041412	003 04 0 00 001605 		ER3	AC,T
 11125	041413	312 05 0 00 043354 		CAME	AC+1,[0,,0]
 11126	041414	004 05 0 00 001605 		ER4	AC+1,T
 11127	041415	321 10 0 00 041407 		JUMPL	AC+4,.-^D6	;LOOP ON ERROR SWITCH^
 11128
 11129
 11130			001606		T=T+1
 11131			000040			XX=XX+XX
 11132						IFE	XX,<XX=1>
 11133			111400			ZZ=ZZ+1000DBKCD 	PDP-10 KI10 ADVANCED INSTRUCTION DIAGNOSTIC #4, VERSION 0,3 	MACRO %52(462) 12:35  9-AUG-76 PAGE 12-4
DBKCDM	MAC	26-MAY-76 16:52		TEST AR, ARX, AD, ADX AND NORMALIZE LOGIC FOR DOUBLE FLOATING POINT OPERATIONS     SEQ 0223

 11134						DFARP	T,200000,0,0,XX,200000,0,0,XX,ZZ,0,0,0^
 11135						DMOVE	AC,[200000,,0
 11136	041416	120 04 0 00 043631 			0,,XX]
 11137						DFAD	AC,[200000,,0
 11138	041417	110 04 0 00 043631 			0,,XX]
 11139	041420	312 04 0 00 043630 		CAME	AC,[ZZ,,0]
 11140	041421	003 04 0 00 001606 		ER3	AC,T
 11141	041422	312 05 0 00 043354 		CAME	AC+1,[0,,0]
 11142	041423	004 05 0 00 001606 		ER4	AC+1,T
 11143	041424	321 10 0 00 041416 		JUMPL	AC+4,.-^D6	;LOOP ON ERROR SWITCH^
 11144
 11145
 11146			001607		T=T+1
 11147			000100			XX=XX+XX
 11148						IFE	XX,<XX=1>
 11149			112400			ZZ=ZZ+1000
 11150						DFARP	T,200000,0,0,XX,200000,0,0,XX,ZZ,0,0,0^
 11151						DMOVE	AC,[200000,,0
 11152	041425	120 04 0 00 043626 			0,,XX]
 11153						DFAD	AC,[200000,,0
 11154	041426	110 04 0 00 043626 			0,,XX]
 11155	041427	312 04 0 00 043625 		CAME	AC,[ZZ,,0]
 11156	041430	003 04 0 00 001607 		ER3	AC,T
 11157	041431	312 05 0 00 043354 		CAME	AC+1,[0,,0]
 11158	041432	004 05 0 00 001607 		ER4	AC+1,T
 11159	041433	321 10 0 00 041425 		JUMPL	AC+4,.-^D6	;LOOP ON ERROR SWITCH^
 11160
 11161
 11162			001610		T=T+1
 11163			000200			XX=XX+XX
 11164						IFE	XX,<XX=1>
 11165			113400			ZZ=ZZ+1000
 11166						DFARP	T,200000,0,0,XX,200000,0,0,XX,ZZ,0,0,0^
 11167						DMOVE	AC,[200000,,0
 11168	041434	120 04 0 00 043623 			0,,XX]
 11169						DFAD	AC,[200000,,0
 11170	041435	110 04 0 00 043623 			0,,XX]
 11171	041436	312 04 0 00 043622 		CAME	AC,[ZZ,,0]
 11172	041437	003 04 0 00 001610 		ER3	AC,T
 11173	041440	312 05 0 00 043354 		CAME	AC+1,[0,,0]
 11174	041441	004 05 0 00 001610 		ER4	AC+1,T
 11175	041442	321 10 0 00 041434 		JUMPL	AC+4,.-^D6	;LOOP ON ERROR SWITCH^
 11176
 11177
 11178			001611		T=T+1
 11179			000400			XX=XX+XX
 11180						IFE	XX,<XX=1>
 11181			114400			ZZ=ZZ+1000
 11182						DFARP	T,200000,0,0,XX,200000,0,0,XX,ZZ,0,0,0^
 11183						DMOVE	AC,[200000,,0
 11184	041443	120 04 0 00 043620 			0,,XX]
 11185						DFAD	AC,[200000,,0
 11186	041444	110 04 0 00 043620 			0,,XX]
 11187	041445	312 04 0 00 043617 		CAME	AC,[ZZ,,0]
 11188	041446	003 04 0 00 001611 		ER3	AC,TDBKCD 	PDP-10 KI10 ADVANCED INSTRUCTION DIAGNOSTIC #4, VERSION 0,3 	MACRO %52(462) 12:35  9-AUG-76 PAGE 12-5
DBKCDM	MAC	26-MAY-76 16:52		TEST AR, ARX, AD, ADX AND NORMALIZE LOGIC FOR DOUBLE FLOATING POINT OPERATIONS     SEQ 0224

 11189	041447	312 05 0 00 043354 		CAME	AC+1,[0,,0]
 11190	041450	004 05 0 00 001611 		ER4	AC+1,T
 11191	041451	321 10 0 00 041443 		JUMPL	AC+4,.-^D6	;LOOP ON ERROR SWITCH^
 11192
 11193
 11194			001612		T=T+1
 11195			001000			XX=XX+XX
 11196						IFE	XX,<XX=1>
 11197			115400			ZZ=ZZ+1000
 11198						DFARP	T,200000,0,0,XX,200000,0,0,XX,ZZ,0,0,0^
 11199						DMOVE	AC,[200000,,0
 11200	041452	120 04 0 00 043615 			0,,XX]
 11201						DFAD	AC,[200000,,0
 11202	041453	110 04 0 00 043615 			0,,XX]
 11203	041454	312 04 0 00 043614 		CAME	AC,[ZZ,,0]
 11204	041455	003 04 0 00 001612 		ER3	AC,T
 11205	041456	312 05 0 00 043354 		CAME	AC+1,[0,,0]
 11206	041457	004 05 0 00 001612 		ER4	AC+1,T
 11207	041460	321 10 0 00 041452 		JUMPL	AC+4,.-^D6	;LOOP ON ERROR SWITCH^
 11208
 11209
 11210			001613		T=T+1
 11211			002000			XX=XX+XX
 11212						IFE	XX,<XX=1>
 11213			116400			ZZ=ZZ+1000
 11214						DFARP	T,200000,0,0,XX,200000,0,0,XX,ZZ,0,0,0^
 11215						DMOVE	AC,[200000,,0
 11216	041461	120 04 0 00 043612 			0,,XX]
 11217						DFAD	AC,[200000,,0
 11218	041462	110 04 0 00 043612 			0,,XX]
 11219	041463	312 04 0 00 043611 		CAME	AC,[ZZ,,0]
 11220	041464	003 04 0 00 001613 		ER3	AC,T
 11221	041465	312 05 0 00 043354 		CAME	AC+1,[0,,0]
 11222	041466	004 05 0 00 001613 		ER4	AC+1,T
 11223	041467	321 10 0 00 041461 		JUMPL	AC+4,.-^D6	;LOOP ON ERROR SWITCH^
 11224
 11225
 11226			001614		T=T+1
 11227			004000			XX=XX+XX
 11228						IFE	XX,<XX=1>
 11229			117400			ZZ=ZZ+1000
 11230						DFARP	T,200000,0,0,XX,200000,0,0,XX,ZZ,0,0,0^
 11231						DMOVE	AC,[200000,,0
 11232	041470	120 04 0 00 043607 			0,,XX]
 11233						DFAD	AC,[200000,,0
 11234	041471	110 04 0 00 043607 			0,,XX]
 11235	041472	312 04 0 00 043606 		CAME	AC,[ZZ,,0]
 11236	041473	003 04 0 00 001614 		ER3	AC,T
 11237	041474	312 05 0 00 043354 		CAME	AC+1,[0,,0]
 11238	041475	004 05 0 00 001614 		ER4	AC+1,T
 11239	041476	321 10 0 00 041470 		JUMPL	AC+4,.-^D6	;LOOP ON ERROR SWITCH^
 11240
 11241
 11242			001615		T=T+1
 11243			010000			XX=XX+XXDBKCD 	PDP-10 KI10 ADVANCED INSTRUCTION DIAGNOSTIC #4, VERSION 0,3 	MACRO %52(462) 12:35  9-AUG-76 PAGE 12-6
DBKCDM	MAC	26-MAY-76 16:52		TEST AR, ARX, AD, ADX AND NORMALIZE LOGIC FOR DOUBLE FLOATING POINT OPERATIONS     SEQ 0225

 11244						IFE	XX,<XX=1>
 11245			120400			ZZ=ZZ+1000
 11246						DFARP	T,200000,0,0,XX,200000,0,0,XX,ZZ,0,0,0^
 11247						DMOVE	AC,[200000,,0
 11248	041477	120 04 0 00 043604 			0,,XX]
 11249						DFAD	AC,[200000,,0
 11250	041500	110 04 0 00 043604 			0,,XX]
 11251	041501	312 04 0 00 043603 		CAME	AC,[ZZ,,0]
 11252	041502	003 04 0 00 001615 		ER3	AC,T
 11253	041503	312 05 0 00 043354 		CAME	AC+1,[0,,0]
 11254	041504	004 05 0 00 001615 		ER4	AC+1,T
 11255	041505	321 10 0 00 041477 		JUMPL	AC+4,.-^D6	;LOOP ON ERROR SWITCH^
 11256
 11257
 11258			001616		T=T+1
 11259			020000			XX=XX+XX
 11260						IFE	XX,<XX=1>
 11261			121400			ZZ=ZZ+1000
 11262						DFARP	T,200000,0,0,XX,200000,0,0,XX,ZZ,0,0,0^
 11263						DMOVE	AC,[200000,,0
 11264	041506	120 04 0 00 043601 			0,,XX]
 11265						DFAD	AC,[200000,,0
 11266	041507	110 04 0 00 043601 			0,,XX]
 11267	041510	312 04 0 00 043600 		CAME	AC,[ZZ,,0]
 11268	041511	003 04 0 00 001616 		ER3	AC,T
 11269	041512	312 05 0 00 043354 		CAME	AC+1,[0,,0]
 11270	041513	004 05 0 00 001616 		ER4	AC+1,T
 11271	041514	321 10 0 00 041506 		JUMPL	AC+4,.-^D6	;LOOP ON ERROR SWITCH^
 11272
 11273
 11274			001617		T=T+1
 11275			040000			XX=XX+XX
 11276						IFE	XX,<XX=1>
 11277			122400			ZZ=ZZ+1000
 11278						DFARP	T,200000,0,0,XX,200000,0,0,XX,ZZ,0,0,0^
 11279						DMOVE	AC,[200000,,0
 11280	041515	120 04 0 00 043576 			0,,XX]
 11281						DFAD	AC,[200000,,0
 11282	041516	110 04 0 00 043576 			0,,XX]
 11283	041517	312 04 0 00 043575 		CAME	AC,[ZZ,,0]
 11284	041520	003 04 0 00 001617 		ER3	AC,T
 11285	041521	312 05 0 00 043354 		CAME	AC+1,[0,,0]
 11286	041522	004 05 0 00 001617 		ER4	AC+1,T
 11287	041523	321 10 0 00 041515 		JUMPL	AC+4,.-^D6	;LOOP ON ERROR SWITCH^
 11288
 11289
 11290			001620		T=T+1
 11291			100000			XX=XX+XX
 11292						IFE	XX,<XX=1>
 11293			123400			ZZ=ZZ+1000
 11294						DFARP	T,200000,0,0,XX,200000,0,0,XX,ZZ,0,0,0^
 11295						DMOVE	AC,[200000,,0
 11296	041524	120 04 0 00 043573 			0,,XX]
 11297						DFAD	AC,[200000,,0
 11298	041525	110 04 0 00 043573 			0,,XX]DBKCD 	PDP-10 KI10 ADVANCED INSTRUCTION DIAGNOSTIC #4, VERSION 0,3 	MACRO %52(462) 12:35  9-AUG-76 PAGE 12-7
DBKCDM	MAC	26-MAY-76 16:52		TEST AR, ARX, AD, ADX AND NORMALIZE LOGIC FOR DOUBLE FLOATING POINT OPERATIONS     SEQ 0226

 11299	041526	312 04 0 00 043572 		CAME	AC,[ZZ,,0]
 11300	041527	003 04 0 00 001620 		ER3	AC,T
 11301	041530	312 05 0 00 043354 		CAME	AC+1,[0,,0]
 11302	041531	004 05 0 00 001620 		ER4	AC+1,T
 11303	041532	321 10 0 00 041524 		JUMPL	AC+4,.-^D6	;LOOP ON ERROR SWITCH^
 11304
 11305
 11306			001621		T=T+1
 11307			200000			XX=XX+XX
 11308						IFE	XX,<XX=1>
 11309			124400			ZZ=ZZ+1000
 11310						DFARP	T,200000,0,0,XX,200000,0,0,XX,ZZ,0,0,0^
 11311						DMOVE	AC,[200000,,0
 11312	041533	120 04 0 00 043570 			0,,XX]
 11313						DFAD	AC,[200000,,0
 11314	041534	110 04 0 00 043570 			0,,XX]
 11315	041535	312 04 0 00 043567 		CAME	AC,[ZZ,,0]
 11316	041536	003 04 0 00 001621 		ER3	AC,T
 11317	041537	312 05 0 00 043354 		CAME	AC+1,[0,,0]
 11318	041540	004 05 0 00 001621 		ER4	AC+1,T
 11319	041541	321 10 0 00 041533 		JUMPL	AC+4,.-^D6	;LOOP ON ERROR SWITCH^
 11320
 11321
 11322			001622		T=T+1
 11323			400000			XX=XX+XX
 11324						IFE	XX,<XX=1>
 11325			125400			ZZ=ZZ+1000
 11326						DFARP	T,200000,0,0,XX,200000,0,0,XX,ZZ,0,0,0^
 11327						DMOVE	AC,[200000,,0
 11328	041542	120 04 0 00 043565 			0,,XX]
 11329						DFAD	AC,[200000,,0
 11330	041543	110 04 0 00 043565 			0,,XX]
 11331	041544	312 04 0 00 043564 		CAME	AC,[ZZ,,0]
 11332	041545	003 04 0 00 001622 		ER3	AC,T
 11333	041546	312 05 0 00 043354 		CAME	AC+1,[0,,0]
 11334	041547	004 05 0 00 001622 		ER4	AC+1,T
 11335	041550	321 10 0 00 041542 		JUMPL	AC+4,.-^D6	;LOOP ON ERROR SWITCH^
 11336
 11337
 11338			000000			XX=0
 11339
 11340
 11341						REPEAT	^D17,<
 11342					T=T+1
 11343						XX=XX+XX
 11344						IFE	XX,<XX=1>
 11345						ZZ=ZZ+1000
 11346						DFARP	T,200000,0,XX,0,200000,0,XX,0,ZZ,0,0,0
 11347					>
 11348
 11349			001623		T=T+1
 11350			000000			XX=XX+XX
 11351			000001			IFE	XX,<XX=1>
 11352			126400			ZZ=ZZ+1000
 11353						DFARP	T,200000,0,XX,0,200000,0,XX,0,ZZ,0,0,0^DBKCD 	PDP-10 KI10 ADVANCED INSTRUCTION DIAGNOSTIC #4, VERSION 0,3 	MACRO %52(462) 12:35  9-AUG-76 PAGE 12-8
DBKCDM	MAC	26-MAY-76 16:52		TEST AR, ARX, AD, ADX AND NORMALIZE LOGIC FOR DOUBLE FLOATING POINT OPERATIONS     SEQ 0227

 11354						DMOVE	AC,[200000,,0
 11355	041551	120 04 0 00 043562 			XX,,0]
 11356						DFAD	AC,[200000,,0
 11357	041552	110 04 0 00 043562 			XX,,0]
 11358	041553	312 04 0 00 043561 		CAME	AC,[ZZ,,0]
 11359	041554	003 04 0 00 001623 		ER3	AC,T
 11360	041555	312 05 0 00 043354 		CAME	AC+1,[0,,0]
 11361	041556	004 05 0 00 001623 		ER4	AC+1,T
 11362	041557	321 10 0 00 041551 		JUMPL	AC+4,.-^D6	;LOOP ON ERROR SWITCH^
 11363
 11364
 11365			001624		T=T+1
 11366			000002			XX=XX+XX
 11367						IFE	XX,<XX=1>
 11368			127400			ZZ=ZZ+1000
 11369						DFARP	T,200000,0,XX,0,200000,0,XX,0,ZZ,0,0,0^
 11370						DMOVE	AC,[200000,,0
 11371	041560	120 04 0 00 043557 			XX,,0]
 11372						DFAD	AC,[200000,,0
 11373	041561	110 04 0 00 043557 			XX,,0]
 11374	041562	312 04 0 00 043556 		CAME	AC,[ZZ,,0]
 11375	041563	003 04 0 00 001624 		ER3	AC,T
 11376	041564	312 05 0 00 043354 		CAME	AC+1,[0,,0]
 11377	041565	004 05 0 00 001624 		ER4	AC+1,T
 11378	041566	321 10 0 00 041560 		JUMPL	AC+4,.-^D6	;LOOP ON ERROR SWITCH^
 11379
 11380
 11381			001625		T=T+1
 11382			000004			XX=XX+XX
 11383						IFE	XX,<XX=1>
 11384			130400			ZZ=ZZ+1000
 11385						DFARP	T,200000,0,XX,0,200000,0,XX,0,ZZ,0,0,0^
 11386						DMOVE	AC,[200000,,0
 11387	041567	120 04 0 00 043554 			XX,,0]
 11388						DFAD	AC,[200000,,0
 11389	041570	110 04 0 00 043554 			XX,,0]
 11390	041571	312 04 0 00 043553 		CAME	AC,[ZZ,,0]
 11391	041572	003 04 0 00 001625 		ER3	AC,T
 11392	041573	312 05 0 00 043354 		CAME	AC+1,[0,,0]
 11393	041574	004 05 0 00 001625 		ER4	AC+1,T
 11394	041575	321 10 0 00 041567 		JUMPL	AC+4,.-^D6	;LOOP ON ERROR SWITCH^
 11395
 11396
 11397			001626		T=T+1
 11398			000010			XX=XX+XX
 11399						IFE	XX,<XX=1>
 11400			131400			ZZ=ZZ+1000
 11401						DFARP	T,200000,0,XX,0,200000,0,XX,0,ZZ,0,0,0^
 11402						DMOVE	AC,[200000,,0
 11403	041576	120 04 0 00 043551 			XX,,0]
 11404						DFAD	AC,[200000,,0
 11405	041577	110 04 0 00 043551 			XX,,0]
 11406	041600	312 04 0 00 043550 		CAME	AC,[ZZ,,0]
 11407	041601	003 04 0 00 001626 		ER3	AC,T
 11408	041602	312 05 0 00 043354 		CAME	AC+1,[0,,0]DBKCD 	PDP-10 KI10 ADVANCED INSTRUCTION DIAGNOSTIC #4, VERSION 0,3 	MACRO %52(462) 12:35  9-AUG-76 PAGE 12-9
DBKCDM	MAC	26-MAY-76 16:52		TEST AR, ARX, AD, ADX AND NORMALIZE LOGIC FOR DOUBLE FLOATING POINT OPERATIONS     SEQ 0228

 11409	041603	004 05 0 00 001626 		ER4	AC+1,T
 11410	041604	321 10 0 00 041576 		JUMPL	AC+4,.-^D6	;LOOP ON ERROR SWITCH^
 11411
 11412
 11413			001627		T=T+1
 11414			000020			XX=XX+XX
 11415						IFE	XX,<XX=1>
 11416			132400			ZZ=ZZ+1000
 11417						DFARP	T,200000,0,XX,0,200000,0,XX,0,ZZ,0,0,0^
 11418						DMOVE	AC,[200000,,0
 11419	041605	120 04 0 00 043546 			XX,,0]
 11420						DFAD	AC,[200000,,0
 11421	041606	110 04 0 00 043546 			XX,,0]
 11422	041607	312 04 0 00 043545 		CAME	AC,[ZZ,,0]
 11423	041610	003 04 0 00 001627 		ER3	AC,T
 11424	041611	312 05 0 00 043354 		CAME	AC+1,[0,,0]
 11425	041612	004 05 0 00 001627 		ER4	AC+1,T
 11426	041613	321 10 0 00 041605 		JUMPL	AC+4,.-^D6	;LOOP ON ERROR SWITCH^
 11427
 11428
 11429			001630		T=T+1
 11430			000040			XX=XX+XX
 11431						IFE	XX,<XX=1>
 11432			133400			ZZ=ZZ+1000
 11433						DFARP	T,200000,0,XX,0,200000,0,XX,0,ZZ,0,0,0^
 11434						DMOVE	AC,[200000,,0
 11435	041614	120 04 0 00 043543 			XX,,0]
 11436						DFAD	AC,[200000,,0
 11437	041615	110 04 0 00 043543 			XX,,0]
 11438	041616	312 04 0 00 043542 		CAME	AC,[ZZ,,0]
 11439	041617	003 04 0 00 001630 		ER3	AC,T
 11440	041620	312 05 0 00 043354 		CAME	AC+1,[0,,0]
 11441	041621	004 05 0 00 001630 		ER4	AC+1,T
 11442	041622	321 10 0 00 041614 		JUMPL	AC+4,.-^D6	;LOOP ON ERROR SWITCH^
 11443
 11444
 11445			001631		T=T+1
 11446			000100			XX=XX+XX
 11447						IFE	XX,<XX=1>
 11448			134400			ZZ=ZZ+1000
 11449						DFARP	T,200000,0,XX,0,200000,0,XX,0,ZZ,0,0,0^
 11450						DMOVE	AC,[200000,,0
 11451	041623	120 04 0 00 043540 			XX,,0]
 11452						DFAD	AC,[200000,,0
 11453	041624	110 04 0 00 043540 			XX,,0]
 11454	041625	312 04 0 00 043537 		CAME	AC,[ZZ,,0]
 11455	041626	003 04 0 00 001631 		ER3	AC,T
 11456	041627	312 05 0 00 043354 		CAME	AC+1,[0,,0]
 11457	041630	004 05 0 00 001631 		ER4	AC+1,T
 11458	041631	321 10 0 00 041623 		JUMPL	AC+4,.-^D6	;LOOP ON ERROR SWITCH^
 11459
 11460
 11461			001632		T=T+1
 11462			000200			XX=XX+XX
 11463						IFE	XX,<XX=1>DBKCD 	PDP-10 KI10 ADVANCED INSTRUCTION DIAGNOSTIC #4, VERSION 0,3 	MACRO %52(462) 12:35  9-AUG-76 PAGE 12-10
DBKCDM	MAC	26-MAY-76 16:52		TEST AR, ARX, AD, ADX AND NORMALIZE LOGIC FOR DOUBLE FLOATING POINT OPERATIONS     SEQ 0229

 11464			135400			ZZ=ZZ+1000
 11465						DFARP	T,200000,0,XX,0,200000,0,XX,0,ZZ,0,0,0^
 11466						DMOVE	AC,[200000,,0
 11467	041632	120 04 0 00 043535 			XX,,0]
 11468						DFAD	AC,[200000,,0
 11469	041633	110 04 0 00 043535 			XX,,0]
 11470	041634	312 04 0 00 043534 		CAME	AC,[ZZ,,0]
 11471	041635	003 04 0 00 001632 		ER3	AC,T
 11472	041636	312 05 0 00 043354 		CAME	AC+1,[0,,0]
 11473	041637	004 05 0 00 001632 		ER4	AC+1,T
 11474	041640	321 10 0 00 041632 		JUMPL	AC+4,.-^D6	;LOOP ON ERROR SWITCH^
 11475
 11476
 11477			001633		T=T+1
 11478			000400			XX=XX+XX
 11479						IFE	XX,<XX=1>
 11480			136400			ZZ=ZZ+1000
 11481						DFARP	T,200000,0,XX,0,200000,0,XX,0,ZZ,0,0,0^
 11482						DMOVE	AC,[200000,,0
 11483	041641	120 04 0 00 043532 			XX,,0]
 11484						DFAD	AC,[200000,,0
 11485	041642	110 04 0 00 043532 			XX,,0]
 11486	041643	312 04 0 00 043531 		CAME	AC,[ZZ,,0]
 11487	041644	003 04 0 00 001633 		ER3	AC,T
 11488	041645	312 05 0 00 043354 		CAME	AC+1,[0,,0]
 11489	041646	004 05 0 00 001633 		ER4	AC+1,T
 11490	041647	321 10 0 00 041641 		JUMPL	AC+4,.-^D6	;LOOP ON ERROR SWITCH^
 11491
 11492
 11493			001634		T=T+1
 11494			001000			XX=XX+XX
 11495						IFE	XX,<XX=1>
 11496			137400			ZZ=ZZ+1000
 11497						DFARP	T,200000,0,XX,0,200000,0,XX,0,ZZ,0,0,0^
 11498						DMOVE	AC,[200000,,0
 11499	041650	120 04 0 00 043527 			XX,,0]
 11500						DFAD	AC,[200000,,0
 11501	041651	110 04 0 00 043527 			XX,,0]
 11502	041652	312 04 0 00 043526 		CAME	AC,[ZZ,,0]
 11503	041653	003 04 0 00 001634 		ER3	AC,T
 11504	041654	312 05 0 00 043354 		CAME	AC+1,[0,,0]
 11505	041655	004 05 0 00 001634 		ER4	AC+1,T
 11506	041656	321 10 0 00 041650 		JUMPL	AC+4,.-^D6	;LOOP ON ERROR SWITCH^
 11507
 11508
 11509			001635		T=T+1
 11510			002000			XX=XX+XX
 11511						IFE	XX,<XX=1>
 11512			140400			ZZ=ZZ+1000
 11513						DFARP	T,200000,0,XX,0,200000,0,XX,0,ZZ,0,0,0^
 11514						DMOVE	AC,[200000,,0
 11515	041657	120 04 0 00 043524 			XX,,0]
 11516						DFAD	AC,[200000,,0
 11517	041660	110 04 0 00 043524 			XX,,0]
 11518	041661	312 04 0 00 043523 		CAME	AC,[ZZ,,0]DBKCD 	PDP-10 KI10 ADVANCED INSTRUCTION DIAGNOSTIC #4, VERSION 0,3 	MACRO %52(462) 12:35  9-AUG-76 PAGE 12-11
DBKCDM	MAC	26-MAY-76 16:52		TEST AR, ARX, AD, ADX AND NORMALIZE LOGIC FOR DOUBLE FLOATING POINT OPERATIONS     SEQ 0230

 11519	041662	003 04 0 00 001635 		ER3	AC,T
 11520	041663	312 05 0 00 043354 		CAME	AC+1,[0,,0]
 11521	041664	004 05 0 00 001635 		ER4	AC+1,T
 11522	041665	321 10 0 00 041657 		JUMPL	AC+4,.-^D6	;LOOP ON ERROR SWITCH^
 11523
 11524
 11525			001636		T=T+1
 11526			004000			XX=XX+XX
 11527						IFE	XX,<XX=1>
 11528			141400			ZZ=ZZ+1000
 11529						DFARP	T,200000,0,XX,0,200000,0,XX,0,ZZ,0,0,0^
 11530						DMOVE	AC,[200000,,0
 11531	041666	120 04 0 00 043521 			XX,,0]
 11532						DFAD	AC,[200000,,0
 11533	041667	110 04 0 00 043521 			XX,,0]
 11534	041670	312 04 0 00 043520 		CAME	AC,[ZZ,,0]
 11535	041671	003 04 0 00 001636 		ER3	AC,T
 11536	041672	312 05 0 00 043354 		CAME	AC+1,[0,,0]
 11537	041673	004 05 0 00 001636 		ER4	AC+1,T
 11538	041674	321 10 0 00 041666 		JUMPL	AC+4,.-^D6	;LOOP ON ERROR SWITCH^
 11539
 11540
 11541			001637		T=T+1
 11542			010000			XX=XX+XX
 11543						IFE	XX,<XX=1>
 11544			142400			ZZ=ZZ+1000
 11545						DFARP	T,200000,0,XX,0,200000,0,XX,0,ZZ,0,0,0^
 11546						DMOVE	AC,[200000,,0
 11547	041675	120 04 0 00 043516 			XX,,0]
 11548						DFAD	AC,[200000,,0
 11549	041676	110 04 0 00 043516 			XX,,0]
 11550	041677	312 04 0 00 043515 		CAME	AC,[ZZ,,0]
 11551	041700	003 04 0 00 001637 		ER3	AC,T
 11552	041701	312 05 0 00 043354 		CAME	AC+1,[0,,0]
 11553	041702	004 05 0 00 001637 		ER4	AC+1,T
 11554	041703	321 10 0 00 041675 		JUMPL	AC+4,.-^D6	;LOOP ON ERROR SWITCH^
 11555
 11556
 11557			001640		T=T+1
 11558			020000			XX=XX+XX
 11559						IFE	XX,<XX=1>
 11560			143400			ZZ=ZZ+1000
 11561						DFARP	T,200000,0,XX,0,200000,0,XX,0,ZZ,0,0,0^
 11562						DMOVE	AC,[200000,,0
 11563	041704	120 04 0 00 043513 			XX,,0]
 11564						DFAD	AC,[200000,,0
 11565	041705	110 04 0 00 043513 			XX,,0]
 11566	041706	312 04 0 00 043512 		CAME	AC,[ZZ,,0]
 11567	041707	003 04 0 00 001640 		ER3	AC,T
 11568	041710	312 05 0 00 043354 		CAME	AC+1,[0,,0]
 11569	041711	004 05 0 00 001640 		ER4	AC+1,T
 11570	041712	321 10 0 00 041704 		JUMPL	AC+4,.-^D6	;LOOP ON ERROR SWITCH^
 11571
 11572
 11573			001641		T=T+1DBKCD 	PDP-10 KI10 ADVANCED INSTRUCTION DIAGNOSTIC #4, VERSION 0,3 	MACRO %52(462) 12:35  9-AUG-76 PAGE 12-12
DBKCDM	MAC	26-MAY-76 16:52		TEST AR, ARX, AD, ADX AND NORMALIZE LOGIC FOR DOUBLE FLOATING POINT OPERATIONS     SEQ 0231

 11574			040000			XX=XX+XX
 11575						IFE	XX,<XX=1>
 11576			144400			ZZ=ZZ+1000
 11577						DFARP	T,200000,0,XX,0,200000,0,XX,0,ZZ,0,0,0^
 11578						DMOVE	AC,[200000,,0
 11579	041713	120 04 0 00 043510 			XX,,0]
 11580						DFAD	AC,[200000,,0
 11581	041714	110 04 0 00 043510 			XX,,0]
 11582	041715	312 04 0 00 043507 		CAME	AC,[ZZ,,0]
 11583	041716	003 04 0 00 001641 		ER3	AC,T
 11584	041717	312 05 0 00 043354 		CAME	AC+1,[0,,0]
 11585	041720	004 05 0 00 001641 		ER4	AC+1,T
 11586	041721	321 10 0 00 041713 		JUMPL	AC+4,.-^D6	;LOOP ON ERROR SWITCH^
 11587
 11588
 11589			001642		T=T+1
 11590			100000			XX=XX+XX
 11591						IFE	XX,<XX=1>
 11592			145400			ZZ=ZZ+1000
 11593						DFARP	T,200000,0,XX,0,200000,0,XX,0,ZZ,0,0,0^
 11594						DMOVE	AC,[200000,,0
 11595	041722	120 04 0 00 043505 			XX,,0]
 11596						DFAD	AC,[200000,,0
 11597	041723	110 04 0 00 043505 			XX,,0]
 11598	041724	312 04 0 00 043504 		CAME	AC,[ZZ,,0]
 11599	041725	003 04 0 00 001642 		ER3	AC,T
 11600	041726	312 05 0 00 043354 		CAME	AC+1,[0,,0]
 11601	041727	004 05 0 00 001642 		ER4	AC+1,T
 11602	041730	321 10 0 00 041722 		JUMPL	AC+4,.-^D6	;LOOP ON ERROR SWITCH^
 11603
 11604
 11605			001643		T=T+1
 11606			200000			XX=XX+XX
 11607						IFE	XX,<XX=1>
 11608			146400			ZZ=ZZ+1000
 11609						DFARP	T,200000,0,XX,0,200000,0,XX,0,ZZ,0,0,0^
 11610						DMOVE	AC,[200000,,0
 11611	041731	120 04 0 00 043502 			XX,,0]
 11612						DFAD	AC,[200000,,0
 11613	041732	110 04 0 00 043502 			XX,,0]
 11614	041733	312 04 0 00 043477 		CAME	AC,[ZZ,,0]
 11615	041734	003 04 0 00 001643 		ER3	AC,T
 11616	041735	312 05 0 00 043354 		CAME	AC+1,[0,,0]
 11617	041736	004 05 0 00 001643 		ER4	AC+1,T
 11618	041737	321 10 0 00 041731 		JUMPL	AC+4,.-^D6	;LOOP ON ERROR SWITCH^
 11619
 11620			001644		T=T+1
 11621			400000			XX=XX+XX
 11622						DFARP	T,200000,0,XX,0,200000,0,XX,0,0,0,0,0^
 11623						DMOVE	AC,[200000,,0
 11624	041740	120 04 0 00 043500 			XX,,0]
 11625						DFAD	AC,[200000,,0
 11626	041741	110 04 0 00 043500 			XX,,0]
 11627	041742	312 04 0 00 043354 		CAME	AC,[0,,0]
 11628	041743	003 04 0 00 001644 		ER3	AC,TDBKCD 	PDP-10 KI10 ADVANCED INSTRUCTION DIAGNOSTIC #4, VERSION 0,3 	MACRO %52(462) 12:35  9-AUG-76 PAGE 12-13
DBKCDM	MAC	26-MAY-76 16:52		TEST AR, ARX, AD, ADX AND NORMALIZE LOGIC FOR DOUBLE FLOATING POINT OPERATIONS     SEQ 0232

 11629	041744	312 05 0 00 043354 		CAME	AC+1,[0,,0]
 11630	041745	004 05 0 00 001644 		ER4	AC+1,T
 11631	041746	321 10 0 00 041740 		JUMPL	AC+4,.-^D6	;LOOP ON ERROR SWITCH^
 11632
 11633			000000			XX=0
 11634
 11635
 11636						REPEAT	^D18,<
 11637					T=T+1
 11638						XX=XX+XX
 11639						IFE	XX,<XX=1>
 11640						ZZ=ZZ+1000
 11641						DFARP	T,200000,XX,0,0,200000,XX,0,0,ZZ,0,0,0
 11642					>
 11643
 11644			001645		T=T+1
 11645			000000			XX=XX+XX
 11646			000001			IFE	XX,<XX=1>
 11647			147400			ZZ=ZZ+1000
 11648						DFARP	T,200000,XX,0,0,200000,XX,0,0,ZZ,0,0,0^
 11649						DMOVE	AC,[200000,,XX
 11650	041747	120 04 0 00 043475 			0,,0]
 11651						DFAD	AC,[200000,,XX
 11652	041750	110 04 0 00 043475 			0,,0]
 11653	041751	312 04 0 00 043474 		CAME	AC,[ZZ,,0]
 11654	041752	003 04 0 00 001645 		ER3	AC,T
 11655	041753	312 05 0 00 043354 		CAME	AC+1,[0,,0]
 11656	041754	004 05 0 00 001645 		ER4	AC+1,T
 11657	041755	321 10 0 00 041747 		JUMPL	AC+4,.-^D6	;LOOP ON ERROR SWITCH^
 11658
 11659
 11660			001646		T=T+1
 11661			000002			XX=XX+XX
 11662						IFE	XX,<XX=1>
 11663			150400			ZZ=ZZ+1000
 11664						DFARP	T,200000,XX,0,0,200000,XX,0,0,ZZ,0,0,0^
 11665						DMOVE	AC,[200000,,XX
 11666	041756	120 04 0 00 043472 			0,,0]
 11667						DFAD	AC,[200000,,XX
 11668	041757	110 04 0 00 043472 			0,,0]
 11669	041760	312 04 0 00 043471 		CAME	AC,[ZZ,,0]
 11670	041761	003 04 0 00 001646 		ER3	AC,T
 11671	041762	312 05 0 00 043354 		CAME	AC+1,[0,,0]
 11672	041763	004 05 0 00 001646 		ER4	AC+1,T
 11673	041764	321 10 0 00 041756 		JUMPL	AC+4,.-^D6	;LOOP ON ERROR SWITCH^
 11674
 11675
 11676			001647		T=T+1
 11677			000004			XX=XX+XX
 11678						IFE	XX,<XX=1>
 11679			151400			ZZ=ZZ+1000
 11680						DFARP	T,200000,XX,0,0,200000,XX,0,0,ZZ,0,0,0^
 11681						DMOVE	AC,[200000,,XX
 11682	041765	120 04 0 00 043467 			0,,0]
 11683						DFAD	AC,[200000,,XXDBKCD 	PDP-10 KI10 ADVANCED INSTRUCTION DIAGNOSTIC #4, VERSION 0,3 	MACRO %52(462) 12:35  9-AUG-76 PAGE 12-14
DBKCDM	MAC	26-MAY-76 16:52		TEST AR, ARX, AD, ADX AND NORMALIZE LOGIC FOR DOUBLE FLOATING POINT OPERATIONS     SEQ 0233

 11684	041766	110 04 0 00 043467 			0,,0]
 11685	041767	312 04 0 00 043466 		CAME	AC,[ZZ,,0]
 11686	041770	003 04 0 00 001647 		ER3	AC,T
 11687	041771	312 05 0 00 043354 		CAME	AC+1,[0,,0]
 11688	041772	004 05 0 00 001647 		ER4	AC+1,T
 11689	041773	321 10 0 00 041765 		JUMPL	AC+4,.-^D6	;LOOP ON ERROR SWITCH^
 11690
 11691
 11692			001650		T=T+1
 11693			000010			XX=XX+XX
 11694						IFE	XX,<XX=1>
 11695			152400			ZZ=ZZ+1000
 11696						DFARP	T,200000,XX,0,0,200000,XX,0,0,ZZ,0,0,0^
 11697						DMOVE	AC,[200000,,XX
 11698	041774	120 04 0 00 043464 			0,,0]
 11699						DFAD	AC,[200000,,XX
 11700	041775	110 04 0 00 043464 			0,,0]
 11701	041776	312 04 0 00 043463 		CAME	AC,[ZZ,,0]
 11702	041777	003 04 0 00 001650 		ER3	AC,T
 11703	042000	312 05 0 00 043354 		CAME	AC+1,[0,,0]
 11704	042001	004 05 0 00 001650 		ER4	AC+1,T
 11705	042002	321 10 0 00 041774 		JUMPL	AC+4,.-^D6	;LOOP ON ERROR SWITCH^
 11706
 11707
 11708			001651		T=T+1
 11709			000020			XX=XX+XX
 11710						IFE	XX,<XX=1>
 11711			153400			ZZ=ZZ+1000
 11712						DFARP	T,200000,XX,0,0,200000,XX,0,0,ZZ,0,0,0^
 11713						DMOVE	AC,[200000,,XX
 11714	042003	120 04 0 00 043461 			0,,0]
 11715						DFAD	AC,[200000,,XX
 11716	042004	110 04 0 00 043461 			0,,0]
 11717	042005	312 04 0 00 043460 		CAME	AC,[ZZ,,0]
 11718	042006	003 04 0 00 001651 		ER3	AC,T
 11719	042007	312 05 0 00 043354 		CAME	AC+1,[0,,0]
 11720	042010	004 05 0 00 001651 		ER4	AC+1,T
 11721	042011	321 10 0 00 042003 		JUMPL	AC+4,.-^D6	;LOOP ON ERROR SWITCH^
 11722
 11723
 11724			001652		T=T+1
 11725			000040			XX=XX+XX
 11726						IFE	XX,<XX=1>
 11727			154400			ZZ=ZZ+1000
 11728						DFARP	T,200000,XX,0,0,200000,XX,0,0,ZZ,0,0,0^
 11729						DMOVE	AC,[200000,,XX
 11730	042012	120 04 0 00 043456 			0,,0]
 11731						DFAD	AC,[200000,,XX
 11732	042013	110 04 0 00 043456 			0,,0]
 11733	042014	312 04 0 00 043455 		CAME	AC,[ZZ,,0]
 11734	042015	003 04 0 00 001652 		ER3	AC,T
 11735	042016	312 05 0 00 043354 		CAME	AC+1,[0,,0]
 11736	042017	004 05 0 00 001652 		ER4	AC+1,T
 11737	042020	321 10 0 00 042012 		JUMPL	AC+4,.-^D6	;LOOP ON ERROR SWITCH^
 11738DBKCD 	PDP-10 KI10 ADVANCED INSTRUCTION DIAGNOSTIC #4, VERSION 0,3 	MACRO %52(462) 12:35  9-AUG-76 PAGE 12-15
DBKCDM	MAC	26-MAY-76 16:52		TEST AR, ARX, AD, ADX AND NORMALIZE LOGIC FOR DOUBLE FLOATING POINT OPERATIONS     SEQ 0234

 11739
 11740			001653		T=T+1
 11741			000100			XX=XX+XX
 11742						IFE	XX,<XX=1>
 11743			155400			ZZ=ZZ+1000
 11744						DFARP	T,200000,XX,0,0,200000,XX,0,0,ZZ,0,0,0^
 11745						DMOVE	AC,[200000,,XX
 11746	042021	120 04 0 00 043453 			0,,0]
 11747						DFAD	AC,[200000,,XX
 11748	042022	110 04 0 00 043453 			0,,0]
 11749	042023	312 04 0 00 043452 		CAME	AC,[ZZ,,0]
 11750	042024	003 04 0 00 001653 		ER3	AC,T
 11751	042025	312 05 0 00 043354 		CAME	AC+1,[0,,0]
 11752	042026	004 05 0 00 001653 		ER4	AC+1,T
 11753	042027	321 10 0 00 042021 		JUMPL	AC+4,.-^D6	;LOOP ON ERROR SWITCH^
 11754
 11755
 11756			001654		T=T+1
 11757			000200			XX=XX+XX
 11758						IFE	XX,<XX=1>
 11759			156400			ZZ=ZZ+1000
 11760						DFARP	T,200000,XX,0,0,200000,XX,0,0,ZZ,0,0,0^
 11761						DMOVE	AC,[200000,,XX
 11762	042030	120 04 0 00 043450 			0,,0]
 11763						DFAD	AC,[200000,,XX
 11764	042031	110 04 0 00 043450 			0,,0]
 11765	042032	312 04 0 00 043447 		CAME	AC,[ZZ,,0]
 11766	042033	003 04 0 00 001654 		ER3	AC,T
 11767	042034	312 05 0 00 043354 		CAME	AC+1,[0,,0]
 11768	042035	004 05 0 00 001654 		ER4	AC+1,T
 11769	042036	321 10 0 00 042030 		JUMPL	AC+4,.-^D6	;LOOP ON ERROR SWITCH^
 11770
 11771
 11772			001655		T=T+1
 11773			000400			XX=XX+XX
 11774						IFE	XX,<XX=1>
 11775			157400			ZZ=ZZ+1000
 11776						DFARP	T,200000,XX,0,0,200000,XX,0,0,ZZ,0,0,0^
 11777						DMOVE	AC,[200000,,XX
 11778	042037	120 04 0 00 043445 			0,,0]
 11779						DFAD	AC,[200000,,XX
 11780	042040	110 04 0 00 043445 			0,,0]
 11781	042041	312 04 0 00 043444 		CAME	AC,[ZZ,,0]
 11782	042042	003 04 0 00 001655 		ER3	AC,T
 11783	042043	312 05 0 00 043354 		CAME	AC+1,[0,,0]
 11784	042044	004 05 0 00 001655 		ER4	AC+1,T
 11785	042045	321 10 0 00 042037 		JUMPL	AC+4,.-^D6	;LOOP ON ERROR SWITCH^
 11786
 11787
 11788			001656		T=T+1
 11789			001000			XX=XX+XX
 11790						IFE	XX,<XX=1>
 11791			160400			ZZ=ZZ+1000
 11792						DFARP	T,200000,XX,0,0,200000,XX,0,0,ZZ,0,0,0^
 11793						DMOVE	AC,[200000,,XXDBKCD 	PDP-10 KI10 ADVANCED INSTRUCTION DIAGNOSTIC #4, VERSION 0,3 	MACRO %52(462) 12:35  9-AUG-76 PAGE 12-16
DBKCDM	MAC	26-MAY-76 16:52		TEST AR, ARX, AD, ADX AND NORMALIZE LOGIC FOR DOUBLE FLOATING POINT OPERATIONS     SEQ 0235

 11794	042046	120 04 0 00 043442 			0,,0]
 11795						DFAD	AC,[200000,,XX
 11796	042047	110 04 0 00 043442 			0,,0]
 11797	042050	312 04 0 00 043441 		CAME	AC,[ZZ,,0]
 11798	042051	003 04 0 00 001656 		ER3	AC,T
 11799	042052	312 05 0 00 043354 		CAME	AC+1,[0,,0]
 11800	042053	004 05 0 00 001656 		ER4	AC+1,T
 11801	042054	321 10 0 00 042046 		JUMPL	AC+4,.-^D6	;LOOP ON ERROR SWITCH^
 11802
 11803
 11804			001657		T=T+1
 11805			002000			XX=XX+XX
 11806						IFE	XX,<XX=1>
 11807			161400			ZZ=ZZ+1000
 11808						DFARP	T,200000,XX,0,0,200000,XX,0,0,ZZ,0,0,0^
 11809						DMOVE	AC,[200000,,XX
 11810	042055	120 04 0 00 043437 			0,,0]
 11811						DFAD	AC,[200000,,XX
 11812	042056	110 04 0 00 043437 			0,,0]
 11813	042057	312 04 0 00 043436 		CAME	AC,[ZZ,,0]
 11814	042060	003 04 0 00 001657 		ER3	AC,T
 11815	042061	312 05 0 00 043354 		CAME	AC+1,[0,,0]
 11816	042062	004 05 0 00 001657 		ER4	AC+1,T
 11817	042063	321 10 0 00 042055 		JUMPL	AC+4,.-^D6	;LOOP ON ERROR SWITCH^
 11818
 11819
 11820			001660		T=T+1
 11821			004000			XX=XX+XX
 11822						IFE	XX,<XX=1>
 11823			162400			ZZ=ZZ+1000
 11824						DFARP	T,200000,XX,0,0,200000,XX,0,0,ZZ,0,0,0^
 11825						DMOVE	AC,[200000,,XX
 11826	042064	120 04 0 00 043434 			0,,0]
 11827						DFAD	AC,[200000,,XX
 11828	042065	110 04 0 00 043434 			0,,0]
 11829	042066	312 04 0 00 043433 		CAME	AC,[ZZ,,0]
 11830	042067	003 04 0 00 001660 		ER3	AC,T
 11831	042070	312 05 0 00 043354 		CAME	AC+1,[0,,0]
 11832	042071	004 05 0 00 001660 		ER4	AC+1,T
 11833	042072	321 10 0 00 042064 		JUMPL	AC+4,.-^D6	;LOOP ON ERROR SWITCH^
 11834
 11835
 11836			001661		T=T+1
 11837			010000			XX=XX+XX
 11838						IFE	XX,<XX=1>
 11839			163400			ZZ=ZZ+1000
 11840						DFARP	T,200000,XX,0,0,200000,XX,0,0,ZZ,0,0,0^
 11841						DMOVE	AC,[200000,,XX
 11842	042073	120 04 0 00 043431 			0,,0]
 11843						DFAD	AC,[200000,,XX
 11844	042074	110 04 0 00 043431 			0,,0]
 11845	042075	312 04 0 00 043430 		CAME	AC,[ZZ,,0]
 11846	042076	003 04 0 00 001661 		ER3	AC,T
 11847	042077	312 05 0 00 043354 		CAME	AC+1,[0,,0]
 11848	042100	004 05 0 00 001661 		ER4	AC+1,TDBKCD 	PDP-10 KI10 ADVANCED INSTRUCTION DIAGNOSTIC #4, VERSION 0,3 	MACRO %52(462) 12:35  9-AUG-76 PAGE 12-17
DBKCDM	MAC	26-MAY-76 16:52		TEST AR, ARX, AD, ADX AND NORMALIZE LOGIC FOR DOUBLE FLOATING POINT OPERATIONS     SEQ 0236

 11849	042101	321 10 0 00 042073 		JUMPL	AC+4,.-^D6	;LOOP ON ERROR SWITCH^
 11850
 11851
 11852			001662		T=T+1
 11853			020000			XX=XX+XX
 11854						IFE	XX,<XX=1>
 11855			164400			ZZ=ZZ+1000
 11856						DFARP	T,200000,XX,0,0,200000,XX,0,0,ZZ,0,0,0^
 11857						DMOVE	AC,[200000,,XX
 11858	042102	120 04 0 00 043426 			0,,0]
 11859						DFAD	AC,[200000,,XX
 11860	042103	110 04 0 00 043426 			0,,0]
 11861	042104	312 04 0 00 043425 		CAME	AC,[ZZ,,0]
 11862	042105	003 04 0 00 001662 		ER3	AC,T
 11863	042106	312 05 0 00 043354 		CAME	AC+1,[0,,0]
 11864	042107	004 05 0 00 001662 		ER4	AC+1,T
 11865	042110	321 10 0 00 042102 		JUMPL	AC+4,.-^D6	;LOOP ON ERROR SWITCH^
 11866
 11867
 11868			001663		T=T+1
 11869			040000			XX=XX+XX
 11870						IFE	XX,<XX=1>
 11871			165400			ZZ=ZZ+1000
 11872						DFARP	T,200000,XX,0,0,200000,XX,0,0,ZZ,0,0,0^
 11873						DMOVE	AC,[200000,,XX
 11874	042111	120 04 0 00 043423 			0,,0]
 11875						DFAD	AC,[200000,,XX
 11876	042112	110 04 0 00 043423 			0,,0]
 11877	042113	312 04 0 00 043422 		CAME	AC,[ZZ,,0]
 11878	042114	003 04 0 00 001663 		ER3	AC,T
 11879	042115	312 05 0 00 043354 		CAME	AC+1,[0,,0]
 11880	042116	004 05 0 00 001663 		ER4	AC+1,T
 11881	042117	321 10 0 00 042111 		JUMPL	AC+4,.-^D6	;LOOP ON ERROR SWITCH^
 11882
 11883
 11884			001664		T=T+1
 11885			100000			XX=XX+XX
 11886						IFE	XX,<XX=1>
 11887			166400			ZZ=ZZ+1000
 11888						DFARP	T,200000,XX,0,0,200000,XX,0,0,ZZ,0,0,0^
 11889						DMOVE	AC,[200000,,XX
 11890	042120	120 04 0 00 043420 			0,,0]
 11891						DFAD	AC,[200000,,XX
 11892	042121	110 04 0 00 043420 			0,,0]
 11893	042122	312 04 0 00 043417 		CAME	AC,[ZZ,,0]
 11894	042123	003 04 0 00 001664 		ER3	AC,T
 11895	042124	312 05 0 00 043354 		CAME	AC+1,[0,,0]
 11896	042125	004 05 0 00 001664 		ER4	AC+1,T
 11897	042126	321 10 0 00 042120 		JUMPL	AC+4,.-^D6	;LOOP ON ERROR SWITCH^
 11898
 11899
 11900			001665		T=T+1
 11901			200000			XX=XX+XX
 11902						IFE	XX,<XX=1>
 11903			167400			ZZ=ZZ+1000DBKCD 	PDP-10 KI10 ADVANCED INSTRUCTION DIAGNOSTIC #4, VERSION 0,3 	MACRO %52(462) 12:35  9-AUG-76 PAGE 12-18
DBKCDM	MAC	26-MAY-76 16:52		TEST AR, ARX, AD, ADX AND NORMALIZE LOGIC FOR DOUBLE FLOATING POINT OPERATIONS     SEQ 0237

 11904						DFARP	T,200000,XX,0,0,200000,XX,0,0,ZZ,0,0,0^
 11905						DMOVE	AC,[200000,,XX
 11906	042127	120 04 0 00 043415 			0,,0]
 11907						DFAD	AC,[200000,,XX
 11908	042130	110 04 0 00 043415 			0,,0]
 11909	042131	312 04 0 00 043414 		CAME	AC,[ZZ,,0]
 11910	042132	003 04 0 00 001665 		ER3	AC,T
 11911	042133	312 05 0 00 043354 		CAME	AC+1,[0,,0]
 11912	042134	004 05 0 00 001665 		ER4	AC+1,T
 11913	042135	321 10 0 00 042127 		JUMPL	AC+4,.-^D6	;LOOP ON ERROR SWITCH^
 11914
 11915
 11916			001666		T=T+1
 11917			400000			XX=XX+XX
 11918						IFE	XX,<XX=1>
 11919			170400			ZZ=ZZ+1000
 11920						DFARP	T,200000,XX,0,0,200000,XX,0,0,ZZ,0,0,0^
 11921						DMOVE	AC,[200000,,XX
 11922	042136	120 04 0 00 043412 			0,,0]
 11923						DFAD	AC,[200000,,XX
 11924	042137	110 04 0 00 043412 			0,,0]
 11925	042140	312 04 0 00 043411 		CAME	AC,[ZZ,,0]
 11926	042141	003 04 0 00 001666 		ER3	AC,T
 11927	042142	312 05 0 00 043354 		CAME	AC+1,[0,,0]
 11928	042143	004 05 0 00 001666 		ER4	AC+1,T
 11929	042144	321 10 0 00 042136 		JUMPL	AC+4,.-^D6	;LOOP ON ERROR SWITCH^
 11930
 11931
 11932			000000			XX=0
 11933
 11934
 11935						REPEAT	^D9,<
 11936					T=T+1
 11937						XX=XX+XX
 11938						IFE	XX,<XX=1>
 11939						ZZ=ZZ+1000
 11940						DFARP	T,200000+XX,0,0,0,200000+XX,0,0,0,ZZ,0,0,0
 11941					>
 11942
 11943			001667		T=T+1
 11944			000000			XX=XX+XX
 11945			000001			IFE	XX,<XX=1>
 11946			171400			ZZ=ZZ+1000
 11947						DFARP	T,200000+XX,0,0,0,200000+XX,0,0,0,ZZ,0,0,0^
 11948						DMOVE	AC,[200000+XX,,0
 11949	042145	120 04 0 00 043407 			0,,0]
 11950						DFAD	AC,[200000+XX,,0
 11951	042146	110 04 0 00 043407 			0,,0]
 11952	042147	312 04 0 00 043406 		CAME	AC,[ZZ,,0]
 11953	042150	003 04 0 00 001667 		ER3	AC,T
 11954	042151	312 05 0 00 043354 		CAME	AC+1,[0,,0]
 11955	042152	004 05 0 00 001667 		ER4	AC+1,T
 11956	042153	321 10 0 00 042145 		JUMPL	AC+4,.-^D6	;LOOP ON ERROR SWITCH^
 11957
 11958DBKCD 	PDP-10 KI10 ADVANCED INSTRUCTION DIAGNOSTIC #4, VERSION 0,3 	MACRO %52(462) 12:35  9-AUG-76 PAGE 12-19
DBKCDM	MAC	26-MAY-76 16:52		TEST AR, ARX, AD, ADX AND NORMALIZE LOGIC FOR DOUBLE FLOATING POINT OPERATIONS     SEQ 0238

 11959			001670		T=T+1
 11960			000002			XX=XX+XX
 11961						IFE	XX,<XX=1>
 11962			172400			ZZ=ZZ+1000
 11963						DFARP	T,200000+XX,0,0,0,200000+XX,0,0,0,ZZ,0,0,0^
 11964						DMOVE	AC,[200000+XX,,0
 11965	042154	120 04 0 00 043404 			0,,0]
 11966						DFAD	AC,[200000+XX,,0
 11967	042155	110 04 0 00 043404 			0,,0]
 11968	042156	312 04 0 00 043403 		CAME	AC,[ZZ,,0]
 11969	042157	003 04 0 00 001670 		ER3	AC,T
 11970	042160	312 05 0 00 043354 		CAME	AC+1,[0,,0]
 11971	042161	004 05 0 00 001670 		ER4	AC+1,T
 11972	042162	321 10 0 00 042154 		JUMPL	AC+4,.-^D6	;LOOP ON ERROR SWITCH^
 11973
 11974
 11975			001671		T=T+1
 11976			000004			XX=XX+XX
 11977						IFE	XX,<XX=1>
 11978			173400			ZZ=ZZ+1000
 11979						DFARP	T,200000+XX,0,0,0,200000+XX,0,0,0,ZZ,0,0,0^
 11980						DMOVE	AC,[200000+XX,,0
 11981	042163	120 04 0 00 043401 			0,,0]
 11982						DFAD	AC,[200000+XX,,0
 11983	042164	110 04 0 00 043401 			0,,0]
 11984	042165	312 04 0 00 043400 		CAME	AC,[ZZ,,0]
 11985	042166	003 04 0 00 001671 		ER3	AC,T
 11986	042167	312 05 0 00 043354 		CAME	AC+1,[0,,0]
 11987	042170	004 05 0 00 001671 		ER4	AC+1,T
 11988	042171	321 10 0 00 042163 		JUMPL	AC+4,.-^D6	;LOOP ON ERROR SWITCH^
 11989
 11990
 11991			001672		T=T+1
 11992			000010			XX=XX+XX
 11993						IFE	XX,<XX=1>
 11994			174400			ZZ=ZZ+1000
 11995						DFARP	T,200000+XX,0,0,0,200000+XX,0,0,0,ZZ,0,0,0^
 11996						DMOVE	AC,[200000+XX,,0
 11997	042172	120 04 0 00 043376 			0,,0]
 11998						DFAD	AC,[200000+XX,,0
 11999	042173	110 04 0 00 043376 			0,,0]
 12000	042174	312 04 0 00 043375 		CAME	AC,[ZZ,,0]
 12001	042175	003 04 0 00 001672 		ER3	AC,T
 12002	042176	312 05 0 00 043354 		CAME	AC+1,[0,,0]
 12003	042177	004 05 0 00 001672 		ER4	AC+1,T
 12004	042200	321 10 0 00 042172 		JUMPL	AC+4,.-^D6	;LOOP ON ERROR SWITCH^
 12005
 12006
 12007			001673		T=T+1
 12008			000020			XX=XX+XX
 12009						IFE	XX,<XX=1>
 12010			175400			ZZ=ZZ+1000
 12011						DFARP	T,200000+XX,0,0,0,200000+XX,0,0,0,ZZ,0,0,0^
 12012						DMOVE	AC,[200000+XX,,0
 12013	042201	120 04 0 00 043373 			0,,0]DBKCD 	PDP-10 KI10 ADVANCED INSTRUCTION DIAGNOSTIC #4, VERSION 0,3 	MACRO %52(462) 12:35  9-AUG-76 PAGE 12-20
DBKCDM	MAC	26-MAY-76 16:52		TEST AR, ARX, AD, ADX AND NORMALIZE LOGIC FOR DOUBLE FLOATING POINT OPERATIONS     SEQ 0239

 12014						DFAD	AC,[200000+XX,,0
 12015	042202	110 04 0 00 043373 			0,,0]
 12016	042203	312 04 0 00 043372 		CAME	AC,[ZZ,,0]
 12017	042204	003 04 0 00 001673 		ER3	AC,T
 12018	042205	312 05 0 00 043354 		CAME	AC+1,[0,,0]
 12019	042206	004 05 0 00 001673 		ER4	AC+1,T
 12020	042207	321 10 0 00 042201 		JUMPL	AC+4,.-^D6	;LOOP ON ERROR SWITCH^
 12021
 12022
 12023			001674		T=T+1
 12024			000040			XX=XX+XX
 12025						IFE	XX,<XX=1>
 12026			176400			ZZ=ZZ+1000
 12027						DFARP	T,200000+XX,0,0,0,200000+XX,0,0,0,ZZ,0,0,0^
 12028						DMOVE	AC,[200000+XX,,0
 12029	042210	120 04 0 00 043370 			0,,0]
 12030						DFAD	AC,[200000+XX,,0
 12031	042211	110 04 0 00 043370 			0,,0]
 12032	042212	312 04 0 00 043367 		CAME	AC,[ZZ,,0]
 12033	042213	003 04 0 00 001674 		ER3	AC,T
 12034	042214	312 05 0 00 043354 		CAME	AC+1,[0,,0]
 12035	042215	004 05 0 00 001674 		ER4	AC+1,T
 12036	042216	321 10 0 00 042210 		JUMPL	AC+4,.-^D6	;LOOP ON ERROR SWITCH^
 12037
 12038
 12039			001675		T=T+1
 12040			000100			XX=XX+XX
 12041						IFE	XX,<XX=1>
 12042			177400			ZZ=ZZ+1000
 12043						DFARP	T,200000+XX,0,0,0,200000+XX,0,0,0,ZZ,0,0,0^
 12044						DMOVE	AC,[200000+XX,,0
 12045	042217	120 04 0 00 043365 			0,,0]
 12046						DFAD	AC,[200000+XX,,0
 12047	042220	110 04 0 00 043365 			0,,0]
 12048	042221	312 04 0 00 043364 		CAME	AC,[ZZ,,0]
 12049	042222	003 04 0 00 001675 		ER3	AC,T
 12050	042223	312 05 0 00 043354 		CAME	AC+1,[0,,0]
 12051	042224	004 05 0 00 001675 		ER4	AC+1,T
 12052	042225	321 10 0 00 042217 		JUMPL	AC+4,.-^D6	;LOOP ON ERROR SWITCH^
 12053
 12054
 12055			001676		T=T+1
 12056			000200			XX=XX+XX
 12057						IFE	XX,<XX=1>
 12058			200400			ZZ=ZZ+1000
 12059						DFARP	T,200000+XX,0,0,0,200000+XX,0,0,0,ZZ,0,0,0^
 12060						DMOVE	AC,[200000+XX,,0
 12061	042226	120 04 0 00 043362 			0,,0]
 12062						DFAD	AC,[200000+XX,,0
 12063	042227	110 04 0 00 043362 			0,,0]
 12064	042230	312 04 0 00 043360 		CAME	AC,[ZZ,,0]
 12065	042231	003 04 0 00 001676 		ER3	AC,T
 12066	042232	312 05 0 00 043354 		CAME	AC+1,[0,,0]
 12067	042233	004 05 0 00 001676 		ER4	AC+1,T
 12068	042234	321 10 0 00 042226 		JUMPL	AC+4,.-^D6	;LOOP ON ERROR SWITCH^DBKCD 	PDP-10 KI10 ADVANCED INSTRUCTION DIAGNOSTIC #4, VERSION 0,3 	MACRO %52(462) 12:35  9-AUG-76 PAGE 12-21
DBKCDM	MAC	26-MAY-76 16:52		TEST AR, ARX, AD, ADX AND NORMALIZE LOGIC FOR DOUBLE FLOATING POINT OPERATIONS     SEQ 0240

 12069
 12070
 12071			001677		T=T+1
 12072			000400			XX=XX+XX
 12073						IFE	XX,<XX=1>
 12074			201400			ZZ=ZZ+1000
 12075						DFARP	T,200000+XX,0,0,0,200000+XX,0,0,0,ZZ,0,0,0^
 12076						DMOVE	AC,[200000+XX,,0
 12077	042235	120 04 0 00 043360 			0,,0]
 12078						DFAD	AC,[200000+XX,,0
 12079	042236	110 04 0 00 043360 			0,,0]
 12080	042237	312 04 0 00 044231 		CAME	AC,[ZZ,,0]
 12081	042240	003 04 0 00 001677 		ER3	AC,T
 12082	042241	312 05 0 00 043354 		CAME	AC+1,[0,,0]
 12083	042242	004 05 0 00 001677 		ER4	AC+1,T
 12084	042243	321 10 0 00 042235 		JUMPL	AC+4,.-^D6	;LOOP ON ERROR SWITCH^
 12085
 12086DBKCD 	PDP-10 KI10 ADVANCED INSTRUCTION DIAGNOSTIC #4, VERSION 0,3 	MACRO %52(462) 12:35  9-AUG-76 PAGE 13
DBKCDM	MAC	26-MAY-76 16:52		TEST AR, ARX, AD, ADX AND NORMALIZE LOGIC FOR DOUBLE FLOATING POINT OPERATIONS     SEQ 0241

 12087					;RIPPLE ZEROS TESTS (ADD A FRACTION OF A RIPPLED ZERO TO SAME)
 12088
 12089			001700		T=1700
 12090
 12091			000000			XX=0
 12092
 12093
 12094					R1700:	REPEAT	^D18,<
 12095					T=T+1
 12096						XX=XX+XX+1
 12097						IFE	<XX-1>,<XX=-2>
 12098						DFARP	T,777,-1,-1,XX,777,-1,-1,XX,1777,-1,377777,XX
 12099					>
 12100
 12101			001701		T=T+1
 12102			000001			XX=XX+XX+1
 12103		777777	777776			IFE	<XX-1>,<XX=-2>
 12104						DFARP	T,777,-1,-1,XX,777,-1,-1,XX,1777,-1,377777,XX^
 12105						DMOVE	AC,[777,,-1
 12106	042244	120 04 0 00 043656 			-1,,XX]
 12107						DFAD	AC,[777,,-1
 12108	042245	110 04 0 00 043656 			-1,,XX]
 12109	042246	312 04 0 00 044515 		CAME	AC,[1777,,-1]
 12110	042247	003 04 0 00 001701 		ER3	AC,T
 12111	042250	312 05 0 00 043660 		CAME	AC+1,[377777,,XX]
 12112	042251	004 05 0 00 001701 		ER4	AC+1,T
 12113	042252	321 10 0 00 042244 		JUMPL	AC+4,.-^D6	;LOOP ON ERROR SWITCH^
 12114
 12115
 12116			001702		T=T+1
 12117		777777	777775			XX=XX+XX+1
 12118						IFE	<XX-1>,<XX=-2>
 12119						DFARP	T,777,-1,-1,XX,777,-1,-1,XX,1777,-1,377777,XX^
 12120						DMOVE	AC,[777,,-1
 12121	042253	120 04 0 00 043661 			-1,,XX]
 12122						DFAD	AC,[777,,-1
 12123	042254	110 04 0 00 043661 			-1,,XX]
 12124	042255	312 04 0 00 044515 		CAME	AC,[1777,,-1]
 12125	042256	003 04 0 00 001702 		ER3	AC,T
 12126	042257	312 05 0 00 043663 		CAME	AC+1,[377777,,XX]
 12127	042260	004 05 0 00 001702 		ER4	AC+1,T
 12128	042261	321 10 0 00 042253 		JUMPL	AC+4,.-^D6	;LOOP ON ERROR SWITCH^
 12129
 12130
 12131			001703		T=T+1
 12132		777777	777773			XX=XX+XX+1
 12133						IFE	<XX-1>,<XX=-2>
 12134						DFARP	T,777,-1,-1,XX,777,-1,-1,XX,1777,-1,377777,XX^
 12135						DMOVE	AC,[777,,-1
 12136	042262	120 04 0 00 043664 			-1,,XX]
 12137						DFAD	AC,[777,,-1
 12138	042263	110 04 0 00 043664 			-1,,XX]
 12139	042264	312 04 0 00 044515 		CAME	AC,[1777,,-1]
 12140	042265	003 04 0 00 001703 		ER3	AC,T
 12141	042266	312 05 0 00 043666 		CAME	AC+1,[377777,,XX]DBKCD 	PDP-10 KI10 ADVANCED INSTRUCTION DIAGNOSTIC #4, VERSION 0,3 	MACRO %52(462) 12:35  9-AUG-76 PAGE 13-1
DBKCDM	MAC	26-MAY-76 16:52		TEST AR, ARX, AD, ADX AND NORMALIZE LOGIC FOR DOUBLE FLOATING POINT OPERATIONS     SEQ 0242

 12142	042267	004 05 0 00 001703 		ER4	AC+1,T
 12143	042270	321 10 0 00 042262 		JUMPL	AC+4,.-^D6	;LOOP ON ERROR SWITCH^
 12144
 12145
 12146			001704		T=T+1
 12147		777777	777767			XX=XX+XX+1
 12148						IFE	<XX-1>,<XX=-2>
 12149						DFARP	T,777,-1,-1,XX,777,-1,-1,XX,1777,-1,377777,XX^
 12150						DMOVE	AC,[777,,-1
 12151	042271	120 04 0 00 043667 			-1,,XX]
 12152						DFAD	AC,[777,,-1
 12153	042272	110 04 0 00 043667 			-1,,XX]
 12154	042273	312 04 0 00 044515 		CAME	AC,[1777,,-1]
 12155	042274	003 04 0 00 001704 		ER3	AC,T
 12156	042275	312 05 0 00 043671 		CAME	AC+1,[377777,,XX]
 12157	042276	004 05 0 00 001704 		ER4	AC+1,T
 12158	042277	321 10 0 00 042271 		JUMPL	AC+4,.-^D6	;LOOP ON ERROR SWITCH^
 12159
 12160
 12161			001705		T=T+1
 12162		777777	777757			XX=XX+XX+1
 12163						IFE	<XX-1>,<XX=-2>
 12164						DFARP	T,777,-1,-1,XX,777,-1,-1,XX,1777,-1,377777,XX^
 12165						DMOVE	AC,[777,,-1
 12166	042300	120 04 0 00 043672 			-1,,XX]
 12167						DFAD	AC,[777,,-1
 12168	042301	110 04 0 00 043672 			-1,,XX]
 12169	042302	312 04 0 00 044515 		CAME	AC,[1777,,-1]
 12170	042303	003 04 0 00 001705 		ER3	AC,T
 12171	042304	312 05 0 00 043674 		CAME	AC+1,[377777,,XX]
 12172	042305	004 05 0 00 001705 		ER4	AC+1,T
 12173	042306	321 10 0 00 042300 		JUMPL	AC+4,.-^D6	;LOOP ON ERROR SWITCH^
 12174
 12175
 12176			001706		T=T+1
 12177		777777	777737			XX=XX+XX+1
 12178						IFE	<XX-1>,<XX=-2>
 12179						DFARP	T,777,-1,-1,XX,777,-1,-1,XX,1777,-1,377777,XX^
 12180						DMOVE	AC,[777,,-1
 12181	042307	120 04 0 00 043675 			-1,,XX]
 12182						DFAD	AC,[777,,-1
 12183	042310	110 04 0 00 043675 			-1,,XX]
 12184	042311	312 04 0 00 044515 		CAME	AC,[1777,,-1]
 12185	042312	003 04 0 00 001706 		ER3	AC,T
 12186	042313	312 05 0 00 043677 		CAME	AC+1,[377777,,XX]
 12187	042314	004 05 0 00 001706 		ER4	AC+1,T
 12188	042315	321 10 0 00 042307 		JUMPL	AC+4,.-^D6	;LOOP ON ERROR SWITCH^
 12189
 12190
 12191			001707		T=T+1
 12192		777777	777677			XX=XX+XX+1
 12193						IFE	<XX-1>,<XX=-2>
 12194						DFARP	T,777,-1,-1,XX,777,-1,-1,XX,1777,-1,377777,XX^
 12195						DMOVE	AC,[777,,-1
 12196	042316	120 04 0 00 043700 			-1,,XX]DBKCD 	PDP-10 KI10 ADVANCED INSTRUCTION DIAGNOSTIC #4, VERSION 0,3 	MACRO %52(462) 12:35  9-AUG-76 PAGE 13-2
DBKCDM	MAC	26-MAY-76 16:52		TEST AR, ARX, AD, ADX AND NORMALIZE LOGIC FOR DOUBLE FLOATING POINT OPERATIONS     SEQ 0243

 12197						DFAD	AC,[777,,-1
 12198	042317	110 04 0 00 043700 			-1,,XX]
 12199	042320	312 04 0 00 044515 		CAME	AC,[1777,,-1]
 12200	042321	003 04 0 00 001707 		ER3	AC,T
 12201	042322	312 05 0 00 043702 		CAME	AC+1,[377777,,XX]
 12202	042323	004 05 0 00 001707 		ER4	AC+1,T
 12203	042324	321 10 0 00 042316 		JUMPL	AC+4,.-^D6	;LOOP ON ERROR SWITCH^
 12204
 12205
 12206			001710		T=T+1
 12207		777777	777577			XX=XX+XX+1
 12208						IFE	<XX-1>,<XX=-2>
 12209						DFARP	T,777,-1,-1,XX,777,-1,-1,XX,1777,-1,377777,XX^
 12210						DMOVE	AC,[777,,-1
 12211	042325	120 04 0 00 043703 			-1,,XX]
 12212						DFAD	AC,[777,,-1
 12213	042326	110 04 0 00 043703 			-1,,XX]
 12214	042327	312 04 0 00 044515 		CAME	AC,[1777,,-1]
 12215	042330	003 04 0 00 001710 		ER3	AC,T
 12216	042331	312 05 0 00 043705 		CAME	AC+1,[377777,,XX]
 12217	042332	004 05 0 00 001710 		ER4	AC+1,T
 12218	042333	321 10 0 00 042325 		JUMPL	AC+4,.-^D6	;LOOP ON ERROR SWITCH^
 12219
 12220
 12221			001711		T=T+1
 12222		777777	777377			XX=XX+XX+1
 12223						IFE	<XX-1>,<XX=-2>
 12224						DFARP	T,777,-1,-1,XX,777,-1,-1,XX,1777,-1,377777,XX^
 12225						DMOVE	AC,[777,,-1
 12226	042334	120 04 0 00 043706 			-1,,XX]
 12227						DFAD	AC,[777,,-1
 12228	042335	110 04 0 00 043706 			-1,,XX]
 12229	042336	312 04 0 00 044515 		CAME	AC,[1777,,-1]
 12230	042337	003 04 0 00 001711 		ER3	AC,T
 12231	042340	312 05 0 00 043710 		CAME	AC+1,[377777,,XX]
 12232	042341	004 05 0 00 001711 		ER4	AC+1,T
 12233	042342	321 10 0 00 042334 		JUMPL	AC+4,.-^D6	;LOOP ON ERROR SWITCH^
 12234
 12235
 12236			001712		T=T+1
 12237		777777	776777			XX=XX+XX+1
 12238						IFE	<XX-1>,<XX=-2>
 12239						DFARP	T,777,-1,-1,XX,777,-1,-1,XX,1777,-1,377777,XX^
 12240						DMOVE	AC,[777,,-1
 12241	042343	120 04 0 00 043711 			-1,,XX]
 12242						DFAD	AC,[777,,-1
 12243	042344	110 04 0 00 043711 			-1,,XX]
 12244	042345	312 04 0 00 044515 		CAME	AC,[1777,,-1]
 12245	042346	003 04 0 00 001712 		ER3	AC,T
 12246	042347	312 05 0 00 043713 		CAME	AC+1,[377777,,XX]
 12247	042350	004 05 0 00 001712 		ER4	AC+1,T
 12248	042351	321 10 0 00 042343 		JUMPL	AC+4,.-^D6	;LOOP ON ERROR SWITCH^
 12249
 12250
 12251			001713		T=T+1DBKCD 	PDP-10 KI10 ADVANCED INSTRUCTION DIAGNOSTIC #4, VERSION 0,3 	MACRO %52(462) 12:35  9-AUG-76 PAGE 13-3
DBKCDM	MAC	26-MAY-76 16:52		TEST AR, ARX, AD, ADX AND NORMALIZE LOGIC FOR DOUBLE FLOATING POINT OPERATIONS     SEQ 0244

 12252		777777	775777			XX=XX+XX+1
 12253						IFE	<XX-1>,<XX=-2>
 12254						DFARP	T,777,-1,-1,XX,777,-1,-1,XX,1777,-1,377777,XX^
 12255						DMOVE	AC,[777,,-1
 12256	042352	120 04 0 00 043714 			-1,,XX]
 12257						DFAD	AC,[777,,-1
 12258	042353	110 04 0 00 043714 			-1,,XX]
 12259	042354	312 04 0 00 044515 		CAME	AC,[1777,,-1]
 12260	042355	003 04 0 00 001713 		ER3	AC,T
 12261	042356	312 05 0 00 043716 		CAME	AC+1,[377777,,XX]
 12262	042357	004 05 0 00 001713 		ER4	AC+1,T
 12263	042360	321 10 0 00 042352 		JUMPL	AC+4,.-^D6	;LOOP ON ERROR SWITCH^
 12264
 12265
 12266			001714		T=T+1
 12267		777777	773777			XX=XX+XX+1
 12268						IFE	<XX-1>,<XX=-2>
 12269						DFARP	T,777,-1,-1,XX,777,-1,-1,XX,1777,-1,377777,XX^
 12270						DMOVE	AC,[777,,-1
 12271	042361	120 04 0 00 043717 			-1,,XX]
 12272						DFAD	AC,[777,,-1
 12273	042362	110 04 0 00 043717 			-1,,XX]
 12274	042363	312 04 0 00 044515 		CAME	AC,[1777,,-1]
 12275	042364	003 04 0 00 001714 		ER3	AC,T
 12276	042365	312 05 0 00 043721 		CAME	AC+1,[377777,,XX]
 12277	042366	004 05 0 00 001714 		ER4	AC+1,T
 12278	042367	321 10 0 00 042361 		JUMPL	AC+4,.-^D6	;LOOP ON ERROR SWITCH^
 12279
 12280
 12281			001715		T=T+1
 12282		777777	767777			XX=XX+XX+1
 12283						IFE	<XX-1>,<XX=-2>
 12284						DFARP	T,777,-1,-1,XX,777,-1,-1,XX,1777,-1,377777,XX^
 12285						DMOVE	AC,[777,,-1
 12286	042370	120 04 0 00 043722 			-1,,XX]
 12287						DFAD	AC,[777,,-1
 12288	042371	110 04 0 00 043722 			-1,,XX]
 12289	042372	312 04 0 00 044515 		CAME	AC,[1777,,-1]
 12290	042373	003 04 0 00 001715 		ER3	AC,T
 12291	042374	312 05 0 00 043724 		CAME	AC+1,[377777,,XX]
 12292	042375	004 05 0 00 001715 		ER4	AC+1,T
 12293	042376	321 10 0 00 042370 		JUMPL	AC+4,.-^D6	;LOOP ON ERROR SWITCH^
 12294
 12295
 12296			001716		T=T+1
 12297		777777	757777			XX=XX+XX+1
 12298						IFE	<XX-1>,<XX=-2>
 12299						DFARP	T,777,-1,-1,XX,777,-1,-1,XX,1777,-1,377777,XX^
 12300						DMOVE	AC,[777,,-1
 12301	042377	120 04 0 00 043725 			-1,,XX]
 12302						DFAD	AC,[777,,-1
 12303	042400	110 04 0 00 043725 			-1,,XX]
 12304	042401	312 04 0 00 044515 		CAME	AC,[1777,,-1]
 12305	042402	003 04 0 00 001716 		ER3	AC,T
 12306	042403	312 05 0 00 043727 		CAME	AC+1,[377777,,XX]DBKCD 	PDP-10 KI10 ADVANCED INSTRUCTION DIAGNOSTIC #4, VERSION 0,3 	MACRO %52(462) 12:35  9-AUG-76 PAGE 13-4
DBKCDM	MAC	26-MAY-76 16:52		TEST AR, ARX, AD, ADX AND NORMALIZE LOGIC FOR DOUBLE FLOATING POINT OPERATIONS     SEQ 0245

 12307	042404	004 05 0 00 001716 		ER4	AC+1,T
 12308	042405	321 10 0 00 042377 		JUMPL	AC+4,.-^D6	;LOOP ON ERROR SWITCH^
 12309
 12310
 12311			001717		T=T+1
 12312		777777	737777			XX=XX+XX+1
 12313						IFE	<XX-1>,<XX=-2>
 12314						DFARP	T,777,-1,-1,XX,777,-1,-1,XX,1777,-1,377777,XX^
 12315						DMOVE	AC,[777,,-1
 12316	042406	120 04 0 00 043730 			-1,,XX]
 12317						DFAD	AC,[777,,-1
 12318	042407	110 04 0 00 043730 			-1,,XX]
 12319	042410	312 04 0 00 044515 		CAME	AC,[1777,,-1]
 12320	042411	003 04 0 00 001717 		ER3	AC,T
 12321	042412	312 05 0 00 043732 		CAME	AC+1,[377777,,XX]
 12322	042413	004 05 0 00 001717 		ER4	AC+1,T
 12323	042414	321 10 0 00 042406 		JUMPL	AC+4,.-^D6	;LOOP ON ERROR SWITCH^
 12324
 12325
 12326			001720		T=T+1
 12327		777777	677777			XX=XX+XX+1
 12328						IFE	<XX-1>,<XX=-2>
 12329						DFARP	T,777,-1,-1,XX,777,-1,-1,XX,1777,-1,377777,XX^
 12330						DMOVE	AC,[777,,-1
 12331	042415	120 04 0 00 043733 			-1,,XX]
 12332						DFAD	AC,[777,,-1
 12333	042416	110 04 0 00 043733 			-1,,XX]
 12334	042417	312 04 0 00 044515 		CAME	AC,[1777,,-1]
 12335	042420	003 04 0 00 001720 		ER3	AC,T
 12336	042421	312 05 0 00 043735 		CAME	AC+1,[377777,,XX]
 12337	042422	004 05 0 00 001720 		ER4	AC+1,T
 12338	042423	321 10 0 00 042415 		JUMPL	AC+4,.-^D6	;LOOP ON ERROR SWITCH^
 12339
 12340
 12341			001721		T=T+1
 12342		777777	577777			XX=XX+XX+1
 12343						IFE	<XX-1>,<XX=-2>
 12344						DFARP	T,777,-1,-1,XX,777,-1,-1,XX,1777,-1,377777,XX^
 12345						DMOVE	AC,[777,,-1
 12346	042424	120 04 0 00 043736 			-1,,XX]
 12347						DFAD	AC,[777,,-1
 12348	042425	110 04 0 00 043736 			-1,,XX]
 12349	042426	312 04 0 00 044515 		CAME	AC,[1777,,-1]
 12350	042427	003 04 0 00 001721 		ER3	AC,T
 12351	042430	312 05 0 00 043740 		CAME	AC+1,[377777,,XX]
 12352	042431	004 05 0 00 001721 		ER4	AC+1,T
 12353	042432	321 10 0 00 042424 		JUMPL	AC+4,.-^D6	;LOOP ON ERROR SWITCH^
 12354
 12355
 12356			001722		T=T+1
 12357		777777	377777			XX=XX+XX+1
 12358						IFE	<XX-1>,<XX=-2>
 12359						DFARP	T,777,-1,-1,XX,777,-1,-1,XX,1777,-1,377777,XX^
 12360						DMOVE	AC,[777,,-1
 12361	042433	120 04 0 00 043741 			-1,,XX]DBKCD 	PDP-10 KI10 ADVANCED INSTRUCTION DIAGNOSTIC #4, VERSION 0,3 	MACRO %52(462) 12:35  9-AUG-76 PAGE 13-5
DBKCDM	MAC	26-MAY-76 16:52		TEST AR, ARX, AD, ADX AND NORMALIZE LOGIC FOR DOUBLE FLOATING POINT OPERATIONS     SEQ 0246

 12362						DFAD	AC,[777,,-1
 12363	042434	110 04 0 00 043741 			-1,,XX]
 12364	042435	312 04 0 00 044515 		CAME	AC,[1777,,-1]
 12365	042436	003 04 0 00 001722 		ER3	AC,T
 12366	042437	312 05 0 00 043743 		CAME	AC+1,[377777,,XX]
 12367	042440	004 05 0 00 001722 		ER4	AC+1,T
 12368	042441	321 10 0 00 042433 		JUMPL	AC+4,.-^D6	;LOOP ON ERROR SWITCH^
 12369
 12370
 12371			000000			XX=0
 12372
 12373
 12374						REPEAT	^D18,<
 12375					T=T+1
 12376						XX=XX+XX+1
 12377						IFE	<XX-1>,<XX=-2>
 12378						DFARP	T,777,-1,XX,-1,777,-1,XX,-1,1777,-1,XX&377777,-1
 12379					>
 12380
 12381			001723		T=T+1
 12382			000001			XX=XX+XX+1
 12383		777777	777776			IFE	<XX-1>,<XX=-2>
 12384						DFARP	T,777,-1,XX,-1,777,-1,XX,-1,1777,-1,XX&377777,-1^
 12385						DMOVE	AC,[777,,-1
 12386	042442	120 04 0 00 043744 			XX,,-1]
 12387						DFAD	AC,[777,,-1
 12388	042443	110 04 0 00 043744 			XX,,-1]
 12389	042444	312 04 0 00 044515 		CAME	AC,[1777,,-1]
 12390	042445	003 04 0 00 001723 		ER3	AC,T
 12391	042446	312 05 0 00 043746 		CAME	AC+1,[XX&377777,,-1]
 12392	042447	004 05 0 00 001723 		ER4	AC+1,T
 12393	042450	321 10 0 00 042442 		JUMPL	AC+4,.-^D6	;LOOP ON ERROR SWITCH^
 12394
 12395
 12396			001724		T=T+1
 12397		777777	777775			XX=XX+XX+1
 12398						IFE	<XX-1>,<XX=-2>
 12399						DFARP	T,777,-1,XX,-1,777,-1,XX,-1,1777,-1,XX&377777,-1^
 12400						DMOVE	AC,[777,,-1
 12401	042451	120 04 0 00 043747 			XX,,-1]
 12402						DFAD	AC,[777,,-1
 12403	042452	110 04 0 00 043747 			XX,,-1]
 12404	042453	312 04 0 00 044515 		CAME	AC,[1777,,-1]
 12405	042454	003 04 0 00 001724 		ER3	AC,T
 12406	042455	312 05 0 00 043751 		CAME	AC+1,[XX&377777,,-1]
 12407	042456	004 05 0 00 001724 		ER4	AC+1,T
 12408	042457	321 10 0 00 042451 		JUMPL	AC+4,.-^D6	;LOOP ON ERROR SWITCH^
 12409
 12410
 12411			001725		T=T+1
 12412		777777	777773			XX=XX+XX+1
 12413						IFE	<XX-1>,<XX=-2>
 12414						DFARP	T,777,-1,XX,-1,777,-1,XX,-1,1777,-1,XX&377777,-1^
 12415						DMOVE	AC,[777,,-1
 12416	042460	120 04 0 00 043752 			XX,,-1]DBKCD 	PDP-10 KI10 ADVANCED INSTRUCTION DIAGNOSTIC #4, VERSION 0,3 	MACRO %52(462) 12:35  9-AUG-76 PAGE 13-6
DBKCDM	MAC	26-MAY-76 16:52		TEST AR, ARX, AD, ADX AND NORMALIZE LOGIC FOR DOUBLE FLOATING POINT OPERATIONS     SEQ 0247

 12417						DFAD	AC,[777,,-1
 12418	042461	110 04 0 00 043752 			XX,,-1]
 12419	042462	312 04 0 00 044515 		CAME	AC,[1777,,-1]
 12420	042463	003 04 0 00 001725 		ER3	AC,T
 12421	042464	312 05 0 00 043754 		CAME	AC+1,[XX&377777,,-1]
 12422	042465	004 05 0 00 001725 		ER4	AC+1,T
 12423	042466	321 10 0 00 042460 		JUMPL	AC+4,.-^D6	;LOOP ON ERROR SWITCH^
 12424
 12425
 12426			001726		T=T+1
 12427		777777	777767			XX=XX+XX+1
 12428						IFE	<XX-1>,<XX=-2>
 12429						DFARP	T,777,-1,XX,-1,777,-1,XX,-1,1777,-1,XX&377777,-1^
 12430						DMOVE	AC,[777,,-1
 12431	042467	120 04 0 00 043755 			XX,,-1]
 12432						DFAD	AC,[777,,-1
 12433	042470	110 04 0 00 043755 			XX,,-1]
 12434	042471	312 04 0 00 044515 		CAME	AC,[1777,,-1]
 12435	042472	003 04 0 00 001726 		ER3	AC,T
 12436	042473	312 05 0 00 043757 		CAME	AC+1,[XX&377777,,-1]
 12437	042474	004 05 0 00 001726 		ER4	AC+1,T
 12438	042475	321 10 0 00 042467 		JUMPL	AC+4,.-^D6	;LOOP ON ERROR SWITCH^
 12439
 12440
 12441			001727		T=T+1
 12442		777777	777757			XX=XX+XX+1
 12443						IFE	<XX-1>,<XX=-2>
 12444						DFARP	T,777,-1,XX,-1,777,-1,XX,-1,1777,-1,XX&377777,-1^
 12445						DMOVE	AC,[777,,-1
 12446	042476	120 04 0 00 043760 			XX,,-1]
 12447						DFAD	AC,[777,,-1
 12448	042477	110 04 0 00 043760 			XX,,-1]
 12449	042500	312 04 0 00 044515 		CAME	AC,[1777,,-1]
 12450	042501	003 04 0 00 001727 		ER3	AC,T
 12451	042502	312 05 0 00 043762 		CAME	AC+1,[XX&377777,,-1]
 12452	042503	004 05 0 00 001727 		ER4	AC+1,T
 12453	042504	321 10 0 00 042476 		JUMPL	AC+4,.-^D6	;LOOP ON ERROR SWITCH^
 12454
 12455
 12456			001730		T=T+1
 12457		777777	777737			XX=XX+XX+1
 12458						IFE	<XX-1>,<XX=-2>
 12459						DFARP	T,777,-1,XX,-1,777,-1,XX,-1,1777,-1,XX&377777,-1^
 12460						DMOVE	AC,[777,,-1
 12461	042505	120 04 0 00 043763 			XX,,-1]
 12462						DFAD	AC,[777,,-1
 12463	042506	110 04 0 00 043763 			XX,,-1]
 12464	042507	312 04 0 00 044515 		CAME	AC,[1777,,-1]
 12465	042510	003 04 0 00 001730 		ER3	AC,T
 12466	042511	312 05 0 00 043765 		CAME	AC+1,[XX&377777,,-1]
 12467	042512	004 05 0 00 001730 		ER4	AC+1,T
 12468	042513	321 10 0 00 042505 		JUMPL	AC+4,.-^D6	;LOOP ON ERROR SWITCH^
 12469
 12470
 12471			001731		T=T+1DBKCD 	PDP-10 KI10 ADVANCED INSTRUCTION DIAGNOSTIC #4, VERSION 0,3 	MACRO %52(462) 12:35  9-AUG-76 PAGE 13-7
DBKCDM	MAC	26-MAY-76 16:52		TEST AR, ARX, AD, ADX AND NORMALIZE LOGIC FOR DOUBLE FLOATING POINT OPERATIONS     SEQ 0248

 12472		777777	777677			XX=XX+XX+1
 12473						IFE	<XX-1>,<XX=-2>
 12474						DFARP	T,777,-1,XX,-1,777,-1,XX,-1,1777,-1,XX&377777,-1^
 12475						DMOVE	AC,[777,,-1
 12476	042514	120 04 0 00 043766 			XX,,-1]
 12477						DFAD	AC,[777,,-1
 12478	042515	110 04 0 00 043766 			XX,,-1]
 12479	042516	312 04 0 00 044515 		CAME	AC,[1777,,-1]
 12480	042517	003 04 0 00 001731 		ER3	AC,T
 12481	042520	312 05 0 00 043770 		CAME	AC+1,[XX&377777,,-1]
 12482	042521	004 05 0 00 001731 		ER4	AC+1,T
 12483	042522	321 10 0 00 042514 		JUMPL	AC+4,.-^D6	;LOOP ON ERROR SWITCH^
 12484
 12485
 12486			001732		T=T+1
 12487		777777	777577			XX=XX+XX+1
 12488						IFE	<XX-1>,<XX=-2>
 12489						DFARP	T,777,-1,XX,-1,777,-1,XX,-1,1777,-1,XX&377777,-1^
 12490						DMOVE	AC,[777,,-1
 12491	042523	120 04 0 00 043771 			XX,,-1]
 12492						DFAD	AC,[777,,-1
 12493	042524	110 04 0 00 043771 			XX,,-1]
 12494	042525	312 04 0 00 044515 		CAME	AC,[1777,,-1]
 12495	042526	003 04 0 00 001732 		ER3	AC,T
 12496	042527	312 05 0 00 043773 		CAME	AC+1,[XX&377777,,-1]
 12497	042530	004 05 0 00 001732 		ER4	AC+1,T
 12498	042531	321 10 0 00 042523 		JUMPL	AC+4,.-^D6	;LOOP ON ERROR SWITCH^
 12499
 12500
 12501			001733		T=T+1
 12502		777777	777377			XX=XX+XX+1
 12503						IFE	<XX-1>,<XX=-2>
 12504						DFARP	T,777,-1,XX,-1,777,-1,XX,-1,1777,-1,XX&377777,-1^
 12505						DMOVE	AC,[777,,-1
 12506	042532	120 04 0 00 043774 			XX,,-1]
 12507						DFAD	AC,[777,,-1
 12508	042533	110 04 0 00 043774 			XX,,-1]
 12509	042534	312 04 0 00 044515 		CAME	AC,[1777,,-1]
 12510	042535	003 04 0 00 001733 		ER3	AC,T
 12511	042536	312 05 0 00 043776 		CAME	AC+1,[XX&377777,,-1]
 12512	042537	004 05 0 00 001733 		ER4	AC+1,T
 12513	042540	321 10 0 00 042532 		JUMPL	AC+4,.-^D6	;LOOP ON ERROR SWITCH^
 12514
 12515
 12516			001734		T=T+1
 12517		777777	776777			XX=XX+XX+1
 12518						IFE	<XX-1>,<XX=-2>
 12519						DFARP	T,777,-1,XX,-1,777,-1,XX,-1,1777,-1,XX&377777,-1^
 12520						DMOVE	AC,[777,,-1
 12521	042541	120 04 0 00 043777 			XX,,-1]
 12522						DFAD	AC,[777,,-1
 12523	042542	110 04 0 00 043777 			XX,,-1]
 12524	042543	312 04 0 00 044515 		CAME	AC,[1777,,-1]
 12525	042544	003 04 0 00 001734 		ER3	AC,T
 12526	042545	312 05 0 00 044001 		CAME	AC+1,[XX&377777,,-1]DBKCD 	PDP-10 KI10 ADVANCED INSTRUCTION DIAGNOSTIC #4, VERSION 0,3 	MACRO %52(462) 12:35  9-AUG-76 PAGE 13-8
DBKCDM	MAC	26-MAY-76 16:52		TEST AR, ARX, AD, ADX AND NORMALIZE LOGIC FOR DOUBLE FLOATING POINT OPERATIONS     SEQ 0249

 12527	042546	004 05 0 00 001734 		ER4	AC+1,T
 12528	042547	321 10 0 00 042541 		JUMPL	AC+4,.-^D6	;LOOP ON ERROR SWITCH^
 12529
 12530
 12531			001735		T=T+1
 12532		777777	775777			XX=XX+XX+1
 12533						IFE	<XX-1>,<XX=-2>
 12534						DFARP	T,777,-1,XX,-1,777,-1,XX,-1,1777,-1,XX&377777,-1^
 12535						DMOVE	AC,[777,,-1
 12536	042550	120 04 0 00 044002 			XX,,-1]
 12537						DFAD	AC,[777,,-1
 12538	042551	110 04 0 00 044002 			XX,,-1]
 12539	042552	312 04 0 00 044515 		CAME	AC,[1777,,-1]
 12540	042553	003 04 0 00 001735 		ER3	AC,T
 12541	042554	312 05 0 00 044004 		CAME	AC+1,[XX&377777,,-1]
 12542	042555	004 05 0 00 001735 		ER4	AC+1,T
 12543	042556	321 10 0 00 042550 		JUMPL	AC+4,.-^D6	;LOOP ON ERROR SWITCH^
 12544
 12545
 12546			001736		T=T+1
 12547		777777	773777			XX=XX+XX+1
 12548						IFE	<XX-1>,<XX=-2>
 12549						DFARP	T,777,-1,XX,-1,777,-1,XX,-1,1777,-1,XX&377777,-1^
 12550						DMOVE	AC,[777,,-1
 12551	042557	120 04 0 00 044005 			XX,,-1]
 12552						DFAD	AC,[777,,-1
 12553	042560	110 04 0 00 044005 			XX,,-1]
 12554	042561	312 04 0 00 044515 		CAME	AC,[1777,,-1]
 12555	042562	003 04 0 00 001736 		ER3	AC,T
 12556	042563	312 05 0 00 044007 		CAME	AC+1,[XX&377777,,-1]
 12557	042564	004 05 0 00 001736 		ER4	AC+1,T
 12558	042565	321 10 0 00 042557 		JUMPL	AC+4,.-^D6	;LOOP ON ERROR SWITCH^
 12559
 12560
 12561			001737		T=T+1
 12562		777777	767777			XX=XX+XX+1
 12563						IFE	<XX-1>,<XX=-2>
 12564						DFARP	T,777,-1,XX,-1,777,-1,XX,-1,1777,-1,XX&377777,-1^
 12565						DMOVE	AC,[777,,-1
 12566	042566	120 04 0 00 044010 			XX,,-1]
 12567						DFAD	AC,[777,,-1
 12568	042567	110 04 0 00 044010 			XX,,-1]
 12569	042570	312 04 0 00 044515 		CAME	AC,[1777,,-1]
 12570	042571	003 04 0 00 001737 		ER3	AC,T
 12571	042572	312 05 0 00 044012 		CAME	AC+1,[XX&377777,,-1]
 12572	042573	004 05 0 00 001737 		ER4	AC+1,T
 12573	042574	321 10 0 00 042566 		JUMPL	AC+4,.-^D6	;LOOP ON ERROR SWITCH^
 12574
 12575
 12576			001740		T=T+1
 12577		777777	757777			XX=XX+XX+1
 12578						IFE	<XX-1>,<XX=-2>
 12579						DFARP	T,777,-1,XX,-1,777,-1,XX,-1,1777,-1,XX&377777,-1^
 12580						DMOVE	AC,[777,,-1
 12581	042575	120 04 0 00 044013 			XX,,-1]DBKCD 	PDP-10 KI10 ADVANCED INSTRUCTION DIAGNOSTIC #4, VERSION 0,3 	MACRO %52(462) 12:35  9-AUG-76 PAGE 13-9
DBKCDM	MAC	26-MAY-76 16:52		TEST AR, ARX, AD, ADX AND NORMALIZE LOGIC FOR DOUBLE FLOATING POINT OPERATIONS     SEQ 0250

 12582						DFAD	AC,[777,,-1
 12583	042576	110 04 0 00 044013 			XX,,-1]
 12584	042577	312 04 0 00 044515 		CAME	AC,[1777,,-1]
 12585	042600	003 04 0 00 001740 		ER3	AC,T
 12586	042601	312 05 0 00 044015 		CAME	AC+1,[XX&377777,,-1]
 12587	042602	004 05 0 00 001740 		ER4	AC+1,T
 12588	042603	321 10 0 00 042575 		JUMPL	AC+4,.-^D6	;LOOP ON ERROR SWITCH^
 12589
 12590
 12591			001741		T=T+1
 12592		777777	737777			XX=XX+XX+1
 12593						IFE	<XX-1>,<XX=-2>
 12594						DFARP	T,777,-1,XX,-1,777,-1,XX,-1,1777,-1,XX&377777,-1^
 12595						DMOVE	AC,[777,,-1
 12596	042604	120 04 0 00 044016 			XX,,-1]
 12597						DFAD	AC,[777,,-1
 12598	042605	110 04 0 00 044016 			XX,,-1]
 12599	042606	312 04 0 00 044515 		CAME	AC,[1777,,-1]
 12600	042607	003 04 0 00 001741 		ER3	AC,T
 12601	042610	312 05 0 00 044020 		CAME	AC+1,[XX&377777,,-1]
 12602	042611	004 05 0 00 001741 		ER4	AC+1,T
 12603	042612	321 10 0 00 042604 		JUMPL	AC+4,.-^D6	;LOOP ON ERROR SWITCH^
 12604
 12605
 12606			001742		T=T+1
 12607		777777	677777			XX=XX+XX+1
 12608						IFE	<XX-1>,<XX=-2>
 12609						DFARP	T,777,-1,XX,-1,777,-1,XX,-1,1777,-1,XX&377777,-1^
 12610						DMOVE	AC,[777,,-1
 12611	042613	120 04 0 00 044021 			XX,,-1]
 12612						DFAD	AC,[777,,-1
 12613	042614	110 04 0 00 044021 			XX,,-1]
 12614	042615	312 04 0 00 044515 		CAME	AC,[1777,,-1]
 12615	042616	003 04 0 00 001742 		ER3	AC,T
 12616	042617	312 05 0 00 044023 		CAME	AC+1,[XX&377777,,-1]
 12617	042620	004 05 0 00 001742 		ER4	AC+1,T
 12618	042621	321 10 0 00 042613 		JUMPL	AC+4,.-^D6	;LOOP ON ERROR SWITCH^
 12619
 12620
 12621			001743		T=T+1
 12622		777777	577777			XX=XX+XX+1
 12623						IFE	<XX-1>,<XX=-2>
 12624						DFARP	T,777,-1,XX,-1,777,-1,XX,-1,1777,-1,XX&377777,-1^
 12625						DMOVE	AC,[777,,-1
 12626	042622	120 04 0 00 044024 			XX,,-1]
 12627						DFAD	AC,[777,,-1
 12628	042623	110 04 0 00 044024 			XX,,-1]
 12629	042624	312 04 0 00 044515 		CAME	AC,[1777,,-1]
 12630	042625	003 04 0 00 001743 		ER3	AC,T
 12631	042626	312 05 0 00 044026 		CAME	AC+1,[XX&377777,,-1]
 12632	042627	004 05 0 00 001743 		ER4	AC+1,T
 12633	042630	321 10 0 00 042622 		JUMPL	AC+4,.-^D6	;LOOP ON ERROR SWITCH^
 12634
 12635
 12636			001744		T=T+1DBKCD 	PDP-10 KI10 ADVANCED INSTRUCTION DIAGNOSTIC #4, VERSION 0,3 	MACRO %52(462) 12:35  9-AUG-76 PAGE 13-10
DBKCDM	MAC	26-MAY-76 16:52		TEST AR, ARX, AD, ADX AND NORMALIZE LOGIC FOR DOUBLE FLOATING POINT OPERATIONS     SEQ 0251

 12637		777777	377777			XX=XX+XX+1
 12638						IFE	<XX-1>,<XX=-2>
 12639						DFARP	T,777,-1,XX,-1,777,-1,XX,-1,1777,-1,XX&377777,-1^
 12640						DMOVE	AC,[777,,-1
 12641	042631	120 04 0 00 044027 			XX,,-1]
 12642						DFAD	AC,[777,,-1
 12643	042632	110 04 0 00 044027 			XX,,-1]
 12644	042633	312 04 0 00 044515 		CAME	AC,[1777,,-1]
 12645	042634	003 04 0 00 001744 		ER3	AC,T
 12646	042635	312 05 0 00 043655 		CAME	AC+1,[XX&377777,,-1]
 12647	042636	004 05 0 00 001744 		ER4	AC+1,T
 12648	042637	321 10 0 00 042631 		JUMPL	AC+4,.-^D6	;LOOP ON ERROR SWITCH^
 12649
 12650
 12651			000000			XX=0
 12652
 12653
 12654						REPEAT	^D18,<
 12655					T=T+1
 12656						XX=XX+XX+1
 12657						IFE	<XX-1>,<XX=-2>
 12658						DFARP	T,777,XX,-1,-1,777,XX,-1,-1,1777,XX,377777,-1
 12659					>
 12660
 12661			001745		T=T+1
 12662			000001			XX=XX+XX+1
 12663		777777	777776			IFE	<XX-1>,<XX=-2>
 12664						DFARP	T,777,XX,-1,-1,777,XX,-1,-1,1777,XX,377777,-1^
 12665						DMOVE	AC,[777,,XX
 12666	042640	120 04 0 00 044031 			-1,,-1]
 12667						DFAD	AC,[777,,XX
 12668	042641	110 04 0 00 044031 			-1,,-1]
 12669	042642	312 04 0 00 044516 		CAME	AC,[1777,,XX]
 12670	042643	003 04 0 00 001745 		ER3	AC,T
 12671	042644	312 05 0 00 043655 		CAME	AC+1,[377777,,-1]
 12672	042645	004 05 0 00 001745 		ER4	AC+1,T
 12673	042646	321 10 0 00 042640 		JUMPL	AC+4,.-^D6	;LOOP ON ERROR SWITCH^
 12674
 12675
 12676			001746		T=T+1
 12677		777777	777775			XX=XX+XX+1
 12678						IFE	<XX-1>,<XX=-2>
 12679						DFARP	T,777,XX,-1,-1,777,XX,-1,-1,1777,XX,377777,-1^
 12680						DMOVE	AC,[777,,XX
 12681	042647	120 04 0 00 044033 			-1,,-1]
 12682						DFAD	AC,[777,,XX
 12683	042650	110 04 0 00 044033 			-1,,-1]
 12684	042651	312 04 0 00 044517 		CAME	AC,[1777,,XX]
 12685	042652	003 04 0 00 001746 		ER3	AC,T
 12686	042653	312 05 0 00 043655 		CAME	AC+1,[377777,,-1]
 12687	042654	004 05 0 00 001746 		ER4	AC+1,T
 12688	042655	321 10 0 00 042647 		JUMPL	AC+4,.-^D6	;LOOP ON ERROR SWITCH^
 12689
 12690
 12691			001747		T=T+1DBKCD 	PDP-10 KI10 ADVANCED INSTRUCTION DIAGNOSTIC #4, VERSION 0,3 	MACRO %52(462) 12:35  9-AUG-76 PAGE 13-11
DBKCDM	MAC	26-MAY-76 16:52		TEST AR, ARX, AD, ADX AND NORMALIZE LOGIC FOR DOUBLE FLOATING POINT OPERATIONS     SEQ 0252

 12692		777777	777773			XX=XX+XX+1
 12693						IFE	<XX-1>,<XX=-2>
 12694						DFARP	T,777,XX,-1,-1,777,XX,-1,-1,1777,XX,377777,-1^
 12695						DMOVE	AC,[777,,XX
 12696	042656	120 04 0 00 044035 			-1,,-1]
 12697						DFAD	AC,[777,,XX
 12698	042657	110 04 0 00 044035 			-1,,-1]
 12699	042660	312 04 0 00 044520 		CAME	AC,[1777,,XX]
 12700	042661	003 04 0 00 001747 		ER3	AC,T
 12701	042662	312 05 0 00 043655 		CAME	AC+1,[377777,,-1]
 12702	042663	004 05 0 00 001747 		ER4	AC+1,T
 12703	042664	321 10 0 00 042656 		JUMPL	AC+4,.-^D6	;LOOP ON ERROR SWITCH^
 12704
 12705
 12706			001750		T=T+1
 12707		777777	777767			XX=XX+XX+1
 12708						IFE	<XX-1>,<XX=-2>
 12709						DFARP	T,777,XX,-1,-1,777,XX,-1,-1,1777,XX,377777,-1^
 12710						DMOVE	AC,[777,,XX
 12711	042665	120 04 0 00 044037 			-1,,-1]
 12712						DFAD	AC,[777,,XX
 12713	042666	110 04 0 00 044037 			-1,,-1]
 12714	042667	312 04 0 00 044521 		CAME	AC,[1777,,XX]
 12715	042670	003 04 0 00 001750 		ER3	AC,T
 12716	042671	312 05 0 00 043655 		CAME	AC+1,[377777,,-1]
 12717	042672	004 05 0 00 001750 		ER4	AC+1,T
 12718	042673	321 10 0 00 042665 		JUMPL	AC+4,.-^D6	;LOOP ON ERROR SWITCH^
 12719
 12720
 12721			001751		T=T+1
 12722		777777	777757			XX=XX+XX+1
 12723						IFE	<XX-1>,<XX=-2>
 12724						DFARP	T,777,XX,-1,-1,777,XX,-1,-1,1777,XX,377777,-1^
 12725						DMOVE	AC,[777,,XX
 12726	042674	120 04 0 00 044041 			-1,,-1]
 12727						DFAD	AC,[777,,XX
 12728	042675	110 04 0 00 044041 			-1,,-1]
 12729	042676	312 04 0 00 044522 		CAME	AC,[1777,,XX]
 12730	042677	003 04 0 00 001751 		ER3	AC,T
 12731	042700	312 05 0 00 043655 		CAME	AC+1,[377777,,-1]
 12732	042701	004 05 0 00 001751 		ER4	AC+1,T
 12733	042702	321 10 0 00 042674 		JUMPL	AC+4,.-^D6	;LOOP ON ERROR SWITCH^
 12734
 12735
 12736			001752		T=T+1
 12737		777777	777737			XX=XX+XX+1
 12738						IFE	<XX-1>,<XX=-2>
 12739						DFARP	T,777,XX,-1,-1,777,XX,-1,-1,1777,XX,377777,-1^
 12740						DMOVE	AC,[777,,XX
 12741	042703	120 04 0 00 044043 			-1,,-1]
 12742						DFAD	AC,[777,,XX
 12743	042704	110 04 0 00 044043 			-1,,-1]
 12744	042705	312 04 0 00 044523 		CAME	AC,[1777,,XX]
 12745	042706	003 04 0 00 001752 		ER3	AC,T
 12746	042707	312 05 0 00 043655 		CAME	AC+1,[377777,,-1]DBKCD 	PDP-10 KI10 ADVANCED INSTRUCTION DIAGNOSTIC #4, VERSION 0,3 	MACRO %52(462) 12:35  9-AUG-76 PAGE 13-12
DBKCDM	MAC	26-MAY-76 16:52		TEST AR, ARX, AD, ADX AND NORMALIZE LOGIC FOR DOUBLE FLOATING POINT OPERATIONS     SEQ 0253

 12747	042710	004 05 0 00 001752 		ER4	AC+1,T
 12748	042711	321 10 0 00 042703 		JUMPL	AC+4,.-^D6	;LOOP ON ERROR SWITCH^
 12749
 12750
 12751			001753		T=T+1
 12752		777777	777677			XX=XX+XX+1
 12753						IFE	<XX-1>,<XX=-2>
 12754						DFARP	T,777,XX,-1,-1,777,XX,-1,-1,1777,XX,377777,-1^
 12755						DMOVE	AC,[777,,XX
 12756	042712	120 04 0 00 044045 			-1,,-1]
 12757						DFAD	AC,[777,,XX
 12758	042713	110 04 0 00 044045 			-1,,-1]
 12759	042714	312 04 0 00 044524 		CAME	AC,[1777,,XX]
 12760	042715	003 04 0 00 001753 		ER3	AC,T
 12761	042716	312 05 0 00 043655 		CAME	AC+1,[377777,,-1]
 12762	042717	004 05 0 00 001753 		ER4	AC+1,T
 12763	042720	321 10 0 00 042712 		JUMPL	AC+4,.-^D6	;LOOP ON ERROR SWITCH^
 12764
 12765
 12766			001754		T=T+1
 12767		777777	777577			XX=XX+XX+1
 12768						IFE	<XX-1>,<XX=-2>
 12769						DFARP	T,777,XX,-1,-1,777,XX,-1,-1,1777,XX,377777,-1^
 12770						DMOVE	AC,[777,,XX
 12771	042721	120 04 0 00 044047 			-1,,-1]
 12772						DFAD	AC,[777,,XX
 12773	042722	110 04 0 00 044047 			-1,,-1]
 12774	042723	312 04 0 00 044525 		CAME	AC,[1777,,XX]
 12775	042724	003 04 0 00 001754 		ER3	AC,T
 12776	042725	312 05 0 00 043655 		CAME	AC+1,[377777,,-1]
 12777	042726	004 05 0 00 001754 		ER4	AC+1,T
 12778	042727	321 10 0 00 042721 		JUMPL	AC+4,.-^D6	;LOOP ON ERROR SWITCH^
 12779
 12780
 12781			001755		T=T+1
 12782		777777	777377			XX=XX+XX+1
 12783						IFE	<XX-1>,<XX=-2>
 12784						DFARP	T,777,XX,-1,-1,777,XX,-1,-1,1777,XX,377777,-1^
 12785						DMOVE	AC,[777,,XX
 12786	042730	120 04 0 00 044051 			-1,,-1]
 12787						DFAD	AC,[777,,XX
 12788	042731	110 04 0 00 044051 			-1,,-1]
 12789	042732	312 04 0 00 044526 		CAME	AC,[1777,,XX]
 12790	042733	003 04 0 00 001755 		ER3	AC,T
 12791	042734	312 05 0 00 043655 		CAME	AC+1,[377777,,-1]
 12792	042735	004 05 0 00 001755 		ER4	AC+1,T
 12793	042736	321 10 0 00 042730 		JUMPL	AC+4,.-^D6	;LOOP ON ERROR SWITCH^
 12794
 12795
 12796			001756		T=T+1
 12797		777777	776777			XX=XX+XX+1
 12798						IFE	<XX-1>,<XX=-2>
 12799						DFARP	T,777,XX,-1,-1,777,XX,-1,-1,1777,XX,377777,-1^
 12800						DMOVE	AC,[777,,XX
 12801	042737	120 04 0 00 044053 			-1,,-1]DBKCD 	PDP-10 KI10 ADVANCED INSTRUCTION DIAGNOSTIC #4, VERSION 0,3 	MACRO %52(462) 12:35  9-AUG-76 PAGE 13-13
DBKCDM	MAC	26-MAY-76 16:52		TEST AR, ARX, AD, ADX AND NORMALIZE LOGIC FOR DOUBLE FLOATING POINT OPERATIONS     SEQ 0254

 12802						DFAD	AC,[777,,XX
 12803	042740	110 04 0 00 044053 			-1,,-1]
 12804	042741	312 04 0 00 044527 		CAME	AC,[1777,,XX]
 12805	042742	003 04 0 00 001756 		ER3	AC,T
 12806	042743	312 05 0 00 043655 		CAME	AC+1,[377777,,-1]
 12807	042744	004 05 0 00 001756 		ER4	AC+1,T
 12808	042745	321 10 0 00 042737 		JUMPL	AC+4,.-^D6	;LOOP ON ERROR SWITCH^
 12809
 12810
 12811			001757		T=T+1
 12812		777777	775777			XX=XX+XX+1
 12813						IFE	<XX-1>,<XX=-2>
 12814						DFARP	T,777,XX,-1,-1,777,XX,-1,-1,1777,XX,377777,-1^
 12815						DMOVE	AC,[777,,XX
 12816	042746	120 04 0 00 044055 			-1,,-1]
 12817						DFAD	AC,[777,,XX
 12818	042747	110 04 0 00 044055 			-1,,-1]
 12819	042750	312 04 0 00 044530 		CAME	AC,[1777,,XX]
 12820	042751	003 04 0 00 001757 		ER3	AC,T
 12821	042752	312 05 0 00 043655 		CAME	AC+1,[377777,,-1]
 12822	042753	004 05 0 00 001757 		ER4	AC+1,T
 12823	042754	321 10 0 00 042746 		JUMPL	AC+4,.-^D6	;LOOP ON ERROR SWITCH^
 12824
 12825
 12826			001760		T=T+1
 12827		777777	773777			XX=XX+XX+1
 12828						IFE	<XX-1>,<XX=-2>
 12829						DFARP	T,777,XX,-1,-1,777,XX,-1,-1,1777,XX,377777,-1^
 12830						DMOVE	AC,[777,,XX
 12831	042755	120 04 0 00 044057 			-1,,-1]
 12832						DFAD	AC,[777,,XX
 12833	042756	110 04 0 00 044057 			-1,,-1]
 12834	042757	312 04 0 00 044531 		CAME	AC,[1777,,XX]
 12835	042760	003 04 0 00 001760 		ER3	AC,T
 12836	042761	312 05 0 00 043655 		CAME	AC+1,[377777,,-1]
 12837	042762	004 05 0 00 001760 		ER4	AC+1,T
 12838	042763	321 10 0 00 042755 		JUMPL	AC+4,.-^D6	;LOOP ON ERROR SWITCH^
 12839
 12840
 12841			001761		T=T+1
 12842		777777	767777			XX=XX+XX+1
 12843						IFE	<XX-1>,<XX=-2>
 12844						DFARP	T,777,XX,-1,-1,777,XX,-1,-1,1777,XX,377777,-1^
 12845						DMOVE	AC,[777,,XX
 12846	042764	120 04 0 00 044061 			-1,,-1]
 12847						DFAD	AC,[777,,XX
 12848	042765	110 04 0 00 044061 			-1,,-1]
 12849	042766	312 04 0 00 044532 		CAME	AC,[1777,,XX]
 12850	042767	003 04 0 00 001761 		ER3	AC,T
 12851	042770	312 05 0 00 043655 		CAME	AC+1,[377777,,-1]
 12852	042771	004 05 0 00 001761 		ER4	AC+1,T
 12853	042772	321 10 0 00 042764 		JUMPL	AC+4,.-^D6	;LOOP ON ERROR SWITCH^
 12854
 12855
 12856			001762		T=T+1DBKCD 	PDP-10 KI10 ADVANCED INSTRUCTION DIAGNOSTIC #4, VERSION 0,3 	MACRO %52(462) 12:35  9-AUG-76 PAGE 13-14
DBKCDM	MAC	26-MAY-76 16:52		TEST AR, ARX, AD, ADX AND NORMALIZE LOGIC FOR DOUBLE FLOATING POINT OPERATIONS     SEQ 0255

 12857		777777	757777			XX=XX+XX+1
 12858						IFE	<XX-1>,<XX=-2>
 12859						DFARP	T,777,XX,-1,-1,777,XX,-1,-1,1777,XX,377777,-1^
 12860						DMOVE	AC,[777,,XX
 12861	042773	120 04 0 00 044063 			-1,,-1]
 12862						DFAD	AC,[777,,XX
 12863	042774	110 04 0 00 044063 			-1,,-1]
 12864	042775	312 04 0 00 044533 		CAME	AC,[1777,,XX]
 12865	042776	003 04 0 00 001762 		ER3	AC,T
 12866	042777	312 05 0 00 043655 		CAME	AC+1,[377777,,-1]
 12867	043000	004 05 0 00 001762 		ER4	AC+1,T
 12868	043001	321 10 0 00 042773 		JUMPL	AC+4,.-^D6	;LOOP ON ERROR SWITCH^
 12869
 12870
 12871			001763		T=T+1
 12872		777777	737777			XX=XX+XX+1
 12873						IFE	<XX-1>,<XX=-2>
 12874						DFARP	T,777,XX,-1,-1,777,XX,-1,-1,1777,XX,377777,-1^
 12875						DMOVE	AC,[777,,XX
 12876	043002	120 04 0 00 044065 			-1,,-1]
 12877						DFAD	AC,[777,,XX
 12878	043003	110 04 0 00 044065 			-1,,-1]
 12879	043004	312 04 0 00 044534 		CAME	AC,[1777,,XX]
 12880	043005	003 04 0 00 001763 		ER3	AC,T
 12881	043006	312 05 0 00 043655 		CAME	AC+1,[377777,,-1]
 12882	043007	004 05 0 00 001763 		ER4	AC+1,T
 12883	043010	321 10 0 00 043002 		JUMPL	AC+4,.-^D6	;LOOP ON ERROR SWITCH^
 12884
 12885
 12886			001764		T=T+1
 12887		777777	677777			XX=XX+XX+1
 12888						IFE	<XX-1>,<XX=-2>
 12889						DFARP	T,777,XX,-1,-1,777,XX,-1,-1,1777,XX,377777,-1^
 12890						DMOVE	AC,[777,,XX
 12891	043011	120 04 0 00 044067 			-1,,-1]
 12892						DFAD	AC,[777,,XX
 12893	043012	110 04 0 00 044067 			-1,,-1]
 12894	043013	312 04 0 00 044535 		CAME	AC,[1777,,XX]
 12895	043014	003 04 0 00 001764 		ER3	AC,T
 12896	043015	312 05 0 00 043655 		CAME	AC+1,[377777,,-1]
 12897	043016	004 05 0 00 001764 		ER4	AC+1,T
 12898	043017	321 10 0 00 043011 		JUMPL	AC+4,.-^D6	;LOOP ON ERROR SWITCH^
 12899
 12900
 12901			001765		T=T+1
 12902		777777	577777			XX=XX+XX+1
 12903						IFE	<XX-1>,<XX=-2>
 12904						DFARP	T,777,XX,-1,-1,777,XX,-1,-1,1777,XX,377777,-1^
 12905						DMOVE	AC,[777,,XX
 12906	043020	120 04 0 00 044071 			-1,,-1]
 12907						DFAD	AC,[777,,XX
 12908	043021	110 04 0 00 044071 			-1,,-1]
 12909	043022	312 04 0 00 044536 		CAME	AC,[1777,,XX]
 12910	043023	003 04 0 00 001765 		ER3	AC,T
 12911	043024	312 05 0 00 043655 		CAME	AC+1,[377777,,-1]DBKCD 	PDP-10 KI10 ADVANCED INSTRUCTION DIAGNOSTIC #4, VERSION 0,3 	MACRO %52(462) 12:35  9-AUG-76 PAGE 13-15
DBKCDM	MAC	26-MAY-76 16:52		TEST AR, ARX, AD, ADX AND NORMALIZE LOGIC FOR DOUBLE FLOATING POINT OPERATIONS     SEQ 0256

 12912	043025	004 05 0 00 001765 		ER4	AC+1,T
 12913	043026	321 10 0 00 043020 		JUMPL	AC+4,.-^D6	;LOOP ON ERROR SWITCH^
 12914
 12915
 12916			001766		T=T+1
 12917		777777	377777			XX=XX+XX+1
 12918						IFE	<XX-1>,<XX=-2>
 12919						DFARP	T,777,XX,-1,-1,777,XX,-1,-1,1777,XX,377777,-1^
 12920						DMOVE	AC,[777,,XX
 12921	043027	120 04 0 00 044073 			-1,,-1]
 12922						DFAD	AC,[777,,XX
 12923	043030	110 04 0 00 044073 			-1,,-1]
 12924	043031	312 04 0 00 044537 		CAME	AC,[1777,,XX]
 12925	043032	003 04 0 00 001766 		ER3	AC,T
 12926	043033	312 05 0 00 043655 		CAME	AC+1,[377777,,-1]
 12927	043034	004 05 0 00 001766 		ER4	AC+1,T
 12928	043035	321 10 0 00 043027 		JUMPL	AC+4,.-^D6	;LOOP ON ERROR SWITCH^
 12929
 12930
 12931			000000			ZZ=0
 12932
 12933
 12934						REPEAT	^D8,<
 12935					T=T+1
 12936						XX=XX+XX+1
 12937						IFE	<XX-1>,<XX=-2>
 12938						DFARP	T,XX&777,-1,-1,-1,XX&777,-1,-1,-1,1000+XX&777,-1,377777,-1
 12939					>
 12940
 12941			001767		T=T+1
 12942		777776	777777			XX=XX+XX+1
 12943						IFE	<XX-1>,<XX=-2>
 12944						DFARP	T,XX&777,-1,-1,-1,XX&777,-1,-1,-1,1000+XX&777,-1,377777,-1^
 12945						DMOVE	AC,[XX&777,,-1
 12946	043036	120 04 0 00 043653 			-1,,-1]
 12947						DFAD	AC,[XX&777,,-1
 12948	043037	110 04 0 00 043653 			-1,,-1]
 12949	043040	312 04 0 00 044515 		CAME	AC,[1000+XX&777,,-1]
 12950	043041	003 04 0 00 001767 		ER3	AC,T
 12951	043042	312 05 0 00 043655 		CAME	AC+1,[377777,,-1]
 12952	043043	004 05 0 00 001767 		ER4	AC+1,T
 12953	043044	321 10 0 00 043036 		JUMPL	AC+4,.-^D6	;LOOP ON ERROR SWITCH^
 12954
 12955
 12956			001770		T=T+1
 12957		777775	777777			XX=XX+XX+1
 12958						IFE	<XX-1>,<XX=-2>
 12959						DFARP	T,XX&777,-1,-1,-1,XX&777,-1,-1,-1,1000+XX&777,-1,377777,-1^
 12960						DMOVE	AC,[XX&777,,-1
 12961	043045	120 04 0 00 043653 			-1,,-1]
 12962						DFAD	AC,[XX&777,,-1
 12963	043046	110 04 0 00 043653 			-1,,-1]
 12964	043047	312 04 0 00 044515 		CAME	AC,[1000+XX&777,,-1]
 12965	043050	003 04 0 00 001770 		ER3	AC,T
 12966	043051	312 05 0 00 043655 		CAME	AC+1,[377777,,-1]DBKCD 	PDP-10 KI10 ADVANCED INSTRUCTION DIAGNOSTIC #4, VERSION 0,3 	MACRO %52(462) 12:35  9-AUG-76 PAGE 13-16
DBKCDM	MAC	26-MAY-76 16:52		TEST AR, ARX, AD, ADX AND NORMALIZE LOGIC FOR DOUBLE FLOATING POINT OPERATIONS     SEQ 0257

 12967	043052	004 05 0 00 001770 		ER4	AC+1,T
 12968	043053	321 10 0 00 043045 		JUMPL	AC+4,.-^D6	;LOOP ON ERROR SWITCH^
 12969
 12970
 12971			001771		T=T+1
 12972		777773	777777			XX=XX+XX+1
 12973						IFE	<XX-1>,<XX=-2>
 12974						DFARP	T,XX&777,-1,-1,-1,XX&777,-1,-1,-1,1000+XX&777,-1,377777,-1^
 12975						DMOVE	AC,[XX&777,,-1
 12976	043054	120 04 0 00 043653 			-1,,-1]
 12977						DFAD	AC,[XX&777,,-1
 12978	043055	110 04 0 00 043653 			-1,,-1]
 12979	043056	312 04 0 00 044515 		CAME	AC,[1000+XX&777,,-1]
 12980	043057	003 04 0 00 001771 		ER3	AC,T
 12981	043060	312 05 0 00 043655 		CAME	AC+1,[377777,,-1]
 12982	043061	004 05 0 00 001771 		ER4	AC+1,T
 12983	043062	321 10 0 00 043054 		JUMPL	AC+4,.-^D6	;LOOP ON ERROR SWITCH^
 12984
 12985
 12986			001772		T=T+1
 12987		777767	777777			XX=XX+XX+1
 12988						IFE	<XX-1>,<XX=-2>
 12989						DFARP	T,XX&777,-1,-1,-1,XX&777,-1,-1,-1,1000+XX&777,-1,377777,-1^
 12990						DMOVE	AC,[XX&777,,-1
 12991	043063	120 04 0 00 043653 			-1,,-1]
 12992						DFAD	AC,[XX&777,,-1
 12993	043064	110 04 0 00 043653 			-1,,-1]
 12994	043065	312 04 0 00 044515 		CAME	AC,[1000+XX&777,,-1]
 12995	043066	003 04 0 00 001772 		ER3	AC,T
 12996	043067	312 05 0 00 043655 		CAME	AC+1,[377777,,-1]
 12997	043070	004 05 0 00 001772 		ER4	AC+1,T
 12998	043071	321 10 0 00 043063 		JUMPL	AC+4,.-^D6	;LOOP ON ERROR SWITCH^
 12999
 13000
 13001			001773		T=T+1
 13002		777757	777777			XX=XX+XX+1
 13003						IFE	<XX-1>,<XX=-2>
 13004						DFARP	T,XX&777,-1,-1,-1,XX&777,-1,-1,-1,1000+XX&777,-1,377777,-1^
 13005						DMOVE	AC,[XX&777,,-1
 13006	043072	120 04 0 00 043653 			-1,,-1]
 13007						DFAD	AC,[XX&777,,-1
 13008	043073	110 04 0 00 043653 			-1,,-1]
 13009	043074	312 04 0 00 044515 		CAME	AC,[1000+XX&777,,-1]
 13010	043075	003 04 0 00 001773 		ER3	AC,T
 13011	043076	312 05 0 00 043655 		CAME	AC+1,[377777,,-1]
 13012	043077	004 05 0 00 001773 		ER4	AC+1,T
 13013	043100	321 10 0 00 043072 		JUMPL	AC+4,.-^D6	;LOOP ON ERROR SWITCH^
 13014
 13015
 13016			001774		T=T+1
 13017		777737	777777			XX=XX+XX+1
 13018						IFE	<XX-1>,<XX=-2>
 13019						DFARP	T,XX&777,-1,-1,-1,XX&777,-1,-1,-1,1000+XX&777,-1,377777,-1^
 13020						DMOVE	AC,[XX&777,,-1
 13021	043101	120 04 0 00 043653 			-1,,-1]DBKCD 	PDP-10 KI10 ADVANCED INSTRUCTION DIAGNOSTIC #4, VERSION 0,3 	MACRO %52(462) 12:35  9-AUG-76 PAGE 13-17
DBKCDM	MAC	26-MAY-76 16:52		TEST AR, ARX, AD, ADX AND NORMALIZE LOGIC FOR DOUBLE FLOATING POINT OPERATIONS     SEQ 0258

 13022						DFAD	AC,[XX&777,,-1
 13023	043102	110 04 0 00 043653 			-1,,-1]
 13024	043103	312 04 0 00 044515 		CAME	AC,[1000+XX&777,,-1]
 13025	043104	003 04 0 00 001774 		ER3	AC,T
 13026	043105	312 05 0 00 043655 		CAME	AC+1,[377777,,-1]
 13027	043106	004 05 0 00 001774 		ER4	AC+1,T
 13028	043107	321 10 0 00 043101 		JUMPL	AC+4,.-^D6	;LOOP ON ERROR SWITCH^
 13029
 13030
 13031			001775		T=T+1
 13032		777677	777777			XX=XX+XX+1
 13033						IFE	<XX-1>,<XX=-2>
 13034						DFARP	T,XX&777,-1,-1,-1,XX&777,-1,-1,-1,1000+XX&777,-1,377777,-1^
 13035						DMOVE	AC,[XX&777,,-1
 13036	043110	120 04 0 00 043653 			-1,,-1]
 13037						DFAD	AC,[XX&777,,-1
 13038	043111	110 04 0 00 043653 			-1,,-1]
 13039	043112	312 04 0 00 044515 		CAME	AC,[1000+XX&777,,-1]
 13040	043113	003 04 0 00 001775 		ER3	AC,T
 13041	043114	312 05 0 00 043655 		CAME	AC+1,[377777,,-1]
 13042	043115	004 05 0 00 001775 		ER4	AC+1,T
 13043	043116	321 10 0 00 043110 		JUMPL	AC+4,.-^D6	;LOOP ON ERROR SWITCH^
 13044
 13045
 13046			001776		T=T+1
 13047		777577	777777			XX=XX+XX+1
 13048						IFE	<XX-1>,<XX=-2>
 13049						DFARP	T,XX&777,-1,-1,-1,XX&777,-1,-1,-1,1000+XX&777,-1,377777,-1^
 13050						DMOVE	AC,[XX&777,,-1
 13051	043117	120 04 0 00 043653 			-1,,-1]
 13052						DFAD	AC,[XX&777,,-1
 13053	043120	110 04 0 00 043653 			-1,,-1]
 13054	043121	312 04 0 00 044515 		CAME	AC,[1000+XX&777,,-1]
 13055	043122	003 04 0 00 001776 		ER3	AC,T
 13056	043123	312 05 0 00 043655 		CAME	AC+1,[377777,,-1]
 13057	043124	004 05 0 00 001776 		ER4	AC+1,T
 13058	043125	321 10 0 00 043117 		JUMPL	AC+4,.-^D6	;LOOP ON ERROR SWITCH^
 13059
 13060
 13061			001777		T=T+1
 13062			000777			XX=<XX+XX+1>&777
 13063						DFARP	T,XX,-1,-1,-1,XX,-1,-1,-1,XX+XX+1,-1,377777,-1^
 13064						DMOVE	AC,[XX,,-1
 13065	043126	120 04 0 00 043653 			-1,,-1]
 13066						DFAD	AC,[XX,,-1
 13067	043127	110 04 0 00 043653 			-1,,-1]
 13068	043130	312 04 0 00 044515 		CAME	AC,[XX+XX+1,,-1]
 13069	043131	003 04 0 00 001777 		ER3	AC,T
 13070	043132	312 05 0 00 043655 		CAME	AC+1,[377777,,-1]
 13071	043133	004 05 0 00 001777 		ER4	AC+1,T
 13072	043134	321 10 0 00 043126 		JUMPL	AC+4,.-^D6	;LOOP ON ERROR SWITCH^
 13073					PAGEDBKCD 	PDP-10 KI10 ADVANCED INSTRUCTION DIAGNOSTIC #4, VERSION 0,3 	MACRO %52(462) 12:35  9-AUG-76 PAGE 13-18
DBKCDM	MAC	26-MAY-76 16:52		TEST AR, ARX, AD, ADX AND NORMALIZE LOGIC FOR DOUBLE FLOATING POINT OPERATIONS     SEQ 0259

 13074					;ADD A FRACTION OF ALL ONES TO SAME
 13075						DFA	20,777,-1,-1,-1,777,-1,-1,-1,1777,-1,377777,-1^
 13076					R2000:	DMOVE	AC,[777,,-1
 13077	043135	120 04 0 00 043653 			-1,,-1]
 13078						DFAD	AC,[777,,-1
 13079	043136	110 04 0 00 043653 			-1,,-1]
 13080	043137	312 04 0 00 044515 		CAME	AC,[1777,,-1]
 13081	043140	003 04 0 00 002001 		ER3	AC,2001
 13082	043141	312 05 0 00 043655 		CAME	AC+1,[377777,,-1]
 13083	043142	004 05 0 00 002001 		ER4	AC+1,2001
 13084	043143	321 10 0 00 043135 		JUMPL	AC+4,R2000	;LOOP ON ERROR SWITCH^
 13085
 13086
 13087	043144	254 00 0 00 030057 		JRST	BEGENDDBKCD 	PDP-10 KI10 ADVANCED INSTRUCTION DIAGNOSTIC #4, VERSION 0,3 	MACRO %52(462) 12:35  9-AUG-76 PAGE 1
UUOERR	KLM	22-APR-75		*UUOERR* OLD-UUO ERROR HANDLER SUBROUTINE, V75B, APR 22,1975                       SEQ 0260

 13088					SUBTTL	*UUOERR* OLD-UUO ERROR HANDLER SUBROUTINE, V75B, APR 22,1975
 13089
 13090					;THIS SUBROUTINE PROVIDES ERROR REPORTING THRU THE USE OF UUO'S.
 13091
 13092	043145	202 00 0 00 044717 	ERRMES:	MOVEM	0,%ERAC0#	;SAVE AC0
 13093						IFDEF	EXCASB,<IFDEF	KI10,<
 13094	043146	336 00 0 00 030040 		SKIPN	KAIFLG
 13095	043147	254 00 0 00 043154 		JRST	.+5
 13096	043150	332 00 0 00 030037 		SKIPE	USER		;USER MODE ?
 13097	043151	254 00 0 00 043154 		JRST	.+3
 13098	043152	332 00 0 00 030055 		SKIPE	MARGIN
 13099	043153	7 000 14 0 00 044540 		DATAO	APR,[IMGNOF,,ISPDOF] ;CLR MARGINS >>
 13100	043154	202 01 0 00 044720 		MOVEM	1,%ERAC1#	;SAVE AC1
 13101	043155	202 02 0 00 044721 		MOVEM	2,%ERAC2#	;SAVE AC2
 13102	043156	350 00 0 00 030053 		AOS	ERRTLS		;INCREMENT ERROR TOTALS
 13103	043157	550 00 0 00 030114 		HRRZ	0,$SVUPC	;GET PC OF UUO
 13104	043160	316 00 0 00 030052 		CAMN	0,ERRPC		;PC = PC OF LAST ERROR ?
 13105	043161	350 00 0 00 044714 		AOS	MICNT#		;YES, ADD 1 TO ERROR COUNT
 13106	043162	200 00 0 00 044714 		MOVE	0,MICNT
 13107	043163	504 00 0 00 030114 		HRL	0,$SVUPC
 13108	043164	336 00 0 00 030041 		SKIPN	KLFLG		;NOT KL10
 13109	043165	332 00 0 00 030037 		SKIPE	USER		;AND NOT USER?
 13110	043166	254 00 0 00 043170 		JRST	.+2
 13111	043167	7 004 14 0 00 000000 		DATAO	PI,0		;YES, DISPLAY ERROR PC,ERROR COUNT
 13112	043170	402 00 0 00 044715 		SETZM	PROCED#		;CLEAR PROCEED FLAG
 13113	043171	037 10 0 00 000002 		SWITCH
 13114	043172	603 00 0 00 040000 		TLNE	NOPNT		;PRINTOUT ?
 13115	043173	254 00 0 00 043306 		JRST	%ERRS1		;NO, RESTORE AC'S AND RETURN
 13116	043174	200 01 0 00 030113 		MOVE	1,$SVUUO
 13117	043175	242 01 0 00 777745 		LSH	1,-^D27
 13118	043176	202 01 0 00 044716 		MOVEM	1,%ACS1A#	;SAVE UUO NUMBER
 13119	043177	200 00 0 00 044717 		MOVE	0,%ERAC0
 13120	043200	200 01 0 00 044720 		MOVE	1,%ERAC1
 13121	043201	335 00 1 00 044713 		SKIPGE	@ERRLOP		;ERR LOOP AC > OR = 0 ?
 13122	043202	254 00 0 00 043346 		JRST	%ERRS4		;NO, SEE IF PRINT ALL
 13123	043203	402 00 0 00 044714 	%ERMS1:	SETZM	MICNT		;CLEAR ERROR COUNT
 13124	043204	331 00 0 00 030043 		SKIPL	MONCTL		;DIAG MON OR SYS EXER ?
 13125	043205	254 00 0 00 043211 		JRST	.+4		;NO, DON'T NEED TITLE
 13126	043206	336 00 0 00 044722 		SKIPN	%ERFST#		;FIRST ERROR ?
 13127	043207	037 04 0 00 000002 		PNTNM			;YES, PRINT PROGRAM TITLE
 13128	043210	476 00 0 00 044722 		SETOM	%ERFST
 13129	043211	336 00 0 00 030047 		SKIPN	PASCNT		;FIRST PASS ?
 13130	043212	254 00 0 00 043216 		JRST	.+4		;YES
 13131						PMSG	<^TEST PASS COUNT = >^
 13132	043213	037 02 0 00 044541 		PSIXM	[SIXBIT\^TEST PASS COUNT = _\]^
 13133	043214	200 00 0 00 030047 		MOVE	PASCNT
 13134	043215	037 15 0 00 000000 		PNTDEC
 13135						PMSG	<^PC =   >^
 13136	043216	037 02 0 00 044545 		PSIXM	[SIXBIT\^PC =   _\]^
 13137	043217	550 00 0 00 030114 		HRRZ	0,$SVUPC	;GET PC OF UUO
 13138	043220	202 00 0 00 030052 		MOVEM	0,ERRPC		;SAVE FOR COMPARE
 13139	043221	037 06 0 00 000000 		PNT6			;PRINT UUO ADDRESS
 13140						XLIST
 13141						IFDEF	ERDIAG,<LISTDBKCD 	PDP-10 KI10 ADVANCED INSTRUCTION DIAGNOSTIC #4, VERSION 0,3 	MACRO %52(462) 12:35  9-AUG-76 PAGE 2
UUOERR	KLM	22-APR-75		*UUOERR* OLD-UUO ERROR HANDLER SUBROUTINE, V75B, APR 22,1975                       SEQ 0261

 13142					;DIAGNOSTIC FORMAT ERROR PRINTER
 13143
 13144					;PRINT RESULT
 13145
 13146	043222				%ERMS2:	PMSG	<^RESULT  = >^
 13147	043222	037 02 0 00 044547 		PSIXM	[SIXBIT\^RESULT  = _\]^
 13148	043223	200 01 0 00 030113 		MOVE	1,$SVUUO	;GET AC # OF UUO
 13149	043224	242 01 0 00 777751 		LSH	1,-27
 13150	043225	405 01 0 00 000017 		ANDI	1,17
 13151	043226	200 00 0 01 000000 		MOVE	0,(1)		;GET C(AC)
 13152	043227	307 01 0 00 000001 		CAIG	1,1		;IS AC # = TO SAVE AC ?
 13153	043230	200 00 0 01 044717 		MOVE	0,%ERAC0(1)	;YES, GET SAVED AC
 13154	043231	037 13 0 00 000000 		PNTHW			;PRINT C(AC)
 13155
 13156	043232	200 00 0 00 030046 		MOVE	CONSW
 13157	043233	603 00 0 00 000200 		TLNE	TXTINH		;PRINT FAILURE DES AND FLT NBR ?
 13158	043234	254 00 0 00 043303 		JRST	%ERMORE		;NO, RESTORE AC'S ETC.
 13159
 13160					;PRINT FAILURE DESCRIPTOR
 13161
 13162	043235	200 01 0 00 044716 		MOVE	1,%ACS1A	;GET UUO NUMBER
 13163	043236	307 01 0 00 000001 		CAIG	1,1		;PRINT DESCRIPTOR ?
 13164	043237	254 00 0 00 043243 		JRST	%ERMS3		;NO, JUST PRINT FAULT NUMBER
 13165	043240	037 00 0 00 030242 		PCRL
 13166	043241	200 00 0 01 043267 		MOVE	%FLTTB(1)
 13167	043242	037 17 0 00 000000 		PNTAL			;PRINT FAULT DESCRIPTOR
 13168
 13169					;PRINT FAULT NUMBER
 13170
 13171	043243				%ERMS3:	PMSG	<^FAULT NUMBER = >^
 13172	043243	037 02 0 00 044551 		PSIXM	[SIXBIT\^FAULT NUMBER = _\]^
 13173	043244	201 00 0 00 043266 		MOVEI	TLET
 13174	043245	037 00 0 00 000000 		PNTA			;PRINT TEST LETTERDBKCD 	PDP-10 KI10 ADVANCED INSTRUCTION DIAGNOSTIC #4, VERSION 0,3 	MACRO %52(462) 12:35  9-AUG-76 PAGE 3
UUOERR	KLM	22-APR-75		*UUOERR* OLD-UUO ERROR HANDLER SUBROUTINE, V75B, APR 22,1975                       SEQ 0262

 13175
 13176	043246	550 00 0 00 030113 		HRRZ	$SVUUO
 13177	043247	602 00 0 00 700000 		TRNE	700000
 13178	043250	254 00 0 00 043264 		JRST	%ER6X
 13179	043251	602 00 0 00 070000 		TRNE	070000
 13180	043252	254 00 0 00 043262 		JRST	%ER5X
 13181	043253	602 00 0 00 007000 		TRNE	007000
 13182	043254	254 00 0 00 043260 		JRST	%ER4X
 13183	043255	037 03 0 00 000000 		PNT3			;PRINT FAULT NUMBER
 13184	043256	037 00 0 00 030242 	%ER7X:	PCRL
 13185	043257	254 00 0 00 043303 		JRST	%ERMORE
 13186
 13187	043260	037 04 0 00 000000 	%ER4X:	PNT4
 13188	043261	254 00 0 00 043256 		JRST	%ER7X
 13189	043262	037 05 0 00 000000 	%ER5X:	PNT5
 13190	043263	254 00 0 00 043256 		JRST	%ER7X
 13191	043264	037 06 0 00 000000 	%ER6X:	PNT6
 13192	043265	254 00 0 00 043256 		JRST	%ER7X
 13193
 13194					;FAILURE DESCRIPTORS
 13195
 13196	043266	000000	000000		TLET:	0			;TEST LETTER
 13197	043267	000000	000000		%FLTTB:	0			;DESCRIPTOR TABLE
 13198	043270	000000	043354		%NODES:	[0]			;NO DESCRIPTOR
 13199	043271	000000	043354		SPDES:	[0]			;SPECIAL USER FAILURE DESCRIPTOR
 13200	043272	000000	044554		$ACF:	[ASCIZ/C(AC) FAILED/]
 13201	043273	000000	044557		%AC1F:	[ASCIZ/C(AC+1) FAILED/]
 13202	043274	000000	044562		%EF:	[ASCIZ/C(E) FAILED/]
 13203	043275	000000	044565		%E1F:	[ASCIZ/C(E+1) FAILED/]
 13204	043276	000000	044570		%ARF:	[ASCIZ/C(C(ACR)) FAILED/]
 13205	043277	000000	044574		%AR1F:	[ASCIZ/C(C(ACR+1)) FAILED/]
 13206	043300	000000	044600		%ALF:	[ASCIZ/C(C(ACL)) FAILED/]
 13207	043301	000000	044604		%EEF:	[ASCIZ/C(C(E)) FAILED/]
 13208	043302	000000	044607		%FF:	[ASCIZ/FLAG FAILED/]
 13209					>
 13210						XLIST
 13211						LISTDBKCD 	PDP-10 KI10 ADVANCED INSTRUCTION DIAGNOSTIC #4, VERSION 0,3 	MACRO %52(462) 12:35  9-AUG-76 PAGE 8
UUOERR	KLM	22-APR-75		*UUOERR* OLD-UUO ERROR HANDLER SUBROUTINE, V75B, APR 22,1975                       SEQ 0263

 13212					;RESTORE AC'S AND RETURN OR HALT
 13213
 13214	043303	256 00 0 00 030101 	%ERMORE:XCT	ERMORE
 13215	043304	037 16 0 00 000002 		PNTMGN			;PRINT MARGINS
 13216	043305	037 10 0 00 000002 		SWITCH
 13217
 13218	043306	037 07 0 00 000003 	%ERRS1:	TTALTM			;ALTMODE CHECK
 13219	043307	254 00 0 00 043313 		JRST	.+4		;NONE
 13220	043310	201 00 0 00 043313 		MOVEI	.+3		;SAVE CONT ADDRESS
 13221	043311	202 00 0 00 000130 		MOVEM	JOBOPC
 13222	043312	254 00 1 00 030063 		JRST	@ALTMGO		;PERFORM TRANSFER
 13223	043313	200 00 0 00 030046 		MOVE	CONSW
 13224	043314	603 00 0 00 002000 		TLNE	0,ERSTOP	;HALT ON ERROR SWITCH SET ?
 13225	043315	037 14 0 00 000004 		ERRHLT			;YES
 13226	043316	607 00 0 00 004000 		TLNN	0,LOOPER	;LOOP ON ERROR SWITCH SET ?
 13227	043317	476 00 0 00 044715 		SETOM	PROCED		;NO, SET THE PROCEED FLAG
 13228	043320	603 00 0 00 010000 		TLNE	0,DING		;RING BELL SWITCH SET ?
 13229	043321	037 01 0 00 000007 		PBELL			;YES, GO RING BELL
 13230
 13231	043322	200 02 0 00 044721 	%ERRS2:	MOVE	2,%ERAC2	;RESTORE AC'S
 13232	043323	200 01 0 00 044720 		MOVE	1,%ERAC1
 13233	043324	476 00 1 00 044713 		SETOM	@ERRLOP		;SET C(ERR LOOP AC) TO -1
 13234	043325	336 00 0 00 044715 		SKIPN	PROCED		;LOOP ON ERROR ?
 13235	043326	254 00 0 00 043336 		JRST	%ERRS5		;YES
 13236	043327	350 00 1 00 044713 		AOS	@ERRLOP		;NO, INC C(ERR LOOP AC)
 13237	043330	350 00 1 00 044713 		AOS	@ERRLOP		;SO IT ='S 1
 13238	043331	331 00 0 00 030043 		SKIPL	MONCTL		;UNDER DIAGNOSTIC MONITOR ?
 13239	043332	254 00 0 00 043336 		JRST	%ERRS5		;NO, CONTINUE PROGRAM
 13240	043333	200 00 0 00 030053 		MOVE	0,ERRTLS	;YES
 13241	043334	301 00 0 00 000005 		CAIL	0,5		;PRINTED ALLOWED ERRORS ?
 13242	043335	254 00 0 00 030061 		JRST	$BEND2
 13243
 13244	043336	200 00 0 00 044717 	%ERRS5:	MOVE	0,%ERAC0	;NO, CONTINUE PROGRAM
 13245						IFDEF	EXCASB,<IFDEF KI10,<
 13246	043337	336 00 0 00 030040 		SKIPN	KAIFLG
 13247	043340	254 00 0 00 043345 		JRST	.+5
 13248	043341	332 00 0 00 030037 		SKIPE	USER
 13249	043342	254 00 0 00 043345 		JRST	.+3
 13250	043343	332 00 0 00 030055 		SKIPE	MARGIN
 13251	043344	7 000 14 0 00 030055 		DATAO	APR,MARGIN	;RESET MARGIN SYSTEM >>
 13252	043345	254 00 0 00 030065 		JRST	UUOEXT
 13253
 13254	043346	200 00 0 00 030046 	%ERRS4:	MOVE	0,CONSW
 13255	043347	607 00 0 00 001000 		TLNN	PALERS		;PRINT ALL ERRORS ?
 13256	043350	254 00 0 00 043306 		JRST	%ERRS1		;NO
 13257	043351	254 00 0 00 043203 		JRST	%ERMS1		;YESDBKCD 	PDP-10 KI10 ADVANCED INSTRUCTION DIAGNOSTIC #4, VERSION 0,3 	MACRO %52(462) 12:35  9-AUG-76 PAGE 1
STOR	KLM	 5-JAN-76		*STOR* RESERVED STORAGE, JAN 5,1976                                                SEQ 0264

 13258					SUBTTL	*STOR* RESERVED STORAGE, JAN 5,1976
 13259
 13260					;PROGRAM LITERALS
 13261
 13262						XLIST
 13263					IFNDEF	$LPAPER,<LIST>
 13264	043352					LIT
 13265	043352	45 70 51 64 00 00
 13266	043353	103 104 000 000 000
 13267	043354	000000	000000
 13268	043355	000000	000000
 13269	043356	200000	000000
 13270	043357	000000	000000
 13271	043360	200400	000000
 13272	043361	000000	000000
 13273	043362	200200	000000
 13274	043363	000000	000000
 13275	043364	177400	000000
 13276	043365	200100	000000
 13277	043366	000000	000000
 13278	043367	176400	000000
 13279	043370	200040	000000
 13280	043371	000000	000000
 13281	043372	175400	000000
 13282	043373	200020	000000
 13283	043374	000000	000000
 13284	043375	174400	000000
 13285	043376	200010	000000
 13286	043377	000000	000000
 13287	043400	173400	000000
 13288	043401	200004	000000
 13289	043402	000000	000000
 13290	043403	172400	000000
 13291	043404	200002	000000
 13292	043405	000000	000000
 13293	043406	171400	000000
 13294	043407	200001	000000
 13295	043410	000000	000000
 13296	043411	170400	000000
 13297	043412	200000	400000
 13298	043413	000000	000000
 13299	043414	167400	000000
 13300	043415	200000	200000
 13301	043416	000000	000000
 13302	043417	166400	000000
 13303	043420	200000	100000
 13304	043421	000000	000000
 13305	043422	165400	000000
 13306	043423	200000	040000
 13307	043424	000000	000000
 13308	043425	164400	000000
 13309	043426	200000	020000
 13310	043427	000000	000000
 13311	043430	163400	000000
 13312	043431	200000	010000DBKCD 	PDP-10 KI10 ADVANCED INSTRUCTION DIAGNOSTIC #4, VERSION 0,3 	MACRO %52(462) 12:35  9-AUG-76 PAGE 1-1
STOR	KLM	 5-JAN-76		*STOR* RESERVED STORAGE, JAN 5,1976                                                SEQ 0265

 13313	043432	000000	000000
 13314	043433	162400	000000
 13315	043434	200000	004000
 13316	043435	000000	000000
 13317	043436	161400	000000
 13318	043437	200000	002000
 13319	043440	000000	000000
 13320	043441	160400	000000
 13321	043442	200000	001000
 13322	043443	000000	000000
 13323	043444	157400	000000
 13324	043445	200000	000400
 13325	043446	000000	000000
 13326	043447	156400	000000
 13327	043450	200000	000200
 13328	043451	000000	000000
 13329	043452	155400	000000
 13330	043453	200000	000100
 13331	043454	000000	000000
 13332	043455	154400	000000
 13333	043456	200000	000040
 13334	043457	000000	000000
 13335	043460	153400	000000
 13336	043461	200000	000020
 13337	043462	000000	000000
 13338	043463	152400	000000
 13339	043464	200000	000010
 13340	043465	000000	000000
 13341	043466	151400	000000
 13342	043467	200000	000004
 13343	043470	000000	000000
 13344	043471	150400	000000
 13345	043472	200000	000002
 13346	043473	000000	000000
 13347	043474	147400	000000
 13348	043475	200000	000001
 13349	043476	000000	000000
 13350	043477	146400	000000
 13351	043500	200000	000000
 13352	043501	400000	000000
 13353	043502	200000	000000
 13354	043503	200000	000000
 13355	043504	145400	000000
 13356	043505	200000	000000
 13357	043506	100000	000000
 13358	043507	144400	000000
 13359	043510	200000	000000
 13360	043511	040000	000000
 13361	043512	143400	000000
 13362	043513	200000	000000
 13363	043514	020000	000000
 13364	043515	142400	000000
 13365	043516	200000	000000
 13366	043517	010000	000000
 13367	043520	141400	000000DBKCD 	PDP-10 KI10 ADVANCED INSTRUCTION DIAGNOSTIC #4, VERSION 0,3 	MACRO %52(462) 12:35  9-AUG-76 PAGE 1-2
STOR	KLM	 5-JAN-76		*STOR* RESERVED STORAGE, JAN 5,1976                                                SEQ 0266

 13368	043521	200000	000000
 13369	043522	004000	000000
 13370	043523	140400	000000
 13371	043524	200000	000000
 13372	043525	002000	000000
 13373	043526	137400	000000
 13374	043527	200000	000000
 13375	043530	001000	000000
 13376	043531	136400	000000
 13377	043532	200000	000000
 13378	043533	000400	000000
 13379	043534	135400	000000
 13380	043535	200000	000000
 13381	043536	000200	000000
 13382	043537	134400	000000
 13383	043540	200000	000000
 13384	043541	000100	000000
 13385	043542	133400	000000
 13386	043543	200000	000000
 13387	043544	000040	000000
 13388	043545	132400	000000
 13389	043546	200000	000000
 13390	043547	000020	000000
 13391	043550	131400	000000
 13392	043551	200000	000000
 13393	043552	000010	000000
 13394	043553	130400	000000
 13395	043554	200000	000000
 13396	043555	000004	000000
 13397	043556	127400	000000
 13398	043557	200000	000000
 13399	043560	000002	000000
 13400	043561	126400	000000
 13401	043562	200000	000000
 13402	043563	000001	000000
 13403	043564	125400	000000
 13404	043565	200000	000000
 13405	043566	000000	400000
 13406	043567	124400	000000
 13407	043570	200000	000000
 13408	043571	000000	200000
 13409	043572	123400	000000
 13410	043573	200000	000000
 13411	043574	000000	100000
 13412	043575	122400	000000
 13413	043576	200000	000000
 13414	043577	000000	040000
 13415	043600	121400	000000
 13416	043601	200000	000000
 13417	043602	000000	020000
 13418	043603	120400	000000
 13419	043604	200000	000000
 13420	043605	000000	010000
 13421	043606	117400	000000
 13422	043607	200000	000000DBKCD 	PDP-10 KI10 ADVANCED INSTRUCTION DIAGNOSTIC #4, VERSION 0,3 	MACRO %52(462) 12:35  9-AUG-76 PAGE 1-3
STOR	KLM	 5-JAN-76		*STOR* RESERVED STORAGE, JAN 5,1976                                                SEQ 0267

 13423	043610	000000	004000
 13424	043611	116400	000000
 13425	043612	200000	000000
 13426	043613	000000	002000
 13427	043614	115400	000000
 13428	043615	200000	000000
 13429	043616	000000	001000
 13430	043617	114400	000000
 13431	043620	200000	000000
 13432	043621	000000	000400
 13433	043622	113400	000000
 13434	043623	200000	000000
 13435	043624	000000	000200
 13436	043625	112400	000000
 13437	043626	200000	000000
 13438	043627	000000	000100
 13439	043630	111400	000000
 13440	043631	200000	000000
 13441	043632	000000	000040
 13442	043633	110400	000000
 13443	043634	200000	000000
 13444	043635	000000	000020
 13445	043636	107400	000000
 13446	043637	200000	000000
 13447	043640	000000	000010
 13448	043641	106400	000000
 13449	043642	200000	000000
 13450	043643	000000	000004
 13451	043644	105400	000000
 13452	043645	200000	000000
 13453	043646	000000	000002
 13454	043647	104400	000000
 13455	043650	200000	000000
 13456	043651	000000	000001
 13457	043652	103400	000000
 13458	043653	000777	777777
 13459	043654	777777	777777
 13460	043655	377777	777777
 13461	043656	000777	777777
 13462	043657	777777	777776
 13463	043660	377777	777776
 13464	043661	000777	777777
 13465	043662	777777	777775
 13466	043663	377777	777775
 13467	043664	000777	777777
 13468	043665	777777	777773
 13469	043666	377777	777773
 13470	043667	000777	777777
 13471	043670	777777	777767
 13472	043671	377777	777767
 13473	043672	000777	777777
 13474	043673	777777	777757
 13475	043674	377777	777757
 13476	043675	000777	777777
 13477	043676	777777	777737DBKCD 	PDP-10 KI10 ADVANCED INSTRUCTION DIAGNOSTIC #4, VERSION 0,3 	MACRO %52(462) 12:35  9-AUG-76 PAGE 1-4
STOR	KLM	 5-JAN-76		*STOR* RESERVED STORAGE, JAN 5,1976                                                SEQ 0268

 13478	043677	377777	777737
 13479	043700	000777	777777
 13480	043701	777777	777677
 13481	043702	377777	777677
 13482	043703	000777	777777
 13483	043704	777777	777577
 13484	043705	377777	777577
 13485	043706	000777	777777
 13486	043707	777777	777377
 13487	043710	377777	777377
 13488	043711	000777	777777
 13489	043712	777777	776777
 13490	043713	377777	776777
 13491	043714	000777	777777
 13492	043715	777777	775777
 13493	043716	377777	775777
 13494	043717	000777	777777
 13495	043720	777777	773777
 13496	043721	377777	773777
 13497	043722	000777	777777
 13498	043723	777777	767777
 13499	043724	377777	767777
 13500	043725	000777	777777
 13501	043726	777777	757777
 13502	043727	377777	757777
 13503	043730	000777	777777
 13504	043731	777777	737777
 13505	043732	377777	737777
 13506	043733	000777	777777
 13507	043734	777777	677777
 13508	043735	377777	677777
 13509	043736	000777	777777
 13510	043737	777777	577777
 13511	043740	377777	577777
 13512	043741	000777	777777
 13513	043742	777777	377777
 13514	043743	377777	377777
 13515	043744	000777	777777
 13516	043745	777776	777777
 13517	043746	377776	777777
 13518	043747	000777	777777
 13519	043750	777775	777777
 13520	043751	377775	777777
 13521	043752	000777	777777
 13522	043753	777773	777777
 13523	043754	377773	777777
 13524	043755	000777	777777
 13525	043756	777767	777777
 13526	043757	377767	777777
 13527	043760	000777	777777
 13528	043761	777757	777777
 13529	043762	377757	777777
 13530	043763	000777	777777
 13531	043764	777737	777777
 13532	043765	377737	777777DBKCD 	PDP-10 KI10 ADVANCED INSTRUCTION DIAGNOSTIC #4, VERSION 0,3 	MACRO %52(462) 12:35  9-AUG-76 PAGE 1-5
STOR	KLM	 5-JAN-76		*STOR* RESERVED STORAGE, JAN 5,1976                                                SEQ 0269

 13533	043766	000777	777777
 13534	043767	777677	777777
 13535	043770	377677	777777
 13536	043771	000777	777777
 13537	043772	777577	777777
 13538	043773	377577	777777
 13539	043774	000777	777777
 13540	043775	777377	777777
 13541	043776	377377	777777
 13542	043777	000777	777777
 13543	044000	776777	777777
 13544	044001	376777	777777
 13545	044002	000777	777777
 13546	044003	775777	777777
 13547	044004	375777	777777
 13548	044005	000777	777777
 13549	044006	773777	777777
 13550	044007	373777	777777
 13551	044010	000777	777777
 13552	044011	767777	777777
 13553	044012	367777	777777
 13554	044013	000777	777777
 13555	044014	757777	777777
 13556	044015	357777	777777
 13557	044016	000777	777777
 13558	044017	737777	777777
 13559	044020	337777	777777
 13560	044021	000777	777777
 13561	044022	677777	777777
 13562	044023	277777	777777
 13563	044024	000777	777777
 13564	044025	577777	777777
 13565	044026	177777	777777
 13566	044027	000777	777777
 13567	044030	377777	777777
 13568	044031	000777	777776
 13569	044032	777777	777777
 13570	044033	000777	777775
 13571	044034	777777	777777
 13572	044035	000777	777773
 13573	044036	777777	777777
 13574	044037	000777	777767
 13575	044040	777777	777777
 13576	044041	000777	777757
 13577	044042	777777	777777
 13578	044043	000777	777737
 13579	044044	777777	777777
 13580	044045	000777	777677
 13581	044046	777777	777777
 13582	044047	000777	777577
 13583	044050	777777	777777
 13584	044051	000777	777377
 13585	044052	777777	777777
 13586	044053	000777	776777
 13587	044054	777777	777777DBKCD 	PDP-10 KI10 ADVANCED INSTRUCTION DIAGNOSTIC #4, VERSION 0,3 	MACRO %52(462) 12:35  9-AUG-76 PAGE 1-6
STOR	KLM	 5-JAN-76		*STOR* RESERVED STORAGE, JAN 5,1976                                                SEQ 0270

 13588	044055	000777	775777
 13589	044056	777777	777777
 13590	044057	000777	773777
 13591	044060	777777	777777
 13592	044061	000777	767777
 13593	044062	777777	777777
 13594	044063	000777	757777
 13595	044064	777777	777777
 13596	044065	000777	737777
 13597	044066	777777	777777
 13598	044067	000777	677777
 13599	044070	777777	777777
 13600	044071	000777	577777
 13601	044072	777777	777777
 13602	044073	000777	377777
 13603	044074	777777	777777
 13604	044075	000776	777777
 13605	044076	777777	777777
 13606	044077	000775	777777
 13607	044100	777777	777777
 13608	044101	000773	777777
 13609	044102	777777	777777
 13610	044103	000767	777777
 13611	044104	777777	777777
 13612	044105	000757	777777
 13613	044106	777777	777777
 13614	044107	000737	777777
 13615	044110	777777	777777
 13616	044111	000677	777777
 13617	044112	777777	777777
 13618	044113	000577	777777
 13619	044114	777777	777777
 13620	044115	001377	777777
 13621	044116	777777	777777
 13622	044117	000000	000000
 13623	044120	000000	000001
 13624	044121	000000	000000
 13625	044122	000000	000002
 13626	044123	000000	000000
 13627	044124	000000	000004
 13628	044125	000000	000000
 13629	044126	000000	000010
 13630	044127	000000	000000
 13631	044130	000000	000020
 13632	044131	000000	000000
 13633	044132	000000	000040
 13634	044133	000000	000000
 13635	044134	000000	000100
 13636	044135	000000	000000
 13637	044136	000000	000200
 13638	044137	000000	000000
 13639	044140	000000	000400
 13640	044141	000000	000000
 13641	044142	000000	001000
 13642	044143	000000	000000DBKCD 	PDP-10 KI10 ADVANCED INSTRUCTION DIAGNOSTIC #4, VERSION 0,3 	MACRO %52(462) 12:35  9-AUG-76 PAGE 1-7
STOR	KLM	 5-JAN-76		*STOR* RESERVED STORAGE, JAN 5,1976                                                SEQ 0271

 13643	044144	000000	002000
 13644	044145	000000	000000
 13645	044146	000000	004000
 13646	044147	000000	000000
 13647	044150	000000	010000
 13648	044151	000000	000000
 13649	044152	000000	020000
 13650	044153	000000	000000
 13651	044154	000000	040000
 13652	044155	000000	000000
 13653	044156	000000	100000
 13654	044157	000000	000000
 13655	044160	000000	200000
 13656	044161	000000	000000
 13657	044162	000000	400000
 13658	044163	000000	000000
 13659	044164	000001	000000
 13660	044165	000000	000000
 13661	044166	000002	000000
 13662	044167	000000	000000
 13663	044170	000004	000000
 13664	044171	000000	000000
 13665	044172	000010	000000
 13666	044173	000000	000000
 13667	044174	000020	000000
 13668	044175	000000	000000
 13669	044176	000040	000000
 13670	044177	000000	000000
 13671	044200	000100	000000
 13672	044201	000000	000000
 13673	044202	000200	000000
 13674	044203	000000	000000
 13675	044204	000400	000000
 13676	044205	000000	000000
 13677	044206	001000	000000
 13678	044207	000000	000000
 13679	044210	002000	000000
 13680	044211	000000	000000
 13681	044212	004000	000000
 13682	044213	000000	000000
 13683	044214	010000	000000
 13684	044215	000000	000000
 13685	044216	020000	000000
 13686	044217	000000	000000
 13687	044220	040000	000000
 13688	044221	000000	000000
 13689	044222	100000	000000
 13690	044223	000000	000000
 13691	044224	400000	000000
 13692	044225	000377	777777
 13693	044226	777777	777777
 13694	044227	200777	777777
 13695	044230	777777	777777
 13696	044231	201400	000000
 13697	044232	201400	000001DBKCD 	PDP-10 KI10 ADVANCED INSTRUCTION DIAGNOSTIC #4, VERSION 0,3 	MACRO %52(462) 12:35  9-AUG-76 PAGE 1-8
STOR	KLM	 5-JAN-76		*STOR* RESERVED STORAGE, JAN 5,1976                                                SEQ 0272

 13698	044233	201400	000002
 13699	044234	201400	000004
 13700	044235	201400	000010
 13701	044236	201400	000020
 13702	044237	201400	000040
 13703	044240	201400	000100
 13704	044241	201400	000200
 13705	044242	201400	000400
 13706	044243	201400	001000
 13707	044244	201400	002000
 13708	044245	201400	004000
 13709	044246	201400	010000
 13710	044247	201400	020000
 13711	044250	201400	040000
 13712	044251	201400	100000
 13713	044252	201400	200000
 13714	044253	201400	400000
 13715	044254	201401	000000
 13716	044255	201402	000000
 13717	044256	201404	000000
 13718	044257	201410	000000
 13719	044260	201420	000000
 13720	044261	201440	000000
 13721	044262	201500	000000
 13722	044263	201600	000000
 13723	044264	200777	777777
 13724	044265	777777	777776
 13725	044266	201777	777777
 13726	044267	200777	777777
 13727	044270	777777	777775
 13728	044271	200777	777777
 13729	044272	777777	777773
 13730	044273	200777	777777
 13731	044274	777777	777767
 13732	044275	200777	777777
 13733	044276	777777	777757
 13734	044277	200777	777777
 13735	044300	777777	777737
 13736	044301	200777	777777
 13737	044302	777777	777677
 13738	044303	200777	777777
 13739	044304	777777	777577
 13740	044305	200777	777777
 13741	044306	777777	777377
 13742	044307	200777	777777
 13743	044310	777777	776777
 13744	044311	200777	777777
 13745	044312	777777	775777
 13746	044313	200777	777777
 13747	044314	777777	773777
 13748	044315	200777	777777
 13749	044316	777777	767777
 13750	044317	200777	777777
 13751	044320	777777	757777
 13752	044321	200777	777777DBKCD 	PDP-10 KI10 ADVANCED INSTRUCTION DIAGNOSTIC #4, VERSION 0,3 	MACRO %52(462) 12:35  9-AUG-76 PAGE 1-9
STOR	KLM	 5-JAN-76		*STOR* RESERVED STORAGE, JAN 5,1976                                                SEQ 0273

 13753	044322	777777	737777
 13754	044323	200777	777777
 13755	044324	777777	677777
 13756	044325	200777	777777
 13757	044326	777777	577777
 13758	044327	200777	777777
 13759	044330	777777	377777
 13760	044331	200777	777777
 13761	044332	777776	777777
 13762	044333	200777	777777
 13763	044334	777775	777777
 13764	044335	200777	777777
 13765	044336	777773	777777
 13766	044337	200777	777777
 13767	044340	777767	777777
 13768	044341	200777	777777
 13769	044342	777757	777777
 13770	044343	200777	777777
 13771	044344	777737	777777
 13772	044345	200777	777777
 13773	044346	777677	777777
 13774	044347	200777	777777
 13775	044350	777577	777777
 13776	044351	200777	777777
 13777	044352	777377	777777
 13778	044353	200777	777777
 13779	044354	776777	777777
 13780	044355	200777	777777
 13781	044356	775777	777777
 13782	044357	200777	777777
 13783	044360	773777	777777
 13784	044361	200777	777777
 13785	044362	767777	777777
 13786	044363	200777	777777
 13787	044364	757777	777777
 13788	044365	200777	777777
 13789	044366	737777	777777
 13790	044367	200777	777777
 13791	044370	677777	777777
 13792	044371	200777	777777
 13793	044372	577777	777777
 13794	044373	200777	777777
 13795	044374	377777	777777
 13796	044375	200777	777776
 13797	044376	777777	777777
 13798	044377	200777	777775
 13799	044400	777777	777777
 13800	044401	201777	777776
 13801	044402	200777	777773
 13802	044403	777777	777777
 13803	044404	201777	777775
 13804	044405	200777	777767
 13805	044406	777777	777777
 13806	044407	201777	777773
 13807	044410	200777	777757DBKCD 	PDP-10 KI10 ADVANCED INSTRUCTION DIAGNOSTIC #4, VERSION 0,3 	MACRO %52(462) 12:35  9-AUG-76 PAGE 1-10
STOR	KLM	 5-JAN-76		*STOR* RESERVED STORAGE, JAN 5,1976                                                SEQ 0274

 13808	044411	777777	777777
 13809	044412	201777	777767
 13810	044413	200777	777737
 13811	044414	777777	777777
 13812	044415	201777	777757
 13813	044416	200777	777677
 13814	044417	777777	777777
 13815	044420	201777	777737
 13816	044421	200777	777577
 13817	044422	777777	777777
 13818	044423	201777	777677
 13819	044424	200777	777377
 13820	044425	777777	777777
 13821	044426	201777	777577
 13822	044427	200777	776777
 13823	044430	777777	777777
 13824	044431	201777	777377
 13825	044432	200777	775777
 13826	044433	777777	777777
 13827	044434	201777	776777
 13828	044435	200777	773777
 13829	044436	777777	777777
 13830	044437	201777	775777
 13831	044440	200777	767777
 13832	044441	777777	777777
 13833	044442	201777	773777
 13834	044443	200777	757777
 13835	044444	777777	777777
 13836	044445	201777	767777
 13837	044446	200777	737777
 13838	044447	777777	777777
 13839	044450	201777	757777
 13840	044451	200777	677777
 13841	044452	777777	777777
 13842	044453	201777	737777
 13843	044454	200777	577777
 13844	044455	777777	777777
 13845	044456	201777	677777
 13846	044457	200777	377777
 13847	044460	777777	777777
 13848	044461	201777	577777
 13849	044462	200776	777777
 13850	044463	777777	777777
 13851	044464	201777	377777
 13852	044465	200775	777777
 13853	044466	777777	777777
 13854	044467	201776	777777
 13855	044470	200773	777777
 13856	044471	777777	777777
 13857	044472	201775	777777
 13858	044473	200767	777777
 13859	044474	777777	777777
 13860	044475	201773	777777
 13861	044476	200757	777777
 13862	044477	777777	777777DBKCD 	PDP-10 KI10 ADVANCED INSTRUCTION DIAGNOSTIC #4, VERSION 0,3 	MACRO %52(462) 12:35  9-AUG-76 PAGE 1-11
STOR	KLM	 5-JAN-76		*STOR* RESERVED STORAGE, JAN 5,1976                                                SEQ 0275

 13863	044500	201767	777777
 13864	044501	200737	777777
 13865	044502	777777	777777
 13866	044503	201757	777777
 13867	044504	200677	777777
 13868	044505	777777	777777
 13869	044506	201737	777777
 13870	044507	200577	777777
 13871	044510	777777	777777
 13872	044511	201677	777777
 13873	044512	200377	777777
 13874	044513	777777	777777
 13875	044514	201577	777777
 13876	044515	001777	777777
 13877	044516	001777	777776
 13878	044517	001777	777775
 13879	044520	001777	777773
 13880	044521	001777	777767
 13881	044522	001777	777757
 13882	044523	001777	777737
 13883	044524	001777	777677
 13884	044525	001777	777577
 13885	044526	001777	777377
 13886	044527	001777	776777
 13887	044530	001777	775777
 13888	044531	001777	773777
 13889	044532	001777	767777
 13890	044533	001777	757777
 13891	044534	001777	737777
 13892	044535	001777	677777
 13893	044536	001777	577777
 13894	044537	001777	377777
 13895	044540	002000	010000
 13896	044541	76 64 45 63 64 00
 13897	044542	60 41 63 63 00 43
 13898	044543	57 65 56 64 00 35
 13899	044544	00 77 00 00 00 00
 13900	044545	76 60 43 00 35 00
 13901	044546	00 00 77 00 00 00
 13902	044547	76 62 45 63 65 54
 13903	044550	64 00 00 35 00 77
 13904	044551	76 46 41 65 54 64
 13905	044552	00 56 65 55 42 45
 13906	044553	62 00 35 00 77 00
 13907	044554	103 050 101 103 051
 13908	044555	040 106 101 111 114
 13909	044556	105 104 000 000 000
 13910	044557	103 050 101 103 053
 13911	044560	061 051 040 106 101
 13912	044561	111 114 105 104 000
 13913	044562	103 050 105 051 040
 13914	044563	106 101 111 114 105
 13915	044564	104 000 000 000 000
 13916	044565	103 050 105 053 061
 13917	044566	051 040 106 101 111 DBKCD 	PDP-10 KI10 ADVANCED INSTRUCTION DIAGNOSTIC #4, VERSION 0,3 	MACRO %52(462) 12:35  9-AUG-76 PAGE 1-12
STOR	KLM	 5-JAN-76		*STOR* RESERVED STORAGE, JAN 5,1976                                                SEQ 0276

 13918	044567	114 105 104 000 000
 13919	044570	103 050 103 050 101
 13920	044571	103 122 051 051 040
 13921	044572	106 101 111 114 105
 13922	044573	104 000 000 000 000
 13923	044574	103 050 103 050 101
 13924	044575	103 122 053 061 051
 13925	044576	051 040 106 101 111
 13926	044577	114 105 104 000 000
 13927	044600	103 050 103 050 101
 13928	044601	103 114 051 051 040
 13929	044602	106 101 111 114 105
 13930	044603	104 000 000 000 000
 13931	044604	103 050 103 050 105
 13932	044605	051 051 040 106 101
 13933	044606	111 114 105 104 000
 13934	044607	106 114 101 107 040
 13935	044610	106 101 111 114 105
 13936	044611	104 000 000 000 000
 13937						LIST
 13938	044612	000000	000000		ENDSLD:	0
 13939
 13940					IFDEF	DEBUG,<
 13941	044613				PATCH:	BLOCK DEBUG		;PATCHING AREA
 13942					>
 13943
 13944					;PROGRAM VARIABLES
 13945	044713					VAR
 13946
 13947					IFDEF	PGMEND,<
 13948	044723	000000	000000		END:	0
 13949			030000			END	BEGIN	>

NO ERRORS DETECTED

PROGRAM BREAK IS 000000
ABSLUTE BREAK IS 044724
CPU TIME USED 00:40.514

10K CORE USED
ABORT	   166#
AC	   751#	   753	   754	   755	   756	   760	   762	   764	   765	   766	   767	   768	   787	   789     SEQ 0277
	   791	   792	   793	   794	   795	   802	   804	   806	   807	   808	   809	   810	   817	   819
	   821	   822	   823	   824	   825	   832	   834	   836	   837	   838	   839	   840	   847	   849
	   851	   852	   853	   854	   855	   862	   864	   866	   867	   868	   869	   870	   877	   879
	   881	   882	   883	   884	   885	   892	   894	   896	   897	   898	   899	   900	   907	   909
	   911	   912	   913	   914	   915	   932	   934	   936	   937	   938	   939	   940	   947	   949
	   951	   952	   953	   954	   955	   962	   964	   966	   967	   968	   969	   970	   977	   979
	   981	   982	   983	   984	   985	   992	   994	   996	   997	   998	   999	  1000	  1007	  1009
	  1011	  1012	  1013	  1014	  1015	  1022	  1024	  1026	  1027	  1028	  1029	  1030	  1037	  1039
	  1041	  1042	  1043	  1044	  1045	  1052	  1054	  1056	  1057	  1058	  1059	  1060	  1067	  1069
	  1071	  1072	  1073	  1074	  1075	  1082	  1084	  1086	  1087	  1088	  1089	  1090	  1097	  1099
	  1101	  1102	  1103	  1104	  1105	  1112	  1114	  1116	  1117	  1118	  1119	  1120	  1127	  1129
	  1131	  1132	  1133	  1134	  1135	  1142	  1144	  1146	  1147	  1148	  1149	  1150	  1157	  1159
	  1161	  1162	  1163	  1164	  1165	  1172	  1174	  1176	  1177	  1178	  1179	  1180	  1187	  1189
	  1191	  1192	  1193	  1194	  1195	  1202	  1204	  1206	  1207	  1208	  1209	  1210	  1224	  1226
	  1228	  1229	  1230	  1231	  1232	  1239	  1241	  1243	  1244	  1245	  1246	  1247	  1254	  1256
	  1258	  1259	  1260	  1261	  1262	  1269	  1271	  1273	  1274	  1275	  1276	  1277	  1284	  1286
	  1288	  1289	  1290	  1291	  1292	  1299	  1301	  1303	  1304	  1305	  1306	  1307	  1314	  1316
	  1318	  1319	  1320	  1321	  1322	  1329	  1331	  1333	  1334	  1335	  1336	  1337	  1344	  1346
	  1348	  1349	  1350	  1351	  1352	  1359	  1361	  1363	  1364	  1365	  1366	  1367	  1374	  1376
	  1378	  1379	  1380	  1381	  1382	  1389	  1391	  1393	  1394	  1395	  1396	  1397	  1404	  1406
	  1408	  1409	  1410	  1411	  1412	  1419	  1421	  1423	  1424	  1425	  1426	  1427	  1434	  1436
	  1438	  1439	  1440	  1441	  1442	  1449	  1451	  1453	  1454	  1455	  1456	  1457	  1464	  1466
	  1468	  1469	  1470	  1471	  1472	  1489	  1491	  1493	  1494	  1495	  1496	  1497	  1504	  1506
	  1508	  1509	  1510	  1511	  1512	  1519	  1521	  1523	  1524	  1525	  1526	  1527	  1534	  1536
	  1538	  1539	  1540	  1541	  1542	  1549	  1551	  1553	  1554	  1555	  1556	  1557	  1564	  1566
	  1568	  1569	  1570	  1571	  1572	  1579	  1581	  1583	  1584	  1585	  1586	  1587	  1594	  1596
	  1598	  1599	  1600	  1601	  1602	  1609	  1611	  1613	  1614	  1615	  1616	  1617	  1624	  1626
	  1628	  1629	  1630	  1631	  1632	  1639	  1641	  1643	  1644	  1645	  1646	  1647	  1654	  1656
	  1658	  1659	  1660	  1661	  1662	  1669	  1671	  1673	  1674	  1675	  1676	  1677	  1684	  1686
	  1688	  1689	  1690	  1691	  1692	  1699	  1701	  1703	  1704	  1705	  1706	  1707	  1714	  1716
	  1718	  1719	  1720	  1721	  1722	  1729	  1731	  1733	  1734	  1735	  1736	  1737	  1744	  1746
	  1748	  1749	  1750	  1751	  1752	  1771	  1773	  1775	  1776	  1777	  1778	  1779	  1786	  1788
	  1790	  1791	  1792	  1793	  1794	  1801	  1803	  1805	  1806	  1807	  1808	  1809	  1816	  1818
	  1820	  1821	  1822	  1823	  1824	  1831	  1833	  1835	  1836	  1837	  1838	  1839	  1846	  1848
	  1850	  1851	  1852	  1853	  1854	  1861	  1863	  1865	  1866	  1867	  1868	  1869	  1876	  1878
	  1880	  1881	  1882	  1883	  1884	  1891	  1893	  1895	  1896	  1897	  1898	  1899	  1916	  1918
	  1920	  1921	  1922	  1923	  1924	  1931	  1933	  1935	  1936	  1937	  1938	  1939	  1946	  1948
	  1950	  1951	  1952	  1953	  1954	  1961	  1963	  1965	  1966	  1967	  1968	  1969	  1976	  1978
	  1980	  1981	  1982	  1983	  1984	  1991	  1993	  1995	  1996	  1997	  1998	  1999	  2006	  2008
	  2010	  2011	  2012	  2013	  2014	  2021	  2023	  2025	  2026	  2027	  2028	  2029	  2036	  2038
	  2040	  2041	  2042	  2043	  2044	  2051	  2053	  2055	  2056	  2057	  2058	  2059	  2066	  2068
	  2070	  2071	  2072	  2073	  2074	  2081	  2083	  2085	  2086	  2087	  2088	  2089	  2096	  2098
	  2100	  2101	  2102	  2103	  2104	  2111	  2113	  2115	  2116	  2117	  2118	  2119	  2126	  2128
	  2130	  2131	  2132	  2133	  2134	  2141	  2143	  2145	  2146	  2147	  2148	  2149	  2156	  2158
	  2160	  2161	  2162	  2163	  2164	  2171	  2173	  2175	  2176	  2177	  2178	  2179	  2186	  2188
	  2190	  2191	  2192	  2193	  2194	  2209	  2211	  2213	  2214	  2215	  2216	  2217	  2225	  2227
	  2229	  2230	  2231	  2232	  2233	  2241	  2243	  2245	  2246	  2247	  2248	  2249	  2257	  2259
	  2261	  2262	  2263	  2264	  2265	  2273	  2275	  2277	  2278	  2279	  2280	  2281	  2289	  2291
	  2293	  2294	  2295	  2296	  2297	  2305	  2307	  2309	  2310	  2311	  2312	  2313	  2321	  2323
	  2325	  2326	  2327	  2328	  2329	  2337	  2339	  2341	  2342	  2343	  2344	  2345	  2353	  2355
	  2357	  2358	  2359	  2360	  2361	  2369	  2371	  2373	  2374	  2375	  2376	  2377	  2385	  2387	  2389	  2390	  2391	  2392	  2393	  2401	  2403	  2405	  2406	  2407	  2408	  2409	  2417	  2419
	  2421	  2422	  2423	  2424	  2425	  2433	  2435	  2437	  2438	  2439	  2440	  2441	  2449	  2451     SEQ 0278
	  2453	  2454	  2455	  2456	  2457	  2465	  2467	  2469	  2470	  2471	  2472	  2473	  2491	  2493
	  2495	  2496	  2497	  2498	  2499	  2506	  2508	  2510	  2511	  2512	  2513	  2514	  2521	  2523
	  2525	  2526	  2527	  2528	  2529	  2536	  2538	  2540	  2541	  2542	  2543	  2544	  2551	  2553
	  2555	  2556	  2557	  2558	  2559	  2566	  2568	  2570	  2571	  2572	  2573	  2574	  2581	  2583
	  2585	  2586	  2587	  2588	  2589	  2596	  2598	  2600	  2601	  2602	  2603	  2604	  2611	  2613
	  2615	  2616	  2617	  2618	  2619	  2626	  2628	  2630	  2631	  2632	  2633	  2634	  2641	  2643
	  2645	  2646	  2647	  2648	  2649	  2656	  2658	  2660	  2661	  2662	  2663	  2664	  2671	  2673
	  2675	  2676	  2677	  2678	  2679	  2686	  2688	  2690	  2691	  2692	  2693	  2694	  2701	  2703
	  2705	  2706	  2707	  2708	  2709	  2716	  2718	  2720	  2721	  2722	  2723	  2724	  2731	  2733
	  2735	  2736	  2737	  2738	  2739	  2746	  2748	  2750	  2751	  2752	  2753	  2754	  2760	  2762
	  2764	  2765	  2766	  2767	  2768	  2773	  2775	  2777	  2778	  2779	  2780	  2781	  2800	  2802
	  2804	  2805	  2806	  2807	  2808	  2815	  2817	  2819	  2820	  2821	  2822	  2823	  2830	  2832
	  2834	  2835	  2836	  2837	  2838	  2845	  2847	  2849	  2850	  2851	  2852	  2853	  2860	  2862
	  2864	  2865	  2866	  2867	  2868	  2875	  2877	  2879	  2880	  2881	  2882	  2883	  2890	  2892
	  2894	  2895	  2896	  2897	  2898	  2905	  2907	  2909	  2910	  2911	  2912	  2913	  2920	  2922
	  2924	  2925	  2926	  2927	  2928	  2935	  2937	  2939	  2940	  2941	  2942	  2943	  2950	  2952
	  2954	  2955	  2956	  2957	  2958	  2965	  2967	  2969	  2970	  2971	  2972	  2973	  2980	  2982
	  2984	  2985	  2986	  2987	  2988	  2995	  2997	  2999	  3000	  3001	  3002	  3003	  3010	  3012
	  3014	  3015	  3016	  3017	  3018	  3025	  3027	  3029	  3030	  3031	  3032	  3033	  3040	  3042
	  3044	  3045	  3046	  3047	  3048	  3055	  3057	  3059	  3060	  3061	  3062	  3063	  3080	  3082
	  3084	  3085	  3086	  3087	  3088	  3095	  3097	  3099	  3100	  3101	  3102	  3103	  3110	  3112
	  3114	  3115	  3116	  3117	  3118	  3125	  3127	  3129	  3130	  3131	  3132	  3133	  3140	  3142
	  3144	  3145	  3146	  3147	  3148	  3155	  3157	  3159	  3160	  3161	  3162	  3163	  3170	  3172
	  3174	  3175	  3176	  3177	  3178	  3185	  3187	  3189	  3190	  3191	  3192	  3193	  3200	  3202
	  3204	  3205	  3206	  3207	  3208	  3215	  3217	  3219	  3220	  3221	  3222	  3223	  3230	  3232
	  3234	  3235	  3236	  3237	  3238	  3245	  3247	  3249	  3250	  3251	  3252	  3253	  3260	  3262
	  3264	  3265	  3266	  3267	  3268	  3275	  3277	  3279	  3280	  3281	  3282	  3283	  3290	  3292
	  3294	  3295	  3296	  3297	  3298	  3305	  3307	  3309	  3310	  3311	  3312	  3313	  3320	  3322
	  3324	  3325	  3326	  3327	  3328	  3335	  3337	  3339	  3340	  3341	  3342	  3343	  3360	  3362
	  3364	  3365	  3366	  3367	  3368	  3375	  3377	  3379	  3380	  3381	  3382	  3383	  3390	  3392
	  3394	  3395	  3396	  3397	  3398	  3405	  3407	  3409	  3410	  3411	  3412	  3413	  3420	  3422
	  3424	  3425	  3426	  3427	  3428	  3435	  3437	  3439	  3440	  3441	  3442	  3443	  3450	  3452
	  3454	  3455	  3456	  3457	  3458	  3465	  3467	  3469	  3470	  3471	  3472	  3473	  3480	  3482
	  3484	  3485	  3486	  3487	  3488	  3495	  3497	  3499	  3500	  3501	  3502	  3503	  3510	  3512
	  3514	  3515	  3516	  3517	  3518	  3525	  3527	  3529	  3530	  3531	  3532	  3533	  3540	  3542
	  3544	  3545	  3546	  3547	  3548	  3555	  3557	  3559	  3560	  3561	  3562	  3563	  3570	  3572
	  3574	  3575	  3576	  3577	  3578	  3585	  3587	  3589	  3590	  3591	  3592	  3593	  3600	  3602
	  3604	  3605	  3606	  3607	  3608	  3615	  3617	  3619	  3620	  3621	  3622	  3623	  3641	  3643
	  3645	  3646	  3647	  3648	  3649	  3656	  3658	  3660	  3661	  3662	  3663	  3664	  3671	  3673
	  3675	  3676	  3677	  3678	  3679	  3686	  3688	  3690	  3691	  3692	  3693	  3694	  3701	  3703
	  3705	  3706	  3707	  3708	  3709	  3716	  3718	  3720	  3721	  3722	  3723	  3724	  3731	  3733
	  3735	  3736	  3737	  3738	  3739	  3746	  3748	  3750	  3751	  3752	  3753	  3754	  3759	  3761
	  3763	  3764	  3765	  3766	  3767	  3785	  3787	  3789	  3790	  3791	  3792	  3793	  3800	  3802
	  3804	  3805	  3806	  3807	  3808	  3815	  3817	  3819	  3820	  3821	  3822	  3823	  3830	  3832
	  3834	  3835	  3836	  3837	  3838	  3845	  3847	  3849	  3850	  3851	  3852	  3853	  3860	  3862
	  3864	  3865	  3866	  3867	  3868	  3875	  3877	  3879	  3880	  3881	  3882	  3883	  3890	  3892
	  3894	  3895	  3896	  3897	  3898	  3905	  3907	  3909	  3910	  3911	  3912	  3913	  3920	  3922
	  3924	  3925	  3926	  3927	  3928	  3935	  3937	  3939	  3940	  3941	  3942	  3943	  3950	  3952
	  3954	  3955	  3956	  3957	  3958	  3965	  3967	  3969	  3970	  3971	  3972	  3973	  3980	  3982
	  3984	  3985	  3986	  3987	  3988	  3995	  3997	  3999	  4000	  4001	  4002	  4003	  4010	  4012
	  4014	  4015	  4016	  4017	  4018	  4025	  4027	  4029	  4030	  4031	  4032	  4033	  4040	  4042	  4044	  4045	  4046	  4047	  4048	  4065	  4067	  4069	  4070	  4071	  4072	  4073	  4080	  4082
	  4084	  4085	  4086	  4087	  4088	  4095	  4097	  4099	  4100	  4101	  4102	  4103	  4110	  4112     SEQ 0279
	  4114	  4115	  4116	  4117	  4118	  4125	  4127	  4129	  4130	  4131	  4132	  4133	  4140	  4142
	  4144	  4145	  4146	  4147	  4148	  4155	  4157	  4159	  4160	  4161	  4162	  4163	  4170	  4172
	  4174	  4175	  4176	  4177	  4178	  4185	  4187	  4189	  4190	  4191	  4192	  4193	  4200	  4202
	  4204	  4205	  4206	  4207	  4208	  4215	  4217	  4219	  4220	  4221	  4222	  4223	  4230	  4232
	  4234	  4235	  4236	  4237	  4238	  4245	  4247	  4249	  4250	  4251	  4252	  4253	  4260	  4262
	  4264	  4265	  4266	  4267	  4268	  4275	  4277	  4279	  4280	  4281	  4282	  4283	  4290	  4292
	  4294	  4295	  4296	  4297	  4298	  4305	  4307	  4309	  4310	  4311	  4312	  4313	  4320	  4322
	  4324	  4325	  4326	  4327	  4328	  4345	  4347	  4349	  4350	  4351	  4352	  4353	  4360	  4362
	  4364	  4365	  4366	  4367	  4368	  4375	  4377	  4379	  4380	  4381	  4382	  4383	  4390	  4392
	  4394	  4395	  4396	  4397	  4398	  4405	  4407	  4409	  4410	  4411	  4412	  4413	  4420	  4422
	  4424	  4425	  4426	  4427	  4428	  4435	  4437	  4439	  4440	  4441	  4442	  4443	  4450	  4452
	  4454	  4455	  4456	  4457	  4458	  4465	  4467	  4469	  4470	  4471	  4472	  4473	  4480	  4482
	  4484	  4485	  4486	  4487	  4488	  4495	  4497	  4499	  4500	  4501	  4502	  4503	  4510	  4512
	  4514	  4515	  4516	  4517	  4518	  4525	  4527	  4529	  4530	  4531	  4532	  4533	  4540	  4542
	  4544	  4545	  4546	  4547	  4548	  4555	  4557	  4559	  4560	  4561	  4562	  4563	  4570	  4572
	  4574	  4575	  4576	  4577	  4578	  4585	  4587	  4589	  4590	  4591	  4592	  4593	  4600	  4602
	  4604	  4605	  4606	  4607	  4608	  4625	  4627	  4629	  4630	  4631	  4632	  4633	  4640	  4642
	  4644	  4645	  4646	  4647	  4648	  4655	  4657	  4659	  4660	  4661	  4662	  4663	  4670	  4672
	  4674	  4675	  4676	  4677	  4678	  4685	  4687	  4689	  4690	  4691	  4692	  4693	  4700	  4702
	  4704	  4705	  4706	  4707	  4708	  4715	  4717	  4719	  4720	  4721	  4722	  4723	  4730	  4732
	  4734	  4735	  4736	  4737	  4738	  4743	  4745	  4747	  4748	  4749	  4750	  4751	  4774	  4776
	  4778	  4779	  4780	  4781	  4782	  4791	  4793	  4795	  4796	  4797	  4798	  4799	  4808	  4810
	  4812	  4813	  4814	  4815	  4816	  4825	  4827	  4829	  4830	  4831	  4832	  4833	  4842	  4844
	  4846	  4847	  4848	  4849	  4850	  4859	  4861	  4863	  4864	  4865	  4866	  4867	  4876	  4878
	  4880	  4881	  4882	  4883	  4884	  4893	  4895	  4897	  4898	  4899	  4900	  4901	  4910	  4912
	  4914	  4915	  4916	  4917	  4918	  4927	  4929	  4931	  4932	  4933	  4934	  4935	  4944	  4946
	  4948	  4949	  4950	  4951	  4952	  4961	  4963	  4965	  4966	  4967	  4968	  4969	  4978	  4980
	  4982	  4983	  4984	  4985	  4986	  4995	  4997	  4999	  5000	  5001	  5002	  5003	  5012	  5014
	  5016	  5017	  5018	  5019	  5020	  5029	  5031	  5033	  5034	  5035	  5036	  5037	  5046	  5048
	  5050	  5051	  5052	  5053	  5054	  5063	  5065	  5067	  5068	  5069	  5070	  5071	  5093	  5095
	  5097	  5098	  5099	  5100	  5101	  5110	  5112	  5114	  5115	  5116	  5117	  5118	  5127	  5129
	  5131	  5132	  5133	  5134	  5135	  5144	  5146	  5148	  5149	  5150	  5151	  5152	  5161	  5163
	  5165	  5166	  5167	  5168	  5169	  5178	  5180	  5182	  5183	  5184	  5185	  5186	  5195	  5197
	  5199	  5200	  5201	  5202	  5203	  5212	  5214	  5216	  5217	  5218	  5219	  5220	  5229	  5231
	  5233	  5234	  5235	  5236	  5237	  5246	  5248	  5250	  5251	  5252	  5253	  5254	  5263	  5265
	  5267	  5268	  5269	  5270	  5271	  5280	  5282	  5284	  5285	  5286	  5287	  5288	  5297	  5299
	  5301	  5302	  5303	  5304	  5305	  5314	  5316	  5318	  5319	  5320	  5321	  5322	  5331	  5333
	  5335	  5336	  5337	  5338	  5339	  5348	  5350	  5352	  5353	  5354	  5355	  5356	  5365	  5367
	  5369	  5370	  5371	  5372	  5373	  5382	  5384	  5386	  5387	  5388	  5389	  5390	  5412	  5414
	  5416	  5417	  5418	  5419	  5420	  5429	  5431	  5433	  5434	  5435	  5436	  5437	  5446	  5448
	  5450	  5451	  5452	  5453	  5454	  5463	  5465	  5467	  5468	  5469	  5470	  5471	  5480	  5482
	  5484	  5485	  5486	  5487	  5488	  5497	  5499	  5501	  5502	  5503	  5504	  5505	  5514	  5516
	  5518	  5519	  5520	  5521	  5522	  5531	  5533	  5535	  5536	  5537	  5538	  5539	  5548	  5550
	  5552	  5553	  5554	  5555	  5556	  5565	  5567	  5569	  5570	  5571	  5572	  5573	  5582	  5584
	  5586	  5587	  5588	  5589	  5590	  5599	  5601	  5603	  5604	  5605	  5606	  5607	  5616	  5618
	  5620	  5621	  5622	  5623	  5624	  5633	  5635	  5637	  5638	  5639	  5640	  5641	  5650	  5652
	  5654	  5655	  5656	  5657	  5658	  5667	  5669	  5671	  5672	  5673	  5674	  5675	  5684	  5686
	  5688	  5689	  5690	  5691	  5692	  5701	  5703	  5705	  5706	  5707	  5708	  5709	  5731	  5733
	  5735	  5736	  5737	  5738	  5739	  5748	  5750	  5752	  5753	  5754	  5755	  5756	  5765	  5767
	  5769	  5770	  5771	  5772	  5773	  5782	  5784	  5786	  5787	  5788	  5789	  5790	  5799	  5801
	  5803	  5804	  5805	  5806	  5807	  5816	  5818	  5820	  5821	  5822	  5823	  5824	  5833	  5835	  5837	  5838	  5839	  5840	  5841	  5850	  5852	  5854	  5855	  5856	  5857	  5858	  5867	  5869
	  5871	  5872	  5873	  5874	  5875	  5899	  5901	  5903	  5904	  5905	  5906	  5907	  5916	  5918     SEQ 0280
	  5920	  5921	  5922	  5923	  5924	  5933	  5935	  5937	  5938	  5939	  5940	  5941	  5950	  5952
	  5954	  5955	  5956	  5957	  5958	  5967	  5969	  5971	  5972	  5973	  5974	  5975	  5984	  5986
	  5988	  5989	  5990	  5991	  5992	  6001	  6003	  6005	  6006	  6007	  6008	  6009	  6018	  6020
	  6022	  6023	  6024	  6025	  6026	  6035	  6037	  6039	  6040	  6041	  6042	  6043	  6052	  6054
	  6056	  6057	  6058	  6059	  6060	  6069	  6071	  6073	  6074	  6075	  6076	  6077	  6086	  6088
	  6090	  6091	  6092	  6093	  6094	  6103	  6105	  6107	  6108	  6109	  6110	  6111	  6120	  6122
	  6124	  6125	  6126	  6127	  6128	  6137	  6139	  6141	  6142	  6143	  6144	  6145	  6154	  6156
	  6158	  6159	  6160	  6161	  6162	  6171	  6173	  6175	  6176	  6177	  6178	  6179	  6188	  6190
	  6192	  6193	  6194	  6195	  6196	  6218	  6220	  6222	  6223	  6224	  6225	  6226	  6235	  6237
	  6239	  6240	  6241	  6242	  6243	  6252	  6254	  6256	  6257	  6258	  6259	  6260	  6269	  6271
	  6273	  6274	  6275	  6276	  6277	  6286	  6288	  6290	  6291	  6292	  6293	  6294	  6303	  6305
	  6307	  6308	  6309	  6310	  6311	  6320	  6322	  6324	  6325	  6326	  6327	  6328	  6337	  6339
	  6341	  6342	  6343	  6344	  6345	  6354	  6356	  6358	  6359	  6360	  6361	  6362	  6371	  6373
	  6375	  6376	  6377	  6378	  6379	  6388	  6390	  6392	  6393	  6394	  6395	  6396	  6405	  6407
	  6409	  6410	  6411	  6412	  6413	  6422	  6424	  6426	  6427	  6428	  6429	  6430	  6439	  6441
	  6443	  6444	  6445	  6446	  6447	  6456	  6458	  6460	  6461	  6462	  6463	  6464	  6473	  6475
	  6477	  6478	  6479	  6480	  6481	  6490	  6492	  6494	  6495	  6496	  6497	  6498	  6507	  6509
	  6511	  6512	  6513	  6514	  6515	  6537	  6539	  6541	  6542	  6543	  6544	  6545	  6554	  6556
	  6558	  6559	  6560	  6561	  6562	  6571	  6573	  6575	  6576	  6577	  6578	  6579	  6588	  6590
	  6592	  6593	  6594	  6595	  6596	  6605	  6607	  6609	  6610	  6611	  6612	  6613	  6622	  6624
	  6626	  6627	  6628	  6629	  6630	  6639	  6641	  6643	  6644	  6645	  6646	  6647	  6656	  6658
	  6660	  6661	  6662	  6663	  6664	  6673	  6675	  6677	  6678	  6679	  6680	  6681	  6690	  6692
	  6694	  6695	  6696	  6697	  6698	  6707	  6709	  6711	  6712	  6713	  6714	  6715	  6724	  6726
	  6728	  6729	  6730	  6731	  6732	  6741	  6743	  6745	  6746	  6747	  6748	  6749	  6758	  6760
	  6762	  6763	  6764	  6765	  6766	  6775	  6777	  6779	  6780	  6781	  6782	  6783	  6792	  6794
	  6796	  6797	  6798	  6799	  6800	  6809	  6811	  6813	  6814	  6815	  6816	  6817	  6826	  6828
	  6830	  6831	  6832	  6833	  6834	  6856	  6858	  6860	  6861	  6862	  6863	  6864	  6873	  6875
	  6877	  6878	  6879	  6880	  6881	  6890	  6892	  6894	  6895	  6896	  6897	  6898	  6907	  6909
	  6911	  6912	  6913	  6914	  6915	  6924	  6926	  6928	  6929	  6930	  6931	  6932	  6941	  6943
	  6945	  6946	  6947	  6948	  6949	  6958	  6960	  6962	  6963	  6964	  6965	  6966	  6975	  6977
	  6979	  6980	  6981	  6982	  6983	  6992	  6994	  6996	  6997	  6998	  6999	  7000	  7022	  7024
	  7026	  7027	  7028	  7029	  7030	  7038	  7040	  7042	  7043	  7044	  7045	  7046	  7054	  7056
	  7058	  7059	  7060	  7061	  7062	  7070	  7072	  7074	  7075	  7076	  7077	  7078	  7086	  7088
	  7090	  7091	  7092	  7093	  7094	  7102	  7104	  7106	  7107	  7108	  7109	  7110	  7118	  7120
	  7122	  7123	  7124	  7125	  7126	  7134	  7136	  7138	  7139	  7140	  7141	  7142	  7150	  7152
	  7154	  7155	  7156	  7157	  7158	  7166	  7168	  7170	  7171	  7172	  7173	  7174	  7182	  7184
	  7186	  7187	  7188	  7189	  7190	  7198	  7200	  7202	  7203	  7204	  7205	  7206	  7214	  7216
	  7218	  7219	  7220	  7221	  7222	  7230	  7232	  7234	  7235	  7236	  7237	  7238	  7246	  7248
	  7250	  7251	  7252	  7253	  7254	  7262	  7264	  7266	  7267	  7268	  7269	  7270	  7278	  7280
	  7282	  7283	  7284	  7285	  7286	  7294	  7296	  7298	  7299	  7300	  7301	  7302	  7310	  7312
	  7314	  7315	  7316	  7317	  7318	  7333	  7335	  7337	  7338	  7339	  7340	  7341	  7348	  7350
	  7352	  7353	  7354	  7355	  7356	  7363	  7365	  7367	  7368	  7369	  7370	  7371	  7378	  7380
	  7382	  7383	  7384	  7385	  7386	  7393	  7395	  7397	  7398	  7399	  7400	  7401	  7408	  7410
	  7412	  7413	  7414	  7415	  7416	  7423	  7425	  7427	  7428	  7429	  7430	  7431	  7438	  7440
	  7442	  7443	  7444	  7445	  7446	  7453	  7455	  7457	  7458	  7459	  7460	  7461	  7468	  7470
	  7472	  7473	  7474	  7475	  7476	  7483	  7485	  7487	  7488	  7489	  7490	  7491	  7498	  7500
	  7502	  7503	  7504	  7505	  7506	  7513	  7515	  7517	  7518	  7519	  7520	  7521	  7528	  7530
	  7532	  7533	  7534	  7535	  7536	  7543	  7545	  7547	  7548	  7549	  7550	  7551	  7558	  7560
	  7562	  7563	  7564	  7565	  7566	  7574	  7576	  7578	  7579	  7580	  7581	  7582	  7587	  7589
	  7591	  7592	  7593	  7594	  7595	  7610	  7612	  7614	  7615	  7616	  7617	  7618	  7625	  7627
	  7629	  7630	  7631	  7632	  7633	  7640	  7642	  7644	  7645	  7646	  7647	  7648	  7655	  7657	  7659	  7660	  7661	  7662	  7663	  7670	  7672	  7674	  7675	  7676	  7677	  7678	  7685	  7687
	  7689	  7690	  7691	  7692	  7693	  7700	  7702	  7704	  7705	  7706	  7707	  7708	  7715	  7717     SEQ 0281
	  7719	  7720	  7721	  7722	  7723	  7730	  7732	  7734	  7735	  7736	  7737	  7738	  7745	  7747
	  7749	  7750	  7751	  7752	  7753	  7760	  7762	  7764	  7765	  7766	  7767	  7768	  7775	  7777
	  7779	  7780	  7781	  7782	  7783	  7790	  7792	  7794	  7795	  7796	  7797	  7798	  7805	  7807
	  7809	  7810	  7811	  7812	  7813	  7820	  7822	  7824	  7825	  7826	  7827	  7828	  7835	  7837
	  7839	  7840	  7841	  7842	  7843	  7850	  7852	  7854	  7855	  7856	  7857	  7858	  7866	  7868
	  7870	  7871	  7872	  7873	  7874	  7888	  7890	  7892	  7893	  7894	  7895	  7896	  7903	  7905
	  7907	  7908	  7909	  7910	  7911	  7918	  7920	  7922	  7923	  7924	  7925	  7926	  7933	  7935
	  7937	  7938	  7939	  7940	  7941	  7948	  7950	  7952	  7953	  7954	  7955	  7956	  7963	  7965
	  7967	  7968	  7969	  7970	  7971	  7978	  7980	  7982	  7983	  7984	  7985	  7986	  7993	  7995
	  7997	  7998	  7999	  8000	  8001	  8023	  8025	  8027	  8028	  8029	  8030	  8031	  8039	  8041
	  8043	  8044	  8045	  8046	  8047	  8055	  8057	  8059	  8060	  8061	  8062	  8063	  8071	  8073
	  8075	  8076	  8077	  8078	  8079	  8087	  8089	  8091	  8092	  8093	  8094	  8095	  8103	  8105
	  8107	  8108	  8109	  8110	  8111	  8119	  8121	  8123	  8124	  8125	  8126	  8127	  8135	  8137
	  8139	  8140	  8141	  8142	  8143	  8151	  8153	  8155	  8156	  8157	  8158	  8159	  8167	  8169
	  8171	  8172	  8173	  8174	  8175	  8183	  8185	  8187	  8188	  8189	  8190	  8191	  8199	  8201
	  8203	  8204	  8205	  8206	  8207	  8215	  8217	  8219	  8220	  8221	  8222	  8223	  8231	  8233
	  8235	  8236	  8237	  8238	  8239	  8247	  8249	  8251	  8252	  8253	  8254	  8255	  8263	  8265
	  8267	  8268	  8269	  8270	  8271	  8279	  8281	  8283	  8284	  8285	  8286	  8287	  8295	  8297
	  8299	  8300	  8301	  8302	  8303	  8311	  8313	  8315	  8316	  8317	  8318	  8319	  8334	  8336
	  8338	  8339	  8340	  8341	  8342	  8349	  8351	  8353	  8354	  8355	  8356	  8357	  8364	  8366
	  8368	  8369	  8370	  8371	  8372	  8379	  8381	  8383	  8384	  8385	  8386	  8387	  8394	  8396
	  8398	  8399	  8400	  8401	  8402	  8409	  8411	  8413	  8414	  8415	  8416	  8417	  8424	  8426
	  8428	  8429	  8430	  8431	  8432	  8439	  8441	  8443	  8444	  8445	  8446	  8447	  8454	  8456
	  8458	  8459	  8460	  8461	  8462	  8469	  8471	  8473	  8474	  8475	  8476	  8477	  8484	  8486
	  8488	  8489	  8490	  8491	  8492	  8499	  8501	  8503	  8504	  8505	  8506	  8507	  8514	  8516
	  8518	  8519	  8520	  8521	  8522	  8529	  8531	  8533	  8534	  8535	  8536	  8537	  8544	  8546
	  8548	  8549	  8550	  8551	  8552	  8559	  8561	  8563	  8564	  8565	  8566	  8567	  8575	  8577
	  8579	  8580	  8581	  8582	  8583	  8589	  8591	  8593	  8594	  8595	  8596	  8597	  8610	  8612
	  8614	  8615	  8616	  8617	  8618	  8625	  8627	  8629	  8630	  8631	  8632	  8633	  8640	  8642
	  8644	  8645	  8646	  8647	  8648	  8655	  8657	  8659	  8660	  8661	  8662	  8663	  8670	  8672
	  8674	  8675	  8676	  8677	  8678	  8685	  8687	  8689	  8690	  8691	  8692	  8693	  8700	  8702
	  8704	  8705	  8706	  8707	  8708	  8715	  8717	  8719	  8720	  8721	  8722	  8723	  8730	  8732
	  8734	  8735	  8736	  8737	  8738	  8745	  8747	  8749	  8750	  8751	  8752	  8753	  8760	  8762
	  8764	  8765	  8766	  8767	  8768	  8775	  8777	  8779	  8780	  8781	  8782	  8783	  8790	  8792
	  8794	  8795	  8796	  8797	  8798	  8805	  8807	  8809	  8810	  8811	  8812	  8813	  8820	  8822
	  8824	  8825	  8826	  8827	  8828	  8835	  8837	  8839	  8840	  8841	  8842	  8843	  8850	  8852
	  8854	  8855	  8856	  8857	  8858	  8865	  8867	  8869	  8870	  8871	  8872	  8873	  8886	  8888
	  8890	  8891	  8892	  8893	  8894	  8901	  8903	  8905	  8906	  8907	  8908	  8909	  8916	  8918
	  8920	  8921	  8922	  8923	  8924	  8931	  8933	  8935	  8936	  8937	  8938	  8939	  8946	  8948
	  8950	  8951	  8952	  8953	  8954	  8961	  8963	  8965	  8966	  8967	  8968	  8969	  8976	  8978
	  8980	  8981	  8982	  8983	  8984	  8991	  8993	  8995	  8996	  8997	  8998	  8999	  9024	  9026
	  9028	  9029	  9030	  9031	  9032	  9041	  9043	  9045	  9046	  9047	  9048	  9049	  9058	  9060
	  9062	  9063	  9064	  9065	  9066	  9075	  9077	  9079	  9080	  9081	  9082	  9083	  9092	  9094
	  9096	  9097	  9098	  9099	  9100	  9109	  9111	  9113	  9114	  9115	  9116	  9117	  9126	  9128
	  9130	  9131	  9132	  9133	  9134	  9143	  9145	  9147	  9148	  9149	  9150	  9151	  9160	  9162
	  9164	  9165	  9166	  9167	  9168	  9177	  9179	  9181	  9182	  9183	  9184	  9185	  9194	  9196
	  9198	  9199	  9200	  9201	  9202	  9211	  9213	  9215	  9216	  9217	  9218	  9219	  9228	  9230
	  9232	  9233	  9234	  9235	  9236	  9245	  9247	  9249	  9250	  9251	  9252	  9253	  9262	  9264
	  9266	  9267	  9268	  9269	  9270	  9279	  9281	  9283	  9284	  9285	  9286	  9287	  9296	  9298
	  9300	  9301	  9302	  9303	  9304	  9313	  9315	  9317	  9318	  9319	  9320	  9321	  9328	  9330
	  9332	  9333	  9334	  9335	  9336	  9350	  9352	  9354	  9355	  9356	  9357	  9358	  9365	  9367	  9369	  9370	  9371	  9372	  9373	  9380	  9382	  9384	  9385	  9386	  9387	  9388	  9395	  9397
	  9399	  9400	  9401	  9402	  9403	  9410	  9412	  9414	  9415	  9416	  9417	  9418	  9425	  9427     SEQ 0282
	  9429	  9430	  9431	  9432	  9433	  9440	  9442	  9444	  9445	  9446	  9447	  9448	  9455	  9457
	  9459	  9460	  9461	  9462	  9463	  9470	  9472	  9474	  9475	  9476	  9477	  9478	  9485	  9487
	  9489	  9490	  9491	  9492	  9493	  9500	  9502	  9504	  9505	  9506	  9507	  9508	  9515	  9517
	  9519	  9520	  9521	  9522	  9523	  9530	  9532	  9534	  9535	  9536	  9537	  9538	  9545	  9547
	  9549	  9550	  9551	  9552	  9553	  9560	  9562	  9564	  9565	  9566	  9567	  9568	  9575	  9577
	  9579	  9580	  9581	  9582	  9583	  9590	  9592	  9594	  9595	  9596	  9597	  9598	  9604	  9606
	  9608	  9609	  9610	  9611	  9612	  9626	  9628	  9630	  9631	  9632	  9633	  9634	  9641	  9643
	  9645	  9646	  9647	  9648	  9649	  9656	  9658	  9660	  9661	  9662	  9663	  9664	  9671	  9673
	  9675	  9676	  9677	  9678	  9679	  9686	  9688	  9690	  9691	  9692	  9693	  9694	  9701	  9703
	  9705	  9706	  9707	  9708	  9709	  9716	  9718	  9720	  9721	  9722	  9723	  9724	  9731	  9733
	  9735	  9736	  9737	  9738	  9739	  9746	  9748	  9750	  9751	  9752	  9753	  9754	  9761	  9763
	  9765	  9766	  9767	  9768	  9769	  9776	  9778	  9780	  9781	  9782	  9783	  9784	  9791	  9793
	  9795	  9796	  9797	  9798	  9799	  9806	  9808	  9810	  9811	  9812	  9813	  9814	  9821	  9823
	  9825	  9826	  9827	  9828	  9829	  9836	  9838	  9840	  9841	  9842	  9843	  9844	  9851	  9853
	  9855	  9856	  9857	  9858	  9859	  9866	  9868	  9870	  9871	  9872	  9873	  9874	  9881	  9883
	  9885	  9886	  9887	  9888	  9889	  9903	  9905	  9907	  9908	  9909	  9910	  9911	  9918	  9920
	  9922	  9923	  9924	  9925	  9926	  9933	  9935	  9937	  9938	  9939	  9940	  9941	  9948	  9950
	  9952	  9953	  9954	  9955	  9956	  9963	  9965	  9967	  9968	  9969	  9970	  9971	  9978	  9980
	  9982	  9983	  9984	  9985	  9986	  9993	  9995	  9997	  9998	  9999	 10000	 10001	 10008	 10010
	 10012	 10013	 10014	 10015	 10016	 10040	 10042	 10044	 10045	 10046	 10047	 10048	 10057	 10059
	 10061	 10062	 10063	 10064	 10065	 10074	 10076	 10078	 10079	 10080	 10081	 10082	 10091	 10093
	 10095	 10096	 10097	 10098	 10099	 10108	 10110	 10112	 10113	 10114	 10115	 10116	 10125	 10127
	 10129	 10130	 10131	 10132	 10133	 10142	 10144	 10146	 10147	 10148	 10149	 10150	 10159	 10161
	 10163	 10164	 10165	 10166	 10167	 10176	 10178	 10180	 10181	 10182	 10183	 10184	 10193	 10195
	 10197	 10198	 10199	 10200	 10201	 10210	 10212	 10214	 10215	 10216	 10217	 10218	 10227	 10229
	 10231	 10232	 10233	 10234	 10235	 10244	 10246	 10248	 10249	 10250	 10251	 10252	 10261	 10263
	 10265	 10266	 10267	 10268	 10269	 10278	 10280	 10282	 10283	 10284	 10285	 10286	 10295	 10297
	 10299	 10300	 10301	 10302	 10303	 10312	 10314	 10316	 10317	 10318	 10319	 10320	 10329	 10331
	 10333	 10334	 10335	 10336	 10337	 10344	 10346	 10348	 10349	 10350	 10351	 10352	 10366	 10368
	 10370	 10371	 10372	 10373	 10374	 10381	 10383	 10385	 10386	 10387	 10388	 10389	 10396	 10398
	 10400	 10401	 10402	 10403	 10404	 10411	 10413	 10415	 10416	 10417	 10418	 10419	 10426	 10428
	 10430	 10431	 10432	 10433	 10434	 10441	 10443	 10445	 10446	 10447	 10448	 10449	 10456	 10458
	 10460	 10461	 10462	 10463	 10464	 10471	 10473	 10475	 10476	 10477	 10478	 10479	 10486	 10488
	 10490	 10491	 10492	 10493	 10494	 10501	 10503	 10505	 10506	 10507	 10508	 10509	 10516	 10518
	 10520	 10521	 10522	 10523	 10524	 10531	 10533	 10535	 10536	 10537	 10538	 10539	 10546	 10548
	 10550	 10551	 10552	 10553	 10554	 10561	 10563	 10565	 10566	 10567	 10568	 10569	 10576	 10578
	 10580	 10581	 10582	 10583	 10584	 10591	 10593	 10595	 10596	 10597	 10598	 10599	 10606	 10608
	 10610	 10611	 10612	 10613	 10614	 10620	 10622	 10624	 10625	 10626	 10627	 10628	 10642	 10644
	 10646	 10647	 10648	 10649	 10650	 10657	 10659	 10661	 10662	 10663	 10664	 10665	 10672	 10674
	 10676	 10677	 10678	 10679	 10680	 10687	 10689	 10691	 10692	 10693	 10694	 10695	 10702	 10704
	 10706	 10707	 10708	 10709	 10710	 10717	 10719	 10721	 10722	 10723	 10724	 10725	 10732	 10734
	 10736	 10737	 10738	 10739	 10740	 10747	 10749	 10751	 10752	 10753	 10754	 10755	 10762	 10764
	 10766	 10767	 10768	 10769	 10770	 10777	 10779	 10781	 10782	 10783	 10784	 10785	 10792	 10794
	 10796	 10797	 10798	 10799	 10800	 10807	 10809	 10811	 10812	 10813	 10814	 10815	 10822	 10824
	 10826	 10827	 10828	 10829	 10830	 10837	 10839	 10841	 10842	 10843	 10844	 10845	 10852	 10854
	 10856	 10857	 10858	 10859	 10860	 10867	 10869	 10871	 10872	 10873	 10874	 10875	 10882	 10884
	 10886	 10887	 10888	 10889	 10890	 10897	 10899	 10901	 10902	 10903	 10904	 10905	 10919	 10921
	 10923	 10924	 10925	 10926	 10927	 10934	 10936	 10938	 10939	 10940	 10941	 10942	 10949	 10951
	 10953	 10954	 10955	 10956	 10957	 10964	 10966	 10968	 10969	 10970	 10971	 10972	 10979	 10981
	 10983	 10984	 10985	 10986	 10987	 10994	 10996	 10998	 10999	 11000	 11001	 11002	 11009	 11011
	 11013	 11014	 11015	 11016	 11017	 11024	 11026	 11028	 11029	 11030	 11031	 11032	 11055	 11057	 11059	 11060	 11061	 11062	 11063	 11071	 11073	 11075	 11076	 11077	 11078	 11079	 11087	 11089
	 11091	 11092	 11093	 11094	 11095	 11103	 11105	 11107	 11108	 11109	 11110	 11111	 11119	 11121     SEQ 0283
	 11123	 11124	 11125	 11126	 11127	 11135	 11137	 11139	 11140	 11141	 11142	 11143	 11151	 11153
	 11155	 11156	 11157	 11158	 11159	 11167	 11169	 11171	 11172	 11173	 11174	 11175	 11183	 11185
	 11187	 11188	 11189	 11190	 11191	 11199	 11201	 11203	 11204	 11205	 11206	 11207	 11215	 11217
	 11219	 11220	 11221	 11222	 11223	 11231	 11233	 11235	 11236	 11237	 11238	 11239	 11247	 11249
	 11251	 11252	 11253	 11254	 11255	 11263	 11265	 11267	 11268	 11269	 11270	 11271	 11279	 11281
	 11283	 11284	 11285	 11286	 11287	 11295	 11297	 11299	 11300	 11301	 11302	 11303	 11311	 11313
	 11315	 11316	 11317	 11318	 11319	 11327	 11329	 11331	 11332	 11333	 11334	 11335	 11354	 11356
	 11358	 11359	 11360	 11361	 11362	 11370	 11372	 11374	 11375	 11376	 11377	 11378	 11386	 11388
	 11390	 11391	 11392	 11393	 11394	 11402	 11404	 11406	 11407	 11408	 11409	 11410	 11418	 11420
	 11422	 11423	 11424	 11425	 11426	 11434	 11436	 11438	 11439	 11440	 11441	 11442	 11450	 11452
	 11454	 11455	 11456	 11457	 11458	 11466	 11468	 11470	 11471	 11472	 11473	 11474	 11482	 11484
	 11486	 11487	 11488	 11489	 11490	 11498	 11500	 11502	 11503	 11504	 11505	 11506	 11514	 11516
	 11518	 11519	 11520	 11521	 11522	 11530	 11532	 11534	 11535	 11536	 11537	 11538	 11546	 11548
	 11550	 11551	 11552	 11553	 11554	 11562	 11564	 11566	 11567	 11568	 11569	 11570	 11578	 11580
	 11582	 11583	 11584	 11585	 11586	 11594	 11596	 11598	 11599	 11600	 11601	 11602	 11610	 11612
	 11614	 11615	 11616	 11617	 11618	 11623	 11625	 11627	 11628	 11629	 11630	 11631	 11649	 11651
	 11653	 11654	 11655	 11656	 11657	 11665	 11667	 11669	 11670	 11671	 11672	 11673	 11681	 11683
	 11685	 11686	 11687	 11688	 11689	 11697	 11699	 11701	 11702	 11703	 11704	 11705	 11713	 11715
	 11717	 11718	 11719	 11720	 11721	 11729	 11731	 11733	 11734	 11735	 11736	 11737	 11745	 11747
	 11749	 11750	 11751	 11752	 11753	 11761	 11763	 11765	 11766	 11767	 11768	 11769	 11777	 11779
	 11781	 11782	 11783	 11784	 11785	 11793	 11795	 11797	 11798	 11799	 11800	 11801	 11809	 11811
	 11813	 11814	 11815	 11816	 11817	 11825	 11827	 11829	 11830	 11831	 11832	 11833	 11841	 11843
	 11845	 11846	 11847	 11848	 11849	 11857	 11859	 11861	 11862	 11863	 11864	 11865	 11873	 11875
	 11877	 11878	 11879	 11880	 11881	 11889	 11891	 11893	 11894	 11895	 11896	 11897	 11905	 11907
	 11909	 11910	 11911	 11912	 11913	 11921	 11923	 11925	 11926	 11927	 11928	 11929	 11948	 11950
	 11952	 11953	 11954	 11955	 11956	 11964	 11966	 11968	 11969	 11970	 11971	 11972	 11980	 11982
	 11984	 11985	 11986	 11987	 11988	 11996	 11998	 12000	 12001	 12002	 12003	 12004	 12012	 12014
	 12016	 12017	 12018	 12019	 12020	 12028	 12030	 12032	 12033	 12034	 12035	 12036	 12044	 12046
	 12048	 12049	 12050	 12051	 12052	 12060	 12062	 12064	 12065	 12066	 12067	 12068	 12076	 12078
	 12080	 12081	 12082	 12083	 12084	 12105	 12107	 12109	 12110	 12111	 12112	 12113	 12120	 12122
	 12124	 12125	 12126	 12127	 12128	 12135	 12137	 12139	 12140	 12141	 12142	 12143	 12150	 12152
	 12154	 12155	 12156	 12157	 12158	 12165	 12167	 12169	 12170	 12171	 12172	 12173	 12180	 12182
	 12184	 12185	 12186	 12187	 12188	 12195	 12197	 12199	 12200	 12201	 12202	 12203	 12210	 12212
	 12214	 12215	 12216	 12217	 12218	 12225	 12227	 12229	 12230	 12231	 12232	 12233	 12240	 12242
	 12244	 12245	 12246	 12247	 12248	 12255	 12257	 12259	 12260	 12261	 12262	 12263	 12270	 12272
	 12274	 12275	 12276	 12277	 12278	 12285	 12287	 12289	 12290	 12291	 12292	 12293	 12300	 12302
	 12304	 12305	 12306	 12307	 12308	 12315	 12317	 12319	 12320	 12321	 12322	 12323	 12330	 12332
	 12334	 12335	 12336	 12337	 12338	 12345	 12347	 12349	 12350	 12351	 12352	 12353	 12360	 12362
	 12364	 12365	 12366	 12367	 12368	 12385	 12387	 12389	 12390	 12391	 12392	 12393	 12400	 12402
	 12404	 12405	 12406	 12407	 12408	 12415	 12417	 12419	 12420	 12421	 12422	 12423	 12430	 12432
	 12434	 12435	 12436	 12437	 12438	 12445	 12447	 12449	 12450	 12451	 12452	 12453	 12460	 12462
	 12464	 12465	 12466	 12467	 12468	 12475	 12477	 12479	 12480	 12481	 12482	 12483	 12490	 12492
	 12494	 12495	 12496	 12497	 12498	 12505	 12507	 12509	 12510	 12511	 12512	 12513	 12520	 12522
	 12524	 12525	 12526	 12527	 12528	 12535	 12537	 12539	 12540	 12541	 12542	 12543	 12550	 12552
	 12554	 12555	 12556	 12557	 12558	 12565	 12567	 12569	 12570	 12571	 12572	 12573	 12580	 12582
	 12584	 12585	 12586	 12587	 12588	 12595	 12597	 12599	 12600	 12601	 12602	 12603	 12610	 12612
	 12614	 12615	 12616	 12617	 12618	 12625	 12627	 12629	 12630	 12631	 12632	 12633	 12640	 12642
	 12644	 12645	 12646	 12647	 12648	 12665	 12667	 12669	 12670	 12671	 12672	 12673	 12680	 12682
	 12684	 12685	 12686	 12687	 12688	 12695	 12697	 12699	 12700	 12701	 12702	 12703	 12710	 12712
	 12714	 12715	 12716	 12717	 12718	 12725	 12727	 12729	 12730	 12731	 12732	 12733	 12740	 12742
	 12744	 12745	 12746	 12747	 12748	 12755	 12757	 12759	 12760	 12761	 12762	 12763	 12770	 12772	 12774	 12775	 12776	 12777	 12778	 12785	 12787	 12789	 12790	 12791	 12792	 12793	 12800	 12802
	 12804	 12805	 12806	 12807	 12808	 12815	 12817	 12819	 12820	 12821	 12822	 12823	 12830	 12832     SEQ 0284
	 12834	 12835	 12836	 12837	 12838	 12845	 12847	 12849	 12850	 12851	 12852	 12853	 12860	 12862
	 12864	 12865	 12866	 12867	 12868	 12875	 12877	 12879	 12880	 12881	 12882	 12883	 12890	 12892
	 12894	 12895	 12896	 12897	 12898	 12905	 12907	 12909	 12910	 12911	 12912	 12913	 12920	 12922
	 12924	 12925	 12926	 12927	 12928	 12945	 12947	 12949	 12950	 12951	 12952	 12953	 12960	 12962
	 12964	 12965	 12966	 12967	 12968	 12975	 12977	 12979	 12980	 12981	 12982	 12983	 12990	 12992
	 12994	 12995	 12996	 12997	 12998	 13005	 13007	 13009	 13010	 13011	 13012	 13013	 13020	 13022
	 13024	 13025	 13026	 13027	 13028	 13035	 13037	 13039	 13040	 13041	 13042	 13043	 13050	 13052
	 13054	 13055	 13056	 13057	 13058	 13064	 13066	 13068	 13069	 13070	 13071	 13072	 13076	 13078
	 13080	 13081	 13082	 13083	 13084
ALTMGO	   481#	 13222
AMCLRB	   395#
ANXM	   395#
APR	 13099	 13251
AROV	   395#
AROVTP	   395#
AROVU	   395#
AST	   596#
ATSIN	   597#
BEGEND	   477#	 13087
BEGIN	    71	    72	    83	    86	    87	    88	   408#	 13949
BEGIN1	   424#	   478
BELL	   600#
BIS	   395#
CCA	   395#
CD00	   748	   752#
CHAIN	   186#
CHNOFF	   395#
CHNON	   395#
CLK	   395#
CLKCLR	   395#
CLKDIS	   395#
CLKENB	   395#
CLKU	   395#
CLOCKF	   463#
CNTLC	   480#
CNTRP	   395#
COMMA	   589#
CONSW	   464#	 13156	 13223	 13254
CPOPJ	   484#
CPOPJ1	   482#
CRLF	   315	   316	   584#
CRLF2	   319	   320	   586#
CRY0	   395#
CRY1	   395#
CSHFLG	   643#
CSHMEM	   644#
CTRP	   395#
CYCL60	   637#
DCK	   395#
DDTLNK	   200#	   422
DDTSRT	   422#DEBUG	    64#	 13940	 13941
DECVER	     3#	    10	    23	   443                                                                                     SEQ 0285
DF22F	   548#
DIAGMN	   411#
DING	   172#	 13228
DOLLAR	   603#
DSKUPD	   448
END	 13948#
ENDFIX	   717#
ENDSLD	 13938#
ERDIAG	    69#	 13141
ERMORE	   497#	 13214
ERRELB	 13211
ERRLOP	   756#	   756	 13121	 13233	 13236	 13237
ERRMES	    50	    51	    52	    53	    54	    55	    56	    57	    58	    59	    60	 13092#
ERRPC	   468#	 13104	 13138
ERRTLS	   469#	 13102	 13240
ERSTOP	   175#	 13224
EXCASB	    65#	   446	 13093	 13245
EXCMEM	   395#
EXCPFW	   395#
EXIOT	   395#
FOV	   395#
FOVU	   395#
FRDLNK	   198#
FSELNK	   197#
FXU	   395#
HYPEN	   594#
IADBRK	   395#
IADEXC	   395#
IADSTP	   395#
IADUSR	   395#
IAPRC1	   395#
IAPRE1	   395#
IASRTC	   395#
IASRTE	   395#
IASRTS	   395#
ICNSLL	   395#
ICNSLR	   395#
IDATAF	   395#
IEVNPR	   395#
IFMMAN	   395#
IINSTF	   395#
IIOPFC	   395#
IIOPFL	   395#
IMAINT	   395#
IMGINM	   395#
IMGNLO	   395#
IMGNOF	   395#	 13099
IMGNON	   395#
IMIPGD	   395#
IMLAPD	   395#
INHCSH	   183#INHPAG	   180#
INXCLR	   395#                                                                                                            SEQ 0286
INXM	   395#
INXSTP	   395#
IOCLR	   395#
IP50HZ	   395#
IPAREN	   395#
IPARER	   395#
IPRSTP	   395#
IPWRFL	   395#
IPWRLO	   395#
IRQCLR	   395#
ISPDOF	   395#	 13099
ISPDON	   395#
ITERAT	   102#	   441
ITMDIS	   395#
ITMENB	   395#
ITMOEN	   395#
ITMOUT	   395#
ITMSET	   395#
ITRCH1	   501#
ITRCNT	   441#
IWRITE	   395#
JOB41	   395#
JOBAPR	   395#
JOBCNI	   395#
JOBDDT	   395#
JOBFF	   395#
JOBOPC	   395#	 13221
JOBREL	   395#
JOBREN	   395#
JOBSA	   395#
JOBSYM	   395#
JOBTPC	   395#
JOBUSY	   395#
JOBUUO	   395#
JOBVER	   395#
KA10	   395
KAHZ50	   188#
KAIFLG	   458#	 13094	 13246
KI10	    67#	   395	 13093	 13245
KL10	   395
KLFLG	   459#	 13108
KLOLD	    70#	   395
KLTYP	   675#
KNTRP	   395#
KTRP	   395#
LDEXCB	   395#
LDLNK	   199#	   411	   413
LDUSRB	   395#
LFP	   598#
LIP	   395#
LOOPER	   174#	 13226LUUO	   395#
LUUO1	    50#	   528	   529                                                                                             SEQ 0287
LUUO10	    57#	   528	   533
LUUO11	    58#	   528	   533
LUUO12	    59#	   528	   534
LUUO13	    60#	   528	   534
LUUO14	   528	   535
LUUO15	   528	   535
LUUO16	   528	   536
LUUO17	   528	   536
LUUO2	    51#	   528	   530
LUUO20	   528	   537
LUUO21	   528	   537
LUUO22	   528	   538
LUUO23	   528	   538
LUUO24	   528	   539
LUUO25	   528	   539
LUUO26	   528	   540
LUUO27	   528	   540
LUUO3	    52#	   528	   530
LUUO30	   528	   541
LUUO31	   528	   541
LUUO32	   528	   542
LUUO33	   528	   542
LUUO4	    53#	   528	   531
LUUO5	    54#	   528	   531
LUUO6	    55#	   528	   532
LUUO7	    56#	   528	   532
LUUOI	   395#
MAPNEW	   549#
MARGIN	   471#	 13098	 13250	 13251
MCNVER	     4#	    10	    23	   443
MEMLOW	   551#
MEMMAP	   449
MEMSIZ	   552#
MEMTOT	   550#
MICNT	 13105#	 13105	 13106	 13123
MINUS	   593#
MODDVC	   182#
MODDVL	    72#	   380	   444
MODDVU	    71#	   381	   445
MODLNK	   201#	   408
MONCTL	   461#	 13124	 13238
MONFLG	   460#
MONTEN	   462#
MPVU	   395#
MUUO	   395#
MUUOPC	   395#
NOPNT	   170#	 13114
NXMU	   395#
OPRSEL	   184#
OPTIME	   563#
P	   227	   228	   229	   230	   395#	   483PAG	   395#
PALERS	   176#	 13255                                                                                                     SEQ 0288
PARCLR	   395#
PARDIS	   395#
PAREA1	    95#	   439
PAREA2	    96#	   440
PAREA3	    97#	   437
PAREA4	    98#	   438
PAREA5	    99#	   450
PAREA6	   100#	   451
PAREA7	   450#
PAREA8	   451#
PARENB	   395#
PARU	   395#
PASCNT	   465#	 13129	 13133
PATCH	 13941#
PDISF	   560#
PDLOVU	   395#
PDOVTP	   395#
PERIOD	   590#
PFSTRT	   417#
PGFTRP	   395#
PGMEND	    68#	 13947
PGMNAM	   442	   722#
PI	 13111
PICHN1	   395#
PICHN2	   395#
PICHN3	   395#
PICHN4	   395#
PICHN5	   395#
PICHN6	   395#
PICHN7	   395#
PICHNA	   395#
PICLR	   395#
PIOFF	   395#
PION	   395#
PLIST	   629#	   629
PLISTE	   629	   631#	   715
PLISTS	   630#
PLUS	   595#
PNTENB	   559#
PNTEXT	   438#
PNTFLG	   558#
PNTINH	   561#
PNTLPT	   171#
PNTNAM	   437#
PNTRP	   395#
PNTSPC	   562#
PROCED	 13112#	 13112	 13227	 13234
PTRP	   395#
PVPAGI	   656#
PWFCLR	   395#
QUEST	   601#R100	   760#	   768
R1000	  4759#                                                                                                            SEQ 0289
R1100	  5884#
R1200	  7009#
R1300	  8010#
R1400	  9009#
R1500	 10025#
R1600	 11042#
R1700	 12094#
R200	   776#
R2000	 13076#	 13084
R300	  1760#
R400	  2760#	  2768
R500	  2773#	  2781
R600	  2789#
R700	  3774#
RADIX	   604#
RADLSC	   606#
RADLSP	   605#
RANDBS	   439#
REENTR	   419#
RELIAB	   178#
RENTR1	    85	   719#
REPT	   395#
REPT1	   395#
REPTU	   517#
REQSET	   395#
RESRT1	    84	   494#
RESRT2	   495#
RETURN	   426#
RSTART	   167#
RTP	   599#
RUNFLG	   466#
SADR1	    83#	   415
SADR10	    92#	   431
SADR11	    93#	   432
SADR2	    84#	   417
SADR3	    85#	   419
SADR4	    86#
SADR5	    87#	   480
SADR6	    88#	   481
SADR7	    89#	   428
SADR8	    90#	   429
SADR9	    91#	   430
SBINIT	   240	   425#
SCOPE	   518#
SENSE1	   395#
SENSE2	   395#
SENSE3	   395#
SENSE4	   395#
SENSE5	   395#
SENSE6	   395#
SFSTRT	   415#SLASH	   602#
SMLUSR	   395#                                                                                                            SEQ 0290
SNTRP	   395#
SPACE	   591#
SPDES	 13199#
SRTDDT	   421#
START	   409	   744#
START1	   428#
START2	   429#
START3	   430#
START4	   431#
START5	   432#
STARTA	   424	   748#
STRP	   395#
SUBLNK	   202#	   425
SWTEXR	   440#
SYSEXR	   413#
T	   771#	   783	   783#	   792	   794	   798	   798#	   807	   809	   813	   813#	   822	   824	   828
	   828#	   837	   839	   843	   843#	   852	   854	   858	   858#	   867	   869	   873	   873#	   882
	   884	   888	   888#	   897	   899	   903	   903#	   912	   914	   928	   928#	   937	   939	   943
	   943#	   952	   954	   958	   958#	   967	   969	   973	   973#	   982	   984	   988	   988#	   997
	   999	  1003	  1003#	  1012	  1014	  1018	  1018#	  1027	  1029	  1033	  1033#	  1042	  1044	  1048
	  1048#	  1057	  1059	  1063	  1063#	  1072	  1074	  1078	  1078#	  1087	  1089	  1093	  1093#	  1102
	  1104	  1108	  1108#	  1117	  1119	  1123	  1123#	  1132	  1134	  1138	  1138#	  1147	  1149	  1153
	  1153#	  1162	  1164	  1168	  1168#	  1177	  1179	  1183	  1183#	  1192	  1194	  1200	  1200#	  1207
	  1209	  1220	  1220#	  1229	  1231	  1235	  1235#	  1244	  1246	  1250	  1250#	  1259	  1261	  1265
	  1265#	  1274	  1276	  1280	  1280#	  1289	  1291	  1295	  1295#	  1304	  1306	  1310	  1310#	  1319
	  1321	  1325	  1325#	  1334	  1336	  1340	  1340#	  1349	  1351	  1355	  1355#	  1364	  1366	  1370
	  1370#	  1379	  1381	  1385	  1385#	  1394	  1396	  1400	  1400#	  1409	  1411	  1415	  1415#	  1424
	  1426	  1430	  1430#	  1439	  1441	  1445	  1445#	  1454	  1456	  1460	  1460#	  1469	  1471	  1485
	  1485#	  1494	  1496	  1500	  1500#	  1509	  1511	  1515	  1515#	  1524	  1526	  1530	  1530#	  1539
	  1541	  1545	  1545#	  1554	  1556	  1560	  1560#	  1569	  1571	  1575	  1575#	  1584	  1586	  1590
	  1590#	  1599	  1601	  1605	  1605#	  1614	  1616	  1620	  1620#	  1629	  1631	  1635	  1635#	  1644
	  1646	  1650	  1650#	  1659	  1661	  1665	  1665#	  1674	  1676	  1680	  1680#	  1689	  1691	  1695
	  1695#	  1704	  1706	  1710	  1710#	  1719	  1721	  1725	  1725#	  1734	  1736	  1740	  1740#	  1749
	  1751	  1755#	  1767	  1767#	  1776	  1778	  1782	  1782#	  1791	  1793	  1797	  1797#	  1806	  1808
	  1812	  1812#	  1821	  1823	  1827	  1827#	  1836	  1838	  1842	  1842#	  1851	  1853	  1857	  1857#
	  1866	  1868	  1872	  1872#	  1881	  1883	  1887	  1887#	  1896	  1898	  1912	  1912#	  1921	  1923
	  1927	  1927#	  1936	  1938	  1942	  1942#	  1951	  1953	  1957	  1957#	  1966	  1968	  1972	  1972#
	  1981	  1983	  1987	  1987#	  1996	  1998	  2002	  2002#	  2011	  2013	  2017	  2017#	  2026	  2028
	  2032	  2032#	  2041	  2043	  2047	  2047#	  2056	  2058	  2062	  2062#	  2071	  2073	  2077	  2077#
	  2086	  2088	  2092	  2092#	  2101	  2103	  2107	  2107#	  2116	  2118	  2122	  2122#	  2131	  2133
	  2137	  2137#	  2146	  2148	  2152	  2152#	  2161	  2163	  2167	  2167#	  2176	  2178	  2184	  2184#
	  2191	  2193	  2205	  2205#	  2214	  2216	  2221	  2221#	  2230	  2232	  2237	  2237#	  2246	  2248
	  2253	  2253#	  2262	  2264	  2269	  2269#	  2278	  2280	  2285	  2285#	  2294	  2296	  2301	  2301#
	  2310	  2312	  2317	  2317#	  2326	  2328	  2333	  2333#	  2342	  2344	  2349	  2349#	  2358	  2360
	  2365	  2365#	  2374	  2376	  2381	  2381#	  2390	  2392	  2397	  2397#	  2406	  2408	  2413	  2413#
	  2422	  2424	  2429	  2429#	  2438	  2440	  2445	  2445#	  2454	  2456	  2461	  2461#	  2470	  2472
	  2487	  2487#	  2496	  2498	  2502	  2502#	  2511	  2513	  2517	  2517#	  2526	  2528	  2532	  2532#
	  2541	  2543	  2547	  2547#	  2556	  2558	  2562	  2562#	  2571	  2573	  2577	  2577#	  2586	  2588
	  2592	  2592#	  2601	  2603	  2607	  2607#	  2616	  2618	  2622	  2622#	  2631	  2633	  2637	  2637#
	  2646	  2648	  2652	  2652#	  2661	  2663	  2667	  2667#	  2676	  2678	  2682	  2682#	  2691	  2693
	  2697	  2697#	  2706	  2708	  2712	  2712#	  2721	  2723	  2727	  2727#	  2736	  2738	  2742	  2742#	  2751	  2753	  2785#	  2796	  2796#	  2805	  2807	  2811	  2811#	  2820	  2822	  2826	  2826#	  2835
	  2837	  2841	  2841#	  2850	  2852	  2856	  2856#	  2865	  2867	  2871	  2871#	  2880	  2882	  2886     SEQ 0291
	  2886#	  2895	  2897	  2901	  2901#	  2910	  2912	  2916	  2916#	  2925	  2927	  2931	  2931#	  2940
	  2942	  2946	  2946#	  2955	  2957	  2961	  2961#	  2970	  2972	  2976	  2976#	  2985	  2987	  2991
	  2991#	  3000	  3002	  3006	  3006#	  3015	  3017	  3021	  3021#	  3030	  3032	  3036	  3036#	  3045
	  3047	  3051	  3051#	  3060	  3062	  3076	  3076#	  3085	  3087	  3091	  3091#	  3100	  3102	  3106
	  3106#	  3115	  3117	  3121	  3121#	  3130	  3132	  3136	  3136#	  3145	  3147	  3151	  3151#	  3160
	  3162	  3166	  3166#	  3175	  3177	  3181	  3181#	  3190	  3192	  3196	  3196#	  3205	  3207	  3211
	  3211#	  3220	  3222	  3226	  3226#	  3235	  3237	  3241	  3241#	  3250	  3252	  3256	  3256#	  3265
	  3267	  3271	  3271#	  3280	  3282	  3286	  3286#	  3295	  3297	  3301	  3301#	  3310	  3312	  3316
	  3316#	  3325	  3327	  3331	  3331#	  3340	  3342	  3356	  3356#	  3365	  3367	  3371	  3371#	  3380
	  3382	  3386	  3386#	  3395	  3397	  3401	  3401#	  3410	  3412	  3416	  3416#	  3425	  3427	  3431
	  3431#	  3440	  3442	  3446	  3446#	  3455	  3457	  3461	  3461#	  3470	  3472	  3476	  3476#	  3485
	  3487	  3491	  3491#	  3500	  3502	  3506	  3506#	  3515	  3517	  3521	  3521#	  3530	  3532	  3536
	  3536#	  3545	  3547	  3551	  3551#	  3560	  3562	  3566	  3566#	  3575	  3577	  3581	  3581#	  3590
	  3592	  3596	  3596#	  3605	  3607	  3611	  3611#	  3620	  3622	  3637	  3637#	  3646	  3648	  3652
	  3652#	  3661	  3663	  3667	  3667#	  3676	  3678	  3682	  3682#	  3691	  3693	  3697	  3697#	  3706
	  3708	  3712	  3712#	  3721	  3723	  3727	  3727#	  3736	  3738	  3742	  3742#	  3751	  3753	  3757
	  3757#	  3764	  3766	  3770#	  3781	  3781#	  3790	  3792	  3796	  3796#	  3805	  3807	  3811	  3811#
	  3820	  3822	  3826	  3826#	  3835	  3837	  3841	  3841#	  3850	  3852	  3856	  3856#	  3865	  3867
	  3871	  3871#	  3880	  3882	  3886	  3886#	  3895	  3897	  3901	  3901#	  3910	  3912	  3916	  3916#
	  3925	  3927	  3931	  3931#	  3940	  3942	  3946	  3946#	  3955	  3957	  3961	  3961#	  3970	  3972
	  3976	  3976#	  3985	  3987	  3991	  3991#	  4000	  4002	  4006	  4006#	  4015	  4017	  4021	  4021#
	  4030	  4032	  4036	  4036#	  4045	  4047	  4061	  4061#	  4070	  4072	  4076	  4076#	  4085	  4087
	  4091	  4091#	  4100	  4102	  4106	  4106#	  4115	  4117	  4121	  4121#	  4130	  4132	  4136	  4136#
	  4145	  4147	  4151	  4151#	  4160	  4162	  4166	  4166#	  4175	  4177	  4181	  4181#	  4190	  4192
	  4196	  4196#	  4205	  4207	  4211	  4211#	  4220	  4222	  4226	  4226#	  4235	  4237	  4241	  4241#
	  4250	  4252	  4256	  4256#	  4265	  4267	  4271	  4271#	  4280	  4282	  4286	  4286#	  4295	  4297
	  4301	  4301#	  4310	  4312	  4316	  4316#	  4325	  4327	  4341	  4341#	  4350	  4352	  4356	  4356#
	  4365	  4367	  4371	  4371#	  4380	  4382	  4386	  4386#	  4395	  4397	  4401	  4401#	  4410	  4412
	  4416	  4416#	  4425	  4427	  4431	  4431#	  4440	  4442	  4446	  4446#	  4455	  4457	  4461	  4461#
	  4470	  4472	  4476	  4476#	  4485	  4487	  4491	  4491#	  4500	  4502	  4506	  4506#	  4515	  4517
	  4521	  4521#	  4530	  4532	  4536	  4536#	  4545	  4547	  4551	  4551#	  4560	  4562	  4566	  4566#
	  4575	  4577	  4581	  4581#	  4590	  4592	  4596	  4596#	  4605	  4607	  4621	  4621#	  4630	  4632
	  4636	  4636#	  4645	  4647	  4651	  4651#	  4660	  4662	  4666	  4666#	  4675	  4677	  4681	  4681#
	  4690	  4692	  4696	  4696#	  4705	  4707	  4711	  4711#	  4720	  4722	  4726	  4726#	  4735	  4737
	  4741	  4741#	  4748	  4750	  4754#	  4768	  4768#	  4779	  4781	  4785	  4785#	  4796	  4798	  4802
	  4802#	  4813	  4815	  4819	  4819#	  4830	  4832	  4836	  4836#	  4847	  4849	  4853	  4853#	  4864
	  4866	  4870	  4870#	  4881	  4883	  4887	  4887#	  4898	  4900	  4904	  4904#	  4915	  4917	  4921
	  4921#	  4932	  4934	  4938	  4938#	  4949	  4951	  4955	  4955#	  4966	  4968	  4972	  4972#	  4983
	  4985	  4989	  4989#	  5000	  5002	  5006	  5006#	  5017	  5019	  5023	  5023#	  5034	  5036	  5040
	  5040#	  5051	  5053	  5057	  5057#	  5068	  5070	  5087	  5087#	  5098	  5100	  5104	  5104#	  5115
	  5117	  5121	  5121#	  5132	  5134	  5138	  5138#	  5149	  5151	  5155	  5155#	  5166	  5168	  5172
	  5172#	  5183	  5185	  5189	  5189#	  5200	  5202	  5206	  5206#	  5217	  5219	  5223	  5223#	  5234
	  5236	  5240	  5240#	  5251	  5253	  5257	  5257#	  5268	  5270	  5274	  5274#	  5285	  5287	  5291
	  5291#	  5302	  5304	  5308	  5308#	  5319	  5321	  5325	  5325#	  5336	  5338	  5342	  5342#	  5353
	  5355	  5359	  5359#	  5370	  5372	  5376	  5376#	  5387	  5389	  5406	  5406#	  5417	  5419	  5423
	  5423#	  5434	  5436	  5440	  5440#	  5451	  5453	  5457	  5457#	  5468	  5470	  5474	  5474#	  5485
	  5487	  5491	  5491#	  5502	  5504	  5508	  5508#	  5519	  5521	  5525	  5525#	  5536	  5538	  5542
	  5542#	  5553	  5555	  5559	  5559#	  5570	  5572	  5576	  5576#	  5587	  5589	  5593	  5593#	  5604
	  5606	  5610	  5610#	  5621	  5623	  5627	  5627#	  5638	  5640	  5644	  5644#	  5655	  5657	  5661
	  5661#	  5672	  5674	  5678	  5678#	  5689	  5691	  5695	  5695#	  5706	  5708	  5725	  5725#	  5736
	  5738	  5742	  5742#	  5753	  5755	  5759	  5759#	  5770	  5772	  5776	  5776#	  5787	  5789	  5793	  5793#	  5804	  5806	  5810	  5810#	  5821	  5823	  5827	  5827#	  5838	  5840	  5844	  5844#	  5855
	  5857	  5861	  5861#	  5872	  5874	  5879#	  5893	  5893#	  5904	  5906	  5910	  5910#	  5921	  5923     SEQ 0292
	  5927	  5927#	  5938	  5940	  5944	  5944#	  5955	  5957	  5961	  5961#	  5972	  5974	  5978	  5978#
	  5989	  5991	  5995	  5995#	  6006	  6008	  6012	  6012#	  6023	  6025	  6029	  6029#	  6040	  6042
	  6046	  6046#	  6057	  6059	  6063	  6063#	  6074	  6076	  6080	  6080#	  6091	  6093	  6097	  6097#
	  6108	  6110	  6114	  6114#	  6125	  6127	  6131	  6131#	  6142	  6144	  6148	  6148#	  6159	  6161
	  6165	  6165#	  6176	  6178	  6182	  6182#	  6193	  6195	  6212	  6212#	  6223	  6225	  6229	  6229#
	  6240	  6242	  6246	  6246#	  6257	  6259	  6263	  6263#	  6274	  6276	  6280	  6280#	  6291	  6293
	  6297	  6297#	  6308	  6310	  6314	  6314#	  6325	  6327	  6331	  6331#	  6342	  6344	  6348	  6348#
	  6359	  6361	  6365	  6365#	  6376	  6378	  6382	  6382#	  6393	  6395	  6399	  6399#	  6410	  6412
	  6416	  6416#	  6427	  6429	  6433	  6433#	  6444	  6446	  6450	  6450#	  6461	  6463	  6467	  6467#
	  6478	  6480	  6484	  6484#	  6495	  6497	  6501	  6501#	  6512	  6514	  6531	  6531#	  6542	  6544
	  6548	  6548#	  6559	  6561	  6565	  6565#	  6576	  6578	  6582	  6582#	  6593	  6595	  6599	  6599#
	  6610	  6612	  6616	  6616#	  6627	  6629	  6633	  6633#	  6644	  6646	  6650	  6650#	  6661	  6663
	  6667	  6667#	  6678	  6680	  6684	  6684#	  6695	  6697	  6701	  6701#	  6712	  6714	  6718	  6718#
	  6729	  6731	  6735	  6735#	  6746	  6748	  6752	  6752#	  6763	  6765	  6769	  6769#	  6780	  6782
	  6786	  6786#	  6797	  6799	  6803	  6803#	  6814	  6816	  6820	  6820#	  6831	  6833	  6850	  6850#
	  6861	  6863	  6867	  6867#	  6878	  6880	  6884	  6884#	  6895	  6897	  6901	  6901#	  6912	  6914
	  6918	  6918#	  6929	  6931	  6935	  6935#	  6946	  6948	  6952	  6952#	  6963	  6965	  6969	  6969#
	  6980	  6982	  6986	  6986#	  6997	  6999	  7004#	  7017	  7017#	  7027	  7029	  7033	  7033#	  7043
	  7045	  7049	  7049#	  7059	  7061	  7065	  7065#	  7075	  7077	  7081	  7081#	  7091	  7093	  7097
	  7097#	  7107	  7109	  7113	  7113#	  7123	  7125	  7129	  7129#	  7139	  7141	  7145	  7145#	  7155
	  7157	  7161	  7161#	  7171	  7173	  7177	  7177#	  7187	  7189	  7193	  7193#	  7203	  7205	  7209
	  7209#	  7219	  7221	  7225	  7225#	  7235	  7237	  7241	  7241#	  7251	  7253	  7257	  7257#	  7267
	  7269	  7273	  7273#	  7283	  7285	  7289	  7289#	  7299	  7301	  7308	  7308#	  7315	  7317	  7329
	  7329#	  7338	  7340	  7344	  7344#	  7353	  7355	  7359	  7359#	  7368	  7370	  7374	  7374#	  7383
	  7385	  7389	  7389#	  7398	  7400	  7404	  7404#	  7413	  7415	  7419	  7419#	  7428	  7430	  7434
	  7434#	  7443	  7445	  7449	  7449#	  7458	  7460	  7464	  7464#	  7473	  7475	  7479	  7479#	  7488
	  7490	  7494	  7494#	  7503	  7505	  7509	  7509#	  7518	  7520	  7524	  7524#	  7533	  7535	  7539
	  7539#	  7548	  7550	  7554	  7554#	  7563	  7565	  7572	  7572#	  7579	  7581	  7584	  7584#	  7592
	  7594	  7606	  7606#	  7615	  7617	  7621	  7621#	  7630	  7632	  7636	  7636#	  7645	  7647	  7651
	  7651#	  7660	  7662	  7666	  7666#	  7675	  7677	  7681	  7681#	  7690	  7692	  7696	  7696#	  7705
	  7707	  7711	  7711#	  7720	  7722	  7726	  7726#	  7735	  7737	  7741	  7741#	  7750	  7752	  7756
	  7756#	  7765	  7767	  7771	  7771#	  7780	  7782	  7786	  7786#	  7795	  7797	  7801	  7801#	  7810
	  7812	  7816	  7816#	  7825	  7827	  7831	  7831#	  7840	  7842	  7846	  7846#	  7855	  7857	  7862
	  7862#	  7871	  7873	  7884	  7884#	  7893	  7895	  7899	  7899#	  7908	  7910	  7914	  7914#	  7923
	  7925	  7929	  7929#	  7938	  7940	  7944	  7944#	  7953	  7955	  7959	  7959#	  7968	  7970	  7974
	  7974#	  7983	  7985	  7989	  7989#	  7998	  8000	  8005#	  8018	  8018#	  8028	  8030	  8034	  8034#
	  8044	  8046	  8050	  8050#	  8060	  8062	  8066	  8066#	  8076	  8078	  8082	  8082#	  8092	  8094
	  8098	  8098#	  8108	  8110	  8114	  8114#	  8124	  8126	  8130	  8130#	  8140	  8142	  8146	  8146#
	  8156	  8158	  8162	  8162#	  8172	  8174	  8178	  8178#	  8188	  8190	  8194	  8194#	  8204	  8206
	  8210	  8210#	  8220	  8222	  8226	  8226#	  8236	  8238	  8242	  8242#	  8252	  8254	  8258	  8258#
	  8268	  8270	  8274	  8274#	  8284	  8286	  8290	  8290#	  8300	  8302	  8309	  8309#	  8316	  8318
	  8330	  8330#	  8339	  8341	  8345	  8345#	  8354	  8356	  8360	  8360#	  8369	  8371	  8375	  8375#
	  8384	  8386	  8390	  8390#	  8399	  8401	  8405	  8405#	  8414	  8416	  8420	  8420#	  8429	  8431
	  8435	  8435#	  8444	  8446	  8450	  8450#	  8459	  8461	  8465	  8465#	  8474	  8476	  8480	  8480#
	  8489	  8491	  8495	  8495#	  8504	  8506	  8510	  8510#	  8519	  8521	  8525	  8525#	  8534	  8536
	  8540	  8540#	  8549	  8551	  8555	  8555#	  8564	  8566	  8573	  8573#	  8580	  8582	  8587	  8587#
	  8594	  8596	  8606	  8606#	  8615	  8617	  8621	  8621#	  8630	  8632	  8636	  8636#	  8645	  8647
	  8651	  8651#	  8660	  8662	  8666	  8666#	  8675	  8677	  8681	  8681#	  8690	  8692	  8696	  8696#
	  8705	  8707	  8711	  8711#	  8720	  8722	  8726	  8726#	  8735	  8737	  8741	  8741#	  8750	  8752
	  8756	  8756#	  8765	  8767	  8771	  8771#	  8780	  8782	  8786	  8786#	  8795	  8797	  8801	  8801#
	  8810	  8812	  8816	  8816#	  8825	  8827	  8831	  8831#	  8840	  8842	  8846	  8846#	  8855	  8857	  8861	  8861#	  8870	  8872	  8882	  8882#	  8891	  8893	  8897	  8897#	  8906	  8908	  8912	  8912#
	  8921	  8923	  8927	  8927#	  8936	  8938	  8942	  8942#	  8951	  8953	  8957	  8957#	  8966	  8968     SEQ 0293
	  8972	  8972#	  8981	  8983	  8987	  8987#	  8996	  8998	  9004#	  9018	  9018#	  9029	  9031	  9035
	  9035#	  9046	  9048	  9052	  9052#	  9063	  9065	  9069	  9069#	  9080	  9082	  9086	  9086#	  9097
	  9099	  9103	  9103#	  9114	  9116	  9120	  9120#	  9131	  9133	  9137	  9137#	  9148	  9150	  9154
	  9154#	  9165	  9167	  9171	  9171#	  9182	  9184	  9188	  9188#	  9199	  9201	  9205	  9205#	  9216
	  9218	  9222	  9222#	  9233	  9235	  9239	  9239#	  9250	  9252	  9256	  9256#	  9267	  9269	  9273
	  9273#	  9284	  9286	  9290	  9290#	  9301	  9303	  9307	  9307#	  9318	  9320	  9324	  9324#	  9333
	  9335	  9346	  9346#	  9355	  9357	  9361	  9361#	  9370	  9372	  9376	  9376#	  9385	  9387	  9391
	  9391#	  9400	  9402	  9406	  9406#	  9415	  9417	  9421	  9421#	  9430	  9432	  9436	  9436#	  9445
	  9447	  9451	  9451#	  9460	  9462	  9466	  9466#	  9475	  9477	  9481	  9481#	  9490	  9492	  9496
	  9496#	  9505	  9507	  9511	  9511#	  9520	  9522	  9526	  9526#	  9535	  9537	  9541	  9541#	  9550
	  9552	  9556	  9556#	  9565	  9567	  9571	  9571#	  9580	  9582	  9586	  9586#	  9595	  9597	  9600
	  9600#	  9609	  9611	  9622	  9622#	  9631	  9633	  9637	  9637#	  9646	  9648	  9652	  9652#	  9661
	  9663	  9667	  9667#	  9676	  9678	  9682	  9682#	  9691	  9693	  9697	  9697#	  9706	  9708	  9712
	  9712#	  9721	  9723	  9727	  9727#	  9736	  9738	  9742	  9742#	  9751	  9753	  9757	  9757#	  9766
	  9768	  9772	  9772#	  9781	  9783	  9787	  9787#	  9796	  9798	  9802	  9802#	  9811	  9813	  9817
	  9817#	  9826	  9828	  9832	  9832#	  9841	  9843	  9847	  9847#	  9856	  9858	  9862	  9862#	  9871
	  9873	  9877	  9877#	  9886	  9888	  9899	  9899#	  9908	  9910	  9914	  9914#	  9923	  9925	  9929
	  9929#	  9938	  9940	  9944	  9944#	  9953	  9955	  9959	  9959#	  9968	  9970	  9974	  9974#	  9983
	  9985	  9989	  9989#	  9998	 10000	 10004	 10004#	 10013	 10015	 10020#	 10034	 10034#	 10045	 10047
	 10051	 10051#	 10062	 10064	 10068	 10068#	 10079	 10081	 10085	 10085#	 10096	 10098	 10102	 10102#
	 10113	 10115	 10119	 10119#	 10130	 10132	 10136	 10136#	 10147	 10149	 10153	 10153#	 10164	 10166
	 10170	 10170#	 10181	 10183	 10187	 10187#	 10198	 10200	 10204	 10204#	 10215	 10217	 10221	 10221#
	 10232	 10234	 10238	 10238#	 10249	 10251	 10255	 10255#	 10266	 10268	 10272	 10272#	 10283	 10285
	 10289	 10289#	 10300	 10302	 10306	 10306#	 10317	 10319	 10323	 10323#	 10334	 10336	 10340	 10340#
	 10349	 10351	 10362	 10362#	 10371	 10373	 10377	 10377#	 10386	 10388	 10392	 10392#	 10401	 10403
	 10407	 10407#	 10416	 10418	 10422	 10422#	 10431	 10433	 10437	 10437#	 10446	 10448	 10452	 10452#
	 10461	 10463	 10467	 10467#	 10476	 10478	 10482	 10482#	 10491	 10493	 10497	 10497#	 10506	 10508
	 10512	 10512#	 10521	 10523	 10527	 10527#	 10536	 10538	 10542	 10542#	 10551	 10553	 10557	 10557#
	 10566	 10568	 10572	 10572#	 10581	 10583	 10587	 10587#	 10596	 10598	 10602	 10602#	 10611	 10613
	 10616	 10616#	 10625	 10627	 10638	 10638#	 10647	 10649	 10653	 10653#	 10662	 10664	 10668	 10668#
	 10677	 10679	 10683	 10683#	 10692	 10694	 10698	 10698#	 10707	 10709	 10713	 10713#	 10722	 10724
	 10728	 10728#	 10737	 10739	 10743	 10743#	 10752	 10754	 10758	 10758#	 10767	 10769	 10773	 10773#
	 10782	 10784	 10788	 10788#	 10797	 10799	 10803	 10803#	 10812	 10814	 10818	 10818#	 10827	 10829
	 10833	 10833#	 10842	 10844	 10848	 10848#	 10857	 10859	 10863	 10863#	 10872	 10874	 10878	 10878#
	 10887	 10889	 10893	 10893#	 10902	 10904	 10915	 10915#	 10924	 10926	 10930	 10930#	 10939	 10941
	 10945	 10945#	 10954	 10956	 10960	 10960#	 10969	 10971	 10975	 10975#	 10984	 10986	 10990	 10990#
	 10999	 11001	 11005	 11005#	 11014	 11016	 11020	 11020#	 11029	 11031	 11037#	 11050	 11050#	 11060
	 11062	 11066	 11066#	 11076	 11078	 11082	 11082#	 11092	 11094	 11098	 11098#	 11108	 11110	 11114
	 11114#	 11124	 11126	 11130	 11130#	 11140	 11142	 11146	 11146#	 11156	 11158	 11162	 11162#	 11172
	 11174	 11178	 11178#	 11188	 11190	 11194	 11194#	 11204	 11206	 11210	 11210#	 11220	 11222	 11226
	 11226#	 11236	 11238	 11242	 11242#	 11252	 11254	 11258	 11258#	 11268	 11270	 11274	 11274#	 11284
	 11286	 11290	 11290#	 11300	 11302	 11306	 11306#	 11316	 11318	 11322	 11322#	 11332	 11334	 11349
	 11349#	 11359	 11361	 11365	 11365#	 11375	 11377	 11381	 11381#	 11391	 11393	 11397	 11397#	 11407
	 11409	 11413	 11413#	 11423	 11425	 11429	 11429#	 11439	 11441	 11445	 11445#	 11455	 11457	 11461
	 11461#	 11471	 11473	 11477	 11477#	 11487	 11489	 11493	 11493#	 11503	 11505	 11509	 11509#	 11519
	 11521	 11525	 11525#	 11535	 11537	 11541	 11541#	 11551	 11553	 11557	 11557#	 11567	 11569	 11573
	 11573#	 11583	 11585	 11589	 11589#	 11599	 11601	 11605	 11605#	 11615	 11617	 11620	 11620#	 11628
	 11630	 11644	 11644#	 11654	 11656	 11660	 11660#	 11670	 11672	 11676	 11676#	 11686	 11688	 11692
	 11692#	 11702	 11704	 11708	 11708#	 11718	 11720	 11724	 11724#	 11734	 11736	 11740	 11740#	 11750
	 11752	 11756	 11756#	 11766	 11768	 11772	 11772#	 11782	 11784	 11788	 11788#	 11798	 11800	 11804
	 11804#	 11814	 11816	 11820	 11820#	 11830	 11832	 11836	 11836#	 11846	 11848	 11852	 11852#	 11862	 11864	 11868	 11868#	 11878	 11880	 11884	 11884#	 11894	 11896	 11900	 11900#	 11910	 11912	 11916
	 11916#	 11926	 11928	 11943	 11943#	 11953	 11955	 11959	 11959#	 11969	 11971	 11975	 11975#	 11985     SEQ 0294
	 11987	 11991	 11991#	 12001	 12003	 12007	 12007#	 12017	 12019	 12023	 12023#	 12033	 12035	 12039
	 12039#	 12049	 12051	 12055	 12055#	 12065	 12067	 12071	 12071#	 12081	 12083	 12089#	 12101	 12101#
	 12110	 12112	 12116	 12116#	 12125	 12127	 12131	 12131#	 12140	 12142	 12146	 12146#	 12155	 12157
	 12161	 12161#	 12170	 12172	 12176	 12176#	 12185	 12187	 12191	 12191#	 12200	 12202	 12206	 12206#
	 12215	 12217	 12221	 12221#	 12230	 12232	 12236	 12236#	 12245	 12247	 12251	 12251#	 12260	 12262
	 12266	 12266#	 12275	 12277	 12281	 12281#	 12290	 12292	 12296	 12296#	 12305	 12307	 12311	 12311#
	 12320	 12322	 12326	 12326#	 12335	 12337	 12341	 12341#	 12350	 12352	 12356	 12356#	 12365	 12367
	 12381	 12381#	 12390	 12392	 12396	 12396#	 12405	 12407	 12411	 12411#	 12420	 12422	 12426	 12426#
	 12435	 12437	 12441	 12441#	 12450	 12452	 12456	 12456#	 12465	 12467	 12471	 12471#	 12480	 12482
	 12486	 12486#	 12495	 12497	 12501	 12501#	 12510	 12512	 12516	 12516#	 12525	 12527	 12531	 12531#
	 12540	 12542	 12546	 12546#	 12555	 12557	 12561	 12561#	 12570	 12572	 12576	 12576#	 12585	 12587
	 12591	 12591#	 12600	 12602	 12606	 12606#	 12615	 12617	 12621	 12621#	 12630	 12632	 12636	 12636#
	 12645	 12647	 12661	 12661#	 12670	 12672	 12676	 12676#	 12685	 12687	 12691	 12691#	 12700	 12702
	 12706	 12706#	 12715	 12717	 12721	 12721#	 12730	 12732	 12736	 12736#	 12745	 12747	 12751	 12751#
	 12760	 12762	 12766	 12766#	 12775	 12777	 12781	 12781#	 12790	 12792	 12796	 12796#	 12805	 12807
	 12811	 12811#	 12820	 12822	 12826	 12826#	 12835	 12837	 12841	 12841#	 12850	 12852	 12856	 12856#
	 12865	 12867	 12871	 12871#	 12880	 12882	 12886	 12886#	 12895	 12897	 12901	 12901#	 12910	 12912
	 12916	 12916#	 12925	 12927	 12941	 12941#	 12950	 12952	 12956	 12956#	 12965	 12967	 12971	 12971#
	 12980	 12982	 12986	 12986#	 12995	 12997	 13001	 13001#	 13010	 13012	 13016	 13016#	 13025	 13027
	 13031	 13031#	 13040	 13042	 13046	 13046#	 13055	 13057	 13061	 13061#	 13069	 13071
TAB	   592#
TESTPC	   467#	   754
TICKS	   470#
TLET	   746	 13173	 13196#
TN0	   395#
TN1	   395#
TOTALS	   168#
TRP3TP	   395#
TRPENB	   395#
TTNBRF	   650#
TTYFIL	   566#
TTYSPD	   567#
TXTINH	   179#	 13157
UOLIP	   395#
UOUSR	   395#
USER	   457#	 13096	 13109	 13248
USERF	   395#
USRASB	    66#	   447
USRCMP	   395#
USRCRF	   576#
USRLFF	   575#
USRPFW	   395#
UUODIS	   529#
UUOEXT	   485#	 13252
UUORTN	   486#
UUOSKP	   483#
XX	   772#	   784	   784#	   789	   799	   799#	   804	   814	   814#	   819	   829	   829#	   834	   844
	   844#	   849	   859	   859#	   864	   874	   874#	   879	   889	   889#	   894	   904	   904#	   909
	   918#	   929	   929#	   934	   944	   944#	   949	   959	   959#	   964	   974	   974#	   979	   989
	   989#	   994	  1004	  1004#	  1009	  1019	  1019#	  1024	  1034	  1034#	  1039	  1049	  1049#	  1054
	  1064	  1064#	  1069	  1079	  1079#	  1084	  1094	  1094#	  1099	  1109	  1109#	  1114	  1124	  1124#	  1129	  1139	  1139#	  1144	  1154	  1154#	  1159	  1169	  1169#	  1174	  1184	  1184#	  1189	  1198#
	  1205	  1221	  1221#	  1227	  1236	  1236#	  1242	  1251	  1251#	  1257	  1266	  1266#	  1272	  1281     SEQ 0295
	  1281#	  1287	  1296	  1296#	  1302	  1311	  1311#	  1317	  1326	  1326#	  1332	  1341	  1341#	  1347
	  1356	  1356#	  1362	  1371	  1371#	  1377	  1386	  1386#	  1392	  1401	  1401#	  1407	  1416	  1416#
	  1422	  1431	  1431#	  1437	  1446	  1446#	  1452	  1461	  1461#	  1467	  1475#	  1486	  1486#	  1492
	  1501	  1501#	  1507	  1516	  1516#	  1522	  1531	  1531#	  1537	  1546	  1546#	  1552	  1561	  1561#
	  1567	  1576	  1576#	  1582	  1591	  1591#	  1597	  1606	  1606#	  1612	  1621	  1621#	  1627	  1636
	  1636#	  1642	  1651	  1651#	  1657	  1666	  1666#	  1672	  1681	  1681#	  1687	  1696	  1696#	  1702
	  1711	  1711#	  1717	  1726	  1726#	  1732	  1741	  1741#	  1747	  1756#	  1768	  1768#	  1771	  1783
	  1783#	  1786	  1798	  1798#	  1801	  1813	  1813#	  1816	  1828	  1828#	  1831	  1843	  1843#	  1846
	  1858	  1858#	  1861	  1873	  1873#	  1876	  1888	  1888#	  1891	  1902#	  1913	  1913#	  1916	  1928
	  1928#	  1931	  1943	  1943#	  1946	  1958	  1958#	  1961	  1973	  1973#	  1976	  1988	  1988#	  1991
	  2003	  2003#	  2006	  2018	  2018#	  2021	  2033	  2033#	  2036	  2048	  2048#	  2051	  2063	  2063#
	  2066	  2078	  2078#	  2081	  2093	  2093#	  2096	  2108	  2108#	  2111	  2123	  2123#	  2126	  2138
	  2138#	  2141	  2153	  2153#	  2156	  2168	  2168#	  2171	  2182#	  2187	  2206	  2206#	  2210	  2222
	  2222#	  2226	  2238	  2238#	  2242	  2254	  2254#	  2258	  2270	  2270#	  2274	  2286	  2286#	  2290
	  2302	  2302#	  2306	  2318	  2318#	  2322	  2334	  2334#	  2338	  2350	  2350#	  2354	  2366	  2366#
	  2370	  2382	  2382#	  2386	  2398	  2398#	  2402	  2414	  2414#	  2418	  2430	  2430#	  2434	  2446
	  2446#	  2450	  2462	  2462#	  2466	  2477#	  2488	  2488#	  2492	  2503	  2503#	  2507	  2518	  2518#
	  2522	  2533	  2533#	  2537	  2548	  2548#	  2552	  2563	  2563#	  2567	  2578	  2578#	  2582	  2593
	  2593#	  2597	  2608	  2608#	  2612	  2623	  2623#	  2627	  2638	  2638#	  2642	  2653	  2653#	  2657
	  2668	  2668#	  2672	  2683	  2683#	  2687	  2698	  2698#	  2702	  2713	  2713#	  2717	  2728	  2728#
	  2732	  2743	  2743#	  2747	  4755#	  4769	  4769#	  4770	  4770#	  4775	  4786	  4786#	  4787	  4792
	  4803	  4803#	  4804	  4809	  4820	  4820#	  4821	  4826	  4837	  4837#	  4838	  4843	  4854	  4854#
	  4855	  4860	  4871	  4871#	  4872	  4877	  4888	  4888#	  4889	  4894	  4905	  4905#	  4906	  4911
	  4922	  4922#	  4923	  4928	  4939	  4939#	  4940	  4945	  4956	  4956#	  4957	  4962	  4973	  4973#
	  4974	  4979	  4990	  4990#	  4991	  4996	  5007	  5007#	  5008	  5013	  5024	  5024#	  5025	  5030
	  5041	  5041#	  5042	  5047	  5058	  5058#	  5059	  5064	  5074#	  5088	  5088#	  5089	  5089#	  5094
	  5105	  5105#	  5106	  5111	  5122	  5122#	  5123	  5128	  5139	  5139#	  5140	  5145	  5156	  5156#
	  5157	  5162	  5173	  5173#	  5174	  5179	  5190	  5190#	  5191	  5196	  5207	  5207#	  5208	  5213
	  5224	  5224#	  5225	  5230	  5241	  5241#	  5242	  5247	  5258	  5258#	  5259	  5264	  5275	  5275#
	  5276	  5281	  5292	  5292#	  5293	  5298	  5309	  5309#	  5310	  5315	  5326	  5326#	  5327	  5332
	  5343	  5343#	  5344	  5349	  5360	  5360#	  5361	  5366	  5377	  5377#	  5378	  5383	  5393#	  5407
	  5407#	  5408	  5408#	  5412	  5424	  5424#	  5425	  5429	  5441	  5441#	  5442	  5446	  5458	  5458#
	  5459	  5463	  5475	  5475#	  5476	  5480	  5492	  5492#	  5493	  5497	  5509	  5509#	  5510	  5514
	  5526	  5526#	  5527	  5531	  5543	  5543#	  5544	  5548	  5560	  5560#	  5561	  5565	  5577	  5577#
	  5578	  5582	  5594	  5594#	  5595	  5599	  5611	  5611#	  5612	  5616	  5628	  5628#	  5629	  5633
	  5645	  5645#	  5646	  5650	  5662	  5662#	  5663	  5667	  5679	  5679#	  5680	  5684	  5696	  5696#
	  5697	  5701	  5712#	  5726	  5726#	  5727	  5727#	  5731	  5743	  5743#	  5744	  5748	  5760	  5760#
	  5761	  5765	  5777	  5777#	  5778	  5782	  5794	  5794#	  5795	  5799	  5811	  5811#	  5812	  5816
	  5828	  5828#	  5829	  5833	  5845	  5845#	  5846	  5850	  5862	  5862#	  5863	  5867	  5880#	  5894
	  5894#	  5895	  5895#	  5900	  5911	  5911#	  5912	  5917	  5928	  5928#	  5929	  5934	  5945	  5945#
	  5946	  5951	  5962	  5962#	  5963	  5968	  5979	  5979#	  5980	  5985	  5996	  5996#	  5997	  6002
	  6013	  6013#	  6014	  6019	  6030	  6030#	  6031	  6036	  6047	  6047#	  6048	  6053	  6064	  6064#
	  6065	  6070	  6081	  6081#	  6082	  6087	  6098	  6098#	  6099	  6104	  6115	  6115#	  6116	  6121
	  6132	  6132#	  6133	  6138	  6149	  6149#	  6150	  6155	  6166	  6166#	  6167	  6172	  6183	  6183#
	  6184	  6189	  6199#	  6213	  6213#	  6214	  6214#	  6219	  6230	  6230#	  6231	  6236	  6247	  6247#
	  6248	  6253	  6264	  6264#	  6265	  6270	  6281	  6281#	  6282	  6287	  6298	  6298#	  6299	  6304
	  6315	  6315#	  6316	  6321	  6332	  6332#	  6333	  6338	  6349	  6349#	  6350	  6355	  6366	  6366#
	  6367	  6372	  6383	  6383#	  6384	  6389	  6400	  6400#	  6401	  6406	  6417	  6417#	  6418	  6423
	  6434	  6434#	  6435	  6440	  6451	  6451#	  6452	  6457	  6468	  6468#	  6469	  6474	  6485	  6485#
	  6486	  6491	  6502	  6502#	  6503	  6508	  6518#	  6532	  6532#	  6533	  6533#	  6537	  6549	  6549#
	  6550	  6554	  6566	  6566#	  6567	  6571	  6583	  6583#	  6584	  6588	  6600	  6600#	  6601	  6605	  6617	  6617#	  6618	  6622	  6634	  6634#	  6635	  6639	  6651	  6651#	  6652	  6656	  6668	  6668#
	  6669	  6673	  6685	  6685#	  6686	  6690	  6702	  6702#	  6703	  6707	  6719	  6719#	  6720	  6724     SEQ 0296
	  6736	  6736#	  6737	  6741	  6753	  6753#	  6754	  6758	  6770	  6770#	  6771	  6775	  6787	  6787#
	  6788	  6792	  6804	  6804#	  6805	  6809	  6821	  6821#	  6822	  6826	  6837#	  6851	  6851#	  6852
	  6852#	  6856	  6868	  6868#	  6869	  6873	  6885	  6885#	  6886	  6890	  6902	  6902#	  6903	  6907
	  6919	  6919#	  6920	  6924	  6936	  6936#	  6937	  6941	  6953	  6953#	  6954	  6958	  6970	  6970#
	  6971	  6975	  6987	  6987#	  6988	  6992	  7006#	  7018	  7019	  7019#	  7020	  7020#	  7025	  7034
	  7035	  7035#	  7036	  7041	  7050	  7051	  7051#	  7052	  7057	  7066	  7067	  7067#	  7068	  7073
	  7082	  7083	  7083#	  7084	  7089	  7098	  7099	  7099#	  7100	  7105	  7114	  7115	  7115#	  7116
	  7121	  7130	  7131	  7131#	  7132	  7137	  7146	  7147	  7147#	  7148	  7153	  7162	  7163	  7163#
	  7164	  7169	  7178	  7179	  7179#	  7180	  7185	  7194	  7195	  7195#	  7196	  7201	  7210	  7211
	  7211#	  7212	  7217	  7226	  7227	  7227#	  7228	  7233	  7242	  7243	  7243#	  7244	  7249	  7258
	  7259	  7259#	  7260	  7265	  7274	  7275	  7275#	  7276	  7281	  7290	  7291	  7291#	  7292	  7297
	  7305	  7306#	  7313	  7330	  7331	  7331#	  7336	  7345	  7346	  7346#	  7351	  7360	  7361	  7361#
	  7366	  7375	  7376	  7376#	  7381	  7390	  7391	  7391#	  7396	  7405	  7406	  7406#	  7411	  7420
	  7421	  7421#	  7426	  7435	  7436	  7436#	  7441	  7450	  7451	  7451#	  7456	  7465	  7466	  7466#
	  7471	  7480	  7481	  7481#	  7486	  7495	  7496	  7496#	  7501	  7510	  7511	  7511#	  7516	  7525
	  7526	  7526#	  7531	  7540	  7541	  7541#	  7546	  7555	  7556	  7556#	  7561	  7569	  7570	  7570#
	  7577	  7585#	  7589	  7607	  7608	  7608#	  7612	  7622	  7623	  7623#	  7627	  7637	  7638	  7638#
	  7642	  7652	  7653	  7653#	  7657	  7667	  7668	  7668#	  7672	  7682	  7683	  7683#	  7687	  7697
	  7698	  7698#	  7702	  7712	  7713	  7713#	  7717	  7727	  7728	  7728#	  7732	  7742	  7743	  7743#
	  7747	  7757	  7758	  7758#	  7762	  7772	  7773	  7773#	  7777	  7787	  7788	  7788#	  7792	  7802
	  7803	  7803#	  7807	  7817	  7818	  7818#	  7822	  7832	  7833	  7833#	  7837	  7847	  7848	  7848#
	  7852	  7863	  7864#	  7868	  7885	  7886	  7886#	  7890	  7900	  7901	  7901#	  7905	  7915	  7916
	  7916#	  7920	  7930	  7931	  7931#	  7935	  7945	  7946	  7946#	  7950	  7960	  7961	  7961#	  7965
	  7975	  7976	  7976#	  7980	  7990	  7991	  7991#	  7995	  8007#	  8019	  8020	  8020#	  8021	  8021#
	  8024	  8035	  8036	  8036#	  8037	  8040	  8051	  8052	  8052#	  8053	  8056	  8067	  8068	  8068#
	  8069	  8072	  8083	  8084	  8084#	  8085	  8088	  8099	  8100	  8100#	  8101	  8104	  8115	  8116
	  8116#	  8117	  8120	  8131	  8132	  8132#	  8133	  8136	  8147	  8148	  8148#	  8149	  8152	  8163
	  8164	  8164#	  8165	  8168	  8179	  8180	  8180#	  8181	  8184	  8195	  8196	  8196#	  8197	  8200
	  8211	  8212	  8212#	  8213	  8216	  8227	  8228	  8228#	  8229	  8232	  8243	  8244	  8244#	  8245
	  8248	  8259	  8260	  8260#	  8261	  8264	  8275	  8276	  8276#	  8277	  8280	  8291	  8292	  8292#
	  8293	  8296	  8306	  8307#	  8312	  8331	  8332	  8332#	  8335	  8346	  8347	  8347#	  8350	  8361
	  8362	  8362#	  8365	  8376	  8377	  8377#	  8380	  8391	  8392	  8392#	  8395	  8406	  8407	  8407#
	  8410	  8421	  8422	  8422#	  8425	  8436	  8437	  8437#	  8440	  8451	  8452	  8452#	  8455	  8466
	  8467	  8467#	  8470	  8481	  8482	  8482#	  8485	  8496	  8497	  8497#	  8500	  8511	  8512	  8512#
	  8515	  8526	  8527	  8527#	  8530	  8541	  8542	  8542#	  8545	  8556	  8557	  8557#	  8560	  8571
	  8572	  8572#	  8576	  8586#	  8589	  8607	  8608	  8608#	  8610	  8622	  8623	  8623#	  8625	  8637
	  8638	  8638#	  8640	  8652	  8653	  8653#	  8655	  8667	  8668	  8668#	  8670	  8682	  8683	  8683#
	  8685	  8697	  8698	  8698#	  8700	  8712	  8713	  8713#	  8715	  8727	  8728	  8728#	  8730	  8742
	  8743	  8743#	  8745	  8757	  8758	  8758#	  8760	  8772	  8773	  8773#	  8775	  8787	  8788	  8788#
	  8790	  8802	  8803	  8803#	  8805	  8817	  8818	  8818#	  8820	  8832	  8833	  8833#	  8835	  8847
	  8848	  8848#	  8850	  8862	  8863#	  8865	  8883	  8884	  8884#	  8886	  8898	  8899	  8899#	  8901
	  8913	  8914	  8914#	  8916	  8928	  8929	  8929#	  8931	  8943	  8944	  8944#	  8946	  8958	  8959
	  8959#	  8961	  8973	  8974	  8974#	  8976	  8988	  8989	  8989#	  8991	  9006#	  9019	  9021	  9021#
	  9022	  9022#	  9027	  9036	  9038	  9038#	  9039	  9044	  9053	  9055	  9055#	  9056	  9061	  9070
	  9072	  9072#	  9073	  9078	  9087	  9089	  9089#	  9090	  9095	  9104	  9106	  9106#	  9107	  9112
	  9121	  9123	  9123#	  9124	  9129	  9138	  9140	  9140#	  9141	  9146	  9155	  9157	  9157#	  9158
	  9163	  9172	  9174	  9174#	  9175	  9180	  9189	  9191	  9191#	  9192	  9197	  9206	  9208	  9208#
	  9209	  9214	  9223	  9225	  9225#	  9226	  9231	  9240	  9242	  9242#	  9243	  9248	  9257	  9259
	  9259#	  9260	  9265	  9274	  9276	  9276#	  9277	  9282	  9291	  9293	  9293#	  9294	  9299	  9308
	  9310	  9310#	  9311	  9316	  9325	  9326#	  9331	  9347	  9348	  9348#	  9353	  9362	  9363	  9363#
	  9368	  9377	  9378	  9378#	  9383	  9392	  9393	  9393#	  9398	  9407	  9408	  9408#	  9413	  9422	  9423	  9423#	  9428	  9437	  9438	  9438#	  9443	  9452	  9453	  9453#	  9458	  9467	  9468	  9468#
	  9473	  9482	  9483	  9483#	  9488	  9497	  9498	  9498#	  9503	  9512	  9513	  9513#	  9518	  9527     SEQ 0297
	  9528	  9528#	  9533	  9542	  9543	  9543#	  9548	  9557	  9558	  9558#	  9563	  9572	  9573	  9573#
	  9578	  9587	  9587#	  9588	  9593	  9601	  9602#	  9606	  9623	  9624	  9624#	  9628	  9638	  9639
	  9639#	  9643	  9653	  9654	  9654#	  9658	  9668	  9669	  9669#	  9673	  9683	  9684	  9684#	  9688
	  9698	  9699	  9699#	  9703	  9713	  9714	  9714#	  9718	  9728	  9729	  9729#	  9733	  9743	  9744
	  9744#	  9748	  9758	  9759	  9759#	  9763	  9773	  9774	  9774#	  9778	  9788	  9789	  9789#	  9793
	  9803	  9804	  9804#	  9808	  9818	  9819	  9819#	  9823	  9833	  9834	  9834#	  9838	  9848	  9849
	  9849#	  9853	  9863	  9864	  9864#	  9868	  9878	  9879#	  9883	  9900	  9901	  9901#	  9905	  9915
	  9916	  9916#	  9920	  9930	  9931	  9931#	  9935	  9945	  9946	  9946#	  9950	  9960	  9961	  9961#
	  9965	  9975	  9976	  9976#	  9980	  9990	  9991	  9991#	  9995	 10005	 10006	 10006#	 10010	 10022#
	 10035	 10037	 10037#	 10038	 10038#	 10041	 10052	 10054	 10054#	 10055	 10058	 10069	 10071	 10071#
	 10072	 10075	 10086	 10088	 10088#	 10089	 10092	 10103	 10105	 10105#	 10106	 10109	 10120	 10122
	 10122#	 10123	 10126	 10137	 10139	 10139#	 10140	 10143	 10154	 10156	 10156#	 10157	 10160	 10171
	 10173	 10173#	 10174	 10177	 10188	 10190	 10190#	 10191	 10194	 10205	 10207	 10207#	 10208	 10211
	 10222	 10224	 10224#	 10225	 10228	 10239	 10241	 10241#	 10242	 10245	 10256	 10258	 10258#	 10259
	 10262	 10273	 10275	 10275#	 10276	 10279	 10290	 10292	 10292#	 10293	 10296	 10307	 10309	 10309#
	 10310	 10313	 10324	 10326	 10326#	 10327	 10330	 10341	 10342#	 10345	 10363	 10364	 10364#	 10367
	 10378	 10379	 10379#	 10382	 10393	 10394	 10394#	 10397	 10408	 10409	 10409#	 10412	 10423	 10424
	 10424#	 10427	 10438	 10439	 10439#	 10442	 10453	 10454	 10454#	 10457	 10468	 10469	 10469#	 10472
	 10483	 10484	 10484#	 10487	 10498	 10499	 10499#	 10502	 10513	 10514	 10514#	 10517	 10528	 10529
	 10529#	 10532	 10543	 10544	 10544#	 10547	 10558	 10559	 10559#	 10562	 10573	 10574	 10574#	 10577
	 10588	 10589	 10589#	 10592	 10603	 10603#	 10604	 10607	 10617	 10618#	 10620	 10639	 10640	 10640#
	 10642	 10654	 10655	 10655#	 10657	 10669	 10670	 10670#	 10672	 10684	 10685	 10685#	 10687	 10699
	 10700	 10700#	 10702	 10714	 10715	 10715#	 10717	 10729	 10730	 10730#	 10732	 10744	 10745	 10745#
	 10747	 10759	 10760	 10760#	 10762	 10774	 10775	 10775#	 10777	 10789	 10790	 10790#	 10792	 10804
	 10805	 10805#	 10807	 10819	 10820	 10820#	 10822	 10834	 10835	 10835#	 10837	 10849	 10850	 10850#
	 10852	 10864	 10865	 10865#	 10867	 10879	 10880	 10880#	 10882	 10894	 10895#	 10897	 10916	 10917
	 10917#	 10919	 10931	 10932	 10932#	 10934	 10946	 10947	 10947#	 10949	 10961	 10962	 10962#	 10964
	 10976	 10977	 10977#	 10979	 10991	 10992	 10992#	 10994	 11006	 11007	 11007#	 11009	 11021	 11022
	 11022#	 11024	 11038#	 11051	 11051#	 11052	 11052#	 11056	 11058	 11067	 11067#	 11068	 11072	 11074
	 11083	 11083#	 11084	 11088	 11090	 11099	 11099#	 11100	 11104	 11106	 11115	 11115#	 11116	 11120
	 11122	 11131	 11131#	 11132	 11136	 11138	 11147	 11147#	 11148	 11152	 11154	 11163	 11163#	 11164
	 11168	 11170	 11179	 11179#	 11180	 11184	 11186	 11195	 11195#	 11196	 11200	 11202	 11211	 11211#
	 11212	 11216	 11218	 11227	 11227#	 11228	 11232	 11234	 11243	 11243#	 11244	 11248	 11250	 11259
	 11259#	 11260	 11264	 11266	 11275	 11275#	 11276	 11280	 11282	 11291	 11291#	 11292	 11296	 11298
	 11307	 11307#	 11308	 11312	 11314	 11323	 11323#	 11324	 11328	 11330	 11338#	 11350	 11350#	 11351
	 11351#	 11355	 11357	 11366	 11366#	 11367	 11371	 11373	 11382	 11382#	 11383	 11387	 11389	 11398
	 11398#	 11399	 11403	 11405	 11414	 11414#	 11415	 11419	 11421	 11430	 11430#	 11431	 11435	 11437
	 11446	 11446#	 11447	 11451	 11453	 11462	 11462#	 11463	 11467	 11469	 11478	 11478#	 11479	 11483
	 11485	 11494	 11494#	 11495	 11499	 11501	 11510	 11510#	 11511	 11515	 11517	 11526	 11526#	 11527
	 11531	 11533	 11542	 11542#	 11543	 11547	 11549	 11558	 11558#	 11559	 11563	 11565	 11574	 11574#
	 11575	 11579	 11581	 11590	 11590#	 11591	 11595	 11597	 11606	 11606#	 11607	 11611	 11613	 11621
	 11621#	 11624	 11626	 11633#	 11645	 11645#	 11646	 11646#	 11649	 11651	 11661	 11661#	 11662	 11665
	 11667	 11677	 11677#	 11678	 11681	 11683	 11693	 11693#	 11694	 11697	 11699	 11709	 11709#	 11710
	 11713	 11715	 11725	 11725#	 11726	 11729	 11731	 11741	 11741#	 11742	 11745	 11747	 11757	 11757#
	 11758	 11761	 11763	 11773	 11773#	 11774	 11777	 11779	 11789	 11789#	 11790	 11793	 11795	 11805
	 11805#	 11806	 11809	 11811	 11821	 11821#	 11822	 11825	 11827	 11837	 11837#	 11838	 11841	 11843
	 11853	 11853#	 11854	 11857	 11859	 11869	 11869#	 11870	 11873	 11875	 11885	 11885#	 11886	 11889
	 11891	 11901	 11901#	 11902	 11905	 11907	 11917	 11917#	 11918	 11921	 11923	 11932#	 11944	 11944#
	 11945	 11945#	 11948	 11950	 11960	 11960#	 11961	 11964	 11966	 11976	 11976#	 11977	 11980	 11982
	 11992	 11992#	 11993	 11996	 11998	 12008	 12008#	 12009	 12012	 12014	 12024	 12024#	 12025	 12028
	 12030	 12040	 12040#	 12041	 12044	 12046	 12056	 12056#	 12057	 12060	 12062	 12072	 12072#	 12073	 12076	 12078	 12091#	 12102	 12102#	 12103	 12103#	 12106	 12108	 12111	 12117	 12117#	 12118	 12121
	 12123	 12126	 12132	 12132#	 12133	 12136	 12138	 12141	 12147	 12147#	 12148	 12151	 12153	 12156     SEQ 0298
	 12162	 12162#	 12163	 12166	 12168	 12171	 12177	 12177#	 12178	 12181	 12183	 12186	 12192	 12192#
	 12193	 12196	 12198	 12201	 12207	 12207#	 12208	 12211	 12213	 12216	 12222	 12222#	 12223	 12226
	 12228	 12231	 12237	 12237#	 12238	 12241	 12243	 12246	 12252	 12252#	 12253	 12256	 12258	 12261
	 12267	 12267#	 12268	 12271	 12273	 12276	 12282	 12282#	 12283	 12286	 12288	 12291	 12297	 12297#
	 12298	 12301	 12303	 12306	 12312	 12312#	 12313	 12316	 12318	 12321	 12327	 12327#	 12328	 12331
	 12333	 12336	 12342	 12342#	 12343	 12346	 12348	 12351	 12357	 12357#	 12358	 12361	 12363	 12366
	 12371#	 12382	 12382#	 12383	 12383#	 12386	 12388	 12391	 12397	 12397#	 12398	 12401	 12403	 12406
	 12412	 12412#	 12413	 12416	 12418	 12421	 12427	 12427#	 12428	 12431	 12433	 12436	 12442	 12442#
	 12443	 12446	 12448	 12451	 12457	 12457#	 12458	 12461	 12463	 12466	 12472	 12472#	 12473	 12476
	 12478	 12481	 12487	 12487#	 12488	 12491	 12493	 12496	 12502	 12502#	 12503	 12506	 12508	 12511
	 12517	 12517#	 12518	 12521	 12523	 12526	 12532	 12532#	 12533	 12536	 12538	 12541	 12547	 12547#
	 12548	 12551	 12553	 12556	 12562	 12562#	 12563	 12566	 12568	 12571	 12577	 12577#	 12578	 12581
	 12583	 12586	 12592	 12592#	 12593	 12596	 12598	 12601	 12607	 12607#	 12608	 12611	 12613	 12616
	 12622	 12622#	 12623	 12626	 12628	 12631	 12637	 12637#	 12638	 12641	 12643	 12646	 12651#	 12662
	 12662#	 12663	 12663#	 12665	 12667	 12669	 12677	 12677#	 12678	 12680	 12682	 12684	 12692	 12692#
	 12693	 12695	 12697	 12699	 12707	 12707#	 12708	 12710	 12712	 12714	 12722	 12722#	 12723	 12725
	 12727	 12729	 12737	 12737#	 12738	 12740	 12742	 12744	 12752	 12752#	 12753	 12755	 12757	 12759
	 12767	 12767#	 12768	 12770	 12772	 12774	 12782	 12782#	 12783	 12785	 12787	 12789	 12797	 12797#
	 12798	 12800	 12802	 12804	 12812	 12812#	 12813	 12815	 12817	 12819	 12827	 12827#	 12828	 12830
	 12832	 12834	 12842	 12842#	 12843	 12845	 12847	 12849	 12857	 12857#	 12858	 12860	 12862	 12864
	 12872	 12872#	 12873	 12875	 12877	 12879	 12887	 12887#	 12888	 12890	 12892	 12894	 12902	 12902#
	 12903	 12905	 12907	 12909	 12917	 12917#	 12918	 12920	 12922	 12924	 12942	 12942#	 12943	 12945
	 12947	 12949	 12957	 12957#	 12958	 12960	 12962	 12964	 12972	 12972#	 12973	 12975	 12977	 12979
	 12987	 12987#	 12988	 12990	 12992	 12994	 13002	 13002#	 13003	 13005	 13007	 13009	 13017	 13017#
	 13018	 13020	 13022	 13024	 13032	 13032#	 13033	 13035	 13037	 13039	 13047	 13047#	 13048	 13050
	 13052	 13054	 13062	 13062#	 13064	 13066	 13068
ZZ	   773#	   785	   785#	   791	   800	   800#	   806	   815	   815#	   821	   830	   830#	   836	   845
	   845#	   851	   860	   860#	   866	   875	   875#	   881	   890	   890#	   896	   905	   905#	   911
	   930	   930#	   936	   945	   945#	   951	   960	   960#	   966	   975	   975#	   981	   990	   990#
	   996	  1005	  1005#	  1011	  1020	  1020#	  1026	  1035	  1035#	  1041	  1050	  1050#	  1056	  1065
	  1065#	  1071	  1080	  1080#	  1086	  1095	  1095#	  1101	  1110	  1110#	  1116	  1125	  1125#	  1131
	  1140	  1140#	  1146	  1155	  1155#	  1161	  1170	  1170#	  1176	  1185	  1185#	  1191	  1222	  1222#
	  1228	  1237	  1237#	  1243	  1252	  1252#	  1258	  1267	  1267#	  1273	  1282	  1282#	  1288	  1297
	  1297#	  1303	  1312	  1312#	  1318	  1327	  1327#	  1333	  1342	  1342#	  1348	  1357	  1357#	  1363
	  1372	  1372#	  1378	  1387	  1387#	  1393	  1402	  1402#	  1408	  1417	  1417#	  1423	  1432	  1432#
	  1438	  1447	  1447#	  1453	  1462	  1462#	  1468	  1487	  1487#	  1493	  1502	  1502#	  1508	  1517
	  1517#	  1523	  1532	  1532#	  1538	  1547	  1547#	  1553	  1562	  1562#	  1568	  1577	  1577#	  1583
	  1592	  1592#	  1598	  1607	  1607#	  1613	  1622	  1622#	  1628	  1637	  1637#	  1643	  1652	  1652#
	  1658	  1667	  1667#	  1673	  1682	  1682#	  1688	  1697	  1697#	  1703	  1712	  1712#	  1718	  1727
	  1727#	  1733	  1742	  1742#	  1748	  1757#	  1769	  1769#	  1775	  1784	  1784#	  1790	  1799	  1799#
	  1805	  1814	  1814#	  1820	  1829	  1829#	  1835	  1844	  1844#	  1850	  1859	  1859#	  1865	  1874
	  1874#	  1880	  1889	  1889#	  1895	  1914	  1914#	  1920	  1929	  1929#	  1935	  1944	  1944#	  1950
	  1959	  1959#	  1965	  1974	  1974#	  1980	  1989	  1989#	  1995	  2004	  2004#	  2010	  2019	  2019#
	  2025	  2034	  2034#	  2040	  2049	  2049#	  2055	  2064	  2064#	  2070	  2079	  2079#	  2085	  2094
	  2094#	  2100	  2109	  2109#	  2115	  2124	  2124#	  2130	  2139	  2139#	  2145	  2154	  2154#	  2160
	  2169	  2169#	  2175	  2207	  2207#	  2213	  2223	  2223#	  2229	  2239	  2239#	  2245	  2255	  2255#
	  2261	  2271	  2271#	  2277	  2287	  2287#	  2293	  2303	  2303#	  2309	  2319	  2319#	  2325	  2335
	  2335#	  2341	  2351	  2351#	  2357	  2367	  2367#	  2373	  2383	  2383#	  2389	  2399	  2399#	  2405
	  2415	  2415#	  2421	  2431	  2431#	  2437	  2447	  2447#	  2453	  2463	  2463#	  2469	  2489	  2489#
	  2495	  2504	  2504#	  2510	  2519	  2519#	  2525	  2534	  2534#	  2540	  2549	  2549#	  2555	  2564
	  2564#	  2570	  2579	  2579#	  2585	  2594	  2594#	  2600	  2609	  2609#	  2615	  2624	  2624#	  2630	  2639	  2639#	  2645	  2654	  2654#	  2660	  2669	  2669#	  2675	  2684	  2684#	  2690	  2699	  2699#
	  2705	  2714	  2714#	  2720	  2729	  2729#	  2735	  2744	  2744#	  2750	  2786#	  2797	  2797#	  2798     SEQ 0299
	  2798#	  2803	  2806	  2812	  2812#	  2813	  2818	  2821	  2827	  2827#	  2828	  2833	  2836	  2842
	  2842#	  2843	  2848	  2851	  2857	  2857#	  2858	  2863	  2866	  2872	  2872#	  2873	  2878	  2881
	  2887	  2887#	  2888	  2893	  2896	  2902	  2902#	  2903	  2908	  2911	  2917	  2917#	  2918	  2923
	  2926	  2932	  2932#	  2933	  2938	  2941	  2947	  2947#	  2948	  2953	  2956	  2962	  2962#	  2963
	  2968	  2971	  2977	  2977#	  2978	  2983	  2986	  2992	  2992#	  2993	  2998	  3001	  3007	  3007#
	  3008	  3013	  3016	  3022	  3022#	  3023	  3028	  3031	  3037	  3037#	  3038	  3043	  3046	  3052
	  3052#	  3053	  3058	  3061	  3066#	  3077	  3077#	  3078	  3078#	  3083	  3086	  3092	  3092#	  3093
	  3098	  3101	  3107	  3107#	  3108	  3113	  3116	  3122	  3122#	  3123	  3128	  3131	  3137	  3137#
	  3138	  3143	  3146	  3152	  3152#	  3153	  3158	  3161	  3167	  3167#	  3168	  3173	  3176	  3182
	  3182#	  3183	  3188	  3191	  3197	  3197#	  3198	  3203	  3206	  3212	  3212#	  3213	  3218	  3221
	  3227	  3227#	  3228	  3233	  3236	  3242	  3242#	  3243	  3248	  3251	  3257	  3257#	  3258	  3263
	  3266	  3272	  3272#	  3273	  3278	  3281	  3287	  3287#	  3288	  3293	  3296	  3302	  3302#	  3303
	  3308	  3311	  3317	  3317#	  3318	  3323	  3326	  3332	  3332#	  3333	  3338	  3341	  3346#	  3357
	  3357#	  3358	  3358#	  3362	  3364	  3372	  3372#	  3373	  3377	  3379	  3387	  3387#	  3388	  3392
	  3394	  3402	  3402#	  3403	  3407	  3409	  3417	  3417#	  3418	  3422	  3424	  3432	  3432#	  3433
	  3437	  3439	  3447	  3447#	  3448	  3452	  3454	  3462	  3462#	  3463	  3467	  3469	  3477	  3477#
	  3478	  3482	  3484	  3492	  3492#	  3493	  3497	  3499	  3507	  3507#	  3508	  3512	  3514	  3522
	  3522#	  3523	  3527	  3529	  3537	  3537#	  3538	  3542	  3544	  3552	  3552#	  3553	  3557	  3559
	  3567	  3567#	  3568	  3572	  3574	  3582	  3582#	  3583	  3587	  3589	  3597	  3597#	  3598	  3602
	  3604	  3612	  3612#	  3613	  3617	  3619	  3626#	  3638	  3638#	  3639	  3639#	  3643	  3645	  3653
	  3653#	  3654	  3658	  3660	  3668	  3668#	  3669	  3673	  3675	  3683	  3683#	  3684	  3688	  3690
	  3698	  3698#	  3699	  3703	  3705	  3713	  3713#	  3714	  3718	  3720	  3728	  3728#	  3729	  3733
	  3735	  3743	  3743#	  3744	  3748	  3750	  3771#	  3782	  3782#	  3783	  3783#	  3786	  3791	  3797
	  3797#	  3798	  3801	  3806	  3812	  3812#	  3813	  3816	  3821	  3827	  3827#	  3828	  3831	  3836
	  3842	  3842#	  3843	  3846	  3851	  3857	  3857#	  3858	  3861	  3866	  3872	  3872#	  3873	  3876
	  3881	  3887	  3887#	  3888	  3891	  3896	  3902	  3902#	  3903	  3906	  3911	  3917	  3917#	  3918
	  3921	  3926	  3932	  3932#	  3933	  3936	  3941	  3947	  3947#	  3948	  3951	  3956	  3962	  3962#
	  3963	  3966	  3971	  3977	  3977#	  3978	  3981	  3986	  3992	  3992#	  3993	  3996	  4001	  4007
	  4007#	  4008	  4011	  4016	  4022	  4022#	  4023	  4026	  4031	  4037	  4037#	  4038	  4041	  4046
	  4051#	  4062	  4062#	  4063	  4063#	  4066	  4071	  4077	  4077#	  4078	  4081	  4086	  4092	  4092#
	  4093	  4096	  4101	  4107	  4107#	  4108	  4111	  4116	  4122	  4122#	  4123	  4126	  4131	  4137
	  4137#	  4138	  4141	  4146	  4152	  4152#	  4153	  4156	  4161	  4167	  4167#	  4168	  4171	  4176
	  4182	  4182#	  4183	  4186	  4191	  4197	  4197#	  4198	  4201	  4206	  4212	  4212#	  4213	  4216
	  4221	  4227	  4227#	  4228	  4231	  4236	  4242	  4242#	  4243	  4246	  4251	  4257	  4257#	  4258
	  4261	  4266	  4272	  4272#	  4273	  4276	  4281	  4287	  4287#	  4288	  4291	  4296	  4302	  4302#
	  4303	  4306	  4311	  4317	  4317#	  4318	  4321	  4326	  4331#	  4342	  4342#	  4343	  4343#	  4345
	  4349	  4357	  4357#	  4358	  4360	  4364	  4372	  4372#	  4373	  4375	  4379	  4387	  4387#	  4388
	  4390	  4394	  4402	  4402#	  4403	  4405	  4409	  4417	  4417#	  4418	  4420	  4424	  4432	  4432#
	  4433	  4435	  4439	  4447	  4447#	  4448	  4450	  4454	  4462	  4462#	  4463	  4465	  4469	  4477
	  4477#	  4478	  4480	  4484	  4492	  4492#	  4493	  4495	  4499	  4507	  4507#	  4508	  4510	  4514
	  4522	  4522#	  4523	  4525	  4529	  4537	  4537#	  4538	  4540	  4544	  4552	  4552#	  4553	  4555
	  4559	  4567	  4567#	  4568	  4570	  4574	  4582	  4582#	  4583	  4585	  4589	  4597	  4597#	  4598
	  4600	  4604	  4611#	  4622	  4622#	  4623	  4623#	  4625	  4629	  4637	  4637#	  4638	  4640	  4644
	  4652	  4652#	  4653	  4655	  4659	  4667	  4667#	  4668	  4670	  4674	  4682	  4682#	  4683	  4685
	  4689	  4697	  4697#	  4698	  4700	  4704	  4712	  4712#	  4713	  4715	  4719	  4727	  4727#	  4728
	  4730	  4734	  4756#	  4771	  4771#	  4772	  4772#	  4777	  4788	  4788#	  4789	  4794	  4805	  4805#
	  4806	  4811	  4822	  4822#	  4823	  4828	  4839	  4839#	  4840	  4845	  4856	  4856#	  4857	  4862
	  4873	  4873#	  4874	  4879	  4890	  4890#	  4891	  4896	  4907	  4907#	  4908	  4913	  4924	  4924#
	  4925	  4930	  4941	  4941#	  4942	  4947	  4958	  4958#	  4959	  4964	  4975	  4975#	  4976	  4981
	  4992	  4992#	  4993	  4998	  5009	  5009#	  5010	  5015	  5026	  5026#	  5027	  5032	  5043	  5043#
	  5044	  5049	  5060	  5060#	  5061	  5066	  5075#	  5090	  5090#	  5091	  5091#	  5096	  5107	  5107#	  5108	  5113	  5124	  5124#	  5125	  5130	  5141	  5141#	  5142	  5147	  5158	  5158#	  5159	  5164
	  5175	  5175#	  5176	  5181	  5192	  5192#	  5193	  5198	  5209	  5209#	  5210	  5215	  5226	  5226#    SEQ 0300
	  5227	  5232	  5243	  5243#	  5244	  5249	  5260	  5260#	  5261	  5266	  5277	  5277#	  5278	  5283
	  5294	  5294#	  5295	  5300	  5311	  5311#	  5312	  5317	  5328	  5328#	  5329	  5334	  5345	  5345#
	  5346	  5351	  5362	  5362#	  5363	  5368	  5379	  5379#	  5380	  5385	  5394#	  5409	  5409#	  5410
	  5410#	  5414	  5426	  5426#	  5427	  5431	  5443	  5443#	  5444	  5448	  5460	  5460#	  5461	  5465
	  5477	  5477#	  5478	  5482	  5494	  5494#	  5495	  5499	  5511	  5511#	  5512	  5516	  5528	  5528#
	  5529	  5533	  5545	  5545#	  5546	  5550	  5562	  5562#	  5563	  5567	  5579	  5579#	  5580	  5584
	  5596	  5596#	  5597	  5601	  5613	  5613#	  5614	  5618	  5630	  5630#	  5631	  5635	  5647	  5647#
	  5648	  5652	  5664	  5664#	  5665	  5669	  5681	  5681#	  5682	  5686	  5698	  5698#	  5699	  5703
	  5713#	  5728	  5728#	  5729	  5729#	  5733	  5745	  5745#	  5746	  5750	  5762	  5762#	  5763	  5767
	  5779	  5779#	  5780	  5784	  5796	  5796#	  5797	  5801	  5813	  5813#	  5814	  5818	  5830	  5830#
	  5831	  5835	  5847	  5847#	  5848	  5852	  5864	  5864#	  5865	  5869	  5881#	  5896	  5896#	  5897
	  5897#	  5902	  5913	  5913#	  5914	  5919	  5930	  5930#	  5931	  5936	  5947	  5947#	  5948	  5953
	  5964	  5964#	  5965	  5970	  5981	  5981#	  5982	  5987	  5998	  5998#	  5999	  6004	  6015	  6015#
	  6016	  6021	  6032	  6032#	  6033	  6038	  6049	  6049#	  6050	  6055	  6066	  6066#	  6067	  6072
	  6083	  6083#	  6084	  6089	  6100	  6100#	  6101	  6106	  6117	  6117#	  6118	  6123	  6134	  6134#
	  6135	  6140	  6151	  6151#	  6152	  6157	  6168	  6168#	  6169	  6174	  6185	  6185#	  6186	  6191
	  6200#	  6215	  6215#	  6216	  6216#	  6221	  6232	  6232#	  6233	  6238	  6249	  6249#	  6250	  6255
	  6266	  6266#	  6267	  6272	  6283	  6283#	  6284	  6289	  6300	  6300#	  6301	  6306	  6317	  6317#
	  6318	  6323	  6334	  6334#	  6335	  6340	  6351	  6351#	  6352	  6357	  6368	  6368#	  6369	  6374
	  6385	  6385#	  6386	  6391	  6402	  6402#	  6403	  6408	  6419	  6419#	  6420	  6425	  6436	  6436#
	  6437	  6442	  6453	  6453#	  6454	  6459	  6470	  6470#	  6471	  6476	  6487	  6487#	  6488	  6493
	  6504	  6504#	  6505	  6510	  6519#	  6534	  6534#	  6535	  6535#	  6539	  6551	  6551#	  6552	  6556
	  6568	  6568#	  6569	  6573	  6585	  6585#	  6586	  6590	  6602	  6602#	  6603	  6607	  6619	  6619#
	  6620	  6624	  6636	  6636#	  6637	  6641	  6653	  6653#	  6654	  6658	  6670	  6670#	  6671	  6675
	  6687	  6687#	  6688	  6692	  6704	  6704#	  6705	  6709	  6721	  6721#	  6722	  6726	  6738	  6738#
	  6739	  6743	  6755	  6755#	  6756	  6760	  6772	  6772#	  6773	  6777	  6789	  6789#	  6790	  6794
	  6806	  6806#	  6807	  6811	  6823	  6823#	  6824	  6828	  6838#	  6853	  6853#	  6854	  6854#	  6858
	  6870	  6870#	  6871	  6875	  6887	  6887#	  6888	  6892	  6904	  6904#	  6905	  6909	  6921	  6921#
	  6922	  6926	  6938	  6938#	  6939	  6943	  6955	  6955#	  6956	  6960	  6972	  6972#	  6973	  6977
	  6989	  6989#	  6990	  6994	  7018#	  7028	  7034#	  7044	  7050#	  7060	  7066#	  7076	  7082#	  7092
	  7098#	  7108	  7114#	  7124	  7130#	  7140	  7146#	  7156	  7162#	  7172	  7178#	  7188	  7194#	  7204
	  7210#	  7220	  7226#	  7236	  7242#	  7252	  7258#	  7268	  7274#	  7284	  7290#	  7300	  7305#	  7316
	  7330#	  7339	  7345#	  7354	  7360#	  7369	  7375#	  7384	  7390#	  7399	  7405#	  7414	  7420#	  7429
	  7435#	  7444	  7450#	  7459	  7465#	  7474	  7480#	  7489	  7495#	  7504	  7510#	  7519	  7525#	  7534
	  7540#	  7549	  7555#	  7564	  7569#	  7593	  7607#	  7614	  7622#	  7629	  7637#	  7644	  7652#	  7659
	  7667#	  7674	  7682#	  7689	  7697#	  7704	  7712#	  7719	  7727#	  7734	  7742#	  7749	  7757#	  7764
	  7772#	  7779	  7787#	  7794	  7802#	  7809	  7817#	  7824	  7832#	  7839	  7847#	  7854	  7863#	  7870
	  7885#	  7892	  7900#	  7907	  7915#	  7922	  7930#	  7937	  7945#	  7952	  7960#	  7967	  7975#	  7982
	  7990#	  7997	  8019#	  8029	  8035#	  8045	  8051#	  8061	  8067#	  8077	  8083#	  8093	  8099#	  8109
	  8115#	  8125	  8131#	  8141	  8147#	  8157	  8163#	  8173	  8179#	  8189	  8195#	  8205	  8211#	  8221
	  8227#	  8237	  8243#	  8253	  8259#	  8269	  8275#	  8285	  8291#	  8301	  8306#	  8317	  8331#	  8340
	  8346#	  8355	  8361#	  8370	  8376#	  8385	  8391#	  8400	  8406#	  8415	  8421#	  8430	  8436#	  8445
	  8451#	  8460	  8466#	  8475	  8481#	  8490	  8496#	  8505	  8511#	  8520	  8526#	  8535	  8541#	  8550
	  8556#	  8565	  8571#	  8595	  8607#	  8614	  8622#	  8629	  8637#	  8644	  8652#	  8659	  8667#	  8674
	  8682#	  8689	  8697#	  8704	  8712#	  8719	  8727#	  8734	  8742#	  8749	  8757#	  8764	  8772#	  8779
	  8787#	  8794	  8802#	  8809	  8817#	  8824	  8832#	  8839	  8847#	  8854	  8862#	  8869	  8883#	  8890
	  8898#	  8905	  8913#	  8920	  8928#	  8935	  8943#	  8950	  8958#	  8965	  8973#	  8980	  8988#	  8995
	  9019#	  9020	  9020#	  9030	  9036#	  9037	  9047	  9053#	  9054	  9064	  9070#	  9071	  9081	  9087#
	  9088	  9098	  9104#	  9105	  9115	  9121#	  9122	  9132	  9138#	  9139	  9149	  9155#	  9156	  9166
	  9172#	  9173	  9183	  9189#	  9190	  9200	  9206#	  9207	  9217	  9223#	  9224	  9234	  9240#	  9241
	  9251	  9257#	  9258	  9268	  9274#	  9275	  9285	  9291#	  9292	  9302	  9308#	  9309	  9319	  9325#	  9334	  9347#	  9356	  9362#	  9371	  9377#	  9386	  9392#	  9401	  9407#	  9416	  9422#	  9431	  9437#
	  9446	  9452#	  9461	  9467#	  9476	  9482#	  9491	  9497#	  9506	  9512#	  9521	  9527#	  9536	  9542#    SEQ 0301
	  9551	  9557#	  9566	  9572#	  9581	  9588#	  9596	  9601#	  9610	  9623#	  9630	  9638#	  9645	  9653#
	  9660	  9668#	  9675	  9683#	  9690	  9698#	  9705	  9713#	  9720	  9728#	  9735	  9743#	  9750	  9758#
	  9765	  9773#	  9780	  9788#	  9795	  9803#	  9810	  9818#	  9825	  9833#	  9840	  9848#	  9855	  9863#
	  9870	  9878#	  9885	  9900#	  9907	  9915#	  9922	  9930#	  9937	  9945#	  9952	  9960#	  9967	  9975#
	  9982	  9990#	  9997	 10005#	 10012	 10035#	 10036	 10036#	 10046	 10052#	 10053	 10063	 10069#	 10070
	 10080	 10086#	 10087	 10097	 10103#	 10104	 10114	 10120#	 10121	 10131	 10137#	 10138	 10148	 10154#
	 10155	 10165	 10171#	 10172	 10182	 10188#	 10189	 10199	 10205#	 10206	 10216	 10222#	 10223	 10233
	 10239#	 10240	 10250	 10256#	 10257	 10267	 10273#	 10274	 10284	 10290#	 10291	 10301	 10307#	 10308
	 10318	 10324#	 10325	 10335	 10341#	 10350	 10363#	 10372	 10378#	 10387	 10393#	 10402	 10408#	 10417
	 10423#	 10432	 10438#	 10447	 10453#	 10462	 10468#	 10477	 10483#	 10492	 10498#	 10507	 10513#	 10522
	 10528#	 10537	 10543#	 10552	 10558#	 10567	 10573#	 10582	 10588#	 10597	 10604#	 10612	 10617#	 10626
	 10639#	 10646	 10654#	 10661	 10669#	 10676	 10684#	 10691	 10699#	 10706	 10714#	 10721	 10729#	 10736
	 10744#	 10751	 10759#	 10766	 10774#	 10781	 10789#	 10796	 10804#	 10811	 10819#	 10826	 10834#	 10841
	 10849#	 10856	 10864#	 10871	 10879#	 10886	 10894#	 10901	 10916#	 10923	 10931#	 10938	 10946#	 10953
	 10961#	 10968	 10976#	 10983	 10991#	 10998	 11006#	 11013	 11021#	 11028	 11039#	 11053	 11053#	 11059
	 11069	 11069#	 11075	 11085	 11085#	 11091	 11101	 11101#	 11107	 11117	 11117#	 11123	 11133	 11133#
	 11139	 11149	 11149#	 11155	 11165	 11165#	 11171	 11181	 11181#	 11187	 11197	 11197#	 11203	 11213
	 11213#	 11219	 11229	 11229#	 11235	 11245	 11245#	 11251	 11261	 11261#	 11267	 11277	 11277#	 11283
	 11293	 11293#	 11299	 11309	 11309#	 11315	 11325	 11325#	 11331	 11352	 11352#	 11358	 11368	 11368#
	 11374	 11384	 11384#	 11390	 11400	 11400#	 11406	 11416	 11416#	 11422	 11432	 11432#	 11438	 11448
	 11448#	 11454	 11464	 11464#	 11470	 11480	 11480#	 11486	 11496	 11496#	 11502	 11512	 11512#	 11518
	 11528	 11528#	 11534	 11544	 11544#	 11550	 11560	 11560#	 11566	 11576	 11576#	 11582	 11592	 11592#
	 11598	 11608	 11608#	 11614	 11647	 11647#	 11653	 11663	 11663#	 11669	 11679	 11679#	 11685	 11695
	 11695#	 11701	 11711	 11711#	 11717	 11727	 11727#	 11733	 11743	 11743#	 11749	 11759	 11759#	 11765
	 11775	 11775#	 11781	 11791	 11791#	 11797	 11807	 11807#	 11813	 11823	 11823#	 11829	 11839	 11839#
	 11845	 11855	 11855#	 11861	 11871	 11871#	 11877	 11887	 11887#	 11893	 11903	 11903#	 11909	 11919
	 11919#	 11925	 11946	 11946#	 11952	 11962	 11962#	 11968	 11978	 11978#	 11984	 11994	 11994#	 12000
	 12010	 12010#	 12016	 12026	 12026#	 12032	 12042	 12042#	 12048	 12058	 12058#	 12064	 12074	 12074#
	 12080	 12931#
$$MUUO	   681#
$$OUTE	   687#
$$TAX1	   699#
$$TAX2	   700#
$$TOGG	   693#
$$UUO	   670#
$ACC0	   508#
$ACF	 13200#
$BEND1	   478#
$BEND2	   479#	 13242
$CHRIN	   569#
$CRLF	   571#
$DEVCH	   395#
$DSKUP	   448#
$DVCH1	   395#
$DVOFF	   565#
$EMODE	   446#
$ENDFX	   715#	   716
$FFF	   573#
$IBUF	   621#
$INEXT	   623#
$INNM	   622#$ITRHL	   489#
$ITRX1	   490#                                                                                                            SEQ 0302
$LPAPE	 13263
$MMAP	   449#
$MODVL	   444#
$MODVU	   445#
$OBUF	   612#
$ONETM	   472#
$OUTEX	   614#
$OUTNM	   613#
$PAPER	   395
$PARER	   496#
$PNAME	   442#
$PSHER	   500#
$PVER	   443#
$RSRTX	   492#
$RSRTY	   493#
$SPAG1	   512#
$START	   409#
$SVAPR	   510#
$SVPAG	   511#
$SVPI	   509#
$SVUPC	   515#	 13103	 13107	 13137
$SVUUO	   514#	 13116	 13148	 13176
$TABF	   572#
$TTCHR	   568#
$TWCNT	   564#
$TYPNB	   570#
$UMODE	   447#
$UORTX	   487#
$USRHL	   491#
$UUOER	   488#	   529
$VTF	   574#
%AC1F	 13201#
%ACS1A	 13118#	 13118	 13162
%ACTFL	   521#
%ACTUL	   522#
%ALF	 13206#
%AR1F	 13205#
%ARF	 13204#
%COREC	   520#
%CORFL	   519#
%DISCR	   523#
%E1F	 13203#
%EEF	 13207#
%EF	 13202#
%ER4X	 13182	 13187#
%ER5X	 13180	 13189#
%ER6X	 13178	 13191#
%ER7X	 13184#	 13188	 13190	 13192
%ERAC0	 13092#	 13092	 13119	 13153	 13244
%ERAC1	 13100#	 13100	 13120	 13232
%ERAC2	 13101#	 13101	 13231%ERFST	 13126#	 13126	 13128
%ERHI1	   662#                                                                                                            SEQ 0303
%ERHI2	   663#
%ERHI3	   664#
%ERMOR	 13158	 13185	 13214#
%ERMS1	 13123#	 13257
%ERMS2	 13146#
%ERMS3	 13164	 13171#
%ERRS1	 13115	 13218#	 13256
%ERRS2	 13231#
%ERRS4	 13122	 13254#
%ERRS5	 13235	 13239	 13244#
%FF	 13208#
%FLTTB	 13166	 13197#
%NODES	 13198#
.JB41	   395#
.JBAPR	   395#
.JBCNI	   395#
.JBDDT	   395#
.JBFF	   395#
.JBOPC	   395#
.JBREL	   395#
.JBREN	   395#
.JBSA	   395#
.JBSYM	   395#
.JBTPC	   395#
.JBUSY	   395#
.JBUUO	   395#
.JBVER	   395#
CFLUSH	   351#
CINVAL	   350#                                                                                                            SEQ 0304
CLOKOP	   345#
CWRTBI	   352#
DFA	   103#	   759	  2759	  2772	 13075
DFAD	    29#	   762	   789	   804	   819	   834	   849	   864	   879	   894	   909	   934	   949	   964
	   979	   994	  1009	  1024	  1039	  1054	  1069	  1084	  1099	  1114	  1129	  1144	  1159	  1174
	  1189	  1204	  1226	  1241	  1256	  1271	  1286	  1301	  1316	  1331	  1346	  1361	  1376	  1391
	  1406	  1421	  1436	  1451	  1466	  1491	  1506	  1521	  1536	  1551	  1566	  1581	  1596	  1611
	  1626	  1641	  1656	  1671	  1686	  1701	  1716	  1731	  1746	  1773	  1788	  1803	  1818	  1833
	  1848	  1863	  1878	  1893	  1918	  1933	  1948	  1963	  1978	  1993	  2008	  2023	  2038	  2053
	  2068	  2083	  2098	  2113	  2128	  2143	  2158	  2173	  2188	  2211	  2227	  2243	  2259	  2275
	  2291	  2307	  2323	  2339	  2355	  2371	  2387	  2403	  2419	  2435	  2451	  2467	  2493	  2508
	  2523	  2538	  2553	  2568	  2583	  2598	  2613	  2628	  2643	  2658	  2673	  2688	  2703	  2718
	  2733	  2748	  2762	  2775	  2802	  2817	  2832	  2847	  2862	  2877	  2892	  2907	  2922	  2937
	  2952	  2967	  2982	  2997	  3012	  3027	  3042	  3057	  3082	  3097	  3112	  3127	  3142	  3157
	  3172	  3187	  3202	  3217	  3232	  3247	  3262	  3277	  3292	  3307	  3322	  3337	  3362	  3377
	  3392	  3407	  3422	  3437	  3452	  3467	  3482	  3497	  3512	  3527	  3542	  3557	  3572	  3587
	  3602	  3617	  3643	  3658	  3673	  3688	  3703	  3718	  3733	  3748	  3761	  3787	  3802	  3817
	  3832	  3847	  3862	  3877	  3892	  3907	  3922	  3937	  3952	  3967	  3982	  3997	  4012	  4027
	  4042	  4067	  4082	  4097	  4112	  4127	  4142	  4157	  4172	  4187	  4202	  4217	  4232	  4247
	  4262	  4277	  4292	  4307	  4322	  4347	  4362	  4377	  4392	  4407	  4422	  4437	  4452	  4467
	  4482	  4497	  4512	  4527	  4542	  4557	  4572	  4587	  4602	  4627	  4642	  4657	  4672	  4687
	  4702	  4717	  4732	  4745	  4776	  4793	  4810	  4827	  4844	  4861	  4878	  4895	  4912	  4929
	  4946	  4963	  4980	  4997	  5014	  5031	  5048	  5065	  5095	  5112	  5129	  5146	  5163	  5180
	  5197	  5214	  5231	  5248	  5265	  5282	  5299	  5316	  5333	  5350	  5367	  5384	  5414	  5431
	  5448	  5465	  5482	  5499	  5516	  5533	  5550	  5567	  5584	  5601	  5618	  5635	  5652	  5669
	  5686	  5703	  5733	  5750	  5767	  5784	  5801	  5818	  5835	  5852	  5869	  5901	  5918	  5935
	  5952	  5969	  5986	  6003	  6020	  6037	  6054	  6071	  6088	  6105	  6122	  6139	  6156	  6173
	  6190	  6220	  6237	  6254	  6271	  6288	  6305	  6322	  6339	  6356	  6373	  6390	  6407	  6424
	  6441	  6458	  6475	  6492	  6509	  6539	  6556	  6573	  6590	  6607	  6624	  6641	  6658	  6675
	  6692	  6709	  6726	  6743	  6760	  6777	  6794	  6811	  6828	  6858	  6875	  6892	  6909	  6926
	  6943	  6960	  6977	  6994	  7024	  7040	  7056	  7072	  7088	  7104	  7120	  7136	  7152	  7168
	  7184	  7200	  7216	  7232	  7248	  7264	  7280	  7296	  7312	  7335	  7350	  7365	  7380	  7395
	  7410	  7425	  7440	  7455	  7470	  7485	  7500	  7515	  7530	  7545	  7560	  7576	  7589	  7612
	  7627	  7642	  7657	  7672	  7687	  7702	  7717	  7732	  7747	  7762	  7777	  7792	  7807	  7822
	  7837	  7852	  7868	  7890	  7905	  7920	  7935	  7950	  7965	  7980	  7995	  8025	  8041	  8057
	  8073	  8089	  8105	  8121	  8137	  8153	  8169	  8185	  8201	  8217	  8233	  8249	  8265	  8281
	  8297	  8313	  8336	  8351	  8366	  8381	  8396	  8411	  8426	  8441	  8456	  8471	  8486	  8501
	  8516	  8531	  8546	  8561	  8577	  8591	  8612	  8627	  8642	  8657	  8672	  8687	  8702	  8717
	  8732	  8747	  8762	  8777	  8792	  8807	  8822	  8837	  8852	  8867	  8888	  8903	  8918	  8933
	  8948	  8963	  8978	  8993	  9026	  9043	  9060	  9077	  9094	  9111	  9128	  9145	  9162	  9179
	  9196	  9213	  9230	  9247	  9264	  9281	  9298	  9315	  9330	  9352	  9367	  9382	  9397	  9412
	  9427	  9442	  9457	  9472	  9487	  9502	  9517	  9532	  9547	  9562	  9577	  9592	  9606	  9628
	  9643	  9658	  9673	  9688	  9703	  9718	  9733	  9748	  9763	  9778	  9793	  9808	  9823	  9838
	  9853	  9868	  9883	  9905	  9920	  9935	  9950	  9965	  9980	  9995	 10010	 10042	 10059	 10076
	 10093	 10110	 10127	 10144	 10161	 10178	 10195	 10212	 10229	 10246	 10263	 10280	 10297	 10314
	 10331	 10346	 10368	 10383	 10398	 10413	 10428	 10443	 10458	 10473	 10488	 10503	 10518	 10533
	 10548	 10563	 10578	 10593	 10608	 10622	 10644	 10659	 10674	 10689	 10704	 10719	 10734	 10749
	 10764	 10779	 10794	 10809	 10824	 10839	 10854	 10869	 10884	 10899	 10921	 10936	 10951	 10966
	 10981	 10996	 11011	 11026	 11057	 11073	 11089	 11105	 11121	 11137	 11153	 11169	 11185	 11201
	 11217	 11233	 11249	 11265	 11281	 11297	 11313	 11329	 11356	 11372	 11388	 11404	 11420	 11436
	 11452	 11468	 11484	 11500	 11516	 11532	 11548	 11564	 11580	 11596	 11612	 11625	 11651	 11667	 11683	 11699	 11715	 11731	 11747	 11763	 11779	 11795	 11811	 11827	 11843	 11859	 11875	 11891
	 11907	 11923	 11950	 11966	 11982	 11998	 12014	 12030	 12046	 12062	 12078	 12107	 12122	 12137     SEQ 0305
	 12152	 12167	 12182	 12197	 12212	 12227	 12242	 12257	 12272	 12287	 12302	 12317	 12332	 12347
	 12362	 12387	 12402	 12417	 12432	 12447	 12462	 12477	 12492	 12507	 12522	 12537	 12552	 12567
	 12582	 12597	 12612	 12627	 12642	 12667	 12682	 12697	 12712	 12727	 12742	 12757	 12772	 12787
	 12802	 12817	 12832	 12847	 12862	 12877	 12892	 12907	 12922	 12947	 12962	 12977	 12992	 13007
	 13022	 13037	 13052	 13066	 13078
DFARP	   146#	   786	   801	   816	   831	   846	   861	   876	   891	   906	   931	   946	   961	   976
	   991	  1006	  1021	  1036	  1051	  1066	  1081	  1096	  1111	  1126	  1141	  1156	  1171	  1186
	  1201	  1223	  1238	  1253	  1268	  1283	  1298	  1313	  1328	  1343	  1358	  1373	  1388	  1403
	  1418	  1433	  1448	  1463	  1488	  1503	  1518	  1533	  1548	  1563	  1578	  1593	  1608	  1623
	  1638	  1653	  1668	  1683	  1698	  1713	  1728	  1743	  1770	  1785	  1800	  1815	  1830	  1845
	  1860	  1875	  1890	  1915	  1930	  1945	  1960	  1975	  1990	  2005	  2020	  2035	  2050	  2065
	  2080	  2095	  2110	  2125	  2140	  2155	  2170	  2185	  2208	  2224	  2240	  2256	  2272	  2288
	  2304	  2320	  2336	  2352	  2368	  2384	  2400	  2416	  2432	  2448	  2464	  2490	  2505	  2520
	  2535	  2550	  2565	  2580	  2595	  2610	  2625	  2640	  2655	  2670	  2685	  2700	  2715	  2730
	  2745	  2799	  2814	  2829	  2844	  2859	  2874	  2889	  2904	  2919	  2934	  2949	  2964	  2979
	  2994	  3009	  3024	  3039	  3054	  3079	  3094	  3109	  3124	  3139	  3154	  3169	  3184	  3199
	  3214	  3229	  3244	  3259	  3274	  3289	  3304	  3319	  3334	  3359	  3374	  3389	  3404	  3419
	  3434	  3449	  3464	  3479	  3494	  3509	  3524	  3539	  3554	  3569	  3584	  3599	  3614	  3640
	  3655	  3670	  3685	  3700	  3715	  3730	  3745	  3758	  3784	  3799	  3814	  3829	  3844	  3859
	  3874	  3889	  3904	  3919	  3934	  3949	  3964	  3979	  3994	  4009	  4024	  4039	  4064	  4079
	  4094	  4109	  4124	  4139	  4154	  4169	  4184	  4199	  4214	  4229	  4244	  4259	  4274	  4289
	  4304	  4319	  4344	  4359	  4374	  4389	  4404	  4419	  4434	  4449	  4464	  4479	  4494	  4509
	  4524	  4539	  4554	  4569	  4584	  4599	  4624	  4639	  4654	  4669	  4684	  4699	  4714	  4729
	  4742	  4773	  4790	  4807	  4824	  4841	  4858	  4875	  4892	  4909	  4926	  4943	  4960	  4977
	  4994	  5011	  5028	  5045	  5062	  5092	  5109	  5126	  5143	  5160	  5177	  5194	  5211	  5228
	  5245	  5262	  5279	  5296	  5313	  5330	  5347	  5364	  5381	  5411	  5428	  5445	  5462	  5479
	  5496	  5513	  5530	  5547	  5564	  5581	  5598	  5615	  5632	  5649	  5666	  5683	  5700	  5730
	  5747	  5764	  5781	  5798	  5815	  5832	  5849	  5866	  5898	  5915	  5932	  5949	  5966	  5983
	  6000	  6017	  6034	  6051	  6068	  6085	  6102	  6119	  6136	  6153	  6170	  6187	  6217	  6234
	  6251	  6268	  6285	  6302	  6319	  6336	  6353	  6370	  6387	  6404	  6421	  6438	  6455	  6472
	  6489	  6506	  6536	  6553	  6570	  6587	  6604	  6621	  6638	  6655	  6672	  6689	  6706	  6723
	  6740	  6757	  6774	  6791	  6808	  6825	  6855	  6872	  6889	  6906	  6923	  6940	  6957	  6974
	  6991	  7021	  7037	  7053	  7069	  7085	  7101	  7117	  7133	  7149	  7165	  7181	  7197	  7213
	  7229	  7245	  7261	  7277	  7293	  7309	  7332	  7347	  7362	  7377	  7392	  7407	  7422	  7437
	  7452	  7467	  7482	  7497	  7512	  7527	  7542	  7557	  7573	  7586	  7609	  7624	  7639	  7654
	  7669	  7684	  7699	  7714	  7729	  7744	  7759	  7774	  7789	  7804	  7819	  7834	  7849	  7865
	  7887	  7902	  7917	  7932	  7947	  7962	  7977	  7992	  8022	  8038	  8054	  8070	  8086	  8102
	  8118	  8134	  8150	  8166	  8182	  8198	  8214	  8230	  8246	  8262	  8278	  8294	  8310	  8333
	  8348	  8363	  8378	  8393	  8408	  8423	  8438	  8453	  8468	  8483	  8498	  8513	  8528	  8543
	  8558	  8574	  8588	  8609	  8624	  8639	  8654	  8669	  8684	  8699	  8714	  8729	  8744	  8759
	  8774	  8789	  8804	  8819	  8834	  8849	  8864	  8885	  8900	  8915	  8930	  8945	  8960	  8975
	  8990	  9023	  9040	  9057	  9074	  9091	  9108	  9125	  9142	  9159	  9176	  9193	  9210	  9227
	  9244	  9261	  9278	  9295	  9312	  9327	  9349	  9364	  9379	  9394	  9409	  9424	  9439	  9454
	  9469	  9484	  9499	  9514	  9529	  9544	  9559	  9574	  9589	  9603	  9625	  9640	  9655	  9670
	  9685	  9700	  9715	  9730	  9745	  9760	  9775	  9790	  9805	  9820	  9835	  9850	  9865	  9880
	  9902	  9917	  9932	  9947	  9962	  9977	  9992	 10007	 10039	 10056	 10073	 10090	 10107	 10124
	 10141	 10158	 10175	 10192	 10209	 10226	 10243	 10260	 10277	 10294	 10311	 10328	 10343	 10365
	 10380	 10395	 10410	 10425	 10440	 10455	 10470	 10485	 10500	 10515	 10530	 10545	 10560	 10575
	 10590	 10605	 10619	 10641	 10656	 10671	 10686	 10701	 10716	 10731	 10746	 10761	 10776	 10791
	 10806	 10821	 10836	 10851	 10866	 10881	 10896	 10918	 10933	 10948	 10963	 10978	 10993	 11008
	 11023	 11054	 11070	 11086	 11102	 11118	 11134	 11150	 11166	 11182	 11198	 11214	 11230	 11246	 11262	 11278	 11294	 11310	 11326	 11353	 11369	 11385	 11401	 11417	 11433	 11449	 11465	 11481
	 11497	 11513	 11529	 11545	 11561	 11577	 11593	 11609	 11622	 11648	 11664	 11680	 11696	 11712     SEQ 0306
	 11728	 11744	 11760	 11776	 11792	 11808	 11824	 11840	 11856	 11872	 11888	 11904	 11920	 11947
	 11963	 11979	 11995	 12011	 12027	 12043	 12059	 12075	 12104	 12119	 12134	 12149	 12164	 12179
	 12194	 12209	 12224	 12239	 12254	 12269	 12284	 12299	 12314	 12329	 12344	 12359	 12384	 12399
	 12414	 12429	 12444	 12459	 12474	 12489	 12504	 12519	 12534	 12549	 12564	 12579	 12594	 12609
	 12624	 12639	 12664	 12679	 12694	 12709	 12724	 12739	 12754	 12769	 12784	 12799	 12814	 12829
	 12844	 12859	 12874	 12889	 12904	 12919	 12944	 12959	 12974	 12989	 13004	 13019	 13034	 13049
	 13063
DFD	   136#
DFDV	    32#
DFM	   125#
DFMP	    31#
DFS	   114#
DFSB	    30#
DMOVE	    33#	   760	   787	   802	   817	   832	   847	   862	   877	   892	   907	   932	   947	   962
	   977	   992	  1007	  1022	  1037	  1052	  1067	  1082	  1097	  1112	  1127	  1142	  1157	  1172
	  1187	  1202	  1224	  1239	  1254	  1269	  1284	  1299	  1314	  1329	  1344	  1359	  1374	  1389
	  1404	  1419	  1434	  1449	  1464	  1489	  1504	  1519	  1534	  1549	  1564	  1579	  1594	  1609
	  1624	  1639	  1654	  1669	  1684	  1699	  1714	  1729	  1744	  1771	  1786	  1801	  1816	  1831
	  1846	  1861	  1876	  1891	  1916	  1931	  1946	  1961	  1976	  1991	  2006	  2021	  2036	  2051
	  2066	  2081	  2096	  2111	  2126	  2141	  2156	  2171	  2186	  2209	  2225	  2241	  2257	  2273
	  2289	  2305	  2321	  2337	  2353	  2369	  2385	  2401	  2417	  2433	  2449	  2465	  2491	  2506
	  2521	  2536	  2551	  2566	  2581	  2596	  2611	  2626	  2641	  2656	  2671	  2686	  2701	  2716
	  2731	  2746	  2760	  2773	  2800	  2815	  2830	  2845	  2860	  2875	  2890	  2905	  2920	  2935
	  2950	  2965	  2980	  2995	  3010	  3025	  3040	  3055	  3080	  3095	  3110	  3125	  3140	  3155
	  3170	  3185	  3200	  3215	  3230	  3245	  3260	  3275	  3290	  3305	  3320	  3335	  3360	  3375
	  3390	  3405	  3420	  3435	  3450	  3465	  3480	  3495	  3510	  3525	  3540	  3555	  3570	  3585
	  3600	  3615	  3641	  3656	  3671	  3686	  3701	  3716	  3731	  3746	  3759	  3785	  3800	  3815
	  3830	  3845	  3860	  3875	  3890	  3905	  3920	  3935	  3950	  3965	  3980	  3995	  4010	  4025
	  4040	  4065	  4080	  4095	  4110	  4125	  4140	  4155	  4170	  4185	  4200	  4215	  4230	  4245
	  4260	  4275	  4290	  4305	  4320	  4345	  4360	  4375	  4390	  4405	  4420	  4435	  4450	  4465
	  4480	  4495	  4510	  4525	  4540	  4555	  4570	  4585	  4600	  4625	  4640	  4655	  4670	  4685
	  4700	  4715	  4730	  4743	  4774	  4791	  4808	  4825	  4842	  4859	  4876	  4893	  4910	  4927
	  4944	  4961	  4978	  4995	  5012	  5029	  5046	  5063	  5093	  5110	  5127	  5144	  5161	  5178
	  5195	  5212	  5229	  5246	  5263	  5280	  5297	  5314	  5331	  5348	  5365	  5382	  5412	  5429
	  5446	  5463	  5480	  5497	  5514	  5531	  5548	  5565	  5582	  5599	  5616	  5633	  5650	  5667
	  5684	  5701	  5731	  5748	  5765	  5782	  5799	  5816	  5833	  5850	  5867	  5899	  5916	  5933
	  5950	  5967	  5984	  6001	  6018	  6035	  6052	  6069	  6086	  6103	  6120	  6137	  6154	  6171
	  6188	  6218	  6235	  6252	  6269	  6286	  6303	  6320	  6337	  6354	  6371	  6388	  6405	  6422
	  6439	  6456	  6473	  6490	  6507	  6537	  6554	  6571	  6588	  6605	  6622	  6639	  6656	  6673
	  6690	  6707	  6724	  6741	  6758	  6775	  6792	  6809	  6826	  6856	  6873	  6890	  6907	  6924
	  6941	  6958	  6975	  6992	  7022	  7038	  7054	  7070	  7086	  7102	  7118	  7134	  7150	  7166
	  7182	  7198	  7214	  7230	  7246	  7262	  7278	  7294	  7310	  7333	  7348	  7363	  7378	  7393
	  7408	  7423	  7438	  7453	  7468	  7483	  7498	  7513	  7528	  7543	  7558	  7574	  7587	  7610
	  7625	  7640	  7655	  7670	  7685	  7700	  7715	  7730	  7745	  7760	  7775	  7790	  7805	  7820
	  7835	  7850	  7866	  7888	  7903	  7918	  7933	  7948	  7963	  7978	  7993	  8023	  8039	  8055
	  8071	  8087	  8103	  8119	  8135	  8151	  8167	  8183	  8199	  8215	  8231	  8247	  8263	  8279
	  8295	  8311	  8334	  8349	  8364	  8379	  8394	  8409	  8424	  8439	  8454	  8469	  8484	  8499
	  8514	  8529	  8544	  8559	  8575	  8589	  8610	  8625	  8640	  8655	  8670	  8685	  8700	  8715
	  8730	  8745	  8760	  8775	  8790	  8805	  8820	  8835	  8850	  8865	  8886	  8901	  8916	  8931
	  8946	  8961	  8976	  8991	  9024	  9041	  9058	  9075	  9092	  9109	  9126	  9143	  9160	  9177
	  9194	  9211	  9228	  9245	  9262	  9279	  9296	  9313	  9328	  9350	  9365	  9380	  9395	  9410	  9425	  9440	  9455	  9470	  9485	  9500	  9515	  9530	  9545	  9560	  9575	  9590	  9604	  9626
	  9641	  9656	  9671	  9686	  9701	  9716	  9731	  9746	  9761	  9776	  9791	  9806	  9821	  9836     SEQ 0307
	  9851	  9866	  9881	  9903	  9918	  9933	  9948	  9963	  9978	  9993	 10008	 10040	 10057	 10074
	 10091	 10108	 10125	 10142	 10159	 10176	 10193	 10210	 10227	 10244	 10261	 10278	 10295	 10312
	 10329	 10344	 10366	 10381	 10396	 10411	 10426	 10441	 10456	 10471	 10486	 10501	 10516	 10531
	 10546	 10561	 10576	 10591	 10606	 10620	 10642	 10657	 10672	 10687	 10702	 10717	 10732	 10747
	 10762	 10777	 10792	 10807	 10822	 10837	 10852	 10867	 10882	 10897	 10919	 10934	 10949	 10964
	 10979	 10994	 11009	 11024	 11055	 11071	 11087	 11103	 11119	 11135	 11151	 11167	 11183	 11199
	 11215	 11231	 11247	 11263	 11279	 11295	 11311	 11327	 11354	 11370	 11386	 11402	 11418	 11434
	 11450	 11466	 11482	 11498	 11514	 11530	 11546	 11562	 11578	 11594	 11610	 11623	 11649	 11665
	 11681	 11697	 11713	 11729	 11745	 11761	 11777	 11793	 11809	 11825	 11841	 11857	 11873	 11889
	 11905	 11921	 11948	 11964	 11980	 11996	 12012	 12028	 12044	 12060	 12076	 12105	 12120	 12135
	 12150	 12165	 12180	 12195	 12210	 12225	 12240	 12255	 12270	 12285	 12300	 12315	 12330	 12345
	 12360	 12385	 12400	 12415	 12430	 12445	 12460	 12475	 12490	 12505	 12520	 12535	 12550	 12565
	 12580	 12595	 12610	 12625	 12640	 12665	 12680	 12695	 12710	 12725	 12740	 12755	 12770	 12785
	 12800	 12815	 12830	 12845	 12860	 12875	 12890	 12905	 12920	 12945	 12960	 12975	 12990	 13005
	 13020	 13035	 13050	 13064	 13076
DMOVEM	    35#
DMOVN	    34#
DMOVNM	    36#
DROPDV	   312#	   719
ENDUUO	   358#	   477
EOPUUO	   359#	   479
ER1	    38#
ER10	    45#
ER11	    46#
ER12	    47#
ER13	    48#
ER2	    39#
ER3	    40#	   765	   792	   807	   822	   837	   852	   867	   882	   897	   912	   937	   952	   967
	   982	   997	  1012	  1027	  1042	  1057	  1072	  1087	  1102	  1117	  1132	  1147	  1162	  1177
	  1192	  1207	  1229	  1244	  1259	  1274	  1289	  1304	  1319	  1334	  1349	  1364	  1379	  1394
	  1409	  1424	  1439	  1454	  1469	  1494	  1509	  1524	  1539	  1554	  1569	  1584	  1599	  1614
	  1629	  1644	  1659	  1674	  1689	  1704	  1719	  1734	  1749	  1776	  1791	  1806	  1821	  1836
	  1851	  1866	  1881	  1896	  1921	  1936	  1951	  1966	  1981	  1996	  2011	  2026	  2041	  2056
	  2071	  2086	  2101	  2116	  2131	  2146	  2161	  2176	  2191	  2214	  2230	  2246	  2262	  2278
	  2294	  2310	  2326	  2342	  2358	  2374	  2390	  2406	  2422	  2438	  2454	  2470	  2496	  2511
	  2526	  2541	  2556	  2571	  2586	  2601	  2616	  2631	  2646	  2661	  2676	  2691	  2706	  2721
	  2736	  2751	  2765	  2778	  2805	  2820	  2835	  2850	  2865	  2880	  2895	  2910	  2925	  2940
	  2955	  2970	  2985	  3000	  3015	  3030	  3045	  3060	  3085	  3100	  3115	  3130	  3145	  3160
	  3175	  3190	  3205	  3220	  3235	  3250	  3265	  3280	  3295	  3310	  3325	  3340	  3365	  3380
	  3395	  3410	  3425	  3440	  3455	  3470	  3485	  3500	  3515	  3530	  3545	  3560	  3575	  3590
	  3605	  3620	  3646	  3661	  3676	  3691	  3706	  3721	  3736	  3751	  3764	  3790	  3805	  3820
	  3835	  3850	  3865	  3880	  3895	  3910	  3925	  3940	  3955	  3970	  3985	  4000	  4015	  4030
	  4045	  4070	  4085	  4100	  4115	  4130	  4145	  4160	  4175	  4190	  4205	  4220	  4235	  4250
	  4265	  4280	  4295	  4310	  4325	  4350	  4365	  4380	  4395	  4410	  4425	  4440	  4455	  4470
	  4485	  4500	  4515	  4530	  4545	  4560	  4575	  4590	  4605	  4630	  4645	  4660	  4675	  4690
	  4705	  4720	  4735	  4748	  4779	  4796	  4813	  4830	  4847	  4864	  4881	  4898	  4915	  4932
	  4949	  4966	  4983	  5000	  5017	  5034	  5051	  5068	  5098	  5115	  5132	  5149	  5166	  5183
	  5200	  5217	  5234	  5251	  5268	  5285	  5302	  5319	  5336	  5353	  5370	  5387	  5417	  5434
	  5451	  5468	  5485	  5502	  5519	  5536	  5553	  5570	  5587	  5604	  5621	  5638	  5655	  5672
	  5689	  5706	  5736	  5753	  5770	  5787	  5804	  5821	  5838	  5855	  5872	  5904	  5921	  5938
	  5955	  5972	  5989	  6006	  6023	  6040	  6057	  6074	  6091	  6108	  6125	  6142	  6159	  6176	  6193	  6223	  6240	  6257	  6274	  6291	  6308	  6325	  6342	  6359	  6376	  6393	  6410	  6427
	  6444	  6461	  6478	  6495	  6512	  6542	  6559	  6576	  6593	  6610	  6627	  6644	  6661	  6678     SEQ 0308
	  6695	  6712	  6729	  6746	  6763	  6780	  6797	  6814	  6831	  6861	  6878	  6895	  6912	  6929
	  6946	  6963	  6980	  6997	  7027	  7043	  7059	  7075	  7091	  7107	  7123	  7139	  7155	  7171
	  7187	  7203	  7219	  7235	  7251	  7267	  7283	  7299	  7315	  7338	  7353	  7368	  7383	  7398
	  7413	  7428	  7443	  7458	  7473	  7488	  7503	  7518	  7533	  7548	  7563	  7579	  7592	  7615
	  7630	  7645	  7660	  7675	  7690	  7705	  7720	  7735	  7750	  7765	  7780	  7795	  7810	  7825
	  7840	  7855	  7871	  7893	  7908	  7923	  7938	  7953	  7968	  7983	  7998	  8028	  8044	  8060
	  8076	  8092	  8108	  8124	  8140	  8156	  8172	  8188	  8204	  8220	  8236	  8252	  8268	  8284
	  8300	  8316	  8339	  8354	  8369	  8384	  8399	  8414	  8429	  8444	  8459	  8474	  8489	  8504
	  8519	  8534	  8549	  8564	  8580	  8594	  8615	  8630	  8645	  8660	  8675	  8690	  8705	  8720
	  8735	  8750	  8765	  8780	  8795	  8810	  8825	  8840	  8855	  8870	  8891	  8906	  8921	  8936
	  8951	  8966	  8981	  8996	  9029	  9046	  9063	  9080	  9097	  9114	  9131	  9148	  9165	  9182
	  9199	  9216	  9233	  9250	  9267	  9284	  9301	  9318	  9333	  9355	  9370	  9385	  9400	  9415
	  9430	  9445	  9460	  9475	  9490	  9505	  9520	  9535	  9550	  9565	  9580	  9595	  9609	  9631
	  9646	  9661	  9676	  9691	  9706	  9721	  9736	  9751	  9766	  9781	  9796	  9811	  9826	  9841
	  9856	  9871	  9886	  9908	  9923	  9938	  9953	  9968	  9983	  9998	 10013	 10045	 10062	 10079
	 10096	 10113	 10130	 10147	 10164	 10181	 10198	 10215	 10232	 10249	 10266	 10283	 10300	 10317
	 10334	 10349	 10371	 10386	 10401	 10416	 10431	 10446	 10461	 10476	 10491	 10506	 10521	 10536
	 10551	 10566	 10581	 10596	 10611	 10625	 10647	 10662	 10677	 10692	 10707	 10722	 10737	 10752
	 10767	 10782	 10797	 10812	 10827	 10842	 10857	 10872	 10887	 10902	 10924	 10939	 10954	 10969
	 10984	 10999	 11014	 11029	 11060	 11076	 11092	 11108	 11124	 11140	 11156	 11172	 11188	 11204
	 11220	 11236	 11252	 11268	 11284	 11300	 11316	 11332	 11359	 11375	 11391	 11407	 11423	 11439
	 11455	 11471	 11487	 11503	 11519	 11535	 11551	 11567	 11583	 11599	 11615	 11628	 11654	 11670
	 11686	 11702	 11718	 11734	 11750	 11766	 11782	 11798	 11814	 11830	 11846	 11862	 11878	 11894
	 11910	 11926	 11953	 11969	 11985	 12001	 12017	 12033	 12049	 12065	 12081	 12110	 12125	 12140
	 12155	 12170	 12185	 12200	 12215	 12230	 12245	 12260	 12275	 12290	 12305	 12320	 12335	 12350
	 12365	 12390	 12405	 12420	 12435	 12450	 12465	 12480	 12495	 12510	 12525	 12540	 12555	 12570
	 12585	 12600	 12615	 12630	 12645	 12670	 12685	 12700	 12715	 12730	 12745	 12760	 12775	 12790
	 12805	 12820	 12835	 12850	 12865	 12880	 12895	 12910	 12925	 12950	 12965	 12980	 12995	 13010
	 13025	 13040	 13055	 13069	 13081
ER4	    41#	   767	   794	   809	   824	   839	   854	   869	   884	   899	   914	   939	   954	   969
	   984	   999	  1014	  1029	  1044	  1059	  1074	  1089	  1104	  1119	  1134	  1149	  1164	  1179
	  1194	  1209	  1231	  1246	  1261	  1276	  1291	  1306	  1321	  1336	  1351	  1366	  1381	  1396
	  1411	  1426	  1441	  1456	  1471	  1496	  1511	  1526	  1541	  1556	  1571	  1586	  1601	  1616
	  1631	  1646	  1661	  1676	  1691	  1706	  1721	  1736	  1751	  1778	  1793	  1808	  1823	  1838
	  1853	  1868	  1883	  1898	  1923	  1938	  1953	  1968	  1983	  1998	  2013	  2028	  2043	  2058
	  2073	  2088	  2103	  2118	  2133	  2148	  2163	  2178	  2193	  2216	  2232	  2248	  2264	  2280
	  2296	  2312	  2328	  2344	  2360	  2376	  2392	  2408	  2424	  2440	  2456	  2472	  2498	  2513
	  2528	  2543	  2558	  2573	  2588	  2603	  2618	  2633	  2648	  2663	  2678	  2693	  2708	  2723
	  2738	  2753	  2767	  2780	  2807	  2822	  2837	  2852	  2867	  2882	  2897	  2912	  2927	  2942
	  2957	  2972	  2987	  3002	  3017	  3032	  3047	  3062	  3087	  3102	  3117	  3132	  3147	  3162
	  3177	  3192	  3207	  3222	  3237	  3252	  3267	  3282	  3297	  3312	  3327	  3342	  3367	  3382
	  3397	  3412	  3427	  3442	  3457	  3472	  3487	  3502	  3517	  3532	  3547	  3562	  3577	  3592
	  3607	  3622	  3648	  3663	  3678	  3693	  3708	  3723	  3738	  3753	  3766	  3792	  3807	  3822
	  3837	  3852	  3867	  3882	  3897	  3912	  3927	  3942	  3957	  3972	  3987	  4002	  4017	  4032
	  4047	  4072	  4087	  4102	  4117	  4132	  4147	  4162	  4177	  4192	  4207	  4222	  4237	  4252
	  4267	  4282	  4297	  4312	  4327	  4352	  4367	  4382	  4397	  4412	  4427	  4442	  4457	  4472
	  4487	  4502	  4517	  4532	  4547	  4562	  4577	  4592	  4607	  4632	  4647	  4662	  4677	  4692
	  4707	  4722	  4737	  4750	  4781	  4798	  4815	  4832	  4849	  4866	  4883	  4900	  4917	  4934
	  4951	  4968	  4985	  5002	  5019	  5036	  5053	  5070	  5100	  5117	  5134	  5151	  5168	  5185
	  5202	  5219	  5236	  5253	  5270	  5287	  5304	  5321	  5338	  5355	  5372	  5389	  5419	  5436
	  5453	  5470	  5487	  5504	  5521	  5538	  5555	  5572	  5589	  5606	  5623	  5640	  5657	  5674	  5691	  5708	  5738	  5755	  5772	  5789	  5806	  5823	  5840	  5857	  5874	  5906	  5923	  5940
	  5957	  5974	  5991	  6008	  6025	  6042	  6059	  6076	  6093	  6110	  6127	  6144	  6161	  6178     SEQ 0309
	  6195	  6225	  6242	  6259	  6276	  6293	  6310	  6327	  6344	  6361	  6378	  6395	  6412	  6429
	  6446	  6463	  6480	  6497	  6514	  6544	  6561	  6578	  6595	  6612	  6629	  6646	  6663	  6680
	  6697	  6714	  6731	  6748	  6765	  6782	  6799	  6816	  6833	  6863	  6880	  6897	  6914	  6931
	  6948	  6965	  6982	  6999	  7029	  7045	  7061	  7077	  7093	  7109	  7125	  7141	  7157	  7173
	  7189	  7205	  7221	  7237	  7253	  7269	  7285	  7301	  7317	  7340	  7355	  7370	  7385	  7400
	  7415	  7430	  7445	  7460	  7475	  7490	  7505	  7520	  7535	  7550	  7565	  7581	  7594	  7617
	  7632	  7647	  7662	  7677	  7692	  7707	  7722	  7737	  7752	  7767	  7782	  7797	  7812	  7827
	  7842	  7857	  7873	  7895	  7910	  7925	  7940	  7955	  7970	  7985	  8000	  8030	  8046	  8062
	  8078	  8094	  8110	  8126	  8142	  8158	  8174	  8190	  8206	  8222	  8238	  8254	  8270	  8286
	  8302	  8318	  8341	  8356	  8371	  8386	  8401	  8416	  8431	  8446	  8461	  8476	  8491	  8506
	  8521	  8536	  8551	  8566	  8582	  8596	  8617	  8632	  8647	  8662	  8677	  8692	  8707	  8722
	  8737	  8752	  8767	  8782	  8797	  8812	  8827	  8842	  8857	  8872	  8893	  8908	  8923	  8938
	  8953	  8968	  8983	  8998	  9031	  9048	  9065	  9082	  9099	  9116	  9133	  9150	  9167	  9184
	  9201	  9218	  9235	  9252	  9269	  9286	  9303	  9320	  9335	  9357	  9372	  9387	  9402	  9417
	  9432	  9447	  9462	  9477	  9492	  9507	  9522	  9537	  9552	  9567	  9582	  9597	  9611	  9633
	  9648	  9663	  9678	  9693	  9708	  9723	  9738	  9753	  9768	  9783	  9798	  9813	  9828	  9843
	  9858	  9873	  9888	  9910	  9925	  9940	  9955	  9970	  9985	 10000	 10015	 10047	 10064	 10081
	 10098	 10115	 10132	 10149	 10166	 10183	 10200	 10217	 10234	 10251	 10268	 10285	 10302	 10319
	 10336	 10351	 10373	 10388	 10403	 10418	 10433	 10448	 10463	 10478	 10493	 10508	 10523	 10538
	 10553	 10568	 10583	 10598	 10613	 10627	 10649	 10664	 10679	 10694	 10709	 10724	 10739	 10754
	 10769	 10784	 10799	 10814	 10829	 10844	 10859	 10874	 10889	 10904	 10926	 10941	 10956	 10971
	 10986	 11001	 11016	 11031	 11062	 11078	 11094	 11110	 11126	 11142	 11158	 11174	 11190	 11206
	 11222	 11238	 11254	 11270	 11286	 11302	 11318	 11334	 11361	 11377	 11393	 11409	 11425	 11441
	 11457	 11473	 11489	 11505	 11521	 11537	 11553	 11569	 11585	 11601	 11617	 11630	 11656	 11672
	 11688	 11704	 11720	 11736	 11752	 11768	 11784	 11800	 11816	 11832	 11848	 11864	 11880	 11896
	 11912	 11928	 11955	 11971	 11987	 12003	 12019	 12035	 12051	 12067	 12083	 12112	 12127	 12142
	 12157	 12172	 12187	 12202	 12217	 12232	 12247	 12262	 12277	 12292	 12307	 12322	 12337	 12352
	 12367	 12392	 12407	 12422	 12437	 12452	 12467	 12482	 12497	 12512	 12527	 12542	 12557	 12572
	 12587	 12602	 12617	 12632	 12647	 12672	 12687	 12702	 12717	 12732	 12747	 12762	 12777	 12792
	 12807	 12822	 12837	 12852	 12867	 12882	 12897	 12912	 12927	 12952	 12967	 12982	 12997	 13012
	 13027	 13042	 13057	 13071	 13083
ER5	    42#
ER6	    43#
ER7	    44#
ERRHLT	   247#	 13225
FATAL	   246#
FRD36	   387#
FRD8	   388#
FREAD	   386#
FSELEC	   385#
GET	   230#
GO	   227#
HALT	   232#	   498
JEN	   234#
JRSTF	   233#
MAPADR	   368#
MAPCNK	   369#
MAPMEM	   365#
MAPPNT	   371#
MAPSET	   370#
MEMSEG	   367#MEMZRO	   366#
MODPCP	   378#                                                                                                            SEQ 0310
MODPCU	   377#
MTROP	   346#
NAME	     7#	    10
PBELL	   321#	 13229
PCRL	   315#	 13165	 13184
PCRL2	   319#
PCRL2F	   320#
PCRLF	   316#
PFORCE	   323#
PGMINT	   240#	   744
PJRST	   231#
PMSG	   325#	 13131	 13135	 13146	 13171
PMSGF	   328#
PNT1	   281#
PNT11	   295#
PNT11F	   296#
PNT1F	   282#
PNT2	   283#
PNT2F	   284#
PNT3	   285#	 13183
PNT3F	   286#
PNT4	   287#	 13187
PNT4F	   288#
PNT5	   289#	 13189
PNT5F	   290#
PNT6	   291#	 13139	 13191
PNT6F	   292#
PNT7	   293#
PNT7F	   294#
PNTA	   267#	 13174
PNTADF	   298#
PNTADR	   297#
PNTAF	   268#
PNTAL	   269#	 13167
PNTALF	   270#
PNTCHF	   280#
PNTCHR	   279#
PNTCI	   277#
PNTCIF	   278#
PNTCW	   313#
PNTCWF	   314#
PNTDCF	   306#
PNTDEC	   305#	 13134
PNTDS	   307#
PNTDSF	   308#
PNTHW	   301#	 13154
PNTHWF	   302#
PNTMGN	   392#	 13215
PNTMSF	   274#
PNTMSG	   273#
PNTNM	   309#	 13127PNTOCF	   304#
PNTOCS	   303#                                                                                                            SEQ 0311
PNTOCT	   299#
PNTOTF	   300#
PNTSIX	   310#
PNTSXF	   311#
PSIXL	   271#
PSIXLF	   272#
PSIXM	   275#	 13132	 13136	 13147	 13172
PSIXMF	   276#
PSP	   317#
PSPF	   318#
PUT	   229#
RTN	   228#	   485
S	   158#	   160	   164	   193	   195	   204	   207	   222	   223	   225	   236	   238	   242	   244
	   249	   253	   395	   400	   406	   433	   435	   453	   455	   473	   475	   504	   506	   524
	   526	   544	   546	   554	   556	   577	   582	   608	   610	   617	   619	   625	   627	   633
	   635	   639	   641	   646	   648	   652	   654	   658	   660	   666	   668	   671	   673	   677
	   679	   683	   685	   689	   691	   695	   697	   702	   707	   711	   713
SAVEAC	    75#	   752
SIXBTZ	   334#
SWITCH	   340#	 13113	 13216
TTALTM	   262#	 13218
TTICHR	   255#
TTICNV	   260#
TTIDEC	   259#
TTINO	   257#
TTIOCT	   258#
TTIYES	   256#
TTLOOK	   261#
TTSIXB	   263#
TTYINP	   264#