DBKDA	DECSYSTEM10 KI10 ARITHMETIC RELIABILITY TEST, VER 0,3	MACRO %51(414) 14:29  9-JUN-76 PAGE 1
DBKDAT	MAC	 9-JUN-76 12:58		ARITHMETIC RELIABILITY PARAMETERS                                              *** SEQ 0039

     1					;*MAINDEC-10-DBKDA
     2
     3			000003		DECVER==003
     4			000000		MCNVER==000
     5
     6						XLIST
     7						LIST
     8						LALL
     9
    10					NAME	\MCNVER,\DECVER^
    11
    12					TITLE	DBKDA	DECSYSTEM10 KI10 ARITHMETIC RELIABILITY TEST, VER 0,3^
    13
    14						XALL
    15					;*A COMPREHENSIVE RELIABILITY TEST OF THE PDP-10
    16					;*FIXED, FLOATING AND BYTE INSTRUCTIONS.
    17					;*KI10 CENTRAL PROCESSOR
    18
    19					;*COPYRIGHT 1972,1973,1974,1976
    20					;*DIGITAL EQUIPMENT CORPORATION
    21					;*MARLBORO, MASS. 01752
    22
    23					;*JOHN R. KIRCHOFF
    24
    25	000137					LOC	137
    26	000137	000000	000003		MCNVER,,DECVER
    27
    28						NOSYM
    29
DBKDA	DECSYSTEM10 KI10 ARITHMETIC RELIABILITY TEST, VER 0,3	MACRO %51(414) 14:29  9-JUN-76 PAGE 2
DBKDAT	MAC	 9-JUN-76 12:58		ARITHMETIC RELIABILITY PARAMETERS                                              *** SEQ 0040

    30					SUBTTL	ARITHMETIC RELIABILITY PARAMETERS
    31
    32					;*SUBROUTINE ASSEMBLY DEFINITIONS
    33
    34			000001		EXCASB==1
    35			000001		USRASB==1
    36			000001		KI10==1
    37			000001		PGMEND==1
    38			000040		DEBUG==40
    39			000001		ONEPRT==1	;ASSEMBLE PROGRAM AS ONE PART
    40			000001		SIMASB==1
    41
    42					;*ACCUMULATOR ASSIGNMENTS
    43
    44			000001		AC==1		;TEST AC'S
    45			000005		RA==5		;RANDOM NUMBER AC'S
    46			000011		FLAGS==11	;FLAGS (OV, DCK, ETC)
    47			000012		ACSP==12	;POINTER FOR SIMULATED AC'S
    48			000013		CNTL==13	;CONTROL REGISTER
    49			000014		CNTR==14	;COUNTER FOR GROUP
    50			000015		IT==15		;TEST INSTRUCTION POINTER
    51			000016		LOP==16		;GROUP ITERATION COUNTER
    52
    53			000016		Q==16		;DFP ROUTINE POINTER
    54
    55					;*CONTROL WORDS
    56
    57			400000		DFP==400000		;DOUBLE FLOAT FLAG
    58			200000		BYT==200000		;BYTE FLAG
    59			100000		FP==100000		;FLOAT FLAG
    60			040000		ER==40000		;ERROR FLAG
    61
    62					;*UUO DEFINITIONS
    63
    64		001000	000000		OPDEF	SINST	[001B8]
    65		002000	000000		OPDEF	SMT	[002B8]
    66
    67			031511		LUUO1=SIMNST
    68			031534		LUUO2=SIMMT
DBKDA	DECSYSTEM10 KI10 ARITHMETIC RELIABILITY TEST, VER 0,3	MACRO %51(414) 14:29  9-JUN-76 PAGE 3
DBKDAT	MAC	 9-JUN-76 12:58		ARITHMETIC RELIABILITY PARAMETERS                                              *** SEQ 0041

    69					;*TEST CONTROL SWITCHES
    70
    71					;*RIGHT HALF
    72
    73			400000		ENTDDT==400000		;ENTER DDT UPON STARTING
    74			200000		RANBAS==200000		;SPECIFY RANDOM NUMBER BASE
    75			100000		MGNTST==100000		;MARGIN INST EXECUTE ONLY
    76
    77			004000		CKOUT==4000		;SOFTWARE XCT NEW KI10 INSTRUCTIONS
    78			002000		SEQPNT==2000		;PRINT OBJ SEQUENCE NUMBERS
    79
    80			000400		INHSCT==400		;INHIBIT SIMULATION SCT2 PRINT
    81			000200		INHCLK==200		;INHIBIT CLOCK INTERRUPTS
    82			000100		INHMS==100		;INHIBIT PRINT MACHINE STATES
    83
    84			000040		INHDFP==40		;INHIBIT DOUBLE FLOATING POINT TEST
    85			000020		INHFP==20		;INHIBIT FLOATING POINT TEST
    86			000010		INHBYT==10		;INHIBIT BYTE TEST
    87
    88			000004		INHFXD==4		;INHIBIT FIXED POINT TEST
    89			000002		SLOW==2			;RUN JUST SIMULATION COMPARISION
    90			000001		FAST==1			;RUN JUST INSTRUCTION COMPARISION
    91
    92					;*BEGIN ASSEMBLY PARAMETERS
    93
    94			030601		SADR1==SFSRT1
    95			030076		SADR2==RESRT1
    96			032365		SADR3==RENTR1
    97			030000		SADR5==BEGIN
    98			030007		SADR6==SRTDDT
    99			000000		SADR7==0
   100			000000		SADR8==0
   101			000000		SADR9==0
   102			000000		SADR10==0
   103			000000		SADR11==0
   104
   105		123457	654321		PAREA1==123457,,654321
   106			000000		PAREA2==0,,0
   107		444253	444100		PAREA3==SIXBIT/DBKDA/
   108		645560	000000		PAREA4==SIXBIT/TMP/
   109			000000		PAREA5==0
   110			000000		PAREA6==0
   111
   112			000002		ITERAT==2
DBKDA	DECSYSTEM10 KI10 ARITHMETIC RELIABILITY TEST, VER 0,3	MACRO %51(414) 14:29  9-JUN-76 PAGE 4
DBKDAT	MAC	 9-JUN-76 12:58		ARITHMETIC RELIABILITY PARAMETERS                                              *** SEQ 0042

   113					;*MACROS
   114
   115					DEFINE	SUBTST<
   116						MOVEI	.
   117						MOVEM	TESTPC		;SAVE SUBTEST PC >
   118
   119					DEFINE	SAVEM	(A,B)<
   120						MOVEM	A,B(ACSP)	;MOVE TO MEMORY
   121						MOVEM	A+1,B+1(ACSP)
   122						MOVEM	A+2,B+2(ACSP)
   123						MOVEM	A+3,B+3(ACSP)
   124					>
   125
   126					DEFINE	RESTOR	(A,B)<
   127						MOVE	A,B(ACSP)	;MOVE TO AC
   128						MOVE	A+1,B+1(ACSP)
   129						MOVE	A+2,B+2(ACSP)
   130						MOVE	A+3,B+3(ACSP)
   131					>
   132
   133					DEFINE	NORM	(A,B)<
   134						TLNE	A,400000	;NORMALIZE A NUMBER
   135						TLZA	A,400
   136						TLO	A,400
   137						TDNN	A,[377777777777]
   138						AOS	A,B
   139						MOVEM	A,B
   140					>
DBKDA	DECSYSTEM10 KI10 ARITHMETIC RELIABILITY TEST, VER 0,3	MACRO %51(414) 14:29  9-JUN-76 PAGE 5
DBKDAT	MAC	 9-JUN-76 12:58		ARITHMETIC RELIABILITY PARAMETERS                                              *** SEQ 0043

   141					;*AC ASSIGNMENTS
   142
   143			000000		F==0
   144			000001		T==1
   145			000002		T1==2
   146			000003		T2==3
   147			000004		T3==4
   148			000005		S==5
   149			000006		AR==6
   150			000007		MQ==7
   151			000010		BR==10
   152			000011		AD==11
   153			000012		MB==12
   154			000013		PC==13
   155			000014		MA==14
   156			000015		SC==15
   157			000016		IR==16
   158
   159					;*MISCELLANEOUS
   160
   161			000000		OFFSET=0		;SIMULATION DONE FROM LOW SEGMENT
   162			032320		VM==SENTRY
   163			000000		INHIF==0
DBKDA	DECSYSTEM10 KI10 ARITHMETIC RELIABILITY TEST, VER 0,3	MACRO %51(414) 14:29  9-JUN-76 PAGE 1
PARAM	KLM	26-FEB-76 08:30		*PARAM*	CONSOLE DATA SWITCH ASSIGNMENTS, FEB 26,1976                           *** SEQ 0044

   164					SUBTTL	*PARAM*	CONSOLE DATA SWITCH ASSIGNMENTS, FEB 26,1976
   165
   166					DEFINE	S,<;*********************************************************************>
   167
   168					S^;*********************************************************************^
   169					;*DATA SWITCHES (READ FROM CONSOLE IN EXEC MODE OR TYPED IN IN USER MODE)
   170					;*LEFT HALF SWITCHES ARE PRE-ASSIGNED FOR SUBROUTINE PACKAGE USE
   171					;*AND CONTROL LOOPING, PRINTING (TTY OR OTHER DEVICE) AND MISC. FUNCTIONS
   172					S^;*********************************************************************^
   173
   174			400000		ABORT==	400000			;ABORT PROGRAM ON PASS COMPLETION
   175			200000		RSTART==200000			;RESTART TEST, PRINT TOTALS
   176			100000		TOTALS==100000			;PRINT TOTALS, CONTINUE
   177
   178			040000		NOPNT==	040000			;INHIBIT ALL PRINT/TYPE OUT (EXCEPT FORCED)
   179			020000		PNTLPT==020000			;PRINT ALL DATA ON LPT (LOGICAL DEVICE, USER MODE)
   180			010000		DING==	010000			;RING BELL ON ERROR
   181
   182			004000		LOOPER==004000			;ENTER EXERCISE/CHECK LOOP ON ERROR
   183			002000		ERSTOP==002000			;HALT ON TEST ERROR
   184			001000		PALERS==001000			;PRINT ALL ERRORS
   185
   186			000400		RELIAB==000400			;RELIABILITY MODE
   187			000200		TXTINH==000200			;INHIBIT ERROR TEXT
   188			000100		INHPAG==000100			;INHIBIT PAGING
   189
   190			000040		MODDVC==000040			;MODIFY DEVICE CODE
   191			000020		INHCSH==000020			;INHIBIT CACHE
   192			000010		OPRSEL==000010			;OPERATOR SELECTION
   193
   194			000004		CHAIN==	000004			;CHAIN CONTROL SWITCH
   195
   196			000002		KAHZ50==000002			;KA10 50 HERTZ POWER
   197
   198									;SWITCH 17 RESERVED !!!
DBKDA	DECSYSTEM10 KI10 ARITHMETIC RELIABILITY TEST, VER 0,3	MACRO %51(414) 14:29  9-JUN-76 PAGE 2
PARAM	KLM	26-FEB-76 08:30		*PARAM* PROGRAM/SUBROUTINE PARAMETERS, FEB 26,1976                             *** SEQ 0045

   199					SUBTTL	*PARAM* PROGRAM/SUBROUTINE PARAMETERS, FEB 26,1976
   200
   201					S^;*********************************************************************^
   202					;*SPECIAL SUBPROGRAM LINKAGES
   203					S^;*********************************************************************^
   204
   205			027772		FSELNK=	27772	;FILE SELECT LINK
   206			027773		FRDLNK=	27773	;FILE READ LINK
   207			027774		LDLNK=	27774	;LOAD LINKAGE ADDRESS
   208			027775		DDTLNK=	27775	;DDT LINKAGE ADDRESS
   209			027776		MODLNK=	27776	;OPERATIONAL MODE CHECK LINKAGE ADDRESS
   210			027777		SUBLNK=	27777	;SUBROUTINE LINKAGE ADDRESS
   211
   212					S^;*********************************************************************^
   213					;*SPECIAL SUBROUTINE FATAL HALTS
   214					;*USED TO REPORT ERRORS THAT CAUSE THE SUBROUTINES TO BE UNUSABLE
   215					S^;*********************************************************************^
   216
   217					;ADDRESS   TAG	REASON
   218					;---------------------
   219
   220					; 1010 	NOEXEC	;PROGRAM NOT CODED FOR EXEC MODE OPERATION
   221					; 1011  PLERR	;FATAL PUSH LIST POINTER ERROR
   222					; 1012  PLERR1	;INITIAL PUSH LIST POINTER ERROR
   223					; 1013  MUOERR	;MUUO WITH LUUO HANDLER WIPED OUT
   224					; 1014  DTEBER	;DTE20 INTERRUPT WITHOUT DOORBELL
   225					; 1015  DTECER	;DTE20 CLOCK INTERRUPT WITHOUT FLAG SET
   226					; 1016  CPIERR	;CPU INITIALIZATION ERROR
   227					; 1017  EOPERR	;END OF PROGRAM ERROR
   228					; 1020  LUOERR	;INTERRUPT WITH LUUO HANDLER WIPED OUT
   229
   230					S^;*********************************************************************^
DBKDA	DECSYSTEM10 KI10 ARITHMETIC RELIABILITY TEST, VER 0,3	MACRO %51(414) 14:29  9-JUN-76 PAGE 3
PARAM	KLM	26-FEB-76 08:30		*PARAM* PROGRAM/SUBROUTINE PARAMETERS, FEB 26,1976                             *** SEQ 0046

   231					S^;*********************************************************************^
   232					;OPERATOR DEFINITIONS (NON-UUO'S)
   233					S^;*********************************************************************^
   234
   235		260740	000000		OPDEF	GO	[PUSHJ	P,]	;SUBROUTINE CALL
   236		263740	000000		OPDEF	RTN	[POPJ	P,]	;SUBROUTINE RETURN
   237		261740	000000		OPDEF	PUT	[PUSH	P,]	;PUT DATA ON PUSH LIST
   238		262740	000000		OPDEF	GET	[POP	P,]	;GET DATA FROM PUSH LIST
   239		254000	000000		OPDEF	PJRST	[JRST	]	;JRST TO ROUTINE THAT RTN'S
   240		254200	000000		OPDEF	HALT	[JRST	4,]	;DEFINITION FOR DDT
   241		254100	000000		OPDEF	JRSTF	[JRST	2,]	;DEFINITION FOR DDT
   242		254500	000000		OPDEF	JEN	[JRST	12,]	;DEFINITION FOR DDT
   243
   244					S^;*********************************************************************^
   245					;*SUBROUTINE INITIALIZATION CALL
   246					S^;*********************************************************************^
   247
   248		265000	030011		OPDEF	PGMINT	[JSP	0,SBINIT]	;SUBROUTINE INITIALIZATION
   249
   250					S^;*********************************************************************^
   251					;*HALTING UUO'S (A MORE GRACEFUL HALT THAN SIMPLY USING THE HALT INSTRUCTION).
   252					S^;*********************************************************************^
   253
   254		037640	000004		OPDEF	FATAL	[37B8!15B12!4]	;FATAL PROGRAMMING HALT
   255		037600	000004		OPDEF	ERRHLT	[37B8!14B12!4]	;PROGRAM ERROR HALT
   256
   257					S^;*********************************************************************^
   258					;*TERMINAL INPUT UUO'S
   259					;*ALWAYS COME FROM THE CONSOLE TERMINAL IN EXEC MODE OR THE
   260					;*CONTROLLING TERMINAL (REAL TERMINAL OR PTY) IN USER MODE.
   261					S^;*********************************************************************^
   262
   263		037000	000003		OPDEF	TTICHR 	[37B8!0B12!3]	;TTY, INPUT ANY CHARACTER
   264		037040	000003		OPDEF	TTIYES	[37B8!1B12!3]	;TTY, NORMAL RETURN Y
   265		037100	000003		OPDEF	TTINO	[37B8!2B12!3]	;TTY, NORMAL RETURN N
   266		037140	000003		OPDEF	TTIOCT	[37B8!3B12!3]	;TTY, INPUT OCTAL WORD
   267		037200	000003		OPDEF	TTIDEC	[37B8!4B12!3]	;TTY, INPUT DECIMAL WORD
   268		037240	000003		OPDEF	TTICNV	[37B8!5B12!3]	;TTY, INPUT CONVERTABLE WORD
   269		037300	000003		OPDEF	TTLOOK	[37B8!6B12!3]	;TTY, KEYBOARD CHECK
   270		037340	000003		OPDEF	TTALTM	[37B8!7B12!3]	;TTY, ALT-MODE CHECK
   271		037400	000003		OPDEF	TTSIXB	[37B8!10B12!3]	;TTY, INPUT SIXBIT WORD
   272		037440	000003		OPDEF	TTYINP	[37B8!11B12!3]	;TTY, IMAGE MODE INPUT
DBKDA	DECSYSTEM10 KI10 ARITHMETIC RELIABILITY TEST, VER 0,3	MACRO %51(414) 14:29  9-JUN-76 PAGE 4
PARAM	KLM	26-FEB-76 08:30		*PARAM* PROGRAM/SUBROUTINE PARAMETERS, FEB 26,1976                             *** SEQ 0047

   273					;*TERMINAL OUTPUT UUO'S.
   274
   275		037000	000000		OPDEF	PNTA	[37B8!0B12!0]	;PRINT ASCII WORD
   276		037000	000001		OPDEF	PNTAF	[37B8!0B12!1]	;PRINT ASCII WORD FORCED
   277		037740	000000		OPDEF	PNTAL	[37B8!17B12!0]	;PRINT ASCIZ LINE
   278		037740	000001		OPDEF	PNTALF	[37B8!17B12!1]	;PRINT ASCIZ LINE FORCED
   279		037600	000003		OPDEF	PSIXL	[37B8!14B12!3]	;PRINT SIXBIT'Z LINE
   280		037640	000003		OPDEF	PSIXLF	[37B8!15B12!3]	;PRINT SIXBIT'Z LINE FORCED
   281		037000	000000		OPDEF	PNTMSG	[37B8!0B12!0]	;PRINT MESSAGE IMMEDIATE
   282		037040	000000		OPDEF	PNTMSF	[37B8!1B12!0]	;PRINT MESSAGE IMMEDIATE FORCED
   283		037100	000000		OPDEF	PSIXM	[37B8!2B12!0]	;PRINT SIXBIT'Z MSG IMMEDIATE
   284		037200	000000		OPDEF	PSIXMF	[37B8!4B12!0]	;PRINT SIXBIT'Z MSG IMM FORCED
   285		037000	000000		OPDEF	PNTCI	[37B8!0B12!0]	;PRINT CHARACTER IMMEDIATE
   286		037040	000000		OPDEF	PNTCIF	[37B8!1B12!0]	;PRINT CHARACTER IMMEDIATE FORCED
   287		037500	000000		OPDEF	PNTCHR	[37B8!12B12!0]	;PRINT CHARACTER
   288		037500	000001		OPDEF	PNTCHF	[37B8!12B12!1]	;PRINT CHARACTER FORCED
   289		037040	000000		OPDEF	PNT1	[37B8!1B12!0]	;PRINT ONE OCTAL DIGIT
   290		037040	000001		OPDEF	PNT1F	[37B8!1B12!1]	;PRINT 1 OCTAL DIGIT FORCED
   291		037100	000000		OPDEF	PNT2	[37B8!2B12!0]	;PRINT TWO OCTAL DIGITS
   292		037100	000001		OPDEF	PNT2F	[37B8!2B12!1]	;PRINT 2 OCTAL DIGITS FORCED
   293		037140	000000		OPDEF	PNT3	[37B8!3B12!0]	;PRINT THREE OCTAL DIGITS
   294		037140	000001		OPDEF	PNT3F	[37B8!3B12!1]	;PRINT THREE OCTAL DIGITS FORCED
   295		037200	000000		OPDEF	PNT4	[37B8!4B12!0]	;PRINT FOUR OCTAL DIGITS
   296		037200	000001		OPDEF	PNT4F	[37B8!4B12!1]	;PRINT FOUR OCTAL DIGITS FORCED
   297		037240	000000		OPDEF	PNT5	[37B8!5B12!0]	;PRINT FIVE OCTAL DIGITS
   298		037240	000001		OPDEF	PNT5F	[37B8!5B12!1]	;PRINT FIVE OCTAL DIGITS FORCED
   299		037300	000000		OPDEF	PNT6	[37B8!6B12!0]	;PRINT SIX OCTAL DIGITS
   300		037300	000001		OPDEF	PNT6F	[37B8!6B12!1]	;PRINT SIX OCTAL DIGITS FORCED
   301		037340	000000		OPDEF	PNT7	[37B8!7B12!0]	;PRINT 7 OCTAL DIGITS
   302		037340	000001		OPDEF	PNT7F	[37B8!7B12!1]	;PRINT 7 OCTAL DIGITS FORCED
   303		037440	000000		OPDEF	PNT11	[37B8!11B12!0]	;PRINT 11 OCTAL DIGITS
   304		037440	000001		OPDEF	PNT11F	[37B8!11B12!1]	;PRINT 11 OCTAL DIGITS FORCED.
   305		037400	000000		OPDEF	PNTADR	[37B8!10B12!0]	;PRINT PHYSICAL ADDRESS
   306		037400	000001		OPDEF	PNTADF	[37B8!10B12!1]	;PRINT PHYSICAL ADDRESS FORCED
   307		037600	000000		OPDEF	PNTOCT  [37B8!14B12!0]	;PRINT FULL WORD OCTAL
   308		037600	000001		OPDEF	PNTOTF	[37B8!14B12!1]	;PRINT FULL WORD OCTAL FORCED
   309		037540	000000		OPDEF	PNTHW	[37B8!13B12!0]	;PRINT OCTAL HALF WORDS, 6 SP 6
   310		037540	000001		OPDEF	PNTHWF	[37B8!13B12!1]	;PRINT OCTAL HALF WORDS, 6 SP 6 FORCED
   311		037700	000003		OPDEF	PNTOCS	[37B8!16B12!3]	;PRINT OCTAL, SUPPRESS LEADING 0'S
   312		037740	000003		OPDEF	PNTOCF	[37B8!17B12!3]	;PRINT OCTAL, SUPPRESS LEADING 0'S FORCED
   313		037640	000000		OPDEF	PNTDEC	[37B8!15B12!0]	;PRINT DECIMAL, SUPRESS LEADING 0'S
   314		037640	000001		OPDEF	PNTDCF	[37B8!15B12!1]	;PRINT DECIMAL, SUPRESS LEADING 0'S FORCED
   315		037700	000000		OPDEF	PNTDS	[37B8!16B12!0]	;PRINT DECIMAL, SPACES FOR LD 0'S
   316		037700	000001		OPDEF	PNTDSF	[37B8!16B12!1]	;PRINT DECIMAL, SPACES FOR LD 0'S FORCED
DBKDA	DECSYSTEM10 KI10 ARITHMETIC RELIABILITY TEST, VER 0,3	MACRO %51(414) 14:29  9-JUN-76 PAGE 5
PARAM	KLM	26-FEB-76 08:30		*PARAM* PROGRAM/SUBROUTINE PARAMETERS, FEB 26,1976                             *** SEQ 0048

   317		037200	000002		OPDEF	PNTNM	[37B8!4B12!2]	;PRINT PROGRAM NAME
   318		037000	000002		OPDEF	PNTSIX	[37B8!0B12!2]	;PRINT SIXBIT WORD
   319		037040	000002		OPDEF	PNTSXF	[37B8!1B12!2]	;PRINT SIXBIT WORD FORCED
   320		037240	000002		OPDEF	DROPDV	[37B8!5B12!2]	;CLOSE LOGICAL FILE, USER MODE
   321		037100	000002		OPDEF	PNTCW	[37B8!2B12!2]	;PRINT DF10 CONTROL WORD
   322		037140	000002		OPDEF	PNTCWF	[37B8!3B12!2]	;PRINT DF10 CONTROL WORD FORCED
   323		037000	030242		OPDEF	PCRL	[37B8!0B12!CRLF] ;PRINT CARRIAGE RETURN/LINE FEED
   324		037040	030242		OPDEF	PCRLF	[37B8!1B12!CRLF] ;PRINT CARRIAGE RETURN/LINE FEED FORCED
   325		037000	000040		OPDEF	PSP	[37B8!0B12!40]	;PRINT SPACE
   326		037040	000040		OPDEF	PSPF	[37B8!1B12!40]	;PRINT SPACE FORCED
   327		037000	030243		OPDEF	PCRL2	[37B8!0B12!CRLF2] ;PRINT CARRIAGE RETURN/LINE FEED (TWICE)
   328		037040	030243		OPDEF	PCRL2F	[37B8!1B12!CRLF2] ;PRINT CARRIAGE RETURN/LINE FEED (TWICE) FORCED
   329		037040	000007		OPDEF	PBELL	[37B8!1B12!7]	;PRINT TTY BELL
   330
   331		037040	000026		OPDEF	PFORCE	[37B8!1B12!26]	;PRINT FORCE, CONTROL O OVERRIDE
   332
   333					DEFINE	PMSG	(ARG),<
   334						PSIXM	[SIXBIT\ARG'_\]>
   335
   336					DEFINE	PMSGF	(ARG),<
   337						PSIXMF	[SIXBIT\ARG'_\]>
   338
   339					;*SIXBTZ -- MACRO TO GENERATE SIXBIT DATA FOR PRINTING
   340					;*	CONSERVES CORE OVER ASCIZ
   341
   342					DEFINE	SIXBTZ	(ARG),<	[SIXBIT\ARG'_\]>
   343
   344					;*CONSOLE SWITCH INPUT UUO.
   345					;*READS CONSOLE SWITCHES IF IN EXEC MODE OR ASKS FOR THEM IF
   346					;* USER MODE.
   347
   348		037400	000002		OPDEF	SWITCH	[37B8!10B12!2]	;INPUT CONSOLE SWITCHES
   349
   350					;*CLOCK INITIALIZATION UUO - TO SET DESIRED CLOCK OPERATION
   351					;*EITHER IGNORE CLOCK, ONLY LET IT TICK OR CAUSE INTERRUPT TO OCCUR.
   352
   353		037540	000004		OPDEF	CLOKOP	[37B8!13B12!4]	;CLOCK OPERATION UUO - PDP-11 CLOCK
   354		037200	000004		OPDEF	MTROP	[37B8!4B12!4]	;CLOCK OPERATION UUO - DK20 METER
   355
   356					;*KL10 ONLY CACHE OPERATION UUO'S
   357
   358		037040	000004		OPDEF	CINVAL	[37B8!1B12!4]	;CACHE INVALIDATE
   359		037100	000004		OPDEF	CFLUSH	[37B8!2B12!4]	;CACHE FLUSH
   360		037140	000004		OPDEF	CWRTBI	[37B8!3B12!4]	;CACHE WRITE-BACK & INVALIDATE
DBKDA	DECSYSTEM10 KI10 ARITHMETIC RELIABILITY TEST, VER 0,3	MACRO %51(414) 14:29  9-JUN-76 PAGE 6
PARAM	KLM	26-FEB-76 08:30		*PARAM* PROGRAM/SUBROUTINE PARAMETERS, FEB 26,1976                             *** SEQ 0049

   361					;*END OF PASS/PROGRAM UUOS
   362
   363					;PERFORMS THE END OF PASS FUNCTIONS. INCREMENT PASS COUNT,
   364					;*DECREMENT ITERATION COUNT, CHECK IF FINISHED WITH THIS PROGRAM ETC.
   365
   366		037500	000004		OPDEF	ENDUUO	[37B8!12B12!4]	;UUO TO DISPLAY LIGHTS
   367		037700	000004		OPDEF	EOPUUO	[37B8!16B12!4]	;END OF PROGRAM UUO
   368
   369					;*MEMORY MANAGEMENT UUO'S
   370					;*UUO'S TO PERFORM VARIOUS MEMORY FUNCTIONS. MAPPING, ZEROING, PAGING,
   371					;*ADDRESS CONVERSION, ETC...
   372
   373		037000	000004		OPDEF	MAPMEM	[37B8!0B12!4]	;MAP MEMORY
   374		037500	000002		OPDEF	MEMZRO	[37B8!12B12!2]	;ZERO MEMORY
   375		037440	000002		OPDEF	MEMSEG	[37B8!11B12!2]	;SETUP MEMORY SEGMENT
   376		037540	000002		OPDEF	MAPADR	[37B8!13B12!2]	;VIRTUAL TO PHYSICAL ADR CONVERT
   377		037640	000002		OPDEF	MAPCNK	[37B8!15B12!2]	;MAP MEMORY CHUNK
   378		037600	000002		OPDEF	MAPSET	[37B8!14B12!2]	;SET KI10 EXEC PAGE MAP
   379		037740	000002		OPDEF	MAPPNT	[37B8!17B12!2]	;PRINT MEMORY MAP
   380
   381					;*DEVICE CODE MODIFICATION UUO
   382					;*ALLOWS THE MODIFICATION OF IOT'S TO ONE DEVICE TO BE CHANGED TO
   383					;*IOT'S TO A DIFFERENT DEVICE CODE.
   384
   385		037340	000002		OPDEF	MODPCU	[37B8!7B12!2]	;MODIFY PERHIPERAL CODE, USER
   386		037300	000002		OPDEF	MODPCP	[37B8!6B12!2]	;MODIFY PERHIPERAL CODE, PROGRAM
   387
   388			030000			IFNDEF	MODDVL,<MODDVL==BEGIN>
   389			030000			IFNDEF	MODDVU,<MODDVU==BEGIN>
   390
   391					;*"DIAMON" FILE SELECTION AND READ UUOS
   392
   393		037240	000004		OPDEF	FSELECT	[37B8!5B12!4]	;FILE SELECTION
   394		037300	000004		OPDEF	FREAD	[37B8!6B12!4]	;FILE READ - ASCII DATA
   395		037340	000004		OPDEF	FRD36	[37B8!7B12!4]	;FILE READ - 36 BIT DATA
   396		037400	000004		OPDEF	FRD8	[37B8!10B12!4]	;FILE READ - 8 BIT DATA
   397
   398					;*KI10 ONLY UUO FOR PRINTING MARGIN VALUES
   399
   400		037700	000002		OPDEF	PNTMGN	[37B8!16B12!2]	;PRINT MARGIN VALUE
   401
   402						XLIST
   403					IFNDEF	KLOLD,<LIST
DBKDA	DECSYSTEM10 KI10 ARITHMETIC RELIABILITY TEST, VER 0,3	MACRO %51(414) 14:29  9-JUN-76 PAGE 7
PARAM	KLM	26-FEB-76 08:30		ERROR HANDLING UUO DEFINITIONS, JAN 5,1976                                     *** SEQ 0050

   404					SUBTTL	ERROR HANDLING UUO DEFINITIONS, JAN 5,1976
   405
   406					S^;*********************************************************************^
   407					;*ERROR HANDLER PARAMETERS
   408					S^;*********************************************************************^
   409
   410		036000	000000		OPDEF	ERUUO	[36B8]		;ERROR CALL UUO
   411		035000	000000		OPDEF	ERLOOP	[35B8]		;ERROR LOOP, CHECKS PC,REPT,REPT1,ERROR
   412		035040	000000		OPDEF	ERLP1	[35B8!1B12]	;ERROR LOOP IF PC'S MATCH
   413		035100	000000		OPDEF	ERLP2	[35B8!2B12]	;ERROR LOOP IF ANY ERROR
   414		034000	000000		OPDEF	REPTUO	[34B8]		;REPEAT LOOP UUO
   415
   416					;*THE ERROR HANDLER MACROS
   417
   418					;*A MACRO TO REPORT AN ERROR AND LOOP
   419
   420						DEFINE	ERROR	(ADR,FORMAT,CORECT,ACTUAL,F,D,ERR)<
   421						SALL
   422						ERUUO	FORMAT,[T,,[SIXBIT\F'_\]
   423							   CORECT,,ACTUAL
   424							   [SIXBIT\D'_\],,ERR]
   425						XALL
   426
   427						ERLOOP	ADR		;IF ERROR, LOOP TO ADR
   428					>
   429
   430					;*A MACRO TO REPORT AN ERROR AND NOT LOOP
   431
   432						DEFINE	ERROR1	(FORMAT,CORECT,ACTUAL,F,D,ERR)<
   433						SALL
   434						ERUUO	FORMAT,[T,,[SIXBIT\F'_\]
   435							   CORECT,,ACTUAL
   436							   [SIXBIT\D'_\],,ERR]
   437						XALL	>
   438
   439					>;END OF KLOLD CONDITIONAL
   440
   441						XLIST
   442						LIST
DBKDA	DECSYSTEM10 KI10 ARITHMETIC RELIABILITY TEST, VER 0,3	MACRO %51(414) 14:29  9-JUN-76 PAGE 1
FIXED	KLM	26-FEB-76 08:31		*FIXED* FIXED CONTROL AND DISPATCH STORAGE, FEB 26,1976                        *** SEQ 0051

   443					SUBTTL	*FIXED* FIXED CONTROL AND DISPATCH STORAGE, FEB 26,1976
   444
   445	030000					LOC	30000
   446
   447					S^;*********************************************************************^
   448					;*PROGRAM STARTING ADDRESSES
   449					;*THESE ADDRESSES CALL VARIOUS SPECIAL START ROUTINES AND OR OPTIONS
   450					;*NORMAL START ADDRESS IS 30000 ALL OTHERS ARE SPECIAL. INVOKED BECAUSE
   451					;*OF END OF PASS, POWER FAILURE, DDT START, RE-ENTERING(TYPICALLY USER
   452					;*MODE), OR ANY NUMBER OF SPECIAL FEATURE TESTS.
   453					S^;*********************************************************************^
   454
   455	030000	254 00 1 00 027776 	BEGIN:	JRST	@MODLNK		;STAND-ALONE START
   456	030001	254 00 0 00 030605 	$START:	JRST	START		;MODE CHECK STARTING ADDRESS
   457
   458	030002	254 00 1 00 027774 	DIAGMN:	JRST	@LDLNK		;DIAGNOSTIC MONITOR START
   459
   460	030003	254 00 1 00 027774 	SYSEXR:	JRST	@LDLNK		;SYSTEM EXERCISER START
   461
   462	030004	254 00 0 00 030601 	SFSTRT:	JRST	SADR1		;SPECIAL FEATURE START
   463
   464	030005	254 00 0 00 030076 	PFSTRT:	JRST	SADR2		;POWER FAIL RESTART
   465
   466	030006	254 00 0 00 032365 	REENTR:	JRST	SADR3		;REENTER START(USUALLY USER MODE ONLY)
   467
   468	030007				SRTDDT:				;COMMONLY MISTAKEN NAME FOR "DDTSRT"
   469	030007	254 00 1 00 027775 	DDTSRT:	JRST	@DDTLNK		;DDT START
   470
   471	030010	254 00 0 00 030625 	BEGIN1:	JRST	STARTA		;LOOP START(END OF PASS COMES HERE)
   472	030011	254 00 1 00 027777 	SBINIT:	JRST	@SUBLNK		;PMGINT LINKAGE
   473	030012	000000	000000		RETURN:	0			;RETURN ADDRESS STORAGE
   474
   475	030013	000000	000000		START1:	SADR7			;OPTIONAL STARTING ADR/INSTRUCTIONS
   476	030014	000000	000000		START2:	SADR8			; "
   477	030015	000000	000000		START3:	SADR9			; "
   478	030016	000000	000000		START4:	SADR10			; "
   479	030017	000000	000000		START5:	SADR11			; "
DBKDA	DECSYSTEM10 KI10 ARITHMETIC RELIABILITY TEST, VER 0,3	MACRO %51(414) 14:29  9-JUN-76 PAGE 2
FIXED	KLM	26-FEB-76 08:31		*FIXED* FIXED CONTROL AND DISPATCH STORAGE, FEB 26,1976                        *** SEQ 0052

   480					S^;*********************************************************************^
   481					;*PROGRAM FIXED PARAMETER AREA
   482					S^;*********************************************************************^
   483
   484	030020	444253	444100		PNTNAM:	PAREA3		;SIXBIT PROGRAM NAME
   485	030021	645560	000000		PNTEXT:	PAREA4		;SIXBIT PROGRAM EXTENSION
   486	030022	123457	654321		RANDBS:	PAREA1		;RANDOM BASE NUMBER
   487	030023	000000	000000		SWTEXR:	PAREA2		;SYSTEM EXERCISER SWITCHES
   488	030024	000000	000002		ITRCNT:	ITERAT		;PROGRAM ITERATIONS
   489	030025	000000	030677		$PNAME:	PGMNAM		;POINTER TO PROGRAMS NAME
   490	030026	000000	000003		$PVER:	MCNVER,,DECVER	;MCN & DEC VERSION LEVEL
   491	030027	000000	030000		$MODVL:	MODDVL		;DEVICE CODE CHANGE LOWER LIMIT
   492	030030	000000	030000		$MODVU:	MODDVU		;DEVICE CODE CHANGE UPPER LIMIT
   493	030031	777777	777777		$EMODE:	IFNDEF EXCASB,<0> IFDEF EXCASB,<-1>	;EXEC ALLOWED
   494	030032	777777	777777		$UMODE:	IFNDEF USRASB,<0> IFDEF USRASB,<-1>	;USER ALLOWED
   495	030033	000000	000000		$DSKUP:	IFNDEF DSKUPD,<0> IFDEF DSKUPD,<-1>	;DISK UPDATE MODE
   496	030034	000000	000000		$MMAP:	IFNDEF MEMMAP,<0> IFDEF MEMMAP,<-1>	;ALLOW MEMORY RTNS
   497	030035	000000	000000		PAREA7:	PAREA5		;OPTIONAL PARAMETER
   498	030036	000000	000000		PAREA8:	PAREA6		;OPTIONAL PARAMETER
   499
   500					S^;*********************************************************************^
   501					;*PROGRAM VARIABLE PARAMETER AREA
   502					S^;*********************************************************************^
   503
   504	030037	000000	000000		USER:	0		; 0 = EXEC, -1 = USER MODE FLAG
   505	030040	000000	000000		KAIFLG:	0		;PROCESSOR TYPE, 0 = KA10, -1 = KI10
   506	030041	000000	000000		KLFLG:	0		;PROCESSOR TYPE, 0 = KA/KI, -1 = KL10
   507	030042	777777	777777		MONFLG:	-1		;DIAG MONITOR SPECIAL USER FLAG
   508	030043	000000	000000		MONCTL:	0		;DIAG MON/SYS EXR FLAG
   509	030044	000000	000000		MONTEN:	0		;-1= LOADED BY 10
   510	030045	000000	000000		CLOCKF:	0		;CLOCK TICKED FLAG
   511	030046	000000	000000		CONSW:	0		;CONSOLE SWITCH SETTINGS
   512	030047	000000	000000		PASCNT:	0		;PROGRAM PASS COUNT
   513	030050	000000	000000		RUNFLG:	0		;PROGRAM RUN FLAG
   514	030051	000000	000000		TESTPC:	0		;SUBTEST PC
   515	030052	000000	000000		ERRPC:	0		;ERROR PC
   516	030053	000000	000000		ERRTLS:	0		;ERROR TOTALS
   517	030054	000000	000000		TICKS:	0		;PROGRAM RUNNING TIME
   518	030055	000000	000000		MARGIN:	0		;KI10 MARGIN WORD VALUE
   519	030056	000000	000000		$ONETM:	0		;SUBROUTINE INITIALIZATION FLAG
DBKDA	DECSYSTEM10 KI10 ARITHMETIC RELIABILITY TEST, VER 0,3	MACRO %51(414) 14:29  9-JUN-76 PAGE 3
FIXED	KLM	26-FEB-76 08:31		*FIXED* FIXED CONTROL AND DISPATCH STORAGE, FEB 26,1976                        *** SEQ 0053

   520					S^;*********************************************************************^
   521					;*SPECIAL PROGRAM DISPATCH ADDRESSES
   522					S^;*********************************************************************^
   523
   524	030057	037 12 0 00 000004 	BEGEND:	ENDUUO		;END OF PASS
   525	030060	254 00 0 00 030010 	$BEND1:	JRST	BEGIN1	;KEEP RUNNING PROGRAM
   526	030061	037 16 0 00 000004 	$BEND2:	EOPUUO		;END OF PROGRAM - NO RETURN
   527	030062	000000	030000		CNTLC:	SADR5		;CONTROL C XFER ADDRESS
   528	030063	000000	030007		ALTMGO:	SADR6		;ALTMODE XFER ADDRESS
   529	030064				CPOPJ1:			;SKIP RETURN
   530	030064	350 00 0 17 000000 	UUOSKP:	AOS	(P)	;SKIP RETURN FROM UUO
   531	030065				CPOPJ:			;NON-SKIP REGULAR RETURN
   532	030065	263 17 0 00 000000 	UUOEXT:	RTN		;UUO RETURN
   533	030066	255 00 0 00 000000 	UUORTN:	JFCL		;ADDITIONAL USERS UUO ROUTINE
   534	030067	255 00 0 00 000000 	$UORTX:	JFCL		;ADDITIONAL UUO LINKAGE
   535	030070	255 00 0 00 000000 	$UUOER:	JFCL		;INITED AS (JRST $UOERX)
   536	030071	255 00 0 00 000000 	$ITRHL:	JFCL		;ADDITIONAL INTERRUPT LINKAGE
   537	030072	255 00 0 00 000000 	$ITRX1:	JFCL		; "
   538	030073	255 00 0 00 000000 	$USRHL:	JFCL		; "
   539	030074	255 00 0 00 000000 	$RSRTX:	JFCL		;ADDITIONAL POWER FAIL LINKAGE
   540	030075	255 00 0 00 000000 	$RSRTY:	JFCL		; "
   541	030076	255 00 0 00 000000 	RESRT1:	JFCL		; INITED AS (JRST RESRTX)
   542	030077	255 00 0 00 000000 	RESRT2:	JFCL		; "
   543	030100	255 00 0 00 000000 	$PARER:	JFCL		;ADDITIONAL PARITY ERROR LINKAGE
   544	030101	255 00 0 00 000000 	ERMORE:	JFCL		;ADDITIONAL ERROR HANDLER LINKAGE
   545	030102	254 04 0 00 030102 		HALT	.	;IMPROPER TRANSFER HALT
   546
   547	030103	000000	000000		$PSHER:	0		;INITED AS (JRST PSHERR)
   548	030104	000000	000000		ITRCH1:	0		;PC & FLAGS OF CURRENT INTERRUPT
   549	030105	000000	000000			0		;INITED AS (JRST $ITRC1)
   550
   551					S^;*********************************************************************^
   552					;*PROCESSOR CONTROL STORAGE
   553					S^;*********************************************************************^
   554
   555	030106	000000	000000		$ACC0:	0		;INTERRUPT SAVED AC0
   556	030107	000000	000000		$SVPI:	0		;INTERRUPT SAVED PI
   557	030110	000000	000000		$SVAPR:	0		;INTERRUPT SAVED APR
   558	030111	000000	000000		$SVPAG:	0		;INTERRUPT SAVED PAG (DATAI)
   559	030112	000000	000000		$SPAG1:	0		;INTERRUPT SAVED PAG (CONI)
   560
   561	030113	000000	000000		$SVUUO:	0		;CURRENT USERS UUO
   562	030114	000000	000000		$SVUPC:	0		;PC OF CURRENT USERS UUO
   563
   564	030115	000000	000000		REPTU:	0		;REPEAT UUO ITERATIONS
   565	030116	000000	000000		SCOPE:	0		;ERROR HANDLER SCOPE LOOP FLAG
   566	030117	000000	000000		%CORFLG:0		; " CORRECT FLAG
   567	030120	000000	000000		%COREC:	0		; " CORRECT DATA
   568	030121	000000	000000		%ACTFL:	0		; " ACTUAL FLAG
   569	030122	000000	000000		%ACTUL:	0		; " ACTUAL DATA
   570	030123	000000	000000		%DISCR:	0		; " DISCREPENCY DATA
DBKDA	DECSYSTEM10 KI10 ARITHMETIC RELIABILITY TEST, VER 0,3	MACRO %51(414) 14:29  9-JUN-76 PAGE 4
FIXED	KLM	26-FEB-76 08:31		*FIXED* FIXED CONTROL AND DISPATCH STORAGE, FEB 26,1976                        *** SEQ 0054

   571					S^;*********************************************************************^
   572					;*UUO DISPATCH TABLE
   573					S^;*********************************************************************^
   574						XLIST
   575						LIST
   576	030124	031511	030070		UUODIS:	LUUO1,,$UUOER
   577	030125	030070	031534			LUUO3,,LUUO2
   578	030126	030070	030070			LUUO5,,LUUO4
   579	030127	030070	030070			LUUO7,,LUUO6
   580	030130	030070	030070			LUUO11,,LUUO10
   581	030131	030070	030070			LUUO13,,LUUO12
   582	030132	030070	030070			LUUO15,,LUUO14
   583	030133	030070	030070			LUUO17,,LUUO16
   584	030134	030070	030070			LUUO21,,LUUO20
   585	030135	030070	030070			LUUO23,,LUUO22
   586	030136	030070	030070			LUUO25,,LUUO24
   587	030137	030070	030070			LUUO27,,LUUO26
   588	030140	030070	030070			LUUO31,,LUUO30
   589	030141	030070	030070			LUUO33,,LUUO32
   590
   591					S^;*********************************************************************^
   592					;*MEMORY MANAGMENT STORAGE
   593					S^;*********************************************************************^
   594
   595	030142	000000	000000		DF22F:	0		;DF10 CONTROL FLAG, 0 = 18, -1 = 22 BIT
   596	030143	000000	000000		MAPNEW:	0		;MEMORY MAPPING CONTROL FLAG, -1 = 4096K MAPPING
   597	030144	000000	000000		MEMTOT:	0		;TOTAL MEMORY SIZE IN K (1024.)
   598	030145	000000	000000		MEMLOW:	0		;LOWEST USABLE MEMORY
   599	030146				MEMSIZ:	BLOCK ^D41	;MEMORY SEGMENT POINTER TABLE
   600
   601					S^;*********************************************************************^
   602					;*PRINT CONTROL STORAGE
   603					S^;*********************************************************************^
   604
   605	030217	000000	000000		PNTFLG:	0		;PRINT FLAG, -1 WHILE IN PRINT ROUTINE
   606	030220	000000	000000		PNTENB:	0		;PRINT ENABLE
   607	030221	000000	000000		PDISF:	0		;PRINT DISABLED FLAG
   608	030222	000000	000000		PNTINH:	0		;INHIBIT PRINT INPUT CHECKS
   609	030223	000000	000000		PNTSPC:	0		;PRINT SPACE CONTROL
   610	030224	000000	000000		OPTIME:	0		;TYPE-IN WAIT TIME
   611	030225	000000	000000		$TWCNT:	0		;TIME WAITED
   612	030226	000000	000000		$DVOFF:	0		;LOGICAL DEVICE INITED FLAG
   613	030227	000000	000000		TTYFIL:	0		;TTY EXEC FILLERS FLAG
   614	030230	000000	000000		TTYSPD:	0		;TTY EXEC BAUD RATE
   615	030231	000000	000000		$TTCHR:	0		;ACTUAL TYPED IN CHAR
   616	030232	000000	000000		$CHRIN:	0		;UPPER CASED & PARITY STRIPPED CHAR
   617	030233	000000	000000		$TYPNB:	0		;TYPED IN NUMBER
   618	030234	000000	000000		$CRLF:	0		;FREE CR/LF FLAG
   619	030235	000000	000000		$TABF:	0		;TAB CONVERSION FLAG
   620	030236	000000	000000		$FFF:	0		;FORM FEED CONVERSION FLAG
   621	030237	000000	000000		$VTF:	0		;VERTICAL TAB CONVERSION FLAG
   622	030240	000000	000000		USRLFF:	0		;USER LF FILLERS
   623	030241	000000	000000		USRCRF:	0		;USER CR FILLERS
DBKDA	DECSYSTEM10 KI10 ARITHMETIC RELIABILITY TEST, VER 0,3	MACRO %51(414) 14:29  9-JUN-76 PAGE 5
FIXED	KLM	26-FEB-76 08:31		*FIXED* FIXED CONTROL AND DISPATCH STORAGE, FEB 26,1976                        *** SEQ 0055

   624					S^;*********************************************************************^
   625					;*THE FOLLOWING MISCELLANEOUS PRINT CHARACTERS ARE INCLUDED
   626					;*TO FACILITATE PRINTING AND ARE CALLED AS FOLLOWS:
   627					;*	MOVEI	NAME
   628					;*	PNTA		;OR PNTAF
   629					S^;*********************************************************************^
   630
   631	030242				CRLF:	ASCII/
   632	030242	015 012 000 000 000 	/
   633	030243				CRLF2:	ASCII/
   634
   635	030243	015 012 015 012 000 	/
   636	030244	054 000 000 000 000 	COMMA:	ASCII/,/
   637	030245	056 000 000 000 000 	PERIOD:	ASCII/./
   638	030246	040 000 000 000 000 	SPACE:	ASCII/ /
   639	030247	011 000 000 000 000 	TAB:	ASCII/	/
   640	030250				MINUS:
   641	030250	055 000 000 000 000 	HYPEN:	ASCII/-/
   642	030251	053 000 000 000 000 	PLUS:	ASCII/+/
   643	030252	052 000 000 000 000 	AST:	ASCII/*/
   644	030253	100 000 000 000 000 	ATSIN:	ASCII/@/
   645	030254	050 000 000 000 000 	LFP:	ASCII/(/
   646	030255	051 000 000 000 000 	RTP:	ASCII/)/
   647	030256	007 0000000000 		BELL:	BYTE (7) 007
   648	030257	077 000 000 000 000 	QUEST:	ASCII/?/
   649	030260	057 000 000 000 000 	SLASH:	ASCII!/!
   650	030261	044 000 000 000 000 	DOLLAR:	ASCII/$/
   651	030262	000000	000012		RADIX:	^D10			;DECIMAL PRINT RADIX
   652	030263	000000	000040		RADLSP:	40			;DECIMAL PRINT LEADING CHAR
   653	030264	000000	000012		RADLSC:	^D10			;DECIMAL PRINT LEADING CHAR COUNT
   654
   655					S^;*********************************************************************^
   656					;*USER MODE OUTPUT FILE INFORMATION
   657					S^;*********************************************************************^
   658
   659	030265				$OBUF:	BLOCK	3		;LOGICAL FILE OUTPUT BUFFER HEADER
   660	030270	60 62 51 56 64 00 	$OUTNM:	SIXBIT	/PRINT/		;FILE NAME
   661	030271	60 56 64 00 00 00 	$OUTEX:	SIXBIT	/PNT/		;FILE NAME EXTENSION
   662	030272					BLOCK	2
   663
   664					S^;*********************************************************************^
   665					;*DISK UPDATE MODE FILE INFORMATION
   666					S^;*********************************************************************^
   667
   668	030274				$IBUF:	BLOCK	3
   669	030277	60 62 51 56 64 00 	$INNM:	SIXBIT	/PRINT/
   670	030300	60 56 64 00 00 00 	$INEXT:	SIXBIT	/PNT/
   671	030301					BLOCK	2
DBKDA	DECSYSTEM10 KI10 ARITHMETIC RELIABILITY TEST, VER 0,3	MACRO %51(414) 14:29  9-JUN-76 PAGE 6
FIXED	KLM	26-FEB-76 08:31		*FIXED* FIXED CONTROL AND DISPATCH STORAGE, FEB 26,1976                        *** SEQ 0056

   672					S^;*********************************************************************^
   673					;*PUSHDOWN LIST CONTROL INFORMATION
   674					S^;*********************************************************************^
   675
   676	030303	777577	030303		PLIST:	PLIST-PLISTE,,PLIST
   677	030304				PLISTS:	BLOCK	200
   678	030504	000000	000000		PLISTE:	0		;END OF PUSHDOWN LIST
   679
   680					S^;*********************************************************************^
   681					;*POWER LINE CLOCK FREQUENCY FLAG
   682					S^;*********************************************************************^
   683
   684	030505	000000	000000		CYCL60:	0	;0 = 60, -1 = 50 CYCLE
   685
   686					S^;*********************************************************************^
   687					;*KL10 CACHE CONTROL FLAGS
   688					S^;*********************************************************************^
   689
   690	030506	000000	000000		CSHFLG:	0	;ALLOW CACHE IF 0
   691	030507	000000	000000		CSHMEM:	0	;CACHE MEMORY SEGMENTS IF 0
   692
   693					S^;*********************************************************************^
   694					;*NUMBER INPUT DIGIT FLAG
   695					S^;*********************************************************************^
   696
   697	030510	000000	000000		TTNBRF:	0	;-1 IF ANY DIGIT TYPED
   698
   699					S^;*********************************************************************^
   700					;*KL10 & KI10 "INHPAG" SWITCH PAGING PREVENTION
   701					S^;*********************************************************************^
   702
   703	030511	000000	000000		PVPAGI:	0	;IF NON-ZERO, OVERRIDE "INHPAG" SWITCH ACTION
   704
   705					S^;*********************************************************************^
   706					;*ERROR REPORTING ROUTINE ADDITIONAL USERS CONTROL INSTRUCTIONS
   707					S^;*********************************************************************^
   708
   709	030512	000000	000000		%ERHI1:	0	;IF NON-ZERO, XCT'D AT START OF %ERUUO
   710	030513	000000	000000		%ERHI2:	0	;IF NON-ZERO, XCT'D AT END OF %ERUUO
   711	030514	000000	000000		%ERHI3:	0	;IF NON-ZERO, XCT'D AFTER "PC" OF %ERUUO
   712
   713					S^;*********************************************************************^
   714					;*SPECIAL USERS UUO INTERCEPT INSTRUCTION
   715					S^;*********************************************************************^
   716
   717	030515	000000	000000		$$UUO:	0	;IF NON-ZERO, XCT'D AT START OF $UORTN
DBKDA	DECSYSTEM10 KI10 ARITHMETIC RELIABILITY TEST, VER 0,3	MACRO %51(414) 14:29  9-JUN-76 PAGE 7
FIXED	KLM	26-FEB-76 08:31		*FIXED* FIXED CONTROL AND DISPATCH STORAGE, FEB 26,1976                        *** SEQ 0057

   718					S^;*********************************************************************^
   719					;*KL10 PROCESSOR TYPE FLAG, 0=P0, 1=BBD NEW, 2=BBD OLD
   720					S^;*********************************************************************^
   721
   722	030516	000000	000000		KLTYP:	0
   723
   724					S^;*********************************************************************^
   725					;*SPECIAL USERS MUUO INTERCEPT INSTRUCTION
   726					S^;*********************************************************************^
   727
   728	030517	000000	000000		$$MUUO:	0	;IF NON-ZERO, XCT'D AT START OF MUUOER
   729
   730					S^;*********************************************************************^
   731					;*SPECIAL USERS USER MODE OUTPUT ERROR INTERCEPT INSTUCTION
   732					S^;*********************************************************************^
   733
   734	030520	000000	000000		$$OUTER:0	;IF NON-ZERO, XCT'D AT END OF USER MODE ERROR
   735
   736					S^;*********************************************************************^
   737					;*"SWITCH" CALL USAGE CONTROL
   738					S^;*********************************************************************^
   739
   740	030521	000000	000000		$$TOGGLE:0	;IF NON-ZERO, USE C(CONSW) FOR SWITCHES
   741
   742					S^;*********************************************************************^
   743					;*SPECIAL USERS ALTMODE SWITCH CALL INTERCEPT INSTRUCTIONS
   744					S^;*********************************************************************^
   745
   746	030522	000000	000000		$$TAX1:	0	;IF NON-ZERO, XCT'D AT START OF ALTMODE SWITCH CALL
   747	030523	000000	000000		$$TAX2:	0	;IF NON-ZERO, XCT'D AT END OF ALTMODE SWITCH CALL
   748
   749					S^;*********************************************************************^
   750					;*SPECIAL FUTURE EXPANSION ROOM
   751					;*IF ANY FIXED AREA TAGS ARE ADDED, REDUCE THE SIZE OF
   752					;*THIS BLOCK STATEMENT ACCORDINGLY.  THIS MUST BE DONE
   753					;*SO THAT PREVIOUS FIXED ASSIGNMENTS DO NOT CHANGE.
   754					S^;*********************************************************************^
   755
   756	030524					BLOCK	53	;HOPEFULLY THIS IS ENOUGH FOREVER
   757
   758					S^;*********************************************************************^
   759					;*END OF FIXED STORAGE
   760					S^;*********************************************************************^
   761
   762			030577			$ENDFX=<PLISTE+100>&<777700>-1
   763	030577					LOC	$ENDFX
   764	030577	000000	000000		ENDFIX:	0		;END OF FIXED STORAGE
DBKDA	DECSYSTEM10 KI10 ARITHMETIC RELIABILITY TEST, VER 0,3	MACRO %51(414) 14:29  9-JUN-76 PAGE 1
DBKDAM	MAC	 9-JUN-76 13:19		ARITHMETIC RELIABILITY TEST                                                    *** SEQ 0058

   765					SUBTTL	ARITHMETIC RELIABILITY TEST
   766
   767					;*SIMULATOR -DDT- INITIALIZATION SEQUENCE
   768
   769	030600	254 00 0 00 032320 	SIMDDT:	JRST	SENTRY		;GO TO SIMULATOR
   770
   771					;*INITIALIZING AND CONTROL SEQUENCE
   772
   773	030601	402 00 0 00 030053 	SFSRT1:	SETZM	ERRTLS		;CLEAR ALL TOTALS
   774	030602	402 00 0 00 030054 		SETZM	TICKS
   775	030603	402 00 0 00 047153 		SETZM	TSTIMR#
   776	030604	254 00 0 00 030000 		JRST	BEGIN
   777
   778	030605	265 00 0 00 030011 	START:	PGMINT			;INITIALIZE SUBROUTINES
   779	030606	264 00 0 00 031767 		JSR	MGNCLR
   780	030607	037 10 0 00 000002 		SWITCH
   781
   782	030610	201 12 0 00 032403 		MOVEI	ACSP,ACS	;SETUP SIMULATED AC POINTER
   783	030611	336 00 0 00 030037 		SKIPN	USER
   784	030612	254 00 0 00 030615 		JRST	.+3
   785	030613	040 00 0 00 045622 		CALL	0,[SIXBIT/TIMER/]	;USER RANDOM BASE
   786	030614	202 00 0 00 030022 		MOVEM	0,RANDBS		;SETUP RANDOM BASE
   787	030615	037 10 0 00 000002 		SWITCH
   788	030616	606 00 0 00 200000 		TRNN	RANBAS		;SPECIFY RANDOM NUMBER BASE ?
   789	030617	254 00 0 00 030625 		JRST	STARTA
   790						MOVEI	[ASCIZ/
   791	030620	201 00 0 00 045623 	SPECIFY RANDOM NUMBER BASE - /]
   792	030621	037 17 0 00 000001 		PNTALF
   793	030622	037 03 0 00 000003 		TTIOCT			;INPUT OCTAL NUMBER
   794	030623	254 00 0 00 030620 		JRST	.-3		;ERROR
   795	030624	202 00 0 00 030022 		MOVEM	0,RANDBS
DBKDA	DECSYSTEM10 KI10 ARITHMETIC RELIABILITY TEST, VER 0,3	MACRO %51(414) 14:29  9-JUN-76 PAGE 2
DBKDAM	MAC	 9-JUN-76 13:19		ARITHMETIC RELIABILITY TEST                                                    *** SEQ 0059

   796	030625	200 05 0 00 030022 	STARTA:	MOVE	RA,RANDBS
   797	030626	476 00 0 00 047165 		SETOM	.FIXF#		;SET TEST CONTROL FLAGS TO RUN ALL
   798	030627	476 00 0 00 047166 		SETOM	.FLTF#
   799	030630	476 00 0 00 047162 		SETOM	.BYTF#
   800	030631	476 00 0 00 047164 		SETOM	.FASTF#
   801	030632	476 00 0 00 047167 		SETOM	.SLOWF#
   802	030633	476 00 0 00 047163 		SETOM	.DFLTF#
   803	030634	402 00 0 00 046747 		SETZM	CKOUTF#
   804	030635	201 01 0 00 000006 		MOVEI	1,6
   805	030636	202 01 0 00 047072 		MOVEM	1,RTIME#
   806
   807	030637	037 10 0 00 000002 		SWITCH			;SETUP TEST CONTROL FLAGS
   808	030640	602 00 0 00 400000 		TRNE	ENTDDT		;ENTER DDT SWITCH SET ?
   809	030641	254 00 0 00 032370 		JRST	DDTEX		;YES
   810	030642	602 00 0 00 004000 		TRNE	CKOUT		;CHECKOUT (KA10) ?
   811	030643	476 00 0 00 046747 		SETOM	CKOUTF		;YES
   812	030644	602 00 0 00 000004 		TRNE	INHFXD
   813	030645	402 00 0 00 047165 		SETZM	.FIXF		;FIXED POINT INHIBITED
   814	030646	602 00 0 00 000020 		TRNE	INHFP
   815	030647	402 00 0 00 047166 		SETZM	.FLTF		;FLOATING POINT INHIBITED
   816	030650	602 00 0 00 000010 		TRNE	INHBYT
   817	030651	402 00 0 00 047162 		SETZM	.BYTF		;BYTE'S INHIBITED
   818	030652	602 00 0 00 000040 		TRNE	INHDFP
   819	030653	402 00 0 00 047163 		SETZM	.DFLTF		;DOUBLE FLOATING INHIBITED
   820	030654	602 00 0 00 000002 		TRNE	SLOW
   821	030655	402 00 0 00 047164 		SETZM	.FASTF		;SIMULATION COMPARISON ONLY
   822	030656	602 00 0 00 000001 		TRNE	FAST
   823	030657	402 00 0 00 047167 		SETZM	.SLOWF		;INSTRUCTION RESULT COMPARE ONLY
   824	030660	607 00 0 00 000400 		TLNN	RELIAB		;RELIABILITY MODE ?
   825	030661	402 00 0 00 047072 		SETZM	RTIME		;NO, FAST CYCLE OPERATION
   826	030662	450 00 0 00 000000 		SETCA
   827	030663	602 00 0 00 000074 		TRNE	INHFXD!INHFP!INHBYT!INHDFP
   828	030664	254 00 0 00 030671 		JRST	.+5
   829						MOVEI	[ASCIZ/
   830					OPERATOR INHIBIT OF ALL TESTS, RESTART
   831	030665	201 00 0 00 045632 	/]
   832	030666	037 17 0 00 000001 		PNTALF
   833	030667	037 14 0 00 000004 		ERRHLT
   834	030670	254 00 0 00 030000 		JRST	BEGIN
   835	030671	602 00 0 00 000003 		TRNE	SLOW!FAST
   836	030672	254 00 0 00 030713 		JRST	STARTB
   837						MOVEI	[ASCIZ/
   838					OPERATOR INHIBIT OF BOTH FAST AND SLOW, RESTART
   839	030673	201 00 0 00 045643 	/]
   840	030674	037 17 0 00 000001 		PNTALF
   841	030675	037 14 0 00 000004 		ERRHLT
   842	030676	254 00 0 00 030000 		JRST	BEGIN
DBKDA	DECSYSTEM10 KI10 ARITHMETIC RELIABILITY TEST, VER 0,3	MACRO %51(414) 14:29  9-JUN-76 PAGE 3
DBKDAM	MAC	 9-JUN-76 13:19		ARITHMETIC RELIABILITY TEST                                                    *** SEQ 0060

   843	030677				PGMNAM:	ASCIZ/
   844	030677	015 012 104 105 103 	DECSYSTEM10 KI10 ARITHMETIC RELIABILITY TEST (DBKDA)
   845	030700	123 131 123 124 105
   846	030701	115 061 060 040 113
   847	030702	111 061 060 040 101
   848	030703	122 111 124 110 115
   849	030704	105 124 111 103 040
   850	030705	122 105 114 111 101
   851	030706	102 111 114 111 124
   852	030707	131 040 124 105 123
   853	030710	124 040 050 104 102
   854	030711	113 104 101 051 015
   855	030712	012 000 000 000 000 	/
   856
   857	030713	037 10 0 00 000002 	STARTB:	SWITCH
   858	030714	332 00 0 00 030037 		SKIPE	USER		;USER MODE ?
   859	030715	254 00 0 00 030744 		JRST	BEGFX		;YES, START TESTING
   860	030716	602 00 0 00 000200 		TRNE	INHCLK		;EXEC, INHIBIT CLOCK INTERRUPTS ?
   861	030717	254 00 0 00 030740 		JRST	STARTC		;YES
   862	030720	200 01 0 00 045656 		MOVE	1,[JSR	ITRCLK]
   863	030721	202 01 0 00 030071 		MOVEM	1,$ITRHL
   864	030722	201 01 0 00 000074 		MOVEI	1,^D60
   865	030723	332 00 0 00 030505 		SKIPE	CYCL60
   866	030724	201 01 0 00 000062 		MOVEI	1,^D50
   867	030725	202 01 0 00 047000 		MOVEM	1,HERTZ#
   868	030726	200 00 0 00 045657 		MOVE	[JSR ITRCH1]
   869	030727	202 00 0 00 000044 		MOVEM	44
   870	030730	202 00 0 00 000046 		MOVEM	46
   871	030731	202 00 0 00 000050 		MOVEM	50
   872	030732	202 00 0 00 000052 		MOVEM	52
   873	030733	202 00 0 00 000054 		MOVEM	54
   874	030734	202 00 0 00 000056 		MOVEM	56
   875	030735	7 000 20 0 00 003011 		CONO	APR,CLKENB!CLKCLR!IAPRE1!IAPRC1
   876	030736	7 004 20 0 00 042377 		CONO	PI,PARENB!CHNON!PION!PICHNA
   877	030737	254 00 0 00 030744 		JRST	BEGFX
   878
   879	030740	7 004 20 0 00 011400 	STARTC:	CONO	PI,PICLR!CHNOFF!PIOFF
   880	030741	7 000 20 0 00 000010 		CONO	APR,IAPRE1
   881	030742	7 004 20 0 00 002300 		CONO	PI,CHNON!PION!PICHN1
   882	030743	254 00 0 00 030744 		JRST	BEGFX
DBKDA	DECSYSTEM10 KI10 ARITHMETIC RELIABILITY TEST, VER 0,3	MACRO %51(414) 14:29  9-JUN-76 PAGE 4
DBKDAM	MAC	 9-JUN-76 13:19		ARITHMETIC RELIABILITY TEST                                                    *** SEQ 0061

   883					;*TESTING SEQUENCE
   884					;*FIXED POINT ARITHMETIC OPERATIONS
   885
   886
   887	030744				BEGFX:	SUBTST^
   888	030744	201 00 0 00 030744 		MOVEI	.
   889	030745	202 00 0 00 030051 		MOVEM	TESTPC		;SAVE SUBTEST PC ^
   890	030746	402 00 0 00 000013 		SETZM	CNTL
   891	030747	336 00 0 00 047165 		SKIPN	.FIXF
   892	030750	254 00 0 00 030777 		JRST	BEGFP		;DON'T TEST FIXED
   893	030751	336 00 0 00 047164 		SKIPN	.FASTF
   894	030752	254 00 0 00 030764 		JRST	FXS		;FIXED POINT, SLOW ONLY
   895
   896					;*FIXED POINT FAST
   897					;*COMPARE RESULTS OF MUL,DIV,ADD REMAINDER WITH ORIGINAL
   898
   899	030753				FXF:	SUBTST^
   900	030753	201 00 0 00 030753 		MOVEI	.
   901	030754	202 00 0 00 030051 		MOVEM	TESTPC		;SAVE SUBTEST PC ^
   902	030755	201 16 0 00 000024 		MOVEI	LOP,^D20
   903	030756	240 16 1 00 047072 		ASH	LOP,@RTIME	;SETUP RUNNING TIME
   904	030757	264 00 0 00 031077 	FXF1:	JSR	FSTMDI
   905	030760	300 00 0 14 032046 		CAI	FIXEDI+4(CNTR)	;FIXED POINT INTERGERS
   906	030761	264 00 0 00 031136 		JSR	FSTMD
   907	030762	300 00 0 14 032054 		CAI	FIXED+2(CNTR)	;FIXED POINT
   908	030763	367 16 0 00 030757 		SOJG	LOP,FXF1
   909
   910					;*FIXED POINT SLOW
   911					;*COMPARE MACHINE RESULTS AGAINST SIMULATION
   912
   913	030764				FXS:	SUBTST^
   914	030764	201 00 0 00 030764 		MOVEI	.
   915	030765	202 00 0 00 030051 		MOVEM	TESTPC		;SAVE SUBTEST PC ^
   916	030766	336 00 0 00 047167 		SKIPN	.SLOWF
   917	030767	254 00 0 00 030777 		JRST	BEGFP		;DON'T RUN
   918	030770	201 16 0 00 000002 		MOVEI	LOP,2
   919	030771	240 16 1 00 047072 		ASH	LOP,@RTIME	;SETUP RUNNING TIME
   920	030772	264 00 0 00 031321 	FXS1:	JSR	MD
   921	030773	300 00 0 14 032052 		CAI	FIXEDI+10(CNTR)	;FIXED POINT INTERGERS
   922	030774	264 00 0 00 031321 		JSR	MD
   923	030775	300 00 0 14 032062 		CAI	FIXED+10(CNTR)	;FIXED POINT
   924	030776	367 16 0 00 030772 		SOJG	LOP,FXS1
DBKDA	DECSYSTEM10 KI10 ARITHMETIC RELIABILITY TEST, VER 0,3	MACRO %51(414) 14:29  9-JUN-76 PAGE 5
DBKDAM	MAC	 9-JUN-76 13:19		ARITHMETIC RELIABILITY TEST                                                    *** SEQ 0062

   925					;*TESTING SEQUENCE
   926					;*FLOATING POINT ARITHMETIC OPERATIONS
   927	030777				BEGFP:	SUBTST^
   928	030777	201 00 0 00 030777 		MOVEI	.
   929	031000	202 00 0 00 030051 		MOVEM	TESTPC		;SAVE SUBTEST PC ^
   930	031001	336 00 0 00 047166 		SKIPN	.FLTF
   931	031002	254 00 0 00 031035 		JRST	BEGBYT		;DON'T TEST FLOATING
   932	031003	336 00 0 00 047164 		SKIPN	.FASTF
   933	031004	254 00 0 00 031014 		JRST	FPS		;FLOATING POINT, SLOW ONLY
   934
   935					;*FLOATING POINT FAST
   936					;*COMPARE RESULTS OF DIV THEN MUL
   937	031005				FPF:	SUBTST^
   938	031005	201 00 0 00 031005 		MOVEI	.
   939	031006	202 00 0 00 030051 		MOVEM	TESTPC		;SAVE SUBTEST PC ^
   940	031007	201 16 0 00 000024 		MOVEI	LOP,^D20
   941	031010	240 16 1 00 047072 		ASH	LOP,@RTIME	;SETUP RUNNING TIME
   942	031011	264 00 0 00 031210 		JSR	FSTFP		;FLOATING POINT
   943	031012	300 00 0 14 032106 		CAI	FPMD+4(CNTR)
   944	031013	367 16 0 00 031011 		SOJG	LOP,.-2
   945
   946					;*FLOATING POINT SLOW
   947					;*COMPARE MACHINE RESULTS AGAINST SIMULATION
   948	031014				FPS:	SUBTST^
   949	031014	201 00 0 00 031014 		MOVEI	.
   950	031015	202 00 0 00 030051 		MOVEM	TESTPC		;SAVE SUBTEST PC ^
   951	031016	336 00 0 00 047167 		SKIPN	.SLOWF
   952	031017	254 00 0 00 031035 		JRST	BEGBYT
   953	031020	201 16 0 00 000002 		MOVEI	LOP,2
   954	031021	240 16 1 00 047072 		ASH	LOP,@RTIME	;SETUP RUNNING TIME
   955	031022	264 00 0 00 031321 	FPS1:	JSR	MD		;FLOATING POINT ADD/SUB
   956	031023	300 00 0 14 032072 		CAI	FPAS+10(CNTR)
   957	031024	264 00 0 00 031321 		JSR	MD		;FLOATING POINT SUB/MUL
   958	031025	300 00 0 14 032102 		CAI	FPSM+10(CNTR)
   959	031026	264 00 0 00 031321 		JSR	MD		;FLOATING POINT MUL/DIV
   960	031027	300 00 0 14 032112 		CAI	FPMD+10(CNTR)
   961	031030	264 00 0 00 031321 		JSR	MD		;DFN/UFA AND RI MODE
   962	031031	300 00 0 14 032122 		CAI	MISCFP+10(CNTR)
   963	031032	264 00 0 00 031321 		JSR	MD		;THE L MODE
   964	031033	300 00 0 14 032132 		CAI	FPL+10(CNTR)
   965	031034	367 16 0 00 031022 		SOJG	LOP,FPS1
   966
   967					;*BYTE INSTRUCTION, COMPARE WITH SIMULATION
   968	031035				BEGBYT:	SUBTST^
   969	031035	201 00 0 00 031035 		MOVEI	.
   970	031036	202 00 0 00 030051 		MOVEM	TESTPC		;SAVE SUBTEST PC ^
   971	031037	336 00 0 00 047162 		SKIPN	.BYTF
   972	031040	254 00 0 00 031046 		JRST	BEGDFP		;DON'T TEST BYTE
   973	031041	201 16 0 00 000005 		MOVEI	LOP,^D5
   974	031042	240 16 1 00 047072 		ASH	LOP,@RTIME	;SETUP RUNNING TIME
   975	031043	264 00 0 00 031254 		JSR	BYTE		;SIM AND CHECK BYTES
   976	031044	300 00 0 14 032137 		CAI	BYTES+5(CNTR)
   977	031045	367 16 0 00 031043 		SOJG	LOP,.-2
DBKDA	DECSYSTEM10 KI10 ARITHMETIC RELIABILITY TEST, VER 0,3	MACRO %51(414) 14:29  9-JUN-76 PAGE 6
DBKDAM	MAC	 9-JUN-76 13:19		ARITHMETIC RELIABILITY TEST                                                    *** SEQ 0063

   978					;*TESTING SEQUENCE
   979					;*DOUBLE FLOATING POINT
   980
   981	031046				BEGDFP:	SUBTST^
   982	031046	201 00 0 00 031046 		MOVEI	.
   983	031047	202 00 0 00 030051 		MOVEM	TESTPC		;SAVE SUBTEST PC ^
   984	031050	336 00 0 00 047163 		SKIPN	.DFLTF
   985	031051	254 00 0 00 030057 		JRST	BEGEND		;DON'T TEST DOUBLE FLOATING
   986	031052	336 00 0 00 047164 		SKIPN	.FASTF
   987	031053	254 00 0 00 031064 		JRST	DFPS		;DOUBLE FLOATING, SLOW ONLY
   988
   989					;*DOUBLE FLOATING POINT FAST
   990					;*COMPARE RESULTS OF ADD/SUB AND MUL/DIV
   991
   992	031054				DFPF:	SUBTST^
   993	031054	201 00 0 00 031054 		MOVEI	.
   994	031055	202 00 0 00 030051 		MOVEM	TESTPC		;SAVE SUBTEST PC ^
   995	031056	205 13 0 00 400000 		MOVSI	CNTL,DFP
   996	031057	201 16 0 00 000012 		MOVEI	LOP,^D10
   997	031060	240 16 1 00 047072 		ASH	LOP,@RTIME	;SETUP RUNNING TIME
   998	031061	264 00 0 00 031210 		JSR	FSTFP
   999	031062	300 00 0 14 032143 		CAI	DFPAS+4(CNTR)	;DOUBLE FLOATING POINT
  1000	031063	367 16 0 00 031061 		SOJG	LOP,.-2
  1001
  1002					;*DOUBLE FLOATING POINT SLOW
  1003					;*COMPARE MACHINE RESULTS AGAINST SIMULATION
  1004
  1005	031064				DFPS:	SUBTST^
  1006	031064	201 00 0 00 031064 		MOVEI	.
  1007	031065	202 00 0 00 030051 		MOVEM	TESTPC		;SAVE SUBTEST PC ^
  1008	031066	205 13 0 00 400000 		MOVSI	CNTL,DFP
  1009	031067	336 00 0 00 047167 		SKIPN	.SLOWF
  1010	031070	254 00 0 00 030057 		JRST	BEGEND
  1011	031071	201 16 0 00 000012 		MOVEI	LOP,^D10
  1012	031072	240 16 1 00 047072 		ASH	LOP,@RTIME	;SETUP RUNNING TIME
  1013	031073	264 00 0 00 031321 	DFPS1:	JSR	MD
  1014	031074	300 00 0 14 032147 		CAI	DFPAS+10(CNTR)	;DOUBLE FLOATING POINT
  1015	031075	367 16 0 00 031073 		SOJG	LOP,DFPS1
  1016	031076	254 00 0 00 030057 		JRST	BEGEND
  1017
DBKDA	DECSYSTEM10 KI10 ARITHMETIC RELIABILITY TEST, VER 0,3	MACRO %51(414) 14:29  9-JUN-76 PAGE 7
DBKDAM	MAC	 9-JUN-76 13:19		ARITHMETIC RELIABILITY TEST                                                    *** SEQ 0064

  1018					;*TEST OF IMUL AND IDIV
  1019					;*DIVIDE THEN MULTIPLY AND ADD REMAINDER
  1020
  1021	031077	000000	000000		FSTMDI:	0
  1022	031100	200 15 1 00 031077 		MOVE	IT,@.-1		;POINT TO INST
  1023	031101	561 14 0 00 777774 		HRROI	CNTR,-4
  1024	031102	264 00 0 00 031712 	FSMDI1:	JSR	RANNOV		;RANDOM, OV NOT POSSIBLE
  1025	031103	402 00 0 00 000013 		SETZM	CNTL
  1026	031104	264 00 0 00 031277 		JSR	DOINS		;XCT INST, RECORD FLAGS
  1027	031105	202 01 0 00 032167 		MOVEM	AC,DIVAC
  1028	031106	202 02 0 00 032170 		MOVEM	AC+1,DIVAC+1
  1029	031107	202 03 0 00 032171 		MOVEM	AC+2,DIVAC+2
  1030	031110	202 04 0 00 032172 		MOVEM	AC+3,DIVAC+3
  1031	031111	345 14 0 00 032002 		AOJGE	CNTR,GG		;IF JUMP PROG LOST
  1032	031112	255 10 0 00 031133 		JFCL	10,FSMDI2	;OV SET, DIVIDE ERROR
  1033	031113	336 00 0 00 047043 		SKIPN	MGNFLG		;MARGIN ALL ?
  1034	031114	254 00 0 00 031117 		JRST	.+3
  1035	031115	332 00 0 00 030055 		SKIPE	MARGIN
  1036	031116	7 000 14 0 00 030055 		DATAO	APR,MARGIN	;NO, SET MARGINS
  1037	031117	256 00 1 00 000015 		XCT	@IT		;MULTIPLY
  1038	031120	336 00 0 00 047043 		SKIPN	MGNFLG
  1039	031121	254 00 0 00 031124 		JRST	.+3
  1040	031122	332 00 0 00 030055 		SKIPE	MARGIN
  1041	031123	7 000 14 0 00 045660 		DATAO	APR,[IMGNOF,,ISPDOF]
  1042	031124	202 01 0 00 032173 		MOVEM	AC,MULAC
  1043	031125	202 02 0 00 032174 		MOVEM	AC+1,MULAC+1
  1044	031126	202 03 0 00 032175 		MOVEM	AC+2,MULAC+2
  1045	031127	202 04 0 00 032176 		MOVEM	AC+3,MULAC+3
  1046	031130	255 10 0 00 031133 		JFCL	10,FSMDI2	;MUL OR DIV ERROR
  1047	031131	270 01 0 00 032170 		ADD	AC,DIVAC+1
  1048	031132	312 01 0 00 000005 		CAME	AC,RA		;LOOK FOR ORIG
  1049	031133	264 00 0 00 031440 	FSMDI2:	JSR	FSTER		;ERROR
  1050	031134	341 14 0 00 031102 		AOJL	CNTR,FSMDI1	;NEXT PAIR
  1051	031135	254 00 1 00 031077 		JRST	@FSTMDI		;EXIT
DBKDA	DECSYSTEM10 KI10 ARITHMETIC RELIABILITY TEST, VER 0,3	MACRO %51(414) 14:29  9-JUN-76 PAGE 8
DBKDAM	MAC	 9-JUN-76 13:19		ARITHMETIC RELIABILITY TEST                                                    *** SEQ 0065

  1052					;*TEST OF MUL AND DIV
  1053					;*DIVIDE THEN MULTIPLY AND ADD REMAINDER
  1054
  1055	031136	000000	000000		FSTMD:	0
  1056	031137	200 15 1 00 031136 		MOVE	IT,@.-1		;POINT TO INST
  1057	031140	561 14 0 00 777776 		HRROI	CNTR,-2
  1058	031141	264 00 0 00 031712 	FSTMD1:	JSR	RANNOV		;RANDOM, OV NOT POSSIBLE
  1059	031142	402 00 0 00 000013 		SETZM	CNTL
  1060	031143	264 00 0 00 031277 		JSR	DOINS		;XCT INST, RECORD FLAGS
  1061	031144	202 01 0 00 032167 		MOVEM	AC,DIVAC
  1062	031145	202 02 0 00 032170 		MOVEM	AC+1,DIVAC+1
  1063	031146	202 03 0 00 032171 		MOVEM	AC+2,DIVAC+2
  1064	031147	202 04 0 00 032172 		MOVEM	AC+3,DIVAC+3
  1065	031150	345 14 0 00 032002 		AOJGE	CNTR,GG		;IF JUMP PROG LOST
  1066	031151	255 10 0 00 031201 		JFCL	10,FSTMD2	;OV SET, DIVIDE ERROR
  1067	031152	254 02 1 00 045661 		JRST	2,@[XWD 0,.+1]	;CLEAR FLAGS
  1068	031153	336 00 0 00 047043 		SKIPN	MGNFLG
  1069	031154	254 00 0 00 031157 		JRST	.+3
  1070	031155	332 00 0 00 030055 		SKIPE	MARGIN
  1071	031156	7 000 14 0 00 030055 		DATAO	APR,MARGIN
  1072	031157	256 00 1 00 000015 		XCT	@IT		;MULTIPLY
  1073	031160	336 00 0 00 047043 		SKIPN	MGNFLG
  1074	031161	254 00 0 00 031164 		JRST	.+3
  1075	031162	332 00 0 00 030055 		SKIPE	MARGIN
  1076	031163	7 000 14 0 00 045660 		DATAO	APR,[IMGNOF,,ISPDOF]
  1077	031164	202 01 0 00 032173 		MOVEM	AC,MULAC
  1078	031165	202 02 0 00 032174 		MOVEM	AC+1,MULAC+1
  1079	031166	202 03 0 00 032175 		MOVEM	AC+2,MULAC+2
  1080	031167	202 04 0 00 032176 		MOVEM	AC+3,MULAC+3
  1081	031170	265 00 0 00 031171 		JSP	.+1
  1082	031171	202 00 0 00 047105 		MOVEM	SECFLG#
  1083	031172	255 10 0 00 031201 		JFCL	10,FSTMD2	;MUL OR DIV ERROR
  1084	031173	255 17 0 00 031174 		JFCL	17,.+1
  1085	031174	270 02 0 00 032170 		ADD	AC+1,DIVAC+1
  1086	031175	255 02 0 00 031204 		JFCL	2,CRYFIX	;THE CRY 1 FLAG
  1087	031176	255 04 0 00 031206 		JFCL	4,CRY0FX
  1088	031177	316 01 0 00 000005 		CAMN	AC,RA
  1089	031200	312 02 0 00 000006 		CAME	AC+1,RA+1
  1090	031201	264 00 0 00 031440 	FSTMD2:	JSR	FSTER		;MUL OR DIV ERROR
  1091	031202	341 14 0 00 031141 		AOJL	CNTR,FSTMD1	;NEXT PAIR
  1092	031203	254 00 1 00 031136 		JRST	@FSTMD		;EXIT
  1093
  1094	031204	641 02 0 00 400000 	CRYFIX:	TLC	AC+1,400000
  1095	031205	344 01 0 00 031176 		AOJA	AC,FSTMD2-3
  1096
  1097	031206	641 02 0 00 400000 	CRY0FX:	TLC	AC+1,400000
  1098	031207	364 01 0 00 031177 		SOJA	AC,FSTMD2-2
DBKDA	DECSYSTEM10 KI10 ARITHMETIC RELIABILITY TEST, VER 0,3	MACRO %51(414) 14:29  9-JUN-76 PAGE 9
DBKDAM	MAC	 9-JUN-76 13:19		ARITHMETIC RELIABILITY TEST                                                    *** SEQ 0066

  1099					;*TEST OF FLOATING POINT
  1100					;*FP DIV THEN FP MUL
  1101
  1102	031210	000000	000000		FSTFP:	0
  1103	031211	200 15 1 00 031210 		MOVE	IT,@.-1		;POINT TO A FP INSTRUCTION
  1104	031212	561 14 0 00 777774 		HRROI	CNTR,-4		;4 ITEMS
  1105	031213	264 00 0 00 031734 	FSTFP1:	JSR	RANORM		;NORMALIZED RANDOM NUMBERS
  1106	031214	264 00 0 00 031277 		JSR	DOINS		;XCT INST, RECORD FLAGS
  1107	031215	202 11 0 00 046776 		MOVEM	FLAGS,FSTFLG#
  1108	031216	202 01 0 00 032167 		MOVEM	AC,DIVAC
  1109	031217	202 02 0 00 032170 		MOVEM	AC+1,DIVAC+1
  1110	031220	202 03 0 00 032171 		MOVEM	AC+2,DIVAC+2
  1111	031221	202 04 0 00 032172 		MOVEM	AC+3,DIVAC+3
  1112	031222	345 14 0 00 032002 		AOJGE	CNTR,GG		;IF JUMP PROG LOST
  1113	031223	264 00 0 00 031277 		JSR	DOINS		;DO A FMP
  1114	031224	202 01 0 00 032173 		MOVEM	AC,MULAC
  1115	031225	202 02 0 00 032174 		MOVEM	AC+1,MULAC+1
  1116	031226	202 03 0 00 032175 		MOVEM	AC+2,MULAC+2
  1117	031227	202 04 0 00 032176 		MOVEM	AC+3,MULAC+3
  1118	031230	312 01 0 00 000005 		CAME	AC,RA
  1119	031231	254 00 0 00 031234 		JRST	FSTFP3		;POSSIBLE ERROR
  1120	031232	341 14 0 00 031213 	FSTFP2:	AOJL	CNTR,FSTFP1	;NEXT PAIR
  1121	031233	254 00 1 00 031210 		JRST	@FSTFP		;EXIT
  1122
  1123	031234	202 11 0 00 047105 	FSTFP3:	MOVEM	FLAGS,SECFLG	;SAVE SECOND FLAGS
  1124	031235	200 11 0 00 046776 		MOVE	FLAGS,FSTFLG
  1125	031236	200 00 0 00 000001 		MOVE	AC		;RESULT NOT EQUAL TO ORIGINAL
  1126	031237	275 00 0 00 000001 		SUBI	1		;IF LARGER OR SMALLER
  1127	031240	316 00 0 00 000005 		CAMN	RA		;COMPARE IT
  1128	031241	254 00 0 00 031232 		JRST	FSTFP2		;OK
  1129	031242	275 00 0 00 000001 		SUBI	1
  1130	031243	316 00 0 00 000005 		CAMN	RA
  1131	031244	254 00 0 00 031232 		JRST	FSTFP2		;OK
  1132	031245	271 00 0 00 000003 		ADDI	3
  1133	031246	316 00 0 00 000005 		CAMN	RA
  1134	031247	254 00 0 00 031232 		JRST	FSTFP2		;OK
  1135	031250	271 00 0 00 000001 		ADDI	1
  1136	031251	312 00 0 00 000005 		CAME	RA
  1137	031252	264 00 0 00 031440 	FSTFP4:	JSR	FSTER		;ERROR, FIND WHAT FAILED
  1138	031253	254 00 0 00 031232 		JRST	FSTFP2		;OK
DBKDA	DECSYSTEM10 KI10 ARITHMETIC RELIABILITY TEST, VER 0,3	MACRO %51(414) 14:29  9-JUN-76 PAGE 10
DBKDAM	MAC	 9-JUN-76 13:19		ARITHMETIC RELIABILITY TEST                                                    *** SEQ 0067

  1139					;*TEST OF BYTE INSTRUCTIONS
  1140					;*COMPARE MACHINE RESULTS WITH SIMULATION
  1141
  1142	031254	000000	000000		BYTE:	0
  1143	031255	200 15 1 00 031254 		MOVE	IT,@.-1
  1144	031256	561 14 0 00 777773 		HRROI	CNTR,-5		;5 ITEMS
  1145	031257	264 00 0 00 031665 	BYTE1:	JSR	RANDOM		;GENERATE RANDOM NUMBERS
  1146	031260	205 13 0 00 200000 		MOVSI	CNTL,BYT	;FLAG FOR PRINTER
  1147	031261	242 07 0 00 777742 		LSH	RA+2,-^D30	;MAKE A BYTE
  1148	031262	242 03 0 00 777750 		LSH	AC+2,-^D24	;POINTER
  1149	031263	405 03 0 00 000077 		ANDI	AC+2,77		;IF THE POINTER (RIGHT HALF)
  1150	031264	606 14 0 00 000002 		TRNN	CNTR,2
  1151	031265	317 03 0 00 000007 		CAMG	AC+2,RA+2	;WILL BE INCREMENTED
  1152	031266	660 03 0 00 010000 		TRO	AC+2,10000	;POINT TO AC
  1153	031267	660 07 0 00 000100 		TRO	RA+2,100	;IF NO INCREMENT
  1154	031270	241 07 0 00 000036 		ROT	RA+2,^D30	;POINT TO AC+1
  1155	031271	241 03 0 00 000030 		ROT	AC+2,^D24
  1156	031272	273 03 0 00 000007 		ADDB	AC+2,RA+2	;THE POINTER IN RA+2, AC+2
  1157
  1158	031273	264 00 0 00 031340 		JSR	SIMIT		;SIMULATE
  1159	031274	264 00 0 00 031370 		JSR	DOIT		;XCT
  1160	031275	341 14 0 00 031257 		AOJL	CNTR,BYTE1	;ITERATE
  1161	031276	254 00 1 00 031254 		JRST	@BYTE		;EXIT
  1162
  1163					;*PERFORM THE MACHINE INSTRUCTION
  1164
  1165	031277	000000	000000		DOINS:	0
  1166	031300	254 02 1 00 045662 		JRST	2,@[XWD 0,.+1]	;CLEAR FLAGS
  1167	031301	603 13 0 00 400000 		TLNE	CNTL,DFP	;DOUBLE FLOAT FLAG SET ?
  1168	031302	254 00 0 00 031616 		JRST	DFPRTN		;YES, DO INSTR ROUTINES
  1169	031303	336 00 0 00 047043 	DOINS1:	SKIPN	MGNFLG		;MARGIN ALL ?
  1170	031304	254 00 0 00 031307 		JRST	.+3
  1171	031305	332 00 0 00 030055 		SKIPE	MARGIN
  1172	031306	7 000 14 0 00 030055 		DATAO	APR,MARGIN	;NO, SET MARGINS
  1173	031307	256 00 1 00 000015 		XCT	@IT
  1174	031310	336 00 0 00 047043 		SKIPN	MGNFLG
  1175	031311	254 00 0 00 031314 		JRST	.+3
  1176	031312	332 00 0 00 030055 		SKIPE	MARGIN
  1177	031313	7 000 14 0 00 045660 		DATAO	APR,[IMGNOF,,ISPDOF]
  1178	031314	265 00 0 00 031315 		JSP	.+1		;SAVE FLAGS
  1179	031315	332 00 0 00 046747 		SKIPE	CKOUTF		;CHECKOUT ?
  1180	031316	621 00 0 00 000600 		TLZ	0,400!200	;YES, CLEAR TN0,TN1
  1181	031317	502 00 0 00 000011 		HLLM	FLAGS		;IN FLAG REGISTR
  1182	031320	254 00 1 00 031277 		JRST	@DOINS
DBKDA	DECSYSTEM10 KI10 ARITHMETIC RELIABILITY TEST, VER 0,3	MACRO %51(414) 14:29  9-JUN-76 PAGE 11
DBKDAM	MAC	 9-JUN-76 13:19		ARITHMETIC RELIABILITY TEST                                                    *** SEQ 0068

  1183					;*TEST INSTRUCTION BY COMPARING MACHINE RESULTS
  1184					;*WITH SIMULATION RESULTS
  1185
  1186	031321	000000	000000		MD:	0
  1187	031322	200 15 1 00 031321 		MOVE	IT,@.-1
  1188	031323	561 14 0 00 777770 		HRROI	CNTR,-10	;GROUPS OF 8
  1189	031324	607 13 0 00 400000 	MD1:	TLNN	CNTL,DFP	;DOUBLE FLOAT FLAG SET ?
  1190	031325	254 00 0 00 031332 		JRST	MD2		;NO
  1191	031326	336 00 0 00 046747 		SKIPN	CKOUTF		;YES, CHECKOUT ?
  1192	031327	254 00 0 00 031332 		JRST	MD2		;NO
  1193	031330	264 00 0 00 031734 		JSR	RANORM		;YES, GENERATE NORMALIZED RANDOM
  1194	031331	254 00 0 00 031333 		JRST	MD2+1
  1195	031332	264 00 0 00 031665 	MD2:	JSR	RANDOM		;GENERATE RANDOM NUMBERS
  1196	031333	513 00 0 00 000013 		HLLZS	CNTL		;CLEAR CONTROL SWITCHES
  1197	031334	264 00 0 00 031340 		JSR	SIMIT		;SIMULATE INSTRUCTION
  1198	031335	264 00 0 00 031370 		JSR	DOIT		;XCT INSTRUCTION
  1199	031336	341 14 0 00 031324 		AOJL	CNTR,MD1	;ITERATE
  1200	031337	254 00 1 00 031321 		JRST	@MD		;EXIT
  1201
  1202					;*SIMULATE THE INSTRUCTION
  1203
  1204	031340	000000	000000		SIMIT:	0
  1205						SAVEM	RA,1^
  1206	031341	202 05 0 12 000001 		MOVEM	RA,1(ACSP)	;MOVE TO MEMORY
  1207	031342	202 06 0 12 000002 		MOVEM	RA+1,1+1(ACSP)
  1208	031343	202 07 0 12 000003 		MOVEM	RA+2,1+2(ACSP)
  1209	031344	202 10 0 12 000004 		MOVEM	RA+3,1+3(ACSP)
  1210	031345	001 00 1 00 000015 		SINST	@IT		;SIMULATE, RESULTS IN ACS
  1211	031346	254 00 1 00 031340 		JRST	@SIMIT
  1212
  1213					;*COMPARE MACHINE RESULTS AGAINST SIMULATOR
  1214
  1215	031347	000000	000000		CHECK:	0
  1216	031350	544 11 0 00 047061 		HLR	FLAGS,PCSAV#
  1217	031351	621 11 0 00 012000 		TLZ	FLAGS,USERF!LIP	;CLEAR MISC
  1218	031352	204 00 0 00 000011 		MOVS	FLAGS
  1219	031353	312 00 0 00 000011 		CAME	FLAGS		;COMPARE FLAGS
  1220	031354	541 13 0 00 000011 		HRRI	CNTL,FLAGS
  1221	031355	312 04 0 12 000004 		CAME	AC+3,4(ACSP)	;COMPARE AC+3
  1222	031356	541 13 0 00 000004 		HRRI	CNTL,AC+3
  1223	031357	312 03 0 12 000003 		CAME	AC+2,3(ACSP)	;COMPARE AC+2
  1224	031360	541 13 0 00 000003 		HRRI	CNTL,AC+2
  1225	031361	603 13 0 00 400000 		TLNE	CNTL,DFP	;DOUBLE FLOATING POINT
  1226	031362	254 00 0 00 031536 		JRST	CHECK2		;YES, CHECK RESULT LS +-1
  1227	031363	312 02 0 12 000002 		CAME	AC+1,2(ACSP)	;COMPARE AC+1
  1228	031364	541 13 0 00 000002 		HRRI	CNTL,AC+1
  1229	031365	312 01 0 12 000001 	CHECK1:	CAME	AC,1(ACSP)	;COMPARE AC
  1230	031366	541 13 0 00 000001 		HRRI	CNTL,AC
  1231	031367	254 00 1 00 031347 		JRST	@CHECK
DBKDA	DECSYSTEM10 KI10 ARITHMETIC RELIABILITY TEST, VER 0,3	MACRO %51(414) 14:29  9-JUN-76 PAGE 12
DBKDAM	MAC	 9-JUN-76 13:19		ARITHMETIC RELIABILITY TEST                                                    *** SEQ 0069

  1232					;*PERFORM THE INSTRUCTION
  1233
  1234	031370	000000	000000		DOIT:	0
  1235	031371	264 00 0 00 031277 		JSR	DOINS		;XCT THE INSTRUCTION
  1236	031372	607 13 0 00 040000 		TLNN	CNTL,ER		;BYPASS IF ERROR
  1237	031373	264 00 0 00 031347 		JSR	CHECK		;CHECK FOR VALID DATA
  1238	031374	606 13 0 00 777777 		TRNN	CNTL,-1
  1239	031375	254 00 1 00 031370 		JRST	@DOIT		;EXIT, NO ERRORS
  1240	031376	336 00 0 00 030037 		SKIPN	USER
  1241	031377	7 004 14 0 13 000000 	DOIT1:	DATAO	PI,(CNTL)	;LOAD MI WITH FAILURE
  1242	031400	663 13 0 00 040000 		TLOE	CNTL,ER		;SET ERROR FLAG
  1243	031401	254 00 0 00 031661 		JRST	DOIT4		;SEE IF PRINT ALL ERRORS
  1244						MOVEI	[ASCIZ/
  1245					**********
  1246					SIMULATION COMPARISION FAILURE
  1247	031402	201 00 0 00 045663 	/]
  1248	031403	037 17 0 00 000000 		PNTAL
  1249	031404	264 00 0 00 031552 		JSR	TTLPNT
  1250	031405	264 00 0 00 032015 		JSR	RESULT		;PRINT MACHINE RESULTS
  1251	031406	264 00 0 00 032006 		JSR	PNTSIM		;PRINT SIMULATION
  1252
  1253	031407	202 13 0 00 047077 	DOIT2:	MOVEM	CNTL,SAVCNT#	;SAVE CNTL
  1254	031410	620 13 0 00 777777 		TRZ	CNTL,-1		;CLEAR RIGHT HALF
  1255	031411	264 00 0 00 031347 		JSR	CHECK
  1256	031412	200 01 0 00 000005 		MOVE	AC,RA
  1257	031413	200 02 0 00 000006 		MOVE	AC+1,RA+1
  1258	031414	200 03 0 00 000007 		MOVE	AC+2,RA+2
  1259	031415	200 04 0 00 000010 		MOVE	AC+3,RA+3
  1260	031416	037 10 0 00 000002 		SWITCH			;READ SWITCHES
  1261	031417	603 00 0 00 002000 		TLNE	ERSTOP		;HALT AND SAVE AC'S?
  1262	031420	264 00 0 00 031611 		JSR	GOING		;YES
  1263	031421	603 00 0 00 004000 		TLNE	LOOPER		;PROCEED SWITCH SET?
  1264	031422	254 00 0 00 031426 		JRST	.+4		;NO
  1265	031423	264 00 0 00 031432 		JSR	DOIT3		;YES, GO RING BELL
  1266	031424	621 13 0 00 040000 		TLZ	CNTL,ER		;CLEAR ER FLAG
  1267	031425	254 00 1 00 031370 		JRST	@DOIT		;AND CONT WITH PROG
  1268	031426	602 13 0 00 777777 		TRNE	CNTL,-1		;HAD AN ERROR?
  1269	031427	264 00 0 00 031432 		JSR	DOIT3		;YES, GO RING BELL
  1270	031430	200 13 0 00 047077 		MOVE	CNTL,SAVCNT	;RESTORE CNTL
  1271	031431	254 00 0 00 031371 		JRST	DOIT+1		;CYCLE ERROR
  1272
  1273	031432	000000	000000		DOIT3:	0
  1274	031433	607 00 0 00 010000 		TLNN	DING		;RING BELL ON ERROR ?
  1275	031434	254 00 1 00 031432 		JRST	@DOIT3		;NO
  1276	031435	201 00 0 00 030256 		MOVEI	BELL
  1277	031436	037 00 0 00 000001 		PNTAF			;RING TTY BELL
  1278	031437	254 00 1 00 031432 		JRST	@DOIT3
DBKDA	DECSYSTEM10 KI10 ARITHMETIC RELIABILITY TEST, VER 0,3	MACRO %51(414) 14:29  9-JUN-76 PAGE 13
DBKDAM	MAC	 9-JUN-76 13:19		ARITHMETIC RELIABILITY TEST                                                    *** SEQ 0070

  1279					;*DETERMINE IF FIRST OR SECOND OPERATION CAUSED FAILURE
  1280
  1281	031440	000000	000000		FSTER:	0
  1282	031441	402 00 0 00 046765 		SETZM	FAIL1#
  1283	031442	275 14 0 00 000001 		SUBI	CNTR,1		;POINT TO FIRST INSTRUCTION
  1284	031443	264 00 0 00 031340 		JSR	SIMIT		;SIMULATE
  1285	031444	200 01 0 00 032167 		MOVE	AC,DIVAC	;RESTORE FIRST RESULTS
  1286	031445	200 02 0 00 032170 		MOVE	AC+1,DIVAC+1
  1287	031446	200 03 0 00 032171 		MOVE	AC+2,DIVAC+2
  1288	031447	200 04 0 00 032172 		MOVE	AC+3,DIVAC+3
  1289	031450	620 13 0 00 777777 		TRZ	CNTL,-1
  1290	031451	264 00 0 00 031347 		JSR	CHECK		;CHECK SIM VS ACTUAL
  1291	031452	606 13 0 00 777777 		TRNN	CNTL,-1
  1292	031453	344 14 0 00 031472 		AOJA	CNTR,FSTER2	;LOOKS LIKE SECOND OP FAILED
  1293
  1294	031454				FSTER1:	MOVEI	[ASCIZ/
  1295					**********
  1296					INSTRUCTION COMPARISION FAILURE
  1297	031454	201 00 0 00 045675 	/]
  1298	031455	037 17 0 00 000000 		PNTAL
  1299	031456	264 00 0 00 031552 		JSR	TTLPNT
  1300	031457	264 00 0 00 032015 		JSR	RESULTS		;FIRST OP FAILED, PRINT RESULTS
  1301						SAVEM	RA,1^
  1302	031460	202 05 0 12 000001 		MOVEM	RA,1(ACSP)	;MOVE TO MEMORY
  1303	031461	202 06 0 12 000002 		MOVEM	RA+1,1+1(ACSP)
  1304	031462	202 07 0 12 000003 		MOVEM	RA+2,1+2(ACSP)
  1305	031463	202 10 0 12 000004 		MOVEM	RA+3,1+3(ACSP)
  1306	031464	264 00 0 00 032006 		JSR	PNTSIM		;PRINT SIMULATION
  1307	031465	661 13 0 00 040000 		TLO	CNTL,ER		;SET ER FLAG
  1308	031466	264 00 0 00 031370 		JSR	DOIT		;SCOPE LOOP
  1309	031467	336 00 0 00 046765 		SKIPN	FAIL1		;FIRST OP FAILURE ?
  1310	031470	345 14 0 00 032002 		AOJGE	CNTR,GG		;YES, INC CNTR; IF JUMP PROG LOST
  1311	031471	254 00 1 00 031440 		JRST	@FSTER		;EXIT
  1312
  1313	031472	476 00 0 00 046765 	FSTER2:	SETOM	FAIL1
  1314	031473	200 05 0 00 032167 		MOVE	RA,DIVAC
  1315	031474	200 06 0 00 032170 		MOVE	RA+1,DIVAC+1
  1316	031475	200 07 0 00 032171 		MOVE	RA+2,DIVAC+2
  1317	031476	200 04 0 00 032172 		MOVE	AC+3,DIVAC+3
  1318	031477	200 01 0 00 032173 		MOVE	AC,MULAC
  1319	031500	200 02 0 00 032174 		MOVE	AC+1,MULAC+1
  1320	031501	200 03 0 00 032175 		MOVE	AC+2,MULAC+2
  1321	031502	200 04 0 00 032176 		MOVE	AC+3,MULAC+3
  1322	031503	264 00 0 00 031340 		JSR	SIMIT		;SIMULATE SECOND OP
  1323	031504	500 11 0 00 047105 		HLL	FLAGS,SECFLG	;GET FLAGS FROM SECOND OP
  1324	031505	264 00 0 00 031347 		JSR	CHECK		;CHECK SIM VS ACTUAL
  1325	031506	602 13 0 00 777777 		TRNE	CNTL,-1		;DID SECOND FAIL ?
  1326	031507	254 00 0 00 031454 		JRST	FSTER1		;YES, PRINT RESULTS
  1327	031510	254 00 1 00 031440 		JRST	@FSTER		;NO, SIM SAYS BOTH OK...CONTINUE
DBKDA	DECSYSTEM10 KI10 ARITHMETIC RELIABILITY TEST, VER 0,3	MACRO %51(414) 14:29  9-JUN-76 PAGE 14
DBKDAM	MAC	 9-JUN-76 13:19		ARITHMETIC RELIABILITY TEST                                                    *** SEQ 0071

  1328					;*UUO ROUTINES
  1329					;*SIMULATE SINGLE INSTRUCTION, NO PRINTOUT
  1330
  1331	031511	476 00 0 00 032376 	SIMNST:	SETOM	MASK		;INHIBIT PRINTOUT
  1332	031512	200 00 0 00 045707 		MOVE	[XWD 1,SAVAC+1]
  1333	031513	251 00 0 00 032166 		BLT	SAVAC+17
  1334	031514	550 00 0 00 030113 		HRRZ	$SVUUO
  1335	031515	202 00 0 00 032375 		MOVEM	INPC		;SETUP PC
  1336	031516	402 00 0 00 032377 		SETZM	INSTR
  1337	031517	402 00 0 00 032400 		SETZM	CNTLPC
  1338	031520	476 00 0 00 047112 		SETOM	SNGLIN		;SET SINGLE INSTRUCTION CONTROL
  1339	031521	402 00 0 00 047111 		SETZM	SNGL2		;SET FOR FIRST INSTR
  1340	031522	260 17 0 00 032320 		GO	SENTRY		;GO TO SIMULATOR
  1341	031523	200 00 0 00 000013 		MOVE	PC
  1342	031524	621 00 0 00 000600 		TLZ	400!200		;CLEAR TN0,TN1
  1343	031525	265 01 0 00 031526 		JSP	1,.+1		;GET ACTUAL FLAGS
  1344	031526	607 01 0 00 010000 		TLNN	1,USERF		;USER MODE ?
  1345	031527	621 00 0 00 400000 		TLZ	AROV		;NO,CLEAR OV FLAG
  1346	031530	202 00 0 00 047061 		MOVEM	PCSAV#		;SAVE PC FLAGS
  1347	031531	204 00 0 00 045707 		MOVS	[XWD 1,SAVAC+1]
  1348	031532	251 00 0 00 000017 		BLT	17
  1349	031533	254 00 0 00 030065 		JRST	UUOEXT		;EXIT UUO
  1350
  1351					;*SIMULATE SINGLE INSTRUCTION, PRINT STATES
  1352
  1353	031534	402 00 0 00 032376 	SIMMT:	SETZM	MASK		;ALLOW PRINTOUT
  1354	031535	254 00 0 00 031512 		JRST	SIMNST+1	;REST SAME AS ABOVE
  1355
  1356	031536	336 00 0 00 046747 	CHECK2:	SKIPN	CKOUTF		;CHECKOUT ?
  1357	031537	254 00 0 00 031363 		JRST	CHECK1-2	;NO
  1358	031540	316 02 0 12 000002 		CAMN	AC+1,2(ACSP)	;CHECK DBL FP LS +-1
  1359	031541	254 00 0 00 031365 		JRST	CHECK1
  1360	031542	275 02 0 00 000001 		SUBI	AC+1,1
  1361	031543	316 02 0 12 000002 		CAMN	AC+1,2(ACSP)
  1362	031544	254 00 0 00 031365 		JRST	CHECK1
  1363	031545	271 02 0 00 000002 		ADDI	AC+1,2
  1364	031546	316 02 0 12 000002 		CAMN	AC+1,2(ACSP)
  1365	031547	254 00 0 00 031365 		JRST	CHECK1
  1366	031550	275 02 0 00 000001 		SUBI	AC+1,1
  1367	031551	254 00 0 00 031364 		JRST	CHECK1-1
DBKDA	DECSYSTEM10 KI10 ARITHMETIC RELIABILITY TEST, VER 0,3	MACRO %51(414) 14:29  9-JUN-76 PAGE 15
DBKDAM	MAC	 9-JUN-76 13:19		ARITHMETIC RELIABILITY TEST                                                    *** SEQ 0072

  1368					;*PRINT PROGRAM TITLE AND PASS COUNT
  1369
  1370	031552	000000	000000		TTLPNT:	0
  1371	031553	336 00 0 00 046764 		SKIPN	ERRFST#
  1372	031554	037 04 0 00 000002 		PNTNM
  1373	031555	476 00 0 00 046764 		SETOM	ERRFST
  1374	031556	350 00 0 00 030053 		AOS	ERRTLS		;INCREMENT ERROR TOTALS
  1375	031557	332 00 0 00 030037 		SKIPE	USER		;USER MODE ?
  1376	031560	254 00 0 00 031567 		JRST	TLPNT1
  1377	031561	200 00 0 00 030046 		MOVE	0,CONSW
  1378	031562	602 00 0 00 000200 		TRNE	INHCLK		;CLOCK INHIBITED ?
  1379	031563	254 00 0 00 031567 		JRST	TLPNT1		;YES
  1380	031564	200 00 0 00 030054 		MOVE	0,TICKS
  1381	031565	301 00 0 00 106240 		CAIL	^D<60*60*10>
  1382	031566	264 00 0 00 032200 		JSR	RUNTIM
  1383	031567				TLPNT1:	MOVEI	[ASCIZ/
  1384	031567	201 00 0 00 045710 	BASE RANDOM NUMBER = /]
  1385	031570	037 17 0 00 000000 		PNTAL
  1386	031571	200 00 0 00 030022 		MOVE	0,RANDBS
  1387	031572	037 13 0 00 000000 		PNTHW			;PRINT RANDOM NUMBER BASE
  1388	031573	201 00 0 00 030242 		MOVEI	CRLF
  1389	031574	037 00 0 00 000000 		PNTA
  1390	031575	037 16 0 00 000002 		PNTMGN			;PRINT MARGINS
  1391	031576	200 00 0 00 030047 		MOVE	PASCNT
  1392	031577	316 00 0 00 047066 		CAMN	PSCTR1#
  1393	031600	254 00 1 00 031552 		JRST	@TTLPNT
  1394						MOVEI	[ASCIZ/
  1395	031601	201 00 0 00 045715 	TEST PASS COUNT = /]
  1396	031602	037 17 0 00 000000 		PNTAL
  1397	031603	200 00 0 00 030047 		MOVE	PASCNT
  1398	031604	202 00 0 00 047066 		MOVEM	PSCTR1
  1399	031605	037 15 0 00 000000 		PNTDEC
  1400	031606	201 00 0 00 030242 		MOVEI	CRLF
  1401	031607	037 00 0 00 000000 		PNTA
  1402	031610	254 00 1 00 031552 		JRST	@TTLPNT
  1403
  1404					;*ERROR STOP
  1405
  1406	031611	000000	000000		GOING:	0
  1407	031612	7 000 24 0 00 030110 		CONI	APR,$SVAPR
  1408	031613	7 004 24 0 00 030107 		CONI	PI,$SVPI
  1409	031614	7 004 20 0 00 000400 		CONO	PI,PIOFF
  1410	031615	254 04 1 00 031611 		HALT	@GOING
DBKDA	DECSYSTEM10 KI10 ARITHMETIC RELIABILITY TEST, VER 0,3	MACRO %51(414) 14:29  9-JUN-76 PAGE 16
DBKDAM	MAC	 9-JUN-76 13:19		ARITHMETIC RELIABILITY TEST                                                    *** SEQ 0073

  1411					;*DOUBLE FLOATING POINT ROUTINES
  1412
  1413	031616	336 00 0 00 046747 	DFPRTN:	SKIPN	CKOUTF		;CHECKOUT ?
  1414	031617	254 00 0 00 031303 		JRST	DOINS1		;NO
  1415	031620	200 00 0 00 045707 		MOVE	[XWD 1,SAVAC+1]
  1416	031621	251 00 0 00 032166 		BLT	SAVAC+17
  1417	031622	200 00 1 00 000015 		MOVE	@IT
  1418	031623	242 00 0 00 777745 		LSH	-^D27
  1419	031624	275 00 0 00 000110 		SUBI	110
  1420	031625	202 00 0 00 000015 		MOVEM	IT		;SETUP TABLE INDEX
  1421	031626	200 00 0 00 000001 		MOVE	0,AC		;SETUP OPERANDS
  1422	031627	200 01 0 00 000002 		MOVE	1,AC+1
  1423	031630	201 16 0 00 000003 		MOVEI	Q,AC+2
  1424	031631	256 00 0 15 031641 		XCT	DFPTAB(IT)	;DO ROUTINE
  1425	031632	202 00 0 00 047130 		MOVEM	0,SVE0#
  1426	031633	202 01 0 00 047131 		MOVEM	1,SVE1#
  1427	031634	204 00 0 00 045707 		MOVS	[XWD 1,SAVAC+1]
  1428	031635	251 00 0 00 000017 		BLT	17
  1429	031636	200 01 0 00 047130 		MOVE	1,SVE0		;SETUP RESULTS
  1430	031637	200 02 0 00 047131 		MOVE	2,SVE1
  1431	031640	254 00 0 00 031304 		JRST	DOINS1+1
  1432
  1433					;*SOFTWARE ROUTINE POINTER TABLE
  1434
  1435	031641	260 17 0 00 034531 	DFPTAB:	GO	DFA.0		;DFAD
  1436	031642	260 17 0 00 034521 		GO	DFS.0		;DFSB
  1437	031643	260 17 0 00 034720 		GO	DFM.0		;DFMP
  1438	031644	260 17 0 00 035002 		GO	DFD.0		;DFDV
  1439	031645	254 00 0 00 032002 		JRST	GG		;114
  1440	031646	254 00 0 00 032002 		JRST	GG		;115
  1441	031647	254 00 0 00 032002 		JRST	GG		;116
  1442	031650	254 00 0 00 032002 		JRST	GG		;117
  1443	031651	254 00 0 00 032002 		JRST	GG		;120
  1444	031652	254 00 0 00 032002 		JRST	GG		;121
  1445	031653	260 17 0 00 035062 		GO	FIX.0		;FIX
  1446	031654	254 00 0 00 032002 		JRST	GG		;123
  1447	031655	254 00 0 00 032002 		JRST	GG		;124
  1448	031656	254 00 0 00 032002 		JRST	GG		;125
  1449	031657	260 17 0 00 035060 		GO	FIXR.0		;FIXR
  1450	031660	260 17 0 00 035120 		GO	FLTR.0		;FLTR
  1451
  1452					;*CHECK PRINT ALL ERRORS SWITCH
  1453
  1454	031661	037 10 0 00 000002 	DOIT4:	SWITCH
  1455	031662	607 00 0 00 001000 		TLNN	PALERS		;PRINT ALL ERRORS ?
  1456	031663	254 00 0 00 031407 		JRST	DOIT2		;NO, DON'T PRINT...NOT FIRST
  1457	031664	254 00 0 00 031402 		JRST	DOIT1+3
DBKDA	DECSYSTEM10 KI10 ARITHMETIC RELIABILITY TEST, VER 0,3	MACRO %51(414) 14:29  9-JUN-76 PAGE 17
DBKDAM	MAC	 9-JUN-76 13:19		ARITHMETIC RELIABILITY TEST                                                    *** SEQ 0074

  1458					;*RANDOM NUMBER GENERATION
  1459					;*FOUR RANDOM IN AC,AC+1,AC+2,AC+3
  1460					;*A COPY ALSO IN RA,RA+1,RA+2,RA+3
  1461
  1462	031665	000000	000000		RANDOM:	0
  1463	031666	037 10 0 00 000002 		SWITCH
  1464	031667	603 00 0 00 300000 		TLNE	RSTART!TOTALS
  1465	031670	264 00 0 00 032224 		JSR	PNTTOT
  1466	031671	200 01 0 00 000005 		MOVE	AC,RA
  1467	031672	270 01 0 00 045722 		ADD	AC,[543217335216]
  1468	031673	241 01 0 00 777777 		ROT	AC,-1
  1469	031674	447 01 0 00 000005 		EQVB	AC,RA		;RANDOM 1
  1470	031675	204 02 0 00 000005 		MOVS	AC+1,RA
  1471	031676	270 02 0 00 045723 		ADD	AC+1,[165742176525]
  1472	031677	241 02 0 00 777777 		ROT	AC+1,-1
  1473	031700	447 02 0 00 000006 		EQVB	AC+1,RA+1	;RANDOM 2
  1474	031701	204 03 0 00 000006 		MOVS	AC+2,RA+1
  1475	031702	270 03 0 00 045724 		ADD	AC+2,[147532173543]
  1476	031703	241 03 0 00 777777 		ROT	AC+2,-1
  1477	031704	447 03 0 00 000007 		EQVB	AC+2,RA+2	;RANDOM 3
  1478	031705	204 04 0 00 000007 		MOVS	AC+3,RA+2
  1479	031706	270 04 0 00 045725 		ADD	AC+3,[731341527517]
  1480	031707	241 04 0 00 777777 		ROT	AC+3,-1
  1481	031710	447 04 0 00 000010 		EQVB	AC+3,RA+3	;RANDOM 4
  1482	031711	254 00 1 00 031665 		JRST	@RANDOM
  1483
  1484					;*RANDOM NUMBER GENERATION
  1485					;*OVERFLOW NOT POSSIBLE FOR DIVIDE
  1486
  1487	031712	000000	000000		RANNOV:	0
  1488	031713	264 00 0 00 031665 		JSR	RANDOM
  1489	031714	214 00 0 00 000003 		MOVM	AC+2
  1490	031715	216 05 0 00 047143 		MOVMM	RA,TEMP#
  1491	031716	316 00 0 00 047143 		CAMN	TEMP
  1492	031717	254 00 0 00 031713 		JRST	RANNOV+1	;DIVISOR=HI DIVIDEND
  1493	031720	311 00 0 00 047143 		CAML	TEMP
  1494	031721	254 00 0 00 031724 		JRST	.+3
  1495	031722	250 01 0 00 000003 		EXCH	AC,AC+2		;DIVISOR SMALLER, EXCHANGE
  1496	031723	250 05 0 00 000007 		EXCH	RA,RA+2		;TO MAKE LARGER
  1497	031724	322 07 0 00 031713 		JUMPE	RA+2,RANNOV+1
  1498	031725	606 03 0 00 777777 		TRNN	AC+2,-1
  1499	031726	254 00 0 00 031713 		JRST	RANNOV+1	;REJECT IF 0 FOR IDIV1
  1500	031727	621 02 0 00 400000 		TLZ	AC+1,400000
  1501	031730	603 01 0 00 400000 		TLNE	AC,400000
  1502	031731	661 02 0 00 400000 		TLO	AC+1,400000
  1503	031732	202 02 0 00 000006 		MOVEM	AC+1,RA+1
  1504	031733	254 00 1 00 031712 		JRST	@RANNOV
DBKDA	DECSYSTEM10 KI10 ARITHMETIC RELIABILITY TEST, VER 0,3	MACRO %51(414) 14:29  9-JUN-76 PAGE 18
DBKDAM	MAC	 9-JUN-76 13:19		ARITHMETIC RELIABILITY TEST                                                    *** SEQ 0075

  1505					;*RANDOM NUMBER GENERATION
  1506					;*NORMALIZED RANDOM FOR FLOATING POINT
  1507
  1508	031734	000000	000000		RANORM:	0
  1509	031735	264 00 0 00 031665 		JSR	RANDOM
  1510						NORM	RA+3,AC+3^
  1511	031736	603 10 0 00 400000 		TLNE	RA+3,400000	;NORMALIZE RA+3 NUMBER
  1512	031737	625 10 0 00 000400 		TLZA	RA+3,400
  1513	031740	661 10 0 00 000400 		TLO	RA+3,400
  1514	031741	616 10 0 00 045726 		TDNN	RA+3,[377777777777]
  1515	031742	350 10 0 00 000004 		AOS	RA+3,AC+3
  1516	031743	202 10 0 00 000004 		MOVEM	RA+3,AC+3
  1517						NORM	RA+2,AC+2^
  1518	031744	603 07 0 00 400000 		TLNE	RA+2,400000	;NORMALIZE RA+2 NUMBER
  1519	031745	625 07 0 00 000400 		TLZA	RA+2,400
  1520	031746	661 07 0 00 000400 		TLO	RA+2,400
  1521	031747	616 07 0 00 045726 		TDNN	RA+2,[377777777777]
  1522	031750	350 07 0 00 000003 		AOS	RA+2,AC+2
  1523	031751	202 07 0 00 000003 		MOVEM	RA+2,AC+2
  1524						NORM	RA+1,AC+1^
  1525	031752	603 06 0 00 400000 		TLNE	RA+1,400000	;NORMALIZE RA+1 NUMBER
  1526	031753	625 06 0 00 000400 		TLZA	RA+1,400
  1527	031754	661 06 0 00 000400 		TLO	RA+1,400
  1528	031755	616 06 0 00 045726 		TDNN	RA+1,[377777777777]
  1529	031756	350 06 0 00 000002 		AOS	RA+1,AC+1
  1530	031757	202 06 0 00 000002 		MOVEM	RA+1,AC+1
  1531						NORM	RA,AC^
  1532	031760	603 05 0 00 400000 		TLNE	RA,400000	;NORMALIZE RA NUMBER
  1533	031761	625 05 0 00 000400 		TLZA	RA,400
  1534	031762	661 05 0 00 000400 		TLO	RA,400
  1535	031763	616 05 0 00 045726 		TDNN	RA,[377777777777]
  1536	031764	350 05 0 00 000001 		AOS	RA,AC
  1537	031765	202 05 0 00 000001 		MOVEM	RA,AC
  1538	031766	254 00 1 00 031734 		JRST	@RANORM
  1539
  1540					;*SETUP MARGINS FOR ALL OR JUST INST EXECUTE
  1541
  1542	031767	000000	000000		MGNCLR:	0
  1543	031770	402 00 0 00 047043 		SETZM	MGNFLG#
  1544	031771	332 00 0 00 030037 		SKIPE	USER		;USER MODE ?
  1545	031772	254 00 1 00 031767 		JRST	@MGNCLR		;YES
  1546	031773	200 00 0 00 030046 		MOVE	0,CONSW
  1547	031774	606 00 0 00 100000 		TRNN	MGNTST		;MARGIN INST EXECUTE ONLY ?
  1548	031775	254 00 1 00 031767 		JRST	@MGNCLR		;NO, MARGIN ALL
  1549	031776	476 00 0 00 047043 		SETOM	MGNFLG		;YES, SET CONTROL FLAG
  1550	031777	332 00 0 00 030055 		SKIPE	MARGIN
  1551	032000	7 000 14 0 00 045660 		DATAO	APR,[IMGNOF,,ISPDOF] ;CLEAR MARGINS
  1552	032001	254 00 1 00 031767 		JRST	@MGNCLR
DBKDA	DECSYSTEM10 KI10 ARITHMETIC RELIABILITY TEST, VER 0,3	MACRO %51(414) 14:29  9-JUN-76 PAGE 19
DBKDAM	MAC	 9-JUN-76 13:19		ARITHMETIC RELIABILITY TEST                                                    *** SEQ 0076

  1553	032002				GG:	MOVEI	[ASCIZ/
  1554					INTERNAL PROGRAM PROBLEM, SUGGEST RELOAD, RESTART !
  1555	032002	201 00 0 00 045727 	/]
  1556	032003	037 17 0 00 000001 		PNTALF
  1557	032004	037 14 0 00 000004 		ERRHLT
  1558	032005	254 00 0 00 030000 		JRST	BEGIN
  1559
  1560					;*SIMULATE AND PRINT THE INSTRUCTION
  1561
  1562	032006	000000	000000		PNTSIM:	0
  1563						SAVEM	RA,1^
  1564	032007	202 05 0 12 000001 		MOVEM	RA,1(ACSP)	;MOVE TO MEMORY
  1565	032010	202 06 0 12 000002 		MOVEM	RA+1,1+1(ACSP)
  1566	032011	202 07 0 12 000003 		MOVEM	RA+2,1+2(ACSP)
  1567	032012	202 10 0 12 000004 		MOVEM	RA+3,1+3(ACSP)
  1568	032013	002 00 1 00 000015 		SMT	@IT		;SIMULATE AND PRINT
  1569	032014	254 00 1 00 032006 		JRST	@PNTSIM
  1570
  1571
  1572					;*PRINT FAST TEST FAILURE RESULTS
  1573
  1574	032015	000000	000000		RESULT:	0
  1575	032016	476 00 0 00 030223 		SETOM	PNTSPC		;SET TO SPACE AFTER OCTALS
  1576						MOVEI	[ASCIZ/
  1577	032017	201 00 0 00 045743 	FLAGS FROM MACH & SIMULATE   /]
  1578	032020	037 17 0 00 000000 		PNTAL
  1579	032021	200 00 0 00 000011 		MOVE	FLAGS
  1580	032022	037 13 0 00 000000 		PNTHW
  1581	032023				RSLTS1:	MOVEI	[ASCIZ/
  1582	032023	201 00 0 00 045752 	MACHINE RESULTS IN AC,AC+1,E   /]
  1583	032024	603 13 0 00 200000 		TLNE	CNTL,BYT	;BYTE ERROR
  1584						MOVEI	[ASCIZ/
  1585	032025	201 00 0 00 045761 	MACHINE RESULTS IN AC,POINTER,E   /]
  1586	032026	037 17 0 00 000000 		PNTAL
  1587	032027	200 00 0 00 000001 		MOVE	AC
  1588	032030	037 14 0 00 000000 		PNTOCT			;PRINT MACHINE AC
  1589	032031	603 13 0 00 200000 		TLNE	CNTL,BYT
  1590	032032	250 02 0 00 000003 		EXCH	AC+1,AC+2
  1591	032033	200 00 0 00 000002 		MOVE	AC+1
  1592	032034	037 14 0 00 000000 		PNTOCT			;PRINT AC+1
  1593	032035	200 00 0 00 000003 		MOVE	AC+2
  1594	032036	037 14 0 00 000000 		PNTOCT			;PRINT AC+2, (E)
  1595	032037	201 00 0 00 030242 		MOVEI	CRLF
  1596	032040	037 00 0 00 000000 		PNTA
  1597	032041	254 00 1 00 032015 		JRST	@RESULT
DBKDA	DECSYSTEM10 KI10 ARITHMETIC RELIABILITY TEST, VER 0,3	MACRO %51(414) 14:29  9-JUN-76 PAGE 20
DBKDAM	MAC	 9-JUN-76 13:19		ARITHMETIC RELIABILITY TEST                                                    *** SEQ 0077

  1598					;*THE INSTRUCTIONS TESTED
  1599
  1600					;*INTERGER FIXED POINT
  1601	032042	230 01 0 00 000003 	FIXEDI:	IDIV	AC,AC+2
  1602	032043	220 01 0 00 000003 		IMUL	AC,AC+2
  1603	032044	231 01 0 03 000000 		IDIVI	AC,(AC+2)
  1604	032045	221 01 0 03 000000 		IMULI	AC,(AC+2)
  1605	032046	232 01 0 00 000003 		IDIVM	AC,AC+2
  1606	032047	222 01 0 00 000003 		IMULM	AC,AC+2
  1607	032050	233 01 0 00 000003 		IDIVB	AC,AC+2
  1608	032051	223 01 0 00 000003 		IMULB	AC,AC+2
  1609
  1610					;*MULTIPLY AND DIVIDE
  1611	032052	234 01 0 00 000003 	FIXED:	DIV	AC,AC+2
  1612	032053	224 01 0 00 000003 		MUL	AC,AC+2
  1613	032054	235 01 0 03 000000 		DIVI	AC,(AC+2)
  1614	032055	225 01 0 03 000000 		MULI	AC,(AC+2)
  1615	032056	226 01 0 00 000003 		MULM	AC,AC+2
  1616	032057	236 01 0 00 000003 		DIVM	AC,AC+2
  1617	032060	227 01 0 00 000003 		MULB	AC,AC+2
  1618	032061	237 01 0 00 000003 		DIVB	AC,AC+2
  1619
  1620					;*FLOATING POINT: ADD, SUBTRACT
  1621	032062	140 01 0 00 000003 	FPAS:	FAD	AC,AC+2
  1622	032063	150 01 0 00 000003 		FSB	AC,AC+2
  1623	032064	144 01 0 00 000003 		FADR	AC,AC+2
  1624	032065	154 01 0 00 000003 		FSBR	AC,AC+2
  1625	032066	142 01 0 00 000003 		FADM	AC,AC+2
  1626	032067	143 01 0 00 000003 		FADB	AC,AC+2
  1627	032070	146 01 0 00 000003 		FADRM	AC,AC+2
  1628	032071	147 01 0 00 000003 		FADRB	AC,AC+2
  1629
  1630					;*FLOATING POINT: SUBTRACT, MULTIPLY
  1631	032072	152 01 0 00 000003 	FPSM:	FSBM	AC,AC+2
  1632	032073	153 01 0 00 000003 		FSBB	AC,AC+2
  1633	032074	156 01 0 00 000003 		FSBRM	AC,AC+2
  1634	032075	157 01 0 00 000003 		FSBRB	AC,AC+2
  1635	032076	162 01 0 00 000003 		FMPM	AC,AC+2
  1636	032077	163 01 0 00 000003 		FMPB	AC,AC+2
  1637	032100	166 01 0 00 000003 		FMPRM	AC,AC+2
  1638	032101	167 01 0 00 000003 		FMPRB	AC,AC+2
  1639
  1640					;*FLOATING POINT: MULTIPLY, DIVIDE
  1641	032102	160 01 0 00 000003 	FPMD:	FMP	AC,AC+2
  1642	032103	170 01 0 00 000003 		FDV	AC,AC+2
  1643	032104	164 01 0 00 000003 		FMPR	AC,AC+2
  1644	032105	174 01 0 00 000003 		FDVR	AC,AC+2
  1645	032106	172 01 0 00 000003 		FDVM	AC,AC+2
  1646	032107	173 01 0 00 000003 		FDVB	AC,AC+2
  1647	032110	176 01 0 00 000003 		FDVRM	AC,AC+2
  1648	032111	177 01 0 00 000003 		FDVRB	AC,AC+2
DBKDA	DECSYSTEM10 KI10 ARITHMETIC RELIABILITY TEST, VER 0,3	MACRO %51(414) 14:29  9-JUN-76 PAGE 21
DBKDAM	MAC	 9-JUN-76 13:19		ARITHMETIC RELIABILITY TEST                                                    *** SEQ 0078

  1649					;*FLOATING POINT: MISCELLANEOUS
  1650	032112	130 01 0 00 000003 	MISCFP:	UFA	AC,AC+2
  1651	032113	131 01 0 00 000003 		DFN	AC,AC+2
  1652	032114	130 01 0 00 000003 		UFA	AC,AC+2
  1653	032115	132 01 0 03 000000 		FSC	AC,(AC+2)
  1654	032116	145 01 0 03 000000 		FADRI	AC,(AC+2)
  1655	032117	155 01 0 03 000000 		FSBRI	AC,(AC+2)
  1656	032120	165 01 0 03 000000 		FMPRI	AC,(AC+2)
  1657	032121	175 01 0 03 000000 		FDVRI	AC,(AC+2)
  1658
  1659					;*FLOATING POINT: LONG MODE
  1660	032122	141 01 0 00 000003 	FPL:	FADL	AC,AC+2
  1661	032123	151 01 0 00 000003 		FSBL	AC,AC+2
  1662	032124	161 01 0 00 000003 		FMPL	AC,AC+2
  1663	032125	171 01 0 00 000003 		FDVL	AC,AC+2
  1664	032126	161 01 0 00 000003 		FMPL	AC,AC+2
  1665	032127	171 01 0 00 000003 		FDVL	AC,AC+2
  1666	032130	141 01 0 00 000003 		FADL	AC,AC+2
  1667	032131	151 01 0 00 000003 		FSBL	AC,AC+2
  1668
  1669					;*BYTES
  1670	032132	133 01 0 00 000003 	BYTES:	IBP	AC,AC+2
  1671	032133	134 01 0 00 000003 		ILDB	AC,AC+2
  1672	032134	136 01 0 00 000003 		IDPB	AC,AC+2
  1673	032135	135 01 0 00 000003 		LDB	AC,AC+2
  1674	032136	137 01 0 00 000003 		DPB	AC,AC+2
  1675
  1676					;*DOUBLE FLOATING POINT: ADD, SUBTRACT
  1677	032137	111 01 0 00 000003 	DFPAS:	DFSB	AC,AC+2
  1678	032140	110 01 0 00 000003 		DFAD	AC,AC+2
  1679
  1680					;*DOUBLE FLOATING POINT: MULTIPLY, DIVIDE
  1681	032141	112 01 0 00 000003 	DFPMD:	DFMP	AC,AC+2
  1682	032142	113 01 0 00 000003 		DFDV	AC,AC+2
  1683
  1684					;*FLOATING POINT: MISCELLANEOUS
  1685	032143	127 01 0 00 000003 	FPMISC:	FLTR	AC,AC+2
  1686	032144	122 01 0 00 000003 		FIX	AC,AC+2
  1687	032145	126 01 0 00 000003 		FIXR	AC,AC+2
  1688	032146	127 01 0 00 000003 		FLTR	AC,AC+2
  1689
  1690					;*TEST STORAGE
  1691
  1692	032147				SAVAC:	BLOCK	20
  1693
  1694	032167				DIVAC:	BLOCK	4
  1695
  1696	032173				MULAC:	BLOCK	4
  1697
  1698	032177	000000	046647		VMEM:	ENDSLD
DBKDA	DECSYSTEM10 KI10 ARITHMETIC RELIABILITY TEST, VER 0,3	MACRO %51(414) 14:29  9-JUN-76 PAGE 22
DBKDAM	MAC	 9-JUN-76 13:19		ARITHMETIC RELIABILITY TEST                                                    *** SEQ 0079

  1699	032200	000000	000000		RUNTIM:	0
  1700	032201	7 000 20 0 00 004010 		CONO	APR,CLKDIS!IAPRE1	;DISABLE CLOCK
  1701	032202	264 00 0 00 032263 		JSR	TSTIMA		;PRINT RUN TIME
  1702	032203	7 000 20 0 00 003011 		CONO	APR,CLKENB!CLKCLR!IAPRE1!IAPRC1	;ENABLE CLOCK
  1703	032204	254 00 1 00 032200 		JRST	@RUNTIM
  1704
  1705					;*CLOCK SERVICE ROUTINE
  1706
  1707	032205	000000	000000		ITRCLK:	0
  1708	032206	7 000 34 0 00 001000 		CONSO	APR,CLK
  1709	032207	254 02 1 00 032205 		JRSTF	@ITRCLK		;NOT CLOCK
  1710	032210	350 00 0 00 030054 		AOS	TICKS		;INC CLOCK COUNTER
  1711	032211	202 00 0 00 046752 		MOVEM	0,CLKAC0#	;SAVE AC'S
  1712	032212	202 01 0 00 046753 		MOVEM	1,CLKAC1#
  1713	032213	264 00 0 00 032250 		JSR	TSTIME		;CHECK AND PRINT TIME
  1714	032214	200 01 0 00 000005 		MOVE	1,RA		;GET RANDOM NUMBER
  1715	032215	405 01 0 00 000007 		ANDI	1,7
  1716	032216	336 00 0 00 000001 		SKIPN	1		;IF 0, MAKE 1
  1717	032217	350 00 0 00 000001 		AOS	1		;SETUP CLOCK ON RANDOM CHANNEL
  1718	032220	7 000 20 0 01 003010 		CONO	APR,CLKENB!CLKCLR!IAPRE1(1)
  1719	032221	200 00 0 00 046752 		MOVE	0,CLKAC0
  1720	032222	200 01 0 00 046753 		MOVE	1,CLKAC1
  1721	032223	254 12 1 00 030104 		JEN	@ITRCH1		;RETURN
  1722
  1723	032224	000000	000000		PNTTOT:	0
  1724	032225	332 00 0 00 030037 		SKIPE	USER		;NO TIME IF USER
  1725	032226	254 00 0 00 032232 		JRST	.+4
  1726	032227	602 00 0 00 000200 		TRNE	INHCLK		;NO TIME IF CLOCK INHIBITED
  1727	032230	254 00 0 00 032232 		JRST	.+2
  1728	032231	264 00 0 00 032200 		JSR	RUNTIM		;PRINT RUN TIME
  1729						MOVEI	[ASCIZ/
  1730	032232	201 00 0 00 045771 	TOTAL ERRORS = /]
  1731	032233	037 17 0 00 000000 		PNTAL
  1732	032234	200 00 0 00 030053 		MOVE	ERRTLS
  1733	032235	037 15 0 00 000000 		PNTDEC			;PRINT TOTAL ERRORS
  1734						MOVEI	[ASCIZ/
  1735	032236	201 00 0 00 045710 	BASE RANDOM NUMBER = /]
  1736	032237	037 17 0 00 000000 		PNTAL
  1737	032240	200 00 0 00 030022 		MOVE	0,RANDBS
  1738	032241	037 13 0 00 000000 		PNTHW			;PRINT RANDOM NUMBER BASE
  1739	032242	201 00 0 00 030243 		MOVEI	CRLF2
  1740	032243	037 00 0 00 000000 		PNTA
  1741	032244	037 10 0 00 000002 		SWITCH
  1742	032245	607 00 0 00 200000 		TLNN	RSTART		;RESTART PROGRAM ?
  1743	032246	254 00 1 00 032224 		JRST	@PNTTOT
  1744	032247	254 00 0 00 030004 		JRST	SFSTRT		;YES, RESTART AS STAND-ALONE
DBKDA	DECSYSTEM10 KI10 ARITHMETIC RELIABILITY TEST, VER 0,3	MACRO %51(414) 14:29  9-JUN-76 PAGE 23
DBKDAM	MAC	 9-JUN-76 13:19		ARITHMETIC RELIABILITY TEST                                                    *** SEQ 0080

  1745					;*TEST RUN TIME SUBROUTINE
  1746					;*PRINTS TIME AT HALF HOUR INTERVALS OR WHEN REQUESTED
  1747
  1748	032250	000000	000000		TSTIME:	0
  1749	032251	200 00 0 00 030054 		MOVE	TICKS		;HAS HALF HOUR PASSED ?
  1750	032252	274 00 0 00 047153 		SUB	TSTIMR
  1751	032253	200 01 0 00 047000 		MOVE	1,HERTZ
  1752	032254	302 01 0 00 000074 		CAIE	1,^D60		;60 HZ. ?
  1753	032255	254 00 0 00 032315 		JRST	TSTIMB		;NO, 50
  1754	032256	305 00 0 00 322740 		CAIGE	^D<60*60*30>
  1755	032257	254 00 1 00 032250 		JRST	@TSTIME		;NOT HALF HOUR YET
  1756	032260	476 00 0 00 047146 	TSTIMC:	SETOM	TIMFRC
  1757	032261	264 00 0 00 032263 		JSR	TSTIMA
  1758	032262	254 00 1 00 032250 		JRST	@TSTIME
  1759
  1760	032263	000000	000000		TSTIMA:	0
  1761	032264	332 00 0 00 030217 		SKIPE	PNTFLG		;INTERRUPTED OUT OF PRINT ROUTINE
  1762	032265	254 00 1 00 032263 		JRST	@TSTIMA		;YES, DO NEXT CLOCK
  1763						MOVEI	[ASCIZ/
  1764	032266	201 00 0 00 045775 	RUN TIME = /]
  1765	032267	037 17 0 00 000001 		PNTALF
  1766	032270	200 00 0 00 030054 		MOVE	TICKS		;GET TIME
  1767	032271	332 00 0 00 047146 		SKIPE	TIMFRC#		;REQUESTED TIME, IF SO DON'T
  1768	032272	202 00 0 00 047153 		MOVEM	TSTIMR		;UPDATE HALF HOUR COMPARE
  1769	032273	230 00 0 00 047000 		IDIV	HERTZ		;CONVERT TO SECONDS
  1770	032274	231 00 0 00 007020 		IDIVI	^D<60*60>	;CONVERT TO HOURS
  1771	032275	202 01 0 00 047144 		MOVEM	1,TIMAC1#	;SAVE MIN:SEC
  1772	032276	037 15 0 00 000001 		PNTDCF			;PRINT HOURS
  1773	032277	201 00 0 00 046000 		MOVEI	[ASCIZ/:/]
  1774	032300	037 00 0 00 000001 		PNTAF
  1775	032301	200 00 0 00 047144 		MOVE	0,TIMAC1	;RETURN MIN:SEC
  1776	032302	231 00 0 00 000074 		IDIVI	^D60		;CONVERT TO MINUTES
  1777	032303	202 01 0 00 047144 		MOVEM	1,TIMAC1	;SAVE :SEC
  1778	032304	037 15 0 00 000001 		PNTDCF			;PRINT MINUTES
  1779	032305	201 00 0 00 046000 		MOVEI	[ASCIZ/:/]
  1780	032306	037 00 0 00 000001 		PNTAF
  1781	032307	200 00 0 00 047144 		MOVE	0,TIMAC1	;RETURN :SEC
  1782	032310	037 15 0 00 000001 		PNTDCF			;PRINT SECONDS
  1783	032311	201 00 0 00 030242 		MOVEI	CRLF
  1784	032312	037 00 0 00 000001 		PNTAF
  1785	032313	402 00 0 00 047146 		SETZM	TIMFRC
  1786	032314	254 00 1 00 032263 		JRST	@TSTIMA
  1787
  1788	032315	305 00 0 00 257620 	TSTIMB:	CAIGE	^D<60*60*25>	;50 HZ HALF HOUR
  1789	032316	254 00 1 00 032250 		JRST	@TSTIME		;NO
  1790	032317	254 00 0 00 032260 		JRST	TSTIMC
DBKDA	DECSYSTEM10 KI10 ARITHMETIC RELIABILITY TEST, VER 0,3	MACRO %51(414) 14:29  9-JUN-76 PAGE 1
KIPNT	MAC	 9-JUN-76 13:30		ARITHMETIC RELIABILITY TEST                                                    *** SEQ 0081

  1791
  1792					SUBTTL	SIMULATOR MACHINE REGISTER PRINT
  1793
  1794					;*PROGRAM INITIALIZATION AND BREAK SETUP
  1795
  1796	032320	402 00 0 00 047065 	SENTRY:	SETZM	PNTCTL#		;CLEAR PRINT CONTROL
  1797	032321	201 00 0 00 000000 		MOVEI	0
  1798	032322	332 00 0 00 030037 		SKIPE	USER		;USER MODE ?
  1799	032323	040 00 0 00 046001 		CALL	[SIXBIT/SETUWP/]
  1800	032324	255 00 0 00 000000 		JFCL
  1801	032325	332 00 0 00 047056 		SKIPE	ONETIM#		;SET BREAK ONLY ON LOAD
  1802	032326	254 00 0 00 032336 		JRST	SX1
  1803	032327	200 00 0 00 040541 		MOVE	0,SIMBRK	;PATCH TO SIMULATOR FOR PRINTOUT
  1804	032330	202 00 0 00 032363 		MOVEM	0,SIMPN1+1
  1805	032331	200 00 0 00 046002 		MOVE	0,[JRST SIMPN1]
  1806	032332	202 00 0 00 040541 		MOVEM	0,SIMBRK
  1807	032333	200 00 0 00 046003 		MOVE	0,[JRST	ERRPNT]
  1808	032334	202 00 0 00 044006 		MOVEM	0,ERR+1
  1809	032335	476 00 0 00 047056 		SETOM	ONETIM
  1810
  1811	032336	403 06 0 00 047125 	SX1:	SETZB	AR,SVAR#	;CLEAR PSEUDO REGISTERS
  1812	032337	403 07 0 00 047136 		SETZB	MQ,SVMQ#
  1813	032340	403 10 0 00 047127 		SETZB	BR,SVBR#
  1814	032341	403 11 0 00 047123 		SETZB	AD,SVAD#
  1815	032342	403 12 0 00 047135 		SETZB	MB,SVMB#
  1816	032343	403 13 0 00 047137 		SETZB	PC,SVPC#
  1817	032344	403 14 0 00 047134 		SETZB	MA,SVMA#
  1818	032345	403 15 0 00 047142 		SETZB	SC,SVSC#
  1819	032346	402 00 0 00 046736 		SETZM	ARX
  1820	032347	402 00 0 00 046770 		SETZM	FE
  1821	032350	402 00 0 00 047074 		SETZM	SA
  1822	032351	402 00 0 00 046710 		SETZM	AB
  1823	032352	402 00 0 00 046722 		SETZM	ADX
  1824	032353	402 00 0 00 047124 		SETZM	SVADX#
  1825	032354	402 00 0 00 047133 		SETZM	SVFM#
  1826	032355	402 00 0 00 047126 		SETZM	SVARX#
  1827	032356	402 00 0 00 047132 		SETZM	SVFE#
  1828	032357	402 00 0 00 047141 		SETZM	SVSA#
  1829	032360	402 00 0 00 047117 		SETZM	SVAB#
  1830	032361	254 00 0 00 040426 		JRST	SIMGO		;GO TO SIMULATOR
DBKDA	DECSYSTEM10 KI10 ARITHMETIC RELIABILITY TEST, VER 0,3	MACRO %51(414) 14:29  9-JUN-76 PAGE 2
KIPNT	MAC	 9-JUN-76 13:30		SIMULATOR MACHINE REGISTER PRINT                                               *** SEQ 0082

  1831	032362	260 17 0 00 032423 	SIMPN1:	GO	MRPNT
  1832	032363	000000	000000			0
  1833	032364	254 00 0 00 040542 		JRST	SIMBRK+1
  1834
  1835						IFNDEF	SIMASB,<
  1836					;*SPECIAL USER MODE MONITOR UUO EXECUTION
  1837
  1838					MUOEXC:	777000,,USR424		;MUUO EXECUTE INSTRUCTION
  1839						JRST	2,@USR425	;RETURN TO OBJECT SEQUENCE
  1840
  1841					USR420:	HALT			;PAGE FAULT TRAP
  1842					USR421:	JFCL			;ARITH TRAP
  1843					USR422:	HALT			;PDL OV TRAP
  1844					USR423:	HALT			;TRP 3 TRAP
  1845
  1846					USR424:	0			;MUUO STORAGE
  1847					USR425:	0			;C(PC) OF MUUO
  1848
  1849					USR427:	0			;USER PAGE FAIL WORD
  1850
  1851					USR436:	MUOEXC			;MUUO EXECUTION ADR, PUBLIC, NO TRAP
  1852					USR437:	MUOEXC			;		     PUBLIC, TRAP
  1853					>
DBKDA	DECSYSTEM10 KI10 ARITHMETIC RELIABILITY TEST, VER 0,3	MACRO %51(414) 14:29  9-JUN-76 PAGE 3
KIPNT	MAC	 9-JUN-76 13:30		SIMULATOR MACHINE REGISTER PRINT                                               *** SEQ 0083

  1854	032365				RENTR1:	IFDEF	SIMASB,<
  1855	032365	264 00 0 00 032224 		JSR	PNTTOT		;PRINT TOTALS >
  1856	032366	037 05 0 00 000002 		DROPDV			;CLOSE LOGICAL FILE, USER MODE
  1857	032367	040 00 0 00 046004 		CALL	[SIXBIT/EXIT/]	;EXIT TO MONITOR
  1858
  1859	032370	202 00 0 00 047075 	DDTEX:	MOVEM	0,SAC0#
  1860						MOVEI	[ASCIZ/
  1861					**********
  1862	032371	201 00 0 00 046005 	/]
  1863	032372	037 17 0 00 000001 		PNTALF
  1864	032373	200 00 0 00 047075 		MOVE	0,SAC0
  1865	032374	254 00 0 00 030007 		JRST	DDTSRT
  1866
  1867	032375	000000	030000		INPC:	0,,30000		;EXEC MODE, STARTING ADDRESS
  1868	032376	777777	777777		MASK:	-1
  1869	032377	000000	000000		INSTR:	0
  1870	032400	000000	000000		CNTLPC:	0
  1871	032401	000000	777777		UPRPC:	0,,-1
  1872	032402	000000	000000		SWITCH:	0
  1873
  1874	032403				ACS:	BLOCK	20	;SIMULATED AC'S
DBKDA	DECSYSTEM10 KI10 ARITHMETIC RELIABILITY TEST, VER 0,3	MACRO %51(414) 14:29  9-JUN-76 PAGE 4
KIPNT	MAC	 9-JUN-76 13:30		SIMULATOR MACHINE REGISTER PRINT                                               *** SEQ 0084

  1875					;*MACHINE REGISTER PRINT
  1876					;*THIS ROUTINE PRINTS THE CONTENTS OF THE SEVERAL
  1877					;*PSEUDO MACHINE REGISTERS AT VARIOUS TIMES IN
  1878					;*THE INSTRUCTION CYCLE.
  1879
  1880	032423	261 17 0 00 000000 	MRPNT:	PUSH	P,0		;SAVE 5 AC'S
  1881	032424	261 17 0 00 000001 		PUSH	P,T
  1882	032425	261 17 0 00 000002 		PUSH	P,T1
  1883	032426	261 17 0 00 000003 		PUSH	P,T2
  1884	032427	261 17 0 00 000004 		PUSH	P,T3
  1885	032430	550 01 0 00 047113 		HRRZ	T,STATE		;GET STATE REGISTER
  1886	032431	316 01 0 00 047114 		CAMN	T,STATSV#	;SAME AS PREVIOUS STATE ?
  1887	032432	254 00 0 00 033046 		JRST	HUNGCK		;YES, CHECK FOR HUNG
  1888	032433	202 01 0 00 047114 		MOVEM	T,STATSV
  1889	032434	201 00 0 00 000404 		MOVEI	0,^D260		;SETUP MAXIMUM TIME
  1890	032435	202 00 0 00 047001 		MOVEM	0,HNGCNT#	;FOR ONE TIME STATE
  1891	032436	306 01 0 00 041312 	MRPNT3:	CAIN	T,IT0		;IS STATE IT0
  1892	032437	260 17 0 00 032652 		GO	IRPNT		;YES, PRINT PC AND INSTRUCTION
  1893	032440	336 00 0 00 047065 		SKIPN	PNTCTL		;PRINT CONTROL SET ?
  1894	032441	254 00 0 00 032576 		JRST	MRPNT2		;NO,EXIT
  1895	032442	550 01 0 00 047113 		HRRZ	T,STATE
  1896	032443	306 01 0 00 041353 		CAIN	T,IT1		;IS STATE IT1 ?
  1897	032444	260 17 0 00 033340 		GO	INTPNT		;YES, SAVE INITIAL CONDITIONS
  1898	032445	200 00 0 00 030046 		MOVE	0,CONSW
  1899	032446	602 00 0 00 000100 		TRNE	0,INHMS		;PRINT MACHINE STATES ?
  1900	032447	254 00 0 00 032576 		JRST	MRPNT2		;NO, EXIT
  1901	032450	550 01 0 00 047113 		HRRZ	T,STATE
  1902	032451	302 01 0 00 043630 		CAIE	T,SCT2		;IS STATE SCT2 ?
  1903	032452	254 00 0 00 032455 		JRST	.+3		;NO
  1904	032453	602 00 0 00 000400 		TRNE	0,INHSCT	;INHIBIT SCT2 PRINTOUT ?
  1905	032454	254 00 0 00 032576 		JRST	MRPNT2		;YES, EXIT
  1906	032455	205 02 0 00 777640 		MOVSI	T1,-^D96
  1907						IFNDEF	SIMASB,<
  1908						MOVSI	T1,-^D120	;CONVERT STATE TO SYMBOLIC >
  1909	032456	316 01 0 02 034220 		CAMN	T,STAB(T1)
  1910	032457	254 00 0 00 032604 		JRST	FOUND
  1911	032460	253 02 0 00 032456 		AOBJN	T1,.-2
  1912	032461	201 00 0 00 046010 		MOVEI	0,[ASCII/XXX--/]
  1913	032462	037 00 0 00 000000 	MRPNT1:	PNTA			;PRINT SYMBOLIC STATE
  1914	032463	201 00 0 00 030247 		MOVEI	0,TAB
  1915	032464	037 00 0 00 000000 		PNTA
  1916	032465	476 00 0 00 030223 		SETOM	PNTSPC		;SET PRINT SPACE FLAG
  1917	032466	332 00 0 00 046761 		SKIPE	DBLAF		;DBL ARITH ?
  1918	032467	254 00 0 00 032606 		JRST	MRPNT4		;YES
  1919	032470	200 00 0 00 000013 		MOVE	0,PC
  1920	032471	316 00 0 00 047137 		CAMN	0,SVPC
  1921	032472	260 17 0 00 032640 		GO	DITTO6
  1922	032473	202 00 0 00 047137 		MOVEM	0,SVPC
  1923	032474	037 06 0 00 000000 		PNT6			;PRINT PC
DBKDA	DECSYSTEM10 KI10 ARITHMETIC RELIABILITY TEST, VER 0,3	MACRO %51(414) 14:29  9-JUN-76 PAGE 5
KIPNT	MAC	 9-JUN-76 13:30		SIMULATOR MACHINE REGISTER PRINT                                               *** SEQ 0085

  1924	032475	200 00 0 00 000014 		MOVE	0,MA
  1925	032476	316 00 0 00 047134 		CAMN	0,SVMA
  1926	032477	260 17 0 00 032640 		GO	DITTO6
  1927	032500	202 00 0 00 047134 		MOVEM	0,SVMA
  1928	032501	037 06 0 00 000000 		PNT6			;PRINT MA
  1929	032502	200 00 0 00 046710 		MOVE	0,AB
  1930	032503	316 00 0 00 047117 		CAMN	0,SVAB
  1931	032504	260 17 0 00 032640 		GO	DITTO6
  1932	032505	202 00 0 00 047117 		MOVEM	0,SVAB
  1933	032506	037 06 0 00 000000 		PNT6			;PRINT AB
  1934	032507	200 00 0 00 000012 		MOVE	0,MB
  1935	032510	316 00 0 00 047135 		CAMN	0,SVMB
  1936	032511	260 17 0 00 032630 		GO	DITTO
  1937	032512	202 00 0 00 047135 		MOVEM	0,SVMB
  1938	032513	037 14 0 00 000000 		PNTOCT			;PRINT MB
  1939	032514	200 00 0 00 000011 	MRPNT5:	MOVE	0,AD
  1940	032515	316 00 0 00 047123 		CAMN	0,SVAD
  1941	032516	260 17 0 00 032630 		GO	DITTO
  1942	032517	202 00 0 00 047123 		MOVEM	0,SVAD
  1943	032520	037 14 0 00 000000 		PNTOCT			;PRINT AD
  1944	032521	200 00 0 00 000006 		MOVE	0,AR
  1945	032522	316 00 0 00 047125 		CAMN	0,SVAR
  1946	032523	260 17 0 00 032630 		GO	DITTO
  1947	032524	202 00 0 00 047125 		MOVEM	0,SVAR
  1948	032525	037 14 0 00 000000 		PNTOCT			;PRINT AR
  1949	032526	200 00 0 00 030046 		MOVE	0,CONSW
  1950	032527	603 00 0 00 020000 		TLNE	PNTLPT
  1951	032530	254 00 0 00 032534 		JRST	.+4
  1952	032531	201 00 0 00 030242 		MOVEI	CRLF
  1953	032532	037 00 0 00 000000 		PNTA
  1954	032533	254 00 0 00 032536 		JRST	.+3
  1955	032534	201 00 0 00 046011 		MOVEI	0,[ASCII/    /]
  1956	032535	037 00 0 00 000000 		PNTA
  1957	032536	200 00 1 00 046773 		MOVE	0,@FMREG
  1958	032537	316 00 0 00 047133 		CAMN	0,SVFM
  1959	032540	260 17 0 00 032630 		GO	DITTO
  1960	032541	202 00 0 00 047133 		MOVEM	0,SVFM
  1961	032542	037 14 0 00 000000 		PNTOCT			;PRINT FM
  1962	032543	200 00 0 00 000010 		MOVE	0,BR
  1963	032544	316 00 0 00 047127 		CAMN	0,SVBR
  1964	032545	260 17 0 00 032630 		GO	DITTO
  1965	032546	202 00 0 00 047127 		MOVEM	0,SVBR
  1966	032547	037 14 0 00 000000 		PNTOCT			;PRINT BR
  1967	032550	200 00 0 00 000007 		MOVE	0,MQ
  1968	032551	316 00 0 00 047136 		CAMN	0,SVMQ
  1969	032552	260 17 0 00 032630 		GO	DITTO
  1970	032553	202 00 0 00 047136 		MOVEM	0,SVMQ
  1971	032554	037 14 0 00 000000 		PNTOCT			;PRINT MQ
DBKDA	DECSYSTEM10 KI10 ARITHMETIC RELIABILITY TEST, VER 0,3	MACRO %51(414) 14:29  9-JUN-76 PAGE 6
KIPNT	MAC	 9-JUN-76 13:30		SIMULATOR MACHINE REGISTER PRINT                                               *** SEQ 0086

  1972	032555	200 00 0 00 000015 		MOVE	0,SC
  1973	032556	316 00 0 00 047142 		CAMN	0,SVSC
  1974	032557	260 17 0 00 032645 		GO	DITTO3
  1975	032560	202 00 0 00 047142 		MOVEM	0,SVSC
  1976	032561	037 03 0 00 000000 		PNT3			;PRINT SC
  1977	032562	200 00 0 00 046770 		MOVE	0,FE
  1978	032563	316 00 0 00 047132 		CAMN	0,SVFE
  1979	032564	260 17 0 00 032645 		GO	DITTO3
  1980	032565	202 00 0 00 047132 		MOVEM	0,SVFE
  1981	032566	037 03 0 00 000000 		PNT3			;PRINT FE
  1982	032567	200 00 0 00 047074 		MOVE	0,SA
  1983	032570	316 00 0 00 047141 		CAMN	0,SVSA
  1984	032571	260 17 0 00 032645 		GO	DITTO3
  1985	032572	202 00 0 00 047141 		MOVEM	0,SVSA
  1986	032573	037 03 0 00 000000 		PNT3			;PRINT SA
  1987	032574	201 00 0 00 030242 		MOVEI	0,CRLF
  1988	032575	037 00 0 00 000000 		PNTA			;CR-LF
  1989
  1990	032576	262 17 0 00 000004 	MRPNT2:	POP	P,T3		;RESTORE AC'S
  1991	032577	262 17 0 00 000003 		POP	P,T2
  1992	032600	262 17 0 00 000002 		POP	P,T1
  1993	032601	262 17 0 00 000001 		POP	P,T
  1994	032602	262 17 0 00 000000 		POP	P,0
  1995	032603	263 17 0 00 000000 		POPJ	P,		;EXIT
  1996
  1997	032604	201 00 0 02 034360 	FOUND:	MOVEI	0,STAB1(T1)	;GET SYMBOLIC STATE
  1998	032605	254 00 0 00 032462 		JRST	MRPNT1
DBKDA	DECSYSTEM10 KI10 ARITHMETIC RELIABILITY TEST, VER 0,3	MACRO %51(414) 14:29  9-JUN-76 PAGE 7
KIPNT	MAC	 9-JUN-76 13:30		SIMULATOR MACHINE REGISTER PRINT                                               *** SEQ 0087

  1999	032606	200 00 0 00 046710 	MRPNT4:	MOVE	0,AB
  2000	032607	316 00 0 00 047117 		CAMN	0,SVAB
  2001	032610	260 17 0 00 032640 		GO	DITTO6
  2002	032611	202 00 0 00 047117 		MOVEM	0,SVAB
  2003	032612	037 06 0 00 000000 		PNT6			;PRINT AB
  2004	032613	200 00 0 00 046722 		MOVE	0,ADX
  2005	032614	316 00 0 00 047124 		CAMN	0,SVADX
  2006	032615	260 17 0 00 032630 		GO	DITTO
  2007	032616	202 00 0 00 047124 		MOVEM	0,SVADX
  2008	032617	037 14 0 00 000000 		PNTOCT			;PRINT ADX
  2009	032620	200 00 0 00 046736 		MOVE	0,ARX
  2010	032621	316 00 0 00 047126 		CAMN	0,SVARX
  2011	032622	260 17 0 00 032630 		GO	DITTO
  2012	032623	202 00 0 00 047126 		MOVEM	0,SVARX
  2013	032624	037 14 0 00 000000 		PNTOCT			;PRINT ARX
  2014	032625	201 00 0 00 030246 		MOVEI	SPACE
  2015	032626	037 00 0 00 000000 		PNTA
  2016	032627	254 00 0 00 032514 		JRST	MRPNT5
  2017
  2018	032630	322 00 0 00 032636 	DITTO:	JUMPE	0,DITTO0
  2019	032631	201 00 0 00 046012 		MOVEI	0,[ASCIZ/*            /]
  2020	032632	037 17 0 00 000000 		PNTAL
  2021	032633	350 00 0 17 000000 		AOS	(P)
  2022	032634	350 00 0 17 000000 		AOS	(P)
  2023	032635	263 17 0 00 000000 		POPJ	P,
  2024
  2025	032636	201 00 0 00 046015 	DITTO0:	MOVEI	0,[ASCIZ/0            /]
  2026	032637	254 00 0 00 032632 		JRST	DITTO+2
  2027
  2028	032640	322 00 0 00 032643 	DITTO6:	JUMPE	0,DITT60
  2029	032641	201 00 0 00 046020 		MOVEI	0,[ASCIZ/*      /]
  2030	032642	254 00 0 00 032632 		JRST	DITTO+2
  2031
  2032	032643	201 00 0 00 046022 	DITT60:	MOVEI	0,[ASCIZ/0      /]
  2033	032644	254 00 0 00 032632 		JRST	DITTO+2
  2034
  2035	032645	322 00 0 00 032650 	DITTO3:	JUMPE	0,DITT30
  2036	032646	201 00 0 00 046024 		MOVEI	0,[ASCIZ/*   /]
  2037	032647	254 00 0 00 032632 		JRST	DITTO+2
  2038
  2039	032650	201 00 0 00 046025 	DITT30:	MOVEI	0,[ASCIZ/0   /]
  2040	032651	254 00 0 00 032632 		JRST	DITTO+2
  2041
DBKDA	DECSYSTEM10 KI10 ARITHMETIC RELIABILITY TEST, VER 0,3	MACRO %51(414) 14:29  9-JUN-76 PAGE 8
KIPNT	MAC	 9-JUN-76 13:30		SIMULATOR MACHINE REGISTER PRINT                                               *** SEQ 0088

  2042					;*INSTRUCTION PRINT
  2043					;*THIS ROUTINE PRINTS THE PC AND THE INSTRUCTION
  2044					;*AT IT0 OF THE INSTRUCTION CYCLE.
  2045
  2046	032652	332 00 0 00 047025 	IRPNT:	SKIPE	IRLTCH		;FIRST IT0
  2047	032653	263 17 0 00 000000 		POPJ	P,		;NO
  2048	032654	332 00 0 00 047065 		SKIPE	PNTCTL		;PREVIOUS INSTRUCTION PRINTED ?
  2049	032655	260 17 0 00 033566 		GO	INTFNL		;YES, PRINT PREVIOUS INIT/FINAL
  2050	032656	336 00 0 00 047112 		SKIPN	SNGLIN#		;SINGLE INSTRUCTION OPERATION ?
  2051	032657	254 00 0 00 032675 		JRST	IRPNT1+1	;NO
  2052	032660	336 00 0 00 047111 		SKIPN	SNGL2#		;START OF SECOND INSTRUCTION ?
  2053	032661	254 00 0 00 032674 		JRST	IRPNT1		;NO
  2054	032662	332 00 0 00 047156 		SKIPE	XCTF		;INST BEING EXECUTED ?
  2055	032663	254 00 0 00 032674 		JRST	IRPNT1		;YES, SIM IT TO.
  2056	032664	262 17 0 00 000000 		POP	P,0		;RETURN TO CALLING PROGRAM
  2057	032665	262 17 0 00 000004 		POP	P,T3
  2058	032666	262 17 0 00 000003 		POP	P,T2
  2059	032667	262 17 0 00 000002 		POP	P,T1
  2060	032670	262 17 0 00 000001 		POP	P,T
  2061	032671	262 17 0 00 000000 		POP	P,0
  2062	032672	262 17 0 00 000000 		POP	P,0
  2063	032673	263 17 0 00 000000 		POPJ	P,
  2064	032674	476 00 0 00 047111 	IRPNT1:	SETOM	SNGL2		;SET FIRST INSTR INDICATION
  2065	032675	402 00 0 00 047065 		SETZM	PNTCTL		;CLEAR PRINT CONTROL
  2066						IFNDEF	SIMASB,<
  2067						MOVE	0,MB		;IS THIS SPECIAL LEAVE SIMULATION INST ?
  2068						CAMN	0,[776000,,SEXIT1]
  2069						JRST	@0		;YES, RETURN TO COMMAND OPERATION
  2070						TTALTM
  2071						JRST	.+2		;IF ALTMODE, GO TO DDT
  2072						JRST	DDTEX5		;CONTINUE WITH "SIMCON$G">
  2073	032676	350 00 0 00 047106 	SIMCON:	AOS	SEQ#
  2074	032677	200 00 0 00 000012 		MOVE	0,MB		;PRINT THIS INSTRUCTION
  2075	032700	404 00 0 00 032376 		AND	MASK
  2076	032701	312 00 0 00 032377 		CAME	INSTR
  2077	032702	263 17 0 00 000000 		POPJ	P,		;NO
  2078	032703	550 00 0 00 000013 		HRRZ	0,PC
  2079	032704	315 00 0 00 032400 		CAMGE	0,CNTLPC	;PC PAST LOWER LIMIT ?
  2080	032705	263 17 0 00 000000 		POPJ	P,		;NO
  2081	032706	313 00 0 00 032401 		CAMLE	0,UPRPC		;PC ABOVE UPPER LIMIT ?
  2082	032707	263 17 0 00 000000 		POPJ	P,		;YES
  2083	032710	476 00 0 00 047065 		SETOM	PNTCTL		;NO, SET PRINT CONTROL
  2084	032711	200 00 0 00 030046 		MOVE	0,CONSW
  2085	032712	606 00 0 00 002000 		TRNN	0,SEQPNT	;PRINT SEQUENCE NUMBERS ?
  2086	032713	254 00 0 00 032720 		JRST	.+5		;NO
  2087						MOVEI	[ASCIZ/
  2088	032714	201 00 0 00 046026 	SEQUENCE # = /]
  2089	032715	037 17 0 00 000000 		PNTAL
  2090	032716	200 00 0 00 047106 		MOVE	0,SEQ
  2091	032717	037 15 0 00 000000 		PNTDEC
  2092	032720	260 17 0 00 032722 		GO	IRPNT2
  2093	032721	254 00 0 00 033002 		JRST	HDPNT
DBKDA	DECSYSTEM10 KI10 ARITHMETIC RELIABILITY TEST, VER 0,3	MACRO %51(414) 14:29  9-JUN-76 PAGE 9
KIPNT	MAC	 9-JUN-76 13:30		SIMULATOR MACHINE REGISTER PRINT                                               *** SEQ 0089

  2094	032722	037 10 0 00 000002 	IRPNT2:	SWITCH
  2095	032723	602 00 0 00 000000 		TRNE	INHIF		;INHIBIT INITIAL/FINAL RESULTS ?
  2096	032724	254 00 0 00 032727 		JRST	.+3		;YES, DON'T DOUBLE SPACE
  2097	032725	201 00 0 00 030242 		MOVEI	0,CRLF
  2098	032726	037 00 0 00 000000 		PNTA
  2099	032727	201 00 0 00 030252 		MOVEI	0,AST
  2100	032730	037 00 0 00 000000 		PNTA
  2101
  2102	032731	476 00 0 00 030223 		SETOM	PNTSPC
  2103	032732	200 00 0 00 000013 		MOVE	0,PC
  2104	032733	202 00 0 00 047140 		MOVEM	0,SVPC1#
  2105	032734	037 06 0 00 000000 		PNT6
  2106	032735	201 00 0 00 030246 		MOVEI	0,SPACE
  2107	032736	037 00 0 00 000000 		PNTA
  2108	032737	260 17 0 00 033127 		GO	PNTINS		;GO PRINT INSTRUCTION
  2109	032740	201 00 0 00 030247 		MOVEI	0,TAB
  2110	032741	037 00 0 00 000000 		PNTA
  2111	032742	332 00 0 00 046760 	ACPNT:	SKIPE	CONNF#
  2112	032743	254 00 0 00 033041 		JRST	DVCPNT		;I/O PRINT DEVICE CODE
  2113	032744	402 00 0 00 030223 		SETZM	PNTSPC
  2114	032745	200 00 0 00 000012 		MOVE	0,MB
  2115	032746	241 00 0 00 777751 		ROT	0,-^D23
  2116	032747	405 00 0 00 000017 		ANDI	0,17
  2117	032750	202 00 0 00 047122 		MOVEM	0,SVAC#
  2118	032751	037 16 0 00 000003 		PNTOCS
  2119	032752	201 00 0 00 030244 		MOVEI	0,COMMA
  2120	032753	037 00 0 00 000000 		PNTA
  2121
  2122	032754	200 00 0 00 000012 	EFPNT:	MOVE	0,MB
  2123	032755	603 00 0 00 000020 		TLNE	0,20		;INDIRECT BIT ON
  2124	032756	254 00 0 00 033036 		JRST	PNTIND		;YES, PRINT AN AT SIGN
  2125	032757	200 00 0 00 000012 		MOVE	0,MB
  2126	032760	261 17 0 00 030223 		PUT	PNTSPC
  2127	032761	402 00 0 00 030223 		SETZM	PNTSPC
  2128	032762	037 06 0 00 000000 		PNT6
  2129	032763	262 17 0 00 030223 		GET	PNTSPC
  2130
  2131	032764	200 00 0 00 000012 	IDXPNT:	MOVE	0,MB		;LOOK FOR INDEXING
  2132	032765	607 00 0 00 000017 		TLNN	0,17
  2133	032766	254 00 0 00 032777 		JRST	IDXPN1
  2134	032767	201 00 0 00 030254 		MOVEI	0,LFP
  2135	032770	037 00 0 00 000000 		PNTA
  2136	032771	200 00 0 00 000012 		MOVE	0,MB
  2137	032772	242 00 0 00 777756 		LSH	0,-^D18
  2138	032773	405 00 0 00 000017 		ANDI	0,17
  2139	032774	037 16 0 00 000003 		PNTOCS
  2140	032775	201 00 0 00 030255 		MOVEI	0,RTP
  2141	032776	037 00 0 00 000000 		PNTA
  2142	032777	201 00 0 00 030242 	IDXPN1:	MOVEI	0,CRLF
  2143	033000	037 00 0 00 000000 		PNTA
  2144	033001	263 17 0 00 000000 		RTN
DBKDA	DECSYSTEM10 KI10 ARITHMETIC RELIABILITY TEST, VER 0,3	MACRO %51(414) 14:29  9-JUN-76 PAGE 10
KIPNT	MAC	 9-JUN-76 13:30		SIMULATOR MACHINE REGISTER PRINT                                               *** SEQ 0090

  2145	033002	200 01 0 00 030046 	HDPNT:	MOVE	T,CONSW
  2146	033003	602 01 0 00 000100 		TRNE	T,INHMS		;PRINT MACHINE STATES ?
  2147	033004	263 17 0 00 000000 		POPJ	P,		;NO
  2148	033005	201 00 0 00 033064 		MOVEI	HDER1
  2149	033006	332 00 0 00 046761 		SKIPE	DBLAF		;DBL ARITH ?
  2150	033007	201 00 0 00 033100 		MOVEI	HDER2
  2151	033010	037 17 0 00 000000 		PNTAL			;PRINT HEADER 1ST PART
  2152	033011	201 00 0 00 030242 		MOVEI	CRLF
  2153	033012	603 01 0 00 020000 		TLNE	T,PNTLPT	;PRINT ON LPT
  2154	033013	201 00 0 00 046032 		MOVEI	[ASCIZ/               /]
  2155	033014	037 17 0 00 000000 		PNTAL			;PRINT SEPARATOR
  2156	033015	201 00 0 00 033114 		MOVEI	HDER3
  2157	033016	037 17 0 00 000000 		PNTAL			;PRINT HEADER 2ND PART
  2158	033017	402 00 0 00 047125 		SETZM	SVAR		;SET TO PRINT ALL REGS AT IT0
  2159	033020	402 00 0 00 047124 		SETZM	SVADX
  2160	033021	402 00 0 00 047133 		SETZM	SVFM
  2161	033022	402 00 0 00 047136 		SETZM	SVMQ
  2162	033023	402 00 0 00 047127 		SETZM	SVBR
  2163	033024	402 00 0 00 047123 		SETZM	SVAD
  2164	033025	402 00 0 00 047135 		SETZM	SVMB
  2165	033026	402 00 0 00 047137 		SETZM	SVPC
  2166	033027	402 00 0 00 047134 		SETZM	SVMA
  2167	033030	402 00 0 00 047142 		SETZM	SVSC
  2168	033031	402 00 0 00 047126 		SETZM	SVARX
  2169	033032	402 00 0 00 047132 		SETZM	SVFE
  2170	033033	402 00 0 00 047141 		SETZM	SVSA
  2171	033034	402 00 0 00 047117 		SETZM	SVAB
  2172	033035	263 17 0 00 000000 		POPJ	P,		;RETURN TO MRPNT
  2173
  2174	033036	201 00 0 00 030253 	PNTIND:	MOVEI	0,ATSIN
  2175	033037	037 00 0 00 000000 		PNTA
  2176	033040	254 00 0 00 032757 		JRST	EFPNT+3
  2177
  2178	033041	200 00 0 00 000012 	DVCPNT:	MOVE	0,MB		;I/O, PRINT DEVICE CODE
  2179	033042	241 00 0 00 777750 		ROT	0,-^D24
  2180	033043	405 00 0 00 000774 		ANDI	0,774
  2181	033044	037 16 0 00 000003 		PNTOCS
  2182	033045	254 00 0 00 032752 		JRST	EFPNT-2
DBKDA	DECSYSTEM10 KI10 ARITHMETIC RELIABILITY TEST, VER 0,3	MACRO %51(414) 14:29  9-JUN-76 PAGE 11
KIPNT	MAC	 9-JUN-76 13:30		SIMULATOR MACHINE REGISTER PRINT                                               *** SEQ 0091

  2183	033046	372 00 0 00 047001 	HUNGCK:	SOSE	HNGCNT		;IS SIMULATOR HUNG ?
  2184	033047	254 00 0 00 032436 		JRST	MRPNT3		;NO, NOT YET
  2185						MOVEI	[ASCIZ/
  2186	033050	201 00 0 00 046036 	INSTRUCTION HUNG UP/]
  2187	033051	037 17 0 00 000001 		PNTALF
  2188	033052	254 00 0 00 033057 		JRST	ERRPNT+4
  2189
  2190	033053				ERRPNT:	MOVEI	[ASCIZ/
  2191	033053	201 00 0 00 046043 	SIMULATOR ERROR AT PC = /]
  2192	033054	037 17 0 00 000001 		PNTALF
  2193	033055	200 00 0 00 044005 		MOVE	0,ERR
  2194	033056	037 06 0 00 000001 		PNT6F
  2195						MOVEI	[ASCIZ/
  2196	033057	201 00 0 00 046051 	SIMULATED INSTRUCTION/]
  2197	033060	037 17 0 00 000001 		PNTALF
  2198	033061	260 17 0 00 032722 		GO	IRPNT2
  2199						IFNDEF	SIMASB,<
  2200						JRST	VMHALT+4>
  2201						IFDEF	SIMASB,<
  2202	033062	037 14 0 00 000004 		ERRHLT
  2203	033063	254 00 0 00 030000 		JRST	BEGIN>
  2204
  2205	033064				HDER1:	ASCIZ?
  2206	033064	015 012 123 124 101 	STATE   PC     MA     AB     MB           AD           AR?
  2207	033065	124 105 040 040 040
  2208	033066	120 103 040 040 040
  2209	033067	040 040 115 101 040
  2210	033070	040 040 040 040 101
  2211	033071	102 040 040 040 040
  2212	033072	040 115 102 040 040
  2213	033073	040 040 040 040 040
  2214	033074	040 040 040 040 101
  2215	033075	104 040 040 040 040
  2216	033076	040 040 040 040 040
  2217	033077	040 040 101 122 000
DBKDA	DECSYSTEM10 KI10 ARITHMETIC RELIABILITY TEST, VER 0,3	MACRO %51(414) 14:29  9-JUN-76 PAGE 12
KIPNT	MAC	 9-JUN-76 13:30		SIMULATOR MACHINE REGISTER PRINT                                               *** SEQ 0092

  2218
  2219	033100				HDER2:	ASCIZ?
  2220	033100	015 012 123 124 101 	STATE   AB     ADX          ARX           AD           AR?
  2221	033101	124 105 040 040 040
  2222	033102	101 102 040 040 040
  2223	033103	040 040 101 104 130
  2224	033104	040 040 040 040 040
  2225	033105	040 040 040 040 040
  2226	033106	101 122 130 040 040
  2227	033107	040 040 040 040 040
  2228	033110	040 040 040 040 101
  2229	033111	104 040 040 040 040
  2230	033112	040 040 040 040 040
  2231	033113	040 040 101 122 000
  2232
  2233	033114	106 115 040 040 040 	HDER3:	ASCIZ?FM           BR           MQ           SC  FE  SA
  2234	033115	040 040 040 040 040
  2235	033116	040 040 040 102 122
  2236	033117	040 040 040 040 040
  2237	033120	040 040 040 040 040
  2238	033121	040 115 121 040 040
  2239	033122	040 040 040 040 040
  2240	033123	040 040 040 040 123
  2241	033124	103 040 040 106 105
  2242	033125	040 040 123 101 015
  2243	033126	012 000 000 000 000 	?
DBKDA	DECSYSTEM10 KI10 ARITHMETIC RELIABILITY TEST, VER 0,3	MACRO %51(414) 14:29  9-JUN-76 PAGE 13
KIPNT	MAC	 9-JUN-76 13:30		SIMULATOR MACHINE REGISTER PRINT                                               *** SEQ 0093

  2244					;*INSTRUCTION SYMBOLIC CONVERSION
  2245					;*THIS ROUTINE CONVERTS THE INSTRUCTION TO SYMBOLIC
  2246					;*AND PRINTS IT OUT.
  2247
  2248	033127	402 00 0 00 046760 	PNTINS:	SETZM	CONNF#
  2249	033130	402 00 0 00 046761 		SETZM	DBLAF#		;CLEAR DOUBLE ARITHMETIC FLAG
  2250	033131	554 01 0 00 000012 		HLRZ	T,MB		;MOVE THE INSTRUCTION CODE TO RH OF T
  2251	033132	242 01 0 00 777767 		LSH	T,-^D9		;CLEAR AC,I,X
  2252	033133	200 02 0 00 000001 		MOVE	T1,T
  2253	033134	405 01 0 00 000077 		ANDI	T,77
  2254	033135	306 02 0 00 000777 		CAIN	T1,777
  2255	033136	254 00 0 00 033335 		JRST	MUOXT		;MONITOR UUO EXECUTE INST
  2256	033137	301 02 0 00 000700 		CAIL	T1,700
  2257	033140	254 00 0 00 033167 		JRST	CONN		;I/O INSTRUCTIONS
  2258	033141	301 02 0 00 000600 		CAIL	T1,600
  2259	033142	254 00 0 00 033300 		JRST	TTTST		;TEST INSTRUCTIONS
  2260	033143	301 02 0 00 000500 		CAIL	T1,500
  2261	033144	254 00 0 00 033266 		JRST	HTST		;HALF WORD INSTRUCTION
  2262	033145	301 02 0 00 000400 		CAIL	T1,400
  2263	033146	254 00 0 00 033256 		JRST	BOTST		;BOOLE INSTRUCTIONS
  2264	033147	301 02 0 00 000300 		CAIL	T1,300
  2265	033150	254 00 0 00 033246 		JRST	COMTST		;COMPARE INSTRUCTIONS
  2266	033151	301 02 0 00 000200 		CAIL	T1,200
  2267	033152	254 00 0 00 033210 		JRST	MOVTST		;MOVE INSTRUCTIONS
  2268	033153	301 02 0 00 000140 		CAIL	T1,140
  2269	033154	254 00 0 00 033171 		JRST	FLTTST		;FLOATING INSTRUCTIONS
  2270	033155	301 02 0 00 000130 		CAIL	T1,130
  2271	033156	254 00 0 00 033204 		JRST	BYTST		;BYTE INSTRUCTIONS
  2272	033157	301 02 0 00 000100 		CAIL	T1,100
  2273	033160	254 00 0 00 033321 		JRST	NEWTST		;NEW INSTRUCTIONS
  2274	033161	301 02 0 00 000040 		CAIL	T1,40
  2275	033162	254 00 0 00 033332 		JRST	MUOTST		;MONITOR UUO'S
  2276	033163	302 02 0 00 000000 		CAIE	T1,0
  2277	033164	254 00 0 00 033327 		JRST	UUOTST		;LOCAL UUO'S
  2278	033165	254 00 0 00 033332 		JRST	MUOTST		; 0 - ILLEGAL INSTRUCTION
  2279	033166	263 17 0 00 000000 	PTINS1:	POPJ	P,
  2280
  2281						IFDEF	SIMASB,<
  2282	033167	037 14 0 00 000004 	CONN:	ERRHLT
  2283	033170	254 00 0 00 030000 		JRST	BEGIN >
DBKDA	DECSYSTEM10 KI10 ARITHMETIC RELIABILITY TEST, VER 0,3	MACRO %51(414) 14:29  9-JUN-76 PAGE 14
KIPNT	MAC	 9-JUN-76 13:30		SIMULATOR MACHINE REGISTER PRINT                                               *** SEQ 0094

  2284	033171	405 01 0 00 000037 	FLTTST:	ANDI	T,37		;FLOATING POINT
  2285	033172	241 01 0 00 777776 		ROT	T,-2
  2286	033173	201 00 0 01 033771 		MOVEI	0,TBLFLT(T)
  2287	033174	037 00 0 00 000000 		PNTA
  2288	033175	241 01 0 00 000002 		ROT	T,2
  2289	033176	405 01 0 00 000007 		ANDI	T,7
  2290	033177	200 03 0 01 033657 		MOVE	T2,FLTTAB(T)
  2291	033200	201 00 0 01 034057 		MOVEI	0,TBLAD1(T)
  2292	033201	037 00 0 00 000000 	INSOUT:	PNTA
  2293	033202	202 03 0 00 047070 		MOVEM	T2,PTINDX#
  2294	033203	263 17 0 00 000000 		POPJ	P,
  2295
  2296	033204	405 01 0 00 000007 	BYTST:	ANDI	T,7		;UFA,DFN,FSC,BYTE
  2297	033205	200 03 0 01 033667 		MOVE	T2,BYTTAB(T)
  2298	033206	201 00 0 01 034001 		MOVEI	0,TBLBYT(T)
  2299	033207	254 00 0 00 033201 		JRST	INSOUT
  2300
  2301	033210	405 01 0 00 000077 	MOVTST:	ANDI	T,77
  2302	033211	305 01 0 00 000070 		CAIGE	T,70
  2303	033212	305 01 0 00 000040 		CAIGE	T,40
  2304	033213	254 00 0 00 033217 		JRST	.+4		;MOVE,ADD,SUB,MUL,+ETC
  2305	033214	200 03 0 01 033637 		MOVE	T2,MOTAB-40(T)
  2306	033215	201 00 0 01 033767 		MOVEI	0,TBLMO-40(T)	;SHIFTS,PUSH,POP,+ETC
  2307	033216	254 00 0 00 033201 		JRST	INSOUT
  2308	033217	400 02 0 00 000000 		SETZ	T1,
  2309	033220	245 01 0 00 777776 		ROTC	T,-2
  2310	033221	301 01 0 00 000010 		CAIL	T,10
  2311	033222	275 01 0 00 000006 		SUBI	T,6		;ADD,SUB
  2312	033223	201 00 0 01 034011 		MOVEI	0,TBLMV(T)
  2313	033224	037 00 0 00 000000 		PNTA
  2314	033225	245 01 0 00 000002 		ROTC	T,2
  2315	033226	301 01 0 00 000020 		CAIL	T,20
  2316	033227	254 00 0 00 033234 		JRST	IMLTST
  2317	033230	405 01 0 00 000003 		ANDI	T,3
  2318	033231	200 03 0 01 033727 		MOVE	T2,MOVTAB(T)
  2319	033232	201 00 0 01 034023 		MOVEI	0,TBLMOV(T)
  2320	033233	254 00 0 00 033201 		JRST	INSOUT
  2321
DBKDA	DECSYSTEM10 KI10 ARITHMETIC RELIABILITY TEST, VER 0,3	MACRO %51(414) 14:29  9-JUN-76 PAGE 15
KIPNT	MAC	 9-JUN-76 13:30		SIMULATOR MACHINE REGISTER PRINT                                               *** SEQ 0095

  2322	033234	301 01 0 00 000040 	IMLTST:	CAIL	T,40
  2323	033235	254 00 0 00 033242 		JRST	ADDTST
  2324	033236	405 01 0 00 000003 		ANDI	T,3		;IMUL,MUL,IDIV,DIV
  2325	033237	200 03 0 01 033733 		MOVE	T2,MULTAB(T)
  2326	033240	201 00 0 01 034063 		MOVEI	0,TBLAD1+4(T)
  2327	033241	254 00 0 00 033201 		JRST	INSOUT
  2328
  2329	033242	405 01 0 00 000003 	ADDTST:	ANDI	T,3		;ADD, SUB
  2330	033243	200 03 0 01 033663 		MOVE	T2,FLTTAB+4(T)
  2331	033244	201 00 0 01 034063 		MOVEI	0,TBLAD1+4(T)
  2332	033245	254 00 0 00 033201 		JRST	INSOUT
  2333
  2334	033246	241 01 0 00 777775 	COMTST:	ROT	T,-3		;MEM AND AC MOD AND TEST
  2335	033247	200 03 0 01 033737 		MOVE	T2,COMTAB(T)
  2336	033250	201 00 0 01 034067 		MOVEI	0,TBLCOM(T)
  2337	033251	037 00 0 00 000000 		PNTA
  2338	033252	241 01 0 00 000003 		ROT	T,3
  2339	033253	405 01 0 00 000007 		ANDI	T,7
  2340	033254	201 00 0 01 034077 		MOVEI	0,TBLCM(T)
  2341	033255	254 00 0 00 033201 		JRST	INSOUT
  2342
  2343	033256	241 01 0 00 777776 	BOTST:	ROT	T,-2		;BOOLE
  2344	033257	201 00 0 01 034107 		MOVEI	0,TBLBOL(T)
  2345	033260	037 00 0 00 000000 		PNTA
  2346	033261	241 01 0 00 000002 		ROT	T,2
  2347	033262	405 01 0 00 000003 		ANDI	T,3
  2348	033263	200 03 0 01 033663 		MOVE	T2,FLTTAB+4(T)
  2349	033264	201 00 0 01 034063 		MOVEI	0,TBLAD1+4(T)
  2350	033265	254 00 0 00 033201 		JRST	INSOUT
  2351
  2352	033266	201 00 0 00 034127 	HTST:	MOVEI	0,H.		;HALF WORD TRANSFERS
  2353	033267	037 00 0 00 000000 		PNTA
  2354	033270	241 01 0 00 777776 		ROT	T,-2
  2355	033271	201 00 0 01 034130 		MOVEI	0,TBLH(T)
  2356	033272	037 00 0 00 000000 		PNTA
  2357	033273	241 01 0 00 000002 		ROT	T,2
  2358	033274	405 01 0 00 000003 		ANDI	T,3
  2359	033275	200 03 0 01 033727 		MOVE	T2,MOVTAB(T)
  2360	033276	201 00 0 01 034023 		MOVEI	0,TBLMOV(T)
  2361	033277	254 00 0 00 033201 		JRST	INSOUT
DBKDA	DECSYSTEM10 KI10 ARITHMETIC RELIABILITY TEST, VER 0,3	MACRO %51(414) 14:29  9-JUN-76 PAGE 16
KIPNT	MAC	 9-JUN-76 13:30		SIMULATOR MACHINE REGISTER PRINT                                               *** SEQ 0096

  2362	033300	201 00 0 00 034150 	TTTST:	MOVEI	0,T.		;TEST
  2363	033301	037 00 0 00 000000 		PNTA
  2364	033302	200 03 0 00 046056 		MOVE	T2,[XWD	16,1]
  2365	033303	602 01 0 00 000010 		TRNE	T,10
  2366	033304	200 03 0 00 046057 		MOVE	T2,[XWD	2,1]
  2367	033305	602 01 0 00 000001 		TRNE	T,1
  2368	033306	254 00 0 00 033316 		JRST	TTODD
  2369	033307	241 01 0 00 777775 		ROT	T,-3
  2370	033310	201 00 0 01 034151 		MOVEI	0,TBLTA(T)
  2371	033311	037 00 0 00 000000 	TTSTA:	PNTA
  2372	033312	241 01 0 00 000002 		ROT	T,2
  2373	033313	405 01 0 00 000003 		ANDI	T,3
  2374	033314	201 00 0 01 034161 		MOVEI	0,TBLTA1(T)
  2375	033315	254 00 0 00 033201 		JRST	INSOUT
  2376
  2377	033316	241 01 0 00 777775 	TTODD:	ROT	T,-3
  2378	033317	201 00 0 01 034165 		MOVEI	0,TBLTB(T)
  2379	033320	254 00 0 00 033311 		JRST	TTSTA
  2380
  2381						IFNDEF	SIMASB,<
  2382					CONN:	SETOM	CONNF
  2383						HLRZ	T,MB		;I/O
  2384						ROT	T,-5
  2385						ANDI	T,7
  2386						MOVE	T2,CONTAB(T)
  2387						MOVEI	0,TBLCON(T)
  2388						JRST	INSOUT >
  2389
  2390	033321	405 01 0 00 000017 	NEWTST:	ANDI	T,17		;DOUBLE, FIX, + ETC
  2391	033322	301 01 0 00 000010 		CAIL	T,10		;DOUBLE ARITHMETIC ?
  2392	033323	476 00 0 00 046761 		SETOM	DBLAF		;YES
  2393	033324	200 03 0 01 033747 		MOVE	T2,NEWTAB(T)
  2394	033325	201 00 0 01 034175 		MOVEI	0,TBLNEW(T)
  2395	033326	254 00 0 00 033201 		JRST	INSOUT
  2396
  2397	033327	200 03 0 00 033767 	UUOTST:	MOVE	T2,UUOTAB
  2398	033330	201 00 0 00 034215 		MOVEI	0,TBLUUO	;UUO'S
  2399	033331	254 00 0 00 033201 		JRST	INSOUT
  2400
  2401	033332	200 03 0 00 033767 	MUOTST:	MOVE	T2,UUOTAB
  2402	033333	201 00 0 00 034216 		MOVEI	0,TBLMUO	;MONITR UUO'S
  2403	033334	254 00 0 00 033201 		JRST	INSOUT
  2404
  2405	033335	200 03 0 00 033770 	MUOXT:	MOVE	T2,MUOTAB	;MUUO EXECUTE INST
  2406	033336	201 00 0 00 034217 		MOVEI	0,TBLMUX
  2407	033337	254 00 0 00 033201 		JRST	INSOUT
DBKDA	DECSYSTEM10 KI10 ARITHMETIC RELIABILITY TEST, VER 0,3	MACRO %51(414) 14:29  9-JUN-76 PAGE 17
KIPNT	MAC	 9-JUN-76 13:30		SIMULATOR MACHINE REGISTER PRINT                                               *** SEQ 0097

  2408					;*INITIAL/FINAL AC,E PRINTOUT
  2409
  2410	033340	332 00 0 00 046745 	INTPNT:	SKIPE	BYF5
  2411	033341	254 00 0 00 033353 		JRST	IT12
  2412	033342	550 03 0 00 046710 		HRRZ	T2,AB		;GET E ADDRESS
  2413	033343	202 03 0 00 047120 		MOVEM	T2,SVAB1#
  2414	033344	402 00 0 00 047005 		SETZM	INIT1A#
  2415	033345	402 00 0 00 047007 		SETZM	INIT2A#
  2416	033346	402 00 0 00 047011 		SETZM	INIT3A#
  2417	033347	402 00 0 00 047013 		SETZM	INIT4A#
  2418	033350	554 03 0 00 047070 		HLRZ	T2,PTINDX	;GET PRINT INDEX, INITIAL
  2419	033351	260 17 1 03 033356 		GO	@SETLST(T2)	;SETUP INITIAL CONDITIONS
  2420	033352	263 17 0 00 000000 		POPJ	P,
  2421
  2422	033353	550 04 0 00 046710 	IT12:	HRRZ	T3,AB		;PICKUP C(C(E))
  2423	033354	202 04 0 00 047121 		MOVEM	T3,SVAB2#
  2424	033355	254 00 0 00 033550 		JRST	CCE+1
  2425
  2426	033356	000000	033377		SETLST:	INDX0
  2427	033357	000000	033400			INDX1
  2428	033360	000000	033402			INDX2
  2429	033361	000000	033405			INDX3
  2430	033362	000000	033410			INDX4
  2431	033363	000000	033414			INDX5
  2432	033364	000000	033417			INDX6
  2433	033365	000000	033422			INDX7
  2434	033366	000000	033426			INDX10
  2435	033367	000000	033433			INDX11
  2436	033370	000000	033435			INDX12
  2437	033371	000000	033440			INDX13
  2438	033372	000000	033444			INDX14
  2439	033373	000000	033450			INDX15
  2440	033374	000000	033453			INDX16
  2441	033375	000000	033456			INDX17
  2442	033376	000000	033462			INDX20
DBKDA	DECSYSTEM10 KI10 ARITHMETIC RELIABILITY TEST, VER 0,3	MACRO %51(414) 14:29  9-JUN-76 PAGE 18
KIPNT	MAC	 9-JUN-76 13:30		SIMULATOR MACHINE REGISTER PRINT                                               *** SEQ 0098

  2443	033377	263 17 0 00 000000 	INDX0:	POPJ	P,		;DON'T PRINT
  2444
  2445	033400	260 17 0 00 033464 	INDX1:	GO	CAC		;PRINT C(AC)
  2446	033401	263 17 0 00 000000 		POPJ	P,
  2447
  2448	033402	260 17 0 00 033464 	INDX2:	GO	CAC		;PRINT C(AC)
  2449	033403	260 17 0 00 033533 		GO	CE		;PRINT C(E)
  2450	033404	263 17 0 00 000000 		POPJ	P,
  2451
  2452	033405	260 17 0 00 033464 	INDX3:	GO	CAC		;PRINT C(AC)
  2453	033406	260 17 0 00 033472 		GO	CAC1		;PRINT C(AC+1)
  2454	033407	263 17 0 00 000000 		POPJ	P,
  2455
  2456	033410	260 17 0 00 033464 	INDX4:	GO	CAC		;PRINT C(AC)
  2457	033411	260 17 0 00 033472 		GO	CAC1		;PRINT C(AC+1)
  2458	033412	260 17 0 00 033533 		GO	CE		;PRINT C(E)
  2459	033413	263 17 0 00 000000 		POPJ	P,
  2460
  2461	033414	260 17 0 00 033464 	INDX5:	GO	CAC		;PRINT C(AC)
  2462	033415	260 17 0 00 033501 		GO	CACR		;PRINT C(C(ACR))
  2463	033416	263 17 0 00 000000 		POPJ	P,
  2464
  2465	033417	260 17 0 00 033464 	INDX6:	GO	CAC		;PRINT C(AC)
  2466	033420	260 17 0 00 033510 		GO	CACR1		;PRINT	C(C(ACR+1))
  2467	033421	263 17 0 00 000000 		POPJ	P,
  2468
  2469	033422	260 17 0 00 033464 	INDX7:	GO	CAC		;PRINT C(AC)
  2470	033423	260 17 0 00 033533 		GO	CE		;PRINT C(E)
  2471	033424	260 17 0 00 033547 		GO	CCE		;PRINT C(C(E))
  2472	033425	263 17 0 00 000000 		POPJ	P,
  2473
DBKDA	DECSYSTEM10 KI10 ARITHMETIC RELIABILITY TEST, VER 0,3	MACRO %51(414) 14:29  9-JUN-76 PAGE 19
KIPNT	MAC	 9-JUN-76 13:30		SIMULATOR MACHINE REGISTER PRINT                                               *** SEQ 0099

  2474	033426	260 17 0 00 033464 	INDX10:	GO	CAC		;PRINT C(AC)
  2475	033427	260 17 0 00 033472 		GO	CAC1		;PRINT C(AC+1)
  2476	033430	260 17 0 00 033533 		GO	CE		;PRINT C(E)
  2477	033431	260 17 0 00 033542 		GO	CE1		;PRINT C(E+1)
  2478	033432	263 17 0 00 000000 		POPJ	P,
  2479
  2480	033433	260 17 0 00 033533 	INDX11:	GO	CE		;PRINT C(E)
  2481	033434	263 17 0 00 000000 		POPJ	P,
  2482
  2483	033435	260 17 0 00 033533 	INDX12:	GO	CE		;PRINT C(E)
  2484	033436	260 17 0 00 033542 		GO	CE1		;PRINT C(E+1)
  2485	033437	263 17 0 00 000000 		POPJ	P,
  2486
  2487	033440	260 17 0 00 033464 	INDX13:	GO	CAC		;PRINT C(AC)
  2488	033441	260 17 0 00 033501 		GO	CACR		;PRINT C(C(ACR))
  2489	033442	260 17 0 00 033533 		GO	CE		;PRINT C(E)
  2490	033443	263 17 0 00 000000 		POPJ	P,
  2491
  2492	033444	260 17 0 00 033464 	INDX14:	GO	CAC		;PRINT C(AC)
  2493	033445	260 17 0 00 033510 		GO	CACR1		;PRINT C(C(ACR+1))
  2494	033446	260 17 0 00 033533 		GO	CE		;PRINT C(E)
  2495	033447	263 17 0 00 000000 		POPJ	P,
  2496
  2497	033450	260 17 0 00 033464 	INDX15:	GO	CAC		;PRINT C(AC)
  2498	033451	260 17 0 00 033517 		GO	CACL		;PRINT C(C(ACL))
  2499	033452	263 17 0 00 000000 		POPJ	P,
  2500
  2501	033453	260 17 0 00 033464 	INDX16:	GO	CAC		;PRINT C(AC)
  2502	033454	260 17 0 00 033526 		GO	E		;PRINT E
  2503	033455	263 17 0 00 000000 		POPJ	P,
  2504
  2505	033456	260 17 0 00 033464 	INDX17:	GO	CAC		;PRINT C(AC)
  2506	033457	260 17 0 00 033472 		GO	CAC1		;PRINT C(AC+1)
  2507	033460	260 17 0 00 033526 		GO	E		;PRINT E
  2508	033461	263 17 0 00 000000 		POPJ	P,
  2509
  2510	033462	260 17 0 00 033526 	INDX20:	GO	E		;PRINT E
  2511	033463	263 17 0 00 000000 		POPJ	P,
DBKDA	DECSYSTEM10 KI10 ARITHMETIC RELIABILITY TEST, VER 0,3	MACRO %51(414) 14:29  9-JUN-76 PAGE 20
KIPNT	MAC	 9-JUN-76 13:30		SIMULATOR MACHINE REGISTER PRINT                                               *** SEQ 0100

  2512	033464	200 04 0 00 047122 	CAC:	MOVE	T3,SVAC
  2513	033465	200 00 0 04 032403 		MOVE	0,ACS(T3)
  2514	033466	202 00 0 00 047004 		MOVEM	0,INIT1#
  2515	033467	201 00 0 00 046060 		MOVEI	[ASCIZ/C(AC)=/]
  2516	033470	202 00 0 00 047005 		MOVEM	INIT1A
  2517	033471	263 17 0 00 000000 		POPJ	P,
  2518
  2519	033472	271 04 0 00 000001 	CAC1:	ADDI	T3,1
  2520	033473	405 04 0 00 000017 		ANDI	T3,17
  2521	033474	200 00 0 04 032403 		MOVE	0,ACS(T3)
  2522	033475	202 00 0 00 047006 		MOVEM	0,INIT2#
  2523	033476	201 00 0 00 046062 		MOVEI	[ASCIZ/C(AC+1)=/]
  2524	033477	202 00 0 00 047007 		MOVEM	INIT2A
  2525	033500	263 17 0 00 000000 		POPJ	P,
  2526
  2527	033501	550 04 0 00 047004 	CACR:	HRRZ	T3,INIT1
  2528	033502	260 17 0 00 033560 		GO	CADR
  2529	033503	200 00 0 04 000000 		MOVE	0,0(T3)
  2530	033504	202 00 0 00 047006 		MOVEM	0,INIT2
  2531	033505	201 00 0 00 046064 		MOVEI	[ASCIZ/C(C(ACR))=/]
  2532	033506	202 00 0 00 047007 		MOVEM	INIT2A
  2533	033507	263 17 0 00 000000 		POPJ	P,
  2534
  2535	033510	550 04 0 00 047004 	CACR1:	HRRZ	T3,INIT1
  2536	033511	260 17 0 00 033560 		GO	CADR
  2537	033512	200 00 0 04 000001 		MOVE	0,1(T3)
  2538	033513	202 00 0 00 047006 		MOVEM	0,INIT2
  2539	033514	201 00 0 00 046067 		MOVEI	[ASCIZ/C(C(ACR+1))=/]
  2540	033515	202 00 0 00 047007 		MOVEM	INIT2A
  2541	033516	263 17 0 00 000000 		POPJ	P,
  2542
  2543	033517	554 04 0 00 047004 	CACL:	HLRZ	T3,INIT1
  2544	033520	260 17 0 00 033560 		GO	CADR
  2545	033521	200 00 0 04 000000 		MOVE	0,0(T3)
  2546	033522	202 00 0 00 047006 		MOVEM	0,INIT2
  2547	033523	201 00 0 00 046072 		MOVEI	[ASCIZ/C(C(ACL))=/]
  2548	033524	202 00 0 00 047007 		MOVEM	INIT2A
  2549	033525	263 17 0 00 000000 		POPJ	P,
DBKDA	DECSYSTEM10 KI10 ARITHMETIC RELIABILITY TEST, VER 0,3	MACRO %51(414) 14:29  9-JUN-76 PAGE 21
KIPNT	MAC	 9-JUN-76 13:30		SIMULATOR MACHINE REGISTER PRINT                                               *** SEQ 0101

  2550	033526	200 00 0 00 047120 	E:	MOVE	0,SVAB1
  2551	033527	202 00 0 00 047010 		MOVEM	0,INIT3
  2552	033530	201 00 0 00 046075 		MOVEI	[ASCIZ/E    =/]
  2553	033531	202 00 0 00 047011 		MOVEM	INIT3A
  2554	033532	263 17 0 00 000000 		POPJ	P,
  2555
  2556	033533	200 04 0 00 047120 	CE:	MOVE	T3,SVAB1
  2557	033534	260 17 0 00 033560 		GO	CADR
  2558	033535	200 00 0 04 000000 		MOVE	0,0(T3)
  2559	033536	202 00 0 00 047010 		MOVEM	0,INIT3#
  2560	033537	201 00 0 00 046077 		MOVEI	[ASCIZ/C(E) =/]
  2561	033540	202 00 0 00 047011 		MOVEM	INIT3A
  2562	033541	263 17 0 00 000000 		POPJ	P,
  2563
  2564	033542	200 00 0 04 000001 	CE1:	MOVE	0,1(T3)
  2565	033543	202 00 0 00 047012 		MOVEM	0,INIT4#
  2566	033544	201 00 0 00 046101 		MOVEI	[ASCIZ/C(E+1) =/]
  2567	033545	202 00 0 00 047013 		MOVEM	INIT4A
  2568	033546	263 17 0 00 000000 		POPJ	P,
  2569
  2570	033547	550 04 0 00 047121 	CCE:	HRRZ	T3,SVAB2
  2571	033550	311 04 0 00 032177 		CAML	T3,VMEM
  2572	033551	263 17 0 00 000000 		POPJ	P,
  2573	033552	260 17 0 00 033560 		GO	CADR
  2574	033553	200 00 0 04 000000 		MOVE	0,0(T3)
  2575	033554	202 00 0 00 047012 		MOVEM	0,INIT4
  2576	033555	201 00 0 00 046103 		MOVEI	[ASCIZ/C(C(E))=/]
  2577	033556	202 00 0 00 047013 		MOVEM	INIT4A
  2578	033557	263 17 0 00 000000 		POPJ	P,
  2579
  2580	033560	307 04 0 00 000017 	CADR:	CAIG	T3,17		;IF GREATER THAN 17
  2581	033561	254 00 0 00 033564 		JRST	.+3
  2582	033562	271 04 0 00 000000 		ADDI	T3,OFFSET	;ADD IN OFFSET, PROG IN HIGH SEGMENT
  2583	033563	263 17 0 00 000000 		RTN
  2584	033564	271 04 0 00 032403 		ADDI	T3,ACS		;IF NOT, POINT TO SIM AC'S
  2585	033565	263 17 0 00 000000 		RTN
DBKDA	DECSYSTEM10 KI10 ARITHMETIC RELIABILITY TEST, VER 0,3	MACRO %51(414) 14:29  9-JUN-76 PAGE 22
KIPNT	MAC	 9-JUN-76 13:30		SIMULATOR MACHINE REGISTER PRINT                                               *** SEQ 0102

  2586	033566	037 10 0 00 000002 	INTFNL:	SWITCH
  2587	033567	602 00 0 00 000000 		TRNE	INHIF		;INHIBIT INITIAL/FINAL RESULTS ?
  2588	033570	263 17 0 00 000000 		POPJ	P,		;YES
  2589						MOVEI	[ASCIZ?
  2590	033571	201 00 0 00 046105 	FLAGS - INT/FINAL   ?]
  2591	033572	037 17 0 00 000000 		PNTAL
  2592	033573	200 00 0 00 047140 		MOVE	0,SVPC1
  2593	033574	544 00 0 00 000013 		HLR	0,PC
  2594	033575	037 13 0 00 000000 		PNTHW
  2595	033576	201 00 0 00 030242 		MOVEI	CRLF
  2596	033577	037 00 0 00 000000 		PNTA
  2597					INTFN1:	MOVEI	[ASCIZ/INITIAL
  2598	033600	201 00 0 00 046112 	/]
  2599	033601	037 17 0 00 000000 		PNTAL
  2600	033602	476 00 0 00 030223 		SETOM	PNTSPC		;SET PRINT SPACE AFTER OCTALS CONTROL
  2601	033603	260 17 0 00 033621 		GO	IFPNT		;PRINT INITIAL CONDITIONS
  2602	033604	402 00 0 00 047005 		SETZM	INIT1A
  2603	033605	402 00 0 00 047007 		SETZM	INIT2A
  2604	033606	402 00 0 00 047011 		SETZM	INIT3A
  2605	033607	402 00 0 00 047013 		SETZM	INIT4A
  2606	033610	550 03 0 00 047070 		HRRZ	T2,PTINDX	;GET PRINT INDEX, FINAL
  2607	033611	322 03 0 00 033616 		JUMPE	T2,INTFN2	;IF ZERO, NO FINAL
  2608						MOVEI	[ASCIZ/
  2609					FINAL
  2610	033612	201 00 0 00 046114 	/]
  2611	033613	037 17 0 00 000000 		PNTAL
  2612	033614	260 17 1 03 033356 		GO	@SETLST(T2)	;SETUP FINAL CONDITIONS
  2613	033615	260 17 0 00 033621 		GO	IFPNT		;PRINT
  2614	033616				INTFN2:	MOVEI	[ASCIZ/
  2615					----------
  2616	033616	201 00 0 00 046116 	/]
  2617	033617	037 17 0 00 000000 		PNTAL
  2618	033620	263 17 0 00 000000 		POPJ	P,
DBKDA	DECSYSTEM10 KI10 ARITHMETIC RELIABILITY TEST, VER 0,3	MACRO %51(414) 14:29  9-JUN-76 PAGE 23
KIPNT	MAC	 9-JUN-76 13:30		SIMULATOR MACHINE REGISTER PRINT                                               *** SEQ 0103

  2619	033621	336 00 0 00 047005 	IFPNT:	SKIPN	INIT1A
  2620	033622	254 00 0 00 033627 		JRST	.+5
  2621	033623	200 00 0 00 047005 		MOVE	INIT1A
  2622	033624	037 17 0 00 000000 		PNTAL
  2623	033625	200 00 0 00 047004 		MOVE	INIT1
  2624	033626	037 13 0 00 000000 		PNTHW			;PRINT C(AC)
  2625	033627	336 00 0 00 047007 		SKIPN	INIT2A
  2626	033630	254 00 0 00 033635 		JRST	.+5
  2627	033631	200 00 0 00 047007 		MOVE	INIT2A
  2628	033632	037 17 0 00 000000 		PNTAL
  2629	033633	200 00 0 00 047006 		MOVE	INIT2
  2630	033634	037 13 0 00 000000 		PNTHW			;PRINT C(AC+1), C(C(ACR)), C(C(ACR+1)), C(C(ACL))
  2631	033635	200 00 0 00 030046 		MOVE	0,CONSW
  2632	033636	603 00 0 00 020000 		TLNE	PNTLPT
  2633	033637	254 00 0 00 033642 		JRST	.+3
  2634	033640	201 00 0 00 030242 		MOVEI	CRLF
  2635	033641	037 00 0 00 000000 		PNTA
  2636	033642	336 00 0 00 047011 		SKIPN	INIT3A
  2637	033643	254 00 0 00 033650 		JRST	.+5
  2638	033644	200 00 0 00 047011 		MOVE	INIT3A
  2639	033645	037 17 0 00 000000 		PNTAL
  2640	033646	200 00 0 00 047010 		MOVE	INIT3
  2641	033647	037 13 0 00 000000 		PNTHW			;PRINT C(E), E
  2642	033650	336 00 0 00 047013 		SKIPN	INIT4A
  2643	033651	254 00 0 00 033656 		JRST	.+5
  2644	033652	200 00 0 00 047013 		MOVE	INIT4A
  2645	033653	037 17 0 00 000000 		PNTAL
  2646	033654	200 00 0 00 047012 		MOVE	INIT4
  2647	033655	037 13 0 00 000000 		PNTHW			;PRINT C(E+1), C(C(E))
  2648	033656	263 17 0 00 000000 		RTN
DBKDA	DECSYSTEM10 KI10 ARITHMETIC RELIABILITY TEST, VER 0,3	MACRO %51(414) 14:29  9-JUN-76 PAGE 24
KIPNT	MAC	 9-JUN-76 13:30		SIMULATOR MACHINE REGISTER PRINT                                               *** SEQ 0104

  2649					;*THE INDEX NUMBERS IN THE FOLLOWING TABLE
  2650					;*INFORM THE PROGRAM WHICH REGISTERS TO PRINT
  2651					;*THE NUMBERS HAVE THE FOLLOWING SIGNIFICANCE.
  2652
  2653					;*INDEX	REGISTERS
  2654					;*0	NONE
  2655					;*1	C(AC)
  2656					;*2	C(AC)			C(E)
  2657					;*3	C(AC)	C(AC+1)
  2658					;*4	C(AC)	C(AC+1)		C(E)
  2659					;*5	C(AC)	C(C(ACR))
  2660					;*6	C(AC)	C(C(ACR+1))
  2661					;*7	C(AC)			C(E)	C(C(E))
  2662					;*10	C(AC)	C(AC+1)		C(E)	C(E+1)
  2663					;*11				C(E)
  2664					;*12				C(E)	C(E+1)
  2665					;*13	C(AC)	C(C(ACR))	C(E)
  2666					;*14	C(AC)	C(C(ACR+1))	C(E)
  2667					;*15	C(AC)	C(C(ACL))
  2668					;*16	C(AC)						E
  2669					;*17	C(AC)	C(AC+1)					E
  2670					;*20							E
DBKDA	DECSYSTEM10 KI10 ARITHMETIC RELIABILITY TEST, VER 0,3	MACRO %51(414) 14:29  9-JUN-76 PAGE 25
KIPNT	MAC	 9-JUN-76 13:30		SIMULATOR MACHINE REGISTER PRINT                                               *** SEQ 0105

  2671	033657	000002	000001		FLTTAB:	XWD	2,1		;FAD
  2672	033660	000004	000003			XWD	4,3		;FADL
  2673	033661	000002	000011			XWD	2,11		;FADM
  2674	033662	000002	000002			XWD	2,2		;FADB
  2675	033663	000002	000001			XWD	2,1		; -
  2676	033664	000016	000001			XWD	16,1		; I
  2677	033665	000002	000011			XWD	2,11		; M
  2678	033666	000002	000002			XWD	2,2		; B
  2679
  2680	033667	000004	000004		BYTTAB:	XWD	4,4		;UFA
  2681	033670	000002	000002			XWD	2,2		;DFN
  2682	033671	000016	000001			XWD	16,1		;FSC
  2683	033672	000011	000011			XWD	11,11		;BYTES
  2684	033673	000007	000007			XWD	7,7
  2685	033674	000007	000007			XWD	7,7
  2686	033675	000007	000007			XWD	7,7
  2687	033676	000007	000007			XWD	7,7
  2688
  2689	033677	000016	000001		MOTAB:	XWD	16,1		;ASH
  2690	033700	000016	000001			XWD	16,1		;ROT
  2691	033701	000016	000001			XWD	16,1		;LSH
  2692	033702	000003	000003			XWD	3,3		;JFFO
  2693	033703	000017	000003			XWD	17,3		;ASHC
  2694	033704	000017	000003			XWD	17,3		;ROTC
  2695	033705	000017	000003			XWD	17,3		;LSHC
  2696	033706	000000	000000			XWD	0,0		;ERR
  2697	033707	000002	000002			XWD	2,2		;EXCH
  2698	033710	000016	000001			XWD	16,1		;BLT
  2699	033711	000016	000001			XWD	16,1		;AOBJP
  2700	033712	000016	000001			XWD	16,1		;AOBJN
  2701	033713	000020	000000			XWD	20,0		;JRST
  2702	033714	000020	000000			XWD	20,0		;JFCL
  2703	033715	000020	000011			XWD	20,11		;XCT
  2704	033716	000016	000001			XWD	16,1		;MAP
  2705	033717	000006	000005			XWD	6,5		;PUSHJ
  2706	033720	000014	000005			XWD	14,5		;PUSH
  2707	033721	000013	000002			XWD	13,2		;POP
  2708	033722	000005	000001			XWD	5,1		;POPJ
  2709	033723	000011	000011			XWD	11,11		;JSR
  2710	033724	000016	000001			XWD	16,1		;JSP
  2711	033725	000002	000002			XWD	2,2		;JSA
  2712	033726	000015	000001			XWD	15,1		;JRA
  2713
  2714	033727	000002	000001		MOVTAB:	XWD	2,1		; -
  2715	033730	000016	000001			XWD	16,1		; I
  2716	033731	000002	000011			XWD	2,11		; M
  2717	033732	000002	000002			XWD	2,2		; S
  2718
DBKDA	DECSYSTEM10 KI10 ARITHMETIC RELIABILITY TEST, VER 0,3	MACRO %51(414) 14:29  9-JUN-76 PAGE 26
KIPNT	MAC	 9-JUN-76 13:30		SIMULATOR MACHINE REGISTER PRINT                                               *** SEQ 0106

  2719	033733	000004	000003		MULTAB:	XWD	4,3		; -
  2720	033734	000017	000003			XWD	17,3		; I
  2721	033735	000004	000011			XWD	4,11		; M
  2722	033736	000004	000004			XWD	4,4		; B
  2723
  2724	033737	000016	000000		COMTAB:	XWD	16,0		;CAI
  2725	033740	000002	000000			XWD	2,0		;CAM
  2726	033741	000016	000000			XWD	16,0		;JUMP
  2727	033742	000002	000001			XWD	2,1		;SKIP
  2728	033743	000016	000001			XWD	16,1		;AOJ
  2729	033744	000002	000002			XWD	2,2		;AOS
  2730	033745	000016	000001			XWD	16,1		;SOJ
  2731	033746	000002	000002			XWD	2,2		;SOS
  2732
  2733	033747	000010	000003		NEWTAB:	XWD	10,3		;DMOVE
  2734	033750	000010	000003			XWD	10,3		;DMOVN
  2735	033751	000002	000001			XWD	2,1		;FIX
  2736	033752	000000	000000			0
  2737	033753	000010	000012			XWD	10,12		;DMOVM
  2738	033754	000010	000012			XWD	10,12		;DMNNM
  2739	033755	000002	000001			XWD	2,1		;FIXR
  2740	033756	000002	000001			XWD	2,1		;FLTR
  2741	033757	000010	000003			XWD	10,3		;DFAD
  2742	033760	000010	000003			XWD	10,3		;DFSB
  2743	033761	000010	000003			XWD	10,3		;DFMP
  2744	033762	000010	000003			XWD	10,3		;DFDV
  2745	033763	000000	000000			0
  2746	033764	000000	000000			0
  2747	033765	000000	000000			0
  2748	033766	000000	000000			0
  2749
  2750	033767	000020	000000		UUOTAB:	XWD	20,0		;LUUO
  2751
  2752	033770	000012	000012		MUOTAB:	XWD	12,12		;MUUO EXECUTION
  2753						IFNDEF	SIMASB,<
  2754					CONTAB:	XWD	7,7		;BLKI
  2755						XWD	11,11		;DATAI
  2756						XWD	7,7		;BLKO
  2757						XWD	11,0		;DATAO
  2758						XWD	20,0		;CONO
  2759						XWD	11,11		;CONI
  2760						XWD	20,0		;CONSZ
  2761						XWD	20,0		;CONSO
  2762					>
DBKDA	DECSYSTEM10 KI10 ARITHMETIC RELIABILITY TEST, VER 0,3	MACRO %51(414) 14:29  9-JUN-76 PAGE 27
KIPNT	MAC	 9-JUN-76 13:30		SIMULATOR MACHINE REGISTER PRINT                                               *** SEQ 0107

  2763					;*SIMULATOR SYMBOL TABLE
  2764
  2765					DEFINE	INX	(A)<
  2766						ASCII /A/>
  2767
  2768	033771				TBLFLT:	INX	FAD^;	;140
  2769	033771	106 101 104 000 000 		ASCII /FAD/
  2770						INX	FADR^;	;144
  2771	033772	106 101 104 122 000 		ASCII /FADR/
  2772						INX	FSB^;	;150
  2773	033773	106 123 102 000 000 		ASCII /FSB/
  2774						INX	FSBR^;	;154
  2775	033774	106 123 102 122 000 		ASCII /FSBR/
  2776						INX	FMP^;	;160
  2777	033775	106 115 120 000 000 		ASCII /FMP/
  2778						INX	FMPR^;	;164
  2779	033776	106 115 120 122 000 		ASCII /FMPR/
  2780						INX	FDV^;	;170
  2781	033777	106 104 126 000 000 		ASCII /FDV/
  2782						INX	FDVR^;	;174
  2783	034000	106 104 126 122 000 		ASCII /FDVR/
  2784
  2785	034001				TBLBYT:	INX	UFA^;	;130
  2786	034001	125 106 101 000 000 		ASCII /UFA/
  2787						INX	DFN^;	;131
  2788	034002	104 106 116 000 000 		ASCII /DFN/
  2789						INX	FSC^;	;132
  2790	034003	106 123 103 000 000 		ASCII /FSC/
  2791						INX	IBP^;	;133
  2792	034004	111 102 120 000 000 		ASCII /IBP/
  2793						INX	ILDB^;	;134
  2794	034005	111 114 104 102 000 		ASCII /ILDB/
  2795						INX	LDB^;	;135
  2796	034006	114 104 102 000 000 		ASCII /LDB/
  2797						INX	IDPB^;	;136
  2798	034007	111 104 120 102 000 		ASCII /IDPB/
  2799						INX	DPB^;	;137
  2800	034010	104 120 102 000 000 		ASCII /DPB/
DBKDA	DECSYSTEM10 KI10 ARITHMETIC RELIABILITY TEST, VER 0,3	MACRO %51(414) 14:29  9-JUN-76 PAGE 28
KIPNT	MAC	 9-JUN-76 13:30		SIMULATOR MACHINE REGISTER PRINT                                               *** SEQ 0108

  2801	034011				TBLMV:	INX	MOVE^;	;200
  2802	034011	115 117 126 105 000 		ASCII /MOVE/
  2803						INX	MOVS^;	;204
  2804	034012	115 117 126 123 000 		ASCII /MOVS/
  2805						INX	MOVN^;	;210
  2806	034013	115 117 126 116 000 		ASCII /MOVN/
  2807						INX	MOVM^;	;214
  2808	034014	115 117 126 115 000 		ASCII /MOVM/
  2809						INX	IMUL^;	;220
  2810	034015	111 115 125 114 000 		ASCII /IMUL/
  2811						INX	MUL^;	;224
  2812	034016	115 125 114 000 000 		ASCII /MUL/
  2813						INX	IDIV^;	;230
  2814	034017	111 104 111 126 000 		ASCII /IDIV/
  2815						INX	DIV^;	;234
  2816	034020	104 111 126 000 000 		ASCII /DIV/
  2817						INX	ADD^;	;270
  2818	034021	101 104 104 000 000 		ASCII /ADD/
  2819						INX	SUB^;	;274
  2820	034022	123 125 102 000 000 		ASCII /SUB/
  2821
  2822	034023	040 000 000 000 000 	TBLMOV:	ASCII / /	;0,4
  2823						INX	I^;	;1,5
  2824	034024	111 000 000 000 000 		ASCII /I/
  2825						INX	M^;	;2,6
  2826	034025	115 000 000 000 000 		ASCII /M/
  2827						INX	S^;	;3,7
  2828	034026	123 000 000 000 000 		ASCII /S/
DBKDA	DECSYSTEM10 KI10 ARITHMETIC RELIABILITY TEST, VER 0,3	MACRO %51(414) 14:29  9-JUN-76 PAGE 29
KIPNT	MAC	 9-JUN-76 13:30		SIMULATOR MACHINE REGISTER PRINT                                               *** SEQ 0109

  2829	034027				TBLMO:	INX	ASH^;	;240
  2830	034027	101 123 110 000 000 		ASCII /ASH/
  2831						INX	ROT^;	;241
  2832	034030	122 117 124 000 000 		ASCII /ROT/
  2833						INX	LSH^;	;242
  2834	034031	114 123 110 000 000 		ASCII /LSH/
  2835						INX	JFFO^;	;243
  2836	034032	112 106 106 117 000 		ASCII /JFFO/
  2837						INX	ASHC^;	;244
  2838	034033	101 123 110 103 000 		ASCII /ASHC/
  2839						INX	ROTC^;	;245
  2840	034034	122 117 124 103 000 		ASCII /ROTC/
  2841						INX	LSHC^;	;246
  2842	034035	114 123 110 103 000 		ASCII /LSHC/
  2843
  2844						INX	ERR^;	;247
  2845	034036	105 122 122 000 000 		ASCII /ERR/
  2846						INX	EXCH^;	;250
  2847	034037	105 130 103 110 000 		ASCII /EXCH/
  2848						INX	BLT^;	;251
  2849	034040	102 114 124 000 000 		ASCII /BLT/
  2850						INX	AOBJP^;	;252
  2851	034041	101 117 102 112 120 		ASCII /AOBJP/
  2852						INX	AOBJN^;	;253
  2853	034042	101 117 102 112 116 		ASCII /AOBJN/
  2854						INX	JRST^;	;254
  2855	034043	112 122 123 124 000 		ASCII /JRST/
  2856						INX	JFCL^;	;255
  2857	034044	112 106 103 114 000 		ASCII /JFCL/
  2858						INX	XCT^;	;256
  2859	034045	130 103 124 000 000 		ASCII /XCT/
  2860						INX	MAP^;	;257
  2861	034046	115 101 120 000 000 		ASCII /MAP/
  2862						INX	PUSHJ^;	;260
  2863	034047	120 125 123 110 112 		ASCII /PUSHJ/
  2864						INX	PUSH^;	;261
  2865	034050	120 125 123 110 000 		ASCII /PUSH/
  2866						INX	POP^;	;262
  2867	034051	120 117 120 000 000 		ASCII /POP/
  2868						INX	POPJ^;	;263
  2869	034052	120 117 120 112 000 		ASCII /POPJ/
  2870						INX	JSR^;	;264
  2871	034053	112 123 122 000 000 		ASCII /JSR/
  2872						INX	JSP^;	;265
  2873	034054	112 123 120 000 000 		ASCII /JSP/
  2874						INX	JSA^;	;266
  2875	034055	112 123 101 000 000 		ASCII /JSA/
  2876						INX	JRA^;	;267
  2877	034056	112 122 101 000 000 		ASCII /JRA/
DBKDA	DECSYSTEM10 KI10 ARITHMETIC RELIABILITY TEST, VER 0,3	MACRO %51(414) 14:29  9-JUN-76 PAGE 30
KIPNT	MAC	 9-JUN-76 13:30		SIMULATOR MACHINE REGISTER PRINT                                               *** SEQ 0110

  2878	034057	040 000 000 000 000 	TBLAD1:	ASCII / /	;0
  2879						INX	L^;	;1
  2880	034060	114 000 000 000 000 		ASCII /L/
  2881						INX	M^;	;2
  2882	034061	115 000 000 000 000 		ASCII /M/
  2883						INX	B^;	;3
  2884	034062	102 000 000 000 000 		ASCII /B/
  2885	034063	040 000 000 000 000 		ASCII / /	;0,4
  2886						INX	I^;	;1,5
  2887	034064	111 000 000 000 000 		ASCII /I/
  2888						INX	M^;	;2,6
  2889	034065	115 000 000 000 000 		ASCII /M/
  2890						INX	B^;	;3,7
  2891	034066	102 000 000 000 000 		ASCII /B/
  2892
  2893	034067				TBLCOM:	INX	CAI^;	;300
  2894	034067	103 101 111 000 000 		ASCII /CAI/
  2895						INX	CAM^;	;310
  2896	034070	103 101 115 000 000 		ASCII /CAM/
  2897						INX	JUMP^;	;320
  2898	034071	112 125 115 120 000 		ASCII /JUMP/
  2899						INX	SKIP^;	;330
  2900	034072	123 113 111 120 000 		ASCII /SKIP/
  2901						INX	AOJ^;	;340
  2902	034073	101 117 112 000 000 		ASCII /AOJ/
  2903						INX	AOS^;	;350
  2904	034074	101 117 123 000 000 		ASCII /AOS/
  2905						INX	SOJ^;	;360
  2906	034075	123 117 112 000 000 		ASCII /SOJ/
  2907						INX	SOS^;	;370
  2908	034076	123 117 123 000 000 		ASCII /SOS/
  2909
  2910	034077	040 000 000 000 000 	TBLCM:	ASCII / /	;0
  2911						INX	L^;	;1
  2912	034100	114 000 000 000 000 		ASCII /L/
  2913						INX	E^;	;1
  2914	034101	105 000 000 000 000 		ASCII /E/
  2915						INX	LE^;	;3
  2916	034102	114 105 000 000 000 		ASCII /LE/
  2917						INX	A^;	;4
  2918	034103	101 000 000 000 000 		ASCII /A/
  2919						INX	GE^;	;5
  2920	034104	107 105 000 000 000 		ASCII /GE/
  2921						INX	N^;	;6
  2922	034105	116 000 000 000 000 		ASCII /N/
  2923						INX	G^;	;7
  2924	034106	107 000 000 000 000 		ASCII /G/
DBKDA	DECSYSTEM10 KI10 ARITHMETIC RELIABILITY TEST, VER 0,3	MACRO %51(414) 14:29  9-JUN-76 PAGE 31
KIPNT	MAC	 9-JUN-76 13:30		SIMULATOR MACHINE REGISTER PRINT                                               *** SEQ 0111

  2925	034107				TBLBOL:	INX	SETZ^;	;400
  2926	034107	123 105 124 132 000 		ASCII /SETZ/
  2927						INX	AND^;	;404
  2928	034110	101 116 104 000 000 		ASCII /AND/
  2929						INX	ANDCA^;	;410
  2930	034111	101 116 104 103 101 		ASCII /ANDCA/
  2931						INX	SETM^;	;414
  2932	034112	123 105 124 115 000 		ASCII /SETM/
  2933						INX	ANDCM^;	;420
  2934	034113	101 116 104 103 115 		ASCII /ANDCM/
  2935						INX	SETA^;	;424
  2936	034114	123 105 124 101 000 		ASCII /SETA/
  2937						INX	XOR^;	;430
  2938	034115	130 117 122 000 000 		ASCII /XOR/
  2939						INX	IOR^;	;434
  2940	034116	111 117 122 000 000 		ASCII /IOR/
  2941						INX	ANDCB^;	;440
  2942	034117	101 116 104 103 102 		ASCII /ANDCB/
  2943						INX	EQV^;	;444
  2944	034120	105 121 126 000 000 		ASCII /EQV/
  2945						INX	SETCA^;	;450
  2946	034121	123 105 124 103 101 		ASCII /SETCA/
  2947						INX	ORCA^;	;454
  2948	034122	117 122 103 101 000 		ASCII /ORCA/
  2949						INX	SETCM^;	;460
  2950	034123	123 105 124 103 115 		ASCII /SETCM/
  2951						INX	ORCM^;	;464
  2952	034124	117 122 103 115 000 		ASCII /ORCM/
  2953						INX	ORCB^;	;470
  2954	034125	117 122 103 102 000 		ASCII /ORCB/
  2955						INX	SETO^;	;474
  2956	034126	123 105 124 117 000 		ASCII /SETO/
  2957
  2958	034127				H.:	INX	H^;	;5XX
  2959	034127	110 000 000 000 000 		ASCII /H/
  2960	034130				TBLH:	INX	LL^;	;500
  2961	034130	114 114 000 000 000 		ASCII /LL/
  2962						INX	RL^;	;504
  2963	034131	122 114 000 000 000 		ASCII /RL/
  2964						INX	LLZ^;	;510
  2965	034132	114 114 132 000 000 		ASCII /LLZ/
  2966						INX	RLZ^;	;514
  2967	034133	122 114 132 000 000 		ASCII /RLZ/
  2968						INX	LLO^;	;520
  2969	034134	114 114 117 000 000 		ASCII /LLO/
  2970						INX	RLO^;	;524
  2971	034135	122 114 117 000 000 		ASCII /RLO/
  2972						INX	LLE^;	;530
  2973	034136	114 114 105 000 000 		ASCII /LLE/
  2974						INX	RLE^;	;534
  2975	034137	122 114 105 000 000 		ASCII /RLE/
DBKDA	DECSYSTEM10 KI10 ARITHMETIC RELIABILITY TEST, VER 0,3	MACRO %51(414) 14:29  9-JUN-76 PAGE 32
KIPNT	MAC	 9-JUN-76 13:30		SIMULATOR MACHINE REGISTER PRINT                                               *** SEQ 0112

  2976						INX	RR^;	;540
  2977	034140	122 122 000 000 000 		ASCII /RR/
  2978						INX	LR^;	;544
  2979	034141	114 122 000 000 000 		ASCII /LR/
  2980						INX	RRZ^;	;550
  2981	034142	122 122 132 000 000 		ASCII /RRZ/
  2982						INX	LRZ^;	;554
  2983	034143	114 122 132 000 000 		ASCII /LRZ/
  2984						INX	RRO^;	;560
  2985	034144	122 122 117 000 000 		ASCII /RRO/
  2986						INX	LRO^;	;564
  2987	034145	114 122 117 000 000 		ASCII /LRO/
  2988						INX	RRE^;	;570
  2989	034146	122 122 105 000 000 		ASCII /RRE/
  2990						INX	LRE^;	;574
  2991	034147	114 122 105 000 000 		ASCII /LRE/
  2992	034150				T.:	INX	T^;	;6XX
  2993	034150	124 000 000 000 000 		ASCII /T/
  2994	034151				TBLTA:	INX	RN^;	;600
  2995	034151	122 116 000 000 000 		ASCII /RN/
  2996						INX	DN^;	;610
  2997	034152	104 116 000 000 000 		ASCII /DN/
  2998						INX	RZ^;	;620
  2999	034153	122 132 000 000 000 		ASCII /RZ/
  3000						INX	DZ^;	;630
  3001	034154	104 132 000 000 000 		ASCII /DZ/
  3002						INX	RC^;	;640
  3003	034155	122 103 000 000 000 		ASCII /RC/
  3004						INX	DC^;	;650
  3005	034156	104 103 000 000 000 		ASCII /DC/
  3006						INX	RO^;	;660
  3007	034157	122 117 000 000 000 		ASCII /RO/
  3008						INX	DO^;	;670
  3009	034160	104 117 000 000 000 		ASCII /DO/
DBKDA	DECSYSTEM10 KI10 ARITHMETIC RELIABILITY TEST, VER 0,3	MACRO %51(414) 14:29  9-JUN-76 PAGE 33
KIPNT	MAC	 9-JUN-76 13:30		SIMULATOR MACHINE REGISTER PRINT                                               *** SEQ 0113

  3010	034161	040 000 000 000 000 	TBLTA1:	ASCII / /	;0,1
  3011						INX	E^;	;2,3
  3012	034162	105 000 000 000 000 		ASCII /E/
  3013						INX	A^;	;4,5
  3014	034163	101 000 000 000 000 		ASCII /A/
  3015						INX	N^;	;6,7
  3016	034164	116 000 000 000 000 		ASCII /N/
  3017
  3018
  3019	034165				TBLTB:	INX	LN^;	;601
  3020	034165	114 116 000 000 000 		ASCII /LN/
  3021						INX	SN^;	;611
  3022	034166	123 116 000 000 000 		ASCII /SN/
  3023						INX	LZ^;	;621
  3024	034167	114 132 000 000 000 		ASCII /LZ/
  3025						INX	SZ^;	;631
  3026	034170	123 132 000 000 000 		ASCII /SZ/
  3027						INX	LC^;	;641
  3028	034171	114 103 000 000 000 		ASCII /LC/
  3029						INX	SC^;	;651
  3030	034172	123 103 000 000 000 		ASCII /SC/
  3031						INX	LO^;	;661
  3032	034173	114 117 000 000 000 		ASCII /LO/
  3033						INX	SO^;	;671
  3034	034174	123 117 000 000 000 		ASCII /SO/
  3035						IFNDEF	SIMASB,<
  3036					TBLCON:	INX	BLKI;	;70000
  3037						INX	DATAI;	;70004
  3038						INX	BLKO;	;70010
  3039						INX	DATAO;	;70014
  3040						INX	CONO;	;70020
  3041						INX	CONI;	;70024
  3042						INX	CONSZ;	;70030
  3043						INX	CONSO;	;70034
  3044					>
DBKDA	DECSYSTEM10 KI10 ARITHMETIC RELIABILITY TEST, VER 0,3	MACRO %51(414) 14:29  9-JUN-76 PAGE 34
KIPNT	MAC	 9-JUN-76 13:30		SIMULATOR MACHINE REGISTER PRINT                                               *** SEQ 0114

  3045	034175				TBLNEW:	INX	DMOVE^;	;120
  3046	034175	104 115 117 126 105 		ASCII /DMOVE/
  3047						INX	DMOVN^;	;121
  3048	034176	104 115 117 126 116 		ASCII /DMOVN/
  3049						INX	FIX^;	;122
  3050	034177	106 111 130 000 000 		ASCII /FIX/
  3051						INX	ERR^;	;123
  3052	034200	105 122 122 000 000 		ASCII /ERR/
  3053						INX	DMOVM^;	;124
  3054	034201	104 115 117 126 115 		ASCII /DMOVM/
  3055						INX	DMVNM^;	;125
  3056	034202	104 115 126 116 115 		ASCII /DMVNM/
  3057						INX	FIXR^;	;126
  3058	034203	106 111 130 122 000 		ASCII /FIXR/
  3059						INX	FLTR^;	;127
  3060	034204	106 114 124 122 000 		ASCII /FLTR/
  3061						INX	DFAD^;	;110
  3062	034205	104 106 101 104 000 		ASCII /DFAD/
  3063						INX	DFSB^;	;111
  3064	034206	104 106 123 102 000 		ASCII /DFSB/
  3065						INX	DFMP^;	;112
  3066	034207	104 106 115 120 000 		ASCII /DFMP/
  3067						INX	DFDV^;	;113
  3068	034210	104 106 104 126 000 		ASCII /DFDV/
  3069						INX	ERR^;	;114
  3070	034211	105 122 122 000 000 		ASCII /ERR/
  3071						INX	ERR^;	;115
  3072	034212	105 122 122 000 000 		ASCII /ERR/
  3073						INX	ERR^;	;116
  3074	034213	105 122 122 000 000 		ASCII /ERR/
  3075						INX	ERR^;	;117
  3076	034214	105 122 122 000 000 		ASCII /ERR/
  3077
  3078
  3079
  3080	034215				TBLUUO:	INX	LUUO^;	;001-037
  3081	034215	114 125 125 117 000 		ASCII /LUUO/
  3082
  3083	034216				TBLMUO:	INX	MUUO^;	;0, 040-077
  3084	034216	115 125 125 117 000 		ASCII /MUUO/
  3085
  3086	034217				TBLMUX:	INX	MUOEX^;	;MUUO EXECUTION
  3087	034217	115 125 117 105 130 		ASCII /MUOEX/
DBKDA	DECSYSTEM10 KI10 ARITHMETIC RELIABILITY TEST, VER 0,3	MACRO %51(414) 14:29  9-JUN-76 PAGE 35
KIPNT	MAC	 9-JUN-76 13:30		SIMULATOR MACHINE REGISTER PRINT                                               *** SEQ 0115

  3088					;*MACHINE STATES, K1-10
  3089					;*
  3090	034220	000000	041312		STAB:	IT0			;INSTRUCTION TIME
  3091	034221	000000	041353			IT1
  3092	034222	000000	041617			IT2
  3093	034223	000000	041767			ET0S			;EXECUTE TIME
  3094	034224	000000	042015			ET1S
  3095	034225	000000	042027			ET2S
  3096	034226	000000	041641			FT1			;FETCH TIME
  3097	034227	000000	041643			FT2
  3098	034230	000000	041645			FT3
  3099	034231	000000	041706			FT4
  3100	034232	000000	041710			FT5
  3101	034233	000000	041734			FT6
  3102	034234	000000	041725			FT7
  3103	034235	000000	042066			ST1			;STORE TIME
  3104	034236	000000	042163			ST2
  3105	034237	000000	042222			ST3
  3106	034240	000000	042223			ST4
  3107	034241	000000	042235			ST5
  3108	034242	000000	043436			FAT1			;FLOATING ADD TIME
  3109	034243	000000	043444			FAT2
  3110	034244	000000	043461			FAT3
  3111	034245	000000	043505			FAT4
  3112	034246	000000	042476			FMT1			;FLOATING MULTIPLY TIME
  3113	034247	000000	042503			FMT2
  3114	034250	000000	042375			FDT0			;FLOATING DIVIDE TIME
  3115	034251	000000	042416			FDT1
  3116	034252	000000	042422			FDT2
  3117	034253	000000	042427			FDT3
  3118	034254	000000	042437			FDT4
  3119	034255	000000	042447			FDT5
  3120	034256	000000	042455			FDT6
  3121	034257	000000	042466			FDT7
  3122	034260	000000	043125			FIXT1			;FIX TIME
  3123	034261	000000	043145			FIXT2
  3124	034262	000000	043571			SCT1			;SHIFT COUNT TIME
  3125	034263	000000	043630			SCT2
  3126	034264	000000	043520			SRT1			;SHIFT ROUTINE TIME
  3127	034265	000000	042272			DST1			;DIVIDE SUBROUTINE TIME
  3128	034266	000000	042300			DST2
  3129	034267	000000	042311			DST3
  3130	034270	000000	042325			DST4
  3131	034271	000000	042334			DST5
  3132	034272	000000	042363			DST6
  3133	034273	000000	042511			NRT1			;NORMALIZE ROUTINE TIME
  3134	034274	000000	042616			NRT2
  3135	034275	000000	042677			NRT3
  3136	034276	000000	042716			NRT4
  3137	034277	000000	042752			NRT5
  3138	034300	000000	042757			NRT6
DBKDA	DECSYSTEM10 KI10 ARITHMETIC RELIABILITY TEST, VER 0,3	MACRO %51(414) 14:29  9-JUN-76 PAGE 36
KIPNT	MAC	 9-JUN-76 13:30		SIMULATOR MACHINE REGISTER PRINT                                               *** SEQ 0116

  3139	034301	000000	043553			DMOVT1			;DOUBLE MOVE TIME
  3140	034302	000000	043555			DMVNT1
  3141	034303	000000	043560			DMVNT2
  3142	034304	000000	043567			DMVNT3
  3143	034305	000000	043156			DFAT1			;DOUBLE FLOATING ADD TIME
  3144	034306	000000	043222			DFAT2
  3145	034307	000000	043243			DFAT3
  3146	034310	000000	043247			DFAT4
  3147	034311	000000	043261			DFAT5
  3148	034312	000000	043264			DFMT1			;DOUBLE FLOATING MULTIPLY TIME
  3149	034313	000000	043276			DFMT2
  3150	034314	000000	043303			DFMT3
  3151	034315	000000	043310			DFDT0			;DOUBLE FLOATING DIVIDE TIME
  3152	034316	000000	043312			DFDT1
  3153	034317	000000	043317			DFDT2
  3154	034320	000000	043324			DFDT3
  3155	034321	000000	043331			DFDT4
  3156	034322	000000	043361			DFDT5
  3157	034323	000000	043367			DFDT6
  3158	034324	000000	043401			DFDT7
  3159	034325	000000	043410			DFDT8
  3160	034326	000000	043433			DFDT9
  3161	034327	000000	043346			DFDT10
  3162	034330	000000	043352			DFDT11
  3163	034331	000000	043355			DFDT12
  3164	034332	000000	042774			DNT1			;DOUBLE NORMALIZE TIME
  3165	034333	000000	043013			DNT2
  3166	034334	000000	043017			DNT3
  3167	034335	000000	043044			DNT4
  3168	034336	000000	043035			DNT5
  3169	034337	000000	043070			DNT6
  3170	034340	000000	043077			DNT7
  3171	034341	000000	043104			DNT8
  3172	034342	000000	043117			DNT9
  3173	034343	000000	044013			BLTT0
  3174	034344	000000	044017			BLTT1			;BLT TIME
  3175	034345	000000	044035			BLTT2
  3176	034346	000000	044041			BLTT3
  3177	034347	000000	044043			BLTT4
  3178	034350	000000	044052			BLTT5
  3179	034351	000000	044055			BLTT6
  3180	034352	000000	044057			BLTT7
  3181	034353	000000	044067			BLTT8
  3182	034354	000000	044073			BLTT9
  3183	034355	000000	043516			JFFOT1			;JFFO TIME
  3184	034356	000000	045161			MEMST			;MEMORY ROUTINE
  3185	034357	000000	043752			INDONE			;INSTRUCTION DONE TIME
DBKDA	DECSYSTEM10 KI10 ARITHMETIC RELIABILITY TEST, VER 0,3	MACRO %51(414) 14:29  9-JUN-76 PAGE 37
KIPNT	MAC	 9-JUN-76 13:30		SIMULATOR MACHINE REGISTER PRINT                                               *** SEQ 0117

  3186						IFNDEF	SIMASB,<
  3187						TTYDI			;TTY I/O TIME
  3188						TTYDO
  3189						TTYCO
  3190						TTYCI
  3191						TTYCNZ
  3192						TTYCNO
  3193
  3194						APRDI			;APR I/O TIME
  3195						APRDO
  3196						APRCO
  3197						APRCI
  3198						APRCNZ
  3199						APRCNO
  3200
  3201						PIDI			;PI I/O TIME
  3202						PIDO
  3203						PICO
  3204						PICI
  3205						PICNZ
  3206						PICNO
  3207
  3208						PGDI			;PAG I/O TIME
  3209						PGDO
  3210						PGCO
  3211						PGCI
  3212						PGCNZ
  3213						PGCNO
  3214					>
DBKDA	DECSYSTEM10 KI10 ARITHMETIC RELIABILITY TEST, VER 0,3	MACRO %51(414) 14:29  9-JUN-76 PAGE 38
KIPNT	MAC	 9-JUN-76 13:30		SIMULATOR MACHINE REGISTER PRINT                                               *** SEQ 0118

  3215					;*SYMBOLIC MACHINE STATES
  3216
  3217	034360				STAB1:	INX	IT0^
  3218	034360	111 124 060 000 000 		ASCII /IT0/^
  3219						INX	IT1^
  3220	034361	111 124 061 000 000 		ASCII /IT1/^
  3221						INX	IT2^
  3222	034362	111 124 062 000 000 		ASCII /IT2/^
  3223						INX	ET0^
  3224	034363	105 124 060 000 000 		ASCII /ET0/^
  3225						INX	ET1^
  3226	034364	105 124 061 000 000 		ASCII /ET1/^
  3227						INX	ET2^
  3228	034365	105 124 062 000 000 		ASCII /ET2/^
  3229						INX	FT1^
  3230	034366	106 124 061 000 000 		ASCII /FT1/^
  3231						INX	FT2^
  3232	034367	106 124 062 000 000 		ASCII /FT2/^
  3233						INX	FT3^
  3234	034370	106 124 063 000 000 		ASCII /FT3/^
  3235						INX	FT4^
  3236	034371	106 124 064 000 000 		ASCII /FT4/^
  3237						INX	FT5^
  3238	034372	106 124 065 000 000 		ASCII /FT5/^
  3239						INX	FT6^
  3240	034373	106 124 066 000 000 		ASCII /FT6/^
  3241						INX	FT7^
  3242	034374	106 124 067 000 000 		ASCII /FT7/^
  3243						INX	ST1^
  3244	034375	123 124 061 000 000 		ASCII /ST1/^
  3245						INX	ST2^
  3246	034376	123 124 062 000 000 		ASCII /ST2/^
  3247						INX	ST3^
  3248	034377	123 124 063 000 000 		ASCII /ST3/^
  3249						INX	ST4^
  3250	034400	123 124 064 000 000 		ASCII /ST4/^
  3251						INX	ST5^
  3252	034401	123 124 065 000 000 		ASCII /ST5/^
  3253						INX	FAT1^
  3254	034402	106 101 124 061 000 		ASCII /FAT1/^
  3255						INX	FAT2^
  3256	034403	106 101 124 062 000 		ASCII /FAT2/^
  3257						INX	FAT3^
  3258	034404	106 101 124 063 000 		ASCII /FAT3/^
  3259						INX	FAT4^
  3260	034405	106 101 124 064 000 		ASCII /FAT4/^
  3261						INX	FMT1^
  3262	034406	106 115 124 061 000 		ASCII /FMT1/^
  3263						INX	FMT2^
  3264	034407	106 115 124 062 000 		ASCII /FMT2/^
DBKDA	DECSYSTEM10 KI10 ARITHMETIC RELIABILITY TEST, VER 0,3	MACRO %51(414) 14:29  9-JUN-76 PAGE 39
KIPNT	MAC	 9-JUN-76 13:30		SIMULATOR MACHINE REGISTER PRINT                                               *** SEQ 0119

  3265						INX	FDT0^
  3266	034410	106 104 124 060 000 		ASCII /FDT0/^
  3267						INX	FDT1^
  3268	034411	106 104 124 061 000 		ASCII /FDT1/^
  3269						INX	FDT2^
  3270	034412	106 104 124 062 000 		ASCII /FDT2/^
  3271						INX	FDT3^
  3272	034413	106 104 124 063 000 		ASCII /FDT3/^
  3273						INX	FDT4^
  3274	034414	106 104 124 064 000 		ASCII /FDT4/^
  3275						INX	FDT5^
  3276	034415	106 104 124 065 000 		ASCII /FDT5/^
  3277						INX	FDT6^
  3278	034416	106 104 124 066 000 		ASCII /FDT6/^
  3279						INX	FDT7^
  3280	034417	106 104 124 067 000 		ASCII /FDT7/^
  3281						INX	FIXT1^
  3282	034420	106 111 130 124 061 		ASCII /FIXT1/^
  3283						INX	FIXT2^
  3284	034421	106 111 130 124 062 		ASCII /FIXT2/^
  3285						INX	SCT1^
  3286	034422	123 103 124 061 000 		ASCII /SCT1/^
  3287						INX	SCT2^
  3288	034423	123 103 124 062 000 		ASCII /SCT2/^
  3289						INX	SRT1^
  3290	034424	123 122 124 061 000 		ASCII /SRT1/^
  3291						INX	DST1^
  3292	034425	104 123 124 061 000 		ASCII /DST1/^
  3293						INX	DST2^
  3294	034426	104 123 124 062 000 		ASCII /DST2/^
  3295						INX	DST3^
  3296	034427	104 123 124 063 000 		ASCII /DST3/^
  3297						INX	DST4^
  3298	034430	104 123 124 064 000 		ASCII /DST4/^
  3299						INX	DST5^
  3300	034431	104 123 124 065 000 		ASCII /DST5/^
  3301						INX	DST6^
  3302	034432	104 123 124 066 000 		ASCII /DST6/^
  3303						INX	NRT1^
  3304	034433	116 122 124 061 000 		ASCII /NRT1/^
  3305						INX	NRT2^
  3306	034434	116 122 124 062 000 		ASCII /NRT2/^
  3307						INX	NRT3^
  3308	034435	116 122 124 063 000 		ASCII /NRT3/^
  3309						INX	NRT4^
  3310	034436	116 122 124 064 000 		ASCII /NRT4/^
  3311						INX	NRT5^
  3312	034437	116 122 124 065 000 		ASCII /NRT5/^
  3313						INX	NRT6^
  3314	034440	116 122 124 066 000 		ASCII /NRT6/^
DBKDA	DECSYSTEM10 KI10 ARITHMETIC RELIABILITY TEST, VER 0,3	MACRO %51(414) 14:29  9-JUN-76 PAGE 40
KIPNT	MAC	 9-JUN-76 13:30		SIMULATOR MACHINE REGISTER PRINT                                               *** SEQ 0120

  3315						INX	DMVT1^
  3316	034441	104 115 126 124 061 		ASCII /DMVT1/^
  3317						INX	DMVN1^
  3318	034442	104 115 126 116 061 		ASCII /DMVN1/^
  3319						INX	DMVN2^
  3320	034443	104 115 126 116 062 		ASCII /DMVN2/^
  3321						INX	DMVN3^
  3322	034444	104 115 126 116 063 		ASCII /DMVN3/^
  3323						INX	DFAT1^
  3324	034445	104 106 101 124 061 		ASCII /DFAT1/^
  3325						INX	DFAT2^
  3326	034446	104 106 101 124 062 		ASCII /DFAT2/^
  3327						INX	DFAT3^
  3328	034447	104 106 101 124 063 		ASCII /DFAT3/^
  3329						INX	DFAT4^
  3330	034450	104 106 101 124 064 		ASCII /DFAT4/^
  3331						INX	DFAT5^
  3332	034451	104 106 101 124 065 		ASCII /DFAT5/^
  3333						INX	DFMT1^
  3334	034452	104 106 115 124 061 		ASCII /DFMT1/^
  3335						INX	DFMT2^
  3336	034453	104 106 115 124 062 		ASCII /DFMT2/^
  3337						INX	DFMT3^
  3338	034454	104 106 115 124 063 		ASCII /DFMT3/^
  3339						INX	DFDT0^
  3340	034455	104 106 104 124 060 		ASCII /DFDT0/^
  3341						INX	DFDT1^
  3342	034456	104 106 104 124 061 		ASCII /DFDT1/^
  3343						INX	DFDT2^
  3344	034457	104 106 104 124 062 		ASCII /DFDT2/^
  3345						INX	DFDT3^
  3346	034460	104 106 104 124 063 		ASCII /DFDT3/^
  3347						INX	DFDT4^
  3348	034461	104 106 104 124 064 		ASCII /DFDT4/^
  3349						INX	DFDT5^
  3350	034462	104 106 104 124 065 		ASCII /DFDT5/^
  3351						INX	DFDT6^
  3352	034463	104 106 104 124 066 		ASCII /DFDT6/^
  3353						INX	DFDT7^
  3354	034464	104 106 104 124 067 		ASCII /DFDT7/^
  3355						INX	DFDT8^
  3356	034465	104 106 104 124 070 		ASCII /DFDT8/^
  3357						INX	DFDT9^
  3358	034466	104 106 104 124 071 		ASCII /DFDT9/^
  3359						INX	DFD10^
  3360	034467	104 106 104 061 060 		ASCII /DFD10/^
  3361						INX	DFD11^
  3362	034470	104 106 104 061 061 		ASCII /DFD11/^
  3363						INX	DFD12^
  3364	034471	104 106 104 061 062 		ASCII /DFD12/^
DBKDA	DECSYSTEM10 KI10 ARITHMETIC RELIABILITY TEST, VER 0,3	MACRO %51(414) 14:29  9-JUN-76 PAGE 41
KIPNT	MAC	 9-JUN-76 13:30		SIMULATOR MACHINE REGISTER PRINT                                               *** SEQ 0121

  3365						INX	DNT1^
  3366	034472	104 116 124 061 000 		ASCII /DNT1/^
  3367						INX	DNT2^
  3368	034473	104 116 124 062 000 		ASCII /DNT2/^
  3369						INX	DNT3^
  3370	034474	104 116 124 063 000 		ASCII /DNT3/^
  3371						INX	DNT4^
  3372	034475	104 116 124 064 000 		ASCII /DNT4/^
  3373						INX	DNT5^
  3374	034476	104 116 124 065 000 		ASCII /DNT5/^
  3375						INX	DNT6^
  3376	034477	104 116 124 066 000 		ASCII /DNT6/^
  3377						INX	DNT7^
  3378	034500	104 116 124 067 000 		ASCII /DNT7/^
  3379						INX	DNT8^
  3380	034501	104 116 124 070 000 		ASCII /DNT8/^
  3381						INX	DNT9^
  3382	034502	104 116 124 071 000 		ASCII /DNT9/^
  3383						INX	BLTT0^
  3384	034503	102 114 124 124 060 		ASCII /BLTT0/^
  3385						INX	BLTT1^
  3386	034504	102 114 124 124 061 		ASCII /BLTT1/^
  3387						INX	BLTT2^
  3388	034505	102 114 124 124 062 		ASCII /BLTT2/^
  3389						INX	BLTT3^
  3390	034506	102 114 124 124 063 		ASCII /BLTT3/^
  3391						INX	BLTT4^
  3392	034507	102 114 124 124 064 		ASCII /BLTT4/^
  3393						INX	BLTT5^
  3394	034510	102 114 124 124 065 		ASCII /BLTT5/^
  3395						INX	BLTT6^
  3396	034511	102 114 124 124 066 		ASCII /BLTT6/^
  3397						INX	BLTT7^
  3398	034512	102 114 124 124 067 		ASCII /BLTT7/^
  3399						INX	BLTT8^
  3400	034513	102 114 124 124 070 		ASCII /BLTT8/^
  3401						INX	BLTT9^
  3402	034514	102 114 124 124 071 		ASCII /BLTT9/^
  3403						INX	JFFO1^
  3404	034515	112 106 106 117 061 		ASCII /JFFO1/^
  3405						INX	MEMST^
  3406	034516	115 105 115 123 124 		ASCII /MEMST/^
  3407						INX	INDON^
  3408	034517	111 116 104 117 116 		ASCII /INDON/^
DBKDA	DECSYSTEM10 KI10 ARITHMETIC RELIABILITY TEST, VER 0,3	MACRO %51(414) 14:29  9-JUN-76 PAGE 42
KIPNT	MAC	 9-JUN-76 13:30		SIMULATOR MACHINE REGISTER PRINT                                               *** SEQ 0122

  3409						IFNDEF	SIMASB,<
  3410						INX	DATAI
  3411						INX	DATAO
  3412						INX	CONO
  3413						INX	CONI
  3414						INX	CONSZ
  3415						INX	CONSO
  3416						INX	DATAI
  3417						INX	DATAO
  3418						INX	CONO
  3419						INX	CONI
  3420						INX	CONSZ
  3421						INX	CONSO
  3422						INX	DATAI
  3423						INX	DATAO
  3424						INX	CONO
  3425						INX	CONI
  3426						INX	CONSZ
  3427						INX	CONSO
  3428						INX	DATAI
  3429						INX	DATAO
  3430						INX	CONO
  3431						INX	CONI
  3432						INX	CONSZ
  3433						INX	CONSO
  3434					>
DBKDA	DECSYSTEM10 KI10 ARITHMETIC RELIABILITY TEST, VER 0,3	MACRO %51(414) 14:29  9-JUN-76 PAGE 1
DFAS	MAC	 9-JUN-76 13:37		DOUBLE PRECISION FLOATING ADD/SUBTRACT                                         *** SEQ 0123

  3435					SUBTTL	DOUBLE PRECISION FLOATING ADD/SUBTRACT
  3436					;*FOR KI10 SIMULATION/DIAGNOSTICS  13-OCT-71, J.R.KIRCHOFF
  3437					;*	7-DEC-69 /TWE , 14-JULY-70 /JRK
  3438					;*	DICK GRUEN: 9-SEP-67
  3439					;*	7-MAY-66 BEGOT 9-SEP-67  (MACROX Q ERRORS)
  3440					;*THESE ROUTINES ADD OR SUBTRACT TWO DOUBLE PRECISION
  3441					;*NUMBERS.  EACH NUMBER IS COMPOSED OF 8 BITS OF EXPONENT
  3442					;*IN THE HI ORDER WORD WITH THE REMAINING 27 HI ORDER BITS
  3443					;*AND THE 33 FIRST ARIMETIC BITS OF THE LO ORDER AS THE
  3444					;*MANTISSA.  THE LAST 2 LO ORDER BITS ARE UNUSED.  THE
  3445					;*ANSWER IS RETURNED IN AC X, WHERE "X" IS THE DOUBLE PRECISION
  3446					;*AC USED AND MAY BE 0.  THE ROUTINE IS CALLED BY:
  3447
  3448					;*FAD:	MOVEI	Q,ARG2
  3449					;*	PUSHJ	P,DFA.X	;ARG1 IN AC X
  3450
  3451					;*	OR
  3452
  3453					;*FADM:	MOVEI	Q,ARG2
  3454					;*	PUSHJ	P,DFAM.X	;ARG1 IN AC X
  3455
  3456					;*	OR
  3457
  3458					;*FSB:	MOVEI	Q,ARG2
  3459					;*	PUSHJ	P,DFS.X	;ARG1 IN AC X
  3460
  3461					;*	OR
  3462
  3463					;*FSBM:	MOVEI	Q,ARG2
  3464					;*	PUSHJ	P,DFSM.X	;ARG1 IN AC X
  3465
  3466					;*	NOTE THAT THE "X" AFTER THE "." IS A NUMBER
  3467					;*	AND NOT A LETTER
  3468
  3469			000017		P==17
  3470			000016		Q==16
  3471			000010		AC2==10
  3472			000011		X2==11
  3473			000012		XDIFF==12
  3474			000013		AC1==13
  3475			000015		X1==15
  3476
  3477			200000		BIT1==200000
  3478			100000		BIT2==100000
  3479			001000		BITCRY==1000
  3480			400000		BITNEG==1B18
  3481			003400		BITEST==3400
  3482			000001		SGNAC1==1
  3483			000002		SGNAC2==2
DBKDA	DECSYSTEM10 KI10 ARITHMETIC RELIABILITY TEST, VER 0,3	MACRO %51(414) 14:29  9-JUN-76 PAGE 2
DFAS	MAC	 9-JUN-76 13:37		DOUBLE PRECISION FLOATING ADD/SUBTRACT                                         *** SEQ 0124

  3484						DEFINE	FSM(A)<
  3485					DFSM.'A':	SKIPA	AC1,Q
  3486					DFS.'A':	MOVEI	AC1,A
  3487						IFN A,<
  3488						HRLI	Q,A
  3489						JRST	GETNEG
  3490					>>
  3491
  3492						DEFINE	FAM(A)<
  3493					DFAM.'A':	SKIPA	AC1,Q
  3494					DFA.'A':	MOVEI	AC1,A
  3495						IFN A,<
  3496						HRLI	Q,A
  3497						JRST	DFADX
  3498					>>
  3499
  3500						DEFINE	DSUB<
  3501						FSM	0
  3502					>
  3503						DEFINE	DADD<
  3504						FAM	0
  3505					>
  3506						DEFINE	MAKNEG(A)<
  3507						SETCM	A,A
  3508						MOVNS	A+1
  3509						TDNN	A+1,DLOW.0
  3510						AOS	A
  3511					>
DBKDA	DECSYSTEM10 KI10 ARITHMETIC RELIABILITY TEST, VER 0,3	MACRO %51(414) 14:29  9-JUN-76 PAGE 3
DFAS	MAC	 9-JUN-76 13:37		DOUBLE PRECISION FLOATING ADD/SUBTRACT                                         *** SEQ 0125

  3512						DSUB^
  3513	034520	334 13 0 00 000016 	DFSM.0:	SKIPA	AC1,Q
  3514	034521	201 13 0 00 000000 	DFS.0:	MOVEI	AC1,0
  3515	034522	261 17 0 00 000013 	GETNEG:	PUSH	P,AC1		;ALL SUBTRACTS ENTER HERE
  3516	034523	210 14 0 16 000001 		MOVN	AC1+1,1(Q)	;PICKUP NEGATIVE OF MEM ARG
  3517	034524	460 13 0 16 000000 		SETCM	AC1,0(Q)
  3518	034525	616 14 0 00 034701 		TDNN	AC1+1,DLOW.0
  3519	034526	344 13 0 00 034535 		AOJA	AC1,DFSBX
  3520	034527	254 00 0 00 034535 		JRST	DFSBX
DBKDA	DECSYSTEM10 KI10 ARITHMETIC RELIABILITY TEST, VER 0,3	MACRO %51(414) 14:29  9-JUN-76 PAGE 4
DFAS	MAC	 9-JUN-76 13:37		DOUBLE PRECISION FLOATING ADD/SUBTRACT                                         *** SEQ 0126

  3521						DADD^
  3522	034530	334 13 0 00 000016 	DFAM.0:	SKIPA	AC1,Q
  3523	034531	201 13 0 00 000000 	DFA.0:	MOVEI	AC1,0
  3524	034532	261 17 0 00 000013 	DXFAD:	PUSH	P,AC1		;ALL ADDS ENTER HERE
  3525	034533	200 13 0 16 000000 		MOVE	AC1,0(Q)	;GET MEMORY ARGUMENT
  3526	034534	200 14 0 16 000001 		MOVE	AC1+1,1(Q)	;...
  3527	034535	207 00 0 00 000016 	DFSBX:	MOVSS	Q		;SWAP ARGUMENT POINTERS
  3528	034536	336 10 0 16 000000 		SKIPN	AC2,0(Q)	;GET HI ORDER OF AC ARG
  3529	034537	254 00 0 00 034656 		JRST	OVTM1		;IF 0, AC1 HAS THE SUM
  3530	034540	326 13 0 00 034544 		JUMPN	AC1,GA		;IF AC1 NON ZERO, PERFORM ADD
  3531	034541	200 13 0 00 000010 		MOVE	AC1,AC2		;AC1=0 MEANS AC ARG IS ANSWER
  3532	034542	200 14 0 16 000001 		MOVE	AC1+1,1(Q)	;RETURN IT TO EITHER AC OR MEM
  3533	034543	254 00 0 00 034656 		JRST	OVTM1		;...
DBKDA	DECSYSTEM10 KI10 ARITHMETIC RELIABILITY TEST, VER 0,3	MACRO %51(414) 14:29  9-JUN-76 PAGE 5
DFAS	MAC	 9-JUN-76 13:37		DOUBLE PRECISION FLOATING ADD/SUBTRACT                                         *** SEQ 0127

  3534	034544	135 15 0 00 034677 	GA:!	LDB	X1,DPAC.1	;ARG1 EXP AND SIGN
  3535	034545	135 11 0 00 034700 		LDB	X2,DPAC.2	;ARG2 EXP AND SIGN
  3536	034546	337 00 0 00 000013 		SKIPG	AC1		;MAKE EXPS +
  3537	034547	411 15 0 00 000777 		ANDCAI	X1,777		;...
  3538	034550	337 00 0 00 000010 		SKIPG	AC2		;...
  3539	034551	411 11 0 00 000777 		ANDCAI	X2,777		;...
  3540	034552	200 12 0 00 000011 		MOVE	XDIFF,X2	;GET EXP DIFFERENCE
  3541	034553	274 12 0 00 000015 		SUB	XDIFF,X1	;...
  3542	034554	333 00 0 00 000012 		SKIPLE	XDIFF		;SAVE HIGHER EXP
  3543	034555	350 15 0 00 000011 		AOS	X1,X2		;SAVED IN X1
  3544	034556	200 11 0 16 000001 		MOVE	AC2+1,1(Q)	;GET LO ORDER OF AC ARG
  3545	034557	621 16 0 00 000003 		TLZ	Q,SGNAC1+SGNAC2	;MARK SIGNS BEFORE SHIFT
  3546	034560	325 13 0 00 034566 		JUMPGE	AC1,AC1PL	;SKIP HAIR IF AC1 +
  3547	034561	661 16 0 00 000001 		TLO	Q,SGNAC1	;MARK SIGN = -
  3548						MAKNEG	AC1^
  3549	034562	460 13 0 00 000013 		SETCM	AC1,AC1
  3550	034563	213 00 0 00 000014 		MOVNS	AC1+1
  3551	034564	616 14 0 00 034701 		TDNN	AC1+1,DLOW.0
  3552	034565	350 00 0 00 000013 		AOS	AC1
  3553	034566	325 10 0 00 034574 	AC1PL:!	JUMPGE	AC2,AC2PL	;SKIP HAIR IF AC2 = +
  3554	034567	661 16 0 00 000002 		TLO	Q,SGNAC2	;MARK SIGN = -
  3555						MAKNEG	AC2^
  3556	034570	460 10 0 00 000010 		SETCM	AC2,AC2
  3557	034571	213 00 0 00 000011 		MOVNS	AC2+1
  3558	034572	616 11 0 00 034701 		TDNN	AC2+1,DLOW.0
  3559	034573	350 00 0 00 000010 		AOS	AC2
  3560	034574	621 13 0 00 777000 	AC2PL:!	TLZ	AC1,777000	;REMOVE EXPS
  3561	034575	621 10 0 00 777000 		TLZ	AC2,777000	;...
  3562	034576	323 12 0 00 034704 		JUMPLE	XDIFF,SHFT2	;SHIFT ARG2
  3563	034577	213 00 0 00 000012 		MOVNS	XDIFF		;SHIFF ARG1 RIGHT
  3564	034600	244 13 0 12 000000 		ASHC	AC1,(XDIFF)	;UNORMALIZE ARG1
DBKDA	DECSYSTEM10 KI10 ARITHMETIC RELIABILITY TEST, VER 0,3	MACRO %51(414) 14:29  9-JUN-76 PAGE 6
DFAS	MAC	 9-JUN-76 13:37		DOUBLE PRECISION FLOATING ADD/SUBTRACT                                         *** SEQ 0128

  3565	034601	607 16 0 00 000001 	CADD:!	TLNN	Q,SGNAC1	;WAS AC1 =-?
  3566	034602	254 00 0 00 034611 		JRST	AC1WPL		;NO, SKIP RECOMPL
  3567	034603	603 16 0 00 000002 		TLNE	Q,SGNAC2	;IF BOTH WERE NEG,...
  3568	034604	254 00 0 00 034715 		JRST	BOTHN		;DON'T RECOMPL EITHER
  3569						MAKNEG	AC1^
  3570	034605	460 13 0 00 000013 		SETCM	AC1,AC1
  3571	034606	213 00 0 00 000014 		MOVNS	AC1+1
  3572	034607	616 14 0 00 034701 		TDNN	AC1+1,DLOW.0
  3573	034610	350 00 0 00 000013 		AOS	AC1
  3574	034611	607 16 0 00 000002 	AC1WPL:!TLNN	Q,SGNAC2	;WAS AC2=-?
  3575	034612	254 00 0 00 034617 		JRST	AC2WPL		;NO, SKIP RECOMPL
  3576						MAKNEG	AC2^
  3577	034613	460 10 0 00 000010 		SETCM	AC2,AC2
  3578	034614	213 00 0 00 000011 		MOVNS	AC2+1
  3579	034615	616 11 0 00 034701 		TDNN	AC2+1,DLOW.0
  3580	034616	350 00 0 00 000010 		AOS	AC2
  3581	034617	621 13 0 00 477000 	AC2WPL:!TLZ	AC1,477000	;SET TESTABLE BITS
  3582	034620	621 10 0 00 477000 		TLZ	AC2,477000	;TURN OTHERS OFF
  3583	034621	255 02 0 00 034622 		JCRY1	.+1		;TURN OFF OVFLO FLAG
  3584	034622	270 14 0 00 000011 		ADD	AC1+1,AC2+1	;LO ORDER ADD
  3585	034623	255 02 0 00 046121 		JCRY1	[AOJA AC1,TADD]	;ADD IN HI ORDER CARRY
  3586	034624	270 13 0 00 000010 	TADD:!	ADD	AC1,AC2		;HI ORDER ADD
  3587	034625	603 13 0 00 100000 		TLNE	AC1,BIT2	;IS CARRY BIT TRUE
  3588	034626	641 13 0 00 001000 		TLC	AC1,BITCRY	;NO, COMPL. IT
  3589	034627	627 13 0 00 200000 		TLZN	AC1,BIT1	;IS SUM -
  3590	034630	254 00 0 00 034634 		JRST	NORMA		;NO ON FIRST GLANCE
  3591	034631	623 13 0 00 100000 		TLZE	AC1,BIT2	;...
  3592	034632	603 13 0 00 001000 		TLNE	AC1,BITCRY	;...
  3593	034633	260 17 0 00 034707 		PUSHJ	P,NEG1		;SUM=-,GO MAKE IT +
DBKDA	DECSYSTEM10 KI10 ARITHMETIC RELIABILITY TEST, VER 0,3	MACRO %51(414) 14:29  9-JUN-76 PAGE 7
DFAS	MAC	 9-JUN-76 13:37		DOUBLE PRECISION FLOATING ADD/SUBTRACT                                         *** SEQ 0129

  3594					MLON
  3595
  3596	034634				D.DORM:				;ENTRY FOR DFDV
  3597	034634	660 15 0 00 200000 	NORMA:!	TRO	X1,200000	;PROTECT AGAINST BORROWS FROM BITNEG
  3598	034635	607 13 0 00 001000 		TLNN	AC1,1000	;SKIP UNNORM IF NOT NEEDED
  3599	034636	374 00 0 00 000015 		SOSA	X1		;BUT TELL THE EXPONENT ABOUT IT
  3600	034637	244 13 0 00 777777 		ASHC	AC1,-1		;THERE WAS SOMETHING THERE
  3601	034640	660 15 0 00 200000 	D.MORM:	TRO	X1,200000	;PROTECT AGAINST BORROWS FROM BITNEG
  3602	034641	621 13 0 00 777000 		TLZ	AC1,777000	;NO STRAY BITS
  3603	034642	326 13 0 00 034647 		JUMPN	AC1,LOOPA+1	;CHECK FOR ZERO
  3604	034643	616 14 0 00 034701 		TDNN	AC1+1,DLOW.0	;...
  3605	034644	254 02 1 00 046122 		JRST	2,@[XWD 0,RET0]		;RETURN ZERO ANSWER
  3606	034645	334 00 0 00 000000 		SKIPA			;ENTER NORMALIZE ROUTINE
  3607	034646	244 13 0 00 000001 	LOOPA:!	ASHC	AC1,1		;1 BIT NORMALIZE
  3608	034647	607 13 0 00 000400 		TLNN	AC1,400		;IS NORMALIZE DONE?
  3609	034650	364 15 0 00 034646 		SOJA	X1,LOOPA	;IF NOT, SUB1 FROM EXP
  3610	034651	602 15 0 00 003400 		TRNE	X1,BITEST	;DID FP OV/UNDER FLO OCCUR?
  3611						JRST	[TRNN X1,040000	;UNDERFLOW?
  3612						JRST	OVTM2		;NO, OVERFLOW
  3613	034652	254 00 0 00 046123 			JRST	UFLOW]	;YES
  3614	034653	622 15 0 00 400000 		TRZE	X1,BITNEG	;SHOULD ANS BE -
  3615	034654	260 17 0 00 034706 		PUSHJ	P,NEG2		;GO MAKE IT SO
  3616	034655	137 15 0 00 034677 		DPB	X1,DPAC.1	;STORE EXP AND SIGN
  3617	034656	254 02 1 00 046126 	OVTM1:!	JRST	2,@[OVTA]	;CLEAR AR FLAGS
  3618
  3619	034657	620 15 0 00 000400 	OVTM2:!	TRZ	X1,400
  3620	034660	622 15 0 00 400000 		TRZE	X1,BITNEG	;SHOULD ANS BE -
  3621	034661	260 17 0 00 034706 		PUSHJ	P,NEG2		;GO MAKE IT SO
  3622	034662	137 15 0 00 034677 		DPB	X1,DPAC.1	;STORE EXPONENT AND SIGN
  3623	034663	254 02 1 00 046127 		JRST	2,@[XWD 440200,OVTA]
  3624
  3625	034664				D.ZERO:				;ENTRY FOR ZERO ANSWER
  3626	034664	403 13 0 00 000014 	RET0:!	SETZB	AC1,AC1+1	;RETURN ANS=0
  3627	034665	262 17 0 00 000016 	OVTA:!	POP	P,Q		;RESTORE AC Q
  3628	034666	202 13 0 16 000000 		MOVEM	AC1,0(Q)	;STORE HI ORDER ANS
  3629	034667	621 14 0 00 400000 		TLZ	AC1+1,400000	;SET LO SIGN = +
  3630	034670	202 14 0 16 000001 		MOVEM	AC1+1,1(Q)	;STORE LO ORDER ANS
  3631	034671	263 17 0 00 000000 		POPJ	P,		;TRA 1,4
  3632
  3633	034672	620 15 0 00 000400 	UFLOW:!	TRZ	X1,400
  3634	034673	622 15 0 00 400000 		TRZE	X1,BITNEG
  3635	034674	260 17 0 00 034706 		PUSHJ	P,NEG2
  3636	034675	137 15 0 00 034677 		DPB	X1,DPAC.1
  3637	034676	254 02 1 00 046130 		JRST	2,@[XWD 440300,OVTA]
DBKDA	DECSYSTEM10 KI10 ARITHMETIC RELIABILITY TEST, VER 0,3	MACRO %51(414) 14:29  9-JUN-76 PAGE 8
DFAS	MAC	 9-JUN-76 13:37		DOUBLE PRECISION FLOATING ADD/SUBTRACT                                         *** SEQ 0130

  3638	034677	33 11 0 00 000013 	DPAC.1:	POINT	9,AC1,8
  3639	034700	33 11 0 00 000010 	DPAC.2:	POINT	9,AC2,8
  3640	034701	377777	777777		DLOW.0:	OCT	377777777777
  3641	034702	261 17 0 00 000016 	D.NORM:	PUSH	P, Q		;SAVE AC Q
  3642	034703	254 00 0 00 034640 		JRST	D.MORM		;ENTER COMMON ROUTINE
  3643
  3644	034704	244 10 0 12 000000 	SHFT2:!	ASHC	AC2,0(XDIFF)	;UNNORMALIZE ARG2
  3645	034705	344 15 0 00 034601 		AOJA	X1,CADD		;INDICATE UNNORMALIZATION
  3646
  3647	034706	411 15 0 00 000777 	NEG2:!	ANDCAI	X1,777		;MAKE EXP -
  3648	034707	660 15 0 00 400000 	NEG1:!	TRO	X1,BITNEG	;SET MARKER FOR -
  3649	034710	213 00 0 00 000014 		MOVNS	AC1+1		;TWOS COMPL
  3650	034711	462 00 0 00 000013 		SETCMM	AC1		;...
  3651	034712	616 14 0 00 034701 		TDNN	AC1+1,DLOW.0	;...
  3652	034713	350 00 0 00 000013 		AOS	AC1		;...
  3653	034714	263 17 0 00 000000 		POPJ	P,		;RETURN
  3654
  3655	034715	660 15 0 00 400000 	BOTHN:!	TRO	X1,BITNEG	;SINCE BOTH WERE NEG, ANS ...
  3656	034716	254 00 0 00 034617 		JRST	AC2WPL		;MUST BE NEG
  3657
DBKDA	DECSYSTEM10 KI10 ARITHMETIC RELIABILITY TEST, VER 0,3	MACRO %51(414) 14:29  9-JUN-76 PAGE 1
DFMP	MAC	 9-JUN-76 13:38		DFMP	DOUBLE PRECISION FLOATING MULTIPLY                                     *** SEQ 0131

  3658					SUBTTL	DFMP	DOUBLE PRECISION FLOATING MULTIPLY
  3659
  3660					;*FOR KI10 SIMULATION/DIAGNOSTICS  13-OCT-71, J.R.KIRCHOFF
  3661					;*	7-DEC-69 /TWE, 12-MAY-70 /JRK
  3662					;*	DICK GRUEN: 9-SEP-67
  3663					;*	7-MAY-66 BEGOT 9-SEP-67  ( MACROX Q ERRORS )
  3664					;*THESE ROUTINES MULTIPLY TWO DOUBLE PRECISION FLOATING
  3665					;*NUMBERS.  EACH NUMBER HAS AN 8-BIT EXPONENT AND A
  3666					;*MANTISSA COMPOSED OF THE REMAINING 27 HI ORDER BITS AND
  3667					;*33 OF THE 35 LO ORDER ARITMETIC BITS.  THE ANSWER IS RE-
  3668					;*TURNED EITHER IN AC X OR IN MEMORY DEPENDING UPON THE
  3669					;*ENTRY USED.  THE "X" IS THE DOUBLE PRECISION AC USED AND
  3670					;*MAY BE 0,2,4, OR 6.  X IS ALSO SPECIFIED BY THE ENTRY
  3671					;*USED.  THE ROUTINE IS CALLED BY:
  3672
  3673					;*FMP:	MOVEI	Q,ARG2
  3674					;*	PUSHJ	P,DFM.X	;ARG1 IN AC X
  3675
  3676					;*	OR
  3677
  3678					;*FMPM:	MOVEI	Q,ARG2
  3679					;*	PUSHJ	P,DFMM.X	;ARG1 IN AC X
  3680
  3681					;*	NOTE THAT THE "X" AFTER THE "." IS A NUMBER, NOT
  3682					;*	A LETTER.
  3683
  3684			000017		P==17
  3685			000016		Q==16
  3686			000010		AC2==10
  3687			000012		T3==12
  3688			000013		AC1==13
  3689			000015		T4==15
  3690
  3691			400000		BITNEG==1B18
  3692
DBKDA	DECSYSTEM10 KI10 ARITHMETIC RELIABILITY TEST, VER 0,3	MACRO %51(414) 14:29  9-JUN-76 PAGE 2
DFMP	MAC	 9-JUN-76 13:38		DFMP	DOUBLE PRECISION FLOATING MULTIPLY                                     *** SEQ 0132

  3693						DEFINE	DM(A)<
  3694					DFMM.'A':	SKIPA	AC1,Q
  3695					DFM.'A':	MOVEI	AC1,A
  3696						IFN A,<
  3697						HRLI	Q,A
  3698						JRST	DFMPX
  3699					>>
  3700						DEFINE	GOODY(A)<
  3701						DM	0
  3702					>
  3703
  3704						GOODY^
  3705	034717	334 13 0 00 000016 	DFMM.0:	SKIPA	AC1,Q
  3706	034720	201 13 0 00 000000 	DFM.0:	MOVEI	AC1,0
  3707
DBKDA	DECSYSTEM10 KI10 ARITHMETIC RELIABILITY TEST, VER 0,3	MACRO %51(414) 14:29  9-JUN-76 PAGE 3
DFMP	MAC	 9-JUN-76 13:38		DFMP	DOUBLE PRECISION FLOATING MULTIPLY                                     *** SEQ 0133

  3708	034721	261 17 0 00 000013 	DFMPX:	PUSH	P,AC1		;ALL ROUTINES ENTER HERE
  3709	034722	336 12 0 16 000000 		SKIPN	T3,0(Q)		;HI ORDER OF ARG2
  3710	034723	254 02 1 00 046122 		JRST	2,@[XWD 0,D.ZERO]		;ZERO PRODUCT
  3711	034724	321 12 0 00 034767 		JUMPL	T3,NEG2A		;IF -, PICK UP COMPL
  3712	034725	200 10 0 00 000012 		MOVE	AC2,T3		;+, PLACE IN AC2
  3713	034726	200 11 0 16 000001 		MOVE	AC2+1,1(Q)	;...
  3714	034727	207 00 0 00 000016 	NEG2RT:!MOVSS	Q		;GET ARG1
  3715	034730	336 13 0 16 000000 		SKIPN	AC1,0(Q)	;LOOK AT ARG1
  3716	034731	254 02 1 00 046122 		JRST	2,@[XWD 0,D.ZERO]		;ZERO PRODUCT
  3717	034732	430 12 0 00 000013 		XOR	T3,AC1		;GET ANSWER SIGN
  3718	034733	500 16 0 00 000012 		HLL	Q,T3		;SALT IT AWAY
  3719	034734	321 13 0 00 034774 		JUMPL	AC1,NEG1A	;IF -, PICK UP ARG1 COMPL
  3720	034735	200 14 0 16 000001 		MOVE	AC1+1,1(Q)	;PICK UP +
  3721	034736	135 15 0 00 034677 	NEG1RT:!LDB	T4,DPAC.1	;GET EXPS
  3722	034737	135 12 0 00 034700 		LDB	T3,DPAC.2	;...
  3723	034740	271 15 0 12 777600 		ADDI	T4,-200(T3)	;GET PREDICTED EXP (EXCESS 200)
  3724	034741	405 15 0 00 077777 		ANDI T4,077777	;MASK EXPONENT TO 15 BITS
  3725	034742	603 16 0 00 400000 		TLNE	Q,400000	;IF RESULT SHOULD BE NEG, ...
  3726	034743	660 15 0 00 400000 		TRO	T4,BITNEG	;SET INDICATOR
  3727	034744	504 16 0 00 000015 		HRL	Q,T4		;SALT AWAY PROPOSED EXP
  3728	034745	621 13 0 00 777000 		TLZ	AC1,777000	;REMOVE EXPS
  3729	034746	621 10 0 00 777000 		TLZ	AC2,777000	;...
  3730	034747	244 13 0 00 000005 		ASHC	AC1,5		;MAKE SEMI-PRODUCTS MORE SIGNIFICANT
  3731	034750	244 10 0 00 000005 		ASHC	AC2,5		;...
  3732	034751	224 14 0 00 000010 		MUL	AC1+1,AC2	;FORM LO ORDER SEMI-PRODS
  3733	034752	224 11 0 00 000013 		MUL	AC2+1,AC1	;...
  3734	034753	200 12 0 00 000014 		MOVE	T3,AC1+1	;PROTECT FROM CREEPING SIGNIFICANCE
  3735	034754	224 13 0 00 000010 		MUL	AC1,AC2		;HI ORDER SEMI-PROD
  3736	034755	255 02 0 00 034756 		JCRY1	.+1		;CLEAR FLAG
  3737	034756	270 14 0 00 000012 		ADD	AC1+1,T3	;FIRST LO SEMI-PROD
  3738	034757	255 02 0 00 046131 		JCRY1	[AOJA AC1,A1RT]	;ADD IN CARRY
  3739	034760	270 14 0 00 000011 	A1RT:!	ADD	AC1+1,AC2+1	;SECOND LO SEMI-PROD
  3740	034761	255 02 0 00 046132 		JCRY1	[AOJA AC1,A2RT]	;ADD IN CARRY
  3741	034762	602 14 0 00 000002 	A2RT:!	TRNE	AC1+1,2		;PATCH FOR MORE PRECISION
  3742	034763	271 14 0 00 000002 		ADDI	AC1+1,2
  3743	034764	244 13 0 00 777776 		ASHC	AC1,-2
  3744	034765	554 15 0 00 000016 		HLRZ	T4,Q		;RECLAIM EXP
  3745	034766	254 00 0 00 034640 		JRST	D.MORM		;GO NORMALIZE AND RETURN
  3746
  3747	034767	460 10 0 00 000012 	NEG2A:!	SETCM	AC2,T3		;TW0S COMPL ARG2
  3748	034770	210 11 0 16 000001 		MOVN	AC2+1,1(Q)	;...
  3749	034771	616 11 0 00 034701 		TDNN	AC2+1,DLOW.0	;...
  3750	034772	344 10 0 00 034727 		AOJA	AC2,NEG2RT	;...
  3751	034773	254 00 0 00 034727 		JRST	NEG2RT	;...
  3752
  3753	034774	460 13 0 00 000013 	NEG1A:!	SETCM	AC1,AC1		;TWOS COMPL ARG2
  3754	034775	210 14 0 16 000001 		MOVN	AC1+1,1(Q)	;...
  3755	034776	616 14 0 00 034701 		TDNN	AC1+1,DLOW.0	;...
  3756	034777	344 13 0 00 034736 		AOJA	AC1,NEG1RT	;...
  3757	035000	254 00 0 00 034736 		JRST	NEG1RT		;...
  3758
DBKDA	DECSYSTEM10 KI10 ARITHMETIC RELIABILITY TEST, VER 0,3	MACRO %51(414) 14:29  9-JUN-76 PAGE 1
DFDV	MAC	 9-JUN-76 13:39		DFDV	DOUBLE PRECISION FLOATING DIVIDE                                       *** SEQ 0134

  3759					SUBTTL	DFDV	DOUBLE PRECISION FLOATING DIVIDE
  3760
  3761					;*FOR KI10 SIMULATION/DIAGNOSTICS  13-OCT-71, J.R.KIRCHOFF
  3762					;*	7-DEC-69 /TWE, 12-MAY-70 /JRK
  3763					;*	DICK GRUEN: 9-SEP-67
  3764					;*	7-MAY-66 BEGOT 9-SEP-67  ( MACROX Q ERRORS )
  3765					;*THESE ROUTINES FORM THE QUOTIENT OF TWO DOUBLE
  3766					;*PRECISION FLOATING POINT NUMBERS.  EACH NUMBER HAS AN
  3767					;*8-BIT EXPONENT IN THE THE HI ORDER PORTION OF THE HI
  3768					;*ORDER WORD AND A MANTISSA COMPOSED OF THE REMAINING 27
  3769					;*BITS OF THE HI ORDER WORD AND THE 35 ARITHMETIC BITS OF
  3770					;*THE LO ORDER WORD.  THE DIVIDEND UPON ENTRY IS IN THE
  3771					;*DOUBLE PRECISION AC SPECIFIED BY THE CALL.  THE ADDR OF
  3772					;*THE DIVISOR IS IN AC Q.  THE QUOTIENT IS RETURNED EITHER
  3773					;*IN THE AC SPECIFIED BY THE CALL OR DIRECTLY TO MEMORY,
  3774					;*DEPENDING UPON THE ENTRY USED.  THE DOUBLE PRECISION
  3775					;*ACCUMULATOR MAY BE 0,2,4, OR 6.  THE AC IS SPECIFIED
  3776					;*AS SHOWN BELOW:
  3777
  3778					;*FDV:	MOVEI	Q,DIVSOR
  3779					;*	PUSHJ	P,DFD.X		;DIVIDEND IN AC "X"
  3780
  3781					;*FDVM:	MOVEI	Q,DIVSOR
  3782					;*	PUSHJ	P,DFDM.X	;DIVIDEND IN AC "X"
  3783
  3784					;*	NOTE THAT THE "X" AFTER THE "." IS A NUMBER, NOT
  3785					;*	A LETTER.
  3786
  3787			000017		P==17
  3788			000016		Q=16
  3789
  3790			000010		AC2=10
  3791			000011		D=11
  3792			000012		X2=12
  3793			000013		AC1=13
  3794			000014		R=14
  3795			000015		X1=15
  3796
  3797			400000		BITNEG=1B18
DBKDA	DECSYSTEM10 KI10 ARITHMETIC RELIABILITY TEST, VER 0,3	MACRO %51(414) 14:29  9-JUN-76 PAGE 2
DFDV	MAC	 9-JUN-76 13:39		DFDV	DOUBLE PRECISION FLOATING DIVIDE                                       *** SEQ 0135

  3798						DEFINE	DFD(A)<
  3799					DFDM.'A':	SKIPA	AC1,Q
  3800					DFD.'A':	MOVEI	AC1,A
  3801						IFN A,<
  3802						HRLI	Q,A
  3803						JRST	DFDVX
  3804					>>
  3805						DEFINE	GOODY<
  3806						DFD	0
  3807					>
  3808						GOODY^
  3809	035001	334 13 0 00 000016 	DFDM.0:	SKIPA	AC1,Q
  3810	035002	201 13 0 00 000000 	DFD.0:	MOVEI	AC1,0
  3811
DBKDA	DECSYSTEM10 KI10 ARITHMETIC RELIABILITY TEST, VER 0,3	MACRO %51(414) 14:29  9-JUN-76 PAGE 3
DFDV	MAC	 9-JUN-76 13:39		DFDV	DOUBLE PRECISION FLOATING DIVIDE                                       *** SEQ 0136

  3812	035003	261 17 0 00 000013 	DFDVX:	PUSH	P,AC1		;ALL ROUTINES ENTER HERE
  3813	035004	200 12 0 16 000000 		MOVE	X2,0(Q)		;HI ORDER OF DIVISOR
  3814	035005	321 12 0 00 035046 		JUMPL	X2,NEG2B	;IF -, PICK UP COMPL
  3815	035006	200 10 0 00 000012 		MOVE	AC2,X2		;+, PLACE IN AC2
  3816	035007	200 11 0 16 000001 		MOVE	AC2+1,1(Q)	;...
  3817	035010	207 00 0 00 000016 	NEG2RB:!MOVSS	Q		;GET AT DIVIDEND
  3818	035011	200 13 0 16 000000 		MOVE	AC1,0(Q)	;HI ORDER
  3819	035012	430 12 0 00 000013 		XOR	X2,AC1		;SIGN OF X2= SIGN OF QUOTIENT
  3820	035013	321 13 0 00 035053 		JUMPL	AC1,NEG1B;IF AC1=-, PICK UP COMPL
  3821	035014	200 14 0 16 000001 		MOVE	AC1+1,1(Q)	;PICK UP +
  3822	035015	500 16 0 00 000012 	NEG1RB:!HLL	Q, X2		;SAVE QUOTIENT SIGN
  3823	035016	612 13 0 00 046133 		TDNE	AC1,[777777777]	;IS DIVIDEND ZERO?
  3824	035017	254 00 0 00 035021 		JRST	.+2
  3825	035020	254 02 1 00 046122 		JRST	2,@[XWD 0,D.ZERO]
  3826	035021	616 10 0 00 046133 		TDNN	AC2,[777777777]	;OR HAS 11TH COMMANDMENT BEEN VIOLATED?
  3827	035022	254 02 1 00 046134 		JRST 2,@[XWD 440240,D.ZERO]	;SET DIVIDE CHECK, RETURN 0
  3828	035023	135 15 0 00 034677 		LDB	X1,DPAC.1	;GET EXPS
  3829	035024	135 12 0 00 034700 		LDB	X2,DPAC.2	;...
  3830	035025	275 15 0 12 777577 		SUBI	X1,-201(X2)	;GET EXP DIFFERENCE
  3831	035026	405 15 0 00 077777 		ANDI X1,077777	;MASK RESULTANT EXP TO 15 BITS
  3832	035027	603 16 0 00 400000 		TLNE	Q,400000	;MARK QUOTIENT SIGN
  3833	035030	660 15 0 00 400000 		TRO	X1,BITNEG	;...
  3834	035031	504 16 0 00 000015 		HRL	Q,X1		;SAVE PROPOSED EXP
  3835	035032	621 13 0 00 777000 		TLZ	AC1,777000	;GRONK EXPS
  3836	035033	244 10 0 00 000010 		ASHC	AC2,8		;AND MAKE QUOTIENT TO RIGHT PLACE
  3837	035034	234 13 0 00 000010 	ARITH:!	DIV	AC1,AC2		;FIRST DIVISION
  3838	035035	224 11 0 00 000013 		MUL	D,AC1		;FORM Q1*D
  3839	035036	450 11 0 00 000000 		SETCA	D,		;TWO'S COMPL OF Q1*D
  3840	035037	616 12 0 00 034701 		TDNN	D+1,DLOW.0	;...
  3841	035040	350 00 0 00 000011 		AOS	D		;...
  3842	035041	270 14 0 00 000011 		ADD	R,D		;R CONTAINS R-Q1*D
  3843	035042	234 14 0 00 000010 		DIV	R,AC2		;SECOND DIVISION
  3844	035043	554 15 0 00 000016 		HLRZ	X1,Q		;GET EXP
  3845	035044	325 14 0 00 034634 		JUMPGE	R,D.DORM	;GO NORMALIZE IF POSITIVE
  3846	035045	364 13 0 00 034634 		SOJA	AC1,D.DORM	;ADJUST BEFORE NORMALIZE IF NEGATIVE
  3847
  3848	035046	460 10 0 00 000012 	NEG2B:!	SETCM	AC2,X2		;TWOS COMPL OF DIVISOR
  3849	035047	210 11 0 16 000001 		MOVN	AC2+1,1(Q)	;...
  3850	035050	616 11 0 00 034701 		TDNN	AC2+1,DLOW.0	;...
  3851	035051	344 10 0 00 035010 		AOJA	AC2,NEG2RB	;...
  3852	035052	254 00 0 00 035010 		JRST	NEG2RB		;...
  3853
  3854	035053	460 13 0 00 000013 	NEG1B:!	SETCM	AC1,AC1		;TWOS COMPL OF DIVIDEND
  3855	035054	210 14 0 16 000001 		MOVN	AC1+1,1(Q)	;...
  3856	035055	616 14 0 00 034701 		TDNN	AC1+1,DLOW.0	;...
  3857	035056	344 13 0 00 035015 		AOJA	AC1,NEG1RB	;...
  3858	035057	254 00 0 00 035015 		JRST	NEG1RB		;...
  3859
DBKDA	DECSYSTEM10 KI10 ARITHMETIC RELIABILITY TEST, VER 0,3	MACRO %51(414) 14:29  9-JUN-76 PAGE 1
IFIX	MAC	 9-JUN-76 13:40		IFIX	36 BIT FIX FUNCTION                                                    *** SEQ 0137

  3860					SUBTTL	IFIX	36 BIT FIX FUNCTION
  3861
  3862					;*FOR KI10 SIMULATION/DIAGNOSTICS  13-OCT-71, J.R.KIRCHOFF
  3863					;*	15-MAY-70 /JRK
  3864					;*	FROM VERSION, 18 FEBRUARY 1966	ED YOURDON
  3865					;*36 BIT FIX FUNCTION
  3866					;*AN INTERGER RESULT IS OBTAINED BY SEPARATING FRACTION AND
  3867					;*EXPONENT.  THE FRACTION IS SHIFTED N PLACES RIGHT, WHERE
  3868					;*N= 43 - (EXPONENT-200) (OCTAL)
  3869
  3870					;*THE CALLING SEQUENCE FOR THE ROUTINE IS AS FOLLOWS:
  3871					;*	MOVEI	Q,ARG
  3872					;*	PUSHJ	17,FIX.0
  3873					;*THE ANSWER IS RETURNED IN ACCUMULATOR A
  3874
  3875			000000			A==	0
  3876			000001			B==	1
  3877			000016			Q==	16
  3878
  3879	035060	476 00 0 00 035112 	FIXR.0:	SETOM	IFIXC		;SET TO ROUND
  3880	035061	254 00 0 00 035063 		JRST .+2
  3881
  3882	035062	402 00 0 00 035112 	FIX.0:	SETZM	IFIXC
  3883	035063	202 00 0 00 035110 		MOVEM	A,IFIXA		;SAVE AC A
  3884	035064	202 01 0 00 035111 		MOVEM	B,IFIXB		;SAVE AC B
  3885	035065	214 00 0 16 000000 		MOVM	A,(Q)		;PICK UP ARG
  3886	035066	225 00 0 00 000400 		MULI	A,400		;SEPARATE FRACTION AND EXPONENT
  3887	035067	250 00 0 00 000001 		EXCH	A,B		;PUT PARTIAL RESULTS IN A
  3888	035070	303 01 0 00 000243 		CAILE	B,243
  3889	035071	254 00 0 00 035104 		JRST	FIX1C		;OVERFLOW ERROR
  3890	035072	244 00 0 01 777535 		ASHC	A,-243(B)	;USE EXPONENT AS INDEX REGISTER
  3891	035073	336 00 0 00 035112 		SKIPN	IFIXC		;ROUND RESULT ?
  3892	035074	254 00 0 00 035077 		JRST	.+3		;NO
  3893	035075	603 01 0 00 200000 		TLNE	B,200000	;NEED ROUNDING ?
  3894	035076	271 00 0 00 000001 		ADDI	A,1		;YES
  3895	035077	335 00 0 16 000000 		SKIPGE	(Q)		;SET THE CORRECT SIGN
  3896	035100	213 00 0 00 000000 		MOVNS	A,A
  3897	035101	200 01 0 00 035111 		MOVE	B,IFIXB		;RESTORE AC B
  3898	035102	254 02 1 00 046135 		JRST	2,@[.+1]	;CLEAR FLAGS
  3899	035103	263 17 0 00 000000 		POPJ	17,		;EXIT
  3900
  3901	035104	200 01 0 00 035111 	FIX1C:	MOVE	B,IFIXB
  3902	035105	200 00 0 00 035110 		MOVE	A,IFIXA
  3903	035106	254 02 1 00 046136 		JRST	2,@[XWD 400200,.+1]	;OVERFLOW
  3904	035107	263 17 0 00 000000 		POPJ	17,
  3905
  3906	035110	000000	000000		IFIXA:!	0
  3907	035111	000000	000000		IFIXB:!	0
  3908	035112	000000	000000		IFIXC:!	0
DBKDA	DECSYSTEM10 KI10 ARITHMETIC RELIABILITY TEST, VER 0,3	MACRO %51(414) 14:29  9-JUN-76 PAGE 1
FLOAT	MAC	 9-JUN-76 13:40		FLOAT	36 BIT FLOAT FUNCTION                                                  *** SEQ 0138

  3909					SUBTTL	FLOAT	36 BIT FLOAT FUNCTION
  3910
  3911					;*FOR KI10 SIMULATION/DIAGNOSTICS  13-OCT-71, J.R.KIRCHOFF
  3912					;*	15-MAY-70 /JRK
  3913					;*	FROM VERSION, 18 FEBRUARY 1966 ED YOURDON
  3914
  3915					;*36 BIT FLOAT FUNCTION
  3916					;*CONVERTS A SIGNED FIXED POINT INTERGER TO A FLOATING POINT
  3917					;*BY BREAKING THE INTERGER INTO HIGH ORDER AND LOW ORDER
  3918					;*FRACTIONS, CALCULATING AN EXPONENT, THEN ADDING THE TWO
  3919					;*TOGETHER.
  3920
  3921					;*THE ROUTINE IS CALLED AS FOLLOWS:
  3922					;*	MOVEI	Q,ARG
  3923					;*	PUSHJ	17,FLT.0
  3924					;*THE ANSWER IS RETURNED IN ACCUMULATOR A
  3925
  3926			000000			A==	0
  3927			000001			B==	1
  3928			000016			Q==	16
  3929
  3930	035113	260 17 0 00 035123 	FLT.0:	PUSHJ	17,FLT1A
  3931	035114	140 00 0 00 000001 		FAD	A,B		;NORMALIZE AND ADD
  3932	035115	200 01 0 00 035132 	FLT2A:	MOVE	B,FLOATB	;RESTORE AC B
  3933	035116	254 02 1 00 046137 		JRST	2,@[.+1]	;CLEAR FLAGS
  3934	035117	263 17 0 00 000000 		POPJ	17,		;EXIT
  3935
  3936	035120	260 17 0 00 035123 	FLTR.0:	PUSHJ	17,FLT1A
  3937	035121	144 00 0 00 000001 		FADR	A,B		;NORMALIZE, ADD & ROUND
  3938	035122	254 00 0 00 035115 		JRST	FLT2A
  3939
  3940	035123	202 01 0 00 035132 	FLT1A:	MOVEM	B,FLOATB	;SAVE AC B
  3941	035124	200 00 0 16 000000 		MOVE	A,(Q)		;PICKUP THE ARGUMENT
  3942	035125	231 00 0 00 400000 		IDIVI	A,400000	;PUT HIGH ORDER IN RH(A),...
  3943	035126	332 00 0 00 000000 		SKIPE	A		;IMPLIES INTERGER LESS THAN 18 BITS
  3944	035127	641 00 0 00 254000 		TLC	A,254000	;SET EXP TO 254 (27+17 DECIMAL)
  3945	035130	641 01 0 00 233000 		TLC	B,233000	;SET EXP OF B TO 233 (27 DECIMAL)
  3946	035131	263 17 0 00 000000 		POPJ	17,
  3947
  3948
  3949	035132	000000	000000		FLOATB:!0
  3950
DBKDA	DECSYSTEM10 KI10 ARITHMETIC RELIABILITY TEST, VER 0,3	MACRO %51(414) 14:29  9-JUN-76 PAGE 1
KI10A1	MAC	 9-JUN-76 13:52		SIMULATOR PARAMETERS AND DEFINITIONS                                           *** SEQ 0139

  3951					SUBTTL	SIMULATOR PARAMETERS AND DEFINITIONS
  3952
  3953						MLON
  3954
  3955					;*ACCUMULATOR DEFINITIONS
  3956
  3957			000000			F==0		;MISC LOGIC FLIP FLOPS
  3958			000001			T==1		;TEMPORARY REGISTERS
  3959			000002			T1==2
  3960			000003			T2==3
  3961			000004			T3==4
  3962			000005			S==5		;STATE REGISTER
  3963			000006			AR==6		;MACHINE REGISTERS
  3964			000007			MQ==7
  3965			000010			BR==10
  3966			000011			AD==11
  3967			000012			MB==12
  3968			000013			PC==13
  3969			000014			MA==14
  3970			000015			SC==15
  3971			000016			IR==16
  3972			000017			P==17		;PUSH DOWN POINTER
DBKDA	DECSYSTEM10 KI10 ARITHMETIC RELIABILITY TEST, VER 0,3	MACRO %51(414) 14:29  9-JUN-76 PAGE 2
KI10A1	MAC	 9-JUN-76 13:52		SIMULATOR PARAMETERS AND DEFINITIONS                                           *** SEQ 0140

  3973						DEFINE	BITS (FIRST,PREFIX,LIST)<
  3974						.FOO.==FIRST
  3975						IRP LIST<
  3976						PREFIX'LIST==.FOO.
  3977						.FOO.==.FOO.+.FOO.
  3978					>>
  3979
  3980					;*LEFT HALF BITS
  3981					;*CLOCKS
  3982						BITS (2,,<PCCLK>)^
  3983					;*EXECUTION TIME PULSE SWITCHES
  3984						BITS (1,ET,<0,1>)^
  3985			000004			INFTST==4
  3986					;*AD ENABLES
  3987						BITS (10,AD,<MAGIC,ARRP,ARLP,ARMI,BRRP,BRLP,BRMI^_
  3988					,FMRP,FMLP,FMMI,CR36,ADD,EQV,PL1L,MI1B>)^
  3989			006000			ADFMPL==ADFMRP+ADFMLP
  3990			000060			ADARPL==ADARRP+ADARLP
  3991			000600			ADBRPL==ADBRRP+ADBRLP
  3992			220000			ADPL1B==ADPL1L+ADCR36
  3993
  3994					;*RIGHT HALF BITS
  3995					;*FETCH AND STORE SWITCHES
  3996						BITS (1,,<FCE,PSE,FCCACR,SCE,STORE^_
  3997					,SACINH,SACBR,SAC2,PCCHNG>)^
  3998			000003			FCEPSE==FCE+PSE
  3999			000002			FCE2==PSE
  4000			000006			FCCACL==FCCACR+PSE
  4001			000140			SAIAC0==SACINH+SACBR
  4002					;*MQ ENABLES
  4003						BITS (1,MQ,<SHR2,SHRT,SHLT,ADEN,CLR>)^
  4004					;*AUX AR ENABLES
  4005						BITS (.FOO.,AR,<SHR2,SHRT,SHLT,CLR>)^
  4006					;*BR ENABLES
  4007			001000			BRAREN==1000
  4008					;*AR ENABLES
  4009						BITS (2000,AR,<LTAD,RTAD,RARL,LARR,IREN>)^
  4010			022000			ARFLGS==ARLTAD+ARLARR
  4011			014000			ARPCEN==ARRTAD+ARRARL
  4012			006000			ARADEN==ARLTAD+ARRTAD
  4013			030000			ARSWAP==ARRARL+ARLARR
  4014					;*ADDRESS BUS ENABLES
  4015						BITS (.FOO.,AB,<PCEN,ABEN,ADEN>)^
  4016
  4017			040000			LNGCYC==40000
  4018			000001			ADCLKINH==1
DBKDA	DECSYSTEM10 KI10 ARITHMETIC RELIABILITY TEST, VER 0,3	MACRO %51(414) 14:29  9-JUN-76 PAGE 3
KI10A1	MAC	 9-JUN-76 13:52		SIMULATOR PARAMETERS AND DEFINITIONS                                           *** SEQ 0141

  4019					;*CONTROL FF'S
  4020						BITS (ABPCEN,AB,<PC,AB,AD>)^
  4021			000001			CLKINH==1
  4022			000002			ABAS==2
  4023			000004			DSF2SET==4
  4024			000010			DSF2CLR==10
  4025			000020			FLAG1==20
  4026			000040			FLAG2==40
  4027			000100			FLAG3==100
  4028			000200			SCP1S==200
  4029			000400			SCP1IN==400
  4030			001000			MUOF1S==1000
  4031			002000			MUOF1C==2000
  4032			004000			MUOF2S==4000
  4033			010000			MUOF2C==10000
  4034
  4035
  4036					;*SCADDER BITS RIGHT HALF
  4037			000001			SAMI22==1
  4038			000002			SAPL44==2
  4039			000003			SAZERO==3
  4040			000004			SAP220==4
  4041			000005			SAP110==5
  4042			000006			SAM110==6
  4043			000007			SAMI42==7
  4044			000010			SAMI16==10
  4045			000011			SAMI33==11
  4046			000012			SAMI32==12
  4047			000013			SAMI4==13
  4048			000014			SAPL10==14
  4049			000015			SAMI43==15
  4050			000016			SAPL43==16
  4051			000017			SAM100==17
  4052						BITS (20,SA,<SCPL,SCMI,ADD,PL1,MSIZ,ARPOS,AREX,EQV,FEEN>)^
  4053						BITS (.FOO.,SC,<SAEN,AREN,SHRT,SCP1>)^
  4054						BITS (.FOO.,FE,<SAEN>)^
  4055
  4056					;*LEFT HALF
  4057						BITS (1,MB,<FMEN,AREN>)^
  4058						BITS (.FOO.,BR,<ARXEN>)^
  4059						BITS (.FOO.,ARX,<SR2,SHR,SHL,ADX,CLR>)^
  4060						BITS (.FOO.,AD,<MSKG,BRP2,MBRE,MBLE>)^
  4061			006000			ADMBEN==ADMBRE+ADMBLE
  4062
DBKDA	DECSYSTEM10 KI10 ARITHMETIC RELIABILITY TEST, VER 0,3	MACRO %51(414) 14:29  9-JUN-76 PAGE 4
KI10A1	MAC	 9-JUN-76 13:52		SIMULATOR PARAMETERS AND DEFINITIONS                                           *** SEQ 0142

  4063					;*ADX BITS LEFT HALF
  4064						BITS (.FOO.,ADX,<BRM,FM2,FMM,FMP,EQV,ADD>)^
  4065
  4066			000017			MEMREF=FCE!FCEPSE!SCE!FCCACL!FCCACR!FCE2
  4067
  4068			000144			PAGDLY==^D100
  4069			000536			WARNDLY==^D350
  4070
  4071						IFNDEF	SIMASB,<
  4072						OFFSET==400000	;SIMULATED PROGRAMS ARE IN HIGH SEGMENT>
  4073
  4074
  4075					;*FLAGS, LEFT HALF OF PC WORD
  4076
  4077			400000			AROV==400000
  4078			200000			CRY0==200000
  4079			100000			CRY1==100000
  4080			040000			FOV==040000
  4081			020000			BIS==020000
  4082			010000			USERF==010000
  4083			004000			EXIOT==004000
  4084			002000			LIP==002000
  4085			001000			UOLIP==001000
  4086			000400			TN0==400
  4087			000200			TN1==200
  4088			000100			FXU==000100
  4089			000040			DCK==000040
DBKDA	DECSYSTEM10 KI10 ARITHMETIC RELIABILITY TEST, VER 0,3	MACRO %51(414) 14:29  9-JUN-76 PAGE 5
KI10A1	MAC	 9-JUN-76 13:52		DISPATCH TABLE FOR INSTRUCTIONS		0-37                                   *** SEQ 0143

  4090					SUBTTL	DISPATCH TABLE FOR INSTRUCTIONS		0-37
  4091
  4092	035133				TABLE:
  4093
  4094					;*FORMAT OF DISPATCH TABLE
  4095					;*	FETCH CYCLE ENABLES, SWITCHES
  4096					;*	ET0 ADDRESS,, ET1 ADDRESS
  4097					;*	ET2 ENABLES AND CLOCKS, ET2 DISPATCH
  4098
  4099					;*UUO'S
  4100					DEFINE UUOMAC <
  4101						XWD ET0+ET1,STORE+SACINH
  4102						XWD [MONUUO],[XWD ADARPL,0]
  4103						XWD 0,ARIREN+ARRTAD
  4104					>
  4105						IFNDEF	SIMASB,<
  4106					;*ILLEGAL UUO							0
  4107						UUOMAC
  4108
  4109					;*USER UUO'S							1-37
  4110						REPEAT 37,
  4111					<	XWD ET0+ET1+ADMAGIC,STORE+SACINH+UUOFD
  4112						[XWD ADMAGIC,ARIREN+ABADEN+UUO1]
  4113						XWD INFTST,0
  4114					>
  4115					DBKDA	DECSYSTEM10 KI10 ARITHMETIC RELIABILITY TEST, VER 0,3	MACRO %51(414) 14:29  9-JUN-76 PAGE 6
KI10A1	MAC	 9-JUN-76 13:52		DISPATCH TABLE FOR INSTRUCTIONS		0-37                                   *** SEQ 0144

  4116					SUBTTL	DISPATCH TABLE FOR INSTRUCTIONS		40-107
  4117
  4118					;*MONITOR UUO'S							40-77
  4119						REPEAT 40,
  4120					<	UUOMAC
  4121					>
  4122					;*UNDEFINED OP CODES						100-107
  4123						REPEAT 10,
  4124					<	UUOMAC
  4125					>
  4126					>
DBKDA	DECSYSTEM10 KI10 ARITHMETIC RELIABILITY TEST, VER 0,3	MACRO %51(414) 14:29  9-JUN-76 PAGE 7
KI10A1	MAC	 9-JUN-76 13:52		DISPATCH TABLE FOR INSTRUCTIONS		110-111                                *** SEQ 0145

  4127					SUBTTL	DISPATCH TABLE FOR INSTRUCTIONS		110-111
  4128
  4129					;*DFAD, DFSB							110-111
  4130						REPEAT 2,
  4131					<	XWD ET0+ET1+ADFMPL,FCE2+SAC2+DFAFD+PCCHNG
  4132						XWD [XWD ADFMPL,ARADEN+BRAREN+DFA0],[XWD ADBRPL,ARADEN+BRAREN+DFA1]
  4133						ARADEN+BRAREN+DFA2
  4134					>
  4135	035133	006003	017602			XWD ET0+ET1+ADFMPL,FCE2+SAC2+DFAFD+PCCHNG
  4136	035134	046140	046141			XWD [XWD ADFMPL,ARADEN+BRAREN+DFA0],[XWD ADBRPL,ARADEN+BRAREN+DFA1]
  4137	035135	000000	007576			ARADEN+BRAREN+DFA2
  4138
  4139	035136	006003	017602			XWD ET0+ET1+ADFMPL,FCE2+SAC2+DFAFD+PCCHNG
  4140	035137	046140	046141			XWD [XWD ADFMPL,ARADEN+BRAREN+DFA0],[XWD ADBRPL,ARADEN+BRAREN+DFA1]
  4141	035140	000000	007576			ARADEN+BRAREN+DFA2
  4142
  4143					;*DFMP								112
  4144	035141	006003	020602			XWD	ET0+ET1+ADFMPL,FCE2+SAC2+DFMFD+PCCHNG
  4145	035142	046142	046143			XWD [XWD ADFMPL,ARADEN+BRAREN+DFM0],[XWD ADBRPL,ARADEN+DFM1]
  4146	035143	000000	007631			ARADEN+BRAREN+DFM2
  4147					;*DFDV								113
  4148	035144	006003	021702			XWD	ET0+ET1+ADFMPL,FCE2+SAC2+DFDFD+PCCHNG+SACBR
  4149	035145	046144	046145			XWD [XWD ADFMPL,ARADEN+BRAREN+DFD0],[ARADEN+DFD1]
  4150	035146	000000	000654			DFD2
  4151
DBKDA	DECSYSTEM10 KI10 ARITHMETIC RELIABILITY TEST, VER 0,3	MACRO %51(414) 14:29  9-JUN-76 PAGE 8
KI10A1	MAC	 9-JUN-76 13:52		DISPATCH TABLE FOR INSTRUCTIONS		114-123                                *** SEQ 0146

  4152					SUBTTL	DISPATCH TABLE FOR INSTRUCTIONS		114-123
  4153
  4154					;*UNDEFINED OP CODES						114-117
  4155						REPEAT 4,
  4156					<	UUOMAC
  4157					>
  4158						UUOMAC^
  4159	035147	000003	000060			XWD ET0+ET1,STORE+SACINH
  4160	035150	046146	046147			XWD [MONUUO],[XWD ADARPL,0]
  4161	035151	000000	044000			XWD 0,ARIREN+ARRTAD
  4162
  4163						UUOMAC^
  4164	035152	000003	000060			XWD ET0+ET1,STORE+SACINH
  4165	035153	046146	046147			XWD [MONUUO],[XWD ADARPL,0]
  4166	035154	000000	044000			XWD 0,ARIREN+ARRTAD
  4167
  4168						UUOMAC^
  4169	035155	000003	000060			XWD ET0+ET1,STORE+SACINH
  4170	035156	046146	046147			XWD [MONUUO],[XWD ADARPL,0]
  4171	035157	000000	044000			XWD 0,ARIREN+ARRTAD
  4172
  4173						UUOMAC^
  4174	035160	000003	000060			XWD ET0+ET1,STORE+SACINH
  4175	035161	046146	046147			XWD [MONUUO],[XWD ADARPL,0]
  4176	035162	000000	044000			XWD 0,ARIREN+ARRTAD
  4177
  4178
  4179					;*DMOVE,DMOVN							120-121
  4180						REPEAT 2,
  4181					<	SAC2+FCE2+PCCHNG+SRINST
  4182						0
  4183						DMOV2
  4184					>
  4185	035163	000000	003602			SAC2+FCE2+PCCHNG+SRINST
  4186	035164	000000	000000			0
  4187	035165	000000	000372			DMOV2
  4188
  4189	035166	000000	003602			SAC2+FCE2+PCCHNG+SRINST
  4190	035167	000000	000000			0
  4191	035170	000000	000372			DMOV2
  4192
  4193					;*FIX								122
  4194	035171	000003	010001			XWD	ET0+ET1,FCE+FIXFD
  4195	035172	046150	046151			XWD	[FIX0],[FIX1]
  4196	035173	000000	000524			FIX2
  4197
  4198					;*UNDEFINED OP CODE						123
  4199						UUOMAC^
  4200	035174	000003	000060			XWD ET0+ET1,STORE+SACINH
  4201	035175	046146	046147			XWD [MONUUO],[XWD ADARPL,0]
  4202	035176	000000	044000			XWD 0,ARIREN+ARRTAD
  4203
DBKDA	DECSYSTEM10 KI10 ARITHMETIC RELIABILITY TEST, VER 0,3	MACRO %51(414) 14:29  9-JUN-76 PAGE 9
KI10A1	MAC	 9-JUN-76 13:52		DISPATCH TABLE FOR INSTRUCTIONS		124-132                                *** SEQ 0147

  4204					SUBTTL	DISPATCH TABLE FOR INSTRUCTIONS		124-132
  4205
  4206					;*DMOVEM								124
  4207	035177	006000	000450			XWD	ADFMPL,SCE+SACINH+PCCHNG
  4208	035200	000000	000000			0
  4209	035201	000000	007000			ARADEN+BRAREN
  4210
  4211					;*DMOVNM								125
  4212	035202	010003	025450			XWD	ADFMMI+ET0+ET1,SCE+SACINH+PCCHNG+DMVMFD
  4213						XWD	[XWD ADADD+ADCR36+ADARPL+ADMAGIC,ARADEN+BRAREN+DMVNM0],^_
  4214	035203	046152	046153		[XWD ADFMMI+ADCR36+ADADD,DMVNM1]
  4215	035204	000000	000403			DMVNM2
  4216
  4217					;*FIXR								126
  4218	035205	000003	010001			XWD	ET0+ET1,FCE+FIXFD
  4219	035206	046150	046151			XWD	[FIX0],[FIX1]
  4220	035207	000000	000524			FIX2
  4221
  4222					;*FLTR								127
  4223	035210	000000	011001			FCE+FLTFD
  4224	035211	000000	000000			0
  4225	035212	000060	000427			XWD	ADARPL,FLT2
  4226
  4227					;*UFA								130
  4228	035213	006000	014001			XWD	ADFMPL,FCE+FADFD
  4229	035214	000000	000000			0
  4230	035215	000000	007553			BRAREN+ARADEN+UFA2
  4231
  4232					;*DFN								131
  4233	035216	000063	052103			XWD	ET0+ET1+ADARPL,FCEPSE+SACBR+LNGCYC+DFNFD
  4234	035217	046154	046155			XWD	[XWD ADFMMI,DFN0],[BRAREN+ARADEN+DFN1]
  4235	035220	000000	007000			BRAREN+ARADEN
  4236
  4237					;*FSC								132
  4238	035221	006001	013000			XWD	ET0+ADFMPL,FSCFD
  4239	035222	046156	000000			XWD	[ARADEN+FSC0],0
  4240	035223	000060	000436			XWD	ADARPL,FSC2
  4241
DBKDA	DECSYSTEM10 KI10 ARITHMETIC RELIABILITY TEST, VER 0,3	MACRO %51(414) 14:29  9-JUN-76 PAGE 10
KI10A1	MAC	 9-JUN-76 13:52		DISPATCH TABLE FOR INSTRUCTIONS		133-137                                *** SEQ 0148

  4242					SUBTTL	DISPATCH TABLE FOR INSTRUCTIONS		133-137
  4243
  4244					;*IBP								133
  4245	035224					BLOCK 3
  4246
  4247					;*XLDB SECOND PART						134-135
  4248						REPEAT 2,
  4249					<	XWD ET0+ET1,FCE+LDBFD
  4250						XWD [LDB0],[XWD ADARPL+ADBRPL,BRAREN+LDB1]
  4251						ARADEN+LDB2
  4252					>
  4253	035227	000003	007001			XWD ET0+ET1,FCE+LDBFD
  4254	035230	046157	046160			XWD [LDB0],[XWD ADARPL+ADBRPL,BRAREN+LDB1]
  4255	035231	000000	006367			ARADEN+LDB2
  4256
  4257	035232	000003	007001			XWD ET0+ET1,FCE+LDBFD
  4258	035233	046157	046160			XWD [LDB0],[XWD ADARPL+ADBRPL,BRAREN+LDB1]
  4259	035234	000000	006367			ARADEN+LDB2
  4260
  4261
  4262					;*XDPB SECOND PART						136-137
  4263						REPEAT 2,
  4264					<	XWD ADFMPL+ET0+ET1,FCE+SCE+SACINH+DPBFD
  4265						XWD [BRAREN+DPB0],[XWD ADARPL+ADBRPL,BRAREN+DPB1]
  4266						ARADEN+DPB2
  4267					>
  4268	035235	006003	007051			XWD ADFMPL+ET0+ET1,FCE+SCE+SACINH+DPBFD
  4269	035236	046161	046162			XWD [BRAREN+DPB0],[XWD ADARPL+ADBRPL,BRAREN+DPB1]
  4270	035237	000000	006366			ARADEN+DPB2
  4271
  4272	035240	006003	007051			XWD ADFMPL+ET0+ET1,FCE+SCE+SACINH+DPBFD
  4273	035241	046161	046162			XWD [BRAREN+DPB0],[XWD ADARPL+ADBRPL,BRAREN+DPB1]
  4274	035242	000000	006366			ARADEN+DPB2
  4275
DBKDA	DECSYSTEM10 KI10 ARITHMETIC RELIABILITY TEST, VER 0,3	MACRO %51(414) 14:29  9-JUN-76 PAGE 11
KI10A1	MAC	 9-JUN-76 13:52		DISPATCH TABLE FOR INSTRUCTIONS		140-177                                *** SEQ 0149

  4276					SUBTTL	DISPATCH TABLE FOR INSTRUCTIONS		140-177
  4277
  4278					;*FADXX								140-147
  4279			000000			N==0
  4280						REPEAT 10,
  4281					<	XWD <IFE N-5,<ET0>>+ADFMPL,<IFN N-5,<FCE>>+FADFD^_
  4282					+<IFN N&2,<SCE>>+<IFE N&3-2,<SACINH>>+<IFE N-1,<SAC2>>
  4283						XWD [XWD ADFMPL,ARSWAP+FMP0],0
  4284						BRAREN+ARADEN+FAD2
  4285						N==N+1
  4286					>
  4287						XWD <IFE N-5,<ET0>>+ADFMPL,<IFN N-5,<FCE>>+FADFD+<IFN N&2,<SCE>>+<IFE N&3-2,<SACINH
  4288	035243	006000	014001		>>+<IFE N-1,<SAC2>>
  4289	035244	046163	000000			XWD [XWD ADFMPL,ARSWAP+FMP0],0
  4290	035245	000000	007554			BRAREN+ARADEN+FAD2
  4291			000001			N==N+1
  4292
  4293						XWD <IFE N-5,<ET0>>+ADFMPL,<IFN N-5,<FCE>>+FADFD+<IFN N&2,<SCE>>+<IFE N&3-2,<SACINH
  4294	035246	006000	014201		>>+<IFE N-1,<SAC2>>
  4295	035247	046163	000000			XWD [XWD ADFMPL,ARSWAP+FMP0],0
  4296	035250	000000	007554			BRAREN+ARADEN+FAD2
  4297			000002			N==N+1
  4298
  4299						XWD <IFE N-5,<ET0>>+ADFMPL,<IFN N-5,<FCE>>+FADFD+<IFN N&2,<SCE>>+<IFE N&3-2,<SACINH
  4300	035251	006000	014051		>>+<IFE N-1,<SAC2>>
  4301	035252	046163	000000			XWD [XWD ADFMPL,ARSWAP+FMP0],0
  4302	035253	000000	007554			BRAREN+ARADEN+FAD2
  4303			000003			N==N+1
  4304
  4305						XWD <IFE N-5,<ET0>>+ADFMPL,<IFN N-5,<FCE>>+FADFD+<IFN N&2,<SCE>>+<IFE N&3-2,<SACINH
  4306	035254	006000	014011		>>+<IFE N-1,<SAC2>>
  4307	035255	046163	000000			XWD [XWD ADFMPL,ARSWAP+FMP0],0
  4308	035256	000000	007554			BRAREN+ARADEN+FAD2
  4309			000004			N==N+1
  4310
  4311						XWD <IFE N-5,<ET0>>+ADFMPL,<IFN N-5,<FCE>>+FADFD+<IFN N&2,<SCE>>+<IFE N&3-2,<SACINH
  4312	035257	006000	014001		>>+<IFE N-1,<SAC2>>
  4313	035260	046163	000000			XWD [XWD ADFMPL,ARSWAP+FMP0],0
  4314	035261	000000	007554			BRAREN+ARADEN+FAD2
  4315			000005			N==N+1
  4316
  4317						XWD <IFE N-5,<ET0>>+ADFMPL,<IFN N-5,<FCE>>+FADFD+<IFN N&2,<SCE>>+<IFE N&3-2,<SACINH
  4318	035262	006001	014000		>>+<IFE N-1,<SAC2>>
  4319	035263	046163	000000			XWD [XWD ADFMPL,ARSWAP+FMP0],0
  4320	035264	000000	007554			BRAREN+ARADEN+FAD2
  4321			000006			N==N+1
  4322
  4323						XWD <IFE N-5,<ET0>>+ADFMPL,<IFN N-5,<FCE>>+FADFD+<IFN N&2,<SCE>>+<IFE N&3-2,<SACINH
  4324	035265	006000	014051		>>+<IFE N-1,<SAC2>>
  4325	035266	046163	000000			XWD [XWD ADFMPL,ARSWAP+FMP0],0
  4326	035267	000000	007554			BRAREN+ARADEN+FAD2
  4327			000007			N==N+1
  4328
  4329						XWD <IFE N-5,<ET0>>+ADFMPL,<IFN N-5,<FCE>>+FADFD+<IFN N&2,<SCE>>+<IFE N&3-2,<SACINH
  4330	035270	006000	014011		>>+<IFE N-1,<SAC2>>
DBKDA	DECSYSTEM10 KI10 ARITHMETIC RELIABILITY TEST, VER 0,3	MACRO %51(414) 14:29  9-JUN-76 PAGE 11-1
KI10A1	MAC	 9-JUN-76 13:52		DISPATCH TABLE FOR INSTRUCTIONS		140-177                                *** SEQ 0150

  4331	035271	046163	000000			XWD [XWD ADFMPL,ARSWAP+FMP0],0
  4332	035272	000000	007554			BRAREN+ARADEN+FAD2
  4333			000010			N==N+1
  4334
  4335
  4336					;*FSBXX								150-157
  4337			000000			N==0
  4338						REPEAT 10,
  4339					<	XWD <IFE N-5,<ET0>>+ADARMI+ADCR36+ADADD+ADMAGIC^_
  4340					+ET1,<IFN N-5,<FCE>>+FSBFD+<IFN N&2,<SCE>>+<IFE N&3-2,<SACINH>>^_
  4341					+<IFE N-1,<SAC2>>
  4342						XWD [XWD ADARMI+ADCR36+ADADD+ADMAGIC,ARSWAP],^_
  4343					[XWD ADFMPL,ARADEN+FMP0]
  4344						BRAREN+ARADEN+FAD2
  4345						N==N+1
  4346					>
  4347						XWD <IFE N-5,<ET0>>+ADARMI+ADCR36+ADADD+ADMAGIC+ET1,<IFN N-5,<FCE>>+FSBFD+<IFN N&2,
  4348	035273	060112	003001		<SCE>>+<IFE N&3-2,<SACINH>>+<IFE N-1,<SAC2>>
  4349	035274	046164	046165			XWD [XWD ADARMI+ADCR36+ADADD+ADMAGIC,ARSWAP],[XWD ADFMPL,ARADEN+FMP0]
  4350	035275	000000	007554			BRAREN+ARADEN+FAD2
  4351			000001			N==N+1
  4352
  4353						XWD <IFE N-5,<ET0>>+ADARMI+ADCR36+ADADD+ADMAGIC+ET1,<IFN N-5,<FCE>>+FSBFD+<IFN N&2,
  4354	035276	060112	003201		<SCE>>+<IFE N&3-2,<SACINH>>+<IFE N-1,<SAC2>>
  4355	035277	046164	046165			XWD [XWD ADARMI+ADCR36+ADADD+ADMAGIC,ARSWAP],[XWD ADFMPL,ARADEN+FMP0]
  4356	035300	000000	007554			BRAREN+ARADEN+FAD2
  4357			000002			N==N+1
  4358
  4359						XWD <IFE N-5,<ET0>>+ADARMI+ADCR36+ADADD+ADMAGIC+ET1,<IFN N-5,<FCE>>+FSBFD+<IFN N&2,
  4360	035301	060112	003051		<SCE>>+<IFE N&3-2,<SACINH>>+<IFE N-1,<SAC2>>
  4361	035302	046164	046165			XWD [XWD ADARMI+ADCR36+ADADD+ADMAGIC,ARSWAP],[XWD ADFMPL,ARADEN+FMP0]
  4362	035303	000000	007554			BRAREN+ARADEN+FAD2
  4363			000003			N==N+1
  4364
  4365						XWD <IFE N-5,<ET0>>+ADARMI+ADCR36+ADADD+ADMAGIC+ET1,<IFN N-5,<FCE>>+FSBFD+<IFN N&2,
  4366	035304	060112	003011		<SCE>>+<IFE N&3-2,<SACINH>>+<IFE N-1,<SAC2>>
  4367	035305	046164	046165			XWD [XWD ADARMI+ADCR36+ADADD+ADMAGIC,ARSWAP],[XWD ADFMPL,ARADEN+FMP0]
  4368	035306	000000	007554			BRAREN+ARADEN+FAD2
  4369			000004			N==N+1
  4370
  4371						XWD <IFE N-5,<ET0>>+ADARMI+ADCR36+ADADD+ADMAGIC+ET1,<IFN N-5,<FCE>>+FSBFD+<IFN N&2,
  4372	035307	060112	003001		<SCE>>+<IFE N&3-2,<SACINH>>+<IFE N-1,<SAC2>>
  4373	035310	046164	046165			XWD [XWD ADARMI+ADCR36+ADADD+ADMAGIC,ARSWAP],[XWD ADFMPL,ARADEN+FMP0]
  4374	035311	000000	007554			BRAREN+ARADEN+FAD2
  4375			000005			N==N+1
  4376
  4377						XWD <IFE N-5,<ET0>>+ADARMI+ADCR36+ADADD+ADMAGIC+ET1,<IFN N-5,<FCE>>+FSBFD+<IFN N&2,
  4378	035312	060113	003000		<SCE>>+<IFE N&3-2,<SACINH>>+<IFE N-1,<SAC2>>
  4379	035313	046164	046165			XWD [XWD ADARMI+ADCR36+ADADD+ADMAGIC,ARSWAP],[XWD ADFMPL,ARADEN+FMP0]
  4380	035314	000000	007554			BRAREN+ARADEN+FAD2
  4381			000006			N==N+1
  4382
  4383						XWD <IFE N-5,<ET0>>+ADARMI+ADCR36+ADADD+ADMAGIC+ET1,<IFN N-5,<FCE>>+FSBFD+<IFN N&2,
  4384	035315	060112	003051		<SCE>>+<IFE N&3-2,<SACINH>>+<IFE N-1,<SAC2>>
  4385	035316	046164	046165			XWD [XWD ADARMI+ADCR36+ADADD+ADMAGIC,ARSWAP],[XWD ADFMPL,ARADEN+FMP0]
DBKDA	DECSYSTEM10 KI10 ARITHMETIC RELIABILITY TEST, VER 0,3	MACRO %51(414) 14:29  9-JUN-76 PAGE 11-2
KI10A1	MAC	 9-JUN-76 13:52		DISPATCH TABLE FOR INSTRUCTIONS		140-177                                *** SEQ 0151

  4386	035317	000000	007554			BRAREN+ARADEN+FAD2
  4387			000007			N==N+1
  4388
  4389						XWD <IFE N-5,<ET0>>+ADARMI+ADCR36+ADADD+ADMAGIC+ET1,<IFN N-5,<FCE>>+FSBFD+<IFN N&2,
  4390	035320	060112	003011		<SCE>>+<IFE N&3-2,<SACINH>>+<IFE N-1,<SAC2>>
  4391	035321	046164	046165			XWD [XWD ADARMI+ADCR36+ADADD+ADMAGIC,ARSWAP],[XWD ADFMPL,ARADEN+FMP0]
  4392	035322	000000	007554			BRAREN+ARADEN+FAD2
  4393			000010			N==N+1
  4394
  4395
  4396					;*FMPXX								160-167
  4397			000000			N==0
  4398						REPEAT 10,
  4399					<	XWD <IFE N-5,<ET0>>+ET1+ADFMPL,<IFN N-5,<FCE>>+FMPFD^_
  4400					+<IFN N&2,<SCE>>+<IFE N&3-2,<SACINH>>+<IFE N-1,<SAC2>>
  4401						XWD [XWD ADFMPL,ARSWAP+FMP0],[ARADEN+BRAREN+FMP1]
  4402						XWD ADARPL,FMP2
  4403						N==N+1
  4404					>
  4405						XWD <IFE N-5,<ET0>>+ET1+ADFMPL,<IFN N-5,<FCE>>+FMPFD+<IFN N&2,<SCE>>+<IFE N&3-2,<SA
  4406	035323	006002	015001		CINH>>+<IFE N-1,<SAC2>>
  4407	035324	046163	046166			XWD [XWD ADFMPL,ARSWAP+FMP0],[ARADEN+BRAREN+FMP1]
  4408	035325	000060	000545			XWD ADARPL,FMP2
  4409			000001			N==N+1
  4410
  4411						XWD <IFE N-5,<ET0>>+ET1+ADFMPL,<IFN N-5,<FCE>>+FMPFD+<IFN N&2,<SCE>>+<IFE N&3-2,<SA
  4412	035326	006002	015201		CINH>>+<IFE N-1,<SAC2>>
  4413	035327	046163	046166			XWD [XWD ADFMPL,ARSWAP+FMP0],[ARADEN+BRAREN+FMP1]
  4414	035330	000060	000545			XWD ADARPL,FMP2
  4415			000002			N==N+1
  4416
  4417						XWD <IFE N-5,<ET0>>+ET1+ADFMPL,<IFN N-5,<FCE>>+FMPFD+<IFN N&2,<SCE>>+<IFE N&3-2,<SA
  4418	035331	006002	015051		CINH>>+<IFE N-1,<SAC2>>
  4419	035332	046163	046166			XWD [XWD ADFMPL,ARSWAP+FMP0],[ARADEN+BRAREN+FMP1]
  4420	035333	000060	000545			XWD ADARPL,FMP2
  4421			000003			N==N+1
  4422
  4423						XWD <IFE N-5,<ET0>>+ET1+ADFMPL,<IFN N-5,<FCE>>+FMPFD+<IFN N&2,<SCE>>+<IFE N&3-2,<SA
  4424	035334	006002	015011		CINH>>+<IFE N-1,<SAC2>>
  4425	035335	046163	046166			XWD [XWD ADFMPL,ARSWAP+FMP0],[ARADEN+BRAREN+FMP1]
  4426	035336	000060	000545			XWD ADARPL,FMP2
  4427			000004			N==N+1
  4428
  4429						XWD <IFE N-5,<ET0>>+ET1+ADFMPL,<IFN N-5,<FCE>>+FMPFD+<IFN N&2,<SCE>>+<IFE N&3-2,<SA
  4430	035337	006002	015001		CINH>>+<IFE N-1,<SAC2>>
  4431	035340	046163	046166			XWD [XWD ADFMPL,ARSWAP+FMP0],[ARADEN+BRAREN+FMP1]
  4432	035341	000060	000545			XWD ADARPL,FMP2
  4433			000005			N==N+1
  4434
  4435						XWD <IFE N-5,<ET0>>+ET1+ADFMPL,<IFN N-5,<FCE>>+FMPFD+<IFN N&2,<SCE>>+<IFE N&3-2,<SA
  4436	035342	006003	015000		CINH>>+<IFE N-1,<SAC2>>
  4437	035343	046163	046166			XWD [XWD ADFMPL,ARSWAP+FMP0],[ARADEN+BRAREN+FMP1]
  4438	035344	000060	000545			XWD ADARPL,FMP2
  4439			000006			N==N+1
  4440
DBKDA	DECSYSTEM10 KI10 ARITHMETIC RELIABILITY TEST, VER 0,3	MACRO %51(414) 14:29  9-JUN-76 PAGE 11-3
KI10A1	MAC	 9-JUN-76 13:52		DISPATCH TABLE FOR INSTRUCTIONS		140-177                                *** SEQ 0152

  4441						XWD <IFE N-5,<ET0>>+ET1+ADFMPL,<IFN N-5,<FCE>>+FMPFD+<IFN N&2,<SCE>>+<IFE N&3-2,<SA
  4442	035345	006002	015051		CINH>>+<IFE N-1,<SAC2>>
  4443	035346	046163	046166			XWD [XWD ADFMPL,ARSWAP+FMP0],[ARADEN+BRAREN+FMP1]
  4444	035347	000060	000545			XWD ADARPL,FMP2
  4445			000007			N==N+1
  4446
  4447						XWD <IFE N-5,<ET0>>+ET1+ADFMPL,<IFN N-5,<FCE>>+FMPFD+<IFN N&2,<SCE>>+<IFE N&3-2,<SA
  4448	035350	006002	015011		CINH>>+<IFE N-1,<SAC2>>
  4449	035351	046163	046166			XWD [XWD ADFMPL,ARSWAP+FMP0],[ARADEN+BRAREN+FMP1]
  4450	035352	000060	000545			XWD ADARPL,FMP2
  4451			000010			N==N+1
  4452
  4453
  4454					;*FDVXX								170-177
  4455			000000			N==0
  4456						REPEAT 10,
  4457					<	XWD ET1+ADFMPL+<IFE N-5,<ET0>>,<IFE N-1,<SAC2>>+<IFN N-5,<FCE>>+FDVFD^_
  4458					+<IFN N&2,<SCE>>+<IFE N&3-2,<SACINH>>
  4459						XWD [XWD ADFMPL,ARSWAP+FMP0],[BRAREN+ARADEN+<IFE N-1,<-1>>+FDV1]
  4460						FDV2+<IFE N-1,<-FDV2+FDV2L>>
  4461						N==N+1
  4462					>
  4463						XWD ET1+ADFMPL+<IFE N-5,<ET0>>,<IFE N-1,<SAC2>>+<IFN N-5,<FCE>>+FDVFD+<IFN N&2,<SCE
  4464	035353	006002	016001		>>+<IFE N&3-2,<SACINH>>
  4465	035354	046163	046167			XWD [XWD ADFMPL,ARSWAP+FMP0],[BRAREN+ARADEN+<IFE N-1,<-1>>+FDV1]
  4466	035355	000000	000503			FDV2+<IFE N-1,<-FDV2+FDV2L>>
  4467			000001			N==N+1
  4468
  4469						XWD ET1+ADFMPL+<IFE N-5,<ET0>>,<IFE N-1,<SAC2>>+<IFN N-5,<FCE>>+FDVFD+<IFN N&2,<SCE
  4470	035356	006002	016201		>>+<IFE N&3-2,<SACINH>>
  4471	035357	046163	046170			XWD [XWD ADFMPL,ARSWAP+FMP0],[BRAREN+ARADEN+<IFE N-1,<-1>>+FDV1]
  4472	035360	000000	000476			FDV2+<IFE N-1,<-FDV2+FDV2L>>
  4473			000002			N==N+1
  4474
  4475						XWD ET1+ADFMPL+<IFE N-5,<ET0>>,<IFE N-1,<SAC2>>+<IFN N-5,<FCE>>+FDVFD+<IFN N&2,<SCE
  4476	035361	006002	016051		>>+<IFE N&3-2,<SACINH>>
  4477	035362	046163	046167			XWD [XWD ADFMPL,ARSWAP+FMP0],[BRAREN+ARADEN+<IFE N-1,<-1>>+FDV1]
  4478	035363	000000	000503			FDV2+<IFE N-1,<-FDV2+FDV2L>>
  4479			000003			N==N+1
  4480
  4481						XWD ET1+ADFMPL+<IFE N-5,<ET0>>,<IFE N-1,<SAC2>>+<IFN N-5,<FCE>>+FDVFD+<IFN N&2,<SCE
  4482	035364	006002	016011		>>+<IFE N&3-2,<SACINH>>
  4483	035365	046163	046167			XWD [XWD ADFMPL,ARSWAP+FMP0],[BRAREN+ARADEN+<IFE N-1,<-1>>+FDV1]
  4484	035366	000000	000503			FDV2+<IFE N-1,<-FDV2+FDV2L>>
  4485			000004			N==N+1
  4486
  4487						XWD ET1+ADFMPL+<IFE N-5,<ET0>>,<IFE N-1,<SAC2>>+<IFN N-5,<FCE>>+FDVFD+<IFN N&2,<SCE
  4488	035367	006002	016001		>>+<IFE N&3-2,<SACINH>>
  4489	035370	046163	046167			XWD [XWD ADFMPL,ARSWAP+FMP0],[BRAREN+ARADEN+<IFE N-1,<-1>>+FDV1]
  4490	035371	000000	000503			FDV2+<IFE N-1,<-FDV2+FDV2L>>
  4491			000005			N==N+1
  4492
  4493						XWD ET1+ADFMPL+<IFE N-5,<ET0>>,<IFE N-1,<SAC2>>+<IFN N-5,<FCE>>+FDVFD+<IFN N&2,<SCE
  4494	035372	006003	016000		>>+<IFE N&3-2,<SACINH>>
  4495	035373	046163	046167			XWD [XWD ADFMPL,ARSWAP+FMP0],[BRAREN+ARADEN+<IFE N-1,<-1>>+FDV1]
DBKDA	DECSYSTEM10 KI10 ARITHMETIC RELIABILITY TEST, VER 0,3	MACRO %51(414) 14:29  9-JUN-76 PAGE 11-4
KI10A1	MAC	 9-JUN-76 13:52		DISPATCH TABLE FOR INSTRUCTIONS		140-177                                *** SEQ 0153

  4496	035374	000000	000503			FDV2+<IFE N-1,<-FDV2+FDV2L>>
  4497			000006			N==N+1
  4498
  4499						XWD ET1+ADFMPL+<IFE N-5,<ET0>>,<IFE N-1,<SAC2>>+<IFN N-5,<FCE>>+FDVFD+<IFN N&2,<SCE
  4500	035375	006002	016051		>>+<IFE N&3-2,<SACINH>>
  4501	035376	046163	046167			XWD [XWD ADFMPL,ARSWAP+FMP0],[BRAREN+ARADEN+<IFE N-1,<-1>>+FDV1]
  4502	035377	000000	000503			FDV2+<IFE N-1,<-FDV2+FDV2L>>
  4503			000007			N==N+1
  4504
  4505						XWD ET1+ADFMPL+<IFE N-5,<ET0>>,<IFE N-1,<SAC2>>+<IFN N-5,<FCE>>+FDVFD+<IFN N&2,<SCE
  4506	035400	006002	016011		>>+<IFE N&3-2,<SACINH>>
  4507	035401	046163	046167			XWD [XWD ADFMPL,ARSWAP+FMP0],[BRAREN+ARADEN+<IFE N-1,<-1>>+FDV1]
  4508	035402	000000	000503			FDV2+<IFE N-1,<-FDV2+FDV2L>>
  4509			000010			N==N+1
  4510
DBKDA	DECSYSTEM10 KI10 ARITHMETIC RELIABILITY TEST, VER 0,3	MACRO %51(414) 14:29  9-JUN-76 PAGE 12
KI10A1	MAC	 9-JUN-76 13:52		DISPATCH TABLE FOR INSTRUCTIONS		200-237                                *** SEQ 0154

  4511					SUBTTL	DISPATCH TABLE FOR INSTRUCTIONS		200-237
  4512
  4513					;*MOVES, ALIAS FWT						200-217
  4514			000000			N=0
  4515						REPEAT 20,
  4516					<	XWD <IFE N&3-2,<ET0>>+^_
  4517					<IFN N&10,<IFN N&3-2,<ADCR36+ADARMI+ADADD+^_
  4518					ADFMMI>>>+ADFMPL,<IFE N&3,<FCE>>+<IFE N&3-3,<FCEPSE+SAIAC0>>^_
  4519					+<IFE N&3-2,<SCE+SACINH>>
  4520						XWD [XWD <IFN N&10,<ADADD+ADMAGIC+ADCR36+ADARMI>>,ARADEN],0
  4521						<IFE N&14-4,<ARSWAP>>+<IFE N&14-10,<ARADEN+ADSUB>>+<IFE N&14-14,<FWT>>
  4522						N=N+1
  4523					>
  4524						XWD <IFE N&3-2,<ET0>>+<IFN N&10,<IFN N&3-2,<ADCR36+ADARMI+ADADD+ADFMMI>>>+ADFMPL,<I
  4525	035403	006000	000001		FE N&3,<FCE>>+<IFE N&3-3,<FCEPSE+SAIAC0>>+<IFE N&3-2,<SCE+SACINH>>
  4526	035404	046171	000000			XWD [XWD <IFN N&10,<ADADD+ADMAGIC+ADCR36+ADARMI>>,ARADEN],0
  4527	035405	000000	000000			<IFE N&14-4,<ARSWAP>>+<IFE N&14-10,<ARADEN+ADSUB>>+<IFE N&14-14,<FWT>>
  4528			000001			N=N+1
  4529
  4530						XWD <IFE N&3-2,<ET0>>+<IFN N&10,<IFN N&3-2,<ADCR36+ADARMI+ADADD+ADFMMI>>>+ADFMPL,<I
  4531	035406	006000	000000		FE N&3,<FCE>>+<IFE N&3-3,<FCEPSE+SAIAC0>>+<IFE N&3-2,<SCE+SACINH>>
  4532	035407	046171	000000			XWD [XWD <IFN N&10,<ADADD+ADMAGIC+ADCR36+ADARMI>>,ARADEN],0
  4533	035410	000000	000000			<IFE N&14-4,<ARSWAP>>+<IFE N&14-10,<ARADEN+ADSUB>>+<IFE N&14-14,<FWT>>
  4534			000002			N=N+1
  4535
  4536						XWD <IFE N&3-2,<ET0>>+<IFN N&10,<IFN N&3-2,<ADCR36+ADARMI+ADADD+ADFMMI>>>+ADFMPL,<I
  4537	035411	006001	000050		FE N&3,<FCE>>+<IFE N&3-3,<FCEPSE+SAIAC0>>+<IFE N&3-2,<SCE+SACINH>>
  4538	035412	046171	000000			XWD [XWD <IFN N&10,<ADADD+ADMAGIC+ADCR36+ADARMI>>,ARADEN],0
  4539	035413	000000	000000			<IFE N&14-4,<ARSWAP>>+<IFE N&14-10,<ARADEN+ADSUB>>+<IFE N&14-14,<FWT>>
  4540			000003			N=N+1
  4541
  4542						XWD <IFE N&3-2,<ET0>>+<IFN N&10,<IFN N&3-2,<ADCR36+ADARMI+ADADD+ADFMMI>>>+ADFMPL,<I
  4543	035414	006000	000143		FE N&3,<FCE>>+<IFE N&3-3,<FCEPSE+SAIAC0>>+<IFE N&3-2,<SCE+SACINH>>
  4544	035415	046171	000000			XWD [XWD <IFN N&10,<ADADD+ADMAGIC+ADCR36+ADARMI>>,ARADEN],0
  4545	035416	000000	000000			<IFE N&14-4,<ARSWAP>>+<IFE N&14-10,<ARADEN+ADSUB>>+<IFE N&14-14,<FWT>>
  4546			000004			N=N+1
  4547
  4548						XWD <IFE N&3-2,<ET0>>+<IFN N&10,<IFN N&3-2,<ADCR36+ADARMI+ADADD+ADFMMI>>>+ADFMPL,<I
  4549	035417	006000	000001		FE N&3,<FCE>>+<IFE N&3-3,<FCEPSE+SAIAC0>>+<IFE N&3-2,<SCE+SACINH>>
  4550	035420	046171	000000			XWD [XWD <IFN N&10,<ADADD+ADMAGIC+ADCR36+ADARMI>>,ARADEN],0
  4551	035421	000000	030000			<IFE N&14-4,<ARSWAP>>+<IFE N&14-10,<ARADEN+ADSUB>>+<IFE N&14-14,<FWT>>
  4552			000005			N=N+1
  4553
  4554						XWD <IFE N&3-2,<ET0>>+<IFN N&10,<IFN N&3-2,<ADCR36+ADARMI+ADADD+ADFMMI>>>+ADFMPL,<I
  4555	035422	006000	000000		FE N&3,<FCE>>+<IFE N&3-3,<FCEPSE+SAIAC0>>+<IFE N&3-2,<SCE+SACINH>>
  4556	035423	046171	000000			XWD [XWD <IFN N&10,<ADADD+ADMAGIC+ADCR36+ADARMI>>,ARADEN],0
  4557	035424	000000	030000			<IFE N&14-4,<ARSWAP>>+<IFE N&14-10,<ARADEN+ADSUB>>+<IFE N&14-14,<FWT>>
  4558			000006			N=N+1
  4559
  4560						XWD <IFE N&3-2,<ET0>>+<IFN N&10,<IFN N&3-2,<ADCR36+ADARMI+ADADD+ADFMMI>>>+ADFMPL,<I
  4561	035425	006001	000050		FE N&3,<FCE>>+<IFE N&3-3,<FCEPSE+SAIAC0>>+<IFE N&3-2,<SCE+SACINH>>
  4562	035426	046171	000000			XWD [XWD <IFN N&10,<ADADD+ADMAGIC+ADCR36+ADARMI>>,ARADEN],0
  4563	035427	000000	030000			<IFE N&14-4,<ARSWAP>>+<IFE N&14-10,<ARADEN+ADSUB>>+<IFE N&14-14,<FWT>>
  4564			000007			N=N+1
  4565
DBKDA	DECSYSTEM10 KI10 ARITHMETIC RELIABILITY TEST, VER 0,3	MACRO %51(414) 14:29  9-JUN-76 PAGE 12-1
KI10A1	MAC	 9-JUN-76 13:52		DISPATCH TABLE FOR INSTRUCTIONS		200-237                                *** SEQ 0155

  4566						XWD <IFE N&3-2,<ET0>>+<IFN N&10,<IFN N&3-2,<ADCR36+ADARMI+ADADD+ADFMMI>>>+ADFMPL,<I
  4567	035430	006000	000143		FE N&3,<FCE>>+<IFE N&3-3,<FCEPSE+SAIAC0>>+<IFE N&3-2,<SCE+SACINH>>
  4568	035431	046171	000000			XWD [XWD <IFN N&10,<ADADD+ADMAGIC+ADCR36+ADARMI>>,ARADEN],0
  4569	035432	000000	030000			<IFE N&14-4,<ARSWAP>>+<IFE N&14-10,<ARADEN+ADSUB>>+<IFE N&14-14,<FWT>>
  4570			000010			N=N+1
  4571
  4572						XWD <IFE N&3-2,<ET0>>+<IFN N&10,<IFN N&3-2,<ADCR36+ADARMI+ADADD+ADFMMI>>>+ADFMPL,<I
  4573	035433	076100	000001		FE N&3,<FCE>>+<IFE N&3-3,<FCEPSE+SAIAC0>>+<IFE N&3-2,<SCE+SACINH>>
  4574	035434	046172	000000			XWD [XWD <IFN N&10,<ADADD+ADMAGIC+ADCR36+ADARMI>>,ARADEN],0
  4575	035435	000000	006011			<IFE N&14-4,<ARSWAP>>+<IFE N&14-10,<ARADEN+ADSUB>>+<IFE N&14-14,<FWT>>
  4576			000011			N=N+1
  4577
  4578						XWD <IFE N&3-2,<ET0>>+<IFN N&10,<IFN N&3-2,<ADCR36+ADARMI+ADADD+ADFMMI>>>+ADFMPL,<I
  4579	035436	076100	000000		FE N&3,<FCE>>+<IFE N&3-3,<FCEPSE+SAIAC0>>+<IFE N&3-2,<SCE+SACINH>>
  4580	035437	046172	000000			XWD [XWD <IFN N&10,<ADADD+ADMAGIC+ADCR36+ADARMI>>,ARADEN],0
  4581	035440	000000	006011			<IFE N&14-4,<ARSWAP>>+<IFE N&14-10,<ARADEN+ADSUB>>+<IFE N&14-14,<FWT>>
  4582			000012			N=N+1
  4583
  4584						XWD <IFE N&3-2,<ET0>>+<IFN N&10,<IFN N&3-2,<ADCR36+ADARMI+ADADD+ADFMMI>>>+ADFMPL,<I
  4585	035441	006001	000050		FE N&3,<FCE>>+<IFE N&3-3,<FCEPSE+SAIAC0>>+<IFE N&3-2,<SCE+SACINH>>
  4586	035442	046172	000000			XWD [XWD <IFN N&10,<ADADD+ADMAGIC+ADCR36+ADARMI>>,ARADEN],0
  4587	035443	000000	006011			<IFE N&14-4,<ARSWAP>>+<IFE N&14-10,<ARADEN+ADSUB>>+<IFE N&14-14,<FWT>>
  4588			000013			N=N+1
  4589
  4590						XWD <IFE N&3-2,<ET0>>+<IFN N&10,<IFN N&3-2,<ADCR36+ADARMI+ADADD+ADFMMI>>>+ADFMPL,<I
  4591	035444	076100	000143		FE N&3,<FCE>>+<IFE N&3-3,<FCEPSE+SAIAC0>>+<IFE N&3-2,<SCE+SACINH>>
  4592	035445	046172	000000			XWD [XWD <IFN N&10,<ADADD+ADMAGIC+ADCR36+ADARMI>>,ARADEN],0
  4593	035446	000000	006011			<IFE N&14-4,<ARSWAP>>+<IFE N&14-10,<ARADEN+ADSUB>>+<IFE N&14-14,<FWT>>
  4594			000014			N=N+1
  4595
  4596						XWD <IFE N&3-2,<ET0>>+<IFN N&10,<IFN N&3-2,<ADCR36+ADARMI+ADADD+ADFMMI>>>+ADFMPL,<I
  4597	035447	076100	000001		FE N&3,<FCE>>+<IFE N&3-3,<FCEPSE+SAIAC0>>+<IFE N&3-2,<SCE+SACINH>>
  4598	035450	046172	000000			XWD [XWD <IFN N&10,<ADADD+ADMAGIC+ADCR36+ADARMI>>,ARADEN],0
  4599	035451	000000	000007			<IFE N&14-4,<ARSWAP>>+<IFE N&14-10,<ARADEN+ADSUB>>+<IFE N&14-14,<FWT>>
  4600			000015			N=N+1
  4601
  4602						XWD <IFE N&3-2,<ET0>>+<IFN N&10,<IFN N&3-2,<ADCR36+ADARMI+ADADD+ADFMMI>>>+ADFMPL,<I
  4603	035452	076100	000000		FE N&3,<FCE>>+<IFE N&3-3,<FCEPSE+SAIAC0>>+<IFE N&3-2,<SCE+SACINH>>
  4604	035453	046172	000000			XWD [XWD <IFN N&10,<ADADD+ADMAGIC+ADCR36+ADARMI>>,ARADEN],0
  4605	035454	000000	000007			<IFE N&14-4,<ARSWAP>>+<IFE N&14-10,<ARADEN+ADSUB>>+<IFE N&14-14,<FWT>>
  4606			000016			N=N+1
  4607
  4608						XWD <IFE N&3-2,<ET0>>+<IFN N&10,<IFN N&3-2,<ADCR36+ADARMI+ADADD+ADFMMI>>>+ADFMPL,<I
  4609	035455	006001	000050		FE N&3,<FCE>>+<IFE N&3-3,<FCEPSE+SAIAC0>>+<IFE N&3-2,<SCE+SACINH>>
  4610	035456	046172	000000			XWD [XWD <IFN N&10,<ADADD+ADMAGIC+ADCR36+ADARMI>>,ARADEN],0
  4611	035457	000000	000007			<IFE N&14-4,<ARSWAP>>+<IFE N&14-10,<ARADEN+ADSUB>>+<IFE N&14-14,<FWT>>
  4612			000017			N=N+1
  4613
  4614						XWD <IFE N&3-2,<ET0>>+<IFN N&10,<IFN N&3-2,<ADCR36+ADARMI+ADADD+ADFMMI>>>+ADFMPL,<I
  4615	035460	076100	000143		FE N&3,<FCE>>+<IFE N&3-3,<FCEPSE+SAIAC0>>+<IFE N&3-2,<SCE+SACINH>>
  4616	035461	046172	000000			XWD [XWD <IFN N&10,<ADADD+ADMAGIC+ADCR36+ADARMI>>,ARADEN],0
  4617	035462	000000	000007			<IFE N&14-4,<ARSWAP>>+<IFE N&14-10,<ARADEN+ADSUB>>+<IFE N&14-14,<FWT>>
  4618			000020			N=N+1
  4619
  4620
DBKDA	DECSYSTEM10 KI10 ARITHMETIC RELIABILITY TEST, VER 0,3	MACRO %51(414) 14:29  9-JUN-76 PAGE 12-2
KI10A1	MAC	 9-JUN-76 13:52		DISPATCH TABLE FOR INSTRUCTIONS		200-237                                *** SEQ 0156

  4621					DEFINE SWCHES
  4622						<XWD ET0+ET1+ADFMPL,<IFN N&3-1,<FCE>>+<IFN N&2,<SCE>>^_
  4623					+<IFE N&3-2,<SACINH>>+<IFN N&4,<IFN N&3-2,<SAC2>>>>
  4624
  4625					;*MULTIPLIES							220-227
  4626			000000			N=0
  4627						REPEAT 10,
  4628					<	SWCHES+LNGCYC+MULFD
  4629						XWD [BRAREN+MUL0],[<IFE N&4,<IMUL1>>+<IFN N&4,<MUL1>>]
  4630						<IFE N&4,<IMUL2>>+<IFN N&4,<MUL2>>
  4631						N=N+1
  4632					>
  4633						SWCHES^XWD ET0+ET1+ADFMPL,<IFN N&3-1,<FCE>>+<IFN N&2,<SCE>>+<IFE N&3-2,<SACINH>>+<I
  4634	035463	006003	041001		FN N&4,<IFN N&3-2,<SAC2>>>^+LNGCYC+MULFD
  4635	035464	046173	046174			XWD [BRAREN+MUL0],[<IFE N&4,<IMUL1>>+<IFN N&4,<MUL1>>]
  4636	035465	000000	000151			<IFE N&4,<IMUL2>>+<IFN N&4,<MUL2>>
  4637			000001			N=N+1
  4638
  4639						SWCHES^XWD ET0+ET1+ADFMPL,<IFN N&3-1,<FCE>>+<IFN N&2,<SCE>>+<IFE N&3-2,<SACINH>>+<I
  4640	035466	006003	041000		FN N&4,<IFN N&3-2,<SAC2>>>^+LNGCYC+MULFD
  4641	035467	046173	046174			XWD [BRAREN+MUL0],[<IFE N&4,<IMUL1>>+<IFN N&4,<MUL1>>]
  4642	035470	000000	000151			<IFE N&4,<IMUL2>>+<IFN N&4,<MUL2>>
  4643			000002			N=N+1
  4644
  4645						SWCHES^XWD ET0+ET1+ADFMPL,<IFN N&3-1,<FCE>>+<IFN N&2,<SCE>>+<IFE N&3-2,<SACINH>>+<I
  4646	035471	006003	041051		FN N&4,<IFN N&3-2,<SAC2>>>^+LNGCYC+MULFD
  4647	035472	046173	046174			XWD [BRAREN+MUL0],[<IFE N&4,<IMUL1>>+<IFN N&4,<MUL1>>]
  4648	035473	000000	000151			<IFE N&4,<IMUL2>>+<IFN N&4,<MUL2>>
  4649			000003			N=N+1
  4650
  4651						SWCHES^XWD ET0+ET1+ADFMPL,<IFN N&3-1,<FCE>>+<IFN N&2,<SCE>>+<IFE N&3-2,<SACINH>>+<I
  4652	035474	006003	041011		FN N&4,<IFN N&3-2,<SAC2>>>^+LNGCYC+MULFD
  4653	035475	046173	046174			XWD [BRAREN+MUL0],[<IFE N&4,<IMUL1>>+<IFN N&4,<MUL1>>]
  4654	035476	000000	000151			<IFE N&4,<IMUL2>>+<IFN N&4,<MUL2>>
  4655			000004			N=N+1
  4656
  4657						SWCHES^XWD ET0+ET1+ADFMPL,<IFN N&3-1,<FCE>>+<IFN N&2,<SCE>>+<IFE N&3-2,<SACINH>>+<I
  4658	035477	006003	041201		FN N&4,<IFN N&3-2,<SAC2>>>^+LNGCYC+MULFD
  4659	035500	046173	046175			XWD [BRAREN+MUL0],[<IFE N&4,<IMUL1>>+<IFN N&4,<MUL1>>]
  4660	035501	000000	000153			<IFE N&4,<IMUL2>>+<IFN N&4,<MUL2>>
  4661			000005			N=N+1
  4662
  4663						SWCHES^XWD ET0+ET1+ADFMPL,<IFN N&3-1,<FCE>>+<IFN N&2,<SCE>>+<IFE N&3-2,<SACINH>>+<I
  4664	035502	006003	041200		FN N&4,<IFN N&3-2,<SAC2>>>^+LNGCYC+MULFD
  4665	035503	046173	046175			XWD [BRAREN+MUL0],[<IFE N&4,<IMUL1>>+<IFN N&4,<MUL1>>]
  4666	035504	000000	000153			<IFE N&4,<IMUL2>>+<IFN N&4,<MUL2>>
  4667			000006			N=N+1
  4668
  4669						SWCHES^XWD ET0+ET1+ADFMPL,<IFN N&3-1,<FCE>>+<IFN N&2,<SCE>>+<IFE N&3-2,<SACINH>>+<I
  4670	035505	006003	041051		FN N&4,<IFN N&3-2,<SAC2>>>^+LNGCYC+MULFD
  4671	035506	046173	046175			XWD [BRAREN+MUL0],[<IFE N&4,<IMUL1>>+<IFN N&4,<MUL1>>]
  4672	035507	000000	000153			<IFE N&4,<IMUL2>>+<IFN N&4,<MUL2>>
  4673			000007			N=N+1
  4674
  4675						SWCHES^XWD ET0+ET1+ADFMPL,<IFN N&3-1,<FCE>>+<IFN N&2,<SCE>>+<IFE N&3-2,<SACINH>>+<I
DBKDA	DECSYSTEM10 KI10 ARITHMETIC RELIABILITY TEST, VER 0,3	MACRO %51(414) 14:29  9-JUN-76 PAGE 12-3
KI10A1	MAC	 9-JUN-76 13:52		DISPATCH TABLE FOR INSTRUCTIONS		200-237                                *** SEQ 0157

  4676	035510	006003	041211		FN N&4,<IFN N&3-2,<SAC2>>>^+LNGCYC+MULFD
  4677	035511	046173	046175			XWD [BRAREN+MUL0],[<IFE N&4,<IMUL1>>+<IFN N&4,<MUL1>>]
  4678	035512	000000	000153			<IFE N&4,<IMUL2>>+<IFN N&4,<MUL2>>
  4679			000010			N=N+1
  4680
  4681
  4682					;*DIVIDES							230-237
  4683			000000			N=0
  4684						REPEAT 10,
  4685					<	SWCHES!<IFN N&3-2,<SAC2>>+DIVFD
  4686						XWD [BRAREN+<IFN N&4,<ARADEN+DIV0>>+<IFE N&4,<ARADEN+IDIV0>>]^_
  4687					,[<IFN N&4,<DIV1>>+<IFE N&4,<IDIV1>>]
  4688						XWD ADARPL+ADADD,<IFN N&4,<DIV2>>+<IFE N&4,<IDIV2>>
  4689						N=N+1
  4690					>
  4691						SWCHES^XWD ET0+ET1+ADFMPL,<IFN N&3-1,<FCE>>+<IFN N&2,<SCE>>+<IFE N&3-2,<SACINH>>+<I
  4692	035513	006003	002201		FN N&4,<IFN N&3-2,<SAC2>>>^!<IFN N&3-2,<SAC2>>+DIVFD
  4693						XWD [BRAREN+<IFN N&4,<ARADEN+DIV0>>+<IFE N&4,<ARADEN+IDIV0>>],[<IFN N&4,<DIV1>>+<IF
  4694	035514	046176	046177		E N&4,<IDIV1>>]
  4695	035515	040060	000241			XWD ADARPL+ADADD,<IFN N&4,<DIV2>>+<IFE N&4,<IDIV2>>
  4696			000001			N=N+1
  4697
  4698						SWCHES^XWD ET0+ET1+ADFMPL,<IFN N&3-1,<FCE>>+<IFN N&2,<SCE>>+<IFE N&3-2,<SACINH>>+<I
  4699	035516	006003	002200		FN N&4,<IFN N&3-2,<SAC2>>>^!<IFN N&3-2,<SAC2>>+DIVFD
  4700						XWD [BRAREN+<IFN N&4,<ARADEN+DIV0>>+<IFE N&4,<ARADEN+IDIV0>>],[<IFN N&4,<DIV1>>+<IF
  4701	035517	046176	046177		E N&4,<IDIV1>>]
  4702	035520	040060	000241			XWD ADARPL+ADADD,<IFN N&4,<DIV2>>+<IFE N&4,<IDIV2>>
  4703			000002			N=N+1
  4704
  4705						SWCHES^XWD ET0+ET1+ADFMPL,<IFN N&3-1,<FCE>>+<IFN N&2,<SCE>>+<IFE N&3-2,<SACINH>>+<I
  4706	035521	006003	002051		FN N&4,<IFN N&3-2,<SAC2>>>^!<IFN N&3-2,<SAC2>>+DIVFD
  4707						XWD [BRAREN+<IFN N&4,<ARADEN+DIV0>>+<IFE N&4,<ARADEN+IDIV0>>],[<IFN N&4,<DIV1>>+<IF
  4708	035522	046176	046177		E N&4,<IDIV1>>]
  4709	035523	040060	000241			XWD ADARPL+ADADD,<IFN N&4,<DIV2>>+<IFE N&4,<IDIV2>>
  4710			000003			N=N+1
  4711
  4712						SWCHES^XWD ET0+ET1+ADFMPL,<IFN N&3-1,<FCE>>+<IFN N&2,<SCE>>+<IFE N&3-2,<SACINH>>+<I
  4713	035524	006003	002211		FN N&4,<IFN N&3-2,<SAC2>>>^!<IFN N&3-2,<SAC2>>+DIVFD
  4714						XWD [BRAREN+<IFN N&4,<ARADEN+DIV0>>+<IFE N&4,<ARADEN+IDIV0>>],[<IFN N&4,<DIV1>>+<IF
  4715	035525	046176	046177		E N&4,<IDIV1>>]
  4716	035526	040060	000241			XWD ADARPL+ADADD,<IFN N&4,<DIV2>>+<IFE N&4,<IDIV2>>
  4717			000004			N=N+1
  4718
  4719						SWCHES^XWD ET0+ET1+ADFMPL,<IFN N&3-1,<FCE>>+<IFN N&2,<SCE>>+<IFE N&3-2,<SACINH>>+<I
  4720	035527	006003	002201		FN N&4,<IFN N&3-2,<SAC2>>>^!<IFN N&3-2,<SAC2>>+DIVFD
  4721						XWD [BRAREN+<IFN N&4,<ARADEN+DIV0>>+<IFE N&4,<ARADEN+IDIV0>>],[<IFN N&4,<DIV1>>+<IF
  4722	035530	046200	046201		E N&4,<IDIV1>>]
  4723	035531	040060	000232			XWD ADARPL+ADADD,<IFN N&4,<DIV2>>+<IFE N&4,<IDIV2>>
  4724			000005			N=N+1
  4725
  4726						SWCHES^XWD ET0+ET1+ADFMPL,<IFN N&3-1,<FCE>>+<IFN N&2,<SCE>>+<IFE N&3-2,<SACINH>>+<I
  4727	035532	006003	002200		FN N&4,<IFN N&3-2,<SAC2>>>^!<IFN N&3-2,<SAC2>>+DIVFD
  4728						XWD [BRAREN+<IFN N&4,<ARADEN+DIV0>>+<IFE N&4,<ARADEN+IDIV0>>],[<IFN N&4,<DIV1>>+<IF
  4729	035533	046200	046201		E N&4,<IDIV1>>]
  4730	035534	040060	000232			XWD ADARPL+ADADD,<IFN N&4,<DIV2>>+<IFE N&4,<IDIV2>>
DBKDA	DECSYSTEM10 KI10 ARITHMETIC RELIABILITY TEST, VER 0,3	MACRO %51(414) 14:29  9-JUN-76 PAGE 12-4
KI10A1	MAC	 9-JUN-76 13:52		DISPATCH TABLE FOR INSTRUCTIONS		200-237                                *** SEQ 0158

  4731			000006			N=N+1
  4732
  4733						SWCHES^XWD ET0+ET1+ADFMPL,<IFN N&3-1,<FCE>>+<IFN N&2,<SCE>>+<IFE N&3-2,<SACINH>>+<I
  4734	035535	006003	002051		FN N&4,<IFN N&3-2,<SAC2>>>^!<IFN N&3-2,<SAC2>>+DIVFD
  4735						XWD [BRAREN+<IFN N&4,<ARADEN+DIV0>>+<IFE N&4,<ARADEN+IDIV0>>],[<IFN N&4,<DIV1>>+<IF
  4736	035536	046200	046201		E N&4,<IDIV1>>]
  4737	035537	040060	000232			XWD ADARPL+ADADD,<IFN N&4,<DIV2>>+<IFE N&4,<IDIV2>>
  4738			000007			N=N+1
  4739
  4740						SWCHES^XWD ET0+ET1+ADFMPL,<IFN N&3-1,<FCE>>+<IFN N&2,<SCE>>+<IFE N&3-2,<SACINH>>+<I
  4741	035540	006003	002211		FN N&4,<IFN N&3-2,<SAC2>>>^!<IFN N&3-2,<SAC2>>+DIVFD
  4742						XWD [BRAREN+<IFN N&4,<ARADEN+DIV0>>+<IFE N&4,<ARADEN+IDIV0>>],[<IFN N&4,<DIV1>>+<IF
  4743	035541	046200	046201		E N&4,<IDIV1>>]
  4744	035542	040060	000232			XWD ADARPL+ADADD,<IFN N&4,<DIV2>>+<IFE N&4,<IDIV2>>
  4745			000010			N=N+1
  4746
  4747
DBKDA	DECSYSTEM10 KI10 ARITHMETIC RELIABILITY TEST, VER 0,3	MACRO %51(414) 14:29  9-JUN-76 PAGE 13
KI10A1	MAC	 9-JUN-76 13:52		DISPATCH TABLE FOR INSTRUCTIONS		240-247                                *** SEQ 0159

  4748					SUBTTL	DISPATCH TABLE FOR INSTRUCTIONS		240-247
  4749
  4750					;*ASH, ROT, LSH							240-241-242
  4751		006003	003000			A0==<ADFMPL+ET0+ET1>B17+SRINST
  4752
  4753						REPEAT 3,
  4754					<	A0
  4755						XWD [ARADEN+BRAREN+SSHFT0],[SHFT1]
  4756						SSHFT2
  4757					>
  4758	035543	006003	003000			A0
  4759	035544	046202	046203			XWD [ARADEN+BRAREN+SSHFT0],[SHFT1]
  4760	035545	000000	000306			SSHFT2
  4761
  4762	035546	006003	003000			A0
  4763	035547	046202	046203			XWD [ARADEN+BRAREN+SSHFT0],[SHFT1]
  4764	035550	000000	000306			SSHFT2
  4765
  4766	035551	006003	003000			A0
  4767	035552	046202	046203			XWD [ARADEN+BRAREN+SSHFT0],[SHFT1]
  4768	035553	000000	000306			SSHFT2
  4769
  4770
  4771					;*JFFO								243
  4772	035554	006003	043400			XWD ADFMPL+ET0+ET1,PCCHNG+LNGCYC+JFFOFD
  4773	035555	046204	046205			XWD [XWD ADBRPL,ARADEN+BRAREN+JFFO0],[XWD ADARPL,ABPCEN+JFFO1]
  4774	035556	000004	000176			XWD INFTST,JFFO2
  4775
  4776					;*ASHC, ROTC, LSHC						244-245-246
  4777						REPEAT 3,
  4778					<	A0+SAC2
  4779						XWD [ARADEN+BRAREN+DSHFT0],[XWD ADFMPL,SHFT1]
  4780						DSHFT2
  4781					>
  4782	035557	006003	003200			A0+SAC2
  4783	035560	046206	046207			XWD [ARADEN+BRAREN+DSHFT0],[XWD ADFMPL,SHFT1]
  4784	035561	000000	000304			DSHFT2
  4785
  4786	035562	006003	003200			A0+SAC2
  4787	035563	046206	046207			XWD [ARADEN+BRAREN+DSHFT0],[XWD ADFMPL,SHFT1]
  4788	035564	000000	000304			DSHFT2
  4789
  4790	035565	006003	003200			A0+SAC2
  4791	035566	046206	046207			XWD [ARADEN+BRAREN+DSHFT0],[XWD ADFMPL,SHFT1]
  4792	035567	000000	000304			DSHFT2
  4793
  4794
  4795					;*UNDEFINED OP CODE						247
  4796						UUOMAC^
  4797	035570	000003	000060			XWD ET0+ET1,STORE+SACINH
  4798	035571	046146	046147			XWD [MONUUO],[XWD ADARPL,0]
  4799	035572	000000	044000			XWD 0,ARIREN+ARRTAD
  4800
DBKDA	DECSYSTEM10 KI10 ARITHMETIC RELIABILITY TEST, VER 0,3	MACRO %51(414) 14:29  9-JUN-76 PAGE 14
KI10A1	MAC	 9-JUN-76 13:52		DISPATCH TABLE FOR INSTRUCTIONS		250-257                                *** SEQ 0160

  4801					SUBTTL	DISPATCH TABLE FOR INSTRUCTIONS		250-257
  4802
  4803					;*EXCH								250
  4804	035573	006000	000103			XWD ADFMPL,FCEPSE+SACBR
  4805	035574	000000	000000			0
  4806	035575	000000	007000			BRAREN+ARADEN
  4807
  4808					;*BLT								251
  4809	035576	246103	022400			XWD ADARMI+ADFMPL+ADPL1L+ADADD+ET0+ET1,PCCHNG+BLTFD
  4810	035577	046210	046211			XWD [ARADEN+BLT0],[XWD ADADD+ADFMPL,ARRARL+BLT1]
  4811	035600	000062	015423			XWD ADARPL+PCCLK,ARPCEN+BRAREN+BLT2
  4812
  4813					;*AOBJX								252-253
  4814			000000			N=0
  4815						REPEAT 2,
  4816					<	XWD ADFMPL+ADPL1B+ADADD,PCCHNG+LNGCYC+AOBJD
  4817						0
  4818						XWD ADBRPL,BRAREN+ARADEN+AOBJX+N
  4819						N=1
  4820					>
  4821	035601	266000	064400			XWD ADFMPL+ADPL1B+ADADD,PCCHNG+LNGCYC+AOBJD
  4822	035602	000000	000000			0
  4823	035603	000600	007001			XWD ADBRPL,BRAREN+ARADEN+AOBJX+N
  4824			000001			N=1
  4825
  4826	035604	266000	064400			XWD ADFMPL+ADPL1B+ADADD,PCCHNG+LNGCYC+AOBJD
  4827	035605	000000	000000			0
  4828	035606	000600	007002			XWD ADBRPL,BRAREN+ARADEN+AOBJX+N
  4829			000001			N=1
  4830
  4831
  4832					;*JRST								254
  4833	035607	000000	031440			XWD 0,SACINH+PCCHNG+JRSTFD
  4834	035610	000000	000000			0
  4835	035611	000000	014005			ARPCEN+JRST1
  4836
  4837					;*JFCL								255
  4838	035612	000000	030440			XWD 0,SACINH+PCCHNG+JFCLFD
  4839	035613	000000	000000			0
  4840	035614	000000	000006			XWD	0,JFCL1
  4841
  4842					;*XCT								256
  4843	035615	000004	023440			XWD	INFTST,PCCHNG+SACINH+XCTFD
  4844	035616	000000	000000			0
  4845	035617	000000	000043			XCT2
  4846
  4847					;*MAP								257
  4848	035620	000000	000410			XWD	0,SCE+PCCHNG
  4849	035621	000000	000000			0
  4850	035622	000000	100664			ABPCEN+MAP2
DBKDA	DECSYSTEM10 KI10 ARITHMETIC RELIABILITY TEST, VER 0,3	MACRO %51(414) 14:29  9-JUN-76 PAGE 15
KI10A1	MAC	 9-JUN-76 13:52		DISPATCH TABLE FOR INSTRUCTIONS		260-267                                *** SEQ 0161

  4851					SUBTTL	DISPATCH TABLE FOR INSTRUCTIONS		260-267
  4852
  4853		266000	024000			A0==<ADFMPL+ADPL1B+ADADD>B17+PUSHD
  4854		266003	024120			A1==A0+<ET0+ET1>B17+SACBR+STORE
  4855			007000			A2==ARADEN+BRAREN
  4856		000600	000000			A3==<ADBRPL>B17
  4857
  4858					;*PUSHJ								260
  4859	035623	266003	024120				A1
  4860	035624	046212	046213			XWD	[A2+PUSHES],[A3+ABADEN]
  4861	035625	000002	137110			XWD	PCCLK,ABPCEN+ARFLGS+ARPCEN+BRAREN+PUSHJ1
  4862
  4863					;*PUSH								261
  4864	035626	266003	424121				A1+FCE+ABADEN
  4865	035627	046214	046215			XWD	[A2+PUSH1],[A3]
  4866	035630	000000	007111				ARADEN+BRAREN+PUSH2
  4867
  4868		446000	000004			A0==FCCACRT+<ADFMPL+ADMI1B+ADADD>B17
  4869		000600	007114			A1==BRAREN+ARADEN+POPS+<ADBRPL>B17
  4870
  4871					;*POP								262
  4872	035631	446001	000114				A0+SCE+SACBR+<ET0>B17
  4873	035632	046216	000000			XWD	[A1],0
  4874	035633	000000	007000				BRAREN+ARADEN
  4875
  4876					;*POPJ								263
  4877	035634	446000	000404				A0+PCCHNG
  4878	035635	000000	000000				0
  4879	035636	000600	407114				A1+ABADEN
  4880
  4881					;*JSR								264
  4882	035637	000000	000450				PCCHNG+SCE+SACINH
  4883	035640	000000	000000				0
  4884	035641	000002	136122			XWD 	PCCLK,ARPCEN+ARFLGS+ABPCEN+PCINCL
  4885
  4886					;*JSP								265
  4887	035642	000000	000400			XWD	0,PCCHNG
  4888	035643	000000	000000				0
  4889	035644	000600	037000			XWD	ADBRPL,ARPCEN+ARFLGS+BRAREN
  4890
  4891					;*JSA								266
  4892	035645	000061	400510			XWD	ADARPL+ET0,SACBR+SCE+PCCHNG+ABADEN
  4893	035646	046217	000000			XWD	[XWD ADFMPL+PCCLK,ARLARR+ARPCEN+ABPCEN+PCINCL],0
  4894	035647	000004	007000			XWD	INFTST,BRAREN+ARADEN
  4895
  4896					;*JRA								267
  4897	035650	000600	400406			XWD	ADBRPL,FCCACL+PCCHNG+ABADEN
  4898	035651	000000	000000			0
  4899	035652	000004	000000			XWD	INFTST,0
DBKDA	DECSYSTEM10 KI10 ARITHMETIC RELIABILITY TEST, VER 0,3	MACRO %51(414) 14:29  9-JUN-76 PAGE 16
KI10A1	MAC	 9-JUN-76 13:52		DISPATCH TABLE FOR INSTRUCTIONS		270-377                                *** SEQ 0162

  4900					SUBTTL	DISPATCH TABLE FOR INSTRUCTIONS		270-377
  4901
  4902					;*ADD-SUBTRACT							 270-277
  4903
  4904			000000			N=0
  4905						REPEAT 10,
  4906					<	XWD ADADD+ADFMPL+<IFE N&4,<ADARPL>>+<IFN N&4^_
  4907					,<ADARMI+ADCR36>>,<IFE N&3,<FCE>>+<IFN N&2,<FCEPSE>>+^_
  4908					<IFE N&3-2,<SACINH>>
  4909						0
  4910						ARADEN+ADSUB
  4911						N=N+1
  4912					>
  4913						XWD ADADD+ADFMPL+<IFE N&4,<ADARPL>>+<IFN N&4,<ADARMI+ADCR36>>,<IFE N&3,<FCE>>+<IFN
  4914	035653	046060	000001		N&2,<FCEPSE>>+<IFE N&3-2,<SACINH>>
  4915	035654	000000	000000			0
  4916	035655	000000	006011			ARADEN+ADSUB
  4917			000001			N=N+1
  4918
  4919						XWD ADADD+ADFMPL+<IFE N&4,<ADARPL>>+<IFN N&4,<ADARMI+ADCR36>>,<IFE N&3,<FCE>>+<IFN
  4920	035656	046060	000000		N&2,<FCEPSE>>+<IFE N&3-2,<SACINH>>
  4921	035657	000000	000000			0
  4922	035660	000000	006011			ARADEN+ADSUB
  4923			000002			N=N+1
  4924
  4925						XWD ADADD+ADFMPL+<IFE N&4,<ADARPL>>+<IFN N&4,<ADARMI+ADCR36>>,<IFE N&3,<FCE>>+<IFN
  4926	035661	046060	000043		N&2,<FCEPSE>>+<IFE N&3-2,<SACINH>>
  4927	035662	000000	000000			0
  4928	035663	000000	006011			ARADEN+ADSUB
  4929			000003			N=N+1
  4930
  4931						XWD ADADD+ADFMPL+<IFE N&4,<ADARPL>>+<IFN N&4,<ADARMI+ADCR36>>,<IFE N&3,<FCE>>+<IFN
  4932	035664	046060	000003		N&2,<FCEPSE>>+<IFE N&3-2,<SACINH>>
  4933	035665	000000	000000			0
  4934	035666	000000	006011			ARADEN+ADSUB
  4935			000004			N=N+1
  4936
  4937						XWD ADADD+ADFMPL+<IFE N&4,<ADARPL>>+<IFN N&4,<ADARMI+ADCR36>>,<IFE N&3,<FCE>>+<IFN
  4938	035667	066100	000001		N&2,<FCEPSE>>+<IFE N&3-2,<SACINH>>
  4939	035670	000000	000000			0
  4940	035671	000000	006011			ARADEN+ADSUB
  4941			000005			N=N+1
  4942
  4943						XWD ADADD+ADFMPL+<IFE N&4,<ADARPL>>+<IFN N&4,<ADARMI+ADCR36>>,<IFE N&3,<FCE>>+<IFN
  4944	035672	066100	000000		N&2,<FCEPSE>>+<IFE N&3-2,<SACINH>>
  4945	035673	000000	000000			0
  4946	035674	000000	006011			ARADEN+ADSUB
  4947			000006			N=N+1
  4948
  4949						XWD ADADD+ADFMPL+<IFE N&4,<ADARPL>>+<IFN N&4,<ADARMI+ADCR36>>,<IFE N&3,<FCE>>+<IFN
  4950	035675	066100	000043		N&2,<FCEPSE>>+<IFE N&3-2,<SACINH>>
  4951	035676	000000	000000			0
  4952	035677	000000	006011			ARADEN+ADSUB
  4953			000007			N=N+1
  4954
DBKDA	DECSYSTEM10 KI10 ARITHMETIC RELIABILITY TEST, VER 0,3	MACRO %51(414) 14:29  9-JUN-76 PAGE 16-1
KI10A1	MAC	 9-JUN-76 13:52		DISPATCH TABLE FOR INSTRUCTIONS		270-377                                *** SEQ 0163

  4955						XWD ADADD+ADFMPL+<IFE N&4,<ADARPL>>+<IFN N&4,<ADARMI+ADCR36>>,<IFE N&3,<FCE>>+<IFN
  4956	035700	066100	000003		N&2,<FCEPSE>>+<IFE N&3-2,<SACINH>>
  4957	035701	000000	000000			0
  4958	035702	000000	006011			ARADEN+ADSUB
  4959			000010			N=N+1
  4960
  4961
  4962					;*COMPARES, JUMPS AND SKIPS					300-377
  4963
  4964			000000			N=0
  4965						REPEAT 20,
  4966					<	XWD ADFMPL+ADARMI+ADCR36+ADADD+ET0,SKPFD+ABPCEN+SACINH+^_
  4967					PCCHNG+<IFN N&10,<FCE>>
  4968						XWD	[ADCLKINH,,0],0
  4969						XWD 0,COMP
  4970						N=N+1
  4971					>
  4972	035703	066101	103440			XWD ADFMPL+ADARMI+ADCR36+ADADD+ET0,SKPFD+ABPCEN+SACINH+PCCHNG+<IFN N&10,<FCE>>
  4973	035704	046220	000000			XWD	[ADCLKINH,,0],0
  4974	035705	000000	000022			XWD 0,COMP
  4975			000001			N=N+1
  4976
  4977	035706	066101	103440			XWD ADFMPL+ADARMI+ADCR36+ADADD+ET0,SKPFD+ABPCEN+SACINH+PCCHNG+<IFN N&10,<FCE>>
  4978	035707	046220	000000			XWD	[ADCLKINH,,0],0
  4979	035710	000000	000022			XWD 0,COMP
  4980			000002			N=N+1
  4981
  4982	035711	066101	103440			XWD ADFMPL+ADARMI+ADCR36+ADADD+ET0,SKPFD+ABPCEN+SACINH+PCCHNG+<IFN N&10,<FCE>>
  4983	035712	046220	000000			XWD	[ADCLKINH,,0],0
  4984	035713	000000	000022			XWD 0,COMP
  4985			000003			N=N+1
  4986
  4987	035714	066101	103440			XWD ADFMPL+ADARMI+ADCR36+ADADD+ET0,SKPFD+ABPCEN+SACINH+PCCHNG+<IFN N&10,<FCE>>
  4988	035715	046220	000000			XWD	[ADCLKINH,,0],0
  4989	035716	000000	000022			XWD 0,COMP
  4990			000004			N=N+1
  4991
  4992	035717	066101	103440			XWD ADFMPL+ADARMI+ADCR36+ADADD+ET0,SKPFD+ABPCEN+SACINH+PCCHNG+<IFN N&10,<FCE>>
  4993	035720	046220	000000			XWD	[ADCLKINH,,0],0
  4994	035721	000000	000022			XWD 0,COMP
  4995			000005			N=N+1
  4996
  4997	035722	066101	103440			XWD ADFMPL+ADARMI+ADCR36+ADADD+ET0,SKPFD+ABPCEN+SACINH+PCCHNG+<IFN N&10,<FCE>>
  4998	035723	046220	000000			XWD	[ADCLKINH,,0],0
  4999	035724	000000	000022			XWD 0,COMP
  5000			000006			N=N+1
  5001
  5002	035725	066101	103440			XWD ADFMPL+ADARMI+ADCR36+ADADD+ET0,SKPFD+ABPCEN+SACINH+PCCHNG+<IFN N&10,<FCE>>
  5003	035726	046220	000000			XWD	[ADCLKINH,,0],0
  5004	035727	000000	000022			XWD 0,COMP
  5005			000007			N=N+1
  5006
  5007	035730	066101	103440			XWD ADFMPL+ADARMI+ADCR36+ADADD+ET0,SKPFD+ABPCEN+SACINH+PCCHNG+<IFN N&10,<FCE>>
  5008	035731	046220	000000			XWD	[ADCLKINH,,0],0
  5009	035732	000000	000022			XWD 0,COMP
DBKDA	DECSYSTEM10 KI10 ARITHMETIC RELIABILITY TEST, VER 0,3	MACRO %51(414) 14:29  9-JUN-76 PAGE 16-2
KI10A1	MAC	 9-JUN-76 13:52		DISPATCH TABLE FOR INSTRUCTIONS		270-377                                *** SEQ 0164

  5010			000010			N=N+1
  5011
  5012	035733	066101	103441			XWD ADFMPL+ADARMI+ADCR36+ADADD+ET0,SKPFD+ABPCEN+SACINH+PCCHNG+<IFN N&10,<FCE>>
  5013	035734	046220	000000			XWD	[ADCLKINH,,0],0
  5014	035735	000000	000022			XWD 0,COMP
  5015			000011			N=N+1
  5016
  5017	035736	066101	103441			XWD ADFMPL+ADARMI+ADCR36+ADADD+ET0,SKPFD+ABPCEN+SACINH+PCCHNG+<IFN N&10,<FCE>>
  5018	035737	046220	000000			XWD	[ADCLKINH,,0],0
  5019	035740	000000	000022			XWD 0,COMP
  5020			000012			N=N+1
  5021
  5022	035741	066101	103441			XWD ADFMPL+ADARMI+ADCR36+ADADD+ET0,SKPFD+ABPCEN+SACINH+PCCHNG+<IFN N&10,<FCE>>
  5023	035742	046220	000000			XWD	[ADCLKINH,,0],0
  5024	035743	000000	000022			XWD 0,COMP
  5025			000013			N=N+1
  5026
  5027	035744	066101	103441			XWD ADFMPL+ADARMI+ADCR36+ADADD+ET0,SKPFD+ABPCEN+SACINH+PCCHNG+<IFN N&10,<FCE>>
  5028	035745	046220	000000			XWD	[ADCLKINH,,0],0
  5029	035746	000000	000022			XWD 0,COMP
  5030			000014			N=N+1
  5031
  5032	035747	066101	103441			XWD ADFMPL+ADARMI+ADCR36+ADADD+ET0,SKPFD+ABPCEN+SACINH+PCCHNG+<IFN N&10,<FCE>>
  5033	035750	046220	000000			XWD	[ADCLKINH,,0],0
  5034	035751	000000	000022			XWD 0,COMP
  5035			000015			N=N+1
  5036
  5037	035752	066101	103441			XWD ADFMPL+ADARMI+ADCR36+ADADD+ET0,SKPFD+ABPCEN+SACINH+PCCHNG+<IFN N&10,<FCE>>
  5038	035753	046220	000000			XWD	[ADCLKINH,,0],0
  5039	035754	000000	000022			XWD 0,COMP
  5040			000016			N=N+1
  5041
  5042	035755	066101	103441			XWD ADFMPL+ADARMI+ADCR36+ADADD+ET0,SKPFD+ABPCEN+SACINH+PCCHNG+<IFN N&10,<FCE>>
  5043	035756	046220	000000			XWD	[ADCLKINH,,0],0
  5044	035757	000000	000022			XWD 0,COMP
  5045			000017			N=N+1
  5046
  5047	035760	066101	103441			XWD ADFMPL+ADARMI+ADCR36+ADADD+ET0,SKPFD+ABPCEN+SACINH+PCCHNG+<IFN N&10,<FCE>>
  5048	035761	046220	000000			XWD	[ADCLKINH,,0],0
  5049	035762	000000	000022			XWD 0,COMP
  5050			000020			N=N+1
  5051
  5052
  5053						REPEAT 60,
  5054					<	<<ET0>B17>+PCCHNG+<IFN N&70-40,<SKPFD>>+<IFE N&10,<<ADFMPL>B17>>+<IFN N&10,<ABPCEN+
  5055					SAIAC0^_
  5056					+<IFE N&70-30,<FCE>>+<IFE N&50-50,<FCEPSE>>+<ADARPL>B17>>^_
  5057					+<IFN N&40,<<ADADD>B17>>+<IFE N&70-50,<<ADCR36+ADMAGIC>B17>>^_
  5058					+<IFE N&70-40,<<ADCR36>B17+AOJD>>
  5059						[ADCLKINH,,0],,0
  5060						IFN N&10,<XWD 0,ARADEN+SKIPS>
  5061						IFE N&10,<XWD ADBRPL,ARADEN+BRAREN+JUMPS>
  5062						N=N+1
  5063					>
  5064						<<ET0>B17>+PCCHNG+<IFN N&70-40,<SKPFD>>+<IFE N&10,<<ADFMPL>B17>>+<IFN N&10,<ABPCEN+
DBKDA	DECSYSTEM10 KI10 ARITHMETIC RELIABILITY TEST, VER 0,3	MACRO %51(414) 14:29  9-JUN-76 PAGE 16-3
KI10A1	MAC	 9-JUN-76 13:52		DISPATCH TABLE FOR INSTRUCTIONS		270-377                                *** SEQ 0165

  5065					SAIAC0+<IFE N&70-30,<FCE>>+<IFE N&50-50,<FCEPSE>>+<ADARPL>B17>>+<IFN N&40,<<ADADD>B17>>+<IFE
  5066	035763	006001	003400		 N&70-50,<<ADCR36+ADMAGIC>B17>>+<IFE N&70-40,<<ADCR36>B17+AOJD>>
  5067	035764	046220	000000			[ADCLKINH,,0],,0
  5068						IFN N&10,<XWD 0,ARADEN+SKIPS>
  5069	035765	000600	007054			IFE N&10,<XWD ADBRPL,ARADEN+BRAREN+JUMPS>
  5070			000021			N=N+1
  5071
  5072						<<ET0>B17>+PCCHNG+<IFN N&70-40,<SKPFD>>+<IFE N&10,<<ADFMPL>B17>>+<IFN N&10,<ABPCEN+
  5073					SAIAC0+<IFE N&70-30,<FCE>>+<IFE N&50-50,<FCEPSE>>+<ADARPL>B17>>+<IFN N&40,<<ADADD>B17>>+<IFE
  5074	035766	006001	003400		 N&70-50,<<ADCR36+ADMAGIC>B17>>+<IFE N&70-40,<<ADCR36>B17+AOJD>>
  5075	035767	046220	000000			[ADCLKINH,,0],,0
  5076						IFN N&10,<XWD 0,ARADEN+SKIPS>
  5077	035770	000600	007054			IFE N&10,<XWD ADBRPL,ARADEN+BRAREN+JUMPS>
  5078			000022			N=N+1
  5079
  5080						<<ET0>B17>+PCCHNG+<IFN N&70-40,<SKPFD>>+<IFE N&10,<<ADFMPL>B17>>+<IFN N&10,<ABPCEN+
  5081					SAIAC0+<IFE N&70-30,<FCE>>+<IFE N&50-50,<FCEPSE>>+<ADARPL>B17>>+<IFN N&40,<<ADADD>B17>>+<IFE
  5082	035771	006001	003400		 N&70-50,<<ADCR36+ADMAGIC>B17>>+<IFE N&70-40,<<ADCR36>B17+AOJD>>
  5083	035772	046220	000000			[ADCLKINH,,0],,0
  5084						IFN N&10,<XWD 0,ARADEN+SKIPS>
  5085	035773	000600	007054			IFE N&10,<XWD ADBRPL,ARADEN+BRAREN+JUMPS>
  5086			000023			N=N+1
  5087
  5088						<<ET0>B17>+PCCHNG+<IFN N&70-40,<SKPFD>>+<IFE N&10,<<ADFMPL>B17>>+<IFN N&10,<ABPCEN+
  5089					SAIAC0+<IFE N&70-30,<FCE>>+<IFE N&50-50,<FCEPSE>>+<ADARPL>B17>>+<IFN N&40,<<ADADD>B17>>+<IFE
  5090	035774	006001	003400		 N&70-50,<<ADCR36+ADMAGIC>B17>>+<IFE N&70-40,<<ADCR36>B17+AOJD>>
  5091	035775	046220	000000			[ADCLKINH,,0],,0
  5092						IFN N&10,<XWD 0,ARADEN+SKIPS>
  5093	035776	000600	007054			IFE N&10,<XWD ADBRPL,ARADEN+BRAREN+JUMPS>
  5094			000024			N=N+1
  5095
  5096						<<ET0>B17>+PCCHNG+<IFN N&70-40,<SKPFD>>+<IFE N&10,<<ADFMPL>B17>>+<IFN N&10,<ABPCEN+
  5097					SAIAC0+<IFE N&70-30,<FCE>>+<IFE N&50-50,<FCEPSE>>+<ADARPL>B17>>+<IFN N&40,<<ADADD>B17>>+<IFE
  5098	035777	006001	003400		 N&70-50,<<ADCR36+ADMAGIC>B17>>+<IFE N&70-40,<<ADCR36>B17+AOJD>>
  5099	036000	046220	000000			[ADCLKINH,,0],,0
  5100						IFN N&10,<XWD 0,ARADEN+SKIPS>
  5101	036001	000600	007054			IFE N&10,<XWD ADBRPL,ARADEN+BRAREN+JUMPS>
  5102			000025			N=N+1
  5103
  5104						<<ET0>B17>+PCCHNG+<IFN N&70-40,<SKPFD>>+<IFE N&10,<<ADFMPL>B17>>+<IFN N&10,<ABPCEN+
  5105					SAIAC0+<IFE N&70-30,<FCE>>+<IFE N&50-50,<FCEPSE>>+<ADARPL>B17>>+<IFN N&40,<<ADADD>B17>>+<IFE
  5106	036002	006001	003400		 N&70-50,<<ADCR36+ADMAGIC>B17>>+<IFE N&70-40,<<ADCR36>B17+AOJD>>
  5107	036003	046220	000000			[ADCLKINH,,0],,0
  5108						IFN N&10,<XWD 0,ARADEN+SKIPS>
  5109	036004	000600	007054			IFE N&10,<XWD ADBRPL,ARADEN+BRAREN+JUMPS>
  5110			000026			N=N+1
  5111
  5112						<<ET0>B17>+PCCHNG+<IFN N&70-40,<SKPFD>>+<IFE N&10,<<ADFMPL>B17>>+<IFN N&10,<ABPCEN+
  5113					SAIAC0+<IFE N&70-30,<FCE>>+<IFE N&50-50,<FCEPSE>>+<ADARPL>B17>>+<IFN N&40,<<ADADD>B17>>+<IFE
  5114	036005	006001	003400		 N&70-50,<<ADCR36+ADMAGIC>B17>>+<IFE N&70-40,<<ADCR36>B17+AOJD>>
  5115	036006	046220	000000			[ADCLKINH,,0],,0
  5116						IFN N&10,<XWD 0,ARADEN+SKIPS>
  5117	036007	000600	007054			IFE N&10,<XWD ADBRPL,ARADEN+BRAREN+JUMPS>
  5118			000027			N=N+1
  5119
DBKDA	DECSYSTEM10 KI10 ARITHMETIC RELIABILITY TEST, VER 0,3	MACRO %51(414) 14:29  9-JUN-76 PAGE 16-4
KI10A1	MAC	 9-JUN-76 13:52		DISPATCH TABLE FOR INSTRUCTIONS		270-377                                *** SEQ 0166

  5120						<<ET0>B17>+PCCHNG+<IFN N&70-40,<SKPFD>>+<IFE N&10,<<ADFMPL>B17>>+<IFN N&10,<ABPCEN+
  5121					SAIAC0+<IFE N&70-30,<FCE>>+<IFE N&50-50,<FCEPSE>>+<ADARPL>B17>>+<IFN N&40,<<ADADD>B17>>+<IFE
  5122	036010	006001	003400		 N&70-50,<<ADCR36+ADMAGIC>B17>>+<IFE N&70-40,<<ADCR36>B17+AOJD>>
  5123	036011	046220	000000			[ADCLKINH,,0],,0
  5124						IFN N&10,<XWD 0,ARADEN+SKIPS>
  5125	036012	000600	007054			IFE N&10,<XWD ADBRPL,ARADEN+BRAREN+JUMPS>
  5126			000030			N=N+1
  5127
  5128						<<ET0>B17>+PCCHNG+<IFN N&70-40,<SKPFD>>+<IFE N&10,<<ADFMPL>B17>>+<IFN N&10,<ABPCEN+
  5129					SAIAC0+<IFE N&70-30,<FCE>>+<IFE N&50-50,<FCEPSE>>+<ADARPL>B17>>+<IFN N&40,<<ADADD>B17>>+<IFE
  5130	036013	000061	103541		 N&70-50,<<ADCR36+ADMAGIC>B17>>+<IFE N&70-40,<<ADCR36>B17+AOJD>>
  5131	036014	046220	000000			[ADCLKINH,,0],,0
  5132	036015	000000	006031			IFN N&10,<XWD 0,ARADEN+SKIPS>
  5133						IFE N&10,<XWD ADBRPL,ARADEN+BRAREN+JUMPS>
  5134			000031			N=N+1
  5135
  5136						<<ET0>B17>+PCCHNG+<IFN N&70-40,<SKPFD>>+<IFE N&10,<<ADFMPL>B17>>+<IFN N&10,<ABPCEN+
  5137					SAIAC0+<IFE N&70-30,<FCE>>+<IFE N&50-50,<FCEPSE>>+<ADARPL>B17>>+<IFN N&40,<<ADADD>B17>>+<IFE
  5138	036016	000061	103541		 N&70-50,<<ADCR36+ADMAGIC>B17>>+<IFE N&70-40,<<ADCR36>B17+AOJD>>
  5139	036017	046220	000000			[ADCLKINH,,0],,0
  5140	036020	000000	006031			IFN N&10,<XWD 0,ARADEN+SKIPS>
  5141						IFE N&10,<XWD ADBRPL,ARADEN+BRAREN+JUMPS>
  5142			000032			N=N+1
  5143
  5144						<<ET0>B17>+PCCHNG+<IFN N&70-40,<SKPFD>>+<IFE N&10,<<ADFMPL>B17>>+<IFN N&10,<ABPCEN+
  5145					SAIAC0+<IFE N&70-30,<FCE>>+<IFE N&50-50,<FCEPSE>>+<ADARPL>B17>>+<IFN N&40,<<ADADD>B17>>+<IFE
  5146	036021	000061	103541		 N&70-50,<<ADCR36+ADMAGIC>B17>>+<IFE N&70-40,<<ADCR36>B17+AOJD>>
  5147	036022	046220	000000			[ADCLKINH,,0],,0
  5148	036023	000000	006031			IFN N&10,<XWD 0,ARADEN+SKIPS>
  5149						IFE N&10,<XWD ADBRPL,ARADEN+BRAREN+JUMPS>
  5150			000033			N=N+1
  5151
  5152						<<ET0>B17>+PCCHNG+<IFN N&70-40,<SKPFD>>+<IFE N&10,<<ADFMPL>B17>>+<IFN N&10,<ABPCEN+
  5153					SAIAC0+<IFE N&70-30,<FCE>>+<IFE N&50-50,<FCEPSE>>+<ADARPL>B17>>+<IFN N&40,<<ADADD>B17>>+<IFE
  5154	036024	000061	103541		 N&70-50,<<ADCR36+ADMAGIC>B17>>+<IFE N&70-40,<<ADCR36>B17+AOJD>>
  5155	036025	046220	000000			[ADCLKINH,,0],,0
  5156	036026	000000	006031			IFN N&10,<XWD 0,ARADEN+SKIPS>
  5157						IFE N&10,<XWD ADBRPL,ARADEN+BRAREN+JUMPS>
  5158			000034			N=N+1
  5159
  5160						<<ET0>B17>+PCCHNG+<IFN N&70-40,<SKPFD>>+<IFE N&10,<<ADFMPL>B17>>+<IFN N&10,<ABPCEN+
  5161					SAIAC0+<IFE N&70-30,<FCE>>+<IFE N&50-50,<FCEPSE>>+<ADARPL>B17>>+<IFN N&40,<<ADADD>B17>>+<IFE
  5162	036027	000061	103541		 N&70-50,<<ADCR36+ADMAGIC>B17>>+<IFE N&70-40,<<ADCR36>B17+AOJD>>
  5163	036030	046220	000000			[ADCLKINH,,0],,0
  5164	036031	000000	006031			IFN N&10,<XWD 0,ARADEN+SKIPS>
  5165						IFE N&10,<XWD ADBRPL,ARADEN+BRAREN+JUMPS>
  5166			000035			N=N+1
  5167
  5168						<<ET0>B17>+PCCHNG+<IFN N&70-40,<SKPFD>>+<IFE N&10,<<ADFMPL>B17>>+<IFN N&10,<ABPCEN+
  5169					SAIAC0+<IFE N&70-30,<FCE>>+<IFE N&50-50,<FCEPSE>>+<ADARPL>B17>>+<IFN N&40,<<ADADD>B17>>+<IFE
  5170	036032	000061	103541		 N&70-50,<<ADCR36+ADMAGIC>B17>>+<IFE N&70-40,<<ADCR36>B17+AOJD>>
  5171	036033	046220	000000			[ADCLKINH,,0],,0
  5172	036034	000000	006031			IFN N&10,<XWD 0,ARADEN+SKIPS>
  5173						IFE N&10,<XWD ADBRPL,ARADEN+BRAREN+JUMPS>
  5174			000036			N=N+1
DBKDA	DECSYSTEM10 KI10 ARITHMETIC RELIABILITY TEST, VER 0,3	MACRO %51(414) 14:29  9-JUN-76 PAGE 16-5
KI10A1	MAC	 9-JUN-76 13:52		DISPATCH TABLE FOR INSTRUCTIONS		270-377                                *** SEQ 0167

  5175
  5176						<<ET0>B17>+PCCHNG+<IFN N&70-40,<SKPFD>>+<IFE N&10,<<ADFMPL>B17>>+<IFN N&10,<ABPCEN+
  5177					SAIAC0+<IFE N&70-30,<FCE>>+<IFE N&50-50,<FCEPSE>>+<ADARPL>B17>>+<IFN N&40,<<ADADD>B17>>+<IFE
  5178	036035	000061	103541		 N&70-50,<<ADCR36+ADMAGIC>B17>>+<IFE N&70-40,<<ADCR36>B17+AOJD>>
  5179	036036	046220	000000			[ADCLKINH,,0],,0
  5180	036037	000000	006031			IFN N&10,<XWD 0,ARADEN+SKIPS>
  5181						IFE N&10,<XWD ADBRPL,ARADEN+BRAREN+JUMPS>
  5182			000037			N=N+1
  5183
  5184						<<ET0>B17>+PCCHNG+<IFN N&70-40,<SKPFD>>+<IFE N&10,<<ADFMPL>B17>>+<IFN N&10,<ABPCEN+
  5185					SAIAC0+<IFE N&70-30,<FCE>>+<IFE N&50-50,<FCEPSE>>+<ADARPL>B17>>+<IFN N&40,<<ADADD>B17>>+<IFE
  5186	036040	000061	103541		 N&70-50,<<ADCR36+ADMAGIC>B17>>+<IFE N&70-40,<<ADCR36>B17+AOJD>>
  5187	036041	046220	000000			[ADCLKINH,,0],,0
  5188	036042	000000	006031			IFN N&10,<XWD 0,ARADEN+SKIPS>
  5189						IFE N&10,<XWD ADBRPL,ARADEN+BRAREN+JUMPS>
  5190			000040			N=N+1
  5191
  5192						<<ET0>B17>+PCCHNG+<IFN N&70-40,<SKPFD>>+<IFE N&10,<<ADFMPL>B17>>+<IFN N&10,<ABPCEN+
  5193					SAIAC0+<IFE N&70-30,<FCE>>+<IFE N&50-50,<FCEPSE>>+<ADARPL>B17>>+<IFN N&40,<<ADADD>B17>>+<IFE
  5194	036043	066001	024400		 N&70-50,<<ADCR36+ADMAGIC>B17>>+<IFE N&70-40,<<ADCR36>B17+AOJD>>
  5195	036044	046220	000000			[ADCLKINH,,0],,0
  5196						IFN N&10,<XWD 0,ARADEN+SKIPS>
  5197	036045	000600	007054			IFE N&10,<XWD ADBRPL,ARADEN+BRAREN+JUMPS>
  5198			000041			N=N+1
  5199
  5200						<<ET0>B17>+PCCHNG+<IFN N&70-40,<SKPFD>>+<IFE N&10,<<ADFMPL>B17>>+<IFN N&10,<ABPCEN+
  5201					SAIAC0+<IFE N&70-30,<FCE>>+<IFE N&50-50,<FCEPSE>>+<ADARPL>B17>>+<IFN N&40,<<ADADD>B17>>+<IFE
  5202	036046	066001	024400		 N&70-50,<<ADCR36+ADMAGIC>B17>>+<IFE N&70-40,<<ADCR36>B17+AOJD>>
  5203	036047	046220	000000			[ADCLKINH,,0],,0
  5204						IFN N&10,<XWD 0,ARADEN+SKIPS>
  5205	036050	000600	007054			IFE N&10,<XWD ADBRPL,ARADEN+BRAREN+JUMPS>
  5206			000042			N=N+1
  5207
  5208						<<ET0>B17>+PCCHNG+<IFN N&70-40,<SKPFD>>+<IFE N&10,<<ADFMPL>B17>>+<IFN N&10,<ABPCEN+
  5209					SAIAC0+<IFE N&70-30,<FCE>>+<IFE N&50-50,<FCEPSE>>+<ADARPL>B17>>+<IFN N&40,<<ADADD>B17>>+<IFE
  5210	036051	066001	024400		 N&70-50,<<ADCR36+ADMAGIC>B17>>+<IFE N&70-40,<<ADCR36>B17+AOJD>>
  5211	036052	046220	000000			[ADCLKINH,,0],,0
  5212						IFN N&10,<XWD 0,ARADEN+SKIPS>
  5213	036053	000600	007054			IFE N&10,<XWD ADBRPL,ARADEN+BRAREN+JUMPS>
  5214			000043			N=N+1
  5215
  5216						<<ET0>B17>+PCCHNG+<IFN N&70-40,<SKPFD>>+<IFE N&10,<<ADFMPL>B17>>+<IFN N&10,<ABPCEN+
  5217					SAIAC0+<IFE N&70-30,<FCE>>+<IFE N&50-50,<FCEPSE>>+<ADARPL>B17>>+<IFN N&40,<<ADADD>B17>>+<IFE
  5218	036054	066001	024400		 N&70-50,<<ADCR36+ADMAGIC>B17>>+<IFE N&70-40,<<ADCR36>B17+AOJD>>
  5219	036055	046220	000000			[ADCLKINH,,0],,0
  5220						IFN N&10,<XWD 0,ARADEN+SKIPS>
  5221	036056	000600	007054			IFE N&10,<XWD ADBRPL,ARADEN+BRAREN+JUMPS>
  5222			000044			N=N+1
  5223
  5224						<<ET0>B17>+PCCHNG+<IFN N&70-40,<SKPFD>>+<IFE N&10,<<ADFMPL>B17>>+<IFN N&10,<ABPCEN+
  5225					SAIAC0+<IFE N&70-30,<FCE>>+<IFE N&50-50,<FCEPSE>>+<ADARPL>B17>>+<IFN N&40,<<ADADD>B17>>+<IFE
  5226	036057	066001	024400		 N&70-50,<<ADCR36+ADMAGIC>B17>>+<IFE N&70-40,<<ADCR36>B17+AOJD>>
  5227	036060	046220	000000			[ADCLKINH,,0],,0
  5228						IFN N&10,<XWD 0,ARADEN+SKIPS>
  5229	036061	000600	007054			IFE N&10,<XWD ADBRPL,ARADEN+BRAREN+JUMPS>
DBKDA	DECSYSTEM10 KI10 ARITHMETIC RELIABILITY TEST, VER 0,3	MACRO %51(414) 14:29  9-JUN-76 PAGE 16-6
KI10A1	MAC	 9-JUN-76 13:52		DISPATCH TABLE FOR INSTRUCTIONS		270-377                                *** SEQ 0168

  5230			000045			N=N+1
  5231
  5232						<<ET0>B17>+PCCHNG+<IFN N&70-40,<SKPFD>>+<IFE N&10,<<ADFMPL>B17>>+<IFN N&10,<ABPCEN+
  5233					SAIAC0+<IFE N&70-30,<FCE>>+<IFE N&50-50,<FCEPSE>>+<ADARPL>B17>>+<IFN N&40,<<ADADD>B17>>+<IFE
  5234	036062	066001	024400		 N&70-50,<<ADCR36+ADMAGIC>B17>>+<IFE N&70-40,<<ADCR36>B17+AOJD>>
  5235	036063	046220	000000			[ADCLKINH,,0],,0
  5236						IFN N&10,<XWD 0,ARADEN+SKIPS>
  5237	036064	000600	007054			IFE N&10,<XWD ADBRPL,ARADEN+BRAREN+JUMPS>
  5238			000046			N=N+1
  5239
  5240						<<ET0>B17>+PCCHNG+<IFN N&70-40,<SKPFD>>+<IFE N&10,<<ADFMPL>B17>>+<IFN N&10,<ABPCEN+
  5241					SAIAC0+<IFE N&70-30,<FCE>>+<IFE N&50-50,<FCEPSE>>+<ADARPL>B17>>+<IFN N&40,<<ADADD>B17>>+<IFE
  5242	036065	066001	024400		 N&70-50,<<ADCR36+ADMAGIC>B17>>+<IFE N&70-40,<<ADCR36>B17+AOJD>>
  5243	036066	046220	000000			[ADCLKINH,,0],,0
  5244						IFN N&10,<XWD 0,ARADEN+SKIPS>
  5245	036067	000600	007054			IFE N&10,<XWD ADBRPL,ARADEN+BRAREN+JUMPS>
  5246			000047			N=N+1
  5247
  5248						<<ET0>B17>+PCCHNG+<IFN N&70-40,<SKPFD>>+<IFE N&10,<<ADFMPL>B17>>+<IFN N&10,<ABPCEN+
  5249					SAIAC0+<IFE N&70-30,<FCE>>+<IFE N&50-50,<FCEPSE>>+<ADARPL>B17>>+<IFN N&40,<<ADADD>B17>>+<IFE
  5250	036070	066001	024400		 N&70-50,<<ADCR36+ADMAGIC>B17>>+<IFE N&70-40,<<ADCR36>B17+AOJD>>
  5251	036071	046220	000000			[ADCLKINH,,0],,0
  5252						IFN N&10,<XWD 0,ARADEN+SKIPS>
  5253	036072	000600	007054			IFE N&10,<XWD ADBRPL,ARADEN+BRAREN+JUMPS>
  5254			000050			N=N+1
  5255
  5256						<<ET0>B17>+PCCHNG+<IFN N&70-40,<SKPFD>>+<IFE N&10,<<ADFMPL>B17>>+<IFN N&10,<ABPCEN+
  5257					SAIAC0+<IFE N&70-30,<FCE>>+<IFE N&50-50,<FCEPSE>>+<ADARPL>B17>>+<IFN N&40,<<ADADD>B17>>+<IFE
  5258	036073	060071	103543		 N&70-50,<<ADCR36+ADMAGIC>B17>>+<IFE N&70-40,<<ADCR36>B17+AOJD>>
  5259	036074	046220	000000			[ADCLKINH,,0],,0
  5260	036075	000000	006031			IFN N&10,<XWD 0,ARADEN+SKIPS>
  5261						IFE N&10,<XWD ADBRPL,ARADEN+BRAREN+JUMPS>
  5262			000051			N=N+1
  5263
  5264						<<ET0>B17>+PCCHNG+<IFN N&70-40,<SKPFD>>+<IFE N&10,<<ADFMPL>B17>>+<IFN N&10,<ABPCEN+
  5265					SAIAC0+<IFE N&70-30,<FCE>>+<IFE N&50-50,<FCEPSE>>+<ADARPL>B17>>+<IFN N&40,<<ADADD>B17>>+<IFE
  5266	036076	060071	103543		 N&70-50,<<ADCR36+ADMAGIC>B17>>+<IFE N&70-40,<<ADCR36>B17+AOJD>>
  5267	036077	046220	000000			[ADCLKINH,,0],,0
  5268	036100	000000	006031			IFN N&10,<XWD 0,ARADEN+SKIPS>
  5269						IFE N&10,<XWD ADBRPL,ARADEN+BRAREN+JUMPS>
  5270			000052			N=N+1
  5271
  5272						<<ET0>B17>+PCCHNG+<IFN N&70-40,<SKPFD>>+<IFE N&10,<<ADFMPL>B17>>+<IFN N&10,<ABPCEN+
  5273					SAIAC0+<IFE N&70-30,<FCE>>+<IFE N&50-50,<FCEPSE>>+<ADARPL>B17>>+<IFN N&40,<<ADADD>B17>>+<IFE
  5274	036101	060071	103543		 N&70-50,<<ADCR36+ADMAGIC>B17>>+<IFE N&70-40,<<ADCR36>B17+AOJD>>
  5275	036102	046220	000000			[ADCLKINH,,0],,0
  5276	036103	000000	006031			IFN N&10,<XWD 0,ARADEN+SKIPS>
  5277						IFE N&10,<XWD ADBRPL,ARADEN+BRAREN+JUMPS>
  5278			000053			N=N+1
  5279
  5280						<<ET0>B17>+PCCHNG+<IFN N&70-40,<SKPFD>>+<IFE N&10,<<ADFMPL>B17>>+<IFN N&10,<ABPCEN+
  5281					SAIAC0+<IFE N&70-30,<FCE>>+<IFE N&50-50,<FCEPSE>>+<ADARPL>B17>>+<IFN N&40,<<ADADD>B17>>+<IFE
  5282	036104	060071	103543		 N&70-50,<<ADCR36+ADMAGIC>B17>>+<IFE N&70-40,<<ADCR36>B17+AOJD>>
  5283	036105	046220	000000			[ADCLKINH,,0],,0
  5284	036106	000000	006031			IFN N&10,<XWD 0,ARADEN+SKIPS>
DBKDA	DECSYSTEM10 KI10 ARITHMETIC RELIABILITY TEST, VER 0,3	MACRO %51(414) 14:29  9-JUN-76 PAGE 16-7
KI10A1	MAC	 9-JUN-76 13:52		DISPATCH TABLE FOR INSTRUCTIONS		270-377                                *** SEQ 0169

  5285						IFE N&10,<XWD ADBRPL,ARADEN+BRAREN+JUMPS>
  5286			000054			N=N+1
  5287
  5288						<<ET0>B17>+PCCHNG+<IFN N&70-40,<SKPFD>>+<IFE N&10,<<ADFMPL>B17>>+<IFN N&10,<ABPCEN+
  5289					SAIAC0+<IFE N&70-30,<FCE>>+<IFE N&50-50,<FCEPSE>>+<ADARPL>B17>>+<IFN N&40,<<ADADD>B17>>+<IFE
  5290	036107	060071	103543		 N&70-50,<<ADCR36+ADMAGIC>B17>>+<IFE N&70-40,<<ADCR36>B17+AOJD>>
  5291	036110	046220	000000			[ADCLKINH,,0],,0
  5292	036111	000000	006031			IFN N&10,<XWD 0,ARADEN+SKIPS>
  5293						IFE N&10,<XWD ADBRPL,ARADEN+BRAREN+JUMPS>
  5294			000055			N=N+1
  5295
  5296						<<ET0>B17>+PCCHNG+<IFN N&70-40,<SKPFD>>+<IFE N&10,<<ADFMPL>B17>>+<IFN N&10,<ABPCEN+
  5297					SAIAC0+<IFE N&70-30,<FCE>>+<IFE N&50-50,<FCEPSE>>+<ADARPL>B17>>+<IFN N&40,<<ADADD>B17>>+<IFE
  5298	036112	060071	103543		 N&70-50,<<ADCR36+ADMAGIC>B17>>+<IFE N&70-40,<<ADCR36>B17+AOJD>>
  5299	036113	046220	000000			[ADCLKINH,,0],,0
  5300	036114	000000	006031			IFN N&10,<XWD 0,ARADEN+SKIPS>
  5301						IFE N&10,<XWD ADBRPL,ARADEN+BRAREN+JUMPS>
  5302			000056			N=N+1
  5303
  5304						<<ET0>B17>+PCCHNG+<IFN N&70-40,<SKPFD>>+<IFE N&10,<<ADFMPL>B17>>+<IFN N&10,<ABPCEN+
  5305					SAIAC0+<IFE N&70-30,<FCE>>+<IFE N&50-50,<FCEPSE>>+<ADARPL>B17>>+<IFN N&40,<<ADADD>B17>>+<IFE
  5306	036115	060071	103543		 N&70-50,<<ADCR36+ADMAGIC>B17>>+<IFE N&70-40,<<ADCR36>B17+AOJD>>
  5307	036116	046220	000000			[ADCLKINH,,0],,0
  5308	036117	000000	006031			IFN N&10,<XWD 0,ARADEN+SKIPS>
  5309						IFE N&10,<XWD ADBRPL,ARADEN+BRAREN+JUMPS>
  5310			000057			N=N+1
  5311
  5312						<<ET0>B17>+PCCHNG+<IFN N&70-40,<SKPFD>>+<IFE N&10,<<ADFMPL>B17>>+<IFN N&10,<ABPCEN+
  5313					SAIAC0+<IFE N&70-30,<FCE>>+<IFE N&50-50,<FCEPSE>>+<ADARPL>B17>>+<IFN N&40,<<ADADD>B17>>+<IFE
  5314	036120	060071	103543		 N&70-50,<<ADCR36+ADMAGIC>B17>>+<IFE N&70-40,<<ADCR36>B17+AOJD>>
  5315	036121	046220	000000			[ADCLKINH,,0],,0
  5316	036122	000000	006031			IFN N&10,<XWD 0,ARADEN+SKIPS>
  5317						IFE N&10,<XWD ADBRPL,ARADEN+BRAREN+JUMPS>
  5318			000060			N=N+1
  5319
  5320						<<ET0>B17>+PCCHNG+<IFN N&70-40,<SKPFD>>+<IFE N&10,<<ADFMPL>B17>>+<IFN N&10,<ABPCEN+
  5321					SAIAC0+<IFE N&70-30,<FCE>>+<IFE N&50-50,<FCEPSE>>+<ADARPL>B17>>+<IFN N&40,<<ADADD>B17>>+<IFE
  5322	036123	046001	003400		 N&70-50,<<ADCR36+ADMAGIC>B17>>+<IFE N&70-40,<<ADCR36>B17+AOJD>>
  5323	036124	046220	000000			[ADCLKINH,,0],,0
  5324						IFN N&10,<XWD 0,ARADEN+SKIPS>
  5325	036125	000600	007054			IFE N&10,<XWD ADBRPL,ARADEN+BRAREN+JUMPS>
  5326			000061			N=N+1
  5327
  5328						<<ET0>B17>+PCCHNG+<IFN N&70-40,<SKPFD>>+<IFE N&10,<<ADFMPL>B17>>+<IFN N&10,<ABPCEN+
  5329					SAIAC0+<IFE N&70-30,<FCE>>+<IFE N&50-50,<FCEPSE>>+<ADARPL>B17>>+<IFN N&40,<<ADADD>B17>>+<IFE
  5330	036126	046001	003400		 N&70-50,<<ADCR36+ADMAGIC>B17>>+<IFE N&70-40,<<ADCR36>B17+AOJD>>
  5331	036127	046220	000000			[ADCLKINH,,0],,0
  5332						IFN N&10,<XWD 0,ARADEN+SKIPS>
  5333	036130	000600	007054			IFE N&10,<XWD ADBRPL,ARADEN+BRAREN+JUMPS>
  5334			000062			N=N+1
  5335
  5336						<<ET0>B17>+PCCHNG+<IFN N&70-40,<SKPFD>>+<IFE N&10,<<ADFMPL>B17>>+<IFN N&10,<ABPCEN+
  5337					SAIAC0+<IFE N&70-30,<FCE>>+<IFE N&50-50,<FCEPSE>>+<ADARPL>B17>>+<IFN N&40,<<ADADD>B17>>+<IFE
  5338	036131	046001	003400		 N&70-50,<<ADCR36+ADMAGIC>B17>>+<IFE N&70-40,<<ADCR36>B17+AOJD>>
  5339	036132	046220	000000			[ADCLKINH,,0],,0
DBKDA	DECSYSTEM10 KI10 ARITHMETIC RELIABILITY TEST, VER 0,3	MACRO %51(414) 14:29  9-JUN-76 PAGE 16-8
KI10A1	MAC	 9-JUN-76 13:52		DISPATCH TABLE FOR INSTRUCTIONS		270-377                                *** SEQ 0170

  5340						IFN N&10,<XWD 0,ARADEN+SKIPS>
  5341	036133	000600	007054			IFE N&10,<XWD ADBRPL,ARADEN+BRAREN+JUMPS>
  5342			000063			N=N+1
  5343
  5344						<<ET0>B17>+PCCHNG+<IFN N&70-40,<SKPFD>>+<IFE N&10,<<ADFMPL>B17>>+<IFN N&10,<ABPCEN+
  5345					SAIAC0+<IFE N&70-30,<FCE>>+<IFE N&50-50,<FCEPSE>>+<ADARPL>B17>>+<IFN N&40,<<ADADD>B17>>+<IFE
  5346	036134	046001	003400		 N&70-50,<<ADCR36+ADMAGIC>B17>>+<IFE N&70-40,<<ADCR36>B17+AOJD>>
  5347	036135	046220	000000			[ADCLKINH,,0],,0
  5348						IFN N&10,<XWD 0,ARADEN+SKIPS>
  5349	036136	000600	007054			IFE N&10,<XWD ADBRPL,ARADEN+BRAREN+JUMPS>
  5350			000064			N=N+1
  5351
  5352						<<ET0>B17>+PCCHNG+<IFN N&70-40,<SKPFD>>+<IFE N&10,<<ADFMPL>B17>>+<IFN N&10,<ABPCEN+
  5353					SAIAC0+<IFE N&70-30,<FCE>>+<IFE N&50-50,<FCEPSE>>+<ADARPL>B17>>+<IFN N&40,<<ADADD>B17>>+<IFE
  5354	036137	046001	003400		 N&70-50,<<ADCR36+ADMAGIC>B17>>+<IFE N&70-40,<<ADCR36>B17+AOJD>>
  5355	036140	046220	000000			[ADCLKINH,,0],,0
  5356						IFN N&10,<XWD 0,ARADEN+SKIPS>
  5357	036141	000600	007054			IFE N&10,<XWD ADBRPL,ARADEN+BRAREN+JUMPS>
  5358			000065			N=N+1
  5359
  5360						<<ET0>B17>+PCCHNG+<IFN N&70-40,<SKPFD>>+<IFE N&10,<<ADFMPL>B17>>+<IFN N&10,<ABPCEN+
  5361					SAIAC0+<IFE N&70-30,<FCE>>+<IFE N&50-50,<FCEPSE>>+<ADARPL>B17>>+<IFN N&40,<<ADADD>B17>>+<IFE
  5362	036142	046001	003400		 N&70-50,<<ADCR36+ADMAGIC>B17>>+<IFE N&70-40,<<ADCR36>B17+AOJD>>
  5363	036143	046220	000000			[ADCLKINH,,0],,0
  5364						IFN N&10,<XWD 0,ARADEN+SKIPS>
  5365	036144	000600	007054			IFE N&10,<XWD ADBRPL,ARADEN+BRAREN+JUMPS>
  5366			000066			N=N+1
  5367
  5368						<<ET0>B17>+PCCHNG+<IFN N&70-40,<SKPFD>>+<IFE N&10,<<ADFMPL>B17>>+<IFN N&10,<ABPCEN+
  5369					SAIAC0+<IFE N&70-30,<FCE>>+<IFE N&50-50,<FCEPSE>>+<ADARPL>B17>>+<IFN N&40,<<ADADD>B17>>+<IFE
  5370	036145	046001	003400		 N&70-50,<<ADCR36+ADMAGIC>B17>>+<IFE N&70-40,<<ADCR36>B17+AOJD>>
  5371	036146	046220	000000			[ADCLKINH,,0],,0
  5372						IFN N&10,<XWD 0,ARADEN+SKIPS>
  5373	036147	000600	007054			IFE N&10,<XWD ADBRPL,ARADEN+BRAREN+JUMPS>
  5374			000067			N=N+1
  5375
  5376						<<ET0>B17>+PCCHNG+<IFN N&70-40,<SKPFD>>+<IFE N&10,<<ADFMPL>B17>>+<IFN N&10,<ABPCEN+
  5377					SAIAC0+<IFE N&70-30,<FCE>>+<IFE N&50-50,<FCEPSE>>+<ADARPL>B17>>+<IFN N&40,<<ADADD>B17>>+<IFE
  5378	036150	046001	003400		 N&70-50,<<ADCR36+ADMAGIC>B17>>+<IFE N&70-40,<<ADCR36>B17+AOJD>>
  5379	036151	046220	000000			[ADCLKINH,,0],,0
  5380						IFN N&10,<XWD 0,ARADEN+SKIPS>
  5381	036152	000600	007054			IFE N&10,<XWD ADBRPL,ARADEN+BRAREN+JUMPS>
  5382			000070			N=N+1
  5383
  5384						<<ET0>B17>+PCCHNG+<IFN N&70-40,<SKPFD>>+<IFE N&10,<<ADFMPL>B17>>+<IFN N&10,<ABPCEN+
  5385					SAIAC0+<IFE N&70-30,<FCE>>+<IFE N&50-50,<FCEPSE>>+<ADARPL>B17>>+<IFN N&40,<<ADADD>B17>>+<IFE
  5386	036153	040061	103543		 N&70-50,<<ADCR36+ADMAGIC>B17>>+<IFE N&70-40,<<ADCR36>B17+AOJD>>
  5387	036154	046220	000000			[ADCLKINH,,0],,0
  5388	036155	000000	006031			IFN N&10,<XWD 0,ARADEN+SKIPS>
  5389						IFE N&10,<XWD ADBRPL,ARADEN+BRAREN+JUMPS>
  5390			000071			N=N+1
  5391
  5392						<<ET0>B17>+PCCHNG+<IFN N&70-40,<SKPFD>>+<IFE N&10,<<ADFMPL>B17>>+<IFN N&10,<ABPCEN+
  5393					SAIAC0+<IFE N&70-30,<FCE>>+<IFE N&50-50,<FCEPSE>>+<ADARPL>B17>>+<IFN N&40,<<ADADD>B17>>+<IFE
  5394	036156	040061	103543		 N&70-50,<<ADCR36+ADMAGIC>B17>>+<IFE N&70-40,<<ADCR36>B17+AOJD>>
DBKDA	DECSYSTEM10 KI10 ARITHMETIC RELIABILITY TEST, VER 0,3	MACRO %51(414) 14:29  9-JUN-76 PAGE 16-9
KI10A1	MAC	 9-JUN-76 13:52		DISPATCH TABLE FOR INSTRUCTIONS		270-377                                *** SEQ 0171

  5395	036157	046220	000000			[ADCLKINH,,0],,0
  5396	036160	000000	006031			IFN N&10,<XWD 0,ARADEN+SKIPS>
  5397						IFE N&10,<XWD ADBRPL,ARADEN+BRAREN+JUMPS>
  5398			000072			N=N+1
  5399
  5400						<<ET0>B17>+PCCHNG+<IFN N&70-40,<SKPFD>>+<IFE N&10,<<ADFMPL>B17>>+<IFN N&10,<ABPCEN+
  5401					SAIAC0+<IFE N&70-30,<FCE>>+<IFE N&50-50,<FCEPSE>>+<ADARPL>B17>>+<IFN N&40,<<ADADD>B17>>+<IFE
  5402	036161	040061	103543		 N&70-50,<<ADCR36+ADMAGIC>B17>>+<IFE N&70-40,<<ADCR36>B17+AOJD>>
  5403	036162	046220	000000			[ADCLKINH,,0],,0
  5404	036163	000000	006031			IFN N&10,<XWD 0,ARADEN+SKIPS>
  5405						IFE N&10,<XWD ADBRPL,ARADEN+BRAREN+JUMPS>
  5406			000073			N=N+1
  5407
  5408						<<ET0>B17>+PCCHNG+<IFN N&70-40,<SKPFD>>+<IFE N&10,<<ADFMPL>B17>>+<IFN N&10,<ABPCEN+
  5409					SAIAC0+<IFE N&70-30,<FCE>>+<IFE N&50-50,<FCEPSE>>+<ADARPL>B17>>+<IFN N&40,<<ADADD>B17>>+<IFE
  5410	036164	040061	103543		 N&70-50,<<ADCR36+ADMAGIC>B17>>+<IFE N&70-40,<<ADCR36>B17+AOJD>>
  5411	036165	046220	000000			[ADCLKINH,,0],,0
  5412	036166	000000	006031			IFN N&10,<XWD 0,ARADEN+SKIPS>
  5413						IFE N&10,<XWD ADBRPL,ARADEN+BRAREN+JUMPS>
  5414			000074			N=N+1
  5415
  5416						<<ET0>B17>+PCCHNG+<IFN N&70-40,<SKPFD>>+<IFE N&10,<<ADFMPL>B17>>+<IFN N&10,<ABPCEN+
  5417					SAIAC0+<IFE N&70-30,<FCE>>+<IFE N&50-50,<FCEPSE>>+<ADARPL>B17>>+<IFN N&40,<<ADADD>B17>>+<IFE
  5418	036167	040061	103543		 N&70-50,<<ADCR36+ADMAGIC>B17>>+<IFE N&70-40,<<ADCR36>B17+AOJD>>
  5419	036170	046220	000000			[ADCLKINH,,0],,0
  5420	036171	000000	006031			IFN N&10,<XWD 0,ARADEN+SKIPS>
  5421						IFE N&10,<XWD ADBRPL,ARADEN+BRAREN+JUMPS>
  5422			000075			N=N+1
  5423
  5424						<<ET0>B17>+PCCHNG+<IFN N&70-40,<SKPFD>>+<IFE N&10,<<ADFMPL>B17>>+<IFN N&10,<ABPCEN+
  5425					SAIAC0+<IFE N&70-30,<FCE>>+<IFE N&50-50,<FCEPSE>>+<ADARPL>B17>>+<IFN N&40,<<ADADD>B17>>+<IFE
  5426	036172	040061	103543		 N&70-50,<<ADCR36+ADMAGIC>B17>>+<IFE N&70-40,<<ADCR36>B17+AOJD>>
  5427	036173	046220	000000			[ADCLKINH,,0],,0
  5428	036174	000000	006031			IFN N&10,<XWD 0,ARADEN+SKIPS>
  5429						IFE N&10,<XWD ADBRPL,ARADEN+BRAREN+JUMPS>
  5430			000076			N=N+1
  5431
  5432						<<ET0>B17>+PCCHNG+<IFN N&70-40,<SKPFD>>+<IFE N&10,<<ADFMPL>B17>>+<IFN N&10,<ABPCEN+
  5433					SAIAC0+<IFE N&70-30,<FCE>>+<IFE N&50-50,<FCEPSE>>+<ADARPL>B17>>+<IFN N&40,<<ADADD>B17>>+<IFE
  5434	036175	040061	103543		 N&70-50,<<ADCR36+ADMAGIC>B17>>+<IFE N&70-40,<<ADCR36>B17+AOJD>>
  5435	036176	046220	000000			[ADCLKINH,,0],,0
  5436	036177	000000	006031			IFN N&10,<XWD 0,ARADEN+SKIPS>
  5437						IFE N&10,<XWD ADBRPL,ARADEN+BRAREN+JUMPS>
  5438			000077			N=N+1
  5439
  5440						<<ET0>B17>+PCCHNG+<IFN N&70-40,<SKPFD>>+<IFE N&10,<<ADFMPL>B17>>+<IFN N&10,<ABPCEN+
  5441					SAIAC0+<IFE N&70-30,<FCE>>+<IFE N&50-50,<FCEPSE>>+<ADARPL>B17>>+<IFN N&40,<<ADADD>B17>>+<IFE
  5442	036200	040061	103543		 N&70-50,<<ADCR36+ADMAGIC>B17>>+<IFE N&70-40,<<ADCR36>B17+AOJD>>
  5443	036201	046220	000000			[ADCLKINH,,0],,0
  5444	036202	000000	006031			IFN N&10,<XWD 0,ARADEN+SKIPS>
  5445						IFE N&10,<XWD ADBRPL,ARADEN+BRAREN+JUMPS>
  5446			000100			N=N+1
  5447
  5448
DBKDA	DECSYSTEM10 KI10 ARITHMETIC RELIABILITY TEST, VER 0,3	MACRO %51(414) 14:29  9-JUN-76 PAGE 17
KI10A1	MAC	 9-JUN-76 13:52		DISPATCH TABLE FOR INSTRUCTIONS		400-477                                *** SEQ 0172

  5449					SUBTTL	DISPATCH TABLE FOR INSTRUCTIONS		400-477
  5450
  5451					;*BOOLEAN GROUP							400-477
  5452
  5453					DEFINE CMP (X,LIST,ANS)
  5454					<	ANS==0
  5455						IRP LIST <IFE <X&74>-<LIST*4>,<STOPI
  5456						ANS==1>>>
  5457
  5458			000000			N=0
  5459						REPEAT 100,
  5460					<	CMP (N,<0,5,12,17>,M)
  5461						CMP (N,<7,13,15,16>,A6)
  5462						CMP (N,<6,11>,A1)
  5463						CMP (N,<1,2,3,6,11,15,16>,A2)
  5464						CMP (N,<4,7,10,13,14>,A3)
  5465						CMP (N,<1,4,5,11,13,16>,A4)
  5466						CMP (N,<2,6,7,10,12,15>,A5)
  5467						BFLGS==A1*ADEQV+A2*ADARPL+A3*ADARMI+A4*ADFMPL+A5*ADFMMI
  5468						XWD BFLGS+A6*ET0,<IFE <N&3>,<<1-M>*FCE>>+<IFN <<N&2>*<1-M>>,<FCEPSE>>+^_
  5469					<IFE N&3-2,<SACINH>>+<IFN N&2,<M*SCE>>+<IFE <N&74>,<BOOL0D>>
  5470						XWD [XWD ADARMI,ARADEN],0
  5471						ARADEN
  5472						N=N+1
  5473					>
  5474			000000			CMP (N,<0,5,12,17>,M)^	M==0
  5475			000000			CMP (N,<7,13,15,16>,A6)^	A6==0
  5476			000000			CMP (N,<6,11>,A1)^	A1==0
  5477			000000			CMP (N,<1,2,3,6,11,15,16>,A2)^	A2==0
  5478			000000			CMP (N,<4,7,10,13,14>,A3)^	A3==0
  5479			000000			CMP (N,<1,4,5,11,13,16>,A4)^	A4==0
  5480			000000			CMP (N,<2,6,7,10,12,15>,A5)^	A5==0
  5481			000000			BFLGS==A1*ADEQV+A2*ADARPL+A3*ADARMI+A4*ADFMPL+A5*ADFMMI
  5482						XWD BFLGS+A6*ET0,<IFE <N&3>,<<1-M>*FCE>>+<IFN <<N&2>*<1-M>>,<FCEPSE>>+<IFE N&3-2,<S
  5483	036203	000000	024000		ACINH>>+<IFN N&2,<M*SCE>>+<IFE <N&74>,<BOOL0D>>
  5484	036204	046221	000000			XWD [XWD ADARMI,ARADEN],0
  5485	036205	000000	006000			ARADEN
  5486			000001			N=N+1
  5487
  5488			000000			CMP (N,<0,5,12,17>,M)^	M==0
  5489			000000			CMP (N,<7,13,15,16>,A6)^	A6==0
  5490			000000			CMP (N,<6,11>,A1)^	A1==0
  5491			000000			CMP (N,<1,2,3,6,11,15,16>,A2)^	A2==0
  5492			000000			CMP (N,<4,7,10,13,14>,A3)^	A3==0
  5493			000000			CMP (N,<1,4,5,11,13,16>,A4)^	A4==0
  5494			000000			CMP (N,<2,6,7,10,12,15>,A5)^	A5==0
  5495			000000			BFLGS==A1*ADEQV+A2*ADARPL+A3*ADARMI+A4*ADFMPL+A5*ADFMMI
  5496						XWD BFLGS+A6*ET0,<IFE <N&3>,<<1-M>*FCE>>+<IFN <<N&2>*<1-M>>,<FCEPSE>>+<IFE N&3-2,<S
  5497	036206	000000	024000		ACINH>>+<IFN N&2,<M*SCE>>+<IFE <N&74>,<BOOL0D>>
  5498	036207	046221	000000			XWD [XWD ADARMI,ARADEN],0
  5499	036210	000000	006000			ARADEN
  5500			000002			N=N+1
  5501
  5502			000000			CMP (N,<0,5,12,17>,M)^	M==0
  5503			000000			CMP (N,<7,13,15,16>,A6)^	A6==0
DBKDA	DECSYSTEM10 KI10 ARITHMETIC RELIABILITY TEST, VER 0,3	MACRO %51(414) 14:29  9-JUN-76 PAGE 17-1
KI10A1	MAC	 9-JUN-76 13:52		DISPATCH TABLE FOR INSTRUCTIONS		400-477                                *** SEQ 0173

  5504			000000			CMP (N,<6,11>,A1)^	A1==0
  5505			000000			CMP (N,<1,2,3,6,11,15,16>,A2)^	A2==0
  5506			000000			CMP (N,<4,7,10,13,14>,A3)^	A3==0
  5507			000000			CMP (N,<1,4,5,11,13,16>,A4)^	A4==0
  5508			000000			CMP (N,<2,6,7,10,12,15>,A5)^	A5==0
  5509			000000			BFLGS==A1*ADEQV+A2*ADARPL+A3*ADARMI+A4*ADFMPL+A5*ADFMMI
  5510						XWD BFLGS+A6*ET0,<IFE <N&3>,<<1-M>*FCE>>+<IFN <<N&2>*<1-M>>,<FCEPSE>>+<IFE N&3-2,<S
  5511	036211	000000	024050		ACINH>>+<IFN N&2,<M*SCE>>+<IFE <N&74>,<BOOL0D>>
  5512	036212	046221	000000			XWD [XWD ADARMI,ARADEN],0
  5513	036213	000000	006000			ARADEN
  5514			000003			N=N+1
  5515
  5516			000000			CMP (N,<0,5,12,17>,M)^	M==0
  5517			000000			CMP (N,<7,13,15,16>,A6)^	A6==0
  5518			000000			CMP (N,<6,11>,A1)^	A1==0
  5519			000000			CMP (N,<1,2,3,6,11,15,16>,A2)^	A2==0
  5520			000000			CMP (N,<4,7,10,13,14>,A3)^	A3==0
  5521			000000			CMP (N,<1,4,5,11,13,16>,A4)^	A4==0
  5522			000000			CMP (N,<2,6,7,10,12,15>,A5)^	A5==0
  5523			000000			BFLGS==A1*ADEQV+A2*ADARPL+A3*ADARMI+A4*ADFMPL+A5*ADFMMI
  5524						XWD BFLGS+A6*ET0,<IFE <N&3>,<<1-M>*FCE>>+<IFN <<N&2>*<1-M>>,<FCEPSE>>+<IFE N&3-2,<S
  5525	036214	000000	024010		ACINH>>+<IFN N&2,<M*SCE>>+<IFE <N&74>,<BOOL0D>>
  5526	036215	046221	000000			XWD [XWD ADARMI,ARADEN],0
  5527	036216	000000	006000			ARADEN
  5528			000004			N=N+1
  5529
  5530			000000			CMP (N,<0,5,12,17>,M)^	M==0
  5531			000000			CMP (N,<7,13,15,16>,A6)^	A6==0
  5532			000000			CMP (N,<6,11>,A1)^	A1==0
  5533			000000			CMP (N,<1,2,3,6,11,15,16>,A2)^	A2==0
  5534			000000			CMP (N,<4,7,10,13,14>,A3)^	A3==0
  5535			000000			CMP (N,<1,4,5,11,13,16>,A4)^	A4==0
  5536			000000			CMP (N,<2,6,7,10,12,15>,A5)^	A5==0
  5537			006060			BFLGS==A1*ADEQV+A2*ADARPL+A3*ADARMI+A4*ADFMPL+A5*ADFMMI
  5538						XWD BFLGS+A6*ET0,<IFE <N&3>,<<1-M>*FCE>>+<IFN <<N&2>*<1-M>>,<FCEPSE>>+<IFE N&3-2,<S
  5539	036217	006060	000001		ACINH>>+<IFN N&2,<M*SCE>>+<IFE <N&74>,<BOOL0D>>
  5540	036220	046221	000000			XWD [XWD ADARMI,ARADEN],0
  5541	036221	000000	006000			ARADEN
  5542			000005			N=N+1
  5543
  5544			000000			CMP (N,<0,5,12,17>,M)^	M==0
  5545			000000			CMP (N,<7,13,15,16>,A6)^	A6==0
  5546			000000			CMP (N,<6,11>,A1)^	A1==0
  5547			000000			CMP (N,<1,2,3,6,11,15,16>,A2)^	A2==0
  5548			000000			CMP (N,<4,7,10,13,14>,A3)^	A3==0
  5549			000000			CMP (N,<1,4,5,11,13,16>,A4)^	A4==0
  5550			000000			CMP (N,<2,6,7,10,12,15>,A5)^	A5==0
  5551			006060			BFLGS==A1*ADEQV+A2*ADARPL+A3*ADARMI+A4*ADFMPL+A5*ADFMMI
  5552						XWD BFLGS+A6*ET0,<IFE <N&3>,<<1-M>*FCE>>+<IFN <<N&2>*<1-M>>,<FCEPSE>>+<IFE N&3-2,<S
  5553	036222	006060	000000		ACINH>>+<IFN N&2,<M*SCE>>+<IFE <N&74>,<BOOL0D>>
  5554	036223	046221	000000			XWD [XWD ADARMI,ARADEN],0
  5555	036224	000000	006000			ARADEN
  5556			000006			N=N+1
  5557
  5558			000000			CMP (N,<0,5,12,17>,M)^	M==0
DBKDA	DECSYSTEM10 KI10 ARITHMETIC RELIABILITY TEST, VER 0,3	MACRO %51(414) 14:29  9-JUN-76 PAGE 17-2
KI10A1	MAC	 9-JUN-76 13:52		DISPATCH TABLE FOR INSTRUCTIONS		400-477                                *** SEQ 0174

  5559			000000			CMP (N,<7,13,15,16>,A6)^	A6==0
  5560			000000			CMP (N,<6,11>,A1)^	A1==0
  5561			000000			CMP (N,<1,2,3,6,11,15,16>,A2)^	A2==0
  5562			000000			CMP (N,<4,7,10,13,14>,A3)^	A3==0
  5563			000000			CMP (N,<1,4,5,11,13,16>,A4)^	A4==0
  5564			000000			CMP (N,<2,6,7,10,12,15>,A5)^	A5==0
  5565			006060			BFLGS==A1*ADEQV+A2*ADARPL+A3*ADARMI+A4*ADFMPL+A5*ADFMMI
  5566						XWD BFLGS+A6*ET0,<IFE <N&3>,<<1-M>*FCE>>+<IFN <<N&2>*<1-M>>,<FCEPSE>>+<IFE N&3-2,<S
  5567	036225	006060	000043		ACINH>>+<IFN N&2,<M*SCE>>+<IFE <N&74>,<BOOL0D>>
  5568	036226	046221	000000			XWD [XWD ADARMI,ARADEN],0
  5569	036227	000000	006000			ARADEN
  5570			000007			N=N+1
  5571
  5572			000000			CMP (N,<0,5,12,17>,M)^	M==0
  5573			000000			CMP (N,<7,13,15,16>,A6)^	A6==0
  5574			000000			CMP (N,<6,11>,A1)^	A1==0
  5575			000000			CMP (N,<1,2,3,6,11,15,16>,A2)^	A2==0
  5576			000000			CMP (N,<4,7,10,13,14>,A3)^	A3==0
  5577			000000			CMP (N,<1,4,5,11,13,16>,A4)^	A4==0
  5578			000000			CMP (N,<2,6,7,10,12,15>,A5)^	A5==0
  5579			006060			BFLGS==A1*ADEQV+A2*ADARPL+A3*ADARMI+A4*ADFMPL+A5*ADFMMI
  5580						XWD BFLGS+A6*ET0,<IFE <N&3>,<<1-M>*FCE>>+<IFN <<N&2>*<1-M>>,<FCEPSE>>+<IFE N&3-2,<S
  5581	036230	006060	000003		ACINH>>+<IFN N&2,<M*SCE>>+<IFE <N&74>,<BOOL0D>>
  5582	036231	046221	000000			XWD [XWD ADARMI,ARADEN],0
  5583	036232	000000	006000			ARADEN
  5584			000010			N=N+1
  5585
  5586			000000			CMP (N,<0,5,12,17>,M)^	M==0
  5587			000000			CMP (N,<7,13,15,16>,A6)^	A6==0
  5588			000000			CMP (N,<6,11>,A1)^	A1==0
  5589			000000			CMP (N,<1,2,3,6,11,15,16>,A2)^	A2==0
  5590			000000			CMP (N,<4,7,10,13,14>,A3)^	A3==0
  5591			000000			CMP (N,<1,4,5,11,13,16>,A4)^	A4==0
  5592			000000			CMP (N,<2,6,7,10,12,15>,A5)^	A5==0
  5593			010060			BFLGS==A1*ADEQV+A2*ADARPL+A3*ADARMI+A4*ADFMPL+A5*ADFMMI
  5594						XWD BFLGS+A6*ET0,<IFE <N&3>,<<1-M>*FCE>>+<IFN <<N&2>*<1-M>>,<FCEPSE>>+<IFE N&3-2,<S
  5595	036233	010060	000001		ACINH>>+<IFN N&2,<M*SCE>>+<IFE <N&74>,<BOOL0D>>
  5596	036234	046221	000000			XWD [XWD ADARMI,ARADEN],0
  5597	036235	000000	006000			ARADEN
  5598			000011			N=N+1
  5599
  5600			000000			CMP (N,<0,5,12,17>,M)^	M==0
  5601			000000			CMP (N,<7,13,15,16>,A6)^	A6==0
  5602			000000			CMP (N,<6,11>,A1)^	A1==0
  5603			000000			CMP (N,<1,2,3,6,11,15,16>,A2)^	A2==0
  5604			000000			CMP (N,<4,7,10,13,14>,A3)^	A3==0
  5605			000000			CMP (N,<1,4,5,11,13,16>,A4)^	A4==0
  5606			000000			CMP (N,<2,6,7,10,12,15>,A5)^	A5==0
  5607			010060			BFLGS==A1*ADEQV+A2*ADARPL+A3*ADARMI+A4*ADFMPL+A5*ADFMMI
  5608						XWD BFLGS+A6*ET0,<IFE <N&3>,<<1-M>*FCE>>+<IFN <<N&2>*<1-M>>,<FCEPSE>>+<IFE N&3-2,<S
  5609	036236	010060	000000		ACINH>>+<IFN N&2,<M*SCE>>+<IFE <N&74>,<BOOL0D>>
  5610	036237	046221	000000			XWD [XWD ADARMI,ARADEN],0
  5611	036240	000000	006000			ARADEN
  5612			000012			N=N+1
  5613
DBKDA	DECSYSTEM10 KI10 ARITHMETIC RELIABILITY TEST, VER 0,3	MACRO %51(414) 14:29  9-JUN-76 PAGE 17-3
KI10A1	MAC	 9-JUN-76 13:52		DISPATCH TABLE FOR INSTRUCTIONS		400-477                                *** SEQ 0175

  5614			000000			CMP (N,<0,5,12,17>,M)^	M==0
  5615			000000			CMP (N,<7,13,15,16>,A6)^	A6==0
  5616			000000			CMP (N,<6,11>,A1)^	A1==0
  5617			000000			CMP (N,<1,2,3,6,11,15,16>,A2)^	A2==0
  5618			000000			CMP (N,<4,7,10,13,14>,A3)^	A3==0
  5619			000000			CMP (N,<1,4,5,11,13,16>,A4)^	A4==0
  5620			000000			CMP (N,<2,6,7,10,12,15>,A5)^	A5==0
  5621			010060			BFLGS==A1*ADEQV+A2*ADARPL+A3*ADARMI+A4*ADFMPL+A5*ADFMMI
  5622						XWD BFLGS+A6*ET0,<IFE <N&3>,<<1-M>*FCE>>+<IFN <<N&2>*<1-M>>,<FCEPSE>>+<IFE N&3-2,<S
  5623	036241	010060	000043		ACINH>>+<IFN N&2,<M*SCE>>+<IFE <N&74>,<BOOL0D>>
  5624	036242	046221	000000			XWD [XWD ADARMI,ARADEN],0
  5625	036243	000000	006000			ARADEN
  5626			000013			N=N+1
  5627
  5628			000000			CMP (N,<0,5,12,17>,M)^	M==0
  5629			000000			CMP (N,<7,13,15,16>,A6)^	A6==0
  5630			000000			CMP (N,<6,11>,A1)^	A1==0
  5631			000000			CMP (N,<1,2,3,6,11,15,16>,A2)^	A2==0
  5632			000000			CMP (N,<4,7,10,13,14>,A3)^	A3==0
  5633			000000			CMP (N,<1,4,5,11,13,16>,A4)^	A4==0
  5634			000000			CMP (N,<2,6,7,10,12,15>,A5)^	A5==0
  5635			010060			BFLGS==A1*ADEQV+A2*ADARPL+A3*ADARMI+A4*ADFMPL+A5*ADFMMI
  5636						XWD BFLGS+A6*ET0,<IFE <N&3>,<<1-M>*FCE>>+<IFN <<N&2>*<1-M>>,<FCEPSE>>+<IFE N&3-2,<S
  5637	036244	010060	000003		ACINH>>+<IFN N&2,<M*SCE>>+<IFE <N&74>,<BOOL0D>>
  5638	036245	046221	000000			XWD [XWD ADARMI,ARADEN],0
  5639	036246	000000	006000			ARADEN
  5640			000014			N=N+1
  5641
  5642			000000			CMP (N,<0,5,12,17>,M)^	M==0
  5643			000000			CMP (N,<7,13,15,16>,A6)^	A6==0
  5644			000000			CMP (N,<6,11>,A1)^	A1==0
  5645			000000			CMP (N,<1,2,3,6,11,15,16>,A2)^	A2==0
  5646			000000			CMP (N,<4,7,10,13,14>,A3)^	A3==0
  5647			000000			CMP (N,<1,4,5,11,13,16>,A4)^	A4==0
  5648			000000			CMP (N,<2,6,7,10,12,15>,A5)^	A5==0
  5649			000060			BFLGS==A1*ADEQV+A2*ADARPL+A3*ADARMI+A4*ADFMPL+A5*ADFMMI
  5650						XWD BFLGS+A6*ET0,<IFE <N&3>,<<1-M>*FCE>>+<IFN <<N&2>*<1-M>>,<FCEPSE>>+<IFE N&3-2,<S
  5651	036247	000060	000001		ACINH>>+<IFN N&2,<M*SCE>>+<IFE <N&74>,<BOOL0D>>
  5652	036250	046221	000000			XWD [XWD ADARMI,ARADEN],0
  5653	036251	000000	006000			ARADEN
  5654			000015			N=N+1
  5655
  5656			000000			CMP (N,<0,5,12,17>,M)^	M==0
  5657			000000			CMP (N,<7,13,15,16>,A6)^	A6==0
  5658			000000			CMP (N,<6,11>,A1)^	A1==0
  5659			000000			CMP (N,<1,2,3,6,11,15,16>,A2)^	A2==0
  5660			000000			CMP (N,<4,7,10,13,14>,A3)^	A3==0
  5661			000000			CMP (N,<1,4,5,11,13,16>,A4)^	A4==0
  5662			000000			CMP (N,<2,6,7,10,12,15>,A5)^	A5==0
  5663			000060			BFLGS==A1*ADEQV+A2*ADARPL+A3*ADARMI+A4*ADFMPL+A5*ADFMMI
  5664						XWD BFLGS+A6*ET0,<IFE <N&3>,<<1-M>*FCE>>+<IFN <<N&2>*<1-M>>,<FCEPSE>>+<IFE N&3-2,<S
  5665	036252	000060	000000		ACINH>>+<IFN N&2,<M*SCE>>+<IFE <N&74>,<BOOL0D>>
  5666	036253	046221	000000			XWD [XWD ADARMI,ARADEN],0
  5667	036254	000000	006000			ARADEN
  5668			000016			N=N+1
DBKDA	DECSYSTEM10 KI10 ARITHMETIC RELIABILITY TEST, VER 0,3	MACRO %51(414) 14:29  9-JUN-76 PAGE 17-4
KI10A1	MAC	 9-JUN-76 13:52		DISPATCH TABLE FOR INSTRUCTIONS		400-477                                *** SEQ 0176

  5669
  5670			000000			CMP (N,<0,5,12,17>,M)^	M==0
  5671			000000			CMP (N,<7,13,15,16>,A6)^	A6==0
  5672			000000			CMP (N,<6,11>,A1)^	A1==0
  5673			000000			CMP (N,<1,2,3,6,11,15,16>,A2)^	A2==0
  5674			000000			CMP (N,<4,7,10,13,14>,A3)^	A3==0
  5675			000000			CMP (N,<1,4,5,11,13,16>,A4)^	A4==0
  5676			000000			CMP (N,<2,6,7,10,12,15>,A5)^	A5==0
  5677			000060			BFLGS==A1*ADEQV+A2*ADARPL+A3*ADARMI+A4*ADFMPL+A5*ADFMMI
  5678						XWD BFLGS+A6*ET0,<IFE <N&3>,<<1-M>*FCE>>+<IFN <<N&2>*<1-M>>,<FCEPSE>>+<IFE N&3-2,<S
  5679	036255	000060	000043		ACINH>>+<IFN N&2,<M*SCE>>+<IFE <N&74>,<BOOL0D>>
  5680	036256	046221	000000			XWD [XWD ADARMI,ARADEN],0
  5681	036257	000000	006000			ARADEN
  5682			000017			N=N+1
  5683
  5684			000000			CMP (N,<0,5,12,17>,M)^	M==0
  5685			000000			CMP (N,<7,13,15,16>,A6)^	A6==0
  5686			000000			CMP (N,<6,11>,A1)^	A1==0
  5687			000000			CMP (N,<1,2,3,6,11,15,16>,A2)^	A2==0
  5688			000000			CMP (N,<4,7,10,13,14>,A3)^	A3==0
  5689			000000			CMP (N,<1,4,5,11,13,16>,A4)^	A4==0
  5690			000000			CMP (N,<2,6,7,10,12,15>,A5)^	A5==0
  5691			000060			BFLGS==A1*ADEQV+A2*ADARPL+A3*ADARMI+A4*ADFMPL+A5*ADFMMI
  5692						XWD BFLGS+A6*ET0,<IFE <N&3>,<<1-M>*FCE>>+<IFN <<N&2>*<1-M>>,<FCEPSE>>+<IFE N&3-2,<S
  5693	036260	000060	000003		ACINH>>+<IFN N&2,<M*SCE>>+<IFE <N&74>,<BOOL0D>>
  5694	036261	046221	000000			XWD [XWD ADARMI,ARADEN],0
  5695	036262	000000	006000			ARADEN
  5696			000020			N=N+1
  5697
  5698			000000			CMP (N,<0,5,12,17>,M)^	M==0
  5699			000000			CMP (N,<7,13,15,16>,A6)^	A6==0
  5700			000000			CMP (N,<6,11>,A1)^	A1==0
  5701			000000			CMP (N,<1,2,3,6,11,15,16>,A2)^	A2==0
  5702			000000			CMP (N,<4,7,10,13,14>,A3)^	A3==0
  5703			000000			CMP (N,<1,4,5,11,13,16>,A4)^	A4==0
  5704			000000			CMP (N,<2,6,7,10,12,15>,A5)^	A5==0
  5705			006100			BFLGS==A1*ADEQV+A2*ADARPL+A3*ADARMI+A4*ADFMPL+A5*ADFMMI
  5706						XWD BFLGS+A6*ET0,<IFE <N&3>,<<1-M>*FCE>>+<IFN <<N&2>*<1-M>>,<FCEPSE>>+<IFE N&3-2,<S
  5707	036263	006100	000001		ACINH>>+<IFN N&2,<M*SCE>>+<IFE <N&74>,<BOOL0D>>
  5708	036264	046221	000000			XWD [XWD ADARMI,ARADEN],0
  5709	036265	000000	006000			ARADEN
  5710			000021			N=N+1
  5711
  5712			000000			CMP (N,<0,5,12,17>,M)^	M==0
  5713			000000			CMP (N,<7,13,15,16>,A6)^	A6==0
  5714			000000			CMP (N,<6,11>,A1)^	A1==0
  5715			000000			CMP (N,<1,2,3,6,11,15,16>,A2)^	A2==0
  5716			000000			CMP (N,<4,7,10,13,14>,A3)^	A3==0
  5717			000000			CMP (N,<1,4,5,11,13,16>,A4)^	A4==0
  5718			000000			CMP (N,<2,6,7,10,12,15>,A5)^	A5==0
  5719			006100			BFLGS==A1*ADEQV+A2*ADARPL+A3*ADARMI+A4*ADFMPL+A5*ADFMMI
  5720						XWD BFLGS+A6*ET0,<IFE <N&3>,<<1-M>*FCE>>+<IFN <<N&2>*<1-M>>,<FCEPSE>>+<IFE N&3-2,<S
  5721	036266	006100	000000		ACINH>>+<IFN N&2,<M*SCE>>+<IFE <N&74>,<BOOL0D>>
  5722	036267	046221	000000			XWD [XWD ADARMI,ARADEN],0
  5723	036270	000000	006000			ARADEN
DBKDA	DECSYSTEM10 KI10 ARITHMETIC RELIABILITY TEST, VER 0,3	MACRO %51(414) 14:29  9-JUN-76 PAGE 17-5
KI10A1	MAC	 9-JUN-76 13:52		DISPATCH TABLE FOR INSTRUCTIONS		400-477                                *** SEQ 0177

  5724			000022			N=N+1
  5725
  5726			000000			CMP (N,<0,5,12,17>,M)^	M==0
  5727			000000			CMP (N,<7,13,15,16>,A6)^	A6==0
  5728			000000			CMP (N,<6,11>,A1)^	A1==0
  5729			000000			CMP (N,<1,2,3,6,11,15,16>,A2)^	A2==0
  5730			000000			CMP (N,<4,7,10,13,14>,A3)^	A3==0
  5731			000000			CMP (N,<1,4,5,11,13,16>,A4)^	A4==0
  5732			000000			CMP (N,<2,6,7,10,12,15>,A5)^	A5==0
  5733			006100			BFLGS==A1*ADEQV+A2*ADARPL+A3*ADARMI+A4*ADFMPL+A5*ADFMMI
  5734						XWD BFLGS+A6*ET0,<IFE <N&3>,<<1-M>*FCE>>+<IFN <<N&2>*<1-M>>,<FCEPSE>>+<IFE N&3-2,<S
  5735	036271	006100	000043		ACINH>>+<IFN N&2,<M*SCE>>+<IFE <N&74>,<BOOL0D>>
  5736	036272	046221	000000			XWD [XWD ADARMI,ARADEN],0
  5737	036273	000000	006000			ARADEN
  5738			000023			N=N+1
  5739
  5740			000000			CMP (N,<0,5,12,17>,M)^	M==0
  5741			000000			CMP (N,<7,13,15,16>,A6)^	A6==0
  5742			000000			CMP (N,<6,11>,A1)^	A1==0
  5743			000000			CMP (N,<1,2,3,6,11,15,16>,A2)^	A2==0
  5744			000000			CMP (N,<4,7,10,13,14>,A3)^	A3==0
  5745			000000			CMP (N,<1,4,5,11,13,16>,A4)^	A4==0
  5746			000000			CMP (N,<2,6,7,10,12,15>,A5)^	A5==0
  5747			006100			BFLGS==A1*ADEQV+A2*ADARPL+A3*ADARMI+A4*ADFMPL+A5*ADFMMI
  5748						XWD BFLGS+A6*ET0,<IFE <N&3>,<<1-M>*FCE>>+<IFN <<N&2>*<1-M>>,<FCEPSE>>+<IFE N&3-2,<S
  5749	036274	006100	000003		ACINH>>+<IFN N&2,<M*SCE>>+<IFE <N&74>,<BOOL0D>>
  5750	036275	046221	000000			XWD [XWD ADARMI,ARADEN],0
  5751	036276	000000	006000			ARADEN
  5752			000024			N=N+1
  5753
  5754			000000			CMP (N,<0,5,12,17>,M)^	M==0
  5755			000000			CMP (N,<7,13,15,16>,A6)^	A6==0
  5756			000000			CMP (N,<6,11>,A1)^	A1==0
  5757			000000			CMP (N,<1,2,3,6,11,15,16>,A2)^	A2==0
  5758			000000			CMP (N,<4,7,10,13,14>,A3)^	A3==0
  5759			000000			CMP (N,<1,4,5,11,13,16>,A4)^	A4==0
  5760			000000			CMP (N,<2,6,7,10,12,15>,A5)^	A5==0
  5761			006000			BFLGS==A1*ADEQV+A2*ADARPL+A3*ADARMI+A4*ADFMPL+A5*ADFMMI
  5762						XWD BFLGS+A6*ET0,<IFE <N&3>,<<1-M>*FCE>>+<IFN <<N&2>*<1-M>>,<FCEPSE>>+<IFE N&3-2,<S
  5763	036277	006000	000000		ACINH>>+<IFN N&2,<M*SCE>>+<IFE <N&74>,<BOOL0D>>
  5764	036300	046221	000000			XWD [XWD ADARMI,ARADEN],0
  5765	036301	000000	006000			ARADEN
  5766			000025			N=N+1
  5767
  5768			000000			CMP (N,<0,5,12,17>,M)^	M==0
  5769			000000			CMP (N,<7,13,15,16>,A6)^	A6==0
  5770			000000			CMP (N,<6,11>,A1)^	A1==0
  5771			000000			CMP (N,<1,2,3,6,11,15,16>,A2)^	A2==0
  5772			000000			CMP (N,<4,7,10,13,14>,A3)^	A3==0
  5773			000000			CMP (N,<1,4,5,11,13,16>,A4)^	A4==0
  5774			000000			CMP (N,<2,6,7,10,12,15>,A5)^	A5==0
  5775			006000			BFLGS==A1*ADEQV+A2*ADARPL+A3*ADARMI+A4*ADFMPL+A5*ADFMMI
  5776						XWD BFLGS+A6*ET0,<IFE <N&3>,<<1-M>*FCE>>+<IFN <<N&2>*<1-M>>,<FCEPSE>>+<IFE N&3-2,<S
  5777	036302	006000	000000		ACINH>>+<IFN N&2,<M*SCE>>+<IFE <N&74>,<BOOL0D>>
  5778	036303	046221	000000			XWD [XWD ADARMI,ARADEN],0
DBKDA	DECSYSTEM10 KI10 ARITHMETIC RELIABILITY TEST, VER 0,3	MACRO %51(414) 14:29  9-JUN-76 PAGE 17-6
KI10A1	MAC	 9-JUN-76 13:52		DISPATCH TABLE FOR INSTRUCTIONS		400-477                                *** SEQ 0178

  5779	036304	000000	006000			ARADEN
  5780			000026			N=N+1
  5781
  5782			000000			CMP (N,<0,5,12,17>,M)^	M==0
  5783			000000			CMP (N,<7,13,15,16>,A6)^	A6==0
  5784			000000			CMP (N,<6,11>,A1)^	A1==0
  5785			000000			CMP (N,<1,2,3,6,11,15,16>,A2)^	A2==0
  5786			000000			CMP (N,<4,7,10,13,14>,A3)^	A3==0
  5787			000000			CMP (N,<1,4,5,11,13,16>,A4)^	A4==0
  5788			000000			CMP (N,<2,6,7,10,12,15>,A5)^	A5==0
  5789			006000			BFLGS==A1*ADEQV+A2*ADARPL+A3*ADARMI+A4*ADFMPL+A5*ADFMMI
  5790						XWD BFLGS+A6*ET0,<IFE <N&3>,<<1-M>*FCE>>+<IFN <<N&2>*<1-M>>,<FCEPSE>>+<IFE N&3-2,<S
  5791	036305	006000	000050		ACINH>>+<IFN N&2,<M*SCE>>+<IFE <N&74>,<BOOL0D>>
  5792	036306	046221	000000			XWD [XWD ADARMI,ARADEN],0
  5793	036307	000000	006000			ARADEN
  5794			000027			N=N+1
  5795
  5796			000000			CMP (N,<0,5,12,17>,M)^	M==0
  5797			000000			CMP (N,<7,13,15,16>,A6)^	A6==0
  5798			000000			CMP (N,<6,11>,A1)^	A1==0
  5799			000000			CMP (N,<1,2,3,6,11,15,16>,A2)^	A2==0
  5800			000000			CMP (N,<4,7,10,13,14>,A3)^	A3==0
  5801			000000			CMP (N,<1,4,5,11,13,16>,A4)^	A4==0
  5802			000000			CMP (N,<2,6,7,10,12,15>,A5)^	A5==0
  5803			006000			BFLGS==A1*ADEQV+A2*ADARPL+A3*ADARMI+A4*ADFMPL+A5*ADFMMI
  5804						XWD BFLGS+A6*ET0,<IFE <N&3>,<<1-M>*FCE>>+<IFN <<N&2>*<1-M>>,<FCEPSE>>+<IFE N&3-2,<S
  5805	036310	006000	000010		ACINH>>+<IFN N&2,<M*SCE>>+<IFE <N&74>,<BOOL0D>>
  5806	036311	046221	000000			XWD [XWD ADARMI,ARADEN],0
  5807	036312	000000	006000			ARADEN
  5808			000030			N=N+1
  5809
  5810			000000			CMP (N,<0,5,12,17>,M)^	M==0
  5811			000000			CMP (N,<7,13,15,16>,A6)^	A6==0
  5812			000000			CMP (N,<6,11>,A1)^	A1==0
  5813			000000			CMP (N,<1,2,3,6,11,15,16>,A2)^	A2==0
  5814			000000			CMP (N,<4,7,10,13,14>,A3)^	A3==0
  5815			000000			CMP (N,<1,4,5,11,13,16>,A4)^	A4==0
  5816			000000			CMP (N,<2,6,7,10,12,15>,A5)^	A5==0
  5817			110060			BFLGS==A1*ADEQV+A2*ADARPL+A3*ADARMI+A4*ADFMPL+A5*ADFMMI
  5818						XWD BFLGS+A6*ET0,<IFE <N&3>,<<1-M>*FCE>>+<IFN <<N&2>*<1-M>>,<FCEPSE>>+<IFE N&3-2,<S
  5819	036313	110060	000001		ACINH>>+<IFN N&2,<M*SCE>>+<IFE <N&74>,<BOOL0D>>
  5820	036314	046221	000000			XWD [XWD ADARMI,ARADEN],0
  5821	036315	000000	006000			ARADEN
  5822			000031			N=N+1
  5823
  5824			000000			CMP (N,<0,5,12,17>,M)^	M==0
  5825			000000			CMP (N,<7,13,15,16>,A6)^	A6==0
  5826			000000			CMP (N,<6,11>,A1)^	A1==0
  5827			000000			CMP (N,<1,2,3,6,11,15,16>,A2)^	A2==0
  5828			000000			CMP (N,<4,7,10,13,14>,A3)^	A3==0
  5829			000000			CMP (N,<1,4,5,11,13,16>,A4)^	A4==0
  5830			000000			CMP (N,<2,6,7,10,12,15>,A5)^	A5==0
  5831			110060			BFLGS==A1*ADEQV+A2*ADARPL+A3*ADARMI+A4*ADFMPL+A5*ADFMMI
  5832						XWD BFLGS+A6*ET0,<IFE <N&3>,<<1-M>*FCE>>+<IFN <<N&2>*<1-M>>,<FCEPSE>>+<IFE N&3-2,<S
  5833	036316	110060	000000		ACINH>>+<IFN N&2,<M*SCE>>+<IFE <N&74>,<BOOL0D>>
DBKDA	DECSYSTEM10 KI10 ARITHMETIC RELIABILITY TEST, VER 0,3	MACRO %51(414) 14:29  9-JUN-76 PAGE 17-7
KI10A1	MAC	 9-JUN-76 13:52		DISPATCH TABLE FOR INSTRUCTIONS		400-477                                *** SEQ 0179

  5834	036317	046221	000000			XWD [XWD ADARMI,ARADEN],0
  5835	036320	000000	006000			ARADEN
  5836			000032			N=N+1
  5837
  5838			000000			CMP (N,<0,5,12,17>,M)^	M==0
  5839			000000			CMP (N,<7,13,15,16>,A6)^	A6==0
  5840			000000			CMP (N,<6,11>,A1)^	A1==0
  5841			000000			CMP (N,<1,2,3,6,11,15,16>,A2)^	A2==0
  5842			000000			CMP (N,<4,7,10,13,14>,A3)^	A3==0
  5843			000000			CMP (N,<1,4,5,11,13,16>,A4)^	A4==0
  5844			000000			CMP (N,<2,6,7,10,12,15>,A5)^	A5==0
  5845			110060			BFLGS==A1*ADEQV+A2*ADARPL+A3*ADARMI+A4*ADFMPL+A5*ADFMMI
  5846						XWD BFLGS+A6*ET0,<IFE <N&3>,<<1-M>*FCE>>+<IFN <<N&2>*<1-M>>,<FCEPSE>>+<IFE N&3-2,<S
  5847	036321	110060	000043		ACINH>>+<IFN N&2,<M*SCE>>+<IFE <N&74>,<BOOL0D>>
  5848	036322	046221	000000			XWD [XWD ADARMI,ARADEN],0
  5849	036323	000000	006000			ARADEN
  5850			000033			N=N+1
  5851
  5852			000000			CMP (N,<0,5,12,17>,M)^	M==0
  5853			000000			CMP (N,<7,13,15,16>,A6)^	A6==0
  5854			000000			CMP (N,<6,11>,A1)^	A1==0
  5855			000000			CMP (N,<1,2,3,6,11,15,16>,A2)^	A2==0
  5856			000000			CMP (N,<4,7,10,13,14>,A3)^	A3==0
  5857			000000			CMP (N,<1,4,5,11,13,16>,A4)^	A4==0
  5858			000000			CMP (N,<2,6,7,10,12,15>,A5)^	A5==0
  5859			110060			BFLGS==A1*ADEQV+A2*ADARPL+A3*ADARMI+A4*ADFMPL+A5*ADFMMI
  5860						XWD BFLGS+A6*ET0,<IFE <N&3>,<<1-M>*FCE>>+<IFN <<N&2>*<1-M>>,<FCEPSE>>+<IFE N&3-2,<S
  5861	036324	110060	000003		ACINH>>+<IFN N&2,<M*SCE>>+<IFE <N&74>,<BOOL0D>>
  5862	036325	046221	000000			XWD [XWD ADARMI,ARADEN],0
  5863	036326	000000	006000			ARADEN
  5864			000034			N=N+1
  5865
  5866			000000			CMP (N,<0,5,12,17>,M)^	M==0
  5867			000000			CMP (N,<7,13,15,16>,A6)^	A6==0
  5868			000000			CMP (N,<6,11>,A1)^	A1==0
  5869			000000			CMP (N,<1,2,3,6,11,15,16>,A2)^	A2==0
  5870			000000			CMP (N,<4,7,10,13,14>,A3)^	A3==0
  5871			000000			CMP (N,<1,4,5,11,13,16>,A4)^	A4==0
  5872			000000			CMP (N,<2,6,7,10,12,15>,A5)^	A5==0
  5873			010100			BFLGS==A1*ADEQV+A2*ADARPL+A3*ADARMI+A4*ADFMPL+A5*ADFMMI
  5874						XWD BFLGS+A6*ET0,<IFE <N&3>,<<1-M>*FCE>>+<IFN <<N&2>*<1-M>>,<FCEPSE>>+<IFE N&3-2,<S
  5875	036327	010101	000001		ACINH>>+<IFN N&2,<M*SCE>>+<IFE <N&74>,<BOOL0D>>
  5876	036330	046221	000000			XWD [XWD ADARMI,ARADEN],0
  5877	036331	000000	006000			ARADEN
  5878			000035			N=N+1
  5879
  5880			000000			CMP (N,<0,5,12,17>,M)^	M==0
  5881			000000			CMP (N,<7,13,15,16>,A6)^	A6==0
  5882			000000			CMP (N,<6,11>,A1)^	A1==0
  5883			000000			CMP (N,<1,2,3,6,11,15,16>,A2)^	A2==0
  5884			000000			CMP (N,<4,7,10,13,14>,A3)^	A3==0
  5885			000000			CMP (N,<1,4,5,11,13,16>,A4)^	A4==0
  5886			000000			CMP (N,<2,6,7,10,12,15>,A5)^	A5==0
  5887			010100			BFLGS==A1*ADEQV+A2*ADARPL+A3*ADARMI+A4*ADFMPL+A5*ADFMMI
  5888						XWD BFLGS+A6*ET0,<IFE <N&3>,<<1-M>*FCE>>+<IFN <<N&2>*<1-M>>,<FCEPSE>>+<IFE N&3-2,<S
DBKDA	DECSYSTEM10 KI10 ARITHMETIC RELIABILITY TEST, VER 0,3	MACRO %51(414) 14:29  9-JUN-76 PAGE 17-8
KI10A1	MAC	 9-JUN-76 13:52		DISPATCH TABLE FOR INSTRUCTIONS		400-477                                *** SEQ 0180

  5889	036332	010101	000000		ACINH>>+<IFN N&2,<M*SCE>>+<IFE <N&74>,<BOOL0D>>
  5890	036333	046221	000000			XWD [XWD ADARMI,ARADEN],0
  5891	036334	000000	006000			ARADEN
  5892			000036			N=N+1
  5893
  5894			000000			CMP (N,<0,5,12,17>,M)^	M==0
  5895			000000			CMP (N,<7,13,15,16>,A6)^	A6==0
  5896			000000			CMP (N,<6,11>,A1)^	A1==0
  5897			000000			CMP (N,<1,2,3,6,11,15,16>,A2)^	A2==0
  5898			000000			CMP (N,<4,7,10,13,14>,A3)^	A3==0
  5899			000000			CMP (N,<1,4,5,11,13,16>,A4)^	A4==0
  5900			000000			CMP (N,<2,6,7,10,12,15>,A5)^	A5==0
  5901			010100			BFLGS==A1*ADEQV+A2*ADARPL+A3*ADARMI+A4*ADFMPL+A5*ADFMMI
  5902						XWD BFLGS+A6*ET0,<IFE <N&3>,<<1-M>*FCE>>+<IFN <<N&2>*<1-M>>,<FCEPSE>>+<IFE N&3-2,<S
  5903	036335	010101	000043		ACINH>>+<IFN N&2,<M*SCE>>+<IFE <N&74>,<BOOL0D>>
  5904	036336	046221	000000			XWD [XWD ADARMI,ARADEN],0
  5905	036337	000000	006000			ARADEN
  5906			000037			N=N+1
  5907
  5908			000000			CMP (N,<0,5,12,17>,M)^	M==0
  5909			000000			CMP (N,<7,13,15,16>,A6)^	A6==0
  5910			000000			CMP (N,<6,11>,A1)^	A1==0
  5911			000000			CMP (N,<1,2,3,6,11,15,16>,A2)^	A2==0
  5912			000000			CMP (N,<4,7,10,13,14>,A3)^	A3==0
  5913			000000			CMP (N,<1,4,5,11,13,16>,A4)^	A4==0
  5914			000000			CMP (N,<2,6,7,10,12,15>,A5)^	A5==0
  5915			010100			BFLGS==A1*ADEQV+A2*ADARPL+A3*ADARMI+A4*ADFMPL+A5*ADFMMI
  5916						XWD BFLGS+A6*ET0,<IFE <N&3>,<<1-M>*FCE>>+<IFN <<N&2>*<1-M>>,<FCEPSE>>+<IFE N&3-2,<S
  5917	036340	010101	000003		ACINH>>+<IFN N&2,<M*SCE>>+<IFE <N&74>,<BOOL0D>>
  5918	036341	046221	000000			XWD [XWD ADARMI,ARADEN],0
  5919	036342	000000	006000			ARADEN
  5920			000040			N=N+1
  5921
  5922			000000			CMP (N,<0,5,12,17>,M)^	M==0
  5923			000000			CMP (N,<7,13,15,16>,A6)^	A6==0
  5924			000000			CMP (N,<6,11>,A1)^	A1==0
  5925			000000			CMP (N,<1,2,3,6,11,15,16>,A2)^	A2==0
  5926			000000			CMP (N,<4,7,10,13,14>,A3)^	A3==0
  5927			000000			CMP (N,<1,4,5,11,13,16>,A4)^	A4==0
  5928			000000			CMP (N,<2,6,7,10,12,15>,A5)^	A5==0
  5929			010100			BFLGS==A1*ADEQV+A2*ADARPL+A3*ADARMI+A4*ADFMPL+A5*ADFMMI
  5930						XWD BFLGS+A6*ET0,<IFE <N&3>,<<1-M>*FCE>>+<IFN <<N&2>*<1-M>>,<FCEPSE>>+<IFE N&3-2,<S
  5931	036343	010100	000001		ACINH>>+<IFN N&2,<M*SCE>>+<IFE <N&74>,<BOOL0D>>
  5932	036344	046221	000000			XWD [XWD ADARMI,ARADEN],0
  5933	036345	000000	006000			ARADEN
  5934			000041			N=N+1
  5935
  5936			000000			CMP (N,<0,5,12,17>,M)^	M==0
  5937			000000			CMP (N,<7,13,15,16>,A6)^	A6==0
  5938			000000			CMP (N,<6,11>,A1)^	A1==0
  5939			000000			CMP (N,<1,2,3,6,11,15,16>,A2)^	A2==0
  5940			000000			CMP (N,<4,7,10,13,14>,A3)^	A3==0
  5941			000000			CMP (N,<1,4,5,11,13,16>,A4)^	A4==0
  5942			000000			CMP (N,<2,6,7,10,12,15>,A5)^	A5==0
  5943			010100			BFLGS==A1*ADEQV+A2*ADARPL+A3*ADARMI+A4*ADFMPL+A5*ADFMMI
DBKDA	DECSYSTEM10 KI10 ARITHMETIC RELIABILITY TEST, VER 0,3	MACRO %51(414) 14:29  9-JUN-76 PAGE 17-9
KI10A1	MAC	 9-JUN-76 13:52		DISPATCH TABLE FOR INSTRUCTIONS		400-477                                *** SEQ 0181

  5944						XWD BFLGS+A6*ET0,<IFE <N&3>,<<1-M>*FCE>>+<IFN <<N&2>*<1-M>>,<FCEPSE>>+<IFE N&3-2,<S
  5945	036346	010100	000000		ACINH>>+<IFN N&2,<M*SCE>>+<IFE <N&74>,<BOOL0D>>
  5946	036347	046221	000000			XWD [XWD ADARMI,ARADEN],0
  5947	036350	000000	006000			ARADEN
  5948			000042			N=N+1
  5949
  5950			000000			CMP (N,<0,5,12,17>,M)^	M==0
  5951			000000			CMP (N,<7,13,15,16>,A6)^	A6==0
  5952			000000			CMP (N,<6,11>,A1)^	A1==0
  5953			000000			CMP (N,<1,2,3,6,11,15,16>,A2)^	A2==0
  5954			000000			CMP (N,<4,7,10,13,14>,A3)^	A3==0
  5955			000000			CMP (N,<1,4,5,11,13,16>,A4)^	A4==0
  5956			000000			CMP (N,<2,6,7,10,12,15>,A5)^	A5==0
  5957			010100			BFLGS==A1*ADEQV+A2*ADARPL+A3*ADARMI+A4*ADFMPL+A5*ADFMMI
  5958						XWD BFLGS+A6*ET0,<IFE <N&3>,<<1-M>*FCE>>+<IFN <<N&2>*<1-M>>,<FCEPSE>>+<IFE N&3-2,<S
  5959	036351	010100	000043		ACINH>>+<IFN N&2,<M*SCE>>+<IFE <N&74>,<BOOL0D>>
  5960	036352	046221	000000			XWD [XWD ADARMI,ARADEN],0
  5961	036353	000000	006000			ARADEN
  5962			000043			N=N+1
  5963
  5964			000000			CMP (N,<0,5,12,17>,M)^	M==0
  5965			000000			CMP (N,<7,13,15,16>,A6)^	A6==0
  5966			000000			CMP (N,<6,11>,A1)^	A1==0
  5967			000000			CMP (N,<1,2,3,6,11,15,16>,A2)^	A2==0
  5968			000000			CMP (N,<4,7,10,13,14>,A3)^	A3==0
  5969			000000			CMP (N,<1,4,5,11,13,16>,A4)^	A4==0
  5970			000000			CMP (N,<2,6,7,10,12,15>,A5)^	A5==0
  5971			010100			BFLGS==A1*ADEQV+A2*ADARPL+A3*ADARMI+A4*ADFMPL+A5*ADFMMI
  5972						XWD BFLGS+A6*ET0,<IFE <N&3>,<<1-M>*FCE>>+<IFN <<N&2>*<1-M>>,<FCEPSE>>+<IFE N&3-2,<S
  5973	036354	010100	000003		ACINH>>+<IFN N&2,<M*SCE>>+<IFE <N&74>,<BOOL0D>>
  5974	036355	046221	000000			XWD [XWD ADARMI,ARADEN],0
  5975	036356	000000	006000			ARADEN
  5976			000044			N=N+1
  5977
  5978			000000			CMP (N,<0,5,12,17>,M)^	M==0
  5979			000000			CMP (N,<7,13,15,16>,A6)^	A6==0
  5980			000000			CMP (N,<6,11>,A1)^	A1==0
  5981			000000			CMP (N,<1,2,3,6,11,15,16>,A2)^	A2==0
  5982			000000			CMP (N,<4,7,10,13,14>,A3)^	A3==0
  5983			000000			CMP (N,<1,4,5,11,13,16>,A4)^	A4==0
  5984			000000			CMP (N,<2,6,7,10,12,15>,A5)^	A5==0
  5985			106060			BFLGS==A1*ADEQV+A2*ADARPL+A3*ADARMI+A4*ADFMPL+A5*ADFMMI
  5986						XWD BFLGS+A6*ET0,<IFE <N&3>,<<1-M>*FCE>>+<IFN <<N&2>*<1-M>>,<FCEPSE>>+<IFE N&3-2,<S
  5987	036357	106060	000001		ACINH>>+<IFN N&2,<M*SCE>>+<IFE <N&74>,<BOOL0D>>
  5988	036360	046221	000000			XWD [XWD ADARMI,ARADEN],0
  5989	036361	000000	006000			ARADEN
  5990			000045			N=N+1
  5991
  5992			000000			CMP (N,<0,5,12,17>,M)^	M==0
  5993			000000			CMP (N,<7,13,15,16>,A6)^	A6==0
  5994			000000			CMP (N,<6,11>,A1)^	A1==0
  5995			000000			CMP (N,<1,2,3,6,11,15,16>,A2)^	A2==0
  5996			000000			CMP (N,<4,7,10,13,14>,A3)^	A3==0
  5997			000000			CMP (N,<1,4,5,11,13,16>,A4)^	A4==0
  5998			000000			CMP (N,<2,6,7,10,12,15>,A5)^	A5==0
DBKDA	DECSYSTEM10 KI10 ARITHMETIC RELIABILITY TEST, VER 0,3	MACRO %51(414) 14:29  9-JUN-76 PAGE 17-10
KI10A1	MAC	 9-JUN-76 13:52		DISPATCH TABLE FOR INSTRUCTIONS		400-477                                *** SEQ 0182

  5999			106060			BFLGS==A1*ADEQV+A2*ADARPL+A3*ADARMI+A4*ADFMPL+A5*ADFMMI
  6000						XWD BFLGS+A6*ET0,<IFE <N&3>,<<1-M>*FCE>>+<IFN <<N&2>*<1-M>>,<FCEPSE>>+<IFE N&3-2,<S
  6001	036362	106060	000000		ACINH>>+<IFN N&2,<M*SCE>>+<IFE <N&74>,<BOOL0D>>
  6002	036363	046221	000000			XWD [XWD ADARMI,ARADEN],0
  6003	036364	000000	006000			ARADEN
  6004			000046			N=N+1
  6005
  6006			000000			CMP (N,<0,5,12,17>,M)^	M==0
  6007			000000			CMP (N,<7,13,15,16>,A6)^	A6==0
  6008			000000			CMP (N,<6,11>,A1)^	A1==0
  6009			000000			CMP (N,<1,2,3,6,11,15,16>,A2)^	A2==0
  6010			000000			CMP (N,<4,7,10,13,14>,A3)^	A3==0
  6011			000000			CMP (N,<1,4,5,11,13,16>,A4)^	A4==0
  6012			000000			CMP (N,<2,6,7,10,12,15>,A5)^	A5==0
  6013			106060			BFLGS==A1*ADEQV+A2*ADARPL+A3*ADARMI+A4*ADFMPL+A5*ADFMMI
  6014						XWD BFLGS+A6*ET0,<IFE <N&3>,<<1-M>*FCE>>+<IFN <<N&2>*<1-M>>,<FCEPSE>>+<IFE N&3-2,<S
  6015	036365	106060	000043		ACINH>>+<IFN N&2,<M*SCE>>+<IFE <N&74>,<BOOL0D>>
  6016	036366	046221	000000			XWD [XWD ADARMI,ARADEN],0
  6017	036367	000000	006000			ARADEN
  6018			000047			N=N+1
  6019
  6020			000000			CMP (N,<0,5,12,17>,M)^	M==0
  6021			000000			CMP (N,<7,13,15,16>,A6)^	A6==0
  6022			000000			CMP (N,<6,11>,A1)^	A1==0
  6023			000000			CMP (N,<1,2,3,6,11,15,16>,A2)^	A2==0
  6024			000000			CMP (N,<4,7,10,13,14>,A3)^	A3==0
  6025			000000			CMP (N,<1,4,5,11,13,16>,A4)^	A4==0
  6026			000000			CMP (N,<2,6,7,10,12,15>,A5)^	A5==0
  6027			106060			BFLGS==A1*ADEQV+A2*ADARPL+A3*ADARMI+A4*ADFMPL+A5*ADFMMI
  6028						XWD BFLGS+A6*ET0,<IFE <N&3>,<<1-M>*FCE>>+<IFN <<N&2>*<1-M>>,<FCEPSE>>+<IFE N&3-2,<S
  6029	036370	106060	000003		ACINH>>+<IFN N&2,<M*SCE>>+<IFE <N&74>,<BOOL0D>>
  6030	036371	046221	000000			XWD [XWD ADARMI,ARADEN],0
  6031	036372	000000	006000			ARADEN
  6032			000050			N=N+1
  6033
  6034			000000			CMP (N,<0,5,12,17>,M)^	M==0
  6035			000000			CMP (N,<7,13,15,16>,A6)^	A6==0
  6036			000000			CMP (N,<6,11>,A1)^	A1==0
  6037			000000			CMP (N,<1,2,3,6,11,15,16>,A2)^	A2==0
  6038			000000			CMP (N,<4,7,10,13,14>,A3)^	A3==0
  6039			000000			CMP (N,<1,4,5,11,13,16>,A4)^	A4==0
  6040			000000			CMP (N,<2,6,7,10,12,15>,A5)^	A5==0
  6041			010000			BFLGS==A1*ADEQV+A2*ADARPL+A3*ADARMI+A4*ADFMPL+A5*ADFMMI
  6042						XWD BFLGS+A6*ET0,<IFE <N&3>,<<1-M>*FCE>>+<IFN <<N&2>*<1-M>>,<FCEPSE>>+<IFE N&3-2,<S
  6043	036373	010000	000000		ACINH>>+<IFN N&2,<M*SCE>>+<IFE <N&74>,<BOOL0D>>
  6044	036374	046221	000000			XWD [XWD ADARMI,ARADEN],0
  6045	036375	000000	006000			ARADEN
  6046			000051			N=N+1
  6047
  6048			000000			CMP (N,<0,5,12,17>,M)^	M==0
  6049			000000			CMP (N,<7,13,15,16>,A6)^	A6==0
  6050			000000			CMP (N,<6,11>,A1)^	A1==0
  6051			000000			CMP (N,<1,2,3,6,11,15,16>,A2)^	A2==0
  6052			000000			CMP (N,<4,7,10,13,14>,A3)^	A3==0
  6053			000000			CMP (N,<1,4,5,11,13,16>,A4)^	A4==0
DBKDA	DECSYSTEM10 KI10 ARITHMETIC RELIABILITY TEST, VER 0,3	MACRO %51(414) 14:29  9-JUN-76 PAGE 17-11
KI10A1	MAC	 9-JUN-76 13:52		DISPATCH TABLE FOR INSTRUCTIONS		400-477                                *** SEQ 0183

  6054			000000			CMP (N,<2,6,7,10,12,15>,A5)^	A5==0
  6055			010000			BFLGS==A1*ADEQV+A2*ADARPL+A3*ADARMI+A4*ADFMPL+A5*ADFMMI
  6056						XWD BFLGS+A6*ET0,<IFE <N&3>,<<1-M>*FCE>>+<IFN <<N&2>*<1-M>>,<FCEPSE>>+<IFE N&3-2,<S
  6057	036376	010000	000000		ACINH>>+<IFN N&2,<M*SCE>>+<IFE <N&74>,<BOOL0D>>
  6058	036377	046221	000000			XWD [XWD ADARMI,ARADEN],0
  6059	036400	000000	006000			ARADEN
  6060			000052			N=N+1
  6061
  6062			000000			CMP (N,<0,5,12,17>,M)^	M==0
  6063			000000			CMP (N,<7,13,15,16>,A6)^	A6==0
  6064			000000			CMP (N,<6,11>,A1)^	A1==0
  6065			000000			CMP (N,<1,2,3,6,11,15,16>,A2)^	A2==0
  6066			000000			CMP (N,<4,7,10,13,14>,A3)^	A3==0
  6067			000000			CMP (N,<1,4,5,11,13,16>,A4)^	A4==0
  6068			000000			CMP (N,<2,6,7,10,12,15>,A5)^	A5==0
  6069			010000			BFLGS==A1*ADEQV+A2*ADARPL+A3*ADARMI+A4*ADFMPL+A5*ADFMMI
  6070						XWD BFLGS+A6*ET0,<IFE <N&3>,<<1-M>*FCE>>+<IFN <<N&2>*<1-M>>,<FCEPSE>>+<IFE N&3-2,<S
  6071	036401	010000	000050		ACINH>>+<IFN N&2,<M*SCE>>+<IFE <N&74>,<BOOL0D>>
  6072	036402	046221	000000			XWD [XWD ADARMI,ARADEN],0
  6073	036403	000000	006000			ARADEN
  6074			000053			N=N+1
  6075
  6076			000000			CMP (N,<0,5,12,17>,M)^	M==0
  6077			000000			CMP (N,<7,13,15,16>,A6)^	A6==0
  6078			000000			CMP (N,<6,11>,A1)^	A1==0
  6079			000000			CMP (N,<1,2,3,6,11,15,16>,A2)^	A2==0
  6080			000000			CMP (N,<4,7,10,13,14>,A3)^	A3==0
  6081			000000			CMP (N,<1,4,5,11,13,16>,A4)^	A4==0
  6082			000000			CMP (N,<2,6,7,10,12,15>,A5)^	A5==0
  6083			010000			BFLGS==A1*ADEQV+A2*ADARPL+A3*ADARMI+A4*ADFMPL+A5*ADFMMI
  6084						XWD BFLGS+A6*ET0,<IFE <N&3>,<<1-M>*FCE>>+<IFN <<N&2>*<1-M>>,<FCEPSE>>+<IFE N&3-2,<S
  6085	036404	010000	000010		ACINH>>+<IFN N&2,<M*SCE>>+<IFE <N&74>,<BOOL0D>>
  6086	036405	046221	000000			XWD [XWD ADARMI,ARADEN],0
  6087	036406	000000	006000			ARADEN
  6088			000054			N=N+1
  6089
  6090			000000			CMP (N,<0,5,12,17>,M)^	M==0
  6091			000000			CMP (N,<7,13,15,16>,A6)^	A6==0
  6092			000000			CMP (N,<6,11>,A1)^	A1==0
  6093			000000			CMP (N,<1,2,3,6,11,15,16>,A2)^	A2==0
  6094			000000			CMP (N,<4,7,10,13,14>,A3)^	A3==0
  6095			000000			CMP (N,<1,4,5,11,13,16>,A4)^	A4==0
  6096			000000			CMP (N,<2,6,7,10,12,15>,A5)^	A5==0
  6097			006100			BFLGS==A1*ADEQV+A2*ADARPL+A3*ADARMI+A4*ADFMPL+A5*ADFMMI
  6098						XWD BFLGS+A6*ET0,<IFE <N&3>,<<1-M>*FCE>>+<IFN <<N&2>*<1-M>>,<FCEPSE>>+<IFE N&3-2,<S
  6099	036407	006101	000001		ACINH>>+<IFN N&2,<M*SCE>>+<IFE <N&74>,<BOOL0D>>
  6100	036410	046221	000000			XWD [XWD ADARMI,ARADEN],0
  6101	036411	000000	006000			ARADEN
  6102			000055			N=N+1
  6103
  6104			000000			CMP (N,<0,5,12,17>,M)^	M==0
  6105			000000			CMP (N,<7,13,15,16>,A6)^	A6==0
  6106			000000			CMP (N,<6,11>,A1)^	A1==0
  6107			000000			CMP (N,<1,2,3,6,11,15,16>,A2)^	A2==0
  6108			000000			CMP (N,<4,7,10,13,14>,A3)^	A3==0
DBKDA	DECSYSTEM10 KI10 ARITHMETIC RELIABILITY TEST, VER 0,3	MACRO %51(414) 14:29  9-JUN-76 PAGE 17-12
KI10A1	MAC	 9-JUN-76 13:52		DISPATCH TABLE FOR INSTRUCTIONS		400-477                                *** SEQ 0184

  6109			000000			CMP (N,<1,4,5,11,13,16>,A4)^	A4==0
  6110			000000			CMP (N,<2,6,7,10,12,15>,A5)^	A5==0
  6111			006100			BFLGS==A1*ADEQV+A2*ADARPL+A3*ADARMI+A4*ADFMPL+A5*ADFMMI
  6112						XWD BFLGS+A6*ET0,<IFE <N&3>,<<1-M>*FCE>>+<IFN <<N&2>*<1-M>>,<FCEPSE>>+<IFE N&3-2,<S
  6113	036412	006101	000000		ACINH>>+<IFN N&2,<M*SCE>>+<IFE <N&74>,<BOOL0D>>
  6114	036413	046221	000000			XWD [XWD ADARMI,ARADEN],0
  6115	036414	000000	006000			ARADEN
  6116			000056			N=N+1
  6117
  6118			000000			CMP (N,<0,5,12,17>,M)^	M==0
  6119			000000			CMP (N,<7,13,15,16>,A6)^	A6==0
  6120			000000			CMP (N,<6,11>,A1)^	A1==0
  6121			000000			CMP (N,<1,2,3,6,11,15,16>,A2)^	A2==0
  6122			000000			CMP (N,<4,7,10,13,14>,A3)^	A3==0
  6123			000000			CMP (N,<1,4,5,11,13,16>,A4)^	A4==0
  6124			000000			CMP (N,<2,6,7,10,12,15>,A5)^	A5==0
  6125			006100			BFLGS==A1*ADEQV+A2*ADARPL+A3*ADARMI+A4*ADFMPL+A5*ADFMMI
  6126						XWD BFLGS+A6*ET0,<IFE <N&3>,<<1-M>*FCE>>+<IFN <<N&2>*<1-M>>,<FCEPSE>>+<IFE N&3-2,<S
  6127	036415	006101	000043		ACINH>>+<IFN N&2,<M*SCE>>+<IFE <N&74>,<BOOL0D>>
  6128	036416	046221	000000			XWD [XWD ADARMI,ARADEN],0
  6129	036417	000000	006000			ARADEN
  6130			000057			N=N+1
  6131
  6132			000000			CMP (N,<0,5,12,17>,M)^	M==0
  6133			000000			CMP (N,<7,13,15,16>,A6)^	A6==0
  6134			000000			CMP (N,<6,11>,A1)^	A1==0
  6135			000000			CMP (N,<1,2,3,6,11,15,16>,A2)^	A2==0
  6136			000000			CMP (N,<4,7,10,13,14>,A3)^	A3==0
  6137			000000			CMP (N,<1,4,5,11,13,16>,A4)^	A4==0
  6138			000000			CMP (N,<2,6,7,10,12,15>,A5)^	A5==0
  6139			006100			BFLGS==A1*ADEQV+A2*ADARPL+A3*ADARMI+A4*ADFMPL+A5*ADFMMI
  6140						XWD BFLGS+A6*ET0,<IFE <N&3>,<<1-M>*FCE>>+<IFN <<N&2>*<1-M>>,<FCEPSE>>+<IFE N&3-2,<S
  6141	036420	006101	000003		ACINH>>+<IFN N&2,<M*SCE>>+<IFE <N&74>,<BOOL0D>>
  6142	036421	046221	000000			XWD [XWD ADARMI,ARADEN],0
  6143	036422	000000	006000			ARADEN
  6144			000060			N=N+1
  6145
  6146			000000			CMP (N,<0,5,12,17>,M)^	M==0
  6147			000000			CMP (N,<7,13,15,16>,A6)^	A6==0
  6148			000000			CMP (N,<6,11>,A1)^	A1==0
  6149			000000			CMP (N,<1,2,3,6,11,15,16>,A2)^	A2==0
  6150			000000			CMP (N,<4,7,10,13,14>,A3)^	A3==0
  6151			000000			CMP (N,<1,4,5,11,13,16>,A4)^	A4==0
  6152			000000			CMP (N,<2,6,7,10,12,15>,A5)^	A5==0
  6153			000100			BFLGS==A1*ADEQV+A2*ADARPL+A3*ADARMI+A4*ADFMPL+A5*ADFMMI
  6154						XWD BFLGS+A6*ET0,<IFE <N&3>,<<1-M>*FCE>>+<IFN <<N&2>*<1-M>>,<FCEPSE>>+<IFE N&3-2,<S
  6155	036423	000100	000001		ACINH>>+<IFN N&2,<M*SCE>>+<IFE <N&74>,<BOOL0D>>
  6156	036424	046221	000000			XWD [XWD ADARMI,ARADEN],0
  6157	036425	000000	006000			ARADEN
  6158			000061			N=N+1
  6159
  6160			000000			CMP (N,<0,5,12,17>,M)^	M==0
  6161			000000			CMP (N,<7,13,15,16>,A6)^	A6==0
  6162			000000			CMP (N,<6,11>,A1)^	A1==0
  6163			000000			CMP (N,<1,2,3,6,11,15,16>,A2)^	A2==0
DBKDA	DECSYSTEM10 KI10 ARITHMETIC RELIABILITY TEST, VER 0,3	MACRO %51(414) 14:29  9-JUN-76 PAGE 17-13
KI10A1	MAC	 9-JUN-76 13:52		DISPATCH TABLE FOR INSTRUCTIONS		400-477                                *** SEQ 0185

  6164			000000			CMP (N,<4,7,10,13,14>,A3)^	A3==0
  6165			000000			CMP (N,<1,4,5,11,13,16>,A4)^	A4==0
  6166			000000			CMP (N,<2,6,7,10,12,15>,A5)^	A5==0
  6167			000100			BFLGS==A1*ADEQV+A2*ADARPL+A3*ADARMI+A4*ADFMPL+A5*ADFMMI
  6168						XWD BFLGS+A6*ET0,<IFE <N&3>,<<1-M>*FCE>>+<IFN <<N&2>*<1-M>>,<FCEPSE>>+<IFE N&3-2,<S
  6169	036426	000100	000000		ACINH>>+<IFN N&2,<M*SCE>>+<IFE <N&74>,<BOOL0D>>
  6170	036427	046221	000000			XWD [XWD ADARMI,ARADEN],0
  6171	036430	000000	006000			ARADEN
  6172			000062			N=N+1
  6173
  6174			000000			CMP (N,<0,5,12,17>,M)^	M==0
  6175			000000			CMP (N,<7,13,15,16>,A6)^	A6==0
  6176			000000			CMP (N,<6,11>,A1)^	A1==0
  6177			000000			CMP (N,<1,2,3,6,11,15,16>,A2)^	A2==0
  6178			000000			CMP (N,<4,7,10,13,14>,A3)^	A3==0
  6179			000000			CMP (N,<1,4,5,11,13,16>,A4)^	A4==0
  6180			000000			CMP (N,<2,6,7,10,12,15>,A5)^	A5==0
  6181			000100			BFLGS==A1*ADEQV+A2*ADARPL+A3*ADARMI+A4*ADFMPL+A5*ADFMMI
  6182						XWD BFLGS+A6*ET0,<IFE <N&3>,<<1-M>*FCE>>+<IFN <<N&2>*<1-M>>,<FCEPSE>>+<IFE N&3-2,<S
  6183	036431	000100	000043		ACINH>>+<IFN N&2,<M*SCE>>+<IFE <N&74>,<BOOL0D>>
  6184	036432	046221	000000			XWD [XWD ADARMI,ARADEN],0
  6185	036433	000000	006000			ARADEN
  6186			000063			N=N+1
  6187
  6188			000000			CMP (N,<0,5,12,17>,M)^	M==0
  6189			000000			CMP (N,<7,13,15,16>,A6)^	A6==0
  6190			000000			CMP (N,<6,11>,A1)^	A1==0
  6191			000000			CMP (N,<1,2,3,6,11,15,16>,A2)^	A2==0
  6192			000000			CMP (N,<4,7,10,13,14>,A3)^	A3==0
  6193			000000			CMP (N,<1,4,5,11,13,16>,A4)^	A4==0
  6194			000000			CMP (N,<2,6,7,10,12,15>,A5)^	A5==0
  6195			000100			BFLGS==A1*ADEQV+A2*ADARPL+A3*ADARMI+A4*ADFMPL+A5*ADFMMI
  6196						XWD BFLGS+A6*ET0,<IFE <N&3>,<<1-M>*FCE>>+<IFN <<N&2>*<1-M>>,<FCEPSE>>+<IFE N&3-2,<S
  6197	036434	000100	000003		ACINH>>+<IFN N&2,<M*SCE>>+<IFE <N&74>,<BOOL0D>>
  6198	036435	046221	000000			XWD [XWD ADARMI,ARADEN],0
  6199	036436	000000	006000			ARADEN
  6200			000064			N=N+1
  6201
  6202			000000			CMP (N,<0,5,12,17>,M)^	M==0
  6203			000000			CMP (N,<7,13,15,16>,A6)^	A6==0
  6204			000000			CMP (N,<6,11>,A1)^	A1==0
  6205			000000			CMP (N,<1,2,3,6,11,15,16>,A2)^	A2==0
  6206			000000			CMP (N,<4,7,10,13,14>,A3)^	A3==0
  6207			000000			CMP (N,<1,4,5,11,13,16>,A4)^	A4==0
  6208			000000			CMP (N,<2,6,7,10,12,15>,A5)^	A5==0
  6209			010060			BFLGS==A1*ADEQV+A2*ADARPL+A3*ADARMI+A4*ADFMPL+A5*ADFMMI
  6210						XWD BFLGS+A6*ET0,<IFE <N&3>,<<1-M>*FCE>>+<IFN <<N&2>*<1-M>>,<FCEPSE>>+<IFE N&3-2,<S
  6211	036437	010061	000001		ACINH>>+<IFN N&2,<M*SCE>>+<IFE <N&74>,<BOOL0D>>
  6212	036440	046221	000000			XWD [XWD ADARMI,ARADEN],0
  6213	036441	000000	006000			ARADEN
  6214			000065			N=N+1
  6215
  6216			000000			CMP (N,<0,5,12,17>,M)^	M==0
  6217			000000			CMP (N,<7,13,15,16>,A6)^	A6==0
  6218			000000			CMP (N,<6,11>,A1)^	A1==0
DBKDA	DECSYSTEM10 KI10 ARITHMETIC RELIABILITY TEST, VER 0,3	MACRO %51(414) 14:29  9-JUN-76 PAGE 17-14
KI10A1	MAC	 9-JUN-76 13:52		DISPATCH TABLE FOR INSTRUCTIONS		400-477                                *** SEQ 0186

  6219			000000			CMP (N,<1,2,3,6,11,15,16>,A2)^	A2==0
  6220			000000			CMP (N,<4,7,10,13,14>,A3)^	A3==0
  6221			000000			CMP (N,<1,4,5,11,13,16>,A4)^	A4==0
  6222			000000			CMP (N,<2,6,7,10,12,15>,A5)^	A5==0
  6223			010060			BFLGS==A1*ADEQV+A2*ADARPL+A3*ADARMI+A4*ADFMPL+A5*ADFMMI
  6224						XWD BFLGS+A6*ET0,<IFE <N&3>,<<1-M>*FCE>>+<IFN <<N&2>*<1-M>>,<FCEPSE>>+<IFE N&3-2,<S
  6225	036442	010061	000000		ACINH>>+<IFN N&2,<M*SCE>>+<IFE <N&74>,<BOOL0D>>
  6226	036443	046221	000000			XWD [XWD ADARMI,ARADEN],0
  6227	036444	000000	006000			ARADEN
  6228			000066			N=N+1
  6229
  6230			000000			CMP (N,<0,5,12,17>,M)^	M==0
  6231			000000			CMP (N,<7,13,15,16>,A6)^	A6==0
  6232			000000			CMP (N,<6,11>,A1)^	A1==0
  6233			000000			CMP (N,<1,2,3,6,11,15,16>,A2)^	A2==0
  6234			000000			CMP (N,<4,7,10,13,14>,A3)^	A3==0
  6235			000000			CMP (N,<1,4,5,11,13,16>,A4)^	A4==0
  6236			000000			CMP (N,<2,6,7,10,12,15>,A5)^	A5==0
  6237			010060			BFLGS==A1*ADEQV+A2*ADARPL+A3*ADARMI+A4*ADFMPL+A5*ADFMMI
  6238						XWD BFLGS+A6*ET0,<IFE <N&3>,<<1-M>*FCE>>+<IFN <<N&2>*<1-M>>,<FCEPSE>>+<IFE N&3-2,<S
  6239	036445	010061	000043		ACINH>>+<IFN N&2,<M*SCE>>+<IFE <N&74>,<BOOL0D>>
  6240	036446	046221	000000			XWD [XWD ADARMI,ARADEN],0
  6241	036447	000000	006000			ARADEN
  6242			000067			N=N+1
  6243
  6244			000000			CMP (N,<0,5,12,17>,M)^	M==0
  6245			000000			CMP (N,<7,13,15,16>,A6)^	A6==0
  6246			000000			CMP (N,<6,11>,A1)^	A1==0
  6247			000000			CMP (N,<1,2,3,6,11,15,16>,A2)^	A2==0
  6248			000000			CMP (N,<4,7,10,13,14>,A3)^	A3==0
  6249			000000			CMP (N,<1,4,5,11,13,16>,A4)^	A4==0
  6250			000000			CMP (N,<2,6,7,10,12,15>,A5)^	A5==0
  6251			010060			BFLGS==A1*ADEQV+A2*ADARPL+A3*ADARMI+A4*ADFMPL+A5*ADFMMI
  6252						XWD BFLGS+A6*ET0,<IFE <N&3>,<<1-M>*FCE>>+<IFN <<N&2>*<1-M>>,<FCEPSE>>+<IFE N&3-2,<S
  6253	036450	010061	000003		ACINH>>+<IFN N&2,<M*SCE>>+<IFE <N&74>,<BOOL0D>>
  6254	036451	046221	000000			XWD [XWD ADARMI,ARADEN],0
  6255	036452	000000	006000			ARADEN
  6256			000070			N=N+1
  6257
  6258			000000			CMP (N,<0,5,12,17>,M)^	M==0
  6259			000000			CMP (N,<7,13,15,16>,A6)^	A6==0
  6260			000000			CMP (N,<6,11>,A1)^	A1==0
  6261			000000			CMP (N,<1,2,3,6,11,15,16>,A2)^	A2==0
  6262			000000			CMP (N,<4,7,10,13,14>,A3)^	A3==0
  6263			000000			CMP (N,<1,4,5,11,13,16>,A4)^	A4==0
  6264			000000			CMP (N,<2,6,7,10,12,15>,A5)^	A5==0
  6265			006060			BFLGS==A1*ADEQV+A2*ADARPL+A3*ADARMI+A4*ADFMPL+A5*ADFMMI
  6266						XWD BFLGS+A6*ET0,<IFE <N&3>,<<1-M>*FCE>>+<IFN <<N&2>*<1-M>>,<FCEPSE>>+<IFE N&3-2,<S
  6267	036453	006061	000001		ACINH>>+<IFN N&2,<M*SCE>>+<IFE <N&74>,<BOOL0D>>
  6268	036454	046221	000000			XWD [XWD ADARMI,ARADEN],0
  6269	036455	000000	006000			ARADEN
  6270			000071			N=N+1
  6271
  6272			000000			CMP (N,<0,5,12,17>,M)^	M==0
  6273			000000			CMP (N,<7,13,15,16>,A6)^	A6==0
DBKDA	DECSYSTEM10 KI10 ARITHMETIC RELIABILITY TEST, VER 0,3	MACRO %51(414) 14:29  9-JUN-76 PAGE 17-15
KI10A1	MAC	 9-JUN-76 13:52		DISPATCH TABLE FOR INSTRUCTIONS		400-477                                *** SEQ 0187

  6274			000000			CMP (N,<6,11>,A1)^	A1==0
  6275			000000			CMP (N,<1,2,3,6,11,15,16>,A2)^	A2==0
  6276			000000			CMP (N,<4,7,10,13,14>,A3)^	A3==0
  6277			000000			CMP (N,<1,4,5,11,13,16>,A4)^	A4==0
  6278			000000			CMP (N,<2,6,7,10,12,15>,A5)^	A5==0
  6279			006060			BFLGS==A1*ADEQV+A2*ADARPL+A3*ADARMI+A4*ADFMPL+A5*ADFMMI
  6280						XWD BFLGS+A6*ET0,<IFE <N&3>,<<1-M>*FCE>>+<IFN <<N&2>*<1-M>>,<FCEPSE>>+<IFE N&3-2,<S
  6281	036456	006061	000000		ACINH>>+<IFN N&2,<M*SCE>>+<IFE <N&74>,<BOOL0D>>
  6282	036457	046221	000000			XWD [XWD ADARMI,ARADEN],0
  6283	036460	000000	006000			ARADEN
  6284			000072			N=N+1
  6285
  6286			000000			CMP (N,<0,5,12,17>,M)^	M==0
  6287			000000			CMP (N,<7,13,15,16>,A6)^	A6==0
  6288			000000			CMP (N,<6,11>,A1)^	A1==0
  6289			000000			CMP (N,<1,2,3,6,11,15,16>,A2)^	A2==0
  6290			000000			CMP (N,<4,7,10,13,14>,A3)^	A3==0
  6291			000000			CMP (N,<1,4,5,11,13,16>,A4)^	A4==0
  6292			000000			CMP (N,<2,6,7,10,12,15>,A5)^	A5==0
  6293			006060			BFLGS==A1*ADEQV+A2*ADARPL+A3*ADARMI+A4*ADFMPL+A5*ADFMMI
  6294						XWD BFLGS+A6*ET0,<IFE <N&3>,<<1-M>*FCE>>+<IFN <<N&2>*<1-M>>,<FCEPSE>>+<IFE N&3-2,<S
  6295	036461	006061	000043		ACINH>>+<IFN N&2,<M*SCE>>+<IFE <N&74>,<BOOL0D>>
  6296	036462	046221	000000			XWD [XWD ADARMI,ARADEN],0
  6297	036463	000000	006000			ARADEN
  6298			000073			N=N+1
  6299
  6300			000000			CMP (N,<0,5,12,17>,M)^	M==0
  6301			000000			CMP (N,<7,13,15,16>,A6)^	A6==0
  6302			000000			CMP (N,<6,11>,A1)^	A1==0
  6303			000000			CMP (N,<1,2,3,6,11,15,16>,A2)^	A2==0
  6304			000000			CMP (N,<4,7,10,13,14>,A3)^	A3==0
  6305			000000			CMP (N,<1,4,5,11,13,16>,A4)^	A4==0
  6306			000000			CMP (N,<2,6,7,10,12,15>,A5)^	A5==0
  6307			006060			BFLGS==A1*ADEQV+A2*ADARPL+A3*ADARMI+A4*ADFMPL+A5*ADFMMI
  6308						XWD BFLGS+A6*ET0,<IFE <N&3>,<<1-M>*FCE>>+<IFN <<N&2>*<1-M>>,<FCEPSE>>+<IFE N&3-2,<S
  6309	036464	006061	000003		ACINH>>+<IFN N&2,<M*SCE>>+<IFE <N&74>,<BOOL0D>>
  6310	036465	046221	000000			XWD [XWD ADARMI,ARADEN],0
  6311	036466	000000	006000			ARADEN
  6312			000074			N=N+1
  6313
  6314			000000			CMP (N,<0,5,12,17>,M)^	M==0
  6315			000000			CMP (N,<7,13,15,16>,A6)^	A6==0
  6316			000000			CMP (N,<6,11>,A1)^	A1==0
  6317			000000			CMP (N,<1,2,3,6,11,15,16>,A2)^	A2==0
  6318			000000			CMP (N,<4,7,10,13,14>,A3)^	A3==0
  6319			000000			CMP (N,<1,4,5,11,13,16>,A4)^	A4==0
  6320			000000			CMP (N,<2,6,7,10,12,15>,A5)^	A5==0
  6321			000000			BFLGS==A1*ADEQV+A2*ADARPL+A3*ADARMI+A4*ADFMPL+A5*ADFMMI
  6322						XWD BFLGS+A6*ET0,<IFE <N&3>,<<1-M>*FCE>>+<IFN <<N&2>*<1-M>>,<FCEPSE>>+<IFE N&3-2,<S
  6323	036467	000000	000000		ACINH>>+<IFN N&2,<M*SCE>>+<IFE <N&74>,<BOOL0D>>
  6324	036470	046221	000000			XWD [XWD ADARMI,ARADEN],0
  6325	036471	000000	006000			ARADEN
  6326			000075			N=N+1
  6327
  6328			000000			CMP (N,<0,5,12,17>,M)^	M==0
DBKDA	DECSYSTEM10 KI10 ARITHMETIC RELIABILITY TEST, VER 0,3	MACRO %51(414) 14:29  9-JUN-76 PAGE 17-16
KI10A1	MAC	 9-JUN-76 13:52		DISPATCH TABLE FOR INSTRUCTIONS		400-477                                *** SEQ 0188

  6329			000000			CMP (N,<7,13,15,16>,A6)^	A6==0
  6330			000000			CMP (N,<6,11>,A1)^	A1==0
  6331			000000			CMP (N,<1,2,3,6,11,15,16>,A2)^	A2==0
  6332			000000			CMP (N,<4,7,10,13,14>,A3)^	A3==0
  6333			000000			CMP (N,<1,4,5,11,13,16>,A4)^	A4==0
  6334			000000			CMP (N,<2,6,7,10,12,15>,A5)^	A5==0
  6335			000000			BFLGS==A1*ADEQV+A2*ADARPL+A3*ADARMI+A4*ADFMPL+A5*ADFMMI
  6336						XWD BFLGS+A6*ET0,<IFE <N&3>,<<1-M>*FCE>>+<IFN <<N&2>*<1-M>>,<FCEPSE>>+<IFE N&3-2,<S
  6337	036472	000000	000000		ACINH>>+<IFN N&2,<M*SCE>>+<IFE <N&74>,<BOOL0D>>
  6338	036473	046221	000000			XWD [XWD ADARMI,ARADEN],0
  6339	036474	000000	006000			ARADEN
  6340			000076			N=N+1
  6341
  6342			000000			CMP (N,<0,5,12,17>,M)^	M==0
  6343			000000			CMP (N,<7,13,15,16>,A6)^	A6==0
  6344			000000			CMP (N,<6,11>,A1)^	A1==0
  6345			000000			CMP (N,<1,2,3,6,11,15,16>,A2)^	A2==0
  6346			000000			CMP (N,<4,7,10,13,14>,A3)^	A3==0
  6347			000000			CMP (N,<1,4,5,11,13,16>,A4)^	A4==0
  6348			000000			CMP (N,<2,6,7,10,12,15>,A5)^	A5==0
  6349			000000			BFLGS==A1*ADEQV+A2*ADARPL+A3*ADARMI+A4*ADFMPL+A5*ADFMMI
  6350						XWD BFLGS+A6*ET0,<IFE <N&3>,<<1-M>*FCE>>+<IFN <<N&2>*<1-M>>,<FCEPSE>>+<IFE N&3-2,<S
  6351	036475	000000	000050		ACINH>>+<IFN N&2,<M*SCE>>+<IFE <N&74>,<BOOL0D>>
  6352	036476	046221	000000			XWD [XWD ADARMI,ARADEN],0
  6353	036477	000000	006000			ARADEN
  6354			000077			N=N+1
  6355
  6356			000000			CMP (N,<0,5,12,17>,M)^	M==0
  6357			000000			CMP (N,<7,13,15,16>,A6)^	A6==0
  6358			000000			CMP (N,<6,11>,A1)^	A1==0
  6359			000000			CMP (N,<1,2,3,6,11,15,16>,A2)^	A2==0
  6360			000000			CMP (N,<4,7,10,13,14>,A3)^	A3==0
  6361			000000			CMP (N,<1,4,5,11,13,16>,A4)^	A4==0
  6362			000000			CMP (N,<2,6,7,10,12,15>,A5)^	A5==0
  6363			000000			BFLGS==A1*ADEQV+A2*ADARPL+A3*ADARMI+A4*ADFMPL+A5*ADFMMI
  6364						XWD BFLGS+A6*ET0,<IFE <N&3>,<<1-M>*FCE>>+<IFN <<N&2>*<1-M>>,<FCEPSE>>+<IFE N&3-2,<S
  6365	036500	000000	000010		ACINH>>+<IFN N&2,<M*SCE>>+<IFE <N&74>,<BOOL0D>>
  6366	036501	046221	000000			XWD [XWD ADARMI,ARADEN],0
  6367	036502	000000	006000			ARADEN
  6368			000100			N=N+1
  6369
DBKDA	DECSYSTEM10 KI10 ARITHMETIC RELIABILITY TEST, VER 0,3	MACRO %51(414) 14:29  9-JUN-76 PAGE 18
KI10A1	MAC	 9-JUN-76 13:52		DISPATCH TABLE FOR INSTRUCTIONS		500-577                                *** SEQ 0189

  6370					SUBTTL	DISPATCH TABLE FOR INSTRUCTIONS		500-577
  6371
  6372					;*HALF WORDS							500-577
  6373			000000			N=0
  6374						REPEAT 100,
  6375					<	M=0
  6376						IFE N&33-2,<M=FCEPSE>
  6377						IFE N&3-3,<M=FCEPSE+SAIAC0>
  6378						XWD <IFE N&3-2,<ADFMPL+ET0>>+<IFE N&72-40,<ADFMLP>>+<IFE N&72,^_
  6379					<ADFMRP>>+<IFN N&3-2,<<IFE <N&44>*<N-43>*<N-47>,<ADARLP>>+^_
  6380					<IFE <N&44-40>*<N-3>*<N-7>,<ADARRP>>>>,<IFE N&3,<FCE>>+M+^_
  6381					<IFE N&3-2,<SACINH+<IFN N&30,<SCE>>>>
  6382						XWD [XWD <IFE N&70-40,<ADBRLP>>+<IFE N&70,<ADBRRP>>+^_
  6383					<IFE N&44-40,<ADARRP>>+<IFE N&44,<ADARLP>>,ARADEN+BRAREN],0
  6384						<IFE N&44-44,<ARRARL>>+<IFE N&44-4,<ARLARR>>+<IFE N&44,^_
  6385					<ARLTAD>>+<IFE N&44-40,<ARRTAD>>+<IFE N&50-40,<ARLTAD>>+^_
  6386					<IFE N&50,<ARRTAD>>+<IFE N&30-30,<HWTETS+<IFN <N&4*10+N>&40,<2>>>>
  6387						N=N+1>
  6388			000000			M=0
  6389						IFE N&33-2,<M=FCEPSE>
  6390						IFE N&3-3,<M=FCEPSE+SAIAC0>
  6391						XWD <IFE N&3-2,<ADFMPL+ET0>>+<IFE N&72-40,<ADFMLP>>+<IFE N&72,<ADFMRP>>+<IFN N&3-2,
  6392					<<IFE <N&44>*<N-43>*<N-47>,<ADARLP>>+<IFE <N&44-40>*<N-3>*<N-7>,<ADARRP>>>>,<IFE N&3,<FCE>>+
  6393	036503	002040	000001		M+<IFE N&3-2,<SACINH+<IFN N&30,<SCE>>>>
  6394						XWD [XWD <IFE N&70-40,<ADBRLP>>+<IFE N&70,<ADBRRP>>+<IFE N&44-40,<ADARRP>>+<IFE N&4
  6395	036504	046222	000000		4,<ADARLP>>,ARADEN+BRAREN],0
  6396						<IFE N&44-44,<ARRARL>>+<IFE N&44-4,<ARLARR>>+<IFE N&44,<ARLTAD>>+<IFE N&44-40,<ARRT
  6397					AD>>+<IFE N&50-40,<ARLTAD>>+<IFE N&50,<ARRTAD>>+<IFE N&30-30,<HWTETS+<IFN <N&4*10+N>&40,<2>>
  6398	036505	000000	006000		>>
  6399			000001			N=N+1
  6400			000000			M=0
  6401						IFE N&33-2,<M=FCEPSE>
  6402						IFE N&3-3,<M=FCEPSE+SAIAC0>
  6403						XWD <IFE N&3-2,<ADFMPL+ET0>>+<IFE N&72-40,<ADFMLP>>+<IFE N&72,<ADFMRP>>+<IFN N&3-2,
  6404					<<IFE <N&44>*<N-43>*<N-47>,<ADARLP>>+<IFE <N&44-40>*<N-3>*<N-7>,<ADARRP>>>>,<IFE N&3,<FCE>>+
  6405	036506	002040	000000		M+<IFE N&3-2,<SACINH+<IFN N&30,<SCE>>>>
  6406						XWD [XWD <IFE N&70-40,<ADBRLP>>+<IFE N&70,<ADBRRP>>+<IFE N&44-40,<ADARRP>>+<IFE N&4
  6407	036507	046222	000000		4,<ADARLP>>,ARADEN+BRAREN],0
  6408						<IFE N&44-44,<ARRARL>>+<IFE N&44-4,<ARLARR>>+<IFE N&44,<ARLTAD>>+<IFE N&44-40,<ARRT
  6409					AD>>+<IFE N&50-40,<ARLTAD>>+<IFE N&50,<ARRTAD>>+<IFE N&30-30,<HWTETS+<IFN <N&4*10+N>&40,<2>>
  6410	036510	000000	006000		>>
  6411			000002			N=N+1
  6412			000000			M=0
  6413			000003			IFE N&33-2,<M=FCEPSE>
  6414						IFE N&3-3,<M=FCEPSE+SAIAC0>
  6415						XWD <IFE N&3-2,<ADFMPL+ET0>>+<IFE N&72-40,<ADFMLP>>+<IFE N&72,<ADFMRP>>+<IFN N&3-2,
  6416					<<IFE <N&44>*<N-43>*<N-47>,<ADARLP>>+<IFE <N&44-40>*<N-3>*<N-7>,<ADARRP>>>>,<IFE N&3,<FCE>>+
  6417	036511	006001	000043		M+<IFE N&3-2,<SACINH+<IFN N&30,<SCE>>>>
  6418						XWD [XWD <IFE N&70-40,<ADBRLP>>+<IFE N&70,<ADBRRP>>+<IFE N&44-40,<ADARRP>>+<IFE N&4
  6419	036512	046222	000000		4,<ADARLP>>,ARADEN+BRAREN],0
  6420						<IFE N&44-44,<ARRARL>>+<IFE N&44-4,<ARLARR>>+<IFE N&44,<ARLTAD>>+<IFE N&44-40,<ARRT
  6421					AD>>+<IFE N&50-40,<ARLTAD>>+<IFE N&50,<ARRTAD>>+<IFE N&30-30,<HWTETS+<IFN <N&4*10+N>&40,<2>>
  6422	036513	000000	006000		>>
  6423			000003			N=N+1
  6424			000000			M=0
DBKDA	DECSYSTEM10 KI10 ARITHMETIC RELIABILITY TEST, VER 0,3	MACRO %51(414) 14:29  9-JUN-76 PAGE 18-1
KI10A1	MAC	 9-JUN-76 13:52		DISPATCH TABLE FOR INSTRUCTIONS		500-577                                *** SEQ 0190

  6425						IFE N&33-2,<M=FCEPSE>
  6426			000143			IFE N&3-3,<M=FCEPSE+SAIAC0>
  6427						XWD <IFE N&3-2,<ADFMPL+ET0>>+<IFE N&72-40,<ADFMLP>>+<IFE N&72,<ADFMRP>>+<IFN N&3-2,
  6428					<<IFE <N&44>*<N-43>*<N-47>,<ADARLP>>+<IFE <N&44-40>*<N-3>*<N-7>,<ADARRP>>>>,<IFE N&3,<FCE>>+
  6429	036514	000060	000143		M+<IFE N&3-2,<SACINH+<IFN N&30,<SCE>>>>
  6430						XWD [XWD <IFE N&70-40,<ADBRLP>>+<IFE N&70,<ADBRRP>>+<IFE N&44-40,<ADARRP>>+<IFE N&4
  6431	036515	046222	000000		4,<ADARLP>>,ARADEN+BRAREN],0
  6432						<IFE N&44-44,<ARRARL>>+<IFE N&44-4,<ARLARR>>+<IFE N&44,<ARLTAD>>+<IFE N&44-40,<ARRT
  6433					AD>>+<IFE N&50-40,<ARLTAD>>+<IFE N&50,<ARRTAD>>+<IFE N&30-30,<HWTETS+<IFN <N&4*10+N>&40,<2>>
  6434	036516	000000	006000		>>
  6435			000004			N=N+1
  6436			000000			M=0
  6437						IFE N&33-2,<M=FCEPSE>
  6438						IFE N&3-3,<M=FCEPSE+SAIAC0>
  6439						XWD <IFE N&3-2,<ADFMPL+ET0>>+<IFE N&72-40,<ADFMLP>>+<IFE N&72,<ADFMRP>>+<IFN N&3-2,
  6440					<<IFE <N&44>*<N-43>*<N-47>,<ADARLP>>+<IFE <N&44-40>*<N-3>*<N-7>,<ADARRP>>>>,<IFE N&3,<FCE>>+
  6441	036517	002000	000001		M+<IFE N&3-2,<SACINH+<IFN N&30,<SCE>>>>
  6442						XWD [XWD <IFE N&70-40,<ADBRLP>>+<IFE N&70,<ADBRRP>>+<IFE N&44-40,<ADARRP>>+<IFE N&4
  6443	036520	046223	000000		4,<ADARLP>>,ARADEN+BRAREN],0
  6444						<IFE N&44-44,<ARRARL>>+<IFE N&44-4,<ARLARR>>+<IFE N&44,<ARLTAD>>+<IFE N&44-40,<ARRT
  6445					AD>>+<IFE N&50-40,<ARLTAD>>+<IFE N&50,<ARRTAD>>+<IFE N&30-30,<HWTETS+<IFN <N&4*10+N>&40,<2>>
  6446	036521	000000	024000		>>
  6447			000005			N=N+1
  6448			000000			M=0
  6449						IFE N&33-2,<M=FCEPSE>
  6450						IFE N&3-3,<M=FCEPSE+SAIAC0>
  6451						XWD <IFE N&3-2,<ADFMPL+ET0>>+<IFE N&72-40,<ADFMLP>>+<IFE N&72,<ADFMRP>>+<IFN N&3-2,
  6452					<<IFE <N&44>*<N-43>*<N-47>,<ADARLP>>+<IFE <N&44-40>*<N-3>*<N-7>,<ADARRP>>>>,<IFE N&3,<FCE>>+
  6453	036522	002000	000000		M+<IFE N&3-2,<SACINH+<IFN N&30,<SCE>>>>
  6454						XWD [XWD <IFE N&70-40,<ADBRLP>>+<IFE N&70,<ADBRRP>>+<IFE N&44-40,<ADARRP>>+<IFE N&4
  6455	036523	046223	000000		4,<ADARLP>>,ARADEN+BRAREN],0
  6456						<IFE N&44-44,<ARRARL>>+<IFE N&44-4,<ARLARR>>+<IFE N&44,<ARLTAD>>+<IFE N&44-40,<ARRT
  6457					AD>>+<IFE N&50-40,<ARLTAD>>+<IFE N&50,<ARRTAD>>+<IFE N&30-30,<HWTETS+<IFN <N&4*10+N>&40,<2>>
  6458	036524	000000	024000		>>
  6459			000006			N=N+1
  6460			000000			M=0
  6461			000003			IFE N&33-2,<M=FCEPSE>
  6462						IFE N&3-3,<M=FCEPSE+SAIAC0>
  6463						XWD <IFE N&3-2,<ADFMPL+ET0>>+<IFE N&72-40,<ADFMLP>>+<IFE N&72,<ADFMRP>>+<IFN N&3-2,
  6464					<<IFE <N&44>*<N-43>*<N-47>,<ADARLP>>+<IFE <N&44-40>*<N-3>*<N-7>,<ADARRP>>>>,<IFE N&3,<FCE>>+
  6465	036525	006001	000043		M+<IFE N&3-2,<SACINH+<IFN N&30,<SCE>>>>
  6466						XWD [XWD <IFE N&70-40,<ADBRLP>>+<IFE N&70,<ADBRRP>>+<IFE N&44-40,<ADARRP>>+<IFE N&4
  6467	036526	046223	000000		4,<ADARLP>>,ARADEN+BRAREN],0
  6468						<IFE N&44-44,<ARRARL>>+<IFE N&44-4,<ARLARR>>+<IFE N&44,<ARLTAD>>+<IFE N&44-40,<ARRT
  6469					AD>>+<IFE N&50-40,<ARLTAD>>+<IFE N&50,<ARRTAD>>+<IFE N&30-30,<HWTETS+<IFN <N&4*10+N>&40,<2>>
  6470	036527	000000	024000		>>
  6471			000007			N=N+1
  6472			000000			M=0
  6473						IFE N&33-2,<M=FCEPSE>
  6474			000143			IFE N&3-3,<M=FCEPSE+SAIAC0>
  6475						XWD <IFE N&3-2,<ADFMPL+ET0>>+<IFE N&72-40,<ADFMLP>>+<IFE N&72,<ADFMRP>>+<IFN N&3-2,
  6476					<<IFE <N&44>*<N-43>*<N-47>,<ADARLP>>+<IFE <N&44-40>*<N-3>*<N-7>,<ADARRP>>>>,<IFE N&3,<FCE>>+
  6477	036530	000020	000143		M+<IFE N&3-2,<SACINH+<IFN N&30,<SCE>>>>
  6478						XWD [XWD <IFE N&70-40,<ADBRLP>>+<IFE N&70,<ADBRRP>>+<IFE N&44-40,<ADARRP>>+<IFE N&4
  6479	036531	046223	000000		4,<ADARLP>>,ARADEN+BRAREN],0
DBKDA	DECSYSTEM10 KI10 ARITHMETIC RELIABILITY TEST, VER 0,3	MACRO %51(414) 14:29  9-JUN-76 PAGE 18-2
KI10A1	MAC	 9-JUN-76 13:52		DISPATCH TABLE FOR INSTRUCTIONS		500-577                                *** SEQ 0191

  6480						<IFE N&44-44,<ARRARL>>+<IFE N&44-4,<ARLARR>>+<IFE N&44,<ARLTAD>>+<IFE N&44-40,<ARRT
  6481					AD>>+<IFE N&50-40,<ARLTAD>>+<IFE N&50,<ARRTAD>>+<IFE N&30-30,<HWTETS+<IFN <N&4*10+N>&40,<2>>
  6482	036532	000000	024000		>>
  6483			000010			N=N+1
  6484			000000			M=0
  6485						IFE N&33-2,<M=FCEPSE>
  6486						IFE N&3-3,<M=FCEPSE+SAIAC0>
  6487						XWD <IFE N&3-2,<ADFMPL+ET0>>+<IFE N&72-40,<ADFMLP>>+<IFE N&72,<ADFMRP>>+<IFN N&3-2,
  6488					<<IFE <N&44>*<N-43>*<N-47>,<ADARLP>>+<IFE <N&44-40>*<N-3>*<N-7>,<ADARRP>>>>,<IFE N&3,<FCE>>+
  6489	036533	000040	000001		M+<IFE N&3-2,<SACINH+<IFN N&30,<SCE>>>>
  6490						XWD [XWD <IFE N&70-40,<ADBRLP>>+<IFE N&70,<ADBRRP>>+<IFE N&44-40,<ADARRP>>+<IFE N&4
  6491	036534	046224	000000		4,<ADARLP>>,ARADEN+BRAREN],0
  6492						<IFE N&44-44,<ARRARL>>+<IFE N&44-4,<ARLARR>>+<IFE N&44,<ARLTAD>>+<IFE N&44-40,<ARRT
  6493					AD>>+<IFE N&50-40,<ARLTAD>>+<IFE N&50,<ARRTAD>>+<IFE N&30-30,<HWTETS+<IFN <N&4*10+N>&40,<2>>
  6494	036535	000000	002000		>>
  6495			000011			N=N+1
  6496			000000			M=0
  6497						IFE N&33-2,<M=FCEPSE>
  6498						IFE N&3-3,<M=FCEPSE+SAIAC0>
  6499						XWD <IFE N&3-2,<ADFMPL+ET0>>+<IFE N&72-40,<ADFMLP>>+<IFE N&72,<ADFMRP>>+<IFN N&3-2,
  6500					<<IFE <N&44>*<N-43>*<N-47>,<ADARLP>>+<IFE <N&44-40>*<N-3>*<N-7>,<ADARRP>>>>,<IFE N&3,<FCE>>+
  6501	036536	000040	000000		M+<IFE N&3-2,<SACINH+<IFN N&30,<SCE>>>>
  6502						XWD [XWD <IFE N&70-40,<ADBRLP>>+<IFE N&70,<ADBRRP>>+<IFE N&44-40,<ADARRP>>+<IFE N&4
  6503	036537	046224	000000		4,<ADARLP>>,ARADEN+BRAREN],0
  6504						<IFE N&44-44,<ARRARL>>+<IFE N&44-4,<ARLARR>>+<IFE N&44,<ARLTAD>>+<IFE N&44-40,<ARRT
  6505					AD>>+<IFE N&50-40,<ARLTAD>>+<IFE N&50,<ARRTAD>>+<IFE N&30-30,<HWTETS+<IFN <N&4*10+N>&40,<2>>
  6506	036540	000000	002000		>>
  6507			000012			N=N+1
  6508			000000			M=0
  6509						IFE N&33-2,<M=FCEPSE>
  6510						IFE N&3-3,<M=FCEPSE+SAIAC0>
  6511						XWD <IFE N&3-2,<ADFMPL+ET0>>+<IFE N&72-40,<ADFMLP>>+<IFE N&72,<ADFMRP>>+<IFN N&3-2,
  6512					<<IFE <N&44>*<N-43>*<N-47>,<ADARLP>>+<IFE <N&44-40>*<N-3>*<N-7>,<ADARRP>>>>,<IFE N&3,<FCE>>+
  6513	036541	006001	000050		M+<IFE N&3-2,<SACINH+<IFN N&30,<SCE>>>>
  6514						XWD [XWD <IFE N&70-40,<ADBRLP>>+<IFE N&70,<ADBRRP>>+<IFE N&44-40,<ADARRP>>+<IFE N&4
  6515	036542	046224	000000		4,<ADARLP>>,ARADEN+BRAREN],0
  6516						<IFE N&44-44,<ARRARL>>+<IFE N&44-4,<ARLARR>>+<IFE N&44,<ARLTAD>>+<IFE N&44-40,<ARRT
  6517					AD>>+<IFE N&50-40,<ARLTAD>>+<IFE N&50,<ARRTAD>>+<IFE N&30-30,<HWTETS+<IFN <N&4*10+N>&40,<2>>
  6518	036543	000000	002000		>>
  6519			000013			N=N+1
  6520			000000			M=0
  6521						IFE N&33-2,<M=FCEPSE>
  6522			000143			IFE N&3-3,<M=FCEPSE+SAIAC0>
  6523						XWD <IFE N&3-2,<ADFMPL+ET0>>+<IFE N&72-40,<ADFMLP>>+<IFE N&72,<ADFMRP>>+<IFN N&3-2,
  6524					<<IFE <N&44>*<N-43>*<N-47>,<ADARLP>>+<IFE <N&44-40>*<N-3>*<N-7>,<ADARRP>>>>,<IFE N&3,<FCE>>+
  6525	036544	000040	000143		M+<IFE N&3-2,<SACINH+<IFN N&30,<SCE>>>>
  6526						XWD [XWD <IFE N&70-40,<ADBRLP>>+<IFE N&70,<ADBRRP>>+<IFE N&44-40,<ADARRP>>+<IFE N&4
  6527	036545	046224	000000		4,<ADARLP>>,ARADEN+BRAREN],0
  6528						<IFE N&44-44,<ARRARL>>+<IFE N&44-4,<ARLARR>>+<IFE N&44,<ARLTAD>>+<IFE N&44-40,<ARRT
  6529					AD>>+<IFE N&50-40,<ARLTAD>>+<IFE N&50,<ARRTAD>>+<IFE N&30-30,<HWTETS+<IFN <N&4*10+N>&40,<2>>
  6530	036546	000000	002000		>>
  6531			000014			N=N+1
  6532			000000			M=0
  6533						IFE N&33-2,<M=FCEPSE>
  6534						IFE N&3-3,<M=FCEPSE+SAIAC0>
DBKDA	DECSYSTEM10 KI10 ARITHMETIC RELIABILITY TEST, VER 0,3	MACRO %51(414) 14:29  9-JUN-76 PAGE 18-3
KI10A1	MAC	 9-JUN-76 13:52		DISPATCH TABLE FOR INSTRUCTIONS		500-577                                *** SEQ 0192

  6535						XWD <IFE N&3-2,<ADFMPL+ET0>>+<IFE N&72-40,<ADFMLP>>+<IFE N&72,<ADFMRP>>+<IFN N&3-2,
  6536					<<IFE <N&44>*<N-43>*<N-47>,<ADARLP>>+<IFE <N&44-40>*<N-3>*<N-7>,<ADARRP>>>>,<IFE N&3,<FCE>>+
  6537	036547	000000	000001		M+<IFE N&3-2,<SACINH+<IFN N&30,<SCE>>>>
  6538						XWD [XWD <IFE N&70-40,<ADBRLP>>+<IFE N&70,<ADBRRP>>+<IFE N&44-40,<ADARRP>>+<IFE N&4
  6539	036550	046225	000000		4,<ADARLP>>,ARADEN+BRAREN],0
  6540						<IFE N&44-44,<ARRARL>>+<IFE N&44-4,<ARLARR>>+<IFE N&44,<ARLTAD>>+<IFE N&44-40,<ARRT
  6541					AD>>+<IFE N&50-40,<ARLTAD>>+<IFE N&50,<ARRTAD>>+<IFE N&30-30,<HWTETS+<IFN <N&4*10+N>&40,<2>>
  6542	036551	000000	020000		>>
  6543			000015			N=N+1
  6544			000000			M=0
  6545						IFE N&33-2,<M=FCEPSE>
  6546						IFE N&3-3,<M=FCEPSE+SAIAC0>
  6547						XWD <IFE N&3-2,<ADFMPL+ET0>>+<IFE N&72-40,<ADFMLP>>+<IFE N&72,<ADFMRP>>+<IFN N&3-2,
  6548					<<IFE <N&44>*<N-43>*<N-47>,<ADARLP>>+<IFE <N&44-40>*<N-3>*<N-7>,<ADARRP>>>>,<IFE N&3,<FCE>>+
  6549	036552	000000	000000		M+<IFE N&3-2,<SACINH+<IFN N&30,<SCE>>>>
  6550						XWD [XWD <IFE N&70-40,<ADBRLP>>+<IFE N&70,<ADBRRP>>+<IFE N&44-40,<ADARRP>>+<IFE N&4
  6551	036553	046225	000000		4,<ADARLP>>,ARADEN+BRAREN],0
  6552						<IFE N&44-44,<ARRARL>>+<IFE N&44-4,<ARLARR>>+<IFE N&44,<ARLTAD>>+<IFE N&44-40,<ARRT
  6553					AD>>+<IFE N&50-40,<ARLTAD>>+<IFE N&50,<ARRTAD>>+<IFE N&30-30,<HWTETS+<IFN <N&4*10+N>&40,<2>>
  6554	036554	000000	020000		>>
  6555			000016			N=N+1
  6556			000000			M=0
  6557						IFE N&33-2,<M=FCEPSE>
  6558						IFE N&3-3,<M=FCEPSE+SAIAC0>
  6559						XWD <IFE N&3-2,<ADFMPL+ET0>>+<IFE N&72-40,<ADFMLP>>+<IFE N&72,<ADFMRP>>+<IFN N&3-2,
  6560					<<IFE <N&44>*<N-43>*<N-47>,<ADARLP>>+<IFE <N&44-40>*<N-3>*<N-7>,<ADARRP>>>>,<IFE N&3,<FCE>>+
  6561	036555	006001	000050		M+<IFE N&3-2,<SACINH+<IFN N&30,<SCE>>>>
  6562						XWD [XWD <IFE N&70-40,<ADBRLP>>+<IFE N&70,<ADBRRP>>+<IFE N&44-40,<ADARRP>>+<IFE N&4
  6563	036556	046225	000000		4,<ADARLP>>,ARADEN+BRAREN],0
  6564						<IFE N&44-44,<ARRARL>>+<IFE N&44-4,<ARLARR>>+<IFE N&44,<ARLTAD>>+<IFE N&44-40,<ARRT
  6565					AD>>+<IFE N&50-40,<ARLTAD>>+<IFE N&50,<ARRTAD>>+<IFE N&30-30,<HWTETS+<IFN <N&4*10+N>&40,<2>>
  6566	036557	000000	020000		>>
  6567			000017			N=N+1
  6568			000000			M=0
  6569						IFE N&33-2,<M=FCEPSE>
  6570			000143			IFE N&3-3,<M=FCEPSE+SAIAC0>
  6571						XWD <IFE N&3-2,<ADFMPL+ET0>>+<IFE N&72-40,<ADFMLP>>+<IFE N&72,<ADFMRP>>+<IFN N&3-2,
  6572					<<IFE <N&44>*<N-43>*<N-47>,<ADARLP>>+<IFE <N&44-40>*<N-3>*<N-7>,<ADARRP>>>>,<IFE N&3,<FCE>>+
  6573	036560	000000	000143		M+<IFE N&3-2,<SACINH+<IFN N&30,<SCE>>>>
  6574						XWD [XWD <IFE N&70-40,<ADBRLP>>+<IFE N&70,<ADBRRP>>+<IFE N&44-40,<ADARRP>>+<IFE N&4
  6575	036561	046225	000000		4,<ADARLP>>,ARADEN+BRAREN],0
  6576						<IFE N&44-44,<ARRARL>>+<IFE N&44-4,<ARLARR>>+<IFE N&44,<ARLTAD>>+<IFE N&44-40,<ARRT
  6577					AD>>+<IFE N&50-40,<ARLTAD>>+<IFE N&50,<ARRTAD>>+<IFE N&30-30,<HWTETS+<IFN <N&4*10+N>&40,<2>>
  6578	036562	000000	020000		>>
  6579			000020			N=N+1
  6580			000000			M=0
  6581						IFE N&33-2,<M=FCEPSE>
  6582						IFE N&3-3,<M=FCEPSE+SAIAC0>
  6583						XWD <IFE N&3-2,<ADFMPL+ET0>>+<IFE N&72-40,<ADFMLP>>+<IFE N&72,<ADFMRP>>+<IFN N&3-2,
  6584					<<IFE <N&44>*<N-43>*<N-47>,<ADARLP>>+<IFE <N&44-40>*<N-3>*<N-7>,<ADARRP>>>>,<IFE N&3,<FCE>>+
  6585	036563	000040	000001		M+<IFE N&3-2,<SACINH+<IFN N&30,<SCE>>>>
  6586						XWD [XWD <IFE N&70-40,<ADBRLP>>+<IFE N&70,<ADBRRP>>+<IFE N&44-40,<ADARRP>>+<IFE N&4
  6587	036564	046224	000000		4,<ADARLP>>,ARADEN+BRAREN],0
  6588						<IFE N&44-44,<ARRARL>>+<IFE N&44-4,<ARLARR>>+<IFE N&44,<ARLTAD>>+<IFE N&44-40,<ARRT
  6589					AD>>+<IFE N&50-40,<ARLTAD>>+<IFE N&50,<ARRTAD>>+<IFE N&30-30,<HWTETS+<IFN <N&4*10+N>&40,<2>>
DBKDA	DECSYSTEM10 KI10 ARITHMETIC RELIABILITY TEST, VER 0,3	MACRO %51(414) 14:29  9-JUN-76 PAGE 18-4
KI10A1	MAC	 9-JUN-76 13:52		DISPATCH TABLE FOR INSTRUCTIONS		500-577                                *** SEQ 0193

  6590	036565	000000	006000		>>
  6591			000021			N=N+1
  6592			000000			M=0
  6593						IFE N&33-2,<M=FCEPSE>
  6594						IFE N&3-3,<M=FCEPSE+SAIAC0>
  6595						XWD <IFE N&3-2,<ADFMPL+ET0>>+<IFE N&72-40,<ADFMLP>>+<IFE N&72,<ADFMRP>>+<IFN N&3-2,
  6596					<<IFE <N&44>*<N-43>*<N-47>,<ADARLP>>+<IFE <N&44-40>*<N-3>*<N-7>,<ADARRP>>>>,<IFE N&3,<FCE>>+
  6597	036566	000040	000000		M+<IFE N&3-2,<SACINH+<IFN N&30,<SCE>>>>
  6598						XWD [XWD <IFE N&70-40,<ADBRLP>>+<IFE N&70,<ADBRRP>>+<IFE N&44-40,<ADARRP>>+<IFE N&4
  6599	036567	046224	000000		4,<ADARLP>>,ARADEN+BRAREN],0
  6600						<IFE N&44-44,<ARRARL>>+<IFE N&44-4,<ARLARR>>+<IFE N&44,<ARLTAD>>+<IFE N&44-40,<ARRT
  6601					AD>>+<IFE N&50-40,<ARLTAD>>+<IFE N&50,<ARRTAD>>+<IFE N&30-30,<HWTETS+<IFN <N&4*10+N>&40,<2>>
  6602	036570	000000	006000		>>
  6603			000022			N=N+1
  6604			000000			M=0
  6605						IFE N&33-2,<M=FCEPSE>
  6606						IFE N&3-3,<M=FCEPSE+SAIAC0>
  6607						XWD <IFE N&3-2,<ADFMPL+ET0>>+<IFE N&72-40,<ADFMLP>>+<IFE N&72,<ADFMRP>>+<IFN N&3-2,
  6608					<<IFE <N&44>*<N-43>*<N-47>,<ADARLP>>+<IFE <N&44-40>*<N-3>*<N-7>,<ADARRP>>>>,<IFE N&3,<FCE>>+
  6609	036571	006001	000050		M+<IFE N&3-2,<SACINH+<IFN N&30,<SCE>>>>
  6610						XWD [XWD <IFE N&70-40,<ADBRLP>>+<IFE N&70,<ADBRRP>>+<IFE N&44-40,<ADARRP>>+<IFE N&4
  6611	036572	046224	000000		4,<ADARLP>>,ARADEN+BRAREN],0
  6612						<IFE N&44-44,<ARRARL>>+<IFE N&44-4,<ARLARR>>+<IFE N&44,<ARLTAD>>+<IFE N&44-40,<ARRT
  6613					AD>>+<IFE N&50-40,<ARLTAD>>+<IFE N&50,<ARRTAD>>+<IFE N&30-30,<HWTETS+<IFN <N&4*10+N>&40,<2>>
  6614	036573	000000	006000		>>
  6615			000023			N=N+1
  6616			000000			M=0
  6617						IFE N&33-2,<M=FCEPSE>
  6618			000143			IFE N&3-3,<M=FCEPSE+SAIAC0>
  6619						XWD <IFE N&3-2,<ADFMPL+ET0>>+<IFE N&72-40,<ADFMLP>>+<IFE N&72,<ADFMRP>>+<IFN N&3-2,
  6620					<<IFE <N&44>*<N-43>*<N-47>,<ADARLP>>+<IFE <N&44-40>*<N-3>*<N-7>,<ADARRP>>>>,<IFE N&3,<FCE>>+
  6621	036574	000040	000143		M+<IFE N&3-2,<SACINH+<IFN N&30,<SCE>>>>
  6622						XWD [XWD <IFE N&70-40,<ADBRLP>>+<IFE N&70,<ADBRRP>>+<IFE N&44-40,<ADARRP>>+<IFE N&4
  6623	036575	046224	000000		4,<ADARLP>>,ARADEN+BRAREN],0
  6624						<IFE N&44-44,<ARRARL>>+<IFE N&44-4,<ARLARR>>+<IFE N&44,<ARLTAD>>+<IFE N&44-40,<ARRT
  6625					AD>>+<IFE N&50-40,<ARLTAD>>+<IFE N&50,<ARRTAD>>+<IFE N&30-30,<HWTETS+<IFN <N&4*10+N>&40,<2>>
  6626	036576	000000	006000		>>
  6627			000024			N=N+1
  6628			000000			M=0
  6629						IFE N&33-2,<M=FCEPSE>
  6630						IFE N&3-3,<M=FCEPSE+SAIAC0>
  6631						XWD <IFE N&3-2,<ADFMPL+ET0>>+<IFE N&72-40,<ADFMLP>>+<IFE N&72,<ADFMRP>>+<IFN N&3-2,
  6632					<<IFE <N&44>*<N-43>*<N-47>,<ADARLP>>+<IFE <N&44-40>*<N-3>*<N-7>,<ADARRP>>>>,<IFE N&3,<FCE>>+
  6633	036577	000000	000001		M+<IFE N&3-2,<SACINH+<IFN N&30,<SCE>>>>
  6634						XWD [XWD <IFE N&70-40,<ADBRLP>>+<IFE N&70,<ADBRRP>>+<IFE N&44-40,<ADARRP>>+<IFE N&4
  6635	036600	046225	000000		4,<ADARLP>>,ARADEN+BRAREN],0
  6636						<IFE N&44-44,<ARRARL>>+<IFE N&44-4,<ARLARR>>+<IFE N&44,<ARLTAD>>+<IFE N&44-40,<ARRT
  6637					AD>>+<IFE N&50-40,<ARLTAD>>+<IFE N&50,<ARRTAD>>+<IFE N&30-30,<HWTETS+<IFN <N&4*10+N>&40,<2>>
  6638	036601	000000	024000		>>
  6639			000025			N=N+1
  6640			000000			M=0
  6641						IFE N&33-2,<M=FCEPSE>
  6642						IFE N&3-3,<M=FCEPSE+SAIAC0>
  6643						XWD <IFE N&3-2,<ADFMPL+ET0>>+<IFE N&72-40,<ADFMLP>>+<IFE N&72,<ADFMRP>>+<IFN N&3-2,
  6644					<<IFE <N&44>*<N-43>*<N-47>,<ADARLP>>+<IFE <N&44-40>*<N-3>*<N-7>,<ADARRP>>>>,<IFE N&3,<FCE>>+
DBKDA	DECSYSTEM10 KI10 ARITHMETIC RELIABILITY TEST, VER 0,3	MACRO %51(414) 14:29  9-JUN-76 PAGE 18-5
KI10A1	MAC	 9-JUN-76 13:52		DISPATCH TABLE FOR INSTRUCTIONS		500-577                                *** SEQ 0194

  6645	036602	000000	000000		M+<IFE N&3-2,<SACINH+<IFN N&30,<SCE>>>>
  6646						XWD [XWD <IFE N&70-40,<ADBRLP>>+<IFE N&70,<ADBRRP>>+<IFE N&44-40,<ADARRP>>+<IFE N&4
  6647	036603	046225	000000		4,<ADARLP>>,ARADEN+BRAREN],0
  6648						<IFE N&44-44,<ARRARL>>+<IFE N&44-4,<ARLARR>>+<IFE N&44,<ARLTAD>>+<IFE N&44-40,<ARRT
  6649					AD>>+<IFE N&50-40,<ARLTAD>>+<IFE N&50,<ARRTAD>>+<IFE N&30-30,<HWTETS+<IFN <N&4*10+N>&40,<2>>
  6650	036604	000000	024000		>>
  6651			000026			N=N+1
  6652			000000			M=0
  6653						IFE N&33-2,<M=FCEPSE>
  6654						IFE N&3-3,<M=FCEPSE+SAIAC0>
  6655						XWD <IFE N&3-2,<ADFMPL+ET0>>+<IFE N&72-40,<ADFMLP>>+<IFE N&72,<ADFMRP>>+<IFN N&3-2,
  6656					<<IFE <N&44>*<N-43>*<N-47>,<ADARLP>>+<IFE <N&44-40>*<N-3>*<N-7>,<ADARRP>>>>,<IFE N&3,<FCE>>+
  6657	036605	006001	000050		M+<IFE N&3-2,<SACINH+<IFN N&30,<SCE>>>>
  6658						XWD [XWD <IFE N&70-40,<ADBRLP>>+<IFE N&70,<ADBRRP>>+<IFE N&44-40,<ADARRP>>+<IFE N&4
  6659	036606	046225	000000		4,<ADARLP>>,ARADEN+BRAREN],0
  6660						<IFE N&44-44,<ARRARL>>+<IFE N&44-4,<ARLARR>>+<IFE N&44,<ARLTAD>>+<IFE N&44-40,<ARRT
  6661					AD>>+<IFE N&50-40,<ARLTAD>>+<IFE N&50,<ARRTAD>>+<IFE N&30-30,<HWTETS+<IFN <N&4*10+N>&40,<2>>
  6662	036607	000000	024000		>>
  6663			000027			N=N+1
  6664			000000			M=0
  6665						IFE N&33-2,<M=FCEPSE>
  6666			000143			IFE N&3-3,<M=FCEPSE+SAIAC0>
  6667						XWD <IFE N&3-2,<ADFMPL+ET0>>+<IFE N&72-40,<ADFMLP>>+<IFE N&72,<ADFMRP>>+<IFN N&3-2,
  6668					<<IFE <N&44>*<N-43>*<N-47>,<ADARLP>>+<IFE <N&44-40>*<N-3>*<N-7>,<ADARRP>>>>,<IFE N&3,<FCE>>+
  6669	036610	000000	000143		M+<IFE N&3-2,<SACINH+<IFN N&30,<SCE>>>>
  6670						XWD [XWD <IFE N&70-40,<ADBRLP>>+<IFE N&70,<ADBRRP>>+<IFE N&44-40,<ADARRP>>+<IFE N&4
  6671	036611	046225	000000		4,<ADARLP>>,ARADEN+BRAREN],0
  6672						<IFE N&44-44,<ARRARL>>+<IFE N&44-4,<ARLARR>>+<IFE N&44,<ARLTAD>>+<IFE N&44-40,<ARRT
  6673					AD>>+<IFE N&50-40,<ARLTAD>>+<IFE N&50,<ARRTAD>>+<IFE N&30-30,<HWTETS+<IFN <N&4*10+N>&40,<2>>
  6674	036612	000000	024000		>>
  6675			000030			N=N+1
  6676			000000			M=0
  6677						IFE N&33-2,<M=FCEPSE>
  6678						IFE N&3-3,<M=FCEPSE+SAIAC0>
  6679						XWD <IFE N&3-2,<ADFMPL+ET0>>+<IFE N&72-40,<ADFMLP>>+<IFE N&72,<ADFMRP>>+<IFN N&3-2,
  6680					<<IFE <N&44>*<N-43>*<N-47>,<ADARLP>>+<IFE <N&44-40>*<N-3>*<N-7>,<ADARRP>>>>,<IFE N&3,<FCE>>+
  6681	036613	000040	000001		M+<IFE N&3-2,<SACINH+<IFN N&30,<SCE>>>>
  6682						XWD [XWD <IFE N&70-40,<ADBRLP>>+<IFE N&70,<ADBRRP>>+<IFE N&44-40,<ADARRP>>+<IFE N&4
  6683	036614	046224	000000		4,<ADARLP>>,ARADEN+BRAREN],0
  6684						<IFE N&44-44,<ARRARL>>+<IFE N&44-4,<ARLARR>>+<IFE N&44,<ARLTAD>>+<IFE N&44-40,<ARRT
  6685					AD>>+<IFE N&50-40,<ARLTAD>>+<IFE N&50,<ARRTAD>>+<IFE N&30-30,<HWTETS+<IFN <N&4*10+N>&40,<2>>
  6686	036615	000000	002065		>>
  6687			000031			N=N+1
  6688			000000			M=0
  6689						IFE N&33-2,<M=FCEPSE>
  6690						IFE N&3-3,<M=FCEPSE+SAIAC0>
  6691						XWD <IFE N&3-2,<ADFMPL+ET0>>+<IFE N&72-40,<ADFMLP>>+<IFE N&72,<ADFMRP>>+<IFN N&3-2,
  6692					<<IFE <N&44>*<N-43>*<N-47>,<ADARLP>>+<IFE <N&44-40>*<N-3>*<N-7>,<ADARRP>>>>,<IFE N&3,<FCE>>+
  6693	036616	000040	000000		M+<IFE N&3-2,<SACINH+<IFN N&30,<SCE>>>>
  6694						XWD [XWD <IFE N&70-40,<ADBRLP>>+<IFE N&70,<ADBRRP>>+<IFE N&44-40,<ADARRP>>+<IFE N&4
  6695	036617	046224	000000		4,<ADARLP>>,ARADEN+BRAREN],0
  6696						<IFE N&44-44,<ARRARL>>+<IFE N&44-4,<ARLARR>>+<IFE N&44,<ARLTAD>>+<IFE N&44-40,<ARRT
  6697					AD>>+<IFE N&50-40,<ARLTAD>>+<IFE N&50,<ARRTAD>>+<IFE N&30-30,<HWTETS+<IFN <N&4*10+N>&40,<2>>
  6698	036620	000000	002065		>>
  6699			000032			N=N+1
DBKDA	DECSYSTEM10 KI10 ARITHMETIC RELIABILITY TEST, VER 0,3	MACRO %51(414) 14:29  9-JUN-76 PAGE 18-6
KI10A1	MAC	 9-JUN-76 13:52		DISPATCH TABLE FOR INSTRUCTIONS		500-577                                *** SEQ 0195

  6700			000000			M=0
  6701						IFE N&33-2,<M=FCEPSE>
  6702						IFE N&3-3,<M=FCEPSE+SAIAC0>
  6703						XWD <IFE N&3-2,<ADFMPL+ET0>>+<IFE N&72-40,<ADFMLP>>+<IFE N&72,<ADFMRP>>+<IFN N&3-2,
  6704					<<IFE <N&44>*<N-43>*<N-47>,<ADARLP>>+<IFE <N&44-40>*<N-3>*<N-7>,<ADARRP>>>>,<IFE N&3,<FCE>>+
  6705	036621	006001	000050		M+<IFE N&3-2,<SACINH+<IFN N&30,<SCE>>>>
  6706						XWD [XWD <IFE N&70-40,<ADBRLP>>+<IFE N&70,<ADBRRP>>+<IFE N&44-40,<ADARRP>>+<IFE N&4
  6707	036622	046224	000000		4,<ADARLP>>,ARADEN+BRAREN],0
  6708						<IFE N&44-44,<ARRARL>>+<IFE N&44-4,<ARLARR>>+<IFE N&44,<ARLTAD>>+<IFE N&44-40,<ARRT
  6709					AD>>+<IFE N&50-40,<ARLTAD>>+<IFE N&50,<ARRTAD>>+<IFE N&30-30,<HWTETS+<IFN <N&4*10+N>&40,<2>>
  6710	036623	000000	002065		>>
  6711			000033			N=N+1
  6712			000000			M=0
  6713						IFE N&33-2,<M=FCEPSE>
  6714			000143			IFE N&3-3,<M=FCEPSE+SAIAC0>
  6715						XWD <IFE N&3-2,<ADFMPL+ET0>>+<IFE N&72-40,<ADFMLP>>+<IFE N&72,<ADFMRP>>+<IFN N&3-2,
  6716					<<IFE <N&44>*<N-43>*<N-47>,<ADARLP>>+<IFE <N&44-40>*<N-3>*<N-7>,<ADARRP>>>>,<IFE N&3,<FCE>>+
  6717	036624	000040	000143		M+<IFE N&3-2,<SACINH+<IFN N&30,<SCE>>>>
  6718						XWD [XWD <IFE N&70-40,<ADBRLP>>+<IFE N&70,<ADBRRP>>+<IFE N&44-40,<ADARRP>>+<IFE N&4
  6719	036625	046224	000000		4,<ADARLP>>,ARADEN+BRAREN],0
  6720						<IFE N&44-44,<ARRARL>>+<IFE N&44-4,<ARLARR>>+<IFE N&44,<ARLTAD>>+<IFE N&44-40,<ARRT
  6721					AD>>+<IFE N&50-40,<ARLTAD>>+<IFE N&50,<ARRTAD>>+<IFE N&30-30,<HWTETS+<IFN <N&4*10+N>&40,<2>>
  6722	036626	000000	002065		>>
  6723			000034			N=N+1
  6724			000000			M=0
  6725						IFE N&33-2,<M=FCEPSE>
  6726						IFE N&3-3,<M=FCEPSE+SAIAC0>
  6727						XWD <IFE N&3-2,<ADFMPL+ET0>>+<IFE N&72-40,<ADFMLP>>+<IFE N&72,<ADFMRP>>+<IFN N&3-2,
  6728					<<IFE <N&44>*<N-43>*<N-47>,<ADARLP>>+<IFE <N&44-40>*<N-3>*<N-7>,<ADARRP>>>>,<IFE N&3,<FCE>>+
  6729	036627	000000	000001		M+<IFE N&3-2,<SACINH+<IFN N&30,<SCE>>>>
  6730						XWD [XWD <IFE N&70-40,<ADBRLP>>+<IFE N&70,<ADBRRP>>+<IFE N&44-40,<ADARRP>>+<IFE N&4
  6731	036630	046225	000000		4,<ADARLP>>,ARADEN+BRAREN],0
  6732						<IFE N&44-44,<ARRARL>>+<IFE N&44-4,<ARLARR>>+<IFE N&44,<ARLTAD>>+<IFE N&44-40,<ARRT
  6733					AD>>+<IFE N&50-40,<ARLTAD>>+<IFE N&50,<ARRTAD>>+<IFE N&30-30,<HWTETS+<IFN <N&4*10+N>&40,<2>>
  6734	036631	000000	020067		>>
  6735			000035			N=N+1
  6736			000000			M=0
  6737						IFE N&33-2,<M=FCEPSE>
  6738						IFE N&3-3,<M=FCEPSE+SAIAC0>
  6739						XWD <IFE N&3-2,<ADFMPL+ET0>>+<IFE N&72-40,<ADFMLP>>+<IFE N&72,<ADFMRP>>+<IFN N&3-2,
  6740					<<IFE <N&44>*<N-43>*<N-47>,<ADARLP>>+<IFE <N&44-40>*<N-3>*<N-7>,<ADARRP>>>>,<IFE N&3,<FCE>>+
  6741	036632	000000	000000		M+<IFE N&3-2,<SACINH+<IFN N&30,<SCE>>>>
  6742						XWD [XWD <IFE N&70-40,<ADBRLP>>+<IFE N&70,<ADBRRP>>+<IFE N&44-40,<ADARRP>>+<IFE N&4
  6743	036633	046225	000000		4,<ADARLP>>,ARADEN+BRAREN],0
  6744						<IFE N&44-44,<ARRARL>>+<IFE N&44-4,<ARLARR>>+<IFE N&44,<ARLTAD>>+<IFE N&44-40,<ARRT
  6745					AD>>+<IFE N&50-40,<ARLTAD>>+<IFE N&50,<ARRTAD>>+<IFE N&30-30,<HWTETS+<IFN <N&4*10+N>&40,<2>>
  6746	036634	000000	020067		>>
  6747			000036			N=N+1
  6748			000000			M=0
  6749						IFE N&33-2,<M=FCEPSE>
  6750						IFE N&3-3,<M=FCEPSE+SAIAC0>
  6751						XWD <IFE N&3-2,<ADFMPL+ET0>>+<IFE N&72-40,<ADFMLP>>+<IFE N&72,<ADFMRP>>+<IFN N&3-2,
  6752					<<IFE <N&44>*<N-43>*<N-47>,<ADARLP>>+<IFE <N&44-40>*<N-3>*<N-7>,<ADARRP>>>>,<IFE N&3,<FCE>>+
  6753	036635	006001	000050		M+<IFE N&3-2,<SACINH+<IFN N&30,<SCE>>>>
  6754						XWD [XWD <IFE N&70-40,<ADBRLP>>+<IFE N&70,<ADBRRP>>+<IFE N&44-40,<ADARRP>>+<IFE N&4
DBKDA	DECSYSTEM10 KI10 ARITHMETIC RELIABILITY TEST, VER 0,3	MACRO %51(414) 14:29  9-JUN-76 PAGE 18-7
KI10A1	MAC	 9-JUN-76 13:52		DISPATCH TABLE FOR INSTRUCTIONS		500-577                                *** SEQ 0196

  6755	036636	046225	000000		4,<ADARLP>>,ARADEN+BRAREN],0
  6756						<IFE N&44-44,<ARRARL>>+<IFE N&44-4,<ARLARR>>+<IFE N&44,<ARLTAD>>+<IFE N&44-40,<ARRT
  6757					AD>>+<IFE N&50-40,<ARLTAD>>+<IFE N&50,<ARRTAD>>+<IFE N&30-30,<HWTETS+<IFN <N&4*10+N>&40,<2>>
  6758	036637	000000	020067		>>
  6759			000037			N=N+1
  6760			000000			M=0
  6761						IFE N&33-2,<M=FCEPSE>
  6762			000143			IFE N&3-3,<M=FCEPSE+SAIAC0>
  6763						XWD <IFE N&3-2,<ADFMPL+ET0>>+<IFE N&72-40,<ADFMLP>>+<IFE N&72,<ADFMRP>>+<IFN N&3-2,
  6764					<<IFE <N&44>*<N-43>*<N-47>,<ADARLP>>+<IFE <N&44-40>*<N-3>*<N-7>,<ADARRP>>>>,<IFE N&3,<FCE>>+
  6765	036640	000000	000143		M+<IFE N&3-2,<SACINH+<IFN N&30,<SCE>>>>
  6766						XWD [XWD <IFE N&70-40,<ADBRLP>>+<IFE N&70,<ADBRRP>>+<IFE N&44-40,<ADARRP>>+<IFE N&4
  6767	036641	046225	000000		4,<ADARLP>>,ARADEN+BRAREN],0
  6768						<IFE N&44-44,<ARRARL>>+<IFE N&44-4,<ARLARR>>+<IFE N&44,<ARLTAD>>+<IFE N&44-40,<ARRT
  6769					AD>>+<IFE N&50-40,<ARLTAD>>+<IFE N&50,<ARRTAD>>+<IFE N&30-30,<HWTETS+<IFN <N&4*10+N>&40,<2>>
  6770	036642	000000	020067		>>
  6771			000040			N=N+1
  6772			000000			M=0
  6773						IFE N&33-2,<M=FCEPSE>
  6774						IFE N&3-3,<M=FCEPSE+SAIAC0>
  6775						XWD <IFE N&3-2,<ADFMPL+ET0>>+<IFE N&72-40,<ADFMLP>>+<IFE N&72,<ADFMRP>>+<IFN N&3-2,
  6776					<<IFE <N&44>*<N-43>*<N-47>,<ADARLP>>+<IFE <N&44-40>*<N-3>*<N-7>,<ADARRP>>>>,<IFE N&3,<FCE>>+
  6777	036643	004020	000001		M+<IFE N&3-2,<SACINH+<IFN N&30,<SCE>>>>
  6778						XWD [XWD <IFE N&70-40,<ADBRLP>>+<IFE N&70,<ADBRRP>>+<IFE N&44-40,<ADARRP>>+<IFE N&4
  6779	036644	046226	000000		4,<ADARLP>>,ARADEN+BRAREN],0
  6780						<IFE N&44-44,<ARRARL>>+<IFE N&44-4,<ARLARR>>+<IFE N&44,<ARLTAD>>+<IFE N&44-40,<ARRT
  6781					AD>>+<IFE N&50-40,<ARLTAD>>+<IFE N&50,<ARRTAD>>+<IFE N&30-30,<HWTETS+<IFN <N&4*10+N>&40,<2>>
  6782	036645	000000	006000		>>
  6783			000041			N=N+1
  6784			000000			M=0
  6785						IFE N&33-2,<M=FCEPSE>
  6786						IFE N&3-3,<M=FCEPSE+SAIAC0>
  6787						XWD <IFE N&3-2,<ADFMPL+ET0>>+<IFE N&72-40,<ADFMLP>>+<IFE N&72,<ADFMRP>>+<IFN N&3-2,
  6788					<<IFE <N&44>*<N-43>*<N-47>,<ADARLP>>+<IFE <N&44-40>*<N-3>*<N-7>,<ADARRP>>>>,<IFE N&3,<FCE>>+
  6789	036646	004020	000000		M+<IFE N&3-2,<SACINH+<IFN N&30,<SCE>>>>
  6790						XWD [XWD <IFE N&70-40,<ADBRLP>>+<IFE N&70,<ADBRRP>>+<IFE N&44-40,<ADARRP>>+<IFE N&4
  6791	036647	046226	000000		4,<ADARLP>>,ARADEN+BRAREN],0
  6792						<IFE N&44-44,<ARRARL>>+<IFE N&44-4,<ARLARR>>+<IFE N&44,<ARLTAD>>+<IFE N&44-40,<ARRT
  6793					AD>>+<IFE N&50-40,<ARLTAD>>+<IFE N&50,<ARRTAD>>+<IFE N&30-30,<HWTETS+<IFN <N&4*10+N>&40,<2>>
  6794	036650	000000	006000		>>
  6795			000042			N=N+1
  6796			000000			M=0
  6797			000003			IFE N&33-2,<M=FCEPSE>
  6798						IFE N&3-3,<M=FCEPSE+SAIAC0>
  6799						XWD <IFE N&3-2,<ADFMPL+ET0>>+<IFE N&72-40,<ADFMLP>>+<IFE N&72,<ADFMRP>>+<IFN N&3-2,
  6800					<<IFE <N&44>*<N-43>*<N-47>,<ADARLP>>+<IFE <N&44-40>*<N-3>*<N-7>,<ADARRP>>>>,<IFE N&3,<FCE>>+
  6801	036651	006001	000043		M+<IFE N&3-2,<SACINH+<IFN N&30,<SCE>>>>
  6802						XWD [XWD <IFE N&70-40,<ADBRLP>>+<IFE N&70,<ADBRRP>>+<IFE N&44-40,<ADARRP>>+<IFE N&4
  6803	036652	046226	000000		4,<ADARLP>>,ARADEN+BRAREN],0
  6804						<IFE N&44-44,<ARRARL>>+<IFE N&44-4,<ARLARR>>+<IFE N&44,<ARLTAD>>+<IFE N&44-40,<ARRT
  6805					AD>>+<IFE N&50-40,<ARLTAD>>+<IFE N&50,<ARRTAD>>+<IFE N&30-30,<HWTETS+<IFN <N&4*10+N>&40,<2>>
  6806	036653	000000	006000		>>
  6807			000043			N=N+1
  6808			000000			M=0
  6809						IFE N&33-2,<M=FCEPSE>
DBKDA	DECSYSTEM10 KI10 ARITHMETIC RELIABILITY TEST, VER 0,3	MACRO %51(414) 14:29  9-JUN-76 PAGE 18-8
KI10A1	MAC	 9-JUN-76 13:52		DISPATCH TABLE FOR INSTRUCTIONS		500-577                                *** SEQ 0197

  6810			000143			IFE N&3-3,<M=FCEPSE+SAIAC0>
  6811						XWD <IFE N&3-2,<ADFMPL+ET0>>+<IFE N&72-40,<ADFMLP>>+<IFE N&72,<ADFMRP>>+<IFN N&3-2,
  6812					<<IFE <N&44>*<N-43>*<N-47>,<ADARLP>>+<IFE <N&44-40>*<N-3>*<N-7>,<ADARRP>>>>,<IFE N&3,<FCE>>+
  6813	036654	000060	000143		M+<IFE N&3-2,<SACINH+<IFN N&30,<SCE>>>>
  6814						XWD [XWD <IFE N&70-40,<ADBRLP>>+<IFE N&70,<ADBRRP>>+<IFE N&44-40,<ADARRP>>+<IFE N&4
  6815	036655	046226	000000		4,<ADARLP>>,ARADEN+BRAREN],0
  6816						<IFE N&44-44,<ARRARL>>+<IFE N&44-4,<ARLARR>>+<IFE N&44,<ARLTAD>>+<IFE N&44-40,<ARRT
  6817					AD>>+<IFE N&50-40,<ARLTAD>>+<IFE N&50,<ARRTAD>>+<IFE N&30-30,<HWTETS+<IFN <N&4*10+N>&40,<2>>
  6818	036656	000000	006000		>>
  6819			000044			N=N+1
  6820			000000			M=0
  6821						IFE N&33-2,<M=FCEPSE>
  6822						IFE N&3-3,<M=FCEPSE+SAIAC0>
  6823						XWD <IFE N&3-2,<ADFMPL+ET0>>+<IFE N&72-40,<ADFMLP>>+<IFE N&72,<ADFMRP>>+<IFN N&3-2,
  6824					<<IFE <N&44>*<N-43>*<N-47>,<ADARLP>>+<IFE <N&44-40>*<N-3>*<N-7>,<ADARRP>>>>,<IFE N&3,<FCE>>+
  6825	036657	004000	000001		M+<IFE N&3-2,<SACINH+<IFN N&30,<SCE>>>>
  6826						XWD [XWD <IFE N&70-40,<ADBRLP>>+<IFE N&70,<ADBRRP>>+<IFE N&44-40,<ADARRP>>+<IFE N&4
  6827	036660	046227	000000		4,<ADARLP>>,ARADEN+BRAREN],0
  6828						<IFE N&44-44,<ARRARL>>+<IFE N&44-4,<ARLARR>>+<IFE N&44,<ARLTAD>>+<IFE N&44-40,<ARRT
  6829					AD>>+<IFE N&50-40,<ARLTAD>>+<IFE N&50,<ARRTAD>>+<IFE N&30-30,<HWTETS+<IFN <N&4*10+N>&40,<2>>
  6830	036661	000000	012000		>>
  6831			000045			N=N+1
  6832			000000			M=0
  6833						IFE N&33-2,<M=FCEPSE>
  6834						IFE N&3-3,<M=FCEPSE+SAIAC0>
  6835						XWD <IFE N&3-2,<ADFMPL+ET0>>+<IFE N&72-40,<ADFMLP>>+<IFE N&72,<ADFMRP>>+<IFN N&3-2,
  6836					<<IFE <N&44>*<N-43>*<N-47>,<ADARLP>>+<IFE <N&44-40>*<N-3>*<N-7>,<ADARRP>>>>,<IFE N&3,<FCE>>+
  6837	036662	004000	000000		M+<IFE N&3-2,<SACINH+<IFN N&30,<SCE>>>>
  6838						XWD [XWD <IFE N&70-40,<ADBRLP>>+<IFE N&70,<ADBRRP>>+<IFE N&44-40,<ADARRP>>+<IFE N&4
  6839	036663	046227	000000		4,<ADARLP>>,ARADEN+BRAREN],0
  6840						<IFE N&44-44,<ARRARL>>+<IFE N&44-4,<ARLARR>>+<IFE N&44,<ARLTAD>>+<IFE N&44-40,<ARRT
  6841					AD>>+<IFE N&50-40,<ARLTAD>>+<IFE N&50,<ARRTAD>>+<IFE N&30-30,<HWTETS+<IFN <N&4*10+N>&40,<2>>
  6842	036664	000000	012000		>>
  6843			000046			N=N+1
  6844			000000			M=0
  6845			000003			IFE N&33-2,<M=FCEPSE>
  6846						IFE N&3-3,<M=FCEPSE+SAIAC0>
  6847						XWD <IFE N&3-2,<ADFMPL+ET0>>+<IFE N&72-40,<ADFMLP>>+<IFE N&72,<ADFMRP>>+<IFN N&3-2,
  6848					<<IFE <N&44>*<N-43>*<N-47>,<ADARLP>>+<IFE <N&44-40>*<N-3>*<N-7>,<ADARRP>>>>,<IFE N&3,<FCE>>+
  6849	036665	006001	000043		M+<IFE N&3-2,<SACINH+<IFN N&30,<SCE>>>>
  6850						XWD [XWD <IFE N&70-40,<ADBRLP>>+<IFE N&70,<ADBRRP>>+<IFE N&44-40,<ADARRP>>+<IFE N&4
  6851	036666	046227	000000		4,<ADARLP>>,ARADEN+BRAREN],0
  6852						<IFE N&44-44,<ARRARL>>+<IFE N&44-4,<ARLARR>>+<IFE N&44,<ARLTAD>>+<IFE N&44-40,<ARRT
  6853					AD>>+<IFE N&50-40,<ARLTAD>>+<IFE N&50,<ARRTAD>>+<IFE N&30-30,<HWTETS+<IFN <N&4*10+N>&40,<2>>
  6854	036667	000000	012000		>>
  6855			000047			N=N+1
  6856			000000			M=0
  6857						IFE N&33-2,<M=FCEPSE>
  6858			000143			IFE N&3-3,<M=FCEPSE+SAIAC0>
  6859						XWD <IFE N&3-2,<ADFMPL+ET0>>+<IFE N&72-40,<ADFMLP>>+<IFE N&72,<ADFMRP>>+<IFN N&3-2,
  6860					<<IFE <N&44>*<N-43>*<N-47>,<ADARLP>>+<IFE <N&44-40>*<N-3>*<N-7>,<ADARRP>>>>,<IFE N&3,<FCE>>+
  6861	036670	000040	000143		M+<IFE N&3-2,<SACINH+<IFN N&30,<SCE>>>>
  6862						XWD [XWD <IFE N&70-40,<ADBRLP>>+<IFE N&70,<ADBRRP>>+<IFE N&44-40,<ADARRP>>+<IFE N&4
  6863	036671	046227	000000		4,<ADARLP>>,ARADEN+BRAREN],0
  6864						<IFE N&44-44,<ARRARL>>+<IFE N&44-4,<ARLARR>>+<IFE N&44,<ARLTAD>>+<IFE N&44-40,<ARRT
DBKDA	DECSYSTEM10 KI10 ARITHMETIC RELIABILITY TEST, VER 0,3	MACRO %51(414) 14:29  9-JUN-76 PAGE 18-9
KI10A1	MAC	 9-JUN-76 13:52		DISPATCH TABLE FOR INSTRUCTIONS		500-577                                *** SEQ 0198

  6865					AD>>+<IFE N&50-40,<ARLTAD>>+<IFE N&50,<ARRTAD>>+<IFE N&30-30,<HWTETS+<IFN <N&4*10+N>&40,<2>>
  6866	036672	000000	012000		>>
  6867			000050			N=N+1
  6868			000000			M=0
  6869						IFE N&33-2,<M=FCEPSE>
  6870						IFE N&3-3,<M=FCEPSE+SAIAC0>
  6871						XWD <IFE N&3-2,<ADFMPL+ET0>>+<IFE N&72-40,<ADFMLP>>+<IFE N&72,<ADFMRP>>+<IFN N&3-2,
  6872					<<IFE <N&44>*<N-43>*<N-47>,<ADARLP>>+<IFE <N&44-40>*<N-3>*<N-7>,<ADARRP>>>>,<IFE N&3,<FCE>>+
  6873	036673	000020	000001		M+<IFE N&3-2,<SACINH+<IFN N&30,<SCE>>>>
  6874						XWD [XWD <IFE N&70-40,<ADBRLP>>+<IFE N&70,<ADBRRP>>+<IFE N&44-40,<ADARRP>>+<IFE N&4
  6875	036674	046230	000000		4,<ADARLP>>,ARADEN+BRAREN],0
  6876						<IFE N&44-44,<ARRARL>>+<IFE N&44-4,<ARLARR>>+<IFE N&44,<ARLTAD>>+<IFE N&44-40,<ARRT
  6877					AD>>+<IFE N&50-40,<ARLTAD>>+<IFE N&50,<ARRTAD>>+<IFE N&30-30,<HWTETS+<IFN <N&4*10+N>&40,<2>>
  6878	036675	000000	004000		>>
  6879			000051			N=N+1
  6880			000000			M=0
  6881						IFE N&33-2,<M=FCEPSE>
  6882						IFE N&3-3,<M=FCEPSE+SAIAC0>
  6883						XWD <IFE N&3-2,<ADFMPL+ET0>>+<IFE N&72-40,<ADFMLP>>+<IFE N&72,<ADFMRP>>+<IFN N&3-2,
  6884					<<IFE <N&44>*<N-43>*<N-47>,<ADARLP>>+<IFE <N&44-40>*<N-3>*<N-7>,<ADARRP>>>>,<IFE N&3,<FCE>>+
  6885	036676	000020	000000		M+<IFE N&3-2,<SACINH+<IFN N&30,<SCE>>>>
  6886						XWD [XWD <IFE N&70-40,<ADBRLP>>+<IFE N&70,<ADBRRP>>+<IFE N&44-40,<ADARRP>>+<IFE N&4
  6887	036677	046230	000000		4,<ADARLP>>,ARADEN+BRAREN],0
  6888						<IFE N&44-44,<ARRARL>>+<IFE N&44-4,<ARLARR>>+<IFE N&44,<ARLTAD>>+<IFE N&44-40,<ARRT
  6889					AD>>+<IFE N&50-40,<ARLTAD>>+<IFE N&50,<ARRTAD>>+<IFE N&30-30,<HWTETS+<IFN <N&4*10+N>&40,<2>>
  6890	036700	000000	004000		>>
  6891			000052			N=N+1
  6892			000000			M=0
  6893						IFE N&33-2,<M=FCEPSE>
  6894						IFE N&3-3,<M=FCEPSE+SAIAC0>
  6895						XWD <IFE N&3-2,<ADFMPL+ET0>>+<IFE N&72-40,<ADFMLP>>+<IFE N&72,<ADFMRP>>+<IFN N&3-2,
  6896					<<IFE <N&44>*<N-43>*<N-47>,<ADARLP>>+<IFE <N&44-40>*<N-3>*<N-7>,<ADARRP>>>>,<IFE N&3,<FCE>>+
  6897	036701	006001	000050		M+<IFE N&3-2,<SACINH+<IFN N&30,<SCE>>>>
  6898						XWD [XWD <IFE N&70-40,<ADBRLP>>+<IFE N&70,<ADBRRP>>+<IFE N&44-40,<ADARRP>>+<IFE N&4
  6899	036702	046230	000000		4,<ADARLP>>,ARADEN+BRAREN],0
  6900						<IFE N&44-44,<ARRARL>>+<IFE N&44-4,<ARLARR>>+<IFE N&44,<ARLTAD>>+<IFE N&44-40,<ARRT
  6901					AD>>+<IFE N&50-40,<ARLTAD>>+<IFE N&50,<ARRTAD>>+<IFE N&30-30,<HWTETS+<IFN <N&4*10+N>&40,<2>>
  6902	036703	000000	004000		>>
  6903			000053			N=N+1
  6904			000000			M=0
  6905						IFE N&33-2,<M=FCEPSE>
  6906			000143			IFE N&3-3,<M=FCEPSE+SAIAC0>
  6907						XWD <IFE N&3-2,<ADFMPL+ET0>>+<IFE N&72-40,<ADFMLP>>+<IFE N&72,<ADFMRP>>+<IFN N&3-2,
  6908					<<IFE <N&44>*<N-43>*<N-47>,<ADARLP>>+<IFE <N&44-40>*<N-3>*<N-7>,<ADARRP>>>>,<IFE N&3,<FCE>>+
  6909	036704	000020	000143		M+<IFE N&3-2,<SACINH+<IFN N&30,<SCE>>>>
  6910						XWD [XWD <IFE N&70-40,<ADBRLP>>+<IFE N&70,<ADBRRP>>+<IFE N&44-40,<ADARRP>>+<IFE N&4
  6911	036705	046230	000000		4,<ADARLP>>,ARADEN+BRAREN],0
  6912						<IFE N&44-44,<ARRARL>>+<IFE N&44-4,<ARLARR>>+<IFE N&44,<ARLTAD>>+<IFE N&44-40,<ARRT
  6913					AD>>+<IFE N&50-40,<ARLTAD>>+<IFE N&50,<ARRTAD>>+<IFE N&30-30,<HWTETS+<IFN <N&4*10+N>&40,<2>>
  6914	036706	000000	004000		>>
  6915			000054			N=N+1
  6916			000000			M=0
  6917						IFE N&33-2,<M=FCEPSE>
  6918						IFE N&3-3,<M=FCEPSE+SAIAC0>
  6919						XWD <IFE N&3-2,<ADFMPL+ET0>>+<IFE N&72-40,<ADFMLP>>+<IFE N&72,<ADFMRP>>+<IFN N&3-2,
DBKDA	DECSYSTEM10 KI10 ARITHMETIC RELIABILITY TEST, VER 0,3	MACRO %51(414) 14:29  9-JUN-76 PAGE 18-10
KI10A1	MAC	 9-JUN-76 13:52		DISPATCH TABLE FOR INSTRUCTIONS		500-577                                *** SEQ 0199

  6920					<<IFE <N&44>*<N-43>*<N-47>,<ADARLP>>+<IFE <N&44-40>*<N-3>*<N-7>,<ADARRP>>>>,<IFE N&3,<FCE>>+
  6921	036707	000000	000001		M+<IFE N&3-2,<SACINH+<IFN N&30,<SCE>>>>
  6922						XWD [XWD <IFE N&70-40,<ADBRLP>>+<IFE N&70,<ADBRRP>>+<IFE N&44-40,<ADARRP>>+<IFE N&4
  6923	036710	046225	000000		4,<ADARLP>>,ARADEN+BRAREN],0
  6924						<IFE N&44-44,<ARRARL>>+<IFE N&44-4,<ARLARR>>+<IFE N&44,<ARLTAD>>+<IFE N&44-40,<ARRT
  6925					AD>>+<IFE N&50-40,<ARLTAD>>+<IFE N&50,<ARRTAD>>+<IFE N&30-30,<HWTETS+<IFN <N&4*10+N>&40,<2>>
  6926	036711	000000	010000		>>
  6927			000055			N=N+1
  6928			000000			M=0
  6929						IFE N&33-2,<M=FCEPSE>
  6930						IFE N&3-3,<M=FCEPSE+SAIAC0>
  6931						XWD <IFE N&3-2,<ADFMPL+ET0>>+<IFE N&72-40,<ADFMLP>>+<IFE N&72,<ADFMRP>>+<IFN N&3-2,
  6932					<<IFE <N&44>*<N-43>*<N-47>,<ADARLP>>+<IFE <N&44-40>*<N-3>*<N-7>,<ADARRP>>>>,<IFE N&3,<FCE>>+
  6933	036712	000000	000000		M+<IFE N&3-2,<SACINH+<IFN N&30,<SCE>>>>
  6934						XWD [XWD <IFE N&70-40,<ADBRLP>>+<IFE N&70,<ADBRRP>>+<IFE N&44-40,<ADARRP>>+<IFE N&4
  6935	036713	046225	000000		4,<ADARLP>>,ARADEN+BRAREN],0
  6936						<IFE N&44-44,<ARRARL>>+<IFE N&44-4,<ARLARR>>+<IFE N&44,<ARLTAD>>+<IFE N&44-40,<ARRT
  6937					AD>>+<IFE N&50-40,<ARLTAD>>+<IFE N&50,<ARRTAD>>+<IFE N&30-30,<HWTETS+<IFN <N&4*10+N>&40,<2>>
  6938	036714	000000	010000		>>
  6939			000056			N=N+1
  6940			000000			M=0
  6941						IFE N&33-2,<M=FCEPSE>
  6942						IFE N&3-3,<M=FCEPSE+SAIAC0>
  6943						XWD <IFE N&3-2,<ADFMPL+ET0>>+<IFE N&72-40,<ADFMLP>>+<IFE N&72,<ADFMRP>>+<IFN N&3-2,
  6944					<<IFE <N&44>*<N-43>*<N-47>,<ADARLP>>+<IFE <N&44-40>*<N-3>*<N-7>,<ADARRP>>>>,<IFE N&3,<FCE>>+
  6945	036715	006001	000050		M+<IFE N&3-2,<SACINH+<IFN N&30,<SCE>>>>
  6946						XWD [XWD <IFE N&70-40,<ADBRLP>>+<IFE N&70,<ADBRRP>>+<IFE N&44-40,<ADARRP>>+<IFE N&4
  6947	036716	046225	000000		4,<ADARLP>>,ARADEN+BRAREN],0
  6948						<IFE N&44-44,<ARRARL>>+<IFE N&44-4,<ARLARR>>+<IFE N&44,<ARLTAD>>+<IFE N&44-40,<ARRT
  6949					AD>>+<IFE N&50-40,<ARLTAD>>+<IFE N&50,<ARRTAD>>+<IFE N&30-30,<HWTETS+<IFN <N&4*10+N>&40,<2>>
  6950	036717	000000	010000		>>
  6951			000057			N=N+1
  6952			000000			M=0
  6953						IFE N&33-2,<M=FCEPSE>
  6954			000143			IFE N&3-3,<M=FCEPSE+SAIAC0>
  6955						XWD <IFE N&3-2,<ADFMPL+ET0>>+<IFE N&72-40,<ADFMLP>>+<IFE N&72,<ADFMRP>>+<IFN N&3-2,
  6956					<<IFE <N&44>*<N-43>*<N-47>,<ADARLP>>+<IFE <N&44-40>*<N-3>*<N-7>,<ADARRP>>>>,<IFE N&3,<FCE>>+
  6957	036720	000000	000143		M+<IFE N&3-2,<SACINH+<IFN N&30,<SCE>>>>
  6958						XWD [XWD <IFE N&70-40,<ADBRLP>>+<IFE N&70,<ADBRRP>>+<IFE N&44-40,<ADARRP>>+<IFE N&4
  6959	036721	046225	000000		4,<ADARLP>>,ARADEN+BRAREN],0
  6960						<IFE N&44-44,<ARRARL>>+<IFE N&44-4,<ARLARR>>+<IFE N&44,<ARLTAD>>+<IFE N&44-40,<ARRT
  6961					AD>>+<IFE N&50-40,<ARLTAD>>+<IFE N&50,<ARRTAD>>+<IFE N&30-30,<HWTETS+<IFN <N&4*10+N>&40,<2>>
  6962	036722	000000	010000		>>
  6963			000060			N=N+1
  6964			000000			M=0
  6965						IFE N&33-2,<M=FCEPSE>
  6966						IFE N&3-3,<M=FCEPSE+SAIAC0>
  6967						XWD <IFE N&3-2,<ADFMPL+ET0>>+<IFE N&72-40,<ADFMLP>>+<IFE N&72,<ADFMRP>>+<IFN N&3-2,
  6968					<<IFE <N&44>*<N-43>*<N-47>,<ADARLP>>+<IFE <N&44-40>*<N-3>*<N-7>,<ADARRP>>>>,<IFE N&3,<FCE>>+
  6969	036723	000020	000001		M+<IFE N&3-2,<SACINH+<IFN N&30,<SCE>>>>
  6970						XWD [XWD <IFE N&70-40,<ADBRLP>>+<IFE N&70,<ADBRRP>>+<IFE N&44-40,<ADARRP>>+<IFE N&4
  6971	036724	046230	000000		4,<ADARLP>>,ARADEN+BRAREN],0
  6972						<IFE N&44-44,<ARRARL>>+<IFE N&44-4,<ARLARR>>+<IFE N&44,<ARLTAD>>+<IFE N&44-40,<ARRT
  6973					AD>>+<IFE N&50-40,<ARLTAD>>+<IFE N&50,<ARRTAD>>+<IFE N&30-30,<HWTETS+<IFN <N&4*10+N>&40,<2>>
  6974	036725	000000	006000		>>
DBKDA	DECSYSTEM10 KI10 ARITHMETIC RELIABILITY TEST, VER 0,3	MACRO %51(414) 14:29  9-JUN-76 PAGE 18-11
KI10A1	MAC	 9-JUN-76 13:52		DISPATCH TABLE FOR INSTRUCTIONS		500-577                                *** SEQ 0200

  6975			000061			N=N+1
  6976			000000			M=0
  6977						IFE N&33-2,<M=FCEPSE>
  6978						IFE N&3-3,<M=FCEPSE+SAIAC0>
  6979						XWD <IFE N&3-2,<ADFMPL+ET0>>+<IFE N&72-40,<ADFMLP>>+<IFE N&72,<ADFMRP>>+<IFN N&3-2,
  6980					<<IFE <N&44>*<N-43>*<N-47>,<ADARLP>>+<IFE <N&44-40>*<N-3>*<N-7>,<ADARRP>>>>,<IFE N&3,<FCE>>+
  6981	036726	000020	000000		M+<IFE N&3-2,<SACINH+<IFN N&30,<SCE>>>>
  6982						XWD [XWD <IFE N&70-40,<ADBRLP>>+<IFE N&70,<ADBRRP>>+<IFE N&44-40,<ADARRP>>+<IFE N&4
  6983	036727	046230	000000		4,<ADARLP>>,ARADEN+BRAREN],0
  6984						<IFE N&44-44,<ARRARL>>+<IFE N&44-4,<ARLARR>>+<IFE N&44,<ARLTAD>>+<IFE N&44-40,<ARRT
  6985					AD>>+<IFE N&50-40,<ARLTAD>>+<IFE N&50,<ARRTAD>>+<IFE N&30-30,<HWTETS+<IFN <N&4*10+N>&40,<2>>
  6986	036730	000000	006000		>>
  6987			000062			N=N+1
  6988			000000			M=0
  6989						IFE N&33-2,<M=FCEPSE>
  6990						IFE N&3-3,<M=FCEPSE+SAIAC0>
  6991						XWD <IFE N&3-2,<ADFMPL+ET0>>+<IFE N&72-40,<ADFMLP>>+<IFE N&72,<ADFMRP>>+<IFN N&3-2,
  6992					<<IFE <N&44>*<N-43>*<N-47>,<ADARLP>>+<IFE <N&44-40>*<N-3>*<N-7>,<ADARRP>>>>,<IFE N&3,<FCE>>+
  6993	036731	006001	000050		M+<IFE N&3-2,<SACINH+<IFN N&30,<SCE>>>>
  6994						XWD [XWD <IFE N&70-40,<ADBRLP>>+<IFE N&70,<ADBRRP>>+<IFE N&44-40,<ADARRP>>+<IFE N&4
  6995	036732	046230	000000		4,<ADARLP>>,ARADEN+BRAREN],0
  6996						<IFE N&44-44,<ARRARL>>+<IFE N&44-4,<ARLARR>>+<IFE N&44,<ARLTAD>>+<IFE N&44-40,<ARRT
  6997					AD>>+<IFE N&50-40,<ARLTAD>>+<IFE N&50,<ARRTAD>>+<IFE N&30-30,<HWTETS+<IFN <N&4*10+N>&40,<2>>
  6998	036733	000000	006000		>>
  6999			000063			N=N+1
  7000			000000			M=0
  7001						IFE N&33-2,<M=FCEPSE>
  7002			000143			IFE N&3-3,<M=FCEPSE+SAIAC0>
  7003						XWD <IFE N&3-2,<ADFMPL+ET0>>+<IFE N&72-40,<ADFMLP>>+<IFE N&72,<ADFMRP>>+<IFN N&3-2,
  7004					<<IFE <N&44>*<N-43>*<N-47>,<ADARLP>>+<IFE <N&44-40>*<N-3>*<N-7>,<ADARRP>>>>,<IFE N&3,<FCE>>+
  7005	036734	000020	000143		M+<IFE N&3-2,<SACINH+<IFN N&30,<SCE>>>>
  7006						XWD [XWD <IFE N&70-40,<ADBRLP>>+<IFE N&70,<ADBRRP>>+<IFE N&44-40,<ADARRP>>+<IFE N&4
  7007	036735	046230	000000		4,<ADARLP>>,ARADEN+BRAREN],0
  7008						<IFE N&44-44,<ARRARL>>+<IFE N&44-4,<ARLARR>>+<IFE N&44,<ARLTAD>>+<IFE N&44-40,<ARRT
  7009					AD>>+<IFE N&50-40,<ARLTAD>>+<IFE N&50,<ARRTAD>>+<IFE N&30-30,<HWTETS+<IFN <N&4*10+N>&40,<2>>
  7010	036736	000000	006000		>>
  7011			000064			N=N+1
  7012			000000			M=0
  7013						IFE N&33-2,<M=FCEPSE>
  7014						IFE N&3-3,<M=FCEPSE+SAIAC0>
  7015						XWD <IFE N&3-2,<ADFMPL+ET0>>+<IFE N&72-40,<ADFMLP>>+<IFE N&72,<ADFMRP>>+<IFN N&3-2,
  7016					<<IFE <N&44>*<N-43>*<N-47>,<ADARLP>>+<IFE <N&44-40>*<N-3>*<N-7>,<ADARRP>>>>,<IFE N&3,<FCE>>+
  7017	036737	000000	000001		M+<IFE N&3-2,<SACINH+<IFN N&30,<SCE>>>>
  7018						XWD [XWD <IFE N&70-40,<ADBRLP>>+<IFE N&70,<ADBRRP>>+<IFE N&44-40,<ADARRP>>+<IFE N&4
  7019	036740	046225	000000		4,<ADARLP>>,ARADEN+BRAREN],0
  7020						<IFE N&44-44,<ARRARL>>+<IFE N&44-4,<ARLARR>>+<IFE N&44,<ARLTAD>>+<IFE N&44-40,<ARRT
  7021					AD>>+<IFE N&50-40,<ARLTAD>>+<IFE N&50,<ARRTAD>>+<IFE N&30-30,<HWTETS+<IFN <N&4*10+N>&40,<2>>
  7022	036741	000000	012000		>>
  7023			000065			N=N+1
  7024			000000			M=0
  7025						IFE N&33-2,<M=FCEPSE>
  7026						IFE N&3-3,<M=FCEPSE+SAIAC0>
  7027						XWD <IFE N&3-2,<ADFMPL+ET0>>+<IFE N&72-40,<ADFMLP>>+<IFE N&72,<ADFMRP>>+<IFN N&3-2,
  7028					<<IFE <N&44>*<N-43>*<N-47>,<ADARLP>>+<IFE <N&44-40>*<N-3>*<N-7>,<ADARRP>>>>,<IFE N&3,<FCE>>+
  7029	036742	000000	000000		M+<IFE N&3-2,<SACINH+<IFN N&30,<SCE>>>>
DBKDA	DECSYSTEM10 KI10 ARITHMETIC RELIABILITY TEST, VER 0,3	MACRO %51(414) 14:29  9-JUN-76 PAGE 18-12
KI10A1	MAC	 9-JUN-76 13:52		DISPATCH TABLE FOR INSTRUCTIONS		500-577                                *** SEQ 0201

  7030						XWD [XWD <IFE N&70-40,<ADBRLP>>+<IFE N&70,<ADBRRP>>+<IFE N&44-40,<ADARRP>>+<IFE N&4
  7031	036743	046225	000000		4,<ADARLP>>,ARADEN+BRAREN],0
  7032						<IFE N&44-44,<ARRARL>>+<IFE N&44-4,<ARLARR>>+<IFE N&44,<ARLTAD>>+<IFE N&44-40,<ARRT
  7033					AD>>+<IFE N&50-40,<ARLTAD>>+<IFE N&50,<ARRTAD>>+<IFE N&30-30,<HWTETS+<IFN <N&4*10+N>&40,<2>>
  7034	036744	000000	012000		>>
  7035			000066			N=N+1
  7036			000000			M=0
  7037						IFE N&33-2,<M=FCEPSE>
  7038						IFE N&3-3,<M=FCEPSE+SAIAC0>
  7039						XWD <IFE N&3-2,<ADFMPL+ET0>>+<IFE N&72-40,<ADFMLP>>+<IFE N&72,<ADFMRP>>+<IFN N&3-2,
  7040					<<IFE <N&44>*<N-43>*<N-47>,<ADARLP>>+<IFE <N&44-40>*<N-3>*<N-7>,<ADARRP>>>>,<IFE N&3,<FCE>>+
  7041	036745	006001	000050		M+<IFE N&3-2,<SACINH+<IFN N&30,<SCE>>>>
  7042						XWD [XWD <IFE N&70-40,<ADBRLP>>+<IFE N&70,<ADBRRP>>+<IFE N&44-40,<ADARRP>>+<IFE N&4
  7043	036746	046225	000000		4,<ADARLP>>,ARADEN+BRAREN],0
  7044						<IFE N&44-44,<ARRARL>>+<IFE N&44-4,<ARLARR>>+<IFE N&44,<ARLTAD>>+<IFE N&44-40,<ARRT
  7045					AD>>+<IFE N&50-40,<ARLTAD>>+<IFE N&50,<ARRTAD>>+<IFE N&30-30,<HWTETS+<IFN <N&4*10+N>&40,<2>>
  7046	036747	000000	012000		>>
  7047			000067			N=N+1
  7048			000000			M=0
  7049						IFE N&33-2,<M=FCEPSE>
  7050			000143			IFE N&3-3,<M=FCEPSE+SAIAC0>
  7051						XWD <IFE N&3-2,<ADFMPL+ET0>>+<IFE N&72-40,<ADFMLP>>+<IFE N&72,<ADFMRP>>+<IFN N&3-2,
  7052					<<IFE <N&44>*<N-43>*<N-47>,<ADARLP>>+<IFE <N&44-40>*<N-3>*<N-7>,<ADARRP>>>>,<IFE N&3,<FCE>>+
  7053	036750	000000	000143		M+<IFE N&3-2,<SACINH+<IFN N&30,<SCE>>>>
  7054						XWD [XWD <IFE N&70-40,<ADBRLP>>+<IFE N&70,<ADBRRP>>+<IFE N&44-40,<ADARRP>>+<IFE N&4
  7055	036751	046225	000000		4,<ADARLP>>,ARADEN+BRAREN],0
  7056						<IFE N&44-44,<ARRARL>>+<IFE N&44-4,<ARLARR>>+<IFE N&44,<ARLTAD>>+<IFE N&44-40,<ARRT
  7057					AD>>+<IFE N&50-40,<ARLTAD>>+<IFE N&50,<ARRTAD>>+<IFE N&30-30,<HWTETS+<IFN <N&4*10+N>&40,<2>>
  7058	036752	000000	012000		>>
  7059			000070			N=N+1
  7060			000000			M=0
  7061						IFE N&33-2,<M=FCEPSE>
  7062						IFE N&3-3,<M=FCEPSE+SAIAC0>
  7063						XWD <IFE N&3-2,<ADFMPL+ET0>>+<IFE N&72-40,<ADFMLP>>+<IFE N&72,<ADFMRP>>+<IFN N&3-2,
  7064					<<IFE <N&44>*<N-43>*<N-47>,<ADARLP>>+<IFE <N&44-40>*<N-3>*<N-7>,<ADARRP>>>>,<IFE N&3,<FCE>>+
  7065	036753	000020	000001		M+<IFE N&3-2,<SACINH+<IFN N&30,<SCE>>>>
  7066						XWD [XWD <IFE N&70-40,<ADBRLP>>+<IFE N&70,<ADBRRP>>+<IFE N&44-40,<ADARRP>>+<IFE N&4
  7067	036754	046230	000000		4,<ADARLP>>,ARADEN+BRAREN],0
  7068						<IFE N&44-44,<ARRARL>>+<IFE N&44-4,<ARLARR>>+<IFE N&44,<ARLTAD>>+<IFE N&44-40,<ARRT
  7069					AD>>+<IFE N&50-40,<ARLTAD>>+<IFE N&50,<ARRTAD>>+<IFE N&30-30,<HWTETS+<IFN <N&4*10+N>&40,<2>>
  7070	036755	000000	004067		>>
  7071			000071			N=N+1
  7072			000000			M=0
  7073						IFE N&33-2,<M=FCEPSE>
  7074						IFE N&3-3,<M=FCEPSE+SAIAC0>
  7075						XWD <IFE N&3-2,<ADFMPL+ET0>>+<IFE N&72-40,<ADFMLP>>+<IFE N&72,<ADFMRP>>+<IFN N&3-2,
  7076					<<IFE <N&44>*<N-43>*<N-47>,<ADARLP>>+<IFE <N&44-40>*<N-3>*<N-7>,<ADARRP>>>>,<IFE N&3,<FCE>>+
  7077	036756	000020	000000		M+<IFE N&3-2,<SACINH+<IFN N&30,<SCE>>>>
  7078						XWD [XWD <IFE N&70-40,<ADBRLP>>+<IFE N&70,<ADBRRP>>+<IFE N&44-40,<ADARRP>>+<IFE N&4
  7079	036757	046230	000000		4,<ADARLP>>,ARADEN+BRAREN],0
  7080						<IFE N&44-44,<ARRARL>>+<IFE N&44-4,<ARLARR>>+<IFE N&44,<ARLTAD>>+<IFE N&44-40,<ARRT
  7081					AD>>+<IFE N&50-40,<ARLTAD>>+<IFE N&50,<ARRTAD>>+<IFE N&30-30,<HWTETS+<IFN <N&4*10+N>&40,<2>>
  7082	036760	000000	004067		>>
  7083			000072			N=N+1
  7084			000000			M=0
DBKDA	DECSYSTEM10 KI10 ARITHMETIC RELIABILITY TEST, VER 0,3	MACRO %51(414) 14:29  9-JUN-76 PAGE 18-13
KI10A1	MAC	 9-JUN-76 13:52		DISPATCH TABLE FOR INSTRUCTIONS		500-577                                *** SEQ 0202

  7085						IFE N&33-2,<M=FCEPSE>
  7086						IFE N&3-3,<M=FCEPSE+SAIAC0>
  7087						XWD <IFE N&3-2,<ADFMPL+ET0>>+<IFE N&72-40,<ADFMLP>>+<IFE N&72,<ADFMRP>>+<IFN N&3-2,
  7088					<<IFE <N&44>*<N-43>*<N-47>,<ADARLP>>+<IFE <N&44-40>*<N-3>*<N-7>,<ADARRP>>>>,<IFE N&3,<FCE>>+
  7089	036761	006001	000050		M+<IFE N&3-2,<SACINH+<IFN N&30,<SCE>>>>
  7090						XWD [XWD <IFE N&70-40,<ADBRLP>>+<IFE N&70,<ADBRRP>>+<IFE N&44-40,<ADARRP>>+<IFE N&4
  7091	036762	046230	000000		4,<ADARLP>>,ARADEN+BRAREN],0
  7092						<IFE N&44-44,<ARRARL>>+<IFE N&44-4,<ARLARR>>+<IFE N&44,<ARLTAD>>+<IFE N&44-40,<ARRT
  7093					AD>>+<IFE N&50-40,<ARLTAD>>+<IFE N&50,<ARRTAD>>+<IFE N&30-30,<HWTETS+<IFN <N&4*10+N>&40,<2>>
  7094	036763	000000	004067		>>
  7095			000073			N=N+1
  7096			000000			M=0
  7097						IFE N&33-2,<M=FCEPSE>
  7098			000143			IFE N&3-3,<M=FCEPSE+SAIAC0>
  7099						XWD <IFE N&3-2,<ADFMPL+ET0>>+<IFE N&72-40,<ADFMLP>>+<IFE N&72,<ADFMRP>>+<IFN N&3-2,
  7100					<<IFE <N&44>*<N-43>*<N-47>,<ADARLP>>+<IFE <N&44-40>*<N-3>*<N-7>,<ADARRP>>>>,<IFE N&3,<FCE>>+
  7101	036764	000020	000143		M+<IFE N&3-2,<SACINH+<IFN N&30,<SCE>>>>
  7102						XWD [XWD <IFE N&70-40,<ADBRLP>>+<IFE N&70,<ADBRRP>>+<IFE N&44-40,<ADARRP>>+<IFE N&4
  7103	036765	046230	000000		4,<ADARLP>>,ARADEN+BRAREN],0
  7104						<IFE N&44-44,<ARRARL>>+<IFE N&44-4,<ARLARR>>+<IFE N&44,<ARLTAD>>+<IFE N&44-40,<ARRT
  7105					AD>>+<IFE N&50-40,<ARLTAD>>+<IFE N&50,<ARRTAD>>+<IFE N&30-30,<HWTETS+<IFN <N&4*10+N>&40,<2>>
  7106	036766	000000	004067		>>
  7107			000074			N=N+1
  7108			000000			M=0
  7109						IFE N&33-2,<M=FCEPSE>
  7110						IFE N&3-3,<M=FCEPSE+SAIAC0>
  7111						XWD <IFE N&3-2,<ADFMPL+ET0>>+<IFE N&72-40,<ADFMLP>>+<IFE N&72,<ADFMRP>>+<IFN N&3-2,
  7112					<<IFE <N&44>*<N-43>*<N-47>,<ADARLP>>+<IFE <N&44-40>*<N-3>*<N-7>,<ADARRP>>>>,<IFE N&3,<FCE>>+
  7113	036767	000000	000001		M+<IFE N&3-2,<SACINH+<IFN N&30,<SCE>>>>
  7114						XWD [XWD <IFE N&70-40,<ADBRLP>>+<IFE N&70,<ADBRRP>>+<IFE N&44-40,<ADARRP>>+<IFE N&4
  7115	036770	046225	000000		4,<ADARLP>>,ARADEN+BRAREN],0
  7116						<IFE N&44-44,<ARRARL>>+<IFE N&44-4,<ARLARR>>+<IFE N&44,<ARLTAD>>+<IFE N&44-40,<ARRT
  7117					AD>>+<IFE N&50-40,<ARLTAD>>+<IFE N&50,<ARRTAD>>+<IFE N&30-30,<HWTETS+<IFN <N&4*10+N>&40,<2>>
  7118	036771	000000	010065		>>
  7119			000075			N=N+1
  7120			000000			M=0
  7121						IFE N&33-2,<M=FCEPSE>
  7122						IFE N&3-3,<M=FCEPSE+SAIAC0>
  7123						XWD <IFE N&3-2,<ADFMPL+ET0>>+<IFE N&72-40,<ADFMLP>>+<IFE N&72,<ADFMRP>>+<IFN N&3-2,
  7124					<<IFE <N&44>*<N-43>*<N-47>,<ADARLP>>+<IFE <N&44-40>*<N-3>*<N-7>,<ADARRP>>>>,<IFE N&3,<FCE>>+
  7125	036772	000000	000000		M+<IFE N&3-2,<SACINH+<IFN N&30,<SCE>>>>
  7126						XWD [XWD <IFE N&70-40,<ADBRLP>>+<IFE N&70,<ADBRRP>>+<IFE N&44-40,<ADARRP>>+<IFE N&4
  7127	036773	046225	000000		4,<ADARLP>>,ARADEN+BRAREN],0
  7128						<IFE N&44-44,<ARRARL>>+<IFE N&44-4,<ARLARR>>+<IFE N&44,<ARLTAD>>+<IFE N&44-40,<ARRT
  7129					AD>>+<IFE N&50-40,<ARLTAD>>+<IFE N&50,<ARRTAD>>+<IFE N&30-30,<HWTETS+<IFN <N&4*10+N>&40,<2>>
  7130	036774	000000	010065		>>
  7131			000076			N=N+1
  7132			000000			M=0
  7133						IFE N&33-2,<M=FCEPSE>
  7134						IFE N&3-3,<M=FCEPSE+SAIAC0>
  7135						XWD <IFE N&3-2,<ADFMPL+ET0>>+<IFE N&72-40,<ADFMLP>>+<IFE N&72,<ADFMRP>>+<IFN N&3-2,
  7136					<<IFE <N&44>*<N-43>*<N-47>,<ADARLP>>+<IFE <N&44-40>*<N-3>*<N-7>,<ADARRP>>>>,<IFE N&3,<FCE>>+
  7137	036775	006001	000050		M+<IFE N&3-2,<SACINH+<IFN N&30,<SCE>>>>
  7138						XWD [XWD <IFE N&70-40,<ADBRLP>>+<IFE N&70,<ADBRRP>>+<IFE N&44-40,<ADARRP>>+<IFE N&4
  7139	036776	046225	000000		4,<ADARLP>>,ARADEN+BRAREN],0
DBKDA	DECSYSTEM10 KI10 ARITHMETIC RELIABILITY TEST, VER 0,3	MACRO %51(414) 14:29  9-JUN-76 PAGE 18-14
KI10A1	MAC	 9-JUN-76 13:52		DISPATCH TABLE FOR INSTRUCTIONS		500-577                                *** SEQ 0203

  7140						<IFE N&44-44,<ARRARL>>+<IFE N&44-4,<ARLARR>>+<IFE N&44,<ARLTAD>>+<IFE N&44-40,<ARRT
  7141					AD>>+<IFE N&50-40,<ARLTAD>>+<IFE N&50,<ARRTAD>>+<IFE N&30-30,<HWTETS+<IFN <N&4*10+N>&40,<2>>
  7142	036777	000000	010065		>>
  7143			000077			N=N+1
  7144			000000			M=0
  7145						IFE N&33-2,<M=FCEPSE>
  7146			000143			IFE N&3-3,<M=FCEPSE+SAIAC0>
  7147						XWD <IFE N&3-2,<ADFMPL+ET0>>+<IFE N&72-40,<ADFMLP>>+<IFE N&72,<ADFMRP>>+<IFN N&3-2,
  7148					<<IFE <N&44>*<N-43>*<N-47>,<ADARLP>>+<IFE <N&44-40>*<N-3>*<N-7>,<ADARRP>>>>,<IFE N&3,<FCE>>+
  7149	037000	000000	000143		M+<IFE N&3-2,<SACINH+<IFN N&30,<SCE>>>>
  7150						XWD [XWD <IFE N&70-40,<ADBRLP>>+<IFE N&70,<ADBRRP>>+<IFE N&44-40,<ADARRP>>+<IFE N&4
  7151	037001	046225	000000		4,<ADARLP>>,ARADEN+BRAREN],0
  7152						<IFE N&44-44,<ARRARL>>+<IFE N&44-4,<ARLARR>>+<IFE N&44,<ARLTAD>>+<IFE N&44-40,<ARRT
  7153					AD>>+<IFE N&50-40,<ARLTAD>>+<IFE N&50,<ARRTAD>>+<IFE N&30-30,<HWTETS+<IFN <N&4*10+N>&40,<2>>
  7154	037002	000000	010065		>>
  7155			000100			N=N+1
DBKDA	DECSYSTEM10 KI10 ARITHMETIC RELIABILITY TEST, VER 0,3	MACRO %51(414) 14:29  9-JUN-76 PAGE 19
KI10A1	MAC	 9-JUN-76 13:52		DISPATCH TABLE FOR INSTRUCTIONS		600-777                                *** SEQ 0204

  7156					SUBTTL	DISPATCH TABLE FOR INSTRUCTIONS		600-777
  7157
  7158					;*TEST GROUP							600-677
  7159
  7160			000000			N=0
  7161						REPEAT 100,
  7162					<	M=0
  7163						IFN N&6,<M=1>
  7164						IFE N&60-60,<M=1>
  7165						A1=0
  7166						IFE N&66-20,<A1=1>
  7167						IFE N&66-40,<A1=1>
  7168						A0=ADFMPL+M*ADARPL+<IFE N&66-40,<ADEQV>>+A1*ADARMI
  7169						XWD <IFN N&1,<ET0>>+M*ET1+A0,<IFN N&10,<FCE>>+<IFE N&60,<SACINH>>^_
  7170					+<IFN N&6,<PCCHNG+ABPCEN>>+<IFE N&3-2,<LNGCYC>>
  7171						XWD [XWD A0,ARSWAP+<IFN N&2,<TEST1>>],^_
  7172					[XWD <IFE N&60-20,<ADARMI+ADFMPL>>+<IFE N&60-40,^_
  7173					<ADEQV+ADFMPL+ADARMI>>+<IFE N&60-60,<ADBRMI+ADFMMI+ADEQV^_
  7174					+ADARPL+ADARMI>>+<IFE N&6-4,<PCCLK>>^_
  7175					,BRAREN+<IFN N&2,<TEST+<IFN N&4,<1>>>>]
  7176						XWD	<IFN N&6,<INFTST>>,ARADEN
  7177						N=N+1
  7178					>
  7179			000000			M=0
  7180						IFN N&6,<M=1>
  7181						IFE N&60-60,<M=1>
  7182			000000			A1=0
  7183						IFE N&66-20,<A1=1>
  7184						IFE N&66-40,<A1=1>
  7185			006000			A0=ADFMPL+M*ADARPL+<IFE N&66-40,<ADEQV>>+A1*ADARMI
  7186						XWD <IFN N&1,<ET0>>+M*ET1+A0,<IFN N&10,<FCE>>+<IFE N&60,<SACINH>>+<IFN N&6,<PCCHNG+
  7187	037003	006000	000040		ABPCEN>>+<IFE N&3-2,<LNGCYC>>
  7188						XWD [XWD A0,ARSWAP+<IFN N&2,<TEST1>>],[XWD <IFE N&60-20,<ADARMI+ADFMPL>>+<IFE N&60-
  7189					40,<ADEQV+ADFMPL+ADARMI>>+<IFE N&60-60,<ADBRMI+ADFMMI+ADEQV+ADARPL+ADARMI>>+<IFE N&6-4,<PCCL
  7190	037004	046231	046232		K>>,BRAREN+<IFN N&2,<TEST+<IFN N&4,<1>>>>]
  7191	037005	000000	006000			XWD	<IFN N&6,<INFTST>>,ARADEN
  7192			000001			N=N+1
  7193
  7194			000000			M=0
  7195						IFN N&6,<M=1>
  7196						IFE N&60-60,<M=1>
  7197			000000			A1=0
  7198						IFE N&66-20,<A1=1>
  7199						IFE N&66-40,<A1=1>
  7200			006000			A0=ADFMPL+M*ADARPL+<IFE N&66-40,<ADEQV>>+A1*ADARMI
  7201						XWD <IFN N&1,<ET0>>+M*ET1+A0,<IFN N&10,<FCE>>+<IFE N&60,<SACINH>>+<IFN N&6,<PCCHNG+
  7202	037006	006001	000040		ABPCEN>>+<IFE N&3-2,<LNGCYC>>
  7203						XWD [XWD A0,ARSWAP+<IFN N&2,<TEST1>>],[XWD <IFE N&60-20,<ADARMI+ADFMPL>>+<IFE N&60-
  7204					40,<ADEQV+ADFMPL+ADARMI>>+<IFE N&60-60,<ADBRMI+ADFMMI+ADEQV+ADARPL+ADARMI>>+<IFE N&6-4,<PCCL
  7205	037007	046231	046232		K>>,BRAREN+<IFN N&2,<TEST+<IFN N&4,<1>>>>]
  7206	037010	000000	006000			XWD	<IFN N&6,<INFTST>>,ARADEN
  7207			000002			N=N+1
  7208
  7209			000000			M=0
  7210			000001			IFN N&6,<M=1>
DBKDA	DECSYSTEM10 KI10 ARITHMETIC RELIABILITY TEST, VER 0,3	MACRO %51(414) 14:29  9-JUN-76 PAGE 19-1
KI10A1	MAC	 9-JUN-76 13:52		DISPATCH TABLE FOR INSTRUCTIONS		600-777                                *** SEQ 0205

  7211						IFE N&60-60,<M=1>
  7212			000000			A1=0
  7213						IFE N&66-20,<A1=1>
  7214						IFE N&66-40,<A1=1>
  7215			006060			A0=ADFMPL+M*ADARPL+<IFE N&66-40,<ADEQV>>+A1*ADARMI
  7216						XWD <IFN N&1,<ET0>>+M*ET1+A0,<IFN N&10,<FCE>>+<IFE N&60,<SACINH>>+<IFN N&6,<PCCHNG+
  7217	037011	006062	140440		ABPCEN>>+<IFE N&3-2,<LNGCYC>>
  7218						XWD [XWD A0,ARSWAP+<IFN N&2,<TEST1>>],[XWD <IFE N&60-20,<ADARMI+ADFMPL>>+<IFE N&60-
  7219					40,<ADEQV+ADFMPL+ADARMI>>+<IFE N&60-60,<ADBRMI+ADFMMI+ADEQV+ADARPL+ADARMI>>+<IFE N&6-4,<PCCL
  7220	037012	046233	046234		K>>,BRAREN+<IFN N&2,<TEST+<IFN N&4,<1>>>>]
  7221	037013	000004	006000			XWD	<IFN N&6,<INFTST>>,ARADEN
  7222			000003			N=N+1
  7223
  7224			000000			M=0
  7225			000001			IFN N&6,<M=1>
  7226						IFE N&60-60,<M=1>
  7227			000000			A1=0
  7228						IFE N&66-20,<A1=1>
  7229						IFE N&66-40,<A1=1>
  7230			006060			A0=ADFMPL+M*ADARPL+<IFE N&66-40,<ADEQV>>+A1*ADARMI
  7231						XWD <IFN N&1,<ET0>>+M*ET1+A0,<IFN N&10,<FCE>>+<IFE N&60,<SACINH>>+<IFN N&6,<PCCHNG+
  7232	037014	006063	100440		ABPCEN>>+<IFE N&3-2,<LNGCYC>>
  7233						XWD [XWD A0,ARSWAP+<IFN N&2,<TEST1>>],[XWD <IFE N&60-20,<ADARMI+ADFMPL>>+<IFE N&60-
  7234					40,<ADEQV+ADFMPL+ADARMI>>+<IFE N&60-60,<ADBRMI+ADFMMI+ADEQV+ADARPL+ADARMI>>+<IFE N&6-4,<PCCL
  7235	037015	046233	046234		K>>,BRAREN+<IFN N&2,<TEST+<IFN N&4,<1>>>>]
  7236	037016	000004	006000			XWD	<IFN N&6,<INFTST>>,ARADEN
  7237			000004			N=N+1
  7238
  7239			000000			M=0
  7240			000001			IFN N&6,<M=1>
  7241						IFE N&60-60,<M=1>
  7242			000000			A1=0
  7243						IFE N&66-20,<A1=1>
  7244						IFE N&66-40,<A1=1>
  7245			006060			A0=ADFMPL+M*ADARPL+<IFE N&66-40,<ADEQV>>+A1*ADARMI
  7246						XWD <IFN N&1,<ET0>>+M*ET1+A0,<IFN N&10,<FCE>>+<IFE N&60,<SACINH>>+<IFN N&6,<PCCHNG+
  7247	037017	006062	100440		ABPCEN>>+<IFE N&3-2,<LNGCYC>>
  7248						XWD [XWD A0,ARSWAP+<IFN N&2,<TEST1>>],[XWD <IFE N&60-20,<ADARMI+ADFMPL>>+<IFE N&60-
  7249					40,<ADEQV+ADFMPL+ADARMI>>+<IFE N&60-60,<ADBRMI+ADFMMI+ADEQV+ADARPL+ADARMI>>+<IFE N&6-4,<PCCL
  7250	037020	046235	046236		K>>,BRAREN+<IFN N&2,<TEST+<IFN N&4,<1>>>>]
  7251	037021	000004	006000			XWD	<IFN N&6,<INFTST>>,ARADEN
  7252			000005			N=N+1
  7253
  7254			000000			M=0
  7255			000001			IFN N&6,<M=1>
  7256						IFE N&60-60,<M=1>
  7257			000000			A1=0
  7258						IFE N&66-20,<A1=1>
  7259						IFE N&66-40,<A1=1>
  7260			006060			A0=ADFMPL+M*ADARPL+<IFE N&66-40,<ADEQV>>+A1*ADARMI
  7261						XWD <IFN N&1,<ET0>>+M*ET1+A0,<IFN N&10,<FCE>>+<IFE N&60,<SACINH>>+<IFN N&6,<PCCHNG+
  7262	037022	006063	100440		ABPCEN>>+<IFE N&3-2,<LNGCYC>>
  7263						XWD [XWD A0,ARSWAP+<IFN N&2,<TEST1>>],[XWD <IFE N&60-20,<ADARMI+ADFMPL>>+<IFE N&60-
  7264					40,<ADEQV+ADFMPL+ADARMI>>+<IFE N&60-60,<ADBRMI+ADFMMI+ADEQV+ADARPL+ADARMI>>+<IFE N&6-4,<PCCL
  7265	037023	046235	046236		K>>,BRAREN+<IFN N&2,<TEST+<IFN N&4,<1>>>>]
DBKDA	DECSYSTEM10 KI10 ARITHMETIC RELIABILITY TEST, VER 0,3	MACRO %51(414) 14:29  9-JUN-76 PAGE 19-2
KI10A1	MAC	 9-JUN-76 13:52		DISPATCH TABLE FOR INSTRUCTIONS		600-777                                *** SEQ 0206

  7266	037024	000004	006000			XWD	<IFN N&6,<INFTST>>,ARADEN
  7267			000006			N=N+1
  7268
  7269			000000			M=0
  7270			000001			IFN N&6,<M=1>
  7271						IFE N&60-60,<M=1>
  7272			000000			A1=0
  7273						IFE N&66-20,<A1=1>
  7274						IFE N&66-40,<A1=1>
  7275			006060			A0=ADFMPL+M*ADARPL+<IFE N&66-40,<ADEQV>>+A1*ADARMI
  7276						XWD <IFN N&1,<ET0>>+M*ET1+A0,<IFN N&10,<FCE>>+<IFE N&60,<SACINH>>+<IFN N&6,<PCCHNG+
  7277	037025	006062	140440		ABPCEN>>+<IFE N&3-2,<LNGCYC>>
  7278						XWD [XWD A0,ARSWAP+<IFN N&2,<TEST1>>],[XWD <IFE N&60-20,<ADARMI+ADFMPL>>+<IFE N&60-
  7279					40,<ADEQV+ADFMPL+ADARMI>>+<IFE N&60-60,<ADBRMI+ADFMMI+ADEQV+ADARPL+ADARMI>>+<IFE N&6-4,<PCCL
  7280	037026	046233	046237		K>>,BRAREN+<IFN N&2,<TEST+<IFN N&4,<1>>>>]
  7281	037027	000004	006000			XWD	<IFN N&6,<INFTST>>,ARADEN
  7282			000007			N=N+1
  7283
  7284			000000			M=0
  7285			000001			IFN N&6,<M=1>
  7286						IFE N&60-60,<M=1>
  7287			000000			A1=0
  7288						IFE N&66-20,<A1=1>
  7289						IFE N&66-40,<A1=1>
  7290			006060			A0=ADFMPL+M*ADARPL+<IFE N&66-40,<ADEQV>>+A1*ADARMI
  7291						XWD <IFN N&1,<ET0>>+M*ET1+A0,<IFN N&10,<FCE>>+<IFE N&60,<SACINH>>+<IFN N&6,<PCCHNG+
  7292	037030	006063	100440		ABPCEN>>+<IFE N&3-2,<LNGCYC>>
  7293						XWD [XWD A0,ARSWAP+<IFN N&2,<TEST1>>],[XWD <IFE N&60-20,<ADARMI+ADFMPL>>+<IFE N&60-
  7294					40,<ADEQV+ADFMPL+ADARMI>>+<IFE N&60-60,<ADBRMI+ADFMMI+ADEQV+ADARPL+ADARMI>>+<IFE N&6-4,<PCCL
  7295	037031	046233	046237		K>>,BRAREN+<IFN N&2,<TEST+<IFN N&4,<1>>>>]
  7296	037032	000004	006000			XWD	<IFN N&6,<INFTST>>,ARADEN
  7297			000010			N=N+1
  7298
  7299			000000			M=0
  7300						IFN N&6,<M=1>
  7301						IFE N&60-60,<M=1>
  7302			000000			A1=0
  7303						IFE N&66-20,<A1=1>
  7304						IFE N&66-40,<A1=1>
  7305			006000			A0=ADFMPL+M*ADARPL+<IFE N&66-40,<ADEQV>>+A1*ADARMI
  7306						XWD <IFN N&1,<ET0>>+M*ET1+A0,<IFN N&10,<FCE>>+<IFE N&60,<SACINH>>+<IFN N&6,<PCCHNG+
  7307	037033	006000	000041		ABPCEN>>+<IFE N&3-2,<LNGCYC>>
  7308						XWD [XWD A0,ARSWAP+<IFN N&2,<TEST1>>],[XWD <IFE N&60-20,<ADARMI+ADFMPL>>+<IFE N&60-
  7309					40,<ADEQV+ADFMPL+ADARMI>>+<IFE N&60-60,<ADBRMI+ADFMMI+ADEQV+ADARPL+ADARMI>>+<IFE N&6-4,<PCCL
  7310	037034	046231	046232		K>>,BRAREN+<IFN N&2,<TEST+<IFN N&4,<1>>>>]
  7311	037035	000000	006000			XWD	<IFN N&6,<INFTST>>,ARADEN
  7312			000011			N=N+1
  7313
  7314			000000			M=0
  7315						IFN N&6,<M=1>
  7316						IFE N&60-60,<M=1>
  7317			000000			A1=0
  7318						IFE N&66-20,<A1=1>
  7319						IFE N&66-40,<A1=1>
  7320			006000			A0=ADFMPL+M*ADARPL+<IFE N&66-40,<ADEQV>>+A1*ADARMI
DBKDA	DECSYSTEM10 KI10 ARITHMETIC RELIABILITY TEST, VER 0,3	MACRO %51(414) 14:29  9-JUN-76 PAGE 19-3
KI10A1	MAC	 9-JUN-76 13:52		DISPATCH TABLE FOR INSTRUCTIONS		600-777                                *** SEQ 0207

  7321						XWD <IFN N&1,<ET0>>+M*ET1+A0,<IFN N&10,<FCE>>+<IFE N&60,<SACINH>>+<IFN N&6,<PCCHNG+
  7322	037036	006001	000041		ABPCEN>>+<IFE N&3-2,<LNGCYC>>
  7323						XWD [XWD A0,ARSWAP+<IFN N&2,<TEST1>>],[XWD <IFE N&60-20,<ADARMI+ADFMPL>>+<IFE N&60-
  7324					40,<ADEQV+ADFMPL+ADARMI>>+<IFE N&60-60,<ADBRMI+ADFMMI+ADEQV+ADARPL+ADARMI>>+<IFE N&6-4,<PCCL
  7325	037037	046231	046232		K>>,BRAREN+<IFN N&2,<TEST+<IFN N&4,<1>>>>]
  7326	037040	000000	006000			XWD	<IFN N&6,<INFTST>>,ARADEN
  7327			000012			N=N+1
  7328
  7329			000000			M=0
  7330			000001			IFN N&6,<M=1>
  7331						IFE N&60-60,<M=1>
  7332			000000			A1=0
  7333						IFE N&66-20,<A1=1>
  7334						IFE N&66-40,<A1=1>
  7335			006060			A0=ADFMPL+M*ADARPL+<IFE N&66-40,<ADEQV>>+A1*ADARMI
  7336						XWD <IFN N&1,<ET0>>+M*ET1+A0,<IFN N&10,<FCE>>+<IFE N&60,<SACINH>>+<IFN N&6,<PCCHNG+
  7337	037041	006062	140441		ABPCEN>>+<IFE N&3-2,<LNGCYC>>
  7338						XWD [XWD A0,ARSWAP+<IFN N&2,<TEST1>>],[XWD <IFE N&60-20,<ADARMI+ADFMPL>>+<IFE N&60-
  7339					40,<ADEQV+ADFMPL+ADARMI>>+<IFE N&60-60,<ADBRMI+ADFMMI+ADEQV+ADARPL+ADARMI>>+<IFE N&6-4,<PCCL
  7340	037042	046233	046234		K>>,BRAREN+<IFN N&2,<TEST+<IFN N&4,<1>>>>]
  7341	037043	000004	006000			XWD	<IFN N&6,<INFTST>>,ARADEN
  7342			000013			N=N+1
  7343
  7344			000000			M=0
  7345			000001			IFN N&6,<M=1>
  7346						IFE N&60-60,<M=1>
  7347			000000			A1=0
  7348						IFE N&66-20,<A1=1>
  7349						IFE N&66-40,<A1=1>
  7350			006060			A0=ADFMPL+M*ADARPL+<IFE N&66-40,<ADEQV>>+A1*ADARMI
  7351						XWD <IFN N&1,<ET0>>+M*ET1+A0,<IFN N&10,<FCE>>+<IFE N&60,<SACINH>>+<IFN N&6,<PCCHNG+
  7352	037044	006063	100441		ABPCEN>>+<IFE N&3-2,<LNGCYC>>
  7353						XWD [XWD A0,ARSWAP+<IFN N&2,<TEST1>>],[XWD <IFE N&60-20,<ADARMI+ADFMPL>>+<IFE N&60-
  7354					40,<ADEQV+ADFMPL+ADARMI>>+<IFE N&60-60,<ADBRMI+ADFMMI+ADEQV+ADARPL+ADARMI>>+<IFE N&6-4,<PCCL
  7355	037045	046233	046234		K>>,BRAREN+<IFN N&2,<TEST+<IFN N&4,<1>>>>]
  7356	037046	000004	006000			XWD	<IFN N&6,<INFTST>>,ARADEN
  7357			000014			N=N+1
  7358
  7359			000000			M=0
  7360			000001			IFN N&6,<M=1>
  7361						IFE N&60-60,<M=1>
  7362			000000			A1=0
  7363						IFE N&66-20,<A1=1>
  7364						IFE N&66-40,<A1=1>
  7365			006060			A0=ADFMPL+M*ADARPL+<IFE N&66-40,<ADEQV>>+A1*ADARMI
  7366						XWD <IFN N&1,<ET0>>+M*ET1+A0,<IFN N&10,<FCE>>+<IFE N&60,<SACINH>>+<IFN N&6,<PCCHNG+
  7367	037047	006062	100441		ABPCEN>>+<IFE N&3-2,<LNGCYC>>
  7368						XWD [XWD A0,ARSWAP+<IFN N&2,<TEST1>>],[XWD <IFE N&60-20,<ADARMI+ADFMPL>>+<IFE N&60-
  7369					40,<ADEQV+ADFMPL+ADARMI>>+<IFE N&60-60,<ADBRMI+ADFMMI+ADEQV+ADARPL+ADARMI>>+<IFE N&6-4,<PCCL
  7370	037050	046235	046236		K>>,BRAREN+<IFN N&2,<TEST+<IFN N&4,<1>>>>]
  7371	037051	000004	006000			XWD	<IFN N&6,<INFTST>>,ARADEN
  7372			000015			N=N+1
  7373
  7374			000000			M=0
  7375			000001			IFN N&6,<M=1>
DBKDA	DECSYSTEM10 KI10 ARITHMETIC RELIABILITY TEST, VER 0,3	MACRO %51(414) 14:29  9-JUN-76 PAGE 19-4
KI10A1	MAC	 9-JUN-76 13:52		DISPATCH TABLE FOR INSTRUCTIONS		600-777                                *** SEQ 0208

  7376						IFE N&60-60,<M=1>
  7377			000000			A1=0
  7378						IFE N&66-20,<A1=1>
  7379						IFE N&66-40,<A1=1>
  7380			006060			A0=ADFMPL+M*ADARPL+<IFE N&66-40,<ADEQV>>+A1*ADARMI
  7381						XWD <IFN N&1,<ET0>>+M*ET1+A0,<IFN N&10,<FCE>>+<IFE N&60,<SACINH>>+<IFN N&6,<PCCHNG+
  7382	037052	006063	100441		ABPCEN>>+<IFE N&3-2,<LNGCYC>>
  7383						XWD [XWD A0,ARSWAP+<IFN N&2,<TEST1>>],[XWD <IFE N&60-20,<ADARMI+ADFMPL>>+<IFE N&60-
  7384					40,<ADEQV+ADFMPL+ADARMI>>+<IFE N&60-60,<ADBRMI+ADFMMI+ADEQV+ADARPL+ADARMI>>+<IFE N&6-4,<PCCL
  7385	037053	046235	046236		K>>,BRAREN+<IFN N&2,<TEST+<IFN N&4,<1>>>>]
  7386	037054	000004	006000			XWD	<IFN N&6,<INFTST>>,ARADEN
  7387			000016			N=N+1
  7388
  7389			000000			M=0
  7390			000001			IFN N&6,<M=1>
  7391						IFE N&60-60,<M=1>
  7392			000000			A1=0
  7393						IFE N&66-20,<A1=1>
  7394						IFE N&66-40,<A1=1>
  7395			006060			A0=ADFMPL+M*ADARPL+<IFE N&66-40,<ADEQV>>+A1*ADARMI
  7396						XWD <IFN N&1,<ET0>>+M*ET1+A0,<IFN N&10,<FCE>>+<IFE N&60,<SACINH>>+<IFN N&6,<PCCHNG+
  7397	037055	006062	140441		ABPCEN>>+<IFE N&3-2,<LNGCYC>>
  7398						XWD [XWD A0,ARSWAP+<IFN N&2,<TEST1>>],[XWD <IFE N&60-20,<ADARMI+ADFMPL>>+<IFE N&60-
  7399					40,<ADEQV+ADFMPL+ADARMI>>+<IFE N&60-60,<ADBRMI+ADFMMI+ADEQV+ADARPL+ADARMI>>+<IFE N&6-4,<PCCL
  7400	037056	046233	046237		K>>,BRAREN+<IFN N&2,<TEST+<IFN N&4,<1>>>>]
  7401	037057	000004	006000			XWD	<IFN N&6,<INFTST>>,ARADEN
  7402			000017			N=N+1
  7403
  7404			000000			M=0
  7405			000001			IFN N&6,<M=1>
  7406						IFE N&60-60,<M=1>
  7407			000000			A1=0
  7408						IFE N&66-20,<A1=1>
  7409						IFE N&66-40,<A1=1>
  7410			006060			A0=ADFMPL+M*ADARPL+<IFE N&66-40,<ADEQV>>+A1*ADARMI
  7411						XWD <IFN N&1,<ET0>>+M*ET1+A0,<IFN N&10,<FCE>>+<IFE N&60,<SACINH>>+<IFN N&6,<PCCHNG+
  7412	037060	006063	100441		ABPCEN>>+<IFE N&3-2,<LNGCYC>>
  7413						XWD [XWD A0,ARSWAP+<IFN N&2,<TEST1>>],[XWD <IFE N&60-20,<ADARMI+ADFMPL>>+<IFE N&60-
  7414					40,<ADEQV+ADFMPL+ADARMI>>+<IFE N&60-60,<ADBRMI+ADFMMI+ADEQV+ADARPL+ADARMI>>+<IFE N&6-4,<PCCL
  7415	037061	046233	046237		K>>,BRAREN+<IFN N&2,<TEST+<IFN N&4,<1>>>>]
  7416	037062	000004	006000			XWD	<IFN N&6,<INFTST>>,ARADEN
  7417			000020			N=N+1
  7418
  7419			000000			M=0
  7420						IFN N&6,<M=1>
  7421						IFE N&60-60,<M=1>
  7422			000000			A1=0
  7423			000001			IFE N&66-20,<A1=1>
  7424						IFE N&66-40,<A1=1>
  7425			006100			A0=ADFMPL+M*ADARPL+<IFE N&66-40,<ADEQV>>+A1*ADARMI
  7426						XWD <IFN N&1,<ET0>>+M*ET1+A0,<IFN N&10,<FCE>>+<IFE N&60,<SACINH>>+<IFN N&6,<PCCHNG+
  7427	037063	006100	000000		ABPCEN>>+<IFE N&3-2,<LNGCYC>>
  7428						XWD [XWD A0,ARSWAP+<IFN N&2,<TEST1>>],[XWD <IFE N&60-20,<ADARMI+ADFMPL>>+<IFE N&60-
  7429					40,<ADEQV+ADFMPL+ADARMI>>+<IFE N&60-60,<ADBRMI+ADFMMI+ADEQV+ADARPL+ADARMI>>+<IFE N&6-4,<PCCL
  7430	037064	046240	046241		K>>,BRAREN+<IFN N&2,<TEST+<IFN N&4,<1>>>>]
DBKDA	DECSYSTEM10 KI10 ARITHMETIC RELIABILITY TEST, VER 0,3	MACRO %51(414) 14:29  9-JUN-76 PAGE 19-5
KI10A1	MAC	 9-JUN-76 13:52		DISPATCH TABLE FOR INSTRUCTIONS		600-777                                *** SEQ 0209

  7431	037065	000000	006000			XWD	<IFN N&6,<INFTST>>,ARADEN
  7432			000021			N=N+1
  7433
  7434			000000			M=0
  7435						IFN N&6,<M=1>
  7436						IFE N&60-60,<M=1>
  7437			000000			A1=0
  7438			000001			IFE N&66-20,<A1=1>
  7439						IFE N&66-40,<A1=1>
  7440			006100			A0=ADFMPL+M*ADARPL+<IFE N&66-40,<ADEQV>>+A1*ADARMI
  7441						XWD <IFN N&1,<ET0>>+M*ET1+A0,<IFN N&10,<FCE>>+<IFE N&60,<SACINH>>+<IFN N&6,<PCCHNG+
  7442	037066	006101	000000		ABPCEN>>+<IFE N&3-2,<LNGCYC>>
  7443						XWD [XWD A0,ARSWAP+<IFN N&2,<TEST1>>],[XWD <IFE N&60-20,<ADARMI+ADFMPL>>+<IFE N&60-
  7444					40,<ADEQV+ADFMPL+ADARMI>>+<IFE N&60-60,<ADBRMI+ADFMMI+ADEQV+ADARPL+ADARMI>>+<IFE N&6-4,<PCCL
  7445	037067	046240	046241		K>>,BRAREN+<IFN N&2,<TEST+<IFN N&4,<1>>>>]
  7446	037070	000000	006000			XWD	<IFN N&6,<INFTST>>,ARADEN
  7447			000022			N=N+1
  7448
  7449			000000			M=0
  7450			000001			IFN N&6,<M=1>
  7451						IFE N&60-60,<M=1>
  7452			000000			A1=0
  7453						IFE N&66-20,<A1=1>
  7454						IFE N&66-40,<A1=1>
  7455			006060			A0=ADFMPL+M*ADARPL+<IFE N&66-40,<ADEQV>>+A1*ADARMI
  7456						XWD <IFN N&1,<ET0>>+M*ET1+A0,<IFN N&10,<FCE>>+<IFE N&60,<SACINH>>+<IFN N&6,<PCCHNG+
  7457	037071	006062	140400		ABPCEN>>+<IFE N&3-2,<LNGCYC>>
  7458						XWD [XWD A0,ARSWAP+<IFN N&2,<TEST1>>],[XWD <IFE N&60-20,<ADARMI+ADFMPL>>+<IFE N&60-
  7459					40,<ADEQV+ADFMPL+ADARMI>>+<IFE N&60-60,<ADBRMI+ADFMMI+ADEQV+ADARPL+ADARMI>>+<IFE N&6-4,<PCCL
  7460	037072	046233	046242		K>>,BRAREN+<IFN N&2,<TEST+<IFN N&4,<1>>>>]
  7461	037073	000004	006000			XWD	<IFN N&6,<INFTST>>,ARADEN
  7462			000023			N=N+1
  7463
  7464			000000			M=0
  7465			000001			IFN N&6,<M=1>
  7466						IFE N&60-60,<M=1>
  7467			000000			A1=0
  7468						IFE N&66-20,<A1=1>
  7469						IFE N&66-40,<A1=1>
  7470			006060			A0=ADFMPL+M*ADARPL+<IFE N&66-40,<ADEQV>>+A1*ADARMI
  7471						XWD <IFN N&1,<ET0>>+M*ET1+A0,<IFN N&10,<FCE>>+<IFE N&60,<SACINH>>+<IFN N&6,<PCCHNG+
  7472	037074	006063	100400		ABPCEN>>+<IFE N&3-2,<LNGCYC>>
  7473						XWD [XWD A0,ARSWAP+<IFN N&2,<TEST1>>],[XWD <IFE N&60-20,<ADARMI+ADFMPL>>+<IFE N&60-
  7474					40,<ADEQV+ADFMPL+ADARMI>>+<IFE N&60-60,<ADBRMI+ADFMMI+ADEQV+ADARPL+ADARMI>>+<IFE N&6-4,<PCCL
  7475	037075	046233	046242		K>>,BRAREN+<IFN N&2,<TEST+<IFN N&4,<1>>>>]
  7476	037076	000004	006000			XWD	<IFN N&6,<INFTST>>,ARADEN
  7477			000024			N=N+1
  7478
  7479			000000			M=0
  7480			000001			IFN N&6,<M=1>
  7481						IFE N&60-60,<M=1>
  7482			000000			A1=0
  7483						IFE N&66-20,<A1=1>
  7484						IFE N&66-40,<A1=1>
  7485			006060			A0=ADFMPL+M*ADARPL+<IFE N&66-40,<ADEQV>>+A1*ADARMI
DBKDA	DECSYSTEM10 KI10 ARITHMETIC RELIABILITY TEST, VER 0,3	MACRO %51(414) 14:29  9-JUN-76 PAGE 19-6
KI10A1	MAC	 9-JUN-76 13:52		DISPATCH TABLE FOR INSTRUCTIONS		600-777                                *** SEQ 0210

  7486						XWD <IFN N&1,<ET0>>+M*ET1+A0,<IFN N&10,<FCE>>+<IFE N&60,<SACINH>>+<IFN N&6,<PCCHNG+
  7487	037077	006062	100400		ABPCEN>>+<IFE N&3-2,<LNGCYC>>
  7488						XWD [XWD A0,ARSWAP+<IFN N&2,<TEST1>>],[XWD <IFE N&60-20,<ADARMI+ADFMPL>>+<IFE N&60-
  7489					40,<ADEQV+ADFMPL+ADARMI>>+<IFE N&60-60,<ADBRMI+ADFMMI+ADEQV+ADARPL+ADARMI>>+<IFE N&6-4,<PCCL
  7490	037100	046235	046243		K>>,BRAREN+<IFN N&2,<TEST+<IFN N&4,<1>>>>]
  7491	037101	000004	006000			XWD	<IFN N&6,<INFTST>>,ARADEN
  7492			000025			N=N+1
  7493
  7494			000000			M=0
  7495			000001			IFN N&6,<M=1>
  7496						IFE N&60-60,<M=1>
  7497			000000			A1=0
  7498						IFE N&66-20,<A1=1>
  7499						IFE N&66-40,<A1=1>
  7500			006060			A0=ADFMPL+M*ADARPL+<IFE N&66-40,<ADEQV>>+A1*ADARMI
  7501						XWD <IFN N&1,<ET0>>+M*ET1+A0,<IFN N&10,<FCE>>+<IFE N&60,<SACINH>>+<IFN N&6,<PCCHNG+
  7502	037102	006063	100400		ABPCEN>>+<IFE N&3-2,<LNGCYC>>
  7503						XWD [XWD A0,ARSWAP+<IFN N&2,<TEST1>>],[XWD <IFE N&60-20,<ADARMI+ADFMPL>>+<IFE N&60-
  7504					40,<ADEQV+ADFMPL+ADARMI>>+<IFE N&60-60,<ADBRMI+ADFMMI+ADEQV+ADARPL+ADARMI>>+<IFE N&6-4,<PCCL
  7505	037103	046235	046243		K>>,BRAREN+<IFN N&2,<TEST+<IFN N&4,<1>>>>]
  7506	037104	000004	006000			XWD	<IFN N&6,<INFTST>>,ARADEN
  7507			000026			N=N+1
  7508
  7509			000000			M=0
  7510			000001			IFN N&6,<M=1>
  7511						IFE N&60-60,<M=1>
  7512			000000			A1=0
  7513						IFE N&66-20,<A1=1>
  7514						IFE N&66-40,<A1=1>
  7515			006060			A0=ADFMPL+M*ADARPL+<IFE N&66-40,<ADEQV>>+A1*ADARMI
  7516						XWD <IFN N&1,<ET0>>+M*ET1+A0,<IFN N&10,<FCE>>+<IFE N&60,<SACINH>>+<IFN N&6,<PCCHNG+
  7517	037105	006062	140400		ABPCEN>>+<IFE N&3-2,<LNGCYC>>
  7518						XWD [XWD A0,ARSWAP+<IFN N&2,<TEST1>>],[XWD <IFE N&60-20,<ADARMI+ADFMPL>>+<IFE N&60-
  7519					40,<ADEQV+ADFMPL+ADARMI>>+<IFE N&60-60,<ADBRMI+ADFMMI+ADEQV+ADARPL+ADARMI>>+<IFE N&6-4,<PCCL
  7520	037106	046233	046244		K>>,BRAREN+<IFN N&2,<TEST+<IFN N&4,<1>>>>]
  7521	037107	000004	006000			XWD	<IFN N&6,<INFTST>>,ARADEN
  7522			000027			N=N+1
  7523
  7524			000000			M=0
  7525			000001			IFN N&6,<M=1>
  7526						IFE N&60-60,<M=1>
  7527			000000			A1=0
  7528						IFE N&66-20,<A1=1>
  7529						IFE N&66-40,<A1=1>
  7530			006060			A0=ADFMPL+M*ADARPL+<IFE N&66-40,<ADEQV>>+A1*ADARMI
  7531						XWD <IFN N&1,<ET0>>+M*ET1+A0,<IFN N&10,<FCE>>+<IFE N&60,<SACINH>>+<IFN N&6,<PCCHNG+
  7532	037110	006063	100400		ABPCEN>>+<IFE N&3-2,<LNGCYC>>
  7533						XWD [XWD A0,ARSWAP+<IFN N&2,<TEST1>>],[XWD <IFE N&60-20,<ADARMI+ADFMPL>>+<IFE N&60-
  7534					40,<ADEQV+ADFMPL+ADARMI>>+<IFE N&60-60,<ADBRMI+ADFMMI+ADEQV+ADARPL+ADARMI>>+<IFE N&6-4,<PCCL
  7535	037111	046233	046244		K>>,BRAREN+<IFN N&2,<TEST+<IFN N&4,<1>>>>]
  7536	037112	000004	006000			XWD	<IFN N&6,<INFTST>>,ARADEN
  7537			000030			N=N+1
  7538
  7539			000000			M=0
  7540						IFN N&6,<M=1>
DBKDA	DECSYSTEM10 KI10 ARITHMETIC RELIABILITY TEST, VER 0,3	MACRO %51(414) 14:29  9-JUN-76 PAGE 19-7
KI10A1	MAC	 9-JUN-76 13:52		DISPATCH TABLE FOR INSTRUCTIONS		600-777                                *** SEQ 0211

  7541						IFE N&60-60,<M=1>
  7542			000000			A1=0
  7543			000001			IFE N&66-20,<A1=1>
  7544						IFE N&66-40,<A1=1>
  7545			006100			A0=ADFMPL+M*ADARPL+<IFE N&66-40,<ADEQV>>+A1*ADARMI
  7546						XWD <IFN N&1,<ET0>>+M*ET1+A0,<IFN N&10,<FCE>>+<IFE N&60,<SACINH>>+<IFN N&6,<PCCHNG+
  7547	037113	006100	000001		ABPCEN>>+<IFE N&3-2,<LNGCYC>>
  7548						XWD [XWD A0,ARSWAP+<IFN N&2,<TEST1>>],[XWD <IFE N&60-20,<ADARMI+ADFMPL>>+<IFE N&60-
  7549					40,<ADEQV+ADFMPL+ADARMI>>+<IFE N&60-60,<ADBRMI+ADFMMI+ADEQV+ADARPL+ADARMI>>+<IFE N&6-4,<PCCL
  7550	037114	046240	046241		K>>,BRAREN+<IFN N&2,<TEST+<IFN N&4,<1>>>>]
  7551	037115	000000	006000			XWD	<IFN N&6,<INFTST>>,ARADEN
  7552			000031			N=N+1
  7553
  7554			000000			M=0
  7555						IFN N&6,<M=1>
  7556						IFE N&60-60,<M=1>
  7557			000000			A1=0
  7558			000001			IFE N&66-20,<A1=1>
  7559						IFE N&66-40,<A1=1>
  7560			006100			A0=ADFMPL+M*ADARPL+<IFE N&66-40,<ADEQV>>+A1*ADARMI
  7561						XWD <IFN N&1,<ET0>>+M*ET1+A0,<IFN N&10,<FCE>>+<IFE N&60,<SACINH>>+<IFN N&6,<PCCHNG+
  7562	037116	006101	000001		ABPCEN>>+<IFE N&3-2,<LNGCYC>>
  7563						XWD [XWD A0,ARSWAP+<IFN N&2,<TEST1>>],[XWD <IFE N&60-20,<ADARMI+ADFMPL>>+<IFE N&60-
  7564					40,<ADEQV+ADFMPL+ADARMI>>+<IFE N&60-60,<ADBRMI+ADFMMI+ADEQV+ADARPL+ADARMI>>+<IFE N&6-4,<PCCL
  7565	037117	046240	046241		K>>,BRAREN+<IFN N&2,<TEST+<IFN N&4,<1>>>>]
  7566	037120	000000	006000			XWD	<IFN N&6,<INFTST>>,ARADEN
  7567			000032			N=N+1
  7568
  7569			000000			M=0
  7570			000001			IFN N&6,<M=1>
  7571						IFE N&60-60,<M=1>
  7572			000000			A1=0
  7573						IFE N&66-20,<A1=1>
  7574						IFE N&66-40,<A1=1>
  7575			006060			A0=ADFMPL+M*ADARPL+<IFE N&66-40,<ADEQV>>+A1*ADARMI
  7576						XWD <IFN N&1,<ET0>>+M*ET1+A0,<IFN N&10,<FCE>>+<IFE N&60,<SACINH>>+<IFN N&6,<PCCHNG+
  7577	037121	006062	140401		ABPCEN>>+<IFE N&3-2,<LNGCYC>>
  7578						XWD [XWD A0,ARSWAP+<IFN N&2,<TEST1>>],[XWD <IFE N&60-20,<ADARMI+ADFMPL>>+<IFE N&60-
  7579					40,<ADEQV+ADFMPL+ADARMI>>+<IFE N&60-60,<ADBRMI+ADFMMI+ADEQV+ADARPL+ADARMI>>+<IFE N&6-4,<PCCL
  7580	037122	046233	046242		K>>,BRAREN+<IFN N&2,<TEST+<IFN N&4,<1>>>>]
  7581	037123	000004	006000			XWD	<IFN N&6,<INFTST>>,ARADEN
  7582			000033			N=N+1
  7583
  7584			000000			M=0
  7585			000001			IFN N&6,<M=1>
  7586						IFE N&60-60,<M=1>
  7587			000000			A1=0
  7588						IFE N&66-20,<A1=1>
  7589						IFE N&66-40,<A1=1>
  7590			006060			A0=ADFMPL+M*ADARPL+<IFE N&66-40,<ADEQV>>+A1*ADARMI
  7591						XWD <IFN N&1,<ET0>>+M*ET1+A0,<IFN N&10,<FCE>>+<IFE N&60,<SACINH>>+<IFN N&6,<PCCHNG+
  7592	037124	006063	100401		ABPCEN>>+<IFE N&3-2,<LNGCYC>>
  7593						XWD [XWD A0,ARSWAP+<IFN N&2,<TEST1>>],[XWD <IFE N&60-20,<ADARMI+ADFMPL>>+<IFE N&60-
  7594					40,<ADEQV+ADFMPL+ADARMI>>+<IFE N&60-60,<ADBRMI+ADFMMI+ADEQV+ADARPL+ADARMI>>+<IFE N&6-4,<PCCL
  7595	037125	046233	046242		K>>,BRAREN+<IFN N&2,<TEST+<IFN N&4,<1>>>>]
DBKDA	DECSYSTEM10 KI10 ARITHMETIC RELIABILITY TEST, VER 0,3	MACRO %51(414) 14:29  9-JUN-76 PAGE 19-8
KI10A1	MAC	 9-JUN-76 13:52		DISPATCH TABLE FOR INSTRUCTIONS		600-777                                *** SEQ 0212

  7596	037126	000004	006000			XWD	<IFN N&6,<INFTST>>,ARADEN
  7597			000034			N=N+1
  7598
  7599			000000			M=0
  7600			000001			IFN N&6,<M=1>
  7601						IFE N&60-60,<M=1>
  7602			000000			A1=0
  7603						IFE N&66-20,<A1=1>
  7604						IFE N&66-40,<A1=1>
  7605			006060			A0=ADFMPL+M*ADARPL+<IFE N&66-40,<ADEQV>>+A1*ADARMI
  7606						XWD <IFN N&1,<ET0>>+M*ET1+A0,<IFN N&10,<FCE>>+<IFE N&60,<SACINH>>+<IFN N&6,<PCCHNG+
  7607	037127	006062	100401		ABPCEN>>+<IFE N&3-2,<LNGCYC>>
  7608						XWD [XWD A0,ARSWAP+<IFN N&2,<TEST1>>],[XWD <IFE N&60-20,<ADARMI+ADFMPL>>+<IFE N&60-
  7609					40,<ADEQV+ADFMPL+ADARMI>>+<IFE N&60-60,<ADBRMI+ADFMMI+ADEQV+ADARPL+ADARMI>>+<IFE N&6-4,<PCCL
  7610	037130	046235	046243		K>>,BRAREN+<IFN N&2,<TEST+<IFN N&4,<1>>>>]
  7611	037131	000004	006000			XWD	<IFN N&6,<INFTST>>,ARADEN
  7612			000035			N=N+1
  7613
  7614			000000			M=0
  7615			000001			IFN N&6,<M=1>
  7616						IFE N&60-60,<M=1>
  7617			000000			A1=0
  7618						IFE N&66-20,<A1=1>
  7619						IFE N&66-40,<A1=1>
  7620			006060			A0=ADFMPL+M*ADARPL+<IFE N&66-40,<ADEQV>>+A1*ADARMI
  7621						XWD <IFN N&1,<ET0>>+M*ET1+A0,<IFN N&10,<FCE>>+<IFE N&60,<SACINH>>+<IFN N&6,<PCCHNG+
  7622	037132	006063	100401		ABPCEN>>+<IFE N&3-2,<LNGCYC>>
  7623						XWD [XWD A0,ARSWAP+<IFN N&2,<TEST1>>],[XWD <IFE N&60-20,<ADARMI+ADFMPL>>+<IFE N&60-
  7624					40,<ADEQV+ADFMPL+ADARMI>>+<IFE N&60-60,<ADBRMI+ADFMMI+ADEQV+ADARPL+ADARMI>>+<IFE N&6-4,<PCCL
  7625	037133	046235	046243		K>>,BRAREN+<IFN N&2,<TEST+<IFN N&4,<1>>>>]
  7626	037134	000004	006000			XWD	<IFN N&6,<INFTST>>,ARADEN
  7627			000036			N=N+1
  7628
  7629			000000			M=0
  7630			000001			IFN N&6,<M=1>
  7631						IFE N&60-60,<M=1>
  7632			000000			A1=0
  7633						IFE N&66-20,<A1=1>
  7634						IFE N&66-40,<A1=1>
  7635			006060			A0=ADFMPL+M*ADARPL+<IFE N&66-40,<ADEQV>>+A1*ADARMI
  7636						XWD <IFN N&1,<ET0>>+M*ET1+A0,<IFN N&10,<FCE>>+<IFE N&60,<SACINH>>+<IFN N&6,<PCCHNG+
  7637	037135	006062	140401		ABPCEN>>+<IFE N&3-2,<LNGCYC>>
  7638						XWD [XWD A0,ARSWAP+<IFN N&2,<TEST1>>],[XWD <IFE N&60-20,<ADARMI+ADFMPL>>+<IFE N&60-
  7639					40,<ADEQV+ADFMPL+ADARMI>>+<IFE N&60-60,<ADBRMI+ADFMMI+ADEQV+ADARPL+ADARMI>>+<IFE N&6-4,<PCCL
  7640	037136	046233	046244		K>>,BRAREN+<IFN N&2,<TEST+<IFN N&4,<1>>>>]
  7641	037137	000004	006000			XWD	<IFN N&6,<INFTST>>,ARADEN
  7642			000037			N=N+1
  7643
  7644			000000			M=0
  7645			000001			IFN N&6,<M=1>
  7646						IFE N&60-60,<M=1>
  7647			000000			A1=0
  7648						IFE N&66-20,<A1=1>
  7649						IFE N&66-40,<A1=1>
  7650			006060			A0=ADFMPL+M*ADARPL+<IFE N&66-40,<ADEQV>>+A1*ADARMI
DBKDA	DECSYSTEM10 KI10 ARITHMETIC RELIABILITY TEST, VER 0,3	MACRO %51(414) 14:29  9-JUN-76 PAGE 19-9
KI10A1	MAC	 9-JUN-76 13:52		DISPATCH TABLE FOR INSTRUCTIONS		600-777                                *** SEQ 0213

  7651						XWD <IFN N&1,<ET0>>+M*ET1+A0,<IFN N&10,<FCE>>+<IFE N&60,<SACINH>>+<IFN N&6,<PCCHNG+
  7652	037140	006063	100401		ABPCEN>>+<IFE N&3-2,<LNGCYC>>
  7653						XWD [XWD A0,ARSWAP+<IFN N&2,<TEST1>>],[XWD <IFE N&60-20,<ADARMI+ADFMPL>>+<IFE N&60-
  7654					40,<ADEQV+ADFMPL+ADARMI>>+<IFE N&60-60,<ADBRMI+ADFMMI+ADEQV+ADARPL+ADARMI>>+<IFE N&6-4,<PCCL
  7655	037141	046233	046244		K>>,BRAREN+<IFN N&2,<TEST+<IFN N&4,<1>>>>]
  7656	037142	000004	006000			XWD	<IFN N&6,<INFTST>>,ARADEN
  7657			000040			N=N+1
  7658
  7659			000000			M=0
  7660						IFN N&6,<M=1>
  7661						IFE N&60-60,<M=1>
  7662			000000			A1=0
  7663						IFE N&66-20,<A1=1>
  7664			000001			IFE N&66-40,<A1=1>
  7665			106100			A0=ADFMPL+M*ADARPL+<IFE N&66-40,<ADEQV>>+A1*ADARMI
  7666						XWD <IFN N&1,<ET0>>+M*ET1+A0,<IFN N&10,<FCE>>+<IFE N&60,<SACINH>>+<IFN N&6,<PCCHNG+
  7667	037143	106100	000000		ABPCEN>>+<IFE N&3-2,<LNGCYC>>
  7668						XWD [XWD A0,ARSWAP+<IFN N&2,<TEST1>>],[XWD <IFE N&60-20,<ADARMI+ADFMPL>>+<IFE N&60-
  7669					40,<ADEQV+ADFMPL+ADARMI>>+<IFE N&60-60,<ADBRMI+ADFMMI+ADEQV+ADARPL+ADARMI>>+<IFE N&6-4,<PCCL
  7670	037144	046245	046246		K>>,BRAREN+<IFN N&2,<TEST+<IFN N&4,<1>>>>]
  7671	037145	000000	006000			XWD	<IFN N&6,<INFTST>>,ARADEN
  7672			000041			N=N+1
  7673
  7674			000000			M=0
  7675						IFN N&6,<M=1>
  7676						IFE N&60-60,<M=1>
  7677			000000			A1=0
  7678						IFE N&66-20,<A1=1>
  7679			000001			IFE N&66-40,<A1=1>
  7680			106100			A0=ADFMPL+M*ADARPL+<IFE N&66-40,<ADEQV>>+A1*ADARMI
  7681						XWD <IFN N&1,<ET0>>+M*ET1+A0,<IFN N&10,<FCE>>+<IFE N&60,<SACINH>>+<IFN N&6,<PCCHNG+
  7682	037146	106101	000000		ABPCEN>>+<IFE N&3-2,<LNGCYC>>
  7683						XWD [XWD A0,ARSWAP+<IFN N&2,<TEST1>>],[XWD <IFE N&60-20,<ADARMI+ADFMPL>>+<IFE N&60-
  7684					40,<ADEQV+ADFMPL+ADARMI>>+<IFE N&60-60,<ADBRMI+ADFMMI+ADEQV+ADARPL+ADARMI>>+<IFE N&6-4,<PCCL
  7685	037147	046245	046246		K>>,BRAREN+<IFN N&2,<TEST+<IFN N&4,<1>>>>]
  7686	037150	000000	006000			XWD	<IFN N&6,<INFTST>>,ARADEN
  7687			000042			N=N+1
  7688
  7689			000000			M=0
  7690			000001			IFN N&6,<M=1>
  7691						IFE N&60-60,<M=1>
  7692			000000			A1=0
  7693						IFE N&66-20,<A1=1>
  7694						IFE N&66-40,<A1=1>
  7695			006060			A0=ADFMPL+M*ADARPL+<IFE N&66-40,<ADEQV>>+A1*ADARMI
  7696						XWD <IFN N&1,<ET0>>+M*ET1+A0,<IFN N&10,<FCE>>+<IFE N&60,<SACINH>>+<IFN N&6,<PCCHNG+
  7697	037151	006062	140400		ABPCEN>>+<IFE N&3-2,<LNGCYC>>
  7698						XWD [XWD A0,ARSWAP+<IFN N&2,<TEST1>>],[XWD <IFE N&60-20,<ADARMI+ADFMPL>>+<IFE N&60-
  7699					40,<ADEQV+ADFMPL+ADARMI>>+<IFE N&60-60,<ADBRMI+ADFMMI+ADEQV+ADARPL+ADARMI>>+<IFE N&6-4,<PCCL
  7700	037152	046233	046247		K>>,BRAREN+<IFN N&2,<TEST+<IFN N&4,<1>>>>]
  7701	037153	000004	006000			XWD	<IFN N&6,<INFTST>>,ARADEN
  7702			000043			N=N+1
  7703
  7704			000000			M=0
  7705			000001			IFN N&6,<M=1>
DBKDA	DECSYSTEM10 KI10 ARITHMETIC RELIABILITY TEST, VER 0,3	MACRO %51(414) 14:29  9-JUN-76 PAGE 19-10
KI10A1	MAC	 9-JUN-76 13:52		DISPATCH TABLE FOR INSTRUCTIONS		600-777                                *** SEQ 0214

  7706						IFE N&60-60,<M=1>
  7707			000000			A1=0
  7708						IFE N&66-20,<A1=1>
  7709						IFE N&66-40,<A1=1>
  7710			006060			A0=ADFMPL+M*ADARPL+<IFE N&66-40,<ADEQV>>+A1*ADARMI
  7711						XWD <IFN N&1,<ET0>>+M*ET1+A0,<IFN N&10,<FCE>>+<IFE N&60,<SACINH>>+<IFN N&6,<PCCHNG+
  7712	037154	006063	100400		ABPCEN>>+<IFE N&3-2,<LNGCYC>>
  7713						XWD [XWD A0,ARSWAP+<IFN N&2,<TEST1>>],[XWD <IFE N&60-20,<ADARMI+ADFMPL>>+<IFE N&60-
  7714					40,<ADEQV+ADFMPL+ADARMI>>+<IFE N&60-60,<ADBRMI+ADFMMI+ADEQV+ADARPL+ADARMI>>+<IFE N&6-4,<PCCL
  7715	037155	046233	046247		K>>,BRAREN+<IFN N&2,<TEST+<IFN N&4,<1>>>>]
  7716	037156	000004	006000			XWD	<IFN N&6,<INFTST>>,ARADEN
  7717			000044			N=N+1
  7718
  7719			000000			M=0
  7720			000001			IFN N&6,<M=1>
  7721						IFE N&60-60,<M=1>
  7722			000000			A1=0
  7723						IFE N&66-20,<A1=1>
  7724						IFE N&66-40,<A1=1>
  7725			006060			A0=ADFMPL+M*ADARPL+<IFE N&66-40,<ADEQV>>+A1*ADARMI
  7726						XWD <IFN N&1,<ET0>>+M*ET1+A0,<IFN N&10,<FCE>>+<IFE N&60,<SACINH>>+<IFN N&6,<PCCHNG+
  7727	037157	006062	100400		ABPCEN>>+<IFE N&3-2,<LNGCYC>>
  7728						XWD [XWD A0,ARSWAP+<IFN N&2,<TEST1>>],[XWD <IFE N&60-20,<ADARMI+ADFMPL>>+<IFE N&60-
  7729					40,<ADEQV+ADFMPL+ADARMI>>+<IFE N&60-60,<ADBRMI+ADFMMI+ADEQV+ADARPL+ADARMI>>+<IFE N&6-4,<PCCL
  7730	037160	046235	046250		K>>,BRAREN+<IFN N&2,<TEST+<IFN N&4,<1>>>>]
  7731	037161	000004	006000			XWD	<IFN N&6,<INFTST>>,ARADEN
  7732			000045			N=N+1
  7733
  7734			000000			M=0
  7735			000001			IFN N&6,<M=1>
  7736						IFE N&60-60,<M=1>
  7737			000000			A1=0
  7738						IFE N&66-20,<A1=1>
  7739						IFE N&66-40,<A1=1>
  7740			006060			A0=ADFMPL+M*ADARPL+<IFE N&66-40,<ADEQV>>+A1*ADARMI
  7741						XWD <IFN N&1,<ET0>>+M*ET1+A0,<IFN N&10,<FCE>>+<IFE N&60,<SACINH>>+<IFN N&6,<PCCHNG+
  7742	037162	006063	100400		ABPCEN>>+<IFE N&3-2,<LNGCYC>>
  7743						XWD [XWD A0,ARSWAP+<IFN N&2,<TEST1>>],[XWD <IFE N&60-20,<ADARMI+ADFMPL>>+<IFE N&60-
  7744					40,<ADEQV+ADFMPL+ADARMI>>+<IFE N&60-60,<ADBRMI+ADFMMI+ADEQV+ADARPL+ADARMI>>+<IFE N&6-4,<PCCL
  7745	037163	046235	046250		K>>,BRAREN+<IFN N&2,<TEST+<IFN N&4,<1>>>>]
  7746	037164	000004	006000			XWD	<IFN N&6,<INFTST>>,ARADEN
  7747			000046			N=N+1
  7748
  7749			000000			M=0
  7750			000001			IFN N&6,<M=1>
  7751						IFE N&60-60,<M=1>
  7752			000000			A1=0
  7753						IFE N&66-20,<A1=1>
  7754						IFE N&66-40,<A1=1>
  7755			006060			A0=ADFMPL+M*ADARPL+<IFE N&66-40,<ADEQV>>+A1*ADARMI
  7756						XWD <IFN N&1,<ET0>>+M*ET1+A0,<IFN N&10,<FCE>>+<IFE N&60,<SACINH>>+<IFN N&6,<PCCHNG+
  7757	037165	006062	140400		ABPCEN>>+<IFE N&3-2,<LNGCYC>>
  7758						XWD [XWD A0,ARSWAP+<IFN N&2,<TEST1>>],[XWD <IFE N&60-20,<ADARMI+ADFMPL>>+<IFE N&60-
  7759					40,<ADEQV+ADFMPL+ADARMI>>+<IFE N&60-60,<ADBRMI+ADFMMI+ADEQV+ADARPL+ADARMI>>+<IFE N&6-4,<PCCL
  7760	037166	046233	046251		K>>,BRAREN+<IFN N&2,<TEST+<IFN N&4,<1>>>>]
DBKDA	DECSYSTEM10 KI10 ARITHMETIC RELIABILITY TEST, VER 0,3	MACRO %51(414) 14:29  9-JUN-76 PAGE 19-11
KI10A1	MAC	 9-JUN-76 13:52		DISPATCH TABLE FOR INSTRUCTIONS		600-777                                *** SEQ 0215

  7761	037167	000004	006000			XWD	<IFN N&6,<INFTST>>,ARADEN
  7762			000047			N=N+1
  7763
  7764			000000			M=0
  7765			000001			IFN N&6,<M=1>
  7766						IFE N&60-60,<M=1>
  7767			000000			A1=0
  7768						IFE N&66-20,<A1=1>
  7769						IFE N&66-40,<A1=1>
  7770			006060			A0=ADFMPL+M*ADARPL+<IFE N&66-40,<ADEQV>>+A1*ADARMI
  7771						XWD <IFN N&1,<ET0>>+M*ET1+A0,<IFN N&10,<FCE>>+<IFE N&60,<SACINH>>+<IFN N&6,<PCCHNG+
  7772	037170	006063	100400		ABPCEN>>+<IFE N&3-2,<LNGCYC>>
  7773						XWD [XWD A0,ARSWAP+<IFN N&2,<TEST1>>],[XWD <IFE N&60-20,<ADARMI+ADFMPL>>+<IFE N&60-
  7774					40,<ADEQV+ADFMPL+ADARMI>>+<IFE N&60-60,<ADBRMI+ADFMMI+ADEQV+ADARPL+ADARMI>>+<IFE N&6-4,<PCCL
  7775	037171	046233	046251		K>>,BRAREN+<IFN N&2,<TEST+<IFN N&4,<1>>>>]
  7776	037172	000004	006000			XWD	<IFN N&6,<INFTST>>,ARADEN
  7777			000050			N=N+1
  7778
  7779			000000			M=0
  7780						IFN N&6,<M=1>
  7781						IFE N&60-60,<M=1>
  7782			000000			A1=0
  7783						IFE N&66-20,<A1=1>
  7784			000001			IFE N&66-40,<A1=1>
  7785			106100			A0=ADFMPL+M*ADARPL+<IFE N&66-40,<ADEQV>>+A1*ADARMI
  7786						XWD <IFN N&1,<ET0>>+M*ET1+A0,<IFN N&10,<FCE>>+<IFE N&60,<SACINH>>+<IFN N&6,<PCCHNG+
  7787	037173	106100	000001		ABPCEN>>+<IFE N&3-2,<LNGCYC>>
  7788						XWD [XWD A0,ARSWAP+<IFN N&2,<TEST1>>],[XWD <IFE N&60-20,<ADARMI+ADFMPL>>+<IFE N&60-
  7789					40,<ADEQV+ADFMPL+ADARMI>>+<IFE N&60-60,<ADBRMI+ADFMMI+ADEQV+ADARPL+ADARMI>>+<IFE N&6-4,<PCCL
  7790	037174	046245	046246		K>>,BRAREN+<IFN N&2,<TEST+<IFN N&4,<1>>>>]
  7791	037175	000000	006000			XWD	<IFN N&6,<INFTST>>,ARADEN
  7792			000051			N=N+1
  7793
  7794			000000			M=0
  7795						IFN N&6,<M=1>
  7796						IFE N&60-60,<M=1>
  7797			000000			A1=0
  7798						IFE N&66-20,<A1=1>
  7799			000001			IFE N&66-40,<A1=1>
  7800			106100			A0=ADFMPL+M*ADARPL+<IFE N&66-40,<ADEQV>>+A1*ADARMI
  7801						XWD <IFN N&1,<ET0>>+M*ET1+A0,<IFN N&10,<FCE>>+<IFE N&60,<SACINH>>+<IFN N&6,<PCCHNG+
  7802	037176	106101	000001		ABPCEN>>+<IFE N&3-2,<LNGCYC>>
  7803						XWD [XWD A0,ARSWAP+<IFN N&2,<TEST1>>],[XWD <IFE N&60-20,<ADARMI+ADFMPL>>+<IFE N&60-
  7804					40,<ADEQV+ADFMPL+ADARMI>>+<IFE N&60-60,<ADBRMI+ADFMMI+ADEQV+ADARPL+ADARMI>>+<IFE N&6-4,<PCCL
  7805	037177	046245	046246		K>>,BRAREN+<IFN N&2,<TEST+<IFN N&4,<1>>>>]
  7806	037200	000000	006000			XWD	<IFN N&6,<INFTST>>,ARADEN
  7807			000052			N=N+1
  7808
  7809			000000			M=0
  7810			000001			IFN N&6,<M=1>
  7811						IFE N&60-60,<M=1>
  7812			000000			A1=0
  7813						IFE N&66-20,<A1=1>
  7814						IFE N&66-40,<A1=1>
  7815			006060			A0=ADFMPL+M*ADARPL+<IFE N&66-40,<ADEQV>>+A1*ADARMI
DBKDA	DECSYSTEM10 KI10 ARITHMETIC RELIABILITY TEST, VER 0,3	MACRO %51(414) 14:29  9-JUN-76 PAGE 19-12
KI10A1	MAC	 9-JUN-76 13:52		DISPATCH TABLE FOR INSTRUCTIONS		600-777                                *** SEQ 0216

  7816						XWD <IFN N&1,<ET0>>+M*ET1+A0,<IFN N&10,<FCE>>+<IFE N&60,<SACINH>>+<IFN N&6,<PCCHNG+
  7817	037201	006062	140401		ABPCEN>>+<IFE N&3-2,<LNGCYC>>
  7818						XWD [XWD A0,ARSWAP+<IFN N&2,<TEST1>>],[XWD <IFE N&60-20,<ADARMI+ADFMPL>>+<IFE N&60-
  7819					40,<ADEQV+ADFMPL+ADARMI>>+<IFE N&60-60,<ADBRMI+ADFMMI+ADEQV+ADARPL+ADARMI>>+<IFE N&6-4,<PCCL
  7820	037202	046233	046247		K>>,BRAREN+<IFN N&2,<TEST+<IFN N&4,<1>>>>]
  7821	037203	000004	006000			XWD	<IFN N&6,<INFTST>>,ARADEN
  7822			000053			N=N+1
  7823
  7824			000000			M=0
  7825			000001			IFN N&6,<M=1>
  7826						IFE N&60-60,<M=1>
  7827			000000			A1=0
  7828						IFE N&66-20,<A1=1>
  7829						IFE N&66-40,<A1=1>
  7830			006060			A0=ADFMPL+M*ADARPL+<IFE N&66-40,<ADEQV>>+A1*ADARMI
  7831						XWD <IFN N&1,<ET0>>+M*ET1+A0,<IFN N&10,<FCE>>+<IFE N&60,<SACINH>>+<IFN N&6,<PCCHNG+
  7832	037204	006063	100401		ABPCEN>>+<IFE N&3-2,<LNGCYC>>
  7833						XWD [XWD A0,ARSWAP+<IFN N&2,<TEST1>>],[XWD <IFE N&60-20,<ADARMI+ADFMPL>>+<IFE N&60-
  7834					40,<ADEQV+ADFMPL+ADARMI>>+<IFE N&60-60,<ADBRMI+ADFMMI+ADEQV+ADARPL+ADARMI>>+<IFE N&6-4,<PCCL
  7835	037205	046233	046247		K>>,BRAREN+<IFN N&2,<TEST+<IFN N&4,<1>>>>]
  7836	037206	000004	006000			XWD	<IFN N&6,<INFTST>>,ARADEN
  7837			000054			N=N+1
  7838
  7839			000000			M=0
  7840			000001			IFN N&6,<M=1>
  7841						IFE N&60-60,<M=1>
  7842			000000			A1=0
  7843						IFE N&66-20,<A1=1>
  7844						IFE N&66-40,<A1=1>
  7845			006060			A0=ADFMPL+M*ADARPL+<IFE N&66-40,<ADEQV>>+A1*ADARMI
  7846						XWD <IFN N&1,<ET0>>+M*ET1+A0,<IFN N&10,<FCE>>+<IFE N&60,<SACINH>>+<IFN N&6,<PCCHNG+
  7847	037207	006062	100401		ABPCEN>>+<IFE N&3-2,<LNGCYC>>
  7848						XWD [XWD A0,ARSWAP+<IFN N&2,<TEST1>>],[XWD <IFE N&60-20,<ADARMI+ADFMPL>>+<IFE N&60-
  7849					40,<ADEQV+ADFMPL+ADARMI>>+<IFE N&60-60,<ADBRMI+ADFMMI+ADEQV+ADARPL+ADARMI>>+<IFE N&6-4,<PCCL
  7850	037210	046235	046250		K>>,BRAREN+<IFN N&2,<TEST+<IFN N&4,<1>>>>]
  7851	037211	000004	006000			XWD	<IFN N&6,<INFTST>>,ARADEN
  7852			000055			N=N+1
  7853
  7854			000000			M=0
  7855			000001			IFN N&6,<M=1>
  7856						IFE N&60-60,<M=1>
  7857			000000			A1=0
  7858						IFE N&66-20,<A1=1>
  7859						IFE N&66-40,<A1=1>
  7860			006060			A0=ADFMPL+M*ADARPL+<IFE N&66-40,<ADEQV>>+A1*ADARMI
  7861						XWD <IFN N&1,<ET0>>+M*ET1+A0,<IFN N&10,<FCE>>+<IFE N&60,<SACINH>>+<IFN N&6,<PCCHNG+
  7862	037212	006063	100401		ABPCEN>>+<IFE N&3-2,<LNGCYC>>
  7863						XWD [XWD A0,ARSWAP+<IFN N&2,<TEST1>>],[XWD <IFE N&60-20,<ADARMI+ADFMPL>>+<IFE N&60-
  7864					40,<ADEQV+ADFMPL+ADARMI>>+<IFE N&60-60,<ADBRMI+ADFMMI+ADEQV+ADARPL+ADARMI>>+<IFE N&6-4,<PCCL
  7865	037213	046235	046250		K>>,BRAREN+<IFN N&2,<TEST+<IFN N&4,<1>>>>]
  7866	037214	000004	006000			XWD	<IFN N&6,<INFTST>>,ARADEN
  7867			000056			N=N+1
  7868
  7869			000000			M=0
  7870			000001			IFN N&6,<M=1>
DBKDA	DECSYSTEM10 KI10 ARITHMETIC RELIABILITY TEST, VER 0,3	MACRO %51(414) 14:29  9-JUN-76 PAGE 19-13
KI10A1	MAC	 9-JUN-76 13:52		DISPATCH TABLE FOR INSTRUCTIONS		600-777                                *** SEQ 0217

  7871						IFE N&60-60,<M=1>
  7872			000000			A1=0
  7873						IFE N&66-20,<A1=1>
  7874						IFE N&66-40,<A1=1>
  7875			006060			A0=ADFMPL+M*ADARPL+<IFE N&66-40,<ADEQV>>+A1*ADARMI
  7876						XWD <IFN N&1,<ET0>>+M*ET1+A0,<IFN N&10,<FCE>>+<IFE N&60,<SACINH>>+<IFN N&6,<PCCHNG+
  7877	037215	006062	140401		ABPCEN>>+<IFE N&3-2,<LNGCYC>>
  7878						XWD [XWD A0,ARSWAP+<IFN N&2,<TEST1>>],[XWD <IFE N&60-20,<ADARMI+ADFMPL>>+<IFE N&60-
  7879					40,<ADEQV+ADFMPL+ADARMI>>+<IFE N&60-60,<ADBRMI+ADFMMI+ADEQV+ADARPL+ADARMI>>+<IFE N&6-4,<PCCL
  7880	037216	046233	046251		K>>,BRAREN+<IFN N&2,<TEST+<IFN N&4,<1>>>>]
  7881	037217	000004	006000			XWD	<IFN N&6,<INFTST>>,ARADEN
  7882			000057			N=N+1
  7883
  7884			000000			M=0
  7885			000001			IFN N&6,<M=1>
  7886						IFE N&60-60,<M=1>
  7887			000000			A1=0
  7888						IFE N&66-20,<A1=1>
  7889						IFE N&66-40,<A1=1>
  7890			006060			A0=ADFMPL+M*ADARPL+<IFE N&66-40,<ADEQV>>+A1*ADARMI
  7891						XWD <IFN N&1,<ET0>>+M*ET1+A0,<IFN N&10,<FCE>>+<IFE N&60,<SACINH>>+<IFN N&6,<PCCHNG+
  7892	037220	006063	100401		ABPCEN>>+<IFE N&3-2,<LNGCYC>>
  7893						XWD [XWD A0,ARSWAP+<IFN N&2,<TEST1>>],[XWD <IFE N&60-20,<ADARMI+ADFMPL>>+<IFE N&60-
  7894					40,<ADEQV+ADFMPL+ADARMI>>+<IFE N&60-60,<ADBRMI+ADFMMI+ADEQV+ADARPL+ADARMI>>+<IFE N&6-4,<PCCL
  7895	037221	046233	046251		K>>,BRAREN+<IFN N&2,<TEST+<IFN N&4,<1>>>>]
  7896	037222	000004	006000			XWD	<IFN N&6,<INFTST>>,ARADEN
  7897			000060			N=N+1
  7898
  7899			000000			M=0
  7900						IFN N&6,<M=1>
  7901			000001			IFE N&60-60,<M=1>
  7902			000000			A1=0
  7903						IFE N&66-20,<A1=1>
  7904						IFE N&66-40,<A1=1>
  7905			006060			A0=ADFMPL+M*ADARPL+<IFE N&66-40,<ADEQV>>+A1*ADARMI
  7906						XWD <IFN N&1,<ET0>>+M*ET1+A0,<IFN N&10,<FCE>>+<IFE N&60,<SACINH>>+<IFN N&6,<PCCHNG+
  7907	037223	006062	000000		ABPCEN>>+<IFE N&3-2,<LNGCYC>>
  7908						XWD [XWD A0,ARSWAP+<IFN N&2,<TEST1>>],[XWD <IFE N&60-20,<ADARMI+ADFMPL>>+<IFE N&60-
  7909					40,<ADEQV+ADFMPL+ADARMI>>+<IFE N&60-60,<ADBRMI+ADFMMI+ADEQV+ADARPL+ADARMI>>+<IFE N&6-4,<PCCL
  7910	037224	046235	046252		K>>,BRAREN+<IFN N&2,<TEST+<IFN N&4,<1>>>>]
  7911	037225	000000	006000			XWD	<IFN N&6,<INFTST>>,ARADEN
  7912			000061			N=N+1
  7913
  7914			000000			M=0
  7915						IFN N&6,<M=1>
  7916			000001			IFE N&60-60,<M=1>
  7917			000000			A1=0
  7918						IFE N&66-20,<A1=1>
  7919						IFE N&66-40,<A1=1>
  7920			006060			A0=ADFMPL+M*ADARPL+<IFE N&66-40,<ADEQV>>+A1*ADARMI
  7921						XWD <IFN N&1,<ET0>>+M*ET1+A0,<IFN N&10,<FCE>>+<IFE N&60,<SACINH>>+<IFN N&6,<PCCHNG+
  7922	037226	006063	000000		ABPCEN>>+<IFE N&3-2,<LNGCYC>>
  7923						XWD [XWD A0,ARSWAP+<IFN N&2,<TEST1>>],[XWD <IFE N&60-20,<ADARMI+ADFMPL>>+<IFE N&60-
  7924					40,<ADEQV+ADFMPL+ADARMI>>+<IFE N&60-60,<ADBRMI+ADFMMI+ADEQV+ADARPL+ADARMI>>+<IFE N&6-4,<PCCL
  7925	037227	046235	046252		K>>,BRAREN+<IFN N&2,<TEST+<IFN N&4,<1>>>>]
DBKDA	DECSYSTEM10 KI10 ARITHMETIC RELIABILITY TEST, VER 0,3	MACRO %51(414) 14:29  9-JUN-76 PAGE 19-14
KI10A1	MAC	 9-JUN-76 13:52		DISPATCH TABLE FOR INSTRUCTIONS		600-777                                *** SEQ 0218

  7926	037230	000000	006000			XWD	<IFN N&6,<INFTST>>,ARADEN
  7927			000062			N=N+1
  7928
  7929			000000			M=0
  7930			000001			IFN N&6,<M=1>
  7931			000001			IFE N&60-60,<M=1>
  7932			000000			A1=0
  7933						IFE N&66-20,<A1=1>
  7934						IFE N&66-40,<A1=1>
  7935			006060			A0=ADFMPL+M*ADARPL+<IFE N&66-40,<ADEQV>>+A1*ADARMI
  7936						XWD <IFN N&1,<ET0>>+M*ET1+A0,<IFN N&10,<FCE>>+<IFE N&60,<SACINH>>+<IFN N&6,<PCCHNG+
  7937	037231	006062	140400		ABPCEN>>+<IFE N&3-2,<LNGCYC>>
  7938						XWD [XWD A0,ARSWAP+<IFN N&2,<TEST1>>],[XWD <IFE N&60-20,<ADARMI+ADFMPL>>+<IFE N&60-
  7939					40,<ADEQV+ADFMPL+ADARMI>>+<IFE N&60-60,<ADBRMI+ADFMMI+ADEQV+ADARPL+ADARMI>>+<IFE N&6-4,<PCCL
  7940	037232	046233	046253		K>>,BRAREN+<IFN N&2,<TEST+<IFN N&4,<1>>>>]
  7941	037233	000004	006000			XWD	<IFN N&6,<INFTST>>,ARADEN
  7942			000063			N=N+1
  7943
  7944			000000			M=0
  7945			000001			IFN N&6,<M=1>
  7946			000001			IFE N&60-60,<M=1>
  7947			000000			A1=0
  7948						IFE N&66-20,<A1=1>
  7949						IFE N&66-40,<A1=1>
  7950			006060			A0=ADFMPL+M*ADARPL+<IFE N&66-40,<ADEQV>>+A1*ADARMI
  7951						XWD <IFN N&1,<ET0>>+M*ET1+A0,<IFN N&10,<FCE>>+<IFE N&60,<SACINH>>+<IFN N&6,<PCCHNG+
  7952	037234	006063	100400		ABPCEN>>+<IFE N&3-2,<LNGCYC>>
  7953						XWD [XWD A0,ARSWAP+<IFN N&2,<TEST1>>],[XWD <IFE N&60-20,<ADARMI+ADFMPL>>+<IFE N&60-
  7954					40,<ADEQV+ADFMPL+ADARMI>>+<IFE N&60-60,<ADBRMI+ADFMMI+ADEQV+ADARPL+ADARMI>>+<IFE N&6-4,<PCCL
  7955	037235	046233	046253		K>>,BRAREN+<IFN N&2,<TEST+<IFN N&4,<1>>>>]
  7956	037236	000004	006000			XWD	<IFN N&6,<INFTST>>,ARADEN
  7957			000064			N=N+1
  7958
  7959			000000			M=0
  7960			000001			IFN N&6,<M=1>
  7961			000001			IFE N&60-60,<M=1>
  7962			000000			A1=0
  7963						IFE N&66-20,<A1=1>
  7964						IFE N&66-40,<A1=1>
  7965			006060			A0=ADFMPL+M*ADARPL+<IFE N&66-40,<ADEQV>>+A1*ADARMI
  7966						XWD <IFN N&1,<ET0>>+M*ET1+A0,<IFN N&10,<FCE>>+<IFE N&60,<SACINH>>+<IFN N&6,<PCCHNG+
  7967	037237	006062	100400		ABPCEN>>+<IFE N&3-2,<LNGCYC>>
  7968						XWD [XWD A0,ARSWAP+<IFN N&2,<TEST1>>],[XWD <IFE N&60-20,<ADARMI+ADFMPL>>+<IFE N&60-
  7969					40,<ADEQV+ADFMPL+ADARMI>>+<IFE N&60-60,<ADBRMI+ADFMMI+ADEQV+ADARPL+ADARMI>>+<IFE N&6-4,<PCCL
  7970	037240	046235	046254		K>>,BRAREN+<IFN N&2,<TEST+<IFN N&4,<1>>>>]
  7971	037241	000004	006000			XWD	<IFN N&6,<INFTST>>,ARADEN
  7972			000065			N=N+1
  7973
  7974			000000			M=0
  7975			000001			IFN N&6,<M=1>
  7976			000001			IFE N&60-60,<M=1>
  7977			000000			A1=0
  7978						IFE N&66-20,<A1=1>
  7979						IFE N&66-40,<A1=1>
  7980			006060			A0=ADFMPL+M*ADARPL+<IFE N&66-40,<ADEQV>>+A1*ADARMI
DBKDA	DECSYSTEM10 KI10 ARITHMETIC RELIABILITY TEST, VER 0,3	MACRO %51(414) 14:29  9-JUN-76 PAGE 19-15
KI10A1	MAC	 9-JUN-76 13:52		DISPATCH TABLE FOR INSTRUCTIONS		600-777                                *** SEQ 0219

  7981						XWD <IFN N&1,<ET0>>+M*ET1+A0,<IFN N&10,<FCE>>+<IFE N&60,<SACINH>>+<IFN N&6,<PCCHNG+
  7982	037242	006063	100400		ABPCEN>>+<IFE N&3-2,<LNGCYC>>
  7983						XWD [XWD A0,ARSWAP+<IFN N&2,<TEST1>>],[XWD <IFE N&60-20,<ADARMI+ADFMPL>>+<IFE N&60-
  7984					40,<ADEQV+ADFMPL+ADARMI>>+<IFE N&60-60,<ADBRMI+ADFMMI+ADEQV+ADARPL+ADARMI>>+<IFE N&6-4,<PCCL
  7985	037243	046235	046254		K>>,BRAREN+<IFN N&2,<TEST+<IFN N&4,<1>>>>]
  7986	037244	000004	006000			XWD	<IFN N&6,<INFTST>>,ARADEN
  7987			000066			N=N+1
  7988
  7989			000000			M=0
  7990			000001			IFN N&6,<M=1>
  7991			000001			IFE N&60-60,<M=1>
  7992			000000			A1=0
  7993						IFE N&66-20,<A1=1>
  7994						IFE N&66-40,<A1=1>
  7995			006060			A0=ADFMPL+M*ADARPL+<IFE N&66-40,<ADEQV>>+A1*ADARMI
  7996						XWD <IFN N&1,<ET0>>+M*ET1+A0,<IFN N&10,<FCE>>+<IFE N&60,<SACINH>>+<IFN N&6,<PCCHNG+
  7997	037245	006062	140400		ABPCEN>>+<IFE N&3-2,<LNGCYC>>
  7998						XWD [XWD A0,ARSWAP+<IFN N&2,<TEST1>>],[XWD <IFE N&60-20,<ADARMI+ADFMPL>>+<IFE N&60-
  7999					40,<ADEQV+ADFMPL+ADARMI>>+<IFE N&60-60,<ADBRMI+ADFMMI+ADEQV+ADARPL+ADARMI>>+<IFE N&6-4,<PCCL
  8000	037246	046233	046255		K>>,BRAREN+<IFN N&2,<TEST+<IFN N&4,<1>>>>]
  8001	037247	000004	006000			XWD	<IFN N&6,<INFTST>>,ARADEN
  8002			000067			N=N+1
  8003
  8004			000000			M=0
  8005			000001			IFN N&6,<M=1>
  8006			000001			IFE N&60-60,<M=1>
  8007			000000			A1=0
  8008						IFE N&66-20,<A1=1>
  8009						IFE N&66-40,<A1=1>
  8010			006060			A0=ADFMPL+M*ADARPL+<IFE N&66-40,<ADEQV>>+A1*ADARMI
  8011						XWD <IFN N&1,<ET0>>+M*ET1+A0,<IFN N&10,<FCE>>+<IFE N&60,<SACINH>>+<IFN N&6,<PCCHNG+
  8012	037250	006063	100400		ABPCEN>>+<IFE N&3-2,<LNGCYC>>
  8013						XWD [XWD A0,ARSWAP+<IFN N&2,<TEST1>>],[XWD <IFE N&60-20,<ADARMI+ADFMPL>>+<IFE N&60-
  8014					40,<ADEQV+ADFMPL+ADARMI>>+<IFE N&60-60,<ADBRMI+ADFMMI+ADEQV+ADARPL+ADARMI>>+<IFE N&6-4,<PCCL
  8015	037251	046233	046255		K>>,BRAREN+<IFN N&2,<TEST+<IFN N&4,<1>>>>]
  8016	037252	000004	006000			XWD	<IFN N&6,<INFTST>>,ARADEN
  8017			000070			N=N+1
  8018
  8019			000000			M=0
  8020						IFN N&6,<M=1>
  8021			000001			IFE N&60-60,<M=1>
  8022			000000			A1=0
  8023						IFE N&66-20,<A1=1>
  8024						IFE N&66-40,<A1=1>
  8025			006060			A0=ADFMPL+M*ADARPL+<IFE N&66-40,<ADEQV>>+A1*ADARMI
  8026						XWD <IFN N&1,<ET0>>+M*ET1+A0,<IFN N&10,<FCE>>+<IFE N&60,<SACINH>>+<IFN N&6,<PCCHNG+
  8027	037253	006062	000001		ABPCEN>>+<IFE N&3-2,<LNGCYC>>
  8028						XWD [XWD A0,ARSWAP+<IFN N&2,<TEST1>>],[XWD <IFE N&60-20,<ADARMI+ADFMPL>>+<IFE N&60-
  8029					40,<ADEQV+ADFMPL+ADARMI>>+<IFE N&60-60,<ADBRMI+ADFMMI+ADEQV+ADARPL+ADARMI>>+<IFE N&6-4,<PCCL
  8030	037254	046235	046252		K>>,BRAREN+<IFN N&2,<TEST+<IFN N&4,<1>>>>]
  8031	037255	000000	006000			XWD	<IFN N&6,<INFTST>>,ARADEN
  8032			000071			N=N+1
  8033
  8034			000000			M=0
  8035						IFN N&6,<M=1>
DBKDA	DECSYSTEM10 KI10 ARITHMETIC RELIABILITY TEST, VER 0,3	MACRO %51(414) 14:29  9-JUN-76 PAGE 19-16
KI10A1	MAC	 9-JUN-76 13:52		DISPATCH TABLE FOR INSTRUCTIONS		600-777                                *** SEQ 0220

  8036			000001			IFE N&60-60,<M=1>
  8037			000000			A1=0
  8038						IFE N&66-20,<A1=1>
  8039						IFE N&66-40,<A1=1>
  8040			006060			A0=ADFMPL+M*ADARPL+<IFE N&66-40,<ADEQV>>+A1*ADARMI
  8041						XWD <IFN N&1,<ET0>>+M*ET1+A0,<IFN N&10,<FCE>>+<IFE N&60,<SACINH>>+<IFN N&6,<PCCHNG+
  8042	037256	006063	000001		ABPCEN>>+<IFE N&3-2,<LNGCYC>>
  8043						XWD [XWD A0,ARSWAP+<IFN N&2,<TEST1>>],[XWD <IFE N&60-20,<ADARMI+ADFMPL>>+<IFE N&60-
  8044					40,<ADEQV+ADFMPL+ADARMI>>+<IFE N&60-60,<ADBRMI+ADFMMI+ADEQV+ADARPL+ADARMI>>+<IFE N&6-4,<PCCL
  8045	037257	046235	046252		K>>,BRAREN+<IFN N&2,<TEST+<IFN N&4,<1>>>>]
  8046	037260	000000	006000			XWD	<IFN N&6,<INFTST>>,ARADEN
  8047			000072			N=N+1
  8048
  8049			000000			M=0
  8050			000001			IFN N&6,<M=1>
  8051			000001			IFE N&60-60,<M=1>
  8052			000000			A1=0
  8053						IFE N&66-20,<A1=1>
  8054						IFE N&66-40,<A1=1>
  8055			006060			A0=ADFMPL+M*ADARPL+<IFE N&66-40,<ADEQV>>+A1*ADARMI
  8056						XWD <IFN N&1,<ET0>>+M*ET1+A0,<IFN N&10,<FCE>>+<IFE N&60,<SACINH>>+<IFN N&6,<PCCHNG+
  8057	037261	006062	140401		ABPCEN>>+<IFE N&3-2,<LNGCYC>>
  8058						XWD [XWD A0,ARSWAP+<IFN N&2,<TEST1>>],[XWD <IFE N&60-20,<ADARMI+ADFMPL>>+<IFE N&60-
  8059					40,<ADEQV+ADFMPL+ADARMI>>+<IFE N&60-60,<ADBRMI+ADFMMI+ADEQV+ADARPL+ADARMI>>+<IFE N&6-4,<PCCL
  8060	037262	046233	046253		K>>,BRAREN+<IFN N&2,<TEST+<IFN N&4,<1>>>>]
  8061	037263	000004	006000			XWD	<IFN N&6,<INFTST>>,ARADEN
  8062			000073			N=N+1
  8063
  8064			000000			M=0
  8065			000001			IFN N&6,<M=1>
  8066			000001			IFE N&60-60,<M=1>
  8067			000000			A1=0
  8068						IFE N&66-20,<A1=1>
  8069						IFE N&66-40,<A1=1>
  8070			006060			A0=ADFMPL+M*ADARPL+<IFE N&66-40,<ADEQV>>+A1*ADARMI
  8071						XWD <IFN N&1,<ET0>>+M*ET1+A0,<IFN N&10,<FCE>>+<IFE N&60,<SACINH>>+<IFN N&6,<PCCHNG+
  8072	037264	006063	100401		ABPCEN>>+<IFE N&3-2,<LNGCYC>>
  8073						XWD [XWD A0,ARSWAP+<IFN N&2,<TEST1>>],[XWD <IFE N&60-20,<ADARMI+ADFMPL>>+<IFE N&60-
  8074					40,<ADEQV+ADFMPL+ADARMI>>+<IFE N&60-60,<ADBRMI+ADFMMI+ADEQV+ADARPL+ADARMI>>+<IFE N&6-4,<PCCL
  8075	037265	046233	046253		K>>,BRAREN+<IFN N&2,<TEST+<IFN N&4,<1>>>>]
  8076	037266	000004	006000			XWD	<IFN N&6,<INFTST>>,ARADEN
  8077			000074			N=N+1
  8078
  8079			000000			M=0
  8080			000001			IFN N&6,<M=1>
  8081			000001			IFE N&60-60,<M=1>
  8082			000000			A1=0
  8083						IFE N&66-20,<A1=1>
  8084						IFE N&66-40,<A1=1>
  8085			006060			A0=ADFMPL+M*ADARPL+<IFE N&66-40,<ADEQV>>+A1*ADARMI
  8086						XWD <IFN N&1,<ET0>>+M*ET1+A0,<IFN N&10,<FCE>>+<IFE N&60,<SACINH>>+<IFN N&6,<PCCHNG+
  8087	037267	006062	100401		ABPCEN>>+<IFE N&3-2,<LNGCYC>>
  8088						XWD [XWD A0,ARSWAP+<IFN N&2,<TEST1>>],[XWD <IFE N&60-20,<ADARMI+ADFMPL>>+<IFE N&60-
  8089					40,<ADEQV+ADFMPL+ADARMI>>+<IFE N&60-60,<ADBRMI+ADFMMI+ADEQV+ADARPL+ADARMI>>+<IFE N&6-4,<PCCL
  8090	037270	046235	046254		K>>,BRAREN+<IFN N&2,<TEST+<IFN N&4,<1>>>>]
DBKDA	DECSYSTEM10 KI10 ARITHMETIC RELIABILITY TEST, VER 0,3	MACRO %51(414) 14:29  9-JUN-76 PAGE 19-17
KI10A1	MAC	 9-JUN-76 13:52		DISPATCH TABLE FOR INSTRUCTIONS		600-777                                *** SEQ 0221

  8091	037271	000004	006000			XWD	<IFN N&6,<INFTST>>,ARADEN
  8092			000075			N=N+1
  8093
  8094			000000			M=0
  8095			000001			IFN N&6,<M=1>
  8096			000001			IFE N&60-60,<M=1>
  8097			000000			A1=0
  8098						IFE N&66-20,<A1=1>
  8099						IFE N&66-40,<A1=1>
  8100			006060			A0=ADFMPL+M*ADARPL+<IFE N&66-40,<ADEQV>>+A1*ADARMI
  8101						XWD <IFN N&1,<ET0>>+M*ET1+A0,<IFN N&10,<FCE>>+<IFE N&60,<SACINH>>+<IFN N&6,<PCCHNG+
  8102	037272	006063	100401		ABPCEN>>+<IFE N&3-2,<LNGCYC>>
  8103						XWD [XWD A0,ARSWAP+<IFN N&2,<TEST1>>],[XWD <IFE N&60-20,<ADARMI+ADFMPL>>+<IFE N&60-
  8104					40,<ADEQV+ADFMPL+ADARMI>>+<IFE N&60-60,<ADBRMI+ADFMMI+ADEQV+ADARPL+ADARMI>>+<IFE N&6-4,<PCCL
  8105	037273	046235	046254		K>>,BRAREN+<IFN N&2,<TEST+<IFN N&4,<1>>>>]
  8106	037274	000004	006000			XWD	<IFN N&6,<INFTST>>,ARADEN
  8107			000076			N=N+1
  8108
  8109			000000			M=0
  8110			000001			IFN N&6,<M=1>
  8111			000001			IFE N&60-60,<M=1>
  8112			000000			A1=0
  8113						IFE N&66-20,<A1=1>
  8114						IFE N&66-40,<A1=1>
  8115			006060			A0=ADFMPL+M*ADARPL+<IFE N&66-40,<ADEQV>>+A1*ADARMI
  8116						XWD <IFN N&1,<ET0>>+M*ET1+A0,<IFN N&10,<FCE>>+<IFE N&60,<SACINH>>+<IFN N&6,<PCCHNG+
  8117	037275	006062	140401		ABPCEN>>+<IFE N&3-2,<LNGCYC>>
  8118						XWD [XWD A0,ARSWAP+<IFN N&2,<TEST1>>],[XWD <IFE N&60-20,<ADARMI+ADFMPL>>+<IFE N&60-
  8119					40,<ADEQV+ADFMPL+ADARMI>>+<IFE N&60-60,<ADBRMI+ADFMMI+ADEQV+ADARPL+ADARMI>>+<IFE N&6-4,<PCCL
  8120	037276	046233	046255		K>>,BRAREN+<IFN N&2,<TEST+<IFN N&4,<1>>>>]
  8121	037277	000004	006000			XWD	<IFN N&6,<INFTST>>,ARADEN
  8122			000077			N=N+1
  8123
  8124			000000			M=0
  8125			000001			IFN N&6,<M=1>
  8126			000001			IFE N&60-60,<M=1>
  8127			000000			A1=0
  8128						IFE N&66-20,<A1=1>
  8129						IFE N&66-40,<A1=1>
  8130			006060			A0=ADFMPL+M*ADARPL+<IFE N&66-40,<ADEQV>>+A1*ADARMI
  8131						XWD <IFN N&1,<ET0>>+M*ET1+A0,<IFN N&10,<FCE>>+<IFE N&60,<SACINH>>+<IFN N&6,<PCCHNG+
  8132	037300	006063	100401		ABPCEN>>+<IFE N&3-2,<LNGCYC>>
  8133						XWD [XWD A0,ARSWAP+<IFN N&2,<TEST1>>],[XWD <IFE N&60-20,<ADARMI+ADFMPL>>+<IFE N&60-
  8134					40,<ADEQV+ADFMPL+ADARMI>>+<IFE N&60-60,<ADBRMI+ADFMMI+ADEQV+ADARPL+ADARMI>>+<IFE N&6-4,<PCCL
  8135	037301	046233	046255		K>>,BRAREN+<IFN N&2,<TEST+<IFN N&4,<1>>>>]
  8136	037302	000004	006000			XWD	<IFN N&6,<INFTST>>,ARADEN
  8137			000100			N=N+1
  8138
  8139
  8140						IFNDEF	SIMASB,<
  8141					;*IOTS								700-
  8142						BLOCK	300
  8143
  8144					IFN TABLE+3000-.,<PRINTX TABLE LENGTH INCORRECT>
  8145					>
DBKDA	DECSYSTEM10 KI10 ARITHMETIC RELIABILITY TEST, VER 0,3	MACRO %51(414) 14:29  9-JUN-76 PAGE 20
KI10A1	MAC	 9-JUN-76 13:52		DISPATCH TABLE FOR INSTRUCTIONS		TWO PART INST'S                        *** SEQ 0222

  8146					SUBTTL	DISPATCH TABLE FOR INSTRUCTIONS		TWO PART INST'S
  8147
  8148	037303				BPINC:
  8149			000003			N=3
  8150						REPEAT 5,
  8151					<	XWD ADADD+<IFN N&5-5,<ET0+ADARPL+ADCR36+ADBRMI^_
  8152					+ADBRPL+ADMI1B>>,SACINH+<IFN N&4,<PCCHNG>>+<IFN N&5-5,<FCEPSE^_
  8153					+LNGCYC+BPIFD>>+<IFE N&5-5,<FCE+BPNIFD>>
  8154						XWD [XWD ADADD,BYTE0],0
  8155						BYTE2+<IFE N&4,<2>>
  8156						N=N+1
  8157					>
  8158						XWD ADADD+<IFN N&5-5,<ET0+ADARPL+ADCR36+ADBRMI+ADBRPL+ADMI1B>>,SACINH+<IFN N&4,<PCC
  8159	037303	461661	046043		HNG>>+<IFN N&5-5,<FCEPSE+LNGCYC+BPIFD>>+<IFE N&5-5,<FCE+BPNIFD>>
  8160	037304	046256	000000			XWD [XWD ADADD,BYTE0],0
  8161	037305	000000	000342			BYTE2+<IFE N&4,<2>>
  8162			000004			N=N+1
  8163
  8164						XWD ADADD+<IFN N&5-5,<ET0+ADARPL+ADCR36+ADBRMI+ADBRPL+ADMI1B>>,SACINH+<IFN N&4,<PCC
  8165	037306	461661	046443		HNG>>+<IFN N&5-5,<FCEPSE+LNGCYC+BPIFD>>+<IFE N&5-5,<FCE+BPNIFD>>
  8166	037307	046256	000000			XWD [XWD ADADD,BYTE0],0
  8167	037310	000000	000340			BYTE2+<IFE N&4,<2>>
  8168			000005			N=N+1
  8169
  8170						XWD ADADD+<IFN N&5-5,<ET0+ADARPL+ADCR36+ADBRMI+ADBRPL+ADMI1B>>,SACINH+<IFN N&4,<PCC
  8171	037311	040000	005441		HNG>>+<IFN N&5-5,<FCEPSE+LNGCYC+BPIFD>>+<IFE N&5-5,<FCE+BPNIFD>>
  8172	037312	046256	000000			XWD [XWD ADADD,BYTE0],0
  8173	037313	000000	000340			BYTE2+<IFE N&4,<2>>
  8174			000006			N=N+1
  8175
  8176						XWD ADADD+<IFN N&5-5,<ET0+ADARPL+ADCR36+ADBRMI+ADBRPL+ADMI1B>>,SACINH+<IFN N&4,<PCC
  8177	037314	461661	046443		HNG>>+<IFN N&5-5,<FCEPSE+LNGCYC+BPIFD>>+<IFE N&5-5,<FCE+BPNIFD>>
  8178	037315	046256	000000			XWD [XWD ADADD,BYTE0],0
  8179	037316	000000	000340			BYTE2+<IFE N&4,<2>>
  8180			000007			N=N+1
  8181
  8182						XWD ADADD+<IFN N&5-5,<ET0+ADARPL+ADCR36+ADBRMI+ADBRPL+ADMI1B>>,SACINH+<IFN N&4,<PCC
  8183	037317	040000	005441		HNG>>+<IFN N&5-5,<FCEPSE+LNGCYC+BPIFD>>+<IFE N&5-5,<FCE+BPNIFD>>
  8184	037320	046256	000000			XWD [XWD ADADD,BYTE0],0
  8185	037321	000000	000340			BYTE2+<IFE N&4,<2>>
  8186			000010			N=N+1
  8187
  8188
DBKDA	DECSYSTEM10 KI10 ARITHMETIC RELIABILITY TEST, VER 0,3	MACRO %51(414) 14:29  9-JUN-76 PAGE 21
KI10A1	MAC	 9-JUN-76 13:52		DISPATCH TABLE FOR INSTRUCTIONS		TWO PART INST'S                        *** SEQ 0223

  8189	037322				BPNINC:
  8190	037322	040000	004040			XWD ADADD,SACINH+BPNI2D		;IBP (BYF6(1))
  8191	037323	000000	000000			0
  8192	037324	000000	000342			BYTE2+2
  8193
  8194						REPEAT 4,
  8195					<	XWD ADADD,FCE+SACINH+PCCHNG+BPNIFD
  8196						0
  8197						BYTE2
  8198					>
  8199	037325	040000	005441			XWD ADADD,FCE+SACINH+PCCHNG+BPNIFD
  8200	037326	000000	000000			0
  8201	037327	000000	000340			BYTE2
  8202
  8203	037330	040000	005441			XWD ADADD,FCE+SACINH+PCCHNG+BPNIFD
  8204	037331	000000	000000			0
  8205	037332	000000	000340			BYTE2
  8206
  8207	037333	040000	005441			XWD ADADD,FCE+SACINH+PCCHNG+BPNIFD
  8208	037334	000000	000000			0
  8209	037335	000000	000340			BYTE2
  8210
  8211	037336	040000	005441			XWD ADADD,FCE+SACINH+PCCHNG+BPNIFD
  8212	037337	000000	000000			0
  8213	037340	000000	000340			BYTE2
  8214
  8215
  8216	037341	060073	026060		DMVPT2:	XWD ADARPL+ADADD+ADCR36+ADMAGIC+ET0+ET1,STORE+SACINH+DMVEFD
  8217	037342	046257	046260			XWD [DMVE0A],[XWD ADFMPL,0]
  8218	037343	000000	006000			ARADEN
  8219
  8220	037344	060073	026060			XWD ADARPL+ADADD+ADCR36+ADMAGIC+ET0+ET1,STORE+SACINH+DMVEFD
  8221	037345	046261	046262			XWD [XWD ADADD+ADCR36+ADARPL+ADMAGIC,DMVE0A],[XWD ADFMMI+ADADD+ADCR36,DMVN1A]
  8222	037346	000000	006407			ARADEN+DMVN2A
  8223
  8224						IFNDEF	SIMASB,<
  8225					MUUO2:	XWD ET0,STORE+SACINH
  8226						XWD [MUUO02],0
  8227						XWD 0,ARPCEN+ARFLGS
  8228
  8229					MUUO3:	ABADEN+PCCHNG+MUO3FD
  8230						XWD 0,0
  8231						XWD ADARPL,MUUO32
  8232					>
DBKDA	DECSYSTEM10 KI10 ARITHMETIC RELIABILITY TEST, VER 0,3	MACRO %51(414) 14:29  9-JUN-76 PAGE 22
KI10A1	MAC	 9-JUN-76 13:52		DISPATCH SUBROUTINES FROM MAIN TABLE                                           *** SEQ 0224

  8233					SUBTTL	DISPATCH SUBROUTINES FROM MAIN TABLE
  8234
  8235						DEFINE DSYM (A)
  8236					<	A==.-ETAB
  8237						IFG A-777,<PRINTX DISPATCH TABLE OVERFLOW>>
  8238			037346			ETAB=.-1
  8239
  8240			000001		DSYM AOBJX^	AOBJX==.-ETAB
  8241	037347	660 01 0 00 100000 		TRO	T,ABPCEN		;AOBJP
  8242	037350	331 00 0 00 000011 		SKIPL	AD			;AOBJN
  8243	037351	640 01 0 00 100000 		TRC	T,ABPCEN
  8244	037352	263 17 0 00 000000 		POPJ	P,
  8245
  8246			000005		DSYM JRST1^	JRST1==.-ETAB
  8247	037353	254 00 0 00 040327 		JRST	JRST2
  8248			000006		DSYM JFCL1^	JFCL1==.-ETAB
  8249	037354	254 00 0 00 040301 		JRST	JFCL2
  8250
  8251			000007		DSYM FWT^	FWT==.-ETAB
  8252	037355	325 06 0 00 030065 		JUMPGE	AR,CPOPJ
  8253	037356	660 01 0 00 006000 		TRO	T,ARADEN
  8254
  8255			000011		DSYM ADSUB^	ADSUB==.-ETAB
  8256	037357	205 02 0 00 700000 	ADSUB1:	MOVSI	T1,AROV!CRY0!CRY1
  8257	037360	404 02 0 00 041033 		AND	T1,ADFLGS
  8258	037361	603 00 0 00 040000 		TLNE	F,ADADD
  8259	037362	434 13 0 00 000002 		IOR	PC,T1
  8260	037363	607 00 0 00 040000 		TLNN	F,ADADD
  8261	037364	254 00 0 00 037367 		JRST	.+3
  8262	037365	603 02 0 00 400000 		TLNE	T1,AROV
  8263	037366	661 13 0 00 000200 		TLO	PC,TN1
  8264	037367	263 17 0 00 000000 		POPJ	P,
  8265
  8266			000022		DSYM COMP^	COMP==.-ETAB
  8267	037370	260 17 0 00 041225 		PUSHJ	P,CNDPQR
  8268	037371	200 02 0 00 046755 		MOVE	T1,CONDQ
  8269	037372	434 02 0 00 046754 		IOR	T1,CONDP
  8270	037373	332 00 0 00 000002 		SKIPE	T1
  8271	037374	661 01 0 00 000002 		TLO	T,PCCLK
  8272	037375	201 05 0 00 042066 		MOVEI	S,ST1
  8273	037376	263 17 0 00 000000 		POPJ	P,
  8274
  8275			000031		DSYM SKIPS^	SKIPS==.-ETAB
  8276	037377	606 04 0 00 000040 		TRNN	T3,SACINH
  8277	037400	476 00 0 00 046775 		SETOM	FMWRSET
  8278	037401	260 17 0 00 037357 		PUSHJ	P,ADSUB1
  8279	037402	260 17 0 00 041225 		PUSHJ	P,CNDPQR
  8280	037403	200 02 0 00 046756 		MOVE	T1,CONDR
  8281	037404	434 02 0 00 046754 		IOR	T1,CONDP
  8282	037405	332 00 0 00 000002 		SKIPE	T1
  8283	037406	661 01 0 00 000002 		TLO	T,PCCLK
  8284	037407	201 05 0 00 042066 		MOVEI	S,ST1
  8285	037410	263 17 0 00 000000 		POPJ	P,
DBKDA	DECSYSTEM10 KI10 ARITHMETIC RELIABILITY TEST, VER 0,3	MACRO %51(414) 14:29  9-JUN-76 PAGE 23
KI10A1	MAC	 9-JUN-76 13:52		DISPATCH SUBROUTINES FROM MAIN TABLE                                           *** SEQ 0225

  8286			000043		DSYM XCT2^	XCT2==.-ETAB
  8287	037411	603 13 0 00 010000 		TLNE	PC,USERF
  8288	037412	263 17 0 00 000000 		POPJ	P,
  8289	037413	607 13 0 00 004000 		TLNN	PC,EXIOT
  8290	037414	263 17 0 00 000000 		POPJ	P,
  8291	037415	603 16 0 00 000100 		TLNE	IR,(1B11)
  8292	037416	476 00 0 00 047161 		SETOM	XCTPWR#
  8293	037417	603 16 0 00 000040 		TLNE	IR,(1B12)
  8294	037420	476 00 0 00 047160 		SETOM	XCTPRD#
  8295	037421	263 17 0 00 000000 		POPJ	P,
  8296
  8297			000054		DSYM JUMPS^	JUMPS==.-ETAB
  8298	037422	260 17 0 00 037357 		PUSHJ	P,ADSUB1
  8299	037423	260 17 0 00 041225 		PUSHJ	P,CNDPQR
  8300	037424	200 02 0 00 046754 		MOVE	T1,CONDP
  8301	037425	434 02 0 00 046756 		IOR	T1,CONDR
  8302	037426	336 00 0 00 000002 		SKIPN	T1
  8303	037427	660 01 0 00 100000 		TRO	T,ABPCEN
  8304	037430	476 00 0 00 046775 		SETOM	FMWRSET
  8305	037431	201 05 0 00 042066 		MOVEI	S,ST1
  8306	037432	263 17 0 00 000000 		POPJ	P,
  8307
  8308			000065		DSYM HWTETS^	HWTETS==.-ETAB
  8309	037433	321 06 0 00 037437 		JUMPL	AR,HWTET1	;CHECKS AR0
  8310	037434	263 17 0 00 000000 		POPJ	P,
  8311	037435	606 06 0 00 400000 		TRNN	AR,400000	;CHECKS AR18
  8312	037436	263 17 0 00 000000 		POPJ	P,
  8313	037437	602 01 0 00 022000 	HWTET1:	TRNE	T,ARLTAD+ARLARR
  8314	037440	664 01 0 00 004000 		TROA	T,ARRTAD
  8315	037441	660 01 0 00 002000 		TRO	T,ARLTAD
  8316	037442	263 17 0 00 000000 		POPJ	P,
  8317
  8318			000075		DSYM TEST1^	TEST1==.-ETAB
  8319	037443	476 00 0 00 047026 		SETOM	LONGSET
  8320	037444	263 17 0 00 000000 		POPJ	P,
  8321
  8322			000077		DSYM TEST^	TEST==.-ETAB
  8323	037445	661 01 0 00 000002 		TLO	T,PCCLK
  8324	037446	332 00 0 00 000011 		SKIPE	AD
  8325	037447	641 01 0 00 000002 		TLC	T,PCCLK
  8326	037450	263 17 0 00 000000 		POPJ	P,
  8327
  8328			000103		DSYM PUSH1^	PUSH1==.-ETAB
  8329	037451	476 00 0 00 047020 		SETOM	INSYNC
  8330
  8331			000104		DSYM PUSHES^	PUSHES==.-ETAB
  8332	037452	200 02 0 00 041033 		MOVE	T1,ADFLGS	;PUSH,PUSHJ
  8333	037453	603 02 0 00 200000 		TLNE	T1,CRY0		;CARRY 0
  8334	037454	660 00 0 00 000040 		TRO	F,FLAG2
  8335	037455	263 17 0 00 000000 		POPJ	P,
  8336
DBKDA	DECSYSTEM10 KI10 ARITHMETIC RELIABILITY TEST, VER 0,3	MACRO %51(414) 14:29  9-JUN-76 PAGE 24
KI10A1	MAC	 9-JUN-76 13:52		DISPATCH SUBROUTINES FROM MAIN TABLE                                           *** SEQ 0226

  8337			000110		DSYM PUSHJ1^	PUSHJ1==.-ETAB
  8338	037456	476 00 0 00 047057 		SETOM	PCP1FF
  8339
  8340			000111		DSYM PUSH2^	PUSH2==.-ETAB
  8341	037457	602 00 0 00 000040 		TRNE	F,FLAG2
  8342	037460	661 13 0 00 000400 		TLO	PC,TN0
  8343	037461	263 17 0 00 000000 		POPJ	P,
  8344
  8345			000114		DSYM POPS^	POPS==.-ETAB
  8346	037462	200 02 0 00 041033 		MOVE	T1,ADFLGS
  8347	037463	607 02 0 00 200000 		TLNN	T1,CRY0		;CARRY 0
  8348	037464	661 13 0 00 000400 		TLO	PC,TN0
  8349	037465	263 17 0 00 000000 		POPJ	P,
  8350
  8351			000120		DSYM UUO1^	UUO1==.-ETAB
  8352	037466	476 00 0 00 046735 		SETOM	ARSMR
  8353	037467	354 00 0 00 047027 		AOSA	MAGIC#
  8354
  8355			000122		DSYM PCINCL^	PCINCL==.-ETAB
  8356	037470	402 00 0 00 047057 		SETZM	PCP1FF
  8357	037471	263 17 0 00 000000 		POPJ	P,
  8358
  8359			000124		DSYM MUL0^	MUL0==.-ETAB
  8360	037472	476 00 0 00 047044 		SETOM	MPY
  8361	037473	660 01 0 00 000410 		TRO	T,MQADEN+ARCLR
  8362	037474	660 03 0 00 020000 		TRO	T2,SCSAEN
  8363	037475	402 00 0 00 046727 		SETZM	ARGOLT
  8364	037476	201 02 0 00 000006 		MOVEI	T1,6
  8365	037477	202 02 0 00 047110 		MOVEM	T1,SINDEX
  8366	037500	260 17 0 00 044637 		PUSHJ	P,MPYFCN
  8367	037501	325 11 0 00 043625 		JUMPGE	AD,SCTC5
  8368	037502	325 06 0 00 043625 		JUMPGE	AR,SCTC5
  8369	037503	660 00 0 00 000100 		TRO	F,FLAG3
  8370	037504	254 00 0 00 043625 		JRST	SCTC5
  8371
  8372
  8373			000137		DSYM IMUL1^	IMUL1==.-ETAB
  8374	037505	476 00 0 00 047026 		SETOM	LONGSET
  8375	037506	331 00 0 00 000011 		SKIPL	AD
  8376	037507	665 01 0 00 000060 		TLOA	T,ADARPL
  8377	037510	661 01 0 00 000100 		TLO	T,ADARMI
  8378			000143		DSYM MUL1^	MUL1==.-ETAB
  8379	037511	660 01 0 00 000200 		TRO	T,ARSHLT
  8380	037512	660 00 0 00 000020 		TRO	F,FLAG1
  8381	037513	200 02 1 00 047017 		MOVE	T1,@INSTPT
  8382	037514	602 02 0 00 000010 		TRNE	T1,SCE
  8383	037515	260 17 0 00 045541 		PUSHJ	P,MEMWSS
  8384	037516	263 17 0 00 000000 		POPJ	P,
DBKDA	DECSYSTEM10 KI10 ARITHMETIC RELIABILITY TEST, VER 0,3	MACRO %51(414) 14:29  9-JUN-76 PAGE 25
KI10A1	MAC	 9-JUN-76 13:52		DISPATCH SUBROUTINES FROM MAIN TABLE                                           *** SEQ 0227

  8385			000151		DSYM IMUL2^	IMUL2==.-ETAB
  8386	037517	476 00 0 00 046733 		SETOM	ARMQEN
  8387	037520	326 11 0 00 037524 		JUMPN	AD,MUL1A
  8388
  8389			000153		DSYM MUL2^	MUL2==.-ETAB
  8390	037521	603 06 0 00 400000 		TLNE	AR,(1B0)
  8391	037522	606 00 0 00 000100 		TRNN	F,FLAG3
  8392	037523	263 17 0 00 000000 		POPJ	P,
  8393	037524	661 13 0 00 400200 	MUL1A:	TLO	PC,AROV+TN1
  8394	037525	263 17 0 00 000000 		POPJ	P,
  8395
  8396
  8397			000160		DSYM JFFO0^	JFFO0==.-ETAB
  8398	037526	332 00 0 00 000011 		SKIPE	AD
  8399	037527	660 00 0 00 000020 		TRO	F,FLAG1
  8400	037530	607 11 0 00 777777 		TLNN	AD,-1
  8401	037531	660 00 0 00 000040 		TRO	F,FLAG2
  8402	037532	254 00 0 00 043545 		JRST	FMAC2E
  8403
  8404			000165		DSYM JFFO1^	JFFO1==.-ETAB
  8405	037533	606 00 0 00 000020 		TRNN	F,FLAG1
  8406	037534	263 17 0 00 000000 		POPJ	P,
  8407	037535	476 00 0 00 047057 		SETOM	PCP1FF
  8408	037536	661 01 0 00 000002 		TLO	T,PCCLK
  8409	037537	606 00 0 00 000040 		TRNN	F,FLAG2
  8410	037540	263 17 0 00 000000 		POPJ	P,
  8411	037541	660 01 0 00 020000 		TRO	T,ARLARR
  8412	037542	660 07 0 00 000022 		TRO	MQ,22
  8413	037543	263 17 0 00 000000 		POPJ	P,
  8414
  8415			000176		DSYM JFFO2^	JFFO2==.-ETAB
  8416	037544	402 00 0 00 047110 		SETZM	SINDEX
  8417	037545	476 00 0 00 046733 		SETOM	ARMQEN
  8418	037546	660 01 0 00 000010 		TRO	T,MQADEN
  8419	037547	260 17 0 00 044342 	JFFO2A:	PUSHJ	P,MQMIXR
  8420	037550	602 00 0 00 000020 		TRNE	F,FLAG1
  8421	037551	335 00 0 00 047046 		SKIPGE	MQMIX
  8422	037552	254 00 0 00 037556 		JRST	JFFO2B
  8423	037553	661 01 0 00 060070 		TLO	T,ADARPL+ADMAGIC+ADADD+ADCR36
  8424	037554	201 05 0 00 043516 		MOVEI	S,JFFOT1
  8425	037555	263 17 0 00 000000 		POPJ	P,
  8426
  8427	037556	476 00 0 00 046775 	JFFO2B:	SETOM	FMWRSET
  8428	037557	201 05 0 00 042066 		MOVEI	S,ST1
  8429	037560	263 17 0 00 000000 		POPJ	P,
  8430
  8431			000213		DSYM DIV0^	DIV0==.-ETAB
  8432	037561	260 17 0 00 043545 		PUSHJ	P,FMAC2E
DBKDA	DECSYSTEM10 KI10 ARITHMETIC RELIABILITY TEST, VER 0,3	MACRO %51(414) 14:29  9-JUN-76 PAGE 26
KI10A1	MAC	 9-JUN-76 13:52		DISPATCH SUBROUTINES FROM MAIN TABLE                                           *** SEQ 0228

  8433			000214		DSYM IDIV0^	IDIV0==.-ETAB
  8434	037562	660 03 0 00 020000 		TRO	T2,SCSAEN
  8435	037563	335 00 1 00 046773 		SKIPGE	@FMREG
  8436	037564	665 01 0 00 060070 		TLOA	T,ADCR36+ADADD+ADMAGIC+ADARPL
  8437	037565	665 01 0 00 000100 		TLOA	T,ADARMI
  8438	037566	660 00 0 00 000100 		TRO	F,FLAG3
  8439	037567	263 17 0 00 000000 		POPJ	P,
  8440
  8441			000222		DSYM IDIV1^	IDIV1==.-ETAB
  8442	037570	660 01 0 00 000400 		TRO	T,ARCLR
  8443	037571	661 01 0 00 000010 		TLO	T,ADMAGIC
  8444	037572	350 00 0 00 047027 		AOS	MAGIC
  8445	037573	476 00 0 00 047026 		SETOM	LONGSET
  8446	037574	660 01 0 00 000010 	IDIV1A:	TRO	T,MQADEN
  8447	037575	201 02 0 00 000012 		MOVEI	T1,12
  8448	037576	202 02 0 00 047110 		MOVEM	T1,SINDEX
  8449	037577	263 17 0 00 000000 		POPJ	P,
  8450
  8451			000232		DSYM DIV2^	DIV2==.-ETAB
  8452	037600	660 01 0 00 000010 		TRO	T,MQADEN
  8453	037601	606 00 0 00 000100 		TRNN	F,FLAG3
  8454	037602	254 00 0 00 037605 		JRST	.+3
  8455	037603	200 02 0 00 041033 		MOVE	T1,ADFLGS
  8456	037604	603 02 0 00 100000 		TLNE	T1,CRY1
  8457	037605	476 00 0 00 046733 		SETOM	ARMQEN
  8458	037606	254 00 0 00 037611 		JRST	.+3
  8459
  8460
  8461			000241		DSYM IDIV2^	IDIV2==.-ETAB
  8462	037607	335 00 0 00 000007 		SKIPGE	MQ
  8463	037610	660 01 0 00 006000 		TRO	T,ARADEN
  8464	037611	200 02 0 00 046263 		MOVE	T1,[POINT 4,IR,12]
  8465	037612	202 02 0 00 046772 		MOVEM	T1,FMADREN
  8466	037613	660 00 0 00 000004 		TRO	F,DSF2SET
  8467	037614	201 05 0 00 042272 		MOVEI	S,DST1
  8468	037615	331 00 0 00 000010 		SKIPL	BR
  8469	037616	665 01 0 00 021000 		TLOA	T,ADBRMI+ADCR36
  8470	037617	661 01 0 00 000600 		TLO	T,ADBRPL
  8471	037620	263 17 0 00 000000 		POPJ	P,
  8472
  8473			000253		DSYM DIV1^	DIV1==.-ETAB
  8474	037621	606 00 0 00 000100 		TRNN	F,FLAG3
  8475	037622	254 00 0 00 037626 		JRST	DIV1A
  8476	037623	661 01 0 00 070000 		TLO	T,ADCR36+ADADD+ADFMMI
  8477	037624	661 03 0 00 000400 		TLO	T2,ADMSKG
  8478	037625	254 00 0 00 037573 		JRST	IDIV1A-1
  8479	037626	661 01 0 00 006000 	DIV1A:	TLO	T,ADFMPL
  8480	037627	254 00 0 00 037574 		JRST	IDIV1A
  8481
  8482			000262		DSYM DSHFT0^	DSHFT0==.-ETAB
  8483	037630	260 17 0 00 043545 		PUSHJ	P,FMAC2E
DBKDA	DECSYSTEM10 KI10 ARITHMETIC RELIABILITY TEST, VER 0,3	MACRO %51(414) 14:29  9-JUN-76 PAGE 27
KI10A1	MAC	 9-JUN-76 13:52		DISPATCH SUBROUTINES FROM MAIN TABLE                                           *** SEQ 0229

  8484			000263		DSYM SSHFT0^	SSHFT0==.-ETAB
  8485	037631	201 03 0 00 040104 		MOVEI	T2,SAADD+SAP220+SCAREN
  8486	037632	476 00 0 00 047026 		SETOM	LONGSET
  8487	037633	602 06 0 00 400000 		TRNE	AR,1B18
  8488	037634	664 03 0 00 000020 		TROA	T2,SASCPL
  8489	037635	660 03 0 00 000240 		TRO	T2,SASCMI+SAPL1
  8490	037636	263 17 0 00 000000 		POPJ	P,
  8491
  8492			000271		DSYM SHFT1^	SHFT1==.-ETAB
  8493	037637	201 03 0 00 000105 		MOVEI	T2,SAADD+SAP110
  8494	037640	476 00 0 00 047026 		SETOM	LONGSET
  8495	037641	402 00 0 00 047107 		SETZM	SHLONG#
  8496	037642	331 00 0 00 047074 		SKIPL	SA
  8497	037643	254 00 0 00 037646 		JRST	SHFT1A
  8498	037644	660 03 0 00 020000 		TRO	T2,SCSAEN
  8499	037645	374 00 0 00 047107 		SOSA	SHLONG
  8500	037646	335 00 0 00 000015 	SHFT1A:	SKIPGE	SC
  8501	037647	664 03 0 00 000020 		TROA	T2,SASCPL
  8502	037650	660 03 0 00 000240 		TRO	T2,SASCMI+SAPL1
  8503	037651	263 17 0 00 000000 		POPJ	P,
  8504
  8505			000304		DSYM DSHFT2^	DSHFT2==.-ETAB
  8506	037652	660 01 0 00 000010 		TRO	T,MQADEN
  8507	037653	260 17 0 00 041763 		PUSHJ	P,FMACEN
  8508
  8509			000306		DSYM SSHFT2^	SSHFT2==.-ETAB
  8510	037654	204 04 0 00 000016 		MOVS	T3,IR
  8511	037655	405 04 0 00 773000 		ANDI	T3,773000
  8512	037656	201 05 0 00 043520 		MOVEI	S,SRT1
  8513	037657	476 00 0 00 047026 		SETOM	LONGSET
  8514	037660	331 00 0 00 047074 		SKIPL	SA
  8515	037661	254 00 0 00 037666 		JRST	SHFT2A
  8516	037662	306 04 0 00 241000 		CAIN	T3,241000
  8517	037663	664 03 0 00 020020 		TROA	T2,SASCPL+SCSAEN
  8518	037664	660 03 0 00 020006 	SHFT2E:	TRO	T2,SAM110+SCSAEN
  8519	037665	263 17 0 00 000000 		POPJ	P,
  8520
  8521	037666	321 15 0 00 037671 	SHFT2A:	JUMPL	SC,SHFT2B
  8522	037667	660 03 0 00 000343 		TRO	T2,SASCMI+SAPL1+SAADD+SAZERO
  8523	037670	254 00 0 00 037674 		JRST	SHFT2C
  8524
  8525	037671	302 04 0 00 241000 	SHFT2B:	CAIE	T3,241000
  8526	037672	336 00 0 00 047107 		SKIPN	SHLONG
  8527	037673	660 03 0 00 000020 		TRO	T2,SASCPL
  8528	037674	332 00 0 00 047107 	SHFT2C:	SKIPE	SHLONG
  8529	037675	306 04 0 00 241000 		CAIN	T3,241000
  8530	037676	263 17 0 00 000000 		POPJ	P,
  8531	037677	254 00 0 00 037664 		JRST	SHFT2E
DBKDA	DECSYSTEM10 KI10 ARITHMETIC RELIABILITY TEST, VER 0,3	MACRO %51(414) 14:29  9-JUN-76 PAGE 28
KI10A1	MAC	 9-JUN-76 13:52		DISPATCH SUBROUTINES FROM MAIN TABLE                                           *** SEQ 0230

  8532			000332		DSYM BYTE0^	BYTE0==.-ETAB
  8533	037700	670 03 0 00 046264 		TDO	T2,[XWD ADMSKG,SAMSIZ+SAPL1+SAADD]
  8534	037701	335 00 0 00 047074 		SKIPGE	SA
  8535	037702	664 01 0 00 006000 		TROA	T,ARADEN
  8536	037703	664 03 0 00 001000 		TROA	T2,SAARPOS
  8537	037704	660 03 0 00 000002 		TRO	T2,SAPL44
  8538	037705	263 17 0 00 000000 		POPJ	P,
  8539
  8540			000340		DSYM BYTE2^	BYTE2==.-ETAB
  8541	037706	661 03 0 00 000002 		TLO	T2,MBAREN
  8542	037707	476 00 0 00 047014 		SETOM	INRDY
  8543	037710	660 01 0 00 000010 		TRO	T,MQADEN		;ENTER HERE FOR IBP
  8544	037711	476 00 0 00 046734 		SETOM	ARPOSEN#
  8545	037712	254 00 0 00 040070 		JRST	FIX1A
  8546
  8547			000345		DSYM LDB0^	LDB0==.-ETAB
  8548	037713	660 03 0 00 020000 		TRO	T2,SCSAEN
  8549	037714	322 15 0 00 030065 		JUMPE	SC,CPOPJ
  8550	037715	402 00 0 00 047110 		SETZM	SINDEX
  8551	037716	254 00 0 00 043200 		JRST	DFAT1G
  8552
  8553			000351		DSYM DPB0^	DPB0==.-ETAB
  8554	037717	660 01 0 00 000010 		TRO	T,MQADEN
  8555	037720	476 00 0 00 046733 		SETOM	ARMQEN
  8556	037721	660 03 0 00 020000 		TRO	T2,SCSAEN
  8557	037722	322 15 0 00 037726 		JUMPE	SC,DPB0A
  8558	037723	476 00 0 00 046727 		SETOM	ARGOLT
  8559	037724	402 00 0 00 047110 		SETZM	SINDEX
  8560	037725	254 00 0 00 043625 		JRST	SCTC5
  8561	037726	661 01 0 00 000700 	DPB0A:	TLO	T,ADARMI+ADBRPL
  8562	037727	263 17 0 00 000000 		POPJ	P,
  8563
  8564			000362		DSYM DPB1^	DPB1==.-ETAB
  8565	037730	660 01 0 00 000010 		TRO	T,MQADEN
  8566	037731	260 17 0 00 045541 		PUSHJ	P,MEMWSS
  8567
  8568			000364		DSYM LDB1^	LDB1==.-ETAB
  8569	037732	476 00 0 00 046733 		SETOM	ARMQEN
  8570	037733	263 17 0 00 000000 		POPJ	P,
  8571
  8572			000366		DSYM DPB2^	DPB2==.-ETAB
  8573	037734	476 00 0 00 046733 		SETOM	ARMQEN
  8574
  8575			000367		DSYM LDB2^	LDB2==.-ETAB
  8576	037735	402 00 0 00 046746 		SETZM	BYF6#
  8577	037736	621 13 0 00 020000 		TLZ	PC,BIS
  8578	037737	263 17 0 00 000000 		POPJ	P,
DBKDA	DECSYSTEM10 KI10 ARITHMETIC RELIABILITY TEST, VER 0,3	MACRO %51(414) 14:29  9-JUN-76 PAGE 29
KI10A1	MAC	 9-JUN-76 13:52		DISPATCH SUBROUTINES FROM MAIN TABLE                                           *** SEQ 0231

  8579			000372		DSYM DMOV2^	DMOV2==.-ETAB
  8580	037740	661 03 0 00 006000 		TLO	T2,ADMBEN
  8581	037741	201 05 0 00 043553 		MOVEI	S,DMOVT1
  8582	037742	603 16 0 00 001000 		TLNE	IR,1000
  8583	037743	201 05 0 00 043555 		MOVEI	S,DMVNT1
  8584	037744	254 00 0 00 040164 		JRST	DFA2D
  8585
  8586			000377		DSYM DMVNM1^	DMVNM1==.-ETAB
  8587	037745	476 00 0 00 047026 		SETOM	LONGSET
  8588
  8589			000400		DSYM DMVN1A^	DMVN1A==.-ETAB
  8590	037746	660 01 0 00 000010 		TRO	T,MQADEN
  8591	037747	661 03 0 00 000400 		TLO	T2,ADMSKG
  8592	037750	263 17 0 00 000000 		POPJ	P,
  8593
  8594			000403		DSYM DMVNM2^	DMVNM2==.-ETAB
  8595	037751	200 02 0 00 041033 		MOVE	T1,ADFLGS
  8596	037752	603 02 0 00 100000 		TLNE	T1,(1B2)
  8597	037753	476 00 0 00 046733 		SETOM	ARMQEN
  8598	037754	263 17 0 00 000000 		POPJ	P,
  8599
  8600			000407		DSYM DMVN2A^	DMVN2A==.-ETAB
  8601	037755	621 11 0 00 400000 		TLZ	AD,(1B0)
  8602	037756	263 17 0 00 000000 		POPJ	P,
  8603
  8604			000411		DSYM DMVE0A^	DMVE0A==.-ETAB
  8605	037757	476 00 0 00 047020 		SETOM	INSYNC
  8606
  8607			000412		DSYM DMVNM0^	DMVNM0==.-ETAB
  8608	037760	254 00 0 00 043545 		JRST	FMAC2E
DBKDA	DECSYSTEM10 KI10 ARITHMETIC RELIABILITY TEST, VER 0,3	MACRO %51(414) 14:29  9-JUN-76 PAGE 30
KI10A1	MAC	 9-JUN-76 13:52		DISPATCH SUBROUTINES FROM MAIN TABLE                                           *** SEQ 0232

  8609						IFNDEF	SIMASB,<
  8610					DSYM TTYFD
  8611						LDB	T3,[POINT 3,IR,12]
  8612						JRST	@TTAB1(T3)
  8613
  8614					DSYM TDISP
  8615						LDB	T3,[POINT 3,IR,12]
  8616						JRST	@TTAB2(T3)
  8617
  8618					DSYM APRFD
  8619						LDB	T3,[POINT 3,IR,12]
  8620						JRST	@APRTB1(T3)
  8621
  8622					DSYM PIFD
  8623						LDB	T3,[POINT 3,IR,12]
  8624						JRST	@PITAB1(T3)
  8625
  8626					DSYM PAGFD
  8627						LDB	T3,[POINT 3,IR,12]
  8628						JRST	@PAGTB1(T3)
  8629					>
  8630			000413		DSYM BLT0^	BLT0==.-ETAB
  8631	037761	335 00 0 00 046712 		SKIPGE	AD17.5#
  8632	037762	660 00 0 00 000100 		TRO	F,FLAG3
  8633	037763	476 00 0 00 046741 		SETOM	BLTF1#
  8634	037764	263 17 0 00 000000 		POPJ	P,
  8635
  8636			000417		DSYM BLT1^	BLT1==.-ETAB
  8637	037765	660 01 0 00 020000 		TRO	T,ARLARR
  8638	037766	602 00 0 00 000100 		TRNE	F,FLAG3
  8639	037767	640 01 0 00 022000 		TRC	T,ARLARR+ARLTAD
  8640	037770	263 17 0 00 000000 		POPJ	P,
  8641
  8642			000423		DSYM BLT2^	BLT2==.-ETAB
  8643	037771	402 00 0 00 047057 		SETZM	PCP1FF
  8644	037772	332 00 0 00 046741 		SKIPE	BLTF1
  8645	037773	201 05 0 00 044013 		MOVEI	S,BLTT0
  8646	037774	263 17 0 00 000000 		POPJ	P,
  8647
  8648			000427		DSYM FLT2^	FLT2==.-ETAB
  8649	037775	201 05 0 00 043630 		MOVEI	S,SCT2
  8650	037776	402 00 0 00 046727 		SETZM	ARGOLT
  8651	037777	254 00 0 00 040066 		JRST	FIX1B
DBKDA	DECSYSTEM10 KI10 ARITHMETIC RELIABILITY TEST, VER 0,3	MACRO %51(414) 14:29  9-JUN-76 PAGE 31
KI10A1	MAC	 9-JUN-76 13:52		DISPATCH SUBROUTINES FROM MAIN TABLE                                           *** SEQ 0233

  8652			000432		DSYM FSC0^	FSC0==.-ETAB
  8653	040000	660 03 0 00 042120 		TRO	T2,SAADD+SAAREX+SASCPL+SCAREN
  8654	040001	335 00 1 00 046773 		SKIPGE	@FMREG
  8655	040002	640 03 0 00 000260 		TRC	T2,SASCPL+SASCMI+SAPL1
  8656	040003	263 17 0 00 000000 		POPJ	P,
  8657
  8658			000436		DSYM FSC2^	FSC2==.-ETAB
  8659	040004	660 03 0 00 000323 		TRO	T2,SAADD+SAPL1+SAZERO+SASCPL
  8660	040005	331 00 1 00 046773 		SKIPL	@FMREG
  8661	040006	640 03 0 00 000060 		TRC	T2,SASCPL+SASCMI
  8662	040007	201 05 0 00 042511 		MOVEI	S,NRT1
  8663	040010	476 00 0 00 046735 		SETOM	ARSMR
  8664	040011	254 00 0 00 040066 		JRST	FIX1B
  8665
  8666			000444		DSYM DFN0^	DFN0==.-ETAB
  8667	040012	616 11 0 00 046133 		TDNN	AD,[777777777]
  8668	040013	665 01 0 00 060000 		TLOA	T,ADCR36+ADADD
  8669	040014	374 00 0 00 046726 		SOSA	ARESAEN			;AR0 _ AR0(0)
  8670	040015	664 00 0 00 000100 		TROA	F,FLAG3
  8671	040016	263 17 0 00 000000 		POPJ	P,
  8672	040017	661 03 0 00 000400 		TLO	T2,ADMSKG
  8673	040020	263 17 0 00 000000 		POPJ	P,
  8674
  8675			000453		DSYM DFN1^	DFN1==.-ETAB
  8676	040021	606 00 0 00 000100 		TRNN	F,FLAG3
  8677	040022	665 03 0 00 000400 		TLOA	T2,ADMSKG
  8678	040023	665 01 0 00 000600 		TLOA	T,ADBRPL
  8679	040024	661 01 0 00 061000 		TLO	T,ADBRMI+ADCR36+ADADD
  8680	040025	263 17 0 00 000000 		POPJ	P,
  8681
  8682	040026	260 17 0 00 043545 		PUSHJ	P,FMAC2E
  8683
  8684			000461		DSYM FDV1^	FDV1==.-ETAB
  8685	040027	660 03 0 00 002140 		TRO	T2,SAAREX+SAADD+SASCMI
  8686	040030	335 02 1 00 046773 		SKIPGE	T1,@FMREG
  8687	040031	665 01 0 00 060110 		TLOA	T,ADADD+ADCR36+ADARMI+ADMAGIC
  8688	040032	664 03 0 00 000200 		TROA	T2,SAPL1
  8689	040033	660 00 0 00 000100 		TRO	F,FLAG3
  8690	040034	602 00 0 00 000100 		TRNE	F,FLAG3
  8691	040035	476 00 0 00 047026 		SETOM	LONGSET
  8692	040036	201 04 0 00 000010 	FDV1B:	MOVEI	T3,10
  8693	040037	202 04 0 00 047110 		MOVEM	T3,SINDEX
  8694	040040	430 02 0 00 000006 	FDV1A:	XOR	T1,AR
  8695	040041	325 02 0 00 040070 		JUMPGE	T1,FIX1A
  8696	040042	640 03 0 00 000060 		TRC	T2,SASCMI+SASCPL
  8697	040043	254 00 0 00 040070 		JRST	FIX1A
DBKDA	DECSYSTEM10 KI10 ARITHMETIC RELIABILITY TEST, VER 0,3	MACRO %51(414) 14:29  9-JUN-76 PAGE 32
KI10A1	MAC	 9-JUN-76 13:52		DISPATCH SUBROUTINES FROM MAIN TABLE                                           *** SEQ 0234

  8698			000476		DSYM FDV2L^	FDV2L==.-ETAB
  8699	040044	602 00 0 00 000100 		TRNE	F,FLAG3
  8700	040045	665 01 0 00 070000 		TLOA	T,ADFMMI+ADADD+ADCR36
  8701	040046	665 01 0 00 006000 		TLOA	T,ADFMPL
  8702	040047	661 03 0 00 000400 		TLO	T2,ADMSKG
  8703	040050	476 00 0 00 047026 		SETOM	LONGSET
  8704
  8705			000503		DSYM FDV2^	FDV2==.-ETAB
  8706	040051	660 03 0 00 000040 		TRO	T2,SASCMI
  8707	040052	201 05 0 00 042375 		MOVEI	S,FDT0
  8708	040053	606 00 0 00 000100 		TRNN	F,FLAG3
  8709	040054	644 03 0 00 000060 		TRCA	T2,SASCPL+SASCMI
  8710						JRST	[TDNE AD,[777,,-1]
  8711							TRO T,ARADEN
  8712	040055	254 00 0 00 046265 			JRST FDV2X]
  8713	040056	476 00 0 00 046744 	FDV2X:	SETOM	BRSMR
  8714	040057	254 00 0 00 040070 		JRST	FIX1A
  8715
  8716			000512		DSYM FIX0^	FIX0==.-ETAB
  8717	040060	660 03 0 00 000131 		TRO	T2,SAADD+SAMI33+SASCPL
  8718	040061	325 06 0 00 040070 		JUMPGE	AR,FIX1A
  8719	040062	640 03 0 00 000060 		TRC	T2,SASCPL+SASCMI
  8720	040063	254 00 0 00 040070 		JRST	FIX1A
  8721
  8722			000516		DSYM FIX1^	FIX1==.-ETAB
  8723	040064	476 00 0 00 047026 		SETOM	LONGSET
  8724	040065	660 03 0 00 400354 		TRO	T2,SASCMI+SAPL1+SAADD+FESAEN+SAPL10
  8725	040066	201 04 0 00 000010 	FIX1B:	MOVEI	T3,10
  8726	040067	202 04 0 00 047110 		MOVEM	T3,SINDEX
  8727	040070	660 03 0 00 020000 	FIX1A:	TRO	T2,SCSAEN
  8728	040071	263 17 0 00 000000 		POPJ	P,
  8729
  8730			000524		DSYM FIX2^	FIX2==.-ETAB
  8731	040072	321 15 0 00 043141 		JUMPL	SC,FIX2A
  8732	040073	331 00 0 00 047074 		SKIPL	SA
  8733	040074	254 00 0 00 043121 		JRST	FIX2B
  8734	040075	661 13 0 00 400200 		TLO	PC,AROV+TN1
  8735	040076	201 05 0 00 043752 		MOVEI	S,INDONE
  8736	040077	263 17 0 00 000000 		POPJ	P,
  8737
  8738	040100	603 16 0 00 001000 	DFAF:	TLNE	IR,1000		;IS IT DFSB ?
  8739	040101	661 03 0 00 340000 		TLO	T2,ADXFMP+ADXFMM+ADXEQV	;YES,  *** ECO 42 ***
  8740	040102	260 17 0 00 040405 		PUSHJ	P,DFLTF
  8741
  8742	040103				FADF:
  8743	040103	476 00 0 00 047116 	FMPF:	SETOM	STINH
  8744
  8745			000536		DSYM FMP0^	FMP0==.-ETAB
  8746	040104	660 03 0 00 002000 	FMP0A:	TRO	T2,SAAREX
  8747	040105	263 17 0 00 000000 		POPJ	P,
DBKDA	DECSYSTEM10 KI10 ARITHMETIC RELIABILITY TEST, VER 0,3	MACRO %51(414) 14:29  9-JUN-76 PAGE 33
KI10A1	MAC	 9-JUN-76 13:52		DISPATCH SUBROUTINES FROM MAIN TABLE                                           *** SEQ 0235

  8748			000540		DSYM FMP1^	FMP1==.-ETAB
  8749	040106	660 03 0 00 002120 		TRO	T2,SAADD+SASCPL+SAAREX
  8750	040107	335 02 1 00 046773 		SKIPGE	T1,@FMREG
  8751	040110	660 03 0 00 000200 		TRO	T2,SAPL1
  8752	040111	476 00 0 00 047044 		SETOM	MPY
  8753	040112	254 00 0 00 040036 		JRST	FDV1B
  8754
  8755			000545		DSYM FMP2^	FMP2==.-ETAB
  8756	040113	476 00 0 00 046744 		SETOM	BRSMR
  8757	040114	476 00 0 00 046735 		SETOM	ARSMR
  8758	040115	476 00 0 00 047026 		SETOM	LONGSET
  8759	040116	660 03 0 00 400010 		TRO	T2,SAMI16+FESAEN
  8760	040117	201 05 0 00 042476 		MOVEI	S,FMT1
  8761	040120	263 17 0 00 000000 		POPJ	P,
  8762
  8763			000553		DSYM UFA2^	UFA2==.-ETAB
  8764	040121	260 17 0 00 043545 		PUSHJ	P,FMAC2E
  8765
  8766			000554		DSYM FAD2^	FAD2==.-ETAB
  8767	040122	476 00 0 00 046744 		SETOM	BRSMR
  8768	040123	660 03 0 00 002340 		TRO	T2,SAAREX+SAADD+SAPL1+SASCMI
  8769	040124	201 05 0 00 043436 		MOVEI	S,FAT1
  8770	040125	476 00 0 00 047026 	FAD2A:	SETOM	LONGSET
  8771	040126	660 03 0 00 400000 		TRO	T2,FESAEN
  8772	040127	200 02 1 00 046773 		MOVE	T1,@FMREG
  8773	040130	254 00 0 00 040036 		JRST	FDV1B
  8774
  8775			000563		DSYM DFA0^	DFA0==.-ETAB
  8776	040131	670 03 0 00 046270 		TDO	T2,[XWD ADXEQV+ADXBRM+ARXADX,SAADD+SAPL1+SAAREX+SASCMI]  ;ECO 42
  8777	040132	260 17 0 00 043545 		PUSHJ	P,FMAC2E
  8778	040133	254 00 0 00 040125 		JRST	FAD2A
  8779
  8780			000566		DSYM DFA1^	DFA1==.-ETAB
  8781	040134	260 17 0 00 041763 		PUSHJ	P,FMACEN
  8782	040135	661 03 0 00 000100 		TLO	T2,ARXADX
  8783	040136	331 02 0 00 047074 		SKIPL	T1,SA
  8784	040137	660 03 0 00 000343 		TRO	T2,SASCMI+SAPL1+SAADD+SAZERO
  8785	040140	430 02 0 00 000006 		XOR	T1,AR
  8786	040141	325 02 0 00 040070 		JUMPGE	T1,FIX1A
  8787	040142	660 00 0 00 000040 		TRO	F,FLAG2
  8788	040143	254 00 0 00 040070 		JRST	FIX1A
DBKDA	DECSYSTEM10 KI10 ARITHMETIC RELIABILITY TEST, VER 0,3	MACRO %51(414) 14:29  9-JUN-76 PAGE 34
KI10A1	MAC	 9-JUN-76 13:52		DISPATCH SUBROUTINES FROM MAIN TABLE                                           *** SEQ 0236

  8789			000576		DSYM DFA2^	DFA2==.-ETAB
  8790	040144	661 03 0 00 006000 		TLO	T2,ADMBEN
  8791	040145	331 00 0 00 000015 		SKIPL	SC
  8792	040146	660 03 0 00 020000 		TRO	T2,SCSAEN
  8793	040147	660 03 0 00 002000 		TRO	T2,SAAREX
  8794	040150	602 00 0 00 000040 		TRNE	F,FLAG2
  8795	040151	644 03 0 00 012000 		TRCA	T2,SAAREX+SAFEEN
  8796						JRST	[JUMPL	BR,DFA2A
  8797							 TRO	T2,SAEQV+SASCPL+SASCMI
  8798	040152	254 00 0 00 046271 			 JRST	DFA2A]
  8799	040153	331 00 0 00 046736 		SKIPL	ARX
  8800						JRST	[TLNE	IR,1000
  8801							JRST	DFA2A
  8802	040154	254 00 0 00 046274 			JRST	.+2]	;ECO 42
  8803	040155	603 16 0 00 001000 		TLNE	IR,1000
  8804	040156	660 03 0 00 004003 		TRO	T2,SAEQV+SAZERO
  8805	040157	331 00 0 00 047074 	DFA2A:	SKIPL	SA
  8806	040160	620 00 0 00 000040 		TRZ	F,FLAG2
  8807					;DFA2C:	TLNE	IR,1000		;ECO 42
  8808					;	TLO	T2,ADXFMP+ADXFMM+ADXEQV
  8809	040161	201 05 0 00 043156 		MOVEI	S,DFAT1
  8810	040162	201 02 0 00 000007 	DFA2B:	MOVEI	T1,7
  8811	040163	202 02 0 00 047110 		MOVEM	T1,SINDEX
  8812	040164	476 00 0 00 046767 	DFA2D:	SETOM	FCE2W#
  8813	040165	263 17 0 00 000000 		POPJ	P,
  8814
  8815			000620		DSYM DFM0^	DFM0==.-ETAB
  8816	040166	670 03 0 00 046277 		TDO	T2,[ARXADX,,SAAREX+SAADD+SASCPL]	;ECO 42
  8817	040167	660 01 0 00 000010 		TRO	T,MQADEN
  8818	040170	476 00 0 00 046744 		SETOM	BRSMR
  8819	040171	476 00 0 00 047044 		SETOM	MPY
  8820	040172	254 00 0 00 040203 		JRST	DFD0A
  8821
  8822			000625		DSYM DFM1^	DFM1==.-ETAB
  8823	040173	260 17 0 00 041763 		PUSHJ	P,FMACEN
  8824	040174	660 03 0 00 000020 		TRO	T2,SASCPL
  8825	040175	321 07 0 00 040070 		JUMPL	MQ,FIX1A
  8826	040176	254 00 0 00 040042 		JRST	FDV1A+2
  8827
  8828			000631		DSYM DFM2^	DFM2==.-ETAB
  8829	040177	670 03 0 00 046300 		TDO	T2,[XWD ADMBEN,SAMI43+FESAEN]
  8830	040200	201 05 0 00 043264 		MOVEI	S,DFMT1
  8831	040201	254 00 0 00 040162 		JRST	DFA2B
  8832
  8833			000634		DSYM DFD0^	DFD0==.-ETAB
  8834						TDO	T2,[XWD ADXEQV+ADXFMP+ADXFMM+ARXADX,^_
  8835	040202	670 03 0 00 046301 	SAAREX+SAADD+SASCMI]
  8836	040203	476 00 0 00 047026 	DFD0A:	SETOM	LONGSET
  8837	040204	260 17 0 00 043545 		PUSHJ	P,FMAC2E
  8838	040205	331 02 1 00 046773 		SKIPL	T1,@FMREG
  8839	040206	660 03 0 00 000200 		TRO	T2,SAPL1
  8840	040207	254 00 0 00 040040 		JRST	FDV1A
DBKDA	DECSYSTEM10 KI10 ARITHMETIC RELIABILITY TEST, VER 0,3	MACRO %51(414) 14:29  9-JUN-76 PAGE 35
KI10A1	MAC	 9-JUN-76 13:52		DISPATCH SUBROUTINES FROM MAIN TABLE                                           *** SEQ 0237

  8841			000642		DSYM DFD1^	DFD1==.-ETAB
  8842	040210	660 01 0 00 000010 		TRO	T,MQADEN
  8843	040211	660 03 0 00 000020 		TRO	T2,SASCPL
  8844	040212	331 00 0 00 046736 		SKIPL	ARX
  8845	040213	665 01 0 00 000060 		TLOA	T,ADARPL
  8846	040214	644 03 0 00 000060 		TRCA	T2,SASCPL+SASCMI
  8847	040215	254 00 0 00 040070 		JRST	FIX1A
  8848	040216	661 01 0 00 060110 		TLO	T,ADADD+ADCR36+ADARMI+ADMAGIC
  8849	040217	661 03 0 00 540100 		TLO	T2,ADXADD+ADXFMP+ADXFMM+ARXADX
  8850	040220	660 00 0 00 000100 		TRO	F,FLAG3
  8851	040221	254 00 0 00 040070 		JRST	FIX1A
  8852
  8853			000654		DSYM DFD2^	DFD2==.-ETAB
  8854	040222	670 03 0 00 046302 		TDO	T2,[XWD ARXADX+ADMBEN,FESAEN]
  8855	040223	660 01 0 00 000010 		TRO	T,MQADEN
  8856	040224	476 00 0 00 046733 		SETOM	ARMQEN
  8857	040225	201 05 0 00 043310 		MOVEI	S,DFDT0
  8858	040226	201 02 0 00 000011 		MOVEI	T1,11
  8859	040227	254 00 0 00 040163 		JRST	DFA2B+1
  8860
  8861						IFNDEF	SIMASB,<
  8862					DSYM MONUUO
  8863						TRO	F,MUOF2S
  8864						SETOM	MCSPEC#
  8865						MOVEI	T1,424
  8866						TLNE	PC,USERF
  8867						MOVEI	T1,USR424
  8868						MOVEM	T1,MCSADR#
  8869						POPJ	P,
  8870
  8871					DSYM MUUO02
  8872						SETOM	MCSPEC
  8873						MOVEI	T1,425
  8874						TLNE	PC,USERF
  8875						MOVEI	T1,USR425
  8876						MOVEM	T1,MCSADR
  8877						POPJ	P,
  8878
  8879					DSYM MUUO32
  8880						HLL	PC,AR
  8881						TRO	F,MUOF1C
  8882						MOVEI	S,ST1
  8883						POPJ	P,
  8884
  8885					DSYM MUOXC2
  8886						JRST	MUOXC3
  8887					>
DBKDA	DECSYSTEM10 KI10 ARITHMETIC RELIABILITY TEST, VER 0,3	MACRO %51(414) 14:29  9-JUN-76 PAGE 36
KI10A1	MAC	 9-JUN-76 13:52		DISPATCH SUBROUTINES FROM MAIN TABLE                                           *** SEQ 0238

  8888						IFDEF	SIMASB,<
  8889			000662		DSYM	MONUUO^	MONUUO==.-ETAB
  8890	040230	264 00 0 00 044005 		JSR	ERR
  8891
  8892			000663		DSYM	MUUO32^	MUUO32==.-ETAB
  8893	040231	264 00 0 00 044005 		JSR	ERR
  8894					>
  8895
  8896			000664		DSYM MAP2^	MAP2==.-ETAB
  8897	040232	550 06 0 00 000014 		HRRZ	AR,MA
  8898	040233	263 17 0 00 000000 		POPJ	P,
DBKDA	DECSYSTEM10 KI10 ARITHMETIC RELIABILITY TEST, VER 0,3	MACRO %51(414) 14:29  9-JUN-76 PAGE 37
KI10A1	MAC	 9-JUN-76 13:52		DISPATCH SUBROUTINES FROM MAIN TABLE - FETCH ACTIONS                           *** SEQ 0239

  8899					SUBTTL	DISPATCH SUBROUTINES FROM MAIN TABLE - FETCH ACTIONS
  8900
  8901						DEFINE ASYM(A)
  8902					<	A==<.-AUXTAB>B26
  8903						IFG .-AUXTAB-37,<PRINTX AUXTAB OVERFLOW>>
  8904
  8905	040234	255 00 0 00 000000 	AUXTAB:	JFCL
  8906
  8907			001000		ASYM MULFD^	MULFD==<.-AUXTAB>B26
  8908	040235	660 03 0 00 000001 		TRO	T2,SAMI22
  8909
  8910			002000		ASYM DIVFD^	DIVFD==<.-AUXTAB>B26
  8911	040236	260 17 0 00 040357 		PUSHJ	P,DIVF
  8912
  8913			003000		ASYM MUO3FD^	MUO3FD==<.-AUXTAB>B26
  8914
  8915			003000		ASYM TCONSX^	TCONSX==<.-AUXTAB>B26
  8916
  8917			003000		ASYM SKPFD^	SKPFD==<.-AUXTAB>B26
  8918
  8919			003000		ASYM FSBFD^	FSBFD==<.-AUXTAB>B26
  8920
  8921			003000		ASYM JFFOFD^	JFFOFD==<.-AUXTAB>B26
  8922
  8923			003000		ASYM SRINST^	SRINST==<.-AUXTAB>B26
  8924	040237	476 00 0 00 047116 		SETOM	STINH
  8925
  8926			004000		ASYM BPNI2D^	BPNI2D==<.-AUXTAB>B26
  8927	040240	260 17 0 00 040364 		PUSHJ	P,BPNIF2
  8928
  8929			005000		ASYM BPNIFD^	BPNIFD==<.-AUXTAB>B26
  8930	040241	260 17 0 00 040363 		PUSHJ	P,BPNIF
  8931
  8932			006000		ASYM BPIFD^	BPIFD==<.-AUXTAB>B26
  8933	040242	660 03 0 00 001700 		TRO	T2,SAARPOS+SAPL1+SAMSIZ+SAADD
  8934
  8935			007000		ASYM LDBFD^	LDBFD==<.-AUXTAB>B26
  8936
  8937			007000		ASYM DPBFD^	DPBFD==<.-AUXTAB>B26
  8938	040243	260 17 0 00 040377 		PUSHJ	P,LDBF
  8939
  8940			010000		ASYM FIXFD^	FIXFD==<.-AUXTAB>B26
  8941	040244	260 17 0 00 040366 		PUSHJ	P,FIXF
  8942
  8943			011000		ASYM FLTFD^	FLTFD==<.-AUXTAB>B26
  8944	040245	260 17 0 00 040370 		PUSHJ	P,FLTF
  8945
  8946			012000		ASYM DFNFD^	DFNFD==<.-AUXTAB>B26
  8947	040246	660 03 0 00 006060 		TRO	T2,SAAREX+SASCPL+SASCMI+SAEQV
  8948
  8949			013000		ASYM FSCFD^	FSCFD==<.-AUXTAB>B26
  8950	040247	260 17 0 00 040373 		PUSHJ	P,FSCF
DBKDA	DECSYSTEM10 KI10 ARITHMETIC RELIABILITY TEST, VER 0,3	MACRO %51(414) 14:29  9-JUN-76 PAGE 38
KI10A1	MAC	 9-JUN-76 13:52		DISPATCH SUBROUTINES FROM MAIN TABLE - FETCH ACTIONS                           *** SEQ 0240

  8951			014000		ASYM FADFD^	FADFD==<.-AUXTAB>B26
  8952	040250	260 17 0 00 040103 		PUSHJ	P,FADF
  8953
  8954			015000		ASYM FMPFD^	FMPFD==<.-AUXTAB>B26
  8955	040251	260 17 0 00 040103 		PUSHJ	P,FMPF
  8956
  8957			016000		ASYM FDVFD^	FDVFD==<.-AUXTAB>B26
  8958	040252	260 17 0 00 040375 		PUSHJ	P,FDVF
  8959
  8960			017000		ASYM DFAFD^	DFAFD==<.-AUXTAB>B26
  8961	040253	260 17 0 00 040100 		PUSHJ	P,DFAF
  8962
  8963			020000		ASYM DFMFD^	DFMFD==<.-AUXTAB>B26
  8964	040254	260 17 0 00 040403 		PUSHJ	P,DFMF
  8965
  8966			021000		ASYM DFDFD^	DFDFD==<.-AUXTAB>B26
  8967	040255	260 17 0 00 040413 		PUSHJ	P,DFDF
  8968
  8969			022000		ASYM BLTFD^	BLTFD==<.-AUXTAB>B26
  8970	040256	260 17 0 00 040406 		PUSHJ	P,BLTF
  8971
  8972			023000		ASYM XCTFD^	XCTFD==<.-AUXTAB>B26
  8973	040257	260 17 0 00 040423 		PUSHJ	P,XCTFD1
  8974
  8975			024000		ASYM AOBJD^	AOBJD==<.-AUXTAB>B26
  8976
  8977			024000		ASYM PUSHD^	PUSHD==<.-AUXTAB>B26
  8978
  8979			024000		ASYM BOOL0D^	BOOL0D==<.-AUXTAB>B26
  8980
  8981			024000		ASYM AOJD^	AOJD==<.-AUXTAB>B26
  8982	040260	661 03 0 00 000400 		TLO	T2,ADMSKG
  8983
  8984			025000		ASYM DMVMFD^	DMVMFD==<.-AUXTAB>B26
  8985	040261	260 17 0 00 040424 		PUSHJ	P,XCTFD1+1
  8986
  8987			026000		ASYM DMVEFD^	DMVEFD==<.-AUXTAB>B26
  8988	040262	260 17 0 00 040354 		PUSHJ	P,DMVEA
  8989
  8990			027000		ASYM UUOFD^	UUOFD==<.-AUXTAB>B26
  8991	040263	260 17 0 00 040417 		PUSHJ	P,UUOF
  8992
  8993			030000		ASYM JFCLFD^	JFCLFD==<.-AUXTAB>B26
  8994	040264	260 17 0 00 040314 		PUSHJ	P,JFCLF
  8995
  8996			031000		ASYM JRSTFD^	JRSTFD==<.-AUXTAB>B26
  8997	040265	260 17 0 00 040321 		PUSHJ	P,JRSTF
DBKDA	DECSYSTEM10 KI10 ARITHMETIC RELIABILITY TEST, VER 0,3	MACRO %51(414) 14:29  9-JUN-76 PAGE 39
KI10A1	MAC	 9-JUN-76 13:52		DISPATCH SUBROUTINES FROM MAIN TABLE - FETCH ACTIONS                           *** SEQ 0241

  8998					;*PC PLUS ONE GATE
  8999
  9000	040266	552 13 0 00 047060 	PCP1:	HRRZM	PC,PCP1G#
  9001	040267	336 00 0 00 047057 		SKIPN	PCP1FF#
  9002	040270	350 00 0 00 047060 		AOS	PCP1G
  9003	040271	263 17 0 00 000000 		POPJ	P,
  9004
  9005	040272	200 02 0 00 000013 	CONDZ1:	MOVE	T1,PC
  9006	040273	242 02 0 00 777767 		LSH	T1,-11
  9007	040274	404 02 0 00 000016 		AND	T1,IR
  9008	040275	402 00 0 00 046757 		SETZM	CONDZ#
  9009	040276	603 02 0 00 000740 		TLNE	T1,740
  9010	040277	476 00 0 00 046757 		SETOM	CONDZ
  9011	040300	263 17 0 00 000000 		POPJ	P,
  9012
  9013	040301	603 16 0 00 000400 	JFCL2:	TLNE	IR,(1B9)
  9014	040302	621 13 0 00 400000 		TLZ	PC,AROV
  9015	040303	603 16 0 00 000200 		TLNE	IR,(1B10)
  9016	040304	621 13 0 00 200000 		TLZ	PC,CRY0
  9017	040305	603 16 0 00 000100 		TLNE	IR,(1B11)
  9018	040306	621 13 0 00 100000 		TLZ	PC,CRY1
  9019	040307	603 16 0 00 000040 		TLNE	IR,(1B12)
  9020	040310	621 13 0 00 040000 		TLZ	PC,FOV
  9021	040311	336 00 0 00 046757 		SKIPN	CONDZ
  9022	040312	661 01 0 00 000004 		TLO	T,INFTST
  9023	040313	263 17 0 00 000000 		POPJ	P,
  9024
  9025	040314	260 17 0 00 040272 	JFCLF:	PUSHJ	P,CONDZ1
  9026	040315	336 00 0 00 046757 		SKIPN	CONDZ
  9027	040316	664 01 0 00 100000 		TROA	T,ABPCEN
  9028	040317	661 01 0 00 000004 		TLO	T,INFTST
  9029	040320	263 17 0 00 000000 		POPJ	P,
  9030
  9031	040321	603 16 0 00 000300 	JRSTF:	TLNE	IR,(1B10+1B11)
  9032	040322	254 00 0 00 040325 		JRST	.+3
  9033	040323	661 01 0 00 000004 		TLO	T,INFTST
  9034	040324	263 17 0 00 000000 		POPJ	P,
  9035	040325	476 00 0 00 047116 		SETOM	STINH
  9036	040326	263 17 0 00 000000 		POPJ	P,
DBKDA	DECSYSTEM10 KI10 ARITHMETIC RELIABILITY TEST, VER 0,3	MACRO %51(414) 14:29  9-JUN-76 PAGE 40
KI10A1	MAC	 9-JUN-76 13:52		DISPATCH SUBROUTINES FROM MAIN TABLE - FETCH ACTIONS                           *** SEQ 0242

  9037	040327	661 01 0 00 000600 	JRST2:	TLO	T,ADBRPL
  9038	040330	660 01 0 00 001000 		TRO	T,BRAREN
  9039	040331	607 16 0 00 000300 		TLNN	IR,(1B10+1B11)
  9040	040332	263 17 0 00 000000 		POPJ	P,
  9041	040333	603 16 0 00 000200 		TLNE	IR,(1B10)
  9042	040334	402 00 0 00 047073 		SETZM	RUN#
  9043	040335	607 16 0 00 000100 		TLNN	IR,(1B11)
  9044	040336	254 00 0 00 040352 		JRST	JRST3
  9045	040337	510 02 0 00 000006 		HLLZ	T1,AR
  9046	040340	603 13 0 00 010000 		TLNE	PC,USERF		;USER MODE
  9047	040341	665 02 0 00 010000 		TLOA	T1,10000		;USER CANNOT LEAVE USER MODE
  9048	040342	254 00 0 00 040345 		JRST	.+3
  9049	040343	607 13 0 00 004000 		TLNN	PC,EXIOT
  9050	040344	621 02 0 00 004000 		TLZ	T1,4000			;USER CANNOT TURN ON USER IOT
  9051	040345	621 02 0 00 000037 		TLZ	T1,37
  9052	040346	500 13 0 00 000002 		HLL	PC,T1
  9053	040347	402 00 0 00 046746 		SETZM	BYF6
  9054	040350	603 13 0 00 020000 		TLNE	PC,BIS
  9055	040351	476 00 0 00 046746 		SETOM	BYF6
  9056	040352	201 05 0 00 042066 	JRST3:	MOVEI	S,ST1
  9057	040353	263 17 0 00 000000 		POPJ	P,
  9058
  9059						IFNDEF	SIMASB,<
  9060					MUOXC3:	MOVEM	17,MONTMP+17	;SAVE AC'S
  9061						MOVEI	17,MONTMP
  9062						BLT	17,MONTMP+16
  9063						HRRI	PC,.+3		;SET ACTUAL FLAGS
  9064						HLL	PC,USR425
  9065						JRST	2,(PC)
  9066						MOVE	0,USR424
  9067						LSH	0,-^D27
  9068						CAIN	0,041
  9069						JRST	MUOXC5		;INIT UUO
  9070						MOVSI	17,ACS		;GET SIMULATED AC'S
  9071						BLT	17,17
  9072						XCT	USR424		;EXECUTE MONITOR UUO
  9073						SKIPA
  9074					MUOXC4:	AOS	USR425
  9075						MOVEM	17,ACS+17	;PUT BACK SIM AC'S
  9076						MOVEI	17,ACS
  9077						BLT	17,ACS+16
  9078						JSP	0,.+1		;GET ACTUAL FLAGS
  9079						HLLM	0,USR425	;SETUP AS SIM FLAGS
  9080						MOVEI	0,0
  9081						CALL	[SIXBIT /SETUWP/]
  9082						JFCL
  9083						MOVSI	17,MONTMP
  9084						BLT	17,17		;RESTORE AC'S
  9085						POPJ	P,
  9086					DBKDA	DECSYSTEM10 KI10 ARITHMETIC RELIABILITY TEST, VER 0,3	MACRO %51(414) 14:29  9-JUN-76 PAGE 41
KI10A1	MAC	 9-JUN-76 13:52		DISPATCH SUBROUTINES FROM MAIN TABLE - FETCH ACTIONS                           *** SEQ 0243

  9087					MUOXC5:	MOVE	0,@USR425	;MUUO INIT EXECUTION
  9088						MOVEM	0,MUOXC6	;SETUP ARG'S
  9089						AOS	USR425
  9090						MOVE	0,@USR425
  9091						MOVEM	0,MUOXC6+1
  9092						MOVSI	17,ACS		;GET SIMULATED AC'S
  9093						BLT	17,17
  9094						XCT	USR424		;EXECUTE INIT
  9095					MUOXC6:	0
  9096						0
  9097						SKIPA			;ERROR RETURN
  9098						AOS	USR425		;NORMAL RETURN
  9099						JRST	MUOXC4
  9100
  9101					MONTMP:	BLOCK	20
  9102					>
  9103	040354	603 00 0 00 000600 	DMVEA:	TLNE	F,ADBRPL
  9104	040355	660 01 0 00 006000 		TRO	T,ARADEN
  9105	040356	263 17 0 00 000000 		POPJ	P,
  9106
  9107	040357	660 03 0 00 000007 	DIVF:	TRO	T2,SAMI42
  9108	040360	641 01 0 00 016000 		TLC	T,ADFMPL+ADFMMI
  9109	040361	476 00 0 00 047116 		SETOM	STINH
  9110	040362	263 17 0 00 000000 		POPJ	P,
  9111
  9112	040363	661 03 0 00 000400 	BPNIF:	TLO	T2,ADMSKG	;BYTE PTR NOT INC FETCH
  9113	040364	660 03 0 00 001000 	BPNIF2:	TRO	T2,SAARPOS
  9114	040365	263 17 0 00 000000 		POPJ	P,
  9115
  9116	040366	260 17 0 00 040373 	FIXF:	PUSHJ	P,FSCF
  9117	040367	254 00 0 00 040104 		JRST	FMP0A
  9118	040370	260 17 0 00 040373 	FLTF:	PUSHJ	P,FSCF
  9119	040371	660 03 0 00 000013 		TRO	T2,SAMI4
  9120	040372	263 17 0 00 000000 		POPJ	P,
  9121
  9122	040373	476 00 0 00 047116 	FSCF:	SETOM	STINH
  9123	040374	263 17 0 00 000000 		POPJ	P,
  9124
  9125	040375	260 17 0 00 040373 	FDVF:	PUSHJ	P,FSCF
  9126	040376	254 00 0 00 040104 		JRST	FMP0A
  9127
  9128	040377	660 03 0 00 000343 	LDBF:	TRO	T2,SASCMI+SAPL1+SAADD+SAZERO
  9129	040400	325 15 0 00 030065 		JUMPGE	SC,CPOPJ
  9130	040401	660 03 0 00 000017 		TRO	T2,SAM100
  9131	040402	263 17 0 00 000000 		POPJ	P,
  9132
DBKDA	DECSYSTEM10 KI10 ARITHMETIC RELIABILITY TEST, VER 0,3	MACRO %51(414) 14:29  9-JUN-76 PAGE 42
KI10A1	MAC	 9-JUN-76 13:52		DISPATCH SUBROUTINES FROM MAIN TABLE - FETCH ACTIONS                           *** SEQ 0244

  9133	040403	260 17 0 00 040405 	DFMF:	PUSHJ	P,DFLTF
  9134	040404	254 00 0 00 040104 		JRST	FMP0A
  9135
  9136	040405	665 03 0 00 000200 	DFLTF:	TLOA	T2,ARXCLR
  9137	040406	260 17 0 00 040411 	BLTF:	PUSHJ	P,BLTFDA
  9138	040407	476 00 0 00 047116 		SETOM	STINH
  9139	040410	263 17 0 00 000000 		POPJ	P,
  9140
  9141	040411	476 00 0 00 047057 	BLTFDA:	SETOM	PCP1FF
  9142	040412	254 00 0 00 040415 		JRST	DFDF+2
  9143
  9144	040413	260 17 0 00 040405 	DFDF:	PUSHJ	P,DFLTF
  9145	040414	670 03 0 00 046303 		TDO	T2,[XWD ADXFMM+ADXEQV,SAAREX]
  9146	040415	476 00 0 00 047147 		SETOM	TNCLRI#
  9147	040416	263 17 0 00 000000 		POPJ	P,
  9148
  9149	040417	476 00 0 00 047147 	UUOF:	SETOM	TNCLRI
  9150	040420	476 00 0 00 047156 		SETOM	XCTF#
  9151	040421	201 02 0 00 000040 		MOVEI	T1,40
  9152	040422	202 02 0 00 047027 		MOVEM	T1,MAGIC#
  9153
  9154	040423	476 00 0 00 047156 	XCTFD1:	SETOM	XCTF
  9155	040424	476 00 0 00 047147 		SETOM	TNCLRI
  9156	040425	263 17 0 00 000000 		POPJ	P,
DBKDA	DECSYSTEM10 KI10 ARITHMETIC RELIABILITY TEST, VER 0,3	MACRO %51(414) 14:29  9-JUN-76 PAGE 43
KI10A1	MAC	 9-JUN-76 13:52		DISPATCH SUBROUTINES FROM MAIN TABLE - FETCH ACTIONS                           *** SEQ 0245

  9157						IFNDEF	SIMASB,<
  9158					TDATAI:	MOVEI	S,TTYDI
  9159						POPJ	P,
  9160
  9161					TDATAO:	MOVEI	S,TTYDO
  9162						POPJ	P,
  9163
  9164					TCONO:	MOVEI	S,TTYCO
  9165						TRO	T,ARLARR
  9166						POPJ	P,
  9167
  9168					TCONI:	MOVEI	S,TTYCI
  9169						POPJ	P,
  9170
  9171					TCONSZ:	MOVEI	S,TTYCNZ
  9172						POPJ	P,
  9173
  9174					TCONSO:	MOVEI	S,TTYCNO
  9175						POPJ	P,
  9176
  9177					TDTAI:	PUSHJ	P,MEMWSS
  9178						POPJ	P,
  9179
  9180					TDTAO:	POPJ	P,
  9181
  9182					TCNO:	POPJ	P,
  9183
  9184					TCNI:	JRST	TDTAI
  9185
  9186					TCNSZ:
  9187					TCNSO:	MOVEI	S,ST1
  9188						POPJ	P,
  9189
  9190					ADATAI:	MOVEI	S,APRDI
  9191						POPJ	P,
  9192
  9193					ADATAO:	MOVEI	S,APRDO
  9194						POPJ	P,
  9195
  9196					ACONO:	MOVEI	S,APRCO
  9197						TRO	T,ARLARR
  9198						POPJ	P,
  9199
  9200					ACONI:	MOVEI	S,APRCI
  9201						POPJ	P,
  9202					DBKDA	DECSYSTEM10 KI10 ARITHMETIC RELIABILITY TEST, VER 0,3	MACRO %51(414) 14:29  9-JUN-76 PAGE 44
KI10A1	MAC	 9-JUN-76 13:52		DISPATCH SUBROUTINES FROM MAIN TABLE - FETCH ACTIONS                           *** SEQ 0246

  9203					ACONSZ:	MOVEI	S,APRCNZ
  9204						POPJ	P,
  9205
  9206					ACONSO:	MOVEI	S,APRCNO
  9207						POPJ	P,
  9208
  9209					PDATAI:	MOVEI	S,PIDI
  9210						POPJ	P,
  9211
  9212					PDATAO:	MOVEI	S,PIDO
  9213						POPJ	P,
  9214
  9215					PCONO:	MOVEI	S,PICO
  9216						TRO	T,ARLARR
  9217						POPJ	P,
  9218
  9219					PCONI:	MOVEI	S,PICI
  9220						POPJ	P,
  9221
  9222					PCONSZ:	MOVEI	S,PICNZ
  9223						POPJ	P,
  9224
  9225					PCONSO:	MOVEI	S,PICNO
  9226						POPJ	P,
  9227
  9228					GDATAI:	MOVEI	S,PGDI
  9229						POPJ	P,
  9230
  9231					GDATAO:	MOVEI	S,PGDO
  9232						POPJ	P,
  9233
  9234					PGCONO:	MOVEI	S,PGCO
  9235						TRO	T,ARLARR
  9236						POPJ	P,
  9237
  9238					PGCONI:	MOVEI	S,PGCI
  9239						POPJ	P,
  9240
  9241					GCONSZ:	MOVEI	S,PGCNZ
  9242						POPJ	P,
  9243
  9244					GCONSO:	MOVEI	S,PGCNO
  9245						POPJ	P,
  9246					>
DBKDA	DECSYSTEM10 KI10 ARITHMETIC RELIABILITY TEST, VER 0,3	MACRO %51(414) 14:29  9-JUN-76 PAGE 1
KI10A2	MAC	 9-JUN-76 13:56		MASTER CLOCK ROUTINE                                                           *** SEQ 0247

  9247					SUBTTL	MASTER CLOCK ROUTINE
  9248
  9249	040426				SIMGO:
  9250	040426	476 00 0 00 047003 	GO:	SETOM	INFTFF
  9251	040427	402 00 0 00 047020 		SETZM	INSYNC
  9252	040430	402 00 0 00 047057 		SETZM	PCP1FF
  9253	040431	201 00 0 00 100000 		MOVEI	F,ABPC
  9254	040432	200 13 0 00 032375 		MOVE	PC,INPC
  9255	040433	552 13 0 00 047060 		HRRZM	PC,PCP1G
  9256	040434	476 00 0 00 047073 		SETOM	RUN
  9257	040435	201 05 0 00 043752 		MOVEI	S,INDONE
  9258					GO1:	REPEAT	4,
  9259					<	SETZM MEMCMP-GO1+.>
  9260	040436	402 00 0 00 045553 		SETZM MEMCMP-GO1+.
  9261	040437	402 00 0 00 045554 		SETZM MEMCMP-GO1+.
  9262	040440	402 00 0 00 045555 		SETZM MEMCMP-GO1+.
  9263	040441	402 00 0 00 045556 		SETZM MEMCMP-GO1+.
  9264	040442	402 00 0 00 047030 		SETZM	MAMAOFF
  9265	040443	402 00 0 00 047035 		SETZM	MEMDONE
  9266	040444	402 00 0 00 047155 		SETZM	WARNED
  9267	040445	402 00 0 00 047145 		SETZM	TIME
  9268	040446	402 00 0 00 047041 		SETZM	MEMWR
  9269	040447	402 00 0 00 047042 		SETZM	MEMWRWT
  9270	040450	402 00 0 00 046771 		SETZM	FMADMA
  9271	040451	402 00 0 00 047156 		SETZM	XCTF
  9272	040452	402 00 0 00 046763 		SETZM	DSF2
  9273	040453	402 00 0 00 047154 		SETZM	TTST#
  9274	040454	403 16 0 00 046745 		SETZB	IR,BYF5
  9275	040455	402 00 0 00 046746 		SETZM	BYF6
  9276	040456	603 13 0 00 020000 		TLNE	PC,BIS
  9277	040457	476 00 0 00 046746 		SETOM	BYF6
  9278	040460	402 00 0 00 046762 		SETZM	DFDF1
  9279	040461	402 00 0 00 047076 		SETZM	SACBRFF
  9280	040462	402 00 0 00 046766 		SETZM	FCE2ST
  9281	040463	402 00 0 00 046767 		SETZM	FCE2W
  9282	040464	402 00 0 00 046775 		SETZM	FMWRSET
  9283	040465	402 00 0 00 046774 		SETZM	FMSINAC#
  9284	040466	402 00 0 00 047034 		SETZM	MCSPEC
  9285	040467	402 00 0 00 047033 		SETZM	MCSADR#
  9286	040470	402 00 0 00 047036 		SETZM	MEMGOINH#
  9287	040471	402 00 0 00 046741 		SETZM	BLTF1
  9288	040472	402 00 0 00 047047 		SETZM	MUUOF1
  9289	040473	402 00 0 00 047050 		SETZM	MUUOF2
  9290	040474	402 00 0 00 047151 		SETZM	TRPCYC
  9291	040475	402 00 0 00 047063 		SETZM	PICYC
  9292	040476	402 00 0 00 047152 		SETZM	TRPSAT
  9293	040477	402 00 0 00 047064 		SETZM	PIRDYS
  9294	040500	402 00 0 00 047150 		SETZM	TRPCSET
  9295	040501	402 00 0 00 047067 		SETZM	PSINFT
  9296	040502	402 00 0 00 047016 		SETZM	INSNXT#		;INST FETCH NEXT
  9297	040503	403 06 0 00 000007 		SETZB	AR,MQ
  9298	040504	403 10 0 00 000011 		SETZB	BR,AD
  9299	040505	403 12 0 00 000014 		SETZB	MB,MA
  9300	040506	403 15 0 00 000016 		SETZB	SC,IR
  9301	040507	402 00 0 00 046730 		SETZM	ARI08#
DBKDA	DECSYSTEM10 KI10 ARITHMETIC RELIABILITY TEST, VER 0,3	MACRO %51(414) 14:29  9-JUN-76 PAGE 2
KI10A2	MAC	 9-JUN-76 13:56		MASTER CLOCK ROUTINE                                                           *** SEQ 0248

  9302	040510	260 17 0 00 044141 	MAIN:	PUSHJ	P,FMVAL
  9303	040511	260 17 0 00 040703 		PUSHJ	P,ADDER
  9304	040512	260 17 0 00 041051 		PUSHJ	P,ADXER
  9305	040513	260 17 0 00 044130 		PUSHJ	P,ABMIXR
  9306	040514	260 17 0 00 041137 		PUSHJ	P,SCAD
  9307	040515	306 05 0 00 043752 		CAIN	S,INDONE
  9308	040516	260 17 0 00 043752 		PUSHJ	P,INDONE
  9309	040517	336 00 0 00 047025 		SKIPN	IRLTCH
  9310						JRST	[HLLZ	IR,MB
  9311							TLZ	IR,37
  9312	040520	254 00 0 00 046304 			JRST	.+1]
  9313	040521	552 05 0 00 047113 		HRRZM	S,STATE#
  9314	040522	403 01 0 00 047015 		SETZB	T,INRDYCLR
  9315	040523	403 03 0 00 047002 		SETZB	T2,INDNCLR
  9316	040524	332 00 0 00 047016 		SKIPE	INSNXT
  9317	040525	661 01 0 00 000004 		TLO	T,INFTST
  9318	040526	402 00 0 00 047016 		SETZM	INSNXT
  9319	040527	402 00 0 00 046775 		SETZM	FMWRSET
  9320	040530	402 00 0 00 046751 		SETZM	CLINSET
  9321	040531	402 00 0 00 046733 		SETZM	ARMQEN
  9322	040532	402 00 0 00 047026 		SETZM	LONGSET
  9323	040533	402 00 0 00 046734 		SETZM	ARPOSEN
  9324	040534	402 00 0 00 046744 		SETZM	BRSMR
  9325	040535	402 00 0 00 046735 		SETZM	ARSMR
  9326	040536	402 00 0 00 046726 		SETZM	ARESAEN
  9327	040537	332 00 0 00 047003 		SKIPE	INFTFF
  9328	040540	260 17 0 00 045411 		PUSHJ	P,INFTSB
  9329	040541	201 05 0 00 044006 	SIMBRK:	MOVEI	S,ERR+1
  9330	040542	476 00 0 00 044005 		SETOM	ERR
  9331	040543	332 00 0 00 046763 		SKIPE	DSF2
  9332	040544	254 00 0 00 040550 		JRST	MAIN1
  9333	040545	332 00 0 00 046762 		SKIPE	DFDF1#
  9334	040546	260 17 0 00 040556 		PUSHJ	P,MAIN2
  9335	040547	254 00 0 00 040567 		JRST	DISP
  9336
  9337	040550	200 02 0 00 000011 	MAIN1:	MOVE	T1,AD
  9338	040551	430 02 0 00 000010 		XOR	T1,BR
  9339	040552	331 00 0 00 000002 		SKIPL	T1
  9340	040553	665 01 0 00 061060 		TLOA	T,ADBRMI+ADCR36+ADADD+ADARPL
  9341	040554	661 01 0 00 040660 		TLO	T,ADBRPL+ADADD+ADARPL
  9342	040555	254 00 0 00 040567 		JRST	DISP
  9343
  9344	040556	200 02 0 00 046722 	MAIN2:	MOVE	T1,ADX
  9345	040557	661 03 0 00 500000 		TLO	T2,ADXADD+ADXFMP
  9346	040560	242 02 0 00 000010 		LSH	T1,10
  9347	040561	430 02 1 00 046773 		XOR	T1,@FMREG
  9348	040562	331 00 0 00 000002 		SKIPL	T1
  9349	040563	665 01 0 00 061060 		TLOA	T,ADADD+ADARPL+ADBRMI+ADCR36
  9350	040564	665 01 0 00 040660 		TLOA	T,ADADD+ADARPL+ADBRPL
  9351	040565	641 03 0 00 140000 		TLC	T2,ADXFMP+ADXFMM
  9352	040566	263 17 0 00 000000 		POPJ	P,
DBKDA	DECSYSTEM10 KI10 ARITHMETIC RELIABILITY TEST, VER 0,3	MACRO %51(414) 14:29  9-JUN-76 PAGE 3
KI10A2	MAC	 9-JUN-76 13:56		MASTER CLOCK ROUTINE                                                           *** SEQ 0249

  9353	040567	260 17 1 00 047113 	DISP:	PUSHJ	P,@STATE
  9354	040570	202 03 0 00 047100 		MOVEM	T2,SCADEN#
  9355	040571	260 17 0 00 044151 		PUSHJ	P,ARMIXR
  9356	040572	260 17 0 00 044513 		PUSHJ	P,ARXMXR
  9357	040573	260 17 0 00 044107 		PUSHJ	P,BRMIXR
  9358	040574	260 17 0 00 044342 		PUSHJ	P,MQMIXR
  9359	040575	260 17 0 00 044442 		PUSHJ	P,MBMIXR
  9360	040576	260 17 0 00 044456 		PUSHJ	P,SCMIXR
  9361	040577	332 00 0 00 046725 		SKIPE	ARCLK
  9362	040600	200 06 0 00 046732 		MOVE	AR,ARMIX
  9363	040601	200 02 0 00 046740 		MOVE	T1,ARXMIX#
  9364	040602	332 00 0 00 046737 		SKIPE	ARXCLK#
  9365	040603	202 02 0 00 046736 		MOVEM	T1,ARX#
  9366	040604	332 00 0 00 046742 		SKIPE	BRCLK
  9367	040605	200 10 0 00 046743 		MOVE	BR,BRMIX
  9368	040606	332 00 0 00 047045 		SKIPE	MQCLK#
  9369	040607	200 07 0 00 047046 		MOVE	MQ,MQMIX
  9370	040610	332 00 0 00 047031 		SKIPE	MBCLK#
  9371	040611	200 12 0 00 047032 		MOVE	MB,MBMIX#
  9372	040612	332 00 0 00 047102 		SKIPE	SCCLK#
  9373	040613	200 15 0 00 047104 		MOVE	SC,SCMIX#
  9374	040614	200 02 0 00 047074 		MOVE	T1,SA
  9375	040615	200 03 0 00 047100 		MOVE	T2,SCADEN
  9376	040616	602 03 0 00 400000 		TRNE	T2,FESAEN
  9377	040617	202 02 0 00 046770 		MOVEM	T1,FE#
  9378	040620	640 01 0 00 022000 		TRC	T,ARFLGS
  9379	040621	646 01 0 00 022000 		TRCN	T,ARFLGS
  9380	040622	621 13 0 00 020000 		TLZ	PC,BIS
  9381	040623	607 13 0 00 020000 		TLNN	PC,BIS
  9382	040624	402 00 0 00 046746 		SETZM	BYF6
  9383	040625	603 01 0 00 000002 		TLNE	T,PCCLK
  9384	040626	540 13 0 00 046710 		HRR	PC,AB
  9385	040627	260 17 0 00 040266 		PUSHJ	P,PCP1
  9386	040630	626 00 0 00 000001 		TRZN	F,CLKINH
  9387	040631	260 17 0 00 044621 		PUSHJ	P,TIMCAL
  9388	040632	603 01 0 00 000001 		TLNE	T,ADCLKINH
  9389	040633	254 00 0 00 040636 		JRST	.+3
  9390	040634	606 01 0 00 200000 		TRNN	T,ABABEN
  9391	040635	260 17 0 00 044560 		PUSHJ	P,ADCLK
  9392	040636	260 17 0 00 044573 		PUSHJ	P,ABCLK
  9393	040637	332 00 0 00 046775 		SKIPE	FMWRSET
  9394	040640	260 17 0 00 044610 		PUSHJ	P,FMWR
  9395	040641	332 00 0 00 046751 		SKIPE	CLINSET
  9396	040642	660 00 0 00 000001 		TRO	F,CLKINH
DBKDA	DECSYSTEM10 KI10 ARITHMETIC RELIABILITY TEST, VER 0,3	MACRO %51(414) 14:29  9-JUN-76 PAGE 4
KI10A2	MAC	 9-JUN-76 13:56		MASTER CLOCK ROUTINE                                                           *** SEQ 0250

  9397	040643	622 00 0 00 000200 		TRZE	F,SCP1S
  9398	040644	664 00 0 00 000400 		TROA	F,SCP1IN
  9399	040645	620 00 0 00 000400 		TRZ	F,SCP1IN
  9400	040646	332 00 0 00 047026 		SKIPE	LONGSET
  9401	040647	664 00 0 00 040000 		TROA	F,LNGCYC
  9402	040650	620 00 0 00 040000 		TRZ	F,LNGCYC
  9403	040651	603 01 0 00 000004 		TLNE	T,INFTST
  9404	040652	476 00 0 00 047003 		SETOM	INFTFF#
  9405	040653	332 00 0 00 046767 		SKIPE	FCE2W
  9406	040654	260 17 0 00 045334 		PUSHJ	P,FCE2SY
  9407	040655	336 00 0 00 046744 		SKIPN	BRSMR#
  9408	040656	254 00 0 00 040662 		JRST	.+4
  9409	040657	603 10 0 00 400000 		TLNE	BR,(1B0)
  9410	040660	665 10 0 00 377000 		TLOA	BR,377000
  9411	040661	621 10 0 00 377000 		TLZ	BR,377000
  9412	040662	622 00 0 00 001000 		TRZE	F,MUOF1S
  9413	040663	476 00 0 00 047047 		SETOM	MUUOF1#
  9414	040664	622 00 0 00 002000 		TRZE	F,MUOF1C
  9415	040665	402 00 0 00 047047 		SETZM	MUUOF1
  9416	040666	622 00 0 00 004000 		TRZE	F,MUOF2S
  9417	040667	476 00 0 00 047050 		SETOM	MUUOF2#
  9418	040670	622 00 0 00 010000 		TRZE	F,MUOF2C
  9419	040671	402 00 0 00 047050 		SETZM	MUUOF2
  9420	040672	332 00 0 00 047150 		SKIPE	TRPCSET#
  9421	040673	476 00 0 00 047151 		SETOM	TRPCYC
  9422	040674	402 00 0 00 047150 		SETZM	TRPCSET
  9423	040675	332 00 0 00 047152 		SKIPE	TRPSAT
  9424	040676	621 13 0 00 000600 		TLZ	PC,TN0+TN1
  9425	040677	332 00 0 00 047152 		SKIPE	TRPSAT
  9426	040700	402 00 0 00 047151 		SETZM	TRPCYC
  9427	040701	402 00 0 00 047152 		SETZM	TRPSAT
  9428	040702	254 00 0 00 040510 		JRST	MAIN
DBKDA	DECSYSTEM10 KI10 ARITHMETIC RELIABILITY TEST, VER 0,3	MACRO %51(414) 14:29  9-JUN-76 PAGE 5
KI10A2	MAC	 9-JUN-76 13:56		LOGIC SUBROUTINES                                                              *** SEQ 0251

  9429					SUBTTL	LOGIC SUBROUTINES
  9430
  9431	040703	211 11 0 00 000001 	ADDER:	MOVNI	AD,1
  9432	040704	603 00 0 00 000040 		TLNE	F,ADARLP
  9433	040705	500 11 0 00 000006 		HLL	AD,AR
  9434	040706	603 00 0 00 000020 		TLNE 	F,ADARRP
  9435	040707	540 11 0 00 000006 		HRR	AD,AR
  9436	040710	603 00 0 00 000100 		TLNE	F,ADARMI
  9437	040711	420 11 0 00 000006 		ANDCM	AD,AR
  9438	040712	520 02 0 00 000012 		HLLO	T1,MB
  9439	040713	200 03 0 00 047101 		MOVE	T2,SCADFF
  9440	040714	603 03 0 00 004000 		TLNE	T2,ADMBLE
  9441	040715	404 11 0 00 000002 		AND	AD,T1
  9442	040716	560 02 0 00 000012 		HRRO	T1,MB
  9443	040717	603 03 0 00 002000 		TLNE	T2,ADMBRE
  9444	040720	404 11 0 00 000002 		AND	AD,T1
  9445	040721	607 03 0 00 000400 		TLNN	T2,ADMSKG
  9446	040722	254 00 0 00 040734 		JRST	ADDER1
  9447	040723	402 00 0 00 000002 		SETZM	T1
  9448	040724	554 04 0 00 000016 		HLRZ	T3,IR
  9449	040725	640 04 0 00 137000 		TRC	T3,(DPB)
  9450	040726	602 04 0 00 774000 		TRNE	T3,774000
  9451	040727	606 04 0 00 773000 		TRNN	T3,773000
  9452	040730	201 02 0 00 000001 		MOVEI	T1,1
  9453	040731	135 04 0 00 046307 		LDB	T3,[POINT 6,AR,11]
  9454	040732	242 02 0 04 000000 		LSH	T1,(T3)
  9455	040733	404 11 0 00 000002 		AND	AD,T1
  9456
  9457	040734	202 11 0 00 046713 	ADDER1:	MOVEM	AD,AD2#
  9458	040735	402 00 0 00 046717 		SETZM	ADOVF1#
  9459	040736	335 00 0 00 000011 		SKIPGE	AD
  9460	040737	522 00 0 00 046717 		HLLOM	ADOVF1
  9461	040740	211 11 0 00 000001 		MOVNI	AD,1
  9462	040741	603 00 0 00 004000 		TLNE	F,ADFMLP
  9463	040742	500 11 1 00 046773 		HLL	AD,@FMREG#
  9464	040743	603 00 0 00 002000 		TLNE	F,ADFMRP
  9465	040744	540 11 1 00 046773 		HRR	AD,@FMREG
  9466	040745	603 00 0 00 010000 		TLNE	F,ADFMMI
  9467	040746	420 11 1 00 046773 		ANDCM	AD,@FMREG
  9468	040747	520 02 0 00 000010 		HLLO	T1,BR
  9469	040750	603 00 0 00 000400 		TLNE	F,ADBRLP
  9470	040751	404 11 0 00 000002 		AND	AD,T1
  9471	040752	560 02 0 00 000010 		HRRO	T1,BR
  9472	040753	603 00 0 00 000200 		TLNE	F,ADBRRP
  9473	040754	404 11 0 00 000002 		AND	AD,T1
  9474	040755	603 00 0 00 000010 		TLNE	F,ADMAGIC
  9475	040756	404 11 0 00 047027 		AND	AD,MAGIC#
  9476	040757	603 00 0 00 001000 		TLNE	F,ADBRMI
  9477	040760	420 11 0 00 000010 		ANDCM	AD,BR
  9478	040761	402 00 0 00 046716 		SETZM	ADOVF#
  9479	040762	335 00 0 00 000011 		SKIPGE	AD
  9480	040763	522 00 0 00 046716 		HLLOM	ADOVF
  9481	040764	607 03 0 00 001000 		TLNN	T2,ADBRP2
  9482	040765	254 00 0 00 040773 		JRST	ADDER2
  9483	040766	200 02 0 00 000010 		MOVE	T1,BR
DBKDA	DECSYSTEM10 KI10 ARITHMETIC RELIABILITY TEST, VER 0,3	MACRO %51(414) 14:29  9-JUN-76 PAGE 5-1
KI10A2	MAC	 9-JUN-76 13:56		LOGIC SUBROUTINES                                                              *** SEQ 0252

  9484	040767	242 02 0 00 000001 		LSH	T1,1
  9485	040770	404 11 0 00 000002 		AND	AD,T1
  9486	040771	321 10 0 00 040773 		JUMPL	BR,ADDER2
  9487	040772	402 00 0 00 046716 		SETZM	ADOVF
  9488
  9489	040773	202 11 0 00 046720 	ADDER2:	MOVEM	AD,ADPR#
  9490	040774	607 00 0 00 140000 		TLNN	F,ADADD+ADEQV
  9491	040775	404 11 0 00 046713 		AND	AD,AD2
  9492	040776	603 00 0 00 100000 		TLNE	F,ADEQV
  9493	040777	444 11 0 00 046713 		EQV	AD,AD2
  9494	041000	550 02 0 00 046713 		HRRZ	T1,AD2
  9495	041001	603 00 0 00 020000 		TLNE	F,ADCR36
  9496	041002	271 02 0 00 000001 		ADDI	T1,1
  9497	041003	271 02 0 11 000000 		ADDI	T1,(AD)
  9498	041004	202 02 0 00 046714 		MOVEM	T1,AD4#
  9499	041005	557 00 0 00 000002 		HLRZS	T1
  9500	041006	607 00 0 00 400000 		TLNN	F,ADMI1B
  9501	041007	271 02 0 00 000001 		ADDI	T1,1
  9502	041010	603 00 0 00 200000 		TLNE	F,ADPL1L
  9503	041011	271 02 0 00 000001 		ADDI	T1,1
  9504	041012	246 02 0 00 777777 		LSHC	T1,-1
  9505	041013	202 03 0 00 046712 		MOVEM	T2,AD17.5#
  9506	041014	554 03 0 00 000011 		HLRZ	T2,AD
  9507	041015	206 02 0 00 046721 		MOVSM	T1,ADTEM#
  9508	041016	504 02 0 00 046716 		HRL	T1,ADOVF
  9509	041017	270 02 0 00 000003 		ADD	T1,T2
  9510	041020	554 03 0 00 046713 		HLRZ	T2,AD2
  9511	041021	504 03 0 00 046717 		HRL	T2,ADOVF1
  9512	041022	270 02 0 00 000003 		ADD	T1,T2
  9513	041023	506 02 0 00 046714 		HRLM	T1,AD4
  9514	041024	603 00 0 00 040000 		TLNE	F,ADADD
  9515	041025	556 02 0 00 046716 		HLRZM	T1,ADOVF
  9516	041026	255 17 0 00 041027 		JFCL	17,.+1
  9517	041027	510 02 0 00 000011 		HLLZ	T1,AD
  9518	041030	270 02 0 00 046721 		ADD	T1,ADTEM
  9519	041031	270 02 0 00 046713 		ADD	T1,AD2
  9520	041032	264 00 0 00 041033 		JSR	ADFLGS
  9521
DBKDA	DECSYSTEM10 KI10 ARITHMETIC RELIABILITY TEST, VER 0,3	MACRO %51(414) 14:29  9-JUN-76 PAGE 6
KI10A2	MAC	 9-JUN-76 13:56		LOGIC SUBROUTINES                                                              *** SEQ 0253

  9522	041033	000000	000000		ADFLGS:	0
  9523	041034	200 02 0 00 041033 		MOVE	T1,ADFLGS
  9524	041035	255 10 0 00 041046 		JOV	ADFLGO
  9525	041036	200 02 0 00 046717 		MOVE	T1,ADOVF1
  9526	041037	603 00 0 00 100000 		TLNE	F,ADEQV
  9527	041040	446 02 0 00 046716 		EQVM	T1,ADOVF
  9528	041041	607 00 0 00 140000 		TLNN	F,ADADD+ADEQV
  9529	041042	406 02 0 00 046716 		ANDM	T1,ADOVF
  9530	041043	603 00 0 00 040000 		TLNE	F,ADADD
  9531	041044	200 11 0 00 046714 		MOVE	AD,AD4
  9532	041045	263 17 0 00 000000 		POPJ	P,
  9533
  9534	041046	661 02 0 00 400000 	ADFLGO:	TLO	T1,AROV
  9535	041047	202 02 0 00 041033 		MOVEM	T1,ADFLGS
  9536	041050	254 00 0 00 041036 		JRST	ADFLGS+3
DBKDA	DECSYSTEM10 KI10 ARITHMETIC RELIABILITY TEST, VER 0,3	MACRO %51(414) 14:29  9-JUN-76 PAGE 7
KI10A2	MAC	 9-JUN-76 13:56		LOGIC SUBROUTINES                                                              *** SEQ 0254

  9537					;*ADX SUBROUTINE
  9538
  9539	041051	200 02 0 00 046736 	ADXER:	MOVE	T1,ARX#
  9540	041052	202 02 0 00 046722 		MOVEM	T1,ADX#
  9541	041053	211 02 0 00 000001 		MOVNI	T1,1
  9542	041054	200 04 0 00 047101 		MOVE	T3,SCADFF
  9543	041055	603 04 0 00 100000 		TLNE	T3,ADXFMP
  9544	041056	200 02 1 00 046773 		MOVE	T1,@FMREG
  9545	041057	603 04 0 00 040000 		TLNE	T3,ADXFMM
  9546	041060	420 02 1 00 046773 		ANDCM	T1,@FMREG
  9547	041061	603 04 0 00 010000 		TLNE	T3,ADXBRM
  9548	041062	420 02 0 00 000010 		ANDCM	T1,BR
  9549	041063	331 00 0 00 000002 		SKIPL	T1
  9550	041064	625 02 0 00 377000 		TLZA	T1,377000
  9551	041065	661 02 0 00 377000 		TLO	T1,377000
  9552	041066	607 04 0 00 020000 		TLNN	T3,ADXFM2
  9553	041067	254 00 0 00 041100 		JRST	ADXER1
  9554	041070	200 03 1 00 046773 		MOVE	T2,@FMREG
  9555	041071	240 03 0 00 000001 		ASH	T2,1
  9556	041072	603 10 0 00 200000 		TLNE	BR,(1B1)
  9557	041073	660 03 0 00 000001 		TRO	T2,1
  9558	041074	331 00 0 00 000003 		SKIPL	T2
  9559	041075	625 03 0 00 376000 		TLZA	T2,376000
  9560	041076	661 03 0 00 376000 		TLO	T2,376000
  9561	041077	404 02 0 00 000003 		AND	T1,T2
  9562
  9563	041100	402 00 0 00 046724 	ADXER1:	SETZM	ADXTMP#
  9564	041101	200 03 0 00 046713 		MOVE	T2,AD2
  9565	041102	430 03 0 00 046720 		XOR	T2,ADPR
  9566	041103	430 03 0 00 046714 		XOR	T2,AD4
  9567	041104	335 00 0 00 000003 		SKIPGE	T2
  9568	041105	350 00 0 00 046724 		AOS	ADXTMP
  9569	041106	200 03 0 00 000002 		MOVE	T2,T1
  9570	041107	270 03 0 00 046722 		ADD	T2,ADX
  9571	041110	270 03 0 00 046724 		ADD	T2,ADXTMP
  9572	041111	430 03 0 00 046722 		XOR	T2,ADX
  9573	041112	430 03 0 00 000002 		XOR	T2,T1
  9574	041113	402 00 0 00 046723 		SETZM	ADXCR0
  9575	041114	603 03 0 00 002000 		TLNE	T2,(1B7)
  9576	041115	476 00 0 00 046723 		SETOM	ADXCR0#
  9577	041116	603 04 0 00 200000 		TLNE	T3,ADXEQV
  9578	041117	446 02 0 00 046722 		EQVM	T1,ADX
  9579	041120	607 04 0 00 600000 		TLNN	T3,ADXEQV+ADXADD
  9580	041121	406 02 0 00 046722 		ANDM	T1,ADX
  9581	041122	607 04 0 00 400000 		TLNN	T3,ADXADD
  9582	041123	254 00 0 00 041126 		JRST	ADXER2
  9583	041124	270 02 0 00 046724 		ADD	T1,ADXTMP
  9584	041125	272 02 0 00 046722 		ADDM	T1,ADX
  9585
DBKDA	DECSYSTEM10 KI10 ARITHMETIC RELIABILITY TEST, VER 0,3	MACRO %51(414) 14:29  9-JUN-76 PAGE 8
KI10A2	MAC	 9-JUN-76 13:56		LOGIC SUBROUTINES                                                              *** SEQ 0255

  9586	041126	200 02 0 00 046713 	ADXER2:	MOVE	T1,AD2
  9587	041127	603 04 0 00 200000 		TLNE	T3,ADXEQV
  9588	041130	446 02 0 00 046720 		EQVM	T1,ADPR
  9589	041131	607 04 0 00 600000 		TLNN	T3,ADXEQV+ADXADD
  9590	041132	406 02 0 00 046720 		ANDM	T1,ADPR
  9591	041133	200 02 0 00 046714 		MOVE	T1,AD4
  9592	041134	603 04 0 00 400000 		TLNE	T3,ADXADD
  9593	041135	202 02 0 00 046720 		MOVEM	T1,ADPR
  9594	041136	263 17 0 00 000000 		POPJ	P,
  9595
  9596					;*SHIFTCOUNT ADDER
  9597
  9598	041137	200 04 0 00 047101 	SCAD:	MOVE	T3,SCADFF
  9599	041140	211 02 0 00 000001 		MOVNI	T1,1
  9600	041141	602 04 0 00 000020 		TRNE	T3,SASCPL
  9601	041142	200 02 0 00 000015 		MOVE	T1,SC
  9602	041143	602 04 0 00 010000 		TRNE	T3,SAFEEN
  9603	041144	404 02 0 00 046770 		AND	T1,FE#
  9604	041145	602 04 0 00 000040 		TRNE	T3,SASCMI
  9605	041146	420 02 0 00 000015 		ANDCM	T1,SC
  9606	041147	135 03 0 00 046307 		LDB	T2,[POINT 6,AR,11]
  9607	041150	602 04 0 00 000400 		TRNE	T3,SAMSIZ
  9608	041151	420 02 0 00 000003 		ANDCM	T1,T2
  9609	041152	202 02 0 00 047074 		MOVEM	T1,SA#
  9610	041153	211 02 0 00 000001 		MOVNI	T1,1
  9611	041154	201 03 0 00 000017 		MOVEI	T2,17
  9612	041155	404 03 0 00 000004 		AND	T2,T3
  9613	041156	602 04 0 00 000017 		TRNE	T3,17
  9614	041157	200 02 0 03 041205 		MOVE	T1,SAMAGN-1(T2)
  9615	041160	135 03 0 00 046310 		LDB	T2,[POINT 6,AR,5]
  9616	041161	602 04 0 00 001000 		TRNE	T3,SAARPOS
  9617	041162	404 02 0 00 000003 		AND	T1,T2
  9618	041163	602 04 0 00 002000 		TRNE	T3,SAAREX
  9619	041164	254 00 0 00 041201 		JRST	SCAD4
  9620	041165	602 04 0 00 000100 	SCAD3:	TRNE	T3,SAADD
  9621	041166	254 00 0 00 041173 		JRST	SCAD1
  9622	041167	602 04 0 00 004000 		TRNE	T3,SAEQV
  9623	041170	254 00 0 00 041177 		JRST	SCAD2
  9624	041171	406 02 0 00 047074 		ANDM	T1,SA
  9625	041172	263 17 0 00 000000 		POPJ	P,
DBKDA	DECSYSTEM10 KI10 ARITHMETIC RELIABILITY TEST, VER 0,3	MACRO %51(414) 14:29  9-JUN-76 PAGE 9
KI10A2	MAC	 9-JUN-76 13:56		LOGIC SUBROUTINES                                                              *** SEQ 0256

  9626	041173	272 02 0 00 047074 	SCAD1:	ADDM	T1,SA
  9627	041174	602 04 0 00 000200 		TRNE	T3,SAPL1
  9628	041175	350 00 0 00 047074 		AOS	SA
  9629	041176	263 17 0 00 000000 		POPJ	P,
  9630
  9631	041177	446 02 0 00 047074 	SCAD2:	EQVM	T1,SA
  9632	041200	263 17 0 00 000000 		POPJ	P,
  9633
  9634	041201	135 03 0 00 046311 	SCAD4:	LDB	T2,[POINT 8,AR,8]
  9635	041202	626 03 0 00 000200 		TRZN	T2,200
  9636	041203	465 03 0 00 000177 		ORCMI	T2,177
  9637	041204	404 02 0 00 000003 		AND	T1,T2
  9638	041205	254 00 0 00 041165 		JRST	SCAD3
  9639
  9640	041206	777777	777756		SAMAGN:	-22
  9641	041207	000000	000044			44
  9642	041210	000000	000000			0
  9643	041211	000000	000220			220
  9644	041212	000000	000110			110
  9645	041213	777777	777670			-110
  9646	041214	777777	777736			-42
  9647	041215	777777	777762			-16
  9648	041216	777777	777745			-33
  9649	041217	777777	777746			-32
  9650	041220	777777	777774			-4
  9651	041221	000000	000010			10
  9652	041222	777777	777735			-43
  9653	041223	000000	000043			43
  9654	041224	777777	777700			-100
  9655
DBKDA	DECSYSTEM10 KI10 ARITHMETIC RELIABILITY TEST, VER 0,3	MACRO %51(414) 14:29  9-JUN-76 PAGE 10
KI10A2	MAC	 9-JUN-76 13:56		LOGIC SUBROUTINES                                                              *** SEQ 0257

  9656	041225	200 04 0 00 041033 	CNDPQR:	MOVE	T3,ADFLGS#
  9657	041226	603 04 0 00 100000 		TLNE	T3,100000	;CARRY 1
  9658	041227	641 04 0 00 200000 		TLC	T3,200000	;COMP CARRY 0
  9659	041230	335 00 0 00 000011 		SKIPGE	AD
  9660	041231	641 04 0 00 200000 		TLC	T3,200000
  9661	041232	402 00 0 00 046715 		SETZM	ADCOND#
  9662	041233	603 04 0 00 200000 		TLNE	T3,200000
  9663	041234	476 00 0 00 046715 		SETOM	ADCOND
  9664	041235	402 00 0 00 047022 		SETZM	IR6#
  9665	041236	402 00 0 00 047023 		SETZM	IR7#
  9666	041237	402 00 0 00 047024 		SETZM	IR8#
  9667	041240	603 16 0 00 004000 		TLNE	IR,(1B6)
  9668	041241	476 00 0 00 047022 		SETOM	IR6
  9669	041242	603 16 0 00 002000 		TLNE	IR,(1B7)
  9670	041243	476 00 0 00 047023 		SETOM	IR7
  9671	041244	603 16 0 00 001000 		TLNE	IR,(1B8)
  9672	041245	476 00 0 00 047024 		SETOM	IR8
  9673	041246	460 04 0 00 047022 		SETCM	T3,IR6		;COMPUTE COND P
  9674	041247	404 04 0 00 047023 		AND	T3,IR7
  9675	041250	202 04 0 00 046754 		MOVEM	T3,CONDP#
  9676	041251	332 00 0 00 000011 		SKIPE	AD
  9677	041252	402 00 0 00 046754 		SETZM	CONDP
  9678	041253	200 04 0 00 047022 		MOVE	T3,IR6
  9679	041254	420 04 0 00 047023 		ANDCM	T3,IR7
  9680	041255	420 04 0 00 047024 		ANDCM	T3,IR8
  9681	041256	436 04 0 00 046754 		IORM	T3,CONDP
  9682	041257	200 04 0 00 047022 		MOVE	T3,IR6
  9683	041260	420 04 0 00 047024 		ANDCM	T3,IR8
  9684	041261	336 00 0 00 000011 		SKIPN	AD
  9685	041262	201 04 0 00 000000 		MOVEI	T3,0
  9686	041263	436 04 0 00 046754 		IORM	T3,CONDP
  9687	041264	260 17 0 00 041274 		PUSHJ	P,CONDQR
  9688	041265	202 02 0 00 046755 		MOVEM	T1,CONDQ#
  9689	041266	402 00 0 00 046715 		SETZM	ADCOND
  9690	041267	335 00 0 00 000011 		SKIPGE	AD
  9691	041270	476 00 0 00 046715 		SETOM	ADCOND
  9692	041271	260 17 0 00 041274 		PUSHJ	P,CONDQR
  9693	041272	202 02 0 00 046756 		MOVEM	T1,CONDR#
  9694	041273	263 17 0 00 000000 		POPJ	P,
  9695	041274	460 04 0 00 047022 	CONDQR:	SETCM	T3,IR6
  9696	041275	404 04 0 00 046715 		AND	T3,ADCOND
  9697	041276	404 04 0 00 047024 		AND	T3,IR8
  9698	041277	202 04 0 00 000002 		MOVEM	T3,T1
  9699	041300	200 04 0 00 047022 		MOVE	T3,IR6
  9700	041301	420 04 0 00 047023 		ANDCM	T3,IR7
  9701	041302	420 04 0 00 046715 		ANDCM	T3,ADCOND
  9702	041303	436 04 0 00 000002 		IORM	T3,T1
  9703	041304	200 04 0 00 047022 		MOVE	T3,IR6
  9704	041305	420 04 0 00 046715 		ANDCM	T3,ADCOND
  9705	041306	336 00 0 00 000011 		SKIPN	AD
  9706	041307	201 04 0 00 000000 		MOVEI	T3,0
  9707	041310	436 04 0 00 000002 		IORM	T3,T1
  9708	041311	263 17 0 00 000000 		POPJ	P,
DBKDA	DECSYSTEM10 KI10 ARITHMETIC RELIABILITY TEST, VER 0,3	MACRO %51(414) 14:29  9-JUN-76 PAGE 11
KI10A2	MAC	 9-JUN-76 13:56		TIME PULSE SUBROUTINES	IT0-IT1                                                *** SEQ 0258

  9709					SUBTTL	TIME PULSE SUBROUTINES	IT0-IT1
  9710
  9711	041312	336 04 0 00 047014 	IT0:	SKIPN	T3,INRDY#
  9712	041313	255 00 0 00 000000 		JFCL			;FIX FOR TRAPPING
  9713	041314	311 04 0 00 047145 		CAML	T3,TIME#
  9714	041315	202 04 0 00 047145 		MOVEM	T3,TIME
  9715	041316	661 03 0 00 002000 		TLO	T2,ADMBRE
  9716	041317	402 00 0 00 047156 		SETZM	XCTF
  9717	041320	135 02 0 00 046312 		LDB	T1,[POINT 4,MB,17]
  9718	041321	332 00 0 00 000002 		SKIPE	T1
  9719	041322	665 01 0 00 246000 		TLOA	T,ADFMPL+ADADD+ADPL1L
  9720	041323	661 03 0 00 004000 		TLO	T2,ADMBLE
  9721	041324	660 01 0 00 400000 		TRO	T,ABADEN
  9722	041325	201 02 0 00 000024 		MOVEI	T1,^D20
  9723	041326	272 02 0 00 047145 		ADDM	T1,TIME
  9724	041327	200 02 0 00 046263 		MOVE	T1,[POINT 4,IR,12]
  9725	041330	607 12 0 00 000037 		TLNN	MB,37
  9726	041331	202 02 0 00 046772 		MOVEM	T1,FMADREN
  9727	041332	660 00 0 00 000010 		TRO	F,DSF2CLR
  9728	041333	402 00 0 00 047116 		SETZM	STINH
  9729	041334	402 00 0 00 047044 		SETZM	MPY
  9730	041335	336 00 0 00 047157 		SKIPN	XCTPACT#
  9731	041336	254 00 0 00 041341 		JRST	.+3
  9732	041337	402 00 0 00 047160 		SETZM	XCTPRD
  9733	041340	402 00 0 00 047161 		SETZM	XCTPWR
  9734	041341	402 00 0 00 047157 		SETZM	XCTPACT
  9735	041342	607 13 0 00 000600 		TLNN	PC,TN0+TN1
  9736	041343	254 00 0 00 041352 		JRST	IT0A		;TN=0
  9737	041344	332 00 0 00 047151 		SKIPE	TRPCYC#
  9738	041345	254 00 0 00 041352 		JRST	IT0A
  9739	041346	332 00 0 00 047063 		SKIPE	PICYC#
  9740	041347	254 00 0 00 041352 		JRST	IT0A
  9741	041350	201 05 0 00 041617 		MOVEI	S,IT2
  9742	041351	263 17 0 00 000000 		POPJ	P,
  9743	041352	265 05 0 00 030065 	IT0A:	JSP	S,CPOPJ
  9744
  9745	041353	620 00 0 00 000160 	IT1:	TRZ	F,FLAG1+FLAG2+FLAG3
  9746	041354	402 00 0 00 047027 		SETZM	MAGIC#
  9747	041355	402 00 0 00 047076 		SETZM	SACBRFF
  9748	041356	660 01 0 00 004000 		TRO	T,ARRTAD
  9749	041357	476 00 0 00 047015 		SETOM	INRDYCLR#
  9750	041360	476 00 0 00 047025 		SETOM	IRLTCH#
  9751	041361	135 04 0 00 046313 		LDB	T3,[POINT 9,IR,8]
  9752	041362	306 04 0 00 000254 		CAIN	T3,254		;SKIP IF NOT JRST
  9753	041363	660 01 0 00 002000 		TRO	T,ARLTAD
  9754	041364	307 04 0 00 000137 		CAIG	T3,137
  9755	041365	305 04 0 00 000133 		CAIGE	T3,133
  9756	041366	334 00 0 00 000000 		SKIPA
  9757	041367	254 00 0 00 041572 		JRST	IT1BYT
  9758	041370	332 00 0 00 046746 		SKIPE	BYF6
  9759	041371	254 00 0 00 041603 		JRST	IT1DMV
DBKDA	DECSYSTEM10 KI10 ARITHMETIC RELIABILITY TEST, VER 0,3	MACRO %51(414) 14:29  9-JUN-76 PAGE 12
KI10A2	MAC	 9-JUN-76 13:56		TIME PULSE SUBROUTINES	IT0-IT1                                                *** SEQ 0259

  9760	041372	603 12 0 00 000020 	IT1BY2:	TLNE	MB,(1B13)
  9761	041373	254 00 0 00 041400 		JRST	.+5
  9762	041374	332 00 0 00 047160 		SKIPE	XCTPRD
  9763	041375	476 00 0 00 047157 		SETOM	XCTPACT
  9764	041376	332 00 0 00 047161 		SKIPE	XCTPWR
  9765	041377	476 00 0 00 047157 		SETOM	XCTPACT
  9766						IFDEF	SIMASB,<
  9767	041400	305 04 0 00 000110 		CAIGE	T3,110
  9768	041401	264 00 0 00 044005 		JSR	ERR	>
  9769	041402	221 04 0 00 000003 		IMULI	T3,3		;PICKUP DISPATCH TABLE
  9770						IFNDEF	SIMASB,<
  9771						ADDI	T3,TABLE	>
  9772						IFDEF	SIMASB,<
  9773	041403	271 04 0 00 034603 		ADDI	T3,TABLE-330	>
  9774	041404	202 04 0 00 047017 	IT1A:	MOVEM	T3,INSTPT#
  9775	041405	336 02 0 04 000000 		SKIPN	T1,(T3)
  9776	041406	254 00 0 00 041554 		JRST	IT1H		;NO ENTRY
  9777	041407	332 00 0 00 046745 	IT1G:	SKIPE	BYF5
  9778	041410	254 00 0 00 041415 		JRST	.+5
  9779	041411	200 04 0 04 000002 		MOVE	T3,2(T3)
  9780	041412	405 04 0 00 000777 		ANDI	T3,777
  9781	041413	302 04 0 00 000031 		CAIE	T3,SKIPS
  9782	041414	260 17 0 00 041612 		PUSHJ	P,IT1I
  9783	041415	201 04 0 00 000140 		MOVEI	T3,SAIAC0
  9784	041416	404 04 0 00 000002 		AND	T3,T1
  9785	041417	306 04 0 00 000100 		CAIN	T3,SACBR
  9786	041420	476 00 0 00 047076 		SETOM	SACBRFF
  9787	041421	603 12 0 00 000020 	IT1C:	TLNE	MB,(1B13)
  9788	041422	254 00 0 00 041557 		JRST	IT1IND		;INDIRECT CYCLE
  9789
  9790					;*MB13 (0) ACTIONS
  9791
  9792	041423	201 05 0 00 041734 	IT1B:	MOVEI	S,FT6
  9793	041424	476 00 0 00 047002 		SETOM	INDNCLR#
  9794	041425	200 02 1 00 047017 		MOVE	T1,@INSTPT
  9795	041426	606 02 0 00 000437 		TRNN	T1,MEMREF!STORE!PCCHNG
  9796	041427	476 00 0 00 047016 		SETOM	INSNXT
  9797	041430	606 02 0 00 000437 		TRNN	T1,MEMREF!STORE!PCCHNG
  9798	041431	660 01 0 00 100000 		TRO	T,ABPCEN
  9799	041432	603 12 0 00 000037 		TLNE	MB,37
  9800	041433	254 00 0 00 041436 		JRST	.+3		;MB 13-17 NOT = 0
  9801	041434	606 02 0 00 000017 		TRNN	T1,MEMREF
  9802	041435	254 00 0 00 041736 		JRST	ETSEL		;ENABLE FETCH CYCLE ACTIONS
  9803
DBKDA	DECSYSTEM10 KI10 ARITHMETIC RELIABILITY TEST, VER 0,3	MACRO %51(414) 14:29  9-JUN-76 PAGE 13
KI10A2	MAC	 9-JUN-76 13:56		TIME PULSE SUBROUTINES	IT0-IT1                                                *** SEQ 0260

  9804					;*MB13(0) AND MEMREF OR NOT MB14-17 = 0
  9805
  9806	041436	602 02 0 00 000017 	IT1D:	TRNE	T1,MEMREF
  9807	041437	334 00 0 00 000000 		SKIPA
  9808	041440	661 01 0 00 000060 		TLO	T,ADARPL	;NOT MEMREF
  9809	041441	602 02 0 00 000004 		TRNE	T1,FCCACR	;FCCACRT OR FCCACLT
  9810	041442	665 01 0 00 006000 		TLOA	T,ADFMPL
  9811	041443	606 02 0 00 000013 		TRNN	T1,FCE!FCEPSE!SCE!FCE2
  9812	041444	260 17 0 00 041763 		PUSHJ	P,FMACEN	;FM ADR AC EN
  9813	041445	602 02 0 00 000004 		TRNE	T1,FCCACR
  9814	041446	606 12 0 00 000017 		TRNN	MB,17
  9815	041447	254 00 0 00 041452 		JRST	.+3
  9816	041450	476 00 0 00 047026 		SETOM	LONGSET
  9817	041451	660 03 0 00 000100 		TRO	T2,SAADD
  9818	041452	602 02 0 00 000001 		TRNE	T1,FCE
  9819	041453	602 02 0 00 000420 		TRNE	T1,STORE!PCCHNG
  9820	041454	334 00 0 00 000000 		SKIPA
  9821	041455	476 00 0 00 047020 		SETOM	INSYNC#
  9822	041456	602 02 0 00 000010 		TRNE	T1,SCE
  9823	041457	602 02 0 00 000405 		TRNE	T1,FCCACR!FCE!PCCHNG
  9824	041460	334 00 0 00 000000 		SKIPA
  9825	041461	476 00 0 00 047020 		SETOM	INSYNC		;INST FETCH START SET
  9826	041462	402 00 0 00 047103 		SETZM	SCENACR#
  9827	041463	606 02 0 00 000010 		TRNN	T1,SCE
  9828	041464	254 00 0 00 041467 		JRST	.+3
  9829	041465	606 02 0 00 000004 		TRNN	T1,FCCACR
  9830	041466	476 00 0 00 047103 		SETOM	SCENACR		;SET FLAG FOR SCE AND NOT FCCACR
  9831	041467	606 02 0 00 000010 		TRNN	T1,SCE
  9832	041470	254 00 0 00 041474 		JRST	.+4
  9833	041471	602 02 0 00 000006 		TRNE	T1,FCCACL
  9834	041472	254 00 0 00 041474 		JRST	.+2
  9835	041473	660 01 0 00 200000 		TRO	T,ABABEN
  9836	041474	602 02 0 00 000004 		TRNE	T1,FCCACR
  9837	041475	254 00 0 00 041500 		JRST	.+3
  9838	041476	602 02 0 00 000003 		TRNE	T1,FCE!FCEPSE!FCE2
  9839	041477	660 01 0 00 200000 		TRO	T,ABABEN
  9840	041500	332 00 0 00 047103 		SKIPE	SCENACR
  9841	041501	476 00 0 00 046751 		SETOM	CLINSET
  9842	041502	602 02 0 00 000003 		TRNE	T1,FCE!FCEPSE
  9843	041503	476 00 0 00 046751 		SETOM	CLINSET
  9844	041504	336 00 0 00 047103 		SKIPN	SCENACR
  9845	041505	254 00 0 00 041510 		JRST	.+3
  9846	041506	606 02 0 00 000001 		TRNN	T1,FCE
  9847	041507	476 00 0 00 047041 		SETOM	MEMWR#
DBKDA	DECSYSTEM10 KI10 ARITHMETIC RELIABILITY TEST, VER 0,3	MACRO %51(414) 14:29  9-JUN-76 PAGE 14
KI10A2	MAC	 9-JUN-76 13:56		TIME PULSE SUBROUTINES	IT0-IT1                                                *** SEQ 0261

  9848	041510	640 02 0 00 000003 		TRC	T1,FCEPSE
  9849	041511	646 02 0 00 000003 		TRCN	T1,FCEPSE
  9850	041512	476 00 0 00 047041 		SETOM	MEMWR
  9851	041513	640 02 0 00 000006 		TRC	T1,FCCACL
  9852	041514	646 02 0 00 000006 		TRCN	T1,FCCACL
  9853	041515	254 00 0 00 041520 		JRST	.+3
  9854	041516	602 02 0 00 000003 		TRNE	T1,FCEPSE!FCE!FCE2
  9855	041517	476 00 0 00 047037 		SETOM	MEMREAD#
  9856	041520	602 02 0 00 000005 		TRNE	T1,FCCACR!FCE
  9857	041521	254 00 0 00 041527 		JRST	IT1E
  9858	041522	606 02 0 00 000002 		TRNN	T1,FCE2
  9859	041523	254 00 0 00 041527 		JRST	IT1E
  9860	041524	201 05 0 00 041725 		MOVEI	S,FT7
  9861	041525	476 00 0 00 046766 		SETOM	FCE2ST
  9862	041526	254 00 0 00 041543 		JRST	IT1F+1
  9863
  9864	041527	336 00 0 00 047037 	IT1E:	SKIPN	MEMREAD
  9865	041530	332 00 0 00 047041 		SKIPE	MEMWR
  9866	041531	254 00 0 00 041542 		JRST	IT1F
  9867	041532	602 02 0 00 000004 		TRNE	T1,FCCACR
  9868	041533	201 05 0 00 041645 		MOVEI	S,FT3
  9869	041534	640 02 0 00 000006 		TRC	T1,FCCACL
  9870	041535	646 02 0 00 000006 		TRCN	T1,FCCACL
  9871	041536	201 05 0 00 041641 		MOVEI	S,FT1
  9872	041537	306 05 0 00 041645 		CAIN	S,FT3
  9873	041540	660 01 0 00 400000 		TRO	T,ABADEN
  9874	041541	263 17 0 00 000000 		POPJ	P,
  9875
  9876	041542	201 05 0 00 045161 	IT1F:	MOVEI	S,MEMST
  9877	041543	261 17 0 00 046314 		PUSH	P,["C"]
  9878	041544	262 17 0 00 047040 		POP	P,MEMSIN#
  9879	041545	607 12 0 00 000017 		TLNN	MB,17
  9880	041546	263 17 0 00 000000 		POPJ	P,
  9881	041547	336 00 0 00 047041 		SKIPN	MEMWR
  9882	041550	263 17 0 00 000000 		POPJ	P,
  9883	041551	261 17 0 00 046315 		PUSH	P,["K"]
  9884	041552	262 17 0 00 047040 		POP	P,MEMSIN
  9885	041553	263 17 0 00 000000 		POPJ	P,
  9886
DBKDA	DECSYSTEM10 KI10 ARITHMETIC RELIABILITY TEST, VER 0,3	MACRO %51(414) 14:29  9-JUN-76 PAGE 15
KI10A2	MAC	 9-JUN-76 13:56		TIME PULSE SUBROUTINES	IT0-IT1                                                *** SEQ 0262

  9887	041554	332 00 0 04 000002 	IT1H:	SKIPE	2(T3)
  9888	041555	254 00 0 00 041407 		JRST	IT1G
  9889						IFNDEF	SIMASB,<
  9890						LDB	S,[POINT 10,IR,9]
  9891						CAIN	S,1624		;TTY I/O
  9892						JRST	TTIO
  9893						CAIN	S,1601		;PI
  9894						JRST	PIIO
  9895						CAIN	S,1600		;APR
  9896						JRST	APRIO
  9897						CAIN	S,1602		;PAG
  9898						JRST	PAGIO
  9899						CAIN	S,1776
  9900						JRST	MUOXCT		;MUUO EXECUTION
  9901					>
  9902	041556	264 00 0 00 044005 	IT1DE:	JSR	ERR
  9903
  9904	041557	332 00 0 00 047064 	IT1IND:	SKIPE	PIRDYS#
  9905	041560	254 00 0 00 041633 		JRST	PIT1A
  9906	041561	201 05 0 00 045161 		MOVEI	S,MEMST
  9907	041562	261 17 0 00 046316 		PUSH	P,["A"]
  9908	041563	262 17 0 00 047040 		POP	P,MEMSIN
  9909	041564	476 00 0 00 046751 		SETOM	CLINSET#
  9910	041565	660 01 0 00 200000 		TRO	T,ABABEN
  9911	041566	476 00 0 00 047037 		SETOM	MEMREAD#
  9912	041567	661 01 0 00 000004 		TLO	T,INFTST
  9913	041570	476 00 0 00 047067 		SETOM	PSINFT#
  9914	041571	263 17 0 00 000000 		POPJ	P,
  9915
  9916						IFNDEF	SIMASB,<
  9917					MUOXCT:	MOVEI	T3,MUOBLK	;MUUO EXECUTE INSTRUCTION
  9918						MOVEM	T3,INSTPT
  9919						JRST	IT1G
  9920
  9921					MUOBLK:	SACINH
  9922						0
  9923						MUOXC2
  9924					>
DBKDA	DECSYSTEM10 KI10 ARITHMETIC RELIABILITY TEST, VER 0,3	MACRO %51(414) 14:29  9-JUN-76 PAGE 16
KI10A2	MAC	 9-JUN-76 13:56		TIME PULSE SUBROUTINES	IT0-IT1                                                *** SEQ 0263

  9925	041572	332 00 0 00 046745 	IT1BYT:	SKIPE	BYF5#
  9926	041573	254 00 0 00 041372 		JRST	IT1BY2
  9927	041574	275 04 0 00 000133 		SUBI	T3,133
  9928	041575	221 04 0 00 000003 		IMULI	T3,3
  9929	041576	332 00 0 00 046746 		SKIPE	BYF6
  9930	041577	271 04 0 00 037322 		ADDI	T3,BPNINC
  9931	041600	336 00 0 00 046746 		SKIPN	BYF6
  9932	041601	271 04 0 00 037303 		ADDI	T3,BPINC
  9933	041602	254 00 0 00 041404 		JRST	IT1A
  9934
  9935	041603	307 04 0 00 000125 	IT1DMV:	CAIG	T3,125		;DMOVNM
  9936	041604	305 04 0 00 000124 		CAIGE	T3,124		;DMOVEM
  9937	041605	254 00 0 00 041372 		JRST	IT1BY2
  9938	041606	602 04 0 00 000001 		TRNE	T3,1
  9939	041607	334 04 0 00 046317 		SKIPA	T3,[DMVPT2+3]
  9940	041610	201 04 0 00 037341 		MOVEI	T3,DMVPT2
  9941	041611	254 00 0 00 041404 		JRST	IT1A
  9942
  9943	041612	135 04 0 00 046320 	IT1I:	LDB	T3,[POINT 3,IR,2]
  9944	041613	306 04 0 00 000007 		CAIN	T3,7
  9945	041614	263 17 0 00 000000 		POPJ	P,
  9946	041615	660 01 0 00 000020 		TRO	T,MQCLR
  9947	041616	263 17 0 00 000000 		POPJ	P,
  9948
  9949	041617	476 00 0 00 047150 	IT2:	SETOM	TRPCSET
  9950	041620	402 00 0 00 047062 		SETZM	PFF1#
  9951	041621	476 00 0 00 047034 		SETOM	MCSPEC#
  9952	041622	201 02 0 00 000420 		MOVEI	T1,420
  9953	041623	603 13 0 00 010000 		TLNE	PC,USERF
  9954	041624	201 02 0 00 041636 		MOVEI	T1,USR420
  9955	041625	202 02 0 00 047033 		MOVEM	T1,MCSADR
  9956	041626	135 02 0 00 046321 		LDB	T1,[POINT 2,PC,10]
  9957	041627	272 02 0 00 047033 		ADDM	T1,MCSADR
  9958	041630	402 00 0 00 047014 		SETZM	INRDY
  9959	041631	476 00 0 00 047057 		SETOM	PCP1FF
  9960	041632	254 00 0 00 041557 		JRST	IT1IND
  9961
  9962	041633	201 05 0 00 041635 	PIT1A:	MOVEI	S,PIT1
  9963	041634	263 17 0 00 000000 		POPJ	P,
  9964
  9965	041635	264 00 0 00 044005 	PIT1:	JSR	ERR
  9966
  9967						IFDEF	SIMASB,<
  9968	041636	000000	000000		USR420:	0
  9969	041637	000000	000000		USR427:	0
  9970	041640	000000	000000		USR436:	0	>
DBKDA	DECSYSTEM10 KI10 ARITHMETIC RELIABILITY TEST, VER 0,3	MACRO %51(414) 14:29  9-JUN-76 PAGE 17
KI10A2	MAC	 9-JUN-76 13:56		TIME PULSE SUBROUTINES	-FETCH-                                                *** SEQ 0264

  9971					SUBTTL	TIME PULSE SUBROUTINES	-FETCH-
  9972
  9973	041641	660 01 0 00 007000 	FT1:	TRO	T,BRAREN!ARADEN
  9974	041642	265 05 0 00 030065 		JSP	S,CPOPJ
  9975
  9976	041643	670 01 0 00 046322 	FT2:	TDO	T,[XWD ADARPL,ABADEN+ARRARL]
  9977	041644	265 05 0 00 030065 		JSP	S,CPOPJ
  9978
  9979	041645	332 00 0 00 047047 	FT3:	SKIPE	MUUOF1
  9980	041646	332 00 0 00 047050 		SKIPE	MUUOF2
  9981	041647	334 00 0 00 000000 		SKIPA
  9982	041650	254 00 0 00 041766 		JRST	MUOES3
  9983	041651	200 02 1 00 047017 		MOVE	T1,@INSTPT
  9984	041652	606 02 0 00 000004 		TRNN	T1,FCCACR
  9985	041653	254 00 0 00 041656 		JRST	.+3
  9986	041654	606 02 0 00 000002 		TRNN	T1,PSE
  9987	041655	660 01 0 00 001000 		TRO	T,BRAREN
  9988	041656	476 00 0 00 047037 		SETOM	MEMREAD
  9989	041657	660 01 0 00 200000 		TRO	T,ABABEN
  9990	041660	476 00 0 00 046751 		SETOM	CLINSET
  9991	041661	606 02 0 00 000430 		TRNN	T1,STORE!PCCHNG!SCE
  9992	041662	476 00 0 00 047020 		SETOM	INSYNC		;INST FETCH START SET
  9993	041663	336 00 0 00 047047 		SKIPN	MUUOF1
  9994	041664	254 00 0 00 041674 		JRST	FT3A
  9995	041665	476 00 0 00 047034 		SETOM	MCSPEC
  9996	041666	261 17 0 00 046323 		PUSH	P,[430]
  9997	041667	262 17 0 00 047033 		POP	P,MCSADR
  9998	041670	607 13 0 00 010000 		TLNN	PC,USERF
  9999	041671	254 00 0 00 041674 		JRST	FT3A
 10000	041672	261 17 0 00 046324 		PUSH	P,[USR436]
 10001	041673	262 17 0 00 047033 		POP	P,MCSADR
 10002	041674	332 00 0 00 047151 	FT3A:	SKIPE	TRPCYC
 10003	041675	350 00 0 00 047033 		AOS	MCSADR
 10004	041676	606 02 0 00 000010 		TRNN	T1,SCE
 10005	041677	254 00 0 00 041702 		JRST	.+3
 10006	041700	261 17 0 00 046325 		PUSH	P,["B"]		;NEXT CYCLE FT4
 10007	041701	334 00 0 00 000000 		SKIPA
 10008	041702	261 17 0 00 046314 		PUSH	P,["C"]		;NEXT CYCLE FT6
 10009	041703	262 17 0 00 047040 		POP	P,MEMSIN
 10010	041704	201 05 0 00 045161 		MOVEI	S,MEMST
 10011	041705	263 17 0 00 000000 		POPJ	P,
 10012
 10013	041706	670 01 0 00 046213 	FT4:	TDO	T,[XWD ADBRPL,ABADEN]
 10014	041707	265 05 0 00 030065 		JSP	S,CPOPJ
DBKDA	DECSYSTEM10 KI10 ARITHMETIC RELIABILITY TEST, VER 0,3	MACRO %51(414) 14:29  9-JUN-76 PAGE 18
KI10A2	MAC	 9-JUN-76 13:56		TIME PULSE SUBROUTINES	-FETCH-                                                *** SEQ 0265

 10015	041710	660 01 0 00 200000 	FT5:	TRO	T,ABABEN
 10016	041711	476 00 0 00 046751 		SETOM	CLINSET
 10017	041712	476 00 0 00 047041 		SETOM	MEMWR
 10018	041713	261 17 0 00 046314 		PUSH	P,["C"]
 10019	041714	262 17 0 00 047040 		POP	P,MEMSIN	;NEXT CYCLE FT6
 10020	041715	200 02 1 00 047017 		MOVE	T1,@INSTPT
 10021	041716	606 00 0 00 000400 		TRNN	PCCHNG
 10022	041717	476 00 0 00 047020 		SETOM	INSYNC		;INST FETCH START SET
 10023	041720	201 05 0 00 045161 		MOVEI	S,MEMST
 10024	041721	263 17 0 00 000000 		POPJ	P,
 10025
 10026	041722	260 17 0 00 041763 	FT8:	PUSHJ	P,FMACEN
 10027	041723	201 05 0 00 041734 		MOVEI	S,FT6
 10028	041724	263 17 0 00 000000 		POPJ	P,
 10029
 10030	041725	670 01 0 00 046326 	FT7:	TDO	T,[XWD ADADD+ADCR36+ADBRPL,BRAREN]
 10031	041726	661 03 0 00 000400 		TLO	T2,ADMSKG
 10032	041727	476 00 0 00 046751 		SETOM	CLINSET
 10033	041730	201 05 0 00 045161 		MOVEI	S,MEMST
 10034	041731	210 04 0 00 045603 		MOVN	T3,VERTIM
 10035	041732	272 04 0 00 047145 		ADDM	T3,TIME
 10036	041733	263 17 0 00 000000 		POPJ	P,
 10037
 10038	041734	260 17 0 00 041763 	FT6:	PUSHJ	P,FMACEN
 10039	041735	476 00 0 00 046750 		SETOM	CLINCLR#
 10040	041736	200 02 1 00 047017 	ETSEL:	MOVE	T1,@INSTPT
 10041	041737	602 02 0 00 040000 		TRNE	T1,LNGCYC
 10042	041740	476 00 0 00 047026 		SETOM	LONGSET#
 10043	041741	200 04 0 00 000002 		MOVE	T3,T1
 10044	041742	630 04 0 00 046327 		TDZ	T3,[XWD 3,077777]
 10045	041743	434 01 0 00 000004 		IOR	T,T3
 10046	041744	201 05 0 00 042027 		MOVEI	S,ET2S
 10047	041745	603 02 0 00 000002 		TLNE	T1,ET1
 10048	041746	201 05 0 00 042015 		MOVEI	S,ET1S
 10049	041747	603 02 0 00 000001 		TLNE	T1,ET0
 10050	041750	201 05 0 00 041767 		MOVEI	S,ET0S
 10051	041751	602 02 0 00 000020 		TRNE	T1,STORE
 10052	041752	254 00 0 00 041755 		JRST	.+3
 10053	041753	336 00 0 00 047147 		SKIPN	TNCLRI
 10054	041754	476 00 0 00 047152 		SETOM	TRPSAT#
 10055	041755	640 01 0 00 022000 		TRC	T,ARFLGS
 10056	041756	646 01 0 00 022000 		TRCN	T,ARFLGS
 10057	041757	476 00 0 00 047152 		SETOM	TRPSAT
 10058	041760	135 04 0 00 046330 		LDB	T3,[POINT 5,T1,26]
 10059	041761	256 00 0 04 040234 		XCT	AUXTAB(T3)	;FETCH CYCLE ACTIONS
 10060	041762	263 17 0 00 000000 		POPJ	P,
DBKDA	DECSYSTEM10 KI10 ARITHMETIC RELIABILITY TEST, VER 0,3	MACRO %51(414) 14:29  9-JUN-76 PAGE 19
KI10A2	MAC	 9-JUN-76 13:56		TIME PULSE SUBROUTINES	-FETCH-                                                *** SEQ 0266

 10061	041763	200 04 0 00 046263 	FMACEN:	MOVE	T3,[POINT 4,IR,12]
 10062	041764	202 04 0 00 046772 		MOVEM	T3,FMADREN#
 10063	041765	263 17 0 00 000000 		POPJ	P,
 10064
 10065						IFNDEF	SIMASB,<
 10066					MUOES3:	MOVEI	T1,MUUO3
 10067						MOVEM	T1,INSTPT
 10068						JRST	FT3+4	>
 10069
 10070						IFDEF	SIMASB,<
 10071	041766	264 00 0 00 044005 	MUOES3:	JSR	ERR	>
DBKDA	DECSYSTEM10 KI10 ARITHMETIC RELIABILITY TEST, VER 0,3	MACRO %51(414) 14:29  9-JUN-76 PAGE 20
KI10A2	MAC	 9-JUN-76 13:56		TIME PULSE SUBROUTINES	-EXECUTE-                                              *** SEQ 0267

 10072					SUBTTL	TIME PULSE SUBROUTINES	-EXECUTE-
 10073
 10074	041767	200 02 0 00 047017 	ET0S:	MOVE	T1,INSTPT
 10075	041770	200 04 0 02 000000 		MOVE	T3,(T1)
 10076	041771	554 02 0 02 000001 		HLRZ	T1,1(T1)
 10077	041772	200 02 0 02 000000 		MOVE	T1,(T1)
 10078	041773	201 05 0 00 042027 		MOVEI	S,ET2S
 10079	041774	603 04 0 00 000002 		TLNE	T3,ET1
 10080	041775	201 05 0 00 042015 		MOVEI	S,ET1S
 10081	041776	602 04 0 00 000020 		TRNE	T3,STORE
 10082	041777	254 00 0 00 042006 		JRST	ET0SA
 10083
 10084	042000	434 01 0 00 000002 	ETPULS:	IOR	T,T1
 10085	042001	620 01 0 00 000777 		TRZ	T,777
 10086	042002	405 02 0 00 000777 		ANDI	T1,777
 10087	042003	602 02 0 00 000777 		TRNE	T1,777
 10088	042004	254 00 0 02 037346 		JRST	ETAB(T1)
 10089	042005	263 17 0 00 000000 		POPJ	P,
 10090
 10091	042006	201 05 0 00 000106 	ET0SA:	MOVEI	S,"F"
 10092	042007	202 05 0 00 047040 		MOVEM	S,MEMSIN
 10093	042010	476 00 0 00 047041 		SETOM	MEMWR
 10094	042011	476 00 0 00 046751 		SETOM	CLINSET
 10095	042012	201 05 0 00 045161 		MOVEI	S,MEMST
 10096	042013	660 01 0 00 200000 		TRO	T,ABABEN
 10097	042014	254 00 0 00 042000 		JRST	ETPULS
 10098
 10099	042015	200 02 0 00 047017 	ET1S:	MOVE	T1,INSTPT
 10100	042016	550 02 0 02 000001 		HRRZ	T1,1(T1)
 10101	042017	200 02 0 02 000000 		MOVE	T1,(T1)
 10102	042020	476 00 0 00 046750 		SETOM	CLINCLR
 10103	042021	200 04 1 00 047017 		MOVE	T3,@INSTPT
 10104	042022	602 04 0 00 000020 		TRNE	T3,STORE
 10105	042023	254 00 0 00 042026 		JRST	.+3
 10106	042024	336 00 0 00 047147 		SKIPN	TNCLRI
 10107	042025	476 00 0 00 047152 		SETOM	TRPSAT
 10108	042026	265 05 0 00 042000 		JSP	S,ETPULS
 10109
DBKDA	DECSYSTEM10 KI10 ARITHMETIC RELIABILITY TEST, VER 0,3	MACRO %51(414) 14:29  9-JUN-76 PAGE 21
KI10A2	MAC	 9-JUN-76 13:56		TIME PULSE SUBROUTINES	-EXECUTE-                                              *** SEQ 0268

 10110	042027	402 00 0 00 047036 	ET2S:	SETZM	MEMGOINH
 10111	042030	200 04 1 00 047017 		MOVE	T3,@INSTPT
 10112	042031	135 02 0 00 046263 		LDB	T1,[POINT 4,IR,12]
 10113	042032	640 04 0 00 000140 		TRC	T3,SAIAC0
 10114	042033	642 04 0 00 000140 		TRCE	T3,SAIAC0
 10115	042034	254 00 0 00 042040 		JRST	ET2SA
 10116	042035	620 04 0 00 000140 		TRZ	T3,SAIAC0
 10117	042036	336 00 0 00 000002 		SKIPN	T1
 10118	042037	660 04 0 00 000040 		TRO	T3,SACINH
 10119	042040	200 02 0 00 047017 	ET2SA:	MOVE	T1,INSTPT
 10120	042041	200 02 0 02 000002 		MOVE	T1,2(T1)
 10121	042042	602 04 0 00 000001 		TRNE	T3,FCE
 10122	042043	606 04 0 00 000002 		TRNN	T3,PSE
 10123	042044	602 04 0 00 000030 		TRNE	T3,SCE+STORE
 10124	042045	254 00 0 00 042050 		JRST	ET2SB
 10125	042046	602 04 0 00 000040 		TRNE	T3,SACINH
 10126	042047	254 00 0 00 042053 		JRST	ET2SC
 10127	042050	336 00 0 00 047116 	ET2SB:	SKIPN	STINH#
 10128	042051	201 05 0 00 042066 		MOVEI	S,ST1
 10129	042052	334 00 0 00 000000 		SKIPA
 10130	042053	201 05 0 00 043752 	ET2SC:	MOVEI	S,INDONE
 10131	042054	332 00 0 00 047116 		SKIPE	STINH#
 10132	042055	254 00 0 00 042000 		JRST	ETPULS
 10133	042056	606 04 0 00 000040 		TRNN	T3,SACINH
 10134	042057	476 00 0 00 046775 		SETOM	FMWRSET#
 10135	042060	254 00 0 00 042000 		JRST	ETPULS
DBKDA	DECSYSTEM10 KI10 ARITHMETIC RELIABILITY TEST, VER 0,3	MACRO %51(414) 14:29  9-JUN-76 PAGE 22
KI10A2	MAC	 9-JUN-76 13:56		TIME PULSE SUBROUTINES	-STORE-                                                *** SEQ 0269

 10136					SUBTTL	TIME PULSE SUBROUTINES	-STORE-
 10137
 10138	042061	332 00 0 00 046741 	ST1A:	SKIPE	BLTF1#
 10139	042062	254 00 0 00 042156 		JRST	ST1B
 10140	042063	606 02 0 00 000200 		TRNN	T1,SAC2
 10141	042064	254 00 0 00 042243 		JRST	ST5A
 10142	042065	254 00 0 00 042222 		JRST	ST3A
 10143
 10144	042066	402 00 0 00 047076 	ST1:	SETZM	SACBRFF
 10145	042067	332 00 0 00 046741 		SKIPE	BLTF1
 10146	042070	661 01 0 00 000002 		TLO	T,PCCLK
 10147	042071	554 02 0 00 000016 		HLRZ	T1,IR
 10148	042072	405 02 0 00 777000 		ANDI	T1,777000
 10149	042073	306 02 0 00 265000 		CAIN	T1,(JSP)
 10150	042074	661 01 0 00 000004 		TLO	T,INFTST
 10151	042075	306 02 0 00 264000 		CAIN	T1,(JSR)
 10152	042076	661 01 0 00 000004 		TLO	T,INFTST
 10153	042077	306 02 0 00 260000 		CAIN	T1,(PUSHJ)
 10154	042100	661 01 0 00 000004 		TLO	T,INFTST
 10155	042101	306 02 0 00 263000 		CAIN	T1,(POPJ)
 10156	042102	661 01 0 00 000004 		TLO	T,INFTST
 10157	042103	306 02 0 00 120000 		CAIN	T1,(DMOVE)
 10158	042104	661 01 0 00 000004 		TLO	T,INFTST
 10159	042105	306 02 0 00 257000 		CAIN	T1,(MAP)
 10160	042106	661 01 0 00 000004 		TLO	T,INFTST
 10161	042107	302 02 0 00 251000 		CAIE	T1,(BLT)
 10162	042110	254 00 0 00 042113 		JRST	.+3
 10163	042111	336 00 0 00 046741 		SKIPN	BLTF1
 10164	042112	661 01 0 00 000004 		TLO	T,INFTST
 10165	042113	302 02 0 00 254000 		CAIE	T1,(JRST)
 10166	042114	254 00 0 00 042117 		JRST	.+3
 10167	042115	603 16 0 00 000300 		TLNE	IR,(1B10+1B11)
 10168	042116	661 01 0 00 000004 		TLO	T,INFTST
 10169	042117	405 02 0 00 700000 		ANDI	T1,700000
 10170	042120	306 02 0 00 700000 		CAIN	T1,700000
 10171	042121	254 00 0 00 042260 		JRST	ST1C		;I/O
 10172	042122	200 02 0 00 047017 		MOVE	T1,INSTPT
 10173	042123	200 02 0 02 000002 		MOVE	T1,2(T1)
 10174	042124	405 02 0 00 000777 		ANDI	T1,777
 10175	042125	306 02 0 00 000022 		CAIN	T1,COMP
 10176	042126	661 01 0 00 000004 		TLO	T,INFTST
 10177	042127	306 02 0 00 000031 		CAIN	T1,SKIPS
 10178	042130	661 01 0 00 000004 		TLO	T,INFTST
 10179	042131	306 02 0 00 000054 		CAIN	T1,JUMPS
 10180	042132	661 01 0 00 000004 		TLO	T,INFTST
 10181	042133	306 02 0 00 000001 		CAIN	T1,AOBJX
 10182	042134	661 01 0 00 000004 		TLO	T,INFTST
 10183	042135	306 02 0 00 000002 		CAIN	T1,AOBJX+1
 10184	042136	661 01 0 00 000004 		TLO	T,INFTST
 10185	042137	306 02 0 00 000663 		CAIN	T1,MUUO32
 10186	042140	661 01 0 00 000004 		TLO	T,INFTST
DBKDA	DECSYSTEM10 KI10 ARITHMETIC RELIABILITY TEST, VER 0,3	MACRO %51(414) 14:29  9-JUN-76 PAGE 23
KI10A2	MAC	 9-JUN-76 13:56		TIME PULSE SUBROUTINES	-STORE-                                                *** SEQ 0270

 10187	042141	332 00 0 00 047047 	ST1D:	SKIPE	MUUOF1
 10188	042142	660 00 0 00 010000 		TRO	F,MUOF2C
 10189	042143	332 00 0 00 047050 		SKIPE	MUUOF2
 10190	042144	660 00 0 00 001000 		TRO	F,MUOF1S
 10191	042145	200 02 1 00 047017 		MOVE	T1,@INSTPT
 10192	042146	602 02 0 00 000200 		TRNE	T1,SAC2
 10193	042147	260 17 0 00 043545 		PUSHJ	P,FMAC2E
 10194	042150	640 02 0 00 000001 		TRC	T1,FCE
 10195	042151	606 02 0 00 000005 		TRNN	T1,FCCACR+FCE
 10196	042152	606 02 0 00 000002 		TRNN	T1,PSE
 10197	042153	602 02 0 00 000030 		TRNE	T1,SCE+STORE
 10198	042154	334 00 0 00 000000 		SKIPA
 10199	042155	254 00 0 00 042061 		JRST	ST1A
 10200
 10201	042156	336 00 0 00 047115 	ST1B:	SKIPN	STINAC
 10202	042157	374 00 0 00 046751 		SOSA	CLINSET#
 10203	042160	562 14 0 00 046771 		HRROM	MA,FMADMA#
 10204	042161	661 03 0 00 000002 		TLO	T2,MBAREN
 10205	042162	265 05 0 00 030065 		JSP	S,CPOPJ
 10206
 10207	042163	200 02 1 00 047017 	ST2:	MOVE	T1,@INSTPT
 10208	042164	476 00 0 00 047026 		SETOM	LONGSET
 10209	042165	201 05 0 00 042223 		MOVEI	S,ST4
 10210	042166	332 04 0 00 047115 		SKIPE	T3,STINAC#
 10211	042167	476 00 0 00 046775 		SETOM	FMWRSET#
 10212	042170	402 00 0 00 047115 		SETZM	STINAC#
 10213	042171	202 04 0 00 046774 		MOVEM	T3,FMSINAC
 10214	042172	326 04 0 00 042202 		JUMPN	T3,ST2A
 10215	042173	200 04 0 00 047145 		MOVE	T3,TIME
 10216	042174	271 04 0 00 000144 		ADDI	T3,^D100
 10217	042175	315 04 0 00 047042 		CAMGE	T3,MEMWRWT#
 10218	042176	200 04 0 00 047042 		MOVE	T3,MEMWRWT
 10219	042177	202 04 0 00 047145 		MOVEM	T3,TIME
 10220	042200	260 17 0 00 045454 		PUSHJ	P,WRRST
 10221	042201	200 02 1 00 047017 		MOVE	T1,@INSTPT
 10222	042202	332 00 0 00 046741 	ST2A:	SKIPE	BLTF1
 10223	042203	254 00 0 00 044012 		JRST	BLTT1X
 10224	042204	332 00 0 00 047062 		SKIPE	PFF1
 10225	042205	254 00 0 00 042264 		JRST	PFX1
 10226	042206	554 04 0 00 000016 		HLRZ	T3,IR
 10227	042207	420 04 0 00 046746 		ANDCM	T3,BYF6
 10228	042210	640 04 0 00 124000 		TRC	T3,(DMOVEM)
 10229	042211	606 04 0 00 776000 		TRNN	T3,776000
 10230	042212	254 00 0 00 042245 		JRST	ST2B
 10231	042213	332 00 0 00 047050 		SKIPE	MUUOF2
 10232	042214	254 00 0 00 042257 		JRST	ST2C
 10233	042215	332 00 0 00 047047 		SKIPE	MUUOF1
 10234	042216	254 00 0 00 041644 		JRST	FT2+1
 10235	042217	606 02 0 00 000200 		TRNN	T1,SAC2
 10236	042220	254 00 0 00 042234 		JRST	ST4A
 10237	042221	265 05 0 00 030065 		JSP	S,CPOPJ
 10238
DBKDA	DECSYSTEM10 KI10 ARITHMETIC RELIABILITY TEST, VER 0,3	MACRO %51(414) 14:29  9-JUN-76 PAGE 24
KI10A2	MAC	 9-JUN-76 13:56		TIME PULSE SUBROUTINES	-STORE-                                                *** SEQ 0271

 10239	042222				ST3:
 10240	042222	265 05 0 00 030065 	ST3A:	JSP	S,CPOPJ
 10241
 10242	042223	476 00 0 00 046733 	ST4:	SETOM	ARMQEN
 10243	042224	476 00 0 00 046775 		SETOM	FMWRSET
 10244	042225	554 02 0 00 000016 		HLRZ	T1,IR
 10245	042226	405 02 0 00 777000 		ANDI	T1,777000
 10246	042227	306 02 0 00 121000 		CAIN	T1,(DMOVN)
 10247	042230	621 07 0 00 400000 		TLZ	MQ,(1B0)
 10248	042231	640 02 0 00 110000 		TRC	T1,110000	;DFAD
 10249	042232	606 02 0 00 774000 		TRNN	T1,774000
 10250	042233	621 07 0 00 400000 		TLZ	MQ,(1B0)
 10251	042234	265 05 0 00 030065 	ST4A:	JSP	S,CPOPJ
 10252
 10253	042235	554 04 0 00 000016 	ST5:	HLRZ	T3,IR
 10254	042236	640 04 0 00 124000 		TRC	T3,(DMOVEM)
 10255	042237	606 04 0 00 776000 		TRNN	T3,776000
 10256	042240	402 00 0 00 046746 		SETZM	BYF6
 10257	042241	336 00 0 00 046746 		SKIPN	BYF6
 10258	042242	621 13 0 00 020000 		TLZ	PC,BIS
 10259	042243	201 05 0 00 043752 	ST5A:	MOVEI	S,INDONE
 10260	042244	263 17 0 00 000000 		POPJ	P,
 10261
 10262	042245	661 01 0 00 000600 	ST2B:	TLO	T,ADBRPL
 10263	042246	660 01 0 00 400000 		TRO	T,ABADEN
 10264	042247	201 04 0 00 037341 		MOVEI	T3,DMVPT2
 10265	042250	603 16 0 00 001000 		TLNE	IR,(1B8)
 10266	042251	201 04 0 00 037344 		MOVEI	T3,DMVPT2+3
 10267	042252	202 04 0 00 047017 		MOVEM	T3,INSTPT
 10268	042253	476 00 0 00 046746 		SETOM	BYF6
 10269	042254	661 13 0 00 020000 		TLO	PC,BIS
 10270	042255	201 05 0 00 041734 		MOVEI	S,FT6
 10271	042256	263 17 0 00 000000 		POPJ	P,
DBKDA	DECSYSTEM10 KI10 ARITHMETIC RELIABILITY TEST, VER 0,3	MACRO %51(414) 14:29  9-JUN-76 PAGE 25
KI10A2	MAC	 9-JUN-76 13:56		TIME PULSE SUBROUTINES	-STORE-                                                *** SEQ 0272

 10272						IFNDEF	SIMASB,<
 10273					ST2C:	MOVEI	T3,MUUO2
 10274						MOVEM	T3,INSTPT
 10275						MOVEI	S,FT6
 10276						POPJ	P,	>
 10277
 10278						IFDEF	SIMASB,<
 10279	042257	264 00 0 00 044005 	ST2C:	JSR	ERR	>
 10280
 10281	042260	135 02 0 00 046331 	ST1C:	LDB	T1,[POINT 2,IR,11]
 10282	042261	306 02 0 00 000003 		CAIN	T1,3		;CONSX
 10283	042262	661 01 0 00 000004 		TLO	T,INFTST
 10284	042263	254 00 0 00 042141 		JRST	ST1D
 10285
 10286	042264	402 00 0 00 046745 	PFX1:	SETZM	BYF5
 10287	042265	402 00 0 00 047025 		SETZM	IRLTCH
 10288	042266	200 04 0 00 046312 		MOVE	T3,[POINT 4,MB,17]
 10289	042267	202 04 0 00 046772 		MOVEM	T3,FMADREN
 10290	042270	201 05 0 00 041617 		MOVEI	S,IT2
 10291	042271	263 17 0 00 000000 		POPJ	P,
DBKDA	DECSYSTEM10 KI10 ARITHMETIC RELIABILITY TEST, VER 0,3	MACRO %51(414) 14:29  9-JUN-76 PAGE 26
KI10A2	MAC	 9-JUN-76 13:56		TIME PULSE SUBROUTINES	-DIVIDE SUBRTN-                                        *** SEQ 0273

 10292					SUBTTL	TIME PULSE SUBROUTINES	-DIVIDE SUBRTN-
 10293
 10294	042272	402 00 0 00 047027 	DST1:	SETZM	MAGIC		;FOR SIMULATOR
 10295	042273	660 01 0 00 000204 		TRO	T,ARSHLT+MQSHLT
 10296	042274	476 00 0 00 046727 		SETOM	ARGOLT
 10297	042275	321 11 0 00 043625 		JUMPL	AD,SCTC5
 10298	042276	660 00 0 00 000010 		TRO	F,DSF2CLR
 10299	042277	265 05 0 00 030065 		JSP	S,CPOPJ
 10300
 10301	042300	661 13 0 00 400240 	DST2:	TLO	PC,AROV!TN1!DCK
 10302	042301	204 02 0 00 000016 		MOVS	T1,IR
 10303	042302	405 02 0 00 770000 		ANDI	T1,770000
 10304	042303	306 02 0 00 170000 		CAIN	T1,170000
 10305	042304	661 13 0 00 040000 		TLO	PC,FOV
 10306	042305	200 02 1 00 047017 		MOVE	T1,@INSTPT
 10307	042306	602 02 0 00 000010 		TRNE	T1,SCE
 10308	042307	260 17 0 00 045472 		PUSHJ	P,INFT3
 10309	042310	254 00 0 00 042243 		JRST	ST5A
 10310
 10311	042311	660 01 0 00 000004 	DST3:	TRO	T,MQSHLT
 10312	042312	660 00 0 00 000010 		TRO	F,DSF2CLR
 10313	042313	607 16 0 00 200000 		TLNN	IR,(1B1)
 10314	042314	254 00 0 00 042320 		JRST	DST3A
 10315	042315	200 02 1 00 047017 		MOVE	T1,@INSTPT
 10316	042316	602 02 0 00 000010 		TRNE	T1,SCE
 10317	042317	260 17 0 00 045541 		PUSHJ	P,MEMWSS
 10318	042320	660 01 0 00 006000 	DST3A:	TRO	T,ARADEN
 10319	042321	606 00 0 00 000020 		TRNN	F,FLAG1
 10320	042322	660 03 0 00 000303 		TRO	T2,SAZERO+SAPL1+SAADD
 10321	042323	660 03 0 00 020040 		TRO	T2,SCSAEN+SASCMI
 10322	042324	265 05 0 00 030065 		JSP	S,CPOPJ
 10323
DBKDA	DECSYSTEM10 KI10 ARITHMETIC RELIABILITY TEST, VER 0,3	MACRO %51(414) 14:29  9-JUN-76 PAGE 27
KI10A2	MAC	 9-JUN-76 13:56		TIME PULSE SUBROUTINES	-DIVIDE SUBRTN-                                        *** SEQ 0274

 10324	042325	606 07 0 00 000001 	DST4:	TRNN	MQ,1
 10325	042326	660 01 0 00 006000 		TRO	T,ARADEN
 10326	042327	602 00 0 00 000100 		TRNE	F,FLAG3
 10327	042330	665 01 0 00 060110 		TLOA	T,ADARMI+ADCR36+ADADD+ADMAGIC
 10328	042331	661 01 0 00 000060 		TLO	T,ADARPL
 10329	042332	660 03 0 00 020000 		TRO	T2,SCSAEN
 10330	042333	265 05 0 00 030065 		JSP	S,CPOPJ
 10331
 10332	042334	476 00 0 00 046733 	DST5:	SETOM	ARMQEN
 10333	042335	660 01 0 00 000010 		TRO	T,MQADEN
 10334	042336	200 02 0 00 000010 		MOVE	T1,BR
 10335	042337	602 00 0 00 000100 		TRNE	F,FLAG3
 10336	042340	450 02 0 00 000000 		SETCA	T1,
 10337	042341	321 02 0 00 042361 		JUMPL	T1,DST5A
 10338	042342	603 16 0 00 204000 		TLNE	IR,204000
 10339	042343	254 00 0 00 042351 		JRST	DST5D
 10340	042344	201 05 0 00 042511 	DST5E:	MOVEI	S,NRT1
 10341	042345	476 00 0 00 047026 		SETOM	LONGSET
 10342	042346	660 03 0 00 000020 		TRO	T2,SASCPL
 10343	042347	661 01 0 00 000060 		TLO	T,ADARPL
 10344	042350	263 17 0 00 000000 		POPJ	P,
 10345
 10346	042351	607 16 0 00 200000 	DST5D:	TLNN	IR,(1B1)
 10347	042352	254 00 0 00 042360 		JRST	DST5F
 10348	042353	201 05 0 00 042066 	DST5B:	MOVEI	S,ST1
 10349	042354	200 02 1 00 047017 	DST5C:	MOVE	T1,@INSTPT
 10350	042355	606 02 0 00 000040 		TRNN	T1,SACINH
 10351	042356	476 00 0 00 046775 		SETOM	FMWRSET
 10352	042357	263 17 0 00 000000 		POPJ	P,
 10353
 10354	042360	665 01 0 00 060070 	DST5F:	TLOA	T,ADARPL+ADCR36+ADMAGIC+ADADD
 10355	042361	661 01 0 00 060110 	DST5A:	TLO	T,ADARMI+ADCR36+ADADD+ADMAGIC
 10356	042362	265 05 0 00 030065 		JSP	S,CPOPJ
 10357
 10358	042363	660 01 0 00 006000 	DST6:	TRO	T,ARADEN
 10359	042364	603 16 0 00 200000 		TLNE	IR,(1B1)
 10360	042365	254 00 0 00 042353 		JRST	DST5B
 10361	042366	603 16 0 00 004000 		TLNE	IR,(1B6)
 10362	042367	640 01 0 00 006120 		TRC	T,ARADEN+ARSHRT+MQCLR
 10363	042370	254 00 0 00 042344 		JRST	DST5E
 10364
 10365	042371	402 00 0 00 046777 	FXUSET:	SETZM	FXUH
 10366	042372	335 00 0 00 047074 		SKIPGE	SA
 10367	042373	476 00 0 00 046777 		SETOM	FXUH
 10368	042374	263 17 0 00 000000 		POPJ	P,
DBKDA	DECSYSTEM10 KI10 ARITHMETIC RELIABILITY TEST, VER 0,3	MACRO %51(414) 14:29  9-JUN-76 PAGE 28
KI10A2	MAC	 9-JUN-76 13:56		TIME PULSE SUBROUTINES	-FLOATING DIVIDE-                                      *** SEQ 0275

 10369					SUBTTL	TIME PULSE SUBROUTINES	-FLOATING DIVIDE-
 10370
 10371	042375	607 06 0 00 400000 	FDT0:	TLNN	AR,(1B0)
 10372	042376	476 00 0 00 046735 		SETOM	ARSMR
 10373	042377	603 06 0 00 400000 		TLNE	AR,(1B0)
 10374	042400	476 00 0 00 046730 		SETOM	ARI08
 10375	042401	660 01 0 00 000400 		TRO	T,ARCLR
 10376	042402	661 01 0 00 000060 		TLO	T,ADARPL
 10377	042403	660 03 0 00 400000 		TRO	T2,FESAEN
 10378	042404	554 02 0 00 000016 		HLRZ	T1,IR
 10379	042405	640 02 0 00 171000 		TRC	T1,(FDVL)
 10380	042406	602 02 0 00 777000 		TRNE	T1,777000
 10381	042407	254 00 0 00 042420 		JRST	FDT1A
 10382	042410	660 01 0 00 000010 		TRO	T,MQADEN
 10383	042411	602 00 0 00 000100 		TRNE	F,FLAG3
 10384	042412	616 11 0 00 046133 		TDNN	AD,[777777777]
 10385	042413	254 00 0 00 042415 		JRST	.+2
 10386	042414	661 01 0 00 040000 		TLO	T,ADADD
 10387	042415	265 05 0 00 030065 		JSP	S,CPOPJ
 10388
 10389	042416	661 01 0 00 000060 	FDT1:	TLO	T,ADARPL
 10390	042417	660 01 0 00 006004 		TRO	T,ARADEN+MQSHLT
 10391	042420	660 00 0 00 000004 	FDT1A:	TRO	F,DSF2SET
 10392	042421	265 05 0 00 030065 		JSP	S,CPOPJ
 10393
 10394	042422	660 01 0 00 000102 	FDT2:	TRO	T,ARSHRT+MQSHRT
 10395	042423	603 16 0 00 004000 		TLNE	IR,4000
 10396	042424	664 03 0 00 000011 		TROA	T2,SAMI33
 10397	042425	660 03 0 00 000012 		TRO	T2,SAMI32
 10398	042426	265 05 0 00 030065 		JSP	S,CPOPJ
 10399
 10400	042427	660 03 0 00 020000 	FDT3:	TRO	T2,SCSAEN
 10401	042430	660 01 0 00 000204 		TRO	T,MQSHLT+ARSHLT
 10402	042431	476 00 0 00 047026 		SETOM	LONGSET
 10403	042432	201 05 0 00 042437 		MOVEI	S,FDT4
 10404	042433	321 11 0 00 030065 		JUMPL	AD,CPOPJ
 10405	042434	201 05 0 00 042300 		MOVEI	S,DST2
 10406	042435	660 00 0 00 000010 		TRO	F,DSF2CLR
 10407	042436	263 17 0 00 000000 		POPJ	P,
 10408
 10409	042437	660 01 0 00 000204 	FDT4:	TRO	T,MQSHLT+ARSHLT
 10410	042440	201 05 0 00 043630 		MOVEI	S,SCT2
 10411	042441	260 17 0 00 041763 		PUSHJ	P,FMACEN
 10412	042442	476 00 0 00 046727 		SETOM	ARGOLT
 10413	042443	321 11 0 00 030065 		JUMPL	AD,CPOPJ
 10414	042444	660 03 0 00 200000 		TRO	T2,SCSCP1
 10415	042445	660 00 0 00 000020 		TRO	F,FLAG1
 10416	042446	263 17 0 00 000000 		POPJ	P,
DBKDA	DECSYSTEM10 KI10 ARITHMETIC RELIABILITY TEST, VER 0,3	MACRO %51(414) 14:29  9-JUN-76 PAGE 29
KI10A2	MAC	 9-JUN-76 13:56		TIME PULSE SUBROUTINES	-FLOATING DIVIDE-                                      *** SEQ 0276

 10417	042447	660 01 0 00 007000 	FDT5:	TRO	T,BRAREN+ARADEN
 10418	042450	476 00 0 00 046775 		SETOM	FMWRSET
 10419	042451	660 03 0 00 022120 		TRO	T2,SAAREX+SCSAEN+SASCPL+SAADD
 10420	042452	602 00 0 00 000020 		TRNE	F,FLAG1
 10421	042453	660 03 0 00 000200 		TRO	T2,SAPL1
 10422	042454	265 05 0 00 030065 		JSP	S,CPOPJ
 10423
 10424	042455	476 00 0 00 046733 	FDT6:	SETOM	ARMQEN
 10425	042456	260 17 0 00 043545 		PUSHJ	P,FMAC2E
 10426	042457	402 00 0 00 047076 		SETZM	SACBRFF
 10427	042460	661 01 0 00 000060 		TLO	T,ADARPL
 10428	042461	476 00 0 00 047026 		SETOM	LONGSET
 10429	042462	660 03 0 00 000040 		TRO	T2,SASCMI
 10430	042463	606 00 0 00 000100 		TRNN	F,FLAG3
 10431	042464	640 03 0 00 000060 		TRC	T2,SASCPL+SASCMI
 10432	042465	265 05 0 00 040070 		JSP	S,FIX1A
 10433
 10434	042466	476 00 0 00 046775 	FDT7:	SETOM	FMWRSET
 10435	042467	201 05 0 00 042235 		MOVEI	S,ST5
 10436	042470	201 02 0 15 000200 		MOVEI	T1,200(SC)
 10437	042471	606 02 0 00 000400 		TRNN	T1,400
 10438	042472	336 00 0 00 000011 		SKIPN	AD
 10439	042473	664 01 0 00 000400 		TROA	T,ARCLR
 10440	042474	476 00 0 00 046726 		SETOM	ARESAEN
 10441	042475	263 17 0 00 000000 		POPJ	P,
 10442
 10443	042476	660 03 0 00 020000 	FMT1:	TRO	T2,SCSAEN
 10444	042477	670 01 0 00 046332 		TDO	T,[XWD ADARPL,ARCLR+MQADEN]
 10445	042500	201 05 0 00 043630 		MOVEI	S,SCT2
 10446	042501	402 00 0 00 046727 		SETZM	ARGOLT
 10447	042502	254 00 0 00 044637 		JRST	MPYFCN
 10448
 10449	042503	660 03 0 00 000323 	FMT2:	TRO	T2,SAPL1+SAADD+SASCPL+SAZERO
 10450	042504	331 00 1 00 046773 		SKIPL	@FMREG
 10451	042505	640 03 0 00 000060 		TRC	T2,SASCPL+SASCMI
 10452	042506	660 01 0 00 000204 		TRO	T,ARSHLT+MQSHLT
 10453	042507	661 01 0 00 000060 	FMT2A:	TLO	T,ADARPL
 10454	042510	265 05 0 00 040070 		JSP	S,FIX1A
 10455
DBKDA	DECSYSTEM10 KI10 ARITHMETIC RELIABILITY TEST, VER 0,3	MACRO %51(414) 14:29  9-JUN-76 PAGE 30
KI10A2	MAC	 9-JUN-76 13:56		TIME PULSE SUBROUTINES	-NORMALIZE-                                            *** SEQ 0277

 10456					SUBTTL	TIME PULSE SUBROUTINES	-NORMALIZE-
 10457
 10458					XLIST
 10459					LIST
 10460
 10461	042511	660 03 0 00 020000 	NRT1:	TRO	T2,SCSAEN		;SC SCAD EN
 10462	042512	661 01 0 00 000060 		TLO	T,ADARPL		;AD AR + EN
 10463	042513	260 17 0 00 042371 		PUSHJ	P,FXUSET		;SCAD-1(1):AR FXU HOLD SET
 10464
 10465	042514	402 00 0 00 047055 		SETZM	NRRND#
 10466	042515	402 00 0 00 047054 		SETZM	NRPOS#
 10467	042516	402 00 0 00 047053 		SETZM	NRNEG#
 10468
 10469	042517	607 16 0 00 004000 		TLNN	IR,(1B6)
 10470	042520	254 00 0 00 042523 		JRST	.+3
 10471	042521	603 07 0 00 001000 		TLNE	MQ,(1B8)
 10472	042522	476 00 0 00 047055 		SETOM	NRRND		;IR06(1)^MQ08(1):NR RND
 10473
 10474	042523	321 06 0 00 042535 		JUMPL	AR,NRT1X	;JUMP IF AR00(1)
 10475	042524	603 06 0 00 000400 		TLNE	AR,(1B9)
 10476	042525	476 00 0 00 047054 		SETOM	NRPOS		;AR00(0)^AR09(1):NR POS
 10477
 10478	042526	200 04 0 00 000016 		MOVE	T3,IR
 10479	042527	641 04 0 00 130000 		TLC	T3,(UFA)
 10480	042530	643 04 0 00 777000 		TLCE	T3,777000
 10481	042531	254 00 0 00 042535 		JRST	NRT1X		;NOT UFA
 10482	042532	326 11 0 00 042534 		JUMPN	AD,.+2		;JUMP IF 'AD=0
 10483	042533	612 07 0 00 046333 		TDNE	MQ,[1B7-1]
 10484	042534	476 00 0 00 047054 		SETOM	NRPOS		;AR00(0)^IR UFA^('AD=0 OR 'MQ08-35=0):NR POS
 10485
 10486	042535	607 06 0 00 000400 	NRT1X:	TLNN	AR,(1B9)
 10487	042536	476 00 0 00 047053 		SETOM	NRNEG		;AR09(0):NR NEG
 10488	042537	200 04 0 00 000016 		MOVE	T3,IR
 10489	042540	641 04 0 00 130000 		TLC	T3,(UFA)
 10490	042541	647 04 0 00 777000 		TLCN	T3,777000
 10491	042542	476 00 0 00 047053 		SETOM	NRNEG		;IR UFA:NR NEG
DBKDA	DECSYSTEM10 KI10 ARITHMETIC RELIABILITY TEST, VER 0,3	MACRO %51(414) 14:29  9-JUN-76 PAGE 32
KI10A2	MAC	 9-JUN-76 13:56		TIME PULSE SUBROUTINES	-NORMALIZE-                                            *** SEQ 0278

 10492					;*NRT1 NORMAL ROUND CHECK
 10493
 10494	042543	336 00 0 00 047055 	NRT1Y:	SKIPN	NRRND
 10495	042544	254 00 0 00 042557 		JRST	NRT1Z		;NOT ROUND
 10496	042545	321 06 0 00 042550 		JUMPL	AR,.+3
 10497	042546	603 06 0 00 000400 		TLNE	AR,(1B9)
 10498	042547	254 00 0 00 042555 		JRST	NRT1NR		;IR06(1)^MQ08(1)^AR00(0)^AR09(1):NRT1 NORMAL RND
 10499
 10500	042550	325 06 0 00 042557 		JUMPGE	AR,NRT1Z
 10501	042551	603 06 0 00 000400 		TLNE	AR,(1B9)	;HERE IF AR00(1)
 10502	042552	254 00 0 00 042557 		JRST	NRT1Z
 10503	042553	616 07 0 00 046133 		TDNN	MQ,[1B8-1]	;HERE IF AR09(0)
 10504	042554	254 00 0 00 042557 		JRST	NRT1Z
 10505									;IR06(1)^MQ08(1)^AR00(1)^AR09(0)^'MQ09-35=0
 10506	042555	661 01 0 00 060010 	NRT1NR:	TLO	T,ADMAGIC+ADCR36+ADADD
 10507	042556	476 00 0 00 047026 		SETOM	LONGSET
 10508
 10509					;*NR ALL ZEROS CHECK
 10510
 10511	042557	641 16 0 00 070000 	NRT1Z:	TLC	IR,070000
 10512	042560	647 16 0 00 070000 		TLCN	IR,070000
 10513	042561	322 11 0 00 042610 		JUMPE	AD,NRAZRO	;AD00-17=0^AD09-35=0^IR FDVXX:NR ALL ZERO
 10514	042562	616 07 0 00 046333 		TDNN	MQ,[1B7-1]
 10515	042563	322 11 0 00 042610 		JUMPE	AD,NRAZRO	;AD00-17=0^AD09-35=0^MQ08-35=0:NR ALL ZERO
 10516
 10517	042564	332 00 0 00 047054 		SKIPE	NRPOS		;NR POS^NR RND:NRT3 COND
 10518	042565	336 00 0 00 047055 		SKIPN	NRRND
 10519	042566	254 00 0 00 042572 		JRST	NRT1ZX
 10520
 10521	042567	201 05 0 00 042677 	NRT13C:	MOVEI	S,NRT3		;NRT3 CONDITION
 10522	042570	660 03 0 00 000120 		TRO	T2,SASCPL+SAADD
 10523	042571	263 17 0 00 000000 		POPJ	P,
DBKDA	DECSYSTEM10 KI10 ARITHMETIC RELIABILITY TEST, VER 0,3	MACRO %51(414) 14:29  9-JUN-76 PAGE 33
KI10A2	MAC	 9-JUN-76 13:56		TIME PULSE SUBROUTINES	-NORMALIZE-                                            *** SEQ 0279

 10524
 10525	042572	336 00 0 00 047053 	NRT1ZX:	SKIPN	NRNEG
 10526	042573	254 00 0 00 042576 		JRST	.+3
 10527	042574	603 06 0 00 001000 		TLNE	AR,(1B8)
 10528	042575	254 00 0 00 042567 		JRST	NRT13C		;AR08(1)^NR NEG:NRT3 COND
 10529
 10530	042576	336 00 0 00 047054 		SKIPN	NRPOS		;NR POS^'NR RND:NRT4 COND
 10531	042577	254 00 0 00 042606 		JRST	NRT12C
 10532	042600	332 00 0 00 047055 		SKIPE	NRRND
 10533	042601	254 00 0 00 042606 		JRST	NRT12C
 10534
 10535	042602	201 05 0 00 042716 	NRT14C:	MOVEI	S,NRT4		;NRT4 CONDITION
 10536	042603	660 03 0 00 000343 		TRO	T2,SASCMI+SAPL1+SAZERO+SAADD
 10537	042604	476 00 0 00 047026 		SETOM	LONGSET
 10538	042605	263 17 0 00 000000 		POPJ	P,
 10539
 10540	042606	201 05 0 00 042616 	NRT12C:	MOVEI	S,NRT2		;NRT2, NOTHING ELSE - MUST BE THIS
 10541	042607	263 17 0 00 000000 		POPJ	P,
 10542
 10543	042610	660 01 0 00 000020 	NRAZRO:	TRO	T,MQCLR		;NR ALL ZEROS
 10544	042611	200 04 1 00 047017 		MOVE	T3,@INSTPT
 10545	042612	606 04 0 00 000040 		TRNN	T3,SACINH
 10546	042613	476 00 0 00 046775 	NRT1I:	SETOM	FMWRSET		;'SAC INH:FM WR EN
 10547	042614	201 05 0 00 042066 		MOVEI	S,ST1
 10548	042615	263 17 0 00 000000 		POPJ	P,
DBKDA	DECSYSTEM10 KI10 ARITHMETIC RELIABILITY TEST, VER 0,3	MACRO %51(414) 14:29  9-JUN-76 PAGE 34
KI10A2	MAC	 9-JUN-76 13:56		TIME PULSE SUBROUTINES	-NORMALIZE-                                            *** SEQ 0280

 10549
 10550	042616	670 01 0 00 046334 	NRT2:	TDO	T,[ADARPL,,ARSHLT]
 10551	042617	660 03 0 00 200000 		TRO	T2,SCSCP1
 10552	042620	554 04 0 00 000016 		HLRZ	T3,IR
 10553	042621	640 04 0 00 170000 		TRC	T3,(FDV)
 10554	042622	602 04 0 00 770000 		TRNE	T3,770000
 10555	042623	660 01 0 00 000004 		TRO	T,MQSHLT	;'IR FDVXX:MQ SH LT
 10556
 10557	042624	402 00 0 00 047055 		SETZM	NRRND
 10558	042625	402 00 0 00 047054 		SETZM	NRPOS
 10559	042626	402 00 0 00 047053 		SETZM	NRNEG
 10560
 10561	042627	607 16 0 00 004000 		TLNN	IR,(1B6)
 10562	042630	254 00 0 00 042633 		JRST	.+3
 10563	042631	603 07 0 00 000400 		TLNE	MQ,(1B9)
 10564	042632	476 00 0 00 047055 		SETOM	NRRND		;IR06(1)^MQ09(1):NR RND
 10565
 10566	042633	607 06 0 00 000200 		TLNN	AR,(1B10)
 10567	042634	476 00 0 00 047053 		SETOM	NRNEG		;AR10(0):NR NEG
 10568
 10569	042635	321 06 0 00 042640 		JUMPL	AR,.+3
 10570	042636	603 06 0 00 000200 		TLNE	AR,(1B10)
 10571	042637	476 00 0 00 047054 		SETOM	NRPOS		;AR00(0)^AR10(1):NR POS
 10572
 10573	042640	336 00 0 00 047055 		SKIPN	NRRND
 10574	042641	254 00 0 00 042653 		JRST	NRT2X		;NOT ROUND
 10575	042642	332 00 0 00 047054 		SKIPE	NRPOS
 10576	042643	254 00 0 00 042651 		JRST	NRT2NR		;NR RND^NR POS:NRT2 NORMAL RND
 10577	042644	325 06 0 00 042653 		JUMPGE	AR,NRT2X
 10578	042645	603 06 0 00 000200 		TLNE	AR,(1B10)	;HERE IF AR00(1)
 10579	042646	254 00 0 00 042653 		JRST	NRT2X
 10580	042647	616 07 0 00 046335 		TDNN	MQ,[1B9-1]	;HERE IF AR10(0)
 10581	042650	254 00 0 00 042653 		JRST	NRT2X
 10582									;NR RND^AR00(1)^AR10(0)^'MQ10-35=0:NRT2 NORM RND
 10583	042651	661 01 0 00 060010 	NRT2NR:	TLO	T,ADMAGIC+ADCR36+ADADD
 10584	042652	476 00 0 00 047026 		SETOM	LONGSET
DBKDA	DECSYSTEM10 KI10 ARITHMETIC RELIABILITY TEST, VER 0,3	MACRO %51(414) 14:29  9-JUN-76 PAGE 35
KI10A2	MAC	 9-JUN-76 13:56		TIME PULSE SUBROUTINES	-NORMALIZE-                                            *** SEQ 0281

 10585
 10586	042653	336 00 0 00 047054 	NRT2X:	SKIPN	NRPOS		;NR POS^'NR RND:NRT4 CONDITION
 10587	042654	254 00 0 00 042660 		JRST	NRT2Y
 10588	042655	332 00 0 00 047055 		SKIPE	NRRND
 10589	042656	254 00 0 00 042660 		JRST	NRT2Y
 10590
 10591	042657	254 00 0 00 042602 	NRT24C:	JRST	NRT14C		;NRT4 CONDITION
 10592
 10593	042660	325 06 0 00 042663 	NRT2Y:	JUMPGE	AR,.+3
 10594	042661	603 06 0 00 000200 		TLNE	AR,(1B10)	;HERE IF AR00(1)
 10595	042662	254 00 0 00 042606 		JRST	NRT12C		;AR00(1)^AR10(1):NRT2
 10596
 10597	042663	321 06 0 00 042666 		JUMPL	AR,.+3
 10598	042664	607 06 0 00 000200 		TLNN	AR,(1B10)
 10599	042665	254 00 0 00 042606 		JRST	NRT12C		;AR00(0)^AR10(0):NRT2
 10600
 10601	042666	336 00 0 00 047054 	NRT2Z:	SKIPN	NRPOS
 10602	042667	254 00 0 00 042672 		JRST	.+3
 10603	042670	332 00 0 00 047055 		SKIPE	NRRND
 10604	042671	254 00 0 00 042567 		JRST	NRT13C		;NR POS^NR RND:NRT3 CONDITION
 10605
 10606	042672	336 00 0 00 047053 		SKIPN	NRNEG
 10607	042673	254 00 0 00 042676 		JRST	.+3
 10608	042674	603 06 0 00 001000 		TLNE	AR,(1B8)
 10609	042675	254 00 0 00 042567 		JRST	NRT13C		;AR08(1)^NR NEG:NRT3 CONDITION
 10610
 10611	042676	264 00 0 00 044005 	NRT2XX:	JSR	ERR		;SHOULDN'T GET HERE
DBKDA	DECSYSTEM10 KI10 ARITHMETIC RELIABILITY TEST, VER 0,3	MACRO %51(414) 14:29  9-JUN-76 PAGE 36
KI10A2	MAC	 9-JUN-76 13:56		TIME PULSE SUBROUTINES	-NORMALIZE-                                            *** SEQ 0282

 10612	042677	476 00 0 00 047026 	NRT3:	SETOM	LONGSET
 10613	042700	660 03 0 00 000100 		TRO	T2,SAADD
 10614	042701	335 00 0 00 000006 		SKIPGE	AR
 10615	042702	664 03 0 00 000020 		TROA	T2,SASCPL
 10616	042703	660 03 0 00 000243 		TRO	T2,SASCMI+SAPL1+SAZERO
 10617	042704	612 11 0 00 046133 		TDNE	AD,[1B8-1]
 10618	042705	254 00 0 00 042714 		JRST	NRT3A
 10619	042706	660 01 0 00 000100 		TRO	T,ARSHRT
 10620	042707	554 04 0 00 000016 		HLRZ	T3,IR
 10621	042710	640 04 0 00 170000 		TRC	T3,(FDV)
 10622	042711	602 04 0 00 770000 		TRNE	T3,770000
 10623	042712	660 01 0 00 000002 		TRO	T,MQSHRT
 10624	042713	664 03 0 00 020000 		TROA	T2,SCSAEN
 10625
 10626	042714	660 01 0 00 006000 	NRT3A:	TRO	T,ARADEN
 10627	042715	265 05 0 00 030065 		JSP	S,CPOPJ
 10628
DBKDA	DECSYSTEM10 KI10 ARITHMETIC RELIABILITY TEST, VER 0,3	MACRO %51(414) 14:29  9-JUN-76 PAGE 37
KI10A2	MAC	 9-JUN-76 13:56		TIME PULSE SUBROUTINES	-NORMALIZE-                                            *** SEQ 0283

 10629	042716	660 03 0 00 000011 	NRT4:	TRO	T2,SAMI33
 10630	042717	476 00 0 00 046726 		SETOM	ARESAEN
 10631	042720	200 02 1 00 047017 		MOVE	T1,@INSTPT
 10632	042721	602 02 0 00 000010 		TRNE	T1,SCE
 10633	042722	260 17 0 00 045541 		PUSHJ	P,MEMWSS
 10634	042723	200 02 0 00 047074 		MOVE	T1,SA
 10635	042724	271 02 0 00 000200 		ADDI	T1,200
 10636	042725	606 02 0 00 000400 		TRNN	T1,400
 10637	042726	254 00 0 00 042732 		JRST	NRT4A
 10638	042727	336 00 0 00 046777 		SKIPN	FXUH#
 10639	042730	665 13 0 00 440300 		TLOA	PC,AROV!FOV!TN1!FXU
 10640	042731	661 13 0 00 440200 	NRT4D:	TLO	PC,AROV!FOV!TN1
 10641	042732	554 04 0 00 000016 	NRT4A:	HLRZ	T3,IR
 10642	042733	640 04 0 00 171000 		TRC	T3,(FDVL)
 10643	042734	602 04 0 00 007000 		TRNE	T3,7000
 10644	042735	201 05 0 00 042066 		MOVEI	S,ST1
 10645	042736	606 04 0 00 777000 		TRNN	T3,777000
 10646	042737	254 00 0 00 042744 		JRST	NRT4B
 10647	042740	660 01 0 00 000002 		TRO	T,MQSHRT
 10648	042741	606 04 0 00 007000 		TRNN	T3,7000
 10649	042742	201 05 0 00 042752 		MOVEI	S,NRT5
 10650	042743	254 00 0 00 042354 		JRST	DST5C
 10651
 10652	042744	201 05 0 00 042447 	NRT4B:	MOVEI	S,FDT5
 10653	042745	476 00 0 00 047076 		SETOM	SACBRFF#
 10654	042746	602 00 0 00 000100 		TRNE	F,FLAG3
 10655	042747	665 01 0 00 010000 		TLOA	T,ADFMMI
 10656	042750	661 01 0 00 006000 		TLO	T,ADFMPL
 10657	042751	263 17 0 00 000000 		POPJ	P,
 10658
 10659	042752	476 00 0 00 046733 	NRT5:	SETOM	ARMQEN
 10660	042753	476 00 0 00 047026 		SETOM	LONGSET
 10661	042754	260 17 0 00 043545 		PUSHJ	P,FMAC2E
 10662	042755	660 03 0 00 000351 		TRO	T2,SASCMI+SAPL1+SAMI33+SAADD
 10663	042756	265 05 0 00 030065 		JSP	S,CPOPJ
 10664
 10665	042757	476 00 0 00 046775 	NRT6:	SETOM	FMWRSET
 10666	042760	201 05 0 00 042235 		MOVEI	S,ST5
 10667	042761	200 02 0 00 047074 		MOVE	T1,SA
 10668	042762	271 02 0 00 000200 		ADDI	T1,200
 10669	042763	606 02 0 00 000400 		TRNN	T1,400
 10670	042764	616 07 0 00 046133 		TDNN	MQ,[1B8-1]
 10671	042765	664 01 0 00 000400 		TROA	T,ARCLR
 10672	042766	476 00 0 00 046726 		SETOM	ARESAEN
 10673	042767	263 17 0 00 000000 		POPJ	P,
DBKDA	DECSYSTEM10 KI10 ARITHMETIC RELIABILITY TEST, VER 0,3	MACRO %51(414) 14:29  9-JUN-76 PAGE 38
KI10A2	MAC	 9-JUN-76 13:56		TIME PULSE SUBROUTINES	-DOUBLE NORMALIZE-                                     *** SEQ 0284

 10674					SUBTTL	TIME PULSE SUBROUTINES	-DOUBLE NORMALIZE-
 10675
 10676	042770	660 01 0 00 000102 	DNT5A:	TRO	T,ARSHRT+MQSHRT
 10677	042771	670 03 0 00 046336 		TDO	T2,[XWD ARXSHR,SASCPL]
 10678	042772	620 00 0 00 000040 		TRZ	F,FLAG2
 10679	042773	265 05 0 00 040070 	DNT5B:	JSP	S,FIX1A
 10680
 10681	042774	402 00 0 00 047027 	DNT1:	SETZM	MAGIC#
 10682	042775	620 00 0 00 000100 		TRZ	F,FLAG3
 10683	042776	660 03 0 00 020000 		TRO	T2,SCSAEN
 10684	042777	661 01 0 00 000060 		TLO	T,ADARPL
 10685	043000	336 04 0 00 046736 		SKIPN	T3,ARX
 10686	043001	603 06 0 00 377000 		TLNE	AR,377000
 10687	043002	254 00 0 00 043007 		JRST	DNT1B
 10688	043003	606 00 0 00 000020 		TRNN	F,FLAG1
 10689	043004	254 00 0 00 043012 		JRST	DNT1A
 10690	043005	660 01 0 00 000400 	DNT1Z:	TRO	T,ARCLR
 10691	043006	254 00 0 00 042610 		JRST	NRAZRO
 10692
 10693	043007	332 00 0 00 046723 	DNT1B:	SKIPE	ADXCR0
 10694	043010	331 00 0 00 047101 		SKIPL	SCADFF
 10695	043011	254 00 0 00 043022 		JRST	DNT1C
 10696	043012	265 05 0 00 030065 	DNT1A:	JSP	S,CPOPJ
 10697
 10698	043013	661 03 0 00 210200 	DNT2:	TLO	T2,ADXBRM+ADXEQV+ARXCLR
 10699	043014	660 01 0 00 001020 		TRO	T,BRAREN+MQCLR
 10700	043015	476 00 0 00 046733 		SETOM	ARMQEN
 10701	043016	265 05 0 00 030065 		JSP	S,CPOPJ
 10702
 10703	043017	670 03 0 00 046337 	DNT3:	TDO	T2,[XWD ARXADX,SASCPL+SAPL43+SAADD]
 10704	043020	660 00 0 00 000020 		TRO	F,FLAG1
 10705	043021	254 00 0 00 043207 		JRST	DFAT1J
 10706
 10707	043022	325 04 0 00 043057 	DNT1C:	JUMPGE	T3,DNT1G
 10708	043023	603 04 0 00 000400 		TLNE	T3,(1B9)
 10709	043024	602 00 0 00 000040 		TRNE	F,FLAG2
 10710	043025	334 00 0 00 000000 		SKIPA
 10711	043026	254 00 0 00 043043 		JRST	DNT1E
 10712	043027	603 07 0 00 200000 		TLNE	MQ,(1B1)
 10713	043030	616 07 0 00 046340 		TDNN	MQ,[1B1-1]
 10714	043031	254 00 0 00 043066 		JRST	DNT1D
 10715	043032	670 01 0 00 046341 	DNT1F:	TDO	T,[XWD ADADD+ADCR36+ADMAGIC,MQCLR]
 10716	043033	670 03 0 00 046342 		TDO	T2,[XWD ADXFMP+ADXFMM+ADXADD,SASCPL+SAADD]
 10717	043034	265 05 0 00 030065 		JSP	S,CPOPJ
 10718
 10719	043035	331 00 0 00 046736 	DNT5:	SKIPL	ARX
 10720	043036	254 00 0 00 042770 		JRST	DNT5A
 10721	043037	670 01 0 00 046343 		TDO	T,[XWD ADARPL,ARADEN]
 10722	043040	670 03 0 00 046344 		TDO	T2,[XWD ARXADX,SAPL1+SAZERO+SAADD+SASCMI]
 10723	043041	201 05 0 00 043077 		MOVEI	S,DNT7
 10724	043042	263 17 0 00 000000 		POPJ	P,
 10725
 10726	043043	265 05 0 00 030065 	DNT1E:	JSP	S,CPOPJ
DBKDA	DECSYSTEM10 KI10 ARITHMETIC RELIABILITY TEST, VER 0,3	MACRO %51(414) 14:29  9-JUN-76 PAGE 39
KI10A2	MAC	 9-JUN-76 13:56		TIME PULSE SUBROUTINES	-DOUBLE NORMALIZE-                                     *** SEQ 0285

 10727	043044	670 03 0 00 046345 	DNT4:	TDO	T2,[XWD ARXSHL,SCSCP1+SASCPL]
 10728	043045	670 01 0 00 046346 		TDO	T,[XWD ADARPL,ARSHLT+MQSHLT]
 10729	043046	660 00 0 00 000040 		TRO	F,FLAG2
 10730	043047	204 02 0 00 000016 		MOVS	T1,IR
 10731	043050	640 02 0 00 112000 		TRC	T1,112000	;DFMP
 10732	043051	331 04 0 00 046736 		SKIPL	T3,ARX
 10733	043052	641 04 0 00 000200 		TLC	T3,(1B10)
 10734	043053	602 02 0 00 777000 		TRNE	T1,777000
 10735	043054	607 04 0 00 000200 		TLNN	T3,(1B10)
 10736	043055	254 00 0 00 043215 		JRST	DFAT1K
 10737	043056	254 00 0 00 043043 		JRST	DNT1E
 10738
 10739	043057	607 04 0 00 000400 	DNT1G:	TLNN	T3,(1B9)
 10740	043060	602 00 0 00 000040 		TRNE	F,FLAG2
 10741	043061	334 00 0 00 000000 		SKIPA
 10742	043062	254 00 0 00 043043 		JRST	DNT1E
 10743	043063	603 07 0 00 200000 		TLNE	MQ,(1B1)
 10744	043064	254 00 0 00 043032 		JRST	DNT1F
 10745	043065	254 00 0 00 043075 		JRST	DNT6A
 10746
 10747	043066	660 03 0 00 000120 	DNT1D:	TRO	T2,SASCPL+SAADD
 10748	043067	265 05 0 00 030065 		JSP	S,CPOPJ
 10749
 10750	043070	661 01 0 00 000060 	DNT6:	TLO	T,ADARPL
 10751	043071	200 02 0 00 046736 		MOVE	T1,ARX
 10752	043072	326 11 0 00 043075 		JUMPN	AD,.+3
 10753	043073	616 02 0 00 046133 		TDNN	T1,[1B8-1]
 10754	043074	670 03 0 00 046347 		TDO	T2,[XWD ARXSHR,SCSAEN]
 10755	043075	660 03 0 00 000343 	DNT6A:	TRO	T2,SAPL1+SAZERO+SASCMI+SAADD
 10756	043076	265 05 0 00 030065 		JSP	S,CPOPJ
 10757
 10758	043077	670 01 0 00 046350 	DNT7:	TDO	T,[XWD ADBRPL,MQADEN]
 10759	043100	661 03 0 00 000004 		TLO	T2,BRARXE
 10760	043101	335 00 0 00 046736 		SKIPGE	ARX
 10761	043102	660 00 0 00 000100 		TRO	F,FLAG3
 10762	043103	265 05 0 00 040070 		JSP	S,FIX1A
 10763
 10764	043104	660 03 0 00 000020 	DNT8:	TRO	T2,SASCPL
 10765	043105	602 00 0 00 000100 		TRNE	F,FLAG3
 10766	043106	640 03 0 00 000060 		TRC	T2,SASCPL+SASCMI
 10767	043107	201 02 0 15 000200 		MOVEI	T1,200(SC)
 10768	043110	606 02 0 00 000400 		TRNN	T1,400
 10769	043111	254 00 0 00 043115 		JRST	DNT8A
 10770	043112	661 13 0 00 440200 		TLO	PC,AROV!FOV!TN1
 10771	043113	336 00 0 00 046777 		SKIPN	FXUH
 10772	043114	661 13 0 00 000100 		TLO	PC,FXU
 10773
 10774	043115	660 01 0 00 006000 	DNT8A:	TRO	T,ARADEN
 10775	043116	265 05 0 00 030065 		JSP	S,CPOPJ
 10776
 10777	043117	476 00 0 00 046726 	DNT9:	SETOM	ARESAE
 10778	043120	254 00 0 00 042613 		JRST	NRT1I
DBKDA	DECSYSTEM10 KI10 ARITHMETIC RELIABILITY TEST, VER 0,3	MACRO %51(414) 14:29  9-JUN-76 PAGE 40
KI10A2	MAC	 9-JUN-76 13:56		TIME PULSE SUBROUTINES	-FIX-                                                  *** SEQ 0286

 10779					SUBTTL	TIME PULSE SUBROUTINES	-FIX-
 10780
 10781	043121	476 00 0 00 046735 	FIX2B:	SETOM	ARSMR
 10782	043122	476 00 0 00 047026 		SETOM	LONGSET
 10783	043123	660 03 0 00 000343 		TRO	T2,SAADD+SAPL1+SASCMI+SAZERO
 10784	043124	265 05 0 00 030065 		JSP	S,CPOPJ
 10785
 10786	043125	660 03 0 00 020000 	FIXT1:	TRO	T2,SCSAEN
 10787	043126	331 00 0 00 047074 		SKIPL	SA
 10788	043127	254 00 0 00 042613 		JRST	NRT1I
 10789	043130	661 01 0 00 000060 	FIX2C:	TLO	T,ADARPL
 10790	043131	335 00 0 00 046770 		SKIPGE	FE
 10791	043132	254 00 0 00 043136 		JRST	FIX2E
 10792	043133	476 00 0 00 046727 		SETOM	ARGOLT
 10793	043134	201 05 0 00 043630 		MOVEI	S,SCT2
 10794	043135	263 17 0 00 000000 		POPJ	P,
 10795
 10796	043136	402 00 0 00 046727 	FIX2E:	SETZM	ARGOLT
 10797	043137	201 05 0 00 043571 		MOVEI	S,SCT1
 10798	043140	263 17 0 00 000000 		POPJ	P,
 10799
 10800	043141	205 02 0 00 200000 	FIX2A:	MOVSI	T1,(1B1)
 10801	043142	270 02 0 00 000006 		ADD	T1,AR
 10802	043143	321 02 0 00 043154 		JUMPL	T1,FIX2F
 10803	043144	660 01 0 00 000400 		TRO	T,ARCLR
 10804
 10805	043145	603 16 0 00 004000 	FIXT2:	TLNE	IR,4000
 10806	043146	254 00 0 00 043151 		JRST	FIXT2A
 10807
 10808	043147	325 06 0 00 042613 	FIX2G:	JUMPGE	AR,NRT1I
 10809	043150	616 07 0 00 046133 		TDNN	MQ,[1B8-1]
 10810
 10811	043151	603 07 0 00 001000 	FIXT2A:	TLNE	MQ,(1B8)
 10812	043152	660 01 0 00 006000 	FIXT2B:	TRO	T,ARADEN
 10813	043153	254 00 0 00 042613 		JRST	NRT1I
 10814
 10815	043154	476 00 0 00 046735 	FIX2F:	SETOM	ARSMR
 10816	043155	254 00 0 00 043130 		JRST	FIX2C
DBKDA	DECSYSTEM10 KI10 ARITHMETIC RELIABILITY TEST, VER 0,3	MACRO %51(414) 14:29  9-JUN-76 PAGE 41
KI10A2	MAC	 9-JUN-76 13:56		TIME PULSE SUBROUTINES	-DBLE FLOATING ADD/MUL/DIV-                            *** SEQ 0287

 10817					SUBTTL	TIME PULSE SUBROUTINES	-DBLE FLOATING ADD/MUL/DIV-
 10818
 10819	043156	670 03 0 00 046351 	DFAT1:	TDO	T2,[XWD ARXADX,FESAEN]
 10820	043157	660 01 0 00 106000 		TRO	T,ARADEN+ABPCEN
 10821	043160	260 17 0 00 042371 		PUSHJ	P,FXUSET
 10822	043161	602 00 0 00 000040 		TRNE	F,FLAG2
 10823	043162	254 00 0 00 043232 		JRST	DFAT1C
 10824	043163	325 15 0 00 043173 		JUMPGE	SC,DFAT1A
 10825	043164	640 15 0 00 000300 		TRC	SC,300
 10826	043165	646 15 0 00 000300 		TRCN	SC,300
 10827	043166	254 00 0 00 043173 		JRST	DFAT1A
 10828	043167	641 03 0 00 000300 		TLC	T2,ARXADX+ARXCLR
 10829	043170	640 01 0 00 006400 		TRC	T,ARADEN+ARCLR
 10830	043171	603 16 0 00 001000 		TLNE	IR,1000
 10831	043172	254 00 0 00 043256 		JRST	DFAT1B
 10832
 10833	043173	603 16 0 00 003000 	DFAT1A:	TLNE	IR,3000
 10834	043174	254 00 0 00 043232 		JRST	DFAT1C
 10835	043175	640 15 0 00 000700 		TRC	SC,700
 10836	043176	642 15 0 00 000700 		TRCE	SC,700
 10837	043177	254 00 0 00 043256 		JRST	DFAT1B
 10838	043200	661 01 0 00 000060 	DFAT1G:	TLO	T,ADARPL
 10839	043201	402 00 0 00 046727 		SETZM	ARGOLT
 10840	043202	201 05 0 00 043571 		MOVEI	S,SCT1
 10841	043203	263 17 0 00 000000 		POPJ	P,
 10842	043204	603 16 0 00 001000 	DFAT1D:	TLNE	IR,1000
 10843	043205	254 00 0 00 043217 		JRST	DFAT1E
 10844	043206	660 03 0 00 010303 	DFAT1H:	TRO	T2,SAFEEN+SAZERO+SAPL1+SAADD
 10845	043207	661 03 0 00 540000 	DFAT1J:	TLO	T2,ADXADD+ADXFMP+ADXFMM
 10846	043210	661 01 0 00 040070 		TLO	T,ADADD+ADMAGIC+ADARPL
 10847	043211	205 02 0 00 001000 		MOVSI	T1,(1B8)
 10848	043212	202 02 0 00 047027 		MOVEM	T1,MAGIC#
 10849	043213	620 00 0 00 000040 		TRZ	F,FLAG2
 10850	043214	661 01 0 00 000004 		TLO	T,INFTST
 10851	043215	201 05 0 00 042774 	DFAT1K:	MOVEI	S,DNT1
 10852	043216	263 17 0 00 000000 		POPJ	P,
 10853	043217	661 01 0 00 060110 	DFAT1E:	TLO	T,ADADD+ADARMI+ADCR36+ADMAGIC
 10854	043220	661 03 0 00 540000 		TLO	T2,ADXADD+ADXFMP+ADXFMM
 10855	043221	265 05 0 00 030065 		JSP	S,CPOPJ
 10856
 10857	043222	661 03 0 00 000100 	DFAT2:	TLO	T2,ARXADX
 10858	043223	660 01 0 00 006000 		TRO	T,ARADEN
 10859	043224	640 15 0 00 000700 		TRC	SC,700
 10860	043225	642 15 0 00 000700 		TRCE	SC,700
 10861	043226	254 00 0 00 043254 		JRST	DFAT2A
 10862	043227	606 00 0 00 000040 		TRNN	F,FLAG2
 10863	043230	254 00 0 00 043200 		JRST	DFAT1G
 10864	043231	254 00 0 00 043237 		JRST	DFAT1F
DBKDA	DECSYSTEM10 KI10 ARITHMETIC RELIABILITY TEST, VER 0,3	MACRO %51(414) 14:29  9-JUN-76 PAGE 42
KI10A2	MAC	 9-JUN-76 13:56		TIME PULSE SUBROUTINES	-DBLE FLOATING ADD/MUL/DIV-                            *** SEQ 0288

 10865	043232	640 15 0 00 000700 	DFAT1C:	TRC	SC,700
 10866	043233	642 15 0 00 000700 		TRCE	SC,700
 10867	043234	254 00 0 00 043204 		JRST	DFAT1D
 10868	043235	603 16 0 00 003000 		TLNE	IR,3000
 10869	043236	254 00 0 00 043217 		JRST	DFAT1E
 10870	043237	661 01 0 00 000600 	DFAT1F:	TLO	T,ADBRPL
 10871	043240	661 03 0 00 240000 		TLO	T2,ADXFMM+ADXEQV
 10872	043241	476 00 0 00 047076 		SETOM	SACBRFF
 10873	043242	265 05 0 00 030065 		JSP	S,CPOPJ
 10874
 10875	043243	660 01 0 00 000010 	DFAT3:	TRO	T,MQADEN
 10876	043244	476 00 0 00 046775 		SETOM	FMWRSET
 10877	043245	661 03 0 00 210104 		TLO	T2,ADXBRM+ADXEQV+BRARXE+ARXADX
 10878	043246	265 05 0 00 030065 		JSP	S,CPOPJ
 10879
 10880	043247	661 03 0 00 000100 	DFAT4:	TLO	T2,ARXADX
 10881	043250	476 00 0 00 046733 		SETOM	ARMQEN
 10882	043251	660 01 0 00 001020 		TRO	T,BRAREN+MQCLR
 10883	043252	402 00 0 00 047076 		SETZM	SACBRFF
 10884	043253	254 00 0 00 043200 		JRST	DFAT1G
 10885
 10886	043254	602 00 0 00 000040 	DFAT2A:	TRNE	F,FLAG2
 10887	043255	254 00 0 00 043206 		JRST	DFAT1H
 10888
 10889	043256	661 01 0 00 040660 	DFAT1B:	TLO	T,ADARPL+ADBRPL+ADADD
 10890	043257	661 03 0 00 500000 		TLO	T2,ADXFMP+ADXADD
 10891	043260	265 05 0 00 030065 		JSP	S,CPOPJ
 10892
 10893	043261	660 01 0 00 000102 	DFAT5:	TRO	T,ARSHRT+MQSHRT
 10894	043262	670 03 0 00 046352 		TDO	T2,[XWD ARXSHR,SAFEEN]
 10895	043263	254 00 0 00 043207 		JRST	DFAT1J
 10896
 10897	043264	670 01 0 00 046332 	DFMT1:	TDO	T,[XWD ADARPL,ARCLR+MQADEN]
 10898	043265	661 03 0 00 000002 		TLO	T2,MBAREN
 10899	043266	660 00 0 00 000040 		TRO	F,FLAG2
 10900	043267	402 00 0 00 046727 		SETZM	ARGOLT
 10901	043270	201 05 0 00 043571 		MOVEI	S,SCT1
 10902	043271	606 12 0 00 000001 		TRNN	MB,1
 10903	043272	254 00 0 00 040070 		JRST	FIX1A
 10904	043273	661 01 0 00 040600 		TLO	T,ADADD+ADBRPL
 10905	043274	661 03 0 00 500000 		TLO	T2,ADXADD+ADXFMP
 10906	043275	254 00 0 00 040070 		JRST	FIX1A
 10907
 10908	043276	620 00 0 00 000040 	DFMT2:	TRZ	F,FLAG2
 10909	043277	670 01 0 00 046353 		TDO	T,[XWD ADARPL,ABPCEN+MQADEN]
 10910	043300	260 17 0 00 044637 		PUSHJ	P,MPYFCN
 10911	043301	201 05 0 00 043630 		MOVEI	S,SCT2
 10912	043302	254 00 0 00 040070 		JRST	FIX1A
 10913
DBKDA	DECSYSTEM10 KI10 ARITHMETIC RELIABILITY TEST, VER 0,3	MACRO %51(414) 14:29  9-JUN-76 PAGE 43
KI10A2	MAC	 9-JUN-76 13:56		TIME PULSE SUBROUTINES	-DBLE FLOATING ADD/MUL/DIV-                            *** SEQ 0289

 10914	043303	660 01 0 00 000204 	DFMT3:	TRO	T,ARSHLT+MQSHLT
 10915	043304	620 00 0 00 000020 		TRZ	F,FLAG1
 10916	043305	670 03 0 00 046354 		TDO	T2,[XWD ARXSHL,SCSAEN+SASCPL+SAADD+SAPL1+SAZERO]
 10917	043306	260 17 0 00 042371 		PUSHJ	P,FXUSET
 10918	043307	254 00 0 00 043207 		JRST	DFAT1J
 10919
 10920	043310	661 03 0 00 006000 	DFDT0:	TLO	T2,ADMBEN
 10921	043311	265 05 0 00 030065 		JSP	S,CPOPJ
 10922
 10923	043312	660 01 0 00 006002 	DFDT1:	TRO	T,ARADEN+MQSHRT
 10924	043313	661 03 0 00 000022 		TLO	T2,MBAREN+ARXSHR
 10925	043314	476 00 0 00 046762 		SETOM	DFDF1
 10926	043315	476 00 0 00 046775 		SETOM	FMWRSET
 10927	043316	265 05 0 00 030065 		JSP	S,CPOPJ
 10928
 10929	043317	476 00 0 00 046733 	DFDT2:	SETOM	ARMQEN
 10930	043320	660 01 0 00 001020 		TRO	T,BRAREN+MQCLR
 10931	043321	660 03 0 00 000012 		TRO	T2,SAMI32
 10932	043322	402 00 0 00 047076 		SETZM	SACBRFF
 10933	043323	265 05 0 00 030065 		JSP	S,CPOPJ
 10934
 10935	043324	660 01 0 00 100204 	DFDT3:	TRO	T,ABPCEN+ARSHLT+MQSHLT
 10936	043325	661 03 0 00 000040 		TLO	T2,ARXSHL
 10937	043326	331 00 0 00 046722 		SKIPL	ADX
 10938	043327	254 00 0 00 043345 		JRST	DFDT3A
 10939	043330	265 05 0 00 040070 		JSP	S,FIX1A
 10940
 10941	043331	660 01 0 00 000204 	DFDT4:	TRO	T,ARSHLT+MQSHLT
 10942	043332	661 03 0 00 000040 		TLO	T2,ARXSHL
 10943	043333	476 00 0 00 047057 		SETOM	PCP1FF
 10944	043334	660 00 0 00 000040 		TRO	F,FLAG2
 10945	043335	476 00 0 00 046727 		SETOM	ARGOLT
 10946	043336	200 02 0 00 046722 		MOVE	T1,ADX
 10947	043337	607 02 0 00 001000 		TLNN	T1,(1B8)
 10948	043340	254 00 0 00 043343 		JRST	DFDT4A+1
 10949	043341	664 00 0 00 000220 		TROA	F,FLAG1+SCP1S
 10950	043342	660 03 0 00 020000 	DFDT4A:	TRO	T2,SCSAEN
 10951	043343	201 05 0 00 043630 		MOVEI	S,SCT2
 10952	043344	263 17 0 00 000000 		POPJ	P,
 10953
 10954	043345	265 05 0 00 040070 	DFDT3A:	JSP	S,FIX1A
DBKDA	DECSYSTEM10 KI10 ARITHMETIC RELIABILITY TEST, VER 0,3	MACRO %51(414) 14:29  9-JUN-76 PAGE 44
KI10A2	MAC	 9-JUN-76 13:56		TIME PULSE SUBROUTINES	-DBLE FLOATING ADD/MUL/DIV-                            *** SEQ 0290

 10955	043346	661 13 0 00 440240 	DFDT10:	TLO	PC,AROV!FOV!TN1!DCK
 10956	043347	402 00 0 00 046762 	DFD10A:	SETZM	DFDF1
 10957	043350	476 00 0 00 047152 		SETOM	TRPSAT
 10958	043351	265 05 0 00 030065 		JSP	S,CPOPJ
 10959
 10960	043352	661 03 0 00 006000 	DFDT11:	TLO	T2,ADMBEN
 10961	043353	661 01 0 00 000004 		TLO	T,INFTST
 10962	043354	265 05 0 00 030065 		JSP	S,CPOPJ
 10963
 10964	043355	660 01 0 00 006000 	DFDT12:	TRO	T,ARADEN
 10965	043356	476 00 0 00 046775 		SETOM	FMWRSET
 10966	043357	201 05 0 00 042235 		MOVEI	S,ST5
 10967	043360	263 17 0 00 000000 		POPJ	P,
 10968
 10969	043361	476 00 0 00 046733 	DFDT5:	SETOM	ARMQEN
 10970	043362	670 03 0 00 046355 		TDO	T2,[XWD MBAREN+ADMBEN,SAMI42]
 10971	043363	402 00 0 00 047057 		SETZM	PCP1FF
 10972	043364	620 00 0 00 000040 		TRZ	F,FLAG2
 10973	043365	476 00 0 00 047152 		SETOM	TRPSAT
 10974	043366	265 05 0 00 030065 		JSP	S,CPOPJ
 10975
 10976	043367	670 01 0 00 046356 	DFDT6:	TDO	T,[XWD ADADD+ADARPL+ADBRPL,ARADEN+MQCLR]
 10977	043370	476 00 0 00 046762 		SETOM	DFDF1
 10978	043371	661 03 0 00 500002 		TLO	T2,ADXADD+ADXFMP+MBAREN
 10979	043372	200 02 0 00 000006 		MOVE	T1,AR
 10980	043373	241 02 0 00 777777 		ROT	T1,-1
 10981	043374	430 02 1 00 046773 		XOR	T1,@FMREG
 10982	043375	325 02 0 00 043342 		JUMPGE	T1,DFDT4A
 10983	043376	641 03 0 00 140000 		TLC	T2,ADXFMP+ADXFMM
 10984	043377	641 01 0 00 021600 		TLC	T,ADBRPL+ADBRMI+ADCR36
 10985	043400	254 00 0 00 043342 		JRST	DFDT4A
DBKDA	DECSYSTEM10 KI10 ARITHMETIC RELIABILITY TEST, VER 0,3	MACRO %51(414) 14:29  9-JUN-76 PAGE 45
KI10A2	MAC	 9-JUN-76 13:56		TIME PULSE SUBROUTINES	-DBLE FLOATING ADD/MUL/DIV-                            *** SEQ 0291

 10986	043401	660 01 0 00 000004 	DFDT7:	TRO	T,MQSHLT
 10987	043402	670 03 0 00 046357 		TDO	T2,[XWD ADMBEN,SCSAEN+SAFEEN+SAZERO+SAEQV]
 10988	043403	260 17 0 00 041763 		PUSHJ	P,FMACEN
 10989	043404	476 00 0 00 047026 		SETOM	LONGSET
 10990	043405	335 00 1 00 046773 		SKIPGE	@FMREG
 10991	043406	640 00 0 00 000100 		TRC	F,FLAG3
 10992	043407	265 05 0 00 030065 		JSP	S,CPOPJ
 10993
 10994	043410	476 00 0 00 047016 	DFDT8:	SETOM	INSNXT
 10995	043411	260 17 0 00 042371 		PUSHJ	P,FXUSET
 10996	043412	612 07 0 00 045726 		TDNE	MQ,[1B0-1]
 10997	043413	254 00 0 00 043424 		JRST	DFDT8C
 10998	043414	326 11 0 00 043417 		JUMPN	AD,DFDT8A
 10999	043415	660 01 0 00 000400 		TRO	T,ARCLR
 11000	043416	254 00 0 00 042613 		JRST	NRT1I
 11001	043417	602 00 0 00 000100 	DFDT8A:	TRNE	F,FLAG3
 11002	043420	674 01 0 00 046172 		TDOA	T,[XWD ADARMI+ADMAGIC+ADADD+ADCR36,ARADEN]
 11003	043421	661 03 0 00 006000 	DFDT8D:	TLO	T2,ADMBEN
 11004	043422	201 05 0 00 043104 		MOVEI	S,DNT8
 11005	043423	263 17 0 00 000000 		POPJ	P,
 11006
 11007	043424	606 00 0 00 000100 	DFDT8C:	TRNN	F,FLAG3
 11008	043425	254 00 0 00 043421 		JRST	DFDT8D
 11009	043426	476 00 0 00 046733 		SETOM	ARMQEN
 11010	043427	661 01 0 00 060110 		TLO	T,ADARMI+ADMAGIC+ADCR36+ADADD
 11011	043430	205 02 0 00 400000 		MOVSI	T1,(1B0)
 11012	043431	202 02 0 00 047027 		MOVEM	T1,MAGIC#
 11013	043432	265 05 0 00 030065 		JSP	S,CPOPJ
 11014
 11015	043433	670 01 0 00 046360 	DFDT9:	TDO	T,[XWD ADEQV+ADMAGIC,MQADEN]
 11016	043434	402 00 0 00 047027 		SETZM	MAGIC#
 11017	043435	254 00 0 00 043421 		JRST	DFDT8D
DBKDA	DECSYSTEM10 KI10 ARITHMETIC RELIABILITY TEST, VER 0,3	MACRO %51(414) 14:29  9-JUN-76 PAGE 46
KI10A2	MAC	 9-JUN-76 13:56		TIME PULSE SUBROUTINES	-FLT ADD, MISC-                                        *** SEQ 0292

 11018					SUBTTL	TIME PULSE SUBROUTINES	-FLT ADD, MISC-
 11019
 11020	043436	331 02 0 00 047074 	FAT1:	SKIPL	T1,SA
 11021	043437	660 03 0 00 000343 		TRO	T2,SASCMI+SAPL1+SAADD+SAZERO
 11022	043440	430 02 0 00 000006 		XOR	T1,AR
 11023	043441	335 00 0 00 000002 		SKIPGE	T1
 11024	043442	660 00 0 00 000040 		TRO	F,FLAG2
 11025	043443	265 05 0 00 040070 		JSP	S,FIX1A
 11026
 11027	043444	331 00 0 00 000015 	FAT2:	SKIPL	SC
 11028	043445	660 03 0 00 020000 		TRO	T2,SCSAEN
 11029	043446	661 01 0 00 000600 		TLO	T,ADBRPL
 11030	043447	660 03 0 00 002000 		TRO	T2,SAAREX
 11031	043450	606 00 0 00 000040 		TRNN	F,FLAG2
 11032	043451	254 00 0 00 043455 		JRST	FAT2A
 11033	043452	640 03 0 00 012000 		TRC	T2,SAFEEN+SAAREX
 11034	043453	325 10 0 00 043457 		JUMPGE	BR,FAT2B
 11035	043454	254 00 0 00 043460 		JRST	FAT2C
 11036	043455	321 06 0 00 043460 	FAT2A:	JUMPL	AR,FAT2C
 11037	043456	664 03 0 00 004060 		TROA	T2,SAEQV+SASCPL+SASCMI
 11038	043457	660 03 0 00 004003 	FAT2B:	TRO	T2,SAEQV+SAZERO
 11039	043460	265 05 0 00 030065 	FAT2C:	JSP	S,CPOPJ
 11040
 11041	043461	660 03 0 00 400000 	FAT3:	TRO	T2,FESAEN
 11042	043462	476 00 0 00 046744 		SETOM	BRSMR
 11043	043463	402 00 0 00 046727 		SETZM	ARGOLT
 11044	043464	201 05 0 00 043571 		MOVEI	S,SCT1
 11045	043465	661 01 0 00 000060 		TLO	T,ADARPL
 11046	043466	606 00 0 00 000040 		TRNN	F,FLAG2
 11047	043467	660 01 0 00 001000 		TRO	T,BRAREN
 11048	043470	325 15 0 00 043474 		JUMPGE	SC,FAT3A
 11049	043471	640 15 0 00 000300 		TRC	SC,300
 11050	043472	642 15 0 00 000300 		TRCE	SC,300
 11051						JRST	[TRO	T,ARCLR
 11052	043473	254 00 0 00 046361 			JRST	FAT3B]
 11053	043474	606 00 0 00 000040 	FAT3A:	TRNN	F,FLAG2
 11054	043475	664 01 0 00 006000 		TROA	T,ARADEN
 11055	043476	476 00 0 00 046735 		SETOM	ARSMR
 11056	043477	640 15 0 00 000700 	FAT3B:	TRC	SC,700
 11057	043500	646 15 0 00 000700 		TRCN	SC,700
 11058	043501	263 17 0 00 000000 		POPJ	P,
 11059	043502	661 01 0 00 040600 		TLO	T,ADBRPL+ADADD
 11060	043503	476 00 0 00 047026 		SETOM	LONGSET
 11061	043504	265 05 0 00 030065 		JSP	S,CPOPJ
 11062
 11063	043505	331 02 0 00 000011 	FAT4:	SKIPL	T1,AD
 11064	043506	641 02 0 00 001000 		TLC	T1,(1B8)
 11065	043507	603 02 0 00 001000 		TLNE	T1,(1B8)
 11066	043510	664 01 0 00 006000 		TROA	T,ARADEN
 11067	043511	664 01 0 00 000102 		TROA	T,ARSHRT+MQSHRT
 11068	043512	664 03 0 00 000303 		TROA	T2,SAADD+SAZERO+SAPL1
 11069	043513	476 00 0 00 047026 		SETOM	LONGSET
 11070	043514	660 03 0 00 010000 		TRO	T2,SAFEEN
 11071	043515	254 00 0 00 042507 		JRST	FMT2A
 11072
DBKDA	DECSYSTEM10 KI10 ARITHMETIC RELIABILITY TEST, VER 0,3	MACRO %51(414) 14:29  9-JUN-76 PAGE 46-1
KI10A2	MAC	 9-JUN-76 13:56		TIME PULSE SUBROUTINES	-FLT ADD, MISC-                                        *** SEQ 0293

 11073	043516	660 01 0 00 006004 	JFFOT1:	TRO	T,ARADEN+MQSHLT
 11074	043517	254 00 0 00 037547 		JRST	JFFO2A
 11075
 11076	043520	660 03 0 00 020000 	SRT1:	TRO	T2,SCSAEN
 11077	043521	135 02 0 00 046363 		LDB	T1,[POINT 3,IR,8]
 11078	043522	200 04 0 02 043536 		MOVE	T3,SRTAB(T1)
 11079	043523	202 04 0 00 047110 		MOVEM	T3,SINDEX
 11080	043524	570 04 0 00 000010 		HRRE	T3,BR
 11081	043525	533 00 0 00 000004 		HLLES	T3
 11082	043526	452 04 0 00 046727 		SETCAM	T3,ARGOLT
 11083	043527	201 05 0 00 043630 		MOVEI	S,SCT2
 11084	043530	336 00 0 00 046727 		SKIPN	ARGOLT
 11085	043531	201 05 0 00 043571 		MOVEI	S,SCT1
 11086	043532	336 00 0 00 047074 		SKIPN	SA
 11087	043533	254 00 0 00 042243 		JRST	ST5A
 11088	043534	661 01 0 00 000060 		TLO	T,ADARPL
 11089	043535	263 17 0 00 000000 		POPJ	P,
 11090
 11091	043536	000000	000004		SRTAB:	4	;ASH
 11092	043537	000000	000001			1	;ROT
 11093	043540	000000	000000			0	;LSH
 11094	043541	000000	000000			.-.	;(JFFO)
 11095	043542	000000	000005			5	;ASHC
 11096	043543	000000	000002			2	;ROTC
 11097	043544	000000	000003			3	;LSHC
 11098
 11099	043545	205 04 0 00 000040 	FMAC2E:	MOVSI	T3,(1B12)
 11100	043546	270 04 0 00 000016 		ADD	T3,IR
 11101	043547	202 04 0 00 046711 		MOVEM	T3,ACPL2#
 11102	043550	200 04 0 00 046364 		MOVE	T3,[POINT 4,ACPL2,12]
 11103	043551	202 04 0 00 046772 		MOVEM	T3,FMADREN
 11104	043552	263 17 0 00 000000 		POPJ	P,
 11105
 11106	043553	660 01 0 00 100010 	DMOVT1:	TRO	T,ABPCEN+MQADEN
 11107	043554	254 00 0 00 037556 		JRST	JFFO2B
 11108
 11109					DMVNT1:	TDO	T,[XWD ADARMI+ADCR36+ADADD+ADMAGIC,ABPCEN^_
 11110	043555	670 01 0 00 046365 	+BRAREN+ARADEN]
 11111	043556	476 00 0 00 047026 		SETOM	LONGSET
 11112	043557	265 05 0 00 030065 		JSP	S,CPOPJ
 11113
 11114	043560	670 01 0 00 046366 	DMVNT2:	TDO	T,[XWD ADBRMI+INFTST,MQADEN]
 11115	043561	200 02 0 00 041033 		MOVE	T1,ADFLGS
 11116	043562	603 02 0 00 100000 		TLNE	T1,(1B2)
 11117	043563	665 01 0 00 060000 		TLOA	T,ADADD+ADCR36
 11118	043564	254 00 0 00 043566 		JRST	.+2
 11119	043565	661 03 0 00 000400 		TLO	T2,ADMSKG
 11120	043566	265 05 0 00 030065 		JSP	S,CPOPJ
 11121
 11122	043567	660 01 0 00 006000 	DMVNT3:	TRO	T,ARADEN
 11123	043570	254 00 0 00 037556 		JRST	JFFO2B
DBKDA	DECSYSTEM10 KI10 ARITHMETIC RELIABILITY TEST, VER 0,3	MACRO %51(414) 14:29  9-JUN-76 PAGE 47
KI10A2	MAC	 9-JUN-76 13:56		SHIFT SUBROUTINE                                                               *** SEQ 0294

 11124					SUBTTL	SHIFT SUBROUTINE
 11125
 11126	043571	660 03 0 00 100000 	SCT1:	TRO	T2,SCSHRT
 11127	043572	606 15 0 00 000001 		TRNN	SC,1
 11128	043573	254 00 0 00 043603 		JRST	SCTC
 11129	043574	660 01 0 00 000100 		TRO	T,ARSHRT
 11130	043575	554 02 0 00 000016 		HLRZ	T1,IR
 11131	043576	640 02 0 00 134000 		TRC	T1,(ILDB)
 11132	043577	602 02 0 00 776000 		TRNE	T1,776000
 11133	043600	660 01 0 00 000002 		TRO	T,MQSHRT
 11134	043601	315 16 0 00 046367 		CAMGE	IR,[FIX]
 11135	043602	661 03 0 00 000020 		TLO	T2,ARXSHR
 11136
 11137	043603	640 15 0 00 000037 	SCTC:	TRC	SC,37
 11138	043604	642 15 0 00 000037 		TRCE	SC,37
 11139						JRST	[SKIPE	MPY#
 11140							PUSHJ	P,MPYFCN
 11141	043605	254 00 0 00 046370 			JRST	SCTC1]
 11142	043606	332 00 0 00 047044 		SKIPE	MPY
 11143	043607	602 00 0 00 000040 		TRNE	F,FLAG2
 11144	043610	254 00 0 00 043613 		JRST	.+3
 11145	043611	661 01 0 00 000060 		TLO	T,ADARPL
 11146	043612	476 00 0 00 047026 		SETOM	LONGSET
 11147	043613	200 04 0 00 047101 		MOVE	T3,SCADFF
 11148	043614	602 07 0 00 000002 		TRNE	MQ,2
 11149	043615	607 04 0 00 001000 		TLNN	T3,ADBRP2
 11150	043616	254 00 0 00 043621 		JRST	SCTC1
 11151	043617	606 00 0 00 000040 		TRNN	F,FLAG2
 11152	043620	260 17 0 00 044653 		PUSHJ	P,MPYFN5
 11153	043621	201 04 0 15 000001 	SCTC1:	MOVEI	T3,1(SC)
 11154	043622	322 04 0 00 043656 		JUMPE	T3,SCTC2
 11155	043623	602 00 0 00 000040 		TRNE	F,FLAG2
 11156	043624	336 00 0 00 047021 		SKIPN	INTRQ#
 11157	043625	665 01 0 00 000060 	SCTC5:	TLOA	T,ADARPL
 11158	043626	254 00 0 00 043347 		JRST	DFD10A
 11159	043627	265 05 0 00 030065 		JSP	S,CPOPJ
 11160
 11161	043630	554 02 0 00 000016 	SCT2:	HLRZ	T1,IR
 11162	043631	660 03 0 00 200000 		TRO	T2,SCSCP1
 11163	043632	336 00 0 00 046727 		SKIPN	ARGOLT#
 11164	043633	254 00 0 00 043647 		JRST	SCT2R
 11165	043634	660 01 0 00 000204 		TRO	T,MQSHLT+ARSHLT
 11166	043635	315 16 0 00 046367 		CAMGE	IR,[FIX]
 11167	043636	661 03 0 00 000040 		TLO	T2,ARXSHL
 11168	043637	640 02 0 00 240000 		TRC	T1,(ASH)
 11169	043640	602 02 0 00 773000 		TRNE	T1,773000
 11170	043641	254 00 0 00 043603 		JRST	SCTC
 11171	043642	331 02 0 00 000006 		SKIPL	T1,AR
 11172	043643	641 02 0 00 200000 		TLC	T1,(1B1)
 11173	043644	607 02 0 00 200000 		TLNN	T1,(1B1)
 11174	043645	661 13 0 00 400200 		TLO	PC,AROV+TN1
 11175	043646	254 00 0 00 043603 		JRST	SCTC
 11176
DBKDA	DECSYSTEM10 KI10 ARITHMETIC RELIABILITY TEST, VER 0,3	MACRO %51(414) 14:29  9-JUN-76 PAGE 48
KI10A2	MAC	 9-JUN-76 13:56		SHIFT SUBROUTINE                                                               *** SEQ 0295

 11177	043647	660 01 0 00 000040 	SCT2R:	TRO	T,ARSHR2
 11178	043650	640 02 0 00 134000 		TRC	T1,(ILDB)
 11179	043651	602 02 0 00 776000 		TRNE	T1,776000
 11180	043652	660 01 0 00 000001 		TRO	T,MQSHR2
 11181	043653	315 16 0 00 046367 		CAMGE	IR,[FIX]
 11182	043654	661 03 0 00 000010 		TLO	T2,ARXSR2
 11183	043655	254 00 0 00 043603 		JRST	SCTC
 11184	043656	554 02 0 00 000016 	SCTC2:	HLRZ	T1,IR
 11185	043657	405 02 0 00 777000 		ANDI	T1,777000
 11186	043660	336 00 0 00 046763 		SKIPN	DSF2#
 11187	043661	254 00 0 00 043664 		JRST	.+3
 11188	043662	660 03 0 00 010000 		TRO	T2,SAFEEN
 11189	043663	201 05 0 00 042311 		MOVEI	S,DST3
 11190	043664	302 02 0 00 112000 		CAIE	T1,112000	;DFMP
 11191	043665	254 00 0 00 043673 		JRST	SCTC3
 11192	043666	606 00 0 00 000040 		TRNN	F,FLAG2
 11193						JRST	[TRO	T2,SAFEEN+SAADD+SAPL1+SAZERO
 11194							MOVEI	S,DFMT3
 11195	043667	254 00 0 00 046373 			JRST	SCTC3]
 11196	043670	670 03 0 00 046376 		TDO	T2,[XWD ADMBEN,SAMI16]
 11197	043671	201 05 0 00 043276 		MOVEI	S,DFMT2
 11198	043672	476 00 0 00 047026 		SETOM	LONGSET
 11199	043673	302 02 0 00 113000 	SCTC3:	CAIE	T1,113000	;DFDV
 11200	043674	254 00 0 00 043704 		JRST	SCTC4
 11201	043675	602 00 0 00 000040 		TRNE	F,FLAG2
 11202						JRST	[SKIPE	INTRQ
 11203							JRST	SCTC4
 11204							SETZM	DFDF1
 11205							MOVEI	S,DFDT5
 11206	043676	254 00 0 00 046377 			JRST	SCTC4]
 11207	043677	402 00 0 00 046762 		SETZM	DFDF1
 11208	043700	201 05 0 00 043401 		MOVEI	S,DFDT7
 11209	043701	660 03 0 00 010000 		TRO	T2,SAFEEN
 11210	043702	606 00 0 00 000020 		TRNN	F,FLAG1
 11211	043703	660 03 0 00 000303 		TRO	T2,SAADD+SAZERO+SAPL1
DBKDA	DECSYSTEM10 KI10 ARITHMETIC RELIABILITY TEST, VER 0,3	MACRO %51(414) 14:29  9-JUN-76 PAGE 49
KI10A2	MAC	 9-JUN-76 13:56		SHIFT SUBROUTINE                                                               *** SEQ 0296

 11212	043704	201 04 0 00 776000 	SCTC4:	MOVEI	T3,776000
 11213	043705	404 04 0 00 000002 		AND	T3,T1
 11214	043706	302 02 0 00 122000 		CAIE	T1,(FIX)
 11215	043707	306 02 0 00 126000 		CAIN	T1,(FIXR)
 11216	043710	665 01 0 00 060070 		TLOA	T,ADARPL+ADMAGIC+ADCR36+ADADD
 11217	043711	254 00 0 00 043713 		JRST	.+2
 11218	043712	201 05 0 00 043145 		MOVEI	S,FIXT2
 11219	043713	306 02 0 00 127000 		CAIN	T1,(FLTR)
 11220	043714	664 03 0 00 000015 		TROA	T2,SAMI43
 11221	043715	254 00 0 00 043721 		JRST	.+4
 11222	043716	661 01 0 00 000060 		TLO	T,ADARPL
 11223	043717	201 05 0 00 042511 		MOVEI	S,NRT1
 11224	043720	476 00 0 00 047026 		SETOM	LONGSET
 11225	043721	306 04 0 00 110000 		CAIN	T3,110000	;DFAD
 11226	043722	260 17 0 00 043256 		PUSHJ	P,DFAT1B
 11227	043723	306 04 0 00 136000 		CAIN	T3,(IDPB)
 11228	043724	661 01 0 00 000700 		TLO	T,ADARMI+ADBRPL
 11229	043725	405 04 0 00 774000 		ANDI	T3,774000
 11230	043726	306 04 0 00 134000 		CAIN	T3,(ILDB)
 11231	043727	254 00 0 00 043732 		JRST	.+3
 11232	043730	405 04 0 00 770000 		ANDI	T3,770000
 11233	043731	306 04 0 00 220000 		CAIN	T3,(IMUL)
 11234	043732	201 05 0 00 042015 		MOVEI	S,ET1S
 11235	043733	306 04 0 00 240000 		CAIN	T3,(ASH)
 11236	043734	260 17 0 00 037556 		PUSHJ	P,JFFO2B
 11237	043735	302 04 0 00 160000 		CAIE	T3,(FMP)
 11238	043736	254 00 0 00 043741 		JRST	.+3
 11239	043737	660 03 0 00 010000 		TRO	T2,SAFEEN
 11240	043740	201 05 0 00 042503 		MOVEI	S,FMT2
 11241	043741	302 04 0 00 140000 		CAIE	T3,(FAD)
 11242	043742	306 04 0 00 150000 		CAIN	T3,(FSB)
 11243	043743	254 00 0 00 043746 		JRST	.+3
 11244	043744	302 02 0 00 130000 		CAIE	T1,(UFA)
 11245	043745	263 17 0 00 000000 		POPJ	P,
 11246	043746	661 01 0 00 040660 		TLO	T,ADARPL+ADBRPL+ADADD
 11247	043747	201 05 0 00 043505 		MOVEI	S,FAT4
 11248	043750	476 00 0 00 047026 		SETOM	LONGSET
 11249	043751	263 17 0 00 000000 		POPJ	P,
DBKDA	DECSYSTEM10 KI10 ARITHMETIC RELIABILITY TEST, VER 0,3	MACRO %51(414) 14:29  9-JUN-76 PAGE 50
KI10A2	MAC	 9-JUN-76 13:56		TIME PULSE SUBROUTINES	-INDONE-                                               *** SEQ 0297

 11250					SUBTTL	TIME PULSE SUBROUTINES	-INDONE-
 11251
 11252	043752	332 00 0 00 046745 	INDONE:	SKIPE	BYF5
 11253	043753	254 00 0 00 044007 		JRST	INDON1
 11254	043754	554 04 0 00 000016 		HLRZ	T3,IR
 11255	043755	405 04 0 00 774000 		ANDI	T3,774000
 11256	043756	306 04 0 00 134000 		CAIN	T3,134000
 11257	043757	476 00 0 00 046745 		SETOM	BYF5
 11258	043760	306 04 0 00 134000 		CAIN	T3,134000
 11259	043761	476 00 0 00 046746 		SETOM	BYF6
 11260	043762	332 00 0 00 046746 		SKIPE	BYF6
 11261	043763	661 13 0 00 020000 		TLO	PC,BIS
 11262	043764	306 04 0 00 134000 		CAIN	T3,134000
 11263	043765	476 00 0 00 047067 		SETOM	PSINFT
 11264	043766	332 00 0 00 046745 	INDON2:	SKIPE	BYF5
 11265	043767	254 00 0 00 043773 		JRST	INDON3
 11266	043770	201 04 0 00 000062 		MOVEI	T3,^D50
 11267	043771	272 04 0 00 047145 		ADDM	T3,TIME
 11268	043772	402 00 0 00 047025 		SETZM	IRLTCH#
 11269	043773	336 00 0 00 047073 	INDON3:	SKIPN	RUN#
 11270	043774	254 00 0 00 032370 		JRST	DDTEX
 11271	043775	200 04 0 00 046312 		MOVE	T3,[POINT 4,MB,17]
 11272	043776	202 04 0 00 046772 		MOVEM	T3,FMADREN
 11273	043777	476 00 0 00 046751 		SETOM	CLINSET
 11274	044000	402 00 0 00 047042 		SETZM	MEMWRWT#
 11275	044001	332 00 0 00 047003 		SKIPE	INFTFF
 11276	044002	254 00 0 00 045417 		JRST	INFTS2
 11277	044003	201 05 0 00 041312 		MOVEI	S,IT0
 11278	044004	263 17 0 00 000000 		POPJ	P,
 11279
 11280	044005	000000	000000		ERR:	0
 11281	044006	254 04 0 00 000000 		HALT
 11282
 11283	044007	402 00 0 00 046745 	INDON1:	SETZM	BYF5
 11284	044010	200 13 0 00 000014 		MOVE	PC,MA		;?BYTE IN MEMORY BUG FIX
 11285	044011	254 00 0 00 043766 		JRST	INDON2
 11286						XLIST
 11287						LIST
DBKDA	DECSYSTEM10 KI10 ARITHMETIC RELIABILITY TEST, VER 0,3	MACRO %51(414) 14:29  9-JUN-76 PAGE 57
KI10A2	MAC	 9-JUN-76 13:56		TIME PULSE SUBROUTINES	-BLT-                                                  *** SEQ 0298

 11288					SUBTTL	TIME PULSE SUBROUTINES	-BLT-
 11289
 11290	044012	674 01 0 00 046404 	BLTT1X:	TDOA	T,[XWD ADBRPL+ADADD+ADPL1B,ABADEN]
 11291	044013	670 01 0 00 046405 	BLTT0:	TDO	T,[XWD ADBRPL+ADADD,MQADEN]
 11292	044014	476 00 0 00 047026 		SETOM	LONGSET
 11293	044015	661 03 0 00 000400 		TLO	T2,ADMSKG
 11294	044016	265 05 0 00 030065 		JSP	S,CPOPJ
 11295
 11296	044017	660 01 0 00 006000 	BLTT1:	TRO	T,ARADEN
 11297	044020	200 02 0 00 041033 		MOVE	T1,ADFLGS
 11298	044021	607 02 0 00 200000 		TLNN	T1,CRY0
 11299	044022	254 00 0 00 044026 		JRST	.+4
 11300	044023	476 00 0 00 047152 		SETOM	TRPSAT
 11301	044024	201 05 0 00 044067 		MOVEI	S,BLTT8
 11302	044025	263 17 0 00 000000 		POPJ	P,
 11303	044026	332 00 0 00 047021 		SKIPE	INTRQ
 11304	044027	254 00 0 00 044056 		JRST	BLTT7A
 11305	044030	476 00 0 00 047037 		SETOM	MEMREAD
 11306	044031	201 02 0 00 000112 		MOVEI	T1,"J"
 11307	044032	202 02 0 00 047040 		MOVEM	T1,MEMSIN
 11308	044033	660 01 0 00 200000 		TRO	T,ABABEN
 11309	044034	265 05 0 00 030065 		JSP	S,CPOPJ
 11310
 11311	044035	660 01 0 00 001000 	BLTT2:	TRO	T,BRAREN
 11312	044036	476 00 0 00 046751 		SETOM	CLINSET
 11313	044037	201 05 0 00 045161 		MOVEI	S,MEMST
 11314	044040	263 17 0 00 000000 		POPJ	P,
 11315
 11316	044041	660 01 0 00 100000 	BLTT3:	TRO	T,ABPCEN
 11317	044042	265 05 0 00 030065 		JSP	S,CPOPJ
 11318
 11319	044043	660 01 0 00 200000 	BLTT4:	TRO	T,ABABEN
 11320	044044	476 00 0 00 046751 	BLTT9A:	SETOM	CLINSET
 11321	044045	201 02 0 00 000105 		MOVEI	T1,"E"
 11322	044046	202 02 0 00 047040 		MOVEM	T1,MEMSIN
 11323	044047	476 00 0 00 047041 		SETOM	MEMWR
 11324	044050	201 05 0 00 045161 		MOVEI	S,MEMST
 11325	044051	263 17 0 00 000000 		POPJ	P,
 11326
DBKDA	DECSYSTEM10 KI10 ARITHMETIC RELIABILITY TEST, VER 0,3	MACRO %51(414) 14:29  9-JUN-76 PAGE 58
KI10A2	MAC	 9-JUN-76 13:56		TIME PULSE SUBROUTINES	-BLT-                                                  *** SEQ 0299

 11327	044052	661 01 0 00 000600 	BLTT5:	TLO	T,ADBRPL
 11328	044053	476 00 0 00 047062 		SETOM	PFF1
 11329	044054	265 05 0 00 030065 		JSP	S,CPOPJ
 11330
 11331	044055	660 01 0 00 006000 	BLTT6:	TRO	T,ARADEN
 11332	044056	265 05 0 00 030065 	BLTT7A:	JSP	S,CPOPJ
 11333
 11334	044057	660 01 0 00 034000 	BLTT7:	TRO	T,ARPCEN+ARLARR
 11335	044060	476 00 0 00 046775 		SETOM	FMWRSET
 11336	044061	476 00 0 00 047057 		SETOM	PCP1FF
 11337	044062	336 00 0 00 047062 		SKIPN	PFF1
 11338	044063	254 00 0 00 044066 		JRST	BLTT7B
 11339	044064	661 01 0 00 000010 		TLO	T,ADMAGIC
 11340	044065	476 00 0 00 047026 		SETOM	LONGSET
 11341	044066	265 05 0 00 030065 	BLTT7B:	JSP	S,CPOPJ
 11342
 11343	044067	476 00 0 00 046733 	BLTT8:	SETOM	ARMQEN
 11344	044070	670 01 0 00 046406 		TDO	T,[XWD ADARPL,ABADEN+MQADEN]
 11345	044071	402 00 0 00 046741 		SETZM	BLTF1
 11346	044072	265 05 0 00 030065 		JSP	S,CPOPJ
 11347
 11348	044073	670 01 0 00 046407 	BLTT9:	TDO	T,[XWD PCCLK,ABPCEN]
 11349	044074	332 00 0 00 047062 		SKIPE	PFF1
 11350	044075	254 00 0 00 044100 		JRST	.+3
 11351	044076	201 05 0 00 042066 		MOVEI	S,ST1
 11352	044077	263 17 0 00 000000 		POPJ	P,
 11353	044100	476 00 0 00 046733 		SETOM	ARMQEN
 11354	044101	476 00 0 00 047034 		SETOM	MCSPEC
 11355	044102	201 02 0 00 000426 		MOVEI	T1,426
 11356	044103	603 13 0 00 010000 		TLNE	PC,USERF
 11357	044104	201 02 0 00 041637 		MOVEI	T1,USR427
 11358	044105	202 02 0 00 047033 		MOVEM	T1,MCSADR
 11359	044106	254 00 0 00 044044 		JRST	BLTT9A
DBKDA	DECSYSTEM10 KI10 ARITHMETIC RELIABILITY TEST, VER 0,3	MACRO %51(414) 14:29  9-JUN-76 PAGE 59
KI10A2	MAC	 9-JUN-76 13:56		REGISTER MIXERS, ETC.                                                          *** SEQ 0300

 11360					SUBTTL	REGISTER MIXERS, ETC.
 11361
 11362	044107	402 00 0 00 046743 	BRMIXR:	SETZM	BRMIX
 11363	044110	476 00 0 00 046742 		SETOM	BRCLK#
 11364	044111	606 01 0 00 001000 		TRNN	T,BRAREN
 11365	044112	354 00 0 00 046742 		AOSA	BRCLK
 11366	044113	202 06 0 00 046743 		MOVEM	AR,BRMIX#
 11367	044114	200 02 0 00 000006 		MOVE	T1,AR
 11368	044115	241 02 0 00 000002 		ROT	T1,2
 11369	044116	550 03 0 00 047113 		HRRZ	T2,STATE
 11370	044117	306 03 0 00 043013 		CAIN	T2,DNT2
 11371	044120	137 02 0 00 046410 		DPB	T1,[POINT 1,BRMIX,0]
 11372	044121	200 04 0 00 047100 		MOVE	T3,SCADEN
 11373	044122	607 04 0 00 000004 		TLNN	T3,BRARXE
 11374	044123	263 17 0 00 000000 		POPJ	P,
 11375	044124	476 00 0 00 046742 		SETOM	BRCLK
 11376	044125	200 02 0 00 046736 		MOVE	T1,ARX
 11377	044126	436 02 0 00 046743 		IORM	T1,BRMIX
 11378	044127	263 17 0 00 000000 		POPJ	P,
 11379
 11380	044130	200 02 0 00 046710 	ABMIXR:	MOVE	T1,AB
 11381	044131	602 00 0 00 100000 		TRNE	F,ABPC
 11382	044132	200 02 0 00 047060 		MOVE	T1,PCP1G
 11383	044133	602 00 0 00 400000 		TRNE	F,ABAD
 11384	044134	550 02 0 00 000011 		HRRZ	T1,AD
 11385	044135	602 00 0 00 200000 		TRNE	F,ABAB
 11386	044136	550 02 0 00 046710 		HRRZ	T1,AB#
 11387	044137	202 02 0 00 046710 		MOVEM	T1,AB
 11388	044140	263 17 0 00 000000 		POPJ	P,
 11389
 11390	044141	332 00 0 00 046774 	FMVAL:	SKIPE	FMSINAC
 11391	044142	402 00 0 00 046771 		SETZM	FMADMA
 11392	044143	331 02 0 00 046771 		SKIPL	T1,FMADMA
 11393	044144	135 02 0 00 046772 		LDB	T1,FMADREN
 11394	044145	201 02 0 02 032403 		MOVEI	T1,ACS(T1)
 11395	044146	202 02 0 00 046773 		MOVEM	T1,FMREG
 11396	044147	402 00 0 00 046774 		SETZM	FMSINAC
 11397	044150	263 17 0 00 000000 		POPJ	P,
 11398
DBKDA	DECSYSTEM10 KI10 ARITHMETIC RELIABILITY TEST, VER 0,3	MACRO %51(414) 14:29  9-JUN-76 PAGE 60
KI10A2	MAC	 9-JUN-76 13:56		REGISTER MIXERS, ETC.                                                          *** SEQ 0301

 11399	044151	403 02 0 00 046725 	ARMIXR:	SETZB	T1,ARCLK#
 11400	044152	606 01 0 00 076000 		TRNN	T,ARADEN!ARSWAP!ARPCEN!ARFLGS!ARIREN
 11401	044153	254 00 0 00 044175 		JRST	ARMIX1
 11402	044154	476 00 0 00 046725 		SETOM	ARCLK
 11403	044155	602 01 0 00 002000 		TRNE	T,ARLTAD
 11404	044156	500 02 0 00 000011 		HLL	T1,AD
 11405	044157	602 01 0 00 004000 		TRNE	T,ARRTAD
 11406	044160	540 02 0 00 000011 		HRR	T1,AD
 11407	044161	602 01 0 00 010000 		TRNE	T,ARRARL
 11408	044162	544 02 0 00 000006 		HLR	T1,AR
 11409	044163	602 01 0 00 020000 		TRNE	T,ARLARR
 11410	044164	504 02 0 00 000006 		HRL	T1,AR
 11411	044165	640 01 0 00 022000 		TRC	T,ARFLGS
 11412	044166	646 01 0 00 022000 		TRCN	T,ARFLGS
 11413	044167	500 02 0 00 000013 		HLL	T1,PC
 11414	044170	640 01 0 00 014000 		TRC	T,ARPCEN
 11415	044171	646 01 0 00 014000 		TRCN	T,ARPCEN
 11416	044172	540 02 0 00 047060 		HRR	T1,PCP1G
 11417	044173	602 01 0 00 040000 		TRNE	T,ARIREN
 11418	044174	434 02 0 00 000016 		IOR	T1,IR
 11419
 11420	044175	332 00 0 00 046735 	ARMIX1:	SKIPE	ARSMR#
 11421	044176	260 17 0 00 044246 		PUSHJ	P,ARMIX6
 11422	044177	332 00 0 00 046726 		SKIPE	ARESAEN#
 11423	044200	260 17 0 00 044233 		PUSHJ	P,ARMIX7
 11424	044201	602 01 0 00 000200 		TRNE	T,ARSHLT
 11425	044202	260 17 0 00 044270 		PUSHJ	P,ARLT
 11426	044203	602 01 0 00 000100 		TRNE	T,ARSHRT
 11427	044204	260 17 0 00 044314 		PUSHJ	P,ARRT1
 11428	044205	602 01 0 00 000040 		TRNE	T,ARSHR2
 11429	044206	260 17 0 00 044326 		PUSHJ	P,ARRT2
 11430	044207	602 01 0 00 000400 		TRNE	T,ARCLR
 11431	044210	476 00 0 00 046725 		SETOM	ARCLK
 11432	044211	336 00 0 00 046734 		SKIPN	ARPOSEN
 11433	044212	254 00 0 00 044220 		JRST	ARMIX5
 11434	044213	200 03 0 00 047074 		MOVE	T2,SA
 11435	044214	200 04 0 00 000006 		MOVE	T3,AR
 11436	044215	137 03 0 00 046411 		DPB	T2,[POINT 6,T3,5]
 11437	044216	434 02 0 00 000004 		IOR	T1,T3
 11438	044217	476 00 0 00 046725 		SETOM	ARCLK
 11439	044220	602 00 0 00 000020 	ARMIX5:	TRNE	F,FLAG1
 11440	044221	254 00 0 00 044254 		JRST	ARMIX2
 11441	044222	332 03 0 00 046733 	ARMIX8:	SKIPE	T2,ARMQEN#
 11442	044223	434 02 0 00 000007 		IOR	T1,MQ
 11443	044224	332 00 0 00 046730 	ARMIX3:	SKIPE	ARI08
 11444	044225	661 02 0 00 001000 		TLO	T1,1000
 11445	044226	402 00 0 00 046730 		SETZM	ARI08
 11446	044227	202 02 0 00 046732 		MOVEM	T1,ARMIX#
 11447	044230	322 03 0 00 030065 		JUMPE	T2,CPOPJ
 11448	044231	476 00 0 00 046725 	ARMIX4:	SETOM	ARCLK
 11449	044232	263 17 0 00 000000 		POPJ	P,
DBKDA	DECSYSTEM10 KI10 ARITHMETIC RELIABILITY TEST, VER 0,3	MACRO %51(414) 14:29  9-JUN-76 PAGE 61
KI10A2	MAC	 9-JUN-76 13:56		REGISTER MIXERS, ETC.                                                          *** SEQ 0302

 11450	044233	200 03 0 00 047074 	ARMIX7:	MOVE	T2,SA
 11451	044234	405 03 0 00 000377 		ANDI	T2,377
 11452	044235	640 03 0 00 000200 		TRC	T2,200
 11453	044236	241 03 0 00 777767 		ROT	T2,-11
 11454	044237	434 02 0 00 000003 		IOR	T1,T2
 11455	044240	200 03 0 00 000006 		MOVE	T2,AR
 11456	044241	554 04 0 00 000016 		HLRZ	T3,IR
 11457	044242	640 04 0 00 131000 		TRC	T3,(DFN)
 11458	044243	606 04 0 00 777000 		TRNN	T3,777000
 11459	044244	641 03 0 00 400000 		TLC	T2,(1B0)
 11460	044245	334 00 0 00 000000 		SKIPA
 11461
 11462	044246	331 03 0 00 000006 	ARMIX6:	SKIPL	T2,AR
 11463	044247	625 03 0 00 377000 		TLZA	T2,377000
 11464	044250	661 03 0 00 377000 		TLO	T2,377000
 11465	044251	434 02 0 00 000003 		IOR	T1,T2
 11466	044252	476 00 0 00 046725 		SETOM	ARCLK
 11467	044253	263 17 0 00 000000 		POPJ	P,
 11468
 11469	044254	554 04 0 00 000016 	ARMIX2:	HLRZ	T3,IR
 11470	044255	640 04 0 00 220000 		TRC	T3,(IMUL)
 11471	044256	602 04 0 00 770000 		TRNE	T3,770000
 11472	044257	254 00 0 00 044222 		JRST	ARMIX8
 11473	044260	336 03 0 00 046733 		SKIPN	T2,ARMQEN
 11474	044261	254 00 0 00 044224 		JRST	ARMIX3
 11475	044262	200 03 0 00 000007 		MOVE	T2,MQ
 11476	044263	607 06 0 00 400000 		TLNN	AR,(1B0)
 11477	044264	625 03 0 00 400000 		TLZA	T2,(1B0)
 11478	044265	661 03 0 00 400000 		TLO	T2,(1B0)
 11479	044266	434 02 0 00 000003 		IOR	T1,T2
 11480	044267	265 03 0 00 044224 		JSP	T2,ARMIX3
 11481
 11482	044270	200 04 0 00 047110 	ARLT:	MOVE	T3,SINDEX#
 11483	044271	550 03 0 00 047113 		HRRZ	T2,STATE
 11484	044272	302 03 0 00 043324 		CAIE	T2,DFDT3
 11485	044273	634 03 0 00 000003 		TDZA	T2,T2
 11486	044274	476 00 0 00 000003 		SETOM	T2
 11487	044275	404 03 0 00 000012 		AND	T2,MB
 11488	044276	202 03 0 00 046731 		MOVEM	T2,ARLTEM#
 11489	044277	332 00 0 00 046763 		SKIPE	DSF2
 11490	044300	254 00 0 00 044305 		JRST	ARLT1
 11491	044301	554 03 0 00 000016 		HLRZ	T2,IR
 11492	044302	640 03 0 00 170000 		TRC	T2,(FDV)
 11493	044303	606 03 0 00 770000 		TRNN	T2,770000
 11494	044304	254 00 0 00 044307 		JRST	.+3
DBKDA	DECSYSTEM10 KI10 ARITHMETIC RELIABILITY TEST, VER 0,3	MACRO %51(414) 14:29  9-JUN-76 PAGE 62
KI10A2	MAC	 9-JUN-76 13:56		REGISTER MIXERS, ETC.                                                          *** SEQ 0303

 11495	044305	135 03 0 04 044701 	ARLT1:	LDB	T2,AR35L(T3)
 11496	044306	434 02 0 00 000003 		IOR	T1,T2
 11497	044307	135 03 0 04 044666 		LDB	T2,AR0L(T3)
 11498	044310	200 04 0 00 000011 		MOVE	T3,AD
 11499	044311	242 04 0 00 000002 		LSH	T3,2
 11500	044312	245 03 0 00 777777 		ROTC	T2,-1
 11501	044313	254 00 0 00 044324 		JRST	ARRT1A
 11502
 11503	044314	200 04 0 00 047110 	ARRT1:	MOVE	T3,SINDEX
 11504	044315	135 03 0 04 044714 		LDB	T2,AR0R1(T3)
 11505	044316	241 03 0 00 777777 		ROT	T2,-1
 11506	044317	434 02 0 00 000003 		IOR	T1,T2
 11507	044320	135 03 0 04 044755 		LDB	T2,AR1R1(T3)
 11508	044321	200 04 0 00 000011 		MOVE	T3,AD
 11509	044322	242 04 0 00 000001 		LSH	T3,1
 11510	044323	245 03 0 00 777776 		ROTC	T2,-2
 11511	044324	434 02 0 00 000004 	ARRT1A:	IOR	T1,T3
 11512	044325	254 00 0 00 044231 		JRST	ARMIX4
 11513
 11514	044326	200 04 0 00 047110 	ARRT2:	MOVE	T3,SINDEX
 11515	044327	135 03 0 04 044727 		LDB	T2,AR0R2(T3)
 11516	044330	241 03 0 00 777777 		ROT	T2,-1
 11517	044331	434 02 0 00 000003 		IOR	T1,T2
 11518	044332	135 03 0 04 044742 		LDB	T2,AR1R2(T3)
 11519	044333	135 04 0 04 044755 		LDB	T3,AR2R2(T3)
 11520	044334	242 03 0 00 000001 		LSH	T2,1
 11521	044335	434 03 0 00 000004 		IOR	T2,T3
 11522	044336	200 04 0 00 000011 		MOVE	T3,AD
 11523	044337	242 04 0 00 000001 		LSH	T3,1
 11524	044340	245 03 0 00 777775 		ROTC	T2,-3
 11525	044341	254 00 0 00 044324 		JRST	ARRT1A
DBKDA	DECSYSTEM10 KI10 ARITHMETIC RELIABILITY TEST, VER 0,3	MACRO %51(414) 14:29  9-JUN-76 PAGE 63
KI10A2	MAC	 9-JUN-76 13:56		REGISTER MIXERS, ETC.                                                          *** SEQ 0304

 11526	044342	403 02 0 00 047045 	MQMIXR:	SETZB	T1,MQCLK
 11527	044343	602 01 0 00 000010 		TRNE	T,MQADEN
 11528	044344	260 17 0 00 044377 		PUSHJ	P,MQLTB
 11529	044345	602 01 0 00 000004 		TRNE	T,MQSHLT
 11530	044346	260 17 0 00 044357 		PUSHJ	P,MQLT
 11531	044347	602 01 0 00 000002 		TRNE	T,MQSHRT
 11532	044350	260 17 0 00 044402 		PUSHJ	P,MQRT1
 11533	044351	602 01 0 00 000001 		TRNE	T,MQSHR2
 11534	044352	260 17 0 00 044417 		PUSHJ	P,MQRT2
 11535	044353	602 01 0 00 000020 		TRNE	T,MQCLR
 11536	044354	476 00 0 00 047045 		SETOM	MQCLK
 11537	044355	202 02 0 00 047046 		MOVEM	T1,MQMIX#
 11538	044356	263 17 0 00 000000 		POPJ	P,
 11539
 11540	044357	200 04 0 00 047110 	MQLT:	MOVE	T3,SINDEX
 11541	044360	452 11 0 00 047051 		SETCAM	AD,NEGAD#
 11542	044361	336 00 0 00 046763 		SKIPN	DSF2
 11543	044362	402 00 0 00 047051 		SETZM	NEGAD
 11544	044363	200 03 0 00 046722 		MOVE	T2,ADX
 11545	044364	452 03 0 00 047052 		SETCAM	T2,NEGADX#
 11546	044365	135 03 0 04 045120 		LDB	T2,MQ35L(T3)
 11547	044366	434 02 0 00 000003 		IOR	T1,T2
 11548	044367	135 03 0 04 045016 		LDB	T2,MQ0L(T3)
 11549	044370	200 04 0 00 000007 		MOVE	T3,MQ
 11550	044371	242 04 0 00 000002 		LSH	T3,2
 11551	044372	245 03 0 00 777777 		ROTC	T2,-1
 11552	044373	200 03 0 00 047110 		MOVE	T2,SINDEX
 11553	044374	306 03 0 00 000010 		CAIN	T2,10		;FP SHIFT
 11554	044375	621 04 0 00 002000 		TLZ	T3,(1B7)
 11555	044376	674 02 0 00 000004 	MQLTA:	TDOA	T1,T3
 11556	044377	434 02 0 00 000011 	MQLTB:	IOR	T1,AD
 11557	044400	476 00 0 00 047045 		SETOM	MQCLK
 11558	044401	263 17 0 00 000000 		POPJ	P,
 11559
 11560	044402	200 04 0 00 047110 	MQRT1:	MOVE	T3,SINDEX
 11561	044403	135 03 0 04 045146 		LDB	T2,MQ8R1(T3)
 11562	044404	241 03 0 00 777767 		ROT	T2,-11
 11563	044405	434 02 0 00 000003 		IOR	T1,T2
 11564	044406	135 03 0 04 045057 		LDB	T2,MQ0R1(T3)
 11565	044407	135 04 0 04 045072 		LDB	T3,MQ1R1(T3)
 11566	044410	242 03 0 00 000001 		LSH	T2,1
 11567	044411	434 03 0 00 000004 		IOR	T2,T3
 11568	044412	200 04 0 00 000007 		MOVE	T3,MQ
 11569	044413	242 04 0 00 000001 		LSH	T3,1
 11570	044414	245 03 0 00 777776 		ROTC	T2,-2
 11571	044415	621 04 0 00 001000 		TLZ	T3,(1B8)
 11572	044416	254 00 0 00 044376 		JRST	MQLTA
DBKDA	DECSYSTEM10 KI10 ARITHMETIC RELIABILITY TEST, VER 0,3	MACRO %51(414) 14:29  9-JUN-76 PAGE 64
KI10A2	MAC	 9-JUN-76 13:56		REGISTER MIXERS, ETC.                                                          *** SEQ 0305

 11573	044417	200 04 0 00 047110 	MQRT2:	MOVE	T3,SINDEX
 11574	044420	135 03 0 04 045133 		LDB	T2,MQ8R2(T3)
 11575	044421	241 03 0 00 777767 		ROT	T2,-11
 11576	044422	434 02 0 00 000003 		IOR	T1,T2
 11577	044423	135 03 0 04 045146 		LDB	T2,MQ9R2(T3)
 11578	044424	241 03 0 00 777766 		ROT	T2,-12
 11579	044425	434 02 0 00 000003 		IOR	T1,T2
 11580	044426	135 03 0 04 045031 		LDB	T2,MQ0R2(T3)
 11581	044427	241 03 0 00 777777 		ROT	T2,-1
 11582	044430	434 02 0 00 000003 		IOR	T1,T2
 11583	044431	135 03 0 04 045044 		LDB	T2,MQ1R2(T3)
 11584	044432	135 04 0 04 045105 		LDB	T3,MQ2R2(T3)
 11585	044433	242 03 0 00 000001 		LSH	T2,1
 11586	044434	434 03 0 00 000004 		IOR	T2,T3
 11587	044435	200 04 0 00 000007 		MOVE	T3,MQ
 11588	044436	242 04 0 00 000001 		LSH	T3,1
 11589	044437	245 03 0 00 777775 		ROTC	T2,-3
 11590	044440	621 04 0 00 001400 		TLZ	T3,(3B9)
 11591	044441	254 00 0 00 044376 		JRST	MQLTA
 11592
 11593	044442	200 04 0 00 047100 	MBMIXR:	MOVE	T3,SCADEN
 11594	044443	403 02 0 00 047031 		SETZB	T1,MBCLK
 11595	044444	603 04 0 00 000002 		TLNE	T3,MBAREN
 11596	044445	260 17 0 00 044452 		PUSHJ	P,MBMIX1
 11597	044446	603 04 0 00 000001 		TLNE	T3,MBFMEN
 11598	044447	260 17 0 00 044453 		PUSHJ	P,MBMIX2
 11599	044450	202 02 0 00 047032 		MOVEM	T1,MBMIX
 11600	044451	263 17 0 00 000000 		POPJ	P,
 11601
 11602	044452	674 02 0 00 000006 	MBMIX1:	TDOA	T1,AR
 11603	044453	434 02 1 00 046773 	MBMIX2:	IOR	T1,@FMREG
 11604	044454	476 00 0 00 047031 		SETOM	MBCLK
 11605	044455	263 17 0 00 000000 		POPJ	P,
 11606
 11607	044456	200 04 0 00 047100 	SCMIXR:	MOVE	T3,SCADEN
 11608	044457	403 02 0 00 047102 		SETZB	T1,SCCLK
 11609	044460	571 03 0 15 000001 		HRREI	T2,1(SC)
 11610	044461	602 00 0 00 000400 		TRNE	F,SCP1IN
 11611	044462	200 03 0 00 000015 		MOVE	T2,SC
 11612	044463	602 04 0 00 200000 		TRNE	T3,SCSCP1
 11613	044464	260 17 0 00 044503 		PUSHJ	P,SCMIX3
 11614	044465	602 04 0 00 100000 		TRNE	T3,SCSHRT
 11615	044466	260 17 0 00 044502 		PUSHJ	P,SCMIX4
 11616	044467	602 04 0 00 040000 		TRNE	T3,SCAREN
 11617	044470	260 17 0 00 044475 		PUSHJ	P,SCMIX5
 11618	044471	602 04 0 00 020000 		TRNE	T3,SCSAEN
 11619	044472	260 17 0 00 044506 		PUSHJ	P,SCMIX1
 11620	044473	202 02 0 00 047104 		MOVEM	T1,SCMIX
 11621	044474	263 17 0 00 000000 		POPJ	P,
DBKDA	DECSYSTEM10 KI10 ARITHMETIC RELIABILITY TEST, VER 0,3	MACRO %51(414) 14:29  9-JUN-76 PAGE 65
KI10A2	MAC	 9-JUN-76 13:56		REGISTER MIXERS, ETC.                                                          *** SEQ 0306

 11622	044475	200 03 0 00 000006 	SCMIX5:	MOVE	T2,AR
 11623	044476	405 03 0 00 000377 		ANDI	T2,377
 11624	044477	602 06 0 00 400000 		TRNE	AR,1B18
 11625	044500	465 03 0 00 000377 		ORCMI	T2,377
 11626	044501	334 00 0 00 000000 		SKIPA
 11627	044502	240 03 0 00 777777 	SCMIX4:	ASH	T2,-1
 11628	044503	670 02 0 00 000003 	SCMIX3:	TDO	T1,T2
 11629	044504	476 00 0 00 047102 		SETOM	SCCLK
 11630	044505	263 17 0 00 000000 		POPJ	P,
 11631	044506	200 03 0 00 047074 	SCMIX1:	MOVE	T2,SA
 11632	044507	405 03 0 00 000777 		ANDI	T2,777
 11633	044510	602 03 0 00 000400 		TRNE	T2,400
 11634	044511	465 03 0 00 000777 		ORCMI	T2,777
 11635	044512	254 00 0 00 044503 		JRST	SCMIX3
 11636
 11637	044513	403 02 0 00 046737 	ARXMXR:	SETZB	T1,ARXCLK
 11638	044514	250 01 0 00 047100 		EXCH	T,SCADEN
 11639	044515	603 01 0 00 000200 		TLNE	T,ARXCLR
 11640	044516	476 00 0 00 046737 		SETOM	ARXCLK
 11641	044517	603 01 0 00 000100 		TLNE	T,ARXADX
 11642	044520	260 17 0 00 044543 		PUSHJ	P,ARXMX1
 11643	044521	200 04 0 00 047110 		MOVE	T3,SINDEX
 11644	044522	603 01 0 00 000040 		TLNE	T,ARXSHL
 11645	044523	260 17 0 00 044536 		PUSHJ	P,ARXMX2
 11646	044524	603 01 0 00 000020 		TLNE	T,ARXSHR
 11647	044525	260 17 0 00 044546 		PUSHJ	P,ARXMX3
 11648	044526	603 01 0 00 000010 		TLNE	T,ARXSR2
 11649	044527	260 17 0 00 044555 		PUSHJ	P,ARXMX4
 11650	044530	603 02 0 00 001000 		TLNE	T1,(1B8)
 11651	044531	665 02 0 00 776000 		TLOA	T1,776000
 11652	044532	621 02 0 00 776000 		TLZ	T1,776000
 11653	044533	202 02 0 00 046740 		MOVEM	T1,ARXMIX
 11654	044534	250 01 0 00 047100 		EXCH	T,SCADEN
 11655	044535	263 17 0 00 000000 		POPJ	P,
 11656
 11657	044536	200 03 0 00 046722 	ARXMX2:	MOVE	T2,ADX
 11658	044537	242 03 0 00 000001 		LSH	T2,1
 11659	044540	434 02 0 00 000003 		IOR	T1,T2
 11660	044541	135 03 0 04 044770 		LDB	T2,ARX35L(T3)
 11661	044542	674 02 0 00 000003 	ARXMX5:	TDOA	T1,T2
 11662
 11663	044543	434 02 0 00 046722 	ARXMX1:	IOR	T1,ADX
 11664	044544	476 00 0 00 046737 		SETOM	ARXCLK#
 11665	044545	263 17 0 00 000000 		POPJ	P,
DBKDA	DECSYSTEM10 KI10 ARITHMETIC RELIABILITY TEST, VER 0,3	MACRO %51(414) 14:29  9-JUN-76 PAGE 66
KI10A2	MAC	 9-JUN-76 13:56		REGISTER MIXERS, ETC.                                                          *** SEQ 0307

 11666	044546	200 03 0 00 046722 	ARXMX3:	MOVE	T2,ADX
 11667	044547	242 03 0 00 777777 		LSH	T2,-1
 11668	044550	621 03 0 00 777000 		TLZ	T2,777000
 11669	044551	434 02 0 00 000003 		IOR	T1,T2
 11670	044552	135 03 0 04 045003 		LDB	T2,ARX0R1(T3)
 11671	044553	241 03 0 00 777767 		ROT	T2,-11
 11672	044554	254 00 0 00 044542 		JRST	ARXMX5
 11673
 11674	044555	200 03 0 00 046722 	ARXMX4:	MOVE	T2,ADX
 11675	044556	240 03 0 00 777776 		ASH	T2,-2
 11676	044557	254 00 0 00 044542 		JRST	ARXMX5
 11677
 11678	044560	621 00 0 00 777770 	ADCLK:	TLZ	F,777770
 11679	044561	650 00 0 00 000001 		TDC	F,T
 11680	044562	621 01 0 00 777770 		TLZ	T,777770
 11681	044563	650 00 0 00 000001 		TDC	F,T
 11682	044564	200 02 0 00 047100 		MOVE	T1,SCADEN
 11683	044565	202 02 0 00 047101 		MOVEM	T1,SCADFF#
 11684	044566	622 00 0 00 000010 		TRZE	F,DSF2CLR
 11685	044567	402 00 0 00 046763 		SETZM	DSF2#
 11686	044570	622 00 0 00 000004 		TRZE	F,DSF2SET
 11687	044571	476 00 0 00 046763 		SETOM	DSF2
 11688	044572	263 17 0 00 000000 		POPJ	P,
 11689
 11690	044573	602 01 0 00 700000 	ABCLK:	TRNE	T,ABADEN+ABPCEN+ABABEN	;IF NONE AND
 11691	044574	254 00 0 00 044577 		JRST	.+3
 11692	044575	603 01 0 00 000004 		TLNE	T,INFTST		;INST FETCH START
 11693	044576	660 01 0 00 200000 		TRO	T,ABABEN		;SET ABABEN
 11694	044577	602 01 0 00 700000 		TRNE	T,ABADEN+ABPCEN+ABABEN		;IF ENABLE, CLEAR OTHER FLOPS
 11695	044600	620 00 0 00 700002 		TRZ	F,ABAD+ABAB+ABPC+ABAS
 11696	044601	602 01 0 00 100000 		TRNE	T,ABPCEN		;SET FLOPS
 11697	044602	660 00 0 00 100000 		TRO	F,ABPC
 11698	044603	602 01 0 00 400000 		TRNE	T,ABADEN
 11699	044604	660 00 0 00 400000 		TRO	F,ABAD
 11700	044605	602 01 0 00 200000 		TRNE	T,ABABEN
 11701	044606	660 00 0 00 200000 		TRO	F,ABAB
 11702	044607	263 17 0 00 000000 		POPJ	P,
 11703
 11704	044610	331 02 0 00 046771 	FMWR:	SKIPL	T1,FMADMA
 11705	044611	135 02 0 00 046772 		LDB	T1,FMADREN
 11706	044612	201 02 0 02 032403 		MOVEI	T1,ACS(T1)
 11707	044613	312 02 0 00 046773 		CAME	T1,FMREG
 11708	044614	264 00 0 00 044005 		JSR	ERR
 11709	044615	202 06 0 02 000000 		MOVEM	AR,(T1)
 11710	044616	332 00 0 00 047076 		SKIPE	SACBRFF
 11711	044617	202 10 0 02 000000 		MOVEM	BR,(T1)
 11712	044620	263 17 0 00 000000 		POPJ	P,
 11713
DBKDA	DECSYSTEM10 KI10 ARITHMETIC RELIABILITY TEST, VER 0,3	MACRO %51(414) 14:29  9-JUN-76 PAGE 67
KI10A2	MAC	 9-JUN-76 13:56		REGISTER MIXERS, ETC.                                                          *** SEQ 0308

 11714	044621	200 03 0 00 045605 	TIMCAL:	MOVE	T2,LONGTM
 11715	044622	335 04 0 00 047101 		SKIPGE	T3,SCADFF
 11716	044623	200 03 0 00 045606 		MOVE	T2,DPADTM
 11717	044624	321 04 0 00 044635 		JUMPL	T3,TIMC1
 11718	044625	606 00 0 00 040000 		TRNN	F,LNGCYC
 11719	044626	200 03 0 00 045604 		MOVE	T2,ADTIME
 11720	044627	607 00 0 00 040000 		TLNN	F,ADADD
 11721	044630	602 04 0 00 000100 		TRNE	T3,SAADD
 11722	044631	254 00 0 00 044635 		JRST	TIMC1
 11723	044632	200 03 0 00 045604 		MOVE	T2,ADTIME
 11724	044633	606 00 0 00 040000 		TRNN	F,LNGCYC
 11725	044634	200 03 0 00 045603 		MOVE	T2,VERTIM
 11726	044635	272 03 0 00 047145 	TIMC1:	ADDM	T2,TIME
 11727	044636	263 17 0 00 000000 		POPJ	P,
 11728
 11729	044637	261 17 0 00 000003 	MPYFCN:	PUSH	P,T2
 11730	044640	260 17 0 00 044342 		PUSHJ	P,MQMIXR
 11731	044641	262 17 0 00 000003 		POP	P,T2
 11732	044642	200 02 0 00 047046 		MOVE	T1,MQMIX
 11733	044643	602 00 0 00 000020 		TRNE	F,FLAG1
 11734	044644	271 02 0 00 000001 		ADDI	T1,1
 11735	044645	405 02 0 00 000003 		ANDI	T1,3
 11736	044646	254 00 0 02 044647 		JRST	.+1(T1)
 11737	044647	263 17 0 00 000000 		POPJ	P,
 11738	044650	254 00 0 00 044657 		JRST	MPYFN1
 11739	044651	254 00 0 00 044656 		JRST	MPYFN2
 11740	044652	660 00 0 00 000020 		TRO	F,FLAG1
 11741	044653	661 01 0 00 061000 	MPYFN5:	TLO	T,ADBRMI+ADADD+ADCR36
 11742	044654	661 03 0 00 040000 		TLO	T2,ADXFMM
 11743	044655	254 00 0 00 044663 		JRST	MPYFN4
 11744
 11745	044656	665 01 0 00 040000 	MPYFN2:	TLOA	T,ADADD
 11746	044657	665 01 0 00 040600 	MPYFN1:	TLOA	T,ADBRPL+ADADD
 11747	044660	665 03 0 00 021000 		TLOA	T2,ADXFM2+ADBRP2
 11748	044661	661 03 0 00 100000 		TLO	T2,ADXFMP
 11749	044662	620 00 0 00 000020 	MPYFN3:	TRZ	F,FLAG1
 11750	044663	607 16 0 00 040000 	MPYFN4:	TLNN	IR,(1B3)
 11751	044664	661 03 0 00 400000 		TLO	T2,ADXADD
 11752	044665	263 17 0 00 000000 		POPJ	P,
 11753
DBKDA	DECSYSTEM10 KI10 ARITHMETIC RELIABILITY TEST, VER 0,3	MACRO %51(414) 14:29  9-JUN-76 PAGE 68
KI10A2	MAC	 9-JUN-76 13:56		SHIFT CONNECTIONS                                                              *** SEQ 0309

 11754					SUBTTL	SHIFT CONNECTIONS
 11755
 11756						DEFINE	PT(ADR,BIT)
 11757					<	POINT	1,ADR,BIT>
 11758
 11759	044666	42 01 0 00 000011 	AR0L:	PT AD,1^	POINT	1,AD,1^
 11760	044667	42 01 0 00 000011 		PT AD,1^	POINT	1,AD,1^
 11761	044670	42 01 0 00 000011 		PT AD,1^	POINT	1,AD,1^
 11762	044671	42 01 0 00 000011 		PT AD,1^	POINT	1,AD,1^
 11763	044672	43 01 0 00 000006 		PT AR,0^	POINT	1,AR,0^
 11764	044673	43 01 0 00 000006 		PT AR,0^	POINT	1,AR,0^
 11765	044674	42 01 0 00 000011 		PT AD,1^	POINT	1,AD,1^
 11766	044675	000000	000000			0
 11767	044676	42 01 0 00 000011 		PT AD,1^	POINT	1,AD,1^
 11768	044677	000000	000000			0
 11769	044700	42 01 0 00 000011 		PT AD,1^	POINT	1,AD,1^
 11770
 11771	044701	000000	000000		AR35L:	0
 11772	044702	43 01 0 00 000006 		PT AR,0^	POINT	1,AR,0^
 11773	044703	43 01 0 00 000007 		PT MQ,0^	POINT	1,MQ,0^
 11774	044704	43 01 0 00 000007 		PT MQ,0^	POINT	1,MQ,0^
 11775	044705	000000	000000			0
 11776	044706	42 01 0 00 000007 		PT MQ,1^	POINT	1,MQ,1^
 11777	044707	43 01 0 00 000007 		PT MQ,0^	POINT	1,MQ,0^
 11778	044710	42 01 0 00 000007 		PT MQ,1^	POINT	1,MQ,1^
 11779	044711	33 01 0 00 000007 		PT MQ,8^	POINT	1,MQ,8^
 11780	044712	00 01 0 00 046731 		PT ARLTEM,35^	POINT	1,ARLTEM,35^
 11781	044713	42 01 0 00 000007 		PT MQ,1^	POINT	1,MQ,1^
 11782
 11783	044714	000000	000000		AR0R1:	0
 11784	044715	00 01 0 00 000006 		PT AR,35^	POINT	1,AR,35^
 11785	044716	00 01 0 00 000007 		PT MQ,35^	POINT	1,MQ,35^
 11786	044717	000000	000000			0
 11787	044720	43 01 0 00 000006 		PT AR,0^	POINT	1,AR,0^
 11788	044721	43 01 0 00 000006 		PT AR,0^	POINT	1,AR,0^
 11789	044722	000000	000000			.-.		;DON'T CARE CONDITION
 11790	044723	000000	000000			0
 11791	044724	00 01 0 00 046716 		PT ADOVF,35^	POINT	1,ADOVF,35^
 11792	044725	000000	000000			.-.
 11793	044726	000000	000000			.-.
 11794
 11795	044727	000000	000000		AR0R2:	0
 11796	044730	01 01 0 00 000006 		PT AR,34^	POINT	1,AR,34^
 11797	044731	01 01 0 00 000007 		PT MQ,34^	POINT	1,MQ,34^
 11798	044732	000000	000000			0
 11799	044733	43 01 0 00 000006 		PT AR,0^	POINT	1,AR,0^
 11800	044734	43 01 0 00 000006 		PT AR,0^	POINT	1,AR,0^
 11801	044735	01 01 0 00 046716 		PT ADOVF,34^	POINT	1,ADOVF,34^
 11802	044736	000000	000000			0
 11803	044737	01 01 0 00 046716 		PT ADOVF,34^	POINT	1,ADOVF,34^
 11804	044740	000000	000000			.-.
 11805	044741	000000	000000			.-.
DBKDA	DECSYSTEM10 KI10 ARITHMETIC RELIABILITY TEST, VER 0,3	MACRO %51(414) 14:29  9-JUN-76 PAGE 69
KI10A2	MAC	 9-JUN-76 13:56		SHIFT CONNECTIONS                                                              *** SEQ 0310

 11806	044742	000000	000000		AR1R2:	0
 11807	044743	00 01 0 00 000006 		PT AR,35^	POINT	1,AR,35^
 11808	044744	00 01 0 00 000007 		PT MQ,35^	POINT	1,MQ,35^
 11809	044745	000000	000000			0
 11810	044746	43 01 0 00 000006 		PT AR,0^	POINT	1,AR,0^
 11811	044747	43 01 0 00 000006 		PT AR,0^	POINT	1,AR,0^
 11812	044750	00 01 0 00 046716 		PT ADOVF,35^	POINT	1,ADOVF,35^
 11813	044751	01 01 0 00 046722 		PT ADX,34^	POINT	1,ADX,34^
 11814	044752	00 01 0 00 046716 		PT ADOVF,35^	POINT	1,ADOVF,35^
 11815	044753	000000	000000			.-.
 11816	044754	000000	000000			.-.
 11817
 11818	044755				AR1R1:
 11819	044755	43 01 0 00 000011 	AR2R2:	PT AD,0^	POINT	1,AD,0^
 11820	044756	43 01 0 00 000011 		PT AD,0^	POINT	1,AD,0^
 11821	044757	43 01 0 00 000011 		PT AD,0^	POINT	1,AD,0^
 11822	044760	43 01 0 00 000011 		PT AD,0^	POINT	1,AD,0^
 11823	044761	43 01 0 00 000011 		PT AD,0^	POINT	1,AD,0^
 11824	044762	43 01 0 00 000011 		PT AD,0^	POINT	1,AD,0^
 11825	044763	43 01 0 00 000011 		PT AD,0^	POINT	1,AD,0^
 11826	044764	00 01 0 00 046722 		PT ADX,35^	POINT	1,ADX,35^
 11827	044765	43 01 0 00 000011 		PT AD,0^	POINT	1,AD,0^
 11828	044766	000000	000000			.-.
 11829	044767	000000	000000			.-.
 11830
 11831	044770	000000	000000		ARX35L:	.-.
 11832	044771	000000	000000			.-.
 11833	044772	000000	000000			.-.
 11834	044773	000000	000000			.-.
 11835	044774	000000	000000			.-.
 11836	044775	000000	000000			.-.
 11837	044776	000000	000000			.-.
 11838	044777	42 01 0 00 000011 		PT AD,1^	POINT	1,AD,1^
 11839	045000	000000	000000			.-.
 11840	045001	42 01 0 00 046720 		PT ADPR,1^	POINT	1,ADPR,1^
 11841	045002	000000	000000			.-.
 11842
 11843	045003				ARX9R2:
 11844	045003	000000	000000		ARX0R1:	.-.
 11845	045004	000000	000000			.-.
 11846	045005	000000	000000			.-.
 11847	045006	000000	000000			.-.
 11848	045007	000000	000000			.-.
 11849	045010	000000	000000			.-.
 11850	045011	000000	000000			.-.
 11851	045012	34 01 0 00 046722 		PT ADX,7^	POINT	1,ADX,7^
 11852	045013	000000	000000			.-.
 11853	045014	000000	000000			0
 11854	045015	000000	000000			.-.
DBKDA	DECSYSTEM10 KI10 ARITHMETIC RELIABILITY TEST, VER 0,3	MACRO %51(414) 14:29  9-JUN-76 PAGE 70
KI10A2	MAC	 9-JUN-76 13:56		SHIFT CONNECTIONS                                                              *** SEQ 0311

 11855	045016	42 01 0 00 000007 	MQ0L:	PT MQ,1^	POINT	1,MQ,1^
 11856	045017	000000	000000			.-.
 11857	045020	42 01 0 00 000007 		PT MQ,1^	POINT	1,MQ,1^
 11858	045021	42 01 0 00 000007 		PT MQ,1^	POINT	1,MQ,1^
 11859	045022	000000	000000			.-.
 11860	045023	43 01 0 00 000011 		PT AD,0^	POINT	1,AD,0^
 11861	045024	42 01 0 00 000007 		PT MQ,1^	POINT	1,MQ,1^
 11862	045025	000000	000000			0
 11863	045026	000000	000000			.-.
 11864	045027	42 01 0 00 000007 		PT MQ,1^	POINT	1,MQ,1^
 11865	045030	000000	000000			.-.
 11866
 11867	045031	000000	000000		MQ0R2:	.-.
 11868	045032	000000	000000			.-.
 11869	045033	01 01 0 00 000011 		PT AD,34^	POINT	1,AD,34^
 11870	045034	01 01 0 00 000011 		PT AD,34^	POINT	1,AD,34^
 11871	045035	000000	000000			.-.
 11872	045036	43 01 0 00 000011 		PT AD,0^	POINT	1,AD,0^
 11873	045037	01 01 0 00 000011 		PT AD,34^	POINT	1,AD,34^
 11874	045040	000000	000000			0
 11875	045041	000000	000000			.-.
 11876	045042	000000	000000			.-.
 11877	045043	000000	000000			.-.
 11878
 11879	045044	000000	000000		MQ1R2:	.-.
 11880	045045	000000	000000			.-.
 11881	045046	00 01 0 00 000011 		PT AD,35^	POINT	1,AD,35^
 11882	045047	00 01 0 00 000011 		PT AD,35^	POINT	1,AD,35^
 11883	045050	000000	000000			.-.
 11884	045051	01 01 0 00 000011 		PT AD,34^	POINT	1,AD,34^
 11885	045052	00 01 0 00 000011 		PT AD,35^	POINT	1,AD,35^
 11886	045053	01 01 0 00 000011 		PT AD,34^	POINT	1,AD,34^
 11887	045054	000000	000000			.-.
 11888	045055	000000	000000			.-.
 11889	045056	000000	000000			.-.
 11890
 11891	045057	000000	000000		MQ0R1:	.-.
 11892	045060	000000	000000			.-.
 11893	045061	00 01 0 00 000006 		PT AR,35^	POINT	1,AR,35^
 11894	045062	00 01 0 00 000006 		PT AR,35^	POINT	1,AR,35^
 11895	045063	000000	000000			.-.
 11896	045064	43 01 0 00 000011 		PT AD,0^	POINT	1,AD,0^
 11897	045065	000000	000000			.-.
 11898	045066	000000	000000			0
 11899	045067	000000	000000			.-.
 11900	045070	000000	000000			0
 11901	045071	000000	000000			.-.
 11902
DBKDA	DECSYSTEM10 KI10 ARITHMETIC RELIABILITY TEST, VER 0,3	MACRO %51(414) 14:29  9-JUN-76 PAGE 71
KI10A2	MAC	 9-JUN-76 13:56		SHIFT CONNECTIONS                                                              *** SEQ 0312

 11903	045072	000000	000000		MQ1R1:	.-.
 11904	045073	000000	000000			.-.
 11905	045074	43 01 0 00 000007 		PT MQ,0^	POINT	1,MQ,0^
 11906	045075	43 01 0 00 000007 		PT MQ,0^	POINT	1,MQ,0^
 11907	045076	000000	000000			.-.
 11908	045077	00 01 0 00 000011 		PT AD,35^	POINT	1,AD,35^
 11909	045100	000000	000000			.-.
 11910	045101	00 01 0 00 000011 		PT AD,35^	POINT	1,AD,35^
 11911	045102	000000	000000			.-.
 11912	045103	00 01 0 00 046736 		PT ARX,35^	POINT	1,ARX,35^
 11913	045104	000000	000000			.-.
 11914
 11915	045105	000000	000000		MQ2R2:	.-.
 11916	045106	000000	000000			.-.
 11917	045107	43 01 0 00 000007 		PT MQ,0^	POINT	1,MQ,0^
 11918	045110	43 01 0 00 000007 		PT MQ,0^	POINT	1,MQ,0^
 11919	045111	000000	000000			.-.
 11920	045112	00 01 0 00 000011 		PT AD,35^	POINT	1,AD,35^
 11921	045113	43 01 0 00 000007 		PT MQ,0^	POINT	1,MQ,0^
 11922	045114	00 01 0 00 000011 		PT AD,35^	POINT	1,AD,35^
 11923	045115	000000	000000			.-.
 11924	045116	000000	000000			.-.
 11925	045117	000000	000000			.-.
 11926
 11927	045120	000000	000000		MQ35L:	0
 11928	045121	000000	000000			.-.
 11929	045122	43 01 0 00 000006 		PT AR,0^	POINT	1,AR,0^
 11930	045123	000000	000000			0
 11931	045124	000000	000000			.-.
 11932	045125	000000	000000			0
 11933	045126	000000	000000			.-.
 11934	045127	000000	000000			0
 11935	045130	43 01 0 00 047051 		PT NEGAD,0^	POINT	1,NEGAD,0^
 11936	045131	33 01 0 00 047052 		PT NEGADX,8^	POINT	1,NEGADX,8^
 11937	045132	43 01 0 00 047051 		PT NEGAD,0^	POINT	1,NEGAD,0^
 11938
DBKDA	DECSYSTEM10 KI10 ARITHMETIC RELIABILITY TEST, VER 0,3	MACRO %51(414) 14:29  9-JUN-76 PAGE 72
KI10A2	MAC	 9-JUN-76 13:56		SHIFT CONNECTIONS                                                              *** SEQ 0313

 11939	045133	000000	000000		MQ8R2:	.-.
 11940	045134	000000	000000			.-.
 11941	045135	35 01 0 00 000007 		PT MQ,6^	POINT	1,MQ,6^
 11942	045136	35 01 0 00 000007 		PT MQ,6^	POINT	1,MQ,6^
 11943	045137	000000	000000			.-.
 11944	045140	35 01 0 00 000007 		PT MQ,6^	POINT	1,MQ,6^
 11945	045141	35 01 0 00 000007 		PT MQ,6^	POINT	1,MQ,6^
 11946	045142	35 01 0 00 000007 		PT MQ,6^	POINT	1,MQ,6^
 11947	045143	01 01 0 00 000011 		PT AD,34^	POINT	1,AD,34^
 11948	045144	000000	000000			.-.
 11949	045145	000000	000000			.-.
 11950
 11951	045146				MQ9R2:
 11952	045146	000000	000000		MQ8R1:	.-.
 11953	045147	000000	000000			.-.
 11954	045150	34 01 0 00 000007 		PT MQ,7^	POINT	1,MQ,7^
 11955	045151	34 01 0 00 000007 		PT MQ,7^	POINT	1,MQ,7^
 11956	045152	000000	000000			.-.
 11957	045153	34 01 0 00 000007 		PT MQ,7^	POINT	1,MQ,7^
 11958	045154	34 01 0 00 000007 		PT MQ,7^	POINT	1,MQ,7^
 11959	045155	34 01 0 00 000007 		PT MQ,7^	POINT	1,MQ,7^
 11960	045156	00 01 0 00 000011 		PT AD,35^	POINT	1,AD,35^
 11961	045157	34 01 0 00 000007 		PT MQ,7^	POINT	1,MQ,7^
 11962	045160	000000	000000			.-.
DBKDA	DECSYSTEM10 KI10 ARITHMETIC RELIABILITY TEST, VER 0,3	MACRO %51(414) 14:29  9-JUN-76 PAGE 73
KI10A2	MAC	 9-JUN-76 13:56		MEMORY CONTROL SUBROUTINES                                                     *** SEQ 0314

 11963					SUBTTL	MEMORY CONTROL SUBROUTINES
 11964
 11965	045161	402 00 0 00 047115 	MEMST:	SETZM	STINAC
 11966	045162	200 02 0 00 047145 		MOVE	T1,TIME
 11967	045163	271 02 0 00 000144 		ADDI	T1,PAGDLY
 11968	045164	315 02 0 00 047030 		CAMGE	T1,MAMAOFF
 11969	045165	200 02 0 00 047030 		MOVE	T1,MAMAOFF
 11970	045166	200 14 0 00 046710 	MEMSTA:	MOVE	MA,AB
 11971	045167	332 00 0 00 047034 		SKIPE	MCSPEC
 11972	045170	200 14 0 00 047033 		MOVE	MA,MCSADR
 11973	045171	200 05 0 00 046710 		MOVE	S,AB
 11974	045172	332 00 0 00 047034 		SKIPE	MCSPEC
 11975	045173	200 05 0 00 047033 		MOVE	S,MCSADR
 11976	045174	305 05 0 00 000020 		CAIGE	S,20
 11977	045175	254 00 0 00 045345 		JRST	ACREF
 11978	045176	405 05 0 00 000003 		ANDI	S,3
 11979	045177	271 02 0 00 000122 		ADDI	T1,^D82
 11980	045200	332 00 0 00 046766 		SKIPE	FCE2ST
 11981	045201	254 00 0 00 045236 		JRST	MEMST5
 11982	045202	332 00 0 00 047020 		SKIPE	INSYNC
 11983	045203	254 00 0 00 045236 		JRST	MEMST5
 11984	045204	200 04 0 00 047035 	MEMST6:	MOVE	T3,MEMDONE#
 11985	045205	332 00 0 00 047037 		SKIPE	MEMREAD
 11986	045206	254 00 0 00 045251 		JRST	MEMST1
 11987	045207	202 02 0 00 047145 		MOVEM	T1,TIME
 11988	045210	315 04 0 00 047071 		CAMGE	T3,RDRST
 11989	045211	200 04 0 00 047071 		MOVE	T3,RDRST
 11990	045212	271 04 0 00 000106 		ADDI	T3,^D70
 11991	045213	305 02 0 00 000004 		CAIGE	T1,T3
 11992	045214	200 02 0 00 000004 		MOVE	T1,T3
 11993	045215	315 02 0 05 045553 	MEMSTB:	CAMGE	T1,MEMCMP(S)
 11994	045216	200 02 0 05 045553 		MOVE	T1,MEMCMP(S)
 11995	045217	270 02 0 05 045567 		ADD	T1,ACKDLY(S)
 11996	045220	202 02 0 00 047042 		MOVEM	T1,MEMWRWT
 11997	045221	332 00 0 00 047020 		SKIPE	INSYNC
 11998	045222	260 17 0 00 045242 		PUSHJ	P,MEMST7
 11999	045223	200 04 0 00 000002 		MOVE	T3,T1
 12000	045224	271 04 0 00 000074 		ADDI	T3,^D60
 12001	045225	202 04 0 00 047030 		MOVEM	T3,MAMAOFF#
 12002	045226	270 02 0 05 045563 		ADD	T1,WARN(S)
 12003	045227	270 02 0 05 045557 		ADD	T1,CYCLE(S)
 12004	045230	271 02 0 00 000536 		ADDI	T1,WARNDLY
 12005	045231	202 02 0 05 045553 		MOVEM	T1,MEMCMP(S)
 12006
DBKDA	DECSYSTEM10 KI10 ARITHMETIC RELIABILITY TEST, VER 0,3	MACRO %51(414) 14:29  9-JUN-76 PAGE 74
KI10A2	MAC	 9-JUN-76 13:56		MEMORY CONTROL SUBROUTINES                                                     *** SEQ 0315

 12007	045232	200 02 0 00 047040 	MEMST4:	MOVE	T1,MEMSIN
 12008	045233	550 05 0 02 045506 		HRRZ	S,MEMRET-"A"(T1)
 12009	045234	402 00 0 00 047041 		SETZM	MEMWR
 12010	045235	263 17 0 00 000000 		POPJ	P,
 12011
 12012	045236	200 04 0 00 000002 	MEMST5:	MOVE	T3,T1
 12013	045237	271 04 0 00 000233 		ADDI	T3,^D155	;100(PG RDY)+30(IN SYNC)+25(AB PROP)
 12014	045240	202 04 0 00 047020 		MOVEM	T3,INSYNC
 12015	045241	254 00 0 00 045204 		JRST	MEMST6
 12016
 12017	045242	200 04 0 00 000002 	MEMST7:	MOVE	T3,T1
 12018	045243	271 04 0 00 000074 		ADDI	T3,^D60
 12019	045244	315 04 0 00 047020 		CAMGE	T3,INSYNC
 12020	045245	200 04 0 00 047020 		MOVE	T3,INSYNC
 12021	045246	271 04 0 00 000031 		ADDI	T3,^D25
 12022	045247	202 04 0 00 047020 		MOVEM	T3,INSYNC
 12023	045250	263 17 0 00 000000 		POPJ	P,
 12024
 12025	045251	271 04 0 00 000062 	MEMST1:	ADDI	T3,^D50
 12026	045252	305 02 0 00 000004 		CAIGE	T1,T3
 12027	045253	200 02 0 00 000004 		MOVE	T1,T3
 12028	045254	315 02 0 05 045553 		CAMGE	T1,MEMCMP(S)
 12029	045255	200 02 0 05 045553 		MOVE	T1,MEMCMP(S)
 12030	045256	333 00 0 05 045573 		SKIPLE	MEMFLG(S)
 12031	045257	254 00 0 00 045404 		JRST	MEMST3
 12032	045260	332 00 0 05 045573 		SKIPE	MEMFLG(S)
 12033	045261	254 00 0 00 045266 		JRST	MEMST2
 12034	045262	200 04 0 00 047155 		MOVE	T3,WARNED#
 12035	045263	271 04 0 00 000062 		ADDI	T3,^D50
 12036	045264	315 02 0 00 000004 		CAMGE	T1,T3
 12037	045265	200 02 0 00 000004 		MOVE	T1,T3
 12038
DBKDA	DECSYSTEM10 KI10 ARITHMETIC RELIABILITY TEST, VER 0,3	MACRO %51(414) 14:29  9-JUN-76 PAGE 75
KI10A2	MAC	 9-JUN-76 13:56		MEMORY CONTROL SUBROUTINES                                                     *** SEQ 0316

 12039	045266	270 02 0 05 045567 	MEMST2:	ADD	T1,ACKDLY(S)
 12040	045267	332 00 0 00 047020 		SKIPE	INSYNC
 12041	045270	260 17 0 00 045242 		PUSHJ	P,MEMST7
 12042	045271	200 04 0 00 000002 		MOVE	T3,T1
 12043	045272	271 04 0 00 000074 		ADDI	T3,^D60
 12044	045273	202 04 0 00 047030 		MOVEM	T3,MAMAOFF
 12045	045274	270 02 0 05 045563 		ADD	T1,WARN(S)
 12046	045275	202 02 0 00 047155 		MOVEM	T1,WARNED
 12047	045276	271 02 0 00 000536 		ADDI	T1,WARNDLY
 12048	045277	202 02 0 00 047071 		MOVEM	T1,RDRST#
 12049	045300	202 02 0 00 047145 		MOVEM	T1,TIME
 12050	045301	333 00 0 05 045573 		SKIPLE	MEMFLG(S)
 12051	045302	202 02 0 00 047035 		MOVEM	T1,MEMDONE
 12052	045303	332 00 0 00 047041 		SKIPE	MEMWR
 12053	045304	202 02 0 00 047042 		MOVEM	T1,MEMWRWT
 12054	045305	270 02 0 05 045557 		ADD	T1,CYCLE(S)
 12055	045306	202 02 0 05 045553 		MOVEM	T1,MEMCMP(S)
 12056	045307	332 00 0 00 047034 		SKIPE	MCSPEC
 12057	045310	334 02 0 00 047033 		SKIPA	T1,MCSADR
 12058	045311	200 02 0 00 046710 		MOVE	T1,AB
 12059	045312	202 02 0 00 046710 		MOVEM	T1,AB
 12060	045313	402 00 0 00 047034 		SETZM	MCSPEC
 12061	045314	200 12 0 02 000000 		MOVE	MB,OFFSET(T1)
 12062	045315	200 02 0 00 047040 		MOVE	T1,MEMSIN
 12063	045316	550 05 0 02 045506 		HRRZ	S,MEMRET-"A"(T1)
 12064	045317	331 00 0 02 045506 		SKIPL	MEMRET-"A"(T1)
 12065	045320	200 06 0 00 000012 		MOVE	AR,MB
 12066	045321	332 00 0 00 046766 		SKIPE	FCE2ST#
 12067	045322	254 00 0 00 045526 		JRST	FCE2M
 12068
 12069	045323	332 00 0 00 047020 		SKIPE	INSYNC
 12070	045324	332 00 0 00 047041 		SKIPE	MEMWR
 12071	045325	254 00 0 00 045401 		JRST	MEMST8
 12072	045326	302 02 0 00 000103 		CAIE	T1,"C"
 12073	045327	254 00 0 00 045472 		JRST	INFT3
 12074	045330	460 02 1 00 047017 		SETCM	T1,@INSTPT
 12075	045331	602 02 0 00 000011 		TRNE	T1,FCE+SCE
 12076	045332	254 00 0 00 045472 		JRST	INFT3
 12077	045333	254 00 0 00 045401 		JRST	MEMST8
 12078
DBKDA	DECSYSTEM10 KI10 ARITHMETIC RELIABILITY TEST, VER 0,3	MACRO %51(414) 14:29  9-JUN-76 PAGE 76
KI10A2	MAC	 9-JUN-76 13:56		MEMORY CONTROL SUBROUTINES                                                     *** SEQ 0317

 12079	045334	402 00 0 00 046767 	FCE2SY:	SETZM	FCE2W
 12080	045335	332 00 0 00 046766 		SKIPE	FCE2ST
 12081	045336	260 17 0 00 045534 		PUSHJ	P,FCE2S1
 12082	045337	200 02 0 00 047014 		MOVE	T1,INRDY
 12083	045340	317 02 0 00 047145 		CAMG	T1,TIME
 12084	045341	200 02 0 00 047145 		MOVE	T1,TIME
 12085	045342	270 02 0 00 045603 		ADD	T1,VERTIM
 12086	045343	202 02 0 00 047145 		MOVEM	T1,TIME
 12087	045344	263 17 0 00 000000 		POPJ	P,
 12088
 12089	045345	336 00 0 00 047020 	ACREF:	SKIPN	INSYNC
 12090	045346	254 00 0 00 045352 		JRST	ACREF2
 12091	045347	200 04 0 00 047060 		MOVE	T3,PCP1G
 12092	045350	202 04 0 00 046710 		MOVEM	T3,AB
 12093	045351	260 17 0 00 045443 		PUSHJ	P,INFT3A
 12094	045352	332 00 0 00 047037 	ACREF2:	SKIPE	MEMREAD
 12095	045353	254 00 0 00 045360 		JRST	ACREF1
 12096	045354	271 02 0 00 000067 		ADDI	T1,^D55
 12097	045355	202 02 0 00 047145 		MOVEM	T1,TIME
 12098	045356	476 00 0 00 047115 		SETOM	STINAC
 12099	045357	254 00 0 00 045232 		JRST	MEMST4
 12100
 12101	045360	271 02 0 00 000404 	ACREF1:	ADDI	T1,^D260
 12102	045361	202 02 0 00 047145 		MOVEM	T1,TIME
 12103	045362	200 02 0 00 047040 		MOVE	T1,MEMSIN
 12104	045363	331 00 0 02 045506 		SKIPL	MEMRET-"A"(T1)
 12105	045364	200 06 0 05 032403 		MOVE	AR,ACS(S)
 12106	045365	302 02 0 00 000103 		CAIE	T1,"C"
 12107	045366	254 00 0 00 045372 		JRST	ACREF3
 12108	045367	402 00 0 00 047067 		SETZM	PSINFT
 12109	045370	460 04 1 00 047017 		SETCM	T3,@INSTPT
 12110	045371	602 04 0 00 000011 		TRNE	T3,FCE+SCE
 12111
 12112	045372	332 00 0 00 047041 	ACREF3:	SKIPE	MEMWR
 12113	045373	476 00 0 00 047115 		SETOM	STINAC
 12114	045374	335 00 0 02 045506 		SKIPGE	MEMRET-"A"(T1)
 12115	045375	200 12 0 05 032403 		MOVE	MB,ACS(S)
 12116	045376	550 05 0 02 045506 		HRRZ	S,MEMRET-"A"(T1)
 12117	045377	332 00 0 00 046766 		SKIPE	FCE2ST
 12118	045400	254 00 0 00 045526 		JRST	FCE2M
DBKDA	DECSYSTEM10 KI10 ARITHMETIC RELIABILITY TEST, VER 0,3	MACRO %51(414) 14:29  9-JUN-76 PAGE 77
KI10A2	MAC	 9-JUN-76 13:56		MEMORY CONTROL SUBROUTINES                                                     *** SEQ 0318

 12119	045401	402 00 0 00 047037 	MEMST8:	SETZM	MEMREAD
 12120	045402	402 00 0 00 047041 		SETZM	MEMWR
 12121	045403	263 17 0 00 000000 		POPJ	P,
 12122
 12123	045404	200 04 0 00 047071 	MEMST3:	MOVE	T3,RDRST
 12124	045405	271 04 0 00 000062 		ADDI	T3,^D50
 12125	045406	315 02 0 00 000004 		CAMGE	T1,T3
 12126	045407	200 02 0 00 000004 		MOVE	T1,T3
 12127	045410	254 00 0 00 045266 		JRST	MEMST2
 12128
 12129	045411	332 00 0 00 047042 	INFTSB:	SKIPE	MEMWRWT
 12130	045412	254 00 0 00 045445 		JRST	INFTS1
 12131	045413	201 02 0 00 000020 		MOVEI	T1,20
 12132	045414	336 00 0 00 047115 		SKIPN	STINAC
 12133	045415	313 02 0 00 046710 		CAMLE	T1,AB
 12134	045416	254 00 0 00 045450 		JRST	INFTS3
 12135	045417	332 00 0 00 047156 	INFTS2:	SKIPE	XCTF
 12136	045420	254 00 0 00 045423 		JRST	.+3
 12137	045421	336 00 0 00 047067 		SKIPN	PSINFT
 12138	045422	540 13 0 00 046710 		HRR	PC,AB
 12139	045423	402 00 0 00 047156 		SETZM	XCTF
 12140	045424	336 00 0 00 047067 		SKIPN	PSINFT
 12141	045425	402 00 0 00 047057 		SETZM	PCP1FF
 12142	045426	402 00 0 00 047003 		SETZM	INFTFF
 12143	045427	402 00 0 00 047067 		SETZM	PSINFT
 12144	045430	201 02 0 00 000101 		MOVEI	T1,"A"
 12145	045431	202 02 0 00 047040 	INFT2A:	MOVEM	T1,MEMSIN
 12146	045432	261 17 0 00 047145 		PUSH	P,TIME
 12147	045433	201 02 0 00 000144 		MOVEI	T1,^D100
 12148	045434	272 02 0 00 047145 		ADDM	T1,TIME
 12149	045435	476 00 0 00 047037 		SETOM	MEMREAD
 12150	045436	260 17 0 00 045161 		PUSHJ	P,MEMST
 12151	045437	200 02 0 00 047145 		MOVE	T1,TIME
 12152	045440	202 02 0 00 047014 		MOVEM	T1,INRDY
 12153	045441	262 17 0 00 047145 		POP	P,TIME
 12154	045442	263 17 0 00 000000 		POPJ	P,
 12155	045443	476 00 0 00 047003 	INFT3A:	SETOM	INFTFF
 12156	045444	402 00 0 00 047020 	INFT3B:	SETZM	INSYNC
 12157
 12158	045445	620 00 0 00 500002 	INFTS1:	TRZ	F,ABPC+ABAD+ABAS
 12159	045446	660 00 0 00 200000 		TRO	F,ABAB
 12160	045447	263 17 0 00 000000 		POPJ	P,
 12161
 12162	045450	332 00 0 00 047067 	INFTS3:	SKIPE	PSINFT
 12163	045451	402 00 0 00 047003 		SETZM	INFTFF
 12164	045452	402 00 0 00 047067 		SETZM	PSINFT
 12165	045453	254 00 0 00 045445 		JRST	INFTS1
DBKDA	DECSYSTEM10 KI10 ARITHMETIC RELIABILITY TEST, VER 0,3	MACRO %51(414) 14:29  9-JUN-76 PAGE 78
KI10A2	MAC	 9-JUN-76 13:56		MEMORY CONTROL SUBROUTINES                                                     *** SEQ 0319

 12166	045454	332 00 0 00 047034 	WRRST:	SKIPE	MCSPEC
 12167	045455	200 14 0 00 047033 		MOVE	MA,MCSADR
 12168	045456	402 00 0 00 047034 		SETZM	MCSPEC
 12169	045457	202 06 0 14 000000 		MOVEM	AR,OFFSET(MA)
 12170	045460	200 02 0 00 047145 		MOVE	T1,TIME
 12171	045461	202 02 0 00 047035 		MOVEM	T1,MEMDONE
 12172	045462	200 04 0 00 000014 		MOVE	T3,MA
 12173	045463	405 04 0 00 000003 		ANDI	T3,3
 12174	045464	270 02 0 04 045577 		ADD	T1,WRCYC(T3)
 12175	045465	311 02 0 04 045553 		CAML	T1,MEMCMP(T3)
 12176	045466	202 02 0 04 045553 		MOVEM	T1,MEMCMP(T3)
 12177	045467	402 00 0 00 047042 		SETZM	MEMWRWT
 12178	045470	336 00 0 00 047020 		SKIPN	INSYNC
 12179	045471	263 17 0 00 000000 		POPJ	P,
 12180
 12181	045472	550 02 0 00 047060 	INFT3:	HRRZ	T1,PCP1G
 12182	045473	332 00 0 00 047034 		SKIPE	MCSPEC
 12183	045474	200 02 0 00 047033 		MOVE	T1,MCSADR
 12184	045475	202 02 0 00 046710 		MOVEM	T1,AB
 12185	045476	305 02 0 00 000020 		CAIGE	T1,20
 12186	045477	254 00 0 00 045443 		JRST	INFT3A
 12187	045500	332 00 0 00 047156 		SKIPE	XCTF
 12188	045501	254 00 0 00 045504 		JRST	.+3
 12189	045502	336 00 0 00 047067 		SKIPN	PSINFT
 12190	045503	540 13 0 00 046710 		HRR	PC,AB
 12191	045504	402 00 0 00 047156 		SETZM	XCTF
 12192	045505	336 00 0 00 047067 		SKIPN	PSINFT
 12193	045506	402 00 0 00 047057 		SETZM	PCP1FF
 12194	045507	402 00 0 00 047067 		SETZM	PSINFT
 12195	045510	201 02 0 00 000101 		MOVEI	T1,"A"
 12196	045511	202 02 0 00 047040 	INFT3C:	MOVEM	T1,MEMSIN
 12197	045512	476 00 0 00 047037 		SETOM	MEMREAD
 12198	045513	403 02 0 00 047041 		SETZB	T1,MEMWR
 12199	045514	250 02 0 00 047020 		EXCH	T1,INSYNC
 12200	045515	275 02 0 00 000122 		SUBI	T1,^D82
 12201	045516	261 17 0 00 000005 		PUSH	P,S
 12202	045517	261 17 0 00 047145 		PUSH	P,TIME
 12203	045520	260 17 0 00 045166 		PUSHJ	P,MEMSTA
 12204	045521	200 02 0 00 047145 		MOVE	T1,TIME
 12205	045522	202 02 0 00 047014 		MOVEM	T1,INRDY
 12206	045523	262 17 0 00 047145 		POP	P,TIME
 12207	045524	262 17 0 00 000005 	INFT3D:	POP	P,S
 12208	045525	263 17 0 00 000000 		POPJ	P,
 12209
DBKDA	DECSYSTEM10 KI10 ARITHMETIC RELIABILITY TEST, VER 0,3	MACRO %51(414) 14:29  9-JUN-76 PAGE 79
KI10A2	MAC	 9-JUN-76 13:56		MEMORY CONTROL SUBROUTINES                                                     *** SEQ 0320

 12210	045526	552 11 0 00 046710 	FCE2M:	HRRZM	AD,AB
 12211	045527	606 11 0 00 777760 		TRNN	AD,777760
 12212	045530	254 00 0 00 045444 		JRST	INFT3B
 12213	045531	402 00 0 00 046766 		SETZM	FCE2ST
 12214	045532	201 02 0 00 000111 		MOVEI	T1,"I"
 12215	045533	254 00 0 00 045511 		JRST	INFT3C
 12216
 12217	045534	402 00 0 00 046766 	FCE2S1:	SETZM	FCE2ST
 12218	045535	201 02 0 00 000111 		MOVEI	T1,"I"
 12219	045536	261 17 0 00 000005 		PUSH	P,S
 12220	045537	260 17 0 00 045431 		PUSHJ	P,INFT2A
 12221	045540	254 00 0 00 045524 		JRST	INFT3D
 12222
 12223	045541	332 00 0 00 047115 	MEMWSS:	SKIPE	STINAC
 12224	045542	263 17 0 00 000000 		POPJ	P,
 12225	045543	261 17 0 00 000005 		PUSH	P,S
 12226	045544	200 05 0 00 000014 		MOVE	S,MA
 12227	045545	405 05 0 00 000003 		ANDI	S,3
 12228	045546	200 02 0 00 047145 		MOVE	T1,TIME
 12229	045547	271 02 0 00 000113 		ADDI	T1,^D75
 12230	045550	260 17 0 00 045215 		PUSHJ	P,MEMSTB
 12231	045551	262 17 0 00 000005 		POP	P,S
 12232	045552	263 17 0 00 000000 		POPJ	P,
 12233
DBKDA	DECSYSTEM10 KI10 ARITHMETIC RELIABILITY TEST, VER 0,3	MACRO %51(414) 14:29  9-JUN-76 PAGE 80
KI10A2	MAC	 9-JUN-76 13:56		MEMORY CONTROL SUBROUTINES                                                     *** SEQ 0321

 12234	045553				MEMCMP:	BLOCK	4			;LAST COMPLETION TIME
 12235	045557				CYCLE:	REPEAT	4,<^D500>		;RD RST TO END OF CYCLE
 12236	045557	000000	000764		^D500
 12237	045560	000000	000764		^D500
 12238	045561	000000	000764		^D500
 12239	045562	000000	000764		^D500
 12240	045563				WARN:	REPEAT	4,<0>			;ADR ACK TO WARN
 12241	045563	000000	000000		0
 12242	045564	000000	000000		0
 12243	045565	000000	000000		0
 12244	045566	000000	000000		0
 12245	045567				ACKDLY:	REPEAT	4,<^D150>		;START TO ADR ACK
 12246	045567	000000	000226		^D150
 12247	045570	000000	000226		^D150
 12248	045571	000000	000226		^D150
 12249	045572	000000	000226		^D150
 12250	045573				MEMFLG:	REPEAT	4,<0>			;MEM TYPE
 12251	045573	000000	000000		0
 12252	045574	000000	000000		0
 12253	045575	000000	000000		0
 12254	045576	000000	000000		0
 12255	045577				WRCYC:	REPEAT	4,<^D500>		;TIME WRITE CYCLE COMPLETES
 12256	045577	000000	000764		^D500
 12257	045600	000000	000764		^D500
 12258	045601	000000	000764		^D500
 12259	045602	000000	000764		^D500
 12260
 12261	045603	000000	000156		VERTIM:	^D110		;STRAIGHT THRU TIME (NO ADD)
 12262	045604	000000	000252		ADTIME:	^D170		;FULL ADD TIME (NS)
 12263	045605	000000	000346		LONGTM:	^D230		;ADD TIME PLUS AD=0 GATING
 12264	045606	000000	000346		DPADTM:	^D230		;63-BIT ADD TIME
 12265
 12266	045607	400 00 0 00 041312 	MEMRET:	SETZ	IT0
 12267	045610	000000	041706				FT4
 12268	045611	000000	041734				FT6
 12269	045612	000000	044005				ERR
 12270	045613	000000	042066				ST1
 12271	045614	000000	042015				ET1S
 12272	045615	000000	044005				ERR
 12273	045616	000000	044005				ERR
 12274	045617	400 00 0 00 045334 		SETZ	FCE2SY
 12275	045620	000000	044041				BLTT3
 12276	045621	000000	041722				FT8
DBKDA	DECSYSTEM10 KI10 ARITHMETIC RELIABILITY TEST, VER 0,3	MACRO %51(414) 14:29  9-JUN-76 PAGE 1
STOR	KLM	 5-JAN-76 18:18		*STOR* RESERVED STORAGE, JAN 5,1976                                            *** SEQ 0322

 12277					SUBTTL	*STOR* RESERVED STORAGE, JAN 5,1976
 12278
 12279					;PROGRAM LITERALS
 12280
 12281						XLIST
 12282					IFNDEF	$LPAPER,<LIST>
 12283	045622					LIT
 12284	045622	64 51 55 45 62 00
 12285	045623	015 012 123 120 105
 12286	045624	103 111 106 131 040
 12287	045625	122 101 116 104 117
 12288	045626	115 040 116 125 115
 12289	045627	102 105 122 040 102
 12290	045630	101 123 105 040 055
 12291	045631	040 000 000 000 000
 12292	045632	015 012 117 120 105
 12293	045633	122 101 124 117 122
 12294	045634	040 111 116 110 111
 12295	045635	102 111 124 040 117
 12296	045636	106 040 101 114 114
 12297	045637	040 124 105 123 124
 12298	045640	123 054 040 122 105
 12299	045641	123 124 101 122 124
 12300	045642	015 012 000 000 000
 12301	045643	015 012 117 120 105
 12302	045644	122 101 124 117 122
 12303	045645	040 111 116 110 111
 12304	045646	102 111 124 040 117
 12305	045647	106 040 102 117 124
 12306	045650	110 040 106 101 123
 12307	045651	124 040 101 116 104
 12308	045652	040 123 114 117 127
 12309	045653	054 040 122 105 123
 12310	045654	124 101 122 124 015
 12311	045655	012 000 000 000 000
 12312	045656	264 00 0 00 032205
 12313	045657	264 00 0 00 030104
 12314	045660	002000	010000
 12315	045661	000000	031153
 12316	045662	000000	031301
 12317	045663	015 012 052 052 052
 12318	045664	052 052 052 052 052
 12319	045665	052 052 015 012 123
 12320	045666	111 115 125 114 101
 12321	045667	124 111 117 116 040
 12322	045670	103 117 115 120 101
 12323	045671	122 111 123 111 117
 12324	045672	116 040 106 101 111
 12325	045673	114 125 122 105 015
 12326	045674	012 000 000 000 000
 12327	045675	015 012 052 052 052
 12328	045676	052 052 052 052 052
 12329	045677	052 052 015 012 111
 12330	045700	116 123 124 122 125
 12331	045701	103 124 111 117 116
DBKDA	DECSYSTEM10 KI10 ARITHMETIC RELIABILITY TEST, VER 0,3	MACRO %51(414) 14:29  9-JUN-76 PAGE 1-1
STOR	KLM	 5-JAN-76 18:18		*STOR* RESERVED STORAGE, JAN 5,1976                                            *** SEQ 0323

 12332	045702	040 103 117 115 120
 12333	045703	101 122 111 123 111
 12334	045704	117 116 040 106 101
 12335	045705	111 114 125 122 105
 12336	045706	015 012 000 000 000
 12337	045707	000001	032150
 12338	045710	015 012 102 101 123
 12339	045711	105 040 122 101 116
 12340	045712	104 117 115 040 116
 12341	045713	125 115 102 105 122
 12342	045714	040 075 040 000 000
 12343	045715	015 012 124 105 123
 12344	045716	124 040 120 101 123
 12345	045717	123 040 103 117 125
 12346	045720	116 124 040 075 040
 12347	045721	000 000 000 000 000
 12348	045722	543217	335216
 12349	045723	165742	176525
 12350	045724	147532	173543
 12351	045725	731341	527517
 12352	045726	377777	777777
 12353	045727	015 012 111 116 124
 12354	045730	105 122 116 101 114
 12355	045731	040 120 122 117 107
 12356	045732	122 101 115 040 120
 12357	045733	122 117 102 114 105
 12358	045734	115 054 040 123 125
 12359	045735	107 107 105 123 124
 12360	045736	040 122 105 114 117
 12361	045737	101 104 054 040 122
 12362	045740	105 123 124 101 122
 12363	045741	124 040 041 015 012
 12364	045742	000 000 000 000 000
 12365	045743	015 012 106 114 101
 12366	045744	107 123 040 106 122
 12367	045745	117 115 040 115 101
 12368	045746	103 110 040 046 040
 12369	045747	123 111 115 125 114
 12370	045750	101 124 105 040 040
 12371	045751	040 000 000 000 000
 12372	045752	015 012 115 101 103
 12373	045753	110 111 116 105 040
 12374	045754	122 105 123 125 114
 12375	045755	124 123 040 111 116
 12376	045756	040 101 103 054 101
 12377	045757	103 053 061 054 105
 12378	045760	040 040 040 000 000
 12379	045761	015 012 115 101 103
 12380	045762	110 111 116 105 040
 12381	045763	122 105 123 125 114
 12382	045764	124 123 040 111 116
 12383	045765	040 101 103 054 120
 12384	045766	117 111 116 124 105
 12385	045767	122 054 105 040 040
 12386	045770	040 000 000 000 000
DBKDA	DECSYSTEM10 KI10 ARITHMETIC RELIABILITY TEST, VER 0,3	MACRO %51(414) 14:29  9-JUN-76 PAGE 1-2
STOR	KLM	 5-JAN-76 18:18		*STOR* RESERVED STORAGE, JAN 5,1976                                            *** SEQ 0324

 12387	045771	015 012 124 117 124
 12388	045772	101 114 040 105 122
 12389	045773	122 117 122 123 040
 12390	045774	075 040 000 000 000
 12391	045775	015 012 122 125 116
 12392	045776	040 124 111 115 105
 12393	045777	040 075 040 000 000
 12394	046000	072 000 000 000 000
 12395	046001	63 45 64 65 67 60
 12396	046002	254 00 0 00 032362
 12397	046003	254 00 0 00 033053
 12398	046004	45 70 51 64 00 00
 12399	046005	015 012 052 052 052
 12400	046006	052 052 052 052 052
 12401	046007	052 052 015 012 000
 12402	046010	130 130 130 055 055
 12403	046011	040 040 040 040 000
 12404	046012	052 040 040 040 040
 12405	046013	040 040 040 040 040
 12406	046014	040 040 040 000 000
 12407	046015	060 040 040 040 040
 12408	046016	040 040 040 040 040
 12409	046017	040 040 040 000 000
 12410	046020	052 040 040 040 040
 12411	046021	040 040 000 000 000
 12412	046022	060 040 040 040 040
 12413	046023	040 040 000 000 000
 12414	046024	052 040 040 040 000
 12415	046025	060 040 040 040 000
 12416	046026	015 012 123 105 121
 12417	046027	125 105 116 103 105
 12418	046030	040 043 040 075 040
 12419	046031	000 000 000 000 000
 12420	046032	040 040 040 040 040
 12421	046033	040 040 040 040 040
 12422	046034	040 040 040 040 040
 12423	046035	000 000 000 000 000
 12424	046036	015 012 111 116 123
 12425	046037	124 122 125 103 124
 12426	046040	111 117 116 040 110
 12427	046041	125 116 107 040 125
 12428	046042	120 000 000 000 000
 12429	046043	015 012 123 111 115
 12430	046044	125 114 101 124 117
 12431	046045	122 040 105 122 122
 12432	046046	117 122 040 101 124
 12433	046047	040 120 103 040 075
 12434	046050	040 000 000 000 000
 12435	046051	015 012 123 111 115
 12436	046052	125 114 101 124 105
 12437	046053	104 040 111 116 123
 12438	046054	124 122 125 103 124
 12439	046055	111 117 116 000 000
 12440	046056	000016	000001
 12441	046057	000002	000001
DBKDA	DECSYSTEM10 KI10 ARITHMETIC RELIABILITY TEST, VER 0,3	MACRO %51(414) 14:29  9-JUN-76 PAGE 1-3
STOR	KLM	 5-JAN-76 18:18		*STOR* RESERVED STORAGE, JAN 5,1976                                            *** SEQ 0325

 12442	046060	103 050 101 103 051
 12443	046061	075 000 000 000 000
 12444	046062	103 050 101 103 053
 12445	046063	061 051 075 000 000
 12446	046064	103 050 103 050 101
 12447	046065	103 122 051 051 075
 12448	046066	000 000 000 000 000
 12449	046067	103 050 103 050 101
 12450	046070	103 122 053 061 051
 12451	046071	051 075 000 000 000
 12452	046072	103 050 103 050 101
 12453	046073	103 114 051 051 075
 12454	046074	000 000 000 000 000
 12455	046075	105 040 040 040 040
 12456	046076	075 000 000 000 000
 12457	046077	103 050 105 051 040
 12458	046100	075 000 000 000 000
 12459	046101	103 050 105 053 061
 12460	046102	051 040 075 000 000
 12461	046103	103 050 103 050 105
 12462	046104	051 051 075 000 000
 12463	046105	015 012 106 114 101
 12464	046106	107 123 040 055 040
 12465	046107	111 116 124 057 106
 12466	046110	111 116 101 114 040
 12467	046111	040 040 000 000 000
 12468	046112	111 116 111 124 111
 12469	046113	101 114 015 012 000
 12470	046114	015 012 106 111 116
 12471	046115	101 114 015 012 000
 12472	046116	015 012 055 055 055
 12473	046117	055 055 055 055 055
 12474	046120	055 055 015 012 000
 12475	046121	344 13 0 00 034624
 12476	046122	000000	034664
 12477	046123	606 15 0 00 040000
 12478	046124	254 00 0 00 034657
 12479	046125	254 00 0 00 034672
 12480	046126	000000	034665
 12481	046127	440200	034665
 12482	046130	440300	034665
 12483	046131	344 13 0 00 034760
 12484	046132	344 13 0 00 034762
 12485	046133	000777	777777
 12486	046134	440240	034664
 12487	046135	000000	035103
 12488	046136	400200	035107
 12489	046137	000000	035117
 12490	046140	006000	007563
 12491	046141	000600	007566
 12492	046142	006000	007620
 12493	046143	000600	006625
 12494	046144	006000	007634
 12495	046145	000000	006642
 12496	046146	000000	000662
DBKDA	DECSYSTEM10 KI10 ARITHMETIC RELIABILITY TEST, VER 0,3	MACRO %51(414) 14:29  9-JUN-76 PAGE 1-4
STOR	KLM	 5-JAN-76 18:18		*STOR* RESERVED STORAGE, JAN 5,1976                                            *** SEQ 0326

 12497	046147	000060	000000
 12498	046150	000000	000512
 12499	046151	000000	000516
 12500	046152	060070	007412
 12501	046153	070000	000377
 12502	046154	010000	000444
 12503	046155	000000	007453
 12504	046156	000000	006432
 12505	046157	000000	000345
 12506	046160	000660	001364
 12507	046161	000000	001351
 12508	046162	000660	001362
 12509	046163	006000	030536
 12510	046164	060110	030000
 12511	046165	006000	006536
 12512	046166	000000	007540
 12513	046167	000000	007461
 12514	046170	000000	007460
 12515	046171	000000	006000
 12516	046172	060110	006000
 12517	046173	000000	001124
 12518	046174	000000	000137
 12519	046175	000000	000143
 12520	046176	000000	007214
 12521	046177	000000	000222
 12522	046200	000000	007213
 12523	046201	000000	000253
 12524	046202	000000	007263
 12525	046203	000000	000271
 12526	046204	000600	007160
 12527	046205	000060	100165
 12528	046206	000000	007262
 12529	046207	006000	000271
 12530	046210	000000	006413
 12531	046211	046000	010417
 12532	046212	000000	007104
 12533	046213	000600	400000
 12534	046214	000000	007103
 12535	046215	000600	000000
 12536	046216	000600	007114
 12537	046217	006002	134122
 12538	046220	000001	000000
 12539	046221	000100	006000
 12540	046222	000240	007000
 12541	046223	000200	007000
 12542	046224	000040	007000
 12543	046225	000000	007000
 12544	046226	000420	007000
 12545	046227	000400	007000
 12546	046230	000020	007000
 12547	046231	006000	030000
 12548	046232	000000	001000
 12549	046233	006060	030075
 12550	046234	000000	001077
 12551	046235	006060	030000
DBKDA	DECSYSTEM10 KI10 ARITHMETIC RELIABILITY TEST, VER 0,3	MACRO %51(414) 14:29  9-JUN-76 PAGE 1-5
STOR	KLM	 5-JAN-76 18:18		*STOR* RESERVED STORAGE, JAN 5,1976                                            *** SEQ 0327

 12552	046236	000002	001000
 12553	046237	000000	001100
 12554	046240	006100	030000
 12555	046241	006100	001000
 12556	046242	006100	001077
 12557	046243	006102	001000
 12558	046244	006100	001100
 12559	046245	106100	030000
 12560	046246	106100	001000
 12561	046247	106100	001077
 12562	046250	106102	001000
 12563	046251	106100	001100
 12564	046252	111160	001000
 12565	046253	111160	001077
 12566	046254	111162	001000
 12567	046255	111160	001100
 12568	046256	040000	000332
 12569	046257	000000	000411
 12570	046260	006000	000000
 12571	046261	060070	000411
 12572	046262	070000	000400
 12573	046263	27 04 0 00 000016
 12574	046264	000400	000700
 12575	046265	612 11 0 00 046133
 12576	046266	660 01 0 00 006000
 12577	046267	254 00 0 00 040056
 12578	046270	210100	002340
 12579	046271	321 10 0 00 040157
 12580	046272	660 03 0 00 004060
 12581	046273	254 00 0 00 040157
 12582	046274	603 16 0 00 001000
 12583	046275	254 00 0 00 040157
 12584	046276	254 00 0 00 040156
 12585	046277	000100	002120
 12586	046300	006000	400015
 12587	046301	340100	002140
 12588	046302	006100	400000
 12589	046303	240000	002000
 12590	046304	510 16 0 00 000012
 12591	046305	621 16 0 00 000037
 12592	046306	254 00 0 00 040521
 12593	046307	30 06 0 00 000006
 12594	046310	36 06 0 00 000006
 12595	046311	33 10 0 00 000006
 12596	046312	22 04 0 00 000012
 12597	046313	33 11 0 00 000016
 12598	046314	000000	000103
 12599	046315	000000	000113
 12600	046316	000000	000101
 12601	046317	000000	037344
 12602	046320	41 03 0 00 000016
 12603	046321	31 02 0 00 000013
 12604	046322	000060	410000
 12605	046323	000000	000430
 12606	046324	000000	041640
DBKDA	DECSYSTEM10 KI10 ARITHMETIC RELIABILITY TEST, VER 0,3	MACRO %51(414) 14:29  9-JUN-76 PAGE 1-6
STOR	KLM	 5-JAN-76 18:18		*STOR* RESERVED STORAGE, JAN 5,1976                                            *** SEQ 0328

 12607	046325	000000	000102
 12608	046326	060600	001000
 12609	046327	000003	077777
 12610	046330	11 05 0 00 000002
 12611	046331	30 02 0 00 000016
 12612	046332	000060	000410
 12613	046333	001777	777777
 12614	046334	000060	000200
 12615	046335	000377	777777
 12616	046336	000020	000020
 12617	046337	000100	000136
 12618	046340	177777	777777
 12619	046341	060010	000020
 12620	046342	540000	000120
 12621	046343	000060	006000
 12622	046344	000100	000343
 12623	046345	000040	200020
 12624	046346	000060	000204
 12625	046347	000020	020000
 12626	046350	000600	000010
 12627	046351	000100	400000
 12628	046352	000020	010000
 12629	046353	000060	100010
 12630	046354	000040	020323
 12631	046355	006002	000007
 12632	046356	040660	006020
 12633	046357	006000	034003
 12634	046360	100010	000010
 12635	046361	660 01 0 00 000400
 12636	046362	254 00 0 00 043477
 12637	046363	33 03 0 00 000016
 12638	046364	27 04 0 00 046711
 12639	046365	060110	107000
 12640	046366	001004	000010
 12641	046367	122 00 0 00 000000
 12642	046370	332 00 0 00 047044
 12643	046371	260 17 0 00 044637
 12644	046372	254 00 0 00 043621
 12645	046373	660 03 0 00 010303
 12646	046374	201 05 0 00 043303
 12647	046375	254 00 0 00 043673
 12648	046376	006000	000010
 12649	046377	332 00 0 00 047021
 12650	046400	254 00 0 00 043704
 12651	046401	402 00 0 00 046762
 12652	046402	201 05 0 00 043361
 12653	046403	254 00 0 00 043704
 12654	046404	260600	400000
 12655	046405	040600	000010
 12656	046406	000060	400010
 12657	046407	000002	100000
 12658	046410	43 01 0 00 046743
 12659	046411	36 06 0 00 000004
 12660						LIST
 12661	046647	000000	000000		ENDSLD:	0
DBKDA	DECSYSTEM10 KI10 ARITHMETIC RELIABILITY TEST, VER 0,3	MACRO %51(414) 14:29  9-JUN-76 PAGE 1-7
STOR	KLM	 5-JAN-76 18:18		*STOR* RESERVED STORAGE, JAN 5,1976                                            *** SEQ 0329

 12662
 12663					IFDEF	DEBUG,<
 12664	046650				PATCH:	BLOCK DEBUG		;PATCHING AREA
 12665					>
 12666
 12667					;PROGRAM VARIABLES
 12668	046710					VAR
 12669
 12670					IFDEF	PGMEND,<
 12671	047170	000000	000000		END:	0
 12672			030000			END	BEGIN	>

NO ERRORS DETECTED

PROGRAM BREAK IS 000000
ABSLUTE BREAK IS 047171
CPU TIME USED 03:03.318

13K CORE USED

A	  3875#	  3883	  3885	  3886	  3887	  3890	  3894	  3896	  3902	  3926#	  3931	  3937	  3941	  3942
	  3943	  3944                                                                                                 *** SEQ 0330
A0	  4751#	  4758	  4762	  4766	  4782	  4786	  4790	  4853#	  4854	  4868#	  4872	  4877	  7185#	  7186
	  7188	  7200#	  7201	  7203	  7215#	  7216	  7218	  7230#	  7231	  7233	  7245#	  7246	  7248	  7260#
	  7261	  7263	  7275#	  7276	  7278	  7290#	  7291	  7293	  7305#	  7306	  7308	  7320#	  7321	  7323
	  7335#	  7336	  7338	  7350#	  7351	  7353	  7365#	  7366	  7368	  7380#	  7381	  7383	  7395#	  7396
	  7398	  7410#	  7411	  7413	  7425#	  7426	  7428	  7440#	  7441	  7443	  7455#	  7456	  7458	  7470#
	  7471	  7473	  7485#	  7486	  7488	  7500#	  7501	  7503	  7515#	  7516	  7518	  7530#	  7531	  7533
	  7545#	  7546	  7548	  7560#	  7561	  7563	  7575#	  7576	  7578	  7590#	  7591	  7593	  7605#	  7606
	  7608	  7620#	  7621	  7623	  7635#	  7636	  7638	  7650#	  7651	  7653	  7665#	  7666	  7668	  7680#
	  7681	  7683	  7695#	  7696	  7698	  7710#	  7711	  7713	  7725#	  7726	  7728	  7740#	  7741	  7743
	  7755#	  7756	  7758	  7770#	  7771	  7773	  7785#	  7786	  7788	  7800#	  7801	  7803	  7815#	  7816
	  7818	  7830#	  7831	  7833	  7845#	  7846	  7848	  7860#	  7861	  7863	  7875#	  7876	  7878	  7890#
	  7891	  7893	  7905#	  7906	  7908	  7920#	  7921	  7923	  7935#	  7936	  7938	  7950#	  7951	  7953
	  7965#	  7966	  7968	  7980#	  7981	  7983	  7995#	  7996	  7998	  8010#	  8011	  8013	  8025#	  8026
	  8028	  8040#	  8041	  8043	  8055#	  8056	  8058	  8070#	  8071	  8073	  8085#	  8086	  8088	  8100#
	  8101	  8103	  8115#	  8116	  8118	  8130#	  8131	  8133
A1	  4854#	  4859	  4864	  4869#	  4873	  4879	  5476#	  5481	  5490#	  5495	  5504#	  5509	  5518#	  5523
	  5532#	  5537	  5546#	  5551	  5560#	  5565	  5574#	  5579	  5588#	  5593	  5602#	  5607	  5616#	  5621
	  5630#	  5635	  5644#	  5649	  5658#	  5663	  5672#	  5677	  5686#	  5691	  5700#	  5705	  5714#	  5719
	  5728#	  5733	  5742#	  5747	  5756#	  5761	  5770#	  5775	  5784#	  5789	  5798#	  5803	  5812#	  5813#
	  5817	  5826#	  5827#	  5831	  5840#	  5841#	  5845	  5854#	  5855#	  5859	  5868#	  5873	  5882#	  5887
	  5896#	  5901	  5910#	  5915	  5924#	  5929	  5938#	  5943	  5952#	  5957	  5966#	  5971	  5980#	  5981#
	  5985	  5994#	  5995#	  5999	  6008#	  6009#	  6013	  6022#	  6023#	  6027	  6036#	  6041	  6050#	  6055
	  6064#	  6069	  6078#	  6083	  6092#	  6097	  6106#	  6111	  6120#	  6125	  6134#	  6139	  6148#	  6153
	  6162#	  6167	  6176#	  6181	  6190#	  6195	  6204#	  6209	  6218#	  6223	  6232#	  6237	  6246#	  6251
	  6260#	  6265	  6274#	  6279	  6288#	  6293	  6302#	  6307	  6316#	  6321	  6330#	  6335	  6344#	  6349
	  6358#	  6363	  7182#	  7185	  7197#	  7200	  7212#	  7215	  7227#	  7230	  7242#	  7245	  7257#	  7260
	  7272#	  7275	  7287#	  7290	  7302#	  7305	  7317#	  7320	  7332#	  7335	  7347#	  7350	  7362#	  7365
	  7377#	  7380	  7392#	  7395	  7407#	  7410	  7422#	  7423#	  7425	  7437#	  7438#	  7440	  7452#	  7455
	  7467#	  7470	  7482#	  7485	  7497#	  7500	  7512#	  7515	  7527#	  7530	  7542#	  7543#	  7545	  7557#
	  7558#	  7560	  7572#	  7575	  7587#	  7590	  7602#	  7605	  7617#	  7620	  7632#	  7635	  7647#	  7650
	  7662#	  7664#	  7665	  7677#	  7679#	  7680	  7692#	  7695	  7707#	  7710	  7722#	  7725	  7737#	  7740
	  7752#	  7755	  7767#	  7770	  7782#	  7784#	  7785	  7797#	  7799#	  7800	  7812#	  7815	  7827#	  7830
	  7842#	  7845	  7857#	  7860	  7872#	  7875	  7887#	  7890	  7902#	  7905	  7917#	  7920	  7932#	  7935
	  7947#	  7950	  7962#	  7965	  7977#	  7980	  7992#	  7995	  8007#	  8010	  8022#	  8025	  8037#	  8040
	  8052#	  8055	  8067#	  8070	  8082#	  8085	  8097#	  8100	  8112#	  8115	  8127#	  8130
A1RT	  3738	  3739#
A2	  4855#	  4860	  4865	  5477#	  5481	  5491#	  5495	  5505#	  5509	  5519#	  5523	  5533#	  5534#	  5537
	  5547#	  5548#	  5551	  5561#	  5562#	  5565	  5575#	  5576#	  5579	  5589#	  5590#	  5593	  5603#	  5604#
	  5607	  5617#	  5618#	  5621	  5631#	  5632#	  5635	  5645#	  5646#	  5649	  5659#	  5660#	  5663	  5673#
	  5674#	  5677	  5687#	  5688#	  5691	  5701#	  5705	  5715#	  5719	  5729#	  5733	  5743#	  5747	  5757#
	  5761	  5771#	  5775	  5785#	  5789	  5799#	  5803	  5813#	  5814#	  5817	  5827#	  5828#	  5831	  5841#
	  5842#	  5845	  5855#	  5856#	  5859	  5869#	  5873	  5883#	  5887	  5897#	  5901	  5911#	  5915	  5925#
	  5929	  5939#	  5943	  5953#	  5957	  5967#	  5971	  5981#	  5982#	  5985	  5995#	  5996#	  5999	  6009#
	  6010#	  6013	  6023#	  6024#	  6027	  6037#	  6041	  6051#	  6055	  6065#	  6069	  6079#	  6083	  6093#
	  6097	  6107#	  6111	  6121#	  6125	  6135#	  6139	  6149#	  6153	  6163#	  6167	  6177#	  6181	  6191#
	  6195	  6205#	  6206#	  6209	  6219#	  6220#	  6223	  6233#	  6234#	  6237	  6247#	  6248#	  6251	  6261#
	  6262#	  6265	  6275#	  6276#	  6279	  6289#	  6290#	  6293	  6303#	  6304#	  6307	  6317#	  6321	  6331#
	  6335	  6345#	  6349	  6359#	  6363
A2RT	  3740	  3741#
A3	  4856#	  4860	  4865	  5478#	  5481	  5492#	  5495	  5506#	  5509	  5520#	  5523	  5534#	  5537	  5548#
	  5551	  5562#	  5565	  5576#	  5579	  5590#	  5593	  5604#	  5607	  5618#	  5621	  5632#	  5635	  5646#
	  5649	  5660#	  5663	  5674#	  5677	  5688#	  5691	  5702#	  5703#	  5705	  5716#	  5717#	  5719	  5730#
	  5731#	  5733	  5744#	  5745#	  5747	  5758#	  5761	  5772#	  5775	  5786#	  5789	  5800#	  5803	  5814 *** SEQ 0331
	  5817	  5828#	  5831	  5842#	  5845	  5856#	  5859	  5870#	  5871#	  5873	  5884#	  5885#	  5887	  5898#
	  5899#	  5901	  5912#	  5913#	  5915	  5926#	  5927#	  5929	  5940#	  5941#	  5943	  5954#	  5955#	  5957
	  5968#	  5969#	  5971	  5982#	  5985	  5996#	  5999	  6010#	  6013	  6024#	  6027	  6038#	  6041	  6052#
	  6055	  6066#	  6069	  6080#	  6083	  6094#	  6095#	  6097	  6108#	  6109#	  6111	  6122#	  6123#	  6125
	  6136#	  6137#	  6139	  6150#	  6151#	  6153	  6164#	  6165#	  6167	  6178#	  6179#	  6181	  6192#	  6193#
	  6195	  6206#	  6209	  6220#	  6223	  6234#	  6237	  6248#	  6251	  6262#	  6265	  6276#	  6279	  6290#
	  6293	  6304#	  6307	  6318#	  6321	  6332#	  6335	  6346#	  6349	  6360#	  6363
A4	  5479#	  5481	  5493#	  5495	  5507#	  5509	  5521#	  5523	  5535#	  5536#	  5537	  5549#	  5550#	  5551
	  5563#	  5564#	  5565	  5577#	  5578#	  5579	  5591#	  5593	  5605#	  5607	  5619#	  5621	  5633#	  5635
	  5647#	  5649	  5661#	  5663	  5675#	  5677	  5689#	  5691	  5703#	  5704#	  5705	  5717#	  5718#	  5719
	  5731#	  5732#	  5733	  5745#	  5746#	  5747	  5759#	  5760#	  5761	  5773#	  5774#	  5775	  5787#	  5788#
	  5789	  5801#	  5802#	  5803	  5815#	  5817	  5829#	  5831	  5843#	  5845	  5857#	  5859	  5871#	  5873
	  5885#	  5887	  5899#	  5901	  5913#	  5915	  5927#	  5929	  5941#	  5943	  5955#	  5957	  5969#	  5971
	  5983#	  5984#	  5985	  5997#	  5998#	  5999	  6011#	  6012#	  6013	  6025#	  6026#	  6027	  6039#	  6041
	  6053#	  6055	  6067#	  6069	  6081#	  6083	  6095#	  6096#	  6097	  6109#	  6110#	  6111	  6123#	  6124#
	  6125	  6137#	  6138#	  6139	  6151#	  6153	  6165#	  6167	  6179#	  6181	  6193#	  6195	  6207#	  6209
	  6221#	  6223	  6235#	  6237	  6249#	  6251	  6263#	  6264#	  6265	  6277#	  6278#	  6279	  6291#	  6292#
	  6293	  6305#	  6306#	  6307	  6319#	  6321	  6333#	  6335	  6347#	  6349	  6361#	  6363
A5	  5480#	  5481	  5494#	  5495	  5508#	  5509	  5522#	  5523	  5536#	  5537	  5550#	  5551	  5564#	  5565
	  5578#	  5579	  5592#	  5593#	  5593	  5606#	  5607#	  5607	  5620#	  5621#	  5621	  5634#	  5635#	  5635
	  5648#	  5649	  5662#	  5663	  5676#	  5677	  5690#	  5691	  5704#	  5705	  5718#	  5719	  5732#	  5733
	  5746#	  5747	  5760#	  5761	  5774#	  5775	  5788#	  5789	  5802#	  5803	  5816#	  5817#	  5817	  5830#
	  5831#	  5831	  5844#	  5845#	  5845	  5858#	  5859#	  5859	  5872#	  5873#	  5873	  5886#	  5887#	  5887
	  5900#	  5901#	  5901	  5914#	  5915#	  5915	  5928#	  5929#	  5929	  5942#	  5943#	  5943	  5956#	  5957#
	  5957	  5970#	  5971#	  5971	  5984#	  5985	  5998#	  5999	  6012#	  6013	  6026#	  6027	  6040#	  6041#
	  6041	  6054#	  6055#	  6055	  6068#	  6069#	  6069	  6082#	  6083#	  6083	  6096#	  6097	  6110#	  6111
	  6124#	  6125	  6138#	  6139	  6152#	  6153	  6166#	  6167	  6180#	  6181	  6194#	  6195	  6208#	  6209#
	  6209	  6222#	  6223#	  6223	  6236#	  6237#	  6237	  6250#	  6251#	  6251	  6264#	  6265	  6278#	  6279
	  6292#	  6293	  6306#	  6307	  6320#	  6321	  6334#	  6335	  6348#	  6349	  6362#	  6363
A6	  5475#	  5482	  5489#	  5496	  5503#	  5510	  5517#	  5524	  5531#	  5538	  5545#	  5552	  5559#	  5566
	  5573#	  5580	  5587#	  5594	  5601#	  5608	  5615#	  5622	  5629#	  5636	  5643#	  5650	  5657#	  5664
	  5671#	  5678	  5685#	  5692	  5699#	  5706	  5713#	  5720	  5727#	  5734	  5741#	  5748	  5755#	  5762
	  5769#	  5776	  5783#	  5790	  5797#	  5804	  5811#	  5818	  5825#	  5832	  5839#	  5846	  5853#	  5860
	  5867#	  5868#	  5874	  5881#	  5882#	  5888	  5895#	  5896#	  5902	  5909#	  5910#	  5916	  5923#	  5930
	  5937#	  5944	  5951#	  5958	  5965#	  5972	  5979#	  5986	  5993#	  6000	  6007#	  6014	  6021#	  6028
	  6035#	  6042	  6049#	  6056	  6063#	  6070	  6077#	  6084	  6091#	  6092#	  6098	  6105#	  6106#	  6112
	  6119#	  6120#	  6126	  6133#	  6134#	  6140	  6147#	  6154	  6161#	  6168	  6175#	  6182	  6189#	  6196
	  6203#	  6204#	  6210	  6217#	  6218#	  6224	  6231#	  6232#	  6238	  6245#	  6246#	  6252	  6259#	  6260#
	  6266	  6273#	  6274#	  6280	  6287#	  6288#	  6294	  6301#	  6302#	  6308	  6315#	  6322	  6329#	  6336
	  6343#	  6350	  6357#	  6364
AB	  1822	  1929	  1999	  2412	  2422	  9384	 11380	 11386#	 11386	 11387	 11970	 11973	 12058	 12059
	 12092	 12133	 12138	 12184	 12190	 12210
ABAB	  4021#	 11385	 11695	 11701	 12159
ABABEN	  4016#	  9390	  9835	  9839	  9910	  9989	 10015	 10096	 11308	 11319	 11690	 11693	 11694	 11700
ABAD	  4021#	 11383	 11695	 11699	 12158
ABADEN	  4016#	  4860	  4864	  4879	  4892	  4897	  9721	  9873	  9976	 10013	 10263	 11290	 11344	 11690
	 11694	 11698
ABAS	  4022#	 11695	 12158
ABCLK	  9392	 11690#
ABMIXR	  9305	 11380#
ABORT	   174#
ABPC	  4021#	  9253	 11381	 11695	 11697	 12158
ABPCEN	  4016#	  4021	  4773	  4850	  4861	  4884	  4893	  4972	  4977	  4982	  4987	  4992	  4997	  5002 *** SEQ 0332
	  5007	  5012	  5017	  5022	  5027	  5032	  5037	  5042	  5047	  5128	  5136	  5144	  5152	  5160
	  5168	  5176	  5184	  5256	  5264	  5272	  5280	  5288	  5296	  5304	  5312	  5384	  5392	  5400
	  5408	  5416	  5424	  5432	  5440	  7217	  7232	  7247	  7262	  7277	  7292	  7337	  7352	  7367
	  7382	  7397	  7412	  7457	  7472	  7487	  7502	  7517	  7532	  7577	  7592	  7607	  7622	  7637
	  7652	  7697	  7712	  7727	  7742	  7757	  7772	  7817	  7832	  7847	  7862	  7877	  7892	  7937
	  7952	  7967	  7982	  7997	  8012	  8057	  8072	  8087	  8102	  8117	  8132	  8241	  8243	  8303
	  9027	  9798	 10820	 10909	 10935	 11106	 11110	 11316	 11348	 11690	 11694	 11696
AC	    44#	  1027	  1028	  1029	  1030	  1042	  1043	  1044	  1045	  1047	  1048	  1061	  1062	  1063
	  1064	  1077	  1078	  1079	  1080	  1085	  1088	  1089	  1094	  1095	  1097	  1098	  1108	  1109
	  1110	  1111	  1114	  1115	  1116	  1117	  1118	  1125	  1148	  1149	  1151	  1152	  1155	  1156
	  1221	  1222	  1223	  1224	  1227	  1228	  1229	  1230	  1256	  1257	  1258	  1259	  1285	  1286
	  1287	  1288	  1317	  1318	  1319	  1320	  1321	  1358	  1360	  1361	  1363	  1364	  1366	  1421
	  1422	  1423	  1466	  1467	  1468	  1469	  1470	  1471	  1472	  1473	  1474	  1475	  1476	  1477
	  1478	  1479	  1480	  1481	  1489	  1495	  1498	  1500	  1501	  1502	  1503	  1515	  1516	  1522
	  1523	  1529	  1530	  1536	  1537	  1587	  1590	  1591	  1593	  1601	  1602	  1603	  1604	  1605
	  1606	  1607	  1608	  1611	  1612	  1613	  1614	  1615	  1616	  1617	  1618	  1621	  1622	  1623
	  1624	  1625	  1626	  1627	  1628	  1631	  1632	  1633	  1634	  1635	  1636	  1637	  1638	  1641
	  1642	  1643	  1644	  1645	  1646	  1647	  1648	  1650	  1651	  1652	  1653	  1654	  1655	  1656
	  1657	  1660	  1661	  1662	  1663	  1664	  1665	  1666	  1667	  1670	  1671	  1672	  1673	  1674
	  1677	  1678	  1681	  1682	  1685	  1686	  1687	  1688
AC1	  3474#	  3513	  3514	  3515	  3516	  3517	  3518	  3519	  3522	  3523	  3524	  3525	  3526	  3530
	  3531	  3532	  3536	  3546	  3549	  3550	  3551	  3552	  3560	  3564	  3570	  3571	  3572	  3573
	  3581	  3584	  3585	  3586	  3587	  3588	  3589	  3591	  3592	  3598	  3600	  3602	  3603	  3604
	  3607	  3608	  3626	  3628	  3629	  3630	  3638	  3649	  3650	  3651	  3652	  3688#	  3705	  3706
	  3708	  3715	  3717	  3719	  3720	  3728	  3730	  3732	  3733	  3734	  3735	  3737	  3738	  3739
	  3740	  3741	  3742	  3743	  3753	  3754	  3755	  3756	  3793#	  3809	  3810	  3812	  3818	  3819
	  3820	  3821	  3823	  3835	  3837	  3838	  3846	  3854	  3855	  3856	  3857
AC1PL	  3546	  3553#
AC1WPL	  3566	  3574#
AC2	  3471#	  3528	  3531	  3538	  3544	  3553	  3556	  3557	  3558	  3559	  3561	  3577	  3578	  3579
	  3580	  3582	  3584	  3586	  3639	  3644	  3686#	  3712	  3713	  3729	  3731	  3732	  3733	  3735
	  3739	  3747	  3748	  3749	  3750	  3790#	  3815	  3816	  3826	  3836	  3837	  3843	  3848	  3849
	  3850	  3851
AC2PL	  3553	  3560#
AC2WPL	  3575	  3581#	  3656
ACKDLY	 11995	 12039	 12245#
ACPL2	 11101#	 11101	 11102
ACPNT	  2111#
ACREF	 11977	 12089#
ACREF1	 12095	 12101#
ACREF2	 12090	 12094#
ACREF3	 12107	 12112#
ACS	   782	  1874#	  2513	  2521	  2584	 11394	 11706	 12105	 12115
ACSP	    47#	   782	  1206	  1207	  1208	  1209	  1221	  1223	  1227	  1229	  1302	  1303	  1304	  1305
	  1358	  1361	  1364	  1564	  1565	  1566	  1567
AD	   152#	  1814	  1939	  3966#	  8242	  8324	  8367	  8375	  8387	  8398	  8400	  8601	  8667	  8710
	  9298	  9337	  9431	  9433	  9435	  9437	  9441	  9444	  9455	  9457	  9459	  9461	  9463	  9465
	  9467	  9470	  9473	  9475	  9477	  9479	  9485	  9489	  9491	  9493	  9497	  9506	  9517	  9531
	  9659	  9676	  9684	  9690	  9705	 10297	 10384	 10404	 10413	 10438	 10482	 10513	 10515	 10617
	 10752	 10998	 11063	 11384	 11404	 11406	 11498	 11508	 11522	 11541	 11556	 11759	 11760	 11761
	 11762	 11765	 11767	 11769	 11819	 11820	 11821	 11822	 11823	 11824	 11825	 11827	 11838	 11860
	 11869	 11870	 11872	 11873	 11881	 11882	 11884	 11885	 11886	 11896	 11908	 11910	 11920	 11922
	 11947	 11960	 12210	 12211                                                                                 *** SEQ 0333
AD17.5	  8631#	  8631	  9505#	  9505
AD2	  9457#	  9457	  9491	  9493	  9494	  9510	  9519	  9564	  9586
AD4	  9498#	  9498	  9513	  9531	  9566	  9591
ADADD	  3989#	  4213	  4214	  4347	  4349	  4353	  4355	  4359	  4361	  4365	  4367	  4371	  4373	  4377
	  4379	  4383	  4385	  4389	  4391	  4572	  4574	  4578	  4580	  4586	  4590	  4592	  4596	  4598
	  4602	  4604	  4610	  4614	  4616	  4695	  4702	  4709	  4716	  4723	  4730	  4737	  4744	  4809
	  4810	  4821	  4826	  4853	  4868	  4913	  4919	  4925	  4931	  4937	  4943	  4949	  4955	  4972
	  4977	  4982	  4987	  4992	  4997	  5002	  5007	  5012	  5017	  5022	  5027	  5032	  5037	  5042
	  5047	  5193	  5201	  5209	  5217	  5225	  5233	  5241	  5249	  5257	  5265	  5273	  5281	  5289
	  5297	  5305	  5313	  5321	  5329	  5337	  5345	  5353	  5361	  5369	  5377	  5385	  5393	  5401
	  5409	  5417	  5425	  5433	  5441	  8158	  8160	  8164	  8166	  8170	  8172	  8176	  8178	  8182
	  8184	  8190	  8199	  8203	  8207	  8211	  8216	  8220	  8221	  8258	  8260	  8423	  8436	  8476
	  8668	  8679	  8687	  8700	  8848	  9340	  9341	  9349	  9350	  9490	  9514	  9528	  9530	  9719
	 10030	 10327	 10354	 10355	 10386	 10506	 10583	 10715	 10846	 10853	 10889	 10904	 10976	 11002
	 11010	 11059	 11109	 11117	 11216	 11246	 11290	 11291	 11720	 11741	 11745	 11746
ADARLP	  3989#	  3990	  6392	  6395	  6404	  6407	  6419	  6428	  6431	  6488	  6491	  6500	  6503	  6515
	  6524	  6527	  6584	  6587	  6596	  6599	  6611	  6620	  6623	  6680	  6683	  6692	  6695	  6707
	  6716	  6719	  6812	  6860	  9432
ADARMI	  3989#	  4347	  4349	  4353	  4355	  4359	  4361	  4365	  4367	  4371	  4373	  4377	  4379	  4383
	  4385	  4389	  4391	  4572	  4574	  4578	  4580	  4586	  4590	  4592	  4596	  4598	  4602	  4604
	  4610	  4614	  4616	  4809	  4937	  4943	  4949	  4955	  4972	  4977	  4982	  4987	  4992	  4997
	  5002	  5007	  5012	  5017	  5022	  5027	  5032	  5037	  5042	  5047	  5481	  5484	  5495	  5498
	  5509	  5512	  5523	  5526	  5537	  5540	  5551	  5554	  5565	  5568	  5579	  5582	  5593	  5596
	  5607	  5610	  5621	  5624	  5635	  5638	  5649	  5652	  5663	  5666	  5677	  5680	  5691	  5694
	  5705	  5708	  5719	  5722	  5733	  5736	  5747	  5750	  5761	  5764	  5775	  5778	  5789	  5792
	  5803	  5806	  5817	  5820	  5831	  5834	  5845	  5848	  5859	  5862	  5873	  5876	  5887	  5890
	  5901	  5904	  5915	  5918	  5929	  5932	  5943	  5946	  5957	  5960	  5971	  5974	  5985	  5988
	  5999	  6002	  6013	  6016	  6027	  6030	  6041	  6044	  6055	  6058	  6069	  6072	  6083	  6086
	  6097	  6100	  6111	  6114	  6125	  6128	  6139	  6142	  6153	  6156	  6167	  6170	  6181	  6184
	  6195	  6198	  6209	  6212	  6223	  6226	  6237	  6240	  6251	  6254	  6265	  6268	  6279	  6282
	  6293	  6296	  6307	  6310	  6321	  6324	  6335	  6338	  6349	  6352	  6363	  6366	  7185	  7200
	  7215	  7230	  7245	  7260	  7275	  7290	  7305	  7320	  7335	  7350	  7365	  7380	  7395	  7410
	  7425	  7428	  7440	  7443	  7455	  7458	  7470	  7473	  7485	  7488	  7500	  7503	  7515	  7518
	  7530	  7533	  7545	  7548	  7560	  7563	  7575	  7578	  7590	  7593	  7605	  7608	  7620	  7623
	  7635	  7638	  7650	  7653	  7665	  7669	  7680	  7684	  7695	  7699	  7710	  7714	  7725	  7729
	  7740	  7744	  7755	  7759	  7770	  7774	  7785	  7789	  7800	  7804	  7815	  7819	  7830	  7834
	  7845	  7849	  7860	  7864	  7875	  7879	  7890	  7894	  7905	  7909	  7920	  7924	  7935	  7939
	  7950	  7954	  7965	  7969	  7980	  7984	  7995	  7999	  8010	  8014	  8025	  8029	  8040	  8044
	  8055	  8059	  8070	  8074	  8085	  8089	  8100	  8104	  8115	  8119	  8130	  8134	  8377	  8437
	  8561	  8687	  8848	  9436	 10327	 10355	 10853	 11002	 11010	 11109	 11228
ADARPL	  3990#	  4160	  4165	  4170	  4175	  4201	  4213	  4225	  4233	  4240	  4254	  4258	  4269	  4273
	  4408	  4414	  4420	  4426	  4432	  4438	  4444	  4450	  4695	  4702	  4709	  4716	  4723	  4730
	  4737	  4744	  4773	  4798	  4811	  4892	  4913	  4919	  4925	  4931	  5129	  5137	  5145	  5153
	  5161	  5169	  5177	  5185	  5257	  5265	  5273	  5281	  5289	  5297	  5305	  5313	  5385	  5393
	  5401	  5409	  5417	  5425	  5433	  5441	  5481	  5495	  5509	  5523	  5537	  5551	  5565	  5579
	  5593	  5607	  5621	  5635	  5649	  5663	  5677	  5691	  5705	  5719	  5733	  5747	  5761	  5775
	  5789	  5803	  5817	  5831	  5845	  5859	  5873	  5887	  5901	  5915	  5929	  5943	  5957	  5971
	  5985	  5999	  6013	  6027	  6041	  6055	  6069	  6083	  6097	  6111	  6125	  6139	  6153	  6167
	  6181	  6195	  6209	  6223	  6237	  6251	  6265	  6279	  6293	  6307	  6321	  6335	  6349	  6363
	  7185	  7200	  7215	  7230	  7245	  7260	  7275	  7290	  7305	  7320	  7335	  7350	  7365	  7380
	  7395	  7410	  7425	  7440	  7455	  7470	  7485	  7500	  7515	  7530	  7545	  7560	  7575	  7590
	  7605	  7620	  7635	  7650	  7665	  7680	  7695	  7710	  7725	  7740	  7755	  7770	  7785	  7800
	  7815	  7830	  7845	  7860	  7875	  7890	  7905	  7909	  7920	  7924	  7935	  7939	  7950	  7954 *** SEQ 0334
	  7965	  7969	  7980	  7984	  7995	  7999	  8010	  8014	  8025	  8029	  8040	  8044	  8055	  8059
	  8070	  8074	  8085	  8089	  8100	  8104	  8115	  8119	  8130	  8134	  8158	  8164	  8176	  8216
	  8220	  8221	  8376	  8423	  8436	  8845	  9340	  9341	  9349	  9350	  9808	  9976	 10328	 10343
	 10354	 10376	 10389	 10427	 10444	 10453	 10462	 10550	 10684	 10721	 10728	 10750	 10789	 10838
	 10846	 10889	 10897	 10909	 10976	 11045	 11088	 11145	 11157	 11216	 11222	 11246	 11344
ADARRP	  3989#	  3990	  6428	  6476	  6776	  6778	  6788	  6790	  6802	  6812	  6814	  6872	  6874	  6884
	  6886	  6898	  6908	  6910	  6968	  6970	  6980	  6982	  6994	  7004	  7006	  7064	  7066	  7076
	  7078	  7090	  7100	  7102	  9434
ADBRLP	  3989#	  3991	  6778	  6790	  6802	  6814	  6826	  6838	  6850	  6862	  9469
ADBRMI	  3989#	  7909	  7924	  7939	  7954	  7969	  7984	  7999	  8014	  8029	  8044	  8059	  8074	  8089
	  8104	  8119	  8134	  8158	  8164	  8176	  8469	  8679	  9340	  9349	  9476	 10984	 11114	 11741
ADBRP2	  4061#	  9481	 11149	 11747
ADBRPL	  3991#	  4136	  4140	  4145	  4254	  4258	  4269	  4273	  4773	  4823	  4828	  4856	  4869	  4889
	  4897	  5069	  5077	  5085	  5093	  5101	  5109	  5117	  5125	  5197	  5205	  5213	  5221	  5229
	  5237	  5245	  5253	  5325	  5333	  5341	  5349	  5357	  5365	  5373	  5381	  8158	  8164	  8176
	  8470	  8561	  8678	  9037	  9103	  9341	  9350	 10013	 10030	 10262	 10758	 10870	 10889	 10904
	 10976	 10984	 11029	 11059	 11228	 11246	 11290	 11291	 11327	 11746
ADBRRP	  3989#	  3991	  6394	  6406	  6418	  6430	  6442	  6454	  6466	  6478	  9472
ADCLK	  9391	 11678#
ADCLKI	  4018#	  4973	  4978	  4983	  4988	  4993	  4998	  5003	  5008	  5013	  5018	  5023	  5028	  5033
	  5038	  5043	  5048	  5067	  5075	  5083	  5091	  5099	  5107	  5115	  5123	  5131	  5139	  5147
	  5155	  5163	  5171	  5179	  5187	  5195	  5203	  5211	  5219	  5227	  5235	  5243	  5251	  5259
	  5267	  5275	  5283	  5291	  5299	  5307	  5315	  5323	  5331	  5339	  5347	  5355	  5363	  5371
	  5379	  5387	  5395	  5403	  5411	  5419	  5427	  5435	  5443	  9388
ADCOND	  9661#	  9661	  9663	  9689	  9691	  9696	  9701	  9704
ADCR36	  3989#	  3992	  4213	  4214	  4347	  4349	  4353	  4355	  4359	  4361	  4365	  4367	  4371	  4373
	  4377	  4379	  4383	  4385	  4389	  4391	  4572	  4574	  4578	  4580	  4586	  4590	  4592	  4596
	  4598	  4602	  4604	  4610	  4614	  4616	  4937	  4943	  4949	  4955	  4972	  4977	  4982	  4987
	  4992	  4997	  5002	  5007	  5012	  5017	  5022	  5027	  5032	  5037	  5042	  5047	  5194	  5202
	  5210	  5218	  5226	  5234	  5242	  5250	  5258	  5266	  5274	  5282	  5290	  5298	  5306	  5314
	  8158	  8164	  8176	  8216	  8220	  8221	  8423	  8436	  8469	  8476	  8668	  8679	  8687	  8700
	  8848	  9340	  9349	  9495	 10030	 10327	 10354	 10355	 10506	 10583	 10715	 10853	 10984	 11002
	 11010	 11109	 11117	 11216	 11741
ADDER	  9303	  9431#
ADDER1	  9446	  9457#
ADDER2	  9482	  9486	  9489#
ADDTST	  2323	  2329#
ADEQV	  3989#	  5481	  5495	  5509	  5523	  5537	  5551	  5565	  5579	  5593	  5607	  5621	  5635	  5649
	  5663	  5677	  5691	  5705	  5719	  5733	  5747	  5761	  5775	  5789	  5803	  5817	  5831	  5845
	  5859	  5873	  5887	  5901	  5915	  5929	  5943	  5957	  5971	  5985	  5999	  6013	  6027	  6041
	  6055	  6069	  6083	  6097	  6111	  6125	  6139	  6153	  6167	  6181	  6195	  6209	  6223	  6237
	  6251	  6265	  6279	  6293	  6307	  6321	  6335	  6349	  6363	  7665	  7669	  7680	  7684	  7699
	  7714	  7729	  7744	  7759	  7774	  7785	  7789	  7800	  7804	  7819	  7834	  7849	  7864	  7879
	  7894	  7909	  7924	  7939	  7954	  7969	  7984	  7999	  8014	  8029	  8044	  8059	  8074	  8089
	  8104	  8119	  8134	  9490	  9492	  9526	  9528	 11015
ADFLGO	  9524	  9534#
ADFLGS	  8257	  8332	  8346	  8455	  8595	  9520	  9522#	  9523	  9535	  9536	  9656#	  9656	 11115	 11297
ADFMLP	  3989#	  3989	  6775	  6787	  6823	  6835	  9462
ADFMMI	  3989#	  4212	  4214	  4234	  4572	  4578	  4590	  4596	  4602	  4614	  5481	  5495	  5509	  5523
	  5537	  5551	  5565	  5579	  5593	  5607	  5621	  5635	  5649	  5663	  5677	  5691	  5705	  5719
	  5733	  5747	  5761	  5775	  5789	  5803	  5817	  5831	  5845	  5859	  5873	  5887	  5901	  5915
	  5929	  5943	  5957	  5971	  5985	  5999	  6013	  6027	  6041	  6055	  6069	  6083	  6097	  6111
	  6125	  6139	  6153	  6167	  6181	  6195	  6209	  6223	  6237	  6251	  6265	  6279	  6293	  6307 *** SEQ 0335
	  6321	  6335	  6349	  6363	  7909	  7924	  7939	  7954	  7969	  7984	  7999	  8014	  8029	  8044
	  8059	  8074	  8089	  8104	  8119	  8134	  8221	  8476	  8700	  9108	  9466	 10655
ADFMPL	  3989#	  4135	  4136	  4139	  4140	  4144	  4145	  4148	  4149	  4207	  4228	  4238	  4268	  4272
	  4287	  4289	  4293	  4295	  4299	  4301	  4305	  4307	  4311	  4313	  4317	  4319	  4323	  4325
	  4329	  4331	  4349	  4355	  4361	  4367	  4373	  4379	  4385	  4391	  4405	  4407	  4411	  4413
	  4417	  4419	  4423	  4425	  4429	  4431	  4435	  4437	  4441	  4443	  4447	  4449	  4463	  4465
	  4469	  4471	  4475	  4477	  4481	  4483	  4487	  4489	  4493	  4495	  4499	  4501	  4505	  4507
	  4524	  4530	  4536	  4542	  4548	  4554	  4560	  4566	  4572	  4578	  4584	  4590	  4596	  4602
	  4608	  4614	  4633	  4639	  4645	  4651	  4657	  4663	  4669	  4675	  4691	  4698	  4705	  4712
	  4719	  4726	  4733	  4740	  4751	  4772	  4783	  4787	  4791	  4804	  4809	  4810	  4821	  4826
	  4853	  4868	  4893	  4913	  4919	  4925	  4931	  4937	  4943	  4949	  4955	  4972	  4977	  4982
	  4987	  4992	  4997	  5002	  5007	  5012	  5017	  5022	  5027	  5032	  5037	  5042	  5047	  5064
	  5072	  5080	  5088	  5096	  5104	  5112	  5120	  5192	  5200	  5208	  5216	  5224	  5232	  5240
	  5248	  5320	  5328	  5336	  5344	  5352	  5360	  5368	  5376	  5481	  5495	  5509	  5523	  5537
	  5551	  5565	  5579	  5593	  5607	  5621	  5635	  5649	  5663	  5677	  5691	  5705	  5719	  5733
	  5747	  5761	  5775	  5789	  5803	  5817	  5831	  5845	  5859	  5873	  5887	  5901	  5915	  5929
	  5943	  5957	  5971	  5985	  5999	  6013	  6027	  6041	  6055	  6069	  6083	  6097	  6111	  6125
	  6139	  6153	  6167	  6181	  6195	  6209	  6223	  6237	  6251	  6265	  6279	  6293	  6307	  6321
	  6335	  6349	  6363	  6415	  6463	  6511	  6559	  6607	  6655	  6703	  6751	  6799	  6847	  6895
	  6943	  6991	  7039	  7087	  7135	  7185	  7200	  7215	  7230	  7245	  7260	  7275	  7290	  7305
	  7320	  7335	  7350	  7365	  7380	  7395	  7410	  7425	  7428	  7440	  7443	  7455	  7458	  7470
	  7473	  7485	  7488	  7500	  7503	  7515	  7518	  7530	  7533	  7545	  7548	  7560	  7563	  7575
	  7578	  7590	  7593	  7605	  7608	  7620	  7623	  7635	  7638	  7650	  7653	  7665	  7669	  7680
	  7684	  7695	  7699	  7710	  7714	  7725	  7729	  7740	  7744	  7755	  7759	  7770	  7774	  7785
	  7789	  7800	  7804	  7815	  7819	  7830	  7834	  7845	  7849	  7860	  7864	  7875	  7879	  7890
	  7894	  7905	  7920	  7935	  7950	  7965	  7980	  7995	  8010	  8025	  8040	  8055	  8070	  8085
	  8100	  8115	  8130	  8217	  8479	  8701	  9108	  9719	  9810	 10656
ADFMRP	  3989#	  3989	  6391	  6403	  6439	  6451	  9464
ADMAGI	  3989#	  4213	  4347	  4349	  4353	  4355	  4359	  4361	  4365	  4367	  4371	  4373	  4377	  4379
	  4383	  4385	  4389	  4391	  4574	  4580	  4586	  4592	  4598	  4604	  4610	  4616	  5258	  5266
	  5274	  5282	  5290	  5298	  5306	  5314	  8216	  8220	  8221	  8423	  8436	  8443	  8687	  8848
	  9474	 10327	 10354	 10355	 10506	 10583	 10715	 10846	 10853	 11002	 11010	 11015	 11109	 11216
	 11339
ADMBEN	  4061#	  8580	  8790	  8829	  8854	 10920	 10960	 10970	 10987	 11003	 11196
ADMBLE	  4061#	  4061	  9440	  9720
ADMBRE	  4061#	  4061	  9443	  9715
ADMI1B	  3989#	  4868	  8158	  8164	  8176	  9500
ADMSKG	  4061#	  8477	  8533	  8591	  8672	  8677	  8702	  8982	  9112	  9445	 10031	 11119	 11293
ADOVF	  9478#	  9478	  9480	  9487	  9508	  9515	  9527	  9529	 11791	 11801	 11803	 11812	 11814
ADOVF1	  9458#	  9458	  9460	  9511	  9525
ADPL1B	  3992#	  4821	  4826	  4853	 11290
ADPL1L	  3989#	  3992	  4809	  9502	  9719
ADPR	  9489#	  9489	  9565	  9588	  9590	  9593	 11840
ADSUB	  4575	  4581	  4587	  4593	  4916	  4922	  4928	  4934	  4940	  4946	  4952	  4958	  8255#	  8256
ADSUB1	  8256#	  8278	  8298
ADTEM	  9507#	  9507	  9518
ADTIME	 11719	 11723	 12262#
ADX	  1823	  2004	  9344	  9540#	  9540	  9570	  9572	  9578	  9580	  9584	 10937	 10946	 11544	 11657
	 11663	 11666	 11674	 11813	 11826	 11851
ADXADD	  4065#	  8849	  9345	  9579	  9581	  9589	  9592	 10716	 10845	 10854	 10890	 10905	 10978	 11751
ADXBRM	  4065#	  8776	  9547	 10698	 10877
ADXCR0	  9574	  9576#	  9576	 10693
ADXEQV	  4065#	  8739	  8776	  8834	  9145	  9577	  9579	  9587	  9589	 10698	 10871	 10877                 *** SEQ 0336
ADXER	  9304	  9539#
ADXER1	  9553	  9563#
ADXER2	  9582	  9586#
ADXFM2	  4065#	  9552	 11747
ADXFMM	  4065#	  8739	  8834	  8849	  9145	  9351	  9545	 10716	 10845	 10854	 10871	 10983	 11742
ADXFMP	  4065#	  8739	  8834	  8849	  9345	  9351	  9543	 10716	 10845	 10854	 10890	 10905	 10978	 10983
	 11748
ADXTMP	  9563#	  9563	  9568	  9571	  9583
ALTMGO	   528#
AMCLRB	   442#
ANXM	   442#
AOBJD	  4821	  4826	  8975#
AOBJX	  4823	  4828	  8240#	  8241	 10181	 10183
AOJD	  5194	  5202	  5210	  5218	  5226	  5234	  5242	  5250	  8981#
APR	   875	   880	  1036	  1041	  1071	  1076	  1172	  1177	  1407	  1551	  1700	  1702	  1708	  1718
AR	   149#	  1811	  1944	  3963#	  8252	  8309	  8311	  8368	  8390	  8487	  8694	  8718	  8785	  8897
	  9045	  9297	  9362	  9433	  9435	  9437	  9453	  9606	  9615	  9634	 10371	 10373	 10474	 10475
	 10486	 10496	 10497	 10500	 10501	 10527	 10566	 10569	 10570	 10577	 10578	 10593	 10594	 10597
	 10598	 10608	 10614	 10686	 10801	 10808	 10979	 11022	 11036	 11171	 11366	 11367	 11408	 11410
	 11435	 11455	 11462	 11476	 11602	 11622	 11624	 11709	 11763	 11764	 11772	 11784	 11787	 11788
	 11796	 11799	 11800	 11807	 11810	 11811	 11893	 11894	 11929	 12065	 12105	 12169
AR0L	 11497	 11759#
AR0R1	 11504	 11783#
AR0R2	 11515	 11795#
AR1R1	 11507	 11818#
AR1R2	 11518	 11806#
AR2R2	 11519	 11819#
AR35L	 11495	 11771#
ARADEN	  4012#	  4136	  4137	  4140	  4141	  4145	  4146	  4149	  4209	  4213	  4230	  4234	  4235	  4239
	  4255	  4259	  4270	  4274	  4290	  4296	  4302	  4308	  4314	  4320	  4326	  4332	  4349	  4350
	  4355	  4356	  4361	  4362	  4367	  4368	  4373	  4374	  4379	  4380	  4385	  4386	  4391	  4392
	  4407	  4413	  4419	  4425	  4431	  4437	  4443	  4449	  4465	  4471	  4477	  4483	  4489	  4495
	  4501	  4507	  4526	  4532	  4538	  4544	  4550	  4556	  4562	  4568	  4574	  4575	  4580	  4581
	  4586	  4587	  4592	  4593	  4598	  4604	  4610	  4616	  4693	  4700	  4707	  4714	  4721	  4728
	  4735	  4742	  4759	  4763	  4767	  4773	  4783	  4787	  4791	  4806	  4810	  4823	  4828	  4855
	  4866	  4869	  4874	  4894	  4916	  4922	  4928	  4934	  4940	  4946	  4952	  4958	  5069	  5077
	  5085	  5093	  5101	  5109	  5117	  5125	  5132	  5140	  5148	  5156	  5164	  5172	  5180	  5188
	  5197	  5205	  5213	  5221	  5229	  5237	  5245	  5253	  5260	  5268	  5276	  5284	  5292	  5300
	  5308	  5316	  5325	  5333	  5341	  5349	  5357	  5365	  5373	  5381	  5388	  5396	  5404	  5412
	  5420	  5428	  5436	  5444	  5484	  5485	  5498	  5499	  5512	  5513	  5526	  5527	  5540	  5541
	  5554	  5555	  5568	  5569	  5582	  5583	  5596	  5597	  5610	  5611	  5624	  5625	  5638	  5639
	  5652	  5653	  5666	  5667	  5680	  5681	  5694	  5695	  5708	  5709	  5722	  5723	  5736	  5737
	  5750	  5751	  5764	  5765	  5778	  5779	  5792	  5793	  5806	  5807	  5820	  5821	  5834	  5835
	  5848	  5849	  5862	  5863	  5876	  5877	  5890	  5891	  5904	  5905	  5918	  5919	  5932	  5933
	  5946	  5947	  5960	  5961	  5974	  5975	  5988	  5989	  6002	  6003	  6016	  6017	  6030	  6031
	  6044	  6045	  6058	  6059	  6072	  6073	  6086	  6087	  6100	  6101	  6114	  6115	  6128	  6129
	  6142	  6143	  6156	  6157	  6170	  6171	  6184	  6185	  6198	  6199	  6212	  6213	  6226	  6227
	  6240	  6241	  6254	  6255	  6268	  6269	  6282	  6283	  6296	  6297	  6310	  6311	  6324	  6325
	  6338	  6339	  6352	  6353	  6366	  6367	  6395	  6407	  6419	  6431	  6443	  6455	  6467	  6479
	  6491	  6503	  6515	  6527	  6539	  6551	  6563	  6575	  6587	  6599	  6611	  6623	  6635	  6647
	  6659	  6671	  6683	  6695	  6707	  6719	  6731	  6743	  6755	  6767	  6779	  6791	  6803	  6815
	  6827	  6839	  6851	  6863	  6875	  6887	  6899	  6911	  6923	  6935	  6947	  6959	  6971	  6983
	  6995	  7007	  7019	  7031	  7043	  7055	  7067	  7079	  7091	  7103	  7115	  7127	  7139	  7151 *** SEQ 0337
	  7191	  7206	  7221	  7236	  7251	  7266	  7281	  7296	  7311	  7326	  7341	  7356	  7371	  7386
	  7401	  7416	  7431	  7446	  7461	  7476	  7491	  7506	  7521	  7536	  7551	  7566	  7581	  7596
	  7611	  7626	  7641	  7656	  7671	  7686	  7701	  7716	  7731	  7746	  7761	  7776	  7791	  7806
	  7821	  7836	  7851	  7866	  7881	  7896	  7911	  7926	  7941	  7956	  7971	  7986	  8001	  8016
	  8031	  8046	  8061	  8076	  8091	  8106	  8121	  8136	  8218	  8222	  8253	  8463	  8535	  8711
	  9104	  9973	 10318	 10325	 10358	 10362	 10390	 10417	 10626	 10721	 10774	 10812	 10820	 10829
	 10858	 10923	 10964	 10976	 11002	 11054	 11066	 11073	 11110	 11122	 11296	 11331	 11400
ARCLK	  9361	 11399#	 11399	 11402	 11431	 11438	 11448	 11466
ARCLR	  4006#	  8361	  8442	 10375	 10439	 10444	 10671	 10690	 10803	 10829	 10897	 10999	 11051	 11430
ARESAE	  8669	  9326	 10440	 10630	 10672	 10777	 11422#	 11422
ARFLGS	  4010#	  4861	  4884	  4889	  9378	  9379	 10055	 10056	 11400	 11411	 11412
ARGOLT	  8363	  8558	  8650	 10296	 10412	 10446	 10792	 10796	 10839	 10900	 10945	 11043	 11082	 11084
	 11163#	 11163
ARI08	  9301#	  9301	 10374	 11443	 11445
ARIREN	  4010#	  4161	  4166	  4171	  4176	  4202	  4799	 11400	 11417
ARITH	  3837#
ARLARR	  4010#	  4010	  4013	  4893	  6444	  6456	  6468	  6480	  6540	  6552	  6564	  6576	  6636	  6648
	  6660	  6672	  6732	  6744	  6756	  6768	  8313	  8411	  8637	  8639	 11334	 11409
ARLT	 11425	 11482#
ARLT1	 11490	 11495#
ARLTAD	  4010#	  4010	  4012	  6396	  6408	  6420	  6432	  6492	  6504	  6516	  6528	  6588	  6600	  6612
	  6624	  6684	  6696	  6708	  6720	  6781	  6793	  6805	  6817	  6829	  6841	  6853	  6865	  6973
	  6985	  6997	  7009	  7021	  7033	  7045	  7057	  8313	  8315	  8639	  9753	 11403
ARLTEM	 11488#	 11488	 11780
ARMIX	  9362	 11446#	 11446
ARMIX1	 11401	 11420#
ARMIX2	 11440	 11469#
ARMIX3	 11443#	 11474	 11480
ARMIX4	 11448#	 11512
ARMIX5	 11433	 11439#
ARMIX6	 11421	 11462#
ARMIX7	 11423	 11450#
ARMIX8	 11441#	 11472
ARMIXR	  9355	 11399#
ARMQEN	  8386	  8417	  8457	  8555	  8569	  8573	  8597	  8856	  9321	 10242	 10332	 10424	 10659	 10700
	 10881	 10929	 10969	 11009	 11343	 11353	 11441#	 11441	 11473
AROV	   442#	  1345	  4077#	  8256	  8262	  8393	  8734	  9014	  9534	 10301	 10639	 10640	 10770	 10955
	 11174
AROVTP	   442#
AROVU	   442#
ARPCEN	  4011#	  4811	  4835	  4861	  4884	  4889	  4893	 11334	 11400	 11414	 11415
ARPOSE	  8544#	  8544	  9323	 11432
ARRARL	  4010#	  4011	  4013	  4810	  6828	  6840	  6852	  6864	  6924	  6936	  6948	  6960	  7020	  7032
	  7044	  7056	  7116	  7128	  7140	  7152	  9976	 11407
ARRT1	 11427	 11503#
ARRT1A	 11501	 11511#	 11525
ARRT2	 11429	 11514#
ARRTAD	  4010#	  4011	  4012	  4161	  4166	  4171	  4176	  4202	  4799	  6397	  6409	  6421	  6433	  6445
	  6457	  6469	  6481	  6589	  6601	  6613	  6625	  6637	  6649	  6661	  6673	  6781	  6793	  6805
	  6817	  6877	  6889	  6901	  6913	  6973	  6985	  6997	  7009	  7069	  7081	  7093	  7105	  8314
	  9748	 11405
ARSHLT	  4006#	  8379	 10295	 10401	 10409	 10452	 10550	 10728	 10914	 10935	 10941	 11165	 11424
ARSHR2	  4006#	 11177	 11428                                                                                         *** SEQ 0338
ARSHRT	  4006#	 10362	 10394	 10619	 10676	 10893	 11067	 11129	 11426
ARSMR	  8352	  8663	  8757	  9325	 10372	 10781	 10815	 11055	 11420#	 11420
ARSWAP	  4013#	  4289	  4295	  4301	  4307	  4313	  4319	  4325	  4331	  4349	  4355	  4361	  4367	  4373
	  4379	  4385	  4391	  4407	  4413	  4419	  4425	  4431	  4437	  4443	  4449	  4465	  4471	  4477
	  4483	  4489	  4495	  4501	  4507	  4551	  4557	  4563	  4569	  7188	  7203	  7218	  7233	  7248
	  7263	  7278	  7293	  7308	  7323	  7338	  7353	  7368	  7383	  7398	  7413	  7428	  7443	  7458
	  7473	  7488	  7503	  7518	  7533	  7548	  7563	  7578	  7593	  7608	  7623	  7638	  7653	  7668
	  7683	  7698	  7713	  7728	  7743	  7758	  7773	  7788	  7803	  7818	  7833	  7848	  7863	  7878
	  7893	  7908	  7923	  7938	  7953	  7968	  7983	  7998	  8013	  8028	  8043	  8058	  8073	  8088
	  8103	  8118	  8133	 11400
ARX	  1819	  2009	  8799	  8844	  9365#	  9365	  9539#	  9539	 10685	 10719	 10732	 10751	 10760	 11376
	 11912
ARX0R1	 11670	 11844#
ARX35L	 11660	 11831#
ARX9R2	 11843#
ARXADX	  4060#	  8776	  8782	  8816	  8834	  8849	  8854	 10703	 10722	 10819	 10828	 10857	 10877	 10880
	 11641
ARXCLK	  9364#	  9364	 11637	 11640	 11664#	 11664
ARXCLR	  4060#	  9136	 10698	 10828	 11639
ARXMIX	  9363#	  9363	 11653
ARXMX1	 11642	 11663#
ARXMX2	 11645	 11657#
ARXMX3	 11647	 11666#
ARXMX4	 11649	 11674#
ARXMX5	 11661#	 11672	 11676
ARXMXR	  9356	 11637#
ARXSHL	  4060#	 10727	 10916	 10936	 10942	 11167	 11644
ARXSHR	  4060#	 10677	 10754	 10894	 10924	 11135	 11646
ARXSR2	  4060#	 11182	 11648
AST	   643#	  2099
ATSIN	   644#	  2174
AUXTAB	  8905#	  8907	  8908	  8910	  8911	  8913	  8914	  8915	  8916	  8917	  8918	  8919	  8920	  8921
	  8922	  8923	  8924	  8926	  8927	  8929	  8930	  8932	  8933	  8935	  8936	  8937	  8938	  8940
	  8941	  8943	  8944	  8946	  8947	  8949	  8950	  8951	  8952	  8954	  8955	  8957	  8958	  8960
	  8961	  8963	  8964	  8966	  8967	  8969	  8970	  8972	  8973	  8975	  8976	  8977	  8978	  8979
	  8980	  8981	  8982	  8984	  8985	  8987	  8988	  8990	  8991	  8993	  8994	  8996	  8997	 10059
B	  3876#	  3884	  3887	  3888	  3890	  3893	  3897	  3901	  3927#	  3931	  3932	  3937	  3940	  3945
BEGBYT	   931	   952	   968#
BEGDFP	   972	   981#
BEGEND	   524#	   985	  1010	  1016
BEGFP	   892	   917	   927#
BEGFX	   859	   877	   882	   887#
BEGIN	    97	   388	   389	   455#	   776	   834	   842	  1558	  2203	  2283	 12672
BEGIN1	   471#	   525
BELL	   647#	  1276
BFLGS	  5481#	  5482	  5495#	  5496	  5509#	  5510	  5523#	  5524	  5537#	  5538	  5551#	  5552	  5565#	  5566
	  5579#	  5580	  5593#	  5594	  5607#	  5608	  5621#	  5622	  5635#	  5636	  5649#	  5650	  5663#	  5664
	  5677#	  5678	  5691#	  5692	  5705#	  5706	  5719#	  5720	  5733#	  5734	  5747#	  5748	  5761#	  5762
	  5775#	  5776	  5789#	  5790	  5803#	  5804	  5817#	  5818	  5831#	  5832	  5845#	  5846	  5859#	  5860
	  5873#	  5874	  5887#	  5888	  5901#	  5902	  5915#	  5916	  5929#	  5930	  5943#	  5944	  5957#	  5958
	  5971#	  5972	  5985#	  5986	  5999#	  6000	  6013#	  6014	  6027#	  6028	  6041#	  6042	  6055#	  6056
	  6069#	  6070	  6083#	  6084	  6097#	  6098	  6111#	  6112	  6125#	  6126	  6139#	  6140	  6153#	  6154
	  6167#	  6168	  6181#	  6182	  6195#	  6196	  6209#	  6210	  6223#	  6224	  6237#	  6238	  6251#	  6252 *** SEQ 0339
	  6265#	  6266	  6279#	  6280	  6293#	  6294	  6307#	  6308	  6321#	  6322	  6335#	  6336	  6349#	  6350
	  6363#	  6364
BIS	   442#	  4081#	  8577	  9054	  9276	  9380	  9381	 10258	 10269	 11261
BIT1	  3477#	  3589
BIT2	  3478#	  3587	  3591
BITCRY	  3479#	  3588	  3592
BITEST	  3481#	  3610
BITNEG	  3480#	  3614	  3620	  3634	  3648	  3655	  3691#	  3726	  3797#	  3833
BLT0	  4810	  8630#	  8631
BLT1	  4810	  8636#	  8637
BLT2	  4811	  8642#	  8643
BLTF	  8970	  9137#
BLTF1	  8633#	  8633	  8644	  9287	 10138#	 10138	 10145	 10163	 10222	 11345
BLTFD	  4809	  8969#
BLTFDA	  9137	  9141#
BLTT0	  3173	  8645	 11291#
BLTT1	  3174	 11296#
BLTT1X	 10223	 11290#
BLTT2	  3175	 11311#
BLTT3	  3176	 11316#	 12275
BLTT4	  3177	 11319#
BLTT5	  3178	 11327#
BLTT6	  3179	 11331#
BLTT7	  3180	 11334#
BLTT7A	 11304	 11332#
BLTT7B	 11338	 11341#
BLTT8	  3181	 11301	 11343#
BLTT9	  3182	 11348#
BLTT9A	 11320#	 11359
BOOL0D	  5483	  5497	  5511	  5525	  8979#
BOTHN	  3568	  3655#
BOTST	  2263	  2343#
BPIFD	  8159	  8165	  8177	  8932#
BPINC	  8148#	  9932
BPNI2D	  8190	  8926#
BPNIF	  8930	  9112#
BPNIF2	  8927	  9113#
BPNIFD	  8171	  8183	  8199	  8203	  8207	  8211	  8929#
BPNINC	  8189#	  9930
BR	   151#	  1813	  1962	  3965#	  8468	  8796	  9298	  9338	  9367	  9409	  9410	  9411	  9468	  9471
	  9477	  9483	  9486	  9548	  9556	 10334	 11034	 11080	 11711
BRAREN	  4007#	  4136	  4137	  4140	  4141	  4145	  4146	  4149	  4209	  4213	  4230	  4234	  4235	  4254
	  4258	  4269	  4273	  4290	  4296	  4302	  4308	  4314	  4320	  4326	  4332	  4350	  4356	  4362
	  4368	  4374	  4380	  4386	  4392	  4407	  4413	  4419	  4425	  4431	  4437	  4443	  4449	  4465
	  4471	  4477	  4483	  4489	  4495	  4501	  4507	  4635	  4641	  4647	  4653	  4659	  4665	  4671
	  4677	  4693	  4700	  4707	  4714	  4721	  4728	  4735	  4742	  4759	  4763	  4767	  4773	  4783
	  4787	  4791	  4806	  4811	  4823	  4828	  4855	  4861	  4866	  4869	  4874	  4889	  4894	  5069
	  5077	  5085	  5093	  5101	  5109	  5117	  5125	  5197	  5205	  5213	  5221	  5229	  5237	  5245
	  5253	  5325	  5333	  5341	  5349	  5357	  5365	  5373	  5381	  6395	  6407	  6419	  6431	  6443
	  6455	  6467	  6479	  6491	  6503	  6515	  6527	  6539	  6551	  6563	  6575	  6587	  6599	  6611
	  6623	  6635	  6647	  6659	  6671	  6683	  6695	  6707	  6719	  6731	  6743	  6755	  6767	  6779
	  6791	  6803	  6815	  6827	  6839	  6851	  6863	  6875	  6887	  6899	  6911	  6923	  6935	  6947
	  6959	  6971	  6983	  6995	  7007	  7019	  7031	  7043	  7055	  7067	  7079	  7091	  7103	  7115 *** SEQ 0340
	  7127	  7139	  7151	  7190	  7205	  7220	  7235	  7250	  7265	  7280	  7295	  7310	  7325	  7340
	  7355	  7370	  7385	  7400	  7415	  7430	  7445	  7460	  7475	  7490	  7505	  7520	  7535	  7550
	  7565	  7580	  7595	  7610	  7625	  7640	  7655	  7670	  7685	  7700	  7715	  7730	  7745	  7760
	  7775	  7790	  7805	  7820	  7835	  7850	  7865	  7880	  7895	  7910	  7925	  7940	  7955	  7970
	  7985	  8000	  8015	  8030	  8045	  8060	  8075	  8090	  8105	  8120	  8135	  9038	  9973	  9987
	 10030	 10417	 10699	 10882	 10930	 11047	 11110	 11311	 11364
BRARXE	  4059#	 10759	 10877	 11373
BRCLK	  9366	 11363#	 11363	 11365	 11375
BRMIX	  9367	 11362	 11366#	 11366	 11371	 11377
BRMIXR	  9357	 11362#
BRSMR	  8713	  8756	  8767	  8818	  9324	  9407#	  9407	 11042
BYF5	  2410	  9274	  9777	  9925#	  9925	 10286	 11252	 11257	 11264	 11283
BYF6	  8576#	  8576	  9053	  9055	  9275	  9277	  9382	  9758	  9929	  9931	 10227	 10256	 10257	 10268
	 11259	 11260
BYT	    58#	  1146	  1583	  1589
BYTE	   975	  1142#	  1161
BYTE0	  8160	  8166	  8172	  8178	  8184	  8532#	  8533
BYTE1	  1145#	  1160
BYTE2	  8161	  8167	  8173	  8179	  8185	  8192	  8201	  8205	  8209	  8213	  8540#	  8541
BYTES	   976	  1670#
BYTST	  2271	  2296#
BYTTAB	  2297	  2680#
CAC	  2445	  2448	  2452	  2456	  2461	  2465	  2469	  2474	  2487	  2492	  2497	  2501	  2505	  2512#
CAC1	  2453	  2457	  2475	  2506	  2519#
CACL	  2498	  2543#
CACR	  2462	  2488	  2527#
CACR1	  2466	  2493	  2535#
CADD	  3565#	  3645
CADR	  2528	  2536	  2544	  2557	  2573	  2580#
CCA	   442#
CCE	  2424	  2471	  2570#
CE	  2449	  2458	  2470	  2476	  2480	  2483	  2489	  2494	  2556#
CE1	  2477	  2484	  2564#
CHAIN	   194#
CHECK	  1215#	  1231	  1237	  1255	  1290	  1324
CHECK1	  1229#	  1357	  1359	  1362	  1365	  1367
CHECK2	  1226	  1356#
CHNOFF	   442#	   879
CHNON	   442#	   876	   881
CKOUT	    77#	   810
CKOUTF	   803#	   803	   811	  1179	  1191	  1356	  1413
CLINCL	 10039#	 10039	 10102
CLINSE	  9320	  9395	  9841	  9843	  9909#	  9909	  9990	 10016	 10032	 10094	 10202#	 10202	 11273	 11312
	 11320
CLK	   442#	  1708
CLKAC0	  1711#	  1711	  1719
CLKAC1	  1712#	  1712	  1720
CLKCLR	   442#	   875	  1702	  1718
CLKDIS	   442#	  1700
CLKENB	   442#	   875	  1702	  1718
CLKINH	  4021#	  9386	  9396
CLKU	   442#
CLOCKF	   510#                                                                                                        *** SEQ 0341
CNDPQR	  8267	  8279	  8299	  9656#
CNTL	    48#	   890	   995	  1008	  1025	  1059	  1146	  1167	  1189	  1196	  1220	  1222	  1224	  1225
	  1228	  1230	  1236	  1238	  1241	  1242	  1253	  1254	  1266	  1268	  1270	  1289	  1291	  1307
	  1325	  1583	  1589
CNTLC	   527#
CNTLPC	  1337	  1870#	  2079
CNTR	    49#	   905	   907	   921	   923	   943	   956	   958	   960	   962	   964	   976	   999	  1014
	  1023	  1031	  1050	  1057	  1065	  1091	  1104	  1112	  1120	  1144	  1150	  1160	  1188	  1199
	  1283	  1292	  1310
CNTRP	   442#
COMMA	   636#	  2119
COMP	  4974	  4979	  4984	  4989	  4994	  4999	  5004	  5009	  5014	  5019	  5024	  5029	  5034	  5039
	  5044	  5049	  8266#	  8267	 10175
COMTAB	  2335	  2724#
COMTST	  2265	  2334#
CONDP	  8269	  8281	  8300	  9675#	  9675	  9677	  9681	  9686
CONDQ	  8268	  9688#	  9688
CONDQR	  9687	  9692	  9695#
CONDR	  8280	  8301	  9693#	  9693
CONDZ	  9008#	  9008	  9010	  9021	  9026
CONDZ1	  9005#	  9025
CONN	  2257	  2282#
CONNF	  2111#	  2111	  2248#	  2248
CONSW	   511#	  1377	  1546	  1898	  1949	  2084	  2145	  2631
CPOPJ	   531#	  8252	  8549	  9129	  9743	  9974	  9977	 10014	 10205	 10237	 10240	 10251	 10299	 10322
	 10330	 10356	 10387	 10392	 10398	 10404	 10413	 10422	 10627	 10663	 10696	 10701	 10717	 10726
	 10748	 10756	 10775	 10784	 10855	 10873	 10878	 10891	 10921	 10927	 10933	 10958	 10962	 10974
	 10992	 11013	 11039	 11061	 11112	 11120	 11159	 11294	 11309	 11317	 11329	 11332	 11341	 11346
	 11447
CPOPJ1	   529#
CRLF	   323	   324	   631#	  1388	  1400	  1595	  1783	  1952	  1987	  2097	  2142	  2152	  2595	  2634
CRLF2	   327	   328	   633#	  1739
CRY0	   442#	  4078#	  8256	  8333	  8347	  9016	 11298
CRY0FX	  1087	  1097#
CRY1	   442#	  4079#	  8256	  8456	  9018
CRYFIX	  1086	  1094#
CSHFLG	   690#
CSHMEM	   691#
CTRP	   442#
CYCL60	   684#	   865
CYCLE	 12003	 12054	 12235#
D	  3791#	  3838	  3839	  3840	  3841	  3842
D.DORM	  3596#	  3845	  3846
D.MORM	  3601#	  3642	  3745
D.NORM	  3641#
D.ZERO	  3625#	  3710	  3716	  3825	  3827
DBLAF	  1917	  2149	  2249#	  2249	  2392
DCK	   442#	  4089#	 10301	 10955
DDTEX	   809	  1859#	 11270
DDTLNK	   208#	   469
DDTSRT	   469#	  1865
DEBUG	    38#	 12663	 12664
DECVER	     3#	    10	    26	   490                                                                                 *** SEQ 0342
DF22F	   595#
DFA.0	  1435	  3523#
DFA0	  4136	  4140	  8775#	  8776
DFA1	  4136	  4140	  8780#	  8781
DFA2	  4137	  4141	  8789#	  8790
DFA2A	  8796	  8798	  8801	  8805#
DFA2B	  8810#	  8831	  8859
DFA2D	  8584	  8812#
DFAF	  8738#	  8961
DFAFD	  4135	  4139	  8960#
DFAM.0	  3522#
DFAT1	  3143	  8809	 10819#
DFAT1A	 10824	 10827	 10833#
DFAT1B	 10831	 10837	 10889#	 11226
DFAT1C	 10823	 10834	 10865#
DFAT1D	 10842#	 10867
DFAT1E	 10843	 10853#	 10869
DFAT1F	 10864	 10870#
DFAT1G	  8551	 10838#	 10863	 10884
DFAT1H	 10844#	 10887
DFAT1J	 10705	 10845#	 10895	 10918
DFAT1K	 10736	 10851#
DFAT2	  3144	 10857#
DFAT2A	 10861	 10886#
DFAT3	  3145	 10875#
DFAT4	  3146	 10880#
DFAT5	  3147	 10893#
DFD.0	  1438	  3810#
DFD0	  4149	  8833#	  8834
DFD0A	  8820	  8836#
DFD1	  4149	  8841#	  8842
DFD10A	 10956#	 11158
DFD2	  4150	  8853#	  8854
DFDF	  8967	  9142	  9144#
DFDF1	  9278	  9333#	  9333	 10925	 10956	 10977	 11204	 11207
DFDFD	  4148	  8966#
DFDM.0	  3809#
DFDT0	  3151	  8857	 10920#
DFDT1	  3152	 10923#
DFDT10	  3161	 10955#
DFDT11	  3162	 10960#
DFDT12	  3163	 10964#
DFDT2	  3153	 10929#
DFDT3	  3154	 10935#	 11484
DFDT3A	 10938	 10954#
DFDT4	  3155	 10941#
DFDT4A	 10948	 10950#	 10982	 10985
DFDT5	  3156	 10969#	 11205
DFDT6	  3157	 10976#
DFDT7	  3158	 10986#	 11208
DFDT8	  3159	 10994#
DFDT8A	 10998	 11001#
DFDT8C	 10997	 11007#                                                                                                *** SEQ 0343
DFDT8D	 11003#	 11008	 11017
DFDT9	  3160	 11015#
DFDVX	  3812#
DFLTF	  8740	  9133	  9136#	  9144
DFM.0	  1437	  3706#
DFM0	  4145	  8815#	  8816
DFM1	  4145	  8822#	  8823
DFM2	  4146	  8828#	  8829
DFMF	  8964	  9133#
DFMFD	  4144	  8963#
DFMM.0	  3705#
DFMPX	  3708#
DFMT1	  3148	  8830	 10897#
DFMT2	  3149	 10908#	 11197
DFMT3	  3150	 10914#	 11194
DFN0	  4234	  8666#	  8667
DFN1	  4234	  8675#	  8676
DFNFD	  4233	  8946#
DFP	    57#	   995	  1008	  1167	  1189	  1225
DFPAS	   999	  1014	  1677#
DFPF	   992#
DFPMD	  1681#
DFPRTN	  1168	  1413#
DFPS	   987	  1005#
DFPS1	  1013#	  1015
DFPTAB	  1424	  1435#
DFS.0	  1436	  3514#
DFSBX	  3519	  3520	  3527#
DFSM.0	  3513#
DIAGMN	   458#
DING	   180#	  1274
DISP	  9335	  9342	  9353#
DITT30	  2035	  2039#
DITT60	  2028	  2032#
DITTO	  1936	  1941	  1946	  1959	  1964	  1969	  2006	  2011	  2018#	  2026	  2030	  2033	  2037	  2040
DITTO0	  2018	  2025#
DITTO3	  1974	  1979	  1984	  2035#
DITTO6	  1921	  1926	  1931	  2001	  2028#
DIV0	  4721	  4728	  4735	  4742	  8431#	  8432
DIV1	  4721	  4728	  4735	  4742	  8473#	  8474
DIV1A	  8475	  8479#
DIV2	  4723	  4730	  4737	  4744	  8451#	  8452
DIVAC	  1027	  1028	  1029	  1030	  1047	  1061	  1062	  1063	  1064	  1085	  1108	  1109	  1110	  1111
	  1285	  1286	  1287	  1288	  1314	  1315	  1316	  1317	  1694#
DIVF	  8911	  9107#
DIVFD	  4692	  4699	  4706	  4713	  4720	  4727	  4734	  4741	  8910#
DLOW.0	  3518	  3551	  3558	  3572	  3579	  3604	  3640#	  3651	  3749	  3755	  3840	  3850	  3856
DMOV2	  4187	  4191	  8579#	  8580
DMOVT1	  3139	  8581	 11106#
DMVE0A	  8217	  8221	  8604#	  8605
DMVEA	  8988	  9103#
DMVEFD	  8216	  8220	  8987#
DMVMFD	  4212	  8984#                                                                                                *** SEQ 0344
DMVN1A	  8221	  8589#	  8590
DMVN2A	  8222	  8600#	  8601
DMVNM0	  4213	  8607#	  8608
DMVNM1	  4214	  8586#	  8587
DMVNM2	  4215	  8594#	  8595
DMVNT1	  3140	  8583	 11109#
DMVNT2	  3141	 11114#
DMVNT3	  3142	 11122#
DMVPT2	  8216#	  9939	  9940	 10264	 10266
DNT1	  3164	 10681#	 10851
DNT1A	 10689	 10696#
DNT1B	 10687	 10693#
DNT1C	 10695	 10707#
DNT1D	 10714	 10747#
DNT1E	 10711	 10726#	 10737	 10742
DNT1F	 10715#	 10744
DNT1G	 10707	 10739#
DNT1Z	 10690#
DNT2	  3165	 10698#	 11370
DNT3	  3166	 10703#
DNT4	  3167	 10727#
DNT5	  3168	 10719#
DNT5A	 10676#	 10720
DNT5B	 10679#
DNT6	  3169	 10750#
DNT6A	 10745	 10755#
DNT7	  3170	 10723	 10758#
DNT8	  3171	 10764#	 11004
DNT8A	 10769	 10774#
DNT9	  3172	 10777#
DOINS	  1026	  1060	  1106	  1113	  1165#	  1182	  1235
DOINS1	  1169#	  1414	  1431
DOIT	  1159	  1198	  1234#	  1239	  1267	  1271	  1308
DOIT1	  1241#	  1457
DOIT2	  1253#	  1456
DOIT3	  1265	  1269	  1273#	  1275	  1278
DOIT4	  1243	  1454#
DOLLAR	   650#
DPAC.1	  3534	  3616	  3622	  3636	  3638#	  3721	  3828
DPAC.2	  3535	  3639#	  3722	  3829
DPADTM	 11716	 12264#
DPB0	  4269	  4273	  8553#	  8554
DPB0A	  8557	  8561#
DPB1	  4269	  4273	  8564#	  8565
DPB2	  4270	  4274	  8572#	  8573
DPBFD	  4268	  4272	  8937#
DSF2	  9272	  9331	 11186#	 11186	 11489	 11542	 11685#	 11685	 11687
DSF2CL	  4024#	  9727	 10298	 10312	 10406	 11684
DSF2SE	  4023#	  8466	 10391	 11686
DSHFT0	  4783	  4787	  4791	  8482#	  8483
DSHFT2	  4784	  4788	  4792	  8505#	  8506
DSKUPD	   495
DST1	  3127	  8467	 10294#                                                                                        *** SEQ 0345
DST2	  3128	 10301#	 10405
DST3	  3129	 10311#	 11189
DST3A	 10314	 10318#
DST4	  3130	 10324#
DST5	  3131	 10332#
DST5A	 10337	 10355#
DST5B	 10348#	 10360
DST5C	 10349#	 10650
DST5D	 10339	 10346#
DST5E	 10340#	 10363
DST5F	 10347	 10354#
DST6	  3132	 10358#
DVCPNT	  2112	  2178#
DXFAD	  3524#
E	  2502	  2507	  2510	  2550#
EFPNT	  2122#	  2176	  2182
END	 12671#
ENDFIX	   764#
ENDSLD	  1698	 12661#
ENTDDT	    73#	   808
ER	    60#	  1236	  1242	  1266	  1307
ERMORE	   544#
ERR	  1808	  2193	  8890	  8893	  9329	  9330	  9768	  9902	  9965	 10071	 10279	 10611	 11280#	 11708
	 12269	 12272	 12273
ERRFST	  1371#	  1371	  1373
ERRPC	   515#
ERRPNT	  1807	  2188	  2190#
ERRTLS	   516#	   773	  1374	  1732
ERSTOP	   183#	  1261
ET0	  3985#	  4135	  4139	  4144	  4148	  4159	  4164	  4169	  4174	  4194	  4200	  4212	  4218	  4233
	  4238	  4253	  4257	  4268	  4272	  4317	  4377	  4435	  4493	  4536	  4560	  4584	  4608	  4633
	  4639	  4645	  4651	  4657	  4663	  4669	  4675	  4691	  4698	  4705	  4712	  4719	  4726	  4733
	  4740	  4751	  4772	  4797	  4809	  4854	  4872	  4892	  4972	  4977	  4982	  4987	  4992	  4997
	  5002	  5007	  5012	  5017	  5022	  5027	  5032	  5037	  5042	  5047	  5064	  5072	  5080	  5088
	  5096	  5104	  5112	  5120	  5128	  5136	  5144	  5152	  5160	  5168	  5176	  5184	  5192	  5200
	  5208	  5216	  5224	  5232	  5240	  5248	  5256	  5264	  5272	  5280	  5288	  5296	  5304	  5312
	  5320	  5328	  5336	  5344	  5352	  5360	  5368	  5376	  5384	  5392	  5400	  5408	  5416	  5424
	  5432	  5440	  5482	  5496	  5510	  5524	  5538	  5552	  5566	  5580	  5594	  5608	  5622	  5636
	  5650	  5664	  5678	  5692	  5706	  5720	  5734	  5748	  5762	  5776	  5790	  5804	  5818	  5832
	  5846	  5860	  5874	  5888	  5902	  5916	  5930	  5944	  5958	  5972	  5986	  6000	  6014	  6028
	  6042	  6056	  6070	  6084	  6098	  6112	  6126	  6140	  6154	  6168	  6182	  6196	  6210	  6224
	  6238	  6252	  6266	  6280	  6294	  6308	  6322	  6336	  6350	  6364	  6415	  6463	  6511	  6559
	  6607	  6655	  6703	  6751	  6799	  6847	  6895	  6943	  6991	  7039	  7087	  7135	  7201	  7231
	  7261	  7291	  7321	  7351	  7381	  7411	  7441	  7471	  7501	  7531	  7561	  7591	  7621	  7651
	  7681	  7711	  7741	  7771	  7801	  7831	  7861	  7891	  7921	  7951	  7981	  8011	  8041	  8071
	  8101	  8131	  8158	  8164	  8176	  8216	  8220	 10049
ET0S	  3093	 10050	 10074#
ET0SA	 10082	 10091#
ET1	  3985#	  4135	  4139	  4144	  4148	  4159	  4164	  4169	  4174	  4194	  4200	  4212	  4218	  4233
	  4253	  4257	  4268	  4272	  4347	  4353	  4359	  4365	  4371	  4377	  4383	  4389	  4405	  4411
	  4417	  4423	  4429	  4435	  4441	  4447	  4463	  4469	  4475	  4481	  4487	  4493	  4499	  4505
	  4633	  4639	  4645	  4651	  4657	  4663	  4669	  4675	  4691	  4698	  4705	  4712	  4719	  4726
	  4733	  4740	  4751	  4772	  4797	  4809	  4854	  7186	  7201	  7216	  7231	  7246	  7261	  7276 *** SEQ 0346
	  7291	  7306	  7321	  7336	  7351	  7366	  7381	  7396	  7411	  7426	  7441	  7456	  7471	  7486
	  7501	  7516	  7531	  7546	  7561	  7576	  7591	  7606	  7621	  7636	  7651	  7666	  7681	  7696
	  7711	  7726	  7741	  7756	  7771	  7786	  7801	  7816	  7831	  7846	  7861	  7876	  7891	  7906
	  7921	  7936	  7951	  7966	  7981	  7996	  8011	  8026	  8041	  8056	  8071	  8086	  8101	  8116
	  8131	  8216	  8220	 10047	 10079
ET1S	  3094	 10048	 10080	 10099#	 11234	 12271
ET2S	  3095	 10046	 10078	 10110#
ET2SA	 10115	 10119#
ET2SB	 10124	 10127#
ET2SC	 10126	 10130#
ETAB	  8238#	  8240	  8246	  8248	  8251	  8255	  8266	  8275	  8286	  8297	  8308	  8318	  8322	  8328
	  8331	  8337	  8340	  8345	  8351	  8355	  8359	  8373	  8378	  8385	  8389	  8397	  8404	  8415
	  8431	  8433	  8441	  8451	  8461	  8473	  8482	  8484	  8492	  8505	  8509	  8532	  8540	  8547
	  8553	  8564	  8568	  8572	  8575	  8579	  8586	  8589	  8594	  8600	  8604	  8607	  8630	  8636
	  8642	  8648	  8652	  8658	  8666	  8675	  8684	  8698	  8705	  8716	  8722	  8730	  8745	  8748
	  8755	  8763	  8766	  8775	  8780	  8789	  8815	  8822	  8828	  8833	  8841	  8853	  8889	  8892
	  8896	 10088
ETPULS	 10084#	 10097	 10108	 10132	 10135
ETSEL	  9802	 10040#
EXCASB	    34#	   493
EXCMEM	   442#
EXCPFW	   442#
EXIOT	   442#	  4083#	  8289	  9049
F	   143#	  3957#	  8258	  8260	  8334	  8341	  8369	  8380	  8391	  8399	  8401	  8405	  8409	  8420
	  8438	  8453	  8466	  8474	  8632	  8638	  8670	  8676	  8689	  8690	  8699	  8708	  8787	  8794
	  8806	  8850	  9103	  9253	  9386	  9396	  9397	  9398	  9399	  9401	  9402	  9412	  9414	  9416
	  9418	  9432	  9434	  9436	  9462	  9464	  9466	  9469	  9472	  9474	  9476	  9490	  9492	  9495
	  9500	  9502	  9514	  9526	  9528	  9530	  9727	  9745	 10188	 10190	 10298	 10312	 10319	 10326
	 10335	 10383	 10391	 10406	 10415	 10420	 10430	 10654	 10678	 10682	 10688	 10704	 10709	 10729
	 10740	 10761	 10765	 10822	 10849	 10862	 10886	 10899	 10908	 10915	 10944	 10949	 10972	 10991
	 11001	 11007	 11024	 11031	 11046	 11053	 11143	 11151	 11155	 11192	 11201	 11210	 11381	 11383
	 11385	 11439	 11610	 11678	 11679	 11681	 11684	 11686	 11695	 11697	 11699	 11701	 11718	 11720
	 11724	 11733	 11740	 11749	 12158	 12159
FAD2	  4290	  4296	  4302	  4308	  4314	  4320	  4326	  4332	  4350	  4356	  4362	  4368	  4374	  4380
	  4386	  4392	  8766#	  8767
FAD2A	  8770#	  8778
FADF	  8742#	  8952
FADFD	  4228	  4287	  4293	  4299	  4305	  4311	  4317	  4323	  4329	  8951#
FAIL1	  1282#	  1282	  1309	  1313
FAST	    90#	   822	   835
FAT1	  3108	  8769	 11020#
FAT2	  3109	 11027#
FAT2A	 11032	 11036#
FAT2B	 11034	 11038#
FAT2C	 11035	 11036	 11039#
FAT3	  3110	 11041#
FAT3A	 11048	 11053#
FAT3B	 11052	 11056#
FAT4	  3111	 11063#	 11247
FCCACL	  4000#	  4066	  4897	  9833	  9851	  9852	  9869	  9870
FCCACR	  3998#	  4000	  4066	  4868	  9809	  9813	  9823	  9829	  9836	  9856	  9867	  9984	 10195
FCE	  3998#	  3998	  4066	  4194	  4218	  4223	  4228	  4253	  4257	  4268	  4272	  4287	  4293	  4299
	  4305	  4311	  4323	  4329	  4347	  4353	  4359	  4365	  4371	  4383	  4389	  4405	  4411	  4417 *** SEQ 0347
	  4423	  4429	  4441	  4447	  4463	  4469	  4475	  4481	  4487	  4499	  4505	  4525	  4549	  4573
	  4597	  4633	  4645	  4651	  4657	  4669	  4675	  4691	  4705	  4712	  4719	  4733	  4740	  4864
	  4913	  4937	  5012	  5017	  5022	  5027	  5032	  5037	  5042	  5047	  5129	  5137	  5145	  5153
	  5161	  5169	  5177	  5185	  5482	  5538	  5594	  5650	  5706	  5762	  5818	  5874	  5930	  5986
	  6042	  6098	  6154	  6210	  6266	  6322	  6392	  6440	  6488	  6536	  6584	  6632	  6680	  6728
	  6776	  6824	  6872	  6920	  6968	  7016	  7064	  7112	  7306	  7321	  7336	  7351	  7366	  7381
	  7396	  7411	  7546	  7561	  7576	  7591	  7606	  7621	  7636	  7651	  7786	  7801	  7816	  7831
	  7846	  7861	  7876	  7891	  8026	  8041	  8056	  8071	  8086	  8101	  8116	  8131	  8171	  8183
	  8199	  8203	  8207	  8211	  9811	  9818	  9823	  9838	  9842	  9846	  9854	  9856	 10121	 10194
	 10195	 12075	 12110
FCE2	  3999#	  4066	  4135	  4139	  4144	  4148	  4185	  4189	  9811	  9838	  9854	  9858
FCE2M	 12067	 12118	 12210#
FCE2S1	 12081	 12217#
FCE2ST	  9280	  9861	 11980	 12066#	 12066	 12080	 12117	 12213	 12217
FCE2SY	  9406	 12079#	 12274
FCE2W	  8812#	  8812	  9281	  9405	 12079
FCEPSE	  3998#	  4066	  4233	  4543	  4567	  4591	  4615	  4804	  4926	  4932	  4950	  4956	  5257	  5265
	  5273	  5281	  5289	  5297	  5305	  5313	  5385	  5393	  5401	  5409	  5417	  5425	  5433	  5441
	  5566	  5580	  5622	  5636	  5678	  5692	  5734	  5748	  5846	  5860	  5902	  5916	  5958	  5972
	  6014	  6028	  6126	  6140	  6182	  6196	  6238	  6252	  6294	  6308	  6413	  6426	  6461	  6474
	  6522	  6570	  6618	  6666	  6714	  6762	  6797	  6810	  6845	  6858	  6906	  6954	  7002	  7050
	  7098	  7146	  8159	  8165	  8177	  9811	  9838	  9842	  9848	  9849	  9854
FDT0	  3114	  8707	 10371#
FDT1	  3115	 10389#
FDT1A	 10381	 10391#
FDT2	  3116	 10394#
FDT3	  3117	 10400#
FDT4	  3118	 10403	 10409#
FDT5	  3119	 10417#	 10652
FDT6	  3120	 10424#
FDT7	  3121	 10434#
FDV1	  4465	  4471	  4477	  4483	  4489	  4495	  4501	  4507	  8684#	  8685
FDV1A	  8694#	  8826	  8840
FDV1B	  8692#	  8753	  8773
FDV2	  4466	  4472	  4478	  4484	  4490	  4496	  4502	  4508	  8705#	  8706
FDV2L	  4472	  8698#	  8699
FDV2X	  8712	  8713#
FDVF	  8958	  9125#
FDVFD	  4463	  4469	  4475	  4481	  4487	  4493	  4499	  4505	  8957#
FE	  1820	  1977	  9377#	  9377	  9603#	  9603	 10790
FESAEN	  4055#	  8724	  8759	  8771	  8829	  8854	  9376	 10377	 10819	 11041
FIX.0	  1445	  3882#
FIX0	  4195	  4219	  8716#	  8717
FIX1	  4195	  4219	  8722#	  8723
FIX1A	  8545	  8695	  8697	  8714	  8718	  8720	  8727#	  8786	  8788	  8825	  8847	  8851	 10432	 10454
	 10679	 10762	 10903	 10906	 10912	 10939	 10954	 11025
FIX1B	  8651	  8664	  8725#
FIX1C	  3889	  3901#
FIX2	  4196	  4220	  8730#	  8731
FIX2A	  8731	 10800#
FIX2B	  8733	 10781#
FIX2C	 10789#	 10816
FIX2E	 10791	 10796#                                                                                                *** SEQ 0348
FIX2F	 10802	 10815#
FIX2G	 10808#
FIXED	   907	   923	  1611#
FIXEDI	   905	   921	  1601#
FIXF	  8941	  9116#
FIXFD	  4194	  4218	  8940#
FIXR.0	  1449	  3879#
FIXT1	  3122	 10786#
FIXT2	  3123	 10805#	 11218
FIXT2A	 10806	 10811#
FIXT2B	 10812#
FLAG1	  4025#	  8380	  8399	  8405	  8420	  9745	 10319	 10415	 10420	 10688	 10704	 10915	 10949	 11210
	 11439	 11733	 11740	 11749
FLAG2	  4026#	  8334	  8341	  8401	  8409	  8787	  8794	  8806	  9745	 10678	 10709	 10729	 10740	 10822
	 10849	 10862	 10886	 10899	 10908	 10944	 10972	 11024	 11031	 11046	 11053	 11143	 11151	 11155
	 11192	 11201
FLAG3	  4027#	  8369	  8391	  8438	  8453	  8474	  8632	  8638	  8670	  8676	  8689	  8690	  8699	  8708
	  8850	  9745	 10326	 10335	 10383	 10430	 10654	 10682	 10761	 10765	 10991	 11001	 11007
FLAGS	    46#	  1107	  1123	  1124	  1181	  1216	  1217	  1218	  1219	  1220	  1323	  1579
FLOATB	  3932	  3940	  3949#
FLT.0	  3930#
FLT1A	  3930	  3936	  3940#
FLT2	  4225	  8648#	  8649
FLT2A	  3932#	  3938
FLTF	  8944	  9118#
FLTFD	  4223	  8943#
FLTR.0	  1450	  3936#
FLTTAB	  2290	  2330	  2348	  2671#
FLTTST	  2269	  2284#
FMAC2E	  8402	  8432	  8483	  8608	  8682	  8764	  8777	  8837	 10193	 10425	 10661	 11099#
FMACEN	  8507	  8781	  8823	  9812	 10026	 10038	 10061#	 10411	 10988
FMADMA	  9270	 10203#	 10203	 11391	 11392	 11704
FMADRE	  8465	  9726	 10062#	 10062	 10289	 11103	 11272	 11393	 11705
FMP0	  4289	  4295	  4301	  4307	  4313	  4319	  4325	  4331	  4349	  4355	  4361	  4367	  4373	  4379
	  4385	  4391	  4407	  4413	  4419	  4425	  4431	  4437	  4443	  4449	  4465	  4471	  4477	  4483
	  4489	  4495	  4501	  4507	  8745#	  8746
FMP0A	  8746#	  9117	  9126	  9134
FMP1	  4407	  4413	  4419	  4425	  4431	  4437	  4443	  4449	  8748#	  8749
FMP2	  4408	  4414	  4420	  4426	  4432	  4438	  4444	  4450	  8755#	  8756
FMPF	  8743#	  8955
FMPFD	  4405	  4411	  4417	  4423	  4429	  4435	  4441	  4447	  8954#
FMREG	  1957	  8435	  8654	  8660	  8686	  8750	  8772	  8838	  9347	  9463#	  9463	  9465	  9467	  9544
	  9546	  9554	 10450	 10981	 10990	 11395	 11603	 11707
FMSINA	  9283#	  9283	 10213	 11390	 11396
FMT1	  3112	  8760	 10443#
FMT2	  3113	 10449#	 11240
FMT2A	 10453#	 11071
FMVAL	  9302	 11390#
FMWR	  9394	 11704#
FMWRSE	  8277	  8304	  8427	  9282	  9319	  9393	 10134#	 10134	 10211#	 10211	 10243	 10351	 10418	 10434
	 10546	 10665	 10876	 10926	 10965	 11335
FOUND	  1910	  1997#
FOV	   442#	  4080#	  9020	 10305	 10639	 10640	 10770	 10955                                                 *** SEQ 0349
FOVU	   442#
FP	    59#
FPAS	   956	  1621#
FPF	   937#
FPL	   964	  1660#
FPMD	   943	   960	  1641#
FPMISC	  1685#
FPS	   933	   948#
FPS1	   955#	   965
FPSM	   958	  1631#
FRDLNK	   206#
FSBFD	  4347	  4353	  4359	  4365	  4371	  4377	  4383	  4389	  8919#
FSC0	  4239	  8652#	  8653
FSC2	  4240	  8658#	  8659
FSCF	  8950	  9116	  9118	  9122#	  9125
FSCFD	  4238	  8949#
FSELNK	   205#
FSMDI1	  1024#	  1050
FSMDI2	  1032	  1046	  1049#
FSTER	  1049	  1090	  1137	  1281#	  1311	  1327
FSTER1	  1294#	  1326
FSTER2	  1292	  1313#
FSTFLG	  1107#	  1107	  1124
FSTFP	   942	   998	  1102#	  1121
FSTFP1	  1105#	  1120
FSTFP2	  1120#	  1128	  1131	  1134	  1138
FSTFP3	  1119	  1123#
FSTFP4	  1137#
FSTMD	   906	  1055#	  1092
FSTMD1	  1058#	  1091
FSTMD2	  1066	  1083	  1090#	  1095	  1098
FSTMDI	   904	  1021#	  1051
FT1	  3096	  9871	  9973#
FT2	  3097	  9976#	 10234
FT3	  3098	  9868	  9872	  9979#
FT3A	  9994	  9999	 10002#
FT4	  3099	 10013#	 12267
FT5	  3100	 10015#
FT6	  3101	  9792	 10027	 10038#	 10270	 12268
FT7	  3102	  9860	 10030#
FT8	 10026#	 12276
FWT	  4599	  4605	  4611	  4617	  8251#	  8252
FXF	   899#
FXF1	   904#	   908
FXS	   894	   913#
FXS1	   920#	   924
FXU	   442#	  4088#	 10639	 10772
FXUH	 10365	 10367	 10638#	 10638	 10771
FXUSET	 10365#	 10463	 10821	 10917	 10995
GA	  3530	  3534#
GETNEG	  3515#
GG	  1031	  1065	  1112	  1310	  1439	  1440	  1441	  1442	  1443	  1444	  1446	  1447	  1448	  1553#
GO	  9250#                                                                                                        *** SEQ 0350
GO1	  9258#	  9260	  9261	  9262	  9263
GOING	  1262	  1406#	  1410
H.	  2352	  2958#
HDER1	  2148	  2205#
HDER2	  2150	  2219#
HDER3	  2156	  2233#
HDPNT	  2093	  2145#
HERTZ	   867#	   867	  1751	  1769
HNGCNT	  1890#	  1890	  2183
HTST	  2261	  2352#
HUNGCK	  1887	  2183#
HWTET1	  8309	  8313#
HWTETS	  6685	  6697	  6709	  6721	  6733	  6745	  6757	  6769	  7069	  7081	  7093	  7105	  7117	  7129
	  7141	  7153	  8308#	  8309
HYPEN	   641#
IADBRK	   442#
IADEXC	   442#
IADSTP	   442#
IADUSR	   442#
IAPRC1	   442#	   875	  1702
IAPRE1	   442#	   875	   880	  1700	  1702	  1718
IASRTC	   442#
IASRTE	   442#
IASRTS	   442#
ICNSLL	   442#
ICNSLR	   442#
IDATAF	   442#
IDIV0	  4693	  4700	  4707	  4714	  8433#	  8434
IDIV1	  4694	  4701	  4708	  4715	  8441#	  8442
IDIV1A	  8446#	  8478	  8480
IDIV2	  4695	  4702	  4709	  4716	  8461#	  8462
IDXPN1	  2133	  2142#
IDXPNT	  2131#
IEVNPR	   442#
IFIXA	  3883	  3902	  3906#
IFIXB	  3884	  3897	  3901	  3907#
IFIXC	  3879	  3882	  3891	  3908#
IFMMAN	   442#
IFPNT	  2601	  2613	  2619#
IINSTF	   442#
IIOPFC	   442#
IIOPFL	   442#
IMAINT	   442#
IMGINM	   442#
IMGNLO	   442#
IMGNOF	   442#	  1041	  1076	  1177	  1551
IMGNON	   442#
IMIPGD	   442#
IMLAPD	   442#
IMLTST	  2316	  2322#
IMUL1	  4635	  4641	  4647	  4653	  8373#	  8374
IMUL2	  4636	  4642	  4648	  4654	  8385#	  8386
INDNCL	  9315	  9793#	  9793                                                                                         *** SEQ 0351
INDON1	 11253	 11283#
INDON2	 11264#	 11285
INDON3	 11265	 11269#
INDONE	  3185	  8735	  9257	  9307	  9308	 10130	 10259	 11252#
INDX0	  2426	  2443#
INDX1	  2427	  2445#
INDX10	  2434	  2474#
INDX11	  2435	  2480#
INDX12	  2436	  2483#
INDX13	  2437	  2487#
INDX14	  2438	  2492#
INDX15	  2439	  2497#
INDX16	  2440	  2501#
INDX17	  2441	  2505#
INDX2	  2428	  2448#
INDX20	  2442	  2510#
INDX3	  2429	  2452#
INDX4	  2430	  2456#
INDX5	  2431	  2461#
INDX6	  2432	  2465#
INDX7	  2433	  2469#
INFT2A	 12145#	 12220
INFT3	 10308	 12073	 12076	 12181#
INFT3A	 12093	 12155#	 12186
INFT3B	 12156#	 12212
INFT3C	 12196#	 12215
INFT3D	 12207#	 12221
INFTFF	  9250	  9327	  9404#	  9404	 11275	 12142	 12155	 12163
INFTS1	 12130	 12158#	 12165
INFTS2	 11276	 12135#
INFTS3	 12134	 12162#
INFTSB	  9328	 12129#
INFTST	  3985#	  4774	  4843	  4894	  4899	  7221	  7236	  7251	  7266	  7281	  7296	  7341	  7356	  7371
	  7386	  7401	  7416	  7461	  7476	  7491	  7506	  7521	  7536	  7581	  7596	  7611	  7626	  7641
	  7656	  7701	  7716	  7731	  7746	  7761	  7776	  7821	  7836	  7851	  7866	  7881	  7896	  7941
	  7956	  7971	  7986	  8001	  8016	  8061	  8076	  8091	  8106	  8121	  8136	  9022	  9028	  9033
	  9317	  9403	  9912	 10150	 10152	 10154	 10156	 10158	 10160	 10164	 10168	 10176	 10178	 10180
	 10182	 10184	 10186	 10283	 10850	 10961	 11114	 11692
INHBYT	    86#	   816	   827
INHCLK	    81#	   860	  1378	  1726
INHCSH	   191#
INHDFP	    84#	   818	   827
INHFP	    85#	   814	   827
INHFXD	    88#	   812	   827
INHIF	   163#	  2095	  2587
INHMS	    82#	  1899	  2146
INHPAG	   188#
INHSCT	    80#	  1904
INIT1	  2514#	  2514	  2527	  2535	  2543	  2623
INIT1A	  2414#	  2414	  2516	  2602	  2619	  2621
INIT2	  2522#	  2522	  2530	  2538	  2546	  2629
INIT2A	  2415#	  2415	  2524	  2532	  2540	  2548	  2603	  2625	  2627
INIT3	  2551	  2559#	  2559	  2640                                                                                 *** SEQ 0352
INIT3A	  2416#	  2416	  2553	  2561	  2604	  2636	  2638
INIT4	  2565#	  2565	  2575	  2646
INIT4A	  2417#	  2417	  2567	  2577	  2605	  2642	  2644
INPC	  1335	  1867#	  9254
INRDY	  8542	  9711#	  9711	  9958	 12082	 12152	 12205
INRDYC	  9314	  9749#	  9749
INSNXT	  9296#	  9296	  9316	  9318	  9796	 10994
INSOUT	  2292#	  2299	  2307	  2320	  2327	  2332	  2341	  2350	  2361	  2375	  2395	  2399	  2403	  2407
INSTPT	  8381	  9774#	  9774	  9794	  9983	 10020	 10040	 10074	 10099	 10103	 10111	 10119	 10172	 10191
	 10207	 10221	 10267	 10306	 10315	 10349	 10544	 10631	 12074	 12109
INSTR	  1336	  1869#	  2076
INSYNC	  8329	  8605	  9251	  9821#	  9821	  9825	  9992	 10022	 11982	 11997	 12014	 12019	 12020	 12022
	 12040	 12069	 12089	 12156	 12178	 12199
INTFN1	  2597#
INTFN2	  2607	  2614#
INTFNL	  2049	  2586#
INTPNT	  1897	  2410#
INTRQ	 11156#	 11156	 11202	 11303
INXCLR	   442#
INXM	   442#
INXSTP	   442#
IOCLR	   442#
IP50HZ	   442#
IPAREN	   442#
IPARER	   442#
IPRSTP	   442#
IPWRFL	   442#
IPWRLO	   442#
IR	   157#	  3971#	  8291	  8293	  8464	  8510	  8582	  8738	  8800	  8803	  9007	  9013	  9015	  9017
	  9019	  9031	  9039	  9041	  9043	  9274	  9300	  9310	  9311	  9448	  9667	  9669	  9671	  9724
	  9751	  9943	 10061	 10112	 10147	 10167	 10226	 10244	 10253	 10265	 10281	 10302	 10313	 10338
	 10346	 10359	 10361	 10378	 10395	 10469	 10478	 10488	 10511	 10512	 10552	 10561	 10620	 10641
	 10730	 10805	 10830	 10833	 10842	 10868	 11077	 11100	 11130	 11134	 11161	 11166	 11181	 11184
	 11254	 11418	 11456	 11469	 11491	 11750
IR6	  9664#	  9664	  9668	  9673	  9678	  9682	  9695	  9699	  9703
IR7	  9665#	  9665	  9670	  9674	  9679	  9700
IR8	  9666#	  9666	  9672	  9680	  9683	  9697
IRLTCH	  2046	  9309	  9750#	  9750	 10287	 11268#	 11268
IRPNT	  1892	  2046#
IRPNT1	  2051	  2053	  2055	  2064#
IRPNT2	  2092	  2094#	  2198
IRQCLR	   442#
ISPDOF	   442#	  1041	  1076	  1177	  1551
ISPDON	   442#
IT	    50#	  1022	  1037	  1056	  1072	  1103	  1143	  1173	  1187	  1210	  1417	  1420	  1424	  1568
IT0	  1891	  3090	  9711#	 11277	 12266
IT0A	  9736	  9738	  9740	  9743#
IT1	  1896	  3091	  9745#
IT12	  2411	  2422#
IT1A	  9774#	  9933	  9941
IT1B	  9792#
IT1BY2	  9760#	  9926	  9937
IT1BYT	  9757	  9925#                                                                                                *** SEQ 0353
IT1C	  9787#
IT1D	  9806#
IT1DE	  9902#
IT1DMV	  9759	  9935#
IT1E	  9857	  9859	  9864#
IT1F	  9862	  9866	  9876#
IT1G	  9777#	  9888
IT1H	  9776	  9887#
IT1I	  9782	  9943#
IT1IND	  9788	  9904#	  9960
IT2	  3092	  9741	  9949#	 10290
ITERAT	   112#	   488
ITMDIS	   442#
ITMENB	   442#
ITMOEN	   442#
ITMOUT	   442#
ITMSET	   442#
ITRCH1	   548#	   868	  1721
ITRCLK	   862	  1707#	  1709
ITRCNT	   488#
IWRITE	   442#
JFCL1	  4840	  8248#	  8249
JFCL2	  8249	  9013#
JFCLF	  8994	  9025#
JFCLFD	  4838	  8993#
JFFO0	  4773	  8397#	  8398
JFFO1	  4773	  8404#	  8405
JFFO2	  4774	  8415#	  8416
JFFO2A	  8419#	 11074
JFFO2B	  8422	  8427#	 11107	 11123	 11236
JFFOFD	  4772	  8921#
JFFOT1	  3183	  8424	 11073#
JOB41	   442#
JOBAPR	   442#
JOBCNI	   442#
JOBDDT	   442#
JOBFF	   442#
JOBOPC	   442#
JOBREL	   442#
JOBREN	   442#
JOBSA	   442#
JOBSYM	   442#
JOBTPC	   442#
JOBUSY	   442#
JOBUUO	   442#
JOBVER	   442#
JRST1	  4835	  8246#	  8247
JRST2	  8247	  9037#
JRST3	  9044	  9056#
JRSTF	  8997	  9031#
JRSTFD	  4833	  8996#
JUMPS	  5069	  5077	  5085	  5093	  5101	  5109	  5117	  5125	  5197	  5205	  5213	  5221	  5229	  5237
	  5245	  5253	  5325	  5333	  5341	  5349	  5357	  5365	  5373	  5381	  8297#	  8298	 10179         *** SEQ 0354
KA10	   442
KAHZ50	   196#
KAIFLG	   505#
KI10	    36#	   442
KL10	   442
KLFLG	   506#
KLOLD	   403
KLTYP	   722#
KNTRP	   442#
KTRP	   442#
LDB0	  4254	  4258	  8547#	  8548
LDB1	  4254	  4258	  8568#	  8569
LDB2	  4255	  4259	  8575#	  8576
LDBF	  8938	  9128#
LDBFD	  4253	  4257	  8935#
LDEXCB	   442#
LDLNK	   207#	   458	   460
LDUSRB	   442#
LFP	   645#	  2134
LIP	   442#	  1217	  4084#
LNGCYC	  4017#	  4233	  4634	  4640	  4646	  4652	  4658	  4664	  4670	  4676	  4772	  4821	  4826	  7217
	  7277	  7337	  7397	  7457	  7517	  7577	  7637	  7697	  7757	  7817	  7877	  7937	  7997	  8057
	  8117	  8159	  8165	  8177	  9401	  9402	 10041	 11718	 11724
LONGSE	  8319	  8374	  8445	  8486	  8494	  8513	  8587	  8691	  8703	  8723	  8758	  8770	  8836	  9322
	  9400	  9816	 10042#	 10042	 10208	 10341	 10402	 10428	 10507	 10537	 10584	 10612	 10660	 10782
	 10989	 11060	 11069	 11111	 11146	 11198	 11224	 11248	 11292	 11340
LONGTM	 11714	 12263#
LOOPA	  3603	  3607#	  3609
LOOPER	   182#	  1263
LOP	    51#	   902	   903	   908	   918	   919	   924	   940	   941	   944	   953	   954	   965	   973
	   974	   977	   996	   997	  1000	  1011	  1012	  1015
LUUO	   442#
LUUO1	    67#	   575	   576
LUUO10	   575	   580
LUUO11	   575	   580
LUUO12	   575	   581
LUUO13	   575	   581
LUUO14	   575	   582
LUUO15	   575	   582
LUUO16	   575	   583
LUUO17	   575	   583
LUUO2	    68#	   575	   577
LUUO20	   575	   584
LUUO21	   575	   584
LUUO22	   575	   585
LUUO23	   575	   585
LUUO24	   575	   586
LUUO25	   575	   586
LUUO26	   575	   587
LUUO27	   575	   587
LUUO3	   575	   577
LUUO30	   575	   588
LUUO31	   575	   588                                                                                                 *** SEQ 0355
LUUO32	   575	   589
LUUO33	   575	   589
LUUO4	   575	   578
LUUO5	   575	   578
LUUO6	   575	   579
LUUO7	   575	   579
LUUOI	   442#
M	  5474#	  5475#	  5482	  5488#	  5489#	  5496	  5502#	  5503#	  5510	  5511	  5516#	  5517#	  5524	  5525
	  5530#	  5538	  5544#	  5552	  5558#	  5566	  5567	  5572#	  5580	  5581	  5586#	  5594	  5600#	  5608
	  5614#	  5622	  5623	  5628#	  5636	  5637	  5642#	  5650	  5656#	  5664	  5670#	  5678	  5679	  5684#
	  5692	  5693	  5698#	  5706	  5712#	  5720	  5726#	  5734	  5735	  5740#	  5748	  5749	  5754#	  5755#
	  5762	  5768#	  5769#	  5776	  5782#	  5783#	  5790	  5791	  5796#	  5797#	  5804	  5805	  5810#	  5818
	  5824#	  5832	  5838#	  5846	  5847	  5852#	  5860	  5861	  5866#	  5874	  5880#	  5888	  5894#	  5902
	  5903	  5908#	  5916	  5917	  5922#	  5930	  5936#	  5944	  5950#	  5958	  5959	  5964#	  5972	  5973
	  5978#	  5986	  5992#	  6000	  6006#	  6014	  6015	  6020#	  6028	  6029	  6034#	  6035#	  6042	  6048#
	  6049#	  6056	  6062#	  6063#	  6070	  6071	  6076#	  6077#	  6084	  6085	  6090#	  6098	  6104#	  6112
	  6118#	  6126	  6127	  6132#	  6140	  6141	  6146#	  6154	  6160#	  6168	  6174#	  6182	  6183	  6188#
	  6196	  6197	  6202#	  6210	  6216#	  6224	  6230#	  6238	  6239	  6244#	  6252	  6253	  6258#	  6266
	  6272#	  6280	  6286#	  6294	  6295	  6300#	  6308	  6309	  6314#	  6315#	  6322	  6328#	  6329#	  6336
	  6342#	  6343#	  6350	  6351	  6356#	  6357#	  6364	  6365	  6388#	  6393	  6400#	  6405	  6412#	  6413#
	  6417	  6424#	  6426#	  6429	  6436#	  6441	  6448#	  6453	  6460#	  6461#	  6465	  6472#	  6474#	  6477
	  6484#	  6489	  6496#	  6501	  6508#	  6513	  6520#	  6522#	  6525	  6532#	  6537	  6544#	  6549	  6556#
	  6561	  6568#	  6570#	  6573	  6580#	  6585	  6592#	  6597	  6604#	  6609	  6616#	  6618#	  6621	  6628#
	  6633	  6640#	  6645	  6652#	  6657	  6664#	  6666#	  6669	  6676#	  6681	  6688#	  6693	  6700#	  6705
	  6712#	  6714#	  6717	  6724#	  6729	  6736#	  6741	  6748#	  6753	  6760#	  6762#	  6765	  6772#	  6777
	  6784#	  6789	  6796#	  6797#	  6801	  6808#	  6810#	  6813	  6820#	  6825	  6832#	  6837	  6844#	  6845#
	  6849	  6856#	  6858#	  6861	  6868#	  6873	  6880#	  6885	  6892#	  6897	  6904#	  6906#	  6909	  6916#
	  6921	  6928#	  6933	  6940#	  6945	  6952#	  6954#	  6957	  6964#	  6969	  6976#	  6981	  6988#	  6993
	  7000#	  7002#	  7005	  7012#	  7017	  7024#	  7029	  7036#	  7041	  7048#	  7050#	  7053	  7060#	  7065
	  7072#	  7077	  7084#	  7089	  7096#	  7098#	  7101	  7108#	  7113	  7120#	  7125	  7132#	  7137	  7144#
	  7146#	  7149	  7179#	  7185	  7186	  7194#	  7200	  7201	  7209#	  7210#	  7215	  7216	  7224#	  7225#
	  7230	  7231	  7239#	  7240#	  7245	  7246	  7254#	  7255#	  7260	  7261	  7269#	  7270#	  7275	  7276
	  7284#	  7285#	  7290	  7291	  7299#	  7305	  7306	  7314#	  7320	  7321	  7329#	  7330#	  7335	  7336
	  7344#	  7345#	  7350	  7351	  7359#	  7360#	  7365	  7366	  7374#	  7375#	  7380	  7381	  7389#	  7390#
	  7395	  7396	  7404#	  7405#	  7410	  7411	  7419#	  7425	  7426	  7434#	  7440	  7441	  7449#	  7450#
	  7455	  7456	  7464#	  7465#	  7470	  7471	  7479#	  7480#	  7485	  7486	  7494#	  7495#	  7500	  7501
	  7509#	  7510#	  7515	  7516	  7524#	  7525#	  7530	  7531	  7539#	  7545	  7546	  7554#	  7560	  7561
	  7569#	  7570#	  7575	  7576	  7584#	  7585#	  7590	  7591	  7599#	  7600#	  7605	  7606	  7614#	  7615#
	  7620	  7621	  7629#	  7630#	  7635	  7636	  7644#	  7645#	  7650	  7651	  7659#	  7665	  7666	  7674#
	  7680	  7681	  7689#	  7690#	  7695	  7696	  7704#	  7705#	  7710	  7711	  7719#	  7720#	  7725	  7726
	  7734#	  7735#	  7740	  7741	  7749#	  7750#	  7755	  7756	  7764#	  7765#	  7770	  7771	  7779#	  7785
	  7786	  7794#	  7800	  7801	  7809#	  7810#	  7815	  7816	  7824#	  7825#	  7830	  7831	  7839#	  7840#
	  7845	  7846	  7854#	  7855#	  7860	  7861	  7869#	  7870#	  7875	  7876	  7884#	  7885#	  7890	  7891
	  7899#	  7901#	  7905	  7906	  7914#	  7916#	  7920	  7921	  7929#	  7930#	  7931#	  7935	  7936	  7944#
	  7945#	  7946#	  7950	  7951	  7959#	  7960#	  7961#	  7965	  7966	  7974#	  7975#	  7976#	  7980	  7981
	  7989#	  7990#	  7991#	  7995	  7996	  8004#	  8005#	  8006#	  8010	  8011	  8019#	  8021#	  8025	  8026
	  8034#	  8036#	  8040	  8041	  8049#	  8050#	  8051#	  8055	  8056	  8064#	  8065#	  8066#	  8070	  8071
	  8079#	  8080#	  8081#	  8085	  8086	  8094#	  8095#	  8096#	  8100	  8101	  8109#	  8110#	  8111#	  8115
	  8116	  8124#	  8125#	  8126#	  8130	  8131
MA	   155#	  1817	  1924	  3969#	  8897	  9299	 10203	 11284	 11970	 11972	 12167	 12169	 12172	 12226
MAGIC	  8353#	  8353	  8444	  9152#	  9152	  9475#	  9475	  9746#	  9746	 10294	 10681#	 10681	 10848#	 10848
	 11012#	 11012	 11016#	 11016
MAIN	  9302#	  9428                                                                                                 *** SEQ 0356
MAIN1	  9332	  9337#
MAIN2	  9334	  9344#
MAMAOF	  9264	 11968	 11969	 12001#	 12001	 12044
MAP2	  4850	  8896#	  8897
MAPNEW	   596#
MARGIN	   518#	  1035	  1036	  1040	  1070	  1071	  1075	  1171	  1172	  1176	  1550
MASK	  1331	  1353	  1868#	  2075
MB	   153#	  1815	  1934	  2074	  2114	  2122	  2125	  2131	  2136	  2178	  2250	  3967#	  9299	  9310
	  9371	  9438	  9442	  9717	  9725	  9760	  9787	  9799	  9814	  9879	 10288	 10902	 11271	 11487
	 12061	 12065	 12115
MBAREN	  4058#	  8541	 10204	 10898	 10924	 10970	 10978	 11595
MBCLK	  9370#	  9370	 11594	 11604
MBFMEN	  4058#	 11597
MBMIX	  9371#	  9371	 11599
MBMIX1	 11596	 11602#
MBMIX2	 11598	 11603#
MBMIXR	  9359	 11593#
MCNVER	     4#	    10	    26	   490
MCSADR	  9285#	  9285	  9955	  9957	  9997	 10001	 10003	 11358	 11972	 11975	 12057	 12167	 12183
MCSPEC	  9284	  9951#	  9951	  9995	 11354	 11971	 11974	 12056	 12060	 12166	 12168	 12182
MD	   920	   922	   955	   957	   959	   961	   963	  1013	  1186#	  1200
MD1	  1189#	  1199
MD2	  1190	  1192	  1194	  1195#
MEMCMP	  9260	  9261	  9262	  9263	 11993	 11994	 12005	 12028	 12029	 12055	 12175	 12176	 12234#
MEMDON	  9265	 11984#	 11984	 12051	 12171
MEMFLG	 12030	 12032	 12050	 12250#
MEMGOI	  9286#	  9286	 10110
MEMLOW	   598#
MEMMAP	   496
MEMREA	  9855#	  9855	  9864	  9911#	  9911	  9988	 11305	 11985	 12094	 12119	 12149	 12197
MEMREF	  4066#	  9795	  9797	  9801	  9806
MEMRET	 12008	 12063	 12064	 12104	 12114	 12116	 12266#
MEMSIN	  9878#	  9878	  9884	  9908	 10009	 10019	 10092	 11307	 11322	 12007	 12062	 12103	 12145	 12196
MEMSIZ	   599#
MEMST	  3184	  9876	  9906	 10010	 10023	 10033	 10095	 11313	 11324	 11965#	 12150
MEMST1	 11986	 12025#
MEMST2	 12033	 12039#	 12127
MEMST3	 12031	 12123#
MEMST4	 12007#	 12099
MEMST5	 11981	 11983	 12012#
MEMST6	 11984#	 12015
MEMST7	 11998	 12017#	 12041
MEMST8	 12071	 12077	 12119#
MEMSTA	 11970#	 12203
MEMSTB	 11993#	 12230
MEMTOT	   597#
MEMWR	  9268	  9847#	  9847	  9850	  9865	  9881	 10017	 10093	 11323	 12009	 12052	 12070	 12112	 12120
	 12198
MEMWRW	  9269	 10217#	 10217	 10218	 11274#	 11274	 11996	 12053	 12129	 12177
MEMWSS	  8383	  8566	 10317	 10633	 12223#
MGNCLR	   779	  1542#	  1545	  1548	  1552
MGNFLG	  1033	  1038	  1068	  1073	  1169	  1174	  1543#	  1543	  1549
MGNTST	    75#	  1547                                                                                                 *** SEQ 0357
MINUS	   640#
MISCFP	   962	  1650#
MODDVC	   190#
MODDVL	   388	   388#	   491
MODDVU	   389	   389#	   492
MODLNK	   209#	   455
MONCTL	   508#
MONFLG	   507#
MONTEN	   509#
MONUUO	  4160	  4165	  4170	  4175	  4201	  4798	  8889#	  8890
MOTAB	  2305	  2689#
MOVTAB	  2318	  2359	  2714#
MOVTST	  2267	  2301#
MPVU	   442#
MPY	  8360	  8752	  8819	  9729	 11139#	 11139	 11142
MPYFCN	  8366	 10447	 10910	 11140	 11729#
MPYFN1	 11738	 11746#
MPYFN2	 11739	 11745#
MPYFN3	 11749#
MPYFN4	 11743	 11750#
MPYFN5	 11152	 11741#
MQ	   150#	  1812	  1967	  3964#	  8412	  8462	  8825	  9297	  9369	 10247	 10250	 10324	 10471	 10483
	 10503	 10514	 10563	 10580	 10670	 10712	 10713	 10743	 10809	 10811	 10996	 11148	 11442	 11475
	 11549	 11568	 11587	 11773	 11774	 11776	 11777	 11778	 11779	 11781	 11785	 11797	 11808	 11855
	 11857	 11858	 11861	 11864	 11905	 11906	 11917	 11918	 11921	 11941	 11942	 11944	 11945	 11946
	 11954	 11955	 11957	 11958	 11959	 11961
MQ0L	 11548	 11855#
MQ0R1	 11564	 11891#
MQ0R2	 11580	 11867#
MQ1R1	 11565	 11903#
MQ1R2	 11583	 11879#
MQ2R2	 11584	 11915#
MQ35L	 11546	 11927#
MQ8R1	 11561	 11952#
MQ8R2	 11574	 11939#
MQ9R2	 11577	 11951#
MQADEN	  4004#	  8361	  8418	  8446	  8452	  8506	  8543	  8554	  8565	  8590	  8817	  8842	  8855	 10333
	 10382	 10444	 10758	 10875	 10897	 10909	 11015	 11106	 11114	 11291	 11344	 11527
MQCLK	  9368#	  9368	 11526	 11536	 11557
MQCLR	  4004#	  9946	 10362	 10543	 10699	 10715	 10882	 10930	 10976	 11535
MQLT	 11530	 11540#
MQLTA	 11555#	 11572	 11591
MQLTB	 11528	 11556#
MQMIX	  8421	  9369	 11537#	 11537	 11732
MQMIXR	  8419	  9358	 11526#	 11730
MQRT1	 11532	 11560#
MQRT2	 11534	 11573#
MQSHLT	  4004#	 10295	 10311	 10390	 10401	 10409	 10452	 10555	 10728	 10914	 10935	 10941	 10986	 11073
	 11165	 11529
MQSHR2	  4004#	 11180	 11533
MQSHRT	  4004#	 10394	 10623	 10647	 10676	 10893	 10923	 11067	 11133	 11531
MRPNT	  1831	  1880#
MRPNT1	  1913#	  1998                                                                                                 *** SEQ 0358
MRPNT2	  1894	  1900	  1905	  1990#
MRPNT3	  1891#	  2184
MRPNT4	  1918	  1999#
MRPNT5	  1939#	  2016
MUL0	  4635	  4641	  4647	  4653	  4659	  4665	  4671	  4677	  8359#	  8360
MUL1	  4659	  4665	  4671	  4677	  8378#	  8379
MUL1A	  8387	  8393#
MUL2	  4660	  4666	  4672	  4678	  8389#	  8390
MULAC	  1042	  1043	  1044	  1045	  1077	  1078	  1079	  1080	  1114	  1115	  1116	  1117	  1318	  1319
	  1320	  1321	  1696#
MULFD	  4634	  4640	  4646	  4652	  4658	  4664	  4670	  4676	  8907#
MULTAB	  2325	  2719#
MUO3FD	  8913#
MUOES3	  9982	 10071#
MUOF1C	  4031#	  9414
MUOF1S	  4030#	  9412	 10190
MUOF2C	  4033#	  9418	 10188
MUOF2S	  4032#	  9416
MUOTAB	  2405	  2752#
MUOTST	  2275	  2278	  2401#
MUOXT	  2255	  2405#
MUUO	   442#
MUUO32	  8892#	  8893	 10185
MUUOF1	  9288	  9413#	  9413	  9415	  9979	  9993	 10187	 10233
MUUOF2	  9289	  9417#	  9417	  9419	  9980	 10189	 10231
MUUOPC	   442#
N	  4279#	  4287	  4288	  4291	  4291#	  4293	  4294	  4297	  4297#	  4299	  4300	  4303	  4303#	  4305
	  4306	  4309	  4309#	  4311	  4312	  4315	  4315#	  4317	  4318	  4321	  4321#	  4323	  4324	  4327
	  4327#	  4329	  4330	  4333	  4333#	  4337#	  4347	  4348	  4351	  4351#	  4353	  4354	  4357	  4357#
	  4359	  4360	  4363	  4363#	  4365	  4366	  4369	  4369#	  4371	  4372	  4375	  4375#	  4377	  4378
	  4381	  4381#	  4383	  4384	  4387	  4387#	  4389	  4390	  4393	  4393#	  4397#	  4405	  4406	  4409
	  4409#	  4411	  4412	  4415	  4415#	  4417	  4418	  4421	  4421#	  4423	  4424	  4427	  4427#	  4429
	  4430	  4433	  4433#	  4435	  4436	  4439	  4439#	  4441	  4442	  4445	  4445#	  4447	  4448	  4451
	  4451#	  4455#	  4463	  4464	  4465	  4466	  4467	  4467#	  4469	  4470	  4471	  4472	  4473	  4473#
	  4475	  4476	  4477	  4478	  4479	  4479#	  4481	  4482	  4483	  4484	  4485	  4485#	  4487	  4488
	  4489	  4490	  4491	  4491#	  4493	  4494	  4495	  4496	  4497	  4497#	  4499	  4500	  4501	  4502
	  4503	  4503#	  4505	  4506	  4507	  4508	  4509	  4509#	  4514#	  4524	  4525	  4526	  4527	  4528
	  4528#	  4530	  4531	  4532	  4533	  4534	  4534#	  4536	  4537	  4538	  4539	  4540	  4540#	  4542
	  4543	  4544	  4545	  4546	  4546#	  4548	  4549	  4550	  4551	  4552	  4552#	  4554	  4555	  4556
	  4557	  4558	  4558#	  4560	  4561	  4562	  4563	  4564	  4564#	  4566	  4567	  4568	  4569	  4570
	  4570#	  4572	  4573	  4574	  4575	  4576	  4576#	  4578	  4579	  4580	  4581	  4582	  4582#	  4584
	  4585	  4586	  4587	  4588	  4588#	  4590	  4591	  4592	  4593	  4594	  4594#	  4596	  4597	  4598
	  4599	  4600	  4600#	  4602	  4603	  4604	  4605	  4606	  4606#	  4608	  4609	  4610	  4611	  4612
	  4612#	  4614	  4615	  4616	  4617	  4618	  4618#	  4626#	  4633	  4634	  4635	  4636	  4637	  4637#
	  4639	  4640	  4641	  4642	  4643	  4643#	  4645	  4646	  4647	  4648	  4649	  4649#	  4651	  4652
	  4653	  4654	  4655	  4655#	  4657	  4658	  4659	  4660	  4661	  4661#	  4663	  4664	  4665	  4666
	  4667	  4667#	  4669	  4670	  4671	  4672	  4673	  4673#	  4675	  4676	  4677	  4678	  4679	  4679#
	  4683#	  4691	  4692	  4693	  4694	  4695	  4696	  4696#	  4698	  4699	  4700	  4701	  4702	  4703
	  4703#	  4705	  4706	  4707	  4708	  4709	  4710	  4710#	  4712	  4713	  4714	  4715	  4716	  4717
	  4717#	  4719	  4720	  4721	  4722	  4723	  4724	  4724#	  4726	  4727	  4728	  4729	  4730	  4731
	  4731#	  4733	  4734	  4735	  4736	  4737	  4738	  4738#	  4740	  4741	  4742	  4743	  4744	  4745
	  4745#	  4814#	  4823	  4824#	  4828	  4829#	  4904#	  4913	  4914	  4917	  4917#	  4919	  4920	  4923
	  4923#	  4925	  4926	  4929	  4929#	  4931	  4932	  4935	  4935#	  4937	  4938	  4941	  4941#	  4943 *** SEQ 0359
	  4944	  4947	  4947#	  4949	  4950	  4953	  4953#	  4955	  4956	  4959	  4959#	  4964#	  4972	  4975
	  4975#	  4977	  4980	  4980#	  4982	  4985	  4985#	  4987	  4990	  4990#	  4992	  4995	  4995#	  4997
	  5000	  5000#	  5002	  5005	  5005#	  5007	  5010	  5010#	  5012	  5015	  5015#	  5017	  5020	  5020#
	  5022	  5025	  5025#	  5027	  5030	  5030#	  5032	  5035	  5035#	  5037	  5040	  5040#	  5042	  5045
	  5045#	  5047	  5050	  5050#	  5064	  5065	  5066	  5068	  5069	  5070	  5070#	  5072	  5073	  5074
	  5076	  5077	  5078	  5078#	  5080	  5081	  5082	  5084	  5085	  5086	  5086#	  5088	  5089	  5090
	  5092	  5093	  5094	  5094#	  5096	  5097	  5098	  5100	  5101	  5102	  5102#	  5104	  5105	  5106
	  5108	  5109	  5110	  5110#	  5112	  5113	  5114	  5116	  5117	  5118	  5118#	  5120	  5121	  5122
	  5124	  5125	  5126	  5126#	  5128	  5129	  5130	  5132	  5133	  5134	  5134#	  5136	  5137	  5138
	  5140	  5141	  5142	  5142#	  5144	  5145	  5146	  5148	  5149	  5150	  5150#	  5152	  5153	  5154
	  5156	  5157	  5158	  5158#	  5160	  5161	  5162	  5164	  5165	  5166	  5166#	  5168	  5169	  5170
	  5172	  5173	  5174	  5174#	  5176	  5177	  5178	  5180	  5181	  5182	  5182#	  5184	  5185	  5186
	  5188	  5189	  5190	  5190#	  5192	  5193	  5194	  5196	  5197	  5198	  5198#	  5200	  5201	  5202
	  5204	  5205	  5206	  5206#	  5208	  5209	  5210	  5212	  5213	  5214	  5214#	  5216	  5217	  5218
	  5220	  5221	  5222	  5222#	  5224	  5225	  5226	  5228	  5229	  5230	  5230#	  5232	  5233	  5234
	  5236	  5237	  5238	  5238#	  5240	  5241	  5242	  5244	  5245	  5246	  5246#	  5248	  5249	  5250
	  5252	  5253	  5254	  5254#	  5256	  5257	  5258	  5260	  5261	  5262	  5262#	  5264	  5265	  5266
	  5268	  5269	  5270	  5270#	  5272	  5273	  5274	  5276	  5277	  5278	  5278#	  5280	  5281	  5282
	  5284	  5285	  5286	  5286#	  5288	  5289	  5290	  5292	  5293	  5294	  5294#	  5296	  5297	  5298
	  5300	  5301	  5302	  5302#	  5304	  5305	  5306	  5308	  5309	  5310	  5310#	  5312	  5313	  5314
	  5316	  5317	  5318	  5318#	  5320	  5321	  5322	  5324	  5325	  5326	  5326#	  5328	  5329	  5330
	  5332	  5333	  5334	  5334#	  5336	  5337	  5338	  5340	  5341	  5342	  5342#	  5344	  5345	  5346
	  5348	  5349	  5350	  5350#	  5352	  5353	  5354	  5356	  5357	  5358	  5358#	  5360	  5361	  5362
	  5364	  5365	  5366	  5366#	  5368	  5369	  5370	  5372	  5373	  5374	  5374#	  5376	  5377	  5378
	  5380	  5381	  5382	  5382#	  5384	  5385	  5386	  5388	  5389	  5390	  5390#	  5392	  5393	  5394
	  5396	  5397	  5398	  5398#	  5400	  5401	  5402	  5404	  5405	  5406	  5406#	  5408	  5409	  5410
	  5412	  5413	  5414	  5414#	  5416	  5417	  5418	  5420	  5421	  5422	  5422#	  5424	  5425	  5426
	  5428	  5429	  5430	  5430#	  5432	  5433	  5434	  5436	  5437	  5438	  5438#	  5440	  5441	  5442
	  5444	  5445	  5446	  5446#	  5458#	  5475	  5476	  5477	  5478	  5479	  5480	  5481	  5482	  5483
	  5486	  5486#	  5489	  5490	  5491	  5492	  5493	  5494	  5495	  5496	  5497	  5500	  5500#	  5503
	  5504	  5505	  5506	  5507	  5508	  5509	  5510	  5511	  5514	  5514#	  5517	  5518	  5519	  5520
	  5521	  5522	  5523	  5524	  5525	  5528	  5528#	  5531	  5532	  5533	  5534	  5535	  5536	  5537
	  5538	  5539	  5542	  5542#	  5545	  5546	  5547	  5548	  5549	  5550	  5551	  5552	  5553	  5556
	  5556#	  5559	  5560	  5561	  5562	  5563	  5564	  5565	  5566	  5567	  5570	  5570#	  5573	  5574
	  5575	  5576	  5577	  5578	  5579	  5580	  5581	  5584	  5584#	  5587	  5588	  5589	  5590	  5591
	  5592	  5593	  5594	  5595	  5598	  5598#	  5601	  5602	  5603	  5604	  5605	  5606	  5607	  5608
	  5609	  5612	  5612#	  5615	  5616	  5617	  5618	  5619	  5620	  5621	  5622	  5623	  5626	  5626#
	  5629	  5630	  5631	  5632	  5633	  5634	  5635	  5636	  5637	  5640	  5640#	  5643	  5644	  5645
	  5646	  5647	  5648	  5649	  5650	  5651	  5654	  5654#	  5657	  5658	  5659	  5660	  5661	  5662
	  5663	  5664	  5665	  5668	  5668#	  5671	  5672	  5673	  5674	  5675	  5676	  5677	  5678	  5679
	  5682	  5682#	  5685	  5686	  5687	  5688	  5689	  5690	  5691	  5692	  5693	  5696	  5696#	  5699
	  5700	  5701	  5702	  5703	  5704	  5705	  5706	  5707	  5710	  5710#	  5713	  5714	  5715	  5716
	  5717	  5718	  5719	  5720	  5721	  5724	  5724#	  5727	  5728	  5729	  5730	  5731	  5732	  5733
	  5734	  5735	  5738	  5738#	  5741	  5742	  5743	  5744	  5745	  5746	  5747	  5748	  5749	  5752
	  5752#	  5755	  5756	  5757	  5758	  5759	  5760	  5761	  5762	  5763	  5766	  5766#	  5769	  5770
	  5771	  5772	  5773	  5774	  5775	  5776	  5777	  5780	  5780#	  5783	  5784	  5785	  5786	  5787
	  5788	  5789	  5790	  5791	  5794	  5794#	  5797	  5798	  5799	  5800	  5801	  5802	  5803	  5804
	  5805	  5808	  5808#	  5811	  5812	  5813	  5814	  5815	  5816	  5817	  5818	  5819	  5822	  5822#
	  5825	  5826	  5827	  5828	  5829	  5830	  5831	  5832	  5833	  5836	  5836#	  5839	  5840	  5841
	  5842	  5843	  5844	  5845	  5846	  5847	  5850	  5850#	  5853	  5854	  5855	  5856	  5857	  5858
	  5859	  5860	  5861	  5864	  5864#	  5867	  5868	  5869	  5870	  5871	  5872	  5873	  5874	  5875
	  5878	  5878#	  5881	  5882	  5883	  5884	  5885	  5886	  5887	  5888	  5889	  5892	  5892#	  5895
	  5896	  5897	  5898	  5899	  5900	  5901	  5902	  5903	  5906	  5906#	  5909	  5910	  5911	  5912 *** SEQ 0360
	  5913	  5914	  5915	  5916	  5917	  5920	  5920#	  5923	  5924	  5925	  5926	  5927	  5928	  5929
	  5930	  5931	  5934	  5934#	  5937	  5938	  5939	  5940	  5941	  5942	  5943	  5944	  5945	  5948
	  5948#	  5951	  5952	  5953	  5954	  5955	  5956	  5957	  5958	  5959	  5962	  5962#	  5965	  5966
	  5967	  5968	  5969	  5970	  5971	  5972	  5973	  5976	  5976#	  5979	  5980	  5981	  5982	  5983
	  5984	  5985	  5986	  5987	  5990	  5990#	  5993	  5994	  5995	  5996	  5997	  5998	  5999	  6000
	  6001	  6004	  6004#	  6007	  6008	  6009	  6010	  6011	  6012	  6013	  6014	  6015	  6018	  6018#
	  6021	  6022	  6023	  6024	  6025	  6026	  6027	  6028	  6029	  6032	  6032#	  6035	  6036	  6037
	  6038	  6039	  6040	  6041	  6042	  6043	  6046	  6046#	  6049	  6050	  6051	  6052	  6053	  6054
	  6055	  6056	  6057	  6060	  6060#	  6063	  6064	  6065	  6066	  6067	  6068	  6069	  6070	  6071
	  6074	  6074#	  6077	  6078	  6079	  6080	  6081	  6082	  6083	  6084	  6085	  6088	  6088#	  6091
	  6092	  6093	  6094	  6095	  6096	  6097	  6098	  6099	  6102	  6102#	  6105	  6106	  6107	  6108
	  6109	  6110	  6111	  6112	  6113	  6116	  6116#	  6119	  6120	  6121	  6122	  6123	  6124	  6125
	  6126	  6127	  6130	  6130#	  6133	  6134	  6135	  6136	  6137	  6138	  6139	  6140	  6141	  6144
	  6144#	  6147	  6148	  6149	  6150	  6151	  6152	  6153	  6154	  6155	  6158	  6158#	  6161	  6162
	  6163	  6164	  6165	  6166	  6167	  6168	  6169	  6172	  6172#	  6175	  6176	  6177	  6178	  6179
	  6180	  6181	  6182	  6183	  6186	  6186#	  6189	  6190	  6191	  6192	  6193	  6194	  6195	  6196
	  6197	  6200	  6200#	  6203	  6204	  6205	  6206	  6207	  6208	  6209	  6210	  6211	  6214	  6214#
	  6217	  6218	  6219	  6220	  6221	  6222	  6223	  6224	  6225	  6228	  6228#	  6231	  6232	  6233
	  6234	  6235	  6236	  6237	  6238	  6239	  6242	  6242#	  6245	  6246	  6247	  6248	  6249	  6250
	  6251	  6252	  6253	  6256	  6256#	  6259	  6260	  6261	  6262	  6263	  6264	  6265	  6266	  6267
	  6270	  6270#	  6273	  6274	  6275	  6276	  6277	  6278	  6279	  6280	  6281	  6284	  6284#	  6287
	  6288	  6289	  6290	  6291	  6292	  6293	  6294	  6295	  6298	  6298#	  6301	  6302	  6303	  6304
	  6305	  6306	  6307	  6308	  6309	  6312	  6312#	  6315	  6316	  6317	  6318	  6319	  6320	  6321
	  6322	  6323	  6326	  6326#	  6329	  6330	  6331	  6332	  6333	  6334	  6335	  6336	  6337	  6340
	  6340#	  6343	  6344	  6345	  6346	  6347	  6348	  6349	  6350	  6351	  6354	  6354#	  6357	  6358
	  6359	  6360	  6361	  6362	  6363	  6364	  6365	  6368	  6368#	  6373#	  6389	  6390	  6391	  6392
	  6393	  6394	  6396	  6397	  6399	  6399#	  6401	  6402	  6403	  6404	  6405	  6406	  6408	  6409
	  6411	  6411#	  6413	  6414	  6415	  6416	  6417	  6418	  6420	  6421	  6423	  6423#	  6425	  6426
	  6427	  6428	  6429	  6430	  6432	  6433	  6435	  6435#	  6437	  6438	  6439	  6440	  6441	  6442
	  6444	  6445	  6447	  6447#	  6449	  6450	  6451	  6452	  6453	  6454	  6456	  6457	  6459	  6459#
	  6461	  6462	  6463	  6464	  6465	  6466	  6468	  6469	  6471	  6471#	  6473	  6474	  6475	  6476
	  6477	  6478	  6480	  6481	  6483	  6483#	  6485	  6486	  6487	  6488	  6489	  6490	  6492	  6493
	  6495	  6495#	  6497	  6498	  6499	  6500	  6501	  6502	  6504	  6505	  6507	  6507#	  6509	  6510
	  6511	  6512	  6513	  6514	  6516	  6517	  6519	  6519#	  6521	  6522	  6523	  6524	  6525	  6526
	  6528	  6529	  6531	  6531#	  6533	  6534	  6535	  6536	  6537	  6538	  6540	  6541	  6543	  6543#
	  6545	  6546	  6547	  6548	  6549	  6550	  6552	  6553	  6555	  6555#	  6557	  6558	  6559	  6560
	  6561	  6562	  6564	  6565	  6567	  6567#	  6569	  6570	  6571	  6572	  6573	  6574	  6576	  6577
	  6579	  6579#	  6581	  6582	  6583	  6584	  6585	  6586	  6588	  6589	  6591	  6591#	  6593	  6594
	  6595	  6596	  6597	  6598	  6600	  6601	  6603	  6603#	  6605	  6606	  6607	  6608	  6609	  6610
	  6612	  6613	  6615	  6615#	  6617	  6618	  6619	  6620	  6621	  6622	  6624	  6625	  6627	  6627#
	  6629	  6630	  6631	  6632	  6633	  6634	  6636	  6637	  6639	  6639#	  6641	  6642	  6643	  6644
	  6645	  6646	  6648	  6649	  6651	  6651#	  6653	  6654	  6655	  6656	  6657	  6658	  6660	  6661
	  6663	  6663#	  6665	  6666	  6667	  6668	  6669	  6670	  6672	  6673	  6675	  6675#	  6677	  6678
	  6679	  6680	  6681	  6682	  6684	  6685	  6687	  6687#	  6689	  6690	  6691	  6692	  6693	  6694
	  6696	  6697	  6699	  6699#	  6701	  6702	  6703	  6704	  6705	  6706	  6708	  6709	  6711	  6711#
	  6713	  6714	  6715	  6716	  6717	  6718	  6720	  6721	  6723	  6723#	  6725	  6726	  6727	  6728
	  6729	  6730	  6732	  6733	  6735	  6735#	  6737	  6738	  6739	  6740	  6741	  6742	  6744	  6745
	  6747	  6747#	  6749	  6750	  6751	  6752	  6753	  6754	  6756	  6757	  6759	  6759#	  6761	  6762
	  6763	  6764	  6765	  6766	  6768	  6769	  6771	  6771#	  6773	  6774	  6775	  6776	  6777	  6778
	  6780	  6781	  6783	  6783#	  6785	  6786	  6787	  6788	  6789	  6790	  6792	  6793	  6795	  6795#
	  6797	  6798	  6799	  6800	  6801	  6802	  6804	  6805	  6807	  6807#	  6809	  6810	  6811	  6812
	  6813	  6814	  6816	  6817	  6819	  6819#	  6821	  6822	  6823	  6824	  6825	  6826	  6828	  6829
	  6831	  6831#	  6833	  6834	  6835	  6836	  6837	  6838	  6840	  6841	  6843	  6843#	  6845	  6846 *** SEQ 0361
	  6847	  6848	  6849	  6850	  6852	  6853	  6855	  6855#	  6857	  6858	  6859	  6860	  6861	  6862
	  6864	  6865	  6867	  6867#	  6869	  6870	  6871	  6872	  6873	  6874	  6876	  6877	  6879	  6879#
	  6881	  6882	  6883	  6884	  6885	  6886	  6888	  6889	  6891	  6891#	  6893	  6894	  6895	  6896
	  6897	  6898	  6900	  6901	  6903	  6903#	  6905	  6906	  6907	  6908	  6909	  6910	  6912	  6913
	  6915	  6915#	  6917	  6918	  6919	  6920	  6921	  6922	  6924	  6925	  6927	  6927#	  6929	  6930
	  6931	  6932	  6933	  6934	  6936	  6937	  6939	  6939#	  6941	  6942	  6943	  6944	  6945	  6946
	  6948	  6949	  6951	  6951#	  6953	  6954	  6955	  6956	  6957	  6958	  6960	  6961	  6963	  6963#
	  6965	  6966	  6967	  6968	  6969	  6970	  6972	  6973	  6975	  6975#	  6977	  6978	  6979	  6980
	  6981	  6982	  6984	  6985	  6987	  6987#	  6989	  6990	  6991	  6992	  6993	  6994	  6996	  6997
	  6999	  6999#	  7001	  7002	  7003	  7004	  7005	  7006	  7008	  7009	  7011	  7011#	  7013	  7014
	  7015	  7016	  7017	  7018	  7020	  7021	  7023	  7023#	  7025	  7026	  7027	  7028	  7029	  7030
	  7032	  7033	  7035	  7035#	  7037	  7038	  7039	  7040	  7041	  7042	  7044	  7045	  7047	  7047#
	  7049	  7050	  7051	  7052	  7053	  7054	  7056	  7057	  7059	  7059#	  7061	  7062	  7063	  7064
	  7065	  7066	  7068	  7069	  7071	  7071#	  7073	  7074	  7075	  7076	  7077	  7078	  7080	  7081
	  7083	  7083#	  7085	  7086	  7087	  7088	  7089	  7090	  7092	  7093	  7095	  7095#	  7097	  7098
	  7099	  7100	  7101	  7102	  7104	  7105	  7107	  7107#	  7109	  7110	  7111	  7112	  7113	  7114
	  7116	  7117	  7119	  7119#	  7121	  7122	  7123	  7124	  7125	  7126	  7128	  7129	  7131	  7131#
	  7133	  7134	  7135	  7136	  7137	  7138	  7140	  7141	  7143	  7143#	  7145	  7146	  7147	  7148
	  7149	  7150	  7152	  7153	  7155	  7155#	  7160#	  7180	  7181	  7183	  7184	  7185	  7186	  7187
	  7188	  7189	  7190	  7191	  7192	  7192#	  7195	  7196	  7198	  7199	  7200	  7201	  7202	  7203
	  7204	  7205	  7206	  7207	  7207#	  7210	  7211	  7213	  7214	  7215	  7216	  7217	  7218	  7219
	  7220	  7221	  7222	  7222#	  7225	  7226	  7228	  7229	  7230	  7231	  7232	  7233	  7234	  7235
	  7236	  7237	  7237#	  7240	  7241	  7243	  7244	  7245	  7246	  7247	  7248	  7249	  7250	  7251
	  7252	  7252#	  7255	  7256	  7258	  7259	  7260	  7261	  7262	  7263	  7264	  7265	  7266	  7267
	  7267#	  7270	  7271	  7273	  7274	  7275	  7276	  7277	  7278	  7279	  7280	  7281	  7282	  7282#
	  7285	  7286	  7288	  7289	  7290	  7291	  7292	  7293	  7294	  7295	  7296	  7297	  7297#	  7300
	  7301	  7303	  7304	  7305	  7306	  7307	  7308	  7309	  7310	  7311	  7312	  7312#	  7315	  7316
	  7318	  7319	  7320	  7321	  7322	  7323	  7324	  7325	  7326	  7327	  7327#	  7330	  7331	  7333
	  7334	  7335	  7336	  7337	  7338	  7339	  7340	  7341	  7342	  7342#	  7345	  7346	  7348	  7349
	  7350	  7351	  7352	  7353	  7354	  7355	  7356	  7357	  7357#	  7360	  7361	  7363	  7364	  7365
	  7366	  7367	  7368	  7369	  7370	  7371	  7372	  7372#	  7375	  7376	  7378	  7379	  7380	  7381
	  7382	  7383	  7384	  7385	  7386	  7387	  7387#	  7390	  7391	  7393	  7394	  7395	  7396	  7397
	  7398	  7399	  7400	  7401	  7402	  7402#	  7405	  7406	  7408	  7409	  7410	  7411	  7412	  7413
	  7414	  7415	  7416	  7417	  7417#	  7420	  7421	  7423	  7424	  7425	  7426	  7427	  7428	  7429
	  7430	  7431	  7432	  7432#	  7435	  7436	  7438	  7439	  7440	  7441	  7442	  7443	  7444	  7445
	  7446	  7447	  7447#	  7450	  7451	  7453	  7454	  7455	  7456	  7457	  7458	  7459	  7460	  7461
	  7462	  7462#	  7465	  7466	  7468	  7469	  7470	  7471	  7472	  7473	  7474	  7475	  7476	  7477
	  7477#	  7480	  7481	  7483	  7484	  7485	  7486	  7487	  7488	  7489	  7490	  7491	  7492	  7492#
	  7495	  7496	  7498	  7499	  7500	  7501	  7502	  7503	  7504	  7505	  7506	  7507	  7507#	  7510
	  7511	  7513	  7514	  7515	  7516	  7517	  7518	  7519	  7520	  7521	  7522	  7522#	  7525	  7526
	  7528	  7529	  7530	  7531	  7532	  7533	  7534	  7535	  7536	  7537	  7537#	  7540	  7541	  7543
	  7544	  7545	  7546	  7547	  7548	  7549	  7550	  7551	  7552	  7552#	  7555	  7556	  7558	  7559
	  7560	  7561	  7562	  7563	  7564	  7565	  7566	  7567	  7567#	  7570	  7571	  7573	  7574	  7575
	  7576	  7577	  7578	  7579	  7580	  7581	  7582	  7582#	  7585	  7586	  7588	  7589	  7590	  7591
	  7592	  7593	  7594	  7595	  7596	  7597	  7597#	  7600	  7601	  7603	  7604	  7605	  7606	  7607
	  7608	  7609	  7610	  7611	  7612	  7612#	  7615	  7616	  7618	  7619	  7620	  7621	  7622	  7623
	  7624	  7625	  7626	  7627	  7627#	  7630	  7631	  7633	  7634	  7635	  7636	  7637	  7638	  7639
	  7640	  7641	  7642	  7642#	  7645	  7646	  7648	  7649	  7650	  7651	  7652	  7653	  7654	  7655
	  7656	  7657	  7657#	  7660	  7661	  7663	  7664	  7665	  7666	  7667	  7668	  7669	  7670	  7671
	  7672	  7672#	  7675	  7676	  7678	  7679	  7680	  7681	  7682	  7683	  7684	  7685	  7686	  7687
	  7687#	  7690	  7691	  7693	  7694	  7695	  7696	  7697	  7698	  7699	  7700	  7701	  7702	  7702#
	  7705	  7706	  7708	  7709	  7710	  7711	  7712	  7713	  7714	  7715	  7716	  7717	  7717#	  7720
	  7721	  7723	  7724	  7725	  7726	  7727	  7728	  7729	  7730	  7731	  7732	  7732#	  7735	  7736 *** SEQ 0362
	  7738	  7739	  7740	  7741	  7742	  7743	  7744	  7745	  7746	  7747	  7747#	  7750	  7751	  7753
	  7754	  7755	  7756	  7757	  7758	  7759	  7760	  7761	  7762	  7762#	  7765	  7766	  7768	  7769
	  7770	  7771	  7772	  7773	  7774	  7775	  7776	  7777	  7777#	  7780	  7781	  7783	  7784	  7785
	  7786	  7787	  7788	  7789	  7790	  7791	  7792	  7792#	  7795	  7796	  7798	  7799	  7800	  7801
	  7802	  7803	  7804	  7805	  7806	  7807	  7807#	  7810	  7811	  7813	  7814	  7815	  7816	  7817
	  7818	  7819	  7820	  7821	  7822	  7822#	  7825	  7826	  7828	  7829	  7830	  7831	  7832	  7833
	  7834	  7835	  7836	  7837	  7837#	  7840	  7841	  7843	  7844	  7845	  7846	  7847	  7848	  7849
	  7850	  7851	  7852	  7852#	  7855	  7856	  7858	  7859	  7860	  7861	  7862	  7863	  7864	  7865
	  7866	  7867	  7867#	  7870	  7871	  7873	  7874	  7875	  7876	  7877	  7878	  7879	  7880	  7881
	  7882	  7882#	  7885	  7886	  7888	  7889	  7890	  7891	  7892	  7893	  7894	  7895	  7896	  7897
	  7897#	  7900	  7901	  7903	  7904	  7905	  7906	  7907	  7908	  7909	  7910	  7911	  7912	  7912#
	  7915	  7916	  7918	  7919	  7920	  7921	  7922	  7923	  7924	  7925	  7926	  7927	  7927#	  7930
	  7931	  7933	  7934	  7935	  7936	  7937	  7938	  7939	  7940	  7941	  7942	  7942#	  7945	  7946
	  7948	  7949	  7950	  7951	  7952	  7953	  7954	  7955	  7956	  7957	  7957#	  7960	  7961	  7963
	  7964	  7965	  7966	  7967	  7968	  7969	  7970	  7971	  7972	  7972#	  7975	  7976	  7978	  7979
	  7980	  7981	  7982	  7983	  7984	  7985	  7986	  7987	  7987#	  7990	  7991	  7993	  7994	  7995
	  7996	  7997	  7998	  7999	  8000	  8001	  8002	  8002#	  8005	  8006	  8008	  8009	  8010	  8011
	  8012	  8013	  8014	  8015	  8016	  8017	  8017#	  8020	  8021	  8023	  8024	  8025	  8026	  8027
	  8028	  8029	  8030	  8031	  8032	  8032#	  8035	  8036	  8038	  8039	  8040	  8041	  8042	  8043
	  8044	  8045	  8046	  8047	  8047#	  8050	  8051	  8053	  8054	  8055	  8056	  8057	  8058	  8059
	  8060	  8061	  8062	  8062#	  8065	  8066	  8068	  8069	  8070	  8071	  8072	  8073	  8074	  8075
	  8076	  8077	  8077#	  8080	  8081	  8083	  8084	  8085	  8086	  8087	  8088	  8089	  8090	  8091
	  8092	  8092#	  8095	  8096	  8098	  8099	  8100	  8101	  8102	  8103	  8104	  8105	  8106	  8107
	  8107#	  8110	  8111	  8113	  8114	  8115	  8116	  8117	  8118	  8119	  8120	  8121	  8122	  8122#
	  8125	  8126	  8128	  8129	  8130	  8131	  8132	  8133	  8134	  8135	  8136	  8137	  8137#	  8149#
	  8158	  8159	  8161	  8162	  8162#	  8164	  8165	  8167	  8168	  8168#	  8170	  8171	  8173	  8174
	  8174#	  8176	  8177	  8179	  8180	  8180#	  8182	  8183	  8185	  8186	  8186#
NEG1	  3593	  3648#
NEG1A	  3719	  3753#
NEG1B	  3820	  3854#
NEG1RB	  3822#	  3857	  3858
NEG1RT	  3721#	  3756	  3757
NEG2	  3615	  3621	  3635	  3647#
NEG2A	  3711	  3747#
NEG2B	  3814	  3848#
NEG2RB	  3817#	  3851	  3852
NEG2RT	  3714#	  3750	  3751
NEGAD	 11541#	 11541	 11543	 11935	 11937
NEGADX	 11545#	 11545	 11936
NEWTAB	  2393	  2733#
NEWTST	  2273	  2390#
NOPNT	   178#
NORMA	  3590	  3597#
NRAZRO	 10513	 10515	 10543#	 10691
NRNEG	 10467#	 10467	 10487	 10491	 10525	 10559	 10567	 10606
NRPOS	 10466#	 10466	 10476	 10484	 10517	 10530	 10558	 10571	 10575	 10586	 10601
NRRND	 10465#	 10465	 10472	 10494	 10518	 10532	 10557	 10564	 10573	 10588	 10603
NRT1	  3133	  8662	 10340	 10461#	 11223
NRT12C	 10531	 10533	 10540#	 10595	 10599
NRT13C	 10521#	 10528	 10604	 10609
NRT14C	 10535#	 10591
NRT1I	 10546#	 10778	 10788	 10808	 10813	 11000
NRT1NR	 10498	 10506#                                                                                                *** SEQ 0363
NRT1X	 10474	 10481	 10486#
NRT1Y	 10494#
NRT1Z	 10495	 10500	 10502	 10504	 10511#
NRT1ZX	 10519	 10525#
NRT2	  3134	 10540	 10550#
NRT24C	 10591#
NRT2NR	 10576	 10583#
NRT2X	 10574	 10577	 10579	 10581	 10586#
NRT2XX	 10611#
NRT2Y	 10587	 10589	 10593#
NRT2Z	 10601#
NRT3	  3135	 10521	 10612#
NRT3A	 10618	 10626#
NRT4	  3136	 10535	 10629#
NRT4A	 10637	 10641#
NRT4B	 10646	 10652#
NRT4D	 10640#
NRT5	  3137	 10649	 10659#
NRT6	  3138	 10665#
NXMU	   442#
OFFSET	   161#	  2582	 12061	 12169
ONEPRT	    39#
ONETIM	  1801#	  1801	  1809
OPRSEL	   192#
OPTIME	   610#
OVTA	  3617	  3623	  3627#	  3637
OVTM1	  3529	  3533	  3617#
OVTM2	  3612	  3619#
P	   235	   236	   237	   238	   442#	   530	  1880	  1881	  1882	  1883	  1884	  1990	  1991	  1992
	  1993	  1994	  1995	  2021	  2022	  2023	  2047	  2056	  2057	  2058	  2059	  2060	  2061	  2062
	  2063	  2077	  2080	  2082	  2147	  2172	  2279	  2294	  2420	  2443	  2446	  2450	  2454	  2459
	  2463	  2467	  2472	  2478	  2481	  2485	  2490	  2495	  2499	  2503	  2508	  2511	  2517	  2525
	  2533	  2541	  2549	  2554	  2562	  2568	  2572	  2578	  2588	  2618	  3469#	  3515	  3524	  3593
	  3615	  3621	  3627	  3631	  3635	  3641	  3653	  3684#	  3708	  3787#	  3812	  3972#	  8244	  8264
	  8267	  8273	  8278	  8279	  8285	  8288	  8290	  8295	  8298	  8299	  8306	  8310	  8312	  8316
	  8320	  8326	  8335	  8343	  8349	  8357	  8366	  8383	  8384	  8392	  8394	  8406	  8410	  8413
	  8419	  8425	  8429	  8432	  8439	  8449	  8471	  8483	  8490	  8503	  8507	  8519	  8530	  8538
	  8562	  8566	  8570	  8578	  8592	  8598	  8602	  8634	  8640	  8646	  8656	  8671	  8673	  8680
	  8682	  8728	  8736	  8740	  8747	  8761	  8764	  8777	  8781	  8813	  8823	  8837	  8898	  8911
	  8927	  8930	  8938	  8941	  8944	  8950	  8952	  8955	  8958	  8961	  8964	  8967	  8970	  8973
	  8985	  8988	  8991	  8994	  8997	  9003	  9011	  9023	  9025	  9029	  9034	  9036	  9040	  9057
	  9105	  9110	  9114	  9116	  9118	  9120	  9123	  9125	  9131	  9133	  9137	  9139	  9144	  9147
	  9156	  9302	  9303	  9304	  9305	  9306	  9308	  9328	  9334	  9352	  9353	  9355	  9356	  9357
	  9358	  9359	  9360	  9385	  9387	  9391	  9392	  9394	  9406	  9532	  9594	  9625	  9629	  9632
	  9687	  9692	  9694	  9708	  9742	  9782	  9812	  9874	  9877	  9878	  9880	  9882	  9883	  9884
	  9885	  9907	  9908	  9914	  9945	  9947	  9963	  9996	  9997	 10000	 10001	 10006	 10008	 10009
	 10011	 10018	 10019	 10024	 10026	 10028	 10036	 10038	 10060	 10063	 10089	 10193	 10220	 10260
	 10271	 10291	 10308	 10317	 10344	 10352	 10368	 10407	 10411	 10416	 10425	 10441	 10463	 10523
	 10538	 10541	 10548	 10633	 10657	 10661	 10673	 10724	 10794	 10798	 10821	 10841	 10852	 10910
	 10917	 10952	 10967	 10988	 10995	 11005	 11058	 11089	 11104	 11140	 11152	 11226	 11236	 11245
	 11249	 11278	 11302	 11314	 11325	 11352	 11374	 11378	 11388	 11397	 11421	 11423	 11425	 11427
	 11429	 11449	 11467	 11528	 11530	 11532	 11534	 11538	 11558	 11596	 11598	 11600	 11605	 11613
	 11615	 11617	 11619	 11621	 11630	 11642	 11645	 11647	 11649	 11655	 11665	 11688	 11702	 11712 *** SEQ 0364
	 11727	 11729	 11730	 11731	 11737	 11752	 11998	 12010	 12023	 12041	 12081	 12087	 12093	 12121
	 12146	 12150	 12153	 12154	 12160	 12179	 12201	 12202	 12203	 12206	 12207	 12208	 12219	 12220
	 12224	 12225	 12230	 12231	 12232
PAG	   442#
PAGDLY	  4068#	 11967
PALERS	   184#	  1455
PARCLR	   442#
PARDIS	   442#
PAREA1	   105#	   486
PAREA2	   106#	   487
PAREA3	   107#	   484
PAREA4	   108#	   485
PAREA5	   109#	   497
PAREA6	   110#	   498
PAREA7	   497#
PAREA8	   498#
PARENB	   442#	   876
PARU	   442#
PASCNT	   512#	  1391	  1397
PATCH	 12664#
PC	   154#	  1341	  1816	  1919	  2078	  2103	  2593	  3968#	  8259	  8263	  8287	  8289	  8342	  8348
	  8393	  8577	  8734	  9000	  9005	  9014	  9016	  9018	  9020	  9046	  9049	  9052	  9054	  9254
	  9255	  9276	  9380	  9381	  9384	  9424	  9735	  9953	  9956	  9998	 10258	 10269	 10301	 10305
	 10639	 10640	 10770	 10772	 10955	 11174	 11261	 11284	 11356	 11413	 12138	 12190
PCCHNG	  3998#	  4135	  4139	  4144	  4148	  4185	  4189	  4207	  4212	  4772	  4809	  4821	  4826	  4833
	  4838	  4843	  4848	  4877	  4882	  4887	  4892	  4897	  4972	  4977	  4982	  4987	  4992	  4997
	  5002	  5007	  5012	  5017	  5022	  5027	  5032	  5037	  5042	  5047	  5064	  5072	  5080	  5088
	  5096	  5104	  5112	  5120	  5128	  5136	  5144	  5152	  5160	  5168	  5176	  5184	  5192	  5200
	  5208	  5216	  5224	  5232	  5240	  5248	  5256	  5264	  5272	  5280	  5288	  5296	  5304	  5312
	  5320	  5328	  5336	  5344	  5352	  5360	  5368	  5376	  5384	  5392	  5400	  5408	  5416	  5424
	  5432	  5440	  7216	  7231	  7246	  7261	  7276	  7291	  7336	  7351	  7366	  7381	  7396	  7411
	  7456	  7471	  7486	  7501	  7516	  7531	  7576	  7591	  7606	  7621	  7636	  7651	  7696	  7711
	  7726	  7741	  7756	  7771	  7816	  7831	  7846	  7861	  7876	  7891	  7936	  7951	  7966	  7981
	  7996	  8011	  8056	  8071	  8086	  8101	  8116	  8131	  8165	  8171	  8177	  8183	  8199	  8203
	  8207	  8211	  9795	  9797	  9819	  9823	  9991	 10021
PCCLK	  3983#	  4811	  4861	  4884	  4893	  7250	  7265	  7370	  7385	  7490	  7505	  7610	  7625	  7730
	  7745	  7850	  7865	  7970	  7985	  8090	  8105	  8271	  8283	  8323	  8325	  8408	  9383	 10146
	 11348
PCINCL	  4884	  4893	  8355#	  8356
PCP1	  9000#	  9385
PCP1FF	  8338	  8356	  8407	  8643	  9001#	  9001	  9141	  9252	  9959	 10943	 10971	 11336	 12141	 12193
PCP1G	  9000#	  9000	  9002	  9255	 11382	 11416	 12091	 12181
PCSAV	  1216#	  1216	  1346#	  1346
PDISF	   607#
PDLOVU	   442#
PDOVTP	   442#
PERIOD	   637#
PFF1	  9950#	  9950	 10224	 11328	 11337	 11349
PFSTRT	   464#
PFX1	 10225	 10286#
PGFTRP	   442#
PGMEND	    37#	 12670
PGMNAM	   489	   843#                                                                                                *** SEQ 0365
PI	   876	   879	   881	  1241	  1408	  1409
PICHN1	   442#	   881
PICHN2	   442#
PICHN3	   442#
PICHN4	   442#
PICHN5	   442#
PICHN6	   442#
PICHN7	   442#
PICHNA	   442#	   876
PICLR	   442#	   879
PICYC	  9291	  9739#	  9739
PIOFF	   442#	   879	  1409
PION	   442#	   876	   881
PIRDYS	  9293	  9904#	  9904
PIT1	  9962	  9965#
PIT1A	  9905	  9962#
PLIST	   676#	   676
PLISTE	   676	   678#	   762
PLISTS	   677#
PLUS	   642#
PNTCTL	  1796#	  1796	  1893	  2048	  2065	  2083
PNTENB	   606#
PNTEXT	   485#
PNTFLG	   605#	  1761
PNTIND	  2124	  2174#
PNTINH	   608#
PNTINS	  2108	  2248#
PNTLPT	   179#	  1950	  2153	  2632
PNTNAM	   484#
PNTRP	   442#
PNTSIM	  1251	  1306	  1562#	  1569
PNTSPC	   609#	  1575	  1916	  2102	  2113	  2126	  2127	  2129	  2600
PNTTOT	  1465	  1723#	  1743	  1855
POPS	  4869	  8345#	  8346
PSCTR1	  1392#	  1392	  1398
PSE	  3998#	  3998	  3999	  4000	  9986	 10122	 10196
PSINFT	  9295	  9913#	  9913	 11263	 12108	 12137	 12140	 12143	 12162	 12164	 12189	 12192	 12194
PTINDX	  2293#	  2293	  2418	  2606
PTINS1	  2279#
PTRP	   442#
PUSH1	  4865	  8328#	  8329
PUSH2	  4866	  8340#	  8341
PUSHD	  4853	  8977#
PUSHES	  4860	  8331#	  8332
PUSHJ1	  4861	  8337#	  8338
PVPAGI	   703#
PWFCLR	   442#
Q	    53#	  1423	  3470#	  3513	  3516	  3517	  3522	  3525	  3526	  3527	  3528	  3532	  3544	  3545
	  3547	  3554	  3565	  3567	  3574	  3627	  3628	  3630	  3641	  3685#	  3705	  3709	  3713	  3714
	  3715	  3718	  3720	  3725	  3727	  3744	  3748	  3754	  3788#	  3809	  3813	  3816	  3817	  3818
	  3821	  3822	  3832	  3834	  3844	  3849	  3855	  3877#	  3885	  3895	  3928#	  3941
QUEST	   648#
R	  3794#	  3842	  3843	  3845                                                                                 *** SEQ 0366
RA	    45#	   796	  1048	  1088	  1089	  1118	  1127	  1130	  1133	  1136	  1147	  1151	  1153	  1154
	  1156	  1206	  1207	  1208	  1209	  1256	  1257	  1258	  1259	  1302	  1303	  1304	  1305	  1314
	  1315	  1316	  1466	  1469	  1470	  1473	  1474	  1477	  1478	  1481	  1490	  1496	  1497	  1503
	  1511	  1512	  1513	  1514	  1515	  1516	  1518	  1519	  1520	  1521	  1522	  1523	  1525	  1526
	  1527	  1528	  1529	  1530	  1532	  1533	  1534	  1535	  1536	  1537	  1564	  1565	  1566	  1567
	  1714
RADIX	   651#
RADLSC	   653#
RADLSP	   652#
RANBAS	    74#	   788
RANDBS	   486#	   786	   795	   796	  1386	  1737
RANDOM	  1145	  1195	  1462#	  1482	  1488	  1509
RANNOV	  1024	  1058	  1487#	  1492	  1497	  1499	  1504
RANORM	  1105	  1193	  1508#	  1538
RDRST	 11988	 11989	 12048#	 12048	 12123
REENTR	   466#
RELIAB	   186#	   824
RENTR1	    96	  1854#
REPT	   442#
REPT1	   442#
REPTU	   564#
REQSET	   442#
RESRT1	    95	   541#
RESRT2	   542#
RESULT	  1250	  1300	  1574#	  1597
RET0	  3605	  3626#
RETURN	   473#
RSLTS1	  1581#
RSTART	   175#	  1464	  1742
RTIME	   805#	   805	   825	   903	   919	   941	   954	   974	   997	  1012
RTP	   646#	  2140
RUN	  9042#	  9042	  9256	 11269#	 11269
RUNFLG	   513#
RUNTIM	  1382	  1699#	  1703	  1728
S	   148#	  3962#	  8272	  8284	  8305	  8424	  8428	  8467	  8512	  8581	  8583	  8645	  8649	  8662
	  8707	  8735	  8760	  8769	  8809	  8830	  8857	  9056	  9257	  9307	  9313	  9329	  9741	  9743
	  9792	  9860	  9868	  9871	  9872	  9876	  9906	  9962	  9974	  9977	 10010	 10014	 10023	 10027
	 10033	 10046	 10048	 10050	 10078	 10080	 10091	 10092	 10095	 10108	 10128	 10130	 10205	 10209
	 10237	 10240	 10251	 10259	 10270	 10290	 10299	 10322	 10330	 10340	 10348	 10356	 10387	 10392
	 10398	 10403	 10405	 10410	 10422	 10432	 10435	 10445	 10454	 10521	 10535	 10540	 10547	 10627
	 10644	 10649	 10652	 10663	 10666	 10679	 10696	 10701	 10717	 10723	 10726	 10748	 10756	 10762
	 10775	 10784	 10793	 10797	 10840	 10851	 10855	 10873	 10878	 10891	 10901	 10911	 10921	 10927
	 10933	 10939	 10951	 10954	 10958	 10962	 10966	 10974	 10992	 11004	 11013	 11025	 11039	 11044
	 11061	 11083	 11085	 11112	 11120	 11159	 11189	 11194	 11197	 11205	 11208	 11218	 11223	 11234
	 11240	 11247	 11277	 11294	 11301	 11309	 11313	 11317	 11324	 11329	 11332	 11341	 11346	 11351
	 11973	 11975	 11976	 11978	 11993	 11994	 11995	 12002	 12003	 12005	 12008	 12028	 12029	 12030
	 12032	 12039	 12045	 12050	 12054	 12055	 12063	 12105	 12115	 12116	 12201	 12207	 12219	 12225
	 12226	 12227	 12231
SA	  1821	  1982	  8496	  8514	  8534	  8732	  8783	  8805	  9374	  9609#	  9609	  9624	  9626	  9628
	  9631	 10366	 10634	 10667	 10787	 11020	 11086	 11434	 11450	 11631
SAADD	  4053#	  8485	  8493	  8522	  8533	  8653	  8659	  8685	  8717	  8724	  8749	  8768	  8776	  8784
	  8816	  8835	  8933	  9128	  9620	  9817	 10320	 10419	 10449	 10522	 10536	 10613	 10662	 10703
	 10716	 10722	 10747	 10755	 10783	 10844	 10916	 11021	 11068	 11193	 11211	 11721                 *** SEQ 0367
SAAREX	  4053#	  8653	  8685	  8746	  8749	  8768	  8776	  8793	  8795	  8816	  8835	  8947	  9145	  9618
	 10419	 11030	 11033
SAARPO	  4053#	  8536	  8933	  9113	  9616
SAC0	  1859#	  1859	  1864
SAC2	  3998#	  4135	  4139	  4144	  4148	  4185	  4189	  4294	  4354	  4412	  4469	  4658	  4664	  4676
	  4692	  4699	  4713	  4720	  4727	  4741	  4782	  4786	  4790	 10140	 10192	 10235
SACBR	  3998#	  4001	  4148	  4233	  4804	  4854	  4872	  4892	  9785
SACBRF	  9279	  9747	  9786	 10144	 10426	 10653#	 10653	 10872	 10883	 10932	 11710
SACINH	  3998#	  4001	  4159	  4164	  4169	  4174	  4200	  4207	  4212	  4268	  4272	  4300	  4324	  4360
	  4384	  4418	  4442	  4476	  4500	  4537	  4561	  4585	  4609	  4645	  4669	  4705	  4733	  4797
	  4833	  4838	  4843	  4882	  4926	  4950	  4972	  4977	  4982	  4987	  4992	  4997	  5002	  5007
	  5012	  5017	  5022	  5027	  5032	  5037	  5042	  5047	  5511	  5567	  5623	  5679	  5735	  5791
	  5847	  5903	  5959	  6015	  6071	  6127	  6183	  6239	  6295	  6351	  6417	  6465	  6513	  6561
	  6609	  6657	  6705	  6753	  6801	  6849	  6897	  6945	  6993	  7041	  7089	  7137	  7186	  7201
	  7216	  7231	  7246	  7261	  7276	  7291	  7306	  7321	  7336	  7351	  7366	  7381	  7396	  7411
	  8158	  8164	  8170	  8176	  8182	  8190	  8199	  8203	  8207	  8211	  8216	  8220	  8276	 10118
	 10125	 10133	 10350	 10545
SADR1	    94#	   462
SADR10	   102#	   478
SADR11	   103#	   479
SADR2	    95#	   464
SADR3	    96#	   466
SADR5	    97#	   527
SADR6	    98#	   528
SADR7	    99#	   475
SADR8	   100#	   476
SADR9	   101#	   477
SAEQV	  4053#	  8797	  8804	  8947	  9622	 10987	 11037	 11038
SAFEEN	  4053#	  8795	  9602	 10844	 10894	 10987	 11033	 11070	 11188	 11193	 11209	 11239
SAIAC0	  4001#	  4543	  4567	  4591	  4615	  5129	  5137	  5145	  5153	  5161	  5169	  5177	  5185	  5257
	  5265	  5273	  5281	  5289	  5297	  5305	  5313	  5385	  5393	  5401	  5409	  5417	  5425	  5433
	  5441	  6426	  6474	  6522	  6570	  6618	  6666	  6714	  6762	  6810	  6858	  6906	  6954	  7002
	  7050	  7098	  7146	  9783	 10113	 10114	 10116
SAM100	  4051#	  9130
SAM110	  4042#	  8518
SAMAGN	  9614	  9640#
SAMI16	  4044#	  8759	 11196
SAMI22	  4037#	  8908
SAMI32	  4046#	 10397	 10931
SAMI33	  4045#	  8717	 10396	 10629	 10662
SAMI4	  4047#	  9119
SAMI42	  4043#	  9107	 10970
SAMI43	  4049#	  8829	 11220
SAMSIZ	  4053#	  8533	  8933	  9607
SAP110	  4041#	  8493
SAP220	  4040#	  8485
SAPL1	  4053#	  8489	  8502	  8522	  8533	  8655	  8659	  8688	  8724	  8751	  8768	  8776	  8784	  8839
	  8933	  9128	  9627	 10320	 10421	 10449	 10536	 10616	 10662	 10722	 10755	 10783	 10844	 10916
	 11021	 11068	 11193	 11211
SAPL10	  4048#	  8724
SAPL43	  4050#	 10703
SAPL44	  4038#	  8537
SASCMI	  4053#	  8489	  8502	  8522	  8655	  8661	  8685	  8696	  8706	  8709	  8719	  8724	  8768	  8776 *** SEQ 0368
	  8784	  8797	  8835	  8846	  8947	  9128	  9604	 10321	 10429	 10431	 10451	 10536	 10616	 10662
	 10722	 10755	 10766	 10783	 11021	 11037
SASCPL	  4053#	  8488	  8501	  8517	  8527	  8653	  8655	  8659	  8661	  8696	  8709	  8717	  8719	  8749
	  8797	  8816	  8824	  8843	  8846	  8947	  9600	 10342	 10419	 10431	 10449	 10451	 10522	 10615
	 10677	 10703	 10716	 10727	 10747	 10764	 10766	 10916	 11037
SAVAC	  1332	  1333	  1347	  1415	  1416	  1427	  1692#
SAVCNT	  1253#	  1253	  1270
SAZERO	  4039#	  8522	  8659	  8784	  8804	  9128	 10320	 10449	 10536	 10616	 10722	 10755	 10783	 10844
	 10916	 10987	 11021	 11038	 11068	 11193	 11211
SBINIT	   248	   472#
SC	   156#	  1818	  1972	  3970#	  8500	  8521	  8549	  8557	  8731	  8791	  9129	  9300	  9373	  9601
	  9605	 10436	 10767	 10824	 10825	 10826	 10835	 10836	 10859	 10860	 10865	 10866	 11027	 11048
	 11049	 11050	 11056	 11057	 11127	 11137	 11138	 11153	 11609	 11611
SCAD	  9306	  9598#
SCAD1	  9621	  9626#
SCAD2	  9623	  9631#
SCAD3	  9620#	  9638
SCAD4	  9619	  9634#
SCADEN	  9354#	  9354	  9375	 11372	 11593	 11607	 11638	 11654	 11682
SCADFF	  9439	  9542	  9598	 10694	 11147	 11683#	 11683	 11715
SCAREN	  4054#	  8485	  8653	 11616
SCCLK	  9372#	  9372	 11608	 11629
SCE	  3998#	  4066	  4207	  4212	  4268	  4272	  4299	  4305	  4323	  4329	  4360	  4366	  4384	  4390
	  4417	  4423	  4441	  4447	  4476	  4482	  4500	  4506	  4537	  4561	  4585	  4609	  4645	  4651
	  4669	  4675	  4705	  4712	  4733	  4740	  4848	  4872	  4882	  4892	  5511	  5525	  5567	  5581
	  5623	  5637	  5679	  5693	  5735	  5749	  5791	  5805	  5847	  5861	  5903	  5917	  5959	  5973
	  6015	  6029	  6071	  6085	  6127	  6141	  6183	  6197	  6239	  6253	  6295	  6309	  6351	  6365
	  6513	  6561	  6609	  6657	  6705	  6753	  6897	  6945	  6993	  7041	  7089	  7137	  8382	  9811
	  9822	  9827	  9831	  9991	 10004	 10123	 10197	 10307	 10316	 10632	 12075	 12110
SCENAC	  9826#	  9826	  9830	  9840	  9844
SCMIX	  9373#	  9373	 11620
SCMIX1	 11619	 11631#
SCMIX3	 11613	 11628#	 11635
SCMIX4	 11615	 11627#
SCMIX5	 11617	 11622#
SCMIXR	  9360	 11607#
SCOPE	   565#
SCP1IN	  4029#	  9398	  9399	 11610
SCP1S	  4028#	  9397	 10949
SCSAEN	  4054#	  8362	  8434	  8498	  8517	  8518	  8548	  8556	  8727	  8792	 10321	 10329	 10400	 10419
	 10443	 10461	 10624	 10683	 10754	 10786	 10916	 10950	 10987	 11028	 11076	 11618
SCSCP1	  4054#	 10414	 10551	 10727	 11162	 11612
SCSHRT	  4054#	 11126	 11614
SCT1	  3124	 10797	 10840	 10901	 11044	 11085	 11126#
SCT2	  1902	  3125	  8649	 10410	 10445	 10793	 10911	 10951	 11083	 11161#
SCT2R	 11164	 11177#
SCTC	 11128	 11137#	 11170	 11175	 11183
SCTC1	 11141	 11150	 11153#
SCTC2	 11154	 11184#
SCTC3	 11191	 11195	 11199#
SCTC4	 11200	 11203	 11206	 11212#
SCTC5	  8367	  8368	  8370	  8560	 10297	 11157#
SECFLG	  1082#	  1082	  1123	  1323                                                                                 *** SEQ 0369
SENSE1	   442#
SENSE2	   442#
SENSE3	   442#
SENSE4	   442#
SENSE5	   442#
SENSE6	   442#
SENTRY	   162	   769	  1340	  1796#
SEQ	  2073#	  2073	  2090
SEQPNT	    78#	  2085
SETLST	  2419	  2426#	  2612
SFSRT1	    94	   773#
SFSTRT	   462#	  1744
SGNAC1	  3482#	  3545	  3547	  3565
SGNAC2	  3483#	  3545	  3554	  3567	  3574
SHFT1	  4759	  4763	  4767	  4783	  4787	  4791	  8492#	  8493
SHFT1A	  8497	  8500#
SHFT2	  3562	  3644#
SHFT2A	  8515	  8521#
SHFT2B	  8521	  8525#
SHFT2C	  8523	  8528#
SHFT2E	  8518#	  8531
SHLONG	  8495#	  8495	  8499	  8526	  8528
SIMASB	    40#	  1835	  1854	  1907	  2066	  2199	  2201	  2281	  2381	  2753	  3035	  3186	  3409	  4071
	  4105	  8140	  8224	  8609	  8861	  8888	  9059	  9157	  9766	  9770	  9772	  9889	  9916	  9967
	 10065	 10070	 10272	 10278	 11287
SIMBRK	  1803	  1806	  1833	  9329#
SIMCON	  2073#
SIMDDT	   769#
SIMGO	  1830	  9249#
SIMIT	  1158	  1197	  1204#	  1211	  1284	  1322
SIMMT	    68	  1353#
SIMNST	    67	  1331#	  1354
SIMPN1	  1804	  1805	  1831#
SINDEX	  8365	  8416	  8448	  8550	  8559	  8693	  8726	  8811	 11079	 11482#	 11482	 11503	 11514	 11540
	 11552	 11560	 11573	 11643
SKIPS	  5132	  5140	  5148	  5156	  5164	  5172	  5180	  5188	  5260	  5268	  5276	  5284	  5292	  5300
	  5308	  5316	  5388	  5396	  5404	  5412	  5420	  5428	  5436	  5444	  8275#	  8276	  9781	 10177
SKPFD	  4972	  4977	  4982	  4987	  4992	  4997	  5002	  5007	  5012	  5017	  5022	  5027	  5032	  5037
	  5042	  5047	  5064	  5072	  5080	  5088	  5096	  5104	  5112	  5120	  5128	  5136	  5144	  5152
	  5160	  5168	  5176	  5184	  5256	  5264	  5272	  5280	  5288	  5296	  5304	  5312	  5320	  5328
	  5336	  5344	  5352	  5360	  5368	  5376	  5384	  5392	  5400	  5408	  5416	  5424	  5432	  5440
	  8917#
SLASH	   649#
SLOW	    89#	   820	   835
SMLUSR	   442#
SNGL2	  1339	  2052#	  2052	  2064
SNGLIN	  1338	  2050#	  2050
SNTRP	   442#
SPACE	   638#	  2014	  2106
SRINST	  4185	  4189	  4751	  8923#
SRT1	  3126	  8512	 11076#
SRTAB	 11078	 11091#
SRTDDT	    98	   468#                                                                                                *** SEQ 0370
SSHFT0	  4759	  4763	  4767	  8484#	  8485
SSHFT2	  4760	  4764	  4768	  8509#	  8510
ST1	  3103	  8272	  8284	  8305	  8428	  9056	 10128	 10144#	 10348	 10547	 10644	 11351	 12270
ST1A	 10138#	 10199
ST1B	 10139	 10201#
ST1C	 10171	 10281#
ST1D	 10187#	 10284
ST2	  3104	 10207#
ST2A	 10214	 10222#
ST2B	 10230	 10262#
ST2C	 10232	 10279#
ST3	  3105	 10239#
ST3A	 10142	 10240#
ST4	  3106	 10209	 10242#
ST4A	 10236	 10251#
ST5	  3107	 10253#	 10435	 10666	 10966
ST5A	 10141	 10259#	 10309	 11087
STAB	  1909	  3090#
STAB1	  1997	  3217#
START	   456	   778#
START1	   475#
START2	   476#
START3	   477#
START4	   478#
START5	   479#
STARTA	   471	   789	   796#
STARTB	   836	   857#
STARTC	   861	   879#
STATE	  1885	  1895	  1901	  9313#	  9313	  9353	 11369	 11483
STATSV	  1886#	  1886	  1888
STINAC	 10201	 10210#	 10210	 10212#	 10212	 11965	 12098	 12113	 12132	 12223
STINH	  8743	  8924	  9035	  9109	  9122	  9138	  9728	 10127#	 10127	 10131#	 10131
STORE	  3998#	  4159	  4164	  4169	  4174	  4200	  4797	  4854	  8216	  8220	  9795	  9797	  9819	  9991
	 10051	 10081	 10104	 10123	 10197
STRP	   442#
SUBLNK	   210#	   472
SVAB	  1829#	  1829	  1930	  1932	  2000	  2002	  2171
SVAB1	  2413#	  2413	  2550	  2556
SVAB2	  2423#	  2423	  2570
SVAC	  2117#	  2117	  2512
SVAD	  1814#	  1814	  1940	  1942	  2163
SVADX	  1824#	  1824	  2005	  2007	  2159
SVAR	  1811#	  1811	  1945	  1947	  2158
SVARX	  1826#	  1826	  2010	  2012	  2168
SVBR	  1813#	  1813	  1963	  1965	  2162
SVE0	  1425#	  1425	  1429
SVE1	  1426#	  1426	  1430
SVFE	  1827#	  1827	  1978	  1980	  2169
SVFM	  1825#	  1825	  1958	  1960	  2160
SVMA	  1817#	  1817	  1925	  1927	  2166
SVMB	  1815#	  1815	  1935	  1937	  2164
SVMQ	  1812#	  1812	  1968	  1970	  2161
SVPC	  1816#	  1816	  1920	  1922	  2165                                                                         *** SEQ 0371
SVPC1	  2104#	  2104	  2592
SVSA	  1828#	  1828	  1983	  1985	  2170
SVSC	  1818#	  1818	  1973	  1975	  2167
SWITCH	  1872#
SWTEXR	   487#
SX1	  1802	  1811#
SYSEXR	   460#
T	   144#	  1881	  1885	  1886	  1888	  1891	  1895	  1896	  1901	  1902	  1909	  1993	  2060	  2145
	  2146	  2153	  2250	  2251	  2252	  2253	  2284	  2285	  2286	  2288	  2289	  2290	  2291	  2296
	  2297	  2298	  2301	  2302	  2303	  2305	  2306	  2309	  2310	  2311	  2312	  2314	  2315	  2317
	  2318	  2319	  2322	  2324	  2325	  2326	  2329	  2330	  2331	  2334	  2335	  2336	  2338	  2339
	  2340	  2343	  2344	  2346	  2347	  2348	  2349	  2354	  2355	  2357	  2358	  2359	  2360	  2365
	  2367	  2369	  2370	  2372	  2373	  2374	  2377	  2378	  2390	  2391	  2393	  2394	  3958#	  8241
	  8243	  8253	  8271	  8283	  8303	  8313	  8314	  8315	  8323	  8325	  8361	  8376	  8377	  8379
	  8408	  8411	  8418	  8423	  8436	  8437	  8442	  8443	  8446	  8452	  8463	  8469	  8470	  8476
	  8479	  8506	  8535	  8543	  8554	  8561	  8565	  8590	  8637	  8639	  8668	  8678	  8679	  8687
	  8700	  8701	  8711	  8817	  8842	  8845	  8848	  8855	  9022	  9027	  9028	  9033	  9037	  9038
	  9104	  9108	  9314	  9317	  9340	  9341	  9349	  9350	  9378	  9379	  9383	  9388	  9390	  9403
	  9719	  9721	  9748	  9753	  9798	  9808	  9810	  9835	  9839	  9873	  9910	  9912	  9946	  9973
	  9976	  9987	  9989	 10013	 10015	 10030	 10045	 10055	 10056	 10084	 10085	 10096	 10146	 10150
	 10152	 10154	 10156	 10158	 10160	 10164	 10168	 10176	 10178	 10180	 10182	 10184	 10186	 10262
	 10263	 10283	 10295	 10311	 10318	 10325	 10327	 10328	 10333	 10343	 10354	 10355	 10358	 10362
	 10375	 10376	 10382	 10386	 10389	 10390	 10394	 10401	 10409	 10417	 10427	 10439	 10444	 10452
	 10453	 10462	 10506	 10543	 10550	 10555	 10583	 10619	 10623	 10626	 10647	 10655	 10656	 10671
	 10676	 10684	 10690	 10699	 10715	 10721	 10728	 10750	 10758	 10774	 10789	 10803	 10812	 10820
	 10829	 10838	 10846	 10850	 10853	 10858	 10870	 10875	 10882	 10889	 10893	 10897	 10904	 10909
	 10914	 10923	 10930	 10935	 10941	 10961	 10964	 10976	 10984	 10986	 10999	 11002	 11010	 11015
	 11029	 11045	 11047	 11051	 11054	 11059	 11066	 11067	 11073	 11088	 11106	 11109	 11114	 11117
	 11122	 11129	 11133	 11145	 11157	 11165	 11177	 11180	 11216	 11222	 11228	 11246	 11290	 11291
	 11296	 11308	 11311	 11316	 11319	 11327	 11331	 11334	 11339	 11344	 11348	 11364	 11400	 11403
	 11405	 11407	 11409	 11411	 11412	 11414	 11415	 11417	 11424	 11426	 11428	 11430	 11527	 11529
	 11531	 11533	 11535	 11638	 11639	 11641	 11644	 11646	 11648	 11654	 11679	 11680	 11681	 11690
	 11692	 11693	 11694	 11696	 11698	 11700	 11741	 11745	 11746
T.	  2362	  2992#
T1	   145#	  1882	  1906	  1909	  1911	  1992	  1997	  2059	  2252	  2254	  2256	  2258	  2260	  2262
	  2264	  2266	  2268	  2270	  2272	  2274	  2276	  2308	  3959#	  8256	  8257	  8259	  8262	  8268
	  8269	  8270	  8280	  8281	  8282	  8300	  8301	  8302	  8332	  8333	  8346	  8347	  8364	  8365
	  8381	  8382	  8447	  8448	  8455	  8456	  8464	  8465	  8595	  8596	  8686	  8694	  8695	  8750
	  8772	  8783	  8785	  8786	  8810	  8811	  8838	  8858	  9005	  9006	  9007	  9009	  9045	  9047
	  9050	  9051	  9052	  9151	  9152	  9337	  9338	  9339	  9344	  9346	  9347	  9348	  9363	  9365
	  9374	  9377	  9438	  9441	  9442	  9444	  9447	  9452	  9454	  9455	  9468	  9470	  9471	  9473
	  9483	  9484	  9485	  9494	  9496	  9497	  9498	  9499	  9501	  9503	  9504	  9507	  9508	  9509
	  9512	  9513	  9515	  9517	  9518	  9519	  9523	  9525	  9527	  9529	  9534	  9535	  9539	  9540
	  9541	  9544	  9546	  9548	  9549	  9550	  9551	  9561	  9569	  9573	  9578	  9580	  9583	  9584
	  9586	  9588	  9590	  9591	  9593	  9599	  9601	  9603	  9605	  9608	  9609	  9610	  9614	  9617
	  9624	  9626	  9631	  9637	  9688	  9693	  9698	  9702	  9707	  9717	  9718	  9722	  9723	  9724
	  9726	  9775	  9784	  9794	  9795	  9797	  9801	  9806	  9809	  9811	  9813	  9818	  9819	  9822
	  9823	  9827	  9829	  9831	  9833	  9836	  9838	  9842	  9846	  9848	  9849	  9851	  9852	  9854
	  9856	  9858	  9867	  9869	  9870	  9952	  9954	  9955	  9956	  9957	  9983	  9984	  9986	  9991
	 10004	 10020	 10040	 10041	 10043	 10047	 10049	 10051	 10058	 10074	 10075	 10076	 10077	 10084
	 10086	 10087	 10088	 10099	 10100	 10101	 10112	 10117	 10119	 10120	 10140	 10147	 10148	 10149
	 10151	 10153	 10155	 10157	 10159	 10161	 10165	 10169	 10170	 10172	 10173	 10174	 10175	 10177
	 10179	 10181	 10183	 10185	 10191	 10192	 10194	 10195	 10196	 10197	 10207	 10221	 10235	 10244 *** SEQ 0372
	 10245	 10246	 10248	 10249	 10281	 10282	 10302	 10303	 10304	 10306	 10307	 10315	 10316	 10334
	 10336	 10337	 10349	 10350	 10378	 10379	 10380	 10436	 10437	 10631	 10632	 10634	 10635	 10636
	 10667	 10668	 10669	 10730	 10731	 10734	 10751	 10753	 10767	 10768	 10800	 10801	 10802	 10847
	 10848	 10946	 10947	 10979	 10980	 10981	 10982	 11011	 11012	 11020	 11022	 11023	 11063	 11064
	 11065	 11077	 11078	 11115	 11116	 11130	 11131	 11132	 11161	 11168	 11169	 11171	 11172	 11173
	 11178	 11179	 11184	 11185	 11190	 11199	 11213	 11214	 11215	 11219	 11244	 11297	 11298	 11306
	 11307	 11321	 11322	 11355	 11357	 11358	 11367	 11368	 11371	 11376	 11377	 11380	 11382	 11384
	 11386	 11387	 11392	 11393	 11394	 11395	 11399	 11404	 11406	 11408	 11410	 11413	 11416	 11418
	 11437	 11442	 11444	 11446	 11454	 11465	 11479	 11496	 11506	 11511	 11517	 11526	 11537	 11547
	 11555	 11556	 11563	 11576	 11579	 11582	 11594	 11599	 11602	 11603	 11608	 11620	 11628	 11637
	 11650	 11651	 11652	 11653	 11659	 11661	 11663	 11669	 11682	 11683	 11704	 11705	 11706	 11707
	 11709	 11711	 11732	 11734	 11735	 11736	 11966	 11967	 11968	 11969	 11979	 11987	 11991	 11992
	 11993	 11994	 11995	 11996	 11999	 12002	 12003	 12004	 12005	 12007	 12008	 12012	 12017	 12026
	 12027	 12028	 12029	 12036	 12037	 12039	 12042	 12045	 12046	 12047	 12048	 12049	 12051	 12053
	 12054	 12055	 12057	 12058	 12059	 12061	 12062	 12063	 12064	 12072	 12074	 12075	 12082	 12083
	 12084	 12085	 12086	 12096	 12097	 12101	 12102	 12103	 12104	 12106	 12114	 12116	 12125	 12126
	 12131	 12133	 12144	 12145	 12147	 12148	 12151	 12152	 12170	 12171	 12174	 12175	 12176	 12181
	 12183	 12184	 12185	 12195	 12196	 12198	 12199	 12200	 12204	 12205	 12214	 12218	 12228	 12229
T2	   146#	  1883	  1991	  2058	  2290	  2293	  2297	  2305	  2318	  2325	  2330	  2335	  2348	  2359
	  2364	  2366	  2393	  2397	  2401	  2405	  2412	  2413	  2418	  2419	  2606	  2607	  2612	  3960#
	  8362	  8434	  8477	  8485	  8488	  8489	  8493	  8498	  8501	  8502	  8517	  8518	  8522	  8527
	  8533	  8536	  8537	  8541	  8548	  8556	  8580	  8591	  8653	  8655	  8659	  8661	  8672	  8677
	  8685	  8688	  8696	  8702	  8706	  8709	  8717	  8719	  8724	  8727	  8739	  8746	  8749	  8751
	  8759	  8768	  8771	  8776	  8782	  8784	  8790	  8792	  8793	  8795	  8797	  8804	  8816	  8824
	  8829	  8834	  8839	  8843	  8846	  8849	  8854	  8908	  8933	  8947	  8982	  9107	  9112	  9113
	  9119	  9128	  9130	  9136	  9145	  9315	  9345	  9351	  9354	  9375	  9376	  9439	  9440	  9443
	  9445	  9481	  9505	  9506	  9509	  9510	  9511	  9512	  9554	  9555	  9557	  9558	  9559	  9560
	  9561	  9564	  9565	  9566	  9567	  9569	  9570	  9571	  9572	  9573	  9575	  9606	  9608	  9611
	  9612	  9614	  9615	  9617	  9634	  9635	  9636	  9637	  9715	  9720	  9817	 10031	 10204	 10320
	 10321	 10329	 10342	 10377	 10396	 10397	 10400	 10414	 10419	 10421	 10429	 10431	 10443	 10449
	 10451	 10461	 10522	 10536	 10551	 10613	 10615	 10616	 10624	 10629	 10662	 10677	 10683	 10698
	 10703	 10716	 10722	 10727	 10747	 10754	 10755	 10759	 10764	 10766	 10783	 10786	 10819	 10828
	 10844	 10845	 10854	 10857	 10871	 10877	 10880	 10890	 10894	 10898	 10905	 10916	 10920	 10924
	 10931	 10936	 10942	 10950	 10960	 10970	 10978	 10983	 10987	 11003	 11021	 11028	 11030	 11033
	 11037	 11038	 11041	 11068	 11070	 11076	 11119	 11126	 11135	 11162	 11167	 11182	 11188	 11193
	 11196	 11209	 11211	 11220	 11239	 11293	 11369	 11370	 11434	 11436	 11441	 11447	 11450	 11451
	 11452	 11453	 11454	 11455	 11459	 11462	 11463	 11464	 11465	 11473	 11475	 11477	 11478	 11479
	 11480	 11483	 11484	 11485	 11486	 11487	 11488	 11491	 11492	 11493	 11495	 11496	 11497	 11500
	 11504	 11505	 11506	 11507	 11510	 11515	 11516	 11517	 11518	 11520	 11521	 11524	 11544	 11545
	 11546	 11547	 11548	 11551	 11552	 11553	 11561	 11562	 11563	 11564	 11566	 11567	 11570	 11574
	 11575	 11576	 11577	 11578	 11579	 11580	 11581	 11582	 11583	 11585	 11586	 11589	 11609	 11611
	 11622	 11623	 11625	 11627	 11628	 11631	 11632	 11633	 11634	 11657	 11658	 11659	 11660	 11661
	 11666	 11667	 11668	 11669	 11670	 11671	 11674	 11675	 11714	 11716	 11719	 11723	 11725	 11726
	 11729	 11731	 11742	 11747	 11748	 11751
T3	   147#	  1884	  1990	  2057	  2422	  2423	  2512	  2513	  2519	  2520	  2521	  2527	  2529	  2535
	  2537	  2543	  2545	  2556	  2558	  2564	  2570	  2571	  2574	  2580	  2582	  2584	  3687#	  3709
	  3711	  3712	  3717	  3718	  3722	  3723	  3734	  3737	  3747	  3961#	  8276	  8510	  8511	  8516
	  8525	  8529	  8692	  8693	  8725	  8726	  9448	  9449	  9450	  9451	  9453	  9454	  9542	  9543
	  9545	  9547	  9552	  9577	  9579	  9581	  9587	  9589	  9592	  9598	  9600	  9602	  9604	  9607
	  9612	  9613	  9616	  9618	  9620	  9622	  9627	  9656	  9657	  9658	  9660	  9662	  9673	  9674
	  9675	  9678	  9679	  9680	  9681	  9682	  9683	  9685	  9686	  9695	  9696	  9697	  9698	  9699
	  9700	  9701	  9702	  9703	  9704	  9706	  9707	  9711	  9713	  9714	  9751	  9752	  9754	  9755
	  9767	  9769	  9773	  9774	  9775	  9779	  9780	  9781	  9783	  9784	  9785	  9887	  9927	  9928 *** SEQ 0373
	  9930	  9932	  9935	  9936	  9938	  9939	  9940	  9943	  9944	 10034	 10035	 10043	 10044	 10045
	 10058	 10059	 10061	 10062	 10075	 10079	 10081	 10103	 10104	 10111	 10113	 10114	 10116	 10118
	 10121	 10122	 10123	 10125	 10133	 10210	 10213	 10214	 10215	 10216	 10217	 10218	 10219	 10226
	 10227	 10228	 10229	 10253	 10254	 10255	 10264	 10266	 10267	 10288	 10289	 10478	 10479	 10480
	 10488	 10489	 10490	 10544	 10545	 10552	 10553	 10554	 10620	 10621	 10622	 10641	 10642	 10643
	 10645	 10648	 10685	 10707	 10708	 10732	 10733	 10735	 10739	 11078	 11079	 11080	 11081	 11082
	 11099	 11100	 11101	 11102	 11103	 11147	 11149	 11153	 11154	 11212	 11213	 11225	 11227	 11229
	 11230	 11232	 11233	 11235	 11237	 11241	 11242	 11254	 11255	 11256	 11258	 11262	 11266	 11267
	 11271	 11272	 11372	 11373	 11435	 11436	 11437	 11456	 11457	 11458	 11469	 11470	 11471	 11482
	 11495	 11497	 11498	 11499	 11503	 11504	 11507	 11508	 11509	 11511	 11514	 11515	 11518	 11519
	 11521	 11522	 11523	 11540	 11546	 11548	 11549	 11550	 11554	 11555	 11560	 11561	 11564	 11565
	 11567	 11568	 11569	 11571	 11573	 11574	 11577	 11580	 11583	 11584	 11586	 11587	 11588	 11590
	 11593	 11595	 11597	 11607	 11612	 11614	 11616	 11618	 11643	 11660	 11670	 11715	 11717	 11721
	 11984	 11988	 11989	 11990	 11991	 11992	 11999	 12000	 12001	 12012	 12013	 12014	 12017	 12018
	 12019	 12020	 12021	 12022	 12025	 12026	 12027	 12034	 12035	 12036	 12037	 12042	 12043	 12044
	 12091	 12092	 12109	 12110	 12123	 12124	 12125	 12126	 12172	 12173	 12174	 12175	 12176
T4	  3689#	  3721	  3723	  3724	  3726	  3727	  3744
TAB	   639#	  1914	  2109
TABLE	  4092#	  9773
TADD	  3585	  3586#
TBLAD1	  2291	  2326	  2331	  2349	  2878#
TBLBOL	  2344	  2925#
TBLBYT	  2298	  2785#
TBLCM	  2340	  2910#
TBLCOM	  2336	  2893#
TBLFLT	  2286	  2768#
TBLH	  2355	  2960#
TBLMO	  2306	  2829#
TBLMOV	  2319	  2360	  2822#
TBLMUO	  2402	  3083#
TBLMUX	  2406	  3086#
TBLMV	  2312	  2801#
TBLNEW	  2394	  3045#
TBLTA	  2370	  2994#
TBLTA1	  2374	  3010#
TBLTB	  2378	  3019#
TBLUUO	  2398	  3080#
TCONSX	  8915#
TEMP	  1490#	  1490	  1491	  1493
TEST	  7220	  7235	  7280	  7295	  7340	  7355	  7400	  7415	  7460	  7475	  7520	  7535	  7580	  7595
	  7640	  7655	  7700	  7715	  7760	  7775	  7820	  7835	  7880	  7895	  7940	  7955	  8000	  8015
	  8060	  8075	  8120	  8135	  8322#	  8323
TEST1	  7218	  7233	  7278	  7293	  7338	  7353	  7398	  7413	  7458	  7473	  7518	  7533	  7578	  7593
	  7638	  7653	  7698	  7713	  7758	  7773	  7818	  7833	  7878	  7893	  7938	  7953	  7998	  8013
	  8058	  8073	  8118	  8133	  8318#	  8319
TESTPC	   514#	   889	   901	   915	   929	   939	   950	   970	   983	   994	  1007
TICKS	   517#	   774	  1380	  1710	  1749	  1766
TIMAC1	  1771#	  1771	  1775	  1777	  1781
TIMC1	 11717	 11722	 11726#
TIMCAL	  9387	 11714#
TIME	  9267	  9713#	  9713	  9714	  9723	 10035	 10215	 10219	 11267	 11726	 11966	 11987	 12049	 12083
	 12084	 12086	 12097	 12102	 12146	 12148	 12151	 12153	 12170	 12202	 12204	 12206	 12228
TIMFRC	  1756	  1767#	  1767	  1785                                                                                 *** SEQ 0374
TLPNT1	  1376	  1379	  1383#
TN0	   442#	  4086#	  8342	  8348	  9424	  9735
TN1	   442#	  4087#	  8263	  8393	  8734	  9424	  9735	 10301	 10639	 10640	 10770	 10955	 11174
TNCLRI	  9146#	  9146	  9149	  9155	 10053	 10106
TOTALS	   176#	  1464
TRP3TP	   442#
TRPCSE	  9294	  9420#	  9420	  9422	  9949
TRPCYC	  9290	  9421	  9426	  9737#	  9737	 10002
TRPENB	   442#
TRPSAT	  9292	  9423	  9425	  9427	 10054#	 10054	 10057	 10107	 10957	 10973	 11300
TSTIMA	  1701	  1757	  1760#	  1762	  1786
TSTIMB	  1753	  1788#
TSTIMC	  1756#	  1790
TSTIME	  1713	  1748#	  1755	  1758	  1789
TSTIMR	   775#	   775	  1750	  1768
TTLPNT	  1249	  1299	  1370#	  1393	  1402
TTNBRF	   697#
TTODD	  2368	  2377#
TTST	  9273#	  9273
TTSTA	  2371#	  2379
TTTST	  2259	  2362#
TTYFIL	   613#
TTYSPD	   614#
TXTINH	   187#
UFA2	  4230	  8763#	  8764
UFLOW	  3613	  3633#
UOLIP	   442#	  4085#
UOUSR	   442#
UPRPC	  1871#	  2081
USER	   504#	   783	   858	  1240	  1375	  1544	  1724	  1798
USERF	   442#	  1217	  1344	  4082#	  8287	  9046	  9953	  9998	 11356
USR420	  9954	  9968#
USR427	  9969#	 11357
USR436	  9970#	 10000
USRASB	    35#	   494
USRCMP	   442#
USRCRF	   623#
USRLFF	   622#
USRPFW	   442#
UUO1	  8351#	  8352
UUODIS	   576#
UUOEXT	   532#	  1349
UUOF	  8991	  9149#
UUOFD	  8990#
UUORTN	   533#
UUOSKP	   530#
UUOTAB	  2397	  2401	  2750#
UUOTST	  2277	  2397#
VERTIM	 10034	 11725	 12085	 12261#
VM	   162#
VMEM	  1698#	  2571
WARN	 12002	 12045	 12240#
WARNDL	  4069#	 12004	 12047                                                                                         *** SEQ 0375
WARNED	  9266	 12034#	 12034	 12046
WRCYC	 12174	 12255#
WRRST	 10220	 12166#
X1	  3475#	  3534	  3537	  3541	  3543	  3597	  3599	  3601	  3609	  3610	  3611	  3614	  3616	  3619
	  3620	  3622	  3633	  3634	  3636	  3645	  3647	  3648	  3655	  3795#	  3828	  3830	  3831	  3833
	  3834	  3844
X2	  3472#	  3535	  3539	  3540	  3543	  3792#	  3813	  3814	  3815	  3819	  3822	  3829	  3830	  3848
XCT2	  4845	  8286#	  8287
XCTF	  2054	  9150#	  9150	  9154	  9271	  9716	 12135	 12139	 12187	 12191
XCTFD	  4843	  8972#
XCTFD1	  8973	  8985	  9154#
XCTPAC	  9730#	  9730	  9734	  9763	  9765
XCTPRD	  8294#	  8294	  9732	  9762
XCTPWR	  8292#	  8292	  9733	  9764
XDIFF	  3473#	  3540	  3541	  3542	  3562	  3563	  3564	  3644
$$MUUO	   728#
$$OUTE	   734#
$$TAX1	   746#
$$TAX2	   747#
$$TOGG	   740#
$$UUO	   717#
$ACC0	   555#
$BEND1	   525#
$BEND2	   526#
$CHRIN	   616#
$CRLF	   618#
$DEVCH	   442#
$DSKUP	   495#
$DVCH1	   442#
$DVOFF	   612#
$EMODE	   493#
$ENDFX	   762#	   763
$FFF	   620#
$IBUF	   668#
$INEXT	   670#
$INNM	   669#
$ITRHL	   536#	   863
$ITRX1	   537#
$LPAPE	 12282
$MMAP	   496#
$MODVL	   491#
$MODVU	   492#
$OBUF	   659#
$ONETM	   519#
$OUTEX	   661#
$OUTNM	   660#
$PAPER	   442
$PARER	   543#
$PNAME	   489#
$PSHER	   547#
$PVER	   490#
$RSRTX	   539#
$RSRTY	   540#                                                                                                        *** SEQ 0376
$SPAG1	   559#
$START	   456#
$SVAPR	   557#	  1407
$SVPAG	   558#
$SVPI	   556#	  1408
$SVUPC	   562#
$SVUUO	   561#	  1334
$TABF	   619#
$TTCHR	   615#
$TWCNT	   611#
$TYPNB	   617#
$UMODE	   494#
$UORTX	   534#
$USRHL	   538#
$UUOER	   535#	   576
$VTF	   621#
%ACTFL	   568#
%ACTUL	   569#
%COREC	   567#
%CORFL	   566#
%DISCR	   570#
%ERHI1	   709#
%ERHI2	   710#
%ERHI3	   711#
.BYTF	   799#	   799	   817	   971
.DFLTF	   802#	   802	   819	   984
.FASTF	   800#	   800	   821	   893	   932	   986
.FIXF	   797#	   797	   813	   891
.FLTF	   798#	   798	   815	   930
.FOO.	  3983#	  3983	  3985#	  3985	  3989#	  3989	  3998#	  3998	  4004#	  4004	  4006	  4006#	  4010#	  4010
	  4016	  4016#	  4021#	  4021	  4053#	  4053	  4054	  4054#	  4055	  4055#	  4058#	  4058	  4059	  4059#
	  4060	  4060#	  4061	  4061#	  4065	  4065#
.JB41	   442#
.JBAPR	   442#
.JBCNI	   442#
.JBDDT	   442#
.JBFF	   442#
.JBOPC	   442#
.JBREL	   442#
.JBREN	   442#
.JBSA	   442#
.JBSYM	   442#
.JBTPC	   442#
.JBUSY	   442#
.JBUUO	   442#
.JBVER	   442#
.SLOWF	   801#	   801	   823	   916	   951	  1009
ASYM	  8902#	  8907	  8910	  8913	  8915	  8917	  8919	  8921	  8923	  8926	  8929	  8932	  8935	  8937
	  8940	  8943	  8946	  8949	  8951	  8954	  8957	  8960	  8963	  8966	  8969	  8972	  8975	  8977 *** SEQ 0377
	  8979	  8981	  8984	  8987	  8990	  8993	  8996
BITS	  3973#	  3982	  3984	  3987	  3996	  4003	  4005	  4009	  4015	  4020	  4052	  4053	  4054	  4057
	  4058	  4059	  4060	  4064
CFLUSH	   359#
CINVAL	   358#
CLOKOP	   353#
CMP	  5454#	  5474	  5475	  5476	  5477	  5478	  5479	  5480	  5488	  5489	  5490	  5491	  5492	  5493
	  5494	  5502	  5503	  5504	  5505	  5506	  5507	  5508	  5516	  5517	  5518	  5519	  5520	  5521
	  5522	  5530	  5531	  5532	  5533	  5534	  5535	  5536	  5544	  5545	  5546	  5547	  5548	  5549
	  5550	  5558	  5559	  5560	  5561	  5562	  5563	  5564	  5572	  5573	  5574	  5575	  5576	  5577
	  5578	  5586	  5587	  5588	  5589	  5590	  5591	  5592	  5600	  5601	  5602	  5603	  5604	  5605
	  5606	  5614	  5615	  5616	  5617	  5618	  5619	  5620	  5628	  5629	  5630	  5631	  5632	  5633
	  5634	  5642	  5643	  5644	  5645	  5646	  5647	  5648	  5656	  5657	  5658	  5659	  5660	  5661
	  5662	  5670	  5671	  5672	  5673	  5674	  5675	  5676	  5684	  5685	  5686	  5687	  5688	  5689
	  5690	  5698	  5699	  5700	  5701	  5702	  5703	  5704	  5712	  5713	  5714	  5715	  5716	  5717
	  5718	  5726	  5727	  5728	  5729	  5730	  5731	  5732	  5740	  5741	  5742	  5743	  5744	  5745
	  5746	  5754	  5755	  5756	  5757	  5758	  5759	  5760	  5768	  5769	  5770	  5771	  5772	  5773
	  5774	  5782	  5783	  5784	  5785	  5786	  5787	  5788	  5796	  5797	  5798	  5799	  5800	  5801
	  5802	  5810	  5811	  5812	  5813	  5814	  5815	  5816	  5824	  5825	  5826	  5827	  5828	  5829
	  5830	  5838	  5839	  5840	  5841	  5842	  5843	  5844	  5852	  5853	  5854	  5855	  5856	  5857
	  5858	  5866	  5867	  5868	  5869	  5870	  5871	  5872	  5880	  5881	  5882	  5883	  5884	  5885
	  5886	  5894	  5895	  5896	  5897	  5898	  5899	  5900	  5908	  5909	  5910	  5911	  5912	  5913
	  5914	  5922	  5923	  5924	  5925	  5926	  5927	  5928	  5936	  5937	  5938	  5939	  5940	  5941
	  5942	  5950	  5951	  5952	  5953	  5954	  5955	  5956	  5964	  5965	  5966	  5967	  5968	  5969
	  5970	  5978	  5979	  5980	  5981	  5982	  5983	  5984	  5992	  5993	  5994	  5995	  5996	  5997
	  5998	  6006	  6007	  6008	  6009	  6010	  6011	  6012	  6020	  6021	  6022	  6023	  6024	  6025
	  6026	  6034	  6035	  6036	  6037	  6038	  6039	  6040	  6048	  6049	  6050	  6051	  6052	  6053
	  6054	  6062	  6063	  6064	  6065	  6066	  6067	  6068	  6076	  6077	  6078	  6079	  6080	  6081
	  6082	  6090	  6091	  6092	  6093	  6094	  6095	  6096	  6104	  6105	  6106	  6107	  6108	  6109
	  6110	  6118	  6119	  6120	  6121	  6122	  6123	  6124	  6132	  6133	  6134	  6135	  6136	  6137
	  6138	  6146	  6147	  6148	  6149	  6150	  6151	  6152	  6160	  6161	  6162	  6163	  6164	  6165
	  6166	  6174	  6175	  6176	  6177	  6178	  6179	  6180	  6188	  6189	  6190	  6191	  6192	  6193
	  6194	  6202	  6203	  6204	  6205	  6206	  6207	  6208	  6216	  6217	  6218	  6219	  6220	  6221
	  6222	  6230	  6231	  6232	  6233	  6234	  6235	  6236	  6244	  6245	  6246	  6247	  6248	  6249
	  6250	  6258	  6259	  6260	  6261	  6262	  6263	  6264	  6272	  6273	  6274	  6275	  6276	  6277
	  6278	  6286	  6287	  6288	  6289	  6290	  6291	  6292	  6300	  6301	  6302	  6303	  6304	  6305
	  6306	  6314	  6315	  6316	  6317	  6318	  6319	  6320	  6328	  6329	  6330	  6331	  6332	  6333
	  6334	  6342	  6343	  6344	  6345	  6346	  6347	  6348	  6356	  6357	  6358	  6359	  6360	  6361
	  6362
CWRTBI	   360#
DADD	  3503#	  3521
DFD	  3798#	  3809
DM	  3693#	  3705
DROPDV	   320#	  1856
DSUB	  3500#	  3512
DSYM	  8236#	  8240	  8246	  8248	  8251	  8255	  8266	  8275	  8286	  8297	  8308	  8318	  8322	  8328
	  8331	  8337	  8340	  8345	  8351	  8355	  8359	  8373	  8378	  8385	  8389	  8397	  8404	  8415
	  8431	  8433	  8441	  8451	  8461	  8473	  8482	  8484	  8492	  8505	  8509	  8532	  8540	  8547
	  8553	  8564	  8568	  8572	  8575	  8579	  8586	  8589	  8594	  8600	  8604	  8607	  8630	  8636
	  8642	  8648	  8652	  8658	  8666	  8675	  8684	  8698	  8705	  8716	  8722	  8730	  8745	  8748
	  8755	  8763	  8766	  8775	  8780	  8789	  8815	  8822	  8828	  8833	  8841	  8853	  8889	  8892
	  8896
ENDUUO	   366#	   524                                                                                                 *** SEQ 0378
EOPUUO	   367#	   526
ERLOOP	   411#
ERLP1	   412#
ERLP2	   413#
ERRHLT	   255#	   833	   841	  1557	  2202	  2282
ERROR	   420#
ERROR1	   432#
ERUUO	   410#
FAM	  3492#	  3522
FATAL	   254#
FRD36	   395#
FRD8	   396#
FREAD	   394#
FSELEC	   393#
FSM	  3484#	  3513
GET	   238#	  2129
GO	   235#	  1340	  1435	  1436	  1437	  1438	  1445	  1449	  1450	  1831	  1892	  1897	  1921	  1926
	  1931	  1936	  1941	  1946	  1959	  1964	  1969	  1974	  1979	  1984	  2001	  2006	  2011	  2049
	  2092	  2108	  2198	  2419	  2445	  2448	  2449	  2452	  2453	  2456	  2457	  2458	  2461	  2462
	  2465	  2466	  2469	  2470	  2471	  2474	  2475	  2476	  2477	  2480	  2483	  2484	  2487	  2488
	  2489	  2492	  2493	  2494	  2497	  2498	  2501	  2502	  2505	  2506	  2507	  2510	  2528	  2536
	  2544	  2557	  2573	  2601	  2612	  2613
GOODY	  3700#	  3704	  3805#	  3808
HALT	   240#	   545	  1410	 11281
INX	  2765#	  2768	  2770	  2772	  2774	  2776	  2778	  2780	  2782	  2785	  2787	  2789	  2791	  2793
	  2795	  2797	  2799	  2801	  2803	  2805	  2807	  2809	  2811	  2813	  2815	  2817	  2819	  2823
	  2825	  2827	  2829	  2831	  2833	  2835	  2837	  2839	  2841	  2844	  2846	  2848	  2850	  2852
	  2854	  2856	  2858	  2860	  2862	  2864	  2866	  2868	  2870	  2872	  2874	  2876	  2879	  2881
	  2883	  2886	  2888	  2890	  2893	  2895	  2897	  2899	  2901	  2903	  2905	  2907	  2911	  2913
	  2915	  2917	  2919	  2921	  2923	  2925	  2927	  2929	  2931	  2933	  2935	  2937	  2939	  2941
	  2943	  2945	  2947	  2949	  2951	  2953	  2955	  2958	  2960	  2962	  2964	  2966	  2968	  2970
	  2972	  2974	  2976	  2978	  2980	  2982	  2984	  2986	  2988	  2990	  2992	  2994	  2996	  2998
	  3000	  3002	  3004	  3006	  3008	  3011	  3013	  3015	  3019	  3021	  3023	  3025	  3027	  3029
	  3031	  3033	  3045	  3047	  3049	  3051	  3053	  3055	  3057	  3059	  3061	  3063	  3065	  3067
	  3069	  3071	  3073	  3075	  3080	  3083	  3086	  3217	  3219	  3221	  3223	  3225	  3227	  3229
	  3231	  3233	  3235	  3237	  3239	  3241	  3243	  3245	  3247	  3249	  3251	  3253	  3255	  3257
	  3259	  3261	  3263	  3265	  3267	  3269	  3271	  3273	  3275	  3277	  3279	  3281	  3283	  3285
	  3287	  3289	  3291	  3293	  3295	  3297	  3299	  3301	  3303	  3305	  3307	  3309	  3311	  3313
	  3315	  3317	  3319	  3321	  3323	  3325	  3327	  3329	  3331	  3333	  3335	  3337	  3339	  3341
	  3343	  3345	  3347	  3349	  3351	  3353	  3355	  3357	  3359	  3361	  3363	  3365	  3367	  3369
	  3371	  3373	  3375	  3377	  3379	  3381	  3383	  3385	  3387	  3389	  3391	  3393	  3395	  3397
	  3399	  3401	  3403	  3405	  3407
JEN	   242#	  1721
JRSTF	   241#	  1709
MAKNEG	  3506#	  3548	  3555	  3569	  3576
MAPADR	   376#
MAPCNK	   377#
MAPMEM	   373#
MAPPNT	   379#
MAPSET	   378#
MEMSEG	   375#
MEMZRO	   374#
MODPCP	   386#                                                                                                        *** SEQ 0379
MODPCU	   385#
MTROP	   354#
NAME	     7#	    10
NORM	   133#	  1510	  1517	  1524	  1531
PBELL	   329#
PCRL	   323#
PCRL2	   327#
PCRL2F	   328#
PCRLF	   324#
PFORCE	   331#
PGMINT	   248#	   778
PJRST	   239#
PMSG	   333#
PMSGF	   336#
PNT1	   289#
PNT11	   303#
PNT11F	   304#
PNT1F	   290#
PNT2	   291#
PNT2F	   292#
PNT3	   293#	  1976	  1981	  1986
PNT3F	   294#
PNT4	   295#
PNT4F	   296#
PNT5	   297#
PNT5F	   298#
PNT6	   299#	  1923	  1928	  1933	  2003	  2105	  2128
PNT6F	   300#	  2194
PNT7	   301#
PNT7F	   302#
PNTA	   275#	  1389	  1401	  1596	  1740	  1913	  1915	  1953	  1956	  1988	  2015	  2098	  2100	  2107
	  2110	  2120	  2135	  2141	  2143	  2175	  2287	  2292	  2313	  2337	  2345	  2353	  2356	  2363
	  2371	  2596	  2635
PNTADF	   306#
PNTADR	   305#
PNTAF	   276#	  1277	  1774	  1780	  1784
PNTAL	   277#	  1248	  1298	  1385	  1396	  1578	  1586	  1731	  1736	  2020	  2089	  2151	  2155	  2157
	  2591	  2599	  2611	  2617	  2622	  2628	  2639	  2645
PNTALF	   278#	   792	   832	   840	  1556	  1765	  1863	  2187	  2192	  2197
PNTCHF	   288#
PNTCHR	   287#
PNTCI	   285#
PNTCIF	   286#
PNTCW	   321#
PNTCWF	   322#
PNTDCF	   314#	  1772	  1778	  1782
PNTDEC	   313#	  1399	  1733	  2091
PNTDS	   315#
PNTDSF	   316#
PNTHW	   309#	  1387	  1580	  1738	  2594	  2624	  2630	  2641	  2647
PNTHWF	   310#
PNTMGN	   400#	  1390
PNTMSF	   282#                                                                                                        *** SEQ 0380
PNTMSG	   281#
PNTNM	   317#	  1372
PNTOCF	   312#
PNTOCS	   311#	  2118	  2139	  2181
PNTOCT	   307#	  1588	  1592	  1594	  1938	  1943	  1948	  1961	  1966	  1971	  2008	  2013
PNTOTF	   308#
PNTSIX	   318#
PNTSXF	   319#
PSIXL	   279#
PSIXLF	   280#
PSIXM	   283#
PSIXMF	   284#
PSP	   325#
PSPF	   326#
PT	 11757#	 11759	 11760	 11761	 11762	 11763	 11764	 11765	 11767	 11769	 11772	 11773	 11774	 11776
	 11777	 11778	 11779	 11780	 11781	 11784	 11785	 11787	 11788	 11791	 11796	 11797	 11799	 11800
	 11801	 11803	 11807	 11808	 11810	 11811	 11812	 11813	 11814	 11819	 11820	 11821	 11822	 11823
	 11824	 11825	 11826	 11827	 11838	 11840	 11851	 11855	 11857	 11858	 11860	 11861	 11864	 11869
	 11870	 11872	 11873	 11881	 11882	 11884	 11885	 11886	 11893	 11894	 11896	 11905	 11906	 11908
	 11910	 11912	 11917	 11918	 11920	 11921	 11922	 11929	 11935	 11936	 11937	 11941	 11942	 11944
	 11945	 11946	 11947	 11954	 11955	 11957	 11958	 11959	 11960	 11961
PUT	   237#	  2126
REPTUO	   414#
RESTOR	   126#
RTN	   236#	   532	  2144	  2583	  2585	  2648
S	   166#	   168	   172	   201	   203	   212	   215	   230	   231	   233	   244	   246	   250	   252
	   257	   261	   406	   408	   442	   447	   453	   480	   482	   500	   502	   520	   522	   551
	   553	   571	   573	   591	   593	   601	   603	   624	   629	   655	   657	   664	   666	   672
	   674	   680	   682	   686	   688	   693	   695	   699	   701	   705	   707	   713	   715	   718
	   720	   724	   726	   730	   732	   736	   738	   742	   744	   749	   754	   758	   760
SAVEM	   119#	  1205	  1301	  1563
SINST	    64#	  1210
SIXBTZ	   342#
SMT	    65#	  1568
SUBTST	   115#	   887	   899	   913	   927	   937	   948	   968	   981	   992	  1005
SWCHES	  4622#	  4633	  4639	  4645	  4651	  4657	  4663	  4669	  4675	  4691	  4698	  4705	  4712	  4719
	  4726	  4733	  4740
SWITCH	   348#	   780	   787	   807	   857	  1260	  1454	  1463	  1741	  2094	  2586
TTALTM	   270#
TTICHR	   263#
TTICNV	   268#
TTIDEC	   267#
TTINO	   265#
TTIOCT	   266#	   793
TTIYES	   264#
TTLOOK	   269#
TTSIXB	   271#
TTYINP	   272#
